{
	"M/Multiplexing/zkSubcallVerifier.sol": {
		"zkWhitelistedMultiplexer": {
			"abi": [
				{
					"inputs": [
						{
							"internalType": "address",
							"name": "_verifier",
							"type": "address"
						}
					],
					"stateMutability": "nonpayable",
					"type": "constructor"
				},
				{
					"inputs": [],
					"name": "verifier",
					"outputs": [
						{
							"internalType": "contract IZKVerifier",
							"name": "",
							"type": "address"
						}
					],
					"stateMutability": "view",
					"type": "function"
				},
				{
					"inputs": [
						{
							"internalType": "address[]",
							"name": "targets",
							"type": "address[]"
						},
						{
							"internalType": "bytes[]",
							"name": "payloads",
							"type": "bytes[]"
						},
						{
							"internalType": "bytes[]",
							"name": "zkProofs",
							"type": "bytes[]"
						},
						{
							"internalType": "bytes32[]",
							"name": "inputs",
							"type": "bytes32[]"
						}
					],
					"name": "zkExecuteBatch",
					"outputs": [],
					"stateMutability": "nonpayable",
					"type": "function"
				}
			],
			"devdoc": {
				"kind": "dev",
				"methods": {},
				"version": 1
			},
			"evm": {
				"assembly": "    /* \"M/Multiplexing/zkSubcallVerifier.sol\":116:788  contract zkWhitelistedMultiplexer {... */\n  mstore(0x40, 0x80)\n    /* \"M/Multiplexing/zkSubcallVerifier.sol\":190:271  constructor(address _verifier) {... */\n  callvalue\n  dup1\n  iszero\n  tag_1\n  jumpi\n  0x00\n  dup1\n  revert\ntag_1:\n  pop\n  mload(0x40)\n  sub(codesize, bytecodeSize)\n  dup1\n  bytecodeSize\n  dup4\n  codecopy\n  dup2\n  dup2\n  add\n  0x40\n  mstore\n  dup2\n  add\n  swap1\n  tag_2\n  swap2\n  swap1\n  tag_3\n  jump\t// in\ntag_2:\n    /* \"M/Multiplexing/zkSubcallVerifier.sol\":254:263  _verifier */\n  dup1\n    /* \"M/Multiplexing/zkSubcallVerifier.sol\":231:239  verifier */\n  0x00\n  dup1\n    /* \"M/Multiplexing/zkSubcallVerifier.sol\":231:264  verifier = IZKVerifier(_verifier) */\n  0x0100\n  exp\n  dup2\n  sload\n  dup2\n  0xffffffffffffffffffffffffffffffffffffffff\n  mul\n  not\n  and\n  swap1\n  dup4\n  0xffffffffffffffffffffffffffffffffffffffff\n  and\n  mul\n  or\n  swap1\n  sstore\n  pop\n    /* \"M/Multiplexing/zkSubcallVerifier.sol\":190:271  constructor(address _verifier) {... */\n  pop\n    /* \"M/Multiplexing/zkSubcallVerifier.sol\":116:788  contract zkWhitelistedMultiplexer {... */\n  jump(tag_6)\n    /* \"#utility.yul\":88:205   */\ntag_8:\n    /* \"#utility.yul\":197:198   */\n  0x00\n    /* \"#utility.yul\":194:195   */\n  dup1\n    /* \"#utility.yul\":187:199   */\n  revert\n    /* \"#utility.yul\":334:460   */\ntag_10:\n    /* \"#utility.yul\":371:378   */\n  0x00\n    /* \"#utility.yul\":411:453   */\n  0xffffffffffffffffffffffffffffffffffffffff\n    /* \"#utility.yul\":404:409   */\n  dup3\n    /* \"#utility.yul\":400:454   */\n  and\n    /* \"#utility.yul\":389:454   */\n  swap1\n  pop\n    /* \"#utility.yul\":334:460   */\n  swap2\n  swap1\n  pop\n  jump\t// out\n    /* \"#utility.yul\":466:562   */\ntag_11:\n    /* \"#utility.yul\":503:510   */\n  0x00\n    /* \"#utility.yul\":532:556   */\n  tag_20\n    /* \"#utility.yul\":550:555   */\n  dup3\n    /* \"#utility.yul\":532:556   */\n  tag_10\n  jump\t// in\ntag_20:\n    /* \"#utility.yul\":521:556   */\n  swap1\n  pop\n    /* \"#utility.yul\":466:562   */\n  swap2\n  swap1\n  pop\n  jump\t// out\n    /* \"#utility.yul\":568:690   */\ntag_12:\n    /* \"#utility.yul\":641:665   */\n  tag_22\n    /* \"#utility.yul\":659:664   */\n  dup2\n    /* \"#utility.yul\":641:665   */\n  tag_11\n  jump\t// in\ntag_22:\n    /* \"#utility.yul\":634:639   */\n  dup2\n    /* \"#utility.yul\":631:666   */\n  eq\n    /* \"#utility.yul\":621:684   */\n  tag_23\n  jumpi\n    /* \"#utility.yul\":680:681   */\n  0x00\n    /* \"#utility.yul\":677:678   */\n  dup1\n    /* \"#utility.yul\":670:682   */\n  revert\n    /* \"#utility.yul\":621:684   */\ntag_23:\n    /* \"#utility.yul\":568:690   */\n  pop\n  jump\t// out\n    /* \"#utility.yul\":696:839   */\ntag_13:\n    /* \"#utility.yul\":753:758   */\n  0x00\n    /* \"#utility.yul\":784:790   */\n  dup2\n    /* \"#utility.yul\":778:791   */\n  mload\n    /* \"#utility.yul\":769:791   */\n  swap1\n  pop\n    /* \"#utility.yul\":800:833   */\n  tag_25\n    /* \"#utility.yul\":827:832   */\n  dup2\n    /* \"#utility.yul\":800:833   */\n  tag_12\n  jump\t// in\ntag_25:\n    /* \"#utility.yul\":696:839   */\n  swap3\n  swap2\n  pop\n  pop\n  jump\t// out\n    /* \"#utility.yul\":845:1196   */\ntag_3:\n    /* \"#utility.yul\":915:921   */\n  0x00\n    /* \"#utility.yul\":964:966   */\n  0x20\n    /* \"#utility.yul\":952:961   */\n  dup3\n    /* \"#utility.yul\":943:950   */\n  dup5\n    /* \"#utility.yul\":939:962   */\n  sub\n    /* \"#utility.yul\":935:967   */\n  slt\n    /* \"#utility.yul\":932:1051   */\n  iszero\n  tag_27\n  jumpi\n    /* \"#utility.yul\":970:1049   */\n  tag_28\n  tag_8\n  jump\t// in\ntag_28:\n    /* \"#utility.yul\":932:1051   */\ntag_27:\n    /* \"#utility.yul\":1090:1091   */\n  0x00\n    /* \"#utility.yul\":1115:1179   */\n  tag_29\n    /* \"#utility.yul\":1171:1178   */\n  dup5\n    /* \"#utility.yul\":1162:1168   */\n  dup3\n    /* \"#utility.yul\":1151:1160   */\n  dup6\n    /* \"#utility.yul\":1147:1169   */\n  add\n    /* \"#utility.yul\":1115:1179   */\n  tag_13\n  jump\t// in\ntag_29:\n    /* \"#utility.yul\":1105:1179   */\n  swap2\n  pop\n    /* \"#utility.yul\":1061:1189   */\n  pop\n    /* \"#utility.yul\":845:1196   */\n  swap3\n  swap2\n  pop\n  pop\n  jump\t// out\n    /* \"M/Multiplexing/zkSubcallVerifier.sol\":116:788  contract zkWhitelistedMultiplexer {... */\ntag_6:\n  dataSize(sub_0)\n  dup1\n  dataOffset(sub_0)\n  0x00\n  codecopy\n  0x00\n  return\nstop\n\nsub_0: assembly {\n        /* \"M/Multiplexing/zkSubcallVerifier.sol\":116:788  contract zkWhitelistedMultiplexer {... */\n      mstore(0x40, 0x80)\n      callvalue\n      dup1\n      iszero\n      tag_1\n      jumpi\n      0x00\n      dup1\n      revert\n    tag_1:\n      pop\n      jumpi(tag_2, lt(calldatasize, 0x04))\n      shr(0xe0, calldataload(0x00))\n      dup1\n      0x2b7ac3f3\n      eq\n      tag_3\n      jumpi\n      dup1\n      0xcaf9a1de\n      eq\n      tag_4\n      jumpi\n    tag_2:\n      0x00\n      dup1\n      revert\n        /* \"M/Multiplexing/zkSubcallVerifier.sol\":156:183  IZKVerifier public verifier */\n    tag_3:\n      tag_5\n      tag_6\n      jump\t// in\n    tag_5:\n      mload(0x40)\n      tag_7\n      swap2\n      swap1\n      tag_8\n      jump\t// in\n    tag_7:\n      mload(0x40)\n      dup1\n      swap2\n      sub\n      swap1\n      return\n        /* \"M/Multiplexing/zkSubcallVerifier.sol\":277:786  function zkExecuteBatch(... */\n    tag_4:\n      tag_9\n      0x04\n      dup1\n      calldatasize\n      sub\n      dup2\n      add\n      swap1\n      tag_10\n      swap2\n      swap1\n      tag_11\n      jump\t// in\n    tag_10:\n      tag_12\n      jump\t// in\n    tag_9:\n      stop\n        /* \"M/Multiplexing/zkSubcallVerifier.sol\":156:183  IZKVerifier public verifier */\n    tag_6:\n      0x00\n      dup1\n      sload\n      swap1\n      0x0100\n      exp\n      swap1\n      div\n      0xffffffffffffffffffffffffffffffffffffffff\n      and\n      dup2\n      jump\t// out\n        /* \"M/Multiplexing/zkSubcallVerifier.sol\":277:786  function zkExecuteBatch(... */\n    tag_12:\n        /* \"M/Multiplexing/zkSubcallVerifier.sol\":493:501  zkProofs */\n      dup4\n      dup4\n        /* \"M/Multiplexing/zkSubcallVerifier.sol\":493:508  zkProofs.length */\n      swap1\n      pop\n        /* \"M/Multiplexing/zkSubcallVerifier.sol\":475:482  targets */\n      dup9\n      dup9\n        /* \"M/Multiplexing/zkSubcallVerifier.sol\":475:489  targets.length */\n      swap1\n      pop\n        /* \"M/Multiplexing/zkSubcallVerifier.sol\":475:508  targets.length == zkProofs.length */\n      eq\n        /* \"M/Multiplexing/zkSubcallVerifier.sol\":467:528  require(targets.length == zkProofs.length, \"Length mismatch\") */\n      tag_14\n      jumpi\n      mload(0x40)\n      0x08c379a000000000000000000000000000000000000000000000000000000000\n      dup2\n      mstore\n      0x04\n      add\n      tag_15\n      swap1\n      tag_16\n      jump\t// in\n    tag_15:\n      mload(0x40)\n      dup1\n      swap2\n      sub\n      swap1\n      revert\n    tag_14:\n        /* \"M/Multiplexing/zkSubcallVerifier.sol\":544:553  uint256 i */\n      0x00\n        /* \"M/Multiplexing/zkSubcallVerifier.sol\":539:780  for (uint256 i = 0; i < targets.length; i++) {... */\n    tag_17:\n        /* \"M/Multiplexing/zkSubcallVerifier.sol\":563:570  targets */\n      dup9\n      dup9\n        /* \"M/Multiplexing/zkSubcallVerifier.sol\":563:577  targets.length */\n      swap1\n      pop\n        /* \"M/Multiplexing/zkSubcallVerifier.sol\":559:560  i */\n      dup2\n        /* \"M/Multiplexing/zkSubcallVerifier.sol\":559:577  i < targets.length */\n      lt\n        /* \"M/Multiplexing/zkSubcallVerifier.sol\":539:780  for (uint256 i = 0; i < targets.length; i++) {... */\n      iszero\n      tag_18\n      jumpi\n        /* \"M/Multiplexing/zkSubcallVerifier.sol\":606:614  verifier */\n      0x00\n      dup1\n      sload\n      swap1\n      0x0100\n      exp\n      swap1\n      div\n      0xffffffffffffffffffffffffffffffffffffffff\n      and\n        /* \"M/Multiplexing/zkSubcallVerifier.sol\":606:621  verifier.verify */\n      0xffffffffffffffffffffffffffffffffffffffff\n      and\n      0x6b406341\n        /* \"M/Multiplexing/zkSubcallVerifier.sol\":622:630  zkProofs */\n      dup7\n      dup7\n        /* \"M/Multiplexing/zkSubcallVerifier.sol\":631:632  i */\n      dup5\n        /* \"M/Multiplexing/zkSubcallVerifier.sol\":622:633  zkProofs[i] */\n      dup2\n      dup2\n      lt\n      tag_20\n      jumpi\n      tag_21\n      tag_22\n      jump\t// in\n    tag_21:\n    tag_20:\n      swap1\n      pop\n      0x20\n      mul\n      dup2\n      add\n      swap1\n      tag_23\n      swap2\n      swap1\n      tag_24\n      jump\t// in\n    tag_23:\n        /* \"M/Multiplexing/zkSubcallVerifier.sol\":635:641  inputs */\n      dup7\n      dup7\n        /* \"M/Multiplexing/zkSubcallVerifier.sol\":642:643  i */\n      dup7\n        /* \"M/Multiplexing/zkSubcallVerifier.sol\":635:644  inputs[i] */\n      dup2\n      dup2\n      lt\n      tag_25\n      jumpi\n      tag_26\n      tag_22\n      jump\t// in\n    tag_26:\n    tag_25:\n      swap1\n      pop\n      0x20\n      mul\n      add\n      calldataload\n        /* \"M/Multiplexing/zkSubcallVerifier.sol\":606:645  verifier.verify(zkProofs[i], inputs[i]) */\n      mload(0x40)\n      dup5\n      0xffffffff\n      and\n      0xe0\n      shl\n      dup2\n      mstore\n      0x04\n      add\n      tag_27\n      swap4\n      swap3\n      swap2\n      swap1\n      tag_28\n      jump\t// in\n    tag_27:\n      0x20\n      mload(0x40)\n      dup1\n      dup4\n      sub\n      dup2\n      dup7\n      gas\n      staticcall\n      iszero\n      dup1\n      iszero\n      tag_30\n      jumpi\n      returndatasize\n      0x00\n      dup1\n      returndatacopy\n      revert(0x00, returndatasize)\n    tag_30:\n      pop\n      pop\n      pop\n      pop\n      mload(0x40)\n      returndatasize\n      not(0x1f)\n      0x1f\n      dup3\n      add\n      and\n      dup3\n      add\n      dup1\n      0x40\n      mstore\n      pop\n      dup2\n      add\n      swap1\n      tag_31\n      swap2\n      swap1\n      tag_32\n      jump\t// in\n    tag_31:\n        /* \"M/Multiplexing/zkSubcallVerifier.sol\":598:670  require(verifier.verify(zkProofs[i], inputs[i]), \"ZK validation failed\") */\n      tag_33\n      jumpi\n      mload(0x40)\n      0x08c379a000000000000000000000000000000000000000000000000000000000\n      dup2\n      mstore\n      0x04\n      add\n      tag_34\n      swap1\n      tag_35\n      jump\t// in\n    tag_34:\n      mload(0x40)\n      dup1\n      swap2\n      sub\n      swap1\n      revert\n    tag_33:\n        /* \"M/Multiplexing/zkSubcallVerifier.sol\":685:692  bool ok */\n      0x00\n        /* \"M/Multiplexing/zkSubcallVerifier.sol\":698:705  targets */\n      dup10\n      dup10\n        /* \"M/Multiplexing/zkSubcallVerifier.sol\":706:707  i */\n      dup4\n        /* \"M/Multiplexing/zkSubcallVerifier.sol\":698:708  targets[i] */\n      dup2\n      dup2\n      lt\n      tag_36\n      jumpi\n      tag_37\n      tag_22\n      jump\t// in\n    tag_37:\n    tag_36:\n      swap1\n      pop\n      0x20\n      mul\n      add\n      0x20\n      dup2\n      add\n      swap1\n      tag_38\n      swap2\n      swap1\n      tag_39\n      jump\t// in\n    tag_38:\n        /* \"M/Multiplexing/zkSubcallVerifier.sol\":698:713  targets[i].call */\n      0xffffffffffffffffffffffffffffffffffffffff\n      and\n        /* \"M/Multiplexing/zkSubcallVerifier.sol\":714:722  payloads */\n      dup9\n      dup9\n        /* \"M/Multiplexing/zkSubcallVerifier.sol\":723:724  i */\n      dup5\n        /* \"M/Multiplexing/zkSubcallVerifier.sol\":714:725  payloads[i] */\n      dup2\n      dup2\n      lt\n      tag_40\n      jumpi\n      tag_41\n      tag_22\n      jump\t// in\n    tag_41:\n    tag_40:\n      swap1\n      pop\n      0x20\n      mul\n      dup2\n      add\n      swap1\n      tag_42\n      swap2\n      swap1\n      tag_24\n      jump\t// in\n    tag_42:\n        /* \"M/Multiplexing/zkSubcallVerifier.sol\":698:726  targets[i].call(payloads[i]) */\n      mload(0x40)\n      tag_43\n      swap3\n      swap2\n      swap1\n      tag_44\n      jump\t// in\n    tag_43:\n      0x00\n      mload(0x40)\n      dup1\n      dup4\n      sub\n      dup2\n      0x00\n      dup7\n      gas\n      call\n      swap2\n      pop\n      pop\n      returndatasize\n      dup1\n      0x00\n      dup2\n      eq\n      tag_47\n      jumpi\n      mload(0x40)\n      swap2\n      pop\n      and(add(returndatasize, 0x3f), not(0x1f))\n      dup3\n      add\n      0x40\n      mstore\n      returndatasize\n      dup3\n      mstore\n      returndatasize\n      0x00\n      0x20\n      dup5\n      add\n      returndatacopy\n      jump(tag_46)\n    tag_47:\n      0x60\n      swap2\n      pop\n    tag_46:\n      pop\n        /* \"M/Multiplexing/zkSubcallVerifier.sol\":684:726  (bool ok, ) = targets[i].call(payloads[i]) */\n      pop\n      swap1\n      pop\n        /* \"M/Multiplexing/zkSubcallVerifier.sol\":748:750  ok */\n      dup1\n        /* \"M/Multiplexing/zkSubcallVerifier.sol\":740:769  require(ok, \"ZK call failed\") */\n      tag_48\n      jumpi\n      mload(0x40)\n      0x08c379a000000000000000000000000000000000000000000000000000000000\n      dup2\n      mstore\n      0x04\n      add\n      tag_49\n      swap1\n      tag_50\n      jump\t// in\n    tag_49:\n      mload(0x40)\n      dup1\n      swap2\n      sub\n      swap1\n      revert\n    tag_48:\n        /* \"M/Multiplexing/zkSubcallVerifier.sol\":584:780  {... */\n      pop\n        /* \"M/Multiplexing/zkSubcallVerifier.sol\":579:582  i++ */\n      dup1\n      dup1\n      0x01\n      add\n      swap2\n      pop\n      pop\n        /* \"M/Multiplexing/zkSubcallVerifier.sol\":539:780  for (uint256 i = 0; i < targets.length; i++) {... */\n      jump(tag_17)\n    tag_18:\n      pop\n        /* \"M/Multiplexing/zkSubcallVerifier.sol\":277:786  function zkExecuteBatch(... */\n      pop\n      pop\n      pop\n      pop\n      pop\n      pop\n      pop\n      pop\n      jump\t// out\n        /* \"#utility.yul\":7:133   */\n    tag_51:\n        /* \"#utility.yul\":44:51   */\n      0x00\n        /* \"#utility.yul\":84:126   */\n      0xffffffffffffffffffffffffffffffffffffffff\n        /* \"#utility.yul\":77:82   */\n      dup3\n        /* \"#utility.yul\":73:127   */\n      and\n        /* \"#utility.yul\":62:127   */\n      swap1\n      pop\n        /* \"#utility.yul\":7:133   */\n      swap2\n      swap1\n      pop\n      jump\t// out\n        /* \"#utility.yul\":139:199   */\n    tag_52:\n        /* \"#utility.yul\":167:170   */\n      0x00\n        /* \"#utility.yul\":188:193   */\n      dup2\n        /* \"#utility.yul\":181:193   */\n      swap1\n      pop\n        /* \"#utility.yul\":139:199   */\n      swap2\n      swap1\n      pop\n      jump\t// out\n        /* \"#utility.yul\":205:347   */\n    tag_53:\n        /* \"#utility.yul\":255:264   */\n      0x00\n        /* \"#utility.yul\":288:341   */\n      tag_94\n        /* \"#utility.yul\":306:340   */\n      tag_95\n        /* \"#utility.yul\":315:339   */\n      tag_96\n        /* \"#utility.yul\":333:338   */\n      dup5\n        /* \"#utility.yul\":315:339   */\n      tag_51\n      jump\t// in\n    tag_96:\n        /* \"#utility.yul\":306:340   */\n      tag_52\n      jump\t// in\n    tag_95:\n        /* \"#utility.yul\":288:341   */\n      tag_51\n      jump\t// in\n    tag_94:\n        /* \"#utility.yul\":275:341   */\n      swap1\n      pop\n        /* \"#utility.yul\":205:347   */\n      swap2\n      swap1\n      pop\n      jump\t// out\n        /* \"#utility.yul\":353:479   */\n    tag_54:\n        /* \"#utility.yul\":403:412   */\n      0x00\n        /* \"#utility.yul\":436:473   */\n      tag_98\n        /* \"#utility.yul\":467:472   */\n      dup3\n        /* \"#utility.yul\":436:473   */\n      tag_53\n      jump\t// in\n    tag_98:\n        /* \"#utility.yul\":423:473   */\n      swap1\n      pop\n        /* \"#utility.yul\":353:479   */\n      swap2\n      swap1\n      pop\n      jump\t// out\n        /* \"#utility.yul\":485:629   */\n    tag_55:\n        /* \"#utility.yul\":553:562   */\n      0x00\n        /* \"#utility.yul\":586:623   */\n      tag_100\n        /* \"#utility.yul\":617:622   */\n      dup3\n        /* \"#utility.yul\":586:623   */\n      tag_54\n      jump\t// in\n    tag_100:\n        /* \"#utility.yul\":573:623   */\n      swap1\n      pop\n        /* \"#utility.yul\":485:629   */\n      swap2\n      swap1\n      pop\n      jump\t// out\n        /* \"#utility.yul\":635:802   */\n    tag_56:\n        /* \"#utility.yul\":740:795   */\n      tag_102\n        /* \"#utility.yul\":789:794   */\n      dup2\n        /* \"#utility.yul\":740:795   */\n      tag_55\n      jump\t// in\n    tag_102:\n        /* \"#utility.yul\":735:738   */\n      dup3\n        /* \"#utility.yul\":728:796   */\n      mstore\n        /* \"#utility.yul\":635:802   */\n      pop\n      pop\n      jump\t// out\n        /* \"#utility.yul\":808:1066   */\n    tag_8:\n        /* \"#utility.yul\":919:923   */\n      0x00\n        /* \"#utility.yul\":957:959   */\n      0x20\n        /* \"#utility.yul\":946:955   */\n      dup3\n        /* \"#utility.yul\":942:960   */\n      add\n        /* \"#utility.yul\":934:960   */\n      swap1\n      pop\n        /* \"#utility.yul\":970:1059   */\n      tag_104\n        /* \"#utility.yul\":1056:1057   */\n      0x00\n        /* \"#utility.yul\":1045:1054   */\n      dup4\n        /* \"#utility.yul\":1041:1058   */\n      add\n        /* \"#utility.yul\":1032:1038   */\n      dup5\n        /* \"#utility.yul\":970:1059   */\n      tag_56\n      jump\t// in\n    tag_104:\n        /* \"#utility.yul\":808:1066   */\n      swap3\n      swap2\n      pop\n      pop\n      jump\t// out\n        /* \"#utility.yul\":1153:1270   */\n    tag_58:\n        /* \"#utility.yul\":1262:1263   */\n      0x00\n        /* \"#utility.yul\":1259:1260   */\n      dup1\n        /* \"#utility.yul\":1252:1264   */\n      revert\n        /* \"#utility.yul\":1276:1393   */\n    tag_59:\n        /* \"#utility.yul\":1385:1386   */\n      0x00\n        /* \"#utility.yul\":1382:1383   */\n      dup1\n        /* \"#utility.yul\":1375:1387   */\n      revert\n        /* \"#utility.yul\":1399:1516   */\n    tag_60:\n        /* \"#utility.yul\":1508:1509   */\n      0x00\n        /* \"#utility.yul\":1505:1506   */\n      dup1\n        /* \"#utility.yul\":1498:1510   */\n      revert\n        /* \"#utility.yul\":1522:1639   */\n    tag_61:\n        /* \"#utility.yul\":1631:1632   */\n      0x00\n        /* \"#utility.yul\":1628:1629   */\n      dup1\n        /* \"#utility.yul\":1621:1633   */\n      revert\n        /* \"#utility.yul\":1645:1762   */\n    tag_62:\n        /* \"#utility.yul\":1754:1755   */\n      0x00\n        /* \"#utility.yul\":1751:1752   */\n      dup1\n        /* \"#utility.yul\":1744:1756   */\n      revert\n        /* \"#utility.yul\":1785:2353   */\n    tag_63:\n        /* \"#utility.yul\":1858:1866   */\n      0x00\n        /* \"#utility.yul\":1868:1874   */\n      dup1\n        /* \"#utility.yul\":1918:1921   */\n      dup4\n        /* \"#utility.yul\":1911:1915   */\n      0x1f\n        /* \"#utility.yul\":1903:1909   */\n      dup5\n        /* \"#utility.yul\":1899:1916   */\n      add\n        /* \"#utility.yul\":1895:1922   */\n      slt\n        /* \"#utility.yul\":1885:2007   */\n      tag_112\n      jumpi\n        /* \"#utility.yul\":1926:2005   */\n      tag_113\n      tag_60\n      jump\t// in\n    tag_113:\n        /* \"#utility.yul\":1885:2007   */\n    tag_112:\n        /* \"#utility.yul\":2039:2045   */\n      dup3\n        /* \"#utility.yul\":2026:2046   */\n      calldataload\n        /* \"#utility.yul\":2016:2046   */\n      swap1\n      pop\n        /* \"#utility.yul\":2069:2087   */\n      0xffffffffffffffff\n        /* \"#utility.yul\":2061:2067   */\n      dup2\n        /* \"#utility.yul\":2058:2088   */\n      gt\n        /* \"#utility.yul\":2055:2172   */\n      iszero\n      tag_114\n      jumpi\n        /* \"#utility.yul\":2091:2170   */\n      tag_115\n      tag_61\n      jump\t// in\n    tag_115:\n        /* \"#utility.yul\":2055:2172   */\n    tag_114:\n        /* \"#utility.yul\":2205:2209   */\n      0x20\n        /* \"#utility.yul\":2197:2203   */\n      dup4\n        /* \"#utility.yul\":2193:2210   */\n      add\n        /* \"#utility.yul\":2181:2210   */\n      swap2\n      pop\n        /* \"#utility.yul\":2259:2262   */\n      dup4\n        /* \"#utility.yul\":2251:2255   */\n      0x20\n        /* \"#utility.yul\":2243:2249   */\n      dup3\n        /* \"#utility.yul\":2239:2256   */\n      mul\n        /* \"#utility.yul\":2229:2237   */\n      dup4\n        /* \"#utility.yul\":2225:2257   */\n      add\n        /* \"#utility.yul\":2222:2263   */\n      gt\n        /* \"#utility.yul\":2219:2347   */\n      iszero\n      tag_116\n      jumpi\n        /* \"#utility.yul\":2266:2345   */\n      tag_117\n      tag_62\n      jump\t// in\n    tag_117:\n        /* \"#utility.yul\":2219:2347   */\n    tag_116:\n        /* \"#utility.yul\":1785:2353   */\n      swap3\n      pop\n      swap3\n      swap1\n      pop\n      jump\t// out\n        /* \"#utility.yul\":2374:2953   */\n    tag_64:\n        /* \"#utility.yul\":2458:2466   */\n      0x00\n        /* \"#utility.yul\":2468:2474   */\n      dup1\n        /* \"#utility.yul\":2518:2521   */\n      dup4\n        /* \"#utility.yul\":2511:2515   */\n      0x1f\n        /* \"#utility.yul\":2503:2509   */\n      dup5\n        /* \"#utility.yul\":2499:2516   */\n      add\n        /* \"#utility.yul\":2495:2522   */\n      slt\n        /* \"#utility.yul\":2485:2607   */\n      tag_119\n      jumpi\n        /* \"#utility.yul\":2526:2605   */\n      tag_120\n      tag_60\n      jump\t// in\n    tag_120:\n        /* \"#utility.yul\":2485:2607   */\n    tag_119:\n        /* \"#utility.yul\":2639:2645   */\n      dup3\n        /* \"#utility.yul\":2626:2646   */\n      calldataload\n        /* \"#utility.yul\":2616:2646   */\n      swap1\n      pop\n        /* \"#utility.yul\":2669:2687   */\n      0xffffffffffffffff\n        /* \"#utility.yul\":2661:2667   */\n      dup2\n        /* \"#utility.yul\":2658:2688   */\n      gt\n        /* \"#utility.yul\":2655:2772   */\n      iszero\n      tag_121\n      jumpi\n        /* \"#utility.yul\":2691:2770   */\n      tag_122\n      tag_61\n      jump\t// in\n    tag_122:\n        /* \"#utility.yul\":2655:2772   */\n    tag_121:\n        /* \"#utility.yul\":2805:2809   */\n      0x20\n        /* \"#utility.yul\":2797:2803   */\n      dup4\n        /* \"#utility.yul\":2793:2810   */\n      add\n        /* \"#utility.yul\":2781:2810   */\n      swap2\n      pop\n        /* \"#utility.yul\":2859:2862   */\n      dup4\n        /* \"#utility.yul\":2851:2855   */\n      0x20\n        /* \"#utility.yul\":2843:2849   */\n      dup3\n        /* \"#utility.yul\":2839:2856   */\n      mul\n        /* \"#utility.yul\":2829:2837   */\n      dup4\n        /* \"#utility.yul\":2825:2857   */\n      add\n        /* \"#utility.yul\":2822:2863   */\n      gt\n        /* \"#utility.yul\":2819:2947   */\n      iszero\n      tag_123\n      jumpi\n        /* \"#utility.yul\":2866:2945   */\n      tag_124\n      tag_62\n      jump\t// in\n    tag_124:\n        /* \"#utility.yul\":2819:2947   */\n    tag_123:\n        /* \"#utility.yul\":2374:2953   */\n      swap3\n      pop\n      swap3\n      swap1\n      pop\n      jump\t// out\n        /* \"#utility.yul\":2976:3544   */\n    tag_65:\n        /* \"#utility.yul\":3049:3057   */\n      0x00\n        /* \"#utility.yul\":3059:3065   */\n      dup1\n        /* \"#utility.yul\":3109:3112   */\n      dup4\n        /* \"#utility.yul\":3102:3106   */\n      0x1f\n        /* \"#utility.yul\":3094:3100   */\n      dup5\n        /* \"#utility.yul\":3090:3107   */\n      add\n        /* \"#utility.yul\":3086:3113   */\n      slt\n        /* \"#utility.yul\":3076:3198   */\n      tag_126\n      jumpi\n        /* \"#utility.yul\":3117:3196   */\n      tag_127\n      tag_60\n      jump\t// in\n    tag_127:\n        /* \"#utility.yul\":3076:3198   */\n    tag_126:\n        /* \"#utility.yul\":3230:3236   */\n      dup3\n        /* \"#utility.yul\":3217:3237   */\n      calldataload\n        /* \"#utility.yul\":3207:3237   */\n      swap1\n      pop\n        /* \"#utility.yul\":3260:3278   */\n      0xffffffffffffffff\n        /* \"#utility.yul\":3252:3258   */\n      dup2\n        /* \"#utility.yul\":3249:3279   */\n      gt\n        /* \"#utility.yul\":3246:3363   */\n      iszero\n      tag_128\n      jumpi\n        /* \"#utility.yul\":3282:3361   */\n      tag_129\n      tag_61\n      jump\t// in\n    tag_129:\n        /* \"#utility.yul\":3246:3363   */\n    tag_128:\n        /* \"#utility.yul\":3396:3400   */\n      0x20\n        /* \"#utility.yul\":3388:3394   */\n      dup4\n        /* \"#utility.yul\":3384:3401   */\n      add\n        /* \"#utility.yul\":3372:3401   */\n      swap2\n      pop\n        /* \"#utility.yul\":3450:3453   */\n      dup4\n        /* \"#utility.yul\":3442:3446   */\n      0x20\n        /* \"#utility.yul\":3434:3440   */\n      dup3\n        /* \"#utility.yul\":3430:3447   */\n      mul\n        /* \"#utility.yul\":3420:3428   */\n      dup4\n        /* \"#utility.yul\":3416:3448   */\n      add\n        /* \"#utility.yul\":3413:3454   */\n      gt\n        /* \"#utility.yul\":3410:3538   */\n      iszero\n      tag_130\n      jumpi\n        /* \"#utility.yul\":3457:3536   */\n      tag_131\n      tag_62\n      jump\t// in\n    tag_131:\n        /* \"#utility.yul\":3410:3538   */\n    tag_130:\n        /* \"#utility.yul\":2976:3544   */\n      swap3\n      pop\n      swap3\n      swap1\n      pop\n      jump\t// out\n        /* \"#utility.yul\":3550:5279   */\n    tag_11:\n        /* \"#utility.yul\":3766:3772   */\n      0x00\n        /* \"#utility.yul\":3774:3780   */\n      dup1\n        /* \"#utility.yul\":3782:3788   */\n      0x00\n        /* \"#utility.yul\":3790:3796   */\n      dup1\n        /* \"#utility.yul\":3798:3804   */\n      0x00\n        /* \"#utility.yul\":3806:3812   */\n      dup1\n        /* \"#utility.yul\":3814:3820   */\n      0x00\n        /* \"#utility.yul\":3822:3828   */\n      dup1\n        /* \"#utility.yul\":3871:3874   */\n      0x80\n        /* \"#utility.yul\":3859:3868   */\n      dup10\n        /* \"#utility.yul\":3850:3857   */\n      dup12\n        /* \"#utility.yul\":3846:3869   */\n      sub\n        /* \"#utility.yul\":3842:3875   */\n      slt\n        /* \"#utility.yul\":3839:3959   */\n      iszero\n      tag_133\n      jumpi\n        /* \"#utility.yul\":3878:3957   */\n      tag_134\n      tag_58\n      jump\t// in\n    tag_134:\n        /* \"#utility.yul\":3839:3959   */\n    tag_133:\n        /* \"#utility.yul\":4026:4027   */\n      0x00\n        /* \"#utility.yul\":4015:4024   */\n      dup10\n        /* \"#utility.yul\":4011:4028   */\n      add\n        /* \"#utility.yul\":3998:4029   */\n      calldataload\n        /* \"#utility.yul\":4056:4074   */\n      0xffffffffffffffff\n        /* \"#utility.yul\":4048:4054   */\n      dup2\n        /* \"#utility.yul\":4045:4075   */\n      gt\n        /* \"#utility.yul\":4042:4159   */\n      iszero\n      tag_135\n      jumpi\n        /* \"#utility.yul\":4078:4157   */\n      tag_136\n      tag_59\n      jump\t// in\n    tag_136:\n        /* \"#utility.yul\":4042:4159   */\n    tag_135:\n        /* \"#utility.yul\":4191:4271   */\n      tag_137\n        /* \"#utility.yul\":4263:4270   */\n      dup12\n        /* \"#utility.yul\":4254:4260   */\n      dup3\n        /* \"#utility.yul\":4243:4252   */\n      dup13\n        /* \"#utility.yul\":4239:4261   */\n      add\n        /* \"#utility.yul\":4191:4271   */\n      tag_63\n      jump\t// in\n    tag_137:\n        /* \"#utility.yul\":4173:4271   */\n      swap9\n      pop\n      swap9\n      pop\n        /* \"#utility.yul\":3969:4281   */\n      pop\n        /* \"#utility.yul\":4348:4350   */\n      0x20\n        /* \"#utility.yul\":4337:4346   */\n      dup10\n        /* \"#utility.yul\":4333:4351   */\n      add\n        /* \"#utility.yul\":4320:4352   */\n      calldataload\n        /* \"#utility.yul\":4379:4397   */\n      0xffffffffffffffff\n        /* \"#utility.yul\":4371:4377   */\n      dup2\n        /* \"#utility.yul\":4368:4398   */\n      gt\n        /* \"#utility.yul\":4365:4482   */\n      iszero\n      tag_138\n      jumpi\n        /* \"#utility.yul\":4401:4480   */\n      tag_139\n      tag_59\n      jump\t// in\n    tag_139:\n        /* \"#utility.yul\":4365:4482   */\n    tag_138:\n        /* \"#utility.yul\":4514:4605   */\n      tag_140\n        /* \"#utility.yul\":4597:4604   */\n      dup12\n        /* \"#utility.yul\":4588:4594   */\n      dup3\n        /* \"#utility.yul\":4577:4586   */\n      dup13\n        /* \"#utility.yul\":4573:4595   */\n      add\n        /* \"#utility.yul\":4514:4605   */\n      tag_64\n      jump\t// in\n    tag_140:\n        /* \"#utility.yul\":4496:4605   */\n      swap7\n      pop\n      swap7\n      pop\n        /* \"#utility.yul\":4291:4615   */\n      pop\n        /* \"#utility.yul\":4682:4684   */\n      0x40\n        /* \"#utility.yul\":4671:4680   */\n      dup10\n        /* \"#utility.yul\":4667:4685   */\n      add\n        /* \"#utility.yul\":4654:4686   */\n      calldataload\n        /* \"#utility.yul\":4713:4731   */\n      0xffffffffffffffff\n        /* \"#utility.yul\":4705:4711   */\n      dup2\n        /* \"#utility.yul\":4702:4732   */\n      gt\n        /* \"#utility.yul\":4699:4816   */\n      iszero\n      tag_141\n      jumpi\n        /* \"#utility.yul\":4735:4814   */\n      tag_142\n      tag_59\n      jump\t// in\n    tag_142:\n        /* \"#utility.yul\":4699:4816   */\n    tag_141:\n        /* \"#utility.yul\":4848:4939   */\n      tag_143\n        /* \"#utility.yul\":4931:4938   */\n      dup12\n        /* \"#utility.yul\":4922:4928   */\n      dup3\n        /* \"#utility.yul\":4911:4920   */\n      dup13\n        /* \"#utility.yul\":4907:4929   */\n      add\n        /* \"#utility.yul\":4848:4939   */\n      tag_64\n      jump\t// in\n    tag_143:\n        /* \"#utility.yul\":4830:4939   */\n      swap5\n      pop\n      swap5\n      pop\n        /* \"#utility.yul\":4625:4949   */\n      pop\n        /* \"#utility.yul\":5016:5018   */\n      0x60\n        /* \"#utility.yul\":5005:5014   */\n      dup10\n        /* \"#utility.yul\":5001:5019   */\n      add\n        /* \"#utility.yul\":4988:5020   */\n      calldataload\n        /* \"#utility.yul\":5047:5065   */\n      0xffffffffffffffff\n        /* \"#utility.yul\":5039:5045   */\n      dup2\n        /* \"#utility.yul\":5036:5066   */\n      gt\n        /* \"#utility.yul\":5033:5150   */\n      iszero\n      tag_144\n      jumpi\n        /* \"#utility.yul\":5069:5148   */\n      tag_145\n      tag_59\n      jump\t// in\n    tag_145:\n        /* \"#utility.yul\":5033:5150   */\n    tag_144:\n        /* \"#utility.yul\":5182:5262   */\n      tag_146\n        /* \"#utility.yul\":5254:5261   */\n      dup12\n        /* \"#utility.yul\":5245:5251   */\n      dup3\n        /* \"#utility.yul\":5234:5243   */\n      dup13\n        /* \"#utility.yul\":5230:5252   */\n      add\n        /* \"#utility.yul\":5182:5262   */\n      tag_65\n      jump\t// in\n    tag_146:\n        /* \"#utility.yul\":5164:5262   */\n      swap3\n      pop\n      swap3\n      pop\n        /* \"#utility.yul\":4959:5272   */\n      pop\n        /* \"#utility.yul\":3550:5279   */\n      swap3\n      swap6\n      swap9\n      pop\n      swap3\n      swap6\n      swap9\n      swap1\n      swap4\n      swap7\n      pop\n      jump\t// out\n        /* \"#utility.yul\":5285:5454   */\n    tag_66:\n        /* \"#utility.yul\":5369:5380   */\n      0x00\n        /* \"#utility.yul\":5403:5409   */\n      dup3\n        /* \"#utility.yul\":5398:5401   */\n      dup3\n        /* \"#utility.yul\":5391:5410   */\n      mstore\n        /* \"#utility.yul\":5443:5447   */\n      0x20\n        /* \"#utility.yul\":5438:5441   */\n      dup3\n        /* \"#utility.yul\":5434:5448   */\n      add\n        /* \"#utility.yul\":5419:5448   */\n      swap1\n      pop\n        /* \"#utility.yul\":5285:5454   */\n      swap3\n      swap2\n      pop\n      pop\n      jump\t// out\n        /* \"#utility.yul\":5460:5625   */\n    tag_67:\n        /* \"#utility.yul\":5600:5617   */\n      0x4c656e677468206d69736d617463680000000000000000000000000000000000\n        /* \"#utility.yul\":5596:5597   */\n      0x00\n        /* \"#utility.yul\":5588:5594   */\n      dup3\n        /* \"#utility.yul\":5584:5598   */\n      add\n        /* \"#utility.yul\":5577:5618   */\n      mstore\n        /* \"#utility.yul\":5460:5625   */\n      pop\n      jump\t// out\n        /* \"#utility.yul\":5631:5997   */\n    tag_68:\n        /* \"#utility.yul\":5773:5776   */\n      0x00\n        /* \"#utility.yul\":5794:5861   */\n      tag_150\n        /* \"#utility.yul\":5858:5860   */\n      0x0f\n        /* \"#utility.yul\":5853:5856   */\n      dup4\n        /* \"#utility.yul\":5794:5861   */\n      tag_66\n      jump\t// in\n    tag_150:\n        /* \"#utility.yul\":5787:5861   */\n      swap2\n      pop\n        /* \"#utility.yul\":5870:5963   */\n      tag_151\n        /* \"#utility.yul\":5959:5962   */\n      dup3\n        /* \"#utility.yul\":5870:5963   */\n      tag_67\n      jump\t// in\n    tag_151:\n        /* \"#utility.yul\":5988:5990   */\n      0x20\n        /* \"#utility.yul\":5983:5986   */\n      dup3\n        /* \"#utility.yul\":5979:5991   */\n      add\n        /* \"#utility.yul\":5972:5991   */\n      swap1\n      pop\n        /* \"#utility.yul\":5631:5997   */\n      swap2\n      swap1\n      pop\n      jump\t// out\n        /* \"#utility.yul\":6003:6422   */\n    tag_16:\n        /* \"#utility.yul\":6169:6173   */\n      0x00\n        /* \"#utility.yul\":6207:6209   */\n      0x20\n        /* \"#utility.yul\":6196:6205   */\n      dup3\n        /* \"#utility.yul\":6192:6210   */\n      add\n        /* \"#utility.yul\":6184:6210   */\n      swap1\n      pop\n        /* \"#utility.yul\":6256:6265   */\n      dup2\n        /* \"#utility.yul\":6250:6254   */\n      dup2\n        /* \"#utility.yul\":6246:6266   */\n      sub\n        /* \"#utility.yul\":6242:6243   */\n      0x00\n        /* \"#utility.yul\":6231:6240   */\n      dup4\n        /* \"#utility.yul\":6227:6244   */\n      add\n        /* \"#utility.yul\":6220:6267   */\n      mstore\n        /* \"#utility.yul\":6284:6415   */\n      tag_153\n        /* \"#utility.yul\":6410:6414   */\n      dup2\n        /* \"#utility.yul\":6284:6415   */\n      tag_68\n      jump\t// in\n    tag_153:\n        /* \"#utility.yul\":6276:6415   */\n      swap1\n      pop\n        /* \"#utility.yul\":6003:6422   */\n      swap2\n      swap1\n      pop\n      jump\t// out\n        /* \"#utility.yul\":6428:6608   */\n    tag_22:\n        /* \"#utility.yul\":6476:6553   */\n      0x4e487b7100000000000000000000000000000000000000000000000000000000\n        /* \"#utility.yul\":6473:6474   */\n      0x00\n        /* \"#utility.yul\":6466:6554   */\n      mstore\n        /* \"#utility.yul\":6573:6577   */\n      0x32\n        /* \"#utility.yul\":6570:6571   */\n      0x04\n        /* \"#utility.yul\":6563:6578   */\n      mstore\n        /* \"#utility.yul\":6597:6601   */\n      0x24\n        /* \"#utility.yul\":6594:6595   */\n      0x00\n        /* \"#utility.yul\":6587:6602   */\n      revert\n        /* \"#utility.yul\":6614:6731   */\n    tag_69:\n        /* \"#utility.yul\":6723:6724   */\n      0x00\n        /* \"#utility.yul\":6720:6721   */\n      dup1\n        /* \"#utility.yul\":6713:6725   */\n      revert\n        /* \"#utility.yul\":6737:6854   */\n    tag_70:\n        /* \"#utility.yul\":6846:6847   */\n      0x00\n        /* \"#utility.yul\":6843:6844   */\n      dup1\n        /* \"#utility.yul\":6836:6848   */\n      revert\n        /* \"#utility.yul\":6860:6977   */\n    tag_71:\n        /* \"#utility.yul\":6969:6970   */\n      0x00\n        /* \"#utility.yul\":6966:6967   */\n      dup1\n        /* \"#utility.yul\":6959:6971   */\n      revert\n        /* \"#utility.yul\":6983:7707   */\n    tag_24:\n        /* \"#utility.yul\":7060:7064   */\n      0x00\n        /* \"#utility.yul\":7066:7072   */\n      dup1\n        /* \"#utility.yul\":7122:7133   */\n      dup4\n        /* \"#utility.yul\":7109:7134   */\n      calldataload\n        /* \"#utility.yul\":7222:7223   */\n      0x01\n        /* \"#utility.yul\":7216:7220   */\n      0x20\n        /* \"#utility.yul\":7212:7224   */\n      sub\n        /* \"#utility.yul\":7201:7209   */\n      dup5\n        /* \"#utility.yul\":7185:7199   */\n      calldatasize\n        /* \"#utility.yul\":7181:7210   */\n      sub\n        /* \"#utility.yul\":7177:7225   */\n      sub\n        /* \"#utility.yul\":7157:7175   */\n      dup2\n        /* \"#utility.yul\":7153:7226   */\n      slt\n        /* \"#utility.yul\":7143:7311   */\n      tag_159\n      jumpi\n        /* \"#utility.yul\":7230:7309   */\n      tag_160\n      tag_69\n      jump\t// in\n    tag_160:\n        /* \"#utility.yul\":7143:7311   */\n    tag_159:\n        /* \"#utility.yul\":7342:7360   */\n      dup1\n        /* \"#utility.yul\":7332:7340   */\n      dup5\n        /* \"#utility.yul\":7328:7361   */\n      add\n        /* \"#utility.yul\":7320:7361   */\n      swap3\n      pop\n        /* \"#utility.yul\":7394:7398   */\n      dup3\n        /* \"#utility.yul\":7381:7399   */\n      calldataload\n        /* \"#utility.yul\":7371:7399   */\n      swap2\n      pop\n        /* \"#utility.yul\":7422:7440   */\n      0xffffffffffffffff\n        /* \"#utility.yul\":7414:7420   */\n      dup3\n        /* \"#utility.yul\":7411:7441   */\n      gt\n        /* \"#utility.yul\":7408:7525   */\n      iszero\n      tag_161\n      jumpi\n        /* \"#utility.yul\":7444:7523   */\n      tag_162\n      tag_70\n      jump\t// in\n    tag_162:\n        /* \"#utility.yul\":7408:7525   */\n    tag_161:\n        /* \"#utility.yul\":7552:7554   */\n      0x20\n        /* \"#utility.yul\":7546:7550   */\n      dup4\n        /* \"#utility.yul\":7542:7555   */\n      add\n        /* \"#utility.yul\":7534:7555   */\n      swap3\n      pop\n        /* \"#utility.yul\":7609:7613   */\n      0x01\n        /* \"#utility.yul\":7601:7607   */\n      dup3\n        /* \"#utility.yul\":7597:7614   */\n      mul\n        /* \"#utility.yul\":7581:7595   */\n      calldatasize\n        /* \"#utility.yul\":7577:7615   */\n      sub\n        /* \"#utility.yul\":7571:7575   */\n      dup4\n        /* \"#utility.yul\":7567:7616   */\n      sgt\n        /* \"#utility.yul\":7564:7700   */\n      iszero\n      tag_163\n      jumpi\n        /* \"#utility.yul\":7619:7698   */\n      tag_164\n      tag_71\n      jump\t// in\n    tag_164:\n        /* \"#utility.yul\":7564:7700   */\n    tag_163:\n        /* \"#utility.yul\":7073:7707   */\n      pop\n        /* \"#utility.yul\":6983:7707   */\n      swap3\n      pop\n      swap3\n      swap1\n      pop\n      jump\t// out\n        /* \"#utility.yul\":7713:7881   */\n    tag_72:\n        /* \"#utility.yul\":7796:7807   */\n      0x00\n        /* \"#utility.yul\":7830:7836   */\n      dup3\n        /* \"#utility.yul\":7825:7828   */\n      dup3\n        /* \"#utility.yul\":7818:7837   */\n      mstore\n        /* \"#utility.yul\":7870:7874   */\n      0x20\n        /* \"#utility.yul\":7865:7868   */\n      dup3\n        /* \"#utility.yul\":7861:7875   */\n      add\n        /* \"#utility.yul\":7846:7875   */\n      swap1\n      pop\n        /* \"#utility.yul\":7713:7881   */\n      swap3\n      swap2\n      pop\n      pop\n      jump\t// out\n        /* \"#utility.yul\":7887:8035   */\n    tag_73:\n        /* \"#utility.yul\":7985:7991   */\n      dup3\n        /* \"#utility.yul\":7980:7983   */\n      dup2\n        /* \"#utility.yul\":7975:7978   */\n      dup4\n        /* \"#utility.yul\":7962:7992   */\n      calldatacopy\n        /* \"#utility.yul\":8026:8027   */\n      0x00\n        /* \"#utility.yul\":8017:8023   */\n      dup4\n        /* \"#utility.yul\":8012:8015   */\n      dup4\n        /* \"#utility.yul\":8008:8024   */\n      add\n        /* \"#utility.yul\":8001:8028   */\n      mstore\n        /* \"#utility.yul\":7887:8035   */\n      pop\n      pop\n      pop\n      jump\t// out\n        /* \"#utility.yul\":8041:8143   */\n    tag_74:\n        /* \"#utility.yul\":8082:8088   */\n      0x00\n        /* \"#utility.yul\":8133:8135   */\n      0x1f\n        /* \"#utility.yul\":8129:8136   */\n      not\n        /* \"#utility.yul\":8124:8126   */\n      0x1f\n        /* \"#utility.yul\":8117:8122   */\n      dup4\n        /* \"#utility.yul\":8113:8127   */\n      add\n        /* \"#utility.yul\":8109:8137   */\n      and\n        /* \"#utility.yul\":8099:8137   */\n      swap1\n      pop\n        /* \"#utility.yul\":8041:8143   */\n      swap2\n      swap1\n      pop\n      jump\t// out\n        /* \"#utility.yul\":8171:8485   */\n    tag_75:\n        /* \"#utility.yul\":8267:8270   */\n      0x00\n        /* \"#utility.yul\":8288:8358   */\n      tag_169\n        /* \"#utility.yul\":8351:8357   */\n      dup4\n        /* \"#utility.yul\":8346:8349   */\n      dup6\n        /* \"#utility.yul\":8288:8358   */\n      tag_72\n      jump\t// in\n    tag_169:\n        /* \"#utility.yul\":8281:8358   */\n      swap4\n      pop\n        /* \"#utility.yul\":8368:8424   */\n      tag_170\n        /* \"#utility.yul\":8417:8423   */\n      dup4\n        /* \"#utility.yul\":8412:8415   */\n      dup6\n        /* \"#utility.yul\":8405:8410   */\n      dup5\n        /* \"#utility.yul\":8368:8424   */\n      tag_73\n      jump\t// in\n    tag_170:\n        /* \"#utility.yul\":8449:8478   */\n      tag_171\n        /* \"#utility.yul\":8471:8477   */\n      dup4\n        /* \"#utility.yul\":8449:8478   */\n      tag_74\n      jump\t// in\n    tag_171:\n        /* \"#utility.yul\":8444:8447   */\n      dup5\n        /* \"#utility.yul\":8440:8479   */\n      add\n        /* \"#utility.yul\":8433:8479   */\n      swap1\n      pop\n        /* \"#utility.yul\":8171:8485   */\n      swap4\n      swap3\n      pop\n      pop\n      pop\n      jump\t// out\n        /* \"#utility.yul\":8491:8568   */\n    tag_76:\n        /* \"#utility.yul\":8528:8535   */\n      0x00\n        /* \"#utility.yul\":8557:8562   */\n      dup2\n        /* \"#utility.yul\":8546:8562   */\n      swap1\n      pop\n        /* \"#utility.yul\":8491:8568   */\n      swap2\n      swap1\n      pop\n      jump\t// out\n        /* \"#utility.yul\":8574:8692   */\n    tag_77:\n        /* \"#utility.yul\":8661:8685   */\n      tag_174\n        /* \"#utility.yul\":8679:8684   */\n      dup2\n        /* \"#utility.yul\":8661:8685   */\n      tag_76\n      jump\t// in\n    tag_174:\n        /* \"#utility.yul\":8656:8659   */\n      dup3\n        /* \"#utility.yul\":8649:8686   */\n      mstore\n        /* \"#utility.yul\":8574:8692   */\n      pop\n      pop\n      jump\t// out\n        /* \"#utility.yul\":8698:9137   */\n    tag_28:\n        /* \"#utility.yul\":8847:8851   */\n      0x00\n        /* \"#utility.yul\":8885:8887   */\n      0x40\n        /* \"#utility.yul\":8874:8883   */\n      dup3\n        /* \"#utility.yul\":8870:8888   */\n      add\n        /* \"#utility.yul\":8862:8888   */\n      swap1\n      pop\n        /* \"#utility.yul\":8934:8943   */\n      dup2\n        /* \"#utility.yul\":8928:8932   */\n      dup2\n        /* \"#utility.yul\":8924:8944   */\n      sub\n        /* \"#utility.yul\":8920:8921   */\n      0x00\n        /* \"#utility.yul\":8909:8918   */\n      dup4\n        /* \"#utility.yul\":8905:8922   */\n      add\n        /* \"#utility.yul\":8898:8945   */\n      mstore\n        /* \"#utility.yul\":8962:9048   */\n      tag_176\n        /* \"#utility.yul\":9043:9047   */\n      dup2\n        /* \"#utility.yul\":9034:9040   */\n      dup6\n        /* \"#utility.yul\":9026:9032   */\n      dup8\n        /* \"#utility.yul\":8962:9048   */\n      tag_75\n      jump\t// in\n    tag_176:\n        /* \"#utility.yul\":8954:9048   */\n      swap1\n      pop\n        /* \"#utility.yul\":9058:9130   */\n      tag_177\n        /* \"#utility.yul\":9126:9128   */\n      0x20\n        /* \"#utility.yul\":9115:9124   */\n      dup4\n        /* \"#utility.yul\":9111:9129   */\n      add\n        /* \"#utility.yul\":9102:9108   */\n      dup5\n        /* \"#utility.yul\":9058:9130   */\n      tag_77\n      jump\t// in\n    tag_177:\n        /* \"#utility.yul\":8698:9137   */\n      swap5\n      swap4\n      pop\n      pop\n      pop\n      pop\n      jump\t// out\n        /* \"#utility.yul\":9143:9233   */\n    tag_78:\n        /* \"#utility.yul\":9177:9184   */\n      0x00\n        /* \"#utility.yul\":9220:9225   */\n      dup2\n        /* \"#utility.yul\":9213:9226   */\n      iszero\n        /* \"#utility.yul\":9206:9227   */\n      iszero\n        /* \"#utility.yul\":9195:9227   */\n      swap1\n      pop\n        /* \"#utility.yul\":9143:9233   */\n      swap2\n      swap1\n      pop\n      jump\t// out\n        /* \"#utility.yul\":9239:9355   */\n    tag_79:\n        /* \"#utility.yul\":9309:9330   */\n      tag_180\n        /* \"#utility.yul\":9324:9329   */\n      dup2\n        /* \"#utility.yul\":9309:9330   */\n      tag_78\n      jump\t// in\n    tag_180:\n        /* \"#utility.yul\":9302:9307   */\n      dup2\n        /* \"#utility.yul\":9299:9331   */\n      eq\n        /* \"#utility.yul\":9289:9349   */\n      tag_181\n      jumpi\n        /* \"#utility.yul\":9345:9346   */\n      0x00\n        /* \"#utility.yul\":9342:9343   */\n      dup1\n        /* \"#utility.yul\":9335:9347   */\n      revert\n        /* \"#utility.yul\":9289:9349   */\n    tag_181:\n        /* \"#utility.yul\":9239:9355   */\n      pop\n      jump\t// out\n        /* \"#utility.yul\":9361:9498   */\n    tag_80:\n        /* \"#utility.yul\":9415:9420   */\n      0x00\n        /* \"#utility.yul\":9446:9452   */\n      dup2\n        /* \"#utility.yul\":9440:9453   */\n      mload\n        /* \"#utility.yul\":9431:9453   */\n      swap1\n      pop\n        /* \"#utility.yul\":9462:9492   */\n      tag_183\n        /* \"#utility.yul\":9486:9491   */\n      dup2\n        /* \"#utility.yul\":9462:9492   */\n      tag_79\n      jump\t// in\n    tag_183:\n        /* \"#utility.yul\":9361:9498   */\n      swap3\n      swap2\n      pop\n      pop\n      jump\t// out\n        /* \"#utility.yul\":9504:9849   */\n    tag_32:\n        /* \"#utility.yul\":9571:9577   */\n      0x00\n        /* \"#utility.yul\":9620:9622   */\n      0x20\n        /* \"#utility.yul\":9608:9617   */\n      dup3\n        /* \"#utility.yul\":9599:9606   */\n      dup5\n        /* \"#utility.yul\":9595:9618   */\n      sub\n        /* \"#utility.yul\":9591:9623   */\n      slt\n        /* \"#utility.yul\":9588:9707   */\n      iszero\n      tag_185\n      jumpi\n        /* \"#utility.yul\":9626:9705   */\n      tag_186\n      tag_58\n      jump\t// in\n    tag_186:\n        /* \"#utility.yul\":9588:9707   */\n    tag_185:\n        /* \"#utility.yul\":9746:9747   */\n      0x00\n        /* \"#utility.yul\":9771:9832   */\n      tag_187\n        /* \"#utility.yul\":9824:9831   */\n      dup5\n        /* \"#utility.yul\":9815:9821   */\n      dup3\n        /* \"#utility.yul\":9804:9813   */\n      dup6\n        /* \"#utility.yul\":9800:9822   */\n      add\n        /* \"#utility.yul\":9771:9832   */\n      tag_80\n      jump\t// in\n    tag_187:\n        /* \"#utility.yul\":9761:9832   */\n      swap2\n      pop\n        /* \"#utility.yul\":9717:9842   */\n      pop\n        /* \"#utility.yul\":9504:9849   */\n      swap3\n      swap2\n      pop\n      pop\n      jump\t// out\n        /* \"#utility.yul\":9855:10025   */\n    tag_81:\n        /* \"#utility.yul\":9995:10017   */\n      0x5a4b2076616c69646174696f6e206661696c6564000000000000000000000000\n        /* \"#utility.yul\":9991:9992   */\n      0x00\n        /* \"#utility.yul\":9983:9989   */\n      dup3\n        /* \"#utility.yul\":9979:9993   */\n      add\n        /* \"#utility.yul\":9972:10018   */\n      mstore\n        /* \"#utility.yul\":9855:10025   */\n      pop\n      jump\t// out\n        /* \"#utility.yul\":10031:10397   */\n    tag_82:\n        /* \"#utility.yul\":10173:10176   */\n      0x00\n        /* \"#utility.yul\":10194:10261   */\n      tag_190\n        /* \"#utility.yul\":10258:10260   */\n      0x14\n        /* \"#utility.yul\":10253:10256   */\n      dup4\n        /* \"#utility.yul\":10194:10261   */\n      tag_66\n      jump\t// in\n    tag_190:\n        /* \"#utility.yul\":10187:10261   */\n      swap2\n      pop\n        /* \"#utility.yul\":10270:10363   */\n      tag_191\n        /* \"#utility.yul\":10359:10362   */\n      dup3\n        /* \"#utility.yul\":10270:10363   */\n      tag_81\n      jump\t// in\n    tag_191:\n        /* \"#utility.yul\":10388:10390   */\n      0x20\n        /* \"#utility.yul\":10383:10386   */\n      dup3\n        /* \"#utility.yul\":10379:10391   */\n      add\n        /* \"#utility.yul\":10372:10391   */\n      swap1\n      pop\n        /* \"#utility.yul\":10031:10397   */\n      swap2\n      swap1\n      pop\n      jump\t// out\n        /* \"#utility.yul\":10403:10822   */\n    tag_35:\n        /* \"#utility.yul\":10569:10573   */\n      0x00\n        /* \"#utility.yul\":10607:10609   */\n      0x20\n        /* \"#utility.yul\":10596:10605   */\n      dup3\n        /* \"#utility.yul\":10592:10610   */\n      add\n        /* \"#utility.yul\":10584:10610   */\n      swap1\n      pop\n        /* \"#utility.yul\":10656:10665   */\n      dup2\n        /* \"#utility.yul\":10650:10654   */\n      dup2\n        /* \"#utility.yul\":10646:10666   */\n      sub\n        /* \"#utility.yul\":10642:10643   */\n      0x00\n        /* \"#utility.yul\":10631:10640   */\n      dup4\n        /* \"#utility.yul\":10627:10644   */\n      add\n        /* \"#utility.yul\":10620:10667   */\n      mstore\n        /* \"#utility.yul\":10684:10815   */\n      tag_193\n        /* \"#utility.yul\":10810:10814   */\n      dup2\n        /* \"#utility.yul\":10684:10815   */\n      tag_82\n      jump\t// in\n    tag_193:\n        /* \"#utility.yul\":10676:10815   */\n      swap1\n      pop\n        /* \"#utility.yul\":10403:10822   */\n      swap2\n      swap1\n      pop\n      jump\t// out\n        /* \"#utility.yul\":10828:10924   */\n    tag_83:\n        /* \"#utility.yul\":10865:10872   */\n      0x00\n        /* \"#utility.yul\":10894:10918   */\n      tag_195\n        /* \"#utility.yul\":10912:10917   */\n      dup3\n        /* \"#utility.yul\":10894:10918   */\n      tag_51\n      jump\t// in\n    tag_195:\n        /* \"#utility.yul\":10883:10918   */\n      swap1\n      pop\n        /* \"#utility.yul\":10828:10924   */\n      swap2\n      swap1\n      pop\n      jump\t// out\n        /* \"#utility.yul\":10930:11052   */\n    tag_84:\n        /* \"#utility.yul\":11003:11027   */\n      tag_197\n        /* \"#utility.yul\":11021:11026   */\n      dup2\n        /* \"#utility.yul\":11003:11027   */\n      tag_83\n      jump\t// in\n    tag_197:\n        /* \"#utility.yul\":10996:11001   */\n      dup2\n        /* \"#utility.yul\":10993:11028   */\n      eq\n        /* \"#utility.yul\":10983:11046   */\n      tag_198\n      jumpi\n        /* \"#utility.yul\":11042:11043   */\n      0x00\n        /* \"#utility.yul\":11039:11040   */\n      dup1\n        /* \"#utility.yul\":11032:11044   */\n      revert\n        /* \"#utility.yul\":10983:11046   */\n    tag_198:\n        /* \"#utility.yul\":10930:11052   */\n      pop\n      jump\t// out\n        /* \"#utility.yul\":11058:11197   */\n    tag_85:\n        /* \"#utility.yul\":11104:11109   */\n      0x00\n        /* \"#utility.yul\":11142:11148   */\n      dup2\n        /* \"#utility.yul\":11129:11149   */\n      calldataload\n        /* \"#utility.yul\":11120:11149   */\n      swap1\n      pop\n        /* \"#utility.yul\":11158:11191   */\n      tag_200\n        /* \"#utility.yul\":11185:11190   */\n      dup2\n        /* \"#utility.yul\":11158:11191   */\n      tag_84\n      jump\t// in\n    tag_200:\n        /* \"#utility.yul\":11058:11197   */\n      swap3\n      swap2\n      pop\n      pop\n      jump\t// out\n        /* \"#utility.yul\":11203:11532   */\n    tag_39:\n        /* \"#utility.yul\":11262:11268   */\n      0x00\n        /* \"#utility.yul\":11311:11313   */\n      0x20\n        /* \"#utility.yul\":11299:11308   */\n      dup3\n        /* \"#utility.yul\":11290:11297   */\n      dup5\n        /* \"#utility.yul\":11286:11309   */\n      sub\n        /* \"#utility.yul\":11282:11314   */\n      slt\n        /* \"#utility.yul\":11279:11398   */\n      iszero\n      tag_202\n      jumpi\n        /* \"#utility.yul\":11317:11396   */\n      tag_203\n      tag_58\n      jump\t// in\n    tag_203:\n        /* \"#utility.yul\":11279:11398   */\n    tag_202:\n        /* \"#utility.yul\":11437:11438   */\n      0x00\n        /* \"#utility.yul\":11462:11515   */\n      tag_204\n        /* \"#utility.yul\":11507:11514   */\n      dup5\n        /* \"#utility.yul\":11498:11504   */\n      dup3\n        /* \"#utility.yul\":11487:11496   */\n      dup6\n        /* \"#utility.yul\":11483:11505   */\n      add\n        /* \"#utility.yul\":11462:11515   */\n      tag_85\n      jump\t// in\n    tag_204:\n        /* \"#utility.yul\":11452:11515   */\n      swap2\n      pop\n        /* \"#utility.yul\":11408:11525   */\n      pop\n        /* \"#utility.yul\":11203:11532   */\n      swap3\n      swap2\n      pop\n      pop\n      jump\t// out\n        /* \"#utility.yul\":11538:11685   */\n    tag_86:\n        /* \"#utility.yul\":11639:11650   */\n      0x00\n        /* \"#utility.yul\":11676:11679   */\n      dup2\n        /* \"#utility.yul\":11661:11679   */\n      swap1\n      pop\n        /* \"#utility.yul\":11538:11685   */\n      swap3\n      swap2\n      pop\n      pop\n      jump\t// out\n        /* \"#utility.yul\":11713:12040   */\n    tag_87:\n        /* \"#utility.yul\":11827:11830   */\n      0x00\n        /* \"#utility.yul\":11848:11936   */\n      tag_207\n        /* \"#utility.yul\":11929:11935   */\n      dup4\n        /* \"#utility.yul\":11924:11927   */\n      dup6\n        /* \"#utility.yul\":11848:11936   */\n      tag_86\n      jump\t// in\n    tag_207:\n        /* \"#utility.yul\":11841:11936   */\n      swap4\n      pop\n        /* \"#utility.yul\":11946:12002   */\n      tag_208\n        /* \"#utility.yul\":11995:12001   */\n      dup4\n        /* \"#utility.yul\":11990:11993   */\n      dup6\n        /* \"#utility.yul\":11983:11988   */\n      dup5\n        /* \"#utility.yul\":11946:12002   */\n      tag_73\n      jump\t// in\n    tag_208:\n        /* \"#utility.yul\":12027:12033   */\n      dup3\n        /* \"#utility.yul\":12022:12025   */\n      dup5\n        /* \"#utility.yul\":12018:12034   */\n      add\n        /* \"#utility.yul\":12011:12034   */\n      swap1\n      pop\n        /* \"#utility.yul\":11713:12040   */\n      swap4\n      swap3\n      pop\n      pop\n      pop\n      jump\t// out\n        /* \"#utility.yul\":12046:12337   */\n    tag_44:\n        /* \"#utility.yul\":12186:12189   */\n      0x00\n        /* \"#utility.yul\":12208:12311   */\n      tag_210\n        /* \"#utility.yul\":12307:12310   */\n      dup3\n        /* \"#utility.yul\":12298:12304   */\n      dup5\n        /* \"#utility.yul\":12290:12296   */\n      dup7\n        /* \"#utility.yul\":12208:12311   */\n      tag_87\n      jump\t// in\n    tag_210:\n        /* \"#utility.yul\":12201:12311   */\n      swap2\n      pop\n        /* \"#utility.yul\":12328:12331   */\n      dup2\n        /* \"#utility.yul\":12321:12331   */\n      swap1\n      pop\n        /* \"#utility.yul\":12046:12337   */\n      swap4\n      swap3\n      pop\n      pop\n      pop\n      jump\t// out\n        /* \"#utility.yul\":12343:12507   */\n    tag_88:\n        /* \"#utility.yul\":12483:12499   */\n      0x5a4b2063616c6c206661696c6564000000000000000000000000000000000000\n        /* \"#utility.yul\":12479:12480   */\n      0x00\n        /* \"#utility.yul\":12471:12477   */\n      dup3\n        /* \"#utility.yul\":12467:12481   */\n      add\n        /* \"#utility.yul\":12460:12500   */\n      mstore\n        /* \"#utility.yul\":12343:12507   */\n      pop\n      jump\t// out\n        /* \"#utility.yul\":12513:12879   */\n    tag_89:\n        /* \"#utility.yul\":12655:12658   */\n      0x00\n        /* \"#utility.yul\":12676:12743   */\n      tag_213\n        /* \"#utility.yul\":12740:12742   */\n      0x0e\n        /* \"#utility.yul\":12735:12738   */\n      dup4\n        /* \"#utility.yul\":12676:12743   */\n      tag_66\n      jump\t// in\n    tag_213:\n        /* \"#utility.yul\":12669:12743   */\n      swap2\n      pop\n        /* \"#utility.yul\":12752:12845   */\n      tag_214\n        /* \"#utility.yul\":12841:12844   */\n      dup3\n        /* \"#utility.yul\":12752:12845   */\n      tag_88\n      jump\t// in\n    tag_214:\n        /* \"#utility.yul\":12870:12872   */\n      0x20\n        /* \"#utility.yul\":12865:12868   */\n      dup3\n        /* \"#utility.yul\":12861:12873   */\n      add\n        /* \"#utility.yul\":12854:12873   */\n      swap1\n      pop\n        /* \"#utility.yul\":12513:12879   */\n      swap2\n      swap1\n      pop\n      jump\t// out\n        /* \"#utility.yul\":12885:13304   */\n    tag_50:\n        /* \"#utility.yul\":13051:13055   */\n      0x00\n        /* \"#utility.yul\":13089:13091   */\n      0x20\n        /* \"#utility.yul\":13078:13087   */\n      dup3\n        /* \"#utility.yul\":13074:13092   */\n      add\n        /* \"#utility.yul\":13066:13092   */\n      swap1\n      pop\n        /* \"#utility.yul\":13138:13147   */\n      dup2\n        /* \"#utility.yul\":13132:13136   */\n      dup2\n        /* \"#utility.yul\":13128:13148   */\n      sub\n        /* \"#utility.yul\":13124:13125   */\n      0x00\n        /* \"#utility.yul\":13113:13122   */\n      dup4\n        /* \"#utility.yul\":13109:13126   */\n      add\n        /* \"#utility.yul\":13102:13149   */\n      mstore\n        /* \"#utility.yul\":13166:13297   */\n      tag_216\n        /* \"#utility.yul\":13292:13296   */\n      dup2\n        /* \"#utility.yul\":13166:13297   */\n      tag_89\n      jump\t// in\n    tag_216:\n        /* \"#utility.yul\":13158:13297   */\n      swap1\n      pop\n        /* \"#utility.yul\":12885:13304   */\n      swap2\n      swap1\n      pop\n      jump\t// out\n\n    auxdata: 0xa26469706673582212200ca80c81d9b500f1e576e2de17fa56bd5818cb303b08b0313e680de2d2760d6f64736f6c634300081a0033\n}\n",
				"bytecode": {
					"linkReferences": {},
					"object": "608060405234801561000f575f80fd5b50604051610a6a380380610a6a833981810160405281019061003191906100d4565b805f806101000a81548173ffffffffffffffffffffffffffffffffffffffff021916908373ffffffffffffffffffffffffffffffffffffffff160217905550506100ff565b5f80fd5b5f73ffffffffffffffffffffffffffffffffffffffff82169050919050565b5f6100a38261007a565b9050919050565b6100b381610099565b81146100bd575f80fd5b50565b5f815190506100ce816100aa565b92915050565b5f602082840312156100e9576100e8610076565b5b5f6100f6848285016100c0565b91505092915050565b61095e8061010c5f395ff3fe608060405234801561000f575f80fd5b5060043610610034575f3560e01c80632b7ac3f314610038578063caf9a1de14610056575b5f80fd5b610040610072565b60405161004d9190610387565b60405180910390f35b610070600480360381019061006b91906104b3565b610095565b005b5f8054906101000a900473ffffffffffffffffffffffffffffffffffffffff1681565b8383905088889050146100dd576040517f08c379a00000000000000000000000000000000000000000000000000000000081526004016100d4906105f1565b60405180910390fd5b5f5b88889050811015610302575f8054906101000a900473ffffffffffffffffffffffffffffffffffffffff1673ffffffffffffffffffffffffffffffffffffffff16636b4063418686848181106101385761013761060f565b5b905060200281019061014a9190610648565b86868681811061015d5761015c61060f565b5b905060200201356040518463ffffffff1660e01b81526004016101829392919061071c565b602060405180830381865afa15801561019d573d5f803e3d5ffd5b505050506040513d601f19601f820116820180604052508101906101c19190610781565b610200576040517f08c379a00000000000000000000000000000000000000000000000000000000081526004016101f7906107f6565b60405180910390fd5b5f8989838181106102145761021361060f565b5b9050602002016020810190610229919061084f565b73ffffffffffffffffffffffffffffffffffffffff168888848181106102525761025161060f565b5b90506020028101906102649190610648565b6040516102729291906108a8565b5f604051808303815f865af19150503d805f81146102ab576040519150601f19603f3d011682016040523d82523d5f602084013e6102b0565b606091505b50509050806102f4576040517f08c379a00000000000000000000000000000000000000000000000000000000081526004016102eb9061090a565b60405180910390fd5b5080806001019150506100df565b505050505050505050565b5f73ffffffffffffffffffffffffffffffffffffffff82169050919050565b5f819050919050565b5f61034f61034a6103458461030d565b61032c565b61030d565b9050919050565b5f61036082610335565b9050919050565b5f61037182610356565b9050919050565b61038181610367565b82525050565b5f60208201905061039a5f830184610378565b92915050565b5f80fd5b5f80fd5b5f80fd5b5f80fd5b5f80fd5b5f8083601f8401126103c9576103c86103a8565b5b8235905067ffffffffffffffff8111156103e6576103e56103ac565b5b602083019150836020820283011115610402576104016103b0565b5b9250929050565b5f8083601f84011261041e5761041d6103a8565b5b8235905067ffffffffffffffff81111561043b5761043a6103ac565b5b602083019150836020820283011115610457576104566103b0565b5b9250929050565b5f8083601f840112610473576104726103a8565b5b8235905067ffffffffffffffff8111156104905761048f6103ac565b5b6020830191508360208202830111156104ac576104ab6103b0565b5b9250929050565b5f805f805f805f806080898b0312156104cf576104ce6103a0565b5b5f89013567ffffffffffffffff8111156104ec576104eb6103a4565b5b6104f88b828c016103b4565b9850985050602089013567ffffffffffffffff81111561051b5761051a6103a4565b5b6105278b828c01610409565b9650965050604089013567ffffffffffffffff81111561054a576105496103a4565b5b6105568b828c01610409565b9450945050606089013567ffffffffffffffff811115610579576105786103a4565b5b6105858b828c0161045e565b92509250509295985092959890939650565b5f82825260208201905092915050565b7f4c656e677468206d69736d6174636800000000000000000000000000000000005f82015250565b5f6105db600f83610597565b91506105e6826105a7565b602082019050919050565b5f6020820190508181035f830152610608816105cf565b9050919050565b7f4e487b71000000000000000000000000000000000000000000000000000000005f52603260045260245ffd5b5f80fd5b5f80fd5b5f80fd5b5f80833560016020038436030381126106645761066361063c565b5b80840192508235915067ffffffffffffffff82111561068657610685610640565b5b6020830192506001820236038313156106a2576106a1610644565b5b509250929050565b5f82825260208201905092915050565b828183375f83830152505050565b5f601f19601f8301169050919050565b5f6106e383856106aa565b93506106f08385846106ba565b6106f9836106c8565b840190509392505050565b5f819050919050565b61071681610704565b82525050565b5f6040820190508181035f8301526107358185876106d8565b9050610744602083018461070d565b949350505050565b5f8115159050919050565b6107608161074c565b811461076a575f80fd5b50565b5f8151905061077b81610757565b92915050565b5f60208284031215610796576107956103a0565b5b5f6107a38482850161076d565b91505092915050565b7f5a4b2076616c69646174696f6e206661696c65640000000000000000000000005f82015250565b5f6107e0601483610597565b91506107eb826107ac565b602082019050919050565b5f6020820190508181035f83015261080d816107d4565b9050919050565b5f61081e8261030d565b9050919050565b61082e81610814565b8114610838575f80fd5b50565b5f8135905061084981610825565b92915050565b5f60208284031215610864576108636103a0565b5b5f6108718482850161083b565b91505092915050565b5f81905092915050565b5f61088f838561087a565b935061089c8385846106ba565b82840190509392505050565b5f6108b4828486610884565b91508190509392505050565b7f5a4b2063616c6c206661696c65640000000000000000000000000000000000005f82015250565b5f6108f4600e83610597565b91506108ff826108c0565b602082019050919050565b5f6020820190508181035f830152610921816108e8565b905091905056fea26469706673582212200ca80c81d9b500f1e576e2de17fa56bd5818cb303b08b0313e680de2d2760d6f64736f6c634300081a0033",
					"opcodes": "PUSH1 0x80 PUSH1 0x40 MSTORE CALLVALUE DUP1 ISZERO PUSH2 0xF JUMPI PUSH0 DUP1 REVERT JUMPDEST POP PUSH1 0x40 MLOAD PUSH2 0xA6A CODESIZE SUB DUP1 PUSH2 0xA6A DUP4 CODECOPY DUP2 DUP2 ADD PUSH1 0x40 MSTORE DUP2 ADD SWAP1 PUSH2 0x31 SWAP2 SWAP1 PUSH2 0xD4 JUMP JUMPDEST DUP1 PUSH0 DUP1 PUSH2 0x100 EXP DUP2 SLOAD DUP2 PUSH20 0xFFFFFFFFFFFFFFFFFFFFFFFFFFFFFFFFFFFFFFFF MUL NOT AND SWAP1 DUP4 PUSH20 0xFFFFFFFFFFFFFFFFFFFFFFFFFFFFFFFFFFFFFFFF AND MUL OR SWAP1 SSTORE POP POP PUSH2 0xFF JUMP JUMPDEST PUSH0 DUP1 REVERT JUMPDEST PUSH0 PUSH20 0xFFFFFFFFFFFFFFFFFFFFFFFFFFFFFFFFFFFFFFFF DUP3 AND SWAP1 POP SWAP2 SWAP1 POP JUMP JUMPDEST PUSH0 PUSH2 0xA3 DUP3 PUSH2 0x7A JUMP JUMPDEST SWAP1 POP SWAP2 SWAP1 POP JUMP JUMPDEST PUSH2 0xB3 DUP2 PUSH2 0x99 JUMP JUMPDEST DUP2 EQ PUSH2 0xBD JUMPI PUSH0 DUP1 REVERT JUMPDEST POP JUMP JUMPDEST PUSH0 DUP2 MLOAD SWAP1 POP PUSH2 0xCE DUP2 PUSH2 0xAA JUMP JUMPDEST SWAP3 SWAP2 POP POP JUMP JUMPDEST PUSH0 PUSH1 0x20 DUP3 DUP5 SUB SLT ISZERO PUSH2 0xE9 JUMPI PUSH2 0xE8 PUSH2 0x76 JUMP JUMPDEST JUMPDEST PUSH0 PUSH2 0xF6 DUP5 DUP3 DUP6 ADD PUSH2 0xC0 JUMP JUMPDEST SWAP2 POP POP SWAP3 SWAP2 POP POP JUMP JUMPDEST PUSH2 0x95E DUP1 PUSH2 0x10C PUSH0 CODECOPY PUSH0 RETURN INVALID PUSH1 0x80 PUSH1 0x40 MSTORE CALLVALUE DUP1 ISZERO PUSH2 0xF JUMPI PUSH0 DUP1 REVERT JUMPDEST POP PUSH1 0x4 CALLDATASIZE LT PUSH2 0x34 JUMPI PUSH0 CALLDATALOAD PUSH1 0xE0 SHR DUP1 PUSH4 0x2B7AC3F3 EQ PUSH2 0x38 JUMPI DUP1 PUSH4 0xCAF9A1DE EQ PUSH2 0x56 JUMPI JUMPDEST PUSH0 DUP1 REVERT JUMPDEST PUSH2 0x40 PUSH2 0x72 JUMP JUMPDEST PUSH1 0x40 MLOAD PUSH2 0x4D SWAP2 SWAP1 PUSH2 0x387 JUMP JUMPDEST PUSH1 0x40 MLOAD DUP1 SWAP2 SUB SWAP1 RETURN JUMPDEST PUSH2 0x70 PUSH1 0x4 DUP1 CALLDATASIZE SUB DUP2 ADD SWAP1 PUSH2 0x6B SWAP2 SWAP1 PUSH2 0x4B3 JUMP JUMPDEST PUSH2 0x95 JUMP JUMPDEST STOP JUMPDEST PUSH0 DUP1 SLOAD SWAP1 PUSH2 0x100 EXP SWAP1 DIV PUSH20 0xFFFFFFFFFFFFFFFFFFFFFFFFFFFFFFFFFFFFFFFF AND DUP2 JUMP JUMPDEST DUP4 DUP4 SWAP1 POP DUP9 DUP9 SWAP1 POP EQ PUSH2 0xDD JUMPI PUSH1 0x40 MLOAD PUSH32 0x8C379A000000000000000000000000000000000000000000000000000000000 DUP2 MSTORE PUSH1 0x4 ADD PUSH2 0xD4 SWAP1 PUSH2 0x5F1 JUMP JUMPDEST PUSH1 0x40 MLOAD DUP1 SWAP2 SUB SWAP1 REVERT JUMPDEST PUSH0 JUMPDEST DUP9 DUP9 SWAP1 POP DUP2 LT ISZERO PUSH2 0x302 JUMPI PUSH0 DUP1 SLOAD SWAP1 PUSH2 0x100 EXP SWAP1 DIV PUSH20 0xFFFFFFFFFFFFFFFFFFFFFFFFFFFFFFFFFFFFFFFF AND PUSH20 0xFFFFFFFFFFFFFFFFFFFFFFFFFFFFFFFFFFFFFFFF AND PUSH4 0x6B406341 DUP7 DUP7 DUP5 DUP2 DUP2 LT PUSH2 0x138 JUMPI PUSH2 0x137 PUSH2 0x60F JUMP JUMPDEST JUMPDEST SWAP1 POP PUSH1 0x20 MUL DUP2 ADD SWAP1 PUSH2 0x14A SWAP2 SWAP1 PUSH2 0x648 JUMP JUMPDEST DUP7 DUP7 DUP7 DUP2 DUP2 LT PUSH2 0x15D JUMPI PUSH2 0x15C PUSH2 0x60F JUMP JUMPDEST JUMPDEST SWAP1 POP PUSH1 0x20 MUL ADD CALLDATALOAD PUSH1 0x40 MLOAD DUP5 PUSH4 0xFFFFFFFF AND PUSH1 0xE0 SHL DUP2 MSTORE PUSH1 0x4 ADD PUSH2 0x182 SWAP4 SWAP3 SWAP2 SWAP1 PUSH2 0x71C JUMP JUMPDEST PUSH1 0x20 PUSH1 0x40 MLOAD DUP1 DUP4 SUB DUP2 DUP7 GAS STATICCALL ISZERO DUP1 ISZERO PUSH2 0x19D JUMPI RETURNDATASIZE PUSH0 DUP1 RETURNDATACOPY RETURNDATASIZE PUSH0 REVERT JUMPDEST POP POP POP POP PUSH1 0x40 MLOAD RETURNDATASIZE PUSH1 0x1F NOT PUSH1 0x1F DUP3 ADD AND DUP3 ADD DUP1 PUSH1 0x40 MSTORE POP DUP2 ADD SWAP1 PUSH2 0x1C1 SWAP2 SWAP1 PUSH2 0x781 JUMP JUMPDEST PUSH2 0x200 JUMPI PUSH1 0x40 MLOAD PUSH32 0x8C379A000000000000000000000000000000000000000000000000000000000 DUP2 MSTORE PUSH1 0x4 ADD PUSH2 0x1F7 SWAP1 PUSH2 0x7F6 JUMP JUMPDEST PUSH1 0x40 MLOAD DUP1 SWAP2 SUB SWAP1 REVERT JUMPDEST PUSH0 DUP10 DUP10 DUP4 DUP2 DUP2 LT PUSH2 0x214 JUMPI PUSH2 0x213 PUSH2 0x60F JUMP JUMPDEST JUMPDEST SWAP1 POP PUSH1 0x20 MUL ADD PUSH1 0x20 DUP2 ADD SWAP1 PUSH2 0x229 SWAP2 SWAP1 PUSH2 0x84F JUMP JUMPDEST PUSH20 0xFFFFFFFFFFFFFFFFFFFFFFFFFFFFFFFFFFFFFFFF AND DUP9 DUP9 DUP5 DUP2 DUP2 LT PUSH2 0x252 JUMPI PUSH2 0x251 PUSH2 0x60F JUMP JUMPDEST JUMPDEST SWAP1 POP PUSH1 0x20 MUL DUP2 ADD SWAP1 PUSH2 0x264 SWAP2 SWAP1 PUSH2 0x648 JUMP JUMPDEST PUSH1 0x40 MLOAD PUSH2 0x272 SWAP3 SWAP2 SWAP1 PUSH2 0x8A8 JUMP JUMPDEST PUSH0 PUSH1 0x40 MLOAD DUP1 DUP4 SUB DUP2 PUSH0 DUP7 GAS CALL SWAP2 POP POP RETURNDATASIZE DUP1 PUSH0 DUP2 EQ PUSH2 0x2AB JUMPI PUSH1 0x40 MLOAD SWAP2 POP PUSH1 0x1F NOT PUSH1 0x3F RETURNDATASIZE ADD AND DUP3 ADD PUSH1 0x40 MSTORE RETURNDATASIZE DUP3 MSTORE RETURNDATASIZE PUSH0 PUSH1 0x20 DUP5 ADD RETURNDATACOPY PUSH2 0x2B0 JUMP JUMPDEST PUSH1 0x60 SWAP2 POP JUMPDEST POP POP SWAP1 POP DUP1 PUSH2 0x2F4 JUMPI PUSH1 0x40 MLOAD PUSH32 0x8C379A000000000000000000000000000000000000000000000000000000000 DUP2 MSTORE PUSH1 0x4 ADD PUSH2 0x2EB SWAP1 PUSH2 0x90A JUMP JUMPDEST PUSH1 0x40 MLOAD DUP1 SWAP2 SUB SWAP1 REVERT JUMPDEST POP DUP1 DUP1 PUSH1 0x1 ADD SWAP2 POP POP PUSH2 0xDF JUMP JUMPDEST POP POP POP POP POP POP POP POP POP JUMP JUMPDEST PUSH0 PUSH20 0xFFFFFFFFFFFFFFFFFFFFFFFFFFFFFFFFFFFFFFFF DUP3 AND SWAP1 POP SWAP2 SWAP1 POP JUMP JUMPDEST PUSH0 DUP2 SWAP1 POP SWAP2 SWAP1 POP JUMP JUMPDEST PUSH0 PUSH2 0x34F PUSH2 0x34A PUSH2 0x345 DUP5 PUSH2 0x30D JUMP JUMPDEST PUSH2 0x32C JUMP JUMPDEST PUSH2 0x30D JUMP JUMPDEST SWAP1 POP SWAP2 SWAP1 POP JUMP JUMPDEST PUSH0 PUSH2 0x360 DUP3 PUSH2 0x335 JUMP JUMPDEST SWAP1 POP SWAP2 SWAP1 POP JUMP JUMPDEST PUSH0 PUSH2 0x371 DUP3 PUSH2 0x356 JUMP JUMPDEST SWAP1 POP SWAP2 SWAP1 POP JUMP JUMPDEST PUSH2 0x381 DUP2 PUSH2 0x367 JUMP JUMPDEST DUP3 MSTORE POP POP JUMP JUMPDEST PUSH0 PUSH1 0x20 DUP3 ADD SWAP1 POP PUSH2 0x39A PUSH0 DUP4 ADD DUP5 PUSH2 0x378 JUMP JUMPDEST SWAP3 SWAP2 POP POP JUMP JUMPDEST PUSH0 DUP1 REVERT JUMPDEST PUSH0 DUP1 REVERT JUMPDEST PUSH0 DUP1 REVERT JUMPDEST PUSH0 DUP1 REVERT JUMPDEST PUSH0 DUP1 REVERT JUMPDEST PUSH0 DUP1 DUP4 PUSH1 0x1F DUP5 ADD SLT PUSH2 0x3C9 JUMPI PUSH2 0x3C8 PUSH2 0x3A8 JUMP JUMPDEST JUMPDEST DUP3 CALLDATALOAD SWAP1 POP PUSH8 0xFFFFFFFFFFFFFFFF DUP2 GT ISZERO PUSH2 0x3E6 JUMPI PUSH2 0x3E5 PUSH2 0x3AC JUMP JUMPDEST JUMPDEST PUSH1 0x20 DUP4 ADD SWAP2 POP DUP4 PUSH1 0x20 DUP3 MUL DUP4 ADD GT ISZERO PUSH2 0x402 JUMPI PUSH2 0x401 PUSH2 0x3B0 JUMP JUMPDEST JUMPDEST SWAP3 POP SWAP3 SWAP1 POP JUMP JUMPDEST PUSH0 DUP1 DUP4 PUSH1 0x1F DUP5 ADD SLT PUSH2 0x41E JUMPI PUSH2 0x41D PUSH2 0x3A8 JUMP JUMPDEST JUMPDEST DUP3 CALLDATALOAD SWAP1 POP PUSH8 0xFFFFFFFFFFFFFFFF DUP2 GT ISZERO PUSH2 0x43B JUMPI PUSH2 0x43A PUSH2 0x3AC JUMP JUMPDEST JUMPDEST PUSH1 0x20 DUP4 ADD SWAP2 POP DUP4 PUSH1 0x20 DUP3 MUL DUP4 ADD GT ISZERO PUSH2 0x457 JUMPI PUSH2 0x456 PUSH2 0x3B0 JUMP JUMPDEST JUMPDEST SWAP3 POP SWAP3 SWAP1 POP JUMP JUMPDEST PUSH0 DUP1 DUP4 PUSH1 0x1F DUP5 ADD SLT PUSH2 0x473 JUMPI PUSH2 0x472 PUSH2 0x3A8 JUMP JUMPDEST JUMPDEST DUP3 CALLDATALOAD SWAP1 POP PUSH8 0xFFFFFFFFFFFFFFFF DUP2 GT ISZERO PUSH2 0x490 JUMPI PUSH2 0x48F PUSH2 0x3AC JUMP JUMPDEST JUMPDEST PUSH1 0x20 DUP4 ADD SWAP2 POP DUP4 PUSH1 0x20 DUP3 MUL DUP4 ADD GT ISZERO PUSH2 0x4AC JUMPI PUSH2 0x4AB PUSH2 0x3B0 JUMP JUMPDEST JUMPDEST SWAP3 POP SWAP3 SWAP1 POP JUMP JUMPDEST PUSH0 DUP1 PUSH0 DUP1 PUSH0 DUP1 PUSH0 DUP1 PUSH1 0x80 DUP10 DUP12 SUB SLT ISZERO PUSH2 0x4CF JUMPI PUSH2 0x4CE PUSH2 0x3A0 JUMP JUMPDEST JUMPDEST PUSH0 DUP10 ADD CALLDATALOAD PUSH8 0xFFFFFFFFFFFFFFFF DUP2 GT ISZERO PUSH2 0x4EC JUMPI PUSH2 0x4EB PUSH2 0x3A4 JUMP JUMPDEST JUMPDEST PUSH2 0x4F8 DUP12 DUP3 DUP13 ADD PUSH2 0x3B4 JUMP JUMPDEST SWAP9 POP SWAP9 POP POP PUSH1 0x20 DUP10 ADD CALLDATALOAD PUSH8 0xFFFFFFFFFFFFFFFF DUP2 GT ISZERO PUSH2 0x51B JUMPI PUSH2 0x51A PUSH2 0x3A4 JUMP JUMPDEST JUMPDEST PUSH2 0x527 DUP12 DUP3 DUP13 ADD PUSH2 0x409 JUMP JUMPDEST SWAP7 POP SWAP7 POP POP PUSH1 0x40 DUP10 ADD CALLDATALOAD PUSH8 0xFFFFFFFFFFFFFFFF DUP2 GT ISZERO PUSH2 0x54A JUMPI PUSH2 0x549 PUSH2 0x3A4 JUMP JUMPDEST JUMPDEST PUSH2 0x556 DUP12 DUP3 DUP13 ADD PUSH2 0x409 JUMP JUMPDEST SWAP5 POP SWAP5 POP POP PUSH1 0x60 DUP10 ADD CALLDATALOAD PUSH8 0xFFFFFFFFFFFFFFFF DUP2 GT ISZERO PUSH2 0x579 JUMPI PUSH2 0x578 PUSH2 0x3A4 JUMP JUMPDEST JUMPDEST PUSH2 0x585 DUP12 DUP3 DUP13 ADD PUSH2 0x45E JUMP JUMPDEST SWAP3 POP SWAP3 POP POP SWAP3 SWAP6 SWAP9 POP SWAP3 SWAP6 SWAP9 SWAP1 SWAP4 SWAP7 POP JUMP JUMPDEST PUSH0 DUP3 DUP3 MSTORE PUSH1 0x20 DUP3 ADD SWAP1 POP SWAP3 SWAP2 POP POP JUMP JUMPDEST PUSH32 0x4C656E677468206D69736D617463680000000000000000000000000000000000 PUSH0 DUP3 ADD MSTORE POP JUMP JUMPDEST PUSH0 PUSH2 0x5DB PUSH1 0xF DUP4 PUSH2 0x597 JUMP JUMPDEST SWAP2 POP PUSH2 0x5E6 DUP3 PUSH2 0x5A7 JUMP JUMPDEST PUSH1 0x20 DUP3 ADD SWAP1 POP SWAP2 SWAP1 POP JUMP JUMPDEST PUSH0 PUSH1 0x20 DUP3 ADD SWAP1 POP DUP2 DUP2 SUB PUSH0 DUP4 ADD MSTORE PUSH2 0x608 DUP2 PUSH2 0x5CF JUMP JUMPDEST SWAP1 POP SWAP2 SWAP1 POP JUMP JUMPDEST PUSH32 0x4E487B7100000000000000000000000000000000000000000000000000000000 PUSH0 MSTORE PUSH1 0x32 PUSH1 0x4 MSTORE PUSH1 0x24 PUSH0 REVERT JUMPDEST PUSH0 DUP1 REVERT JUMPDEST PUSH0 DUP1 REVERT JUMPDEST PUSH0 DUP1 REVERT JUMPDEST PUSH0 DUP1 DUP4 CALLDATALOAD PUSH1 0x1 PUSH1 0x20 SUB DUP5 CALLDATASIZE SUB SUB DUP2 SLT PUSH2 0x664 JUMPI PUSH2 0x663 PUSH2 0x63C JUMP JUMPDEST JUMPDEST DUP1 DUP5 ADD SWAP3 POP DUP3 CALLDATALOAD SWAP2 POP PUSH8 0xFFFFFFFFFFFFFFFF DUP3 GT ISZERO PUSH2 0x686 JUMPI PUSH2 0x685 PUSH2 0x640 JUMP JUMPDEST JUMPDEST PUSH1 0x20 DUP4 ADD SWAP3 POP PUSH1 0x1 DUP3 MUL CALLDATASIZE SUB DUP4 SGT ISZERO PUSH2 0x6A2 JUMPI PUSH2 0x6A1 PUSH2 0x644 JUMP JUMPDEST JUMPDEST POP SWAP3 POP SWAP3 SWAP1 POP JUMP JUMPDEST PUSH0 DUP3 DUP3 MSTORE PUSH1 0x20 DUP3 ADD SWAP1 POP SWAP3 SWAP2 POP POP JUMP JUMPDEST DUP3 DUP2 DUP4 CALLDATACOPY PUSH0 DUP4 DUP4 ADD MSTORE POP POP POP JUMP JUMPDEST PUSH0 PUSH1 0x1F NOT PUSH1 0x1F DUP4 ADD AND SWAP1 POP SWAP2 SWAP1 POP JUMP JUMPDEST PUSH0 PUSH2 0x6E3 DUP4 DUP6 PUSH2 0x6AA JUMP JUMPDEST SWAP4 POP PUSH2 0x6F0 DUP4 DUP6 DUP5 PUSH2 0x6BA JUMP JUMPDEST PUSH2 0x6F9 DUP4 PUSH2 0x6C8 JUMP JUMPDEST DUP5 ADD SWAP1 POP SWAP4 SWAP3 POP POP POP JUMP JUMPDEST PUSH0 DUP2 SWAP1 POP SWAP2 SWAP1 POP JUMP JUMPDEST PUSH2 0x716 DUP2 PUSH2 0x704 JUMP JUMPDEST DUP3 MSTORE POP POP JUMP JUMPDEST PUSH0 PUSH1 0x40 DUP3 ADD SWAP1 POP DUP2 DUP2 SUB PUSH0 DUP4 ADD MSTORE PUSH2 0x735 DUP2 DUP6 DUP8 PUSH2 0x6D8 JUMP JUMPDEST SWAP1 POP PUSH2 0x744 PUSH1 0x20 DUP4 ADD DUP5 PUSH2 0x70D JUMP JUMPDEST SWAP5 SWAP4 POP POP POP POP JUMP JUMPDEST PUSH0 DUP2 ISZERO ISZERO SWAP1 POP SWAP2 SWAP1 POP JUMP JUMPDEST PUSH2 0x760 DUP2 PUSH2 0x74C JUMP JUMPDEST DUP2 EQ PUSH2 0x76A JUMPI PUSH0 DUP1 REVERT JUMPDEST POP JUMP JUMPDEST PUSH0 DUP2 MLOAD SWAP1 POP PUSH2 0x77B DUP2 PUSH2 0x757 JUMP JUMPDEST SWAP3 SWAP2 POP POP JUMP JUMPDEST PUSH0 PUSH1 0x20 DUP3 DUP5 SUB SLT ISZERO PUSH2 0x796 JUMPI PUSH2 0x795 PUSH2 0x3A0 JUMP JUMPDEST JUMPDEST PUSH0 PUSH2 0x7A3 DUP5 DUP3 DUP6 ADD PUSH2 0x76D JUMP JUMPDEST SWAP2 POP POP SWAP3 SWAP2 POP POP JUMP JUMPDEST PUSH32 0x5A4B2076616C69646174696F6E206661696C6564000000000000000000000000 PUSH0 DUP3 ADD MSTORE POP JUMP JUMPDEST PUSH0 PUSH2 0x7E0 PUSH1 0x14 DUP4 PUSH2 0x597 JUMP JUMPDEST SWAP2 POP PUSH2 0x7EB DUP3 PUSH2 0x7AC JUMP JUMPDEST PUSH1 0x20 DUP3 ADD SWAP1 POP SWAP2 SWAP1 POP JUMP JUMPDEST PUSH0 PUSH1 0x20 DUP3 ADD SWAP1 POP DUP2 DUP2 SUB PUSH0 DUP4 ADD MSTORE PUSH2 0x80D DUP2 PUSH2 0x7D4 JUMP JUMPDEST SWAP1 POP SWAP2 SWAP1 POP JUMP JUMPDEST PUSH0 PUSH2 0x81E DUP3 PUSH2 0x30D JUMP JUMPDEST SWAP1 POP SWAP2 SWAP1 POP JUMP JUMPDEST PUSH2 0x82E DUP2 PUSH2 0x814 JUMP JUMPDEST DUP2 EQ PUSH2 0x838 JUMPI PUSH0 DUP1 REVERT JUMPDEST POP JUMP JUMPDEST PUSH0 DUP2 CALLDATALOAD SWAP1 POP PUSH2 0x849 DUP2 PUSH2 0x825 JUMP JUMPDEST SWAP3 SWAP2 POP POP JUMP JUMPDEST PUSH0 PUSH1 0x20 DUP3 DUP5 SUB SLT ISZERO PUSH2 0x864 JUMPI PUSH2 0x863 PUSH2 0x3A0 JUMP JUMPDEST JUMPDEST PUSH0 PUSH2 0x871 DUP5 DUP3 DUP6 ADD PUSH2 0x83B JUMP JUMPDEST SWAP2 POP POP SWAP3 SWAP2 POP POP JUMP JUMPDEST PUSH0 DUP2 SWAP1 POP SWAP3 SWAP2 POP POP JUMP JUMPDEST PUSH0 PUSH2 0x88F DUP4 DUP6 PUSH2 0x87A JUMP JUMPDEST SWAP4 POP PUSH2 0x89C DUP4 DUP6 DUP5 PUSH2 0x6BA JUMP JUMPDEST DUP3 DUP5 ADD SWAP1 POP SWAP4 SWAP3 POP POP POP JUMP JUMPDEST PUSH0 PUSH2 0x8B4 DUP3 DUP5 DUP7 PUSH2 0x884 JUMP JUMPDEST SWAP2 POP DUP2 SWAP1 POP SWAP4 SWAP3 POP POP POP JUMP JUMPDEST PUSH32 0x5A4B2063616C6C206661696C6564000000000000000000000000000000000000 PUSH0 DUP3 ADD MSTORE POP JUMP JUMPDEST PUSH0 PUSH2 0x8F4 PUSH1 0xE DUP4 PUSH2 0x597 JUMP JUMPDEST SWAP2 POP PUSH2 0x8FF DUP3 PUSH2 0x8C0 JUMP JUMPDEST PUSH1 0x20 DUP3 ADD SWAP1 POP SWAP2 SWAP1 POP JUMP JUMPDEST PUSH0 PUSH1 0x20 DUP3 ADD SWAP1 POP DUP2 DUP2 SUB PUSH0 DUP4 ADD MSTORE PUSH2 0x921 DUP2 PUSH2 0x8E8 JUMP JUMPDEST SWAP1 POP SWAP2 SWAP1 POP JUMP INVALID LOG2 PUSH5 0x6970667358 0x22 SLT KECCAK256 0xC 0xA8 0xC DUP2 0xD9 0xB5 STOP CALL 0xE5 PUSH23 0xE2DE17FA56BD5818CB303B08B0313E680DE2D2760D6F64 PUSH20 0x6F6C634300081A00330000000000000000000000 "
				},
				"gasEstimates": {
					"creation": {
						"codeDepositCost": "479600",
						"executionCost": "infinite",
						"totalCost": "infinite"
					},
					"external": {
						"verifier()": "infinite",
						"zkExecuteBatch(address[],bytes[],bytes[],bytes32[])": "infinite"
					}
				},
				"methodIdentifiers": {
					"verifier()": "2b7ac3f3",
					"zkExecuteBatch(address[],bytes[],bytes[],bytes32[])": "caf9a1de"
				}
			},
			"storageLayout": {
				"storage": [
					{
						"astId": 13,
						"contract": "M/Multiplexing/zkSubcallVerifier.sol:zkWhitelistedMultiplexer",
						"label": "verifier",
						"offset": 0,
						"slot": "0",
						"type": "t_contract(IZKVerifier)10"
					}
				],
				"types": {
					"t_contract(IZKVerifier)10": {
						"encoding": "inplace",
						"label": "contract IZKVerifier",
						"numberOfBytes": "20"
					}
				}
			},
			"userdoc": {
				"kind": "user",
				"methods": {},
				"version": 1
			}
		}
	}
}