{
	"M/Multiplexing/MultiplexExecutor.sol": {
		"MultiplexExecutor": {
			"abi": [
				{
					"anonymous": false,
					"inputs": [
						{
							"indexed": false,
							"internalType": "address",
							"name": "target",
							"type": "address"
						},
						{
							"indexed": false,
							"internalType": "bytes",
							"name": "data",
							"type": "bytes"
						}
					],
					"name": "ActionExecuted",
					"type": "event"
				},
				{
					"inputs": [
						{
							"internalType": "address[]",
							"name": "targets",
							"type": "address[]"
						},
						{
							"internalType": "bytes[]",
							"name": "payloads",
							"type": "bytes[]"
						}
					],
					"name": "executeBatch",
					"outputs": [],
					"stateMutability": "nonpayable",
					"type": "function"
				}
			],
			"devdoc": {
				"kind": "dev",
				"methods": {},
				"version": 1
			},
			"evm": {
				"assembly": "    /* \"M/Multiplexing/MultiplexExecutor.sol\":58:535  contract MultiplexExecutor {... */\n  mstore(0x40, 0x80)\n  callvalue\n  dup1\n  iszero\n  tag_1\n  jumpi\n  0x00\n  dup1\n  revert\ntag_1:\n  pop\n  dataSize(sub_0)\n  dup1\n  dataOffset(sub_0)\n  0x00\n  codecopy\n  0x00\n  return\nstop\n\nsub_0: assembly {\n        /* \"M/Multiplexing/MultiplexExecutor.sol\":58:535  contract MultiplexExecutor {... */\n      mstore(0x40, 0x80)\n      callvalue\n      dup1\n      iszero\n      tag_1\n      jumpi\n      0x00\n      dup1\n      revert\n    tag_1:\n      pop\n      jumpi(tag_2, lt(calldatasize, 0x04))\n      shr(0xe0, calldataload(0x00))\n      dup1\n      0x18dfb3c7\n      eq\n      tag_3\n      jumpi\n    tag_2:\n      0x00\n      dup1\n      revert\n        /* \"M/Multiplexing/MultiplexExecutor.sol\":146:533  function executeBatch(address[] calldata targets, bytes[] calldata payloads) external {... */\n    tag_3:\n      tag_4\n      0x04\n      dup1\n      calldatasize\n      sub\n      dup2\n      add\n      swap1\n      tag_5\n      swap2\n      swap1\n      tag_6\n      jump\t// in\n    tag_5:\n      tag_7\n      jump\t// in\n    tag_4:\n      stop\n    tag_7:\n        /* \"M/Multiplexing/MultiplexExecutor.sol\":268:276  payloads */\n      dup2\n      dup2\n        /* \"M/Multiplexing/MultiplexExecutor.sol\":268:283  payloads.length */\n      swap1\n      pop\n        /* \"M/Multiplexing/MultiplexExecutor.sol\":250:257  targets */\n      dup5\n      dup5\n        /* \"M/Multiplexing/MultiplexExecutor.sol\":250:264  targets.length */\n      swap1\n      pop\n        /* \"M/Multiplexing/MultiplexExecutor.sol\":250:283  targets.length == payloads.length */\n      eq\n        /* \"M/Multiplexing/MultiplexExecutor.sol\":242:303  require(targets.length == payloads.length, \"Length mismatch\") */\n      tag_9\n      jumpi\n      mload(0x40)\n      0x08c379a000000000000000000000000000000000000000000000000000000000\n      dup2\n      mstore\n      0x04\n      add\n      tag_10\n      swap1\n      tag_11\n      jump\t// in\n    tag_10:\n      mload(0x40)\n      dup1\n      swap2\n      sub\n      swap1\n      revert\n    tag_9:\n        /* \"M/Multiplexing/MultiplexExecutor.sol\":319:328  uint256 i */\n      0x00\n        /* \"M/Multiplexing/MultiplexExecutor.sol\":314:527  for (uint256 i = 0; i < targets.length; i++) {... */\n    tag_12:\n        /* \"M/Multiplexing/MultiplexExecutor.sol\":338:345  targets */\n      dup5\n      dup5\n        /* \"M/Multiplexing/MultiplexExecutor.sol\":338:352  targets.length */\n      swap1\n      pop\n        /* \"M/Multiplexing/MultiplexExecutor.sol\":334:335  i */\n      dup2\n        /* \"M/Multiplexing/MultiplexExecutor.sol\":334:352  i < targets.length */\n      lt\n        /* \"M/Multiplexing/MultiplexExecutor.sol\":314:527  for (uint256 i = 0; i < targets.length; i++) {... */\n      iszero\n      tag_13\n      jumpi\n        /* \"M/Multiplexing/MultiplexExecutor.sol\":374:381  bool ok */\n      0x00\n        /* \"M/Multiplexing/MultiplexExecutor.sol\":387:394  targets */\n      dup6\n      dup6\n        /* \"M/Multiplexing/MultiplexExecutor.sol\":395:396  i */\n      dup4\n        /* \"M/Multiplexing/MultiplexExecutor.sol\":387:397  targets[i] */\n      dup2\n      dup2\n      lt\n      tag_15\n      jumpi\n      tag_16\n      tag_17\n      jump\t// in\n    tag_16:\n    tag_15:\n      swap1\n      pop\n      0x20\n      mul\n      add\n      0x20\n      dup2\n      add\n      swap1\n      tag_18\n      swap2\n      swap1\n      tag_19\n      jump\t// in\n    tag_18:\n        /* \"M/Multiplexing/MultiplexExecutor.sol\":387:402  targets[i].call */\n      0xffffffffffffffffffffffffffffffffffffffff\n      and\n        /* \"M/Multiplexing/MultiplexExecutor.sol\":403:411  payloads */\n      dup5\n      dup5\n        /* \"M/Multiplexing/MultiplexExecutor.sol\":412:413  i */\n      dup5\n        /* \"M/Multiplexing/MultiplexExecutor.sol\":403:414  payloads[i] */\n      dup2\n      dup2\n      lt\n      tag_20\n      jumpi\n      tag_21\n      tag_17\n      jump\t// in\n    tag_21:\n    tag_20:\n      swap1\n      pop\n      0x20\n      mul\n      dup2\n      add\n      swap1\n      tag_22\n      swap2\n      swap1\n      tag_23\n      jump\t// in\n    tag_22:\n        /* \"M/Multiplexing/MultiplexExecutor.sol\":387:415  targets[i].call(payloads[i]) */\n      mload(0x40)\n      tag_24\n      swap3\n      swap2\n      swap1\n      tag_25\n      jump\t// in\n    tag_24:\n      0x00\n      mload(0x40)\n      dup1\n      dup4\n      sub\n      dup2\n      0x00\n      dup7\n      gas\n      call\n      swap2\n      pop\n      pop\n      returndatasize\n      dup1\n      0x00\n      dup2\n      eq\n      tag_28\n      jumpi\n      mload(0x40)\n      swap2\n      pop\n      and(add(returndatasize, 0x3f), not(0x1f))\n      dup3\n      add\n      0x40\n      mstore\n      returndatasize\n      dup3\n      mstore\n      returndatasize\n      0x00\n      0x20\n      dup5\n      add\n      returndatacopy\n      jump(tag_27)\n    tag_28:\n      0x60\n      swap2\n      pop\n    tag_27:\n      pop\n        /* \"M/Multiplexing/MultiplexExecutor.sol\":373:415  (bool ok, ) = targets[i].call(payloads[i]) */\n      pop\n      swap1\n      pop\n        /* \"M/Multiplexing/MultiplexExecutor.sol\":437:439  ok */\n      dup1\n        /* \"M/Multiplexing/MultiplexExecutor.sol\":429:458  require(ok, \"Subcall failed\") */\n      tag_29\n      jumpi\n      mload(0x40)\n      0x08c379a000000000000000000000000000000000000000000000000000000000\n      dup2\n      mstore\n      0x04\n      add\n      tag_30\n      swap1\n      tag_31\n      jump\t// in\n    tag_30:\n      mload(0x40)\n      dup1\n      swap2\n      sub\n      swap1\n      revert\n    tag_29:\n        /* \"M/Multiplexing/MultiplexExecutor.sol\":477:516  ActionExecuted(targets[i], payloads[i]) */\n      0xd7d62979ae48a176c84f013982271cb0978ab8192f62cf045874ae8a1cf767fc\n        /* \"M/Multiplexing/MultiplexExecutor.sol\":492:499  targets */\n      dup7\n      dup7\n        /* \"M/Multiplexing/MultiplexExecutor.sol\":500:501  i */\n      dup5\n        /* \"M/Multiplexing/MultiplexExecutor.sol\":492:502  targets[i] */\n      dup2\n      dup2\n      lt\n      tag_32\n      jumpi\n      tag_33\n      tag_17\n      jump\t// in\n    tag_33:\n    tag_32:\n      swap1\n      pop\n      0x20\n      mul\n      add\n      0x20\n      dup2\n      add\n      swap1\n      tag_34\n      swap2\n      swap1\n      tag_19\n      jump\t// in\n    tag_34:\n        /* \"M/Multiplexing/MultiplexExecutor.sol\":504:512  payloads */\n      dup6\n      dup6\n        /* \"M/Multiplexing/MultiplexExecutor.sol\":513:514  i */\n      dup6\n        /* \"M/Multiplexing/MultiplexExecutor.sol\":504:515  payloads[i] */\n      dup2\n      dup2\n      lt\n      tag_35\n      jumpi\n      tag_36\n      tag_17\n      jump\t// in\n    tag_36:\n    tag_35:\n      swap1\n      pop\n      0x20\n      mul\n      dup2\n      add\n      swap1\n      tag_37\n      swap2\n      swap1\n      tag_23\n      jump\t// in\n    tag_37:\n        /* \"M/Multiplexing/MultiplexExecutor.sol\":477:516  ActionExecuted(targets[i], payloads[i]) */\n      mload(0x40)\n      tag_38\n      swap4\n      swap3\n      swap2\n      swap1\n      tag_39\n      jump\t// in\n    tag_38:\n      mload(0x40)\n      dup1\n      swap2\n      sub\n      swap1\n      log1\n        /* \"M/Multiplexing/MultiplexExecutor.sol\":359:527  {... */\n      pop\n        /* \"M/Multiplexing/MultiplexExecutor.sol\":354:357  i++ */\n      dup1\n      dup1\n      0x01\n      add\n      swap2\n      pop\n      pop\n        /* \"M/Multiplexing/MultiplexExecutor.sol\":314:527  for (uint256 i = 0; i < targets.length; i++) {... */\n      jump(tag_12)\n    tag_13:\n      pop\n        /* \"M/Multiplexing/MultiplexExecutor.sol\":146:533  function executeBatch(address[] calldata targets, bytes[] calldata payloads) external {... */\n      pop\n      pop\n      pop\n      pop\n      jump\t// out\n        /* \"#utility.yul\":88:205   */\n    tag_41:\n        /* \"#utility.yul\":197:198   */\n      0x00\n        /* \"#utility.yul\":194:195   */\n      dup1\n        /* \"#utility.yul\":187:199   */\n      revert\n        /* \"#utility.yul\":211:328   */\n    tag_42:\n        /* \"#utility.yul\":320:321   */\n      0x00\n        /* \"#utility.yul\":317:318   */\n      dup1\n        /* \"#utility.yul\":310:322   */\n      revert\n        /* \"#utility.yul\":334:451   */\n    tag_43:\n        /* \"#utility.yul\":443:444   */\n      0x00\n        /* \"#utility.yul\":440:441   */\n      dup1\n        /* \"#utility.yul\":433:445   */\n      revert\n        /* \"#utility.yul\":457:574   */\n    tag_44:\n        /* \"#utility.yul\":566:567   */\n      0x00\n        /* \"#utility.yul\":563:564   */\n      dup1\n        /* \"#utility.yul\":556:568   */\n      revert\n        /* \"#utility.yul\":580:697   */\n    tag_45:\n        /* \"#utility.yul\":689:690   */\n      0x00\n        /* \"#utility.yul\":686:687   */\n      dup1\n        /* \"#utility.yul\":679:691   */\n      revert\n        /* \"#utility.yul\":720:1288   */\n    tag_46:\n        /* \"#utility.yul\":793:801   */\n      0x00\n        /* \"#utility.yul\":803:809   */\n      dup1\n        /* \"#utility.yul\":853:856   */\n      dup4\n        /* \"#utility.yul\":846:850   */\n      0x1f\n        /* \"#utility.yul\":838:844   */\n      dup5\n        /* \"#utility.yul\":834:851   */\n      add\n        /* \"#utility.yul\":830:857   */\n      slt\n        /* \"#utility.yul\":820:942   */\n      tag_75\n      jumpi\n        /* \"#utility.yul\":861:940   */\n      tag_76\n      tag_43\n      jump\t// in\n    tag_76:\n        /* \"#utility.yul\":820:942   */\n    tag_75:\n        /* \"#utility.yul\":974:980   */\n      dup3\n        /* \"#utility.yul\":961:981   */\n      calldataload\n        /* \"#utility.yul\":951:981   */\n      swap1\n      pop\n        /* \"#utility.yul\":1004:1022   */\n      0xffffffffffffffff\n        /* \"#utility.yul\":996:1002   */\n      dup2\n        /* \"#utility.yul\":993:1023   */\n      gt\n        /* \"#utility.yul\":990:1107   */\n      iszero\n      tag_77\n      jumpi\n        /* \"#utility.yul\":1026:1105   */\n      tag_78\n      tag_44\n      jump\t// in\n    tag_78:\n        /* \"#utility.yul\":990:1107   */\n    tag_77:\n        /* \"#utility.yul\":1140:1144   */\n      0x20\n        /* \"#utility.yul\":1132:1138   */\n      dup4\n        /* \"#utility.yul\":1128:1145   */\n      add\n        /* \"#utility.yul\":1116:1145   */\n      swap2\n      pop\n        /* \"#utility.yul\":1194:1197   */\n      dup4\n        /* \"#utility.yul\":1186:1190   */\n      0x20\n        /* \"#utility.yul\":1178:1184   */\n      dup3\n        /* \"#utility.yul\":1174:1191   */\n      mul\n        /* \"#utility.yul\":1164:1172   */\n      dup4\n        /* \"#utility.yul\":1160:1192   */\n      add\n        /* \"#utility.yul\":1157:1198   */\n      gt\n        /* \"#utility.yul\":1154:1282   */\n      iszero\n      tag_79\n      jumpi\n        /* \"#utility.yul\":1201:1280   */\n      tag_80\n      tag_45\n      jump\t// in\n    tag_80:\n        /* \"#utility.yul\":1154:1282   */\n    tag_79:\n        /* \"#utility.yul\":720:1288   */\n      swap3\n      pop\n      swap3\n      swap1\n      pop\n      jump\t// out\n        /* \"#utility.yul\":1309:1888   */\n    tag_47:\n        /* \"#utility.yul\":1393:1401   */\n      0x00\n        /* \"#utility.yul\":1403:1409   */\n      dup1\n        /* \"#utility.yul\":1453:1456   */\n      dup4\n        /* \"#utility.yul\":1446:1450   */\n      0x1f\n        /* \"#utility.yul\":1438:1444   */\n      dup5\n        /* \"#utility.yul\":1434:1451   */\n      add\n        /* \"#utility.yul\":1430:1457   */\n      slt\n        /* \"#utility.yul\":1420:1542   */\n      tag_82\n      jumpi\n        /* \"#utility.yul\":1461:1540   */\n      tag_83\n      tag_43\n      jump\t// in\n    tag_83:\n        /* \"#utility.yul\":1420:1542   */\n    tag_82:\n        /* \"#utility.yul\":1574:1580   */\n      dup3\n        /* \"#utility.yul\":1561:1581   */\n      calldataload\n        /* \"#utility.yul\":1551:1581   */\n      swap1\n      pop\n        /* \"#utility.yul\":1604:1622   */\n      0xffffffffffffffff\n        /* \"#utility.yul\":1596:1602   */\n      dup2\n        /* \"#utility.yul\":1593:1623   */\n      gt\n        /* \"#utility.yul\":1590:1707   */\n      iszero\n      tag_84\n      jumpi\n        /* \"#utility.yul\":1626:1705   */\n      tag_85\n      tag_44\n      jump\t// in\n    tag_85:\n        /* \"#utility.yul\":1590:1707   */\n    tag_84:\n        /* \"#utility.yul\":1740:1744   */\n      0x20\n        /* \"#utility.yul\":1732:1738   */\n      dup4\n        /* \"#utility.yul\":1728:1745   */\n      add\n        /* \"#utility.yul\":1716:1745   */\n      swap2\n      pop\n        /* \"#utility.yul\":1794:1797   */\n      dup4\n        /* \"#utility.yul\":1786:1790   */\n      0x20\n        /* \"#utility.yul\":1778:1784   */\n      dup3\n        /* \"#utility.yul\":1774:1791   */\n      mul\n        /* \"#utility.yul\":1764:1772   */\n      dup4\n        /* \"#utility.yul\":1760:1792   */\n      add\n        /* \"#utility.yul\":1757:1798   */\n      gt\n        /* \"#utility.yul\":1754:1882   */\n      iszero\n      tag_86\n      jumpi\n        /* \"#utility.yul\":1801:1880   */\n      tag_87\n      tag_45\n      jump\t// in\n    tag_87:\n        /* \"#utility.yul\":1754:1882   */\n    tag_86:\n        /* \"#utility.yul\":1309:1888   */\n      swap3\n      pop\n      swap3\n      swap1\n      pop\n      jump\t// out\n        /* \"#utility.yul\":1894:2850   */\n    tag_6:\n        /* \"#utility.yul\":2027:2033   */\n      0x00\n        /* \"#utility.yul\":2035:2041   */\n      dup1\n        /* \"#utility.yul\":2043:2049   */\n      0x00\n        /* \"#utility.yul\":2051:2057   */\n      dup1\n        /* \"#utility.yul\":2100:2102   */\n      0x40\n        /* \"#utility.yul\":2088:2097   */\n      dup6\n        /* \"#utility.yul\":2079:2086   */\n      dup8\n        /* \"#utility.yul\":2075:2098   */\n      sub\n        /* \"#utility.yul\":2071:2103   */\n      slt\n        /* \"#utility.yul\":2068:2187   */\n      iszero\n      tag_89\n      jumpi\n        /* \"#utility.yul\":2106:2185   */\n      tag_90\n      tag_41\n      jump\t// in\n    tag_90:\n        /* \"#utility.yul\":2068:2187   */\n    tag_89:\n        /* \"#utility.yul\":2254:2255   */\n      0x00\n        /* \"#utility.yul\":2243:2252   */\n      dup6\n        /* \"#utility.yul\":2239:2256   */\n      add\n        /* \"#utility.yul\":2226:2257   */\n      calldataload\n        /* \"#utility.yul\":2284:2302   */\n      0xffffffffffffffff\n        /* \"#utility.yul\":2276:2282   */\n      dup2\n        /* \"#utility.yul\":2273:2303   */\n      gt\n        /* \"#utility.yul\":2270:2387   */\n      iszero\n      tag_91\n      jumpi\n        /* \"#utility.yul\":2306:2385   */\n      tag_92\n      tag_42\n      jump\t// in\n    tag_92:\n        /* \"#utility.yul\":2270:2387   */\n    tag_91:\n        /* \"#utility.yul\":2419:2499   */\n      tag_93\n        /* \"#utility.yul\":2491:2498   */\n      dup8\n        /* \"#utility.yul\":2482:2488   */\n      dup3\n        /* \"#utility.yul\":2471:2480   */\n      dup9\n        /* \"#utility.yul\":2467:2489   */\n      add\n        /* \"#utility.yul\":2419:2499   */\n      tag_46\n      jump\t// in\n    tag_93:\n        /* \"#utility.yul\":2401:2499   */\n      swap5\n      pop\n      swap5\n      pop\n        /* \"#utility.yul\":2197:2509   */\n      pop\n        /* \"#utility.yul\":2576:2578   */\n      0x20\n        /* \"#utility.yul\":2565:2574   */\n      dup6\n        /* \"#utility.yul\":2561:2579   */\n      add\n        /* \"#utility.yul\":2548:2580   */\n      calldataload\n        /* \"#utility.yul\":2607:2625   */\n      0xffffffffffffffff\n        /* \"#utility.yul\":2599:2605   */\n      dup2\n        /* \"#utility.yul\":2596:2626   */\n      gt\n        /* \"#utility.yul\":2593:2710   */\n      iszero\n      tag_94\n      jumpi\n        /* \"#utility.yul\":2629:2708   */\n      tag_95\n      tag_42\n      jump\t// in\n    tag_95:\n        /* \"#utility.yul\":2593:2710   */\n    tag_94:\n        /* \"#utility.yul\":2742:2833   */\n      tag_96\n        /* \"#utility.yul\":2825:2832   */\n      dup8\n        /* \"#utility.yul\":2816:2822   */\n      dup3\n        /* \"#utility.yul\":2805:2814   */\n      dup9\n        /* \"#utility.yul\":2801:2823   */\n      add\n        /* \"#utility.yul\":2742:2833   */\n      tag_47\n      jump\t// in\n    tag_96:\n        /* \"#utility.yul\":2724:2833   */\n      swap3\n      pop\n      swap3\n      pop\n        /* \"#utility.yul\":2519:2843   */\n      pop\n        /* \"#utility.yul\":1894:2850   */\n      swap3\n      swap6\n      swap2\n      swap5\n      pop\n      swap3\n      pop\n      jump\t// out\n        /* \"#utility.yul\":2856:3025   */\n    tag_48:\n        /* \"#utility.yul\":2940:2951   */\n      0x00\n        /* \"#utility.yul\":2974:2980   */\n      dup3\n        /* \"#utility.yul\":2969:2972   */\n      dup3\n        /* \"#utility.yul\":2962:2981   */\n      mstore\n        /* \"#utility.yul\":3014:3018   */\n      0x20\n        /* \"#utility.yul\":3009:3012   */\n      dup3\n        /* \"#utility.yul\":3005:3019   */\n      add\n        /* \"#utility.yul\":2990:3019   */\n      swap1\n      pop\n        /* \"#utility.yul\":2856:3025   */\n      swap3\n      swap2\n      pop\n      pop\n      jump\t// out\n        /* \"#utility.yul\":3031:3196   */\n    tag_49:\n        /* \"#utility.yul\":3171:3188   */\n      0x4c656e677468206d69736d617463680000000000000000000000000000000000\n        /* \"#utility.yul\":3167:3168   */\n      0x00\n        /* \"#utility.yul\":3159:3165   */\n      dup3\n        /* \"#utility.yul\":3155:3169   */\n      add\n        /* \"#utility.yul\":3148:3189   */\n      mstore\n        /* \"#utility.yul\":3031:3196   */\n      pop\n      jump\t// out\n        /* \"#utility.yul\":3202:3568   */\n    tag_50:\n        /* \"#utility.yul\":3344:3347   */\n      0x00\n        /* \"#utility.yul\":3365:3432   */\n      tag_100\n        /* \"#utility.yul\":3429:3431   */\n      0x0f\n        /* \"#utility.yul\":3424:3427   */\n      dup4\n        /* \"#utility.yul\":3365:3432   */\n      tag_48\n      jump\t// in\n    tag_100:\n        /* \"#utility.yul\":3358:3432   */\n      swap2\n      pop\n        /* \"#utility.yul\":3441:3534   */\n      tag_101\n        /* \"#utility.yul\":3530:3533   */\n      dup3\n        /* \"#utility.yul\":3441:3534   */\n      tag_49\n      jump\t// in\n    tag_101:\n        /* \"#utility.yul\":3559:3561   */\n      0x20\n        /* \"#utility.yul\":3554:3557   */\n      dup3\n        /* \"#utility.yul\":3550:3562   */\n      add\n        /* \"#utility.yul\":3543:3562   */\n      swap1\n      pop\n        /* \"#utility.yul\":3202:3568   */\n      swap2\n      swap1\n      pop\n      jump\t// out\n        /* \"#utility.yul\":3574:3993   */\n    tag_11:\n        /* \"#utility.yul\":3740:3744   */\n      0x00\n        /* \"#utility.yul\":3778:3780   */\n      0x20\n        /* \"#utility.yul\":3767:3776   */\n      dup3\n        /* \"#utility.yul\":3763:3781   */\n      add\n        /* \"#utility.yul\":3755:3781   */\n      swap1\n      pop\n        /* \"#utility.yul\":3827:3836   */\n      dup2\n        /* \"#utility.yul\":3821:3825   */\n      dup2\n        /* \"#utility.yul\":3817:3837   */\n      sub\n        /* \"#utility.yul\":3813:3814   */\n      0x00\n        /* \"#utility.yul\":3802:3811   */\n      dup4\n        /* \"#utility.yul\":3798:3815   */\n      add\n        /* \"#utility.yul\":3791:3838   */\n      mstore\n        /* \"#utility.yul\":3855:3986   */\n      tag_103\n        /* \"#utility.yul\":3981:3985   */\n      dup2\n        /* \"#utility.yul\":3855:3986   */\n      tag_50\n      jump\t// in\n    tag_103:\n        /* \"#utility.yul\":3847:3986   */\n      swap1\n      pop\n        /* \"#utility.yul\":3574:3993   */\n      swap2\n      swap1\n      pop\n      jump\t// out\n        /* \"#utility.yul\":3999:4179   */\n    tag_17:\n        /* \"#utility.yul\":4047:4124   */\n      0x4e487b7100000000000000000000000000000000000000000000000000000000\n        /* \"#utility.yul\":4044:4045   */\n      0x00\n        /* \"#utility.yul\":4037:4125   */\n      mstore\n        /* \"#utility.yul\":4144:4148   */\n      0x32\n        /* \"#utility.yul\":4141:4142   */\n      0x04\n        /* \"#utility.yul\":4134:4149   */\n      mstore\n        /* \"#utility.yul\":4168:4172   */\n      0x24\n        /* \"#utility.yul\":4165:4166   */\n      0x00\n        /* \"#utility.yul\":4158:4173   */\n      revert\n        /* \"#utility.yul\":4185:4311   */\n    tag_51:\n        /* \"#utility.yul\":4222:4229   */\n      0x00\n        /* \"#utility.yul\":4262:4304   */\n      0xffffffffffffffffffffffffffffffffffffffff\n        /* \"#utility.yul\":4255:4260   */\n      dup3\n        /* \"#utility.yul\":4251:4305   */\n      and\n        /* \"#utility.yul\":4240:4305   */\n      swap1\n      pop\n        /* \"#utility.yul\":4185:4311   */\n      swap2\n      swap1\n      pop\n      jump\t// out\n        /* \"#utility.yul\":4317:4413   */\n    tag_52:\n        /* \"#utility.yul\":4354:4361   */\n      0x00\n        /* \"#utility.yul\":4383:4407   */\n      tag_107\n        /* \"#utility.yul\":4401:4406   */\n      dup3\n        /* \"#utility.yul\":4383:4407   */\n      tag_51\n      jump\t// in\n    tag_107:\n        /* \"#utility.yul\":4372:4407   */\n      swap1\n      pop\n        /* \"#utility.yul\":4317:4413   */\n      swap2\n      swap1\n      pop\n      jump\t// out\n        /* \"#utility.yul\":4419:4541   */\n    tag_53:\n        /* \"#utility.yul\":4492:4516   */\n      tag_109\n        /* \"#utility.yul\":4510:4515   */\n      dup2\n        /* \"#utility.yul\":4492:4516   */\n      tag_52\n      jump\t// in\n    tag_109:\n        /* \"#utility.yul\":4485:4490   */\n      dup2\n        /* \"#utility.yul\":4482:4517   */\n      eq\n        /* \"#utility.yul\":4472:4535   */\n      tag_110\n      jumpi\n        /* \"#utility.yul\":4531:4532   */\n      0x00\n        /* \"#utility.yul\":4528:4529   */\n      dup1\n        /* \"#utility.yul\":4521:4533   */\n      revert\n        /* \"#utility.yul\":4472:4535   */\n    tag_110:\n        /* \"#utility.yul\":4419:4541   */\n      pop\n      jump\t// out\n        /* \"#utility.yul\":4547:4686   */\n    tag_54:\n        /* \"#utility.yul\":4593:4598   */\n      0x00\n        /* \"#utility.yul\":4631:4637   */\n      dup2\n        /* \"#utility.yul\":4618:4638   */\n      calldataload\n        /* \"#utility.yul\":4609:4638   */\n      swap1\n      pop\n        /* \"#utility.yul\":4647:4680   */\n      tag_112\n        /* \"#utility.yul\":4674:4679   */\n      dup2\n        /* \"#utility.yul\":4647:4680   */\n      tag_53\n      jump\t// in\n    tag_112:\n        /* \"#utility.yul\":4547:4686   */\n      swap3\n      swap2\n      pop\n      pop\n      jump\t// out\n        /* \"#utility.yul\":4692:5021   */\n    tag_19:\n        /* \"#utility.yul\":4751:4757   */\n      0x00\n        /* \"#utility.yul\":4800:4802   */\n      0x20\n        /* \"#utility.yul\":4788:4797   */\n      dup3\n        /* \"#utility.yul\":4779:4786   */\n      dup5\n        /* \"#utility.yul\":4775:4798   */\n      sub\n        /* \"#utility.yul\":4771:4803   */\n      slt\n        /* \"#utility.yul\":4768:4887   */\n      iszero\n      tag_114\n      jumpi\n        /* \"#utility.yul\":4806:4885   */\n      tag_115\n      tag_41\n      jump\t// in\n    tag_115:\n        /* \"#utility.yul\":4768:4887   */\n    tag_114:\n        /* \"#utility.yul\":4926:4927   */\n      0x00\n        /* \"#utility.yul\":4951:5004   */\n      tag_116\n        /* \"#utility.yul\":4996:5003   */\n      dup5\n        /* \"#utility.yul\":4987:4993   */\n      dup3\n        /* \"#utility.yul\":4976:4985   */\n      dup6\n        /* \"#utility.yul\":4972:4994   */\n      add\n        /* \"#utility.yul\":4951:5004   */\n      tag_54\n      jump\t// in\n    tag_116:\n        /* \"#utility.yul\":4941:5004   */\n      swap2\n      pop\n        /* \"#utility.yul\":4897:5014   */\n      pop\n        /* \"#utility.yul\":4692:5021   */\n      swap3\n      swap2\n      pop\n      pop\n      jump\t// out\n        /* \"#utility.yul\":5027:5144   */\n    tag_55:\n        /* \"#utility.yul\":5136:5137   */\n      0x00\n        /* \"#utility.yul\":5133:5134   */\n      dup1\n        /* \"#utility.yul\":5126:5138   */\n      revert\n        /* \"#utility.yul\":5150:5267   */\n    tag_56:\n        /* \"#utility.yul\":5259:5260   */\n      0x00\n        /* \"#utility.yul\":5256:5257   */\n      dup1\n        /* \"#utility.yul\":5249:5261   */\n      revert\n        /* \"#utility.yul\":5273:5390   */\n    tag_57:\n        /* \"#utility.yul\":5382:5383   */\n      0x00\n        /* \"#utility.yul\":5379:5380   */\n      dup1\n        /* \"#utility.yul\":5372:5384   */\n      revert\n        /* \"#utility.yul\":5396:6120   */\n    tag_23:\n        /* \"#utility.yul\":5473:5477   */\n      0x00\n        /* \"#utility.yul\":5479:5485   */\n      dup1\n        /* \"#utility.yul\":5535:5546   */\n      dup4\n        /* \"#utility.yul\":5522:5547   */\n      calldataload\n        /* \"#utility.yul\":5635:5636   */\n      0x01\n        /* \"#utility.yul\":5629:5633   */\n      0x20\n        /* \"#utility.yul\":5625:5637   */\n      sub\n        /* \"#utility.yul\":5614:5622   */\n      dup5\n        /* \"#utility.yul\":5598:5612   */\n      calldatasize\n        /* \"#utility.yul\":5594:5623   */\n      sub\n        /* \"#utility.yul\":5590:5638   */\n      sub\n        /* \"#utility.yul\":5570:5588   */\n      dup2\n        /* \"#utility.yul\":5566:5639   */\n      slt\n        /* \"#utility.yul\":5556:5724   */\n      tag_121\n      jumpi\n        /* \"#utility.yul\":5643:5722   */\n      tag_122\n      tag_55\n      jump\t// in\n    tag_122:\n        /* \"#utility.yul\":5556:5724   */\n    tag_121:\n        /* \"#utility.yul\":5755:5773   */\n      dup1\n        /* \"#utility.yul\":5745:5753   */\n      dup5\n        /* \"#utility.yul\":5741:5774   */\n      add\n        /* \"#utility.yul\":5733:5774   */\n      swap3\n      pop\n        /* \"#utility.yul\":5807:5811   */\n      dup3\n        /* \"#utility.yul\":5794:5812   */\n      calldataload\n        /* \"#utility.yul\":5784:5812   */\n      swap2\n      pop\n        /* \"#utility.yul\":5835:5853   */\n      0xffffffffffffffff\n        /* \"#utility.yul\":5827:5833   */\n      dup3\n        /* \"#utility.yul\":5824:5854   */\n      gt\n        /* \"#utility.yul\":5821:5938   */\n      iszero\n      tag_123\n      jumpi\n        /* \"#utility.yul\":5857:5936   */\n      tag_124\n      tag_56\n      jump\t// in\n    tag_124:\n        /* \"#utility.yul\":5821:5938   */\n    tag_123:\n        /* \"#utility.yul\":5965:5967   */\n      0x20\n        /* \"#utility.yul\":5959:5963   */\n      dup4\n        /* \"#utility.yul\":5955:5968   */\n      add\n        /* \"#utility.yul\":5947:5968   */\n      swap3\n      pop\n        /* \"#utility.yul\":6022:6026   */\n      0x01\n        /* \"#utility.yul\":6014:6020   */\n      dup3\n        /* \"#utility.yul\":6010:6027   */\n      mul\n        /* \"#utility.yul\":5994:6008   */\n      calldatasize\n        /* \"#utility.yul\":5990:6028   */\n      sub\n        /* \"#utility.yul\":5984:5988   */\n      dup4\n        /* \"#utility.yul\":5980:6029   */\n      sgt\n        /* \"#utility.yul\":5977:6113   */\n      iszero\n      tag_125\n      jumpi\n        /* \"#utility.yul\":6032:6111   */\n      tag_126\n      tag_57\n      jump\t// in\n    tag_126:\n        /* \"#utility.yul\":5977:6113   */\n    tag_125:\n        /* \"#utility.yul\":5486:6120   */\n      pop\n        /* \"#utility.yul\":5396:6120   */\n      swap3\n      pop\n      swap3\n      swap1\n      pop\n      jump\t// out\n        /* \"#utility.yul\":6126:6273   */\n    tag_58:\n        /* \"#utility.yul\":6227:6238   */\n      0x00\n        /* \"#utility.yul\":6264:6267   */\n      dup2\n        /* \"#utility.yul\":6249:6267   */\n      swap1\n      pop\n        /* \"#utility.yul\":6126:6273   */\n      swap3\n      swap2\n      pop\n      pop\n      jump\t// out\n        /* \"#utility.yul\":6279:6427   */\n    tag_59:\n        /* \"#utility.yul\":6377:6383   */\n      dup3\n        /* \"#utility.yul\":6372:6375   */\n      dup2\n        /* \"#utility.yul\":6367:6370   */\n      dup4\n        /* \"#utility.yul\":6354:6384   */\n      calldatacopy\n        /* \"#utility.yul\":6418:6419   */\n      0x00\n        /* \"#utility.yul\":6409:6415   */\n      dup4\n        /* \"#utility.yul\":6404:6407   */\n      dup4\n        /* \"#utility.yul\":6400:6416   */\n      add\n        /* \"#utility.yul\":6393:6420   */\n      mstore\n        /* \"#utility.yul\":6279:6427   */\n      pop\n      pop\n      pop\n      jump\t// out\n        /* \"#utility.yul\":6455:6782   */\n    tag_60:\n        /* \"#utility.yul\":6569:6572   */\n      0x00\n        /* \"#utility.yul\":6590:6678   */\n      tag_130\n        /* \"#utility.yul\":6671:6677   */\n      dup4\n        /* \"#utility.yul\":6666:6669   */\n      dup6\n        /* \"#utility.yul\":6590:6678   */\n      tag_58\n      jump\t// in\n    tag_130:\n        /* \"#utility.yul\":6583:6678   */\n      swap4\n      pop\n        /* \"#utility.yul\":6688:6744   */\n      tag_131\n        /* \"#utility.yul\":6737:6743   */\n      dup4\n        /* \"#utility.yul\":6732:6735   */\n      dup6\n        /* \"#utility.yul\":6725:6730   */\n      dup5\n        /* \"#utility.yul\":6688:6744   */\n      tag_59\n      jump\t// in\n    tag_131:\n        /* \"#utility.yul\":6769:6775   */\n      dup3\n        /* \"#utility.yul\":6764:6767   */\n      dup5\n        /* \"#utility.yul\":6760:6776   */\n      add\n        /* \"#utility.yul\":6753:6776   */\n      swap1\n      pop\n        /* \"#utility.yul\":6455:6782   */\n      swap4\n      swap3\n      pop\n      pop\n      pop\n      jump\t// out\n        /* \"#utility.yul\":6788:7079   */\n    tag_25:\n        /* \"#utility.yul\":6928:6931   */\n      0x00\n        /* \"#utility.yul\":6950:7053   */\n      tag_133\n        /* \"#utility.yul\":7049:7052   */\n      dup3\n        /* \"#utility.yul\":7040:7046   */\n      dup5\n        /* \"#utility.yul\":7032:7038   */\n      dup7\n        /* \"#utility.yul\":6950:7053   */\n      tag_60\n      jump\t// in\n    tag_133:\n        /* \"#utility.yul\":6943:7053   */\n      swap2\n      pop\n        /* \"#utility.yul\":7070:7073   */\n      dup2\n        /* \"#utility.yul\":7063:7073   */\n      swap1\n      pop\n        /* \"#utility.yul\":6788:7079   */\n      swap4\n      swap3\n      pop\n      pop\n      pop\n      jump\t// out\n        /* \"#utility.yul\":7085:7249   */\n    tag_61:\n        /* \"#utility.yul\":7225:7241   */\n      0x53756263616c6c206661696c6564000000000000000000000000000000000000\n        /* \"#utility.yul\":7221:7222   */\n      0x00\n        /* \"#utility.yul\":7213:7219   */\n      dup3\n        /* \"#utility.yul\":7209:7223   */\n      add\n        /* \"#utility.yul\":7202:7242   */\n      mstore\n        /* \"#utility.yul\":7085:7249   */\n      pop\n      jump\t// out\n        /* \"#utility.yul\":7255:7621   */\n    tag_62:\n        /* \"#utility.yul\":7397:7400   */\n      0x00\n        /* \"#utility.yul\":7418:7485   */\n      tag_136\n        /* \"#utility.yul\":7482:7484   */\n      0x0e\n        /* \"#utility.yul\":7477:7480   */\n      dup4\n        /* \"#utility.yul\":7418:7485   */\n      tag_48\n      jump\t// in\n    tag_136:\n        /* \"#utility.yul\":7411:7485   */\n      swap2\n      pop\n        /* \"#utility.yul\":7494:7587   */\n      tag_137\n        /* \"#utility.yul\":7583:7586   */\n      dup3\n        /* \"#utility.yul\":7494:7587   */\n      tag_61\n      jump\t// in\n    tag_137:\n        /* \"#utility.yul\":7612:7614   */\n      0x20\n        /* \"#utility.yul\":7607:7610   */\n      dup3\n        /* \"#utility.yul\":7603:7615   */\n      add\n        /* \"#utility.yul\":7596:7615   */\n      swap1\n      pop\n        /* \"#utility.yul\":7255:7621   */\n      swap2\n      swap1\n      pop\n      jump\t// out\n        /* \"#utility.yul\":7627:8046   */\n    tag_31:\n        /* \"#utility.yul\":7793:7797   */\n      0x00\n        /* \"#utility.yul\":7831:7833   */\n      0x20\n        /* \"#utility.yul\":7820:7829   */\n      dup3\n        /* \"#utility.yul\":7816:7834   */\n      add\n        /* \"#utility.yul\":7808:7834   */\n      swap1\n      pop\n        /* \"#utility.yul\":7880:7889   */\n      dup2\n        /* \"#utility.yul\":7874:7878   */\n      dup2\n        /* \"#utility.yul\":7870:7890   */\n      sub\n        /* \"#utility.yul\":7866:7867   */\n      0x00\n        /* \"#utility.yul\":7855:7864   */\n      dup4\n        /* \"#utility.yul\":7851:7868   */\n      add\n        /* \"#utility.yul\":7844:7891   */\n      mstore\n        /* \"#utility.yul\":7908:8039   */\n      tag_139\n        /* \"#utility.yul\":8034:8038   */\n      dup2\n        /* \"#utility.yul\":7908:8039   */\n      tag_62\n      jump\t// in\n    tag_139:\n        /* \"#utility.yul\":7900:8039   */\n      swap1\n      pop\n        /* \"#utility.yul\":7627:8046   */\n      swap2\n      swap1\n      pop\n      jump\t// out\n        /* \"#utility.yul\":8052:8170   */\n    tag_63:\n        /* \"#utility.yul\":8139:8163   */\n      tag_141\n        /* \"#utility.yul\":8157:8162   */\n      dup2\n        /* \"#utility.yul\":8139:8163   */\n      tag_52\n      jump\t// in\n    tag_141:\n        /* \"#utility.yul\":8134:8137   */\n      dup3\n        /* \"#utility.yul\":8127:8164   */\n      mstore\n        /* \"#utility.yul\":8052:8170   */\n      pop\n      pop\n      jump\t// out\n        /* \"#utility.yul\":8176:8344   */\n    tag_64:\n        /* \"#utility.yul\":8259:8270   */\n      0x00\n        /* \"#utility.yul\":8293:8299   */\n      dup3\n        /* \"#utility.yul\":8288:8291   */\n      dup3\n        /* \"#utility.yul\":8281:8300   */\n      mstore\n        /* \"#utility.yul\":8333:8337   */\n      0x20\n        /* \"#utility.yul\":8328:8331   */\n      dup3\n        /* \"#utility.yul\":8324:8338   */\n      add\n        /* \"#utility.yul\":8309:8338   */\n      swap1\n      pop\n        /* \"#utility.yul\":8176:8344   */\n      swap3\n      swap2\n      pop\n      pop\n      jump\t// out\n        /* \"#utility.yul\":8350:8452   */\n    tag_65:\n        /* \"#utility.yul\":8391:8397   */\n      0x00\n        /* \"#utility.yul\":8442:8444   */\n      0x1f\n        /* \"#utility.yul\":8438:8445   */\n      not\n        /* \"#utility.yul\":8433:8435   */\n      0x1f\n        /* \"#utility.yul\":8426:8431   */\n      dup4\n        /* \"#utility.yul\":8422:8436   */\n      add\n        /* \"#utility.yul\":8418:8446   */\n      and\n        /* \"#utility.yul\":8408:8446   */\n      swap1\n      pop\n        /* \"#utility.yul\":8350:8452   */\n      swap2\n      swap1\n      pop\n      jump\t// out\n        /* \"#utility.yul\":8480:8794   */\n    tag_66:\n        /* \"#utility.yul\":8576:8579   */\n      0x00\n        /* \"#utility.yul\":8597:8667   */\n      tag_145\n        /* \"#utility.yul\":8660:8666   */\n      dup4\n        /* \"#utility.yul\":8655:8658   */\n      dup6\n        /* \"#utility.yul\":8597:8667   */\n      tag_64\n      jump\t// in\n    tag_145:\n        /* \"#utility.yul\":8590:8667   */\n      swap4\n      pop\n        /* \"#utility.yul\":8677:8733   */\n      tag_146\n        /* \"#utility.yul\":8726:8732   */\n      dup4\n        /* \"#utility.yul\":8721:8724   */\n      dup6\n        /* \"#utility.yul\":8714:8719   */\n      dup5\n        /* \"#utility.yul\":8677:8733   */\n      tag_59\n      jump\t// in\n    tag_146:\n        /* \"#utility.yul\":8758:8787   */\n      tag_147\n        /* \"#utility.yul\":8780:8786   */\n      dup4\n        /* \"#utility.yul\":8758:8787   */\n      tag_65\n      jump\t// in\n    tag_147:\n        /* \"#utility.yul\":8753:8756   */\n      dup5\n        /* \"#utility.yul\":8749:8788   */\n      add\n        /* \"#utility.yul\":8742:8788   */\n      swap1\n      pop\n        /* \"#utility.yul\":8480:8794   */\n      swap4\n      swap3\n      pop\n      pop\n      pop\n      jump\t// out\n        /* \"#utility.yul\":8800:9239   */\n    tag_39:\n        /* \"#utility.yul\":8949:8953   */\n      0x00\n        /* \"#utility.yul\":8987:8989   */\n      0x40\n        /* \"#utility.yul\":8976:8985   */\n      dup3\n        /* \"#utility.yul\":8972:8990   */\n      add\n        /* \"#utility.yul\":8964:8990   */\n      swap1\n      pop\n        /* \"#utility.yul\":9000:9071   */\n      tag_149\n        /* \"#utility.yul\":9068:9069   */\n      0x00\n        /* \"#utility.yul\":9057:9066   */\n      dup4\n        /* \"#utility.yul\":9053:9070   */\n      add\n        /* \"#utility.yul\":9044:9050   */\n      dup7\n        /* \"#utility.yul\":9000:9071   */\n      tag_63\n      jump\t// in\n    tag_149:\n        /* \"#utility.yul\":9118:9127   */\n      dup2\n        /* \"#utility.yul\":9112:9116   */\n      dup2\n        /* \"#utility.yul\":9108:9128   */\n      sub\n        /* \"#utility.yul\":9103:9105   */\n      0x20\n        /* \"#utility.yul\":9092:9101   */\n      dup4\n        /* \"#utility.yul\":9088:9106   */\n      add\n        /* \"#utility.yul\":9081:9129   */\n      mstore\n        /* \"#utility.yul\":9146:9232   */\n      tag_150\n        /* \"#utility.yul\":9227:9231   */\n      dup2\n        /* \"#utility.yul\":9218:9224   */\n      dup5\n        /* \"#utility.yul\":9210:9216   */\n      dup7\n        /* \"#utility.yul\":9146:9232   */\n      tag_66\n      jump\t// in\n    tag_150:\n        /* \"#utility.yul\":9138:9232   */\n      swap1\n      pop\n        /* \"#utility.yul\":8800:9239   */\n      swap5\n      swap4\n      pop\n      pop\n      pop\n      pop\n      jump\t// out\n\n    auxdata: 0xa2646970667358221220834c1bec8576b746fdcf8fe1ca0d6e55ef0323d76efeabecb9499a1dec82b42764736f6c634300081a0033\n}\n",
				"bytecode": {
					"linkReferences": {},
					"object": "6080604052348015600e575f80fd5b5061067d8061001c5f395ff3fe608060405234801561000f575f80fd5b5060043610610029575f3560e01c806318dfb3c71461002d575b5f80fd5b610047600480360381019061004291906102ea565b610049565b005b818190508484905014610091576040517f08c379a0000000000000000000000000000000000000000000000000000000008152600401610088906103c2565b60405180910390fd5b5f5b84849050811015610225575f8585838181106100b2576100b16103e0565b5b90506020020160208101906100c79190610467565b73ffffffffffffffffffffffffffffffffffffffff168484848181106100f0576100ef6103e0565b5b9050602002810190610102919061049e565b60405161011092919061053c565b5f604051808303815f865af19150503d805f8114610149576040519150601f19603f3d011682016040523d82523d5f602084013e61014e565b606091505b5050905080610192576040517f08c379a00000000000000000000000000000000000000000000000000000000081526004016101899061059e565b60405180910390fd5b7fd7d62979ae48a176c84f013982271cb0978ab8192f62cf045874ae8a1cf767fc8686848181106101c6576101c56103e0565b5b90506020020160208101906101db9190610467565b8585858181106101ee576101ed6103e0565b5b9050602002810190610200919061049e565b60405161020f93929190610617565b60405180910390a1508080600101915050610093565b5050505050565b5f80fd5b5f80fd5b5f80fd5b5f80fd5b5f80fd5b5f8083601f84011261025557610254610234565b5b8235905067ffffffffffffffff81111561027257610271610238565b5b60208301915083602082028301111561028e5761028d61023c565b5b9250929050565b5f8083601f8401126102aa576102a9610234565b5b8235905067ffffffffffffffff8111156102c7576102c6610238565b5b6020830191508360208202830111156102e3576102e261023c565b5b9250929050565b5f805f80604085870312156103025761030161022c565b5b5f85013567ffffffffffffffff81111561031f5761031e610230565b5b61032b87828801610240565b9450945050602085013567ffffffffffffffff81111561034e5761034d610230565b5b61035a87828801610295565b925092505092959194509250565b5f82825260208201905092915050565b7f4c656e677468206d69736d6174636800000000000000000000000000000000005f82015250565b5f6103ac600f83610368565b91506103b782610378565b602082019050919050565b5f6020820190508181035f8301526103d9816103a0565b9050919050565b7f4e487b71000000000000000000000000000000000000000000000000000000005f52603260045260245ffd5b5f73ffffffffffffffffffffffffffffffffffffffff82169050919050565b5f6104368261040d565b9050919050565b6104468161042c565b8114610450575f80fd5b50565b5f813590506104618161043d565b92915050565b5f6020828403121561047c5761047b61022c565b5b5f61048984828501610453565b91505092915050565b5f80fd5b5f80fd5b5f80fd5b5f80833560016020038436030381126104ba576104b9610492565b5b80840192508235915067ffffffffffffffff8211156104dc576104db610496565b5b6020830192506001820236038313156104f8576104f761049a565b5b509250929050565b5f81905092915050565b828183375f83830152505050565b5f6105238385610500565b935061053083858461050a565b82840190509392505050565b5f610548828486610518565b91508190509392505050565b7f53756263616c6c206661696c65640000000000000000000000000000000000005f82015250565b5f610588600e83610368565b915061059382610554565b602082019050919050565b5f6020820190508181035f8301526105b58161057c565b9050919050565b6105c58161042c565b82525050565b5f82825260208201905092915050565b5f601f19601f8301169050919050565b5f6105f683856105cb565b935061060383858461050a565b61060c836105db565b840190509392505050565b5f60408201905061062a5f8301866105bc565b818103602083015261063d8184866105eb565b905094935050505056fea2646970667358221220834c1bec8576b746fdcf8fe1ca0d6e55ef0323d76efeabecb9499a1dec82b42764736f6c634300081a0033",
					"opcodes": "PUSH1 0x80 PUSH1 0x40 MSTORE CALLVALUE DUP1 ISZERO PUSH1 0xE JUMPI PUSH0 DUP1 REVERT JUMPDEST POP PUSH2 0x67D DUP1 PUSH2 0x1C PUSH0 CODECOPY PUSH0 RETURN INVALID PUSH1 0x80 PUSH1 0x40 MSTORE CALLVALUE DUP1 ISZERO PUSH2 0xF JUMPI PUSH0 DUP1 REVERT JUMPDEST POP PUSH1 0x4 CALLDATASIZE LT PUSH2 0x29 JUMPI PUSH0 CALLDATALOAD PUSH1 0xE0 SHR DUP1 PUSH4 0x18DFB3C7 EQ PUSH2 0x2D JUMPI JUMPDEST PUSH0 DUP1 REVERT JUMPDEST PUSH2 0x47 PUSH1 0x4 DUP1 CALLDATASIZE SUB DUP2 ADD SWAP1 PUSH2 0x42 SWAP2 SWAP1 PUSH2 0x2EA JUMP JUMPDEST PUSH2 0x49 JUMP JUMPDEST STOP JUMPDEST DUP2 DUP2 SWAP1 POP DUP5 DUP5 SWAP1 POP EQ PUSH2 0x91 JUMPI PUSH1 0x40 MLOAD PUSH32 0x8C379A000000000000000000000000000000000000000000000000000000000 DUP2 MSTORE PUSH1 0x4 ADD PUSH2 0x88 SWAP1 PUSH2 0x3C2 JUMP JUMPDEST PUSH1 0x40 MLOAD DUP1 SWAP2 SUB SWAP1 REVERT JUMPDEST PUSH0 JUMPDEST DUP5 DUP5 SWAP1 POP DUP2 LT ISZERO PUSH2 0x225 JUMPI PUSH0 DUP6 DUP6 DUP4 DUP2 DUP2 LT PUSH2 0xB2 JUMPI PUSH2 0xB1 PUSH2 0x3E0 JUMP JUMPDEST JUMPDEST SWAP1 POP PUSH1 0x20 MUL ADD PUSH1 0x20 DUP2 ADD SWAP1 PUSH2 0xC7 SWAP2 SWAP1 PUSH2 0x467 JUMP JUMPDEST PUSH20 0xFFFFFFFFFFFFFFFFFFFFFFFFFFFFFFFFFFFFFFFF AND DUP5 DUP5 DUP5 DUP2 DUP2 LT PUSH2 0xF0 JUMPI PUSH2 0xEF PUSH2 0x3E0 JUMP JUMPDEST JUMPDEST SWAP1 POP PUSH1 0x20 MUL DUP2 ADD SWAP1 PUSH2 0x102 SWAP2 SWAP1 PUSH2 0x49E JUMP JUMPDEST PUSH1 0x40 MLOAD PUSH2 0x110 SWAP3 SWAP2 SWAP1 PUSH2 0x53C JUMP JUMPDEST PUSH0 PUSH1 0x40 MLOAD DUP1 DUP4 SUB DUP2 PUSH0 DUP7 GAS CALL SWAP2 POP POP RETURNDATASIZE DUP1 PUSH0 DUP2 EQ PUSH2 0x149 JUMPI PUSH1 0x40 MLOAD SWAP2 POP PUSH1 0x1F NOT PUSH1 0x3F RETURNDATASIZE ADD AND DUP3 ADD PUSH1 0x40 MSTORE RETURNDATASIZE DUP3 MSTORE RETURNDATASIZE PUSH0 PUSH1 0x20 DUP5 ADD RETURNDATACOPY PUSH2 0x14E JUMP JUMPDEST PUSH1 0x60 SWAP2 POP JUMPDEST POP POP SWAP1 POP DUP1 PUSH2 0x192 JUMPI PUSH1 0x40 MLOAD PUSH32 0x8C379A000000000000000000000000000000000000000000000000000000000 DUP2 MSTORE PUSH1 0x4 ADD PUSH2 0x189 SWAP1 PUSH2 0x59E JUMP JUMPDEST PUSH1 0x40 MLOAD DUP1 SWAP2 SUB SWAP1 REVERT JUMPDEST PUSH32 0xD7D62979AE48A176C84F013982271CB0978AB8192F62CF045874AE8A1CF767FC DUP7 DUP7 DUP5 DUP2 DUP2 LT PUSH2 0x1C6 JUMPI PUSH2 0x1C5 PUSH2 0x3E0 JUMP JUMPDEST JUMPDEST SWAP1 POP PUSH1 0x20 MUL ADD PUSH1 0x20 DUP2 ADD SWAP1 PUSH2 0x1DB SWAP2 SWAP1 PUSH2 0x467 JUMP JUMPDEST DUP6 DUP6 DUP6 DUP2 DUP2 LT PUSH2 0x1EE JUMPI PUSH2 0x1ED PUSH2 0x3E0 JUMP JUMPDEST JUMPDEST SWAP1 POP PUSH1 0x20 MUL DUP2 ADD SWAP1 PUSH2 0x200 SWAP2 SWAP1 PUSH2 0x49E JUMP JUMPDEST PUSH1 0x40 MLOAD PUSH2 0x20F SWAP4 SWAP3 SWAP2 SWAP1 PUSH2 0x617 JUMP JUMPDEST PUSH1 0x40 MLOAD DUP1 SWAP2 SUB SWAP1 LOG1 POP DUP1 DUP1 PUSH1 0x1 ADD SWAP2 POP POP PUSH2 0x93 JUMP JUMPDEST POP POP POP POP POP JUMP JUMPDEST PUSH0 DUP1 REVERT JUMPDEST PUSH0 DUP1 REVERT JUMPDEST PUSH0 DUP1 REVERT JUMPDEST PUSH0 DUP1 REVERT JUMPDEST PUSH0 DUP1 REVERT JUMPDEST PUSH0 DUP1 DUP4 PUSH1 0x1F DUP5 ADD SLT PUSH2 0x255 JUMPI PUSH2 0x254 PUSH2 0x234 JUMP JUMPDEST JUMPDEST DUP3 CALLDATALOAD SWAP1 POP PUSH8 0xFFFFFFFFFFFFFFFF DUP2 GT ISZERO PUSH2 0x272 JUMPI PUSH2 0x271 PUSH2 0x238 JUMP JUMPDEST JUMPDEST PUSH1 0x20 DUP4 ADD SWAP2 POP DUP4 PUSH1 0x20 DUP3 MUL DUP4 ADD GT ISZERO PUSH2 0x28E JUMPI PUSH2 0x28D PUSH2 0x23C JUMP JUMPDEST JUMPDEST SWAP3 POP SWAP3 SWAP1 POP JUMP JUMPDEST PUSH0 DUP1 DUP4 PUSH1 0x1F DUP5 ADD SLT PUSH2 0x2AA JUMPI PUSH2 0x2A9 PUSH2 0x234 JUMP JUMPDEST JUMPDEST DUP3 CALLDATALOAD SWAP1 POP PUSH8 0xFFFFFFFFFFFFFFFF DUP2 GT ISZERO PUSH2 0x2C7 JUMPI PUSH2 0x2C6 PUSH2 0x238 JUMP JUMPDEST JUMPDEST PUSH1 0x20 DUP4 ADD SWAP2 POP DUP4 PUSH1 0x20 DUP3 MUL DUP4 ADD GT ISZERO PUSH2 0x2E3 JUMPI PUSH2 0x2E2 PUSH2 0x23C JUMP JUMPDEST JUMPDEST SWAP3 POP SWAP3 SWAP1 POP JUMP JUMPDEST PUSH0 DUP1 PUSH0 DUP1 PUSH1 0x40 DUP6 DUP8 SUB SLT ISZERO PUSH2 0x302 JUMPI PUSH2 0x301 PUSH2 0x22C JUMP JUMPDEST JUMPDEST PUSH0 DUP6 ADD CALLDATALOAD PUSH8 0xFFFFFFFFFFFFFFFF DUP2 GT ISZERO PUSH2 0x31F JUMPI PUSH2 0x31E PUSH2 0x230 JUMP JUMPDEST JUMPDEST PUSH2 0x32B DUP8 DUP3 DUP9 ADD PUSH2 0x240 JUMP JUMPDEST SWAP5 POP SWAP5 POP POP PUSH1 0x20 DUP6 ADD CALLDATALOAD PUSH8 0xFFFFFFFFFFFFFFFF DUP2 GT ISZERO PUSH2 0x34E JUMPI PUSH2 0x34D PUSH2 0x230 JUMP JUMPDEST JUMPDEST PUSH2 0x35A DUP8 DUP3 DUP9 ADD PUSH2 0x295 JUMP JUMPDEST SWAP3 POP SWAP3 POP POP SWAP3 SWAP6 SWAP2 SWAP5 POP SWAP3 POP JUMP JUMPDEST PUSH0 DUP3 DUP3 MSTORE PUSH1 0x20 DUP3 ADD SWAP1 POP SWAP3 SWAP2 POP POP JUMP JUMPDEST PUSH32 0x4C656E677468206D69736D617463680000000000000000000000000000000000 PUSH0 DUP3 ADD MSTORE POP JUMP JUMPDEST PUSH0 PUSH2 0x3AC PUSH1 0xF DUP4 PUSH2 0x368 JUMP JUMPDEST SWAP2 POP PUSH2 0x3B7 DUP3 PUSH2 0x378 JUMP JUMPDEST PUSH1 0x20 DUP3 ADD SWAP1 POP SWAP2 SWAP1 POP JUMP JUMPDEST PUSH0 PUSH1 0x20 DUP3 ADD SWAP1 POP DUP2 DUP2 SUB PUSH0 DUP4 ADD MSTORE PUSH2 0x3D9 DUP2 PUSH2 0x3A0 JUMP JUMPDEST SWAP1 POP SWAP2 SWAP1 POP JUMP JUMPDEST PUSH32 0x4E487B7100000000000000000000000000000000000000000000000000000000 PUSH0 MSTORE PUSH1 0x32 PUSH1 0x4 MSTORE PUSH1 0x24 PUSH0 REVERT JUMPDEST PUSH0 PUSH20 0xFFFFFFFFFFFFFFFFFFFFFFFFFFFFFFFFFFFFFFFF DUP3 AND SWAP1 POP SWAP2 SWAP1 POP JUMP JUMPDEST PUSH0 PUSH2 0x436 DUP3 PUSH2 0x40D JUMP JUMPDEST SWAP1 POP SWAP2 SWAP1 POP JUMP JUMPDEST PUSH2 0x446 DUP2 PUSH2 0x42C JUMP JUMPDEST DUP2 EQ PUSH2 0x450 JUMPI PUSH0 DUP1 REVERT JUMPDEST POP JUMP JUMPDEST PUSH0 DUP2 CALLDATALOAD SWAP1 POP PUSH2 0x461 DUP2 PUSH2 0x43D JUMP JUMPDEST SWAP3 SWAP2 POP POP JUMP JUMPDEST PUSH0 PUSH1 0x20 DUP3 DUP5 SUB SLT ISZERO PUSH2 0x47C JUMPI PUSH2 0x47B PUSH2 0x22C JUMP JUMPDEST JUMPDEST PUSH0 PUSH2 0x489 DUP5 DUP3 DUP6 ADD PUSH2 0x453 JUMP JUMPDEST SWAP2 POP POP SWAP3 SWAP2 POP POP JUMP JUMPDEST PUSH0 DUP1 REVERT JUMPDEST PUSH0 DUP1 REVERT JUMPDEST PUSH0 DUP1 REVERT JUMPDEST PUSH0 DUP1 DUP4 CALLDATALOAD PUSH1 0x1 PUSH1 0x20 SUB DUP5 CALLDATASIZE SUB SUB DUP2 SLT PUSH2 0x4BA JUMPI PUSH2 0x4B9 PUSH2 0x492 JUMP JUMPDEST JUMPDEST DUP1 DUP5 ADD SWAP3 POP DUP3 CALLDATALOAD SWAP2 POP PUSH8 0xFFFFFFFFFFFFFFFF DUP3 GT ISZERO PUSH2 0x4DC JUMPI PUSH2 0x4DB PUSH2 0x496 JUMP JUMPDEST JUMPDEST PUSH1 0x20 DUP4 ADD SWAP3 POP PUSH1 0x1 DUP3 MUL CALLDATASIZE SUB DUP4 SGT ISZERO PUSH2 0x4F8 JUMPI PUSH2 0x4F7 PUSH2 0x49A JUMP JUMPDEST JUMPDEST POP SWAP3 POP SWAP3 SWAP1 POP JUMP JUMPDEST PUSH0 DUP2 SWAP1 POP SWAP3 SWAP2 POP POP JUMP JUMPDEST DUP3 DUP2 DUP4 CALLDATACOPY PUSH0 DUP4 DUP4 ADD MSTORE POP POP POP JUMP JUMPDEST PUSH0 PUSH2 0x523 DUP4 DUP6 PUSH2 0x500 JUMP JUMPDEST SWAP4 POP PUSH2 0x530 DUP4 DUP6 DUP5 PUSH2 0x50A JUMP JUMPDEST DUP3 DUP5 ADD SWAP1 POP SWAP4 SWAP3 POP POP POP JUMP JUMPDEST PUSH0 PUSH2 0x548 DUP3 DUP5 DUP7 PUSH2 0x518 JUMP JUMPDEST SWAP2 POP DUP2 SWAP1 POP SWAP4 SWAP3 POP POP POP JUMP JUMPDEST PUSH32 0x53756263616C6C206661696C6564000000000000000000000000000000000000 PUSH0 DUP3 ADD MSTORE POP JUMP JUMPDEST PUSH0 PUSH2 0x588 PUSH1 0xE DUP4 PUSH2 0x368 JUMP JUMPDEST SWAP2 POP PUSH2 0x593 DUP3 PUSH2 0x554 JUMP JUMPDEST PUSH1 0x20 DUP3 ADD SWAP1 POP SWAP2 SWAP1 POP JUMP JUMPDEST PUSH0 PUSH1 0x20 DUP3 ADD SWAP1 POP DUP2 DUP2 SUB PUSH0 DUP4 ADD MSTORE PUSH2 0x5B5 DUP2 PUSH2 0x57C JUMP JUMPDEST SWAP1 POP SWAP2 SWAP1 POP JUMP JUMPDEST PUSH2 0x5C5 DUP2 PUSH2 0x42C JUMP JUMPDEST DUP3 MSTORE POP POP JUMP JUMPDEST PUSH0 DUP3 DUP3 MSTORE PUSH1 0x20 DUP3 ADD SWAP1 POP SWAP3 SWAP2 POP POP JUMP JUMPDEST PUSH0 PUSH1 0x1F NOT PUSH1 0x1F DUP4 ADD AND SWAP1 POP SWAP2 SWAP1 POP JUMP JUMPDEST PUSH0 PUSH2 0x5F6 DUP4 DUP6 PUSH2 0x5CB JUMP JUMPDEST SWAP4 POP PUSH2 0x603 DUP4 DUP6 DUP5 PUSH2 0x50A JUMP JUMPDEST PUSH2 0x60C DUP4 PUSH2 0x5DB JUMP JUMPDEST DUP5 ADD SWAP1 POP SWAP4 SWAP3 POP POP POP JUMP JUMPDEST PUSH0 PUSH1 0x40 DUP3 ADD SWAP1 POP PUSH2 0x62A PUSH0 DUP4 ADD DUP7 PUSH2 0x5BC JUMP JUMPDEST DUP2 DUP2 SUB PUSH1 0x20 DUP4 ADD MSTORE PUSH2 0x63D DUP2 DUP5 DUP7 PUSH2 0x5EB JUMP JUMPDEST SWAP1 POP SWAP5 SWAP4 POP POP POP POP JUMP INVALID LOG2 PUSH5 0x6970667358 0x22 SLT KECCAK256 DUP4 0x4C SHL 0xEC DUP6 PUSH23 0xB746FDCF8FE1CA0D6E55EF0323D76EFEABECB9499A1DEC DUP3 0xB4 0x27 PUSH5 0x736F6C6343 STOP ADDMOD BYTE STOP CALLER "
				},
				"gasEstimates": {
					"creation": {
						"codeDepositCost": "332200",
						"executionCost": "366",
						"totalCost": "332566"
					},
					"external": {
						"executeBatch(address[],bytes[])": "infinite"
					}
				},
				"methodIdentifiers": {
					"executeBatch(address[],bytes[])": "18dfb3c7"
				}
			},
			"storageLayout": {
				"storage": [],
				"types": null
			},
			"userdoc": {
				"kind": "user",
				"methods": {},
				"version": 1
			}
		}
	}
}