{
	"data": {
		"bytecode": {
			"linkReferences": {},
			"object": "6080604052348015600e575f80fd5b5061028d8061001c5f395ff3fe608060405234801561000f575f80fd5b5060043610610034575f3560e01c8063460cafb314610038578063cbd87a6d14610054575b5f80fd5b610052600480360381019061004d9190610157565b610084565b005b61006e60048036038101906100699190610157565b6100f6565b60405161007b91906101a4565b60405180910390f35b5f808381526020019081526020015f2081908060018154018082558091505060019003905f5260205f20015f9091909190915055817fbd8f74e3a6916acfa72b164002e7a9ee0deb360a3a892b7293a662c4cb942c23825f6040516100ea929190610230565b60405180910390a25050565b5f602052815f5260405f20818154811061010e575f80fd5b905f5260205f20015f91509150505481565b5f80fd5b5f819050919050565b61013681610124565b8114610140575f80fd5b50565b5f813590506101518161012d565b92915050565b5f806040838503121561016d5761016c610120565b5b5f61017a85828601610143565b925050602061018b85828601610143565b9150509250929050565b61019e81610124565b82525050565b5f6020820190506101b75f830184610195565b92915050565b7f4e487b71000000000000000000000000000000000000000000000000000000005f52602160045260245ffd5b600481106101fb576101fa6101bd565b5b50565b5f81905061020b826101ea565b919050565b5f61021a826101fe565b9050919050565b61022a81610210565b82525050565b5f6040820190506102435f830185610195565b6102506020830184610221565b939250505056fea2646970667358221220871a28c1a4516e01b62e345b6fbbcfeebd416d93ede739aaab0d303f6f9d9fa064736f6c634300081a0033",
			"opcodes": "PUSH1 0x80 PUSH1 0x40 MSTORE CALLVALUE DUP1 ISZERO PUSH1 0xE JUMPI PUSH0 DUP1 REVERT JUMPDEST POP PUSH2 0x28D DUP1 PUSH2 0x1C PUSH0 CODECOPY PUSH0 RETURN INVALID PUSH1 0x80 PUSH1 0x40 MSTORE CALLVALUE DUP1 ISZERO PUSH2 0xF JUMPI PUSH0 DUP1 REVERT JUMPDEST POP PUSH1 0x4 CALLDATASIZE LT PUSH2 0x34 JUMPI PUSH0 CALLDATALOAD PUSH1 0xE0 SHR DUP1 PUSH4 0x460CAFB3 EQ PUSH2 0x38 JUMPI DUP1 PUSH4 0xCBD87A6D EQ PUSH2 0x54 JUMPI JUMPDEST PUSH0 DUP1 REVERT JUMPDEST PUSH2 0x52 PUSH1 0x4 DUP1 CALLDATASIZE SUB DUP2 ADD SWAP1 PUSH2 0x4D SWAP2 SWAP1 PUSH2 0x157 JUMP JUMPDEST PUSH2 0x84 JUMP JUMPDEST STOP JUMPDEST PUSH2 0x6E PUSH1 0x4 DUP1 CALLDATASIZE SUB DUP2 ADD SWAP1 PUSH2 0x69 SWAP2 SWAP1 PUSH2 0x157 JUMP JUMPDEST PUSH2 0xF6 JUMP JUMPDEST PUSH1 0x40 MLOAD PUSH2 0x7B SWAP2 SWAP1 PUSH2 0x1A4 JUMP JUMPDEST PUSH1 0x40 MLOAD DUP1 SWAP2 SUB SWAP1 RETURN JUMPDEST PUSH0 DUP1 DUP4 DUP2 MSTORE PUSH1 0x20 ADD SWAP1 DUP2 MSTORE PUSH1 0x20 ADD PUSH0 KECCAK256 DUP2 SWAP1 DUP1 PUSH1 0x1 DUP2 SLOAD ADD DUP1 DUP3 SSTORE DUP1 SWAP2 POP POP PUSH1 0x1 SWAP1 SUB SWAP1 PUSH0 MSTORE PUSH1 0x20 PUSH0 KECCAK256 ADD PUSH0 SWAP1 SWAP2 SWAP1 SWAP2 SWAP1 SWAP2 POP SSTORE DUP2 PUSH32 0xBD8F74E3A6916ACFA72B164002E7A9EE0DEB360A3A892B7293A662C4CB942C23 DUP3 PUSH0 PUSH1 0x40 MLOAD PUSH2 0xEA SWAP3 SWAP2 SWAP1 PUSH2 0x230 JUMP JUMPDEST PUSH1 0x40 MLOAD DUP1 SWAP2 SUB SWAP1 LOG2 POP POP JUMP JUMPDEST PUSH0 PUSH1 0x20 MSTORE DUP2 PUSH0 MSTORE PUSH1 0x40 PUSH0 KECCAK256 DUP2 DUP2 SLOAD DUP2 LT PUSH2 0x10E JUMPI PUSH0 DUP1 REVERT JUMPDEST SWAP1 PUSH0 MSTORE PUSH1 0x20 PUSH0 KECCAK256 ADD PUSH0 SWAP2 POP SWAP2 POP POP SLOAD DUP2 JUMP JUMPDEST PUSH0 DUP1 REVERT JUMPDEST PUSH0 DUP2 SWAP1 POP SWAP2 SWAP1 POP JUMP JUMPDEST PUSH2 0x136 DUP2 PUSH2 0x124 JUMP JUMPDEST DUP2 EQ PUSH2 0x140 JUMPI PUSH0 DUP1 REVERT JUMPDEST POP JUMP JUMPDEST PUSH0 DUP2 CALLDATALOAD SWAP1 POP PUSH2 0x151 DUP2 PUSH2 0x12D JUMP JUMPDEST SWAP3 SWAP2 POP POP JUMP JUMPDEST PUSH0 DUP1 PUSH1 0x40 DUP4 DUP6 SUB SLT ISZERO PUSH2 0x16D JUMPI PUSH2 0x16C PUSH2 0x120 JUMP JUMPDEST JUMPDEST PUSH0 PUSH2 0x17A DUP6 DUP3 DUP7 ADD PUSH2 0x143 JUMP JUMPDEST SWAP3 POP POP PUSH1 0x20 PUSH2 0x18B DUP6 DUP3 DUP7 ADD PUSH2 0x143 JUMP JUMPDEST SWAP2 POP POP SWAP3 POP SWAP3 SWAP1 POP JUMP JUMPDEST PUSH2 0x19E DUP2 PUSH2 0x124 JUMP JUMPDEST DUP3 MSTORE POP POP JUMP JUMPDEST PUSH0 PUSH1 0x20 DUP3 ADD SWAP1 POP PUSH2 0x1B7 PUSH0 DUP4 ADD DUP5 PUSH2 0x195 JUMP JUMPDEST SWAP3 SWAP2 POP POP JUMP JUMPDEST PUSH32 0x4E487B7100000000000000000000000000000000000000000000000000000000 PUSH0 MSTORE PUSH1 0x21 PUSH1 0x4 MSTORE PUSH1 0x24 PUSH0 REVERT JUMPDEST PUSH1 0x4 DUP2 LT PUSH2 0x1FB JUMPI PUSH2 0x1FA PUSH2 0x1BD JUMP JUMPDEST JUMPDEST POP JUMP JUMPDEST PUSH0 DUP2 SWAP1 POP PUSH2 0x20B DUP3 PUSH2 0x1EA JUMP JUMPDEST SWAP2 SWAP1 POP JUMP JUMPDEST PUSH0 PUSH2 0x21A DUP3 PUSH2 0x1FE JUMP JUMPDEST SWAP1 POP SWAP2 SWAP1 POP JUMP JUMPDEST PUSH2 0x22A DUP2 PUSH2 0x210 JUMP JUMPDEST DUP3 MSTORE POP POP JUMP JUMPDEST PUSH0 PUSH1 0x40 DUP3 ADD SWAP1 POP PUSH2 0x243 PUSH0 DUP4 ADD DUP6 PUSH2 0x195 JUMP JUMPDEST PUSH2 0x250 PUSH1 0x20 DUP4 ADD DUP5 PUSH2 0x221 JUMP JUMPDEST SWAP4 SWAP3 POP POP POP JUMP INVALID LOG2 PUSH5 0x6970667358 0x22 SLT KECCAK256 DUP8 BYTE 0x28 0xC1 LOG4 MLOAD PUSH15 0x1B62E345B6FBBCFEEBD416D93EDE7 CODECOPY 0xAA 0xAB 0xD ADDRESS EXTCODEHASH PUSH16 0x9D9FA064736F6C634300081A00330000 "
		},
		"gasEstimates": {
			"creation": {
				"codeDepositCost": "130600",
				"executionCost": "175",
				"totalCost": "130775"
			},
			"external": {
				"addData(uint256,uint256)": "infinite",
				"dataPoints(uint256,uint256)": "infinite"
			}
		},
		"methodIdentifiers": {
			"addData(uint256,uint256)": "460cafb3",
			"dataPoints(uint256,uint256)": "cbd87a6d"
		}
	},
	"abi": [
		{
			"anonymous": false,
			"inputs": [
				{
					"indexed": true,
					"internalType": "uint256",
					"name": "id",
					"type": "uint256"
				},
				{
					"indexed": false,
					"internalType": "uint256",
					"name": "value",
					"type": "uint256"
				},
				{
					"indexed": false,
					"internalType": "enum DataAggregationAttackType",
					"name": "attack",
					"type": "uint8"
				}
			],
			"name": "DataAdded",
			"type": "event"
		},
		{
			"inputs": [
				{
					"internalType": "uint256",
					"name": "id",
					"type": "uint256"
				},
				{
					"internalType": "uint256",
					"name": "value",
					"type": "uint256"
				}
			],
			"name": "addData",
			"outputs": [],
			"stateMutability": "nonpayable",
			"type": "function"
		},
		{
			"inputs": [
				{
					"internalType": "uint256",
					"name": "",
					"type": "uint256"
				},
				{
					"internalType": "uint256",
					"name": "",
					"type": "uint256"
				}
			],
			"name": "dataPoints",
			"outputs": [
				{
					"internalType": "uint256",
					"name": "",
					"type": "uint256"
				}
			],
			"stateMutability": "view",
			"type": "function"
		}
	]
}