{
	"data": {
		"bytecode": {
			"linkReferences": {},
			"object": "608060405234801561000f575f80fd5b5060015f60405161001f90610135565b90815260200160405180910390205f6101000a81548160ff02191690831515021790555060015f60405161005290610193565b90815260200160405180910390205f6101000a81548160ff02191690831515021790555060015f604051610085906101f1565b90815260200160405180910390205f6101000a81548160ff02191690831515021790555060015f6040516100b89061024f565b90815260200160405180910390205f6101000a81548160ff021916908315150217905550610263565b5f81905092915050565b7f55534400000000000000000000000000000000000000000000000000000000005f82015250565b5f61011f6003836100e1565b915061012a826100eb565b600382019050919050565b5f61013f82610113565b9150819050919050565b7f45555200000000000000000000000000000000000000000000000000000000005f82015250565b5f61017d6003836100e1565b915061018882610149565b600382019050919050565b5f61019d82610171565b9150819050919050565b7f42544300000000000000000000000000000000000000000000000000000000005f82015250565b5f6101db6003836100e1565b91506101e6826101a7565b600382019050919050565b5f6101fb826101cf565b9150819050919050565b7f45544800000000000000000000000000000000000000000000000000000000005f82015250565b5f6102396003836100e1565b915061024482610205565b600382019050919050565b5f6102598261022d565b9150819050919050565b610363806102705f395ff3fe608060405234801561000f575f80fd5b5060043610610034575f3560e01c80630d3320be146100385780633f52e72014610068575b5f80fd5b610052600480360381019061004d919061024b565b610098565b60405161005f91906102ac565b60405180910390f35b610082600480360381019061007d919061024b565b6100cc565b60405161008f91906102ac565b60405180910390f35b5f818051602081018201805184825260208301602085012081835280955050505050505f915054906101000a900460ff1681565b5f80826040516100dc9190610317565b90815260200160405180910390205f9054906101000a900460ff169050919050565b5f604051905090565b5f80fd5b5f80fd5b5f80fd5b5f80fd5b5f601f19601f8301169050919050565b7f4e487b71000000000000000000000000000000000000000000000000000000005f52604160045260245ffd5b61015d82610117565b810181811067ffffffffffffffff8211171561017c5761017b610127565b5b80604052505050565b5f61018e6100fe565b905061019a8282610154565b919050565b5f67ffffffffffffffff8211156101b9576101b8610127565b5b6101c282610117565b9050602081019050919050565b828183375f83830152505050565b5f6101ef6101ea8461019f565b610185565b90508281526020810184848401111561020b5761020a610113565b5b6102168482856101cf565b509392505050565b5f82601f8301126102325761023161010f565b5b81356102428482602086016101dd565b91505092915050565b5f602082840312156102605761025f610107565b5b5f82013567ffffffffffffffff81111561027d5761027c61010b565b5b6102898482850161021e565b91505092915050565b5f8115159050919050565b6102a681610292565b82525050565b5f6020820190506102bf5f83018461029d565b92915050565b5f81519050919050565b5f81905092915050565b8281835e5f83830152505050565b5f6102f1826102c5565b6102fb81856102cf565b935061030b8185602086016102d9565b80840191505092915050565b5f61032282846102e7565b91508190509291505056fea2646970667358221220f7eeb01b3c224089bdfe3adbd6ff8abae091b0eced288c0ba08b08ee4bb241ab64736f6c634300081a0033",
			"opcodes": "PUSH1 0x80 PUSH1 0x40 MSTORE CALLVALUE DUP1 ISZERO PUSH2 0xF JUMPI PUSH0 DUP1 REVERT JUMPDEST POP PUSH1 0x1 PUSH0 PUSH1 0x40 MLOAD PUSH2 0x1F SWAP1 PUSH2 0x135 JUMP JUMPDEST SWAP1 DUP2 MSTORE PUSH1 0x20 ADD PUSH1 0x40 MLOAD DUP1 SWAP2 SUB SWAP1 KECCAK256 PUSH0 PUSH2 0x100 EXP DUP2 SLOAD DUP2 PUSH1 0xFF MUL NOT AND SWAP1 DUP4 ISZERO ISZERO MUL OR SWAP1 SSTORE POP PUSH1 0x1 PUSH0 PUSH1 0x40 MLOAD PUSH2 0x52 SWAP1 PUSH2 0x193 JUMP JUMPDEST SWAP1 DUP2 MSTORE PUSH1 0x20 ADD PUSH1 0x40 MLOAD DUP1 SWAP2 SUB SWAP1 KECCAK256 PUSH0 PUSH2 0x100 EXP DUP2 SLOAD DUP2 PUSH1 0xFF MUL NOT AND SWAP1 DUP4 ISZERO ISZERO MUL OR SWAP1 SSTORE POP PUSH1 0x1 PUSH0 PUSH1 0x40 MLOAD PUSH2 0x85 SWAP1 PUSH2 0x1F1 JUMP JUMPDEST SWAP1 DUP2 MSTORE PUSH1 0x20 ADD PUSH1 0x40 MLOAD DUP1 SWAP2 SUB SWAP1 KECCAK256 PUSH0 PUSH2 0x100 EXP DUP2 SLOAD DUP2 PUSH1 0xFF MUL NOT AND SWAP1 DUP4 ISZERO ISZERO MUL OR SWAP1 SSTORE POP PUSH1 0x1 PUSH0 PUSH1 0x40 MLOAD PUSH2 0xB8 SWAP1 PUSH2 0x24F JUMP JUMPDEST SWAP1 DUP2 MSTORE PUSH1 0x20 ADD PUSH1 0x40 MLOAD DUP1 SWAP2 SUB SWAP1 KECCAK256 PUSH0 PUSH2 0x100 EXP DUP2 SLOAD DUP2 PUSH1 0xFF MUL NOT AND SWAP1 DUP4 ISZERO ISZERO MUL OR SWAP1 SSTORE POP PUSH2 0x263 JUMP JUMPDEST PUSH0 DUP2 SWAP1 POP SWAP3 SWAP2 POP POP JUMP JUMPDEST PUSH32 0x5553440000000000000000000000000000000000000000000000000000000000 PUSH0 DUP3 ADD MSTORE POP JUMP JUMPDEST PUSH0 PUSH2 0x11F PUSH1 0x3 DUP4 PUSH2 0xE1 JUMP JUMPDEST SWAP2 POP PUSH2 0x12A DUP3 PUSH2 0xEB JUMP JUMPDEST PUSH1 0x3 DUP3 ADD SWAP1 POP SWAP2 SWAP1 POP JUMP JUMPDEST PUSH0 PUSH2 0x13F DUP3 PUSH2 0x113 JUMP JUMPDEST SWAP2 POP DUP2 SWAP1 POP SWAP2 SWAP1 POP JUMP JUMPDEST PUSH32 0x4555520000000000000000000000000000000000000000000000000000000000 PUSH0 DUP3 ADD MSTORE POP JUMP JUMPDEST PUSH0 PUSH2 0x17D PUSH1 0x3 DUP4 PUSH2 0xE1 JUMP JUMPDEST SWAP2 POP PUSH2 0x188 DUP3 PUSH2 0x149 JUMP JUMPDEST PUSH1 0x3 DUP3 ADD SWAP1 POP SWAP2 SWAP1 POP JUMP JUMPDEST PUSH0 PUSH2 0x19D DUP3 PUSH2 0x171 JUMP JUMPDEST SWAP2 POP DUP2 SWAP1 POP SWAP2 SWAP1 POP JUMP JUMPDEST PUSH32 0x4254430000000000000000000000000000000000000000000000000000000000 PUSH0 DUP3 ADD MSTORE POP JUMP JUMPDEST PUSH0 PUSH2 0x1DB PUSH1 0x3 DUP4 PUSH2 0xE1 JUMP JUMPDEST SWAP2 POP PUSH2 0x1E6 DUP3 PUSH2 0x1A7 JUMP JUMPDEST PUSH1 0x3 DUP3 ADD SWAP1 POP SWAP2 SWAP1 POP JUMP JUMPDEST PUSH0 PUSH2 0x1FB DUP3 PUSH2 0x1CF JUMP JUMPDEST SWAP2 POP DUP2 SWAP1 POP SWAP2 SWAP1 POP JUMP JUMPDEST PUSH32 0x4554480000000000000000000000000000000000000000000000000000000000 PUSH0 DUP3 ADD MSTORE POP JUMP JUMPDEST PUSH0 PUSH2 0x239 PUSH1 0x3 DUP4 PUSH2 0xE1 JUMP JUMPDEST SWAP2 POP PUSH2 0x244 DUP3 PUSH2 0x205 JUMP JUMPDEST PUSH1 0x3 DUP3 ADD SWAP1 POP SWAP2 SWAP1 POP JUMP JUMPDEST PUSH0 PUSH2 0x259 DUP3 PUSH2 0x22D JUMP JUMPDEST SWAP2 POP DUP2 SWAP1 POP SWAP2 SWAP1 POP JUMP JUMPDEST PUSH2 0x363 DUP1 PUSH2 0x270 PUSH0 CODECOPY PUSH0 RETURN INVALID PUSH1 0x80 PUSH1 0x40 MSTORE CALLVALUE DUP1 ISZERO PUSH2 0xF JUMPI PUSH0 DUP1 REVERT JUMPDEST POP PUSH1 0x4 CALLDATASIZE LT PUSH2 0x34 JUMPI PUSH0 CALLDATALOAD PUSH1 0xE0 SHR DUP1 PUSH4 0xD3320BE EQ PUSH2 0x38 JUMPI DUP1 PUSH4 0x3F52E720 EQ PUSH2 0x68 JUMPI JUMPDEST PUSH0 DUP1 REVERT JUMPDEST PUSH2 0x52 PUSH1 0x4 DUP1 CALLDATASIZE SUB DUP2 ADD SWAP1 PUSH2 0x4D SWAP2 SWAP1 PUSH2 0x24B JUMP JUMPDEST PUSH2 0x98 JUMP JUMPDEST PUSH1 0x40 MLOAD PUSH2 0x5F SWAP2 SWAP1 PUSH2 0x2AC JUMP JUMPDEST PUSH1 0x40 MLOAD DUP1 SWAP2 SUB SWAP1 RETURN JUMPDEST PUSH2 0x82 PUSH1 0x4 DUP1 CALLDATASIZE SUB DUP2 ADD SWAP1 PUSH2 0x7D SWAP2 SWAP1 PUSH2 0x24B JUMP JUMPDEST PUSH2 0xCC JUMP JUMPDEST PUSH1 0x40 MLOAD PUSH2 0x8F SWAP2 SWAP1 PUSH2 0x2AC JUMP JUMPDEST PUSH1 0x40 MLOAD DUP1 SWAP2 SUB SWAP1 RETURN JUMPDEST PUSH0 DUP2 DUP1 MLOAD PUSH1 0x20 DUP2 ADD DUP3 ADD DUP1 MLOAD DUP5 DUP3 MSTORE PUSH1 0x20 DUP4 ADD PUSH1 0x20 DUP6 ADD KECCAK256 DUP2 DUP4 MSTORE DUP1 SWAP6 POP POP POP POP POP POP PUSH0 SWAP2 POP SLOAD SWAP1 PUSH2 0x100 EXP SWAP1 DIV PUSH1 0xFF AND DUP2 JUMP JUMPDEST PUSH0 DUP1 DUP3 PUSH1 0x40 MLOAD PUSH2 0xDC SWAP2 SWAP1 PUSH2 0x317 JUMP JUMPDEST SWAP1 DUP2 MSTORE PUSH1 0x20 ADD PUSH1 0x40 MLOAD DUP1 SWAP2 SUB SWAP1 KECCAK256 PUSH0 SWAP1 SLOAD SWAP1 PUSH2 0x100 EXP SWAP1 DIV PUSH1 0xFF AND SWAP1 POP SWAP2 SWAP1 POP JUMP JUMPDEST PUSH0 PUSH1 0x40 MLOAD SWAP1 POP SWAP1 JUMP JUMPDEST PUSH0 DUP1 REVERT JUMPDEST PUSH0 DUP1 REVERT JUMPDEST PUSH0 DUP1 REVERT JUMPDEST PUSH0 DUP1 REVERT JUMPDEST PUSH0 PUSH1 0x1F NOT PUSH1 0x1F DUP4 ADD AND SWAP1 POP SWAP2 SWAP1 POP JUMP JUMPDEST PUSH32 0x4E487B7100000000000000000000000000000000000000000000000000000000 PUSH0 MSTORE PUSH1 0x41 PUSH1 0x4 MSTORE PUSH1 0x24 PUSH0 REVERT JUMPDEST PUSH2 0x15D DUP3 PUSH2 0x117 JUMP JUMPDEST DUP2 ADD DUP2 DUP2 LT PUSH8 0xFFFFFFFFFFFFFFFF DUP3 GT OR ISZERO PUSH2 0x17C JUMPI PUSH2 0x17B PUSH2 0x127 JUMP JUMPDEST JUMPDEST DUP1 PUSH1 0x40 MSTORE POP POP POP JUMP JUMPDEST PUSH0 PUSH2 0x18E PUSH2 0xFE JUMP JUMPDEST SWAP1 POP PUSH2 0x19A DUP3 DUP3 PUSH2 0x154 JUMP JUMPDEST SWAP2 SWAP1 POP JUMP JUMPDEST PUSH0 PUSH8 0xFFFFFFFFFFFFFFFF DUP3 GT ISZERO PUSH2 0x1B9 JUMPI PUSH2 0x1B8 PUSH2 0x127 JUMP JUMPDEST JUMPDEST PUSH2 0x1C2 DUP3 PUSH2 0x117 JUMP JUMPDEST SWAP1 POP PUSH1 0x20 DUP2 ADD SWAP1 POP SWAP2 SWAP1 POP JUMP JUMPDEST DUP3 DUP2 DUP4 CALLDATACOPY PUSH0 DUP4 DUP4 ADD MSTORE POP POP POP JUMP JUMPDEST PUSH0 PUSH2 0x1EF PUSH2 0x1EA DUP5 PUSH2 0x19F JUMP JUMPDEST PUSH2 0x185 JUMP JUMPDEST SWAP1 POP DUP3 DUP2 MSTORE PUSH1 0x20 DUP2 ADD DUP5 DUP5 DUP5 ADD GT ISZERO PUSH2 0x20B JUMPI PUSH2 0x20A PUSH2 0x113 JUMP JUMPDEST JUMPDEST PUSH2 0x216 DUP5 DUP3 DUP6 PUSH2 0x1CF JUMP JUMPDEST POP SWAP4 SWAP3 POP POP POP JUMP JUMPDEST PUSH0 DUP3 PUSH1 0x1F DUP4 ADD SLT PUSH2 0x232 JUMPI PUSH2 0x231 PUSH2 0x10F JUMP JUMPDEST JUMPDEST DUP2 CALLDATALOAD PUSH2 0x242 DUP5 DUP3 PUSH1 0x20 DUP7 ADD PUSH2 0x1DD JUMP JUMPDEST SWAP2 POP POP SWAP3 SWAP2 POP POP JUMP JUMPDEST PUSH0 PUSH1 0x20 DUP3 DUP5 SUB SLT ISZERO PUSH2 0x260 JUMPI PUSH2 0x25F PUSH2 0x107 JUMP JUMPDEST JUMPDEST PUSH0 DUP3 ADD CALLDATALOAD PUSH8 0xFFFFFFFFFFFFFFFF DUP2 GT ISZERO PUSH2 0x27D JUMPI PUSH2 0x27C PUSH2 0x10B JUMP JUMPDEST JUMPDEST PUSH2 0x289 DUP5 DUP3 DUP6 ADD PUSH2 0x21E JUMP JUMPDEST SWAP2 POP POP SWAP3 SWAP2 POP POP JUMP JUMPDEST PUSH0 DUP2 ISZERO ISZERO SWAP1 POP SWAP2 SWAP1 POP JUMP JUMPDEST PUSH2 0x2A6 DUP2 PUSH2 0x292 JUMP JUMPDEST DUP3 MSTORE POP POP JUMP JUMPDEST PUSH0 PUSH1 0x20 DUP3 ADD SWAP1 POP PUSH2 0x2BF PUSH0 DUP4 ADD DUP5 PUSH2 0x29D JUMP JUMPDEST SWAP3 SWAP2 POP POP JUMP JUMPDEST PUSH0 DUP2 MLOAD SWAP1 POP SWAP2 SWAP1 POP JUMP JUMPDEST PUSH0 DUP2 SWAP1 POP SWAP3 SWAP2 POP POP JUMP JUMPDEST DUP3 DUP2 DUP4 MCOPY PUSH0 DUP4 DUP4 ADD MSTORE POP POP POP JUMP JUMPDEST PUSH0 PUSH2 0x2F1 DUP3 PUSH2 0x2C5 JUMP JUMPDEST PUSH2 0x2FB DUP2 DUP6 PUSH2 0x2CF JUMP JUMPDEST SWAP4 POP PUSH2 0x30B DUP2 DUP6 PUSH1 0x20 DUP7 ADD PUSH2 0x2D9 JUMP JUMPDEST DUP1 DUP5 ADD SWAP2 POP POP SWAP3 SWAP2 POP POP JUMP JUMPDEST PUSH0 PUSH2 0x322 DUP3 DUP5 PUSH2 0x2E7 JUMP JUMPDEST SWAP2 POP DUP2 SWAP1 POP SWAP3 SWAP2 POP POP JUMP INVALID LOG2 PUSH5 0x6970667358 0x22 SLT KECCAK256 0xF7 0xEE 0xB0 SHL EXTCODECOPY 0x22 BLOCKHASH DUP10 0xBD INVALID GASPRICE 0xDB 0xD6 SELFDESTRUCT DUP11 0xBA 0xE0 SWAP2 0xB0 0xEC 0xED 0x28 DUP13 SIGNEXTEND LOG0 DUP12 ADDMOD 0xEE 0x4B 0xB2 COINBASE 0xAB PUSH5 0x736F6C6343 STOP ADDMOD BYTE STOP CALLER "
		},
		"gasEstimates": {
			"creation": {
				"codeDepositCost": "173400",
				"executionCost": "infinite",
				"totalCost": "infinite"
			},
			"external": {
				"isValidCurrency(string)": "infinite",
				"supportedCurrency(string)": "infinite"
			}
		},
		"methodIdentifiers": {
			"isValidCurrency(string)": "3f52e720",
			"supportedCurrency(string)": "0d3320be"
		}
	},
	"abi": [
		{
			"inputs": [],
			"stateMutability": "nonpayable",
			"type": "constructor"
		},
		{
			"inputs": [
				{
					"internalType": "string",
					"name": "code",
					"type": "string"
				}
			],
			"name": "isValidCurrency",
			"outputs": [
				{
					"internalType": "bool",
					"name": "",
					"type": "bool"
				}
			],
			"stateMutability": "view",
			"type": "function"
		},
		{
			"inputs": [
				{
					"internalType": "string",
					"name": "",
					"type": "string"
				}
			],
			"name": "supportedCurrency",
			"outputs": [
				{
					"internalType": "bool",
					"name": "",
					"type": "bool"
				}
			],
			"stateMutability": "view",
			"type": "function"
		}
	]
}