{
	"B/bastion host/Firewall Gateway Contract.sol": {
		"FirewallGateway": {
			"abi": [
				{
					"inputs": [],
					"stateMutability": "nonpayable",
					"type": "constructor"
				},
				{
					"anonymous": false,
					"inputs": [
						{
							"indexed": true,
							"internalType": "address",
							"name": "gateway",
							"type": "address"
						}
					],
					"name": "GatewayApproved",
					"type": "event"
				},
				{
					"anonymous": false,
					"inputs": [
						{
							"indexed": true,
							"internalType": "address",
							"name": "gateway",
							"type": "address"
						}
					],
					"name": "GatewayRevoked",
					"type": "event"
				},
				{
					"anonymous": false,
					"inputs": [
						{
							"indexed": true,
							"internalType": "address",
							"name": "gateway",
							"type": "address"
						},
						{
							"indexed": false,
							"internalType": "string",
							"name": "message",
							"type": "string"
						}
					],
					"name": "ProtectedCall",
					"type": "event"
				},
				{
					"inputs": [
						{
							"internalType": "address",
							"name": "gateway",
							"type": "address"
						}
					],
					"name": "approveGateway",
					"outputs": [],
					"stateMutability": "nonpayable",
					"type": "function"
				},
				{
					"inputs": [
						{
							"internalType": "address",
							"name": "",
							"type": "address"
						}
					],
					"name": "approvedGateways",
					"outputs": [
						{
							"internalType": "bool",
							"name": "",
							"type": "bool"
						}
					],
					"stateMutability": "view",
					"type": "function"
				},
				{
					"inputs": [],
					"name": "owner",
					"outputs": [
						{
							"internalType": "address",
							"name": "",
							"type": "address"
						}
					],
					"stateMutability": "view",
					"type": "function"
				},
				{
					"inputs": [],
					"name": "protectedFunction",
					"outputs": [],
					"stateMutability": "nonpayable",
					"type": "function"
				},
				{
					"inputs": [
						{
							"internalType": "address",
							"name": "gateway",
							"type": "address"
						}
					],
					"name": "revokeGateway",
					"outputs": [],
					"stateMutability": "nonpayable",
					"type": "function"
				}
			],
			"devdoc": {
				"kind": "dev",
				"methods": {},
				"version": 1
			},
			"evm": {
				"assembly": "    /* \"B/bastion host/Firewall Gateway Contract.sol\":58:1113  contract FirewallGateway {... */\n  mstore(0x40, 0x80)\n    /* \"B/bastion host/Firewall Gateway Contract.sol\":340:389  constructor() {... */\n  callvalue\n  dup1\n  iszero\n  tag_1\n  jumpi\n  revert(0x00, 0x00)\ntag_1:\n  pop\n    /* \"B/bastion host/Firewall Gateway Contract.sol\":372:382  msg.sender */\n  caller\n    /* \"B/bastion host/Firewall Gateway Contract.sol\":364:369  owner */\n  0x01\n  0x00\n    /* \"B/bastion host/Firewall Gateway Contract.sol\":364:382  owner = msg.sender */\n  0x0100\n  exp\n  dup2\n  sload\n  dup2\n  0xffffffffffffffffffffffffffffffffffffffff\n  mul\n  not\n  and\n  swap1\n  dup4\n  0xffffffffffffffffffffffffffffffffffffffff\n  and\n  mul\n  or\n  swap1\n  sstore\n  pop\n    /* \"B/bastion host/Firewall Gateway Contract.sol\":58:1113  contract FirewallGateway {... */\n  dataSize(sub_0)\n  dup1\n  dataOffset(sub_0)\n  0x00\n  codecopy\n  0x00\n  return\nstop\n\nsub_0: assembly {\n        /* \"B/bastion host/Firewall Gateway Contract.sol\":58:1113  contract FirewallGateway {... */\n      mstore(0x40, 0x80)\n      callvalue\n      dup1\n      iszero\n      tag_1\n      jumpi\n      revert(0x00, 0x00)\n    tag_1:\n      pop\n      jumpi(tag_2, lt(calldatasize, 0x04))\n      shr(0xe0, calldataload(0x00))\n      dup1\n      0x021e9894\n      eq\n      tag_3\n      jumpi\n      dup1\n      0x05726659\n      eq\n      tag_4\n      jumpi\n      dup1\n      0x67e202ec\n      eq\n      tag_5\n      jumpi\n      dup1\n      0x8da5cb5b\n      eq\n      tag_6\n      jumpi\n      dup1\n      0x9b5477ed\n      eq\n      tag_7\n      jumpi\n    tag_2:\n      revert(0x00, 0x00)\n        /* \"B/bastion host/Firewall Gateway Contract.sol\":919:1111  function protectedFunction() public onlyGateway {... */\n    tag_3:\n      tag_8\n      tag_9\n      jump\t// in\n    tag_8:\n      stop\n        /* \"B/bastion host/Firewall Gateway Contract.sol\":89:137  mapping(address => bool) public approvedGateways */\n    tag_4:\n      tag_10\n      0x04\n      dup1\n      calldatasize\n      sub\n      dup2\n      add\n      swap1\n      tag_11\n      swap2\n      swap1\n      tag_12\n      jump\t// in\n    tag_11:\n      tag_13\n      jump\t// in\n    tag_10:\n      mload(0x40)\n      tag_14\n      swap2\n      swap1\n      tag_15\n      jump\t// in\n    tag_14:\n      mload(0x40)\n      dup1\n      swap2\n      sub\n      swap1\n      return\n        /* \"B/bastion host/Firewall Gateway Contract.sol\":616:762  function approveGateway(address gateway) public onlyOwner {... */\n    tag_5:\n      tag_16\n      0x04\n      dup1\n      calldatasize\n      sub\n      dup2\n      add\n      swap1\n      tag_17\n      swap2\n      swap1\n      tag_12\n      jump\t// in\n    tag_17:\n      tag_18\n      jump\t// in\n    tag_16:\n      stop\n        /* \"B/bastion host/Firewall Gateway Contract.sol\":143:163  address public owner */\n    tag_6:\n      tag_19\n      tag_20\n      jump\t// in\n    tag_19:\n      mload(0x40)\n      tag_21\n      swap2\n      swap1\n      tag_22\n      jump\t// in\n    tag_21:\n      mload(0x40)\n      dup1\n      swap2\n      sub\n      swap1\n      return\n        /* \"B/bastion host/Firewall Gateway Contract.sol\":768:913  function revokeGateway(address gateway) public onlyOwner {... */\n    tag_7:\n      tag_23\n      0x04\n      dup1\n      calldatasize\n      sub\n      dup2\n      add\n      swap1\n      tag_24\n      swap2\n      swap1\n      tag_12\n      jump\t// in\n    tag_24:\n      tag_25\n      jump\t// in\n    tag_23:\n      stop\n        /* \"B/bastion host/Firewall Gateway Contract.sol\":919:1111  function protectedFunction() public onlyGateway {... */\n    tag_9:\n        /* \"B/bastion host/Firewall Gateway Contract.sol\":536:552  approvedGateways */\n      0x00\n        /* \"B/bastion host/Firewall Gateway Contract.sol\":536:564  approvedGateways[msg.sender] */\n      0x00\n        /* \"B/bastion host/Firewall Gateway Contract.sol\":553:563  msg.sender */\n      caller\n        /* \"B/bastion host/Firewall Gateway Contract.sol\":536:564  approvedGateways[msg.sender] */\n      0xffffffffffffffffffffffffffffffffffffffff\n      and\n      0xffffffffffffffffffffffffffffffffffffffff\n      and\n      dup2\n      mstore\n      0x20\n      add\n      swap1\n      dup2\n      mstore\n      0x20\n      add\n      0x00\n      keccak256\n      0x00\n      swap1\n      sload\n      swap1\n      0x0100\n      exp\n      swap1\n      div\n      0xff\n      and\n        /* \"B/bastion host/Firewall Gateway Contract.sol\":528:592  require(approvedGateways[msg.sender], \"Not an approved gateway\") */\n      tag_27\n      jumpi\n      mload(0x40)\n      0x08c379a000000000000000000000000000000000000000000000000000000000\n      dup2\n      mstore\n      0x04\n      add\n      tag_28\n      swap1\n      tag_29\n      jump\t// in\n    tag_28:\n      mload(0x40)\n      dup1\n      swap2\n      sub\n      swap1\n      revert\n    tag_27:\n        /* \"B/bastion host/Firewall Gateway Contract.sol\":1053:1063  msg.sender */\n      caller\n        /* \"B/bastion host/Firewall Gateway Contract.sol\":1039:1104  ProtectedCall(msg.sender, \"Access granted to protected function\") */\n      0xffffffffffffffffffffffffffffffffffffffff\n      and\n      0x08e81b3284301b15e21f8fdbb43549cd7531d3b90433de785ea1012bbf86505b\n      mload(0x40)\n      tag_31\n      swap1\n      tag_32\n      jump\t// in\n    tag_31:\n      mload(0x40)\n      dup1\n      swap2\n      sub\n      swap1\n      log2\n        /* \"B/bastion host/Firewall Gateway Contract.sol\":919:1111  function protectedFunction() public onlyGateway {... */\n      jump\t// out\n        /* \"B/bastion host/Firewall Gateway Contract.sol\":89:137  mapping(address => bool) public approvedGateways */\n    tag_13:\n      mstore(0x20, 0x00)\n      dup1\n      0x00\n      mstore\n      keccak256(0x00, 0x40)\n      0x00\n      swap2\n      pop\n      sload\n      swap1\n      0x0100\n      exp\n      swap1\n      div\n      0xff\n      and\n      dup2\n      jump\t// out\n        /* \"B/bastion host/Firewall Gateway Contract.sol\":616:762  function approveGateway(address gateway) public onlyOwner {... */\n    tag_18:\n        /* \"B/bastion host/Firewall Gateway Contract.sol\":448:453  owner */\n      0x01\n      0x00\n      swap1\n      sload\n      swap1\n      0x0100\n      exp\n      swap1\n      div\n      0xffffffffffffffffffffffffffffffffffffffff\n      and\n        /* \"B/bastion host/Firewall Gateway Contract.sol\":434:453  msg.sender == owner */\n      0xffffffffffffffffffffffffffffffffffffffff\n      and\n        /* \"B/bastion host/Firewall Gateway Contract.sol\":434:444  msg.sender */\n      caller\n        /* \"B/bastion host/Firewall Gateway Contract.sol\":434:453  msg.sender == owner */\n      0xffffffffffffffffffffffffffffffffffffffff\n      and\n      eq\n        /* \"B/bastion host/Firewall Gateway Contract.sol\":426:471  require(msg.sender == owner, \"Not the owner\") */\n      tag_34\n      jumpi\n      mload(0x40)\n      0x08c379a000000000000000000000000000000000000000000000000000000000\n      dup2\n      mstore\n      0x04\n      add\n      tag_35\n      swap1\n      tag_36\n      jump\t// in\n    tag_35:\n      mload(0x40)\n      dup1\n      swap2\n      sub\n      swap1\n      revert\n    tag_34:\n        /* \"B/bastion host/Firewall Gateway Contract.sol\":712:716  true */\n      0x01\n        /* \"B/bastion host/Firewall Gateway Contract.sol\":684:700  approvedGateways */\n      0x00\n        /* \"B/bastion host/Firewall Gateway Contract.sol\":684:709  approvedGateways[gateway] */\n      0x00\n        /* \"B/bastion host/Firewall Gateway Contract.sol\":701:708  gateway */\n      dup4\n        /* \"B/bastion host/Firewall Gateway Contract.sol\":684:709  approvedGateways[gateway] */\n      0xffffffffffffffffffffffffffffffffffffffff\n      and\n      0xffffffffffffffffffffffffffffffffffffffff\n      and\n      dup2\n      mstore\n      0x20\n      add\n      swap1\n      dup2\n      mstore\n      0x20\n      add\n      0x00\n      keccak256\n      0x00\n        /* \"B/bastion host/Firewall Gateway Contract.sol\":684:716  approvedGateways[gateway] = true */\n      0x0100\n      exp\n      dup2\n      sload\n      dup2\n      0xff\n      mul\n      not\n      and\n      swap1\n      dup4\n      iszero\n      iszero\n      mul\n      or\n      swap1\n      sstore\n      pop\n        /* \"B/bastion host/Firewall Gateway Contract.sol\":747:754  gateway */\n      dup1\n        /* \"B/bastion host/Firewall Gateway Contract.sol\":731:755  GatewayApproved(gateway) */\n      0xffffffffffffffffffffffffffffffffffffffff\n      and\n      0x8dc99df335b6271591431a55a56600f5bb6268bbcbecdb3c0b6b0d2e59e623e4\n      mload(0x40)\n      mload(0x40)\n      dup1\n      swap2\n      sub\n      swap1\n      log2\n        /* \"B/bastion host/Firewall Gateway Contract.sol\":616:762  function approveGateway(address gateway) public onlyOwner {... */\n      pop\n      jump\t// out\n        /* \"B/bastion host/Firewall Gateway Contract.sol\":143:163  address public owner */\n    tag_20:\n      0x01\n      0x00\n      swap1\n      sload\n      swap1\n      0x0100\n      exp\n      swap1\n      div\n      0xffffffffffffffffffffffffffffffffffffffff\n      and\n      dup2\n      jump\t// out\n        /* \"B/bastion host/Firewall Gateway Contract.sol\":768:913  function revokeGateway(address gateway) public onlyOwner {... */\n    tag_25:\n        /* \"B/bastion host/Firewall Gateway Contract.sol\":448:453  owner */\n      0x01\n      0x00\n      swap1\n      sload\n      swap1\n      0x0100\n      exp\n      swap1\n      div\n      0xffffffffffffffffffffffffffffffffffffffff\n      and\n        /* \"B/bastion host/Firewall Gateway Contract.sol\":434:453  msg.sender == owner */\n      0xffffffffffffffffffffffffffffffffffffffff\n      and\n        /* \"B/bastion host/Firewall Gateway Contract.sol\":434:444  msg.sender */\n      caller\n        /* \"B/bastion host/Firewall Gateway Contract.sol\":434:453  msg.sender == owner */\n      0xffffffffffffffffffffffffffffffffffffffff\n      and\n      eq\n        /* \"B/bastion host/Firewall Gateway Contract.sol\":426:471  require(msg.sender == owner, \"Not the owner\") */\n      tag_39\n      jumpi\n      mload(0x40)\n      0x08c379a000000000000000000000000000000000000000000000000000000000\n      dup2\n      mstore\n      0x04\n      add\n      tag_40\n      swap1\n      tag_36\n      jump\t// in\n    tag_40:\n      mload(0x40)\n      dup1\n      swap2\n      sub\n      swap1\n      revert\n    tag_39:\n        /* \"B/bastion host/Firewall Gateway Contract.sol\":863:868  false */\n      0x00\n        /* \"B/bastion host/Firewall Gateway Contract.sol\":835:851  approvedGateways */\n      0x00\n        /* \"B/bastion host/Firewall Gateway Contract.sol\":835:860  approvedGateways[gateway] */\n      0x00\n        /* \"B/bastion host/Firewall Gateway Contract.sol\":852:859  gateway */\n      dup4\n        /* \"B/bastion host/Firewall Gateway Contract.sol\":835:860  approvedGateways[gateway] */\n      0xffffffffffffffffffffffffffffffffffffffff\n      and\n      0xffffffffffffffffffffffffffffffffffffffff\n      and\n      dup2\n      mstore\n      0x20\n      add\n      swap1\n      dup2\n      mstore\n      0x20\n      add\n      0x00\n      keccak256\n      0x00\n        /* \"B/bastion host/Firewall Gateway Contract.sol\":835:868  approvedGateways[gateway] = false */\n      0x0100\n      exp\n      dup2\n      sload\n      dup2\n      0xff\n      mul\n      not\n      and\n      swap1\n      dup4\n      iszero\n      iszero\n      mul\n      or\n      swap1\n      sstore\n      pop\n        /* \"B/bastion host/Firewall Gateway Contract.sol\":898:905  gateway */\n      dup1\n        /* \"B/bastion host/Firewall Gateway Contract.sol\":883:906  GatewayRevoked(gateway) */\n      0xffffffffffffffffffffffffffffffffffffffff\n      and\n      0x3ab01fe5356cd9e5f966e94c7294a3a850b8e1c1b8f62e7293c3ea6a402309ca\n      mload(0x40)\n      mload(0x40)\n      dup1\n      swap2\n      sub\n      swap1\n      log2\n        /* \"B/bastion host/Firewall Gateway Contract.sol\":768:913  function revokeGateway(address gateway) public onlyOwner {... */\n      pop\n      jump\t// out\n        /* \"#utility.yul\":88:205   */\n    tag_43:\n        /* \"#utility.yul\":197:198   */\n      0x00\n        /* \"#utility.yul\":194:195   */\n      0x00\n        /* \"#utility.yul\":187:199   */\n      revert\n        /* \"#utility.yul\":334:460   */\n    tag_45:\n        /* \"#utility.yul\":371:378   */\n      0x00\n        /* \"#utility.yul\":411:453   */\n      0xffffffffffffffffffffffffffffffffffffffff\n        /* \"#utility.yul\":404:409   */\n      dup3\n        /* \"#utility.yul\":400:454   */\n      and\n        /* \"#utility.yul\":389:454   */\n      swap1\n      pop\n        /* \"#utility.yul\":334:460   */\n      swap2\n      swap1\n      pop\n      jump\t// out\n        /* \"#utility.yul\":466:562   */\n    tag_46:\n        /* \"#utility.yul\":503:510   */\n      0x00\n        /* \"#utility.yul\":532:556   */\n      tag_65\n        /* \"#utility.yul\":550:555   */\n      dup3\n        /* \"#utility.yul\":532:556   */\n      tag_45\n      jump\t// in\n    tag_65:\n        /* \"#utility.yul\":521:556   */\n      swap1\n      pop\n        /* \"#utility.yul\":466:562   */\n      swap2\n      swap1\n      pop\n      jump\t// out\n        /* \"#utility.yul\":568:690   */\n    tag_47:\n        /* \"#utility.yul\":641:665   */\n      tag_67\n        /* \"#utility.yul\":659:664   */\n      dup2\n        /* \"#utility.yul\":641:665   */\n      tag_46\n      jump\t// in\n    tag_67:\n        /* \"#utility.yul\":634:639   */\n      dup2\n        /* \"#utility.yul\":631:666   */\n      eq\n        /* \"#utility.yul\":621:684   */\n      tag_68\n      jumpi\n        /* \"#utility.yul\":680:681   */\n      0x00\n        /* \"#utility.yul\":677:678   */\n      0x00\n        /* \"#utility.yul\":670:682   */\n      revert\n        /* \"#utility.yul\":621:684   */\n    tag_68:\n        /* \"#utility.yul\":568:690   */\n      pop\n      jump\t// out\n        /* \"#utility.yul\":696:835   */\n    tag_48:\n        /* \"#utility.yul\":742:747   */\n      0x00\n        /* \"#utility.yul\":780:786   */\n      dup2\n        /* \"#utility.yul\":767:787   */\n      calldataload\n        /* \"#utility.yul\":758:787   */\n      swap1\n      pop\n        /* \"#utility.yul\":796:829   */\n      tag_70\n        /* \"#utility.yul\":823:828   */\n      dup2\n        /* \"#utility.yul\":796:829   */\n      tag_47\n      jump\t// in\n    tag_70:\n        /* \"#utility.yul\":696:835   */\n      swap3\n      swap2\n      pop\n      pop\n      jump\t// out\n        /* \"#utility.yul\":841:1170   */\n    tag_12:\n        /* \"#utility.yul\":900:906   */\n      0x00\n        /* \"#utility.yul\":949:951   */\n      0x20\n        /* \"#utility.yul\":937:946   */\n      dup3\n        /* \"#utility.yul\":928:935   */\n      dup5\n        /* \"#utility.yul\":924:947   */\n      sub\n        /* \"#utility.yul\":920:952   */\n      slt\n        /* \"#utility.yul\":917:1036   */\n      iszero\n      tag_72\n      jumpi\n        /* \"#utility.yul\":955:1034   */\n      tag_73\n      tag_43\n      jump\t// in\n    tag_73:\n        /* \"#utility.yul\":917:1036   */\n    tag_72:\n        /* \"#utility.yul\":1075:1076   */\n      0x00\n        /* \"#utility.yul\":1100:1153   */\n      tag_74\n        /* \"#utility.yul\":1145:1152   */\n      dup5\n        /* \"#utility.yul\":1136:1142   */\n      dup3\n        /* \"#utility.yul\":1125:1134   */\n      dup6\n        /* \"#utility.yul\":1121:1143   */\n      add\n        /* \"#utility.yul\":1100:1153   */\n      tag_48\n      jump\t// in\n    tag_74:\n        /* \"#utility.yul\":1090:1153   */\n      swap2\n      pop\n        /* \"#utility.yul\":1046:1163   */\n      pop\n        /* \"#utility.yul\":841:1170   */\n      swap3\n      swap2\n      pop\n      pop\n      jump\t// out\n        /* \"#utility.yul\":1176:1266   */\n    tag_49:\n        /* \"#utility.yul\":1210:1217   */\n      0x00\n        /* \"#utility.yul\":1253:1258   */\n      dup2\n        /* \"#utility.yul\":1246:1259   */\n      iszero\n        /* \"#utility.yul\":1239:1260   */\n      iszero\n        /* \"#utility.yul\":1228:1260   */\n      swap1\n      pop\n        /* \"#utility.yul\":1176:1266   */\n      swap2\n      swap1\n      pop\n      jump\t// out\n        /* \"#utility.yul\":1272:1381   */\n    tag_50:\n        /* \"#utility.yul\":1353:1374   */\n      tag_77\n        /* \"#utility.yul\":1368:1373   */\n      dup2\n        /* \"#utility.yul\":1353:1374   */\n      tag_49\n      jump\t// in\n    tag_77:\n        /* \"#utility.yul\":1348:1351   */\n      dup3\n        /* \"#utility.yul\":1341:1375   */\n      mstore\n        /* \"#utility.yul\":1272:1381   */\n      pop\n      pop\n      jump\t// out\n        /* \"#utility.yul\":1387:1597   */\n    tag_15:\n        /* \"#utility.yul\":1474:1478   */\n      0x00\n        /* \"#utility.yul\":1512:1514   */\n      0x20\n        /* \"#utility.yul\":1501:1510   */\n      dup3\n        /* \"#utility.yul\":1497:1515   */\n      add\n        /* \"#utility.yul\":1489:1515   */\n      swap1\n      pop\n        /* \"#utility.yul\":1525:1590   */\n      tag_79\n        /* \"#utility.yul\":1587:1588   */\n      0x00\n        /* \"#utility.yul\":1576:1585   */\n      dup4\n        /* \"#utility.yul\":1572:1589   */\n      add\n        /* \"#utility.yul\":1563:1569   */\n      dup5\n        /* \"#utility.yul\":1525:1590   */\n      tag_50\n      jump\t// in\n    tag_79:\n        /* \"#utility.yul\":1387:1597   */\n      swap3\n      swap2\n      pop\n      pop\n      jump\t// out\n        /* \"#utility.yul\":1603:1721   */\n    tag_51:\n        /* \"#utility.yul\":1690:1714   */\n      tag_81\n        /* \"#utility.yul\":1708:1713   */\n      dup2\n        /* \"#utility.yul\":1690:1714   */\n      tag_46\n      jump\t// in\n    tag_81:\n        /* \"#utility.yul\":1685:1688   */\n      dup3\n        /* \"#utility.yul\":1678:1715   */\n      mstore\n        /* \"#utility.yul\":1603:1721   */\n      pop\n      pop\n      jump\t// out\n        /* \"#utility.yul\":1727:1949   */\n    tag_22:\n        /* \"#utility.yul\":1820:1824   */\n      0x00\n        /* \"#utility.yul\":1858:1860   */\n      0x20\n        /* \"#utility.yul\":1847:1856   */\n      dup3\n        /* \"#utility.yul\":1843:1861   */\n      add\n        /* \"#utility.yul\":1835:1861   */\n      swap1\n      pop\n        /* \"#utility.yul\":1871:1942   */\n      tag_83\n        /* \"#utility.yul\":1939:1940   */\n      0x00\n        /* \"#utility.yul\":1928:1937   */\n      dup4\n        /* \"#utility.yul\":1924:1941   */\n      add\n        /* \"#utility.yul\":1915:1921   */\n      dup5\n        /* \"#utility.yul\":1871:1942   */\n      tag_51\n      jump\t// in\n    tag_83:\n        /* \"#utility.yul\":1727:1949   */\n      swap3\n      swap2\n      pop\n      pop\n      jump\t// out\n        /* \"#utility.yul\":1955:2124   */\n    tag_52:\n        /* \"#utility.yul\":2039:2050   */\n      0x00\n        /* \"#utility.yul\":2073:2079   */\n      dup3\n        /* \"#utility.yul\":2068:2071   */\n      dup3\n        /* \"#utility.yul\":2061:2080   */\n      mstore\n        /* \"#utility.yul\":2113:2117   */\n      0x20\n        /* \"#utility.yul\":2108:2111   */\n      dup3\n        /* \"#utility.yul\":2104:2118   */\n      add\n        /* \"#utility.yul\":2089:2118   */\n      swap1\n      pop\n        /* \"#utility.yul\":1955:2124   */\n      swap3\n      swap2\n      pop\n      pop\n      jump\t// out\n        /* \"#utility.yul\":2130:2303   */\n    tag_53:\n        /* \"#utility.yul\":2270:2295   */\n      0x4e6f7420616e20617070726f7665642067617465776179000000000000000000\n        /* \"#utility.yul\":2266:2267   */\n      0x00\n        /* \"#utility.yul\":2258:2264   */\n      dup3\n        /* \"#utility.yul\":2254:2268   */\n      add\n        /* \"#utility.yul\":2247:2296   */\n      mstore\n        /* \"#utility.yul\":2130:2303   */\n      pop\n      jump\t// out\n        /* \"#utility.yul\":2309:2675   */\n    tag_54:\n        /* \"#utility.yul\":2451:2454   */\n      0x00\n        /* \"#utility.yul\":2472:2539   */\n      tag_87\n        /* \"#utility.yul\":2536:2538   */\n      0x17\n        /* \"#utility.yul\":2531:2534   */\n      dup4\n        /* \"#utility.yul\":2472:2539   */\n      tag_52\n      jump\t// in\n    tag_87:\n        /* \"#utility.yul\":2465:2539   */\n      swap2\n      pop\n        /* \"#utility.yul\":2548:2641   */\n      tag_88\n        /* \"#utility.yul\":2637:2640   */\n      dup3\n        /* \"#utility.yul\":2548:2641   */\n      tag_53\n      jump\t// in\n    tag_88:\n        /* \"#utility.yul\":2666:2668   */\n      0x20\n        /* \"#utility.yul\":2661:2664   */\n      dup3\n        /* \"#utility.yul\":2657:2669   */\n      add\n        /* \"#utility.yul\":2650:2669   */\n      swap1\n      pop\n        /* \"#utility.yul\":2309:2675   */\n      swap2\n      swap1\n      pop\n      jump\t// out\n        /* \"#utility.yul\":2681:3100   */\n    tag_29:\n        /* \"#utility.yul\":2847:2851   */\n      0x00\n        /* \"#utility.yul\":2885:2887   */\n      0x20\n        /* \"#utility.yul\":2874:2883   */\n      dup3\n        /* \"#utility.yul\":2870:2888   */\n      add\n        /* \"#utility.yul\":2862:2888   */\n      swap1\n      pop\n        /* \"#utility.yul\":2934:2943   */\n      dup2\n        /* \"#utility.yul\":2928:2932   */\n      dup2\n        /* \"#utility.yul\":2924:2944   */\n      sub\n        /* \"#utility.yul\":2920:2921   */\n      0x00\n        /* \"#utility.yul\":2909:2918   */\n      dup4\n        /* \"#utility.yul\":2905:2922   */\n      add\n        /* \"#utility.yul\":2898:2945   */\n      mstore\n        /* \"#utility.yul\":2962:3093   */\n      tag_90\n        /* \"#utility.yul\":3088:3092   */\n      dup2\n        /* \"#utility.yul\":2962:3093   */\n      tag_54\n      jump\t// in\n    tag_90:\n        /* \"#utility.yul\":2954:3093   */\n      swap1\n      pop\n        /* \"#utility.yul\":2681:3100   */\n      swap2\n      swap1\n      pop\n      jump\t// out\n        /* \"#utility.yul\":3106:3329   */\n    tag_55:\n        /* \"#utility.yul\":3246:3280   */\n      0x416363657373206772616e74656420746f2070726f7465637465642066756e63\n        /* \"#utility.yul\":3242:3243   */\n      0x00\n        /* \"#utility.yul\":3234:3240   */\n      dup3\n        /* \"#utility.yul\":3230:3244   */\n      add\n        /* \"#utility.yul\":3223:3281   */\n      mstore\n        /* \"#utility.yul\":3315:3321   */\n      0x74696f6e00000000000000000000000000000000000000000000000000000000\n        /* \"#utility.yul\":3310:3312   */\n      0x20\n        /* \"#utility.yul\":3302:3308   */\n      dup3\n        /* \"#utility.yul\":3298:3313   */\n      add\n        /* \"#utility.yul\":3291:3322   */\n      mstore\n        /* \"#utility.yul\":3106:3329   */\n      pop\n      jump\t// out\n        /* \"#utility.yul\":3335:3701   */\n    tag_56:\n        /* \"#utility.yul\":3477:3480   */\n      0x00\n        /* \"#utility.yul\":3498:3565   */\n      tag_93\n        /* \"#utility.yul\":3562:3564   */\n      0x24\n        /* \"#utility.yul\":3557:3560   */\n      dup4\n        /* \"#utility.yul\":3498:3565   */\n      tag_52\n      jump\t// in\n    tag_93:\n        /* \"#utility.yul\":3491:3565   */\n      swap2\n      pop\n        /* \"#utility.yul\":3574:3667   */\n      tag_94\n        /* \"#utility.yul\":3663:3666   */\n      dup3\n        /* \"#utility.yul\":3574:3667   */\n      tag_55\n      jump\t// in\n    tag_94:\n        /* \"#utility.yul\":3692:3694   */\n      0x40\n        /* \"#utility.yul\":3687:3690   */\n      dup3\n        /* \"#utility.yul\":3683:3695   */\n      add\n        /* \"#utility.yul\":3676:3695   */\n      swap1\n      pop\n        /* \"#utility.yul\":3335:3701   */\n      swap2\n      swap1\n      pop\n      jump\t// out\n        /* \"#utility.yul\":3707:4126   */\n    tag_32:\n        /* \"#utility.yul\":3873:3877   */\n      0x00\n        /* \"#utility.yul\":3911:3913   */\n      0x20\n        /* \"#utility.yul\":3900:3909   */\n      dup3\n        /* \"#utility.yul\":3896:3914   */\n      add\n        /* \"#utility.yul\":3888:3914   */\n      swap1\n      pop\n        /* \"#utility.yul\":3960:3969   */\n      dup2\n        /* \"#utility.yul\":3954:3958   */\n      dup2\n        /* \"#utility.yul\":3950:3970   */\n      sub\n        /* \"#utility.yul\":3946:3947   */\n      0x00\n        /* \"#utility.yul\":3935:3944   */\n      dup4\n        /* \"#utility.yul\":3931:3948   */\n      add\n        /* \"#utility.yul\":3924:3971   */\n      mstore\n        /* \"#utility.yul\":3988:4119   */\n      tag_96\n        /* \"#utility.yul\":4114:4118   */\n      dup2\n        /* \"#utility.yul\":3988:4119   */\n      tag_56\n      jump\t// in\n    tag_96:\n        /* \"#utility.yul\":3980:4119   */\n      swap1\n      pop\n        /* \"#utility.yul\":3707:4126   */\n      swap2\n      swap1\n      pop\n      jump\t// out\n        /* \"#utility.yul\":4132:4295   */\n    tag_57:\n        /* \"#utility.yul\":4272:4287   */\n      0x4e6f7420746865206f776e657200000000000000000000000000000000000000\n        /* \"#utility.yul\":4268:4269   */\n      0x00\n        /* \"#utility.yul\":4260:4266   */\n      dup3\n        /* \"#utility.yul\":4256:4270   */\n      add\n        /* \"#utility.yul\":4249:4288   */\n      mstore\n        /* \"#utility.yul\":4132:4295   */\n      pop\n      jump\t// out\n        /* \"#utility.yul\":4301:4667   */\n    tag_58:\n        /* \"#utility.yul\":4443:4446   */\n      0x00\n        /* \"#utility.yul\":4464:4531   */\n      tag_99\n        /* \"#utility.yul\":4528:4530   */\n      0x0d\n        /* \"#utility.yul\":4523:4526   */\n      dup4\n        /* \"#utility.yul\":4464:4531   */\n      tag_52\n      jump\t// in\n    tag_99:\n        /* \"#utility.yul\":4457:4531   */\n      swap2\n      pop\n        /* \"#utility.yul\":4540:4633   */\n      tag_100\n        /* \"#utility.yul\":4629:4632   */\n      dup3\n        /* \"#utility.yul\":4540:4633   */\n      tag_57\n      jump\t// in\n    tag_100:\n        /* \"#utility.yul\":4658:4660   */\n      0x20\n        /* \"#utility.yul\":4653:4656   */\n      dup3\n        /* \"#utility.yul\":4649:4661   */\n      add\n        /* \"#utility.yul\":4642:4661   */\n      swap1\n      pop\n        /* \"#utility.yul\":4301:4667   */\n      swap2\n      swap1\n      pop\n      jump\t// out\n        /* \"#utility.yul\":4673:5092   */\n    tag_36:\n        /* \"#utility.yul\":4839:4843   */\n      0x00\n        /* \"#utility.yul\":4877:4879   */\n      0x20\n        /* \"#utility.yul\":4866:4875   */\n      dup3\n        /* \"#utility.yul\":4862:4880   */\n      add\n        /* \"#utility.yul\":4854:4880   */\n      swap1\n      pop\n        /* \"#utility.yul\":4926:4935   */\n      dup2\n        /* \"#utility.yul\":4920:4924   */\n      dup2\n        /* \"#utility.yul\":4916:4936   */\n      sub\n        /* \"#utility.yul\":4912:4913   */\n      0x00\n        /* \"#utility.yul\":4901:4910   */\n      dup4\n        /* \"#utility.yul\":4897:4914   */\n      add\n        /* \"#utility.yul\":4890:4937   */\n      mstore\n        /* \"#utility.yul\":4954:5085   */\n      tag_102\n        /* \"#utility.yul\":5080:5084   */\n      dup2\n        /* \"#utility.yul\":4954:5085   */\n      tag_58\n      jump\t// in\n    tag_102:\n        /* \"#utility.yul\":4946:5085   */\n      swap1\n      pop\n        /* \"#utility.yul\":4673:5092   */\n      swap2\n      swap1\n      pop\n      jump\t// out\n\n    auxdata: 0xa26469706673582212209a71ee2df2f599cf3d683fb096c1493b35c21ec841c98a0eb7288504acc31b2464736f6c634300081d0033\n}\n",
				"bytecode": {
					"linkReferences": {},
					"object": "6080604052348015600e575f5ffd5b503360015f6101000a81548173ffffffffffffffffffffffffffffffffffffffff021916908373ffffffffffffffffffffffffffffffffffffffff1602179055506106d98061005c5f395ff3fe608060405234801561000f575f5ffd5b5060043610610055575f3560e01c8063021e989414610059578063057266591461006357806367e202ec146100935780638da5cb5b146100af5780639b5477ed146100cd575b5f5ffd5b6100616100e9565b005b61007d600480360381019061007891906104af565b6101bf565b60405161008a91906104f4565b60405180910390f35b6100ad60048036038101906100a891906104af565b6101db565b005b6100b7610304565b6040516100c4919061051c565b60405180910390f35b6100e760048036038101906100e291906104af565b610329565b005b5f5f3373ffffffffffffffffffffffffffffffffffffffff1673ffffffffffffffffffffffffffffffffffffffff1681526020019081526020015f205f9054906101000a900460ff16610171576040517f08c379a00000000000000000000000000000000000000000000000000000000081526004016101689061058f565b60405180910390fd5b3373ffffffffffffffffffffffffffffffffffffffff167f08e81b3284301b15e21f8fdbb43549cd7531d3b90433de785ea1012bbf86505b6040516101b59061061d565b60405180910390a2565b5f602052805f5260405f205f915054906101000a900460ff1681565b60015f9054906101000a900473ffffffffffffffffffffffffffffffffffffffff1673ffffffffffffffffffffffffffffffffffffffff163373ffffffffffffffffffffffffffffffffffffffff161461026a576040517f08c379a000000000000000000000000000000000000000000000000000000000815260040161026190610685565b60405180910390fd5b60015f5f8373ffffffffffffffffffffffffffffffffffffffff1673ffffffffffffffffffffffffffffffffffffffff1681526020019081526020015f205f6101000a81548160ff0219169083151502179055508073ffffffffffffffffffffffffffffffffffffffff167f8dc99df335b6271591431a55a56600f5bb6268bbcbecdb3c0b6b0d2e59e623e460405160405180910390a250565b60015f9054906101000a900473ffffffffffffffffffffffffffffffffffffffff1681565b60015f9054906101000a900473ffffffffffffffffffffffffffffffffffffffff1673ffffffffffffffffffffffffffffffffffffffff163373ffffffffffffffffffffffffffffffffffffffff16146103b8576040517f08c379a00000000000000000000000000000000000000000000000000000000081526004016103af90610685565b60405180910390fd5b5f5f5f8373ffffffffffffffffffffffffffffffffffffffff1673ffffffffffffffffffffffffffffffffffffffff1681526020019081526020015f205f6101000a81548160ff0219169083151502179055508073ffffffffffffffffffffffffffffffffffffffff167f3ab01fe5356cd9e5f966e94c7294a3a850b8e1c1b8f62e7293c3ea6a402309ca60405160405180910390a250565b5f5ffd5b5f73ffffffffffffffffffffffffffffffffffffffff82169050919050565b5f61047e82610455565b9050919050565b61048e81610474565b8114610498575f5ffd5b50565b5f813590506104a981610485565b92915050565b5f602082840312156104c4576104c3610451565b5b5f6104d18482850161049b565b91505092915050565b5f8115159050919050565b6104ee816104da565b82525050565b5f6020820190506105075f8301846104e5565b92915050565b61051681610474565b82525050565b5f60208201905061052f5f83018461050d565b92915050565b5f82825260208201905092915050565b7f4e6f7420616e20617070726f76656420676174657761790000000000000000005f82015250565b5f610579601783610535565b915061058482610545565b602082019050919050565b5f6020820190508181035f8301526105a68161056d565b9050919050565b7f416363657373206772616e74656420746f2070726f7465637465642066756e635f8201527f74696f6e00000000000000000000000000000000000000000000000000000000602082015250565b5f610607602483610535565b9150610612826105ad565b604082019050919050565b5f6020820190508181035f830152610634816105fb565b9050919050565b7f4e6f7420746865206f776e6572000000000000000000000000000000000000005f82015250565b5f61066f600d83610535565b915061067a8261063b565b602082019050919050565b5f6020820190508181035f83015261069c81610663565b905091905056fea26469706673582212209a71ee2df2f599cf3d683fb096c1493b35c21ec841c98a0eb7288504acc31b2464736f6c634300081d0033",
					"opcodes": "PUSH1 0x80 PUSH1 0x40 MSTORE CALLVALUE DUP1 ISZERO PUSH1 0xE JUMPI PUSH0 PUSH0 REVERT JUMPDEST POP CALLER PUSH1 0x1 PUSH0 PUSH2 0x100 EXP DUP2 SLOAD DUP2 PUSH20 0xFFFFFFFFFFFFFFFFFFFFFFFFFFFFFFFFFFFFFFFF MUL NOT AND SWAP1 DUP4 PUSH20 0xFFFFFFFFFFFFFFFFFFFFFFFFFFFFFFFFFFFFFFFF AND MUL OR SWAP1 SSTORE POP PUSH2 0x6D9 DUP1 PUSH2 0x5C PUSH0 CODECOPY PUSH0 RETURN INVALID PUSH1 0x80 PUSH1 0x40 MSTORE CALLVALUE DUP1 ISZERO PUSH2 0xF JUMPI PUSH0 PUSH0 REVERT JUMPDEST POP PUSH1 0x4 CALLDATASIZE LT PUSH2 0x55 JUMPI PUSH0 CALLDATALOAD PUSH1 0xE0 SHR DUP1 PUSH4 0x21E9894 EQ PUSH2 0x59 JUMPI DUP1 PUSH4 0x5726659 EQ PUSH2 0x63 JUMPI DUP1 PUSH4 0x67E202EC EQ PUSH2 0x93 JUMPI DUP1 PUSH4 0x8DA5CB5B EQ PUSH2 0xAF JUMPI DUP1 PUSH4 0x9B5477ED EQ PUSH2 0xCD JUMPI JUMPDEST PUSH0 PUSH0 REVERT JUMPDEST PUSH2 0x61 PUSH2 0xE9 JUMP JUMPDEST STOP JUMPDEST PUSH2 0x7D PUSH1 0x4 DUP1 CALLDATASIZE SUB DUP2 ADD SWAP1 PUSH2 0x78 SWAP2 SWAP1 PUSH2 0x4AF JUMP JUMPDEST PUSH2 0x1BF JUMP JUMPDEST PUSH1 0x40 MLOAD PUSH2 0x8A SWAP2 SWAP1 PUSH2 0x4F4 JUMP JUMPDEST PUSH1 0x40 MLOAD DUP1 SWAP2 SUB SWAP1 RETURN JUMPDEST PUSH2 0xAD PUSH1 0x4 DUP1 CALLDATASIZE SUB DUP2 ADD SWAP1 PUSH2 0xA8 SWAP2 SWAP1 PUSH2 0x4AF JUMP JUMPDEST PUSH2 0x1DB JUMP JUMPDEST STOP JUMPDEST PUSH2 0xB7 PUSH2 0x304 JUMP JUMPDEST PUSH1 0x40 MLOAD PUSH2 0xC4 SWAP2 SWAP1 PUSH2 0x51C JUMP JUMPDEST PUSH1 0x40 MLOAD DUP1 SWAP2 SUB SWAP1 RETURN JUMPDEST PUSH2 0xE7 PUSH1 0x4 DUP1 CALLDATASIZE SUB DUP2 ADD SWAP1 PUSH2 0xE2 SWAP2 SWAP1 PUSH2 0x4AF JUMP JUMPDEST PUSH2 0x329 JUMP JUMPDEST STOP JUMPDEST PUSH0 PUSH0 CALLER PUSH20 0xFFFFFFFFFFFFFFFFFFFFFFFFFFFFFFFFFFFFFFFF AND PUSH20 0xFFFFFFFFFFFFFFFFFFFFFFFFFFFFFFFFFFFFFFFF AND DUP2 MSTORE PUSH1 0x20 ADD SWAP1 DUP2 MSTORE PUSH1 0x20 ADD PUSH0 KECCAK256 PUSH0 SWAP1 SLOAD SWAP1 PUSH2 0x100 EXP SWAP1 DIV PUSH1 0xFF AND PUSH2 0x171 JUMPI PUSH1 0x40 MLOAD PUSH32 0x8C379A000000000000000000000000000000000000000000000000000000000 DUP2 MSTORE PUSH1 0x4 ADD PUSH2 0x168 SWAP1 PUSH2 0x58F JUMP JUMPDEST PUSH1 0x40 MLOAD DUP1 SWAP2 SUB SWAP1 REVERT JUMPDEST CALLER PUSH20 0xFFFFFFFFFFFFFFFFFFFFFFFFFFFFFFFFFFFFFFFF AND PUSH32 0x8E81B3284301B15E21F8FDBB43549CD7531D3B90433DE785EA1012BBF86505B PUSH1 0x40 MLOAD PUSH2 0x1B5 SWAP1 PUSH2 0x61D JUMP JUMPDEST PUSH1 0x40 MLOAD DUP1 SWAP2 SUB SWAP1 LOG2 JUMP JUMPDEST PUSH0 PUSH1 0x20 MSTORE DUP1 PUSH0 MSTORE PUSH1 0x40 PUSH0 KECCAK256 PUSH0 SWAP2 POP SLOAD SWAP1 PUSH2 0x100 EXP SWAP1 DIV PUSH1 0xFF AND DUP2 JUMP JUMPDEST PUSH1 0x1 PUSH0 SWAP1 SLOAD SWAP1 PUSH2 0x100 EXP SWAP1 DIV PUSH20 0xFFFFFFFFFFFFFFFFFFFFFFFFFFFFFFFFFFFFFFFF AND PUSH20 0xFFFFFFFFFFFFFFFFFFFFFFFFFFFFFFFFFFFFFFFF AND CALLER PUSH20 0xFFFFFFFFFFFFFFFFFFFFFFFFFFFFFFFFFFFFFFFF AND EQ PUSH2 0x26A JUMPI PUSH1 0x40 MLOAD PUSH32 0x8C379A000000000000000000000000000000000000000000000000000000000 DUP2 MSTORE PUSH1 0x4 ADD PUSH2 0x261 SWAP1 PUSH2 0x685 JUMP JUMPDEST PUSH1 0x40 MLOAD DUP1 SWAP2 SUB SWAP1 REVERT JUMPDEST PUSH1 0x1 PUSH0 PUSH0 DUP4 PUSH20 0xFFFFFFFFFFFFFFFFFFFFFFFFFFFFFFFFFFFFFFFF AND PUSH20 0xFFFFFFFFFFFFFFFFFFFFFFFFFFFFFFFFFFFFFFFF AND DUP2 MSTORE PUSH1 0x20 ADD SWAP1 DUP2 MSTORE PUSH1 0x20 ADD PUSH0 KECCAK256 PUSH0 PUSH2 0x100 EXP DUP2 SLOAD DUP2 PUSH1 0xFF MUL NOT AND SWAP1 DUP4 ISZERO ISZERO MUL OR SWAP1 SSTORE POP DUP1 PUSH20 0xFFFFFFFFFFFFFFFFFFFFFFFFFFFFFFFFFFFFFFFF AND PUSH32 0x8DC99DF335B6271591431A55A56600F5BB6268BBCBECDB3C0B6B0D2E59E623E4 PUSH1 0x40 MLOAD PUSH1 0x40 MLOAD DUP1 SWAP2 SUB SWAP1 LOG2 POP JUMP JUMPDEST PUSH1 0x1 PUSH0 SWAP1 SLOAD SWAP1 PUSH2 0x100 EXP SWAP1 DIV PUSH20 0xFFFFFFFFFFFFFFFFFFFFFFFFFFFFFFFFFFFFFFFF AND DUP2 JUMP JUMPDEST PUSH1 0x1 PUSH0 SWAP1 SLOAD SWAP1 PUSH2 0x100 EXP SWAP1 DIV PUSH20 0xFFFFFFFFFFFFFFFFFFFFFFFFFFFFFFFFFFFFFFFF AND PUSH20 0xFFFFFFFFFFFFFFFFFFFFFFFFFFFFFFFFFFFFFFFF AND CALLER PUSH20 0xFFFFFFFFFFFFFFFFFFFFFFFFFFFFFFFFFFFFFFFF AND EQ PUSH2 0x3B8 JUMPI PUSH1 0x40 MLOAD PUSH32 0x8C379A000000000000000000000000000000000000000000000000000000000 DUP2 MSTORE PUSH1 0x4 ADD PUSH2 0x3AF SWAP1 PUSH2 0x685 JUMP JUMPDEST PUSH1 0x40 MLOAD DUP1 SWAP2 SUB SWAP1 REVERT JUMPDEST PUSH0 PUSH0 PUSH0 DUP4 PUSH20 0xFFFFFFFFFFFFFFFFFFFFFFFFFFFFFFFFFFFFFFFF AND PUSH20 0xFFFFFFFFFFFFFFFFFFFFFFFFFFFFFFFFFFFFFFFF AND DUP2 MSTORE PUSH1 0x20 ADD SWAP1 DUP2 MSTORE PUSH1 0x20 ADD PUSH0 KECCAK256 PUSH0 PUSH2 0x100 EXP DUP2 SLOAD DUP2 PUSH1 0xFF MUL NOT AND SWAP1 DUP4 ISZERO ISZERO MUL OR SWAP1 SSTORE POP DUP1 PUSH20 0xFFFFFFFFFFFFFFFFFFFFFFFFFFFFFFFFFFFFFFFF AND PUSH32 0x3AB01FE5356CD9E5F966E94C7294A3A850B8E1C1B8F62E7293C3EA6A402309CA PUSH1 0x40 MLOAD PUSH1 0x40 MLOAD DUP1 SWAP2 SUB SWAP1 LOG2 POP JUMP JUMPDEST PUSH0 PUSH0 REVERT JUMPDEST PUSH0 PUSH20 0xFFFFFFFFFFFFFFFFFFFFFFFFFFFFFFFFFFFFFFFF DUP3 AND SWAP1 POP SWAP2 SWAP1 POP JUMP JUMPDEST PUSH0 PUSH2 0x47E DUP3 PUSH2 0x455 JUMP JUMPDEST SWAP1 POP SWAP2 SWAP1 POP JUMP JUMPDEST PUSH2 0x48E DUP2 PUSH2 0x474 JUMP JUMPDEST DUP2 EQ PUSH2 0x498 JUMPI PUSH0 PUSH0 REVERT JUMPDEST POP JUMP JUMPDEST PUSH0 DUP2 CALLDATALOAD SWAP1 POP PUSH2 0x4A9 DUP2 PUSH2 0x485 JUMP JUMPDEST SWAP3 SWAP2 POP POP JUMP JUMPDEST PUSH0 PUSH1 0x20 DUP3 DUP5 SUB SLT ISZERO PUSH2 0x4C4 JUMPI PUSH2 0x4C3 PUSH2 0x451 JUMP JUMPDEST JUMPDEST PUSH0 PUSH2 0x4D1 DUP5 DUP3 DUP6 ADD PUSH2 0x49B JUMP JUMPDEST SWAP2 POP POP SWAP3 SWAP2 POP POP JUMP JUMPDEST PUSH0 DUP2 ISZERO ISZERO SWAP1 POP SWAP2 SWAP1 POP JUMP JUMPDEST PUSH2 0x4EE DUP2 PUSH2 0x4DA JUMP JUMPDEST DUP3 MSTORE POP POP JUMP JUMPDEST PUSH0 PUSH1 0x20 DUP3 ADD SWAP1 POP PUSH2 0x507 PUSH0 DUP4 ADD DUP5 PUSH2 0x4E5 JUMP JUMPDEST SWAP3 SWAP2 POP POP JUMP JUMPDEST PUSH2 0x516 DUP2 PUSH2 0x474 JUMP JUMPDEST DUP3 MSTORE POP POP JUMP JUMPDEST PUSH0 PUSH1 0x20 DUP3 ADD SWAP1 POP PUSH2 0x52F PUSH0 DUP4 ADD DUP5 PUSH2 0x50D JUMP JUMPDEST SWAP3 SWAP2 POP POP JUMP JUMPDEST PUSH0 DUP3 DUP3 MSTORE PUSH1 0x20 DUP3 ADD SWAP1 POP SWAP3 SWAP2 POP POP JUMP JUMPDEST PUSH32 0x4E6F7420616E20617070726F7665642067617465776179000000000000000000 PUSH0 DUP3 ADD MSTORE POP JUMP JUMPDEST PUSH0 PUSH2 0x579 PUSH1 0x17 DUP4 PUSH2 0x535 JUMP JUMPDEST SWAP2 POP PUSH2 0x584 DUP3 PUSH2 0x545 JUMP JUMPDEST PUSH1 0x20 DUP3 ADD SWAP1 POP SWAP2 SWAP1 POP JUMP JUMPDEST PUSH0 PUSH1 0x20 DUP3 ADD SWAP1 POP DUP2 DUP2 SUB PUSH0 DUP4 ADD MSTORE PUSH2 0x5A6 DUP2 PUSH2 0x56D JUMP JUMPDEST SWAP1 POP SWAP2 SWAP1 POP JUMP JUMPDEST PUSH32 0x416363657373206772616E74656420746F2070726F7465637465642066756E63 PUSH0 DUP3 ADD MSTORE PUSH32 0x74696F6E00000000000000000000000000000000000000000000000000000000 PUSH1 0x20 DUP3 ADD MSTORE POP JUMP JUMPDEST PUSH0 PUSH2 0x607 PUSH1 0x24 DUP4 PUSH2 0x535 JUMP JUMPDEST SWAP2 POP PUSH2 0x612 DUP3 PUSH2 0x5AD JUMP JUMPDEST PUSH1 0x40 DUP3 ADD SWAP1 POP SWAP2 SWAP1 POP JUMP JUMPDEST PUSH0 PUSH1 0x20 DUP3 ADD SWAP1 POP DUP2 DUP2 SUB PUSH0 DUP4 ADD MSTORE PUSH2 0x634 DUP2 PUSH2 0x5FB JUMP JUMPDEST SWAP1 POP SWAP2 SWAP1 POP JUMP JUMPDEST PUSH32 0x4E6F7420746865206F776E657200000000000000000000000000000000000000 PUSH0 DUP3 ADD MSTORE POP JUMP JUMPDEST PUSH0 PUSH2 0x66F PUSH1 0xD DUP4 PUSH2 0x535 JUMP JUMPDEST SWAP2 POP PUSH2 0x67A DUP3 PUSH2 0x63B JUMP JUMPDEST PUSH1 0x20 DUP3 ADD SWAP1 POP SWAP2 SWAP1 POP JUMP JUMPDEST PUSH0 PUSH1 0x20 DUP3 ADD SWAP1 POP DUP2 DUP2 SUB PUSH0 DUP4 ADD MSTORE PUSH2 0x69C DUP2 PUSH2 0x663 JUMP JUMPDEST SWAP1 POP SWAP2 SWAP1 POP JUMP INVALID LOG2 PUSH5 0x6970667358 0x22 SLT KECCAK256 SWAP11 PUSH18 0xEE2DF2F599CF3D683FB096C1493B35C21EC8 COINBASE 0xC9 DUP11 0xE 0xB7 0x28 DUP6 DIV 0xAC 0xC3 SHL 0x24 PUSH5 0x736F6C6343 STOP ADDMOD SAR STOP CALLER "
				},
				"gasEstimates": {
					"creation": {
						"codeDepositCost": "350600",
						"executionCost": "24649",
						"totalCost": "375249"
					},
					"external": {
						"approveGateway(address)": "28154",
						"approvedGateways(address)": "2832",
						"owner()": "2552",
						"protectedFunction()": "2643",
						"revokeGateway(address)": "28197"
					}
				},
				"methodIdentifiers": {
					"approveGateway(address)": "67e202ec",
					"approvedGateways(address)": "05726659",
					"owner()": "8da5cb5b",
					"protectedFunction()": "021e9894",
					"revokeGateway(address)": "9b5477ed"
				}
			},
			"storageLayout": {
				"storage": [
					{
						"astId": 5,
						"contract": "B/bastion host/Firewall Gateway Contract.sol:FirewallGateway",
						"label": "approvedGateways",
						"offset": 0,
						"slot": "0",
						"type": "t_mapping(t_address,t_bool)"
					},
					{
						"astId": 7,
						"contract": "B/bastion host/Firewall Gateway Contract.sol:FirewallGateway",
						"label": "owner",
						"offset": 0,
						"slot": "1",
						"type": "t_address"
					}
				],
				"types": {
					"t_address": {
						"encoding": "inplace",
						"label": "address",
						"numberOfBytes": "20"
					},
					"t_bool": {
						"encoding": "inplace",
						"label": "bool",
						"numberOfBytes": "1"
					},
					"t_mapping(t_address,t_bool)": {
						"encoding": "mapping",
						"key": "t_address",
						"label": "mapping(address => bool)",
						"numberOfBytes": "32",
						"value": "t_bool"
					}
				}
			},
			"userdoc": {
				"kind": "user",
				"methods": {},
				"version": 1
			}
		}
	}
}