{
	"data": {
		"bytecode": {
			"linkReferences": {},
			"object": "6080604052348015600e575f80fd5b50335f806101000a81548173ffffffffffffffffffffffffffffffffffffffff021916908373ffffffffffffffffffffffffffffffffffffffff1602179055506107218061005b5f395ff3fe608060405234801561000f575f80fd5b5060043610610034575f3560e01c8063570ca73514610038578063e14cbf5b14610056575b5f80fd5b610040610072565b60405161004d919061045a565b60405180910390f35b610070600480360381019061006b919061050f565b610095565b005b5f8054906101000a900473ffffffffffffffffffffffffffffffffffffffff1681565b5f8054906101000a900473ffffffffffffffffffffffffffffffffffffffff1673ffffffffffffffffffffffffffffffffffffffff163373ffffffffffffffffffffffffffffffffffffffff1614610122576040517f08c379a0000000000000000000000000000000000000000000000000000000008152600401610119906105c6565b60405180910390fd5b5f5b8383905081101561041557838382818110610142576101416105e4565b5b9050602002016020810190610157919061063b565b73ffffffffffffffffffffffffffffffffffffffff16634ad5d16f836040518263ffffffff1660e01b815260040161018f9190610675565b5f604051808303815f87803b1580156101a6575f80fd5b505af11580156101b8573d5f803e3d5ffd5b505050508383828181106101cf576101ce6105e4565b5b90506020020160208101906101e4919061063b565b73ffffffffffffffffffffffffffffffffffffffff16639718cb5a60028461020c91906106bb565b6040518263ffffffff1660e01b81526004016102289190610675565b5f604051808303815f87803b15801561023f575f80fd5b505af1158015610251573d5f803e3d5ffd5b50505050838382818110610268576102676105e4565b5b905060200201602081019061027d919061063b565b73ffffffffffffffffffffffffffffffffffffffff1663b2041d21600a846102a591906106bb565b6040518263ffffffff1660e01b81526004016102c19190610675565b5f604051808303815f87803b1580156102d8575f80fd5b505af11580156102ea573d5f803e3d5ffd5b50505050838382818110610301576103006105e4565b5b9050602002016020810190610316919061063b565b73ffffffffffffffffffffffffffffffffffffffff1663192d0440836040518263ffffffff1660e01b815260040161034e9190610675565b5f604051808303815f87803b158015610365575f80fd5b505af1158015610377573d5f803e3d5ffd5b5050505083838281811061038e5761038d6105e4565b5b90506020020160208101906103a3919061063b565b73ffffffffffffffffffffffffffffffffffffffff1663b5ee9660836040518263ffffffff1660e01b81526004016103db9190610675565b5f604051808303815f87803b1580156103f2575f80fd5b505af1158015610404573d5f803e3d5ffd5b505050508080600101915050610124565b50505050565b5f73ffffffffffffffffffffffffffffffffffffffff82169050919050565b5f6104448261041b565b9050919050565b6104548161043a565b82525050565b5f60208201905061046d5f83018461044b565b92915050565b5f80fd5b5f80fd5b5f80fd5b5f80fd5b5f80fd5b5f8083601f84011261049c5761049b61047b565b5b8235905067ffffffffffffffff8111156104b9576104b861047f565b5b6020830191508360208202830111156104d5576104d4610483565b5b9250929050565b5f819050919050565b6104ee816104dc565b81146104f8575f80fd5b50565b5f81359050610509816104e5565b92915050565b5f805f6040848603121561052657610525610473565b5b5f84013567ffffffffffffffff81111561054357610542610477565b5b61054f86828701610487565b93509350506020610562868287016104fb565b9150509250925092565b5f82825260208201905092915050565b7f6e6f7420616c6c6f7765640000000000000000000000000000000000000000005f82015250565b5f6105b0600b8361056c565b91506105bb8261057c565b602082019050919050565b5f6020820190508181035f8301526105dd816105a4565b9050919050565b7f4e487b71000000000000000000000000000000000000000000000000000000005f52603260045260245ffd5b61061a8161043a565b8114610624575f80fd5b50565b5f8135905061063581610611565b92915050565b5f602082840312156106505761064f610473565b5b5f61065d84828501610627565b91505092915050565b61066f816104dc565b82525050565b5f6020820190506106885f830184610666565b92915050565b7f4e487b71000000000000000000000000000000000000000000000000000000005f52601260045260245ffd5b5f6106c5826104dc565b91506106d0836104dc565b9250826106e0576106df61068e565b5b82820490509291505056fea2646970667358221220f8957af84c55cf64f03984ac5ea78a2b4331bf733f0a544225f2c0951228afec64736f6c634300081a0033",
			"opcodes": "PUSH1 0x80 PUSH1 0x40 MSTORE CALLVALUE DUP1 ISZERO PUSH1 0xE JUMPI PUSH0 DUP1 REVERT JUMPDEST POP CALLER PUSH0 DUP1 PUSH2 0x100 EXP DUP2 SLOAD DUP2 PUSH20 0xFFFFFFFFFFFFFFFFFFFFFFFFFFFFFFFFFFFFFFFF MUL NOT AND SWAP1 DUP4 PUSH20 0xFFFFFFFFFFFFFFFFFFFFFFFFFFFFFFFFFFFFFFFF AND MUL OR SWAP1 SSTORE POP PUSH2 0x721 DUP1 PUSH2 0x5B PUSH0 CODECOPY PUSH0 RETURN INVALID PUSH1 0x80 PUSH1 0x40 MSTORE CALLVALUE DUP1 ISZERO PUSH2 0xF JUMPI PUSH0 DUP1 REVERT JUMPDEST POP PUSH1 0x4 CALLDATASIZE LT PUSH2 0x34 JUMPI PUSH0 CALLDATALOAD PUSH1 0xE0 SHR DUP1 PUSH4 0x570CA735 EQ PUSH2 0x38 JUMPI DUP1 PUSH4 0xE14CBF5B EQ PUSH2 0x56 JUMPI JUMPDEST PUSH0 DUP1 REVERT JUMPDEST PUSH2 0x40 PUSH2 0x72 JUMP JUMPDEST PUSH1 0x40 MLOAD PUSH2 0x4D SWAP2 SWAP1 PUSH2 0x45A JUMP JUMPDEST PUSH1 0x40 MLOAD DUP1 SWAP2 SUB SWAP1 RETURN JUMPDEST PUSH2 0x70 PUSH1 0x4 DUP1 CALLDATASIZE SUB DUP2 ADD SWAP1 PUSH2 0x6B SWAP2 SWAP1 PUSH2 0x50F JUMP JUMPDEST PUSH2 0x95 JUMP JUMPDEST STOP JUMPDEST PUSH0 DUP1 SLOAD SWAP1 PUSH2 0x100 EXP SWAP1 DIV PUSH20 0xFFFFFFFFFFFFFFFFFFFFFFFFFFFFFFFFFFFFFFFF AND DUP2 JUMP JUMPDEST PUSH0 DUP1 SLOAD SWAP1 PUSH2 0x100 EXP SWAP1 DIV PUSH20 0xFFFFFFFFFFFFFFFFFFFFFFFFFFFFFFFFFFFFFFFF AND PUSH20 0xFFFFFFFFFFFFFFFFFFFFFFFFFFFFFFFFFFFFFFFF AND CALLER PUSH20 0xFFFFFFFFFFFFFFFFFFFFFFFFFFFFFFFFFFFFFFFF AND EQ PUSH2 0x122 JUMPI PUSH1 0x40 MLOAD PUSH32 0x8C379A000000000000000000000000000000000000000000000000000000000 DUP2 MSTORE PUSH1 0x4 ADD PUSH2 0x119 SWAP1 PUSH2 0x5C6 JUMP JUMPDEST PUSH1 0x40 MLOAD DUP1 SWAP2 SUB SWAP1 REVERT JUMPDEST PUSH0 JUMPDEST DUP4 DUP4 SWAP1 POP DUP2 LT ISZERO PUSH2 0x415 JUMPI DUP4 DUP4 DUP3 DUP2 DUP2 LT PUSH2 0x142 JUMPI PUSH2 0x141 PUSH2 0x5E4 JUMP JUMPDEST JUMPDEST SWAP1 POP PUSH1 0x20 MUL ADD PUSH1 0x20 DUP2 ADD SWAP1 PUSH2 0x157 SWAP2 SWAP1 PUSH2 0x63B JUMP JUMPDEST PUSH20 0xFFFFFFFFFFFFFFFFFFFFFFFFFFFFFFFFFFFFFFFF AND PUSH4 0x4AD5D16F DUP4 PUSH1 0x40 MLOAD DUP3 PUSH4 0xFFFFFFFF AND PUSH1 0xE0 SHL DUP2 MSTORE PUSH1 0x4 ADD PUSH2 0x18F SWAP2 SWAP1 PUSH2 0x675 JUMP JUMPDEST PUSH0 PUSH1 0x40 MLOAD DUP1 DUP4 SUB DUP2 PUSH0 DUP8 DUP1 EXTCODESIZE ISZERO DUP1 ISZERO PUSH2 0x1A6 JUMPI PUSH0 DUP1 REVERT JUMPDEST POP GAS CALL ISZERO DUP1 ISZERO PUSH2 0x1B8 JUMPI RETURNDATASIZE PUSH0 DUP1 RETURNDATACOPY RETURNDATASIZE PUSH0 REVERT JUMPDEST POP POP POP POP DUP4 DUP4 DUP3 DUP2 DUP2 LT PUSH2 0x1CF JUMPI PUSH2 0x1CE PUSH2 0x5E4 JUMP JUMPDEST JUMPDEST SWAP1 POP PUSH1 0x20 MUL ADD PUSH1 0x20 DUP2 ADD SWAP1 PUSH2 0x1E4 SWAP2 SWAP1 PUSH2 0x63B JUMP JUMPDEST PUSH20 0xFFFFFFFFFFFFFFFFFFFFFFFFFFFFFFFFFFFFFFFF AND PUSH4 0x9718CB5A PUSH1 0x2 DUP5 PUSH2 0x20C SWAP2 SWAP1 PUSH2 0x6BB JUMP JUMPDEST PUSH1 0x40 MLOAD DUP3 PUSH4 0xFFFFFFFF AND PUSH1 0xE0 SHL DUP2 MSTORE PUSH1 0x4 ADD PUSH2 0x228 SWAP2 SWAP1 PUSH2 0x675 JUMP JUMPDEST PUSH0 PUSH1 0x40 MLOAD DUP1 DUP4 SUB DUP2 PUSH0 DUP8 DUP1 EXTCODESIZE ISZERO DUP1 ISZERO PUSH2 0x23F JUMPI PUSH0 DUP1 REVERT JUMPDEST POP GAS CALL ISZERO DUP1 ISZERO PUSH2 0x251 JUMPI RETURNDATASIZE PUSH0 DUP1 RETURNDATACOPY RETURNDATASIZE PUSH0 REVERT JUMPDEST POP POP POP POP DUP4 DUP4 DUP3 DUP2 DUP2 LT PUSH2 0x268 JUMPI PUSH2 0x267 PUSH2 0x5E4 JUMP JUMPDEST JUMPDEST SWAP1 POP PUSH1 0x20 MUL ADD PUSH1 0x20 DUP2 ADD SWAP1 PUSH2 0x27D SWAP2 SWAP1 PUSH2 0x63B JUMP JUMPDEST PUSH20 0xFFFFFFFFFFFFFFFFFFFFFFFFFFFFFFFFFFFFFFFF AND PUSH4 0xB2041D21 PUSH1 0xA DUP5 PUSH2 0x2A5 SWAP2 SWAP1 PUSH2 0x6BB JUMP JUMPDEST PUSH1 0x40 MLOAD DUP3 PUSH4 0xFFFFFFFF AND PUSH1 0xE0 SHL DUP2 MSTORE PUSH1 0x4 ADD PUSH2 0x2C1 SWAP2 SWAP1 PUSH2 0x675 JUMP JUMPDEST PUSH0 PUSH1 0x40 MLOAD DUP1 DUP4 SUB DUP2 PUSH0 DUP8 DUP1 EXTCODESIZE ISZERO DUP1 ISZERO PUSH2 0x2D8 JUMPI PUSH0 DUP1 REVERT JUMPDEST POP GAS CALL ISZERO DUP1 ISZERO PUSH2 0x2EA JUMPI RETURNDATASIZE PUSH0 DUP1 RETURNDATACOPY RETURNDATASIZE PUSH0 REVERT JUMPDEST POP POP POP POP DUP4 DUP4 DUP3 DUP2 DUP2 LT PUSH2 0x301 JUMPI PUSH2 0x300 PUSH2 0x5E4 JUMP JUMPDEST JUMPDEST SWAP1 POP PUSH1 0x20 MUL ADD PUSH1 0x20 DUP2 ADD SWAP1 PUSH2 0x316 SWAP2 SWAP1 PUSH2 0x63B JUMP JUMPDEST PUSH20 0xFFFFFFFFFFFFFFFFFFFFFFFFFFFFFFFFFFFFFFFF AND PUSH4 0x192D0440 DUP4 PUSH1 0x40 MLOAD DUP3 PUSH4 0xFFFFFFFF AND PUSH1 0xE0 SHL DUP2 MSTORE PUSH1 0x4 ADD PUSH2 0x34E SWAP2 SWAP1 PUSH2 0x675 JUMP JUMPDEST PUSH0 PUSH1 0x40 MLOAD DUP1 DUP4 SUB DUP2 PUSH0 DUP8 DUP1 EXTCODESIZE ISZERO DUP1 ISZERO PUSH2 0x365 JUMPI PUSH0 DUP1 REVERT JUMPDEST POP GAS CALL ISZERO DUP1 ISZERO PUSH2 0x377 JUMPI RETURNDATASIZE PUSH0 DUP1 RETURNDATACOPY RETURNDATASIZE PUSH0 REVERT JUMPDEST POP POP POP POP DUP4 DUP4 DUP3 DUP2 DUP2 LT PUSH2 0x38E JUMPI PUSH2 0x38D PUSH2 0x5E4 JUMP JUMPDEST JUMPDEST SWAP1 POP PUSH1 0x20 MUL ADD PUSH1 0x20 DUP2 ADD SWAP1 PUSH2 0x3A3 SWAP2 SWAP1 PUSH2 0x63B JUMP JUMPDEST PUSH20 0xFFFFFFFFFFFFFFFFFFFFFFFFFFFFFFFFFFFFFFFF AND PUSH4 0xB5EE9660 DUP4 PUSH1 0x40 MLOAD DUP3 PUSH4 0xFFFFFFFF AND PUSH1 0xE0 SHL DUP2 MSTORE PUSH1 0x4 ADD PUSH2 0x3DB SWAP2 SWAP1 PUSH2 0x675 JUMP JUMPDEST PUSH0 PUSH1 0x40 MLOAD DUP1 DUP4 SUB DUP2 PUSH0 DUP8 DUP1 EXTCODESIZE ISZERO DUP1 ISZERO PUSH2 0x3F2 JUMPI PUSH0 DUP1 REVERT JUMPDEST POP GAS CALL ISZERO DUP1 ISZERO PUSH2 0x404 JUMPI RETURNDATASIZE PUSH0 DUP1 RETURNDATACOPY RETURNDATASIZE PUSH0 REVERT JUMPDEST POP POP POP POP DUP1 DUP1 PUSH1 0x1 ADD SWAP2 POP POP PUSH2 0x124 JUMP JUMPDEST POP POP POP POP JUMP JUMPDEST PUSH0 PUSH20 0xFFFFFFFFFFFFFFFFFFFFFFFFFFFFFFFFFFFFFFFF DUP3 AND SWAP1 POP SWAP2 SWAP1 POP JUMP JUMPDEST PUSH0 PUSH2 0x444 DUP3 PUSH2 0x41B JUMP JUMPDEST SWAP1 POP SWAP2 SWAP1 POP JUMP JUMPDEST PUSH2 0x454 DUP2 PUSH2 0x43A JUMP JUMPDEST DUP3 MSTORE POP POP JUMP JUMPDEST PUSH0 PUSH1 0x20 DUP3 ADD SWAP1 POP PUSH2 0x46D PUSH0 DUP4 ADD DUP5 PUSH2 0x44B JUMP JUMPDEST SWAP3 SWAP2 POP POP JUMP JUMPDEST PUSH0 DUP1 REVERT JUMPDEST PUSH0 DUP1 REVERT JUMPDEST PUSH0 DUP1 REVERT JUMPDEST PUSH0 DUP1 REVERT JUMPDEST PUSH0 DUP1 REVERT JUMPDEST PUSH0 DUP1 DUP4 PUSH1 0x1F DUP5 ADD SLT PUSH2 0x49C JUMPI PUSH2 0x49B PUSH2 0x47B JUMP JUMPDEST JUMPDEST DUP3 CALLDATALOAD SWAP1 POP PUSH8 0xFFFFFFFFFFFFFFFF DUP2 GT ISZERO PUSH2 0x4B9 JUMPI PUSH2 0x4B8 PUSH2 0x47F JUMP JUMPDEST JUMPDEST PUSH1 0x20 DUP4 ADD SWAP2 POP DUP4 PUSH1 0x20 DUP3 MUL DUP4 ADD GT ISZERO PUSH2 0x4D5 JUMPI PUSH2 0x4D4 PUSH2 0x483 JUMP JUMPDEST JUMPDEST SWAP3 POP SWAP3 SWAP1 POP JUMP JUMPDEST PUSH0 DUP2 SWAP1 POP SWAP2 SWAP1 POP JUMP JUMPDEST PUSH2 0x4EE DUP2 PUSH2 0x4DC JUMP JUMPDEST DUP2 EQ PUSH2 0x4F8 JUMPI PUSH0 DUP1 REVERT JUMPDEST POP JUMP JUMPDEST PUSH0 DUP2 CALLDATALOAD SWAP1 POP PUSH2 0x509 DUP2 PUSH2 0x4E5 JUMP JUMPDEST SWAP3 SWAP2 POP POP JUMP JUMPDEST PUSH0 DUP1 PUSH0 PUSH1 0x40 DUP5 DUP7 SUB SLT ISZERO PUSH2 0x526 JUMPI PUSH2 0x525 PUSH2 0x473 JUMP JUMPDEST JUMPDEST PUSH0 DUP5 ADD CALLDATALOAD PUSH8 0xFFFFFFFFFFFFFFFF DUP2 GT ISZERO PUSH2 0x543 JUMPI PUSH2 0x542 PUSH2 0x477 JUMP JUMPDEST JUMPDEST PUSH2 0x54F DUP7 DUP3 DUP8 ADD PUSH2 0x487 JUMP JUMPDEST SWAP4 POP SWAP4 POP POP PUSH1 0x20 PUSH2 0x562 DUP7 DUP3 DUP8 ADD PUSH2 0x4FB JUMP JUMPDEST SWAP2 POP POP SWAP3 POP SWAP3 POP SWAP3 JUMP JUMPDEST PUSH0 DUP3 DUP3 MSTORE PUSH1 0x20 DUP3 ADD SWAP1 POP SWAP3 SWAP2 POP POP JUMP JUMPDEST PUSH32 0x6E6F7420616C6C6F776564000000000000000000000000000000000000000000 PUSH0 DUP3 ADD MSTORE POP JUMP JUMPDEST PUSH0 PUSH2 0x5B0 PUSH1 0xB DUP4 PUSH2 0x56C JUMP JUMPDEST SWAP2 POP PUSH2 0x5BB DUP3 PUSH2 0x57C JUMP JUMPDEST PUSH1 0x20 DUP3 ADD SWAP1 POP SWAP2 SWAP1 POP JUMP JUMPDEST PUSH0 PUSH1 0x20 DUP3 ADD SWAP1 POP DUP2 DUP2 SUB PUSH0 DUP4 ADD MSTORE PUSH2 0x5DD DUP2 PUSH2 0x5A4 JUMP JUMPDEST SWAP1 POP SWAP2 SWAP1 POP JUMP JUMPDEST PUSH32 0x4E487B7100000000000000000000000000000000000000000000000000000000 PUSH0 MSTORE PUSH1 0x32 PUSH1 0x4 MSTORE PUSH1 0x24 PUSH0 REVERT JUMPDEST PUSH2 0x61A DUP2 PUSH2 0x43A JUMP JUMPDEST DUP2 EQ PUSH2 0x624 JUMPI PUSH0 DUP1 REVERT JUMPDEST POP JUMP JUMPDEST PUSH0 DUP2 CALLDATALOAD SWAP1 POP PUSH2 0x635 DUP2 PUSH2 0x611 JUMP JUMPDEST SWAP3 SWAP2 POP POP JUMP JUMPDEST PUSH0 PUSH1 0x20 DUP3 DUP5 SUB SLT ISZERO PUSH2 0x650 JUMPI PUSH2 0x64F PUSH2 0x473 JUMP JUMPDEST JUMPDEST PUSH0 PUSH2 0x65D DUP5 DUP3 DUP6 ADD PUSH2 0x627 JUMP JUMPDEST SWAP2 POP POP SWAP3 SWAP2 POP POP JUMP JUMPDEST PUSH2 0x66F DUP2 PUSH2 0x4DC JUMP JUMPDEST DUP3 MSTORE POP POP JUMP JUMPDEST PUSH0 PUSH1 0x20 DUP3 ADD SWAP1 POP PUSH2 0x688 PUSH0 DUP4 ADD DUP5 PUSH2 0x666 JUMP JUMPDEST SWAP3 SWAP2 POP POP JUMP JUMPDEST PUSH32 0x4E487B7100000000000000000000000000000000000000000000000000000000 PUSH0 MSTORE PUSH1 0x12 PUSH1 0x4 MSTORE PUSH1 0x24 PUSH0 REVERT JUMPDEST PUSH0 PUSH2 0x6C5 DUP3 PUSH2 0x4DC JUMP JUMPDEST SWAP2 POP PUSH2 0x6D0 DUP4 PUSH2 0x4DC JUMP JUMPDEST SWAP3 POP DUP3 PUSH2 0x6E0 JUMPI PUSH2 0x6DF PUSH2 0x68E JUMP JUMPDEST JUMPDEST DUP3 DUP3 DIV SWAP1 POP SWAP3 SWAP2 POP POP JUMP INVALID LOG2 PUSH5 0x6970667358 0x22 SLT KECCAK256 0xF8 SWAP6 PUSH27 0xF84C55CF64F03984AC5EA78A2B4331BF733F0A544225F2C0951228 0xAF 0xEC PUSH5 0x736F6C6343 STOP ADDMOD BYTE STOP CALLER "
		},
		"gasEstimates": {
			"creation": {
				"codeDepositCost": "365000",
				"executionCost": "24668",
				"totalCost": "389668"
			},
			"external": {
				"operator()": "2483",
				"simulate(address[],uint256)": "infinite"
			}
		},
		"methodIdentifiers": {
			"operator()": "570ca735",
			"simulate(address[],uint256)": "e14cbf5b"
		}
	},
	"abi": [
		{
			"inputs": [],
			"stateMutability": "nonpayable",
			"type": "constructor"
		},
		{
			"inputs": [],
			"name": "operator",
			"outputs": [
				{
					"internalType": "address",
					"name": "",
					"type": "address"
				}
			],
			"stateMutability": "view",
			"type": "function"
		},
		{
			"inputs": [
				{
					"internalType": "address[]",
					"name": "targets",
					"type": "address[]"
				},
				{
					"internalType": "uint256",
					"name": "intensity",
					"type": "uint256"
				}
			],
			"name": "simulate",
			"outputs": [],
			"stateMutability": "nonpayable",
			"type": "function"
		}
	]
}