{
	"data": {
		"bytecode": {
			"linkReferences": {},
			"object": "608060405234801561000f575f5ffd5b506100225f5f1b3361005960201b60201c565b506100537fd8c214e8fe3974cd0e68507a1f4138675630648e8d5e9e21d8883f574e4055ab3361005960201b60201c565b506101b8565b5f61006a838361014e60201b60201c565b6101445760015f5f8581526020019081526020015f205f015f8473ffffffffffffffffffffffffffffffffffffffff1673ffffffffffffffffffffffffffffffffffffffff1681526020019081526020015f205f6101000a81548160ff0219169083151502179055506100e16101b160201b60201c565b73ffffffffffffffffffffffffffffffffffffffff168273ffffffffffffffffffffffffffffffffffffffff16847f2f8788117e7eff1d82e926ec794901d17c78024a50270940304540a733656f0d60405160405180910390a460019050610148565b5f90505b92915050565b5f5f5f8481526020019081526020015f205f015f8373ffffffffffffffffffffffffffffffffffffffff1673ffffffffffffffffffffffffffffffffffffffff1681526020019081526020015f205f9054906101000a900460ff16905092915050565b5f33905090565b610b34806101c55f395ff3fe608060405234801561000f575f5ffd5b50600436106100a7575f3560e01c806391d148541161006f57806391d148541461015f578063a217fddf1461018f578063bc15b345146101ad578063ca252a05146101c9578063d547741f146101e5578063e4fb5fb814610201576100a7565b806301ffc9a7146100ab578063248a9ca3146100db5780632f2ff15d1461010b57806336568abe146101275780636610a7fa14610143575b5f5ffd5b6100c560048036038101906100c091906107f9565b61021f565b6040516100d2919061083e565b60405180910390f35b6100f560048036038101906100f0919061088a565b610298565b60405161010291906108c4565b60405180910390f35b61012560048036038101906101209190610937565b6102b4565b005b610141600480360381019061013c9190610937565b6102d6565b005b61015d60048036038101906101589190610975565b610351565b005b61017960048036038101906101749190610937565b61038c565b604051610186919061083e565b60405180910390f35b6101976103ef565b6040516101a491906108c4565b60405180910390f35b6101c760048036038101906101c29190610a01565b6103f5565b005b6101e360048036038101906101de9190610975565b610474565b005b6101ff60048036038101906101fa9190610937565b6104af565b005b6102096104d1565b60405161021691906108c4565b60405180910390f35b5f7f7965db0b000000000000000000000000000000000000000000000000000000007bffffffffffffffffffffffffffffffffffffffffffffffffffffffff1916827bffffffffffffffffffffffffffffffffffffffffffffffffffffffff191614806102915750610290826104f5565b5b9050919050565b5f5f5f8381526020019081526020015f20600101549050919050565b6102bd82610298565b6102c68161055e565b6102d08383610572565b50505050565b6102de61065b565b73ffffffffffffffffffffffffffffffffffffffff168173ffffffffffffffffffffffffffffffffffffffff1614610342576040517f6697b23200000000000000000000000000000000000000000000000000000000815260040160405180910390fd5b61034c8282610662565b505050565b5f5f1b61035d8161055e565b6103877fd8c214e8fe3974cd0e68507a1f4138675630648e8d5e9e21d8883f574e4055ab83610572565b505050565b5f5f5f8481526020019081526020015f205f015f8373ffffffffffffffffffffffffffffffffffffffff1673ffffffffffffffffffffffffffffffffffffffff1681526020019081526020015f205f9054906101000a900460ff16905092915050565b5f5f1b81565b7fd8c214e8fe3974cd0e68507a1f4138675630648e8d5e9e21d8883f574e4055ab61041f8161055e565b3373ffffffffffffffffffffffffffffffffffffffff167f36f402f0caa225ad2b9e875d54c6dca0092ae00ff103abcf23a65c0a612ae21e8484604051610467929190610aa6565b60405180910390a2505050565b5f5f1b6104808161055e565b6104aa7fd8c214e8fe3974cd0e68507a1f4138675630648e8d5e9e21d8883f574e4055ab83610662565b505050565b6104b882610298565b6104c18161055e565b6104cb8383610662565b50505050565b7fd8c214e8fe3974cd0e68507a1f4138675630648e8d5e9e21d8883f574e4055ab81565b5f7f01ffc9a7000000000000000000000000000000000000000000000000000000007bffffffffffffffffffffffffffffffffffffffffffffffffffffffff1916827bffffffffffffffffffffffffffffffffffffffffffffffffffffffff1916149050919050565b61056f8161056a61065b565b61074b565b50565b5f61057d838361038c565b6106515760015f5f8581526020019081526020015f205f015f8473ffffffffffffffffffffffffffffffffffffffff1673ffffffffffffffffffffffffffffffffffffffff1681526020019081526020015f205f6101000a81548160ff0219169083151502179055506105ee61065b565b73ffffffffffffffffffffffffffffffffffffffff168273ffffffffffffffffffffffffffffffffffffffff16847f2f8788117e7eff1d82e926ec794901d17c78024a50270940304540a733656f0d60405160405180910390a460019050610655565b5f90505b92915050565b5f33905090565b5f61066d838361038c565b15610741575f5f5f8581526020019081526020015f205f015f8473ffffffffffffffffffffffffffffffffffffffff1673ffffffffffffffffffffffffffffffffffffffff1681526020019081526020015f205f6101000a81548160ff0219169083151502179055506106de61065b565b73ffffffffffffffffffffffffffffffffffffffff168273ffffffffffffffffffffffffffffffffffffffff16847ff6391f5c32d9c69d2a47ea670b442974b53935d1edc7fd64eb21e047a839171b60405160405180910390a460019050610745565b5f90505b92915050565b610755828261038c565b6107985780826040517fe2517d3f00000000000000000000000000000000000000000000000000000000815260040161078f929190610ad7565b60405180910390fd5b5050565b5f5ffd5b5f5ffd5b5f7fffffffff0000000000000000000000000000000000000000000000000000000082169050919050565b6107d8816107a4565b81146107e2575f5ffd5b50565b5f813590506107f3816107cf565b92915050565b5f6020828403121561080e5761080d61079c565b5b5f61081b848285016107e5565b91505092915050565b5f8115159050919050565b61083881610824565b82525050565b5f6020820190506108515f83018461082f565b92915050565b5f819050919050565b61086981610857565b8114610873575f5ffd5b50565b5f8135905061088481610860565b92915050565b5f6020828403121561089f5761089e61079c565b5b5f6108ac84828501610876565b91505092915050565b6108be81610857565b82525050565b5f6020820190506108d75f8301846108b5565b92915050565b5f73ffffffffffffffffffffffffffffffffffffffff82169050919050565b5f610906826108dd565b9050919050565b610916816108fc565b8114610920575f5ffd5b50565b5f813590506109318161090d565b92915050565b5f5f6040838503121561094d5761094c61079c565b5b5f61095a85828601610876565b925050602061096b85828601610923565b9150509250929050565b5f6020828403121561098a5761098961079c565b5b5f61099784828501610923565b91505092915050565b5f5ffd5b5f5ffd5b5f5ffd5b5f5f83601f8401126109c1576109c06109a0565b5b8235905067ffffffffffffffff8111156109de576109dd6109a4565b5b6020830191508360018202830111156109fa576109f96109a8565b5b9250929050565b5f5f60208385031215610a1757610a1661079c565b5b5f83013567ffffffffffffffff811115610a3457610a336107a0565b5b610a40858286016109ac565b92509250509250929050565b5f82825260208201905092915050565b828183375f83830152505050565b5f601f19601f8301169050919050565b5f610a858385610a4c565b9350610a92838584610a5c565b610a9b83610a6a565b840190509392505050565b5f6020820190508181035f830152610abf818486610a7a565b90509392505050565b610ad1816108fc565b82525050565b5f604082019050610aea5f830185610ac8565b610af760208301846108b5565b939250505056fea2646970667358221220ce1019f744890cbfeff24e75dc67711eaf10a94a96b665ec00a7bad7d71ce53e64736f6c634300081d0033",
			"opcodes": "PUSH1 0x80 PUSH1 0x40 MSTORE CALLVALUE DUP1 ISZERO PUSH2 0xF JUMPI PUSH0 PUSH0 REVERT JUMPDEST POP PUSH2 0x22 PUSH0 PUSH0 SHL CALLER PUSH2 0x59 PUSH1 0x20 SHL PUSH1 0x20 SHR JUMP JUMPDEST POP PUSH2 0x53 PUSH32 0xD8C214E8FE3974CD0E68507A1F4138675630648E8D5E9E21D8883F574E4055AB CALLER PUSH2 0x59 PUSH1 0x20 SHL PUSH1 0x20 SHR JUMP JUMPDEST POP PUSH2 0x1B8 JUMP JUMPDEST PUSH0 PUSH2 0x6A DUP4 DUP4 PUSH2 0x14E PUSH1 0x20 SHL PUSH1 0x20 SHR JUMP JUMPDEST PUSH2 0x144 JUMPI PUSH1 0x1 PUSH0 PUSH0 DUP6 DUP2 MSTORE PUSH1 0x20 ADD SWAP1 DUP2 MSTORE PUSH1 0x20 ADD PUSH0 KECCAK256 PUSH0 ADD PUSH0 DUP5 PUSH20 0xFFFFFFFFFFFFFFFFFFFFFFFFFFFFFFFFFFFFFFFF AND PUSH20 0xFFFFFFFFFFFFFFFFFFFFFFFFFFFFFFFFFFFFFFFF AND DUP2 MSTORE PUSH1 0x20 ADD SWAP1 DUP2 MSTORE PUSH1 0x20 ADD PUSH0 KECCAK256 PUSH0 PUSH2 0x100 EXP DUP2 SLOAD DUP2 PUSH1 0xFF MUL NOT AND SWAP1 DUP4 ISZERO ISZERO MUL OR SWAP1 SSTORE POP PUSH2 0xE1 PUSH2 0x1B1 PUSH1 0x20 SHL PUSH1 0x20 SHR JUMP JUMPDEST PUSH20 0xFFFFFFFFFFFFFFFFFFFFFFFFFFFFFFFFFFFFFFFF AND DUP3 PUSH20 0xFFFFFFFFFFFFFFFFFFFFFFFFFFFFFFFFFFFFFFFF AND DUP5 PUSH32 0x2F8788117E7EFF1D82E926EC794901D17C78024A50270940304540A733656F0D PUSH1 0x40 MLOAD PUSH1 0x40 MLOAD DUP1 SWAP2 SUB SWAP1 LOG4 PUSH1 0x1 SWAP1 POP PUSH2 0x148 JUMP JUMPDEST PUSH0 SWAP1 POP JUMPDEST SWAP3 SWAP2 POP POP JUMP JUMPDEST PUSH0 PUSH0 PUSH0 DUP5 DUP2 MSTORE PUSH1 0x20 ADD SWAP1 DUP2 MSTORE PUSH1 0x20 ADD PUSH0 KECCAK256 PUSH0 ADD PUSH0 DUP4 PUSH20 0xFFFFFFFFFFFFFFFFFFFFFFFFFFFFFFFFFFFFFFFF AND PUSH20 0xFFFFFFFFFFFFFFFFFFFFFFFFFFFFFFFFFFFFFFFF AND DUP2 MSTORE PUSH1 0x20 ADD SWAP1 DUP2 MSTORE PUSH1 0x20 ADD PUSH0 KECCAK256 PUSH0 SWAP1 SLOAD SWAP1 PUSH2 0x100 EXP SWAP1 DIV PUSH1 0xFF AND SWAP1 POP SWAP3 SWAP2 POP POP JUMP JUMPDEST PUSH0 CALLER SWAP1 POP SWAP1 JUMP JUMPDEST PUSH2 0xB34 DUP1 PUSH2 0x1C5 PUSH0 CODECOPY PUSH0 RETURN INVALID PUSH1 0x80 PUSH1 0x40 MSTORE CALLVALUE DUP1 ISZERO PUSH2 0xF JUMPI PUSH0 PUSH0 REVERT JUMPDEST POP PUSH1 0x4 CALLDATASIZE LT PUSH2 0xA7 JUMPI PUSH0 CALLDATALOAD PUSH1 0xE0 SHR DUP1 PUSH4 0x91D14854 GT PUSH2 0x6F JUMPI DUP1 PUSH4 0x91D14854 EQ PUSH2 0x15F JUMPI DUP1 PUSH4 0xA217FDDF EQ PUSH2 0x18F JUMPI DUP1 PUSH4 0xBC15B345 EQ PUSH2 0x1AD JUMPI DUP1 PUSH4 0xCA252A05 EQ PUSH2 0x1C9 JUMPI DUP1 PUSH4 0xD547741F EQ PUSH2 0x1E5 JUMPI DUP1 PUSH4 0xE4FB5FB8 EQ PUSH2 0x201 JUMPI PUSH2 0xA7 JUMP JUMPDEST DUP1 PUSH4 0x1FFC9A7 EQ PUSH2 0xAB JUMPI DUP1 PUSH4 0x248A9CA3 EQ PUSH2 0xDB JUMPI DUP1 PUSH4 0x2F2FF15D EQ PUSH2 0x10B JUMPI DUP1 PUSH4 0x36568ABE EQ PUSH2 0x127 JUMPI DUP1 PUSH4 0x6610A7FA EQ PUSH2 0x143 JUMPI JUMPDEST PUSH0 PUSH0 REVERT JUMPDEST PUSH2 0xC5 PUSH1 0x4 DUP1 CALLDATASIZE SUB DUP2 ADD SWAP1 PUSH2 0xC0 SWAP2 SWAP1 PUSH2 0x7F9 JUMP JUMPDEST PUSH2 0x21F JUMP JUMPDEST PUSH1 0x40 MLOAD PUSH2 0xD2 SWAP2 SWAP1 PUSH2 0x83E JUMP JUMPDEST PUSH1 0x40 MLOAD DUP1 SWAP2 SUB SWAP1 RETURN JUMPDEST PUSH2 0xF5 PUSH1 0x4 DUP1 CALLDATASIZE SUB DUP2 ADD SWAP1 PUSH2 0xF0 SWAP2 SWAP1 PUSH2 0x88A JUMP JUMPDEST PUSH2 0x298 JUMP JUMPDEST PUSH1 0x40 MLOAD PUSH2 0x102 SWAP2 SWAP1 PUSH2 0x8C4 JUMP JUMPDEST PUSH1 0x40 MLOAD DUP1 SWAP2 SUB SWAP1 RETURN JUMPDEST PUSH2 0x125 PUSH1 0x4 DUP1 CALLDATASIZE SUB DUP2 ADD SWAP1 PUSH2 0x120 SWAP2 SWAP1 PUSH2 0x937 JUMP JUMPDEST PUSH2 0x2B4 JUMP JUMPDEST STOP JUMPDEST PUSH2 0x141 PUSH1 0x4 DUP1 CALLDATASIZE SUB DUP2 ADD SWAP1 PUSH2 0x13C SWAP2 SWAP1 PUSH2 0x937 JUMP JUMPDEST PUSH2 0x2D6 JUMP JUMPDEST STOP JUMPDEST PUSH2 0x15D PUSH1 0x4 DUP1 CALLDATASIZE SUB DUP2 ADD SWAP1 PUSH2 0x158 SWAP2 SWAP1 PUSH2 0x975 JUMP JUMPDEST PUSH2 0x351 JUMP JUMPDEST STOP JUMPDEST PUSH2 0x179 PUSH1 0x4 DUP1 CALLDATASIZE SUB DUP2 ADD SWAP1 PUSH2 0x174 SWAP2 SWAP1 PUSH2 0x937 JUMP JUMPDEST PUSH2 0x38C JUMP JUMPDEST PUSH1 0x40 MLOAD PUSH2 0x186 SWAP2 SWAP1 PUSH2 0x83E JUMP JUMPDEST PUSH1 0x40 MLOAD DUP1 SWAP2 SUB SWAP1 RETURN JUMPDEST PUSH2 0x197 PUSH2 0x3EF JUMP JUMPDEST PUSH1 0x40 MLOAD PUSH2 0x1A4 SWAP2 SWAP1 PUSH2 0x8C4 JUMP JUMPDEST PUSH1 0x40 MLOAD DUP1 SWAP2 SUB SWAP1 RETURN JUMPDEST PUSH2 0x1C7 PUSH1 0x4 DUP1 CALLDATASIZE SUB DUP2 ADD SWAP1 PUSH2 0x1C2 SWAP2 SWAP1 PUSH2 0xA01 JUMP JUMPDEST PUSH2 0x3F5 JUMP JUMPDEST STOP JUMPDEST PUSH2 0x1E3 PUSH1 0x4 DUP1 CALLDATASIZE SUB DUP2 ADD SWAP1 PUSH2 0x1DE SWAP2 SWAP1 PUSH2 0x975 JUMP JUMPDEST PUSH2 0x474 JUMP JUMPDEST STOP JUMPDEST PUSH2 0x1FF PUSH1 0x4 DUP1 CALLDATASIZE SUB DUP2 ADD SWAP1 PUSH2 0x1FA SWAP2 SWAP1 PUSH2 0x937 JUMP JUMPDEST PUSH2 0x4AF JUMP JUMPDEST STOP JUMPDEST PUSH2 0x209 PUSH2 0x4D1 JUMP JUMPDEST PUSH1 0x40 MLOAD PUSH2 0x216 SWAP2 SWAP1 PUSH2 0x8C4 JUMP JUMPDEST PUSH1 0x40 MLOAD DUP1 SWAP2 SUB SWAP1 RETURN JUMPDEST PUSH0 PUSH32 0x7965DB0B00000000000000000000000000000000000000000000000000000000 PUSH28 0xFFFFFFFFFFFFFFFFFFFFFFFFFFFFFFFFFFFFFFFFFFFFFFFFFFFFFFFF NOT AND DUP3 PUSH28 0xFFFFFFFFFFFFFFFFFFFFFFFFFFFFFFFFFFFFFFFFFFFFFFFFFFFFFFFF NOT AND EQ DUP1 PUSH2 0x291 JUMPI POP PUSH2 0x290 DUP3 PUSH2 0x4F5 JUMP JUMPDEST JUMPDEST SWAP1 POP SWAP2 SWAP1 POP JUMP JUMPDEST PUSH0 PUSH0 PUSH0 DUP4 DUP2 MSTORE PUSH1 0x20 ADD SWAP1 DUP2 MSTORE PUSH1 0x20 ADD PUSH0 KECCAK256 PUSH1 0x1 ADD SLOAD SWAP1 POP SWAP2 SWAP1 POP JUMP JUMPDEST PUSH2 0x2BD DUP3 PUSH2 0x298 JUMP JUMPDEST PUSH2 0x2C6 DUP2 PUSH2 0x55E JUMP JUMPDEST PUSH2 0x2D0 DUP4 DUP4 PUSH2 0x572 JUMP JUMPDEST POP POP POP POP JUMP JUMPDEST PUSH2 0x2DE PUSH2 0x65B JUMP JUMPDEST PUSH20 0xFFFFFFFFFFFFFFFFFFFFFFFFFFFFFFFFFFFFFFFF AND DUP2 PUSH20 0xFFFFFFFFFFFFFFFFFFFFFFFFFFFFFFFFFFFFFFFF AND EQ PUSH2 0x342 JUMPI PUSH1 0x40 MLOAD PUSH32 0x6697B23200000000000000000000000000000000000000000000000000000000 DUP2 MSTORE PUSH1 0x4 ADD PUSH1 0x40 MLOAD DUP1 SWAP2 SUB SWAP1 REVERT JUMPDEST PUSH2 0x34C DUP3 DUP3 PUSH2 0x662 JUMP JUMPDEST POP POP POP JUMP JUMPDEST PUSH0 PUSH0 SHL PUSH2 0x35D DUP2 PUSH2 0x55E JUMP JUMPDEST PUSH2 0x387 PUSH32 0xD8C214E8FE3974CD0E68507A1F4138675630648E8D5E9E21D8883F574E4055AB DUP4 PUSH2 0x572 JUMP JUMPDEST POP POP POP JUMP JUMPDEST PUSH0 PUSH0 PUSH0 DUP5 DUP2 MSTORE PUSH1 0x20 ADD SWAP1 DUP2 MSTORE PUSH1 0x20 ADD PUSH0 KECCAK256 PUSH0 ADD PUSH0 DUP4 PUSH20 0xFFFFFFFFFFFFFFFFFFFFFFFFFFFFFFFFFFFFFFFF AND PUSH20 0xFFFFFFFFFFFFFFFFFFFFFFFFFFFFFFFFFFFFFFFF AND DUP2 MSTORE PUSH1 0x20 ADD SWAP1 DUP2 MSTORE PUSH1 0x20 ADD PUSH0 KECCAK256 PUSH0 SWAP1 SLOAD SWAP1 PUSH2 0x100 EXP SWAP1 DIV PUSH1 0xFF AND SWAP1 POP SWAP3 SWAP2 POP POP JUMP JUMPDEST PUSH0 PUSH0 SHL DUP2 JUMP JUMPDEST PUSH32 0xD8C214E8FE3974CD0E68507A1F4138675630648E8D5E9E21D8883F574E4055AB PUSH2 0x41F DUP2 PUSH2 0x55E JUMP JUMPDEST CALLER PUSH20 0xFFFFFFFFFFFFFFFFFFFFFFFFFFFFFFFFFFFFFFFF AND PUSH32 0x36F402F0CAA225AD2B9E875D54C6DCA0092AE00FF103ABCF23A65C0A612AE21E DUP5 DUP5 PUSH1 0x40 MLOAD PUSH2 0x467 SWAP3 SWAP2 SWAP1 PUSH2 0xAA6 JUMP JUMPDEST PUSH1 0x40 MLOAD DUP1 SWAP2 SUB SWAP1 LOG2 POP POP POP JUMP JUMPDEST PUSH0 PUSH0 SHL PUSH2 0x480 DUP2 PUSH2 0x55E JUMP JUMPDEST PUSH2 0x4AA PUSH32 0xD8C214E8FE3974CD0E68507A1F4138675630648E8D5E9E21D8883F574E4055AB DUP4 PUSH2 0x662 JUMP JUMPDEST POP POP POP JUMP JUMPDEST PUSH2 0x4B8 DUP3 PUSH2 0x298 JUMP JUMPDEST PUSH2 0x4C1 DUP2 PUSH2 0x55E JUMP JUMPDEST PUSH2 0x4CB DUP4 DUP4 PUSH2 0x662 JUMP JUMPDEST POP POP POP POP JUMP JUMPDEST PUSH32 0xD8C214E8FE3974CD0E68507A1F4138675630648E8D5E9E21D8883F574E4055AB DUP2 JUMP JUMPDEST PUSH0 PUSH32 0x1FFC9A700000000000000000000000000000000000000000000000000000000 PUSH28 0xFFFFFFFFFFFFFFFFFFFFFFFFFFFFFFFFFFFFFFFFFFFFFFFFFFFFFFFF NOT AND DUP3 PUSH28 0xFFFFFFFFFFFFFFFFFFFFFFFFFFFFFFFFFFFFFFFFFFFFFFFFFFFFFFFF NOT AND EQ SWAP1 POP SWAP2 SWAP1 POP JUMP JUMPDEST PUSH2 0x56F DUP2 PUSH2 0x56A PUSH2 0x65B JUMP JUMPDEST PUSH2 0x74B JUMP JUMPDEST POP JUMP JUMPDEST PUSH0 PUSH2 0x57D DUP4 DUP4 PUSH2 0x38C JUMP JUMPDEST PUSH2 0x651 JUMPI PUSH1 0x1 PUSH0 PUSH0 DUP6 DUP2 MSTORE PUSH1 0x20 ADD SWAP1 DUP2 MSTORE PUSH1 0x20 ADD PUSH0 KECCAK256 PUSH0 ADD PUSH0 DUP5 PUSH20 0xFFFFFFFFFFFFFFFFFFFFFFFFFFFFFFFFFFFFFFFF AND PUSH20 0xFFFFFFFFFFFFFFFFFFFFFFFFFFFFFFFFFFFFFFFF AND DUP2 MSTORE PUSH1 0x20 ADD SWAP1 DUP2 MSTORE PUSH1 0x20 ADD PUSH0 KECCAK256 PUSH0 PUSH2 0x100 EXP DUP2 SLOAD DUP2 PUSH1 0xFF MUL NOT AND SWAP1 DUP4 ISZERO ISZERO MUL OR SWAP1 SSTORE POP PUSH2 0x5EE PUSH2 0x65B JUMP JUMPDEST PUSH20 0xFFFFFFFFFFFFFFFFFFFFFFFFFFFFFFFFFFFFFFFF AND DUP3 PUSH20 0xFFFFFFFFFFFFFFFFFFFFFFFFFFFFFFFFFFFFFFFF AND DUP5 PUSH32 0x2F8788117E7EFF1D82E926EC794901D17C78024A50270940304540A733656F0D PUSH1 0x40 MLOAD PUSH1 0x40 MLOAD DUP1 SWAP2 SUB SWAP1 LOG4 PUSH1 0x1 SWAP1 POP PUSH2 0x655 JUMP JUMPDEST PUSH0 SWAP1 POP JUMPDEST SWAP3 SWAP2 POP POP JUMP JUMPDEST PUSH0 CALLER SWAP1 POP SWAP1 JUMP JUMPDEST PUSH0 PUSH2 0x66D DUP4 DUP4 PUSH2 0x38C JUMP JUMPDEST ISZERO PUSH2 0x741 JUMPI PUSH0 PUSH0 PUSH0 DUP6 DUP2 MSTORE PUSH1 0x20 ADD SWAP1 DUP2 MSTORE PUSH1 0x20 ADD PUSH0 KECCAK256 PUSH0 ADD PUSH0 DUP5 PUSH20 0xFFFFFFFFFFFFFFFFFFFFFFFFFFFFFFFFFFFFFFFF AND PUSH20 0xFFFFFFFFFFFFFFFFFFFFFFFFFFFFFFFFFFFFFFFF AND DUP2 MSTORE PUSH1 0x20 ADD SWAP1 DUP2 MSTORE PUSH1 0x20 ADD PUSH0 KECCAK256 PUSH0 PUSH2 0x100 EXP DUP2 SLOAD DUP2 PUSH1 0xFF MUL NOT AND SWAP1 DUP4 ISZERO ISZERO MUL OR SWAP1 SSTORE POP PUSH2 0x6DE PUSH2 0x65B JUMP JUMPDEST PUSH20 0xFFFFFFFFFFFFFFFFFFFFFFFFFFFFFFFFFFFFFFFF AND DUP3 PUSH20 0xFFFFFFFFFFFFFFFFFFFFFFFFFFFFFFFFFFFFFFFF AND DUP5 PUSH32 0xF6391F5C32D9C69D2A47EA670B442974B53935D1EDC7FD64EB21E047A839171B PUSH1 0x40 MLOAD PUSH1 0x40 MLOAD DUP1 SWAP2 SUB SWAP1 LOG4 PUSH1 0x1 SWAP1 POP PUSH2 0x745 JUMP JUMPDEST PUSH0 SWAP1 POP JUMPDEST SWAP3 SWAP2 POP POP JUMP JUMPDEST PUSH2 0x755 DUP3 DUP3 PUSH2 0x38C JUMP JUMPDEST PUSH2 0x798 JUMPI DUP1 DUP3 PUSH1 0x40 MLOAD PUSH32 0xE2517D3F00000000000000000000000000000000000000000000000000000000 DUP2 MSTORE PUSH1 0x4 ADD PUSH2 0x78F SWAP3 SWAP2 SWAP1 PUSH2 0xAD7 JUMP JUMPDEST PUSH1 0x40 MLOAD DUP1 SWAP2 SUB SWAP1 REVERT JUMPDEST POP POP JUMP JUMPDEST PUSH0 PUSH0 REVERT JUMPDEST PUSH0 PUSH0 REVERT JUMPDEST PUSH0 PUSH32 0xFFFFFFFF00000000000000000000000000000000000000000000000000000000 DUP3 AND SWAP1 POP SWAP2 SWAP1 POP JUMP JUMPDEST PUSH2 0x7D8 DUP2 PUSH2 0x7A4 JUMP JUMPDEST DUP2 EQ PUSH2 0x7E2 JUMPI PUSH0 PUSH0 REVERT JUMPDEST POP JUMP JUMPDEST PUSH0 DUP2 CALLDATALOAD SWAP1 POP PUSH2 0x7F3 DUP2 PUSH2 0x7CF JUMP JUMPDEST SWAP3 SWAP2 POP POP JUMP JUMPDEST PUSH0 PUSH1 0x20 DUP3 DUP5 SUB SLT ISZERO PUSH2 0x80E JUMPI PUSH2 0x80D PUSH2 0x79C JUMP JUMPDEST JUMPDEST PUSH0 PUSH2 0x81B DUP5 DUP3 DUP6 ADD PUSH2 0x7E5 JUMP JUMPDEST SWAP2 POP POP SWAP3 SWAP2 POP POP JUMP JUMPDEST PUSH0 DUP2 ISZERO ISZERO SWAP1 POP SWAP2 SWAP1 POP JUMP JUMPDEST PUSH2 0x838 DUP2 PUSH2 0x824 JUMP JUMPDEST DUP3 MSTORE POP POP JUMP JUMPDEST PUSH0 PUSH1 0x20 DUP3 ADD SWAP1 POP PUSH2 0x851 PUSH0 DUP4 ADD DUP5 PUSH2 0x82F JUMP JUMPDEST SWAP3 SWAP2 POP POP JUMP JUMPDEST PUSH0 DUP2 SWAP1 POP SWAP2 SWAP1 POP JUMP JUMPDEST PUSH2 0x869 DUP2 PUSH2 0x857 JUMP JUMPDEST DUP2 EQ PUSH2 0x873 JUMPI PUSH0 PUSH0 REVERT JUMPDEST POP JUMP JUMPDEST PUSH0 DUP2 CALLDATALOAD SWAP1 POP PUSH2 0x884 DUP2 PUSH2 0x860 JUMP JUMPDEST SWAP3 SWAP2 POP POP JUMP JUMPDEST PUSH0 PUSH1 0x20 DUP3 DUP5 SUB SLT ISZERO PUSH2 0x89F JUMPI PUSH2 0x89E PUSH2 0x79C JUMP JUMPDEST JUMPDEST PUSH0 PUSH2 0x8AC DUP5 DUP3 DUP6 ADD PUSH2 0x876 JUMP JUMPDEST SWAP2 POP POP SWAP3 SWAP2 POP POP JUMP JUMPDEST PUSH2 0x8BE DUP2 PUSH2 0x857 JUMP JUMPDEST DUP3 MSTORE POP POP JUMP JUMPDEST PUSH0 PUSH1 0x20 DUP3 ADD SWAP1 POP PUSH2 0x8D7 PUSH0 DUP4 ADD DUP5 PUSH2 0x8B5 JUMP JUMPDEST SWAP3 SWAP2 POP POP JUMP JUMPDEST PUSH0 PUSH20 0xFFFFFFFFFFFFFFFFFFFFFFFFFFFFFFFFFFFFFFFF DUP3 AND SWAP1 POP SWAP2 SWAP1 POP JUMP JUMPDEST PUSH0 PUSH2 0x906 DUP3 PUSH2 0x8DD JUMP JUMPDEST SWAP1 POP SWAP2 SWAP1 POP JUMP JUMPDEST PUSH2 0x916 DUP2 PUSH2 0x8FC JUMP JUMPDEST DUP2 EQ PUSH2 0x920 JUMPI PUSH0 PUSH0 REVERT JUMPDEST POP JUMP JUMPDEST PUSH0 DUP2 CALLDATALOAD SWAP1 POP PUSH2 0x931 DUP2 PUSH2 0x90D JUMP JUMPDEST SWAP3 SWAP2 POP POP JUMP JUMPDEST PUSH0 PUSH0 PUSH1 0x40 DUP4 DUP6 SUB SLT ISZERO PUSH2 0x94D JUMPI PUSH2 0x94C PUSH2 0x79C JUMP JUMPDEST JUMPDEST PUSH0 PUSH2 0x95A DUP6 DUP3 DUP7 ADD PUSH2 0x876 JUMP JUMPDEST SWAP3 POP POP PUSH1 0x20 PUSH2 0x96B DUP6 DUP3 DUP7 ADD PUSH2 0x923 JUMP JUMPDEST SWAP2 POP POP SWAP3 POP SWAP3 SWAP1 POP JUMP JUMPDEST PUSH0 PUSH1 0x20 DUP3 DUP5 SUB SLT ISZERO PUSH2 0x98A JUMPI PUSH2 0x989 PUSH2 0x79C JUMP JUMPDEST JUMPDEST PUSH0 PUSH2 0x997 DUP5 DUP3 DUP6 ADD PUSH2 0x923 JUMP JUMPDEST SWAP2 POP POP SWAP3 SWAP2 POP POP JUMP JUMPDEST PUSH0 PUSH0 REVERT JUMPDEST PUSH0 PUSH0 REVERT JUMPDEST PUSH0 PUSH0 REVERT JUMPDEST PUSH0 PUSH0 DUP4 PUSH1 0x1F DUP5 ADD SLT PUSH2 0x9C1 JUMPI PUSH2 0x9C0 PUSH2 0x9A0 JUMP JUMPDEST JUMPDEST DUP3 CALLDATALOAD SWAP1 POP PUSH8 0xFFFFFFFFFFFFFFFF DUP2 GT ISZERO PUSH2 0x9DE JUMPI PUSH2 0x9DD PUSH2 0x9A4 JUMP JUMPDEST JUMPDEST PUSH1 0x20 DUP4 ADD SWAP2 POP DUP4 PUSH1 0x1 DUP3 MUL DUP4 ADD GT ISZERO PUSH2 0x9FA JUMPI PUSH2 0x9F9 PUSH2 0x9A8 JUMP JUMPDEST JUMPDEST SWAP3 POP SWAP3 SWAP1 POP JUMP JUMPDEST PUSH0 PUSH0 PUSH1 0x20 DUP4 DUP6 SUB SLT ISZERO PUSH2 0xA17 JUMPI PUSH2 0xA16 PUSH2 0x79C JUMP JUMPDEST JUMPDEST PUSH0 DUP4 ADD CALLDATALOAD PUSH8 0xFFFFFFFFFFFFFFFF DUP2 GT ISZERO PUSH2 0xA34 JUMPI PUSH2 0xA33 PUSH2 0x7A0 JUMP JUMPDEST JUMPDEST PUSH2 0xA40 DUP6 DUP3 DUP7 ADD PUSH2 0x9AC JUMP JUMPDEST SWAP3 POP SWAP3 POP POP SWAP3 POP SWAP3 SWAP1 POP JUMP JUMPDEST PUSH0 DUP3 DUP3 MSTORE PUSH1 0x20 DUP3 ADD SWAP1 POP SWAP3 SWAP2 POP POP JUMP JUMPDEST DUP3 DUP2 DUP4 CALLDATACOPY PUSH0 DUP4 DUP4 ADD MSTORE POP POP POP JUMP JUMPDEST PUSH0 PUSH1 0x1F NOT PUSH1 0x1F DUP4 ADD AND SWAP1 POP SWAP2 SWAP1 POP JUMP JUMPDEST PUSH0 PUSH2 0xA85 DUP4 DUP6 PUSH2 0xA4C JUMP JUMPDEST SWAP4 POP PUSH2 0xA92 DUP4 DUP6 DUP5 PUSH2 0xA5C JUMP JUMPDEST PUSH2 0xA9B DUP4 PUSH2 0xA6A JUMP JUMPDEST DUP5 ADD SWAP1 POP SWAP4 SWAP3 POP POP POP JUMP JUMPDEST PUSH0 PUSH1 0x20 DUP3 ADD SWAP1 POP DUP2 DUP2 SUB PUSH0 DUP4 ADD MSTORE PUSH2 0xABF DUP2 DUP5 DUP7 PUSH2 0xA7A JUMP JUMPDEST SWAP1 POP SWAP4 SWAP3 POP POP POP JUMP JUMPDEST PUSH2 0xAD1 DUP2 PUSH2 0x8FC JUMP JUMPDEST DUP3 MSTORE POP POP JUMP JUMPDEST PUSH0 PUSH1 0x40 DUP3 ADD SWAP1 POP PUSH2 0xAEA PUSH0 DUP4 ADD DUP6 PUSH2 0xAC8 JUMP JUMPDEST PUSH2 0xAF7 PUSH1 0x20 DUP4 ADD DUP5 PUSH2 0x8B5 JUMP JUMPDEST SWAP4 SWAP3 POP POP POP JUMP INVALID LOG2 PUSH5 0x6970667358 0x22 SLT KECCAK256 0xCE LT NOT 0xF7 PREVRANDAO DUP10 0xC 0xBF 0xEF CALLCODE 0x4E PUSH22 0xDC67711EAF10A94A96B665EC00A7BAD7D71CE53E6473 PUSH16 0x6C634300081D00330000000000000000 "
		},
		"gasEstimates": {
			"creation": {
				"codeDepositCost": "573600",
				"executionCost": "infinite",
				"totalCost": "infinite"
			},
			"external": {
				"BLUE_TEAM_ROLE()": "435",
				"DEFAULT_ADMIN_ROLE()": "351",
				"addBlueTeamMember(address)": "infinite",
				"getRoleAdmin(bytes32)": "infinite",
				"grantRole(bytes32,address)": "infinite",
				"hasRole(bytes32,address)": "3120",
				"removeBlueTeamMember(address)": "infinite",
				"renounceRole(bytes32,address)": "infinite",
				"respondToAlert(string)": "infinite",
				"revokeRole(bytes32,address)": "infinite",
				"supportsInterface(bytes4)": "718"
			}
		},
		"methodIdentifiers": {
			"BLUE_TEAM_ROLE()": "e4fb5fb8",
			"DEFAULT_ADMIN_ROLE()": "a217fddf",
			"addBlueTeamMember(address)": "6610a7fa",
			"getRoleAdmin(bytes32)": "248a9ca3",
			"grantRole(bytes32,address)": "2f2ff15d",
			"hasRole(bytes32,address)": "91d14854",
			"removeBlueTeamMember(address)": "ca252a05",
			"renounceRole(bytes32,address)": "36568abe",
			"respondToAlert(string)": "bc15b345",
			"revokeRole(bytes32,address)": "d547741f",
			"supportsInterface(bytes4)": "01ffc9a7"
		}
	},
	"abi": [
		{
			"inputs": [],
			"stateMutability": "nonpayable",
			"type": "constructor"
		},
		{
			"inputs": [],
			"name": "AccessControlBadConfirmation",
			"type": "error"
		},
		{
			"inputs": [
				{
					"internalType": "address",
					"name": "account",
					"type": "address"
				},
				{
					"internalType": "bytes32",
					"name": "neededRole",
					"type": "bytes32"
				}
			],
			"name": "AccessControlUnauthorizedAccount",
			"type": "error"
		},
		{
			"anonymous": false,
			"inputs": [
				{
					"indexed": true,
					"internalType": "address",
					"name": "analyst",
					"type": "address"
				},
				{
					"indexed": false,
					"internalType": "string",
					"name": "actionTaken",
					"type": "string"
				}
			],
			"name": "AlertHandled",
			"type": "event"
		},
		{
			"anonymous": false,
			"inputs": [
				{
					"indexed": true,
					"internalType": "bytes32",
					"name": "role",
					"type": "bytes32"
				},
				{
					"indexed": true,
					"internalType": "bytes32",
					"name": "previousAdminRole",
					"type": "bytes32"
				},
				{
					"indexed": true,
					"internalType": "bytes32",
					"name": "newAdminRole",
					"type": "bytes32"
				}
			],
			"name": "RoleAdminChanged",
			"type": "event"
		},
		{
			"anonymous": false,
			"inputs": [
				{
					"indexed": true,
					"internalType": "bytes32",
					"name": "role",
					"type": "bytes32"
				},
				{
					"indexed": true,
					"internalType": "address",
					"name": "account",
					"type": "address"
				},
				{
					"indexed": true,
					"internalType": "address",
					"name": "sender",
					"type": "address"
				}
			],
			"name": "RoleGranted",
			"type": "event"
		},
		{
			"anonymous": false,
			"inputs": [
				{
					"indexed": true,
					"internalType": "bytes32",
					"name": "role",
					"type": "bytes32"
				},
				{
					"indexed": true,
					"internalType": "address",
					"name": "account",
					"type": "address"
				},
				{
					"indexed": true,
					"internalType": "address",
					"name": "sender",
					"type": "address"
				}
			],
			"name": "RoleRevoked",
			"type": "event"
		},
		{
			"inputs": [],
			"name": "BLUE_TEAM_ROLE",
			"outputs": [
				{
					"internalType": "bytes32",
					"name": "",
					"type": "bytes32"
				}
			],
			"stateMutability": "view",
			"type": "function"
		},
		{
			"inputs": [],
			"name": "DEFAULT_ADMIN_ROLE",
			"outputs": [
				{
					"internalType": "bytes32",
					"name": "",
					"type": "bytes32"
				}
			],
			"stateMutability": "view",
			"type": "function"
		},
		{
			"inputs": [
				{
					"internalType": "address",
					"name": "analyst",
					"type": "address"
				}
			],
			"name": "addBlueTeamMember",
			"outputs": [],
			"stateMutability": "nonpayable",
			"type": "function"
		},
		{
			"inputs": [
				{
					"internalType": "bytes32",
					"name": "role",
					"type": "bytes32"
				}
			],
			"name": "getRoleAdmin",
			"outputs": [
				{
					"internalType": "bytes32",
					"name": "",
					"type": "bytes32"
				}
			],
			"stateMutability": "view",
			"type": "function"
		},
		{
			"inputs": [
				{
					"internalType": "bytes32",
					"name": "role",
					"type": "bytes32"
				},
				{
					"internalType": "address",
					"name": "account",
					"type": "address"
				}
			],
			"name": "grantRole",
			"outputs": [],
			"stateMutability": "nonpayable",
			"type": "function"
		},
		{
			"inputs": [
				{
					"internalType": "bytes32",
					"name": "role",
					"type": "bytes32"
				},
				{
					"internalType": "address",
					"name": "account",
					"type": "address"
				}
			],
			"name": "hasRole",
			"outputs": [
				{
					"internalType": "bool",
					"name": "",
					"type": "bool"
				}
			],
			"stateMutability": "view",
			"type": "function"
		},
		{
			"inputs": [
				{
					"internalType": "address",
					"name": "analyst",
					"type": "address"
				}
			],
			"name": "removeBlueTeamMember",
			"outputs": [],
			"stateMutability": "nonpayable",
			"type": "function"
		},
		{
			"inputs": [
				{
					"internalType": "bytes32",
					"name": "role",
					"type": "bytes32"
				},
				{
					"internalType": "address",
					"name": "callerConfirmation",
					"type": "address"
				}
			],
			"name": "renounceRole",
			"outputs": [],
			"stateMutability": "nonpayable",
			"type": "function"
		},
		{
			"inputs": [
				{
					"internalType": "string",
					"name": "action",
					"type": "string"
				}
			],
			"name": "respondToAlert",
			"outputs": [],
			"stateMutability": "nonpayable",
			"type": "function"
		},
		{
			"inputs": [
				{
					"internalType": "bytes32",
					"name": "role",
					"type": "bytes32"
				},
				{
					"internalType": "address",
					"name": "account",
					"type": "address"
				}
			],
			"name": "revokeRole",
			"outputs": [],
			"stateMutability": "nonpayable",
			"type": "function"
		},
		{
			"inputs": [
				{
					"internalType": "bytes4",
					"name": "interfaceId",
					"type": "bytes4"
				}
			],
			"name": "supportsInterface",
			"outputs": [
				{
					"internalType": "bool",
					"name": "",
					"type": "bool"
				}
			],
			"stateMutability": "view",
			"type": "function"
		}
	]
}