{
	"C/Confidentiality/Off-Chain Encryption On-Chain Hash or ZK Approach.sol": {
		"CommitmentStorage": {
			"abi": [
				{
					"anonymous": false,
					"inputs": [
						{
							"indexed": true,
							"internalType": "address",
							"name": "user",
							"type": "address"
						},
						{
							"indexed": false,
							"internalType": "bytes32",
							"name": "commitment",
							"type": "bytes32"
						}
					],
					"name": "SecretCommitted",
					"type": "event"
				},
				{
					"inputs": [
						{
							"internalType": "bytes32",
							"name": "commitment",
							"type": "bytes32"
						}
					],
					"name": "commitSecret",
					"outputs": [],
					"stateMutability": "nonpayable",
					"type": "function"
				},
				{
					"inputs": [
						{
							"internalType": "address",
							"name": "",
							"type": "address"
						}
					],
					"name": "commitments",
					"outputs": [
						{
							"internalType": "bytes32",
							"name": "",
							"type": "bytes32"
						}
					],
					"stateMutability": "view",
					"type": "function"
				},
				{
					"inputs": [
						{
							"internalType": "string",
							"name": "secret",
							"type": "string"
						},
						{
							"internalType": "bytes32",
							"name": "salt",
							"type": "bytes32"
						}
					],
					"name": "reveal",
					"outputs": [
						{
							"internalType": "bool",
							"name": "",
							"type": "bool"
						}
					],
					"stateMutability": "view",
					"type": "function"
				}
			],
			"devdoc": {
				"kind": "dev",
				"methods": {
					"commitSecret(bytes32)": {
						"details": "User commits the hash of their secret (secret + salt)."
					},
					"reveal(string,bytes32)": {
						"details": "(Optional) verify the secret off-chain or reveal in a commit-reveal scheme."
					}
				},
				"version": 1
			},
			"evm": {
				"assembly": "    /* \"C/Confidentiality/Off-Chain Encryption On-Chain Hash or ZK Approach.sol\":203:1098  contract CommitmentStorage {... */\n  mstore(0x40, 0x80)\n  callvalue\n  dup1\n  iszero\n  tag_1\n  jumpi\n  0x00\n  dup1\n  revert\ntag_1:\n  pop\n  dataSize(sub_0)\n  dup1\n  dataOffset(sub_0)\n  0x00\n  codecopy\n  0x00\n  return\nstop\n\nsub_0: assembly {\n        /* \"C/Confidentiality/Off-Chain Encryption On-Chain Hash or ZK Approach.sol\":203:1098  contract CommitmentStorage {... */\n      mstore(0x40, 0x80)\n      callvalue\n      dup1\n      iszero\n      tag_1\n      jumpi\n      0x00\n      dup1\n      revert\n    tag_1:\n      pop\n      jumpi(tag_2, lt(calldatasize, 0x04))\n      shr(0xe0, calldataload(0x00))\n      dup1\n      0xe8fcf723\n      eq\n      tag_3\n      jumpi\n      dup1\n      0xea9384fa\n      eq\n      tag_4\n      jumpi\n      dup1\n      0xfa752516\n      eq\n      tag_5\n      jumpi\n    tag_2:\n      0x00\n      dup1\n      revert\n        /* \"C/Confidentiality/Off-Chain Encryption On-Chain Hash or ZK Approach.sol\":316:362  mapping(address => bytes32) public commitments */\n    tag_3:\n      tag_6\n      0x04\n      dup1\n      calldatasize\n      sub\n      dup2\n      add\n      swap1\n      tag_7\n      swap2\n      swap1\n      tag_8\n      jump\t// in\n    tag_7:\n      tag_9\n      jump\t// in\n    tag_6:\n      mload(0x40)\n      tag_10\n      swap2\n      swap1\n      tag_11\n      jump\t// in\n    tag_10:\n      mload(0x40)\n      dup1\n      swap2\n      sub\n      swap1\n      return\n        /* \"C/Confidentiality/Off-Chain Encryption On-Chain Hash or ZK Approach.sol\":790:1096  function reveal(... */\n    tag_4:\n      tag_12\n      0x04\n      dup1\n      calldatasize\n      sub\n      dup2\n      add\n      swap1\n      tag_13\n      swap2\n      swap1\n      tag_14\n      jump\t// in\n    tag_13:\n      tag_15\n      jump\t// in\n    tag_12:\n      mload(0x40)\n      tag_16\n      swap2\n      swap1\n      tag_17\n      jump\t// in\n    tag_16:\n      mload(0x40)\n      dup1\n      swap2\n      sub\n      swap1\n      return\n        /* \"C/Confidentiality/Off-Chain Encryption On-Chain Hash or ZK Approach.sol\":522:680  function commitSecret(bytes32 commitment) external {... */\n    tag_5:\n      tag_18\n      0x04\n      dup1\n      calldatasize\n      sub\n      dup2\n      add\n      swap1\n      tag_19\n      swap2\n      swap1\n      tag_20\n      jump\t// in\n    tag_19:\n      tag_21\n      jump\t// in\n    tag_18:\n      stop\n        /* \"C/Confidentiality/Off-Chain Encryption On-Chain Hash or ZK Approach.sol\":316:362  mapping(address => bytes32) public commitments */\n    tag_9:\n      mstore(0x20, 0x00)\n      dup1\n      0x00\n      mstore\n      keccak256(0x00, 0x40)\n      0x00\n      swap2\n      pop\n      swap1\n      pop\n      sload\n      dup2\n      jump\t// out\n        /* \"C/Confidentiality/Off-Chain Encryption On-Chain Hash or ZK Approach.sol\":790:1096  function reveal(... */\n    tag_15:\n        /* \"C/Confidentiality/Off-Chain Encryption On-Chain Hash or ZK Approach.sol\":889:893  bool */\n      0x00\n        /* \"C/Confidentiality/Off-Chain Encryption On-Chain Hash or ZK Approach.sol\":969:982  bytes32 check */\n      dup1\n        /* \"C/Confidentiality/Off-Chain Encryption On-Chain Hash or ZK Approach.sol\":1012:1018  secret */\n      dup5\n      dup5\n        /* \"C/Confidentiality/Off-Chain Encryption On-Chain Hash or ZK Approach.sol\":1020:1024  salt */\n      dup5\n        /* \"C/Confidentiality/Off-Chain Encryption On-Chain Hash or ZK Approach.sol\":1026:1036  msg.sender */\n      caller\n        /* \"C/Confidentiality/Off-Chain Encryption On-Chain Hash or ZK Approach.sol\":995:1037  abi.encodePacked(secret, salt, msg.sender) */\n      add(0x20, mload(0x40))\n      tag_23\n      swap5\n      swap4\n      swap3\n      swap2\n      swap1\n      tag_24\n      jump\t// in\n    tag_23:\n      mload(0x40)\n      0x20\n      dup2\n      dup4\n      sub\n      sub\n      dup2\n      mstore\n      swap1\n      0x40\n      mstore\n        /* \"C/Confidentiality/Off-Chain Encryption On-Chain Hash or ZK Approach.sol\":985:1038  keccak256(abi.encodePacked(secret, salt, msg.sender)) */\n      dup1\n      mload\n      swap1\n      0x20\n      add\n      keccak256\n        /* \"C/Confidentiality/Off-Chain Encryption On-Chain Hash or ZK Approach.sol\":969:1038  bytes32 check = keccak256(abi.encodePacked(secret, salt, msg.sender)) */\n      swap1\n      pop\n        /* \"C/Confidentiality/Off-Chain Encryption On-Chain Hash or ZK Approach.sol\":1065:1076  commitments */\n      0x00\n        /* \"C/Confidentiality/Off-Chain Encryption On-Chain Hash or ZK Approach.sol\":1065:1088  commitments[msg.sender] */\n      dup1\n        /* \"C/Confidentiality/Off-Chain Encryption On-Chain Hash or ZK Approach.sol\":1077:1087  msg.sender */\n      caller\n        /* \"C/Confidentiality/Off-Chain Encryption On-Chain Hash or ZK Approach.sol\":1065:1088  commitments[msg.sender] */\n      0xffffffffffffffffffffffffffffffffffffffff\n      and\n      0xffffffffffffffffffffffffffffffffffffffff\n      and\n      dup2\n      mstore\n      0x20\n      add\n      swap1\n      dup2\n      mstore\n      0x20\n      add\n      0x00\n      keccak256\n      sload\n        /* \"C/Confidentiality/Off-Chain Encryption On-Chain Hash or ZK Approach.sol\":1056:1061  check */\n      dup2\n        /* \"C/Confidentiality/Off-Chain Encryption On-Chain Hash or ZK Approach.sol\":1056:1088  check == commitments[msg.sender] */\n      eq\n        /* \"C/Confidentiality/Off-Chain Encryption On-Chain Hash or ZK Approach.sol\":1048:1089  return (check == commitments[msg.sender]) */\n      swap2\n      pop\n      pop\n        /* \"C/Confidentiality/Off-Chain Encryption On-Chain Hash or ZK Approach.sol\":790:1096  function reveal(... */\n      swap4\n      swap3\n      pop\n      pop\n      pop\n      jump\t// out\n        /* \"C/Confidentiality/Off-Chain Encryption On-Chain Hash or ZK Approach.sol\":522:680  function commitSecret(bytes32 commitment) external {... */\n    tag_21:\n        /* \"C/Confidentiality/Off-Chain Encryption On-Chain Hash or ZK Approach.sol\":609:619  commitment */\n      dup1\n        /* \"C/Confidentiality/Off-Chain Encryption On-Chain Hash or ZK Approach.sol\":583:594  commitments */\n      0x00\n        /* \"C/Confidentiality/Off-Chain Encryption On-Chain Hash or ZK Approach.sol\":583:606  commitments[msg.sender] */\n      dup1\n        /* \"C/Confidentiality/Off-Chain Encryption On-Chain Hash or ZK Approach.sol\":595:605  msg.sender */\n      caller\n        /* \"C/Confidentiality/Off-Chain Encryption On-Chain Hash or ZK Approach.sol\":583:606  commitments[msg.sender] */\n      0xffffffffffffffffffffffffffffffffffffffff\n      and\n      0xffffffffffffffffffffffffffffffffffffffff\n      and\n      dup2\n      mstore\n      0x20\n      add\n      swap1\n      dup2\n      mstore\n      0x20\n      add\n      0x00\n      keccak256\n        /* \"C/Confidentiality/Off-Chain Encryption On-Chain Hash or ZK Approach.sol\":583:619  commitments[msg.sender] = commitment */\n      dup2\n      swap1\n      sstore\n      pop\n        /* \"C/Confidentiality/Off-Chain Encryption On-Chain Hash or ZK Approach.sol\":650:660  msg.sender */\n      caller\n        /* \"C/Confidentiality/Off-Chain Encryption On-Chain Hash or ZK Approach.sol\":634:673  SecretCommitted(msg.sender, commitment) */\n      0xffffffffffffffffffffffffffffffffffffffff\n      and\n      0x4f8fff0fbe24639469da3d25cb3411ee23c71baf89187a90541fab29f5324739\n        /* \"C/Confidentiality/Off-Chain Encryption On-Chain Hash or ZK Approach.sol\":662:672  commitment */\n      dup3\n        /* \"C/Confidentiality/Off-Chain Encryption On-Chain Hash or ZK Approach.sol\":634:673  SecretCommitted(msg.sender, commitment) */\n      mload(0x40)\n      tag_26\n      swap2\n      swap1\n      tag_11\n      jump\t// in\n    tag_26:\n      mload(0x40)\n      dup1\n      swap2\n      sub\n      swap1\n      log2\n        /* \"C/Confidentiality/Off-Chain Encryption On-Chain Hash or ZK Approach.sol\":522:680  function commitSecret(bytes32 commitment) external {... */\n      pop\n      jump\t// out\n        /* \"#utility.yul\":88:205   */\n    tag_28:\n        /* \"#utility.yul\":197:198   */\n      0x00\n        /* \"#utility.yul\":194:195   */\n      dup1\n        /* \"#utility.yul\":187:199   */\n      revert\n        /* \"#utility.yul\":211:328   */\n    tag_29:\n        /* \"#utility.yul\":320:321   */\n      0x00\n        /* \"#utility.yul\":317:318   */\n      dup1\n        /* \"#utility.yul\":310:322   */\n      revert\n        /* \"#utility.yul\":334:460   */\n    tag_30:\n        /* \"#utility.yul\":371:378   */\n      0x00\n        /* \"#utility.yul\":411:453   */\n      0xffffffffffffffffffffffffffffffffffffffff\n        /* \"#utility.yul\":404:409   */\n      dup3\n        /* \"#utility.yul\":400:454   */\n      and\n        /* \"#utility.yul\":389:454   */\n      swap1\n      pop\n        /* \"#utility.yul\":334:460   */\n      swap2\n      swap1\n      pop\n      jump\t// out\n        /* \"#utility.yul\":466:562   */\n    tag_31:\n        /* \"#utility.yul\":503:510   */\n      0x00\n        /* \"#utility.yul\":532:556   */\n      tag_59\n        /* \"#utility.yul\":550:555   */\n      dup3\n        /* \"#utility.yul\":532:556   */\n      tag_30\n      jump\t// in\n    tag_59:\n        /* \"#utility.yul\":521:556   */\n      swap1\n      pop\n        /* \"#utility.yul\":466:562   */\n      swap2\n      swap1\n      pop\n      jump\t// out\n        /* \"#utility.yul\":568:690   */\n    tag_32:\n        /* \"#utility.yul\":641:665   */\n      tag_61\n        /* \"#utility.yul\":659:664   */\n      dup2\n        /* \"#utility.yul\":641:665   */\n      tag_31\n      jump\t// in\n    tag_61:\n        /* \"#utility.yul\":634:639   */\n      dup2\n        /* \"#utility.yul\":631:666   */\n      eq\n        /* \"#utility.yul\":621:684   */\n      tag_62\n      jumpi\n        /* \"#utility.yul\":680:681   */\n      0x00\n        /* \"#utility.yul\":677:678   */\n      dup1\n        /* \"#utility.yul\":670:682   */\n      revert\n        /* \"#utility.yul\":621:684   */\n    tag_62:\n        /* \"#utility.yul\":568:690   */\n      pop\n      jump\t// out\n        /* \"#utility.yul\":696:835   */\n    tag_33:\n        /* \"#utility.yul\":742:747   */\n      0x00\n        /* \"#utility.yul\":780:786   */\n      dup2\n        /* \"#utility.yul\":767:787   */\n      calldataload\n        /* \"#utility.yul\":758:787   */\n      swap1\n      pop\n        /* \"#utility.yul\":796:829   */\n      tag_64\n        /* \"#utility.yul\":823:828   */\n      dup2\n        /* \"#utility.yul\":796:829   */\n      tag_32\n      jump\t// in\n    tag_64:\n        /* \"#utility.yul\":696:835   */\n      swap3\n      swap2\n      pop\n      pop\n      jump\t// out\n        /* \"#utility.yul\":841:1170   */\n    tag_8:\n        /* \"#utility.yul\":900:906   */\n      0x00\n        /* \"#utility.yul\":949:951   */\n      0x20\n        /* \"#utility.yul\":937:946   */\n      dup3\n        /* \"#utility.yul\":928:935   */\n      dup5\n        /* \"#utility.yul\":924:947   */\n      sub\n        /* \"#utility.yul\":920:952   */\n      slt\n        /* \"#utility.yul\":917:1036   */\n      iszero\n      tag_66\n      jumpi\n        /* \"#utility.yul\":955:1034   */\n      tag_67\n      tag_28\n      jump\t// in\n    tag_67:\n        /* \"#utility.yul\":917:1036   */\n    tag_66:\n        /* \"#utility.yul\":1075:1076   */\n      0x00\n        /* \"#utility.yul\":1100:1153   */\n      tag_68\n        /* \"#utility.yul\":1145:1152   */\n      dup5\n        /* \"#utility.yul\":1136:1142   */\n      dup3\n        /* \"#utility.yul\":1125:1134   */\n      dup6\n        /* \"#utility.yul\":1121:1143   */\n      add\n        /* \"#utility.yul\":1100:1153   */\n      tag_33\n      jump\t// in\n    tag_68:\n        /* \"#utility.yul\":1090:1153   */\n      swap2\n      pop\n        /* \"#utility.yul\":1046:1163   */\n      pop\n        /* \"#utility.yul\":841:1170   */\n      swap3\n      swap2\n      pop\n      pop\n      jump\t// out\n        /* \"#utility.yul\":1176:1253   */\n    tag_34:\n        /* \"#utility.yul\":1213:1220   */\n      0x00\n        /* \"#utility.yul\":1242:1247   */\n      dup2\n        /* \"#utility.yul\":1231:1247   */\n      swap1\n      pop\n        /* \"#utility.yul\":1176:1253   */\n      swap2\n      swap1\n      pop\n      jump\t// out\n        /* \"#utility.yul\":1259:1377   */\n    tag_35:\n        /* \"#utility.yul\":1346:1370   */\n      tag_71\n        /* \"#utility.yul\":1364:1369   */\n      dup2\n        /* \"#utility.yul\":1346:1370   */\n      tag_34\n      jump\t// in\n    tag_71:\n        /* \"#utility.yul\":1341:1344   */\n      dup3\n        /* \"#utility.yul\":1334:1371   */\n      mstore\n        /* \"#utility.yul\":1259:1377   */\n      pop\n      pop\n      jump\t// out\n        /* \"#utility.yul\":1383:1605   */\n    tag_11:\n        /* \"#utility.yul\":1476:1480   */\n      0x00\n        /* \"#utility.yul\":1514:1516   */\n      0x20\n        /* \"#utility.yul\":1503:1512   */\n      dup3\n        /* \"#utility.yul\":1499:1517   */\n      add\n        /* \"#utility.yul\":1491:1517   */\n      swap1\n      pop\n        /* \"#utility.yul\":1527:1598   */\n      tag_73\n        /* \"#utility.yul\":1595:1596   */\n      0x00\n        /* \"#utility.yul\":1584:1593   */\n      dup4\n        /* \"#utility.yul\":1580:1597   */\n      add\n        /* \"#utility.yul\":1571:1577   */\n      dup5\n        /* \"#utility.yul\":1527:1598   */\n      tag_35\n      jump\t// in\n    tag_73:\n        /* \"#utility.yul\":1383:1605   */\n      swap3\n      swap2\n      pop\n      pop\n      jump\t// out\n        /* \"#utility.yul\":1611:1728   */\n    tag_36:\n        /* \"#utility.yul\":1720:1721   */\n      0x00\n        /* \"#utility.yul\":1717:1718   */\n      dup1\n        /* \"#utility.yul\":1710:1722   */\n      revert\n        /* \"#utility.yul\":1734:1851   */\n    tag_37:\n        /* \"#utility.yul\":1843:1844   */\n      0x00\n        /* \"#utility.yul\":1840:1841   */\n      dup1\n        /* \"#utility.yul\":1833:1845   */\n      revert\n        /* \"#utility.yul\":1857:1974   */\n    tag_38:\n        /* \"#utility.yul\":1966:1967   */\n      0x00\n        /* \"#utility.yul\":1963:1964   */\n      dup1\n        /* \"#utility.yul\":1956:1968   */\n      revert\n        /* \"#utility.yul\":1994:2547   */\n    tag_39:\n        /* \"#utility.yul\":2052:2060   */\n      0x00\n        /* \"#utility.yul\":2062:2068   */\n      dup1\n        /* \"#utility.yul\":2112:2115   */\n      dup4\n        /* \"#utility.yul\":2105:2109   */\n      0x1f\n        /* \"#utility.yul\":2097:2103   */\n      dup5\n        /* \"#utility.yul\":2093:2110   */\n      add\n        /* \"#utility.yul\":2089:2116   */\n      slt\n        /* \"#utility.yul\":2079:2201   */\n      tag_78\n      jumpi\n        /* \"#utility.yul\":2120:2199   */\n      tag_79\n      tag_36\n      jump\t// in\n    tag_79:\n        /* \"#utility.yul\":2079:2201   */\n    tag_78:\n        /* \"#utility.yul\":2233:2239   */\n      dup3\n        /* \"#utility.yul\":2220:2240   */\n      calldataload\n        /* \"#utility.yul\":2210:2240   */\n      swap1\n      pop\n        /* \"#utility.yul\":2263:2281   */\n      0xffffffffffffffff\n        /* \"#utility.yul\":2255:2261   */\n      dup2\n        /* \"#utility.yul\":2252:2282   */\n      gt\n        /* \"#utility.yul\":2249:2366   */\n      iszero\n      tag_80\n      jumpi\n        /* \"#utility.yul\":2285:2364   */\n      tag_81\n      tag_37\n      jump\t// in\n    tag_81:\n        /* \"#utility.yul\":2249:2366   */\n    tag_80:\n        /* \"#utility.yul\":2399:2403   */\n      0x20\n        /* \"#utility.yul\":2391:2397   */\n      dup4\n        /* \"#utility.yul\":2387:2404   */\n      add\n        /* \"#utility.yul\":2375:2404   */\n      swap2\n      pop\n        /* \"#utility.yul\":2453:2456   */\n      dup4\n        /* \"#utility.yul\":2445:2449   */\n      0x01\n        /* \"#utility.yul\":2437:2443   */\n      dup3\n        /* \"#utility.yul\":2433:2450   */\n      mul\n        /* \"#utility.yul\":2423:2431   */\n      dup4\n        /* \"#utility.yul\":2419:2451   */\n      add\n        /* \"#utility.yul\":2416:2457   */\n      gt\n        /* \"#utility.yul\":2413:2541   */\n      iszero\n      tag_82\n      jumpi\n        /* \"#utility.yul\":2460:2539   */\n      tag_83\n      tag_38\n      jump\t// in\n    tag_83:\n        /* \"#utility.yul\":2413:2541   */\n    tag_82:\n        /* \"#utility.yul\":1994:2547   */\n      swap3\n      pop\n      swap3\n      swap1\n      pop\n      jump\t// out\n        /* \"#utility.yul\":2553:2675   */\n    tag_40:\n        /* \"#utility.yul\":2626:2650   */\n      tag_85\n        /* \"#utility.yul\":2644:2649   */\n      dup2\n        /* \"#utility.yul\":2626:2650   */\n      tag_34\n      jump\t// in\n    tag_85:\n        /* \"#utility.yul\":2619:2624   */\n      dup2\n        /* \"#utility.yul\":2616:2651   */\n      eq\n        /* \"#utility.yul\":2606:2669   */\n      tag_86\n      jumpi\n        /* \"#utility.yul\":2665:2666   */\n      0x00\n        /* \"#utility.yul\":2662:2663   */\n      dup1\n        /* \"#utility.yul\":2655:2667   */\n      revert\n        /* \"#utility.yul\":2606:2669   */\n    tag_86:\n        /* \"#utility.yul\":2553:2675   */\n      pop\n      jump\t// out\n        /* \"#utility.yul\":2681:2820   */\n    tag_41:\n        /* \"#utility.yul\":2727:2732   */\n      0x00\n        /* \"#utility.yul\":2765:2771   */\n      dup2\n        /* \"#utility.yul\":2752:2772   */\n      calldataload\n        /* \"#utility.yul\":2743:2772   */\n      swap1\n      pop\n        /* \"#utility.yul\":2781:2814   */\n      tag_88\n        /* \"#utility.yul\":2808:2813   */\n      dup2\n        /* \"#utility.yul\":2781:2814   */\n      tag_40\n      jump\t// in\n    tag_88:\n        /* \"#utility.yul\":2681:2820   */\n      swap3\n      swap2\n      pop\n      pop\n      jump\t// out\n        /* \"#utility.yul\":2826:3500   */\n    tag_14:\n        /* \"#utility.yul\":2906:2912   */\n      0x00\n        /* \"#utility.yul\":2914:2920   */\n      dup1\n        /* \"#utility.yul\":2922:2928   */\n      0x00\n        /* \"#utility.yul\":2971:2973   */\n      0x40\n        /* \"#utility.yul\":2959:2968   */\n      dup5\n        /* \"#utility.yul\":2950:2957   */\n      dup7\n        /* \"#utility.yul\":2946:2969   */\n      sub\n        /* \"#utility.yul\":2942:2974   */\n      slt\n        /* \"#utility.yul\":2939:3058   */\n      iszero\n      tag_90\n      jumpi\n        /* \"#utility.yul\":2977:3056   */\n      tag_91\n      tag_28\n      jump\t// in\n    tag_91:\n        /* \"#utility.yul\":2939:3058   */\n    tag_90:\n        /* \"#utility.yul\":3125:3126   */\n      0x00\n        /* \"#utility.yul\":3114:3123   */\n      dup5\n        /* \"#utility.yul\":3110:3127   */\n      add\n        /* \"#utility.yul\":3097:3128   */\n      calldataload\n        /* \"#utility.yul\":3155:3173   */\n      0xffffffffffffffff\n        /* \"#utility.yul\":3147:3153   */\n      dup2\n        /* \"#utility.yul\":3144:3174   */\n      gt\n        /* \"#utility.yul\":3141:3258   */\n      iszero\n      tag_92\n      jumpi\n        /* \"#utility.yul\":3177:3256   */\n      tag_93\n      tag_29\n      jump\t// in\n    tag_93:\n        /* \"#utility.yul\":3141:3258   */\n    tag_92:\n        /* \"#utility.yul\":3290:3355   */\n      tag_94\n        /* \"#utility.yul\":3347:3354   */\n      dup7\n        /* \"#utility.yul\":3338:3344   */\n      dup3\n        /* \"#utility.yul\":3327:3336   */\n      dup8\n        /* \"#utility.yul\":3323:3345   */\n      add\n        /* \"#utility.yul\":3290:3355   */\n      tag_39\n      jump\t// in\n    tag_94:\n        /* \"#utility.yul\":3272:3355   */\n      swap4\n      pop\n      swap4\n      pop\n        /* \"#utility.yul\":3068:3365   */\n      pop\n        /* \"#utility.yul\":3404:3406   */\n      0x20\n        /* \"#utility.yul\":3430:3483   */\n      tag_95\n        /* \"#utility.yul\":3475:3482   */\n      dup7\n        /* \"#utility.yul\":3466:3472   */\n      dup3\n        /* \"#utility.yul\":3455:3464   */\n      dup8\n        /* \"#utility.yul\":3451:3473   */\n      add\n        /* \"#utility.yul\":3430:3483   */\n      tag_41\n      jump\t// in\n    tag_95:\n        /* \"#utility.yul\":3420:3483   */\n      swap2\n      pop\n        /* \"#utility.yul\":3375:3493   */\n      pop\n        /* \"#utility.yul\":2826:3500   */\n      swap3\n      pop\n      swap3\n      pop\n      swap3\n      jump\t// out\n        /* \"#utility.yul\":3506:3596   */\n    tag_42:\n        /* \"#utility.yul\":3540:3547   */\n      0x00\n        /* \"#utility.yul\":3583:3588   */\n      dup2\n        /* \"#utility.yul\":3576:3589   */\n      iszero\n        /* \"#utility.yul\":3569:3590   */\n      iszero\n        /* \"#utility.yul\":3558:3590   */\n      swap1\n      pop\n        /* \"#utility.yul\":3506:3596   */\n      swap2\n      swap1\n      pop\n      jump\t// out\n        /* \"#utility.yul\":3602:3711   */\n    tag_43:\n        /* \"#utility.yul\":3683:3704   */\n      tag_98\n        /* \"#utility.yul\":3698:3703   */\n      dup2\n        /* \"#utility.yul\":3683:3704   */\n      tag_42\n      jump\t// in\n    tag_98:\n        /* \"#utility.yul\":3678:3681   */\n      dup3\n        /* \"#utility.yul\":3671:3705   */\n      mstore\n        /* \"#utility.yul\":3602:3711   */\n      pop\n      pop\n      jump\t// out\n        /* \"#utility.yul\":3717:3927   */\n    tag_17:\n        /* \"#utility.yul\":3804:3808   */\n      0x00\n        /* \"#utility.yul\":3842:3844   */\n      0x20\n        /* \"#utility.yul\":3831:3840   */\n      dup3\n        /* \"#utility.yul\":3827:3845   */\n      add\n        /* \"#utility.yul\":3819:3845   */\n      swap1\n      pop\n        /* \"#utility.yul\":3855:3920   */\n      tag_100\n        /* \"#utility.yul\":3917:3918   */\n      0x00\n        /* \"#utility.yul\":3906:3915   */\n      dup4\n        /* \"#utility.yul\":3902:3919   */\n      add\n        /* \"#utility.yul\":3893:3899   */\n      dup5\n        /* \"#utility.yul\":3855:3920   */\n      tag_43\n      jump\t// in\n    tag_100:\n        /* \"#utility.yul\":3717:3927   */\n      swap3\n      swap2\n      pop\n      pop\n      jump\t// out\n        /* \"#utility.yul\":3933:4262   */\n    tag_20:\n        /* \"#utility.yul\":3992:3998   */\n      0x00\n        /* \"#utility.yul\":4041:4043   */\n      0x20\n        /* \"#utility.yul\":4029:4038   */\n      dup3\n        /* \"#utility.yul\":4020:4027   */\n      dup5\n        /* \"#utility.yul\":4016:4039   */\n      sub\n        /* \"#utility.yul\":4012:4044   */\n      slt\n        /* \"#utility.yul\":4009:4128   */\n      iszero\n      tag_102\n      jumpi\n        /* \"#utility.yul\":4047:4126   */\n      tag_103\n      tag_28\n      jump\t// in\n    tag_103:\n        /* \"#utility.yul\":4009:4128   */\n    tag_102:\n        /* \"#utility.yul\":4167:4168   */\n      0x00\n        /* \"#utility.yul\":4192:4245   */\n      tag_104\n        /* \"#utility.yul\":4237:4244   */\n      dup5\n        /* \"#utility.yul\":4228:4234   */\n      dup3\n        /* \"#utility.yul\":4217:4226   */\n      dup6\n        /* \"#utility.yul\":4213:4235   */\n      add\n        /* \"#utility.yul\":4192:4245   */\n      tag_41\n      jump\t// in\n    tag_104:\n        /* \"#utility.yul\":4182:4245   */\n      swap2\n      pop\n        /* \"#utility.yul\":4138:4255   */\n      pop\n        /* \"#utility.yul\":3933:4262   */\n      swap3\n      swap2\n      pop\n      pop\n      jump\t// out\n        /* \"#utility.yul\":4268:4416   */\n    tag_44:\n        /* \"#utility.yul\":4370:4381   */\n      0x00\n        /* \"#utility.yul\":4407:4410   */\n      dup2\n        /* \"#utility.yul\":4392:4410   */\n      swap1\n      pop\n        /* \"#utility.yul\":4268:4416   */\n      swap3\n      swap2\n      pop\n      pop\n      jump\t// out\n        /* \"#utility.yul\":4422:4570   */\n    tag_45:\n        /* \"#utility.yul\":4520:4526   */\n      dup3\n        /* \"#utility.yul\":4515:4518   */\n      dup2\n        /* \"#utility.yul\":4510:4513   */\n      dup4\n        /* \"#utility.yul\":4497:4527   */\n      calldatacopy\n        /* \"#utility.yul\":4561:4562   */\n      0x00\n        /* \"#utility.yul\":4552:4558   */\n      dup4\n        /* \"#utility.yul\":4547:4550   */\n      dup4\n        /* \"#utility.yul\":4543:4559   */\n      add\n        /* \"#utility.yul\":4536:4563   */\n      mstore\n        /* \"#utility.yul\":4422:4570   */\n      pop\n      pop\n      pop\n      jump\t// out\n        /* \"#utility.yul\":4600:4930   */\n    tag_46:\n        /* \"#utility.yul\":4716:4719   */\n      0x00\n        /* \"#utility.yul\":4737:4826   */\n      tag_108\n        /* \"#utility.yul\":4819:4825   */\n      dup4\n        /* \"#utility.yul\":4814:4817   */\n      dup6\n        /* \"#utility.yul\":4737:4826   */\n      tag_44\n      jump\t// in\n    tag_108:\n        /* \"#utility.yul\":4730:4826   */\n      swap4\n      pop\n        /* \"#utility.yul\":4836:4892   */\n      tag_109\n        /* \"#utility.yul\":4885:4891   */\n      dup4\n        /* \"#utility.yul\":4880:4883   */\n      dup6\n        /* \"#utility.yul\":4873:4878   */\n      dup5\n        /* \"#utility.yul\":4836:4892   */\n      tag_45\n      jump\t// in\n    tag_109:\n        /* \"#utility.yul\":4917:4923   */\n      dup3\n        /* \"#utility.yul\":4912:4915   */\n      dup5\n        /* \"#utility.yul\":4908:4924   */\n      add\n        /* \"#utility.yul\":4901:4924   */\n      swap1\n      pop\n        /* \"#utility.yul\":4600:4930   */\n      swap4\n      swap3\n      pop\n      pop\n      pop\n      jump\t// out\n        /* \"#utility.yul\":4936:5015   */\n    tag_47:\n        /* \"#utility.yul\":4975:4982   */\n      0x00\n        /* \"#utility.yul\":5004:5009   */\n      dup2\n        /* \"#utility.yul\":4993:5009   */\n      swap1\n      pop\n        /* \"#utility.yul\":4936:5015   */\n      swap2\n      swap1\n      pop\n      jump\t// out\n        /* \"#utility.yul\":5021:5178   */\n    tag_48:\n        /* \"#utility.yul\":5126:5171   */\n      tag_112\n        /* \"#utility.yul\":5146:5170   */\n      tag_113\n        /* \"#utility.yul\":5164:5169   */\n      dup3\n        /* \"#utility.yul\":5146:5170   */\n      tag_34\n      jump\t// in\n    tag_113:\n        /* \"#utility.yul\":5126:5171   */\n      tag_47\n      jump\t// in\n    tag_112:\n        /* \"#utility.yul\":5121:5124   */\n      dup3\n        /* \"#utility.yul\":5114:5172   */\n      mstore\n        /* \"#utility.yul\":5021:5178   */\n      pop\n      pop\n      jump\t// out\n        /* \"#utility.yul\":5184:5278   */\n    tag_49:\n        /* \"#utility.yul\":5217:5225   */\n      0x00\n        /* \"#utility.yul\":5265:5270   */\n      dup2\n        /* \"#utility.yul\":5261:5263   */\n      0x60\n        /* \"#utility.yul\":5257:5271   */\n      shl\n        /* \"#utility.yul\":5236:5271   */\n      swap1\n      pop\n        /* \"#utility.yul\":5184:5278   */\n      swap2\n      swap1\n      pop\n      jump\t// out\n        /* \"#utility.yul\":5284:5378   */\n    tag_50:\n        /* \"#utility.yul\":5323:5330   */\n      0x00\n        /* \"#utility.yul\":5352:5372   */\n      tag_116\n        /* \"#utility.yul\":5366:5371   */\n      dup3\n        /* \"#utility.yul\":5352:5372   */\n      tag_49\n      jump\t// in\n    tag_116:\n        /* \"#utility.yul\":5341:5372   */\n      swap1\n      pop\n        /* \"#utility.yul\":5284:5378   */\n      swap2\n      swap1\n      pop\n      jump\t// out\n        /* \"#utility.yul\":5384:5484   */\n    tag_51:\n        /* \"#utility.yul\":5423:5430   */\n      0x00\n        /* \"#utility.yul\":5452:5478   */\n      tag_118\n        /* \"#utility.yul\":5472:5477   */\n      dup3\n        /* \"#utility.yul\":5452:5478   */\n      tag_50\n      jump\t// in\n    tag_118:\n        /* \"#utility.yul\":5441:5478   */\n      swap1\n      pop\n        /* \"#utility.yul\":5384:5484   */\n      swap2\n      swap1\n      pop\n      jump\t// out\n        /* \"#utility.yul\":5490:5647   */\n    tag_52:\n        /* \"#utility.yul\":5595:5640   */\n      tag_120\n        /* \"#utility.yul\":5615:5639   */\n      tag_121\n        /* \"#utility.yul\":5633:5638   */\n      dup3\n        /* \"#utility.yul\":5615:5639   */\n      tag_31\n      jump\t// in\n    tag_121:\n        /* \"#utility.yul\":5595:5640   */\n      tag_51\n      jump\t// in\n    tag_120:\n        /* \"#utility.yul\":5590:5593   */\n      dup3\n        /* \"#utility.yul\":5583:5641   */\n      mstore\n        /* \"#utility.yul\":5490:5647   */\n      pop\n      pop\n      jump\t// out\n        /* \"#utility.yul\":5653:6230   */\n    tag_24:\n        /* \"#utility.yul\":5851:5854   */\n      0x00\n        /* \"#utility.yul\":5873:5978   */\n      tag_123\n        /* \"#utility.yul\":5974:5977   */\n      dup3\n        /* \"#utility.yul\":5965:5971   */\n      dup7\n        /* \"#utility.yul\":5957:5963   */\n      dup9\n        /* \"#utility.yul\":5873:5978   */\n      tag_46\n      jump\t// in\n    tag_123:\n        /* \"#utility.yul\":5866:5978   */\n      swap2\n      pop\n        /* \"#utility.yul\":5988:6063   */\n      tag_124\n        /* \"#utility.yul\":6059:6062   */\n      dup3\n        /* \"#utility.yul\":6050:6056   */\n      dup6\n        /* \"#utility.yul\":5988:6063   */\n      tag_48\n      jump\t// in\n    tag_124:\n        /* \"#utility.yul\":6088:6090   */\n      0x20\n        /* \"#utility.yul\":6083:6086   */\n      dup3\n        /* \"#utility.yul\":6079:6091   */\n      add\n        /* \"#utility.yul\":6072:6091   */\n      swap2\n      pop\n        /* \"#utility.yul\":6101:6176   */\n      tag_125\n        /* \"#utility.yul\":6172:6175   */\n      dup3\n        /* \"#utility.yul\":6163:6169   */\n      dup5\n        /* \"#utility.yul\":6101:6176   */\n      tag_52\n      jump\t// in\n    tag_125:\n        /* \"#utility.yul\":6201:6203   */\n      0x14\n        /* \"#utility.yul\":6196:6199   */\n      dup3\n        /* \"#utility.yul\":6192:6204   */\n      add\n        /* \"#utility.yul\":6185:6204   */\n      swap2\n      pop\n        /* \"#utility.yul\":6221:6224   */\n      dup2\n        /* \"#utility.yul\":6214:6224   */\n      swap1\n      pop\n        /* \"#utility.yul\":5653:6230   */\n      swap6\n      swap5\n      pop\n      pop\n      pop\n      pop\n      pop\n      jump\t// out\n\n    auxdata: 0xa2646970667358221220103f16ca052d7ce1d5dad8fe0eb1ce552ccbc3f5a1c27e7350318df463ba48cb64736f6c634300081a0033\n}\n",
				"bytecode": {
					"linkReferences": {},
					"object": "6080604052348015600e575f80fd5b506104f48061001c5f395ff3fe608060405234801561000f575f80fd5b506004361061003f575f3560e01c8063e8fcf72314610043578063ea9384fa14610073578063fa752516146100a3575b5f80fd5b61005d60048036038101906100589190610241565b6100bf565b60405161006a9190610284565b60405180910390f35b61008d60048036038101906100889190610328565b6100d3565b60405161009a919061039f565b60405180910390f35b6100bd60048036038101906100b891906103b8565b61014d565b005b5f602052805f5260405f205f915090505481565b5f80848484336040516020016100ec9493929190610484565b6040516020818303038152906040528051906020012090505f803373ffffffffffffffffffffffffffffffffffffffff1673ffffffffffffffffffffffffffffffffffffffff1681526020019081526020015f205481149150509392505050565b805f803373ffffffffffffffffffffffffffffffffffffffff1673ffffffffffffffffffffffffffffffffffffffff1681526020019081526020015f20819055503373ffffffffffffffffffffffffffffffffffffffff167f4f8fff0fbe24639469da3d25cb3411ee23c71baf89187a90541fab29f5324739826040516101d49190610284565b60405180910390a250565b5f80fd5b5f80fd5b5f73ffffffffffffffffffffffffffffffffffffffff82169050919050565b5f610210826101e7565b9050919050565b61022081610206565b811461022a575f80fd5b50565b5f8135905061023b81610217565b92915050565b5f60208284031215610256576102556101df565b5b5f6102638482850161022d565b91505092915050565b5f819050919050565b61027e8161026c565b82525050565b5f6020820190506102975f830184610275565b92915050565b5f80fd5b5f80fd5b5f80fd5b5f8083601f8401126102be576102bd61029d565b5b8235905067ffffffffffffffff8111156102db576102da6102a1565b5b6020830191508360018202830111156102f7576102f66102a5565b5b9250929050565b6103078161026c565b8114610311575f80fd5b50565b5f81359050610322816102fe565b92915050565b5f805f6040848603121561033f5761033e6101df565b5b5f84013567ffffffffffffffff81111561035c5761035b6101e3565b5b610368868287016102a9565b9350935050602061037b86828701610314565b9150509250925092565b5f8115159050919050565b61039981610385565b82525050565b5f6020820190506103b25f830184610390565b92915050565b5f602082840312156103cd576103cc6101df565b5b5f6103da84828501610314565b91505092915050565b5f81905092915050565b828183375f83830152505050565b5f61040683856103e3565b93506104138385846103ed565b82840190509392505050565b5f819050919050565b6104396104348261026c565b61041f565b82525050565b5f8160601b9050919050565b5f6104558261043f565b9050919050565b5f6104668261044b565b9050919050565b61047e61047982610206565b61045c565b82525050565b5f6104908286886103fb565b915061049c8285610428565b6020820191506104ac828461046d565b6014820191508190509594505050505056fea2646970667358221220103f16ca052d7ce1d5dad8fe0eb1ce552ccbc3f5a1c27e7350318df463ba48cb64736f6c634300081a0033",
					"opcodes": "PUSH1 0x80 PUSH1 0x40 MSTORE CALLVALUE DUP1 ISZERO PUSH1 0xE JUMPI PUSH0 DUP1 REVERT JUMPDEST POP PUSH2 0x4F4 DUP1 PUSH2 0x1C PUSH0 CODECOPY PUSH0 RETURN INVALID PUSH1 0x80 PUSH1 0x40 MSTORE CALLVALUE DUP1 ISZERO PUSH2 0xF JUMPI PUSH0 DUP1 REVERT JUMPDEST POP PUSH1 0x4 CALLDATASIZE LT PUSH2 0x3F JUMPI PUSH0 CALLDATALOAD PUSH1 0xE0 SHR DUP1 PUSH4 0xE8FCF723 EQ PUSH2 0x43 JUMPI DUP1 PUSH4 0xEA9384FA EQ PUSH2 0x73 JUMPI DUP1 PUSH4 0xFA752516 EQ PUSH2 0xA3 JUMPI JUMPDEST PUSH0 DUP1 REVERT JUMPDEST PUSH2 0x5D PUSH1 0x4 DUP1 CALLDATASIZE SUB DUP2 ADD SWAP1 PUSH2 0x58 SWAP2 SWAP1 PUSH2 0x241 JUMP JUMPDEST PUSH2 0xBF JUMP JUMPDEST PUSH1 0x40 MLOAD PUSH2 0x6A SWAP2 SWAP1 PUSH2 0x284 JUMP JUMPDEST PUSH1 0x40 MLOAD DUP1 SWAP2 SUB SWAP1 RETURN JUMPDEST PUSH2 0x8D PUSH1 0x4 DUP1 CALLDATASIZE SUB DUP2 ADD SWAP1 PUSH2 0x88 SWAP2 SWAP1 PUSH2 0x328 JUMP JUMPDEST PUSH2 0xD3 JUMP JUMPDEST PUSH1 0x40 MLOAD PUSH2 0x9A SWAP2 SWAP1 PUSH2 0x39F JUMP JUMPDEST PUSH1 0x40 MLOAD DUP1 SWAP2 SUB SWAP1 RETURN JUMPDEST PUSH2 0xBD PUSH1 0x4 DUP1 CALLDATASIZE SUB DUP2 ADD SWAP1 PUSH2 0xB8 SWAP2 SWAP1 PUSH2 0x3B8 JUMP JUMPDEST PUSH2 0x14D JUMP JUMPDEST STOP JUMPDEST PUSH0 PUSH1 0x20 MSTORE DUP1 PUSH0 MSTORE PUSH1 0x40 PUSH0 KECCAK256 PUSH0 SWAP2 POP SWAP1 POP SLOAD DUP2 JUMP JUMPDEST PUSH0 DUP1 DUP5 DUP5 DUP5 CALLER PUSH1 0x40 MLOAD PUSH1 0x20 ADD PUSH2 0xEC SWAP5 SWAP4 SWAP3 SWAP2 SWAP1 PUSH2 0x484 JUMP JUMPDEST PUSH1 0x40 MLOAD PUSH1 0x20 DUP2 DUP4 SUB SUB DUP2 MSTORE SWAP1 PUSH1 0x40 MSTORE DUP1 MLOAD SWAP1 PUSH1 0x20 ADD KECCAK256 SWAP1 POP PUSH0 DUP1 CALLER PUSH20 0xFFFFFFFFFFFFFFFFFFFFFFFFFFFFFFFFFFFFFFFF AND PUSH20 0xFFFFFFFFFFFFFFFFFFFFFFFFFFFFFFFFFFFFFFFF AND DUP2 MSTORE PUSH1 0x20 ADD SWAP1 DUP2 MSTORE PUSH1 0x20 ADD PUSH0 KECCAK256 SLOAD DUP2 EQ SWAP2 POP POP SWAP4 SWAP3 POP POP POP JUMP JUMPDEST DUP1 PUSH0 DUP1 CALLER PUSH20 0xFFFFFFFFFFFFFFFFFFFFFFFFFFFFFFFFFFFFFFFF AND PUSH20 0xFFFFFFFFFFFFFFFFFFFFFFFFFFFFFFFFFFFFFFFF AND DUP2 MSTORE PUSH1 0x20 ADD SWAP1 DUP2 MSTORE PUSH1 0x20 ADD PUSH0 KECCAK256 DUP2 SWAP1 SSTORE POP CALLER PUSH20 0xFFFFFFFFFFFFFFFFFFFFFFFFFFFFFFFFFFFFFFFF AND PUSH32 0x4F8FFF0FBE24639469DA3D25CB3411EE23C71BAF89187A90541FAB29F5324739 DUP3 PUSH1 0x40 MLOAD PUSH2 0x1D4 SWAP2 SWAP1 PUSH2 0x284 JUMP JUMPDEST PUSH1 0x40 MLOAD DUP1 SWAP2 SUB SWAP1 LOG2 POP JUMP JUMPDEST PUSH0 DUP1 REVERT JUMPDEST PUSH0 DUP1 REVERT JUMPDEST PUSH0 PUSH20 0xFFFFFFFFFFFFFFFFFFFFFFFFFFFFFFFFFFFFFFFF DUP3 AND SWAP1 POP SWAP2 SWAP1 POP JUMP JUMPDEST PUSH0 PUSH2 0x210 DUP3 PUSH2 0x1E7 JUMP JUMPDEST SWAP1 POP SWAP2 SWAP1 POP JUMP JUMPDEST PUSH2 0x220 DUP2 PUSH2 0x206 JUMP JUMPDEST DUP2 EQ PUSH2 0x22A JUMPI PUSH0 DUP1 REVERT JUMPDEST POP JUMP JUMPDEST PUSH0 DUP2 CALLDATALOAD SWAP1 POP PUSH2 0x23B DUP2 PUSH2 0x217 JUMP JUMPDEST SWAP3 SWAP2 POP POP JUMP JUMPDEST PUSH0 PUSH1 0x20 DUP3 DUP5 SUB SLT ISZERO PUSH2 0x256 JUMPI PUSH2 0x255 PUSH2 0x1DF JUMP JUMPDEST JUMPDEST PUSH0 PUSH2 0x263 DUP5 DUP3 DUP6 ADD PUSH2 0x22D JUMP JUMPDEST SWAP2 POP POP SWAP3 SWAP2 POP POP JUMP JUMPDEST PUSH0 DUP2 SWAP1 POP SWAP2 SWAP1 POP JUMP JUMPDEST PUSH2 0x27E DUP2 PUSH2 0x26C JUMP JUMPDEST DUP3 MSTORE POP POP JUMP JUMPDEST PUSH0 PUSH1 0x20 DUP3 ADD SWAP1 POP PUSH2 0x297 PUSH0 DUP4 ADD DUP5 PUSH2 0x275 JUMP JUMPDEST SWAP3 SWAP2 POP POP JUMP JUMPDEST PUSH0 DUP1 REVERT JUMPDEST PUSH0 DUP1 REVERT JUMPDEST PUSH0 DUP1 REVERT JUMPDEST PUSH0 DUP1 DUP4 PUSH1 0x1F DUP5 ADD SLT PUSH2 0x2BE JUMPI PUSH2 0x2BD PUSH2 0x29D JUMP JUMPDEST JUMPDEST DUP3 CALLDATALOAD SWAP1 POP PUSH8 0xFFFFFFFFFFFFFFFF DUP2 GT ISZERO PUSH2 0x2DB JUMPI PUSH2 0x2DA PUSH2 0x2A1 JUMP JUMPDEST JUMPDEST PUSH1 0x20 DUP4 ADD SWAP2 POP DUP4 PUSH1 0x1 DUP3 MUL DUP4 ADD GT ISZERO PUSH2 0x2F7 JUMPI PUSH2 0x2F6 PUSH2 0x2A5 JUMP JUMPDEST JUMPDEST SWAP3 POP SWAP3 SWAP1 POP JUMP JUMPDEST PUSH2 0x307 DUP2 PUSH2 0x26C JUMP JUMPDEST DUP2 EQ PUSH2 0x311 JUMPI PUSH0 DUP1 REVERT JUMPDEST POP JUMP JUMPDEST PUSH0 DUP2 CALLDATALOAD SWAP1 POP PUSH2 0x322 DUP2 PUSH2 0x2FE JUMP JUMPDEST SWAP3 SWAP2 POP POP JUMP JUMPDEST PUSH0 DUP1 PUSH0 PUSH1 0x40 DUP5 DUP7 SUB SLT ISZERO PUSH2 0x33F JUMPI PUSH2 0x33E PUSH2 0x1DF JUMP JUMPDEST JUMPDEST PUSH0 DUP5 ADD CALLDATALOAD PUSH8 0xFFFFFFFFFFFFFFFF DUP2 GT ISZERO PUSH2 0x35C JUMPI PUSH2 0x35B PUSH2 0x1E3 JUMP JUMPDEST JUMPDEST PUSH2 0x368 DUP7 DUP3 DUP8 ADD PUSH2 0x2A9 JUMP JUMPDEST SWAP4 POP SWAP4 POP POP PUSH1 0x20 PUSH2 0x37B DUP7 DUP3 DUP8 ADD PUSH2 0x314 JUMP JUMPDEST SWAP2 POP POP SWAP3 POP SWAP3 POP SWAP3 JUMP JUMPDEST PUSH0 DUP2 ISZERO ISZERO SWAP1 POP SWAP2 SWAP1 POP JUMP JUMPDEST PUSH2 0x399 DUP2 PUSH2 0x385 JUMP JUMPDEST DUP3 MSTORE POP POP JUMP JUMPDEST PUSH0 PUSH1 0x20 DUP3 ADD SWAP1 POP PUSH2 0x3B2 PUSH0 DUP4 ADD DUP5 PUSH2 0x390 JUMP JUMPDEST SWAP3 SWAP2 POP POP JUMP JUMPDEST PUSH0 PUSH1 0x20 DUP3 DUP5 SUB SLT ISZERO PUSH2 0x3CD JUMPI PUSH2 0x3CC PUSH2 0x1DF JUMP JUMPDEST JUMPDEST PUSH0 PUSH2 0x3DA DUP5 DUP3 DUP6 ADD PUSH2 0x314 JUMP JUMPDEST SWAP2 POP POP SWAP3 SWAP2 POP POP JUMP JUMPDEST PUSH0 DUP2 SWAP1 POP SWAP3 SWAP2 POP POP JUMP JUMPDEST DUP3 DUP2 DUP4 CALLDATACOPY PUSH0 DUP4 DUP4 ADD MSTORE POP POP POP JUMP JUMPDEST PUSH0 PUSH2 0x406 DUP4 DUP6 PUSH2 0x3E3 JUMP JUMPDEST SWAP4 POP PUSH2 0x413 DUP4 DUP6 DUP5 PUSH2 0x3ED JUMP JUMPDEST DUP3 DUP5 ADD SWAP1 POP SWAP4 SWAP3 POP POP POP JUMP JUMPDEST PUSH0 DUP2 SWAP1 POP SWAP2 SWAP1 POP JUMP JUMPDEST PUSH2 0x439 PUSH2 0x434 DUP3 PUSH2 0x26C JUMP JUMPDEST PUSH2 0x41F JUMP JUMPDEST DUP3 MSTORE POP POP JUMP JUMPDEST PUSH0 DUP2 PUSH1 0x60 SHL SWAP1 POP SWAP2 SWAP1 POP JUMP JUMPDEST PUSH0 PUSH2 0x455 DUP3 PUSH2 0x43F JUMP JUMPDEST SWAP1 POP SWAP2 SWAP1 POP JUMP JUMPDEST PUSH0 PUSH2 0x466 DUP3 PUSH2 0x44B JUMP JUMPDEST SWAP1 POP SWAP2 SWAP1 POP JUMP JUMPDEST PUSH2 0x47E PUSH2 0x479 DUP3 PUSH2 0x206 JUMP JUMPDEST PUSH2 0x45C JUMP JUMPDEST DUP3 MSTORE POP POP JUMP JUMPDEST PUSH0 PUSH2 0x490 DUP3 DUP7 DUP9 PUSH2 0x3FB JUMP JUMPDEST SWAP2 POP PUSH2 0x49C DUP3 DUP6 PUSH2 0x428 JUMP JUMPDEST PUSH1 0x20 DUP3 ADD SWAP2 POP PUSH2 0x4AC DUP3 DUP5 PUSH2 0x46D JUMP JUMPDEST PUSH1 0x14 DUP3 ADD SWAP2 POP DUP2 SWAP1 POP SWAP6 SWAP5 POP POP POP POP POP JUMP INVALID LOG2 PUSH5 0x6970667358 0x22 SLT KECCAK256 LT EXTCODEHASH AND 0xCA SDIV 0x2D PUSH29 0xE1D5DAD8FE0EB1CE552CCBC3F5A1C27E7350318DF463BA48CB64736F6C PUSH4 0x4300081A STOP CALLER "
				},
				"gasEstimates": {
					"creation": {
						"codeDepositCost": "253600",
						"executionCost": "292",
						"totalCost": "253892"
					},
					"external": {
						"commitSecret(bytes32)": "infinite",
						"commitments(address)": "2779",
						"reveal(string,bytes32)": "infinite"
					}
				},
				"methodIdentifiers": {
					"commitSecret(bytes32)": "fa752516",
					"commitments(address)": "e8fcf723",
					"reveal(string,bytes32)": "ea9384fa"
				}
			},
			"storageLayout": {
				"storage": [
					{
						"astId": 6,
						"contract": "C/Confidentiality/Off-Chain Encryption On-Chain Hash or ZK Approach.sol:CommitmentStorage",
						"label": "commitments",
						"offset": 0,
						"slot": "0",
						"type": "t_mapping(t_address,t_bytes32)"
					}
				],
				"types": {
					"t_address": {
						"encoding": "inplace",
						"label": "address",
						"numberOfBytes": "20"
					},
					"t_bytes32": {
						"encoding": "inplace",
						"label": "bytes32",
						"numberOfBytes": "32"
					},
					"t_mapping(t_address,t_bytes32)": {
						"encoding": "mapping",
						"key": "t_address",
						"label": "mapping(address => bytes32)",
						"numberOfBytes": "32",
						"value": "t_bytes32"
					}
				}
			},
			"userdoc": {
				"kind": "user",
				"methods": {},
				"notice": "Defense scenario: We store only a hashed or zero-knowledge commitment  so the underlying secret remains off-chain or encrypted.",
				"version": 1
			}
		}
	}
}