{
	"F/Forward Lookup/ENSProxyForwardResolver.sol": {
		"ENSProxyForwardResolver": {
			"abi": [
				{
					"inputs": [
						{
							"internalType": "address",
							"name": "_ens",
							"type": "address"
						}
					],
					"stateMutability": "nonpayable",
					"type": "constructor"
				},
				{
					"inputs": [],
					"name": "ens",
					"outputs": [
						{
							"internalType": "contract IENSRegistry",
							"name": "",
							"type": "address"
						}
					],
					"stateMutability": "view",
					"type": "function"
				},
				{
					"inputs": [
						{
							"internalType": "string",
							"name": "name",
							"type": "string"
						}
					],
					"name": "resolveENS",
					"outputs": [
						{
							"internalType": "address",
							"name": "",
							"type": "address"
						}
					],
					"stateMutability": "view",
					"type": "function"
				}
			],
			"devdoc": {
				"kind": "dev",
				"methods": {},
				"version": 1
			},
			"evm": {
				"assembly": "    /* \"F/Forward Lookup/ENSProxyForwardResolver.sol\":248:771  contract ENSProxyForwardResolver {... */\n  mstore(0x40, 0x80)\n    /* \"F/Forward Lookup/ENSProxyForwardResolver.sol\":317:384  constructor(address _ens) {... */\n  callvalue\n  dup1\n  iszero\n  tag_1\n  jumpi\n  0x00\n  dup1\n  revert\ntag_1:\n  pop\n  mload(0x40)\n  sub(codesize, bytecodeSize)\n  dup1\n  bytecodeSize\n  dup4\n  codecopy\n  dup2\n  dup2\n  add\n  0x40\n  mstore\n  dup2\n  add\n  swap1\n  tag_2\n  swap2\n  swap1\n  tag_3\n  jump\t// in\ntag_2:\n    /* \"F/Forward Lookup/ENSProxyForwardResolver.sol\":372:376  _ens */\n  dup1\n    /* \"F/Forward Lookup/ENSProxyForwardResolver.sol\":353:356  ens */\n  0x00\n  dup1\n    /* \"F/Forward Lookup/ENSProxyForwardResolver.sol\":353:377  ens = IENSRegistry(_ens) */\n  0x0100\n  exp\n  dup2\n  sload\n  dup2\n  0xffffffffffffffffffffffffffffffffffffffff\n  mul\n  not\n  and\n  swap1\n  dup4\n  0xffffffffffffffffffffffffffffffffffffffff\n  and\n  mul\n  or\n  swap1\n  sstore\n  pop\n    /* \"F/Forward Lookup/ENSProxyForwardResolver.sol\":317:384  constructor(address _ens) {... */\n  pop\n    /* \"F/Forward Lookup/ENSProxyForwardResolver.sol\":248:771  contract ENSProxyForwardResolver {... */\n  jump(tag_6)\n    /* \"#utility.yul\":88:205   */\ntag_8:\n    /* \"#utility.yul\":197:198   */\n  0x00\n    /* \"#utility.yul\":194:195   */\n  dup1\n    /* \"#utility.yul\":187:199   */\n  revert\n    /* \"#utility.yul\":334:460   */\ntag_10:\n    /* \"#utility.yul\":371:378   */\n  0x00\n    /* \"#utility.yul\":411:453   */\n  0xffffffffffffffffffffffffffffffffffffffff\n    /* \"#utility.yul\":404:409   */\n  dup3\n    /* \"#utility.yul\":400:454   */\n  and\n    /* \"#utility.yul\":389:454   */\n  swap1\n  pop\n    /* \"#utility.yul\":334:460   */\n  swap2\n  swap1\n  pop\n  jump\t// out\n    /* \"#utility.yul\":466:562   */\ntag_11:\n    /* \"#utility.yul\":503:510   */\n  0x00\n    /* \"#utility.yul\":532:556   */\n  tag_20\n    /* \"#utility.yul\":550:555   */\n  dup3\n    /* \"#utility.yul\":532:556   */\n  tag_10\n  jump\t// in\ntag_20:\n    /* \"#utility.yul\":521:556   */\n  swap1\n  pop\n    /* \"#utility.yul\":466:562   */\n  swap2\n  swap1\n  pop\n  jump\t// out\n    /* \"#utility.yul\":568:690   */\ntag_12:\n    /* \"#utility.yul\":641:665   */\n  tag_22\n    /* \"#utility.yul\":659:664   */\n  dup2\n    /* \"#utility.yul\":641:665   */\n  tag_11\n  jump\t// in\ntag_22:\n    /* \"#utility.yul\":634:639   */\n  dup2\n    /* \"#utility.yul\":631:666   */\n  eq\n    /* \"#utility.yul\":621:684   */\n  tag_23\n  jumpi\n    /* \"#utility.yul\":680:681   */\n  0x00\n    /* \"#utility.yul\":677:678   */\n  dup1\n    /* \"#utility.yul\":670:682   */\n  revert\n    /* \"#utility.yul\":621:684   */\ntag_23:\n    /* \"#utility.yul\":568:690   */\n  pop\n  jump\t// out\n    /* \"#utility.yul\":696:839   */\ntag_13:\n    /* \"#utility.yul\":753:758   */\n  0x00\n    /* \"#utility.yul\":784:790   */\n  dup2\n    /* \"#utility.yul\":778:791   */\n  mload\n    /* \"#utility.yul\":769:791   */\n  swap1\n  pop\n    /* \"#utility.yul\":800:833   */\n  tag_25\n    /* \"#utility.yul\":827:832   */\n  dup2\n    /* \"#utility.yul\":800:833   */\n  tag_12\n  jump\t// in\ntag_25:\n    /* \"#utility.yul\":696:839   */\n  swap3\n  swap2\n  pop\n  pop\n  jump\t// out\n    /* \"#utility.yul\":845:1196   */\ntag_3:\n    /* \"#utility.yul\":915:921   */\n  0x00\n    /* \"#utility.yul\":964:966   */\n  0x20\n    /* \"#utility.yul\":952:961   */\n  dup3\n    /* \"#utility.yul\":943:950   */\n  dup5\n    /* \"#utility.yul\":939:962   */\n  sub\n    /* \"#utility.yul\":935:967   */\n  slt\n    /* \"#utility.yul\":932:1051   */\n  iszero\n  tag_27\n  jumpi\n    /* \"#utility.yul\":970:1049   */\n  tag_28\n  tag_8\n  jump\t// in\ntag_28:\n    /* \"#utility.yul\":932:1051   */\ntag_27:\n    /* \"#utility.yul\":1090:1091   */\n  0x00\n    /* \"#utility.yul\":1115:1179   */\n  tag_29\n    /* \"#utility.yul\":1171:1178   */\n  dup5\n    /* \"#utility.yul\":1162:1168   */\n  dup3\n    /* \"#utility.yul\":1151:1160   */\n  dup6\n    /* \"#utility.yul\":1147:1169   */\n  add\n    /* \"#utility.yul\":1115:1179   */\n  tag_13\n  jump\t// in\ntag_29:\n    /* \"#utility.yul\":1105:1179   */\n  swap2\n  pop\n    /* \"#utility.yul\":1061:1189   */\n  pop\n    /* \"#utility.yul\":845:1196   */\n  swap3\n  swap2\n  pop\n  pop\n  jump\t// out\n    /* \"F/Forward Lookup/ENSProxyForwardResolver.sol\":248:771  contract ENSProxyForwardResolver {... */\ntag_6:\n  dataSize(sub_0)\n  dup1\n  dataOffset(sub_0)\n  0x00\n  codecopy\n  0x00\n  return\nstop\n\nsub_0: assembly {\n        /* \"F/Forward Lookup/ENSProxyForwardResolver.sol\":248:771  contract ENSProxyForwardResolver {... */\n      mstore(0x40, 0x80)\n      callvalue\n      dup1\n      iszero\n      tag_1\n      jumpi\n      0x00\n      dup1\n      revert\n    tag_1:\n      pop\n      jumpi(tag_2, lt(calldatasize, 0x04))\n      shr(0xe0, calldataload(0x00))\n      dup1\n      0x3f15457f\n      eq\n      tag_3\n      jumpi\n      dup1\n      0x5734c011\n      eq\n      tag_4\n      jumpi\n    tag_2:\n      0x00\n      dup1\n      revert\n        /* \"F/Forward Lookup/ENSProxyForwardResolver.sol\":287:310  IENSRegistry public ens */\n    tag_3:\n      tag_5\n      tag_6\n      jump\t// in\n    tag_5:\n      mload(0x40)\n      tag_7\n      swap2\n      swap1\n      tag_8\n      jump\t// in\n    tag_7:\n      mload(0x40)\n      dup1\n      swap2\n      sub\n      swap1\n      return\n        /* \"F/Forward Lookup/ENSProxyForwardResolver.sol\":390:769  function resolveENS(string calldata name) external view returns (address) {... */\n    tag_4:\n      tag_9\n      0x04\n      dup1\n      calldatasize\n      sub\n      dup2\n      add\n      swap1\n      tag_10\n      swap2\n      swap1\n      tag_11\n      jump\t// in\n    tag_10:\n      tag_12\n      jump\t// in\n    tag_9:\n      mload(0x40)\n      tag_13\n      swap2\n      swap1\n      tag_14\n      jump\t// in\n    tag_13:\n      mload(0x40)\n      dup1\n      swap2\n      sub\n      swap1\n      return\n        /* \"F/Forward Lookup/ENSProxyForwardResolver.sol\":287:310  IENSRegistry public ens */\n    tag_6:\n      0x00\n      dup1\n      sload\n      swap1\n      0x0100\n      exp\n      swap1\n      div\n      0xffffffffffffffffffffffffffffffffffffffff\n      and\n      dup2\n      jump\t// out\n        /* \"F/Forward Lookup/ENSProxyForwardResolver.sol\":390:769  function resolveENS(string calldata name) external view returns (address) {... */\n    tag_12:\n        /* \"F/Forward Lookup/ENSProxyForwardResolver.sol\":455:462  address */\n      0x00\n        /* \"F/Forward Lookup/ENSProxyForwardResolver.sol\":474:486  bytes32 node */\n      dup1\n        /* \"F/Forward Lookup/ENSProxyForwardResolver.sol\":524:525  0 */\n      0x00\n        /* \"F/Forward Lookup/ENSProxyForwardResolver.sol\":516:526  bytes32(0) */\n      dup1\n      shl\n        /* \"F/Forward Lookup/ENSProxyForwardResolver.sol\":544:548  name */\n      dup5\n      dup5\n        /* \"F/Forward Lookup/ENSProxyForwardResolver.sol\":528:550  keccak256(bytes(name)) */\n      mload(0x40)\n      tag_16\n      swap3\n      swap2\n      swap1\n      tag_17\n      jump\t// in\n    tag_16:\n      mload(0x40)\n      dup1\n      swap2\n      sub\n      swap1\n      keccak256\n        /* \"F/Forward Lookup/ENSProxyForwardResolver.sol\":499:551  abi.encodePacked(bytes32(0), keccak256(bytes(name))) */\n      add(0x20, mload(0x40))\n      tag_18\n      swap3\n      swap2\n      swap1\n      tag_19\n      jump\t// in\n    tag_18:\n      mload(0x40)\n      0x20\n      dup2\n      dup4\n      sub\n      sub\n      dup2\n      mstore\n      swap1\n      0x40\n      mstore\n        /* \"F/Forward Lookup/ENSProxyForwardResolver.sol\":489:552  keccak256(abi.encodePacked(bytes32(0), keccak256(bytes(name)))) */\n      dup1\n      mload\n      swap1\n      0x20\n      add\n      keccak256\n        /* \"F/Forward Lookup/ENSProxyForwardResolver.sol\":474:552  bytes32 node = keccak256(abi.encodePacked(bytes32(0), keccak256(bytes(name)))) */\n      swap1\n      pop\n        /* \"F/Forward Lookup/ENSProxyForwardResolver.sol\":600:620  address resolverAddr */\n      0x00\n        /* \"F/Forward Lookup/ENSProxyForwardResolver.sol\":623:626  ens */\n      dup1\n      0x00\n      swap1\n      sload\n      swap1\n      0x0100\n      exp\n      swap1\n      div\n      0xffffffffffffffffffffffffffffffffffffffff\n      and\n        /* \"F/Forward Lookup/ENSProxyForwardResolver.sol\":623:635  ens.resolver */\n      0xffffffffffffffffffffffffffffffffffffffff\n      and\n      0x0178b8bf\n        /* \"F/Forward Lookup/ENSProxyForwardResolver.sol\":636:640  node */\n      dup4\n        /* \"F/Forward Lookup/ENSProxyForwardResolver.sol\":623:641  ens.resolver(node) */\n      mload(0x40)\n      dup3\n      0xffffffff\n      and\n      0xe0\n      shl\n      dup2\n      mstore\n      0x04\n      add\n      tag_20\n      swap2\n      swap1\n      tag_21\n      jump\t// in\n    tag_20:\n      0x20\n      mload(0x40)\n      dup1\n      dup4\n      sub\n      dup2\n      dup7\n      gas\n      staticcall\n      iszero\n      dup1\n      iszero\n      tag_23\n      jumpi\n      returndatasize\n      0x00\n      dup1\n      returndatacopy\n      revert(0x00, returndatasize)\n    tag_23:\n      pop\n      pop\n      pop\n      pop\n      mload(0x40)\n      returndatasize\n      not(0x1f)\n      0x1f\n      dup3\n      add\n      and\n      dup3\n      add\n      dup1\n      0x40\n      mstore\n      pop\n      dup2\n      add\n      swap1\n      tag_24\n      swap2\n      swap1\n      tag_25\n      jump\t// in\n    tag_24:\n        /* \"F/Forward Lookup/ENSProxyForwardResolver.sol\":600:641  address resolverAddr = ens.resolver(node) */\n      swap1\n      pop\n        /* \"F/Forward Lookup/ENSProxyForwardResolver.sol\":683:684  0 */\n      0x00\n        /* \"F/Forward Lookup/ENSProxyForwardResolver.sol\":659:685  resolverAddr != address(0) */\n      0xffffffffffffffffffffffffffffffffffffffff\n      and\n        /* \"F/Forward Lookup/ENSProxyForwardResolver.sol\":659:671  resolverAddr */\n      dup2\n        /* \"F/Forward Lookup/ENSProxyForwardResolver.sol\":659:685  resolverAddr != address(0) */\n      0xffffffffffffffffffffffffffffffffffffffff\n      and\n      sub\n        /* \"F/Forward Lookup/ENSProxyForwardResolver.sol\":651:707  require(resolverAddr != address(0), \"No resolver found\") */\n      tag_26\n      jumpi\n      mload(0x40)\n      0x08c379a000000000000000000000000000000000000000000000000000000000\n      dup2\n      mstore\n      0x04\n      add\n      tag_27\n      swap1\n      tag_28\n      jump\t// in\n    tag_27:\n      mload(0x40)\n      dup1\n      swap2\n      sub\n      swap1\n      revert\n    tag_26:\n        /* \"F/Forward Lookup/ENSProxyForwardResolver.sol\":738:750  resolverAddr */\n      dup1\n        /* \"F/Forward Lookup/ENSProxyForwardResolver.sol\":725:756  IENSResolver(resolverAddr).addr */\n      0xffffffffffffffffffffffffffffffffffffffff\n      and\n      0x3b3b57de\n        /* \"F/Forward Lookup/ENSProxyForwardResolver.sol\":757:761  node */\n      dup4\n        /* \"F/Forward Lookup/ENSProxyForwardResolver.sol\":725:762  IENSResolver(resolverAddr).addr(node) */\n      mload(0x40)\n      dup3\n      0xffffffff\n      and\n      0xe0\n      shl\n      dup2\n      mstore\n      0x04\n      add\n      tag_29\n      swap2\n      swap1\n      tag_21\n      jump\t// in\n    tag_29:\n      0x20\n      mload(0x40)\n      dup1\n      dup4\n      sub\n      dup2\n      dup7\n      gas\n      staticcall\n      iszero\n      dup1\n      iszero\n      tag_31\n      jumpi\n      returndatasize\n      0x00\n      dup1\n      returndatacopy\n      revert(0x00, returndatasize)\n    tag_31:\n      pop\n      pop\n      pop\n      pop\n      mload(0x40)\n      returndatasize\n      not(0x1f)\n      0x1f\n      dup3\n      add\n      and\n      dup3\n      add\n      dup1\n      0x40\n      mstore\n      pop\n      dup2\n      add\n      swap1\n      tag_32\n      swap2\n      swap1\n      tag_25\n      jump\t// in\n    tag_32:\n        /* \"F/Forward Lookup/ENSProxyForwardResolver.sol\":718:762  return IENSResolver(resolverAddr).addr(node) */\n      swap3\n      pop\n      pop\n      pop\n        /* \"F/Forward Lookup/ENSProxyForwardResolver.sol\":390:769  function resolveENS(string calldata name) external view returns (address) {... */\n      swap3\n      swap2\n      pop\n      pop\n      jump\t// out\n        /* \"#utility.yul\":7:133   */\n    tag_33:\n        /* \"#utility.yul\":44:51   */\n      0x00\n        /* \"#utility.yul\":84:126   */\n      0xffffffffffffffffffffffffffffffffffffffff\n        /* \"#utility.yul\":77:82   */\n      dup3\n        /* \"#utility.yul\":73:127   */\n      and\n        /* \"#utility.yul\":62:127   */\n      swap1\n      pop\n        /* \"#utility.yul\":7:133   */\n      swap2\n      swap1\n      pop\n      jump\t// out\n        /* \"#utility.yul\":139:199   */\n    tag_34:\n        /* \"#utility.yul\":167:170   */\n      0x00\n        /* \"#utility.yul\":188:193   */\n      dup2\n        /* \"#utility.yul\":181:193   */\n      swap1\n      pop\n        /* \"#utility.yul\":139:199   */\n      swap2\n      swap1\n      pop\n      jump\t// out\n        /* \"#utility.yul\":205:347   */\n    tag_35:\n        /* \"#utility.yul\":255:264   */\n      0x00\n        /* \"#utility.yul\":288:341   */\n      tag_64\n        /* \"#utility.yul\":306:340   */\n      tag_65\n        /* \"#utility.yul\":315:339   */\n      tag_66\n        /* \"#utility.yul\":333:338   */\n      dup5\n        /* \"#utility.yul\":315:339   */\n      tag_33\n      jump\t// in\n    tag_66:\n        /* \"#utility.yul\":306:340   */\n      tag_34\n      jump\t// in\n    tag_65:\n        /* \"#utility.yul\":288:341   */\n      tag_33\n      jump\t// in\n    tag_64:\n        /* \"#utility.yul\":275:341   */\n      swap1\n      pop\n        /* \"#utility.yul\":205:347   */\n      swap2\n      swap1\n      pop\n      jump\t// out\n        /* \"#utility.yul\":353:479   */\n    tag_36:\n        /* \"#utility.yul\":403:412   */\n      0x00\n        /* \"#utility.yul\":436:473   */\n      tag_68\n        /* \"#utility.yul\":467:472   */\n      dup3\n        /* \"#utility.yul\":436:473   */\n      tag_35\n      jump\t// in\n    tag_68:\n        /* \"#utility.yul\":423:473   */\n      swap1\n      pop\n        /* \"#utility.yul\":353:479   */\n      swap2\n      swap1\n      pop\n      jump\t// out\n        /* \"#utility.yul\":485:629   */\n    tag_37:\n        /* \"#utility.yul\":553:562   */\n      0x00\n        /* \"#utility.yul\":586:623   */\n      tag_70\n        /* \"#utility.yul\":617:622   */\n      dup3\n        /* \"#utility.yul\":586:623   */\n      tag_36\n      jump\t// in\n    tag_70:\n        /* \"#utility.yul\":573:623   */\n      swap1\n      pop\n        /* \"#utility.yul\":485:629   */\n      swap2\n      swap1\n      pop\n      jump\t// out\n        /* \"#utility.yul\":635:802   */\n    tag_38:\n        /* \"#utility.yul\":740:795   */\n      tag_72\n        /* \"#utility.yul\":789:794   */\n      dup2\n        /* \"#utility.yul\":740:795   */\n      tag_37\n      jump\t// in\n    tag_72:\n        /* \"#utility.yul\":735:738   */\n      dup3\n        /* \"#utility.yul\":728:796   */\n      mstore\n        /* \"#utility.yul\":635:802   */\n      pop\n      pop\n      jump\t// out\n        /* \"#utility.yul\":808:1066   */\n    tag_8:\n        /* \"#utility.yul\":919:923   */\n      0x00\n        /* \"#utility.yul\":957:959   */\n      0x20\n        /* \"#utility.yul\":946:955   */\n      dup3\n        /* \"#utility.yul\":942:960   */\n      add\n        /* \"#utility.yul\":934:960   */\n      swap1\n      pop\n        /* \"#utility.yul\":970:1059   */\n      tag_74\n        /* \"#utility.yul\":1056:1057   */\n      0x00\n        /* \"#utility.yul\":1045:1054   */\n      dup4\n        /* \"#utility.yul\":1041:1058   */\n      add\n        /* \"#utility.yul\":1032:1038   */\n      dup5\n        /* \"#utility.yul\":970:1059   */\n      tag_38\n      jump\t// in\n    tag_74:\n        /* \"#utility.yul\":808:1066   */\n      swap3\n      swap2\n      pop\n      pop\n      jump\t// out\n        /* \"#utility.yul\":1153:1270   */\n    tag_40:\n        /* \"#utility.yul\":1262:1263   */\n      0x00\n        /* \"#utility.yul\":1259:1260   */\n      dup1\n        /* \"#utility.yul\":1252:1264   */\n      revert\n        /* \"#utility.yul\":1276:1393   */\n    tag_41:\n        /* \"#utility.yul\":1385:1386   */\n      0x00\n        /* \"#utility.yul\":1382:1383   */\n      dup1\n        /* \"#utility.yul\":1375:1387   */\n      revert\n        /* \"#utility.yul\":1399:1516   */\n    tag_42:\n        /* \"#utility.yul\":1508:1509   */\n      0x00\n        /* \"#utility.yul\":1505:1506   */\n      dup1\n        /* \"#utility.yul\":1498:1510   */\n      revert\n        /* \"#utility.yul\":1522:1639   */\n    tag_43:\n        /* \"#utility.yul\":1631:1632   */\n      0x00\n        /* \"#utility.yul\":1628:1629   */\n      dup1\n        /* \"#utility.yul\":1621:1633   */\n      revert\n        /* \"#utility.yul\":1645:1762   */\n    tag_44:\n        /* \"#utility.yul\":1754:1755   */\n      0x00\n        /* \"#utility.yul\":1751:1752   */\n      dup1\n        /* \"#utility.yul\":1744:1756   */\n      revert\n        /* \"#utility.yul\":1782:2335   */\n    tag_45:\n        /* \"#utility.yul\":1840:1848   */\n      0x00\n        /* \"#utility.yul\":1850:1856   */\n      dup1\n        /* \"#utility.yul\":1900:1903   */\n      dup4\n        /* \"#utility.yul\":1893:1897   */\n      0x1f\n        /* \"#utility.yul\":1885:1891   */\n      dup5\n        /* \"#utility.yul\":1881:1898   */\n      add\n        /* \"#utility.yul\":1877:1904   */\n      slt\n        /* \"#utility.yul\":1867:1989   */\n      tag_82\n      jumpi\n        /* \"#utility.yul\":1908:1987   */\n      tag_83\n      tag_42\n      jump\t// in\n    tag_83:\n        /* \"#utility.yul\":1867:1989   */\n    tag_82:\n        /* \"#utility.yul\":2021:2027   */\n      dup3\n        /* \"#utility.yul\":2008:2028   */\n      calldataload\n        /* \"#utility.yul\":1998:2028   */\n      swap1\n      pop\n        /* \"#utility.yul\":2051:2069   */\n      0xffffffffffffffff\n        /* \"#utility.yul\":2043:2049   */\n      dup2\n        /* \"#utility.yul\":2040:2070   */\n      gt\n        /* \"#utility.yul\":2037:2154   */\n      iszero\n      tag_84\n      jumpi\n        /* \"#utility.yul\":2073:2152   */\n      tag_85\n      tag_43\n      jump\t// in\n    tag_85:\n        /* \"#utility.yul\":2037:2154   */\n    tag_84:\n        /* \"#utility.yul\":2187:2191   */\n      0x20\n        /* \"#utility.yul\":2179:2185   */\n      dup4\n        /* \"#utility.yul\":2175:2192   */\n      add\n        /* \"#utility.yul\":2163:2192   */\n      swap2\n      pop\n        /* \"#utility.yul\":2241:2244   */\n      dup4\n        /* \"#utility.yul\":2233:2237   */\n      0x01\n        /* \"#utility.yul\":2225:2231   */\n      dup3\n        /* \"#utility.yul\":2221:2238   */\n      mul\n        /* \"#utility.yul\":2211:2219   */\n      dup4\n        /* \"#utility.yul\":2207:2239   */\n      add\n        /* \"#utility.yul\":2204:2245   */\n      gt\n        /* \"#utility.yul\":2201:2329   */\n      iszero\n      tag_86\n      jumpi\n        /* \"#utility.yul\":2248:2327   */\n      tag_87\n      tag_44\n      jump\t// in\n    tag_87:\n        /* \"#utility.yul\":2201:2329   */\n    tag_86:\n        /* \"#utility.yul\":1782:2335   */\n      swap3\n      pop\n      swap3\n      swap1\n      pop\n      jump\t// out\n        /* \"#utility.yul\":2341:2870   */\n    tag_11:\n        /* \"#utility.yul\":2412:2418   */\n      0x00\n        /* \"#utility.yul\":2420:2426   */\n      dup1\n        /* \"#utility.yul\":2469:2471   */\n      0x20\n        /* \"#utility.yul\":2457:2466   */\n      dup4\n        /* \"#utility.yul\":2448:2455   */\n      dup6\n        /* \"#utility.yul\":2444:2467   */\n      sub\n        /* \"#utility.yul\":2440:2472   */\n      slt\n        /* \"#utility.yul\":2437:2556   */\n      iszero\n      tag_89\n      jumpi\n        /* \"#utility.yul\":2475:2554   */\n      tag_90\n      tag_40\n      jump\t// in\n    tag_90:\n        /* \"#utility.yul\":2437:2556   */\n    tag_89:\n        /* \"#utility.yul\":2623:2624   */\n      0x00\n        /* \"#utility.yul\":2612:2621   */\n      dup4\n        /* \"#utility.yul\":2608:2625   */\n      add\n        /* \"#utility.yul\":2595:2626   */\n      calldataload\n        /* \"#utility.yul\":2653:2671   */\n      0xffffffffffffffff\n        /* \"#utility.yul\":2645:2651   */\n      dup2\n        /* \"#utility.yul\":2642:2672   */\n      gt\n        /* \"#utility.yul\":2639:2756   */\n      iszero\n      tag_91\n      jumpi\n        /* \"#utility.yul\":2675:2754   */\n      tag_92\n      tag_41\n      jump\t// in\n    tag_92:\n        /* \"#utility.yul\":2639:2756   */\n    tag_91:\n        /* \"#utility.yul\":2788:2853   */\n      tag_93\n        /* \"#utility.yul\":2845:2852   */\n      dup6\n        /* \"#utility.yul\":2836:2842   */\n      dup3\n        /* \"#utility.yul\":2825:2834   */\n      dup7\n        /* \"#utility.yul\":2821:2843   */\n      add\n        /* \"#utility.yul\":2788:2853   */\n      tag_45\n      jump\t// in\n    tag_93:\n        /* \"#utility.yul\":2770:2853   */\n      swap3\n      pop\n      swap3\n      pop\n        /* \"#utility.yul\":2566:2863   */\n      pop\n        /* \"#utility.yul\":2341:2870   */\n      swap3\n      pop\n      swap3\n      swap1\n      pop\n      jump\t// out\n        /* \"#utility.yul\":2876:2972   */\n    tag_46:\n        /* \"#utility.yul\":2913:2920   */\n      0x00\n        /* \"#utility.yul\":2942:2966   */\n      tag_95\n        /* \"#utility.yul\":2960:2965   */\n      dup3\n        /* \"#utility.yul\":2942:2966   */\n      tag_33\n      jump\t// in\n    tag_95:\n        /* \"#utility.yul\":2931:2966   */\n      swap1\n      pop\n        /* \"#utility.yul\":2876:2972   */\n      swap2\n      swap1\n      pop\n      jump\t// out\n        /* \"#utility.yul\":2978:3096   */\n    tag_47:\n        /* \"#utility.yul\":3065:3089   */\n      tag_97\n        /* \"#utility.yul\":3083:3088   */\n      dup2\n        /* \"#utility.yul\":3065:3089   */\n      tag_46\n      jump\t// in\n    tag_97:\n        /* \"#utility.yul\":3060:3063   */\n      dup3\n        /* \"#utility.yul\":3053:3090   */\n      mstore\n        /* \"#utility.yul\":2978:3096   */\n      pop\n      pop\n      jump\t// out\n        /* \"#utility.yul\":3102:3324   */\n    tag_14:\n        /* \"#utility.yul\":3195:3199   */\n      0x00\n        /* \"#utility.yul\":3233:3235   */\n      0x20\n        /* \"#utility.yul\":3222:3231   */\n      dup3\n        /* \"#utility.yul\":3218:3236   */\n      add\n        /* \"#utility.yul\":3210:3236   */\n      swap1\n      pop\n        /* \"#utility.yul\":3246:3317   */\n      tag_99\n        /* \"#utility.yul\":3314:3315   */\n      0x00\n        /* \"#utility.yul\":3303:3312   */\n      dup4\n        /* \"#utility.yul\":3299:3316   */\n      add\n        /* \"#utility.yul\":3290:3296   */\n      dup5\n        /* \"#utility.yul\":3246:3317   */\n      tag_47\n      jump\t// in\n    tag_99:\n        /* \"#utility.yul\":3102:3324   */\n      swap3\n      swap2\n      pop\n      pop\n      jump\t// out\n        /* \"#utility.yul\":3330:3477   */\n    tag_48:\n        /* \"#utility.yul\":3431:3442   */\n      0x00\n        /* \"#utility.yul\":3468:3471   */\n      dup2\n        /* \"#utility.yul\":3453:3471   */\n      swap1\n      pop\n        /* \"#utility.yul\":3330:3477   */\n      swap3\n      swap2\n      pop\n      pop\n      jump\t// out\n        /* \"#utility.yul\":3483:3631   */\n    tag_49:\n        /* \"#utility.yul\":3581:3587   */\n      dup3\n        /* \"#utility.yul\":3576:3579   */\n      dup2\n        /* \"#utility.yul\":3571:3574   */\n      dup4\n        /* \"#utility.yul\":3558:3588   */\n      calldatacopy\n        /* \"#utility.yul\":3622:3623   */\n      0x00\n        /* \"#utility.yul\":3613:3619   */\n      dup4\n        /* \"#utility.yul\":3608:3611   */\n      dup4\n        /* \"#utility.yul\":3604:3620   */\n      add\n        /* \"#utility.yul\":3597:3624   */\n      mstore\n        /* \"#utility.yul\":3483:3631   */\n      pop\n      pop\n      pop\n      jump\t// out\n        /* \"#utility.yul\":3659:3986   */\n    tag_50:\n        /* \"#utility.yul\":3773:3776   */\n      0x00\n        /* \"#utility.yul\":3794:3882   */\n      tag_103\n        /* \"#utility.yul\":3875:3881   */\n      dup4\n        /* \"#utility.yul\":3870:3873   */\n      dup6\n        /* \"#utility.yul\":3794:3882   */\n      tag_48\n      jump\t// in\n    tag_103:\n        /* \"#utility.yul\":3787:3882   */\n      swap4\n      pop\n        /* \"#utility.yul\":3892:3948   */\n      tag_104\n        /* \"#utility.yul\":3941:3947   */\n      dup4\n        /* \"#utility.yul\":3936:3939   */\n      dup6\n        /* \"#utility.yul\":3929:3934   */\n      dup5\n        /* \"#utility.yul\":3892:3948   */\n      tag_49\n      jump\t// in\n    tag_104:\n        /* \"#utility.yul\":3973:3979   */\n      dup3\n        /* \"#utility.yul\":3968:3971   */\n      dup5\n        /* \"#utility.yul\":3964:3980   */\n      add\n        /* \"#utility.yul\":3957:3980   */\n      swap1\n      pop\n        /* \"#utility.yul\":3659:3986   */\n      swap4\n      swap3\n      pop\n      pop\n      pop\n      jump\t// out\n        /* \"#utility.yul\":3992:4283   */\n    tag_17:\n        /* \"#utility.yul\":4132:4135   */\n      0x00\n        /* \"#utility.yul\":4154:4257   */\n      tag_106\n        /* \"#utility.yul\":4253:4256   */\n      dup3\n        /* \"#utility.yul\":4244:4250   */\n      dup5\n        /* \"#utility.yul\":4236:4242   */\n      dup7\n        /* \"#utility.yul\":4154:4257   */\n      tag_50\n      jump\t// in\n    tag_106:\n        /* \"#utility.yul\":4147:4257   */\n      swap2\n      pop\n        /* \"#utility.yul\":4274:4277   */\n      dup2\n        /* \"#utility.yul\":4267:4277   */\n      swap1\n      pop\n        /* \"#utility.yul\":3992:4283   */\n      swap4\n      swap3\n      pop\n      pop\n      pop\n      jump\t// out\n        /* \"#utility.yul\":4289:4366   */\n    tag_51:\n        /* \"#utility.yul\":4326:4333   */\n      0x00\n        /* \"#utility.yul\":4355:4360   */\n      dup2\n        /* \"#utility.yul\":4344:4360   */\n      swap1\n      pop\n        /* \"#utility.yul\":4289:4366   */\n      swap2\n      swap1\n      pop\n      jump\t// out\n        /* \"#utility.yul\":4372:4451   */\n    tag_52:\n        /* \"#utility.yul\":4411:4418   */\n      0x00\n        /* \"#utility.yul\":4440:4445   */\n      dup2\n        /* \"#utility.yul\":4429:4445   */\n      swap1\n      pop\n        /* \"#utility.yul\":4372:4451   */\n      swap2\n      swap1\n      pop\n      jump\t// out\n        /* \"#utility.yul\":4457:4614   */\n    tag_53:\n        /* \"#utility.yul\":4562:4607   */\n      tag_110\n        /* \"#utility.yul\":4582:4606   */\n      tag_111\n        /* \"#utility.yul\":4600:4605   */\n      dup3\n        /* \"#utility.yul\":4582:4606   */\n      tag_51\n      jump\t// in\n    tag_111:\n        /* \"#utility.yul\":4562:4607   */\n      tag_52\n      jump\t// in\n    tag_110:\n        /* \"#utility.yul\":4557:4560   */\n      dup3\n        /* \"#utility.yul\":4550:4608   */\n      mstore\n        /* \"#utility.yul\":4457:4614   */\n      pop\n      pop\n      jump\t// out\n        /* \"#utility.yul\":4620:5017   */\n    tag_19:\n        /* \"#utility.yul\":4760:4763   */\n      0x00\n        /* \"#utility.yul\":4775:4850   */\n      tag_113\n        /* \"#utility.yul\":4846:4849   */\n      dup3\n        /* \"#utility.yul\":4837:4843   */\n      dup6\n        /* \"#utility.yul\":4775:4850   */\n      tag_53\n      jump\t// in\n    tag_113:\n        /* \"#utility.yul\":4875:4877   */\n      0x20\n        /* \"#utility.yul\":4870:4873   */\n      dup3\n        /* \"#utility.yul\":4866:4878   */\n      add\n        /* \"#utility.yul\":4859:4878   */\n      swap2\n      pop\n        /* \"#utility.yul\":4888:4963   */\n      tag_114\n        /* \"#utility.yul\":4959:4962   */\n      dup3\n        /* \"#utility.yul\":4950:4956   */\n      dup5\n        /* \"#utility.yul\":4888:4963   */\n      tag_53\n      jump\t// in\n    tag_114:\n        /* \"#utility.yul\":4988:4990   */\n      0x20\n        /* \"#utility.yul\":4983:4986   */\n      dup3\n        /* \"#utility.yul\":4979:4991   */\n      add\n        /* \"#utility.yul\":4972:4991   */\n      swap2\n      pop\n        /* \"#utility.yul\":5008:5011   */\n      dup2\n        /* \"#utility.yul\":5001:5011   */\n      swap1\n      pop\n        /* \"#utility.yul\":4620:5017   */\n      swap4\n      swap3\n      pop\n      pop\n      pop\n      jump\t// out\n        /* \"#utility.yul\":5023:5141   */\n    tag_54:\n        /* \"#utility.yul\":5110:5134   */\n      tag_116\n        /* \"#utility.yul\":5128:5133   */\n      dup2\n        /* \"#utility.yul\":5110:5134   */\n      tag_51\n      jump\t// in\n    tag_116:\n        /* \"#utility.yul\":5105:5108   */\n      dup3\n        /* \"#utility.yul\":5098:5135   */\n      mstore\n        /* \"#utility.yul\":5023:5141   */\n      pop\n      pop\n      jump\t// out\n        /* \"#utility.yul\":5147:5369   */\n    tag_21:\n        /* \"#utility.yul\":5240:5244   */\n      0x00\n        /* \"#utility.yul\":5278:5280   */\n      0x20\n        /* \"#utility.yul\":5267:5276   */\n      dup3\n        /* \"#utility.yul\":5263:5281   */\n      add\n        /* \"#utility.yul\":5255:5281   */\n      swap1\n      pop\n        /* \"#utility.yul\":5291:5362   */\n      tag_118\n        /* \"#utility.yul\":5359:5360   */\n      0x00\n        /* \"#utility.yul\":5348:5357   */\n      dup4\n        /* \"#utility.yul\":5344:5361   */\n      add\n        /* \"#utility.yul\":5335:5341   */\n      dup5\n        /* \"#utility.yul\":5291:5362   */\n      tag_54\n      jump\t// in\n    tag_118:\n        /* \"#utility.yul\":5147:5369   */\n      swap3\n      swap2\n      pop\n      pop\n      jump\t// out\n        /* \"#utility.yul\":5375:5497   */\n    tag_55:\n        /* \"#utility.yul\":5448:5472   */\n      tag_120\n        /* \"#utility.yul\":5466:5471   */\n      dup2\n        /* \"#utility.yul\":5448:5472   */\n      tag_46\n      jump\t// in\n    tag_120:\n        /* \"#utility.yul\":5441:5446   */\n      dup2\n        /* \"#utility.yul\":5438:5473   */\n      eq\n        /* \"#utility.yul\":5428:5491   */\n      tag_121\n      jumpi\n        /* \"#utility.yul\":5487:5488   */\n      0x00\n        /* \"#utility.yul\":5484:5485   */\n      dup1\n        /* \"#utility.yul\":5477:5489   */\n      revert\n        /* \"#utility.yul\":5428:5491   */\n    tag_121:\n        /* \"#utility.yul\":5375:5497   */\n      pop\n      jump\t// out\n        /* \"#utility.yul\":5503:5646   */\n    tag_56:\n        /* \"#utility.yul\":5560:5565   */\n      0x00\n        /* \"#utility.yul\":5591:5597   */\n      dup2\n        /* \"#utility.yul\":5585:5598   */\n      mload\n        /* \"#utility.yul\":5576:5598   */\n      swap1\n      pop\n        /* \"#utility.yul\":5607:5640   */\n      tag_123\n        /* \"#utility.yul\":5634:5639   */\n      dup2\n        /* \"#utility.yul\":5607:5640   */\n      tag_55\n      jump\t// in\n    tag_123:\n        /* \"#utility.yul\":5503:5646   */\n      swap3\n      swap2\n      pop\n      pop\n      jump\t// out\n        /* \"#utility.yul\":5652:6003   */\n    tag_25:\n        /* \"#utility.yul\":5722:5728   */\n      0x00\n        /* \"#utility.yul\":5771:5773   */\n      0x20\n        /* \"#utility.yul\":5759:5768   */\n      dup3\n        /* \"#utility.yul\":5750:5757   */\n      dup5\n        /* \"#utility.yul\":5746:5769   */\n      sub\n        /* \"#utility.yul\":5742:5774   */\n      slt\n        /* \"#utility.yul\":5739:5858   */\n      iszero\n      tag_125\n      jumpi\n        /* \"#utility.yul\":5777:5856   */\n      tag_126\n      tag_40\n      jump\t// in\n    tag_126:\n        /* \"#utility.yul\":5739:5858   */\n    tag_125:\n        /* \"#utility.yul\":5897:5898   */\n      0x00\n        /* \"#utility.yul\":5922:5986   */\n      tag_127\n        /* \"#utility.yul\":5978:5985   */\n      dup5\n        /* \"#utility.yul\":5969:5975   */\n      dup3\n        /* \"#utility.yul\":5958:5967   */\n      dup6\n        /* \"#utility.yul\":5954:5976   */\n      add\n        /* \"#utility.yul\":5922:5986   */\n      tag_56\n      jump\t// in\n    tag_127:\n        /* \"#utility.yul\":5912:5986   */\n      swap2\n      pop\n        /* \"#utility.yul\":5868:5996   */\n      pop\n        /* \"#utility.yul\":5652:6003   */\n      swap3\n      swap2\n      pop\n      pop\n      jump\t// out\n        /* \"#utility.yul\":6009:6178   */\n    tag_57:\n        /* \"#utility.yul\":6093:6104   */\n      0x00\n        /* \"#utility.yul\":6127:6133   */\n      dup3\n        /* \"#utility.yul\":6122:6125   */\n      dup3\n        /* \"#utility.yul\":6115:6134   */\n      mstore\n        /* \"#utility.yul\":6167:6171   */\n      0x20\n        /* \"#utility.yul\":6162:6165   */\n      dup3\n        /* \"#utility.yul\":6158:6172   */\n      add\n        /* \"#utility.yul\":6143:6172   */\n      swap1\n      pop\n        /* \"#utility.yul\":6009:6178   */\n      swap3\n      swap2\n      pop\n      pop\n      jump\t// out\n        /* \"#utility.yul\":6184:6351   */\n    tag_58:\n        /* \"#utility.yul\":6324:6343   */\n      0x4e6f207265736f6c76657220666f756e64000000000000000000000000000000\n        /* \"#utility.yul\":6320:6321   */\n      0x00\n        /* \"#utility.yul\":6312:6318   */\n      dup3\n        /* \"#utility.yul\":6308:6322   */\n      add\n        /* \"#utility.yul\":6301:6344   */\n      mstore\n        /* \"#utility.yul\":6184:6351   */\n      pop\n      jump\t// out\n        /* \"#utility.yul\":6357:6723   */\n    tag_59:\n        /* \"#utility.yul\":6499:6502   */\n      0x00\n        /* \"#utility.yul\":6520:6587   */\n      tag_131\n        /* \"#utility.yul\":6584:6586   */\n      0x11\n        /* \"#utility.yul\":6579:6582   */\n      dup4\n        /* \"#utility.yul\":6520:6587   */\n      tag_57\n      jump\t// in\n    tag_131:\n        /* \"#utility.yul\":6513:6587   */\n      swap2\n      pop\n        /* \"#utility.yul\":6596:6689   */\n      tag_132\n        /* \"#utility.yul\":6685:6688   */\n      dup3\n        /* \"#utility.yul\":6596:6689   */\n      tag_58\n      jump\t// in\n    tag_132:\n        /* \"#utility.yul\":6714:6716   */\n      0x20\n        /* \"#utility.yul\":6709:6712   */\n      dup3\n        /* \"#utility.yul\":6705:6717   */\n      add\n        /* \"#utility.yul\":6698:6717   */\n      swap1\n      pop\n        /* \"#utility.yul\":6357:6723   */\n      swap2\n      swap1\n      pop\n      jump\t// out\n        /* \"#utility.yul\":6729:7148   */\n    tag_28:\n        /* \"#utility.yul\":6895:6899   */\n      0x00\n        /* \"#utility.yul\":6933:6935   */\n      0x20\n        /* \"#utility.yul\":6922:6931   */\n      dup3\n        /* \"#utility.yul\":6918:6936   */\n      add\n        /* \"#utility.yul\":6910:6936   */\n      swap1\n      pop\n        /* \"#utility.yul\":6982:6991   */\n      dup2\n        /* \"#utility.yul\":6976:6980   */\n      dup2\n        /* \"#utility.yul\":6972:6992   */\n      sub\n        /* \"#utility.yul\":6968:6969   */\n      0x00\n        /* \"#utility.yul\":6957:6966   */\n      dup4\n        /* \"#utility.yul\":6953:6970   */\n      add\n        /* \"#utility.yul\":6946:6993   */\n      mstore\n        /* \"#utility.yul\":7010:7141   */\n      tag_134\n        /* \"#utility.yul\":7136:7140   */\n      dup2\n        /* \"#utility.yul\":7010:7141   */\n      tag_59\n      jump\t// in\n    tag_134:\n        /* \"#utility.yul\":7002:7141   */\n      swap1\n      pop\n        /* \"#utility.yul\":6729:7148   */\n      swap2\n      swap1\n      pop\n      jump\t// out\n\n    auxdata: 0xa2646970667358221220070fa815d8b3e61f4bb958988deadfbe38442e8e614fd5021e0cb1b67018807f64736f6c634300081a0033\n}\n",
				"bytecode": {
					"linkReferences": {},
					"object": "608060405234801561000f575f80fd5b506040516106d93803806106d9833981810160405281019061003191906100d4565b805f806101000a81548173ffffffffffffffffffffffffffffffffffffffff021916908373ffffffffffffffffffffffffffffffffffffffff160217905550506100ff565b5f80fd5b5f73ffffffffffffffffffffffffffffffffffffffff82169050919050565b5f6100a38261007a565b9050919050565b6100b381610099565b81146100bd575f80fd5b50565b5f815190506100ce816100aa565b92915050565b5f602082840312156100e9576100e8610076565b5b5f6100f6848285016100c0565b91505092915050565b6105cd8061010c5f395ff3fe608060405234801561000f575f80fd5b5060043610610034575f3560e01c80633f15457f146100385780635734c01114610056575b5f80fd5b610040610086565b60405161004d91906102f4565b60405180910390f35b610070600480360381019061006b9190610376565b6100a9565b60405161007d91906103e1565b60405180910390f35b5f8054906101000a900473ffffffffffffffffffffffffffffffffffffffff1681565b5f805f801b84846040516100be929190610436565b60405180910390206040516020016100d7929190610477565b6040516020818303038152906040528051906020012090505f805f9054906101000a900473ffffffffffffffffffffffffffffffffffffffff1673ffffffffffffffffffffffffffffffffffffffff16630178b8bf836040518263ffffffff1660e01b815260040161014991906104b1565b602060405180830381865afa158015610164573d5f803e3d5ffd5b505050506040513d601f19601f8201168201806040525081019061018891906104f4565b90505f73ffffffffffffffffffffffffffffffffffffffff168173ffffffffffffffffffffffffffffffffffffffff16036101f8576040517f08c379a00000000000000000000000000000000000000000000000000000000081526004016101ef90610579565b60405180910390fd5b8073ffffffffffffffffffffffffffffffffffffffff16633b3b57de836040518263ffffffff1660e01b815260040161023191906104b1565b602060405180830381865afa15801561024c573d5f803e3d5ffd5b505050506040513d601f19601f8201168201806040525081019061027091906104f4565b9250505092915050565b5f73ffffffffffffffffffffffffffffffffffffffff82169050919050565b5f819050919050565b5f6102bc6102b76102b28461027a565b610299565b61027a565b9050919050565b5f6102cd826102a2565b9050919050565b5f6102de826102c3565b9050919050565b6102ee816102d4565b82525050565b5f6020820190506103075f8301846102e5565b92915050565b5f80fd5b5f80fd5b5f80fd5b5f80fd5b5f80fd5b5f8083601f84011261033657610335610315565b5b8235905067ffffffffffffffff81111561035357610352610319565b5b60208301915083600182028301111561036f5761036e61031d565b5b9250929050565b5f806020838503121561038c5761038b61030d565b5b5f83013567ffffffffffffffff8111156103a9576103a8610311565b5b6103b585828601610321565b92509250509250929050565b5f6103cb8261027a565b9050919050565b6103db816103c1565b82525050565b5f6020820190506103f45f8301846103d2565b92915050565b5f81905092915050565b828183375f83830152505050565b5f61041d83856103fa565b935061042a838584610404565b82840190509392505050565b5f610442828486610412565b91508190509392505050565b5f819050919050565b5f819050919050565b61047161046c8261044e565b610457565b82525050565b5f6104828285610460565b6020820191506104928284610460565b6020820191508190509392505050565b6104ab8161044e565b82525050565b5f6020820190506104c45f8301846104a2565b92915050565b6104d3816103c1565b81146104dd575f80fd5b50565b5f815190506104ee816104ca565b92915050565b5f602082840312156105095761050861030d565b5b5f610516848285016104e0565b91505092915050565b5f82825260208201905092915050565b7f4e6f207265736f6c76657220666f756e640000000000000000000000000000005f82015250565b5f61056360118361051f565b915061056e8261052f565b602082019050919050565b5f6020820190508181035f83015261059081610557565b905091905056fea2646970667358221220070fa815d8b3e61f4bb958988deadfbe38442e8e614fd5021e0cb1b67018807f64736f6c634300081a0033",
					"opcodes": "PUSH1 0x80 PUSH1 0x40 MSTORE CALLVALUE DUP1 ISZERO PUSH2 0xF JUMPI PUSH0 DUP1 REVERT JUMPDEST POP PUSH1 0x40 MLOAD PUSH2 0x6D9 CODESIZE SUB DUP1 PUSH2 0x6D9 DUP4 CODECOPY DUP2 DUP2 ADD PUSH1 0x40 MSTORE DUP2 ADD SWAP1 PUSH2 0x31 SWAP2 SWAP1 PUSH2 0xD4 JUMP JUMPDEST DUP1 PUSH0 DUP1 PUSH2 0x100 EXP DUP2 SLOAD DUP2 PUSH20 0xFFFFFFFFFFFFFFFFFFFFFFFFFFFFFFFFFFFFFFFF MUL NOT AND SWAP1 DUP4 PUSH20 0xFFFFFFFFFFFFFFFFFFFFFFFFFFFFFFFFFFFFFFFF AND MUL OR SWAP1 SSTORE POP POP PUSH2 0xFF JUMP JUMPDEST PUSH0 DUP1 REVERT JUMPDEST PUSH0 PUSH20 0xFFFFFFFFFFFFFFFFFFFFFFFFFFFFFFFFFFFFFFFF DUP3 AND SWAP1 POP SWAP2 SWAP1 POP JUMP JUMPDEST PUSH0 PUSH2 0xA3 DUP3 PUSH2 0x7A JUMP JUMPDEST SWAP1 POP SWAP2 SWAP1 POP JUMP JUMPDEST PUSH2 0xB3 DUP2 PUSH2 0x99 JUMP JUMPDEST DUP2 EQ PUSH2 0xBD JUMPI PUSH0 DUP1 REVERT JUMPDEST POP JUMP JUMPDEST PUSH0 DUP2 MLOAD SWAP1 POP PUSH2 0xCE DUP2 PUSH2 0xAA JUMP JUMPDEST SWAP3 SWAP2 POP POP JUMP JUMPDEST PUSH0 PUSH1 0x20 DUP3 DUP5 SUB SLT ISZERO PUSH2 0xE9 JUMPI PUSH2 0xE8 PUSH2 0x76 JUMP JUMPDEST JUMPDEST PUSH0 PUSH2 0xF6 DUP5 DUP3 DUP6 ADD PUSH2 0xC0 JUMP JUMPDEST SWAP2 POP POP SWAP3 SWAP2 POP POP JUMP JUMPDEST PUSH2 0x5CD DUP1 PUSH2 0x10C PUSH0 CODECOPY PUSH0 RETURN INVALID PUSH1 0x80 PUSH1 0x40 MSTORE CALLVALUE DUP1 ISZERO PUSH2 0xF JUMPI PUSH0 DUP1 REVERT JUMPDEST POP PUSH1 0x4 CALLDATASIZE LT PUSH2 0x34 JUMPI PUSH0 CALLDATALOAD PUSH1 0xE0 SHR DUP1 PUSH4 0x3F15457F EQ PUSH2 0x38 JUMPI DUP1 PUSH4 0x5734C011 EQ PUSH2 0x56 JUMPI JUMPDEST PUSH0 DUP1 REVERT JUMPDEST PUSH2 0x40 PUSH2 0x86 JUMP JUMPDEST PUSH1 0x40 MLOAD PUSH2 0x4D SWAP2 SWAP1 PUSH2 0x2F4 JUMP JUMPDEST PUSH1 0x40 MLOAD DUP1 SWAP2 SUB SWAP1 RETURN JUMPDEST PUSH2 0x70 PUSH1 0x4 DUP1 CALLDATASIZE SUB DUP2 ADD SWAP1 PUSH2 0x6B SWAP2 SWAP1 PUSH2 0x376 JUMP JUMPDEST PUSH2 0xA9 JUMP JUMPDEST PUSH1 0x40 MLOAD PUSH2 0x7D SWAP2 SWAP1 PUSH2 0x3E1 JUMP JUMPDEST PUSH1 0x40 MLOAD DUP1 SWAP2 SUB SWAP1 RETURN JUMPDEST PUSH0 DUP1 SLOAD SWAP1 PUSH2 0x100 EXP SWAP1 DIV PUSH20 0xFFFFFFFFFFFFFFFFFFFFFFFFFFFFFFFFFFFFFFFF AND DUP2 JUMP JUMPDEST PUSH0 DUP1 PUSH0 DUP1 SHL DUP5 DUP5 PUSH1 0x40 MLOAD PUSH2 0xBE SWAP3 SWAP2 SWAP1 PUSH2 0x436 JUMP JUMPDEST PUSH1 0x40 MLOAD DUP1 SWAP2 SUB SWAP1 KECCAK256 PUSH1 0x40 MLOAD PUSH1 0x20 ADD PUSH2 0xD7 SWAP3 SWAP2 SWAP1 PUSH2 0x477 JUMP JUMPDEST PUSH1 0x40 MLOAD PUSH1 0x20 DUP2 DUP4 SUB SUB DUP2 MSTORE SWAP1 PUSH1 0x40 MSTORE DUP1 MLOAD SWAP1 PUSH1 0x20 ADD KECCAK256 SWAP1 POP PUSH0 DUP1 PUSH0 SWAP1 SLOAD SWAP1 PUSH2 0x100 EXP SWAP1 DIV PUSH20 0xFFFFFFFFFFFFFFFFFFFFFFFFFFFFFFFFFFFFFFFF AND PUSH20 0xFFFFFFFFFFFFFFFFFFFFFFFFFFFFFFFFFFFFFFFF AND PUSH4 0x178B8BF DUP4 PUSH1 0x40 MLOAD DUP3 PUSH4 0xFFFFFFFF AND PUSH1 0xE0 SHL DUP2 MSTORE PUSH1 0x4 ADD PUSH2 0x149 SWAP2 SWAP1 PUSH2 0x4B1 JUMP JUMPDEST PUSH1 0x20 PUSH1 0x40 MLOAD DUP1 DUP4 SUB DUP2 DUP7 GAS STATICCALL ISZERO DUP1 ISZERO PUSH2 0x164 JUMPI RETURNDATASIZE PUSH0 DUP1 RETURNDATACOPY RETURNDATASIZE PUSH0 REVERT JUMPDEST POP POP POP POP PUSH1 0x40 MLOAD RETURNDATASIZE PUSH1 0x1F NOT PUSH1 0x1F DUP3 ADD AND DUP3 ADD DUP1 PUSH1 0x40 MSTORE POP DUP2 ADD SWAP1 PUSH2 0x188 SWAP2 SWAP1 PUSH2 0x4F4 JUMP JUMPDEST SWAP1 POP PUSH0 PUSH20 0xFFFFFFFFFFFFFFFFFFFFFFFFFFFFFFFFFFFFFFFF AND DUP2 PUSH20 0xFFFFFFFFFFFFFFFFFFFFFFFFFFFFFFFFFFFFFFFF AND SUB PUSH2 0x1F8 JUMPI PUSH1 0x40 MLOAD PUSH32 0x8C379A000000000000000000000000000000000000000000000000000000000 DUP2 MSTORE PUSH1 0x4 ADD PUSH2 0x1EF SWAP1 PUSH2 0x579 JUMP JUMPDEST PUSH1 0x40 MLOAD DUP1 SWAP2 SUB SWAP1 REVERT JUMPDEST DUP1 PUSH20 0xFFFFFFFFFFFFFFFFFFFFFFFFFFFFFFFFFFFFFFFF AND PUSH4 0x3B3B57DE DUP4 PUSH1 0x40 MLOAD DUP3 PUSH4 0xFFFFFFFF AND PUSH1 0xE0 SHL DUP2 MSTORE PUSH1 0x4 ADD PUSH2 0x231 SWAP2 SWAP1 PUSH2 0x4B1 JUMP JUMPDEST PUSH1 0x20 PUSH1 0x40 MLOAD DUP1 DUP4 SUB DUP2 DUP7 GAS STATICCALL ISZERO DUP1 ISZERO PUSH2 0x24C JUMPI RETURNDATASIZE PUSH0 DUP1 RETURNDATACOPY RETURNDATASIZE PUSH0 REVERT JUMPDEST POP POP POP POP PUSH1 0x40 MLOAD RETURNDATASIZE PUSH1 0x1F NOT PUSH1 0x1F DUP3 ADD AND DUP3 ADD DUP1 PUSH1 0x40 MSTORE POP DUP2 ADD SWAP1 PUSH2 0x270 SWAP2 SWAP1 PUSH2 0x4F4 JUMP JUMPDEST SWAP3 POP POP POP SWAP3 SWAP2 POP POP JUMP JUMPDEST PUSH0 PUSH20 0xFFFFFFFFFFFFFFFFFFFFFFFFFFFFFFFFFFFFFFFF DUP3 AND SWAP1 POP SWAP2 SWAP1 POP JUMP JUMPDEST PUSH0 DUP2 SWAP1 POP SWAP2 SWAP1 POP JUMP JUMPDEST PUSH0 PUSH2 0x2BC PUSH2 0x2B7 PUSH2 0x2B2 DUP5 PUSH2 0x27A JUMP JUMPDEST PUSH2 0x299 JUMP JUMPDEST PUSH2 0x27A JUMP JUMPDEST SWAP1 POP SWAP2 SWAP1 POP JUMP JUMPDEST PUSH0 PUSH2 0x2CD DUP3 PUSH2 0x2A2 JUMP JUMPDEST SWAP1 POP SWAP2 SWAP1 POP JUMP JUMPDEST PUSH0 PUSH2 0x2DE DUP3 PUSH2 0x2C3 JUMP JUMPDEST SWAP1 POP SWAP2 SWAP1 POP JUMP JUMPDEST PUSH2 0x2EE DUP2 PUSH2 0x2D4 JUMP JUMPDEST DUP3 MSTORE POP POP JUMP JUMPDEST PUSH0 PUSH1 0x20 DUP3 ADD SWAP1 POP PUSH2 0x307 PUSH0 DUP4 ADD DUP5 PUSH2 0x2E5 JUMP JUMPDEST SWAP3 SWAP2 POP POP JUMP JUMPDEST PUSH0 DUP1 REVERT JUMPDEST PUSH0 DUP1 REVERT JUMPDEST PUSH0 DUP1 REVERT JUMPDEST PUSH0 DUP1 REVERT JUMPDEST PUSH0 DUP1 REVERT JUMPDEST PUSH0 DUP1 DUP4 PUSH1 0x1F DUP5 ADD SLT PUSH2 0x336 JUMPI PUSH2 0x335 PUSH2 0x315 JUMP JUMPDEST JUMPDEST DUP3 CALLDATALOAD SWAP1 POP PUSH8 0xFFFFFFFFFFFFFFFF DUP2 GT ISZERO PUSH2 0x353 JUMPI PUSH2 0x352 PUSH2 0x319 JUMP JUMPDEST JUMPDEST PUSH1 0x20 DUP4 ADD SWAP2 POP DUP4 PUSH1 0x1 DUP3 MUL DUP4 ADD GT ISZERO PUSH2 0x36F JUMPI PUSH2 0x36E PUSH2 0x31D JUMP JUMPDEST JUMPDEST SWAP3 POP SWAP3 SWAP1 POP JUMP JUMPDEST PUSH0 DUP1 PUSH1 0x20 DUP4 DUP6 SUB SLT ISZERO PUSH2 0x38C JUMPI PUSH2 0x38B PUSH2 0x30D JUMP JUMPDEST JUMPDEST PUSH0 DUP4 ADD CALLDATALOAD PUSH8 0xFFFFFFFFFFFFFFFF DUP2 GT ISZERO PUSH2 0x3A9 JUMPI PUSH2 0x3A8 PUSH2 0x311 JUMP JUMPDEST JUMPDEST PUSH2 0x3B5 DUP6 DUP3 DUP7 ADD PUSH2 0x321 JUMP JUMPDEST SWAP3 POP SWAP3 POP POP SWAP3 POP SWAP3 SWAP1 POP JUMP JUMPDEST PUSH0 PUSH2 0x3CB DUP3 PUSH2 0x27A JUMP JUMPDEST SWAP1 POP SWAP2 SWAP1 POP JUMP JUMPDEST PUSH2 0x3DB DUP2 PUSH2 0x3C1 JUMP JUMPDEST DUP3 MSTORE POP POP JUMP JUMPDEST PUSH0 PUSH1 0x20 DUP3 ADD SWAP1 POP PUSH2 0x3F4 PUSH0 DUP4 ADD DUP5 PUSH2 0x3D2 JUMP JUMPDEST SWAP3 SWAP2 POP POP JUMP JUMPDEST PUSH0 DUP2 SWAP1 POP SWAP3 SWAP2 POP POP JUMP JUMPDEST DUP3 DUP2 DUP4 CALLDATACOPY PUSH0 DUP4 DUP4 ADD MSTORE POP POP POP JUMP JUMPDEST PUSH0 PUSH2 0x41D DUP4 DUP6 PUSH2 0x3FA JUMP JUMPDEST SWAP4 POP PUSH2 0x42A DUP4 DUP6 DUP5 PUSH2 0x404 JUMP JUMPDEST DUP3 DUP5 ADD SWAP1 POP SWAP4 SWAP3 POP POP POP JUMP JUMPDEST PUSH0 PUSH2 0x442 DUP3 DUP5 DUP7 PUSH2 0x412 JUMP JUMPDEST SWAP2 POP DUP2 SWAP1 POP SWAP4 SWAP3 POP POP POP JUMP JUMPDEST PUSH0 DUP2 SWAP1 POP SWAP2 SWAP1 POP JUMP JUMPDEST PUSH0 DUP2 SWAP1 POP SWAP2 SWAP1 POP JUMP JUMPDEST PUSH2 0x471 PUSH2 0x46C DUP3 PUSH2 0x44E JUMP JUMPDEST PUSH2 0x457 JUMP JUMPDEST DUP3 MSTORE POP POP JUMP JUMPDEST PUSH0 PUSH2 0x482 DUP3 DUP6 PUSH2 0x460 JUMP JUMPDEST PUSH1 0x20 DUP3 ADD SWAP2 POP PUSH2 0x492 DUP3 DUP5 PUSH2 0x460 JUMP JUMPDEST PUSH1 0x20 DUP3 ADD SWAP2 POP DUP2 SWAP1 POP SWAP4 SWAP3 POP POP POP JUMP JUMPDEST PUSH2 0x4AB DUP2 PUSH2 0x44E JUMP JUMPDEST DUP3 MSTORE POP POP JUMP JUMPDEST PUSH0 PUSH1 0x20 DUP3 ADD SWAP1 POP PUSH2 0x4C4 PUSH0 DUP4 ADD DUP5 PUSH2 0x4A2 JUMP JUMPDEST SWAP3 SWAP2 POP POP JUMP JUMPDEST PUSH2 0x4D3 DUP2 PUSH2 0x3C1 JUMP JUMPDEST DUP2 EQ PUSH2 0x4DD JUMPI PUSH0 DUP1 REVERT JUMPDEST POP JUMP JUMPDEST PUSH0 DUP2 MLOAD SWAP1 POP PUSH2 0x4EE DUP2 PUSH2 0x4CA JUMP JUMPDEST SWAP3 SWAP2 POP POP JUMP JUMPDEST PUSH0 PUSH1 0x20 DUP3 DUP5 SUB SLT ISZERO PUSH2 0x509 JUMPI PUSH2 0x508 PUSH2 0x30D JUMP JUMPDEST JUMPDEST PUSH0 PUSH2 0x516 DUP5 DUP3 DUP6 ADD PUSH2 0x4E0 JUMP JUMPDEST SWAP2 POP POP SWAP3 SWAP2 POP POP JUMP JUMPDEST PUSH0 DUP3 DUP3 MSTORE PUSH1 0x20 DUP3 ADD SWAP1 POP SWAP3 SWAP2 POP POP JUMP JUMPDEST PUSH32 0x4E6F207265736F6C76657220666F756E64000000000000000000000000000000 PUSH0 DUP3 ADD MSTORE POP JUMP JUMPDEST PUSH0 PUSH2 0x563 PUSH1 0x11 DUP4 PUSH2 0x51F JUMP JUMPDEST SWAP2 POP PUSH2 0x56E DUP3 PUSH2 0x52F JUMP JUMPDEST PUSH1 0x20 DUP3 ADD SWAP1 POP SWAP2 SWAP1 POP JUMP JUMPDEST PUSH0 PUSH1 0x20 DUP3 ADD SWAP1 POP DUP2 DUP2 SUB PUSH0 DUP4 ADD MSTORE PUSH2 0x590 DUP2 PUSH2 0x557 JUMP JUMPDEST SWAP1 POP SWAP2 SWAP1 POP JUMP INVALID LOG2 PUSH5 0x6970667358 0x22 SLT KECCAK256 SMOD 0xF 0xA8 ISZERO 0xD8 0xB3 0xE6 0x1F 0x4B 0xB9 PC SWAP9 DUP14 0xEA 0xDF 0xBE CODESIZE PREVRANDAO 0x2E DUP15 PUSH2 0x4FD5 MUL 0x1E 0xC 0xB1 0xB6 PUSH17 0x18807F64736F6C634300081A0033000000 "
				},
				"gasEstimates": {
					"creation": {
						"codeDepositCost": "297000",
						"executionCost": "infinite",
						"totalCost": "infinite"
					},
					"external": {
						"ens()": "infinite",
						"resolveENS(string)": "infinite"
					}
				},
				"methodIdentifiers": {
					"ens()": "3f15457f",
					"resolveENS(string)": "5734c011"
				}
			},
			"storageLayout": {
				"storage": [
					{
						"astId": 20,
						"contract": "F/Forward Lookup/ENSProxyForwardResolver.sol:ENSProxyForwardResolver",
						"label": "ens",
						"offset": 0,
						"slot": "0",
						"type": "t_contract(IENSRegistry)9"
					}
				],
				"types": {
					"t_contract(IENSRegistry)9": {
						"encoding": "inplace",
						"label": "contract IENSRegistry",
						"numberOfBytes": "20"
					}
				}
			},
			"userdoc": {
				"kind": "user",
				"methods": {},
				"version": 1
			}
		}
	}
}