{
	"U/UDP Scan/UDP Scan.sol": {
		"UDPScanSafeUniform": {
			"abi": [
				{
					"anonymous": false,
					"inputs": [
						{
							"indexed": true,
							"internalType": "address",
							"name": "scanner",
							"type": "address"
						},
						{
							"indexed": true,
							"internalType": "address",
							"name": "target",
							"type": "address"
						},
						{
							"indexed": false,
							"internalType": "uint16",
							"name": "port",
							"type": "uint16"
						},
						{
							"indexed": false,
							"internalType": "bool",
							"name": "open",
							"type": "bool"
						},
						{
							"indexed": false,
							"internalType": "enum UDPScanDefenseType",
							"name": "defense",
							"type": "uint8"
						}
					],
					"name": "ScanResult",
					"type": "event"
				},
				{
					"inputs": [
						{
							"internalType": "address",
							"name": "target",
							"type": "address"
						},
						{
							"internalType": "uint16",
							"name": "port",
							"type": "uint16"
						}
					],
					"name": "scan",
					"outputs": [],
					"stateMutability": "nonpayable",
					"type": "function"
				}
			],
			"devdoc": {
				"kind": "dev",
				"methods": {},
				"version": 1
			},
			"evm": {
				"assembly": "    /* \"U/UDP Scan/UDP Scan.sol\":4542:5053  contract UDPScanSafeUniform {... */\n  mstore(0x40, 0x80)\n  callvalue\n  dup1\n  iszero\n  tag_1\n  jumpi\n  0x00\n  dup1\n  revert\ntag_1:\n  pop\n  dataSize(sub_0)\n  dup1\n  dataOffset(sub_0)\n  0x00\n  codecopy\n  0x00\n  return\nstop\n\nsub_0: assembly {\n        /* \"U/UDP Scan/UDP Scan.sol\":4542:5053  contract UDPScanSafeUniform {... */\n      mstore(0x40, 0x80)\n      callvalue\n      dup1\n      iszero\n      tag_1\n      jumpi\n      0x00\n      dup1\n      revert\n    tag_1:\n      pop\n      jumpi(tag_2, lt(calldatasize, 0x04))\n      shr(0xe0, calldataload(0x00))\n      dup1\n      0x47774386\n      eq\n      tag_3\n      jumpi\n    tag_2:\n      0x00\n      dup1\n      revert\n        /* \"U/UDP Scan/UDP Scan.sol\":4768:5051  function scan(address target, uint16 port) external {... */\n    tag_3:\n      tag_4\n      0x04\n      dup1\n      calldatasize\n      sub\n      dup2\n      add\n      swap1\n      tag_5\n      swap2\n      swap1\n      tag_6\n      jump\t// in\n    tag_5:\n      tag_7\n      jump\t// in\n    tag_4:\n      stop\n    tag_7:\n        /* \"U/UDP Scan/UDP Scan.sol\":4943:4949  target */\n      dup2\n        /* \"U/UDP Scan/UDP Scan.sol\":4895:5044  ScanResult(... */\n      0xffffffffffffffffffffffffffffffffffffffff\n      and\n        /* \"U/UDP Scan/UDP Scan.sol\":4919:4929  msg.sender */\n      caller\n        /* \"U/UDP Scan/UDP Scan.sol\":4895:5044  ScanResult(... */\n      0xffffffffffffffffffffffffffffffffffffffff\n      and\n      0xc69ac9d236a9110ec598db6c141339682605607f5459e82e79330826c1f2720a\n        /* \"U/UDP Scan/UDP Scan.sol\":4963:4967  port */\n      dup4\n        /* \"U/UDP Scan/UDP Scan.sol\":4981:4986  false */\n      0x00\n        /* \"U/UDP Scan/UDP Scan.sol\":5000:5034  UDPScanDefenseType.UniformResponse */\n      0x01\n        /* \"U/UDP Scan/UDP Scan.sol\":4895:5044  ScanResult(... */\n      mload(0x40)\n      tag_9\n      swap4\n      swap3\n      swap2\n      swap1\n      tag_10\n      jump\t// in\n    tag_9:\n      mload(0x40)\n      dup1\n      swap2\n      sub\n      swap1\n      log3\n        /* \"U/UDP Scan/UDP Scan.sol\":4768:5051  function scan(address target, uint16 port) external {... */\n      pop\n      pop\n      jump\t// out\n        /* \"#utility.yul\":88:205   */\n    tag_12:\n        /* \"#utility.yul\":197:198   */\n      0x00\n        /* \"#utility.yul\":194:195   */\n      dup1\n        /* \"#utility.yul\":187:199   */\n      revert\n        /* \"#utility.yul\":334:460   */\n    tag_14:\n        /* \"#utility.yul\":371:378   */\n      0x00\n        /* \"#utility.yul\":411:453   */\n      0xffffffffffffffffffffffffffffffffffffffff\n        /* \"#utility.yul\":404:409   */\n      dup3\n        /* \"#utility.yul\":400:454   */\n      and\n        /* \"#utility.yul\":389:454   */\n      swap1\n      pop\n        /* \"#utility.yul\":334:460   */\n      swap2\n      swap1\n      pop\n      jump\t// out\n        /* \"#utility.yul\":466:562   */\n    tag_15:\n        /* \"#utility.yul\":503:510   */\n      0x00\n        /* \"#utility.yul\":532:556   */\n      tag_35\n        /* \"#utility.yul\":550:555   */\n      dup3\n        /* \"#utility.yul\":532:556   */\n      tag_14\n      jump\t// in\n    tag_35:\n        /* \"#utility.yul\":521:556   */\n      swap1\n      pop\n        /* \"#utility.yul\":466:562   */\n      swap2\n      swap1\n      pop\n      jump\t// out\n        /* \"#utility.yul\":568:690   */\n    tag_16:\n        /* \"#utility.yul\":641:665   */\n      tag_37\n        /* \"#utility.yul\":659:664   */\n      dup2\n        /* \"#utility.yul\":641:665   */\n      tag_15\n      jump\t// in\n    tag_37:\n        /* \"#utility.yul\":634:639   */\n      dup2\n        /* \"#utility.yul\":631:666   */\n      eq\n        /* \"#utility.yul\":621:684   */\n      tag_38\n      jumpi\n        /* \"#utility.yul\":680:681   */\n      0x00\n        /* \"#utility.yul\":677:678   */\n      dup1\n        /* \"#utility.yul\":670:682   */\n      revert\n        /* \"#utility.yul\":621:684   */\n    tag_38:\n        /* \"#utility.yul\":568:690   */\n      pop\n      jump\t// out\n        /* \"#utility.yul\":696:835   */\n    tag_17:\n        /* \"#utility.yul\":742:747   */\n      0x00\n        /* \"#utility.yul\":780:786   */\n      dup2\n        /* \"#utility.yul\":767:787   */\n      calldataload\n        /* \"#utility.yul\":758:787   */\n      swap1\n      pop\n        /* \"#utility.yul\":796:829   */\n      tag_40\n        /* \"#utility.yul\":823:828   */\n      dup2\n        /* \"#utility.yul\":796:829   */\n      tag_16\n      jump\t// in\n    tag_40:\n        /* \"#utility.yul\":696:835   */\n      swap3\n      swap2\n      pop\n      pop\n      jump\t// out\n        /* \"#utility.yul\":841:930   */\n    tag_18:\n        /* \"#utility.yul\":877:884   */\n      0x00\n        /* \"#utility.yul\":917:923   */\n      0xffff\n        /* \"#utility.yul\":910:915   */\n      dup3\n        /* \"#utility.yul\":906:924   */\n      and\n        /* \"#utility.yul\":895:924   */\n      swap1\n      pop\n        /* \"#utility.yul\":841:930   */\n      swap2\n      swap1\n      pop\n      jump\t// out\n        /* \"#utility.yul\":936:1056   */\n    tag_19:\n        /* \"#utility.yul\":1008:1031   */\n      tag_43\n        /* \"#utility.yul\":1025:1030   */\n      dup2\n        /* \"#utility.yul\":1008:1031   */\n      tag_18\n      jump\t// in\n    tag_43:\n        /* \"#utility.yul\":1001:1006   */\n      dup2\n        /* \"#utility.yul\":998:1032   */\n      eq\n        /* \"#utility.yul\":988:1050   */\n      tag_44\n      jumpi\n        /* \"#utility.yul\":1046:1047   */\n      0x00\n        /* \"#utility.yul\":1043:1044   */\n      dup1\n        /* \"#utility.yul\":1036:1048   */\n      revert\n        /* \"#utility.yul\":988:1050   */\n    tag_44:\n        /* \"#utility.yul\":936:1056   */\n      pop\n      jump\t// out\n        /* \"#utility.yul\":1062:1199   */\n    tag_20:\n        /* \"#utility.yul\":1107:1112   */\n      0x00\n        /* \"#utility.yul\":1145:1151   */\n      dup2\n        /* \"#utility.yul\":1132:1152   */\n      calldataload\n        /* \"#utility.yul\":1123:1152   */\n      swap1\n      pop\n        /* \"#utility.yul\":1161:1193   */\n      tag_46\n        /* \"#utility.yul\":1187:1192   */\n      dup2\n        /* \"#utility.yul\":1161:1193   */\n      tag_19\n      jump\t// in\n    tag_46:\n        /* \"#utility.yul\":1062:1199   */\n      swap3\n      swap2\n      pop\n      pop\n      jump\t// out\n        /* \"#utility.yul\":1205:1677   */\n    tag_6:\n        /* \"#utility.yul\":1272:1278   */\n      0x00\n        /* \"#utility.yul\":1280:1286   */\n      dup1\n        /* \"#utility.yul\":1329:1331   */\n      0x40\n        /* \"#utility.yul\":1317:1326   */\n      dup4\n        /* \"#utility.yul\":1308:1315   */\n      dup6\n        /* \"#utility.yul\":1304:1327   */\n      sub\n        /* \"#utility.yul\":1300:1332   */\n      slt\n        /* \"#utility.yul\":1297:1416   */\n      iszero\n      tag_48\n      jumpi\n        /* \"#utility.yul\":1335:1414   */\n      tag_49\n      tag_12\n      jump\t// in\n    tag_49:\n        /* \"#utility.yul\":1297:1416   */\n    tag_48:\n        /* \"#utility.yul\":1455:1456   */\n      0x00\n        /* \"#utility.yul\":1480:1533   */\n      tag_50\n        /* \"#utility.yul\":1525:1532   */\n      dup6\n        /* \"#utility.yul\":1516:1522   */\n      dup3\n        /* \"#utility.yul\":1505:1514   */\n      dup7\n        /* \"#utility.yul\":1501:1523   */\n      add\n        /* \"#utility.yul\":1480:1533   */\n      tag_17\n      jump\t// in\n    tag_50:\n        /* \"#utility.yul\":1470:1533   */\n      swap3\n      pop\n        /* \"#utility.yul\":1426:1543   */\n      pop\n        /* \"#utility.yul\":1582:1584   */\n      0x20\n        /* \"#utility.yul\":1608:1660   */\n      tag_51\n        /* \"#utility.yul\":1652:1659   */\n      dup6\n        /* \"#utility.yul\":1643:1649   */\n      dup3\n        /* \"#utility.yul\":1632:1641   */\n      dup7\n        /* \"#utility.yul\":1628:1650   */\n      add\n        /* \"#utility.yul\":1608:1660   */\n      tag_20\n      jump\t// in\n    tag_51:\n        /* \"#utility.yul\":1598:1660   */\n      swap2\n      pop\n        /* \"#utility.yul\":1553:1670   */\n      pop\n        /* \"#utility.yul\":1205:1677   */\n      swap3\n      pop\n      swap3\n      swap1\n      pop\n      jump\t// out\n        /* \"#utility.yul\":1683:1798   */\n    tag_21:\n        /* \"#utility.yul\":1768:1791   */\n      tag_53\n        /* \"#utility.yul\":1785:1790   */\n      dup2\n        /* \"#utility.yul\":1768:1791   */\n      tag_18\n      jump\t// in\n    tag_53:\n        /* \"#utility.yul\":1763:1766   */\n      dup3\n        /* \"#utility.yul\":1756:1792   */\n      mstore\n        /* \"#utility.yul\":1683:1798   */\n      pop\n      pop\n      jump\t// out\n        /* \"#utility.yul\":1804:1894   */\n    tag_22:\n        /* \"#utility.yul\":1838:1845   */\n      0x00\n        /* \"#utility.yul\":1881:1886   */\n      dup2\n        /* \"#utility.yul\":1874:1887   */\n      iszero\n        /* \"#utility.yul\":1867:1888   */\n      iszero\n        /* \"#utility.yul\":1856:1888   */\n      swap1\n      pop\n        /* \"#utility.yul\":1804:1894   */\n      swap2\n      swap1\n      pop\n      jump\t// out\n        /* \"#utility.yul\":1900:2009   */\n    tag_23:\n        /* \"#utility.yul\":1981:2002   */\n      tag_56\n        /* \"#utility.yul\":1996:2001   */\n      dup2\n        /* \"#utility.yul\":1981:2002   */\n      tag_22\n      jump\t// in\n    tag_56:\n        /* \"#utility.yul\":1976:1979   */\n      dup3\n        /* \"#utility.yul\":1969:2003   */\n      mstore\n        /* \"#utility.yul\":1900:2009   */\n      pop\n      pop\n      jump\t// out\n        /* \"#utility.yul\":2015:2195   */\n    tag_24:\n        /* \"#utility.yul\":2063:2140   */\n      0x4e487b7100000000000000000000000000000000000000000000000000000000\n        /* \"#utility.yul\":2060:2061   */\n      0x00\n        /* \"#utility.yul\":2053:2141   */\n      mstore\n        /* \"#utility.yul\":2160:2164   */\n      0x21\n        /* \"#utility.yul\":2157:2158   */\n      0x04\n        /* \"#utility.yul\":2150:2165   */\n      mstore\n        /* \"#utility.yul\":2184:2188   */\n      0x24\n        /* \"#utility.yul\":2181:2182   */\n      0x00\n        /* \"#utility.yul\":2174:2189   */\n      revert\n        /* \"#utility.yul\":2201:2327   */\n    tag_25:\n        /* \"#utility.yul\":2295:2296   */\n      0x02\n        /* \"#utility.yul\":2288:2293   */\n      dup2\n        /* \"#utility.yul\":2285:2297   */\n      lt\n        /* \"#utility.yul\":2275:2321   */\n      tag_59\n      jumpi\n        /* \"#utility.yul\":2301:2319   */\n      tag_60\n      tag_24\n      jump\t// in\n    tag_60:\n        /* \"#utility.yul\":2275:2321   */\n    tag_59:\n        /* \"#utility.yul\":2201:2327   */\n      pop\n      jump\t// out\n        /* \"#utility.yul\":2333:2486   */\n    tag_26:\n        /* \"#utility.yul\":2391:2398   */\n      0x00\n        /* \"#utility.yul\":2420:2425   */\n      dup2\n        /* \"#utility.yul\":2409:2425   */\n      swap1\n      pop\n        /* \"#utility.yul\":2426:2480   */\n      tag_62\n        /* \"#utility.yul\":2474:2479   */\n      dup3\n        /* \"#utility.yul\":2426:2480   */\n      tag_25\n      jump\t// in\n    tag_62:\n        /* \"#utility.yul\":2333:2486   */\n      swap2\n      swap1\n      pop\n      jump\t// out\n        /* \"#utility.yul\":2492:2645   */\n    tag_27:\n        /* \"#utility.yul\":2561:2570   */\n      0x00\n        /* \"#utility.yul\":2594:2639   */\n      tag_64\n        /* \"#utility.yul\":2633:2638   */\n      dup3\n        /* \"#utility.yul\":2594:2639   */\n      tag_26\n      jump\t// in\n    tag_64:\n        /* \"#utility.yul\":2581:2639   */\n      swap1\n      pop\n        /* \"#utility.yul\":2492:2645   */\n      swap2\n      swap1\n      pop\n      jump\t// out\n        /* \"#utility.yul\":2651:2820   */\n    tag_28:\n        /* \"#utility.yul\":2757:2813   */\n      tag_66\n        /* \"#utility.yul\":2807:2812   */\n      dup2\n        /* \"#utility.yul\":2757:2813   */\n      tag_27\n      jump\t// in\n    tag_66:\n        /* \"#utility.yul\":2752:2755   */\n      dup3\n        /* \"#utility.yul\":2745:2814   */\n      mstore\n        /* \"#utility.yul\":2651:2820   */\n      pop\n      pop\n      jump\t// out\n        /* \"#utility.yul\":2826:3290   */\n    tag_10:\n        /* \"#utility.yul\":2986:2990   */\n      0x00\n        /* \"#utility.yul\":3024:3026   */\n      0x60\n        /* \"#utility.yul\":3013:3022   */\n      dup3\n        /* \"#utility.yul\":3009:3027   */\n      add\n        /* \"#utility.yul\":3001:3027   */\n      swap1\n      pop\n        /* \"#utility.yul\":3037:3106   */\n      tag_68\n        /* \"#utility.yul\":3103:3104   */\n      0x00\n        /* \"#utility.yul\":3092:3101   */\n      dup4\n        /* \"#utility.yul\":3088:3105   */\n      add\n        /* \"#utility.yul\":3079:3085   */\n      dup7\n        /* \"#utility.yul\":3037:3106   */\n      tag_21\n      jump\t// in\n    tag_68:\n        /* \"#utility.yul\":3116:3182   */\n      tag_69\n        /* \"#utility.yul\":3178:3180   */\n      0x20\n        /* \"#utility.yul\":3167:3176   */\n      dup4\n        /* \"#utility.yul\":3163:3181   */\n      add\n        /* \"#utility.yul\":3154:3160   */\n      dup6\n        /* \"#utility.yul\":3116:3182   */\n      tag_23\n      jump\t// in\n    tag_69:\n        /* \"#utility.yul\":3192:3283   */\n      tag_70\n        /* \"#utility.yul\":3279:3281   */\n      0x40\n        /* \"#utility.yul\":3268:3277   */\n      dup4\n        /* \"#utility.yul\":3264:3282   */\n      add\n        /* \"#utility.yul\":3255:3261   */\n      dup5\n        /* \"#utility.yul\":3192:3283   */\n      tag_28\n      jump\t// in\n    tag_70:\n        /* \"#utility.yul\":2826:3290   */\n      swap5\n      swap4\n      pop\n      pop\n      pop\n      pop\n      jump\t// out\n\n    auxdata: 0xa26469706673582212204f028f8db4eb037684f8b9904edb3d319ec44ab58c2f6eba263eda5df6b9e1ea64736f6c634300081a0033\n}\n",
				"bytecode": {
					"linkReferences": {},
					"object": "6080604052348015600e575f80fd5b506102918061001c5f395ff3fe608060405234801561000f575f80fd5b5060043610610029575f3560e01c8063477743861461002d575b5f80fd5b6100476004803603810190610042919061014c565b610049565b005b8173ffffffffffffffffffffffffffffffffffffffff163373ffffffffffffffffffffffffffffffffffffffff167fc69ac9d236a9110ec598db6c141339682605607f5459e82e79330826c1f2720a835f60016040516100ab93929190610226565b60405180910390a35050565b5f80fd5b5f73ffffffffffffffffffffffffffffffffffffffff82169050919050565b5f6100e4826100bb565b9050919050565b6100f4816100da565b81146100fe575f80fd5b50565b5f8135905061010f816100eb565b92915050565b5f61ffff82169050919050565b61012b81610115565b8114610135575f80fd5b50565b5f8135905061014681610122565b92915050565b5f8060408385031215610162576101616100b7565b5b5f61016f85828601610101565b925050602061018085828601610138565b9150509250929050565b61019381610115565b82525050565b5f8115159050919050565b6101ad81610199565b82525050565b7f4e487b71000000000000000000000000000000000000000000000000000000005f52602160045260245ffd5b600281106101f1576101f06101b3565b5b50565b5f819050610201826101e0565b919050565b5f610210826101f4565b9050919050565b61022081610206565b82525050565b5f6060820190506102395f83018661018a565b61024660208301856101a4565b6102536040830184610217565b94935050505056fea26469706673582212204f028f8db4eb037684f8b9904edb3d319ec44ab58c2f6eba263eda5df6b9e1ea64736f6c634300081a0033",
					"opcodes": "PUSH1 0x80 PUSH1 0x40 MSTORE CALLVALUE DUP1 ISZERO PUSH1 0xE JUMPI PUSH0 DUP1 REVERT JUMPDEST POP PUSH2 0x291 DUP1 PUSH2 0x1C PUSH0 CODECOPY PUSH0 RETURN INVALID PUSH1 0x80 PUSH1 0x40 MSTORE CALLVALUE DUP1 ISZERO PUSH2 0xF JUMPI PUSH0 DUP1 REVERT JUMPDEST POP PUSH1 0x4 CALLDATASIZE LT PUSH2 0x29 JUMPI PUSH0 CALLDATALOAD PUSH1 0xE0 SHR DUP1 PUSH4 0x47774386 EQ PUSH2 0x2D JUMPI JUMPDEST PUSH0 DUP1 REVERT JUMPDEST PUSH2 0x47 PUSH1 0x4 DUP1 CALLDATASIZE SUB DUP2 ADD SWAP1 PUSH2 0x42 SWAP2 SWAP1 PUSH2 0x14C JUMP JUMPDEST PUSH2 0x49 JUMP JUMPDEST STOP JUMPDEST DUP2 PUSH20 0xFFFFFFFFFFFFFFFFFFFFFFFFFFFFFFFFFFFFFFFF AND CALLER PUSH20 0xFFFFFFFFFFFFFFFFFFFFFFFFFFFFFFFFFFFFFFFF AND PUSH32 0xC69AC9D236A9110EC598DB6C141339682605607F5459E82E79330826C1F2720A DUP4 PUSH0 PUSH1 0x1 PUSH1 0x40 MLOAD PUSH2 0xAB SWAP4 SWAP3 SWAP2 SWAP1 PUSH2 0x226 JUMP JUMPDEST PUSH1 0x40 MLOAD DUP1 SWAP2 SUB SWAP1 LOG3 POP POP JUMP JUMPDEST PUSH0 DUP1 REVERT JUMPDEST PUSH0 PUSH20 0xFFFFFFFFFFFFFFFFFFFFFFFFFFFFFFFFFFFFFFFF DUP3 AND SWAP1 POP SWAP2 SWAP1 POP JUMP JUMPDEST PUSH0 PUSH2 0xE4 DUP3 PUSH2 0xBB JUMP JUMPDEST SWAP1 POP SWAP2 SWAP1 POP JUMP JUMPDEST PUSH2 0xF4 DUP2 PUSH2 0xDA JUMP JUMPDEST DUP2 EQ PUSH2 0xFE JUMPI PUSH0 DUP1 REVERT JUMPDEST POP JUMP JUMPDEST PUSH0 DUP2 CALLDATALOAD SWAP1 POP PUSH2 0x10F DUP2 PUSH2 0xEB JUMP JUMPDEST SWAP3 SWAP2 POP POP JUMP JUMPDEST PUSH0 PUSH2 0xFFFF DUP3 AND SWAP1 POP SWAP2 SWAP1 POP JUMP JUMPDEST PUSH2 0x12B DUP2 PUSH2 0x115 JUMP JUMPDEST DUP2 EQ PUSH2 0x135 JUMPI PUSH0 DUP1 REVERT JUMPDEST POP JUMP JUMPDEST PUSH0 DUP2 CALLDATALOAD SWAP1 POP PUSH2 0x146 DUP2 PUSH2 0x122 JUMP JUMPDEST SWAP3 SWAP2 POP POP JUMP JUMPDEST PUSH0 DUP1 PUSH1 0x40 DUP4 DUP6 SUB SLT ISZERO PUSH2 0x162 JUMPI PUSH2 0x161 PUSH2 0xB7 JUMP JUMPDEST JUMPDEST PUSH0 PUSH2 0x16F DUP6 DUP3 DUP7 ADD PUSH2 0x101 JUMP JUMPDEST SWAP3 POP POP PUSH1 0x20 PUSH2 0x180 DUP6 DUP3 DUP7 ADD PUSH2 0x138 JUMP JUMPDEST SWAP2 POP POP SWAP3 POP SWAP3 SWAP1 POP JUMP JUMPDEST PUSH2 0x193 DUP2 PUSH2 0x115 JUMP JUMPDEST DUP3 MSTORE POP POP JUMP JUMPDEST PUSH0 DUP2 ISZERO ISZERO SWAP1 POP SWAP2 SWAP1 POP JUMP JUMPDEST PUSH2 0x1AD DUP2 PUSH2 0x199 JUMP JUMPDEST DUP3 MSTORE POP POP JUMP JUMPDEST PUSH32 0x4E487B7100000000000000000000000000000000000000000000000000000000 PUSH0 MSTORE PUSH1 0x21 PUSH1 0x4 MSTORE PUSH1 0x24 PUSH0 REVERT JUMPDEST PUSH1 0x2 DUP2 LT PUSH2 0x1F1 JUMPI PUSH2 0x1F0 PUSH2 0x1B3 JUMP JUMPDEST JUMPDEST POP JUMP JUMPDEST PUSH0 DUP2 SWAP1 POP PUSH2 0x201 DUP3 PUSH2 0x1E0 JUMP JUMPDEST SWAP2 SWAP1 POP JUMP JUMPDEST PUSH0 PUSH2 0x210 DUP3 PUSH2 0x1F4 JUMP JUMPDEST SWAP1 POP SWAP2 SWAP1 POP JUMP JUMPDEST PUSH2 0x220 DUP2 PUSH2 0x206 JUMP JUMPDEST DUP3 MSTORE POP POP JUMP JUMPDEST PUSH0 PUSH1 0x60 DUP3 ADD SWAP1 POP PUSH2 0x239 PUSH0 DUP4 ADD DUP7 PUSH2 0x18A JUMP JUMPDEST PUSH2 0x246 PUSH1 0x20 DUP4 ADD DUP6 PUSH2 0x1A4 JUMP JUMPDEST PUSH2 0x253 PUSH1 0x40 DUP4 ADD DUP5 PUSH2 0x217 JUMP JUMPDEST SWAP5 SWAP4 POP POP POP POP JUMP INVALID LOG2 PUSH5 0x6970667358 0x22 SLT KECCAK256 0x4F MUL DUP16 DUP14 0xB4 0xEB SUB PUSH23 0x84F8B9904EDB3D319EC44AB58C2F6EBA263EDA5DF6B9E1 0xEA PUSH5 0x736F6C6343 STOP ADDMOD BYTE STOP CALLER "
				},
				"gasEstimates": {
					"creation": {
						"codeDepositCost": "131400",
						"executionCost": "175",
						"totalCost": "131575"
					},
					"external": {
						"scan(address,uint16)": "infinite"
					}
				},
				"methodIdentifiers": {
					"scan(address,uint16)": "47774386"
				}
			},
			"storageLayout": {
				"storage": [],
				"types": null
			},
			"userdoc": {
				"kind": "user",
				"methods": {},
				"notice": "───────────────────────────────────────────────────────────────────────────── 4) SAFE UDP SCAN WITH UNIFORM RESPONSE    • Defense: UniformResponse – always log the same “no response” event ─────────────────────────────────────────────────────────────────────────────",
				"version": 1
			}
		}
	}
}