{
	"U/UDP Scan/UDP Scan.sol": {
		"UDPScanSafeRateLimit": {
			"abi": [
				{
					"inputs": [],
					"name": "UDP__TooManyScans",
					"type": "error"
				},
				{
					"anonymous": false,
					"inputs": [
						{
							"indexed": true,
							"internalType": "address",
							"name": "scanner",
							"type": "address"
						},
						{
							"indexed": true,
							"internalType": "address",
							"name": "target",
							"type": "address"
						},
						{
							"indexed": false,
							"internalType": "uint16",
							"name": "port",
							"type": "uint16"
						},
						{
							"indexed": false,
							"internalType": "enum UDPScanType",
							"name": "scanType",
							"type": "uint8"
						},
						{
							"indexed": false,
							"internalType": "enum UDPScanDefenseType",
							"name": "defense",
							"type": "uint8"
						}
					],
					"name": "ScanLogged",
					"type": "event"
				},
				{
					"inputs": [],
					"name": "MAX_PER_BLOCK",
					"outputs": [
						{
							"internalType": "uint16",
							"name": "",
							"type": "uint16"
						}
					],
					"stateMutability": "view",
					"type": "function"
				},
				{
					"inputs": [
						{
							"internalType": "address",
							"name": "",
							"type": "address"
						}
					],
					"name": "lastBlock",
					"outputs": [
						{
							"internalType": "uint256",
							"name": "",
							"type": "uint256"
						}
					],
					"stateMutability": "view",
					"type": "function"
				},
				{
					"inputs": [
						{
							"internalType": "address",
							"name": "target",
							"type": "address"
						},
						{
							"internalType": "uint16",
							"name": "port",
							"type": "uint16"
						}
					],
					"name": "scan",
					"outputs": [],
					"stateMutability": "nonpayable",
					"type": "function"
				},
				{
					"inputs": [
						{
							"internalType": "address",
							"name": "",
							"type": "address"
						}
					],
					"name": "scansInBlock",
					"outputs": [
						{
							"internalType": "uint16",
							"name": "",
							"type": "uint16"
						}
					],
					"stateMutability": "view",
					"type": "function"
				}
			],
			"devdoc": {
				"kind": "dev",
				"methods": {},
				"version": 1
			},
			"evm": {
				"assembly": "    /* \"U/UDP Scan/UDP Scan.sol\":3003:3939  contract UDPScanSafeRateLimit {... */\n  mstore(0x40, 0x80)\n  callvalue\n  dup1\n  iszero\n  tag_1\n  jumpi\n  0x00\n  dup1\n  revert\ntag_1:\n  pop\n  dataSize(sub_0)\n  dup1\n  dataOffset(sub_0)\n  0x00\n  codecopy\n  0x00\n  return\nstop\n\nsub_0: assembly {\n        /* \"U/UDP Scan/UDP Scan.sol\":3003:3939  contract UDPScanSafeRateLimit {... */\n      mstore(0x40, 0x80)\n      callvalue\n      dup1\n      iszero\n      tag_1\n      jumpi\n      0x00\n      dup1\n      revert\n    tag_1:\n      pop\n      jumpi(tag_2, lt(calldatasize, 0x04))\n      shr(0xe0, calldataload(0x00))\n      dup1\n      0x0d2a95ef\n      eq\n      tag_3\n      jumpi\n      dup1\n      0x47774386\n      eq\n      tag_4\n      jumpi\n      dup1\n      0x76c27251\n      eq\n      tag_5\n      jumpi\n      dup1\n      0x952ca92c\n      eq\n      tag_6\n      jumpi\n    tag_2:\n      0x00\n      dup1\n      revert\n        /* \"U/UDP Scan/UDP Scan.sol\":3338:3379  uint16 public constant MAX_PER_BLOCK = 20 */\n    tag_3:\n      tag_7\n      tag_8\n      jump\t// in\n    tag_7:\n      mload(0x40)\n      tag_9\n      swap2\n      swap1\n      tag_10\n      jump\t// in\n    tag_9:\n      mload(0x40)\n      dup1\n      swap2\n      sub\n      swap1\n      return\n        /* \"U/UDP Scan/UDP Scan.sol\":3386:3937  function scan(address target, uint16 port) external {... */\n    tag_4:\n      tag_11\n      0x04\n      dup1\n      calldatasize\n      sub\n      dup2\n      add\n      swap1\n      tag_12\n      swap2\n      swap1\n      tag_13\n      jump\t// in\n    tag_12:\n      tag_14\n      jump\t// in\n    tag_11:\n      stop\n        /* \"U/UDP Scan/UDP Scan.sol\":3285:3332  mapping(address => uint16)  public scansInBlock */\n    tag_5:\n      tag_15\n      0x04\n      dup1\n      calldatasize\n      sub\n      dup2\n      add\n      swap1\n      tag_16\n      swap2\n      swap1\n      tag_17\n      jump\t// in\n    tag_16:\n      tag_18\n      jump\t// in\n    tag_15:\n      mload(0x40)\n      tag_19\n      swap2\n      swap1\n      tag_10\n      jump\t// in\n    tag_19:\n      mload(0x40)\n      dup1\n      swap2\n      sub\n      swap1\n      return\n        /* \"U/UDP Scan/UDP Scan.sol\":3235:3279  mapping(address => uint256) public lastBlock */\n    tag_6:\n      tag_20\n      0x04\n      dup1\n      calldatasize\n      sub\n      dup2\n      add\n      swap1\n      tag_21\n      swap2\n      swap1\n      tag_17\n      jump\t// in\n    tag_21:\n      tag_22\n      jump\t// in\n    tag_20:\n      mload(0x40)\n      tag_23\n      swap2\n      swap1\n      tag_24\n      jump\t// in\n    tag_23:\n      mload(0x40)\n      dup1\n      swap2\n      sub\n      swap1\n      return\n        /* \"U/UDP Scan/UDP Scan.sol\":3338:3379  uint16 public constant MAX_PER_BLOCK = 20 */\n    tag_8:\n        /* \"U/UDP Scan/UDP Scan.sol\":3377:3379  20 */\n      0x14\n        /* \"U/UDP Scan/UDP Scan.sol\":3338:3379  uint16 public constant MAX_PER_BLOCK = 20 */\n      dup2\n      jump\t// out\n        /* \"U/UDP Scan/UDP Scan.sol\":3386:3937  function scan(address target, uint16 port) external {... */\n    tag_14:\n        /* \"U/UDP Scan/UDP Scan.sol\":3504:3513  lastBlock */\n      0x00\n        /* \"U/UDP Scan/UDP Scan.sol\":3504:3525  lastBlock[msg.sender] */\n      dup1\n        /* \"U/UDP Scan/UDP Scan.sol\":3514:3524  msg.sender */\n      caller\n        /* \"U/UDP Scan/UDP Scan.sol\":3504:3525  lastBlock[msg.sender] */\n      0xffffffffffffffffffffffffffffffffffffffff\n      and\n      0xffffffffffffffffffffffffffffffffffffffff\n      and\n      dup2\n      mstore\n      0x20\n      add\n      swap1\n      dup2\n      mstore\n      0x20\n      add\n      0x00\n      keccak256\n      sload\n        /* \"U/UDP Scan/UDP Scan.sol\":3488:3500  block.number */\n      number\n        /* \"U/UDP Scan/UDP Scan.sol\":3488:3525  block.number != lastBlock[msg.sender] */\n      eq\n        /* \"U/UDP Scan/UDP Scan.sol\":3484:3632  if (block.number != lastBlock[msg.sender]) {... */\n      tag_26\n      jumpi\n        /* \"U/UDP Scan/UDP Scan.sol\":3567:3579  block.number */\n      number\n        /* \"U/UDP Scan/UDP Scan.sol\":3541:3550  lastBlock */\n      0x00\n        /* \"U/UDP Scan/UDP Scan.sol\":3541:3562  lastBlock[msg.sender] */\n      dup1\n        /* \"U/UDP Scan/UDP Scan.sol\":3551:3561  msg.sender */\n      caller\n        /* \"U/UDP Scan/UDP Scan.sol\":3541:3562  lastBlock[msg.sender] */\n      0xffffffffffffffffffffffffffffffffffffffff\n      and\n      0xffffffffffffffffffffffffffffffffffffffff\n      and\n      dup2\n      mstore\n      0x20\n      add\n      swap1\n      dup2\n      mstore\n      0x20\n      add\n      0x00\n      keccak256\n        /* \"U/UDP Scan/UDP Scan.sol\":3541:3579  lastBlock[msg.sender]   = block.number */\n      dup2\n      swap1\n      sstore\n      pop\n        /* \"U/UDP Scan/UDP Scan.sol\":3620:3621  0 */\n      0x00\n        /* \"U/UDP Scan/UDP Scan.sol\":3593:3605  scansInBlock */\n      0x01\n        /* \"U/UDP Scan/UDP Scan.sol\":3593:3617  scansInBlock[msg.sender] */\n      0x00\n        /* \"U/UDP Scan/UDP Scan.sol\":3606:3616  msg.sender */\n      caller\n        /* \"U/UDP Scan/UDP Scan.sol\":3593:3617  scansInBlock[msg.sender] */\n      0xffffffffffffffffffffffffffffffffffffffff\n      and\n      0xffffffffffffffffffffffffffffffffffffffff\n      and\n      dup2\n      mstore\n      0x20\n      add\n      swap1\n      dup2\n      mstore\n      0x20\n      add\n      0x00\n      keccak256\n      0x00\n        /* \"U/UDP Scan/UDP Scan.sol\":3593:3621  scansInBlock[msg.sender] = 0 */\n      0x0100\n      exp\n      dup2\n      sload\n      dup2\n      0xffff\n      mul\n      not\n      and\n      swap1\n      dup4\n      0xffff\n      and\n      mul\n      or\n      swap1\n      sstore\n      pop\n        /* \"U/UDP Scan/UDP Scan.sol\":3484:3632  if (block.number != lastBlock[msg.sender]) {... */\n    tag_26:\n        /* \"U/UDP Scan/UDP Scan.sol\":3669:3670  1 */\n      0x01\n        /* \"U/UDP Scan/UDP Scan.sol\":3641:3653  scansInBlock */\n      dup1\n        /* \"U/UDP Scan/UDP Scan.sol\":3641:3665  scansInBlock[msg.sender] */\n      0x00\n        /* \"U/UDP Scan/UDP Scan.sol\":3654:3664  msg.sender */\n      caller\n        /* \"U/UDP Scan/UDP Scan.sol\":3641:3665  scansInBlock[msg.sender] */\n      0xffffffffffffffffffffffffffffffffffffffff\n      and\n      0xffffffffffffffffffffffffffffffffffffffff\n      and\n      dup2\n      mstore\n      0x20\n      add\n      swap1\n      dup2\n      mstore\n      0x20\n      add\n      0x00\n      keccak256\n      0x00\n        /* \"U/UDP Scan/UDP Scan.sol\":3641:3670  scansInBlock[msg.sender] += 1 */\n      dup3\n      dup3\n      dup3\n      swap1\n      sload\n      swap1\n      0x0100\n      exp\n      swap1\n      div\n      0xffff\n      and\n      tag_27\n      swap2\n      swap1\n      tag_28\n      jump\t// in\n    tag_27:\n      swap3\n      pop\n      0x0100\n      exp\n      dup2\n      sload\n      dup2\n      0xffff\n      mul\n      not\n      and\n      swap1\n      dup4\n      0xffff\n      and\n      mul\n      or\n      swap1\n      sstore\n      pop\n        /* \"U/UDP Scan/UDP Scan.sol\":3377:3379  20 */\n      0x14\n        /* \"U/UDP Scan/UDP Scan.sol\":3684:3724  scansInBlock[msg.sender] > MAX_PER_BLOCK */\n      0xffff\n      and\n        /* \"U/UDP Scan/UDP Scan.sol\":3684:3696  scansInBlock */\n      0x01\n        /* \"U/UDP Scan/UDP Scan.sol\":3684:3708  scansInBlock[msg.sender] */\n      0x00\n        /* \"U/UDP Scan/UDP Scan.sol\":3697:3707  msg.sender */\n      caller\n        /* \"U/UDP Scan/UDP Scan.sol\":3684:3708  scansInBlock[msg.sender] */\n      0xffffffffffffffffffffffffffffffffffffffff\n      and\n      0xffffffffffffffffffffffffffffffffffffffff\n      and\n      dup2\n      mstore\n      0x20\n      add\n      swap1\n      dup2\n      mstore\n      0x20\n      add\n      0x00\n      keccak256\n      0x00\n      swap1\n      sload\n      swap1\n      0x0100\n      exp\n      swap1\n      div\n      0xffff\n      and\n        /* \"U/UDP Scan/UDP Scan.sol\":3684:3724  scansInBlock[msg.sender] > MAX_PER_BLOCK */\n      0xffff\n      and\n      gt\n        /* \"U/UDP Scan/UDP Scan.sol\":3680:3752  if (scansInBlock[msg.sender] > MAX_PER_BLOCK) revert UDP__TooManyScans() */\n      iszero\n      tag_29\n      jumpi\n        /* \"U/UDP Scan/UDP Scan.sol\":3733:3752  UDP__TooManyScans() */\n      mload(0x40)\n      0x1acd2d2400000000000000000000000000000000000000000000000000000000\n      dup2\n      mstore\n      0x04\n      add\n      mload(0x40)\n      dup1\n      swap2\n      sub\n      swap1\n      revert\n        /* \"U/UDP Scan/UDP Scan.sol\":3680:3752  if (scansInBlock[msg.sender] > MAX_PER_BLOCK) revert UDP__TooManyScans() */\n    tag_29:\n        /* \"U/UDP Scan/UDP Scan.sol\":3816:3822  target */\n      dup2\n        /* \"U/UDP Scan/UDP Scan.sol\":3768:3930  ScanLogged(... */\n      0xffffffffffffffffffffffffffffffffffffffff\n      and\n        /* \"U/UDP Scan/UDP Scan.sol\":3792:3802  msg.sender */\n      caller\n        /* \"U/UDP Scan/UDP Scan.sol\":3768:3930  ScanLogged(... */\n      0xffffffffffffffffffffffffffffffffffffffff\n      and\n      0x937fe4bb58bbe1d9fb4187b50d473551de4557d0f791232448b39c2dc5a4d956\n        /* \"U/UDP Scan/UDP Scan.sol\":3836:3840  port */\n      dup4\n        /* \"U/UDP Scan/UDP Scan.sol\":3854:3874  UDPScanType.PortScan */\n      0x01\n        /* \"U/UDP Scan/UDP Scan.sol\":3888:3920  UDPScanDefenseType.RateLimitICMP */\n      0x00\n        /* \"U/UDP Scan/UDP Scan.sol\":3768:3930  ScanLogged(... */\n      mload(0x40)\n      tag_30\n      swap4\n      swap3\n      swap2\n      swap1\n      tag_31\n      jump\t// in\n    tag_30:\n      mload(0x40)\n      dup1\n      swap2\n      sub\n      swap1\n      log3\n        /* \"U/UDP Scan/UDP Scan.sol\":3386:3937  function scan(address target, uint16 port) external {... */\n      pop\n      pop\n      jump\t// out\n        /* \"U/UDP Scan/UDP Scan.sol\":3285:3332  mapping(address => uint16)  public scansInBlock */\n    tag_18:\n      mstore(0x20, 0x01)\n      dup1\n      0x00\n      mstore\n      keccak256(0x00, 0x40)\n      0x00\n      swap2\n      pop\n      sload\n      swap1\n      0x0100\n      exp\n      swap1\n      div\n      0xffff\n      and\n      dup2\n      jump\t// out\n        /* \"U/UDP Scan/UDP Scan.sol\":3235:3279  mapping(address => uint256) public lastBlock */\n    tag_22:\n      mstore(0x20, 0x00)\n      dup1\n      0x00\n      mstore\n      keccak256(0x00, 0x40)\n      0x00\n      swap2\n      pop\n      swap1\n      pop\n      sload\n      dup2\n      jump\t// out\n        /* \"#utility.yul\":7:96   */\n    tag_32:\n        /* \"#utility.yul\":43:50   */\n      0x00\n        /* \"#utility.yul\":83:89   */\n      0xffff\n        /* \"#utility.yul\":76:81   */\n      dup3\n        /* \"#utility.yul\":72:90   */\n      and\n        /* \"#utility.yul\":61:90   */\n      swap1\n      pop\n        /* \"#utility.yul\":7:96   */\n      swap2\n      swap1\n      pop\n      jump\t// out\n        /* \"#utility.yul\":102:217   */\n    tag_33:\n        /* \"#utility.yul\":187:210   */\n      tag_58\n        /* \"#utility.yul\":204:209   */\n      dup2\n        /* \"#utility.yul\":187:210   */\n      tag_32\n      jump\t// in\n    tag_58:\n        /* \"#utility.yul\":182:185   */\n      dup3\n        /* \"#utility.yul\":175:211   */\n      mstore\n        /* \"#utility.yul\":102:217   */\n      pop\n      pop\n      jump\t// out\n        /* \"#utility.yul\":223:441   */\n    tag_10:\n        /* \"#utility.yul\":314:318   */\n      0x00\n        /* \"#utility.yul\":352:354   */\n      0x20\n        /* \"#utility.yul\":341:350   */\n      dup3\n        /* \"#utility.yul\":337:355   */\n      add\n        /* \"#utility.yul\":329:355   */\n      swap1\n      pop\n        /* \"#utility.yul\":365:434   */\n      tag_60\n        /* \"#utility.yul\":431:432   */\n      0x00\n        /* \"#utility.yul\":420:429   */\n      dup4\n        /* \"#utility.yul\":416:433   */\n      add\n        /* \"#utility.yul\":407:413   */\n      dup5\n        /* \"#utility.yul\":365:434   */\n      tag_33\n      jump\t// in\n    tag_60:\n        /* \"#utility.yul\":223:441   */\n      swap3\n      swap2\n      pop\n      pop\n      jump\t// out\n        /* \"#utility.yul\":528:645   */\n    tag_35:\n        /* \"#utility.yul\":637:638   */\n      0x00\n        /* \"#utility.yul\":634:635   */\n      dup1\n        /* \"#utility.yul\":627:639   */\n      revert\n        /* \"#utility.yul\":774:900   */\n    tag_37:\n        /* \"#utility.yul\":811:818   */\n      0x00\n        /* \"#utility.yul\":851:893   */\n      0xffffffffffffffffffffffffffffffffffffffff\n        /* \"#utility.yul\":844:849   */\n      dup3\n        /* \"#utility.yul\":840:894   */\n      and\n        /* \"#utility.yul\":829:894   */\n      swap1\n      pop\n        /* \"#utility.yul\":774:900   */\n      swap2\n      swap1\n      pop\n      jump\t// out\n        /* \"#utility.yul\":906:1002   */\n    tag_38:\n        /* \"#utility.yul\":943:950   */\n      0x00\n        /* \"#utility.yul\":972:996   */\n      tag_66\n        /* \"#utility.yul\":990:995   */\n      dup3\n        /* \"#utility.yul\":972:996   */\n      tag_37\n      jump\t// in\n    tag_66:\n        /* \"#utility.yul\":961:996   */\n      swap1\n      pop\n        /* \"#utility.yul\":906:1002   */\n      swap2\n      swap1\n      pop\n      jump\t// out\n        /* \"#utility.yul\":1008:1130   */\n    tag_39:\n        /* \"#utility.yul\":1081:1105   */\n      tag_68\n        /* \"#utility.yul\":1099:1104   */\n      dup2\n        /* \"#utility.yul\":1081:1105   */\n      tag_38\n      jump\t// in\n    tag_68:\n        /* \"#utility.yul\":1074:1079   */\n      dup2\n        /* \"#utility.yul\":1071:1106   */\n      eq\n        /* \"#utility.yul\":1061:1124   */\n      tag_69\n      jumpi\n        /* \"#utility.yul\":1120:1121   */\n      0x00\n        /* \"#utility.yul\":1117:1118   */\n      dup1\n        /* \"#utility.yul\":1110:1122   */\n      revert\n        /* \"#utility.yul\":1061:1124   */\n    tag_69:\n        /* \"#utility.yul\":1008:1130   */\n      pop\n      jump\t// out\n        /* \"#utility.yul\":1136:1275   */\n    tag_40:\n        /* \"#utility.yul\":1182:1187   */\n      0x00\n        /* \"#utility.yul\":1220:1226   */\n      dup2\n        /* \"#utility.yul\":1207:1227   */\n      calldataload\n        /* \"#utility.yul\":1198:1227   */\n      swap1\n      pop\n        /* \"#utility.yul\":1236:1269   */\n      tag_71\n        /* \"#utility.yul\":1263:1268   */\n      dup2\n        /* \"#utility.yul\":1236:1269   */\n      tag_39\n      jump\t// in\n    tag_71:\n        /* \"#utility.yul\":1136:1275   */\n      swap3\n      swap2\n      pop\n      pop\n      jump\t// out\n        /* \"#utility.yul\":1281:1401   */\n    tag_41:\n        /* \"#utility.yul\":1353:1376   */\n      tag_73\n        /* \"#utility.yul\":1370:1375   */\n      dup2\n        /* \"#utility.yul\":1353:1376   */\n      tag_32\n      jump\t// in\n    tag_73:\n        /* \"#utility.yul\":1346:1351   */\n      dup2\n        /* \"#utility.yul\":1343:1377   */\n      eq\n        /* \"#utility.yul\":1333:1395   */\n      tag_74\n      jumpi\n        /* \"#utility.yul\":1391:1392   */\n      0x00\n        /* \"#utility.yul\":1388:1389   */\n      dup1\n        /* \"#utility.yul\":1381:1393   */\n      revert\n        /* \"#utility.yul\":1333:1395   */\n    tag_74:\n        /* \"#utility.yul\":1281:1401   */\n      pop\n      jump\t// out\n        /* \"#utility.yul\":1407:1544   */\n    tag_42:\n        /* \"#utility.yul\":1452:1457   */\n      0x00\n        /* \"#utility.yul\":1490:1496   */\n      dup2\n        /* \"#utility.yul\":1477:1497   */\n      calldataload\n        /* \"#utility.yul\":1468:1497   */\n      swap1\n      pop\n        /* \"#utility.yul\":1506:1538   */\n      tag_76\n        /* \"#utility.yul\":1532:1537   */\n      dup2\n        /* \"#utility.yul\":1506:1538   */\n      tag_41\n      jump\t// in\n    tag_76:\n        /* \"#utility.yul\":1407:1544   */\n      swap3\n      swap2\n      pop\n      pop\n      jump\t// out\n        /* \"#utility.yul\":1550:2022   */\n    tag_13:\n        /* \"#utility.yul\":1617:1623   */\n      0x00\n        /* \"#utility.yul\":1625:1631   */\n      dup1\n        /* \"#utility.yul\":1674:1676   */\n      0x40\n        /* \"#utility.yul\":1662:1671   */\n      dup4\n        /* \"#utility.yul\":1653:1660   */\n      dup6\n        /* \"#utility.yul\":1649:1672   */\n      sub\n        /* \"#utility.yul\":1645:1677   */\n      slt\n        /* \"#utility.yul\":1642:1761   */\n      iszero\n      tag_78\n      jumpi\n        /* \"#utility.yul\":1680:1759   */\n      tag_79\n      tag_35\n      jump\t// in\n    tag_79:\n        /* \"#utility.yul\":1642:1761   */\n    tag_78:\n        /* \"#utility.yul\":1800:1801   */\n      0x00\n        /* \"#utility.yul\":1825:1878   */\n      tag_80\n        /* \"#utility.yul\":1870:1877   */\n      dup6\n        /* \"#utility.yul\":1861:1867   */\n      dup3\n        /* \"#utility.yul\":1850:1859   */\n      dup7\n        /* \"#utility.yul\":1846:1868   */\n      add\n        /* \"#utility.yul\":1825:1878   */\n      tag_40\n      jump\t// in\n    tag_80:\n        /* \"#utility.yul\":1815:1878   */\n      swap3\n      pop\n        /* \"#utility.yul\":1771:1888   */\n      pop\n        /* \"#utility.yul\":1927:1929   */\n      0x20\n        /* \"#utility.yul\":1953:2005   */\n      tag_81\n        /* \"#utility.yul\":1997:2004   */\n      dup6\n        /* \"#utility.yul\":1988:1994   */\n      dup3\n        /* \"#utility.yul\":1977:1986   */\n      dup7\n        /* \"#utility.yul\":1973:1995   */\n      add\n        /* \"#utility.yul\":1953:2005   */\n      tag_42\n      jump\t// in\n    tag_81:\n        /* \"#utility.yul\":1943:2005   */\n      swap2\n      pop\n        /* \"#utility.yul\":1898:2015   */\n      pop\n        /* \"#utility.yul\":1550:2022   */\n      swap3\n      pop\n      swap3\n      swap1\n      pop\n      jump\t// out\n        /* \"#utility.yul\":2028:2357   */\n    tag_17:\n        /* \"#utility.yul\":2087:2093   */\n      0x00\n        /* \"#utility.yul\":2136:2138   */\n      0x20\n        /* \"#utility.yul\":2124:2133   */\n      dup3\n        /* \"#utility.yul\":2115:2122   */\n      dup5\n        /* \"#utility.yul\":2111:2134   */\n      sub\n        /* \"#utility.yul\":2107:2139   */\n      slt\n        /* \"#utility.yul\":2104:2223   */\n      iszero\n      tag_83\n      jumpi\n        /* \"#utility.yul\":2142:2221   */\n      tag_84\n      tag_35\n      jump\t// in\n    tag_84:\n        /* \"#utility.yul\":2104:2223   */\n    tag_83:\n        /* \"#utility.yul\":2262:2263   */\n      0x00\n        /* \"#utility.yul\":2287:2340   */\n      tag_85\n        /* \"#utility.yul\":2332:2339   */\n      dup5\n        /* \"#utility.yul\":2323:2329   */\n      dup3\n        /* \"#utility.yul\":2312:2321   */\n      dup6\n        /* \"#utility.yul\":2308:2330   */\n      add\n        /* \"#utility.yul\":2287:2340   */\n      tag_40\n      jump\t// in\n    tag_85:\n        /* \"#utility.yul\":2277:2340   */\n      swap2\n      pop\n        /* \"#utility.yul\":2233:2350   */\n      pop\n        /* \"#utility.yul\":2028:2357   */\n      swap3\n      swap2\n      pop\n      pop\n      jump\t// out\n        /* \"#utility.yul\":2363:2440   */\n    tag_43:\n        /* \"#utility.yul\":2400:2407   */\n      0x00\n        /* \"#utility.yul\":2429:2434   */\n      dup2\n        /* \"#utility.yul\":2418:2434   */\n      swap1\n      pop\n        /* \"#utility.yul\":2363:2440   */\n      swap2\n      swap1\n      pop\n      jump\t// out\n        /* \"#utility.yul\":2446:2564   */\n    tag_44:\n        /* \"#utility.yul\":2533:2557   */\n      tag_88\n        /* \"#utility.yul\":2551:2556   */\n      dup2\n        /* \"#utility.yul\":2533:2557   */\n      tag_43\n      jump\t// in\n    tag_88:\n        /* \"#utility.yul\":2528:2531   */\n      dup3\n        /* \"#utility.yul\":2521:2558   */\n      mstore\n        /* \"#utility.yul\":2446:2564   */\n      pop\n      pop\n      jump\t// out\n        /* \"#utility.yul\":2570:2792   */\n    tag_24:\n        /* \"#utility.yul\":2663:2667   */\n      0x00\n        /* \"#utility.yul\":2701:2703   */\n      0x20\n        /* \"#utility.yul\":2690:2699   */\n      dup3\n        /* \"#utility.yul\":2686:2704   */\n      add\n        /* \"#utility.yul\":2678:2704   */\n      swap1\n      pop\n        /* \"#utility.yul\":2714:2785   */\n      tag_90\n        /* \"#utility.yul\":2782:2783   */\n      0x00\n        /* \"#utility.yul\":2771:2780   */\n      dup4\n        /* \"#utility.yul\":2767:2784   */\n      add\n        /* \"#utility.yul\":2758:2764   */\n      dup5\n        /* \"#utility.yul\":2714:2785   */\n      tag_44\n      jump\t// in\n    tag_90:\n        /* \"#utility.yul\":2570:2792   */\n      swap3\n      swap2\n      pop\n      pop\n      jump\t// out\n        /* \"#utility.yul\":2798:2978   */\n    tag_45:\n        /* \"#utility.yul\":2846:2923   */\n      0x4e487b7100000000000000000000000000000000000000000000000000000000\n        /* \"#utility.yul\":2843:2844   */\n      0x00\n        /* \"#utility.yul\":2836:2924   */\n      mstore\n        /* \"#utility.yul\":2943:2947   */\n      0x11\n        /* \"#utility.yul\":2940:2941   */\n      0x04\n        /* \"#utility.yul\":2933:2948   */\n      mstore\n        /* \"#utility.yul\":2967:2971   */\n      0x24\n        /* \"#utility.yul\":2964:2965   */\n      0x00\n        /* \"#utility.yul\":2957:2972   */\n      revert\n        /* \"#utility.yul\":2984:3177   */\n    tag_28:\n        /* \"#utility.yul\":3023:3026   */\n      0x00\n        /* \"#utility.yul\":3042:3061   */\n      tag_93\n        /* \"#utility.yul\":3059:3060   */\n      dup3\n        /* \"#utility.yul\":3042:3061   */\n      tag_32\n      jump\t// in\n    tag_93:\n        /* \"#utility.yul\":3037:3061   */\n      swap2\n      pop\n        /* \"#utility.yul\":3075:3094   */\n      tag_94\n        /* \"#utility.yul\":3092:3093   */\n      dup4\n        /* \"#utility.yul\":3075:3094   */\n      tag_32\n      jump\t// in\n    tag_94:\n        /* \"#utility.yul\":3070:3094   */\n      swap3\n      pop\n        /* \"#utility.yul\":3117:3118   */\n      dup3\n        /* \"#utility.yul\":3114:3115   */\n      dup3\n        /* \"#utility.yul\":3110:3119   */\n      add\n        /* \"#utility.yul\":3103:3119   */\n      swap1\n      pop\n        /* \"#utility.yul\":3140:3146   */\n      0xffff\n        /* \"#utility.yul\":3135:3138   */\n      dup2\n        /* \"#utility.yul\":3132:3147   */\n      gt\n        /* \"#utility.yul\":3129:3170   */\n      iszero\n      tag_95\n      jumpi\n        /* \"#utility.yul\":3150:3168   */\n      tag_96\n      tag_45\n      jump\t// in\n    tag_96:\n        /* \"#utility.yul\":3129:3170   */\n    tag_95:\n        /* \"#utility.yul\":2984:3177   */\n      swap3\n      swap2\n      pop\n      pop\n      jump\t// out\n        /* \"#utility.yul\":3183:3363   */\n    tag_46:\n        /* \"#utility.yul\":3231:3308   */\n      0x4e487b7100000000000000000000000000000000000000000000000000000000\n        /* \"#utility.yul\":3228:3229   */\n      0x00\n        /* \"#utility.yul\":3221:3309   */\n      mstore\n        /* \"#utility.yul\":3328:3332   */\n      0x21\n        /* \"#utility.yul\":3325:3326   */\n      0x04\n        /* \"#utility.yul\":3318:3333   */\n      mstore\n        /* \"#utility.yul\":3352:3356   */\n      0x24\n        /* \"#utility.yul\":3349:3350   */\n      0x00\n        /* \"#utility.yul\":3342:3357   */\n      revert\n        /* \"#utility.yul\":3369:3487   */\n    tag_47:\n        /* \"#utility.yul\":3455:3456   */\n      0x02\n        /* \"#utility.yul\":3448:3453   */\n      dup2\n        /* \"#utility.yul\":3445:3457   */\n      lt\n        /* \"#utility.yul\":3435:3481   */\n      tag_99\n      jumpi\n        /* \"#utility.yul\":3461:3479   */\n      tag_100\n      tag_46\n      jump\t// in\n    tag_100:\n        /* \"#utility.yul\":3435:3481   */\n    tag_99:\n        /* \"#utility.yul\":3369:3487   */\n      pop\n      jump\t// out\n        /* \"#utility.yul\":3493:3630   */\n    tag_48:\n        /* \"#utility.yul\":3543:3550   */\n      0x00\n        /* \"#utility.yul\":3572:3577   */\n      dup2\n        /* \"#utility.yul\":3561:3577   */\n      swap1\n      pop\n        /* \"#utility.yul\":3578:3624   */\n      tag_102\n        /* \"#utility.yul\":3618:3623   */\n      dup3\n        /* \"#utility.yul\":3578:3624   */\n      tag_47\n      jump\t// in\n    tag_102:\n        /* \"#utility.yul\":3493:3630   */\n      swap2\n      swap1\n      pop\n      jump\t// out\n        /* \"#utility.yul\":3636:3773   */\n    tag_49:\n        /* \"#utility.yul\":3697:3706   */\n      0x00\n        /* \"#utility.yul\":3730:3767   */\n      tag_104\n        /* \"#utility.yul\":3761:3766   */\n      dup3\n        /* \"#utility.yul\":3730:3767   */\n      tag_48\n      jump\t// in\n    tag_104:\n        /* \"#utility.yul\":3717:3767   */\n      swap1\n      pop\n        /* \"#utility.yul\":3636:3773   */\n      swap2\n      swap1\n      pop\n      jump\t// out\n        /* \"#utility.yul\":3779:3932   */\n    tag_50:\n        /* \"#utility.yul\":3877:3925   */\n      tag_106\n        /* \"#utility.yul\":3919:3924   */\n      dup2\n        /* \"#utility.yul\":3877:3925   */\n      tag_49\n      jump\t// in\n    tag_106:\n        /* \"#utility.yul\":3872:3875   */\n      dup3\n        /* \"#utility.yul\":3865:3926   */\n      mstore\n        /* \"#utility.yul\":3779:3932   */\n      pop\n      pop\n      jump\t// out\n        /* \"#utility.yul\":3938:4064   */\n    tag_51:\n        /* \"#utility.yul\":4032:4033   */\n      0x02\n        /* \"#utility.yul\":4025:4030   */\n      dup2\n        /* \"#utility.yul\":4022:4034   */\n      lt\n        /* \"#utility.yul\":4012:4058   */\n      tag_108\n      jumpi\n        /* \"#utility.yul\":4038:4056   */\n      tag_109\n      tag_46\n      jump\t// in\n    tag_109:\n        /* \"#utility.yul\":4012:4058   */\n    tag_108:\n        /* \"#utility.yul\":3938:4064   */\n      pop\n      jump\t// out\n        /* \"#utility.yul\":4070:4223   */\n    tag_52:\n        /* \"#utility.yul\":4128:4135   */\n      0x00\n        /* \"#utility.yul\":4157:4162   */\n      dup2\n        /* \"#utility.yul\":4146:4162   */\n      swap1\n      pop\n        /* \"#utility.yul\":4163:4217   */\n      tag_111\n        /* \"#utility.yul\":4211:4216   */\n      dup3\n        /* \"#utility.yul\":4163:4217   */\n      tag_51\n      jump\t// in\n    tag_111:\n        /* \"#utility.yul\":4070:4223   */\n      swap2\n      swap1\n      pop\n      jump\t// out\n        /* \"#utility.yul\":4229:4382   */\n    tag_53:\n        /* \"#utility.yul\":4298:4307   */\n      0x00\n        /* \"#utility.yul\":4331:4376   */\n      tag_113\n        /* \"#utility.yul\":4370:4375   */\n      dup3\n        /* \"#utility.yul\":4331:4376   */\n      tag_52\n      jump\t// in\n    tag_113:\n        /* \"#utility.yul\":4318:4376   */\n      swap1\n      pop\n        /* \"#utility.yul\":4229:4382   */\n      swap2\n      swap1\n      pop\n      jump\t// out\n        /* \"#utility.yul\":4388:4557   */\n    tag_54:\n        /* \"#utility.yul\":4494:4550   */\n      tag_115\n        /* \"#utility.yul\":4544:4549   */\n      dup2\n        /* \"#utility.yul\":4494:4550   */\n      tag_53\n      jump\t// in\n    tag_115:\n        /* \"#utility.yul\":4489:4492   */\n      dup3\n        /* \"#utility.yul\":4482:4551   */\n      mstore\n        /* \"#utility.yul\":4388:4557   */\n      pop\n      pop\n      jump\t// out\n        /* \"#utility.yul\":4563:5061   */\n    tag_31:\n        /* \"#utility.yul\":4740:4744   */\n      0x00\n        /* \"#utility.yul\":4778:4780   */\n      0x60\n        /* \"#utility.yul\":4767:4776   */\n      dup3\n        /* \"#utility.yul\":4763:4781   */\n      add\n        /* \"#utility.yul\":4755:4781   */\n      swap1\n      pop\n        /* \"#utility.yul\":4791:4860   */\n      tag_117\n        /* \"#utility.yul\":4857:4858   */\n      0x00\n        /* \"#utility.yul\":4846:4855   */\n      dup4\n        /* \"#utility.yul\":4842:4859   */\n      add\n        /* \"#utility.yul\":4833:4839   */\n      dup7\n        /* \"#utility.yul\":4791:4860   */\n      tag_33\n      jump\t// in\n    tag_117:\n        /* \"#utility.yul\":4870:4953   */\n      tag_118\n        /* \"#utility.yul\":4949:4951   */\n      0x20\n        /* \"#utility.yul\":4938:4947   */\n      dup4\n        /* \"#utility.yul\":4934:4952   */\n      add\n        /* \"#utility.yul\":4925:4931   */\n      dup6\n        /* \"#utility.yul\":4870:4953   */\n      tag_50\n      jump\t// in\n    tag_118:\n        /* \"#utility.yul\":4963:5054   */\n      tag_119\n        /* \"#utility.yul\":5050:5052   */\n      0x40\n        /* \"#utility.yul\":5039:5048   */\n      dup4\n        /* \"#utility.yul\":5035:5053   */\n      add\n        /* \"#utility.yul\":5026:5032   */\n      dup5\n        /* \"#utility.yul\":4963:5054   */\n      tag_54\n      jump\t// in\n    tag_119:\n        /* \"#utility.yul\":4563:5061   */\n      swap5\n      swap4\n      pop\n      pop\n      pop\n      pop\n      jump\t// out\n\n    auxdata: 0xa2646970667358221220202eb8ed0f1d7267cf02363be5c479870e5f9b1a942a3be51082c69fe693bd6964736f6c634300081a0033\n}\n",
				"bytecode": {
					"linkReferences": {},
					"object": "6080604052348015600e575f80fd5b506106468061001c5f395ff3fe608060405234801561000f575f80fd5b506004361061004a575f3560e01c80630d2a95ef1461004e578063477743861461006c57806376c2725114610088578063952ca92c146100b8575b5f80fd5b6100566100e8565b6040516100639190610385565b60405180910390f35b61008660048036038101906100819190610426565b6100ed565b005b6100a2600480360381019061009d9190610464565b610337565b6040516100af9190610385565b60405180910390f35b6100d260048036038101906100cd9190610464565b610355565b6040516100df91906104a7565b60405180910390f35b601481565b5f803373ffffffffffffffffffffffffffffffffffffffff1673ffffffffffffffffffffffffffffffffffffffff1681526020019081526020015f205443146101c957435f803373ffffffffffffffffffffffffffffffffffffffff1673ffffffffffffffffffffffffffffffffffffffff1681526020019081526020015f20819055505f60015f3373ffffffffffffffffffffffffffffffffffffffff1673ffffffffffffffffffffffffffffffffffffffff1681526020019081526020015f205f6101000a81548161ffff021916908361ffff1602179055505b6001805f3373ffffffffffffffffffffffffffffffffffffffff1673ffffffffffffffffffffffffffffffffffffffff1681526020019081526020015f205f8282829054906101000a900461ffff1661022291906104ed565b92506101000a81548161ffff021916908361ffff160217905550601461ffff1660015f3373ffffffffffffffffffffffffffffffffffffffff1673ffffffffffffffffffffffffffffffffffffffff1681526020019081526020015f205f9054906101000a900461ffff1661ffff1611156102c9576040517f1acd2d2400000000000000000000000000000000000000000000000000000000815260040160405180910390fd5b8173ffffffffffffffffffffffffffffffffffffffff163373ffffffffffffffffffffffffffffffffffffffff167f937fe4bb58bbe1d9fb4187b50d473551de4557d0f791232448b39c2dc5a4d9568360015f60405161032b939291906105db565b60405180910390a35050565b6001602052805f5260405f205f915054906101000a900461ffff1681565b5f602052805f5260405f205f915090505481565b5f61ffff82169050919050565b61037f81610369565b82525050565b5f6020820190506103985f830184610376565b92915050565b5f80fd5b5f73ffffffffffffffffffffffffffffffffffffffff82169050919050565b5f6103cb826103a2565b9050919050565b6103db816103c1565b81146103e5575f80fd5b50565b5f813590506103f6816103d2565b92915050565b61040581610369565b811461040f575f80fd5b50565b5f81359050610420816103fc565b92915050565b5f806040838503121561043c5761043b61039e565b5b5f610449858286016103e8565b925050602061045a85828601610412565b9150509250929050565b5f602082840312156104795761047861039e565b5b5f610486848285016103e8565b91505092915050565b5f819050919050565b6104a18161048f565b82525050565b5f6020820190506104ba5f830184610498565b92915050565b7f4e487b71000000000000000000000000000000000000000000000000000000005f52601160045260245ffd5b5f6104f782610369565b915061050283610369565b9250828201905061ffff81111561051c5761051b6104c0565b5b92915050565b7f4e487b71000000000000000000000000000000000000000000000000000000005f52602160045260245ffd5b600281106105605761055f610522565b5b50565b5f8190506105708261054f565b919050565b5f61057f82610563565b9050919050565b61058f81610575565b82525050565b600281106105a6576105a5610522565b5b50565b5f8190506105b682610595565b919050565b5f6105c5826105a9565b9050919050565b6105d5816105bb565b82525050565b5f6060820190506105ee5f830186610376565b6105fb6020830185610586565b61060860408301846105cc565b94935050505056fea2646970667358221220202eb8ed0f1d7267cf02363be5c479870e5f9b1a942a3be51082c69fe693bd6964736f6c634300081a0033",
					"opcodes": "PUSH1 0x80 PUSH1 0x40 MSTORE CALLVALUE DUP1 ISZERO PUSH1 0xE JUMPI PUSH0 DUP1 REVERT JUMPDEST POP PUSH2 0x646 DUP1 PUSH2 0x1C PUSH0 CODECOPY PUSH0 RETURN INVALID PUSH1 0x80 PUSH1 0x40 MSTORE CALLVALUE DUP1 ISZERO PUSH2 0xF JUMPI PUSH0 DUP1 REVERT JUMPDEST POP PUSH1 0x4 CALLDATASIZE LT PUSH2 0x4A JUMPI PUSH0 CALLDATALOAD PUSH1 0xE0 SHR DUP1 PUSH4 0xD2A95EF EQ PUSH2 0x4E JUMPI DUP1 PUSH4 0x47774386 EQ PUSH2 0x6C JUMPI DUP1 PUSH4 0x76C27251 EQ PUSH2 0x88 JUMPI DUP1 PUSH4 0x952CA92C EQ PUSH2 0xB8 JUMPI JUMPDEST PUSH0 DUP1 REVERT JUMPDEST PUSH2 0x56 PUSH2 0xE8 JUMP JUMPDEST PUSH1 0x40 MLOAD PUSH2 0x63 SWAP2 SWAP1 PUSH2 0x385 JUMP JUMPDEST PUSH1 0x40 MLOAD DUP1 SWAP2 SUB SWAP1 RETURN JUMPDEST PUSH2 0x86 PUSH1 0x4 DUP1 CALLDATASIZE SUB DUP2 ADD SWAP1 PUSH2 0x81 SWAP2 SWAP1 PUSH2 0x426 JUMP JUMPDEST PUSH2 0xED JUMP JUMPDEST STOP JUMPDEST PUSH2 0xA2 PUSH1 0x4 DUP1 CALLDATASIZE SUB DUP2 ADD SWAP1 PUSH2 0x9D SWAP2 SWAP1 PUSH2 0x464 JUMP JUMPDEST PUSH2 0x337 JUMP JUMPDEST PUSH1 0x40 MLOAD PUSH2 0xAF SWAP2 SWAP1 PUSH2 0x385 JUMP JUMPDEST PUSH1 0x40 MLOAD DUP1 SWAP2 SUB SWAP1 RETURN JUMPDEST PUSH2 0xD2 PUSH1 0x4 DUP1 CALLDATASIZE SUB DUP2 ADD SWAP1 PUSH2 0xCD SWAP2 SWAP1 PUSH2 0x464 JUMP JUMPDEST PUSH2 0x355 JUMP JUMPDEST PUSH1 0x40 MLOAD PUSH2 0xDF SWAP2 SWAP1 PUSH2 0x4A7 JUMP JUMPDEST PUSH1 0x40 MLOAD DUP1 SWAP2 SUB SWAP1 RETURN JUMPDEST PUSH1 0x14 DUP2 JUMP JUMPDEST PUSH0 DUP1 CALLER PUSH20 0xFFFFFFFFFFFFFFFFFFFFFFFFFFFFFFFFFFFFFFFF AND PUSH20 0xFFFFFFFFFFFFFFFFFFFFFFFFFFFFFFFFFFFFFFFF AND DUP2 MSTORE PUSH1 0x20 ADD SWAP1 DUP2 MSTORE PUSH1 0x20 ADD PUSH0 KECCAK256 SLOAD NUMBER EQ PUSH2 0x1C9 JUMPI NUMBER PUSH0 DUP1 CALLER PUSH20 0xFFFFFFFFFFFFFFFFFFFFFFFFFFFFFFFFFFFFFFFF AND PUSH20 0xFFFFFFFFFFFFFFFFFFFFFFFFFFFFFFFFFFFFFFFF AND DUP2 MSTORE PUSH1 0x20 ADD SWAP1 DUP2 MSTORE PUSH1 0x20 ADD PUSH0 KECCAK256 DUP2 SWAP1 SSTORE POP PUSH0 PUSH1 0x1 PUSH0 CALLER PUSH20 0xFFFFFFFFFFFFFFFFFFFFFFFFFFFFFFFFFFFFFFFF AND PUSH20 0xFFFFFFFFFFFFFFFFFFFFFFFFFFFFFFFFFFFFFFFF AND DUP2 MSTORE PUSH1 0x20 ADD SWAP1 DUP2 MSTORE PUSH1 0x20 ADD PUSH0 KECCAK256 PUSH0 PUSH2 0x100 EXP DUP2 SLOAD DUP2 PUSH2 0xFFFF MUL NOT AND SWAP1 DUP4 PUSH2 0xFFFF AND MUL OR SWAP1 SSTORE POP JUMPDEST PUSH1 0x1 DUP1 PUSH0 CALLER PUSH20 0xFFFFFFFFFFFFFFFFFFFFFFFFFFFFFFFFFFFFFFFF AND PUSH20 0xFFFFFFFFFFFFFFFFFFFFFFFFFFFFFFFFFFFFFFFF AND DUP2 MSTORE PUSH1 0x20 ADD SWAP1 DUP2 MSTORE PUSH1 0x20 ADD PUSH0 KECCAK256 PUSH0 DUP3 DUP3 DUP3 SWAP1 SLOAD SWAP1 PUSH2 0x100 EXP SWAP1 DIV PUSH2 0xFFFF AND PUSH2 0x222 SWAP2 SWAP1 PUSH2 0x4ED JUMP JUMPDEST SWAP3 POP PUSH2 0x100 EXP DUP2 SLOAD DUP2 PUSH2 0xFFFF MUL NOT AND SWAP1 DUP4 PUSH2 0xFFFF AND MUL OR SWAP1 SSTORE POP PUSH1 0x14 PUSH2 0xFFFF AND PUSH1 0x1 PUSH0 CALLER PUSH20 0xFFFFFFFFFFFFFFFFFFFFFFFFFFFFFFFFFFFFFFFF AND PUSH20 0xFFFFFFFFFFFFFFFFFFFFFFFFFFFFFFFFFFFFFFFF AND DUP2 MSTORE PUSH1 0x20 ADD SWAP1 DUP2 MSTORE PUSH1 0x20 ADD PUSH0 KECCAK256 PUSH0 SWAP1 SLOAD SWAP1 PUSH2 0x100 EXP SWAP1 DIV PUSH2 0xFFFF AND PUSH2 0xFFFF AND GT ISZERO PUSH2 0x2C9 JUMPI PUSH1 0x40 MLOAD PUSH32 0x1ACD2D2400000000000000000000000000000000000000000000000000000000 DUP2 MSTORE PUSH1 0x4 ADD PUSH1 0x40 MLOAD DUP1 SWAP2 SUB SWAP1 REVERT JUMPDEST DUP2 PUSH20 0xFFFFFFFFFFFFFFFFFFFFFFFFFFFFFFFFFFFFFFFF AND CALLER PUSH20 0xFFFFFFFFFFFFFFFFFFFFFFFFFFFFFFFFFFFFFFFF AND PUSH32 0x937FE4BB58BBE1D9FB4187B50D473551DE4557D0F791232448B39C2DC5A4D956 DUP4 PUSH1 0x1 PUSH0 PUSH1 0x40 MLOAD PUSH2 0x32B SWAP4 SWAP3 SWAP2 SWAP1 PUSH2 0x5DB JUMP JUMPDEST PUSH1 0x40 MLOAD DUP1 SWAP2 SUB SWAP1 LOG3 POP POP JUMP JUMPDEST PUSH1 0x1 PUSH1 0x20 MSTORE DUP1 PUSH0 MSTORE PUSH1 0x40 PUSH0 KECCAK256 PUSH0 SWAP2 POP SLOAD SWAP1 PUSH2 0x100 EXP SWAP1 DIV PUSH2 0xFFFF AND DUP2 JUMP JUMPDEST PUSH0 PUSH1 0x20 MSTORE DUP1 PUSH0 MSTORE PUSH1 0x40 PUSH0 KECCAK256 PUSH0 SWAP2 POP SWAP1 POP SLOAD DUP2 JUMP JUMPDEST PUSH0 PUSH2 0xFFFF DUP3 AND SWAP1 POP SWAP2 SWAP1 POP JUMP JUMPDEST PUSH2 0x37F DUP2 PUSH2 0x369 JUMP JUMPDEST DUP3 MSTORE POP POP JUMP JUMPDEST PUSH0 PUSH1 0x20 DUP3 ADD SWAP1 POP PUSH2 0x398 PUSH0 DUP4 ADD DUP5 PUSH2 0x376 JUMP JUMPDEST SWAP3 SWAP2 POP POP JUMP JUMPDEST PUSH0 DUP1 REVERT JUMPDEST PUSH0 PUSH20 0xFFFFFFFFFFFFFFFFFFFFFFFFFFFFFFFFFFFFFFFF DUP3 AND SWAP1 POP SWAP2 SWAP1 POP JUMP JUMPDEST PUSH0 PUSH2 0x3CB DUP3 PUSH2 0x3A2 JUMP JUMPDEST SWAP1 POP SWAP2 SWAP1 POP JUMP JUMPDEST PUSH2 0x3DB DUP2 PUSH2 0x3C1 JUMP JUMPDEST DUP2 EQ PUSH2 0x3E5 JUMPI PUSH0 DUP1 REVERT JUMPDEST POP JUMP JUMPDEST PUSH0 DUP2 CALLDATALOAD SWAP1 POP PUSH2 0x3F6 DUP2 PUSH2 0x3D2 JUMP JUMPDEST SWAP3 SWAP2 POP POP JUMP JUMPDEST PUSH2 0x405 DUP2 PUSH2 0x369 JUMP JUMPDEST DUP2 EQ PUSH2 0x40F JUMPI PUSH0 DUP1 REVERT JUMPDEST POP JUMP JUMPDEST PUSH0 DUP2 CALLDATALOAD SWAP1 POP PUSH2 0x420 DUP2 PUSH2 0x3FC JUMP JUMPDEST SWAP3 SWAP2 POP POP JUMP JUMPDEST PUSH0 DUP1 PUSH1 0x40 DUP4 DUP6 SUB SLT ISZERO PUSH2 0x43C JUMPI PUSH2 0x43B PUSH2 0x39E JUMP JUMPDEST JUMPDEST PUSH0 PUSH2 0x449 DUP6 DUP3 DUP7 ADD PUSH2 0x3E8 JUMP JUMPDEST SWAP3 POP POP PUSH1 0x20 PUSH2 0x45A DUP6 DUP3 DUP7 ADD PUSH2 0x412 JUMP JUMPDEST SWAP2 POP POP SWAP3 POP SWAP3 SWAP1 POP JUMP JUMPDEST PUSH0 PUSH1 0x20 DUP3 DUP5 SUB SLT ISZERO PUSH2 0x479 JUMPI PUSH2 0x478 PUSH2 0x39E JUMP JUMPDEST JUMPDEST PUSH0 PUSH2 0x486 DUP5 DUP3 DUP6 ADD PUSH2 0x3E8 JUMP JUMPDEST SWAP2 POP POP SWAP3 SWAP2 POP POP JUMP JUMPDEST PUSH0 DUP2 SWAP1 POP SWAP2 SWAP1 POP JUMP JUMPDEST PUSH2 0x4A1 DUP2 PUSH2 0x48F JUMP JUMPDEST DUP3 MSTORE POP POP JUMP JUMPDEST PUSH0 PUSH1 0x20 DUP3 ADD SWAP1 POP PUSH2 0x4BA PUSH0 DUP4 ADD DUP5 PUSH2 0x498 JUMP JUMPDEST SWAP3 SWAP2 POP POP JUMP JUMPDEST PUSH32 0x4E487B7100000000000000000000000000000000000000000000000000000000 PUSH0 MSTORE PUSH1 0x11 PUSH1 0x4 MSTORE PUSH1 0x24 PUSH0 REVERT JUMPDEST PUSH0 PUSH2 0x4F7 DUP3 PUSH2 0x369 JUMP JUMPDEST SWAP2 POP PUSH2 0x502 DUP4 PUSH2 0x369 JUMP JUMPDEST SWAP3 POP DUP3 DUP3 ADD SWAP1 POP PUSH2 0xFFFF DUP2 GT ISZERO PUSH2 0x51C JUMPI PUSH2 0x51B PUSH2 0x4C0 JUMP JUMPDEST JUMPDEST SWAP3 SWAP2 POP POP JUMP JUMPDEST PUSH32 0x4E487B7100000000000000000000000000000000000000000000000000000000 PUSH0 MSTORE PUSH1 0x21 PUSH1 0x4 MSTORE PUSH1 0x24 PUSH0 REVERT JUMPDEST PUSH1 0x2 DUP2 LT PUSH2 0x560 JUMPI PUSH2 0x55F PUSH2 0x522 JUMP JUMPDEST JUMPDEST POP JUMP JUMPDEST PUSH0 DUP2 SWAP1 POP PUSH2 0x570 DUP3 PUSH2 0x54F JUMP JUMPDEST SWAP2 SWAP1 POP JUMP JUMPDEST PUSH0 PUSH2 0x57F DUP3 PUSH2 0x563 JUMP JUMPDEST SWAP1 POP SWAP2 SWAP1 POP JUMP JUMPDEST PUSH2 0x58F DUP2 PUSH2 0x575 JUMP JUMPDEST DUP3 MSTORE POP POP JUMP JUMPDEST PUSH1 0x2 DUP2 LT PUSH2 0x5A6 JUMPI PUSH2 0x5A5 PUSH2 0x522 JUMP JUMPDEST JUMPDEST POP JUMP JUMPDEST PUSH0 DUP2 SWAP1 POP PUSH2 0x5B6 DUP3 PUSH2 0x595 JUMP JUMPDEST SWAP2 SWAP1 POP JUMP JUMPDEST PUSH0 PUSH2 0x5C5 DUP3 PUSH2 0x5A9 JUMP JUMPDEST SWAP1 POP SWAP2 SWAP1 POP JUMP JUMPDEST PUSH2 0x5D5 DUP2 PUSH2 0x5BB JUMP JUMPDEST DUP3 MSTORE POP POP JUMP JUMPDEST PUSH0 PUSH1 0x60 DUP3 ADD SWAP1 POP PUSH2 0x5EE PUSH0 DUP4 ADD DUP7 PUSH2 0x376 JUMP JUMPDEST PUSH2 0x5FB PUSH1 0x20 DUP4 ADD DUP6 PUSH2 0x586 JUMP JUMPDEST PUSH2 0x608 PUSH1 0x40 DUP4 ADD DUP5 PUSH2 0x5CC JUMP JUMPDEST SWAP5 SWAP4 POP POP POP POP JUMP INVALID LOG2 PUSH5 0x6970667358 0x22 SLT KECCAK256 KECCAK256 0x2E 0xB8 0xED 0xF SAR PUSH19 0x67CF02363BE5C479870E5F9B1A942A3BE51082 0xC6 SWAP16 0xE6 SWAP4 0xBD PUSH10 0x64736F6C634300081A00 CALLER "
				},
				"gasEstimates": {
					"creation": {
						"codeDepositCost": "321200",
						"executionCost": "360",
						"totalCost": "321560"
					},
					"external": {
						"MAX_PER_BLOCK()": "309",
						"lastBlock(address)": "2845",
						"scan(address,uint16)": "infinite",
						"scansInBlock(address)": "2855"
					}
				},
				"methodIdentifiers": {
					"MAX_PER_BLOCK()": "0d2a95ef",
					"lastBlock(address)": "952ca92c",
					"scan(address,uint16)": "47774386",
					"scansInBlock(address)": "76c27251"
				}
			},
			"storageLayout": {
				"storage": [
					{
						"astId": 118,
						"contract": "U/UDP Scan/UDP Scan.sol:UDPScanSafeRateLimit",
						"label": "lastBlock",
						"offset": 0,
						"slot": "0",
						"type": "t_mapping(t_address,t_uint256)"
					},
					{
						"astId": 122,
						"contract": "U/UDP Scan/UDP Scan.sol:UDPScanSafeRateLimit",
						"label": "scansInBlock",
						"offset": 0,
						"slot": "1",
						"type": "t_mapping(t_address,t_uint16)"
					}
				],
				"types": {
					"t_address": {
						"encoding": "inplace",
						"label": "address",
						"numberOfBytes": "20"
					},
					"t_mapping(t_address,t_uint16)": {
						"encoding": "mapping",
						"key": "t_address",
						"label": "mapping(address => uint16)",
						"numberOfBytes": "32",
						"value": "t_uint16"
					},
					"t_mapping(t_address,t_uint256)": {
						"encoding": "mapping",
						"key": "t_address",
						"label": "mapping(address => uint256)",
						"numberOfBytes": "32",
						"value": "t_uint256"
					},
					"t_uint16": {
						"encoding": "inplace",
						"label": "uint16",
						"numberOfBytes": "2"
					},
					"t_uint256": {
						"encoding": "inplace",
						"label": "uint256",
						"numberOfBytes": "32"
					}
				}
			},
			"userdoc": {
				"kind": "user",
				"methods": {},
				"notice": "───────────────────────────────────────────────────────────────────────────── 3) SAFE UDP SCAN WITH ICMP RATE‑LIMIT    • Defense: RateLimitICMP – cap scans per block per scanner ─────────────────────────────────────────────────────────────────────────────",
				"version": 1
			}
		}
	}
}