{
	"U/UDP Scan/UDP Scan.sol": {
		"UDPScanVuln": {
			"abi": [
				{
					"anonymous": false,
					"inputs": [
						{
							"indexed": true,
							"internalType": "address",
							"name": "scanner",
							"type": "address"
						},
						{
							"indexed": true,
							"internalType": "address",
							"name": "target",
							"type": "address"
						},
						{
							"indexed": false,
							"internalType": "uint16",
							"name": "port",
							"type": "uint16"
						},
						{
							"indexed": false,
							"internalType": "enum UDPScanType",
							"name": "scanType",
							"type": "uint8"
						},
						{
							"indexed": false,
							"internalType": "enum UDPScanAttackType",
							"name": "attackType",
							"type": "uint8"
						}
					],
					"name": "ScanLogged",
					"type": "event"
				},
				{
					"inputs": [
						{
							"internalType": "address",
							"name": "target",
							"type": "address"
						},
						{
							"internalType": "uint16",
							"name": "port",
							"type": "uint16"
						}
					],
					"name": "scan",
					"outputs": [],
					"stateMutability": "nonpayable",
					"type": "function"
				}
			],
			"devdoc": {
				"kind": "dev",
				"methods": {},
				"version": 1
			},
			"evm": {
				"assembly": "    /* \"U/UDP Scan/UDP Scan.sol\":1027:1530  contract UDPScanVuln {... */\n  mstore(0x40, 0x80)\n  callvalue\n  dup1\n  iszero\n  tag_1\n  jumpi\n  0x00\n  dup1\n  revert\ntag_1:\n  pop\n  dataSize(sub_0)\n  dup1\n  dataOffset(sub_0)\n  0x00\n  codecopy\n  0x00\n  return\nstop\n\nsub_0: assembly {\n        /* \"U/UDP Scan/UDP Scan.sol\":1027:1530  contract UDPScanVuln {... */\n      mstore(0x40, 0x80)\n      callvalue\n      dup1\n      iszero\n      tag_1\n      jumpi\n      0x00\n      dup1\n      revert\n    tag_1:\n      pop\n      jumpi(tag_2, lt(calldatasize, 0x04))\n      shr(0xe0, calldataload(0x00))\n      dup1\n      0x47774386\n      eq\n      tag_3\n      jumpi\n    tag_2:\n      0x00\n      dup1\n      revert\n        /* \"U/UDP Scan/UDP Scan.sol\":1296:1528  function scan(address target, uint16 port) external {... */\n    tag_3:\n      tag_4\n      0x04\n      dup1\n      calldatasize\n      sub\n      dup2\n      add\n      swap1\n      tag_5\n      swap2\n      swap1\n      tag_6\n      jump\t// in\n    tag_5:\n      tag_7\n      jump\t// in\n    tag_4:\n      stop\n    tag_7:\n        /* \"U/UDP Scan/UDP Scan.sol\":1411:1417  target */\n      dup2\n        /* \"U/UDP Scan/UDP Scan.sol\":1363:1521  ScanLogged(... */\n      0xffffffffffffffffffffffffffffffffffffffff\n      and\n        /* \"U/UDP Scan/UDP Scan.sol\":1387:1397  msg.sender */\n      caller\n        /* \"U/UDP Scan/UDP Scan.sol\":1363:1521  ScanLogged(... */\n      0xffffffffffffffffffffffffffffffffffffffff\n      and\n      0x937fe4bb58bbe1d9fb4187b50d473551de4557d0f791232448b39c2dc5a4d956\n        /* \"U/UDP Scan/UDP Scan.sol\":1431:1435  port */\n      dup4\n        /* \"U/UDP Scan/UDP Scan.sol\":1449:1469  UDPScanType.PortScan */\n      0x01\n        /* \"U/UDP Scan/UDP Scan.sol\":1483:1511  UDPScanAttackType.SweepFlood */\n      0x00\n        /* \"U/UDP Scan/UDP Scan.sol\":1363:1521  ScanLogged(... */\n      mload(0x40)\n      tag_9\n      swap4\n      swap3\n      swap2\n      swap1\n      tag_10\n      jump\t// in\n    tag_9:\n      mload(0x40)\n      dup1\n      swap2\n      sub\n      swap1\n      log3\n        /* \"U/UDP Scan/UDP Scan.sol\":1296:1528  function scan(address target, uint16 port) external {... */\n      pop\n      pop\n      jump\t// out\n        /* \"#utility.yul\":88:205   */\n    tag_12:\n        /* \"#utility.yul\":197:198   */\n      0x00\n        /* \"#utility.yul\":194:195   */\n      dup1\n        /* \"#utility.yul\":187:199   */\n      revert\n        /* \"#utility.yul\":334:460   */\n    tag_14:\n        /* \"#utility.yul\":371:378   */\n      0x00\n        /* \"#utility.yul\":411:453   */\n      0xffffffffffffffffffffffffffffffffffffffff\n        /* \"#utility.yul\":404:409   */\n      dup3\n        /* \"#utility.yul\":400:454   */\n      and\n        /* \"#utility.yul\":389:454   */\n      swap1\n      pop\n        /* \"#utility.yul\":334:460   */\n      swap2\n      swap1\n      pop\n      jump\t// out\n        /* \"#utility.yul\":466:562   */\n    tag_15:\n        /* \"#utility.yul\":503:510   */\n      0x00\n        /* \"#utility.yul\":532:556   */\n      tag_37\n        /* \"#utility.yul\":550:555   */\n      dup3\n        /* \"#utility.yul\":532:556   */\n      tag_14\n      jump\t// in\n    tag_37:\n        /* \"#utility.yul\":521:556   */\n      swap1\n      pop\n        /* \"#utility.yul\":466:562   */\n      swap2\n      swap1\n      pop\n      jump\t// out\n        /* \"#utility.yul\":568:690   */\n    tag_16:\n        /* \"#utility.yul\":641:665   */\n      tag_39\n        /* \"#utility.yul\":659:664   */\n      dup2\n        /* \"#utility.yul\":641:665   */\n      tag_15\n      jump\t// in\n    tag_39:\n        /* \"#utility.yul\":634:639   */\n      dup2\n        /* \"#utility.yul\":631:666   */\n      eq\n        /* \"#utility.yul\":621:684   */\n      tag_40\n      jumpi\n        /* \"#utility.yul\":680:681   */\n      0x00\n        /* \"#utility.yul\":677:678   */\n      dup1\n        /* \"#utility.yul\":670:682   */\n      revert\n        /* \"#utility.yul\":621:684   */\n    tag_40:\n        /* \"#utility.yul\":568:690   */\n      pop\n      jump\t// out\n        /* \"#utility.yul\":696:835   */\n    tag_17:\n        /* \"#utility.yul\":742:747   */\n      0x00\n        /* \"#utility.yul\":780:786   */\n      dup2\n        /* \"#utility.yul\":767:787   */\n      calldataload\n        /* \"#utility.yul\":758:787   */\n      swap1\n      pop\n        /* \"#utility.yul\":796:829   */\n      tag_42\n        /* \"#utility.yul\":823:828   */\n      dup2\n        /* \"#utility.yul\":796:829   */\n      tag_16\n      jump\t// in\n    tag_42:\n        /* \"#utility.yul\":696:835   */\n      swap3\n      swap2\n      pop\n      pop\n      jump\t// out\n        /* \"#utility.yul\":841:930   */\n    tag_18:\n        /* \"#utility.yul\":877:884   */\n      0x00\n        /* \"#utility.yul\":917:923   */\n      0xffff\n        /* \"#utility.yul\":910:915   */\n      dup3\n        /* \"#utility.yul\":906:924   */\n      and\n        /* \"#utility.yul\":895:924   */\n      swap1\n      pop\n        /* \"#utility.yul\":841:930   */\n      swap2\n      swap1\n      pop\n      jump\t// out\n        /* \"#utility.yul\":936:1056   */\n    tag_19:\n        /* \"#utility.yul\":1008:1031   */\n      tag_45\n        /* \"#utility.yul\":1025:1030   */\n      dup2\n        /* \"#utility.yul\":1008:1031   */\n      tag_18\n      jump\t// in\n    tag_45:\n        /* \"#utility.yul\":1001:1006   */\n      dup2\n        /* \"#utility.yul\":998:1032   */\n      eq\n        /* \"#utility.yul\":988:1050   */\n      tag_46\n      jumpi\n        /* \"#utility.yul\":1046:1047   */\n      0x00\n        /* \"#utility.yul\":1043:1044   */\n      dup1\n        /* \"#utility.yul\":1036:1048   */\n      revert\n        /* \"#utility.yul\":988:1050   */\n    tag_46:\n        /* \"#utility.yul\":936:1056   */\n      pop\n      jump\t// out\n        /* \"#utility.yul\":1062:1199   */\n    tag_20:\n        /* \"#utility.yul\":1107:1112   */\n      0x00\n        /* \"#utility.yul\":1145:1151   */\n      dup2\n        /* \"#utility.yul\":1132:1152   */\n      calldataload\n        /* \"#utility.yul\":1123:1152   */\n      swap1\n      pop\n        /* \"#utility.yul\":1161:1193   */\n      tag_48\n        /* \"#utility.yul\":1187:1192   */\n      dup2\n        /* \"#utility.yul\":1161:1193   */\n      tag_19\n      jump\t// in\n    tag_48:\n        /* \"#utility.yul\":1062:1199   */\n      swap3\n      swap2\n      pop\n      pop\n      jump\t// out\n        /* \"#utility.yul\":1205:1677   */\n    tag_6:\n        /* \"#utility.yul\":1272:1278   */\n      0x00\n        /* \"#utility.yul\":1280:1286   */\n      dup1\n        /* \"#utility.yul\":1329:1331   */\n      0x40\n        /* \"#utility.yul\":1317:1326   */\n      dup4\n        /* \"#utility.yul\":1308:1315   */\n      dup6\n        /* \"#utility.yul\":1304:1327   */\n      sub\n        /* \"#utility.yul\":1300:1332   */\n      slt\n        /* \"#utility.yul\":1297:1416   */\n      iszero\n      tag_50\n      jumpi\n        /* \"#utility.yul\":1335:1414   */\n      tag_51\n      tag_12\n      jump\t// in\n    tag_51:\n        /* \"#utility.yul\":1297:1416   */\n    tag_50:\n        /* \"#utility.yul\":1455:1456   */\n      0x00\n        /* \"#utility.yul\":1480:1533   */\n      tag_52\n        /* \"#utility.yul\":1525:1532   */\n      dup6\n        /* \"#utility.yul\":1516:1522   */\n      dup3\n        /* \"#utility.yul\":1505:1514   */\n      dup7\n        /* \"#utility.yul\":1501:1523   */\n      add\n        /* \"#utility.yul\":1480:1533   */\n      tag_17\n      jump\t// in\n    tag_52:\n        /* \"#utility.yul\":1470:1533   */\n      swap3\n      pop\n        /* \"#utility.yul\":1426:1543   */\n      pop\n        /* \"#utility.yul\":1582:1584   */\n      0x20\n        /* \"#utility.yul\":1608:1660   */\n      tag_53\n        /* \"#utility.yul\":1652:1659   */\n      dup6\n        /* \"#utility.yul\":1643:1649   */\n      dup3\n        /* \"#utility.yul\":1632:1641   */\n      dup7\n        /* \"#utility.yul\":1628:1650   */\n      add\n        /* \"#utility.yul\":1608:1660   */\n      tag_20\n      jump\t// in\n    tag_53:\n        /* \"#utility.yul\":1598:1660   */\n      swap2\n      pop\n        /* \"#utility.yul\":1553:1670   */\n      pop\n        /* \"#utility.yul\":1205:1677   */\n      swap3\n      pop\n      swap3\n      swap1\n      pop\n      jump\t// out\n        /* \"#utility.yul\":1683:1798   */\n    tag_21:\n        /* \"#utility.yul\":1768:1791   */\n      tag_55\n        /* \"#utility.yul\":1785:1790   */\n      dup2\n        /* \"#utility.yul\":1768:1791   */\n      tag_18\n      jump\t// in\n    tag_55:\n        /* \"#utility.yul\":1763:1766   */\n      dup3\n        /* \"#utility.yul\":1756:1792   */\n      mstore\n        /* \"#utility.yul\":1683:1798   */\n      pop\n      pop\n      jump\t// out\n        /* \"#utility.yul\":1804:1984   */\n    tag_22:\n        /* \"#utility.yul\":1852:1929   */\n      0x4e487b7100000000000000000000000000000000000000000000000000000000\n        /* \"#utility.yul\":1849:1850   */\n      0x00\n        /* \"#utility.yul\":1842:1930   */\n      mstore\n        /* \"#utility.yul\":1949:1953   */\n      0x21\n        /* \"#utility.yul\":1946:1947   */\n      0x04\n        /* \"#utility.yul\":1939:1954   */\n      mstore\n        /* \"#utility.yul\":1973:1977   */\n      0x24\n        /* \"#utility.yul\":1970:1971   */\n      0x00\n        /* \"#utility.yul\":1963:1978   */\n      revert\n        /* \"#utility.yul\":1990:2108   */\n    tag_23:\n        /* \"#utility.yul\":2076:2077   */\n      0x02\n        /* \"#utility.yul\":2069:2074   */\n      dup2\n        /* \"#utility.yul\":2066:2078   */\n      lt\n        /* \"#utility.yul\":2056:2102   */\n      tag_58\n      jumpi\n        /* \"#utility.yul\":2082:2100   */\n      tag_59\n      tag_22\n      jump\t// in\n    tag_59:\n        /* \"#utility.yul\":2056:2102   */\n    tag_58:\n        /* \"#utility.yul\":1990:2108   */\n      pop\n      jump\t// out\n        /* \"#utility.yul\":2114:2251   */\n    tag_24:\n        /* \"#utility.yul\":2164:2171   */\n      0x00\n        /* \"#utility.yul\":2193:2198   */\n      dup2\n        /* \"#utility.yul\":2182:2198   */\n      swap1\n      pop\n        /* \"#utility.yul\":2199:2245   */\n      tag_61\n        /* \"#utility.yul\":2239:2244   */\n      dup3\n        /* \"#utility.yul\":2199:2245   */\n      tag_23\n      jump\t// in\n    tag_61:\n        /* \"#utility.yul\":2114:2251   */\n      swap2\n      swap1\n      pop\n      jump\t// out\n        /* \"#utility.yul\":2257:2394   */\n    tag_25:\n        /* \"#utility.yul\":2318:2327   */\n      0x00\n        /* \"#utility.yul\":2351:2388   */\n      tag_63\n        /* \"#utility.yul\":2382:2387   */\n      dup3\n        /* \"#utility.yul\":2351:2388   */\n      tag_24\n      jump\t// in\n    tag_63:\n        /* \"#utility.yul\":2338:2388   */\n      swap1\n      pop\n        /* \"#utility.yul\":2257:2394   */\n      swap2\n      swap1\n      pop\n      jump\t// out\n        /* \"#utility.yul\":2400:2553   */\n    tag_26:\n        /* \"#utility.yul\":2498:2546   */\n      tag_65\n        /* \"#utility.yul\":2540:2545   */\n      dup2\n        /* \"#utility.yul\":2498:2546   */\n      tag_25\n      jump\t// in\n    tag_65:\n        /* \"#utility.yul\":2493:2496   */\n      dup3\n        /* \"#utility.yul\":2486:2547   */\n      mstore\n        /* \"#utility.yul\":2400:2553   */\n      pop\n      pop\n      jump\t// out\n        /* \"#utility.yul\":2559:2683   */\n    tag_27:\n        /* \"#utility.yul\":2651:2652   */\n      0x02\n        /* \"#utility.yul\":2644:2649   */\n      dup2\n        /* \"#utility.yul\":2641:2653   */\n      lt\n        /* \"#utility.yul\":2631:2677   */\n      tag_67\n      jumpi\n        /* \"#utility.yul\":2657:2675   */\n      tag_68\n      tag_22\n      jump\t// in\n    tag_68:\n        /* \"#utility.yul\":2631:2677   */\n    tag_67:\n        /* \"#utility.yul\":2559:2683   */\n      pop\n      jump\t// out\n        /* \"#utility.yul\":2689:2838   */\n    tag_28:\n        /* \"#utility.yul\":2745:2752   */\n      0x00\n        /* \"#utility.yul\":2774:2779   */\n      dup2\n        /* \"#utility.yul\":2763:2779   */\n      swap1\n      pop\n        /* \"#utility.yul\":2780:2832   */\n      tag_70\n        /* \"#utility.yul\":2826:2831   */\n      dup3\n        /* \"#utility.yul\":2780:2832   */\n      tag_27\n      jump\t// in\n    tag_70:\n        /* \"#utility.yul\":2689:2838   */\n      swap2\n      swap1\n      pop\n      jump\t// out\n        /* \"#utility.yul\":2844:2993   */\n    tag_29:\n        /* \"#utility.yul\":2911:2920   */\n      0x00\n        /* \"#utility.yul\":2944:2987   */\n      tag_72\n        /* \"#utility.yul\":2981:2986   */\n      dup3\n        /* \"#utility.yul\":2944:2987   */\n      tag_28\n      jump\t// in\n    tag_72:\n        /* \"#utility.yul\":2931:2987   */\n      swap1\n      pop\n        /* \"#utility.yul\":2844:2993   */\n      swap2\n      swap1\n      pop\n      jump\t// out\n        /* \"#utility.yul\":2999:3164   */\n    tag_30:\n        /* \"#utility.yul\":3103:3157   */\n      tag_74\n        /* \"#utility.yul\":3151:3156   */\n      dup2\n        /* \"#utility.yul\":3103:3157   */\n      tag_29\n      jump\t// in\n    tag_74:\n        /* \"#utility.yul\":3098:3101   */\n      dup3\n        /* \"#utility.yul\":3091:3158   */\n      mstore\n        /* \"#utility.yul\":2999:3164   */\n      pop\n      pop\n      jump\t// out\n        /* \"#utility.yul\":3170:3664   */\n    tag_10:\n        /* \"#utility.yul\":3345:3349   */\n      0x00\n        /* \"#utility.yul\":3383:3385   */\n      0x60\n        /* \"#utility.yul\":3372:3381   */\n      dup3\n        /* \"#utility.yul\":3368:3386   */\n      add\n        /* \"#utility.yul\":3360:3386   */\n      swap1\n      pop\n        /* \"#utility.yul\":3396:3465   */\n      tag_76\n        /* \"#utility.yul\":3462:3463   */\n      0x00\n        /* \"#utility.yul\":3451:3460   */\n      dup4\n        /* \"#utility.yul\":3447:3464   */\n      add\n        /* \"#utility.yul\":3438:3444   */\n      dup7\n        /* \"#utility.yul\":3396:3465   */\n      tag_21\n      jump\t// in\n    tag_76:\n        /* \"#utility.yul\":3475:3558   */\n      tag_77\n        /* \"#utility.yul\":3554:3556   */\n      0x20\n        /* \"#utility.yul\":3543:3552   */\n      dup4\n        /* \"#utility.yul\":3539:3557   */\n      add\n        /* \"#utility.yul\":3530:3536   */\n      dup6\n        /* \"#utility.yul\":3475:3558   */\n      tag_26\n      jump\t// in\n    tag_77:\n        /* \"#utility.yul\":3568:3657   */\n      tag_78\n        /* \"#utility.yul\":3653:3655   */\n      0x40\n        /* \"#utility.yul\":3642:3651   */\n      dup4\n        /* \"#utility.yul\":3638:3656   */\n      add\n        /* \"#utility.yul\":3629:3635   */\n      dup5\n        /* \"#utility.yul\":3568:3657   */\n      tag_30\n      jump\t// in\n    tag_78:\n        /* \"#utility.yul\":3170:3664   */\n      swap5\n      swap4\n      pop\n      pop\n      pop\n      pop\n      jump\t// out\n\n    auxdata: 0xa26469706673582212200b731597a9c6cd64d3e6060cd1464e7434d021463bd54a7b7189a00570c2234d64736f6c634300081a0033\n}\n",
				"bytecode": {
					"linkReferences": {},
					"object": "6080604052348015600e575f80fd5b506102bd8061001c5f395ff3fe608060405234801561000f575f80fd5b5060043610610029575f3560e01c8063477743861461002d575b5f80fd5b6100476004803603810190610042919061014c565b610049565b005b8173ffffffffffffffffffffffffffffffffffffffff163373ffffffffffffffffffffffffffffffffffffffff167f937fe4bb58bbe1d9fb4187b50d473551de4557d0f791232448b39c2dc5a4d9568360015f6040516100ab93929190610252565b60405180910390a35050565b5f80fd5b5f73ffffffffffffffffffffffffffffffffffffffff82169050919050565b5f6100e4826100bb565b9050919050565b6100f4816100da565b81146100fe575f80fd5b50565b5f8135905061010f816100eb565b92915050565b5f61ffff82169050919050565b61012b81610115565b8114610135575f80fd5b50565b5f8135905061014681610122565b92915050565b5f8060408385031215610162576101616100b7565b5b5f61016f85828601610101565b925050602061018085828601610138565b9150509250929050565b61019381610115565b82525050565b7f4e487b71000000000000000000000000000000000000000000000000000000005f52602160045260245ffd5b600281106101d7576101d6610199565b5b50565b5f8190506101e7826101c6565b919050565b5f6101f6826101da565b9050919050565b610206816101ec565b82525050565b6002811061021d5761021c610199565b5b50565b5f81905061022d8261020c565b919050565b5f61023c82610220565b9050919050565b61024c81610232565b82525050565b5f6060820190506102655f83018661018a565b61027260208301856101fd565b61027f6040830184610243565b94935050505056fea26469706673582212200b731597a9c6cd64d3e6060cd1464e7434d021463bd54a7b7189a00570c2234d64736f6c634300081a0033",
					"opcodes": "PUSH1 0x80 PUSH1 0x40 MSTORE CALLVALUE DUP1 ISZERO PUSH1 0xE JUMPI PUSH0 DUP1 REVERT JUMPDEST POP PUSH2 0x2BD DUP1 PUSH2 0x1C PUSH0 CODECOPY PUSH0 RETURN INVALID PUSH1 0x80 PUSH1 0x40 MSTORE CALLVALUE DUP1 ISZERO PUSH2 0xF JUMPI PUSH0 DUP1 REVERT JUMPDEST POP PUSH1 0x4 CALLDATASIZE LT PUSH2 0x29 JUMPI PUSH0 CALLDATALOAD PUSH1 0xE0 SHR DUP1 PUSH4 0x47774386 EQ PUSH2 0x2D JUMPI JUMPDEST PUSH0 DUP1 REVERT JUMPDEST PUSH2 0x47 PUSH1 0x4 DUP1 CALLDATASIZE SUB DUP2 ADD SWAP1 PUSH2 0x42 SWAP2 SWAP1 PUSH2 0x14C JUMP JUMPDEST PUSH2 0x49 JUMP JUMPDEST STOP JUMPDEST DUP2 PUSH20 0xFFFFFFFFFFFFFFFFFFFFFFFFFFFFFFFFFFFFFFFF AND CALLER PUSH20 0xFFFFFFFFFFFFFFFFFFFFFFFFFFFFFFFFFFFFFFFF AND PUSH32 0x937FE4BB58BBE1D9FB4187B50D473551DE4557D0F791232448B39C2DC5A4D956 DUP4 PUSH1 0x1 PUSH0 PUSH1 0x40 MLOAD PUSH2 0xAB SWAP4 SWAP3 SWAP2 SWAP1 PUSH2 0x252 JUMP JUMPDEST PUSH1 0x40 MLOAD DUP1 SWAP2 SUB SWAP1 LOG3 POP POP JUMP JUMPDEST PUSH0 DUP1 REVERT JUMPDEST PUSH0 PUSH20 0xFFFFFFFFFFFFFFFFFFFFFFFFFFFFFFFFFFFFFFFF DUP3 AND SWAP1 POP SWAP2 SWAP1 POP JUMP JUMPDEST PUSH0 PUSH2 0xE4 DUP3 PUSH2 0xBB JUMP JUMPDEST SWAP1 POP SWAP2 SWAP1 POP JUMP JUMPDEST PUSH2 0xF4 DUP2 PUSH2 0xDA JUMP JUMPDEST DUP2 EQ PUSH2 0xFE JUMPI PUSH0 DUP1 REVERT JUMPDEST POP JUMP JUMPDEST PUSH0 DUP2 CALLDATALOAD SWAP1 POP PUSH2 0x10F DUP2 PUSH2 0xEB JUMP JUMPDEST SWAP3 SWAP2 POP POP JUMP JUMPDEST PUSH0 PUSH2 0xFFFF DUP3 AND SWAP1 POP SWAP2 SWAP1 POP JUMP JUMPDEST PUSH2 0x12B DUP2 PUSH2 0x115 JUMP JUMPDEST DUP2 EQ PUSH2 0x135 JUMPI PUSH0 DUP1 REVERT JUMPDEST POP JUMP JUMPDEST PUSH0 DUP2 CALLDATALOAD SWAP1 POP PUSH2 0x146 DUP2 PUSH2 0x122 JUMP JUMPDEST SWAP3 SWAP2 POP POP JUMP JUMPDEST PUSH0 DUP1 PUSH1 0x40 DUP4 DUP6 SUB SLT ISZERO PUSH2 0x162 JUMPI PUSH2 0x161 PUSH2 0xB7 JUMP JUMPDEST JUMPDEST PUSH0 PUSH2 0x16F DUP6 DUP3 DUP7 ADD PUSH2 0x101 JUMP JUMPDEST SWAP3 POP POP PUSH1 0x20 PUSH2 0x180 DUP6 DUP3 DUP7 ADD PUSH2 0x138 JUMP JUMPDEST SWAP2 POP POP SWAP3 POP SWAP3 SWAP1 POP JUMP JUMPDEST PUSH2 0x193 DUP2 PUSH2 0x115 JUMP JUMPDEST DUP3 MSTORE POP POP JUMP JUMPDEST PUSH32 0x4E487B7100000000000000000000000000000000000000000000000000000000 PUSH0 MSTORE PUSH1 0x21 PUSH1 0x4 MSTORE PUSH1 0x24 PUSH0 REVERT JUMPDEST PUSH1 0x2 DUP2 LT PUSH2 0x1D7 JUMPI PUSH2 0x1D6 PUSH2 0x199 JUMP JUMPDEST JUMPDEST POP JUMP JUMPDEST PUSH0 DUP2 SWAP1 POP PUSH2 0x1E7 DUP3 PUSH2 0x1C6 JUMP JUMPDEST SWAP2 SWAP1 POP JUMP JUMPDEST PUSH0 PUSH2 0x1F6 DUP3 PUSH2 0x1DA JUMP JUMPDEST SWAP1 POP SWAP2 SWAP1 POP JUMP JUMPDEST PUSH2 0x206 DUP2 PUSH2 0x1EC JUMP JUMPDEST DUP3 MSTORE POP POP JUMP JUMPDEST PUSH1 0x2 DUP2 LT PUSH2 0x21D JUMPI PUSH2 0x21C PUSH2 0x199 JUMP JUMPDEST JUMPDEST POP JUMP JUMPDEST PUSH0 DUP2 SWAP1 POP PUSH2 0x22D DUP3 PUSH2 0x20C JUMP JUMPDEST SWAP2 SWAP1 POP JUMP JUMPDEST PUSH0 PUSH2 0x23C DUP3 PUSH2 0x220 JUMP JUMPDEST SWAP1 POP SWAP2 SWAP1 POP JUMP JUMPDEST PUSH2 0x24C DUP2 PUSH2 0x232 JUMP JUMPDEST DUP3 MSTORE POP POP JUMP JUMPDEST PUSH0 PUSH1 0x60 DUP3 ADD SWAP1 POP PUSH2 0x265 PUSH0 DUP4 ADD DUP7 PUSH2 0x18A JUMP JUMPDEST PUSH2 0x272 PUSH1 0x20 DUP4 ADD DUP6 PUSH2 0x1FD JUMP JUMPDEST PUSH2 0x27F PUSH1 0x40 DUP4 ADD DUP5 PUSH2 0x243 JUMP JUMPDEST SWAP5 SWAP4 POP POP POP POP JUMP INVALID LOG2 PUSH5 0x6970667358 0x22 SLT KECCAK256 SIGNEXTEND PUSH20 0x1597A9C6CD64D3E6060CD1464E7434D021463BD5 BLOBBASEFEE PUSH28 0x7189A00570C2234D64736F6C634300081A0033000000000000000000 "
				},
				"gasEstimates": {
					"creation": {
						"codeDepositCost": "140200",
						"executionCost": "181",
						"totalCost": "140381"
					},
					"external": {
						"scan(address,uint16)": "infinite"
					}
				},
				"methodIdentifiers": {
					"scan(address,uint16)": "47774386"
				}
			},
			"storageLayout": {
				"storage": [],
				"types": null
			},
			"userdoc": {
				"kind": "user",
				"methods": {
					"scan(address,uint16)": {
						"notice": "❌ no restrictions: log every scan"
					}
				},
				"notice": "───────────────────────────────────────────────────────────────────────────── 1) VULNERABLE UDP SCAN LOGGER    • anyone may scan any port and log raw responses    • AttackType: SweepFlood ─────────────────────────────────────────────────────────────────────────────",
				"version": 1
			}
		}
	}
}