{
	"U/UDP Scan/UDP Scan.sol": {
		"Attack_UDPScan": {
			"abi": [
				{
					"inputs": [
						{
							"internalType": "contract UDPScanVuln",
							"name": "_t",
							"type": "address"
						}
					],
					"stateMutability": "nonpayable",
					"type": "constructor"
				},
				{
					"inputs": [
						{
							"internalType": "address",
							"name": "dst",
							"type": "address"
						},
						{
							"internalType": "uint16[]",
							"name": "ports",
							"type": "uint16[]"
						}
					],
					"name": "floodScan",
					"outputs": [],
					"stateMutability": "nonpayable",
					"type": "function"
				},
				{
					"inputs": [],
					"name": "target",
					"outputs": [
						{
							"internalType": "contract UDPScanVuln",
							"name": "",
							"type": "address"
						}
					],
					"stateMutability": "view",
					"type": "function"
				}
			],
			"devdoc": {
				"kind": "dev",
				"methods": {},
				"version": 1
			},
			"evm": {
				"assembly": "    /* \"U/UDP Scan/UDP Scan.sol\":2090:2413  contract Attack_UDPScan {... */\n  mstore(0x40, 0x80)\n    /* \"U/UDP Scan/UDP Scan.sol\":2152:2196  constructor(UDPScanVuln _t) { target = _t; } */\n  callvalue\n  dup1\n  iszero\n  tag_1\n  jumpi\n  0x00\n  dup1\n  revert\ntag_1:\n  pop\n  mload(0x40)\n  sub(codesize, bytecodeSize)\n  dup1\n  bytecodeSize\n  dup4\n  codecopy\n  dup2\n  dup2\n  add\n  0x40\n  mstore\n  dup2\n  add\n  swap1\n  tag_2\n  swap2\n  swap1\n  tag_3\n  jump\t// in\ntag_2:\n    /* \"U/UDP Scan/UDP Scan.sol\":2191:2193  _t */\n  dup1\n    /* \"U/UDP Scan/UDP Scan.sol\":2182:2188  target */\n  0x00\n  dup1\n    /* \"U/UDP Scan/UDP Scan.sol\":2182:2193  target = _t */\n  0x0100\n  exp\n  dup2\n  sload\n  dup2\n  0xffffffffffffffffffffffffffffffffffffffff\n  mul\n  not\n  and\n  swap1\n  dup4\n  0xffffffffffffffffffffffffffffffffffffffff\n  and\n  mul\n  or\n  swap1\n  sstore\n  pop\n    /* \"U/UDP Scan/UDP Scan.sol\":2152:2196  constructor(UDPScanVuln _t) { target = _t; } */\n  pop\n    /* \"U/UDP Scan/UDP Scan.sol\":2090:2413  contract Attack_UDPScan {... */\n  jump(tag_6)\n    /* \"#utility.yul\":88:205   */\ntag_8:\n    /* \"#utility.yul\":197:198   */\n  0x00\n    /* \"#utility.yul\":194:195   */\n  dup1\n    /* \"#utility.yul\":187:199   */\n  revert\n    /* \"#utility.yul\":334:460   */\ntag_10:\n    /* \"#utility.yul\":371:378   */\n  0x00\n    /* \"#utility.yul\":411:453   */\n  0xffffffffffffffffffffffffffffffffffffffff\n    /* \"#utility.yul\":404:409   */\n  dup3\n    /* \"#utility.yul\":400:454   */\n  and\n    /* \"#utility.yul\":389:454   */\n  swap1\n  pop\n    /* \"#utility.yul\":334:460   */\n  swap2\n  swap1\n  pop\n  jump\t// out\n    /* \"#utility.yul\":466:562   */\ntag_11:\n    /* \"#utility.yul\":503:510   */\n  0x00\n    /* \"#utility.yul\":532:556   */\n  tag_21\n    /* \"#utility.yul\":550:555   */\n  dup3\n    /* \"#utility.yul\":532:556   */\n  tag_10\n  jump\t// in\ntag_21:\n    /* \"#utility.yul\":521:556   */\n  swap1\n  pop\n    /* \"#utility.yul\":466:562   */\n  swap2\n  swap1\n  pop\n  jump\t// out\n    /* \"#utility.yul\":568:682   */\ntag_12:\n    /* \"#utility.yul\":623:630   */\n  0x00\n    /* \"#utility.yul\":652:676   */\n  tag_23\n    /* \"#utility.yul\":670:675   */\n  dup3\n    /* \"#utility.yul\":652:676   */\n  tag_11\n  jump\t// in\ntag_23:\n    /* \"#utility.yul\":641:676   */\n  swap1\n  pop\n    /* \"#utility.yul\":568:682   */\n  swap2\n  swap1\n  pop\n  jump\t// out\n    /* \"#utility.yul\":688:846   */\ntag_13:\n    /* \"#utility.yul\":779:821   */\n  tag_25\n    /* \"#utility.yul\":815:820   */\n  dup2\n    /* \"#utility.yul\":779:821   */\n  tag_12\n  jump\t// in\ntag_25:\n    /* \"#utility.yul\":772:777   */\n  dup2\n    /* \"#utility.yul\":769:822   */\n  eq\n    /* \"#utility.yul\":759:840   */\n  tag_26\n  jumpi\n    /* \"#utility.yul\":836:837   */\n  0x00\n    /* \"#utility.yul\":833:834   */\n  dup1\n    /* \"#utility.yul\":826:838   */\n  revert\n    /* \"#utility.yul\":759:840   */\ntag_26:\n    /* \"#utility.yul\":688:846   */\n  pop\n  jump\t// out\n    /* \"#utility.yul\":852:1031   */\ntag_14:\n    /* \"#utility.yul\":927:932   */\n  0x00\n    /* \"#utility.yul\":958:964   */\n  dup2\n    /* \"#utility.yul\":952:965   */\n  mload\n    /* \"#utility.yul\":943:965   */\n  swap1\n  pop\n    /* \"#utility.yul\":974:1025   */\n  tag_28\n    /* \"#utility.yul\":1019:1024   */\n  dup2\n    /* \"#utility.yul\":974:1025   */\n  tag_13\n  jump\t// in\ntag_28:\n    /* \"#utility.yul\":852:1031   */\n  swap3\n  swap2\n  pop\n  pop\n  jump\t// out\n    /* \"#utility.yul\":1037:1424   */\ntag_3:\n    /* \"#utility.yul\":1125:1131   */\n  0x00\n    /* \"#utility.yul\":1174:1176   */\n  0x20\n    /* \"#utility.yul\":1162:1171   */\n  dup3\n    /* \"#utility.yul\":1153:1160   */\n  dup5\n    /* \"#utility.yul\":1149:1172   */\n  sub\n    /* \"#utility.yul\":1145:1177   */\n  slt\n    /* \"#utility.yul\":1142:1261   */\n  iszero\n  tag_30\n  jumpi\n    /* \"#utility.yul\":1180:1259   */\n  tag_31\n  tag_8\n  jump\t// in\ntag_31:\n    /* \"#utility.yul\":1142:1261   */\ntag_30:\n    /* \"#utility.yul\":1300:1301   */\n  0x00\n    /* \"#utility.yul\":1325:1407   */\n  tag_32\n    /* \"#utility.yul\":1399:1406   */\n  dup5\n    /* \"#utility.yul\":1390:1396   */\n  dup3\n    /* \"#utility.yul\":1379:1388   */\n  dup6\n    /* \"#utility.yul\":1375:1397   */\n  add\n    /* \"#utility.yul\":1325:1407   */\n  tag_14\n  jump\t// in\ntag_32:\n    /* \"#utility.yul\":1315:1407   */\n  swap2\n  pop\n    /* \"#utility.yul\":1271:1417   */\n  pop\n    /* \"#utility.yul\":1037:1424   */\n  swap3\n  swap2\n  pop\n  pop\n  jump\t// out\n    /* \"U/UDP Scan/UDP Scan.sol\":2090:2413  contract Attack_UDPScan {... */\ntag_6:\n  dataSize(sub_0)\n  dup1\n  dataOffset(sub_0)\n  0x00\n  codecopy\n  0x00\n  return\nstop\n\nsub_0: assembly {\n        /* \"U/UDP Scan/UDP Scan.sol\":2090:2413  contract Attack_UDPScan {... */\n      mstore(0x40, 0x80)\n      callvalue\n      dup1\n      iszero\n      tag_1\n      jumpi\n      0x00\n      dup1\n      revert\n    tag_1:\n      pop\n      jumpi(tag_2, lt(calldatasize, 0x04))\n      shr(0xe0, calldataload(0x00))\n      dup1\n      0xcc42a670\n      eq\n      tag_3\n      jumpi\n      dup1\n      0xd4b83992\n      eq\n      tag_4\n      jumpi\n    tag_2:\n      0x00\n      dup1\n      revert\n        /* \"U/UDP Scan/UDP Scan.sol\":2238:2411  function floodScan(address dst, uint16[] calldata ports) external {... */\n    tag_3:\n      tag_5\n      0x04\n      dup1\n      calldatasize\n      sub\n      dup2\n      add\n      swap1\n      tag_6\n      swap2\n      swap1\n      tag_7\n      jump\t// in\n    tag_6:\n      tag_8\n      jump\t// in\n    tag_5:\n      stop\n        /* \"U/UDP Scan/UDP Scan.sol\":2120:2145  UDPScanVuln public target */\n    tag_4:\n      tag_9\n      tag_10\n      jump\t// in\n    tag_9:\n      mload(0x40)\n      tag_11\n      swap2\n      swap1\n      tag_12\n      jump\t// in\n    tag_11:\n      mload(0x40)\n      dup1\n      swap2\n      sub\n      swap1\n      return\n        /* \"U/UDP Scan/UDP Scan.sol\":2238:2411  function floodScan(address dst, uint16[] calldata ports) external {... */\n    tag_8:\n        /* \"U/UDP Scan/UDP Scan.sol\":2319:2325  uint i */\n      0x00\n        /* \"U/UDP Scan/UDP Scan.sol\":2314:2405  for (uint i = 0; i < ports.length; i++) {... */\n    tag_14:\n        /* \"U/UDP Scan/UDP Scan.sol\":2335:2340  ports */\n      dup3\n      dup3\n        /* \"U/UDP Scan/UDP Scan.sol\":2335:2347  ports.length */\n      swap1\n      pop\n        /* \"U/UDP Scan/UDP Scan.sol\":2331:2332  i */\n      dup2\n        /* \"U/UDP Scan/UDP Scan.sol\":2331:2347  i < ports.length */\n      lt\n        /* \"U/UDP Scan/UDP Scan.sol\":2314:2405  for (uint i = 0; i < ports.length; i++) {... */\n      iszero\n      tag_15\n      jumpi\n        /* \"U/UDP Scan/UDP Scan.sol\":2368:2374  target */\n      0x00\n      dup1\n      sload\n      swap1\n      0x0100\n      exp\n      swap1\n      div\n      0xffffffffffffffffffffffffffffffffffffffff\n      and\n        /* \"U/UDP Scan/UDP Scan.sol\":2368:2379  target.scan */\n      0xffffffffffffffffffffffffffffffffffffffff\n      and\n      0x47774386\n        /* \"U/UDP Scan/UDP Scan.sol\":2380:2383  dst */\n      dup6\n        /* \"U/UDP Scan/UDP Scan.sol\":2385:2390  ports */\n      dup6\n      dup6\n        /* \"U/UDP Scan/UDP Scan.sol\":2391:2392  i */\n      dup6\n        /* \"U/UDP Scan/UDP Scan.sol\":2385:2393  ports[i] */\n      dup2\n      dup2\n      lt\n      tag_17\n      jumpi\n      tag_18\n      tag_19\n      jump\t// in\n    tag_18:\n    tag_17:\n      swap1\n      pop\n      0x20\n      mul\n      add\n      0x20\n      dup2\n      add\n      swap1\n      tag_20\n      swap2\n      swap1\n      tag_21\n      jump\t// in\n    tag_20:\n        /* \"U/UDP Scan/UDP Scan.sol\":2368:2394  target.scan(dst, ports[i]) */\n      mload(0x40)\n      dup4\n      0xffffffff\n      and\n      0xe0\n      shl\n      dup2\n      mstore\n      0x04\n      add\n      tag_22\n      swap3\n      swap2\n      swap1\n      tag_23\n      jump\t// in\n    tag_22:\n      0x00\n      mload(0x40)\n      dup1\n      dup4\n      sub\n      dup2\n      0x00\n      dup8\n      dup1\n      extcodesize\n      iszero\n      dup1\n      iszero\n      tag_24\n      jumpi\n      0x00\n      dup1\n      revert\n    tag_24:\n      pop\n      gas\n      call\n      iszero\n      dup1\n      iszero\n      tag_26\n      jumpi\n      returndatasize\n      0x00\n      dup1\n      returndatacopy\n      revert(0x00, returndatasize)\n    tag_26:\n      pop\n      pop\n      pop\n      pop\n        /* \"U/UDP Scan/UDP Scan.sol\":2349:2352  i++ */\n      dup1\n      dup1\n      0x01\n      add\n      swap2\n      pop\n      pop\n        /* \"U/UDP Scan/UDP Scan.sol\":2314:2405  for (uint i = 0; i < ports.length; i++) {... */\n      jump(tag_14)\n    tag_15:\n      pop\n        /* \"U/UDP Scan/UDP Scan.sol\":2238:2411  function floodScan(address dst, uint16[] calldata ports) external {... */\n      pop\n      pop\n      pop\n      jump\t// out\n        /* \"U/UDP Scan/UDP Scan.sol\":2120:2145  UDPScanVuln public target */\n    tag_10:\n      0x00\n      dup1\n      sload\n      swap1\n      0x0100\n      exp\n      swap1\n      div\n      0xffffffffffffffffffffffffffffffffffffffff\n      and\n      dup2\n      jump\t// out\n        /* \"#utility.yul\":88:205   */\n    tag_28:\n        /* \"#utility.yul\":197:198   */\n      0x00\n        /* \"#utility.yul\":194:195   */\n      dup1\n        /* \"#utility.yul\":187:199   */\n      revert\n        /* \"#utility.yul\":211:328   */\n    tag_29:\n        /* \"#utility.yul\":320:321   */\n      0x00\n        /* \"#utility.yul\":317:318   */\n      dup1\n        /* \"#utility.yul\":310:322   */\n      revert\n        /* \"#utility.yul\":334:460   */\n    tag_30:\n        /* \"#utility.yul\":371:378   */\n      0x00\n        /* \"#utility.yul\":411:453   */\n      0xffffffffffffffffffffffffffffffffffffffff\n        /* \"#utility.yul\":404:409   */\n      dup3\n        /* \"#utility.yul\":400:454   */\n      and\n        /* \"#utility.yul\":389:454   */\n      swap1\n      pop\n        /* \"#utility.yul\":334:460   */\n      swap2\n      swap1\n      pop\n      jump\t// out\n        /* \"#utility.yul\":466:562   */\n    tag_31:\n        /* \"#utility.yul\":503:510   */\n      0x00\n        /* \"#utility.yul\":532:556   */\n      tag_54\n        /* \"#utility.yul\":550:555   */\n      dup3\n        /* \"#utility.yul\":532:556   */\n      tag_30\n      jump\t// in\n    tag_54:\n        /* \"#utility.yul\":521:556   */\n      swap1\n      pop\n        /* \"#utility.yul\":466:562   */\n      swap2\n      swap1\n      pop\n      jump\t// out\n        /* \"#utility.yul\":568:690   */\n    tag_32:\n        /* \"#utility.yul\":641:665   */\n      tag_56\n        /* \"#utility.yul\":659:664   */\n      dup2\n        /* \"#utility.yul\":641:665   */\n      tag_31\n      jump\t// in\n    tag_56:\n        /* \"#utility.yul\":634:639   */\n      dup2\n        /* \"#utility.yul\":631:666   */\n      eq\n        /* \"#utility.yul\":621:684   */\n      tag_57\n      jumpi\n        /* \"#utility.yul\":680:681   */\n      0x00\n        /* \"#utility.yul\":677:678   */\n      dup1\n        /* \"#utility.yul\":670:682   */\n      revert\n        /* \"#utility.yul\":621:684   */\n    tag_57:\n        /* \"#utility.yul\":568:690   */\n      pop\n      jump\t// out\n        /* \"#utility.yul\":696:835   */\n    tag_33:\n        /* \"#utility.yul\":742:747   */\n      0x00\n        /* \"#utility.yul\":780:786   */\n      dup2\n        /* \"#utility.yul\":767:787   */\n      calldataload\n        /* \"#utility.yul\":758:787   */\n      swap1\n      pop\n        /* \"#utility.yul\":796:829   */\n      tag_59\n        /* \"#utility.yul\":823:828   */\n      dup2\n        /* \"#utility.yul\":796:829   */\n      tag_32\n      jump\t// in\n    tag_59:\n        /* \"#utility.yul\":696:835   */\n      swap3\n      swap2\n      pop\n      pop\n      jump\t// out\n        /* \"#utility.yul\":841:958   */\n    tag_34:\n        /* \"#utility.yul\":950:951   */\n      0x00\n        /* \"#utility.yul\":947:948   */\n      dup1\n        /* \"#utility.yul\":940:952   */\n      revert\n        /* \"#utility.yul\":964:1081   */\n    tag_35:\n        /* \"#utility.yul\":1073:1074   */\n      0x00\n        /* \"#utility.yul\":1070:1071   */\n      dup1\n        /* \"#utility.yul\":1063:1075   */\n      revert\n        /* \"#utility.yul\":1087:1204   */\n    tag_36:\n        /* \"#utility.yul\":1196:1197   */\n      0x00\n        /* \"#utility.yul\":1193:1194   */\n      dup1\n        /* \"#utility.yul\":1186:1198   */\n      revert\n        /* \"#utility.yul\":1226:1793   */\n    tag_37:\n        /* \"#utility.yul\":1298:1306   */\n      0x00\n        /* \"#utility.yul\":1308:1314   */\n      dup1\n        /* \"#utility.yul\":1358:1361   */\n      dup4\n        /* \"#utility.yul\":1351:1355   */\n      0x1f\n        /* \"#utility.yul\":1343:1349   */\n      dup5\n        /* \"#utility.yul\":1339:1356   */\n      add\n        /* \"#utility.yul\":1335:1362   */\n      slt\n        /* \"#utility.yul\":1325:1447   */\n      tag_64\n      jumpi\n        /* \"#utility.yul\":1366:1445   */\n      tag_65\n      tag_34\n      jump\t// in\n    tag_65:\n        /* \"#utility.yul\":1325:1447   */\n    tag_64:\n        /* \"#utility.yul\":1479:1485   */\n      dup3\n        /* \"#utility.yul\":1466:1486   */\n      calldataload\n        /* \"#utility.yul\":1456:1486   */\n      swap1\n      pop\n        /* \"#utility.yul\":1509:1527   */\n      0xffffffffffffffff\n        /* \"#utility.yul\":1501:1507   */\n      dup2\n        /* \"#utility.yul\":1498:1528   */\n      gt\n        /* \"#utility.yul\":1495:1612   */\n      iszero\n      tag_66\n      jumpi\n        /* \"#utility.yul\":1531:1610   */\n      tag_67\n      tag_35\n      jump\t// in\n    tag_67:\n        /* \"#utility.yul\":1495:1612   */\n    tag_66:\n        /* \"#utility.yul\":1645:1649   */\n      0x20\n        /* \"#utility.yul\":1637:1643   */\n      dup4\n        /* \"#utility.yul\":1633:1650   */\n      add\n        /* \"#utility.yul\":1621:1650   */\n      swap2\n      pop\n        /* \"#utility.yul\":1699:1702   */\n      dup4\n        /* \"#utility.yul\":1691:1695   */\n      0x20\n        /* \"#utility.yul\":1683:1689   */\n      dup3\n        /* \"#utility.yul\":1679:1696   */\n      mul\n        /* \"#utility.yul\":1669:1677   */\n      dup4\n        /* \"#utility.yul\":1665:1697   */\n      add\n        /* \"#utility.yul\":1662:1703   */\n      gt\n        /* \"#utility.yul\":1659:1787   */\n      iszero\n      tag_68\n      jumpi\n        /* \"#utility.yul\":1706:1785   */\n      tag_69\n      tag_36\n      jump\t// in\n    tag_69:\n        /* \"#utility.yul\":1659:1787   */\n    tag_68:\n        /* \"#utility.yul\":1226:1793   */\n      swap3\n      pop\n      swap3\n      swap1\n      pop\n      jump\t// out\n        /* \"#utility.yul\":1799:2501   */\n    tag_7:\n        /* \"#utility.yul\":1893:1899   */\n      0x00\n        /* \"#utility.yul\":1901:1907   */\n      dup1\n        /* \"#utility.yul\":1909:1915   */\n      0x00\n        /* \"#utility.yul\":1958:1960   */\n      0x40\n        /* \"#utility.yul\":1946:1955   */\n      dup5\n        /* \"#utility.yul\":1937:1944   */\n      dup7\n        /* \"#utility.yul\":1933:1956   */\n      sub\n        /* \"#utility.yul\":1929:1961   */\n      slt\n        /* \"#utility.yul\":1926:2045   */\n      iszero\n      tag_71\n      jumpi\n        /* \"#utility.yul\":1964:2043   */\n      tag_72\n      tag_28\n      jump\t// in\n    tag_72:\n        /* \"#utility.yul\":1926:2045   */\n    tag_71:\n        /* \"#utility.yul\":2084:2085   */\n      0x00\n        /* \"#utility.yul\":2109:2162   */\n      tag_73\n        /* \"#utility.yul\":2154:2161   */\n      dup7\n        /* \"#utility.yul\":2145:2151   */\n      dup3\n        /* \"#utility.yul\":2134:2143   */\n      dup8\n        /* \"#utility.yul\":2130:2152   */\n      add\n        /* \"#utility.yul\":2109:2162   */\n      tag_33\n      jump\t// in\n    tag_73:\n        /* \"#utility.yul\":2099:2162   */\n      swap4\n      pop\n        /* \"#utility.yul\":2055:2172   */\n      pop\n        /* \"#utility.yul\":2239:2241   */\n      0x20\n        /* \"#utility.yul\":2228:2237   */\n      dup5\n        /* \"#utility.yul\":2224:2242   */\n      add\n        /* \"#utility.yul\":2211:2243   */\n      calldataload\n        /* \"#utility.yul\":2270:2288   */\n      0xffffffffffffffff\n        /* \"#utility.yul\":2262:2268   */\n      dup2\n        /* \"#utility.yul\":2259:2289   */\n      gt\n        /* \"#utility.yul\":2256:2373   */\n      iszero\n      tag_74\n      jumpi\n        /* \"#utility.yul\":2292:2371   */\n      tag_75\n      tag_29\n      jump\t// in\n    tag_75:\n        /* \"#utility.yul\":2256:2373   */\n    tag_74:\n        /* \"#utility.yul\":2405:2484   */\n      tag_76\n        /* \"#utility.yul\":2476:2483   */\n      dup7\n        /* \"#utility.yul\":2467:2473   */\n      dup3\n        /* \"#utility.yul\":2456:2465   */\n      dup8\n        /* \"#utility.yul\":2452:2474   */\n      add\n        /* \"#utility.yul\":2405:2484   */\n      tag_37\n      jump\t// in\n    tag_76:\n        /* \"#utility.yul\":2387:2484   */\n      swap3\n      pop\n      swap3\n      pop\n        /* \"#utility.yul\":2182:2494   */\n      pop\n        /* \"#utility.yul\":1799:2501   */\n      swap3\n      pop\n      swap3\n      pop\n      swap3\n      jump\t// out\n        /* \"#utility.yul\":2507:2567   */\n    tag_38:\n        /* \"#utility.yul\":2535:2538   */\n      0x00\n        /* \"#utility.yul\":2556:2561   */\n      dup2\n        /* \"#utility.yul\":2549:2561   */\n      swap1\n      pop\n        /* \"#utility.yul\":2507:2567   */\n      swap2\n      swap1\n      pop\n      jump\t// out\n        /* \"#utility.yul\":2573:2715   */\n    tag_39:\n        /* \"#utility.yul\":2623:2632   */\n      0x00\n        /* \"#utility.yul\":2656:2709   */\n      tag_79\n        /* \"#utility.yul\":2674:2708   */\n      tag_80\n        /* \"#utility.yul\":2683:2707   */\n      tag_81\n        /* \"#utility.yul\":2701:2706   */\n      dup5\n        /* \"#utility.yul\":2683:2707   */\n      tag_30\n      jump\t// in\n    tag_81:\n        /* \"#utility.yul\":2674:2708   */\n      tag_38\n      jump\t// in\n    tag_80:\n        /* \"#utility.yul\":2656:2709   */\n      tag_30\n      jump\t// in\n    tag_79:\n        /* \"#utility.yul\":2643:2709   */\n      swap1\n      pop\n        /* \"#utility.yul\":2573:2715   */\n      swap2\n      swap1\n      pop\n      jump\t// out\n        /* \"#utility.yul\":2721:2847   */\n    tag_40:\n        /* \"#utility.yul\":2771:2780   */\n      0x00\n        /* \"#utility.yul\":2804:2841   */\n      tag_83\n        /* \"#utility.yul\":2835:2840   */\n      dup3\n        /* \"#utility.yul\":2804:2841   */\n      tag_39\n      jump\t// in\n    tag_83:\n        /* \"#utility.yul\":2791:2841   */\n      swap1\n      pop\n        /* \"#utility.yul\":2721:2847   */\n      swap2\n      swap1\n      pop\n      jump\t// out\n        /* \"#utility.yul\":2853:2997   */\n    tag_41:\n        /* \"#utility.yul\":2921:2930   */\n      0x00\n        /* \"#utility.yul\":2954:2991   */\n      tag_85\n        /* \"#utility.yul\":2985:2990   */\n      dup3\n        /* \"#utility.yul\":2954:2991   */\n      tag_40\n      jump\t// in\n    tag_85:\n        /* \"#utility.yul\":2941:2991   */\n      swap1\n      pop\n        /* \"#utility.yul\":2853:2997   */\n      swap2\n      swap1\n      pop\n      jump\t// out\n        /* \"#utility.yul\":3003:3170   */\n    tag_42:\n        /* \"#utility.yul\":3108:3163   */\n      tag_87\n        /* \"#utility.yul\":3157:3162   */\n      dup2\n        /* \"#utility.yul\":3108:3163   */\n      tag_41\n      jump\t// in\n    tag_87:\n        /* \"#utility.yul\":3103:3106   */\n      dup3\n        /* \"#utility.yul\":3096:3164   */\n      mstore\n        /* \"#utility.yul\":3003:3170   */\n      pop\n      pop\n      jump\t// out\n        /* \"#utility.yul\":3176:3434   */\n    tag_12:\n        /* \"#utility.yul\":3287:3291   */\n      0x00\n        /* \"#utility.yul\":3325:3327   */\n      0x20\n        /* \"#utility.yul\":3314:3323   */\n      dup3\n        /* \"#utility.yul\":3310:3328   */\n      add\n        /* \"#utility.yul\":3302:3328   */\n      swap1\n      pop\n        /* \"#utility.yul\":3338:3427   */\n      tag_89\n        /* \"#utility.yul\":3424:3425   */\n      0x00\n        /* \"#utility.yul\":3413:3422   */\n      dup4\n        /* \"#utility.yul\":3409:3426   */\n      add\n        /* \"#utility.yul\":3400:3406   */\n      dup5\n        /* \"#utility.yul\":3338:3427   */\n      tag_42\n      jump\t// in\n    tag_89:\n        /* \"#utility.yul\":3176:3434   */\n      swap3\n      swap2\n      pop\n      pop\n      jump\t// out\n        /* \"#utility.yul\":3440:3620   */\n    tag_19:\n        /* \"#utility.yul\":3488:3565   */\n      0x4e487b7100000000000000000000000000000000000000000000000000000000\n        /* \"#utility.yul\":3485:3486   */\n      0x00\n        /* \"#utility.yul\":3478:3566   */\n      mstore\n        /* \"#utility.yul\":3585:3589   */\n      0x32\n        /* \"#utility.yul\":3582:3583   */\n      0x04\n        /* \"#utility.yul\":3575:3590   */\n      mstore\n        /* \"#utility.yul\":3609:3613   */\n      0x24\n        /* \"#utility.yul\":3606:3607   */\n      0x00\n        /* \"#utility.yul\":3599:3614   */\n      revert\n        /* \"#utility.yul\":3626:3715   */\n    tag_43:\n        /* \"#utility.yul\":3662:3669   */\n      0x00\n        /* \"#utility.yul\":3702:3708   */\n      0xffff\n        /* \"#utility.yul\":3695:3700   */\n      dup3\n        /* \"#utility.yul\":3691:3709   */\n      and\n        /* \"#utility.yul\":3680:3709   */\n      swap1\n      pop\n        /* \"#utility.yul\":3626:3715   */\n      swap2\n      swap1\n      pop\n      jump\t// out\n        /* \"#utility.yul\":3721:3841   */\n    tag_44:\n        /* \"#utility.yul\":3793:3816   */\n      tag_93\n        /* \"#utility.yul\":3810:3815   */\n      dup2\n        /* \"#utility.yul\":3793:3816   */\n      tag_43\n      jump\t// in\n    tag_93:\n        /* \"#utility.yul\":3786:3791   */\n      dup2\n        /* \"#utility.yul\":3783:3817   */\n      eq\n        /* \"#utility.yul\":3773:3835   */\n      tag_94\n      jumpi\n        /* \"#utility.yul\":3831:3832   */\n      0x00\n        /* \"#utility.yul\":3828:3829   */\n      dup1\n        /* \"#utility.yul\":3821:3833   */\n      revert\n        /* \"#utility.yul\":3773:3835   */\n    tag_94:\n        /* \"#utility.yul\":3721:3841   */\n      pop\n      jump\t// out\n        /* \"#utility.yul\":3847:3984   */\n    tag_45:\n        /* \"#utility.yul\":3892:3897   */\n      0x00\n        /* \"#utility.yul\":3930:3936   */\n      dup2\n        /* \"#utility.yul\":3917:3937   */\n      calldataload\n        /* \"#utility.yul\":3908:3937   */\n      swap1\n      pop\n        /* \"#utility.yul\":3946:3978   */\n      tag_96\n        /* \"#utility.yul\":3972:3977   */\n      dup2\n        /* \"#utility.yul\":3946:3978   */\n      tag_44\n      jump\t// in\n    tag_96:\n        /* \"#utility.yul\":3847:3984   */\n      swap3\n      swap2\n      pop\n      pop\n      jump\t// out\n        /* \"#utility.yul\":3990:4317   */\n    tag_21:\n        /* \"#utility.yul\":4048:4054   */\n      0x00\n        /* \"#utility.yul\":4097:4099   */\n      0x20\n        /* \"#utility.yul\":4085:4094   */\n      dup3\n        /* \"#utility.yul\":4076:4083   */\n      dup5\n        /* \"#utility.yul\":4072:4095   */\n      sub\n        /* \"#utility.yul\":4068:4100   */\n      slt\n        /* \"#utility.yul\":4065:4184   */\n      iszero\n      tag_98\n      jumpi\n        /* \"#utility.yul\":4103:4182   */\n      tag_99\n      tag_28\n      jump\t// in\n    tag_99:\n        /* \"#utility.yul\":4065:4184   */\n    tag_98:\n        /* \"#utility.yul\":4223:4224   */\n      0x00\n        /* \"#utility.yul\":4248:4300   */\n      tag_100\n        /* \"#utility.yul\":4292:4299   */\n      dup5\n        /* \"#utility.yul\":4283:4289   */\n      dup3\n        /* \"#utility.yul\":4272:4281   */\n      dup6\n        /* \"#utility.yul\":4268:4290   */\n      add\n        /* \"#utility.yul\":4248:4300   */\n      tag_45\n      jump\t// in\n    tag_100:\n        /* \"#utility.yul\":4238:4300   */\n      swap2\n      pop\n        /* \"#utility.yul\":4194:4310   */\n      pop\n        /* \"#utility.yul\":3990:4317   */\n      swap3\n      swap2\n      pop\n      pop\n      jump\t// out\n        /* \"#utility.yul\":4323:4441   */\n    tag_46:\n        /* \"#utility.yul\":4410:4434   */\n      tag_102\n        /* \"#utility.yul\":4428:4433   */\n      dup2\n        /* \"#utility.yul\":4410:4434   */\n      tag_31\n      jump\t// in\n    tag_102:\n        /* \"#utility.yul\":4405:4408   */\n      dup3\n        /* \"#utility.yul\":4398:4435   */\n      mstore\n        /* \"#utility.yul\":4323:4441   */\n      pop\n      pop\n      jump\t// out\n        /* \"#utility.yul\":4447:4562   */\n    tag_47:\n        /* \"#utility.yul\":4532:4555   */\n      tag_104\n        /* \"#utility.yul\":4549:4554   */\n      dup2\n        /* \"#utility.yul\":4532:4555   */\n      tag_43\n      jump\t// in\n    tag_104:\n        /* \"#utility.yul\":4527:4530   */\n      dup3\n        /* \"#utility.yul\":4520:4556   */\n      mstore\n        /* \"#utility.yul\":4447:4562   */\n      pop\n      pop\n      jump\t// out\n        /* \"#utility.yul\":4568:4896   */\n    tag_23:\n        /* \"#utility.yul\":4687:4691   */\n      0x00\n        /* \"#utility.yul\":4725:4727   */\n      0x40\n        /* \"#utility.yul\":4714:4723   */\n      dup3\n        /* \"#utility.yul\":4710:4728   */\n      add\n        /* \"#utility.yul\":4702:4728   */\n      swap1\n      pop\n        /* \"#utility.yul\":4738:4809   */\n      tag_106\n        /* \"#utility.yul\":4806:4807   */\n      0x00\n        /* \"#utility.yul\":4795:4804   */\n      dup4\n        /* \"#utility.yul\":4791:4808   */\n      add\n        /* \"#utility.yul\":4782:4788   */\n      dup6\n        /* \"#utility.yul\":4738:4809   */\n      tag_46\n      jump\t// in\n    tag_106:\n        /* \"#utility.yul\":4819:4889   */\n      tag_107\n        /* \"#utility.yul\":4885:4887   */\n      0x20\n        /* \"#utility.yul\":4874:4883   */\n      dup4\n        /* \"#utility.yul\":4870:4888   */\n      add\n        /* \"#utility.yul\":4861:4867   */\n      dup5\n        /* \"#utility.yul\":4819:4889   */\n      tag_47\n      jump\t// in\n    tag_107:\n        /* \"#utility.yul\":4568:4896   */\n      swap4\n      swap3\n      pop\n      pop\n      pop\n      jump\t// out\n\n    auxdata: 0xa264697066735822122040a3d7ffb3d409e8f498728e08e129a05c51c7f8cd8db9f0a68c95de7d42a6a864736f6c634300081a0033\n}\n",
				"bytecode": {
					"linkReferences": {},
					"object": "608060405234801561000f575f80fd5b5060405161051e38038061051e833981810160405281019061003191906100e5565b805f806101000a81548173ffffffffffffffffffffffffffffffffffffffff021916908373ffffffffffffffffffffffffffffffffffffffff16021790555050610110565b5f80fd5b5f73ffffffffffffffffffffffffffffffffffffffff82169050919050565b5f6100a38261007a565b9050919050565b5f6100b482610099565b9050919050565b6100c4816100aa565b81146100ce575f80fd5b50565b5f815190506100df816100bb565b92915050565b5f602082840312156100fa576100f9610076565b5b5f610107848285016100d1565b91505092915050565b6104018061011d5f395ff3fe608060405234801561000f575f80fd5b5060043610610034575f3560e01c8063cc42a67014610038578063d4b8399214610054575b5f80fd5b610052600480360381019061004d9190610226565b610072565b005b61005c610140565b60405161006991906102de565b60405180910390f35b5f5b8282905081101561013a575f8054906101000a900473ffffffffffffffffffffffffffffffffffffffff1673ffffffffffffffffffffffffffffffffffffffff166347774386858585858181106100ce576100cd6102f7565b5b90506020020160208101906100e3919061035b565b6040518363ffffffff1660e01b81526004016101009291906103a4565b5f604051808303815f87803b158015610117575f80fd5b505af1158015610129573d5f803e3d5ffd5b505050508080600101915050610074565b50505050565b5f8054906101000a900473ffffffffffffffffffffffffffffffffffffffff1681565b5f80fd5b5f80fd5b5f73ffffffffffffffffffffffffffffffffffffffff82169050919050565b5f6101948261016b565b9050919050565b6101a48161018a565b81146101ae575f80fd5b50565b5f813590506101bf8161019b565b92915050565b5f80fd5b5f80fd5b5f80fd5b5f8083601f8401126101e6576101e56101c5565b5b8235905067ffffffffffffffff811115610203576102026101c9565b5b60208301915083602082028301111561021f5761021e6101cd565b5b9250929050565b5f805f6040848603121561023d5761023c610163565b5b5f61024a868287016101b1565b935050602084013567ffffffffffffffff81111561026b5761026a610167565b5b610277868287016101d1565b92509250509250925092565b5f819050919050565b5f6102a66102a161029c8461016b565b610283565b61016b565b9050919050565b5f6102b78261028c565b9050919050565b5f6102c8826102ad565b9050919050565b6102d8816102be565b82525050565b5f6020820190506102f15f8301846102cf565b92915050565b7f4e487b71000000000000000000000000000000000000000000000000000000005f52603260045260245ffd5b5f61ffff82169050919050565b61033a81610324565b8114610344575f80fd5b50565b5f8135905061035581610331565b92915050565b5f602082840312156103705761036f610163565b5b5f61037d84828501610347565b91505092915050565b61038f8161018a565b82525050565b61039e81610324565b82525050565b5f6040820190506103b75f830185610386565b6103c46020830184610395565b939250505056fea264697066735822122040a3d7ffb3d409e8f498728e08e129a05c51c7f8cd8db9f0a68c95de7d42a6a864736f6c634300081a0033",
					"opcodes": "PUSH1 0x80 PUSH1 0x40 MSTORE CALLVALUE DUP1 ISZERO PUSH2 0xF JUMPI PUSH0 DUP1 REVERT JUMPDEST POP PUSH1 0x40 MLOAD PUSH2 0x51E CODESIZE SUB DUP1 PUSH2 0x51E DUP4 CODECOPY DUP2 DUP2 ADD PUSH1 0x40 MSTORE DUP2 ADD SWAP1 PUSH2 0x31 SWAP2 SWAP1 PUSH2 0xE5 JUMP JUMPDEST DUP1 PUSH0 DUP1 PUSH2 0x100 EXP DUP2 SLOAD DUP2 PUSH20 0xFFFFFFFFFFFFFFFFFFFFFFFFFFFFFFFFFFFFFFFF MUL NOT AND SWAP1 DUP4 PUSH20 0xFFFFFFFFFFFFFFFFFFFFFFFFFFFFFFFFFFFFFFFF AND MUL OR SWAP1 SSTORE POP POP PUSH2 0x110 JUMP JUMPDEST PUSH0 DUP1 REVERT JUMPDEST PUSH0 PUSH20 0xFFFFFFFFFFFFFFFFFFFFFFFFFFFFFFFFFFFFFFFF DUP3 AND SWAP1 POP SWAP2 SWAP1 POP JUMP JUMPDEST PUSH0 PUSH2 0xA3 DUP3 PUSH2 0x7A JUMP JUMPDEST SWAP1 POP SWAP2 SWAP1 POP JUMP JUMPDEST PUSH0 PUSH2 0xB4 DUP3 PUSH2 0x99 JUMP JUMPDEST SWAP1 POP SWAP2 SWAP1 POP JUMP JUMPDEST PUSH2 0xC4 DUP2 PUSH2 0xAA JUMP JUMPDEST DUP2 EQ PUSH2 0xCE JUMPI PUSH0 DUP1 REVERT JUMPDEST POP JUMP JUMPDEST PUSH0 DUP2 MLOAD SWAP1 POP PUSH2 0xDF DUP2 PUSH2 0xBB JUMP JUMPDEST SWAP3 SWAP2 POP POP JUMP JUMPDEST PUSH0 PUSH1 0x20 DUP3 DUP5 SUB SLT ISZERO PUSH2 0xFA JUMPI PUSH2 0xF9 PUSH2 0x76 JUMP JUMPDEST JUMPDEST PUSH0 PUSH2 0x107 DUP5 DUP3 DUP6 ADD PUSH2 0xD1 JUMP JUMPDEST SWAP2 POP POP SWAP3 SWAP2 POP POP JUMP JUMPDEST PUSH2 0x401 DUP1 PUSH2 0x11D PUSH0 CODECOPY PUSH0 RETURN INVALID PUSH1 0x80 PUSH1 0x40 MSTORE CALLVALUE DUP1 ISZERO PUSH2 0xF JUMPI PUSH0 DUP1 REVERT JUMPDEST POP PUSH1 0x4 CALLDATASIZE LT PUSH2 0x34 JUMPI PUSH0 CALLDATALOAD PUSH1 0xE0 SHR DUP1 PUSH4 0xCC42A670 EQ PUSH2 0x38 JUMPI DUP1 PUSH4 0xD4B83992 EQ PUSH2 0x54 JUMPI JUMPDEST PUSH0 DUP1 REVERT JUMPDEST PUSH2 0x52 PUSH1 0x4 DUP1 CALLDATASIZE SUB DUP2 ADD SWAP1 PUSH2 0x4D SWAP2 SWAP1 PUSH2 0x226 JUMP JUMPDEST PUSH2 0x72 JUMP JUMPDEST STOP JUMPDEST PUSH2 0x5C PUSH2 0x140 JUMP JUMPDEST PUSH1 0x40 MLOAD PUSH2 0x69 SWAP2 SWAP1 PUSH2 0x2DE JUMP JUMPDEST PUSH1 0x40 MLOAD DUP1 SWAP2 SUB SWAP1 RETURN JUMPDEST PUSH0 JUMPDEST DUP3 DUP3 SWAP1 POP DUP2 LT ISZERO PUSH2 0x13A JUMPI PUSH0 DUP1 SLOAD SWAP1 PUSH2 0x100 EXP SWAP1 DIV PUSH20 0xFFFFFFFFFFFFFFFFFFFFFFFFFFFFFFFFFFFFFFFF AND PUSH20 0xFFFFFFFFFFFFFFFFFFFFFFFFFFFFFFFFFFFFFFFF AND PUSH4 0x47774386 DUP6 DUP6 DUP6 DUP6 DUP2 DUP2 LT PUSH2 0xCE JUMPI PUSH2 0xCD PUSH2 0x2F7 JUMP JUMPDEST JUMPDEST SWAP1 POP PUSH1 0x20 MUL ADD PUSH1 0x20 DUP2 ADD SWAP1 PUSH2 0xE3 SWAP2 SWAP1 PUSH2 0x35B JUMP JUMPDEST PUSH1 0x40 MLOAD DUP4 PUSH4 0xFFFFFFFF AND PUSH1 0xE0 SHL DUP2 MSTORE PUSH1 0x4 ADD PUSH2 0x100 SWAP3 SWAP2 SWAP1 PUSH2 0x3A4 JUMP JUMPDEST PUSH0 PUSH1 0x40 MLOAD DUP1 DUP4 SUB DUP2 PUSH0 DUP8 DUP1 EXTCODESIZE ISZERO DUP1 ISZERO PUSH2 0x117 JUMPI PUSH0 DUP1 REVERT JUMPDEST POP GAS CALL ISZERO DUP1 ISZERO PUSH2 0x129 JUMPI RETURNDATASIZE PUSH0 DUP1 RETURNDATACOPY RETURNDATASIZE PUSH0 REVERT JUMPDEST POP POP POP POP DUP1 DUP1 PUSH1 0x1 ADD SWAP2 POP POP PUSH2 0x74 JUMP JUMPDEST POP POP POP POP JUMP JUMPDEST PUSH0 DUP1 SLOAD SWAP1 PUSH2 0x100 EXP SWAP1 DIV PUSH20 0xFFFFFFFFFFFFFFFFFFFFFFFFFFFFFFFFFFFFFFFF AND DUP2 JUMP JUMPDEST PUSH0 DUP1 REVERT JUMPDEST PUSH0 DUP1 REVERT JUMPDEST PUSH0 PUSH20 0xFFFFFFFFFFFFFFFFFFFFFFFFFFFFFFFFFFFFFFFF DUP3 AND SWAP1 POP SWAP2 SWAP1 POP JUMP JUMPDEST PUSH0 PUSH2 0x194 DUP3 PUSH2 0x16B JUMP JUMPDEST SWAP1 POP SWAP2 SWAP1 POP JUMP JUMPDEST PUSH2 0x1A4 DUP2 PUSH2 0x18A JUMP JUMPDEST DUP2 EQ PUSH2 0x1AE JUMPI PUSH0 DUP1 REVERT JUMPDEST POP JUMP JUMPDEST PUSH0 DUP2 CALLDATALOAD SWAP1 POP PUSH2 0x1BF DUP2 PUSH2 0x19B JUMP JUMPDEST SWAP3 SWAP2 POP POP JUMP JUMPDEST PUSH0 DUP1 REVERT JUMPDEST PUSH0 DUP1 REVERT JUMPDEST PUSH0 DUP1 REVERT JUMPDEST PUSH0 DUP1 DUP4 PUSH1 0x1F DUP5 ADD SLT PUSH2 0x1E6 JUMPI PUSH2 0x1E5 PUSH2 0x1C5 JUMP JUMPDEST JUMPDEST DUP3 CALLDATALOAD SWAP1 POP PUSH8 0xFFFFFFFFFFFFFFFF DUP2 GT ISZERO PUSH2 0x203 JUMPI PUSH2 0x202 PUSH2 0x1C9 JUMP JUMPDEST JUMPDEST PUSH1 0x20 DUP4 ADD SWAP2 POP DUP4 PUSH1 0x20 DUP3 MUL DUP4 ADD GT ISZERO PUSH2 0x21F JUMPI PUSH2 0x21E PUSH2 0x1CD JUMP JUMPDEST JUMPDEST SWAP3 POP SWAP3 SWAP1 POP JUMP JUMPDEST PUSH0 DUP1 PUSH0 PUSH1 0x40 DUP5 DUP7 SUB SLT ISZERO PUSH2 0x23D JUMPI PUSH2 0x23C PUSH2 0x163 JUMP JUMPDEST JUMPDEST PUSH0 PUSH2 0x24A DUP7 DUP3 DUP8 ADD PUSH2 0x1B1 JUMP JUMPDEST SWAP4 POP POP PUSH1 0x20 DUP5 ADD CALLDATALOAD PUSH8 0xFFFFFFFFFFFFFFFF DUP2 GT ISZERO PUSH2 0x26B JUMPI PUSH2 0x26A PUSH2 0x167 JUMP JUMPDEST JUMPDEST PUSH2 0x277 DUP7 DUP3 DUP8 ADD PUSH2 0x1D1 JUMP JUMPDEST SWAP3 POP SWAP3 POP POP SWAP3 POP SWAP3 POP SWAP3 JUMP JUMPDEST PUSH0 DUP2 SWAP1 POP SWAP2 SWAP1 POP JUMP JUMPDEST PUSH0 PUSH2 0x2A6 PUSH2 0x2A1 PUSH2 0x29C DUP5 PUSH2 0x16B JUMP JUMPDEST PUSH2 0x283 JUMP JUMPDEST PUSH2 0x16B JUMP JUMPDEST SWAP1 POP SWAP2 SWAP1 POP JUMP JUMPDEST PUSH0 PUSH2 0x2B7 DUP3 PUSH2 0x28C JUMP JUMPDEST SWAP1 POP SWAP2 SWAP1 POP JUMP JUMPDEST PUSH0 PUSH2 0x2C8 DUP3 PUSH2 0x2AD JUMP JUMPDEST SWAP1 POP SWAP2 SWAP1 POP JUMP JUMPDEST PUSH2 0x2D8 DUP2 PUSH2 0x2BE JUMP JUMPDEST DUP3 MSTORE POP POP JUMP JUMPDEST PUSH0 PUSH1 0x20 DUP3 ADD SWAP1 POP PUSH2 0x2F1 PUSH0 DUP4 ADD DUP5 PUSH2 0x2CF JUMP JUMPDEST SWAP3 SWAP2 POP POP JUMP JUMPDEST PUSH32 0x4E487B7100000000000000000000000000000000000000000000000000000000 PUSH0 MSTORE PUSH1 0x32 PUSH1 0x4 MSTORE PUSH1 0x24 PUSH0 REVERT JUMPDEST PUSH0 PUSH2 0xFFFF DUP3 AND SWAP1 POP SWAP2 SWAP1 POP JUMP JUMPDEST PUSH2 0x33A DUP2 PUSH2 0x324 JUMP JUMPDEST DUP2 EQ PUSH2 0x344 JUMPI PUSH0 DUP1 REVERT JUMPDEST POP JUMP JUMPDEST PUSH0 DUP2 CALLDATALOAD SWAP1 POP PUSH2 0x355 DUP2 PUSH2 0x331 JUMP JUMPDEST SWAP3 SWAP2 POP POP JUMP JUMPDEST PUSH0 PUSH1 0x20 DUP3 DUP5 SUB SLT ISZERO PUSH2 0x370 JUMPI PUSH2 0x36F PUSH2 0x163 JUMP JUMPDEST JUMPDEST PUSH0 PUSH2 0x37D DUP5 DUP3 DUP6 ADD PUSH2 0x347 JUMP JUMPDEST SWAP2 POP POP SWAP3 SWAP2 POP POP JUMP JUMPDEST PUSH2 0x38F DUP2 PUSH2 0x18A JUMP JUMPDEST DUP3 MSTORE POP POP JUMP JUMPDEST PUSH2 0x39E DUP2 PUSH2 0x324 JUMP JUMPDEST DUP3 MSTORE POP POP JUMP JUMPDEST PUSH0 PUSH1 0x40 DUP3 ADD SWAP1 POP PUSH2 0x3B7 PUSH0 DUP4 ADD DUP6 PUSH2 0x386 JUMP JUMPDEST PUSH2 0x3C4 PUSH1 0x20 DUP4 ADD DUP5 PUSH2 0x395 JUMP JUMPDEST SWAP4 SWAP3 POP POP POP JUMP INVALID LOG2 PUSH5 0x6970667358 0x22 SLT KECCAK256 BLOCKHASH LOG3 0xD7 SELFDESTRUCT 0xB3 0xD4 MULMOD 0xE8 DELEGATECALL SWAP9 PUSH19 0x8E08E129A05C51C7F8CD8DB9F0A68C95DE7D42 0xA6 0xA8 PUSH5 0x736F6C6343 STOP ADDMOD BYTE STOP CALLER "
				},
				"gasEstimates": {
					"creation": {
						"codeDepositCost": "205000",
						"executionCost": "infinite",
						"totalCost": "infinite"
					},
					"external": {
						"floodScan(address,uint16[])": "infinite",
						"target()": "infinite"
					}
				},
				"methodIdentifiers": {
					"floodScan(address,uint16[])": "cc42a670",
					"target()": "d4b83992"
				}
			},
			"storageLayout": {
				"storage": [
					{
						"astId": 55,
						"contract": "U/UDP Scan/UDP Scan.sol:Attack_UDPScan",
						"label": "target",
						"offset": 0,
						"slot": "0",
						"type": "t_contract(UDPScanVuln)51"
					}
				],
				"types": {
					"t_contract(UDPScanVuln)51": {
						"encoding": "inplace",
						"label": "contract UDPScanVuln",
						"numberOfBytes": "20"
					}
				}
			},
			"userdoc": {
				"kind": "user",
				"methods": {
					"floodScan(address,uint16[])": {
						"notice": "flood‑scan multiple ports"
					}
				},
				"notice": "───────────────────────────────────────────────────────────────────────────── 2) ATTACK STUB: flood‑scan a range of ports    • AttackType: SweepFlood ─────────────────────────────────────────────────────────────────────────────",
				"version": 1
			}
		}
	}
}