{
	"D/Dynamic Link Library/Dynamic Link Library.sol": {
		"DLLVuln": {
			"abi": [
				{
					"anonymous": false,
					"inputs": [
						{
							"indexed": true,
							"internalType": "address",
							"name": "who",
							"type": "address"
						},
						{
							"indexed": false,
							"internalType": "string",
							"name": "path",
							"type": "string"
						},
						{
							"indexed": false,
							"internalType": "address",
							"name": "lib",
							"type": "address"
						},
						{
							"indexed": false,
							"internalType": "enum DynamicLinkLibraryAttackType",
							"name": "attack",
							"type": "uint8"
						}
					],
					"name": "LibraryLoaded",
					"type": "event"
				},
				{
					"inputs": [
						{
							"internalType": "string",
							"name": "",
							"type": "string"
						}
					],
					"name": "libraries",
					"outputs": [
						{
							"internalType": "address",
							"name": "",
							"type": "address"
						}
					],
					"stateMutability": "view",
					"type": "function"
				},
				{
					"inputs": [
						{
							"internalType": "string",
							"name": "path",
							"type": "string"
						},
						{
							"internalType": "address",
							"name": "lib",
							"type": "address"
						}
					],
					"name": "loadLibrary",
					"outputs": [],
					"stateMutability": "nonpayable",
					"type": "function"
				}
			],
			"devdoc": {
				"kind": "dev",
				"methods": {},
				"version": 1
			},
			"evm": {
				"assembly": "    /* \"D/Dynamic Link Library/Dynamic Link Library.sol\":1070:1572  contract DLLVuln {... */\n  mstore(0x40, 0x80)\n  callvalue\n  dup1\n  iszero\n  tag_1\n  jumpi\n  0x00\n  dup1\n  revert\ntag_1:\n  pop\n  dataSize(sub_0)\n  dup1\n  dataOffset(sub_0)\n  0x00\n  codecopy\n  0x00\n  return\nstop\n\nsub_0: assembly {\n        /* \"D/Dynamic Link Library/Dynamic Link Library.sol\":1070:1572  contract DLLVuln {... */\n      mstore(0x40, 0x80)\n      callvalue\n      dup1\n      iszero\n      tag_1\n      jumpi\n      0x00\n      dup1\n      revert\n    tag_1:\n      pop\n      jumpi(tag_2, lt(calldatasize, 0x04))\n      shr(0xe0, calldataload(0x00))\n      dup1\n      0x21851b7a\n      eq\n      tag_3\n      jumpi\n      dup1\n      0x5aeada2b\n      eq\n      tag_4\n      jumpi\n    tag_2:\n      0x00\n      dup1\n      revert\n        /* \"D/Dynamic Link Library/Dynamic Link Library.sol\":1093:1136  mapping(string => address) public libraries */\n    tag_3:\n      tag_5\n      0x04\n      dup1\n      calldatasize\n      sub\n      dup2\n      add\n      swap1\n      tag_6\n      swap2\n      swap1\n      tag_7\n      jump\t// in\n    tag_6:\n      tag_8\n      jump\t// in\n    tag_5:\n      mload(0x40)\n      tag_9\n      swap2\n      swap1\n      tag_10\n      jump\t// in\n    tag_9:\n      mload(0x40)\n      dup1\n      swap2\n      sub\n      swap1\n      return\n        /* \"D/Dynamic Link Library/Dynamic Link Library.sol\":1311:1570  function loadLibrary(string calldata path, address lib) external {... */\n    tag_4:\n      tag_11\n      0x04\n      dup1\n      calldatasize\n      sub\n      dup2\n      add\n      swap1\n      tag_12\n      swap2\n      swap1\n      tag_13\n      jump\t// in\n    tag_12:\n      tag_14\n      jump\t// in\n    tag_11:\n      stop\n        /* \"D/Dynamic Link Library/Dynamic Link Library.sol\":1093:1136  mapping(string => address) public libraries */\n    tag_8:\n      0x00\n      dup2\n      dup1\n      mload\n      0x20\n      dup2\n      add\n      dup3\n      add\n      dup1\n      mload\n      dup5\n      dup3\n      mstore\n      0x20\n      dup4\n      add\n      0x20\n      dup6\n      add\n      keccak256\n      dup2\n      dup4\n      mstore\n      dup1\n      swap6\n      pop\n      pop\n      pop\n      pop\n      pop\n      pop\n      0x00\n      swap2\n      pop\n      sload\n      swap1\n      0x0100\n      exp\n      swap1\n      div\n      0xffffffffffffffffffffffffffffffffffffffff\n      and\n      dup2\n      jump\t// out\n        /* \"D/Dynamic Link Library/Dynamic Link Library.sol\":1311:1570  function loadLibrary(string calldata path, address lib) external {... */\n    tag_14:\n        /* \"D/Dynamic Link Library/Dynamic Link Library.sol\":1466:1469  lib */\n      dup1\n        /* \"D/Dynamic Link Library/Dynamic Link Library.sol\":1448:1457  libraries */\n      0x00\n        /* \"D/Dynamic Link Library/Dynamic Link Library.sol\":1458:1462  path */\n      dup5\n      dup5\n        /* \"D/Dynamic Link Library/Dynamic Link Library.sol\":1448:1463  libraries[path] */\n      mload(0x40)\n      tag_16\n      swap3\n      swap2\n      swap1\n      tag_17\n      jump\t// in\n    tag_16:\n      swap1\n      dup2\n      mstore\n      0x20\n      add\n      mload(0x40)\n      dup1\n      swap2\n      sub\n      swap1\n      keccak256\n      0x00\n        /* \"D/Dynamic Link Library/Dynamic Link Library.sol\":1448:1469  libraries[path] = lib */\n      0x0100\n      exp\n      dup2\n      sload\n      dup2\n      0xffffffffffffffffffffffffffffffffffffffff\n      mul\n      not\n      and\n      swap1\n      dup4\n      0xffffffffffffffffffffffffffffffffffffffff\n      and\n      mul\n      or\n      swap1\n      sstore\n      pop\n        /* \"D/Dynamic Link Library/Dynamic Link Library.sol\":1498:1508  msg.sender */\n      caller\n        /* \"D/Dynamic Link Library/Dynamic Link Library.sol\":1484:1563  LibraryLoaded(msg.sender, path, lib, DynamicLinkLibraryAttackType.DLLInjection) */\n      0xffffffffffffffffffffffffffffffffffffffff\n      and\n      0xd477ea6b1e623bd0fb7ee4281a3d6c60aadc66677a07c44145e0d8e40fa97a15\n        /* \"D/Dynamic Link Library/Dynamic Link Library.sol\":1510:1514  path */\n      dup5\n      dup5\n        /* \"D/Dynamic Link Library/Dynamic Link Library.sol\":1516:1519  lib */\n      dup5\n        /* \"D/Dynamic Link Library/Dynamic Link Library.sol\":1521:1562  DynamicLinkLibraryAttackType.DLLInjection */\n      0x00\n        /* \"D/Dynamic Link Library/Dynamic Link Library.sol\":1484:1563  LibraryLoaded(msg.sender, path, lib, DynamicLinkLibraryAttackType.DLLInjection) */\n      mload(0x40)\n      tag_18\n      swap5\n      swap4\n      swap3\n      swap2\n      swap1\n      tag_19\n      jump\t// in\n    tag_18:\n      mload(0x40)\n      dup1\n      swap2\n      sub\n      swap1\n      log2\n        /* \"D/Dynamic Link Library/Dynamic Link Library.sol\":1311:1570  function loadLibrary(string calldata path, address lib) external {... */\n      pop\n      pop\n      pop\n      jump\t// out\n        /* \"#utility.yul\":7:82   */\n    tag_20:\n        /* \"#utility.yul\":40:46   */\n      0x00\n        /* \"#utility.yul\":73:75   */\n      0x40\n        /* \"#utility.yul\":67:76   */\n      mload\n        /* \"#utility.yul\":57:76   */\n      swap1\n      pop\n        /* \"#utility.yul\":7:82   */\n      swap1\n      jump\t// out\n        /* \"#utility.yul\":88:205   */\n    tag_21:\n        /* \"#utility.yul\":197:198   */\n      0x00\n        /* \"#utility.yul\":194:195   */\n      dup1\n        /* \"#utility.yul\":187:199   */\n      revert\n        /* \"#utility.yul\":211:328   */\n    tag_22:\n        /* \"#utility.yul\":320:321   */\n      0x00\n        /* \"#utility.yul\":317:318   */\n      dup1\n        /* \"#utility.yul\":310:322   */\n      revert\n        /* \"#utility.yul\":334:451   */\n    tag_23:\n        /* \"#utility.yul\":443:444   */\n      0x00\n        /* \"#utility.yul\":440:441   */\n      dup1\n        /* \"#utility.yul\":433:445   */\n      revert\n        /* \"#utility.yul\":457:574   */\n    tag_24:\n        /* \"#utility.yul\":566:567   */\n      0x00\n        /* \"#utility.yul\":563:564   */\n      dup1\n        /* \"#utility.yul\":556:568   */\n      revert\n        /* \"#utility.yul\":580:682   */\n    tag_25:\n        /* \"#utility.yul\":621:627   */\n      0x00\n        /* \"#utility.yul\":672:674   */\n      0x1f\n        /* \"#utility.yul\":668:675   */\n      not\n        /* \"#utility.yul\":663:665   */\n      0x1f\n        /* \"#utility.yul\":656:661   */\n      dup4\n        /* \"#utility.yul\":652:666   */\n      add\n        /* \"#utility.yul\":648:676   */\n      and\n        /* \"#utility.yul\":638:676   */\n      swap1\n      pop\n        /* \"#utility.yul\":580:682   */\n      swap2\n      swap1\n      pop\n      jump\t// out\n        /* \"#utility.yul\":688:868   */\n    tag_26:\n        /* \"#utility.yul\":736:813   */\n      0x4e487b7100000000000000000000000000000000000000000000000000000000\n        /* \"#utility.yul\":733:734   */\n      0x00\n        /* \"#utility.yul\":726:814   */\n      mstore\n        /* \"#utility.yul\":833:837   */\n      0x41\n        /* \"#utility.yul\":830:831   */\n      0x04\n        /* \"#utility.yul\":823:838   */\n      mstore\n        /* \"#utility.yul\":857:861   */\n      0x24\n        /* \"#utility.yul\":854:855   */\n      0x00\n        /* \"#utility.yul\":847:862   */\n      revert\n        /* \"#utility.yul\":874:1155   */\n    tag_27:\n        /* \"#utility.yul\":957:984   */\n      tag_59\n        /* \"#utility.yul\":979:983   */\n      dup3\n        /* \"#utility.yul\":957:984   */\n      tag_25\n      jump\t// in\n    tag_59:\n        /* \"#utility.yul\":949:955   */\n      dup2\n        /* \"#utility.yul\":945:985   */\n      add\n        /* \"#utility.yul\":1087:1093   */\n      dup2\n        /* \"#utility.yul\":1075:1085   */\n      dup2\n        /* \"#utility.yul\":1072:1094   */\n      lt\n        /* \"#utility.yul\":1051:1069   */\n      0xffffffffffffffff\n        /* \"#utility.yul\":1039:1049   */\n      dup3\n        /* \"#utility.yul\":1036:1070   */\n      gt\n        /* \"#utility.yul\":1033:1095   */\n      or\n        /* \"#utility.yul\":1030:1118   */\n      iszero\n      tag_60\n      jumpi\n        /* \"#utility.yul\":1098:1116   */\n      tag_61\n      tag_26\n      jump\t// in\n    tag_61:\n        /* \"#utility.yul\":1030:1118   */\n    tag_60:\n        /* \"#utility.yul\":1138:1148   */\n      dup1\n        /* \"#utility.yul\":1134:1136   */\n      0x40\n        /* \"#utility.yul\":1127:1149   */\n      mstore\n        /* \"#utility.yul\":917:1155   */\n      pop\n        /* \"#utility.yul\":874:1155   */\n      pop\n      pop\n      jump\t// out\n        /* \"#utility.yul\":1161:1290   */\n    tag_28:\n        /* \"#utility.yul\":1195:1201   */\n      0x00\n        /* \"#utility.yul\":1222:1242   */\n      tag_63\n      tag_20\n      jump\t// in\n    tag_63:\n        /* \"#utility.yul\":1212:1242   */\n      swap1\n      pop\n        /* \"#utility.yul\":1251:1284   */\n      tag_64\n        /* \"#utility.yul\":1279:1283   */\n      dup3\n        /* \"#utility.yul\":1271:1277   */\n      dup3\n        /* \"#utility.yul\":1251:1284   */\n      tag_27\n      jump\t// in\n    tag_64:\n        /* \"#utility.yul\":1161:1290   */\n      swap2\n      swap1\n      pop\n      jump\t// out\n        /* \"#utility.yul\":1296:1604   */\n    tag_29:\n        /* \"#utility.yul\":1358:1362   */\n      0x00\n        /* \"#utility.yul\":1448:1466   */\n      0xffffffffffffffff\n        /* \"#utility.yul\":1440:1446   */\n      dup3\n        /* \"#utility.yul\":1437:1467   */\n      gt\n        /* \"#utility.yul\":1434:1490   */\n      iszero\n      tag_66\n      jumpi\n        /* \"#utility.yul\":1470:1488   */\n      tag_67\n      tag_26\n      jump\t// in\n    tag_67:\n        /* \"#utility.yul\":1434:1490   */\n    tag_66:\n        /* \"#utility.yul\":1508:1537   */\n      tag_68\n        /* \"#utility.yul\":1530:1536   */\n      dup3\n        /* \"#utility.yul\":1508:1537   */\n      tag_25\n      jump\t// in\n    tag_68:\n        /* \"#utility.yul\":1500:1537   */\n      swap1\n      pop\n        /* \"#utility.yul\":1592:1596   */\n      0x20\n        /* \"#utility.yul\":1586:1590   */\n      dup2\n        /* \"#utility.yul\":1582:1597   */\n      add\n        /* \"#utility.yul\":1574:1597   */\n      swap1\n      pop\n        /* \"#utility.yul\":1296:1604   */\n      swap2\n      swap1\n      pop\n      jump\t// out\n        /* \"#utility.yul\":1610:1758   */\n    tag_30:\n        /* \"#utility.yul\":1708:1714   */\n      dup3\n        /* \"#utility.yul\":1703:1706   */\n      dup2\n        /* \"#utility.yul\":1698:1701   */\n      dup4\n        /* \"#utility.yul\":1685:1715   */\n      calldatacopy\n        /* \"#utility.yul\":1749:1750   */\n      0x00\n        /* \"#utility.yul\":1740:1746   */\n      dup4\n        /* \"#utility.yul\":1735:1738   */\n      dup4\n        /* \"#utility.yul\":1731:1747   */\n      add\n        /* \"#utility.yul\":1724:1751   */\n      mstore\n        /* \"#utility.yul\":1610:1758   */\n      pop\n      pop\n      pop\n      jump\t// out\n        /* \"#utility.yul\":1764:2189   */\n    tag_31:\n        /* \"#utility.yul\":1842:1847   */\n      0x00\n        /* \"#utility.yul\":1867:1933   */\n      tag_71\n        /* \"#utility.yul\":1883:1932   */\n      tag_72\n        /* \"#utility.yul\":1925:1931   */\n      dup5\n        /* \"#utility.yul\":1883:1932   */\n      tag_29\n      jump\t// in\n    tag_72:\n        /* \"#utility.yul\":1867:1933   */\n      tag_28\n      jump\t// in\n    tag_71:\n        /* \"#utility.yul\":1858:1933   */\n      swap1\n      pop\n        /* \"#utility.yul\":1956:1962   */\n      dup3\n        /* \"#utility.yul\":1949:1954   */\n      dup2\n        /* \"#utility.yul\":1942:1963   */\n      mstore\n        /* \"#utility.yul\":1994:1998   */\n      0x20\n        /* \"#utility.yul\":1987:1992   */\n      dup2\n        /* \"#utility.yul\":1983:1999   */\n      add\n        /* \"#utility.yul\":2032:2035   */\n      dup5\n        /* \"#utility.yul\":2023:2029   */\n      dup5\n        /* \"#utility.yul\":2018:2021   */\n      dup5\n        /* \"#utility.yul\":2014:2030   */\n      add\n        /* \"#utility.yul\":2011:2036   */\n      gt\n        /* \"#utility.yul\":2008:2120   */\n      iszero\n      tag_73\n      jumpi\n        /* \"#utility.yul\":2039:2118   */\n      tag_74\n      tag_24\n      jump\t// in\n    tag_74:\n        /* \"#utility.yul\":2008:2120   */\n    tag_73:\n        /* \"#utility.yul\":2129:2183   */\n      tag_75\n        /* \"#utility.yul\":2176:2182   */\n      dup5\n        /* \"#utility.yul\":2171:2174   */\n      dup3\n        /* \"#utility.yul\":2166:2169   */\n      dup6\n        /* \"#utility.yul\":2129:2183   */\n      tag_30\n      jump\t// in\n    tag_75:\n        /* \"#utility.yul\":1848:2189   */\n      pop\n        /* \"#utility.yul\":1764:2189   */\n      swap4\n      swap3\n      pop\n      pop\n      pop\n      jump\t// out\n        /* \"#utility.yul\":2209:2549   */\n    tag_32:\n        /* \"#utility.yul\":2265:2270   */\n      0x00\n        /* \"#utility.yul\":2314:2317   */\n      dup3\n        /* \"#utility.yul\":2307:2311   */\n      0x1f\n        /* \"#utility.yul\":2299:2305   */\n      dup4\n        /* \"#utility.yul\":2295:2312   */\n      add\n        /* \"#utility.yul\":2291:2318   */\n      slt\n        /* \"#utility.yul\":2281:2403   */\n      tag_77\n      jumpi\n        /* \"#utility.yul\":2322:2401   */\n      tag_78\n      tag_23\n      jump\t// in\n    tag_78:\n        /* \"#utility.yul\":2281:2403   */\n    tag_77:\n        /* \"#utility.yul\":2439:2445   */\n      dup2\n        /* \"#utility.yul\":2426:2446   */\n      calldataload\n        /* \"#utility.yul\":2464:2543   */\n      tag_79\n        /* \"#utility.yul\":2539:2542   */\n      dup5\n        /* \"#utility.yul\":2531:2537   */\n      dup3\n        /* \"#utility.yul\":2524:2528   */\n      0x20\n        /* \"#utility.yul\":2516:2522   */\n      dup7\n        /* \"#utility.yul\":2512:2529   */\n      add\n        /* \"#utility.yul\":2464:2543   */\n      tag_31\n      jump\t// in\n    tag_79:\n        /* \"#utility.yul\":2455:2543   */\n      swap2\n      pop\n        /* \"#utility.yul\":2271:2549   */\n      pop\n        /* \"#utility.yul\":2209:2549   */\n      swap3\n      swap2\n      pop\n      pop\n      jump\t// out\n        /* \"#utility.yul\":2555:3064   */\n    tag_7:\n        /* \"#utility.yul\":2624:2630   */\n      0x00\n        /* \"#utility.yul\":2673:2675   */\n      0x20\n        /* \"#utility.yul\":2661:2670   */\n      dup3\n        /* \"#utility.yul\":2652:2659   */\n      dup5\n        /* \"#utility.yul\":2648:2671   */\n      sub\n        /* \"#utility.yul\":2644:2676   */\n      slt\n        /* \"#utility.yul\":2641:2760   */\n      iszero\n      tag_81\n      jumpi\n        /* \"#utility.yul\":2679:2758   */\n      tag_82\n      tag_21\n      jump\t// in\n    tag_82:\n        /* \"#utility.yul\":2641:2760   */\n    tag_81:\n        /* \"#utility.yul\":2827:2828   */\n      0x00\n        /* \"#utility.yul\":2816:2825   */\n      dup3\n        /* \"#utility.yul\":2812:2829   */\n      add\n        /* \"#utility.yul\":2799:2830   */\n      calldataload\n        /* \"#utility.yul\":2857:2875   */\n      0xffffffffffffffff\n        /* \"#utility.yul\":2849:2855   */\n      dup2\n        /* \"#utility.yul\":2846:2876   */\n      gt\n        /* \"#utility.yul\":2843:2960   */\n      iszero\n      tag_83\n      jumpi\n        /* \"#utility.yul\":2879:2958   */\n      tag_84\n      tag_22\n      jump\t// in\n    tag_84:\n        /* \"#utility.yul\":2843:2960   */\n    tag_83:\n        /* \"#utility.yul\":2984:3047   */\n      tag_85\n        /* \"#utility.yul\":3039:3046   */\n      dup5\n        /* \"#utility.yul\":3030:3036   */\n      dup3\n        /* \"#utility.yul\":3019:3028   */\n      dup6\n        /* \"#utility.yul\":3015:3037   */\n      add\n        /* \"#utility.yul\":2984:3047   */\n      tag_32\n      jump\t// in\n    tag_85:\n        /* \"#utility.yul\":2974:3047   */\n      swap2\n      pop\n        /* \"#utility.yul\":2770:3057   */\n      pop\n        /* \"#utility.yul\":2555:3064   */\n      swap3\n      swap2\n      pop\n      pop\n      jump\t// out\n        /* \"#utility.yul\":3070:3196   */\n    tag_33:\n        /* \"#utility.yul\":3107:3114   */\n      0x00\n        /* \"#utility.yul\":3147:3189   */\n      0xffffffffffffffffffffffffffffffffffffffff\n        /* \"#utility.yul\":3140:3145   */\n      dup3\n        /* \"#utility.yul\":3136:3190   */\n      and\n        /* \"#utility.yul\":3125:3190   */\n      swap1\n      pop\n        /* \"#utility.yul\":3070:3196   */\n      swap2\n      swap1\n      pop\n      jump\t// out\n        /* \"#utility.yul\":3202:3298   */\n    tag_34:\n        /* \"#utility.yul\":3239:3246   */\n      0x00\n        /* \"#utility.yul\":3268:3292   */\n      tag_88\n        /* \"#utility.yul\":3286:3291   */\n      dup3\n        /* \"#utility.yul\":3268:3292   */\n      tag_33\n      jump\t// in\n    tag_88:\n        /* \"#utility.yul\":3257:3292   */\n      swap1\n      pop\n        /* \"#utility.yul\":3202:3298   */\n      swap2\n      swap1\n      pop\n      jump\t// out\n        /* \"#utility.yul\":3304:3422   */\n    tag_35:\n        /* \"#utility.yul\":3391:3415   */\n      tag_90\n        /* \"#utility.yul\":3409:3414   */\n      dup2\n        /* \"#utility.yul\":3391:3415   */\n      tag_34\n      jump\t// in\n    tag_90:\n        /* \"#utility.yul\":3386:3389   */\n      dup3\n        /* \"#utility.yul\":3379:3416   */\n      mstore\n        /* \"#utility.yul\":3304:3422   */\n      pop\n      pop\n      jump\t// out\n        /* \"#utility.yul\":3428:3650   */\n    tag_10:\n        /* \"#utility.yul\":3521:3525   */\n      0x00\n        /* \"#utility.yul\":3559:3561   */\n      0x20\n        /* \"#utility.yul\":3548:3557   */\n      dup3\n        /* \"#utility.yul\":3544:3562   */\n      add\n        /* \"#utility.yul\":3536:3562   */\n      swap1\n      pop\n        /* \"#utility.yul\":3572:3643   */\n      tag_92\n        /* \"#utility.yul\":3640:3641   */\n      0x00\n        /* \"#utility.yul\":3629:3638   */\n      dup4\n        /* \"#utility.yul\":3625:3642   */\n      add\n        /* \"#utility.yul\":3616:3622   */\n      dup5\n        /* \"#utility.yul\":3572:3643   */\n      tag_35\n      jump\t// in\n    tag_92:\n        /* \"#utility.yul\":3428:3650   */\n      swap3\n      swap2\n      pop\n      pop\n      jump\t// out\n        /* \"#utility.yul\":3656:3773   */\n    tag_36:\n        /* \"#utility.yul\":3765:3766   */\n      0x00\n        /* \"#utility.yul\":3762:3763   */\n      dup1\n        /* \"#utility.yul\":3755:3767   */\n      revert\n        /* \"#utility.yul\":3779:3896   */\n    tag_37:\n        /* \"#utility.yul\":3888:3889   */\n      0x00\n        /* \"#utility.yul\":3885:3886   */\n      dup1\n        /* \"#utility.yul\":3878:3890   */\n      revert\n        /* \"#utility.yul\":3916:4469   */\n    tag_38:\n        /* \"#utility.yul\":3974:3982   */\n      0x00\n        /* \"#utility.yul\":3984:3990   */\n      dup1\n        /* \"#utility.yul\":4034:4037   */\n      dup4\n        /* \"#utility.yul\":4027:4031   */\n      0x1f\n        /* \"#utility.yul\":4019:4025   */\n      dup5\n        /* \"#utility.yul\":4015:4032   */\n      add\n        /* \"#utility.yul\":4011:4038   */\n      slt\n        /* \"#utility.yul\":4001:4123   */\n      tag_96\n      jumpi\n        /* \"#utility.yul\":4042:4121   */\n      tag_97\n      tag_23\n      jump\t// in\n    tag_97:\n        /* \"#utility.yul\":4001:4123   */\n    tag_96:\n        /* \"#utility.yul\":4155:4161   */\n      dup3\n        /* \"#utility.yul\":4142:4162   */\n      calldataload\n        /* \"#utility.yul\":4132:4162   */\n      swap1\n      pop\n        /* \"#utility.yul\":4185:4203   */\n      0xffffffffffffffff\n        /* \"#utility.yul\":4177:4183   */\n      dup2\n        /* \"#utility.yul\":4174:4204   */\n      gt\n        /* \"#utility.yul\":4171:4288   */\n      iszero\n      tag_98\n      jumpi\n        /* \"#utility.yul\":4207:4286   */\n      tag_99\n      tag_36\n      jump\t// in\n    tag_99:\n        /* \"#utility.yul\":4171:4288   */\n    tag_98:\n        /* \"#utility.yul\":4321:4325   */\n      0x20\n        /* \"#utility.yul\":4313:4319   */\n      dup4\n        /* \"#utility.yul\":4309:4326   */\n      add\n        /* \"#utility.yul\":4297:4326   */\n      swap2\n      pop\n        /* \"#utility.yul\":4375:4378   */\n      dup4\n        /* \"#utility.yul\":4367:4371   */\n      0x01\n        /* \"#utility.yul\":4359:4365   */\n      dup3\n        /* \"#utility.yul\":4355:4372   */\n      mul\n        /* \"#utility.yul\":4345:4353   */\n      dup4\n        /* \"#utility.yul\":4341:4373   */\n      add\n        /* \"#utility.yul\":4338:4379   */\n      gt\n        /* \"#utility.yul\":4335:4463   */\n      iszero\n      tag_100\n      jumpi\n        /* \"#utility.yul\":4382:4461   */\n      tag_101\n      tag_37\n      jump\t// in\n    tag_101:\n        /* \"#utility.yul\":4335:4463   */\n    tag_100:\n        /* \"#utility.yul\":3916:4469   */\n      swap3\n      pop\n      swap3\n      swap1\n      pop\n      jump\t// out\n        /* \"#utility.yul\":4475:4597   */\n    tag_39:\n        /* \"#utility.yul\":4548:4572   */\n      tag_103\n        /* \"#utility.yul\":4566:4571   */\n      dup2\n        /* \"#utility.yul\":4548:4572   */\n      tag_34\n      jump\t// in\n    tag_103:\n        /* \"#utility.yul\":4541:4546   */\n      dup2\n        /* \"#utility.yul\":4538:4573   */\n      eq\n        /* \"#utility.yul\":4528:4591   */\n      tag_104\n      jumpi\n        /* \"#utility.yul\":4587:4588   */\n      0x00\n        /* \"#utility.yul\":4584:4585   */\n      dup1\n        /* \"#utility.yul\":4577:4589   */\n      revert\n        /* \"#utility.yul\":4528:4591   */\n    tag_104:\n        /* \"#utility.yul\":4475:4597   */\n      pop\n      jump\t// out\n        /* \"#utility.yul\":4603:4742   */\n    tag_40:\n        /* \"#utility.yul\":4649:4654   */\n      0x00\n        /* \"#utility.yul\":4687:4693   */\n      dup2\n        /* \"#utility.yul\":4674:4694   */\n      calldataload\n        /* \"#utility.yul\":4665:4694   */\n      swap1\n      pop\n        /* \"#utility.yul\":4703:4736   */\n      tag_106\n        /* \"#utility.yul\":4730:4735   */\n      dup2\n        /* \"#utility.yul\":4703:4736   */\n      tag_39\n      jump\t// in\n    tag_106:\n        /* \"#utility.yul\":4603:4742   */\n      swap3\n      swap2\n      pop\n      pop\n      jump\t// out\n        /* \"#utility.yul\":4748:5422   */\n    tag_13:\n        /* \"#utility.yul\":4828:4834   */\n      0x00\n        /* \"#utility.yul\":4836:4842   */\n      dup1\n        /* \"#utility.yul\":4844:4850   */\n      0x00\n        /* \"#utility.yul\":4893:4895   */\n      0x40\n        /* \"#utility.yul\":4881:4890   */\n      dup5\n        /* \"#utility.yul\":4872:4879   */\n      dup7\n        /* \"#utility.yul\":4868:4891   */\n      sub\n        /* \"#utility.yul\":4864:4896   */\n      slt\n        /* \"#utility.yul\":4861:4980   */\n      iszero\n      tag_108\n      jumpi\n        /* \"#utility.yul\":4899:4978   */\n      tag_109\n      tag_21\n      jump\t// in\n    tag_109:\n        /* \"#utility.yul\":4861:4980   */\n    tag_108:\n        /* \"#utility.yul\":5047:5048   */\n      0x00\n        /* \"#utility.yul\":5036:5045   */\n      dup5\n        /* \"#utility.yul\":5032:5049   */\n      add\n        /* \"#utility.yul\":5019:5050   */\n      calldataload\n        /* \"#utility.yul\":5077:5095   */\n      0xffffffffffffffff\n        /* \"#utility.yul\":5069:5075   */\n      dup2\n        /* \"#utility.yul\":5066:5096   */\n      gt\n        /* \"#utility.yul\":5063:5180   */\n      iszero\n      tag_110\n      jumpi\n        /* \"#utility.yul\":5099:5178   */\n      tag_111\n      tag_22\n      jump\t// in\n    tag_111:\n        /* \"#utility.yul\":5063:5180   */\n    tag_110:\n        /* \"#utility.yul\":5212:5277   */\n      tag_112\n        /* \"#utility.yul\":5269:5276   */\n      dup7\n        /* \"#utility.yul\":5260:5266   */\n      dup3\n        /* \"#utility.yul\":5249:5258   */\n      dup8\n        /* \"#utility.yul\":5245:5267   */\n      add\n        /* \"#utility.yul\":5212:5277   */\n      tag_38\n      jump\t// in\n    tag_112:\n        /* \"#utility.yul\":5194:5277   */\n      swap4\n      pop\n      swap4\n      pop\n        /* \"#utility.yul\":4990:5287   */\n      pop\n        /* \"#utility.yul\":5326:5328   */\n      0x20\n        /* \"#utility.yul\":5352:5405   */\n      tag_113\n        /* \"#utility.yul\":5397:5404   */\n      dup7\n        /* \"#utility.yul\":5388:5394   */\n      dup3\n        /* \"#utility.yul\":5377:5386   */\n      dup8\n        /* \"#utility.yul\":5373:5395   */\n      add\n        /* \"#utility.yul\":5352:5405   */\n      tag_40\n      jump\t// in\n    tag_113:\n        /* \"#utility.yul\":5342:5405   */\n      swap2\n      pop\n        /* \"#utility.yul\":5297:5415   */\n      pop\n        /* \"#utility.yul\":4748:5422   */\n      swap3\n      pop\n      swap3\n      pop\n      swap3\n      jump\t// out\n        /* \"#utility.yul\":5428:5576   */\n    tag_41:\n        /* \"#utility.yul\":5530:5541   */\n      0x00\n        /* \"#utility.yul\":5567:5570   */\n      dup2\n        /* \"#utility.yul\":5552:5570   */\n      swap1\n      pop\n        /* \"#utility.yul\":5428:5576   */\n      swap3\n      swap2\n      pop\n      pop\n      jump\t// out\n        /* \"#utility.yul\":5606:5936   */\n    tag_42:\n        /* \"#utility.yul\":5722:5725   */\n      0x00\n        /* \"#utility.yul\":5743:5832   */\n      tag_116\n        /* \"#utility.yul\":5825:5831   */\n      dup4\n        /* \"#utility.yul\":5820:5823   */\n      dup6\n        /* \"#utility.yul\":5743:5832   */\n      tag_41\n      jump\t// in\n    tag_116:\n        /* \"#utility.yul\":5736:5832   */\n      swap4\n      pop\n        /* \"#utility.yul\":5842:5898   */\n      tag_117\n        /* \"#utility.yul\":5891:5897   */\n      dup4\n        /* \"#utility.yul\":5886:5889   */\n      dup6\n        /* \"#utility.yul\":5879:5884   */\n      dup5\n        /* \"#utility.yul\":5842:5898   */\n      tag_30\n      jump\t// in\n    tag_117:\n        /* \"#utility.yul\":5923:5929   */\n      dup3\n        /* \"#utility.yul\":5918:5921   */\n      dup5\n        /* \"#utility.yul\":5914:5930   */\n      add\n        /* \"#utility.yul\":5907:5930   */\n      swap1\n      pop\n        /* \"#utility.yul\":5606:5936   */\n      swap4\n      swap3\n      pop\n      pop\n      pop\n      jump\t// out\n        /* \"#utility.yul\":5942:6237   */\n    tag_17:\n        /* \"#utility.yul\":6084:6087   */\n      0x00\n        /* \"#utility.yul\":6106:6211   */\n      tag_119\n        /* \"#utility.yul\":6207:6210   */\n      dup3\n        /* \"#utility.yul\":6198:6204   */\n      dup5\n        /* \"#utility.yul\":6190:6196   */\n      dup7\n        /* \"#utility.yul\":6106:6211   */\n      tag_42\n      jump\t// in\n    tag_119:\n        /* \"#utility.yul\":6099:6211   */\n      swap2\n      pop\n        /* \"#utility.yul\":6228:6231   */\n      dup2\n        /* \"#utility.yul\":6221:6231   */\n      swap1\n      pop\n        /* \"#utility.yul\":5942:6237   */\n      swap4\n      swap3\n      pop\n      pop\n      pop\n      jump\t// out\n        /* \"#utility.yul\":6243:6412   */\n    tag_43:\n        /* \"#utility.yul\":6327:6338   */\n      0x00\n        /* \"#utility.yul\":6361:6367   */\n      dup3\n        /* \"#utility.yul\":6356:6359   */\n      dup3\n        /* \"#utility.yul\":6349:6368   */\n      mstore\n        /* \"#utility.yul\":6401:6405   */\n      0x20\n        /* \"#utility.yul\":6396:6399   */\n      dup3\n        /* \"#utility.yul\":6392:6406   */\n      add\n        /* \"#utility.yul\":6377:6406   */\n      swap1\n      pop\n        /* \"#utility.yul\":6243:6412   */\n      swap3\n      swap2\n      pop\n      pop\n      jump\t// out\n        /* \"#utility.yul\":6442:6759   */\n    tag_44:\n        /* \"#utility.yul\":6540:6543   */\n      0x00\n        /* \"#utility.yul\":6561:6632   */\n      tag_122\n        /* \"#utility.yul\":6625:6631   */\n      dup4\n        /* \"#utility.yul\":6620:6623   */\n      dup6\n        /* \"#utility.yul\":6561:6632   */\n      tag_43\n      jump\t// in\n    tag_122:\n        /* \"#utility.yul\":6554:6632   */\n      swap4\n      pop\n        /* \"#utility.yul\":6642:6698   */\n      tag_123\n        /* \"#utility.yul\":6691:6697   */\n      dup4\n        /* \"#utility.yul\":6686:6689   */\n      dup6\n        /* \"#utility.yul\":6679:6684   */\n      dup5\n        /* \"#utility.yul\":6642:6698   */\n      tag_30\n      jump\t// in\n    tag_123:\n        /* \"#utility.yul\":6723:6752   */\n      tag_124\n        /* \"#utility.yul\":6745:6751   */\n      dup4\n        /* \"#utility.yul\":6723:6752   */\n      tag_25\n      jump\t// in\n    tag_124:\n        /* \"#utility.yul\":6718:6721   */\n      dup5\n        /* \"#utility.yul\":6714:6753   */\n      add\n        /* \"#utility.yul\":6707:6753   */\n      swap1\n      pop\n        /* \"#utility.yul\":6442:6759   */\n      swap4\n      swap3\n      pop\n      pop\n      pop\n      jump\t// out\n        /* \"#utility.yul\":6765:6945   */\n    tag_45:\n        /* \"#utility.yul\":6813:6890   */\n      0x4e487b7100000000000000000000000000000000000000000000000000000000\n        /* \"#utility.yul\":6810:6811   */\n      0x00\n        /* \"#utility.yul\":6803:6891   */\n      mstore\n        /* \"#utility.yul\":6910:6914   */\n      0x21\n        /* \"#utility.yul\":6907:6908   */\n      0x04\n        /* \"#utility.yul\":6900:6915   */\n      mstore\n        /* \"#utility.yul\":6934:6938   */\n      0x24\n        /* \"#utility.yul\":6931:6932   */\n      0x00\n        /* \"#utility.yul\":6924:6939   */\n      revert\n        /* \"#utility.yul\":6951:7087   */\n    tag_46:\n        /* \"#utility.yul\":7055:7056   */\n      0x04\n        /* \"#utility.yul\":7048:7053   */\n      dup2\n        /* \"#utility.yul\":7045:7057   */\n      lt\n        /* \"#utility.yul\":7035:7081   */\n      tag_127\n      jumpi\n        /* \"#utility.yul\":7061:7079   */\n      tag_128\n      tag_45\n      jump\t// in\n    tag_128:\n        /* \"#utility.yul\":7035:7081   */\n    tag_127:\n        /* \"#utility.yul\":6951:7087   */\n      pop\n      jump\t// out\n        /* \"#utility.yul\":7093:7266   */\n    tag_47:\n        /* \"#utility.yul\":7161:7168   */\n      0x00\n        /* \"#utility.yul\":7190:7195   */\n      dup2\n        /* \"#utility.yul\":7179:7195   */\n      swap1\n      pop\n        /* \"#utility.yul\":7196:7260   */\n      tag_130\n        /* \"#utility.yul\":7254:7259   */\n      dup3\n        /* \"#utility.yul\":7196:7260   */\n      tag_46\n      jump\t// in\n    tag_130:\n        /* \"#utility.yul\":7093:7266   */\n      swap2\n      swap1\n      pop\n      jump\t// out\n        /* \"#utility.yul\":7272:7445   */\n    tag_48:\n        /* \"#utility.yul\":7351:7360   */\n      0x00\n        /* \"#utility.yul\":7384:7439   */\n      tag_132\n        /* \"#utility.yul\":7433:7438   */\n      dup3\n        /* \"#utility.yul\":7384:7439   */\n      tag_47\n      jump\t// in\n    tag_132:\n        /* \"#utility.yul\":7371:7439   */\n      swap1\n      pop\n        /* \"#utility.yul\":7272:7445   */\n      swap2\n      swap1\n      pop\n      jump\t// out\n        /* \"#utility.yul\":7451:7640   */\n    tag_49:\n        /* \"#utility.yul\":7567:7633   */\n      tag_134\n        /* \"#utility.yul\":7627:7632   */\n      dup2\n        /* \"#utility.yul\":7567:7633   */\n      tag_48\n      jump\t// in\n    tag_134:\n        /* \"#utility.yul\":7562:7565   */\n      dup3\n        /* \"#utility.yul\":7555:7634   */\n      mstore\n        /* \"#utility.yul\":7451:7640   */\n      pop\n      pop\n      jump\t// out\n        /* \"#utility.yul\":7646:8257   */\n    tag_19:\n        /* \"#utility.yul\":7854:7858   */\n      0x00\n        /* \"#utility.yul\":7892:7894   */\n      0x60\n        /* \"#utility.yul\":7881:7890   */\n      dup3\n        /* \"#utility.yul\":7877:7895   */\n      add\n        /* \"#utility.yul\":7869:7895   */\n      swap1\n      pop\n        /* \"#utility.yul\":7941:7950   */\n      dup2\n        /* \"#utility.yul\":7935:7939   */\n      dup2\n        /* \"#utility.yul\":7931:7951   */\n      sub\n        /* \"#utility.yul\":7927:7928   */\n      0x00\n        /* \"#utility.yul\":7916:7925   */\n      dup4\n        /* \"#utility.yul\":7912:7929   */\n      add\n        /* \"#utility.yul\":7905:7952   */\n      mstore\n        /* \"#utility.yul\":7969:8057   */\n      tag_136\n        /* \"#utility.yul\":8052:8056   */\n      dup2\n        /* \"#utility.yul\":8043:8049   */\n      dup7\n        /* \"#utility.yul\":8035:8041   */\n      dup9\n        /* \"#utility.yul\":7969:8057   */\n      tag_44\n      jump\t// in\n    tag_136:\n        /* \"#utility.yul\":7961:8057   */\n      swap1\n      pop\n        /* \"#utility.yul\":8067:8139   */\n      tag_137\n        /* \"#utility.yul\":8135:8137   */\n      0x20\n        /* \"#utility.yul\":8124:8133   */\n      dup4\n        /* \"#utility.yul\":8120:8138   */\n      add\n        /* \"#utility.yul\":8111:8117   */\n      dup6\n        /* \"#utility.yul\":8067:8139   */\n      tag_35\n      jump\t// in\n    tag_137:\n        /* \"#utility.yul\":8149:8250   */\n      tag_138\n        /* \"#utility.yul\":8246:8248   */\n      0x40\n        /* \"#utility.yul\":8235:8244   */\n      dup4\n        /* \"#utility.yul\":8231:8249   */\n      add\n        /* \"#utility.yul\":8222:8228   */\n      dup5\n        /* \"#utility.yul\":8149:8250   */\n      tag_49\n      jump\t// in\n    tag_138:\n        /* \"#utility.yul\":7646:8257   */\n      swap6\n      swap5\n      pop\n      pop\n      pop\n      pop\n      pop\n      jump\t// out\n\n    auxdata: 0xa2646970667358221220c73438a1c0dd87fe8797504a66c2d9b2d423182372888148cebe98cfa4cf139664736f6c634300081a0033\n}\n",
				"bytecode": {
					"linkReferences": {},
					"object": "6080604052348015600e575f80fd5b506105ba8061001c5f395ff3fe608060405234801561000f575f80fd5b5060043610610034575f3560e01c806321851b7a146100385780635aeada2b14610068575b5f80fd5b610052600480360381019061004d91906102ce565b610084565b60405161005f9190610354565b60405180910390f35b610082600480360381019061007d91906103f4565b6100cb565b005b5f818051602081018201805184825260208301602085012081835280955050505050505f915054906101000a900473ffffffffffffffffffffffffffffffffffffffff1681565b805f84846040516100dd92919061047f565b90815260200160405180910390205f6101000a81548173ffffffffffffffffffffffffffffffffffffffff021916908373ffffffffffffffffffffffffffffffffffffffff1602179055503373ffffffffffffffffffffffffffffffffffffffff167fd477ea6b1e623bd0fb7ee4281a3d6c60aadc66677a07c44145e0d8e40fa97a158484845f6040516101749493929190610546565b60405180910390a2505050565b5f604051905090565b5f80fd5b5f80fd5b5f80fd5b5f80fd5b5f601f19601f8301169050919050565b7f4e487b71000000000000000000000000000000000000000000000000000000005f52604160045260245ffd5b6101e08261019a565b810181811067ffffffffffffffff821117156101ff576101fe6101aa565b5b80604052505050565b5f610211610181565b905061021d82826101d7565b919050565b5f67ffffffffffffffff82111561023c5761023b6101aa565b5b6102458261019a565b9050602081019050919050565b828183375f83830152505050565b5f61027261026d84610222565b610208565b90508281526020810184848401111561028e5761028d610196565b5b610299848285610252565b509392505050565b5f82601f8301126102b5576102b4610192565b5b81356102c5848260208601610260565b91505092915050565b5f602082840312156102e3576102e261018a565b5b5f82013567ffffffffffffffff811115610300576102ff61018e565b5b61030c848285016102a1565b91505092915050565b5f73ffffffffffffffffffffffffffffffffffffffff82169050919050565b5f61033e82610315565b9050919050565b61034e81610334565b82525050565b5f6020820190506103675f830184610345565b92915050565b5f80fd5b5f80fd5b5f8083601f84011261038a57610389610192565b5b8235905067ffffffffffffffff8111156103a7576103a661036d565b5b6020830191508360018202830111156103c3576103c2610371565b5b9250929050565b6103d381610334565b81146103dd575f80fd5b50565b5f813590506103ee816103ca565b92915050565b5f805f6040848603121561040b5761040a61018a565b5b5f84013567ffffffffffffffff8111156104285761042761018e565b5b61043486828701610375565b93509350506020610447868287016103e0565b9150509250925092565b5f81905092915050565b5f6104668385610451565b9350610473838584610252565b82840190509392505050565b5f61048b82848661045b565b91508190509392505050565b5f82825260208201905092915050565b5f6104b28385610497565b93506104bf838584610252565b6104c88361019a565b840190509392505050565b7f4e487b71000000000000000000000000000000000000000000000000000000005f52602160045260245ffd5b60048110610511576105106104d3565b5b50565b5f81905061052182610500565b919050565b5f61053082610514565b9050919050565b61054081610526565b82525050565b5f6060820190508181035f83015261055f8186886104a7565b905061056e6020830185610345565b61057b6040830184610537565b9594505050505056fea2646970667358221220c73438a1c0dd87fe8797504a66c2d9b2d423182372888148cebe98cfa4cf139664736f6c634300081a0033",
					"opcodes": "PUSH1 0x80 PUSH1 0x40 MSTORE CALLVALUE DUP1 ISZERO PUSH1 0xE JUMPI PUSH0 DUP1 REVERT JUMPDEST POP PUSH2 0x5BA DUP1 PUSH2 0x1C PUSH0 CODECOPY PUSH0 RETURN INVALID PUSH1 0x80 PUSH1 0x40 MSTORE CALLVALUE DUP1 ISZERO PUSH2 0xF JUMPI PUSH0 DUP1 REVERT JUMPDEST POP PUSH1 0x4 CALLDATASIZE LT PUSH2 0x34 JUMPI PUSH0 CALLDATALOAD PUSH1 0xE0 SHR DUP1 PUSH4 0x21851B7A EQ PUSH2 0x38 JUMPI DUP1 PUSH4 0x5AEADA2B EQ PUSH2 0x68 JUMPI JUMPDEST PUSH0 DUP1 REVERT JUMPDEST PUSH2 0x52 PUSH1 0x4 DUP1 CALLDATASIZE SUB DUP2 ADD SWAP1 PUSH2 0x4D SWAP2 SWAP1 PUSH2 0x2CE JUMP JUMPDEST PUSH2 0x84 JUMP JUMPDEST PUSH1 0x40 MLOAD PUSH2 0x5F SWAP2 SWAP1 PUSH2 0x354 JUMP JUMPDEST PUSH1 0x40 MLOAD DUP1 SWAP2 SUB SWAP1 RETURN JUMPDEST PUSH2 0x82 PUSH1 0x4 DUP1 CALLDATASIZE SUB DUP2 ADD SWAP1 PUSH2 0x7D SWAP2 SWAP1 PUSH2 0x3F4 JUMP JUMPDEST PUSH2 0xCB JUMP JUMPDEST STOP JUMPDEST PUSH0 DUP2 DUP1 MLOAD PUSH1 0x20 DUP2 ADD DUP3 ADD DUP1 MLOAD DUP5 DUP3 MSTORE PUSH1 0x20 DUP4 ADD PUSH1 0x20 DUP6 ADD KECCAK256 DUP2 DUP4 MSTORE DUP1 SWAP6 POP POP POP POP POP POP PUSH0 SWAP2 POP SLOAD SWAP1 PUSH2 0x100 EXP SWAP1 DIV PUSH20 0xFFFFFFFFFFFFFFFFFFFFFFFFFFFFFFFFFFFFFFFF AND DUP2 JUMP JUMPDEST DUP1 PUSH0 DUP5 DUP5 PUSH1 0x40 MLOAD PUSH2 0xDD SWAP3 SWAP2 SWAP1 PUSH2 0x47F JUMP JUMPDEST SWAP1 DUP2 MSTORE PUSH1 0x20 ADD PUSH1 0x40 MLOAD DUP1 SWAP2 SUB SWAP1 KECCAK256 PUSH0 PUSH2 0x100 EXP DUP2 SLOAD DUP2 PUSH20 0xFFFFFFFFFFFFFFFFFFFFFFFFFFFFFFFFFFFFFFFF MUL NOT AND SWAP1 DUP4 PUSH20 0xFFFFFFFFFFFFFFFFFFFFFFFFFFFFFFFFFFFFFFFF AND MUL OR SWAP1 SSTORE POP CALLER PUSH20 0xFFFFFFFFFFFFFFFFFFFFFFFFFFFFFFFFFFFFFFFF AND PUSH32 0xD477EA6B1E623BD0FB7EE4281A3D6C60AADC66677A07C44145E0D8E40FA97A15 DUP5 DUP5 DUP5 PUSH0 PUSH1 0x40 MLOAD PUSH2 0x174 SWAP5 SWAP4 SWAP3 SWAP2 SWAP1 PUSH2 0x546 JUMP JUMPDEST PUSH1 0x40 MLOAD DUP1 SWAP2 SUB SWAP1 LOG2 POP POP POP JUMP JUMPDEST PUSH0 PUSH1 0x40 MLOAD SWAP1 POP SWAP1 JUMP JUMPDEST PUSH0 DUP1 REVERT JUMPDEST PUSH0 DUP1 REVERT JUMPDEST PUSH0 DUP1 REVERT JUMPDEST PUSH0 DUP1 REVERT JUMPDEST PUSH0 PUSH1 0x1F NOT PUSH1 0x1F DUP4 ADD AND SWAP1 POP SWAP2 SWAP1 POP JUMP JUMPDEST PUSH32 0x4E487B7100000000000000000000000000000000000000000000000000000000 PUSH0 MSTORE PUSH1 0x41 PUSH1 0x4 MSTORE PUSH1 0x24 PUSH0 REVERT JUMPDEST PUSH2 0x1E0 DUP3 PUSH2 0x19A JUMP JUMPDEST DUP2 ADD DUP2 DUP2 LT PUSH8 0xFFFFFFFFFFFFFFFF DUP3 GT OR ISZERO PUSH2 0x1FF JUMPI PUSH2 0x1FE PUSH2 0x1AA JUMP JUMPDEST JUMPDEST DUP1 PUSH1 0x40 MSTORE POP POP POP JUMP JUMPDEST PUSH0 PUSH2 0x211 PUSH2 0x181 JUMP JUMPDEST SWAP1 POP PUSH2 0x21D DUP3 DUP3 PUSH2 0x1D7 JUMP JUMPDEST SWAP2 SWAP1 POP JUMP JUMPDEST PUSH0 PUSH8 0xFFFFFFFFFFFFFFFF DUP3 GT ISZERO PUSH2 0x23C JUMPI PUSH2 0x23B PUSH2 0x1AA JUMP JUMPDEST JUMPDEST PUSH2 0x245 DUP3 PUSH2 0x19A JUMP JUMPDEST SWAP1 POP PUSH1 0x20 DUP2 ADD SWAP1 POP SWAP2 SWAP1 POP JUMP JUMPDEST DUP3 DUP2 DUP4 CALLDATACOPY PUSH0 DUP4 DUP4 ADD MSTORE POP POP POP JUMP JUMPDEST PUSH0 PUSH2 0x272 PUSH2 0x26D DUP5 PUSH2 0x222 JUMP JUMPDEST PUSH2 0x208 JUMP JUMPDEST SWAP1 POP DUP3 DUP2 MSTORE PUSH1 0x20 DUP2 ADD DUP5 DUP5 DUP5 ADD GT ISZERO PUSH2 0x28E JUMPI PUSH2 0x28D PUSH2 0x196 JUMP JUMPDEST JUMPDEST PUSH2 0x299 DUP5 DUP3 DUP6 PUSH2 0x252 JUMP JUMPDEST POP SWAP4 SWAP3 POP POP POP JUMP JUMPDEST PUSH0 DUP3 PUSH1 0x1F DUP4 ADD SLT PUSH2 0x2B5 JUMPI PUSH2 0x2B4 PUSH2 0x192 JUMP JUMPDEST JUMPDEST DUP2 CALLDATALOAD PUSH2 0x2C5 DUP5 DUP3 PUSH1 0x20 DUP7 ADD PUSH2 0x260 JUMP JUMPDEST SWAP2 POP POP SWAP3 SWAP2 POP POP JUMP JUMPDEST PUSH0 PUSH1 0x20 DUP3 DUP5 SUB SLT ISZERO PUSH2 0x2E3 JUMPI PUSH2 0x2E2 PUSH2 0x18A JUMP JUMPDEST JUMPDEST PUSH0 DUP3 ADD CALLDATALOAD PUSH8 0xFFFFFFFFFFFFFFFF DUP2 GT ISZERO PUSH2 0x300 JUMPI PUSH2 0x2FF PUSH2 0x18E JUMP JUMPDEST JUMPDEST PUSH2 0x30C DUP5 DUP3 DUP6 ADD PUSH2 0x2A1 JUMP JUMPDEST SWAP2 POP POP SWAP3 SWAP2 POP POP JUMP JUMPDEST PUSH0 PUSH20 0xFFFFFFFFFFFFFFFFFFFFFFFFFFFFFFFFFFFFFFFF DUP3 AND SWAP1 POP SWAP2 SWAP1 POP JUMP JUMPDEST PUSH0 PUSH2 0x33E DUP3 PUSH2 0x315 JUMP JUMPDEST SWAP1 POP SWAP2 SWAP1 POP JUMP JUMPDEST PUSH2 0x34E DUP2 PUSH2 0x334 JUMP JUMPDEST DUP3 MSTORE POP POP JUMP JUMPDEST PUSH0 PUSH1 0x20 DUP3 ADD SWAP1 POP PUSH2 0x367 PUSH0 DUP4 ADD DUP5 PUSH2 0x345 JUMP JUMPDEST SWAP3 SWAP2 POP POP JUMP JUMPDEST PUSH0 DUP1 REVERT JUMPDEST PUSH0 DUP1 REVERT JUMPDEST PUSH0 DUP1 DUP4 PUSH1 0x1F DUP5 ADD SLT PUSH2 0x38A JUMPI PUSH2 0x389 PUSH2 0x192 JUMP JUMPDEST JUMPDEST DUP3 CALLDATALOAD SWAP1 POP PUSH8 0xFFFFFFFFFFFFFFFF DUP2 GT ISZERO PUSH2 0x3A7 JUMPI PUSH2 0x3A6 PUSH2 0x36D JUMP JUMPDEST JUMPDEST PUSH1 0x20 DUP4 ADD SWAP2 POP DUP4 PUSH1 0x1 DUP3 MUL DUP4 ADD GT ISZERO PUSH2 0x3C3 JUMPI PUSH2 0x3C2 PUSH2 0x371 JUMP JUMPDEST JUMPDEST SWAP3 POP SWAP3 SWAP1 POP JUMP JUMPDEST PUSH2 0x3D3 DUP2 PUSH2 0x334 JUMP JUMPDEST DUP2 EQ PUSH2 0x3DD JUMPI PUSH0 DUP1 REVERT JUMPDEST POP JUMP JUMPDEST PUSH0 DUP2 CALLDATALOAD SWAP1 POP PUSH2 0x3EE DUP2 PUSH2 0x3CA JUMP JUMPDEST SWAP3 SWAP2 POP POP JUMP JUMPDEST PUSH0 DUP1 PUSH0 PUSH1 0x40 DUP5 DUP7 SUB SLT ISZERO PUSH2 0x40B JUMPI PUSH2 0x40A PUSH2 0x18A JUMP JUMPDEST JUMPDEST PUSH0 DUP5 ADD CALLDATALOAD PUSH8 0xFFFFFFFFFFFFFFFF DUP2 GT ISZERO PUSH2 0x428 JUMPI PUSH2 0x427 PUSH2 0x18E JUMP JUMPDEST JUMPDEST PUSH2 0x434 DUP7 DUP3 DUP8 ADD PUSH2 0x375 JUMP JUMPDEST SWAP4 POP SWAP4 POP POP PUSH1 0x20 PUSH2 0x447 DUP7 DUP3 DUP8 ADD PUSH2 0x3E0 JUMP JUMPDEST SWAP2 POP POP SWAP3 POP SWAP3 POP SWAP3 JUMP JUMPDEST PUSH0 DUP2 SWAP1 POP SWAP3 SWAP2 POP POP JUMP JUMPDEST PUSH0 PUSH2 0x466 DUP4 DUP6 PUSH2 0x451 JUMP JUMPDEST SWAP4 POP PUSH2 0x473 DUP4 DUP6 DUP5 PUSH2 0x252 JUMP JUMPDEST DUP3 DUP5 ADD SWAP1 POP SWAP4 SWAP3 POP POP POP JUMP JUMPDEST PUSH0 PUSH2 0x48B DUP3 DUP5 DUP7 PUSH2 0x45B JUMP JUMPDEST SWAP2 POP DUP2 SWAP1 POP SWAP4 SWAP3 POP POP POP JUMP JUMPDEST PUSH0 DUP3 DUP3 MSTORE PUSH1 0x20 DUP3 ADD SWAP1 POP SWAP3 SWAP2 POP POP JUMP JUMPDEST PUSH0 PUSH2 0x4B2 DUP4 DUP6 PUSH2 0x497 JUMP JUMPDEST SWAP4 POP PUSH2 0x4BF DUP4 DUP6 DUP5 PUSH2 0x252 JUMP JUMPDEST PUSH2 0x4C8 DUP4 PUSH2 0x19A JUMP JUMPDEST DUP5 ADD SWAP1 POP SWAP4 SWAP3 POP POP POP JUMP JUMPDEST PUSH32 0x4E487B7100000000000000000000000000000000000000000000000000000000 PUSH0 MSTORE PUSH1 0x21 PUSH1 0x4 MSTORE PUSH1 0x24 PUSH0 REVERT JUMPDEST PUSH1 0x4 DUP2 LT PUSH2 0x511 JUMPI PUSH2 0x510 PUSH2 0x4D3 JUMP JUMPDEST JUMPDEST POP JUMP JUMPDEST PUSH0 DUP2 SWAP1 POP PUSH2 0x521 DUP3 PUSH2 0x500 JUMP JUMPDEST SWAP2 SWAP1 POP JUMP JUMPDEST PUSH0 PUSH2 0x530 DUP3 PUSH2 0x514 JUMP JUMPDEST SWAP1 POP SWAP2 SWAP1 POP JUMP JUMPDEST PUSH2 0x540 DUP2 PUSH2 0x526 JUMP JUMPDEST DUP3 MSTORE POP POP JUMP JUMPDEST PUSH0 PUSH1 0x60 DUP3 ADD SWAP1 POP DUP2 DUP2 SUB PUSH0 DUP4 ADD MSTORE PUSH2 0x55F DUP2 DUP7 DUP9 PUSH2 0x4A7 JUMP JUMPDEST SWAP1 POP PUSH2 0x56E PUSH1 0x20 DUP4 ADD DUP6 PUSH2 0x345 JUMP JUMPDEST PUSH2 0x57B PUSH1 0x40 DUP4 ADD DUP5 PUSH2 0x537 JUMP JUMPDEST SWAP6 SWAP5 POP POP POP POP POP JUMP INVALID LOG2 PUSH5 0x6970667358 0x22 SLT KECCAK256 0xC7 CALLVALUE CODESIZE LOG1 0xC0 0xDD DUP8 INVALID DUP8 SWAP8 POP BLOBBASEFEE PUSH7 0xC2D9B2D4231823 PUSH19 0x888148CEBE98CFA4CF139664736F6C63430008 BYTE STOP CALLER "
				},
				"gasEstimates": {
					"creation": {
						"codeDepositCost": "293200",
						"executionCost": "329",
						"totalCost": "293529"
					},
					"external": {
						"libraries(string)": "infinite",
						"loadLibrary(string,address)": "infinite"
					}
				},
				"methodIdentifiers": {
					"libraries(string)": "21851b7a",
					"loadLibrary(string,address)": "5aeada2b"
				}
			},
			"storageLayout": {
				"storage": [
					{
						"astId": 28,
						"contract": "D/Dynamic Link Library/Dynamic Link Library.sol:DLLVuln",
						"label": "libraries",
						"offset": 0,
						"slot": "0",
						"type": "t_mapping(t_string_memory_ptr,t_address)"
					}
				],
				"types": {
					"t_address": {
						"encoding": "inplace",
						"label": "address",
						"numberOfBytes": "20"
					},
					"t_mapping(t_string_memory_ptr,t_address)": {
						"encoding": "mapping",
						"key": "t_string_memory_ptr",
						"label": "mapping(string => address)",
						"numberOfBytes": "32",
						"value": "t_address"
					},
					"t_string_memory_ptr": {
						"encoding": "bytes",
						"label": "string",
						"numberOfBytes": "32"
					}
				}
			},
			"userdoc": {
				"kind": "user",
				"methods": {},
				"version": 1
			}
		}
	}
}