{
	"D/Dynamic Link Library/Dynamic Link Library.sol": {
		"DLLSafeIntegrity": {
			"abi": [
				{
					"inputs": [],
					"name": "DLL__BadChecksum",
					"type": "error"
				},
				{
					"anonymous": false,
					"inputs": [
						{
							"indexed": true,
							"internalType": "address",
							"name": "who",
							"type": "address"
						},
						{
							"indexed": false,
							"internalType": "string",
							"name": "path",
							"type": "string"
						},
						{
							"indexed": false,
							"internalType": "address",
							"name": "lib",
							"type": "address"
						},
						{
							"indexed": false,
							"internalType": "enum DynamicLinkLibraryDefenseType",
							"name": "defense",
							"type": "uint8"
						}
					],
					"name": "LibraryLoaded",
					"type": "event"
				},
				{
					"inputs": [
						{
							"internalType": "string",
							"name": "",
							"type": "string"
						}
					],
					"name": "checksums",
					"outputs": [
						{
							"internalType": "bytes32",
							"name": "",
							"type": "bytes32"
						}
					],
					"stateMutability": "view",
					"type": "function"
				},
				{
					"inputs": [
						{
							"internalType": "string",
							"name": "",
							"type": "string"
						}
					],
					"name": "libraries",
					"outputs": [
						{
							"internalType": "address",
							"name": "",
							"type": "address"
						}
					],
					"stateMutability": "view",
					"type": "function"
				},
				{
					"inputs": [
						{
							"internalType": "string",
							"name": "path",
							"type": "string"
						},
						{
							"internalType": "address",
							"name": "lib",
							"type": "address"
						},
						{
							"internalType": "bytes32",
							"name": "actualChecksum",
							"type": "bytes32"
						}
					],
					"name": "loadLibrary",
					"outputs": [],
					"stateMutability": "nonpayable",
					"type": "function"
				},
				{
					"inputs": [
						{
							"internalType": "string",
							"name": "path",
							"type": "string"
						},
						{
							"internalType": "bytes32",
							"name": "checksum",
							"type": "bytes32"
						}
					],
					"name": "setChecksum",
					"outputs": [],
					"stateMutability": "nonpayable",
					"type": "function"
				}
			],
			"devdoc": {
				"kind": "dev",
				"methods": {},
				"version": 1
			},
			"evm": {
				"assembly": "    /* \"D/Dynamic Link Library/Dynamic Link Library.sol\":5109:6106  contract DLLSafeIntegrity {... */\n  mstore(0x40, 0x80)\n  callvalue\n  dup1\n  iszero\n  tag_1\n  jumpi\n  0x00\n  dup1\n  revert\ntag_1:\n  pop\n  dataSize(sub_0)\n  dup1\n  dataOffset(sub_0)\n  0x00\n  codecopy\n  0x00\n  return\nstop\n\nsub_0: assembly {\n        /* \"D/Dynamic Link Library/Dynamic Link Library.sol\":5109:6106  contract DLLSafeIntegrity {... */\n      mstore(0x40, 0x80)\n      callvalue\n      dup1\n      iszero\n      tag_1\n      jumpi\n      0x00\n      dup1\n      revert\n    tag_1:\n      pop\n      jumpi(tag_2, lt(calldatasize, 0x04))\n      shr(0xe0, calldataload(0x00))\n      dup1\n      0x115a0ed5\n      eq\n      tag_3\n      jumpi\n      dup1\n      0x21851b7a\n      eq\n      tag_4\n      jumpi\n      dup1\n      0xa63fdaf9\n      eq\n      tag_5\n      jumpi\n      dup1\n      0xa71d15cc\n      eq\n      tag_6\n      jumpi\n    tag_2:\n      0x00\n      dup1\n      revert\n        /* \"D/Dynamic Link Library/Dynamic Link Library.sol\":5190:5233  mapping(string => bytes32) public checksums */\n    tag_3:\n      tag_7\n      0x04\n      dup1\n      calldatasize\n      sub\n      dup2\n      add\n      swap1\n      tag_8\n      swap2\n      swap1\n      tag_9\n      jump\t// in\n    tag_8:\n      tag_10\n      jump\t// in\n    tag_7:\n      mload(0x40)\n      tag_11\n      swap2\n      swap1\n      tag_12\n      jump\t// in\n    tag_11:\n      mload(0x40)\n      dup1\n      swap2\n      sub\n      swap1\n      return\n        /* \"D/Dynamic Link Library/Dynamic Link Library.sol\":5141:5184  mapping(string => address) public libraries */\n    tag_4:\n      tag_13\n      0x04\n      dup1\n      calldatasize\n      sub\n      dup2\n      add\n      swap1\n      tag_14\n      swap2\n      swap1\n      tag_9\n      jump\t// in\n    tag_14:\n      tag_15\n      jump\t// in\n    tag_13:\n      mload(0x40)\n      tag_16\n      swap2\n      swap1\n      tag_17\n      jump\t// in\n    tag_16:\n      mload(0x40)\n      dup1\n      swap2\n      sub\n      swap1\n      return\n        /* \"D/Dynamic Link Library/Dynamic Link Library.sol\":5505:5737  function setChecksum(string calldata path, bytes32 checksum) external {... */\n    tag_5:\n      tag_18\n      0x04\n      dup1\n      calldatasize\n      sub\n      dup2\n      add\n      swap1\n      tag_19\n      swap2\n      swap1\n      tag_20\n      jump\t// in\n    tag_19:\n      tag_21\n      jump\t// in\n    tag_18:\n      stop\n        /* \"D/Dynamic Link Library/Dynamic Link Library.sol\":5743:6104  function loadLibrary(string calldata path, address lib, bytes32 actualChecksum) external {... */\n    tag_6:\n      tag_22\n      0x04\n      dup1\n      calldatasize\n      sub\n      dup2\n      add\n      swap1\n      tag_23\n      swap2\n      swap1\n      tag_24\n      jump\t// in\n    tag_23:\n      tag_25\n      jump\t// in\n    tag_22:\n      stop\n        /* \"D/Dynamic Link Library/Dynamic Link Library.sol\":5190:5233  mapping(string => bytes32) public checksums */\n    tag_10:\n      0x01\n      dup2\n      dup1\n      mload\n      0x20\n      dup2\n      add\n      dup3\n      add\n      dup1\n      mload\n      dup5\n      dup3\n      mstore\n      0x20\n      dup4\n      add\n      0x20\n      dup6\n      add\n      keccak256\n      dup2\n      dup4\n      mstore\n      dup1\n      swap6\n      pop\n      pop\n      pop\n      pop\n      pop\n      pop\n      0x00\n      swap2\n      pop\n      swap1\n      pop\n      sload\n      dup2\n      jump\t// out\n        /* \"D/Dynamic Link Library/Dynamic Link Library.sol\":5141:5184  mapping(string => address) public libraries */\n    tag_15:\n      0x00\n      dup2\n      dup1\n      mload\n      0x20\n      dup2\n      add\n      dup3\n      add\n      dup1\n      mload\n      dup5\n      dup3\n      mstore\n      0x20\n      dup4\n      add\n      0x20\n      dup6\n      add\n      keccak256\n      dup2\n      dup4\n      mstore\n      dup1\n      swap6\n      pop\n      pop\n      pop\n      pop\n      pop\n      pop\n      0x00\n      swap2\n      pop\n      sload\n      swap1\n      0x0100\n      exp\n      swap1\n      div\n      0xffffffffffffffffffffffffffffffffffffffff\n      and\n      dup2\n      jump\t// out\n        /* \"D/Dynamic Link Library/Dynamic Link Library.sol\":5505:5737  function setChecksum(string calldata path, bytes32 checksum) external {... */\n    tag_21:\n        /* \"D/Dynamic Link Library/Dynamic Link Library.sol\":5647:5651  this */\n      address\n        /* \"D/Dynamic Link Library/Dynamic Link Library.sol\":5625:5652  msg.sender == address(this) */\n      0xffffffffffffffffffffffffffffffffffffffff\n      and\n        /* \"D/Dynamic Link Library/Dynamic Link Library.sol\":5625:5635  msg.sender */\n      caller\n        /* \"D/Dynamic Link Library/Dynamic Link Library.sol\":5625:5652  msg.sender == address(this) */\n      0xffffffffffffffffffffffffffffffffffffffff\n      and\n      eq\n        /* \"D/Dynamic Link Library/Dynamic Link Library.sol\":5625:5679  msg.sender == address(this) || msg.sender == tx.origin */\n      dup1\n      tag_27\n      jumpi\n      pop\n        /* \"D/Dynamic Link Library/Dynamic Link Library.sol\":5670:5679  tx.origin */\n      origin\n        /* \"D/Dynamic Link Library/Dynamic Link Library.sol\":5656:5679  msg.sender == tx.origin */\n      0xffffffffffffffffffffffffffffffffffffffff\n      and\n        /* \"D/Dynamic Link Library/Dynamic Link Library.sol\":5656:5666  msg.sender */\n      caller\n        /* \"D/Dynamic Link Library/Dynamic Link Library.sol\":5656:5679  msg.sender == tx.origin */\n      0xffffffffffffffffffffffffffffffffffffffff\n      and\n      eq\n        /* \"D/Dynamic Link Library/Dynamic Link Library.sol\":5625:5679  msg.sender == address(this) || msg.sender == tx.origin */\n    tag_27:\n        /* \"D/Dynamic Link Library/Dynamic Link Library.sol\":5617:5694  require(msg.sender == address(this) || msg.sender == tx.origin, \"only owner\") */\n      tag_28\n      jumpi\n      mload(0x40)\n      0x08c379a000000000000000000000000000000000000000000000000000000000\n      dup2\n      mstore\n      0x04\n      add\n      tag_29\n      swap1\n      tag_30\n      jump\t// in\n    tag_29:\n      mload(0x40)\n      dup1\n      swap2\n      sub\n      swap1\n      revert\n    tag_28:\n        /* \"D/Dynamic Link Library/Dynamic Link Library.sol\":5722:5730  checksum */\n      dup1\n        /* \"D/Dynamic Link Library/Dynamic Link Library.sol\":5704:5713  checksums */\n      0x01\n        /* \"D/Dynamic Link Library/Dynamic Link Library.sol\":5714:5718  path */\n      dup5\n      dup5\n        /* \"D/Dynamic Link Library/Dynamic Link Library.sol\":5704:5719  checksums[path] */\n      mload(0x40)\n      tag_31\n      swap3\n      swap2\n      swap1\n      tag_32\n      jump\t// in\n    tag_31:\n      swap1\n      dup2\n      mstore\n      0x20\n      add\n      mload(0x40)\n      dup1\n      swap2\n      sub\n      swap1\n      keccak256\n        /* \"D/Dynamic Link Library/Dynamic Link Library.sol\":5704:5730  checksums[path] = checksum */\n      dup2\n      swap1\n      sstore\n      pop\n        /* \"D/Dynamic Link Library/Dynamic Link Library.sol\":5505:5737  function setChecksum(string calldata path, bytes32 checksum) external {... */\n      pop\n      pop\n      pop\n      jump\t// out\n        /* \"D/Dynamic Link Library/Dynamic Link Library.sol\":5743:6104  function loadLibrary(string calldata path, address lib, bytes32 actualChecksum) external {... */\n    tag_25:\n        /* \"D/Dynamic Link Library/Dynamic Link Library.sol\":5842:5858  bytes32 expected */\n      0x00\n        /* \"D/Dynamic Link Library/Dynamic Link Library.sol\":5861:5870  checksums */\n      0x01\n        /* \"D/Dynamic Link Library/Dynamic Link Library.sol\":5871:5875  path */\n      dup6\n      dup6\n        /* \"D/Dynamic Link Library/Dynamic Link Library.sol\":5861:5876  checksums[path] */\n      mload(0x40)\n      tag_34\n      swap3\n      swap2\n      swap1\n      tag_32\n      jump\t// in\n    tag_34:\n      swap1\n      dup2\n      mstore\n      0x20\n      add\n      mload(0x40)\n      dup1\n      swap2\n      sub\n      swap1\n      keccak256\n      sload\n        /* \"D/Dynamic Link Library/Dynamic Link Library.sol\":5842:5876  bytes32 expected = checksums[path] */\n      swap1\n      pop\n        /* \"D/Dynamic Link Library/Dynamic Link Library.sol\":5910:5911  0 */\n      0x00\n        /* \"D/Dynamic Link Library/Dynamic Link Library.sol\":5902:5912  bytes32(0) */\n      dup1\n      shl\n        /* \"D/Dynamic Link Library/Dynamic Link Library.sol\":5890:5898  expected */\n      dup2\n        /* \"D/Dynamic Link Library/Dynamic Link Library.sol\":5890:5912  expected == bytes32(0) */\n      eq\n        /* \"D/Dynamic Link Library/Dynamic Link Library.sol\":5890:5942  expected == bytes32(0) || expected != actualChecksum */\n      dup1\n      tag_35\n      jumpi\n      pop\n        /* \"D/Dynamic Link Library/Dynamic Link Library.sol\":5928:5942  actualChecksum */\n      dup2\n        /* \"D/Dynamic Link Library/Dynamic Link Library.sol\":5916:5924  expected */\n      dup2\n        /* \"D/Dynamic Link Library/Dynamic Link Library.sol\":5916:5942  expected != actualChecksum */\n      eq\n      iszero\n        /* \"D/Dynamic Link Library/Dynamic Link Library.sol\":5890:5942  expected == bytes32(0) || expected != actualChecksum */\n    tag_35:\n        /* \"D/Dynamic Link Library/Dynamic Link Library.sol\":5886:5969  if (expected == bytes32(0) || expected != actualChecksum) revert DLL__BadChecksum() */\n      iszero\n      tag_36\n      jumpi\n        /* \"D/Dynamic Link Library/Dynamic Link Library.sol\":5951:5969  DLL__BadChecksum() */\n      mload(0x40)\n      0x04607f2400000000000000000000000000000000000000000000000000000000\n      dup2\n      mstore\n      0x04\n      add\n      mload(0x40)\n      dup1\n      swap2\n      sub\n      swap1\n      revert\n        /* \"D/Dynamic Link Library/Dynamic Link Library.sol\":5886:5969  if (expected == bytes32(0) || expected != actualChecksum) revert DLL__BadChecksum() */\n    tag_36:\n        /* \"D/Dynamic Link Library/Dynamic Link Library.sol\":5997:6000  lib */\n      dup3\n        /* \"D/Dynamic Link Library/Dynamic Link Library.sol\":5979:5988  libraries */\n      0x00\n        /* \"D/Dynamic Link Library/Dynamic Link Library.sol\":5989:5993  path */\n      dup7\n      dup7\n        /* \"D/Dynamic Link Library/Dynamic Link Library.sol\":5979:5994  libraries[path] */\n      mload(0x40)\n      tag_37\n      swap3\n      swap2\n      swap1\n      tag_32\n      jump\t// in\n    tag_37:\n      swap1\n      dup2\n      mstore\n      0x20\n      add\n      mload(0x40)\n      dup1\n      swap2\n      sub\n      swap1\n      keccak256\n      0x00\n        /* \"D/Dynamic Link Library/Dynamic Link Library.sol\":5979:6000  libraries[path] = lib */\n      0x0100\n      exp\n      dup2\n      sload\n      dup2\n      0xffffffffffffffffffffffffffffffffffffffff\n      mul\n      not\n      and\n      swap1\n      dup4\n      0xffffffffffffffffffffffffffffffffffffffff\n      and\n      mul\n      or\n      swap1\n      sstore\n      pop\n        /* \"D/Dynamic Link Library/Dynamic Link Library.sol\":6029:6039  msg.sender */\n      caller\n        /* \"D/Dynamic Link Library/Dynamic Link Library.sol\":6015:6097  LibraryLoaded(msg.sender, path, lib, DynamicLinkLibraryDefenseType.IntegrityCheck) */\n      0xffffffffffffffffffffffffffffffffffffffff\n      and\n      0xd477ea6b1e623bd0fb7ee4281a3d6c60aadc66677a07c44145e0d8e40fa97a15\n        /* \"D/Dynamic Link Library/Dynamic Link Library.sol\":6041:6045  path */\n      dup7\n      dup7\n        /* \"D/Dynamic Link Library/Dynamic Link Library.sol\":6047:6050  lib */\n      dup7\n        /* \"D/Dynamic Link Library/Dynamic Link Library.sol\":6052:6096  DynamicLinkLibraryDefenseType.IntegrityCheck */\n      0x03\n        /* \"D/Dynamic Link Library/Dynamic Link Library.sol\":6015:6097  LibraryLoaded(msg.sender, path, lib, DynamicLinkLibraryDefenseType.IntegrityCheck) */\n      mload(0x40)\n      tag_38\n      swap5\n      swap4\n      swap3\n      swap2\n      swap1\n      tag_39\n      jump\t// in\n    tag_38:\n      mload(0x40)\n      dup1\n      swap2\n      sub\n      swap1\n      log2\n        /* \"D/Dynamic Link Library/Dynamic Link Library.sol\":5832:6104  {... */\n      pop\n        /* \"D/Dynamic Link Library/Dynamic Link Library.sol\":5743:6104  function loadLibrary(string calldata path, address lib, bytes32 actualChecksum) external {... */\n      pop\n      pop\n      pop\n      pop\n      jump\t// out\n        /* \"#utility.yul\":7:82   */\n    tag_40:\n        /* \"#utility.yul\":40:46   */\n      0x00\n        /* \"#utility.yul\":73:75   */\n      0x40\n        /* \"#utility.yul\":67:76   */\n      mload\n        /* \"#utility.yul\":57:76   */\n      swap1\n      pop\n        /* \"#utility.yul\":7:82   */\n      swap1\n      jump\t// out\n        /* \"#utility.yul\":88:205   */\n    tag_41:\n        /* \"#utility.yul\":197:198   */\n      0x00\n        /* \"#utility.yul\":194:195   */\n      dup1\n        /* \"#utility.yul\":187:199   */\n      revert\n        /* \"#utility.yul\":211:328   */\n    tag_42:\n        /* \"#utility.yul\":320:321   */\n      0x00\n        /* \"#utility.yul\":317:318   */\n      dup1\n        /* \"#utility.yul\":310:322   */\n      revert\n        /* \"#utility.yul\":334:451   */\n    tag_43:\n        /* \"#utility.yul\":443:444   */\n      0x00\n        /* \"#utility.yul\":440:441   */\n      dup1\n        /* \"#utility.yul\":433:445   */\n      revert\n        /* \"#utility.yul\":457:574   */\n    tag_44:\n        /* \"#utility.yul\":566:567   */\n      0x00\n        /* \"#utility.yul\":563:564   */\n      dup1\n        /* \"#utility.yul\":556:568   */\n      revert\n        /* \"#utility.yul\":580:682   */\n    tag_45:\n        /* \"#utility.yul\":621:627   */\n      0x00\n        /* \"#utility.yul\":672:674   */\n      0x1f\n        /* \"#utility.yul\":668:675   */\n      not\n        /* \"#utility.yul\":663:665   */\n      0x1f\n        /* \"#utility.yul\":656:661   */\n      dup4\n        /* \"#utility.yul\":652:666   */\n      add\n        /* \"#utility.yul\":648:676   */\n      and\n        /* \"#utility.yul\":638:676   */\n      swap1\n      pop\n        /* \"#utility.yul\":580:682   */\n      swap2\n      swap1\n      pop\n      jump\t// out\n        /* \"#utility.yul\":688:868   */\n    tag_46:\n        /* \"#utility.yul\":736:813   */\n      0x4e487b7100000000000000000000000000000000000000000000000000000000\n        /* \"#utility.yul\":733:734   */\n      0x00\n        /* \"#utility.yul\":726:814   */\n      mstore\n        /* \"#utility.yul\":833:837   */\n      0x41\n        /* \"#utility.yul\":830:831   */\n      0x04\n        /* \"#utility.yul\":823:838   */\n      mstore\n        /* \"#utility.yul\":857:861   */\n      0x24\n        /* \"#utility.yul\":854:855   */\n      0x00\n        /* \"#utility.yul\":847:862   */\n      revert\n        /* \"#utility.yul\":874:1155   */\n    tag_47:\n        /* \"#utility.yul\":957:984   */\n      tag_85\n        /* \"#utility.yul\":979:983   */\n      dup3\n        /* \"#utility.yul\":957:984   */\n      tag_45\n      jump\t// in\n    tag_85:\n        /* \"#utility.yul\":949:955   */\n      dup2\n        /* \"#utility.yul\":945:985   */\n      add\n        /* \"#utility.yul\":1087:1093   */\n      dup2\n        /* \"#utility.yul\":1075:1085   */\n      dup2\n        /* \"#utility.yul\":1072:1094   */\n      lt\n        /* \"#utility.yul\":1051:1069   */\n      0xffffffffffffffff\n        /* \"#utility.yul\":1039:1049   */\n      dup3\n        /* \"#utility.yul\":1036:1070   */\n      gt\n        /* \"#utility.yul\":1033:1095   */\n      or\n        /* \"#utility.yul\":1030:1118   */\n      iszero\n      tag_86\n      jumpi\n        /* \"#utility.yul\":1098:1116   */\n      tag_87\n      tag_46\n      jump\t// in\n    tag_87:\n        /* \"#utility.yul\":1030:1118   */\n    tag_86:\n        /* \"#utility.yul\":1138:1148   */\n      dup1\n        /* \"#utility.yul\":1134:1136   */\n      0x40\n        /* \"#utility.yul\":1127:1149   */\n      mstore\n        /* \"#utility.yul\":917:1155   */\n      pop\n        /* \"#utility.yul\":874:1155   */\n      pop\n      pop\n      jump\t// out\n        /* \"#utility.yul\":1161:1290   */\n    tag_48:\n        /* \"#utility.yul\":1195:1201   */\n      0x00\n        /* \"#utility.yul\":1222:1242   */\n      tag_89\n      tag_40\n      jump\t// in\n    tag_89:\n        /* \"#utility.yul\":1212:1242   */\n      swap1\n      pop\n        /* \"#utility.yul\":1251:1284   */\n      tag_90\n        /* \"#utility.yul\":1279:1283   */\n      dup3\n        /* \"#utility.yul\":1271:1277   */\n      dup3\n        /* \"#utility.yul\":1251:1284   */\n      tag_47\n      jump\t// in\n    tag_90:\n        /* \"#utility.yul\":1161:1290   */\n      swap2\n      swap1\n      pop\n      jump\t// out\n        /* \"#utility.yul\":1296:1604   */\n    tag_49:\n        /* \"#utility.yul\":1358:1362   */\n      0x00\n        /* \"#utility.yul\":1448:1466   */\n      0xffffffffffffffff\n        /* \"#utility.yul\":1440:1446   */\n      dup3\n        /* \"#utility.yul\":1437:1467   */\n      gt\n        /* \"#utility.yul\":1434:1490   */\n      iszero\n      tag_92\n      jumpi\n        /* \"#utility.yul\":1470:1488   */\n      tag_93\n      tag_46\n      jump\t// in\n    tag_93:\n        /* \"#utility.yul\":1434:1490   */\n    tag_92:\n        /* \"#utility.yul\":1508:1537   */\n      tag_94\n        /* \"#utility.yul\":1530:1536   */\n      dup3\n        /* \"#utility.yul\":1508:1537   */\n      tag_45\n      jump\t// in\n    tag_94:\n        /* \"#utility.yul\":1500:1537   */\n      swap1\n      pop\n        /* \"#utility.yul\":1592:1596   */\n      0x20\n        /* \"#utility.yul\":1586:1590   */\n      dup2\n        /* \"#utility.yul\":1582:1597   */\n      add\n        /* \"#utility.yul\":1574:1597   */\n      swap1\n      pop\n        /* \"#utility.yul\":1296:1604   */\n      swap2\n      swap1\n      pop\n      jump\t// out\n        /* \"#utility.yul\":1610:1758   */\n    tag_50:\n        /* \"#utility.yul\":1708:1714   */\n      dup3\n        /* \"#utility.yul\":1703:1706   */\n      dup2\n        /* \"#utility.yul\":1698:1701   */\n      dup4\n        /* \"#utility.yul\":1685:1715   */\n      calldatacopy\n        /* \"#utility.yul\":1749:1750   */\n      0x00\n        /* \"#utility.yul\":1740:1746   */\n      dup4\n        /* \"#utility.yul\":1735:1738   */\n      dup4\n        /* \"#utility.yul\":1731:1747   */\n      add\n        /* \"#utility.yul\":1724:1751   */\n      mstore\n        /* \"#utility.yul\":1610:1758   */\n      pop\n      pop\n      pop\n      jump\t// out\n        /* \"#utility.yul\":1764:2189   */\n    tag_51:\n        /* \"#utility.yul\":1842:1847   */\n      0x00\n        /* \"#utility.yul\":1867:1933   */\n      tag_97\n        /* \"#utility.yul\":1883:1932   */\n      tag_98\n        /* \"#utility.yul\":1925:1931   */\n      dup5\n        /* \"#utility.yul\":1883:1932   */\n      tag_49\n      jump\t// in\n    tag_98:\n        /* \"#utility.yul\":1867:1933   */\n      tag_48\n      jump\t// in\n    tag_97:\n        /* \"#utility.yul\":1858:1933   */\n      swap1\n      pop\n        /* \"#utility.yul\":1956:1962   */\n      dup3\n        /* \"#utility.yul\":1949:1954   */\n      dup2\n        /* \"#utility.yul\":1942:1963   */\n      mstore\n        /* \"#utility.yul\":1994:1998   */\n      0x20\n        /* \"#utility.yul\":1987:1992   */\n      dup2\n        /* \"#utility.yul\":1983:1999   */\n      add\n        /* \"#utility.yul\":2032:2035   */\n      dup5\n        /* \"#utility.yul\":2023:2029   */\n      dup5\n        /* \"#utility.yul\":2018:2021   */\n      dup5\n        /* \"#utility.yul\":2014:2030   */\n      add\n        /* \"#utility.yul\":2011:2036   */\n      gt\n        /* \"#utility.yul\":2008:2120   */\n      iszero\n      tag_99\n      jumpi\n        /* \"#utility.yul\":2039:2118   */\n      tag_100\n      tag_44\n      jump\t// in\n    tag_100:\n        /* \"#utility.yul\":2008:2120   */\n    tag_99:\n        /* \"#utility.yul\":2129:2183   */\n      tag_101\n        /* \"#utility.yul\":2176:2182   */\n      dup5\n        /* \"#utility.yul\":2171:2174   */\n      dup3\n        /* \"#utility.yul\":2166:2169   */\n      dup6\n        /* \"#utility.yul\":2129:2183   */\n      tag_50\n      jump\t// in\n    tag_101:\n        /* \"#utility.yul\":1848:2189   */\n      pop\n        /* \"#utility.yul\":1764:2189   */\n      swap4\n      swap3\n      pop\n      pop\n      pop\n      jump\t// out\n        /* \"#utility.yul\":2209:2549   */\n    tag_52:\n        /* \"#utility.yul\":2265:2270   */\n      0x00\n        /* \"#utility.yul\":2314:2317   */\n      dup3\n        /* \"#utility.yul\":2307:2311   */\n      0x1f\n        /* \"#utility.yul\":2299:2305   */\n      dup4\n        /* \"#utility.yul\":2295:2312   */\n      add\n        /* \"#utility.yul\":2291:2318   */\n      slt\n        /* \"#utility.yul\":2281:2403   */\n      tag_103\n      jumpi\n        /* \"#utility.yul\":2322:2401   */\n      tag_104\n      tag_43\n      jump\t// in\n    tag_104:\n        /* \"#utility.yul\":2281:2403   */\n    tag_103:\n        /* \"#utility.yul\":2439:2445   */\n      dup2\n        /* \"#utility.yul\":2426:2446   */\n      calldataload\n        /* \"#utility.yul\":2464:2543   */\n      tag_105\n        /* \"#utility.yul\":2539:2542   */\n      dup5\n        /* \"#utility.yul\":2531:2537   */\n      dup3\n        /* \"#utility.yul\":2524:2528   */\n      0x20\n        /* \"#utility.yul\":2516:2522   */\n      dup7\n        /* \"#utility.yul\":2512:2529   */\n      add\n        /* \"#utility.yul\":2464:2543   */\n      tag_51\n      jump\t// in\n    tag_105:\n        /* \"#utility.yul\":2455:2543   */\n      swap2\n      pop\n        /* \"#utility.yul\":2271:2549   */\n      pop\n        /* \"#utility.yul\":2209:2549   */\n      swap3\n      swap2\n      pop\n      pop\n      jump\t// out\n        /* \"#utility.yul\":2555:3064   */\n    tag_9:\n        /* \"#utility.yul\":2624:2630   */\n      0x00\n        /* \"#utility.yul\":2673:2675   */\n      0x20\n        /* \"#utility.yul\":2661:2670   */\n      dup3\n        /* \"#utility.yul\":2652:2659   */\n      dup5\n        /* \"#utility.yul\":2648:2671   */\n      sub\n        /* \"#utility.yul\":2644:2676   */\n      slt\n        /* \"#utility.yul\":2641:2760   */\n      iszero\n      tag_107\n      jumpi\n        /* \"#utility.yul\":2679:2758   */\n      tag_108\n      tag_41\n      jump\t// in\n    tag_108:\n        /* \"#utility.yul\":2641:2760   */\n    tag_107:\n        /* \"#utility.yul\":2827:2828   */\n      0x00\n        /* \"#utility.yul\":2816:2825   */\n      dup3\n        /* \"#utility.yul\":2812:2829   */\n      add\n        /* \"#utility.yul\":2799:2830   */\n      calldataload\n        /* \"#utility.yul\":2857:2875   */\n      0xffffffffffffffff\n        /* \"#utility.yul\":2849:2855   */\n      dup2\n        /* \"#utility.yul\":2846:2876   */\n      gt\n        /* \"#utility.yul\":2843:2960   */\n      iszero\n      tag_109\n      jumpi\n        /* \"#utility.yul\":2879:2958   */\n      tag_110\n      tag_42\n      jump\t// in\n    tag_110:\n        /* \"#utility.yul\":2843:2960   */\n    tag_109:\n        /* \"#utility.yul\":2984:3047   */\n      tag_111\n        /* \"#utility.yul\":3039:3046   */\n      dup5\n        /* \"#utility.yul\":3030:3036   */\n      dup3\n        /* \"#utility.yul\":3019:3028   */\n      dup6\n        /* \"#utility.yul\":3015:3037   */\n      add\n        /* \"#utility.yul\":2984:3047   */\n      tag_52\n      jump\t// in\n    tag_111:\n        /* \"#utility.yul\":2974:3047   */\n      swap2\n      pop\n        /* \"#utility.yul\":2770:3057   */\n      pop\n        /* \"#utility.yul\":2555:3064   */\n      swap3\n      swap2\n      pop\n      pop\n      jump\t// out\n        /* \"#utility.yul\":3070:3147   */\n    tag_53:\n        /* \"#utility.yul\":3107:3114   */\n      0x00\n        /* \"#utility.yul\":3136:3141   */\n      dup2\n        /* \"#utility.yul\":3125:3141   */\n      swap1\n      pop\n        /* \"#utility.yul\":3070:3147   */\n      swap2\n      swap1\n      pop\n      jump\t// out\n        /* \"#utility.yul\":3153:3271   */\n    tag_54:\n        /* \"#utility.yul\":3240:3264   */\n      tag_114\n        /* \"#utility.yul\":3258:3263   */\n      dup2\n        /* \"#utility.yul\":3240:3264   */\n      tag_53\n      jump\t// in\n    tag_114:\n        /* \"#utility.yul\":3235:3238   */\n      dup3\n        /* \"#utility.yul\":3228:3265   */\n      mstore\n        /* \"#utility.yul\":3153:3271   */\n      pop\n      pop\n      jump\t// out\n        /* \"#utility.yul\":3277:3499   */\n    tag_12:\n        /* \"#utility.yul\":3370:3374   */\n      0x00\n        /* \"#utility.yul\":3408:3410   */\n      0x20\n        /* \"#utility.yul\":3397:3406   */\n      dup3\n        /* \"#utility.yul\":3393:3411   */\n      add\n        /* \"#utility.yul\":3385:3411   */\n      swap1\n      pop\n        /* \"#utility.yul\":3421:3492   */\n      tag_116\n        /* \"#utility.yul\":3489:3490   */\n      0x00\n        /* \"#utility.yul\":3478:3487   */\n      dup4\n        /* \"#utility.yul\":3474:3491   */\n      add\n        /* \"#utility.yul\":3465:3471   */\n      dup5\n        /* \"#utility.yul\":3421:3492   */\n      tag_54\n      jump\t// in\n    tag_116:\n        /* \"#utility.yul\":3277:3499   */\n      swap3\n      swap2\n      pop\n      pop\n      jump\t// out\n        /* \"#utility.yul\":3505:3631   */\n    tag_55:\n        /* \"#utility.yul\":3542:3549   */\n      0x00\n        /* \"#utility.yul\":3582:3624   */\n      0xffffffffffffffffffffffffffffffffffffffff\n        /* \"#utility.yul\":3575:3580   */\n      dup3\n        /* \"#utility.yul\":3571:3625   */\n      and\n        /* \"#utility.yul\":3560:3625   */\n      swap1\n      pop\n        /* \"#utility.yul\":3505:3631   */\n      swap2\n      swap1\n      pop\n      jump\t// out\n        /* \"#utility.yul\":3637:3733   */\n    tag_56:\n        /* \"#utility.yul\":3674:3681   */\n      0x00\n        /* \"#utility.yul\":3703:3727   */\n      tag_119\n        /* \"#utility.yul\":3721:3726   */\n      dup3\n        /* \"#utility.yul\":3703:3727   */\n      tag_55\n      jump\t// in\n    tag_119:\n        /* \"#utility.yul\":3692:3727   */\n      swap1\n      pop\n        /* \"#utility.yul\":3637:3733   */\n      swap2\n      swap1\n      pop\n      jump\t// out\n        /* \"#utility.yul\":3739:3857   */\n    tag_57:\n        /* \"#utility.yul\":3826:3850   */\n      tag_121\n        /* \"#utility.yul\":3844:3849   */\n      dup2\n        /* \"#utility.yul\":3826:3850   */\n      tag_56\n      jump\t// in\n    tag_121:\n        /* \"#utility.yul\":3821:3824   */\n      dup3\n        /* \"#utility.yul\":3814:3851   */\n      mstore\n        /* \"#utility.yul\":3739:3857   */\n      pop\n      pop\n      jump\t// out\n        /* \"#utility.yul\":3863:4085   */\n    tag_17:\n        /* \"#utility.yul\":3956:3960   */\n      0x00\n        /* \"#utility.yul\":3994:3996   */\n      0x20\n        /* \"#utility.yul\":3983:3992   */\n      dup3\n        /* \"#utility.yul\":3979:3997   */\n      add\n        /* \"#utility.yul\":3971:3997   */\n      swap1\n      pop\n        /* \"#utility.yul\":4007:4078   */\n      tag_123\n        /* \"#utility.yul\":4075:4076   */\n      0x00\n        /* \"#utility.yul\":4064:4073   */\n      dup4\n        /* \"#utility.yul\":4060:4077   */\n      add\n        /* \"#utility.yul\":4051:4057   */\n      dup5\n        /* \"#utility.yul\":4007:4078   */\n      tag_57\n      jump\t// in\n    tag_123:\n        /* \"#utility.yul\":3863:4085   */\n      swap3\n      swap2\n      pop\n      pop\n      jump\t// out\n        /* \"#utility.yul\":4091:4208   */\n    tag_58:\n        /* \"#utility.yul\":4200:4201   */\n      0x00\n        /* \"#utility.yul\":4197:4198   */\n      dup1\n        /* \"#utility.yul\":4190:4202   */\n      revert\n        /* \"#utility.yul\":4214:4331   */\n    tag_59:\n        /* \"#utility.yul\":4323:4324   */\n      0x00\n        /* \"#utility.yul\":4320:4321   */\n      dup1\n        /* \"#utility.yul\":4313:4325   */\n      revert\n        /* \"#utility.yul\":4351:4904   */\n    tag_60:\n        /* \"#utility.yul\":4409:4417   */\n      0x00\n        /* \"#utility.yul\":4419:4425   */\n      dup1\n        /* \"#utility.yul\":4469:4472   */\n      dup4\n        /* \"#utility.yul\":4462:4466   */\n      0x1f\n        /* \"#utility.yul\":4454:4460   */\n      dup5\n        /* \"#utility.yul\":4450:4467   */\n      add\n        /* \"#utility.yul\":4446:4473   */\n      slt\n        /* \"#utility.yul\":4436:4558   */\n      tag_127\n      jumpi\n        /* \"#utility.yul\":4477:4556   */\n      tag_128\n      tag_43\n      jump\t// in\n    tag_128:\n        /* \"#utility.yul\":4436:4558   */\n    tag_127:\n        /* \"#utility.yul\":4590:4596   */\n      dup3\n        /* \"#utility.yul\":4577:4597   */\n      calldataload\n        /* \"#utility.yul\":4567:4597   */\n      swap1\n      pop\n        /* \"#utility.yul\":4620:4638   */\n      0xffffffffffffffff\n        /* \"#utility.yul\":4612:4618   */\n      dup2\n        /* \"#utility.yul\":4609:4639   */\n      gt\n        /* \"#utility.yul\":4606:4723   */\n      iszero\n      tag_129\n      jumpi\n        /* \"#utility.yul\":4642:4721   */\n      tag_130\n      tag_58\n      jump\t// in\n    tag_130:\n        /* \"#utility.yul\":4606:4723   */\n    tag_129:\n        /* \"#utility.yul\":4756:4760   */\n      0x20\n        /* \"#utility.yul\":4748:4754   */\n      dup4\n        /* \"#utility.yul\":4744:4761   */\n      add\n        /* \"#utility.yul\":4732:4761   */\n      swap2\n      pop\n        /* \"#utility.yul\":4810:4813   */\n      dup4\n        /* \"#utility.yul\":4802:4806   */\n      0x01\n        /* \"#utility.yul\":4794:4800   */\n      dup3\n        /* \"#utility.yul\":4790:4807   */\n      mul\n        /* \"#utility.yul\":4780:4788   */\n      dup4\n        /* \"#utility.yul\":4776:4808   */\n      add\n        /* \"#utility.yul\":4773:4814   */\n      gt\n        /* \"#utility.yul\":4770:4898   */\n      iszero\n      tag_131\n      jumpi\n        /* \"#utility.yul\":4817:4896   */\n      tag_132\n      tag_59\n      jump\t// in\n    tag_132:\n        /* \"#utility.yul\":4770:4898   */\n    tag_131:\n        /* \"#utility.yul\":4351:4904   */\n      swap3\n      pop\n      swap3\n      swap1\n      pop\n      jump\t// out\n        /* \"#utility.yul\":4910:5032   */\n    tag_61:\n        /* \"#utility.yul\":4983:5007   */\n      tag_134\n        /* \"#utility.yul\":5001:5006   */\n      dup2\n        /* \"#utility.yul\":4983:5007   */\n      tag_53\n      jump\t// in\n    tag_134:\n        /* \"#utility.yul\":4976:4981   */\n      dup2\n        /* \"#utility.yul\":4973:5008   */\n      eq\n        /* \"#utility.yul\":4963:5026   */\n      tag_135\n      jumpi\n        /* \"#utility.yul\":5022:5023   */\n      0x00\n        /* \"#utility.yul\":5019:5020   */\n      dup1\n        /* \"#utility.yul\":5012:5024   */\n      revert\n        /* \"#utility.yul\":4963:5026   */\n    tag_135:\n        /* \"#utility.yul\":4910:5032   */\n      pop\n      jump\t// out\n        /* \"#utility.yul\":5038:5177   */\n    tag_62:\n        /* \"#utility.yul\":5084:5089   */\n      0x00\n        /* \"#utility.yul\":5122:5128   */\n      dup2\n        /* \"#utility.yul\":5109:5129   */\n      calldataload\n        /* \"#utility.yul\":5100:5129   */\n      swap1\n      pop\n        /* \"#utility.yul\":5138:5171   */\n      tag_137\n        /* \"#utility.yul\":5165:5170   */\n      dup2\n        /* \"#utility.yul\":5138:5171   */\n      tag_61\n      jump\t// in\n    tag_137:\n        /* \"#utility.yul\":5038:5177   */\n      swap3\n      swap2\n      pop\n      pop\n      jump\t// out\n        /* \"#utility.yul\":5183:5857   */\n    tag_20:\n        /* \"#utility.yul\":5263:5269   */\n      0x00\n        /* \"#utility.yul\":5271:5277   */\n      dup1\n        /* \"#utility.yul\":5279:5285   */\n      0x00\n        /* \"#utility.yul\":5328:5330   */\n      0x40\n        /* \"#utility.yul\":5316:5325   */\n      dup5\n        /* \"#utility.yul\":5307:5314   */\n      dup7\n        /* \"#utility.yul\":5303:5326   */\n      sub\n        /* \"#utility.yul\":5299:5331   */\n      slt\n        /* \"#utility.yul\":5296:5415   */\n      iszero\n      tag_139\n      jumpi\n        /* \"#utility.yul\":5334:5413   */\n      tag_140\n      tag_41\n      jump\t// in\n    tag_140:\n        /* \"#utility.yul\":5296:5415   */\n    tag_139:\n        /* \"#utility.yul\":5482:5483   */\n      0x00\n        /* \"#utility.yul\":5471:5480   */\n      dup5\n        /* \"#utility.yul\":5467:5484   */\n      add\n        /* \"#utility.yul\":5454:5485   */\n      calldataload\n        /* \"#utility.yul\":5512:5530   */\n      0xffffffffffffffff\n        /* \"#utility.yul\":5504:5510   */\n      dup2\n        /* \"#utility.yul\":5501:5531   */\n      gt\n        /* \"#utility.yul\":5498:5615   */\n      iszero\n      tag_141\n      jumpi\n        /* \"#utility.yul\":5534:5613   */\n      tag_142\n      tag_42\n      jump\t// in\n    tag_142:\n        /* \"#utility.yul\":5498:5615   */\n    tag_141:\n        /* \"#utility.yul\":5647:5712   */\n      tag_143\n        /* \"#utility.yul\":5704:5711   */\n      dup7\n        /* \"#utility.yul\":5695:5701   */\n      dup3\n        /* \"#utility.yul\":5684:5693   */\n      dup8\n        /* \"#utility.yul\":5680:5702   */\n      add\n        /* \"#utility.yul\":5647:5712   */\n      tag_60\n      jump\t// in\n    tag_143:\n        /* \"#utility.yul\":5629:5712   */\n      swap4\n      pop\n      swap4\n      pop\n        /* \"#utility.yul\":5425:5722   */\n      pop\n        /* \"#utility.yul\":5761:5763   */\n      0x20\n        /* \"#utility.yul\":5787:5840   */\n      tag_144\n        /* \"#utility.yul\":5832:5839   */\n      dup7\n        /* \"#utility.yul\":5823:5829   */\n      dup3\n        /* \"#utility.yul\":5812:5821   */\n      dup8\n        /* \"#utility.yul\":5808:5830   */\n      add\n        /* \"#utility.yul\":5787:5840   */\n      tag_62\n      jump\t// in\n    tag_144:\n        /* \"#utility.yul\":5777:5840   */\n      swap2\n      pop\n        /* \"#utility.yul\":5732:5850   */\n      pop\n        /* \"#utility.yul\":5183:5857   */\n      swap3\n      pop\n      swap3\n      pop\n      swap3\n      jump\t// out\n        /* \"#utility.yul\":5863:5985   */\n    tag_63:\n        /* \"#utility.yul\":5936:5960   */\n      tag_146\n        /* \"#utility.yul\":5954:5959   */\n      dup2\n        /* \"#utility.yul\":5936:5960   */\n      tag_56\n      jump\t// in\n    tag_146:\n        /* \"#utility.yul\":5929:5934   */\n      dup2\n        /* \"#utility.yul\":5926:5961   */\n      eq\n        /* \"#utility.yul\":5916:5979   */\n      tag_147\n      jumpi\n        /* \"#utility.yul\":5975:5976   */\n      0x00\n        /* \"#utility.yul\":5972:5973   */\n      dup1\n        /* \"#utility.yul\":5965:5977   */\n      revert\n        /* \"#utility.yul\":5916:5979   */\n    tag_147:\n        /* \"#utility.yul\":5863:5985   */\n      pop\n      jump\t// out\n        /* \"#utility.yul\":5991:6130   */\n    tag_64:\n        /* \"#utility.yul\":6037:6042   */\n      0x00\n        /* \"#utility.yul\":6075:6081   */\n      dup2\n        /* \"#utility.yul\":6062:6082   */\n      calldataload\n        /* \"#utility.yul\":6053:6082   */\n      swap1\n      pop\n        /* \"#utility.yul\":6091:6124   */\n      tag_149\n        /* \"#utility.yul\":6118:6123   */\n      dup2\n        /* \"#utility.yul\":6091:6124   */\n      tag_63\n      jump\t// in\n    tag_149:\n        /* \"#utility.yul\":5991:6130   */\n      swap3\n      swap2\n      pop\n      pop\n      jump\t// out\n        /* \"#utility.yul\":6136:6955   */\n    tag_24:\n        /* \"#utility.yul\":6225:6231   */\n      0x00\n        /* \"#utility.yul\":6233:6239   */\n      dup1\n        /* \"#utility.yul\":6241:6247   */\n      0x00\n        /* \"#utility.yul\":6249:6255   */\n      dup1\n        /* \"#utility.yul\":6298:6300   */\n      0x60\n        /* \"#utility.yul\":6286:6295   */\n      dup6\n        /* \"#utility.yul\":6277:6284   */\n      dup8\n        /* \"#utility.yul\":6273:6296   */\n      sub\n        /* \"#utility.yul\":6269:6301   */\n      slt\n        /* \"#utility.yul\":6266:6385   */\n      iszero\n      tag_151\n      jumpi\n        /* \"#utility.yul\":6304:6383   */\n      tag_152\n      tag_41\n      jump\t// in\n    tag_152:\n        /* \"#utility.yul\":6266:6385   */\n    tag_151:\n        /* \"#utility.yul\":6452:6453   */\n      0x00\n        /* \"#utility.yul\":6441:6450   */\n      dup6\n        /* \"#utility.yul\":6437:6454   */\n      add\n        /* \"#utility.yul\":6424:6455   */\n      calldataload\n        /* \"#utility.yul\":6482:6500   */\n      0xffffffffffffffff\n        /* \"#utility.yul\":6474:6480   */\n      dup2\n        /* \"#utility.yul\":6471:6501   */\n      gt\n        /* \"#utility.yul\":6468:6585   */\n      iszero\n      tag_153\n      jumpi\n        /* \"#utility.yul\":6504:6583   */\n      tag_154\n      tag_42\n      jump\t// in\n    tag_154:\n        /* \"#utility.yul\":6468:6585   */\n    tag_153:\n        /* \"#utility.yul\":6617:6682   */\n      tag_155\n        /* \"#utility.yul\":6674:6681   */\n      dup8\n        /* \"#utility.yul\":6665:6671   */\n      dup3\n        /* \"#utility.yul\":6654:6663   */\n      dup9\n        /* \"#utility.yul\":6650:6672   */\n      add\n        /* \"#utility.yul\":6617:6682   */\n      tag_60\n      jump\t// in\n    tag_155:\n        /* \"#utility.yul\":6599:6682   */\n      swap5\n      pop\n      swap5\n      pop\n        /* \"#utility.yul\":6395:6692   */\n      pop\n        /* \"#utility.yul\":6731:6733   */\n      0x20\n        /* \"#utility.yul\":6757:6810   */\n      tag_156\n        /* \"#utility.yul\":6802:6809   */\n      dup8\n        /* \"#utility.yul\":6793:6799   */\n      dup3\n        /* \"#utility.yul\":6782:6791   */\n      dup9\n        /* \"#utility.yul\":6778:6800   */\n      add\n        /* \"#utility.yul\":6757:6810   */\n      tag_64\n      jump\t// in\n    tag_156:\n        /* \"#utility.yul\":6747:6810   */\n      swap3\n      pop\n        /* \"#utility.yul\":6702:6820   */\n      pop\n        /* \"#utility.yul\":6859:6861   */\n      0x40\n        /* \"#utility.yul\":6885:6938   */\n      tag_157\n        /* \"#utility.yul\":6930:6937   */\n      dup8\n        /* \"#utility.yul\":6921:6927   */\n      dup3\n        /* \"#utility.yul\":6910:6919   */\n      dup9\n        /* \"#utility.yul\":6906:6928   */\n      add\n        /* \"#utility.yul\":6885:6938   */\n      tag_62\n      jump\t// in\n    tag_157:\n        /* \"#utility.yul\":6875:6938   */\n      swap2\n      pop\n        /* \"#utility.yul\":6830:6948   */\n      pop\n        /* \"#utility.yul\":6136:6955   */\n      swap3\n      swap6\n      swap2\n      swap5\n      pop\n      swap3\n      pop\n      jump\t// out\n        /* \"#utility.yul\":6961:7130   */\n    tag_65:\n        /* \"#utility.yul\":7045:7056   */\n      0x00\n        /* \"#utility.yul\":7079:7085   */\n      dup3\n        /* \"#utility.yul\":7074:7077   */\n      dup3\n        /* \"#utility.yul\":7067:7086   */\n      mstore\n        /* \"#utility.yul\":7119:7123   */\n      0x20\n        /* \"#utility.yul\":7114:7117   */\n      dup3\n        /* \"#utility.yul\":7110:7124   */\n      add\n        /* \"#utility.yul\":7095:7124   */\n      swap1\n      pop\n        /* \"#utility.yul\":6961:7130   */\n      swap3\n      swap2\n      pop\n      pop\n      jump\t// out\n        /* \"#utility.yul\":7136:7296   */\n    tag_66:\n        /* \"#utility.yul\":7276:7288   */\n      0x6f6e6c79206f776e657200000000000000000000000000000000000000000000\n        /* \"#utility.yul\":7272:7273   */\n      0x00\n        /* \"#utility.yul\":7264:7270   */\n      dup3\n        /* \"#utility.yul\":7260:7274   */\n      add\n        /* \"#utility.yul\":7253:7289   */\n      mstore\n        /* \"#utility.yul\":7136:7296   */\n      pop\n      jump\t// out\n        /* \"#utility.yul\":7302:7668   */\n    tag_67:\n        /* \"#utility.yul\":7444:7447   */\n      0x00\n        /* \"#utility.yul\":7465:7532   */\n      tag_161\n        /* \"#utility.yul\":7529:7531   */\n      0x0a\n        /* \"#utility.yul\":7524:7527   */\n      dup4\n        /* \"#utility.yul\":7465:7532   */\n      tag_65\n      jump\t// in\n    tag_161:\n        /* \"#utility.yul\":7458:7532   */\n      swap2\n      pop\n        /* \"#utility.yul\":7541:7634   */\n      tag_162\n        /* \"#utility.yul\":7630:7633   */\n      dup3\n        /* \"#utility.yul\":7541:7634   */\n      tag_66\n      jump\t// in\n    tag_162:\n        /* \"#utility.yul\":7659:7661   */\n      0x20\n        /* \"#utility.yul\":7654:7657   */\n      dup3\n        /* \"#utility.yul\":7650:7662   */\n      add\n        /* \"#utility.yul\":7643:7662   */\n      swap1\n      pop\n        /* \"#utility.yul\":7302:7668   */\n      swap2\n      swap1\n      pop\n      jump\t// out\n        /* \"#utility.yul\":7674:8093   */\n    tag_30:\n        /* \"#utility.yul\":7840:7844   */\n      0x00\n        /* \"#utility.yul\":7878:7880   */\n      0x20\n        /* \"#utility.yul\":7867:7876   */\n      dup3\n        /* \"#utility.yul\":7863:7881   */\n      add\n        /* \"#utility.yul\":7855:7881   */\n      swap1\n      pop\n        /* \"#utility.yul\":7927:7936   */\n      dup2\n        /* \"#utility.yul\":7921:7925   */\n      dup2\n        /* \"#utility.yul\":7917:7937   */\n      sub\n        /* \"#utility.yul\":7913:7914   */\n      0x00\n        /* \"#utility.yul\":7902:7911   */\n      dup4\n        /* \"#utility.yul\":7898:7915   */\n      add\n        /* \"#utility.yul\":7891:7938   */\n      mstore\n        /* \"#utility.yul\":7955:8086   */\n      tag_164\n        /* \"#utility.yul\":8081:8085   */\n      dup2\n        /* \"#utility.yul\":7955:8086   */\n      tag_67\n      jump\t// in\n    tag_164:\n        /* \"#utility.yul\":7947:8086   */\n      swap1\n      pop\n        /* \"#utility.yul\":7674:8093   */\n      swap2\n      swap1\n      pop\n      jump\t// out\n        /* \"#utility.yul\":8099:8247   */\n    tag_68:\n        /* \"#utility.yul\":8201:8212   */\n      0x00\n        /* \"#utility.yul\":8238:8241   */\n      dup2\n        /* \"#utility.yul\":8223:8241   */\n      swap1\n      pop\n        /* \"#utility.yul\":8099:8247   */\n      swap3\n      swap2\n      pop\n      pop\n      jump\t// out\n        /* \"#utility.yul\":8277:8607   */\n    tag_69:\n        /* \"#utility.yul\":8393:8396   */\n      0x00\n        /* \"#utility.yul\":8414:8503   */\n      tag_167\n        /* \"#utility.yul\":8496:8502   */\n      dup4\n        /* \"#utility.yul\":8491:8494   */\n      dup6\n        /* \"#utility.yul\":8414:8503   */\n      tag_68\n      jump\t// in\n    tag_167:\n        /* \"#utility.yul\":8407:8503   */\n      swap4\n      pop\n        /* \"#utility.yul\":8513:8569   */\n      tag_168\n        /* \"#utility.yul\":8562:8568   */\n      dup4\n        /* \"#utility.yul\":8557:8560   */\n      dup6\n        /* \"#utility.yul\":8550:8555   */\n      dup5\n        /* \"#utility.yul\":8513:8569   */\n      tag_50\n      jump\t// in\n    tag_168:\n        /* \"#utility.yul\":8594:8600   */\n      dup3\n        /* \"#utility.yul\":8589:8592   */\n      dup5\n        /* \"#utility.yul\":8585:8601   */\n      add\n        /* \"#utility.yul\":8578:8601   */\n      swap1\n      pop\n        /* \"#utility.yul\":8277:8607   */\n      swap4\n      swap3\n      pop\n      pop\n      pop\n      jump\t// out\n        /* \"#utility.yul\":8613:8908   */\n    tag_32:\n        /* \"#utility.yul\":8755:8758   */\n      0x00\n        /* \"#utility.yul\":8777:8882   */\n      tag_170\n        /* \"#utility.yul\":8878:8881   */\n      dup3\n        /* \"#utility.yul\":8869:8875   */\n      dup5\n        /* \"#utility.yul\":8861:8867   */\n      dup7\n        /* \"#utility.yul\":8777:8882   */\n      tag_69\n      jump\t// in\n    tag_170:\n        /* \"#utility.yul\":8770:8882   */\n      swap2\n      pop\n        /* \"#utility.yul\":8899:8902   */\n      dup2\n        /* \"#utility.yul\":8892:8902   */\n      swap1\n      pop\n        /* \"#utility.yul\":8613:8908   */\n      swap4\n      swap3\n      pop\n      pop\n      pop\n      jump\t// out\n        /* \"#utility.yul\":8938:9255   */\n    tag_70:\n        /* \"#utility.yul\":9036:9039   */\n      0x00\n        /* \"#utility.yul\":9057:9128   */\n      tag_172\n        /* \"#utility.yul\":9121:9127   */\n      dup4\n        /* \"#utility.yul\":9116:9119   */\n      dup6\n        /* \"#utility.yul\":9057:9128   */\n      tag_65\n      jump\t// in\n    tag_172:\n        /* \"#utility.yul\":9050:9128   */\n      swap4\n      pop\n        /* \"#utility.yul\":9138:9194   */\n      tag_173\n        /* \"#utility.yul\":9187:9193   */\n      dup4\n        /* \"#utility.yul\":9182:9185   */\n      dup6\n        /* \"#utility.yul\":9175:9180   */\n      dup5\n        /* \"#utility.yul\":9138:9194   */\n      tag_50\n      jump\t// in\n    tag_173:\n        /* \"#utility.yul\":9219:9248   */\n      tag_174\n        /* \"#utility.yul\":9241:9247   */\n      dup4\n        /* \"#utility.yul\":9219:9248   */\n      tag_45\n      jump\t// in\n    tag_174:\n        /* \"#utility.yul\":9214:9217   */\n      dup5\n        /* \"#utility.yul\":9210:9249   */\n      add\n        /* \"#utility.yul\":9203:9249   */\n      swap1\n      pop\n        /* \"#utility.yul\":8938:9255   */\n      swap4\n      swap3\n      pop\n      pop\n      pop\n      jump\t// out\n        /* \"#utility.yul\":9261:9441   */\n    tag_71:\n        /* \"#utility.yul\":9309:9386   */\n      0x4e487b7100000000000000000000000000000000000000000000000000000000\n        /* \"#utility.yul\":9306:9307   */\n      0x00\n        /* \"#utility.yul\":9299:9387   */\n      mstore\n        /* \"#utility.yul\":9406:9410   */\n      0x21\n        /* \"#utility.yul\":9403:9404   */\n      0x04\n        /* \"#utility.yul\":9396:9411   */\n      mstore\n        /* \"#utility.yul\":9430:9434   */\n      0x24\n        /* \"#utility.yul\":9427:9428   */\n      0x00\n        /* \"#utility.yul\":9420:9435   */\n      revert\n        /* \"#utility.yul\":9447:9584   */\n    tag_72:\n        /* \"#utility.yul\":9552:9553   */\n      0x04\n        /* \"#utility.yul\":9545:9550   */\n      dup2\n        /* \"#utility.yul\":9542:9554   */\n      lt\n        /* \"#utility.yul\":9532:9578   */\n      tag_177\n      jumpi\n        /* \"#utility.yul\":9558:9576   */\n      tag_178\n      tag_71\n      jump\t// in\n    tag_178:\n        /* \"#utility.yul\":9532:9578   */\n    tag_177:\n        /* \"#utility.yul\":9447:9584   */\n      pop\n      jump\t// out\n        /* \"#utility.yul\":9590:9765   */\n    tag_73:\n        /* \"#utility.yul\":9659:9666   */\n      0x00\n        /* \"#utility.yul\":9688:9693   */\n      dup2\n        /* \"#utility.yul\":9677:9693   */\n      swap1\n      pop\n        /* \"#utility.yul\":9694:9759   */\n      tag_180\n        /* \"#utility.yul\":9753:9758   */\n      dup3\n        /* \"#utility.yul\":9694:9759   */\n      tag_72\n      jump\t// in\n    tag_180:\n        /* \"#utility.yul\":9590:9765   */\n      swap2\n      swap1\n      pop\n      jump\t// out\n        /* \"#utility.yul\":9771:9946   */\n    tag_74:\n        /* \"#utility.yul\":9851:9860   */\n      0x00\n        /* \"#utility.yul\":9884:9940   */\n      tag_182\n        /* \"#utility.yul\":9934:9939   */\n      dup3\n        /* \"#utility.yul\":9884:9940   */\n      tag_73\n      jump\t// in\n    tag_182:\n        /* \"#utility.yul\":9871:9940   */\n      swap1\n      pop\n        /* \"#utility.yul\":9771:9946   */\n      swap2\n      swap1\n      pop\n      jump\t// out\n        /* \"#utility.yul\":9952:10143   */\n    tag_75:\n        /* \"#utility.yul\":10069:10136   */\n      tag_184\n        /* \"#utility.yul\":10130:10135   */\n      dup2\n        /* \"#utility.yul\":10069:10136   */\n      tag_74\n      jump\t// in\n    tag_184:\n        /* \"#utility.yul\":10064:10067   */\n      dup3\n        /* \"#utility.yul\":10057:10137   */\n      mstore\n        /* \"#utility.yul\":9952:10143   */\n      pop\n      pop\n      jump\t// out\n        /* \"#utility.yul\":10149:10762   */\n    tag_39:\n        /* \"#utility.yul\":10358:10362   */\n      0x00\n        /* \"#utility.yul\":10396:10398   */\n      0x60\n        /* \"#utility.yul\":10385:10394   */\n      dup3\n        /* \"#utility.yul\":10381:10399   */\n      add\n        /* \"#utility.yul\":10373:10399   */\n      swap1\n      pop\n        /* \"#utility.yul\":10445:10454   */\n      dup2\n        /* \"#utility.yul\":10439:10443   */\n      dup2\n        /* \"#utility.yul\":10435:10455   */\n      sub\n        /* \"#utility.yul\":10431:10432   */\n      0x00\n        /* \"#utility.yul\":10420:10429   */\n      dup4\n        /* \"#utility.yul\":10416:10433   */\n      add\n        /* \"#utility.yul\":10409:10456   */\n      mstore\n        /* \"#utility.yul\":10473:10561   */\n      tag_186\n        /* \"#utility.yul\":10556:10560   */\n      dup2\n        /* \"#utility.yul\":10547:10553   */\n      dup7\n        /* \"#utility.yul\":10539:10545   */\n      dup9\n        /* \"#utility.yul\":10473:10561   */\n      tag_70\n      jump\t// in\n    tag_186:\n        /* \"#utility.yul\":10465:10561   */\n      swap1\n      pop\n        /* \"#utility.yul\":10571:10643   */\n      tag_187\n        /* \"#utility.yul\":10639:10641   */\n      0x20\n        /* \"#utility.yul\":10628:10637   */\n      dup4\n        /* \"#utility.yul\":10624:10642   */\n      add\n        /* \"#utility.yul\":10615:10621   */\n      dup6\n        /* \"#utility.yul\":10571:10643   */\n      tag_57\n      jump\t// in\n    tag_187:\n        /* \"#utility.yul\":10653:10755   */\n      tag_188\n        /* \"#utility.yul\":10751:10753   */\n      0x40\n        /* \"#utility.yul\":10740:10749   */\n      dup4\n        /* \"#utility.yul\":10736:10754   */\n      add\n        /* \"#utility.yul\":10727:10733   */\n      dup5\n        /* \"#utility.yul\":10653:10755   */\n      tag_75\n      jump\t// in\n    tag_188:\n        /* \"#utility.yul\":10149:10762   */\n      swap6\n      swap5\n      pop\n      pop\n      pop\n      pop\n      pop\n      jump\t// out\n\n    auxdata: 0xa2646970667358221220046abec3984efadc27b9c6defb7327b148ddf800a7b8953ccd03d8cbb82915fb64736f6c634300081a0033\n}\n",
				"bytecode": {
					"linkReferences": {},
					"object": "6080604052348015600e575f80fd5b506108b98061001c5f395ff3fe608060405234801561000f575f80fd5b506004361061004a575f3560e01c8063115a0ed51461004e57806321851b7a1461007e578063a63fdaf9146100ae578063a71d15cc146100ca575b5f80fd5b61006860048036038101906100639190610499565b6100e6565b60405161007591906104f8565b60405180910390f35b61009860048036038101906100939190610499565b610113565b6040516100a59190610550565b60405180910390f35b6100c860048036038101906100c391906105f0565b61015a565b005b6100e460048036038101906100df9190610677565b610228565b005b6001818051602081018201805184825260208301602085012081835280955050505050505f915090505481565b5f818051602081018201805184825260208301602085012081835280955050505050505f915054906101000a900473ffffffffffffffffffffffffffffffffffffffff1681565b3073ffffffffffffffffffffffffffffffffffffffff163373ffffffffffffffffffffffffffffffffffffffff1614806101bf57503273ffffffffffffffffffffffffffffffffffffffff163373ffffffffffffffffffffffffffffffffffffffff16145b6101fe576040517f08c379a00000000000000000000000000000000000000000000000000000000081526004016101f590610742565b60405180910390fd5b806001848460405161021192919061078e565b908152602001604051809103902081905550505050565b5f6001858560405161023b92919061078e565b90815260200160405180910390205490505f801b81148061025c5750818114155b15610293576040517f04607f2400000000000000000000000000000000000000000000000000000000815260040160405180910390fd5b825f86866040516102a592919061078e565b90815260200160405180910390205f6101000a81548173ffffffffffffffffffffffffffffffffffffffff021916908373ffffffffffffffffffffffffffffffffffffffff1602179055503373ffffffffffffffffffffffffffffffffffffffff167fd477ea6b1e623bd0fb7ee4281a3d6c60aadc66677a07c44145e0d8e40fa97a15868686600360405161033d9493929190610845565b60405180910390a25050505050565b5f604051905090565b5f80fd5b5f80fd5b5f80fd5b5f80fd5b5f601f19601f8301169050919050565b7f4e487b71000000000000000000000000000000000000000000000000000000005f52604160045260245ffd5b6103ab82610365565b810181811067ffffffffffffffff821117156103ca576103c9610375565b5b80604052505050565b5f6103dc61034c565b90506103e882826103a2565b919050565b5f67ffffffffffffffff82111561040757610406610375565b5b61041082610365565b9050602081019050919050565b828183375f83830152505050565b5f61043d610438846103ed565b6103d3565b90508281526020810184848401111561045957610458610361565b5b61046484828561041d565b509392505050565b5f82601f8301126104805761047f61035d565b5b813561049084826020860161042b565b91505092915050565b5f602082840312156104ae576104ad610355565b5b5f82013567ffffffffffffffff8111156104cb576104ca610359565b5b6104d78482850161046c565b91505092915050565b5f819050919050565b6104f2816104e0565b82525050565b5f60208201905061050b5f8301846104e9565b92915050565b5f73ffffffffffffffffffffffffffffffffffffffff82169050919050565b5f61053a82610511565b9050919050565b61054a81610530565b82525050565b5f6020820190506105635f830184610541565b92915050565b5f80fd5b5f80fd5b5f8083601f8401126105865761058561035d565b5b8235905067ffffffffffffffff8111156105a3576105a2610569565b5b6020830191508360018202830111156105bf576105be61056d565b5b9250929050565b6105cf816104e0565b81146105d9575f80fd5b50565b5f813590506105ea816105c6565b92915050565b5f805f6040848603121561060757610606610355565b5b5f84013567ffffffffffffffff81111561062457610623610359565b5b61063086828701610571565b93509350506020610643868287016105dc565b9150509250925092565b61065681610530565b8114610660575f80fd5b50565b5f813590506106718161064d565b92915050565b5f805f806060858703121561068f5761068e610355565b5b5f85013567ffffffffffffffff8111156106ac576106ab610359565b5b6106b887828801610571565b945094505060206106cb87828801610663565b92505060406106dc878288016105dc565b91505092959194509250565b5f82825260208201905092915050565b7f6f6e6c79206f776e6572000000000000000000000000000000000000000000005f82015250565b5f61072c600a836106e8565b9150610737826106f8565b602082019050919050565b5f6020820190508181035f83015261075981610720565b9050919050565b5f81905092915050565b5f6107758385610760565b935061078283858461041d565b82840190509392505050565b5f61079a82848661076a565b91508190509392505050565b5f6107b183856106e8565b93506107be83858461041d565b6107c783610365565b840190509392505050565b7f4e487b71000000000000000000000000000000000000000000000000000000005f52602160045260245ffd5b600481106108105761080f6107d2565b5b50565b5f819050610820826107ff565b919050565b5f61082f82610813565b9050919050565b61083f81610825565b82525050565b5f6060820190508181035f83015261085e8186886107a6565b905061086d6020830185610541565b61087a6040830184610836565b9594505050505056fea2646970667358221220046abec3984efadc27b9c6defb7327b148ddf800a7b8953ccd03d8cbb82915fb64736f6c634300081a0033",
					"opcodes": "PUSH1 0x80 PUSH1 0x40 MSTORE CALLVALUE DUP1 ISZERO PUSH1 0xE JUMPI PUSH0 DUP1 REVERT JUMPDEST POP PUSH2 0x8B9 DUP1 PUSH2 0x1C PUSH0 CODECOPY PUSH0 RETURN INVALID PUSH1 0x80 PUSH1 0x40 MSTORE CALLVALUE DUP1 ISZERO PUSH2 0xF JUMPI PUSH0 DUP1 REVERT JUMPDEST POP PUSH1 0x4 CALLDATASIZE LT PUSH2 0x4A JUMPI PUSH0 CALLDATALOAD PUSH1 0xE0 SHR DUP1 PUSH4 0x115A0ED5 EQ PUSH2 0x4E JUMPI DUP1 PUSH4 0x21851B7A EQ PUSH2 0x7E JUMPI DUP1 PUSH4 0xA63FDAF9 EQ PUSH2 0xAE JUMPI DUP1 PUSH4 0xA71D15CC EQ PUSH2 0xCA JUMPI JUMPDEST PUSH0 DUP1 REVERT JUMPDEST PUSH2 0x68 PUSH1 0x4 DUP1 CALLDATASIZE SUB DUP2 ADD SWAP1 PUSH2 0x63 SWAP2 SWAP1 PUSH2 0x499 JUMP JUMPDEST PUSH2 0xE6 JUMP JUMPDEST PUSH1 0x40 MLOAD PUSH2 0x75 SWAP2 SWAP1 PUSH2 0x4F8 JUMP JUMPDEST PUSH1 0x40 MLOAD DUP1 SWAP2 SUB SWAP1 RETURN JUMPDEST PUSH2 0x98 PUSH1 0x4 DUP1 CALLDATASIZE SUB DUP2 ADD SWAP1 PUSH2 0x93 SWAP2 SWAP1 PUSH2 0x499 JUMP JUMPDEST PUSH2 0x113 JUMP JUMPDEST PUSH1 0x40 MLOAD PUSH2 0xA5 SWAP2 SWAP1 PUSH2 0x550 JUMP JUMPDEST PUSH1 0x40 MLOAD DUP1 SWAP2 SUB SWAP1 RETURN JUMPDEST PUSH2 0xC8 PUSH1 0x4 DUP1 CALLDATASIZE SUB DUP2 ADD SWAP1 PUSH2 0xC3 SWAP2 SWAP1 PUSH2 0x5F0 JUMP JUMPDEST PUSH2 0x15A JUMP JUMPDEST STOP JUMPDEST PUSH2 0xE4 PUSH1 0x4 DUP1 CALLDATASIZE SUB DUP2 ADD SWAP1 PUSH2 0xDF SWAP2 SWAP1 PUSH2 0x677 JUMP JUMPDEST PUSH2 0x228 JUMP JUMPDEST STOP JUMPDEST PUSH1 0x1 DUP2 DUP1 MLOAD PUSH1 0x20 DUP2 ADD DUP3 ADD DUP1 MLOAD DUP5 DUP3 MSTORE PUSH1 0x20 DUP4 ADD PUSH1 0x20 DUP6 ADD KECCAK256 DUP2 DUP4 MSTORE DUP1 SWAP6 POP POP POP POP POP POP PUSH0 SWAP2 POP SWAP1 POP SLOAD DUP2 JUMP JUMPDEST PUSH0 DUP2 DUP1 MLOAD PUSH1 0x20 DUP2 ADD DUP3 ADD DUP1 MLOAD DUP5 DUP3 MSTORE PUSH1 0x20 DUP4 ADD PUSH1 0x20 DUP6 ADD KECCAK256 DUP2 DUP4 MSTORE DUP1 SWAP6 POP POP POP POP POP POP PUSH0 SWAP2 POP SLOAD SWAP1 PUSH2 0x100 EXP SWAP1 DIV PUSH20 0xFFFFFFFFFFFFFFFFFFFFFFFFFFFFFFFFFFFFFFFF AND DUP2 JUMP JUMPDEST ADDRESS PUSH20 0xFFFFFFFFFFFFFFFFFFFFFFFFFFFFFFFFFFFFFFFF AND CALLER PUSH20 0xFFFFFFFFFFFFFFFFFFFFFFFFFFFFFFFFFFFFFFFF AND EQ DUP1 PUSH2 0x1BF JUMPI POP ORIGIN PUSH20 0xFFFFFFFFFFFFFFFFFFFFFFFFFFFFFFFFFFFFFFFF AND CALLER PUSH20 0xFFFFFFFFFFFFFFFFFFFFFFFFFFFFFFFFFFFFFFFF AND EQ JUMPDEST PUSH2 0x1FE JUMPI PUSH1 0x40 MLOAD PUSH32 0x8C379A000000000000000000000000000000000000000000000000000000000 DUP2 MSTORE PUSH1 0x4 ADD PUSH2 0x1F5 SWAP1 PUSH2 0x742 JUMP JUMPDEST PUSH1 0x40 MLOAD DUP1 SWAP2 SUB SWAP1 REVERT JUMPDEST DUP1 PUSH1 0x1 DUP5 DUP5 PUSH1 0x40 MLOAD PUSH2 0x211 SWAP3 SWAP2 SWAP1 PUSH2 0x78E JUMP JUMPDEST SWAP1 DUP2 MSTORE PUSH1 0x20 ADD PUSH1 0x40 MLOAD DUP1 SWAP2 SUB SWAP1 KECCAK256 DUP2 SWAP1 SSTORE POP POP POP POP JUMP JUMPDEST PUSH0 PUSH1 0x1 DUP6 DUP6 PUSH1 0x40 MLOAD PUSH2 0x23B SWAP3 SWAP2 SWAP1 PUSH2 0x78E JUMP JUMPDEST SWAP1 DUP2 MSTORE PUSH1 0x20 ADD PUSH1 0x40 MLOAD DUP1 SWAP2 SUB SWAP1 KECCAK256 SLOAD SWAP1 POP PUSH0 DUP1 SHL DUP2 EQ DUP1 PUSH2 0x25C JUMPI POP DUP2 DUP2 EQ ISZERO JUMPDEST ISZERO PUSH2 0x293 JUMPI PUSH1 0x40 MLOAD PUSH32 0x4607F2400000000000000000000000000000000000000000000000000000000 DUP2 MSTORE PUSH1 0x4 ADD PUSH1 0x40 MLOAD DUP1 SWAP2 SUB SWAP1 REVERT JUMPDEST DUP3 PUSH0 DUP7 DUP7 PUSH1 0x40 MLOAD PUSH2 0x2A5 SWAP3 SWAP2 SWAP1 PUSH2 0x78E JUMP JUMPDEST SWAP1 DUP2 MSTORE PUSH1 0x20 ADD PUSH1 0x40 MLOAD DUP1 SWAP2 SUB SWAP1 KECCAK256 PUSH0 PUSH2 0x100 EXP DUP2 SLOAD DUP2 PUSH20 0xFFFFFFFFFFFFFFFFFFFFFFFFFFFFFFFFFFFFFFFF MUL NOT AND SWAP1 DUP4 PUSH20 0xFFFFFFFFFFFFFFFFFFFFFFFFFFFFFFFFFFFFFFFF AND MUL OR SWAP1 SSTORE POP CALLER PUSH20 0xFFFFFFFFFFFFFFFFFFFFFFFFFFFFFFFFFFFFFFFF AND PUSH32 0xD477EA6B1E623BD0FB7EE4281A3D6C60AADC66677A07C44145E0D8E40FA97A15 DUP7 DUP7 DUP7 PUSH1 0x3 PUSH1 0x40 MLOAD PUSH2 0x33D SWAP5 SWAP4 SWAP3 SWAP2 SWAP1 PUSH2 0x845 JUMP JUMPDEST PUSH1 0x40 MLOAD DUP1 SWAP2 SUB SWAP1 LOG2 POP POP POP POP POP JUMP JUMPDEST PUSH0 PUSH1 0x40 MLOAD SWAP1 POP SWAP1 JUMP JUMPDEST PUSH0 DUP1 REVERT JUMPDEST PUSH0 DUP1 REVERT JUMPDEST PUSH0 DUP1 REVERT JUMPDEST PUSH0 DUP1 REVERT JUMPDEST PUSH0 PUSH1 0x1F NOT PUSH1 0x1F DUP4 ADD AND SWAP1 POP SWAP2 SWAP1 POP JUMP JUMPDEST PUSH32 0x4E487B7100000000000000000000000000000000000000000000000000000000 PUSH0 MSTORE PUSH1 0x41 PUSH1 0x4 MSTORE PUSH1 0x24 PUSH0 REVERT JUMPDEST PUSH2 0x3AB DUP3 PUSH2 0x365 JUMP JUMPDEST DUP2 ADD DUP2 DUP2 LT PUSH8 0xFFFFFFFFFFFFFFFF DUP3 GT OR ISZERO PUSH2 0x3CA JUMPI PUSH2 0x3C9 PUSH2 0x375 JUMP JUMPDEST JUMPDEST DUP1 PUSH1 0x40 MSTORE POP POP POP JUMP JUMPDEST PUSH0 PUSH2 0x3DC PUSH2 0x34C JUMP JUMPDEST SWAP1 POP PUSH2 0x3E8 DUP3 DUP3 PUSH2 0x3A2 JUMP JUMPDEST SWAP2 SWAP1 POP JUMP JUMPDEST PUSH0 PUSH8 0xFFFFFFFFFFFFFFFF DUP3 GT ISZERO PUSH2 0x407 JUMPI PUSH2 0x406 PUSH2 0x375 JUMP JUMPDEST JUMPDEST PUSH2 0x410 DUP3 PUSH2 0x365 JUMP JUMPDEST SWAP1 POP PUSH1 0x20 DUP2 ADD SWAP1 POP SWAP2 SWAP1 POP JUMP JUMPDEST DUP3 DUP2 DUP4 CALLDATACOPY PUSH0 DUP4 DUP4 ADD MSTORE POP POP POP JUMP JUMPDEST PUSH0 PUSH2 0x43D PUSH2 0x438 DUP5 PUSH2 0x3ED JUMP JUMPDEST PUSH2 0x3D3 JUMP JUMPDEST SWAP1 POP DUP3 DUP2 MSTORE PUSH1 0x20 DUP2 ADD DUP5 DUP5 DUP5 ADD GT ISZERO PUSH2 0x459 JUMPI PUSH2 0x458 PUSH2 0x361 JUMP JUMPDEST JUMPDEST PUSH2 0x464 DUP5 DUP3 DUP6 PUSH2 0x41D JUMP JUMPDEST POP SWAP4 SWAP3 POP POP POP JUMP JUMPDEST PUSH0 DUP3 PUSH1 0x1F DUP4 ADD SLT PUSH2 0x480 JUMPI PUSH2 0x47F PUSH2 0x35D JUMP JUMPDEST JUMPDEST DUP2 CALLDATALOAD PUSH2 0x490 DUP5 DUP3 PUSH1 0x20 DUP7 ADD PUSH2 0x42B JUMP JUMPDEST SWAP2 POP POP SWAP3 SWAP2 POP POP JUMP JUMPDEST PUSH0 PUSH1 0x20 DUP3 DUP5 SUB SLT ISZERO PUSH2 0x4AE JUMPI PUSH2 0x4AD PUSH2 0x355 JUMP JUMPDEST JUMPDEST PUSH0 DUP3 ADD CALLDATALOAD PUSH8 0xFFFFFFFFFFFFFFFF DUP2 GT ISZERO PUSH2 0x4CB JUMPI PUSH2 0x4CA PUSH2 0x359 JUMP JUMPDEST JUMPDEST PUSH2 0x4D7 DUP5 DUP3 DUP6 ADD PUSH2 0x46C JUMP JUMPDEST SWAP2 POP POP SWAP3 SWAP2 POP POP JUMP JUMPDEST PUSH0 DUP2 SWAP1 POP SWAP2 SWAP1 POP JUMP JUMPDEST PUSH2 0x4F2 DUP2 PUSH2 0x4E0 JUMP JUMPDEST DUP3 MSTORE POP POP JUMP JUMPDEST PUSH0 PUSH1 0x20 DUP3 ADD SWAP1 POP PUSH2 0x50B PUSH0 DUP4 ADD DUP5 PUSH2 0x4E9 JUMP JUMPDEST SWAP3 SWAP2 POP POP JUMP JUMPDEST PUSH0 PUSH20 0xFFFFFFFFFFFFFFFFFFFFFFFFFFFFFFFFFFFFFFFF DUP3 AND SWAP1 POP SWAP2 SWAP1 POP JUMP JUMPDEST PUSH0 PUSH2 0x53A DUP3 PUSH2 0x511 JUMP JUMPDEST SWAP1 POP SWAP2 SWAP1 POP JUMP JUMPDEST PUSH2 0x54A DUP2 PUSH2 0x530 JUMP JUMPDEST DUP3 MSTORE POP POP JUMP JUMPDEST PUSH0 PUSH1 0x20 DUP3 ADD SWAP1 POP PUSH2 0x563 PUSH0 DUP4 ADD DUP5 PUSH2 0x541 JUMP JUMPDEST SWAP3 SWAP2 POP POP JUMP JUMPDEST PUSH0 DUP1 REVERT JUMPDEST PUSH0 DUP1 REVERT JUMPDEST PUSH0 DUP1 DUP4 PUSH1 0x1F DUP5 ADD SLT PUSH2 0x586 JUMPI PUSH2 0x585 PUSH2 0x35D JUMP JUMPDEST JUMPDEST DUP3 CALLDATALOAD SWAP1 POP PUSH8 0xFFFFFFFFFFFFFFFF DUP2 GT ISZERO PUSH2 0x5A3 JUMPI PUSH2 0x5A2 PUSH2 0x569 JUMP JUMPDEST JUMPDEST PUSH1 0x20 DUP4 ADD SWAP2 POP DUP4 PUSH1 0x1 DUP3 MUL DUP4 ADD GT ISZERO PUSH2 0x5BF JUMPI PUSH2 0x5BE PUSH2 0x56D JUMP JUMPDEST JUMPDEST SWAP3 POP SWAP3 SWAP1 POP JUMP JUMPDEST PUSH2 0x5CF DUP2 PUSH2 0x4E0 JUMP JUMPDEST DUP2 EQ PUSH2 0x5D9 JUMPI PUSH0 DUP1 REVERT JUMPDEST POP JUMP JUMPDEST PUSH0 DUP2 CALLDATALOAD SWAP1 POP PUSH2 0x5EA DUP2 PUSH2 0x5C6 JUMP JUMPDEST SWAP3 SWAP2 POP POP JUMP JUMPDEST PUSH0 DUP1 PUSH0 PUSH1 0x40 DUP5 DUP7 SUB SLT ISZERO PUSH2 0x607 JUMPI PUSH2 0x606 PUSH2 0x355 JUMP JUMPDEST JUMPDEST PUSH0 DUP5 ADD CALLDATALOAD PUSH8 0xFFFFFFFFFFFFFFFF DUP2 GT ISZERO PUSH2 0x624 JUMPI PUSH2 0x623 PUSH2 0x359 JUMP JUMPDEST JUMPDEST PUSH2 0x630 DUP7 DUP3 DUP8 ADD PUSH2 0x571 JUMP JUMPDEST SWAP4 POP SWAP4 POP POP PUSH1 0x20 PUSH2 0x643 DUP7 DUP3 DUP8 ADD PUSH2 0x5DC JUMP JUMPDEST SWAP2 POP POP SWAP3 POP SWAP3 POP SWAP3 JUMP JUMPDEST PUSH2 0x656 DUP2 PUSH2 0x530 JUMP JUMPDEST DUP2 EQ PUSH2 0x660 JUMPI PUSH0 DUP1 REVERT JUMPDEST POP JUMP JUMPDEST PUSH0 DUP2 CALLDATALOAD SWAP1 POP PUSH2 0x671 DUP2 PUSH2 0x64D JUMP JUMPDEST SWAP3 SWAP2 POP POP JUMP JUMPDEST PUSH0 DUP1 PUSH0 DUP1 PUSH1 0x60 DUP6 DUP8 SUB SLT ISZERO PUSH2 0x68F JUMPI PUSH2 0x68E PUSH2 0x355 JUMP JUMPDEST JUMPDEST PUSH0 DUP6 ADD CALLDATALOAD PUSH8 0xFFFFFFFFFFFFFFFF DUP2 GT ISZERO PUSH2 0x6AC JUMPI PUSH2 0x6AB PUSH2 0x359 JUMP JUMPDEST JUMPDEST PUSH2 0x6B8 DUP8 DUP3 DUP9 ADD PUSH2 0x571 JUMP JUMPDEST SWAP5 POP SWAP5 POP POP PUSH1 0x20 PUSH2 0x6CB DUP8 DUP3 DUP9 ADD PUSH2 0x663 JUMP JUMPDEST SWAP3 POP POP PUSH1 0x40 PUSH2 0x6DC DUP8 DUP3 DUP9 ADD PUSH2 0x5DC JUMP JUMPDEST SWAP2 POP POP SWAP3 SWAP6 SWAP2 SWAP5 POP SWAP3 POP JUMP JUMPDEST PUSH0 DUP3 DUP3 MSTORE PUSH1 0x20 DUP3 ADD SWAP1 POP SWAP3 SWAP2 POP POP JUMP JUMPDEST PUSH32 0x6F6E6C79206F776E657200000000000000000000000000000000000000000000 PUSH0 DUP3 ADD MSTORE POP JUMP JUMPDEST PUSH0 PUSH2 0x72C PUSH1 0xA DUP4 PUSH2 0x6E8 JUMP JUMPDEST SWAP2 POP PUSH2 0x737 DUP3 PUSH2 0x6F8 JUMP JUMPDEST PUSH1 0x20 DUP3 ADD SWAP1 POP SWAP2 SWAP1 POP JUMP JUMPDEST PUSH0 PUSH1 0x20 DUP3 ADD SWAP1 POP DUP2 DUP2 SUB PUSH0 DUP4 ADD MSTORE PUSH2 0x759 DUP2 PUSH2 0x720 JUMP JUMPDEST SWAP1 POP SWAP2 SWAP1 POP JUMP JUMPDEST PUSH0 DUP2 SWAP1 POP SWAP3 SWAP2 POP POP JUMP JUMPDEST PUSH0 PUSH2 0x775 DUP4 DUP6 PUSH2 0x760 JUMP JUMPDEST SWAP4 POP PUSH2 0x782 DUP4 DUP6 DUP5 PUSH2 0x41D JUMP JUMPDEST DUP3 DUP5 ADD SWAP1 POP SWAP4 SWAP3 POP POP POP JUMP JUMPDEST PUSH0 PUSH2 0x79A DUP3 DUP5 DUP7 PUSH2 0x76A JUMP JUMPDEST SWAP2 POP DUP2 SWAP1 POP SWAP4 SWAP3 POP POP POP JUMP JUMPDEST PUSH0 PUSH2 0x7B1 DUP4 DUP6 PUSH2 0x6E8 JUMP JUMPDEST SWAP4 POP PUSH2 0x7BE DUP4 DUP6 DUP5 PUSH2 0x41D JUMP JUMPDEST PUSH2 0x7C7 DUP4 PUSH2 0x365 JUMP JUMPDEST DUP5 ADD SWAP1 POP SWAP4 SWAP3 POP POP POP JUMP JUMPDEST PUSH32 0x4E487B7100000000000000000000000000000000000000000000000000000000 PUSH0 MSTORE PUSH1 0x21 PUSH1 0x4 MSTORE PUSH1 0x24 PUSH0 REVERT JUMPDEST PUSH1 0x4 DUP2 LT PUSH2 0x810 JUMPI PUSH2 0x80F PUSH2 0x7D2 JUMP JUMPDEST JUMPDEST POP JUMP JUMPDEST PUSH0 DUP2 SWAP1 POP PUSH2 0x820 DUP3 PUSH2 0x7FF JUMP JUMPDEST SWAP2 SWAP1 POP JUMP JUMPDEST PUSH0 PUSH2 0x82F DUP3 PUSH2 0x813 JUMP JUMPDEST SWAP1 POP SWAP2 SWAP1 POP JUMP JUMPDEST PUSH2 0x83F DUP2 PUSH2 0x825 JUMP JUMPDEST DUP3 MSTORE POP POP JUMP JUMPDEST PUSH0 PUSH1 0x60 DUP3 ADD SWAP1 POP DUP2 DUP2 SUB PUSH0 DUP4 ADD MSTORE PUSH2 0x85E DUP2 DUP7 DUP9 PUSH2 0x7A6 JUMP JUMPDEST SWAP1 POP PUSH2 0x86D PUSH1 0x20 DUP4 ADD DUP6 PUSH2 0x541 JUMP JUMPDEST PUSH2 0x87A PUSH1 0x40 DUP4 ADD DUP5 PUSH2 0x836 JUMP JUMPDEST SWAP6 SWAP5 POP POP POP POP POP JUMP INVALID LOG2 PUSH5 0x6970667358 0x22 SLT KECCAK256 DIV PUSH11 0xBEC3984EFADC27B9C6DEFB PUSH20 0x27B148DDF800A7B8953CCD03D8CBB82915FB6473 PUSH16 0x6C634300081A00330000000000000000 "
				},
				"gasEstimates": {
					"creation": {
						"codeDepositCost": "446600",
						"executionCost": "478",
						"totalCost": "447078"
					},
					"external": {
						"checksums(string)": "infinite",
						"libraries(string)": "infinite",
						"loadLibrary(string,address,bytes32)": "infinite",
						"setChecksum(string,bytes32)": "infinite"
					}
				},
				"methodIdentifiers": {
					"checksums(string)": "115a0ed5",
					"libraries(string)": "21851b7a",
					"loadLibrary(string,address,bytes32)": "a71d15cc",
					"setChecksum(string,bytes32)": "a63fdaf9"
				}
			},
			"storageLayout": {
				"storage": [
					{
						"astId": 330,
						"contract": "D/Dynamic Link Library/Dynamic Link Library.sol:DLLSafeIntegrity",
						"label": "libraries",
						"offset": 0,
						"slot": "0",
						"type": "t_mapping(t_string_memory_ptr,t_address)"
					},
					{
						"astId": 334,
						"contract": "D/Dynamic Link Library/Dynamic Link Library.sol:DLLSafeIntegrity",
						"label": "checksums",
						"offset": 0,
						"slot": "1",
						"type": "t_mapping(t_string_memory_ptr,t_bytes32)"
					}
				],
				"types": {
					"t_address": {
						"encoding": "inplace",
						"label": "address",
						"numberOfBytes": "20"
					},
					"t_bytes32": {
						"encoding": "inplace",
						"label": "bytes32",
						"numberOfBytes": "32"
					},
					"t_mapping(t_string_memory_ptr,t_address)": {
						"encoding": "mapping",
						"key": "t_string_memory_ptr",
						"label": "mapping(string => address)",
						"numberOfBytes": "32",
						"value": "t_address"
					},
					"t_mapping(t_string_memory_ptr,t_bytes32)": {
						"encoding": "mapping",
						"key": "t_string_memory_ptr",
						"label": "mapping(string => bytes32)",
						"numberOfBytes": "32",
						"value": "t_bytes32"
					},
					"t_string_memory_ptr": {
						"encoding": "bytes",
						"label": "string",
						"numberOfBytes": "32"
					}
				}
			},
			"userdoc": {
				"kind": "user",
				"methods": {
					"setChecksum(string,bytes32)": {
						"notice": "owner registers expected checksum for each library path"
					}
				},
				"version": 1
			}
		}
	}
}