{
	"D/Dynamic Link Library/Dynamic Link Library.sol": {
		"DLLSafeSigned": {
			"abi": [
				{
					"inputs": [
						{
							"internalType": "address",
							"name": "_approver",
							"type": "address"
						}
					],
					"stateMutability": "nonpayable",
					"type": "constructor"
				},
				{
					"inputs": [],
					"name": "DLL__BadSignature",
					"type": "error"
				},
				{
					"anonymous": false,
					"inputs": [
						{
							"indexed": true,
							"internalType": "address",
							"name": "who",
							"type": "address"
						},
						{
							"indexed": false,
							"internalType": "string",
							"name": "path",
							"type": "string"
						},
						{
							"indexed": false,
							"internalType": "address",
							"name": "lib",
							"type": "address"
						},
						{
							"indexed": false,
							"internalType": "enum DynamicLinkLibraryDefenseType",
							"name": "defense",
							"type": "uint8"
						}
					],
					"name": "LibraryLoaded",
					"type": "event"
				},
				{
					"inputs": [],
					"name": "approver",
					"outputs": [
						{
							"internalType": "address",
							"name": "",
							"type": "address"
						}
					],
					"stateMutability": "view",
					"type": "function"
				},
				{
					"inputs": [
						{
							"internalType": "string",
							"name": "",
							"type": "string"
						}
					],
					"name": "libraries",
					"outputs": [
						{
							"internalType": "address",
							"name": "",
							"type": "address"
						}
					],
					"stateMutability": "view",
					"type": "function"
				},
				{
					"inputs": [
						{
							"internalType": "string",
							"name": "path",
							"type": "string"
						},
						{
							"internalType": "address",
							"name": "lib",
							"type": "address"
						},
						{
							"internalType": "bytes",
							"name": "sig",
							"type": "bytes"
						}
					],
					"name": "loadLibrary",
					"outputs": [],
					"stateMutability": "nonpayable",
					"type": "function"
				}
			],
			"devdoc": {
				"kind": "dev",
				"methods": {},
				"version": 1
			},
			"evm": {
				"assembly": "    /* \"D/Dynamic Link Library/Dynamic Link Library.sol\":2313:3337  contract DLLSafeSigned {... */\n  mstore(0x40, 0x80)\n    /* \"D/Dynamic Link Library/Dynamic Link Library.sol\":2591:2659  constructor(address _approver) {... */\n  callvalue\n  dup1\n  iszero\n  tag_1\n  jumpi\n  0x00\n  dup1\n  revert\ntag_1:\n  pop\n  mload(0x40)\n  sub(codesize, bytecodeSize)\n  dup1\n  bytecodeSize\n  dup4\n  codecopy\n  dup2\n  dup2\n  add\n  0x40\n  mstore\n  dup2\n  add\n  swap1\n  tag_2\n  swap2\n  swap1\n  tag_3\n  jump\t// in\ntag_2:\n    /* \"D/Dynamic Link Library/Dynamic Link Library.sol\":2643:2652  _approver */\n  dup1\n    /* \"D/Dynamic Link Library/Dynamic Link Library.sol\":2632:2640  approver */\n  0x01\n  0x00\n    /* \"D/Dynamic Link Library/Dynamic Link Library.sol\":2632:2652  approver = _approver */\n  0x0100\n  exp\n  dup2\n  sload\n  dup2\n  0xffffffffffffffffffffffffffffffffffffffff\n  mul\n  not\n  and\n  swap1\n  dup4\n  0xffffffffffffffffffffffffffffffffffffffff\n  and\n  mul\n  or\n  swap1\n  sstore\n  pop\n    /* \"D/Dynamic Link Library/Dynamic Link Library.sol\":2591:2659  constructor(address _approver) {... */\n  pop\n    /* \"D/Dynamic Link Library/Dynamic Link Library.sol\":2313:3337  contract DLLSafeSigned {... */\n  jump(tag_6)\n    /* \"#utility.yul\":88:205   */\ntag_8:\n    /* \"#utility.yul\":197:198   */\n  0x00\n    /* \"#utility.yul\":194:195   */\n  dup1\n    /* \"#utility.yul\":187:199   */\n  revert\n    /* \"#utility.yul\":334:460   */\ntag_10:\n    /* \"#utility.yul\":371:378   */\n  0x00\n    /* \"#utility.yul\":411:453   */\n  0xffffffffffffffffffffffffffffffffffffffff\n    /* \"#utility.yul\":404:409   */\n  dup3\n    /* \"#utility.yul\":400:454   */\n  and\n    /* \"#utility.yul\":389:454   */\n  swap1\n  pop\n    /* \"#utility.yul\":334:460   */\n  swap2\n  swap1\n  pop\n  jump\t// out\n    /* \"#utility.yul\":466:562   */\ntag_11:\n    /* \"#utility.yul\":503:510   */\n  0x00\n    /* \"#utility.yul\":532:556   */\n  tag_20\n    /* \"#utility.yul\":550:555   */\n  dup3\n    /* \"#utility.yul\":532:556   */\n  tag_10\n  jump\t// in\ntag_20:\n    /* \"#utility.yul\":521:556   */\n  swap1\n  pop\n    /* \"#utility.yul\":466:562   */\n  swap2\n  swap1\n  pop\n  jump\t// out\n    /* \"#utility.yul\":568:690   */\ntag_12:\n    /* \"#utility.yul\":641:665   */\n  tag_22\n    /* \"#utility.yul\":659:664   */\n  dup2\n    /* \"#utility.yul\":641:665   */\n  tag_11\n  jump\t// in\ntag_22:\n    /* \"#utility.yul\":634:639   */\n  dup2\n    /* \"#utility.yul\":631:666   */\n  eq\n    /* \"#utility.yul\":621:684   */\n  tag_23\n  jumpi\n    /* \"#utility.yul\":680:681   */\n  0x00\n    /* \"#utility.yul\":677:678   */\n  dup1\n    /* \"#utility.yul\":670:682   */\n  revert\n    /* \"#utility.yul\":621:684   */\ntag_23:\n    /* \"#utility.yul\":568:690   */\n  pop\n  jump\t// out\n    /* \"#utility.yul\":696:839   */\ntag_13:\n    /* \"#utility.yul\":753:758   */\n  0x00\n    /* \"#utility.yul\":784:790   */\n  dup2\n    /* \"#utility.yul\":778:791   */\n  mload\n    /* \"#utility.yul\":769:791   */\n  swap1\n  pop\n    /* \"#utility.yul\":800:833   */\n  tag_25\n    /* \"#utility.yul\":827:832   */\n  dup2\n    /* \"#utility.yul\":800:833   */\n  tag_12\n  jump\t// in\ntag_25:\n    /* \"#utility.yul\":696:839   */\n  swap3\n  swap2\n  pop\n  pop\n  jump\t// out\n    /* \"#utility.yul\":845:1196   */\ntag_3:\n    /* \"#utility.yul\":915:921   */\n  0x00\n    /* \"#utility.yul\":964:966   */\n  0x20\n    /* \"#utility.yul\":952:961   */\n  dup3\n    /* \"#utility.yul\":943:950   */\n  dup5\n    /* \"#utility.yul\":939:962   */\n  sub\n    /* \"#utility.yul\":935:967   */\n  slt\n    /* \"#utility.yul\":932:1051   */\n  iszero\n  tag_27\n  jumpi\n    /* \"#utility.yul\":970:1049   */\n  tag_28\n  tag_8\n  jump\t// in\ntag_28:\n    /* \"#utility.yul\":932:1051   */\ntag_27:\n    /* \"#utility.yul\":1090:1091   */\n  0x00\n    /* \"#utility.yul\":1115:1179   */\n  tag_29\n    /* \"#utility.yul\":1171:1178   */\n  dup5\n    /* \"#utility.yul\":1162:1168   */\n  dup3\n    /* \"#utility.yul\":1151:1160   */\n  dup6\n    /* \"#utility.yul\":1147:1169   */\n  add\n    /* \"#utility.yul\":1115:1179   */\n  tag_13\n  jump\t// in\ntag_29:\n    /* \"#utility.yul\":1105:1179   */\n  swap2\n  pop\n    /* \"#utility.yul\":1061:1189   */\n  pop\n    /* \"#utility.yul\":845:1196   */\n  swap3\n  swap2\n  pop\n  pop\n  jump\t// out\n    /* \"D/Dynamic Link Library/Dynamic Link Library.sol\":2313:3337  contract DLLSafeSigned {... */\ntag_6:\n  dataSize(sub_0)\n  dup1\n  dataOffset(sub_0)\n  0x00\n  codecopy\n  0x00\n  return\nstop\n\nsub_0: assembly {\n        /* \"D/Dynamic Link Library/Dynamic Link Library.sol\":2313:3337  contract DLLSafeSigned {... */\n      mstore(0x40, 0x80)\n      callvalue\n      dup1\n      iszero\n      tag_1\n      jumpi\n      0x00\n      dup1\n      revert\n    tag_1:\n      pop\n      jumpi(tag_2, lt(calldatasize, 0x04))\n      shr(0xe0, calldataload(0x00))\n      dup1\n      0x141a8dd8\n      eq\n      tag_3\n      jumpi\n      dup1\n      0x21851b7a\n      eq\n      tag_4\n      jumpi\n      dup1\n      0xe3771ac2\n      eq\n      tag_5\n      jumpi\n    tag_2:\n      0x00\n      dup1\n      revert\n        /* \"D/Dynamic Link Library/Dynamic Link Library.sol\":2391:2414  address public approver */\n    tag_3:\n      tag_6\n      tag_7\n      jump\t// in\n    tag_6:\n      mload(0x40)\n      tag_8\n      swap2\n      swap1\n      tag_9\n      jump\t// in\n    tag_8:\n      mload(0x40)\n      dup1\n      swap2\n      sub\n      swap1\n      return\n        /* \"D/Dynamic Link Library/Dynamic Link Library.sol\":2342:2385  mapping(string => address) public libraries */\n    tag_4:\n      tag_10\n      0x04\n      dup1\n      calldatasize\n      sub\n      dup2\n      add\n      swap1\n      tag_11\n      swap2\n      swap1\n      tag_12\n      jump\t// in\n    tag_11:\n      tag_13\n      jump\t// in\n    tag_10:\n      mload(0x40)\n      tag_14\n      swap2\n      swap1\n      tag_9\n      jump\t// in\n    tag_14:\n      mload(0x40)\n      dup1\n      swap2\n      sub\n      swap1\n      return\n        /* \"D/Dynamic Link Library/Dynamic Link Library.sol\":2665:3335  function loadLibrary(... */\n    tag_5:\n      tag_15\n      0x04\n      dup1\n      calldatasize\n      sub\n      dup2\n      add\n      swap1\n      tag_16\n      swap2\n      swap1\n      tag_17\n      jump\t// in\n    tag_16:\n      tag_18\n      jump\t// in\n    tag_15:\n      stop\n        /* \"D/Dynamic Link Library/Dynamic Link Library.sol\":2391:2414  address public approver */\n    tag_7:\n      0x01\n      0x00\n      swap1\n      sload\n      swap1\n      0x0100\n      exp\n      swap1\n      div\n      0xffffffffffffffffffffffffffffffffffffffff\n      and\n      dup2\n      jump\t// out\n        /* \"D/Dynamic Link Library/Dynamic Link Library.sol\":2342:2385  mapping(string => address) public libraries */\n    tag_13:\n      0x00\n      dup2\n      dup1\n      mload\n      0x20\n      dup2\n      add\n      dup3\n      add\n      dup1\n      mload\n      dup5\n      dup3\n      mstore\n      0x20\n      dup4\n      add\n      0x20\n      dup6\n      add\n      keccak256\n      dup2\n      dup4\n      mstore\n      dup1\n      swap6\n      pop\n      pop\n      pop\n      pop\n      pop\n      pop\n      0x00\n      swap2\n      pop\n      sload\n      swap1\n      0x0100\n      exp\n      swap1\n      div\n      0xffffffffffffffffffffffffffffffffffffffff\n      and\n      dup2\n      jump\t// out\n        /* \"D/Dynamic Link Library/Dynamic Link Library.sol\":2665:3335  function loadLibrary(... */\n    tag_18:\n        /* \"D/Dynamic Link Library/Dynamic Link Library.sol\":2847:2862  bytes32 msgHash */\n      0x00\n        /* \"D/Dynamic Link Library/Dynamic Link Library.sol\":2892:2896  path */\n      dup6\n      dup6\n        /* \"D/Dynamic Link Library/Dynamic Link Library.sol\":2898:2901  lib */\n      dup6\n        /* \"D/Dynamic Link Library/Dynamic Link Library.sol\":2875:2902  abi.encodePacked(path, lib) */\n      add(0x20, mload(0x40))\n      tag_20\n      swap4\n      swap3\n      swap2\n      swap1\n      tag_21\n      jump\t// in\n    tag_20:\n      mload(0x40)\n      0x20\n      dup2\n      dup4\n      sub\n      sub\n      dup2\n      mstore\n      swap1\n      0x40\n      mstore\n        /* \"D/Dynamic Link Library/Dynamic Link Library.sol\":2865:2903  keccak256(abi.encodePacked(path, lib)) */\n      dup1\n      mload\n      swap1\n      0x20\n      add\n      keccak256\n        /* \"D/Dynamic Link Library/Dynamic Link Library.sol\":2847:2903  bytes32 msgHash = keccak256(abi.encodePacked(path, lib)) */\n      swap1\n      pop\n        /* \"D/Dynamic Link Library/Dynamic Link Library.sol\":2913:2927  bytes32 ethMsg */\n      0x00\n        /* \"D/Dynamic Link Library/Dynamic Link Library.sol\":2994:3001  msgHash */\n      dup2\n        /* \"D/Dynamic Link Library/Dynamic Link Library.sol\":2941:3002  abi.encodePacked(\"\\x19Ethereum Signed Message:\\n32\", msgHash) */\n      add(0x20, mload(0x40))\n      tag_22\n      swap2\n      swap1\n      tag_23\n      jump\t// in\n    tag_22:\n      mload(0x40)\n      0x20\n      dup2\n      dup4\n      sub\n      sub\n      dup2\n      mstore\n      swap1\n      0x40\n      mstore\n        /* \"D/Dynamic Link Library/Dynamic Link Library.sol\":2931:3003  keccak256(abi.encodePacked(\"\\x19Ethereum Signed Message:\\n32\", msgHash)) */\n      dup1\n      mload\n      swap1\n      0x20\n      add\n      keccak256\n        /* \"D/Dynamic Link Library/Dynamic Link Library.sol\":2913:3003  bytes32 ethMsg  = keccak256(abi.encodePacked(\"\\x19Ethereum Signed Message:\\n32\", msgHash)) */\n      swap1\n      pop\n        /* \"D/Dynamic Link Library/Dynamic Link Library.sol\":3014:3021  uint8 v */\n      0x00\n        /* \"D/Dynamic Link Library/Dynamic Link Library.sol\":3023:3032  bytes32 r */\n      dup1\n        /* \"D/Dynamic Link Library/Dynamic Link Library.sol\":3034:3043  bytes32 s */\n      0x00\n        /* \"D/Dynamic Link Library/Dynamic Link Library.sol\":3058:3061  sig */\n      dup7\n      dup7\n        /* \"D/Dynamic Link Library/Dynamic Link Library.sol\":3047:3089  abi.decode(sig, (uint8, bytes32, bytes32)) */\n      dup2\n      add\n      swap1\n      tag_24\n      swap2\n      swap1\n      tag_25\n      jump\t// in\n    tag_24:\n        /* \"D/Dynamic Link Library/Dynamic Link Library.sol\":3013:3089  (uint8 v, bytes32 r, bytes32 s) = abi.decode(sig, (uint8, bytes32, bytes32)) */\n      swap3\n      pop\n      swap3\n      pop\n      swap3\n      pop\n        /* \"D/Dynamic Link Library/Dynamic Link Library.sol\":3099:3113  address signer */\n      0x00\n        /* \"D/Dynamic Link Library/Dynamic Link Library.sol\":3116:3142  ecrecover(ethMsg, v, r, s) */\n      0x01\n        /* \"D/Dynamic Link Library/Dynamic Link Library.sol\":3126:3132  ethMsg */\n      dup6\n        /* \"D/Dynamic Link Library/Dynamic Link Library.sol\":3134:3135  v */\n      dup6\n        /* \"D/Dynamic Link Library/Dynamic Link Library.sol\":3137:3138  r */\n      dup6\n        /* \"D/Dynamic Link Library/Dynamic Link Library.sol\":3140:3141  s */\n      dup6\n        /* \"D/Dynamic Link Library/Dynamic Link Library.sol\":3116:3142  ecrecover(ethMsg, v, r, s) */\n      mload(0x40)\n      0x00\n      dup2\n      mstore\n      0x20\n      add\n      0x40\n      mstore\n      mload(0x40)\n      tag_26\n      swap5\n      swap4\n      swap3\n      swap2\n      swap1\n      tag_27\n      jump\t// in\n    tag_26:\n      0x20\n      mload(0x40)\n      0x20\n      dup2\n      sub\n      swap1\n      dup1\n      dup5\n      sub\n      swap1\n      dup6\n      gas\n      staticcall\n      iszero\n      dup1\n      iszero\n      tag_29\n      jumpi\n      returndatasize\n      0x00\n      dup1\n      returndatacopy\n      revert(0x00, returndatasize)\n    tag_29:\n      pop\n      pop\n      pop\n      mload(sub(mload(0x40), 0x20))\n        /* \"D/Dynamic Link Library/Dynamic Link Library.sol\":3099:3142  address signer = ecrecover(ethMsg, v, r, s) */\n      swap1\n      pop\n        /* \"D/Dynamic Link Library/Dynamic Link Library.sol\":3166:3174  approver */\n      0x01\n      0x00\n      swap1\n      sload\n      swap1\n      0x0100\n      exp\n      swap1\n      div\n      0xffffffffffffffffffffffffffffffffffffffff\n      and\n        /* \"D/Dynamic Link Library/Dynamic Link Library.sol\":3156:3174  signer != approver */\n      0xffffffffffffffffffffffffffffffffffffffff\n      and\n        /* \"D/Dynamic Link Library/Dynamic Link Library.sol\":3156:3162  signer */\n      dup2\n        /* \"D/Dynamic Link Library/Dynamic Link Library.sol\":3156:3174  signer != approver */\n      0xffffffffffffffffffffffffffffffffffffffff\n      and\n      eq\n        /* \"D/Dynamic Link Library/Dynamic Link Library.sol\":3152:3202  if (signer != approver) revert DLL__BadSignature() */\n      tag_30\n      jumpi\n        /* \"D/Dynamic Link Library/Dynamic Link Library.sol\":3183:3202  DLL__BadSignature() */\n      mload(0x40)\n      0x0c3cd79800000000000000000000000000000000000000000000000000000000\n      dup2\n      mstore\n      0x04\n      add\n      mload(0x40)\n      dup1\n      swap2\n      sub\n      swap1\n      revert\n        /* \"D/Dynamic Link Library/Dynamic Link Library.sol\":3152:3202  if (signer != approver) revert DLL__BadSignature() */\n    tag_30:\n        /* \"D/Dynamic Link Library/Dynamic Link Library.sol\":3231:3234  lib */\n      dup9\n        /* \"D/Dynamic Link Library/Dynamic Link Library.sol\":3213:3222  libraries */\n      0x00\n        /* \"D/Dynamic Link Library/Dynamic Link Library.sol\":3223:3227  path */\n      dup13\n      dup13\n        /* \"D/Dynamic Link Library/Dynamic Link Library.sol\":3213:3228  libraries[path] */\n      mload(0x40)\n      tag_31\n      swap3\n      swap2\n      swap1\n      tag_32\n      jump\t// in\n    tag_31:\n      swap1\n      dup2\n      mstore\n      0x20\n      add\n      mload(0x40)\n      dup1\n      swap2\n      sub\n      swap1\n      keccak256\n      0x00\n        /* \"D/Dynamic Link Library/Dynamic Link Library.sol\":3213:3234  libraries[path] = lib */\n      0x0100\n      exp\n      dup2\n      sload\n      dup2\n      0xffffffffffffffffffffffffffffffffffffffff\n      mul\n      not\n      and\n      swap1\n      dup4\n      0xffffffffffffffffffffffffffffffffffffffff\n      and\n      mul\n      or\n      swap1\n      sstore\n      pop\n        /* \"D/Dynamic Link Library/Dynamic Link Library.sol\":3263:3273  msg.sender */\n      caller\n        /* \"D/Dynamic Link Library/Dynamic Link Library.sol\":3249:3328  LibraryLoaded(msg.sender, path, lib, DynamicLinkLibraryDefenseType.CodeSigning) */\n      0xffffffffffffffffffffffffffffffffffffffff\n      and\n      0xd477ea6b1e623bd0fb7ee4281a3d6c60aadc66677a07c44145e0d8e40fa97a15\n        /* \"D/Dynamic Link Library/Dynamic Link Library.sol\":3275:3279  path */\n      dup13\n      dup13\n        /* \"D/Dynamic Link Library/Dynamic Link Library.sol\":3281:3284  lib */\n      dup13\n        /* \"D/Dynamic Link Library/Dynamic Link Library.sol\":3286:3327  DynamicLinkLibraryDefenseType.CodeSigning */\n      0x00\n        /* \"D/Dynamic Link Library/Dynamic Link Library.sol\":3249:3328  LibraryLoaded(msg.sender, path, lib, DynamicLinkLibraryDefenseType.CodeSigning) */\n      mload(0x40)\n      tag_33\n      swap5\n      swap4\n      swap3\n      swap2\n      swap1\n      tag_34\n      jump\t// in\n    tag_33:\n      mload(0x40)\n      dup1\n      swap2\n      sub\n      swap1\n      log2\n        /* \"D/Dynamic Link Library/Dynamic Link Library.sol\":2780:3335  {... */\n      pop\n      pop\n      pop\n      pop\n      pop\n      pop\n        /* \"D/Dynamic Link Library/Dynamic Link Library.sol\":2665:3335  function loadLibrary(... */\n      pop\n      pop\n      pop\n      pop\n      pop\n      jump\t// out\n        /* \"#utility.yul\":7:133   */\n    tag_35:\n        /* \"#utility.yul\":44:51   */\n      0x00\n        /* \"#utility.yul\":84:126   */\n      0xffffffffffffffffffffffffffffffffffffffff\n        /* \"#utility.yul\":77:82   */\n      dup3\n        /* \"#utility.yul\":73:127   */\n      and\n        /* \"#utility.yul\":62:127   */\n      swap1\n      pop\n        /* \"#utility.yul\":7:133   */\n      swap2\n      swap1\n      pop\n      jump\t// out\n        /* \"#utility.yul\":139:235   */\n    tag_36:\n        /* \"#utility.yul\":176:183   */\n      0x00\n        /* \"#utility.yul\":205:229   */\n      tag_85\n        /* \"#utility.yul\":223:228   */\n      dup3\n        /* \"#utility.yul\":205:229   */\n      tag_35\n      jump\t// in\n    tag_85:\n        /* \"#utility.yul\":194:229   */\n      swap1\n      pop\n        /* \"#utility.yul\":139:235   */\n      swap2\n      swap1\n      pop\n      jump\t// out\n        /* \"#utility.yul\":241:359   */\n    tag_37:\n        /* \"#utility.yul\":328:352   */\n      tag_87\n        /* \"#utility.yul\":346:351   */\n      dup2\n        /* \"#utility.yul\":328:352   */\n      tag_36\n      jump\t// in\n    tag_87:\n        /* \"#utility.yul\":323:326   */\n      dup3\n        /* \"#utility.yul\":316:353   */\n      mstore\n        /* \"#utility.yul\":241:359   */\n      pop\n      pop\n      jump\t// out\n        /* \"#utility.yul\":365:587   */\n    tag_9:\n        /* \"#utility.yul\":458:462   */\n      0x00\n        /* \"#utility.yul\":496:498   */\n      0x20\n        /* \"#utility.yul\":485:494   */\n      dup3\n        /* \"#utility.yul\":481:499   */\n      add\n        /* \"#utility.yul\":473:499   */\n      swap1\n      pop\n        /* \"#utility.yul\":509:580   */\n      tag_89\n        /* \"#utility.yul\":577:578   */\n      0x00\n        /* \"#utility.yul\":566:575   */\n      dup4\n        /* \"#utility.yul\":562:579   */\n      add\n        /* \"#utility.yul\":553:559   */\n      dup5\n        /* \"#utility.yul\":509:580   */\n      tag_37\n      jump\t// in\n    tag_89:\n        /* \"#utility.yul\":365:587   */\n      swap3\n      swap2\n      pop\n      pop\n      jump\t// out\n        /* \"#utility.yul\":593:668   */\n    tag_38:\n        /* \"#utility.yul\":626:632   */\n      0x00\n        /* \"#utility.yul\":659:661   */\n      0x40\n        /* \"#utility.yul\":653:662   */\n      mload\n        /* \"#utility.yul\":643:662   */\n      swap1\n      pop\n        /* \"#utility.yul\":593:668   */\n      swap1\n      jump\t// out\n        /* \"#utility.yul\":674:791   */\n    tag_39:\n        /* \"#utility.yul\":783:784   */\n      0x00\n        /* \"#utility.yul\":780:781   */\n      dup1\n        /* \"#utility.yul\":773:785   */\n      revert\n        /* \"#utility.yul\":797:914   */\n    tag_40:\n        /* \"#utility.yul\":906:907   */\n      0x00\n        /* \"#utility.yul\":903:904   */\n      dup1\n        /* \"#utility.yul\":896:908   */\n      revert\n        /* \"#utility.yul\":920:1037   */\n    tag_41:\n        /* \"#utility.yul\":1029:1030   */\n      0x00\n        /* \"#utility.yul\":1026:1027   */\n      dup1\n        /* \"#utility.yul\":1019:1031   */\n      revert\n        /* \"#utility.yul\":1043:1160   */\n    tag_42:\n        /* \"#utility.yul\":1152:1153   */\n      0x00\n        /* \"#utility.yul\":1149:1150   */\n      dup1\n        /* \"#utility.yul\":1142:1154   */\n      revert\n        /* \"#utility.yul\":1166:1268   */\n    tag_43:\n        /* \"#utility.yul\":1207:1213   */\n      0x00\n        /* \"#utility.yul\":1258:1260   */\n      0x1f\n        /* \"#utility.yul\":1254:1261   */\n      not\n        /* \"#utility.yul\":1249:1251   */\n      0x1f\n        /* \"#utility.yul\":1242:1247   */\n      dup4\n        /* \"#utility.yul\":1238:1252   */\n      add\n        /* \"#utility.yul\":1234:1262   */\n      and\n        /* \"#utility.yul\":1224:1262   */\n      swap1\n      pop\n        /* \"#utility.yul\":1166:1268   */\n      swap2\n      swap1\n      pop\n      jump\t// out\n        /* \"#utility.yul\":1274:1454   */\n    tag_44:\n        /* \"#utility.yul\":1322:1399   */\n      0x4e487b7100000000000000000000000000000000000000000000000000000000\n        /* \"#utility.yul\":1319:1320   */\n      0x00\n        /* \"#utility.yul\":1312:1400   */\n      mstore\n        /* \"#utility.yul\":1419:1423   */\n      0x41\n        /* \"#utility.yul\":1416:1417   */\n      0x04\n        /* \"#utility.yul\":1409:1424   */\n      mstore\n        /* \"#utility.yul\":1443:1447   */\n      0x24\n        /* \"#utility.yul\":1440:1441   */\n      0x00\n        /* \"#utility.yul\":1433:1448   */\n      revert\n        /* \"#utility.yul\":1460:1741   */\n    tag_45:\n        /* \"#utility.yul\":1543:1570   */\n      tag_98\n        /* \"#utility.yul\":1565:1569   */\n      dup3\n        /* \"#utility.yul\":1543:1570   */\n      tag_43\n      jump\t// in\n    tag_98:\n        /* \"#utility.yul\":1535:1541   */\n      dup2\n        /* \"#utility.yul\":1531:1571   */\n      add\n        /* \"#utility.yul\":1673:1679   */\n      dup2\n        /* \"#utility.yul\":1661:1671   */\n      dup2\n        /* \"#utility.yul\":1658:1680   */\n      lt\n        /* \"#utility.yul\":1637:1655   */\n      0xffffffffffffffff\n        /* \"#utility.yul\":1625:1635   */\n      dup3\n        /* \"#utility.yul\":1622:1656   */\n      gt\n        /* \"#utility.yul\":1619:1681   */\n      or\n        /* \"#utility.yul\":1616:1704   */\n      iszero\n      tag_99\n      jumpi\n        /* \"#utility.yul\":1684:1702   */\n      tag_100\n      tag_44\n      jump\t// in\n    tag_100:\n        /* \"#utility.yul\":1616:1704   */\n    tag_99:\n        /* \"#utility.yul\":1724:1734   */\n      dup1\n        /* \"#utility.yul\":1720:1722   */\n      0x40\n        /* \"#utility.yul\":1713:1735   */\n      mstore\n        /* \"#utility.yul\":1503:1741   */\n      pop\n        /* \"#utility.yul\":1460:1741   */\n      pop\n      pop\n      jump\t// out\n        /* \"#utility.yul\":1747:1876   */\n    tag_46:\n        /* \"#utility.yul\":1781:1787   */\n      0x00\n        /* \"#utility.yul\":1808:1828   */\n      tag_102\n      tag_38\n      jump\t// in\n    tag_102:\n        /* \"#utility.yul\":1798:1828   */\n      swap1\n      pop\n        /* \"#utility.yul\":1837:1870   */\n      tag_103\n        /* \"#utility.yul\":1865:1869   */\n      dup3\n        /* \"#utility.yul\":1857:1863   */\n      dup3\n        /* \"#utility.yul\":1837:1870   */\n      tag_45\n      jump\t// in\n    tag_103:\n        /* \"#utility.yul\":1747:1876   */\n      swap2\n      swap1\n      pop\n      jump\t// out\n        /* \"#utility.yul\":1882:2190   */\n    tag_47:\n        /* \"#utility.yul\":1944:1948   */\n      0x00\n        /* \"#utility.yul\":2034:2052   */\n      0xffffffffffffffff\n        /* \"#utility.yul\":2026:2032   */\n      dup3\n        /* \"#utility.yul\":2023:2053   */\n      gt\n        /* \"#utility.yul\":2020:2076   */\n      iszero\n      tag_105\n      jumpi\n        /* \"#utility.yul\":2056:2074   */\n      tag_106\n      tag_44\n      jump\t// in\n    tag_106:\n        /* \"#utility.yul\":2020:2076   */\n    tag_105:\n        /* \"#utility.yul\":2094:2123   */\n      tag_107\n        /* \"#utility.yul\":2116:2122   */\n      dup3\n        /* \"#utility.yul\":2094:2123   */\n      tag_43\n      jump\t// in\n    tag_107:\n        /* \"#utility.yul\":2086:2123   */\n      swap1\n      pop\n        /* \"#utility.yul\":2178:2182   */\n      0x20\n        /* \"#utility.yul\":2172:2176   */\n      dup2\n        /* \"#utility.yul\":2168:2183   */\n      add\n        /* \"#utility.yul\":2160:2183   */\n      swap1\n      pop\n        /* \"#utility.yul\":1882:2190   */\n      swap2\n      swap1\n      pop\n      jump\t// out\n        /* \"#utility.yul\":2196:2344   */\n    tag_48:\n        /* \"#utility.yul\":2294:2300   */\n      dup3\n        /* \"#utility.yul\":2289:2292   */\n      dup2\n        /* \"#utility.yul\":2284:2287   */\n      dup4\n        /* \"#utility.yul\":2271:2301   */\n      calldatacopy\n        /* \"#utility.yul\":2335:2336   */\n      0x00\n        /* \"#utility.yul\":2326:2332   */\n      dup4\n        /* \"#utility.yul\":2321:2324   */\n      dup4\n        /* \"#utility.yul\":2317:2333   */\n      add\n        /* \"#utility.yul\":2310:2337   */\n      mstore\n        /* \"#utility.yul\":2196:2344   */\n      pop\n      pop\n      pop\n      jump\t// out\n        /* \"#utility.yul\":2350:2775   */\n    tag_49:\n        /* \"#utility.yul\":2428:2433   */\n      0x00\n        /* \"#utility.yul\":2453:2519   */\n      tag_110\n        /* \"#utility.yul\":2469:2518   */\n      tag_111\n        /* \"#utility.yul\":2511:2517   */\n      dup5\n        /* \"#utility.yul\":2469:2518   */\n      tag_47\n      jump\t// in\n    tag_111:\n        /* \"#utility.yul\":2453:2519   */\n      tag_46\n      jump\t// in\n    tag_110:\n        /* \"#utility.yul\":2444:2519   */\n      swap1\n      pop\n        /* \"#utility.yul\":2542:2548   */\n      dup3\n        /* \"#utility.yul\":2535:2540   */\n      dup2\n        /* \"#utility.yul\":2528:2549   */\n      mstore\n        /* \"#utility.yul\":2580:2584   */\n      0x20\n        /* \"#utility.yul\":2573:2578   */\n      dup2\n        /* \"#utility.yul\":2569:2585   */\n      add\n        /* \"#utility.yul\":2618:2621   */\n      dup5\n        /* \"#utility.yul\":2609:2615   */\n      dup5\n        /* \"#utility.yul\":2604:2607   */\n      dup5\n        /* \"#utility.yul\":2600:2616   */\n      add\n        /* \"#utility.yul\":2597:2622   */\n      gt\n        /* \"#utility.yul\":2594:2706   */\n      iszero\n      tag_112\n      jumpi\n        /* \"#utility.yul\":2625:2704   */\n      tag_113\n      tag_42\n      jump\t// in\n    tag_113:\n        /* \"#utility.yul\":2594:2706   */\n    tag_112:\n        /* \"#utility.yul\":2715:2769   */\n      tag_114\n        /* \"#utility.yul\":2762:2768   */\n      dup5\n        /* \"#utility.yul\":2757:2760   */\n      dup3\n        /* \"#utility.yul\":2752:2755   */\n      dup6\n        /* \"#utility.yul\":2715:2769   */\n      tag_48\n      jump\t// in\n    tag_114:\n        /* \"#utility.yul\":2434:2775   */\n      pop\n        /* \"#utility.yul\":2350:2775   */\n      swap4\n      swap3\n      pop\n      pop\n      pop\n      jump\t// out\n        /* \"#utility.yul\":2795:3135   */\n    tag_50:\n        /* \"#utility.yul\":2851:2856   */\n      0x00\n        /* \"#utility.yul\":2900:2903   */\n      dup3\n        /* \"#utility.yul\":2893:2897   */\n      0x1f\n        /* \"#utility.yul\":2885:2891   */\n      dup4\n        /* \"#utility.yul\":2881:2898   */\n      add\n        /* \"#utility.yul\":2877:2904   */\n      slt\n        /* \"#utility.yul\":2867:2989   */\n      tag_116\n      jumpi\n        /* \"#utility.yul\":2908:2987   */\n      tag_117\n      tag_41\n      jump\t// in\n    tag_117:\n        /* \"#utility.yul\":2867:2989   */\n    tag_116:\n        /* \"#utility.yul\":3025:3031   */\n      dup2\n        /* \"#utility.yul\":3012:3032   */\n      calldataload\n        /* \"#utility.yul\":3050:3129   */\n      tag_118\n        /* \"#utility.yul\":3125:3128   */\n      dup5\n        /* \"#utility.yul\":3117:3123   */\n      dup3\n        /* \"#utility.yul\":3110:3114   */\n      0x20\n        /* \"#utility.yul\":3102:3108   */\n      dup7\n        /* \"#utility.yul\":3098:3115   */\n      add\n        /* \"#utility.yul\":3050:3129   */\n      tag_49\n      jump\t// in\n    tag_118:\n        /* \"#utility.yul\":3041:3129   */\n      swap2\n      pop\n        /* \"#utility.yul\":2857:3135   */\n      pop\n        /* \"#utility.yul\":2795:3135   */\n      swap3\n      swap2\n      pop\n      pop\n      jump\t// out\n        /* \"#utility.yul\":3141:3650   */\n    tag_12:\n        /* \"#utility.yul\":3210:3216   */\n      0x00\n        /* \"#utility.yul\":3259:3261   */\n      0x20\n        /* \"#utility.yul\":3247:3256   */\n      dup3\n        /* \"#utility.yul\":3238:3245   */\n      dup5\n        /* \"#utility.yul\":3234:3257   */\n      sub\n        /* \"#utility.yul\":3230:3262   */\n      slt\n        /* \"#utility.yul\":3227:3346   */\n      iszero\n      tag_120\n      jumpi\n        /* \"#utility.yul\":3265:3344   */\n      tag_121\n      tag_39\n      jump\t// in\n    tag_121:\n        /* \"#utility.yul\":3227:3346   */\n    tag_120:\n        /* \"#utility.yul\":3413:3414   */\n      0x00\n        /* \"#utility.yul\":3402:3411   */\n      dup3\n        /* \"#utility.yul\":3398:3415   */\n      add\n        /* \"#utility.yul\":3385:3416   */\n      calldataload\n        /* \"#utility.yul\":3443:3461   */\n      0xffffffffffffffff\n        /* \"#utility.yul\":3435:3441   */\n      dup2\n        /* \"#utility.yul\":3432:3462   */\n      gt\n        /* \"#utility.yul\":3429:3546   */\n      iszero\n      tag_122\n      jumpi\n        /* \"#utility.yul\":3465:3544   */\n      tag_123\n      tag_40\n      jump\t// in\n    tag_123:\n        /* \"#utility.yul\":3429:3546   */\n    tag_122:\n        /* \"#utility.yul\":3570:3633   */\n      tag_124\n        /* \"#utility.yul\":3625:3632   */\n      dup5\n        /* \"#utility.yul\":3616:3622   */\n      dup3\n        /* \"#utility.yul\":3605:3614   */\n      dup6\n        /* \"#utility.yul\":3601:3623   */\n      add\n        /* \"#utility.yul\":3570:3633   */\n      tag_50\n      jump\t// in\n    tag_124:\n        /* \"#utility.yul\":3560:3633   */\n      swap2\n      pop\n        /* \"#utility.yul\":3356:3643   */\n      pop\n        /* \"#utility.yul\":3141:3650   */\n      swap3\n      swap2\n      pop\n      pop\n      jump\t// out\n        /* \"#utility.yul\":3656:3773   */\n    tag_51:\n        /* \"#utility.yul\":3765:3766   */\n      0x00\n        /* \"#utility.yul\":3762:3763   */\n      dup1\n        /* \"#utility.yul\":3755:3767   */\n      revert\n        /* \"#utility.yul\":3779:3896   */\n    tag_52:\n        /* \"#utility.yul\":3888:3889   */\n      0x00\n        /* \"#utility.yul\":3885:3886   */\n      dup1\n        /* \"#utility.yul\":3878:3890   */\n      revert\n        /* \"#utility.yul\":3916:4469   */\n    tag_53:\n        /* \"#utility.yul\":3974:3982   */\n      0x00\n        /* \"#utility.yul\":3984:3990   */\n      dup1\n        /* \"#utility.yul\":4034:4037   */\n      dup4\n        /* \"#utility.yul\":4027:4031   */\n      0x1f\n        /* \"#utility.yul\":4019:4025   */\n      dup5\n        /* \"#utility.yul\":4015:4032   */\n      add\n        /* \"#utility.yul\":4011:4038   */\n      slt\n        /* \"#utility.yul\":4001:4123   */\n      tag_128\n      jumpi\n        /* \"#utility.yul\":4042:4121   */\n      tag_129\n      tag_41\n      jump\t// in\n    tag_129:\n        /* \"#utility.yul\":4001:4123   */\n    tag_128:\n        /* \"#utility.yul\":4155:4161   */\n      dup3\n        /* \"#utility.yul\":4142:4162   */\n      calldataload\n        /* \"#utility.yul\":4132:4162   */\n      swap1\n      pop\n        /* \"#utility.yul\":4185:4203   */\n      0xffffffffffffffff\n        /* \"#utility.yul\":4177:4183   */\n      dup2\n        /* \"#utility.yul\":4174:4204   */\n      gt\n        /* \"#utility.yul\":4171:4288   */\n      iszero\n      tag_130\n      jumpi\n        /* \"#utility.yul\":4207:4286   */\n      tag_131\n      tag_51\n      jump\t// in\n    tag_131:\n        /* \"#utility.yul\":4171:4288   */\n    tag_130:\n        /* \"#utility.yul\":4321:4325   */\n      0x20\n        /* \"#utility.yul\":4313:4319   */\n      dup4\n        /* \"#utility.yul\":4309:4326   */\n      add\n        /* \"#utility.yul\":4297:4326   */\n      swap2\n      pop\n        /* \"#utility.yul\":4375:4378   */\n      dup4\n        /* \"#utility.yul\":4367:4371   */\n      0x01\n        /* \"#utility.yul\":4359:4365   */\n      dup3\n        /* \"#utility.yul\":4355:4372   */\n      mul\n        /* \"#utility.yul\":4345:4353   */\n      dup4\n        /* \"#utility.yul\":4341:4373   */\n      add\n        /* \"#utility.yul\":4338:4379   */\n      gt\n        /* \"#utility.yul\":4335:4463   */\n      iszero\n      tag_132\n      jumpi\n        /* \"#utility.yul\":4382:4461   */\n      tag_133\n      tag_52\n      jump\t// in\n    tag_133:\n        /* \"#utility.yul\":4335:4463   */\n    tag_132:\n        /* \"#utility.yul\":3916:4469   */\n      swap3\n      pop\n      swap3\n      swap1\n      pop\n      jump\t// out\n        /* \"#utility.yul\":4475:4597   */\n    tag_54:\n        /* \"#utility.yul\":4548:4572   */\n      tag_135\n        /* \"#utility.yul\":4566:4571   */\n      dup2\n        /* \"#utility.yul\":4548:4572   */\n      tag_36\n      jump\t// in\n    tag_135:\n        /* \"#utility.yul\":4541:4546   */\n      dup2\n        /* \"#utility.yul\":4538:4573   */\n      eq\n        /* \"#utility.yul\":4528:4591   */\n      tag_136\n      jumpi\n        /* \"#utility.yul\":4587:4588   */\n      0x00\n        /* \"#utility.yul\":4584:4585   */\n      dup1\n        /* \"#utility.yul\":4577:4589   */\n      revert\n        /* \"#utility.yul\":4528:4591   */\n    tag_136:\n        /* \"#utility.yul\":4475:4597   */\n      pop\n      jump\t// out\n        /* \"#utility.yul\":4603:4742   */\n    tag_55:\n        /* \"#utility.yul\":4649:4654   */\n      0x00\n        /* \"#utility.yul\":4687:4693   */\n      dup2\n        /* \"#utility.yul\":4674:4694   */\n      calldataload\n        /* \"#utility.yul\":4665:4694   */\n      swap1\n      pop\n        /* \"#utility.yul\":4703:4736   */\n      tag_138\n        /* \"#utility.yul\":4730:4735   */\n      dup2\n        /* \"#utility.yul\":4703:4736   */\n      tag_54\n      jump\t// in\n    tag_138:\n        /* \"#utility.yul\":4603:4742   */\n      swap3\n      swap2\n      pop\n      pop\n      jump\t// out\n        /* \"#utility.yul\":4761:5313   */\n    tag_56:\n        /* \"#utility.yul\":4818:4826   */\n      0x00\n        /* \"#utility.yul\":4828:4834   */\n      dup1\n        /* \"#utility.yul\":4878:4881   */\n      dup4\n        /* \"#utility.yul\":4871:4875   */\n      0x1f\n        /* \"#utility.yul\":4863:4869   */\n      dup5\n        /* \"#utility.yul\":4859:4876   */\n      add\n        /* \"#utility.yul\":4855:4882   */\n      slt\n        /* \"#utility.yul\":4845:4967   */\n      tag_140\n      jumpi\n        /* \"#utility.yul\":4886:4965   */\n      tag_141\n      tag_41\n      jump\t// in\n    tag_141:\n        /* \"#utility.yul\":4845:4967   */\n    tag_140:\n        /* \"#utility.yul\":4999:5005   */\n      dup3\n        /* \"#utility.yul\":4986:5006   */\n      calldataload\n        /* \"#utility.yul\":4976:5006   */\n      swap1\n      pop\n        /* \"#utility.yul\":5029:5047   */\n      0xffffffffffffffff\n        /* \"#utility.yul\":5021:5027   */\n      dup2\n        /* \"#utility.yul\":5018:5048   */\n      gt\n        /* \"#utility.yul\":5015:5132   */\n      iszero\n      tag_142\n      jumpi\n        /* \"#utility.yul\":5051:5130   */\n      tag_143\n      tag_51\n      jump\t// in\n    tag_143:\n        /* \"#utility.yul\":5015:5132   */\n    tag_142:\n        /* \"#utility.yul\":5165:5169   */\n      0x20\n        /* \"#utility.yul\":5157:5163   */\n      dup4\n        /* \"#utility.yul\":5153:5170   */\n      add\n        /* \"#utility.yul\":5141:5170   */\n      swap2\n      pop\n        /* \"#utility.yul\":5219:5222   */\n      dup4\n        /* \"#utility.yul\":5211:5215   */\n      0x01\n        /* \"#utility.yul\":5203:5209   */\n      dup3\n        /* \"#utility.yul\":5199:5216   */\n      mul\n        /* \"#utility.yul\":5189:5197   */\n      dup4\n        /* \"#utility.yul\":5185:5217   */\n      add\n        /* \"#utility.yul\":5182:5223   */\n      gt\n        /* \"#utility.yul\":5179:5307   */\n      iszero\n      tag_144\n      jumpi\n        /* \"#utility.yul\":5226:5305   */\n      tag_145\n      tag_52\n      jump\t// in\n    tag_145:\n        /* \"#utility.yul\":5179:5307   */\n    tag_144:\n        /* \"#utility.yul\":4761:5313   */\n      swap3\n      pop\n      swap3\n      swap1\n      pop\n      jump\t// out\n        /* \"#utility.yul\":5319:6336   */\n    tag_17:\n        /* \"#utility.yul\":5419:5425   */\n      0x00\n        /* \"#utility.yul\":5427:5433   */\n      dup1\n        /* \"#utility.yul\":5435:5441   */\n      0x00\n        /* \"#utility.yul\":5443:5449   */\n      dup1\n        /* \"#utility.yul\":5451:5457   */\n      0x00\n        /* \"#utility.yul\":5500:5502   */\n      0x60\n        /* \"#utility.yul\":5488:5497   */\n      dup7\n        /* \"#utility.yul\":5479:5486   */\n      dup9\n        /* \"#utility.yul\":5475:5498   */\n      sub\n        /* \"#utility.yul\":5471:5503   */\n      slt\n        /* \"#utility.yul\":5468:5587   */\n      iszero\n      tag_147\n      jumpi\n        /* \"#utility.yul\":5506:5585   */\n      tag_148\n      tag_39\n      jump\t// in\n    tag_148:\n        /* \"#utility.yul\":5468:5587   */\n    tag_147:\n        /* \"#utility.yul\":5654:5655   */\n      0x00\n        /* \"#utility.yul\":5643:5652   */\n      dup7\n        /* \"#utility.yul\":5639:5656   */\n      add\n        /* \"#utility.yul\":5626:5657   */\n      calldataload\n        /* \"#utility.yul\":5684:5702   */\n      0xffffffffffffffff\n        /* \"#utility.yul\":5676:5682   */\n      dup2\n        /* \"#utility.yul\":5673:5703   */\n      gt\n        /* \"#utility.yul\":5670:5787   */\n      iszero\n      tag_149\n      jumpi\n        /* \"#utility.yul\":5706:5785   */\n      tag_150\n      tag_40\n      jump\t// in\n    tag_150:\n        /* \"#utility.yul\":5670:5787   */\n    tag_149:\n        /* \"#utility.yul\":5819:5884   */\n      tag_151\n        /* \"#utility.yul\":5876:5883   */\n      dup9\n        /* \"#utility.yul\":5867:5873   */\n      dup3\n        /* \"#utility.yul\":5856:5865   */\n      dup10\n        /* \"#utility.yul\":5852:5874   */\n      add\n        /* \"#utility.yul\":5819:5884   */\n      tag_53\n      jump\t// in\n    tag_151:\n        /* \"#utility.yul\":5801:5884   */\n      swap6\n      pop\n      swap6\n      pop\n        /* \"#utility.yul\":5597:5894   */\n      pop\n        /* \"#utility.yul\":5933:5935   */\n      0x20\n        /* \"#utility.yul\":5959:6012   */\n      tag_152\n        /* \"#utility.yul\":6004:6011   */\n      dup9\n        /* \"#utility.yul\":5995:6001   */\n      dup3\n        /* \"#utility.yul\":5984:5993   */\n      dup10\n        /* \"#utility.yul\":5980:6002   */\n      add\n        /* \"#utility.yul\":5959:6012   */\n      tag_55\n      jump\t// in\n    tag_152:\n        /* \"#utility.yul\":5949:6012   */\n      swap4\n      pop\n        /* \"#utility.yul\":5904:6022   */\n      pop\n        /* \"#utility.yul\":6089:6091   */\n      0x40\n        /* \"#utility.yul\":6078:6087   */\n      dup7\n        /* \"#utility.yul\":6074:6092   */\n      add\n        /* \"#utility.yul\":6061:6093   */\n      calldataload\n        /* \"#utility.yul\":6120:6138   */\n      0xffffffffffffffff\n        /* \"#utility.yul\":6112:6118   */\n      dup2\n        /* \"#utility.yul\":6109:6139   */\n      gt\n        /* \"#utility.yul\":6106:6223   */\n      iszero\n      tag_153\n      jumpi\n        /* \"#utility.yul\":6142:6221   */\n      tag_154\n      tag_40\n      jump\t// in\n    tag_154:\n        /* \"#utility.yul\":6106:6223   */\n    tag_153:\n        /* \"#utility.yul\":6255:6319   */\n      tag_155\n        /* \"#utility.yul\":6311:6318   */\n      dup9\n        /* \"#utility.yul\":6302:6308   */\n      dup3\n        /* \"#utility.yul\":6291:6300   */\n      dup10\n        /* \"#utility.yul\":6287:6309   */\n      add\n        /* \"#utility.yul\":6255:6319   */\n      tag_56\n      jump\t// in\n    tag_155:\n        /* \"#utility.yul\":6237:6319   */\n      swap3\n      pop\n      swap3\n      pop\n        /* \"#utility.yul\":6032:6329   */\n      pop\n        /* \"#utility.yul\":5319:6336   */\n      swap3\n      swap6\n      pop\n      swap3\n      swap6\n      swap1\n      swap4\n      pop\n      jump\t// out\n        /* \"#utility.yul\":6342:6490   */\n    tag_57:\n        /* \"#utility.yul\":6444:6455   */\n      0x00\n        /* \"#utility.yul\":6481:6484   */\n      dup2\n        /* \"#utility.yul\":6466:6484   */\n      swap1\n      pop\n        /* \"#utility.yul\":6342:6490   */\n      swap3\n      swap2\n      pop\n      pop\n      jump\t// out\n        /* \"#utility.yul\":6520:6850   */\n    tag_58:\n        /* \"#utility.yul\":6636:6639   */\n      0x00\n        /* \"#utility.yul\":6657:6746   */\n      tag_158\n        /* \"#utility.yul\":6739:6745   */\n      dup4\n        /* \"#utility.yul\":6734:6737   */\n      dup6\n        /* \"#utility.yul\":6657:6746   */\n      tag_57\n      jump\t// in\n    tag_158:\n        /* \"#utility.yul\":6650:6746   */\n      swap4\n      pop\n        /* \"#utility.yul\":6756:6812   */\n      tag_159\n        /* \"#utility.yul\":6805:6811   */\n      dup4\n        /* \"#utility.yul\":6800:6803   */\n      dup6\n        /* \"#utility.yul\":6793:6798   */\n      dup5\n        /* \"#utility.yul\":6756:6812   */\n      tag_48\n      jump\t// in\n    tag_159:\n        /* \"#utility.yul\":6837:6843   */\n      dup3\n        /* \"#utility.yul\":6832:6835   */\n      dup5\n        /* \"#utility.yul\":6828:6844   */\n      add\n        /* \"#utility.yul\":6821:6844   */\n      swap1\n      pop\n        /* \"#utility.yul\":6520:6850   */\n      swap4\n      swap3\n      pop\n      pop\n      pop\n      jump\t// out\n        /* \"#utility.yul\":6856:6950   */\n    tag_59:\n        /* \"#utility.yul\":6889:6897   */\n      0x00\n        /* \"#utility.yul\":6937:6942   */\n      dup2\n        /* \"#utility.yul\":6933:6935   */\n      0x60\n        /* \"#utility.yul\":6929:6943   */\n      shl\n        /* \"#utility.yul\":6908:6943   */\n      swap1\n      pop\n        /* \"#utility.yul\":6856:6950   */\n      swap2\n      swap1\n      pop\n      jump\t// out\n        /* \"#utility.yul\":6956:7050   */\n    tag_60:\n        /* \"#utility.yul\":6995:7002   */\n      0x00\n        /* \"#utility.yul\":7024:7044   */\n      tag_162\n        /* \"#utility.yul\":7038:7043   */\n      dup3\n        /* \"#utility.yul\":7024:7044   */\n      tag_59\n      jump\t// in\n    tag_162:\n        /* \"#utility.yul\":7013:7044   */\n      swap1\n      pop\n        /* \"#utility.yul\":6956:7050   */\n      swap2\n      swap1\n      pop\n      jump\t// out\n        /* \"#utility.yul\":7056:7156   */\n    tag_61:\n        /* \"#utility.yul\":7095:7102   */\n      0x00\n        /* \"#utility.yul\":7124:7150   */\n      tag_164\n        /* \"#utility.yul\":7144:7149   */\n      dup3\n        /* \"#utility.yul\":7124:7150   */\n      tag_60\n      jump\t// in\n    tag_164:\n        /* \"#utility.yul\":7113:7150   */\n      swap1\n      pop\n        /* \"#utility.yul\":7056:7156   */\n      swap2\n      swap1\n      pop\n      jump\t// out\n        /* \"#utility.yul\":7162:7319   */\n    tag_62:\n        /* \"#utility.yul\":7267:7312   */\n      tag_166\n        /* \"#utility.yul\":7287:7311   */\n      tag_167\n        /* \"#utility.yul\":7305:7310   */\n      dup3\n        /* \"#utility.yul\":7287:7311   */\n      tag_36\n      jump\t// in\n    tag_167:\n        /* \"#utility.yul\":7267:7312   */\n      tag_61\n      jump\t// in\n    tag_166:\n        /* \"#utility.yul\":7262:7265   */\n      dup3\n        /* \"#utility.yul\":7255:7313   */\n      mstore\n        /* \"#utility.yul\":7162:7319   */\n      pop\n      pop\n      jump\t// out\n        /* \"#utility.yul\":7325:7761   */\n    tag_21:\n        /* \"#utility.yul\":7495:7498   */\n      0x00\n        /* \"#utility.yul\":7517:7622   */\n      tag_169\n        /* \"#utility.yul\":7618:7621   */\n      dup3\n        /* \"#utility.yul\":7609:7615   */\n      dup6\n        /* \"#utility.yul\":7601:7607   */\n      dup8\n        /* \"#utility.yul\":7517:7622   */\n      tag_58\n      jump\t// in\n    tag_169:\n        /* \"#utility.yul\":7510:7622   */\n      swap2\n      pop\n        /* \"#utility.yul\":7632:7707   */\n      tag_170\n        /* \"#utility.yul\":7703:7706   */\n      dup3\n        /* \"#utility.yul\":7694:7700   */\n      dup5\n        /* \"#utility.yul\":7632:7707   */\n      tag_62\n      jump\t// in\n    tag_170:\n        /* \"#utility.yul\":7732:7734   */\n      0x14\n        /* \"#utility.yul\":7727:7730   */\n      dup3\n        /* \"#utility.yul\":7723:7735   */\n      add\n        /* \"#utility.yul\":7716:7735   */\n      swap2\n      pop\n        /* \"#utility.yul\":7752:7755   */\n      dup2\n        /* \"#utility.yul\":7745:7755   */\n      swap1\n      pop\n        /* \"#utility.yul\":7325:7761   */\n      swap5\n      swap4\n      pop\n      pop\n      pop\n      pop\n      jump\t// out\n        /* \"#utility.yul\":7767:7981   */\n    tag_63:\n        /* \"#utility.yul\":7907:7973   */\n      0x19457468657265756d205369676e6564204d6573736167653a0a333200000000\n        /* \"#utility.yul\":7903:7904   */\n      0x00\n        /* \"#utility.yul\":7895:7901   */\n      dup3\n        /* \"#utility.yul\":7891:7905   */\n      add\n        /* \"#utility.yul\":7884:7974   */\n      mstore\n        /* \"#utility.yul\":7767:7981   */\n      pop\n      jump\t// out\n        /* \"#utility.yul\":7987:8389   */\n    tag_64:\n        /* \"#utility.yul\":8147:8150   */\n      0x00\n        /* \"#utility.yul\":8168:8253   */\n      tag_173\n        /* \"#utility.yul\":8250:8252   */\n      0x1c\n        /* \"#utility.yul\":8245:8248   */\n      dup4\n        /* \"#utility.yul\":8168:8253   */\n      tag_57\n      jump\t// in\n    tag_173:\n        /* \"#utility.yul\":8161:8253   */\n      swap2\n      pop\n        /* \"#utility.yul\":8262:8355   */\n      tag_174\n        /* \"#utility.yul\":8351:8354   */\n      dup3\n        /* \"#utility.yul\":8262:8355   */\n      tag_63\n      jump\t// in\n    tag_174:\n        /* \"#utility.yul\":8380:8382   */\n      0x1c\n        /* \"#utility.yul\":8375:8378   */\n      dup3\n        /* \"#utility.yul\":8371:8383   */\n      add\n        /* \"#utility.yul\":8364:8383   */\n      swap1\n      pop\n        /* \"#utility.yul\":7987:8389   */\n      swap2\n      swap1\n      pop\n      jump\t// out\n        /* \"#utility.yul\":8395:8472   */\n    tag_65:\n        /* \"#utility.yul\":8432:8439   */\n      0x00\n        /* \"#utility.yul\":8461:8466   */\n      dup2\n        /* \"#utility.yul\":8450:8466   */\n      swap1\n      pop\n        /* \"#utility.yul\":8395:8472   */\n      swap2\n      swap1\n      pop\n      jump\t// out\n        /* \"#utility.yul\":8478:8557   */\n    tag_66:\n        /* \"#utility.yul\":8517:8524   */\n      0x00\n        /* \"#utility.yul\":8546:8551   */\n      dup2\n        /* \"#utility.yul\":8535:8551   */\n      swap1\n      pop\n        /* \"#utility.yul\":8478:8557   */\n      swap2\n      swap1\n      pop\n      jump\t// out\n        /* \"#utility.yul\":8563:8720   */\n    tag_67:\n        /* \"#utility.yul\":8668:8713   */\n      tag_178\n        /* \"#utility.yul\":8688:8712   */\n      tag_179\n        /* \"#utility.yul\":8706:8711   */\n      dup3\n        /* \"#utility.yul\":8688:8712   */\n      tag_65\n      jump\t// in\n    tag_179:\n        /* \"#utility.yul\":8668:8713   */\n      tag_66\n      jump\t// in\n    tag_178:\n        /* \"#utility.yul\":8663:8666   */\n      dup3\n        /* \"#utility.yul\":8656:8714   */\n      mstore\n        /* \"#utility.yul\":8563:8720   */\n      pop\n      pop\n      jump\t// out\n        /* \"#utility.yul\":8726:9248   */\n    tag_23:\n        /* \"#utility.yul\":8939:8942   */\n      0x00\n        /* \"#utility.yul\":8961:9109   */\n      tag_181\n        /* \"#utility.yul\":9105:9108   */\n      dup3\n        /* \"#utility.yul\":8961:9109   */\n      tag_64\n      jump\t// in\n    tag_181:\n        /* \"#utility.yul\":8954:9109   */\n      swap2\n      pop\n        /* \"#utility.yul\":9119:9194   */\n      tag_182\n        /* \"#utility.yul\":9190:9193   */\n      dup3\n        /* \"#utility.yul\":9181:9187   */\n      dup5\n        /* \"#utility.yul\":9119:9194   */\n      tag_67\n      jump\t// in\n    tag_182:\n        /* \"#utility.yul\":9219:9221   */\n      0x20\n        /* \"#utility.yul\":9214:9217   */\n      dup3\n        /* \"#utility.yul\":9210:9222   */\n      add\n        /* \"#utility.yul\":9203:9222   */\n      swap2\n      pop\n        /* \"#utility.yul\":9239:9242   */\n      dup2\n        /* \"#utility.yul\":9232:9242   */\n      swap1\n      pop\n        /* \"#utility.yul\":8726:9248   */\n      swap3\n      swap2\n      pop\n      pop\n      jump\t// out\n        /* \"#utility.yul\":9254:9340   */\n    tag_68:\n        /* \"#utility.yul\":9289:9296   */\n      0x00\n        /* \"#utility.yul\":9329:9333   */\n      0xff\n        /* \"#utility.yul\":9322:9327   */\n      dup3\n        /* \"#utility.yul\":9318:9334   */\n      and\n        /* \"#utility.yul\":9307:9334   */\n      swap1\n      pop\n        /* \"#utility.yul\":9254:9340   */\n      swap2\n      swap1\n      pop\n      jump\t// out\n        /* \"#utility.yul\":9346:9464   */\n    tag_69:\n        /* \"#utility.yul\":9417:9439   */\n      tag_185\n        /* \"#utility.yul\":9433:9438   */\n      dup2\n        /* \"#utility.yul\":9417:9439   */\n      tag_68\n      jump\t// in\n    tag_185:\n        /* \"#utility.yul\":9410:9415   */\n      dup2\n        /* \"#utility.yul\":9407:9440   */\n      eq\n        /* \"#utility.yul\":9397:9458   */\n      tag_186\n      jumpi\n        /* \"#utility.yul\":9454:9455   */\n      0x00\n        /* \"#utility.yul\":9451:9452   */\n      dup1\n        /* \"#utility.yul\":9444:9456   */\n      revert\n        /* \"#utility.yul\":9397:9458   */\n    tag_186:\n        /* \"#utility.yul\":9346:9464   */\n      pop\n      jump\t// out\n        /* \"#utility.yul\":9470:9605   */\n    tag_70:\n        /* \"#utility.yul\":9514:9519   */\n      0x00\n        /* \"#utility.yul\":9552:9558   */\n      dup2\n        /* \"#utility.yul\":9539:9559   */\n      calldataload\n        /* \"#utility.yul\":9530:9559   */\n      swap1\n      pop\n        /* \"#utility.yul\":9568:9599   */\n      tag_188\n        /* \"#utility.yul\":9593:9598   */\n      dup2\n        /* \"#utility.yul\":9568:9599   */\n      tag_69\n      jump\t// in\n    tag_188:\n        /* \"#utility.yul\":9470:9605   */\n      swap3\n      swap2\n      pop\n      pop\n      jump\t// out\n        /* \"#utility.yul\":9611:9733   */\n    tag_71:\n        /* \"#utility.yul\":9684:9708   */\n      tag_190\n        /* \"#utility.yul\":9702:9707   */\n      dup2\n        /* \"#utility.yul\":9684:9708   */\n      tag_65\n      jump\t// in\n    tag_190:\n        /* \"#utility.yul\":9677:9682   */\n      dup2\n        /* \"#utility.yul\":9674:9709   */\n      eq\n        /* \"#utility.yul\":9664:9727   */\n      tag_191\n      jumpi\n        /* \"#utility.yul\":9723:9724   */\n      0x00\n        /* \"#utility.yul\":9720:9721   */\n      dup1\n        /* \"#utility.yul\":9713:9725   */\n      revert\n        /* \"#utility.yul\":9664:9727   */\n    tag_191:\n        /* \"#utility.yul\":9611:9733   */\n      pop\n      jump\t// out\n        /* \"#utility.yul\":9739:9878   */\n    tag_72:\n        /* \"#utility.yul\":9785:9790   */\n      0x00\n        /* \"#utility.yul\":9823:9829   */\n      dup2\n        /* \"#utility.yul\":9810:9830   */\n      calldataload\n        /* \"#utility.yul\":9801:9830   */\n      swap1\n      pop\n        /* \"#utility.yul\":9839:9872   */\n      tag_193\n        /* \"#utility.yul\":9866:9871   */\n      dup2\n        /* \"#utility.yul\":9839:9872   */\n      tag_71\n      jump\t// in\n    tag_193:\n        /* \"#utility.yul\":9739:9878   */\n      swap3\n      swap2\n      pop\n      pop\n      jump\t// out\n        /* \"#utility.yul\":9884:10499   */\n    tag_25:\n        /* \"#utility.yul\":9959:9965   */\n      0x00\n        /* \"#utility.yul\":9967:9973   */\n      dup1\n        /* \"#utility.yul\":9975:9981   */\n      0x00\n        /* \"#utility.yul\":10024:10026   */\n      0x60\n        /* \"#utility.yul\":10012:10021   */\n      dup5\n        /* \"#utility.yul\":10003:10010   */\n      dup7\n        /* \"#utility.yul\":9999:10022   */\n      sub\n        /* \"#utility.yul\":9995:10027   */\n      slt\n        /* \"#utility.yul\":9992:10111   */\n      iszero\n      tag_195\n      jumpi\n        /* \"#utility.yul\":10030:10109   */\n      tag_196\n      tag_39\n      jump\t// in\n    tag_196:\n        /* \"#utility.yul\":9992:10111   */\n    tag_195:\n        /* \"#utility.yul\":10150:10151   */\n      0x00\n        /* \"#utility.yul\":10175:10226   */\n      tag_197\n        /* \"#utility.yul\":10218:10225   */\n      dup7\n        /* \"#utility.yul\":10209:10215   */\n      dup3\n        /* \"#utility.yul\":10198:10207   */\n      dup8\n        /* \"#utility.yul\":10194:10216   */\n      add\n        /* \"#utility.yul\":10175:10226   */\n      tag_70\n      jump\t// in\n    tag_197:\n        /* \"#utility.yul\":10165:10226   */\n      swap4\n      pop\n        /* \"#utility.yul\":10121:10236   */\n      pop\n        /* \"#utility.yul\":10275:10277   */\n      0x20\n        /* \"#utility.yul\":10301:10354   */\n      tag_198\n        /* \"#utility.yul\":10346:10353   */\n      dup7\n        /* \"#utility.yul\":10337:10343   */\n      dup3\n        /* \"#utility.yul\":10326:10335   */\n      dup8\n        /* \"#utility.yul\":10322:10344   */\n      add\n        /* \"#utility.yul\":10301:10354   */\n      tag_72\n      jump\t// in\n    tag_198:\n        /* \"#utility.yul\":10291:10354   */\n      swap3\n      pop\n        /* \"#utility.yul\":10246:10364   */\n      pop\n        /* \"#utility.yul\":10403:10405   */\n      0x40\n        /* \"#utility.yul\":10429:10482   */\n      tag_199\n        /* \"#utility.yul\":10474:10481   */\n      dup7\n        /* \"#utility.yul\":10465:10471   */\n      dup3\n        /* \"#utility.yul\":10454:10463   */\n      dup8\n        /* \"#utility.yul\":10450:10472   */\n      add\n        /* \"#utility.yul\":10429:10482   */\n      tag_72\n      jump\t// in\n    tag_199:\n        /* \"#utility.yul\":10419:10482   */\n      swap2\n      pop\n        /* \"#utility.yul\":10374:10492   */\n      pop\n        /* \"#utility.yul\":9884:10499   */\n      swap3\n      pop\n      swap3\n      pop\n      swap3\n      jump\t// out\n        /* \"#utility.yul\":10505:10623   */\n    tag_73:\n        /* \"#utility.yul\":10592:10616   */\n      tag_201\n        /* \"#utility.yul\":10610:10615   */\n      dup2\n        /* \"#utility.yul\":10592:10616   */\n      tag_65\n      jump\t// in\n    tag_201:\n        /* \"#utility.yul\":10587:10590   */\n      dup3\n        /* \"#utility.yul\":10580:10617   */\n      mstore\n        /* \"#utility.yul\":10505:10623   */\n      pop\n      pop\n      jump\t// out\n        /* \"#utility.yul\":10629:10741   */\n    tag_74:\n        /* \"#utility.yul\":10712:10734   */\n      tag_203\n        /* \"#utility.yul\":10728:10733   */\n      dup2\n        /* \"#utility.yul\":10712:10734   */\n      tag_68\n      jump\t// in\n    tag_203:\n        /* \"#utility.yul\":10707:10710   */\n      dup3\n        /* \"#utility.yul\":10700:10735   */\n      mstore\n        /* \"#utility.yul\":10629:10741   */\n      pop\n      pop\n      jump\t// out\n        /* \"#utility.yul\":10747:11292   */\n    tag_27:\n        /* \"#utility.yul\":10920:10924   */\n      0x00\n        /* \"#utility.yul\":10958:10961   */\n      0x80\n        /* \"#utility.yul\":10947:10956   */\n      dup3\n        /* \"#utility.yul\":10943:10962   */\n      add\n        /* \"#utility.yul\":10935:10962   */\n      swap1\n      pop\n        /* \"#utility.yul\":10972:11043   */\n      tag_205\n        /* \"#utility.yul\":11040:11041   */\n      0x00\n        /* \"#utility.yul\":11029:11038   */\n      dup4\n        /* \"#utility.yul\":11025:11042   */\n      add\n        /* \"#utility.yul\":11016:11022   */\n      dup8\n        /* \"#utility.yul\":10972:11043   */\n      tag_73\n      jump\t// in\n    tag_205:\n        /* \"#utility.yul\":11053:11121   */\n      tag_206\n        /* \"#utility.yul\":11117:11119   */\n      0x20\n        /* \"#utility.yul\":11106:11115   */\n      dup4\n        /* \"#utility.yul\":11102:11120   */\n      add\n        /* \"#utility.yul\":11093:11099   */\n      dup7\n        /* \"#utility.yul\":11053:11121   */\n      tag_74\n      jump\t// in\n    tag_206:\n        /* \"#utility.yul\":11131:11203   */\n      tag_207\n        /* \"#utility.yul\":11199:11201   */\n      0x40\n        /* \"#utility.yul\":11188:11197   */\n      dup4\n        /* \"#utility.yul\":11184:11202   */\n      add\n        /* \"#utility.yul\":11175:11181   */\n      dup6\n        /* \"#utility.yul\":11131:11203   */\n      tag_73\n      jump\t// in\n    tag_207:\n        /* \"#utility.yul\":11213:11285   */\n      tag_208\n        /* \"#utility.yul\":11281:11283   */\n      0x60\n        /* \"#utility.yul\":11270:11279   */\n      dup4\n        /* \"#utility.yul\":11266:11284   */\n      add\n        /* \"#utility.yul\":11257:11263   */\n      dup5\n        /* \"#utility.yul\":11213:11285   */\n      tag_73\n      jump\t// in\n    tag_208:\n        /* \"#utility.yul\":10747:11292   */\n      swap6\n      swap5\n      pop\n      pop\n      pop\n      pop\n      pop\n      jump\t// out\n        /* \"#utility.yul\":11298:11593   */\n    tag_32:\n        /* \"#utility.yul\":11440:11443   */\n      0x00\n        /* \"#utility.yul\":11462:11567   */\n      tag_210\n        /* \"#utility.yul\":11563:11566   */\n      dup3\n        /* \"#utility.yul\":11554:11560   */\n      dup5\n        /* \"#utility.yul\":11546:11552   */\n      dup7\n        /* \"#utility.yul\":11462:11567   */\n      tag_58\n      jump\t// in\n    tag_210:\n        /* \"#utility.yul\":11455:11567   */\n      swap2\n      pop\n        /* \"#utility.yul\":11584:11587   */\n      dup2\n        /* \"#utility.yul\":11577:11587   */\n      swap1\n      pop\n        /* \"#utility.yul\":11298:11593   */\n      swap4\n      swap3\n      pop\n      pop\n      pop\n      jump\t// out\n        /* \"#utility.yul\":11599:11768   */\n    tag_75:\n        /* \"#utility.yul\":11683:11694   */\n      0x00\n        /* \"#utility.yul\":11717:11723   */\n      dup3\n        /* \"#utility.yul\":11712:11715   */\n      dup3\n        /* \"#utility.yul\":11705:11724   */\n      mstore\n        /* \"#utility.yul\":11757:11761   */\n      0x20\n        /* \"#utility.yul\":11752:11755   */\n      dup3\n        /* \"#utility.yul\":11748:11762   */\n      add\n        /* \"#utility.yul\":11733:11762   */\n      swap1\n      pop\n        /* \"#utility.yul\":11599:11768   */\n      swap3\n      swap2\n      pop\n      pop\n      jump\t// out\n        /* \"#utility.yul\":11798:12115   */\n    tag_76:\n        /* \"#utility.yul\":11896:11899   */\n      0x00\n        /* \"#utility.yul\":11917:11988   */\n      tag_213\n        /* \"#utility.yul\":11981:11987   */\n      dup4\n        /* \"#utility.yul\":11976:11979   */\n      dup6\n        /* \"#utility.yul\":11917:11988   */\n      tag_75\n      jump\t// in\n    tag_213:\n        /* \"#utility.yul\":11910:11988   */\n      swap4\n      pop\n        /* \"#utility.yul\":11998:12054   */\n      tag_214\n        /* \"#utility.yul\":12047:12053   */\n      dup4\n        /* \"#utility.yul\":12042:12045   */\n      dup6\n        /* \"#utility.yul\":12035:12040   */\n      dup5\n        /* \"#utility.yul\":11998:12054   */\n      tag_48\n      jump\t// in\n    tag_214:\n        /* \"#utility.yul\":12079:12108   */\n      tag_215\n        /* \"#utility.yul\":12101:12107   */\n      dup4\n        /* \"#utility.yul\":12079:12108   */\n      tag_43\n      jump\t// in\n    tag_215:\n        /* \"#utility.yul\":12074:12077   */\n      dup5\n        /* \"#utility.yul\":12070:12109   */\n      add\n        /* \"#utility.yul\":12063:12109   */\n      swap1\n      pop\n        /* \"#utility.yul\":11798:12115   */\n      swap4\n      swap3\n      pop\n      pop\n      pop\n      jump\t// out\n        /* \"#utility.yul\":12121:12301   */\n    tag_77:\n        /* \"#utility.yul\":12169:12246   */\n      0x4e487b7100000000000000000000000000000000000000000000000000000000\n        /* \"#utility.yul\":12166:12167   */\n      0x00\n        /* \"#utility.yul\":12159:12247   */\n      mstore\n        /* \"#utility.yul\":12266:12270   */\n      0x21\n        /* \"#utility.yul\":12263:12264   */\n      0x04\n        /* \"#utility.yul\":12256:12271   */\n      mstore\n        /* \"#utility.yul\":12290:12294   */\n      0x24\n        /* \"#utility.yul\":12287:12288   */\n      0x00\n        /* \"#utility.yul\":12280:12295   */\n      revert\n        /* \"#utility.yul\":12307:12444   */\n    tag_78:\n        /* \"#utility.yul\":12412:12413   */\n      0x04\n        /* \"#utility.yul\":12405:12410   */\n      dup2\n        /* \"#utility.yul\":12402:12414   */\n      lt\n        /* \"#utility.yul\":12392:12438   */\n      tag_218\n      jumpi\n        /* \"#utility.yul\":12418:12436   */\n      tag_219\n      tag_77\n      jump\t// in\n    tag_219:\n        /* \"#utility.yul\":12392:12438   */\n    tag_218:\n        /* \"#utility.yul\":12307:12444   */\n      pop\n      jump\t// out\n        /* \"#utility.yul\":12450:12625   */\n    tag_79:\n        /* \"#utility.yul\":12519:12526   */\n      0x00\n        /* \"#utility.yul\":12548:12553   */\n      dup2\n        /* \"#utility.yul\":12537:12553   */\n      swap1\n      pop\n        /* \"#utility.yul\":12554:12619   */\n      tag_221\n        /* \"#utility.yul\":12613:12618   */\n      dup3\n        /* \"#utility.yul\":12554:12619   */\n      tag_78\n      jump\t// in\n    tag_221:\n        /* \"#utility.yul\":12450:12625   */\n      swap2\n      swap1\n      pop\n      jump\t// out\n        /* \"#utility.yul\":12631:12806   */\n    tag_80:\n        /* \"#utility.yul\":12711:12720   */\n      0x00\n        /* \"#utility.yul\":12744:12800   */\n      tag_223\n        /* \"#utility.yul\":12794:12799   */\n      dup3\n        /* \"#utility.yul\":12744:12800   */\n      tag_79\n      jump\t// in\n    tag_223:\n        /* \"#utility.yul\":12731:12800   */\n      swap1\n      pop\n        /* \"#utility.yul\":12631:12806   */\n      swap2\n      swap1\n      pop\n      jump\t// out\n        /* \"#utility.yul\":12812:13003   */\n    tag_81:\n        /* \"#utility.yul\":12929:12996   */\n      tag_225\n        /* \"#utility.yul\":12990:12995   */\n      dup2\n        /* \"#utility.yul\":12929:12996   */\n      tag_80\n      jump\t// in\n    tag_225:\n        /* \"#utility.yul\":12924:12927   */\n      dup3\n        /* \"#utility.yul\":12917:12997   */\n      mstore\n        /* \"#utility.yul\":12812:13003   */\n      pop\n      pop\n      jump\t// out\n        /* \"#utility.yul\":13009:13622   */\n    tag_34:\n        /* \"#utility.yul\":13218:13222   */\n      0x00\n        /* \"#utility.yul\":13256:13258   */\n      0x60\n        /* \"#utility.yul\":13245:13254   */\n      dup3\n        /* \"#utility.yul\":13241:13259   */\n      add\n        /* \"#utility.yul\":13233:13259   */\n      swap1\n      pop\n        /* \"#utility.yul\":13305:13314   */\n      dup2\n        /* \"#utility.yul\":13299:13303   */\n      dup2\n        /* \"#utility.yul\":13295:13315   */\n      sub\n        /* \"#utility.yul\":13291:13292   */\n      0x00\n        /* \"#utility.yul\":13280:13289   */\n      dup4\n        /* \"#utility.yul\":13276:13293   */\n      add\n        /* \"#utility.yul\":13269:13316   */\n      mstore\n        /* \"#utility.yul\":13333:13421   */\n      tag_227\n        /* \"#utility.yul\":13416:13420   */\n      dup2\n        /* \"#utility.yul\":13407:13413   */\n      dup7\n        /* \"#utility.yul\":13399:13405   */\n      dup9\n        /* \"#utility.yul\":13333:13421   */\n      tag_76\n      jump\t// in\n    tag_227:\n        /* \"#utility.yul\":13325:13421   */\n      swap1\n      pop\n        /* \"#utility.yul\":13431:13503   */\n      tag_228\n        /* \"#utility.yul\":13499:13501   */\n      0x20\n        /* \"#utility.yul\":13488:13497   */\n      dup4\n        /* \"#utility.yul\":13484:13502   */\n      add\n        /* \"#utility.yul\":13475:13481   */\n      dup6\n        /* \"#utility.yul\":13431:13503   */\n      tag_37\n      jump\t// in\n    tag_228:\n        /* \"#utility.yul\":13513:13615   */\n      tag_229\n        /* \"#utility.yul\":13611:13613   */\n      0x40\n        /* \"#utility.yul\":13600:13609   */\n      dup4\n        /* \"#utility.yul\":13596:13614   */\n      add\n        /* \"#utility.yul\":13587:13593   */\n      dup5\n        /* \"#utility.yul\":13513:13615   */\n      tag_81\n      jump\t// in\n    tag_229:\n        /* \"#utility.yul\":13009:13622   */\n      swap6\n      swap5\n      pop\n      pop\n      pop\n      pop\n      pop\n      jump\t// out\n\n    auxdata: 0xa264697066735822122096b95319dd60393a6419c1c4dc4615112b55517559603b69ad980d82dea62e1b64736f6c634300081a0033\n}\n",
				"bytecode": {
					"linkReferences": {},
					"object": "608060405234801561000f575f80fd5b50604051610b02380380610b02833981810160405281019061003191906100d5565b8060015f6101000a81548173ffffffffffffffffffffffffffffffffffffffff021916908373ffffffffffffffffffffffffffffffffffffffff16021790555050610100565b5f80fd5b5f73ffffffffffffffffffffffffffffffffffffffff82169050919050565b5f6100a48261007b565b9050919050565b6100b48161009a565b81146100be575f80fd5b50565b5f815190506100cf816100ab565b92915050565b5f602082840312156100ea576100e9610077565b5b5f6100f7848285016100c1565b91505092915050565b6109f58061010d5f395ff3fe608060405234801561000f575f80fd5b506004361061003f575f3560e01c8063141a8dd81461004357806321851b7a14610061578063e3771ac214610091575b5f80fd5b61004b6100ad565b604051610058919061035b565b60405180910390f35b61007b600480360381019061007691906104c1565b6100d2565b604051610088919061035b565b60405180910390f35b6100ab60048036038101906100a691906105e4565b610119565b005b60015f9054906101000a900473ffffffffffffffffffffffffffffffffffffffff1681565b5f818051602081018201805184825260208301602085012081835280955050505050505f915054906101000a900473ffffffffffffffffffffffffffffffffffffffff1681565b5f85858560405160200161012f939291906106e8565b6040516020818303038152906040528051906020012090505f816040516020016101599190610784565b6040516020818303038152906040528051906020012090505f805f86868101906101839190610809565b9250925092505f6001858585856040515f81526020016040526040516101ac9493929190610877565b6020604051602081039080840390855afa1580156101cc573d5f803e3d5ffd5b50505060206040510351905060015f9054906101000a900473ffffffffffffffffffffffffffffffffffffffff1673ffffffffffffffffffffffffffffffffffffffff168173ffffffffffffffffffffffffffffffffffffffff161461025e576040517f0c3cd79800000000000000000000000000000000000000000000000000000000815260040160405180910390fd5b885f8c8c6040516102709291906108ba565b90815260200160405180910390205f6101000a81548173ffffffffffffffffffffffffffffffffffffffff021916908373ffffffffffffffffffffffffffffffffffffffff1602179055503373ffffffffffffffffffffffffffffffffffffffff167fd477ea6b1e623bd0fb7ee4281a3d6c60aadc66677a07c44145e0d8e40fa97a158c8c8c5f6040516103079493929190610981565b60405180910390a25050505050505050505050565b5f73ffffffffffffffffffffffffffffffffffffffff82169050919050565b5f6103458261031c565b9050919050565b6103558161033b565b82525050565b5f60208201905061036e5f83018461034c565b92915050565b5f604051905090565b5f80fd5b5f80fd5b5f80fd5b5f80fd5b5f601f19601f8301169050919050565b7f4e487b71000000000000000000000000000000000000000000000000000000005f52604160045260245ffd5b6103d38261038d565b810181811067ffffffffffffffff821117156103f2576103f161039d565b5b80604052505050565b5f610404610374565b905061041082826103ca565b919050565b5f67ffffffffffffffff82111561042f5761042e61039d565b5b6104388261038d565b9050602081019050919050565b828183375f83830152505050565b5f61046561046084610415565b6103fb565b90508281526020810184848401111561048157610480610389565b5b61048c848285610445565b509392505050565b5f82601f8301126104a8576104a7610385565b5b81356104b8848260208601610453565b91505092915050565b5f602082840312156104d6576104d561037d565b5b5f82013567ffffffffffffffff8111156104f3576104f2610381565b5b6104ff84828501610494565b91505092915050565b5f80fd5b5f80fd5b5f8083601f84011261052557610524610385565b5b8235905067ffffffffffffffff81111561054257610541610508565b5b60208301915083600182028301111561055e5761055d61050c565b5b9250929050565b61056e8161033b565b8114610578575f80fd5b50565b5f8135905061058981610565565b92915050565b5f8083601f8401126105a4576105a3610385565b5b8235905067ffffffffffffffff8111156105c1576105c0610508565b5b6020830191508360018202830111156105dd576105dc61050c565b5b9250929050565b5f805f805f606086880312156105fd576105fc61037d565b5b5f86013567ffffffffffffffff81111561061a57610619610381565b5b61062688828901610510565b955095505060206106398882890161057b565b935050604086013567ffffffffffffffff81111561065a57610659610381565b5b6106668882890161058f565b92509250509295509295909350565b5f81905092915050565b5f61068a8385610675565b9350610697838584610445565b82840190509392505050565b5f8160601b9050919050565b5f6106b9826106a3565b9050919050565b5f6106ca826106af565b9050919050565b6106e26106dd8261033b565b6106c0565b82525050565b5f6106f482858761067f565b915061070082846106d1565b601482019150819050949350505050565b7f19457468657265756d205369676e6564204d6573736167653a0a3332000000005f82015250565b5f610745601c83610675565b915061075082610711565b601c82019050919050565b5f819050919050565b5f819050919050565b61077e6107798261075b565b610764565b82525050565b5f61078e82610739565b915061079a828461076d565b60208201915081905092915050565b5f60ff82169050919050565b6107be816107a9565b81146107c8575f80fd5b50565b5f813590506107d9816107b5565b92915050565b6107e88161075b565b81146107f2575f80fd5b50565b5f81359050610803816107df565b92915050565b5f805f606084860312156108205761081f61037d565b5b5f61082d868287016107cb565b935050602061083e868287016107f5565b925050604061084f868287016107f5565b9150509250925092565b6108628161075b565b82525050565b610871816107a9565b82525050565b5f60808201905061088a5f830187610859565b6108976020830186610868565b6108a46040830185610859565b6108b16060830184610859565b95945050505050565b5f6108c682848661067f565b91508190509392505050565b5f82825260208201905092915050565b5f6108ed83856108d2565b93506108fa838584610445565b6109038361038d565b840190509392505050565b7f4e487b71000000000000000000000000000000000000000000000000000000005f52602160045260245ffd5b6004811061094c5761094b61090e565b5b50565b5f81905061095c8261093b565b919050565b5f61096b8261094f565b9050919050565b61097b81610961565b82525050565b5f6060820190508181035f83015261099a8186886108e2565b90506109a9602083018561034c565b6109b66040830184610972565b9594505050505056fea264697066735822122096b95319dd60393a6419c1c4dc4615112b55517559603b69ad980d82dea62e1b64736f6c634300081a0033",
					"opcodes": "PUSH1 0x80 PUSH1 0x40 MSTORE CALLVALUE DUP1 ISZERO PUSH2 0xF JUMPI PUSH0 DUP1 REVERT JUMPDEST POP PUSH1 0x40 MLOAD PUSH2 0xB02 CODESIZE SUB DUP1 PUSH2 0xB02 DUP4 CODECOPY DUP2 DUP2 ADD PUSH1 0x40 MSTORE DUP2 ADD SWAP1 PUSH2 0x31 SWAP2 SWAP1 PUSH2 0xD5 JUMP JUMPDEST DUP1 PUSH1 0x1 PUSH0 PUSH2 0x100 EXP DUP2 SLOAD DUP2 PUSH20 0xFFFFFFFFFFFFFFFFFFFFFFFFFFFFFFFFFFFFFFFF MUL NOT AND SWAP1 DUP4 PUSH20 0xFFFFFFFFFFFFFFFFFFFFFFFFFFFFFFFFFFFFFFFF AND MUL OR SWAP1 SSTORE POP POP PUSH2 0x100 JUMP JUMPDEST PUSH0 DUP1 REVERT JUMPDEST PUSH0 PUSH20 0xFFFFFFFFFFFFFFFFFFFFFFFFFFFFFFFFFFFFFFFF DUP3 AND SWAP1 POP SWAP2 SWAP1 POP JUMP JUMPDEST PUSH0 PUSH2 0xA4 DUP3 PUSH2 0x7B JUMP JUMPDEST SWAP1 POP SWAP2 SWAP1 POP JUMP JUMPDEST PUSH2 0xB4 DUP2 PUSH2 0x9A JUMP JUMPDEST DUP2 EQ PUSH2 0xBE JUMPI PUSH0 DUP1 REVERT JUMPDEST POP JUMP JUMPDEST PUSH0 DUP2 MLOAD SWAP1 POP PUSH2 0xCF DUP2 PUSH2 0xAB JUMP JUMPDEST SWAP3 SWAP2 POP POP JUMP JUMPDEST PUSH0 PUSH1 0x20 DUP3 DUP5 SUB SLT ISZERO PUSH2 0xEA JUMPI PUSH2 0xE9 PUSH2 0x77 JUMP JUMPDEST JUMPDEST PUSH0 PUSH2 0xF7 DUP5 DUP3 DUP6 ADD PUSH2 0xC1 JUMP JUMPDEST SWAP2 POP POP SWAP3 SWAP2 POP POP JUMP JUMPDEST PUSH2 0x9F5 DUP1 PUSH2 0x10D PUSH0 CODECOPY PUSH0 RETURN INVALID PUSH1 0x80 PUSH1 0x40 MSTORE CALLVALUE DUP1 ISZERO PUSH2 0xF JUMPI PUSH0 DUP1 REVERT JUMPDEST POP PUSH1 0x4 CALLDATASIZE LT PUSH2 0x3F JUMPI PUSH0 CALLDATALOAD PUSH1 0xE0 SHR DUP1 PUSH4 0x141A8DD8 EQ PUSH2 0x43 JUMPI DUP1 PUSH4 0x21851B7A EQ PUSH2 0x61 JUMPI DUP1 PUSH4 0xE3771AC2 EQ PUSH2 0x91 JUMPI JUMPDEST PUSH0 DUP1 REVERT JUMPDEST PUSH2 0x4B PUSH2 0xAD JUMP JUMPDEST PUSH1 0x40 MLOAD PUSH2 0x58 SWAP2 SWAP1 PUSH2 0x35B JUMP JUMPDEST PUSH1 0x40 MLOAD DUP1 SWAP2 SUB SWAP1 RETURN JUMPDEST PUSH2 0x7B PUSH1 0x4 DUP1 CALLDATASIZE SUB DUP2 ADD SWAP1 PUSH2 0x76 SWAP2 SWAP1 PUSH2 0x4C1 JUMP JUMPDEST PUSH2 0xD2 JUMP JUMPDEST PUSH1 0x40 MLOAD PUSH2 0x88 SWAP2 SWAP1 PUSH2 0x35B JUMP JUMPDEST PUSH1 0x40 MLOAD DUP1 SWAP2 SUB SWAP1 RETURN JUMPDEST PUSH2 0xAB PUSH1 0x4 DUP1 CALLDATASIZE SUB DUP2 ADD SWAP1 PUSH2 0xA6 SWAP2 SWAP1 PUSH2 0x5E4 JUMP JUMPDEST PUSH2 0x119 JUMP JUMPDEST STOP JUMPDEST PUSH1 0x1 PUSH0 SWAP1 SLOAD SWAP1 PUSH2 0x100 EXP SWAP1 DIV PUSH20 0xFFFFFFFFFFFFFFFFFFFFFFFFFFFFFFFFFFFFFFFF AND DUP2 JUMP JUMPDEST PUSH0 DUP2 DUP1 MLOAD PUSH1 0x20 DUP2 ADD DUP3 ADD DUP1 MLOAD DUP5 DUP3 MSTORE PUSH1 0x20 DUP4 ADD PUSH1 0x20 DUP6 ADD KECCAK256 DUP2 DUP4 MSTORE DUP1 SWAP6 POP POP POP POP POP POP PUSH0 SWAP2 POP SLOAD SWAP1 PUSH2 0x100 EXP SWAP1 DIV PUSH20 0xFFFFFFFFFFFFFFFFFFFFFFFFFFFFFFFFFFFFFFFF AND DUP2 JUMP JUMPDEST PUSH0 DUP6 DUP6 DUP6 PUSH1 0x40 MLOAD PUSH1 0x20 ADD PUSH2 0x12F SWAP4 SWAP3 SWAP2 SWAP1 PUSH2 0x6E8 JUMP JUMPDEST PUSH1 0x40 MLOAD PUSH1 0x20 DUP2 DUP4 SUB SUB DUP2 MSTORE SWAP1 PUSH1 0x40 MSTORE DUP1 MLOAD SWAP1 PUSH1 0x20 ADD KECCAK256 SWAP1 POP PUSH0 DUP2 PUSH1 0x40 MLOAD PUSH1 0x20 ADD PUSH2 0x159 SWAP2 SWAP1 PUSH2 0x784 JUMP JUMPDEST PUSH1 0x40 MLOAD PUSH1 0x20 DUP2 DUP4 SUB SUB DUP2 MSTORE SWAP1 PUSH1 0x40 MSTORE DUP1 MLOAD SWAP1 PUSH1 0x20 ADD KECCAK256 SWAP1 POP PUSH0 DUP1 PUSH0 DUP7 DUP7 DUP2 ADD SWAP1 PUSH2 0x183 SWAP2 SWAP1 PUSH2 0x809 JUMP JUMPDEST SWAP3 POP SWAP3 POP SWAP3 POP PUSH0 PUSH1 0x1 DUP6 DUP6 DUP6 DUP6 PUSH1 0x40 MLOAD PUSH0 DUP2 MSTORE PUSH1 0x20 ADD PUSH1 0x40 MSTORE PUSH1 0x40 MLOAD PUSH2 0x1AC SWAP5 SWAP4 SWAP3 SWAP2 SWAP1 PUSH2 0x877 JUMP JUMPDEST PUSH1 0x20 PUSH1 0x40 MLOAD PUSH1 0x20 DUP2 SUB SWAP1 DUP1 DUP5 SUB SWAP1 DUP6 GAS STATICCALL ISZERO DUP1 ISZERO PUSH2 0x1CC JUMPI RETURNDATASIZE PUSH0 DUP1 RETURNDATACOPY RETURNDATASIZE PUSH0 REVERT JUMPDEST POP POP POP PUSH1 0x20 PUSH1 0x40 MLOAD SUB MLOAD SWAP1 POP PUSH1 0x1 PUSH0 SWAP1 SLOAD SWAP1 PUSH2 0x100 EXP SWAP1 DIV PUSH20 0xFFFFFFFFFFFFFFFFFFFFFFFFFFFFFFFFFFFFFFFF AND PUSH20 0xFFFFFFFFFFFFFFFFFFFFFFFFFFFFFFFFFFFFFFFF AND DUP2 PUSH20 0xFFFFFFFFFFFFFFFFFFFFFFFFFFFFFFFFFFFFFFFF AND EQ PUSH2 0x25E JUMPI PUSH1 0x40 MLOAD PUSH32 0xC3CD79800000000000000000000000000000000000000000000000000000000 DUP2 MSTORE PUSH1 0x4 ADD PUSH1 0x40 MLOAD DUP1 SWAP2 SUB SWAP1 REVERT JUMPDEST DUP9 PUSH0 DUP13 DUP13 PUSH1 0x40 MLOAD PUSH2 0x270 SWAP3 SWAP2 SWAP1 PUSH2 0x8BA JUMP JUMPDEST SWAP1 DUP2 MSTORE PUSH1 0x20 ADD PUSH1 0x40 MLOAD DUP1 SWAP2 SUB SWAP1 KECCAK256 PUSH0 PUSH2 0x100 EXP DUP2 SLOAD DUP2 PUSH20 0xFFFFFFFFFFFFFFFFFFFFFFFFFFFFFFFFFFFFFFFF MUL NOT AND SWAP1 DUP4 PUSH20 0xFFFFFFFFFFFFFFFFFFFFFFFFFFFFFFFFFFFFFFFF AND MUL OR SWAP1 SSTORE POP CALLER PUSH20 0xFFFFFFFFFFFFFFFFFFFFFFFFFFFFFFFFFFFFFFFF AND PUSH32 0xD477EA6B1E623BD0FB7EE4281A3D6C60AADC66677A07C44145E0D8E40FA97A15 DUP13 DUP13 DUP13 PUSH0 PUSH1 0x40 MLOAD PUSH2 0x307 SWAP5 SWAP4 SWAP3 SWAP2 SWAP1 PUSH2 0x981 JUMP JUMPDEST PUSH1 0x40 MLOAD DUP1 SWAP2 SUB SWAP1 LOG2 POP POP POP POP POP POP POP POP POP POP POP JUMP JUMPDEST PUSH0 PUSH20 0xFFFFFFFFFFFFFFFFFFFFFFFFFFFFFFFFFFFFFFFF DUP3 AND SWAP1 POP SWAP2 SWAP1 POP JUMP JUMPDEST PUSH0 PUSH2 0x345 DUP3 PUSH2 0x31C JUMP JUMPDEST SWAP1 POP SWAP2 SWAP1 POP JUMP JUMPDEST PUSH2 0x355 DUP2 PUSH2 0x33B JUMP JUMPDEST DUP3 MSTORE POP POP JUMP JUMPDEST PUSH0 PUSH1 0x20 DUP3 ADD SWAP1 POP PUSH2 0x36E PUSH0 DUP4 ADD DUP5 PUSH2 0x34C JUMP JUMPDEST SWAP3 SWAP2 POP POP JUMP JUMPDEST PUSH0 PUSH1 0x40 MLOAD SWAP1 POP SWAP1 JUMP JUMPDEST PUSH0 DUP1 REVERT JUMPDEST PUSH0 DUP1 REVERT JUMPDEST PUSH0 DUP1 REVERT JUMPDEST PUSH0 DUP1 REVERT JUMPDEST PUSH0 PUSH1 0x1F NOT PUSH1 0x1F DUP4 ADD AND SWAP1 POP SWAP2 SWAP1 POP JUMP JUMPDEST PUSH32 0x4E487B7100000000000000000000000000000000000000000000000000000000 PUSH0 MSTORE PUSH1 0x41 PUSH1 0x4 MSTORE PUSH1 0x24 PUSH0 REVERT JUMPDEST PUSH2 0x3D3 DUP3 PUSH2 0x38D JUMP JUMPDEST DUP2 ADD DUP2 DUP2 LT PUSH8 0xFFFFFFFFFFFFFFFF DUP3 GT OR ISZERO PUSH2 0x3F2 JUMPI PUSH2 0x3F1 PUSH2 0x39D JUMP JUMPDEST JUMPDEST DUP1 PUSH1 0x40 MSTORE POP POP POP JUMP JUMPDEST PUSH0 PUSH2 0x404 PUSH2 0x374 JUMP JUMPDEST SWAP1 POP PUSH2 0x410 DUP3 DUP3 PUSH2 0x3CA JUMP JUMPDEST SWAP2 SWAP1 POP JUMP JUMPDEST PUSH0 PUSH8 0xFFFFFFFFFFFFFFFF DUP3 GT ISZERO PUSH2 0x42F JUMPI PUSH2 0x42E PUSH2 0x39D JUMP JUMPDEST JUMPDEST PUSH2 0x438 DUP3 PUSH2 0x38D JUMP JUMPDEST SWAP1 POP PUSH1 0x20 DUP2 ADD SWAP1 POP SWAP2 SWAP1 POP JUMP JUMPDEST DUP3 DUP2 DUP4 CALLDATACOPY PUSH0 DUP4 DUP4 ADD MSTORE POP POP POP JUMP JUMPDEST PUSH0 PUSH2 0x465 PUSH2 0x460 DUP5 PUSH2 0x415 JUMP JUMPDEST PUSH2 0x3FB JUMP JUMPDEST SWAP1 POP DUP3 DUP2 MSTORE PUSH1 0x20 DUP2 ADD DUP5 DUP5 DUP5 ADD GT ISZERO PUSH2 0x481 JUMPI PUSH2 0x480 PUSH2 0x389 JUMP JUMPDEST JUMPDEST PUSH2 0x48C DUP5 DUP3 DUP6 PUSH2 0x445 JUMP JUMPDEST POP SWAP4 SWAP3 POP POP POP JUMP JUMPDEST PUSH0 DUP3 PUSH1 0x1F DUP4 ADD SLT PUSH2 0x4A8 JUMPI PUSH2 0x4A7 PUSH2 0x385 JUMP JUMPDEST JUMPDEST DUP2 CALLDATALOAD PUSH2 0x4B8 DUP5 DUP3 PUSH1 0x20 DUP7 ADD PUSH2 0x453 JUMP JUMPDEST SWAP2 POP POP SWAP3 SWAP2 POP POP JUMP JUMPDEST PUSH0 PUSH1 0x20 DUP3 DUP5 SUB SLT ISZERO PUSH2 0x4D6 JUMPI PUSH2 0x4D5 PUSH2 0x37D JUMP JUMPDEST JUMPDEST PUSH0 DUP3 ADD CALLDATALOAD PUSH8 0xFFFFFFFFFFFFFFFF DUP2 GT ISZERO PUSH2 0x4F3 JUMPI PUSH2 0x4F2 PUSH2 0x381 JUMP JUMPDEST JUMPDEST PUSH2 0x4FF DUP5 DUP3 DUP6 ADD PUSH2 0x494 JUMP JUMPDEST SWAP2 POP POP SWAP3 SWAP2 POP POP JUMP JUMPDEST PUSH0 DUP1 REVERT JUMPDEST PUSH0 DUP1 REVERT JUMPDEST PUSH0 DUP1 DUP4 PUSH1 0x1F DUP5 ADD SLT PUSH2 0x525 JUMPI PUSH2 0x524 PUSH2 0x385 JUMP JUMPDEST JUMPDEST DUP3 CALLDATALOAD SWAP1 POP PUSH8 0xFFFFFFFFFFFFFFFF DUP2 GT ISZERO PUSH2 0x542 JUMPI PUSH2 0x541 PUSH2 0x508 JUMP JUMPDEST JUMPDEST PUSH1 0x20 DUP4 ADD SWAP2 POP DUP4 PUSH1 0x1 DUP3 MUL DUP4 ADD GT ISZERO PUSH2 0x55E JUMPI PUSH2 0x55D PUSH2 0x50C JUMP JUMPDEST JUMPDEST SWAP3 POP SWAP3 SWAP1 POP JUMP JUMPDEST PUSH2 0x56E DUP2 PUSH2 0x33B JUMP JUMPDEST DUP2 EQ PUSH2 0x578 JUMPI PUSH0 DUP1 REVERT JUMPDEST POP JUMP JUMPDEST PUSH0 DUP2 CALLDATALOAD SWAP1 POP PUSH2 0x589 DUP2 PUSH2 0x565 JUMP JUMPDEST SWAP3 SWAP2 POP POP JUMP JUMPDEST PUSH0 DUP1 DUP4 PUSH1 0x1F DUP5 ADD SLT PUSH2 0x5A4 JUMPI PUSH2 0x5A3 PUSH2 0x385 JUMP JUMPDEST JUMPDEST DUP3 CALLDATALOAD SWAP1 POP PUSH8 0xFFFFFFFFFFFFFFFF DUP2 GT ISZERO PUSH2 0x5C1 JUMPI PUSH2 0x5C0 PUSH2 0x508 JUMP JUMPDEST JUMPDEST PUSH1 0x20 DUP4 ADD SWAP2 POP DUP4 PUSH1 0x1 DUP3 MUL DUP4 ADD GT ISZERO PUSH2 0x5DD JUMPI PUSH2 0x5DC PUSH2 0x50C JUMP JUMPDEST JUMPDEST SWAP3 POP SWAP3 SWAP1 POP JUMP JUMPDEST PUSH0 DUP1 PUSH0 DUP1 PUSH0 PUSH1 0x60 DUP7 DUP9 SUB SLT ISZERO PUSH2 0x5FD JUMPI PUSH2 0x5FC PUSH2 0x37D JUMP JUMPDEST JUMPDEST PUSH0 DUP7 ADD CALLDATALOAD PUSH8 0xFFFFFFFFFFFFFFFF DUP2 GT ISZERO PUSH2 0x61A JUMPI PUSH2 0x619 PUSH2 0x381 JUMP JUMPDEST JUMPDEST PUSH2 0x626 DUP9 DUP3 DUP10 ADD PUSH2 0x510 JUMP JUMPDEST SWAP6 POP SWAP6 POP POP PUSH1 0x20 PUSH2 0x639 DUP9 DUP3 DUP10 ADD PUSH2 0x57B JUMP JUMPDEST SWAP4 POP POP PUSH1 0x40 DUP7 ADD CALLDATALOAD PUSH8 0xFFFFFFFFFFFFFFFF DUP2 GT ISZERO PUSH2 0x65A JUMPI PUSH2 0x659 PUSH2 0x381 JUMP JUMPDEST JUMPDEST PUSH2 0x666 DUP9 DUP3 DUP10 ADD PUSH2 0x58F JUMP JUMPDEST SWAP3 POP SWAP3 POP POP SWAP3 SWAP6 POP SWAP3 SWAP6 SWAP1 SWAP4 POP JUMP JUMPDEST PUSH0 DUP2 SWAP1 POP SWAP3 SWAP2 POP POP JUMP JUMPDEST PUSH0 PUSH2 0x68A DUP4 DUP6 PUSH2 0x675 JUMP JUMPDEST SWAP4 POP PUSH2 0x697 DUP4 DUP6 DUP5 PUSH2 0x445 JUMP JUMPDEST DUP3 DUP5 ADD SWAP1 POP SWAP4 SWAP3 POP POP POP JUMP JUMPDEST PUSH0 DUP2 PUSH1 0x60 SHL SWAP1 POP SWAP2 SWAP1 POP JUMP JUMPDEST PUSH0 PUSH2 0x6B9 DUP3 PUSH2 0x6A3 JUMP JUMPDEST SWAP1 POP SWAP2 SWAP1 POP JUMP JUMPDEST PUSH0 PUSH2 0x6CA DUP3 PUSH2 0x6AF JUMP JUMPDEST SWAP1 POP SWAP2 SWAP1 POP JUMP JUMPDEST PUSH2 0x6E2 PUSH2 0x6DD DUP3 PUSH2 0x33B JUMP JUMPDEST PUSH2 0x6C0 JUMP JUMPDEST DUP3 MSTORE POP POP JUMP JUMPDEST PUSH0 PUSH2 0x6F4 DUP3 DUP6 DUP8 PUSH2 0x67F JUMP JUMPDEST SWAP2 POP PUSH2 0x700 DUP3 DUP5 PUSH2 0x6D1 JUMP JUMPDEST PUSH1 0x14 DUP3 ADD SWAP2 POP DUP2 SWAP1 POP SWAP5 SWAP4 POP POP POP POP JUMP JUMPDEST PUSH32 0x19457468657265756D205369676E6564204D6573736167653A0A333200000000 PUSH0 DUP3 ADD MSTORE POP JUMP JUMPDEST PUSH0 PUSH2 0x745 PUSH1 0x1C DUP4 PUSH2 0x675 JUMP JUMPDEST SWAP2 POP PUSH2 0x750 DUP3 PUSH2 0x711 JUMP JUMPDEST PUSH1 0x1C DUP3 ADD SWAP1 POP SWAP2 SWAP1 POP JUMP JUMPDEST PUSH0 DUP2 SWAP1 POP SWAP2 SWAP1 POP JUMP JUMPDEST PUSH0 DUP2 SWAP1 POP SWAP2 SWAP1 POP JUMP JUMPDEST PUSH2 0x77E PUSH2 0x779 DUP3 PUSH2 0x75B JUMP JUMPDEST PUSH2 0x764 JUMP JUMPDEST DUP3 MSTORE POP POP JUMP JUMPDEST PUSH0 PUSH2 0x78E DUP3 PUSH2 0x739 JUMP JUMPDEST SWAP2 POP PUSH2 0x79A DUP3 DUP5 PUSH2 0x76D JUMP JUMPDEST PUSH1 0x20 DUP3 ADD SWAP2 POP DUP2 SWAP1 POP SWAP3 SWAP2 POP POP JUMP JUMPDEST PUSH0 PUSH1 0xFF DUP3 AND SWAP1 POP SWAP2 SWAP1 POP JUMP JUMPDEST PUSH2 0x7BE DUP2 PUSH2 0x7A9 JUMP JUMPDEST DUP2 EQ PUSH2 0x7C8 JUMPI PUSH0 DUP1 REVERT JUMPDEST POP JUMP JUMPDEST PUSH0 DUP2 CALLDATALOAD SWAP1 POP PUSH2 0x7D9 DUP2 PUSH2 0x7B5 JUMP JUMPDEST SWAP3 SWAP2 POP POP JUMP JUMPDEST PUSH2 0x7E8 DUP2 PUSH2 0x75B JUMP JUMPDEST DUP2 EQ PUSH2 0x7F2 JUMPI PUSH0 DUP1 REVERT JUMPDEST POP JUMP JUMPDEST PUSH0 DUP2 CALLDATALOAD SWAP1 POP PUSH2 0x803 DUP2 PUSH2 0x7DF JUMP JUMPDEST SWAP3 SWAP2 POP POP JUMP JUMPDEST PUSH0 DUP1 PUSH0 PUSH1 0x60 DUP5 DUP7 SUB SLT ISZERO PUSH2 0x820 JUMPI PUSH2 0x81F PUSH2 0x37D JUMP JUMPDEST JUMPDEST PUSH0 PUSH2 0x82D DUP7 DUP3 DUP8 ADD PUSH2 0x7CB JUMP JUMPDEST SWAP4 POP POP PUSH1 0x20 PUSH2 0x83E DUP7 DUP3 DUP8 ADD PUSH2 0x7F5 JUMP JUMPDEST SWAP3 POP POP PUSH1 0x40 PUSH2 0x84F DUP7 DUP3 DUP8 ADD PUSH2 0x7F5 JUMP JUMPDEST SWAP2 POP POP SWAP3 POP SWAP3 POP SWAP3 JUMP JUMPDEST PUSH2 0x862 DUP2 PUSH2 0x75B JUMP JUMPDEST DUP3 MSTORE POP POP JUMP JUMPDEST PUSH2 0x871 DUP2 PUSH2 0x7A9 JUMP JUMPDEST DUP3 MSTORE POP POP JUMP JUMPDEST PUSH0 PUSH1 0x80 DUP3 ADD SWAP1 POP PUSH2 0x88A PUSH0 DUP4 ADD DUP8 PUSH2 0x859 JUMP JUMPDEST PUSH2 0x897 PUSH1 0x20 DUP4 ADD DUP7 PUSH2 0x868 JUMP JUMPDEST PUSH2 0x8A4 PUSH1 0x40 DUP4 ADD DUP6 PUSH2 0x859 JUMP JUMPDEST PUSH2 0x8B1 PUSH1 0x60 DUP4 ADD DUP5 PUSH2 0x859 JUMP JUMPDEST SWAP6 SWAP5 POP POP POP POP POP JUMP JUMPDEST PUSH0 PUSH2 0x8C6 DUP3 DUP5 DUP7 PUSH2 0x67F JUMP JUMPDEST SWAP2 POP DUP2 SWAP1 POP SWAP4 SWAP3 POP POP POP JUMP JUMPDEST PUSH0 DUP3 DUP3 MSTORE PUSH1 0x20 DUP3 ADD SWAP1 POP SWAP3 SWAP2 POP POP JUMP JUMPDEST PUSH0 PUSH2 0x8ED DUP4 DUP6 PUSH2 0x8D2 JUMP JUMPDEST SWAP4 POP PUSH2 0x8FA DUP4 DUP6 DUP5 PUSH2 0x445 JUMP JUMPDEST PUSH2 0x903 DUP4 PUSH2 0x38D JUMP JUMPDEST DUP5 ADD SWAP1 POP SWAP4 SWAP3 POP POP POP JUMP JUMPDEST PUSH32 0x4E487B7100000000000000000000000000000000000000000000000000000000 PUSH0 MSTORE PUSH1 0x21 PUSH1 0x4 MSTORE PUSH1 0x24 PUSH0 REVERT JUMPDEST PUSH1 0x4 DUP2 LT PUSH2 0x94C JUMPI PUSH2 0x94B PUSH2 0x90E JUMP JUMPDEST JUMPDEST POP JUMP JUMPDEST PUSH0 DUP2 SWAP1 POP PUSH2 0x95C DUP3 PUSH2 0x93B JUMP JUMPDEST SWAP2 SWAP1 POP JUMP JUMPDEST PUSH0 PUSH2 0x96B DUP3 PUSH2 0x94F JUMP JUMPDEST SWAP1 POP SWAP2 SWAP1 POP JUMP JUMPDEST PUSH2 0x97B DUP2 PUSH2 0x961 JUMP JUMPDEST DUP3 MSTORE POP POP JUMP JUMPDEST PUSH0 PUSH1 0x60 DUP3 ADD SWAP1 POP DUP2 DUP2 SUB PUSH0 DUP4 ADD MSTORE PUSH2 0x99A DUP2 DUP7 DUP9 PUSH2 0x8E2 JUMP JUMPDEST SWAP1 POP PUSH2 0x9A9 PUSH1 0x20 DUP4 ADD DUP6 PUSH2 0x34C JUMP JUMPDEST PUSH2 0x9B6 PUSH1 0x40 DUP4 ADD DUP5 PUSH2 0x972 JUMP JUMPDEST SWAP6 SWAP5 POP POP POP POP POP JUMP INVALID LOG2 PUSH5 0x6970667358 0x22 SLT KECCAK256 SWAP7 0xB9 MSTORE8 NOT 0xDD PUSH1 0x39 GASPRICE PUSH5 0x19C1C4DC46 ISZERO GT 0x2B SSTORE MLOAD PUSH22 0x59603B69AD980D82DEA62E1B64736F6C634300081A00 CALLER "
				},
				"gasEstimates": {
					"creation": {
						"codeDepositCost": "509800",
						"executionCost": "infinite",
						"totalCost": "infinite"
					},
					"external": {
						"approver()": "2486",
						"libraries(string)": "infinite",
						"loadLibrary(string,address,bytes)": "infinite"
					}
				},
				"methodIdentifiers": {
					"approver()": "141a8dd8",
					"libraries(string)": "21851b7a",
					"loadLibrary(string,address,bytes)": "e3771ac2"
				}
			},
			"storageLayout": {
				"storage": [
					{
						"astId": 97,
						"contract": "D/Dynamic Link Library/Dynamic Link Library.sol:DLLSafeSigned",
						"label": "libraries",
						"offset": 0,
						"slot": "0",
						"type": "t_mapping(t_string_memory_ptr,t_address)"
					},
					{
						"astId": 99,
						"contract": "D/Dynamic Link Library/Dynamic Link Library.sol:DLLSafeSigned",
						"label": "approver",
						"offset": 0,
						"slot": "1",
						"type": "t_address"
					}
				],
				"types": {
					"t_address": {
						"encoding": "inplace",
						"label": "address",
						"numberOfBytes": "20"
					},
					"t_mapping(t_string_memory_ptr,t_address)": {
						"encoding": "mapping",
						"key": "t_string_memory_ptr",
						"label": "mapping(string => address)",
						"numberOfBytes": "32",
						"value": "t_address"
					},
					"t_string_memory_ptr": {
						"encoding": "bytes",
						"label": "string",
						"numberOfBytes": "32"
					}
				}
			},
			"userdoc": {
				"kind": "user",
				"methods": {},
				"version": 1
			}
		}
	}
}