{
	"D/Dynamic Link Library/Dynamic Link Library.sol": {
		"DLLSafeNamespace": {
			"abi": [
				{
					"inputs": [],
					"stateMutability": "nonpayable",
					"type": "constructor"
				},
				{
					"inputs": [],
					"name": "DLL__NotAllowed",
					"type": "error"
				},
				{
					"anonymous": false,
					"inputs": [
						{
							"indexed": true,
							"internalType": "address",
							"name": "who",
							"type": "address"
						},
						{
							"indexed": false,
							"internalType": "string",
							"name": "path",
							"type": "string"
						},
						{
							"indexed": false,
							"internalType": "address",
							"name": "lib",
							"type": "address"
						},
						{
							"indexed": false,
							"internalType": "enum DynamicLinkLibraryDefenseType",
							"name": "defense",
							"type": "uint8"
						}
					],
					"name": "LibraryLoaded",
					"type": "event"
				},
				{
					"inputs": [
						{
							"internalType": "string",
							"name": "",
							"type": "string"
						}
					],
					"name": "allowedPath",
					"outputs": [
						{
							"internalType": "bool",
							"name": "",
							"type": "bool"
						}
					],
					"stateMutability": "view",
					"type": "function"
				},
				{
					"inputs": [
						{
							"internalType": "string",
							"name": "",
							"type": "string"
						}
					],
					"name": "libraries",
					"outputs": [
						{
							"internalType": "address",
							"name": "",
							"type": "address"
						}
					],
					"stateMutability": "view",
					"type": "function"
				},
				{
					"inputs": [
						{
							"internalType": "string",
							"name": "path",
							"type": "string"
						},
						{
							"internalType": "address",
							"name": "lib",
							"type": "address"
						}
					],
					"name": "loadLibrary",
					"outputs": [],
					"stateMutability": "nonpayable",
					"type": "function"
				},
				{
					"inputs": [],
					"name": "owner",
					"outputs": [
						{
							"internalType": "address",
							"name": "",
							"type": "address"
						}
					],
					"stateMutability": "view",
					"type": "function"
				},
				{
					"inputs": [
						{
							"internalType": "string",
							"name": "path",
							"type": "string"
						},
						{
							"internalType": "bool",
							"name": "ok",
							"type": "bool"
						}
					],
					"name": "setAllowedPath",
					"outputs": [],
					"stateMutability": "nonpayable",
					"type": "function"
				}
			],
			"devdoc": {
				"kind": "dev",
				"methods": {},
				"version": 1
			},
			"evm": {
				"assembly": "    /* \"D/Dynamic Link Library/Dynamic Link Library.sol\":3694:4833  contract DLLSafeNamespace {... */\n  mstore(0x40, 0x80)\n    /* \"D/Dynamic Link Library/Dynamic Link Library.sol\":4199:4248  constructor() {... */\n  callvalue\n  dup1\n  iszero\n  tag_1\n  jumpi\n  0x00\n  dup1\n  revert\ntag_1:\n  pop\n    /* \"D/Dynamic Link Library/Dynamic Link Library.sol\":4231:4241  msg.sender */\n  caller\n    /* \"D/Dynamic Link Library/Dynamic Link Library.sol\":4223:4228  owner */\n  0x03\n  0x00\n    /* \"D/Dynamic Link Library/Dynamic Link Library.sol\":4223:4241  owner = msg.sender */\n  0x0100\n  exp\n  dup2\n  sload\n  dup2\n  0xffffffffffffffffffffffffffffffffffffffff\n  mul\n  not\n  and\n  swap1\n  dup4\n  0xffffffffffffffffffffffffffffffffffffffff\n  and\n  mul\n  or\n  swap1\n  sstore\n  pop\n    /* \"D/Dynamic Link Library/Dynamic Link Library.sol\":3694:4833  contract DLLSafeNamespace {... */\n  dataSize(sub_0)\n  dup1\n  dataOffset(sub_0)\n  0x00\n  codecopy\n  0x00\n  return\nstop\n\nsub_0: assembly {\n        /* \"D/Dynamic Link Library/Dynamic Link Library.sol\":3694:4833  contract DLLSafeNamespace {... */\n      mstore(0x40, 0x80)\n      callvalue\n      dup1\n      iszero\n      tag_1\n      jumpi\n      0x00\n      dup1\n      revert\n    tag_1:\n      pop\n      jumpi(tag_2, lt(calldatasize, 0x04))\n      shr(0xe0, calldataload(0x00))\n      dup1\n      0x21851b7a\n      eq\n      tag_3\n      jumpi\n      dup1\n      0x5aeada2b\n      eq\n      tag_4\n      jumpi\n      dup1\n      0x8da5cb5b\n      eq\n      tag_5\n      jumpi\n      dup1\n      0x90cdef99\n      eq\n      tag_6\n      jumpi\n      dup1\n      0xb648b2f7\n      eq\n      tag_7\n      jumpi\n    tag_2:\n      0x00\n      dup1\n      revert\n        /* \"D/Dynamic Link Library/Dynamic Link Library.sol\":3726:3769  mapping(string => address) public libraries */\n    tag_3:\n      tag_8\n      0x04\n      dup1\n      calldatasize\n      sub\n      dup2\n      add\n      swap1\n      tag_9\n      swap2\n      swap1\n      tag_10\n      jump\t// in\n    tag_9:\n      tag_11\n      jump\t// in\n    tag_8:\n      mload(0x40)\n      tag_12\n      swap2\n      swap1\n      tag_13\n      jump\t// in\n    tag_12:\n      mload(0x40)\n      dup1\n      swap2\n      sub\n      swap1\n      return\n        /* \"D/Dynamic Link Library/Dynamic Link Library.sol\":4373:4831  function loadLibrary(string calldata path, address lib) external {... */\n    tag_4:\n      tag_14\n      0x04\n      dup1\n      calldatasize\n      sub\n      dup2\n      add\n      swap1\n      tag_15\n      swap2\n      swap1\n      tag_16\n      jump\t// in\n    tag_15:\n      tag_17\n      jump\t// in\n    tag_14:\n      stop\n        /* \"D/Dynamic Link Library/Dynamic Link Library.sol\":3898:3918  address public owner */\n    tag_5:\n      tag_18\n      tag_19\n      jump\t// in\n    tag_18:\n      mload(0x40)\n      tag_20\n      swap2\n      swap1\n      tag_13\n      jump\t// in\n    tag_20:\n      mload(0x40)\n      dup1\n      swap2\n      sub\n      swap1\n      return\n        /* \"D/Dynamic Link Library/Dynamic Link Library.sol\":3775:3820  mapping(string => bool)    public allowedPath */\n    tag_6:\n      tag_21\n      0x04\n      dup1\n      calldatasize\n      sub\n      dup2\n      add\n      swap1\n      tag_22\n      swap2\n      swap1\n      tag_10\n      jump\t// in\n    tag_22:\n      tag_23\n      jump\t// in\n    tag_21:\n      mload(0x40)\n      tag_24\n      swap2\n      swap1\n      tag_25\n      jump\t// in\n    tag_24:\n      mload(0x40)\n      dup1\n      swap2\n      sub\n      swap1\n      return\n        /* \"D/Dynamic Link Library/Dynamic Link Library.sol\":4254:4367  function setAllowedPath(string calldata path, bool ok) external onlyOwner {... */\n    tag_7:\n      tag_26\n      0x04\n      dup1\n      calldatasize\n      sub\n      dup2\n      add\n      swap1\n      tag_27\n      swap2\n      swap1\n      tag_28\n      jump\t// in\n    tag_27:\n      tag_29\n      jump\t// in\n    tag_26:\n      stop\n        /* \"D/Dynamic Link Library/Dynamic Link Library.sol\":3726:3769  mapping(string => address) public libraries */\n    tag_11:\n      0x00\n      dup2\n      dup1\n      mload\n      0x20\n      dup2\n      add\n      dup3\n      add\n      dup1\n      mload\n      dup5\n      dup3\n      mstore\n      0x20\n      dup4\n      add\n      0x20\n      dup6\n      add\n      keccak256\n      dup2\n      dup4\n      mstore\n      dup1\n      swap6\n      pop\n      pop\n      pop\n      pop\n      pop\n      pop\n      0x00\n      swap2\n      pop\n      sload\n      swap1\n      0x0100\n      exp\n      swap1\n      div\n      0xffffffffffffffffffffffffffffffffffffffff\n      and\n      dup2\n      jump\t// out\n        /* \"D/Dynamic Link Library/Dynamic Link Library.sol\":4373:4831  function loadLibrary(string calldata path, address lib) external {... */\n    tag_17:\n        /* \"D/Dynamic Link Library/Dynamic Link Library.sol\":4453:4464  allowedPath */\n      0x01\n        /* \"D/Dynamic Link Library/Dynamic Link Library.sol\":4465:4469  path */\n      dup4\n      dup4\n        /* \"D/Dynamic Link Library/Dynamic Link Library.sol\":4453:4470  allowedPath[path] */\n      mload(0x40)\n      tag_31\n      swap3\n      swap2\n      swap1\n      tag_32\n      jump\t// in\n    tag_31:\n      swap1\n      dup2\n      mstore\n      0x20\n      add\n      mload(0x40)\n      dup1\n      swap2\n      sub\n      swap1\n      keccak256\n      0x00\n      swap1\n      sload\n      swap1\n      0x0100\n      exp\n      swap1\n      div\n      0xff\n      and\n        /* \"D/Dynamic Link Library/Dynamic Link Library.sol\":4448:4496  if (!allowedPath[path]) revert DLL__NotAllowed() */\n      tag_33\n      jumpi\n        /* \"D/Dynamic Link Library/Dynamic Link Library.sol\":4479:4496  DLL__NotAllowed() */\n      mload(0x40)\n      0xa3b4904400000000000000000000000000000000000000000000000000000000\n      dup2\n      mstore\n      0x04\n      add\n      mload(0x40)\n      dup1\n      swap2\n      sub\n      swap1\n      revert\n        /* \"D/Dynamic Link Library/Dynamic Link Library.sol\":4448:4496  if (!allowedPath[path]) revert DLL__NotAllowed() */\n    tag_33:\n        /* \"D/Dynamic Link Library/Dynamic Link Library.sol\":4524:4527  lib */\n      dup1\n        /* \"D/Dynamic Link Library/Dynamic Link Library.sol\":4506:4515  libraries */\n      0x00\n        /* \"D/Dynamic Link Library/Dynamic Link Library.sol\":4516:4520  path */\n      dup5\n      dup5\n        /* \"D/Dynamic Link Library/Dynamic Link Library.sol\":4506:4521  libraries[path] */\n      mload(0x40)\n      tag_34\n      swap3\n      swap2\n      swap1\n      tag_32\n      jump\t// in\n    tag_34:\n      swap1\n      dup2\n      mstore\n      0x20\n      add\n      mload(0x40)\n      dup1\n      swap2\n      sub\n      swap1\n      keccak256\n      0x00\n        /* \"D/Dynamic Link Library/Dynamic Link Library.sol\":4506:4527  libraries[path] = lib */\n      0x0100\n      exp\n      dup2\n      sload\n      dup2\n      0xffffffffffffffffffffffffffffffffffffffff\n      mul\n      not\n      and\n      swap1\n      dup4\n      0xffffffffffffffffffffffffffffffffffffffff\n      and\n      mul\n      or\n      swap1\n      sstore\n      pop\n        /* \"D/Dynamic Link Library/Dynamic Link Library.sol\":4589:4599  bytes32 ns */\n      0x00\n        /* \"D/Dynamic Link Library/Dynamic Link Library.sol\":4629:4633  path */\n      dup4\n      dup4\n        /* \"D/Dynamic Link Library/Dynamic Link Library.sol\":4612:4634  abi.encodePacked(path) */\n      add(0x20, mload(0x40))\n      tag_35\n      swap3\n      swap2\n      swap1\n      tag_32\n      jump\t// in\n    tag_35:\n      mload(0x40)\n      0x20\n      dup2\n      dup4\n      sub\n      sub\n      dup2\n      mstore\n      swap1\n      0x40\n      mstore\n        /* \"D/Dynamic Link Library/Dynamic Link Library.sol\":4602:4635  keccak256(abi.encodePacked(path)) */\n      dup1\n      mload\n      swap1\n      0x20\n      add\n      keccak256\n        /* \"D/Dynamic Link Library/Dynamic Link Library.sol\":4589:4635  bytes32 ns = keccak256(abi.encodePacked(path)) */\n      swap1\n      pop\n        /* \"D/Dynamic Link Library/Dynamic Link Library.sol\":4713:4728  block.timestamp */\n      timestamp\n        /* \"D/Dynamic Link Library/Dynamic Link Library.sol\":4696:4729  abi.encodePacked(block.timestamp) */\n      add(0x20, mload(0x40))\n      tag_36\n      swap2\n      swap1\n      tag_37\n      jump\t// in\n    tag_36:\n      mload(0x40)\n      0x20\n      dup2\n      dup4\n      sub\n      sub\n      dup2\n      mstore\n      swap1\n      0x40\n      mstore\n        /* \"D/Dynamic Link Library/Dynamic Link Library.sol\":4645:4657  libNamespace */\n      0x02\n        /* \"D/Dynamic Link Library/Dynamic Link Library.sol\":4645:4661  libNamespace[ns] */\n      0x00\n        /* \"D/Dynamic Link Library/Dynamic Link Library.sol\":4658:4660  ns */\n      dup4\n        /* \"D/Dynamic Link Library/Dynamic Link Library.sol\":4645:4661  libNamespace[ns] */\n      dup2\n      mstore\n      0x20\n      add\n      swap1\n      dup2\n      mstore\n      0x20\n      add\n      0x00\n      keccak256\n        /* \"D/Dynamic Link Library/Dynamic Link Library.sol\":4645:4693  libNamespace[ns][bytes32(uint256(uint160(lib)))] */\n      0x00\n        /* \"D/Dynamic Link Library/Dynamic Link Library.sol\":4686:4689  lib */\n      dup5\n        /* \"D/Dynamic Link Library/Dynamic Link Library.sol\":4670:4691  uint256(uint160(lib)) */\n      0xffffffffffffffffffffffffffffffffffffffff\n      and\n        /* \"D/Dynamic Link Library/Dynamic Link Library.sol\":4662:4692  bytes32(uint256(uint160(lib))) */\n      0x00\n      shl\n        /* \"D/Dynamic Link Library/Dynamic Link Library.sol\":4645:4693  libNamespace[ns][bytes32(uint256(uint160(lib)))] */\n      dup2\n      mstore\n      0x20\n      add\n      swap1\n      dup2\n      mstore\n      0x20\n      add\n      0x00\n      keccak256\n        /* \"D/Dynamic Link Library/Dynamic Link Library.sol\":4645:4729  libNamespace[ns][bytes32(uint256(uint160(lib)))] = abi.encodePacked(block.timestamp) */\n      swap1\n      dup2\n      tag_38\n      swap2\n      swap1\n      tag_39\n      jump\t// in\n    tag_38:\n      pop\n        /* \"D/Dynamic Link Library/Dynamic Link Library.sol\":4758:4768  msg.sender */\n      caller\n        /* \"D/Dynamic Link Library/Dynamic Link Library.sol\":4744:4824  LibraryLoaded(msg.sender, path, lib, DynamicLinkLibraryDefenseType.SafeLoadPath) */\n      0xffffffffffffffffffffffffffffffffffffffff\n      and\n      0xd477ea6b1e623bd0fb7ee4281a3d6c60aadc66677a07c44145e0d8e40fa97a15\n        /* \"D/Dynamic Link Library/Dynamic Link Library.sol\":4770:4774  path */\n      dup6\n      dup6\n        /* \"D/Dynamic Link Library/Dynamic Link Library.sol\":4776:4779  lib */\n      dup6\n        /* \"D/Dynamic Link Library/Dynamic Link Library.sol\":4781:4823  DynamicLinkLibraryDefenseType.SafeLoadPath */\n      0x01\n        /* \"D/Dynamic Link Library/Dynamic Link Library.sol\":4744:4824  LibraryLoaded(msg.sender, path, lib, DynamicLinkLibraryDefenseType.SafeLoadPath) */\n      mload(0x40)\n      tag_40\n      swap5\n      swap4\n      swap3\n      swap2\n      swap1\n      tag_41\n      jump\t// in\n    tag_40:\n      mload(0x40)\n      dup1\n      swap2\n      sub\n      swap1\n      log2\n        /* \"D/Dynamic Link Library/Dynamic Link Library.sol\":4438:4831  {... */\n      pop\n        /* \"D/Dynamic Link Library/Dynamic Link Library.sol\":4373:4831  function loadLibrary(string calldata path, address lib) external {... */\n      pop\n      pop\n      pop\n      jump\t// out\n        /* \"D/Dynamic Link Library/Dynamic Link Library.sol\":3898:3918  address public owner */\n    tag_19:\n      0x03\n      0x00\n      swap1\n      sload\n      swap1\n      0x0100\n      exp\n      swap1\n      div\n      0xffffffffffffffffffffffffffffffffffffffff\n      and\n      dup2\n      jump\t// out\n        /* \"D/Dynamic Link Library/Dynamic Link Library.sol\":3775:3820  mapping(string => bool)    public allowedPath */\n    tag_23:\n      0x01\n      dup2\n      dup1\n      mload\n      0x20\n      dup2\n      add\n      dup3\n      add\n      dup1\n      mload\n      dup5\n      dup3\n      mstore\n      0x20\n      dup4\n      add\n      0x20\n      dup6\n      add\n      keccak256\n      dup2\n      dup4\n      mstore\n      dup1\n      swap6\n      pop\n      pop\n      pop\n      pop\n      pop\n      pop\n      0x00\n      swap2\n      pop\n      sload\n      swap1\n      0x0100\n      exp\n      swap1\n      div\n      0xff\n      and\n      dup2\n      jump\t// out\n        /* \"D/Dynamic Link Library/Dynamic Link Library.sol\":4254:4367  function setAllowedPath(string calldata path, bool ok) external onlyOwner {... */\n    tag_29:\n        /* \"D/Dynamic Link Library/Dynamic Link Library.sol\":4144:4149  owner */\n      0x03\n      0x00\n      swap1\n      sload\n      swap1\n      0x0100\n      exp\n      swap1\n      div\n      0xffffffffffffffffffffffffffffffffffffffff\n      and\n        /* \"D/Dynamic Link Library/Dynamic Link Library.sol\":4130:4149  msg.sender != owner */\n      0xffffffffffffffffffffffffffffffffffffffff\n      and\n        /* \"D/Dynamic Link Library/Dynamic Link Library.sol\":4130:4140  msg.sender */\n      caller\n        /* \"D/Dynamic Link Library/Dynamic Link Library.sol\":4130:4149  msg.sender != owner */\n      0xffffffffffffffffffffffffffffffffffffffff\n      and\n      eq\n        /* \"D/Dynamic Link Library/Dynamic Link Library.sol\":4126:4175  if (msg.sender != owner) revert DLL__NotAllowed() */\n      tag_43\n      jumpi\n        /* \"D/Dynamic Link Library/Dynamic Link Library.sol\":4158:4175  DLL__NotAllowed() */\n      mload(0x40)\n      0xa3b4904400000000000000000000000000000000000000000000000000000000\n      dup2\n      mstore\n      0x04\n      add\n      mload(0x40)\n      dup1\n      swap2\n      sub\n      swap1\n      revert\n        /* \"D/Dynamic Link Library/Dynamic Link Library.sol\":4126:4175  if (msg.sender != owner) revert DLL__NotAllowed() */\n    tag_43:\n        /* \"D/Dynamic Link Library/Dynamic Link Library.sol\":4358:4360  ok */\n      dup1\n        /* \"D/Dynamic Link Library/Dynamic Link Library.sol\":4338:4349  allowedPath */\n      0x01\n        /* \"D/Dynamic Link Library/Dynamic Link Library.sol\":4350:4354  path */\n      dup5\n      dup5\n        /* \"D/Dynamic Link Library/Dynamic Link Library.sol\":4338:4355  allowedPath[path] */\n      mload(0x40)\n      tag_45\n      swap3\n      swap2\n      swap1\n      tag_32\n      jump\t// in\n    tag_45:\n      swap1\n      dup2\n      mstore\n      0x20\n      add\n      mload(0x40)\n      dup1\n      swap2\n      sub\n      swap1\n      keccak256\n      0x00\n        /* \"D/Dynamic Link Library/Dynamic Link Library.sol\":4338:4360  allowedPath[path] = ok */\n      0x0100\n      exp\n      dup2\n      sload\n      dup2\n      0xff\n      mul\n      not\n      and\n      swap1\n      dup4\n      iszero\n      iszero\n      mul\n      or\n      swap1\n      sstore\n      pop\n        /* \"D/Dynamic Link Library/Dynamic Link Library.sol\":4254:4367  function setAllowedPath(string calldata path, bool ok) external onlyOwner {... */\n      pop\n      pop\n      pop\n      jump\t// out\n        /* \"#utility.yul\":7:82   */\n    tag_46:\n        /* \"#utility.yul\":40:46   */\n      0x00\n        /* \"#utility.yul\":73:75   */\n      0x40\n        /* \"#utility.yul\":67:76   */\n      mload\n        /* \"#utility.yul\":57:76   */\n      swap1\n      pop\n        /* \"#utility.yul\":7:82   */\n      swap1\n      jump\t// out\n        /* \"#utility.yul\":88:205   */\n    tag_47:\n        /* \"#utility.yul\":197:198   */\n      0x00\n        /* \"#utility.yul\":194:195   */\n      dup1\n        /* \"#utility.yul\":187:199   */\n      revert\n        /* \"#utility.yul\":211:328   */\n    tag_48:\n        /* \"#utility.yul\":320:321   */\n      0x00\n        /* \"#utility.yul\":317:318   */\n      dup1\n        /* \"#utility.yul\":310:322   */\n      revert\n        /* \"#utility.yul\":334:451   */\n    tag_49:\n        /* \"#utility.yul\":443:444   */\n      0x00\n        /* \"#utility.yul\":440:441   */\n      dup1\n        /* \"#utility.yul\":433:445   */\n      revert\n        /* \"#utility.yul\":457:574   */\n    tag_50:\n        /* \"#utility.yul\":566:567   */\n      0x00\n        /* \"#utility.yul\":563:564   */\n      dup1\n        /* \"#utility.yul\":556:568   */\n      revert\n        /* \"#utility.yul\":580:682   */\n    tag_51:\n        /* \"#utility.yul\":621:627   */\n      0x00\n        /* \"#utility.yul\":672:674   */\n      0x1f\n        /* \"#utility.yul\":668:675   */\n      not\n        /* \"#utility.yul\":663:665   */\n      0x1f\n        /* \"#utility.yul\":656:661   */\n      dup4\n        /* \"#utility.yul\":652:666   */\n      add\n        /* \"#utility.yul\":648:676   */\n      and\n        /* \"#utility.yul\":638:676   */\n      swap1\n      pop\n        /* \"#utility.yul\":580:682   */\n      swap2\n      swap1\n      pop\n      jump\t// out\n        /* \"#utility.yul\":688:868   */\n    tag_52:\n        /* \"#utility.yul\":736:813   */\n      0x4e487b7100000000000000000000000000000000000000000000000000000000\n        /* \"#utility.yul\":733:734   */\n      0x00\n        /* \"#utility.yul\":726:814   */\n      mstore\n        /* \"#utility.yul\":833:837   */\n      0x41\n        /* \"#utility.yul\":830:831   */\n      0x04\n        /* \"#utility.yul\":823:838   */\n      mstore\n        /* \"#utility.yul\":857:861   */\n      0x24\n        /* \"#utility.yul\":854:855   */\n      0x00\n        /* \"#utility.yul\":847:862   */\n      revert\n        /* \"#utility.yul\":874:1155   */\n    tag_53:\n        /* \"#utility.yul\":957:984   */\n      tag_110\n        /* \"#utility.yul\":979:983   */\n      dup3\n        /* \"#utility.yul\":957:984   */\n      tag_51\n      jump\t// in\n    tag_110:\n        /* \"#utility.yul\":949:955   */\n      dup2\n        /* \"#utility.yul\":945:985   */\n      add\n        /* \"#utility.yul\":1087:1093   */\n      dup2\n        /* \"#utility.yul\":1075:1085   */\n      dup2\n        /* \"#utility.yul\":1072:1094   */\n      lt\n        /* \"#utility.yul\":1051:1069   */\n      0xffffffffffffffff\n        /* \"#utility.yul\":1039:1049   */\n      dup3\n        /* \"#utility.yul\":1036:1070   */\n      gt\n        /* \"#utility.yul\":1033:1095   */\n      or\n        /* \"#utility.yul\":1030:1118   */\n      iszero\n      tag_111\n      jumpi\n        /* \"#utility.yul\":1098:1116   */\n      tag_112\n      tag_52\n      jump\t// in\n    tag_112:\n        /* \"#utility.yul\":1030:1118   */\n    tag_111:\n        /* \"#utility.yul\":1138:1148   */\n      dup1\n        /* \"#utility.yul\":1134:1136   */\n      0x40\n        /* \"#utility.yul\":1127:1149   */\n      mstore\n        /* \"#utility.yul\":917:1155   */\n      pop\n        /* \"#utility.yul\":874:1155   */\n      pop\n      pop\n      jump\t// out\n        /* \"#utility.yul\":1161:1290   */\n    tag_54:\n        /* \"#utility.yul\":1195:1201   */\n      0x00\n        /* \"#utility.yul\":1222:1242   */\n      tag_114\n      tag_46\n      jump\t// in\n    tag_114:\n        /* \"#utility.yul\":1212:1242   */\n      swap1\n      pop\n        /* \"#utility.yul\":1251:1284   */\n      tag_115\n        /* \"#utility.yul\":1279:1283   */\n      dup3\n        /* \"#utility.yul\":1271:1277   */\n      dup3\n        /* \"#utility.yul\":1251:1284   */\n      tag_53\n      jump\t// in\n    tag_115:\n        /* \"#utility.yul\":1161:1290   */\n      swap2\n      swap1\n      pop\n      jump\t// out\n        /* \"#utility.yul\":1296:1604   */\n    tag_55:\n        /* \"#utility.yul\":1358:1362   */\n      0x00\n        /* \"#utility.yul\":1448:1466   */\n      0xffffffffffffffff\n        /* \"#utility.yul\":1440:1446   */\n      dup3\n        /* \"#utility.yul\":1437:1467   */\n      gt\n        /* \"#utility.yul\":1434:1490   */\n      iszero\n      tag_117\n      jumpi\n        /* \"#utility.yul\":1470:1488   */\n      tag_118\n      tag_52\n      jump\t// in\n    tag_118:\n        /* \"#utility.yul\":1434:1490   */\n    tag_117:\n        /* \"#utility.yul\":1508:1537   */\n      tag_119\n        /* \"#utility.yul\":1530:1536   */\n      dup3\n        /* \"#utility.yul\":1508:1537   */\n      tag_51\n      jump\t// in\n    tag_119:\n        /* \"#utility.yul\":1500:1537   */\n      swap1\n      pop\n        /* \"#utility.yul\":1592:1596   */\n      0x20\n        /* \"#utility.yul\":1586:1590   */\n      dup2\n        /* \"#utility.yul\":1582:1597   */\n      add\n        /* \"#utility.yul\":1574:1597   */\n      swap1\n      pop\n        /* \"#utility.yul\":1296:1604   */\n      swap2\n      swap1\n      pop\n      jump\t// out\n        /* \"#utility.yul\":1610:1758   */\n    tag_56:\n        /* \"#utility.yul\":1708:1714   */\n      dup3\n        /* \"#utility.yul\":1703:1706   */\n      dup2\n        /* \"#utility.yul\":1698:1701   */\n      dup4\n        /* \"#utility.yul\":1685:1715   */\n      calldatacopy\n        /* \"#utility.yul\":1749:1750   */\n      0x00\n        /* \"#utility.yul\":1740:1746   */\n      dup4\n        /* \"#utility.yul\":1735:1738   */\n      dup4\n        /* \"#utility.yul\":1731:1747   */\n      add\n        /* \"#utility.yul\":1724:1751   */\n      mstore\n        /* \"#utility.yul\":1610:1758   */\n      pop\n      pop\n      pop\n      jump\t// out\n        /* \"#utility.yul\":1764:2189   */\n    tag_57:\n        /* \"#utility.yul\":1842:1847   */\n      0x00\n        /* \"#utility.yul\":1867:1933   */\n      tag_122\n        /* \"#utility.yul\":1883:1932   */\n      tag_123\n        /* \"#utility.yul\":1925:1931   */\n      dup5\n        /* \"#utility.yul\":1883:1932   */\n      tag_55\n      jump\t// in\n    tag_123:\n        /* \"#utility.yul\":1867:1933   */\n      tag_54\n      jump\t// in\n    tag_122:\n        /* \"#utility.yul\":1858:1933   */\n      swap1\n      pop\n        /* \"#utility.yul\":1956:1962   */\n      dup3\n        /* \"#utility.yul\":1949:1954   */\n      dup2\n        /* \"#utility.yul\":1942:1963   */\n      mstore\n        /* \"#utility.yul\":1994:1998   */\n      0x20\n        /* \"#utility.yul\":1987:1992   */\n      dup2\n        /* \"#utility.yul\":1983:1999   */\n      add\n        /* \"#utility.yul\":2032:2035   */\n      dup5\n        /* \"#utility.yul\":2023:2029   */\n      dup5\n        /* \"#utility.yul\":2018:2021   */\n      dup5\n        /* \"#utility.yul\":2014:2030   */\n      add\n        /* \"#utility.yul\":2011:2036   */\n      gt\n        /* \"#utility.yul\":2008:2120   */\n      iszero\n      tag_124\n      jumpi\n        /* \"#utility.yul\":2039:2118   */\n      tag_125\n      tag_50\n      jump\t// in\n    tag_125:\n        /* \"#utility.yul\":2008:2120   */\n    tag_124:\n        /* \"#utility.yul\":2129:2183   */\n      tag_126\n        /* \"#utility.yul\":2176:2182   */\n      dup5\n        /* \"#utility.yul\":2171:2174   */\n      dup3\n        /* \"#utility.yul\":2166:2169   */\n      dup6\n        /* \"#utility.yul\":2129:2183   */\n      tag_56\n      jump\t// in\n    tag_126:\n        /* \"#utility.yul\":1848:2189   */\n      pop\n        /* \"#utility.yul\":1764:2189   */\n      swap4\n      swap3\n      pop\n      pop\n      pop\n      jump\t// out\n        /* \"#utility.yul\":2209:2549   */\n    tag_58:\n        /* \"#utility.yul\":2265:2270   */\n      0x00\n        /* \"#utility.yul\":2314:2317   */\n      dup3\n        /* \"#utility.yul\":2307:2311   */\n      0x1f\n        /* \"#utility.yul\":2299:2305   */\n      dup4\n        /* \"#utility.yul\":2295:2312   */\n      add\n        /* \"#utility.yul\":2291:2318   */\n      slt\n        /* \"#utility.yul\":2281:2403   */\n      tag_128\n      jumpi\n        /* \"#utility.yul\":2322:2401   */\n      tag_129\n      tag_49\n      jump\t// in\n    tag_129:\n        /* \"#utility.yul\":2281:2403   */\n    tag_128:\n        /* \"#utility.yul\":2439:2445   */\n      dup2\n        /* \"#utility.yul\":2426:2446   */\n      calldataload\n        /* \"#utility.yul\":2464:2543   */\n      tag_130\n        /* \"#utility.yul\":2539:2542   */\n      dup5\n        /* \"#utility.yul\":2531:2537   */\n      dup3\n        /* \"#utility.yul\":2524:2528   */\n      0x20\n        /* \"#utility.yul\":2516:2522   */\n      dup7\n        /* \"#utility.yul\":2512:2529   */\n      add\n        /* \"#utility.yul\":2464:2543   */\n      tag_57\n      jump\t// in\n    tag_130:\n        /* \"#utility.yul\":2455:2543   */\n      swap2\n      pop\n        /* \"#utility.yul\":2271:2549   */\n      pop\n        /* \"#utility.yul\":2209:2549   */\n      swap3\n      swap2\n      pop\n      pop\n      jump\t// out\n        /* \"#utility.yul\":2555:3064   */\n    tag_10:\n        /* \"#utility.yul\":2624:2630   */\n      0x00\n        /* \"#utility.yul\":2673:2675   */\n      0x20\n        /* \"#utility.yul\":2661:2670   */\n      dup3\n        /* \"#utility.yul\":2652:2659   */\n      dup5\n        /* \"#utility.yul\":2648:2671   */\n      sub\n        /* \"#utility.yul\":2644:2676   */\n      slt\n        /* \"#utility.yul\":2641:2760   */\n      iszero\n      tag_132\n      jumpi\n        /* \"#utility.yul\":2679:2758   */\n      tag_133\n      tag_47\n      jump\t// in\n    tag_133:\n        /* \"#utility.yul\":2641:2760   */\n    tag_132:\n        /* \"#utility.yul\":2827:2828   */\n      0x00\n        /* \"#utility.yul\":2816:2825   */\n      dup3\n        /* \"#utility.yul\":2812:2829   */\n      add\n        /* \"#utility.yul\":2799:2830   */\n      calldataload\n        /* \"#utility.yul\":2857:2875   */\n      0xffffffffffffffff\n        /* \"#utility.yul\":2849:2855   */\n      dup2\n        /* \"#utility.yul\":2846:2876   */\n      gt\n        /* \"#utility.yul\":2843:2960   */\n      iszero\n      tag_134\n      jumpi\n        /* \"#utility.yul\":2879:2958   */\n      tag_135\n      tag_48\n      jump\t// in\n    tag_135:\n        /* \"#utility.yul\":2843:2960   */\n    tag_134:\n        /* \"#utility.yul\":2984:3047   */\n      tag_136\n        /* \"#utility.yul\":3039:3046   */\n      dup5\n        /* \"#utility.yul\":3030:3036   */\n      dup3\n        /* \"#utility.yul\":3019:3028   */\n      dup6\n        /* \"#utility.yul\":3015:3037   */\n      add\n        /* \"#utility.yul\":2984:3047   */\n      tag_58\n      jump\t// in\n    tag_136:\n        /* \"#utility.yul\":2974:3047   */\n      swap2\n      pop\n        /* \"#utility.yul\":2770:3057   */\n      pop\n        /* \"#utility.yul\":2555:3064   */\n      swap3\n      swap2\n      pop\n      pop\n      jump\t// out\n        /* \"#utility.yul\":3070:3196   */\n    tag_59:\n        /* \"#utility.yul\":3107:3114   */\n      0x00\n        /* \"#utility.yul\":3147:3189   */\n      0xffffffffffffffffffffffffffffffffffffffff\n        /* \"#utility.yul\":3140:3145   */\n      dup3\n        /* \"#utility.yul\":3136:3190   */\n      and\n        /* \"#utility.yul\":3125:3190   */\n      swap1\n      pop\n        /* \"#utility.yul\":3070:3196   */\n      swap2\n      swap1\n      pop\n      jump\t// out\n        /* \"#utility.yul\":3202:3298   */\n    tag_60:\n        /* \"#utility.yul\":3239:3246   */\n      0x00\n        /* \"#utility.yul\":3268:3292   */\n      tag_139\n        /* \"#utility.yul\":3286:3291   */\n      dup3\n        /* \"#utility.yul\":3268:3292   */\n      tag_59\n      jump\t// in\n    tag_139:\n        /* \"#utility.yul\":3257:3292   */\n      swap1\n      pop\n        /* \"#utility.yul\":3202:3298   */\n      swap2\n      swap1\n      pop\n      jump\t// out\n        /* \"#utility.yul\":3304:3422   */\n    tag_61:\n        /* \"#utility.yul\":3391:3415   */\n      tag_141\n        /* \"#utility.yul\":3409:3414   */\n      dup2\n        /* \"#utility.yul\":3391:3415   */\n      tag_60\n      jump\t// in\n    tag_141:\n        /* \"#utility.yul\":3386:3389   */\n      dup3\n        /* \"#utility.yul\":3379:3416   */\n      mstore\n        /* \"#utility.yul\":3304:3422   */\n      pop\n      pop\n      jump\t// out\n        /* \"#utility.yul\":3428:3650   */\n    tag_13:\n        /* \"#utility.yul\":3521:3525   */\n      0x00\n        /* \"#utility.yul\":3559:3561   */\n      0x20\n        /* \"#utility.yul\":3548:3557   */\n      dup3\n        /* \"#utility.yul\":3544:3562   */\n      add\n        /* \"#utility.yul\":3536:3562   */\n      swap1\n      pop\n        /* \"#utility.yul\":3572:3643   */\n      tag_143\n        /* \"#utility.yul\":3640:3641   */\n      0x00\n        /* \"#utility.yul\":3629:3638   */\n      dup4\n        /* \"#utility.yul\":3625:3642   */\n      add\n        /* \"#utility.yul\":3616:3622   */\n      dup5\n        /* \"#utility.yul\":3572:3643   */\n      tag_61\n      jump\t// in\n    tag_143:\n        /* \"#utility.yul\":3428:3650   */\n      swap3\n      swap2\n      pop\n      pop\n      jump\t// out\n        /* \"#utility.yul\":3656:3773   */\n    tag_62:\n        /* \"#utility.yul\":3765:3766   */\n      0x00\n        /* \"#utility.yul\":3762:3763   */\n      dup1\n        /* \"#utility.yul\":3755:3767   */\n      revert\n        /* \"#utility.yul\":3779:3896   */\n    tag_63:\n        /* \"#utility.yul\":3888:3889   */\n      0x00\n        /* \"#utility.yul\":3885:3886   */\n      dup1\n        /* \"#utility.yul\":3878:3890   */\n      revert\n        /* \"#utility.yul\":3916:4469   */\n    tag_64:\n        /* \"#utility.yul\":3974:3982   */\n      0x00\n        /* \"#utility.yul\":3984:3990   */\n      dup1\n        /* \"#utility.yul\":4034:4037   */\n      dup4\n        /* \"#utility.yul\":4027:4031   */\n      0x1f\n        /* \"#utility.yul\":4019:4025   */\n      dup5\n        /* \"#utility.yul\":4015:4032   */\n      add\n        /* \"#utility.yul\":4011:4038   */\n      slt\n        /* \"#utility.yul\":4001:4123   */\n      tag_147\n      jumpi\n        /* \"#utility.yul\":4042:4121   */\n      tag_148\n      tag_49\n      jump\t// in\n    tag_148:\n        /* \"#utility.yul\":4001:4123   */\n    tag_147:\n        /* \"#utility.yul\":4155:4161   */\n      dup3\n        /* \"#utility.yul\":4142:4162   */\n      calldataload\n        /* \"#utility.yul\":4132:4162   */\n      swap1\n      pop\n        /* \"#utility.yul\":4185:4203   */\n      0xffffffffffffffff\n        /* \"#utility.yul\":4177:4183   */\n      dup2\n        /* \"#utility.yul\":4174:4204   */\n      gt\n        /* \"#utility.yul\":4171:4288   */\n      iszero\n      tag_149\n      jumpi\n        /* \"#utility.yul\":4207:4286   */\n      tag_150\n      tag_62\n      jump\t// in\n    tag_150:\n        /* \"#utility.yul\":4171:4288   */\n    tag_149:\n        /* \"#utility.yul\":4321:4325   */\n      0x20\n        /* \"#utility.yul\":4313:4319   */\n      dup4\n        /* \"#utility.yul\":4309:4326   */\n      add\n        /* \"#utility.yul\":4297:4326   */\n      swap2\n      pop\n        /* \"#utility.yul\":4375:4378   */\n      dup4\n        /* \"#utility.yul\":4367:4371   */\n      0x01\n        /* \"#utility.yul\":4359:4365   */\n      dup3\n        /* \"#utility.yul\":4355:4372   */\n      mul\n        /* \"#utility.yul\":4345:4353   */\n      dup4\n        /* \"#utility.yul\":4341:4373   */\n      add\n        /* \"#utility.yul\":4338:4379   */\n      gt\n        /* \"#utility.yul\":4335:4463   */\n      iszero\n      tag_151\n      jumpi\n        /* \"#utility.yul\":4382:4461   */\n      tag_152\n      tag_63\n      jump\t// in\n    tag_152:\n        /* \"#utility.yul\":4335:4463   */\n    tag_151:\n        /* \"#utility.yul\":3916:4469   */\n      swap3\n      pop\n      swap3\n      swap1\n      pop\n      jump\t// out\n        /* \"#utility.yul\":4475:4597   */\n    tag_65:\n        /* \"#utility.yul\":4548:4572   */\n      tag_154\n        /* \"#utility.yul\":4566:4571   */\n      dup2\n        /* \"#utility.yul\":4548:4572   */\n      tag_60\n      jump\t// in\n    tag_154:\n        /* \"#utility.yul\":4541:4546   */\n      dup2\n        /* \"#utility.yul\":4538:4573   */\n      eq\n        /* \"#utility.yul\":4528:4591   */\n      tag_155\n      jumpi\n        /* \"#utility.yul\":4587:4588   */\n      0x00\n        /* \"#utility.yul\":4584:4585   */\n      dup1\n        /* \"#utility.yul\":4577:4589   */\n      revert\n        /* \"#utility.yul\":4528:4591   */\n    tag_155:\n        /* \"#utility.yul\":4475:4597   */\n      pop\n      jump\t// out\n        /* \"#utility.yul\":4603:4742   */\n    tag_66:\n        /* \"#utility.yul\":4649:4654   */\n      0x00\n        /* \"#utility.yul\":4687:4693   */\n      dup2\n        /* \"#utility.yul\":4674:4694   */\n      calldataload\n        /* \"#utility.yul\":4665:4694   */\n      swap1\n      pop\n        /* \"#utility.yul\":4703:4736   */\n      tag_157\n        /* \"#utility.yul\":4730:4735   */\n      dup2\n        /* \"#utility.yul\":4703:4736   */\n      tag_65\n      jump\t// in\n    tag_157:\n        /* \"#utility.yul\":4603:4742   */\n      swap3\n      swap2\n      pop\n      pop\n      jump\t// out\n        /* \"#utility.yul\":4748:5422   */\n    tag_16:\n        /* \"#utility.yul\":4828:4834   */\n      0x00\n        /* \"#utility.yul\":4836:4842   */\n      dup1\n        /* \"#utility.yul\":4844:4850   */\n      0x00\n        /* \"#utility.yul\":4893:4895   */\n      0x40\n        /* \"#utility.yul\":4881:4890   */\n      dup5\n        /* \"#utility.yul\":4872:4879   */\n      dup7\n        /* \"#utility.yul\":4868:4891   */\n      sub\n        /* \"#utility.yul\":4864:4896   */\n      slt\n        /* \"#utility.yul\":4861:4980   */\n      iszero\n      tag_159\n      jumpi\n        /* \"#utility.yul\":4899:4978   */\n      tag_160\n      tag_47\n      jump\t// in\n    tag_160:\n        /* \"#utility.yul\":4861:4980   */\n    tag_159:\n        /* \"#utility.yul\":5047:5048   */\n      0x00\n        /* \"#utility.yul\":5036:5045   */\n      dup5\n        /* \"#utility.yul\":5032:5049   */\n      add\n        /* \"#utility.yul\":5019:5050   */\n      calldataload\n        /* \"#utility.yul\":5077:5095   */\n      0xffffffffffffffff\n        /* \"#utility.yul\":5069:5075   */\n      dup2\n        /* \"#utility.yul\":5066:5096   */\n      gt\n        /* \"#utility.yul\":5063:5180   */\n      iszero\n      tag_161\n      jumpi\n        /* \"#utility.yul\":5099:5178   */\n      tag_162\n      tag_48\n      jump\t// in\n    tag_162:\n        /* \"#utility.yul\":5063:5180   */\n    tag_161:\n        /* \"#utility.yul\":5212:5277   */\n      tag_163\n        /* \"#utility.yul\":5269:5276   */\n      dup7\n        /* \"#utility.yul\":5260:5266   */\n      dup3\n        /* \"#utility.yul\":5249:5258   */\n      dup8\n        /* \"#utility.yul\":5245:5267   */\n      add\n        /* \"#utility.yul\":5212:5277   */\n      tag_64\n      jump\t// in\n    tag_163:\n        /* \"#utility.yul\":5194:5277   */\n      swap4\n      pop\n      swap4\n      pop\n        /* \"#utility.yul\":4990:5287   */\n      pop\n        /* \"#utility.yul\":5326:5328   */\n      0x20\n        /* \"#utility.yul\":5352:5405   */\n      tag_164\n        /* \"#utility.yul\":5397:5404   */\n      dup7\n        /* \"#utility.yul\":5388:5394   */\n      dup3\n        /* \"#utility.yul\":5377:5386   */\n      dup8\n        /* \"#utility.yul\":5373:5395   */\n      add\n        /* \"#utility.yul\":5352:5405   */\n      tag_66\n      jump\t// in\n    tag_164:\n        /* \"#utility.yul\":5342:5405   */\n      swap2\n      pop\n        /* \"#utility.yul\":5297:5415   */\n      pop\n        /* \"#utility.yul\":4748:5422   */\n      swap3\n      pop\n      swap3\n      pop\n      swap3\n      jump\t// out\n        /* \"#utility.yul\":5428:5518   */\n    tag_67:\n        /* \"#utility.yul\":5462:5469   */\n      0x00\n        /* \"#utility.yul\":5505:5510   */\n      dup2\n        /* \"#utility.yul\":5498:5511   */\n      iszero\n        /* \"#utility.yul\":5491:5512   */\n      iszero\n        /* \"#utility.yul\":5480:5512   */\n      swap1\n      pop\n        /* \"#utility.yul\":5428:5518   */\n      swap2\n      swap1\n      pop\n      jump\t// out\n        /* \"#utility.yul\":5524:5633   */\n    tag_68:\n        /* \"#utility.yul\":5605:5626   */\n      tag_167\n        /* \"#utility.yul\":5620:5625   */\n      dup2\n        /* \"#utility.yul\":5605:5626   */\n      tag_67\n      jump\t// in\n    tag_167:\n        /* \"#utility.yul\":5600:5603   */\n      dup3\n        /* \"#utility.yul\":5593:5627   */\n      mstore\n        /* \"#utility.yul\":5524:5633   */\n      pop\n      pop\n      jump\t// out\n        /* \"#utility.yul\":5639:5849   */\n    tag_25:\n        /* \"#utility.yul\":5726:5730   */\n      0x00\n        /* \"#utility.yul\":5764:5766   */\n      0x20\n        /* \"#utility.yul\":5753:5762   */\n      dup3\n        /* \"#utility.yul\":5749:5767   */\n      add\n        /* \"#utility.yul\":5741:5767   */\n      swap1\n      pop\n        /* \"#utility.yul\":5777:5842   */\n      tag_169\n        /* \"#utility.yul\":5839:5840   */\n      0x00\n        /* \"#utility.yul\":5828:5837   */\n      dup4\n        /* \"#utility.yul\":5824:5841   */\n      add\n        /* \"#utility.yul\":5815:5821   */\n      dup5\n        /* \"#utility.yul\":5777:5842   */\n      tag_68\n      jump\t// in\n    tag_169:\n        /* \"#utility.yul\":5639:5849   */\n      swap3\n      swap2\n      pop\n      pop\n      jump\t// out\n        /* \"#utility.yul\":5855:5971   */\n    tag_69:\n        /* \"#utility.yul\":5925:5946   */\n      tag_171\n        /* \"#utility.yul\":5940:5945   */\n      dup2\n        /* \"#utility.yul\":5925:5946   */\n      tag_67\n      jump\t// in\n    tag_171:\n        /* \"#utility.yul\":5918:5923   */\n      dup2\n        /* \"#utility.yul\":5915:5947   */\n      eq\n        /* \"#utility.yul\":5905:5965   */\n      tag_172\n      jumpi\n        /* \"#utility.yul\":5961:5962   */\n      0x00\n        /* \"#utility.yul\":5958:5959   */\n      dup1\n        /* \"#utility.yul\":5951:5963   */\n      revert\n        /* \"#utility.yul\":5905:5965   */\n    tag_172:\n        /* \"#utility.yul\":5855:5971   */\n      pop\n      jump\t// out\n        /* \"#utility.yul\":5977:6110   */\n    tag_70:\n        /* \"#utility.yul\":6020:6025   */\n      0x00\n        /* \"#utility.yul\":6058:6064   */\n      dup2\n        /* \"#utility.yul\":6045:6065   */\n      calldataload\n        /* \"#utility.yul\":6036:6065   */\n      swap1\n      pop\n        /* \"#utility.yul\":6074:6104   */\n      tag_174\n        /* \"#utility.yul\":6098:6103   */\n      dup2\n        /* \"#utility.yul\":6074:6104   */\n      tag_69\n      jump\t// in\n    tag_174:\n        /* \"#utility.yul\":5977:6110   */\n      swap3\n      swap2\n      pop\n      pop\n      jump\t// out\n        /* \"#utility.yul\":6116:6784   */\n    tag_28:\n        /* \"#utility.yul\":6193:6199   */\n      0x00\n        /* \"#utility.yul\":6201:6207   */\n      dup1\n        /* \"#utility.yul\":6209:6215   */\n      0x00\n        /* \"#utility.yul\":6258:6260   */\n      0x40\n        /* \"#utility.yul\":6246:6255   */\n      dup5\n        /* \"#utility.yul\":6237:6244   */\n      dup7\n        /* \"#utility.yul\":6233:6256   */\n      sub\n        /* \"#utility.yul\":6229:6261   */\n      slt\n        /* \"#utility.yul\":6226:6345   */\n      iszero\n      tag_176\n      jumpi\n        /* \"#utility.yul\":6264:6343   */\n      tag_177\n      tag_47\n      jump\t// in\n    tag_177:\n        /* \"#utility.yul\":6226:6345   */\n    tag_176:\n        /* \"#utility.yul\":6412:6413   */\n      0x00\n        /* \"#utility.yul\":6401:6410   */\n      dup5\n        /* \"#utility.yul\":6397:6414   */\n      add\n        /* \"#utility.yul\":6384:6415   */\n      calldataload\n        /* \"#utility.yul\":6442:6460   */\n      0xffffffffffffffff\n        /* \"#utility.yul\":6434:6440   */\n      dup2\n        /* \"#utility.yul\":6431:6461   */\n      gt\n        /* \"#utility.yul\":6428:6545   */\n      iszero\n      tag_178\n      jumpi\n        /* \"#utility.yul\":6464:6543   */\n      tag_179\n      tag_48\n      jump\t// in\n    tag_179:\n        /* \"#utility.yul\":6428:6545   */\n    tag_178:\n        /* \"#utility.yul\":6577:6642   */\n      tag_180\n        /* \"#utility.yul\":6634:6641   */\n      dup7\n        /* \"#utility.yul\":6625:6631   */\n      dup3\n        /* \"#utility.yul\":6614:6623   */\n      dup8\n        /* \"#utility.yul\":6610:6632   */\n      add\n        /* \"#utility.yul\":6577:6642   */\n      tag_64\n      jump\t// in\n    tag_180:\n        /* \"#utility.yul\":6559:6642   */\n      swap4\n      pop\n      swap4\n      pop\n        /* \"#utility.yul\":6355:6652   */\n      pop\n        /* \"#utility.yul\":6691:6693   */\n      0x20\n        /* \"#utility.yul\":6717:6767   */\n      tag_181\n        /* \"#utility.yul\":6759:6766   */\n      dup7\n        /* \"#utility.yul\":6750:6756   */\n      dup3\n        /* \"#utility.yul\":6739:6748   */\n      dup8\n        /* \"#utility.yul\":6735:6757   */\n      add\n        /* \"#utility.yul\":6717:6767   */\n      tag_70\n      jump\t// in\n    tag_181:\n        /* \"#utility.yul\":6707:6767   */\n      swap2\n      pop\n        /* \"#utility.yul\":6662:6777   */\n      pop\n        /* \"#utility.yul\":6116:6784   */\n      swap3\n      pop\n      swap3\n      pop\n      swap3\n      jump\t// out\n        /* \"#utility.yul\":6790:6938   */\n    tag_71:\n        /* \"#utility.yul\":6892:6903   */\n      0x00\n        /* \"#utility.yul\":6929:6932   */\n      dup2\n        /* \"#utility.yul\":6914:6932   */\n      swap1\n      pop\n        /* \"#utility.yul\":6790:6938   */\n      swap3\n      swap2\n      pop\n      pop\n      jump\t// out\n        /* \"#utility.yul\":6968:7298   */\n    tag_72:\n        /* \"#utility.yul\":7084:7087   */\n      0x00\n        /* \"#utility.yul\":7105:7194   */\n      tag_184\n        /* \"#utility.yul\":7187:7193   */\n      dup4\n        /* \"#utility.yul\":7182:7185   */\n      dup6\n        /* \"#utility.yul\":7105:7194   */\n      tag_71\n      jump\t// in\n    tag_184:\n        /* \"#utility.yul\":7098:7194   */\n      swap4\n      pop\n        /* \"#utility.yul\":7204:7260   */\n      tag_185\n        /* \"#utility.yul\":7253:7259   */\n      dup4\n        /* \"#utility.yul\":7248:7251   */\n      dup6\n        /* \"#utility.yul\":7241:7246   */\n      dup5\n        /* \"#utility.yul\":7204:7260   */\n      tag_56\n      jump\t// in\n    tag_185:\n        /* \"#utility.yul\":7285:7291   */\n      dup3\n        /* \"#utility.yul\":7280:7283   */\n      dup5\n        /* \"#utility.yul\":7276:7292   */\n      add\n        /* \"#utility.yul\":7269:7292   */\n      swap1\n      pop\n        /* \"#utility.yul\":6968:7298   */\n      swap4\n      swap3\n      pop\n      pop\n      pop\n      jump\t// out\n        /* \"#utility.yul\":7304:7599   */\n    tag_32:\n        /* \"#utility.yul\":7446:7449   */\n      0x00\n        /* \"#utility.yul\":7468:7573   */\n      tag_187\n        /* \"#utility.yul\":7569:7572   */\n      dup3\n        /* \"#utility.yul\":7560:7566   */\n      dup5\n        /* \"#utility.yul\":7552:7558   */\n      dup7\n        /* \"#utility.yul\":7468:7573   */\n      tag_72\n      jump\t// in\n    tag_187:\n        /* \"#utility.yul\":7461:7573   */\n      swap2\n      pop\n        /* \"#utility.yul\":7590:7593   */\n      dup2\n        /* \"#utility.yul\":7583:7593   */\n      swap1\n      pop\n        /* \"#utility.yul\":7304:7599   */\n      swap4\n      swap3\n      pop\n      pop\n      pop\n      jump\t// out\n        /* \"#utility.yul\":7605:7682   */\n    tag_73:\n        /* \"#utility.yul\":7642:7649   */\n      0x00\n        /* \"#utility.yul\":7671:7676   */\n      dup2\n        /* \"#utility.yul\":7660:7676   */\n      swap1\n      pop\n        /* \"#utility.yul\":7605:7682   */\n      swap2\n      swap1\n      pop\n      jump\t// out\n        /* \"#utility.yul\":7688:7767   */\n    tag_74:\n        /* \"#utility.yul\":7727:7734   */\n      0x00\n        /* \"#utility.yul\":7756:7761   */\n      dup2\n        /* \"#utility.yul\":7745:7761   */\n      swap1\n      pop\n        /* \"#utility.yul\":7688:7767   */\n      swap2\n      swap1\n      pop\n      jump\t// out\n        /* \"#utility.yul\":7773:7930   */\n    tag_75:\n        /* \"#utility.yul\":7878:7923   */\n      tag_191\n        /* \"#utility.yul\":7898:7922   */\n      tag_192\n        /* \"#utility.yul\":7916:7921   */\n      dup3\n        /* \"#utility.yul\":7898:7922   */\n      tag_73\n      jump\t// in\n    tag_192:\n        /* \"#utility.yul\":7878:7923   */\n      tag_74\n      jump\t// in\n    tag_191:\n        /* \"#utility.yul\":7873:7876   */\n      dup3\n        /* \"#utility.yul\":7866:7924   */\n      mstore\n        /* \"#utility.yul\":7773:7930   */\n      pop\n      pop\n      jump\t// out\n        /* \"#utility.yul\":7936:8192   */\n    tag_37:\n        /* \"#utility.yul\":8048:8051   */\n      0x00\n        /* \"#utility.yul\":8063:8138   */\n      tag_194\n        /* \"#utility.yul\":8134:8137   */\n      dup3\n        /* \"#utility.yul\":8125:8131   */\n      dup5\n        /* \"#utility.yul\":8063:8138   */\n      tag_75\n      jump\t// in\n    tag_194:\n        /* \"#utility.yul\":8163:8165   */\n      0x20\n        /* \"#utility.yul\":8158:8161   */\n      dup3\n        /* \"#utility.yul\":8154:8166   */\n      add\n        /* \"#utility.yul\":8147:8166   */\n      swap2\n      pop\n        /* \"#utility.yul\":8183:8186   */\n      dup2\n        /* \"#utility.yul\":8176:8186   */\n      swap1\n      pop\n        /* \"#utility.yul\":7936:8192   */\n      swap3\n      swap2\n      pop\n      pop\n      jump\t// out\n        /* \"#utility.yul\":8198:8296   */\n    tag_76:\n        /* \"#utility.yul\":8249:8255   */\n      0x00\n        /* \"#utility.yul\":8283:8288   */\n      dup2\n        /* \"#utility.yul\":8277:8289   */\n      mload\n        /* \"#utility.yul\":8267:8289   */\n      swap1\n      pop\n        /* \"#utility.yul\":8198:8296   */\n      swap2\n      swap1\n      pop\n      jump\t// out\n        /* \"#utility.yul\":8302:8482   */\n    tag_77:\n        /* \"#utility.yul\":8350:8427   */\n      0x4e487b7100000000000000000000000000000000000000000000000000000000\n        /* \"#utility.yul\":8347:8348   */\n      0x00\n        /* \"#utility.yul\":8340:8428   */\n      mstore\n        /* \"#utility.yul\":8447:8451   */\n      0x22\n        /* \"#utility.yul\":8444:8445   */\n      0x04\n        /* \"#utility.yul\":8437:8452   */\n      mstore\n        /* \"#utility.yul\":8471:8475   */\n      0x24\n        /* \"#utility.yul\":8468:8469   */\n      0x00\n        /* \"#utility.yul\":8461:8476   */\n      revert\n        /* \"#utility.yul\":8488:8808   */\n    tag_78:\n        /* \"#utility.yul\":8532:8538   */\n      0x00\n        /* \"#utility.yul\":8569:8570   */\n      0x02\n        /* \"#utility.yul\":8563:8567   */\n      dup3\n        /* \"#utility.yul\":8559:8571   */\n      div\n        /* \"#utility.yul\":8549:8571   */\n      swap1\n      pop\n        /* \"#utility.yul\":8616:8617   */\n      0x01\n        /* \"#utility.yul\":8610:8614   */\n      dup3\n        /* \"#utility.yul\":8606:8618   */\n      and\n        /* \"#utility.yul\":8637:8655   */\n      dup1\n        /* \"#utility.yul\":8627:8708   */\n      tag_198\n      jumpi\n        /* \"#utility.yul\":8693:8697   */\n      0x7f\n        /* \"#utility.yul\":8685:8691   */\n      dup3\n        /* \"#utility.yul\":8681:8698   */\n      and\n        /* \"#utility.yul\":8671:8698   */\n      swap2\n      pop\n        /* \"#utility.yul\":8627:8708   */\n    tag_198:\n        /* \"#utility.yul\":8755:8757   */\n      0x20\n        /* \"#utility.yul\":8747:8753   */\n      dup3\n        /* \"#utility.yul\":8744:8758   */\n      lt\n        /* \"#utility.yul\":8724:8742   */\n      dup2\n        /* \"#utility.yul\":8721:8759   */\n      sub\n        /* \"#utility.yul\":8718:8802   */\n      tag_199\n      jumpi\n        /* \"#utility.yul\":8774:8792   */\n      tag_200\n      tag_77\n      jump\t// in\n    tag_200:\n        /* \"#utility.yul\":8718:8802   */\n    tag_199:\n        /* \"#utility.yul\":8539:8808   */\n      pop\n        /* \"#utility.yul\":8488:8808   */\n      swap2\n      swap1\n      pop\n      jump\t// out\n        /* \"#utility.yul\":8814:8954   */\n    tag_79:\n        /* \"#utility.yul\":8862:8866   */\n      0x00\n        /* \"#utility.yul\":8885:8888   */\n      dup2\n        /* \"#utility.yul\":8877:8888   */\n      swap1\n      pop\n        /* \"#utility.yul\":8908:8911   */\n      dup2\n        /* \"#utility.yul\":8905:8906   */\n      0x00\n        /* \"#utility.yul\":8898:8912   */\n      mstore\n        /* \"#utility.yul\":8942:8946   */\n      0x20\n        /* \"#utility.yul\":8939:8940   */\n      0x00\n        /* \"#utility.yul\":8929:8947   */\n      keccak256\n        /* \"#utility.yul\":8921:8947   */\n      swap1\n      pop\n        /* \"#utility.yul\":8814:8954   */\n      swap2\n      swap1\n      pop\n      jump\t// out\n        /* \"#utility.yul\":8960:9053   */\n    tag_80:\n        /* \"#utility.yul\":8997:9003   */\n      0x00\n        /* \"#utility.yul\":9044:9046   */\n      0x20\n        /* \"#utility.yul\":9039:9041   */\n      0x1f\n        /* \"#utility.yul\":9032:9037   */\n      dup4\n        /* \"#utility.yul\":9028:9042   */\n      add\n        /* \"#utility.yul\":9024:9047   */\n      div\n        /* \"#utility.yul\":9014:9047   */\n      swap1\n      pop\n        /* \"#utility.yul\":8960:9053   */\n      swap2\n      swap1\n      pop\n      jump\t// out\n        /* \"#utility.yul\":9059:9166   */\n    tag_81:\n        /* \"#utility.yul\":9103:9111   */\n      0x00\n        /* \"#utility.yul\":9153:9158   */\n      dup3\n        /* \"#utility.yul\":9147:9151   */\n      dup3\n        /* \"#utility.yul\":9143:9159   */\n      shl\n        /* \"#utility.yul\":9122:9159   */\n      swap1\n      pop\n        /* \"#utility.yul\":9059:9166   */\n      swap3\n      swap2\n      pop\n      pop\n      jump\t// out\n        /* \"#utility.yul\":9172:9565   */\n    tag_82:\n        /* \"#utility.yul\":9241:9247   */\n      0x00\n        /* \"#utility.yul\":9291:9292   */\n      0x08\n        /* \"#utility.yul\":9279:9289   */\n      dup4\n        /* \"#utility.yul\":9275:9293   */\n      mul\n        /* \"#utility.yul\":9314:9411   */\n      tag_205\n        /* \"#utility.yul\":9344:9410   */\n      0xffffffffffffffffffffffffffffffffffffffffffffffffffffffffffffffff\n        /* \"#utility.yul\":9333:9342   */\n      dup3\n        /* \"#utility.yul\":9314:9411   */\n      tag_81\n      jump\t// in\n    tag_205:\n        /* \"#utility.yul\":9432:9471   */\n      tag_206\n        /* \"#utility.yul\":9462:9470   */\n      dup7\n        /* \"#utility.yul\":9451:9460   */\n      dup4\n        /* \"#utility.yul\":9432:9471   */\n      tag_81\n      jump\t// in\n    tag_206:\n        /* \"#utility.yul\":9420:9471   */\n      swap6\n      pop\n        /* \"#utility.yul\":9504:9508   */\n      dup1\n        /* \"#utility.yul\":9500:9509   */\n      not\n        /* \"#utility.yul\":9493:9498   */\n      dup5\n        /* \"#utility.yul\":9489:9510   */\n      and\n        /* \"#utility.yul\":9480:9510   */\n      swap4\n      pop\n        /* \"#utility.yul\":9553:9557   */\n      dup1\n        /* \"#utility.yul\":9543:9551   */\n      dup7\n        /* \"#utility.yul\":9539:9558   */\n      and\n        /* \"#utility.yul\":9532:9537   */\n      dup5\n        /* \"#utility.yul\":9529:9559   */\n      or\n        /* \"#utility.yul\":9519:9559   */\n      swap3\n      pop\n        /* \"#utility.yul\":9248:9565   */\n      pop\n      pop\n        /* \"#utility.yul\":9172:9565   */\n      swap4\n      swap3\n      pop\n      pop\n      pop\n      jump\t// out\n        /* \"#utility.yul\":9571:9631   */\n    tag_83:\n        /* \"#utility.yul\":9599:9602   */\n      0x00\n        /* \"#utility.yul\":9620:9625   */\n      dup2\n        /* \"#utility.yul\":9613:9625   */\n      swap1\n      pop\n        /* \"#utility.yul\":9571:9631   */\n      swap2\n      swap1\n      pop\n      jump\t// out\n        /* \"#utility.yul\":9637:9779   */\n    tag_84:\n        /* \"#utility.yul\":9687:9696   */\n      0x00\n        /* \"#utility.yul\":9720:9773   */\n      tag_209\n        /* \"#utility.yul\":9738:9772   */\n      tag_210\n        /* \"#utility.yul\":9747:9771   */\n      tag_211\n        /* \"#utility.yul\":9765:9770   */\n      dup5\n        /* \"#utility.yul\":9747:9771   */\n      tag_73\n      jump\t// in\n    tag_211:\n        /* \"#utility.yul\":9738:9772   */\n      tag_83\n      jump\t// in\n    tag_210:\n        /* \"#utility.yul\":9720:9773   */\n      tag_73\n      jump\t// in\n    tag_209:\n        /* \"#utility.yul\":9707:9773   */\n      swap1\n      pop\n        /* \"#utility.yul\":9637:9779   */\n      swap2\n      swap1\n      pop\n      jump\t// out\n        /* \"#utility.yul\":9785:9860   */\n    tag_85:\n        /* \"#utility.yul\":9828:9831   */\n      0x00\n        /* \"#utility.yul\":9849:9854   */\n      dup2\n        /* \"#utility.yul\":9842:9854   */\n      swap1\n      pop\n        /* \"#utility.yul\":9785:9860   */\n      swap2\n      swap1\n      pop\n      jump\t// out\n        /* \"#utility.yul\":9866:10135   */\n    tag_86:\n        /* \"#utility.yul\":9976:10015   */\n      tag_214\n        /* \"#utility.yul\":10007:10014   */\n      dup4\n        /* \"#utility.yul\":9976:10015   */\n      tag_84\n      jump\t// in\n    tag_214:\n        /* \"#utility.yul\":10037:10128   */\n      tag_215\n        /* \"#utility.yul\":10086:10127   */\n      tag_216\n        /* \"#utility.yul\":10110:10126   */\n      dup3\n        /* \"#utility.yul\":10086:10127   */\n      tag_85\n      jump\t// in\n    tag_216:\n        /* \"#utility.yul\":10078:10084   */\n      dup5\n        /* \"#utility.yul\":10071:10075   */\n      dup5\n        /* \"#utility.yul\":10065:10076   */\n      sload\n        /* \"#utility.yul\":10037:10128   */\n      tag_82\n      jump\t// in\n    tag_215:\n        /* \"#utility.yul\":10031:10035   */\n      dup3\n        /* \"#utility.yul\":10024:10129   */\n      sstore\n        /* \"#utility.yul\":9942:10135   */\n      pop\n        /* \"#utility.yul\":9866:10135   */\n      pop\n      pop\n      pop\n      jump\t// out\n        /* \"#utility.yul\":10141:10214   */\n    tag_87:\n        /* \"#utility.yul\":10186:10189   */\n      0x00\n        /* \"#utility.yul\":10141:10214   */\n      swap1\n      jump\t// out\n        /* \"#utility.yul\":10220:10409   */\n    tag_88:\n        /* \"#utility.yul\":10297:10329   */\n      tag_219\n      tag_87\n      jump\t// in\n    tag_219:\n        /* \"#utility.yul\":10338:10403   */\n      tag_220\n        /* \"#utility.yul\":10396:10402   */\n      dup2\n        /* \"#utility.yul\":10388:10394   */\n      dup5\n        /* \"#utility.yul\":10382:10386   */\n      dup5\n        /* \"#utility.yul\":10338:10403   */\n      tag_86\n      jump\t// in\n    tag_220:\n        /* \"#utility.yul\":10273:10409   */\n      pop\n        /* \"#utility.yul\":10220:10409   */\n      pop\n      pop\n      jump\t// out\n        /* \"#utility.yul\":10415:10601   */\n    tag_89:\n        /* \"#utility.yul\":10475:10595   */\n    tag_222:\n        /* \"#utility.yul\":10492:10495   */\n      dup2\n        /* \"#utility.yul\":10485:10490   */\n      dup2\n        /* \"#utility.yul\":10482:10496   */\n      lt\n        /* \"#utility.yul\":10475:10595   */\n      iszero\n      tag_224\n      jumpi\n        /* \"#utility.yul\":10546:10585   */\n      tag_225\n        /* \"#utility.yul\":10583:10584   */\n      0x00\n        /* \"#utility.yul\":10576:10581   */\n      dup3\n        /* \"#utility.yul\":10546:10585   */\n      tag_88\n      jump\t// in\n    tag_225:\n        /* \"#utility.yul\":10519:10520   */\n      0x01\n        /* \"#utility.yul\":10512:10517   */\n      dup2\n        /* \"#utility.yul\":10508:10521   */\n      add\n        /* \"#utility.yul\":10499:10521   */\n      swap1\n      pop\n        /* \"#utility.yul\":10475:10595   */\n      jump(tag_222)\n    tag_224:\n        /* \"#utility.yul\":10415:10601   */\n      pop\n      pop\n      jump\t// out\n        /* \"#utility.yul\":10607:11148   */\n    tag_90:\n        /* \"#utility.yul\":10707:10709   */\n      0x1f\n        /* \"#utility.yul\":10702:10705   */\n      dup3\n        /* \"#utility.yul\":10699:10710   */\n      gt\n        /* \"#utility.yul\":10696:11141   */\n      iszero\n      tag_227\n      jumpi\n        /* \"#utility.yul\":10741:10778   */\n      tag_228\n        /* \"#utility.yul\":10772:10777   */\n      dup2\n        /* \"#utility.yul\":10741:10778   */\n      tag_79\n      jump\t// in\n    tag_228:\n        /* \"#utility.yul\":10824:10853   */\n      tag_229\n        /* \"#utility.yul\":10842:10852   */\n      dup5\n        /* \"#utility.yul\":10824:10853   */\n      tag_80\n      jump\t// in\n    tag_229:\n        /* \"#utility.yul\":10814:10822   */\n      dup2\n        /* \"#utility.yul\":10810:10854   */\n      add\n        /* \"#utility.yul\":11007:11009   */\n      0x20\n        /* \"#utility.yul\":10995:11005   */\n      dup6\n        /* \"#utility.yul\":10992:11010   */\n      lt\n        /* \"#utility.yul\":10989:11038   */\n      iszero\n      tag_230\n      jumpi\n        /* \"#utility.yul\":11028:11036   */\n      dup2\n        /* \"#utility.yul\":11013:11036   */\n      swap1\n      pop\n        /* \"#utility.yul\":10989:11038   */\n    tag_230:\n        /* \"#utility.yul\":11051:11131   */\n      tag_231\n        /* \"#utility.yul\":11107:11129   */\n      tag_232\n        /* \"#utility.yul\":11125:11128   */\n      dup6\n        /* \"#utility.yul\":11107:11129   */\n      tag_80\n      jump\t// in\n    tag_232:\n        /* \"#utility.yul\":11097:11105   */\n      dup4\n        /* \"#utility.yul\":11093:11130   */\n      add\n        /* \"#utility.yul\":11080:11091   */\n      dup3\n        /* \"#utility.yul\":11051:11131   */\n      tag_89\n      jump\t// in\n    tag_231:\n        /* \"#utility.yul\":10711:11141   */\n      pop\n      pop\n        /* \"#utility.yul\":10696:11141   */\n    tag_227:\n        /* \"#utility.yul\":10607:11148   */\n      pop\n      pop\n      pop\n      jump\t// out\n        /* \"#utility.yul\":11154:11271   */\n    tag_91:\n        /* \"#utility.yul\":11208:11216   */\n      0x00\n        /* \"#utility.yul\":11258:11263   */\n      dup3\n        /* \"#utility.yul\":11252:11256   */\n      dup3\n        /* \"#utility.yul\":11248:11264   */\n      shr\n        /* \"#utility.yul\":11227:11264   */\n      swap1\n      pop\n        /* \"#utility.yul\":11154:11271   */\n      swap3\n      swap2\n      pop\n      pop\n      jump\t// out\n        /* \"#utility.yul\":11277:11446   */\n    tag_92:\n        /* \"#utility.yul\":11321:11327   */\n      0x00\n        /* \"#utility.yul\":11354:11405   */\n      tag_235\n        /* \"#utility.yul\":11402:11403   */\n      0x00\n        /* \"#utility.yul\":11398:11404   */\n      not\n        /* \"#utility.yul\":11390:11395   */\n      dup5\n        /* \"#utility.yul\":11387:11388   */\n      0x08\n        /* \"#utility.yul\":11383:11396   */\n      mul\n        /* \"#utility.yul\":11354:11405   */\n      tag_91\n      jump\t// in\n    tag_235:\n        /* \"#utility.yul\":11350:11406   */\n      not\n        /* \"#utility.yul\":11435:11439   */\n      dup1\n        /* \"#utility.yul\":11429:11433   */\n      dup4\n        /* \"#utility.yul\":11425:11440   */\n      and\n        /* \"#utility.yul\":11415:11440   */\n      swap2\n      pop\n        /* \"#utility.yul\":11328:11446   */\n      pop\n        /* \"#utility.yul\":11277:11446   */\n      swap3\n      swap2\n      pop\n      pop\n      jump\t// out\n        /* \"#utility.yul\":11451:11746   */\n    tag_93:\n        /* \"#utility.yul\":11527:11531   */\n      0x00\n        /* \"#utility.yul\":11673:11702   */\n      tag_237\n        /* \"#utility.yul\":11698:11701   */\n      dup4\n        /* \"#utility.yul\":11692:11696   */\n      dup4\n        /* \"#utility.yul\":11673:11702   */\n      tag_92\n      jump\t// in\n    tag_237:\n        /* \"#utility.yul\":11665:11702   */\n      swap2\n      pop\n        /* \"#utility.yul\":11735:11738   */\n      dup3\n        /* \"#utility.yul\":11732:11733   */\n      0x02\n        /* \"#utility.yul\":11728:11739   */\n      mul\n        /* \"#utility.yul\":11722:11726   */\n      dup3\n        /* \"#utility.yul\":11719:11740   */\n      or\n        /* \"#utility.yul\":11711:11740   */\n      swap1\n      pop\n        /* \"#utility.yul\":11451:11746   */\n      swap3\n      swap2\n      pop\n      pop\n      jump\t// out\n        /* \"#utility.yul\":11751:13141   */\n    tag_39:\n        /* \"#utility.yul\":11866:11902   */\n      tag_239\n        /* \"#utility.yul\":11898:11901   */\n      dup3\n        /* \"#utility.yul\":11866:11902   */\n      tag_76\n      jump\t// in\n    tag_239:\n        /* \"#utility.yul\":11967:11985   */\n      0xffffffffffffffff\n        /* \"#utility.yul\":11959:11965   */\n      dup2\n        /* \"#utility.yul\":11956:11986   */\n      gt\n        /* \"#utility.yul\":11953:12009   */\n      iszero\n      tag_240\n      jumpi\n        /* \"#utility.yul\":11989:12007   */\n      tag_241\n      tag_52\n      jump\t// in\n    tag_241:\n        /* \"#utility.yul\":11953:12009   */\n    tag_240:\n        /* \"#utility.yul\":12033:12071   */\n      tag_242\n        /* \"#utility.yul\":12065:12069   */\n      dup3\n        /* \"#utility.yul\":12059:12070   */\n      sload\n        /* \"#utility.yul\":12033:12071   */\n      tag_78\n      jump\t// in\n    tag_242:\n        /* \"#utility.yul\":12118:12184   */\n      tag_243\n        /* \"#utility.yul\":12177:12183   */\n      dup3\n        /* \"#utility.yul\":12169:12175   */\n      dup3\n        /* \"#utility.yul\":12163:12167   */\n      dup6\n        /* \"#utility.yul\":12118:12184   */\n      tag_90\n      jump\t// in\n    tag_243:\n        /* \"#utility.yul\":12211:12212   */\n      0x00\n        /* \"#utility.yul\":12235:12239   */\n      0x20\n        /* \"#utility.yul\":12222:12239   */\n      swap1\n      pop\n        /* \"#utility.yul\":12267:12269   */\n      0x1f\n        /* \"#utility.yul\":12259:12265   */\n      dup4\n        /* \"#utility.yul\":12256:12270   */\n      gt\n        /* \"#utility.yul\":12284:12285   */\n      0x01\n        /* \"#utility.yul\":12279:12896   */\n      dup2\n      eq\n      tag_245\n      jumpi\n        /* \"#utility.yul\":12940:12941   */\n      0x00\n        /* \"#utility.yul\":12957:12963   */\n      dup5\n        /* \"#utility.yul\":12954:13031   */\n      iszero\n      tag_246\n      jumpi\n        /* \"#utility.yul\":13006:13015   */\n      dup3\n        /* \"#utility.yul\":13001:13004   */\n      dup8\n        /* \"#utility.yul\":12997:13016   */\n      add\n        /* \"#utility.yul\":12991:13017   */\n      mload\n        /* \"#utility.yul\":12982:13017   */\n      swap1\n      pop\n        /* \"#utility.yul\":12954:13031   */\n    tag_246:\n        /* \"#utility.yul\":13057:13124   */\n      tag_247\n        /* \"#utility.yul\":13117:13123   */\n      dup6\n        /* \"#utility.yul\":13110:13115   */\n      dup3\n        /* \"#utility.yul\":13057:13124   */\n      tag_93\n      jump\t// in\n    tag_247:\n        /* \"#utility.yul\":13051:13055   */\n      dup7\n        /* \"#utility.yul\":13044:13125   */\n      sstore\n        /* \"#utility.yul\":12913:13135   */\n      pop\n        /* \"#utility.yul\":12249:13135   */\n      jump(tag_244)\n        /* \"#utility.yul\":12279:12896   */\n    tag_245:\n        /* \"#utility.yul\":12331:12335   */\n      0x1f\n        /* \"#utility.yul\":12327:12336   */\n      not\n        /* \"#utility.yul\":12319:12325   */\n      dup5\n        /* \"#utility.yul\":12315:12337   */\n      and\n        /* \"#utility.yul\":12365:12401   */\n      tag_248\n        /* \"#utility.yul\":12396:12400   */\n      dup7\n        /* \"#utility.yul\":12365:12401   */\n      tag_79\n      jump\t// in\n    tag_248:\n        /* \"#utility.yul\":12423:12424   */\n      0x00\n        /* \"#utility.yul\":12437:12645   */\n    tag_249:\n        /* \"#utility.yul\":12451:12458   */\n      dup3\n        /* \"#utility.yul\":12448:12449   */\n      dup2\n        /* \"#utility.yul\":12445:12459   */\n      lt\n        /* \"#utility.yul\":12437:12645   */\n      iszero\n      tag_251\n      jumpi\n        /* \"#utility.yul\":12530:12539   */\n      dup5\n        /* \"#utility.yul\":12525:12528   */\n      dup10\n        /* \"#utility.yul\":12521:12540   */\n      add\n        /* \"#utility.yul\":12515:12541   */\n      mload\n        /* \"#utility.yul\":12507:12513   */\n      dup3\n        /* \"#utility.yul\":12500:12542   */\n      sstore\n        /* \"#utility.yul\":12581:12582   */\n      0x01\n        /* \"#utility.yul\":12573:12579   */\n      dup3\n        /* \"#utility.yul\":12569:12583   */\n      add\n        /* \"#utility.yul\":12559:12583   */\n      swap2\n      pop\n        /* \"#utility.yul\":12628:12630   */\n      0x20\n        /* \"#utility.yul\":12617:12626   */\n      dup6\n        /* \"#utility.yul\":12613:12631   */\n      add\n        /* \"#utility.yul\":12600:12631   */\n      swap5\n      pop\n        /* \"#utility.yul\":12474:12478   */\n      0x20\n        /* \"#utility.yul\":12471:12472   */\n      dup2\n        /* \"#utility.yul\":12467:12479   */\n      add\n        /* \"#utility.yul\":12462:12479   */\n      swap1\n      pop\n        /* \"#utility.yul\":12437:12645   */\n      jump(tag_249)\n    tag_251:\n        /* \"#utility.yul\":12673:12679   */\n      dup7\n        /* \"#utility.yul\":12664:12671   */\n      dup4\n        /* \"#utility.yul\":12661:12680   */\n      lt\n        /* \"#utility.yul\":12658:12837   */\n      iszero\n      tag_252\n      jumpi\n        /* \"#utility.yul\":12731:12740   */\n      dup5\n        /* \"#utility.yul\":12726:12729   */\n      dup10\n        /* \"#utility.yul\":12722:12741   */\n      add\n        /* \"#utility.yul\":12716:12742   */\n      mload\n        /* \"#utility.yul\":12774:12822   */\n      tag_253\n        /* \"#utility.yul\":12816:12820   */\n      0x1f\n        /* \"#utility.yul\":12808:12814   */\n      dup10\n        /* \"#utility.yul\":12804:12821   */\n      and\n        /* \"#utility.yul\":12793:12802   */\n      dup3\n        /* \"#utility.yul\":12774:12822   */\n      tag_92\n      jump\t// in\n    tag_253:\n        /* \"#utility.yul\":12766:12772   */\n      dup4\n        /* \"#utility.yul\":12759:12823   */\n      sstore\n        /* \"#utility.yul\":12681:12837   */\n      pop\n        /* \"#utility.yul\":12658:12837   */\n    tag_252:\n        /* \"#utility.yul\":12883:12884   */\n      0x01\n        /* \"#utility.yul\":12879:12880   */\n      0x02\n        /* \"#utility.yul\":12871:12877   */\n      dup9\n        /* \"#utility.yul\":12867:12881   */\n      mul\n        /* \"#utility.yul\":12863:12885   */\n      add\n        /* \"#utility.yul\":12857:12861   */\n      dup9\n        /* \"#utility.yul\":12850:12886   */\n      sstore\n        /* \"#utility.yul\":12286:12896   */\n      pop\n      pop\n      pop\n        /* \"#utility.yul\":12249:13135   */\n    tag_244:\n      pop\n        /* \"#utility.yul\":11841:13141   */\n      pop\n      pop\n      pop\n        /* \"#utility.yul\":11751:13141   */\n      pop\n      pop\n      jump\t// out\n        /* \"#utility.yul\":13147:13316   */\n    tag_94:\n        /* \"#utility.yul\":13231:13242   */\n      0x00\n        /* \"#utility.yul\":13265:13271   */\n      dup3\n        /* \"#utility.yul\":13260:13263   */\n      dup3\n        /* \"#utility.yul\":13253:13272   */\n      mstore\n        /* \"#utility.yul\":13305:13309   */\n      0x20\n        /* \"#utility.yul\":13300:13303   */\n      dup3\n        /* \"#utility.yul\":13296:13310   */\n      add\n        /* \"#utility.yul\":13281:13310   */\n      swap1\n      pop\n        /* \"#utility.yul\":13147:13316   */\n      swap3\n      swap2\n      pop\n      pop\n      jump\t// out\n        /* \"#utility.yul\":13346:13663   */\n    tag_95:\n        /* \"#utility.yul\":13444:13447   */\n      0x00\n        /* \"#utility.yul\":13465:13536   */\n      tag_256\n        /* \"#utility.yul\":13529:13535   */\n      dup4\n        /* \"#utility.yul\":13524:13527   */\n      dup6\n        /* \"#utility.yul\":13465:13536   */\n      tag_94\n      jump\t// in\n    tag_256:\n        /* \"#utility.yul\":13458:13536   */\n      swap4\n      pop\n        /* \"#utility.yul\":13546:13602   */\n      tag_257\n        /* \"#utility.yul\":13595:13601   */\n      dup4\n        /* \"#utility.yul\":13590:13593   */\n      dup6\n        /* \"#utility.yul\":13583:13588   */\n      dup5\n        /* \"#utility.yul\":13546:13602   */\n      tag_56\n      jump\t// in\n    tag_257:\n        /* \"#utility.yul\":13627:13656   */\n      tag_258\n        /* \"#utility.yul\":13649:13655   */\n      dup4\n        /* \"#utility.yul\":13627:13656   */\n      tag_51\n      jump\t// in\n    tag_258:\n        /* \"#utility.yul\":13622:13625   */\n      dup5\n        /* \"#utility.yul\":13618:13657   */\n      add\n        /* \"#utility.yul\":13611:13657   */\n      swap1\n      pop\n        /* \"#utility.yul\":13346:13663   */\n      swap4\n      swap3\n      pop\n      pop\n      pop\n      jump\t// out\n        /* \"#utility.yul\":13669:13849   */\n    tag_96:\n        /* \"#utility.yul\":13717:13794   */\n      0x4e487b7100000000000000000000000000000000000000000000000000000000\n        /* \"#utility.yul\":13714:13715   */\n      0x00\n        /* \"#utility.yul\":13707:13795   */\n      mstore\n        /* \"#utility.yul\":13814:13818   */\n      0x21\n        /* \"#utility.yul\":13811:13812   */\n      0x04\n        /* \"#utility.yul\":13804:13819   */\n      mstore\n        /* \"#utility.yul\":13838:13842   */\n      0x24\n        /* \"#utility.yul\":13835:13836   */\n      0x00\n        /* \"#utility.yul\":13828:13843   */\n      revert\n        /* \"#utility.yul\":13855:13992   */\n    tag_97:\n        /* \"#utility.yul\":13960:13961   */\n      0x04\n        /* \"#utility.yul\":13953:13958   */\n      dup2\n        /* \"#utility.yul\":13950:13962   */\n      lt\n        /* \"#utility.yul\":13940:13986   */\n      tag_261\n      jumpi\n        /* \"#utility.yul\":13966:13984   */\n      tag_262\n      tag_96\n      jump\t// in\n    tag_262:\n        /* \"#utility.yul\":13940:13986   */\n    tag_261:\n        /* \"#utility.yul\":13855:13992   */\n      pop\n      jump\t// out\n        /* \"#utility.yul\":13998:14173   */\n    tag_98:\n        /* \"#utility.yul\":14067:14074   */\n      0x00\n        /* \"#utility.yul\":14096:14101   */\n      dup2\n        /* \"#utility.yul\":14085:14101   */\n      swap1\n      pop\n        /* \"#utility.yul\":14102:14167   */\n      tag_264\n        /* \"#utility.yul\":14161:14166   */\n      dup3\n        /* \"#utility.yul\":14102:14167   */\n      tag_97\n      jump\t// in\n    tag_264:\n        /* \"#utility.yul\":13998:14173   */\n      swap2\n      swap1\n      pop\n      jump\t// out\n        /* \"#utility.yul\":14179:14354   */\n    tag_99:\n        /* \"#utility.yul\":14259:14268   */\n      0x00\n        /* \"#utility.yul\":14292:14348   */\n      tag_266\n        /* \"#utility.yul\":14342:14347   */\n      dup3\n        /* \"#utility.yul\":14292:14348   */\n      tag_98\n      jump\t// in\n    tag_266:\n        /* \"#utility.yul\":14279:14348   */\n      swap1\n      pop\n        /* \"#utility.yul\":14179:14354   */\n      swap2\n      swap1\n      pop\n      jump\t// out\n        /* \"#utility.yul\":14360:14551   */\n    tag_100:\n        /* \"#utility.yul\":14477:14544   */\n      tag_268\n        /* \"#utility.yul\":14538:14543   */\n      dup2\n        /* \"#utility.yul\":14477:14544   */\n      tag_99\n      jump\t// in\n    tag_268:\n        /* \"#utility.yul\":14472:14475   */\n      dup3\n        /* \"#utility.yul\":14465:14545   */\n      mstore\n        /* \"#utility.yul\":14360:14551   */\n      pop\n      pop\n      jump\t// out\n        /* \"#utility.yul\":14557:15170   */\n    tag_41:\n        /* \"#utility.yul\":14766:14770   */\n      0x00\n        /* \"#utility.yul\":14804:14806   */\n      0x60\n        /* \"#utility.yul\":14793:14802   */\n      dup3\n        /* \"#utility.yul\":14789:14807   */\n      add\n        /* \"#utility.yul\":14781:14807   */\n      swap1\n      pop\n        /* \"#utility.yul\":14853:14862   */\n      dup2\n        /* \"#utility.yul\":14847:14851   */\n      dup2\n        /* \"#utility.yul\":14843:14863   */\n      sub\n        /* \"#utility.yul\":14839:14840   */\n      0x00\n        /* \"#utility.yul\":14828:14837   */\n      dup4\n        /* \"#utility.yul\":14824:14841   */\n      add\n        /* \"#utility.yul\":14817:14864   */\n      mstore\n        /* \"#utility.yul\":14881:14969   */\n      tag_270\n        /* \"#utility.yul\":14964:14968   */\n      dup2\n        /* \"#utility.yul\":14955:14961   */\n      dup7\n        /* \"#utility.yul\":14947:14953   */\n      dup9\n        /* \"#utility.yul\":14881:14969   */\n      tag_95\n      jump\t// in\n    tag_270:\n        /* \"#utility.yul\":14873:14969   */\n      swap1\n      pop\n        /* \"#utility.yul\":14979:15051   */\n      tag_271\n        /* \"#utility.yul\":15047:15049   */\n      0x20\n        /* \"#utility.yul\":15036:15045   */\n      dup4\n        /* \"#utility.yul\":15032:15050   */\n      add\n        /* \"#utility.yul\":15023:15029   */\n      dup6\n        /* \"#utility.yul\":14979:15051   */\n      tag_61\n      jump\t// in\n    tag_271:\n        /* \"#utility.yul\":15061:15163   */\n      tag_272\n        /* \"#utility.yul\":15159:15161   */\n      0x40\n        /* \"#utility.yul\":15148:15157   */\n      dup4\n        /* \"#utility.yul\":15144:15162   */\n      add\n        /* \"#utility.yul\":15135:15141   */\n      dup5\n        /* \"#utility.yul\":15061:15163   */\n      tag_100\n      jump\t// in\n    tag_272:\n        /* \"#utility.yul\":14557:15170   */\n      swap6\n      swap5\n      pop\n      pop\n      pop\n      pop\n      pop\n      jump\t// out\n\n    auxdata: 0xa264697066735822122061f847a6f3b91d2ae9d91ba401ea9f5c2f3687fb4d0d376ed9144fc1c0ff744164736f6c634300081a0033\n}\n",
				"bytecode": {
					"linkReferences": {},
					"object": "6080604052348015600e575f80fd5b503360035f6101000a81548173ffffffffffffffffffffffffffffffffffffffff021916908373ffffffffffffffffffffffffffffffffffffffff160217905550610c278061005c5f395ff3fe608060405234801561000f575f80fd5b5060043610610055575f3560e01c806321851b7a146100595780635aeada2b146100895780638da5cb5b146100a557806390cdef99146100c3578063b648b2f7146100f3575b5f80fd5b610073600480360381019061006e919061056b565b61010f565b60405161008091906105f1565b60405180910390f35b6100a3600480360381019061009e9190610691565b610156565b005b6100ad610302565b6040516100ba91906105f1565b60405180910390f35b6100dd60048036038101906100d8919061056b565b610327565b6040516100ea9190610708565b60405180910390f35b61010d6004803603810190610108919061074b565b61035c565b005b5f818051602081018201805184825260208301602085012081835280955050505050505f915054906101000a900473ffffffffffffffffffffffffffffffffffffffff1681565b600183836040516101689291906107d6565b90815260200160405180910390205f9054906101000a900460ff166101b9576040517fa3b4904400000000000000000000000000000000000000000000000000000000815260040160405180910390fd5b805f84846040516101cb9291906107d6565b90815260200160405180910390205f6101000a81548173ffffffffffffffffffffffffffffffffffffffff021916908373ffffffffffffffffffffffffffffffffffffffff1602179055505f838360405160200161022a9291906107d6565b604051602081830303815290604052805190602001209050426040516020016102539190610817565b60405160208183030381529060405260025f8381526020019081526020015f205f8473ffffffffffffffffffffffffffffffffffffffff165f1b81526020019081526020015f2090816102a69190610a35565b503373ffffffffffffffffffffffffffffffffffffffff167fd477ea6b1e623bd0fb7ee4281a3d6c60aadc66677a07c44145e0d8e40fa97a1585858560016040516102f49493929190610bb3565b60405180910390a250505050565b60035f9054906101000a900473ffffffffffffffffffffffffffffffffffffffff1681565b6001818051602081018201805184825260208301602085012081835280955050505050505f915054906101000a900460ff1681565b60035f9054906101000a900473ffffffffffffffffffffffffffffffffffffffff1673ffffffffffffffffffffffffffffffffffffffff163373ffffffffffffffffffffffffffffffffffffffff16146103e2576040517fa3b4904400000000000000000000000000000000000000000000000000000000815260040160405180910390fd5b80600184846040516103f59291906107d6565b90815260200160405180910390205f6101000a81548160ff021916908315150217905550505050565b5f604051905090565b5f80fd5b5f80fd5b5f80fd5b5f80fd5b5f601f19601f8301169050919050565b7f4e487b71000000000000000000000000000000000000000000000000000000005f52604160045260245ffd5b61047d82610437565b810181811067ffffffffffffffff8211171561049c5761049b610447565b5b80604052505050565b5f6104ae61041e565b90506104ba8282610474565b919050565b5f67ffffffffffffffff8211156104d9576104d8610447565b5b6104e282610437565b9050602081019050919050565b828183375f83830152505050565b5f61050f61050a846104bf565b6104a5565b90508281526020810184848401111561052b5761052a610433565b5b6105368482856104ef565b509392505050565b5f82601f8301126105525761055161042f565b5b81356105628482602086016104fd565b91505092915050565b5f602082840312156105805761057f610427565b5b5f82013567ffffffffffffffff81111561059d5761059c61042b565b5b6105a98482850161053e565b91505092915050565b5f73ffffffffffffffffffffffffffffffffffffffff82169050919050565b5f6105db826105b2565b9050919050565b6105eb816105d1565b82525050565b5f6020820190506106045f8301846105e2565b92915050565b5f80fd5b5f80fd5b5f8083601f8401126106275761062661042f565b5b8235905067ffffffffffffffff8111156106445761064361060a565b5b6020830191508360018202830111156106605761065f61060e565b5b9250929050565b610670816105d1565b811461067a575f80fd5b50565b5f8135905061068b81610667565b92915050565b5f805f604084860312156106a8576106a7610427565b5b5f84013567ffffffffffffffff8111156106c5576106c461042b565b5b6106d186828701610612565b935093505060206106e48682870161067d565b9150509250925092565b5f8115159050919050565b610702816106ee565b82525050565b5f60208201905061071b5f8301846106f9565b92915050565b61072a816106ee565b8114610734575f80fd5b50565b5f8135905061074581610721565b92915050565b5f805f6040848603121561076257610761610427565b5b5f84013567ffffffffffffffff81111561077f5761077e61042b565b5b61078b86828701610612565b9350935050602061079e86828701610737565b9150509250925092565b5f81905092915050565b5f6107bd83856107a8565b93506107ca8385846104ef565b82840190509392505050565b5f6107e28284866107b2565b91508190509392505050565b5f819050919050565b5f819050919050565b61081161080c826107ee565b6107f7565b82525050565b5f6108228284610800565b60208201915081905092915050565b5f81519050919050565b7f4e487b71000000000000000000000000000000000000000000000000000000005f52602260045260245ffd5b5f600282049050600182168061087f57607f821691505b6020821081036108925761089161083b565b5b50919050565b5f819050815f5260205f209050919050565b5f6020601f8301049050919050565b5f82821b905092915050565b5f600883026108f47fffffffffffffffffffffffffffffffffffffffffffffffffffffffffffffffff826108b9565b6108fe86836108b9565b95508019841693508086168417925050509392505050565b5f819050919050565b5f61093961093461092f846107ee565b610916565b6107ee565b9050919050565b5f819050919050565b6109528361091f565b61096661095e82610940565b8484546108c5565b825550505050565b5f90565b61097a61096e565b610985818484610949565b505050565b5b818110156109a85761099d5f82610972565b60018101905061098b565b5050565b601f8211156109ed576109be81610898565b6109c7846108aa565b810160208510156109d6578190505b6109ea6109e2856108aa565b83018261098a565b50505b505050565b5f82821c905092915050565b5f610a0d5f19846008026109f2565b1980831691505092915050565b5f610a2583836109fe565b9150826002028217905092915050565b610a3e82610831565b67ffffffffffffffff811115610a5757610a56610447565b5b610a618254610868565b610a6c8282856109ac565b5f60209050601f831160018114610a9d575f8415610a8b578287015190505b610a958582610a1a565b865550610afc565b601f198416610aab86610898565b5f5b82811015610ad257848901518255600182019150602085019450602081019050610aad565b86831015610aef5784890151610aeb601f8916826109fe565b8355505b6001600288020188555050505b505050505050565b5f82825260208201905092915050565b5f610b1f8385610b04565b9350610b2c8385846104ef565b610b3583610437565b840190509392505050565b7f4e487b71000000000000000000000000000000000000000000000000000000005f52602160045260245ffd5b60048110610b7e57610b7d610b40565b5b50565b5f819050610b8e82610b6d565b919050565b5f610b9d82610b81565b9050919050565b610bad81610b93565b82525050565b5f6060820190508181035f830152610bcc818688610b14565b9050610bdb60208301856105e2565b610be86040830184610ba4565b9594505050505056fea264697066735822122061f847a6f3b91d2ae9d91ba401ea9f5c2f3687fb4d0d376ed9144fc1c0ff744164736f6c634300081a0033",
					"opcodes": "PUSH1 0x80 PUSH1 0x40 MSTORE CALLVALUE DUP1 ISZERO PUSH1 0xE JUMPI PUSH0 DUP1 REVERT JUMPDEST POP CALLER PUSH1 0x3 PUSH0 PUSH2 0x100 EXP DUP2 SLOAD DUP2 PUSH20 0xFFFFFFFFFFFFFFFFFFFFFFFFFFFFFFFFFFFFFFFF MUL NOT AND SWAP1 DUP4 PUSH20 0xFFFFFFFFFFFFFFFFFFFFFFFFFFFFFFFFFFFFFFFF AND MUL OR SWAP1 SSTORE POP PUSH2 0xC27 DUP1 PUSH2 0x5C PUSH0 CODECOPY PUSH0 RETURN INVALID PUSH1 0x80 PUSH1 0x40 MSTORE CALLVALUE DUP1 ISZERO PUSH2 0xF JUMPI PUSH0 DUP1 REVERT JUMPDEST POP PUSH1 0x4 CALLDATASIZE LT PUSH2 0x55 JUMPI PUSH0 CALLDATALOAD PUSH1 0xE0 SHR DUP1 PUSH4 0x21851B7A EQ PUSH2 0x59 JUMPI DUP1 PUSH4 0x5AEADA2B EQ PUSH2 0x89 JUMPI DUP1 PUSH4 0x8DA5CB5B EQ PUSH2 0xA5 JUMPI DUP1 PUSH4 0x90CDEF99 EQ PUSH2 0xC3 JUMPI DUP1 PUSH4 0xB648B2F7 EQ PUSH2 0xF3 JUMPI JUMPDEST PUSH0 DUP1 REVERT JUMPDEST PUSH2 0x73 PUSH1 0x4 DUP1 CALLDATASIZE SUB DUP2 ADD SWAP1 PUSH2 0x6E SWAP2 SWAP1 PUSH2 0x56B JUMP JUMPDEST PUSH2 0x10F JUMP JUMPDEST PUSH1 0x40 MLOAD PUSH2 0x80 SWAP2 SWAP1 PUSH2 0x5F1 JUMP JUMPDEST PUSH1 0x40 MLOAD DUP1 SWAP2 SUB SWAP1 RETURN JUMPDEST PUSH2 0xA3 PUSH1 0x4 DUP1 CALLDATASIZE SUB DUP2 ADD SWAP1 PUSH2 0x9E SWAP2 SWAP1 PUSH2 0x691 JUMP JUMPDEST PUSH2 0x156 JUMP JUMPDEST STOP JUMPDEST PUSH2 0xAD PUSH2 0x302 JUMP JUMPDEST PUSH1 0x40 MLOAD PUSH2 0xBA SWAP2 SWAP1 PUSH2 0x5F1 JUMP JUMPDEST PUSH1 0x40 MLOAD DUP1 SWAP2 SUB SWAP1 RETURN JUMPDEST PUSH2 0xDD PUSH1 0x4 DUP1 CALLDATASIZE SUB DUP2 ADD SWAP1 PUSH2 0xD8 SWAP2 SWAP1 PUSH2 0x56B JUMP JUMPDEST PUSH2 0x327 JUMP JUMPDEST PUSH1 0x40 MLOAD PUSH2 0xEA SWAP2 SWAP1 PUSH2 0x708 JUMP JUMPDEST PUSH1 0x40 MLOAD DUP1 SWAP2 SUB SWAP1 RETURN JUMPDEST PUSH2 0x10D PUSH1 0x4 DUP1 CALLDATASIZE SUB DUP2 ADD SWAP1 PUSH2 0x108 SWAP2 SWAP1 PUSH2 0x74B JUMP JUMPDEST PUSH2 0x35C JUMP JUMPDEST STOP JUMPDEST PUSH0 DUP2 DUP1 MLOAD PUSH1 0x20 DUP2 ADD DUP3 ADD DUP1 MLOAD DUP5 DUP3 MSTORE PUSH1 0x20 DUP4 ADD PUSH1 0x20 DUP6 ADD KECCAK256 DUP2 DUP4 MSTORE DUP1 SWAP6 POP POP POP POP POP POP PUSH0 SWAP2 POP SLOAD SWAP1 PUSH2 0x100 EXP SWAP1 DIV PUSH20 0xFFFFFFFFFFFFFFFFFFFFFFFFFFFFFFFFFFFFFFFF AND DUP2 JUMP JUMPDEST PUSH1 0x1 DUP4 DUP4 PUSH1 0x40 MLOAD PUSH2 0x168 SWAP3 SWAP2 SWAP1 PUSH2 0x7D6 JUMP JUMPDEST SWAP1 DUP2 MSTORE PUSH1 0x20 ADD PUSH1 0x40 MLOAD DUP1 SWAP2 SUB SWAP1 KECCAK256 PUSH0 SWAP1 SLOAD SWAP1 PUSH2 0x100 EXP SWAP1 DIV PUSH1 0xFF AND PUSH2 0x1B9 JUMPI PUSH1 0x40 MLOAD PUSH32 0xA3B4904400000000000000000000000000000000000000000000000000000000 DUP2 MSTORE PUSH1 0x4 ADD PUSH1 0x40 MLOAD DUP1 SWAP2 SUB SWAP1 REVERT JUMPDEST DUP1 PUSH0 DUP5 DUP5 PUSH1 0x40 MLOAD PUSH2 0x1CB SWAP3 SWAP2 SWAP1 PUSH2 0x7D6 JUMP JUMPDEST SWAP1 DUP2 MSTORE PUSH1 0x20 ADD PUSH1 0x40 MLOAD DUP1 SWAP2 SUB SWAP1 KECCAK256 PUSH0 PUSH2 0x100 EXP DUP2 SLOAD DUP2 PUSH20 0xFFFFFFFFFFFFFFFFFFFFFFFFFFFFFFFFFFFFFFFF MUL NOT AND SWAP1 DUP4 PUSH20 0xFFFFFFFFFFFFFFFFFFFFFFFFFFFFFFFFFFFFFFFF AND MUL OR SWAP1 SSTORE POP PUSH0 DUP4 DUP4 PUSH1 0x40 MLOAD PUSH1 0x20 ADD PUSH2 0x22A SWAP3 SWAP2 SWAP1 PUSH2 0x7D6 JUMP JUMPDEST PUSH1 0x40 MLOAD PUSH1 0x20 DUP2 DUP4 SUB SUB DUP2 MSTORE SWAP1 PUSH1 0x40 MSTORE DUP1 MLOAD SWAP1 PUSH1 0x20 ADD KECCAK256 SWAP1 POP TIMESTAMP PUSH1 0x40 MLOAD PUSH1 0x20 ADD PUSH2 0x253 SWAP2 SWAP1 PUSH2 0x817 JUMP JUMPDEST PUSH1 0x40 MLOAD PUSH1 0x20 DUP2 DUP4 SUB SUB DUP2 MSTORE SWAP1 PUSH1 0x40 MSTORE PUSH1 0x2 PUSH0 DUP4 DUP2 MSTORE PUSH1 0x20 ADD SWAP1 DUP2 MSTORE PUSH1 0x20 ADD PUSH0 KECCAK256 PUSH0 DUP5 PUSH20 0xFFFFFFFFFFFFFFFFFFFFFFFFFFFFFFFFFFFFFFFF AND PUSH0 SHL DUP2 MSTORE PUSH1 0x20 ADD SWAP1 DUP2 MSTORE PUSH1 0x20 ADD PUSH0 KECCAK256 SWAP1 DUP2 PUSH2 0x2A6 SWAP2 SWAP1 PUSH2 0xA35 JUMP JUMPDEST POP CALLER PUSH20 0xFFFFFFFFFFFFFFFFFFFFFFFFFFFFFFFFFFFFFFFF AND PUSH32 0xD477EA6B1E623BD0FB7EE4281A3D6C60AADC66677A07C44145E0D8E40FA97A15 DUP6 DUP6 DUP6 PUSH1 0x1 PUSH1 0x40 MLOAD PUSH2 0x2F4 SWAP5 SWAP4 SWAP3 SWAP2 SWAP1 PUSH2 0xBB3 JUMP JUMPDEST PUSH1 0x40 MLOAD DUP1 SWAP2 SUB SWAP1 LOG2 POP POP POP POP JUMP JUMPDEST PUSH1 0x3 PUSH0 SWAP1 SLOAD SWAP1 PUSH2 0x100 EXP SWAP1 DIV PUSH20 0xFFFFFFFFFFFFFFFFFFFFFFFFFFFFFFFFFFFFFFFF AND DUP2 JUMP JUMPDEST PUSH1 0x1 DUP2 DUP1 MLOAD PUSH1 0x20 DUP2 ADD DUP3 ADD DUP1 MLOAD DUP5 DUP3 MSTORE PUSH1 0x20 DUP4 ADD PUSH1 0x20 DUP6 ADD KECCAK256 DUP2 DUP4 MSTORE DUP1 SWAP6 POP POP POP POP POP POP PUSH0 SWAP2 POP SLOAD SWAP1 PUSH2 0x100 EXP SWAP1 DIV PUSH1 0xFF AND DUP2 JUMP JUMPDEST PUSH1 0x3 PUSH0 SWAP1 SLOAD SWAP1 PUSH2 0x100 EXP SWAP1 DIV PUSH20 0xFFFFFFFFFFFFFFFFFFFFFFFFFFFFFFFFFFFFFFFF AND PUSH20 0xFFFFFFFFFFFFFFFFFFFFFFFFFFFFFFFFFFFFFFFF AND CALLER PUSH20 0xFFFFFFFFFFFFFFFFFFFFFFFFFFFFFFFFFFFFFFFF AND EQ PUSH2 0x3E2 JUMPI PUSH1 0x40 MLOAD PUSH32 0xA3B4904400000000000000000000000000000000000000000000000000000000 DUP2 MSTORE PUSH1 0x4 ADD PUSH1 0x40 MLOAD DUP1 SWAP2 SUB SWAP1 REVERT JUMPDEST DUP1 PUSH1 0x1 DUP5 DUP5 PUSH1 0x40 MLOAD PUSH2 0x3F5 SWAP3 SWAP2 SWAP1 PUSH2 0x7D6 JUMP JUMPDEST SWAP1 DUP2 MSTORE PUSH1 0x20 ADD PUSH1 0x40 MLOAD DUP1 SWAP2 SUB SWAP1 KECCAK256 PUSH0 PUSH2 0x100 EXP DUP2 SLOAD DUP2 PUSH1 0xFF MUL NOT AND SWAP1 DUP4 ISZERO ISZERO MUL OR SWAP1 SSTORE POP POP POP POP JUMP JUMPDEST PUSH0 PUSH1 0x40 MLOAD SWAP1 POP SWAP1 JUMP JUMPDEST PUSH0 DUP1 REVERT JUMPDEST PUSH0 DUP1 REVERT JUMPDEST PUSH0 DUP1 REVERT JUMPDEST PUSH0 DUP1 REVERT JUMPDEST PUSH0 PUSH1 0x1F NOT PUSH1 0x1F DUP4 ADD AND SWAP1 POP SWAP2 SWAP1 POP JUMP JUMPDEST PUSH32 0x4E487B7100000000000000000000000000000000000000000000000000000000 PUSH0 MSTORE PUSH1 0x41 PUSH1 0x4 MSTORE PUSH1 0x24 PUSH0 REVERT JUMPDEST PUSH2 0x47D DUP3 PUSH2 0x437 JUMP JUMPDEST DUP2 ADD DUP2 DUP2 LT PUSH8 0xFFFFFFFFFFFFFFFF DUP3 GT OR ISZERO PUSH2 0x49C JUMPI PUSH2 0x49B PUSH2 0x447 JUMP JUMPDEST JUMPDEST DUP1 PUSH1 0x40 MSTORE POP POP POP JUMP JUMPDEST PUSH0 PUSH2 0x4AE PUSH2 0x41E JUMP JUMPDEST SWAP1 POP PUSH2 0x4BA DUP3 DUP3 PUSH2 0x474 JUMP JUMPDEST SWAP2 SWAP1 POP JUMP JUMPDEST PUSH0 PUSH8 0xFFFFFFFFFFFFFFFF DUP3 GT ISZERO PUSH2 0x4D9 JUMPI PUSH2 0x4D8 PUSH2 0x447 JUMP JUMPDEST JUMPDEST PUSH2 0x4E2 DUP3 PUSH2 0x437 JUMP JUMPDEST SWAP1 POP PUSH1 0x20 DUP2 ADD SWAP1 POP SWAP2 SWAP1 POP JUMP JUMPDEST DUP3 DUP2 DUP4 CALLDATACOPY PUSH0 DUP4 DUP4 ADD MSTORE POP POP POP JUMP JUMPDEST PUSH0 PUSH2 0x50F PUSH2 0x50A DUP5 PUSH2 0x4BF JUMP JUMPDEST PUSH2 0x4A5 JUMP JUMPDEST SWAP1 POP DUP3 DUP2 MSTORE PUSH1 0x20 DUP2 ADD DUP5 DUP5 DUP5 ADD GT ISZERO PUSH2 0x52B JUMPI PUSH2 0x52A PUSH2 0x433 JUMP JUMPDEST JUMPDEST PUSH2 0x536 DUP5 DUP3 DUP6 PUSH2 0x4EF JUMP JUMPDEST POP SWAP4 SWAP3 POP POP POP JUMP JUMPDEST PUSH0 DUP3 PUSH1 0x1F DUP4 ADD SLT PUSH2 0x552 JUMPI PUSH2 0x551 PUSH2 0x42F JUMP JUMPDEST JUMPDEST DUP2 CALLDATALOAD PUSH2 0x562 DUP5 DUP3 PUSH1 0x20 DUP7 ADD PUSH2 0x4FD JUMP JUMPDEST SWAP2 POP POP SWAP3 SWAP2 POP POP JUMP JUMPDEST PUSH0 PUSH1 0x20 DUP3 DUP5 SUB SLT ISZERO PUSH2 0x580 JUMPI PUSH2 0x57F PUSH2 0x427 JUMP JUMPDEST JUMPDEST PUSH0 DUP3 ADD CALLDATALOAD PUSH8 0xFFFFFFFFFFFFFFFF DUP2 GT ISZERO PUSH2 0x59D JUMPI PUSH2 0x59C PUSH2 0x42B JUMP JUMPDEST JUMPDEST PUSH2 0x5A9 DUP5 DUP3 DUP6 ADD PUSH2 0x53E JUMP JUMPDEST SWAP2 POP POP SWAP3 SWAP2 POP POP JUMP JUMPDEST PUSH0 PUSH20 0xFFFFFFFFFFFFFFFFFFFFFFFFFFFFFFFFFFFFFFFF DUP3 AND SWAP1 POP SWAP2 SWAP1 POP JUMP JUMPDEST PUSH0 PUSH2 0x5DB DUP3 PUSH2 0x5B2 JUMP JUMPDEST SWAP1 POP SWAP2 SWAP1 POP JUMP JUMPDEST PUSH2 0x5EB DUP2 PUSH2 0x5D1 JUMP JUMPDEST DUP3 MSTORE POP POP JUMP JUMPDEST PUSH0 PUSH1 0x20 DUP3 ADD SWAP1 POP PUSH2 0x604 PUSH0 DUP4 ADD DUP5 PUSH2 0x5E2 JUMP JUMPDEST SWAP3 SWAP2 POP POP JUMP JUMPDEST PUSH0 DUP1 REVERT JUMPDEST PUSH0 DUP1 REVERT JUMPDEST PUSH0 DUP1 DUP4 PUSH1 0x1F DUP5 ADD SLT PUSH2 0x627 JUMPI PUSH2 0x626 PUSH2 0x42F JUMP JUMPDEST JUMPDEST DUP3 CALLDATALOAD SWAP1 POP PUSH8 0xFFFFFFFFFFFFFFFF DUP2 GT ISZERO PUSH2 0x644 JUMPI PUSH2 0x643 PUSH2 0x60A JUMP JUMPDEST JUMPDEST PUSH1 0x20 DUP4 ADD SWAP2 POP DUP4 PUSH1 0x1 DUP3 MUL DUP4 ADD GT ISZERO PUSH2 0x660 JUMPI PUSH2 0x65F PUSH2 0x60E JUMP JUMPDEST JUMPDEST SWAP3 POP SWAP3 SWAP1 POP JUMP JUMPDEST PUSH2 0x670 DUP2 PUSH2 0x5D1 JUMP JUMPDEST DUP2 EQ PUSH2 0x67A JUMPI PUSH0 DUP1 REVERT JUMPDEST POP JUMP JUMPDEST PUSH0 DUP2 CALLDATALOAD SWAP1 POP PUSH2 0x68B DUP2 PUSH2 0x667 JUMP JUMPDEST SWAP3 SWAP2 POP POP JUMP JUMPDEST PUSH0 DUP1 PUSH0 PUSH1 0x40 DUP5 DUP7 SUB SLT ISZERO PUSH2 0x6A8 JUMPI PUSH2 0x6A7 PUSH2 0x427 JUMP JUMPDEST JUMPDEST PUSH0 DUP5 ADD CALLDATALOAD PUSH8 0xFFFFFFFFFFFFFFFF DUP2 GT ISZERO PUSH2 0x6C5 JUMPI PUSH2 0x6C4 PUSH2 0x42B JUMP JUMPDEST JUMPDEST PUSH2 0x6D1 DUP7 DUP3 DUP8 ADD PUSH2 0x612 JUMP JUMPDEST SWAP4 POP SWAP4 POP POP PUSH1 0x20 PUSH2 0x6E4 DUP7 DUP3 DUP8 ADD PUSH2 0x67D JUMP JUMPDEST SWAP2 POP POP SWAP3 POP SWAP3 POP SWAP3 JUMP JUMPDEST PUSH0 DUP2 ISZERO ISZERO SWAP1 POP SWAP2 SWAP1 POP JUMP JUMPDEST PUSH2 0x702 DUP2 PUSH2 0x6EE JUMP JUMPDEST DUP3 MSTORE POP POP JUMP JUMPDEST PUSH0 PUSH1 0x20 DUP3 ADD SWAP1 POP PUSH2 0x71B PUSH0 DUP4 ADD DUP5 PUSH2 0x6F9 JUMP JUMPDEST SWAP3 SWAP2 POP POP JUMP JUMPDEST PUSH2 0x72A DUP2 PUSH2 0x6EE JUMP JUMPDEST DUP2 EQ PUSH2 0x734 JUMPI PUSH0 DUP1 REVERT JUMPDEST POP JUMP JUMPDEST PUSH0 DUP2 CALLDATALOAD SWAP1 POP PUSH2 0x745 DUP2 PUSH2 0x721 JUMP JUMPDEST SWAP3 SWAP2 POP POP JUMP JUMPDEST PUSH0 DUP1 PUSH0 PUSH1 0x40 DUP5 DUP7 SUB SLT ISZERO PUSH2 0x762 JUMPI PUSH2 0x761 PUSH2 0x427 JUMP JUMPDEST JUMPDEST PUSH0 DUP5 ADD CALLDATALOAD PUSH8 0xFFFFFFFFFFFFFFFF DUP2 GT ISZERO PUSH2 0x77F JUMPI PUSH2 0x77E PUSH2 0x42B JUMP JUMPDEST JUMPDEST PUSH2 0x78B DUP7 DUP3 DUP8 ADD PUSH2 0x612 JUMP JUMPDEST SWAP4 POP SWAP4 POP POP PUSH1 0x20 PUSH2 0x79E DUP7 DUP3 DUP8 ADD PUSH2 0x737 JUMP JUMPDEST SWAP2 POP POP SWAP3 POP SWAP3 POP SWAP3 JUMP JUMPDEST PUSH0 DUP2 SWAP1 POP SWAP3 SWAP2 POP POP JUMP JUMPDEST PUSH0 PUSH2 0x7BD DUP4 DUP6 PUSH2 0x7A8 JUMP JUMPDEST SWAP4 POP PUSH2 0x7CA DUP4 DUP6 DUP5 PUSH2 0x4EF JUMP JUMPDEST DUP3 DUP5 ADD SWAP1 POP SWAP4 SWAP3 POP POP POP JUMP JUMPDEST PUSH0 PUSH2 0x7E2 DUP3 DUP5 DUP7 PUSH2 0x7B2 JUMP JUMPDEST SWAP2 POP DUP2 SWAP1 POP SWAP4 SWAP3 POP POP POP JUMP JUMPDEST PUSH0 DUP2 SWAP1 POP SWAP2 SWAP1 POP JUMP JUMPDEST PUSH0 DUP2 SWAP1 POP SWAP2 SWAP1 POP JUMP JUMPDEST PUSH2 0x811 PUSH2 0x80C DUP3 PUSH2 0x7EE JUMP JUMPDEST PUSH2 0x7F7 JUMP JUMPDEST DUP3 MSTORE POP POP JUMP JUMPDEST PUSH0 PUSH2 0x822 DUP3 DUP5 PUSH2 0x800 JUMP JUMPDEST PUSH1 0x20 DUP3 ADD SWAP2 POP DUP2 SWAP1 POP SWAP3 SWAP2 POP POP JUMP JUMPDEST PUSH0 DUP2 MLOAD SWAP1 POP SWAP2 SWAP1 POP JUMP JUMPDEST PUSH32 0x4E487B7100000000000000000000000000000000000000000000000000000000 PUSH0 MSTORE PUSH1 0x22 PUSH1 0x4 MSTORE PUSH1 0x24 PUSH0 REVERT JUMPDEST PUSH0 PUSH1 0x2 DUP3 DIV SWAP1 POP PUSH1 0x1 DUP3 AND DUP1 PUSH2 0x87F JUMPI PUSH1 0x7F DUP3 AND SWAP2 POP JUMPDEST PUSH1 0x20 DUP3 LT DUP2 SUB PUSH2 0x892 JUMPI PUSH2 0x891 PUSH2 0x83B JUMP JUMPDEST JUMPDEST POP SWAP2 SWAP1 POP JUMP JUMPDEST PUSH0 DUP2 SWAP1 POP DUP2 PUSH0 MSTORE PUSH1 0x20 PUSH0 KECCAK256 SWAP1 POP SWAP2 SWAP1 POP JUMP JUMPDEST PUSH0 PUSH1 0x20 PUSH1 0x1F DUP4 ADD DIV SWAP1 POP SWAP2 SWAP1 POP JUMP JUMPDEST PUSH0 DUP3 DUP3 SHL SWAP1 POP SWAP3 SWAP2 POP POP JUMP JUMPDEST PUSH0 PUSH1 0x8 DUP4 MUL PUSH2 0x8F4 PUSH32 0xFFFFFFFFFFFFFFFFFFFFFFFFFFFFFFFFFFFFFFFFFFFFFFFFFFFFFFFFFFFFFFFF DUP3 PUSH2 0x8B9 JUMP JUMPDEST PUSH2 0x8FE DUP7 DUP4 PUSH2 0x8B9 JUMP JUMPDEST SWAP6 POP DUP1 NOT DUP5 AND SWAP4 POP DUP1 DUP7 AND DUP5 OR SWAP3 POP POP POP SWAP4 SWAP3 POP POP POP JUMP JUMPDEST PUSH0 DUP2 SWAP1 POP SWAP2 SWAP1 POP JUMP JUMPDEST PUSH0 PUSH2 0x939 PUSH2 0x934 PUSH2 0x92F DUP5 PUSH2 0x7EE JUMP JUMPDEST PUSH2 0x916 JUMP JUMPDEST PUSH2 0x7EE JUMP JUMPDEST SWAP1 POP SWAP2 SWAP1 POP JUMP JUMPDEST PUSH0 DUP2 SWAP1 POP SWAP2 SWAP1 POP JUMP JUMPDEST PUSH2 0x952 DUP4 PUSH2 0x91F JUMP JUMPDEST PUSH2 0x966 PUSH2 0x95E DUP3 PUSH2 0x940 JUMP JUMPDEST DUP5 DUP5 SLOAD PUSH2 0x8C5 JUMP JUMPDEST DUP3 SSTORE POP POP POP POP JUMP JUMPDEST PUSH0 SWAP1 JUMP JUMPDEST PUSH2 0x97A PUSH2 0x96E JUMP JUMPDEST PUSH2 0x985 DUP2 DUP5 DUP5 PUSH2 0x949 JUMP JUMPDEST POP POP POP JUMP JUMPDEST JUMPDEST DUP2 DUP2 LT ISZERO PUSH2 0x9A8 JUMPI PUSH2 0x99D PUSH0 DUP3 PUSH2 0x972 JUMP JUMPDEST PUSH1 0x1 DUP2 ADD SWAP1 POP PUSH2 0x98B JUMP JUMPDEST POP POP JUMP JUMPDEST PUSH1 0x1F DUP3 GT ISZERO PUSH2 0x9ED JUMPI PUSH2 0x9BE DUP2 PUSH2 0x898 JUMP JUMPDEST PUSH2 0x9C7 DUP5 PUSH2 0x8AA JUMP JUMPDEST DUP2 ADD PUSH1 0x20 DUP6 LT ISZERO PUSH2 0x9D6 JUMPI DUP2 SWAP1 POP JUMPDEST PUSH2 0x9EA PUSH2 0x9E2 DUP6 PUSH2 0x8AA JUMP JUMPDEST DUP4 ADD DUP3 PUSH2 0x98A JUMP JUMPDEST POP POP JUMPDEST POP POP POP JUMP JUMPDEST PUSH0 DUP3 DUP3 SHR SWAP1 POP SWAP3 SWAP2 POP POP JUMP JUMPDEST PUSH0 PUSH2 0xA0D PUSH0 NOT DUP5 PUSH1 0x8 MUL PUSH2 0x9F2 JUMP JUMPDEST NOT DUP1 DUP4 AND SWAP2 POP POP SWAP3 SWAP2 POP POP JUMP JUMPDEST PUSH0 PUSH2 0xA25 DUP4 DUP4 PUSH2 0x9FE JUMP JUMPDEST SWAP2 POP DUP3 PUSH1 0x2 MUL DUP3 OR SWAP1 POP SWAP3 SWAP2 POP POP JUMP JUMPDEST PUSH2 0xA3E DUP3 PUSH2 0x831 JUMP JUMPDEST PUSH8 0xFFFFFFFFFFFFFFFF DUP2 GT ISZERO PUSH2 0xA57 JUMPI PUSH2 0xA56 PUSH2 0x447 JUMP JUMPDEST JUMPDEST PUSH2 0xA61 DUP3 SLOAD PUSH2 0x868 JUMP JUMPDEST PUSH2 0xA6C DUP3 DUP3 DUP6 PUSH2 0x9AC JUMP JUMPDEST PUSH0 PUSH1 0x20 SWAP1 POP PUSH1 0x1F DUP4 GT PUSH1 0x1 DUP2 EQ PUSH2 0xA9D JUMPI PUSH0 DUP5 ISZERO PUSH2 0xA8B JUMPI DUP3 DUP8 ADD MLOAD SWAP1 POP JUMPDEST PUSH2 0xA95 DUP6 DUP3 PUSH2 0xA1A JUMP JUMPDEST DUP7 SSTORE POP PUSH2 0xAFC JUMP JUMPDEST PUSH1 0x1F NOT DUP5 AND PUSH2 0xAAB DUP7 PUSH2 0x898 JUMP JUMPDEST PUSH0 JUMPDEST DUP3 DUP2 LT ISZERO PUSH2 0xAD2 JUMPI DUP5 DUP10 ADD MLOAD DUP3 SSTORE PUSH1 0x1 DUP3 ADD SWAP2 POP PUSH1 0x20 DUP6 ADD SWAP5 POP PUSH1 0x20 DUP2 ADD SWAP1 POP PUSH2 0xAAD JUMP JUMPDEST DUP7 DUP4 LT ISZERO PUSH2 0xAEF JUMPI DUP5 DUP10 ADD MLOAD PUSH2 0xAEB PUSH1 0x1F DUP10 AND DUP3 PUSH2 0x9FE JUMP JUMPDEST DUP4 SSTORE POP JUMPDEST PUSH1 0x1 PUSH1 0x2 DUP9 MUL ADD DUP9 SSTORE POP POP POP JUMPDEST POP POP POP POP POP POP JUMP JUMPDEST PUSH0 DUP3 DUP3 MSTORE PUSH1 0x20 DUP3 ADD SWAP1 POP SWAP3 SWAP2 POP POP JUMP JUMPDEST PUSH0 PUSH2 0xB1F DUP4 DUP6 PUSH2 0xB04 JUMP JUMPDEST SWAP4 POP PUSH2 0xB2C DUP4 DUP6 DUP5 PUSH2 0x4EF JUMP JUMPDEST PUSH2 0xB35 DUP4 PUSH2 0x437 JUMP JUMPDEST DUP5 ADD SWAP1 POP SWAP4 SWAP3 POP POP POP JUMP JUMPDEST PUSH32 0x4E487B7100000000000000000000000000000000000000000000000000000000 PUSH0 MSTORE PUSH1 0x21 PUSH1 0x4 MSTORE PUSH1 0x24 PUSH0 REVERT JUMPDEST PUSH1 0x4 DUP2 LT PUSH2 0xB7E JUMPI PUSH2 0xB7D PUSH2 0xB40 JUMP JUMPDEST JUMPDEST POP JUMP JUMPDEST PUSH0 DUP2 SWAP1 POP PUSH2 0xB8E DUP3 PUSH2 0xB6D JUMP JUMPDEST SWAP2 SWAP1 POP JUMP JUMPDEST PUSH0 PUSH2 0xB9D DUP3 PUSH2 0xB81 JUMP JUMPDEST SWAP1 POP SWAP2 SWAP1 POP JUMP JUMPDEST PUSH2 0xBAD DUP2 PUSH2 0xB93 JUMP JUMPDEST DUP3 MSTORE POP POP JUMP JUMPDEST PUSH0 PUSH1 0x60 DUP3 ADD SWAP1 POP DUP2 DUP2 SUB PUSH0 DUP4 ADD MSTORE PUSH2 0xBCC DUP2 DUP7 DUP9 PUSH2 0xB14 JUMP JUMPDEST SWAP1 POP PUSH2 0xBDB PUSH1 0x20 DUP4 ADD DUP6 PUSH2 0x5E2 JUMP JUMPDEST PUSH2 0xBE8 PUSH1 0x40 DUP4 ADD DUP5 PUSH2 0xBA4 JUMP JUMPDEST SWAP6 SWAP5 POP POP POP POP POP JUMP INVALID LOG2 PUSH5 0x6970667358 0x22 SLT KECCAK256 PUSH2 0xF847 0xA6 RETURN 0xB9 SAR 0x2A 0xE9 0xD9 SHL LOG4 ADD 0xEA SWAP16 TLOAD 0x2F CALLDATASIZE DUP8 0xFB 0x4D 0xD CALLDATACOPY PUSH15 0xD9144FC1C0FF744164736F6C634300 ADDMOD BYTE STOP CALLER "
				},
				"gasEstimates": {
					"creation": {
						"codeDepositCost": "622200",
						"executionCost": "24920",
						"totalCost": "647120"
					},
					"external": {
						"allowedPath(string)": "infinite",
						"libraries(string)": "infinite",
						"loadLibrary(string,address)": "infinite",
						"owner()": "2530",
						"setAllowedPath(string,bool)": "infinite"
					}
				},
				"methodIdentifiers": {
					"allowedPath(string)": "90cdef99",
					"libraries(string)": "21851b7a",
					"loadLibrary(string,address)": "5aeada2b",
					"owner()": "8da5cb5b",
					"setAllowedPath(string,bool)": "b648b2f7"
				}
			},
			"storageLayout": {
				"storage": [
					{
						"astId": 204,
						"contract": "D/Dynamic Link Library/Dynamic Link Library.sol:DLLSafeNamespace",
						"label": "libraries",
						"offset": 0,
						"slot": "0",
						"type": "t_mapping(t_string_memory_ptr,t_address)"
					},
					{
						"astId": 208,
						"contract": "D/Dynamic Link Library/Dynamic Link Library.sol:DLLSafeNamespace",
						"label": "allowedPath",
						"offset": 0,
						"slot": "1",
						"type": "t_mapping(t_string_memory_ptr,t_bool)"
					},
					{
						"astId": 214,
						"contract": "D/Dynamic Link Library/Dynamic Link Library.sol:DLLSafeNamespace",
						"label": "libNamespace",
						"offset": 0,
						"slot": "2",
						"type": "t_mapping(t_bytes32,t_mapping(t_bytes32,t_bytes_storage))"
					},
					{
						"astId": 216,
						"contract": "D/Dynamic Link Library/Dynamic Link Library.sol:DLLSafeNamespace",
						"label": "owner",
						"offset": 0,
						"slot": "3",
						"type": "t_address"
					}
				],
				"types": {
					"t_address": {
						"encoding": "inplace",
						"label": "address",
						"numberOfBytes": "20"
					},
					"t_bool": {
						"encoding": "inplace",
						"label": "bool",
						"numberOfBytes": "1"
					},
					"t_bytes32": {
						"encoding": "inplace",
						"label": "bytes32",
						"numberOfBytes": "32"
					},
					"t_bytes_storage": {
						"encoding": "bytes",
						"label": "bytes",
						"numberOfBytes": "32"
					},
					"t_mapping(t_bytes32,t_bytes_storage)": {
						"encoding": "mapping",
						"key": "t_bytes32",
						"label": "mapping(bytes32 => bytes)",
						"numberOfBytes": "32",
						"value": "t_bytes_storage"
					},
					"t_mapping(t_bytes32,t_mapping(t_bytes32,t_bytes_storage))": {
						"encoding": "mapping",
						"key": "t_bytes32",
						"label": "mapping(bytes32 => mapping(bytes32 => bytes))",
						"numberOfBytes": "32",
						"value": "t_mapping(t_bytes32,t_bytes_storage)"
					},
					"t_mapping(t_string_memory_ptr,t_address)": {
						"encoding": "mapping",
						"key": "t_string_memory_ptr",
						"label": "mapping(string => address)",
						"numberOfBytes": "32",
						"value": "t_address"
					},
					"t_mapping(t_string_memory_ptr,t_bool)": {
						"encoding": "mapping",
						"key": "t_string_memory_ptr",
						"label": "mapping(string => bool)",
						"numberOfBytes": "32",
						"value": "t_bool"
					},
					"t_string_memory_ptr": {
						"encoding": "bytes",
						"label": "string",
						"numberOfBytes": "32"
					}
				}
			},
			"userdoc": {
				"kind": "user",
				"methods": {},
				"version": 1
			}
		}
	}
}