{
	"D/Dynamic Link Library/Dynamic Link Library.sol": {
		"Attack_DLL": {
			"abi": [
				{
					"inputs": [
						{
							"internalType": "contract DLLVuln",
							"name": "_t",
							"type": "address"
						}
					],
					"stateMutability": "nonpayable",
					"type": "constructor"
				},
				{
					"inputs": [
						{
							"internalType": "string",
							"name": "path",
							"type": "string"
						},
						{
							"internalType": "address",
							"name": "evilLib",
							"type": "address"
						}
					],
					"name": "hijack",
					"outputs": [],
					"stateMutability": "nonpayable",
					"type": "function"
				},
				{
					"inputs": [],
					"name": "target",
					"outputs": [
						{
							"internalType": "contract DLLVuln",
							"name": "",
							"type": "address"
						}
					],
					"stateMutability": "view",
					"type": "function"
				}
			],
			"devdoc": {
				"kind": "dev",
				"methods": {},
				"version": 1
			},
			"evm": {
				"assembly": "    /* \"D/Dynamic Link Library/Dynamic Link Library.sol\":1816:2031  contract Attack_DLL {... */\n  mstore(0x40, 0x80)\n    /* \"D/Dynamic Link Library/Dynamic Link Library.sol\":1869:1909  constructor(DLLVuln _t) { target = _t; } */\n  callvalue\n  dup1\n  iszero\n  tag_1\n  jumpi\n  0x00\n  dup1\n  revert\ntag_1:\n  pop\n  mload(0x40)\n  sub(codesize, bytecodeSize)\n  dup1\n  bytecodeSize\n  dup4\n  codecopy\n  dup2\n  dup2\n  add\n  0x40\n  mstore\n  dup2\n  add\n  swap1\n  tag_2\n  swap2\n  swap1\n  tag_3\n  jump\t// in\ntag_2:\n    /* \"D/Dynamic Link Library/Dynamic Link Library.sol\":1904:1906  _t */\n  dup1\n    /* \"D/Dynamic Link Library/Dynamic Link Library.sol\":1895:1901  target */\n  0x00\n  dup1\n    /* \"D/Dynamic Link Library/Dynamic Link Library.sol\":1895:1906  target = _t */\n  0x0100\n  exp\n  dup2\n  sload\n  dup2\n  0xffffffffffffffffffffffffffffffffffffffff\n  mul\n  not\n  and\n  swap1\n  dup4\n  0xffffffffffffffffffffffffffffffffffffffff\n  and\n  mul\n  or\n  swap1\n  sstore\n  pop\n    /* \"D/Dynamic Link Library/Dynamic Link Library.sol\":1869:1909  constructor(DLLVuln _t) { target = _t; } */\n  pop\n    /* \"D/Dynamic Link Library/Dynamic Link Library.sol\":1816:2031  contract Attack_DLL {... */\n  jump(tag_6)\n    /* \"#utility.yul\":88:205   */\ntag_8:\n    /* \"#utility.yul\":197:198   */\n  0x00\n    /* \"#utility.yul\":194:195   */\n  dup1\n    /* \"#utility.yul\":187:199   */\n  revert\n    /* \"#utility.yul\":334:460   */\ntag_10:\n    /* \"#utility.yul\":371:378   */\n  0x00\n    /* \"#utility.yul\":411:453   */\n  0xffffffffffffffffffffffffffffffffffffffff\n    /* \"#utility.yul\":404:409   */\n  dup3\n    /* \"#utility.yul\":400:454   */\n  and\n    /* \"#utility.yul\":389:454   */\n  swap1\n  pop\n    /* \"#utility.yul\":334:460   */\n  swap2\n  swap1\n  pop\n  jump\t// out\n    /* \"#utility.yul\":466:562   */\ntag_11:\n    /* \"#utility.yul\":503:510   */\n  0x00\n    /* \"#utility.yul\":532:556   */\n  tag_21\n    /* \"#utility.yul\":550:555   */\n  dup3\n    /* \"#utility.yul\":532:556   */\n  tag_10\n  jump\t// in\ntag_21:\n    /* \"#utility.yul\":521:556   */\n  swap1\n  pop\n    /* \"#utility.yul\":466:562   */\n  swap2\n  swap1\n  pop\n  jump\t// out\n    /* \"#utility.yul\":568:678   */\ntag_12:\n    /* \"#utility.yul\":619:626   */\n  0x00\n    /* \"#utility.yul\":648:672   */\n  tag_23\n    /* \"#utility.yul\":666:671   */\n  dup3\n    /* \"#utility.yul\":648:672   */\n  tag_11\n  jump\t// in\ntag_23:\n    /* \"#utility.yul\":637:672   */\n  swap1\n  pop\n    /* \"#utility.yul\":568:678   */\n  swap2\n  swap1\n  pop\n  jump\t// out\n    /* \"#utility.yul\":684:834   */\ntag_13:\n    /* \"#utility.yul\":771:809   */\n  tag_25\n    /* \"#utility.yul\":803:808   */\n  dup2\n    /* \"#utility.yul\":771:809   */\n  tag_12\n  jump\t// in\ntag_25:\n    /* \"#utility.yul\":764:769   */\n  dup2\n    /* \"#utility.yul\":761:810   */\n  eq\n    /* \"#utility.yul\":751:828   */\n  tag_26\n  jumpi\n    /* \"#utility.yul\":824:825   */\n  0x00\n    /* \"#utility.yul\":821:822   */\n  dup1\n    /* \"#utility.yul\":814:826   */\n  revert\n    /* \"#utility.yul\":751:828   */\ntag_26:\n    /* \"#utility.yul\":684:834   */\n  pop\n  jump\t// out\n    /* \"#utility.yul\":840:1011   */\ntag_14:\n    /* \"#utility.yul\":911:916   */\n  0x00\n    /* \"#utility.yul\":942:948   */\n  dup2\n    /* \"#utility.yul\":936:949   */\n  mload\n    /* \"#utility.yul\":927:949   */\n  swap1\n  pop\n    /* \"#utility.yul\":958:1005   */\n  tag_28\n    /* \"#utility.yul\":999:1004   */\n  dup2\n    /* \"#utility.yul\":958:1005   */\n  tag_13\n  jump\t// in\ntag_28:\n    /* \"#utility.yul\":840:1011   */\n  swap3\n  swap2\n  pop\n  pop\n  jump\t// out\n    /* \"#utility.yul\":1017:1396   */\ntag_3:\n    /* \"#utility.yul\":1101:1107   */\n  0x00\n    /* \"#utility.yul\":1150:1152   */\n  0x20\n    /* \"#utility.yul\":1138:1147   */\n  dup3\n    /* \"#utility.yul\":1129:1136   */\n  dup5\n    /* \"#utility.yul\":1125:1148   */\n  sub\n    /* \"#utility.yul\":1121:1153   */\n  slt\n    /* \"#utility.yul\":1118:1237   */\n  iszero\n  tag_30\n  jumpi\n    /* \"#utility.yul\":1156:1235   */\n  tag_31\n  tag_8\n  jump\t// in\ntag_31:\n    /* \"#utility.yul\":1118:1237   */\ntag_30:\n    /* \"#utility.yul\":1276:1277   */\n  0x00\n    /* \"#utility.yul\":1301:1379   */\n  tag_32\n    /* \"#utility.yul\":1371:1378   */\n  dup5\n    /* \"#utility.yul\":1362:1368   */\n  dup3\n    /* \"#utility.yul\":1351:1360   */\n  dup6\n    /* \"#utility.yul\":1347:1369   */\n  add\n    /* \"#utility.yul\":1301:1379   */\n  tag_14\n  jump\t// in\ntag_32:\n    /* \"#utility.yul\":1291:1379   */\n  swap2\n  pop\n    /* \"#utility.yul\":1247:1389   */\n  pop\n    /* \"#utility.yul\":1017:1396   */\n  swap3\n  swap2\n  pop\n  pop\n  jump\t// out\n    /* \"D/Dynamic Link Library/Dynamic Link Library.sol\":1816:2031  contract Attack_DLL {... */\ntag_6:\n  dataSize(sub_0)\n  dup1\n  dataOffset(sub_0)\n  0x00\n  codecopy\n  0x00\n  return\nstop\n\nsub_0: assembly {\n        /* \"D/Dynamic Link Library/Dynamic Link Library.sol\":1816:2031  contract Attack_DLL {... */\n      mstore(0x40, 0x80)\n      callvalue\n      dup1\n      iszero\n      tag_1\n      jumpi\n      0x00\n      dup1\n      revert\n    tag_1:\n      pop\n      jumpi(tag_2, lt(calldatasize, 0x04))\n      shr(0xe0, calldataload(0x00))\n      dup1\n      0xc43bac21\n      eq\n      tag_3\n      jumpi\n      dup1\n      0xd4b83992\n      eq\n      tag_4\n      jumpi\n    tag_2:\n      0x00\n      dup1\n      revert\n        /* \"D/Dynamic Link Library/Dynamic Link Library.sol\":1915:2029  function hijack(string calldata path, address evilLib) external {... */\n    tag_3:\n      tag_5\n      0x04\n      dup1\n      calldatasize\n      sub\n      dup2\n      add\n      swap1\n      tag_6\n      swap2\n      swap1\n      tag_7\n      jump\t// in\n    tag_6:\n      tag_8\n      jump\t// in\n    tag_5:\n      stop\n        /* \"D/Dynamic Link Library/Dynamic Link Library.sol\":1842:1863  DLLVuln public target */\n    tag_4:\n      tag_9\n      tag_10\n      jump\t// in\n    tag_9:\n      mload(0x40)\n      tag_11\n      swap2\n      swap1\n      tag_12\n      jump\t// in\n    tag_11:\n      mload(0x40)\n      dup1\n      swap2\n      sub\n      swap1\n      return\n        /* \"D/Dynamic Link Library/Dynamic Link Library.sol\":1915:2029  function hijack(string calldata path, address evilLib) external {... */\n    tag_8:\n        /* \"D/Dynamic Link Library/Dynamic Link Library.sol\":1989:1995  target */\n      0x00\n      dup1\n      sload\n      swap1\n      0x0100\n      exp\n      swap1\n      div\n      0xffffffffffffffffffffffffffffffffffffffff\n      and\n        /* \"D/Dynamic Link Library/Dynamic Link Library.sol\":1989:2007  target.loadLibrary */\n      0xffffffffffffffffffffffffffffffffffffffff\n      and\n      0x5aeada2b\n        /* \"D/Dynamic Link Library/Dynamic Link Library.sol\":2008:2012  path */\n      dup5\n      dup5\n        /* \"D/Dynamic Link Library/Dynamic Link Library.sol\":2014:2021  evilLib */\n      dup5\n        /* \"D/Dynamic Link Library/Dynamic Link Library.sol\":1989:2022  target.loadLibrary(path, evilLib) */\n      mload(0x40)\n      dup5\n      0xffffffff\n      and\n      0xe0\n      shl\n      dup2\n      mstore\n      0x04\n      add\n      tag_14\n      swap4\n      swap3\n      swap2\n      swap1\n      tag_15\n      jump\t// in\n    tag_14:\n      0x00\n      mload(0x40)\n      dup1\n      dup4\n      sub\n      dup2\n      0x00\n      dup8\n      dup1\n      extcodesize\n      iszero\n      dup1\n      iszero\n      tag_16\n      jumpi\n      0x00\n      dup1\n      revert\n    tag_16:\n      pop\n      gas\n      call\n      iszero\n      dup1\n      iszero\n      tag_18\n      jumpi\n      returndatasize\n      0x00\n      dup1\n      returndatacopy\n      revert(0x00, returndatasize)\n    tag_18:\n      pop\n      pop\n      pop\n      pop\n        /* \"D/Dynamic Link Library/Dynamic Link Library.sol\":1915:2029  function hijack(string calldata path, address evilLib) external {... */\n      pop\n      pop\n      pop\n      jump\t// out\n        /* \"D/Dynamic Link Library/Dynamic Link Library.sol\":1842:1863  DLLVuln public target */\n    tag_10:\n      0x00\n      dup1\n      sload\n      swap1\n      0x0100\n      exp\n      swap1\n      div\n      0xffffffffffffffffffffffffffffffffffffffff\n      and\n      dup2\n      jump\t// out\n        /* \"#utility.yul\":88:205   */\n    tag_20:\n        /* \"#utility.yul\":197:198   */\n      0x00\n        /* \"#utility.yul\":194:195   */\n      dup1\n        /* \"#utility.yul\":187:199   */\n      revert\n        /* \"#utility.yul\":211:328   */\n    tag_21:\n        /* \"#utility.yul\":320:321   */\n      0x00\n        /* \"#utility.yul\":317:318   */\n      dup1\n        /* \"#utility.yul\":310:322   */\n      revert\n        /* \"#utility.yul\":334:451   */\n    tag_22:\n        /* \"#utility.yul\":443:444   */\n      0x00\n        /* \"#utility.yul\":440:441   */\n      dup1\n        /* \"#utility.yul\":433:445   */\n      revert\n        /* \"#utility.yul\":457:574   */\n    tag_23:\n        /* \"#utility.yul\":566:567   */\n      0x00\n        /* \"#utility.yul\":563:564   */\n      dup1\n        /* \"#utility.yul\":556:568   */\n      revert\n        /* \"#utility.yul\":580:697   */\n    tag_24:\n        /* \"#utility.yul\":689:690   */\n      0x00\n        /* \"#utility.yul\":686:687   */\n      dup1\n        /* \"#utility.yul\":679:691   */\n      revert\n        /* \"#utility.yul\":717:1270   */\n    tag_25:\n        /* \"#utility.yul\":775:783   */\n      0x00\n        /* \"#utility.yul\":785:791   */\n      dup1\n        /* \"#utility.yul\":835:838   */\n      dup4\n        /* \"#utility.yul\":828:832   */\n      0x1f\n        /* \"#utility.yul\":820:826   */\n      dup5\n        /* \"#utility.yul\":816:833   */\n      add\n        /* \"#utility.yul\":812:839   */\n      slt\n        /* \"#utility.yul\":802:924   */\n      tag_48\n      jumpi\n        /* \"#utility.yul\":843:922   */\n      tag_49\n      tag_22\n      jump\t// in\n    tag_49:\n        /* \"#utility.yul\":802:924   */\n    tag_48:\n        /* \"#utility.yul\":956:962   */\n      dup3\n        /* \"#utility.yul\":943:963   */\n      calldataload\n        /* \"#utility.yul\":933:963   */\n      swap1\n      pop\n        /* \"#utility.yul\":986:1004   */\n      0xffffffffffffffff\n        /* \"#utility.yul\":978:984   */\n      dup2\n        /* \"#utility.yul\":975:1005   */\n      gt\n        /* \"#utility.yul\":972:1089   */\n      iszero\n      tag_50\n      jumpi\n        /* \"#utility.yul\":1008:1087   */\n      tag_51\n      tag_23\n      jump\t// in\n    tag_51:\n        /* \"#utility.yul\":972:1089   */\n    tag_50:\n        /* \"#utility.yul\":1122:1126   */\n      0x20\n        /* \"#utility.yul\":1114:1120   */\n      dup4\n        /* \"#utility.yul\":1110:1127   */\n      add\n        /* \"#utility.yul\":1098:1127   */\n      swap2\n      pop\n        /* \"#utility.yul\":1176:1179   */\n      dup4\n        /* \"#utility.yul\":1168:1172   */\n      0x01\n        /* \"#utility.yul\":1160:1166   */\n      dup3\n        /* \"#utility.yul\":1156:1173   */\n      mul\n        /* \"#utility.yul\":1146:1154   */\n      dup4\n        /* \"#utility.yul\":1142:1174   */\n      add\n        /* \"#utility.yul\":1139:1180   */\n      gt\n        /* \"#utility.yul\":1136:1264   */\n      iszero\n      tag_52\n      jumpi\n        /* \"#utility.yul\":1183:1262   */\n      tag_53\n      tag_24\n      jump\t// in\n    tag_53:\n        /* \"#utility.yul\":1136:1264   */\n    tag_52:\n        /* \"#utility.yul\":717:1270   */\n      swap3\n      pop\n      swap3\n      swap1\n      pop\n      jump\t// out\n        /* \"#utility.yul\":1276:1402   */\n    tag_26:\n        /* \"#utility.yul\":1313:1320   */\n      0x00\n        /* \"#utility.yul\":1353:1395   */\n      0xffffffffffffffffffffffffffffffffffffffff\n        /* \"#utility.yul\":1346:1351   */\n      dup3\n        /* \"#utility.yul\":1342:1396   */\n      and\n        /* \"#utility.yul\":1331:1396   */\n      swap1\n      pop\n        /* \"#utility.yul\":1276:1402   */\n      swap2\n      swap1\n      pop\n      jump\t// out\n        /* \"#utility.yul\":1408:1504   */\n    tag_27:\n        /* \"#utility.yul\":1445:1452   */\n      0x00\n        /* \"#utility.yul\":1474:1498   */\n      tag_56\n        /* \"#utility.yul\":1492:1497   */\n      dup3\n        /* \"#utility.yul\":1474:1498   */\n      tag_26\n      jump\t// in\n    tag_56:\n        /* \"#utility.yul\":1463:1498   */\n      swap1\n      pop\n        /* \"#utility.yul\":1408:1504   */\n      swap2\n      swap1\n      pop\n      jump\t// out\n        /* \"#utility.yul\":1510:1632   */\n    tag_28:\n        /* \"#utility.yul\":1583:1607   */\n      tag_58\n        /* \"#utility.yul\":1601:1606   */\n      dup2\n        /* \"#utility.yul\":1583:1607   */\n      tag_27\n      jump\t// in\n    tag_58:\n        /* \"#utility.yul\":1576:1581   */\n      dup2\n        /* \"#utility.yul\":1573:1608   */\n      eq\n        /* \"#utility.yul\":1563:1626   */\n      tag_59\n      jumpi\n        /* \"#utility.yul\":1622:1623   */\n      0x00\n        /* \"#utility.yul\":1619:1620   */\n      dup1\n        /* \"#utility.yul\":1612:1624   */\n      revert\n        /* \"#utility.yul\":1563:1626   */\n    tag_59:\n        /* \"#utility.yul\":1510:1632   */\n      pop\n      jump\t// out\n        /* \"#utility.yul\":1638:1777   */\n    tag_29:\n        /* \"#utility.yul\":1684:1689   */\n      0x00\n        /* \"#utility.yul\":1722:1728   */\n      dup2\n        /* \"#utility.yul\":1709:1729   */\n      calldataload\n        /* \"#utility.yul\":1700:1729   */\n      swap1\n      pop\n        /* \"#utility.yul\":1738:1771   */\n      tag_61\n        /* \"#utility.yul\":1765:1770   */\n      dup2\n        /* \"#utility.yul\":1738:1771   */\n      tag_28\n      jump\t// in\n    tag_61:\n        /* \"#utility.yul\":1638:1777   */\n      swap3\n      swap2\n      pop\n      pop\n      jump\t// out\n        /* \"#utility.yul\":1783:2457   */\n    tag_7:\n        /* \"#utility.yul\":1863:1869   */\n      0x00\n        /* \"#utility.yul\":1871:1877   */\n      dup1\n        /* \"#utility.yul\":1879:1885   */\n      0x00\n        /* \"#utility.yul\":1928:1930   */\n      0x40\n        /* \"#utility.yul\":1916:1925   */\n      dup5\n        /* \"#utility.yul\":1907:1914   */\n      dup7\n        /* \"#utility.yul\":1903:1926   */\n      sub\n        /* \"#utility.yul\":1899:1931   */\n      slt\n        /* \"#utility.yul\":1896:2015   */\n      iszero\n      tag_63\n      jumpi\n        /* \"#utility.yul\":1934:2013   */\n      tag_64\n      tag_20\n      jump\t// in\n    tag_64:\n        /* \"#utility.yul\":1896:2015   */\n    tag_63:\n        /* \"#utility.yul\":2082:2083   */\n      0x00\n        /* \"#utility.yul\":2071:2080   */\n      dup5\n        /* \"#utility.yul\":2067:2084   */\n      add\n        /* \"#utility.yul\":2054:2085   */\n      calldataload\n        /* \"#utility.yul\":2112:2130   */\n      0xffffffffffffffff\n        /* \"#utility.yul\":2104:2110   */\n      dup2\n        /* \"#utility.yul\":2101:2131   */\n      gt\n        /* \"#utility.yul\":2098:2215   */\n      iszero\n      tag_65\n      jumpi\n        /* \"#utility.yul\":2134:2213   */\n      tag_66\n      tag_21\n      jump\t// in\n    tag_66:\n        /* \"#utility.yul\":2098:2215   */\n    tag_65:\n        /* \"#utility.yul\":2247:2312   */\n      tag_67\n        /* \"#utility.yul\":2304:2311   */\n      dup7\n        /* \"#utility.yul\":2295:2301   */\n      dup3\n        /* \"#utility.yul\":2284:2293   */\n      dup8\n        /* \"#utility.yul\":2280:2302   */\n      add\n        /* \"#utility.yul\":2247:2312   */\n      tag_25\n      jump\t// in\n    tag_67:\n        /* \"#utility.yul\":2229:2312   */\n      swap4\n      pop\n      swap4\n      pop\n        /* \"#utility.yul\":2025:2322   */\n      pop\n        /* \"#utility.yul\":2361:2363   */\n      0x20\n        /* \"#utility.yul\":2387:2440   */\n      tag_68\n        /* \"#utility.yul\":2432:2439   */\n      dup7\n        /* \"#utility.yul\":2423:2429   */\n      dup3\n        /* \"#utility.yul\":2412:2421   */\n      dup8\n        /* \"#utility.yul\":2408:2430   */\n      add\n        /* \"#utility.yul\":2387:2440   */\n      tag_29\n      jump\t// in\n    tag_68:\n        /* \"#utility.yul\":2377:2440   */\n      swap2\n      pop\n        /* \"#utility.yul\":2332:2450   */\n      pop\n        /* \"#utility.yul\":1783:2457   */\n      swap3\n      pop\n      swap3\n      pop\n      swap3\n      jump\t// out\n        /* \"#utility.yul\":2463:2523   */\n    tag_30:\n        /* \"#utility.yul\":2491:2494   */\n      0x00\n        /* \"#utility.yul\":2512:2517   */\n      dup2\n        /* \"#utility.yul\":2505:2517   */\n      swap1\n      pop\n        /* \"#utility.yul\":2463:2523   */\n      swap2\n      swap1\n      pop\n      jump\t// out\n        /* \"#utility.yul\":2529:2671   */\n    tag_31:\n        /* \"#utility.yul\":2579:2588   */\n      0x00\n        /* \"#utility.yul\":2612:2665   */\n      tag_71\n        /* \"#utility.yul\":2630:2664   */\n      tag_72\n        /* \"#utility.yul\":2639:2663   */\n      tag_73\n        /* \"#utility.yul\":2657:2662   */\n      dup5\n        /* \"#utility.yul\":2639:2663   */\n      tag_26\n      jump\t// in\n    tag_73:\n        /* \"#utility.yul\":2630:2664   */\n      tag_30\n      jump\t// in\n    tag_72:\n        /* \"#utility.yul\":2612:2665   */\n      tag_26\n      jump\t// in\n    tag_71:\n        /* \"#utility.yul\":2599:2665   */\n      swap1\n      pop\n        /* \"#utility.yul\":2529:2671   */\n      swap2\n      swap1\n      pop\n      jump\t// out\n        /* \"#utility.yul\":2677:2803   */\n    tag_32:\n        /* \"#utility.yul\":2727:2736   */\n      0x00\n        /* \"#utility.yul\":2760:2797   */\n      tag_75\n        /* \"#utility.yul\":2791:2796   */\n      dup3\n        /* \"#utility.yul\":2760:2797   */\n      tag_31\n      jump\t// in\n    tag_75:\n        /* \"#utility.yul\":2747:2797   */\n      swap1\n      pop\n        /* \"#utility.yul\":2677:2803   */\n      swap2\n      swap1\n      pop\n      jump\t// out\n        /* \"#utility.yul\":2809:2949   */\n    tag_33:\n        /* \"#utility.yul\":2873:2882   */\n      0x00\n        /* \"#utility.yul\":2906:2943   */\n      tag_77\n        /* \"#utility.yul\":2937:2942   */\n      dup3\n        /* \"#utility.yul\":2906:2943   */\n      tag_32\n      jump\t// in\n    tag_77:\n        /* \"#utility.yul\":2893:2943   */\n      swap1\n      pop\n        /* \"#utility.yul\":2809:2949   */\n      swap2\n      swap1\n      pop\n      jump\t// out\n        /* \"#utility.yul\":2955:3114   */\n    tag_34:\n        /* \"#utility.yul\":3056:3107   */\n      tag_79\n        /* \"#utility.yul\":3101:3106   */\n      dup2\n        /* \"#utility.yul\":3056:3107   */\n      tag_33\n      jump\t// in\n    tag_79:\n        /* \"#utility.yul\":3051:3054   */\n      dup3\n        /* \"#utility.yul\":3044:3108   */\n      mstore\n        /* \"#utility.yul\":2955:3114   */\n      pop\n      pop\n      jump\t// out\n        /* \"#utility.yul\":3120:3370   */\n    tag_12:\n        /* \"#utility.yul\":3227:3231   */\n      0x00\n        /* \"#utility.yul\":3265:3267   */\n      0x20\n        /* \"#utility.yul\":3254:3263   */\n      dup3\n        /* \"#utility.yul\":3250:3268   */\n      add\n        /* \"#utility.yul\":3242:3268   */\n      swap1\n      pop\n        /* \"#utility.yul\":3278:3363   */\n      tag_81\n        /* \"#utility.yul\":3360:3361   */\n      0x00\n        /* \"#utility.yul\":3349:3358   */\n      dup4\n        /* \"#utility.yul\":3345:3362   */\n      add\n        /* \"#utility.yul\":3336:3342   */\n      dup5\n        /* \"#utility.yul\":3278:3363   */\n      tag_34\n      jump\t// in\n    tag_81:\n        /* \"#utility.yul\":3120:3370   */\n      swap3\n      swap2\n      pop\n      pop\n      jump\t// out\n        /* \"#utility.yul\":3376:3545   */\n    tag_35:\n        /* \"#utility.yul\":3460:3471   */\n      0x00\n        /* \"#utility.yul\":3494:3500   */\n      dup3\n        /* \"#utility.yul\":3489:3492   */\n      dup3\n        /* \"#utility.yul\":3482:3501   */\n      mstore\n        /* \"#utility.yul\":3534:3538   */\n      0x20\n        /* \"#utility.yul\":3529:3532   */\n      dup3\n        /* \"#utility.yul\":3525:3539   */\n      add\n        /* \"#utility.yul\":3510:3539   */\n      swap1\n      pop\n        /* \"#utility.yul\":3376:3545   */\n      swap3\n      swap2\n      pop\n      pop\n      jump\t// out\n        /* \"#utility.yul\":3551:3699   */\n    tag_36:\n        /* \"#utility.yul\":3649:3655   */\n      dup3\n        /* \"#utility.yul\":3644:3647   */\n      dup2\n        /* \"#utility.yul\":3639:3642   */\n      dup4\n        /* \"#utility.yul\":3626:3656   */\n      calldatacopy\n        /* \"#utility.yul\":3690:3691   */\n      0x00\n        /* \"#utility.yul\":3681:3687   */\n      dup4\n        /* \"#utility.yul\":3676:3679   */\n      dup4\n        /* \"#utility.yul\":3672:3688   */\n      add\n        /* \"#utility.yul\":3665:3692   */\n      mstore\n        /* \"#utility.yul\":3551:3699   */\n      pop\n      pop\n      pop\n      jump\t// out\n        /* \"#utility.yul\":3705:3807   */\n    tag_37:\n        /* \"#utility.yul\":3746:3752   */\n      0x00\n        /* \"#utility.yul\":3797:3799   */\n      0x1f\n        /* \"#utility.yul\":3793:3800   */\n      not\n        /* \"#utility.yul\":3788:3790   */\n      0x1f\n        /* \"#utility.yul\":3781:3786   */\n      dup4\n        /* \"#utility.yul\":3777:3791   */\n      add\n        /* \"#utility.yul\":3773:3801   */\n      and\n        /* \"#utility.yul\":3763:3801   */\n      swap1\n      pop\n        /* \"#utility.yul\":3705:3807   */\n      swap2\n      swap1\n      pop\n      jump\t// out\n        /* \"#utility.yul\":3837:4154   */\n    tag_38:\n        /* \"#utility.yul\":3935:3938   */\n      0x00\n        /* \"#utility.yul\":3956:4027   */\n      tag_86\n        /* \"#utility.yul\":4020:4026   */\n      dup4\n        /* \"#utility.yul\":4015:4018   */\n      dup6\n        /* \"#utility.yul\":3956:4027   */\n      tag_35\n      jump\t// in\n    tag_86:\n        /* \"#utility.yul\":3949:4027   */\n      swap4\n      pop\n        /* \"#utility.yul\":4037:4093   */\n      tag_87\n        /* \"#utility.yul\":4086:4092   */\n      dup4\n        /* \"#utility.yul\":4081:4084   */\n      dup6\n        /* \"#utility.yul\":4074:4079   */\n      dup5\n        /* \"#utility.yul\":4037:4093   */\n      tag_36\n      jump\t// in\n    tag_87:\n        /* \"#utility.yul\":4118:4147   */\n      tag_88\n        /* \"#utility.yul\":4140:4146   */\n      dup4\n        /* \"#utility.yul\":4118:4147   */\n      tag_37\n      jump\t// in\n    tag_88:\n        /* \"#utility.yul\":4113:4116   */\n      dup5\n        /* \"#utility.yul\":4109:4148   */\n      add\n        /* \"#utility.yul\":4102:4148   */\n      swap1\n      pop\n        /* \"#utility.yul\":3837:4154   */\n      swap4\n      swap3\n      pop\n      pop\n      pop\n      jump\t// out\n        /* \"#utility.yul\":4160:4278   */\n    tag_39:\n        /* \"#utility.yul\":4247:4271   */\n      tag_90\n        /* \"#utility.yul\":4265:4270   */\n      dup2\n        /* \"#utility.yul\":4247:4271   */\n      tag_27\n      jump\t// in\n    tag_90:\n        /* \"#utility.yul\":4242:4245   */\n      dup3\n        /* \"#utility.yul\":4235:4272   */\n      mstore\n        /* \"#utility.yul\":4160:4278   */\n      pop\n      pop\n      jump\t// out\n        /* \"#utility.yul\":4284:4727   */\n    tag_15:\n        /* \"#utility.yul\":4435:4439   */\n      0x00\n        /* \"#utility.yul\":4473:4475   */\n      0x40\n        /* \"#utility.yul\":4462:4471   */\n      dup3\n        /* \"#utility.yul\":4458:4476   */\n      add\n        /* \"#utility.yul\":4450:4476   */\n      swap1\n      pop\n        /* \"#utility.yul\":4522:4531   */\n      dup2\n        /* \"#utility.yul\":4516:4520   */\n      dup2\n        /* \"#utility.yul\":4512:4532   */\n      sub\n        /* \"#utility.yul\":4508:4509   */\n      0x00\n        /* \"#utility.yul\":4497:4506   */\n      dup4\n        /* \"#utility.yul\":4493:4510   */\n      add\n        /* \"#utility.yul\":4486:4533   */\n      mstore\n        /* \"#utility.yul\":4550:4638   */\n      tag_92\n        /* \"#utility.yul\":4633:4637   */\n      dup2\n        /* \"#utility.yul\":4624:4630   */\n      dup6\n        /* \"#utility.yul\":4616:4622   */\n      dup8\n        /* \"#utility.yul\":4550:4638   */\n      tag_38\n      jump\t// in\n    tag_92:\n        /* \"#utility.yul\":4542:4638   */\n      swap1\n      pop\n        /* \"#utility.yul\":4648:4720   */\n      tag_93\n        /* \"#utility.yul\":4716:4718   */\n      0x20\n        /* \"#utility.yul\":4705:4714   */\n      dup4\n        /* \"#utility.yul\":4701:4719   */\n      add\n        /* \"#utility.yul\":4692:4698   */\n      dup5\n        /* \"#utility.yul\":4648:4720   */\n      tag_39\n      jump\t// in\n    tag_93:\n        /* \"#utility.yul\":4284:4727   */\n      swap5\n      swap4\n      pop\n      pop\n      pop\n      pop\n      jump\t// out\n\n    auxdata: 0xa2646970667358221220c86ac3ded33a0089a6ab6f576af016dc513a309c7e19a130199207bbe64f773b64736f6c634300081a0033\n}\n",
				"bytecode": {
					"linkReferences": {},
					"object": "608060405234801561000f575f80fd5b506040516104a33803806104a3833981810160405281019061003191906100e5565b805f806101000a81548173ffffffffffffffffffffffffffffffffffffffff021916908373ffffffffffffffffffffffffffffffffffffffff16021790555050610110565b5f80fd5b5f73ffffffffffffffffffffffffffffffffffffffff82169050919050565b5f6100a38261007a565b9050919050565b5f6100b482610099565b9050919050565b6100c4816100aa565b81146100ce575f80fd5b50565b5f815190506100df816100bb565b92915050565b5f602082840312156100fa576100f9610076565b5b5f610107848285016100d1565b91505092915050565b6103868061011d5f395ff3fe608060405234801561000f575f80fd5b5060043610610034575f3560e01c8063c43bac2114610038578063d4b8399214610054575b5f80fd5b610052600480360381019061004d91906101e6565b610072565b005b61005c610100565b604051610069919061029e565b60405180910390f35b5f8054906101000a900473ffffffffffffffffffffffffffffffffffffffff1673ffffffffffffffffffffffffffffffffffffffff16635aeada2b8484846040518463ffffffff1660e01b81526004016100ce93929190610320565b5f604051808303815f87803b1580156100e5575f80fd5b505af11580156100f7573d5f803e3d5ffd5b50505050505050565b5f8054906101000a900473ffffffffffffffffffffffffffffffffffffffff1681565b5f80fd5b5f80fd5b5f80fd5b5f80fd5b5f80fd5b5f8083601f84011261014c5761014b61012b565b5b8235905067ffffffffffffffff8111156101695761016861012f565b5b60208301915083600182028301111561018557610184610133565b5b9250929050565b5f73ffffffffffffffffffffffffffffffffffffffff82169050919050565b5f6101b58261018c565b9050919050565b6101c5816101ab565b81146101cf575f80fd5b50565b5f813590506101e0816101bc565b92915050565b5f805f604084860312156101fd576101fc610123565b5b5f84013567ffffffffffffffff81111561021a57610219610127565b5b61022686828701610137565b93509350506020610239868287016101d2565b9150509250925092565b5f819050919050565b5f61026661026161025c8461018c565b610243565b61018c565b9050919050565b5f6102778261024c565b9050919050565b5f6102888261026d565b9050919050565b6102988161027e565b82525050565b5f6020820190506102b15f83018461028f565b92915050565b5f82825260208201905092915050565b828183375f83830152505050565b5f601f19601f8301169050919050565b5f6102f083856102b7565b93506102fd8385846102c7565b610306836102d5565b840190509392505050565b61031a816101ab565b82525050565b5f6040820190508181035f8301526103398185876102e5565b90506103486020830184610311565b94935050505056fea2646970667358221220c86ac3ded33a0089a6ab6f576af016dc513a309c7e19a130199207bbe64f773b64736f6c634300081a0033",
					"opcodes": "PUSH1 0x80 PUSH1 0x40 MSTORE CALLVALUE DUP1 ISZERO PUSH2 0xF JUMPI PUSH0 DUP1 REVERT JUMPDEST POP PUSH1 0x40 MLOAD PUSH2 0x4A3 CODESIZE SUB DUP1 PUSH2 0x4A3 DUP4 CODECOPY DUP2 DUP2 ADD PUSH1 0x40 MSTORE DUP2 ADD SWAP1 PUSH2 0x31 SWAP2 SWAP1 PUSH2 0xE5 JUMP JUMPDEST DUP1 PUSH0 DUP1 PUSH2 0x100 EXP DUP2 SLOAD DUP2 PUSH20 0xFFFFFFFFFFFFFFFFFFFFFFFFFFFFFFFFFFFFFFFF MUL NOT AND SWAP1 DUP4 PUSH20 0xFFFFFFFFFFFFFFFFFFFFFFFFFFFFFFFFFFFFFFFF AND MUL OR SWAP1 SSTORE POP POP PUSH2 0x110 JUMP JUMPDEST PUSH0 DUP1 REVERT JUMPDEST PUSH0 PUSH20 0xFFFFFFFFFFFFFFFFFFFFFFFFFFFFFFFFFFFFFFFF DUP3 AND SWAP1 POP SWAP2 SWAP1 POP JUMP JUMPDEST PUSH0 PUSH2 0xA3 DUP3 PUSH2 0x7A JUMP JUMPDEST SWAP1 POP SWAP2 SWAP1 POP JUMP JUMPDEST PUSH0 PUSH2 0xB4 DUP3 PUSH2 0x99 JUMP JUMPDEST SWAP1 POP SWAP2 SWAP1 POP JUMP JUMPDEST PUSH2 0xC4 DUP2 PUSH2 0xAA JUMP JUMPDEST DUP2 EQ PUSH2 0xCE JUMPI PUSH0 DUP1 REVERT JUMPDEST POP JUMP JUMPDEST PUSH0 DUP2 MLOAD SWAP1 POP PUSH2 0xDF DUP2 PUSH2 0xBB JUMP JUMPDEST SWAP3 SWAP2 POP POP JUMP JUMPDEST PUSH0 PUSH1 0x20 DUP3 DUP5 SUB SLT ISZERO PUSH2 0xFA JUMPI PUSH2 0xF9 PUSH2 0x76 JUMP JUMPDEST JUMPDEST PUSH0 PUSH2 0x107 DUP5 DUP3 DUP6 ADD PUSH2 0xD1 JUMP JUMPDEST SWAP2 POP POP SWAP3 SWAP2 POP POP JUMP JUMPDEST PUSH2 0x386 DUP1 PUSH2 0x11D PUSH0 CODECOPY PUSH0 RETURN INVALID PUSH1 0x80 PUSH1 0x40 MSTORE CALLVALUE DUP1 ISZERO PUSH2 0xF JUMPI PUSH0 DUP1 REVERT JUMPDEST POP PUSH1 0x4 CALLDATASIZE LT PUSH2 0x34 JUMPI PUSH0 CALLDATALOAD PUSH1 0xE0 SHR DUP1 PUSH4 0xC43BAC21 EQ PUSH2 0x38 JUMPI DUP1 PUSH4 0xD4B83992 EQ PUSH2 0x54 JUMPI JUMPDEST PUSH0 DUP1 REVERT JUMPDEST PUSH2 0x52 PUSH1 0x4 DUP1 CALLDATASIZE SUB DUP2 ADD SWAP1 PUSH2 0x4D SWAP2 SWAP1 PUSH2 0x1E6 JUMP JUMPDEST PUSH2 0x72 JUMP JUMPDEST STOP JUMPDEST PUSH2 0x5C PUSH2 0x100 JUMP JUMPDEST PUSH1 0x40 MLOAD PUSH2 0x69 SWAP2 SWAP1 PUSH2 0x29E JUMP JUMPDEST PUSH1 0x40 MLOAD DUP1 SWAP2 SUB SWAP1 RETURN JUMPDEST PUSH0 DUP1 SLOAD SWAP1 PUSH2 0x100 EXP SWAP1 DIV PUSH20 0xFFFFFFFFFFFFFFFFFFFFFFFFFFFFFFFFFFFFFFFF AND PUSH20 0xFFFFFFFFFFFFFFFFFFFFFFFFFFFFFFFFFFFFFFFF AND PUSH4 0x5AEADA2B DUP5 DUP5 DUP5 PUSH1 0x40 MLOAD DUP5 PUSH4 0xFFFFFFFF AND PUSH1 0xE0 SHL DUP2 MSTORE PUSH1 0x4 ADD PUSH2 0xCE SWAP4 SWAP3 SWAP2 SWAP1 PUSH2 0x320 JUMP JUMPDEST PUSH0 PUSH1 0x40 MLOAD DUP1 DUP4 SUB DUP2 PUSH0 DUP8 DUP1 EXTCODESIZE ISZERO DUP1 ISZERO PUSH2 0xE5 JUMPI PUSH0 DUP1 REVERT JUMPDEST POP GAS CALL ISZERO DUP1 ISZERO PUSH2 0xF7 JUMPI RETURNDATASIZE PUSH0 DUP1 RETURNDATACOPY RETURNDATASIZE PUSH0 REVERT JUMPDEST POP POP POP POP POP POP POP JUMP JUMPDEST PUSH0 DUP1 SLOAD SWAP1 PUSH2 0x100 EXP SWAP1 DIV PUSH20 0xFFFFFFFFFFFFFFFFFFFFFFFFFFFFFFFFFFFFFFFF AND DUP2 JUMP JUMPDEST PUSH0 DUP1 REVERT JUMPDEST PUSH0 DUP1 REVERT JUMPDEST PUSH0 DUP1 REVERT JUMPDEST PUSH0 DUP1 REVERT JUMPDEST PUSH0 DUP1 REVERT JUMPDEST PUSH0 DUP1 DUP4 PUSH1 0x1F DUP5 ADD SLT PUSH2 0x14C JUMPI PUSH2 0x14B PUSH2 0x12B JUMP JUMPDEST JUMPDEST DUP3 CALLDATALOAD SWAP1 POP PUSH8 0xFFFFFFFFFFFFFFFF DUP2 GT ISZERO PUSH2 0x169 JUMPI PUSH2 0x168 PUSH2 0x12F JUMP JUMPDEST JUMPDEST PUSH1 0x20 DUP4 ADD SWAP2 POP DUP4 PUSH1 0x1 DUP3 MUL DUP4 ADD GT ISZERO PUSH2 0x185 JUMPI PUSH2 0x184 PUSH2 0x133 JUMP JUMPDEST JUMPDEST SWAP3 POP SWAP3 SWAP1 POP JUMP JUMPDEST PUSH0 PUSH20 0xFFFFFFFFFFFFFFFFFFFFFFFFFFFFFFFFFFFFFFFF DUP3 AND SWAP1 POP SWAP2 SWAP1 POP JUMP JUMPDEST PUSH0 PUSH2 0x1B5 DUP3 PUSH2 0x18C JUMP JUMPDEST SWAP1 POP SWAP2 SWAP1 POP JUMP JUMPDEST PUSH2 0x1C5 DUP2 PUSH2 0x1AB JUMP JUMPDEST DUP2 EQ PUSH2 0x1CF JUMPI PUSH0 DUP1 REVERT JUMPDEST POP JUMP JUMPDEST PUSH0 DUP2 CALLDATALOAD SWAP1 POP PUSH2 0x1E0 DUP2 PUSH2 0x1BC JUMP JUMPDEST SWAP3 SWAP2 POP POP JUMP JUMPDEST PUSH0 DUP1 PUSH0 PUSH1 0x40 DUP5 DUP7 SUB SLT ISZERO PUSH2 0x1FD JUMPI PUSH2 0x1FC PUSH2 0x123 JUMP JUMPDEST JUMPDEST PUSH0 DUP5 ADD CALLDATALOAD PUSH8 0xFFFFFFFFFFFFFFFF DUP2 GT ISZERO PUSH2 0x21A JUMPI PUSH2 0x219 PUSH2 0x127 JUMP JUMPDEST JUMPDEST PUSH2 0x226 DUP7 DUP3 DUP8 ADD PUSH2 0x137 JUMP JUMPDEST SWAP4 POP SWAP4 POP POP PUSH1 0x20 PUSH2 0x239 DUP7 DUP3 DUP8 ADD PUSH2 0x1D2 JUMP JUMPDEST SWAP2 POP POP SWAP3 POP SWAP3 POP SWAP3 JUMP JUMPDEST PUSH0 DUP2 SWAP1 POP SWAP2 SWAP1 POP JUMP JUMPDEST PUSH0 PUSH2 0x266 PUSH2 0x261 PUSH2 0x25C DUP5 PUSH2 0x18C JUMP JUMPDEST PUSH2 0x243 JUMP JUMPDEST PUSH2 0x18C JUMP JUMPDEST SWAP1 POP SWAP2 SWAP1 POP JUMP JUMPDEST PUSH0 PUSH2 0x277 DUP3 PUSH2 0x24C JUMP JUMPDEST SWAP1 POP SWAP2 SWAP1 POP JUMP JUMPDEST PUSH0 PUSH2 0x288 DUP3 PUSH2 0x26D JUMP JUMPDEST SWAP1 POP SWAP2 SWAP1 POP JUMP JUMPDEST PUSH2 0x298 DUP2 PUSH2 0x27E JUMP JUMPDEST DUP3 MSTORE POP POP JUMP JUMPDEST PUSH0 PUSH1 0x20 DUP3 ADD SWAP1 POP PUSH2 0x2B1 PUSH0 DUP4 ADD DUP5 PUSH2 0x28F JUMP JUMPDEST SWAP3 SWAP2 POP POP JUMP JUMPDEST PUSH0 DUP3 DUP3 MSTORE PUSH1 0x20 DUP3 ADD SWAP1 POP SWAP3 SWAP2 POP POP JUMP JUMPDEST DUP3 DUP2 DUP4 CALLDATACOPY PUSH0 DUP4 DUP4 ADD MSTORE POP POP POP JUMP JUMPDEST PUSH0 PUSH1 0x1F NOT PUSH1 0x1F DUP4 ADD AND SWAP1 POP SWAP2 SWAP1 POP JUMP JUMPDEST PUSH0 PUSH2 0x2F0 DUP4 DUP6 PUSH2 0x2B7 JUMP JUMPDEST SWAP4 POP PUSH2 0x2FD DUP4 DUP6 DUP5 PUSH2 0x2C7 JUMP JUMPDEST PUSH2 0x306 DUP4 PUSH2 0x2D5 JUMP JUMPDEST DUP5 ADD SWAP1 POP SWAP4 SWAP3 POP POP POP JUMP JUMPDEST PUSH2 0x31A DUP2 PUSH2 0x1AB JUMP JUMPDEST DUP3 MSTORE POP POP JUMP JUMPDEST PUSH0 PUSH1 0x40 DUP3 ADD SWAP1 POP DUP2 DUP2 SUB PUSH0 DUP4 ADD MSTORE PUSH2 0x339 DUP2 DUP6 DUP8 PUSH2 0x2E5 JUMP JUMPDEST SWAP1 POP PUSH2 0x348 PUSH1 0x20 DUP4 ADD DUP5 PUSH2 0x311 JUMP JUMPDEST SWAP5 SWAP4 POP POP POP POP JUMP INVALID LOG2 PUSH5 0x6970667358 0x22 SLT KECCAK256 0xC8 PUSH11 0xC3DED33A0089A6AB6F576A CREATE AND 0xDC MLOAD GASPRICE ADDRESS SWAP13 PUSH31 0x19A130199207BBE64F773B64736F6C634300081A0033000000000000000000 "
				},
				"gasEstimates": {
					"creation": {
						"codeDepositCost": "180400",
						"executionCost": "infinite",
						"totalCost": "infinite"
					},
					"external": {
						"hijack(string,address)": "infinite",
						"target()": "infinite"
					}
				},
				"methodIdentifiers": {
					"hijack(string,address)": "c43bac21",
					"target()": "d4b83992"
				}
			},
			"storageLayout": {
				"storage": [
					{
						"astId": 66,
						"contract": "D/Dynamic Link Library/Dynamic Link Library.sol:Attack_DLL",
						"label": "target",
						"offset": 0,
						"slot": "0",
						"type": "t_contract(DLLVuln)63"
					}
				],
				"types": {
					"t_contract(DLLVuln)63": {
						"encoding": "inplace",
						"label": "contract DLLVuln",
						"numberOfBytes": "20"
					}
				}
			},
			"userdoc": {
				"kind": "user",
				"methods": {},
				"version": 1
			}
		}
	}
}