{
	"C/Cookie/attack Naive Cookie in a Contract.sol": {
		"NaiveCookieSession": {
			"abi": [
				{
					"inputs": [
						{
							"internalType": "address",
							"name": "user",
							"type": "address"
						}
					],
					"name": "getCookie",
					"outputs": [
						{
							"internalType": "string",
							"name": "",
							"type": "string"
						}
					],
					"stateMutability": "view",
					"type": "function"
				},
				{
					"inputs": [
						{
							"internalType": "address",
							"name": "",
							"type": "address"
						}
					],
					"name": "sessionCookie",
					"outputs": [
						{
							"internalType": "string",
							"name": "",
							"type": "string"
						}
					],
					"stateMutability": "view",
					"type": "function"
				},
				{
					"inputs": [
						{
							"internalType": "string",
							"name": "data",
							"type": "string"
						}
					],
					"name": "setCookie",
					"outputs": [],
					"stateMutability": "nonpayable",
					"type": "function"
				}
			],
			"devdoc": {
				"kind": "dev",
				"methods": {},
				"version": 1
			},
			"evm": {
				"assembly": "    /* \"C/Cookie/attack Naive Cookie in a Contract.sol\":209:656  contract NaiveCookieSession {... */\n  mstore(0x40, 0x80)\n  callvalue\n  dup1\n  iszero\n  tag_1\n  jumpi\n  0x00\n  dup1\n  revert\ntag_1:\n  pop\n  dataSize(sub_0)\n  dup1\n  dataOffset(sub_0)\n  0x00\n  codecopy\n  0x00\n  return\nstop\n\nsub_0: assembly {\n        /* \"C/Cookie/attack Naive Cookie in a Contract.sol\":209:656  contract NaiveCookieSession {... */\n      mstore(0x40, 0x80)\n      callvalue\n      dup1\n      iszero\n      tag_1\n      jumpi\n      0x00\n      dup1\n      revert\n    tag_1:\n      pop\n      jumpi(tag_2, lt(calldatasize, 0x04))\n      shr(0xe0, calldataload(0x00))\n      dup1\n      0x0aba9e21\n      eq\n      tag_3\n      jumpi\n      dup1\n      0x81e0f87d\n      eq\n      tag_4\n      jumpi\n      dup1\n      0xc982818d\n      eq\n      tag_5\n      jumpi\n    tag_2:\n      0x00\n      dup1\n      revert\n        /* \"C/Cookie/attack Naive Cookie in a Contract.sol\":416:516  function setCookie(string calldata data) external {... */\n    tag_3:\n      tag_6\n      0x04\n      dup1\n      calldatasize\n      sub\n      dup2\n      add\n      swap1\n      tag_7\n      swap2\n      swap1\n      tag_8\n      jump\t// in\n    tag_7:\n      tag_9\n      jump\t// in\n    tag_6:\n      stop\n        /* \"C/Cookie/attack Naive Cookie in a Contract.sol\":306:353  mapping(address => string) public sessionCookie */\n    tag_4:\n      tag_10\n      0x04\n      dup1\n      calldatasize\n      sub\n      dup2\n      add\n      swap1\n      tag_11\n      swap2\n      swap1\n      tag_12\n      jump\t// in\n    tag_11:\n      tag_13\n      jump\t// in\n    tag_10:\n      mload(0x40)\n      tag_14\n      swap2\n      swap1\n      tag_15\n      jump\t// in\n    tag_14:\n      mload(0x40)\n      dup1\n      swap2\n      sub\n      swap1\n      return\n        /* \"C/Cookie/attack Naive Cookie in a Contract.sol\":540:654  function getCookie(address user) external view returns (string memory) {... */\n    tag_5:\n      tag_16\n      0x04\n      dup1\n      calldatasize\n      sub\n      dup2\n      add\n      swap1\n      tag_17\n      swap2\n      swap1\n      tag_12\n      jump\t// in\n    tag_17:\n      tag_18\n      jump\t// in\n    tag_16:\n      mload(0x40)\n      tag_19\n      swap2\n      swap1\n      tag_15\n      jump\t// in\n    tag_19:\n      mload(0x40)\n      dup1\n      swap2\n      sub\n      swap1\n      return\n        /* \"C/Cookie/attack Naive Cookie in a Contract.sol\":416:516  function setCookie(string calldata data) external {... */\n    tag_9:\n        /* \"C/Cookie/attack Naive Cookie in a Contract.sol\":504:508  data */\n      dup2\n      dup2\n        /* \"C/Cookie/attack Naive Cookie in a Contract.sol\":476:489  sessionCookie */\n      0x00\n        /* \"C/Cookie/attack Naive Cookie in a Contract.sol\":476:501  sessionCookie[msg.sender] */\n      dup1\n        /* \"C/Cookie/attack Naive Cookie in a Contract.sol\":490:500  msg.sender */\n      caller\n        /* \"C/Cookie/attack Naive Cookie in a Contract.sol\":476:501  sessionCookie[msg.sender] */\n      0xffffffffffffffffffffffffffffffffffffffff\n      and\n      0xffffffffffffffffffffffffffffffffffffffff\n      and\n      dup2\n      mstore\n      0x20\n      add\n      swap1\n      dup2\n      mstore\n      0x20\n      add\n      0x00\n      keccak256\n        /* \"C/Cookie/attack Naive Cookie in a Contract.sol\":476:508  sessionCookie[msg.sender] = data */\n      swap2\n      dup3\n      tag_21\n      swap3\n      swap2\n      swap1\n      tag_22\n      jump\t// in\n    tag_21:\n      pop\n        /* \"C/Cookie/attack Naive Cookie in a Contract.sol\":416:516  function setCookie(string calldata data) external {... */\n      pop\n      pop\n      jump\t// out\n        /* \"C/Cookie/attack Naive Cookie in a Contract.sol\":306:353  mapping(address => string) public sessionCookie */\n    tag_13:\n      mstore(0x20, 0x00)\n      dup1\n      0x00\n      mstore\n      keccak256(0x00, 0x40)\n      0x00\n      swap2\n      pop\n      swap1\n      pop\n      dup1\n      sload\n      tag_23\n      swap1\n      tag_24\n      jump\t// in\n    tag_23:\n      dup1\n      0x1f\n      add\n      0x20\n      dup1\n      swap2\n      div\n      mul\n      0x20\n      add\n      mload(0x40)\n      swap1\n      dup2\n      add\n      0x40\n      mstore\n      dup1\n      swap3\n      swap2\n      swap1\n      dup2\n      dup2\n      mstore\n      0x20\n      add\n      dup3\n      dup1\n      sload\n      tag_25\n      swap1\n      tag_24\n      jump\t// in\n    tag_25:\n      dup1\n      iszero\n      tag_26\n      jumpi\n      dup1\n      0x1f\n      lt\n      tag_27\n      jumpi\n      0x0100\n      dup1\n      dup4\n      sload\n      div\n      mul\n      dup4\n      mstore\n      swap2\n      0x20\n      add\n      swap2\n      jump(tag_26)\n    tag_27:\n      dup3\n      add\n      swap2\n      swap1\n      0x00\n      mstore\n      keccak256(0x00, 0x20)\n      swap1\n    tag_28:\n      dup2\n      sload\n      dup2\n      mstore\n      swap1\n      0x01\n      add\n      swap1\n      0x20\n      add\n      dup1\n      dup4\n      gt\n      tag_28\n      jumpi\n      dup3\n      swap1\n      sub\n      0x1f\n      and\n      dup3\n      add\n      swap2\n    tag_26:\n      pop\n      pop\n      pop\n      pop\n      pop\n      dup2\n      jump\t// out\n        /* \"C/Cookie/attack Naive Cookie in a Contract.sol\":540:654  function getCookie(address user) external view returns (string memory) {... */\n    tag_18:\n        /* \"C/Cookie/attack Naive Cookie in a Contract.sol\":596:609  string memory */\n      0x60\n        /* \"C/Cookie/attack Naive Cookie in a Contract.sol\":628:641  sessionCookie */\n      0x00\n        /* \"C/Cookie/attack Naive Cookie in a Contract.sol\":628:647  sessionCookie[user] */\n      dup1\n        /* \"C/Cookie/attack Naive Cookie in a Contract.sol\":642:646  user */\n      dup4\n        /* \"C/Cookie/attack Naive Cookie in a Contract.sol\":628:647  sessionCookie[user] */\n      0xffffffffffffffffffffffffffffffffffffffff\n      and\n      0xffffffffffffffffffffffffffffffffffffffff\n      and\n      dup2\n      mstore\n      0x20\n      add\n      swap1\n      dup2\n      mstore\n      0x20\n      add\n      0x00\n      keccak256\n        /* \"C/Cookie/attack Naive Cookie in a Contract.sol\":621:647  return sessionCookie[user] */\n      dup1\n      sload\n      tag_30\n      swap1\n      tag_24\n      jump\t// in\n    tag_30:\n      dup1\n      0x1f\n      add\n      0x20\n      dup1\n      swap2\n      div\n      mul\n      0x20\n      add\n      mload(0x40)\n      swap1\n      dup2\n      add\n      0x40\n      mstore\n      dup1\n      swap3\n      swap2\n      swap1\n      dup2\n      dup2\n      mstore\n      0x20\n      add\n      dup3\n      dup1\n      sload\n      tag_31\n      swap1\n      tag_24\n      jump\t// in\n    tag_31:\n      dup1\n      iszero\n      tag_32\n      jumpi\n      dup1\n      0x1f\n      lt\n      tag_33\n      jumpi\n      0x0100\n      dup1\n      dup4\n      sload\n      div\n      mul\n      dup4\n      mstore\n      swap2\n      0x20\n      add\n      swap2\n      jump(tag_32)\n    tag_33:\n      dup3\n      add\n      swap2\n      swap1\n      0x00\n      mstore\n      keccak256(0x00, 0x20)\n      swap1\n    tag_34:\n      dup2\n      sload\n      dup2\n      mstore\n      swap1\n      0x01\n      add\n      swap1\n      0x20\n      add\n      dup1\n      dup4\n      gt\n      tag_34\n      jumpi\n      dup3\n      swap1\n      sub\n      0x1f\n      and\n      dup3\n      add\n      swap2\n    tag_32:\n      pop\n      pop\n      pop\n      pop\n      pop\n      swap1\n      pop\n        /* \"C/Cookie/attack Naive Cookie in a Contract.sol\":540:654  function getCookie(address user) external view returns (string memory) {... */\n      swap2\n      swap1\n      pop\n      jump\t// out\n        /* \"#utility.yul\":88:205   */\n    tag_36:\n        /* \"#utility.yul\":197:198   */\n      0x00\n        /* \"#utility.yul\":194:195   */\n      dup1\n        /* \"#utility.yul\":187:199   */\n      revert\n        /* \"#utility.yul\":211:328   */\n    tag_37:\n        /* \"#utility.yul\":320:321   */\n      0x00\n        /* \"#utility.yul\":317:318   */\n      dup1\n        /* \"#utility.yul\":310:322   */\n      revert\n        /* \"#utility.yul\":334:451   */\n    tag_38:\n        /* \"#utility.yul\":443:444   */\n      0x00\n        /* \"#utility.yul\":440:441   */\n      dup1\n        /* \"#utility.yul\":433:445   */\n      revert\n        /* \"#utility.yul\":457:574   */\n    tag_39:\n        /* \"#utility.yul\":566:567   */\n      0x00\n        /* \"#utility.yul\":563:564   */\n      dup1\n        /* \"#utility.yul\":556:568   */\n      revert\n        /* \"#utility.yul\":580:697   */\n    tag_40:\n        /* \"#utility.yul\":689:690   */\n      0x00\n        /* \"#utility.yul\":686:687   */\n      dup1\n        /* \"#utility.yul\":679:691   */\n      revert\n        /* \"#utility.yul\":717:1270   */\n    tag_41:\n        /* \"#utility.yul\":775:783   */\n      0x00\n        /* \"#utility.yul\":785:791   */\n      dup1\n        /* \"#utility.yul\":835:838   */\n      dup4\n        /* \"#utility.yul\":828:832   */\n      0x1f\n        /* \"#utility.yul\":820:826   */\n      dup5\n        /* \"#utility.yul\":816:833   */\n      add\n        /* \"#utility.yul\":812:839   */\n      slt\n        /* \"#utility.yul\":802:924   */\n      tag_78\n      jumpi\n        /* \"#utility.yul\":843:922   */\n      tag_79\n      tag_38\n      jump\t// in\n    tag_79:\n        /* \"#utility.yul\":802:924   */\n    tag_78:\n        /* \"#utility.yul\":956:962   */\n      dup3\n        /* \"#utility.yul\":943:963   */\n      calldataload\n        /* \"#utility.yul\":933:963   */\n      swap1\n      pop\n        /* \"#utility.yul\":986:1004   */\n      0xffffffffffffffff\n        /* \"#utility.yul\":978:984   */\n      dup2\n        /* \"#utility.yul\":975:1005   */\n      gt\n        /* \"#utility.yul\":972:1089   */\n      iszero\n      tag_80\n      jumpi\n        /* \"#utility.yul\":1008:1087   */\n      tag_81\n      tag_39\n      jump\t// in\n    tag_81:\n        /* \"#utility.yul\":972:1089   */\n    tag_80:\n        /* \"#utility.yul\":1122:1126   */\n      0x20\n        /* \"#utility.yul\":1114:1120   */\n      dup4\n        /* \"#utility.yul\":1110:1127   */\n      add\n        /* \"#utility.yul\":1098:1127   */\n      swap2\n      pop\n        /* \"#utility.yul\":1176:1179   */\n      dup4\n        /* \"#utility.yul\":1168:1172   */\n      0x01\n        /* \"#utility.yul\":1160:1166   */\n      dup3\n        /* \"#utility.yul\":1156:1173   */\n      mul\n        /* \"#utility.yul\":1146:1154   */\n      dup4\n        /* \"#utility.yul\":1142:1174   */\n      add\n        /* \"#utility.yul\":1139:1180   */\n      gt\n        /* \"#utility.yul\":1136:1264   */\n      iszero\n      tag_82\n      jumpi\n        /* \"#utility.yul\":1183:1262   */\n      tag_83\n      tag_40\n      jump\t// in\n    tag_83:\n        /* \"#utility.yul\":1136:1264   */\n    tag_82:\n        /* \"#utility.yul\":717:1270   */\n      swap3\n      pop\n      swap3\n      swap1\n      pop\n      jump\t// out\n        /* \"#utility.yul\":1276:1805   */\n    tag_8:\n        /* \"#utility.yul\":1347:1353   */\n      0x00\n        /* \"#utility.yul\":1355:1361   */\n      dup1\n        /* \"#utility.yul\":1404:1406   */\n      0x20\n        /* \"#utility.yul\":1392:1401   */\n      dup4\n        /* \"#utility.yul\":1383:1390   */\n      dup6\n        /* \"#utility.yul\":1379:1402   */\n      sub\n        /* \"#utility.yul\":1375:1407   */\n      slt\n        /* \"#utility.yul\":1372:1491   */\n      iszero\n      tag_85\n      jumpi\n        /* \"#utility.yul\":1410:1489   */\n      tag_86\n      tag_36\n      jump\t// in\n    tag_86:\n        /* \"#utility.yul\":1372:1491   */\n    tag_85:\n        /* \"#utility.yul\":1558:1559   */\n      0x00\n        /* \"#utility.yul\":1547:1556   */\n      dup4\n        /* \"#utility.yul\":1543:1560   */\n      add\n        /* \"#utility.yul\":1530:1561   */\n      calldataload\n        /* \"#utility.yul\":1588:1606   */\n      0xffffffffffffffff\n        /* \"#utility.yul\":1580:1586   */\n      dup2\n        /* \"#utility.yul\":1577:1607   */\n      gt\n        /* \"#utility.yul\":1574:1691   */\n      iszero\n      tag_87\n      jumpi\n        /* \"#utility.yul\":1610:1689   */\n      tag_88\n      tag_37\n      jump\t// in\n    tag_88:\n        /* \"#utility.yul\":1574:1691   */\n    tag_87:\n        /* \"#utility.yul\":1723:1788   */\n      tag_89\n        /* \"#utility.yul\":1780:1787   */\n      dup6\n        /* \"#utility.yul\":1771:1777   */\n      dup3\n        /* \"#utility.yul\":1760:1769   */\n      dup7\n        /* \"#utility.yul\":1756:1778   */\n      add\n        /* \"#utility.yul\":1723:1788   */\n      tag_41\n      jump\t// in\n    tag_89:\n        /* \"#utility.yul\":1705:1788   */\n      swap3\n      pop\n      swap3\n      pop\n        /* \"#utility.yul\":1501:1798   */\n      pop\n        /* \"#utility.yul\":1276:1805   */\n      swap3\n      pop\n      swap3\n      swap1\n      pop\n      jump\t// out\n        /* \"#utility.yul\":1811:1937   */\n    tag_42:\n        /* \"#utility.yul\":1848:1855   */\n      0x00\n        /* \"#utility.yul\":1888:1930   */\n      0xffffffffffffffffffffffffffffffffffffffff\n        /* \"#utility.yul\":1881:1886   */\n      dup3\n        /* \"#utility.yul\":1877:1931   */\n      and\n        /* \"#utility.yul\":1866:1931   */\n      swap1\n      pop\n        /* \"#utility.yul\":1811:1937   */\n      swap2\n      swap1\n      pop\n      jump\t// out\n        /* \"#utility.yul\":1943:2039   */\n    tag_43:\n        /* \"#utility.yul\":1980:1987   */\n      0x00\n        /* \"#utility.yul\":2009:2033   */\n      tag_92\n        /* \"#utility.yul\":2027:2032   */\n      dup3\n        /* \"#utility.yul\":2009:2033   */\n      tag_42\n      jump\t// in\n    tag_92:\n        /* \"#utility.yul\":1998:2033   */\n      swap1\n      pop\n        /* \"#utility.yul\":1943:2039   */\n      swap2\n      swap1\n      pop\n      jump\t// out\n        /* \"#utility.yul\":2045:2167   */\n    tag_44:\n        /* \"#utility.yul\":2118:2142   */\n      tag_94\n        /* \"#utility.yul\":2136:2141   */\n      dup2\n        /* \"#utility.yul\":2118:2142   */\n      tag_43\n      jump\t// in\n    tag_94:\n        /* \"#utility.yul\":2111:2116   */\n      dup2\n        /* \"#utility.yul\":2108:2143   */\n      eq\n        /* \"#utility.yul\":2098:2161   */\n      tag_95\n      jumpi\n        /* \"#utility.yul\":2157:2158   */\n      0x00\n        /* \"#utility.yul\":2154:2155   */\n      dup1\n        /* \"#utility.yul\":2147:2159   */\n      revert\n        /* \"#utility.yul\":2098:2161   */\n    tag_95:\n        /* \"#utility.yul\":2045:2167   */\n      pop\n      jump\t// out\n        /* \"#utility.yul\":2173:2312   */\n    tag_45:\n        /* \"#utility.yul\":2219:2224   */\n      0x00\n        /* \"#utility.yul\":2257:2263   */\n      dup2\n        /* \"#utility.yul\":2244:2264   */\n      calldataload\n        /* \"#utility.yul\":2235:2264   */\n      swap1\n      pop\n        /* \"#utility.yul\":2273:2306   */\n      tag_97\n        /* \"#utility.yul\":2300:2305   */\n      dup2\n        /* \"#utility.yul\":2273:2306   */\n      tag_44\n      jump\t// in\n    tag_97:\n        /* \"#utility.yul\":2173:2312   */\n      swap3\n      swap2\n      pop\n      pop\n      jump\t// out\n        /* \"#utility.yul\":2318:2647   */\n    tag_12:\n        /* \"#utility.yul\":2377:2383   */\n      0x00\n        /* \"#utility.yul\":2426:2428   */\n      0x20\n        /* \"#utility.yul\":2414:2423   */\n      dup3\n        /* \"#utility.yul\":2405:2412   */\n      dup5\n        /* \"#utility.yul\":2401:2424   */\n      sub\n        /* \"#utility.yul\":2397:2429   */\n      slt\n        /* \"#utility.yul\":2394:2513   */\n      iszero\n      tag_99\n      jumpi\n        /* \"#utility.yul\":2432:2511   */\n      tag_100\n      tag_36\n      jump\t// in\n    tag_100:\n        /* \"#utility.yul\":2394:2513   */\n    tag_99:\n        /* \"#utility.yul\":2552:2553   */\n      0x00\n        /* \"#utility.yul\":2577:2630   */\n      tag_101\n        /* \"#utility.yul\":2622:2629   */\n      dup5\n        /* \"#utility.yul\":2613:2619   */\n      dup3\n        /* \"#utility.yul\":2602:2611   */\n      dup6\n        /* \"#utility.yul\":2598:2620   */\n      add\n        /* \"#utility.yul\":2577:2630   */\n      tag_45\n      jump\t// in\n    tag_101:\n        /* \"#utility.yul\":2567:2630   */\n      swap2\n      pop\n        /* \"#utility.yul\":2523:2640   */\n      pop\n        /* \"#utility.yul\":2318:2647   */\n      swap3\n      swap2\n      pop\n      pop\n      jump\t// out\n        /* \"#utility.yul\":2653:2752   */\n    tag_46:\n        /* \"#utility.yul\":2705:2711   */\n      0x00\n        /* \"#utility.yul\":2739:2744   */\n      dup2\n        /* \"#utility.yul\":2733:2745   */\n      mload\n        /* \"#utility.yul\":2723:2745   */\n      swap1\n      pop\n        /* \"#utility.yul\":2653:2752   */\n      swap2\n      swap1\n      pop\n      jump\t// out\n        /* \"#utility.yul\":2758:2927   */\n    tag_47:\n        /* \"#utility.yul\":2842:2853   */\n      0x00\n        /* \"#utility.yul\":2876:2882   */\n      dup3\n        /* \"#utility.yul\":2871:2874   */\n      dup3\n        /* \"#utility.yul\":2864:2883   */\n      mstore\n        /* \"#utility.yul\":2916:2920   */\n      0x20\n        /* \"#utility.yul\":2911:2914   */\n      dup3\n        /* \"#utility.yul\":2907:2921   */\n      add\n        /* \"#utility.yul\":2892:2921   */\n      swap1\n      pop\n        /* \"#utility.yul\":2758:2927   */\n      swap3\n      swap2\n      pop\n      pop\n      jump\t// out\n        /* \"#utility.yul\":2933:3072   */\n    tag_48:\n        /* \"#utility.yul\":3022:3028   */\n      dup3\n        /* \"#utility.yul\":3017:3020   */\n      dup2\n        /* \"#utility.yul\":3012:3015   */\n      dup4\n        /* \"#utility.yul\":3006:3029   */\n      mcopy\n        /* \"#utility.yul\":3063:3064   */\n      0x00\n        /* \"#utility.yul\":3054:3060   */\n      dup4\n        /* \"#utility.yul\":3049:3052   */\n      dup4\n        /* \"#utility.yul\":3045:3061   */\n      add\n        /* \"#utility.yul\":3038:3065   */\n      mstore\n        /* \"#utility.yul\":2933:3072   */\n      pop\n      pop\n      pop\n      jump\t// out\n        /* \"#utility.yul\":3078:3180   */\n    tag_49:\n        /* \"#utility.yul\":3119:3125   */\n      0x00\n        /* \"#utility.yul\":3170:3172   */\n      0x1f\n        /* \"#utility.yul\":3166:3173   */\n      not\n        /* \"#utility.yul\":3161:3163   */\n      0x1f\n        /* \"#utility.yul\":3154:3159   */\n      dup4\n        /* \"#utility.yul\":3150:3164   */\n      add\n        /* \"#utility.yul\":3146:3174   */\n      and\n        /* \"#utility.yul\":3136:3174   */\n      swap1\n      pop\n        /* \"#utility.yul\":3078:3180   */\n      swap2\n      swap1\n      pop\n      jump\t// out\n        /* \"#utility.yul\":3186:3563   */\n    tag_50:\n        /* \"#utility.yul\":3274:3277   */\n      0x00\n        /* \"#utility.yul\":3302:3341   */\n      tag_107\n        /* \"#utility.yul\":3335:3340   */\n      dup3\n        /* \"#utility.yul\":3302:3341   */\n      tag_46\n      jump\t// in\n    tag_107:\n        /* \"#utility.yul\":3357:3428   */\n      tag_108\n        /* \"#utility.yul\":3421:3427   */\n      dup2\n        /* \"#utility.yul\":3416:3419   */\n      dup6\n        /* \"#utility.yul\":3357:3428   */\n      tag_47\n      jump\t// in\n    tag_108:\n        /* \"#utility.yul\":3350:3428   */\n      swap4\n      pop\n        /* \"#utility.yul\":3437:3502   */\n      tag_109\n        /* \"#utility.yul\":3495:3501   */\n      dup2\n        /* \"#utility.yul\":3490:3493   */\n      dup6\n        /* \"#utility.yul\":3483:3487   */\n      0x20\n        /* \"#utility.yul\":3476:3481   */\n      dup7\n        /* \"#utility.yul\":3472:3488   */\n      add\n        /* \"#utility.yul\":3437:3502   */\n      tag_48\n      jump\t// in\n    tag_109:\n        /* \"#utility.yul\":3527:3556   */\n      tag_110\n        /* \"#utility.yul\":3549:3555   */\n      dup2\n        /* \"#utility.yul\":3527:3556   */\n      tag_49\n      jump\t// in\n    tag_110:\n        /* \"#utility.yul\":3522:3525   */\n      dup5\n        /* \"#utility.yul\":3518:3557   */\n      add\n        /* \"#utility.yul\":3511:3557   */\n      swap2\n      pop\n        /* \"#utility.yul\":3278:3563   */\n      pop\n        /* \"#utility.yul\":3186:3563   */\n      swap3\n      swap2\n      pop\n      pop\n      jump\t// out\n        /* \"#utility.yul\":3569:3882   */\n    tag_15:\n        /* \"#utility.yul\":3682:3686   */\n      0x00\n        /* \"#utility.yul\":3720:3722   */\n      0x20\n        /* \"#utility.yul\":3709:3718   */\n      dup3\n        /* \"#utility.yul\":3705:3723   */\n      add\n        /* \"#utility.yul\":3697:3723   */\n      swap1\n      pop\n        /* \"#utility.yul\":3769:3778   */\n      dup2\n        /* \"#utility.yul\":3763:3767   */\n      dup2\n        /* \"#utility.yul\":3759:3779   */\n      sub\n        /* \"#utility.yul\":3755:3756   */\n      0x00\n        /* \"#utility.yul\":3744:3753   */\n      dup4\n        /* \"#utility.yul\":3740:3757   */\n      add\n        /* \"#utility.yul\":3733:3780   */\n      mstore\n        /* \"#utility.yul\":3797:3875   */\n      tag_112\n        /* \"#utility.yul\":3870:3874   */\n      dup2\n        /* \"#utility.yul\":3861:3867   */\n      dup5\n        /* \"#utility.yul\":3797:3875   */\n      tag_50\n      jump\t// in\n    tag_112:\n        /* \"#utility.yul\":3789:3875   */\n      swap1\n      pop\n        /* \"#utility.yul\":3569:3882   */\n      swap3\n      swap2\n      pop\n      pop\n      jump\t// out\n        /* \"#utility.yul\":3888:3985   */\n    tag_51:\n        /* \"#utility.yul\":3947:3953   */\n      0x00\n        /* \"#utility.yul\":3975:3978   */\n      dup3\n        /* \"#utility.yul\":3965:3978   */\n      swap1\n      pop\n        /* \"#utility.yul\":3888:3985   */\n      swap3\n      swap2\n      pop\n      pop\n      jump\t// out\n        /* \"#utility.yul\":3991:4171   */\n    tag_52:\n        /* \"#utility.yul\":4039:4116   */\n      0x4e487b7100000000000000000000000000000000000000000000000000000000\n        /* \"#utility.yul\":4036:4037   */\n      0x00\n        /* \"#utility.yul\":4029:4117   */\n      mstore\n        /* \"#utility.yul\":4136:4140   */\n      0x41\n        /* \"#utility.yul\":4133:4134   */\n      0x04\n        /* \"#utility.yul\":4126:4141   */\n      mstore\n        /* \"#utility.yul\":4160:4164   */\n      0x24\n        /* \"#utility.yul\":4157:4158   */\n      0x00\n        /* \"#utility.yul\":4150:4165   */\n      revert\n        /* \"#utility.yul\":4177:4357   */\n    tag_53:\n        /* \"#utility.yul\":4225:4302   */\n      0x4e487b7100000000000000000000000000000000000000000000000000000000\n        /* \"#utility.yul\":4222:4223   */\n      0x00\n        /* \"#utility.yul\":4215:4303   */\n      mstore\n        /* \"#utility.yul\":4322:4326   */\n      0x22\n        /* \"#utility.yul\":4319:4320   */\n      0x04\n        /* \"#utility.yul\":4312:4327   */\n      mstore\n        /* \"#utility.yul\":4346:4350   */\n      0x24\n        /* \"#utility.yul\":4343:4344   */\n      0x00\n        /* \"#utility.yul\":4336:4351   */\n      revert\n        /* \"#utility.yul\":4363:4683   */\n    tag_24:\n        /* \"#utility.yul\":4407:4413   */\n      0x00\n        /* \"#utility.yul\":4444:4445   */\n      0x02\n        /* \"#utility.yul\":4438:4442   */\n      dup3\n        /* \"#utility.yul\":4434:4446   */\n      div\n        /* \"#utility.yul\":4424:4446   */\n      swap1\n      pop\n        /* \"#utility.yul\":4491:4492   */\n      0x01\n        /* \"#utility.yul\":4485:4489   */\n      dup3\n        /* \"#utility.yul\":4481:4493   */\n      and\n        /* \"#utility.yul\":4512:4530   */\n      dup1\n        /* \"#utility.yul\":4502:4583   */\n      tag_117\n      jumpi\n        /* \"#utility.yul\":4568:4572   */\n      0x7f\n        /* \"#utility.yul\":4560:4566   */\n      dup3\n        /* \"#utility.yul\":4556:4573   */\n      and\n        /* \"#utility.yul\":4546:4573   */\n      swap2\n      pop\n        /* \"#utility.yul\":4502:4583   */\n    tag_117:\n        /* \"#utility.yul\":4630:4632   */\n      0x20\n        /* \"#utility.yul\":4622:4628   */\n      dup3\n        /* \"#utility.yul\":4619:4633   */\n      lt\n        /* \"#utility.yul\":4599:4617   */\n      dup2\n        /* \"#utility.yul\":4596:4634   */\n      sub\n        /* \"#utility.yul\":4593:4677   */\n      tag_118\n      jumpi\n        /* \"#utility.yul\":4649:4667   */\n      tag_119\n      tag_53\n      jump\t// in\n    tag_119:\n        /* \"#utility.yul\":4593:4677   */\n    tag_118:\n        /* \"#utility.yul\":4414:4683   */\n      pop\n        /* \"#utility.yul\":4363:4683   */\n      swap2\n      swap1\n      pop\n      jump\t// out\n        /* \"#utility.yul\":4689:4830   */\n    tag_54:\n        /* \"#utility.yul\":4738:4742   */\n      0x00\n        /* \"#utility.yul\":4761:4764   */\n      dup2\n        /* \"#utility.yul\":4753:4764   */\n      swap1\n      pop\n        /* \"#utility.yul\":4784:4787   */\n      dup2\n        /* \"#utility.yul\":4781:4782   */\n      0x00\n        /* \"#utility.yul\":4774:4788   */\n      mstore\n        /* \"#utility.yul\":4818:4822   */\n      0x20\n        /* \"#utility.yul\":4815:4816   */\n      0x00\n        /* \"#utility.yul\":4805:4823   */\n      keccak256\n        /* \"#utility.yul\":4797:4823   */\n      swap1\n      pop\n        /* \"#utility.yul\":4689:4830   */\n      swap2\n      swap1\n      pop\n      jump\t// out\n        /* \"#utility.yul\":4836:4929   */\n    tag_55:\n        /* \"#utility.yul\":4873:4879   */\n      0x00\n        /* \"#utility.yul\":4920:4922   */\n      0x20\n        /* \"#utility.yul\":4915:4917   */\n      0x1f\n        /* \"#utility.yul\":4908:4913   */\n      dup4\n        /* \"#utility.yul\":4904:4918   */\n      add\n        /* \"#utility.yul\":4900:4923   */\n      div\n        /* \"#utility.yul\":4890:4923   */\n      swap1\n      pop\n        /* \"#utility.yul\":4836:4929   */\n      swap2\n      swap1\n      pop\n      jump\t// out\n        /* \"#utility.yul\":4935:5042   */\n    tag_56:\n        /* \"#utility.yul\":4979:4987   */\n      0x00\n        /* \"#utility.yul\":5029:5034   */\n      dup3\n        /* \"#utility.yul\":5023:5027   */\n      dup3\n        /* \"#utility.yul\":5019:5035   */\n      shl\n        /* \"#utility.yul\":4998:5035   */\n      swap1\n      pop\n        /* \"#utility.yul\":4935:5042   */\n      swap3\n      swap2\n      pop\n      pop\n      jump\t// out\n        /* \"#utility.yul\":5048:5441   */\n    tag_57:\n        /* \"#utility.yul\":5117:5123   */\n      0x00\n        /* \"#utility.yul\":5167:5168   */\n      0x08\n        /* \"#utility.yul\":5155:5165   */\n      dup4\n        /* \"#utility.yul\":5151:5169   */\n      mul\n        /* \"#utility.yul\":5190:5287   */\n      tag_124\n        /* \"#utility.yul\":5220:5286   */\n      0xffffffffffffffffffffffffffffffffffffffffffffffffffffffffffffffff\n        /* \"#utility.yul\":5209:5218   */\n      dup3\n        /* \"#utility.yul\":5190:5287   */\n      tag_56\n      jump\t// in\n    tag_124:\n        /* \"#utility.yul\":5308:5347   */\n      tag_125\n        /* \"#utility.yul\":5338:5346   */\n      dup7\n        /* \"#utility.yul\":5327:5336   */\n      dup4\n        /* \"#utility.yul\":5308:5347   */\n      tag_56\n      jump\t// in\n    tag_125:\n        /* \"#utility.yul\":5296:5347   */\n      swap6\n      pop\n        /* \"#utility.yul\":5380:5384   */\n      dup1\n        /* \"#utility.yul\":5376:5385   */\n      not\n        /* \"#utility.yul\":5369:5374   */\n      dup5\n        /* \"#utility.yul\":5365:5386   */\n      and\n        /* \"#utility.yul\":5356:5386   */\n      swap4\n      pop\n        /* \"#utility.yul\":5429:5433   */\n      dup1\n        /* \"#utility.yul\":5419:5427   */\n      dup7\n        /* \"#utility.yul\":5415:5434   */\n      and\n        /* \"#utility.yul\":5408:5413   */\n      dup5\n        /* \"#utility.yul\":5405:5435   */\n      or\n        /* \"#utility.yul\":5395:5435   */\n      swap3\n      pop\n        /* \"#utility.yul\":5124:5441   */\n      pop\n      pop\n        /* \"#utility.yul\":5048:5441   */\n      swap4\n      swap3\n      pop\n      pop\n      pop\n      jump\t// out\n        /* \"#utility.yul\":5447:5524   */\n    tag_58:\n        /* \"#utility.yul\":5484:5491   */\n      0x00\n        /* \"#utility.yul\":5513:5518   */\n      dup2\n        /* \"#utility.yul\":5502:5518   */\n      swap1\n      pop\n        /* \"#utility.yul\":5447:5524   */\n      swap2\n      swap1\n      pop\n      jump\t// out\n        /* \"#utility.yul\":5530:5590   */\n    tag_59:\n        /* \"#utility.yul\":5558:5561   */\n      0x00\n        /* \"#utility.yul\":5579:5584   */\n      dup2\n        /* \"#utility.yul\":5572:5584   */\n      swap1\n      pop\n        /* \"#utility.yul\":5530:5590   */\n      swap2\n      swap1\n      pop\n      jump\t// out\n        /* \"#utility.yul\":5596:5738   */\n    tag_60:\n        /* \"#utility.yul\":5646:5655   */\n      0x00\n        /* \"#utility.yul\":5679:5732   */\n      tag_129\n        /* \"#utility.yul\":5697:5731   */\n      tag_130\n        /* \"#utility.yul\":5706:5730   */\n      tag_131\n        /* \"#utility.yul\":5724:5729   */\n      dup5\n        /* \"#utility.yul\":5706:5730   */\n      tag_58\n      jump\t// in\n    tag_131:\n        /* \"#utility.yul\":5697:5731   */\n      tag_59\n      jump\t// in\n    tag_130:\n        /* \"#utility.yul\":5679:5732   */\n      tag_58\n      jump\t// in\n    tag_129:\n        /* \"#utility.yul\":5666:5732   */\n      swap1\n      pop\n        /* \"#utility.yul\":5596:5738   */\n      swap2\n      swap1\n      pop\n      jump\t// out\n        /* \"#utility.yul\":5744:5819   */\n    tag_61:\n        /* \"#utility.yul\":5787:5790   */\n      0x00\n        /* \"#utility.yul\":5808:5813   */\n      dup2\n        /* \"#utility.yul\":5801:5813   */\n      swap1\n      pop\n        /* \"#utility.yul\":5744:5819   */\n      swap2\n      swap1\n      pop\n      jump\t// out\n        /* \"#utility.yul\":5825:6094   */\n    tag_62:\n        /* \"#utility.yul\":5935:5974   */\n      tag_134\n        /* \"#utility.yul\":5966:5973   */\n      dup4\n        /* \"#utility.yul\":5935:5974   */\n      tag_60\n      jump\t// in\n    tag_134:\n        /* \"#utility.yul\":5996:6087   */\n      tag_135\n        /* \"#utility.yul\":6045:6086   */\n      tag_136\n        /* \"#utility.yul\":6069:6085   */\n      dup3\n        /* \"#utility.yul\":6045:6086   */\n      tag_61\n      jump\t// in\n    tag_136:\n        /* \"#utility.yul\":6037:6043   */\n      dup5\n        /* \"#utility.yul\":6030:6034   */\n      dup5\n        /* \"#utility.yul\":6024:6035   */\n      sload\n        /* \"#utility.yul\":5996:6087   */\n      tag_57\n      jump\t// in\n    tag_135:\n        /* \"#utility.yul\":5990:5994   */\n      dup3\n        /* \"#utility.yul\":5983:6088   */\n      sstore\n        /* \"#utility.yul\":5901:6094   */\n      pop\n        /* \"#utility.yul\":5825:6094   */\n      pop\n      pop\n      pop\n      jump\t// out\n        /* \"#utility.yul\":6100:6173   */\n    tag_63:\n        /* \"#utility.yul\":6145:6148   */\n      0x00\n        /* \"#utility.yul\":6100:6173   */\n      swap1\n      jump\t// out\n        /* \"#utility.yul\":6179:6368   */\n    tag_64:\n        /* \"#utility.yul\":6256:6288   */\n      tag_139\n      tag_63\n      jump\t// in\n    tag_139:\n        /* \"#utility.yul\":6297:6362   */\n      tag_140\n        /* \"#utility.yul\":6355:6361   */\n      dup2\n        /* \"#utility.yul\":6347:6353   */\n      dup5\n        /* \"#utility.yul\":6341:6345   */\n      dup5\n        /* \"#utility.yul\":6297:6362   */\n      tag_62\n      jump\t// in\n    tag_140:\n        /* \"#utility.yul\":6232:6368   */\n      pop\n        /* \"#utility.yul\":6179:6368   */\n      pop\n      pop\n      jump\t// out\n        /* \"#utility.yul\":6374:6560   */\n    tag_65:\n        /* \"#utility.yul\":6434:6554   */\n    tag_142:\n        /* \"#utility.yul\":6451:6454   */\n      dup2\n        /* \"#utility.yul\":6444:6449   */\n      dup2\n        /* \"#utility.yul\":6441:6455   */\n      lt\n        /* \"#utility.yul\":6434:6554   */\n      iszero\n      tag_144\n      jumpi\n        /* \"#utility.yul\":6505:6544   */\n      tag_145\n        /* \"#utility.yul\":6542:6543   */\n      0x00\n        /* \"#utility.yul\":6535:6540   */\n      dup3\n        /* \"#utility.yul\":6505:6544   */\n      tag_64\n      jump\t// in\n    tag_145:\n        /* \"#utility.yul\":6478:6479   */\n      0x01\n        /* \"#utility.yul\":6471:6476   */\n      dup2\n        /* \"#utility.yul\":6467:6480   */\n      add\n        /* \"#utility.yul\":6458:6480   */\n      swap1\n      pop\n        /* \"#utility.yul\":6434:6554   */\n      jump(tag_142)\n    tag_144:\n        /* \"#utility.yul\":6374:6560   */\n      pop\n      pop\n      jump\t// out\n        /* \"#utility.yul\":6566:7109   */\n    tag_66:\n        /* \"#utility.yul\":6667:6669   */\n      0x1f\n        /* \"#utility.yul\":6662:6665   */\n      dup3\n        /* \"#utility.yul\":6659:6670   */\n      gt\n        /* \"#utility.yul\":6656:7102   */\n      iszero\n      tag_147\n      jumpi\n        /* \"#utility.yul\":6701:6739   */\n      tag_148\n        /* \"#utility.yul\":6733:6738   */\n      dup2\n        /* \"#utility.yul\":6701:6739   */\n      tag_54\n      jump\t// in\n    tag_148:\n        /* \"#utility.yul\":6785:6814   */\n      tag_149\n        /* \"#utility.yul\":6803:6813   */\n      dup5\n        /* \"#utility.yul\":6785:6814   */\n      tag_55\n      jump\t// in\n    tag_149:\n        /* \"#utility.yul\":6775:6783   */\n      dup2\n        /* \"#utility.yul\":6771:6815   */\n      add\n        /* \"#utility.yul\":6968:6970   */\n      0x20\n        /* \"#utility.yul\":6956:6966   */\n      dup6\n        /* \"#utility.yul\":6953:6971   */\n      lt\n        /* \"#utility.yul\":6950:6999   */\n      iszero\n      tag_150\n      jumpi\n        /* \"#utility.yul\":6989:6997   */\n      dup2\n        /* \"#utility.yul\":6974:6997   */\n      swap1\n      pop\n        /* \"#utility.yul\":6950:6999   */\n    tag_150:\n        /* \"#utility.yul\":7012:7092   */\n      tag_151\n        /* \"#utility.yul\":7068:7090   */\n      tag_152\n        /* \"#utility.yul\":7086:7089   */\n      dup6\n        /* \"#utility.yul\":7068:7090   */\n      tag_55\n      jump\t// in\n    tag_152:\n        /* \"#utility.yul\":7058:7066   */\n      dup4\n        /* \"#utility.yul\":7054:7091   */\n      add\n        /* \"#utility.yul\":7041:7052   */\n      dup3\n        /* \"#utility.yul\":7012:7092   */\n      tag_65\n      jump\t// in\n    tag_151:\n        /* \"#utility.yul\":6671:7102   */\n      pop\n      pop\n        /* \"#utility.yul\":6656:7102   */\n    tag_147:\n        /* \"#utility.yul\":6566:7109   */\n      pop\n      pop\n      pop\n      jump\t// out\n        /* \"#utility.yul\":7115:7232   */\n    tag_67:\n        /* \"#utility.yul\":7169:7177   */\n      0x00\n        /* \"#utility.yul\":7219:7224   */\n      dup3\n        /* \"#utility.yul\":7213:7217   */\n      dup3\n        /* \"#utility.yul\":7209:7225   */\n      shr\n        /* \"#utility.yul\":7188:7225   */\n      swap1\n      pop\n        /* \"#utility.yul\":7115:7232   */\n      swap3\n      swap2\n      pop\n      pop\n      jump\t// out\n        /* \"#utility.yul\":7238:7407   */\n    tag_68:\n        /* \"#utility.yul\":7282:7288   */\n      0x00\n        /* \"#utility.yul\":7315:7366   */\n      tag_155\n        /* \"#utility.yul\":7363:7364   */\n      0x00\n        /* \"#utility.yul\":7359:7365   */\n      not\n        /* \"#utility.yul\":7351:7356   */\n      dup5\n        /* \"#utility.yul\":7348:7349   */\n      0x08\n        /* \"#utility.yul\":7344:7357   */\n      mul\n        /* \"#utility.yul\":7315:7366   */\n      tag_67\n      jump\t// in\n    tag_155:\n        /* \"#utility.yul\":7311:7367   */\n      not\n        /* \"#utility.yul\":7396:7400   */\n      dup1\n        /* \"#utility.yul\":7390:7394   */\n      dup4\n        /* \"#utility.yul\":7386:7401   */\n      and\n        /* \"#utility.yul\":7376:7401   */\n      swap2\n      pop\n        /* \"#utility.yul\":7289:7407   */\n      pop\n        /* \"#utility.yul\":7238:7407   */\n      swap3\n      swap2\n      pop\n      pop\n      jump\t// out\n        /* \"#utility.yul\":7412:7707   */\n    tag_69:\n        /* \"#utility.yul\":7488:7492   */\n      0x00\n        /* \"#utility.yul\":7634:7663   */\n      tag_157\n        /* \"#utility.yul\":7659:7662   */\n      dup4\n        /* \"#utility.yul\":7653:7657   */\n      dup4\n        /* \"#utility.yul\":7634:7663   */\n      tag_68\n      jump\t// in\n    tag_157:\n        /* \"#utility.yul\":7626:7663   */\n      swap2\n      pop\n        /* \"#utility.yul\":7696:7699   */\n      dup3\n        /* \"#utility.yul\":7693:7694   */\n      0x02\n        /* \"#utility.yul\":7689:7700   */\n      mul\n        /* \"#utility.yul\":7683:7687   */\n      dup3\n        /* \"#utility.yul\":7680:7701   */\n      or\n        /* \"#utility.yul\":7672:7701   */\n      swap1\n      pop\n        /* \"#utility.yul\":7412:7707   */\n      swap3\n      swap2\n      pop\n      pop\n      jump\t// out\n        /* \"#utility.yul\":7712:9115   */\n    tag_22:\n        /* \"#utility.yul\":7836:7880   */\n      tag_159\n        /* \"#utility.yul\":7876:7879   */\n      dup4\n        /* \"#utility.yul\":7871:7874   */\n      dup4\n        /* \"#utility.yul\":7836:7880   */\n      tag_51\n      jump\t// in\n    tag_159:\n        /* \"#utility.yul\":7945:7963   */\n      0xffffffffffffffff\n        /* \"#utility.yul\":7937:7943   */\n      dup2\n        /* \"#utility.yul\":7934:7964   */\n      gt\n        /* \"#utility.yul\":7931:7987   */\n      iszero\n      tag_160\n      jumpi\n        /* \"#utility.yul\":7967:7985   */\n      tag_161\n      tag_52\n      jump\t// in\n    tag_161:\n        /* \"#utility.yul\":7931:7987   */\n    tag_160:\n        /* \"#utility.yul\":8011:8049   */\n      tag_162\n        /* \"#utility.yul\":8043:8047   */\n      dup3\n        /* \"#utility.yul\":8037:8048   */\n      sload\n        /* \"#utility.yul\":8011:8049   */\n      tag_24\n      jump\t// in\n    tag_162:\n        /* \"#utility.yul\":8096:8163   */\n      tag_163\n        /* \"#utility.yul\":8156:8162   */\n      dup3\n        /* \"#utility.yul\":8148:8154   */\n      dup3\n        /* \"#utility.yul\":8142:8146   */\n      dup6\n        /* \"#utility.yul\":8096:8163   */\n      tag_66\n      jump\t// in\n    tag_163:\n        /* \"#utility.yul\":8190:8191   */\n      0x00\n        /* \"#utility.yul\":8219:8221   */\n      0x1f\n        /* \"#utility.yul\":8211:8217   */\n      dup4\n        /* \"#utility.yul\":8208:8222   */\n      gt\n        /* \"#utility.yul\":8236:8237   */\n      0x01\n        /* \"#utility.yul\":8231:8863   */\n      dup2\n      eq\n      tag_165\n      jumpi\n        /* \"#utility.yul\":8907:8908   */\n      0x00\n        /* \"#utility.yul\":8924:8930   */\n      dup5\n        /* \"#utility.yul\":8921:9005   */\n      iszero\n      tag_166\n      jumpi\n        /* \"#utility.yul\":8980:8989   */\n      dup3\n        /* \"#utility.yul\":8975:8978   */\n      dup8\n        /* \"#utility.yul\":8971:8990   */\n      add\n        /* \"#utility.yul\":8958:8991   */\n      calldataload\n        /* \"#utility.yul\":8949:8991   */\n      swap1\n      pop\n        /* \"#utility.yul\":8921:9005   */\n    tag_166:\n        /* \"#utility.yul\":9031:9098   */\n      tag_167\n        /* \"#utility.yul\":9091:9097   */\n      dup6\n        /* \"#utility.yul\":9084:9089   */\n      dup3\n        /* \"#utility.yul\":9031:9098   */\n      tag_69\n      jump\t// in\n    tag_167:\n        /* \"#utility.yul\":9025:9029   */\n      dup7\n        /* \"#utility.yul\":9018:9099   */\n      sstore\n        /* \"#utility.yul\":8880:9109   */\n      pop\n        /* \"#utility.yul\":8201:9109   */\n      jump(tag_164)\n        /* \"#utility.yul\":8231:8863   */\n    tag_165:\n        /* \"#utility.yul\":8283:8287   */\n      0x1f\n        /* \"#utility.yul\":8279:8288   */\n      not\n        /* \"#utility.yul\":8271:8277   */\n      dup5\n        /* \"#utility.yul\":8267:8289   */\n      and\n        /* \"#utility.yul\":8317:8354   */\n      tag_168\n        /* \"#utility.yul\":8349:8353   */\n      dup7\n        /* \"#utility.yul\":8317:8354   */\n      tag_54\n      jump\t// in\n    tag_168:\n        /* \"#utility.yul\":8376:8377   */\n      0x00\n        /* \"#utility.yul\":8390:8605   */\n    tag_169:\n        /* \"#utility.yul\":8404:8411   */\n      dup3\n        /* \"#utility.yul\":8401:8402   */\n      dup2\n        /* \"#utility.yul\":8398:8412   */\n      lt\n        /* \"#utility.yul\":8390:8605   */\n      iszero\n      tag_171\n      jumpi\n        /* \"#utility.yul\":8490:8499   */\n      dup5\n        /* \"#utility.yul\":8485:8488   */\n      dup10\n        /* \"#utility.yul\":8481:8500   */\n      add\n        /* \"#utility.yul\":8468:8501   */\n      calldataload\n        /* \"#utility.yul\":8460:8466   */\n      dup3\n        /* \"#utility.yul\":8453:8502   */\n      sstore\n        /* \"#utility.yul\":8541:8542   */\n      0x01\n        /* \"#utility.yul\":8533:8539   */\n      dup3\n        /* \"#utility.yul\":8529:8543   */\n      add\n        /* \"#utility.yul\":8519:8543   */\n      swap2\n      pop\n        /* \"#utility.yul\":8588:8590   */\n      0x20\n        /* \"#utility.yul\":8577:8586   */\n      dup6\n        /* \"#utility.yul\":8573:8591   */\n      add\n        /* \"#utility.yul\":8560:8591   */\n      swap5\n      pop\n        /* \"#utility.yul\":8427:8431   */\n      0x20\n        /* \"#utility.yul\":8424:8425   */\n      dup2\n        /* \"#utility.yul\":8420:8432   */\n      add\n        /* \"#utility.yul\":8415:8432   */\n      swap1\n      pop\n        /* \"#utility.yul\":8390:8605   */\n      jump(tag_169)\n    tag_171:\n        /* \"#utility.yul\":8633:8639   */\n      dup7\n        /* \"#utility.yul\":8624:8631   */\n      dup4\n        /* \"#utility.yul\":8621:8640   */\n      lt\n        /* \"#utility.yul\":8618:8804   */\n      iszero\n      tag_172\n      jumpi\n        /* \"#utility.yul\":8698:8707   */\n      dup5\n        /* \"#utility.yul\":8693:8696   */\n      dup10\n        /* \"#utility.yul\":8689:8708   */\n      add\n        /* \"#utility.yul\":8676:8709   */\n      calldataload\n        /* \"#utility.yul\":8741:8789   */\n      tag_173\n        /* \"#utility.yul\":8783:8787   */\n      0x1f\n        /* \"#utility.yul\":8775:8781   */\n      dup10\n        /* \"#utility.yul\":8771:8788   */\n      and\n        /* \"#utility.yul\":8760:8769   */\n      dup3\n        /* \"#utility.yul\":8741:8789   */\n      tag_68\n      jump\t// in\n    tag_173:\n        /* \"#utility.yul\":8733:8739   */\n      dup4\n        /* \"#utility.yul\":8726:8790   */\n      sstore\n        /* \"#utility.yul\":8641:8804   */\n      pop\n        /* \"#utility.yul\":8618:8804   */\n    tag_172:\n        /* \"#utility.yul\":8850:8851   */\n      0x01\n        /* \"#utility.yul\":8846:8847   */\n      0x02\n        /* \"#utility.yul\":8838:8844   */\n      dup9\n        /* \"#utility.yul\":8834:8848   */\n      mul\n        /* \"#utility.yul\":8830:8852   */\n      add\n        /* \"#utility.yul\":8824:8828   */\n      dup9\n        /* \"#utility.yul\":8817:8853   */\n      sstore\n        /* \"#utility.yul\":8238:8863   */\n      pop\n      pop\n      pop\n        /* \"#utility.yul\":8201:9109   */\n    tag_164:\n      pop\n        /* \"#utility.yul\":7811:9115   */\n      pop\n      pop\n      pop\n        /* \"#utility.yul\":7712:9115   */\n      pop\n      pop\n      pop\n      jump\t// out\n\n    auxdata: 0xa264697066735822122063792c9af542c73d62df534b66cfe6106cfdc5226d54b307965b01ea3c52541a64736f6c634300081a0033\n}\n",
				"bytecode": {
					"linkReferences": {},
					"object": "6080604052348015600e575f80fd5b5061077b8061001c5f395ff3fe608060405234801561000f575f80fd5b506004361061003f575f3560e01c80630aba9e211461004357806381e0f87d1461005f578063c982818d1461008f575b5f80fd5b61005d600480360381019061005891906102de565b6100bf565b005b61007960048036038101906100749190610383565b61010f565b604051610086919061041e565b60405180910390f35b6100a960048036038101906100a49190610383565b6101a9565b6040516100b6919061041e565b60405180910390f35b81815f803373ffffffffffffffffffffffffffffffffffffffff1673ffffffffffffffffffffffffffffffffffffffff1681526020019081526020015f20918261010a929190610678565b505050565b5f602052805f5260405f205f91509050805461012a906104a2565b80601f0160208091040260200160405190810160405280929190818152602001828054610156906104a2565b80156101a15780601f10610178576101008083540402835291602001916101a1565b820191905f5260205f20905b81548152906001019060200180831161018457829003601f168201915b505050505081565b60605f808373ffffffffffffffffffffffffffffffffffffffff1673ffffffffffffffffffffffffffffffffffffffff1681526020019081526020015f2080546101f2906104a2565b80601f016020809104026020016040519081016040528092919081815260200182805461021e906104a2565b80156102695780601f1061024057610100808354040283529160200191610269565b820191905f5260205f20905b81548152906001019060200180831161024c57829003601f168201915b50505050509050919050565b5f80fd5b5f80fd5b5f80fd5b5f80fd5b5f80fd5b5f8083601f84011261029e5761029d61027d565b5b8235905067ffffffffffffffff8111156102bb576102ba610281565b5b6020830191508360018202830111156102d7576102d6610285565b5b9250929050565b5f80602083850312156102f4576102f3610275565b5b5f83013567ffffffffffffffff81111561031157610310610279565b5b61031d85828601610289565b92509250509250929050565b5f73ffffffffffffffffffffffffffffffffffffffff82169050919050565b5f61035282610329565b9050919050565b61036281610348565b811461036c575f80fd5b50565b5f8135905061037d81610359565b92915050565b5f6020828403121561039857610397610275565b5b5f6103a58482850161036f565b91505092915050565b5f81519050919050565b5f82825260208201905092915050565b8281835e5f83830152505050565b5f601f19601f8301169050919050565b5f6103f0826103ae565b6103fa81856103b8565b935061040a8185602086016103c8565b610413816103d6565b840191505092915050565b5f6020820190508181035f83015261043681846103e6565b905092915050565b5f82905092915050565b7f4e487b71000000000000000000000000000000000000000000000000000000005f52604160045260245ffd5b7f4e487b71000000000000000000000000000000000000000000000000000000005f52602260045260245ffd5b5f60028204905060018216806104b957607f821691505b6020821081036104cc576104cb610475565b5b50919050565b5f819050815f5260205f209050919050565b5f6020601f8301049050919050565b5f82821b905092915050565b5f6008830261052e7fffffffffffffffffffffffffffffffffffffffffffffffffffffffffffffffff826104f3565b61053886836104f3565b95508019841693508086168417925050509392505050565b5f819050919050565b5f819050919050565b5f61057c61057761057284610550565b610559565b610550565b9050919050565b5f819050919050565b61059583610562565b6105a96105a182610583565b8484546104ff565b825550505050565b5f90565b6105bd6105b1565b6105c881848461058c565b505050565b5b818110156105eb576105e05f826105b5565b6001810190506105ce565b5050565b601f82111561063057610601816104d2565b61060a846104e4565b81016020851015610619578190505b61062d610625856104e4565b8301826105cd565b50505b505050565b5f82821c905092915050565b5f6106505f1984600802610635565b1980831691505092915050565b5f6106688383610641565b9150826002028217905092915050565b610682838361043e565b67ffffffffffffffff81111561069b5761069a610448565b5b6106a582546104a2565b6106b08282856105ef565b5f601f8311600181146106dd575f84156106cb578287013590505b6106d5858261065d565b86555061073c565b601f1984166106eb866104d2565b5f5b82811015610712578489013582556001820191506020850194506020810190506106ed565b8683101561072f578489013561072b601f891682610641565b8355505b6001600288020188555050505b5050505050505056fea264697066735822122063792c9af542c73d62df534b66cfe6106cfdc5226d54b307965b01ea3c52541a64736f6c634300081a0033",
					"opcodes": "PUSH1 0x80 PUSH1 0x40 MSTORE CALLVALUE DUP1 ISZERO PUSH1 0xE JUMPI PUSH0 DUP1 REVERT JUMPDEST POP PUSH2 0x77B DUP1 PUSH2 0x1C PUSH0 CODECOPY PUSH0 RETURN INVALID PUSH1 0x80 PUSH1 0x40 MSTORE CALLVALUE DUP1 ISZERO PUSH2 0xF JUMPI PUSH0 DUP1 REVERT JUMPDEST POP PUSH1 0x4 CALLDATASIZE LT PUSH2 0x3F JUMPI PUSH0 CALLDATALOAD PUSH1 0xE0 SHR DUP1 PUSH4 0xABA9E21 EQ PUSH2 0x43 JUMPI DUP1 PUSH4 0x81E0F87D EQ PUSH2 0x5F JUMPI DUP1 PUSH4 0xC982818D EQ PUSH2 0x8F JUMPI JUMPDEST PUSH0 DUP1 REVERT JUMPDEST PUSH2 0x5D PUSH1 0x4 DUP1 CALLDATASIZE SUB DUP2 ADD SWAP1 PUSH2 0x58 SWAP2 SWAP1 PUSH2 0x2DE JUMP JUMPDEST PUSH2 0xBF JUMP JUMPDEST STOP JUMPDEST PUSH2 0x79 PUSH1 0x4 DUP1 CALLDATASIZE SUB DUP2 ADD SWAP1 PUSH2 0x74 SWAP2 SWAP1 PUSH2 0x383 JUMP JUMPDEST PUSH2 0x10F JUMP JUMPDEST PUSH1 0x40 MLOAD PUSH2 0x86 SWAP2 SWAP1 PUSH2 0x41E JUMP JUMPDEST PUSH1 0x40 MLOAD DUP1 SWAP2 SUB SWAP1 RETURN JUMPDEST PUSH2 0xA9 PUSH1 0x4 DUP1 CALLDATASIZE SUB DUP2 ADD SWAP1 PUSH2 0xA4 SWAP2 SWAP1 PUSH2 0x383 JUMP JUMPDEST PUSH2 0x1A9 JUMP JUMPDEST PUSH1 0x40 MLOAD PUSH2 0xB6 SWAP2 SWAP1 PUSH2 0x41E JUMP JUMPDEST PUSH1 0x40 MLOAD DUP1 SWAP2 SUB SWAP1 RETURN JUMPDEST DUP2 DUP2 PUSH0 DUP1 CALLER PUSH20 0xFFFFFFFFFFFFFFFFFFFFFFFFFFFFFFFFFFFFFFFF AND PUSH20 0xFFFFFFFFFFFFFFFFFFFFFFFFFFFFFFFFFFFFFFFF AND DUP2 MSTORE PUSH1 0x20 ADD SWAP1 DUP2 MSTORE PUSH1 0x20 ADD PUSH0 KECCAK256 SWAP2 DUP3 PUSH2 0x10A SWAP3 SWAP2 SWAP1 PUSH2 0x678 JUMP JUMPDEST POP POP POP JUMP JUMPDEST PUSH0 PUSH1 0x20 MSTORE DUP1 PUSH0 MSTORE PUSH1 0x40 PUSH0 KECCAK256 PUSH0 SWAP2 POP SWAP1 POP DUP1 SLOAD PUSH2 0x12A SWAP1 PUSH2 0x4A2 JUMP JUMPDEST DUP1 PUSH1 0x1F ADD PUSH1 0x20 DUP1 SWAP2 DIV MUL PUSH1 0x20 ADD PUSH1 0x40 MLOAD SWAP1 DUP2 ADD PUSH1 0x40 MSTORE DUP1 SWAP3 SWAP2 SWAP1 DUP2 DUP2 MSTORE PUSH1 0x20 ADD DUP3 DUP1 SLOAD PUSH2 0x156 SWAP1 PUSH2 0x4A2 JUMP JUMPDEST DUP1 ISZERO PUSH2 0x1A1 JUMPI DUP1 PUSH1 0x1F LT PUSH2 0x178 JUMPI PUSH2 0x100 DUP1 DUP4 SLOAD DIV MUL DUP4 MSTORE SWAP2 PUSH1 0x20 ADD SWAP2 PUSH2 0x1A1 JUMP JUMPDEST DUP3 ADD SWAP2 SWAP1 PUSH0 MSTORE PUSH1 0x20 PUSH0 KECCAK256 SWAP1 JUMPDEST DUP2 SLOAD DUP2 MSTORE SWAP1 PUSH1 0x1 ADD SWAP1 PUSH1 0x20 ADD DUP1 DUP4 GT PUSH2 0x184 JUMPI DUP3 SWAP1 SUB PUSH1 0x1F AND DUP3 ADD SWAP2 JUMPDEST POP POP POP POP POP DUP2 JUMP JUMPDEST PUSH1 0x60 PUSH0 DUP1 DUP4 PUSH20 0xFFFFFFFFFFFFFFFFFFFFFFFFFFFFFFFFFFFFFFFF AND PUSH20 0xFFFFFFFFFFFFFFFFFFFFFFFFFFFFFFFFFFFFFFFF AND DUP2 MSTORE PUSH1 0x20 ADD SWAP1 DUP2 MSTORE PUSH1 0x20 ADD PUSH0 KECCAK256 DUP1 SLOAD PUSH2 0x1F2 SWAP1 PUSH2 0x4A2 JUMP JUMPDEST DUP1 PUSH1 0x1F ADD PUSH1 0x20 DUP1 SWAP2 DIV MUL PUSH1 0x20 ADD PUSH1 0x40 MLOAD SWAP1 DUP2 ADD PUSH1 0x40 MSTORE DUP1 SWAP3 SWAP2 SWAP1 DUP2 DUP2 MSTORE PUSH1 0x20 ADD DUP3 DUP1 SLOAD PUSH2 0x21E SWAP1 PUSH2 0x4A2 JUMP JUMPDEST DUP1 ISZERO PUSH2 0x269 JUMPI DUP1 PUSH1 0x1F LT PUSH2 0x240 JUMPI PUSH2 0x100 DUP1 DUP4 SLOAD DIV MUL DUP4 MSTORE SWAP2 PUSH1 0x20 ADD SWAP2 PUSH2 0x269 JUMP JUMPDEST DUP3 ADD SWAP2 SWAP1 PUSH0 MSTORE PUSH1 0x20 PUSH0 KECCAK256 SWAP1 JUMPDEST DUP2 SLOAD DUP2 MSTORE SWAP1 PUSH1 0x1 ADD SWAP1 PUSH1 0x20 ADD DUP1 DUP4 GT PUSH2 0x24C JUMPI DUP3 SWAP1 SUB PUSH1 0x1F AND DUP3 ADD SWAP2 JUMPDEST POP POP POP POP POP SWAP1 POP SWAP2 SWAP1 POP JUMP JUMPDEST PUSH0 DUP1 REVERT JUMPDEST PUSH0 DUP1 REVERT JUMPDEST PUSH0 DUP1 REVERT JUMPDEST PUSH0 DUP1 REVERT JUMPDEST PUSH0 DUP1 REVERT JUMPDEST PUSH0 DUP1 DUP4 PUSH1 0x1F DUP5 ADD SLT PUSH2 0x29E JUMPI PUSH2 0x29D PUSH2 0x27D JUMP JUMPDEST JUMPDEST DUP3 CALLDATALOAD SWAP1 POP PUSH8 0xFFFFFFFFFFFFFFFF DUP2 GT ISZERO PUSH2 0x2BB JUMPI PUSH2 0x2BA PUSH2 0x281 JUMP JUMPDEST JUMPDEST PUSH1 0x20 DUP4 ADD SWAP2 POP DUP4 PUSH1 0x1 DUP3 MUL DUP4 ADD GT ISZERO PUSH2 0x2D7 JUMPI PUSH2 0x2D6 PUSH2 0x285 JUMP JUMPDEST JUMPDEST SWAP3 POP SWAP3 SWAP1 POP JUMP JUMPDEST PUSH0 DUP1 PUSH1 0x20 DUP4 DUP6 SUB SLT ISZERO PUSH2 0x2F4 JUMPI PUSH2 0x2F3 PUSH2 0x275 JUMP JUMPDEST JUMPDEST PUSH0 DUP4 ADD CALLDATALOAD PUSH8 0xFFFFFFFFFFFFFFFF DUP2 GT ISZERO PUSH2 0x311 JUMPI PUSH2 0x310 PUSH2 0x279 JUMP JUMPDEST JUMPDEST PUSH2 0x31D DUP6 DUP3 DUP7 ADD PUSH2 0x289 JUMP JUMPDEST SWAP3 POP SWAP3 POP POP SWAP3 POP SWAP3 SWAP1 POP JUMP JUMPDEST PUSH0 PUSH20 0xFFFFFFFFFFFFFFFFFFFFFFFFFFFFFFFFFFFFFFFF DUP3 AND SWAP1 POP SWAP2 SWAP1 POP JUMP JUMPDEST PUSH0 PUSH2 0x352 DUP3 PUSH2 0x329 JUMP JUMPDEST SWAP1 POP SWAP2 SWAP1 POP JUMP JUMPDEST PUSH2 0x362 DUP2 PUSH2 0x348 JUMP JUMPDEST DUP2 EQ PUSH2 0x36C JUMPI PUSH0 DUP1 REVERT JUMPDEST POP JUMP JUMPDEST PUSH0 DUP2 CALLDATALOAD SWAP1 POP PUSH2 0x37D DUP2 PUSH2 0x359 JUMP JUMPDEST SWAP3 SWAP2 POP POP JUMP JUMPDEST PUSH0 PUSH1 0x20 DUP3 DUP5 SUB SLT ISZERO PUSH2 0x398 JUMPI PUSH2 0x397 PUSH2 0x275 JUMP JUMPDEST JUMPDEST PUSH0 PUSH2 0x3A5 DUP5 DUP3 DUP6 ADD PUSH2 0x36F JUMP JUMPDEST SWAP2 POP POP SWAP3 SWAP2 POP POP JUMP JUMPDEST PUSH0 DUP2 MLOAD SWAP1 POP SWAP2 SWAP1 POP JUMP JUMPDEST PUSH0 DUP3 DUP3 MSTORE PUSH1 0x20 DUP3 ADD SWAP1 POP SWAP3 SWAP2 POP POP JUMP JUMPDEST DUP3 DUP2 DUP4 MCOPY PUSH0 DUP4 DUP4 ADD MSTORE POP POP POP JUMP JUMPDEST PUSH0 PUSH1 0x1F NOT PUSH1 0x1F DUP4 ADD AND SWAP1 POP SWAP2 SWAP1 POP JUMP JUMPDEST PUSH0 PUSH2 0x3F0 DUP3 PUSH2 0x3AE JUMP JUMPDEST PUSH2 0x3FA DUP2 DUP6 PUSH2 0x3B8 JUMP JUMPDEST SWAP4 POP PUSH2 0x40A DUP2 DUP6 PUSH1 0x20 DUP7 ADD PUSH2 0x3C8 JUMP JUMPDEST PUSH2 0x413 DUP2 PUSH2 0x3D6 JUMP JUMPDEST DUP5 ADD SWAP2 POP POP SWAP3 SWAP2 POP POP JUMP JUMPDEST PUSH0 PUSH1 0x20 DUP3 ADD SWAP1 POP DUP2 DUP2 SUB PUSH0 DUP4 ADD MSTORE PUSH2 0x436 DUP2 DUP5 PUSH2 0x3E6 JUMP JUMPDEST SWAP1 POP SWAP3 SWAP2 POP POP JUMP JUMPDEST PUSH0 DUP3 SWAP1 POP SWAP3 SWAP2 POP POP JUMP JUMPDEST PUSH32 0x4E487B7100000000000000000000000000000000000000000000000000000000 PUSH0 MSTORE PUSH1 0x41 PUSH1 0x4 MSTORE PUSH1 0x24 PUSH0 REVERT JUMPDEST PUSH32 0x4E487B7100000000000000000000000000000000000000000000000000000000 PUSH0 MSTORE PUSH1 0x22 PUSH1 0x4 MSTORE PUSH1 0x24 PUSH0 REVERT JUMPDEST PUSH0 PUSH1 0x2 DUP3 DIV SWAP1 POP PUSH1 0x1 DUP3 AND DUP1 PUSH2 0x4B9 JUMPI PUSH1 0x7F DUP3 AND SWAP2 POP JUMPDEST PUSH1 0x20 DUP3 LT DUP2 SUB PUSH2 0x4CC JUMPI PUSH2 0x4CB PUSH2 0x475 JUMP JUMPDEST JUMPDEST POP SWAP2 SWAP1 POP JUMP JUMPDEST PUSH0 DUP2 SWAP1 POP DUP2 PUSH0 MSTORE PUSH1 0x20 PUSH0 KECCAK256 SWAP1 POP SWAP2 SWAP1 POP JUMP JUMPDEST PUSH0 PUSH1 0x20 PUSH1 0x1F DUP4 ADD DIV SWAP1 POP SWAP2 SWAP1 POP JUMP JUMPDEST PUSH0 DUP3 DUP3 SHL SWAP1 POP SWAP3 SWAP2 POP POP JUMP JUMPDEST PUSH0 PUSH1 0x8 DUP4 MUL PUSH2 0x52E PUSH32 0xFFFFFFFFFFFFFFFFFFFFFFFFFFFFFFFFFFFFFFFFFFFFFFFFFFFFFFFFFFFFFFFF DUP3 PUSH2 0x4F3 JUMP JUMPDEST PUSH2 0x538 DUP7 DUP4 PUSH2 0x4F3 JUMP JUMPDEST SWAP6 POP DUP1 NOT DUP5 AND SWAP4 POP DUP1 DUP7 AND DUP5 OR SWAP3 POP POP POP SWAP4 SWAP3 POP POP POP JUMP JUMPDEST PUSH0 DUP2 SWAP1 POP SWAP2 SWAP1 POP JUMP JUMPDEST PUSH0 DUP2 SWAP1 POP SWAP2 SWAP1 POP JUMP JUMPDEST PUSH0 PUSH2 0x57C PUSH2 0x577 PUSH2 0x572 DUP5 PUSH2 0x550 JUMP JUMPDEST PUSH2 0x559 JUMP JUMPDEST PUSH2 0x550 JUMP JUMPDEST SWAP1 POP SWAP2 SWAP1 POP JUMP JUMPDEST PUSH0 DUP2 SWAP1 POP SWAP2 SWAP1 POP JUMP JUMPDEST PUSH2 0x595 DUP4 PUSH2 0x562 JUMP JUMPDEST PUSH2 0x5A9 PUSH2 0x5A1 DUP3 PUSH2 0x583 JUMP JUMPDEST DUP5 DUP5 SLOAD PUSH2 0x4FF JUMP JUMPDEST DUP3 SSTORE POP POP POP POP JUMP JUMPDEST PUSH0 SWAP1 JUMP JUMPDEST PUSH2 0x5BD PUSH2 0x5B1 JUMP JUMPDEST PUSH2 0x5C8 DUP2 DUP5 DUP5 PUSH2 0x58C JUMP JUMPDEST POP POP POP JUMP JUMPDEST JUMPDEST DUP2 DUP2 LT ISZERO PUSH2 0x5EB JUMPI PUSH2 0x5E0 PUSH0 DUP3 PUSH2 0x5B5 JUMP JUMPDEST PUSH1 0x1 DUP2 ADD SWAP1 POP PUSH2 0x5CE JUMP JUMPDEST POP POP JUMP JUMPDEST PUSH1 0x1F DUP3 GT ISZERO PUSH2 0x630 JUMPI PUSH2 0x601 DUP2 PUSH2 0x4D2 JUMP JUMPDEST PUSH2 0x60A DUP5 PUSH2 0x4E4 JUMP JUMPDEST DUP2 ADD PUSH1 0x20 DUP6 LT ISZERO PUSH2 0x619 JUMPI DUP2 SWAP1 POP JUMPDEST PUSH2 0x62D PUSH2 0x625 DUP6 PUSH2 0x4E4 JUMP JUMPDEST DUP4 ADD DUP3 PUSH2 0x5CD JUMP JUMPDEST POP POP JUMPDEST POP POP POP JUMP JUMPDEST PUSH0 DUP3 DUP3 SHR SWAP1 POP SWAP3 SWAP2 POP POP JUMP JUMPDEST PUSH0 PUSH2 0x650 PUSH0 NOT DUP5 PUSH1 0x8 MUL PUSH2 0x635 JUMP JUMPDEST NOT DUP1 DUP4 AND SWAP2 POP POP SWAP3 SWAP2 POP POP JUMP JUMPDEST PUSH0 PUSH2 0x668 DUP4 DUP4 PUSH2 0x641 JUMP JUMPDEST SWAP2 POP DUP3 PUSH1 0x2 MUL DUP3 OR SWAP1 POP SWAP3 SWAP2 POP POP JUMP JUMPDEST PUSH2 0x682 DUP4 DUP4 PUSH2 0x43E JUMP JUMPDEST PUSH8 0xFFFFFFFFFFFFFFFF DUP2 GT ISZERO PUSH2 0x69B JUMPI PUSH2 0x69A PUSH2 0x448 JUMP JUMPDEST JUMPDEST PUSH2 0x6A5 DUP3 SLOAD PUSH2 0x4A2 JUMP JUMPDEST PUSH2 0x6B0 DUP3 DUP3 DUP6 PUSH2 0x5EF JUMP JUMPDEST PUSH0 PUSH1 0x1F DUP4 GT PUSH1 0x1 DUP2 EQ PUSH2 0x6DD JUMPI PUSH0 DUP5 ISZERO PUSH2 0x6CB JUMPI DUP3 DUP8 ADD CALLDATALOAD SWAP1 POP JUMPDEST PUSH2 0x6D5 DUP6 DUP3 PUSH2 0x65D JUMP JUMPDEST DUP7 SSTORE POP PUSH2 0x73C JUMP JUMPDEST PUSH1 0x1F NOT DUP5 AND PUSH2 0x6EB DUP7 PUSH2 0x4D2 JUMP JUMPDEST PUSH0 JUMPDEST DUP3 DUP2 LT ISZERO PUSH2 0x712 JUMPI DUP5 DUP10 ADD CALLDATALOAD DUP3 SSTORE PUSH1 0x1 DUP3 ADD SWAP2 POP PUSH1 0x20 DUP6 ADD SWAP5 POP PUSH1 0x20 DUP2 ADD SWAP1 POP PUSH2 0x6ED JUMP JUMPDEST DUP7 DUP4 LT ISZERO PUSH2 0x72F JUMPI DUP5 DUP10 ADD CALLDATALOAD PUSH2 0x72B PUSH1 0x1F DUP10 AND DUP3 PUSH2 0x641 JUMP JUMPDEST DUP4 SSTORE POP JUMPDEST PUSH1 0x1 PUSH1 0x2 DUP9 MUL ADD DUP9 SSTORE POP POP POP JUMPDEST POP POP POP POP POP POP POP JUMP INVALID LOG2 PUSH5 0x6970667358 0x22 SLT KECCAK256 PUSH4 0x792C9AF5 TIMESTAMP 0xC7 RETURNDATASIZE PUSH3 0xDF534B PUSH7 0xCFE6106CFDC522 PUSH14 0x54B307965B01EA3C52541A64736F PUSH13 0x634300081A0033000000000000 "
				},
				"gasEstimates": {
					"creation": {
						"codeDepositCost": "383000",
						"executionCost": "416",
						"totalCost": "383416"
					},
					"external": {
						"getCookie(address)": "infinite",
						"sessionCookie(address)": "infinite",
						"setCookie(string)": "infinite"
					}
				},
				"methodIdentifiers": {
					"getCookie(address)": "c982818d",
					"sessionCookie(address)": "81e0f87d",
					"setCookie(string)": "0aba9e21"
				}
			},
			"storageLayout": {
				"storage": [
					{
						"astId": 6,
						"contract": "C/Cookie/attack Naive Cookie in a Contract.sol:NaiveCookieSession",
						"label": "sessionCookie",
						"offset": 0,
						"slot": "0",
						"type": "t_mapping(t_address,t_string_storage)"
					}
				],
				"types": {
					"t_address": {
						"encoding": "inplace",
						"label": "address",
						"numberOfBytes": "20"
					},
					"t_mapping(t_address,t_string_storage)": {
						"encoding": "mapping",
						"key": "t_address",
						"label": "mapping(address => string)",
						"numberOfBytes": "32",
						"value": "t_string_storage"
					},
					"t_string_storage": {
						"encoding": "bytes",
						"label": "string",
						"numberOfBytes": "32"
					}
				}
			},
			"userdoc": {
				"kind": "user",
				"methods": {},
				"notice": "Attack Scenario:  This contract tries to store ephemeral user sessions (like cookies)  but does not validate or expire them properly.",
				"version": 1
			}
		}
	}
}