{
	"data": {
		"bytecode": {
			"linkReferences": {},
			"object": "6080604052348015600e575f5ffd5b506105088061001c5f395ff3fe608060405234801561000f575f5ffd5b5060043610610034575f3560e01c80635e383d21146100385780638cb6588d14610068575b5f5ffd5b610052600480360381019061004d919061025b565b610084565b60405161005f9190610295565b60405180910390f35b610082600480360381019061007d91906103fe565b6100a3565b005b5f8181548110610092575f80fd5b905f5260205f20015f915090505481565b5f5f90505b8151811015610197575f6001826100bf9190610472565b90505b8251811015610189578281815181106100de576100dd6104a5565b5b60200260200101518383815181106100f9576100f86104a5565b5b6020026020010151111561017c5782818151811061011a576101196104a5565b5b6020026020010151838381518110610135576101346104a5565b5b60200260200101518484815181106101505761014f6104a5565b5b6020026020010185848151811061016a576101696104a5565b5b60200260200101828152508281525050505b80806001019150506100c2565b5080806001019150506100a8565b50805f90805190602001906101ad9291906101b1565b5050565b828054828255905f5260205f209081019282156101eb579160200282015b828111156101ea5782518255916020019190600101906101cf565b5b5090506101f891906101fc565b5090565b5b80821115610213575f815f9055506001016101fd565b5090565b5f604051905090565b5f5ffd5b5f5ffd5b5f819050919050565b61023a81610228565b8114610244575f5ffd5b50565b5f8135905061025581610231565b92915050565b5f602082840312156102705761026f610220565b5b5f61027d84828501610247565b91505092915050565b61028f81610228565b82525050565b5f6020820190506102a85f830184610286565b92915050565b5f5ffd5b5f601f19601f8301169050919050565b7f4e487b71000000000000000000000000000000000000000000000000000000005f52604160045260245ffd5b6102f8826102b2565b810181811067ffffffffffffffff82111715610317576103166102c2565b5b80604052505050565b5f610329610217565b905061033582826102ef565b919050565b5f67ffffffffffffffff821115610354576103536102c2565b5b602082029050602081019050919050565b5f5ffd5b5f61037b6103768461033a565b610320565b9050808382526020820190506020840283018581111561039e5761039d610365565b5b835b818110156103c757806103b38882610247565b8452602084019350506020810190506103a0565b5050509392505050565b5f82601f8301126103e5576103e46102ae565b5b81356103f5848260208601610369565b91505092915050565b5f6020828403121561041357610412610220565b5b5f82013567ffffffffffffffff8111156104305761042f610224565b5b61043c848285016103d1565b91505092915050565b7f4e487b71000000000000000000000000000000000000000000000000000000005f52601160045260245ffd5b5f61047c82610228565b915061048783610228565b925082820190508082111561049f5761049e610445565b5b92915050565b7f4e487b71000000000000000000000000000000000000000000000000000000005f52603260045260245ffdfea26469706673582212205cd69c6ff7365bac1415675fee46ef734584ae2ca3001511a1fe461be364e39764736f6c634300081d0033",
			"opcodes": "PUSH1 0x80 PUSH1 0x40 MSTORE CALLVALUE DUP1 ISZERO PUSH1 0xE JUMPI PUSH0 PUSH0 REVERT JUMPDEST POP PUSH2 0x508 DUP1 PUSH2 0x1C PUSH0 CODECOPY PUSH0 RETURN INVALID PUSH1 0x80 PUSH1 0x40 MSTORE CALLVALUE DUP1 ISZERO PUSH2 0xF JUMPI PUSH0 PUSH0 REVERT JUMPDEST POP PUSH1 0x4 CALLDATASIZE LT PUSH2 0x34 JUMPI PUSH0 CALLDATALOAD PUSH1 0xE0 SHR DUP1 PUSH4 0x5E383D21 EQ PUSH2 0x38 JUMPI DUP1 PUSH4 0x8CB6588D EQ PUSH2 0x68 JUMPI JUMPDEST PUSH0 PUSH0 REVERT JUMPDEST PUSH2 0x52 PUSH1 0x4 DUP1 CALLDATASIZE SUB DUP2 ADD SWAP1 PUSH2 0x4D SWAP2 SWAP1 PUSH2 0x25B JUMP JUMPDEST PUSH2 0x84 JUMP JUMPDEST PUSH1 0x40 MLOAD PUSH2 0x5F SWAP2 SWAP1 PUSH2 0x295 JUMP JUMPDEST PUSH1 0x40 MLOAD DUP1 SWAP2 SUB SWAP1 RETURN JUMPDEST PUSH2 0x82 PUSH1 0x4 DUP1 CALLDATASIZE SUB DUP2 ADD SWAP1 PUSH2 0x7D SWAP2 SWAP1 PUSH2 0x3FE JUMP JUMPDEST PUSH2 0xA3 JUMP JUMPDEST STOP JUMPDEST PUSH0 DUP2 DUP2 SLOAD DUP2 LT PUSH2 0x92 JUMPI PUSH0 DUP1 REVERT JUMPDEST SWAP1 PUSH0 MSTORE PUSH1 0x20 PUSH0 KECCAK256 ADD PUSH0 SWAP2 POP SWAP1 POP SLOAD DUP2 JUMP JUMPDEST PUSH0 PUSH0 SWAP1 POP JUMPDEST DUP2 MLOAD DUP2 LT ISZERO PUSH2 0x197 JUMPI PUSH0 PUSH1 0x1 DUP3 PUSH2 0xBF SWAP2 SWAP1 PUSH2 0x472 JUMP JUMPDEST SWAP1 POP JUMPDEST DUP3 MLOAD DUP2 LT ISZERO PUSH2 0x189 JUMPI DUP3 DUP2 DUP2 MLOAD DUP2 LT PUSH2 0xDE JUMPI PUSH2 0xDD PUSH2 0x4A5 JUMP JUMPDEST JUMPDEST PUSH1 0x20 MUL PUSH1 0x20 ADD ADD MLOAD DUP4 DUP4 DUP2 MLOAD DUP2 LT PUSH2 0xF9 JUMPI PUSH2 0xF8 PUSH2 0x4A5 JUMP JUMPDEST JUMPDEST PUSH1 0x20 MUL PUSH1 0x20 ADD ADD MLOAD GT ISZERO PUSH2 0x17C JUMPI DUP3 DUP2 DUP2 MLOAD DUP2 LT PUSH2 0x11A JUMPI PUSH2 0x119 PUSH2 0x4A5 JUMP JUMPDEST JUMPDEST PUSH1 0x20 MUL PUSH1 0x20 ADD ADD MLOAD DUP4 DUP4 DUP2 MLOAD DUP2 LT PUSH2 0x135 JUMPI PUSH2 0x134 PUSH2 0x4A5 JUMP JUMPDEST JUMPDEST PUSH1 0x20 MUL PUSH1 0x20 ADD ADD MLOAD DUP5 DUP5 DUP2 MLOAD DUP2 LT PUSH2 0x150 JUMPI PUSH2 0x14F PUSH2 0x4A5 JUMP JUMPDEST JUMPDEST PUSH1 0x20 MUL PUSH1 0x20 ADD ADD DUP6 DUP5 DUP2 MLOAD DUP2 LT PUSH2 0x16A JUMPI PUSH2 0x169 PUSH2 0x4A5 JUMP JUMPDEST JUMPDEST PUSH1 0x20 MUL PUSH1 0x20 ADD ADD DUP3 DUP2 MSTORE POP DUP3 DUP2 MSTORE POP POP POP JUMPDEST DUP1 DUP1 PUSH1 0x1 ADD SWAP2 POP POP PUSH2 0xC2 JUMP JUMPDEST POP DUP1 DUP1 PUSH1 0x1 ADD SWAP2 POP POP PUSH2 0xA8 JUMP JUMPDEST POP DUP1 PUSH0 SWAP1 DUP1 MLOAD SWAP1 PUSH1 0x20 ADD SWAP1 PUSH2 0x1AD SWAP3 SWAP2 SWAP1 PUSH2 0x1B1 JUMP JUMPDEST POP POP JUMP JUMPDEST DUP3 DUP1 SLOAD DUP3 DUP3 SSTORE SWAP1 PUSH0 MSTORE PUSH1 0x20 PUSH0 KECCAK256 SWAP1 DUP2 ADD SWAP3 DUP3 ISZERO PUSH2 0x1EB JUMPI SWAP2 PUSH1 0x20 MUL DUP3 ADD JUMPDEST DUP3 DUP2 GT ISZERO PUSH2 0x1EA JUMPI DUP3 MLOAD DUP3 SSTORE SWAP2 PUSH1 0x20 ADD SWAP2 SWAP1 PUSH1 0x1 ADD SWAP1 PUSH2 0x1CF JUMP JUMPDEST JUMPDEST POP SWAP1 POP PUSH2 0x1F8 SWAP2 SWAP1 PUSH2 0x1FC JUMP JUMPDEST POP SWAP1 JUMP JUMPDEST JUMPDEST DUP1 DUP3 GT ISZERO PUSH2 0x213 JUMPI PUSH0 DUP2 PUSH0 SWAP1 SSTORE POP PUSH1 0x1 ADD PUSH2 0x1FD JUMP JUMPDEST POP SWAP1 JUMP JUMPDEST PUSH0 PUSH1 0x40 MLOAD SWAP1 POP SWAP1 JUMP JUMPDEST PUSH0 PUSH0 REVERT JUMPDEST PUSH0 PUSH0 REVERT JUMPDEST PUSH0 DUP2 SWAP1 POP SWAP2 SWAP1 POP JUMP JUMPDEST PUSH2 0x23A DUP2 PUSH2 0x228 JUMP JUMPDEST DUP2 EQ PUSH2 0x244 JUMPI PUSH0 PUSH0 REVERT JUMPDEST POP JUMP JUMPDEST PUSH0 DUP2 CALLDATALOAD SWAP1 POP PUSH2 0x255 DUP2 PUSH2 0x231 JUMP JUMPDEST SWAP3 SWAP2 POP POP JUMP JUMPDEST PUSH0 PUSH1 0x20 DUP3 DUP5 SUB SLT ISZERO PUSH2 0x270 JUMPI PUSH2 0x26F PUSH2 0x220 JUMP JUMPDEST JUMPDEST PUSH0 PUSH2 0x27D DUP5 DUP3 DUP6 ADD PUSH2 0x247 JUMP JUMPDEST SWAP2 POP POP SWAP3 SWAP2 POP POP JUMP JUMPDEST PUSH2 0x28F DUP2 PUSH2 0x228 JUMP JUMPDEST DUP3 MSTORE POP POP JUMP JUMPDEST PUSH0 PUSH1 0x20 DUP3 ADD SWAP1 POP PUSH2 0x2A8 PUSH0 DUP4 ADD DUP5 PUSH2 0x286 JUMP JUMPDEST SWAP3 SWAP2 POP POP JUMP JUMPDEST PUSH0 PUSH0 REVERT JUMPDEST PUSH0 PUSH1 0x1F NOT PUSH1 0x1F DUP4 ADD AND SWAP1 POP SWAP2 SWAP1 POP JUMP JUMPDEST PUSH32 0x4E487B7100000000000000000000000000000000000000000000000000000000 PUSH0 MSTORE PUSH1 0x41 PUSH1 0x4 MSTORE PUSH1 0x24 PUSH0 REVERT JUMPDEST PUSH2 0x2F8 DUP3 PUSH2 0x2B2 JUMP JUMPDEST DUP2 ADD DUP2 DUP2 LT PUSH8 0xFFFFFFFFFFFFFFFF DUP3 GT OR ISZERO PUSH2 0x317 JUMPI PUSH2 0x316 PUSH2 0x2C2 JUMP JUMPDEST JUMPDEST DUP1 PUSH1 0x40 MSTORE POP POP POP JUMP JUMPDEST PUSH0 PUSH2 0x329 PUSH2 0x217 JUMP JUMPDEST SWAP1 POP PUSH2 0x335 DUP3 DUP3 PUSH2 0x2EF JUMP JUMPDEST SWAP2 SWAP1 POP JUMP JUMPDEST PUSH0 PUSH8 0xFFFFFFFFFFFFFFFF DUP3 GT ISZERO PUSH2 0x354 JUMPI PUSH2 0x353 PUSH2 0x2C2 JUMP JUMPDEST JUMPDEST PUSH1 0x20 DUP3 MUL SWAP1 POP PUSH1 0x20 DUP2 ADD SWAP1 POP SWAP2 SWAP1 POP JUMP JUMPDEST PUSH0 PUSH0 REVERT JUMPDEST PUSH0 PUSH2 0x37B PUSH2 0x376 DUP5 PUSH2 0x33A JUMP JUMPDEST PUSH2 0x320 JUMP JUMPDEST SWAP1 POP DUP1 DUP4 DUP3 MSTORE PUSH1 0x20 DUP3 ADD SWAP1 POP PUSH1 0x20 DUP5 MUL DUP4 ADD DUP6 DUP2 GT ISZERO PUSH2 0x39E JUMPI PUSH2 0x39D PUSH2 0x365 JUMP JUMPDEST JUMPDEST DUP4 JUMPDEST DUP2 DUP2 LT ISZERO PUSH2 0x3C7 JUMPI DUP1 PUSH2 0x3B3 DUP9 DUP3 PUSH2 0x247 JUMP JUMPDEST DUP5 MSTORE PUSH1 0x20 DUP5 ADD SWAP4 POP POP PUSH1 0x20 DUP2 ADD SWAP1 POP PUSH2 0x3A0 JUMP JUMPDEST POP POP POP SWAP4 SWAP3 POP POP POP JUMP JUMPDEST PUSH0 DUP3 PUSH1 0x1F DUP4 ADD SLT PUSH2 0x3E5 JUMPI PUSH2 0x3E4 PUSH2 0x2AE JUMP JUMPDEST JUMPDEST DUP2 CALLDATALOAD PUSH2 0x3F5 DUP5 DUP3 PUSH1 0x20 DUP7 ADD PUSH2 0x369 JUMP JUMPDEST SWAP2 POP POP SWAP3 SWAP2 POP POP JUMP JUMPDEST PUSH0 PUSH1 0x20 DUP3 DUP5 SUB SLT ISZERO PUSH2 0x413 JUMPI PUSH2 0x412 PUSH2 0x220 JUMP JUMPDEST JUMPDEST PUSH0 DUP3 ADD CALLDATALOAD PUSH8 0xFFFFFFFFFFFFFFFF DUP2 GT ISZERO PUSH2 0x430 JUMPI PUSH2 0x42F PUSH2 0x224 JUMP JUMPDEST JUMPDEST PUSH2 0x43C DUP5 DUP3 DUP6 ADD PUSH2 0x3D1 JUMP JUMPDEST SWAP2 POP POP SWAP3 SWAP2 POP POP JUMP JUMPDEST PUSH32 0x4E487B7100000000000000000000000000000000000000000000000000000000 PUSH0 MSTORE PUSH1 0x11 PUSH1 0x4 MSTORE PUSH1 0x24 PUSH0 REVERT JUMPDEST PUSH0 PUSH2 0x47C DUP3 PUSH2 0x228 JUMP JUMPDEST SWAP2 POP PUSH2 0x487 DUP4 PUSH2 0x228 JUMP JUMPDEST SWAP3 POP DUP3 DUP3 ADD SWAP1 POP DUP1 DUP3 GT ISZERO PUSH2 0x49F JUMPI PUSH2 0x49E PUSH2 0x445 JUMP JUMPDEST JUMPDEST SWAP3 SWAP2 POP POP JUMP JUMPDEST PUSH32 0x4E487B7100000000000000000000000000000000000000000000000000000000 PUSH0 MSTORE PUSH1 0x32 PUSH1 0x4 MSTORE PUSH1 0x24 PUSH0 REVERT INVALID LOG2 PUSH5 0x6970667358 0x22 SLT KECCAK256 TLOAD 0xD6 SWAP13 PUSH16 0xF7365BAC1415675FEE46EF734584AE2C LOG3 STOP ISZERO GT LOG1 INVALID CHAINID SHL CALLF 0x64E3 SWAP8 PUSH5 0x736F6C6343 STOP ADDMOD SAR STOP CALLER "
		},
		"gasEstimates": {
			"creation": {
				"codeDepositCost": "257600",
				"executionCost": "298",
				"totalCost": "257898"
			},
			"external": {
				"sortAndStore(uint256[])": "infinite",
				"values(uint256)": "infinite"
			}
		},
		"methodIdentifiers": {
			"sortAndStore(uint256[])": "8cb6588d",
			"values(uint256)": "5e383d21"
		}
	},
	"abi": [
		{
			"inputs": [
				{
					"internalType": "uint256[]",
					"name": "input",
					"type": "uint256[]"
				}
			],
			"name": "sortAndStore",
			"outputs": [],
			"stateMutability": "nonpayable",
			"type": "function"
		},
		{
			"inputs": [
				{
					"internalType": "uint256",
					"name": "",
					"type": "uint256"
				}
			],
			"name": "values",
			"outputs": [
				{
					"internalType": "uint256",
					"name": "",
					"type": "uint256"
				}
			],
			"stateMutability": "view",
			"type": "function"
		}
	]
}