{
	"I/Interrupt/Dynamic & Optimized Solidity Example (Defense Scenario)1.sol": {
		"IntranetSecureContract": {
			"abi": [
				{
					"inputs": [
						{
							"internalType": "address",
							"name": "admin",
							"type": "address"
						}
					],
					"stateMutability": "nonpayable",
					"type": "constructor"
				},
				{
					"inputs": [],
					"name": "AccessControlBadConfirmation",
					"type": "error"
				},
				{
					"inputs": [
						{
							"internalType": "address",
							"name": "account",
							"type": "address"
						},
						{
							"internalType": "bytes32",
							"name": "neededRole",
							"type": "bytes32"
						}
					],
					"name": "AccessControlUnauthorizedAccount",
					"type": "error"
				},
				{
					"anonymous": false,
					"inputs": [
						{
							"indexed": false,
							"internalType": "address",
							"name": "executor",
							"type": "address"
						}
					],
					"name": "ConfidentialActionPerformed",
					"type": "event"
				},
				{
					"anonymous": false,
					"inputs": [
						{
							"indexed": true,
							"internalType": "bytes32",
							"name": "role",
							"type": "bytes32"
						},
						{
							"indexed": true,
							"internalType": "bytes32",
							"name": "previousAdminRole",
							"type": "bytes32"
						},
						{
							"indexed": true,
							"internalType": "bytes32",
							"name": "newAdminRole",
							"type": "bytes32"
						}
					],
					"name": "RoleAdminChanged",
					"type": "event"
				},
				{
					"anonymous": false,
					"inputs": [
						{
							"indexed": true,
							"internalType": "bytes32",
							"name": "role",
							"type": "bytes32"
						},
						{
							"indexed": true,
							"internalType": "address",
							"name": "account",
							"type": "address"
						},
						{
							"indexed": true,
							"internalType": "address",
							"name": "sender",
							"type": "address"
						}
					],
					"name": "RoleGranted",
					"type": "event"
				},
				{
					"anonymous": false,
					"inputs": [
						{
							"indexed": true,
							"internalType": "bytes32",
							"name": "role",
							"type": "bytes32"
						},
						{
							"indexed": true,
							"internalType": "address",
							"name": "account",
							"type": "address"
						},
						{
							"indexed": true,
							"internalType": "address",
							"name": "sender",
							"type": "address"
						}
					],
					"name": "RoleRevoked",
					"type": "event"
				},
				{
					"inputs": [],
					"name": "DEFAULT_ADMIN_ROLE",
					"outputs": [
						{
							"internalType": "bytes32",
							"name": "",
							"type": "bytes32"
						}
					],
					"stateMutability": "view",
					"type": "function"
				},
				{
					"inputs": [],
					"name": "INTERNAL_ROLE",
					"outputs": [
						{
							"internalType": "bytes32",
							"name": "",
							"type": "bytes32"
						}
					],
					"stateMutability": "view",
					"type": "function"
				},
				{
					"inputs": [
						{
							"internalType": "string",
							"name": "data",
							"type": "string"
						}
					],
					"name": "confidentialAction",
					"outputs": [],
					"stateMutability": "nonpayable",
					"type": "function"
				},
				{
					"inputs": [
						{
							"internalType": "bytes32",
							"name": "role",
							"type": "bytes32"
						}
					],
					"name": "getRoleAdmin",
					"outputs": [
						{
							"internalType": "bytes32",
							"name": "",
							"type": "bytes32"
						}
					],
					"stateMutability": "view",
					"type": "function"
				},
				{
					"inputs": [
						{
							"internalType": "address",
							"name": "user",
							"type": "address"
						}
					],
					"name": "grantInternalAccess",
					"outputs": [],
					"stateMutability": "nonpayable",
					"type": "function"
				},
				{
					"inputs": [
						{
							"internalType": "bytes32",
							"name": "role",
							"type": "bytes32"
						},
						{
							"internalType": "address",
							"name": "account",
							"type": "address"
						}
					],
					"name": "grantRole",
					"outputs": [],
					"stateMutability": "nonpayable",
					"type": "function"
				},
				{
					"inputs": [
						{
							"internalType": "bytes32",
							"name": "role",
							"type": "bytes32"
						},
						{
							"internalType": "address",
							"name": "account",
							"type": "address"
						}
					],
					"name": "hasRole",
					"outputs": [
						{
							"internalType": "bool",
							"name": "",
							"type": "bool"
						}
					],
					"stateMutability": "view",
					"type": "function"
				},
				{
					"inputs": [
						{
							"internalType": "bytes32",
							"name": "role",
							"type": "bytes32"
						},
						{
							"internalType": "address",
							"name": "callerConfirmation",
							"type": "address"
						}
					],
					"name": "renounceRole",
					"outputs": [],
					"stateMutability": "nonpayable",
					"type": "function"
				},
				{
					"inputs": [
						{
							"internalType": "address",
							"name": "user",
							"type": "address"
						}
					],
					"name": "revokeInternalAccess",
					"outputs": [],
					"stateMutability": "nonpayable",
					"type": "function"
				},
				{
					"inputs": [
						{
							"internalType": "bytes32",
							"name": "role",
							"type": "bytes32"
						},
						{
							"internalType": "address",
							"name": "account",
							"type": "address"
						}
					],
					"name": "revokeRole",
					"outputs": [],
					"stateMutability": "nonpayable",
					"type": "function"
				},
				{
					"inputs": [
						{
							"internalType": "bytes4",
							"name": "interfaceId",
							"type": "bytes4"
						}
					],
					"name": "supportsInterface",
					"outputs": [
						{
							"internalType": "bool",
							"name": "",
							"type": "bool"
						}
					],
					"stateMutability": "view",
					"type": "function"
				},
				{
					"inputs": [],
					"name": "viewConfidentialData",
					"outputs": [
						{
							"internalType": "string",
							"name": "",
							"type": "string"
						}
					],
					"stateMutability": "view",
					"type": "function"
				}
			],
			"devdoc": {
				"errors": {
					"AccessControlBadConfirmation()": [
						{
							"details": "The caller of a function is not the expected one. NOTE: Don't confuse with {AccessControlUnauthorizedAccount}."
						}
					],
					"AccessControlUnauthorizedAccount(address,bytes32)": [
						{
							"details": "The `account` is missing a role."
						}
					]
				},
				"events": {
					"RoleAdminChanged(bytes32,bytes32,bytes32)": {
						"details": "Emitted when `newAdminRole` is set as ``role``'s admin role, replacing `previousAdminRole` `DEFAULT_ADMIN_ROLE` is the starting admin for all roles, despite {RoleAdminChanged} not being emitted to signal this."
					},
					"RoleGranted(bytes32,address,address)": {
						"details": "Emitted when `account` is granted `role`. `sender` is the account that originated the contract call. This account bears the admin role (for the granted role). Expected in cases where the role was granted using the internal {AccessControl-_grantRole}."
					},
					"RoleRevoked(bytes32,address,address)": {
						"details": "Emitted when `account` is revoked `role`. `sender` is the account that originated the contract call:   - if using `revokeRole`, it is the admin role bearer   - if using `renounceRole`, it is the role bearer (i.e. `account`)"
					}
				},
				"kind": "dev",
				"methods": {
					"getRoleAdmin(bytes32)": {
						"details": "Returns the admin role that controls `role`. See {grantRole} and {revokeRole}. To change a role's admin, use {_setRoleAdmin}."
					},
					"grantRole(bytes32,address)": {
						"details": "Grants `role` to `account`. If `account` had not been already granted `role`, emits a {RoleGranted} event. Requirements: - the caller must have ``role``'s admin role. May emit a {RoleGranted} event."
					},
					"hasRole(bytes32,address)": {
						"details": "Returns `true` if `account` has been granted `role`."
					},
					"renounceRole(bytes32,address)": {
						"details": "Revokes `role` from the calling account. Roles are often managed via {grantRole} and {revokeRole}: this function's purpose is to provide a mechanism for accounts to lose their privileges if they are compromised (such as when a trusted device is misplaced). If the calling account had been revoked `role`, emits a {RoleRevoked} event. Requirements: - the caller must be `callerConfirmation`. May emit a {RoleRevoked} event."
					},
					"revokeRole(bytes32,address)": {
						"details": "Revokes `role` from `account`. If `account` had been granted `role`, emits a {RoleRevoked} event. Requirements: - the caller must have ``role``'s admin role. May emit a {RoleRevoked} event."
					},
					"supportsInterface(bytes4)": {
						"details": "See {IERC165-supportsInterface}."
					}
				},
				"version": 1
			},
			"evm": {
				"assembly": "    /* \"I/Interrupt/Dynamic & Optimized Solidity Example (Defense Scenario)1.sol\":86:983  contract IntranetSecureContract is AccessControl {... */\n  mstore(0x40, 0x80)\n    /* \"I/Interrupt/Dynamic & Optimized Solidity Example (Defense Scenario)1.sol\":309:390  constructor(address admin) {... */\n  callvalue\n  dup1\n  iszero\n  tag_1\n  jumpi\n  0x00\n  dup1\n  revert\ntag_1:\n  pop\n  mload(0x40)\n  sub(codesize, bytecodeSize)\n  dup1\n  bytecodeSize\n  dup4\n  codecopy\n  dup2\n  dup2\n  add\n  0x40\n  mstore\n  dup2\n  add\n  swap1\n  tag_2\n  swap2\n  swap1\n  tag_3\n  jump\t// in\ntag_2:\n    /* \"I/Interrupt/Dynamic & Optimized Solidity Example (Defense Scenario)1.sol\":346:383  _grantRole(DEFAULT_ADMIN_ROLE, admin) */\n  tag_6\n    /* \"@openzeppelin/contracts/access/AccessControl.sol\":2232:2236  0x00 */\n  0x00\n    /* \"I/Interrupt/Dynamic & Optimized Solidity Example (Defense Scenario)1.sol\":357:375  DEFAULT_ADMIN_ROLE */\n  dup1\n  shl\n    /* \"I/Interrupt/Dynamic & Optimized Solidity Example (Defense Scenario)1.sol\":377:382  admin */\n  dup3\n    /* \"I/Interrupt/Dynamic & Optimized Solidity Example (Defense Scenario)1.sol\":346:356  _grantRole */\n  shl(0x20, tag_7)\n    /* \"I/Interrupt/Dynamic & Optimized Solidity Example (Defense Scenario)1.sol\":346:383  _grantRole(DEFAULT_ADMIN_ROLE, admin) */\n  0x20\n  shr\n  jump\t// in\ntag_6:\n  pop\n    /* \"I/Interrupt/Dynamic & Optimized Solidity Example (Defense Scenario)1.sol\":309:390  constructor(address admin) {... */\n  pop\n    /* \"I/Interrupt/Dynamic & Optimized Solidity Example (Defense Scenario)1.sol\":86:983  contract IntranetSecureContract is AccessControl {... */\n  jump(tag_8)\n    /* \"@openzeppelin/contracts/access/AccessControl.sol\":6179:6495  function _grantRole(bytes32 role, address account) internal virtual returns (bool) {... */\ntag_7:\n    /* \"@openzeppelin/contracts/access/AccessControl.sol\":6256:6260  bool */\n  0x00\n    /* \"@openzeppelin/contracts/access/AccessControl.sol\":6277:6299  hasRole(role, account) */\n  tag_10\n    /* \"@openzeppelin/contracts/access/AccessControl.sol\":6285:6289  role */\n  dup4\n    /* \"@openzeppelin/contracts/access/AccessControl.sol\":6291:6298  account */\n  dup4\n    /* \"@openzeppelin/contracts/access/AccessControl.sol\":6277:6284  hasRole */\n  shl(0x20, tag_11)\n    /* \"@openzeppelin/contracts/access/AccessControl.sol\":6277:6299  hasRole(role, account) */\n  0x20\n  shr\n  jump\t// in\ntag_10:\n    /* \"@openzeppelin/contracts/access/AccessControl.sol\":6272:6489  if (!hasRole(role, account)) {... */\n  tag_12\n  jumpi\n    /* \"@openzeppelin/contracts/access/AccessControl.sol\":6347:6351  true */\n  0x01\n    /* \"@openzeppelin/contracts/access/AccessControl.sol\":6315:6321  _roles */\n  0x00\n    /* \"@openzeppelin/contracts/access/AccessControl.sol\":6315:6327  _roles[role] */\n  dup1\n    /* \"@openzeppelin/contracts/access/AccessControl.sol\":6322:6326  role */\n  dup6\n    /* \"@openzeppelin/contracts/access/AccessControl.sol\":6315:6327  _roles[role] */\n  dup2\n  mstore\n  0x20\n  add\n  swap1\n  dup2\n  mstore\n  0x20\n  add\n  0x00\n  keccak256\n    /* \"@openzeppelin/contracts/access/AccessControl.sol\":6315:6335  _roles[role].hasRole */\n  0x00\n  add\n    /* \"@openzeppelin/contracts/access/AccessControl.sol\":6315:6344  _roles[role].hasRole[account] */\n  0x00\n    /* \"@openzeppelin/contracts/access/AccessControl.sol\":6336:6343  account */\n  dup5\n    /* \"@openzeppelin/contracts/access/AccessControl.sol\":6315:6344  _roles[role].hasRole[account] */\n  0xffffffffffffffffffffffffffffffffffffffff\n  and\n  0xffffffffffffffffffffffffffffffffffffffff\n  and\n  dup2\n  mstore\n  0x20\n  add\n  swap1\n  dup2\n  mstore\n  0x20\n  add\n  0x00\n  keccak256\n  0x00\n    /* \"@openzeppelin/contracts/access/AccessControl.sol\":6315:6351  _roles[role].hasRole[account] = true */\n  0x0100\n  exp\n  dup2\n  sload\n  dup2\n  0xff\n  mul\n  not\n  and\n  swap1\n  dup4\n  iszero\n  iszero\n  mul\n  or\n  swap1\n  sstore\n  pop\n    /* \"@openzeppelin/contracts/access/AccessControl.sol\":6397:6409  _msgSender() */\n  tag_13\n    /* \"@openzeppelin/contracts/access/AccessControl.sol\":6397:6407  _msgSender */\n  shl(0x20, tag_14)\n    /* \"@openzeppelin/contracts/access/AccessControl.sol\":6397:6409  _msgSender() */\n  0x20\n  shr\n  jump\t// in\ntag_13:\n    /* \"@openzeppelin/contracts/access/AccessControl.sol\":6370:6410  RoleGranted(role, account, _msgSender()) */\n  0xffffffffffffffffffffffffffffffffffffffff\n  and\n    /* \"@openzeppelin/contracts/access/AccessControl.sol\":6388:6395  account */\n  dup3\n    /* \"@openzeppelin/contracts/access/AccessControl.sol\":6370:6410  RoleGranted(role, account, _msgSender()) */\n  0xffffffffffffffffffffffffffffffffffffffff\n  and\n    /* \"@openzeppelin/contracts/access/AccessControl.sol\":6382:6386  role */\n  dup5\n    /* \"@openzeppelin/contracts/access/AccessControl.sol\":6370:6410  RoleGranted(role, account, _msgSender()) */\n  0x2f8788117e7eff1d82e926ec794901d17c78024a50270940304540a733656f0d\n  mload(0x40)\n  mload(0x40)\n  dup1\n  swap2\n  sub\n  swap1\n  log4\n    /* \"@openzeppelin/contracts/access/AccessControl.sol\":6431:6435  true */\n  0x01\n    /* \"@openzeppelin/contracts/access/AccessControl.sol\":6424:6435  return true */\n  swap1\n  pop\n  jump(tag_9)\n    /* \"@openzeppelin/contracts/access/AccessControl.sol\":6272:6489  if (!hasRole(role, account)) {... */\ntag_12:\n    /* \"@openzeppelin/contracts/access/AccessControl.sol\":6473:6478  false */\n  0x00\n    /* \"@openzeppelin/contracts/access/AccessControl.sol\":6466:6478  return false */\n  swap1\n  pop\n    /* \"@openzeppelin/contracts/access/AccessControl.sol\":6179:6495  function _grantRole(bytes32 role, address account) internal virtual returns (bool) {... */\ntag_9:\n  swap3\n  swap2\n  pop\n  pop\n  jump\t// out\n    /* \"@openzeppelin/contracts/access/AccessControl.sol\":2854:2990  function hasRole(bytes32 role, address account) public view virtual returns (bool) {... */\ntag_11:\n    /* \"@openzeppelin/contracts/access/AccessControl.sol\":2931:2935  bool */\n  0x00\n    /* \"@openzeppelin/contracts/access/AccessControl.sol\":2954:2960  _roles */\n  dup1\n    /* \"@openzeppelin/contracts/access/AccessControl.sol\":2954:2966  _roles[role] */\n  0x00\n    /* \"@openzeppelin/contracts/access/AccessControl.sol\":2961:2965  role */\n  dup5\n    /* \"@openzeppelin/contracts/access/AccessControl.sol\":2954:2966  _roles[role] */\n  dup2\n  mstore\n  0x20\n  add\n  swap1\n  dup2\n  mstore\n  0x20\n  add\n  0x00\n  keccak256\n    /* \"@openzeppelin/contracts/access/AccessControl.sol\":2954:2974  _roles[role].hasRole */\n  0x00\n  add\n    /* \"@openzeppelin/contracts/access/AccessControl.sol\":2954:2983  _roles[role].hasRole[account] */\n  0x00\n    /* \"@openzeppelin/contracts/access/AccessControl.sol\":2975:2982  account */\n  dup4\n    /* \"@openzeppelin/contracts/access/AccessControl.sol\":2954:2983  _roles[role].hasRole[account] */\n  0xffffffffffffffffffffffffffffffffffffffff\n  and\n  0xffffffffffffffffffffffffffffffffffffffff\n  and\n  dup2\n  mstore\n  0x20\n  add\n  swap1\n  dup2\n  mstore\n  0x20\n  add\n  0x00\n  keccak256\n  0x00\n  swap1\n  sload\n  swap1\n  0x0100\n  exp\n  swap1\n  div\n  0xff\n  and\n    /* \"@openzeppelin/contracts/access/AccessControl.sol\":2947:2983  return _roles[role].hasRole[account] */\n  swap1\n  pop\n    /* \"@openzeppelin/contracts/access/AccessControl.sol\":2854:2990  function hasRole(bytes32 role, address account) public view virtual returns (bool) {... */\n  swap3\n  swap2\n  pop\n  pop\n  jump\t// out\n    /* \"@openzeppelin/contracts/utils/Context.sol\":656:752  function _msgSender() internal view virtual returns (address) {... */\ntag_14:\n    /* \"@openzeppelin/contracts/utils/Context.sol\":709:716  address */\n  0x00\n    /* \"@openzeppelin/contracts/utils/Context.sol\":735:745  msg.sender */\n  caller\n    /* \"@openzeppelin/contracts/utils/Context.sol\":728:745  return msg.sender */\n  swap1\n  pop\n    /* \"@openzeppelin/contracts/utils/Context.sol\":656:752  function _msgSender() internal view virtual returns (address) {... */\n  swap1\n  jump\t// out\n    /* \"#utility.yul\":88:205   */\ntag_19:\n    /* \"#utility.yul\":197:198   */\n  0x00\n    /* \"#utility.yul\":194:195   */\n  dup1\n    /* \"#utility.yul\":187:199   */\n  revert\n    /* \"#utility.yul\":334:460   */\ntag_21:\n    /* \"#utility.yul\":371:378   */\n  0x00\n    /* \"#utility.yul\":411:453   */\n  0xffffffffffffffffffffffffffffffffffffffff\n    /* \"#utility.yul\":404:409   */\n  dup3\n    /* \"#utility.yul\":400:454   */\n  and\n    /* \"#utility.yul\":389:454   */\n  swap1\n  pop\n    /* \"#utility.yul\":334:460   */\n  swap2\n  swap1\n  pop\n  jump\t// out\n    /* \"#utility.yul\":466:562   */\ntag_22:\n    /* \"#utility.yul\":503:510   */\n  0x00\n    /* \"#utility.yul\":532:556   */\n  tag_31\n    /* \"#utility.yul\":550:555   */\n  dup3\n    /* \"#utility.yul\":532:556   */\n  tag_21\n  jump\t// in\ntag_31:\n    /* \"#utility.yul\":521:556   */\n  swap1\n  pop\n    /* \"#utility.yul\":466:562   */\n  swap2\n  swap1\n  pop\n  jump\t// out\n    /* \"#utility.yul\":568:690   */\ntag_23:\n    /* \"#utility.yul\":641:665   */\n  tag_33\n    /* \"#utility.yul\":659:664   */\n  dup2\n    /* \"#utility.yul\":641:665   */\n  tag_22\n  jump\t// in\ntag_33:\n    /* \"#utility.yul\":634:639   */\n  dup2\n    /* \"#utility.yul\":631:666   */\n  eq\n    /* \"#utility.yul\":621:684   */\n  tag_34\n  jumpi\n    /* \"#utility.yul\":680:681   */\n  0x00\n    /* \"#utility.yul\":677:678   */\n  dup1\n    /* \"#utility.yul\":670:682   */\n  revert\n    /* \"#utility.yul\":621:684   */\ntag_34:\n    /* \"#utility.yul\":568:690   */\n  pop\n  jump\t// out\n    /* \"#utility.yul\":696:839   */\ntag_24:\n    /* \"#utility.yul\":753:758   */\n  0x00\n    /* \"#utility.yul\":784:790   */\n  dup2\n    /* \"#utility.yul\":778:791   */\n  mload\n    /* \"#utility.yul\":769:791   */\n  swap1\n  pop\n    /* \"#utility.yul\":800:833   */\n  tag_36\n    /* \"#utility.yul\":827:832   */\n  dup2\n    /* \"#utility.yul\":800:833   */\n  tag_23\n  jump\t// in\ntag_36:\n    /* \"#utility.yul\":696:839   */\n  swap3\n  swap2\n  pop\n  pop\n  jump\t// out\n    /* \"#utility.yul\":845:1196   */\ntag_3:\n    /* \"#utility.yul\":915:921   */\n  0x00\n    /* \"#utility.yul\":964:966   */\n  0x20\n    /* \"#utility.yul\":952:961   */\n  dup3\n    /* \"#utility.yul\":943:950   */\n  dup5\n    /* \"#utility.yul\":939:962   */\n  sub\n    /* \"#utility.yul\":935:967   */\n  slt\n    /* \"#utility.yul\":932:1051   */\n  iszero\n  tag_38\n  jumpi\n    /* \"#utility.yul\":970:1049   */\n  tag_39\n  tag_19\n  jump\t// in\ntag_39:\n    /* \"#utility.yul\":932:1051   */\ntag_38:\n    /* \"#utility.yul\":1090:1091   */\n  0x00\n    /* \"#utility.yul\":1115:1179   */\n  tag_40\n    /* \"#utility.yul\":1171:1178   */\n  dup5\n    /* \"#utility.yul\":1162:1168   */\n  dup3\n    /* \"#utility.yul\":1151:1160   */\n  dup6\n    /* \"#utility.yul\":1147:1169   */\n  add\n    /* \"#utility.yul\":1115:1179   */\n  tag_24\n  jump\t// in\ntag_40:\n    /* \"#utility.yul\":1105:1179   */\n  swap2\n  pop\n    /* \"#utility.yul\":1061:1189   */\n  pop\n    /* \"#utility.yul\":845:1196   */\n  swap3\n  swap2\n  pop\n  pop\n  jump\t// out\n    /* \"I/Interrupt/Dynamic & Optimized Solidity Example (Defense Scenario)1.sol\":86:983  contract IntranetSecureContract is AccessControl {... */\ntag_8:\n  dataSize(sub_0)\n  dup1\n  dataOffset(sub_0)\n  0x00\n  codecopy\n  0x00\n  return\nstop\n\nsub_0: assembly {\n        /* \"I/Interrupt/Dynamic & Optimized Solidity Example (Defense Scenario)1.sol\":86:983  contract IntranetSecureContract is AccessControl {... */\n      mstore(0x40, 0x80)\n      callvalue\n      dup1\n      iszero\n      tag_1\n      jumpi\n      0x00\n      dup1\n      revert\n    tag_1:\n      pop\n      jumpi(tag_2, lt(calldatasize, 0x04))\n      shr(0xe0, calldataload(0x00))\n      dup1\n      0xa217fddf\n      gt\n      tag_15\n      jumpi\n      dup1\n      0xa217fddf\n      eq\n      tag_9\n      jumpi\n      dup1\n      0xbeff6824\n      eq\n      tag_10\n      jumpi\n      dup1\n      0xc2093b0b\n      eq\n      tag_11\n      jumpi\n      dup1\n      0xd547741f\n      eq\n      tag_12\n      jumpi\n      dup1\n      0xec14689c\n      eq\n      tag_13\n      jumpi\n      dup1\n      0xf824e92e\n      eq\n      tag_14\n      jumpi\n      jump(tag_2)\n    tag_15:\n      dup1\n      0x01ffc9a7\n      eq\n      tag_3\n      jumpi\n      dup1\n      0x248a9ca3\n      eq\n      tag_4\n      jumpi\n      dup1\n      0x2f2ff15d\n      eq\n      tag_5\n      jumpi\n      dup1\n      0x36568abe\n      eq\n      tag_6\n      jumpi\n      dup1\n      0x91d14854\n      eq\n      tag_7\n      jumpi\n      dup1\n      0x9b08ae9c\n      eq\n      tag_8\n      jumpi\n    tag_2:\n      0x00\n      dup1\n      revert\n        /* \"@openzeppelin/contracts/access/AccessControl.sol\":2565:2767  function supportsInterface(bytes4 interfaceId) public view virtual override returns (bool) {... */\n    tag_3:\n      tag_16\n      0x04\n      dup1\n      calldatasize\n      sub\n      dup2\n      add\n      swap1\n      tag_17\n      swap2\n      swap1\n      tag_18\n      jump\t// in\n    tag_17:\n      tag_19\n      jump\t// in\n    tag_16:\n      mload(0x40)\n      tag_20\n      swap2\n      swap1\n      tag_21\n      jump\t// in\n    tag_20:\n      mload(0x40)\n      dup1\n      swap2\n      sub\n      swap1\n      return\n        /* \"@openzeppelin/contracts/access/AccessControl.sol\":3810:3930  function getRoleAdmin(bytes32 role) public view virtual returns (bytes32) {... */\n    tag_4:\n      tag_22\n      0x04\n      dup1\n      calldatasize\n      sub\n      dup2\n      add\n      swap1\n      tag_23\n      swap2\n      swap1\n      tag_24\n      jump\t// in\n    tag_23:\n      tag_25\n      jump\t// in\n    tag_22:\n      mload(0x40)\n      tag_26\n      swap2\n      swap1\n      tag_27\n      jump\t// in\n    tag_26:\n      mload(0x40)\n      dup1\n      swap2\n      sub\n      swap1\n      return\n        /* \"@openzeppelin/contracts/access/AccessControl.sol\":4226:4362  function grantRole(bytes32 role, address account) public virtual onlyRole(getRoleAdmin(role)) {... */\n    tag_5:\n      tag_28\n      0x04\n      dup1\n      calldatasize\n      sub\n      dup2\n      add\n      swap1\n      tag_29\n      swap2\n      swap1\n      tag_30\n      jump\t// in\n    tag_29:\n      tag_31\n      jump\t// in\n    tag_28:\n      stop\n        /* \"@openzeppelin/contracts/access/AccessControl.sol\":5328:5573  function renounceRole(bytes32 role, address callerConfirmation) public virtual {... */\n    tag_6:\n      tag_32\n      0x04\n      dup1\n      calldatasize\n      sub\n      dup2\n      add\n      swap1\n      tag_33\n      swap2\n      swap1\n      tag_30\n      jump\t// in\n    tag_33:\n      tag_34\n      jump\t// in\n    tag_32:\n      stop\n        /* \"@openzeppelin/contracts/access/AccessControl.sol\":2854:2990  function hasRole(bytes32 role, address account) public view virtual returns (bool) {... */\n    tag_7:\n      tag_35\n      0x04\n      dup1\n      calldatasize\n      sub\n      dup2\n      add\n      swap1\n      tag_36\n      swap2\n      swap1\n      tag_30\n      jump\t// in\n    tag_36:\n      tag_37\n      jump\t// in\n    tag_35:\n      mload(0x40)\n      tag_38\n      swap2\n      swap1\n      tag_21\n      jump\t// in\n    tag_38:\n      mload(0x40)\n      dup1\n      swap2\n      sub\n      swap1\n      return\n        /* \"I/Interrupt/Dynamic & Optimized Solidity Example (Defense Scenario)1.sol\":847:981  function viewConfidentialData() external view onlyRole(INTERNAL_ROLE) returns (string memory) {... */\n    tag_8:\n      tag_39\n      tag_40\n      jump\t// in\n    tag_39:\n      mload(0x40)\n      tag_41\n      swap2\n      swap1\n      tag_42\n      jump\t// in\n    tag_41:\n      mload(0x40)\n      dup1\n      swap2\n      sub\n      swap1\n      return\n        /* \"@openzeppelin/contracts/access/AccessControl.sol\":2187:2236  bytes32 public constant DEFAULT_ADMIN_ROLE = 0x00 */\n    tag_9:\n      tag_43\n      tag_44\n      jump\t// in\n    tag_43:\n      mload(0x40)\n      tag_45\n      swap2\n      swap1\n      tag_27\n      jump\t// in\n    tag_45:\n      mload(0x40)\n      dup1\n      swap2\n      sub\n      swap1\n      return\n        /* \"I/Interrupt/Dynamic & Optimized Solidity Example (Defense Scenario)1.sol\":141:207  bytes32 public constant INTERNAL_ROLE = keccak256(\"INTERNAL_ROLE\") */\n    tag_10:\n      tag_46\n      tag_47\n      jump\t// in\n    tag_46:\n      mload(0x40)\n      tag_48\n      swap2\n      swap1\n      tag_27\n      jump\t// in\n    tag_48:\n      mload(0x40)\n      dup1\n      swap2\n      sub\n      swap1\n      return\n        /* \"I/Interrupt/Dynamic & Optimized Solidity Example (Defense Scenario)1.sol\":530:660  function revokeInternalAccess(address user) external onlyRole(DEFAULT_ADMIN_ROLE) {... */\n    tag_11:\n      tag_49\n      0x04\n      dup1\n      calldatasize\n      sub\n      dup2\n      add\n      swap1\n      tag_50\n      swap2\n      swap1\n      tag_51\n      jump\t// in\n    tag_50:\n      tag_52\n      jump\t// in\n    tag_49:\n      stop\n        /* \"@openzeppelin/contracts/access/AccessControl.sol\":4642:4780  function revokeRole(bytes32 role, address account) public virtual onlyRole(getRoleAdmin(role)) {... */\n    tag_12:\n      tag_53\n      0x04\n      dup1\n      calldatasize\n      sub\n      dup2\n      add\n      swap1\n      tag_54\n      swap2\n      swap1\n      tag_30\n      jump\t// in\n    tag_54:\n      tag_55\n      jump\t// in\n    tag_53:\n      stop\n        /* \"I/Interrupt/Dynamic & Optimized Solidity Example (Defense Scenario)1.sol\":396:524  function grantInternalAccess(address user) external onlyRole(DEFAULT_ADMIN_ROLE) {... */\n    tag_13:\n      tag_56\n      0x04\n      dup1\n      calldatasize\n      sub\n      dup2\n      add\n      swap1\n      tag_57\n      swap2\n      swap1\n      tag_51\n      jump\t// in\n    tag_57:\n      tag_58\n      jump\t// in\n    tag_56:\n      stop\n        /* \"I/Interrupt/Dynamic & Optimized Solidity Example (Defense Scenario)1.sol\":666:841  function confidentialAction(string memory data) external onlyRole(INTERNAL_ROLE) {... */\n    tag_14:\n      tag_59\n      0x04\n      dup1\n      calldatasize\n      sub\n      dup2\n      add\n      swap1\n      tag_60\n      swap2\n      swap1\n      tag_61\n      jump\t// in\n    tag_60:\n      tag_62\n      jump\t// in\n    tag_59:\n      stop\n        /* \"@openzeppelin/contracts/access/AccessControl.sol\":2565:2767  function supportsInterface(bytes4 interfaceId) public view virtual override returns (bool) {... */\n    tag_19:\n        /* \"@openzeppelin/contracts/access/AccessControl.sol\":2650:2654  bool */\n      0x00\n        /* \"@openzeppelin/contracts/access/AccessControl.sol\":2688:2720  type(IAccessControl).interfaceId */\n      0x7965db0b00000000000000000000000000000000000000000000000000000000\n        /* \"@openzeppelin/contracts/access/AccessControl.sol\":2673:2720  interfaceId == type(IAccessControl).interfaceId */\n      not(0xffffffffffffffffffffffffffffffffffffffffffffffffffffffff)\n      and\n        /* \"@openzeppelin/contracts/access/AccessControl.sol\":2673:2684  interfaceId */\n      dup3\n        /* \"@openzeppelin/contracts/access/AccessControl.sol\":2673:2720  interfaceId == type(IAccessControl).interfaceId */\n      not(0xffffffffffffffffffffffffffffffffffffffffffffffffffffffff)\n      and\n      eq\n        /* \"@openzeppelin/contracts/access/AccessControl.sol\":2673:2760  interfaceId == type(IAccessControl).interfaceId || super.supportsInterface(interfaceId) */\n      dup1\n      tag_64\n      jumpi\n      pop\n        /* \"@openzeppelin/contracts/access/AccessControl.sol\":2724:2760  super.supportsInterface(interfaceId) */\n      tag_65\n        /* \"@openzeppelin/contracts/access/AccessControl.sol\":2748:2759  interfaceId */\n      dup3\n        /* \"@openzeppelin/contracts/access/AccessControl.sol\":2724:2747  super.supportsInterface */\n      tag_66\n        /* \"@openzeppelin/contracts/access/AccessControl.sol\":2724:2760  super.supportsInterface(interfaceId) */\n      jump\t// in\n    tag_65:\n        /* \"@openzeppelin/contracts/access/AccessControl.sol\":2673:2760  interfaceId == type(IAccessControl).interfaceId || super.supportsInterface(interfaceId) */\n    tag_64:\n        /* \"@openzeppelin/contracts/access/AccessControl.sol\":2666:2760  return interfaceId == type(IAccessControl).interfaceId || super.supportsInterface(interfaceId) */\n      swap1\n      pop\n        /* \"@openzeppelin/contracts/access/AccessControl.sol\":2565:2767  function supportsInterface(bytes4 interfaceId) public view virtual override returns (bool) {... */\n      swap2\n      swap1\n      pop\n      jump\t// out\n        /* \"@openzeppelin/contracts/access/AccessControl.sol\":3810:3930  function getRoleAdmin(bytes32 role) public view virtual returns (bytes32) {... */\n    tag_25:\n        /* \"@openzeppelin/contracts/access/AccessControl.sol\":3875:3882  bytes32 */\n      0x00\n        /* \"@openzeppelin/contracts/access/AccessControl.sol\":3901:3907  _roles */\n      dup1\n        /* \"@openzeppelin/contracts/access/AccessControl.sol\":3901:3913  _roles[role] */\n      0x00\n        /* \"@openzeppelin/contracts/access/AccessControl.sol\":3908:3912  role */\n      dup4\n        /* \"@openzeppelin/contracts/access/AccessControl.sol\":3901:3913  _roles[role] */\n      dup2\n      mstore\n      0x20\n      add\n      swap1\n      dup2\n      mstore\n      0x20\n      add\n      0x00\n      keccak256\n        /* \"@openzeppelin/contracts/access/AccessControl.sol\":3901:3923  _roles[role].adminRole */\n      0x01\n      add\n      sload\n        /* \"@openzeppelin/contracts/access/AccessControl.sol\":3894:3923  return _roles[role].adminRole */\n      swap1\n      pop\n        /* \"@openzeppelin/contracts/access/AccessControl.sol\":3810:3930  function getRoleAdmin(bytes32 role) public view virtual returns (bytes32) {... */\n      swap2\n      swap1\n      pop\n      jump\t// out\n        /* \"@openzeppelin/contracts/access/AccessControl.sol\":4226:4362  function grantRole(bytes32 role, address account) public virtual onlyRole(getRoleAdmin(role)) {... */\n    tag_31:\n        /* \"@openzeppelin/contracts/access/AccessControl.sol\":4300:4318  getRoleAdmin(role) */\n      tag_68\n        /* \"@openzeppelin/contracts/access/AccessControl.sol\":4313:4317  role */\n      dup3\n        /* \"@openzeppelin/contracts/access/AccessControl.sol\":4300:4312  getRoleAdmin */\n      tag_25\n        /* \"@openzeppelin/contracts/access/AccessControl.sol\":4300:4318  getRoleAdmin(role) */\n      jump\t// in\n    tag_68:\n        /* \"@openzeppelin/contracts/access/AccessControl.sol\":2464:2480  _checkRole(role) */\n      tag_70\n        /* \"@openzeppelin/contracts/access/AccessControl.sol\":2475:2479  role */\n      dup2\n        /* \"@openzeppelin/contracts/access/AccessControl.sol\":2464:2474  _checkRole */\n      tag_71\n        /* \"@openzeppelin/contracts/access/AccessControl.sol\":2464:2480  _checkRole(role) */\n      jump\t// in\n    tag_70:\n        /* \"@openzeppelin/contracts/access/AccessControl.sol\":4330:4355  _grantRole(role, account) */\n      tag_73\n        /* \"@openzeppelin/contracts/access/AccessControl.sol\":4341:4345  role */\n      dup4\n        /* \"@openzeppelin/contracts/access/AccessControl.sol\":4347:4354  account */\n      dup4\n        /* \"@openzeppelin/contracts/access/AccessControl.sol\":4330:4340  _grantRole */\n      tag_74\n        /* \"@openzeppelin/contracts/access/AccessControl.sol\":4330:4355  _grantRole(role, account) */\n      jump\t// in\n    tag_73:\n      pop\n        /* \"@openzeppelin/contracts/access/AccessControl.sol\":4226:4362  function grantRole(bytes32 role, address account) public virtual onlyRole(getRoleAdmin(role)) {... */\n      pop\n      pop\n      pop\n      jump\t// out\n        /* \"@openzeppelin/contracts/access/AccessControl.sol\":5328:5573  function renounceRole(bytes32 role, address callerConfirmation) public virtual {... */\n    tag_34:\n        /* \"@openzeppelin/contracts/access/AccessControl.sol\":5443:5455  _msgSender() */\n      tag_76\n        /* \"@openzeppelin/contracts/access/AccessControl.sol\":5443:5453  _msgSender */\n      tag_77\n        /* \"@openzeppelin/contracts/access/AccessControl.sol\":5443:5455  _msgSender() */\n      jump\t// in\n    tag_76:\n        /* \"@openzeppelin/contracts/access/AccessControl.sol\":5421:5455  callerConfirmation != _msgSender() */\n      0xffffffffffffffffffffffffffffffffffffffff\n      and\n        /* \"@openzeppelin/contracts/access/AccessControl.sol\":5421:5439  callerConfirmation */\n      dup2\n        /* \"@openzeppelin/contracts/access/AccessControl.sol\":5421:5455  callerConfirmation != _msgSender() */\n      0xffffffffffffffffffffffffffffffffffffffff\n      and\n      eq\n        /* \"@openzeppelin/contracts/access/AccessControl.sol\":5417:5519  if (callerConfirmation != _msgSender()) {... */\n      tag_78\n      jumpi\n        /* \"@openzeppelin/contracts/access/AccessControl.sol\":5478:5508  AccessControlBadConfirmation() */\n      mload(0x40)\n      0x6697b23200000000000000000000000000000000000000000000000000000000\n      dup2\n      mstore\n      0x04\n      add\n      mload(0x40)\n      dup1\n      swap2\n      sub\n      swap1\n      revert\n        /* \"@openzeppelin/contracts/access/AccessControl.sol\":5417:5519  if (callerConfirmation != _msgSender()) {... */\n    tag_78:\n        /* \"@openzeppelin/contracts/access/AccessControl.sol\":5529:5566  _revokeRole(role, callerConfirmation) */\n      tag_79\n        /* \"@openzeppelin/contracts/access/AccessControl.sol\":5541:5545  role */\n      dup3\n        /* \"@openzeppelin/contracts/access/AccessControl.sol\":5547:5565  callerConfirmation */\n      dup3\n        /* \"@openzeppelin/contracts/access/AccessControl.sol\":5529:5540  _revokeRole */\n      tag_80\n        /* \"@openzeppelin/contracts/access/AccessControl.sol\":5529:5566  _revokeRole(role, callerConfirmation) */\n      jump\t// in\n    tag_79:\n      pop\n        /* \"@openzeppelin/contracts/access/AccessControl.sol\":5328:5573  function renounceRole(bytes32 role, address callerConfirmation) public virtual {... */\n      pop\n      pop\n      jump\t// out\n        /* \"@openzeppelin/contracts/access/AccessControl.sol\":2854:2990  function hasRole(bytes32 role, address account) public view virtual returns (bool) {... */\n    tag_37:\n        /* \"@openzeppelin/contracts/access/AccessControl.sol\":2931:2935  bool */\n      0x00\n        /* \"@openzeppelin/contracts/access/AccessControl.sol\":2954:2960  _roles */\n      dup1\n        /* \"@openzeppelin/contracts/access/AccessControl.sol\":2954:2966  _roles[role] */\n      0x00\n        /* \"@openzeppelin/contracts/access/AccessControl.sol\":2961:2965  role */\n      dup5\n        /* \"@openzeppelin/contracts/access/AccessControl.sol\":2954:2966  _roles[role] */\n      dup2\n      mstore\n      0x20\n      add\n      swap1\n      dup2\n      mstore\n      0x20\n      add\n      0x00\n      keccak256\n        /* \"@openzeppelin/contracts/access/AccessControl.sol\":2954:2974  _roles[role].hasRole */\n      0x00\n      add\n        /* \"@openzeppelin/contracts/access/AccessControl.sol\":2954:2983  _roles[role].hasRole[account] */\n      0x00\n        /* \"@openzeppelin/contracts/access/AccessControl.sol\":2975:2982  account */\n      dup4\n        /* \"@openzeppelin/contracts/access/AccessControl.sol\":2954:2983  _roles[role].hasRole[account] */\n      0xffffffffffffffffffffffffffffffffffffffff\n      and\n      0xffffffffffffffffffffffffffffffffffffffff\n      and\n      dup2\n      mstore\n      0x20\n      add\n      swap1\n      dup2\n      mstore\n      0x20\n      add\n      0x00\n      keccak256\n      0x00\n      swap1\n      sload\n      swap1\n      0x0100\n      exp\n      swap1\n      div\n      0xff\n      and\n        /* \"@openzeppelin/contracts/access/AccessControl.sol\":2947:2983  return _roles[role].hasRole[account] */\n      swap1\n      pop\n        /* \"@openzeppelin/contracts/access/AccessControl.sol\":2854:2990  function hasRole(bytes32 role, address account) public view virtual returns (bool) {... */\n      swap3\n      swap2\n      pop\n      pop\n      jump\t// out\n        /* \"I/Interrupt/Dynamic & Optimized Solidity Example (Defense Scenario)1.sol\":847:981  function viewConfidentialData() external view onlyRole(INTERNAL_ROLE) returns (string memory) {... */\n    tag_40:\n        /* \"I/Interrupt/Dynamic & Optimized Solidity Example (Defense Scenario)1.sol\":926:939  string memory */\n      0x60\n        /* \"I/Interrupt/Dynamic & Optimized Solidity Example (Defense Scenario)1.sol\":181:207  keccak256(\"INTERNAL_ROLE\") */\n      0xddd94edc7da5bca8f576c77964a4737ba5172c728e2d539e672f0229d1e9ec2d\n        /* \"@openzeppelin/contracts/access/AccessControl.sol\":2464:2480  _checkRole(role) */\n      tag_83\n        /* \"@openzeppelin/contracts/access/AccessControl.sol\":2475:2479  role */\n      dup2\n        /* \"@openzeppelin/contracts/access/AccessControl.sol\":2464:2474  _checkRole */\n      tag_71\n        /* \"@openzeppelin/contracts/access/AccessControl.sol\":2464:2480  _checkRole(role) */\n      jump\t// in\n    tag_83:\n        /* \"I/Interrupt/Dynamic & Optimized Solidity Example (Defense Scenario)1.sol\":958:974  confidentialData */\n      0x01\n        /* \"I/Interrupt/Dynamic & Optimized Solidity Example (Defense Scenario)1.sol\":951:974  return confidentialData */\n      dup1\n      sload\n      tag_85\n      swap1\n      tag_86\n      jump\t// in\n    tag_85:\n      dup1\n      0x1f\n      add\n      0x20\n      dup1\n      swap2\n      div\n      mul\n      0x20\n      add\n      mload(0x40)\n      swap1\n      dup2\n      add\n      0x40\n      mstore\n      dup1\n      swap3\n      swap2\n      swap1\n      dup2\n      dup2\n      mstore\n      0x20\n      add\n      dup3\n      dup1\n      sload\n      tag_87\n      swap1\n      tag_86\n      jump\t// in\n    tag_87:\n      dup1\n      iszero\n      tag_88\n      jumpi\n      dup1\n      0x1f\n      lt\n      tag_89\n      jumpi\n      0x0100\n      dup1\n      dup4\n      sload\n      div\n      mul\n      dup4\n      mstore\n      swap2\n      0x20\n      add\n      swap2\n      jump(tag_88)\n    tag_89:\n      dup3\n      add\n      swap2\n      swap1\n      0x00\n      mstore\n      keccak256(0x00, 0x20)\n      swap1\n    tag_90:\n      dup2\n      sload\n      dup2\n      mstore\n      swap1\n      0x01\n      add\n      swap1\n      0x20\n      add\n      dup1\n      dup4\n      gt\n      tag_90\n      jumpi\n      dup3\n      swap1\n      sub\n      0x1f\n      and\n      dup3\n      add\n      swap2\n    tag_88:\n      pop\n      pop\n      pop\n      pop\n      pop\n      swap2\n      pop\n        /* \"I/Interrupt/Dynamic & Optimized Solidity Example (Defense Scenario)1.sol\":847:981  function viewConfidentialData() external view onlyRole(INTERNAL_ROLE) returns (string memory) {... */\n      pop\n      swap1\n      jump\t// out\n        /* \"@openzeppelin/contracts/access/AccessControl.sol\":2187:2236  bytes32 public constant DEFAULT_ADMIN_ROLE = 0x00 */\n    tag_44:\n        /* \"@openzeppelin/contracts/access/AccessControl.sol\":2232:2236  0x00 */\n      0x00\n        /* \"@openzeppelin/contracts/access/AccessControl.sol\":2187:2236  bytes32 public constant DEFAULT_ADMIN_ROLE = 0x00 */\n      dup1\n      shl\n      dup2\n      jump\t// out\n        /* \"I/Interrupt/Dynamic & Optimized Solidity Example (Defense Scenario)1.sol\":141:207  bytes32 public constant INTERNAL_ROLE = keccak256(\"INTERNAL_ROLE\") */\n    tag_47:\n        /* \"I/Interrupt/Dynamic & Optimized Solidity Example (Defense Scenario)1.sol\":181:207  keccak256(\"INTERNAL_ROLE\") */\n      0xddd94edc7da5bca8f576c77964a4737ba5172c728e2d539e672f0229d1e9ec2d\n        /* \"I/Interrupt/Dynamic & Optimized Solidity Example (Defense Scenario)1.sol\":141:207  bytes32 public constant INTERNAL_ROLE = keccak256(\"INTERNAL_ROLE\") */\n      dup2\n      jump\t// out\n        /* \"I/Interrupt/Dynamic & Optimized Solidity Example (Defense Scenario)1.sol\":530:660  function revokeInternalAccess(address user) external onlyRole(DEFAULT_ADMIN_ROLE) {... */\n    tag_52:\n        /* \"@openzeppelin/contracts/access/AccessControl.sol\":2232:2236  0x00 */\n      0x00\n        /* \"I/Interrupt/Dynamic & Optimized Solidity Example (Defense Scenario)1.sol\":592:610  DEFAULT_ADMIN_ROLE */\n      dup1\n      shl\n        /* \"@openzeppelin/contracts/access/AccessControl.sol\":2464:2480  _checkRole(role) */\n      tag_92\n        /* \"@openzeppelin/contracts/access/AccessControl.sol\":2475:2479  role */\n      dup2\n        /* \"@openzeppelin/contracts/access/AccessControl.sol\":2464:2474  _checkRole */\n      tag_71\n        /* \"@openzeppelin/contracts/access/AccessControl.sol\":2464:2480  _checkRole(role) */\n      jump\t// in\n    tag_92:\n        /* \"I/Interrupt/Dynamic & Optimized Solidity Example (Defense Scenario)1.sol\":622:653  revokeRole(INTERNAL_ROLE, user) */\n      tag_94\n        /* \"I/Interrupt/Dynamic & Optimized Solidity Example (Defense Scenario)1.sol\":181:207  keccak256(\"INTERNAL_ROLE\") */\n      0xddd94edc7da5bca8f576c77964a4737ba5172c728e2d539e672f0229d1e9ec2d\n        /* \"I/Interrupt/Dynamic & Optimized Solidity Example (Defense Scenario)1.sol\":648:652  user */\n      dup4\n        /* \"I/Interrupt/Dynamic & Optimized Solidity Example (Defense Scenario)1.sol\":622:632  revokeRole */\n      tag_55\n        /* \"I/Interrupt/Dynamic & Optimized Solidity Example (Defense Scenario)1.sol\":622:653  revokeRole(INTERNAL_ROLE, user) */\n      jump\t// in\n    tag_94:\n        /* \"I/Interrupt/Dynamic & Optimized Solidity Example (Defense Scenario)1.sol\":530:660  function revokeInternalAccess(address user) external onlyRole(DEFAULT_ADMIN_ROLE) {... */\n      pop\n      pop\n      jump\t// out\n        /* \"@openzeppelin/contracts/access/AccessControl.sol\":4642:4780  function revokeRole(bytes32 role, address account) public virtual onlyRole(getRoleAdmin(role)) {... */\n    tag_55:\n        /* \"@openzeppelin/contracts/access/AccessControl.sol\":4717:4735  getRoleAdmin(role) */\n      tag_95\n        /* \"@openzeppelin/contracts/access/AccessControl.sol\":4730:4734  role */\n      dup3\n        /* \"@openzeppelin/contracts/access/AccessControl.sol\":4717:4729  getRoleAdmin */\n      tag_25\n        /* \"@openzeppelin/contracts/access/AccessControl.sol\":4717:4735  getRoleAdmin(role) */\n      jump\t// in\n    tag_95:\n        /* \"@openzeppelin/contracts/access/AccessControl.sol\":2464:2480  _checkRole(role) */\n      tag_97\n        /* \"@openzeppelin/contracts/access/AccessControl.sol\":2475:2479  role */\n      dup2\n        /* \"@openzeppelin/contracts/access/AccessControl.sol\":2464:2474  _checkRole */\n      tag_71\n        /* \"@openzeppelin/contracts/access/AccessControl.sol\":2464:2480  _checkRole(role) */\n      jump\t// in\n    tag_97:\n        /* \"@openzeppelin/contracts/access/AccessControl.sol\":4747:4773  _revokeRole(role, account) */\n      tag_99\n        /* \"@openzeppelin/contracts/access/AccessControl.sol\":4759:4763  role */\n      dup4\n        /* \"@openzeppelin/contracts/access/AccessControl.sol\":4765:4772  account */\n      dup4\n        /* \"@openzeppelin/contracts/access/AccessControl.sol\":4747:4758  _revokeRole */\n      tag_80\n        /* \"@openzeppelin/contracts/access/AccessControl.sol\":4747:4773  _revokeRole(role, account) */\n      jump\t// in\n    tag_99:\n      pop\n        /* \"@openzeppelin/contracts/access/AccessControl.sol\":4642:4780  function revokeRole(bytes32 role, address account) public virtual onlyRole(getRoleAdmin(role)) {... */\n      pop\n      pop\n      pop\n      jump\t// out\n        /* \"I/Interrupt/Dynamic & Optimized Solidity Example (Defense Scenario)1.sol\":396:524  function grantInternalAccess(address user) external onlyRole(DEFAULT_ADMIN_ROLE) {... */\n    tag_58:\n        /* \"@openzeppelin/contracts/access/AccessControl.sol\":2232:2236  0x00 */\n      0x00\n        /* \"I/Interrupt/Dynamic & Optimized Solidity Example (Defense Scenario)1.sol\":457:475  DEFAULT_ADMIN_ROLE */\n      dup1\n      shl\n        /* \"@openzeppelin/contracts/access/AccessControl.sol\":2464:2480  _checkRole(role) */\n      tag_101\n        /* \"@openzeppelin/contracts/access/AccessControl.sol\":2475:2479  role */\n      dup2\n        /* \"@openzeppelin/contracts/access/AccessControl.sol\":2464:2474  _checkRole */\n      tag_71\n        /* \"@openzeppelin/contracts/access/AccessControl.sol\":2464:2480  _checkRole(role) */\n      jump\t// in\n    tag_101:\n        /* \"I/Interrupt/Dynamic & Optimized Solidity Example (Defense Scenario)1.sol\":487:517  grantRole(INTERNAL_ROLE, user) */\n      tag_103\n        /* \"I/Interrupt/Dynamic & Optimized Solidity Example (Defense Scenario)1.sol\":181:207  keccak256(\"INTERNAL_ROLE\") */\n      0xddd94edc7da5bca8f576c77964a4737ba5172c728e2d539e672f0229d1e9ec2d\n        /* \"I/Interrupt/Dynamic & Optimized Solidity Example (Defense Scenario)1.sol\":512:516  user */\n      dup4\n        /* \"I/Interrupt/Dynamic & Optimized Solidity Example (Defense Scenario)1.sol\":487:496  grantRole */\n      tag_31\n        /* \"I/Interrupt/Dynamic & Optimized Solidity Example (Defense Scenario)1.sol\":487:517  grantRole(INTERNAL_ROLE, user) */\n      jump\t// in\n    tag_103:\n        /* \"I/Interrupt/Dynamic & Optimized Solidity Example (Defense Scenario)1.sol\":396:524  function grantInternalAccess(address user) external onlyRole(DEFAULT_ADMIN_ROLE) {... */\n      pop\n      pop\n      jump\t// out\n        /* \"I/Interrupt/Dynamic & Optimized Solidity Example (Defense Scenario)1.sol\":666:841  function confidentialAction(string memory data) external onlyRole(INTERNAL_ROLE) {... */\n    tag_62:\n        /* \"I/Interrupt/Dynamic & Optimized Solidity Example (Defense Scenario)1.sol\":181:207  keccak256(\"INTERNAL_ROLE\") */\n      0xddd94edc7da5bca8f576c77964a4737ba5172c728e2d539e672f0229d1e9ec2d\n        /* \"@openzeppelin/contracts/access/AccessControl.sol\":2464:2480  _checkRole(role) */\n      tag_105\n        /* \"@openzeppelin/contracts/access/AccessControl.sol\":2475:2479  role */\n      dup2\n        /* \"@openzeppelin/contracts/access/AccessControl.sol\":2464:2474  _checkRole */\n      tag_71\n        /* \"@openzeppelin/contracts/access/AccessControl.sol\":2464:2480  _checkRole(role) */\n      jump\t// in\n    tag_105:\n        /* \"I/Interrupt/Dynamic & Optimized Solidity Example (Defense Scenario)1.sol\":776:780  data */\n      dup2\n        /* \"I/Interrupt/Dynamic & Optimized Solidity Example (Defense Scenario)1.sol\":757:773  confidentialData */\n      0x01\n        /* \"I/Interrupt/Dynamic & Optimized Solidity Example (Defense Scenario)1.sol\":757:780  confidentialData = data */\n      swap1\n      dup2\n      tag_107\n      swap2\n      swap1\n      tag_108\n      jump\t// in\n    tag_107:\n      pop\n        /* \"I/Interrupt/Dynamic & Optimized Solidity Example (Defense Scenario)1.sol\":795:834  ConfidentialActionPerformed(msg.sender) */\n      0xfffff3b6d2af20d0857e636740b82ca9ce23c36a669ab61c56146c5ab81fcfb2\n        /* \"I/Interrupt/Dynamic & Optimized Solidity Example (Defense Scenario)1.sol\":823:833  msg.sender */\n      caller\n        /* \"I/Interrupt/Dynamic & Optimized Solidity Example (Defense Scenario)1.sol\":795:834  ConfidentialActionPerformed(msg.sender) */\n      mload(0x40)\n      tag_109\n      swap2\n      swap1\n      tag_110\n      jump\t// in\n    tag_109:\n      mload(0x40)\n      dup1\n      swap2\n      sub\n      swap1\n      log1\n        /* \"I/Interrupt/Dynamic & Optimized Solidity Example (Defense Scenario)1.sol\":666:841  function confidentialAction(string memory data) external onlyRole(INTERNAL_ROLE) {... */\n      pop\n      pop\n      jump\t// out\n        /* \"@openzeppelin/contracts/utils/introspection/ERC165.sol\":763:909  function supportsInterface(bytes4 interfaceId) public view virtual returns (bool) {... */\n    tag_66:\n        /* \"@openzeppelin/contracts/utils/introspection/ERC165.sol\":839:843  bool */\n      0x00\n        /* \"@openzeppelin/contracts/utils/introspection/ERC165.sol\":877:902  type(IERC165).interfaceId */\n      0x01ffc9a700000000000000000000000000000000000000000000000000000000\n        /* \"@openzeppelin/contracts/utils/introspection/ERC165.sol\":862:902  interfaceId == type(IERC165).interfaceId */\n      not(0xffffffffffffffffffffffffffffffffffffffffffffffffffffffff)\n      and\n        /* \"@openzeppelin/contracts/utils/introspection/ERC165.sol\":862:873  interfaceId */\n      dup3\n        /* \"@openzeppelin/contracts/utils/introspection/ERC165.sol\":862:902  interfaceId == type(IERC165).interfaceId */\n      not(0xffffffffffffffffffffffffffffffffffffffffffffffffffffffff)\n      and\n      eq\n        /* \"@openzeppelin/contracts/utils/introspection/ERC165.sol\":855:902  return interfaceId == type(IERC165).interfaceId */\n      swap1\n      pop\n        /* \"@openzeppelin/contracts/utils/introspection/ERC165.sol\":763:909  function supportsInterface(bytes4 interfaceId) public view virtual returns (bool) {... */\n      swap2\n      swap1\n      pop\n      jump\t// out\n        /* \"@openzeppelin/contracts/access/AccessControl.sol\":3199:3302  function _checkRole(bytes32 role) internal view virtual {... */\n    tag_71:\n        /* \"@openzeppelin/contracts/access/AccessControl.sol\":3265:3295  _checkRole(role, _msgSender()) */\n      tag_113\n        /* \"@openzeppelin/contracts/access/AccessControl.sol\":3276:3280  role */\n      dup2\n        /* \"@openzeppelin/contracts/access/AccessControl.sol\":3282:3294  _msgSender() */\n      tag_114\n        /* \"@openzeppelin/contracts/access/AccessControl.sol\":3282:3292  _msgSender */\n      tag_77\n        /* \"@openzeppelin/contracts/access/AccessControl.sol\":3282:3294  _msgSender() */\n      jump\t// in\n    tag_114:\n        /* \"@openzeppelin/contracts/access/AccessControl.sol\":3265:3275  _checkRole */\n      tag_115\n        /* \"@openzeppelin/contracts/access/AccessControl.sol\":3265:3295  _checkRole(role, _msgSender()) */\n      jump\t// in\n    tag_113:\n        /* \"@openzeppelin/contracts/access/AccessControl.sol\":3199:3302  function _checkRole(bytes32 role) internal view virtual {... */\n      pop\n      jump\t// out\n        /* \"@openzeppelin/contracts/access/AccessControl.sol\":6179:6495  function _grantRole(bytes32 role, address account) internal virtual returns (bool) {... */\n    tag_74:\n        /* \"@openzeppelin/contracts/access/AccessControl.sol\":6256:6260  bool */\n      0x00\n        /* \"@openzeppelin/contracts/access/AccessControl.sol\":6277:6299  hasRole(role, account) */\n      tag_117\n        /* \"@openzeppelin/contracts/access/AccessControl.sol\":6285:6289  role */\n      dup4\n        /* \"@openzeppelin/contracts/access/AccessControl.sol\":6291:6298  account */\n      dup4\n        /* \"@openzeppelin/contracts/access/AccessControl.sol\":6277:6284  hasRole */\n      tag_37\n        /* \"@openzeppelin/contracts/access/AccessControl.sol\":6277:6299  hasRole(role, account) */\n      jump\t// in\n    tag_117:\n        /* \"@openzeppelin/contracts/access/AccessControl.sol\":6272:6489  if (!hasRole(role, account)) {... */\n      tag_118\n      jumpi\n        /* \"@openzeppelin/contracts/access/AccessControl.sol\":6347:6351  true */\n      0x01\n        /* \"@openzeppelin/contracts/access/AccessControl.sol\":6315:6321  _roles */\n      0x00\n        /* \"@openzeppelin/contracts/access/AccessControl.sol\":6315:6327  _roles[role] */\n      dup1\n        /* \"@openzeppelin/contracts/access/AccessControl.sol\":6322:6326  role */\n      dup6\n        /* \"@openzeppelin/contracts/access/AccessControl.sol\":6315:6327  _roles[role] */\n      dup2\n      mstore\n      0x20\n      add\n      swap1\n      dup2\n      mstore\n      0x20\n      add\n      0x00\n      keccak256\n        /* \"@openzeppelin/contracts/access/AccessControl.sol\":6315:6335  _roles[role].hasRole */\n      0x00\n      add\n        /* \"@openzeppelin/contracts/access/AccessControl.sol\":6315:6344  _roles[role].hasRole[account] */\n      0x00\n        /* \"@openzeppelin/contracts/access/AccessControl.sol\":6336:6343  account */\n      dup5\n        /* \"@openzeppelin/contracts/access/AccessControl.sol\":6315:6344  _roles[role].hasRole[account] */\n      0xffffffffffffffffffffffffffffffffffffffff\n      and\n      0xffffffffffffffffffffffffffffffffffffffff\n      and\n      dup2\n      mstore\n      0x20\n      add\n      swap1\n      dup2\n      mstore\n      0x20\n      add\n      0x00\n      keccak256\n      0x00\n        /* \"@openzeppelin/contracts/access/AccessControl.sol\":6315:6351  _roles[role].hasRole[account] = true */\n      0x0100\n      exp\n      dup2\n      sload\n      dup2\n      0xff\n      mul\n      not\n      and\n      swap1\n      dup4\n      iszero\n      iszero\n      mul\n      or\n      swap1\n      sstore\n      pop\n        /* \"@openzeppelin/contracts/access/AccessControl.sol\":6397:6409  _msgSender() */\n      tag_119\n        /* \"@openzeppelin/contracts/access/AccessControl.sol\":6397:6407  _msgSender */\n      tag_77\n        /* \"@openzeppelin/contracts/access/AccessControl.sol\":6397:6409  _msgSender() */\n      jump\t// in\n    tag_119:\n        /* \"@openzeppelin/contracts/access/AccessControl.sol\":6370:6410  RoleGranted(role, account, _msgSender()) */\n      0xffffffffffffffffffffffffffffffffffffffff\n      and\n        /* \"@openzeppelin/contracts/access/AccessControl.sol\":6388:6395  account */\n      dup3\n        /* \"@openzeppelin/contracts/access/AccessControl.sol\":6370:6410  RoleGranted(role, account, _msgSender()) */\n      0xffffffffffffffffffffffffffffffffffffffff\n      and\n        /* \"@openzeppelin/contracts/access/AccessControl.sol\":6382:6386  role */\n      dup5\n        /* \"@openzeppelin/contracts/access/AccessControl.sol\":6370:6410  RoleGranted(role, account, _msgSender()) */\n      0x2f8788117e7eff1d82e926ec794901d17c78024a50270940304540a733656f0d\n      mload(0x40)\n      mload(0x40)\n      dup1\n      swap2\n      sub\n      swap1\n      log4\n        /* \"@openzeppelin/contracts/access/AccessControl.sol\":6431:6435  true */\n      0x01\n        /* \"@openzeppelin/contracts/access/AccessControl.sol\":6424:6435  return true */\n      swap1\n      pop\n      jump(tag_116)\n        /* \"@openzeppelin/contracts/access/AccessControl.sol\":6272:6489  if (!hasRole(role, account)) {... */\n    tag_118:\n        /* \"@openzeppelin/contracts/access/AccessControl.sol\":6473:6478  false */\n      0x00\n        /* \"@openzeppelin/contracts/access/AccessControl.sol\":6466:6478  return false */\n      swap1\n      pop\n        /* \"@openzeppelin/contracts/access/AccessControl.sol\":6179:6495  function _grantRole(bytes32 role, address account) internal virtual returns (bool) {... */\n    tag_116:\n      swap3\n      swap2\n      pop\n      pop\n      jump\t// out\n        /* \"@openzeppelin/contracts/utils/Context.sol\":656:752  function _msgSender() internal view virtual returns (address) {... */\n    tag_77:\n        /* \"@openzeppelin/contracts/utils/Context.sol\":709:716  address */\n      0x00\n        /* \"@openzeppelin/contracts/utils/Context.sol\":735:745  msg.sender */\n      caller\n        /* \"@openzeppelin/contracts/utils/Context.sol\":728:745  return msg.sender */\n      swap1\n      pop\n        /* \"@openzeppelin/contracts/utils/Context.sol\":656:752  function _msgSender() internal view virtual returns (address) {... */\n      swap1\n      jump\t// out\n        /* \"@openzeppelin/contracts/access/AccessControl.sol\":6732:7049  function _revokeRole(bytes32 role, address account) internal virtual returns (bool) {... */\n    tag_80:\n        /* \"@openzeppelin/contracts/access/AccessControl.sol\":6810:6814  bool */\n      0x00\n        /* \"@openzeppelin/contracts/access/AccessControl.sol\":6830:6852  hasRole(role, account) */\n      tag_123\n        /* \"@openzeppelin/contracts/access/AccessControl.sol\":6838:6842  role */\n      dup4\n        /* \"@openzeppelin/contracts/access/AccessControl.sol\":6844:6851  account */\n      dup4\n        /* \"@openzeppelin/contracts/access/AccessControl.sol\":6830:6837  hasRole */\n      tag_37\n        /* \"@openzeppelin/contracts/access/AccessControl.sol\":6830:6852  hasRole(role, account) */\n      jump\t// in\n    tag_123:\n        /* \"@openzeppelin/contracts/access/AccessControl.sol\":6826:7043  if (hasRole(role, account)) {... */\n      iszero\n      tag_124\n      jumpi\n        /* \"@openzeppelin/contracts/access/AccessControl.sol\":6900:6905  false */\n      0x00\n        /* \"@openzeppelin/contracts/access/AccessControl.sol\":6868:6874  _roles */\n      dup1\n        /* \"@openzeppelin/contracts/access/AccessControl.sol\":6868:6880  _roles[role] */\n      0x00\n        /* \"@openzeppelin/contracts/access/AccessControl.sol\":6875:6879  role */\n      dup6\n        /* \"@openzeppelin/contracts/access/AccessControl.sol\":6868:6880  _roles[role] */\n      dup2\n      mstore\n      0x20\n      add\n      swap1\n      dup2\n      mstore\n      0x20\n      add\n      0x00\n      keccak256\n        /* \"@openzeppelin/contracts/access/AccessControl.sol\":6868:6888  _roles[role].hasRole */\n      0x00\n      add\n        /* \"@openzeppelin/contracts/access/AccessControl.sol\":6868:6897  _roles[role].hasRole[account] */\n      0x00\n        /* \"@openzeppelin/contracts/access/AccessControl.sol\":6889:6896  account */\n      dup5\n        /* \"@openzeppelin/contracts/access/AccessControl.sol\":6868:6897  _roles[role].hasRole[account] */\n      0xffffffffffffffffffffffffffffffffffffffff\n      and\n      0xffffffffffffffffffffffffffffffffffffffff\n      and\n      dup2\n      mstore\n      0x20\n      add\n      swap1\n      dup2\n      mstore\n      0x20\n      add\n      0x00\n      keccak256\n      0x00\n        /* \"@openzeppelin/contracts/access/AccessControl.sol\":6868:6905  _roles[role].hasRole[account] = false */\n      0x0100\n      exp\n      dup2\n      sload\n      dup2\n      0xff\n      mul\n      not\n      and\n      swap1\n      dup4\n      iszero\n      iszero\n      mul\n      or\n      swap1\n      sstore\n      pop\n        /* \"@openzeppelin/contracts/access/AccessControl.sol\":6951:6963  _msgSender() */\n      tag_125\n        /* \"@openzeppelin/contracts/access/AccessControl.sol\":6951:6961  _msgSender */\n      tag_77\n        /* \"@openzeppelin/contracts/access/AccessControl.sol\":6951:6963  _msgSender() */\n      jump\t// in\n    tag_125:\n        /* \"@openzeppelin/contracts/access/AccessControl.sol\":6924:6964  RoleRevoked(role, account, _msgSender()) */\n      0xffffffffffffffffffffffffffffffffffffffff\n      and\n        /* \"@openzeppelin/contracts/access/AccessControl.sol\":6942:6949  account */\n      dup3\n        /* \"@openzeppelin/contracts/access/AccessControl.sol\":6924:6964  RoleRevoked(role, account, _msgSender()) */\n      0xffffffffffffffffffffffffffffffffffffffff\n      and\n        /* \"@openzeppelin/contracts/access/AccessControl.sol\":6936:6940  role */\n      dup5\n        /* \"@openzeppelin/contracts/access/AccessControl.sol\":6924:6964  RoleRevoked(role, account, _msgSender()) */\n      0xf6391f5c32d9c69d2a47ea670b442974b53935d1edc7fd64eb21e047a839171b\n      mload(0x40)\n      mload(0x40)\n      dup1\n      swap2\n      sub\n      swap1\n      log4\n        /* \"@openzeppelin/contracts/access/AccessControl.sol\":6985:6989  true */\n      0x01\n        /* \"@openzeppelin/contracts/access/AccessControl.sol\":6978:6989  return true */\n      swap1\n      pop\n      jump(tag_122)\n        /* \"@openzeppelin/contracts/access/AccessControl.sol\":6826:7043  if (hasRole(role, account)) {... */\n    tag_124:\n        /* \"@openzeppelin/contracts/access/AccessControl.sol\":7027:7032  false */\n      0x00\n        /* \"@openzeppelin/contracts/access/AccessControl.sol\":7020:7032  return false */\n      swap1\n      pop\n        /* \"@openzeppelin/contracts/access/AccessControl.sol\":6732:7049  function _revokeRole(bytes32 role, address account) internal virtual returns (bool) {... */\n    tag_122:\n      swap3\n      swap2\n      pop\n      pop\n      jump\t// out\n        /* \"@openzeppelin/contracts/access/AccessControl.sol\":3432:3629  function _checkRole(bytes32 role, address account) internal view virtual {... */\n    tag_115:\n        /* \"@openzeppelin/contracts/access/AccessControl.sol\":3520:3542  hasRole(role, account) */\n      tag_128\n        /* \"@openzeppelin/contracts/access/AccessControl.sol\":3528:3532  role */\n      dup3\n        /* \"@openzeppelin/contracts/access/AccessControl.sol\":3534:3541  account */\n      dup3\n        /* \"@openzeppelin/contracts/access/AccessControl.sol\":3520:3527  hasRole */\n      tag_37\n        /* \"@openzeppelin/contracts/access/AccessControl.sol\":3520:3542  hasRole(role, account) */\n      jump\t// in\n    tag_128:\n        /* \"@openzeppelin/contracts/access/AccessControl.sol\":3515:3623  if (!hasRole(role, account)) {... */\n      tag_129\n      jumpi\n        /* \"@openzeppelin/contracts/access/AccessControl.sol\":3598:3605  account */\n      dup1\n        /* \"@openzeppelin/contracts/access/AccessControl.sol\":3607:3611  role */\n      dup3\n        /* \"@openzeppelin/contracts/access/AccessControl.sol\":3565:3612  AccessControlUnauthorizedAccount(account, role) */\n      mload(0x40)\n      0xe2517d3f00000000000000000000000000000000000000000000000000000000\n      dup2\n      mstore\n      0x04\n      add\n      tag_130\n      swap3\n      swap2\n      swap1\n      tag_131\n      jump\t// in\n    tag_130:\n      mload(0x40)\n      dup1\n      swap2\n      sub\n      swap1\n      revert\n        /* \"@openzeppelin/contracts/access/AccessControl.sol\":3515:3623  if (!hasRole(role, account)) {... */\n    tag_129:\n        /* \"@openzeppelin/contracts/access/AccessControl.sol\":3432:3629  function _checkRole(bytes32 role, address account) internal view virtual {... */\n      pop\n      pop\n      jump\t// out\n        /* \"#utility.yul\":7:82   */\n    tag_132:\n        /* \"#utility.yul\":40:46   */\n      0x00\n        /* \"#utility.yul\":73:75   */\n      0x40\n        /* \"#utility.yul\":67:76   */\n      mload\n        /* \"#utility.yul\":57:76   */\n      swap1\n      pop\n        /* \"#utility.yul\":7:82   */\n      swap1\n      jump\t// out\n        /* \"#utility.yul\":88:205   */\n    tag_133:\n        /* \"#utility.yul\":197:198   */\n      0x00\n        /* \"#utility.yul\":194:195   */\n      dup1\n        /* \"#utility.yul\":187:199   */\n      revert\n        /* \"#utility.yul\":211:328   */\n    tag_134:\n        /* \"#utility.yul\":320:321   */\n      0x00\n        /* \"#utility.yul\":317:318   */\n      dup1\n        /* \"#utility.yul\":310:322   */\n      revert\n        /* \"#utility.yul\":334:483   */\n    tag_135:\n        /* \"#utility.yul\":370:377   */\n      0x00\n        /* \"#utility.yul\":410:476   */\n      0xffffffff00000000000000000000000000000000000000000000000000000000\n        /* \"#utility.yul\":403:408   */\n      dup3\n        /* \"#utility.yul\":399:477   */\n      and\n        /* \"#utility.yul\":388:477   */\n      swap1\n      pop\n        /* \"#utility.yul\":334:483   */\n      swap2\n      swap1\n      pop\n      jump\t// out\n        /* \"#utility.yul\":489:609   */\n    tag_136:\n        /* \"#utility.yul\":561:584   */\n      tag_186\n        /* \"#utility.yul\":578:583   */\n      dup2\n        /* \"#utility.yul\":561:584   */\n      tag_135\n      jump\t// in\n    tag_186:\n        /* \"#utility.yul\":554:559   */\n      dup2\n        /* \"#utility.yul\":551:585   */\n      eq\n        /* \"#utility.yul\":541:603   */\n      tag_187\n      jumpi\n        /* \"#utility.yul\":599:600   */\n      0x00\n        /* \"#utility.yul\":596:597   */\n      dup1\n        /* \"#utility.yul\":589:601   */\n      revert\n        /* \"#utility.yul\":541:603   */\n    tag_187:\n        /* \"#utility.yul\":489:609   */\n      pop\n      jump\t// out\n        /* \"#utility.yul\":615:752   */\n    tag_137:\n        /* \"#utility.yul\":660:665   */\n      0x00\n        /* \"#utility.yul\":698:704   */\n      dup2\n        /* \"#utility.yul\":685:705   */\n      calldataload\n        /* \"#utility.yul\":676:705   */\n      swap1\n      pop\n        /* \"#utility.yul\":714:746   */\n      tag_189\n        /* \"#utility.yul\":740:745   */\n      dup2\n        /* \"#utility.yul\":714:746   */\n      tag_136\n      jump\t// in\n    tag_189:\n        /* \"#utility.yul\":615:752   */\n      swap3\n      swap2\n      pop\n      pop\n      jump\t// out\n        /* \"#utility.yul\":758:1085   */\n    tag_18:\n        /* \"#utility.yul\":816:822   */\n      0x00\n        /* \"#utility.yul\":865:867   */\n      0x20\n        /* \"#utility.yul\":853:862   */\n      dup3\n        /* \"#utility.yul\":844:851   */\n      dup5\n        /* \"#utility.yul\":840:863   */\n      sub\n        /* \"#utility.yul\":836:868   */\n      slt\n        /* \"#utility.yul\":833:952   */\n      iszero\n      tag_191\n      jumpi\n        /* \"#utility.yul\":871:950   */\n      tag_192\n      tag_133\n      jump\t// in\n    tag_192:\n        /* \"#utility.yul\":833:952   */\n    tag_191:\n        /* \"#utility.yul\":991:992   */\n      0x00\n        /* \"#utility.yul\":1016:1068   */\n      tag_193\n        /* \"#utility.yul\":1060:1067   */\n      dup5\n        /* \"#utility.yul\":1051:1057   */\n      dup3\n        /* \"#utility.yul\":1040:1049   */\n      dup6\n        /* \"#utility.yul\":1036:1058   */\n      add\n        /* \"#utility.yul\":1016:1068   */\n      tag_137\n      jump\t// in\n    tag_193:\n        /* \"#utility.yul\":1006:1068   */\n      swap2\n      pop\n        /* \"#utility.yul\":962:1078   */\n      pop\n        /* \"#utility.yul\":758:1085   */\n      swap3\n      swap2\n      pop\n      pop\n      jump\t// out\n        /* \"#utility.yul\":1091:1181   */\n    tag_138:\n        /* \"#utility.yul\":1125:1132   */\n      0x00\n        /* \"#utility.yul\":1168:1173   */\n      dup2\n        /* \"#utility.yul\":1161:1174   */\n      iszero\n        /* \"#utility.yul\":1154:1175   */\n      iszero\n        /* \"#utility.yul\":1143:1175   */\n      swap1\n      pop\n        /* \"#utility.yul\":1091:1181   */\n      swap2\n      swap1\n      pop\n      jump\t// out\n        /* \"#utility.yul\":1187:1296   */\n    tag_139:\n        /* \"#utility.yul\":1268:1289   */\n      tag_196\n        /* \"#utility.yul\":1283:1288   */\n      dup2\n        /* \"#utility.yul\":1268:1289   */\n      tag_138\n      jump\t// in\n    tag_196:\n        /* \"#utility.yul\":1263:1266   */\n      dup3\n        /* \"#utility.yul\":1256:1290   */\n      mstore\n        /* \"#utility.yul\":1187:1296   */\n      pop\n      pop\n      jump\t// out\n        /* \"#utility.yul\":1302:1512   */\n    tag_21:\n        /* \"#utility.yul\":1389:1393   */\n      0x00\n        /* \"#utility.yul\":1427:1429   */\n      0x20\n        /* \"#utility.yul\":1416:1425   */\n      dup3\n        /* \"#utility.yul\":1412:1430   */\n      add\n        /* \"#utility.yul\":1404:1430   */\n      swap1\n      pop\n        /* \"#utility.yul\":1440:1505   */\n      tag_198\n        /* \"#utility.yul\":1502:1503   */\n      0x00\n        /* \"#utility.yul\":1491:1500   */\n      dup4\n        /* \"#utility.yul\":1487:1504   */\n      add\n        /* \"#utility.yul\":1478:1484   */\n      dup5\n        /* \"#utility.yul\":1440:1505   */\n      tag_139\n      jump\t// in\n    tag_198:\n        /* \"#utility.yul\":1302:1512   */\n      swap3\n      swap2\n      pop\n      pop\n      jump\t// out\n        /* \"#utility.yul\":1518:1595   */\n    tag_140:\n        /* \"#utility.yul\":1555:1562   */\n      0x00\n        /* \"#utility.yul\":1584:1589   */\n      dup2\n        /* \"#utility.yul\":1573:1589   */\n      swap1\n      pop\n        /* \"#utility.yul\":1518:1595   */\n      swap2\n      swap1\n      pop\n      jump\t// out\n        /* \"#utility.yul\":1601:1723   */\n    tag_141:\n        /* \"#utility.yul\":1674:1698   */\n      tag_201\n        /* \"#utility.yul\":1692:1697   */\n      dup2\n        /* \"#utility.yul\":1674:1698   */\n      tag_140\n      jump\t// in\n    tag_201:\n        /* \"#utility.yul\":1667:1672   */\n      dup2\n        /* \"#utility.yul\":1664:1699   */\n      eq\n        /* \"#utility.yul\":1654:1717   */\n      tag_202\n      jumpi\n        /* \"#utility.yul\":1713:1714   */\n      0x00\n        /* \"#utility.yul\":1710:1711   */\n      dup1\n        /* \"#utility.yul\":1703:1715   */\n      revert\n        /* \"#utility.yul\":1654:1717   */\n    tag_202:\n        /* \"#utility.yul\":1601:1723   */\n      pop\n      jump\t// out\n        /* \"#utility.yul\":1729:1868   */\n    tag_142:\n        /* \"#utility.yul\":1775:1780   */\n      0x00\n        /* \"#utility.yul\":1813:1819   */\n      dup2\n        /* \"#utility.yul\":1800:1820   */\n      calldataload\n        /* \"#utility.yul\":1791:1820   */\n      swap1\n      pop\n        /* \"#utility.yul\":1829:1862   */\n      tag_204\n        /* \"#utility.yul\":1856:1861   */\n      dup2\n        /* \"#utility.yul\":1829:1862   */\n      tag_141\n      jump\t// in\n    tag_204:\n        /* \"#utility.yul\":1729:1868   */\n      swap3\n      swap2\n      pop\n      pop\n      jump\t// out\n        /* \"#utility.yul\":1874:2203   */\n    tag_24:\n        /* \"#utility.yul\":1933:1939   */\n      0x00\n        /* \"#utility.yul\":1982:1984   */\n      0x20\n        /* \"#utility.yul\":1970:1979   */\n      dup3\n        /* \"#utility.yul\":1961:1968   */\n      dup5\n        /* \"#utility.yul\":1957:1980   */\n      sub\n        /* \"#utility.yul\":1953:1985   */\n      slt\n        /* \"#utility.yul\":1950:2069   */\n      iszero\n      tag_206\n      jumpi\n        /* \"#utility.yul\":1988:2067   */\n      tag_207\n      tag_133\n      jump\t// in\n    tag_207:\n        /* \"#utility.yul\":1950:2069   */\n    tag_206:\n        /* \"#utility.yul\":2108:2109   */\n      0x00\n        /* \"#utility.yul\":2133:2186   */\n      tag_208\n        /* \"#utility.yul\":2178:2185   */\n      dup5\n        /* \"#utility.yul\":2169:2175   */\n      dup3\n        /* \"#utility.yul\":2158:2167   */\n      dup6\n        /* \"#utility.yul\":2154:2176   */\n      add\n        /* \"#utility.yul\":2133:2186   */\n      tag_142\n      jump\t// in\n    tag_208:\n        /* \"#utility.yul\":2123:2186   */\n      swap2\n      pop\n        /* \"#utility.yul\":2079:2196   */\n      pop\n        /* \"#utility.yul\":1874:2203   */\n      swap3\n      swap2\n      pop\n      pop\n      jump\t// out\n        /* \"#utility.yul\":2209:2327   */\n    tag_143:\n        /* \"#utility.yul\":2296:2320   */\n      tag_210\n        /* \"#utility.yul\":2314:2319   */\n      dup2\n        /* \"#utility.yul\":2296:2320   */\n      tag_140\n      jump\t// in\n    tag_210:\n        /* \"#utility.yul\":2291:2294   */\n      dup3\n        /* \"#utility.yul\":2284:2321   */\n      mstore\n        /* \"#utility.yul\":2209:2327   */\n      pop\n      pop\n      jump\t// out\n        /* \"#utility.yul\":2333:2555   */\n    tag_27:\n        /* \"#utility.yul\":2426:2430   */\n      0x00\n        /* \"#utility.yul\":2464:2466   */\n      0x20\n        /* \"#utility.yul\":2453:2462   */\n      dup3\n        /* \"#utility.yul\":2449:2467   */\n      add\n        /* \"#utility.yul\":2441:2467   */\n      swap1\n      pop\n        /* \"#utility.yul\":2477:2548   */\n      tag_212\n        /* \"#utility.yul\":2545:2546   */\n      0x00\n        /* \"#utility.yul\":2534:2543   */\n      dup4\n        /* \"#utility.yul\":2530:2547   */\n      add\n        /* \"#utility.yul\":2521:2527   */\n      dup5\n        /* \"#utility.yul\":2477:2548   */\n      tag_143\n      jump\t// in\n    tag_212:\n        /* \"#utility.yul\":2333:2555   */\n      swap3\n      swap2\n      pop\n      pop\n      jump\t// out\n        /* \"#utility.yul\":2561:2687   */\n    tag_144:\n        /* \"#utility.yul\":2598:2605   */\n      0x00\n        /* \"#utility.yul\":2638:2680   */\n      0xffffffffffffffffffffffffffffffffffffffff\n        /* \"#utility.yul\":2631:2636   */\n      dup3\n        /* \"#utility.yul\":2627:2681   */\n      and\n        /* \"#utility.yul\":2616:2681   */\n      swap1\n      pop\n        /* \"#utility.yul\":2561:2687   */\n      swap2\n      swap1\n      pop\n      jump\t// out\n        /* \"#utility.yul\":2693:2789   */\n    tag_145:\n        /* \"#utility.yul\":2730:2737   */\n      0x00\n        /* \"#utility.yul\":2759:2783   */\n      tag_215\n        /* \"#utility.yul\":2777:2782   */\n      dup3\n        /* \"#utility.yul\":2759:2783   */\n      tag_144\n      jump\t// in\n    tag_215:\n        /* \"#utility.yul\":2748:2783   */\n      swap1\n      pop\n        /* \"#utility.yul\":2693:2789   */\n      swap2\n      swap1\n      pop\n      jump\t// out\n        /* \"#utility.yul\":2795:2917   */\n    tag_146:\n        /* \"#utility.yul\":2868:2892   */\n      tag_217\n        /* \"#utility.yul\":2886:2891   */\n      dup2\n        /* \"#utility.yul\":2868:2892   */\n      tag_145\n      jump\t// in\n    tag_217:\n        /* \"#utility.yul\":2861:2866   */\n      dup2\n        /* \"#utility.yul\":2858:2893   */\n      eq\n        /* \"#utility.yul\":2848:2911   */\n      tag_218\n      jumpi\n        /* \"#utility.yul\":2907:2908   */\n      0x00\n        /* \"#utility.yul\":2904:2905   */\n      dup1\n        /* \"#utility.yul\":2897:2909   */\n      revert\n        /* \"#utility.yul\":2848:2911   */\n    tag_218:\n        /* \"#utility.yul\":2795:2917   */\n      pop\n      jump\t// out\n        /* \"#utility.yul\":2923:3062   */\n    tag_147:\n        /* \"#utility.yul\":2969:2974   */\n      0x00\n        /* \"#utility.yul\":3007:3013   */\n      dup2\n        /* \"#utility.yul\":2994:3014   */\n      calldataload\n        /* \"#utility.yul\":2985:3014   */\n      swap1\n      pop\n        /* \"#utility.yul\":3023:3056   */\n      tag_220\n        /* \"#utility.yul\":3050:3055   */\n      dup2\n        /* \"#utility.yul\":3023:3056   */\n      tag_146\n      jump\t// in\n    tag_220:\n        /* \"#utility.yul\":2923:3062   */\n      swap3\n      swap2\n      pop\n      pop\n      jump\t// out\n        /* \"#utility.yul\":3068:3542   */\n    tag_30:\n        /* \"#utility.yul\":3136:3142   */\n      0x00\n        /* \"#utility.yul\":3144:3150   */\n      dup1\n        /* \"#utility.yul\":3193:3195   */\n      0x40\n        /* \"#utility.yul\":3181:3190   */\n      dup4\n        /* \"#utility.yul\":3172:3179   */\n      dup6\n        /* \"#utility.yul\":3168:3191   */\n      sub\n        /* \"#utility.yul\":3164:3196   */\n      slt\n        /* \"#utility.yul\":3161:3280   */\n      iszero\n      tag_222\n      jumpi\n        /* \"#utility.yul\":3199:3278   */\n      tag_223\n      tag_133\n      jump\t// in\n    tag_223:\n        /* \"#utility.yul\":3161:3280   */\n    tag_222:\n        /* \"#utility.yul\":3319:3320   */\n      0x00\n        /* \"#utility.yul\":3344:3397   */\n      tag_224\n        /* \"#utility.yul\":3389:3396   */\n      dup6\n        /* \"#utility.yul\":3380:3386   */\n      dup3\n        /* \"#utility.yul\":3369:3378   */\n      dup7\n        /* \"#utility.yul\":3365:3387   */\n      add\n        /* \"#utility.yul\":3344:3397   */\n      tag_142\n      jump\t// in\n    tag_224:\n        /* \"#utility.yul\":3334:3397   */\n      swap3\n      pop\n        /* \"#utility.yul\":3290:3407   */\n      pop\n        /* \"#utility.yul\":3446:3448   */\n      0x20\n        /* \"#utility.yul\":3472:3525   */\n      tag_225\n        /* \"#utility.yul\":3517:3524   */\n      dup6\n        /* \"#utility.yul\":3508:3514   */\n      dup3\n        /* \"#utility.yul\":3497:3506   */\n      dup7\n        /* \"#utility.yul\":3493:3515   */\n      add\n        /* \"#utility.yul\":3472:3525   */\n      tag_147\n      jump\t// in\n    tag_225:\n        /* \"#utility.yul\":3462:3525   */\n      swap2\n      pop\n        /* \"#utility.yul\":3417:3535   */\n      pop\n        /* \"#utility.yul\":3068:3542   */\n      swap3\n      pop\n      swap3\n      swap1\n      pop\n      jump\t// out\n        /* \"#utility.yul\":3548:3647   */\n    tag_148:\n        /* \"#utility.yul\":3600:3606   */\n      0x00\n        /* \"#utility.yul\":3634:3639   */\n      dup2\n        /* \"#utility.yul\":3628:3640   */\n      mload\n        /* \"#utility.yul\":3618:3640   */\n      swap1\n      pop\n        /* \"#utility.yul\":3548:3647   */\n      swap2\n      swap1\n      pop\n      jump\t// out\n        /* \"#utility.yul\":3653:3822   */\n    tag_149:\n        /* \"#utility.yul\":3737:3748   */\n      0x00\n        /* \"#utility.yul\":3771:3777   */\n      dup3\n        /* \"#utility.yul\":3766:3769   */\n      dup3\n        /* \"#utility.yul\":3759:3778   */\n      mstore\n        /* \"#utility.yul\":3811:3815   */\n      0x20\n        /* \"#utility.yul\":3806:3809   */\n      dup3\n        /* \"#utility.yul\":3802:3816   */\n      add\n        /* \"#utility.yul\":3787:3816   */\n      swap1\n      pop\n        /* \"#utility.yul\":3653:3822   */\n      swap3\n      swap2\n      pop\n      pop\n      jump\t// out\n        /* \"#utility.yul\":3828:3967   */\n    tag_150:\n        /* \"#utility.yul\":3917:3923   */\n      dup3\n        /* \"#utility.yul\":3912:3915   */\n      dup2\n        /* \"#utility.yul\":3907:3910   */\n      dup4\n        /* \"#utility.yul\":3901:3924   */\n      mcopy\n        /* \"#utility.yul\":3958:3959   */\n      0x00\n        /* \"#utility.yul\":3949:3955   */\n      dup4\n        /* \"#utility.yul\":3944:3947   */\n      dup4\n        /* \"#utility.yul\":3940:3956   */\n      add\n        /* \"#utility.yul\":3933:3960   */\n      mstore\n        /* \"#utility.yul\":3828:3967   */\n      pop\n      pop\n      pop\n      jump\t// out\n        /* \"#utility.yul\":3973:4075   */\n    tag_151:\n        /* \"#utility.yul\":4014:4020   */\n      0x00\n        /* \"#utility.yul\":4065:4067   */\n      0x1f\n        /* \"#utility.yul\":4061:4068   */\n      not\n        /* \"#utility.yul\":4056:4058   */\n      0x1f\n        /* \"#utility.yul\":4049:4054   */\n      dup4\n        /* \"#utility.yul\":4045:4059   */\n      add\n        /* \"#utility.yul\":4041:4069   */\n      and\n        /* \"#utility.yul\":4031:4069   */\n      swap1\n      pop\n        /* \"#utility.yul\":3973:4075   */\n      swap2\n      swap1\n      pop\n      jump\t// out\n        /* \"#utility.yul\":4081:4458   */\n    tag_152:\n        /* \"#utility.yul\":4169:4172   */\n      0x00\n        /* \"#utility.yul\":4197:4236   */\n      tag_231\n        /* \"#utility.yul\":4230:4235   */\n      dup3\n        /* \"#utility.yul\":4197:4236   */\n      tag_148\n      jump\t// in\n    tag_231:\n        /* \"#utility.yul\":4252:4323   */\n      tag_232\n        /* \"#utility.yul\":4316:4322   */\n      dup2\n        /* \"#utility.yul\":4311:4314   */\n      dup6\n        /* \"#utility.yul\":4252:4323   */\n      tag_149\n      jump\t// in\n    tag_232:\n        /* \"#utility.yul\":4245:4323   */\n      swap4\n      pop\n        /* \"#utility.yul\":4332:4397   */\n      tag_233\n        /* \"#utility.yul\":4390:4396   */\n      dup2\n        /* \"#utility.yul\":4385:4388   */\n      dup6\n        /* \"#utility.yul\":4378:4382   */\n      0x20\n        /* \"#utility.yul\":4371:4376   */\n      dup7\n        /* \"#utility.yul\":4367:4383   */\n      add\n        /* \"#utility.yul\":4332:4397   */\n      tag_150\n      jump\t// in\n    tag_233:\n        /* \"#utility.yul\":4422:4451   */\n      tag_234\n        /* \"#utility.yul\":4444:4450   */\n      dup2\n        /* \"#utility.yul\":4422:4451   */\n      tag_151\n      jump\t// in\n    tag_234:\n        /* \"#utility.yul\":4417:4420   */\n      dup5\n        /* \"#utility.yul\":4413:4452   */\n      add\n        /* \"#utility.yul\":4406:4452   */\n      swap2\n      pop\n        /* \"#utility.yul\":4173:4458   */\n      pop\n        /* \"#utility.yul\":4081:4458   */\n      swap3\n      swap2\n      pop\n      pop\n      jump\t// out\n        /* \"#utility.yul\":4464:4777   */\n    tag_42:\n        /* \"#utility.yul\":4577:4581   */\n      0x00\n        /* \"#utility.yul\":4615:4617   */\n      0x20\n        /* \"#utility.yul\":4604:4613   */\n      dup3\n        /* \"#utility.yul\":4600:4618   */\n      add\n        /* \"#utility.yul\":4592:4618   */\n      swap1\n      pop\n        /* \"#utility.yul\":4664:4673   */\n      dup2\n        /* \"#utility.yul\":4658:4662   */\n      dup2\n        /* \"#utility.yul\":4654:4674   */\n      sub\n        /* \"#utility.yul\":4650:4651   */\n      0x00\n        /* \"#utility.yul\":4639:4648   */\n      dup4\n        /* \"#utility.yul\":4635:4652   */\n      add\n        /* \"#utility.yul\":4628:4675   */\n      mstore\n        /* \"#utility.yul\":4692:4770   */\n      tag_236\n        /* \"#utility.yul\":4765:4769   */\n      dup2\n        /* \"#utility.yul\":4756:4762   */\n      dup5\n        /* \"#utility.yul\":4692:4770   */\n      tag_152\n      jump\t// in\n    tag_236:\n        /* \"#utility.yul\":4684:4770   */\n      swap1\n      pop\n        /* \"#utility.yul\":4464:4777   */\n      swap3\n      swap2\n      pop\n      pop\n      jump\t// out\n        /* \"#utility.yul\":4783:5112   */\n    tag_51:\n        /* \"#utility.yul\":4842:4848   */\n      0x00\n        /* \"#utility.yul\":4891:4893   */\n      0x20\n        /* \"#utility.yul\":4879:4888   */\n      dup3\n        /* \"#utility.yul\":4870:4877   */\n      dup5\n        /* \"#utility.yul\":4866:4889   */\n      sub\n        /* \"#utility.yul\":4862:4894   */\n      slt\n        /* \"#utility.yul\":4859:4978   */\n      iszero\n      tag_238\n      jumpi\n        /* \"#utility.yul\":4897:4976   */\n      tag_239\n      tag_133\n      jump\t// in\n    tag_239:\n        /* \"#utility.yul\":4859:4978   */\n    tag_238:\n        /* \"#utility.yul\":5017:5018   */\n      0x00\n        /* \"#utility.yul\":5042:5095   */\n      tag_240\n        /* \"#utility.yul\":5087:5094   */\n      dup5\n        /* \"#utility.yul\":5078:5084   */\n      dup3\n        /* \"#utility.yul\":5067:5076   */\n      dup6\n        /* \"#utility.yul\":5063:5085   */\n      add\n        /* \"#utility.yul\":5042:5095   */\n      tag_147\n      jump\t// in\n    tag_240:\n        /* \"#utility.yul\":5032:5095   */\n      swap2\n      pop\n        /* \"#utility.yul\":4988:5105   */\n      pop\n        /* \"#utility.yul\":4783:5112   */\n      swap3\n      swap2\n      pop\n      pop\n      jump\t// out\n        /* \"#utility.yul\":5118:5235   */\n    tag_153:\n        /* \"#utility.yul\":5227:5228   */\n      0x00\n        /* \"#utility.yul\":5224:5225   */\n      dup1\n        /* \"#utility.yul\":5217:5229   */\n      revert\n        /* \"#utility.yul\":5241:5358   */\n    tag_154:\n        /* \"#utility.yul\":5350:5351   */\n      0x00\n        /* \"#utility.yul\":5347:5348   */\n      dup1\n        /* \"#utility.yul\":5340:5352   */\n      revert\n        /* \"#utility.yul\":5364:5544   */\n    tag_155:\n        /* \"#utility.yul\":5412:5489   */\n      0x4e487b7100000000000000000000000000000000000000000000000000000000\n        /* \"#utility.yul\":5409:5410   */\n      0x00\n        /* \"#utility.yul\":5402:5490   */\n      mstore\n        /* \"#utility.yul\":5509:5513   */\n      0x41\n        /* \"#utility.yul\":5506:5507   */\n      0x04\n        /* \"#utility.yul\":5499:5514   */\n      mstore\n        /* \"#utility.yul\":5533:5537   */\n      0x24\n        /* \"#utility.yul\":5530:5531   */\n      0x00\n        /* \"#utility.yul\":5523:5538   */\n      revert\n        /* \"#utility.yul\":5550:5831   */\n    tag_156:\n        /* \"#utility.yul\":5633:5660   */\n      tag_245\n        /* \"#utility.yul\":5655:5659   */\n      dup3\n        /* \"#utility.yul\":5633:5660   */\n      tag_151\n      jump\t// in\n    tag_245:\n        /* \"#utility.yul\":5625:5631   */\n      dup2\n        /* \"#utility.yul\":5621:5661   */\n      add\n        /* \"#utility.yul\":5763:5769   */\n      dup2\n        /* \"#utility.yul\":5751:5761   */\n      dup2\n        /* \"#utility.yul\":5748:5770   */\n      lt\n        /* \"#utility.yul\":5727:5745   */\n      0xffffffffffffffff\n        /* \"#utility.yul\":5715:5725   */\n      dup3\n        /* \"#utility.yul\":5712:5746   */\n      gt\n        /* \"#utility.yul\":5709:5771   */\n      or\n        /* \"#utility.yul\":5706:5794   */\n      iszero\n      tag_246\n      jumpi\n        /* \"#utility.yul\":5774:5792   */\n      tag_247\n      tag_155\n      jump\t// in\n    tag_247:\n        /* \"#utility.yul\":5706:5794   */\n    tag_246:\n        /* \"#utility.yul\":5814:5824   */\n      dup1\n        /* \"#utility.yul\":5810:5812   */\n      0x40\n        /* \"#utility.yul\":5803:5825   */\n      mstore\n        /* \"#utility.yul\":5593:5831   */\n      pop\n        /* \"#utility.yul\":5550:5831   */\n      pop\n      pop\n      jump\t// out\n        /* \"#utility.yul\":5837:5966   */\n    tag_157:\n        /* \"#utility.yul\":5871:5877   */\n      0x00\n        /* \"#utility.yul\":5898:5918   */\n      tag_249\n      tag_132\n      jump\t// in\n    tag_249:\n        /* \"#utility.yul\":5888:5918   */\n      swap1\n      pop\n        /* \"#utility.yul\":5927:5960   */\n      tag_250\n        /* \"#utility.yul\":5955:5959   */\n      dup3\n        /* \"#utility.yul\":5947:5953   */\n      dup3\n        /* \"#utility.yul\":5927:5960   */\n      tag_156\n      jump\t// in\n    tag_250:\n        /* \"#utility.yul\":5837:5966   */\n      swap2\n      swap1\n      pop\n      jump\t// out\n        /* \"#utility.yul\":5972:6280   */\n    tag_158:\n        /* \"#utility.yul\":6034:6038   */\n      0x00\n        /* \"#utility.yul\":6124:6142   */\n      0xffffffffffffffff\n        /* \"#utility.yul\":6116:6122   */\n      dup3\n        /* \"#utility.yul\":6113:6143   */\n      gt\n        /* \"#utility.yul\":6110:6166   */\n      iszero\n      tag_252\n      jumpi\n        /* \"#utility.yul\":6146:6164   */\n      tag_253\n      tag_155\n      jump\t// in\n    tag_253:\n        /* \"#utility.yul\":6110:6166   */\n    tag_252:\n        /* \"#utility.yul\":6184:6213   */\n      tag_254\n        /* \"#utility.yul\":6206:6212   */\n      dup3\n        /* \"#utility.yul\":6184:6213   */\n      tag_151\n      jump\t// in\n    tag_254:\n        /* \"#utility.yul\":6176:6213   */\n      swap1\n      pop\n        /* \"#utility.yul\":6268:6272   */\n      0x20\n        /* \"#utility.yul\":6262:6266   */\n      dup2\n        /* \"#utility.yul\":6258:6273   */\n      add\n        /* \"#utility.yul\":6250:6273   */\n      swap1\n      pop\n        /* \"#utility.yul\":5972:6280   */\n      swap2\n      swap1\n      pop\n      jump\t// out\n        /* \"#utility.yul\":6286:6434   */\n    tag_159:\n        /* \"#utility.yul\":6384:6390   */\n      dup3\n        /* \"#utility.yul\":6379:6382   */\n      dup2\n        /* \"#utility.yul\":6374:6377   */\n      dup4\n        /* \"#utility.yul\":6361:6391   */\n      calldatacopy\n        /* \"#utility.yul\":6425:6426   */\n      0x00\n        /* \"#utility.yul\":6416:6422   */\n      dup4\n        /* \"#utility.yul\":6411:6414   */\n      dup4\n        /* \"#utility.yul\":6407:6423   */\n      add\n        /* \"#utility.yul\":6400:6427   */\n      mstore\n        /* \"#utility.yul\":6286:6434   */\n      pop\n      pop\n      pop\n      jump\t// out\n        /* \"#utility.yul\":6440:6865   */\n    tag_160:\n        /* \"#utility.yul\":6518:6523   */\n      0x00\n        /* \"#utility.yul\":6543:6609   */\n      tag_257\n        /* \"#utility.yul\":6559:6608   */\n      tag_258\n        /* \"#utility.yul\":6601:6607   */\n      dup5\n        /* \"#utility.yul\":6559:6608   */\n      tag_158\n      jump\t// in\n    tag_258:\n        /* \"#utility.yul\":6543:6609   */\n      tag_157\n      jump\t// in\n    tag_257:\n        /* \"#utility.yul\":6534:6609   */\n      swap1\n      pop\n        /* \"#utility.yul\":6632:6638   */\n      dup3\n        /* \"#utility.yul\":6625:6630   */\n      dup2\n        /* \"#utility.yul\":6618:6639   */\n      mstore\n        /* \"#utility.yul\":6670:6674   */\n      0x20\n        /* \"#utility.yul\":6663:6668   */\n      dup2\n        /* \"#utility.yul\":6659:6675   */\n      add\n        /* \"#utility.yul\":6708:6711   */\n      dup5\n        /* \"#utility.yul\":6699:6705   */\n      dup5\n        /* \"#utility.yul\":6694:6697   */\n      dup5\n        /* \"#utility.yul\":6690:6706   */\n      add\n        /* \"#utility.yul\":6687:6712   */\n      gt\n        /* \"#utility.yul\":6684:6796   */\n      iszero\n      tag_259\n      jumpi\n        /* \"#utility.yul\":6715:6794   */\n      tag_260\n      tag_154\n      jump\t// in\n    tag_260:\n        /* \"#utility.yul\":6684:6796   */\n    tag_259:\n        /* \"#utility.yul\":6805:6859   */\n      tag_261\n        /* \"#utility.yul\":6852:6858   */\n      dup5\n        /* \"#utility.yul\":6847:6850   */\n      dup3\n        /* \"#utility.yul\":6842:6845   */\n      dup6\n        /* \"#utility.yul\":6805:6859   */\n      tag_159\n      jump\t// in\n    tag_261:\n        /* \"#utility.yul\":6524:6865   */\n      pop\n        /* \"#utility.yul\":6440:6865   */\n      swap4\n      swap3\n      pop\n      pop\n      pop\n      jump\t// out\n        /* \"#utility.yul\":6885:7225   */\n    tag_161:\n        /* \"#utility.yul\":6941:6946   */\n      0x00\n        /* \"#utility.yul\":6990:6993   */\n      dup3\n        /* \"#utility.yul\":6983:6987   */\n      0x1f\n        /* \"#utility.yul\":6975:6981   */\n      dup4\n        /* \"#utility.yul\":6971:6988   */\n      add\n        /* \"#utility.yul\":6967:6994   */\n      slt\n        /* \"#utility.yul\":6957:7079   */\n      tag_263\n      jumpi\n        /* \"#utility.yul\":6998:7077   */\n      tag_264\n      tag_153\n      jump\t// in\n    tag_264:\n        /* \"#utility.yul\":6957:7079   */\n    tag_263:\n        /* \"#utility.yul\":7115:7121   */\n      dup2\n        /* \"#utility.yul\":7102:7122   */\n      calldataload\n        /* \"#utility.yul\":7140:7219   */\n      tag_265\n        /* \"#utility.yul\":7215:7218   */\n      dup5\n        /* \"#utility.yul\":7207:7213   */\n      dup3\n        /* \"#utility.yul\":7200:7204   */\n      0x20\n        /* \"#utility.yul\":7192:7198   */\n      dup7\n        /* \"#utility.yul\":7188:7205   */\n      add\n        /* \"#utility.yul\":7140:7219   */\n      tag_160\n      jump\t// in\n    tag_265:\n        /* \"#utility.yul\":7131:7219   */\n      swap2\n      pop\n        /* \"#utility.yul\":6947:7225   */\n      pop\n        /* \"#utility.yul\":6885:7225   */\n      swap3\n      swap2\n      pop\n      pop\n      jump\t// out\n        /* \"#utility.yul\":7231:7740   */\n    tag_61:\n        /* \"#utility.yul\":7300:7306   */\n      0x00\n        /* \"#utility.yul\":7349:7351   */\n      0x20\n        /* \"#utility.yul\":7337:7346   */\n      dup3\n        /* \"#utility.yul\":7328:7335   */\n      dup5\n        /* \"#utility.yul\":7324:7347   */\n      sub\n        /* \"#utility.yul\":7320:7352   */\n      slt\n        /* \"#utility.yul\":7317:7436   */\n      iszero\n      tag_267\n      jumpi\n        /* \"#utility.yul\":7355:7434   */\n      tag_268\n      tag_133\n      jump\t// in\n    tag_268:\n        /* \"#utility.yul\":7317:7436   */\n    tag_267:\n        /* \"#utility.yul\":7503:7504   */\n      0x00\n        /* \"#utility.yul\":7492:7501   */\n      dup3\n        /* \"#utility.yul\":7488:7505   */\n      add\n        /* \"#utility.yul\":7475:7506   */\n      calldataload\n        /* \"#utility.yul\":7533:7551   */\n      0xffffffffffffffff\n        /* \"#utility.yul\":7525:7531   */\n      dup2\n        /* \"#utility.yul\":7522:7552   */\n      gt\n        /* \"#utility.yul\":7519:7636   */\n      iszero\n      tag_269\n      jumpi\n        /* \"#utility.yul\":7555:7634   */\n      tag_270\n      tag_134\n      jump\t// in\n    tag_270:\n        /* \"#utility.yul\":7519:7636   */\n    tag_269:\n        /* \"#utility.yul\":7660:7723   */\n      tag_271\n        /* \"#utility.yul\":7715:7722   */\n      dup5\n        /* \"#utility.yul\":7706:7712   */\n      dup3\n        /* \"#utility.yul\":7695:7704   */\n      dup6\n        /* \"#utility.yul\":7691:7713   */\n      add\n        /* \"#utility.yul\":7660:7723   */\n      tag_161\n      jump\t// in\n    tag_271:\n        /* \"#utility.yul\":7650:7723   */\n      swap2\n      pop\n        /* \"#utility.yul\":7446:7733   */\n      pop\n        /* \"#utility.yul\":7231:7740   */\n      swap3\n      swap2\n      pop\n      pop\n      jump\t// out\n        /* \"#utility.yul\":7746:7926   */\n    tag_162:\n        /* \"#utility.yul\":7794:7871   */\n      0x4e487b7100000000000000000000000000000000000000000000000000000000\n        /* \"#utility.yul\":7791:7792   */\n      0x00\n        /* \"#utility.yul\":7784:7872   */\n      mstore\n        /* \"#utility.yul\":7891:7895   */\n      0x22\n        /* \"#utility.yul\":7888:7889   */\n      0x04\n        /* \"#utility.yul\":7881:7896   */\n      mstore\n        /* \"#utility.yul\":7915:7919   */\n      0x24\n        /* \"#utility.yul\":7912:7913   */\n      0x00\n        /* \"#utility.yul\":7905:7920   */\n      revert\n        /* \"#utility.yul\":7932:8252   */\n    tag_86:\n        /* \"#utility.yul\":7976:7982   */\n      0x00\n        /* \"#utility.yul\":8013:8014   */\n      0x02\n        /* \"#utility.yul\":8007:8011   */\n      dup3\n        /* \"#utility.yul\":8003:8015   */\n      div\n        /* \"#utility.yul\":7993:8015   */\n      swap1\n      pop\n        /* \"#utility.yul\":8060:8061   */\n      0x01\n        /* \"#utility.yul\":8054:8058   */\n      dup3\n        /* \"#utility.yul\":8050:8062   */\n      and\n        /* \"#utility.yul\":8081:8099   */\n      dup1\n        /* \"#utility.yul\":8071:8152   */\n      tag_274\n      jumpi\n        /* \"#utility.yul\":8137:8141   */\n      0x7f\n        /* \"#utility.yul\":8129:8135   */\n      dup3\n        /* \"#utility.yul\":8125:8142   */\n      and\n        /* \"#utility.yul\":8115:8142   */\n      swap2\n      pop\n        /* \"#utility.yul\":8071:8152   */\n    tag_274:\n        /* \"#utility.yul\":8199:8201   */\n      0x20\n        /* \"#utility.yul\":8191:8197   */\n      dup3\n        /* \"#utility.yul\":8188:8202   */\n      lt\n        /* \"#utility.yul\":8168:8186   */\n      dup2\n        /* \"#utility.yul\":8165:8203   */\n      sub\n        /* \"#utility.yul\":8162:8246   */\n      tag_275\n      jumpi\n        /* \"#utility.yul\":8218:8236   */\n      tag_276\n      tag_162\n      jump\t// in\n    tag_276:\n        /* \"#utility.yul\":8162:8246   */\n    tag_275:\n        /* \"#utility.yul\":7983:8252   */\n      pop\n        /* \"#utility.yul\":7932:8252   */\n      swap2\n      swap1\n      pop\n      jump\t// out\n        /* \"#utility.yul\":8258:8399   */\n    tag_163:\n        /* \"#utility.yul\":8307:8311   */\n      0x00\n        /* \"#utility.yul\":8330:8333   */\n      dup2\n        /* \"#utility.yul\":8322:8333   */\n      swap1\n      pop\n        /* \"#utility.yul\":8353:8356   */\n      dup2\n        /* \"#utility.yul\":8350:8351   */\n      0x00\n        /* \"#utility.yul\":8343:8357   */\n      mstore\n        /* \"#utility.yul\":8387:8391   */\n      0x20\n        /* \"#utility.yul\":8384:8385   */\n      0x00\n        /* \"#utility.yul\":8374:8392   */\n      keccak256\n        /* \"#utility.yul\":8366:8392   */\n      swap1\n      pop\n        /* \"#utility.yul\":8258:8399   */\n      swap2\n      swap1\n      pop\n      jump\t// out\n        /* \"#utility.yul\":8405:8498   */\n    tag_164:\n        /* \"#utility.yul\":8442:8448   */\n      0x00\n        /* \"#utility.yul\":8489:8491   */\n      0x20\n        /* \"#utility.yul\":8484:8486   */\n      0x1f\n        /* \"#utility.yul\":8477:8482   */\n      dup4\n        /* \"#utility.yul\":8473:8487   */\n      add\n        /* \"#utility.yul\":8469:8492   */\n      div\n        /* \"#utility.yul\":8459:8492   */\n      swap1\n      pop\n        /* \"#utility.yul\":8405:8498   */\n      swap2\n      swap1\n      pop\n      jump\t// out\n        /* \"#utility.yul\":8504:8611   */\n    tag_165:\n        /* \"#utility.yul\":8548:8556   */\n      0x00\n        /* \"#utility.yul\":8598:8603   */\n      dup3\n        /* \"#utility.yul\":8592:8596   */\n      dup3\n        /* \"#utility.yul\":8588:8604   */\n      shl\n        /* \"#utility.yul\":8567:8604   */\n      swap1\n      pop\n        /* \"#utility.yul\":8504:8611   */\n      swap3\n      swap2\n      pop\n      pop\n      jump\t// out\n        /* \"#utility.yul\":8617:9010   */\n    tag_166:\n        /* \"#utility.yul\":8686:8692   */\n      0x00\n        /* \"#utility.yul\":8736:8737   */\n      0x08\n        /* \"#utility.yul\":8724:8734   */\n      dup4\n        /* \"#utility.yul\":8720:8738   */\n      mul\n        /* \"#utility.yul\":8759:8856   */\n      tag_281\n        /* \"#utility.yul\":8789:8855   */\n      0xffffffffffffffffffffffffffffffffffffffffffffffffffffffffffffffff\n        /* \"#utility.yul\":8778:8787   */\n      dup3\n        /* \"#utility.yul\":8759:8856   */\n      tag_165\n      jump\t// in\n    tag_281:\n        /* \"#utility.yul\":8877:8916   */\n      tag_282\n        /* \"#utility.yul\":8907:8915   */\n      dup7\n        /* \"#utility.yul\":8896:8905   */\n      dup4\n        /* \"#utility.yul\":8877:8916   */\n      tag_165\n      jump\t// in\n    tag_282:\n        /* \"#utility.yul\":8865:8916   */\n      swap6\n      pop\n        /* \"#utility.yul\":8949:8953   */\n      dup1\n        /* \"#utility.yul\":8945:8954   */\n      not\n        /* \"#utility.yul\":8938:8943   */\n      dup5\n        /* \"#utility.yul\":8934:8955   */\n      and\n        /* \"#utility.yul\":8925:8955   */\n      swap4\n      pop\n        /* \"#utility.yul\":8998:9002   */\n      dup1\n        /* \"#utility.yul\":8988:8996   */\n      dup7\n        /* \"#utility.yul\":8984:9003   */\n      and\n        /* \"#utility.yul\":8977:8982   */\n      dup5\n        /* \"#utility.yul\":8974:9004   */\n      or\n        /* \"#utility.yul\":8964:9004   */\n      swap3\n      pop\n        /* \"#utility.yul\":8693:9010   */\n      pop\n      pop\n        /* \"#utility.yul\":8617:9010   */\n      swap4\n      swap3\n      pop\n      pop\n      pop\n      jump\t// out\n        /* \"#utility.yul\":9016:9093   */\n    tag_167:\n        /* \"#utility.yul\":9053:9060   */\n      0x00\n        /* \"#utility.yul\":9082:9087   */\n      dup2\n        /* \"#utility.yul\":9071:9087   */\n      swap1\n      pop\n        /* \"#utility.yul\":9016:9093   */\n      swap2\n      swap1\n      pop\n      jump\t// out\n        /* \"#utility.yul\":9099:9159   */\n    tag_168:\n        /* \"#utility.yul\":9127:9130   */\n      0x00\n        /* \"#utility.yul\":9148:9153   */\n      dup2\n        /* \"#utility.yul\":9141:9153   */\n      swap1\n      pop\n        /* \"#utility.yul\":9099:9159   */\n      swap2\n      swap1\n      pop\n      jump\t// out\n        /* \"#utility.yul\":9165:9307   */\n    tag_169:\n        /* \"#utility.yul\":9215:9224   */\n      0x00\n        /* \"#utility.yul\":9248:9301   */\n      tag_286\n        /* \"#utility.yul\":9266:9300   */\n      tag_287\n        /* \"#utility.yul\":9275:9299   */\n      tag_288\n        /* \"#utility.yul\":9293:9298   */\n      dup5\n        /* \"#utility.yul\":9275:9299   */\n      tag_167\n      jump\t// in\n    tag_288:\n        /* \"#utility.yul\":9266:9300   */\n      tag_168\n      jump\t// in\n    tag_287:\n        /* \"#utility.yul\":9248:9301   */\n      tag_167\n      jump\t// in\n    tag_286:\n        /* \"#utility.yul\":9235:9301   */\n      swap1\n      pop\n        /* \"#utility.yul\":9165:9307   */\n      swap2\n      swap1\n      pop\n      jump\t// out\n        /* \"#utility.yul\":9313:9388   */\n    tag_170:\n        /* \"#utility.yul\":9356:9359   */\n      0x00\n        /* \"#utility.yul\":9377:9382   */\n      dup2\n        /* \"#utility.yul\":9370:9382   */\n      swap1\n      pop\n        /* \"#utility.yul\":9313:9388   */\n      swap2\n      swap1\n      pop\n      jump\t// out\n        /* \"#utility.yul\":9394:9663   */\n    tag_171:\n        /* \"#utility.yul\":9504:9543   */\n      tag_291\n        /* \"#utility.yul\":9535:9542   */\n      dup4\n        /* \"#utility.yul\":9504:9543   */\n      tag_169\n      jump\t// in\n    tag_291:\n        /* \"#utility.yul\":9565:9656   */\n      tag_292\n        /* \"#utility.yul\":9614:9655   */\n      tag_293\n        /* \"#utility.yul\":9638:9654   */\n      dup3\n        /* \"#utility.yul\":9614:9655   */\n      tag_170\n      jump\t// in\n    tag_293:\n        /* \"#utility.yul\":9606:9612   */\n      dup5\n        /* \"#utility.yul\":9599:9603   */\n      dup5\n        /* \"#utility.yul\":9593:9604   */\n      sload\n        /* \"#utility.yul\":9565:9656   */\n      tag_166\n      jump\t// in\n    tag_292:\n        /* \"#utility.yul\":9559:9563   */\n      dup3\n        /* \"#utility.yul\":9552:9657   */\n      sstore\n        /* \"#utility.yul\":9470:9663   */\n      pop\n        /* \"#utility.yul\":9394:9663   */\n      pop\n      pop\n      pop\n      jump\t// out\n        /* \"#utility.yul\":9669:9742   */\n    tag_172:\n        /* \"#utility.yul\":9714:9717   */\n      0x00\n        /* \"#utility.yul\":9669:9742   */\n      swap1\n      jump\t// out\n        /* \"#utility.yul\":9748:9937   */\n    tag_173:\n        /* \"#utility.yul\":9825:9857   */\n      tag_296\n      tag_172\n      jump\t// in\n    tag_296:\n        /* \"#utility.yul\":9866:9931   */\n      tag_297\n        /* \"#utility.yul\":9924:9930   */\n      dup2\n        /* \"#utility.yul\":9916:9922   */\n      dup5\n        /* \"#utility.yul\":9910:9914   */\n      dup5\n        /* \"#utility.yul\":9866:9931   */\n      tag_171\n      jump\t// in\n    tag_297:\n        /* \"#utility.yul\":9801:9937   */\n      pop\n        /* \"#utility.yul\":9748:9937   */\n      pop\n      pop\n      jump\t// out\n        /* \"#utility.yul\":9943:10129   */\n    tag_174:\n        /* \"#utility.yul\":10003:10123   */\n    tag_299:\n        /* \"#utility.yul\":10020:10023   */\n      dup2\n        /* \"#utility.yul\":10013:10018   */\n      dup2\n        /* \"#utility.yul\":10010:10024   */\n      lt\n        /* \"#utility.yul\":10003:10123   */\n      iszero\n      tag_301\n      jumpi\n        /* \"#utility.yul\":10074:10113   */\n      tag_302\n        /* \"#utility.yul\":10111:10112   */\n      0x00\n        /* \"#utility.yul\":10104:10109   */\n      dup3\n        /* \"#utility.yul\":10074:10113   */\n      tag_173\n      jump\t// in\n    tag_302:\n        /* \"#utility.yul\":10047:10048   */\n      0x01\n        /* \"#utility.yul\":10040:10045   */\n      dup2\n        /* \"#utility.yul\":10036:10049   */\n      add\n        /* \"#utility.yul\":10027:10049   */\n      swap1\n      pop\n        /* \"#utility.yul\":10003:10123   */\n      jump(tag_299)\n    tag_301:\n        /* \"#utility.yul\":9943:10129   */\n      pop\n      pop\n      jump\t// out\n        /* \"#utility.yul\":10135:10678   */\n    tag_175:\n        /* \"#utility.yul\":10236:10238   */\n      0x1f\n        /* \"#utility.yul\":10231:10234   */\n      dup3\n        /* \"#utility.yul\":10228:10239   */\n      gt\n        /* \"#utility.yul\":10225:10671   */\n      iszero\n      tag_304\n      jumpi\n        /* \"#utility.yul\":10270:10308   */\n      tag_305\n        /* \"#utility.yul\":10302:10307   */\n      dup2\n        /* \"#utility.yul\":10270:10308   */\n      tag_163\n      jump\t// in\n    tag_305:\n        /* \"#utility.yul\":10354:10383   */\n      tag_306\n        /* \"#utility.yul\":10372:10382   */\n      dup5\n        /* \"#utility.yul\":10354:10383   */\n      tag_164\n      jump\t// in\n    tag_306:\n        /* \"#utility.yul\":10344:10352   */\n      dup2\n        /* \"#utility.yul\":10340:10384   */\n      add\n        /* \"#utility.yul\":10537:10539   */\n      0x20\n        /* \"#utility.yul\":10525:10535   */\n      dup6\n        /* \"#utility.yul\":10522:10540   */\n      lt\n        /* \"#utility.yul\":10519:10568   */\n      iszero\n      tag_307\n      jumpi\n        /* \"#utility.yul\":10558:10566   */\n      dup2\n        /* \"#utility.yul\":10543:10566   */\n      swap1\n      pop\n        /* \"#utility.yul\":10519:10568   */\n    tag_307:\n        /* \"#utility.yul\":10581:10661   */\n      tag_308\n        /* \"#utility.yul\":10637:10659   */\n      tag_309\n        /* \"#utility.yul\":10655:10658   */\n      dup6\n        /* \"#utility.yul\":10637:10659   */\n      tag_164\n      jump\t// in\n    tag_309:\n        /* \"#utility.yul\":10627:10635   */\n      dup4\n        /* \"#utility.yul\":10623:10660   */\n      add\n        /* \"#utility.yul\":10610:10621   */\n      dup3\n        /* \"#utility.yul\":10581:10661   */\n      tag_174\n      jump\t// in\n    tag_308:\n        /* \"#utility.yul\":10240:10671   */\n      pop\n      pop\n        /* \"#utility.yul\":10225:10671   */\n    tag_304:\n        /* \"#utility.yul\":10135:10678   */\n      pop\n      pop\n      pop\n      jump\t// out\n        /* \"#utility.yul\":10684:10801   */\n    tag_176:\n        /* \"#utility.yul\":10738:10746   */\n      0x00\n        /* \"#utility.yul\":10788:10793   */\n      dup3\n        /* \"#utility.yul\":10782:10786   */\n      dup3\n        /* \"#utility.yul\":10778:10794   */\n      shr\n        /* \"#utility.yul\":10757:10794   */\n      swap1\n      pop\n        /* \"#utility.yul\":10684:10801   */\n      swap3\n      swap2\n      pop\n      pop\n      jump\t// out\n        /* \"#utility.yul\":10807:10976   */\n    tag_177:\n        /* \"#utility.yul\":10851:10857   */\n      0x00\n        /* \"#utility.yul\":10884:10935   */\n      tag_312\n        /* \"#utility.yul\":10932:10933   */\n      0x00\n        /* \"#utility.yul\":10928:10934   */\n      not\n        /* \"#utility.yul\":10920:10925   */\n      dup5\n        /* \"#utility.yul\":10917:10918   */\n      0x08\n        /* \"#utility.yul\":10913:10926   */\n      mul\n        /* \"#utility.yul\":10884:10935   */\n      tag_176\n      jump\t// in\n    tag_312:\n        /* \"#utility.yul\":10880:10936   */\n      not\n        /* \"#utility.yul\":10965:10969   */\n      dup1\n        /* \"#utility.yul\":10959:10963   */\n      dup4\n        /* \"#utility.yul\":10955:10970   */\n      and\n        /* \"#utility.yul\":10945:10970   */\n      swap2\n      pop\n        /* \"#utility.yul\":10858:10976   */\n      pop\n        /* \"#utility.yul\":10807:10976   */\n      swap3\n      swap2\n      pop\n      pop\n      jump\t// out\n        /* \"#utility.yul\":10981:11276   */\n    tag_178:\n        /* \"#utility.yul\":11057:11061   */\n      0x00\n        /* \"#utility.yul\":11203:11232   */\n      tag_314\n        /* \"#utility.yul\":11228:11231   */\n      dup4\n        /* \"#utility.yul\":11222:11226   */\n      dup4\n        /* \"#utility.yul\":11203:11232   */\n      tag_177\n      jump\t// in\n    tag_314:\n        /* \"#utility.yul\":11195:11232   */\n      swap2\n      pop\n        /* \"#utility.yul\":11265:11268   */\n      dup3\n        /* \"#utility.yul\":11262:11263   */\n      0x02\n        /* \"#utility.yul\":11258:11269   */\n      mul\n        /* \"#utility.yul\":11252:11256   */\n      dup3\n        /* \"#utility.yul\":11249:11270   */\n      or\n        /* \"#utility.yul\":11241:11270   */\n      swap1\n      pop\n        /* \"#utility.yul\":10981:11276   */\n      swap3\n      swap2\n      pop\n      pop\n      jump\t// out\n        /* \"#utility.yul\":11281:12676   */\n    tag_108:\n        /* \"#utility.yul\":11398:11435   */\n      tag_316\n        /* \"#utility.yul\":11431:11434   */\n      dup3\n        /* \"#utility.yul\":11398:11435   */\n      tag_148\n      jump\t// in\n    tag_316:\n        /* \"#utility.yul\":11500:11518   */\n      0xffffffffffffffff\n        /* \"#utility.yul\":11492:11498   */\n      dup2\n        /* \"#utility.yul\":11489:11519   */\n      gt\n        /* \"#utility.yul\":11486:11542   */\n      iszero\n      tag_317\n      jumpi\n        /* \"#utility.yul\":11522:11540   */\n      tag_318\n      tag_155\n      jump\t// in\n    tag_318:\n        /* \"#utility.yul\":11486:11542   */\n    tag_317:\n        /* \"#utility.yul\":11566:11604   */\n      tag_319\n        /* \"#utility.yul\":11598:11602   */\n      dup3\n        /* \"#utility.yul\":11592:11603   */\n      sload\n        /* \"#utility.yul\":11566:11604   */\n      tag_86\n      jump\t// in\n    tag_319:\n        /* \"#utility.yul\":11651:11718   */\n      tag_320\n        /* \"#utility.yul\":11711:11717   */\n      dup3\n        /* \"#utility.yul\":11703:11709   */\n      dup3\n        /* \"#utility.yul\":11697:11701   */\n      dup6\n        /* \"#utility.yul\":11651:11718   */\n      tag_175\n      jump\t// in\n    tag_320:\n        /* \"#utility.yul\":11745:11746   */\n      0x00\n        /* \"#utility.yul\":11769:11773   */\n      0x20\n        /* \"#utility.yul\":11756:11773   */\n      swap1\n      pop\n        /* \"#utility.yul\":11801:11803   */\n      0x1f\n        /* \"#utility.yul\":11793:11799   */\n      dup4\n        /* \"#utility.yul\":11790:11804   */\n      gt\n        /* \"#utility.yul\":11818:11819   */\n      0x01\n        /* \"#utility.yul\":11813:12431   */\n      dup2\n      eq\n      tag_322\n      jumpi\n        /* \"#utility.yul\":12475:12476   */\n      0x00\n        /* \"#utility.yul\":12492:12498   */\n      dup5\n        /* \"#utility.yul\":12489:12566   */\n      iszero\n      tag_323\n      jumpi\n        /* \"#utility.yul\":12541:12550   */\n      dup3\n        /* \"#utility.yul\":12536:12539   */\n      dup8\n        /* \"#utility.yul\":12532:12551   */\n      add\n        /* \"#utility.yul\":12526:12552   */\n      mload\n        /* \"#utility.yul\":12517:12552   */\n      swap1\n      pop\n        /* \"#utility.yul\":12489:12566   */\n    tag_323:\n        /* \"#utility.yul\":12592:12659   */\n      tag_324\n        /* \"#utility.yul\":12652:12658   */\n      dup6\n        /* \"#utility.yul\":12645:12650   */\n      dup3\n        /* \"#utility.yul\":12592:12659   */\n      tag_178\n      jump\t// in\n    tag_324:\n        /* \"#utility.yul\":12586:12590   */\n      dup7\n        /* \"#utility.yul\":12579:12660   */\n      sstore\n        /* \"#utility.yul\":12448:12670   */\n      pop\n        /* \"#utility.yul\":11783:12670   */\n      jump(tag_321)\n        /* \"#utility.yul\":11813:12431   */\n    tag_322:\n        /* \"#utility.yul\":11865:11869   */\n      0x1f\n        /* \"#utility.yul\":11861:11870   */\n      not\n        /* \"#utility.yul\":11853:11859   */\n      dup5\n        /* \"#utility.yul\":11849:11871   */\n      and\n        /* \"#utility.yul\":11899:11936   */\n      tag_325\n        /* \"#utility.yul\":11931:11935   */\n      dup7\n        /* \"#utility.yul\":11899:11936   */\n      tag_163\n      jump\t// in\n    tag_325:\n        /* \"#utility.yul\":11958:11959   */\n      0x00\n        /* \"#utility.yul\":11972:12180   */\n    tag_326:\n        /* \"#utility.yul\":11986:11993   */\n      dup3\n        /* \"#utility.yul\":11983:11984   */\n      dup2\n        /* \"#utility.yul\":11980:11994   */\n      lt\n        /* \"#utility.yul\":11972:12180   */\n      iszero\n      tag_328\n      jumpi\n        /* \"#utility.yul\":12065:12074   */\n      dup5\n        /* \"#utility.yul\":12060:12063   */\n      dup10\n        /* \"#utility.yul\":12056:12075   */\n      add\n        /* \"#utility.yul\":12050:12076   */\n      mload\n        /* \"#utility.yul\":12042:12048   */\n      dup3\n        /* \"#utility.yul\":12035:12077   */\n      sstore\n        /* \"#utility.yul\":12116:12117   */\n      0x01\n        /* \"#utility.yul\":12108:12114   */\n      dup3\n        /* \"#utility.yul\":12104:12118   */\n      add\n        /* \"#utility.yul\":12094:12118   */\n      swap2\n      pop\n        /* \"#utility.yul\":12163:12165   */\n      0x20\n        /* \"#utility.yul\":12152:12161   */\n      dup6\n        /* \"#utility.yul\":12148:12166   */\n      add\n        /* \"#utility.yul\":12135:12166   */\n      swap5\n      pop\n        /* \"#utility.yul\":12009:12013   */\n      0x20\n        /* \"#utility.yul\":12006:12007   */\n      dup2\n        /* \"#utility.yul\":12002:12014   */\n      add\n        /* \"#utility.yul\":11997:12014   */\n      swap1\n      pop\n        /* \"#utility.yul\":11972:12180   */\n      jump(tag_326)\n    tag_328:\n        /* \"#utility.yul\":12208:12214   */\n      dup7\n        /* \"#utility.yul\":12199:12206   */\n      dup4\n        /* \"#utility.yul\":12196:12215   */\n      lt\n        /* \"#utility.yul\":12193:12372   */\n      iszero\n      tag_329\n      jumpi\n        /* \"#utility.yul\":12266:12275   */\n      dup5\n        /* \"#utility.yul\":12261:12264   */\n      dup10\n        /* \"#utility.yul\":12257:12276   */\n      add\n        /* \"#utility.yul\":12251:12277   */\n      mload\n        /* \"#utility.yul\":12309:12357   */\n      tag_330\n        /* \"#utility.yul\":12351:12355   */\n      0x1f\n        /* \"#utility.yul\":12343:12349   */\n      dup10\n        /* \"#utility.yul\":12339:12356   */\n      and\n        /* \"#utility.yul\":12328:12337   */\n      dup3\n        /* \"#utility.yul\":12309:12357   */\n      tag_177\n      jump\t// in\n    tag_330:\n        /* \"#utility.yul\":12301:12307   */\n      dup4\n        /* \"#utility.yul\":12294:12358   */\n      sstore\n        /* \"#utility.yul\":12216:12372   */\n      pop\n        /* \"#utility.yul\":12193:12372   */\n    tag_329:\n        /* \"#utility.yul\":12418:12419   */\n      0x01\n        /* \"#utility.yul\":12414:12415   */\n      0x02\n        /* \"#utility.yul\":12406:12412   */\n      dup9\n        /* \"#utility.yul\":12402:12416   */\n      mul\n        /* \"#utility.yul\":12398:12420   */\n      add\n        /* \"#utility.yul\":12392:12396   */\n      dup9\n        /* \"#utility.yul\":12385:12421   */\n      sstore\n        /* \"#utility.yul\":11820:12431   */\n      pop\n      pop\n      pop\n        /* \"#utility.yul\":11783:12670   */\n    tag_321:\n      pop\n        /* \"#utility.yul\":11373:12676   */\n      pop\n      pop\n      pop\n        /* \"#utility.yul\":11281:12676   */\n      pop\n      pop\n      jump\t// out\n        /* \"#utility.yul\":12682:12800   */\n    tag_179:\n        /* \"#utility.yul\":12769:12793   */\n      tag_332\n        /* \"#utility.yul\":12787:12792   */\n      dup2\n        /* \"#utility.yul\":12769:12793   */\n      tag_145\n      jump\t// in\n    tag_332:\n        /* \"#utility.yul\":12764:12767   */\n      dup3\n        /* \"#utility.yul\":12757:12794   */\n      mstore\n        /* \"#utility.yul\":12682:12800   */\n      pop\n      pop\n      jump\t// out\n        /* \"#utility.yul\":12806:13028   */\n    tag_110:\n        /* \"#utility.yul\":12899:12903   */\n      0x00\n        /* \"#utility.yul\":12937:12939   */\n      0x20\n        /* \"#utility.yul\":12926:12935   */\n      dup3\n        /* \"#utility.yul\":12922:12940   */\n      add\n        /* \"#utility.yul\":12914:12940   */\n      swap1\n      pop\n        /* \"#utility.yul\":12950:13021   */\n      tag_334\n        /* \"#utility.yul\":13018:13019   */\n      0x00\n        /* \"#utility.yul\":13007:13016   */\n      dup4\n        /* \"#utility.yul\":13003:13020   */\n      add\n        /* \"#utility.yul\":12994:13000   */\n      dup5\n        /* \"#utility.yul\":12950:13021   */\n      tag_179\n      jump\t// in\n    tag_334:\n        /* \"#utility.yul\":12806:13028   */\n      swap3\n      swap2\n      pop\n      pop\n      jump\t// out\n        /* \"#utility.yul\":13034:13366   */\n    tag_131:\n        /* \"#utility.yul\":13155:13159   */\n      0x00\n        /* \"#utility.yul\":13193:13195   */\n      0x40\n        /* \"#utility.yul\":13182:13191   */\n      dup3\n        /* \"#utility.yul\":13178:13196   */\n      add\n        /* \"#utility.yul\":13170:13196   */\n      swap1\n      pop\n        /* \"#utility.yul\":13206:13277   */\n      tag_336\n        /* \"#utility.yul\":13274:13275   */\n      0x00\n        /* \"#utility.yul\":13263:13272   */\n      dup4\n        /* \"#utility.yul\":13259:13276   */\n      add\n        /* \"#utility.yul\":13250:13256   */\n      dup6\n        /* \"#utility.yul\":13206:13277   */\n      tag_179\n      jump\t// in\n    tag_336:\n        /* \"#utility.yul\":13287:13359   */\n      tag_337\n        /* \"#utility.yul\":13355:13357   */\n      0x20\n        /* \"#utility.yul\":13344:13353   */\n      dup4\n        /* \"#utility.yul\":13340:13358   */\n      add\n        /* \"#utility.yul\":13331:13337   */\n      dup5\n        /* \"#utility.yul\":13287:13359   */\n      tag_143\n      jump\t// in\n    tag_337:\n        /* \"#utility.yul\":13034:13366   */\n      swap4\n      swap3\n      pop\n      pop\n      pop\n      jump\t// out\n\n    auxdata: 0xa2646970667358221220706171495b1de99758958c64ac70b027581d855213e000e09bb9079b0a0994e064736f6c634300081a0033\n}\n",
				"bytecode": {
					"linkReferences": {},
					"object": "608060405234801561000f575f80fd5b5060405161121a38038061121a83398181016040528101906100319190610207565b6100435f801b8261004a60201b60201c565b5050610232565b5f61005b838361013f60201b60201c565b6101355760015f808581526020019081526020015f205f015f8473ffffffffffffffffffffffffffffffffffffffff1673ffffffffffffffffffffffffffffffffffffffff1681526020019081526020015f205f6101000a81548160ff0219169083151502179055506100d26101a260201b60201c565b73ffffffffffffffffffffffffffffffffffffffff168273ffffffffffffffffffffffffffffffffffffffff16847f2f8788117e7eff1d82e926ec794901d17c78024a50270940304540a733656f0d60405160405180910390a460019050610139565b5f90505b92915050565b5f805f8481526020019081526020015f205f015f8373ffffffffffffffffffffffffffffffffffffffff1673ffffffffffffffffffffffffffffffffffffffff1681526020019081526020015f205f9054906101000a900460ff16905092915050565b5f33905090565b5f80fd5b5f73ffffffffffffffffffffffffffffffffffffffff82169050919050565b5f6101d6826101ad565b9050919050565b6101e6816101cc565b81146101f0575f80fd5b50565b5f81519050610201816101dd565b92915050565b5f6020828403121561021c5761021b6101a9565b5b5f610229848285016101f3565b91505092915050565b610fdb8061023f5f395ff3fe608060405234801561000f575f80fd5b50600436106100b2575f3560e01c8063a217fddf1161006f578063a217fddf1461019c578063beff6824146101ba578063c2093b0b146101d8578063d547741f146101f4578063ec14689c14610210578063f824e92e1461022c576100b2565b806301ffc9a7146100b6578063248a9ca3146100e65780632f2ff15d1461011657806336568abe1461013257806391d148541461014e5780639b08ae9c1461017e575b5f80fd5b6100d060048036038101906100cb91906108da565b610248565b6040516100dd919061091f565b60405180910390f35b61010060048036038101906100fb919061096b565b6102c1565b60405161010d91906109a5565b60405180910390f35b610130600480360381019061012b9190610a18565b6102dd565b005b61014c60048036038101906101479190610a18565b6102ff565b005b61016860048036038101906101639190610a18565b61037a565b604051610175919061091f565b60405180910390f35b6101866103dd565b6040516101939190610ac6565b60405180910390f35b6101a4610498565b6040516101b191906109a5565b60405180910390f35b6101c261049e565b6040516101cf91906109a5565b60405180910390f35b6101f260048036038101906101ed9190610ae6565b6104c2565b005b61020e60048036038101906102099190610a18565b6104fc565b005b61022a60048036038101906102259190610ae6565b61051e565b005b61024660048036038101906102419190610c3d565b610558565b005b5f7f7965db0b000000000000000000000000000000000000000000000000000000007bffffffffffffffffffffffffffffffffffffffffffffffffffffffff1916827bffffffffffffffffffffffffffffffffffffffffffffffffffffffff191614806102ba57506102b9826105cd565b5b9050919050565b5f805f8381526020019081526020015f20600101549050919050565b6102e6826102c1565b6102ef81610636565b6102f9838361064a565b50505050565b610307610733565b73ffffffffffffffffffffffffffffffffffffffff168173ffffffffffffffffffffffffffffffffffffffff161461036b576040517f6697b23200000000000000000000000000000000000000000000000000000000815260040160405180910390fd5b610375828261073a565b505050565b5f805f8481526020019081526020015f205f015f8373ffffffffffffffffffffffffffffffffffffffff1673ffffffffffffffffffffffffffffffffffffffff1681526020019081526020015f205f9054906101000a900460ff16905092915050565b60607fddd94edc7da5bca8f576c77964a4737ba5172c728e2d539e672f0229d1e9ec2d61040981610636565b6001805461041690610cb1565b80601f016020809104026020016040519081016040528092919081815260200182805461044290610cb1565b801561048d5780601f106104645761010080835404028352916020019161048d565b820191905f5260205f20905b81548152906001019060200180831161047057829003601f168201915b505050505091505090565b5f801b81565b7fddd94edc7da5bca8f576c77964a4737ba5172c728e2d539e672f0229d1e9ec2d81565b5f801b6104ce81610636565b6104f87fddd94edc7da5bca8f576c77964a4737ba5172c728e2d539e672f0229d1e9ec2d836104fc565b5050565b610505826102c1565b61050e81610636565b610518838361073a565b50505050565b5f801b61052a81610636565b6105547fddd94edc7da5bca8f576c77964a4737ba5172c728e2d539e672f0229d1e9ec2d836102dd565b5050565b7fddd94edc7da5bca8f576c77964a4737ba5172c728e2d539e672f0229d1e9ec2d61058281610636565b81600190816105919190610e87565b507ffffff3b6d2af20d0857e636740b82ca9ce23c36a669ab61c56146c5ab81fcfb2336040516105c19190610f65565b60405180910390a15050565b5f7f01ffc9a7000000000000000000000000000000000000000000000000000000007bffffffffffffffffffffffffffffffffffffffffffffffffffffffff1916827bffffffffffffffffffffffffffffffffffffffffffffffffffffffff1916149050919050565b61064781610642610733565b610823565b50565b5f610655838361037a565b6107295760015f808581526020019081526020015f205f015f8473ffffffffffffffffffffffffffffffffffffffff1673ffffffffffffffffffffffffffffffffffffffff1681526020019081526020015f205f6101000a81548160ff0219169083151502179055506106c6610733565b73ffffffffffffffffffffffffffffffffffffffff168273ffffffffffffffffffffffffffffffffffffffff16847f2f8788117e7eff1d82e926ec794901d17c78024a50270940304540a733656f0d60405160405180910390a46001905061072d565b5f90505b92915050565b5f33905090565b5f610745838361037a565b15610819575f805f8581526020019081526020015f205f015f8473ffffffffffffffffffffffffffffffffffffffff1673ffffffffffffffffffffffffffffffffffffffff1681526020019081526020015f205f6101000a81548160ff0219169083151502179055506107b6610733565b73ffffffffffffffffffffffffffffffffffffffff168273ffffffffffffffffffffffffffffffffffffffff16847ff6391f5c32d9c69d2a47ea670b442974b53935d1edc7fd64eb21e047a839171b60405160405180910390a46001905061081d565b5f90505b92915050565b61082d828261037a565b6108705780826040517fe2517d3f000000000000000000000000000000000000000000000000000000008152600401610867929190610f7e565b60405180910390fd5b5050565b5f604051905090565b5f80fd5b5f80fd5b5f7fffffffff0000000000000000000000000000000000000000000000000000000082169050919050565b6108b981610885565b81146108c3575f80fd5b50565b5f813590506108d4816108b0565b92915050565b5f602082840312156108ef576108ee61087d565b5b5f6108fc848285016108c6565b91505092915050565b5f8115159050919050565b61091981610905565b82525050565b5f6020820190506109325f830184610910565b92915050565b5f819050919050565b61094a81610938565b8114610954575f80fd5b50565b5f8135905061096581610941565b92915050565b5f602082840312156109805761097f61087d565b5b5f61098d84828501610957565b91505092915050565b61099f81610938565b82525050565b5f6020820190506109b85f830184610996565b92915050565b5f73ffffffffffffffffffffffffffffffffffffffff82169050919050565b5f6109e7826109be565b9050919050565b6109f7816109dd565b8114610a01575f80fd5b50565b5f81359050610a12816109ee565b92915050565b5f8060408385031215610a2e57610a2d61087d565b5b5f610a3b85828601610957565b9250506020610a4c85828601610a04565b9150509250929050565b5f81519050919050565b5f82825260208201905092915050565b8281835e5f83830152505050565b5f601f19601f8301169050919050565b5f610a9882610a56565b610aa28185610a60565b9350610ab2818560208601610a70565b610abb81610a7e565b840191505092915050565b5f6020820190508181035f830152610ade8184610a8e565b905092915050565b5f60208284031215610afb57610afa61087d565b5b5f610b0884828501610a04565b91505092915050565b5f80fd5b5f80fd5b7f4e487b71000000000000000000000000000000000000000000000000000000005f52604160045260245ffd5b610b4f82610a7e565b810181811067ffffffffffffffff82111715610b6e57610b6d610b19565b5b80604052505050565b5f610b80610874565b9050610b8c8282610b46565b919050565b5f67ffffffffffffffff821115610bab57610baa610b19565b5b610bb482610a7e565b9050602081019050919050565b828183375f83830152505050565b5f610be1610bdc84610b91565b610b77565b905082815260208101848484011115610bfd57610bfc610b15565b5b610c08848285610bc1565b509392505050565b5f82601f830112610c2457610c23610b11565b5b8135610c34848260208601610bcf565b91505092915050565b5f60208284031215610c5257610c5161087d565b5b5f82013567ffffffffffffffff811115610c6f57610c6e610881565b5b610c7b84828501610c10565b91505092915050565b7f4e487b71000000000000000000000000000000000000000000000000000000005f52602260045260245ffd5b5f6002820490506001821680610cc857607f821691505b602082108103610cdb57610cda610c84565b5b50919050565b5f819050815f5260205f209050919050565b5f6020601f8301049050919050565b5f82821b905092915050565b5f60088302610d3d7fffffffffffffffffffffffffffffffffffffffffffffffffffffffffffffffff82610d02565b610d478683610d02565b95508019841693508086168417925050509392505050565b5f819050919050565b5f819050919050565b5f610d8b610d86610d8184610d5f565b610d68565b610d5f565b9050919050565b5f819050919050565b610da483610d71565b610db8610db082610d92565b848454610d0e565b825550505050565b5f90565b610dcc610dc0565b610dd7818484610d9b565b505050565b5b81811015610dfa57610def5f82610dc4565b600181019050610ddd565b5050565b601f821115610e3f57610e1081610ce1565b610e1984610cf3565b81016020851015610e28578190505b610e3c610e3485610cf3565b830182610ddc565b50505b505050565b5f82821c905092915050565b5f610e5f5f1984600802610e44565b1980831691505092915050565b5f610e778383610e50565b9150826002028217905092915050565b610e9082610a56565b67ffffffffffffffff811115610ea957610ea8610b19565b5b610eb38254610cb1565b610ebe828285610dfe565b5f60209050601f831160018114610eef575f8415610edd578287015190505b610ee78582610e6c565b865550610f4e565b601f198416610efd86610ce1565b5f5b82811015610f2457848901518255600182019150602085019450602081019050610eff565b86831015610f415784890151610f3d601f891682610e50565b8355505b6001600288020188555050505b505050505050565b610f5f816109dd565b82525050565b5f602082019050610f785f830184610f56565b92915050565b5f604082019050610f915f830185610f56565b610f9e6020830184610996565b939250505056fea2646970667358221220706171495b1de99758958c64ac70b027581d855213e000e09bb9079b0a0994e064736f6c634300081a0033",
					"opcodes": "PUSH1 0x80 PUSH1 0x40 MSTORE CALLVALUE DUP1 ISZERO PUSH2 0xF JUMPI PUSH0 DUP1 REVERT JUMPDEST POP PUSH1 0x40 MLOAD PUSH2 0x121A CODESIZE SUB DUP1 PUSH2 0x121A DUP4 CODECOPY DUP2 DUP2 ADD PUSH1 0x40 MSTORE DUP2 ADD SWAP1 PUSH2 0x31 SWAP2 SWAP1 PUSH2 0x207 JUMP JUMPDEST PUSH2 0x43 PUSH0 DUP1 SHL DUP3 PUSH2 0x4A PUSH1 0x20 SHL PUSH1 0x20 SHR JUMP JUMPDEST POP POP PUSH2 0x232 JUMP JUMPDEST PUSH0 PUSH2 0x5B DUP4 DUP4 PUSH2 0x13F PUSH1 0x20 SHL PUSH1 0x20 SHR JUMP JUMPDEST PUSH2 0x135 JUMPI PUSH1 0x1 PUSH0 DUP1 DUP6 DUP2 MSTORE PUSH1 0x20 ADD SWAP1 DUP2 MSTORE PUSH1 0x20 ADD PUSH0 KECCAK256 PUSH0 ADD PUSH0 DUP5 PUSH20 0xFFFFFFFFFFFFFFFFFFFFFFFFFFFFFFFFFFFFFFFF AND PUSH20 0xFFFFFFFFFFFFFFFFFFFFFFFFFFFFFFFFFFFFFFFF AND DUP2 MSTORE PUSH1 0x20 ADD SWAP1 DUP2 MSTORE PUSH1 0x20 ADD PUSH0 KECCAK256 PUSH0 PUSH2 0x100 EXP DUP2 SLOAD DUP2 PUSH1 0xFF MUL NOT AND SWAP1 DUP4 ISZERO ISZERO MUL OR SWAP1 SSTORE POP PUSH2 0xD2 PUSH2 0x1A2 PUSH1 0x20 SHL PUSH1 0x20 SHR JUMP JUMPDEST PUSH20 0xFFFFFFFFFFFFFFFFFFFFFFFFFFFFFFFFFFFFFFFF AND DUP3 PUSH20 0xFFFFFFFFFFFFFFFFFFFFFFFFFFFFFFFFFFFFFFFF AND DUP5 PUSH32 0x2F8788117E7EFF1D82E926EC794901D17C78024A50270940304540A733656F0D PUSH1 0x40 MLOAD PUSH1 0x40 MLOAD DUP1 SWAP2 SUB SWAP1 LOG4 PUSH1 0x1 SWAP1 POP PUSH2 0x139 JUMP JUMPDEST PUSH0 SWAP1 POP JUMPDEST SWAP3 SWAP2 POP POP JUMP JUMPDEST PUSH0 DUP1 PUSH0 DUP5 DUP2 MSTORE PUSH1 0x20 ADD SWAP1 DUP2 MSTORE PUSH1 0x20 ADD PUSH0 KECCAK256 PUSH0 ADD PUSH0 DUP4 PUSH20 0xFFFFFFFFFFFFFFFFFFFFFFFFFFFFFFFFFFFFFFFF AND PUSH20 0xFFFFFFFFFFFFFFFFFFFFFFFFFFFFFFFFFFFFFFFF AND DUP2 MSTORE PUSH1 0x20 ADD SWAP1 DUP2 MSTORE PUSH1 0x20 ADD PUSH0 KECCAK256 PUSH0 SWAP1 SLOAD SWAP1 PUSH2 0x100 EXP SWAP1 DIV PUSH1 0xFF AND SWAP1 POP SWAP3 SWAP2 POP POP JUMP JUMPDEST PUSH0 CALLER SWAP1 POP SWAP1 JUMP JUMPDEST PUSH0 DUP1 REVERT JUMPDEST PUSH0 PUSH20 0xFFFFFFFFFFFFFFFFFFFFFFFFFFFFFFFFFFFFFFFF DUP3 AND SWAP1 POP SWAP2 SWAP1 POP JUMP JUMPDEST PUSH0 PUSH2 0x1D6 DUP3 PUSH2 0x1AD JUMP JUMPDEST SWAP1 POP SWAP2 SWAP1 POP JUMP JUMPDEST PUSH2 0x1E6 DUP2 PUSH2 0x1CC JUMP JUMPDEST DUP2 EQ PUSH2 0x1F0 JUMPI PUSH0 DUP1 REVERT JUMPDEST POP JUMP JUMPDEST PUSH0 DUP2 MLOAD SWAP1 POP PUSH2 0x201 DUP2 PUSH2 0x1DD JUMP JUMPDEST SWAP3 SWAP2 POP POP JUMP JUMPDEST PUSH0 PUSH1 0x20 DUP3 DUP5 SUB SLT ISZERO PUSH2 0x21C JUMPI PUSH2 0x21B PUSH2 0x1A9 JUMP JUMPDEST JUMPDEST PUSH0 PUSH2 0x229 DUP5 DUP3 DUP6 ADD PUSH2 0x1F3 JUMP JUMPDEST SWAP2 POP POP SWAP3 SWAP2 POP POP JUMP JUMPDEST PUSH2 0xFDB DUP1 PUSH2 0x23F PUSH0 CODECOPY PUSH0 RETURN INVALID PUSH1 0x80 PUSH1 0x40 MSTORE CALLVALUE DUP1 ISZERO PUSH2 0xF JUMPI PUSH0 DUP1 REVERT JUMPDEST POP PUSH1 0x4 CALLDATASIZE LT PUSH2 0xB2 JUMPI PUSH0 CALLDATALOAD PUSH1 0xE0 SHR DUP1 PUSH4 0xA217FDDF GT PUSH2 0x6F JUMPI DUP1 PUSH4 0xA217FDDF EQ PUSH2 0x19C JUMPI DUP1 PUSH4 0xBEFF6824 EQ PUSH2 0x1BA JUMPI DUP1 PUSH4 0xC2093B0B EQ PUSH2 0x1D8 JUMPI DUP1 PUSH4 0xD547741F EQ PUSH2 0x1F4 JUMPI DUP1 PUSH4 0xEC14689C EQ PUSH2 0x210 JUMPI DUP1 PUSH4 0xF824E92E EQ PUSH2 0x22C JUMPI PUSH2 0xB2 JUMP JUMPDEST DUP1 PUSH4 0x1FFC9A7 EQ PUSH2 0xB6 JUMPI DUP1 PUSH4 0x248A9CA3 EQ PUSH2 0xE6 JUMPI DUP1 PUSH4 0x2F2FF15D EQ PUSH2 0x116 JUMPI DUP1 PUSH4 0x36568ABE EQ PUSH2 0x132 JUMPI DUP1 PUSH4 0x91D14854 EQ PUSH2 0x14E JUMPI DUP1 PUSH4 0x9B08AE9C EQ PUSH2 0x17E JUMPI JUMPDEST PUSH0 DUP1 REVERT JUMPDEST PUSH2 0xD0 PUSH1 0x4 DUP1 CALLDATASIZE SUB DUP2 ADD SWAP1 PUSH2 0xCB SWAP2 SWAP1 PUSH2 0x8DA JUMP JUMPDEST PUSH2 0x248 JUMP JUMPDEST PUSH1 0x40 MLOAD PUSH2 0xDD SWAP2 SWAP1 PUSH2 0x91F JUMP JUMPDEST PUSH1 0x40 MLOAD DUP1 SWAP2 SUB SWAP1 RETURN JUMPDEST PUSH2 0x100 PUSH1 0x4 DUP1 CALLDATASIZE SUB DUP2 ADD SWAP1 PUSH2 0xFB SWAP2 SWAP1 PUSH2 0x96B JUMP JUMPDEST PUSH2 0x2C1 JUMP JUMPDEST PUSH1 0x40 MLOAD PUSH2 0x10D SWAP2 SWAP1 PUSH2 0x9A5 JUMP JUMPDEST PUSH1 0x40 MLOAD DUP1 SWAP2 SUB SWAP1 RETURN JUMPDEST PUSH2 0x130 PUSH1 0x4 DUP1 CALLDATASIZE SUB DUP2 ADD SWAP1 PUSH2 0x12B SWAP2 SWAP1 PUSH2 0xA18 JUMP JUMPDEST PUSH2 0x2DD JUMP JUMPDEST STOP JUMPDEST PUSH2 0x14C PUSH1 0x4 DUP1 CALLDATASIZE SUB DUP2 ADD SWAP1 PUSH2 0x147 SWAP2 SWAP1 PUSH2 0xA18 JUMP JUMPDEST PUSH2 0x2FF JUMP JUMPDEST STOP JUMPDEST PUSH2 0x168 PUSH1 0x4 DUP1 CALLDATASIZE SUB DUP2 ADD SWAP1 PUSH2 0x163 SWAP2 SWAP1 PUSH2 0xA18 JUMP JUMPDEST PUSH2 0x37A JUMP JUMPDEST PUSH1 0x40 MLOAD PUSH2 0x175 SWAP2 SWAP1 PUSH2 0x91F JUMP JUMPDEST PUSH1 0x40 MLOAD DUP1 SWAP2 SUB SWAP1 RETURN JUMPDEST PUSH2 0x186 PUSH2 0x3DD JUMP JUMPDEST PUSH1 0x40 MLOAD PUSH2 0x193 SWAP2 SWAP1 PUSH2 0xAC6 JUMP JUMPDEST PUSH1 0x40 MLOAD DUP1 SWAP2 SUB SWAP1 RETURN JUMPDEST PUSH2 0x1A4 PUSH2 0x498 JUMP JUMPDEST PUSH1 0x40 MLOAD PUSH2 0x1B1 SWAP2 SWAP1 PUSH2 0x9A5 JUMP JUMPDEST PUSH1 0x40 MLOAD DUP1 SWAP2 SUB SWAP1 RETURN JUMPDEST PUSH2 0x1C2 PUSH2 0x49E JUMP JUMPDEST PUSH1 0x40 MLOAD PUSH2 0x1CF SWAP2 SWAP1 PUSH2 0x9A5 JUMP JUMPDEST PUSH1 0x40 MLOAD DUP1 SWAP2 SUB SWAP1 RETURN JUMPDEST PUSH2 0x1F2 PUSH1 0x4 DUP1 CALLDATASIZE SUB DUP2 ADD SWAP1 PUSH2 0x1ED SWAP2 SWAP1 PUSH2 0xAE6 JUMP JUMPDEST PUSH2 0x4C2 JUMP JUMPDEST STOP JUMPDEST PUSH2 0x20E PUSH1 0x4 DUP1 CALLDATASIZE SUB DUP2 ADD SWAP1 PUSH2 0x209 SWAP2 SWAP1 PUSH2 0xA18 JUMP JUMPDEST PUSH2 0x4FC JUMP JUMPDEST STOP JUMPDEST PUSH2 0x22A PUSH1 0x4 DUP1 CALLDATASIZE SUB DUP2 ADD SWAP1 PUSH2 0x225 SWAP2 SWAP1 PUSH2 0xAE6 JUMP JUMPDEST PUSH2 0x51E JUMP JUMPDEST STOP JUMPDEST PUSH2 0x246 PUSH1 0x4 DUP1 CALLDATASIZE SUB DUP2 ADD SWAP1 PUSH2 0x241 SWAP2 SWAP1 PUSH2 0xC3D JUMP JUMPDEST PUSH2 0x558 JUMP JUMPDEST STOP JUMPDEST PUSH0 PUSH32 0x7965DB0B00000000000000000000000000000000000000000000000000000000 PUSH28 0xFFFFFFFFFFFFFFFFFFFFFFFFFFFFFFFFFFFFFFFFFFFFFFFFFFFFFFFF NOT AND DUP3 PUSH28 0xFFFFFFFFFFFFFFFFFFFFFFFFFFFFFFFFFFFFFFFFFFFFFFFFFFFFFFFF NOT AND EQ DUP1 PUSH2 0x2BA JUMPI POP PUSH2 0x2B9 DUP3 PUSH2 0x5CD JUMP JUMPDEST JUMPDEST SWAP1 POP SWAP2 SWAP1 POP JUMP JUMPDEST PUSH0 DUP1 PUSH0 DUP4 DUP2 MSTORE PUSH1 0x20 ADD SWAP1 DUP2 MSTORE PUSH1 0x20 ADD PUSH0 KECCAK256 PUSH1 0x1 ADD SLOAD SWAP1 POP SWAP2 SWAP1 POP JUMP JUMPDEST PUSH2 0x2E6 DUP3 PUSH2 0x2C1 JUMP JUMPDEST PUSH2 0x2EF DUP2 PUSH2 0x636 JUMP JUMPDEST PUSH2 0x2F9 DUP4 DUP4 PUSH2 0x64A JUMP JUMPDEST POP POP POP POP JUMP JUMPDEST PUSH2 0x307 PUSH2 0x733 JUMP JUMPDEST PUSH20 0xFFFFFFFFFFFFFFFFFFFFFFFFFFFFFFFFFFFFFFFF AND DUP2 PUSH20 0xFFFFFFFFFFFFFFFFFFFFFFFFFFFFFFFFFFFFFFFF AND EQ PUSH2 0x36B JUMPI PUSH1 0x40 MLOAD PUSH32 0x6697B23200000000000000000000000000000000000000000000000000000000 DUP2 MSTORE PUSH1 0x4 ADD PUSH1 0x40 MLOAD DUP1 SWAP2 SUB SWAP1 REVERT JUMPDEST PUSH2 0x375 DUP3 DUP3 PUSH2 0x73A JUMP JUMPDEST POP POP POP JUMP JUMPDEST PUSH0 DUP1 PUSH0 DUP5 DUP2 MSTORE PUSH1 0x20 ADD SWAP1 DUP2 MSTORE PUSH1 0x20 ADD PUSH0 KECCAK256 PUSH0 ADD PUSH0 DUP4 PUSH20 0xFFFFFFFFFFFFFFFFFFFFFFFFFFFFFFFFFFFFFFFF AND PUSH20 0xFFFFFFFFFFFFFFFFFFFFFFFFFFFFFFFFFFFFFFFF AND DUP2 MSTORE PUSH1 0x20 ADD SWAP1 DUP2 MSTORE PUSH1 0x20 ADD PUSH0 KECCAK256 PUSH0 SWAP1 SLOAD SWAP1 PUSH2 0x100 EXP SWAP1 DIV PUSH1 0xFF AND SWAP1 POP SWAP3 SWAP2 POP POP JUMP JUMPDEST PUSH1 0x60 PUSH32 0xDDD94EDC7DA5BCA8F576C77964A4737BA5172C728E2D539E672F0229D1E9EC2D PUSH2 0x409 DUP2 PUSH2 0x636 JUMP JUMPDEST PUSH1 0x1 DUP1 SLOAD PUSH2 0x416 SWAP1 PUSH2 0xCB1 JUMP JUMPDEST DUP1 PUSH1 0x1F ADD PUSH1 0x20 DUP1 SWAP2 DIV MUL PUSH1 0x20 ADD PUSH1 0x40 MLOAD SWAP1 DUP2 ADD PUSH1 0x40 MSTORE DUP1 SWAP3 SWAP2 SWAP1 DUP2 DUP2 MSTORE PUSH1 0x20 ADD DUP3 DUP1 SLOAD PUSH2 0x442 SWAP1 PUSH2 0xCB1 JUMP JUMPDEST DUP1 ISZERO PUSH2 0x48D JUMPI DUP1 PUSH1 0x1F LT PUSH2 0x464 JUMPI PUSH2 0x100 DUP1 DUP4 SLOAD DIV MUL DUP4 MSTORE SWAP2 PUSH1 0x20 ADD SWAP2 PUSH2 0x48D JUMP JUMPDEST DUP3 ADD SWAP2 SWAP1 PUSH0 MSTORE PUSH1 0x20 PUSH0 KECCAK256 SWAP1 JUMPDEST DUP2 SLOAD DUP2 MSTORE SWAP1 PUSH1 0x1 ADD SWAP1 PUSH1 0x20 ADD DUP1 DUP4 GT PUSH2 0x470 JUMPI DUP3 SWAP1 SUB PUSH1 0x1F AND DUP3 ADD SWAP2 JUMPDEST POP POP POP POP POP SWAP2 POP POP SWAP1 JUMP JUMPDEST PUSH0 DUP1 SHL DUP2 JUMP JUMPDEST PUSH32 0xDDD94EDC7DA5BCA8F576C77964A4737BA5172C728E2D539E672F0229D1E9EC2D DUP2 JUMP JUMPDEST PUSH0 DUP1 SHL PUSH2 0x4CE DUP2 PUSH2 0x636 JUMP JUMPDEST PUSH2 0x4F8 PUSH32 0xDDD94EDC7DA5BCA8F576C77964A4737BA5172C728E2D539E672F0229D1E9EC2D DUP4 PUSH2 0x4FC JUMP JUMPDEST POP POP JUMP JUMPDEST PUSH2 0x505 DUP3 PUSH2 0x2C1 JUMP JUMPDEST PUSH2 0x50E DUP2 PUSH2 0x636 JUMP JUMPDEST PUSH2 0x518 DUP4 DUP4 PUSH2 0x73A JUMP JUMPDEST POP POP POP POP JUMP JUMPDEST PUSH0 DUP1 SHL PUSH2 0x52A DUP2 PUSH2 0x636 JUMP JUMPDEST PUSH2 0x554 PUSH32 0xDDD94EDC7DA5BCA8F576C77964A4737BA5172C728E2D539E672F0229D1E9EC2D DUP4 PUSH2 0x2DD JUMP JUMPDEST POP POP JUMP JUMPDEST PUSH32 0xDDD94EDC7DA5BCA8F576C77964A4737BA5172C728E2D539E672F0229D1E9EC2D PUSH2 0x582 DUP2 PUSH2 0x636 JUMP JUMPDEST DUP2 PUSH1 0x1 SWAP1 DUP2 PUSH2 0x591 SWAP2 SWAP1 PUSH2 0xE87 JUMP JUMPDEST POP PUSH32 0xFFFFF3B6D2AF20D0857E636740B82CA9CE23C36A669AB61C56146C5AB81FCFB2 CALLER PUSH1 0x40 MLOAD PUSH2 0x5C1 SWAP2 SWAP1 PUSH2 0xF65 JUMP JUMPDEST PUSH1 0x40 MLOAD DUP1 SWAP2 SUB SWAP1 LOG1 POP POP JUMP JUMPDEST PUSH0 PUSH32 0x1FFC9A700000000000000000000000000000000000000000000000000000000 PUSH28 0xFFFFFFFFFFFFFFFFFFFFFFFFFFFFFFFFFFFFFFFFFFFFFFFFFFFFFFFF NOT AND DUP3 PUSH28 0xFFFFFFFFFFFFFFFFFFFFFFFFFFFFFFFFFFFFFFFFFFFFFFFFFFFFFFFF NOT AND EQ SWAP1 POP SWAP2 SWAP1 POP JUMP JUMPDEST PUSH2 0x647 DUP2 PUSH2 0x642 PUSH2 0x733 JUMP JUMPDEST PUSH2 0x823 JUMP JUMPDEST POP JUMP JUMPDEST PUSH0 PUSH2 0x655 DUP4 DUP4 PUSH2 0x37A JUMP JUMPDEST PUSH2 0x729 JUMPI PUSH1 0x1 PUSH0 DUP1 DUP6 DUP2 MSTORE PUSH1 0x20 ADD SWAP1 DUP2 MSTORE PUSH1 0x20 ADD PUSH0 KECCAK256 PUSH0 ADD PUSH0 DUP5 PUSH20 0xFFFFFFFFFFFFFFFFFFFFFFFFFFFFFFFFFFFFFFFF AND PUSH20 0xFFFFFFFFFFFFFFFFFFFFFFFFFFFFFFFFFFFFFFFF AND DUP2 MSTORE PUSH1 0x20 ADD SWAP1 DUP2 MSTORE PUSH1 0x20 ADD PUSH0 KECCAK256 PUSH0 PUSH2 0x100 EXP DUP2 SLOAD DUP2 PUSH1 0xFF MUL NOT AND SWAP1 DUP4 ISZERO ISZERO MUL OR SWAP1 SSTORE POP PUSH2 0x6C6 PUSH2 0x733 JUMP JUMPDEST PUSH20 0xFFFFFFFFFFFFFFFFFFFFFFFFFFFFFFFFFFFFFFFF AND DUP3 PUSH20 0xFFFFFFFFFFFFFFFFFFFFFFFFFFFFFFFFFFFFFFFF AND DUP5 PUSH32 0x2F8788117E7EFF1D82E926EC794901D17C78024A50270940304540A733656F0D PUSH1 0x40 MLOAD PUSH1 0x40 MLOAD DUP1 SWAP2 SUB SWAP1 LOG4 PUSH1 0x1 SWAP1 POP PUSH2 0x72D JUMP JUMPDEST PUSH0 SWAP1 POP JUMPDEST SWAP3 SWAP2 POP POP JUMP JUMPDEST PUSH0 CALLER SWAP1 POP SWAP1 JUMP JUMPDEST PUSH0 PUSH2 0x745 DUP4 DUP4 PUSH2 0x37A JUMP JUMPDEST ISZERO PUSH2 0x819 JUMPI PUSH0 DUP1 PUSH0 DUP6 DUP2 MSTORE PUSH1 0x20 ADD SWAP1 DUP2 MSTORE PUSH1 0x20 ADD PUSH0 KECCAK256 PUSH0 ADD PUSH0 DUP5 PUSH20 0xFFFFFFFFFFFFFFFFFFFFFFFFFFFFFFFFFFFFFFFF AND PUSH20 0xFFFFFFFFFFFFFFFFFFFFFFFFFFFFFFFFFFFFFFFF AND DUP2 MSTORE PUSH1 0x20 ADD SWAP1 DUP2 MSTORE PUSH1 0x20 ADD PUSH0 KECCAK256 PUSH0 PUSH2 0x100 EXP DUP2 SLOAD DUP2 PUSH1 0xFF MUL NOT AND SWAP1 DUP4 ISZERO ISZERO MUL OR SWAP1 SSTORE POP PUSH2 0x7B6 PUSH2 0x733 JUMP JUMPDEST PUSH20 0xFFFFFFFFFFFFFFFFFFFFFFFFFFFFFFFFFFFFFFFF AND DUP3 PUSH20 0xFFFFFFFFFFFFFFFFFFFFFFFFFFFFFFFFFFFFFFFF AND DUP5 PUSH32 0xF6391F5C32D9C69D2A47EA670B442974B53935D1EDC7FD64EB21E047A839171B PUSH1 0x40 MLOAD PUSH1 0x40 MLOAD DUP1 SWAP2 SUB SWAP1 LOG4 PUSH1 0x1 SWAP1 POP PUSH2 0x81D JUMP JUMPDEST PUSH0 SWAP1 POP JUMPDEST SWAP3 SWAP2 POP POP JUMP JUMPDEST PUSH2 0x82D DUP3 DUP3 PUSH2 0x37A JUMP JUMPDEST PUSH2 0x870 JUMPI DUP1 DUP3 PUSH1 0x40 MLOAD PUSH32 0xE2517D3F00000000000000000000000000000000000000000000000000000000 DUP2 MSTORE PUSH1 0x4 ADD PUSH2 0x867 SWAP3 SWAP2 SWAP1 PUSH2 0xF7E JUMP JUMPDEST PUSH1 0x40 MLOAD DUP1 SWAP2 SUB SWAP1 REVERT JUMPDEST POP POP JUMP JUMPDEST PUSH0 PUSH1 0x40 MLOAD SWAP1 POP SWAP1 JUMP JUMPDEST PUSH0 DUP1 REVERT JUMPDEST PUSH0 DUP1 REVERT JUMPDEST PUSH0 PUSH32 0xFFFFFFFF00000000000000000000000000000000000000000000000000000000 DUP3 AND SWAP1 POP SWAP2 SWAP1 POP JUMP JUMPDEST PUSH2 0x8B9 DUP2 PUSH2 0x885 JUMP JUMPDEST DUP2 EQ PUSH2 0x8C3 JUMPI PUSH0 DUP1 REVERT JUMPDEST POP JUMP JUMPDEST PUSH0 DUP2 CALLDATALOAD SWAP1 POP PUSH2 0x8D4 DUP2 PUSH2 0x8B0 JUMP JUMPDEST SWAP3 SWAP2 POP POP JUMP JUMPDEST PUSH0 PUSH1 0x20 DUP3 DUP5 SUB SLT ISZERO PUSH2 0x8EF JUMPI PUSH2 0x8EE PUSH2 0x87D JUMP JUMPDEST JUMPDEST PUSH0 PUSH2 0x8FC DUP5 DUP3 DUP6 ADD PUSH2 0x8C6 JUMP JUMPDEST SWAP2 POP POP SWAP3 SWAP2 POP POP JUMP JUMPDEST PUSH0 DUP2 ISZERO ISZERO SWAP1 POP SWAP2 SWAP1 POP JUMP JUMPDEST PUSH2 0x919 DUP2 PUSH2 0x905 JUMP JUMPDEST DUP3 MSTORE POP POP JUMP JUMPDEST PUSH0 PUSH1 0x20 DUP3 ADD SWAP1 POP PUSH2 0x932 PUSH0 DUP4 ADD DUP5 PUSH2 0x910 JUMP JUMPDEST SWAP3 SWAP2 POP POP JUMP JUMPDEST PUSH0 DUP2 SWAP1 POP SWAP2 SWAP1 POP JUMP JUMPDEST PUSH2 0x94A DUP2 PUSH2 0x938 JUMP JUMPDEST DUP2 EQ PUSH2 0x954 JUMPI PUSH0 DUP1 REVERT JUMPDEST POP JUMP JUMPDEST PUSH0 DUP2 CALLDATALOAD SWAP1 POP PUSH2 0x965 DUP2 PUSH2 0x941 JUMP JUMPDEST SWAP3 SWAP2 POP POP JUMP JUMPDEST PUSH0 PUSH1 0x20 DUP3 DUP5 SUB SLT ISZERO PUSH2 0x980 JUMPI PUSH2 0x97F PUSH2 0x87D JUMP JUMPDEST JUMPDEST PUSH0 PUSH2 0x98D DUP5 DUP3 DUP6 ADD PUSH2 0x957 JUMP JUMPDEST SWAP2 POP POP SWAP3 SWAP2 POP POP JUMP JUMPDEST PUSH2 0x99F DUP2 PUSH2 0x938 JUMP JUMPDEST DUP3 MSTORE POP POP JUMP JUMPDEST PUSH0 PUSH1 0x20 DUP3 ADD SWAP1 POP PUSH2 0x9B8 PUSH0 DUP4 ADD DUP5 PUSH2 0x996 JUMP JUMPDEST SWAP3 SWAP2 POP POP JUMP JUMPDEST PUSH0 PUSH20 0xFFFFFFFFFFFFFFFFFFFFFFFFFFFFFFFFFFFFFFFF DUP3 AND SWAP1 POP SWAP2 SWAP1 POP JUMP JUMPDEST PUSH0 PUSH2 0x9E7 DUP3 PUSH2 0x9BE JUMP JUMPDEST SWAP1 POP SWAP2 SWAP1 POP JUMP JUMPDEST PUSH2 0x9F7 DUP2 PUSH2 0x9DD JUMP JUMPDEST DUP2 EQ PUSH2 0xA01 JUMPI PUSH0 DUP1 REVERT JUMPDEST POP JUMP JUMPDEST PUSH0 DUP2 CALLDATALOAD SWAP1 POP PUSH2 0xA12 DUP2 PUSH2 0x9EE JUMP JUMPDEST SWAP3 SWAP2 POP POP JUMP JUMPDEST PUSH0 DUP1 PUSH1 0x40 DUP4 DUP6 SUB SLT ISZERO PUSH2 0xA2E JUMPI PUSH2 0xA2D PUSH2 0x87D JUMP JUMPDEST JUMPDEST PUSH0 PUSH2 0xA3B DUP6 DUP3 DUP7 ADD PUSH2 0x957 JUMP JUMPDEST SWAP3 POP POP PUSH1 0x20 PUSH2 0xA4C DUP6 DUP3 DUP7 ADD PUSH2 0xA04 JUMP JUMPDEST SWAP2 POP POP SWAP3 POP SWAP3 SWAP1 POP JUMP JUMPDEST PUSH0 DUP2 MLOAD SWAP1 POP SWAP2 SWAP1 POP JUMP JUMPDEST PUSH0 DUP3 DUP3 MSTORE PUSH1 0x20 DUP3 ADD SWAP1 POP SWAP3 SWAP2 POP POP JUMP JUMPDEST DUP3 DUP2 DUP4 MCOPY PUSH0 DUP4 DUP4 ADD MSTORE POP POP POP JUMP JUMPDEST PUSH0 PUSH1 0x1F NOT PUSH1 0x1F DUP4 ADD AND SWAP1 POP SWAP2 SWAP1 POP JUMP JUMPDEST PUSH0 PUSH2 0xA98 DUP3 PUSH2 0xA56 JUMP JUMPDEST PUSH2 0xAA2 DUP2 DUP6 PUSH2 0xA60 JUMP JUMPDEST SWAP4 POP PUSH2 0xAB2 DUP2 DUP6 PUSH1 0x20 DUP7 ADD PUSH2 0xA70 JUMP JUMPDEST PUSH2 0xABB DUP2 PUSH2 0xA7E JUMP JUMPDEST DUP5 ADD SWAP2 POP POP SWAP3 SWAP2 POP POP JUMP JUMPDEST PUSH0 PUSH1 0x20 DUP3 ADD SWAP1 POP DUP2 DUP2 SUB PUSH0 DUP4 ADD MSTORE PUSH2 0xADE DUP2 DUP5 PUSH2 0xA8E JUMP JUMPDEST SWAP1 POP SWAP3 SWAP2 POP POP JUMP JUMPDEST PUSH0 PUSH1 0x20 DUP3 DUP5 SUB SLT ISZERO PUSH2 0xAFB JUMPI PUSH2 0xAFA PUSH2 0x87D JUMP JUMPDEST JUMPDEST PUSH0 PUSH2 0xB08 DUP5 DUP3 DUP6 ADD PUSH2 0xA04 JUMP JUMPDEST SWAP2 POP POP SWAP3 SWAP2 POP POP JUMP JUMPDEST PUSH0 DUP1 REVERT JUMPDEST PUSH0 DUP1 REVERT JUMPDEST PUSH32 0x4E487B7100000000000000000000000000000000000000000000000000000000 PUSH0 MSTORE PUSH1 0x41 PUSH1 0x4 MSTORE PUSH1 0x24 PUSH0 REVERT JUMPDEST PUSH2 0xB4F DUP3 PUSH2 0xA7E JUMP JUMPDEST DUP2 ADD DUP2 DUP2 LT PUSH8 0xFFFFFFFFFFFFFFFF DUP3 GT OR ISZERO PUSH2 0xB6E JUMPI PUSH2 0xB6D PUSH2 0xB19 JUMP JUMPDEST JUMPDEST DUP1 PUSH1 0x40 MSTORE POP POP POP JUMP JUMPDEST PUSH0 PUSH2 0xB80 PUSH2 0x874 JUMP JUMPDEST SWAP1 POP PUSH2 0xB8C DUP3 DUP3 PUSH2 0xB46 JUMP JUMPDEST SWAP2 SWAP1 POP JUMP JUMPDEST PUSH0 PUSH8 0xFFFFFFFFFFFFFFFF DUP3 GT ISZERO PUSH2 0xBAB JUMPI PUSH2 0xBAA PUSH2 0xB19 JUMP JUMPDEST JUMPDEST PUSH2 0xBB4 DUP3 PUSH2 0xA7E JUMP JUMPDEST SWAP1 POP PUSH1 0x20 DUP2 ADD SWAP1 POP SWAP2 SWAP1 POP JUMP JUMPDEST DUP3 DUP2 DUP4 CALLDATACOPY PUSH0 DUP4 DUP4 ADD MSTORE POP POP POP JUMP JUMPDEST PUSH0 PUSH2 0xBE1 PUSH2 0xBDC DUP5 PUSH2 0xB91 JUMP JUMPDEST PUSH2 0xB77 JUMP JUMPDEST SWAP1 POP DUP3 DUP2 MSTORE PUSH1 0x20 DUP2 ADD DUP5 DUP5 DUP5 ADD GT ISZERO PUSH2 0xBFD JUMPI PUSH2 0xBFC PUSH2 0xB15 JUMP JUMPDEST JUMPDEST PUSH2 0xC08 DUP5 DUP3 DUP6 PUSH2 0xBC1 JUMP JUMPDEST POP SWAP4 SWAP3 POP POP POP JUMP JUMPDEST PUSH0 DUP3 PUSH1 0x1F DUP4 ADD SLT PUSH2 0xC24 JUMPI PUSH2 0xC23 PUSH2 0xB11 JUMP JUMPDEST JUMPDEST DUP2 CALLDATALOAD PUSH2 0xC34 DUP5 DUP3 PUSH1 0x20 DUP7 ADD PUSH2 0xBCF JUMP JUMPDEST SWAP2 POP POP SWAP3 SWAP2 POP POP JUMP JUMPDEST PUSH0 PUSH1 0x20 DUP3 DUP5 SUB SLT ISZERO PUSH2 0xC52 JUMPI PUSH2 0xC51 PUSH2 0x87D JUMP JUMPDEST JUMPDEST PUSH0 DUP3 ADD CALLDATALOAD PUSH8 0xFFFFFFFFFFFFFFFF DUP2 GT ISZERO PUSH2 0xC6F JUMPI PUSH2 0xC6E PUSH2 0x881 JUMP JUMPDEST JUMPDEST PUSH2 0xC7B DUP5 DUP3 DUP6 ADD PUSH2 0xC10 JUMP JUMPDEST SWAP2 POP POP SWAP3 SWAP2 POP POP JUMP JUMPDEST PUSH32 0x4E487B7100000000000000000000000000000000000000000000000000000000 PUSH0 MSTORE PUSH1 0x22 PUSH1 0x4 MSTORE PUSH1 0x24 PUSH0 REVERT JUMPDEST PUSH0 PUSH1 0x2 DUP3 DIV SWAP1 POP PUSH1 0x1 DUP3 AND DUP1 PUSH2 0xCC8 JUMPI PUSH1 0x7F DUP3 AND SWAP2 POP JUMPDEST PUSH1 0x20 DUP3 LT DUP2 SUB PUSH2 0xCDB JUMPI PUSH2 0xCDA PUSH2 0xC84 JUMP JUMPDEST JUMPDEST POP SWAP2 SWAP1 POP JUMP JUMPDEST PUSH0 DUP2 SWAP1 POP DUP2 PUSH0 MSTORE PUSH1 0x20 PUSH0 KECCAK256 SWAP1 POP SWAP2 SWAP1 POP JUMP JUMPDEST PUSH0 PUSH1 0x20 PUSH1 0x1F DUP4 ADD DIV SWAP1 POP SWAP2 SWAP1 POP JUMP JUMPDEST PUSH0 DUP3 DUP3 SHL SWAP1 POP SWAP3 SWAP2 POP POP JUMP JUMPDEST PUSH0 PUSH1 0x8 DUP4 MUL PUSH2 0xD3D PUSH32 0xFFFFFFFFFFFFFFFFFFFFFFFFFFFFFFFFFFFFFFFFFFFFFFFFFFFFFFFFFFFFFFFF DUP3 PUSH2 0xD02 JUMP JUMPDEST PUSH2 0xD47 DUP7 DUP4 PUSH2 0xD02 JUMP JUMPDEST SWAP6 POP DUP1 NOT DUP5 AND SWAP4 POP DUP1 DUP7 AND DUP5 OR SWAP3 POP POP POP SWAP4 SWAP3 POP POP POP JUMP JUMPDEST PUSH0 DUP2 SWAP1 POP SWAP2 SWAP1 POP JUMP JUMPDEST PUSH0 DUP2 SWAP1 POP SWAP2 SWAP1 POP JUMP JUMPDEST PUSH0 PUSH2 0xD8B PUSH2 0xD86 PUSH2 0xD81 DUP5 PUSH2 0xD5F JUMP JUMPDEST PUSH2 0xD68 JUMP JUMPDEST PUSH2 0xD5F JUMP JUMPDEST SWAP1 POP SWAP2 SWAP1 POP JUMP JUMPDEST PUSH0 DUP2 SWAP1 POP SWAP2 SWAP1 POP JUMP JUMPDEST PUSH2 0xDA4 DUP4 PUSH2 0xD71 JUMP JUMPDEST PUSH2 0xDB8 PUSH2 0xDB0 DUP3 PUSH2 0xD92 JUMP JUMPDEST DUP5 DUP5 SLOAD PUSH2 0xD0E JUMP JUMPDEST DUP3 SSTORE POP POP POP POP JUMP JUMPDEST PUSH0 SWAP1 JUMP JUMPDEST PUSH2 0xDCC PUSH2 0xDC0 JUMP JUMPDEST PUSH2 0xDD7 DUP2 DUP5 DUP5 PUSH2 0xD9B JUMP JUMPDEST POP POP POP JUMP JUMPDEST JUMPDEST DUP2 DUP2 LT ISZERO PUSH2 0xDFA JUMPI PUSH2 0xDEF PUSH0 DUP3 PUSH2 0xDC4 JUMP JUMPDEST PUSH1 0x1 DUP2 ADD SWAP1 POP PUSH2 0xDDD JUMP JUMPDEST POP POP JUMP JUMPDEST PUSH1 0x1F DUP3 GT ISZERO PUSH2 0xE3F JUMPI PUSH2 0xE10 DUP2 PUSH2 0xCE1 JUMP JUMPDEST PUSH2 0xE19 DUP5 PUSH2 0xCF3 JUMP JUMPDEST DUP2 ADD PUSH1 0x20 DUP6 LT ISZERO PUSH2 0xE28 JUMPI DUP2 SWAP1 POP JUMPDEST PUSH2 0xE3C PUSH2 0xE34 DUP6 PUSH2 0xCF3 JUMP JUMPDEST DUP4 ADD DUP3 PUSH2 0xDDC JUMP JUMPDEST POP POP JUMPDEST POP POP POP JUMP JUMPDEST PUSH0 DUP3 DUP3 SHR SWAP1 POP SWAP3 SWAP2 POP POP JUMP JUMPDEST PUSH0 PUSH2 0xE5F PUSH0 NOT DUP5 PUSH1 0x8 MUL PUSH2 0xE44 JUMP JUMPDEST NOT DUP1 DUP4 AND SWAP2 POP POP SWAP3 SWAP2 POP POP JUMP JUMPDEST PUSH0 PUSH2 0xE77 DUP4 DUP4 PUSH2 0xE50 JUMP JUMPDEST SWAP2 POP DUP3 PUSH1 0x2 MUL DUP3 OR SWAP1 POP SWAP3 SWAP2 POP POP JUMP JUMPDEST PUSH2 0xE90 DUP3 PUSH2 0xA56 JUMP JUMPDEST PUSH8 0xFFFFFFFFFFFFFFFF DUP2 GT ISZERO PUSH2 0xEA9 JUMPI PUSH2 0xEA8 PUSH2 0xB19 JUMP JUMPDEST JUMPDEST PUSH2 0xEB3 DUP3 SLOAD PUSH2 0xCB1 JUMP JUMPDEST PUSH2 0xEBE DUP3 DUP3 DUP6 PUSH2 0xDFE JUMP JUMPDEST PUSH0 PUSH1 0x20 SWAP1 POP PUSH1 0x1F DUP4 GT PUSH1 0x1 DUP2 EQ PUSH2 0xEEF JUMPI PUSH0 DUP5 ISZERO PUSH2 0xEDD JUMPI DUP3 DUP8 ADD MLOAD SWAP1 POP JUMPDEST PUSH2 0xEE7 DUP6 DUP3 PUSH2 0xE6C JUMP JUMPDEST DUP7 SSTORE POP PUSH2 0xF4E JUMP JUMPDEST PUSH1 0x1F NOT DUP5 AND PUSH2 0xEFD DUP7 PUSH2 0xCE1 JUMP JUMPDEST PUSH0 JUMPDEST DUP3 DUP2 LT ISZERO PUSH2 0xF24 JUMPI DUP5 DUP10 ADD MLOAD DUP3 SSTORE PUSH1 0x1 DUP3 ADD SWAP2 POP PUSH1 0x20 DUP6 ADD SWAP5 POP PUSH1 0x20 DUP2 ADD SWAP1 POP PUSH2 0xEFF JUMP JUMPDEST DUP7 DUP4 LT ISZERO PUSH2 0xF41 JUMPI DUP5 DUP10 ADD MLOAD PUSH2 0xF3D PUSH1 0x1F DUP10 AND DUP3 PUSH2 0xE50 JUMP JUMPDEST DUP4 SSTORE POP JUMPDEST PUSH1 0x1 PUSH1 0x2 DUP9 MUL ADD DUP9 SSTORE POP POP POP JUMPDEST POP POP POP POP POP POP JUMP JUMPDEST PUSH2 0xF5F DUP2 PUSH2 0x9DD JUMP JUMPDEST DUP3 MSTORE POP POP JUMP JUMPDEST PUSH0 PUSH1 0x20 DUP3 ADD SWAP1 POP PUSH2 0xF78 PUSH0 DUP4 ADD DUP5 PUSH2 0xF56 JUMP JUMPDEST SWAP3 SWAP2 POP POP JUMP JUMPDEST PUSH0 PUSH1 0x40 DUP3 ADD SWAP1 POP PUSH2 0xF91 PUSH0 DUP4 ADD DUP6 PUSH2 0xF56 JUMP JUMPDEST PUSH2 0xF9E PUSH1 0x20 DUP4 ADD DUP5 PUSH2 0x996 JUMP JUMPDEST SWAP4 SWAP3 POP POP POP JUMP INVALID LOG2 PUSH5 0x6970667358 0x22 SLT KECCAK256 PUSH17 0x6171495B1DE99758958C64AC70B027581D DUP6 MSTORE SGT 0xE0 STOP 0xE0 SWAP12 0xB9 SMOD SWAP12 EXP MULMOD SWAP5 0xE0 PUSH5 0x736F6C6343 STOP ADDMOD BYTE STOP CALLER "
				},
				"gasEstimates": {
					"creation": {
						"codeDepositCost": "811800",
						"executionCost": "infinite",
						"totalCost": "infinite"
					},
					"external": {
						"DEFAULT_ADMIN_ROLE()": "330",
						"INTERNAL_ROLE()": "347",
						"confidentialAction(string)": "infinite",
						"getRoleAdmin(bytes32)": "infinite",
						"grantInternalAccess(address)": "infinite",
						"grantRole(bytes32,address)": "infinite",
						"hasRole(bytes32,address)": "3211",
						"renounceRole(bytes32,address)": "infinite",
						"revokeInternalAccess(address)": "infinite",
						"revokeRole(bytes32,address)": "infinite",
						"supportsInterface(bytes4)": "718",
						"viewConfidentialData()": "infinite"
					}
				},
				"methodIdentifiers": {
					"DEFAULT_ADMIN_ROLE()": "a217fddf",
					"INTERNAL_ROLE()": "beff6824",
					"confidentialAction(string)": "f824e92e",
					"getRoleAdmin(bytes32)": "248a9ca3",
					"grantInternalAccess(address)": "ec14689c",
					"grantRole(bytes32,address)": "2f2ff15d",
					"hasRole(bytes32,address)": "91d14854",
					"renounceRole(bytes32,address)": "36568abe",
					"revokeInternalAccess(address)": "c2093b0b",
					"revokeRole(bytes32,address)": "d547741f",
					"supportsInterface(bytes4)": "01ffc9a7",
					"viewConfidentialData()": "9b08ae9c"
				}
			},
			"storageLayout": {
				"storage": [
					{
						"astId": 26,
						"contract": "I/Interrupt/Dynamic & Optimized Solidity Example (Defense Scenario)1.sol:IntranetSecureContract",
						"label": "_roles",
						"offset": 0,
						"slot": "0",
						"type": "t_mapping(t_bytes32,t_struct(RoleData)21_storage)"
					},
					{
						"astId": 456,
						"contract": "I/Interrupt/Dynamic & Optimized Solidity Example (Defense Scenario)1.sol:IntranetSecureContract",
						"label": "confidentialData",
						"offset": 0,
						"slot": "1",
						"type": "t_string_storage"
					}
				],
				"types": {
					"t_address": {
						"encoding": "inplace",
						"label": "address",
						"numberOfBytes": "20"
					},
					"t_bool": {
						"encoding": "inplace",
						"label": "bool",
						"numberOfBytes": "1"
					},
					"t_bytes32": {
						"encoding": "inplace",
						"label": "bytes32",
						"numberOfBytes": "32"
					},
					"t_mapping(t_address,t_bool)": {
						"encoding": "mapping",
						"key": "t_address",
						"label": "mapping(address => bool)",
						"numberOfBytes": "32",
						"value": "t_bool"
					},
					"t_mapping(t_bytes32,t_struct(RoleData)21_storage)": {
						"encoding": "mapping",
						"key": "t_bytes32",
						"label": "mapping(bytes32 => struct AccessControl.RoleData)",
						"numberOfBytes": "32",
						"value": "t_struct(RoleData)21_storage"
					},
					"t_string_storage": {
						"encoding": "bytes",
						"label": "string",
						"numberOfBytes": "32"
					},
					"t_struct(RoleData)21_storage": {
						"encoding": "inplace",
						"label": "struct AccessControl.RoleData",
						"members": [
							{
								"astId": 18,
								"contract": "I/Interrupt/Dynamic & Optimized Solidity Example (Defense Scenario)1.sol:IntranetSecureContract",
								"label": "hasRole",
								"offset": 0,
								"slot": "0",
								"type": "t_mapping(t_address,t_bool)"
							},
							{
								"astId": 20,
								"contract": "I/Interrupt/Dynamic & Optimized Solidity Example (Defense Scenario)1.sol:IntranetSecureContract",
								"label": "adminRole",
								"offset": 0,
								"slot": "1",
								"type": "t_bytes32"
							}
						],
						"numberOfBytes": "64"
					}
				}
			},
			"userdoc": {
				"kind": "user",
				"methods": {},
				"version": 1
			}
		}
	}
}