{
	"W/Zombies/ZombieTimeGate.sol": {
		"ZombieTimeGate": {
			"abi": [
				{
					"inputs": [
						{
							"internalType": "address",
							"name": "_target",
							"type": "address"
						},
						{
							"internalType": "bytes4",
							"name": "_selector",
							"type": "bytes4"
						},
						{
							"internalType": "uint256",
							"name": "start",
							"type": "uint256"
						},
						{
							"internalType": "uint256",
							"name": "end",
							"type": "uint256"
						}
					],
					"stateMutability": "nonpayable",
					"type": "constructor"
				},
				{
					"anonymous": false,
					"inputs": [
						{
							"indexed": true,
							"internalType": "address",
							"name": "target",
							"type": "address"
						},
						{
							"indexed": false,
							"internalType": "bytes4",
							"name": "selector",
							"type": "bytes4"
						},
						{
							"indexed": false,
							"internalType": "bool",
							"name": "success",
							"type": "bool"
						}
					],
					"name": "ZombieTriggered",
					"type": "event"
				},
				{
					"inputs": [],
					"name": "activationEnd",
					"outputs": [
						{
							"internalType": "uint256",
							"name": "",
							"type": "uint256"
						}
					],
					"stateMutability": "view",
					"type": "function"
				},
				{
					"inputs": [],
					"name": "activationStart",
					"outputs": [
						{
							"internalType": "uint256",
							"name": "",
							"type": "uint256"
						}
					],
					"stateMutability": "view",
					"type": "function"
				},
				{
					"inputs": [],
					"name": "selector",
					"outputs": [
						{
							"internalType": "bytes4",
							"name": "",
							"type": "bytes4"
						}
					],
					"stateMutability": "view",
					"type": "function"
				},
				{
					"inputs": [],
					"name": "target",
					"outputs": [
						{
							"internalType": "address",
							"name": "",
							"type": "address"
						}
					],
					"stateMutability": "view",
					"type": "function"
				},
				{
					"inputs": [],
					"name": "trigger",
					"outputs": [],
					"stateMutability": "nonpayable",
					"type": "function"
				}
			],
			"devdoc": {
				"kind": "dev",
				"methods": {},
				"version": 1
			},
			"evm": {
				"assembly": "    /* \"W/Zombies/ZombieTimeGate.sol\":58:853  contract ZombieTimeGate {... */\n  mstore(0x40, 0xc0)\n    /* \"W/Zombies/ZombieTimeGate.sol\":317:565  constructor(address _target, bytes4 _selector, uint256 start, uint256 end) {... */\n  callvalue\n  dup1\n  iszero\n  tag_1\n  jumpi\n  0x00\n  dup1\n  revert\ntag_1:\n  pop\n  mload(0x40)\n  sub(codesize, bytecodeSize)\n  dup1\n  bytecodeSize\n  dup4\n  codecopy\n  dup2\n  dup2\n  add\n  0x40\n  mstore\n  dup2\n  add\n  swap1\n  tag_2\n  swap2\n  swap1\n  tag_3\n  jump\t// in\ntag_2:\n    /* \"W/Zombies/ZombieTimeGate.sol\":418:421  end */\n  dup1\n    /* \"W/Zombies/ZombieTimeGate.sol\":410:415  start */\n  dup3\n    /* \"W/Zombies/ZombieTimeGate.sol\":410:421  start < end */\n  lt\n    /* \"W/Zombies/ZombieTimeGate.sol\":402:440  require(start < end, \"Invalid window\") */\n  tag_6\n  jumpi\n  mload(0x40)\n  0x08c379a000000000000000000000000000000000000000000000000000000000\n  dup2\n  mstore\n  0x04\n  add\n  tag_7\n  swap1\n  tag_8\n  jump\t// in\ntag_7:\n  mload(0x40)\n  dup1\n  swap2\n  sub\n  swap1\n  revert\ntag_6:\n    /* \"W/Zombies/ZombieTimeGate.sol\":468:473  start */\n  dup2\n    /* \"W/Zombies/ZombieTimeGate.sol\":450:473  activationStart = start */\n  0x80\n  dup2\n  dup2\n  mstore\n  pop\n  pop\n    /* \"W/Zombies/ZombieTimeGate.sol\":499:502  end */\n  dup1\n    /* \"W/Zombies/ZombieTimeGate.sol\":483:502  activationEnd = end */\n  0xa0\n  dup2\n  dup2\n  mstore\n  pop\n  pop\n    /* \"W/Zombies/ZombieTimeGate.sol\":521:528  _target */\n  dup4\n    /* \"W/Zombies/ZombieTimeGate.sol\":512:518  target */\n  0x00\n  dup1\n    /* \"W/Zombies/ZombieTimeGate.sol\":512:528  target = _target */\n  0x0100\n  exp\n  dup2\n  sload\n  dup2\n  0xffffffffffffffffffffffffffffffffffffffff\n  mul\n  not\n  and\n  swap1\n  dup4\n  0xffffffffffffffffffffffffffffffffffffffff\n  and\n  mul\n  or\n  swap1\n  sstore\n  pop\n    /* \"W/Zombies/ZombieTimeGate.sol\":549:558  _selector */\n  dup3\n    /* \"W/Zombies/ZombieTimeGate.sol\":538:546  selector */\n  0x00\n  0x14\n    /* \"W/Zombies/ZombieTimeGate.sol\":538:558  selector = _selector */\n  0x0100\n  exp\n  dup2\n  sload\n  dup2\n  0xffffffff\n  mul\n  not\n  and\n  swap1\n  dup4\n  0xe0\n  shr\n  mul\n  or\n  swap1\n  sstore\n  pop\n    /* \"W/Zombies/ZombieTimeGate.sol\":317:565  constructor(address _target, bytes4 _selector, uint256 start, uint256 end) {... */\n  pop\n  pop\n  pop\n  pop\n    /* \"W/Zombies/ZombieTimeGate.sol\":58:853  contract ZombieTimeGate {... */\n  jump(tag_9)\n    /* \"#utility.yul\":88:205   */\ntag_11:\n    /* \"#utility.yul\":197:198   */\n  0x00\n    /* \"#utility.yul\":194:195   */\n  dup1\n    /* \"#utility.yul\":187:199   */\n  revert\n    /* \"#utility.yul\":334:460   */\ntag_13:\n    /* \"#utility.yul\":371:378   */\n  0x00\n    /* \"#utility.yul\":411:453   */\n  0xffffffffffffffffffffffffffffffffffffffff\n    /* \"#utility.yul\":404:409   */\n  dup3\n    /* \"#utility.yul\":400:454   */\n  and\n    /* \"#utility.yul\":389:454   */\n  swap1\n  pop\n    /* \"#utility.yul\":334:460   */\n  swap2\n  swap1\n  pop\n  jump\t// out\n    /* \"#utility.yul\":466:562   */\ntag_14:\n    /* \"#utility.yul\":503:510   */\n  0x00\n    /* \"#utility.yul\":532:556   */\n  tag_32\n    /* \"#utility.yul\":550:555   */\n  dup3\n    /* \"#utility.yul\":532:556   */\n  tag_13\n  jump\t// in\ntag_32:\n    /* \"#utility.yul\":521:556   */\n  swap1\n  pop\n    /* \"#utility.yul\":466:562   */\n  swap2\n  swap1\n  pop\n  jump\t// out\n    /* \"#utility.yul\":568:690   */\ntag_15:\n    /* \"#utility.yul\":641:665   */\n  tag_34\n    /* \"#utility.yul\":659:664   */\n  dup2\n    /* \"#utility.yul\":641:665   */\n  tag_14\n  jump\t// in\ntag_34:\n    /* \"#utility.yul\":634:639   */\n  dup2\n    /* \"#utility.yul\":631:666   */\n  eq\n    /* \"#utility.yul\":621:684   */\n  tag_35\n  jumpi\n    /* \"#utility.yul\":680:681   */\n  0x00\n    /* \"#utility.yul\":677:678   */\n  dup1\n    /* \"#utility.yul\":670:682   */\n  revert\n    /* \"#utility.yul\":621:684   */\ntag_35:\n    /* \"#utility.yul\":568:690   */\n  pop\n  jump\t// out\n    /* \"#utility.yul\":696:839   */\ntag_16:\n    /* \"#utility.yul\":753:758   */\n  0x00\n    /* \"#utility.yul\":784:790   */\n  dup2\n    /* \"#utility.yul\":778:791   */\n  mload\n    /* \"#utility.yul\":769:791   */\n  swap1\n  pop\n    /* \"#utility.yul\":800:833   */\n  tag_37\n    /* \"#utility.yul\":827:832   */\n  dup2\n    /* \"#utility.yul\":800:833   */\n  tag_15\n  jump\t// in\ntag_37:\n    /* \"#utility.yul\":696:839   */\n  swap3\n  swap2\n  pop\n  pop\n  jump\t// out\n    /* \"#utility.yul\":845:994   */\ntag_17:\n    /* \"#utility.yul\":881:888   */\n  0x00\n    /* \"#utility.yul\":921:987   */\n  0xffffffff00000000000000000000000000000000000000000000000000000000\n    /* \"#utility.yul\":914:919   */\n  dup3\n    /* \"#utility.yul\":910:988   */\n  and\n    /* \"#utility.yul\":899:988   */\n  swap1\n  pop\n    /* \"#utility.yul\":845:994   */\n  swap2\n  swap1\n  pop\n  jump\t// out\n    /* \"#utility.yul\":1000:1120   */\ntag_18:\n    /* \"#utility.yul\":1072:1095   */\n  tag_40\n    /* \"#utility.yul\":1089:1094   */\n  dup2\n    /* \"#utility.yul\":1072:1095   */\n  tag_17\n  jump\t// in\ntag_40:\n    /* \"#utility.yul\":1065:1070   */\n  dup2\n    /* \"#utility.yul\":1062:1096   */\n  eq\n    /* \"#utility.yul\":1052:1114   */\n  tag_41\n  jumpi\n    /* \"#utility.yul\":1110:1111   */\n  0x00\n    /* \"#utility.yul\":1107:1108   */\n  dup1\n    /* \"#utility.yul\":1100:1112   */\n  revert\n    /* \"#utility.yul\":1052:1114   */\ntag_41:\n    /* \"#utility.yul\":1000:1120   */\n  pop\n  jump\t// out\n    /* \"#utility.yul\":1126:1267   */\ntag_19:\n    /* \"#utility.yul\":1182:1187   */\n  0x00\n    /* \"#utility.yul\":1213:1219   */\n  dup2\n    /* \"#utility.yul\":1207:1220   */\n  mload\n    /* \"#utility.yul\":1198:1220   */\n  swap1\n  pop\n    /* \"#utility.yul\":1229:1261   */\n  tag_43\n    /* \"#utility.yul\":1255:1260   */\n  dup2\n    /* \"#utility.yul\":1229:1261   */\n  tag_18\n  jump\t// in\ntag_43:\n    /* \"#utility.yul\":1126:1267   */\n  swap3\n  swap2\n  pop\n  pop\n  jump\t// out\n    /* \"#utility.yul\":1273:1350   */\ntag_20:\n    /* \"#utility.yul\":1310:1317   */\n  0x00\n    /* \"#utility.yul\":1339:1344   */\n  dup2\n    /* \"#utility.yul\":1328:1344   */\n  swap1\n  pop\n    /* \"#utility.yul\":1273:1350   */\n  swap2\n  swap1\n  pop\n  jump\t// out\n    /* \"#utility.yul\":1356:1478   */\ntag_21:\n    /* \"#utility.yul\":1429:1453   */\n  tag_46\n    /* \"#utility.yul\":1447:1452   */\n  dup2\n    /* \"#utility.yul\":1429:1453   */\n  tag_20\n  jump\t// in\ntag_46:\n    /* \"#utility.yul\":1422:1427   */\n  dup2\n    /* \"#utility.yul\":1419:1454   */\n  eq\n    /* \"#utility.yul\":1409:1472   */\n  tag_47\n  jumpi\n    /* \"#utility.yul\":1468:1469   */\n  0x00\n    /* \"#utility.yul\":1465:1466   */\n  dup1\n    /* \"#utility.yul\":1458:1470   */\n  revert\n    /* \"#utility.yul\":1409:1472   */\ntag_47:\n    /* \"#utility.yul\":1356:1478   */\n  pop\n  jump\t// out\n    /* \"#utility.yul\":1484:1627   */\ntag_22:\n    /* \"#utility.yul\":1541:1546   */\n  0x00\n    /* \"#utility.yul\":1572:1578   */\n  dup2\n    /* \"#utility.yul\":1566:1579   */\n  mload\n    /* \"#utility.yul\":1557:1579   */\n  swap1\n  pop\n    /* \"#utility.yul\":1588:1621   */\n  tag_49\n    /* \"#utility.yul\":1615:1620   */\n  dup2\n    /* \"#utility.yul\":1588:1621   */\n  tag_21\n  jump\t// in\ntag_49:\n    /* \"#utility.yul\":1484:1627   */\n  swap3\n  swap2\n  pop\n  pop\n  jump\t// out\n    /* \"#utility.yul\":1633:2451   */\ntag_3:\n    /* \"#utility.yul\":1729:1735   */\n  0x00\n    /* \"#utility.yul\":1737:1743   */\n  dup1\n    /* \"#utility.yul\":1745:1751   */\n  0x00\n    /* \"#utility.yul\":1753:1759   */\n  dup1\n    /* \"#utility.yul\":1802:1805   */\n  0x80\n    /* \"#utility.yul\":1790:1799   */\n  dup6\n    /* \"#utility.yul\":1781:1788   */\n  dup8\n    /* \"#utility.yul\":1777:1800   */\n  sub\n    /* \"#utility.yul\":1773:1806   */\n  slt\n    /* \"#utility.yul\":1770:1890   */\n  iszero\n  tag_51\n  jumpi\n    /* \"#utility.yul\":1809:1888   */\n  tag_52\n  tag_11\n  jump\t// in\ntag_52:\n    /* \"#utility.yul\":1770:1890   */\ntag_51:\n    /* \"#utility.yul\":1929:1930   */\n  0x00\n    /* \"#utility.yul\":1954:2018   */\n  tag_53\n    /* \"#utility.yul\":2010:2017   */\n  dup8\n    /* \"#utility.yul\":2001:2007   */\n  dup3\n    /* \"#utility.yul\":1990:1999   */\n  dup9\n    /* \"#utility.yul\":1986:2008   */\n  add\n    /* \"#utility.yul\":1954:2018   */\n  tag_16\n  jump\t// in\ntag_53:\n    /* \"#utility.yul\":1944:2018   */\n  swap5\n  pop\n    /* \"#utility.yul\":1900:2028   */\n  pop\n    /* \"#utility.yul\":2067:2069   */\n  0x20\n    /* \"#utility.yul\":2093:2156   */\n  tag_54\n    /* \"#utility.yul\":2148:2155   */\n  dup8\n    /* \"#utility.yul\":2139:2145   */\n  dup3\n    /* \"#utility.yul\":2128:2137   */\n  dup9\n    /* \"#utility.yul\":2124:2146   */\n  add\n    /* \"#utility.yul\":2093:2156   */\n  tag_19\n  jump\t// in\ntag_54:\n    /* \"#utility.yul\":2083:2156   */\n  swap4\n  pop\n    /* \"#utility.yul\":2038:2166   */\n  pop\n    /* \"#utility.yul\":2205:2207   */\n  0x40\n    /* \"#utility.yul\":2231:2295   */\n  tag_55\n    /* \"#utility.yul\":2287:2294   */\n  dup8\n    /* \"#utility.yul\":2278:2284   */\n  dup3\n    /* \"#utility.yul\":2267:2276   */\n  dup9\n    /* \"#utility.yul\":2263:2285   */\n  add\n    /* \"#utility.yul\":2231:2295   */\n  tag_22\n  jump\t// in\ntag_55:\n    /* \"#utility.yul\":2221:2295   */\n  swap3\n  pop\n    /* \"#utility.yul\":2176:2305   */\n  pop\n    /* \"#utility.yul\":2344:2346   */\n  0x60\n    /* \"#utility.yul\":2370:2434   */\n  tag_56\n    /* \"#utility.yul\":2426:2433   */\n  dup8\n    /* \"#utility.yul\":2417:2423   */\n  dup3\n    /* \"#utility.yul\":2406:2415   */\n  dup9\n    /* \"#utility.yul\":2402:2424   */\n  add\n    /* \"#utility.yul\":2370:2434   */\n  tag_22\n  jump\t// in\ntag_56:\n    /* \"#utility.yul\":2360:2434   */\n  swap2\n  pop\n    /* \"#utility.yul\":2315:2444   */\n  pop\n    /* \"#utility.yul\":1633:2451   */\n  swap3\n  swap6\n  swap2\n  swap5\n  pop\n  swap3\n  pop\n  jump\t// out\n    /* \"#utility.yul\":2457:2626   */\ntag_23:\n    /* \"#utility.yul\":2541:2552   */\n  0x00\n    /* \"#utility.yul\":2575:2581   */\n  dup3\n    /* \"#utility.yul\":2570:2573   */\n  dup3\n    /* \"#utility.yul\":2563:2582   */\n  mstore\n    /* \"#utility.yul\":2615:2619   */\n  0x20\n    /* \"#utility.yul\":2610:2613   */\n  dup3\n    /* \"#utility.yul\":2606:2620   */\n  add\n    /* \"#utility.yul\":2591:2620   */\n  swap1\n  pop\n    /* \"#utility.yul\":2457:2626   */\n  swap3\n  swap2\n  pop\n  pop\n  jump\t// out\n    /* \"#utility.yul\":2632:2796   */\ntag_24:\n    /* \"#utility.yul\":2772:2788   */\n  0x496e76616c69642077696e646f77000000000000000000000000000000000000\n    /* \"#utility.yul\":2768:2769   */\n  0x00\n    /* \"#utility.yul\":2760:2766   */\n  dup3\n    /* \"#utility.yul\":2756:2770   */\n  add\n    /* \"#utility.yul\":2749:2789   */\n  mstore\n    /* \"#utility.yul\":2632:2796   */\n  pop\n  jump\t// out\n    /* \"#utility.yul\":2802:3168   */\ntag_25:\n    /* \"#utility.yul\":2944:2947   */\n  0x00\n    /* \"#utility.yul\":2965:3032   */\n  tag_60\n    /* \"#utility.yul\":3029:3031   */\n  0x0e\n    /* \"#utility.yul\":3024:3027   */\n  dup4\n    /* \"#utility.yul\":2965:3032   */\n  tag_23\n  jump\t// in\ntag_60:\n    /* \"#utility.yul\":2958:3032   */\n  swap2\n  pop\n    /* \"#utility.yul\":3041:3134   */\n  tag_61\n    /* \"#utility.yul\":3130:3133   */\n  dup3\n    /* \"#utility.yul\":3041:3134   */\n  tag_24\n  jump\t// in\ntag_61:\n    /* \"#utility.yul\":3159:3161   */\n  0x20\n    /* \"#utility.yul\":3154:3157   */\n  dup3\n    /* \"#utility.yul\":3150:3162   */\n  add\n    /* \"#utility.yul\":3143:3162   */\n  swap1\n  pop\n    /* \"#utility.yul\":2802:3168   */\n  swap2\n  swap1\n  pop\n  jump\t// out\n    /* \"#utility.yul\":3174:3593   */\ntag_8:\n    /* \"#utility.yul\":3340:3344   */\n  0x00\n    /* \"#utility.yul\":3378:3380   */\n  0x20\n    /* \"#utility.yul\":3367:3376   */\n  dup3\n    /* \"#utility.yul\":3363:3381   */\n  add\n    /* \"#utility.yul\":3355:3381   */\n  swap1\n  pop\n    /* \"#utility.yul\":3427:3436   */\n  dup2\n    /* \"#utility.yul\":3421:3425   */\n  dup2\n    /* \"#utility.yul\":3417:3437   */\n  sub\n    /* \"#utility.yul\":3413:3414   */\n  0x00\n    /* \"#utility.yul\":3402:3411   */\n  dup4\n    /* \"#utility.yul\":3398:3415   */\n  add\n    /* \"#utility.yul\":3391:3438   */\n  mstore\n    /* \"#utility.yul\":3455:3586   */\n  tag_63\n    /* \"#utility.yul\":3581:3585   */\n  dup2\n    /* \"#utility.yul\":3455:3586   */\n  tag_25\n  jump\t// in\ntag_63:\n    /* \"#utility.yul\":3447:3586   */\n  swap1\n  pop\n    /* \"#utility.yul\":3174:3593   */\n  swap2\n  swap1\n  pop\n  jump\t// out\n    /* \"W/Zombies/ZombieTimeGate.sol\":58:853  contract ZombieTimeGate {... */\ntag_9:\n  mload(0x80)\n  mload(0xa0)\n  codecopy(0x00, dataOffset(sub_0), dataSize(sub_0))\n  0x00\n  assignImmutable(\"0xceebf77a833b30520287ddd9478ff51abbdffa30aa90a8d655dba0e8a79ce0c1\")\n  0x00\n  assignImmutable(\"0x2a80e1ef1d7842f27f2e6be0972bb708b9a135c38860dbe73c27c3486c34f4de\")\n  return(0x00, dataSize(sub_0))\nstop\n\nsub_0: assembly {\n        /* \"W/Zombies/ZombieTimeGate.sol\":58:853  contract ZombieTimeGate {... */\n      mstore(0x40, 0x80)\n      callvalue\n      dup1\n      iszero\n      tag_1\n      jumpi\n      0x00\n      dup1\n      revert\n    tag_1:\n      pop\n      jumpi(tag_2, lt(calldatasize, 0x04))\n      shr(0xe0, calldataload(0x00))\n      dup1\n      0x7fec8d38\n      eq\n      tag_3\n      jumpi\n      dup1\n      0x89ea2b61\n      eq\n      tag_4\n      jumpi\n      dup1\n      0xba7774cb\n      eq\n      tag_5\n      jumpi\n      dup1\n      0xd4b83992\n      eq\n      tag_6\n      jumpi\n      dup1\n      0xea3d508a\n      eq\n      tag_7\n      jumpi\n    tag_2:\n      0x00\n      dup1\n      revert\n        /* \"W/Zombies/ZombieTimeGate.sol\":571:851  function trigger() external {... */\n    tag_3:\n      tag_8\n      tag_9\n      jump\t// in\n    tag_8:\n      stop\n        /* \"W/Zombies/ZombieTimeGate.sol\":88:128  uint256 public immutable activationStart */\n    tag_4:\n      tag_10\n      tag_11\n      jump\t// in\n    tag_10:\n      mload(0x40)\n      tag_12\n      swap2\n      swap1\n      tag_13\n      jump\t// in\n    tag_12:\n      mload(0x40)\n      dup1\n      swap2\n      sub\n      swap1\n      return\n        /* \"W/Zombies/ZombieTimeGate.sol\":134:172  uint256 public immutable activationEnd */\n    tag_5:\n      tag_14\n      tag_15\n      jump\t// in\n    tag_14:\n      mload(0x40)\n      tag_16\n      swap2\n      swap1\n      tag_13\n      jump\t// in\n    tag_16:\n      mload(0x40)\n      dup1\n      swap2\n      sub\n      swap1\n      return\n        /* \"W/Zombies/ZombieTimeGate.sol\":178:199  address public target */\n    tag_6:\n      tag_17\n      tag_18\n      jump\t// in\n    tag_17:\n      mload(0x40)\n      tag_19\n      swap2\n      swap1\n      tag_20\n      jump\t// in\n    tag_19:\n      mload(0x40)\n      dup1\n      swap2\n      sub\n      swap1\n      return\n        /* \"W/Zombies/ZombieTimeGate.sol\":205:227  bytes4 public selector */\n    tag_7:\n      tag_21\n      tag_22\n      jump\t// in\n    tag_21:\n      mload(0x40)\n      tag_23\n      swap2\n      swap1\n      tag_24\n      jump\t// in\n    tag_23:\n      mload(0x40)\n      dup1\n      swap2\n      sub\n      swap1\n      return\n        /* \"W/Zombies/ZombieTimeGate.sol\":571:851  function trigger() external {... */\n    tag_9:\n        /* \"W/Zombies/ZombieTimeGate.sol\":636:651  activationStart */\n      immutable(\"0x2a80e1ef1d7842f27f2e6be0972bb708b9a135c38860dbe73c27c3486c34f4de\")\n        /* \"W/Zombies/ZombieTimeGate.sol\":617:632  block.timestamp */\n      timestamp\n        /* \"W/Zombies/ZombieTimeGate.sol\":617:651  block.timestamp >= activationStart */\n      lt\n      iszero\n        /* \"W/Zombies/ZombieTimeGate.sol\":609:665  require(block.timestamp >= activationStart, \"Too early\") */\n      tag_26\n      jumpi\n      mload(0x40)\n      0x08c379a000000000000000000000000000000000000000000000000000000000\n      dup2\n      mstore\n      0x04\n      add\n      tag_27\n      swap1\n      tag_28\n      jump\t// in\n    tag_27:\n      mload(0x40)\n      dup1\n      swap2\n      sub\n      swap1\n      revert\n    tag_26:\n        /* \"W/Zombies/ZombieTimeGate.sol\":702:715  activationEnd */\n      immutable(\"0xceebf77a833b30520287ddd9478ff51abbdffa30aa90a8d655dba0e8a79ce0c1\")\n        /* \"W/Zombies/ZombieTimeGate.sol\":683:698  block.timestamp */\n      timestamp\n        /* \"W/Zombies/ZombieTimeGate.sol\":683:715  block.timestamp <= activationEnd */\n      gt\n      iszero\n        /* \"W/Zombies/ZombieTimeGate.sol\":675:728  require(block.timestamp <= activationEnd, \"Too late\") */\n      tag_29\n      jumpi\n      mload(0x40)\n      0x08c379a000000000000000000000000000000000000000000000000000000000\n      dup2\n      mstore\n      0x04\n      add\n      tag_30\n      swap1\n      tag_31\n      jump\t// in\n    tag_30:\n      mload(0x40)\n      dup1\n      swap2\n      sub\n      swap1\n      revert\n    tag_29:\n        /* \"W/Zombies/ZombieTimeGate.sol\":740:747  bool ok */\n      0x00\n        /* \"W/Zombies/ZombieTimeGate.sol\":753:759  target */\n      dup1\n      0x00\n      swap1\n      sload\n      swap1\n      0x0100\n      exp\n      swap1\n      div\n      0xffffffffffffffffffffffffffffffffffffffff\n      and\n        /* \"W/Zombies/ZombieTimeGate.sol\":753:764  target.call */\n      0xffffffffffffffffffffffffffffffffffffffff\n      and\n        /* \"W/Zombies/ZombieTimeGate.sol\":782:790  selector */\n      0x00\n      0x14\n      swap1\n      sload\n      swap1\n      0x0100\n      exp\n      swap1\n      div\n      0xe0\n      shl\n        /* \"W/Zombies/ZombieTimeGate.sol\":765:791  abi.encodePacked(selector) */\n      add(0x20, mload(0x40))\n      tag_32\n      swap2\n      swap1\n      tag_33\n      jump\t// in\n    tag_32:\n      mload(0x40)\n      0x20\n      dup2\n      dup4\n      sub\n      sub\n      dup2\n      mstore\n      swap1\n      0x40\n      mstore\n        /* \"W/Zombies/ZombieTimeGate.sol\":753:792  target.call(abi.encodePacked(selector)) */\n      mload(0x40)\n      tag_34\n      swap2\n      swap1\n      tag_35\n      jump\t// in\n    tag_34:\n      0x00\n      mload(0x40)\n      dup1\n      dup4\n      sub\n      dup2\n      0x00\n      dup7\n      gas\n      call\n      swap2\n      pop\n      pop\n      returndatasize\n      dup1\n      0x00\n      dup2\n      eq\n      tag_38\n      jumpi\n      mload(0x40)\n      swap2\n      pop\n      and(add(returndatasize, 0x3f), not(0x1f))\n      dup3\n      add\n      0x40\n      mstore\n      returndatasize\n      dup3\n      mstore\n      returndatasize\n      0x00\n      0x20\n      dup5\n      add\n      returndatacopy\n      jump(tag_37)\n    tag_38:\n      0x60\n      swap2\n      pop\n    tag_37:\n      pop\n        /* \"W/Zombies/ZombieTimeGate.sol\":739:792  (bool ok, ) = target.call(abi.encodePacked(selector)) */\n      pop\n      swap1\n      pop\n        /* \"W/Zombies/ZombieTimeGate.sol\":823:829  target */\n      0x00\n      dup1\n      sload\n      swap1\n      0x0100\n      exp\n      swap1\n      div\n      0xffffffffffffffffffffffffffffffffffffffff\n      and\n        /* \"W/Zombies/ZombieTimeGate.sol\":807:844  ZombieTriggered(target, selector, ok) */\n      0xffffffffffffffffffffffffffffffffffffffff\n      and\n      0xb7d43ce48753d07390058d7717111107573f9d8e53d4c6b5f5158044788d046c\n        /* \"W/Zombies/ZombieTimeGate.sol\":831:839  selector */\n      0x00\n      0x14\n      swap1\n      sload\n      swap1\n      0x0100\n      exp\n      swap1\n      div\n      0xe0\n      shl\n        /* \"W/Zombies/ZombieTimeGate.sol\":841:843  ok */\n      dup4\n        /* \"W/Zombies/ZombieTimeGate.sol\":807:844  ZombieTriggered(target, selector, ok) */\n      mload(0x40)\n      tag_39\n      swap3\n      swap2\n      swap1\n      tag_40\n      jump\t// in\n    tag_39:\n      mload(0x40)\n      dup1\n      swap2\n      sub\n      swap1\n      log2\n        /* \"W/Zombies/ZombieTimeGate.sol\":599:851  {... */\n      pop\n        /* \"W/Zombies/ZombieTimeGate.sol\":571:851  function trigger() external {... */\n      jump\t// out\n        /* \"W/Zombies/ZombieTimeGate.sol\":88:128  uint256 public immutable activationStart */\n    tag_11:\n      immutable(\"0x2a80e1ef1d7842f27f2e6be0972bb708b9a135c38860dbe73c27c3486c34f4de\")\n      dup2\n      jump\t// out\n        /* \"W/Zombies/ZombieTimeGate.sol\":134:172  uint256 public immutable activationEnd */\n    tag_15:\n      immutable(\"0xceebf77a833b30520287ddd9478ff51abbdffa30aa90a8d655dba0e8a79ce0c1\")\n      dup2\n      jump\t// out\n        /* \"W/Zombies/ZombieTimeGate.sol\":178:199  address public target */\n    tag_18:\n      0x00\n      dup1\n      sload\n      swap1\n      0x0100\n      exp\n      swap1\n      div\n      0xffffffffffffffffffffffffffffffffffffffff\n      and\n      dup2\n      jump\t// out\n        /* \"W/Zombies/ZombieTimeGate.sol\":205:227  bytes4 public selector */\n    tag_22:\n      0x00\n      0x14\n      swap1\n      sload\n      swap1\n      0x0100\n      exp\n      swap1\n      div\n      0xe0\n      shl\n      dup2\n      jump\t// out\n        /* \"#utility.yul\":7:84   */\n    tag_41:\n        /* \"#utility.yul\":44:51   */\n      0x00\n        /* \"#utility.yul\":73:78   */\n      dup2\n        /* \"#utility.yul\":62:78   */\n      swap1\n      pop\n        /* \"#utility.yul\":7:84   */\n      swap2\n      swap1\n      pop\n      jump\t// out\n        /* \"#utility.yul\":90:208   */\n    tag_42:\n        /* \"#utility.yul\":177:201   */\n      tag_64\n        /* \"#utility.yul\":195:200   */\n      dup2\n        /* \"#utility.yul\":177:201   */\n      tag_41\n      jump\t// in\n    tag_64:\n        /* \"#utility.yul\":172:175   */\n      dup3\n        /* \"#utility.yul\":165:202   */\n      mstore\n        /* \"#utility.yul\":90:208   */\n      pop\n      pop\n      jump\t// out\n        /* \"#utility.yul\":214:436   */\n    tag_13:\n        /* \"#utility.yul\":307:311   */\n      0x00\n        /* \"#utility.yul\":345:347   */\n      0x20\n        /* \"#utility.yul\":334:343   */\n      dup3\n        /* \"#utility.yul\":330:348   */\n      add\n        /* \"#utility.yul\":322:348   */\n      swap1\n      pop\n        /* \"#utility.yul\":358:429   */\n      tag_66\n        /* \"#utility.yul\":426:427   */\n      0x00\n        /* \"#utility.yul\":415:424   */\n      dup4\n        /* \"#utility.yul\":411:428   */\n      add\n        /* \"#utility.yul\":402:408   */\n      dup5\n        /* \"#utility.yul\":358:429   */\n      tag_42\n      jump\t// in\n    tag_66:\n        /* \"#utility.yul\":214:436   */\n      swap3\n      swap2\n      pop\n      pop\n      jump\t// out\n        /* \"#utility.yul\":442:568   */\n    tag_43:\n        /* \"#utility.yul\":479:486   */\n      0x00\n        /* \"#utility.yul\":519:561   */\n      0xffffffffffffffffffffffffffffffffffffffff\n        /* \"#utility.yul\":512:517   */\n      dup3\n        /* \"#utility.yul\":508:562   */\n      and\n        /* \"#utility.yul\":497:562   */\n      swap1\n      pop\n        /* \"#utility.yul\":442:568   */\n      swap2\n      swap1\n      pop\n      jump\t// out\n        /* \"#utility.yul\":574:670   */\n    tag_44:\n        /* \"#utility.yul\":611:618   */\n      0x00\n        /* \"#utility.yul\":640:664   */\n      tag_69\n        /* \"#utility.yul\":658:663   */\n      dup3\n        /* \"#utility.yul\":640:664   */\n      tag_43\n      jump\t// in\n    tag_69:\n        /* \"#utility.yul\":629:664   */\n      swap1\n      pop\n        /* \"#utility.yul\":574:670   */\n      swap2\n      swap1\n      pop\n      jump\t// out\n        /* \"#utility.yul\":676:794   */\n    tag_45:\n        /* \"#utility.yul\":763:787   */\n      tag_71\n        /* \"#utility.yul\":781:786   */\n      dup2\n        /* \"#utility.yul\":763:787   */\n      tag_44\n      jump\t// in\n    tag_71:\n        /* \"#utility.yul\":758:761   */\n      dup3\n        /* \"#utility.yul\":751:788   */\n      mstore\n        /* \"#utility.yul\":676:794   */\n      pop\n      pop\n      jump\t// out\n        /* \"#utility.yul\":800:1022   */\n    tag_20:\n        /* \"#utility.yul\":893:897   */\n      0x00\n        /* \"#utility.yul\":931:933   */\n      0x20\n        /* \"#utility.yul\":920:929   */\n      dup3\n        /* \"#utility.yul\":916:934   */\n      add\n        /* \"#utility.yul\":908:934   */\n      swap1\n      pop\n        /* \"#utility.yul\":944:1015   */\n      tag_73\n        /* \"#utility.yul\":1012:1013   */\n      0x00\n        /* \"#utility.yul\":1001:1010   */\n      dup4\n        /* \"#utility.yul\":997:1014   */\n      add\n        /* \"#utility.yul\":988:994   */\n      dup5\n        /* \"#utility.yul\":944:1015   */\n      tag_45\n      jump\t// in\n    tag_73:\n        /* \"#utility.yul\":800:1022   */\n      swap3\n      swap2\n      pop\n      pop\n      jump\t// out\n        /* \"#utility.yul\":1028:1177   */\n    tag_46:\n        /* \"#utility.yul\":1064:1071   */\n      0x00\n        /* \"#utility.yul\":1104:1170   */\n      0xffffffff00000000000000000000000000000000000000000000000000000000\n        /* \"#utility.yul\":1097:1102   */\n      dup3\n        /* \"#utility.yul\":1093:1171   */\n      and\n        /* \"#utility.yul\":1082:1171   */\n      swap1\n      pop\n        /* \"#utility.yul\":1028:1177   */\n      swap2\n      swap1\n      pop\n      jump\t// out\n        /* \"#utility.yul\":1183:1298   */\n    tag_47:\n        /* \"#utility.yul\":1268:1291   */\n      tag_76\n        /* \"#utility.yul\":1285:1290   */\n      dup2\n        /* \"#utility.yul\":1268:1291   */\n      tag_46\n      jump\t// in\n    tag_76:\n        /* \"#utility.yul\":1263:1266   */\n      dup3\n        /* \"#utility.yul\":1256:1292   */\n      mstore\n        /* \"#utility.yul\":1183:1298   */\n      pop\n      pop\n      jump\t// out\n        /* \"#utility.yul\":1304:1522   */\n    tag_24:\n        /* \"#utility.yul\":1395:1399   */\n      0x00\n        /* \"#utility.yul\":1433:1435   */\n      0x20\n        /* \"#utility.yul\":1422:1431   */\n      dup3\n        /* \"#utility.yul\":1418:1436   */\n      add\n        /* \"#utility.yul\":1410:1436   */\n      swap1\n      pop\n        /* \"#utility.yul\":1446:1515   */\n      tag_78\n        /* \"#utility.yul\":1512:1513   */\n      0x00\n        /* \"#utility.yul\":1501:1510   */\n      dup4\n        /* \"#utility.yul\":1497:1514   */\n      add\n        /* \"#utility.yul\":1488:1494   */\n      dup5\n        /* \"#utility.yul\":1446:1515   */\n      tag_47\n      jump\t// in\n    tag_78:\n        /* \"#utility.yul\":1304:1522   */\n      swap3\n      swap2\n      pop\n      pop\n      jump\t// out\n        /* \"#utility.yul\":1528:1697   */\n    tag_48:\n        /* \"#utility.yul\":1612:1623   */\n      0x00\n        /* \"#utility.yul\":1646:1652   */\n      dup3\n        /* \"#utility.yul\":1641:1644   */\n      dup3\n        /* \"#utility.yul\":1634:1653   */\n      mstore\n        /* \"#utility.yul\":1686:1690   */\n      0x20\n        /* \"#utility.yul\":1681:1684   */\n      dup3\n        /* \"#utility.yul\":1677:1691   */\n      add\n        /* \"#utility.yul\":1662:1691   */\n      swap1\n      pop\n        /* \"#utility.yul\":1528:1697   */\n      swap3\n      swap2\n      pop\n      pop\n      jump\t// out\n        /* \"#utility.yul\":1703:1862   */\n    tag_49:\n        /* \"#utility.yul\":1843:1854   */\n      0x546f6f206561726c790000000000000000000000000000000000000000000000\n        /* \"#utility.yul\":1839:1840   */\n      0x00\n        /* \"#utility.yul\":1831:1837   */\n      dup3\n        /* \"#utility.yul\":1827:1841   */\n      add\n        /* \"#utility.yul\":1820:1855   */\n      mstore\n        /* \"#utility.yul\":1703:1862   */\n      pop\n      jump\t// out\n        /* \"#utility.yul\":1868:2233   */\n    tag_50:\n        /* \"#utility.yul\":2010:2013   */\n      0x00\n        /* \"#utility.yul\":2031:2097   */\n      tag_82\n        /* \"#utility.yul\":2095:2096   */\n      0x09\n        /* \"#utility.yul\":2090:2093   */\n      dup4\n        /* \"#utility.yul\":2031:2097   */\n      tag_48\n      jump\t// in\n    tag_82:\n        /* \"#utility.yul\":2024:2097   */\n      swap2\n      pop\n        /* \"#utility.yul\":2106:2199   */\n      tag_83\n        /* \"#utility.yul\":2195:2198   */\n      dup3\n        /* \"#utility.yul\":2106:2199   */\n      tag_49\n      jump\t// in\n    tag_83:\n        /* \"#utility.yul\":2224:2226   */\n      0x20\n        /* \"#utility.yul\":2219:2222   */\n      dup3\n        /* \"#utility.yul\":2215:2227   */\n      add\n        /* \"#utility.yul\":2208:2227   */\n      swap1\n      pop\n        /* \"#utility.yul\":1868:2233   */\n      swap2\n      swap1\n      pop\n      jump\t// out\n        /* \"#utility.yul\":2239:2658   */\n    tag_28:\n        /* \"#utility.yul\":2405:2409   */\n      0x00\n        /* \"#utility.yul\":2443:2445   */\n      0x20\n        /* \"#utility.yul\":2432:2441   */\n      dup3\n        /* \"#utility.yul\":2428:2446   */\n      add\n        /* \"#utility.yul\":2420:2446   */\n      swap1\n      pop\n        /* \"#utility.yul\":2492:2501   */\n      dup2\n        /* \"#utility.yul\":2486:2490   */\n      dup2\n        /* \"#utility.yul\":2482:2502   */\n      sub\n        /* \"#utility.yul\":2478:2479   */\n      0x00\n        /* \"#utility.yul\":2467:2476   */\n      dup4\n        /* \"#utility.yul\":2463:2480   */\n      add\n        /* \"#utility.yul\":2456:2503   */\n      mstore\n        /* \"#utility.yul\":2520:2651   */\n      tag_85\n        /* \"#utility.yul\":2646:2650   */\n      dup2\n        /* \"#utility.yul\":2520:2651   */\n      tag_50\n      jump\t// in\n    tag_85:\n        /* \"#utility.yul\":2512:2651   */\n      swap1\n      pop\n        /* \"#utility.yul\":2239:2658   */\n      swap2\n      swap1\n      pop\n      jump\t// out\n        /* \"#utility.yul\":2664:2822   */\n    tag_51:\n        /* \"#utility.yul\":2804:2814   */\n      0x546f6f206c617465000000000000000000000000000000000000000000000000\n        /* \"#utility.yul\":2800:2801   */\n      0x00\n        /* \"#utility.yul\":2792:2798   */\n      dup3\n        /* \"#utility.yul\":2788:2802   */\n      add\n        /* \"#utility.yul\":2781:2815   */\n      mstore\n        /* \"#utility.yul\":2664:2822   */\n      pop\n      jump\t// out\n        /* \"#utility.yul\":2828:3193   */\n    tag_52:\n        /* \"#utility.yul\":2970:2973   */\n      0x00\n        /* \"#utility.yul\":2991:3057   */\n      tag_88\n        /* \"#utility.yul\":3055:3056   */\n      0x08\n        /* \"#utility.yul\":3050:3053   */\n      dup4\n        /* \"#utility.yul\":2991:3057   */\n      tag_48\n      jump\t// in\n    tag_88:\n        /* \"#utility.yul\":2984:3057   */\n      swap2\n      pop\n        /* \"#utility.yul\":3066:3159   */\n      tag_89\n        /* \"#utility.yul\":3155:3158   */\n      dup3\n        /* \"#utility.yul\":3066:3159   */\n      tag_51\n      jump\t// in\n    tag_89:\n        /* \"#utility.yul\":3184:3186   */\n      0x20\n        /* \"#utility.yul\":3179:3182   */\n      dup3\n        /* \"#utility.yul\":3175:3187   */\n      add\n        /* \"#utility.yul\":3168:3187   */\n      swap1\n      pop\n        /* \"#utility.yul\":2828:3193   */\n      swap2\n      swap1\n      pop\n      jump\t// out\n        /* \"#utility.yul\":3199:3618   */\n    tag_31:\n        /* \"#utility.yul\":3365:3369   */\n      0x00\n        /* \"#utility.yul\":3403:3405   */\n      0x20\n        /* \"#utility.yul\":3392:3401   */\n      dup3\n        /* \"#utility.yul\":3388:3406   */\n      add\n        /* \"#utility.yul\":3380:3406   */\n      swap1\n      pop\n        /* \"#utility.yul\":3452:3461   */\n      dup2\n        /* \"#utility.yul\":3446:3450   */\n      dup2\n        /* \"#utility.yul\":3442:3462   */\n      sub\n        /* \"#utility.yul\":3438:3439   */\n      0x00\n        /* \"#utility.yul\":3427:3436   */\n      dup4\n        /* \"#utility.yul\":3423:3440   */\n      add\n        /* \"#utility.yul\":3416:3463   */\n      mstore\n        /* \"#utility.yul\":3480:3611   */\n      tag_91\n        /* \"#utility.yul\":3606:3610   */\n      dup2\n        /* \"#utility.yul\":3480:3611   */\n      tag_52\n      jump\t// in\n    tag_91:\n        /* \"#utility.yul\":3472:3611   */\n      swap1\n      pop\n        /* \"#utility.yul\":3199:3618   */\n      swap2\n      swap1\n      pop\n      jump\t// out\n        /* \"#utility.yul\":3624:3702   */\n    tag_53:\n        /* \"#utility.yul\":3662:3669   */\n      0x00\n        /* \"#utility.yul\":3691:3696   */\n      dup2\n        /* \"#utility.yul\":3680:3696   */\n      swap1\n      pop\n        /* \"#utility.yul\":3624:3702   */\n      swap2\n      swap1\n      pop\n      jump\t// out\n        /* \"#utility.yul\":3708:3861   */\n    tag_54:\n        /* \"#utility.yul\":3811:3854   */\n      tag_94\n        /* \"#utility.yul\":3830:3853   */\n      tag_95\n        /* \"#utility.yul\":3847:3852   */\n      dup3\n        /* \"#utility.yul\":3830:3853   */\n      tag_46\n      jump\t// in\n    tag_95:\n        /* \"#utility.yul\":3811:3854   */\n      tag_53\n      jump\t// in\n    tag_94:\n        /* \"#utility.yul\":3806:3809   */\n      dup3\n        /* \"#utility.yul\":3799:3855   */\n      mstore\n        /* \"#utility.yul\":3708:3861   */\n      pop\n      pop\n      jump\t// out\n        /* \"#utility.yul\":3867:4118   */\n    tag_33:\n        /* \"#utility.yul\":3977:3980   */\n      0x00\n        /* \"#utility.yul\":3992:4065   */\n      tag_97\n        /* \"#utility.yul\":4061:4064   */\n      dup3\n        /* \"#utility.yul\":4052:4058   */\n      dup5\n        /* \"#utility.yul\":3992:4065   */\n      tag_54\n      jump\t// in\n    tag_97:\n        /* \"#utility.yul\":4090:4091   */\n      0x04\n        /* \"#utility.yul\":4085:4088   */\n      dup3\n        /* \"#utility.yul\":4081:4092   */\n      add\n        /* \"#utility.yul\":4074:4092   */\n      swap2\n      pop\n        /* \"#utility.yul\":4109:4112   */\n      dup2\n        /* \"#utility.yul\":4102:4112   */\n      swap1\n      pop\n        /* \"#utility.yul\":3867:4118   */\n      swap3\n      swap2\n      pop\n      pop\n      jump\t// out\n        /* \"#utility.yul\":4124:4222   */\n    tag_55:\n        /* \"#utility.yul\":4175:4181   */\n      0x00\n        /* \"#utility.yul\":4209:4214   */\n      dup2\n        /* \"#utility.yul\":4203:4215   */\n      mload\n        /* \"#utility.yul\":4193:4215   */\n      swap1\n      pop\n        /* \"#utility.yul\":4124:4222   */\n      swap2\n      swap1\n      pop\n      jump\t// out\n        /* \"#utility.yul\":4228:4375   */\n    tag_56:\n        /* \"#utility.yul\":4329:4340   */\n      0x00\n        /* \"#utility.yul\":4366:4369   */\n      dup2\n        /* \"#utility.yul\":4351:4369   */\n      swap1\n      pop\n        /* \"#utility.yul\":4228:4375   */\n      swap3\n      swap2\n      pop\n      pop\n      jump\t// out\n        /* \"#utility.yul\":4381:4520   */\n    tag_57:\n        /* \"#utility.yul\":4470:4476   */\n      dup3\n        /* \"#utility.yul\":4465:4468   */\n      dup2\n        /* \"#utility.yul\":4460:4463   */\n      dup4\n        /* \"#utility.yul\":4454:4477   */\n      mcopy\n        /* \"#utility.yul\":4511:4512   */\n      0x00\n        /* \"#utility.yul\":4502:4508   */\n      dup4\n        /* \"#utility.yul\":4497:4500   */\n      dup4\n        /* \"#utility.yul\":4493:4509   */\n      add\n        /* \"#utility.yul\":4486:4513   */\n      mstore\n        /* \"#utility.yul\":4381:4520   */\n      pop\n      pop\n      pop\n      jump\t// out\n        /* \"#utility.yul\":4526:4912   */\n    tag_58:\n        /* \"#utility.yul\":4630:4633   */\n      0x00\n        /* \"#utility.yul\":4658:4696   */\n      tag_102\n        /* \"#utility.yul\":4690:4695   */\n      dup3\n        /* \"#utility.yul\":4658:4696   */\n      tag_55\n      jump\t// in\n    tag_102:\n        /* \"#utility.yul\":4712:4800   */\n      tag_103\n        /* \"#utility.yul\":4793:4799   */\n      dup2\n        /* \"#utility.yul\":4788:4791   */\n      dup6\n        /* \"#utility.yul\":4712:4800   */\n      tag_56\n      jump\t// in\n    tag_103:\n        /* \"#utility.yul\":4705:4800   */\n      swap4\n      pop\n        /* \"#utility.yul\":4809:4874   */\n      tag_104\n        /* \"#utility.yul\":4867:4873   */\n      dup2\n        /* \"#utility.yul\":4862:4865   */\n      dup6\n        /* \"#utility.yul\":4855:4859   */\n      0x20\n        /* \"#utility.yul\":4848:4853   */\n      dup7\n        /* \"#utility.yul\":4844:4860   */\n      add\n        /* \"#utility.yul\":4809:4874   */\n      tag_57\n      jump\t// in\n    tag_104:\n        /* \"#utility.yul\":4899:4905   */\n      dup1\n        /* \"#utility.yul\":4894:4897   */\n      dup5\n        /* \"#utility.yul\":4890:4906   */\n      add\n        /* \"#utility.yul\":4883:4906   */\n      swap2\n      pop\n        /* \"#utility.yul\":4634:4912   */\n      pop\n        /* \"#utility.yul\":4526:4912   */\n      swap3\n      swap2\n      pop\n      pop\n      jump\t// out\n        /* \"#utility.yul\":4918:5189   */\n    tag_35:\n        /* \"#utility.yul\":5048:5051   */\n      0x00\n        /* \"#utility.yul\":5070:5163   */\n      tag_106\n        /* \"#utility.yul\":5159:5162   */\n      dup3\n        /* \"#utility.yul\":5150:5156   */\n      dup5\n        /* \"#utility.yul\":5070:5163   */\n      tag_58\n      jump\t// in\n    tag_106:\n        /* \"#utility.yul\":5063:5163   */\n      swap2\n      pop\n        /* \"#utility.yul\":5180:5183   */\n      dup2\n        /* \"#utility.yul\":5173:5183   */\n      swap1\n      pop\n        /* \"#utility.yul\":4918:5189   */\n      swap3\n      swap2\n      pop\n      pop\n      jump\t// out\n        /* \"#utility.yul\":5195:5285   */\n    tag_59:\n        /* \"#utility.yul\":5229:5236   */\n      0x00\n        /* \"#utility.yul\":5272:5277   */\n      dup2\n        /* \"#utility.yul\":5265:5278   */\n      iszero\n        /* \"#utility.yul\":5258:5279   */\n      iszero\n        /* \"#utility.yul\":5247:5279   */\n      swap1\n      pop\n        /* \"#utility.yul\":5195:5285   */\n      swap2\n      swap1\n      pop\n      jump\t// out\n        /* \"#utility.yul\":5291:5400   */\n    tag_60:\n        /* \"#utility.yul\":5372:5393   */\n      tag_109\n        /* \"#utility.yul\":5387:5392   */\n      dup2\n        /* \"#utility.yul\":5372:5393   */\n      tag_59\n      jump\t// in\n    tag_109:\n        /* \"#utility.yul\":5367:5370   */\n      dup3\n        /* \"#utility.yul\":5360:5394   */\n      mstore\n        /* \"#utility.yul\":5291:5400   */\n      pop\n      pop\n      jump\t// out\n        /* \"#utility.yul\":5406:5722   */\n    tag_40:\n        /* \"#utility.yul\":5519:5523   */\n      0x00\n        /* \"#utility.yul\":5557:5559   */\n      0x40\n        /* \"#utility.yul\":5546:5555   */\n      dup3\n        /* \"#utility.yul\":5542:5560   */\n      add\n        /* \"#utility.yul\":5534:5560   */\n      swap1\n      pop\n        /* \"#utility.yul\":5570:5639   */\n      tag_111\n        /* \"#utility.yul\":5636:5637   */\n      0x00\n        /* \"#utility.yul\":5625:5634   */\n      dup4\n        /* \"#utility.yul\":5621:5638   */\n      add\n        /* \"#utility.yul\":5612:5618   */\n      dup6\n        /* \"#utility.yul\":5570:5639   */\n      tag_47\n      jump\t// in\n    tag_111:\n        /* \"#utility.yul\":5649:5715   */\n      tag_112\n        /* \"#utility.yul\":5711:5713   */\n      0x20\n        /* \"#utility.yul\":5700:5709   */\n      dup4\n        /* \"#utility.yul\":5696:5714   */\n      add\n        /* \"#utility.yul\":5687:5693   */\n      dup5\n        /* \"#utility.yul\":5649:5715   */\n      tag_60\n      jump\t// in\n    tag_112:\n        /* \"#utility.yul\":5406:5722   */\n      swap4\n      swap3\n      pop\n      pop\n      pop\n      jump\t// out\n\n    auxdata: 0xa26469706673582212208b6131a45b68b0f2ebba8fde3347d4f223785f26a5e8721b96ff4ecb33c25bd564736f6c634300081a0033\n}\n",
				"bytecode": {
					"linkReferences": {},
					"object": "60c060405234801561000f575f80fd5b50604051610900380380610900833981810160405281019061003191906101ce565b808210610073576040517f08c379a000000000000000000000000000000000000000000000000000000000815260040161006a9061028c565b60405180910390fd5b81608081815250508060a08181525050835f806101000a81548173ffffffffffffffffffffffffffffffffffffffff021916908373ffffffffffffffffffffffffffffffffffffffff160217905550825f60146101000a81548163ffffffff021916908360e01c0217905550505050506102aa565b5f80fd5b5f73ffffffffffffffffffffffffffffffffffffffff82169050919050565b5f610115826100ec565b9050919050565b6101258161010b565b811461012f575f80fd5b50565b5f815190506101408161011c565b92915050565b5f7fffffffff0000000000000000000000000000000000000000000000000000000082169050919050565b61017a81610146565b8114610184575f80fd5b50565b5f8151905061019581610171565b92915050565b5f819050919050565b6101ad8161019b565b81146101b7575f80fd5b50565b5f815190506101c8816101a4565b92915050565b5f805f80608085870312156101e6576101e56100e8565b5b5f6101f387828801610132565b945050602061020487828801610187565b9350506040610215878288016101ba565b9250506060610226878288016101ba565b91505092959194509250565b5f82825260208201905092915050565b7f496e76616c69642077696e646f770000000000000000000000000000000000005f82015250565b5f610276600e83610232565b915061028182610242565b602082019050919050565b5f6020820190508181035f8301526102a38161026a565b9050919050565b60805160a0516106286102d85f395f818161014001526102fc01525f818160dd01526102d801526106285ff3fe608060405234801561000f575f80fd5b5060043610610055575f3560e01c80637fec8d381461005957806389ea2b6114610063578063ba7774cb14610081578063d4b839921461009f578063ea3d508a146100bd575b5f80fd5b6100616100db565b005b61006b6102d6565b604051610078919061036b565b60405180910390f35b6100896102fa565b604051610096919061036b565b60405180910390f35b6100a761031e565b6040516100b491906103c3565b60405180910390f35b6100c5610341565b6040516100d29190610416565b60405180910390f35b7f000000000000000000000000000000000000000000000000000000000000000042101561013e576040517f08c379a000000000000000000000000000000000000000000000000000000000815260040161013590610489565b60405180910390fd5b7f00000000000000000000000000000000000000000000000000000000000000004211156101a1576040517f08c379a0000000000000000000000000000000000000000000000000000000008152600401610198906104f1565b60405180910390fd5b5f805f9054906101000a900473ffffffffffffffffffffffffffffffffffffffff1673ffffffffffffffffffffffffffffffffffffffff165f60149054906101000a900460e01b6040516020016101f8919061052f565b604051602081830303815290604052604051610214919061059b565b5f604051808303815f865af19150503d805f811461024d576040519150601f19603f3d011682016040523d82523d5f602084013e610252565b606091505b505090505f8054906101000a900473ffffffffffffffffffffffffffffffffffffffff1673ffffffffffffffffffffffffffffffffffffffff167fb7d43ce48753d07390058d7717111107573f9d8e53d4c6b5f5158044788d046c5f60149054906101000a900460e01b836040516102cb9291906105cb565b60405180910390a250565b7f000000000000000000000000000000000000000000000000000000000000000081565b7f000000000000000000000000000000000000000000000000000000000000000081565b5f8054906101000a900473ffffffffffffffffffffffffffffffffffffffff1681565b5f60149054906101000a900460e01b81565b5f819050919050565b61036581610353565b82525050565b5f60208201905061037e5f83018461035c565b92915050565b5f73ffffffffffffffffffffffffffffffffffffffff82169050919050565b5f6103ad82610384565b9050919050565b6103bd816103a3565b82525050565b5f6020820190506103d65f8301846103b4565b92915050565b5f7fffffffff0000000000000000000000000000000000000000000000000000000082169050919050565b610410816103dc565b82525050565b5f6020820190506104295f830184610407565b92915050565b5f82825260208201905092915050565b7f546f6f206561726c7900000000000000000000000000000000000000000000005f82015250565b5f61047360098361042f565b915061047e8261043f565b602082019050919050565b5f6020820190508181035f8301526104a081610467565b9050919050565b7f546f6f206c6174650000000000000000000000000000000000000000000000005f82015250565b5f6104db60088361042f565b91506104e6826104a7565b602082019050919050565b5f6020820190508181035f830152610508816104cf565b9050919050565b5f819050919050565b610529610524826103dc565b61050f565b82525050565b5f61053a8284610518565b60048201915081905092915050565b5f81519050919050565b5f81905092915050565b8281835e5f83830152505050565b5f61057582610549565b61057f8185610553565b935061058f81856020860161055d565b80840191505092915050565b5f6105a6828461056b565b915081905092915050565b5f8115159050919050565b6105c5816105b1565b82525050565b5f6040820190506105de5f830185610407565b6105eb60208301846105bc565b939250505056fea26469706673582212208b6131a45b68b0f2ebba8fde3347d4f223785f26a5e8721b96ff4ecb33c25bd564736f6c634300081a0033",
					"opcodes": "PUSH1 0xC0 PUSH1 0x40 MSTORE CALLVALUE DUP1 ISZERO PUSH2 0xF JUMPI PUSH0 DUP1 REVERT JUMPDEST POP PUSH1 0x40 MLOAD PUSH2 0x900 CODESIZE SUB DUP1 PUSH2 0x900 DUP4 CODECOPY DUP2 DUP2 ADD PUSH1 0x40 MSTORE DUP2 ADD SWAP1 PUSH2 0x31 SWAP2 SWAP1 PUSH2 0x1CE JUMP JUMPDEST DUP1 DUP3 LT PUSH2 0x73 JUMPI PUSH1 0x40 MLOAD PUSH32 0x8C379A000000000000000000000000000000000000000000000000000000000 DUP2 MSTORE PUSH1 0x4 ADD PUSH2 0x6A SWAP1 PUSH2 0x28C JUMP JUMPDEST PUSH1 0x40 MLOAD DUP1 SWAP2 SUB SWAP1 REVERT JUMPDEST DUP2 PUSH1 0x80 DUP2 DUP2 MSTORE POP POP DUP1 PUSH1 0xA0 DUP2 DUP2 MSTORE POP POP DUP4 PUSH0 DUP1 PUSH2 0x100 EXP DUP2 SLOAD DUP2 PUSH20 0xFFFFFFFFFFFFFFFFFFFFFFFFFFFFFFFFFFFFFFFF MUL NOT AND SWAP1 DUP4 PUSH20 0xFFFFFFFFFFFFFFFFFFFFFFFFFFFFFFFFFFFFFFFF AND MUL OR SWAP1 SSTORE POP DUP3 PUSH0 PUSH1 0x14 PUSH2 0x100 EXP DUP2 SLOAD DUP2 PUSH4 0xFFFFFFFF MUL NOT AND SWAP1 DUP4 PUSH1 0xE0 SHR MUL OR SWAP1 SSTORE POP POP POP POP POP PUSH2 0x2AA JUMP JUMPDEST PUSH0 DUP1 REVERT JUMPDEST PUSH0 PUSH20 0xFFFFFFFFFFFFFFFFFFFFFFFFFFFFFFFFFFFFFFFF DUP3 AND SWAP1 POP SWAP2 SWAP1 POP JUMP JUMPDEST PUSH0 PUSH2 0x115 DUP3 PUSH2 0xEC JUMP JUMPDEST SWAP1 POP SWAP2 SWAP1 POP JUMP JUMPDEST PUSH2 0x125 DUP2 PUSH2 0x10B JUMP JUMPDEST DUP2 EQ PUSH2 0x12F JUMPI PUSH0 DUP1 REVERT JUMPDEST POP JUMP JUMPDEST PUSH0 DUP2 MLOAD SWAP1 POP PUSH2 0x140 DUP2 PUSH2 0x11C JUMP JUMPDEST SWAP3 SWAP2 POP POP JUMP JUMPDEST PUSH0 PUSH32 0xFFFFFFFF00000000000000000000000000000000000000000000000000000000 DUP3 AND SWAP1 POP SWAP2 SWAP1 POP JUMP JUMPDEST PUSH2 0x17A DUP2 PUSH2 0x146 JUMP JUMPDEST DUP2 EQ PUSH2 0x184 JUMPI PUSH0 DUP1 REVERT JUMPDEST POP JUMP JUMPDEST PUSH0 DUP2 MLOAD SWAP1 POP PUSH2 0x195 DUP2 PUSH2 0x171 JUMP JUMPDEST SWAP3 SWAP2 POP POP JUMP JUMPDEST PUSH0 DUP2 SWAP1 POP SWAP2 SWAP1 POP JUMP JUMPDEST PUSH2 0x1AD DUP2 PUSH2 0x19B JUMP JUMPDEST DUP2 EQ PUSH2 0x1B7 JUMPI PUSH0 DUP1 REVERT JUMPDEST POP JUMP JUMPDEST PUSH0 DUP2 MLOAD SWAP1 POP PUSH2 0x1C8 DUP2 PUSH2 0x1A4 JUMP JUMPDEST SWAP3 SWAP2 POP POP JUMP JUMPDEST PUSH0 DUP1 PUSH0 DUP1 PUSH1 0x80 DUP6 DUP8 SUB SLT ISZERO PUSH2 0x1E6 JUMPI PUSH2 0x1E5 PUSH2 0xE8 JUMP JUMPDEST JUMPDEST PUSH0 PUSH2 0x1F3 DUP8 DUP3 DUP9 ADD PUSH2 0x132 JUMP JUMPDEST SWAP5 POP POP PUSH1 0x20 PUSH2 0x204 DUP8 DUP3 DUP9 ADD PUSH2 0x187 JUMP JUMPDEST SWAP4 POP POP PUSH1 0x40 PUSH2 0x215 DUP8 DUP3 DUP9 ADD PUSH2 0x1BA JUMP JUMPDEST SWAP3 POP POP PUSH1 0x60 PUSH2 0x226 DUP8 DUP3 DUP9 ADD PUSH2 0x1BA JUMP JUMPDEST SWAP2 POP POP SWAP3 SWAP6 SWAP2 SWAP5 POP SWAP3 POP JUMP JUMPDEST PUSH0 DUP3 DUP3 MSTORE PUSH1 0x20 DUP3 ADD SWAP1 POP SWAP3 SWAP2 POP POP JUMP JUMPDEST PUSH32 0x496E76616C69642077696E646F77000000000000000000000000000000000000 PUSH0 DUP3 ADD MSTORE POP JUMP JUMPDEST PUSH0 PUSH2 0x276 PUSH1 0xE DUP4 PUSH2 0x232 JUMP JUMPDEST SWAP2 POP PUSH2 0x281 DUP3 PUSH2 0x242 JUMP JUMPDEST PUSH1 0x20 DUP3 ADD SWAP1 POP SWAP2 SWAP1 POP JUMP JUMPDEST PUSH0 PUSH1 0x20 DUP3 ADD SWAP1 POP DUP2 DUP2 SUB PUSH0 DUP4 ADD MSTORE PUSH2 0x2A3 DUP2 PUSH2 0x26A JUMP JUMPDEST SWAP1 POP SWAP2 SWAP1 POP JUMP JUMPDEST PUSH1 0x80 MLOAD PUSH1 0xA0 MLOAD PUSH2 0x628 PUSH2 0x2D8 PUSH0 CODECOPY PUSH0 DUP2 DUP2 PUSH2 0x140 ADD MSTORE PUSH2 0x2FC ADD MSTORE PUSH0 DUP2 DUP2 PUSH1 0xDD ADD MSTORE PUSH2 0x2D8 ADD MSTORE PUSH2 0x628 PUSH0 RETURN INVALID PUSH1 0x80 PUSH1 0x40 MSTORE CALLVALUE DUP1 ISZERO PUSH2 0xF JUMPI PUSH0 DUP1 REVERT JUMPDEST POP PUSH1 0x4 CALLDATASIZE LT PUSH2 0x55 JUMPI PUSH0 CALLDATALOAD PUSH1 0xE0 SHR DUP1 PUSH4 0x7FEC8D38 EQ PUSH2 0x59 JUMPI DUP1 PUSH4 0x89EA2B61 EQ PUSH2 0x63 JUMPI DUP1 PUSH4 0xBA7774CB EQ PUSH2 0x81 JUMPI DUP1 PUSH4 0xD4B83992 EQ PUSH2 0x9F JUMPI DUP1 PUSH4 0xEA3D508A EQ PUSH2 0xBD JUMPI JUMPDEST PUSH0 DUP1 REVERT JUMPDEST PUSH2 0x61 PUSH2 0xDB JUMP JUMPDEST STOP JUMPDEST PUSH2 0x6B PUSH2 0x2D6 JUMP JUMPDEST PUSH1 0x40 MLOAD PUSH2 0x78 SWAP2 SWAP1 PUSH2 0x36B JUMP JUMPDEST PUSH1 0x40 MLOAD DUP1 SWAP2 SUB SWAP1 RETURN JUMPDEST PUSH2 0x89 PUSH2 0x2FA JUMP JUMPDEST PUSH1 0x40 MLOAD PUSH2 0x96 SWAP2 SWAP1 PUSH2 0x36B JUMP JUMPDEST PUSH1 0x40 MLOAD DUP1 SWAP2 SUB SWAP1 RETURN JUMPDEST PUSH2 0xA7 PUSH2 0x31E JUMP JUMPDEST PUSH1 0x40 MLOAD PUSH2 0xB4 SWAP2 SWAP1 PUSH2 0x3C3 JUMP JUMPDEST PUSH1 0x40 MLOAD DUP1 SWAP2 SUB SWAP1 RETURN JUMPDEST PUSH2 0xC5 PUSH2 0x341 JUMP JUMPDEST PUSH1 0x40 MLOAD PUSH2 0xD2 SWAP2 SWAP1 PUSH2 0x416 JUMP JUMPDEST PUSH1 0x40 MLOAD DUP1 SWAP2 SUB SWAP1 RETURN JUMPDEST PUSH32 0x0 TIMESTAMP LT ISZERO PUSH2 0x13E JUMPI PUSH1 0x40 MLOAD PUSH32 0x8C379A000000000000000000000000000000000000000000000000000000000 DUP2 MSTORE PUSH1 0x4 ADD PUSH2 0x135 SWAP1 PUSH2 0x489 JUMP JUMPDEST PUSH1 0x40 MLOAD DUP1 SWAP2 SUB SWAP1 REVERT JUMPDEST PUSH32 0x0 TIMESTAMP GT ISZERO PUSH2 0x1A1 JUMPI PUSH1 0x40 MLOAD PUSH32 0x8C379A000000000000000000000000000000000000000000000000000000000 DUP2 MSTORE PUSH1 0x4 ADD PUSH2 0x198 SWAP1 PUSH2 0x4F1 JUMP JUMPDEST PUSH1 0x40 MLOAD DUP1 SWAP2 SUB SWAP1 REVERT JUMPDEST PUSH0 DUP1 PUSH0 SWAP1 SLOAD SWAP1 PUSH2 0x100 EXP SWAP1 DIV PUSH20 0xFFFFFFFFFFFFFFFFFFFFFFFFFFFFFFFFFFFFFFFF AND PUSH20 0xFFFFFFFFFFFFFFFFFFFFFFFFFFFFFFFFFFFFFFFF AND PUSH0 PUSH1 0x14 SWAP1 SLOAD SWAP1 PUSH2 0x100 EXP SWAP1 DIV PUSH1 0xE0 SHL PUSH1 0x40 MLOAD PUSH1 0x20 ADD PUSH2 0x1F8 SWAP2 SWAP1 PUSH2 0x52F JUMP JUMPDEST PUSH1 0x40 MLOAD PUSH1 0x20 DUP2 DUP4 SUB SUB DUP2 MSTORE SWAP1 PUSH1 0x40 MSTORE PUSH1 0x40 MLOAD PUSH2 0x214 SWAP2 SWAP1 PUSH2 0x59B JUMP JUMPDEST PUSH0 PUSH1 0x40 MLOAD DUP1 DUP4 SUB DUP2 PUSH0 DUP7 GAS CALL SWAP2 POP POP RETURNDATASIZE DUP1 PUSH0 DUP2 EQ PUSH2 0x24D JUMPI PUSH1 0x40 MLOAD SWAP2 POP PUSH1 0x1F NOT PUSH1 0x3F RETURNDATASIZE ADD AND DUP3 ADD PUSH1 0x40 MSTORE RETURNDATASIZE DUP3 MSTORE RETURNDATASIZE PUSH0 PUSH1 0x20 DUP5 ADD RETURNDATACOPY PUSH2 0x252 JUMP JUMPDEST PUSH1 0x60 SWAP2 POP JUMPDEST POP POP SWAP1 POP PUSH0 DUP1 SLOAD SWAP1 PUSH2 0x100 EXP SWAP1 DIV PUSH20 0xFFFFFFFFFFFFFFFFFFFFFFFFFFFFFFFFFFFFFFFF AND PUSH20 0xFFFFFFFFFFFFFFFFFFFFFFFFFFFFFFFFFFFFFFFF AND PUSH32 0xB7D43CE48753D07390058D7717111107573F9D8E53D4C6B5F5158044788D046C PUSH0 PUSH1 0x14 SWAP1 SLOAD SWAP1 PUSH2 0x100 EXP SWAP1 DIV PUSH1 0xE0 SHL DUP4 PUSH1 0x40 MLOAD PUSH2 0x2CB SWAP3 SWAP2 SWAP1 PUSH2 0x5CB JUMP JUMPDEST PUSH1 0x40 MLOAD DUP1 SWAP2 SUB SWAP1 LOG2 POP JUMP JUMPDEST PUSH32 0x0 DUP2 JUMP JUMPDEST PUSH32 0x0 DUP2 JUMP JUMPDEST PUSH0 DUP1 SLOAD SWAP1 PUSH2 0x100 EXP SWAP1 DIV PUSH20 0xFFFFFFFFFFFFFFFFFFFFFFFFFFFFFFFFFFFFFFFF AND DUP2 JUMP JUMPDEST PUSH0 PUSH1 0x14 SWAP1 SLOAD SWAP1 PUSH2 0x100 EXP SWAP1 DIV PUSH1 0xE0 SHL DUP2 JUMP JUMPDEST PUSH0 DUP2 SWAP1 POP SWAP2 SWAP1 POP JUMP JUMPDEST PUSH2 0x365 DUP2 PUSH2 0x353 JUMP JUMPDEST DUP3 MSTORE POP POP JUMP JUMPDEST PUSH0 PUSH1 0x20 DUP3 ADD SWAP1 POP PUSH2 0x37E PUSH0 DUP4 ADD DUP5 PUSH2 0x35C JUMP JUMPDEST SWAP3 SWAP2 POP POP JUMP JUMPDEST PUSH0 PUSH20 0xFFFFFFFFFFFFFFFFFFFFFFFFFFFFFFFFFFFFFFFF DUP3 AND SWAP1 POP SWAP2 SWAP1 POP JUMP JUMPDEST PUSH0 PUSH2 0x3AD DUP3 PUSH2 0x384 JUMP JUMPDEST SWAP1 POP SWAP2 SWAP1 POP JUMP JUMPDEST PUSH2 0x3BD DUP2 PUSH2 0x3A3 JUMP JUMPDEST DUP3 MSTORE POP POP JUMP JUMPDEST PUSH0 PUSH1 0x20 DUP3 ADD SWAP1 POP PUSH2 0x3D6 PUSH0 DUP4 ADD DUP5 PUSH2 0x3B4 JUMP JUMPDEST SWAP3 SWAP2 POP POP JUMP JUMPDEST PUSH0 PUSH32 0xFFFFFFFF00000000000000000000000000000000000000000000000000000000 DUP3 AND SWAP1 POP SWAP2 SWAP1 POP JUMP JUMPDEST PUSH2 0x410 DUP2 PUSH2 0x3DC JUMP JUMPDEST DUP3 MSTORE POP POP JUMP JUMPDEST PUSH0 PUSH1 0x20 DUP3 ADD SWAP1 POP PUSH2 0x429 PUSH0 DUP4 ADD DUP5 PUSH2 0x407 JUMP JUMPDEST SWAP3 SWAP2 POP POP JUMP JUMPDEST PUSH0 DUP3 DUP3 MSTORE PUSH1 0x20 DUP3 ADD SWAP1 POP SWAP3 SWAP2 POP POP JUMP JUMPDEST PUSH32 0x546F6F206561726C790000000000000000000000000000000000000000000000 PUSH0 DUP3 ADD MSTORE POP JUMP JUMPDEST PUSH0 PUSH2 0x473 PUSH1 0x9 DUP4 PUSH2 0x42F JUMP JUMPDEST SWAP2 POP PUSH2 0x47E DUP3 PUSH2 0x43F JUMP JUMPDEST PUSH1 0x20 DUP3 ADD SWAP1 POP SWAP2 SWAP1 POP JUMP JUMPDEST PUSH0 PUSH1 0x20 DUP3 ADD SWAP1 POP DUP2 DUP2 SUB PUSH0 DUP4 ADD MSTORE PUSH2 0x4A0 DUP2 PUSH2 0x467 JUMP JUMPDEST SWAP1 POP SWAP2 SWAP1 POP JUMP JUMPDEST PUSH32 0x546F6F206C617465000000000000000000000000000000000000000000000000 PUSH0 DUP3 ADD MSTORE POP JUMP JUMPDEST PUSH0 PUSH2 0x4DB PUSH1 0x8 DUP4 PUSH2 0x42F JUMP JUMPDEST SWAP2 POP PUSH2 0x4E6 DUP3 PUSH2 0x4A7 JUMP JUMPDEST PUSH1 0x20 DUP3 ADD SWAP1 POP SWAP2 SWAP1 POP JUMP JUMPDEST PUSH0 PUSH1 0x20 DUP3 ADD SWAP1 POP DUP2 DUP2 SUB PUSH0 DUP4 ADD MSTORE PUSH2 0x508 DUP2 PUSH2 0x4CF JUMP JUMPDEST SWAP1 POP SWAP2 SWAP1 POP JUMP JUMPDEST PUSH0 DUP2 SWAP1 POP SWAP2 SWAP1 POP JUMP JUMPDEST PUSH2 0x529 PUSH2 0x524 DUP3 PUSH2 0x3DC JUMP JUMPDEST PUSH2 0x50F JUMP JUMPDEST DUP3 MSTORE POP POP JUMP JUMPDEST PUSH0 PUSH2 0x53A DUP3 DUP5 PUSH2 0x518 JUMP JUMPDEST PUSH1 0x4 DUP3 ADD SWAP2 POP DUP2 SWAP1 POP SWAP3 SWAP2 POP POP JUMP JUMPDEST PUSH0 DUP2 MLOAD SWAP1 POP SWAP2 SWAP1 POP JUMP JUMPDEST PUSH0 DUP2 SWAP1 POP SWAP3 SWAP2 POP POP JUMP JUMPDEST DUP3 DUP2 DUP4 MCOPY PUSH0 DUP4 DUP4 ADD MSTORE POP POP POP JUMP JUMPDEST PUSH0 PUSH2 0x575 DUP3 PUSH2 0x549 JUMP JUMPDEST PUSH2 0x57F DUP2 DUP6 PUSH2 0x553 JUMP JUMPDEST SWAP4 POP PUSH2 0x58F DUP2 DUP6 PUSH1 0x20 DUP7 ADD PUSH2 0x55D JUMP JUMPDEST DUP1 DUP5 ADD SWAP2 POP POP SWAP3 SWAP2 POP POP JUMP JUMPDEST PUSH0 PUSH2 0x5A6 DUP3 DUP5 PUSH2 0x56B JUMP JUMPDEST SWAP2 POP DUP2 SWAP1 POP SWAP3 SWAP2 POP POP JUMP JUMPDEST PUSH0 DUP2 ISZERO ISZERO SWAP1 POP SWAP2 SWAP1 POP JUMP JUMPDEST PUSH2 0x5C5 DUP2 PUSH2 0x5B1 JUMP JUMPDEST DUP3 MSTORE POP POP JUMP JUMPDEST PUSH0 PUSH1 0x40 DUP3 ADD SWAP1 POP PUSH2 0x5DE PUSH0 DUP4 ADD DUP6 PUSH2 0x407 JUMP JUMPDEST PUSH2 0x5EB PUSH1 0x20 DUP4 ADD DUP5 PUSH2 0x5BC JUMP JUMPDEST SWAP4 SWAP3 POP POP POP JUMP INVALID LOG2 PUSH5 0x6970667358 0x22 SLT KECCAK256 DUP12 PUSH2 0x31A4 JUMPDEST PUSH9 0xB0F2EBBA8FDE3347D4 CALLCODE 0x23 PUSH25 0x5F26A5E8721B96FF4ECB33C25BD564736F6C634300081A0033 "
				},
				"gasEstimates": {
					"creation": {
						"codeDepositCost": "315200",
						"executionCost": "infinite",
						"totalCost": "infinite"
					},
					"external": {
						"activationEnd()": "infinite",
						"activationStart()": "infinite",
						"selector()": "2582",
						"target()": "2549",
						"trigger()": "infinite"
					}
				},
				"methodIdentifiers": {
					"activationEnd()": "ba7774cb",
					"activationStart()": "89ea2b61",
					"selector()": "ea3d508a",
					"target()": "d4b83992",
					"trigger()": "7fec8d38"
				}
			},
			"storageLayout": {
				"storage": [
					{
						"astId": 7,
						"contract": "W/Zombies/ZombieTimeGate.sol:ZombieTimeGate",
						"label": "target",
						"offset": 0,
						"slot": "0",
						"type": "t_address"
					},
					{
						"astId": 9,
						"contract": "W/Zombies/ZombieTimeGate.sol:ZombieTimeGate",
						"label": "selector",
						"offset": 20,
						"slot": "0",
						"type": "t_bytes4"
					}
				],
				"types": {
					"t_address": {
						"encoding": "inplace",
						"label": "address",
						"numberOfBytes": "20"
					},
					"t_bytes4": {
						"encoding": "inplace",
						"label": "bytes4",
						"numberOfBytes": "4"
					}
				}
			},
			"userdoc": {
				"kind": "user",
				"methods": {},
				"version": 1
			}
		}
	}
}