{
	"data": {
		"bytecode": {
			"linkReferences": {},
			"object": "6080604052348015600e575f80fd5b506104928061001c5f395ff3fe608060405234801561000f575f80fd5b5060043610610034575f3560e01c8063b4b8f59d14610038578063d7c5ec5d14610054575b5f80fd5b610052600480360381019061004d91906101ff565b610070565b005b61006e600480360381019061006991906101ff565b61011f565b005b5f60028383604051610083929190610286565b602060405180830381855afa15801561009e573d5f803e3d5ffd5b5050506040513d601f19601f820116820180604052508101906100c191906102d1565b90503373ffffffffffffffffffffffffffffffffffffffff167f70514a5cda18be910570ab63b37e600b833857df481823469ce30eda8ad588f784848460025f604051610112959493929190610410565b60405180910390a2505050565b5f8282604051610130929190610286565b604051809103902090503373ffffffffffffffffffffffffffffffffffffffff167f70514a5cda18be910570ab63b37e600b833857df481823469ce30eda8ad588f784848460035f604051610189959493929190610410565b60405180910390a2505050565b5f80fd5b5f80fd5b5f80fd5b5f80fd5b5f80fd5b5f8083601f8401126101bf576101be61019e565b5b8235905067ffffffffffffffff8111156101dc576101db6101a2565b5b6020830191508360018202830111156101f8576101f76101a6565b5b9250929050565b5f806020838503121561021557610214610196565b5b5f83013567ffffffffffffffff8111156102325761023161019a565b5b61023e858286016101aa565b92509250509250929050565b5f81905092915050565b828183375f83830152505050565b5f61026d838561024a565b935061027a838584610254565b82840190509392505050565b5f610292828486610262565b91508190509392505050565b5f819050919050565b6102b08161029e565b81146102ba575f80fd5b50565b5f815190506102cb816102a7565b92915050565b5f602082840312156102e6576102e5610196565b5b5f6102f3848285016102bd565b91505092915050565b5f82825260208201905092915050565b5f601f19601f8301169050919050565b5f61032783856102fc565b9350610334838584610254565b61033d8361030c565b840190509392505050565b6103518161029e565b82525050565b7f4e487b71000000000000000000000000000000000000000000000000000000005f52602160045260245ffd5b6004811061039557610394610357565b5b50565b5f8190506103a582610384565b919050565b5f6103b482610398565b9050919050565b6103c4816103aa565b82525050565b600381106103db576103da610357565b5b50565b5f8190506103eb826103ca565b919050565b5f6103fa826103de565b9050919050565b61040a816103f0565b82525050565b5f6080820190508181035f83015261042981878961031c565b90506104386020830186610348565b61044560408301856103bb565b6104526060830184610401565b969550505050505056fea264697066735822122041ad6a4e8d18caa1d4bf3bbf0341e84378885b88bd2b469d5e3269f527b096e964736f6c634300081a0033",
			"opcodes": "PUSH1 0x80 PUSH1 0x40 MSTORE CALLVALUE DUP1 ISZERO PUSH1 0xE JUMPI PUSH0 DUP1 REVERT JUMPDEST POP PUSH2 0x492 DUP1 PUSH2 0x1C PUSH0 CODECOPY PUSH0 RETURN INVALID PUSH1 0x80 PUSH1 0x40 MSTORE CALLVALUE DUP1 ISZERO PUSH2 0xF JUMPI PUSH0 DUP1 REVERT JUMPDEST POP PUSH1 0x4 CALLDATASIZE LT PUSH2 0x34 JUMPI PUSH0 CALLDATALOAD PUSH1 0xE0 SHR DUP1 PUSH4 0xB4B8F59D EQ PUSH2 0x38 JUMPI DUP1 PUSH4 0xD7C5EC5D EQ PUSH2 0x54 JUMPI JUMPDEST PUSH0 DUP1 REVERT JUMPDEST PUSH2 0x52 PUSH1 0x4 DUP1 CALLDATASIZE SUB DUP2 ADD SWAP1 PUSH2 0x4D SWAP2 SWAP1 PUSH2 0x1FF JUMP JUMPDEST PUSH2 0x70 JUMP JUMPDEST STOP JUMPDEST PUSH2 0x6E PUSH1 0x4 DUP1 CALLDATASIZE SUB DUP2 ADD SWAP1 PUSH2 0x69 SWAP2 SWAP1 PUSH2 0x1FF JUMP JUMPDEST PUSH2 0x11F JUMP JUMPDEST STOP JUMPDEST PUSH0 PUSH1 0x2 DUP4 DUP4 PUSH1 0x40 MLOAD PUSH2 0x83 SWAP3 SWAP2 SWAP1 PUSH2 0x286 JUMP JUMPDEST PUSH1 0x20 PUSH1 0x40 MLOAD DUP1 DUP4 SUB DUP2 DUP6 GAS STATICCALL ISZERO DUP1 ISZERO PUSH2 0x9E JUMPI RETURNDATASIZE PUSH0 DUP1 RETURNDATACOPY RETURNDATASIZE PUSH0 REVERT JUMPDEST POP POP POP PUSH1 0x40 MLOAD RETURNDATASIZE PUSH1 0x1F NOT PUSH1 0x1F DUP3 ADD AND DUP3 ADD DUP1 PUSH1 0x40 MSTORE POP DUP2 ADD SWAP1 PUSH2 0xC1 SWAP2 SWAP1 PUSH2 0x2D1 JUMP JUMPDEST SWAP1 POP CALLER PUSH20 0xFFFFFFFFFFFFFFFFFFFFFFFFFFFFFFFFFFFFFFFF AND PUSH32 0x70514A5CDA18BE910570AB63B37E600B833857DF481823469CE30EDA8AD588F7 DUP5 DUP5 DUP5 PUSH1 0x2 PUSH0 PUSH1 0x40 MLOAD PUSH2 0x112 SWAP6 SWAP5 SWAP4 SWAP3 SWAP2 SWAP1 PUSH2 0x410 JUMP JUMPDEST PUSH1 0x40 MLOAD DUP1 SWAP2 SUB SWAP1 LOG2 POP POP POP JUMP JUMPDEST PUSH0 DUP3 DUP3 PUSH1 0x40 MLOAD PUSH2 0x130 SWAP3 SWAP2 SWAP1 PUSH2 0x286 JUMP JUMPDEST PUSH1 0x40 MLOAD DUP1 SWAP2 SUB SWAP1 KECCAK256 SWAP1 POP CALLER PUSH20 0xFFFFFFFFFFFFFFFFFFFFFFFFFFFFFFFFFFFFFFFF AND PUSH32 0x70514A5CDA18BE910570AB63B37E600B833857DF481823469CE30EDA8AD588F7 DUP5 DUP5 DUP5 PUSH1 0x3 PUSH0 PUSH1 0x40 MLOAD PUSH2 0x189 SWAP6 SWAP5 SWAP4 SWAP3 SWAP2 SWAP1 PUSH2 0x410 JUMP JUMPDEST PUSH1 0x40 MLOAD DUP1 SWAP2 SUB SWAP1 LOG2 POP POP POP JUMP JUMPDEST PUSH0 DUP1 REVERT JUMPDEST PUSH0 DUP1 REVERT JUMPDEST PUSH0 DUP1 REVERT JUMPDEST PUSH0 DUP1 REVERT JUMPDEST PUSH0 DUP1 REVERT JUMPDEST PUSH0 DUP1 DUP4 PUSH1 0x1F DUP5 ADD SLT PUSH2 0x1BF JUMPI PUSH2 0x1BE PUSH2 0x19E JUMP JUMPDEST JUMPDEST DUP3 CALLDATALOAD SWAP1 POP PUSH8 0xFFFFFFFFFFFFFFFF DUP2 GT ISZERO PUSH2 0x1DC JUMPI PUSH2 0x1DB PUSH2 0x1A2 JUMP JUMPDEST JUMPDEST PUSH1 0x20 DUP4 ADD SWAP2 POP DUP4 PUSH1 0x1 DUP3 MUL DUP4 ADD GT ISZERO PUSH2 0x1F8 JUMPI PUSH2 0x1F7 PUSH2 0x1A6 JUMP JUMPDEST JUMPDEST SWAP3 POP SWAP3 SWAP1 POP JUMP JUMPDEST PUSH0 DUP1 PUSH1 0x20 DUP4 DUP6 SUB SLT ISZERO PUSH2 0x215 JUMPI PUSH2 0x214 PUSH2 0x196 JUMP JUMPDEST JUMPDEST PUSH0 DUP4 ADD CALLDATALOAD PUSH8 0xFFFFFFFFFFFFFFFF DUP2 GT ISZERO PUSH2 0x232 JUMPI PUSH2 0x231 PUSH2 0x19A JUMP JUMPDEST JUMPDEST PUSH2 0x23E DUP6 DUP3 DUP7 ADD PUSH2 0x1AA JUMP JUMPDEST SWAP3 POP SWAP3 POP POP SWAP3 POP SWAP3 SWAP1 POP JUMP JUMPDEST PUSH0 DUP2 SWAP1 POP SWAP3 SWAP2 POP POP JUMP JUMPDEST DUP3 DUP2 DUP4 CALLDATACOPY PUSH0 DUP4 DUP4 ADD MSTORE POP POP POP JUMP JUMPDEST PUSH0 PUSH2 0x26D DUP4 DUP6 PUSH2 0x24A JUMP JUMPDEST SWAP4 POP PUSH2 0x27A DUP4 DUP6 DUP5 PUSH2 0x254 JUMP JUMPDEST DUP3 DUP5 ADD SWAP1 POP SWAP4 SWAP3 POP POP POP JUMP JUMPDEST PUSH0 PUSH2 0x292 DUP3 DUP5 DUP7 PUSH2 0x262 JUMP JUMPDEST SWAP2 POP DUP2 SWAP1 POP SWAP4 SWAP3 POP POP POP JUMP JUMPDEST PUSH0 DUP2 SWAP1 POP SWAP2 SWAP1 POP JUMP JUMPDEST PUSH2 0x2B0 DUP2 PUSH2 0x29E JUMP JUMPDEST DUP2 EQ PUSH2 0x2BA JUMPI PUSH0 DUP1 REVERT JUMPDEST POP JUMP JUMPDEST PUSH0 DUP2 MLOAD SWAP1 POP PUSH2 0x2CB DUP2 PUSH2 0x2A7 JUMP JUMPDEST SWAP3 SWAP2 POP POP JUMP JUMPDEST PUSH0 PUSH1 0x20 DUP3 DUP5 SUB SLT ISZERO PUSH2 0x2E6 JUMPI PUSH2 0x2E5 PUSH2 0x196 JUMP JUMPDEST JUMPDEST PUSH0 PUSH2 0x2F3 DUP5 DUP3 DUP6 ADD PUSH2 0x2BD JUMP JUMPDEST SWAP2 POP POP SWAP3 SWAP2 POP POP JUMP JUMPDEST PUSH0 DUP3 DUP3 MSTORE PUSH1 0x20 DUP3 ADD SWAP1 POP SWAP3 SWAP2 POP POP JUMP JUMPDEST PUSH0 PUSH1 0x1F NOT PUSH1 0x1F DUP4 ADD AND SWAP1 POP SWAP2 SWAP1 POP JUMP JUMPDEST PUSH0 PUSH2 0x327 DUP4 DUP6 PUSH2 0x2FC JUMP JUMPDEST SWAP4 POP PUSH2 0x334 DUP4 DUP6 DUP5 PUSH2 0x254 JUMP JUMPDEST PUSH2 0x33D DUP4 PUSH2 0x30C JUMP JUMPDEST DUP5 ADD SWAP1 POP SWAP4 SWAP3 POP POP POP JUMP JUMPDEST PUSH2 0x351 DUP2 PUSH2 0x29E JUMP JUMPDEST DUP3 MSTORE POP POP JUMP JUMPDEST PUSH32 0x4E487B7100000000000000000000000000000000000000000000000000000000 PUSH0 MSTORE PUSH1 0x21 PUSH1 0x4 MSTORE PUSH1 0x24 PUSH0 REVERT JUMPDEST PUSH1 0x4 DUP2 LT PUSH2 0x395 JUMPI PUSH2 0x394 PUSH2 0x357 JUMP JUMPDEST JUMPDEST POP JUMP JUMPDEST PUSH0 DUP2 SWAP1 POP PUSH2 0x3A5 DUP3 PUSH2 0x384 JUMP JUMPDEST SWAP2 SWAP1 POP JUMP JUMPDEST PUSH0 PUSH2 0x3B4 DUP3 PUSH2 0x398 JUMP JUMPDEST SWAP1 POP SWAP2 SWAP1 POP JUMP JUMPDEST PUSH2 0x3C4 DUP2 PUSH2 0x3AA JUMP JUMPDEST DUP3 MSTORE POP POP JUMP JUMPDEST PUSH1 0x3 DUP2 LT PUSH2 0x3DB JUMPI PUSH2 0x3DA PUSH2 0x357 JUMP JUMPDEST JUMPDEST POP JUMP JUMPDEST PUSH0 DUP2 SWAP1 POP PUSH2 0x3EB DUP3 PUSH2 0x3CA JUMP JUMPDEST SWAP2 SWAP1 POP JUMP JUMPDEST PUSH0 PUSH2 0x3FA DUP3 PUSH2 0x3DE JUMP JUMPDEST SWAP1 POP SWAP2 SWAP1 POP JUMP JUMPDEST PUSH2 0x40A DUP2 PUSH2 0x3F0 JUMP JUMPDEST DUP3 MSTORE POP POP JUMP JUMPDEST PUSH0 PUSH1 0x80 DUP3 ADD SWAP1 POP DUP2 DUP2 SUB PUSH0 DUP4 ADD MSTORE PUSH2 0x429 DUP2 DUP8 DUP10 PUSH2 0x31C JUMP JUMPDEST SWAP1 POP PUSH2 0x438 PUSH1 0x20 DUP4 ADD DUP7 PUSH2 0x348 JUMP JUMPDEST PUSH2 0x445 PUSH1 0x40 DUP4 ADD DUP6 PUSH2 0x3BB JUMP JUMPDEST PUSH2 0x452 PUSH1 0x60 DUP4 ADD DUP5 PUSH2 0x401 JUMP JUMPDEST SWAP7 SWAP6 POP POP POP POP POP POP JUMP INVALID LOG2 PUSH5 0x6970667358 0x22 SLT KECCAK256 COINBASE 0xAD PUSH11 0x4E8D18CAA1D4BF3BBF0341 0xE8 NUMBER PUSH25 0x885B88BD2B469D5E3269F527B096E964736F6C634300081A00 CALLER "
		},
		"gasEstimates": {
			"creation": {
				"codeDepositCost": "234000",
				"executionCost": "273",
				"totalCost": "234273"
			},
			"external": {
				"hashKeccak(bytes)": "infinite",
				"hashSHA256(bytes)": "infinite"
			}
		},
		"methodIdentifiers": {
			"hashKeccak(bytes)": "d7c5ec5d",
			"hashSHA256(bytes)": "b4b8f59d"
		}
	},
	"abi": [
		{
			"anonymous": false,
			"inputs": [
				{
					"indexed": true,
					"internalType": "address",
					"name": "who",
					"type": "address"
				},
				{
					"indexed": false,
					"internalType": "bytes",
					"name": "data",
					"type": "bytes"
				},
				{
					"indexed": false,
					"internalType": "bytes32",
					"name": "digest",
					"type": "bytes32"
				},
				{
					"indexed": false,
					"internalType": "enum CryptoAlgoType",
					"name": "algo",
					"type": "uint8"
				},
				{
					"indexed": false,
					"internalType": "enum CryptoAlgoDefenseType",
					"name": "defense",
					"type": "uint8"
				}
			],
			"name": "Hashed",
			"type": "event"
		},
		{
			"inputs": [
				{
					"internalType": "bytes",
					"name": "data",
					"type": "bytes"
				}
			],
			"name": "hashKeccak",
			"outputs": [],
			"stateMutability": "nonpayable",
			"type": "function"
		},
		{
			"inputs": [
				{
					"internalType": "bytes",
					"name": "data",
					"type": "bytes"
				}
			],
			"name": "hashSHA256",
			"outputs": [],
			"stateMutability": "nonpayable",
			"type": "function"
		}
	]
}