{
	"G/gethostbyname/SpoofableNameRegistry.sol": {
		"SpoofableNameRegistry": {
			"abi": [
				{
					"inputs": [
						{
							"internalType": "string",
							"name": "",
							"type": "string"
						}
					],
					"name": "nameToAddr",
					"outputs": [
						{
							"internalType": "address",
							"name": "",
							"type": "address"
						}
					],
					"stateMutability": "view",
					"type": "function"
				},
				{
					"inputs": [
						{
							"internalType": "string",
							"name": "name",
							"type": "string"
						}
					],
					"name": "register",
					"outputs": [],
					"stateMutability": "nonpayable",
					"type": "function"
				},
				{
					"inputs": [
						{
							"internalType": "string",
							"name": "name",
							"type": "string"
						}
					],
					"name": "resolve",
					"outputs": [
						{
							"internalType": "address",
							"name": "",
							"type": "address"
						}
					],
					"stateMutability": "view",
					"type": "function"
				}
			],
			"devdoc": {
				"kind": "dev",
				"methods": {},
				"version": 1
			},
			"evm": {
				"assembly": "    /* \"G/gethostbyname/SpoofableNameRegistry.sol\":58:390  contract SpoofableNameRegistry {... */\n  mstore(0x40, 0x80)\n  callvalue\n  dup1\n  iszero\n  tag_1\n  jumpi\n  0x00\n  dup1\n  revert\ntag_1:\n  pop\n  dataSize(sub_0)\n  dup1\n  dataOffset(sub_0)\n  0x00\n  codecopy\n  0x00\n  return\nstop\n\nsub_0: assembly {\n        /* \"G/gethostbyname/SpoofableNameRegistry.sol\":58:390  contract SpoofableNameRegistry {... */\n      mstore(0x40, 0x80)\n      callvalue\n      dup1\n      iszero\n      tag_1\n      jumpi\n      0x00\n      dup1\n      revert\n    tag_1:\n      pop\n      jumpi(tag_2, lt(calldatasize, 0x04))\n      shr(0xe0, calldataload(0x00))\n      dup1\n      0x461a4478\n      eq\n      tag_3\n      jumpi\n      dup1\n      0xda370ff3\n      eq\n      tag_4\n      jumpi\n      dup1\n      0xf2c298be\n      eq\n      tag_5\n      jumpi\n    tag_2:\n      0x00\n      dup1\n      revert\n        /* \"G/gethostbyname/SpoofableNameRegistry.sol\":277:388  function resolve(string calldata name) external view returns (address) {... */\n    tag_3:\n      tag_6\n      0x04\n      dup1\n      calldatasize\n      sub\n      dup2\n      add\n      swap1\n      tag_7\n      swap2\n      swap1\n      tag_8\n      jump\t// in\n    tag_7:\n      tag_9\n      jump\t// in\n    tag_6:\n      mload(0x40)\n      tag_10\n      swap2\n      swap1\n      tag_11\n      jump\t// in\n    tag_10:\n      mload(0x40)\n      dup1\n      swap2\n      sub\n      swap1\n      return\n        /* \"G/gethostbyname/SpoofableNameRegistry.sol\":95:139  mapping(string => address) public nameToAddr */\n    tag_4:\n      tag_12\n      0x04\n      dup1\n      calldatasize\n      sub\n      dup2\n      add\n      swap1\n      tag_13\n      swap2\n      swap1\n      tag_14\n      jump\t// in\n    tag_13:\n      tag_15\n      jump\t// in\n    tag_12:\n      mload(0x40)\n      tag_16\n      swap2\n      swap1\n      tag_11\n      jump\t// in\n    tag_16:\n      mload(0x40)\n      dup1\n      swap2\n      sub\n      swap1\n      return\n        /* \"G/gethostbyname/SpoofableNameRegistry.sol\":146:271  function register(string calldata name) external {... */\n    tag_5:\n      tag_17\n      0x04\n      dup1\n      calldatasize\n      sub\n      dup2\n      add\n      swap1\n      tag_18\n      swap2\n      swap1\n      tag_8\n      jump\t// in\n    tag_18:\n      tag_19\n      jump\t// in\n    tag_17:\n      stop\n        /* \"G/gethostbyname/SpoofableNameRegistry.sol\":277:388  function resolve(string calldata name) external view returns (address) {... */\n    tag_9:\n        /* \"G/gethostbyname/SpoofableNameRegistry.sol\":339:346  address */\n      0x00\n        /* \"G/gethostbyname/SpoofableNameRegistry.sol\":365:375  nameToAddr */\n      dup1\n        /* \"G/gethostbyname/SpoofableNameRegistry.sol\":376:380  name */\n      dup4\n      dup4\n        /* \"G/gethostbyname/SpoofableNameRegistry.sol\":365:381  nameToAddr[name] */\n      mload(0x40)\n      tag_21\n      swap3\n      swap2\n      swap1\n      tag_22\n      jump\t// in\n    tag_21:\n      swap1\n      dup2\n      mstore\n      0x20\n      add\n      mload(0x40)\n      dup1\n      swap2\n      sub\n      swap1\n      keccak256\n      0x00\n      swap1\n      sload\n      swap1\n      0x0100\n      exp\n      swap1\n      div\n      0xffffffffffffffffffffffffffffffffffffffff\n      and\n        /* \"G/gethostbyname/SpoofableNameRegistry.sol\":358:381  return nameToAddr[name] */\n      swap1\n      pop\n        /* \"G/gethostbyname/SpoofableNameRegistry.sol\":277:388  function resolve(string calldata name) external view returns (address) {... */\n      swap3\n      swap2\n      pop\n      pop\n      jump\t// out\n        /* \"G/gethostbyname/SpoofableNameRegistry.sol\":95:139  mapping(string => address) public nameToAddr */\n    tag_15:\n      0x00\n      dup2\n      dup1\n      mload\n      0x20\n      dup2\n      add\n      dup3\n      add\n      dup1\n      mload\n      dup5\n      dup3\n      mstore\n      0x20\n      dup4\n      add\n      0x20\n      dup6\n      add\n      keccak256\n      dup2\n      dup4\n      mstore\n      dup1\n      swap6\n      pop\n      pop\n      pop\n      pop\n      pop\n      pop\n      0x00\n      swap2\n      pop\n      sload\n      swap1\n      0x0100\n      exp\n      swap1\n      div\n      0xffffffffffffffffffffffffffffffffffffffff\n      and\n      dup2\n      jump\t// out\n        /* \"G/gethostbyname/SpoofableNameRegistry.sol\":146:271  function register(string calldata name) external {... */\n    tag_19:\n        /* \"G/gethostbyname/SpoofableNameRegistry.sol\":224:234  msg.sender */\n      caller\n        /* \"G/gethostbyname/SpoofableNameRegistry.sol\":205:215  nameToAddr */\n      0x00\n        /* \"G/gethostbyname/SpoofableNameRegistry.sol\":216:220  name */\n      dup4\n      dup4\n        /* \"G/gethostbyname/SpoofableNameRegistry.sol\":205:221  nameToAddr[name] */\n      mload(0x40)\n      tag_24\n      swap3\n      swap2\n      swap1\n      tag_22\n      jump\t// in\n    tag_24:\n      swap1\n      dup2\n      mstore\n      0x20\n      add\n      mload(0x40)\n      dup1\n      swap2\n      sub\n      swap1\n      keccak256\n      0x00\n        /* \"G/gethostbyname/SpoofableNameRegistry.sol\":205:234  nameToAddr[name] = msg.sender */\n      0x0100\n      exp\n      dup2\n      sload\n      dup2\n      0xffffffffffffffffffffffffffffffffffffffff\n      mul\n      not\n      and\n      swap1\n      dup4\n      0xffffffffffffffffffffffffffffffffffffffff\n      and\n      mul\n      or\n      swap1\n      sstore\n      pop\n        /* \"G/gethostbyname/SpoofableNameRegistry.sol\":146:271  function register(string calldata name) external {... */\n      pop\n      pop\n      jump\t// out\n        /* \"#utility.yul\":7:82   */\n    tag_25:\n        /* \"#utility.yul\":40:46   */\n      0x00\n        /* \"#utility.yul\":73:75   */\n      0x40\n        /* \"#utility.yul\":67:76   */\n      mload\n        /* \"#utility.yul\":57:76   */\n      swap1\n      pop\n        /* \"#utility.yul\":7:82   */\n      swap1\n      jump\t// out\n        /* \"#utility.yul\":88:205   */\n    tag_26:\n        /* \"#utility.yul\":197:198   */\n      0x00\n        /* \"#utility.yul\":194:195   */\n      dup1\n        /* \"#utility.yul\":187:199   */\n      revert\n        /* \"#utility.yul\":211:328   */\n    tag_27:\n        /* \"#utility.yul\":320:321   */\n      0x00\n        /* \"#utility.yul\":317:318   */\n      dup1\n        /* \"#utility.yul\":310:322   */\n      revert\n        /* \"#utility.yul\":334:451   */\n    tag_28:\n        /* \"#utility.yul\":443:444   */\n      0x00\n        /* \"#utility.yul\":440:441   */\n      dup1\n        /* \"#utility.yul\":433:445   */\n      revert\n        /* \"#utility.yul\":457:574   */\n    tag_29:\n        /* \"#utility.yul\":566:567   */\n      0x00\n        /* \"#utility.yul\":563:564   */\n      dup1\n        /* \"#utility.yul\":556:568   */\n      revert\n        /* \"#utility.yul\":580:697   */\n    tag_30:\n        /* \"#utility.yul\":689:690   */\n      0x00\n        /* \"#utility.yul\":686:687   */\n      dup1\n        /* \"#utility.yul\":679:691   */\n      revert\n        /* \"#utility.yul\":717:1270   */\n    tag_31:\n        /* \"#utility.yul\":775:783   */\n      0x00\n        /* \"#utility.yul\":785:791   */\n      dup1\n        /* \"#utility.yul\":835:838   */\n      dup4\n        /* \"#utility.yul\":828:832   */\n      0x1f\n        /* \"#utility.yul\":820:826   */\n      dup5\n        /* \"#utility.yul\":816:833   */\n      add\n        /* \"#utility.yul\":812:839   */\n      slt\n        /* \"#utility.yul\":802:924   */\n      tag_54\n      jumpi\n        /* \"#utility.yul\":843:922   */\n      tag_55\n      tag_28\n      jump\t// in\n    tag_55:\n        /* \"#utility.yul\":802:924   */\n    tag_54:\n        /* \"#utility.yul\":956:962   */\n      dup3\n        /* \"#utility.yul\":943:963   */\n      calldataload\n        /* \"#utility.yul\":933:963   */\n      swap1\n      pop\n        /* \"#utility.yul\":986:1004   */\n      0xffffffffffffffff\n        /* \"#utility.yul\":978:984   */\n      dup2\n        /* \"#utility.yul\":975:1005   */\n      gt\n        /* \"#utility.yul\":972:1089   */\n      iszero\n      tag_56\n      jumpi\n        /* \"#utility.yul\":1008:1087   */\n      tag_57\n      tag_29\n      jump\t// in\n    tag_57:\n        /* \"#utility.yul\":972:1089   */\n    tag_56:\n        /* \"#utility.yul\":1122:1126   */\n      0x20\n        /* \"#utility.yul\":1114:1120   */\n      dup4\n        /* \"#utility.yul\":1110:1127   */\n      add\n        /* \"#utility.yul\":1098:1127   */\n      swap2\n      pop\n        /* \"#utility.yul\":1176:1179   */\n      dup4\n        /* \"#utility.yul\":1168:1172   */\n      0x01\n        /* \"#utility.yul\":1160:1166   */\n      dup3\n        /* \"#utility.yul\":1156:1173   */\n      mul\n        /* \"#utility.yul\":1146:1154   */\n      dup4\n        /* \"#utility.yul\":1142:1174   */\n      add\n        /* \"#utility.yul\":1139:1180   */\n      gt\n        /* \"#utility.yul\":1136:1264   */\n      iszero\n      tag_58\n      jumpi\n        /* \"#utility.yul\":1183:1262   */\n      tag_59\n      tag_30\n      jump\t// in\n    tag_59:\n        /* \"#utility.yul\":1136:1264   */\n    tag_58:\n        /* \"#utility.yul\":717:1270   */\n      swap3\n      pop\n      swap3\n      swap1\n      pop\n      jump\t// out\n        /* \"#utility.yul\":1276:1805   */\n    tag_8:\n        /* \"#utility.yul\":1347:1353   */\n      0x00\n        /* \"#utility.yul\":1355:1361   */\n      dup1\n        /* \"#utility.yul\":1404:1406   */\n      0x20\n        /* \"#utility.yul\":1392:1401   */\n      dup4\n        /* \"#utility.yul\":1383:1390   */\n      dup6\n        /* \"#utility.yul\":1379:1402   */\n      sub\n        /* \"#utility.yul\":1375:1407   */\n      slt\n        /* \"#utility.yul\":1372:1491   */\n      iszero\n      tag_61\n      jumpi\n        /* \"#utility.yul\":1410:1489   */\n      tag_62\n      tag_26\n      jump\t// in\n    tag_62:\n        /* \"#utility.yul\":1372:1491   */\n    tag_61:\n        /* \"#utility.yul\":1558:1559   */\n      0x00\n        /* \"#utility.yul\":1547:1556   */\n      dup4\n        /* \"#utility.yul\":1543:1560   */\n      add\n        /* \"#utility.yul\":1530:1561   */\n      calldataload\n        /* \"#utility.yul\":1588:1606   */\n      0xffffffffffffffff\n        /* \"#utility.yul\":1580:1586   */\n      dup2\n        /* \"#utility.yul\":1577:1607   */\n      gt\n        /* \"#utility.yul\":1574:1691   */\n      iszero\n      tag_63\n      jumpi\n        /* \"#utility.yul\":1610:1689   */\n      tag_64\n      tag_27\n      jump\t// in\n    tag_64:\n        /* \"#utility.yul\":1574:1691   */\n    tag_63:\n        /* \"#utility.yul\":1723:1788   */\n      tag_65\n        /* \"#utility.yul\":1780:1787   */\n      dup6\n        /* \"#utility.yul\":1771:1777   */\n      dup3\n        /* \"#utility.yul\":1760:1769   */\n      dup7\n        /* \"#utility.yul\":1756:1778   */\n      add\n        /* \"#utility.yul\":1723:1788   */\n      tag_31\n      jump\t// in\n    tag_65:\n        /* \"#utility.yul\":1705:1788   */\n      swap3\n      pop\n      swap3\n      pop\n        /* \"#utility.yul\":1501:1798   */\n      pop\n        /* \"#utility.yul\":1276:1805   */\n      swap3\n      pop\n      swap3\n      swap1\n      pop\n      jump\t// out\n        /* \"#utility.yul\":1811:1937   */\n    tag_32:\n        /* \"#utility.yul\":1848:1855   */\n      0x00\n        /* \"#utility.yul\":1888:1930   */\n      0xffffffffffffffffffffffffffffffffffffffff\n        /* \"#utility.yul\":1881:1886   */\n      dup3\n        /* \"#utility.yul\":1877:1931   */\n      and\n        /* \"#utility.yul\":1866:1931   */\n      swap1\n      pop\n        /* \"#utility.yul\":1811:1937   */\n      swap2\n      swap1\n      pop\n      jump\t// out\n        /* \"#utility.yul\":1943:2039   */\n    tag_33:\n        /* \"#utility.yul\":1980:1987   */\n      0x00\n        /* \"#utility.yul\":2009:2033   */\n      tag_68\n        /* \"#utility.yul\":2027:2032   */\n      dup3\n        /* \"#utility.yul\":2009:2033   */\n      tag_32\n      jump\t// in\n    tag_68:\n        /* \"#utility.yul\":1998:2033   */\n      swap1\n      pop\n        /* \"#utility.yul\":1943:2039   */\n      swap2\n      swap1\n      pop\n      jump\t// out\n        /* \"#utility.yul\":2045:2163   */\n    tag_34:\n        /* \"#utility.yul\":2132:2156   */\n      tag_70\n        /* \"#utility.yul\":2150:2155   */\n      dup2\n        /* \"#utility.yul\":2132:2156   */\n      tag_33\n      jump\t// in\n    tag_70:\n        /* \"#utility.yul\":2127:2130   */\n      dup3\n        /* \"#utility.yul\":2120:2157   */\n      mstore\n        /* \"#utility.yul\":2045:2163   */\n      pop\n      pop\n      jump\t// out\n        /* \"#utility.yul\":2169:2391   */\n    tag_11:\n        /* \"#utility.yul\":2262:2266   */\n      0x00\n        /* \"#utility.yul\":2300:2302   */\n      0x20\n        /* \"#utility.yul\":2289:2298   */\n      dup3\n        /* \"#utility.yul\":2285:2303   */\n      add\n        /* \"#utility.yul\":2277:2303   */\n      swap1\n      pop\n        /* \"#utility.yul\":2313:2384   */\n      tag_72\n        /* \"#utility.yul\":2381:2382   */\n      0x00\n        /* \"#utility.yul\":2370:2379   */\n      dup4\n        /* \"#utility.yul\":2366:2383   */\n      add\n        /* \"#utility.yul\":2357:2363   */\n      dup5\n        /* \"#utility.yul\":2313:2384   */\n      tag_34\n      jump\t// in\n    tag_72:\n        /* \"#utility.yul\":2169:2391   */\n      swap3\n      swap2\n      pop\n      pop\n      jump\t// out\n        /* \"#utility.yul\":2397:2514   */\n    tag_35:\n        /* \"#utility.yul\":2506:2507   */\n      0x00\n        /* \"#utility.yul\":2503:2504   */\n      dup1\n        /* \"#utility.yul\":2496:2508   */\n      revert\n        /* \"#utility.yul\":2520:2622   */\n    tag_36:\n        /* \"#utility.yul\":2561:2567   */\n      0x00\n        /* \"#utility.yul\":2612:2614   */\n      0x1f\n        /* \"#utility.yul\":2608:2615   */\n      not\n        /* \"#utility.yul\":2603:2605   */\n      0x1f\n        /* \"#utility.yul\":2596:2601   */\n      dup4\n        /* \"#utility.yul\":2592:2606   */\n      add\n        /* \"#utility.yul\":2588:2616   */\n      and\n        /* \"#utility.yul\":2578:2616   */\n      swap1\n      pop\n        /* \"#utility.yul\":2520:2622   */\n      swap2\n      swap1\n      pop\n      jump\t// out\n        /* \"#utility.yul\":2628:2808   */\n    tag_37:\n        /* \"#utility.yul\":2676:2753   */\n      0x4e487b7100000000000000000000000000000000000000000000000000000000\n        /* \"#utility.yul\":2673:2674   */\n      0x00\n        /* \"#utility.yul\":2666:2754   */\n      mstore\n        /* \"#utility.yul\":2773:2777   */\n      0x41\n        /* \"#utility.yul\":2770:2771   */\n      0x04\n        /* \"#utility.yul\":2763:2778   */\n      mstore\n        /* \"#utility.yul\":2797:2801   */\n      0x24\n        /* \"#utility.yul\":2794:2795   */\n      0x00\n        /* \"#utility.yul\":2787:2802   */\n      revert\n        /* \"#utility.yul\":2814:3095   */\n    tag_38:\n        /* \"#utility.yul\":2897:2924   */\n      tag_77\n        /* \"#utility.yul\":2919:2923   */\n      dup3\n        /* \"#utility.yul\":2897:2924   */\n      tag_36\n      jump\t// in\n    tag_77:\n        /* \"#utility.yul\":2889:2895   */\n      dup2\n        /* \"#utility.yul\":2885:2925   */\n      add\n        /* \"#utility.yul\":3027:3033   */\n      dup2\n        /* \"#utility.yul\":3015:3025   */\n      dup2\n        /* \"#utility.yul\":3012:3034   */\n      lt\n        /* \"#utility.yul\":2991:3009   */\n      0xffffffffffffffff\n        /* \"#utility.yul\":2979:2989   */\n      dup3\n        /* \"#utility.yul\":2976:3010   */\n      gt\n        /* \"#utility.yul\":2973:3035   */\n      or\n        /* \"#utility.yul\":2970:3058   */\n      iszero\n      tag_78\n      jumpi\n        /* \"#utility.yul\":3038:3056   */\n      tag_79\n      tag_37\n      jump\t// in\n    tag_79:\n        /* \"#utility.yul\":2970:3058   */\n    tag_78:\n        /* \"#utility.yul\":3078:3088   */\n      dup1\n        /* \"#utility.yul\":3074:3076   */\n      0x40\n        /* \"#utility.yul\":3067:3089   */\n      mstore\n        /* \"#utility.yul\":2857:3095   */\n      pop\n        /* \"#utility.yul\":2814:3095   */\n      pop\n      pop\n      jump\t// out\n        /* \"#utility.yul\":3101:3230   */\n    tag_39:\n        /* \"#utility.yul\":3135:3141   */\n      0x00\n        /* \"#utility.yul\":3162:3182   */\n      tag_81\n      tag_25\n      jump\t// in\n    tag_81:\n        /* \"#utility.yul\":3152:3182   */\n      swap1\n      pop\n        /* \"#utility.yul\":3191:3224   */\n      tag_82\n        /* \"#utility.yul\":3219:3223   */\n      dup3\n        /* \"#utility.yul\":3211:3217   */\n      dup3\n        /* \"#utility.yul\":3191:3224   */\n      tag_38\n      jump\t// in\n    tag_82:\n        /* \"#utility.yul\":3101:3230   */\n      swap2\n      swap1\n      pop\n      jump\t// out\n        /* \"#utility.yul\":3236:3544   */\n    tag_40:\n        /* \"#utility.yul\":3298:3302   */\n      0x00\n        /* \"#utility.yul\":3388:3406   */\n      0xffffffffffffffff\n        /* \"#utility.yul\":3380:3386   */\n      dup3\n        /* \"#utility.yul\":3377:3407   */\n      gt\n        /* \"#utility.yul\":3374:3430   */\n      iszero\n      tag_84\n      jumpi\n        /* \"#utility.yul\":3410:3428   */\n      tag_85\n      tag_37\n      jump\t// in\n    tag_85:\n        /* \"#utility.yul\":3374:3430   */\n    tag_84:\n        /* \"#utility.yul\":3448:3477   */\n      tag_86\n        /* \"#utility.yul\":3470:3476   */\n      dup3\n        /* \"#utility.yul\":3448:3477   */\n      tag_36\n      jump\t// in\n    tag_86:\n        /* \"#utility.yul\":3440:3477   */\n      swap1\n      pop\n        /* \"#utility.yul\":3532:3536   */\n      0x20\n        /* \"#utility.yul\":3526:3530   */\n      dup2\n        /* \"#utility.yul\":3522:3537   */\n      add\n        /* \"#utility.yul\":3514:3537   */\n      swap1\n      pop\n        /* \"#utility.yul\":3236:3544   */\n      swap2\n      swap1\n      pop\n      jump\t// out\n        /* \"#utility.yul\":3550:3698   */\n    tag_41:\n        /* \"#utility.yul\":3648:3654   */\n      dup3\n        /* \"#utility.yul\":3643:3646   */\n      dup2\n        /* \"#utility.yul\":3638:3641   */\n      dup4\n        /* \"#utility.yul\":3625:3655   */\n      calldatacopy\n        /* \"#utility.yul\":3689:3690   */\n      0x00\n        /* \"#utility.yul\":3680:3686   */\n      dup4\n        /* \"#utility.yul\":3675:3678   */\n      dup4\n        /* \"#utility.yul\":3671:3687   */\n      add\n        /* \"#utility.yul\":3664:3691   */\n      mstore\n        /* \"#utility.yul\":3550:3698   */\n      pop\n      pop\n      pop\n      jump\t// out\n        /* \"#utility.yul\":3704:4129   */\n    tag_42:\n        /* \"#utility.yul\":3782:3787   */\n      0x00\n        /* \"#utility.yul\":3807:3873   */\n      tag_89\n        /* \"#utility.yul\":3823:3872   */\n      tag_90\n        /* \"#utility.yul\":3865:3871   */\n      dup5\n        /* \"#utility.yul\":3823:3872   */\n      tag_40\n      jump\t// in\n    tag_90:\n        /* \"#utility.yul\":3807:3873   */\n      tag_39\n      jump\t// in\n    tag_89:\n        /* \"#utility.yul\":3798:3873   */\n      swap1\n      pop\n        /* \"#utility.yul\":3896:3902   */\n      dup3\n        /* \"#utility.yul\":3889:3894   */\n      dup2\n        /* \"#utility.yul\":3882:3903   */\n      mstore\n        /* \"#utility.yul\":3934:3938   */\n      0x20\n        /* \"#utility.yul\":3927:3932   */\n      dup2\n        /* \"#utility.yul\":3923:3939   */\n      add\n        /* \"#utility.yul\":3972:3975   */\n      dup5\n        /* \"#utility.yul\":3963:3969   */\n      dup5\n        /* \"#utility.yul\":3958:3961   */\n      dup5\n        /* \"#utility.yul\":3954:3970   */\n      add\n        /* \"#utility.yul\":3951:3976   */\n      gt\n        /* \"#utility.yul\":3948:4060   */\n      iszero\n      tag_91\n      jumpi\n        /* \"#utility.yul\":3979:4058   */\n      tag_92\n      tag_35\n      jump\t// in\n    tag_92:\n        /* \"#utility.yul\":3948:4060   */\n    tag_91:\n        /* \"#utility.yul\":4069:4123   */\n      tag_93\n        /* \"#utility.yul\":4116:4122   */\n      dup5\n        /* \"#utility.yul\":4111:4114   */\n      dup3\n        /* \"#utility.yul\":4106:4109   */\n      dup6\n        /* \"#utility.yul\":4069:4123   */\n      tag_41\n      jump\t// in\n    tag_93:\n        /* \"#utility.yul\":3788:4129   */\n      pop\n        /* \"#utility.yul\":3704:4129   */\n      swap4\n      swap3\n      pop\n      pop\n      pop\n      jump\t// out\n        /* \"#utility.yul\":4149:4489   */\n    tag_43:\n        /* \"#utility.yul\":4205:4210   */\n      0x00\n        /* \"#utility.yul\":4254:4257   */\n      dup3\n        /* \"#utility.yul\":4247:4251   */\n      0x1f\n        /* \"#utility.yul\":4239:4245   */\n      dup4\n        /* \"#utility.yul\":4235:4252   */\n      add\n        /* \"#utility.yul\":4231:4258   */\n      slt\n        /* \"#utility.yul\":4221:4343   */\n      tag_95\n      jumpi\n        /* \"#utility.yul\":4262:4341   */\n      tag_96\n      tag_28\n      jump\t// in\n    tag_96:\n        /* \"#utility.yul\":4221:4343   */\n    tag_95:\n        /* \"#utility.yul\":4379:4385   */\n      dup2\n        /* \"#utility.yul\":4366:4386   */\n      calldataload\n        /* \"#utility.yul\":4404:4483   */\n      tag_97\n        /* \"#utility.yul\":4479:4482   */\n      dup5\n        /* \"#utility.yul\":4471:4477   */\n      dup3\n        /* \"#utility.yul\":4464:4468   */\n      0x20\n        /* \"#utility.yul\":4456:4462   */\n      dup7\n        /* \"#utility.yul\":4452:4469   */\n      add\n        /* \"#utility.yul\":4404:4483   */\n      tag_42\n      jump\t// in\n    tag_97:\n        /* \"#utility.yul\":4395:4483   */\n      swap2\n      pop\n        /* \"#utility.yul\":4211:4489   */\n      pop\n        /* \"#utility.yul\":4149:4489   */\n      swap3\n      swap2\n      pop\n      pop\n      jump\t// out\n        /* \"#utility.yul\":4495:5004   */\n    tag_14:\n        /* \"#utility.yul\":4564:4570   */\n      0x00\n        /* \"#utility.yul\":4613:4615   */\n      0x20\n        /* \"#utility.yul\":4601:4610   */\n      dup3\n        /* \"#utility.yul\":4592:4599   */\n      dup5\n        /* \"#utility.yul\":4588:4611   */\n      sub\n        /* \"#utility.yul\":4584:4616   */\n      slt\n        /* \"#utility.yul\":4581:4700   */\n      iszero\n      tag_99\n      jumpi\n        /* \"#utility.yul\":4619:4698   */\n      tag_100\n      tag_26\n      jump\t// in\n    tag_100:\n        /* \"#utility.yul\":4581:4700   */\n    tag_99:\n        /* \"#utility.yul\":4767:4768   */\n      0x00\n        /* \"#utility.yul\":4756:4765   */\n      dup3\n        /* \"#utility.yul\":4752:4769   */\n      add\n        /* \"#utility.yul\":4739:4770   */\n      calldataload\n        /* \"#utility.yul\":4797:4815   */\n      0xffffffffffffffff\n        /* \"#utility.yul\":4789:4795   */\n      dup2\n        /* \"#utility.yul\":4786:4816   */\n      gt\n        /* \"#utility.yul\":4783:4900   */\n      iszero\n      tag_101\n      jumpi\n        /* \"#utility.yul\":4819:4898   */\n      tag_102\n      tag_27\n      jump\t// in\n    tag_102:\n        /* \"#utility.yul\":4783:4900   */\n    tag_101:\n        /* \"#utility.yul\":4924:4987   */\n      tag_103\n        /* \"#utility.yul\":4979:4986   */\n      dup5\n        /* \"#utility.yul\":4970:4976   */\n      dup3\n        /* \"#utility.yul\":4959:4968   */\n      dup6\n        /* \"#utility.yul\":4955:4977   */\n      add\n        /* \"#utility.yul\":4924:4987   */\n      tag_43\n      jump\t// in\n    tag_103:\n        /* \"#utility.yul\":4914:4987   */\n      swap2\n      pop\n        /* \"#utility.yul\":4710:4997   */\n      pop\n        /* \"#utility.yul\":4495:5004   */\n      swap3\n      swap2\n      pop\n      pop\n      jump\t// out\n        /* \"#utility.yul\":5010:5158   */\n    tag_44:\n        /* \"#utility.yul\":5112:5123   */\n      0x00\n        /* \"#utility.yul\":5149:5152   */\n      dup2\n        /* \"#utility.yul\":5134:5152   */\n      swap1\n      pop\n        /* \"#utility.yul\":5010:5158   */\n      swap3\n      swap2\n      pop\n      pop\n      jump\t// out\n        /* \"#utility.yul\":5188:5518   */\n    tag_45:\n        /* \"#utility.yul\":5304:5307   */\n      0x00\n        /* \"#utility.yul\":5325:5414   */\n      tag_106\n        /* \"#utility.yul\":5407:5413   */\n      dup4\n        /* \"#utility.yul\":5402:5405   */\n      dup6\n        /* \"#utility.yul\":5325:5414   */\n      tag_44\n      jump\t// in\n    tag_106:\n        /* \"#utility.yul\":5318:5414   */\n      swap4\n      pop\n        /* \"#utility.yul\":5424:5480   */\n      tag_107\n        /* \"#utility.yul\":5473:5479   */\n      dup4\n        /* \"#utility.yul\":5468:5471   */\n      dup6\n        /* \"#utility.yul\":5461:5466   */\n      dup5\n        /* \"#utility.yul\":5424:5480   */\n      tag_41\n      jump\t// in\n    tag_107:\n        /* \"#utility.yul\":5505:5511   */\n      dup3\n        /* \"#utility.yul\":5500:5503   */\n      dup5\n        /* \"#utility.yul\":5496:5512   */\n      add\n        /* \"#utility.yul\":5489:5512   */\n      swap1\n      pop\n        /* \"#utility.yul\":5188:5518   */\n      swap4\n      swap3\n      pop\n      pop\n      pop\n      jump\t// out\n        /* \"#utility.yul\":5524:5819   */\n    tag_22:\n        /* \"#utility.yul\":5666:5669   */\n      0x00\n        /* \"#utility.yul\":5688:5793   */\n      tag_109\n        /* \"#utility.yul\":5789:5792   */\n      dup3\n        /* \"#utility.yul\":5780:5786   */\n      dup5\n        /* \"#utility.yul\":5772:5778   */\n      dup7\n        /* \"#utility.yul\":5688:5793   */\n      tag_45\n      jump\t// in\n    tag_109:\n        /* \"#utility.yul\":5681:5793   */\n      swap2\n      pop\n        /* \"#utility.yul\":5810:5813   */\n      dup2\n        /* \"#utility.yul\":5803:5813   */\n      swap1\n      pop\n        /* \"#utility.yul\":5524:5819   */\n      swap4\n      swap3\n      pop\n      pop\n      pop\n      jump\t// out\n\n    auxdata: 0xa264697066735822122017f7291c5d3d2e1a2115601947658343eba6472a729a7723d034a8f8b237b60364736f6c634300081a0033\n}\n",
				"bytecode": {
					"linkReferences": {},
					"object": "6080604052348015600e575f80fd5b506104bf8061001c5f395ff3fe608060405234801561000f575f80fd5b506004361061003f575f3560e01c8063461a447814610043578063da370ff314610073578063f2c298be146100a3575b5f80fd5b61005d60048036038101906100589190610221565b6100bf565b60405161006a91906102ab565b60405180910390f35b61008d600480360381019061008891906103fc565b610107565b60405161009a91906102ab565b60405180910390f35b6100bd60048036038101906100b89190610221565b61014e565b005b5f8083836040516100d1929190610471565b90815260200160405180910390205f9054906101000a900473ffffffffffffffffffffffffffffffffffffffff16905092915050565b5f818051602081018201805184825260208301602085012081835280955050505050505f915054906101000a900473ffffffffffffffffffffffffffffffffffffffff1681565b335f8383604051610160929190610471565b90815260200160405180910390205f6101000a81548173ffffffffffffffffffffffffffffffffffffffff021916908373ffffffffffffffffffffffffffffffffffffffff1602179055505050565b5f604051905090565b5f80fd5b5f80fd5b5f80fd5b5f80fd5b5f80fd5b5f8083601f8401126101e1576101e06101c0565b5b8235905067ffffffffffffffff8111156101fe576101fd6101c4565b5b60208301915083600182028301111561021a576102196101c8565b5b9250929050565b5f8060208385031215610237576102366101b8565b5b5f83013567ffffffffffffffff811115610254576102536101bc565b5b610260858286016101cc565b92509250509250929050565b5f73ffffffffffffffffffffffffffffffffffffffff82169050919050565b5f6102958261026c565b9050919050565b6102a58161028b565b82525050565b5f6020820190506102be5f83018461029c565b92915050565b5f80fd5b5f601f19601f8301169050919050565b7f4e487b71000000000000000000000000000000000000000000000000000000005f52604160045260245ffd5b61030e826102c8565b810181811067ffffffffffffffff8211171561032d5761032c6102d8565b5b80604052505050565b5f61033f6101af565b905061034b8282610305565b919050565b5f67ffffffffffffffff82111561036a576103696102d8565b5b610373826102c8565b9050602081019050919050565b828183375f83830152505050565b5f6103a061039b84610350565b610336565b9050828152602081018484840111156103bc576103bb6102c4565b5b6103c7848285610380565b509392505050565b5f82601f8301126103e3576103e26101c0565b5b81356103f384826020860161038e565b91505092915050565b5f60208284031215610411576104106101b8565b5b5f82013567ffffffffffffffff81111561042e5761042d6101bc565b5b61043a848285016103cf565b91505092915050565b5f81905092915050565b5f6104588385610443565b9350610465838584610380565b82840190509392505050565b5f61047d82848661044d565b9150819050939250505056fea264697066735822122017f7291c5d3d2e1a2115601947658343eba6472a729a7723d034a8f8b237b60364736f6c634300081a0033",
					"opcodes": "PUSH1 0x80 PUSH1 0x40 MSTORE CALLVALUE DUP1 ISZERO PUSH1 0xE JUMPI PUSH0 DUP1 REVERT JUMPDEST POP PUSH2 0x4BF DUP1 PUSH2 0x1C PUSH0 CODECOPY PUSH0 RETURN INVALID PUSH1 0x80 PUSH1 0x40 MSTORE CALLVALUE DUP1 ISZERO PUSH2 0xF JUMPI PUSH0 DUP1 REVERT JUMPDEST POP PUSH1 0x4 CALLDATASIZE LT PUSH2 0x3F JUMPI PUSH0 CALLDATALOAD PUSH1 0xE0 SHR DUP1 PUSH4 0x461A4478 EQ PUSH2 0x43 JUMPI DUP1 PUSH4 0xDA370FF3 EQ PUSH2 0x73 JUMPI DUP1 PUSH4 0xF2C298BE EQ PUSH2 0xA3 JUMPI JUMPDEST PUSH0 DUP1 REVERT JUMPDEST PUSH2 0x5D PUSH1 0x4 DUP1 CALLDATASIZE SUB DUP2 ADD SWAP1 PUSH2 0x58 SWAP2 SWAP1 PUSH2 0x221 JUMP JUMPDEST PUSH2 0xBF JUMP JUMPDEST PUSH1 0x40 MLOAD PUSH2 0x6A SWAP2 SWAP1 PUSH2 0x2AB JUMP JUMPDEST PUSH1 0x40 MLOAD DUP1 SWAP2 SUB SWAP1 RETURN JUMPDEST PUSH2 0x8D PUSH1 0x4 DUP1 CALLDATASIZE SUB DUP2 ADD SWAP1 PUSH2 0x88 SWAP2 SWAP1 PUSH2 0x3FC JUMP JUMPDEST PUSH2 0x107 JUMP JUMPDEST PUSH1 0x40 MLOAD PUSH2 0x9A SWAP2 SWAP1 PUSH2 0x2AB JUMP JUMPDEST PUSH1 0x40 MLOAD DUP1 SWAP2 SUB SWAP1 RETURN JUMPDEST PUSH2 0xBD PUSH1 0x4 DUP1 CALLDATASIZE SUB DUP2 ADD SWAP1 PUSH2 0xB8 SWAP2 SWAP1 PUSH2 0x221 JUMP JUMPDEST PUSH2 0x14E JUMP JUMPDEST STOP JUMPDEST PUSH0 DUP1 DUP4 DUP4 PUSH1 0x40 MLOAD PUSH2 0xD1 SWAP3 SWAP2 SWAP1 PUSH2 0x471 JUMP JUMPDEST SWAP1 DUP2 MSTORE PUSH1 0x20 ADD PUSH1 0x40 MLOAD DUP1 SWAP2 SUB SWAP1 KECCAK256 PUSH0 SWAP1 SLOAD SWAP1 PUSH2 0x100 EXP SWAP1 DIV PUSH20 0xFFFFFFFFFFFFFFFFFFFFFFFFFFFFFFFFFFFFFFFF AND SWAP1 POP SWAP3 SWAP2 POP POP JUMP JUMPDEST PUSH0 DUP2 DUP1 MLOAD PUSH1 0x20 DUP2 ADD DUP3 ADD DUP1 MLOAD DUP5 DUP3 MSTORE PUSH1 0x20 DUP4 ADD PUSH1 0x20 DUP6 ADD KECCAK256 DUP2 DUP4 MSTORE DUP1 SWAP6 POP POP POP POP POP POP PUSH0 SWAP2 POP SLOAD SWAP1 PUSH2 0x100 EXP SWAP1 DIV PUSH20 0xFFFFFFFFFFFFFFFFFFFFFFFFFFFFFFFFFFFFFFFF AND DUP2 JUMP JUMPDEST CALLER PUSH0 DUP4 DUP4 PUSH1 0x40 MLOAD PUSH2 0x160 SWAP3 SWAP2 SWAP1 PUSH2 0x471 JUMP JUMPDEST SWAP1 DUP2 MSTORE PUSH1 0x20 ADD PUSH1 0x40 MLOAD DUP1 SWAP2 SUB SWAP1 KECCAK256 PUSH0 PUSH2 0x100 EXP DUP2 SLOAD DUP2 PUSH20 0xFFFFFFFFFFFFFFFFFFFFFFFFFFFFFFFFFFFFFFFF MUL NOT AND SWAP1 DUP4 PUSH20 0xFFFFFFFFFFFFFFFFFFFFFFFFFFFFFFFFFFFFFFFF AND MUL OR SWAP1 SSTORE POP POP POP JUMP JUMPDEST PUSH0 PUSH1 0x40 MLOAD SWAP1 POP SWAP1 JUMP JUMPDEST PUSH0 DUP1 REVERT JUMPDEST PUSH0 DUP1 REVERT JUMPDEST PUSH0 DUP1 REVERT JUMPDEST PUSH0 DUP1 REVERT JUMPDEST PUSH0 DUP1 REVERT JUMPDEST PUSH0 DUP1 DUP4 PUSH1 0x1F DUP5 ADD SLT PUSH2 0x1E1 JUMPI PUSH2 0x1E0 PUSH2 0x1C0 JUMP JUMPDEST JUMPDEST DUP3 CALLDATALOAD SWAP1 POP PUSH8 0xFFFFFFFFFFFFFFFF DUP2 GT ISZERO PUSH2 0x1FE JUMPI PUSH2 0x1FD PUSH2 0x1C4 JUMP JUMPDEST JUMPDEST PUSH1 0x20 DUP4 ADD SWAP2 POP DUP4 PUSH1 0x1 DUP3 MUL DUP4 ADD GT ISZERO PUSH2 0x21A JUMPI PUSH2 0x219 PUSH2 0x1C8 JUMP JUMPDEST JUMPDEST SWAP3 POP SWAP3 SWAP1 POP JUMP JUMPDEST PUSH0 DUP1 PUSH1 0x20 DUP4 DUP6 SUB SLT ISZERO PUSH2 0x237 JUMPI PUSH2 0x236 PUSH2 0x1B8 JUMP JUMPDEST JUMPDEST PUSH0 DUP4 ADD CALLDATALOAD PUSH8 0xFFFFFFFFFFFFFFFF DUP2 GT ISZERO PUSH2 0x254 JUMPI PUSH2 0x253 PUSH2 0x1BC JUMP JUMPDEST JUMPDEST PUSH2 0x260 DUP6 DUP3 DUP7 ADD PUSH2 0x1CC JUMP JUMPDEST SWAP3 POP SWAP3 POP POP SWAP3 POP SWAP3 SWAP1 POP JUMP JUMPDEST PUSH0 PUSH20 0xFFFFFFFFFFFFFFFFFFFFFFFFFFFFFFFFFFFFFFFF DUP3 AND SWAP1 POP SWAP2 SWAP1 POP JUMP JUMPDEST PUSH0 PUSH2 0x295 DUP3 PUSH2 0x26C JUMP JUMPDEST SWAP1 POP SWAP2 SWAP1 POP JUMP JUMPDEST PUSH2 0x2A5 DUP2 PUSH2 0x28B JUMP JUMPDEST DUP3 MSTORE POP POP JUMP JUMPDEST PUSH0 PUSH1 0x20 DUP3 ADD SWAP1 POP PUSH2 0x2BE PUSH0 DUP4 ADD DUP5 PUSH2 0x29C JUMP JUMPDEST SWAP3 SWAP2 POP POP JUMP JUMPDEST PUSH0 DUP1 REVERT JUMPDEST PUSH0 PUSH1 0x1F NOT PUSH1 0x1F DUP4 ADD AND SWAP1 POP SWAP2 SWAP1 POP JUMP JUMPDEST PUSH32 0x4E487B7100000000000000000000000000000000000000000000000000000000 PUSH0 MSTORE PUSH1 0x41 PUSH1 0x4 MSTORE PUSH1 0x24 PUSH0 REVERT JUMPDEST PUSH2 0x30E DUP3 PUSH2 0x2C8 JUMP JUMPDEST DUP2 ADD DUP2 DUP2 LT PUSH8 0xFFFFFFFFFFFFFFFF DUP3 GT OR ISZERO PUSH2 0x32D JUMPI PUSH2 0x32C PUSH2 0x2D8 JUMP JUMPDEST JUMPDEST DUP1 PUSH1 0x40 MSTORE POP POP POP JUMP JUMPDEST PUSH0 PUSH2 0x33F PUSH2 0x1AF JUMP JUMPDEST SWAP1 POP PUSH2 0x34B DUP3 DUP3 PUSH2 0x305 JUMP JUMPDEST SWAP2 SWAP1 POP JUMP JUMPDEST PUSH0 PUSH8 0xFFFFFFFFFFFFFFFF DUP3 GT ISZERO PUSH2 0x36A JUMPI PUSH2 0x369 PUSH2 0x2D8 JUMP JUMPDEST JUMPDEST PUSH2 0x373 DUP3 PUSH2 0x2C8 JUMP JUMPDEST SWAP1 POP PUSH1 0x20 DUP2 ADD SWAP1 POP SWAP2 SWAP1 POP JUMP JUMPDEST DUP3 DUP2 DUP4 CALLDATACOPY PUSH0 DUP4 DUP4 ADD MSTORE POP POP POP JUMP JUMPDEST PUSH0 PUSH2 0x3A0 PUSH2 0x39B DUP5 PUSH2 0x350 JUMP JUMPDEST PUSH2 0x336 JUMP JUMPDEST SWAP1 POP DUP3 DUP2 MSTORE PUSH1 0x20 DUP2 ADD DUP5 DUP5 DUP5 ADD GT ISZERO PUSH2 0x3BC JUMPI PUSH2 0x3BB PUSH2 0x2C4 JUMP JUMPDEST JUMPDEST PUSH2 0x3C7 DUP5 DUP3 DUP6 PUSH2 0x380 JUMP JUMPDEST POP SWAP4 SWAP3 POP POP POP JUMP JUMPDEST PUSH0 DUP3 PUSH1 0x1F DUP4 ADD SLT PUSH2 0x3E3 JUMPI PUSH2 0x3E2 PUSH2 0x1C0 JUMP JUMPDEST JUMPDEST DUP2 CALLDATALOAD PUSH2 0x3F3 DUP5 DUP3 PUSH1 0x20 DUP7 ADD PUSH2 0x38E JUMP JUMPDEST SWAP2 POP POP SWAP3 SWAP2 POP POP JUMP JUMPDEST PUSH0 PUSH1 0x20 DUP3 DUP5 SUB SLT ISZERO PUSH2 0x411 JUMPI PUSH2 0x410 PUSH2 0x1B8 JUMP JUMPDEST JUMPDEST PUSH0 DUP3 ADD CALLDATALOAD PUSH8 0xFFFFFFFFFFFFFFFF DUP2 GT ISZERO PUSH2 0x42E JUMPI PUSH2 0x42D PUSH2 0x1BC JUMP JUMPDEST JUMPDEST PUSH2 0x43A DUP5 DUP3 DUP6 ADD PUSH2 0x3CF JUMP JUMPDEST SWAP2 POP POP SWAP3 SWAP2 POP POP JUMP JUMPDEST PUSH0 DUP2 SWAP1 POP SWAP3 SWAP2 POP POP JUMP JUMPDEST PUSH0 PUSH2 0x458 DUP4 DUP6 PUSH2 0x443 JUMP JUMPDEST SWAP4 POP PUSH2 0x465 DUP4 DUP6 DUP5 PUSH2 0x380 JUMP JUMPDEST DUP3 DUP5 ADD SWAP1 POP SWAP4 SWAP3 POP POP POP JUMP JUMPDEST PUSH0 PUSH2 0x47D DUP3 DUP5 DUP7 PUSH2 0x44D JUMP JUMPDEST SWAP2 POP DUP2 SWAP1 POP SWAP4 SWAP3 POP POP POP JUMP INVALID LOG2 PUSH5 0x6970667358 0x22 SLT KECCAK256 OR 0xF7 0x29 SHR TSTORE RETURNDATASIZE 0x2E BYTE 0x21 ISZERO PUSH1 0x19 SELFBALANCE PUSH6 0x8343EBA6472A PUSH19 0x9A7723D034A8F8B237B60364736F6C63430008 BYTE STOP CALLER "
				},
				"gasEstimates": {
					"creation": {
						"codeDepositCost": "243000",
						"executionCost": "279",
						"totalCost": "243279"
					},
					"external": {
						"nameToAddr(string)": "infinite",
						"register(string)": "infinite",
						"resolve(string)": "infinite"
					}
				},
				"methodIdentifiers": {
					"nameToAddr(string)": "da370ff3",
					"register(string)": "f2c298be",
					"resolve(string)": "461a4478"
				}
			},
			"storageLayout": {
				"storage": [
					{
						"astId": 5,
						"contract": "G/gethostbyname/SpoofableNameRegistry.sol:SpoofableNameRegistry",
						"label": "nameToAddr",
						"offset": 0,
						"slot": "0",
						"type": "t_mapping(t_string_memory_ptr,t_address)"
					}
				],
				"types": {
					"t_address": {
						"encoding": "inplace",
						"label": "address",
						"numberOfBytes": "20"
					},
					"t_mapping(t_string_memory_ptr,t_address)": {
						"encoding": "mapping",
						"key": "t_string_memory_ptr",
						"label": "mapping(string => address)",
						"numberOfBytes": "32",
						"value": "t_address"
					},
					"t_string_memory_ptr": {
						"encoding": "bytes",
						"label": "string",
						"numberOfBytes": "32"
					}
				}
			},
			"userdoc": {
				"kind": "user",
				"methods": {},
				"version": 1
			}
		}
	}
}