{
	"R/RaceCondition/RaceTimelineTracker.sol": {
		"RaceTimelineTracker": {
			"abi": [
				{
					"anonymous": false,
					"inputs": [
						{
							"indexed": false,
							"internalType": "bytes32",
							"name": "id",
							"type": "bytes32"
						},
						{
							"indexed": false,
							"internalType": "uint256",
							"name": "drift",
							"type": "uint256"
						},
						{
							"indexed": false,
							"internalType": "uint256",
							"name": "blockLag",
							"type": "uint256"
						}
					],
					"name": "DriftDetected",
					"type": "event"
				},
				{
					"inputs": [
						{
							"internalType": "bytes32",
							"name": "",
							"type": "bytes32"
						}
					],
					"name": "calls",
					"outputs": [
						{
							"internalType": "address",
							"name": "caller",
							"type": "address"
						},
						{
							"internalType": "uint256",
							"name": "timestamp",
							"type": "uint256"
						},
						{
							"internalType": "uint256",
							"name": "blockNumber",
							"type": "uint256"
						}
					],
					"stateMutability": "view",
					"type": "function"
				},
				{
					"inputs": [
						{
							"internalType": "bytes32",
							"name": "id",
							"type": "bytes32"
						}
					],
					"name": "logCall",
					"outputs": [],
					"stateMutability": "nonpayable",
					"type": "function"
				}
			],
			"devdoc": {
				"kind": "dev",
				"methods": {},
				"version": 1
			},
			"evm": {
				"assembly": "    /* \"R/RaceCondition/RaceTimelineTracker.sol\":58:703  contract RaceTimelineTracker {... */\n  mstore(0x40, 0x80)\n  callvalue\n  dup1\n  iszero\n  tag_1\n  jumpi\n  0x00\n  dup1\n  revert\ntag_1:\n  pop\n  dataSize(sub_0)\n  dup1\n  dataOffset(sub_0)\n  0x00\n  codecopy\n  0x00\n  return\nstop\n\nsub_0: assembly {\n        /* \"R/RaceCondition/RaceTimelineTracker.sol\":58:703  contract RaceTimelineTracker {... */\n      mstore(0x40, 0x80)\n      callvalue\n      dup1\n      iszero\n      tag_1\n      jumpi\n      0x00\n      dup1\n      revert\n    tag_1:\n      pop\n      jumpi(tag_2, lt(calldatasize, 0x04))\n      shr(0xe0, calldataload(0x00))\n      dup1\n      0x4c0e5c48\n      eq\n      tag_3\n      jumpi\n      dup1\n      0xcff10265\n      eq\n      tag_4\n      jumpi\n    tag_2:\n      0x00\n      dup1\n      revert\n        /* \"R/RaceCondition/RaceTimelineTracker.sol\":319:701  function logCall(bytes32 id) external {... */\n    tag_3:\n      tag_5\n      0x04\n      dup1\n      calldatasize\n      sub\n      dup2\n      add\n      swap1\n      tag_6\n      swap2\n      swap1\n      tag_7\n      jump\t// in\n    tag_6:\n      tag_8\n      jump\t// in\n    tag_5:\n      stop\n        /* \"R/RaceCondition/RaceTimelineTracker.sol\":201:241  mapping(bytes32 => CallLog) public calls */\n    tag_4:\n      tag_9\n      0x04\n      dup1\n      calldatasize\n      sub\n      dup2\n      add\n      swap1\n      tag_10\n      swap2\n      swap1\n      tag_7\n      jump\t// in\n    tag_10:\n      tag_11\n      jump\t// in\n    tag_9:\n      mload(0x40)\n      tag_12\n      swap4\n      swap3\n      swap2\n      swap1\n      tag_13\n      jump\t// in\n    tag_12:\n      mload(0x40)\n      dup1\n      swap2\n      sub\n      swap1\n      return\n        /* \"R/RaceCondition/RaceTimelineTracker.sol\":319:701  function logCall(bytes32 id) external {... */\n    tag_8:\n        /* \"R/RaceCondition/RaceTimelineTracker.sol\":367:386  CallLog storage log */\n      0x00\n        /* \"R/RaceCondition/RaceTimelineTracker.sol\":389:394  calls */\n      dup1\n        /* \"R/RaceCondition/RaceTimelineTracker.sol\":389:398  calls[id] */\n      0x00\n        /* \"R/RaceCondition/RaceTimelineTracker.sol\":395:397  id */\n      dup4\n        /* \"R/RaceCondition/RaceTimelineTracker.sol\":389:398  calls[id] */\n      dup2\n      mstore\n      0x20\n      add\n      swap1\n      dup2\n      mstore\n      0x20\n      add\n      0x00\n      keccak256\n        /* \"R/RaceCondition/RaceTimelineTracker.sol\":367:398  CallLog storage log = calls[id] */\n      swap1\n      pop\n        /* \"R/RaceCondition/RaceTimelineTracker.sol\":431:432  0 */\n      0x00\n        /* \"R/RaceCondition/RaceTimelineTracker.sol\":412:415  log */\n      dup2\n        /* \"R/RaceCondition/RaceTimelineTracker.sol\":412:427  log.blockNumber */\n      0x02\n      add\n      sload\n        /* \"R/RaceCondition/RaceTimelineTracker.sol\":412:432  log.blockNumber != 0 */\n      eq\n        /* \"R/RaceCondition/RaceTimelineTracker.sol\":408:622  if (log.blockNumber != 0) {... */\n      tag_15\n      jumpi\n        /* \"R/RaceCondition/RaceTimelineTracker.sol\":448:461  uint256 drift */\n      0x00\n        /* \"R/RaceCondition/RaceTimelineTracker.sol\":482:485  log */\n      dup2\n        /* \"R/RaceCondition/RaceTimelineTracker.sol\":482:495  log.timestamp */\n      0x01\n      add\n      sload\n        /* \"R/RaceCondition/RaceTimelineTracker.sol\":464:479  block.timestamp */\n      timestamp\n        /* \"R/RaceCondition/RaceTimelineTracker.sol\":464:495  block.timestamp - log.timestamp */\n      tag_16\n      swap2\n      swap1\n      tag_17\n      jump\t// in\n    tag_16:\n        /* \"R/RaceCondition/RaceTimelineTracker.sol\":448:495  uint256 drift = block.timestamp - log.timestamp */\n      swap1\n      pop\n        /* \"R/RaceCondition/RaceTimelineTracker.sol\":509:525  uint256 blockLag */\n      0x00\n        /* \"R/RaceCondition/RaceTimelineTracker.sol\":543:546  log */\n      dup3\n        /* \"R/RaceCondition/RaceTimelineTracker.sol\":543:558  log.blockNumber */\n      0x02\n      add\n      sload\n        /* \"R/RaceCondition/RaceTimelineTracker.sol\":528:540  block.number */\n      number\n        /* \"R/RaceCondition/RaceTimelineTracker.sol\":528:558  block.number - log.blockNumber */\n      tag_18\n      swap2\n      swap1\n      tag_17\n      jump\t// in\n    tag_18:\n        /* \"R/RaceCondition/RaceTimelineTracker.sol\":509:558  uint256 blockLag = block.number - log.blockNumber */\n      swap1\n      pop\n        /* \"R/RaceCondition/RaceTimelineTracker.sol\":577:611  DriftDetected(id, drift, blockLag) */\n      0xb808266179c9ed6e02e55bb5d5f3f001a957f7c026148d70c5e18d146f946da0\n        /* \"R/RaceCondition/RaceTimelineTracker.sol\":591:593  id */\n      dup5\n        /* \"R/RaceCondition/RaceTimelineTracker.sol\":595:600  drift */\n      dup4\n        /* \"R/RaceCondition/RaceTimelineTracker.sol\":602:610  blockLag */\n      dup4\n        /* \"R/RaceCondition/RaceTimelineTracker.sol\":577:611  DriftDetected(id, drift, blockLag) */\n      mload(0x40)\n      tag_19\n      swap4\n      swap3\n      swap2\n      swap1\n      tag_20\n      jump\t// in\n    tag_19:\n      mload(0x40)\n      dup1\n      swap2\n      sub\n      swap1\n      log1\n        /* \"R/RaceCondition/RaceTimelineTracker.sol\":434:622  {... */\n      pop\n      pop\n        /* \"R/RaceCondition/RaceTimelineTracker.sol\":408:622  if (log.blockNumber != 0) {... */\n    tag_15:\n        /* \"R/RaceCondition/RaceTimelineTracker.sol\":644:694  CallLog(msg.sender, block.timestamp, block.number) */\n      mload(0x40)\n      dup1\n      0x60\n      add\n      0x40\n      mstore\n      dup1\n        /* \"R/RaceCondition/RaceTimelineTracker.sol\":652:662  msg.sender */\n      caller\n        /* \"R/RaceCondition/RaceTimelineTracker.sol\":644:694  CallLog(msg.sender, block.timestamp, block.number) */\n      0xffffffffffffffffffffffffffffffffffffffff\n      and\n      dup2\n      mstore\n      0x20\n      add\n        /* \"R/RaceCondition/RaceTimelineTracker.sol\":664:679  block.timestamp */\n      timestamp\n        /* \"R/RaceCondition/RaceTimelineTracker.sol\":644:694  CallLog(msg.sender, block.timestamp, block.number) */\n      dup2\n      mstore\n      0x20\n      add\n        /* \"R/RaceCondition/RaceTimelineTracker.sol\":681:693  block.number */\n      number\n        /* \"R/RaceCondition/RaceTimelineTracker.sol\":644:694  CallLog(msg.sender, block.timestamp, block.number) */\n      dup2\n      mstore\n      pop\n        /* \"R/RaceCondition/RaceTimelineTracker.sol\":632:637  calls */\n      0x00\n        /* \"R/RaceCondition/RaceTimelineTracker.sol\":632:641  calls[id] */\n      dup1\n        /* \"R/RaceCondition/RaceTimelineTracker.sol\":638:640  id */\n      dup5\n        /* \"R/RaceCondition/RaceTimelineTracker.sol\":632:641  calls[id] */\n      dup2\n      mstore\n      0x20\n      add\n      swap1\n      dup2\n      mstore\n      0x20\n      add\n      0x00\n      keccak256\n        /* \"R/RaceCondition/RaceTimelineTracker.sol\":632:694  calls[id] = CallLog(msg.sender, block.timestamp, block.number) */\n      0x00\n      dup3\n      add\n      mload\n      dup2\n      0x00\n      add\n      exp(0x0100, 0x00)\n      dup2\n      sload\n      dup2\n      0xffffffffffffffffffffffffffffffffffffffff\n      mul\n      not\n      and\n      swap1\n      dup4\n      0xffffffffffffffffffffffffffffffffffffffff\n      and\n      mul\n      or\n      swap1\n      sstore\n      pop\n      0x20\n      dup3\n      add\n      mload\n      dup2\n      0x01\n      add\n      sstore\n      0x40\n      dup3\n      add\n      mload\n      dup2\n      0x02\n      add\n      sstore\n      swap1\n      pop\n      pop\n        /* \"R/RaceCondition/RaceTimelineTracker.sol\":357:701  {... */\n      pop\n        /* \"R/RaceCondition/RaceTimelineTracker.sol\":319:701  function logCall(bytes32 id) external {... */\n      pop\n      jump\t// out\n        /* \"R/RaceCondition/RaceTimelineTracker.sol\":201:241  mapping(bytes32 => CallLog) public calls */\n    tag_11:\n      mstore(0x20, 0x00)\n      dup1\n      0x00\n      mstore\n      keccak256(0x00, 0x40)\n      0x00\n      swap2\n      pop\n      swap1\n      pop\n      dup1\n      0x00\n      add\n      0x00\n      swap1\n      sload\n      swap1\n      0x0100\n      exp\n      swap1\n      div\n      0xffffffffffffffffffffffffffffffffffffffff\n      and\n      swap1\n      dup1\n      0x01\n      add\n      sload\n      swap1\n      dup1\n      0x02\n      add\n      sload\n      swap1\n      pop\n      dup4\n      jump\t// out\n        /* \"#utility.yul\":88:205   */\n    tag_22:\n        /* \"#utility.yul\":197:198   */\n      0x00\n        /* \"#utility.yul\":194:195   */\n      dup1\n        /* \"#utility.yul\":187:199   */\n      revert\n        /* \"#utility.yul\":334:411   */\n    tag_24:\n        /* \"#utility.yul\":371:378   */\n      0x00\n        /* \"#utility.yul\":400:405   */\n      dup2\n        /* \"#utility.yul\":389:405   */\n      swap1\n      pop\n        /* \"#utility.yul\":334:411   */\n      swap2\n      swap1\n      pop\n      jump\t// out\n        /* \"#utility.yul\":417:539   */\n    tag_25:\n        /* \"#utility.yul\":490:514   */\n      tag_40\n        /* \"#utility.yul\":508:513   */\n      dup2\n        /* \"#utility.yul\":490:514   */\n      tag_24\n      jump\t// in\n    tag_40:\n        /* \"#utility.yul\":483:488   */\n      dup2\n        /* \"#utility.yul\":480:515   */\n      eq\n        /* \"#utility.yul\":470:533   */\n      tag_41\n      jumpi\n        /* \"#utility.yul\":529:530   */\n      0x00\n        /* \"#utility.yul\":526:527   */\n      dup1\n        /* \"#utility.yul\":519:531   */\n      revert\n        /* \"#utility.yul\":470:533   */\n    tag_41:\n        /* \"#utility.yul\":417:539   */\n      pop\n      jump\t// out\n        /* \"#utility.yul\":545:684   */\n    tag_26:\n        /* \"#utility.yul\":591:596   */\n      0x00\n        /* \"#utility.yul\":629:635   */\n      dup2\n        /* \"#utility.yul\":616:636   */\n      calldataload\n        /* \"#utility.yul\":607:636   */\n      swap1\n      pop\n        /* \"#utility.yul\":645:678   */\n      tag_43\n        /* \"#utility.yul\":672:677   */\n      dup2\n        /* \"#utility.yul\":645:678   */\n      tag_25\n      jump\t// in\n    tag_43:\n        /* \"#utility.yul\":545:684   */\n      swap3\n      swap2\n      pop\n      pop\n      jump\t// out\n        /* \"#utility.yul\":690:1019   */\n    tag_7:\n        /* \"#utility.yul\":749:755   */\n      0x00\n        /* \"#utility.yul\":798:800   */\n      0x20\n        /* \"#utility.yul\":786:795   */\n      dup3\n        /* \"#utility.yul\":777:784   */\n      dup5\n        /* \"#utility.yul\":773:796   */\n      sub\n        /* \"#utility.yul\":769:801   */\n      slt\n        /* \"#utility.yul\":766:885   */\n      iszero\n      tag_45\n      jumpi\n        /* \"#utility.yul\":804:883   */\n      tag_46\n      tag_22\n      jump\t// in\n    tag_46:\n        /* \"#utility.yul\":766:885   */\n    tag_45:\n        /* \"#utility.yul\":924:925   */\n      0x00\n        /* \"#utility.yul\":949:1002   */\n      tag_47\n        /* \"#utility.yul\":994:1001   */\n      dup5\n        /* \"#utility.yul\":985:991   */\n      dup3\n        /* \"#utility.yul\":974:983   */\n      dup6\n        /* \"#utility.yul\":970:992   */\n      add\n        /* \"#utility.yul\":949:1002   */\n      tag_26\n      jump\t// in\n    tag_47:\n        /* \"#utility.yul\":939:1002   */\n      swap2\n      pop\n        /* \"#utility.yul\":895:1012   */\n      pop\n        /* \"#utility.yul\":690:1019   */\n      swap3\n      swap2\n      pop\n      pop\n      jump\t// out\n        /* \"#utility.yul\":1025:1151   */\n    tag_27:\n        /* \"#utility.yul\":1062:1069   */\n      0x00\n        /* \"#utility.yul\":1102:1144   */\n      0xffffffffffffffffffffffffffffffffffffffff\n        /* \"#utility.yul\":1095:1100   */\n      dup3\n        /* \"#utility.yul\":1091:1145   */\n      and\n        /* \"#utility.yul\":1080:1145   */\n      swap1\n      pop\n        /* \"#utility.yul\":1025:1151   */\n      swap2\n      swap1\n      pop\n      jump\t// out\n        /* \"#utility.yul\":1157:1253   */\n    tag_28:\n        /* \"#utility.yul\":1194:1201   */\n      0x00\n        /* \"#utility.yul\":1223:1247   */\n      tag_50\n        /* \"#utility.yul\":1241:1246   */\n      dup3\n        /* \"#utility.yul\":1223:1247   */\n      tag_27\n      jump\t// in\n    tag_50:\n        /* \"#utility.yul\":1212:1247   */\n      swap1\n      pop\n        /* \"#utility.yul\":1157:1253   */\n      swap2\n      swap1\n      pop\n      jump\t// out\n        /* \"#utility.yul\":1259:1377   */\n    tag_29:\n        /* \"#utility.yul\":1346:1370   */\n      tag_52\n        /* \"#utility.yul\":1364:1369   */\n      dup2\n        /* \"#utility.yul\":1346:1370   */\n      tag_28\n      jump\t// in\n    tag_52:\n        /* \"#utility.yul\":1341:1344   */\n      dup3\n        /* \"#utility.yul\":1334:1371   */\n      mstore\n        /* \"#utility.yul\":1259:1377   */\n      pop\n      pop\n      jump\t// out\n        /* \"#utility.yul\":1383:1460   */\n    tag_30:\n        /* \"#utility.yul\":1420:1427   */\n      0x00\n        /* \"#utility.yul\":1449:1454   */\n      dup2\n        /* \"#utility.yul\":1438:1454   */\n      swap1\n      pop\n        /* \"#utility.yul\":1383:1460   */\n      swap2\n      swap1\n      pop\n      jump\t// out\n        /* \"#utility.yul\":1466:1584   */\n    tag_31:\n        /* \"#utility.yul\":1553:1577   */\n      tag_55\n        /* \"#utility.yul\":1571:1576   */\n      dup2\n        /* \"#utility.yul\":1553:1577   */\n      tag_30\n      jump\t// in\n    tag_55:\n        /* \"#utility.yul\":1548:1551   */\n      dup3\n        /* \"#utility.yul\":1541:1578   */\n      mstore\n        /* \"#utility.yul\":1466:1584   */\n      pop\n      pop\n      jump\t// out\n        /* \"#utility.yul\":1590:2032   */\n    tag_13:\n        /* \"#utility.yul\":1739:1743   */\n      0x00\n        /* \"#utility.yul\":1777:1779   */\n      0x60\n        /* \"#utility.yul\":1766:1775   */\n      dup3\n        /* \"#utility.yul\":1762:1780   */\n      add\n        /* \"#utility.yul\":1754:1780   */\n      swap1\n      pop\n        /* \"#utility.yul\":1790:1861   */\n      tag_57\n        /* \"#utility.yul\":1858:1859   */\n      0x00\n        /* \"#utility.yul\":1847:1856   */\n      dup4\n        /* \"#utility.yul\":1843:1860   */\n      add\n        /* \"#utility.yul\":1834:1840   */\n      dup7\n        /* \"#utility.yul\":1790:1861   */\n      tag_29\n      jump\t// in\n    tag_57:\n        /* \"#utility.yul\":1871:1943   */\n      tag_58\n        /* \"#utility.yul\":1939:1941   */\n      0x20\n        /* \"#utility.yul\":1928:1937   */\n      dup4\n        /* \"#utility.yul\":1924:1942   */\n      add\n        /* \"#utility.yul\":1915:1921   */\n      dup6\n        /* \"#utility.yul\":1871:1943   */\n      tag_31\n      jump\t// in\n    tag_58:\n        /* \"#utility.yul\":1953:2025   */\n      tag_59\n        /* \"#utility.yul\":2021:2023   */\n      0x40\n        /* \"#utility.yul\":2010:2019   */\n      dup4\n        /* \"#utility.yul\":2006:2024   */\n      add\n        /* \"#utility.yul\":1997:2003   */\n      dup5\n        /* \"#utility.yul\":1953:2025   */\n      tag_31\n      jump\t// in\n    tag_59:\n        /* \"#utility.yul\":1590:2032   */\n      swap5\n      swap4\n      pop\n      pop\n      pop\n      pop\n      jump\t// out\n        /* \"#utility.yul\":2038:2218   */\n    tag_32:\n        /* \"#utility.yul\":2086:2163   */\n      0x4e487b7100000000000000000000000000000000000000000000000000000000\n        /* \"#utility.yul\":2083:2084   */\n      0x00\n        /* \"#utility.yul\":2076:2164   */\n      mstore\n        /* \"#utility.yul\":2183:2187   */\n      0x11\n        /* \"#utility.yul\":2180:2181   */\n      0x04\n        /* \"#utility.yul\":2173:2188   */\n      mstore\n        /* \"#utility.yul\":2207:2211   */\n      0x24\n        /* \"#utility.yul\":2204:2205   */\n      0x00\n        /* \"#utility.yul\":2197:2212   */\n      revert\n        /* \"#utility.yul\":2224:2418   */\n    tag_17:\n        /* \"#utility.yul\":2264:2268   */\n      0x00\n        /* \"#utility.yul\":2284:2304   */\n      tag_62\n        /* \"#utility.yul\":2302:2303   */\n      dup3\n        /* \"#utility.yul\":2284:2304   */\n      tag_30\n      jump\t// in\n    tag_62:\n        /* \"#utility.yul\":2279:2304   */\n      swap2\n      pop\n        /* \"#utility.yul\":2318:2338   */\n      tag_63\n        /* \"#utility.yul\":2336:2337   */\n      dup4\n        /* \"#utility.yul\":2318:2338   */\n      tag_30\n      jump\t// in\n    tag_63:\n        /* \"#utility.yul\":2313:2338   */\n      swap3\n      pop\n        /* \"#utility.yul\":2362:2363   */\n      dup3\n        /* \"#utility.yul\":2359:2360   */\n      dup3\n        /* \"#utility.yul\":2355:2364   */\n      sub\n        /* \"#utility.yul\":2347:2364   */\n      swap1\n      pop\n        /* \"#utility.yul\":2386:2387   */\n      dup2\n        /* \"#utility.yul\":2380:2384   */\n      dup2\n        /* \"#utility.yul\":2377:2388   */\n      gt\n        /* \"#utility.yul\":2374:2411   */\n      iszero\n      tag_64\n      jumpi\n        /* \"#utility.yul\":2391:2409   */\n      tag_65\n      tag_32\n      jump\t// in\n    tag_65:\n        /* \"#utility.yul\":2374:2411   */\n    tag_64:\n        /* \"#utility.yul\":2224:2418   */\n      swap3\n      swap2\n      pop\n      pop\n      jump\t// out\n        /* \"#utility.yul\":2424:2542   */\n    tag_33:\n        /* \"#utility.yul\":2511:2535   */\n      tag_67\n        /* \"#utility.yul\":2529:2534   */\n      dup2\n        /* \"#utility.yul\":2511:2535   */\n      tag_24\n      jump\t// in\n    tag_67:\n        /* \"#utility.yul\":2506:2509   */\n      dup3\n        /* \"#utility.yul\":2499:2536   */\n      mstore\n        /* \"#utility.yul\":2424:2542   */\n      pop\n      pop\n      jump\t// out\n        /* \"#utility.yul\":2548:2990   */\n    tag_20:\n        /* \"#utility.yul\":2697:2701   */\n      0x00\n        /* \"#utility.yul\":2735:2737   */\n      0x60\n        /* \"#utility.yul\":2724:2733   */\n      dup3\n        /* \"#utility.yul\":2720:2738   */\n      add\n        /* \"#utility.yul\":2712:2738   */\n      swap1\n      pop\n        /* \"#utility.yul\":2748:2819   */\n      tag_69\n        /* \"#utility.yul\":2816:2817   */\n      0x00\n        /* \"#utility.yul\":2805:2814   */\n      dup4\n        /* \"#utility.yul\":2801:2818   */\n      add\n        /* \"#utility.yul\":2792:2798   */\n      dup7\n        /* \"#utility.yul\":2748:2819   */\n      tag_33\n      jump\t// in\n    tag_69:\n        /* \"#utility.yul\":2829:2901   */\n      tag_70\n        /* \"#utility.yul\":2897:2899   */\n      0x20\n        /* \"#utility.yul\":2886:2895   */\n      dup4\n        /* \"#utility.yul\":2882:2900   */\n      add\n        /* \"#utility.yul\":2873:2879   */\n      dup6\n        /* \"#utility.yul\":2829:2901   */\n      tag_31\n      jump\t// in\n    tag_70:\n        /* \"#utility.yul\":2911:2983   */\n      tag_71\n        /* \"#utility.yul\":2979:2981   */\n      0x40\n        /* \"#utility.yul\":2968:2977   */\n      dup4\n        /* \"#utility.yul\":2964:2982   */\n      add\n        /* \"#utility.yul\":2955:2961   */\n      dup5\n        /* \"#utility.yul\":2911:2983   */\n      tag_31\n      jump\t// in\n    tag_71:\n        /* \"#utility.yul\":2548:2990   */\n      swap5\n      swap4\n      pop\n      pop\n      pop\n      pop\n      jump\t// out\n\n    auxdata: 0xa2646970667358221220df8623e027e45aef6f46a444296bf815cac1cc56dbd45df3213d131e5836e92764736f6c634300081a0033\n}\n",
				"bytecode": {
					"linkReferences": {},
					"object": "6080604052348015600e575f80fd5b506103b48061001c5f395ff3fe608060405234801561000f575f80fd5b5060043610610034575f3560e01c80634c0e5c4814610038578063cff1026514610054575b5f80fd5b610052600480360381019061004d9190610223565b610086565b005b61006e60048036038101906100699190610223565b6101a8565b60405161007d939291906102a5565b60405180910390f35b5f805f8381526020019081526020015f2090505f816002015414610108575f8160010154426100b59190610307565b90505f8260020154436100c89190610307565b90507fb808266179c9ed6e02e55bb5d5f3f001a957f7c026148d70c5e18d146f946da08483836040516100fd93929190610349565b60405180910390a150505b60405180606001604052803373ffffffffffffffffffffffffffffffffffffffff168152602001428152602001438152505f808481526020019081526020015f205f820151815f015f6101000a81548173ffffffffffffffffffffffffffffffffffffffff021916908373ffffffffffffffffffffffffffffffffffffffff16021790555060208201518160010155604082015181600201559050505050565b5f602052805f5260405f205f91509050805f015f9054906101000a900473ffffffffffffffffffffffffffffffffffffffff16908060010154908060020154905083565b5f80fd5b5f819050919050565b610202816101f0565b811461020c575f80fd5b50565b5f8135905061021d816101f9565b92915050565b5f60208284031215610238576102376101ec565b5b5f6102458482850161020f565b91505092915050565b5f73ffffffffffffffffffffffffffffffffffffffff82169050919050565b5f6102778261024e565b9050919050565b6102878161026d565b82525050565b5f819050919050565b61029f8161028d565b82525050565b5f6060820190506102b85f83018661027e565b6102c56020830185610296565b6102d26040830184610296565b949350505050565b7f4e487b71000000000000000000000000000000000000000000000000000000005f52601160045260245ffd5b5f6103118261028d565b915061031c8361028d565b9250828203905081811115610334576103336102da565b5b92915050565b610343816101f0565b82525050565b5f60608201905061035c5f83018661033a565b6103696020830185610296565b6103766040830184610296565b94935050505056fea2646970667358221220df8623e027e45aef6f46a444296bf815cac1cc56dbd45df3213d131e5836e92764736f6c634300081a0033",
					"opcodes": "PUSH1 0x80 PUSH1 0x40 MSTORE CALLVALUE DUP1 ISZERO PUSH1 0xE JUMPI PUSH0 DUP1 REVERT JUMPDEST POP PUSH2 0x3B4 DUP1 PUSH2 0x1C PUSH0 CODECOPY PUSH0 RETURN INVALID PUSH1 0x80 PUSH1 0x40 MSTORE CALLVALUE DUP1 ISZERO PUSH2 0xF JUMPI PUSH0 DUP1 REVERT JUMPDEST POP PUSH1 0x4 CALLDATASIZE LT PUSH2 0x34 JUMPI PUSH0 CALLDATALOAD PUSH1 0xE0 SHR DUP1 PUSH4 0x4C0E5C48 EQ PUSH2 0x38 JUMPI DUP1 PUSH4 0xCFF10265 EQ PUSH2 0x54 JUMPI JUMPDEST PUSH0 DUP1 REVERT JUMPDEST PUSH2 0x52 PUSH1 0x4 DUP1 CALLDATASIZE SUB DUP2 ADD SWAP1 PUSH2 0x4D SWAP2 SWAP1 PUSH2 0x223 JUMP JUMPDEST PUSH2 0x86 JUMP JUMPDEST STOP JUMPDEST PUSH2 0x6E PUSH1 0x4 DUP1 CALLDATASIZE SUB DUP2 ADD SWAP1 PUSH2 0x69 SWAP2 SWAP1 PUSH2 0x223 JUMP JUMPDEST PUSH2 0x1A8 JUMP JUMPDEST PUSH1 0x40 MLOAD PUSH2 0x7D SWAP4 SWAP3 SWAP2 SWAP1 PUSH2 0x2A5 JUMP JUMPDEST PUSH1 0x40 MLOAD DUP1 SWAP2 SUB SWAP1 RETURN JUMPDEST PUSH0 DUP1 PUSH0 DUP4 DUP2 MSTORE PUSH1 0x20 ADD SWAP1 DUP2 MSTORE PUSH1 0x20 ADD PUSH0 KECCAK256 SWAP1 POP PUSH0 DUP2 PUSH1 0x2 ADD SLOAD EQ PUSH2 0x108 JUMPI PUSH0 DUP2 PUSH1 0x1 ADD SLOAD TIMESTAMP PUSH2 0xB5 SWAP2 SWAP1 PUSH2 0x307 JUMP JUMPDEST SWAP1 POP PUSH0 DUP3 PUSH1 0x2 ADD SLOAD NUMBER PUSH2 0xC8 SWAP2 SWAP1 PUSH2 0x307 JUMP JUMPDEST SWAP1 POP PUSH32 0xB808266179C9ED6E02E55BB5D5F3F001A957F7C026148D70C5E18D146F946DA0 DUP5 DUP4 DUP4 PUSH1 0x40 MLOAD PUSH2 0xFD SWAP4 SWAP3 SWAP2 SWAP1 PUSH2 0x349 JUMP JUMPDEST PUSH1 0x40 MLOAD DUP1 SWAP2 SUB SWAP1 LOG1 POP POP JUMPDEST PUSH1 0x40 MLOAD DUP1 PUSH1 0x60 ADD PUSH1 0x40 MSTORE DUP1 CALLER PUSH20 0xFFFFFFFFFFFFFFFFFFFFFFFFFFFFFFFFFFFFFFFF AND DUP2 MSTORE PUSH1 0x20 ADD TIMESTAMP DUP2 MSTORE PUSH1 0x20 ADD NUMBER DUP2 MSTORE POP PUSH0 DUP1 DUP5 DUP2 MSTORE PUSH1 0x20 ADD SWAP1 DUP2 MSTORE PUSH1 0x20 ADD PUSH0 KECCAK256 PUSH0 DUP3 ADD MLOAD DUP2 PUSH0 ADD PUSH0 PUSH2 0x100 EXP DUP2 SLOAD DUP2 PUSH20 0xFFFFFFFFFFFFFFFFFFFFFFFFFFFFFFFFFFFFFFFF MUL NOT AND SWAP1 DUP4 PUSH20 0xFFFFFFFFFFFFFFFFFFFFFFFFFFFFFFFFFFFFFFFF AND MUL OR SWAP1 SSTORE POP PUSH1 0x20 DUP3 ADD MLOAD DUP2 PUSH1 0x1 ADD SSTORE PUSH1 0x40 DUP3 ADD MLOAD DUP2 PUSH1 0x2 ADD SSTORE SWAP1 POP POP POP POP JUMP JUMPDEST PUSH0 PUSH1 0x20 MSTORE DUP1 PUSH0 MSTORE PUSH1 0x40 PUSH0 KECCAK256 PUSH0 SWAP2 POP SWAP1 POP DUP1 PUSH0 ADD PUSH0 SWAP1 SLOAD SWAP1 PUSH2 0x100 EXP SWAP1 DIV PUSH20 0xFFFFFFFFFFFFFFFFFFFFFFFFFFFFFFFFFFFFFFFF AND SWAP1 DUP1 PUSH1 0x1 ADD SLOAD SWAP1 DUP1 PUSH1 0x2 ADD SLOAD SWAP1 POP DUP4 JUMP JUMPDEST PUSH0 DUP1 REVERT JUMPDEST PUSH0 DUP2 SWAP1 POP SWAP2 SWAP1 POP JUMP JUMPDEST PUSH2 0x202 DUP2 PUSH2 0x1F0 JUMP JUMPDEST DUP2 EQ PUSH2 0x20C JUMPI PUSH0 DUP1 REVERT JUMPDEST POP JUMP JUMPDEST PUSH0 DUP2 CALLDATALOAD SWAP1 POP PUSH2 0x21D DUP2 PUSH2 0x1F9 JUMP JUMPDEST SWAP3 SWAP2 POP POP JUMP JUMPDEST PUSH0 PUSH1 0x20 DUP3 DUP5 SUB SLT ISZERO PUSH2 0x238 JUMPI PUSH2 0x237 PUSH2 0x1EC JUMP JUMPDEST JUMPDEST PUSH0 PUSH2 0x245 DUP5 DUP3 DUP6 ADD PUSH2 0x20F JUMP JUMPDEST SWAP2 POP POP SWAP3 SWAP2 POP POP JUMP JUMPDEST PUSH0 PUSH20 0xFFFFFFFFFFFFFFFFFFFFFFFFFFFFFFFFFFFFFFFF DUP3 AND SWAP1 POP SWAP2 SWAP1 POP JUMP JUMPDEST PUSH0 PUSH2 0x277 DUP3 PUSH2 0x24E JUMP JUMPDEST SWAP1 POP SWAP2 SWAP1 POP JUMP JUMPDEST PUSH2 0x287 DUP2 PUSH2 0x26D JUMP JUMPDEST DUP3 MSTORE POP POP JUMP JUMPDEST PUSH0 DUP2 SWAP1 POP SWAP2 SWAP1 POP JUMP JUMPDEST PUSH2 0x29F DUP2 PUSH2 0x28D JUMP JUMPDEST DUP3 MSTORE POP POP JUMP JUMPDEST PUSH0 PUSH1 0x60 DUP3 ADD SWAP1 POP PUSH2 0x2B8 PUSH0 DUP4 ADD DUP7 PUSH2 0x27E JUMP JUMPDEST PUSH2 0x2C5 PUSH1 0x20 DUP4 ADD DUP6 PUSH2 0x296 JUMP JUMPDEST PUSH2 0x2D2 PUSH1 0x40 DUP4 ADD DUP5 PUSH2 0x296 JUMP JUMPDEST SWAP5 SWAP4 POP POP POP POP JUMP JUMPDEST PUSH32 0x4E487B7100000000000000000000000000000000000000000000000000000000 PUSH0 MSTORE PUSH1 0x11 PUSH1 0x4 MSTORE PUSH1 0x24 PUSH0 REVERT JUMPDEST PUSH0 PUSH2 0x311 DUP3 PUSH2 0x28D JUMP JUMPDEST SWAP2 POP PUSH2 0x31C DUP4 PUSH2 0x28D JUMP JUMPDEST SWAP3 POP DUP3 DUP3 SUB SWAP1 POP DUP2 DUP2 GT ISZERO PUSH2 0x334 JUMPI PUSH2 0x333 PUSH2 0x2DA JUMP JUMPDEST JUMPDEST SWAP3 SWAP2 POP POP JUMP JUMPDEST PUSH2 0x343 DUP2 PUSH2 0x1F0 JUMP JUMPDEST DUP3 MSTORE POP POP JUMP JUMPDEST PUSH0 PUSH1 0x60 DUP3 ADD SWAP1 POP PUSH2 0x35C PUSH0 DUP4 ADD DUP7 PUSH2 0x33A JUMP JUMPDEST PUSH2 0x369 PUSH1 0x20 DUP4 ADD DUP6 PUSH2 0x296 JUMP JUMPDEST PUSH2 0x376 PUSH1 0x40 DUP4 ADD DUP5 PUSH2 0x296 JUMP JUMPDEST SWAP5 SWAP4 POP POP POP POP JUMP INVALID LOG2 PUSH5 0x6970667358 0x22 SLT KECCAK256 0xDF DUP7 0x23 0xE0 0x27 0xE4 GAS 0xEF PUSH16 0x46A444296BF815CAC1CC56DBD45DF321 RETURNDATASIZE SGT 0x1E PC CALLDATASIZE 0xE9 0x27 PUSH5 0x736F6C6343 STOP ADDMOD BYTE STOP CALLER "
				},
				"gasEstimates": {
					"creation": {
						"codeDepositCost": "189600",
						"executionCost": "230",
						"totalCost": "189830"
					},
					"external": {
						"calls(bytes32)": "infinite",
						"logCall(bytes32)": "infinite"
					}
				},
				"methodIdentifiers": {
					"calls(bytes32)": "cff10265",
					"logCall(bytes32)": "4c0e5c48"
				}
			},
			"storageLayout": {
				"storage": [
					{
						"astId": 13,
						"contract": "R/RaceCondition/RaceTimelineTracker.sol:RaceTimelineTracker",
						"label": "calls",
						"offset": 0,
						"slot": "0",
						"type": "t_mapping(t_bytes32,t_struct(CallLog)8_storage)"
					}
				],
				"types": {
					"t_address": {
						"encoding": "inplace",
						"label": "address",
						"numberOfBytes": "20"
					},
					"t_bytes32": {
						"encoding": "inplace",
						"label": "bytes32",
						"numberOfBytes": "32"
					},
					"t_mapping(t_bytes32,t_struct(CallLog)8_storage)": {
						"encoding": "mapping",
						"key": "t_bytes32",
						"label": "mapping(bytes32 => struct RaceTimelineTracker.CallLog)",
						"numberOfBytes": "32",
						"value": "t_struct(CallLog)8_storage"
					},
					"t_struct(CallLog)8_storage": {
						"encoding": "inplace",
						"label": "struct RaceTimelineTracker.CallLog",
						"members": [
							{
								"astId": 3,
								"contract": "R/RaceCondition/RaceTimelineTracker.sol:RaceTimelineTracker",
								"label": "caller",
								"offset": 0,
								"slot": "0",
								"type": "t_address"
							},
							{
								"astId": 5,
								"contract": "R/RaceCondition/RaceTimelineTracker.sol:RaceTimelineTracker",
								"label": "timestamp",
								"offset": 0,
								"slot": "1",
								"type": "t_uint256"
							},
							{
								"astId": 7,
								"contract": "R/RaceCondition/RaceTimelineTracker.sol:RaceTimelineTracker",
								"label": "blockNumber",
								"offset": 0,
								"slot": "2",
								"type": "t_uint256"
							}
						],
						"numberOfBytes": "96"
					},
					"t_uint256": {
						"encoding": "inplace",
						"label": "uint256",
						"numberOfBytes": "32"
					}
				}
			},
			"userdoc": {
				"kind": "user",
				"methods": {},
				"version": 1
			}
		}
	}
}