{
	"R/RaceCondition/raceUplink.sol": {
		"RaceUplink": {
			"abi": [
				{
					"anonymous": false,
					"inputs": [
						{
							"indexed": false,
							"internalType": "string",
							"name": "category",
							"type": "string"
						},
						{
							"indexed": true,
							"internalType": "address",
							"name": "origin",
							"type": "address"
						},
						{
							"indexed": false,
							"internalType": "bytes4",
							"name": "selector",
							"type": "bytes4"
						},
						{
							"indexed": false,
							"internalType": "uint256",
							"name": "blockNum",
							"type": "uint256"
						},
						{
							"indexed": false,
							"internalType": "string",
							"name": "note",
							"type": "string"
						}
					],
					"name": "RaceLog",
					"type": "event"
				},
				{
					"inputs": [
						{
							"internalType": "string",
							"name": "cat",
							"type": "string"
						},
						{
							"internalType": "bytes4",
							"name": "sel",
							"type": "bytes4"
						},
						{
							"internalType": "string",
							"name": "note",
							"type": "string"
						}
					],
					"name": "log",
					"outputs": [],
					"stateMutability": "nonpayable",
					"type": "function"
				}
			],
			"devdoc": {
				"kind": "dev",
				"methods": {},
				"version": 1
			},
			"evm": {
				"assembly": "    /* \"R/RaceCondition/raceUplink.sol\":58:342  contract RaceUplink {... */\n  mstore(0x40, 0x80)\n  callvalue\n  dup1\n  iszero\n  tag_1\n  jumpi\n  0x00\n  dup1\n  revert\ntag_1:\n  pop\n  dataSize(sub_0)\n  dup1\n  dataOffset(sub_0)\n  0x00\n  codecopy\n  0x00\n  return\nstop\n\nsub_0: assembly {\n        /* \"R/RaceCondition/raceUplink.sol\":58:342  contract RaceUplink {... */\n      mstore(0x40, 0x80)\n      callvalue\n      dup1\n      iszero\n      tag_1\n      jumpi\n      0x00\n      dup1\n      revert\n    tag_1:\n      pop\n      jumpi(tag_2, lt(calldatasize, 0x04))\n      shr(0xe0, calldataload(0x00))\n      dup1\n      0xbf54c8a0\n      eq\n      tag_3\n      jumpi\n    tag_2:\n      0x00\n      dup1\n      revert\n        /* \"R/RaceCondition/raceUplink.sol\":193:340  function log(string calldata cat, bytes4 sel, string calldata note) external {... */\n    tag_3:\n      tag_4\n      0x04\n      dup1\n      calldatasize\n      sub\n      dup2\n      add\n      swap1\n      tag_5\n      swap2\n      swap1\n      tag_6\n      jump\t// in\n    tag_5:\n      tag_7\n      jump\t// in\n    tag_4:\n      stop\n    tag_7:\n        /* \"R/RaceCondition/raceUplink.sol\":298:307  tx.origin */\n      origin\n        /* \"R/RaceCondition/raceUplink.sol\":285:333  RaceLog(cat, tx.origin, sel, block.number, note) */\n      0xffffffffffffffffffffffffffffffffffffffff\n      and\n      0x82a1399a997c383c94fc0b4c5c1112254e5f7e8dec8d24981fb767875b986ac7\n        /* \"R/RaceCondition/raceUplink.sol\":293:296  cat */\n      dup7\n      dup7\n        /* \"R/RaceCondition/raceUplink.sol\":309:312  sel */\n      dup7\n        /* \"R/RaceCondition/raceUplink.sol\":314:326  block.number */\n      number\n        /* \"R/RaceCondition/raceUplink.sol\":328:332  note */\n      dup8\n      dup8\n        /* \"R/RaceCondition/raceUplink.sol\":285:333  RaceLog(cat, tx.origin, sel, block.number, note) */\n      mload(0x40)\n      tag_9\n      swap7\n      swap6\n      swap5\n      swap4\n      swap3\n      swap2\n      swap1\n      tag_10\n      jump\t// in\n    tag_9:\n      mload(0x40)\n      dup1\n      swap2\n      sub\n      swap1\n      log2\n        /* \"R/RaceCondition/raceUplink.sol\":193:340  function log(string calldata cat, bytes4 sel, string calldata note) external {... */\n      pop\n      pop\n      pop\n      pop\n      pop\n      jump\t// out\n        /* \"#utility.yul\":88:205   */\n    tag_12:\n        /* \"#utility.yul\":197:198   */\n      0x00\n        /* \"#utility.yul\":194:195   */\n      dup1\n        /* \"#utility.yul\":187:199   */\n      revert\n        /* \"#utility.yul\":211:328   */\n    tag_13:\n        /* \"#utility.yul\":320:321   */\n      0x00\n        /* \"#utility.yul\":317:318   */\n      dup1\n        /* \"#utility.yul\":310:322   */\n      revert\n        /* \"#utility.yul\":334:451   */\n    tag_14:\n        /* \"#utility.yul\":443:444   */\n      0x00\n        /* \"#utility.yul\":440:441   */\n      dup1\n        /* \"#utility.yul\":433:445   */\n      revert\n        /* \"#utility.yul\":457:574   */\n    tag_15:\n        /* \"#utility.yul\":566:567   */\n      0x00\n        /* \"#utility.yul\":563:564   */\n      dup1\n        /* \"#utility.yul\":556:568   */\n      revert\n        /* \"#utility.yul\":580:697   */\n    tag_16:\n        /* \"#utility.yul\":689:690   */\n      0x00\n        /* \"#utility.yul\":686:687   */\n      dup1\n        /* \"#utility.yul\":679:691   */\n      revert\n        /* \"#utility.yul\":717:1270   */\n    tag_17:\n        /* \"#utility.yul\":775:783   */\n      0x00\n        /* \"#utility.yul\":785:791   */\n      dup1\n        /* \"#utility.yul\":835:838   */\n      dup4\n        /* \"#utility.yul\":828:832   */\n      0x1f\n        /* \"#utility.yul\":820:826   */\n      dup5\n        /* \"#utility.yul\":816:833   */\n      add\n        /* \"#utility.yul\":812:839   */\n      slt\n        /* \"#utility.yul\":802:924   */\n      tag_36\n      jumpi\n        /* \"#utility.yul\":843:922   */\n      tag_37\n      tag_14\n      jump\t// in\n    tag_37:\n        /* \"#utility.yul\":802:924   */\n    tag_36:\n        /* \"#utility.yul\":956:962   */\n      dup3\n        /* \"#utility.yul\":943:963   */\n      calldataload\n        /* \"#utility.yul\":933:963   */\n      swap1\n      pop\n        /* \"#utility.yul\":986:1004   */\n      0xffffffffffffffff\n        /* \"#utility.yul\":978:984   */\n      dup2\n        /* \"#utility.yul\":975:1005   */\n      gt\n        /* \"#utility.yul\":972:1089   */\n      iszero\n      tag_38\n      jumpi\n        /* \"#utility.yul\":1008:1087   */\n      tag_39\n      tag_15\n      jump\t// in\n    tag_39:\n        /* \"#utility.yul\":972:1089   */\n    tag_38:\n        /* \"#utility.yul\":1122:1126   */\n      0x20\n        /* \"#utility.yul\":1114:1120   */\n      dup4\n        /* \"#utility.yul\":1110:1127   */\n      add\n        /* \"#utility.yul\":1098:1127   */\n      swap2\n      pop\n        /* \"#utility.yul\":1176:1179   */\n      dup4\n        /* \"#utility.yul\":1168:1172   */\n      0x01\n        /* \"#utility.yul\":1160:1166   */\n      dup3\n        /* \"#utility.yul\":1156:1173   */\n      mul\n        /* \"#utility.yul\":1146:1154   */\n      dup4\n        /* \"#utility.yul\":1142:1174   */\n      add\n        /* \"#utility.yul\":1139:1180   */\n      gt\n        /* \"#utility.yul\":1136:1264   */\n      iszero\n      tag_40\n      jumpi\n        /* \"#utility.yul\":1183:1262   */\n      tag_41\n      tag_16\n      jump\t// in\n    tag_41:\n        /* \"#utility.yul\":1136:1264   */\n    tag_40:\n        /* \"#utility.yul\":717:1270   */\n      swap3\n      pop\n      swap3\n      swap1\n      pop\n      jump\t// out\n        /* \"#utility.yul\":1276:1425   */\n    tag_18:\n        /* \"#utility.yul\":1312:1319   */\n      0x00\n        /* \"#utility.yul\":1352:1418   */\n      0xffffffff00000000000000000000000000000000000000000000000000000000\n        /* \"#utility.yul\":1345:1350   */\n      dup3\n        /* \"#utility.yul\":1341:1419   */\n      and\n        /* \"#utility.yul\":1330:1419   */\n      swap1\n      pop\n        /* \"#utility.yul\":1276:1425   */\n      swap2\n      swap1\n      pop\n      jump\t// out\n        /* \"#utility.yul\":1431:1551   */\n    tag_19:\n        /* \"#utility.yul\":1503:1526   */\n      tag_44\n        /* \"#utility.yul\":1520:1525   */\n      dup2\n        /* \"#utility.yul\":1503:1526   */\n      tag_18\n      jump\t// in\n    tag_44:\n        /* \"#utility.yul\":1496:1501   */\n      dup2\n        /* \"#utility.yul\":1493:1527   */\n      eq\n        /* \"#utility.yul\":1483:1545   */\n      tag_45\n      jumpi\n        /* \"#utility.yul\":1541:1542   */\n      0x00\n        /* \"#utility.yul\":1538:1539   */\n      dup1\n        /* \"#utility.yul\":1531:1543   */\n      revert\n        /* \"#utility.yul\":1483:1545   */\n    tag_45:\n        /* \"#utility.yul\":1431:1551   */\n      pop\n      jump\t// out\n        /* \"#utility.yul\":1557:1694   */\n    tag_20:\n        /* \"#utility.yul\":1602:1607   */\n      0x00\n        /* \"#utility.yul\":1640:1646   */\n      dup2\n        /* \"#utility.yul\":1627:1647   */\n      calldataload\n        /* \"#utility.yul\":1618:1647   */\n      swap1\n      pop\n        /* \"#utility.yul\":1656:1688   */\n      tag_47\n        /* \"#utility.yul\":1682:1687   */\n      dup2\n        /* \"#utility.yul\":1656:1688   */\n      tag_19\n      jump\t// in\n    tag_47:\n        /* \"#utility.yul\":1557:1694   */\n      swap3\n      swap2\n      pop\n      pop\n      jump\t// out\n        /* \"#utility.yul\":1700:2717   */\n    tag_6:\n        /* \"#utility.yul\":1800:1806   */\n      0x00\n        /* \"#utility.yul\":1808:1814   */\n      dup1\n        /* \"#utility.yul\":1816:1822   */\n      0x00\n        /* \"#utility.yul\":1824:1830   */\n      dup1\n        /* \"#utility.yul\":1832:1838   */\n      0x00\n        /* \"#utility.yul\":1881:1883   */\n      0x60\n        /* \"#utility.yul\":1869:1878   */\n      dup7\n        /* \"#utility.yul\":1860:1867   */\n      dup9\n        /* \"#utility.yul\":1856:1879   */\n      sub\n        /* \"#utility.yul\":1852:1884   */\n      slt\n        /* \"#utility.yul\":1849:1968   */\n      iszero\n      tag_49\n      jumpi\n        /* \"#utility.yul\":1887:1966   */\n      tag_50\n      tag_12\n      jump\t// in\n    tag_50:\n        /* \"#utility.yul\":1849:1968   */\n    tag_49:\n        /* \"#utility.yul\":2035:2036   */\n      0x00\n        /* \"#utility.yul\":2024:2033   */\n      dup7\n        /* \"#utility.yul\":2020:2037   */\n      add\n        /* \"#utility.yul\":2007:2038   */\n      calldataload\n        /* \"#utility.yul\":2065:2083   */\n      0xffffffffffffffff\n        /* \"#utility.yul\":2057:2063   */\n      dup2\n        /* \"#utility.yul\":2054:2084   */\n      gt\n        /* \"#utility.yul\":2051:2168   */\n      iszero\n      tag_51\n      jumpi\n        /* \"#utility.yul\":2087:2166   */\n      tag_52\n      tag_13\n      jump\t// in\n    tag_52:\n        /* \"#utility.yul\":2051:2168   */\n    tag_51:\n        /* \"#utility.yul\":2200:2265   */\n      tag_53\n        /* \"#utility.yul\":2257:2264   */\n      dup9\n        /* \"#utility.yul\":2248:2254   */\n      dup3\n        /* \"#utility.yul\":2237:2246   */\n      dup10\n        /* \"#utility.yul\":2233:2255   */\n      add\n        /* \"#utility.yul\":2200:2265   */\n      tag_17\n      jump\t// in\n    tag_53:\n        /* \"#utility.yul\":2182:2265   */\n      swap6\n      pop\n      swap6\n      pop\n        /* \"#utility.yul\":1978:2275   */\n      pop\n        /* \"#utility.yul\":2314:2316   */\n      0x20\n        /* \"#utility.yul\":2340:2392   */\n      tag_54\n        /* \"#utility.yul\":2384:2391   */\n      dup9\n        /* \"#utility.yul\":2375:2381   */\n      dup3\n        /* \"#utility.yul\":2364:2373   */\n      dup10\n        /* \"#utility.yul\":2360:2382   */\n      add\n        /* \"#utility.yul\":2340:2392   */\n      tag_20\n      jump\t// in\n    tag_54:\n        /* \"#utility.yul\":2330:2392   */\n      swap4\n      pop\n        /* \"#utility.yul\":2285:2402   */\n      pop\n        /* \"#utility.yul\":2469:2471   */\n      0x40\n        /* \"#utility.yul\":2458:2467   */\n      dup7\n        /* \"#utility.yul\":2454:2472   */\n      add\n        /* \"#utility.yul\":2441:2473   */\n      calldataload\n        /* \"#utility.yul\":2500:2518   */\n      0xffffffffffffffff\n        /* \"#utility.yul\":2492:2498   */\n      dup2\n        /* \"#utility.yul\":2489:2519   */\n      gt\n        /* \"#utility.yul\":2486:2603   */\n      iszero\n      tag_55\n      jumpi\n        /* \"#utility.yul\":2522:2601   */\n      tag_56\n      tag_13\n      jump\t// in\n    tag_56:\n        /* \"#utility.yul\":2486:2603   */\n    tag_55:\n        /* \"#utility.yul\":2635:2700   */\n      tag_57\n        /* \"#utility.yul\":2692:2699   */\n      dup9\n        /* \"#utility.yul\":2683:2689   */\n      dup3\n        /* \"#utility.yul\":2672:2681   */\n      dup10\n        /* \"#utility.yul\":2668:2690   */\n      add\n        /* \"#utility.yul\":2635:2700   */\n      tag_17\n      jump\t// in\n    tag_57:\n        /* \"#utility.yul\":2617:2700   */\n      swap3\n      pop\n      swap3\n      pop\n        /* \"#utility.yul\":2412:2710   */\n      pop\n        /* \"#utility.yul\":1700:2717   */\n      swap3\n      swap6\n      pop\n      swap3\n      swap6\n      swap1\n      swap4\n      pop\n      jump\t// out\n        /* \"#utility.yul\":2723:2892   */\n    tag_21:\n        /* \"#utility.yul\":2807:2818   */\n      0x00\n        /* \"#utility.yul\":2841:2847   */\n      dup3\n        /* \"#utility.yul\":2836:2839   */\n      dup3\n        /* \"#utility.yul\":2829:2848   */\n      mstore\n        /* \"#utility.yul\":2881:2885   */\n      0x20\n        /* \"#utility.yul\":2876:2879   */\n      dup3\n        /* \"#utility.yul\":2872:2886   */\n      add\n        /* \"#utility.yul\":2857:2886   */\n      swap1\n      pop\n        /* \"#utility.yul\":2723:2892   */\n      swap3\n      swap2\n      pop\n      pop\n      jump\t// out\n        /* \"#utility.yul\":2898:3046   */\n    tag_22:\n        /* \"#utility.yul\":2996:3002   */\n      dup3\n        /* \"#utility.yul\":2991:2994   */\n      dup2\n        /* \"#utility.yul\":2986:2989   */\n      dup4\n        /* \"#utility.yul\":2973:3003   */\n      calldatacopy\n        /* \"#utility.yul\":3037:3038   */\n      0x00\n        /* \"#utility.yul\":3028:3034   */\n      dup4\n        /* \"#utility.yul\":3023:3026   */\n      dup4\n        /* \"#utility.yul\":3019:3035   */\n      add\n        /* \"#utility.yul\":3012:3039   */\n      mstore\n        /* \"#utility.yul\":2898:3046   */\n      pop\n      pop\n      pop\n      jump\t// out\n        /* \"#utility.yul\":3052:3154   */\n    tag_23:\n        /* \"#utility.yul\":3093:3099   */\n      0x00\n        /* \"#utility.yul\":3144:3146   */\n      0x1f\n        /* \"#utility.yul\":3140:3147   */\n      not\n        /* \"#utility.yul\":3135:3137   */\n      0x1f\n        /* \"#utility.yul\":3128:3133   */\n      dup4\n        /* \"#utility.yul\":3124:3138   */\n      add\n        /* \"#utility.yul\":3120:3148   */\n      and\n        /* \"#utility.yul\":3110:3148   */\n      swap1\n      pop\n        /* \"#utility.yul\":3052:3154   */\n      swap2\n      swap1\n      pop\n      jump\t// out\n        /* \"#utility.yul\":3184:3501   */\n    tag_24:\n        /* \"#utility.yul\":3282:3285   */\n      0x00\n        /* \"#utility.yul\":3303:3374   */\n      tag_62\n        /* \"#utility.yul\":3367:3373   */\n      dup4\n        /* \"#utility.yul\":3362:3365   */\n      dup6\n        /* \"#utility.yul\":3303:3374   */\n      tag_21\n      jump\t// in\n    tag_62:\n        /* \"#utility.yul\":3296:3374   */\n      swap4\n      pop\n        /* \"#utility.yul\":3384:3440   */\n      tag_63\n        /* \"#utility.yul\":3433:3439   */\n      dup4\n        /* \"#utility.yul\":3428:3431   */\n      dup6\n        /* \"#utility.yul\":3421:3426   */\n      dup5\n        /* \"#utility.yul\":3384:3440   */\n      tag_22\n      jump\t// in\n    tag_63:\n        /* \"#utility.yul\":3465:3494   */\n      tag_64\n        /* \"#utility.yul\":3487:3493   */\n      dup4\n        /* \"#utility.yul\":3465:3494   */\n      tag_23\n      jump\t// in\n    tag_64:\n        /* \"#utility.yul\":3460:3463   */\n      dup5\n        /* \"#utility.yul\":3456:3495   */\n      add\n        /* \"#utility.yul\":3449:3495   */\n      swap1\n      pop\n        /* \"#utility.yul\":3184:3501   */\n      swap4\n      swap3\n      pop\n      pop\n      pop\n      jump\t// out\n        /* \"#utility.yul\":3507:3622   */\n    tag_25:\n        /* \"#utility.yul\":3592:3615   */\n      tag_66\n        /* \"#utility.yul\":3609:3614   */\n      dup2\n        /* \"#utility.yul\":3592:3615   */\n      tag_18\n      jump\t// in\n    tag_66:\n        /* \"#utility.yul\":3587:3590   */\n      dup3\n        /* \"#utility.yul\":3580:3616   */\n      mstore\n        /* \"#utility.yul\":3507:3622   */\n      pop\n      pop\n      jump\t// out\n        /* \"#utility.yul\":3628:3705   */\n    tag_26:\n        /* \"#utility.yul\":3665:3672   */\n      0x00\n        /* \"#utility.yul\":3694:3699   */\n      dup2\n        /* \"#utility.yul\":3683:3699   */\n      swap1\n      pop\n        /* \"#utility.yul\":3628:3705   */\n      swap2\n      swap1\n      pop\n      jump\t// out\n        /* \"#utility.yul\":3711:3829   */\n    tag_27:\n        /* \"#utility.yul\":3798:3822   */\n      tag_69\n        /* \"#utility.yul\":3816:3821   */\n      dup2\n        /* \"#utility.yul\":3798:3822   */\n      tag_26\n      jump\t// in\n    tag_69:\n        /* \"#utility.yul\":3793:3796   */\n      dup3\n        /* \"#utility.yul\":3786:3823   */\n      mstore\n        /* \"#utility.yul\":3711:3829   */\n      pop\n      pop\n      jump\t// out\n        /* \"#utility.yul\":3835:4606   */\n    tag_10:\n        /* \"#utility.yul\":4070:4074   */\n      0x00\n        /* \"#utility.yul\":4108:4111   */\n      0x80\n        /* \"#utility.yul\":4097:4106   */\n      dup3\n        /* \"#utility.yul\":4093:4112   */\n      add\n        /* \"#utility.yul\":4085:4112   */\n      swap1\n      pop\n        /* \"#utility.yul\":4158:4167   */\n      dup2\n        /* \"#utility.yul\":4152:4156   */\n      dup2\n        /* \"#utility.yul\":4148:4168   */\n      sub\n        /* \"#utility.yul\":4144:4145   */\n      0x00\n        /* \"#utility.yul\":4133:4142   */\n      dup4\n        /* \"#utility.yul\":4129:4146   */\n      add\n        /* \"#utility.yul\":4122:4169   */\n      mstore\n        /* \"#utility.yul\":4186:4274   */\n      tag_71\n        /* \"#utility.yul\":4269:4273   */\n      dup2\n        /* \"#utility.yul\":4260:4266   */\n      dup9\n        /* \"#utility.yul\":4252:4258   */\n      dup11\n        /* \"#utility.yul\":4186:4274   */\n      tag_24\n      jump\t// in\n    tag_71:\n        /* \"#utility.yul\":4178:4274   */\n      swap1\n      pop\n        /* \"#utility.yul\":4284:4354   */\n      tag_72\n        /* \"#utility.yul\":4350:4352   */\n      0x20\n        /* \"#utility.yul\":4339:4348   */\n      dup4\n        /* \"#utility.yul\":4335:4353   */\n      add\n        /* \"#utility.yul\":4326:4332   */\n      dup8\n        /* \"#utility.yul\":4284:4354   */\n      tag_25\n      jump\t// in\n    tag_72:\n        /* \"#utility.yul\":4364:4436   */\n      tag_73\n        /* \"#utility.yul\":4432:4434   */\n      0x40\n        /* \"#utility.yul\":4421:4430   */\n      dup4\n        /* \"#utility.yul\":4417:4435   */\n      add\n        /* \"#utility.yul\":4408:4414   */\n      dup7\n        /* \"#utility.yul\":4364:4436   */\n      tag_27\n      jump\t// in\n    tag_73:\n        /* \"#utility.yul\":4483:4492   */\n      dup2\n        /* \"#utility.yul\":4477:4481   */\n      dup2\n        /* \"#utility.yul\":4473:4493   */\n      sub\n        /* \"#utility.yul\":4468:4470   */\n      0x60\n        /* \"#utility.yul\":4457:4466   */\n      dup4\n        /* \"#utility.yul\":4453:4471   */\n      add\n        /* \"#utility.yul\":4446:4494   */\n      mstore\n        /* \"#utility.yul\":4511:4599   */\n      tag_74\n        /* \"#utility.yul\":4594:4598   */\n      dup2\n        /* \"#utility.yul\":4585:4591   */\n      dup5\n        /* \"#utility.yul\":4577:4583   */\n      dup7\n        /* \"#utility.yul\":4511:4599   */\n      tag_24\n      jump\t// in\n    tag_74:\n        /* \"#utility.yul\":4503:4599   */\n      swap1\n      pop\n        /* \"#utility.yul\":3835:4606   */\n      swap8\n      swap7\n      pop\n      pop\n      pop\n      pop\n      pop\n      pop\n      pop\n      jump\t// out\n\n    auxdata: 0xa2646970667358221220f9e0e0efe377a75bf348a903aef0d556880ff066ea2e8ef305a6e276e57d834664736f6c634300081a0033\n}\n",
				"bytecode": {
					"linkReferences": {},
					"object": "6080604052348015600e575f80fd5b506103038061001c5f395ff3fe608060405234801561000f575f80fd5b5060043610610029575f3560e01c8063bf54c8a01461002d575b5f80fd5b61004760048036038101906100429190610166565b610049565b005b3273ffffffffffffffffffffffffffffffffffffffff167f82a1399a997c383c94fc0b4c5c1112254e5f7e8dec8d24981fb767875b986ac786868643878760405161009996959493929190610278565b60405180910390a25050505050565b5f80fd5b5f80fd5b5f80fd5b5f80fd5b5f80fd5b5f8083601f8401126100d1576100d06100b0565b5b8235905067ffffffffffffffff8111156100ee576100ed6100b4565b5b60208301915083600182028301111561010a576101096100b8565b5b9250929050565b5f7fffffffff0000000000000000000000000000000000000000000000000000000082169050919050565b61014581610111565b811461014f575f80fd5b50565b5f813590506101608161013c565b92915050565b5f805f805f6060868803121561017f5761017e6100a8565b5b5f86013567ffffffffffffffff81111561019c5761019b6100ac565b5b6101a8888289016100bc565b955095505060206101bb88828901610152565b935050604086013567ffffffffffffffff8111156101dc576101db6100ac565b5b6101e8888289016100bc565b92509250509295509295909350565b5f82825260208201905092915050565b828183375f83830152505050565b5f601f19601f8301169050919050565b5f61023083856101f7565b935061023d838584610207565b61024683610215565b840190509392505050565b61025a81610111565b82525050565b5f819050919050565b61027281610260565b82525050565b5f6080820190508181035f83015261029181888a610225565b90506102a06020830187610251565b6102ad6040830186610269565b81810360608301526102c0818486610225565b905097965050505050505056fea2646970667358221220f9e0e0efe377a75bf348a903aef0d556880ff066ea2e8ef305a6e276e57d834664736f6c634300081a0033",
					"opcodes": "PUSH1 0x80 PUSH1 0x40 MSTORE CALLVALUE DUP1 ISZERO PUSH1 0xE JUMPI PUSH0 DUP1 REVERT JUMPDEST POP PUSH2 0x303 DUP1 PUSH2 0x1C PUSH0 CODECOPY PUSH0 RETURN INVALID PUSH1 0x80 PUSH1 0x40 MSTORE CALLVALUE DUP1 ISZERO PUSH2 0xF JUMPI PUSH0 DUP1 REVERT JUMPDEST POP PUSH1 0x4 CALLDATASIZE LT PUSH2 0x29 JUMPI PUSH0 CALLDATALOAD PUSH1 0xE0 SHR DUP1 PUSH4 0xBF54C8A0 EQ PUSH2 0x2D JUMPI JUMPDEST PUSH0 DUP1 REVERT JUMPDEST PUSH2 0x47 PUSH1 0x4 DUP1 CALLDATASIZE SUB DUP2 ADD SWAP1 PUSH2 0x42 SWAP2 SWAP1 PUSH2 0x166 JUMP JUMPDEST PUSH2 0x49 JUMP JUMPDEST STOP JUMPDEST ORIGIN PUSH20 0xFFFFFFFFFFFFFFFFFFFFFFFFFFFFFFFFFFFFFFFF AND PUSH32 0x82A1399A997C383C94FC0B4C5C1112254E5F7E8DEC8D24981FB767875B986AC7 DUP7 DUP7 DUP7 NUMBER DUP8 DUP8 PUSH1 0x40 MLOAD PUSH2 0x99 SWAP7 SWAP6 SWAP5 SWAP4 SWAP3 SWAP2 SWAP1 PUSH2 0x278 JUMP JUMPDEST PUSH1 0x40 MLOAD DUP1 SWAP2 SUB SWAP1 LOG2 POP POP POP POP POP JUMP JUMPDEST PUSH0 DUP1 REVERT JUMPDEST PUSH0 DUP1 REVERT JUMPDEST PUSH0 DUP1 REVERT JUMPDEST PUSH0 DUP1 REVERT JUMPDEST PUSH0 DUP1 REVERT JUMPDEST PUSH0 DUP1 DUP4 PUSH1 0x1F DUP5 ADD SLT PUSH2 0xD1 JUMPI PUSH2 0xD0 PUSH2 0xB0 JUMP JUMPDEST JUMPDEST DUP3 CALLDATALOAD SWAP1 POP PUSH8 0xFFFFFFFFFFFFFFFF DUP2 GT ISZERO PUSH2 0xEE JUMPI PUSH2 0xED PUSH2 0xB4 JUMP JUMPDEST JUMPDEST PUSH1 0x20 DUP4 ADD SWAP2 POP DUP4 PUSH1 0x1 DUP3 MUL DUP4 ADD GT ISZERO PUSH2 0x10A JUMPI PUSH2 0x109 PUSH2 0xB8 JUMP JUMPDEST JUMPDEST SWAP3 POP SWAP3 SWAP1 POP JUMP JUMPDEST PUSH0 PUSH32 0xFFFFFFFF00000000000000000000000000000000000000000000000000000000 DUP3 AND SWAP1 POP SWAP2 SWAP1 POP JUMP JUMPDEST PUSH2 0x145 DUP2 PUSH2 0x111 JUMP JUMPDEST DUP2 EQ PUSH2 0x14F JUMPI PUSH0 DUP1 REVERT JUMPDEST POP JUMP JUMPDEST PUSH0 DUP2 CALLDATALOAD SWAP1 POP PUSH2 0x160 DUP2 PUSH2 0x13C JUMP JUMPDEST SWAP3 SWAP2 POP POP JUMP JUMPDEST PUSH0 DUP1 PUSH0 DUP1 PUSH0 PUSH1 0x60 DUP7 DUP9 SUB SLT ISZERO PUSH2 0x17F JUMPI PUSH2 0x17E PUSH2 0xA8 JUMP JUMPDEST JUMPDEST PUSH0 DUP7 ADD CALLDATALOAD PUSH8 0xFFFFFFFFFFFFFFFF DUP2 GT ISZERO PUSH2 0x19C JUMPI PUSH2 0x19B PUSH2 0xAC JUMP JUMPDEST JUMPDEST PUSH2 0x1A8 DUP9 DUP3 DUP10 ADD PUSH2 0xBC JUMP JUMPDEST SWAP6 POP SWAP6 POP POP PUSH1 0x20 PUSH2 0x1BB DUP9 DUP3 DUP10 ADD PUSH2 0x152 JUMP JUMPDEST SWAP4 POP POP PUSH1 0x40 DUP7 ADD CALLDATALOAD PUSH8 0xFFFFFFFFFFFFFFFF DUP2 GT ISZERO PUSH2 0x1DC JUMPI PUSH2 0x1DB PUSH2 0xAC JUMP JUMPDEST JUMPDEST PUSH2 0x1E8 DUP9 DUP3 DUP10 ADD PUSH2 0xBC JUMP JUMPDEST SWAP3 POP SWAP3 POP POP SWAP3 SWAP6 POP SWAP3 SWAP6 SWAP1 SWAP4 POP JUMP JUMPDEST PUSH0 DUP3 DUP3 MSTORE PUSH1 0x20 DUP3 ADD SWAP1 POP SWAP3 SWAP2 POP POP JUMP JUMPDEST DUP3 DUP2 DUP4 CALLDATACOPY PUSH0 DUP4 DUP4 ADD MSTORE POP POP POP JUMP JUMPDEST PUSH0 PUSH1 0x1F NOT PUSH1 0x1F DUP4 ADD AND SWAP1 POP SWAP2 SWAP1 POP JUMP JUMPDEST PUSH0 PUSH2 0x230 DUP4 DUP6 PUSH2 0x1F7 JUMP JUMPDEST SWAP4 POP PUSH2 0x23D DUP4 DUP6 DUP5 PUSH2 0x207 JUMP JUMPDEST PUSH2 0x246 DUP4 PUSH2 0x215 JUMP JUMPDEST DUP5 ADD SWAP1 POP SWAP4 SWAP3 POP POP POP JUMP JUMPDEST PUSH2 0x25A DUP2 PUSH2 0x111 JUMP JUMPDEST DUP3 MSTORE POP POP JUMP JUMPDEST PUSH0 DUP2 SWAP1 POP SWAP2 SWAP1 POP JUMP JUMPDEST PUSH2 0x272 DUP2 PUSH2 0x260 JUMP JUMPDEST DUP3 MSTORE POP POP JUMP JUMPDEST PUSH0 PUSH1 0x80 DUP3 ADD SWAP1 POP DUP2 DUP2 SUB PUSH0 DUP4 ADD MSTORE PUSH2 0x291 DUP2 DUP9 DUP11 PUSH2 0x225 JUMP JUMPDEST SWAP1 POP PUSH2 0x2A0 PUSH1 0x20 DUP4 ADD DUP8 PUSH2 0x251 JUMP JUMPDEST PUSH2 0x2AD PUSH1 0x40 DUP4 ADD DUP7 PUSH2 0x269 JUMP JUMPDEST DUP2 DUP2 SUB PUSH1 0x60 DUP4 ADD MSTORE PUSH2 0x2C0 DUP2 DUP5 DUP7 PUSH2 0x225 JUMP JUMPDEST SWAP1 POP SWAP8 SWAP7 POP POP POP POP POP POP POP JUMP INVALID LOG2 PUSH5 0x6970667358 0x22 SLT KECCAK256 0xF9 0xE0 0xE0 0xEF 0xE3 PUSH24 0xA75BF348A903AEF0D556880FF066EA2E8EF305A6E276E57D DUP4 CHAINID PUSH5 0x736F6C6343 STOP ADDMOD BYTE STOP CALLER "
				},
				"gasEstimates": {
					"creation": {
						"codeDepositCost": "154200",
						"executionCost": "200",
						"totalCost": "154400"
					},
					"external": {
						"log(string,bytes4,string)": "infinite"
					}
				},
				"methodIdentifiers": {
					"log(string,bytes4,string)": "bf54c8a0"
				}
			},
			"storageLayout": {
				"storage": [],
				"types": null
			},
			"userdoc": {
				"kind": "user",
				"methods": {},
				"version": 1
			}
		}
	}
}