{
	"A/Unauditable Black Box Contract.sol": {
		"UnauditableBank": {
			"abi": [
				{
					"inputs": [],
					"name": "deposit",
					"outputs": [],
					"stateMutability": "payable",
					"type": "function"
				},
				{
					"inputs": [
						{
							"internalType": "address",
							"name": "to",
							"type": "address"
						}
					],
					"name": "emergencyDrain",
					"outputs": [],
					"stateMutability": "nonpayable",
					"type": "function"
				},
				{
					"inputs": [
						{
							"internalType": "uint256",
							"name": "amount",
							"type": "uint256"
						}
					],
					"name": "withdraw",
					"outputs": [],
					"stateMutability": "nonpayable",
					"type": "function"
				}
			],
			"devdoc": {
				"kind": "dev",
				"methods": {},
				"version": 1
			},
			"evm": {
				"assembly": "    /* \"A/Unauditable Black Box Contract.sol\":58:645  contract UnauditableBank {... */\n  mstore(0x40, 0x80)\n  callvalue\n  dup1\n  iszero\n  tag_1\n  jumpi\n  revert(0x00, 0x00)\ntag_1:\n  pop\n  dataSize(sub_0)\n  dup1\n  dataOffset(sub_0)\n  0x00\n  codecopy\n  0x00\n  return\nstop\n\nsub_0: assembly {\n        /* \"A/Unauditable Black Box Contract.sol\":58:645  contract UnauditableBank {... */\n      mstore(0x40, 0x80)\n      jumpi(tag_1, lt(calldatasize, 0x04))\n      shr(0xe0, calldataload(0x00))\n      dup1\n      0x2e1a7d4d\n      eq\n      tag_2\n      jumpi\n      dup1\n      0x71a18bfb\n      eq\n      tag_3\n      jumpi\n      dup1\n      0xd0e30db0\n      eq\n      tag_4\n      jumpi\n    tag_1:\n      revert(0x00, 0x00)\n        /* \"A/Unauditable Black Box Contract.sol\":230:483  function withdraw(uint256 amount) public {... */\n    tag_2:\n      callvalue\n      dup1\n      iszero\n      tag_5\n      jumpi\n      revert(0x00, 0x00)\n    tag_5:\n      pop\n      tag_6\n      0x04\n      dup1\n      calldatasize\n      sub\n      dup2\n      add\n      swap1\n      tag_7\n      swap2\n      swap1\n      tag_8\n      jump\t// in\n    tag_7:\n      tag_9\n      jump\t// in\n    tag_6:\n      stop\n        /* \"A/Unauditable Black Box Contract.sol\":489:643  function emergencyDrain(address to) public {... */\n    tag_3:\n      callvalue\n      dup1\n      iszero\n      tag_10\n      jumpi\n      revert(0x00, 0x00)\n    tag_10:\n      pop\n      tag_11\n      0x04\n      dup1\n      calldatasize\n      sub\n      dup2\n      add\n      swap1\n      tag_12\n      swap2\n      swap1\n      tag_13\n      jump\t// in\n    tag_12:\n      tag_14\n      jump\t// in\n    tag_11:\n      stop\n        /* \"A/Unauditable Black Box Contract.sol\":140:224  function deposit() public payable {... */\n    tag_4:\n      tag_15\n      tag_16\n      jump\t// in\n    tag_15:\n      stop\n        /* \"A/Unauditable Black Box Contract.sol\":230:483  function withdraw(uint256 amount) public {... */\n    tag_9:\n        /* \"A/Unauditable Black Box Contract.sol\":313:319  amount */\n      dup1\n        /* \"A/Unauditable Black Box Contract.sol\":289:297  balances */\n      0x00\n        /* \"A/Unauditable Black Box Contract.sol\":289:309  balances[msg.sender] */\n      0x00\n        /* \"A/Unauditable Black Box Contract.sol\":298:308  msg.sender */\n      caller\n        /* \"A/Unauditable Black Box Contract.sol\":289:309  balances[msg.sender] */\n      0xffffffffffffffffffffffffffffffffffffffff\n      and\n      0xffffffffffffffffffffffffffffffffffffffff\n      and\n      dup2\n      mstore\n      0x20\n      add\n      swap1\n      dup2\n      mstore\n      0x20\n      add\n      0x00\n      keccak256\n      sload\n        /* \"A/Unauditable Black Box Contract.sol\":289:319  balances[msg.sender] >= amount */\n      lt\n      iszero\n        /* \"A/Unauditable Black Box Contract.sol\":281:336  require(balances[msg.sender] >= amount, \"Insufficient\") */\n      tag_18\n      jumpi\n      mload(0x40)\n      0x08c379a000000000000000000000000000000000000000000000000000000000\n      dup2\n      mstore\n      0x04\n      add\n      tag_19\n      swap1\n      tag_20\n      jump\t// in\n    tag_19:\n      mload(0x40)\n      dup1\n      swap2\n      sub\n      swap1\n      revert\n    tag_18:\n        /* \"A/Unauditable Black Box Contract.sol\":370:376  amount */\n      dup1\n        /* \"A/Unauditable Black Box Contract.sol\":346:354  balances */\n      0x00\n        /* \"A/Unauditable Black Box Contract.sol\":346:366  balances[msg.sender] */\n      0x00\n        /* \"A/Unauditable Black Box Contract.sol\":355:365  msg.sender */\n      caller\n        /* \"A/Unauditable Black Box Contract.sol\":346:366  balances[msg.sender] */\n      0xffffffffffffffffffffffffffffffffffffffff\n      and\n      0xffffffffffffffffffffffffffffffffffffffff\n      and\n      dup2\n      mstore\n      0x20\n      add\n      swap1\n      dup2\n      mstore\n      0x20\n      add\n      0x00\n      keccak256\n      0x00\n        /* \"A/Unauditable Black Box Contract.sol\":346:376  balances[msg.sender] -= amount */\n      dup3\n      dup3\n      sload\n      tag_21\n      swap2\n      swap1\n      tag_22\n      jump\t// in\n    tag_21:\n      swap3\n      pop\n      pop\n      dup2\n      swap1\n      sstore\n      pop\n        /* \"A/Unauditable Black Box Contract.sol\":394:404  msg.sender */\n      caller\n        /* \"A/Unauditable Black Box Contract.sol\":386:414  payable(msg.sender).transfer */\n      0xffffffffffffffffffffffffffffffffffffffff\n      and\n        /* \"A/Unauditable Black Box Contract.sol\":386:422  payable(msg.sender).transfer(amount) */\n      0x08fc\n        /* \"A/Unauditable Black Box Contract.sol\":415:421  amount */\n      dup3\n        /* \"A/Unauditable Black Box Contract.sol\":386:422  payable(msg.sender).transfer(amount) */\n      swap1\n      dup2\n      iszero\n      mul\n      swap1\n      mload(0x40)\n      0x00\n      mload(0x40)\n      dup1\n      dup4\n      sub\n      dup2\n      dup6\n      dup9\n      dup9\n      call\n      swap4\n      pop\n      pop\n      pop\n      pop\n      iszero\n      dup1\n      iszero\n      tag_24\n      jumpi\n      returndatacopy(0x00, 0x00, returndatasize)\n      revert(0x00, returndatasize)\n    tag_24:\n      pop\n        /* \"A/Unauditable Black Box Contract.sol\":230:483  function withdraw(uint256 amount) public {... */\n      pop\n      jump\t// out\n        /* \"A/Unauditable Black Box Contract.sol\":489:643  function emergencyDrain(address to) public {... */\n    tag_14:\n        /* \"A/Unauditable Black Box Contract.sol\":550:552  to */\n      dup1\n        /* \"A/Unauditable Black Box Contract.sol\":542:562  payable(to).transfer */\n      0xffffffffffffffffffffffffffffffffffffffff\n      and\n        /* \"A/Unauditable Black Box Contract.sol\":542:585  payable(to).transfer(address(this).balance) */\n      0x08fc\n        /* \"A/Unauditable Black Box Contract.sol\":563:584  address(this).balance */\n      selfbalance\n        /* \"A/Unauditable Black Box Contract.sol\":542:585  payable(to).transfer(address(this).balance) */\n      swap1\n      dup2\n      iszero\n      mul\n      swap1\n      mload(0x40)\n      0x00\n      mload(0x40)\n      dup1\n      dup4\n      sub\n      dup2\n      dup6\n      dup9\n      dup9\n      call\n      swap4\n      pop\n      pop\n      pop\n      pop\n      iszero\n      dup1\n      iszero\n      tag_27\n      jumpi\n      returndatacopy(0x00, 0x00, returndatasize)\n      revert(0x00, returndatasize)\n    tag_27:\n      pop\n        /* \"A/Unauditable Black Box Contract.sol\":489:643  function emergencyDrain(address to) public {... */\n      pop\n      jump\t// out\n        /* \"A/Unauditable Black Box Contract.sol\":140:224  function deposit() public payable {... */\n    tag_16:\n        /* \"A/Unauditable Black Box Contract.sol\":208:217  msg.value */\n      callvalue\n        /* \"A/Unauditable Black Box Contract.sol\":184:192  balances */\n      0x00\n        /* \"A/Unauditable Black Box Contract.sol\":184:204  balances[msg.sender] */\n      0x00\n        /* \"A/Unauditable Black Box Contract.sol\":193:203  msg.sender */\n      caller\n        /* \"A/Unauditable Black Box Contract.sol\":184:204  balances[msg.sender] */\n      0xffffffffffffffffffffffffffffffffffffffff\n      and\n      0xffffffffffffffffffffffffffffffffffffffff\n      and\n      dup2\n      mstore\n      0x20\n      add\n      swap1\n      dup2\n      mstore\n      0x20\n      add\n      0x00\n      keccak256\n      0x00\n        /* \"A/Unauditable Black Box Contract.sol\":184:217  balances[msg.sender] += msg.value */\n      dup3\n      dup3\n      sload\n      tag_29\n      swap2\n      swap1\n      tag_30\n      jump\t// in\n    tag_29:\n      swap3\n      pop\n      pop\n      dup2\n      swap1\n      sstore\n      pop\n        /* \"A/Unauditable Black Box Contract.sol\":140:224  function deposit() public payable {... */\n      jump\t// out\n        /* \"#utility.yul\":88:205   */\n    tag_32:\n        /* \"#utility.yul\":197:198   */\n      0x00\n        /* \"#utility.yul\":194:195   */\n      0x00\n        /* \"#utility.yul\":187:199   */\n      revert\n        /* \"#utility.yul\":334:411   */\n    tag_34:\n        /* \"#utility.yul\":371:378   */\n      0x00\n        /* \"#utility.yul\":400:405   */\n      dup2\n        /* \"#utility.yul\":389:405   */\n      swap1\n      pop\n        /* \"#utility.yul\":334:411   */\n      swap2\n      swap1\n      pop\n      jump\t// out\n        /* \"#utility.yul\":417:539   */\n    tag_35:\n        /* \"#utility.yul\":490:514   */\n      tag_51\n        /* \"#utility.yul\":508:513   */\n      dup2\n        /* \"#utility.yul\":490:514   */\n      tag_34\n      jump\t// in\n    tag_51:\n        /* \"#utility.yul\":483:488   */\n      dup2\n        /* \"#utility.yul\":480:515   */\n      eq\n        /* \"#utility.yul\":470:533   */\n      tag_52\n      jumpi\n        /* \"#utility.yul\":529:530   */\n      0x00\n        /* \"#utility.yul\":526:527   */\n      0x00\n        /* \"#utility.yul\":519:531   */\n      revert\n        /* \"#utility.yul\":470:533   */\n    tag_52:\n        /* \"#utility.yul\":417:539   */\n      pop\n      jump\t// out\n        /* \"#utility.yul\":545:684   */\n    tag_36:\n        /* \"#utility.yul\":591:596   */\n      0x00\n        /* \"#utility.yul\":629:635   */\n      dup2\n        /* \"#utility.yul\":616:636   */\n      calldataload\n        /* \"#utility.yul\":607:636   */\n      swap1\n      pop\n        /* \"#utility.yul\":645:678   */\n      tag_54\n        /* \"#utility.yul\":672:677   */\n      dup2\n        /* \"#utility.yul\":645:678   */\n      tag_35\n      jump\t// in\n    tag_54:\n        /* \"#utility.yul\":545:684   */\n      swap3\n      swap2\n      pop\n      pop\n      jump\t// out\n        /* \"#utility.yul\":690:1019   */\n    tag_8:\n        /* \"#utility.yul\":749:755   */\n      0x00\n        /* \"#utility.yul\":798:800   */\n      0x20\n        /* \"#utility.yul\":786:795   */\n      dup3\n        /* \"#utility.yul\":777:784   */\n      dup5\n        /* \"#utility.yul\":773:796   */\n      sub\n        /* \"#utility.yul\":769:801   */\n      slt\n        /* \"#utility.yul\":766:885   */\n      iszero\n      tag_56\n      jumpi\n        /* \"#utility.yul\":804:883   */\n      tag_57\n      tag_32\n      jump\t// in\n    tag_57:\n        /* \"#utility.yul\":766:885   */\n    tag_56:\n        /* \"#utility.yul\":924:925   */\n      0x00\n        /* \"#utility.yul\":949:1002   */\n      tag_58\n        /* \"#utility.yul\":994:1001   */\n      dup5\n        /* \"#utility.yul\":985:991   */\n      dup3\n        /* \"#utility.yul\":974:983   */\n      dup6\n        /* \"#utility.yul\":970:992   */\n      add\n        /* \"#utility.yul\":949:1002   */\n      tag_36\n      jump\t// in\n    tag_58:\n        /* \"#utility.yul\":939:1002   */\n      swap2\n      pop\n        /* \"#utility.yul\":895:1012   */\n      pop\n        /* \"#utility.yul\":690:1019   */\n      swap3\n      swap2\n      pop\n      pop\n      jump\t// out\n        /* \"#utility.yul\":1025:1151   */\n    tag_37:\n        /* \"#utility.yul\":1062:1069   */\n      0x00\n        /* \"#utility.yul\":1102:1144   */\n      0xffffffffffffffffffffffffffffffffffffffff\n        /* \"#utility.yul\":1095:1100   */\n      dup3\n        /* \"#utility.yul\":1091:1145   */\n      and\n        /* \"#utility.yul\":1080:1145   */\n      swap1\n      pop\n        /* \"#utility.yul\":1025:1151   */\n      swap2\n      swap1\n      pop\n      jump\t// out\n        /* \"#utility.yul\":1157:1253   */\n    tag_38:\n        /* \"#utility.yul\":1194:1201   */\n      0x00\n        /* \"#utility.yul\":1223:1247   */\n      tag_61\n        /* \"#utility.yul\":1241:1246   */\n      dup3\n        /* \"#utility.yul\":1223:1247   */\n      tag_37\n      jump\t// in\n    tag_61:\n        /* \"#utility.yul\":1212:1247   */\n      swap1\n      pop\n        /* \"#utility.yul\":1157:1253   */\n      swap2\n      swap1\n      pop\n      jump\t// out\n        /* \"#utility.yul\":1259:1381   */\n    tag_39:\n        /* \"#utility.yul\":1332:1356   */\n      tag_63\n        /* \"#utility.yul\":1350:1355   */\n      dup2\n        /* \"#utility.yul\":1332:1356   */\n      tag_38\n      jump\t// in\n    tag_63:\n        /* \"#utility.yul\":1325:1330   */\n      dup2\n        /* \"#utility.yul\":1322:1357   */\n      eq\n        /* \"#utility.yul\":1312:1375   */\n      tag_64\n      jumpi\n        /* \"#utility.yul\":1371:1372   */\n      0x00\n        /* \"#utility.yul\":1368:1369   */\n      0x00\n        /* \"#utility.yul\":1361:1373   */\n      revert\n        /* \"#utility.yul\":1312:1375   */\n    tag_64:\n        /* \"#utility.yul\":1259:1381   */\n      pop\n      jump\t// out\n        /* \"#utility.yul\":1387:1526   */\n    tag_40:\n        /* \"#utility.yul\":1433:1438   */\n      0x00\n        /* \"#utility.yul\":1471:1477   */\n      dup2\n        /* \"#utility.yul\":1458:1478   */\n      calldataload\n        /* \"#utility.yul\":1449:1478   */\n      swap1\n      pop\n        /* \"#utility.yul\":1487:1520   */\n      tag_66\n        /* \"#utility.yul\":1514:1519   */\n      dup2\n        /* \"#utility.yul\":1487:1520   */\n      tag_39\n      jump\t// in\n    tag_66:\n        /* \"#utility.yul\":1387:1526   */\n      swap3\n      swap2\n      pop\n      pop\n      jump\t// out\n        /* \"#utility.yul\":1532:1861   */\n    tag_13:\n        /* \"#utility.yul\":1591:1597   */\n      0x00\n        /* \"#utility.yul\":1640:1642   */\n      0x20\n        /* \"#utility.yul\":1628:1637   */\n      dup3\n        /* \"#utility.yul\":1619:1626   */\n      dup5\n        /* \"#utility.yul\":1615:1638   */\n      sub\n        /* \"#utility.yul\":1611:1643   */\n      slt\n        /* \"#utility.yul\":1608:1727   */\n      iszero\n      tag_68\n      jumpi\n        /* \"#utility.yul\":1646:1725   */\n      tag_69\n      tag_32\n      jump\t// in\n    tag_69:\n        /* \"#utility.yul\":1608:1727   */\n    tag_68:\n        /* \"#utility.yul\":1766:1767   */\n      0x00\n        /* \"#utility.yul\":1791:1844   */\n      tag_70\n        /* \"#utility.yul\":1836:1843   */\n      dup5\n        /* \"#utility.yul\":1827:1833   */\n      dup3\n        /* \"#utility.yul\":1816:1825   */\n      dup6\n        /* \"#utility.yul\":1812:1834   */\n      add\n        /* \"#utility.yul\":1791:1844   */\n      tag_40\n      jump\t// in\n    tag_70:\n        /* \"#utility.yul\":1781:1844   */\n      swap2\n      pop\n        /* \"#utility.yul\":1737:1854   */\n      pop\n        /* \"#utility.yul\":1532:1861   */\n      swap3\n      swap2\n      pop\n      pop\n      jump\t// out\n        /* \"#utility.yul\":1867:2036   */\n    tag_41:\n        /* \"#utility.yul\":1951:1962   */\n      0x00\n        /* \"#utility.yul\":1985:1991   */\n      dup3\n        /* \"#utility.yul\":1980:1983   */\n      dup3\n        /* \"#utility.yul\":1973:1992   */\n      mstore\n        /* \"#utility.yul\":2025:2029   */\n      0x20\n        /* \"#utility.yul\":2020:2023   */\n      dup3\n        /* \"#utility.yul\":2016:2030   */\n      add\n        /* \"#utility.yul\":2001:2030   */\n      swap1\n      pop\n        /* \"#utility.yul\":1867:2036   */\n      swap3\n      swap2\n      pop\n      pop\n      jump\t// out\n        /* \"#utility.yul\":2042:2204   */\n    tag_42:\n        /* \"#utility.yul\":2182:2196   */\n      0x496e73756666696369656e740000000000000000000000000000000000000000\n        /* \"#utility.yul\":2178:2179   */\n      0x00\n        /* \"#utility.yul\":2170:2176   */\n      dup3\n        /* \"#utility.yul\":2166:2180   */\n      add\n        /* \"#utility.yul\":2159:2197   */\n      mstore\n        /* \"#utility.yul\":2042:2204   */\n      pop\n      jump\t// out\n        /* \"#utility.yul\":2210:2576   */\n    tag_43:\n        /* \"#utility.yul\":2352:2355   */\n      0x00\n        /* \"#utility.yul\":2373:2440   */\n      tag_74\n        /* \"#utility.yul\":2437:2439   */\n      0x0c\n        /* \"#utility.yul\":2432:2435   */\n      dup4\n        /* \"#utility.yul\":2373:2440   */\n      tag_41\n      jump\t// in\n    tag_74:\n        /* \"#utility.yul\":2366:2440   */\n      swap2\n      pop\n        /* \"#utility.yul\":2449:2542   */\n      tag_75\n        /* \"#utility.yul\":2538:2541   */\n      dup3\n        /* \"#utility.yul\":2449:2542   */\n      tag_42\n      jump\t// in\n    tag_75:\n        /* \"#utility.yul\":2567:2569   */\n      0x20\n        /* \"#utility.yul\":2562:2565   */\n      dup3\n        /* \"#utility.yul\":2558:2570   */\n      add\n        /* \"#utility.yul\":2551:2570   */\n      swap1\n      pop\n        /* \"#utility.yul\":2210:2576   */\n      swap2\n      swap1\n      pop\n      jump\t// out\n        /* \"#utility.yul\":2582:3001   */\n    tag_20:\n        /* \"#utility.yul\":2748:2752   */\n      0x00\n        /* \"#utility.yul\":2786:2788   */\n      0x20\n        /* \"#utility.yul\":2775:2784   */\n      dup3\n        /* \"#utility.yul\":2771:2789   */\n      add\n        /* \"#utility.yul\":2763:2789   */\n      swap1\n      pop\n        /* \"#utility.yul\":2835:2844   */\n      dup2\n        /* \"#utility.yul\":2829:2833   */\n      dup2\n        /* \"#utility.yul\":2825:2845   */\n      sub\n        /* \"#utility.yul\":2821:2822   */\n      0x00\n        /* \"#utility.yul\":2810:2819   */\n      dup4\n        /* \"#utility.yul\":2806:2823   */\n      add\n        /* \"#utility.yul\":2799:2846   */\n      mstore\n        /* \"#utility.yul\":2863:2994   */\n      tag_77\n        /* \"#utility.yul\":2989:2993   */\n      dup2\n        /* \"#utility.yul\":2863:2994   */\n      tag_43\n      jump\t// in\n    tag_77:\n        /* \"#utility.yul\":2855:2994   */\n      swap1\n      pop\n        /* \"#utility.yul\":2582:3001   */\n      swap2\n      swap1\n      pop\n      jump\t// out\n        /* \"#utility.yul\":3007:3187   */\n    tag_44:\n        /* \"#utility.yul\":3055:3132   */\n      0x4e487b7100000000000000000000000000000000000000000000000000000000\n        /* \"#utility.yul\":3052:3053   */\n      0x00\n        /* \"#utility.yul\":3045:3133   */\n      mstore\n        /* \"#utility.yul\":3152:3156   */\n      0x11\n        /* \"#utility.yul\":3149:3150   */\n      0x04\n        /* \"#utility.yul\":3142:3157   */\n      mstore\n        /* \"#utility.yul\":3176:3180   */\n      0x24\n        /* \"#utility.yul\":3173:3174   */\n      0x00\n        /* \"#utility.yul\":3166:3181   */\n      revert\n        /* \"#utility.yul\":3193:3387   */\n    tag_22:\n        /* \"#utility.yul\":3233:3237   */\n      0x00\n        /* \"#utility.yul\":3253:3273   */\n      tag_80\n        /* \"#utility.yul\":3271:3272   */\n      dup3\n        /* \"#utility.yul\":3253:3273   */\n      tag_34\n      jump\t// in\n    tag_80:\n        /* \"#utility.yul\":3248:3273   */\n      swap2\n      pop\n        /* \"#utility.yul\":3287:3307   */\n      tag_81\n        /* \"#utility.yul\":3305:3306   */\n      dup4\n        /* \"#utility.yul\":3287:3307   */\n      tag_34\n      jump\t// in\n    tag_81:\n        /* \"#utility.yul\":3282:3307   */\n      swap3\n      pop\n        /* \"#utility.yul\":3331:3332   */\n      dup3\n        /* \"#utility.yul\":3328:3329   */\n      dup3\n        /* \"#utility.yul\":3324:3333   */\n      sub\n        /* \"#utility.yul\":3316:3333   */\n      swap1\n      pop\n        /* \"#utility.yul\":3355:3356   */\n      dup2\n        /* \"#utility.yul\":3349:3353   */\n      dup2\n        /* \"#utility.yul\":3346:3357   */\n      gt\n        /* \"#utility.yul\":3343:3380   */\n      iszero\n      tag_82\n      jumpi\n        /* \"#utility.yul\":3360:3378   */\n      tag_83\n      tag_44\n      jump\t// in\n    tag_83:\n        /* \"#utility.yul\":3343:3380   */\n    tag_82:\n        /* \"#utility.yul\":3193:3387   */\n      swap3\n      swap2\n      pop\n      pop\n      jump\t// out\n        /* \"#utility.yul\":3393:3584   */\n    tag_30:\n        /* \"#utility.yul\":3433:3436   */\n      0x00\n        /* \"#utility.yul\":3452:3472   */\n      tag_85\n        /* \"#utility.yul\":3470:3471   */\n      dup3\n        /* \"#utility.yul\":3452:3472   */\n      tag_34\n      jump\t// in\n    tag_85:\n        /* \"#utility.yul\":3447:3472   */\n      swap2\n      pop\n        /* \"#utility.yul\":3486:3506   */\n      tag_86\n        /* \"#utility.yul\":3504:3505   */\n      dup4\n        /* \"#utility.yul\":3486:3506   */\n      tag_34\n      jump\t// in\n    tag_86:\n        /* \"#utility.yul\":3481:3506   */\n      swap3\n      pop\n        /* \"#utility.yul\":3529:3530   */\n      dup3\n        /* \"#utility.yul\":3526:3527   */\n      dup3\n        /* \"#utility.yul\":3522:3531   */\n      add\n        /* \"#utility.yul\":3515:3531   */\n      swap1\n      pop\n        /* \"#utility.yul\":3550:3553   */\n      dup1\n        /* \"#utility.yul\":3547:3548   */\n      dup3\n        /* \"#utility.yul\":3544:3554   */\n      gt\n        /* \"#utility.yul\":3541:3577   */\n      iszero\n      tag_87\n      jumpi\n        /* \"#utility.yul\":3557:3575   */\n      tag_88\n      tag_44\n      jump\t// in\n    tag_88:\n        /* \"#utility.yul\":3541:3577   */\n    tag_87:\n        /* \"#utility.yul\":3393:3584   */\n      swap3\n      swap2\n      pop\n      pop\n      jump\t// out\n\n    auxdata: 0xa2646970667358221220631b2284d633810c737d92f0686707b9ec733c35dbbfe62699e35e61bdd414d564736f6c634300081d0033\n}\n",
				"bytecode": {
					"linkReferences": {},
					"object": "6080604052348015600e575f5ffd5b5061046c8061001c5f395ff3fe608060405260043610610033575f3560e01c80632e1a7d4d1461003757806371a18bfb1461005f578063d0e30db014610087575b5f5ffd5b348015610042575f5ffd5b5061005d6004803603810190610058919061027b565b610091565b005b34801561006a575f5ffd5b5061008560048036038101906100809190610300565b6101a9565b005b61008f6101f0565b005b805f5f3373ffffffffffffffffffffffffffffffffffffffff1673ffffffffffffffffffffffffffffffffffffffff1681526020019081526020015f20541015610110576040517f08c379a000000000000000000000000000000000000000000000000000000000815260040161010790610385565b60405180910390fd5b805f5f3373ffffffffffffffffffffffffffffffffffffffff1673ffffffffffffffffffffffffffffffffffffffff1681526020019081526020015f205f82825461015b91906103d0565b925050819055503373ffffffffffffffffffffffffffffffffffffffff166108fc8290811502906040515f60405180830381858888f193505050501580156101a5573d5f5f3e3d5ffd5b5050565b8073ffffffffffffffffffffffffffffffffffffffff166108fc4790811502906040515f60405180830381858888f193505050501580156101ec573d5f5f3e3d5ffd5b5050565b345f5f3373ffffffffffffffffffffffffffffffffffffffff1673ffffffffffffffffffffffffffffffffffffffff1681526020019081526020015f205f82825461023b9190610403565b92505081905550565b5f5ffd5b5f819050919050565b61025a81610248565b8114610264575f5ffd5b50565b5f8135905061027581610251565b92915050565b5f602082840312156102905761028f610244565b5b5f61029d84828501610267565b91505092915050565b5f73ffffffffffffffffffffffffffffffffffffffff82169050919050565b5f6102cf826102a6565b9050919050565b6102df816102c5565b81146102e9575f5ffd5b50565b5f813590506102fa816102d6565b92915050565b5f6020828403121561031557610314610244565b5b5f610322848285016102ec565b91505092915050565b5f82825260208201905092915050565b7f496e73756666696369656e7400000000000000000000000000000000000000005f82015250565b5f61036f600c8361032b565b915061037a8261033b565b602082019050919050565b5f6020820190508181035f83015261039c81610363565b9050919050565b7f4e487b71000000000000000000000000000000000000000000000000000000005f52601160045260245ffd5b5f6103da82610248565b91506103e583610248565b92508282039050818111156103fd576103fc6103a3565b5b92915050565b5f61040d82610248565b915061041883610248565b92508282019050808211156104305761042f6103a3565b5b9291505056fea2646970667358221220631b2284d633810c737d92f0686707b9ec733c35dbbfe62699e35e61bdd414d564736f6c634300081d0033",
					"opcodes": "PUSH1 0x80 PUSH1 0x40 MSTORE CALLVALUE DUP1 ISZERO PUSH1 0xE JUMPI PUSH0 PUSH0 REVERT JUMPDEST POP PUSH2 0x46C DUP1 PUSH2 0x1C PUSH0 CODECOPY PUSH0 RETURN INVALID PUSH1 0x80 PUSH1 0x40 MSTORE PUSH1 0x4 CALLDATASIZE LT PUSH2 0x33 JUMPI PUSH0 CALLDATALOAD PUSH1 0xE0 SHR DUP1 PUSH4 0x2E1A7D4D EQ PUSH2 0x37 JUMPI DUP1 PUSH4 0x71A18BFB EQ PUSH2 0x5F JUMPI DUP1 PUSH4 0xD0E30DB0 EQ PUSH2 0x87 JUMPI JUMPDEST PUSH0 PUSH0 REVERT JUMPDEST CALLVALUE DUP1 ISZERO PUSH2 0x42 JUMPI PUSH0 PUSH0 REVERT JUMPDEST POP PUSH2 0x5D PUSH1 0x4 DUP1 CALLDATASIZE SUB DUP2 ADD SWAP1 PUSH2 0x58 SWAP2 SWAP1 PUSH2 0x27B JUMP JUMPDEST PUSH2 0x91 JUMP JUMPDEST STOP JUMPDEST CALLVALUE DUP1 ISZERO PUSH2 0x6A JUMPI PUSH0 PUSH0 REVERT JUMPDEST POP PUSH2 0x85 PUSH1 0x4 DUP1 CALLDATASIZE SUB DUP2 ADD SWAP1 PUSH2 0x80 SWAP2 SWAP1 PUSH2 0x300 JUMP JUMPDEST PUSH2 0x1A9 JUMP JUMPDEST STOP JUMPDEST PUSH2 0x8F PUSH2 0x1F0 JUMP JUMPDEST STOP JUMPDEST DUP1 PUSH0 PUSH0 CALLER PUSH20 0xFFFFFFFFFFFFFFFFFFFFFFFFFFFFFFFFFFFFFFFF AND PUSH20 0xFFFFFFFFFFFFFFFFFFFFFFFFFFFFFFFFFFFFFFFF AND DUP2 MSTORE PUSH1 0x20 ADD SWAP1 DUP2 MSTORE PUSH1 0x20 ADD PUSH0 KECCAK256 SLOAD LT ISZERO PUSH2 0x110 JUMPI PUSH1 0x40 MLOAD PUSH32 0x8C379A000000000000000000000000000000000000000000000000000000000 DUP2 MSTORE PUSH1 0x4 ADD PUSH2 0x107 SWAP1 PUSH2 0x385 JUMP JUMPDEST PUSH1 0x40 MLOAD DUP1 SWAP2 SUB SWAP1 REVERT JUMPDEST DUP1 PUSH0 PUSH0 CALLER PUSH20 0xFFFFFFFFFFFFFFFFFFFFFFFFFFFFFFFFFFFFFFFF AND PUSH20 0xFFFFFFFFFFFFFFFFFFFFFFFFFFFFFFFFFFFFFFFF AND DUP2 MSTORE PUSH1 0x20 ADD SWAP1 DUP2 MSTORE PUSH1 0x20 ADD PUSH0 KECCAK256 PUSH0 DUP3 DUP3 SLOAD PUSH2 0x15B SWAP2 SWAP1 PUSH2 0x3D0 JUMP JUMPDEST SWAP3 POP POP DUP2 SWAP1 SSTORE POP CALLER PUSH20 0xFFFFFFFFFFFFFFFFFFFFFFFFFFFFFFFFFFFFFFFF AND PUSH2 0x8FC DUP3 SWAP1 DUP2 ISZERO MUL SWAP1 PUSH1 0x40 MLOAD PUSH0 PUSH1 0x40 MLOAD DUP1 DUP4 SUB DUP2 DUP6 DUP9 DUP9 CALL SWAP4 POP POP POP POP ISZERO DUP1 ISZERO PUSH2 0x1A5 JUMPI RETURNDATASIZE PUSH0 PUSH0 RETURNDATACOPY RETURNDATASIZE PUSH0 REVERT JUMPDEST POP POP JUMP JUMPDEST DUP1 PUSH20 0xFFFFFFFFFFFFFFFFFFFFFFFFFFFFFFFFFFFFFFFF AND PUSH2 0x8FC SELFBALANCE SWAP1 DUP2 ISZERO MUL SWAP1 PUSH1 0x40 MLOAD PUSH0 PUSH1 0x40 MLOAD DUP1 DUP4 SUB DUP2 DUP6 DUP9 DUP9 CALL SWAP4 POP POP POP POP ISZERO DUP1 ISZERO PUSH2 0x1EC JUMPI RETURNDATASIZE PUSH0 PUSH0 RETURNDATACOPY RETURNDATASIZE PUSH0 REVERT JUMPDEST POP POP JUMP JUMPDEST CALLVALUE PUSH0 PUSH0 CALLER PUSH20 0xFFFFFFFFFFFFFFFFFFFFFFFFFFFFFFFFFFFFFFFF AND PUSH20 0xFFFFFFFFFFFFFFFFFFFFFFFFFFFFFFFFFFFFFFFF AND DUP2 MSTORE PUSH1 0x20 ADD SWAP1 DUP2 MSTORE PUSH1 0x20 ADD PUSH0 KECCAK256 PUSH0 DUP3 DUP3 SLOAD PUSH2 0x23B SWAP2 SWAP1 PUSH2 0x403 JUMP JUMPDEST SWAP3 POP POP DUP2 SWAP1 SSTORE POP JUMP JUMPDEST PUSH0 PUSH0 REVERT JUMPDEST PUSH0 DUP2 SWAP1 POP SWAP2 SWAP1 POP JUMP JUMPDEST PUSH2 0x25A DUP2 PUSH2 0x248 JUMP JUMPDEST DUP2 EQ PUSH2 0x264 JUMPI PUSH0 PUSH0 REVERT JUMPDEST POP JUMP JUMPDEST PUSH0 DUP2 CALLDATALOAD SWAP1 POP PUSH2 0x275 DUP2 PUSH2 0x251 JUMP JUMPDEST SWAP3 SWAP2 POP POP JUMP JUMPDEST PUSH0 PUSH1 0x20 DUP3 DUP5 SUB SLT ISZERO PUSH2 0x290 JUMPI PUSH2 0x28F PUSH2 0x244 JUMP JUMPDEST JUMPDEST PUSH0 PUSH2 0x29D DUP5 DUP3 DUP6 ADD PUSH2 0x267 JUMP JUMPDEST SWAP2 POP POP SWAP3 SWAP2 POP POP JUMP JUMPDEST PUSH0 PUSH20 0xFFFFFFFFFFFFFFFFFFFFFFFFFFFFFFFFFFFFFFFF DUP3 AND SWAP1 POP SWAP2 SWAP1 POP JUMP JUMPDEST PUSH0 PUSH2 0x2CF DUP3 PUSH2 0x2A6 JUMP JUMPDEST SWAP1 POP SWAP2 SWAP1 POP JUMP JUMPDEST PUSH2 0x2DF DUP2 PUSH2 0x2C5 JUMP JUMPDEST DUP2 EQ PUSH2 0x2E9 JUMPI PUSH0 PUSH0 REVERT JUMPDEST POP JUMP JUMPDEST PUSH0 DUP2 CALLDATALOAD SWAP1 POP PUSH2 0x2FA DUP2 PUSH2 0x2D6 JUMP JUMPDEST SWAP3 SWAP2 POP POP JUMP JUMPDEST PUSH0 PUSH1 0x20 DUP3 DUP5 SUB SLT ISZERO PUSH2 0x315 JUMPI PUSH2 0x314 PUSH2 0x244 JUMP JUMPDEST JUMPDEST PUSH0 PUSH2 0x322 DUP5 DUP3 DUP6 ADD PUSH2 0x2EC JUMP JUMPDEST SWAP2 POP POP SWAP3 SWAP2 POP POP JUMP JUMPDEST PUSH0 DUP3 DUP3 MSTORE PUSH1 0x20 DUP3 ADD SWAP1 POP SWAP3 SWAP2 POP POP JUMP JUMPDEST PUSH32 0x496E73756666696369656E740000000000000000000000000000000000000000 PUSH0 DUP3 ADD MSTORE POP JUMP JUMPDEST PUSH0 PUSH2 0x36F PUSH1 0xC DUP4 PUSH2 0x32B JUMP JUMPDEST SWAP2 POP PUSH2 0x37A DUP3 PUSH2 0x33B JUMP JUMPDEST PUSH1 0x20 DUP3 ADD SWAP1 POP SWAP2 SWAP1 POP JUMP JUMPDEST PUSH0 PUSH1 0x20 DUP3 ADD SWAP1 POP DUP2 DUP2 SUB PUSH0 DUP4 ADD MSTORE PUSH2 0x39C DUP2 PUSH2 0x363 JUMP JUMPDEST SWAP1 POP SWAP2 SWAP1 POP JUMP JUMPDEST PUSH32 0x4E487B7100000000000000000000000000000000000000000000000000000000 PUSH0 MSTORE PUSH1 0x11 PUSH1 0x4 MSTORE PUSH1 0x24 PUSH0 REVERT JUMPDEST PUSH0 PUSH2 0x3DA DUP3 PUSH2 0x248 JUMP JUMPDEST SWAP2 POP PUSH2 0x3E5 DUP4 PUSH2 0x248 JUMP JUMPDEST SWAP3 POP DUP3 DUP3 SUB SWAP1 POP DUP2 DUP2 GT ISZERO PUSH2 0x3FD JUMPI PUSH2 0x3FC PUSH2 0x3A3 JUMP JUMPDEST JUMPDEST SWAP3 SWAP2 POP POP JUMP JUMPDEST PUSH0 PUSH2 0x40D DUP3 PUSH2 0x248 JUMP JUMPDEST SWAP2 POP PUSH2 0x418 DUP4 PUSH2 0x248 JUMP JUMPDEST SWAP3 POP DUP3 DUP3 ADD SWAP1 POP DUP1 DUP3 GT ISZERO PUSH2 0x430 JUMPI PUSH2 0x42F PUSH2 0x3A3 JUMP JUMPDEST JUMPDEST SWAP3 SWAP2 POP POP JUMP INVALID LOG2 PUSH5 0x6970667358 0x22 SLT KECCAK256 PUSH4 0x1B2284D6 CALLER DUP2 0xC PUSH20 0x7D92F0686707B9EC733C35DBBFE62699E35E61BD 0xD4 EQ 0xD5 PUSH5 0x736F6C6343 STOP ADDMOD SAR STOP CALLER "
				},
				"gasEstimates": {
					"creation": {
						"codeDepositCost": "226400",
						"executionCost": "267",
						"totalCost": "226667"
					},
					"external": {
						"deposit()": "infinite",
						"emergencyDrain(address)": "infinite",
						"withdraw(uint256)": "infinite"
					}
				},
				"methodIdentifiers": {
					"deposit()": "d0e30db0",
					"emergencyDrain(address)": "71a18bfb",
					"withdraw(uint256)": "2e1a7d4d"
				}
			},
			"storageLayout": {
				"storage": [
					{
						"astId": 5,
						"contract": "A/Unauditable Black Box Contract.sol:UnauditableBank",
						"label": "balances",
						"offset": 0,
						"slot": "0",
						"type": "t_mapping(t_address,t_uint256)"
					}
				],
				"types": {
					"t_address": {
						"encoding": "inplace",
						"label": "address",
						"numberOfBytes": "20"
					},
					"t_mapping(t_address,t_uint256)": {
						"encoding": "mapping",
						"key": "t_address",
						"label": "mapping(address => uint256)",
						"numberOfBytes": "32",
						"value": "t_uint256"
					},
					"t_uint256": {
						"encoding": "inplace",
						"label": "uint256",
						"numberOfBytes": "32"
					}
				}
			},
			"userdoc": {
				"kind": "user",
				"methods": {},
				"version": 1
			}
		}
	}
}