{
	"A/accessManagementAccess.sol": {
		"PoorAccessManagement": {
			"abi": [
				{
					"inputs": [],
					"stateMutability": "nonpayable",
					"type": "constructor"
				},
				{
					"inputs": [
						{
							"internalType": "address",
							"name": "user",
							"type": "address"
						}
					],
					"name": "assignManager",
					"outputs": [],
					"stateMutability": "nonpayable",
					"type": "function"
				},
				{
					"inputs": [
						{
							"internalType": "address",
							"name": "",
							"type": "address"
						}
					],
					"name": "managers",
					"outputs": [
						{
							"internalType": "bool",
							"name": "",
							"type": "bool"
						}
					],
					"stateMutability": "view",
					"type": "function"
				},
				{
					"inputs": [],
					"name": "owner",
					"outputs": [
						{
							"internalType": "address",
							"name": "",
							"type": "address"
						}
					],
					"stateMutability": "view",
					"type": "function"
				},
				{
					"inputs": [],
					"name": "sensitiveFunction",
					"outputs": [],
					"stateMutability": "nonpayable",
					"type": "function"
				}
			],
			"devdoc": {
				"kind": "dev",
				"methods": {},
				"version": 1
			},
			"evm": {
				"assembly": "    /* \"A/accessManagementAccess.sol\":58:586  contract PoorAccessManagement {... */\n  mstore(0x40, 0x80)\n    /* \"A/accessManagementAccess.sol\":167:253  constructor() {... */\n  callvalue\n  dup1\n  iszero\n  tag_1\n  jumpi\n  revert(0x00, 0x00)\ntag_1:\n  pop\n    /* \"A/accessManagementAccess.sol\":199:209  msg.sender */\n  caller\n    /* \"A/accessManagementAccess.sol\":191:196  owner */\n  0x00\n  0x00\n    /* \"A/accessManagementAccess.sol\":191:209  owner = msg.sender */\n  0x0100\n  exp\n  dup2\n  sload\n  dup2\n  0xffffffffffffffffffffffffffffffffffffffff\n  mul\n  not\n  and\n  swap1\n  dup4\n  0xffffffffffffffffffffffffffffffffffffffff\n  and\n  mul\n  or\n  swap1\n  sstore\n  pop\n    /* \"A/accessManagementAccess.sol\":242:246  true */\n  0x01\n    /* \"A/accessManagementAccess.sol\":219:227  managers */\n  dup1\n    /* \"A/accessManagementAccess.sol\":219:239  managers[msg.sender] */\n  0x00\n    /* \"A/accessManagementAccess.sol\":228:238  msg.sender */\n  caller\n    /* \"A/accessManagementAccess.sol\":219:239  managers[msg.sender] */\n  0xffffffffffffffffffffffffffffffffffffffff\n  and\n  0xffffffffffffffffffffffffffffffffffffffff\n  and\n  dup2\n  mstore\n  0x20\n  add\n  swap1\n  dup2\n  mstore\n  0x20\n  add\n  0x00\n  keccak256\n  0x00\n    /* \"A/accessManagementAccess.sol\":219:246  managers[msg.sender] = true */\n  0x0100\n  exp\n  dup2\n  sload\n  dup2\n  0xff\n  mul\n  not\n  and\n  swap1\n  dup4\n  iszero\n  iszero\n  mul\n  or\n  swap1\n  sstore\n  pop\n    /* \"A/accessManagementAccess.sol\":58:586  contract PoorAccessManagement {... */\n  dataSize(sub_0)\n  dup1\n  dataOffset(sub_0)\n  0x00\n  codecopy\n  0x00\n  return\nstop\n\nsub_0: assembly {\n        /* \"A/accessManagementAccess.sol\":58:586  contract PoorAccessManagement {... */\n      mstore(0x40, 0x80)\n      callvalue\n      dup1\n      iszero\n      tag_1\n      jumpi\n      revert(0x00, 0x00)\n    tag_1:\n      pop\n      jumpi(tag_2, lt(calldatasize, 0x04))\n      shr(0xe0, calldataload(0x00))\n      dup1\n      0x2d2dcc48\n      eq\n      tag_3\n      jumpi\n      dup1\n      0x8da5cb5b\n      eq\n      tag_4\n      jumpi\n      dup1\n      0xa344eff3\n      eq\n      tag_5\n      jumpi\n      dup1\n      0xfdff9b4d\n      eq\n      tag_6\n      jumpi\n    tag_2:\n      revert(0x00, 0x00)\n        /* \"A/accessManagementAccess.sol\":309:391  function assignManager(address user) public {... */\n    tag_3:\n      tag_7\n      0x04\n      dup1\n      calldatasize\n      sub\n      dup2\n      add\n      swap1\n      tag_8\n      swap2\n      swap1\n      tag_9\n      jump\t// in\n    tag_8:\n      tag_10\n      jump\t// in\n    tag_7:\n      stop\n        /* \"A/accessManagementAccess.sol\":94:114  address public owner */\n    tag_4:\n      tag_11\n      tag_12\n      jump\t// in\n    tag_11:\n      mload(0x40)\n      tag_13\n      swap2\n      swap1\n      tag_14\n      jump\t// in\n    tag_13:\n      mload(0x40)\n      dup1\n      swap2\n      sub\n      swap1\n      return\n        /* \"A/accessManagementAccess.sol\":500:584  function sensitiveFunction() public onlyManager {... */\n    tag_5:\n      tag_15\n      tag_16\n      jump\t// in\n    tag_15:\n      stop\n        /* \"A/accessManagementAccess.sol\":120:160  mapping(address => bool) public managers */\n    tag_6:\n      tag_17\n      0x04\n      dup1\n      calldatasize\n      sub\n      dup2\n      add\n      swap1\n      tag_18\n      swap2\n      swap1\n      tag_9\n      jump\t// in\n    tag_18:\n      tag_19\n      jump\t// in\n    tag_17:\n      mload(0x40)\n      tag_20\n      swap2\n      swap1\n      tag_21\n      jump\t// in\n    tag_20:\n      mload(0x40)\n      dup1\n      swap2\n      sub\n      swap1\n      return\n        /* \"A/accessManagementAccess.sol\":309:391  function assignManager(address user) public {... */\n    tag_10:\n        /* \"A/accessManagementAccess.sol\":380:384  true */\n      0x01\n        /* \"A/accessManagementAccess.sol\":363:371  managers */\n      dup1\n        /* \"A/accessManagementAccess.sol\":363:377  managers[user] */\n      0x00\n        /* \"A/accessManagementAccess.sol\":372:376  user */\n      dup4\n        /* \"A/accessManagementAccess.sol\":363:377  managers[user] */\n      0xffffffffffffffffffffffffffffffffffffffff\n      and\n      0xffffffffffffffffffffffffffffffffffffffff\n      and\n      dup2\n      mstore\n      0x20\n      add\n      swap1\n      dup2\n      mstore\n      0x20\n      add\n      0x00\n      keccak256\n      0x00\n        /* \"A/accessManagementAccess.sol\":363:384  managers[user] = true */\n      0x0100\n      exp\n      dup2\n      sload\n      dup2\n      0xff\n      mul\n      not\n      and\n      swap1\n      dup4\n      iszero\n      iszero\n      mul\n      or\n      swap1\n      sstore\n      pop\n        /* \"A/accessManagementAccess.sol\":309:391  function assignManager(address user) public {... */\n      pop\n      jump\t// out\n        /* \"A/accessManagementAccess.sol\":94:114  address public owner */\n    tag_12:\n      0x00\n      0x00\n      swap1\n      sload\n      swap1\n      0x0100\n      exp\n      swap1\n      div\n      0xffffffffffffffffffffffffffffffffffffffff\n      and\n      dup2\n      jump\t// out\n        /* \"A/accessManagementAccess.sol\":500:584  function sensitiveFunction() public onlyManager {... */\n    tag_16:\n        /* \"A/accessManagementAccess.sol\":438:446  managers */\n      0x01\n        /* \"A/accessManagementAccess.sol\":438:458  managers[msg.sender] */\n      0x00\n        /* \"A/accessManagementAccess.sol\":447:457  msg.sender */\n      caller\n        /* \"A/accessManagementAccess.sol\":438:458  managers[msg.sender] */\n      0xffffffffffffffffffffffffffffffffffffffff\n      and\n      0xffffffffffffffffffffffffffffffffffffffff\n      and\n      dup2\n      mstore\n      0x20\n      add\n      swap1\n      dup2\n      mstore\n      0x20\n      add\n      0x00\n      keccak256\n      0x00\n      swap1\n      sload\n      swap1\n      0x0100\n      exp\n      swap1\n      div\n      0xff\n      and\n        /* \"A/accessManagementAccess.sol\":430:476  require(managers[msg.sender], \"Not a manager\") */\n      tag_24\n      jumpi\n      mload(0x40)\n      0x08c379a000000000000000000000000000000000000000000000000000000000\n      dup2\n      mstore\n      0x04\n      add\n      tag_25\n      swap1\n      tag_26\n      jump\t// in\n    tag_25:\n      mload(0x40)\n      dup1\n      swap2\n      sub\n      swap1\n      revert\n    tag_24:\n        /* \"A/accessManagementAccess.sol\":500:584  function sensitiveFunction() public onlyManager {... */\n      jump\t// out\n        /* \"A/accessManagementAccess.sol\":120:160  mapping(address => bool) public managers */\n    tag_19:\n      mstore(0x20, 0x01)\n      dup1\n      0x00\n      mstore\n      keccak256(0x00, 0x40)\n      0x00\n      swap2\n      pop\n      sload\n      swap1\n      0x0100\n      exp\n      swap1\n      div\n      0xff\n      and\n      dup2\n      jump\t// out\n        /* \"#utility.yul\":88:205   */\n    tag_29:\n        /* \"#utility.yul\":197:198   */\n      0x00\n        /* \"#utility.yul\":194:195   */\n      0x00\n        /* \"#utility.yul\":187:199   */\n      revert\n        /* \"#utility.yul\":334:460   */\n    tag_31:\n        /* \"#utility.yul\":371:378   */\n      0x00\n        /* \"#utility.yul\":411:453   */\n      0xffffffffffffffffffffffffffffffffffffffff\n        /* \"#utility.yul\":404:409   */\n      dup3\n        /* \"#utility.yul\":400:454   */\n      and\n        /* \"#utility.yul\":389:454   */\n      swap1\n      pop\n        /* \"#utility.yul\":334:460   */\n      swap2\n      swap1\n      pop\n      jump\t// out\n        /* \"#utility.yul\":466:562   */\n    tag_32:\n        /* \"#utility.yul\":503:510   */\n      0x00\n        /* \"#utility.yul\":532:556   */\n      tag_47\n        /* \"#utility.yul\":550:555   */\n      dup3\n        /* \"#utility.yul\":532:556   */\n      tag_31\n      jump\t// in\n    tag_47:\n        /* \"#utility.yul\":521:556   */\n      swap1\n      pop\n        /* \"#utility.yul\":466:562   */\n      swap2\n      swap1\n      pop\n      jump\t// out\n        /* \"#utility.yul\":568:690   */\n    tag_33:\n        /* \"#utility.yul\":641:665   */\n      tag_49\n        /* \"#utility.yul\":659:664   */\n      dup2\n        /* \"#utility.yul\":641:665   */\n      tag_32\n      jump\t// in\n    tag_49:\n        /* \"#utility.yul\":634:639   */\n      dup2\n        /* \"#utility.yul\":631:666   */\n      eq\n        /* \"#utility.yul\":621:684   */\n      tag_50\n      jumpi\n        /* \"#utility.yul\":680:681   */\n      0x00\n        /* \"#utility.yul\":677:678   */\n      0x00\n        /* \"#utility.yul\":670:682   */\n      revert\n        /* \"#utility.yul\":621:684   */\n    tag_50:\n        /* \"#utility.yul\":568:690   */\n      pop\n      jump\t// out\n        /* \"#utility.yul\":696:835   */\n    tag_34:\n        /* \"#utility.yul\":742:747   */\n      0x00\n        /* \"#utility.yul\":780:786   */\n      dup2\n        /* \"#utility.yul\":767:787   */\n      calldataload\n        /* \"#utility.yul\":758:787   */\n      swap1\n      pop\n        /* \"#utility.yul\":796:829   */\n      tag_52\n        /* \"#utility.yul\":823:828   */\n      dup2\n        /* \"#utility.yul\":796:829   */\n      tag_33\n      jump\t// in\n    tag_52:\n        /* \"#utility.yul\":696:835   */\n      swap3\n      swap2\n      pop\n      pop\n      jump\t// out\n        /* \"#utility.yul\":841:1170   */\n    tag_9:\n        /* \"#utility.yul\":900:906   */\n      0x00\n        /* \"#utility.yul\":949:951   */\n      0x20\n        /* \"#utility.yul\":937:946   */\n      dup3\n        /* \"#utility.yul\":928:935   */\n      dup5\n        /* \"#utility.yul\":924:947   */\n      sub\n        /* \"#utility.yul\":920:952   */\n      slt\n        /* \"#utility.yul\":917:1036   */\n      iszero\n      tag_54\n      jumpi\n        /* \"#utility.yul\":955:1034   */\n      tag_55\n      tag_29\n      jump\t// in\n    tag_55:\n        /* \"#utility.yul\":917:1036   */\n    tag_54:\n        /* \"#utility.yul\":1075:1076   */\n      0x00\n        /* \"#utility.yul\":1100:1153   */\n      tag_56\n        /* \"#utility.yul\":1145:1152   */\n      dup5\n        /* \"#utility.yul\":1136:1142   */\n      dup3\n        /* \"#utility.yul\":1125:1134   */\n      dup6\n        /* \"#utility.yul\":1121:1143   */\n      add\n        /* \"#utility.yul\":1100:1153   */\n      tag_34\n      jump\t// in\n    tag_56:\n        /* \"#utility.yul\":1090:1153   */\n      swap2\n      pop\n        /* \"#utility.yul\":1046:1163   */\n      pop\n        /* \"#utility.yul\":841:1170   */\n      swap3\n      swap2\n      pop\n      pop\n      jump\t// out\n        /* \"#utility.yul\":1176:1294   */\n    tag_35:\n        /* \"#utility.yul\":1263:1287   */\n      tag_58\n        /* \"#utility.yul\":1281:1286   */\n      dup2\n        /* \"#utility.yul\":1263:1287   */\n      tag_32\n      jump\t// in\n    tag_58:\n        /* \"#utility.yul\":1258:1261   */\n      dup3\n        /* \"#utility.yul\":1251:1288   */\n      mstore\n        /* \"#utility.yul\":1176:1294   */\n      pop\n      pop\n      jump\t// out\n        /* \"#utility.yul\":1300:1522   */\n    tag_14:\n        /* \"#utility.yul\":1393:1397   */\n      0x00\n        /* \"#utility.yul\":1431:1433   */\n      0x20\n        /* \"#utility.yul\":1420:1429   */\n      dup3\n        /* \"#utility.yul\":1416:1434   */\n      add\n        /* \"#utility.yul\":1408:1434   */\n      swap1\n      pop\n        /* \"#utility.yul\":1444:1515   */\n      tag_60\n        /* \"#utility.yul\":1512:1513   */\n      0x00\n        /* \"#utility.yul\":1501:1510   */\n      dup4\n        /* \"#utility.yul\":1497:1514   */\n      add\n        /* \"#utility.yul\":1488:1494   */\n      dup5\n        /* \"#utility.yul\":1444:1515   */\n      tag_35\n      jump\t// in\n    tag_60:\n        /* \"#utility.yul\":1300:1522   */\n      swap3\n      swap2\n      pop\n      pop\n      jump\t// out\n        /* \"#utility.yul\":1528:1618   */\n    tag_36:\n        /* \"#utility.yul\":1562:1569   */\n      0x00\n        /* \"#utility.yul\":1605:1610   */\n      dup2\n        /* \"#utility.yul\":1598:1611   */\n      iszero\n        /* \"#utility.yul\":1591:1612   */\n      iszero\n        /* \"#utility.yul\":1580:1612   */\n      swap1\n      pop\n        /* \"#utility.yul\":1528:1618   */\n      swap2\n      swap1\n      pop\n      jump\t// out\n        /* \"#utility.yul\":1624:1733   */\n    tag_37:\n        /* \"#utility.yul\":1705:1726   */\n      tag_63\n        /* \"#utility.yul\":1720:1725   */\n      dup2\n        /* \"#utility.yul\":1705:1726   */\n      tag_36\n      jump\t// in\n    tag_63:\n        /* \"#utility.yul\":1700:1703   */\n      dup3\n        /* \"#utility.yul\":1693:1727   */\n      mstore\n        /* \"#utility.yul\":1624:1733   */\n      pop\n      pop\n      jump\t// out\n        /* \"#utility.yul\":1739:1949   */\n    tag_21:\n        /* \"#utility.yul\":1826:1830   */\n      0x00\n        /* \"#utility.yul\":1864:1866   */\n      0x20\n        /* \"#utility.yul\":1853:1862   */\n      dup3\n        /* \"#utility.yul\":1849:1867   */\n      add\n        /* \"#utility.yul\":1841:1867   */\n      swap1\n      pop\n        /* \"#utility.yul\":1877:1942   */\n      tag_65\n        /* \"#utility.yul\":1939:1940   */\n      0x00\n        /* \"#utility.yul\":1928:1937   */\n      dup4\n        /* \"#utility.yul\":1924:1941   */\n      add\n        /* \"#utility.yul\":1915:1921   */\n      dup5\n        /* \"#utility.yul\":1877:1942   */\n      tag_37\n      jump\t// in\n    tag_65:\n        /* \"#utility.yul\":1739:1949   */\n      swap3\n      swap2\n      pop\n      pop\n      jump\t// out\n        /* \"#utility.yul\":1955:2124   */\n    tag_38:\n        /* \"#utility.yul\":2039:2050   */\n      0x00\n        /* \"#utility.yul\":2073:2079   */\n      dup3\n        /* \"#utility.yul\":2068:2071   */\n      dup3\n        /* \"#utility.yul\":2061:2080   */\n      mstore\n        /* \"#utility.yul\":2113:2117   */\n      0x20\n        /* \"#utility.yul\":2108:2111   */\n      dup3\n        /* \"#utility.yul\":2104:2118   */\n      add\n        /* \"#utility.yul\":2089:2118   */\n      swap1\n      pop\n        /* \"#utility.yul\":1955:2124   */\n      swap3\n      swap2\n      pop\n      pop\n      jump\t// out\n        /* \"#utility.yul\":2130:2293   */\n    tag_39:\n        /* \"#utility.yul\":2270:2285   */\n      0x4e6f742061206d616e6167657200000000000000000000000000000000000000\n        /* \"#utility.yul\":2266:2267   */\n      0x00\n        /* \"#utility.yul\":2258:2264   */\n      dup3\n        /* \"#utility.yul\":2254:2268   */\n      add\n        /* \"#utility.yul\":2247:2286   */\n      mstore\n        /* \"#utility.yul\":2130:2293   */\n      pop\n      jump\t// out\n        /* \"#utility.yul\":2299:2665   */\n    tag_40:\n        /* \"#utility.yul\":2441:2444   */\n      0x00\n        /* \"#utility.yul\":2462:2529   */\n      tag_69\n        /* \"#utility.yul\":2526:2528   */\n      0x0d\n        /* \"#utility.yul\":2521:2524   */\n      dup4\n        /* \"#utility.yul\":2462:2529   */\n      tag_38\n      jump\t// in\n    tag_69:\n        /* \"#utility.yul\":2455:2529   */\n      swap2\n      pop\n        /* \"#utility.yul\":2538:2631   */\n      tag_70\n        /* \"#utility.yul\":2627:2630   */\n      dup3\n        /* \"#utility.yul\":2538:2631   */\n      tag_39\n      jump\t// in\n    tag_70:\n        /* \"#utility.yul\":2656:2658   */\n      0x20\n        /* \"#utility.yul\":2651:2654   */\n      dup3\n        /* \"#utility.yul\":2647:2659   */\n      add\n        /* \"#utility.yul\":2640:2659   */\n      swap1\n      pop\n        /* \"#utility.yul\":2299:2665   */\n      swap2\n      swap1\n      pop\n      jump\t// out\n        /* \"#utility.yul\":2671:3090   */\n    tag_26:\n        /* \"#utility.yul\":2837:2841   */\n      0x00\n        /* \"#utility.yul\":2875:2877   */\n      0x20\n        /* \"#utility.yul\":2864:2873   */\n      dup3\n        /* \"#utility.yul\":2860:2878   */\n      add\n        /* \"#utility.yul\":2852:2878   */\n      swap1\n      pop\n        /* \"#utility.yul\":2924:2933   */\n      dup2\n        /* \"#utility.yul\":2918:2922   */\n      dup2\n        /* \"#utility.yul\":2914:2934   */\n      sub\n        /* \"#utility.yul\":2910:2911   */\n      0x00\n        /* \"#utility.yul\":2899:2908   */\n      dup4\n        /* \"#utility.yul\":2895:2912   */\n      add\n        /* \"#utility.yul\":2888:2935   */\n      mstore\n        /* \"#utility.yul\":2952:3083   */\n      tag_72\n        /* \"#utility.yul\":3078:3082   */\n      dup2\n        /* \"#utility.yul\":2952:3083   */\n      tag_40\n      jump\t// in\n    tag_72:\n        /* \"#utility.yul\":2944:3083   */\n      swap1\n      pop\n        /* \"#utility.yul\":2671:3090   */\n      swap2\n      swap1\n      pop\n      jump\t// out\n\n    auxdata: 0xa26469706673582212204eed87d2d126235fba2b8fecf24c57474d00149b5c7d2d58bac830968330761f64736f6c634300081d0033\n}\n",
				"bytecode": {
					"linkReferences": {},
					"object": "6080604052348015600e575f5ffd5b50335f5f6101000a81548173ffffffffffffffffffffffffffffffffffffffff021916908373ffffffffffffffffffffffffffffffffffffffff1602179055506001805f3373ffffffffffffffffffffffffffffffffffffffff1673ffffffffffffffffffffffffffffffffffffffff1681526020019081526020015f205f6101000a81548160ff021916908315150217905550610377806100af5f395ff3fe608060405234801561000f575f5ffd5b506004361061004a575f3560e01c80632d2dcc481461004e5780638da5cb5b1461006a578063a344eff314610088578063fdff9b4d14610092575b5f5ffd5b61006860048036038101906100639190610243565b6100c2565b005b610072610119565b60405161007f919061027d565b60405180910390f35b61009061013d565b005b6100ac60048036038101906100a79190610243565b6101c8565b6040516100b991906102b0565b60405180910390f35b6001805f8373ffffffffffffffffffffffffffffffffffffffff1673ffffffffffffffffffffffffffffffffffffffff1681526020019081526020015f205f6101000a81548160ff02191690831515021790555050565b5f5f9054906101000a900473ffffffffffffffffffffffffffffffffffffffff1681565b60015f3373ffffffffffffffffffffffffffffffffffffffff1673ffffffffffffffffffffffffffffffffffffffff1681526020019081526020015f205f9054906101000a900460ff166101c6576040517f08c379a00000000000000000000000000000000000000000000000000000000081526004016101bd90610323565b60405180910390fd5b565b6001602052805f5260405f205f915054906101000a900460ff1681565b5f5ffd5b5f73ffffffffffffffffffffffffffffffffffffffff82169050919050565b5f610212826101e9565b9050919050565b61022281610208565b811461022c575f5ffd5b50565b5f8135905061023d81610219565b92915050565b5f60208284031215610258576102576101e5565b5b5f6102658482850161022f565b91505092915050565b61027781610208565b82525050565b5f6020820190506102905f83018461026e565b92915050565b5f8115159050919050565b6102aa81610296565b82525050565b5f6020820190506102c35f8301846102a1565b92915050565b5f82825260208201905092915050565b7f4e6f742061206d616e61676572000000000000000000000000000000000000005f82015250565b5f61030d600d836102c9565b9150610318826102d9565b602082019050919050565b5f6020820190508181035f83015261033a81610301565b905091905056fea26469706673582212204eed87d2d126235fba2b8fecf24c57474d00149b5c7d2d58bac830968330761f64736f6c634300081d0033",
					"opcodes": "PUSH1 0x80 PUSH1 0x40 MSTORE CALLVALUE DUP1 ISZERO PUSH1 0xE JUMPI PUSH0 PUSH0 REVERT JUMPDEST POP CALLER PUSH0 PUSH0 PUSH2 0x100 EXP DUP2 SLOAD DUP2 PUSH20 0xFFFFFFFFFFFFFFFFFFFFFFFFFFFFFFFFFFFFFFFF MUL NOT AND SWAP1 DUP4 PUSH20 0xFFFFFFFFFFFFFFFFFFFFFFFFFFFFFFFFFFFFFFFF AND MUL OR SWAP1 SSTORE POP PUSH1 0x1 DUP1 PUSH0 CALLER PUSH20 0xFFFFFFFFFFFFFFFFFFFFFFFFFFFFFFFFFFFFFFFF AND PUSH20 0xFFFFFFFFFFFFFFFFFFFFFFFFFFFFFFFFFFFFFFFF AND DUP2 MSTORE PUSH1 0x20 ADD SWAP1 DUP2 MSTORE PUSH1 0x20 ADD PUSH0 KECCAK256 PUSH0 PUSH2 0x100 EXP DUP2 SLOAD DUP2 PUSH1 0xFF MUL NOT AND SWAP1 DUP4 ISZERO ISZERO MUL OR SWAP1 SSTORE POP PUSH2 0x377 DUP1 PUSH2 0xAF PUSH0 CODECOPY PUSH0 RETURN INVALID PUSH1 0x80 PUSH1 0x40 MSTORE CALLVALUE DUP1 ISZERO PUSH2 0xF JUMPI PUSH0 PUSH0 REVERT JUMPDEST POP PUSH1 0x4 CALLDATASIZE LT PUSH2 0x4A JUMPI PUSH0 CALLDATALOAD PUSH1 0xE0 SHR DUP1 PUSH4 0x2D2DCC48 EQ PUSH2 0x4E JUMPI DUP1 PUSH4 0x8DA5CB5B EQ PUSH2 0x6A JUMPI DUP1 PUSH4 0xA344EFF3 EQ PUSH2 0x88 JUMPI DUP1 PUSH4 0xFDFF9B4D EQ PUSH2 0x92 JUMPI JUMPDEST PUSH0 PUSH0 REVERT JUMPDEST PUSH2 0x68 PUSH1 0x4 DUP1 CALLDATASIZE SUB DUP2 ADD SWAP1 PUSH2 0x63 SWAP2 SWAP1 PUSH2 0x243 JUMP JUMPDEST PUSH2 0xC2 JUMP JUMPDEST STOP JUMPDEST PUSH2 0x72 PUSH2 0x119 JUMP JUMPDEST PUSH1 0x40 MLOAD PUSH2 0x7F SWAP2 SWAP1 PUSH2 0x27D JUMP JUMPDEST PUSH1 0x40 MLOAD DUP1 SWAP2 SUB SWAP1 RETURN JUMPDEST PUSH2 0x90 PUSH2 0x13D JUMP JUMPDEST STOP JUMPDEST PUSH2 0xAC PUSH1 0x4 DUP1 CALLDATASIZE SUB DUP2 ADD SWAP1 PUSH2 0xA7 SWAP2 SWAP1 PUSH2 0x243 JUMP JUMPDEST PUSH2 0x1C8 JUMP JUMPDEST PUSH1 0x40 MLOAD PUSH2 0xB9 SWAP2 SWAP1 PUSH2 0x2B0 JUMP JUMPDEST PUSH1 0x40 MLOAD DUP1 SWAP2 SUB SWAP1 RETURN JUMPDEST PUSH1 0x1 DUP1 PUSH0 DUP4 PUSH20 0xFFFFFFFFFFFFFFFFFFFFFFFFFFFFFFFFFFFFFFFF AND PUSH20 0xFFFFFFFFFFFFFFFFFFFFFFFFFFFFFFFFFFFFFFFF AND DUP2 MSTORE PUSH1 0x20 ADD SWAP1 DUP2 MSTORE PUSH1 0x20 ADD PUSH0 KECCAK256 PUSH0 PUSH2 0x100 EXP DUP2 SLOAD DUP2 PUSH1 0xFF MUL NOT AND SWAP1 DUP4 ISZERO ISZERO MUL OR SWAP1 SSTORE POP POP JUMP JUMPDEST PUSH0 PUSH0 SWAP1 SLOAD SWAP1 PUSH2 0x100 EXP SWAP1 DIV PUSH20 0xFFFFFFFFFFFFFFFFFFFFFFFFFFFFFFFFFFFFFFFF AND DUP2 JUMP JUMPDEST PUSH1 0x1 PUSH0 CALLER PUSH20 0xFFFFFFFFFFFFFFFFFFFFFFFFFFFFFFFFFFFFFFFF AND PUSH20 0xFFFFFFFFFFFFFFFFFFFFFFFFFFFFFFFFFFFFFFFF AND DUP2 MSTORE PUSH1 0x20 ADD SWAP1 DUP2 MSTORE PUSH1 0x20 ADD PUSH0 KECCAK256 PUSH0 SWAP1 SLOAD SWAP1 PUSH2 0x100 EXP SWAP1 DIV PUSH1 0xFF AND PUSH2 0x1C6 JUMPI PUSH1 0x40 MLOAD PUSH32 0x8C379A000000000000000000000000000000000000000000000000000000000 DUP2 MSTORE PUSH1 0x4 ADD PUSH2 0x1BD SWAP1 PUSH2 0x323 JUMP JUMPDEST PUSH1 0x40 MLOAD DUP1 SWAP2 SUB SWAP1 REVERT JUMPDEST JUMP JUMPDEST PUSH1 0x1 PUSH1 0x20 MSTORE DUP1 PUSH0 MSTORE PUSH1 0x40 PUSH0 KECCAK256 PUSH0 SWAP2 POP SLOAD SWAP1 PUSH2 0x100 EXP SWAP1 DIV PUSH1 0xFF AND DUP2 JUMP JUMPDEST PUSH0 PUSH0 REVERT JUMPDEST PUSH0 PUSH20 0xFFFFFFFFFFFFFFFFFFFFFFFFFFFFFFFFFFFFFFFF DUP3 AND SWAP1 POP SWAP2 SWAP1 POP JUMP JUMPDEST PUSH0 PUSH2 0x212 DUP3 PUSH2 0x1E9 JUMP JUMPDEST SWAP1 POP SWAP2 SWAP1 POP JUMP JUMPDEST PUSH2 0x222 DUP2 PUSH2 0x208 JUMP JUMPDEST DUP2 EQ PUSH2 0x22C JUMPI PUSH0 PUSH0 REVERT JUMPDEST POP JUMP JUMPDEST PUSH0 DUP2 CALLDATALOAD SWAP1 POP PUSH2 0x23D DUP2 PUSH2 0x219 JUMP JUMPDEST SWAP3 SWAP2 POP POP JUMP JUMPDEST PUSH0 PUSH1 0x20 DUP3 DUP5 SUB SLT ISZERO PUSH2 0x258 JUMPI PUSH2 0x257 PUSH2 0x1E5 JUMP JUMPDEST JUMPDEST PUSH0 PUSH2 0x265 DUP5 DUP3 DUP6 ADD PUSH2 0x22F JUMP JUMPDEST SWAP2 POP POP SWAP3 SWAP2 POP POP JUMP JUMPDEST PUSH2 0x277 DUP2 PUSH2 0x208 JUMP JUMPDEST DUP3 MSTORE POP POP JUMP JUMPDEST PUSH0 PUSH1 0x20 DUP3 ADD SWAP1 POP PUSH2 0x290 PUSH0 DUP4 ADD DUP5 PUSH2 0x26E JUMP JUMPDEST SWAP3 SWAP2 POP POP JUMP JUMPDEST PUSH0 DUP2 ISZERO ISZERO SWAP1 POP SWAP2 SWAP1 POP JUMP JUMPDEST PUSH2 0x2AA DUP2 PUSH2 0x296 JUMP JUMPDEST DUP3 MSTORE POP POP JUMP JUMPDEST PUSH0 PUSH1 0x20 DUP3 ADD SWAP1 POP PUSH2 0x2C3 PUSH0 DUP4 ADD DUP5 PUSH2 0x2A1 JUMP JUMPDEST SWAP3 SWAP2 POP POP JUMP JUMPDEST PUSH0 DUP3 DUP3 MSTORE PUSH1 0x20 DUP3 ADD SWAP1 POP SWAP3 SWAP2 POP POP JUMP JUMPDEST PUSH32 0x4E6F742061206D616E6167657200000000000000000000000000000000000000 PUSH0 DUP3 ADD MSTORE POP JUMP JUMPDEST PUSH0 PUSH2 0x30D PUSH1 0xD DUP4 PUSH2 0x2C9 JUMP JUMPDEST SWAP2 POP PUSH2 0x318 DUP3 PUSH2 0x2D9 JUMP JUMPDEST PUSH1 0x20 DUP3 ADD SWAP1 POP SWAP2 SWAP1 POP JUMP JUMPDEST PUSH0 PUSH1 0x20 DUP3 ADD SWAP1 POP DUP2 DUP2 SUB PUSH0 DUP4 ADD MSTORE PUSH2 0x33A DUP2 PUSH2 0x301 JUMP JUMPDEST SWAP1 POP SWAP2 SWAP1 POP JUMP INVALID LOG2 PUSH5 0x6970667358 0x22 SLT KECCAK256 0x4E 0xED DUP8 0xD2 DATALOADN 0x2623 PUSH0 0xBA 0x2B DUP16 EOFCREATE 0xF2 0x4C JUMPI SELFBALANCE 0x4D STOP EQ SWAP12 TLOAD PUSH30 0x2D58BAC830968330761F64736F6C634300081D0033000000000000000000 "
				},
				"gasEstimates": {
					"creation": {
						"codeDepositCost": "177400",
						"executionCost": "48835",
						"totalCost": "226235"
					},
					"external": {
						"assignManager(address)": "24781",
						"managers(address)": "2877",
						"owner()": "2507",
						"sensitiveFunction()": "2688"
					}
				},
				"methodIdentifiers": {
					"assignManager(address)": "2d2dcc48",
					"managers(address)": "fdff9b4d",
					"owner()": "8da5cb5b",
					"sensitiveFunction()": "a344eff3"
				}
			},
			"storageLayout": {
				"storage": [
					{
						"astId": 3,
						"contract": "A/accessManagementAccess.sol:PoorAccessManagement",
						"label": "owner",
						"offset": 0,
						"slot": "0",
						"type": "t_address"
					},
					{
						"astId": 7,
						"contract": "A/accessManagementAccess.sol:PoorAccessManagement",
						"label": "managers",
						"offset": 0,
						"slot": "1",
						"type": "t_mapping(t_address,t_bool)"
					}
				],
				"types": {
					"t_address": {
						"encoding": "inplace",
						"label": "address",
						"numberOfBytes": "20"
					},
					"t_bool": {
						"encoding": "inplace",
						"label": "bool",
						"numberOfBytes": "1"
					},
					"t_mapping(t_address,t_bool)": {
						"encoding": "mapping",
						"key": "t_address",
						"label": "mapping(address => bool)",
						"numberOfBytes": "32",
						"value": "t_bool"
					}
				}
			},
			"userdoc": {
				"kind": "user",
				"methods": {},
				"version": 1
			}
		}
	}
}