{
	"A/SecureAccessControlService.sol": {
		"SecureAccessControlService": {
			"abi": [
				{
					"inputs": [],
					"stateMutability": "nonpayable",
					"type": "constructor"
				},
				{
					"anonymous": false,
					"inputs": [
						{
							"indexed": true,
							"internalType": "address",
							"name": "user",
							"type": "address"
						},
						{
							"indexed": false,
							"internalType": "bool",
							"name": "status",
							"type": "bool"
						}
					],
					"name": "AuthorizationUpdated",
					"type": "event"
				},
				{
					"inputs": [
						{
							"internalType": "address",
							"name": "user",
							"type": "address"
						}
					],
					"name": "isAuthorized",
					"outputs": [
						{
							"internalType": "bool",
							"name": "",
							"type": "bool"
						}
					],
					"stateMutability": "view",
					"type": "function"
				},
				{
					"inputs": [],
					"name": "owner",
					"outputs": [
						{
							"internalType": "address",
							"name": "",
							"type": "address"
						}
					],
					"stateMutability": "view",
					"type": "function"
				},
				{
					"inputs": [
						{
							"internalType": "address",
							"name": "user",
							"type": "address"
						},
						{
							"internalType": "bool",
							"name": "status",
							"type": "bool"
						}
					],
					"name": "setAuthorized",
					"outputs": [],
					"stateMutability": "nonpayable",
					"type": "function"
				}
			],
			"devdoc": {
				"kind": "dev",
				"methods": {},
				"version": 1
			},
			"evm": {
				"assembly": "    /* \"A/SecureAccessControlService.sol\":58:664  contract SecureAccessControlService {... */\n  mstore(0x40, 0x80)\n    /* \"A/SecureAccessControlService.sol\":340:389  constructor() {... */\n  callvalue\n  dup1\n  iszero\n  tag_1\n  jumpi\n  revert(0x00, 0x00)\ntag_1:\n  pop\n    /* \"A/SecureAccessControlService.sol\":372:382  msg.sender */\n  caller\n    /* \"A/SecureAccessControlService.sol\":364:369  owner */\n  0x00\n  0x00\n    /* \"A/SecureAccessControlService.sol\":364:382  owner = msg.sender */\n  0x0100\n  exp\n  dup2\n  sload\n  dup2\n  0xffffffffffffffffffffffffffffffffffffffff\n  mul\n  not\n  and\n  swap1\n  dup4\n  0xffffffffffffffffffffffffffffffffffffffff\n  and\n  mul\n  or\n  swap1\n  sstore\n  pop\n    /* \"A/SecureAccessControlService.sol\":58:664  contract SecureAccessControlService {... */\n  dataSize(sub_0)\n  dup1\n  dataOffset(sub_0)\n  0x00\n  codecopy\n  0x00\n  return\nstop\n\nsub_0: assembly {\n        /* \"A/SecureAccessControlService.sol\":58:664  contract SecureAccessControlService {... */\n      mstore(0x40, 0x80)\n      callvalue\n      dup1\n      iszero\n      tag_1\n      jumpi\n      revert(0x00, 0x00)\n    tag_1:\n      pop\n      jumpi(tag_2, lt(calldatasize, 0x04))\n      shr(0xe0, calldataload(0x00))\n      dup1\n      0x711bf9b2\n      eq\n      tag_3\n      jumpi\n      dup1\n      0x8da5cb5b\n      eq\n      tag_4\n      jumpi\n      dup1\n      0xfe9fbb80\n      eq\n      tag_5\n      jumpi\n    tag_2:\n      revert(0x00, 0x00)\n        /* \"A/SecureAccessControlService.sol\":395:553  function setAuthorized(address user, bool status) public onlyOwner {... */\n    tag_3:\n      tag_6\n      0x04\n      dup1\n      calldatasize\n      sub\n      dup2\n      add\n      swap1\n      tag_7\n      swap2\n      swap1\n      tag_8\n      jump\t// in\n    tag_7:\n      tag_9\n      jump\t// in\n    tag_6:\n      stop\n        /* \"A/SecureAccessControlService.sol\":100:120  address public owner */\n    tag_4:\n      tag_10\n      tag_11\n      jump\t// in\n    tag_10:\n      mload(0x40)\n      tag_12\n      swap2\n      swap1\n      tag_13\n      jump\t// in\n    tag_12:\n      mload(0x40)\n      dup1\n      swap2\n      sub\n      swap1\n      return\n        /* \"A/SecureAccessControlService.sol\":559:662  function isAuthorized(address user) public view returns (bool) {... */\n    tag_5:\n      tag_14\n      0x04\n      dup1\n      calldatasize\n      sub\n      dup2\n      add\n      swap1\n      tag_15\n      swap2\n      swap1\n      tag_16\n      jump\t// in\n    tag_15:\n      tag_17\n      jump\t// in\n    tag_14:\n      mload(0x40)\n      tag_18\n      swap2\n      swap1\n      tag_19\n      jump\t// in\n    tag_18:\n      mload(0x40)\n      dup1\n      swap2\n      sub\n      swap1\n      return\n        /* \"A/SecureAccessControlService.sol\":395:553  function setAuthorized(address user, bool status) public onlyOwner {... */\n    tag_9:\n        /* \"A/SecureAccessControlService.sol\":297:302  owner */\n      0x00\n      0x00\n      swap1\n      sload\n      swap1\n      0x0100\n      exp\n      swap1\n      div\n      0xffffffffffffffffffffffffffffffffffffffff\n      and\n        /* \"A/SecureAccessControlService.sol\":283:302  msg.sender == owner */\n      0xffffffffffffffffffffffffffffffffffffffff\n      and\n        /* \"A/SecureAccessControlService.sol\":283:293  msg.sender */\n      caller\n        /* \"A/SecureAccessControlService.sol\":283:302  msg.sender == owner */\n      0xffffffffffffffffffffffffffffffffffffffff\n      and\n      eq\n        /* \"A/SecureAccessControlService.sol\":275:316  require(msg.sender == owner, \"Not owner\") */\n      tag_21\n      jumpi\n      mload(0x40)\n      0x08c379a000000000000000000000000000000000000000000000000000000000\n      dup2\n      mstore\n      0x04\n      add\n      tag_22\n      swap1\n      tag_23\n      jump\t// in\n    tag_22:\n      mload(0x40)\n      dup1\n      swap2\n      sub\n      swap1\n      revert\n    tag_21:\n        /* \"A/SecureAccessControlService.sol\":491:497  status */\n      dup1\n        /* \"A/SecureAccessControlService.sol\":472:482  authorized */\n      0x01\n        /* \"A/SecureAccessControlService.sol\":472:488  authorized[user] */\n      0x00\n        /* \"A/SecureAccessControlService.sol\":483:487  user */\n      dup5\n        /* \"A/SecureAccessControlService.sol\":472:488  authorized[user] */\n      0xffffffffffffffffffffffffffffffffffffffff\n      and\n      0xffffffffffffffffffffffffffffffffffffffff\n      and\n      dup2\n      mstore\n      0x20\n      add\n      swap1\n      dup2\n      mstore\n      0x20\n      add\n      0x00\n      keccak256\n      0x00\n        /* \"A/SecureAccessControlService.sol\":472:497  authorized[user] = status */\n      0x0100\n      exp\n      dup2\n      sload\n      dup2\n      0xff\n      mul\n      not\n      and\n      swap1\n      dup4\n      iszero\n      iszero\n      mul\n      or\n      swap1\n      sstore\n      pop\n        /* \"A/SecureAccessControlService.sol\":533:537  user */\n      dup2\n        /* \"A/SecureAccessControlService.sol\":512:546  AuthorizationUpdated(user, status) */\n      0xffffffffffffffffffffffffffffffffffffffff\n      and\n      0x2c59b8f31260880424e870332281eba93ddfef67e37d699cebe5a7ba89f7a8a6\n        /* \"A/SecureAccessControlService.sol\":539:545  status */\n      dup3\n        /* \"A/SecureAccessControlService.sol\":512:546  AuthorizationUpdated(user, status) */\n      mload(0x40)\n      tag_25\n      swap2\n      swap1\n      tag_19\n      jump\t// in\n    tag_25:\n      mload(0x40)\n      dup1\n      swap2\n      sub\n      swap1\n      log2\n        /* \"A/SecureAccessControlService.sol\":395:553  function setAuthorized(address user, bool status) public onlyOwner {... */\n      pop\n      pop\n      jump\t// out\n        /* \"A/SecureAccessControlService.sol\":100:120  address public owner */\n    tag_11:\n      0x00\n      0x00\n      swap1\n      sload\n      swap1\n      0x0100\n      exp\n      swap1\n      div\n      0xffffffffffffffffffffffffffffffffffffffff\n      and\n      dup2\n      jump\t// out\n        /* \"A/SecureAccessControlService.sol\":559:662  function isAuthorized(address user) public view returns (bool) {... */\n    tag_17:\n        /* \"A/SecureAccessControlService.sol\":616:620  bool */\n      0x00\n        /* \"A/SecureAccessControlService.sol\":639:649  authorized */\n      0x01\n        /* \"A/SecureAccessControlService.sol\":639:655  authorized[user] */\n      0x00\n        /* \"A/SecureAccessControlService.sol\":650:654  user */\n      dup4\n        /* \"A/SecureAccessControlService.sol\":639:655  authorized[user] */\n      0xffffffffffffffffffffffffffffffffffffffff\n      and\n      0xffffffffffffffffffffffffffffffffffffffff\n      and\n      dup2\n      mstore\n      0x20\n      add\n      swap1\n      dup2\n      mstore\n      0x20\n      add\n      0x00\n      keccak256\n      0x00\n      swap1\n      sload\n      swap1\n      0x0100\n      exp\n      swap1\n      div\n      0xff\n      and\n        /* \"A/SecureAccessControlService.sol\":632:655  return authorized[user] */\n      swap1\n      pop\n        /* \"A/SecureAccessControlService.sol\":559:662  function isAuthorized(address user) public view returns (bool) {... */\n      swap2\n      swap1\n      pop\n      jump\t// out\n        /* \"#utility.yul\":88:205   */\n    tag_28:\n        /* \"#utility.yul\":197:198   */\n      0x00\n        /* \"#utility.yul\":194:195   */\n      0x00\n        /* \"#utility.yul\":187:199   */\n      revert\n        /* \"#utility.yul\":334:460   */\n    tag_30:\n        /* \"#utility.yul\":371:378   */\n      0x00\n        /* \"#utility.yul\":411:453   */\n      0xffffffffffffffffffffffffffffffffffffffff\n        /* \"#utility.yul\":404:409   */\n      dup3\n        /* \"#utility.yul\":400:454   */\n      and\n        /* \"#utility.yul\":389:454   */\n      swap1\n      pop\n        /* \"#utility.yul\":334:460   */\n      swap2\n      swap1\n      pop\n      jump\t// out\n        /* \"#utility.yul\":466:562   */\n    tag_31:\n        /* \"#utility.yul\":503:510   */\n      0x00\n        /* \"#utility.yul\":532:556   */\n      tag_48\n        /* \"#utility.yul\":550:555   */\n      dup3\n        /* \"#utility.yul\":532:556   */\n      tag_30\n      jump\t// in\n    tag_48:\n        /* \"#utility.yul\":521:556   */\n      swap1\n      pop\n        /* \"#utility.yul\":466:562   */\n      swap2\n      swap1\n      pop\n      jump\t// out\n        /* \"#utility.yul\":568:690   */\n    tag_32:\n        /* \"#utility.yul\":641:665   */\n      tag_50\n        /* \"#utility.yul\":659:664   */\n      dup2\n        /* \"#utility.yul\":641:665   */\n      tag_31\n      jump\t// in\n    tag_50:\n        /* \"#utility.yul\":634:639   */\n      dup2\n        /* \"#utility.yul\":631:666   */\n      eq\n        /* \"#utility.yul\":621:684   */\n      tag_51\n      jumpi\n        /* \"#utility.yul\":680:681   */\n      0x00\n        /* \"#utility.yul\":677:678   */\n      0x00\n        /* \"#utility.yul\":670:682   */\n      revert\n        /* \"#utility.yul\":621:684   */\n    tag_51:\n        /* \"#utility.yul\":568:690   */\n      pop\n      jump\t// out\n        /* \"#utility.yul\":696:835   */\n    tag_33:\n        /* \"#utility.yul\":742:747   */\n      0x00\n        /* \"#utility.yul\":780:786   */\n      dup2\n        /* \"#utility.yul\":767:787   */\n      calldataload\n        /* \"#utility.yul\":758:787   */\n      swap1\n      pop\n        /* \"#utility.yul\":796:829   */\n      tag_53\n        /* \"#utility.yul\":823:828   */\n      dup2\n        /* \"#utility.yul\":796:829   */\n      tag_32\n      jump\t// in\n    tag_53:\n        /* \"#utility.yul\":696:835   */\n      swap3\n      swap2\n      pop\n      pop\n      jump\t// out\n        /* \"#utility.yul\":841:931   */\n    tag_34:\n        /* \"#utility.yul\":875:882   */\n      0x00\n        /* \"#utility.yul\":918:923   */\n      dup2\n        /* \"#utility.yul\":911:924   */\n      iszero\n        /* \"#utility.yul\":904:925   */\n      iszero\n        /* \"#utility.yul\":893:925   */\n      swap1\n      pop\n        /* \"#utility.yul\":841:931   */\n      swap2\n      swap1\n      pop\n      jump\t// out\n        /* \"#utility.yul\":937:1053   */\n    tag_35:\n        /* \"#utility.yul\":1007:1028   */\n      tag_56\n        /* \"#utility.yul\":1022:1027   */\n      dup2\n        /* \"#utility.yul\":1007:1028   */\n      tag_34\n      jump\t// in\n    tag_56:\n        /* \"#utility.yul\":1000:1005   */\n      dup2\n        /* \"#utility.yul\":997:1029   */\n      eq\n        /* \"#utility.yul\":987:1047   */\n      tag_57\n      jumpi\n        /* \"#utility.yul\":1043:1044   */\n      0x00\n        /* \"#utility.yul\":1040:1041   */\n      0x00\n        /* \"#utility.yul\":1033:1045   */\n      revert\n        /* \"#utility.yul\":987:1047   */\n    tag_57:\n        /* \"#utility.yul\":937:1053   */\n      pop\n      jump\t// out\n        /* \"#utility.yul\":1059:1192   */\n    tag_36:\n        /* \"#utility.yul\":1102:1107   */\n      0x00\n        /* \"#utility.yul\":1140:1146   */\n      dup2\n        /* \"#utility.yul\":1127:1147   */\n      calldataload\n        /* \"#utility.yul\":1118:1147   */\n      swap1\n      pop\n        /* \"#utility.yul\":1156:1186   */\n      tag_59\n        /* \"#utility.yul\":1180:1185   */\n      dup2\n        /* \"#utility.yul\":1156:1186   */\n      tag_35\n      jump\t// in\n    tag_59:\n        /* \"#utility.yul\":1059:1192   */\n      swap3\n      swap2\n      pop\n      pop\n      jump\t// out\n        /* \"#utility.yul\":1198:1666   */\n    tag_8:\n        /* \"#utility.yul\":1263:1269   */\n      0x00\n        /* \"#utility.yul\":1271:1277   */\n      0x00\n        /* \"#utility.yul\":1320:1322   */\n      0x40\n        /* \"#utility.yul\":1308:1317   */\n      dup4\n        /* \"#utility.yul\":1299:1306   */\n      dup6\n        /* \"#utility.yul\":1295:1318   */\n      sub\n        /* \"#utility.yul\":1291:1323   */\n      slt\n        /* \"#utility.yul\":1288:1407   */\n      iszero\n      tag_61\n      jumpi\n        /* \"#utility.yul\":1326:1405   */\n      tag_62\n      tag_28\n      jump\t// in\n    tag_62:\n        /* \"#utility.yul\":1288:1407   */\n    tag_61:\n        /* \"#utility.yul\":1446:1447   */\n      0x00\n        /* \"#utility.yul\":1471:1524   */\n      tag_63\n        /* \"#utility.yul\":1516:1523   */\n      dup6\n        /* \"#utility.yul\":1507:1513   */\n      dup3\n        /* \"#utility.yul\":1496:1505   */\n      dup7\n        /* \"#utility.yul\":1492:1514   */\n      add\n        /* \"#utility.yul\":1471:1524   */\n      tag_33\n      jump\t// in\n    tag_63:\n        /* \"#utility.yul\":1461:1524   */\n      swap3\n      pop\n        /* \"#utility.yul\":1417:1534   */\n      pop\n        /* \"#utility.yul\":1573:1575   */\n      0x20\n        /* \"#utility.yul\":1599:1649   */\n      tag_64\n        /* \"#utility.yul\":1641:1648   */\n      dup6\n        /* \"#utility.yul\":1632:1638   */\n      dup3\n        /* \"#utility.yul\":1621:1630   */\n      dup7\n        /* \"#utility.yul\":1617:1639   */\n      add\n        /* \"#utility.yul\":1599:1649   */\n      tag_36\n      jump\t// in\n    tag_64:\n        /* \"#utility.yul\":1589:1649   */\n      swap2\n      pop\n        /* \"#utility.yul\":1544:1659   */\n      pop\n        /* \"#utility.yul\":1198:1666   */\n      swap3\n      pop\n      swap3\n      swap1\n      pop\n      jump\t// out\n        /* \"#utility.yul\":1672:1790   */\n    tag_37:\n        /* \"#utility.yul\":1759:1783   */\n      tag_66\n        /* \"#utility.yul\":1777:1782   */\n      dup2\n        /* \"#utility.yul\":1759:1783   */\n      tag_31\n      jump\t// in\n    tag_66:\n        /* \"#utility.yul\":1754:1757   */\n      dup3\n        /* \"#utility.yul\":1747:1784   */\n      mstore\n        /* \"#utility.yul\":1672:1790   */\n      pop\n      pop\n      jump\t// out\n        /* \"#utility.yul\":1796:2018   */\n    tag_13:\n        /* \"#utility.yul\":1889:1893   */\n      0x00\n        /* \"#utility.yul\":1927:1929   */\n      0x20\n        /* \"#utility.yul\":1916:1925   */\n      dup3\n        /* \"#utility.yul\":1912:1930   */\n      add\n        /* \"#utility.yul\":1904:1930   */\n      swap1\n      pop\n        /* \"#utility.yul\":1940:2011   */\n      tag_68\n        /* \"#utility.yul\":2008:2009   */\n      0x00\n        /* \"#utility.yul\":1997:2006   */\n      dup4\n        /* \"#utility.yul\":1993:2010   */\n      add\n        /* \"#utility.yul\":1984:1990   */\n      dup5\n        /* \"#utility.yul\":1940:2011   */\n      tag_37\n      jump\t// in\n    tag_68:\n        /* \"#utility.yul\":1796:2018   */\n      swap3\n      swap2\n      pop\n      pop\n      jump\t// out\n        /* \"#utility.yul\":2024:2353   */\n    tag_16:\n        /* \"#utility.yul\":2083:2089   */\n      0x00\n        /* \"#utility.yul\":2132:2134   */\n      0x20\n        /* \"#utility.yul\":2120:2129   */\n      dup3\n        /* \"#utility.yul\":2111:2118   */\n      dup5\n        /* \"#utility.yul\":2107:2130   */\n      sub\n        /* \"#utility.yul\":2103:2135   */\n      slt\n        /* \"#utility.yul\":2100:2219   */\n      iszero\n      tag_70\n      jumpi\n        /* \"#utility.yul\":2138:2217   */\n      tag_71\n      tag_28\n      jump\t// in\n    tag_71:\n        /* \"#utility.yul\":2100:2219   */\n    tag_70:\n        /* \"#utility.yul\":2258:2259   */\n      0x00\n        /* \"#utility.yul\":2283:2336   */\n      tag_72\n        /* \"#utility.yul\":2328:2335   */\n      dup5\n        /* \"#utility.yul\":2319:2325   */\n      dup3\n        /* \"#utility.yul\":2308:2317   */\n      dup6\n        /* \"#utility.yul\":2304:2326   */\n      add\n        /* \"#utility.yul\":2283:2336   */\n      tag_33\n      jump\t// in\n    tag_72:\n        /* \"#utility.yul\":2273:2336   */\n      swap2\n      pop\n        /* \"#utility.yul\":2229:2346   */\n      pop\n        /* \"#utility.yul\":2024:2353   */\n      swap3\n      swap2\n      pop\n      pop\n      jump\t// out\n        /* \"#utility.yul\":2359:2468   */\n    tag_38:\n        /* \"#utility.yul\":2440:2461   */\n      tag_74\n        /* \"#utility.yul\":2455:2460   */\n      dup2\n        /* \"#utility.yul\":2440:2461   */\n      tag_34\n      jump\t// in\n    tag_74:\n        /* \"#utility.yul\":2435:2438   */\n      dup3\n        /* \"#utility.yul\":2428:2462   */\n      mstore\n        /* \"#utility.yul\":2359:2468   */\n      pop\n      pop\n      jump\t// out\n        /* \"#utility.yul\":2474:2684   */\n    tag_19:\n        /* \"#utility.yul\":2561:2565   */\n      0x00\n        /* \"#utility.yul\":2599:2601   */\n      0x20\n        /* \"#utility.yul\":2588:2597   */\n      dup3\n        /* \"#utility.yul\":2584:2602   */\n      add\n        /* \"#utility.yul\":2576:2602   */\n      swap1\n      pop\n        /* \"#utility.yul\":2612:2677   */\n      tag_76\n        /* \"#utility.yul\":2674:2675   */\n      0x00\n        /* \"#utility.yul\":2663:2672   */\n      dup4\n        /* \"#utility.yul\":2659:2676   */\n      add\n        /* \"#utility.yul\":2650:2656   */\n      dup5\n        /* \"#utility.yul\":2612:2677   */\n      tag_38\n      jump\t// in\n    tag_76:\n        /* \"#utility.yul\":2474:2684   */\n      swap3\n      swap2\n      pop\n      pop\n      jump\t// out\n        /* \"#utility.yul\":2690:2859   */\n    tag_39:\n        /* \"#utility.yul\":2774:2785   */\n      0x00\n        /* \"#utility.yul\":2808:2814   */\n      dup3\n        /* \"#utility.yul\":2803:2806   */\n      dup3\n        /* \"#utility.yul\":2796:2815   */\n      mstore\n        /* \"#utility.yul\":2848:2852   */\n      0x20\n        /* \"#utility.yul\":2843:2846   */\n      dup3\n        /* \"#utility.yul\":2839:2853   */\n      add\n        /* \"#utility.yul\":2824:2853   */\n      swap1\n      pop\n        /* \"#utility.yul\":2690:2859   */\n      swap3\n      swap2\n      pop\n      pop\n      jump\t// out\n        /* \"#utility.yul\":2865:3024   */\n    tag_40:\n        /* \"#utility.yul\":3005:3016   */\n      0x4e6f74206f776e65720000000000000000000000000000000000000000000000\n        /* \"#utility.yul\":3001:3002   */\n      0x00\n        /* \"#utility.yul\":2993:2999   */\n      dup3\n        /* \"#utility.yul\":2989:3003   */\n      add\n        /* \"#utility.yul\":2982:3017   */\n      mstore\n        /* \"#utility.yul\":2865:3024   */\n      pop\n      jump\t// out\n        /* \"#utility.yul\":3030:3395   */\n    tag_41:\n        /* \"#utility.yul\":3172:3175   */\n      0x00\n        /* \"#utility.yul\":3193:3259   */\n      tag_80\n        /* \"#utility.yul\":3257:3258   */\n      0x09\n        /* \"#utility.yul\":3252:3255   */\n      dup4\n        /* \"#utility.yul\":3193:3259   */\n      tag_39\n      jump\t// in\n    tag_80:\n        /* \"#utility.yul\":3186:3259   */\n      swap2\n      pop\n        /* \"#utility.yul\":3268:3361   */\n      tag_81\n        /* \"#utility.yul\":3357:3360   */\n      dup3\n        /* \"#utility.yul\":3268:3361   */\n      tag_40\n      jump\t// in\n    tag_81:\n        /* \"#utility.yul\":3386:3388   */\n      0x20\n        /* \"#utility.yul\":3381:3384   */\n      dup3\n        /* \"#utility.yul\":3377:3389   */\n      add\n        /* \"#utility.yul\":3370:3389   */\n      swap1\n      pop\n        /* \"#utility.yul\":3030:3395   */\n      swap2\n      swap1\n      pop\n      jump\t// out\n        /* \"#utility.yul\":3401:3820   */\n    tag_23:\n        /* \"#utility.yul\":3567:3571   */\n      0x00\n        /* \"#utility.yul\":3605:3607   */\n      0x20\n        /* \"#utility.yul\":3594:3603   */\n      dup3\n        /* \"#utility.yul\":3590:3608   */\n      add\n        /* \"#utility.yul\":3582:3608   */\n      swap1\n      pop\n        /* \"#utility.yul\":3654:3663   */\n      dup2\n        /* \"#utility.yul\":3648:3652   */\n      dup2\n        /* \"#utility.yul\":3644:3664   */\n      sub\n        /* \"#utility.yul\":3640:3641   */\n      0x00\n        /* \"#utility.yul\":3629:3638   */\n      dup4\n        /* \"#utility.yul\":3625:3642   */\n      add\n        /* \"#utility.yul\":3618:3665   */\n      mstore\n        /* \"#utility.yul\":3682:3813   */\n      tag_83\n        /* \"#utility.yul\":3808:3812   */\n      dup2\n        /* \"#utility.yul\":3682:3813   */\n      tag_41\n      jump\t// in\n    tag_83:\n        /* \"#utility.yul\":3674:3813   */\n      swap1\n      pop\n        /* \"#utility.yul\":3401:3820   */\n      swap2\n      swap1\n      pop\n      jump\t// out\n\n    auxdata: 0xa26469706673582212208f83ed7c5a6a32d3d1d4ba285adf092171a7b2cdd2c114ae277377f3626944c164736f6c634300081d0033\n}\n",
				"bytecode": {
					"linkReferences": {},
					"object": "6080604052348015600e575f5ffd5b50335f5f6101000a81548173ffffffffffffffffffffffffffffffffffffffff021916908373ffffffffffffffffffffffffffffffffffffffff1602179055506104518061005b5f395ff3fe608060405234801561000f575f5ffd5b506004361061003f575f3560e01c8063711bf9b2146100435780638da5cb5b1461005f578063fe9fbb801461007d575b5f5ffd5b61005d600480360381019061005891906102ea565b6100ad565b005b6100676101e1565b6040516100749190610337565b60405180910390f35b61009760048036038101906100929190610350565b610205565b6040516100a4919061038a565b60405180910390f35b5f5f9054906101000a900473ffffffffffffffffffffffffffffffffffffffff1673ffffffffffffffffffffffffffffffffffffffff163373ffffffffffffffffffffffffffffffffffffffff161461013b576040517f08c379a0000000000000000000000000000000000000000000000000000000008152600401610132906103fd565b60405180910390fd5b8060015f8473ffffffffffffffffffffffffffffffffffffffff1673ffffffffffffffffffffffffffffffffffffffff1681526020019081526020015f205f6101000a81548160ff0219169083151502179055508173ffffffffffffffffffffffffffffffffffffffff167f2c59b8f31260880424e870332281eba93ddfef67e37d699cebe5a7ba89f7a8a6826040516101d5919061038a565b60405180910390a25050565b5f5f9054906101000a900473ffffffffffffffffffffffffffffffffffffffff1681565b5f60015f8373ffffffffffffffffffffffffffffffffffffffff1673ffffffffffffffffffffffffffffffffffffffff1681526020019081526020015f205f9054906101000a900460ff169050919050565b5f5ffd5b5f73ffffffffffffffffffffffffffffffffffffffff82169050919050565b5f6102848261025b565b9050919050565b6102948161027a565b811461029e575f5ffd5b50565b5f813590506102af8161028b565b92915050565b5f8115159050919050565b6102c9816102b5565b81146102d3575f5ffd5b50565b5f813590506102e4816102c0565b92915050565b5f5f60408385031215610300576102ff610257565b5b5f61030d858286016102a1565b925050602061031e858286016102d6565b9150509250929050565b6103318161027a565b82525050565b5f60208201905061034a5f830184610328565b92915050565b5f6020828403121561036557610364610257565b5b5f610372848285016102a1565b91505092915050565b610384816102b5565b82525050565b5f60208201905061039d5f83018461037b565b92915050565b5f82825260208201905092915050565b7f4e6f74206f776e657200000000000000000000000000000000000000000000005f82015250565b5f6103e76009836103a3565b91506103f2826103b3565b602082019050919050565b5f6020820190508181035f830152610414816103db565b905091905056fea26469706673582212208f83ed7c5a6a32d3d1d4ba285adf092171a7b2cdd2c114ae277377f3626944c164736f6c634300081d0033",
					"opcodes": "PUSH1 0x80 PUSH1 0x40 MSTORE CALLVALUE DUP1 ISZERO PUSH1 0xE JUMPI PUSH0 PUSH0 REVERT JUMPDEST POP CALLER PUSH0 PUSH0 PUSH2 0x100 EXP DUP2 SLOAD DUP2 PUSH20 0xFFFFFFFFFFFFFFFFFFFFFFFFFFFFFFFFFFFFFFFF MUL NOT AND SWAP1 DUP4 PUSH20 0xFFFFFFFFFFFFFFFFFFFFFFFFFFFFFFFFFFFFFFFF AND MUL OR SWAP1 SSTORE POP PUSH2 0x451 DUP1 PUSH2 0x5B PUSH0 CODECOPY PUSH0 RETURN INVALID PUSH1 0x80 PUSH1 0x40 MSTORE CALLVALUE DUP1 ISZERO PUSH2 0xF JUMPI PUSH0 PUSH0 REVERT JUMPDEST POP PUSH1 0x4 CALLDATASIZE LT PUSH2 0x3F JUMPI PUSH0 CALLDATALOAD PUSH1 0xE0 SHR DUP1 PUSH4 0x711BF9B2 EQ PUSH2 0x43 JUMPI DUP1 PUSH4 0x8DA5CB5B EQ PUSH2 0x5F JUMPI DUP1 PUSH4 0xFE9FBB80 EQ PUSH2 0x7D JUMPI JUMPDEST PUSH0 PUSH0 REVERT JUMPDEST PUSH2 0x5D PUSH1 0x4 DUP1 CALLDATASIZE SUB DUP2 ADD SWAP1 PUSH2 0x58 SWAP2 SWAP1 PUSH2 0x2EA JUMP JUMPDEST PUSH2 0xAD JUMP JUMPDEST STOP JUMPDEST PUSH2 0x67 PUSH2 0x1E1 JUMP JUMPDEST PUSH1 0x40 MLOAD PUSH2 0x74 SWAP2 SWAP1 PUSH2 0x337 JUMP JUMPDEST PUSH1 0x40 MLOAD DUP1 SWAP2 SUB SWAP1 RETURN JUMPDEST PUSH2 0x97 PUSH1 0x4 DUP1 CALLDATASIZE SUB DUP2 ADD SWAP1 PUSH2 0x92 SWAP2 SWAP1 PUSH2 0x350 JUMP JUMPDEST PUSH2 0x205 JUMP JUMPDEST PUSH1 0x40 MLOAD PUSH2 0xA4 SWAP2 SWAP1 PUSH2 0x38A JUMP JUMPDEST PUSH1 0x40 MLOAD DUP1 SWAP2 SUB SWAP1 RETURN JUMPDEST PUSH0 PUSH0 SWAP1 SLOAD SWAP1 PUSH2 0x100 EXP SWAP1 DIV PUSH20 0xFFFFFFFFFFFFFFFFFFFFFFFFFFFFFFFFFFFFFFFF AND PUSH20 0xFFFFFFFFFFFFFFFFFFFFFFFFFFFFFFFFFFFFFFFF AND CALLER PUSH20 0xFFFFFFFFFFFFFFFFFFFFFFFFFFFFFFFFFFFFFFFF AND EQ PUSH2 0x13B JUMPI PUSH1 0x40 MLOAD PUSH32 0x8C379A000000000000000000000000000000000000000000000000000000000 DUP2 MSTORE PUSH1 0x4 ADD PUSH2 0x132 SWAP1 PUSH2 0x3FD JUMP JUMPDEST PUSH1 0x40 MLOAD DUP1 SWAP2 SUB SWAP1 REVERT JUMPDEST DUP1 PUSH1 0x1 PUSH0 DUP5 PUSH20 0xFFFFFFFFFFFFFFFFFFFFFFFFFFFFFFFFFFFFFFFF AND PUSH20 0xFFFFFFFFFFFFFFFFFFFFFFFFFFFFFFFFFFFFFFFF AND DUP2 MSTORE PUSH1 0x20 ADD SWAP1 DUP2 MSTORE PUSH1 0x20 ADD PUSH0 KECCAK256 PUSH0 PUSH2 0x100 EXP DUP2 SLOAD DUP2 PUSH1 0xFF MUL NOT AND SWAP1 DUP4 ISZERO ISZERO MUL OR SWAP1 SSTORE POP DUP2 PUSH20 0xFFFFFFFFFFFFFFFFFFFFFFFFFFFFFFFFFFFFFFFF AND PUSH32 0x2C59B8F31260880424E870332281EBA93DDFEF67E37D699CEBE5A7BA89F7A8A6 DUP3 PUSH1 0x40 MLOAD PUSH2 0x1D5 SWAP2 SWAP1 PUSH2 0x38A JUMP JUMPDEST PUSH1 0x40 MLOAD DUP1 SWAP2 SUB SWAP1 LOG2 POP POP JUMP JUMPDEST PUSH0 PUSH0 SWAP1 SLOAD SWAP1 PUSH2 0x100 EXP SWAP1 DIV PUSH20 0xFFFFFFFFFFFFFFFFFFFFFFFFFFFFFFFFFFFFFFFF AND DUP2 JUMP JUMPDEST PUSH0 PUSH1 0x1 PUSH0 DUP4 PUSH20 0xFFFFFFFFFFFFFFFFFFFFFFFFFFFFFFFFFFFFFFFF AND PUSH20 0xFFFFFFFFFFFFFFFFFFFFFFFFFFFFFFFFFFFFFFFF AND DUP2 MSTORE PUSH1 0x20 ADD SWAP1 DUP2 MSTORE PUSH1 0x20 ADD PUSH0 KECCAK256 PUSH0 SWAP1 SLOAD SWAP1 PUSH2 0x100 EXP SWAP1 DIV PUSH1 0xFF AND SWAP1 POP SWAP2 SWAP1 POP JUMP JUMPDEST PUSH0 PUSH0 REVERT JUMPDEST PUSH0 PUSH20 0xFFFFFFFFFFFFFFFFFFFFFFFFFFFFFFFFFFFFFFFF DUP3 AND SWAP1 POP SWAP2 SWAP1 POP JUMP JUMPDEST PUSH0 PUSH2 0x284 DUP3 PUSH2 0x25B JUMP JUMPDEST SWAP1 POP SWAP2 SWAP1 POP JUMP JUMPDEST PUSH2 0x294 DUP2 PUSH2 0x27A JUMP JUMPDEST DUP2 EQ PUSH2 0x29E JUMPI PUSH0 PUSH0 REVERT JUMPDEST POP JUMP JUMPDEST PUSH0 DUP2 CALLDATALOAD SWAP1 POP PUSH2 0x2AF DUP2 PUSH2 0x28B JUMP JUMPDEST SWAP3 SWAP2 POP POP JUMP JUMPDEST PUSH0 DUP2 ISZERO ISZERO SWAP1 POP SWAP2 SWAP1 POP JUMP JUMPDEST PUSH2 0x2C9 DUP2 PUSH2 0x2B5 JUMP JUMPDEST DUP2 EQ PUSH2 0x2D3 JUMPI PUSH0 PUSH0 REVERT JUMPDEST POP JUMP JUMPDEST PUSH0 DUP2 CALLDATALOAD SWAP1 POP PUSH2 0x2E4 DUP2 PUSH2 0x2C0 JUMP JUMPDEST SWAP3 SWAP2 POP POP JUMP JUMPDEST PUSH0 PUSH0 PUSH1 0x40 DUP4 DUP6 SUB SLT ISZERO PUSH2 0x300 JUMPI PUSH2 0x2FF PUSH2 0x257 JUMP JUMPDEST JUMPDEST PUSH0 PUSH2 0x30D DUP6 DUP3 DUP7 ADD PUSH2 0x2A1 JUMP JUMPDEST SWAP3 POP POP PUSH1 0x20 PUSH2 0x31E DUP6 DUP3 DUP7 ADD PUSH2 0x2D6 JUMP JUMPDEST SWAP2 POP POP SWAP3 POP SWAP3 SWAP1 POP JUMP JUMPDEST PUSH2 0x331 DUP2 PUSH2 0x27A JUMP JUMPDEST DUP3 MSTORE POP POP JUMP JUMPDEST PUSH0 PUSH1 0x20 DUP3 ADD SWAP1 POP PUSH2 0x34A PUSH0 DUP4 ADD DUP5 PUSH2 0x328 JUMP JUMPDEST SWAP3 SWAP2 POP POP JUMP JUMPDEST PUSH0 PUSH1 0x20 DUP3 DUP5 SUB SLT ISZERO PUSH2 0x365 JUMPI PUSH2 0x364 PUSH2 0x257 JUMP JUMPDEST JUMPDEST PUSH0 PUSH2 0x372 DUP5 DUP3 DUP6 ADD PUSH2 0x2A1 JUMP JUMPDEST SWAP2 POP POP SWAP3 SWAP2 POP POP JUMP JUMPDEST PUSH2 0x384 DUP2 PUSH2 0x2B5 JUMP JUMPDEST DUP3 MSTORE POP POP JUMP JUMPDEST PUSH0 PUSH1 0x20 DUP3 ADD SWAP1 POP PUSH2 0x39D PUSH0 DUP4 ADD DUP5 PUSH2 0x37B JUMP JUMPDEST SWAP3 SWAP2 POP POP JUMP JUMPDEST PUSH0 DUP3 DUP3 MSTORE PUSH1 0x20 DUP3 ADD SWAP1 POP SWAP3 SWAP2 POP POP JUMP JUMPDEST PUSH32 0x4E6F74206F776E65720000000000000000000000000000000000000000000000 PUSH0 DUP3 ADD MSTORE POP JUMP JUMPDEST PUSH0 PUSH2 0x3E7 PUSH1 0x9 DUP4 PUSH2 0x3A3 JUMP JUMPDEST SWAP2 POP PUSH2 0x3F2 DUP3 PUSH2 0x3B3 JUMP JUMPDEST PUSH1 0x20 DUP3 ADD SWAP1 POP SWAP2 SWAP1 POP JUMP JUMPDEST PUSH0 PUSH1 0x20 DUP3 ADD SWAP1 POP DUP2 DUP2 SUB PUSH0 DUP4 ADD MSTORE PUSH2 0x414 DUP2 PUSH2 0x3DB JUMP JUMPDEST SWAP1 POP SWAP2 SWAP1 POP JUMP INVALID LOG2 PUSH5 0x6970667358 0x22 SLT KECCAK256 DUP16 DUP4 0xED PUSH29 0x5A6A32D3D1D4BA285ADF092171A7B2CDD2C114AE277377F3626944C164 PUSH20 0x6F6C634300081D00330000000000000000000000 "
				},
				"gasEstimates": {
					"creation": {
						"codeDepositCost": "221000",
						"executionCost": "24525",
						"totalCost": "245525"
					},
					"external": {
						"isAuthorized(address)": "2892",
						"owner()": "2507",
						"setAuthorized(address,bool)": "infinite"
					}
				},
				"methodIdentifiers": {
					"isAuthorized(address)": "fe9fbb80",
					"owner()": "8da5cb5b",
					"setAuthorized(address,bool)": "711bf9b2"
				}
			},
			"storageLayout": {
				"storage": [
					{
						"astId": 3,
						"contract": "A/SecureAccessControlService.sol:SecureAccessControlService",
						"label": "owner",
						"offset": 0,
						"slot": "0",
						"type": "t_address"
					},
					{
						"astId": 7,
						"contract": "A/SecureAccessControlService.sol:SecureAccessControlService",
						"label": "authorized",
						"offset": 0,
						"slot": "1",
						"type": "t_mapping(t_address,t_bool)"
					}
				],
				"types": {
					"t_address": {
						"encoding": "inplace",
						"label": "address",
						"numberOfBytes": "20"
					},
					"t_bool": {
						"encoding": "inplace",
						"label": "bool",
						"numberOfBytes": "1"
					},
					"t_mapping(t_address,t_bool)": {
						"encoding": "mapping",
						"key": "t_address",
						"label": "mapping(address => bool)",
						"numberOfBytes": "32",
						"value": "t_bool"
					}
				}
			},
			"userdoc": {
				"kind": "user",
				"methods": {},
				"version": 1
			}
		}
	}
}