{
	"data": {
		"bytecode": {
			"linkReferences": {},
			"object": "6080604052348015600e575f80fd5b506101558061001c5f395ff3fe608060405234801561000f575f80fd5b5060043610610029575f3560e01c806382dc78361461002d575b5f80fd5b610035610037565b005b3273ffffffffffffffffffffffffffffffffffffffff163373ffffffffffffffffffffffffffffffffffffffff16146100a5576040517f08c379a000000000000000000000000000000000000000000000000000000000815260040161009c90610101565b60405180910390fd5b565b5f82825260208201905092915050565b7f4e6f20636f6e74726163747320616c6c6f7765640000000000000000000000005f82015250565b5f6100eb6014836100a7565b91506100f6826100b7565b602082019050919050565b5f6020820190508181035f830152610118816100df565b905091905056fea26469706673582212206e512e0867f00f082ee31c464b9e6eb74ace806bfa1ed1850442e4dff8af51aa64736f6c634300081a0033",
			"opcodes": "PUSH1 0x80 PUSH1 0x40 MSTORE CALLVALUE DUP1 ISZERO PUSH1 0xE JUMPI PUSH0 DUP1 REVERT JUMPDEST POP PUSH2 0x155 DUP1 PUSH2 0x1C PUSH0 CODECOPY PUSH0 RETURN INVALID PUSH1 0x80 PUSH1 0x40 MSTORE CALLVALUE DUP1 ISZERO PUSH2 0xF JUMPI PUSH0 DUP1 REVERT JUMPDEST POP PUSH1 0x4 CALLDATASIZE LT PUSH2 0x29 JUMPI PUSH0 CALLDATALOAD PUSH1 0xE0 SHR DUP1 PUSH4 0x82DC7836 EQ PUSH2 0x2D JUMPI JUMPDEST PUSH0 DUP1 REVERT JUMPDEST PUSH2 0x35 PUSH2 0x37 JUMP JUMPDEST STOP JUMPDEST ORIGIN PUSH20 0xFFFFFFFFFFFFFFFFFFFFFFFFFFFFFFFFFFFFFFFF AND CALLER PUSH20 0xFFFFFFFFFFFFFFFFFFFFFFFFFFFFFFFFFFFFFFFF AND EQ PUSH2 0xA5 JUMPI PUSH1 0x40 MLOAD PUSH32 0x8C379A000000000000000000000000000000000000000000000000000000000 DUP2 MSTORE PUSH1 0x4 ADD PUSH2 0x9C SWAP1 PUSH2 0x101 JUMP JUMPDEST PUSH1 0x40 MLOAD DUP1 SWAP2 SUB SWAP1 REVERT JUMPDEST JUMP JUMPDEST PUSH0 DUP3 DUP3 MSTORE PUSH1 0x20 DUP3 ADD SWAP1 POP SWAP3 SWAP2 POP POP JUMP JUMPDEST PUSH32 0x4E6F20636F6E74726163747320616C6C6F776564000000000000000000000000 PUSH0 DUP3 ADD MSTORE POP JUMP JUMPDEST PUSH0 PUSH2 0xEB PUSH1 0x14 DUP4 PUSH2 0xA7 JUMP JUMPDEST SWAP2 POP PUSH2 0xF6 DUP3 PUSH2 0xB7 JUMP JUMPDEST PUSH1 0x20 DUP3 ADD SWAP1 POP SWAP2 SWAP1 POP JUMP JUMPDEST PUSH0 PUSH1 0x20 DUP3 ADD SWAP1 POP DUP2 DUP2 SUB PUSH0 DUP4 ADD MSTORE PUSH2 0x118 DUP2 PUSH2 0xDF JUMP JUMPDEST SWAP1 POP SWAP2 SWAP1 POP JUMP INVALID LOG2 PUSH5 0x6970667358 0x22 SLT KECCAK256 PUSH15 0x512E0867F00F082EE31C464B9E6EB7 BLOBBASEFEE 0xCE DUP1 PUSH12 0xFA1ED1850442E4DFF8AF51AA PUSH5 0x736F6C6343 STOP ADDMOD BYTE STOP CALLER "
		},
		"gasEstimates": {
			"creation": {
				"codeDepositCost": "68200",
				"executionCost": "115",
				"totalCost": "68315"
			},
			"external": {
				"openGate()": "438"
			}
		},
		"methodIdentifiers": {
			"openGate()": "82dc7836"
		}
	},
	"abi": [
		{
			"inputs": [],
			"name": "openGate",
			"outputs": [],
			"stateMutability": "nonpayable",
			"type": "function"
		}
	]
}