{
	"data": {
		"bytecode": {
			"linkReferences": {},
			"object": "6080604052348015600e575f80fd5b503360025f6101000a81548173ffffffffffffffffffffffffffffffffffffffff021916908373ffffffffffffffffffffffffffffffffffffffff1602179055506106798061005c5f395ff3fe608060405234801561000f575f80fd5b5060043610610055575f3560e01c806304d6ded414610059578063247d9bb91461008b5780636ed28ed0146100a75780638da5cb5b146100c3578063e0d64b37146100e1575b5f80fd5b610073600480360381019061006e91906103ca565b610111565b60405161008293929190610404565b60405180910390f35b6100a560048036038101906100a09190610439565b610136565b005b6100c160048036038101906100bc919061049d565b61020c565b005b6100cb610359565b6040516100d8919061051a565b60405180910390f35b6100fb60048036038101906100f691906103ca565b61037e565b6040516101089190610533565b60405180910390f35b5f602052805f5260405f205f91509050805f0154908060010154908060020154905083565b60025f9054906101000a900473ffffffffffffffffffffffffffffffffffffffff1673ffffffffffffffffffffffffffffffffffffffff163373ffffffffffffffffffffffffffffffffffffffff16146101bc576040517f2582b82900000000000000000000000000000000000000000000000000000000815260040160405180910390fd5b6040518060600160405280848152602001838152602001828152505f808681526020019081526020015f205f820151815f0155602082015181600101556040820151816002015590505050505050565b5f805f8481526020019081526020015f206040518060600160405290815f8201548152602001600182015481526020016002820154815250509050805f015182108061025b5750806020015182115b15610292576040517fbd5b0f3600000000000000000000000000000000000000000000000000000000815260040160405180910390fd5b5f8160400151141580156102b557505f8160400151836102b29190610579565b14155b156102ec576040517f90f37dd700000000000000000000000000000000000000000000000000000000815260040160405180910390fd5b8160015f8581526020019081526020015f2081905550823373ffffffffffffffffffffffffffffffffffffffff167f7f6935aa55171fd70319ae1a7a0ea04594d1615826bddbac61fcc8afb840852184600260405161034c92919061061c565b60405180910390a3505050565b60025f9054906101000a900473ffffffffffffffffffffffffffffffffffffffff1681565b6001602052805f5260405f205f915090505481565b5f80fd5b5f819050919050565b6103a981610397565b81146103b3575f80fd5b50565b5f813590506103c4816103a0565b92915050565b5f602082840312156103df576103de610393565b5b5f6103ec848285016103b6565b91505092915050565b6103fe81610397565b82525050565b5f6060820190506104175f8301866103f5565b61042460208301856103f5565b61043160408301846103f5565b949350505050565b5f805f806080858703121561045157610450610393565b5b5f61045e878288016103b6565b945050602061046f878288016103b6565b9350506040610480878288016103b6565b9250506060610491878288016103b6565b91505092959194509250565b5f80604083850312156104b3576104b2610393565b5b5f6104c0858286016103b6565b92505060206104d1858286016103b6565b9150509250929050565b5f73ffffffffffffffffffffffffffffffffffffffff82169050919050565b5f610504826104db565b9050919050565b610514816104fa565b82525050565b5f60208201905061052d5f83018461050b565b92915050565b5f6020820190506105465f8301846103f5565b92915050565b7f4e487b71000000000000000000000000000000000000000000000000000000005f52601260045260245ffd5b5f61058382610397565b915061058e83610397565b92508261059e5761059d61054c565b5b828206905092915050565b7f4e487b71000000000000000000000000000000000000000000000000000000005f52602160045260245ffd5b600481106105e7576105e66105a9565b5b50565b5f8190506105f7826105d6565b919050565b5f610606826105ea565b9050919050565b610616816105fc565b82525050565b5f60408201905061062f5f8301856103f5565b61063c602083018461060d565b939250505056fea2646970667358221220096beca49fe564666dc06068e9213f4150bd71f17e55cca507c812f0433afe8464736f6c634300081a0033",
			"opcodes": "PUSH1 0x80 PUSH1 0x40 MSTORE CALLVALUE DUP1 ISZERO PUSH1 0xE JUMPI PUSH0 DUP1 REVERT JUMPDEST POP CALLER PUSH1 0x2 PUSH0 PUSH2 0x100 EXP DUP2 SLOAD DUP2 PUSH20 0xFFFFFFFFFFFFFFFFFFFFFFFFFFFFFFFFFFFFFFFF MUL NOT AND SWAP1 DUP4 PUSH20 0xFFFFFFFFFFFFFFFFFFFFFFFFFFFFFFFFFFFFFFFF AND MUL OR SWAP1 SSTORE POP PUSH2 0x679 DUP1 PUSH2 0x5C PUSH0 CODECOPY PUSH0 RETURN INVALID PUSH1 0x80 PUSH1 0x40 MSTORE CALLVALUE DUP1 ISZERO PUSH2 0xF JUMPI PUSH0 DUP1 REVERT JUMPDEST POP PUSH1 0x4 CALLDATASIZE LT PUSH2 0x55 JUMPI PUSH0 CALLDATALOAD PUSH1 0xE0 SHR DUP1 PUSH4 0x4D6DED4 EQ PUSH2 0x59 JUMPI DUP1 PUSH4 0x247D9BB9 EQ PUSH2 0x8B JUMPI DUP1 PUSH4 0x6ED28ED0 EQ PUSH2 0xA7 JUMPI DUP1 PUSH4 0x8DA5CB5B EQ PUSH2 0xC3 JUMPI DUP1 PUSH4 0xE0D64B37 EQ PUSH2 0xE1 JUMPI JUMPDEST PUSH0 DUP1 REVERT JUMPDEST PUSH2 0x73 PUSH1 0x4 DUP1 CALLDATASIZE SUB DUP2 ADD SWAP1 PUSH2 0x6E SWAP2 SWAP1 PUSH2 0x3CA JUMP JUMPDEST PUSH2 0x111 JUMP JUMPDEST PUSH1 0x40 MLOAD PUSH2 0x82 SWAP4 SWAP3 SWAP2 SWAP1 PUSH2 0x404 JUMP JUMPDEST PUSH1 0x40 MLOAD DUP1 SWAP2 SUB SWAP1 RETURN JUMPDEST PUSH2 0xA5 PUSH1 0x4 DUP1 CALLDATASIZE SUB DUP2 ADD SWAP1 PUSH2 0xA0 SWAP2 SWAP1 PUSH2 0x439 JUMP JUMPDEST PUSH2 0x136 JUMP JUMPDEST STOP JUMPDEST PUSH2 0xC1 PUSH1 0x4 DUP1 CALLDATASIZE SUB DUP2 ADD SWAP1 PUSH2 0xBC SWAP2 SWAP1 PUSH2 0x49D JUMP JUMPDEST PUSH2 0x20C JUMP JUMPDEST STOP JUMPDEST PUSH2 0xCB PUSH2 0x359 JUMP JUMPDEST PUSH1 0x40 MLOAD PUSH2 0xD8 SWAP2 SWAP1 PUSH2 0x51A JUMP JUMPDEST PUSH1 0x40 MLOAD DUP1 SWAP2 SUB SWAP1 RETURN JUMPDEST PUSH2 0xFB PUSH1 0x4 DUP1 CALLDATASIZE SUB DUP2 ADD SWAP1 PUSH2 0xF6 SWAP2 SWAP1 PUSH2 0x3CA JUMP JUMPDEST PUSH2 0x37E JUMP JUMPDEST PUSH1 0x40 MLOAD PUSH2 0x108 SWAP2 SWAP1 PUSH2 0x533 JUMP JUMPDEST PUSH1 0x40 MLOAD DUP1 SWAP2 SUB SWAP1 RETURN JUMPDEST PUSH0 PUSH1 0x20 MSTORE DUP1 PUSH0 MSTORE PUSH1 0x40 PUSH0 KECCAK256 PUSH0 SWAP2 POP SWAP1 POP DUP1 PUSH0 ADD SLOAD SWAP1 DUP1 PUSH1 0x1 ADD SLOAD SWAP1 DUP1 PUSH1 0x2 ADD SLOAD SWAP1 POP DUP4 JUMP JUMPDEST PUSH1 0x2 PUSH0 SWAP1 SLOAD SWAP1 PUSH2 0x100 EXP SWAP1 DIV PUSH20 0xFFFFFFFFFFFFFFFFFFFFFFFFFFFFFFFFFFFFFFFF AND PUSH20 0xFFFFFFFFFFFFFFFFFFFFFFFFFFFFFFFFFFFFFFFF AND CALLER PUSH20 0xFFFFFFFFFFFFFFFFFFFFFFFFFFFFFFFFFFFFFFFF AND EQ PUSH2 0x1BC JUMPI PUSH1 0x40 MLOAD PUSH32 0x2582B82900000000000000000000000000000000000000000000000000000000 DUP2 MSTORE PUSH1 0x4 ADD PUSH1 0x40 MLOAD DUP1 SWAP2 SUB SWAP1 REVERT JUMPDEST PUSH1 0x40 MLOAD DUP1 PUSH1 0x60 ADD PUSH1 0x40 MSTORE DUP1 DUP5 DUP2 MSTORE PUSH1 0x20 ADD DUP4 DUP2 MSTORE PUSH1 0x20 ADD DUP3 DUP2 MSTORE POP PUSH0 DUP1 DUP7 DUP2 MSTORE PUSH1 0x20 ADD SWAP1 DUP2 MSTORE PUSH1 0x20 ADD PUSH0 KECCAK256 PUSH0 DUP3 ADD MLOAD DUP2 PUSH0 ADD SSTORE PUSH1 0x20 DUP3 ADD MLOAD DUP2 PUSH1 0x1 ADD SSTORE PUSH1 0x40 DUP3 ADD MLOAD DUP2 PUSH1 0x2 ADD SSTORE SWAP1 POP POP POP POP POP POP JUMP JUMPDEST PUSH0 DUP1 PUSH0 DUP5 DUP2 MSTORE PUSH1 0x20 ADD SWAP1 DUP2 MSTORE PUSH1 0x20 ADD PUSH0 KECCAK256 PUSH1 0x40 MLOAD DUP1 PUSH1 0x60 ADD PUSH1 0x40 MSTORE SWAP1 DUP2 PUSH0 DUP3 ADD SLOAD DUP2 MSTORE PUSH1 0x20 ADD PUSH1 0x1 DUP3 ADD SLOAD DUP2 MSTORE PUSH1 0x20 ADD PUSH1 0x2 DUP3 ADD SLOAD DUP2 MSTORE POP POP SWAP1 POP DUP1 PUSH0 ADD MLOAD DUP3 LT DUP1 PUSH2 0x25B JUMPI POP DUP1 PUSH1 0x20 ADD MLOAD DUP3 GT JUMPDEST ISZERO PUSH2 0x292 JUMPI PUSH1 0x40 MLOAD PUSH32 0xBD5B0F3600000000000000000000000000000000000000000000000000000000 DUP2 MSTORE PUSH1 0x4 ADD PUSH1 0x40 MLOAD DUP1 SWAP2 SUB SWAP1 REVERT JUMPDEST PUSH0 DUP2 PUSH1 0x40 ADD MLOAD EQ ISZERO DUP1 ISZERO PUSH2 0x2B5 JUMPI POP PUSH0 DUP2 PUSH1 0x40 ADD MLOAD DUP4 PUSH2 0x2B2 SWAP2 SWAP1 PUSH2 0x579 JUMP JUMPDEST EQ ISZERO JUMPDEST ISZERO PUSH2 0x2EC JUMPI PUSH1 0x40 MLOAD PUSH32 0x90F37DD700000000000000000000000000000000000000000000000000000000 DUP2 MSTORE PUSH1 0x4 ADD PUSH1 0x40 MLOAD DUP1 SWAP2 SUB SWAP1 REVERT JUMPDEST DUP2 PUSH1 0x1 PUSH0 DUP6 DUP2 MSTORE PUSH1 0x20 ADD SWAP1 DUP2 MSTORE PUSH1 0x20 ADD PUSH0 KECCAK256 DUP2 SWAP1 SSTORE POP DUP3 CALLER PUSH20 0xFFFFFFFFFFFFFFFFFFFFFFFFFFFFFFFFFFFFFFFF AND PUSH32 0x7F6935AA55171FD70319AE1A7A0EA04594D1615826BDDBAC61FCC8AFB8408521 DUP5 PUSH1 0x2 PUSH1 0x40 MLOAD PUSH2 0x34C SWAP3 SWAP2 SWAP1 PUSH2 0x61C JUMP JUMPDEST PUSH1 0x40 MLOAD DUP1 SWAP2 SUB SWAP1 LOG3 POP POP POP JUMP JUMPDEST PUSH1 0x2 PUSH0 SWAP1 SLOAD SWAP1 PUSH2 0x100 EXP SWAP1 DIV PUSH20 0xFFFFFFFFFFFFFFFFFFFFFFFFFFFFFFFFFFFFFFFF AND DUP2 JUMP JUMPDEST PUSH1 0x1 PUSH1 0x20 MSTORE DUP1 PUSH0 MSTORE PUSH1 0x40 PUSH0 KECCAK256 PUSH0 SWAP2 POP SWAP1 POP SLOAD DUP2 JUMP JUMPDEST PUSH0 DUP1 REVERT JUMPDEST PUSH0 DUP2 SWAP1 POP SWAP2 SWAP1 POP JUMP JUMPDEST PUSH2 0x3A9 DUP2 PUSH2 0x397 JUMP JUMPDEST DUP2 EQ PUSH2 0x3B3 JUMPI PUSH0 DUP1 REVERT JUMPDEST POP JUMP JUMPDEST PUSH0 DUP2 CALLDATALOAD SWAP1 POP PUSH2 0x3C4 DUP2 PUSH2 0x3A0 JUMP JUMPDEST SWAP3 SWAP2 POP POP JUMP JUMPDEST PUSH0 PUSH1 0x20 DUP3 DUP5 SUB SLT ISZERO PUSH2 0x3DF JUMPI PUSH2 0x3DE PUSH2 0x393 JUMP JUMPDEST JUMPDEST PUSH0 PUSH2 0x3EC DUP5 DUP3 DUP6 ADD PUSH2 0x3B6 JUMP JUMPDEST SWAP2 POP POP SWAP3 SWAP2 POP POP JUMP JUMPDEST PUSH2 0x3FE DUP2 PUSH2 0x397 JUMP JUMPDEST DUP3 MSTORE POP POP JUMP JUMPDEST PUSH0 PUSH1 0x60 DUP3 ADD SWAP1 POP PUSH2 0x417 PUSH0 DUP4 ADD DUP7 PUSH2 0x3F5 JUMP JUMPDEST PUSH2 0x424 PUSH1 0x20 DUP4 ADD DUP6 PUSH2 0x3F5 JUMP JUMPDEST PUSH2 0x431 PUSH1 0x40 DUP4 ADD DUP5 PUSH2 0x3F5 JUMP JUMPDEST SWAP5 SWAP4 POP POP POP POP JUMP JUMPDEST PUSH0 DUP1 PUSH0 DUP1 PUSH1 0x80 DUP6 DUP8 SUB SLT ISZERO PUSH2 0x451 JUMPI PUSH2 0x450 PUSH2 0x393 JUMP JUMPDEST JUMPDEST PUSH0 PUSH2 0x45E DUP8 DUP3 DUP9 ADD PUSH2 0x3B6 JUMP JUMPDEST SWAP5 POP POP PUSH1 0x20 PUSH2 0x46F DUP8 DUP3 DUP9 ADD PUSH2 0x3B6 JUMP JUMPDEST SWAP4 POP POP PUSH1 0x40 PUSH2 0x480 DUP8 DUP3 DUP9 ADD PUSH2 0x3B6 JUMP JUMPDEST SWAP3 POP POP PUSH1 0x60 PUSH2 0x491 DUP8 DUP3 DUP9 ADD PUSH2 0x3B6 JUMP JUMPDEST SWAP2 POP POP SWAP3 SWAP6 SWAP2 SWAP5 POP SWAP3 POP JUMP JUMPDEST PUSH0 DUP1 PUSH1 0x40 DUP4 DUP6 SUB SLT ISZERO PUSH2 0x4B3 JUMPI PUSH2 0x4B2 PUSH2 0x393 JUMP JUMPDEST JUMPDEST PUSH0 PUSH2 0x4C0 DUP6 DUP3 DUP7 ADD PUSH2 0x3B6 JUMP JUMPDEST SWAP3 POP POP PUSH1 0x20 PUSH2 0x4D1 DUP6 DUP3 DUP7 ADD PUSH2 0x3B6 JUMP JUMPDEST SWAP2 POP POP SWAP3 POP SWAP3 SWAP1 POP JUMP JUMPDEST PUSH0 PUSH20 0xFFFFFFFFFFFFFFFFFFFFFFFFFFFFFFFFFFFFFFFF DUP3 AND SWAP1 POP SWAP2 SWAP1 POP JUMP JUMPDEST PUSH0 PUSH2 0x504 DUP3 PUSH2 0x4DB JUMP JUMPDEST SWAP1 POP SWAP2 SWAP1 POP JUMP JUMPDEST PUSH2 0x514 DUP2 PUSH2 0x4FA JUMP JUMPDEST DUP3 MSTORE POP POP JUMP JUMPDEST PUSH0 PUSH1 0x20 DUP3 ADD SWAP1 POP PUSH2 0x52D PUSH0 DUP4 ADD DUP5 PUSH2 0x50B JUMP JUMPDEST SWAP3 SWAP2 POP POP JUMP JUMPDEST PUSH0 PUSH1 0x20 DUP3 ADD SWAP1 POP PUSH2 0x546 PUSH0 DUP4 ADD DUP5 PUSH2 0x3F5 JUMP JUMPDEST SWAP3 SWAP2 POP POP JUMP JUMPDEST PUSH32 0x4E487B7100000000000000000000000000000000000000000000000000000000 PUSH0 MSTORE PUSH1 0x12 PUSH1 0x4 MSTORE PUSH1 0x24 PUSH0 REVERT JUMPDEST PUSH0 PUSH2 0x583 DUP3 PUSH2 0x397 JUMP JUMPDEST SWAP2 POP PUSH2 0x58E DUP4 PUSH2 0x397 JUMP JUMPDEST SWAP3 POP DUP3 PUSH2 0x59E JUMPI PUSH2 0x59D PUSH2 0x54C JUMP JUMPDEST JUMPDEST DUP3 DUP3 MOD SWAP1 POP SWAP3 SWAP2 POP POP JUMP JUMPDEST PUSH32 0x4E487B7100000000000000000000000000000000000000000000000000000000 PUSH0 MSTORE PUSH1 0x21 PUSH1 0x4 MSTORE PUSH1 0x24 PUSH0 REVERT JUMPDEST PUSH1 0x4 DUP2 LT PUSH2 0x5E7 JUMPI PUSH2 0x5E6 PUSH2 0x5A9 JUMP JUMPDEST JUMPDEST POP JUMP JUMPDEST PUSH0 DUP2 SWAP1 POP PUSH2 0x5F7 DUP3 PUSH2 0x5D6 JUMP JUMPDEST SWAP2 SWAP1 POP JUMP JUMPDEST PUSH0 PUSH2 0x606 DUP3 PUSH2 0x5EA JUMP JUMPDEST SWAP1 POP SWAP2 SWAP1 POP JUMP JUMPDEST PUSH2 0x616 DUP2 PUSH2 0x5FC JUMP JUMPDEST DUP3 MSTORE POP POP JUMP JUMPDEST PUSH0 PUSH1 0x40 DUP3 ADD SWAP1 POP PUSH2 0x62F PUSH0 DUP4 ADD DUP6 PUSH2 0x3F5 JUMP JUMPDEST PUSH2 0x63C PUSH1 0x20 DUP4 ADD DUP5 PUSH2 0x60D JUMP JUMPDEST SWAP4 SWAP3 POP POP POP JUMP INVALID LOG2 PUSH5 0x6970667358 0x22 SLT KECCAK256 MULMOD PUSH12 0xECA49FE564666DC06068E921 EXTCODEHASH COINBASE POP 0xBD PUSH18 0xF17E55CCA507C812F0433AFE8464736F6C63 NUMBER STOP ADDMOD BYTE STOP CALLER "
		},
		"gasEstimates": {
			"creation": {
				"codeDepositCost": "331400",
				"executionCost": "24631",
				"totalCost": "356031"
			},
			"external": {
				"elements(uint256)": "infinite",
				"owner()": "2552",
				"rules(uint256)": "infinite",
				"setRules(uint256,uint256,uint256,uint256)": "infinite",
				"store(uint256,uint256)": "infinite"
			}
		},
		"methodIdentifiers": {
			"elements(uint256)": "e0d64b37",
			"owner()": "8da5cb5b",
			"rules(uint256)": "04d6ded4",
			"setRules(uint256,uint256,uint256,uint256)": "247d9bb9",
			"store(uint256,uint256)": "6ed28ed0"
		}
	},
	"abi": [
		{
			"inputs": [],
			"stateMutability": "nonpayable",
			"type": "constructor"
		},
		{
			"inputs": [],
			"name": "VDE__NotAllowed",
			"type": "error"
		},
		{
			"inputs": [],
			"name": "VDE__OutOfRange",
			"type": "error"
		},
		{
			"inputs": [],
			"name": "VDE__TypeMismatch",
			"type": "error"
		},
		{
			"anonymous": false,
			"inputs": [
				{
					"indexed": true,
					"internalType": "address",
					"name": "who",
					"type": "address"
				},
				{
					"indexed": true,
					"internalType": "uint256",
					"name": "id",
					"type": "uint256"
				},
				{
					"indexed": false,
					"internalType": "uint256",
					"name": "value",
					"type": "uint256"
				},
				{
					"indexed": false,
					"internalType": "enum ValidDataElementDefenseType",
					"name": "defense",
					"type": "uint8"
				}
			],
			"name": "ElementStored",
			"type": "event"
		},
		{
			"inputs": [
				{
					"internalType": "uint256",
					"name": "",
					"type": "uint256"
				}
			],
			"name": "elements",
			"outputs": [
				{
					"internalType": "uint256",
					"name": "",
					"type": "uint256"
				}
			],
			"stateMutability": "view",
			"type": "function"
		},
		{
			"inputs": [],
			"name": "owner",
			"outputs": [
				{
					"internalType": "address",
					"name": "",
					"type": "address"
				}
			],
			"stateMutability": "view",
			"type": "function"
		},
		{
			"inputs": [
				{
					"internalType": "uint256",
					"name": "",
					"type": "uint256"
				}
			],
			"name": "rules",
			"outputs": [
				{
					"internalType": "uint256",
					"name": "min",
					"type": "uint256"
				},
				{
					"internalType": "uint256",
					"name": "max",
					"type": "uint256"
				},
				{
					"internalType": "uint256",
					"name": "mod",
					"type": "uint256"
				}
			],
			"stateMutability": "view",
			"type": "function"
		},
		{
			"inputs": [
				{
					"internalType": "uint256",
					"name": "id",
					"type": "uint256"
				},
				{
					"internalType": "uint256",
					"name": "min",
					"type": "uint256"
				},
				{
					"internalType": "uint256",
					"name": "max",
					"type": "uint256"
				},
				{
					"internalType": "uint256",
					"name": "mod",
					"type": "uint256"
				}
			],
			"name": "setRules",
			"outputs": [],
			"stateMutability": "nonpayable",
			"type": "function"
		},
		{
			"inputs": [
				{
					"internalType": "uint256",
					"name": "id",
					"type": "uint256"
				},
				{
					"internalType": "uint256",
					"name": "value",
					"type": "uint256"
				}
			],
			"name": "store",
			"outputs": [],
			"stateMutability": "nonpayable",
			"type": "function"
		}
	]
}