{
	"B/Bit/Bitmask Filtering.sol": {
		"BitmaskFiltering": {
			"abi": [
				{
					"inputs": [],
					"name": "flags",
					"outputs": [
						{
							"internalType": "uint8",
							"name": "",
							"type": "uint8"
						}
					],
					"stateMutability": "view",
					"type": "function"
				},
				{
					"inputs": [],
					"name": "isMaskMatched",
					"outputs": [
						{
							"internalType": "bool",
							"name": "",
							"type": "bool"
						}
					],
					"stateMutability": "view",
					"type": "function"
				},
				{
					"inputs": [],
					"name": "mask",
					"outputs": [
						{
							"internalType": "uint8",
							"name": "",
							"type": "uint8"
						}
					],
					"stateMutability": "view",
					"type": "function"
				},
				{
					"inputs": [
						{
							"internalType": "uint8",
							"name": "newFlags",
							"type": "uint8"
						}
					],
					"name": "updateFlags",
					"outputs": [],
					"stateMutability": "nonpayable",
					"type": "function"
				},
				{
					"inputs": [
						{
							"internalType": "uint8",
							"name": "newMask",
							"type": "uint8"
						}
					],
					"name": "updateMask",
					"outputs": [],
					"stateMutability": "nonpayable",
					"type": "function"
				}
			],
			"devdoc": {
				"kind": "dev",
				"methods": {},
				"version": 1
			},
			"evm": {
				"assembly": "    /* \"B/Bit/Bitmask Filtering.sol\":58:771  contract BitmaskFiltering {... */\n  mstore(0x40, 0x80)\n    /* \"B/Bit/Bitmask Filtering.sol\":110:114  0x03 */\n  0x03\n    /* \"B/Bit/Bitmask Filtering.sol\":90:114  uint8 public mask = 0x03 */\n  0x00\n  exp(0x0100, 0x00)\n  dup2\n  sload\n  dup2\n  0xff\n  mul\n  not\n  and\n  swap1\n  dup4\n  0xff\n  and\n  mul\n  or\n  swap1\n  sstore\n  pop\n    /* \"B/Bit/Bitmask Filtering.sol\":154:158  0x07 */\n  0x07\n    /* \"B/Bit/Bitmask Filtering.sol\":133:158  uint8 public flags = 0x07 */\n  0x00\n  exp(0x0100, 0x01)\n  dup2\n  sload\n  dup2\n  0xff\n  mul\n  not\n  and\n  swap1\n  dup4\n  0xff\n  and\n  mul\n  or\n  swap1\n  sstore\n  pop\n    /* \"B/Bit/Bitmask Filtering.sol\":58:771  contract BitmaskFiltering {... */\n  callvalue\n  dup1\n  iszero\n  tag_1\n  jumpi\n  revert(0x00, 0x00)\ntag_1:\n  pop\n  dataSize(sub_0)\n  dup1\n  dataOffset(sub_0)\n  0x00\n  codecopy\n  0x00\n  return\nstop\n\nsub_0: assembly {\n        /* \"B/Bit/Bitmask Filtering.sol\":58:771  contract BitmaskFiltering {... */\n      mstore(0x40, 0x80)\n      callvalue\n      dup1\n      iszero\n      tag_1\n      jumpi\n      revert(0x00, 0x00)\n    tag_1:\n      pop\n      jumpi(tag_2, lt(calldatasize, 0x04))\n      shr(0xe0, calldataload(0x00))\n      dup1\n      0x116134ee\n      eq\n      tag_3\n      jumpi\n      dup1\n      0x2f82c7f2\n      eq\n      tag_4\n      jumpi\n      dup1\n      0x64cc4aa5\n      eq\n      tag_5\n      jumpi\n      dup1\n      0x69a84da1\n      eq\n      tag_6\n      jumpi\n      dup1\n      0x6fa405fd\n      eq\n      tag_7\n      jumpi\n    tag_2:\n      revert(0x00, 0x00)\n        /* \"B/Bit/Bitmask Filtering.sol\":90:114  uint8 public mask = 0x03 */\n    tag_3:\n      tag_8\n      tag_9\n      jump\t// in\n    tag_8:\n      mload(0x40)\n      tag_10\n      swap2\n      swap1\n      tag_11\n      jump\t// in\n    tag_10:\n      mload(0x40)\n      dup1\n      swap2\n      sub\n      swap1\n      return\n        /* \"B/Bit/Bitmask Filtering.sol\":318:466  function isMaskMatched() public view returns (bool) {... */\n    tag_4:\n      tag_12\n      tag_13\n      jump\t// in\n    tag_12:\n      mload(0x40)\n      tag_14\n      swap2\n      swap1\n      tag_15\n      jump\t// in\n    tag_14:\n      mload(0x40)\n      dup1\n      swap2\n      sub\n      swap1\n      return\n        /* \"B/Bit/Bitmask Filtering.sol\":133:158  uint8 public flags = 0x07 */\n    tag_5:\n      tag_16\n      tag_17\n      jump\t// in\n    tag_16:\n      mload(0x40)\n      tag_18\n      swap2\n      swap1\n      tag_11\n      jump\t// in\n    tag_18:\n      mload(0x40)\n      dup1\n      swap2\n      sub\n      swap1\n      return\n        /* \"B/Bit/Bitmask Filtering.sol\":542:615  function updateMask(uint8 newMask) public {... */\n    tag_6:\n      tag_19\n      0x04\n      dup1\n      calldatasize\n      sub\n      dup2\n      add\n      swap1\n      tag_20\n      swap2\n      swap1\n      tag_21\n      jump\t// in\n    tag_20:\n      tag_22\n      jump\t// in\n    tag_19:\n      stop\n        /* \"B/Bit/Bitmask Filtering.sol\":692:769  function updateFlags(uint8 newFlags) public {... */\n    tag_7:\n      tag_23\n      0x04\n      dup1\n      calldatasize\n      sub\n      dup2\n      add\n      swap1\n      tag_24\n      swap2\n      swap1\n      tag_21\n      jump\t// in\n    tag_24:\n      tag_25\n      jump\t// in\n    tag_23:\n      stop\n        /* \"B/Bit/Bitmask Filtering.sol\":90:114  uint8 public mask = 0x03 */\n    tag_9:\n      0x00\n      0x00\n      swap1\n      sload\n      swap1\n      0x0100\n      exp\n      swap1\n      div\n      0xff\n      and\n      dup2\n      jump\t// out\n        /* \"B/Bit/Bitmask Filtering.sol\":318:466  function isMaskMatched() public view returns (bool) {... */\n    tag_13:\n        /* \"B/Bit/Bitmask Filtering.sol\":364:368  bool */\n      0x00\n        /* \"B/Bit/Bitmask Filtering.sol\":380:392  bool isMatch */\n      0x00\n        /* \"B/Bit/Bitmask Filtering.sol\":413:417  mask */\n      0x00\n      0x00\n      swap1\n      sload\n      swap1\n      0x0100\n      exp\n      swap1\n      div\n      0xff\n      and\n        /* \"B/Bit/Bitmask Filtering.sol\":395:417  (flags & mask) == mask */\n      0xff\n      and\n        /* \"B/Bit/Bitmask Filtering.sol\":404:408  mask */\n      0x00\n      0x00\n      swap1\n      sload\n      swap1\n      0x0100\n      exp\n      swap1\n      div\n      0xff\n      and\n        /* \"B/Bit/Bitmask Filtering.sol\":396:401  flags */\n      0x00\n      0x01\n      swap1\n      sload\n      swap1\n      0x0100\n      exp\n      swap1\n      div\n      0xff\n      and\n        /* \"B/Bit/Bitmask Filtering.sol\":396:408  flags & mask */\n      and\n        /* \"B/Bit/Bitmask Filtering.sol\":395:417  (flags & mask) == mask */\n      0xff\n      and\n      eq\n        /* \"B/Bit/Bitmask Filtering.sol\":380:417  bool isMatch = (flags & mask) == mask */\n      swap1\n      pop\n        /* \"B/Bit/Bitmask Filtering.sol\":452:459  isMatch */\n      dup1\n        /* \"B/Bit/Bitmask Filtering.sol\":445:459  return isMatch */\n      swap2\n      pop\n      pop\n        /* \"B/Bit/Bitmask Filtering.sol\":318:466  function isMaskMatched() public view returns (bool) {... */\n      swap1\n      jump\t// out\n        /* \"B/Bit/Bitmask Filtering.sol\":133:158  uint8 public flags = 0x07 */\n    tag_17:\n      0x00\n      0x01\n      swap1\n      sload\n      swap1\n      0x0100\n      exp\n      swap1\n      div\n      0xff\n      and\n      dup2\n      jump\t// out\n        /* \"B/Bit/Bitmask Filtering.sol\":542:615  function updateMask(uint8 newMask) public {... */\n    tag_22:\n        /* \"B/Bit/Bitmask Filtering.sol\":601:608  newMask */\n      dup1\n        /* \"B/Bit/Bitmask Filtering.sol\":594:598  mask */\n      0x00\n      0x00\n        /* \"B/Bit/Bitmask Filtering.sol\":594:608  mask = newMask */\n      0x0100\n      exp\n      dup2\n      sload\n      dup2\n      0xff\n      mul\n      not\n      and\n      swap1\n      dup4\n      0xff\n      and\n      mul\n      or\n      swap1\n      sstore\n      pop\n        /* \"B/Bit/Bitmask Filtering.sol\":542:615  function updateMask(uint8 newMask) public {... */\n      pop\n      jump\t// out\n        /* \"B/Bit/Bitmask Filtering.sol\":692:769  function updateFlags(uint8 newFlags) public {... */\n    tag_25:\n        /* \"B/Bit/Bitmask Filtering.sol\":754:762  newFlags */\n      dup1\n        /* \"B/Bit/Bitmask Filtering.sol\":746:751  flags */\n      0x00\n      0x01\n        /* \"B/Bit/Bitmask Filtering.sol\":746:762  flags = newFlags */\n      0x0100\n      exp\n      dup2\n      sload\n      dup2\n      0xff\n      mul\n      not\n      and\n      swap1\n      dup4\n      0xff\n      and\n      mul\n      or\n      swap1\n      sstore\n      pop\n        /* \"B/Bit/Bitmask Filtering.sol\":692:769  function updateFlags(uint8 newFlags) public {... */\n      pop\n      jump\t// out\n        /* \"#utility.yul\":7:93   */\n    tag_29:\n        /* \"#utility.yul\":42:49   */\n      0x00\n        /* \"#utility.yul\":82:86   */\n      0xff\n        /* \"#utility.yul\":75:80   */\n      dup3\n        /* \"#utility.yul\":71:87   */\n      and\n        /* \"#utility.yul\":60:87   */\n      swap1\n      pop\n        /* \"#utility.yul\":7:93   */\n      swap2\n      swap1\n      pop\n      jump\t// out\n        /* \"#utility.yul\":99:211   */\n    tag_30:\n        /* \"#utility.yul\":182:204   */\n      tag_41\n        /* \"#utility.yul\":198:203   */\n      dup2\n        /* \"#utility.yul\":182:204   */\n      tag_29\n      jump\t// in\n    tag_41:\n        /* \"#utility.yul\":177:180   */\n      dup3\n        /* \"#utility.yul\":170:205   */\n      mstore\n        /* \"#utility.yul\":99:211   */\n      pop\n      pop\n      jump\t// out\n        /* \"#utility.yul\":217:431   */\n    tag_11:\n        /* \"#utility.yul\":306:310   */\n      0x00\n        /* \"#utility.yul\":344:346   */\n      0x20\n        /* \"#utility.yul\":333:342   */\n      dup3\n        /* \"#utility.yul\":329:347   */\n      add\n        /* \"#utility.yul\":321:347   */\n      swap1\n      pop\n        /* \"#utility.yul\":357:424   */\n      tag_43\n        /* \"#utility.yul\":421:422   */\n      0x00\n        /* \"#utility.yul\":410:419   */\n      dup4\n        /* \"#utility.yul\":406:423   */\n      add\n        /* \"#utility.yul\":397:403   */\n      dup5\n        /* \"#utility.yul\":357:424   */\n      tag_30\n      jump\t// in\n    tag_43:\n        /* \"#utility.yul\":217:431   */\n      swap3\n      swap2\n      pop\n      pop\n      jump\t// out\n        /* \"#utility.yul\":437:527   */\n    tag_31:\n        /* \"#utility.yul\":471:478   */\n      0x00\n        /* \"#utility.yul\":514:519   */\n      dup2\n        /* \"#utility.yul\":507:520   */\n      iszero\n        /* \"#utility.yul\":500:521   */\n      iszero\n        /* \"#utility.yul\":489:521   */\n      swap1\n      pop\n        /* \"#utility.yul\":437:527   */\n      swap2\n      swap1\n      pop\n      jump\t// out\n        /* \"#utility.yul\":533:642   */\n    tag_32:\n        /* \"#utility.yul\":614:635   */\n      tag_46\n        /* \"#utility.yul\":629:634   */\n      dup2\n        /* \"#utility.yul\":614:635   */\n      tag_31\n      jump\t// in\n    tag_46:\n        /* \"#utility.yul\":609:612   */\n      dup3\n        /* \"#utility.yul\":602:636   */\n      mstore\n        /* \"#utility.yul\":533:642   */\n      pop\n      pop\n      jump\t// out\n        /* \"#utility.yul\":648:858   */\n    tag_15:\n        /* \"#utility.yul\":735:739   */\n      0x00\n        /* \"#utility.yul\":773:775   */\n      0x20\n        /* \"#utility.yul\":762:771   */\n      dup3\n        /* \"#utility.yul\":758:776   */\n      add\n        /* \"#utility.yul\":750:776   */\n      swap1\n      pop\n        /* \"#utility.yul\":786:851   */\n      tag_48\n        /* \"#utility.yul\":848:849   */\n      0x00\n        /* \"#utility.yul\":837:846   */\n      dup4\n        /* \"#utility.yul\":833:850   */\n      add\n        /* \"#utility.yul\":824:830   */\n      dup5\n        /* \"#utility.yul\":786:851   */\n      tag_32\n      jump\t// in\n    tag_48:\n        /* \"#utility.yul\":648:858   */\n      swap3\n      swap2\n      pop\n      pop\n      jump\t// out\n        /* \"#utility.yul\":945:1062   */\n    tag_34:\n        /* \"#utility.yul\":1054:1055   */\n      0x00\n        /* \"#utility.yul\":1051:1052   */\n      0x00\n        /* \"#utility.yul\":1044:1056   */\n      revert\n        /* \"#utility.yul\":1191:1309   */\n    tag_36:\n        /* \"#utility.yul\":1262:1284   */\n      tag_53\n        /* \"#utility.yul\":1278:1283   */\n      dup2\n        /* \"#utility.yul\":1262:1284   */\n      tag_29\n      jump\t// in\n    tag_53:\n        /* \"#utility.yul\":1255:1260   */\n      dup2\n        /* \"#utility.yul\":1252:1285   */\n      eq\n        /* \"#utility.yul\":1242:1303   */\n      tag_54\n      jumpi\n        /* \"#utility.yul\":1299:1300   */\n      0x00\n        /* \"#utility.yul\":1296:1297   */\n      0x00\n        /* \"#utility.yul\":1289:1301   */\n      revert\n        /* \"#utility.yul\":1242:1303   */\n    tag_54:\n        /* \"#utility.yul\":1191:1309   */\n      pop\n      jump\t// out\n        /* \"#utility.yul\":1315:1450   */\n    tag_37:\n        /* \"#utility.yul\":1359:1364   */\n      0x00\n        /* \"#utility.yul\":1397:1403   */\n      dup2\n        /* \"#utility.yul\":1384:1404   */\n      calldataload\n        /* \"#utility.yul\":1375:1404   */\n      swap1\n      pop\n        /* \"#utility.yul\":1413:1444   */\n      tag_56\n        /* \"#utility.yul\":1438:1443   */\n      dup2\n        /* \"#utility.yul\":1413:1444   */\n      tag_36\n      jump\t// in\n    tag_56:\n        /* \"#utility.yul\":1315:1450   */\n      swap3\n      swap2\n      pop\n      pop\n      jump\t// out\n        /* \"#utility.yul\":1456:1781   */\n    tag_21:\n        /* \"#utility.yul\":1513:1519   */\n      0x00\n        /* \"#utility.yul\":1562:1564   */\n      0x20\n        /* \"#utility.yul\":1550:1559   */\n      dup3\n        /* \"#utility.yul\":1541:1548   */\n      dup5\n        /* \"#utility.yul\":1537:1560   */\n      sub\n        /* \"#utility.yul\":1533:1565   */\n      slt\n        /* \"#utility.yul\":1530:1649   */\n      iszero\n      tag_58\n      jumpi\n        /* \"#utility.yul\":1568:1647   */\n      tag_59\n      tag_34\n      jump\t// in\n    tag_59:\n        /* \"#utility.yul\":1530:1649   */\n    tag_58:\n        /* \"#utility.yul\":1688:1689   */\n      0x00\n        /* \"#utility.yul\":1713:1764   */\n      tag_60\n        /* \"#utility.yul\":1756:1763   */\n      dup5\n        /* \"#utility.yul\":1747:1753   */\n      dup3\n        /* \"#utility.yul\":1736:1745   */\n      dup6\n        /* \"#utility.yul\":1732:1754   */\n      add\n        /* \"#utility.yul\":1713:1764   */\n      tag_37\n      jump\t// in\n    tag_60:\n        /* \"#utility.yul\":1703:1764   */\n      swap2\n      pop\n        /* \"#utility.yul\":1659:1774   */\n      pop\n        /* \"#utility.yul\":1456:1781   */\n      swap3\n      swap2\n      pop\n      pop\n      jump\t// out\n\n    auxdata: 0xa26469706673582212200f24297f91a84e7723ff9b85cdf1d3971b6c4662d3cbacc680019dd5da6b401d64736f6c634300081d0033\n}\n",
				"bytecode": {
					"linkReferences": {},
					"object": "608060405260035f5f6101000a81548160ff021916908360ff16021790555060075f60016101000a81548160ff021916908360ff1602179055503480156043575f5ffd5b5061027b806100515f395ff3fe608060405234801561000f575f5ffd5b5060043610610055575f3560e01c8063116134ee146100595780632f82c7f21461007757806364cc4aa51461009557806369a84da1146100b35780636fa405fd146100cf575b5f5ffd5b6100616100eb565b60405161006e91906101a0565b60405180910390f35b61007f6100fc565b60405161008c91906101d3565b60405180910390f35b61009d61013a565b6040516100aa91906101a0565b60405180910390f35b6100cd60048036038101906100c8919061021a565b61014c565b005b6100e960048036038101906100e4919061021a565b610168565b005b5f5f9054906101000a900460ff1681565b5f5f5f5f9054906101000a900460ff1660ff165f5f9054906101000a900460ff165f60019054906101000a900460ff161660ff161490508091505090565b5f60019054906101000a900460ff1681565b805f5f6101000a81548160ff021916908360ff16021790555050565b805f60016101000a81548160ff021916908360ff16021790555050565b5f60ff82169050919050565b61019a81610185565b82525050565b5f6020820190506101b35f830184610191565b92915050565b5f8115159050919050565b6101cd816101b9565b82525050565b5f6020820190506101e65f8301846101c4565b92915050565b5f5ffd5b6101f981610185565b8114610203575f5ffd5b50565b5f81359050610214816101f0565b92915050565b5f6020828403121561022f5761022e6101ec565b5b5f61023c84828501610206565b9150509291505056fea26469706673582212200f24297f91a84e7723ff9b85cdf1d3971b6c4662d3cbacc680019dd5da6b401d64736f6c634300081d0033",
					"opcodes": "PUSH1 0x80 PUSH1 0x40 MSTORE PUSH1 0x3 PUSH0 PUSH0 PUSH2 0x100 EXP DUP2 SLOAD DUP2 PUSH1 0xFF MUL NOT AND SWAP1 DUP4 PUSH1 0xFF AND MUL OR SWAP1 SSTORE POP PUSH1 0x7 PUSH0 PUSH1 0x1 PUSH2 0x100 EXP DUP2 SLOAD DUP2 PUSH1 0xFF MUL NOT AND SWAP1 DUP4 PUSH1 0xFF AND MUL OR SWAP1 SSTORE POP CALLVALUE DUP1 ISZERO PUSH1 0x43 JUMPI PUSH0 PUSH0 REVERT JUMPDEST POP PUSH2 0x27B DUP1 PUSH2 0x51 PUSH0 CODECOPY PUSH0 RETURN INVALID PUSH1 0x80 PUSH1 0x40 MSTORE CALLVALUE DUP1 ISZERO PUSH2 0xF JUMPI PUSH0 PUSH0 REVERT JUMPDEST POP PUSH1 0x4 CALLDATASIZE LT PUSH2 0x55 JUMPI PUSH0 CALLDATALOAD PUSH1 0xE0 SHR DUP1 PUSH4 0x116134EE EQ PUSH2 0x59 JUMPI DUP1 PUSH4 0x2F82C7F2 EQ PUSH2 0x77 JUMPI DUP1 PUSH4 0x64CC4AA5 EQ PUSH2 0x95 JUMPI DUP1 PUSH4 0x69A84DA1 EQ PUSH2 0xB3 JUMPI DUP1 PUSH4 0x6FA405FD EQ PUSH2 0xCF JUMPI JUMPDEST PUSH0 PUSH0 REVERT JUMPDEST PUSH2 0x61 PUSH2 0xEB JUMP JUMPDEST PUSH1 0x40 MLOAD PUSH2 0x6E SWAP2 SWAP1 PUSH2 0x1A0 JUMP JUMPDEST PUSH1 0x40 MLOAD DUP1 SWAP2 SUB SWAP1 RETURN JUMPDEST PUSH2 0x7F PUSH2 0xFC JUMP JUMPDEST PUSH1 0x40 MLOAD PUSH2 0x8C SWAP2 SWAP1 PUSH2 0x1D3 JUMP JUMPDEST PUSH1 0x40 MLOAD DUP1 SWAP2 SUB SWAP1 RETURN JUMPDEST PUSH2 0x9D PUSH2 0x13A JUMP JUMPDEST PUSH1 0x40 MLOAD PUSH2 0xAA SWAP2 SWAP1 PUSH2 0x1A0 JUMP JUMPDEST PUSH1 0x40 MLOAD DUP1 SWAP2 SUB SWAP1 RETURN JUMPDEST PUSH2 0xCD PUSH1 0x4 DUP1 CALLDATASIZE SUB DUP2 ADD SWAP1 PUSH2 0xC8 SWAP2 SWAP1 PUSH2 0x21A JUMP JUMPDEST PUSH2 0x14C JUMP JUMPDEST STOP JUMPDEST PUSH2 0xE9 PUSH1 0x4 DUP1 CALLDATASIZE SUB DUP2 ADD SWAP1 PUSH2 0xE4 SWAP2 SWAP1 PUSH2 0x21A JUMP JUMPDEST PUSH2 0x168 JUMP JUMPDEST STOP JUMPDEST PUSH0 PUSH0 SWAP1 SLOAD SWAP1 PUSH2 0x100 EXP SWAP1 DIV PUSH1 0xFF AND DUP2 JUMP JUMPDEST PUSH0 PUSH0 PUSH0 PUSH0 SWAP1 SLOAD SWAP1 PUSH2 0x100 EXP SWAP1 DIV PUSH1 0xFF AND PUSH1 0xFF AND PUSH0 PUSH0 SWAP1 SLOAD SWAP1 PUSH2 0x100 EXP SWAP1 DIV PUSH1 0xFF AND PUSH0 PUSH1 0x1 SWAP1 SLOAD SWAP1 PUSH2 0x100 EXP SWAP1 DIV PUSH1 0xFF AND AND PUSH1 0xFF AND EQ SWAP1 POP DUP1 SWAP2 POP POP SWAP1 JUMP JUMPDEST PUSH0 PUSH1 0x1 SWAP1 SLOAD SWAP1 PUSH2 0x100 EXP SWAP1 DIV PUSH1 0xFF AND DUP2 JUMP JUMPDEST DUP1 PUSH0 PUSH0 PUSH2 0x100 EXP DUP2 SLOAD DUP2 PUSH1 0xFF MUL NOT AND SWAP1 DUP4 PUSH1 0xFF AND MUL OR SWAP1 SSTORE POP POP JUMP JUMPDEST DUP1 PUSH0 PUSH1 0x1 PUSH2 0x100 EXP DUP2 SLOAD DUP2 PUSH1 0xFF MUL NOT AND SWAP1 DUP4 PUSH1 0xFF AND MUL OR SWAP1 SSTORE POP POP JUMP JUMPDEST PUSH0 PUSH1 0xFF DUP3 AND SWAP1 POP SWAP2 SWAP1 POP JUMP JUMPDEST PUSH2 0x19A DUP2 PUSH2 0x185 JUMP JUMPDEST DUP3 MSTORE POP POP JUMP JUMPDEST PUSH0 PUSH1 0x20 DUP3 ADD SWAP1 POP PUSH2 0x1B3 PUSH0 DUP4 ADD DUP5 PUSH2 0x191 JUMP JUMPDEST SWAP3 SWAP2 POP POP JUMP JUMPDEST PUSH0 DUP2 ISZERO ISZERO SWAP1 POP SWAP2 SWAP1 POP JUMP JUMPDEST PUSH2 0x1CD DUP2 PUSH2 0x1B9 JUMP JUMPDEST DUP3 MSTORE POP POP JUMP JUMPDEST PUSH0 PUSH1 0x20 DUP3 ADD SWAP1 POP PUSH2 0x1E6 PUSH0 DUP4 ADD DUP5 PUSH2 0x1C4 JUMP JUMPDEST SWAP3 SWAP2 POP POP JUMP JUMPDEST PUSH0 PUSH0 REVERT JUMPDEST PUSH2 0x1F9 DUP2 PUSH2 0x185 JUMP JUMPDEST DUP2 EQ PUSH2 0x203 JUMPI PUSH0 PUSH0 REVERT JUMPDEST POP JUMP JUMPDEST PUSH0 DUP2 CALLDATALOAD SWAP1 POP PUSH2 0x214 DUP2 PUSH2 0x1F0 JUMP JUMPDEST SWAP3 SWAP2 POP POP JUMP JUMPDEST PUSH0 PUSH1 0x20 DUP3 DUP5 SUB SLT ISZERO PUSH2 0x22F JUMPI PUSH2 0x22E PUSH2 0x1EC JUMP JUMPDEST JUMPDEST PUSH0 PUSH2 0x23C DUP5 DUP3 DUP6 ADD PUSH2 0x206 JUMP JUMPDEST SWAP2 POP POP SWAP3 SWAP2 POP POP JUMP INVALID LOG2 PUSH5 0x6970667358 0x22 SLT KECCAK256 0xF 0x24 0x29 PUSH32 0x91A84E7723FF9B85CDF1D3971B6C4662D3CBACC680019DD5DA6B401D64736F6C PUSH4 0x4300081D STOP CALLER "
				},
				"gasEstimates": {
					"creation": {
						"codeDepositCost": "127000",
						"executionCost": "48750",
						"totalCost": "175750"
					},
					"external": {
						"flags()": "2538",
						"isMaskMatched()": "6827",
						"mask()": "2443",
						"updateFlags(uint8)": "24789",
						"updateMask(uint8)": "24716"
					}
				},
				"methodIdentifiers": {
					"flags()": "64cc4aa5",
					"isMaskMatched()": "2f82c7f2",
					"mask()": "116134ee",
					"updateFlags(uint8)": "6fa405fd",
					"updateMask(uint8)": "69a84da1"
				}
			},
			"storageLayout": {
				"storage": [
					{
						"astId": 4,
						"contract": "B/Bit/Bitmask Filtering.sol:BitmaskFiltering",
						"label": "mask",
						"offset": 0,
						"slot": "0",
						"type": "t_uint8"
					},
					{
						"astId": 7,
						"contract": "B/Bit/Bitmask Filtering.sol:BitmaskFiltering",
						"label": "flags",
						"offset": 1,
						"slot": "0",
						"type": "t_uint8"
					}
				],
				"types": {
					"t_uint8": {
						"encoding": "inplace",
						"label": "uint8",
						"numberOfBytes": "1"
					}
				}
			},
			"userdoc": {
				"kind": "user",
				"methods": {
					"isMaskMatched()": {
						"notice": "Check if the `mask` is fully present in `flags`. Equivalent to: all bits in `mask` are set in `flags`."
					},
					"updateFlags(uint8)": {
						"notice": "Update flags value (for demonstration)."
					},
					"updateMask(uint8)": {
						"notice": "Update mask value (for demonstration)."
					}
				},
				"version": 1
			}
		}
	}
}