{
	"T/Transport Layer Security (TLS)/Transport Layer Security (TLS).sol": {
		"TLSSafeRecord": {
			"abi": [
				{
					"inputs": [],
					"name": "TLS__NotEncrypted",
					"type": "error"
				},
				{
					"anonymous": false,
					"inputs": [
						{
							"indexed": true,
							"internalType": "address",
							"name": "who",
							"type": "address"
						},
						{
							"indexed": false,
							"internalType": "enum TLSLayerType",
							"name": "layer",
							"type": "uint8"
						},
						{
							"indexed": false,
							"internalType": "enum TLSDefenseType",
							"name": "defense",
							"type": "uint8"
						}
					],
					"name": "TLSDefended",
					"type": "event"
				},
				{
					"inputs": [
						{
							"internalType": "address",
							"name": "",
							"type": "address"
						}
					],
					"name": "records",
					"outputs": [
						{
							"internalType": "bytes",
							"name": "",
							"type": "bytes"
						}
					],
					"stateMutability": "view",
					"type": "function"
				},
				{
					"inputs": [
						{
							"internalType": "bytes",
							"name": "data",
							"type": "bytes"
						}
					],
					"name": "sendRecord",
					"outputs": [],
					"stateMutability": "nonpayable",
					"type": "function"
				}
			],
			"devdoc": {
				"kind": "dev",
				"methods": {},
				"version": 1
			},
			"evm": {
				"assembly": "    /* \"T/Transport Layer Security (TLS)/Transport Layer Security (TLS).sol\":3057:3564  contract TLSSafeRecord {... */\n  mstore(0x40, 0x80)\n  callvalue\n  dup1\n  iszero\n  tag_1\n  jumpi\n  0x00\n  dup1\n  revert\ntag_1:\n  pop\n  dataSize(sub_0)\n  dup1\n  dataOffset(sub_0)\n  0x00\n  codecopy\n  0x00\n  return\nstop\n\nsub_0: assembly {\n        /* \"T/Transport Layer Security (TLS)/Transport Layer Security (TLS).sol\":3057:3564  contract TLSSafeRecord {... */\n      mstore(0x40, 0x80)\n      callvalue\n      dup1\n      iszero\n      tag_1\n      jumpi\n      0x00\n      dup1\n      revert\n    tag_1:\n      pop\n      jumpi(tag_2, lt(calldatasize, 0x04))\n      shr(0xe0, calldataload(0x00))\n      dup1\n      0x469e9067\n      eq\n      tag_3\n      jumpi\n      dup1\n      0xdaefc20a\n      eq\n      tag_4\n      jumpi\n    tag_2:\n      0x00\n      dup1\n      revert\n        /* \"T/Transport Layer Security (TLS)/Transport Layer Security (TLS).sol\":3086:3126  mapping(address => bytes) public records */\n    tag_3:\n      tag_5\n      0x04\n      dup1\n      calldatasize\n      sub\n      dup2\n      add\n      swap1\n      tag_6\n      swap2\n      swap1\n      tag_7\n      jump\t// in\n    tag_6:\n      tag_8\n      jump\t// in\n    tag_5:\n      mload(0x40)\n      tag_9\n      swap2\n      swap1\n      tag_10\n      jump\t// in\n    tag_9:\n      mload(0x40)\n      dup1\n      swap2\n      sub\n      swap1\n      return\n        /* \"T/Transport Layer Security (TLS)/Transport Layer Security (TLS).sol\":3297:3562  function sendRecord(bytes calldata data) external {... */\n    tag_4:\n      tag_11\n      0x04\n      dup1\n      calldatasize\n      sub\n      dup2\n      add\n      swap1\n      tag_12\n      swap2\n      swap1\n      tag_13\n      jump\t// in\n    tag_12:\n      tag_14\n      jump\t// in\n    tag_11:\n      stop\n        /* \"T/Transport Layer Security (TLS)/Transport Layer Security (TLS).sol\":3086:3126  mapping(address => bytes) public records */\n    tag_8:\n      mstore(0x20, 0x00)\n      dup1\n      0x00\n      mstore\n      keccak256(0x00, 0x40)\n      0x00\n      swap2\n      pop\n      swap1\n      pop\n      dup1\n      sload\n      tag_15\n      swap1\n      tag_16\n      jump\t// in\n    tag_15:\n      dup1\n      0x1f\n      add\n      0x20\n      dup1\n      swap2\n      div\n      mul\n      0x20\n      add\n      mload(0x40)\n      swap1\n      dup2\n      add\n      0x40\n      mstore\n      dup1\n      swap3\n      swap2\n      swap1\n      dup2\n      dup2\n      mstore\n      0x20\n      add\n      dup3\n      dup1\n      sload\n      tag_17\n      swap1\n      tag_16\n      jump\t// in\n    tag_17:\n      dup1\n      iszero\n      tag_18\n      jumpi\n      dup1\n      0x1f\n      lt\n      tag_19\n      jumpi\n      0x0100\n      dup1\n      dup4\n      sload\n      div\n      mul\n      dup4\n      mstore\n      swap2\n      0x20\n      add\n      swap2\n      jump(tag_18)\n    tag_19:\n      dup3\n      add\n      swap2\n      swap1\n      0x00\n      mstore\n      keccak256(0x00, 0x20)\n      swap1\n    tag_20:\n      dup2\n      sload\n      dup2\n      mstore\n      swap1\n      0x01\n      add\n      swap1\n      0x20\n      add\n      dup1\n      dup4\n      gt\n      tag_20\n      jumpi\n      dup3\n      swap1\n      sub\n      0x1f\n      and\n      dup3\n      add\n      swap2\n    tag_18:\n      pop\n      pop\n      pop\n      pop\n      pop\n      dup2\n      jump\t// out\n        /* \"T/Transport Layer Security (TLS)/Transport Layer Security (TLS).sol\":3297:3562  function sendRecord(bytes calldata data) external {... */\n    tag_14:\n        /* \"T/Transport Layer Security (TLS)/Transport Layer Security (TLS).sol\":3376:3377  0 */\n      0x00\n        /* \"T/Transport Layer Security (TLS)/Transport Layer Security (TLS).sol\":3361:3365  data */\n      dup3\n      dup3\n        /* \"T/Transport Layer Security (TLS)/Transport Layer Security (TLS).sol\":3361:3372  data.length */\n      swap1\n      pop\n        /* \"T/Transport Layer Security (TLS)/Transport Layer Security (TLS).sol\":3361:3377  data.length == 0 */\n      eq\n        /* \"T/Transport Layer Security (TLS)/Transport Layer Security (TLS).sol\":3361:3396  data.length == 0 || data[0] != 0x01 */\n      dup1\n      tag_22\n      jumpi\n      pop\n        /* \"T/Transport Layer Security (TLS)/Transport Layer Security (TLS).sol\":3392:3396  0x01 */\n      0x01\n        /* \"T/Transport Layer Security (TLS)/Transport Layer Security (TLS).sol\":3381:3396  data[0] != 0x01 */\n      0xf8\n      shl\n        /* \"T/Transport Layer Security (TLS)/Transport Layer Security (TLS).sol\":3381:3385  data */\n      dup3\n      dup3\n        /* \"T/Transport Layer Security (TLS)/Transport Layer Security (TLS).sol\":3386:3387  0 */\n      0x00\n        /* \"T/Transport Layer Security (TLS)/Transport Layer Security (TLS).sol\":3381:3388  data[0] */\n      dup2\n      dup2\n      lt\n      tag_23\n      jumpi\n      tag_24\n      tag_25\n      jump\t// in\n    tag_24:\n    tag_23:\n      swap1\n      pop\n      add\n      calldataload\n      0xf8\n      shr\n      0xf8\n      shl\n        /* \"T/Transport Layer Security (TLS)/Transport Layer Security (TLS).sol\":3381:3396  data[0] != 0x01 */\n      not(0xffffffffffffffffffffffffffffffffffffffffffffffffffffffffffffff)\n      and\n      eq\n      iszero\n        /* \"T/Transport Layer Security (TLS)/Transport Layer Security (TLS).sol\":3361:3396  data.length == 0 || data[0] != 0x01 */\n    tag_22:\n        /* \"T/Transport Layer Security (TLS)/Transport Layer Security (TLS).sol\":3357:3424  if (data.length == 0 || data[0] != 0x01) revert TLS__NotEncrypted() */\n      iszero\n      tag_26\n      jumpi\n        /* \"T/Transport Layer Security (TLS)/Transport Layer Security (TLS).sol\":3405:3424  TLS__NotEncrypted() */\n      mload(0x40)\n      0xa4ca16de00000000000000000000000000000000000000000000000000000000\n      dup2\n      mstore\n      0x04\n      add\n      mload(0x40)\n      dup1\n      swap2\n      sub\n      swap1\n      revert\n        /* \"T/Transport Layer Security (TLS)/Transport Layer Security (TLS).sol\":3357:3424  if (data.length == 0 || data[0] != 0x01) revert TLS__NotEncrypted() */\n    tag_26:\n        /* \"T/Transport Layer Security (TLS)/Transport Layer Security (TLS).sol\":3456:3460  data */\n      dup2\n      dup2\n        /* \"T/Transport Layer Security (TLS)/Transport Layer Security (TLS).sol\":3434:3441  records */\n      0x00\n        /* \"T/Transport Layer Security (TLS)/Transport Layer Security (TLS).sol\":3434:3453  records[msg.sender] */\n      dup1\n        /* \"T/Transport Layer Security (TLS)/Transport Layer Security (TLS).sol\":3442:3452  msg.sender */\n      caller\n        /* \"T/Transport Layer Security (TLS)/Transport Layer Security (TLS).sol\":3434:3453  records[msg.sender] */\n      0xffffffffffffffffffffffffffffffffffffffff\n      and\n      0xffffffffffffffffffffffffffffffffffffffff\n      and\n      dup2\n      mstore\n      0x20\n      add\n      swap1\n      dup2\n      mstore\n      0x20\n      add\n      0x00\n      keccak256\n        /* \"T/Transport Layer Security (TLS)/Transport Layer Security (TLS).sol\":3434:3460  records[msg.sender] = data */\n      swap2\n      dup3\n      tag_27\n      swap3\n      swap2\n      swap1\n      tag_28\n      jump\t// in\n    tag_27:\n      pop\n        /* \"T/Transport Layer Security (TLS)/Transport Layer Security (TLS).sol\":3487:3497  msg.sender */\n      caller\n        /* \"T/Transport Layer Security (TLS)/Transport Layer Security (TLS).sol\":3475:3555  TLSDefended(msg.sender, TLSLayerType.RecordLayer, TLSDefenseType.EncryptRequire) */\n      0xffffffffffffffffffffffffffffffffffffffff\n      and\n      0x4630e4d8ee2366488de2e4361bb2c5a1ebd888b5590e3f7a70dc072e37d60e91\n        /* \"T/Transport Layer Security (TLS)/Transport Layer Security (TLS).sol\":3499:3523  TLSLayerType.RecordLayer */\n      0x01\n        /* \"T/Transport Layer Security (TLS)/Transport Layer Security (TLS).sol\":3525:3554  TLSDefenseType.EncryptRequire */\n      dup1\n        /* \"T/Transport Layer Security (TLS)/Transport Layer Security (TLS).sol\":3475:3555  TLSDefended(msg.sender, TLSLayerType.RecordLayer, TLSDefenseType.EncryptRequire) */\n      mload(0x40)\n      tag_29\n      swap3\n      swap2\n      swap1\n      tag_30\n      jump\t// in\n    tag_29:\n      mload(0x40)\n      dup1\n      swap2\n      sub\n      swap1\n      log2\n        /* \"T/Transport Layer Security (TLS)/Transport Layer Security (TLS).sol\":3297:3562  function sendRecord(bytes calldata data) external {... */\n      pop\n      pop\n      jump\t// out\n        /* \"#utility.yul\":88:205   */\n    tag_32:\n        /* \"#utility.yul\":197:198   */\n      0x00\n        /* \"#utility.yul\":194:195   */\n      dup1\n        /* \"#utility.yul\":187:199   */\n      revert\n        /* \"#utility.yul\":211:328   */\n    tag_33:\n        /* \"#utility.yul\":320:321   */\n      0x00\n        /* \"#utility.yul\":317:318   */\n      dup1\n        /* \"#utility.yul\":310:322   */\n      revert\n        /* \"#utility.yul\":334:460   */\n    tag_34:\n        /* \"#utility.yul\":371:378   */\n      0x00\n        /* \"#utility.yul\":411:453   */\n      0xffffffffffffffffffffffffffffffffffffffff\n        /* \"#utility.yul\":404:409   */\n      dup3\n        /* \"#utility.yul\":400:454   */\n      and\n        /* \"#utility.yul\":389:454   */\n      swap1\n      pop\n        /* \"#utility.yul\":334:460   */\n      swap2\n      swap1\n      pop\n      jump\t// out\n        /* \"#utility.yul\":466:562   */\n    tag_35:\n        /* \"#utility.yul\":503:510   */\n      0x00\n        /* \"#utility.yul\":532:556   */\n      tag_81\n        /* \"#utility.yul\":550:555   */\n      dup3\n        /* \"#utility.yul\":532:556   */\n      tag_34\n      jump\t// in\n    tag_81:\n        /* \"#utility.yul\":521:556   */\n      swap1\n      pop\n        /* \"#utility.yul\":466:562   */\n      swap2\n      swap1\n      pop\n      jump\t// out\n        /* \"#utility.yul\":568:690   */\n    tag_36:\n        /* \"#utility.yul\":641:665   */\n      tag_83\n        /* \"#utility.yul\":659:664   */\n      dup2\n        /* \"#utility.yul\":641:665   */\n      tag_35\n      jump\t// in\n    tag_83:\n        /* \"#utility.yul\":634:639   */\n      dup2\n        /* \"#utility.yul\":631:666   */\n      eq\n        /* \"#utility.yul\":621:684   */\n      tag_84\n      jumpi\n        /* \"#utility.yul\":680:681   */\n      0x00\n        /* \"#utility.yul\":677:678   */\n      dup1\n        /* \"#utility.yul\":670:682   */\n      revert\n        /* \"#utility.yul\":621:684   */\n    tag_84:\n        /* \"#utility.yul\":568:690   */\n      pop\n      jump\t// out\n        /* \"#utility.yul\":696:835   */\n    tag_37:\n        /* \"#utility.yul\":742:747   */\n      0x00\n        /* \"#utility.yul\":780:786   */\n      dup2\n        /* \"#utility.yul\":767:787   */\n      calldataload\n        /* \"#utility.yul\":758:787   */\n      swap1\n      pop\n        /* \"#utility.yul\":796:829   */\n      tag_86\n        /* \"#utility.yul\":823:828   */\n      dup2\n        /* \"#utility.yul\":796:829   */\n      tag_36\n      jump\t// in\n    tag_86:\n        /* \"#utility.yul\":696:835   */\n      swap3\n      swap2\n      pop\n      pop\n      jump\t// out\n        /* \"#utility.yul\":841:1170   */\n    tag_7:\n        /* \"#utility.yul\":900:906   */\n      0x00\n        /* \"#utility.yul\":949:951   */\n      0x20\n        /* \"#utility.yul\":937:946   */\n      dup3\n        /* \"#utility.yul\":928:935   */\n      dup5\n        /* \"#utility.yul\":924:947   */\n      sub\n        /* \"#utility.yul\":920:952   */\n      slt\n        /* \"#utility.yul\":917:1036   */\n      iszero\n      tag_88\n      jumpi\n        /* \"#utility.yul\":955:1034   */\n      tag_89\n      tag_32\n      jump\t// in\n    tag_89:\n        /* \"#utility.yul\":917:1036   */\n    tag_88:\n        /* \"#utility.yul\":1075:1076   */\n      0x00\n        /* \"#utility.yul\":1100:1153   */\n      tag_90\n        /* \"#utility.yul\":1145:1152   */\n      dup5\n        /* \"#utility.yul\":1136:1142   */\n      dup3\n        /* \"#utility.yul\":1125:1134   */\n      dup6\n        /* \"#utility.yul\":1121:1143   */\n      add\n        /* \"#utility.yul\":1100:1153   */\n      tag_37\n      jump\t// in\n    tag_90:\n        /* \"#utility.yul\":1090:1153   */\n      swap2\n      pop\n        /* \"#utility.yul\":1046:1163   */\n      pop\n        /* \"#utility.yul\":841:1170   */\n      swap3\n      swap2\n      pop\n      pop\n      jump\t// out\n        /* \"#utility.yul\":1176:1274   */\n    tag_38:\n        /* \"#utility.yul\":1227:1233   */\n      0x00\n        /* \"#utility.yul\":1261:1266   */\n      dup2\n        /* \"#utility.yul\":1255:1267   */\n      mload\n        /* \"#utility.yul\":1245:1267   */\n      swap1\n      pop\n        /* \"#utility.yul\":1176:1274   */\n      swap2\n      swap1\n      pop\n      jump\t// out\n        /* \"#utility.yul\":1280:1448   */\n    tag_39:\n        /* \"#utility.yul\":1363:1374   */\n      0x00\n        /* \"#utility.yul\":1397:1403   */\n      dup3\n        /* \"#utility.yul\":1392:1395   */\n      dup3\n        /* \"#utility.yul\":1385:1404   */\n      mstore\n        /* \"#utility.yul\":1437:1441   */\n      0x20\n        /* \"#utility.yul\":1432:1435   */\n      dup3\n        /* \"#utility.yul\":1428:1442   */\n      add\n        /* \"#utility.yul\":1413:1442   */\n      swap1\n      pop\n        /* \"#utility.yul\":1280:1448   */\n      swap3\n      swap2\n      pop\n      pop\n      jump\t// out\n        /* \"#utility.yul\":1454:1593   */\n    tag_40:\n        /* \"#utility.yul\":1543:1549   */\n      dup3\n        /* \"#utility.yul\":1538:1541   */\n      dup2\n        /* \"#utility.yul\":1533:1536   */\n      dup4\n        /* \"#utility.yul\":1527:1550   */\n      mcopy\n        /* \"#utility.yul\":1584:1585   */\n      0x00\n        /* \"#utility.yul\":1575:1581   */\n      dup4\n        /* \"#utility.yul\":1570:1573   */\n      dup4\n        /* \"#utility.yul\":1566:1582   */\n      add\n        /* \"#utility.yul\":1559:1586   */\n      mstore\n        /* \"#utility.yul\":1454:1593   */\n      pop\n      pop\n      pop\n      jump\t// out\n        /* \"#utility.yul\":1599:1701   */\n    tag_41:\n        /* \"#utility.yul\":1640:1646   */\n      0x00\n        /* \"#utility.yul\":1691:1693   */\n      0x1f\n        /* \"#utility.yul\":1687:1694   */\n      not\n        /* \"#utility.yul\":1682:1684   */\n      0x1f\n        /* \"#utility.yul\":1675:1680   */\n      dup4\n        /* \"#utility.yul\":1671:1685   */\n      add\n        /* \"#utility.yul\":1667:1695   */\n      and\n        /* \"#utility.yul\":1657:1695   */\n      swap1\n      pop\n        /* \"#utility.yul\":1599:1701   */\n      swap2\n      swap1\n      pop\n      jump\t// out\n        /* \"#utility.yul\":1707:2080   */\n    tag_42:\n        /* \"#utility.yul\":1793:1796   */\n      0x00\n        /* \"#utility.yul\":1821:1859   */\n      tag_96\n        /* \"#utility.yul\":1853:1858   */\n      dup3\n        /* \"#utility.yul\":1821:1859   */\n      tag_38\n      jump\t// in\n    tag_96:\n        /* \"#utility.yul\":1875:1945   */\n      tag_97\n        /* \"#utility.yul\":1938:1944   */\n      dup2\n        /* \"#utility.yul\":1933:1936   */\n      dup6\n        /* \"#utility.yul\":1875:1945   */\n      tag_39\n      jump\t// in\n    tag_97:\n        /* \"#utility.yul\":1868:1945   */\n      swap4\n      pop\n        /* \"#utility.yul\":1954:2019   */\n      tag_98\n        /* \"#utility.yul\":2012:2018   */\n      dup2\n        /* \"#utility.yul\":2007:2010   */\n      dup6\n        /* \"#utility.yul\":2000:2004   */\n      0x20\n        /* \"#utility.yul\":1993:1998   */\n      dup7\n        /* \"#utility.yul\":1989:2005   */\n      add\n        /* \"#utility.yul\":1954:2019   */\n      tag_40\n      jump\t// in\n    tag_98:\n        /* \"#utility.yul\":2044:2073   */\n      tag_99\n        /* \"#utility.yul\":2066:2072   */\n      dup2\n        /* \"#utility.yul\":2044:2073   */\n      tag_41\n      jump\t// in\n    tag_99:\n        /* \"#utility.yul\":2039:2042   */\n      dup5\n        /* \"#utility.yul\":2035:2074   */\n      add\n        /* \"#utility.yul\":2028:2074   */\n      swap2\n      pop\n        /* \"#utility.yul\":1797:2080   */\n      pop\n        /* \"#utility.yul\":1707:2080   */\n      swap3\n      swap2\n      pop\n      pop\n      jump\t// out\n        /* \"#utility.yul\":2086:2395   */\n    tag_10:\n        /* \"#utility.yul\":2197:2201   */\n      0x00\n        /* \"#utility.yul\":2235:2237   */\n      0x20\n        /* \"#utility.yul\":2224:2233   */\n      dup3\n        /* \"#utility.yul\":2220:2238   */\n      add\n        /* \"#utility.yul\":2212:2238   */\n      swap1\n      pop\n        /* \"#utility.yul\":2284:2293   */\n      dup2\n        /* \"#utility.yul\":2278:2282   */\n      dup2\n        /* \"#utility.yul\":2274:2294   */\n      sub\n        /* \"#utility.yul\":2270:2271   */\n      0x00\n        /* \"#utility.yul\":2259:2268   */\n      dup4\n        /* \"#utility.yul\":2255:2272   */\n      add\n        /* \"#utility.yul\":2248:2295   */\n      mstore\n        /* \"#utility.yul\":2312:2388   */\n      tag_101\n        /* \"#utility.yul\":2383:2387   */\n      dup2\n        /* \"#utility.yul\":2374:2380   */\n      dup5\n        /* \"#utility.yul\":2312:2388   */\n      tag_42\n      jump\t// in\n    tag_101:\n        /* \"#utility.yul\":2304:2388   */\n      swap1\n      pop\n        /* \"#utility.yul\":2086:2395   */\n      swap3\n      swap2\n      pop\n      pop\n      jump\t// out\n        /* \"#utility.yul\":2401:2518   */\n    tag_43:\n        /* \"#utility.yul\":2510:2511   */\n      0x00\n        /* \"#utility.yul\":2507:2508   */\n      dup1\n        /* \"#utility.yul\":2500:2512   */\n      revert\n        /* \"#utility.yul\":2524:2641   */\n    tag_44:\n        /* \"#utility.yul\":2633:2634   */\n      0x00\n        /* \"#utility.yul\":2630:2631   */\n      dup1\n        /* \"#utility.yul\":2623:2635   */\n      revert\n        /* \"#utility.yul\":2647:2764   */\n    tag_45:\n        /* \"#utility.yul\":2756:2757   */\n      0x00\n        /* \"#utility.yul\":2753:2754   */\n      dup1\n        /* \"#utility.yul\":2746:2758   */\n      revert\n        /* \"#utility.yul\":2783:3335   */\n    tag_46:\n        /* \"#utility.yul\":2840:2848   */\n      0x00\n        /* \"#utility.yul\":2850:2856   */\n      dup1\n        /* \"#utility.yul\":2900:2903   */\n      dup4\n        /* \"#utility.yul\":2893:2897   */\n      0x1f\n        /* \"#utility.yul\":2885:2891   */\n      dup5\n        /* \"#utility.yul\":2881:2898   */\n      add\n        /* \"#utility.yul\":2877:2904   */\n      slt\n        /* \"#utility.yul\":2867:2989   */\n      tag_106\n      jumpi\n        /* \"#utility.yul\":2908:2987   */\n      tag_107\n      tag_43\n      jump\t// in\n    tag_107:\n        /* \"#utility.yul\":2867:2989   */\n    tag_106:\n        /* \"#utility.yul\":3021:3027   */\n      dup3\n        /* \"#utility.yul\":3008:3028   */\n      calldataload\n        /* \"#utility.yul\":2998:3028   */\n      swap1\n      pop\n        /* \"#utility.yul\":3051:3069   */\n      0xffffffffffffffff\n        /* \"#utility.yul\":3043:3049   */\n      dup2\n        /* \"#utility.yul\":3040:3070   */\n      gt\n        /* \"#utility.yul\":3037:3154   */\n      iszero\n      tag_108\n      jumpi\n        /* \"#utility.yul\":3073:3152   */\n      tag_109\n      tag_44\n      jump\t// in\n    tag_109:\n        /* \"#utility.yul\":3037:3154   */\n    tag_108:\n        /* \"#utility.yul\":3187:3191   */\n      0x20\n        /* \"#utility.yul\":3179:3185   */\n      dup4\n        /* \"#utility.yul\":3175:3192   */\n      add\n        /* \"#utility.yul\":3163:3192   */\n      swap2\n      pop\n        /* \"#utility.yul\":3241:3244   */\n      dup4\n        /* \"#utility.yul\":3233:3237   */\n      0x01\n        /* \"#utility.yul\":3225:3231   */\n      dup3\n        /* \"#utility.yul\":3221:3238   */\n      mul\n        /* \"#utility.yul\":3211:3219   */\n      dup4\n        /* \"#utility.yul\":3207:3239   */\n      add\n        /* \"#utility.yul\":3204:3245   */\n      gt\n        /* \"#utility.yul\":3201:3329   */\n      iszero\n      tag_110\n      jumpi\n        /* \"#utility.yul\":3248:3327   */\n      tag_111\n      tag_45\n      jump\t// in\n    tag_111:\n        /* \"#utility.yul\":3201:3329   */\n    tag_110:\n        /* \"#utility.yul\":2783:3335   */\n      swap3\n      pop\n      swap3\n      swap1\n      pop\n      jump\t// out\n        /* \"#utility.yul\":3341:3868   */\n    tag_13:\n        /* \"#utility.yul\":3411:3417   */\n      0x00\n        /* \"#utility.yul\":3419:3425   */\n      dup1\n        /* \"#utility.yul\":3468:3470   */\n      0x20\n        /* \"#utility.yul\":3456:3465   */\n      dup4\n        /* \"#utility.yul\":3447:3454   */\n      dup6\n        /* \"#utility.yul\":3443:3466   */\n      sub\n        /* \"#utility.yul\":3439:3471   */\n      slt\n        /* \"#utility.yul\":3436:3555   */\n      iszero\n      tag_113\n      jumpi\n        /* \"#utility.yul\":3474:3553   */\n      tag_114\n      tag_32\n      jump\t// in\n    tag_114:\n        /* \"#utility.yul\":3436:3555   */\n    tag_113:\n        /* \"#utility.yul\":3622:3623   */\n      0x00\n        /* \"#utility.yul\":3611:3620   */\n      dup4\n        /* \"#utility.yul\":3607:3624   */\n      add\n        /* \"#utility.yul\":3594:3625   */\n      calldataload\n        /* \"#utility.yul\":3652:3670   */\n      0xffffffffffffffff\n        /* \"#utility.yul\":3644:3650   */\n      dup2\n        /* \"#utility.yul\":3641:3671   */\n      gt\n        /* \"#utility.yul\":3638:3755   */\n      iszero\n      tag_115\n      jumpi\n        /* \"#utility.yul\":3674:3753   */\n      tag_116\n      tag_33\n      jump\t// in\n    tag_116:\n        /* \"#utility.yul\":3638:3755   */\n    tag_115:\n        /* \"#utility.yul\":3787:3851   */\n      tag_117\n        /* \"#utility.yul\":3843:3850   */\n      dup6\n        /* \"#utility.yul\":3834:3840   */\n      dup3\n        /* \"#utility.yul\":3823:3832   */\n      dup7\n        /* \"#utility.yul\":3819:3841   */\n      add\n        /* \"#utility.yul\":3787:3851   */\n      tag_46\n      jump\t// in\n    tag_117:\n        /* \"#utility.yul\":3769:3851   */\n      swap3\n      pop\n      swap3\n      pop\n        /* \"#utility.yul\":3565:3861   */\n      pop\n        /* \"#utility.yul\":3341:3868   */\n      swap3\n      pop\n      swap3\n      swap1\n      pop\n      jump\t// out\n        /* \"#utility.yul\":3874:4054   */\n    tag_47:\n        /* \"#utility.yul\":3922:3999   */\n      0x4e487b7100000000000000000000000000000000000000000000000000000000\n        /* \"#utility.yul\":3919:3920   */\n      0x00\n        /* \"#utility.yul\":3912:4000   */\n      mstore\n        /* \"#utility.yul\":4019:4023   */\n      0x22\n        /* \"#utility.yul\":4016:4017   */\n      0x04\n        /* \"#utility.yul\":4009:4024   */\n      mstore\n        /* \"#utility.yul\":4043:4047   */\n      0x24\n        /* \"#utility.yul\":4040:4041   */\n      0x00\n        /* \"#utility.yul\":4033:4048   */\n      revert\n        /* \"#utility.yul\":4060:4380   */\n    tag_16:\n        /* \"#utility.yul\":4104:4110   */\n      0x00\n        /* \"#utility.yul\":4141:4142   */\n      0x02\n        /* \"#utility.yul\":4135:4139   */\n      dup3\n        /* \"#utility.yul\":4131:4143   */\n      div\n        /* \"#utility.yul\":4121:4143   */\n      swap1\n      pop\n        /* \"#utility.yul\":4188:4189   */\n      0x01\n        /* \"#utility.yul\":4182:4186   */\n      dup3\n        /* \"#utility.yul\":4178:4190   */\n      and\n        /* \"#utility.yul\":4209:4227   */\n      dup1\n        /* \"#utility.yul\":4199:4280   */\n      tag_120\n      jumpi\n        /* \"#utility.yul\":4265:4269   */\n      0x7f\n        /* \"#utility.yul\":4257:4263   */\n      dup3\n        /* \"#utility.yul\":4253:4270   */\n      and\n        /* \"#utility.yul\":4243:4270   */\n      swap2\n      pop\n        /* \"#utility.yul\":4199:4280   */\n    tag_120:\n        /* \"#utility.yul\":4327:4329   */\n      0x20\n        /* \"#utility.yul\":4319:4325   */\n      dup3\n        /* \"#utility.yul\":4316:4330   */\n      lt\n        /* \"#utility.yul\":4296:4314   */\n      dup2\n        /* \"#utility.yul\":4293:4331   */\n      sub\n        /* \"#utility.yul\":4290:4374   */\n      tag_121\n      jumpi\n        /* \"#utility.yul\":4346:4364   */\n      tag_122\n      tag_47\n      jump\t// in\n    tag_122:\n        /* \"#utility.yul\":4290:4374   */\n    tag_121:\n        /* \"#utility.yul\":4111:4380   */\n      pop\n        /* \"#utility.yul\":4060:4380   */\n      swap2\n      swap1\n      pop\n      jump\t// out\n        /* \"#utility.yul\":4386:4566   */\n    tag_25:\n        /* \"#utility.yul\":4434:4511   */\n      0x4e487b7100000000000000000000000000000000000000000000000000000000\n        /* \"#utility.yul\":4431:4432   */\n      0x00\n        /* \"#utility.yul\":4424:4512   */\n      mstore\n        /* \"#utility.yul\":4531:4535   */\n      0x32\n        /* \"#utility.yul\":4528:4529   */\n      0x04\n        /* \"#utility.yul\":4521:4536   */\n      mstore\n        /* \"#utility.yul\":4555:4559   */\n      0x24\n        /* \"#utility.yul\":4552:4553   */\n      0x00\n        /* \"#utility.yul\":4545:4560   */\n      revert\n        /* \"#utility.yul\":4572:4668   */\n    tag_48:\n        /* \"#utility.yul\":4630:4636   */\n      0x00\n        /* \"#utility.yul\":4658:4661   */\n      dup3\n        /* \"#utility.yul\":4648:4661   */\n      swap1\n      pop\n        /* \"#utility.yul\":4572:4668   */\n      swap3\n      swap2\n      pop\n      pop\n      jump\t// out\n        /* \"#utility.yul\":4674:4854   */\n    tag_49:\n        /* \"#utility.yul\":4722:4799   */\n      0x4e487b7100000000000000000000000000000000000000000000000000000000\n        /* \"#utility.yul\":4719:4720   */\n      0x00\n        /* \"#utility.yul\":4712:4800   */\n      mstore\n        /* \"#utility.yul\":4819:4823   */\n      0x41\n        /* \"#utility.yul\":4816:4817   */\n      0x04\n        /* \"#utility.yul\":4809:4824   */\n      mstore\n        /* \"#utility.yul\":4843:4847   */\n      0x24\n        /* \"#utility.yul\":4840:4841   */\n      0x00\n        /* \"#utility.yul\":4833:4848   */\n      revert\n        /* \"#utility.yul\":4860:5000   */\n    tag_50:\n        /* \"#utility.yul\":4908:4912   */\n      0x00\n        /* \"#utility.yul\":4931:4934   */\n      dup2\n        /* \"#utility.yul\":4923:4934   */\n      swap1\n      pop\n        /* \"#utility.yul\":4954:4957   */\n      dup2\n        /* \"#utility.yul\":4951:4952   */\n      0x00\n        /* \"#utility.yul\":4944:4958   */\n      mstore\n        /* \"#utility.yul\":4988:4992   */\n      0x20\n        /* \"#utility.yul\":4985:4986   */\n      0x00\n        /* \"#utility.yul\":4975:4993   */\n      keccak256\n        /* \"#utility.yul\":4967:4993   */\n      swap1\n      pop\n        /* \"#utility.yul\":4860:5000   */\n      swap2\n      swap1\n      pop\n      jump\t// out\n        /* \"#utility.yul\":5006:5099   */\n    tag_51:\n        /* \"#utility.yul\":5043:5049   */\n      0x00\n        /* \"#utility.yul\":5090:5092   */\n      0x20\n        /* \"#utility.yul\":5085:5087   */\n      0x1f\n        /* \"#utility.yul\":5078:5083   */\n      dup4\n        /* \"#utility.yul\":5074:5088   */\n      add\n        /* \"#utility.yul\":5070:5093   */\n      div\n        /* \"#utility.yul\":5060:5093   */\n      swap1\n      pop\n        /* \"#utility.yul\":5006:5099   */\n      swap2\n      swap1\n      pop\n      jump\t// out\n        /* \"#utility.yul\":5105:5212   */\n    tag_52:\n        /* \"#utility.yul\":5149:5157   */\n      0x00\n        /* \"#utility.yul\":5199:5204   */\n      dup3\n        /* \"#utility.yul\":5193:5197   */\n      dup3\n        /* \"#utility.yul\":5189:5205   */\n      shl\n        /* \"#utility.yul\":5168:5205   */\n      swap1\n      pop\n        /* \"#utility.yul\":5105:5212   */\n      swap3\n      swap2\n      pop\n      pop\n      jump\t// out\n        /* \"#utility.yul\":5218:5611   */\n    tag_53:\n        /* \"#utility.yul\":5287:5293   */\n      0x00\n        /* \"#utility.yul\":5337:5338   */\n      0x08\n        /* \"#utility.yul\":5325:5335   */\n      dup4\n        /* \"#utility.yul\":5321:5339   */\n      mul\n        /* \"#utility.yul\":5360:5457   */\n      tag_130\n        /* \"#utility.yul\":5390:5456   */\n      0xffffffffffffffffffffffffffffffffffffffffffffffffffffffffffffffff\n        /* \"#utility.yul\":5379:5388   */\n      dup3\n        /* \"#utility.yul\":5360:5457   */\n      tag_52\n      jump\t// in\n    tag_130:\n        /* \"#utility.yul\":5478:5517   */\n      tag_131\n        /* \"#utility.yul\":5508:5516   */\n      dup7\n        /* \"#utility.yul\":5497:5506   */\n      dup4\n        /* \"#utility.yul\":5478:5517   */\n      tag_52\n      jump\t// in\n    tag_131:\n        /* \"#utility.yul\":5466:5517   */\n      swap6\n      pop\n        /* \"#utility.yul\":5550:5554   */\n      dup1\n        /* \"#utility.yul\":5546:5555   */\n      not\n        /* \"#utility.yul\":5539:5544   */\n      dup5\n        /* \"#utility.yul\":5535:5556   */\n      and\n        /* \"#utility.yul\":5526:5556   */\n      swap4\n      pop\n        /* \"#utility.yul\":5599:5603   */\n      dup1\n        /* \"#utility.yul\":5589:5597   */\n      dup7\n        /* \"#utility.yul\":5585:5604   */\n      and\n        /* \"#utility.yul\":5578:5583   */\n      dup5\n        /* \"#utility.yul\":5575:5605   */\n      or\n        /* \"#utility.yul\":5565:5605   */\n      swap3\n      pop\n        /* \"#utility.yul\":5294:5611   */\n      pop\n      pop\n        /* \"#utility.yul\":5218:5611   */\n      swap4\n      swap3\n      pop\n      pop\n      pop\n      jump\t// out\n        /* \"#utility.yul\":5617:5694   */\n    tag_54:\n        /* \"#utility.yul\":5654:5661   */\n      0x00\n        /* \"#utility.yul\":5683:5688   */\n      dup2\n        /* \"#utility.yul\":5672:5688   */\n      swap1\n      pop\n        /* \"#utility.yul\":5617:5694   */\n      swap2\n      swap1\n      pop\n      jump\t// out\n        /* \"#utility.yul\":5700:5760   */\n    tag_55:\n        /* \"#utility.yul\":5728:5731   */\n      0x00\n        /* \"#utility.yul\":5749:5754   */\n      dup2\n        /* \"#utility.yul\":5742:5754   */\n      swap1\n      pop\n        /* \"#utility.yul\":5700:5760   */\n      swap2\n      swap1\n      pop\n      jump\t// out\n        /* \"#utility.yul\":5766:5908   */\n    tag_56:\n        /* \"#utility.yul\":5816:5825   */\n      0x00\n        /* \"#utility.yul\":5849:5902   */\n      tag_135\n        /* \"#utility.yul\":5867:5901   */\n      tag_136\n        /* \"#utility.yul\":5876:5900   */\n      tag_137\n        /* \"#utility.yul\":5894:5899   */\n      dup5\n        /* \"#utility.yul\":5876:5900   */\n      tag_54\n      jump\t// in\n    tag_137:\n        /* \"#utility.yul\":5867:5901   */\n      tag_55\n      jump\t// in\n    tag_136:\n        /* \"#utility.yul\":5849:5902   */\n      tag_54\n      jump\t// in\n    tag_135:\n        /* \"#utility.yul\":5836:5902   */\n      swap1\n      pop\n        /* \"#utility.yul\":5766:5908   */\n      swap2\n      swap1\n      pop\n      jump\t// out\n        /* \"#utility.yul\":5914:5989   */\n    tag_57:\n        /* \"#utility.yul\":5957:5960   */\n      0x00\n        /* \"#utility.yul\":5978:5983   */\n      dup2\n        /* \"#utility.yul\":5971:5983   */\n      swap1\n      pop\n        /* \"#utility.yul\":5914:5989   */\n      swap2\n      swap1\n      pop\n      jump\t// out\n        /* \"#utility.yul\":5995:6264   */\n    tag_58:\n        /* \"#utility.yul\":6105:6144   */\n      tag_140\n        /* \"#utility.yul\":6136:6143   */\n      dup4\n        /* \"#utility.yul\":6105:6144   */\n      tag_56\n      jump\t// in\n    tag_140:\n        /* \"#utility.yul\":6166:6257   */\n      tag_141\n        /* \"#utility.yul\":6215:6256   */\n      tag_142\n        /* \"#utility.yul\":6239:6255   */\n      dup3\n        /* \"#utility.yul\":6215:6256   */\n      tag_57\n      jump\t// in\n    tag_142:\n        /* \"#utility.yul\":6207:6213   */\n      dup5\n        /* \"#utility.yul\":6200:6204   */\n      dup5\n        /* \"#utility.yul\":6194:6205   */\n      sload\n        /* \"#utility.yul\":6166:6257   */\n      tag_53\n      jump\t// in\n    tag_141:\n        /* \"#utility.yul\":6160:6164   */\n      dup3\n        /* \"#utility.yul\":6153:6258   */\n      sstore\n        /* \"#utility.yul\":6071:6264   */\n      pop\n        /* \"#utility.yul\":5995:6264   */\n      pop\n      pop\n      pop\n      jump\t// out\n        /* \"#utility.yul\":6270:6343   */\n    tag_59:\n        /* \"#utility.yul\":6315:6318   */\n      0x00\n        /* \"#utility.yul\":6270:6343   */\n      swap1\n      jump\t// out\n        /* \"#utility.yul\":6349:6538   */\n    tag_60:\n        /* \"#utility.yul\":6426:6458   */\n      tag_145\n      tag_59\n      jump\t// in\n    tag_145:\n        /* \"#utility.yul\":6467:6532   */\n      tag_146\n        /* \"#utility.yul\":6525:6531   */\n      dup2\n        /* \"#utility.yul\":6517:6523   */\n      dup5\n        /* \"#utility.yul\":6511:6515   */\n      dup5\n        /* \"#utility.yul\":6467:6532   */\n      tag_58\n      jump\t// in\n    tag_146:\n        /* \"#utility.yul\":6402:6538   */\n      pop\n        /* \"#utility.yul\":6349:6538   */\n      pop\n      pop\n      jump\t// out\n        /* \"#utility.yul\":6544:6730   */\n    tag_61:\n        /* \"#utility.yul\":6604:6724   */\n    tag_148:\n        /* \"#utility.yul\":6621:6624   */\n      dup2\n        /* \"#utility.yul\":6614:6619   */\n      dup2\n        /* \"#utility.yul\":6611:6625   */\n      lt\n        /* \"#utility.yul\":6604:6724   */\n      iszero\n      tag_150\n      jumpi\n        /* \"#utility.yul\":6675:6714   */\n      tag_151\n        /* \"#utility.yul\":6712:6713   */\n      0x00\n        /* \"#utility.yul\":6705:6710   */\n      dup3\n        /* \"#utility.yul\":6675:6714   */\n      tag_60\n      jump\t// in\n    tag_151:\n        /* \"#utility.yul\":6648:6649   */\n      0x01\n        /* \"#utility.yul\":6641:6646   */\n      dup2\n        /* \"#utility.yul\":6637:6650   */\n      add\n        /* \"#utility.yul\":6628:6650   */\n      swap1\n      pop\n        /* \"#utility.yul\":6604:6724   */\n      jump(tag_148)\n    tag_150:\n        /* \"#utility.yul\":6544:6730   */\n      pop\n      pop\n      jump\t// out\n        /* \"#utility.yul\":6736:7277   */\n    tag_62:\n        /* \"#utility.yul\":6836:6838   */\n      0x1f\n        /* \"#utility.yul\":6831:6834   */\n      dup3\n        /* \"#utility.yul\":6828:6839   */\n      gt\n        /* \"#utility.yul\":6825:7270   */\n      iszero\n      tag_153\n      jumpi\n        /* \"#utility.yul\":6870:6907   */\n      tag_154\n        /* \"#utility.yul\":6901:6906   */\n      dup2\n        /* \"#utility.yul\":6870:6907   */\n      tag_50\n      jump\t// in\n    tag_154:\n        /* \"#utility.yul\":6953:6982   */\n      tag_155\n        /* \"#utility.yul\":6971:6981   */\n      dup5\n        /* \"#utility.yul\":6953:6982   */\n      tag_51\n      jump\t// in\n    tag_155:\n        /* \"#utility.yul\":6943:6951   */\n      dup2\n        /* \"#utility.yul\":6939:6983   */\n      add\n        /* \"#utility.yul\":7136:7138   */\n      0x20\n        /* \"#utility.yul\":7124:7134   */\n      dup6\n        /* \"#utility.yul\":7121:7139   */\n      lt\n        /* \"#utility.yul\":7118:7167   */\n      iszero\n      tag_156\n      jumpi\n        /* \"#utility.yul\":7157:7165   */\n      dup2\n        /* \"#utility.yul\":7142:7165   */\n      swap1\n      pop\n        /* \"#utility.yul\":7118:7167   */\n    tag_156:\n        /* \"#utility.yul\":7180:7260   */\n      tag_157\n        /* \"#utility.yul\":7236:7258   */\n      tag_158\n        /* \"#utility.yul\":7254:7257   */\n      dup6\n        /* \"#utility.yul\":7236:7258   */\n      tag_51\n      jump\t// in\n    tag_158:\n        /* \"#utility.yul\":7226:7234   */\n      dup4\n        /* \"#utility.yul\":7222:7259   */\n      add\n        /* \"#utility.yul\":7209:7220   */\n      dup3\n        /* \"#utility.yul\":7180:7260   */\n      tag_61\n      jump\t// in\n    tag_157:\n        /* \"#utility.yul\":6840:7270   */\n      pop\n      pop\n        /* \"#utility.yul\":6825:7270   */\n    tag_153:\n        /* \"#utility.yul\":6736:7277   */\n      pop\n      pop\n      pop\n      jump\t// out\n        /* \"#utility.yul\":7283:7400   */\n    tag_63:\n        /* \"#utility.yul\":7337:7345   */\n      0x00\n        /* \"#utility.yul\":7387:7392   */\n      dup3\n        /* \"#utility.yul\":7381:7385   */\n      dup3\n        /* \"#utility.yul\":7377:7393   */\n      shr\n        /* \"#utility.yul\":7356:7393   */\n      swap1\n      pop\n        /* \"#utility.yul\":7283:7400   */\n      swap3\n      swap2\n      pop\n      pop\n      jump\t// out\n        /* \"#utility.yul\":7406:7575   */\n    tag_64:\n        /* \"#utility.yul\":7450:7456   */\n      0x00\n        /* \"#utility.yul\":7483:7534   */\n      tag_161\n        /* \"#utility.yul\":7531:7532   */\n      0x00\n        /* \"#utility.yul\":7527:7533   */\n      not\n        /* \"#utility.yul\":7519:7524   */\n      dup5\n        /* \"#utility.yul\":7516:7517   */\n      0x08\n        /* \"#utility.yul\":7512:7525   */\n      mul\n        /* \"#utility.yul\":7483:7534   */\n      tag_63\n      jump\t// in\n    tag_161:\n        /* \"#utility.yul\":7479:7535   */\n      not\n        /* \"#utility.yul\":7564:7568   */\n      dup1\n        /* \"#utility.yul\":7558:7562   */\n      dup4\n        /* \"#utility.yul\":7554:7569   */\n      and\n        /* \"#utility.yul\":7544:7569   */\n      swap2\n      pop\n        /* \"#utility.yul\":7457:7575   */\n      pop\n        /* \"#utility.yul\":7406:7575   */\n      swap3\n      swap2\n      pop\n      pop\n      jump\t// out\n        /* \"#utility.yul\":7580:7875   */\n    tag_65:\n        /* \"#utility.yul\":7656:7660   */\n      0x00\n        /* \"#utility.yul\":7802:7831   */\n      tag_163\n        /* \"#utility.yul\":7827:7830   */\n      dup4\n        /* \"#utility.yul\":7821:7825   */\n      dup4\n        /* \"#utility.yul\":7802:7831   */\n      tag_64\n      jump\t// in\n    tag_163:\n        /* \"#utility.yul\":7794:7831   */\n      swap2\n      pop\n        /* \"#utility.yul\":7864:7867   */\n      dup3\n        /* \"#utility.yul\":7861:7862   */\n      0x02\n        /* \"#utility.yul\":7857:7868   */\n      mul\n        /* \"#utility.yul\":7851:7855   */\n      dup3\n        /* \"#utility.yul\":7848:7869   */\n      or\n        /* \"#utility.yul\":7840:7869   */\n      swap1\n      pop\n        /* \"#utility.yul\":7580:7875   */\n      swap3\n      swap2\n      pop\n      pop\n      jump\t// out\n        /* \"#utility.yul\":7880:9278   */\n    tag_28:\n        /* \"#utility.yul\":8002:8045   */\n      tag_165\n        /* \"#utility.yul\":8041:8044   */\n      dup4\n        /* \"#utility.yul\":8036:8039   */\n      dup4\n        /* \"#utility.yul\":8002:8045   */\n      tag_48\n      jump\t// in\n    tag_165:\n        /* \"#utility.yul\":8110:8128   */\n      0xffffffffffffffff\n        /* \"#utility.yul\":8102:8108   */\n      dup2\n        /* \"#utility.yul\":8099:8129   */\n      gt\n        /* \"#utility.yul\":8096:8152   */\n      iszero\n      tag_166\n      jumpi\n        /* \"#utility.yul\":8132:8150   */\n      tag_167\n      tag_49\n      jump\t// in\n    tag_167:\n        /* \"#utility.yul\":8096:8152   */\n    tag_166:\n        /* \"#utility.yul\":8176:8214   */\n      tag_168\n        /* \"#utility.yul\":8208:8212   */\n      dup3\n        /* \"#utility.yul\":8202:8213   */\n      sload\n        /* \"#utility.yul\":8176:8214   */\n      tag_16\n      jump\t// in\n    tag_168:\n        /* \"#utility.yul\":8261:8327   */\n      tag_169\n        /* \"#utility.yul\":8320:8326   */\n      dup3\n        /* \"#utility.yul\":8312:8318   */\n      dup3\n        /* \"#utility.yul\":8306:8310   */\n      dup6\n        /* \"#utility.yul\":8261:8327   */\n      tag_62\n      jump\t// in\n    tag_169:\n        /* \"#utility.yul\":8354:8355   */\n      0x00\n        /* \"#utility.yul\":8383:8385   */\n      0x1f\n        /* \"#utility.yul\":8375:8381   */\n      dup4\n        /* \"#utility.yul\":8372:8386   */\n      gt\n        /* \"#utility.yul\":8400:8401   */\n      0x01\n        /* \"#utility.yul\":8395:9026   */\n      dup2\n      eq\n      tag_171\n      jumpi\n        /* \"#utility.yul\":9070:9071   */\n      0x00\n        /* \"#utility.yul\":9087:9093   */\n      dup5\n        /* \"#utility.yul\":9084:9168   */\n      iszero\n      tag_172\n      jumpi\n        /* \"#utility.yul\":9143:9152   */\n      dup3\n        /* \"#utility.yul\":9138:9141   */\n      dup8\n        /* \"#utility.yul\":9134:9153   */\n      add\n        /* \"#utility.yul\":9121:9154   */\n      calldataload\n        /* \"#utility.yul\":9112:9154   */\n      swap1\n      pop\n        /* \"#utility.yul\":9084:9168   */\n    tag_172:\n        /* \"#utility.yul\":9194:9261   */\n      tag_173\n        /* \"#utility.yul\":9254:9260   */\n      dup6\n        /* \"#utility.yul\":9247:9252   */\n      dup3\n        /* \"#utility.yul\":9194:9261   */\n      tag_65\n      jump\t// in\n    tag_173:\n        /* \"#utility.yul\":9188:9192   */\n      dup7\n        /* \"#utility.yul\":9181:9262   */\n      sstore\n        /* \"#utility.yul\":9043:9272   */\n      pop\n        /* \"#utility.yul\":8365:9272   */\n      jump(tag_170)\n        /* \"#utility.yul\":8395:9026   */\n    tag_171:\n        /* \"#utility.yul\":8447:8451   */\n      0x1f\n        /* \"#utility.yul\":8443:8452   */\n      not\n        /* \"#utility.yul\":8435:8441   */\n      dup5\n        /* \"#utility.yul\":8431:8453   */\n      and\n        /* \"#utility.yul\":8481:8517   */\n      tag_174\n        /* \"#utility.yul\":8512:8516   */\n      dup7\n        /* \"#utility.yul\":8481:8517   */\n      tag_50\n      jump\t// in\n    tag_174:\n        /* \"#utility.yul\":8539:8540   */\n      0x00\n        /* \"#utility.yul\":8553:8768   */\n    tag_175:\n        /* \"#utility.yul\":8567:8574   */\n      dup3\n        /* \"#utility.yul\":8564:8565   */\n      dup2\n        /* \"#utility.yul\":8561:8575   */\n      lt\n        /* \"#utility.yul\":8553:8768   */\n      iszero\n      tag_177\n      jumpi\n        /* \"#utility.yul\":8653:8662   */\n      dup5\n        /* \"#utility.yul\":8648:8651   */\n      dup10\n        /* \"#utility.yul\":8644:8663   */\n      add\n        /* \"#utility.yul\":8631:8664   */\n      calldataload\n        /* \"#utility.yul\":8623:8629   */\n      dup3\n        /* \"#utility.yul\":8616:8665   */\n      sstore\n        /* \"#utility.yul\":8704:8705   */\n      0x01\n        /* \"#utility.yul\":8696:8702   */\n      dup3\n        /* \"#utility.yul\":8692:8706   */\n      add\n        /* \"#utility.yul\":8682:8706   */\n      swap2\n      pop\n        /* \"#utility.yul\":8751:8753   */\n      0x20\n        /* \"#utility.yul\":8740:8749   */\n      dup6\n        /* \"#utility.yul\":8736:8754   */\n      add\n        /* \"#utility.yul\":8723:8754   */\n      swap5\n      pop\n        /* \"#utility.yul\":8590:8594   */\n      0x20\n        /* \"#utility.yul\":8587:8588   */\n      dup2\n        /* \"#utility.yul\":8583:8595   */\n      add\n        /* \"#utility.yul\":8578:8595   */\n      swap1\n      pop\n        /* \"#utility.yul\":8553:8768   */\n      jump(tag_175)\n    tag_177:\n        /* \"#utility.yul\":8796:8802   */\n      dup7\n        /* \"#utility.yul\":8787:8794   */\n      dup4\n        /* \"#utility.yul\":8784:8803   */\n      lt\n        /* \"#utility.yul\":8781:8967   */\n      iszero\n      tag_178\n      jumpi\n        /* \"#utility.yul\":8861:8870   */\n      dup5\n        /* \"#utility.yul\":8856:8859   */\n      dup10\n        /* \"#utility.yul\":8852:8871   */\n      add\n        /* \"#utility.yul\":8839:8872   */\n      calldataload\n        /* \"#utility.yul\":8904:8952   */\n      tag_179\n        /* \"#utility.yul\":8946:8950   */\n      0x1f\n        /* \"#utility.yul\":8938:8944   */\n      dup10\n        /* \"#utility.yul\":8934:8951   */\n      and\n        /* \"#utility.yul\":8923:8932   */\n      dup3\n        /* \"#utility.yul\":8904:8952   */\n      tag_64\n      jump\t// in\n    tag_179:\n        /* \"#utility.yul\":8896:8902   */\n      dup4\n        /* \"#utility.yul\":8889:8953   */\n      sstore\n        /* \"#utility.yul\":8804:8967   */\n      pop\n        /* \"#utility.yul\":8781:8967   */\n    tag_178:\n        /* \"#utility.yul\":9013:9014   */\n      0x01\n        /* \"#utility.yul\":9009:9010   */\n      0x02\n        /* \"#utility.yul\":9001:9007   */\n      dup9\n        /* \"#utility.yul\":8997:9011   */\n      mul\n        /* \"#utility.yul\":8993:9015   */\n      add\n        /* \"#utility.yul\":8987:8991   */\n      dup9\n        /* \"#utility.yul\":8980:9016   */\n      sstore\n        /* \"#utility.yul\":8402:9026   */\n      pop\n      pop\n      pop\n        /* \"#utility.yul\":8365:9272   */\n    tag_170:\n      pop\n        /* \"#utility.yul\":7977:9278   */\n      pop\n      pop\n      pop\n        /* \"#utility.yul\":7880:9278   */\n      pop\n      pop\n      pop\n      jump\t// out\n        /* \"#utility.yul\":9284:9464   */\n    tag_66:\n        /* \"#utility.yul\":9332:9409   */\n      0x4e487b7100000000000000000000000000000000000000000000000000000000\n        /* \"#utility.yul\":9329:9330   */\n      0x00\n        /* \"#utility.yul\":9322:9410   */\n      mstore\n        /* \"#utility.yul\":9429:9433   */\n      0x21\n        /* \"#utility.yul\":9426:9427   */\n      0x04\n        /* \"#utility.yul\":9419:9434   */\n      mstore\n        /* \"#utility.yul\":9453:9457   */\n      0x24\n        /* \"#utility.yul\":9450:9451   */\n      0x00\n        /* \"#utility.yul\":9443:9458   */\n      revert\n        /* \"#utility.yul\":9470:9589   */\n    tag_67:\n        /* \"#utility.yul\":9557:9558   */\n      0x04\n        /* \"#utility.yul\":9550:9555   */\n      dup2\n        /* \"#utility.yul\":9547:9559   */\n      lt\n        /* \"#utility.yul\":9537:9583   */\n      tag_182\n      jumpi\n        /* \"#utility.yul\":9563:9581   */\n      tag_183\n      tag_66\n      jump\t// in\n    tag_183:\n        /* \"#utility.yul\":9537:9583   */\n    tag_182:\n        /* \"#utility.yul\":9470:9589   */\n      pop\n      jump\t// out\n        /* \"#utility.yul\":9595:9734   */\n    tag_68:\n        /* \"#utility.yul\":9646:9653   */\n      0x00\n        /* \"#utility.yul\":9675:9680   */\n      dup2\n        /* \"#utility.yul\":9664:9680   */\n      swap1\n      pop\n        /* \"#utility.yul\":9681:9728   */\n      tag_185\n        /* \"#utility.yul\":9722:9727   */\n      dup3\n        /* \"#utility.yul\":9681:9728   */\n      tag_67\n      jump\t// in\n    tag_185:\n        /* \"#utility.yul\":9595:9734   */\n      swap2\n      swap1\n      pop\n      jump\t// out\n        /* \"#utility.yul\":9740:9879   */\n    tag_69:\n        /* \"#utility.yul\":9802:9811   */\n      0x00\n        /* \"#utility.yul\":9835:9873   */\n      tag_187\n        /* \"#utility.yul\":9867:9872   */\n      dup3\n        /* \"#utility.yul\":9835:9873   */\n      tag_68\n      jump\t// in\n    tag_187:\n        /* \"#utility.yul\":9822:9873   */\n      swap1\n      pop\n        /* \"#utility.yul\":9740:9879   */\n      swap2\n      swap1\n      pop\n      jump\t// out\n        /* \"#utility.yul\":9885:10040   */\n    tag_70:\n        /* \"#utility.yul\":9984:10033   */\n      tag_189\n        /* \"#utility.yul\":10027:10032   */\n      dup2\n        /* \"#utility.yul\":9984:10033   */\n      tag_69\n      jump\t// in\n    tag_189:\n        /* \"#utility.yul\":9979:9982   */\n      dup3\n        /* \"#utility.yul\":9972:10034   */\n      mstore\n        /* \"#utility.yul\":9885:10040   */\n      pop\n      pop\n      jump\t// out\n        /* \"#utility.yul\":10046:10168   */\n    tag_71:\n        /* \"#utility.yul\":10136:10137   */\n      0x04\n        /* \"#utility.yul\":10129:10134   */\n      dup2\n        /* \"#utility.yul\":10126:10138   */\n      lt\n        /* \"#utility.yul\":10116:10162   */\n      tag_191\n      jumpi\n        /* \"#utility.yul\":10142:10160   */\n      tag_192\n      tag_66\n      jump\t// in\n    tag_192:\n        /* \"#utility.yul\":10116:10162   */\n    tag_191:\n        /* \"#utility.yul\":10046:10168   */\n      pop\n      jump\t// out\n        /* \"#utility.yul\":10174:10319   */\n    tag_72:\n        /* \"#utility.yul\":10228:10235   */\n      0x00\n        /* \"#utility.yul\":10257:10262   */\n      dup2\n        /* \"#utility.yul\":10246:10262   */\n      swap1\n      pop\n        /* \"#utility.yul\":10263:10313   */\n      tag_194\n        /* \"#utility.yul\":10307:10312   */\n      dup3\n        /* \"#utility.yul\":10263:10313   */\n      tag_71\n      jump\t// in\n    tag_194:\n        /* \"#utility.yul\":10174:10319   */\n      swap2\n      swap1\n      pop\n      jump\t// out\n        /* \"#utility.yul\":10325:10470   */\n    tag_73:\n        /* \"#utility.yul\":10390:10399   */\n      0x00\n        /* \"#utility.yul\":10423:10464   */\n      tag_196\n        /* \"#utility.yul\":10458:10463   */\n      dup3\n        /* \"#utility.yul\":10423:10464   */\n      tag_72\n      jump\t// in\n    tag_196:\n        /* \"#utility.yul\":10410:10464   */\n      swap1\n      pop\n        /* \"#utility.yul\":10325:10470   */\n      swap2\n      swap1\n      pop\n      jump\t// out\n        /* \"#utility.yul\":10476:10637   */\n    tag_74:\n        /* \"#utility.yul\":10578:10630   */\n      tag_198\n        /* \"#utility.yul\":10624:10629   */\n      dup2\n        /* \"#utility.yul\":10578:10630   */\n      tag_73\n      jump\t// in\n    tag_198:\n        /* \"#utility.yul\":10573:10576   */\n      dup3\n        /* \"#utility.yul\":10566:10631   */\n      mstore\n        /* \"#utility.yul\":10476:10637   */\n      pop\n      pop\n      jump\t// out\n        /* \"#utility.yul\":10643:11029   */\n    tag_30:\n        /* \"#utility.yul\":10791:10795   */\n      0x00\n        /* \"#utility.yul\":10829:10831   */\n      0x40\n        /* \"#utility.yul\":10818:10827   */\n      dup3\n        /* \"#utility.yul\":10814:10832   */\n      add\n        /* \"#utility.yul\":10806:10832   */\n      swap1\n      pop\n        /* \"#utility.yul\":10842:10925   */\n      tag_200\n        /* \"#utility.yul\":10922:10923   */\n      0x00\n        /* \"#utility.yul\":10911:10920   */\n      dup4\n        /* \"#utility.yul\":10907:10924   */\n      add\n        /* \"#utility.yul\":10898:10904   */\n      dup6\n        /* \"#utility.yul\":10842:10925   */\n      tag_70\n      jump\t// in\n    tag_200:\n        /* \"#utility.yul\":10935:11022   */\n      tag_201\n        /* \"#utility.yul\":11018:11020   */\n      0x20\n        /* \"#utility.yul\":11007:11016   */\n      dup4\n        /* \"#utility.yul\":11003:11021   */\n      add\n        /* \"#utility.yul\":10994:11000   */\n      dup5\n        /* \"#utility.yul\":10935:11022   */\n      tag_74\n      jump\t// in\n    tag_201:\n        /* \"#utility.yul\":10643:11029   */\n      swap4\n      swap3\n      pop\n      pop\n      pop\n      jump\t// out\n\n    auxdata: 0xa2646970667358221220c9556aa0ea8e1671ab02f268924757d428c50900e07ed1ffe379fe43b33b181764736f6c634300081a0033\n}\n",
				"bytecode": {
					"linkReferences": {},
					"object": "6080604052348015600e575f80fd5b5061085c8061001c5f395ff3fe608060405234801561000f575f80fd5b5060043610610034575f3560e01c8063469e906714610038578063daefc20a14610068575b5f80fd5b610052600480360381019061004d91906102ab565b610084565b60405161005f9190610346565b60405180910390f35b610082600480360381019061007d91906103c7565b61011e565b005b5f602052805f5260405f205f91509050805461009f9061043f565b80601f01602080910402602001604051908101604052809291908181526020018280546100cb9061043f565b80156101165780601f106100ed57610100808354040283529160200191610116565b820191905f5260205f20905b8154815290600101906020018083116100f957829003601f168201915b505050505081565b5f8282905014806101715750600160f81b82825f8181106101425761014161046f565b5b9050013560f81c60f81b7effffffffffffffffffffffffffffffffffffffffffffffffffffffffffffff191614155b156101a8576040517fa4ca16de00000000000000000000000000000000000000000000000000000000815260040160405180910390fd5b81815f803373ffffffffffffffffffffffffffffffffffffffff1673ffffffffffffffffffffffffffffffffffffffff1681526020019081526020015f2091826101f3929190610679565b503373ffffffffffffffffffffffffffffffffffffffff167f4630e4d8ee2366488de2e4361bb2c5a1ebd888b5590e3f7a70dc072e37d60e9160018060405161023d9291906107ff565b60405180910390a25050565b5f80fd5b5f80fd5b5f73ffffffffffffffffffffffffffffffffffffffff82169050919050565b5f61027a82610251565b9050919050565b61028a81610270565b8114610294575f80fd5b50565b5f813590506102a581610281565b92915050565b5f602082840312156102c0576102bf610249565b5b5f6102cd84828501610297565b91505092915050565b5f81519050919050565b5f82825260208201905092915050565b8281835e5f83830152505050565b5f601f19601f8301169050919050565b5f610318826102d6565b61032281856102e0565b93506103328185602086016102f0565b61033b816102fe565b840191505092915050565b5f6020820190508181035f83015261035e818461030e565b905092915050565b5f80fd5b5f80fd5b5f80fd5b5f8083601f84011261038757610386610366565b5b8235905067ffffffffffffffff8111156103a4576103a361036a565b5b6020830191508360018202830111156103c0576103bf61036e565b5b9250929050565b5f80602083850312156103dd576103dc610249565b5b5f83013567ffffffffffffffff8111156103fa576103f961024d565b5b61040685828601610372565b92509250509250929050565b7f4e487b71000000000000000000000000000000000000000000000000000000005f52602260045260245ffd5b5f600282049050600182168061045657607f821691505b60208210810361046957610468610412565b5b50919050565b7f4e487b71000000000000000000000000000000000000000000000000000000005f52603260045260245ffd5b5f82905092915050565b7f4e487b71000000000000000000000000000000000000000000000000000000005f52604160045260245ffd5b5f819050815f5260205f209050919050565b5f6020601f8301049050919050565b5f82821b905092915050565b5f6008830261052f7fffffffffffffffffffffffffffffffffffffffffffffffffffffffffffffffff826104f4565b61053986836104f4565b95508019841693508086168417925050509392505050565b5f819050919050565b5f819050919050565b5f61057d61057861057384610551565b61055a565b610551565b9050919050565b5f819050919050565b61059683610563565b6105aa6105a282610584565b848454610500565b825550505050565b5f90565b6105be6105b2565b6105c981848461058d565b505050565b5b818110156105ec576105e15f826105b6565b6001810190506105cf565b5050565b601f82111561063157610602816104d3565b61060b846104e5565b8101602085101561061a578190505b61062e610626856104e5565b8301826105ce565b50505b505050565b5f82821c905092915050565b5f6106515f1984600802610636565b1980831691505092915050565b5f6106698383610642565b9150826002028217905092915050565b610683838361049c565b67ffffffffffffffff81111561069c5761069b6104a6565b5b6106a6825461043f565b6106b18282856105f0565b5f601f8311600181146106de575f84156106cc578287013590505b6106d6858261065e565b86555061073d565b601f1984166106ec866104d3565b5f5b82811015610713578489013582556001820191506020850194506020810190506106ee565b86831015610730578489013561072c601f891682610642565b8355505b6001600288020188555050505b50505050505050565b7f4e487b71000000000000000000000000000000000000000000000000000000005f52602160045260245ffd5b6004811061078457610783610746565b5b50565b5f81905061079482610773565b919050565b5f6107a382610787565b9050919050565b6107b381610799565b82525050565b600481106107ca576107c9610746565b5b50565b5f8190506107da826107b9565b919050565b5f6107e9826107cd565b9050919050565b6107f9816107df565b82525050565b5f6040820190506108125f8301856107aa565b61081f60208301846107f0565b939250505056fea2646970667358221220c9556aa0ea8e1671ab02f268924757d428c50900e07ed1ffe379fe43b33b181764736f6c634300081a0033",
					"opcodes": "PUSH1 0x80 PUSH1 0x40 MSTORE CALLVALUE DUP1 ISZERO PUSH1 0xE JUMPI PUSH0 DUP1 REVERT JUMPDEST POP PUSH2 0x85C DUP1 PUSH2 0x1C PUSH0 CODECOPY PUSH0 RETURN INVALID PUSH1 0x80 PUSH1 0x40 MSTORE CALLVALUE DUP1 ISZERO PUSH2 0xF JUMPI PUSH0 DUP1 REVERT JUMPDEST POP PUSH1 0x4 CALLDATASIZE LT PUSH2 0x34 JUMPI PUSH0 CALLDATALOAD PUSH1 0xE0 SHR DUP1 PUSH4 0x469E9067 EQ PUSH2 0x38 JUMPI DUP1 PUSH4 0xDAEFC20A EQ PUSH2 0x68 JUMPI JUMPDEST PUSH0 DUP1 REVERT JUMPDEST PUSH2 0x52 PUSH1 0x4 DUP1 CALLDATASIZE SUB DUP2 ADD SWAP1 PUSH2 0x4D SWAP2 SWAP1 PUSH2 0x2AB JUMP JUMPDEST PUSH2 0x84 JUMP JUMPDEST PUSH1 0x40 MLOAD PUSH2 0x5F SWAP2 SWAP1 PUSH2 0x346 JUMP JUMPDEST PUSH1 0x40 MLOAD DUP1 SWAP2 SUB SWAP1 RETURN JUMPDEST PUSH2 0x82 PUSH1 0x4 DUP1 CALLDATASIZE SUB DUP2 ADD SWAP1 PUSH2 0x7D SWAP2 SWAP1 PUSH2 0x3C7 JUMP JUMPDEST PUSH2 0x11E JUMP JUMPDEST STOP JUMPDEST PUSH0 PUSH1 0x20 MSTORE DUP1 PUSH0 MSTORE PUSH1 0x40 PUSH0 KECCAK256 PUSH0 SWAP2 POP SWAP1 POP DUP1 SLOAD PUSH2 0x9F SWAP1 PUSH2 0x43F JUMP JUMPDEST DUP1 PUSH1 0x1F ADD PUSH1 0x20 DUP1 SWAP2 DIV MUL PUSH1 0x20 ADD PUSH1 0x40 MLOAD SWAP1 DUP2 ADD PUSH1 0x40 MSTORE DUP1 SWAP3 SWAP2 SWAP1 DUP2 DUP2 MSTORE PUSH1 0x20 ADD DUP3 DUP1 SLOAD PUSH2 0xCB SWAP1 PUSH2 0x43F JUMP JUMPDEST DUP1 ISZERO PUSH2 0x116 JUMPI DUP1 PUSH1 0x1F LT PUSH2 0xED JUMPI PUSH2 0x100 DUP1 DUP4 SLOAD DIV MUL DUP4 MSTORE SWAP2 PUSH1 0x20 ADD SWAP2 PUSH2 0x116 JUMP JUMPDEST DUP3 ADD SWAP2 SWAP1 PUSH0 MSTORE PUSH1 0x20 PUSH0 KECCAK256 SWAP1 JUMPDEST DUP2 SLOAD DUP2 MSTORE SWAP1 PUSH1 0x1 ADD SWAP1 PUSH1 0x20 ADD DUP1 DUP4 GT PUSH2 0xF9 JUMPI DUP3 SWAP1 SUB PUSH1 0x1F AND DUP3 ADD SWAP2 JUMPDEST POP POP POP POP POP DUP2 JUMP JUMPDEST PUSH0 DUP3 DUP3 SWAP1 POP EQ DUP1 PUSH2 0x171 JUMPI POP PUSH1 0x1 PUSH1 0xF8 SHL DUP3 DUP3 PUSH0 DUP2 DUP2 LT PUSH2 0x142 JUMPI PUSH2 0x141 PUSH2 0x46F JUMP JUMPDEST JUMPDEST SWAP1 POP ADD CALLDATALOAD PUSH1 0xF8 SHR PUSH1 0xF8 SHL PUSH31 0xFFFFFFFFFFFFFFFFFFFFFFFFFFFFFFFFFFFFFFFFFFFFFFFFFFFFFFFFFFFFFF NOT AND EQ ISZERO JUMPDEST ISZERO PUSH2 0x1A8 JUMPI PUSH1 0x40 MLOAD PUSH32 0xA4CA16DE00000000000000000000000000000000000000000000000000000000 DUP2 MSTORE PUSH1 0x4 ADD PUSH1 0x40 MLOAD DUP1 SWAP2 SUB SWAP1 REVERT JUMPDEST DUP2 DUP2 PUSH0 DUP1 CALLER PUSH20 0xFFFFFFFFFFFFFFFFFFFFFFFFFFFFFFFFFFFFFFFF AND PUSH20 0xFFFFFFFFFFFFFFFFFFFFFFFFFFFFFFFFFFFFFFFF AND DUP2 MSTORE PUSH1 0x20 ADD SWAP1 DUP2 MSTORE PUSH1 0x20 ADD PUSH0 KECCAK256 SWAP2 DUP3 PUSH2 0x1F3 SWAP3 SWAP2 SWAP1 PUSH2 0x679 JUMP JUMPDEST POP CALLER PUSH20 0xFFFFFFFFFFFFFFFFFFFFFFFFFFFFFFFFFFFFFFFF AND PUSH32 0x4630E4D8EE2366488DE2E4361BB2C5A1EBD888B5590E3F7A70DC072E37D60E91 PUSH1 0x1 DUP1 PUSH1 0x40 MLOAD PUSH2 0x23D SWAP3 SWAP2 SWAP1 PUSH2 0x7FF JUMP JUMPDEST PUSH1 0x40 MLOAD DUP1 SWAP2 SUB SWAP1 LOG2 POP POP JUMP JUMPDEST PUSH0 DUP1 REVERT JUMPDEST PUSH0 DUP1 REVERT JUMPDEST PUSH0 PUSH20 0xFFFFFFFFFFFFFFFFFFFFFFFFFFFFFFFFFFFFFFFF DUP3 AND SWAP1 POP SWAP2 SWAP1 POP JUMP JUMPDEST PUSH0 PUSH2 0x27A DUP3 PUSH2 0x251 JUMP JUMPDEST SWAP1 POP SWAP2 SWAP1 POP JUMP JUMPDEST PUSH2 0x28A DUP2 PUSH2 0x270 JUMP JUMPDEST DUP2 EQ PUSH2 0x294 JUMPI PUSH0 DUP1 REVERT JUMPDEST POP JUMP JUMPDEST PUSH0 DUP2 CALLDATALOAD SWAP1 POP PUSH2 0x2A5 DUP2 PUSH2 0x281 JUMP JUMPDEST SWAP3 SWAP2 POP POP JUMP JUMPDEST PUSH0 PUSH1 0x20 DUP3 DUP5 SUB SLT ISZERO PUSH2 0x2C0 JUMPI PUSH2 0x2BF PUSH2 0x249 JUMP JUMPDEST JUMPDEST PUSH0 PUSH2 0x2CD DUP5 DUP3 DUP6 ADD PUSH2 0x297 JUMP JUMPDEST SWAP2 POP POP SWAP3 SWAP2 POP POP JUMP JUMPDEST PUSH0 DUP2 MLOAD SWAP1 POP SWAP2 SWAP1 POP JUMP JUMPDEST PUSH0 DUP3 DUP3 MSTORE PUSH1 0x20 DUP3 ADD SWAP1 POP SWAP3 SWAP2 POP POP JUMP JUMPDEST DUP3 DUP2 DUP4 MCOPY PUSH0 DUP4 DUP4 ADD MSTORE POP POP POP JUMP JUMPDEST PUSH0 PUSH1 0x1F NOT PUSH1 0x1F DUP4 ADD AND SWAP1 POP SWAP2 SWAP1 POP JUMP JUMPDEST PUSH0 PUSH2 0x318 DUP3 PUSH2 0x2D6 JUMP JUMPDEST PUSH2 0x322 DUP2 DUP6 PUSH2 0x2E0 JUMP JUMPDEST SWAP4 POP PUSH2 0x332 DUP2 DUP6 PUSH1 0x20 DUP7 ADD PUSH2 0x2F0 JUMP JUMPDEST PUSH2 0x33B DUP2 PUSH2 0x2FE JUMP JUMPDEST DUP5 ADD SWAP2 POP POP SWAP3 SWAP2 POP POP JUMP JUMPDEST PUSH0 PUSH1 0x20 DUP3 ADD SWAP1 POP DUP2 DUP2 SUB PUSH0 DUP4 ADD MSTORE PUSH2 0x35E DUP2 DUP5 PUSH2 0x30E JUMP JUMPDEST SWAP1 POP SWAP3 SWAP2 POP POP JUMP JUMPDEST PUSH0 DUP1 REVERT JUMPDEST PUSH0 DUP1 REVERT JUMPDEST PUSH0 DUP1 REVERT JUMPDEST PUSH0 DUP1 DUP4 PUSH1 0x1F DUP5 ADD SLT PUSH2 0x387 JUMPI PUSH2 0x386 PUSH2 0x366 JUMP JUMPDEST JUMPDEST DUP3 CALLDATALOAD SWAP1 POP PUSH8 0xFFFFFFFFFFFFFFFF DUP2 GT ISZERO PUSH2 0x3A4 JUMPI PUSH2 0x3A3 PUSH2 0x36A JUMP JUMPDEST JUMPDEST PUSH1 0x20 DUP4 ADD SWAP2 POP DUP4 PUSH1 0x1 DUP3 MUL DUP4 ADD GT ISZERO PUSH2 0x3C0 JUMPI PUSH2 0x3BF PUSH2 0x36E JUMP JUMPDEST JUMPDEST SWAP3 POP SWAP3 SWAP1 POP JUMP JUMPDEST PUSH0 DUP1 PUSH1 0x20 DUP4 DUP6 SUB SLT ISZERO PUSH2 0x3DD JUMPI PUSH2 0x3DC PUSH2 0x249 JUMP JUMPDEST JUMPDEST PUSH0 DUP4 ADD CALLDATALOAD PUSH8 0xFFFFFFFFFFFFFFFF DUP2 GT ISZERO PUSH2 0x3FA JUMPI PUSH2 0x3F9 PUSH2 0x24D JUMP JUMPDEST JUMPDEST PUSH2 0x406 DUP6 DUP3 DUP7 ADD PUSH2 0x372 JUMP JUMPDEST SWAP3 POP SWAP3 POP POP SWAP3 POP SWAP3 SWAP1 POP JUMP JUMPDEST PUSH32 0x4E487B7100000000000000000000000000000000000000000000000000000000 PUSH0 MSTORE PUSH1 0x22 PUSH1 0x4 MSTORE PUSH1 0x24 PUSH0 REVERT JUMPDEST PUSH0 PUSH1 0x2 DUP3 DIV SWAP1 POP PUSH1 0x1 DUP3 AND DUP1 PUSH2 0x456 JUMPI PUSH1 0x7F DUP3 AND SWAP2 POP JUMPDEST PUSH1 0x20 DUP3 LT DUP2 SUB PUSH2 0x469 JUMPI PUSH2 0x468 PUSH2 0x412 JUMP JUMPDEST JUMPDEST POP SWAP2 SWAP1 POP JUMP JUMPDEST PUSH32 0x4E487B7100000000000000000000000000000000000000000000000000000000 PUSH0 MSTORE PUSH1 0x32 PUSH1 0x4 MSTORE PUSH1 0x24 PUSH0 REVERT JUMPDEST PUSH0 DUP3 SWAP1 POP SWAP3 SWAP2 POP POP JUMP JUMPDEST PUSH32 0x4E487B7100000000000000000000000000000000000000000000000000000000 PUSH0 MSTORE PUSH1 0x41 PUSH1 0x4 MSTORE PUSH1 0x24 PUSH0 REVERT JUMPDEST PUSH0 DUP2 SWAP1 POP DUP2 PUSH0 MSTORE PUSH1 0x20 PUSH0 KECCAK256 SWAP1 POP SWAP2 SWAP1 POP JUMP JUMPDEST PUSH0 PUSH1 0x20 PUSH1 0x1F DUP4 ADD DIV SWAP1 POP SWAP2 SWAP1 POP JUMP JUMPDEST PUSH0 DUP3 DUP3 SHL SWAP1 POP SWAP3 SWAP2 POP POP JUMP JUMPDEST PUSH0 PUSH1 0x8 DUP4 MUL PUSH2 0x52F PUSH32 0xFFFFFFFFFFFFFFFFFFFFFFFFFFFFFFFFFFFFFFFFFFFFFFFFFFFFFFFFFFFFFFFF DUP3 PUSH2 0x4F4 JUMP JUMPDEST PUSH2 0x539 DUP7 DUP4 PUSH2 0x4F4 JUMP JUMPDEST SWAP6 POP DUP1 NOT DUP5 AND SWAP4 POP DUP1 DUP7 AND DUP5 OR SWAP3 POP POP POP SWAP4 SWAP3 POP POP POP JUMP JUMPDEST PUSH0 DUP2 SWAP1 POP SWAP2 SWAP1 POP JUMP JUMPDEST PUSH0 DUP2 SWAP1 POP SWAP2 SWAP1 POP JUMP JUMPDEST PUSH0 PUSH2 0x57D PUSH2 0x578 PUSH2 0x573 DUP5 PUSH2 0x551 JUMP JUMPDEST PUSH2 0x55A JUMP JUMPDEST PUSH2 0x551 JUMP JUMPDEST SWAP1 POP SWAP2 SWAP1 POP JUMP JUMPDEST PUSH0 DUP2 SWAP1 POP SWAP2 SWAP1 POP JUMP JUMPDEST PUSH2 0x596 DUP4 PUSH2 0x563 JUMP JUMPDEST PUSH2 0x5AA PUSH2 0x5A2 DUP3 PUSH2 0x584 JUMP JUMPDEST DUP5 DUP5 SLOAD PUSH2 0x500 JUMP JUMPDEST DUP3 SSTORE POP POP POP POP JUMP JUMPDEST PUSH0 SWAP1 JUMP JUMPDEST PUSH2 0x5BE PUSH2 0x5B2 JUMP JUMPDEST PUSH2 0x5C9 DUP2 DUP5 DUP5 PUSH2 0x58D JUMP JUMPDEST POP POP POP JUMP JUMPDEST JUMPDEST DUP2 DUP2 LT ISZERO PUSH2 0x5EC JUMPI PUSH2 0x5E1 PUSH0 DUP3 PUSH2 0x5B6 JUMP JUMPDEST PUSH1 0x1 DUP2 ADD SWAP1 POP PUSH2 0x5CF JUMP JUMPDEST POP POP JUMP JUMPDEST PUSH1 0x1F DUP3 GT ISZERO PUSH2 0x631 JUMPI PUSH2 0x602 DUP2 PUSH2 0x4D3 JUMP JUMPDEST PUSH2 0x60B DUP5 PUSH2 0x4E5 JUMP JUMPDEST DUP2 ADD PUSH1 0x20 DUP6 LT ISZERO PUSH2 0x61A JUMPI DUP2 SWAP1 POP JUMPDEST PUSH2 0x62E PUSH2 0x626 DUP6 PUSH2 0x4E5 JUMP JUMPDEST DUP4 ADD DUP3 PUSH2 0x5CE JUMP JUMPDEST POP POP JUMPDEST POP POP POP JUMP JUMPDEST PUSH0 DUP3 DUP3 SHR SWAP1 POP SWAP3 SWAP2 POP POP JUMP JUMPDEST PUSH0 PUSH2 0x651 PUSH0 NOT DUP5 PUSH1 0x8 MUL PUSH2 0x636 JUMP JUMPDEST NOT DUP1 DUP4 AND SWAP2 POP POP SWAP3 SWAP2 POP POP JUMP JUMPDEST PUSH0 PUSH2 0x669 DUP4 DUP4 PUSH2 0x642 JUMP JUMPDEST SWAP2 POP DUP3 PUSH1 0x2 MUL DUP3 OR SWAP1 POP SWAP3 SWAP2 POP POP JUMP JUMPDEST PUSH2 0x683 DUP4 DUP4 PUSH2 0x49C JUMP JUMPDEST PUSH8 0xFFFFFFFFFFFFFFFF DUP2 GT ISZERO PUSH2 0x69C JUMPI PUSH2 0x69B PUSH2 0x4A6 JUMP JUMPDEST JUMPDEST PUSH2 0x6A6 DUP3 SLOAD PUSH2 0x43F JUMP JUMPDEST PUSH2 0x6B1 DUP3 DUP3 DUP6 PUSH2 0x5F0 JUMP JUMPDEST PUSH0 PUSH1 0x1F DUP4 GT PUSH1 0x1 DUP2 EQ PUSH2 0x6DE JUMPI PUSH0 DUP5 ISZERO PUSH2 0x6CC JUMPI DUP3 DUP8 ADD CALLDATALOAD SWAP1 POP JUMPDEST PUSH2 0x6D6 DUP6 DUP3 PUSH2 0x65E JUMP JUMPDEST DUP7 SSTORE POP PUSH2 0x73D JUMP JUMPDEST PUSH1 0x1F NOT DUP5 AND PUSH2 0x6EC DUP7 PUSH2 0x4D3 JUMP JUMPDEST PUSH0 JUMPDEST DUP3 DUP2 LT ISZERO PUSH2 0x713 JUMPI DUP5 DUP10 ADD CALLDATALOAD DUP3 SSTORE PUSH1 0x1 DUP3 ADD SWAP2 POP PUSH1 0x20 DUP6 ADD SWAP5 POP PUSH1 0x20 DUP2 ADD SWAP1 POP PUSH2 0x6EE JUMP JUMPDEST DUP7 DUP4 LT ISZERO PUSH2 0x730 JUMPI DUP5 DUP10 ADD CALLDATALOAD PUSH2 0x72C PUSH1 0x1F DUP10 AND DUP3 PUSH2 0x642 JUMP JUMPDEST DUP4 SSTORE POP JUMPDEST PUSH1 0x1 PUSH1 0x2 DUP9 MUL ADD DUP9 SSTORE POP POP POP JUMPDEST POP POP POP POP POP POP POP JUMP JUMPDEST PUSH32 0x4E487B7100000000000000000000000000000000000000000000000000000000 PUSH0 MSTORE PUSH1 0x21 PUSH1 0x4 MSTORE PUSH1 0x24 PUSH0 REVERT JUMPDEST PUSH1 0x4 DUP2 LT PUSH2 0x784 JUMPI PUSH2 0x783 PUSH2 0x746 JUMP JUMPDEST JUMPDEST POP JUMP JUMPDEST PUSH0 DUP2 SWAP1 POP PUSH2 0x794 DUP3 PUSH2 0x773 JUMP JUMPDEST SWAP2 SWAP1 POP JUMP JUMPDEST PUSH0 PUSH2 0x7A3 DUP3 PUSH2 0x787 JUMP JUMPDEST SWAP1 POP SWAP2 SWAP1 POP JUMP JUMPDEST PUSH2 0x7B3 DUP2 PUSH2 0x799 JUMP JUMPDEST DUP3 MSTORE POP POP JUMP JUMPDEST PUSH1 0x4 DUP2 LT PUSH2 0x7CA JUMPI PUSH2 0x7C9 PUSH2 0x746 JUMP JUMPDEST JUMPDEST POP JUMP JUMPDEST PUSH0 DUP2 SWAP1 POP PUSH2 0x7DA DUP3 PUSH2 0x7B9 JUMP JUMPDEST SWAP2 SWAP1 POP JUMP JUMPDEST PUSH0 PUSH2 0x7E9 DUP3 PUSH2 0x7CD JUMP JUMPDEST SWAP1 POP SWAP2 SWAP1 POP JUMP JUMPDEST PUSH2 0x7F9 DUP2 PUSH2 0x7DF JUMP JUMPDEST DUP3 MSTORE POP POP JUMP JUMPDEST PUSH0 PUSH1 0x40 DUP3 ADD SWAP1 POP PUSH2 0x812 PUSH0 DUP4 ADD DUP6 PUSH2 0x7AA JUMP JUMPDEST PUSH2 0x81F PUSH1 0x20 DUP4 ADD DUP5 PUSH2 0x7F0 JUMP JUMPDEST SWAP4 SWAP3 POP POP POP JUMP INVALID LOG2 PUSH5 0x6970667358 0x22 SLT KECCAK256 0xC9 SSTORE PUSH11 0xA0EA8E1671AB02F2689247 JUMPI 0xD4 0x28 0xC5 MULMOD STOP 0xE0 PUSH31 0xD1FFE379FE43B33B181764736F6C634300081A003300000000000000000000 "
				},
				"gasEstimates": {
					"creation": {
						"codeDepositCost": "428000",
						"executionCost": "459",
						"totalCost": "428459"
					},
					"external": {
						"records(address)": "infinite",
						"sendRecord(bytes)": "infinite"
					}
				},
				"methodIdentifiers": {
					"records(address)": "469e9067",
					"sendRecord(bytes)": "daefc20a"
				}
			},
			"storageLayout": {
				"storage": [
					{
						"astId": 203,
						"contract": "T/Transport Layer Security (TLS)/Transport Layer Security (TLS).sol:TLSSafeRecord",
						"label": "records",
						"offset": 0,
						"slot": "0",
						"type": "t_mapping(t_address,t_bytes_storage)"
					}
				],
				"types": {
					"t_address": {
						"encoding": "inplace",
						"label": "address",
						"numberOfBytes": "20"
					},
					"t_bytes_storage": {
						"encoding": "bytes",
						"label": "bytes",
						"numberOfBytes": "32"
					},
					"t_mapping(t_address,t_bytes_storage)": {
						"encoding": "mapping",
						"key": "t_address",
						"label": "mapping(address => bytes)",
						"numberOfBytes": "32",
						"value": "t_bytes_storage"
					}
				}
			},
			"userdoc": {
				"kind": "user",
				"methods": {
					"sendRecord(bytes)": {
						"notice": "✅ require that data is marked “encrypted” (first byte = 0x01)"
					}
				},
				"version": 1
			}
		}
	}
}