{
	"T/Transport Layer Security (TLS)/Transport Layer Security (TLS).sol": {
		"TLSVulnHeartbeat": {
			"abi": [
				{
					"inputs": [
						{
							"internalType": "bytes",
							"name": "payload",
							"type": "bytes"
						},
						{
							"internalType": "uint16",
							"name": "len",
							"type": "uint16"
						}
					],
					"name": "heartbeat",
					"outputs": [],
					"stateMutability": "nonpayable",
					"type": "function"
				},
				{
					"inputs": [],
					"name": "lastPing",
					"outputs": [
						{
							"internalType": "bytes",
							"name": "",
							"type": "bytes"
						}
					],
					"stateMutability": "view",
					"type": "function"
				}
			],
			"devdoc": {
				"kind": "dev",
				"methods": {},
				"version": 1
			},
			"evm": {
				"assembly": "    /* \"T/Transport Layer Security (TLS)/Transport Layer Security (TLS).sol\":3968:4196  contract TLSVulnHeartbeat {... */\n  mstore(0x40, 0x80)\n  callvalue\n  dup1\n  iszero\n  tag_1\n  jumpi\n  0x00\n  dup1\n  revert\ntag_1:\n  pop\n  dataSize(sub_0)\n  dup1\n  dataOffset(sub_0)\n  0x00\n  codecopy\n  0x00\n  return\nstop\n\nsub_0: assembly {\n        /* \"T/Transport Layer Security (TLS)/Transport Layer Security (TLS).sol\":3968:4196  contract TLSVulnHeartbeat {... */\n      mstore(0x40, 0x80)\n      callvalue\n      dup1\n      iszero\n      tag_1\n      jumpi\n      0x00\n      dup1\n      revert\n    tag_1:\n      pop\n      jumpi(tag_2, lt(calldatasize, 0x04))\n      shr(0xe0, calldataload(0x00))\n      dup1\n      0x2760c57e\n      eq\n      tag_3\n      jumpi\n      dup1\n      0x28c21909\n      eq\n      tag_4\n      jumpi\n    tag_2:\n      0x00\n      dup1\n      revert\n        /* \"T/Transport Layer Security (TLS)/Transport Layer Security (TLS).sol\":4000:4021  bytes public lastPing */\n    tag_3:\n      tag_5\n      tag_6\n      jump\t// in\n    tag_5:\n      mload(0x40)\n      tag_7\n      swap2\n      swap1\n      tag_8\n      jump\t// in\n    tag_7:\n      mload(0x40)\n      dup1\n      swap2\n      sub\n      swap1\n      return\n        /* \"T/Transport Layer Security (TLS)/Transport Layer Security (TLS).sol\":4028:4194  function heartbeat(bytes calldata payload, uint16 len) external {... */\n    tag_4:\n      tag_9\n      0x04\n      dup1\n      calldatasize\n      sub\n      dup2\n      add\n      swap1\n      tag_10\n      swap2\n      swap1\n      tag_11\n      jump\t// in\n    tag_10:\n      tag_12\n      jump\t// in\n    tag_9:\n      stop\n        /* \"T/Transport Layer Security (TLS)/Transport Layer Security (TLS).sol\":4000:4021  bytes public lastPing */\n    tag_6:\n      0x00\n      dup1\n      sload\n      tag_13\n      swap1\n      tag_14\n      jump\t// in\n    tag_13:\n      dup1\n      0x1f\n      add\n      0x20\n      dup1\n      swap2\n      div\n      mul\n      0x20\n      add\n      mload(0x40)\n      swap1\n      dup2\n      add\n      0x40\n      mstore\n      dup1\n      swap3\n      swap2\n      swap1\n      dup2\n      dup2\n      mstore\n      0x20\n      add\n      dup3\n      dup1\n      sload\n      tag_15\n      swap1\n      tag_14\n      jump\t// in\n    tag_15:\n      dup1\n      iszero\n      tag_16\n      jumpi\n      dup1\n      0x1f\n      lt\n      tag_17\n      jumpi\n      0x0100\n      dup1\n      dup4\n      sload\n      div\n      mul\n      dup4\n      mstore\n      swap2\n      0x20\n      add\n      swap2\n      jump(tag_16)\n    tag_17:\n      dup3\n      add\n      swap2\n      swap1\n      0x00\n      mstore\n      keccak256(0x00, 0x20)\n      swap1\n    tag_18:\n      dup2\n      sload\n      dup2\n      mstore\n      swap1\n      0x01\n      add\n      swap1\n      0x20\n      add\n      dup1\n      dup4\n      gt\n      tag_18\n      jumpi\n      dup3\n      swap1\n      sub\n      0x1f\n      and\n      dup3\n      add\n      swap2\n    tag_16:\n      pop\n      pop\n      pop\n      pop\n      pop\n      dup2\n      jump\t// out\n        /* \"T/Transport Layer Security (TLS)/Transport Layer Security (TLS).sol\":4028:4194  function heartbeat(bytes calldata payload, uint16 len) external {... */\n    tag_12:\n        /* \"T/Transport Layer Security (TLS)/Transport Layer Security (TLS).sol\":4174:4181  payload */\n      dup3\n      dup3\n        /* \"T/Transport Layer Security (TLS)/Transport Layer Security (TLS).sol\":4174:4187  payload[:len] */\n      0x00\n      swap1\n        /* \"T/Transport Layer Security (TLS)/Transport Layer Security (TLS).sol\":4183:4186  len */\n      dup4\n        /* \"T/Transport Layer Security (TLS)/Transport Layer Security (TLS).sol\":4174:4187  payload[:len] */\n      0xffff\n      and\n      swap3\n      tag_20\n      swap4\n      swap3\n      swap2\n      swap1\n      tag_21\n      jump\t// in\n    tag_20:\n        /* \"T/Transport Layer Security (TLS)/Transport Layer Security (TLS).sol\":4163:4171  lastPing */\n      0x00\n        /* \"T/Transport Layer Security (TLS)/Transport Layer Security (TLS).sol\":4163:4187  lastPing = payload[:len] */\n      swap2\n      dup3\n      tag_22\n      swap3\n      swap2\n      swap1\n      tag_23\n      jump\t// in\n    tag_22:\n      pop\n        /* \"T/Transport Layer Security (TLS)/Transport Layer Security (TLS).sol\":4028:4194  function heartbeat(bytes calldata payload, uint16 len) external {... */\n      pop\n      pop\n      pop\n      jump\t// out\n        /* \"#utility.yul\":7:105   */\n    tag_24:\n        /* \"#utility.yul\":58:64   */\n      0x00\n        /* \"#utility.yul\":92:97   */\n      dup2\n        /* \"#utility.yul\":86:98   */\n      mload\n        /* \"#utility.yul\":76:98   */\n      swap1\n      pop\n        /* \"#utility.yul\":7:105   */\n      swap2\n      swap1\n      pop\n      jump\t// out\n        /* \"#utility.yul\":111:279   */\n    tag_25:\n        /* \"#utility.yul\":194:205   */\n      0x00\n        /* \"#utility.yul\":228:234   */\n      dup3\n        /* \"#utility.yul\":223:226   */\n      dup3\n        /* \"#utility.yul\":216:235   */\n      mstore\n        /* \"#utility.yul\":268:272   */\n      0x20\n        /* \"#utility.yul\":263:266   */\n      dup3\n        /* \"#utility.yul\":259:273   */\n      add\n        /* \"#utility.yul\":244:273   */\n      swap1\n      pop\n        /* \"#utility.yul\":111:279   */\n      swap3\n      swap2\n      pop\n      pop\n      jump\t// out\n        /* \"#utility.yul\":285:424   */\n    tag_26:\n        /* \"#utility.yul\":374:380   */\n      dup3\n        /* \"#utility.yul\":369:372   */\n      dup2\n        /* \"#utility.yul\":364:367   */\n      dup4\n        /* \"#utility.yul\":358:381   */\n      mcopy\n        /* \"#utility.yul\":415:416   */\n      0x00\n        /* \"#utility.yul\":406:412   */\n      dup4\n        /* \"#utility.yul\":401:404   */\n      dup4\n        /* \"#utility.yul\":397:413   */\n      add\n        /* \"#utility.yul\":390:417   */\n      mstore\n        /* \"#utility.yul\":285:424   */\n      pop\n      pop\n      pop\n      jump\t// out\n        /* \"#utility.yul\":430:532   */\n    tag_27:\n        /* \"#utility.yul\":471:477   */\n      0x00\n        /* \"#utility.yul\":522:524   */\n      0x1f\n        /* \"#utility.yul\":518:525   */\n      not\n        /* \"#utility.yul\":513:515   */\n      0x1f\n        /* \"#utility.yul\":506:511   */\n      dup4\n        /* \"#utility.yul\":502:516   */\n      add\n        /* \"#utility.yul\":498:526   */\n      and\n        /* \"#utility.yul\":488:526   */\n      swap1\n      pop\n        /* \"#utility.yul\":430:532   */\n      swap2\n      swap1\n      pop\n      jump\t// out\n        /* \"#utility.yul\":538:911   */\n    tag_28:\n        /* \"#utility.yul\":624:627   */\n      0x00\n        /* \"#utility.yul\":652:690   */\n      tag_66\n        /* \"#utility.yul\":684:689   */\n      dup3\n        /* \"#utility.yul\":652:690   */\n      tag_24\n      jump\t// in\n    tag_66:\n        /* \"#utility.yul\":706:776   */\n      tag_67\n        /* \"#utility.yul\":769:775   */\n      dup2\n        /* \"#utility.yul\":764:767   */\n      dup6\n        /* \"#utility.yul\":706:776   */\n      tag_25\n      jump\t// in\n    tag_67:\n        /* \"#utility.yul\":699:776   */\n      swap4\n      pop\n        /* \"#utility.yul\":785:850   */\n      tag_68\n        /* \"#utility.yul\":843:849   */\n      dup2\n        /* \"#utility.yul\":838:841   */\n      dup6\n        /* \"#utility.yul\":831:835   */\n      0x20\n        /* \"#utility.yul\":824:829   */\n      dup7\n        /* \"#utility.yul\":820:836   */\n      add\n        /* \"#utility.yul\":785:850   */\n      tag_26\n      jump\t// in\n    tag_68:\n        /* \"#utility.yul\":875:904   */\n      tag_69\n        /* \"#utility.yul\":897:903   */\n      dup2\n        /* \"#utility.yul\":875:904   */\n      tag_27\n      jump\t// in\n    tag_69:\n        /* \"#utility.yul\":870:873   */\n      dup5\n        /* \"#utility.yul\":866:905   */\n      add\n        /* \"#utility.yul\":859:905   */\n      swap2\n      pop\n        /* \"#utility.yul\":628:911   */\n      pop\n        /* \"#utility.yul\":538:911   */\n      swap3\n      swap2\n      pop\n      pop\n      jump\t// out\n        /* \"#utility.yul\":917:1226   */\n    tag_8:\n        /* \"#utility.yul\":1028:1032   */\n      0x00\n        /* \"#utility.yul\":1066:1068   */\n      0x20\n        /* \"#utility.yul\":1055:1064   */\n      dup3\n        /* \"#utility.yul\":1051:1069   */\n      add\n        /* \"#utility.yul\":1043:1069   */\n      swap1\n      pop\n        /* \"#utility.yul\":1115:1124   */\n      dup2\n        /* \"#utility.yul\":1109:1113   */\n      dup2\n        /* \"#utility.yul\":1105:1125   */\n      sub\n        /* \"#utility.yul\":1101:1102   */\n      0x00\n        /* \"#utility.yul\":1090:1099   */\n      dup4\n        /* \"#utility.yul\":1086:1103   */\n      add\n        /* \"#utility.yul\":1079:1126   */\n      mstore\n        /* \"#utility.yul\":1143:1219   */\n      tag_71\n        /* \"#utility.yul\":1214:1218   */\n      dup2\n        /* \"#utility.yul\":1205:1211   */\n      dup5\n        /* \"#utility.yul\":1143:1219   */\n      tag_28\n      jump\t// in\n    tag_71:\n        /* \"#utility.yul\":1135:1219   */\n      swap1\n      pop\n        /* \"#utility.yul\":917:1226   */\n      swap3\n      swap2\n      pop\n      pop\n      jump\t// out\n        /* \"#utility.yul\":1313:1430   */\n    tag_30:\n        /* \"#utility.yul\":1422:1423   */\n      0x00\n        /* \"#utility.yul\":1419:1420   */\n      dup1\n        /* \"#utility.yul\":1412:1424   */\n      revert\n        /* \"#utility.yul\":1436:1553   */\n    tag_31:\n        /* \"#utility.yul\":1545:1546   */\n      0x00\n        /* \"#utility.yul\":1542:1543   */\n      dup1\n        /* \"#utility.yul\":1535:1547   */\n      revert\n        /* \"#utility.yul\":1559:1676   */\n    tag_32:\n        /* \"#utility.yul\":1668:1669   */\n      0x00\n        /* \"#utility.yul\":1665:1666   */\n      dup1\n        /* \"#utility.yul\":1658:1670   */\n      revert\n        /* \"#utility.yul\":1682:1799   */\n    tag_33:\n        /* \"#utility.yul\":1791:1792   */\n      0x00\n        /* \"#utility.yul\":1788:1789   */\n      dup1\n        /* \"#utility.yul\":1781:1793   */\n      revert\n        /* \"#utility.yul\":1805:1922   */\n    tag_34:\n        /* \"#utility.yul\":1914:1915   */\n      0x00\n        /* \"#utility.yul\":1911:1912   */\n      dup1\n        /* \"#utility.yul\":1904:1916   */\n      revert\n        /* \"#utility.yul\":1941:2493   */\n    tag_35:\n        /* \"#utility.yul\":1998:2006   */\n      0x00\n        /* \"#utility.yul\":2008:2014   */\n      dup1\n        /* \"#utility.yul\":2058:2061   */\n      dup4\n        /* \"#utility.yul\":2051:2055   */\n      0x1f\n        /* \"#utility.yul\":2043:2049   */\n      dup5\n        /* \"#utility.yul\":2039:2056   */\n      add\n        /* \"#utility.yul\":2035:2062   */\n      slt\n        /* \"#utility.yul\":2025:2147   */\n      tag_79\n      jumpi\n        /* \"#utility.yul\":2066:2145   */\n      tag_80\n      tag_32\n      jump\t// in\n    tag_80:\n        /* \"#utility.yul\":2025:2147   */\n    tag_79:\n        /* \"#utility.yul\":2179:2185   */\n      dup3\n        /* \"#utility.yul\":2166:2186   */\n      calldataload\n        /* \"#utility.yul\":2156:2186   */\n      swap1\n      pop\n        /* \"#utility.yul\":2209:2227   */\n      0xffffffffffffffff\n        /* \"#utility.yul\":2201:2207   */\n      dup2\n        /* \"#utility.yul\":2198:2228   */\n      gt\n        /* \"#utility.yul\":2195:2312   */\n      iszero\n      tag_81\n      jumpi\n        /* \"#utility.yul\":2231:2310   */\n      tag_82\n      tag_33\n      jump\t// in\n    tag_82:\n        /* \"#utility.yul\":2195:2312   */\n    tag_81:\n        /* \"#utility.yul\":2345:2349   */\n      0x20\n        /* \"#utility.yul\":2337:2343   */\n      dup4\n        /* \"#utility.yul\":2333:2350   */\n      add\n        /* \"#utility.yul\":2321:2350   */\n      swap2\n      pop\n        /* \"#utility.yul\":2399:2402   */\n      dup4\n        /* \"#utility.yul\":2391:2395   */\n      0x01\n        /* \"#utility.yul\":2383:2389   */\n      dup3\n        /* \"#utility.yul\":2379:2396   */\n      mul\n        /* \"#utility.yul\":2369:2377   */\n      dup4\n        /* \"#utility.yul\":2365:2397   */\n      add\n        /* \"#utility.yul\":2362:2403   */\n      gt\n        /* \"#utility.yul\":2359:2487   */\n      iszero\n      tag_83\n      jumpi\n        /* \"#utility.yul\":2406:2485   */\n      tag_84\n      tag_34\n      jump\t// in\n    tag_84:\n        /* \"#utility.yul\":2359:2487   */\n    tag_83:\n        /* \"#utility.yul\":1941:2493   */\n      swap3\n      pop\n      swap3\n      swap1\n      pop\n      jump\t// out\n        /* \"#utility.yul\":2499:2588   */\n    tag_36:\n        /* \"#utility.yul\":2535:2542   */\n      0x00\n        /* \"#utility.yul\":2575:2581   */\n      0xffff\n        /* \"#utility.yul\":2568:2573   */\n      dup3\n        /* \"#utility.yul\":2564:2582   */\n      and\n        /* \"#utility.yul\":2553:2582   */\n      swap1\n      pop\n        /* \"#utility.yul\":2499:2588   */\n      swap2\n      swap1\n      pop\n      jump\t// out\n        /* \"#utility.yul\":2594:2714   */\n    tag_37:\n        /* \"#utility.yul\":2666:2689   */\n      tag_87\n        /* \"#utility.yul\":2683:2688   */\n      dup2\n        /* \"#utility.yul\":2666:2689   */\n      tag_36\n      jump\t// in\n    tag_87:\n        /* \"#utility.yul\":2659:2664   */\n      dup2\n        /* \"#utility.yul\":2656:2690   */\n      eq\n        /* \"#utility.yul\":2646:2708   */\n      tag_88\n      jumpi\n        /* \"#utility.yul\":2704:2705   */\n      0x00\n        /* \"#utility.yul\":2701:2702   */\n      dup1\n        /* \"#utility.yul\":2694:2706   */\n      revert\n        /* \"#utility.yul\":2646:2708   */\n    tag_88:\n        /* \"#utility.yul\":2594:2714   */\n      pop\n      jump\t// out\n        /* \"#utility.yul\":2720:2857   */\n    tag_38:\n        /* \"#utility.yul\":2765:2770   */\n      0x00\n        /* \"#utility.yul\":2803:2809   */\n      dup2\n        /* \"#utility.yul\":2790:2810   */\n      calldataload\n        /* \"#utility.yul\":2781:2810   */\n      swap1\n      pop\n        /* \"#utility.yul\":2819:2851   */\n      tag_90\n        /* \"#utility.yul\":2845:2850   */\n      dup2\n        /* \"#utility.yul\":2819:2851   */\n      tag_37\n      jump\t// in\n    tag_90:\n        /* \"#utility.yul\":2720:2857   */\n      swap3\n      swap2\n      pop\n      pop\n      jump\t// out\n        /* \"#utility.yul\":2863:3533   */\n    tag_11:\n        /* \"#utility.yul\":2941:2947   */\n      0x00\n        /* \"#utility.yul\":2949:2955   */\n      dup1\n        /* \"#utility.yul\":2957:2963   */\n      0x00\n        /* \"#utility.yul\":3006:3008   */\n      0x40\n        /* \"#utility.yul\":2994:3003   */\n      dup5\n        /* \"#utility.yul\":2985:2992   */\n      dup7\n        /* \"#utility.yul\":2981:3004   */\n      sub\n        /* \"#utility.yul\":2977:3009   */\n      slt\n        /* \"#utility.yul\":2974:3093   */\n      iszero\n      tag_92\n      jumpi\n        /* \"#utility.yul\":3012:3091   */\n      tag_93\n      tag_30\n      jump\t// in\n    tag_93:\n        /* \"#utility.yul\":2974:3093   */\n    tag_92:\n        /* \"#utility.yul\":3160:3161   */\n      0x00\n        /* \"#utility.yul\":3149:3158   */\n      dup5\n        /* \"#utility.yul\":3145:3162   */\n      add\n        /* \"#utility.yul\":3132:3163   */\n      calldataload\n        /* \"#utility.yul\":3190:3208   */\n      0xffffffffffffffff\n        /* \"#utility.yul\":3182:3188   */\n      dup2\n        /* \"#utility.yul\":3179:3209   */\n      gt\n        /* \"#utility.yul\":3176:3293   */\n      iszero\n      tag_94\n      jumpi\n        /* \"#utility.yul\":3212:3291   */\n      tag_95\n      tag_31\n      jump\t// in\n    tag_95:\n        /* \"#utility.yul\":3176:3293   */\n    tag_94:\n        /* \"#utility.yul\":3325:3389   */\n      tag_96\n        /* \"#utility.yul\":3381:3388   */\n      dup7\n        /* \"#utility.yul\":3372:3378   */\n      dup3\n        /* \"#utility.yul\":3361:3370   */\n      dup8\n        /* \"#utility.yul\":3357:3379   */\n      add\n        /* \"#utility.yul\":3325:3389   */\n      tag_35\n      jump\t// in\n    tag_96:\n        /* \"#utility.yul\":3307:3389   */\n      swap4\n      pop\n      swap4\n      pop\n        /* \"#utility.yul\":3103:3399   */\n      pop\n        /* \"#utility.yul\":3438:3440   */\n      0x20\n        /* \"#utility.yul\":3464:3516   */\n      tag_97\n        /* \"#utility.yul\":3508:3515   */\n      dup7\n        /* \"#utility.yul\":3499:3505   */\n      dup3\n        /* \"#utility.yul\":3488:3497   */\n      dup8\n        /* \"#utility.yul\":3484:3506   */\n      add\n        /* \"#utility.yul\":3464:3516   */\n      tag_38\n      jump\t// in\n    tag_97:\n        /* \"#utility.yul\":3454:3516   */\n      swap2\n      pop\n        /* \"#utility.yul\":3409:3526   */\n      pop\n        /* \"#utility.yul\":2863:3533   */\n      swap3\n      pop\n      swap3\n      pop\n      swap3\n      jump\t// out\n        /* \"#utility.yul\":3539:3719   */\n    tag_39:\n        /* \"#utility.yul\":3587:3664   */\n      0x4e487b7100000000000000000000000000000000000000000000000000000000\n        /* \"#utility.yul\":3584:3585   */\n      0x00\n        /* \"#utility.yul\":3577:3665   */\n      mstore\n        /* \"#utility.yul\":3684:3688   */\n      0x22\n        /* \"#utility.yul\":3681:3682   */\n      0x04\n        /* \"#utility.yul\":3674:3689   */\n      mstore\n        /* \"#utility.yul\":3708:3712   */\n      0x24\n        /* \"#utility.yul\":3705:3706   */\n      0x00\n        /* \"#utility.yul\":3698:3713   */\n      revert\n        /* \"#utility.yul\":3725:4045   */\n    tag_14:\n        /* \"#utility.yul\":3769:3775   */\n      0x00\n        /* \"#utility.yul\":3806:3807   */\n      0x02\n        /* \"#utility.yul\":3800:3804   */\n      dup3\n        /* \"#utility.yul\":3796:3808   */\n      div\n        /* \"#utility.yul\":3786:3808   */\n      swap1\n      pop\n        /* \"#utility.yul\":3853:3854   */\n      0x01\n        /* \"#utility.yul\":3847:3851   */\n      dup3\n        /* \"#utility.yul\":3843:3855   */\n      and\n        /* \"#utility.yul\":3874:3892   */\n      dup1\n        /* \"#utility.yul\":3864:3945   */\n      tag_100\n      jumpi\n        /* \"#utility.yul\":3930:3934   */\n      0x7f\n        /* \"#utility.yul\":3922:3928   */\n      dup3\n        /* \"#utility.yul\":3918:3935   */\n      and\n        /* \"#utility.yul\":3908:3935   */\n      swap2\n      pop\n        /* \"#utility.yul\":3864:3945   */\n    tag_100:\n        /* \"#utility.yul\":3992:3994   */\n      0x20\n        /* \"#utility.yul\":3984:3990   */\n      dup3\n        /* \"#utility.yul\":3981:3995   */\n      lt\n        /* \"#utility.yul\":3961:3979   */\n      dup2\n        /* \"#utility.yul\":3958:3996   */\n      sub\n        /* \"#utility.yul\":3955:4039   */\n      tag_101\n      jumpi\n        /* \"#utility.yul\":4011:4029   */\n      tag_102\n      tag_39\n      jump\t// in\n    tag_102:\n        /* \"#utility.yul\":3955:4039   */\n    tag_101:\n        /* \"#utility.yul\":3776:4045   */\n      pop\n        /* \"#utility.yul\":3725:4045   */\n      swap2\n      swap1\n      pop\n      jump\t// out\n        /* \"#utility.yul\":4051:4168   */\n    tag_40:\n        /* \"#utility.yul\":4160:4161   */\n      0x00\n        /* \"#utility.yul\":4157:4158   */\n      dup1\n        /* \"#utility.yul\":4150:4162   */\n      revert\n        /* \"#utility.yul\":4174:4291   */\n    tag_41:\n        /* \"#utility.yul\":4283:4284   */\n      0x00\n        /* \"#utility.yul\":4280:4281   */\n      dup1\n        /* \"#utility.yul\":4273:4285   */\n      revert\n        /* \"#utility.yul\":4297:4766   */\n    tag_21:\n        /* \"#utility.yul\":4402:4411   */\n      0x00\n        /* \"#utility.yul\":4413:4422   */\n      dup1\n        /* \"#utility.yul\":4451:4459   */\n      dup6\n        /* \"#utility.yul\":4439:4449   */\n      dup6\n        /* \"#utility.yul\":4436:4460   */\n      gt\n        /* \"#utility.yul\":4433:4544   */\n      iszero\n      tag_106\n      jumpi\n        /* \"#utility.yul\":4463:4542   */\n      tag_107\n      tag_40\n      jump\t// in\n    tag_107:\n        /* \"#utility.yul\":4433:4544   */\n    tag_106:\n        /* \"#utility.yul\":4569:4575   */\n      dup4\n        /* \"#utility.yul\":4559:4567   */\n      dup7\n        /* \"#utility.yul\":4556:4576   */\n      gt\n        /* \"#utility.yul\":4553:4660   */\n      iszero\n      tag_108\n      jumpi\n        /* \"#utility.yul\":4579:4658   */\n      tag_109\n      tag_41\n      jump\t// in\n    tag_109:\n        /* \"#utility.yul\":4553:4660   */\n    tag_108:\n        /* \"#utility.yul\":4710:4711   */\n      0x01\n        /* \"#utility.yul\":4698:4708   */\n      dup6\n        /* \"#utility.yul\":4694:4712   */\n      mul\n        /* \"#utility.yul\":4686:4692   */\n      dup4\n        /* \"#utility.yul\":4682:4713   */\n      add\n        /* \"#utility.yul\":4669:4713   */\n      swap2\n      pop\n        /* \"#utility.yul\":4749:4759   */\n      dup5\n        /* \"#utility.yul\":4739:4747   */\n      dup7\n        /* \"#utility.yul\":4735:4760   */\n      sub\n        /* \"#utility.yul\":4722:4760   */\n      swap1\n      pop\n        /* \"#utility.yul\":4297:4766   */\n      swap5\n      pop\n      swap5\n      swap3\n      pop\n      pop\n      pop\n      jump\t// out\n        /* \"#utility.yul\":4772:4868   */\n    tag_42:\n        /* \"#utility.yul\":4830:4836   */\n      0x00\n        /* \"#utility.yul\":4858:4861   */\n      dup3\n        /* \"#utility.yul\":4848:4861   */\n      swap1\n      pop\n        /* \"#utility.yul\":4772:4868   */\n      swap3\n      swap2\n      pop\n      pop\n      jump\t// out\n        /* \"#utility.yul\":4874:5054   */\n    tag_43:\n        /* \"#utility.yul\":4922:4999   */\n      0x4e487b7100000000000000000000000000000000000000000000000000000000\n        /* \"#utility.yul\":4919:4920   */\n      0x00\n        /* \"#utility.yul\":4912:5000   */\n      mstore\n        /* \"#utility.yul\":5019:5023   */\n      0x41\n        /* \"#utility.yul\":5016:5017   */\n      0x04\n        /* \"#utility.yul\":5009:5024   */\n      mstore\n        /* \"#utility.yul\":5043:5047   */\n      0x24\n        /* \"#utility.yul\":5040:5041   */\n      0x00\n        /* \"#utility.yul\":5033:5048   */\n      revert\n        /* \"#utility.yul\":5060:5200   */\n    tag_44:\n        /* \"#utility.yul\":5108:5112   */\n      0x00\n        /* \"#utility.yul\":5131:5134   */\n      dup2\n        /* \"#utility.yul\":5123:5134   */\n      swap1\n      pop\n        /* \"#utility.yul\":5154:5157   */\n      dup2\n        /* \"#utility.yul\":5151:5152   */\n      0x00\n        /* \"#utility.yul\":5144:5158   */\n      mstore\n        /* \"#utility.yul\":5188:5192   */\n      0x20\n        /* \"#utility.yul\":5185:5186   */\n      0x00\n        /* \"#utility.yul\":5175:5193   */\n      keccak256\n        /* \"#utility.yul\":5167:5193   */\n      swap1\n      pop\n        /* \"#utility.yul\":5060:5200   */\n      swap2\n      swap1\n      pop\n      jump\t// out\n        /* \"#utility.yul\":5206:5299   */\n    tag_45:\n        /* \"#utility.yul\":5243:5249   */\n      0x00\n        /* \"#utility.yul\":5290:5292   */\n      0x20\n        /* \"#utility.yul\":5285:5287   */\n      0x1f\n        /* \"#utility.yul\":5278:5283   */\n      dup4\n        /* \"#utility.yul\":5274:5288   */\n      add\n        /* \"#utility.yul\":5270:5293   */\n      div\n        /* \"#utility.yul\":5260:5293   */\n      swap1\n      pop\n        /* \"#utility.yul\":5206:5299   */\n      swap2\n      swap1\n      pop\n      jump\t// out\n        /* \"#utility.yul\":5305:5412   */\n    tag_46:\n        /* \"#utility.yul\":5349:5357   */\n      0x00\n        /* \"#utility.yul\":5399:5404   */\n      dup3\n        /* \"#utility.yul\":5393:5397   */\n      dup3\n        /* \"#utility.yul\":5389:5405   */\n      shl\n        /* \"#utility.yul\":5368:5405   */\n      swap1\n      pop\n        /* \"#utility.yul\":5305:5412   */\n      swap3\n      swap2\n      pop\n      pop\n      jump\t// out\n        /* \"#utility.yul\":5418:5811   */\n    tag_47:\n        /* \"#utility.yul\":5487:5493   */\n      0x00\n        /* \"#utility.yul\":5537:5538   */\n      0x08\n        /* \"#utility.yul\":5525:5535   */\n      dup4\n        /* \"#utility.yul\":5521:5539   */\n      mul\n        /* \"#utility.yul\":5560:5657   */\n      tag_116\n        /* \"#utility.yul\":5590:5656   */\n      0xffffffffffffffffffffffffffffffffffffffffffffffffffffffffffffffff\n        /* \"#utility.yul\":5579:5588   */\n      dup3\n        /* \"#utility.yul\":5560:5657   */\n      tag_46\n      jump\t// in\n    tag_116:\n        /* \"#utility.yul\":5678:5717   */\n      tag_117\n        /* \"#utility.yul\":5708:5716   */\n      dup7\n        /* \"#utility.yul\":5697:5706   */\n      dup4\n        /* \"#utility.yul\":5678:5717   */\n      tag_46\n      jump\t// in\n    tag_117:\n        /* \"#utility.yul\":5666:5717   */\n      swap6\n      pop\n        /* \"#utility.yul\":5750:5754   */\n      dup1\n        /* \"#utility.yul\":5746:5755   */\n      not\n        /* \"#utility.yul\":5739:5744   */\n      dup5\n        /* \"#utility.yul\":5735:5756   */\n      and\n        /* \"#utility.yul\":5726:5756   */\n      swap4\n      pop\n        /* \"#utility.yul\":5799:5803   */\n      dup1\n        /* \"#utility.yul\":5789:5797   */\n      dup7\n        /* \"#utility.yul\":5785:5804   */\n      and\n        /* \"#utility.yul\":5778:5783   */\n      dup5\n        /* \"#utility.yul\":5775:5805   */\n      or\n        /* \"#utility.yul\":5765:5805   */\n      swap3\n      pop\n        /* \"#utility.yul\":5494:5811   */\n      pop\n      pop\n        /* \"#utility.yul\":5418:5811   */\n      swap4\n      swap3\n      pop\n      pop\n      pop\n      jump\t// out\n        /* \"#utility.yul\":5817:5894   */\n    tag_48:\n        /* \"#utility.yul\":5854:5861   */\n      0x00\n        /* \"#utility.yul\":5883:5888   */\n      dup2\n        /* \"#utility.yul\":5872:5888   */\n      swap1\n      pop\n        /* \"#utility.yul\":5817:5894   */\n      swap2\n      swap1\n      pop\n      jump\t// out\n        /* \"#utility.yul\":5900:5960   */\n    tag_49:\n        /* \"#utility.yul\":5928:5931   */\n      0x00\n        /* \"#utility.yul\":5949:5954   */\n      dup2\n        /* \"#utility.yul\":5942:5954   */\n      swap1\n      pop\n        /* \"#utility.yul\":5900:5960   */\n      swap2\n      swap1\n      pop\n      jump\t// out\n        /* \"#utility.yul\":5966:6108   */\n    tag_50:\n        /* \"#utility.yul\":6016:6025   */\n      0x00\n        /* \"#utility.yul\":6049:6102   */\n      tag_121\n        /* \"#utility.yul\":6067:6101   */\n      tag_122\n        /* \"#utility.yul\":6076:6100   */\n      tag_123\n        /* \"#utility.yul\":6094:6099   */\n      dup5\n        /* \"#utility.yul\":6076:6100   */\n      tag_48\n      jump\t// in\n    tag_123:\n        /* \"#utility.yul\":6067:6101   */\n      tag_49\n      jump\t// in\n    tag_122:\n        /* \"#utility.yul\":6049:6102   */\n      tag_48\n      jump\t// in\n    tag_121:\n        /* \"#utility.yul\":6036:6102   */\n      swap1\n      pop\n        /* \"#utility.yul\":5966:6108   */\n      swap2\n      swap1\n      pop\n      jump\t// out\n        /* \"#utility.yul\":6114:6189   */\n    tag_51:\n        /* \"#utility.yul\":6157:6160   */\n      0x00\n        /* \"#utility.yul\":6178:6183   */\n      dup2\n        /* \"#utility.yul\":6171:6183   */\n      swap1\n      pop\n        /* \"#utility.yul\":6114:6189   */\n      swap2\n      swap1\n      pop\n      jump\t// out\n        /* \"#utility.yul\":6195:6464   */\n    tag_52:\n        /* \"#utility.yul\":6305:6344   */\n      tag_126\n        /* \"#utility.yul\":6336:6343   */\n      dup4\n        /* \"#utility.yul\":6305:6344   */\n      tag_50\n      jump\t// in\n    tag_126:\n        /* \"#utility.yul\":6366:6457   */\n      tag_127\n        /* \"#utility.yul\":6415:6456   */\n      tag_128\n        /* \"#utility.yul\":6439:6455   */\n      dup3\n        /* \"#utility.yul\":6415:6456   */\n      tag_51\n      jump\t// in\n    tag_128:\n        /* \"#utility.yul\":6407:6413   */\n      dup5\n        /* \"#utility.yul\":6400:6404   */\n      dup5\n        /* \"#utility.yul\":6394:6405   */\n      sload\n        /* \"#utility.yul\":6366:6457   */\n      tag_47\n      jump\t// in\n    tag_127:\n        /* \"#utility.yul\":6360:6364   */\n      dup3\n        /* \"#utility.yul\":6353:6458   */\n      sstore\n        /* \"#utility.yul\":6271:6464   */\n      pop\n        /* \"#utility.yul\":6195:6464   */\n      pop\n      pop\n      pop\n      jump\t// out\n        /* \"#utility.yul\":6470:6543   */\n    tag_53:\n        /* \"#utility.yul\":6515:6518   */\n      0x00\n        /* \"#utility.yul\":6470:6543   */\n      swap1\n      jump\t// out\n        /* \"#utility.yul\":6549:6738   */\n    tag_54:\n        /* \"#utility.yul\":6626:6658   */\n      tag_131\n      tag_53\n      jump\t// in\n    tag_131:\n        /* \"#utility.yul\":6667:6732   */\n      tag_132\n        /* \"#utility.yul\":6725:6731   */\n      dup2\n        /* \"#utility.yul\":6717:6723   */\n      dup5\n        /* \"#utility.yul\":6711:6715   */\n      dup5\n        /* \"#utility.yul\":6667:6732   */\n      tag_52\n      jump\t// in\n    tag_132:\n        /* \"#utility.yul\":6602:6738   */\n      pop\n        /* \"#utility.yul\":6549:6738   */\n      pop\n      pop\n      jump\t// out\n        /* \"#utility.yul\":6744:6930   */\n    tag_55:\n        /* \"#utility.yul\":6804:6924   */\n    tag_134:\n        /* \"#utility.yul\":6821:6824   */\n      dup2\n        /* \"#utility.yul\":6814:6819   */\n      dup2\n        /* \"#utility.yul\":6811:6825   */\n      lt\n        /* \"#utility.yul\":6804:6924   */\n      iszero\n      tag_136\n      jumpi\n        /* \"#utility.yul\":6875:6914   */\n      tag_137\n        /* \"#utility.yul\":6912:6913   */\n      0x00\n        /* \"#utility.yul\":6905:6910   */\n      dup3\n        /* \"#utility.yul\":6875:6914   */\n      tag_54\n      jump\t// in\n    tag_137:\n        /* \"#utility.yul\":6848:6849   */\n      0x01\n        /* \"#utility.yul\":6841:6846   */\n      dup2\n        /* \"#utility.yul\":6837:6850   */\n      add\n        /* \"#utility.yul\":6828:6850   */\n      swap1\n      pop\n        /* \"#utility.yul\":6804:6924   */\n      jump(tag_134)\n    tag_136:\n        /* \"#utility.yul\":6744:6930   */\n      pop\n      pop\n      jump\t// out\n        /* \"#utility.yul\":6936:7477   */\n    tag_56:\n        /* \"#utility.yul\":7036:7038   */\n      0x1f\n        /* \"#utility.yul\":7031:7034   */\n      dup3\n        /* \"#utility.yul\":7028:7039   */\n      gt\n        /* \"#utility.yul\":7025:7470   */\n      iszero\n      tag_139\n      jumpi\n        /* \"#utility.yul\":7070:7107   */\n      tag_140\n        /* \"#utility.yul\":7101:7106   */\n      dup2\n        /* \"#utility.yul\":7070:7107   */\n      tag_44\n      jump\t// in\n    tag_140:\n        /* \"#utility.yul\":7153:7182   */\n      tag_141\n        /* \"#utility.yul\":7171:7181   */\n      dup5\n        /* \"#utility.yul\":7153:7182   */\n      tag_45\n      jump\t// in\n    tag_141:\n        /* \"#utility.yul\":7143:7151   */\n      dup2\n        /* \"#utility.yul\":7139:7183   */\n      add\n        /* \"#utility.yul\":7336:7338   */\n      0x20\n        /* \"#utility.yul\":7324:7334   */\n      dup6\n        /* \"#utility.yul\":7321:7339   */\n      lt\n        /* \"#utility.yul\":7318:7367   */\n      iszero\n      tag_142\n      jumpi\n        /* \"#utility.yul\":7357:7365   */\n      dup2\n        /* \"#utility.yul\":7342:7365   */\n      swap1\n      pop\n        /* \"#utility.yul\":7318:7367   */\n    tag_142:\n        /* \"#utility.yul\":7380:7460   */\n      tag_143\n        /* \"#utility.yul\":7436:7458   */\n      tag_144\n        /* \"#utility.yul\":7454:7457   */\n      dup6\n        /* \"#utility.yul\":7436:7458   */\n      tag_45\n      jump\t// in\n    tag_144:\n        /* \"#utility.yul\":7426:7434   */\n      dup4\n        /* \"#utility.yul\":7422:7459   */\n      add\n        /* \"#utility.yul\":7409:7420   */\n      dup3\n        /* \"#utility.yul\":7380:7460   */\n      tag_55\n      jump\t// in\n    tag_143:\n        /* \"#utility.yul\":7040:7470   */\n      pop\n      pop\n        /* \"#utility.yul\":7025:7470   */\n    tag_139:\n        /* \"#utility.yul\":6936:7477   */\n      pop\n      pop\n      pop\n      jump\t// out\n        /* \"#utility.yul\":7483:7600   */\n    tag_57:\n        /* \"#utility.yul\":7537:7545   */\n      0x00\n        /* \"#utility.yul\":7587:7592   */\n      dup3\n        /* \"#utility.yul\":7581:7585   */\n      dup3\n        /* \"#utility.yul\":7577:7593   */\n      shr\n        /* \"#utility.yul\":7556:7593   */\n      swap1\n      pop\n        /* \"#utility.yul\":7483:7600   */\n      swap3\n      swap2\n      pop\n      pop\n      jump\t// out\n        /* \"#utility.yul\":7606:7775   */\n    tag_58:\n        /* \"#utility.yul\":7650:7656   */\n      0x00\n        /* \"#utility.yul\":7683:7734   */\n      tag_147\n        /* \"#utility.yul\":7731:7732   */\n      0x00\n        /* \"#utility.yul\":7727:7733   */\n      not\n        /* \"#utility.yul\":7719:7724   */\n      dup5\n        /* \"#utility.yul\":7716:7717   */\n      0x08\n        /* \"#utility.yul\":7712:7725   */\n      mul\n        /* \"#utility.yul\":7683:7734   */\n      tag_57\n      jump\t// in\n    tag_147:\n        /* \"#utility.yul\":7679:7735   */\n      not\n        /* \"#utility.yul\":7764:7768   */\n      dup1\n        /* \"#utility.yul\":7758:7762   */\n      dup4\n        /* \"#utility.yul\":7754:7769   */\n      and\n        /* \"#utility.yul\":7744:7769   */\n      swap2\n      pop\n        /* \"#utility.yul\":7657:7775   */\n      pop\n        /* \"#utility.yul\":7606:7775   */\n      swap3\n      swap2\n      pop\n      pop\n      jump\t// out\n        /* \"#utility.yul\":7780:8075   */\n    tag_59:\n        /* \"#utility.yul\":7856:7860   */\n      0x00\n        /* \"#utility.yul\":8002:8031   */\n      tag_149\n        /* \"#utility.yul\":8027:8030   */\n      dup4\n        /* \"#utility.yul\":8021:8025   */\n      dup4\n        /* \"#utility.yul\":8002:8031   */\n      tag_58\n      jump\t// in\n    tag_149:\n        /* \"#utility.yul\":7994:8031   */\n      swap2\n      pop\n        /* \"#utility.yul\":8064:8067   */\n      dup3\n        /* \"#utility.yul\":8061:8062   */\n      0x02\n        /* \"#utility.yul\":8057:8068   */\n      mul\n        /* \"#utility.yul\":8051:8055   */\n      dup3\n        /* \"#utility.yul\":8048:8069   */\n      or\n        /* \"#utility.yul\":8040:8069   */\n      swap1\n      pop\n        /* \"#utility.yul\":7780:8075   */\n      swap3\n      swap2\n      pop\n      pop\n      jump\t// out\n        /* \"#utility.yul\":8080:9478   */\n    tag_23:\n        /* \"#utility.yul\":8202:8245   */\n      tag_151\n        /* \"#utility.yul\":8241:8244   */\n      dup4\n        /* \"#utility.yul\":8236:8239   */\n      dup4\n        /* \"#utility.yul\":8202:8245   */\n      tag_42\n      jump\t// in\n    tag_151:\n        /* \"#utility.yul\":8310:8328   */\n      0xffffffffffffffff\n        /* \"#utility.yul\":8302:8308   */\n      dup2\n        /* \"#utility.yul\":8299:8329   */\n      gt\n        /* \"#utility.yul\":8296:8352   */\n      iszero\n      tag_152\n      jumpi\n        /* \"#utility.yul\":8332:8350   */\n      tag_153\n      tag_43\n      jump\t// in\n    tag_153:\n        /* \"#utility.yul\":8296:8352   */\n    tag_152:\n        /* \"#utility.yul\":8376:8414   */\n      tag_154\n        /* \"#utility.yul\":8408:8412   */\n      dup3\n        /* \"#utility.yul\":8402:8413   */\n      sload\n        /* \"#utility.yul\":8376:8414   */\n      tag_14\n      jump\t// in\n    tag_154:\n        /* \"#utility.yul\":8461:8527   */\n      tag_155\n        /* \"#utility.yul\":8520:8526   */\n      dup3\n        /* \"#utility.yul\":8512:8518   */\n      dup3\n        /* \"#utility.yul\":8506:8510   */\n      dup6\n        /* \"#utility.yul\":8461:8527   */\n      tag_56\n      jump\t// in\n    tag_155:\n        /* \"#utility.yul\":8554:8555   */\n      0x00\n        /* \"#utility.yul\":8583:8585   */\n      0x1f\n        /* \"#utility.yul\":8575:8581   */\n      dup4\n        /* \"#utility.yul\":8572:8586   */\n      gt\n        /* \"#utility.yul\":8600:8601   */\n      0x01\n        /* \"#utility.yul\":8595:9226   */\n      dup2\n      eq\n      tag_157\n      jumpi\n        /* \"#utility.yul\":9270:9271   */\n      0x00\n        /* \"#utility.yul\":9287:9293   */\n      dup5\n        /* \"#utility.yul\":9284:9368   */\n      iszero\n      tag_158\n      jumpi\n        /* \"#utility.yul\":9343:9352   */\n      dup3\n        /* \"#utility.yul\":9338:9341   */\n      dup8\n        /* \"#utility.yul\":9334:9353   */\n      add\n        /* \"#utility.yul\":9321:9354   */\n      calldataload\n        /* \"#utility.yul\":9312:9354   */\n      swap1\n      pop\n        /* \"#utility.yul\":9284:9368   */\n    tag_158:\n        /* \"#utility.yul\":9394:9461   */\n      tag_159\n        /* \"#utility.yul\":9454:9460   */\n      dup6\n        /* \"#utility.yul\":9447:9452   */\n      dup3\n        /* \"#utility.yul\":9394:9461   */\n      tag_59\n      jump\t// in\n    tag_159:\n        /* \"#utility.yul\":9388:9392   */\n      dup7\n        /* \"#utility.yul\":9381:9462   */\n      sstore\n        /* \"#utility.yul\":9243:9472   */\n      pop\n        /* \"#utility.yul\":8565:9472   */\n      jump(tag_156)\n        /* \"#utility.yul\":8595:9226   */\n    tag_157:\n        /* \"#utility.yul\":8647:8651   */\n      0x1f\n        /* \"#utility.yul\":8643:8652   */\n      not\n        /* \"#utility.yul\":8635:8641   */\n      dup5\n        /* \"#utility.yul\":8631:8653   */\n      and\n        /* \"#utility.yul\":8681:8717   */\n      tag_160\n        /* \"#utility.yul\":8712:8716   */\n      dup7\n        /* \"#utility.yul\":8681:8717   */\n      tag_44\n      jump\t// in\n    tag_160:\n        /* \"#utility.yul\":8739:8740   */\n      0x00\n        /* \"#utility.yul\":8753:8968   */\n    tag_161:\n        /* \"#utility.yul\":8767:8774   */\n      dup3\n        /* \"#utility.yul\":8764:8765   */\n      dup2\n        /* \"#utility.yul\":8761:8775   */\n      lt\n        /* \"#utility.yul\":8753:8968   */\n      iszero\n      tag_163\n      jumpi\n        /* \"#utility.yul\":8853:8862   */\n      dup5\n        /* \"#utility.yul\":8848:8851   */\n      dup10\n        /* \"#utility.yul\":8844:8863   */\n      add\n        /* \"#utility.yul\":8831:8864   */\n      calldataload\n        /* \"#utility.yul\":8823:8829   */\n      dup3\n        /* \"#utility.yul\":8816:8865   */\n      sstore\n        /* \"#utility.yul\":8904:8905   */\n      0x01\n        /* \"#utility.yul\":8896:8902   */\n      dup3\n        /* \"#utility.yul\":8892:8906   */\n      add\n        /* \"#utility.yul\":8882:8906   */\n      swap2\n      pop\n        /* \"#utility.yul\":8951:8953   */\n      0x20\n        /* \"#utility.yul\":8940:8949   */\n      dup6\n        /* \"#utility.yul\":8936:8954   */\n      add\n        /* \"#utility.yul\":8923:8954   */\n      swap5\n      pop\n        /* \"#utility.yul\":8790:8794   */\n      0x20\n        /* \"#utility.yul\":8787:8788   */\n      dup2\n        /* \"#utility.yul\":8783:8795   */\n      add\n        /* \"#utility.yul\":8778:8795   */\n      swap1\n      pop\n        /* \"#utility.yul\":8753:8968   */\n      jump(tag_161)\n    tag_163:\n        /* \"#utility.yul\":8996:9002   */\n      dup7\n        /* \"#utility.yul\":8987:8994   */\n      dup4\n        /* \"#utility.yul\":8984:9003   */\n      lt\n        /* \"#utility.yul\":8981:9167   */\n      iszero\n      tag_164\n      jumpi\n        /* \"#utility.yul\":9061:9070   */\n      dup5\n        /* \"#utility.yul\":9056:9059   */\n      dup10\n        /* \"#utility.yul\":9052:9071   */\n      add\n        /* \"#utility.yul\":9039:9072   */\n      calldataload\n        /* \"#utility.yul\":9104:9152   */\n      tag_165\n        /* \"#utility.yul\":9146:9150   */\n      0x1f\n        /* \"#utility.yul\":9138:9144   */\n      dup10\n        /* \"#utility.yul\":9134:9151   */\n      and\n        /* \"#utility.yul\":9123:9132   */\n      dup3\n        /* \"#utility.yul\":9104:9152   */\n      tag_58\n      jump\t// in\n    tag_165:\n        /* \"#utility.yul\":9096:9102   */\n      dup4\n        /* \"#utility.yul\":9089:9153   */\n      sstore\n        /* \"#utility.yul\":9004:9167   */\n      pop\n        /* \"#utility.yul\":8981:9167   */\n    tag_164:\n        /* \"#utility.yul\":9213:9214   */\n      0x01\n        /* \"#utility.yul\":9209:9210   */\n      0x02\n        /* \"#utility.yul\":9201:9207   */\n      dup9\n        /* \"#utility.yul\":9197:9211   */\n      mul\n        /* \"#utility.yul\":9193:9215   */\n      add\n        /* \"#utility.yul\":9187:9191   */\n      dup9\n        /* \"#utility.yul\":9180:9216   */\n      sstore\n        /* \"#utility.yul\":8602:9226   */\n      pop\n      pop\n      pop\n        /* \"#utility.yul\":8565:9472   */\n    tag_156:\n      pop\n        /* \"#utility.yul\":8177:9478   */\n      pop\n      pop\n      pop\n        /* \"#utility.yul\":8080:9478   */\n      pop\n      pop\n      pop\n      jump\t// out\n\n    auxdata: 0xa2646970667358221220b80b89b940426df50e9664ce5799ebd31e7957675ef237ee5f4293d0555287c464736f6c634300081a0033\n}\n",
				"bytecode": {
					"linkReferences": {},
					"object": "6080604052348015600e575f80fd5b506106338061001c5f395ff3fe608060405234801561000f575f80fd5b5060043610610034575f3560e01c80632760c57e1461003857806328c2190914610056575b5f80fd5b610040610072565b60405161004d9190610197565b60405180910390f35b610070600480360381019061006b9190610257565b6100fd565b005b5f805461007e906102e1565b80601f01602080910402602001604051908101604052809291908181526020018280546100aa906102e1565b80156100f55780601f106100cc576101008083540402835291602001916100f5565b820191905f5260205f20905b8154815290600101906020018083116100d857829003601f168201915b505050505081565b82825f908361ffff169261011393929190610319565b5f9182610121929190610530565b50505050565b5f81519050919050565b5f82825260208201905092915050565b8281835e5f83830152505050565b5f601f19601f8301169050919050565b5f61016982610127565b6101738185610131565b9350610183818560208601610141565b61018c8161014f565b840191505092915050565b5f6020820190508181035f8301526101af818461015f565b905092915050565b5f80fd5b5f80fd5b5f80fd5b5f80fd5b5f80fd5b5f8083601f8401126101e0576101df6101bf565b5b8235905067ffffffffffffffff8111156101fd576101fc6101c3565b5b602083019150836001820283011115610219576102186101c7565b5b9250929050565b5f61ffff82169050919050565b61023681610220565b8114610240575f80fd5b50565b5f813590506102518161022d565b92915050565b5f805f6040848603121561026e5761026d6101b7565b5b5f84013567ffffffffffffffff81111561028b5761028a6101bb565b5b610297868287016101cb565b935093505060206102aa86828701610243565b9150509250925092565b7f4e487b71000000000000000000000000000000000000000000000000000000005f52602260045260245ffd5b5f60028204905060018216806102f857607f821691505b60208210810361030b5761030a6102b4565b5b50919050565b5f80fd5b5f80fd5b5f808585111561032c5761032b610311565b5b8386111561033d5761033c610315565b5b6001850283019150848603905094509492505050565b5f82905092915050565b7f4e487b71000000000000000000000000000000000000000000000000000000005f52604160045260245ffd5b5f819050815f5260205f209050919050565b5f6020601f8301049050919050565b5f82821b905092915050565b5f600883026103e67fffffffffffffffffffffffffffffffffffffffffffffffffffffffffffffffff826103ab565b6103f086836103ab565b95508019841693508086168417925050509392505050565b5f819050919050565b5f819050919050565b5f61043461042f61042a84610408565b610411565b610408565b9050919050565b5f819050919050565b61044d8361041a565b6104616104598261043b565b8484546103b7565b825550505050565b5f90565b610475610469565b610480818484610444565b505050565b5b818110156104a3576104985f8261046d565b600181019050610486565b5050565b601f8211156104e8576104b98161038a565b6104c28461039c565b810160208510156104d1578190505b6104e56104dd8561039c565b830182610485565b50505b505050565b5f82821c905092915050565b5f6105085f19846008026104ed565b1980831691505092915050565b5f61052083836104f9565b9150826002028217905092915050565b61053a8383610353565b67ffffffffffffffff8111156105535761055261035d565b5b61055d82546102e1565b6105688282856104a7565b5f601f831160018114610595575f8415610583578287013590505b61058d8582610515565b8655506105f4565b601f1984166105a38661038a565b5f5b828110156105ca578489013582556001820191506020850194506020810190506105a5565b868310156105e757848901356105e3601f8916826104f9565b8355505b6001600288020188555050505b5050505050505056fea2646970667358221220b80b89b940426df50e9664ce5799ebd31e7957675ef237ee5f4293d0555287c464736f6c634300081a0033",
					"opcodes": "PUSH1 0x80 PUSH1 0x40 MSTORE CALLVALUE DUP1 ISZERO PUSH1 0xE JUMPI PUSH0 DUP1 REVERT JUMPDEST POP PUSH2 0x633 DUP1 PUSH2 0x1C PUSH0 CODECOPY PUSH0 RETURN INVALID PUSH1 0x80 PUSH1 0x40 MSTORE CALLVALUE DUP1 ISZERO PUSH2 0xF JUMPI PUSH0 DUP1 REVERT JUMPDEST POP PUSH1 0x4 CALLDATASIZE LT PUSH2 0x34 JUMPI PUSH0 CALLDATALOAD PUSH1 0xE0 SHR DUP1 PUSH4 0x2760C57E EQ PUSH2 0x38 JUMPI DUP1 PUSH4 0x28C21909 EQ PUSH2 0x56 JUMPI JUMPDEST PUSH0 DUP1 REVERT JUMPDEST PUSH2 0x40 PUSH2 0x72 JUMP JUMPDEST PUSH1 0x40 MLOAD PUSH2 0x4D SWAP2 SWAP1 PUSH2 0x197 JUMP JUMPDEST PUSH1 0x40 MLOAD DUP1 SWAP2 SUB SWAP1 RETURN JUMPDEST PUSH2 0x70 PUSH1 0x4 DUP1 CALLDATASIZE SUB DUP2 ADD SWAP1 PUSH2 0x6B SWAP2 SWAP1 PUSH2 0x257 JUMP JUMPDEST PUSH2 0xFD JUMP JUMPDEST STOP JUMPDEST PUSH0 DUP1 SLOAD PUSH2 0x7E SWAP1 PUSH2 0x2E1 JUMP JUMPDEST DUP1 PUSH1 0x1F ADD PUSH1 0x20 DUP1 SWAP2 DIV MUL PUSH1 0x20 ADD PUSH1 0x40 MLOAD SWAP1 DUP2 ADD PUSH1 0x40 MSTORE DUP1 SWAP3 SWAP2 SWAP1 DUP2 DUP2 MSTORE PUSH1 0x20 ADD DUP3 DUP1 SLOAD PUSH2 0xAA SWAP1 PUSH2 0x2E1 JUMP JUMPDEST DUP1 ISZERO PUSH2 0xF5 JUMPI DUP1 PUSH1 0x1F LT PUSH2 0xCC JUMPI PUSH2 0x100 DUP1 DUP4 SLOAD DIV MUL DUP4 MSTORE SWAP2 PUSH1 0x20 ADD SWAP2 PUSH2 0xF5 JUMP JUMPDEST DUP3 ADD SWAP2 SWAP1 PUSH0 MSTORE PUSH1 0x20 PUSH0 KECCAK256 SWAP1 JUMPDEST DUP2 SLOAD DUP2 MSTORE SWAP1 PUSH1 0x1 ADD SWAP1 PUSH1 0x20 ADD DUP1 DUP4 GT PUSH2 0xD8 JUMPI DUP3 SWAP1 SUB PUSH1 0x1F AND DUP3 ADD SWAP2 JUMPDEST POP POP POP POP POP DUP2 JUMP JUMPDEST DUP3 DUP3 PUSH0 SWAP1 DUP4 PUSH2 0xFFFF AND SWAP3 PUSH2 0x113 SWAP4 SWAP3 SWAP2 SWAP1 PUSH2 0x319 JUMP JUMPDEST PUSH0 SWAP2 DUP3 PUSH2 0x121 SWAP3 SWAP2 SWAP1 PUSH2 0x530 JUMP JUMPDEST POP POP POP POP JUMP JUMPDEST PUSH0 DUP2 MLOAD SWAP1 POP SWAP2 SWAP1 POP JUMP JUMPDEST PUSH0 DUP3 DUP3 MSTORE PUSH1 0x20 DUP3 ADD SWAP1 POP SWAP3 SWAP2 POP POP JUMP JUMPDEST DUP3 DUP2 DUP4 MCOPY PUSH0 DUP4 DUP4 ADD MSTORE POP POP POP JUMP JUMPDEST PUSH0 PUSH1 0x1F NOT PUSH1 0x1F DUP4 ADD AND SWAP1 POP SWAP2 SWAP1 POP JUMP JUMPDEST PUSH0 PUSH2 0x169 DUP3 PUSH2 0x127 JUMP JUMPDEST PUSH2 0x173 DUP2 DUP6 PUSH2 0x131 JUMP JUMPDEST SWAP4 POP PUSH2 0x183 DUP2 DUP6 PUSH1 0x20 DUP7 ADD PUSH2 0x141 JUMP JUMPDEST PUSH2 0x18C DUP2 PUSH2 0x14F JUMP JUMPDEST DUP5 ADD SWAP2 POP POP SWAP3 SWAP2 POP POP JUMP JUMPDEST PUSH0 PUSH1 0x20 DUP3 ADD SWAP1 POP DUP2 DUP2 SUB PUSH0 DUP4 ADD MSTORE PUSH2 0x1AF DUP2 DUP5 PUSH2 0x15F JUMP JUMPDEST SWAP1 POP SWAP3 SWAP2 POP POP JUMP JUMPDEST PUSH0 DUP1 REVERT JUMPDEST PUSH0 DUP1 REVERT JUMPDEST PUSH0 DUP1 REVERT JUMPDEST PUSH0 DUP1 REVERT JUMPDEST PUSH0 DUP1 REVERT JUMPDEST PUSH0 DUP1 DUP4 PUSH1 0x1F DUP5 ADD SLT PUSH2 0x1E0 JUMPI PUSH2 0x1DF PUSH2 0x1BF JUMP JUMPDEST JUMPDEST DUP3 CALLDATALOAD SWAP1 POP PUSH8 0xFFFFFFFFFFFFFFFF DUP2 GT ISZERO PUSH2 0x1FD JUMPI PUSH2 0x1FC PUSH2 0x1C3 JUMP JUMPDEST JUMPDEST PUSH1 0x20 DUP4 ADD SWAP2 POP DUP4 PUSH1 0x1 DUP3 MUL DUP4 ADD GT ISZERO PUSH2 0x219 JUMPI PUSH2 0x218 PUSH2 0x1C7 JUMP JUMPDEST JUMPDEST SWAP3 POP SWAP3 SWAP1 POP JUMP JUMPDEST PUSH0 PUSH2 0xFFFF DUP3 AND SWAP1 POP SWAP2 SWAP1 POP JUMP JUMPDEST PUSH2 0x236 DUP2 PUSH2 0x220 JUMP JUMPDEST DUP2 EQ PUSH2 0x240 JUMPI PUSH0 DUP1 REVERT JUMPDEST POP JUMP JUMPDEST PUSH0 DUP2 CALLDATALOAD SWAP1 POP PUSH2 0x251 DUP2 PUSH2 0x22D JUMP JUMPDEST SWAP3 SWAP2 POP POP JUMP JUMPDEST PUSH0 DUP1 PUSH0 PUSH1 0x40 DUP5 DUP7 SUB SLT ISZERO PUSH2 0x26E JUMPI PUSH2 0x26D PUSH2 0x1B7 JUMP JUMPDEST JUMPDEST PUSH0 DUP5 ADD CALLDATALOAD PUSH8 0xFFFFFFFFFFFFFFFF DUP2 GT ISZERO PUSH2 0x28B JUMPI PUSH2 0x28A PUSH2 0x1BB JUMP JUMPDEST JUMPDEST PUSH2 0x297 DUP7 DUP3 DUP8 ADD PUSH2 0x1CB JUMP JUMPDEST SWAP4 POP SWAP4 POP POP PUSH1 0x20 PUSH2 0x2AA DUP7 DUP3 DUP8 ADD PUSH2 0x243 JUMP JUMPDEST SWAP2 POP POP SWAP3 POP SWAP3 POP SWAP3 JUMP JUMPDEST PUSH32 0x4E487B7100000000000000000000000000000000000000000000000000000000 PUSH0 MSTORE PUSH1 0x22 PUSH1 0x4 MSTORE PUSH1 0x24 PUSH0 REVERT JUMPDEST PUSH0 PUSH1 0x2 DUP3 DIV SWAP1 POP PUSH1 0x1 DUP3 AND DUP1 PUSH2 0x2F8 JUMPI PUSH1 0x7F DUP3 AND SWAP2 POP JUMPDEST PUSH1 0x20 DUP3 LT DUP2 SUB PUSH2 0x30B JUMPI PUSH2 0x30A PUSH2 0x2B4 JUMP JUMPDEST JUMPDEST POP SWAP2 SWAP1 POP JUMP JUMPDEST PUSH0 DUP1 REVERT JUMPDEST PUSH0 DUP1 REVERT JUMPDEST PUSH0 DUP1 DUP6 DUP6 GT ISZERO PUSH2 0x32C JUMPI PUSH2 0x32B PUSH2 0x311 JUMP JUMPDEST JUMPDEST DUP4 DUP7 GT ISZERO PUSH2 0x33D JUMPI PUSH2 0x33C PUSH2 0x315 JUMP JUMPDEST JUMPDEST PUSH1 0x1 DUP6 MUL DUP4 ADD SWAP2 POP DUP5 DUP7 SUB SWAP1 POP SWAP5 POP SWAP5 SWAP3 POP POP POP JUMP JUMPDEST PUSH0 DUP3 SWAP1 POP SWAP3 SWAP2 POP POP JUMP JUMPDEST PUSH32 0x4E487B7100000000000000000000000000000000000000000000000000000000 PUSH0 MSTORE PUSH1 0x41 PUSH1 0x4 MSTORE PUSH1 0x24 PUSH0 REVERT JUMPDEST PUSH0 DUP2 SWAP1 POP DUP2 PUSH0 MSTORE PUSH1 0x20 PUSH0 KECCAK256 SWAP1 POP SWAP2 SWAP1 POP JUMP JUMPDEST PUSH0 PUSH1 0x20 PUSH1 0x1F DUP4 ADD DIV SWAP1 POP SWAP2 SWAP1 POP JUMP JUMPDEST PUSH0 DUP3 DUP3 SHL SWAP1 POP SWAP3 SWAP2 POP POP JUMP JUMPDEST PUSH0 PUSH1 0x8 DUP4 MUL PUSH2 0x3E6 PUSH32 0xFFFFFFFFFFFFFFFFFFFFFFFFFFFFFFFFFFFFFFFFFFFFFFFFFFFFFFFFFFFFFFFF DUP3 PUSH2 0x3AB JUMP JUMPDEST PUSH2 0x3F0 DUP7 DUP4 PUSH2 0x3AB JUMP JUMPDEST SWAP6 POP DUP1 NOT DUP5 AND SWAP4 POP DUP1 DUP7 AND DUP5 OR SWAP3 POP POP POP SWAP4 SWAP3 POP POP POP JUMP JUMPDEST PUSH0 DUP2 SWAP1 POP SWAP2 SWAP1 POP JUMP JUMPDEST PUSH0 DUP2 SWAP1 POP SWAP2 SWAP1 POP JUMP JUMPDEST PUSH0 PUSH2 0x434 PUSH2 0x42F PUSH2 0x42A DUP5 PUSH2 0x408 JUMP JUMPDEST PUSH2 0x411 JUMP JUMPDEST PUSH2 0x408 JUMP JUMPDEST SWAP1 POP SWAP2 SWAP1 POP JUMP JUMPDEST PUSH0 DUP2 SWAP1 POP SWAP2 SWAP1 POP JUMP JUMPDEST PUSH2 0x44D DUP4 PUSH2 0x41A JUMP JUMPDEST PUSH2 0x461 PUSH2 0x459 DUP3 PUSH2 0x43B JUMP JUMPDEST DUP5 DUP5 SLOAD PUSH2 0x3B7 JUMP JUMPDEST DUP3 SSTORE POP POP POP POP JUMP JUMPDEST PUSH0 SWAP1 JUMP JUMPDEST PUSH2 0x475 PUSH2 0x469 JUMP JUMPDEST PUSH2 0x480 DUP2 DUP5 DUP5 PUSH2 0x444 JUMP JUMPDEST POP POP POP JUMP JUMPDEST JUMPDEST DUP2 DUP2 LT ISZERO PUSH2 0x4A3 JUMPI PUSH2 0x498 PUSH0 DUP3 PUSH2 0x46D JUMP JUMPDEST PUSH1 0x1 DUP2 ADD SWAP1 POP PUSH2 0x486 JUMP JUMPDEST POP POP JUMP JUMPDEST PUSH1 0x1F DUP3 GT ISZERO PUSH2 0x4E8 JUMPI PUSH2 0x4B9 DUP2 PUSH2 0x38A JUMP JUMPDEST PUSH2 0x4C2 DUP5 PUSH2 0x39C JUMP JUMPDEST DUP2 ADD PUSH1 0x20 DUP6 LT ISZERO PUSH2 0x4D1 JUMPI DUP2 SWAP1 POP JUMPDEST PUSH2 0x4E5 PUSH2 0x4DD DUP6 PUSH2 0x39C JUMP JUMPDEST DUP4 ADD DUP3 PUSH2 0x485 JUMP JUMPDEST POP POP JUMPDEST POP POP POP JUMP JUMPDEST PUSH0 DUP3 DUP3 SHR SWAP1 POP SWAP3 SWAP2 POP POP JUMP JUMPDEST PUSH0 PUSH2 0x508 PUSH0 NOT DUP5 PUSH1 0x8 MUL PUSH2 0x4ED JUMP JUMPDEST NOT DUP1 DUP4 AND SWAP2 POP POP SWAP3 SWAP2 POP POP JUMP JUMPDEST PUSH0 PUSH2 0x520 DUP4 DUP4 PUSH2 0x4F9 JUMP JUMPDEST SWAP2 POP DUP3 PUSH1 0x2 MUL DUP3 OR SWAP1 POP SWAP3 SWAP2 POP POP JUMP JUMPDEST PUSH2 0x53A DUP4 DUP4 PUSH2 0x353 JUMP JUMPDEST PUSH8 0xFFFFFFFFFFFFFFFF DUP2 GT ISZERO PUSH2 0x553 JUMPI PUSH2 0x552 PUSH2 0x35D JUMP JUMPDEST JUMPDEST PUSH2 0x55D DUP3 SLOAD PUSH2 0x2E1 JUMP JUMPDEST PUSH2 0x568 DUP3 DUP3 DUP6 PUSH2 0x4A7 JUMP JUMPDEST PUSH0 PUSH1 0x1F DUP4 GT PUSH1 0x1 DUP2 EQ PUSH2 0x595 JUMPI PUSH0 DUP5 ISZERO PUSH2 0x583 JUMPI DUP3 DUP8 ADD CALLDATALOAD SWAP1 POP JUMPDEST PUSH2 0x58D DUP6 DUP3 PUSH2 0x515 JUMP JUMPDEST DUP7 SSTORE POP PUSH2 0x5F4 JUMP JUMPDEST PUSH1 0x1F NOT DUP5 AND PUSH2 0x5A3 DUP7 PUSH2 0x38A JUMP JUMPDEST PUSH0 JUMPDEST DUP3 DUP2 LT ISZERO PUSH2 0x5CA JUMPI DUP5 DUP10 ADD CALLDATALOAD DUP3 SSTORE PUSH1 0x1 DUP3 ADD SWAP2 POP PUSH1 0x20 DUP6 ADD SWAP5 POP PUSH1 0x20 DUP2 ADD SWAP1 POP PUSH2 0x5A5 JUMP JUMPDEST DUP7 DUP4 LT ISZERO PUSH2 0x5E7 JUMPI DUP5 DUP10 ADD CALLDATALOAD PUSH2 0x5E3 PUSH1 0x1F DUP10 AND DUP3 PUSH2 0x4F9 JUMP JUMPDEST DUP4 SSTORE POP JUMPDEST PUSH1 0x1 PUSH1 0x2 DUP9 MUL ADD DUP9 SSTORE POP POP POP JUMPDEST POP POP POP POP POP POP POP JUMP INVALID LOG2 PUSH5 0x6970667358 0x22 SLT KECCAK256 0xB8 SIGNEXTEND DUP10 0xB9 BLOCKHASH TIMESTAMP PUSH14 0xF50E9664CE5799EBD31E7957675E CALLCODE CALLDATACOPY 0xEE PUSH0 TIMESTAMP SWAP4 0xD0 SSTORE MSTORE DUP8 0xC4 PUSH5 0x736F6C6343 STOP ADDMOD BYTE STOP CALLER "
				},
				"gasEstimates": {
					"creation": {
						"codeDepositCost": "317400",
						"executionCost": "353",
						"totalCost": "317753"
					},
					"external": {
						"heartbeat(bytes,uint16)": "infinite",
						"lastPing()": "infinite"
					}
				},
				"methodIdentifiers": {
					"heartbeat(bytes,uint16)": "28c21909",
					"lastPing()": "2760c57e"
				}
			},
			"storageLayout": {
				"storage": [
					{
						"astId": 253,
						"contract": "T/Transport Layer Security (TLS)/Transport Layer Security (TLS).sol:TLSVulnHeartbeat",
						"label": "lastPing",
						"offset": 0,
						"slot": "0",
						"type": "t_bytes_storage"
					}
				],
				"types": {
					"t_bytes_storage": {
						"encoding": "bytes",
						"label": "bytes",
						"numberOfBytes": "32"
					}
				}
			},
			"userdoc": {
				"kind": "user",
				"methods": {},
				"version": 1
			}
		}
	}
}