{
	"T/Transport Layer Security (TLS)/Transport Layer Security (TLS).sol": {
		"TLSSafeRenegotiation": {
			"abi": [
				{
					"inputs": [],
					"name": "TLS__NotAllowed",
					"type": "error"
				},
				{
					"anonymous": false,
					"inputs": [
						{
							"indexed": true,
							"internalType": "address",
							"name": "who",
							"type": "address"
						},
						{
							"indexed": false,
							"internalType": "enum TLSLayerType",
							"name": "layer",
							"type": "uint8"
						},
						{
							"indexed": false,
							"internalType": "enum TLSDefenseType",
							"name": "defense",
							"type": "uint8"
						}
					],
					"name": "TLSDefended",
					"type": "event"
				},
				{
					"inputs": [
						{
							"internalType": "address",
							"name": "",
							"type": "address"
						}
					],
					"name": "reneg",
					"outputs": [
						{
							"internalType": "bool",
							"name": "",
							"type": "bool"
						}
					],
					"stateMutability": "view",
					"type": "function"
				},
				{
					"inputs": [
						{
							"internalType": "address",
							"name": "peer",
							"type": "address"
						},
						{
							"internalType": "bytes",
							"name": "ext",
							"type": "bytes"
						}
					],
					"name": "renegotiate",
					"outputs": [],
					"stateMutability": "nonpayable",
					"type": "function"
				}
			],
			"devdoc": {
				"kind": "dev",
				"methods": {},
				"version": 1
			},
			"evm": {
				"assembly": "    /* \"T/Transport Layer Security (TLS)/Transport Layer Security (TLS).sol\":5822:6446  contract TLSSafeRenegotiation {... */\n  mstore(0x40, 0x80)\n  callvalue\n  dup1\n  iszero\n  tag_1\n  jumpi\n  0x00\n  dup1\n  revert\ntag_1:\n  pop\n  dataSize(sub_0)\n  dup1\n  dataOffset(sub_0)\n  0x00\n  codecopy\n  0x00\n  return\nstop\n\nsub_0: assembly {\n        /* \"T/Transport Layer Security (TLS)/Transport Layer Security (TLS).sol\":5822:6446  contract TLSSafeRenegotiation {... */\n      mstore(0x40, 0x80)\n      callvalue\n      dup1\n      iszero\n      tag_1\n      jumpi\n      0x00\n      dup1\n      revert\n    tag_1:\n      pop\n      jumpi(tag_2, lt(calldatasize, 0x04))\n      shr(0xe0, calldataload(0x00))\n      dup1\n      0x6bb8b518\n      eq\n      tag_3\n      jumpi\n      dup1\n      0x8aa5dfd0\n      eq\n      tag_4\n      jumpi\n    tag_2:\n      0x00\n      dup1\n      revert\n        /* \"T/Transport Layer Security (TLS)/Transport Layer Security (TLS).sol\":5858:5895  mapping(address => bool) public reneg */\n    tag_3:\n      tag_5\n      0x04\n      dup1\n      calldatasize\n      sub\n      dup2\n      add\n      swap1\n      tag_6\n      swap2\n      swap1\n      tag_7\n      jump\t// in\n    tag_6:\n      tag_8\n      jump\t// in\n    tag_5:\n      mload(0x40)\n      tag_9\n      swap2\n      swap1\n      tag_10\n      jump\t// in\n    tag_9:\n      mload(0x40)\n      dup1\n      swap2\n      sub\n      swap1\n      return\n        /* \"T/Transport Layer Security (TLS)/Transport Layer Security (TLS).sol\":6065:6444  function renegotiate(address peer, bytes calldata ext) external {... */\n    tag_4:\n      tag_11\n      0x04\n      dup1\n      calldatasize\n      sub\n      dup2\n      add\n      swap1\n      tag_12\n      swap2\n      swap1\n      tag_13\n      jump\t// in\n    tag_12:\n      tag_14\n      jump\t// in\n    tag_11:\n      stop\n        /* \"T/Transport Layer Security (TLS)/Transport Layer Security (TLS).sol\":5858:5895  mapping(address => bool) public reneg */\n    tag_8:\n      mstore(0x20, 0x00)\n      dup1\n      0x00\n      mstore\n      keccak256(0x00, 0x40)\n      0x00\n      swap2\n      pop\n      sload\n      swap1\n      0x0100\n      exp\n      swap1\n      div\n      0xff\n      and\n      dup2\n      jump\t// out\n        /* \"T/Transport Layer Security (TLS)/Transport Layer Security (TLS).sol\":6065:6444  function renegotiate(address peer, bytes calldata ext) external {... */\n    tag_14:\n        /* \"T/Transport Layer Security (TLS)/Transport Layer Security (TLS).sol\":6139:6146  bool ok */\n      0x00\n        /* \"T/Transport Layer Security (TLS)/Transport Layer Security (TLS).sol\":6161:6167  uint i */\n      dup1\n        /* \"T/Transport Layer Security (TLS)/Transport Layer Security (TLS).sol\":6156:6259  for (uint i; i + 1 < ext.length; i++) {... */\n    tag_16:\n        /* \"T/Transport Layer Security (TLS)/Transport Layer Security (TLS).sol\":6177:6180  ext */\n      dup4\n      dup4\n        /* \"T/Transport Layer Security (TLS)/Transport Layer Security (TLS).sol\":6177:6187  ext.length */\n      swap1\n      pop\n        /* \"T/Transport Layer Security (TLS)/Transport Layer Security (TLS).sol\":6173:6174  1 */\n      0x01\n        /* \"T/Transport Layer Security (TLS)/Transport Layer Security (TLS).sol\":6169:6170  i */\n      dup3\n        /* \"T/Transport Layer Security (TLS)/Transport Layer Security (TLS).sol\":6169:6174  i + 1 */\n      tag_19\n      swap2\n      swap1\n      tag_20\n      jump\t// in\n    tag_19:\n        /* \"T/Transport Layer Security (TLS)/Transport Layer Security (TLS).sol\":6169:6187  i + 1 < ext.length */\n      lt\n        /* \"T/Transport Layer Security (TLS)/Transport Layer Security (TLS).sol\":6156:6259  for (uint i; i + 1 < ext.length; i++) {... */\n      iszero\n      tag_17\n      jumpi\n        /* \"T/Transport Layer Security (TLS)/Transport Layer Security (TLS).sol\":6222:6226  0xFF */\n      0xff\n        /* \"T/Transport Layer Security (TLS)/Transport Layer Security (TLS).sol\":6212:6226  ext[i] == 0xFF */\n      0xf8\n      shl\n        /* \"T/Transport Layer Security (TLS)/Transport Layer Security (TLS).sol\":6212:6215  ext */\n      dup5\n      dup5\n        /* \"T/Transport Layer Security (TLS)/Transport Layer Security (TLS).sol\":6216:6217  i */\n      dup4\n        /* \"T/Transport Layer Security (TLS)/Transport Layer Security (TLS).sol\":6212:6218  ext[i] */\n      dup2\n      dup2\n      lt\n      tag_21\n      jumpi\n      tag_22\n      tag_23\n      jump\t// in\n    tag_22:\n    tag_21:\n      swap1\n      pop\n      add\n      calldataload\n      0xf8\n      shr\n      0xf8\n      shl\n        /* \"T/Transport Layer Security (TLS)/Transport Layer Security (TLS).sol\":6212:6226  ext[i] == 0xFF */\n      not(0xffffffffffffffffffffffffffffffffffffffffffffffffffffffffffffff)\n      and\n      sub\n        /* \"T/Transport Layer Security (TLS)/Transport Layer Security (TLS).sol\":6208:6249  if (ext[i] == 0xFF) { ok = true; break; } */\n      tag_24\n      jumpi\n        /* \"T/Transport Layer Security (TLS)/Transport Layer Security (TLS).sol\":6235:6239  true */\n      0x01\n        /* \"T/Transport Layer Security (TLS)/Transport Layer Security (TLS).sol\":6230:6239  ok = true */\n      swap2\n      pop\n        /* \"T/Transport Layer Security (TLS)/Transport Layer Security (TLS).sol\":6241:6246  break */\n      jump(tag_17)\n        /* \"T/Transport Layer Security (TLS)/Transport Layer Security (TLS).sol\":6208:6249  if (ext[i] == 0xFF) { ok = true; break; } */\n    tag_24:\n        /* \"T/Transport Layer Security (TLS)/Transport Layer Security (TLS).sol\":6189:6192  i++ */\n      dup1\n      dup1\n      tag_25\n      swap1\n      tag_26\n      jump\t// in\n    tag_25:\n      swap2\n      pop\n      pop\n        /* \"T/Transport Layer Security (TLS)/Transport Layer Security (TLS).sol\":6156:6259  for (uint i; i + 1 < ext.length; i++) {... */\n      jump(tag_16)\n    tag_17:\n      pop\n        /* \"T/Transport Layer Security (TLS)/Transport Layer Security (TLS).sol\":6273:6275  ok */\n      dup1\n        /* \"T/Transport Layer Security (TLS)/Transport Layer Security (TLS).sol\":6268:6301  if (!ok) revert TLS__NotAllowed() */\n      tag_27\n      jumpi\n        /* \"T/Transport Layer Security (TLS)/Transport Layer Security (TLS).sol\":6284:6301  TLS__NotAllowed() */\n      mload(0x40)\n      0x34d02eb000000000000000000000000000000000000000000000000000000000\n      dup2\n      mstore\n      0x04\n      add\n      mload(0x40)\n      dup1\n      swap2\n      sub\n      swap1\n      revert\n        /* \"T/Transport Layer Security (TLS)/Transport Layer Security (TLS).sol\":6268:6301  if (!ok) revert TLS__NotAllowed() */\n    tag_27:\n        /* \"T/Transport Layer Security (TLS)/Transport Layer Security (TLS).sol\":6331:6335  true */\n      0x01\n        /* \"T/Transport Layer Security (TLS)/Transport Layer Security (TLS).sol\":6311:6316  reneg */\n      0x00\n        /* \"T/Transport Layer Security (TLS)/Transport Layer Security (TLS).sol\":6311:6328  reneg[msg.sender] */\n      dup1\n        /* \"T/Transport Layer Security (TLS)/Transport Layer Security (TLS).sol\":6317:6327  msg.sender */\n      caller\n        /* \"T/Transport Layer Security (TLS)/Transport Layer Security (TLS).sol\":6311:6328  reneg[msg.sender] */\n      0xffffffffffffffffffffffffffffffffffffffff\n      and\n      0xffffffffffffffffffffffffffffffffffffffff\n      and\n      dup2\n      mstore\n      0x20\n      add\n      swap1\n      dup2\n      mstore\n      0x20\n      add\n      0x00\n      keccak256\n      0x00\n        /* \"T/Transport Layer Security (TLS)/Transport Layer Security (TLS).sol\":6311:6335  reneg[msg.sender] = true */\n      0x0100\n      exp\n      dup2\n      sload\n      dup2\n      0xff\n      mul\n      not\n      and\n      swap1\n      dup4\n      iszero\n      iszero\n      mul\n      or\n      swap1\n      sstore\n      pop\n        /* \"T/Transport Layer Security (TLS)/Transport Layer Security (TLS).sol\":6362:6372  msg.sender */\n      caller\n        /* \"T/Transport Layer Security (TLS)/Transport Layer Security (TLS).sol\":6350:6437  TLSDefended(msg.sender, TLSLayerType.Renegotiation, TLSDefenseType.SecureRenegotiation) */\n      0xffffffffffffffffffffffffffffffffffffffff\n      and\n      0x4630e4d8ee2366488de2e4361bb2c5a1ebd888b5590e3f7a70dc072e37d60e91\n        /* \"T/Transport Layer Security (TLS)/Transport Layer Security (TLS).sol\":6374:6400  TLSLayerType.Renegotiation */\n      0x03\n        /* \"T/Transport Layer Security (TLS)/Transport Layer Security (TLS).sol\":6402:6436  TLSDefenseType.SecureRenegotiation */\n      dup1\n        /* \"T/Transport Layer Security (TLS)/Transport Layer Security (TLS).sol\":6350:6437  TLSDefended(msg.sender, TLSLayerType.Renegotiation, TLSDefenseType.SecureRenegotiation) */\n      mload(0x40)\n      tag_28\n      swap3\n      swap2\n      swap1\n      tag_29\n      jump\t// in\n    tag_28:\n      mload(0x40)\n      dup1\n      swap2\n      sub\n      swap1\n      log2\n        /* \"T/Transport Layer Security (TLS)/Transport Layer Security (TLS).sol\":6129:6444  {... */\n      pop\n        /* \"T/Transport Layer Security (TLS)/Transport Layer Security (TLS).sol\":6065:6444  function renegotiate(address peer, bytes calldata ext) external {... */\n      pop\n      pop\n      pop\n      jump\t// out\n        /* \"#utility.yul\":88:205   */\n    tag_31:\n        /* \"#utility.yul\":197:198   */\n      0x00\n        /* \"#utility.yul\":194:195   */\n      dup1\n        /* \"#utility.yul\":187:199   */\n      revert\n        /* \"#utility.yul\":211:328   */\n    tag_32:\n        /* \"#utility.yul\":320:321   */\n      0x00\n        /* \"#utility.yul\":317:318   */\n      dup1\n        /* \"#utility.yul\":310:322   */\n      revert\n        /* \"#utility.yul\":334:460   */\n    tag_33:\n        /* \"#utility.yul\":371:378   */\n      0x00\n        /* \"#utility.yul\":411:453   */\n      0xffffffffffffffffffffffffffffffffffffffff\n        /* \"#utility.yul\":404:409   */\n      dup3\n        /* \"#utility.yul\":400:454   */\n      and\n        /* \"#utility.yul\":389:454   */\n      swap1\n      pop\n        /* \"#utility.yul\":334:460   */\n      swap2\n      swap1\n      pop\n      jump\t// out\n        /* \"#utility.yul\":466:562   */\n    tag_34:\n        /* \"#utility.yul\":503:510   */\n      0x00\n        /* \"#utility.yul\":532:556   */\n      tag_60\n        /* \"#utility.yul\":550:555   */\n      dup3\n        /* \"#utility.yul\":532:556   */\n      tag_33\n      jump\t// in\n    tag_60:\n        /* \"#utility.yul\":521:556   */\n      swap1\n      pop\n        /* \"#utility.yul\":466:562   */\n      swap2\n      swap1\n      pop\n      jump\t// out\n        /* \"#utility.yul\":568:690   */\n    tag_35:\n        /* \"#utility.yul\":641:665   */\n      tag_62\n        /* \"#utility.yul\":659:664   */\n      dup2\n        /* \"#utility.yul\":641:665   */\n      tag_34\n      jump\t// in\n    tag_62:\n        /* \"#utility.yul\":634:639   */\n      dup2\n        /* \"#utility.yul\":631:666   */\n      eq\n        /* \"#utility.yul\":621:684   */\n      tag_63\n      jumpi\n        /* \"#utility.yul\":680:681   */\n      0x00\n        /* \"#utility.yul\":677:678   */\n      dup1\n        /* \"#utility.yul\":670:682   */\n      revert\n        /* \"#utility.yul\":621:684   */\n    tag_63:\n        /* \"#utility.yul\":568:690   */\n      pop\n      jump\t// out\n        /* \"#utility.yul\":696:835   */\n    tag_36:\n        /* \"#utility.yul\":742:747   */\n      0x00\n        /* \"#utility.yul\":780:786   */\n      dup2\n        /* \"#utility.yul\":767:787   */\n      calldataload\n        /* \"#utility.yul\":758:787   */\n      swap1\n      pop\n        /* \"#utility.yul\":796:829   */\n      tag_65\n        /* \"#utility.yul\":823:828   */\n      dup2\n        /* \"#utility.yul\":796:829   */\n      tag_35\n      jump\t// in\n    tag_65:\n        /* \"#utility.yul\":696:835   */\n      swap3\n      swap2\n      pop\n      pop\n      jump\t// out\n        /* \"#utility.yul\":841:1170   */\n    tag_7:\n        /* \"#utility.yul\":900:906   */\n      0x00\n        /* \"#utility.yul\":949:951   */\n      0x20\n        /* \"#utility.yul\":937:946   */\n      dup3\n        /* \"#utility.yul\":928:935   */\n      dup5\n        /* \"#utility.yul\":924:947   */\n      sub\n        /* \"#utility.yul\":920:952   */\n      slt\n        /* \"#utility.yul\":917:1036   */\n      iszero\n      tag_67\n      jumpi\n        /* \"#utility.yul\":955:1034   */\n      tag_68\n      tag_31\n      jump\t// in\n    tag_68:\n        /* \"#utility.yul\":917:1036   */\n    tag_67:\n        /* \"#utility.yul\":1075:1076   */\n      0x00\n        /* \"#utility.yul\":1100:1153   */\n      tag_69\n        /* \"#utility.yul\":1145:1152   */\n      dup5\n        /* \"#utility.yul\":1136:1142   */\n      dup3\n        /* \"#utility.yul\":1125:1134   */\n      dup6\n        /* \"#utility.yul\":1121:1143   */\n      add\n        /* \"#utility.yul\":1100:1153   */\n      tag_36\n      jump\t// in\n    tag_69:\n        /* \"#utility.yul\":1090:1153   */\n      swap2\n      pop\n        /* \"#utility.yul\":1046:1163   */\n      pop\n        /* \"#utility.yul\":841:1170   */\n      swap3\n      swap2\n      pop\n      pop\n      jump\t// out\n        /* \"#utility.yul\":1176:1266   */\n    tag_37:\n        /* \"#utility.yul\":1210:1217   */\n      0x00\n        /* \"#utility.yul\":1253:1258   */\n      dup2\n        /* \"#utility.yul\":1246:1259   */\n      iszero\n        /* \"#utility.yul\":1239:1260   */\n      iszero\n        /* \"#utility.yul\":1228:1260   */\n      swap1\n      pop\n        /* \"#utility.yul\":1176:1266   */\n      swap2\n      swap1\n      pop\n      jump\t// out\n        /* \"#utility.yul\":1272:1381   */\n    tag_38:\n        /* \"#utility.yul\":1353:1374   */\n      tag_72\n        /* \"#utility.yul\":1368:1373   */\n      dup2\n        /* \"#utility.yul\":1353:1374   */\n      tag_37\n      jump\t// in\n    tag_72:\n        /* \"#utility.yul\":1348:1351   */\n      dup3\n        /* \"#utility.yul\":1341:1375   */\n      mstore\n        /* \"#utility.yul\":1272:1381   */\n      pop\n      pop\n      jump\t// out\n        /* \"#utility.yul\":1387:1597   */\n    tag_10:\n        /* \"#utility.yul\":1474:1478   */\n      0x00\n        /* \"#utility.yul\":1512:1514   */\n      0x20\n        /* \"#utility.yul\":1501:1510   */\n      dup3\n        /* \"#utility.yul\":1497:1515   */\n      add\n        /* \"#utility.yul\":1489:1515   */\n      swap1\n      pop\n        /* \"#utility.yul\":1525:1590   */\n      tag_74\n        /* \"#utility.yul\":1587:1588   */\n      0x00\n        /* \"#utility.yul\":1576:1585   */\n      dup4\n        /* \"#utility.yul\":1572:1589   */\n      add\n        /* \"#utility.yul\":1563:1569   */\n      dup5\n        /* \"#utility.yul\":1525:1590   */\n      tag_38\n      jump\t// in\n    tag_74:\n        /* \"#utility.yul\":1387:1597   */\n      swap3\n      swap2\n      pop\n      pop\n      jump\t// out\n        /* \"#utility.yul\":1603:1720   */\n    tag_39:\n        /* \"#utility.yul\":1712:1713   */\n      0x00\n        /* \"#utility.yul\":1709:1710   */\n      dup1\n        /* \"#utility.yul\":1702:1714   */\n      revert\n        /* \"#utility.yul\":1726:1843   */\n    tag_40:\n        /* \"#utility.yul\":1835:1836   */\n      0x00\n        /* \"#utility.yul\":1832:1833   */\n      dup1\n        /* \"#utility.yul\":1825:1837   */\n      revert\n        /* \"#utility.yul\":1849:1966   */\n    tag_41:\n        /* \"#utility.yul\":1958:1959   */\n      0x00\n        /* \"#utility.yul\":1955:1956   */\n      dup1\n        /* \"#utility.yul\":1948:1960   */\n      revert\n        /* \"#utility.yul\":1985:2537   */\n    tag_42:\n        /* \"#utility.yul\":2042:2050   */\n      0x00\n        /* \"#utility.yul\":2052:2058   */\n      dup1\n        /* \"#utility.yul\":2102:2105   */\n      dup4\n        /* \"#utility.yul\":2095:2099   */\n      0x1f\n        /* \"#utility.yul\":2087:2093   */\n      dup5\n        /* \"#utility.yul\":2083:2100   */\n      add\n        /* \"#utility.yul\":2079:2106   */\n      slt\n        /* \"#utility.yul\":2069:2191   */\n      tag_79\n      jumpi\n        /* \"#utility.yul\":2110:2189   */\n      tag_80\n      tag_39\n      jump\t// in\n    tag_80:\n        /* \"#utility.yul\":2069:2191   */\n    tag_79:\n        /* \"#utility.yul\":2223:2229   */\n      dup3\n        /* \"#utility.yul\":2210:2230   */\n      calldataload\n        /* \"#utility.yul\":2200:2230   */\n      swap1\n      pop\n        /* \"#utility.yul\":2253:2271   */\n      0xffffffffffffffff\n        /* \"#utility.yul\":2245:2251   */\n      dup2\n        /* \"#utility.yul\":2242:2272   */\n      gt\n        /* \"#utility.yul\":2239:2356   */\n      iszero\n      tag_81\n      jumpi\n        /* \"#utility.yul\":2275:2354   */\n      tag_82\n      tag_40\n      jump\t// in\n    tag_82:\n        /* \"#utility.yul\":2239:2356   */\n    tag_81:\n        /* \"#utility.yul\":2389:2393   */\n      0x20\n        /* \"#utility.yul\":2381:2387   */\n      dup4\n        /* \"#utility.yul\":2377:2394   */\n      add\n        /* \"#utility.yul\":2365:2394   */\n      swap2\n      pop\n        /* \"#utility.yul\":2443:2446   */\n      dup4\n        /* \"#utility.yul\":2435:2439   */\n      0x01\n        /* \"#utility.yul\":2427:2433   */\n      dup3\n        /* \"#utility.yul\":2423:2440   */\n      mul\n        /* \"#utility.yul\":2413:2421   */\n      dup4\n        /* \"#utility.yul\":2409:2441   */\n      add\n        /* \"#utility.yul\":2406:2447   */\n      gt\n        /* \"#utility.yul\":2403:2531   */\n      iszero\n      tag_83\n      jumpi\n        /* \"#utility.yul\":2450:2529   */\n      tag_84\n      tag_41\n      jump\t// in\n    tag_84:\n        /* \"#utility.yul\":2403:2531   */\n    tag_83:\n        /* \"#utility.yul\":1985:2537   */\n      swap3\n      pop\n      swap3\n      swap1\n      pop\n      jump\t// out\n        /* \"#utility.yul\":2543:3215   */\n    tag_13:\n        /* \"#utility.yul\":2622:2628   */\n      0x00\n        /* \"#utility.yul\":2630:2636   */\n      dup1\n        /* \"#utility.yul\":2638:2644   */\n      0x00\n        /* \"#utility.yul\":2687:2689   */\n      0x40\n        /* \"#utility.yul\":2675:2684   */\n      dup5\n        /* \"#utility.yul\":2666:2673   */\n      dup7\n        /* \"#utility.yul\":2662:2685   */\n      sub\n        /* \"#utility.yul\":2658:2690   */\n      slt\n        /* \"#utility.yul\":2655:2774   */\n      iszero\n      tag_86\n      jumpi\n        /* \"#utility.yul\":2693:2772   */\n      tag_87\n      tag_31\n      jump\t// in\n    tag_87:\n        /* \"#utility.yul\":2655:2774   */\n    tag_86:\n        /* \"#utility.yul\":2813:2814   */\n      0x00\n        /* \"#utility.yul\":2838:2891   */\n      tag_88\n        /* \"#utility.yul\":2883:2890   */\n      dup7\n        /* \"#utility.yul\":2874:2880   */\n      dup3\n        /* \"#utility.yul\":2863:2872   */\n      dup8\n        /* \"#utility.yul\":2859:2881   */\n      add\n        /* \"#utility.yul\":2838:2891   */\n      tag_36\n      jump\t// in\n    tag_88:\n        /* \"#utility.yul\":2828:2891   */\n      swap4\n      pop\n        /* \"#utility.yul\":2784:2901   */\n      pop\n        /* \"#utility.yul\":2968:2970   */\n      0x20\n        /* \"#utility.yul\":2957:2966   */\n      dup5\n        /* \"#utility.yul\":2953:2971   */\n      add\n        /* \"#utility.yul\":2940:2972   */\n      calldataload\n        /* \"#utility.yul\":2999:3017   */\n      0xffffffffffffffff\n        /* \"#utility.yul\":2991:2997   */\n      dup2\n        /* \"#utility.yul\":2988:3018   */\n      gt\n        /* \"#utility.yul\":2985:3102   */\n      iszero\n      tag_89\n      jumpi\n        /* \"#utility.yul\":3021:3100   */\n      tag_90\n      tag_32\n      jump\t// in\n    tag_90:\n        /* \"#utility.yul\":2985:3102   */\n    tag_89:\n        /* \"#utility.yul\":3134:3198   */\n      tag_91\n        /* \"#utility.yul\":3190:3197   */\n      dup7\n        /* \"#utility.yul\":3181:3187   */\n      dup3\n        /* \"#utility.yul\":3170:3179   */\n      dup8\n        /* \"#utility.yul\":3166:3188   */\n      add\n        /* \"#utility.yul\":3134:3198   */\n      tag_42\n      jump\t// in\n    tag_91:\n        /* \"#utility.yul\":3116:3198   */\n      swap3\n      pop\n      swap3\n      pop\n        /* \"#utility.yul\":2911:3208   */\n      pop\n        /* \"#utility.yul\":2543:3215   */\n      swap3\n      pop\n      swap3\n      pop\n      swap3\n      jump\t// out\n        /* \"#utility.yul\":3221:3298   */\n    tag_43:\n        /* \"#utility.yul\":3258:3265   */\n      0x00\n        /* \"#utility.yul\":3287:3292   */\n      dup2\n        /* \"#utility.yul\":3276:3292   */\n      swap1\n      pop\n        /* \"#utility.yul\":3221:3298   */\n      swap2\n      swap1\n      pop\n      jump\t// out\n        /* \"#utility.yul\":3304:3484   */\n    tag_44:\n        /* \"#utility.yul\":3352:3429   */\n      0x4e487b7100000000000000000000000000000000000000000000000000000000\n        /* \"#utility.yul\":3349:3350   */\n      0x00\n        /* \"#utility.yul\":3342:3430   */\n      mstore\n        /* \"#utility.yul\":3449:3453   */\n      0x11\n        /* \"#utility.yul\":3446:3447   */\n      0x04\n        /* \"#utility.yul\":3439:3454   */\n      mstore\n        /* \"#utility.yul\":3473:3477   */\n      0x24\n        /* \"#utility.yul\":3470:3471   */\n      0x00\n        /* \"#utility.yul\":3463:3478   */\n      revert\n        /* \"#utility.yul\":3490:3681   */\n    tag_20:\n        /* \"#utility.yul\":3530:3533   */\n      0x00\n        /* \"#utility.yul\":3549:3569   */\n      tag_95\n        /* \"#utility.yul\":3567:3568   */\n      dup3\n        /* \"#utility.yul\":3549:3569   */\n      tag_43\n      jump\t// in\n    tag_95:\n        /* \"#utility.yul\":3544:3569   */\n      swap2\n      pop\n        /* \"#utility.yul\":3583:3603   */\n      tag_96\n        /* \"#utility.yul\":3601:3602   */\n      dup4\n        /* \"#utility.yul\":3583:3603   */\n      tag_43\n      jump\t// in\n    tag_96:\n        /* \"#utility.yul\":3578:3603   */\n      swap3\n      pop\n        /* \"#utility.yul\":3626:3627   */\n      dup3\n        /* \"#utility.yul\":3623:3624   */\n      dup3\n        /* \"#utility.yul\":3619:3628   */\n      add\n        /* \"#utility.yul\":3612:3628   */\n      swap1\n      pop\n        /* \"#utility.yul\":3647:3650   */\n      dup1\n        /* \"#utility.yul\":3644:3645   */\n      dup3\n        /* \"#utility.yul\":3641:3651   */\n      gt\n        /* \"#utility.yul\":3638:3674   */\n      iszero\n      tag_97\n      jumpi\n        /* \"#utility.yul\":3654:3672   */\n      tag_98\n      tag_44\n      jump\t// in\n    tag_98:\n        /* \"#utility.yul\":3638:3674   */\n    tag_97:\n        /* \"#utility.yul\":3490:3681   */\n      swap3\n      swap2\n      pop\n      pop\n      jump\t// out\n        /* \"#utility.yul\":3687:3867   */\n    tag_23:\n        /* \"#utility.yul\":3735:3812   */\n      0x4e487b7100000000000000000000000000000000000000000000000000000000\n        /* \"#utility.yul\":3732:3733   */\n      0x00\n        /* \"#utility.yul\":3725:3813   */\n      mstore\n        /* \"#utility.yul\":3832:3836   */\n      0x32\n        /* \"#utility.yul\":3829:3830   */\n      0x04\n        /* \"#utility.yul\":3822:3837   */\n      mstore\n        /* \"#utility.yul\":3856:3860   */\n      0x24\n        /* \"#utility.yul\":3853:3854   */\n      0x00\n        /* \"#utility.yul\":3846:3861   */\n      revert\n        /* \"#utility.yul\":3873:4106   */\n    tag_26:\n        /* \"#utility.yul\":3912:3915   */\n      0x00\n        /* \"#utility.yul\":3935:3959   */\n      tag_101\n        /* \"#utility.yul\":3953:3958   */\n      dup3\n        /* \"#utility.yul\":3935:3959   */\n      tag_43\n      jump\t// in\n    tag_101:\n        /* \"#utility.yul\":3926:3959   */\n      swap2\n      pop\n        /* \"#utility.yul\":3981:4047   */\n      0xffffffffffffffffffffffffffffffffffffffffffffffffffffffffffffffff\n        /* \"#utility.yul\":3974:3979   */\n      dup3\n        /* \"#utility.yul\":3971:4048   */\n      sub\n        /* \"#utility.yul\":3968:4071   */\n      tag_102\n      jumpi\n        /* \"#utility.yul\":4051:4069   */\n      tag_103\n      tag_44\n      jump\t// in\n    tag_103:\n        /* \"#utility.yul\":3968:4071   */\n    tag_102:\n        /* \"#utility.yul\":4098:4099   */\n      0x01\n        /* \"#utility.yul\":4091:4096   */\n      dup3\n        /* \"#utility.yul\":4087:4100   */\n      add\n        /* \"#utility.yul\":4080:4100   */\n      swap1\n      pop\n        /* \"#utility.yul\":3873:4106   */\n      swap2\n      swap1\n      pop\n      jump\t// out\n        /* \"#utility.yul\":4112:4292   */\n    tag_45:\n        /* \"#utility.yul\":4160:4237   */\n      0x4e487b7100000000000000000000000000000000000000000000000000000000\n        /* \"#utility.yul\":4157:4158   */\n      0x00\n        /* \"#utility.yul\":4150:4238   */\n      mstore\n        /* \"#utility.yul\":4257:4261   */\n      0x21\n        /* \"#utility.yul\":4254:4255   */\n      0x04\n        /* \"#utility.yul\":4247:4262   */\n      mstore\n        /* \"#utility.yul\":4281:4285   */\n      0x24\n        /* \"#utility.yul\":4278:4279   */\n      0x00\n        /* \"#utility.yul\":4271:4286   */\n      revert\n        /* \"#utility.yul\":4298:4417   */\n    tag_46:\n        /* \"#utility.yul\":4385:4386   */\n      0x04\n        /* \"#utility.yul\":4378:4383   */\n      dup2\n        /* \"#utility.yul\":4375:4387   */\n      lt\n        /* \"#utility.yul\":4365:4411   */\n      tag_106\n      jumpi\n        /* \"#utility.yul\":4391:4409   */\n      tag_107\n      tag_45\n      jump\t// in\n    tag_107:\n        /* \"#utility.yul\":4365:4411   */\n    tag_106:\n        /* \"#utility.yul\":4298:4417   */\n      pop\n      jump\t// out\n        /* \"#utility.yul\":4423:4562   */\n    tag_47:\n        /* \"#utility.yul\":4474:4481   */\n      0x00\n        /* \"#utility.yul\":4503:4508   */\n      dup2\n        /* \"#utility.yul\":4492:4508   */\n      swap1\n      pop\n        /* \"#utility.yul\":4509:4556   */\n      tag_109\n        /* \"#utility.yul\":4550:4555   */\n      dup3\n        /* \"#utility.yul\":4509:4556   */\n      tag_46\n      jump\t// in\n    tag_109:\n        /* \"#utility.yul\":4423:4562   */\n      swap2\n      swap1\n      pop\n      jump\t// out\n        /* \"#utility.yul\":4568:4707   */\n    tag_48:\n        /* \"#utility.yul\":4630:4639   */\n      0x00\n        /* \"#utility.yul\":4663:4701   */\n      tag_111\n        /* \"#utility.yul\":4695:4700   */\n      dup3\n        /* \"#utility.yul\":4663:4701   */\n      tag_47\n      jump\t// in\n    tag_111:\n        /* \"#utility.yul\":4650:4701   */\n      swap1\n      pop\n        /* \"#utility.yul\":4568:4707   */\n      swap2\n      swap1\n      pop\n      jump\t// out\n        /* \"#utility.yul\":4713:4868   */\n    tag_49:\n        /* \"#utility.yul\":4812:4861   */\n      tag_113\n        /* \"#utility.yul\":4855:4860   */\n      dup2\n        /* \"#utility.yul\":4812:4861   */\n      tag_48\n      jump\t// in\n    tag_113:\n        /* \"#utility.yul\":4807:4810   */\n      dup3\n        /* \"#utility.yul\":4800:4862   */\n      mstore\n        /* \"#utility.yul\":4713:4868   */\n      pop\n      pop\n      jump\t// out\n        /* \"#utility.yul\":4874:4996   */\n    tag_50:\n        /* \"#utility.yul\":4964:4965   */\n      0x04\n        /* \"#utility.yul\":4957:4962   */\n      dup2\n        /* \"#utility.yul\":4954:4966   */\n      lt\n        /* \"#utility.yul\":4944:4990   */\n      tag_115\n      jumpi\n        /* \"#utility.yul\":4970:4988   */\n      tag_116\n      tag_45\n      jump\t// in\n    tag_116:\n        /* \"#utility.yul\":4944:4990   */\n    tag_115:\n        /* \"#utility.yul\":4874:4996   */\n      pop\n      jump\t// out\n        /* \"#utility.yul\":5002:5147   */\n    tag_51:\n        /* \"#utility.yul\":5056:5063   */\n      0x00\n        /* \"#utility.yul\":5085:5090   */\n      dup2\n        /* \"#utility.yul\":5074:5090   */\n      swap1\n      pop\n        /* \"#utility.yul\":5091:5141   */\n      tag_118\n        /* \"#utility.yul\":5135:5140   */\n      dup3\n        /* \"#utility.yul\":5091:5141   */\n      tag_50\n      jump\t// in\n    tag_118:\n        /* \"#utility.yul\":5002:5147   */\n      swap2\n      swap1\n      pop\n      jump\t// out\n        /* \"#utility.yul\":5153:5298   */\n    tag_52:\n        /* \"#utility.yul\":5218:5227   */\n      0x00\n        /* \"#utility.yul\":5251:5292   */\n      tag_120\n        /* \"#utility.yul\":5286:5291   */\n      dup3\n        /* \"#utility.yul\":5251:5292   */\n      tag_51\n      jump\t// in\n    tag_120:\n        /* \"#utility.yul\":5238:5292   */\n      swap1\n      pop\n        /* \"#utility.yul\":5153:5298   */\n      swap2\n      swap1\n      pop\n      jump\t// out\n        /* \"#utility.yul\":5304:5465   */\n    tag_53:\n        /* \"#utility.yul\":5406:5458   */\n      tag_122\n        /* \"#utility.yul\":5452:5457   */\n      dup2\n        /* \"#utility.yul\":5406:5458   */\n      tag_52\n      jump\t// in\n    tag_122:\n        /* \"#utility.yul\":5401:5404   */\n      dup3\n        /* \"#utility.yul\":5394:5459   */\n      mstore\n        /* \"#utility.yul\":5304:5465   */\n      pop\n      pop\n      jump\t// out\n        /* \"#utility.yul\":5471:5857   */\n    tag_29:\n        /* \"#utility.yul\":5619:5623   */\n      0x00\n        /* \"#utility.yul\":5657:5659   */\n      0x40\n        /* \"#utility.yul\":5646:5655   */\n      dup3\n        /* \"#utility.yul\":5642:5660   */\n      add\n        /* \"#utility.yul\":5634:5660   */\n      swap1\n      pop\n        /* \"#utility.yul\":5670:5753   */\n      tag_124\n        /* \"#utility.yul\":5750:5751   */\n      0x00\n        /* \"#utility.yul\":5739:5748   */\n      dup4\n        /* \"#utility.yul\":5735:5752   */\n      add\n        /* \"#utility.yul\":5726:5732   */\n      dup6\n        /* \"#utility.yul\":5670:5753   */\n      tag_49\n      jump\t// in\n    tag_124:\n        /* \"#utility.yul\":5763:5850   */\n      tag_125\n        /* \"#utility.yul\":5846:5848   */\n      0x20\n        /* \"#utility.yul\":5835:5844   */\n      dup4\n        /* \"#utility.yul\":5831:5849   */\n      add\n        /* \"#utility.yul\":5822:5828   */\n      dup5\n        /* \"#utility.yul\":5763:5850   */\n      tag_53\n      jump\t// in\n    tag_125:\n        /* \"#utility.yul\":5471:5857   */\n      swap4\n      swap3\n      pop\n      pop\n      pop\n      jump\t// out\n\n    auxdata: 0xa2646970667358221220caf264819bfc4cd62e3af0050eebe321101250a748bb3d720f5ce321db3bd3a064736f6c634300081a0033\n}\n",
				"bytecode": {
					"linkReferences": {},
					"object": "6080604052348015600e575f80fd5b506105738061001c5f395ff3fe608060405234801561000f575f80fd5b5060043610610034575f3560e01c80636bb8b518146100385780638aa5dfd014610068575b5f80fd5b610052600480360381019061004d9190610264565b610084565b60405161005f91906102a9565b60405180910390f35b610082600480360381019061007d9190610323565b6100a0565b005b5f602052805f5260405f205f915054906101000a900460ff1681565b5f805b838390506001826100b491906103b6565b101561011f5760ff60f81b8484838181106100d2576100d16103e9565b5b9050013560f81c60f81b7effffffffffffffffffffffffffffffffffffffffffffffffffffffffffffff19160361010c576001915061011f565b808061011790610416565b9150506100a3565b5080610157576040517f34d02eb000000000000000000000000000000000000000000000000000000000815260040160405180910390fd5b60015f803373ffffffffffffffffffffffffffffffffffffffff1673ffffffffffffffffffffffffffffffffffffffff1681526020019081526020015f205f6101000a81548160ff0219169083151502179055503373ffffffffffffffffffffffffffffffffffffffff167f4630e4d8ee2366488de2e4361bb2c5a1ebd888b5590e3f7a70dc072e37d60e916003806040516101f4929190610516565b60405180910390a250505050565b5f80fd5b5f80fd5b5f73ffffffffffffffffffffffffffffffffffffffff82169050919050565b5f6102338261020a565b9050919050565b61024381610229565b811461024d575f80fd5b50565b5f8135905061025e8161023a565b92915050565b5f6020828403121561027957610278610202565b5b5f61028684828501610250565b91505092915050565b5f8115159050919050565b6102a38161028f565b82525050565b5f6020820190506102bc5f83018461029a565b92915050565b5f80fd5b5f80fd5b5f80fd5b5f8083601f8401126102e3576102e26102c2565b5b8235905067ffffffffffffffff811115610300576102ff6102c6565b5b60208301915083600182028301111561031c5761031b6102ca565b5b9250929050565b5f805f6040848603121561033a57610339610202565b5b5f61034786828701610250565b935050602084013567ffffffffffffffff81111561036857610367610206565b5b610374868287016102ce565b92509250509250925092565b5f819050919050565b7f4e487b71000000000000000000000000000000000000000000000000000000005f52601160045260245ffd5b5f6103c082610380565b91506103cb83610380565b92508282019050808211156103e3576103e2610389565b5b92915050565b7f4e487b71000000000000000000000000000000000000000000000000000000005f52603260045260245ffd5b5f61042082610380565b91507fffffffffffffffffffffffffffffffffffffffffffffffffffffffffffffffff820361045257610451610389565b5b600182019050919050565b7f4e487b71000000000000000000000000000000000000000000000000000000005f52602160045260245ffd5b6004811061049b5761049a61045d565b5b50565b5f8190506104ab8261048a565b919050565b5f6104ba8261049e565b9050919050565b6104ca816104b0565b82525050565b600481106104e1576104e061045d565b5b50565b5f8190506104f1826104d0565b919050565b5f610500826104e4565b9050919050565b610510816104f6565b82525050565b5f6040820190506105295f8301856104c1565b6105366020830184610507565b939250505056fea2646970667358221220caf264819bfc4cd62e3af0050eebe321101250a748bb3d720f5ce321db3bd3a064736f6c634300081a0033",
					"opcodes": "PUSH1 0x80 PUSH1 0x40 MSTORE CALLVALUE DUP1 ISZERO PUSH1 0xE JUMPI PUSH0 DUP1 REVERT JUMPDEST POP PUSH2 0x573 DUP1 PUSH2 0x1C PUSH0 CODECOPY PUSH0 RETURN INVALID PUSH1 0x80 PUSH1 0x40 MSTORE CALLVALUE DUP1 ISZERO PUSH2 0xF JUMPI PUSH0 DUP1 REVERT JUMPDEST POP PUSH1 0x4 CALLDATASIZE LT PUSH2 0x34 JUMPI PUSH0 CALLDATALOAD PUSH1 0xE0 SHR DUP1 PUSH4 0x6BB8B518 EQ PUSH2 0x38 JUMPI DUP1 PUSH4 0x8AA5DFD0 EQ PUSH2 0x68 JUMPI JUMPDEST PUSH0 DUP1 REVERT JUMPDEST PUSH2 0x52 PUSH1 0x4 DUP1 CALLDATASIZE SUB DUP2 ADD SWAP1 PUSH2 0x4D SWAP2 SWAP1 PUSH2 0x264 JUMP JUMPDEST PUSH2 0x84 JUMP JUMPDEST PUSH1 0x40 MLOAD PUSH2 0x5F SWAP2 SWAP1 PUSH2 0x2A9 JUMP JUMPDEST PUSH1 0x40 MLOAD DUP1 SWAP2 SUB SWAP1 RETURN JUMPDEST PUSH2 0x82 PUSH1 0x4 DUP1 CALLDATASIZE SUB DUP2 ADD SWAP1 PUSH2 0x7D SWAP2 SWAP1 PUSH2 0x323 JUMP JUMPDEST PUSH2 0xA0 JUMP JUMPDEST STOP JUMPDEST PUSH0 PUSH1 0x20 MSTORE DUP1 PUSH0 MSTORE PUSH1 0x40 PUSH0 KECCAK256 PUSH0 SWAP2 POP SLOAD SWAP1 PUSH2 0x100 EXP SWAP1 DIV PUSH1 0xFF AND DUP2 JUMP JUMPDEST PUSH0 DUP1 JUMPDEST DUP4 DUP4 SWAP1 POP PUSH1 0x1 DUP3 PUSH2 0xB4 SWAP2 SWAP1 PUSH2 0x3B6 JUMP JUMPDEST LT ISZERO PUSH2 0x11F JUMPI PUSH1 0xFF PUSH1 0xF8 SHL DUP5 DUP5 DUP4 DUP2 DUP2 LT PUSH2 0xD2 JUMPI PUSH2 0xD1 PUSH2 0x3E9 JUMP JUMPDEST JUMPDEST SWAP1 POP ADD CALLDATALOAD PUSH1 0xF8 SHR PUSH1 0xF8 SHL PUSH31 0xFFFFFFFFFFFFFFFFFFFFFFFFFFFFFFFFFFFFFFFFFFFFFFFFFFFFFFFFFFFFFF NOT AND SUB PUSH2 0x10C JUMPI PUSH1 0x1 SWAP2 POP PUSH2 0x11F JUMP JUMPDEST DUP1 DUP1 PUSH2 0x117 SWAP1 PUSH2 0x416 JUMP JUMPDEST SWAP2 POP POP PUSH2 0xA3 JUMP JUMPDEST POP DUP1 PUSH2 0x157 JUMPI PUSH1 0x40 MLOAD PUSH32 0x34D02EB000000000000000000000000000000000000000000000000000000000 DUP2 MSTORE PUSH1 0x4 ADD PUSH1 0x40 MLOAD DUP1 SWAP2 SUB SWAP1 REVERT JUMPDEST PUSH1 0x1 PUSH0 DUP1 CALLER PUSH20 0xFFFFFFFFFFFFFFFFFFFFFFFFFFFFFFFFFFFFFFFF AND PUSH20 0xFFFFFFFFFFFFFFFFFFFFFFFFFFFFFFFFFFFFFFFF AND DUP2 MSTORE PUSH1 0x20 ADD SWAP1 DUP2 MSTORE PUSH1 0x20 ADD PUSH0 KECCAK256 PUSH0 PUSH2 0x100 EXP DUP2 SLOAD DUP2 PUSH1 0xFF MUL NOT AND SWAP1 DUP4 ISZERO ISZERO MUL OR SWAP1 SSTORE POP CALLER PUSH20 0xFFFFFFFFFFFFFFFFFFFFFFFFFFFFFFFFFFFFFFFF AND PUSH32 0x4630E4D8EE2366488DE2E4361BB2C5A1EBD888B5590E3F7A70DC072E37D60E91 PUSH1 0x3 DUP1 PUSH1 0x40 MLOAD PUSH2 0x1F4 SWAP3 SWAP2 SWAP1 PUSH2 0x516 JUMP JUMPDEST PUSH1 0x40 MLOAD DUP1 SWAP2 SUB SWAP1 LOG2 POP POP POP POP JUMP JUMPDEST PUSH0 DUP1 REVERT JUMPDEST PUSH0 DUP1 REVERT JUMPDEST PUSH0 PUSH20 0xFFFFFFFFFFFFFFFFFFFFFFFFFFFFFFFFFFFFFFFF DUP3 AND SWAP1 POP SWAP2 SWAP1 POP JUMP JUMPDEST PUSH0 PUSH2 0x233 DUP3 PUSH2 0x20A JUMP JUMPDEST SWAP1 POP SWAP2 SWAP1 POP JUMP JUMPDEST PUSH2 0x243 DUP2 PUSH2 0x229 JUMP JUMPDEST DUP2 EQ PUSH2 0x24D JUMPI PUSH0 DUP1 REVERT JUMPDEST POP JUMP JUMPDEST PUSH0 DUP2 CALLDATALOAD SWAP1 POP PUSH2 0x25E DUP2 PUSH2 0x23A JUMP JUMPDEST SWAP3 SWAP2 POP POP JUMP JUMPDEST PUSH0 PUSH1 0x20 DUP3 DUP5 SUB SLT ISZERO PUSH2 0x279 JUMPI PUSH2 0x278 PUSH2 0x202 JUMP JUMPDEST JUMPDEST PUSH0 PUSH2 0x286 DUP5 DUP3 DUP6 ADD PUSH2 0x250 JUMP JUMPDEST SWAP2 POP POP SWAP3 SWAP2 POP POP JUMP JUMPDEST PUSH0 DUP2 ISZERO ISZERO SWAP1 POP SWAP2 SWAP1 POP JUMP JUMPDEST PUSH2 0x2A3 DUP2 PUSH2 0x28F JUMP JUMPDEST DUP3 MSTORE POP POP JUMP JUMPDEST PUSH0 PUSH1 0x20 DUP3 ADD SWAP1 POP PUSH2 0x2BC PUSH0 DUP4 ADD DUP5 PUSH2 0x29A JUMP JUMPDEST SWAP3 SWAP2 POP POP JUMP JUMPDEST PUSH0 DUP1 REVERT JUMPDEST PUSH0 DUP1 REVERT JUMPDEST PUSH0 DUP1 REVERT JUMPDEST PUSH0 DUP1 DUP4 PUSH1 0x1F DUP5 ADD SLT PUSH2 0x2E3 JUMPI PUSH2 0x2E2 PUSH2 0x2C2 JUMP JUMPDEST JUMPDEST DUP3 CALLDATALOAD SWAP1 POP PUSH8 0xFFFFFFFFFFFFFFFF DUP2 GT ISZERO PUSH2 0x300 JUMPI PUSH2 0x2FF PUSH2 0x2C6 JUMP JUMPDEST JUMPDEST PUSH1 0x20 DUP4 ADD SWAP2 POP DUP4 PUSH1 0x1 DUP3 MUL DUP4 ADD GT ISZERO PUSH2 0x31C JUMPI PUSH2 0x31B PUSH2 0x2CA JUMP JUMPDEST JUMPDEST SWAP3 POP SWAP3 SWAP1 POP JUMP JUMPDEST PUSH0 DUP1 PUSH0 PUSH1 0x40 DUP5 DUP7 SUB SLT ISZERO PUSH2 0x33A JUMPI PUSH2 0x339 PUSH2 0x202 JUMP JUMPDEST JUMPDEST PUSH0 PUSH2 0x347 DUP7 DUP3 DUP8 ADD PUSH2 0x250 JUMP JUMPDEST SWAP4 POP POP PUSH1 0x20 DUP5 ADD CALLDATALOAD PUSH8 0xFFFFFFFFFFFFFFFF DUP2 GT ISZERO PUSH2 0x368 JUMPI PUSH2 0x367 PUSH2 0x206 JUMP JUMPDEST JUMPDEST PUSH2 0x374 DUP7 DUP3 DUP8 ADD PUSH2 0x2CE JUMP JUMPDEST SWAP3 POP SWAP3 POP POP SWAP3 POP SWAP3 POP SWAP3 JUMP JUMPDEST PUSH0 DUP2 SWAP1 POP SWAP2 SWAP1 POP JUMP JUMPDEST PUSH32 0x4E487B7100000000000000000000000000000000000000000000000000000000 PUSH0 MSTORE PUSH1 0x11 PUSH1 0x4 MSTORE PUSH1 0x24 PUSH0 REVERT JUMPDEST PUSH0 PUSH2 0x3C0 DUP3 PUSH2 0x380 JUMP JUMPDEST SWAP2 POP PUSH2 0x3CB DUP4 PUSH2 0x380 JUMP JUMPDEST SWAP3 POP DUP3 DUP3 ADD SWAP1 POP DUP1 DUP3 GT ISZERO PUSH2 0x3E3 JUMPI PUSH2 0x3E2 PUSH2 0x389 JUMP JUMPDEST JUMPDEST SWAP3 SWAP2 POP POP JUMP JUMPDEST PUSH32 0x4E487B7100000000000000000000000000000000000000000000000000000000 PUSH0 MSTORE PUSH1 0x32 PUSH1 0x4 MSTORE PUSH1 0x24 PUSH0 REVERT JUMPDEST PUSH0 PUSH2 0x420 DUP3 PUSH2 0x380 JUMP JUMPDEST SWAP2 POP PUSH32 0xFFFFFFFFFFFFFFFFFFFFFFFFFFFFFFFFFFFFFFFFFFFFFFFFFFFFFFFFFFFFFFFF DUP3 SUB PUSH2 0x452 JUMPI PUSH2 0x451 PUSH2 0x389 JUMP JUMPDEST JUMPDEST PUSH1 0x1 DUP3 ADD SWAP1 POP SWAP2 SWAP1 POP JUMP JUMPDEST PUSH32 0x4E487B7100000000000000000000000000000000000000000000000000000000 PUSH0 MSTORE PUSH1 0x21 PUSH1 0x4 MSTORE PUSH1 0x24 PUSH0 REVERT JUMPDEST PUSH1 0x4 DUP2 LT PUSH2 0x49B JUMPI PUSH2 0x49A PUSH2 0x45D JUMP JUMPDEST JUMPDEST POP JUMP JUMPDEST PUSH0 DUP2 SWAP1 POP PUSH2 0x4AB DUP3 PUSH2 0x48A JUMP JUMPDEST SWAP2 SWAP1 POP JUMP JUMPDEST PUSH0 PUSH2 0x4BA DUP3 PUSH2 0x49E JUMP JUMPDEST SWAP1 POP SWAP2 SWAP1 POP JUMP JUMPDEST PUSH2 0x4CA DUP2 PUSH2 0x4B0 JUMP JUMPDEST DUP3 MSTORE POP POP JUMP JUMPDEST PUSH1 0x4 DUP2 LT PUSH2 0x4E1 JUMPI PUSH2 0x4E0 PUSH2 0x45D JUMP JUMPDEST JUMPDEST POP JUMP JUMPDEST PUSH0 DUP2 SWAP1 POP PUSH2 0x4F1 DUP3 PUSH2 0x4D0 JUMP JUMPDEST SWAP2 SWAP1 POP JUMP JUMPDEST PUSH0 PUSH2 0x500 DUP3 PUSH2 0x4E4 JUMP JUMPDEST SWAP1 POP SWAP2 SWAP1 POP JUMP JUMPDEST PUSH2 0x510 DUP2 PUSH2 0x4F6 JUMP JUMPDEST DUP3 MSTORE POP POP JUMP JUMPDEST PUSH0 PUSH1 0x40 DUP3 ADD SWAP1 POP PUSH2 0x529 PUSH0 DUP4 ADD DUP6 PUSH2 0x4C1 JUMP JUMPDEST PUSH2 0x536 PUSH1 0x20 DUP4 ADD DUP5 PUSH2 0x507 JUMP JUMPDEST SWAP4 SWAP3 POP POP POP JUMP INVALID LOG2 PUSH5 0x6970667358 0x22 SLT KECCAK256 0xCA CALLCODE PUSH5 0x819BFC4CD6 0x2E GASPRICE CREATE SDIV 0xE 0xEB 0xE3 0x21 LT SLT POP 0xA7 BASEFEE 0xBB RETURNDATASIZE PUSH19 0xF5CE321DB3BD3A064736F6C634300081A0033 "
				},
				"gasEstimates": {
					"creation": {
						"codeDepositCost": "279000",
						"executionCost": "316",
						"totalCost": "279316"
					},
					"external": {
						"reneg(address)": "2810",
						"renegotiate(address,bytes)": "infinite"
					}
				},
				"methodIdentifiers": {
					"reneg(address)": "6bb8b518",
					"renegotiate(address,bytes)": "8aa5dfd0"
				}
			},
			"storageLayout": {
				"storage": [
					{
						"astId": 400,
						"contract": "T/Transport Layer Security (TLS)/Transport Layer Security (TLS).sol:TLSSafeRenegotiation",
						"label": "reneg",
						"offset": 0,
						"slot": "0",
						"type": "t_mapping(t_address,t_bool)"
					}
				],
				"types": {
					"t_address": {
						"encoding": "inplace",
						"label": "address",
						"numberOfBytes": "20"
					},
					"t_bool": {
						"encoding": "inplace",
						"label": "bool",
						"numberOfBytes": "1"
					},
					"t_mapping(t_address,t_bool)": {
						"encoding": "mapping",
						"key": "t_address",
						"label": "mapping(address => bool)",
						"numberOfBytes": "32",
						"value": "t_bool"
					}
				}
			},
			"userdoc": {
				"kind": "user",
				"methods": {
					"renegotiate(address,bytes)": {
						"notice": "✅ require that ext includes the secure_renegotiation flag (0xFF)"
					}
				},
				"version": 1
			}
		}
	}
}