{
	"T/Transport Layer Security (TLS)/Transport Layer Security (TLS).sol": {
		"TLSSafeHeartbeat": {
			"abi": [
				{
					"inputs": [],
					"name": "TLS__OutOfBounds",
					"type": "error"
				},
				{
					"anonymous": false,
					"inputs": [
						{
							"indexed": true,
							"internalType": "address",
							"name": "who",
							"type": "address"
						},
						{
							"indexed": false,
							"internalType": "enum TLSLayerType",
							"name": "layer",
							"type": "uint8"
						},
						{
							"indexed": false,
							"internalType": "enum TLSDefenseType",
							"name": "defense",
							"type": "uint8"
						}
					],
					"name": "TLSDefended",
					"type": "event"
				},
				{
					"inputs": [],
					"name": "MAX_LEN",
					"outputs": [
						{
							"internalType": "uint16",
							"name": "",
							"type": "uint16"
						}
					],
					"stateMutability": "view",
					"type": "function"
				},
				{
					"inputs": [
						{
							"internalType": "bytes",
							"name": "payload",
							"type": "bytes"
						},
						{
							"internalType": "uint16",
							"name": "len",
							"type": "uint16"
						}
					],
					"name": "heartbeat",
					"outputs": [],
					"stateMutability": "nonpayable",
					"type": "function"
				},
				{
					"inputs": [],
					"name": "lastPing",
					"outputs": [
						{
							"internalType": "bytes",
							"name": "",
							"type": "bytes"
						}
					],
					"stateMutability": "view",
					"type": "function"
				}
			],
			"devdoc": {
				"kind": "dev",
				"methods": {},
				"version": 1
			},
			"evm": {
				"assembly": "    /* \"T/Transport Layer Security (TLS)/Transport Layer Security (TLS).sol\":4480:4946  contract TLSSafeHeartbeat {... */\n  mstore(0x40, 0x80)\n  callvalue\n  dup1\n  iszero\n  tag_1\n  jumpi\n  0x00\n  dup1\n  revert\ntag_1:\n  pop\n  dataSize(sub_0)\n  dup1\n  dataOffset(sub_0)\n  0x00\n  codecopy\n  0x00\n  return\nstop\n\nsub_0: assembly {\n        /* \"T/Transport Layer Security (TLS)/Transport Layer Security (TLS).sol\":4480:4946  contract TLSSafeHeartbeat {... */\n      mstore(0x40, 0x80)\n      callvalue\n      dup1\n      iszero\n      tag_1\n      jumpi\n      0x00\n      dup1\n      revert\n    tag_1:\n      pop\n      jumpi(tag_2, lt(calldatasize, 0x04))\n      shr(0xe0, calldataload(0x00))\n      dup1\n      0x2760c57e\n      eq\n      tag_3\n      jumpi\n      dup1\n      0x28c21909\n      eq\n      tag_4\n      jumpi\n      dup1\n      0x5d0797c0\n      eq\n      tag_5\n      jumpi\n    tag_2:\n      0x00\n      dup1\n      revert\n        /* \"T/Transport Layer Security (TLS)/Transport Layer Security (TLS).sol\":4512:4533  bytes public lastPing */\n    tag_3:\n      tag_6\n      tag_7\n      jump\t// in\n    tag_6:\n      mload(0x40)\n      tag_8\n      swap2\n      swap1\n      tag_9\n      jump\t// in\n    tag_8:\n      mload(0x40)\n      dup1\n      swap2\n      sub\n      swap1\n      return\n        /* \"T/Transport Layer Security (TLS)/Transport Layer Security (TLS).sol\":4671:4944  function heartbeat(bytes calldata payload, uint16 len) external {... */\n    tag_4:\n      tag_10\n      0x04\n      dup1\n      calldatasize\n      sub\n      dup2\n      add\n      swap1\n      tag_11\n      swap2\n      swap1\n      tag_12\n      jump\t// in\n    tag_11:\n      tag_13\n      jump\t// in\n    tag_10:\n      stop\n        /* \"T/Transport Layer Security (TLS)/Transport Layer Security (TLS).sol\":4539:4576  uint16 public constant MAX_LEN = 4096 */\n    tag_5:\n      tag_14\n      tag_15\n      jump\t// in\n    tag_14:\n      mload(0x40)\n      tag_16\n      swap2\n      swap1\n      tag_17\n      jump\t// in\n    tag_16:\n      mload(0x40)\n      dup1\n      swap2\n      sub\n      swap1\n      return\n        /* \"T/Transport Layer Security (TLS)/Transport Layer Security (TLS).sol\":4512:4533  bytes public lastPing */\n    tag_7:\n      0x00\n      dup1\n      sload\n      tag_18\n      swap1\n      tag_19\n      jump\t// in\n    tag_18:\n      dup1\n      0x1f\n      add\n      0x20\n      dup1\n      swap2\n      div\n      mul\n      0x20\n      add\n      mload(0x40)\n      swap1\n      dup2\n      add\n      0x40\n      mstore\n      dup1\n      swap3\n      swap2\n      swap1\n      dup2\n      dup2\n      mstore\n      0x20\n      add\n      dup3\n      dup1\n      sload\n      tag_20\n      swap1\n      tag_19\n      jump\t// in\n    tag_20:\n      dup1\n      iszero\n      tag_21\n      jumpi\n      dup1\n      0x1f\n      lt\n      tag_22\n      jumpi\n      0x0100\n      dup1\n      dup4\n      sload\n      div\n      mul\n      dup4\n      mstore\n      swap2\n      0x20\n      add\n      swap2\n      jump(tag_21)\n    tag_22:\n      dup3\n      add\n      swap2\n      swap1\n      0x00\n      mstore\n      keccak256(0x00, 0x20)\n      swap1\n    tag_23:\n      dup2\n      sload\n      dup2\n      mstore\n      swap1\n      0x01\n      add\n      swap1\n      0x20\n      add\n      dup1\n      dup4\n      gt\n      tag_23\n      jumpi\n      dup3\n      swap1\n      sub\n      0x1f\n      and\n      dup3\n      add\n      swap2\n    tag_21:\n      pop\n      pop\n      pop\n      pop\n      pop\n      dup2\n      jump\t// out\n        /* \"T/Transport Layer Security (TLS)/Transport Layer Security (TLS).sol\":4671:4944  function heartbeat(bytes calldata payload, uint16 len) external {... */\n    tag_13:\n        /* \"T/Transport Layer Security (TLS)/Transport Layer Security (TLS).sol\":4755:4762  payload */\n      dup3\n      dup3\n        /* \"T/Transport Layer Security (TLS)/Transport Layer Security (TLS).sol\":4755:4769  payload.length */\n      swap1\n      pop\n        /* \"T/Transport Layer Security (TLS)/Transport Layer Security (TLS).sol\":4749:4752  len */\n      dup2\n        /* \"T/Transport Layer Security (TLS)/Transport Layer Security (TLS).sol\":4749:4769  len > payload.length */\n      0xffff\n      and\n      gt\n        /* \"T/Transport Layer Security (TLS)/Transport Layer Security (TLS).sol\":4749:4786  len > payload.length || len > MAX_LEN */\n      dup1\n      tag_25\n      jumpi\n      pop\n        /* \"T/Transport Layer Security (TLS)/Transport Layer Security (TLS).sol\":4572:4576  4096 */\n      0x1000\n        /* \"T/Transport Layer Security (TLS)/Transport Layer Security (TLS).sol\":4773:4786  len > MAX_LEN */\n      0xffff\n      and\n        /* \"T/Transport Layer Security (TLS)/Transport Layer Security (TLS).sol\":4773:4776  len */\n      dup2\n        /* \"T/Transport Layer Security (TLS)/Transport Layer Security (TLS).sol\":4773:4786  len > MAX_LEN */\n      0xffff\n      and\n      gt\n        /* \"T/Transport Layer Security (TLS)/Transport Layer Security (TLS).sol\":4749:4786  len > payload.length || len > MAX_LEN */\n    tag_25:\n        /* \"T/Transport Layer Security (TLS)/Transport Layer Security (TLS).sol\":4745:4813  if (len > payload.length || len > MAX_LEN) revert TLS__OutOfBounds() */\n      iszero\n      tag_26\n      jumpi\n        /* \"T/Transport Layer Security (TLS)/Transport Layer Security (TLS).sol\":4795:4813  TLS__OutOfBounds() */\n      mload(0x40)\n      0xadd7baf100000000000000000000000000000000000000000000000000000000\n      dup2\n      mstore\n      0x04\n      add\n      mload(0x40)\n      dup1\n      swap2\n      sub\n      swap1\n      revert\n        /* \"T/Transport Layer Security (TLS)/Transport Layer Security (TLS).sol\":4745:4813  if (len > payload.length || len > MAX_LEN) revert TLS__OutOfBounds() */\n    tag_26:\n        /* \"T/Transport Layer Security (TLS)/Transport Layer Security (TLS).sol\":4834:4841  payload */\n      dup3\n      dup3\n        /* \"T/Transport Layer Security (TLS)/Transport Layer Security (TLS).sol\":4834:4847  payload[:len] */\n      0x00\n      swap1\n        /* \"T/Transport Layer Security (TLS)/Transport Layer Security (TLS).sol\":4843:4846  len */\n      dup4\n        /* \"T/Transport Layer Security (TLS)/Transport Layer Security (TLS).sol\":4834:4847  payload[:len] */\n      0xffff\n      and\n      swap3\n      tag_27\n      swap4\n      swap3\n      swap2\n      swap1\n      tag_28\n      jump\t// in\n    tag_27:\n        /* \"T/Transport Layer Security (TLS)/Transport Layer Security (TLS).sol\":4823:4831  lastPing */\n      0x00\n        /* \"T/Transport Layer Security (TLS)/Transport Layer Security (TLS).sol\":4823:4847  lastPing = payload[:len] */\n      swap2\n      dup3\n      tag_29\n      swap3\n      swap2\n      swap1\n      tag_30\n      jump\t// in\n    tag_29:\n      pop\n        /* \"T/Transport Layer Security (TLS)/Transport Layer Security (TLS).sol\":4874:4884  msg.sender */\n      caller\n        /* \"T/Transport Layer Security (TLS)/Transport Layer Security (TLS).sol\":4862:4937  TLSDefended(msg.sender, TLSLayerType.Heartbeat, TLSDefenseType.BoundsCheck) */\n      0xffffffffffffffffffffffffffffffffffffffff\n      and\n      0x4630e4d8ee2366488de2e4361bb2c5a1ebd888b5590e3f7a70dc072e37d60e91\n        /* \"T/Transport Layer Security (TLS)/Transport Layer Security (TLS).sol\":4886:4908  TLSLayerType.Heartbeat */\n      0x02\n        /* \"T/Transport Layer Security (TLS)/Transport Layer Security (TLS).sol\":4910:4936  TLSDefenseType.BoundsCheck */\n      dup1\n        /* \"T/Transport Layer Security (TLS)/Transport Layer Security (TLS).sol\":4862:4937  TLSDefended(msg.sender, TLSLayerType.Heartbeat, TLSDefenseType.BoundsCheck) */\n      mload(0x40)\n      tag_31\n      swap3\n      swap2\n      swap1\n      tag_32\n      jump\t// in\n    tag_31:\n      mload(0x40)\n      dup1\n      swap2\n      sub\n      swap1\n      log2\n        /* \"T/Transport Layer Security (TLS)/Transport Layer Security (TLS).sol\":4671:4944  function heartbeat(bytes calldata payload, uint16 len) external {... */\n      pop\n      pop\n      pop\n      jump\t// out\n        /* \"T/Transport Layer Security (TLS)/Transport Layer Security (TLS).sol\":4539:4576  uint16 public constant MAX_LEN = 4096 */\n    tag_15:\n        /* \"T/Transport Layer Security (TLS)/Transport Layer Security (TLS).sol\":4572:4576  4096 */\n      0x1000\n        /* \"T/Transport Layer Security (TLS)/Transport Layer Security (TLS).sol\":4539:4576  uint16 public constant MAX_LEN = 4096 */\n      dup2\n      jump\t// out\n        /* \"#utility.yul\":7:105   */\n    tag_33:\n        /* \"#utility.yul\":58:64   */\n      0x00\n        /* \"#utility.yul\":92:97   */\n      dup2\n        /* \"#utility.yul\":86:98   */\n      mload\n        /* \"#utility.yul\":76:98   */\n      swap1\n      pop\n        /* \"#utility.yul\":7:105   */\n      swap2\n      swap1\n      pop\n      jump\t// out\n        /* \"#utility.yul\":111:279   */\n    tag_34:\n        /* \"#utility.yul\":194:205   */\n      0x00\n        /* \"#utility.yul\":228:234   */\n      dup3\n        /* \"#utility.yul\":223:226   */\n      dup3\n        /* \"#utility.yul\":216:235   */\n      mstore\n        /* \"#utility.yul\":268:272   */\n      0x20\n        /* \"#utility.yul\":263:266   */\n      dup3\n        /* \"#utility.yul\":259:273   */\n      add\n        /* \"#utility.yul\":244:273   */\n      swap1\n      pop\n        /* \"#utility.yul\":111:279   */\n      swap3\n      swap2\n      pop\n      pop\n      jump\t// out\n        /* \"#utility.yul\":285:424   */\n    tag_35:\n        /* \"#utility.yul\":374:380   */\n      dup3\n        /* \"#utility.yul\":369:372   */\n      dup2\n        /* \"#utility.yul\":364:367   */\n      dup4\n        /* \"#utility.yul\":358:381   */\n      mcopy\n        /* \"#utility.yul\":415:416   */\n      0x00\n        /* \"#utility.yul\":406:412   */\n      dup4\n        /* \"#utility.yul\":401:404   */\n      dup4\n        /* \"#utility.yul\":397:413   */\n      add\n        /* \"#utility.yul\":390:417   */\n      mstore\n        /* \"#utility.yul\":285:424   */\n      pop\n      pop\n      pop\n      jump\t// out\n        /* \"#utility.yul\":430:532   */\n    tag_36:\n        /* \"#utility.yul\":471:477   */\n      0x00\n        /* \"#utility.yul\":522:524   */\n      0x1f\n        /* \"#utility.yul\":518:525   */\n      not\n        /* \"#utility.yul\":513:515   */\n      0x1f\n        /* \"#utility.yul\":506:511   */\n      dup4\n        /* \"#utility.yul\":502:516   */\n      add\n        /* \"#utility.yul\":498:526   */\n      and\n        /* \"#utility.yul\":488:526   */\n      swap1\n      pop\n        /* \"#utility.yul\":430:532   */\n      swap2\n      swap1\n      pop\n      jump\t// out\n        /* \"#utility.yul\":538:911   */\n    tag_37:\n        /* \"#utility.yul\":624:627   */\n      0x00\n        /* \"#utility.yul\":652:690   */\n      tag_85\n        /* \"#utility.yul\":684:689   */\n      dup3\n        /* \"#utility.yul\":652:690   */\n      tag_33\n      jump\t// in\n    tag_85:\n        /* \"#utility.yul\":706:776   */\n      tag_86\n        /* \"#utility.yul\":769:775   */\n      dup2\n        /* \"#utility.yul\":764:767   */\n      dup6\n        /* \"#utility.yul\":706:776   */\n      tag_34\n      jump\t// in\n    tag_86:\n        /* \"#utility.yul\":699:776   */\n      swap4\n      pop\n        /* \"#utility.yul\":785:850   */\n      tag_87\n        /* \"#utility.yul\":843:849   */\n      dup2\n        /* \"#utility.yul\":838:841   */\n      dup6\n        /* \"#utility.yul\":831:835   */\n      0x20\n        /* \"#utility.yul\":824:829   */\n      dup7\n        /* \"#utility.yul\":820:836   */\n      add\n        /* \"#utility.yul\":785:850   */\n      tag_35\n      jump\t// in\n    tag_87:\n        /* \"#utility.yul\":875:904   */\n      tag_88\n        /* \"#utility.yul\":897:903   */\n      dup2\n        /* \"#utility.yul\":875:904   */\n      tag_36\n      jump\t// in\n    tag_88:\n        /* \"#utility.yul\":870:873   */\n      dup5\n        /* \"#utility.yul\":866:905   */\n      add\n        /* \"#utility.yul\":859:905   */\n      swap2\n      pop\n        /* \"#utility.yul\":628:911   */\n      pop\n        /* \"#utility.yul\":538:911   */\n      swap3\n      swap2\n      pop\n      pop\n      jump\t// out\n        /* \"#utility.yul\":917:1226   */\n    tag_9:\n        /* \"#utility.yul\":1028:1032   */\n      0x00\n        /* \"#utility.yul\":1066:1068   */\n      0x20\n        /* \"#utility.yul\":1055:1064   */\n      dup3\n        /* \"#utility.yul\":1051:1069   */\n      add\n        /* \"#utility.yul\":1043:1069   */\n      swap1\n      pop\n        /* \"#utility.yul\":1115:1124   */\n      dup2\n        /* \"#utility.yul\":1109:1113   */\n      dup2\n        /* \"#utility.yul\":1105:1125   */\n      sub\n        /* \"#utility.yul\":1101:1102   */\n      0x00\n        /* \"#utility.yul\":1090:1099   */\n      dup4\n        /* \"#utility.yul\":1086:1103   */\n      add\n        /* \"#utility.yul\":1079:1126   */\n      mstore\n        /* \"#utility.yul\":1143:1219   */\n      tag_90\n        /* \"#utility.yul\":1214:1218   */\n      dup2\n        /* \"#utility.yul\":1205:1211   */\n      dup5\n        /* \"#utility.yul\":1143:1219   */\n      tag_37\n      jump\t// in\n    tag_90:\n        /* \"#utility.yul\":1135:1219   */\n      swap1\n      pop\n        /* \"#utility.yul\":917:1226   */\n      swap3\n      swap2\n      pop\n      pop\n      jump\t// out\n        /* \"#utility.yul\":1313:1430   */\n    tag_39:\n        /* \"#utility.yul\":1422:1423   */\n      0x00\n        /* \"#utility.yul\":1419:1420   */\n      dup1\n        /* \"#utility.yul\":1412:1424   */\n      revert\n        /* \"#utility.yul\":1436:1553   */\n    tag_40:\n        /* \"#utility.yul\":1545:1546   */\n      0x00\n        /* \"#utility.yul\":1542:1543   */\n      dup1\n        /* \"#utility.yul\":1535:1547   */\n      revert\n        /* \"#utility.yul\":1559:1676   */\n    tag_41:\n        /* \"#utility.yul\":1668:1669   */\n      0x00\n        /* \"#utility.yul\":1665:1666   */\n      dup1\n        /* \"#utility.yul\":1658:1670   */\n      revert\n        /* \"#utility.yul\":1682:1799   */\n    tag_42:\n        /* \"#utility.yul\":1791:1792   */\n      0x00\n        /* \"#utility.yul\":1788:1789   */\n      dup1\n        /* \"#utility.yul\":1781:1793   */\n      revert\n        /* \"#utility.yul\":1805:1922   */\n    tag_43:\n        /* \"#utility.yul\":1914:1915   */\n      0x00\n        /* \"#utility.yul\":1911:1912   */\n      dup1\n        /* \"#utility.yul\":1904:1916   */\n      revert\n        /* \"#utility.yul\":1941:2493   */\n    tag_44:\n        /* \"#utility.yul\":1998:2006   */\n      0x00\n        /* \"#utility.yul\":2008:2014   */\n      dup1\n        /* \"#utility.yul\":2058:2061   */\n      dup4\n        /* \"#utility.yul\":2051:2055   */\n      0x1f\n        /* \"#utility.yul\":2043:2049   */\n      dup5\n        /* \"#utility.yul\":2039:2056   */\n      add\n        /* \"#utility.yul\":2035:2062   */\n      slt\n        /* \"#utility.yul\":2025:2147   */\n      tag_98\n      jumpi\n        /* \"#utility.yul\":2066:2145   */\n      tag_99\n      tag_41\n      jump\t// in\n    tag_99:\n        /* \"#utility.yul\":2025:2147   */\n    tag_98:\n        /* \"#utility.yul\":2179:2185   */\n      dup3\n        /* \"#utility.yul\":2166:2186   */\n      calldataload\n        /* \"#utility.yul\":2156:2186   */\n      swap1\n      pop\n        /* \"#utility.yul\":2209:2227   */\n      0xffffffffffffffff\n        /* \"#utility.yul\":2201:2207   */\n      dup2\n        /* \"#utility.yul\":2198:2228   */\n      gt\n        /* \"#utility.yul\":2195:2312   */\n      iszero\n      tag_100\n      jumpi\n        /* \"#utility.yul\":2231:2310   */\n      tag_101\n      tag_42\n      jump\t// in\n    tag_101:\n        /* \"#utility.yul\":2195:2312   */\n    tag_100:\n        /* \"#utility.yul\":2345:2349   */\n      0x20\n        /* \"#utility.yul\":2337:2343   */\n      dup4\n        /* \"#utility.yul\":2333:2350   */\n      add\n        /* \"#utility.yul\":2321:2350   */\n      swap2\n      pop\n        /* \"#utility.yul\":2399:2402   */\n      dup4\n        /* \"#utility.yul\":2391:2395   */\n      0x01\n        /* \"#utility.yul\":2383:2389   */\n      dup3\n        /* \"#utility.yul\":2379:2396   */\n      mul\n        /* \"#utility.yul\":2369:2377   */\n      dup4\n        /* \"#utility.yul\":2365:2397   */\n      add\n        /* \"#utility.yul\":2362:2403   */\n      gt\n        /* \"#utility.yul\":2359:2487   */\n      iszero\n      tag_102\n      jumpi\n        /* \"#utility.yul\":2406:2485   */\n      tag_103\n      tag_43\n      jump\t// in\n    tag_103:\n        /* \"#utility.yul\":2359:2487   */\n    tag_102:\n        /* \"#utility.yul\":1941:2493   */\n      swap3\n      pop\n      swap3\n      swap1\n      pop\n      jump\t// out\n        /* \"#utility.yul\":2499:2588   */\n    tag_45:\n        /* \"#utility.yul\":2535:2542   */\n      0x00\n        /* \"#utility.yul\":2575:2581   */\n      0xffff\n        /* \"#utility.yul\":2568:2573   */\n      dup3\n        /* \"#utility.yul\":2564:2582   */\n      and\n        /* \"#utility.yul\":2553:2582   */\n      swap1\n      pop\n        /* \"#utility.yul\":2499:2588   */\n      swap2\n      swap1\n      pop\n      jump\t// out\n        /* \"#utility.yul\":2594:2714   */\n    tag_46:\n        /* \"#utility.yul\":2666:2689   */\n      tag_106\n        /* \"#utility.yul\":2683:2688   */\n      dup2\n        /* \"#utility.yul\":2666:2689   */\n      tag_45\n      jump\t// in\n    tag_106:\n        /* \"#utility.yul\":2659:2664   */\n      dup2\n        /* \"#utility.yul\":2656:2690   */\n      eq\n        /* \"#utility.yul\":2646:2708   */\n      tag_107\n      jumpi\n        /* \"#utility.yul\":2704:2705   */\n      0x00\n        /* \"#utility.yul\":2701:2702   */\n      dup1\n        /* \"#utility.yul\":2694:2706   */\n      revert\n        /* \"#utility.yul\":2646:2708   */\n    tag_107:\n        /* \"#utility.yul\":2594:2714   */\n      pop\n      jump\t// out\n        /* \"#utility.yul\":2720:2857   */\n    tag_47:\n        /* \"#utility.yul\":2765:2770   */\n      0x00\n        /* \"#utility.yul\":2803:2809   */\n      dup2\n        /* \"#utility.yul\":2790:2810   */\n      calldataload\n        /* \"#utility.yul\":2781:2810   */\n      swap1\n      pop\n        /* \"#utility.yul\":2819:2851   */\n      tag_109\n        /* \"#utility.yul\":2845:2850   */\n      dup2\n        /* \"#utility.yul\":2819:2851   */\n      tag_46\n      jump\t// in\n    tag_109:\n        /* \"#utility.yul\":2720:2857   */\n      swap3\n      swap2\n      pop\n      pop\n      jump\t// out\n        /* \"#utility.yul\":2863:3533   */\n    tag_12:\n        /* \"#utility.yul\":2941:2947   */\n      0x00\n        /* \"#utility.yul\":2949:2955   */\n      dup1\n        /* \"#utility.yul\":2957:2963   */\n      0x00\n        /* \"#utility.yul\":3006:3008   */\n      0x40\n        /* \"#utility.yul\":2994:3003   */\n      dup5\n        /* \"#utility.yul\":2985:2992   */\n      dup7\n        /* \"#utility.yul\":2981:3004   */\n      sub\n        /* \"#utility.yul\":2977:3009   */\n      slt\n        /* \"#utility.yul\":2974:3093   */\n      iszero\n      tag_111\n      jumpi\n        /* \"#utility.yul\":3012:3091   */\n      tag_112\n      tag_39\n      jump\t// in\n    tag_112:\n        /* \"#utility.yul\":2974:3093   */\n    tag_111:\n        /* \"#utility.yul\":3160:3161   */\n      0x00\n        /* \"#utility.yul\":3149:3158   */\n      dup5\n        /* \"#utility.yul\":3145:3162   */\n      add\n        /* \"#utility.yul\":3132:3163   */\n      calldataload\n        /* \"#utility.yul\":3190:3208   */\n      0xffffffffffffffff\n        /* \"#utility.yul\":3182:3188   */\n      dup2\n        /* \"#utility.yul\":3179:3209   */\n      gt\n        /* \"#utility.yul\":3176:3293   */\n      iszero\n      tag_113\n      jumpi\n        /* \"#utility.yul\":3212:3291   */\n      tag_114\n      tag_40\n      jump\t// in\n    tag_114:\n        /* \"#utility.yul\":3176:3293   */\n    tag_113:\n        /* \"#utility.yul\":3325:3389   */\n      tag_115\n        /* \"#utility.yul\":3381:3388   */\n      dup7\n        /* \"#utility.yul\":3372:3378   */\n      dup3\n        /* \"#utility.yul\":3361:3370   */\n      dup8\n        /* \"#utility.yul\":3357:3379   */\n      add\n        /* \"#utility.yul\":3325:3389   */\n      tag_44\n      jump\t// in\n    tag_115:\n        /* \"#utility.yul\":3307:3389   */\n      swap4\n      pop\n      swap4\n      pop\n        /* \"#utility.yul\":3103:3399   */\n      pop\n        /* \"#utility.yul\":3438:3440   */\n      0x20\n        /* \"#utility.yul\":3464:3516   */\n      tag_116\n        /* \"#utility.yul\":3508:3515   */\n      dup7\n        /* \"#utility.yul\":3499:3505   */\n      dup3\n        /* \"#utility.yul\":3488:3497   */\n      dup8\n        /* \"#utility.yul\":3484:3506   */\n      add\n        /* \"#utility.yul\":3464:3516   */\n      tag_47\n      jump\t// in\n    tag_116:\n        /* \"#utility.yul\":3454:3516   */\n      swap2\n      pop\n        /* \"#utility.yul\":3409:3526   */\n      pop\n        /* \"#utility.yul\":2863:3533   */\n      swap3\n      pop\n      swap3\n      pop\n      swap3\n      jump\t// out\n        /* \"#utility.yul\":3539:3654   */\n    tag_48:\n        /* \"#utility.yul\":3624:3647   */\n      tag_118\n        /* \"#utility.yul\":3641:3646   */\n      dup2\n        /* \"#utility.yul\":3624:3647   */\n      tag_45\n      jump\t// in\n    tag_118:\n        /* \"#utility.yul\":3619:3622   */\n      dup3\n        /* \"#utility.yul\":3612:3648   */\n      mstore\n        /* \"#utility.yul\":3539:3654   */\n      pop\n      pop\n      jump\t// out\n        /* \"#utility.yul\":3660:3878   */\n    tag_17:\n        /* \"#utility.yul\":3751:3755   */\n      0x00\n        /* \"#utility.yul\":3789:3791   */\n      0x20\n        /* \"#utility.yul\":3778:3787   */\n      dup3\n        /* \"#utility.yul\":3774:3792   */\n      add\n        /* \"#utility.yul\":3766:3792   */\n      swap1\n      pop\n        /* \"#utility.yul\":3802:3871   */\n      tag_120\n        /* \"#utility.yul\":3868:3869   */\n      0x00\n        /* \"#utility.yul\":3857:3866   */\n      dup4\n        /* \"#utility.yul\":3853:3870   */\n      add\n        /* \"#utility.yul\":3844:3850   */\n      dup5\n        /* \"#utility.yul\":3802:3871   */\n      tag_48\n      jump\t// in\n    tag_120:\n        /* \"#utility.yul\":3660:3878   */\n      swap3\n      swap2\n      pop\n      pop\n      jump\t// out\n        /* \"#utility.yul\":3884:4064   */\n    tag_49:\n        /* \"#utility.yul\":3932:4009   */\n      0x4e487b7100000000000000000000000000000000000000000000000000000000\n        /* \"#utility.yul\":3929:3930   */\n      0x00\n        /* \"#utility.yul\":3922:4010   */\n      mstore\n        /* \"#utility.yul\":4029:4033   */\n      0x22\n        /* \"#utility.yul\":4026:4027   */\n      0x04\n        /* \"#utility.yul\":4019:4034   */\n      mstore\n        /* \"#utility.yul\":4053:4057   */\n      0x24\n        /* \"#utility.yul\":4050:4051   */\n      0x00\n        /* \"#utility.yul\":4043:4058   */\n      revert\n        /* \"#utility.yul\":4070:4390   */\n    tag_19:\n        /* \"#utility.yul\":4114:4120   */\n      0x00\n        /* \"#utility.yul\":4151:4152   */\n      0x02\n        /* \"#utility.yul\":4145:4149   */\n      dup3\n        /* \"#utility.yul\":4141:4153   */\n      div\n        /* \"#utility.yul\":4131:4153   */\n      swap1\n      pop\n        /* \"#utility.yul\":4198:4199   */\n      0x01\n        /* \"#utility.yul\":4192:4196   */\n      dup3\n        /* \"#utility.yul\":4188:4200   */\n      and\n        /* \"#utility.yul\":4219:4237   */\n      dup1\n        /* \"#utility.yul\":4209:4290   */\n      tag_123\n      jumpi\n        /* \"#utility.yul\":4275:4279   */\n      0x7f\n        /* \"#utility.yul\":4267:4273   */\n      dup3\n        /* \"#utility.yul\":4263:4280   */\n      and\n        /* \"#utility.yul\":4253:4280   */\n      swap2\n      pop\n        /* \"#utility.yul\":4209:4290   */\n    tag_123:\n        /* \"#utility.yul\":4337:4339   */\n      0x20\n        /* \"#utility.yul\":4329:4335   */\n      dup3\n        /* \"#utility.yul\":4326:4340   */\n      lt\n        /* \"#utility.yul\":4306:4324   */\n      dup2\n        /* \"#utility.yul\":4303:4341   */\n      sub\n        /* \"#utility.yul\":4300:4384   */\n      tag_124\n      jumpi\n        /* \"#utility.yul\":4356:4374   */\n      tag_125\n      tag_49\n      jump\t// in\n    tag_125:\n        /* \"#utility.yul\":4300:4384   */\n    tag_124:\n        /* \"#utility.yul\":4121:4390   */\n      pop\n        /* \"#utility.yul\":4070:4390   */\n      swap2\n      swap1\n      pop\n      jump\t// out\n        /* \"#utility.yul\":4396:4513   */\n    tag_50:\n        /* \"#utility.yul\":4505:4506   */\n      0x00\n        /* \"#utility.yul\":4502:4503   */\n      dup1\n        /* \"#utility.yul\":4495:4507   */\n      revert\n        /* \"#utility.yul\":4519:4636   */\n    tag_51:\n        /* \"#utility.yul\":4628:4629   */\n      0x00\n        /* \"#utility.yul\":4625:4626   */\n      dup1\n        /* \"#utility.yul\":4618:4630   */\n      revert\n        /* \"#utility.yul\":4642:5111   */\n    tag_28:\n        /* \"#utility.yul\":4747:4756   */\n      0x00\n        /* \"#utility.yul\":4758:4767   */\n      dup1\n        /* \"#utility.yul\":4796:4804   */\n      dup6\n        /* \"#utility.yul\":4784:4794   */\n      dup6\n        /* \"#utility.yul\":4781:4805   */\n      gt\n        /* \"#utility.yul\":4778:4889   */\n      iszero\n      tag_129\n      jumpi\n        /* \"#utility.yul\":4808:4887   */\n      tag_130\n      tag_50\n      jump\t// in\n    tag_130:\n        /* \"#utility.yul\":4778:4889   */\n    tag_129:\n        /* \"#utility.yul\":4914:4920   */\n      dup4\n        /* \"#utility.yul\":4904:4912   */\n      dup7\n        /* \"#utility.yul\":4901:4921   */\n      gt\n        /* \"#utility.yul\":4898:5005   */\n      iszero\n      tag_131\n      jumpi\n        /* \"#utility.yul\":4924:5003   */\n      tag_132\n      tag_51\n      jump\t// in\n    tag_132:\n        /* \"#utility.yul\":4898:5005   */\n    tag_131:\n        /* \"#utility.yul\":5055:5056   */\n      0x01\n        /* \"#utility.yul\":5043:5053   */\n      dup6\n        /* \"#utility.yul\":5039:5057   */\n      mul\n        /* \"#utility.yul\":5031:5037   */\n      dup4\n        /* \"#utility.yul\":5027:5058   */\n      add\n        /* \"#utility.yul\":5014:5058   */\n      swap2\n      pop\n        /* \"#utility.yul\":5094:5104   */\n      dup5\n        /* \"#utility.yul\":5084:5092   */\n      dup7\n        /* \"#utility.yul\":5080:5105   */\n      sub\n        /* \"#utility.yul\":5067:5105   */\n      swap1\n      pop\n        /* \"#utility.yul\":4642:5111   */\n      swap5\n      pop\n      swap5\n      swap3\n      pop\n      pop\n      pop\n      jump\t// out\n        /* \"#utility.yul\":5117:5213   */\n    tag_52:\n        /* \"#utility.yul\":5175:5181   */\n      0x00\n        /* \"#utility.yul\":5203:5206   */\n      dup3\n        /* \"#utility.yul\":5193:5206   */\n      swap1\n      pop\n        /* \"#utility.yul\":5117:5213   */\n      swap3\n      swap2\n      pop\n      pop\n      jump\t// out\n        /* \"#utility.yul\":5219:5399   */\n    tag_53:\n        /* \"#utility.yul\":5267:5344   */\n      0x4e487b7100000000000000000000000000000000000000000000000000000000\n        /* \"#utility.yul\":5264:5265   */\n      0x00\n        /* \"#utility.yul\":5257:5345   */\n      mstore\n        /* \"#utility.yul\":5364:5368   */\n      0x41\n        /* \"#utility.yul\":5361:5362   */\n      0x04\n        /* \"#utility.yul\":5354:5369   */\n      mstore\n        /* \"#utility.yul\":5388:5392   */\n      0x24\n        /* \"#utility.yul\":5385:5386   */\n      0x00\n        /* \"#utility.yul\":5378:5393   */\n      revert\n        /* \"#utility.yul\":5405:5545   */\n    tag_54:\n        /* \"#utility.yul\":5453:5457   */\n      0x00\n        /* \"#utility.yul\":5476:5479   */\n      dup2\n        /* \"#utility.yul\":5468:5479   */\n      swap1\n      pop\n        /* \"#utility.yul\":5499:5502   */\n      dup2\n        /* \"#utility.yul\":5496:5497   */\n      0x00\n        /* \"#utility.yul\":5489:5503   */\n      mstore\n        /* \"#utility.yul\":5533:5537   */\n      0x20\n        /* \"#utility.yul\":5530:5531   */\n      0x00\n        /* \"#utility.yul\":5520:5538   */\n      keccak256\n        /* \"#utility.yul\":5512:5538   */\n      swap1\n      pop\n        /* \"#utility.yul\":5405:5545   */\n      swap2\n      swap1\n      pop\n      jump\t// out\n        /* \"#utility.yul\":5551:5644   */\n    tag_55:\n        /* \"#utility.yul\":5588:5594   */\n      0x00\n        /* \"#utility.yul\":5635:5637   */\n      0x20\n        /* \"#utility.yul\":5630:5632   */\n      0x1f\n        /* \"#utility.yul\":5623:5628   */\n      dup4\n        /* \"#utility.yul\":5619:5633   */\n      add\n        /* \"#utility.yul\":5615:5638   */\n      div\n        /* \"#utility.yul\":5605:5638   */\n      swap1\n      pop\n        /* \"#utility.yul\":5551:5644   */\n      swap2\n      swap1\n      pop\n      jump\t// out\n        /* \"#utility.yul\":5650:5757   */\n    tag_56:\n        /* \"#utility.yul\":5694:5702   */\n      0x00\n        /* \"#utility.yul\":5744:5749   */\n      dup3\n        /* \"#utility.yul\":5738:5742   */\n      dup3\n        /* \"#utility.yul\":5734:5750   */\n      shl\n        /* \"#utility.yul\":5713:5750   */\n      swap1\n      pop\n        /* \"#utility.yul\":5650:5757   */\n      swap3\n      swap2\n      pop\n      pop\n      jump\t// out\n        /* \"#utility.yul\":5763:6156   */\n    tag_57:\n        /* \"#utility.yul\":5832:5838   */\n      0x00\n        /* \"#utility.yul\":5882:5883   */\n      0x08\n        /* \"#utility.yul\":5870:5880   */\n      dup4\n        /* \"#utility.yul\":5866:5884   */\n      mul\n        /* \"#utility.yul\":5905:6002   */\n      tag_139\n        /* \"#utility.yul\":5935:6001   */\n      0xffffffffffffffffffffffffffffffffffffffffffffffffffffffffffffffff\n        /* \"#utility.yul\":5924:5933   */\n      dup3\n        /* \"#utility.yul\":5905:6002   */\n      tag_56\n      jump\t// in\n    tag_139:\n        /* \"#utility.yul\":6023:6062   */\n      tag_140\n        /* \"#utility.yul\":6053:6061   */\n      dup7\n        /* \"#utility.yul\":6042:6051   */\n      dup4\n        /* \"#utility.yul\":6023:6062   */\n      tag_56\n      jump\t// in\n    tag_140:\n        /* \"#utility.yul\":6011:6062   */\n      swap6\n      pop\n        /* \"#utility.yul\":6095:6099   */\n      dup1\n        /* \"#utility.yul\":6091:6100   */\n      not\n        /* \"#utility.yul\":6084:6089   */\n      dup5\n        /* \"#utility.yul\":6080:6101   */\n      and\n        /* \"#utility.yul\":6071:6101   */\n      swap4\n      pop\n        /* \"#utility.yul\":6144:6148   */\n      dup1\n        /* \"#utility.yul\":6134:6142   */\n      dup7\n        /* \"#utility.yul\":6130:6149   */\n      and\n        /* \"#utility.yul\":6123:6128   */\n      dup5\n        /* \"#utility.yul\":6120:6150   */\n      or\n        /* \"#utility.yul\":6110:6150   */\n      swap3\n      pop\n        /* \"#utility.yul\":5839:6156   */\n      pop\n      pop\n        /* \"#utility.yul\":5763:6156   */\n      swap4\n      swap3\n      pop\n      pop\n      pop\n      jump\t// out\n        /* \"#utility.yul\":6162:6239   */\n    tag_58:\n        /* \"#utility.yul\":6199:6206   */\n      0x00\n        /* \"#utility.yul\":6228:6233   */\n      dup2\n        /* \"#utility.yul\":6217:6233   */\n      swap1\n      pop\n        /* \"#utility.yul\":6162:6239   */\n      swap2\n      swap1\n      pop\n      jump\t// out\n        /* \"#utility.yul\":6245:6305   */\n    tag_59:\n        /* \"#utility.yul\":6273:6276   */\n      0x00\n        /* \"#utility.yul\":6294:6299   */\n      dup2\n        /* \"#utility.yul\":6287:6299   */\n      swap1\n      pop\n        /* \"#utility.yul\":6245:6305   */\n      swap2\n      swap1\n      pop\n      jump\t// out\n        /* \"#utility.yul\":6311:6453   */\n    tag_60:\n        /* \"#utility.yul\":6361:6370   */\n      0x00\n        /* \"#utility.yul\":6394:6447   */\n      tag_144\n        /* \"#utility.yul\":6412:6446   */\n      tag_145\n        /* \"#utility.yul\":6421:6445   */\n      tag_146\n        /* \"#utility.yul\":6439:6444   */\n      dup5\n        /* \"#utility.yul\":6421:6445   */\n      tag_58\n      jump\t// in\n    tag_146:\n        /* \"#utility.yul\":6412:6446   */\n      tag_59\n      jump\t// in\n    tag_145:\n        /* \"#utility.yul\":6394:6447   */\n      tag_58\n      jump\t// in\n    tag_144:\n        /* \"#utility.yul\":6381:6447   */\n      swap1\n      pop\n        /* \"#utility.yul\":6311:6453   */\n      swap2\n      swap1\n      pop\n      jump\t// out\n        /* \"#utility.yul\":6459:6534   */\n    tag_61:\n        /* \"#utility.yul\":6502:6505   */\n      0x00\n        /* \"#utility.yul\":6523:6528   */\n      dup2\n        /* \"#utility.yul\":6516:6528   */\n      swap1\n      pop\n        /* \"#utility.yul\":6459:6534   */\n      swap2\n      swap1\n      pop\n      jump\t// out\n        /* \"#utility.yul\":6540:6809   */\n    tag_62:\n        /* \"#utility.yul\":6650:6689   */\n      tag_149\n        /* \"#utility.yul\":6681:6688   */\n      dup4\n        /* \"#utility.yul\":6650:6689   */\n      tag_60\n      jump\t// in\n    tag_149:\n        /* \"#utility.yul\":6711:6802   */\n      tag_150\n        /* \"#utility.yul\":6760:6801   */\n      tag_151\n        /* \"#utility.yul\":6784:6800   */\n      dup3\n        /* \"#utility.yul\":6760:6801   */\n      tag_61\n      jump\t// in\n    tag_151:\n        /* \"#utility.yul\":6752:6758   */\n      dup5\n        /* \"#utility.yul\":6745:6749   */\n      dup5\n        /* \"#utility.yul\":6739:6750   */\n      sload\n        /* \"#utility.yul\":6711:6802   */\n      tag_57\n      jump\t// in\n    tag_150:\n        /* \"#utility.yul\":6705:6709   */\n      dup3\n        /* \"#utility.yul\":6698:6803   */\n      sstore\n        /* \"#utility.yul\":6616:6809   */\n      pop\n        /* \"#utility.yul\":6540:6809   */\n      pop\n      pop\n      pop\n      jump\t// out\n        /* \"#utility.yul\":6815:6888   */\n    tag_63:\n        /* \"#utility.yul\":6860:6863   */\n      0x00\n        /* \"#utility.yul\":6815:6888   */\n      swap1\n      jump\t// out\n        /* \"#utility.yul\":6894:7083   */\n    tag_64:\n        /* \"#utility.yul\":6971:7003   */\n      tag_154\n      tag_63\n      jump\t// in\n    tag_154:\n        /* \"#utility.yul\":7012:7077   */\n      tag_155\n        /* \"#utility.yul\":7070:7076   */\n      dup2\n        /* \"#utility.yul\":7062:7068   */\n      dup5\n        /* \"#utility.yul\":7056:7060   */\n      dup5\n        /* \"#utility.yul\":7012:7077   */\n      tag_62\n      jump\t// in\n    tag_155:\n        /* \"#utility.yul\":6947:7083   */\n      pop\n        /* \"#utility.yul\":6894:7083   */\n      pop\n      pop\n      jump\t// out\n        /* \"#utility.yul\":7089:7275   */\n    tag_65:\n        /* \"#utility.yul\":7149:7269   */\n    tag_157:\n        /* \"#utility.yul\":7166:7169   */\n      dup2\n        /* \"#utility.yul\":7159:7164   */\n      dup2\n        /* \"#utility.yul\":7156:7170   */\n      lt\n        /* \"#utility.yul\":7149:7269   */\n      iszero\n      tag_159\n      jumpi\n        /* \"#utility.yul\":7220:7259   */\n      tag_160\n        /* \"#utility.yul\":7257:7258   */\n      0x00\n        /* \"#utility.yul\":7250:7255   */\n      dup3\n        /* \"#utility.yul\":7220:7259   */\n      tag_64\n      jump\t// in\n    tag_160:\n        /* \"#utility.yul\":7193:7194   */\n      0x01\n        /* \"#utility.yul\":7186:7191   */\n      dup2\n        /* \"#utility.yul\":7182:7195   */\n      add\n        /* \"#utility.yul\":7173:7195   */\n      swap1\n      pop\n        /* \"#utility.yul\":7149:7269   */\n      jump(tag_157)\n    tag_159:\n        /* \"#utility.yul\":7089:7275   */\n      pop\n      pop\n      jump\t// out\n        /* \"#utility.yul\":7281:7822   */\n    tag_66:\n        /* \"#utility.yul\":7381:7383   */\n      0x1f\n        /* \"#utility.yul\":7376:7379   */\n      dup3\n        /* \"#utility.yul\":7373:7384   */\n      gt\n        /* \"#utility.yul\":7370:7815   */\n      iszero\n      tag_162\n      jumpi\n        /* \"#utility.yul\":7415:7452   */\n      tag_163\n        /* \"#utility.yul\":7446:7451   */\n      dup2\n        /* \"#utility.yul\":7415:7452   */\n      tag_54\n      jump\t// in\n    tag_163:\n        /* \"#utility.yul\":7498:7527   */\n      tag_164\n        /* \"#utility.yul\":7516:7526   */\n      dup5\n        /* \"#utility.yul\":7498:7527   */\n      tag_55\n      jump\t// in\n    tag_164:\n        /* \"#utility.yul\":7488:7496   */\n      dup2\n        /* \"#utility.yul\":7484:7528   */\n      add\n        /* \"#utility.yul\":7681:7683   */\n      0x20\n        /* \"#utility.yul\":7669:7679   */\n      dup6\n        /* \"#utility.yul\":7666:7684   */\n      lt\n        /* \"#utility.yul\":7663:7712   */\n      iszero\n      tag_165\n      jumpi\n        /* \"#utility.yul\":7702:7710   */\n      dup2\n        /* \"#utility.yul\":7687:7710   */\n      swap1\n      pop\n        /* \"#utility.yul\":7663:7712   */\n    tag_165:\n        /* \"#utility.yul\":7725:7805   */\n      tag_166\n        /* \"#utility.yul\":7781:7803   */\n      tag_167\n        /* \"#utility.yul\":7799:7802   */\n      dup6\n        /* \"#utility.yul\":7781:7803   */\n      tag_55\n      jump\t// in\n    tag_167:\n        /* \"#utility.yul\":7771:7779   */\n      dup4\n        /* \"#utility.yul\":7767:7804   */\n      add\n        /* \"#utility.yul\":7754:7765   */\n      dup3\n        /* \"#utility.yul\":7725:7805   */\n      tag_65\n      jump\t// in\n    tag_166:\n        /* \"#utility.yul\":7385:7815   */\n      pop\n      pop\n        /* \"#utility.yul\":7370:7815   */\n    tag_162:\n        /* \"#utility.yul\":7281:7822   */\n      pop\n      pop\n      pop\n      jump\t// out\n        /* \"#utility.yul\":7828:7945   */\n    tag_67:\n        /* \"#utility.yul\":7882:7890   */\n      0x00\n        /* \"#utility.yul\":7932:7937   */\n      dup3\n        /* \"#utility.yul\":7926:7930   */\n      dup3\n        /* \"#utility.yul\":7922:7938   */\n      shr\n        /* \"#utility.yul\":7901:7938   */\n      swap1\n      pop\n        /* \"#utility.yul\":7828:7945   */\n      swap3\n      swap2\n      pop\n      pop\n      jump\t// out\n        /* \"#utility.yul\":7951:8120   */\n    tag_68:\n        /* \"#utility.yul\":7995:8001   */\n      0x00\n        /* \"#utility.yul\":8028:8079   */\n      tag_170\n        /* \"#utility.yul\":8076:8077   */\n      0x00\n        /* \"#utility.yul\":8072:8078   */\n      not\n        /* \"#utility.yul\":8064:8069   */\n      dup5\n        /* \"#utility.yul\":8061:8062   */\n      0x08\n        /* \"#utility.yul\":8057:8070   */\n      mul\n        /* \"#utility.yul\":8028:8079   */\n      tag_67\n      jump\t// in\n    tag_170:\n        /* \"#utility.yul\":8024:8080   */\n      not\n        /* \"#utility.yul\":8109:8113   */\n      dup1\n        /* \"#utility.yul\":8103:8107   */\n      dup4\n        /* \"#utility.yul\":8099:8114   */\n      and\n        /* \"#utility.yul\":8089:8114   */\n      swap2\n      pop\n        /* \"#utility.yul\":8002:8120   */\n      pop\n        /* \"#utility.yul\":7951:8120   */\n      swap3\n      swap2\n      pop\n      pop\n      jump\t// out\n        /* \"#utility.yul\":8125:8420   */\n    tag_69:\n        /* \"#utility.yul\":8201:8205   */\n      0x00\n        /* \"#utility.yul\":8347:8376   */\n      tag_172\n        /* \"#utility.yul\":8372:8375   */\n      dup4\n        /* \"#utility.yul\":8366:8370   */\n      dup4\n        /* \"#utility.yul\":8347:8376   */\n      tag_68\n      jump\t// in\n    tag_172:\n        /* \"#utility.yul\":8339:8376   */\n      swap2\n      pop\n        /* \"#utility.yul\":8409:8412   */\n      dup3\n        /* \"#utility.yul\":8406:8407   */\n      0x02\n        /* \"#utility.yul\":8402:8413   */\n      mul\n        /* \"#utility.yul\":8396:8400   */\n      dup3\n        /* \"#utility.yul\":8393:8414   */\n      or\n        /* \"#utility.yul\":8385:8414   */\n      swap1\n      pop\n        /* \"#utility.yul\":8125:8420   */\n      swap3\n      swap2\n      pop\n      pop\n      jump\t// out\n        /* \"#utility.yul\":8425:9823   */\n    tag_30:\n        /* \"#utility.yul\":8547:8590   */\n      tag_174\n        /* \"#utility.yul\":8586:8589   */\n      dup4\n        /* \"#utility.yul\":8581:8584   */\n      dup4\n        /* \"#utility.yul\":8547:8590   */\n      tag_52\n      jump\t// in\n    tag_174:\n        /* \"#utility.yul\":8655:8673   */\n      0xffffffffffffffff\n        /* \"#utility.yul\":8647:8653   */\n      dup2\n        /* \"#utility.yul\":8644:8674   */\n      gt\n        /* \"#utility.yul\":8641:8697   */\n      iszero\n      tag_175\n      jumpi\n        /* \"#utility.yul\":8677:8695   */\n      tag_176\n      tag_53\n      jump\t// in\n    tag_176:\n        /* \"#utility.yul\":8641:8697   */\n    tag_175:\n        /* \"#utility.yul\":8721:8759   */\n      tag_177\n        /* \"#utility.yul\":8753:8757   */\n      dup3\n        /* \"#utility.yul\":8747:8758   */\n      sload\n        /* \"#utility.yul\":8721:8759   */\n      tag_19\n      jump\t// in\n    tag_177:\n        /* \"#utility.yul\":8806:8872   */\n      tag_178\n        /* \"#utility.yul\":8865:8871   */\n      dup3\n        /* \"#utility.yul\":8857:8863   */\n      dup3\n        /* \"#utility.yul\":8851:8855   */\n      dup6\n        /* \"#utility.yul\":8806:8872   */\n      tag_66\n      jump\t// in\n    tag_178:\n        /* \"#utility.yul\":8899:8900   */\n      0x00\n        /* \"#utility.yul\":8928:8930   */\n      0x1f\n        /* \"#utility.yul\":8920:8926   */\n      dup4\n        /* \"#utility.yul\":8917:8931   */\n      gt\n        /* \"#utility.yul\":8945:8946   */\n      0x01\n        /* \"#utility.yul\":8940:9571   */\n      dup2\n      eq\n      tag_180\n      jumpi\n        /* \"#utility.yul\":9615:9616   */\n      0x00\n        /* \"#utility.yul\":9632:9638   */\n      dup5\n        /* \"#utility.yul\":9629:9713   */\n      iszero\n      tag_181\n      jumpi\n        /* \"#utility.yul\":9688:9697   */\n      dup3\n        /* \"#utility.yul\":9683:9686   */\n      dup8\n        /* \"#utility.yul\":9679:9698   */\n      add\n        /* \"#utility.yul\":9666:9699   */\n      calldataload\n        /* \"#utility.yul\":9657:9699   */\n      swap1\n      pop\n        /* \"#utility.yul\":9629:9713   */\n    tag_181:\n        /* \"#utility.yul\":9739:9806   */\n      tag_182\n        /* \"#utility.yul\":9799:9805   */\n      dup6\n        /* \"#utility.yul\":9792:9797   */\n      dup3\n        /* \"#utility.yul\":9739:9806   */\n      tag_69\n      jump\t// in\n    tag_182:\n        /* \"#utility.yul\":9733:9737   */\n      dup7\n        /* \"#utility.yul\":9726:9807   */\n      sstore\n        /* \"#utility.yul\":9588:9817   */\n      pop\n        /* \"#utility.yul\":8910:9817   */\n      jump(tag_179)\n        /* \"#utility.yul\":8940:9571   */\n    tag_180:\n        /* \"#utility.yul\":8992:8996   */\n      0x1f\n        /* \"#utility.yul\":8988:8997   */\n      not\n        /* \"#utility.yul\":8980:8986   */\n      dup5\n        /* \"#utility.yul\":8976:8998   */\n      and\n        /* \"#utility.yul\":9026:9062   */\n      tag_183\n        /* \"#utility.yul\":9057:9061   */\n      dup7\n        /* \"#utility.yul\":9026:9062   */\n      tag_54\n      jump\t// in\n    tag_183:\n        /* \"#utility.yul\":9084:9085   */\n      0x00\n        /* \"#utility.yul\":9098:9313   */\n    tag_184:\n        /* \"#utility.yul\":9112:9119   */\n      dup3\n        /* \"#utility.yul\":9109:9110   */\n      dup2\n        /* \"#utility.yul\":9106:9120   */\n      lt\n        /* \"#utility.yul\":9098:9313   */\n      iszero\n      tag_186\n      jumpi\n        /* \"#utility.yul\":9198:9207   */\n      dup5\n        /* \"#utility.yul\":9193:9196   */\n      dup10\n        /* \"#utility.yul\":9189:9208   */\n      add\n        /* \"#utility.yul\":9176:9209   */\n      calldataload\n        /* \"#utility.yul\":9168:9174   */\n      dup3\n        /* \"#utility.yul\":9161:9210   */\n      sstore\n        /* \"#utility.yul\":9249:9250   */\n      0x01\n        /* \"#utility.yul\":9241:9247   */\n      dup3\n        /* \"#utility.yul\":9237:9251   */\n      add\n        /* \"#utility.yul\":9227:9251   */\n      swap2\n      pop\n        /* \"#utility.yul\":9296:9298   */\n      0x20\n        /* \"#utility.yul\":9285:9294   */\n      dup6\n        /* \"#utility.yul\":9281:9299   */\n      add\n        /* \"#utility.yul\":9268:9299   */\n      swap5\n      pop\n        /* \"#utility.yul\":9135:9139   */\n      0x20\n        /* \"#utility.yul\":9132:9133   */\n      dup2\n        /* \"#utility.yul\":9128:9140   */\n      add\n        /* \"#utility.yul\":9123:9140   */\n      swap1\n      pop\n        /* \"#utility.yul\":9098:9313   */\n      jump(tag_184)\n    tag_186:\n        /* \"#utility.yul\":9341:9347   */\n      dup7\n        /* \"#utility.yul\":9332:9339   */\n      dup4\n        /* \"#utility.yul\":9329:9348   */\n      lt\n        /* \"#utility.yul\":9326:9512   */\n      iszero\n      tag_187\n      jumpi\n        /* \"#utility.yul\":9406:9415   */\n      dup5\n        /* \"#utility.yul\":9401:9404   */\n      dup10\n        /* \"#utility.yul\":9397:9416   */\n      add\n        /* \"#utility.yul\":9384:9417   */\n      calldataload\n        /* \"#utility.yul\":9449:9497   */\n      tag_188\n        /* \"#utility.yul\":9491:9495   */\n      0x1f\n        /* \"#utility.yul\":9483:9489   */\n      dup10\n        /* \"#utility.yul\":9479:9496   */\n      and\n        /* \"#utility.yul\":9468:9477   */\n      dup3\n        /* \"#utility.yul\":9449:9497   */\n      tag_68\n      jump\t// in\n    tag_188:\n        /* \"#utility.yul\":9441:9447   */\n      dup4\n        /* \"#utility.yul\":9434:9498   */\n      sstore\n        /* \"#utility.yul\":9349:9512   */\n      pop\n        /* \"#utility.yul\":9326:9512   */\n    tag_187:\n        /* \"#utility.yul\":9558:9559   */\n      0x01\n        /* \"#utility.yul\":9554:9555   */\n      0x02\n        /* \"#utility.yul\":9546:9552   */\n      dup9\n        /* \"#utility.yul\":9542:9556   */\n      mul\n        /* \"#utility.yul\":9538:9560   */\n      add\n        /* \"#utility.yul\":9532:9536   */\n      dup9\n        /* \"#utility.yul\":9525:9561   */\n      sstore\n        /* \"#utility.yul\":8947:9571   */\n      pop\n      pop\n      pop\n        /* \"#utility.yul\":8910:9817   */\n    tag_179:\n      pop\n        /* \"#utility.yul\":8522:9823   */\n      pop\n      pop\n      pop\n        /* \"#utility.yul\":8425:9823   */\n      pop\n      pop\n      pop\n      jump\t// out\n        /* \"#utility.yul\":9829:10009   */\n    tag_70:\n        /* \"#utility.yul\":9877:9954   */\n      0x4e487b7100000000000000000000000000000000000000000000000000000000\n        /* \"#utility.yul\":9874:9875   */\n      0x00\n        /* \"#utility.yul\":9867:9955   */\n      mstore\n        /* \"#utility.yul\":9974:9978   */\n      0x21\n        /* \"#utility.yul\":9971:9972   */\n      0x04\n        /* \"#utility.yul\":9964:9979   */\n      mstore\n        /* \"#utility.yul\":9998:10002   */\n      0x24\n        /* \"#utility.yul\":9995:9996   */\n      0x00\n        /* \"#utility.yul\":9988:10003   */\n      revert\n        /* \"#utility.yul\":10015:10134   */\n    tag_71:\n        /* \"#utility.yul\":10102:10103   */\n      0x04\n        /* \"#utility.yul\":10095:10100   */\n      dup2\n        /* \"#utility.yul\":10092:10104   */\n      lt\n        /* \"#utility.yul\":10082:10128   */\n      tag_191\n      jumpi\n        /* \"#utility.yul\":10108:10126   */\n      tag_192\n      tag_70\n      jump\t// in\n    tag_192:\n        /* \"#utility.yul\":10082:10128   */\n    tag_191:\n        /* \"#utility.yul\":10015:10134   */\n      pop\n      jump\t// out\n        /* \"#utility.yul\":10140:10279   */\n    tag_72:\n        /* \"#utility.yul\":10191:10198   */\n      0x00\n        /* \"#utility.yul\":10220:10225   */\n      dup2\n        /* \"#utility.yul\":10209:10225   */\n      swap1\n      pop\n        /* \"#utility.yul\":10226:10273   */\n      tag_194\n        /* \"#utility.yul\":10267:10272   */\n      dup3\n        /* \"#utility.yul\":10226:10273   */\n      tag_71\n      jump\t// in\n    tag_194:\n        /* \"#utility.yul\":10140:10279   */\n      swap2\n      swap1\n      pop\n      jump\t// out\n        /* \"#utility.yul\":10285:10424   */\n    tag_73:\n        /* \"#utility.yul\":10347:10356   */\n      0x00\n        /* \"#utility.yul\":10380:10418   */\n      tag_196\n        /* \"#utility.yul\":10412:10417   */\n      dup3\n        /* \"#utility.yul\":10380:10418   */\n      tag_72\n      jump\t// in\n    tag_196:\n        /* \"#utility.yul\":10367:10418   */\n      swap1\n      pop\n        /* \"#utility.yul\":10285:10424   */\n      swap2\n      swap1\n      pop\n      jump\t// out\n        /* \"#utility.yul\":10430:10585   */\n    tag_74:\n        /* \"#utility.yul\":10529:10578   */\n      tag_198\n        /* \"#utility.yul\":10572:10577   */\n      dup2\n        /* \"#utility.yul\":10529:10578   */\n      tag_73\n      jump\t// in\n    tag_198:\n        /* \"#utility.yul\":10524:10527   */\n      dup3\n        /* \"#utility.yul\":10517:10579   */\n      mstore\n        /* \"#utility.yul\":10430:10585   */\n      pop\n      pop\n      jump\t// out\n        /* \"#utility.yul\":10591:10713   */\n    tag_75:\n        /* \"#utility.yul\":10681:10682   */\n      0x04\n        /* \"#utility.yul\":10674:10679   */\n      dup2\n        /* \"#utility.yul\":10671:10683   */\n      lt\n        /* \"#utility.yul\":10661:10707   */\n      tag_200\n      jumpi\n        /* \"#utility.yul\":10687:10705   */\n      tag_201\n      tag_70\n      jump\t// in\n    tag_201:\n        /* \"#utility.yul\":10661:10707   */\n    tag_200:\n        /* \"#utility.yul\":10591:10713   */\n      pop\n      jump\t// out\n        /* \"#utility.yul\":10719:10864   */\n    tag_76:\n        /* \"#utility.yul\":10773:10780   */\n      0x00\n        /* \"#utility.yul\":10802:10807   */\n      dup2\n        /* \"#utility.yul\":10791:10807   */\n      swap1\n      pop\n        /* \"#utility.yul\":10808:10858   */\n      tag_203\n        /* \"#utility.yul\":10852:10857   */\n      dup3\n        /* \"#utility.yul\":10808:10858   */\n      tag_75\n      jump\t// in\n    tag_203:\n        /* \"#utility.yul\":10719:10864   */\n      swap2\n      swap1\n      pop\n      jump\t// out\n        /* \"#utility.yul\":10870:11015   */\n    tag_77:\n        /* \"#utility.yul\":10935:10944   */\n      0x00\n        /* \"#utility.yul\":10968:11009   */\n      tag_205\n        /* \"#utility.yul\":11003:11008   */\n      dup3\n        /* \"#utility.yul\":10968:11009   */\n      tag_76\n      jump\t// in\n    tag_205:\n        /* \"#utility.yul\":10955:11009   */\n      swap1\n      pop\n        /* \"#utility.yul\":10870:11015   */\n      swap2\n      swap1\n      pop\n      jump\t// out\n        /* \"#utility.yul\":11021:11182   */\n    tag_78:\n        /* \"#utility.yul\":11123:11175   */\n      tag_207\n        /* \"#utility.yul\":11169:11174   */\n      dup2\n        /* \"#utility.yul\":11123:11175   */\n      tag_77\n      jump\t// in\n    tag_207:\n        /* \"#utility.yul\":11118:11121   */\n      dup3\n        /* \"#utility.yul\":11111:11176   */\n      mstore\n        /* \"#utility.yul\":11021:11182   */\n      pop\n      pop\n      jump\t// out\n        /* \"#utility.yul\":11188:11574   */\n    tag_32:\n        /* \"#utility.yul\":11336:11340   */\n      0x00\n        /* \"#utility.yul\":11374:11376   */\n      0x40\n        /* \"#utility.yul\":11363:11372   */\n      dup3\n        /* \"#utility.yul\":11359:11377   */\n      add\n        /* \"#utility.yul\":11351:11377   */\n      swap1\n      pop\n        /* \"#utility.yul\":11387:11470   */\n      tag_209\n        /* \"#utility.yul\":11467:11468   */\n      0x00\n        /* \"#utility.yul\":11456:11465   */\n      dup4\n        /* \"#utility.yul\":11452:11469   */\n      add\n        /* \"#utility.yul\":11443:11449   */\n      dup6\n        /* \"#utility.yul\":11387:11470   */\n      tag_74\n      jump\t// in\n    tag_209:\n        /* \"#utility.yul\":11480:11567   */\n      tag_210\n        /* \"#utility.yul\":11563:11565   */\n      0x20\n        /* \"#utility.yul\":11552:11561   */\n      dup4\n        /* \"#utility.yul\":11548:11566   */\n      add\n        /* \"#utility.yul\":11539:11545   */\n      dup5\n        /* \"#utility.yul\":11480:11567   */\n      tag_78\n      jump\t// in\n    tag_210:\n        /* \"#utility.yul\":11188:11574   */\n      swap4\n      swap3\n      pop\n      pop\n      pop\n      jump\t// out\n\n    auxdata: 0xa2646970667358221220b0986e1e679a24c2856e274d053583c00e78db4211ff9fd43e370f77250b1a4c64736f6c634300081a0033\n}\n",
				"bytecode": {
					"linkReferences": {},
					"object": "6080604052348015600e575f80fd5b506108108061001c5f395ff3fe608060405234801561000f575f80fd5b506004361061003f575f3560e01c80632760c57e1461004357806328c21909146100615780635d0797c01461007d575b5f80fd5b61004b61009b565b604051610058919061026c565b60405180910390f35b61007b6004803603810190610076919061032c565b610126565b005b6100856101f6565b6040516100929190610398565b60405180910390f35b5f80546100a7906103de565b80601f01602080910402602001604051908101604052809291908181526020018280546100d3906103de565b801561011e5780601f106100f55761010080835404028352916020019161011e565b820191905f5260205f20905b81548152906001019060200180831161010157829003601f168201915b505050505081565b828290508161ffff161180610144575061100061ffff168161ffff16115b1561017b576040517fadd7baf100000000000000000000000000000000000000000000000000000000815260040160405180910390fd5b82825f908361ffff169261019193929190610416565b5f918261019f92919061062d565b503373ffffffffffffffffffffffffffffffffffffffff167f4630e4d8ee2366488de2e4361bb2c5a1ebd888b5590e3f7a70dc072e37d60e916002806040516101e99291906107b3565b60405180910390a2505050565b61100081565b5f81519050919050565b5f82825260208201905092915050565b8281835e5f83830152505050565b5f601f19601f8301169050919050565b5f61023e826101fc565b6102488185610206565b9350610258818560208601610216565b61026181610224565b840191505092915050565b5f6020820190508181035f8301526102848184610234565b905092915050565b5f80fd5b5f80fd5b5f80fd5b5f80fd5b5f80fd5b5f8083601f8401126102b5576102b4610294565b5b8235905067ffffffffffffffff8111156102d2576102d1610298565b5b6020830191508360018202830111156102ee576102ed61029c565b5b9250929050565b5f61ffff82169050919050565b61030b816102f5565b8114610315575f80fd5b50565b5f8135905061032681610302565b92915050565b5f805f604084860312156103435761034261028c565b5b5f84013567ffffffffffffffff8111156103605761035f610290565b5b61036c868287016102a0565b9350935050602061037f86828701610318565b9150509250925092565b610392816102f5565b82525050565b5f6020820190506103ab5f830184610389565b92915050565b7f4e487b71000000000000000000000000000000000000000000000000000000005f52602260045260245ffd5b5f60028204905060018216806103f557607f821691505b602082108103610408576104076103b1565b5b50919050565b5f80fd5b5f80fd5b5f80858511156104295761042861040e565b5b8386111561043a57610439610412565b5b6001850283019150848603905094509492505050565b5f82905092915050565b7f4e487b71000000000000000000000000000000000000000000000000000000005f52604160045260245ffd5b5f819050815f5260205f209050919050565b5f6020601f8301049050919050565b5f82821b905092915050565b5f600883026104e37fffffffffffffffffffffffffffffffffffffffffffffffffffffffffffffffff826104a8565b6104ed86836104a8565b95508019841693508086168417925050509392505050565b5f819050919050565b5f819050919050565b5f61053161052c61052784610505565b61050e565b610505565b9050919050565b5f819050919050565b61054a83610517565b61055e61055682610538565b8484546104b4565b825550505050565b5f90565b610572610566565b61057d818484610541565b505050565b5b818110156105a0576105955f8261056a565b600181019050610583565b5050565b601f8211156105e5576105b681610487565b6105bf84610499565b810160208510156105ce578190505b6105e26105da85610499565b830182610582565b50505b505050565b5f82821c905092915050565b5f6106055f19846008026105ea565b1980831691505092915050565b5f61061d83836105f6565b9150826002028217905092915050565b6106378383610450565b67ffffffffffffffff8111156106505761064f61045a565b5b61065a82546103de565b6106658282856105a4565b5f601f831160018114610692575f8415610680578287013590505b61068a8582610612565b8655506106f1565b601f1984166106a086610487565b5f5b828110156106c7578489013582556001820191506020850194506020810190506106a2565b868310156106e457848901356106e0601f8916826105f6565b8355505b6001600288020188555050505b50505050505050565b7f4e487b71000000000000000000000000000000000000000000000000000000005f52602160045260245ffd5b60048110610738576107376106fa565b5b50565b5f81905061074882610727565b919050565b5f6107578261073b565b9050919050565b6107678161074d565b82525050565b6004811061077e5761077d6106fa565b5b50565b5f81905061078e8261076d565b919050565b5f61079d82610781565b9050919050565b6107ad81610793565b82525050565b5f6040820190506107c65f83018561075e565b6107d360208301846107a4565b939250505056fea2646970667358221220b0986e1e679a24c2856e274d053583c00e78db4211ff9fd43e370f77250b1a4c64736f6c634300081a0033",
					"opcodes": "PUSH1 0x80 PUSH1 0x40 MSTORE CALLVALUE DUP1 ISZERO PUSH1 0xE JUMPI PUSH0 DUP1 REVERT JUMPDEST POP PUSH2 0x810 DUP1 PUSH2 0x1C PUSH0 CODECOPY PUSH0 RETURN INVALID PUSH1 0x80 PUSH1 0x40 MSTORE CALLVALUE DUP1 ISZERO PUSH2 0xF JUMPI PUSH0 DUP1 REVERT JUMPDEST POP PUSH1 0x4 CALLDATASIZE LT PUSH2 0x3F JUMPI PUSH0 CALLDATALOAD PUSH1 0xE0 SHR DUP1 PUSH4 0x2760C57E EQ PUSH2 0x43 JUMPI DUP1 PUSH4 0x28C21909 EQ PUSH2 0x61 JUMPI DUP1 PUSH4 0x5D0797C0 EQ PUSH2 0x7D JUMPI JUMPDEST PUSH0 DUP1 REVERT JUMPDEST PUSH2 0x4B PUSH2 0x9B JUMP JUMPDEST PUSH1 0x40 MLOAD PUSH2 0x58 SWAP2 SWAP1 PUSH2 0x26C JUMP JUMPDEST PUSH1 0x40 MLOAD DUP1 SWAP2 SUB SWAP1 RETURN JUMPDEST PUSH2 0x7B PUSH1 0x4 DUP1 CALLDATASIZE SUB DUP2 ADD SWAP1 PUSH2 0x76 SWAP2 SWAP1 PUSH2 0x32C JUMP JUMPDEST PUSH2 0x126 JUMP JUMPDEST STOP JUMPDEST PUSH2 0x85 PUSH2 0x1F6 JUMP JUMPDEST PUSH1 0x40 MLOAD PUSH2 0x92 SWAP2 SWAP1 PUSH2 0x398 JUMP JUMPDEST PUSH1 0x40 MLOAD DUP1 SWAP2 SUB SWAP1 RETURN JUMPDEST PUSH0 DUP1 SLOAD PUSH2 0xA7 SWAP1 PUSH2 0x3DE JUMP JUMPDEST DUP1 PUSH1 0x1F ADD PUSH1 0x20 DUP1 SWAP2 DIV MUL PUSH1 0x20 ADD PUSH1 0x40 MLOAD SWAP1 DUP2 ADD PUSH1 0x40 MSTORE DUP1 SWAP3 SWAP2 SWAP1 DUP2 DUP2 MSTORE PUSH1 0x20 ADD DUP3 DUP1 SLOAD PUSH2 0xD3 SWAP1 PUSH2 0x3DE JUMP JUMPDEST DUP1 ISZERO PUSH2 0x11E JUMPI DUP1 PUSH1 0x1F LT PUSH2 0xF5 JUMPI PUSH2 0x100 DUP1 DUP4 SLOAD DIV MUL DUP4 MSTORE SWAP2 PUSH1 0x20 ADD SWAP2 PUSH2 0x11E JUMP JUMPDEST DUP3 ADD SWAP2 SWAP1 PUSH0 MSTORE PUSH1 0x20 PUSH0 KECCAK256 SWAP1 JUMPDEST DUP2 SLOAD DUP2 MSTORE SWAP1 PUSH1 0x1 ADD SWAP1 PUSH1 0x20 ADD DUP1 DUP4 GT PUSH2 0x101 JUMPI DUP3 SWAP1 SUB PUSH1 0x1F AND DUP3 ADD SWAP2 JUMPDEST POP POP POP POP POP DUP2 JUMP JUMPDEST DUP3 DUP3 SWAP1 POP DUP2 PUSH2 0xFFFF AND GT DUP1 PUSH2 0x144 JUMPI POP PUSH2 0x1000 PUSH2 0xFFFF AND DUP2 PUSH2 0xFFFF AND GT JUMPDEST ISZERO PUSH2 0x17B JUMPI PUSH1 0x40 MLOAD PUSH32 0xADD7BAF100000000000000000000000000000000000000000000000000000000 DUP2 MSTORE PUSH1 0x4 ADD PUSH1 0x40 MLOAD DUP1 SWAP2 SUB SWAP1 REVERT JUMPDEST DUP3 DUP3 PUSH0 SWAP1 DUP4 PUSH2 0xFFFF AND SWAP3 PUSH2 0x191 SWAP4 SWAP3 SWAP2 SWAP1 PUSH2 0x416 JUMP JUMPDEST PUSH0 SWAP2 DUP3 PUSH2 0x19F SWAP3 SWAP2 SWAP1 PUSH2 0x62D JUMP JUMPDEST POP CALLER PUSH20 0xFFFFFFFFFFFFFFFFFFFFFFFFFFFFFFFFFFFFFFFF AND PUSH32 0x4630E4D8EE2366488DE2E4361BB2C5A1EBD888B5590E3F7A70DC072E37D60E91 PUSH1 0x2 DUP1 PUSH1 0x40 MLOAD PUSH2 0x1E9 SWAP3 SWAP2 SWAP1 PUSH2 0x7B3 JUMP JUMPDEST PUSH1 0x40 MLOAD DUP1 SWAP2 SUB SWAP1 LOG2 POP POP POP JUMP JUMPDEST PUSH2 0x1000 DUP2 JUMP JUMPDEST PUSH0 DUP2 MLOAD SWAP1 POP SWAP2 SWAP1 POP JUMP JUMPDEST PUSH0 DUP3 DUP3 MSTORE PUSH1 0x20 DUP3 ADD SWAP1 POP SWAP3 SWAP2 POP POP JUMP JUMPDEST DUP3 DUP2 DUP4 MCOPY PUSH0 DUP4 DUP4 ADD MSTORE POP POP POP JUMP JUMPDEST PUSH0 PUSH1 0x1F NOT PUSH1 0x1F DUP4 ADD AND SWAP1 POP SWAP2 SWAP1 POP JUMP JUMPDEST PUSH0 PUSH2 0x23E DUP3 PUSH2 0x1FC JUMP JUMPDEST PUSH2 0x248 DUP2 DUP6 PUSH2 0x206 JUMP JUMPDEST SWAP4 POP PUSH2 0x258 DUP2 DUP6 PUSH1 0x20 DUP7 ADD PUSH2 0x216 JUMP JUMPDEST PUSH2 0x261 DUP2 PUSH2 0x224 JUMP JUMPDEST DUP5 ADD SWAP2 POP POP SWAP3 SWAP2 POP POP JUMP JUMPDEST PUSH0 PUSH1 0x20 DUP3 ADD SWAP1 POP DUP2 DUP2 SUB PUSH0 DUP4 ADD MSTORE PUSH2 0x284 DUP2 DUP5 PUSH2 0x234 JUMP JUMPDEST SWAP1 POP SWAP3 SWAP2 POP POP JUMP JUMPDEST PUSH0 DUP1 REVERT JUMPDEST PUSH0 DUP1 REVERT JUMPDEST PUSH0 DUP1 REVERT JUMPDEST PUSH0 DUP1 REVERT JUMPDEST PUSH0 DUP1 REVERT JUMPDEST PUSH0 DUP1 DUP4 PUSH1 0x1F DUP5 ADD SLT PUSH2 0x2B5 JUMPI PUSH2 0x2B4 PUSH2 0x294 JUMP JUMPDEST JUMPDEST DUP3 CALLDATALOAD SWAP1 POP PUSH8 0xFFFFFFFFFFFFFFFF DUP2 GT ISZERO PUSH2 0x2D2 JUMPI PUSH2 0x2D1 PUSH2 0x298 JUMP JUMPDEST JUMPDEST PUSH1 0x20 DUP4 ADD SWAP2 POP DUP4 PUSH1 0x1 DUP3 MUL DUP4 ADD GT ISZERO PUSH2 0x2EE JUMPI PUSH2 0x2ED PUSH2 0x29C JUMP JUMPDEST JUMPDEST SWAP3 POP SWAP3 SWAP1 POP JUMP JUMPDEST PUSH0 PUSH2 0xFFFF DUP3 AND SWAP1 POP SWAP2 SWAP1 POP JUMP JUMPDEST PUSH2 0x30B DUP2 PUSH2 0x2F5 JUMP JUMPDEST DUP2 EQ PUSH2 0x315 JUMPI PUSH0 DUP1 REVERT JUMPDEST POP JUMP JUMPDEST PUSH0 DUP2 CALLDATALOAD SWAP1 POP PUSH2 0x326 DUP2 PUSH2 0x302 JUMP JUMPDEST SWAP3 SWAP2 POP POP JUMP JUMPDEST PUSH0 DUP1 PUSH0 PUSH1 0x40 DUP5 DUP7 SUB SLT ISZERO PUSH2 0x343 JUMPI PUSH2 0x342 PUSH2 0x28C JUMP JUMPDEST JUMPDEST PUSH0 DUP5 ADD CALLDATALOAD PUSH8 0xFFFFFFFFFFFFFFFF DUP2 GT ISZERO PUSH2 0x360 JUMPI PUSH2 0x35F PUSH2 0x290 JUMP JUMPDEST JUMPDEST PUSH2 0x36C DUP7 DUP3 DUP8 ADD PUSH2 0x2A0 JUMP JUMPDEST SWAP4 POP SWAP4 POP POP PUSH1 0x20 PUSH2 0x37F DUP7 DUP3 DUP8 ADD PUSH2 0x318 JUMP JUMPDEST SWAP2 POP POP SWAP3 POP SWAP3 POP SWAP3 JUMP JUMPDEST PUSH2 0x392 DUP2 PUSH2 0x2F5 JUMP JUMPDEST DUP3 MSTORE POP POP JUMP JUMPDEST PUSH0 PUSH1 0x20 DUP3 ADD SWAP1 POP PUSH2 0x3AB PUSH0 DUP4 ADD DUP5 PUSH2 0x389 JUMP JUMPDEST SWAP3 SWAP2 POP POP JUMP JUMPDEST PUSH32 0x4E487B7100000000000000000000000000000000000000000000000000000000 PUSH0 MSTORE PUSH1 0x22 PUSH1 0x4 MSTORE PUSH1 0x24 PUSH0 REVERT JUMPDEST PUSH0 PUSH1 0x2 DUP3 DIV SWAP1 POP PUSH1 0x1 DUP3 AND DUP1 PUSH2 0x3F5 JUMPI PUSH1 0x7F DUP3 AND SWAP2 POP JUMPDEST PUSH1 0x20 DUP3 LT DUP2 SUB PUSH2 0x408 JUMPI PUSH2 0x407 PUSH2 0x3B1 JUMP JUMPDEST JUMPDEST POP SWAP2 SWAP1 POP JUMP JUMPDEST PUSH0 DUP1 REVERT JUMPDEST PUSH0 DUP1 REVERT JUMPDEST PUSH0 DUP1 DUP6 DUP6 GT ISZERO PUSH2 0x429 JUMPI PUSH2 0x428 PUSH2 0x40E JUMP JUMPDEST JUMPDEST DUP4 DUP7 GT ISZERO PUSH2 0x43A JUMPI PUSH2 0x439 PUSH2 0x412 JUMP JUMPDEST JUMPDEST PUSH1 0x1 DUP6 MUL DUP4 ADD SWAP2 POP DUP5 DUP7 SUB SWAP1 POP SWAP5 POP SWAP5 SWAP3 POP POP POP JUMP JUMPDEST PUSH0 DUP3 SWAP1 POP SWAP3 SWAP2 POP POP JUMP JUMPDEST PUSH32 0x4E487B7100000000000000000000000000000000000000000000000000000000 PUSH0 MSTORE PUSH1 0x41 PUSH1 0x4 MSTORE PUSH1 0x24 PUSH0 REVERT JUMPDEST PUSH0 DUP2 SWAP1 POP DUP2 PUSH0 MSTORE PUSH1 0x20 PUSH0 KECCAK256 SWAP1 POP SWAP2 SWAP1 POP JUMP JUMPDEST PUSH0 PUSH1 0x20 PUSH1 0x1F DUP4 ADD DIV SWAP1 POP SWAP2 SWAP1 POP JUMP JUMPDEST PUSH0 DUP3 DUP3 SHL SWAP1 POP SWAP3 SWAP2 POP POP JUMP JUMPDEST PUSH0 PUSH1 0x8 DUP4 MUL PUSH2 0x4E3 PUSH32 0xFFFFFFFFFFFFFFFFFFFFFFFFFFFFFFFFFFFFFFFFFFFFFFFFFFFFFFFFFFFFFFFF DUP3 PUSH2 0x4A8 JUMP JUMPDEST PUSH2 0x4ED DUP7 DUP4 PUSH2 0x4A8 JUMP JUMPDEST SWAP6 POP DUP1 NOT DUP5 AND SWAP4 POP DUP1 DUP7 AND DUP5 OR SWAP3 POP POP POP SWAP4 SWAP3 POP POP POP JUMP JUMPDEST PUSH0 DUP2 SWAP1 POP SWAP2 SWAP1 POP JUMP JUMPDEST PUSH0 DUP2 SWAP1 POP SWAP2 SWAP1 POP JUMP JUMPDEST PUSH0 PUSH2 0x531 PUSH2 0x52C PUSH2 0x527 DUP5 PUSH2 0x505 JUMP JUMPDEST PUSH2 0x50E JUMP JUMPDEST PUSH2 0x505 JUMP JUMPDEST SWAP1 POP SWAP2 SWAP1 POP JUMP JUMPDEST PUSH0 DUP2 SWAP1 POP SWAP2 SWAP1 POP JUMP JUMPDEST PUSH2 0x54A DUP4 PUSH2 0x517 JUMP JUMPDEST PUSH2 0x55E PUSH2 0x556 DUP3 PUSH2 0x538 JUMP JUMPDEST DUP5 DUP5 SLOAD PUSH2 0x4B4 JUMP JUMPDEST DUP3 SSTORE POP POP POP POP JUMP JUMPDEST PUSH0 SWAP1 JUMP JUMPDEST PUSH2 0x572 PUSH2 0x566 JUMP JUMPDEST PUSH2 0x57D DUP2 DUP5 DUP5 PUSH2 0x541 JUMP JUMPDEST POP POP POP JUMP JUMPDEST JUMPDEST DUP2 DUP2 LT ISZERO PUSH2 0x5A0 JUMPI PUSH2 0x595 PUSH0 DUP3 PUSH2 0x56A JUMP JUMPDEST PUSH1 0x1 DUP2 ADD SWAP1 POP PUSH2 0x583 JUMP JUMPDEST POP POP JUMP JUMPDEST PUSH1 0x1F DUP3 GT ISZERO PUSH2 0x5E5 JUMPI PUSH2 0x5B6 DUP2 PUSH2 0x487 JUMP JUMPDEST PUSH2 0x5BF DUP5 PUSH2 0x499 JUMP JUMPDEST DUP2 ADD PUSH1 0x20 DUP6 LT ISZERO PUSH2 0x5CE JUMPI DUP2 SWAP1 POP JUMPDEST PUSH2 0x5E2 PUSH2 0x5DA DUP6 PUSH2 0x499 JUMP JUMPDEST DUP4 ADD DUP3 PUSH2 0x582 JUMP JUMPDEST POP POP JUMPDEST POP POP POP JUMP JUMPDEST PUSH0 DUP3 DUP3 SHR SWAP1 POP SWAP3 SWAP2 POP POP JUMP JUMPDEST PUSH0 PUSH2 0x605 PUSH0 NOT DUP5 PUSH1 0x8 MUL PUSH2 0x5EA JUMP JUMPDEST NOT DUP1 DUP4 AND SWAP2 POP POP SWAP3 SWAP2 POP POP JUMP JUMPDEST PUSH0 PUSH2 0x61D DUP4 DUP4 PUSH2 0x5F6 JUMP JUMPDEST SWAP2 POP DUP3 PUSH1 0x2 MUL DUP3 OR SWAP1 POP SWAP3 SWAP2 POP POP JUMP JUMPDEST PUSH2 0x637 DUP4 DUP4 PUSH2 0x450 JUMP JUMPDEST PUSH8 0xFFFFFFFFFFFFFFFF DUP2 GT ISZERO PUSH2 0x650 JUMPI PUSH2 0x64F PUSH2 0x45A JUMP JUMPDEST JUMPDEST PUSH2 0x65A DUP3 SLOAD PUSH2 0x3DE JUMP JUMPDEST PUSH2 0x665 DUP3 DUP3 DUP6 PUSH2 0x5A4 JUMP JUMPDEST PUSH0 PUSH1 0x1F DUP4 GT PUSH1 0x1 DUP2 EQ PUSH2 0x692 JUMPI PUSH0 DUP5 ISZERO PUSH2 0x680 JUMPI DUP3 DUP8 ADD CALLDATALOAD SWAP1 POP JUMPDEST PUSH2 0x68A DUP6 DUP3 PUSH2 0x612 JUMP JUMPDEST DUP7 SSTORE POP PUSH2 0x6F1 JUMP JUMPDEST PUSH1 0x1F NOT DUP5 AND PUSH2 0x6A0 DUP7 PUSH2 0x487 JUMP JUMPDEST PUSH0 JUMPDEST DUP3 DUP2 LT ISZERO PUSH2 0x6C7 JUMPI DUP5 DUP10 ADD CALLDATALOAD DUP3 SSTORE PUSH1 0x1 DUP3 ADD SWAP2 POP PUSH1 0x20 DUP6 ADD SWAP5 POP PUSH1 0x20 DUP2 ADD SWAP1 POP PUSH2 0x6A2 JUMP JUMPDEST DUP7 DUP4 LT ISZERO PUSH2 0x6E4 JUMPI DUP5 DUP10 ADD CALLDATALOAD PUSH2 0x6E0 PUSH1 0x1F DUP10 AND DUP3 PUSH2 0x5F6 JUMP JUMPDEST DUP4 SSTORE POP JUMPDEST PUSH1 0x1 PUSH1 0x2 DUP9 MUL ADD DUP9 SSTORE POP POP POP JUMPDEST POP POP POP POP POP POP POP JUMP JUMPDEST PUSH32 0x4E487B7100000000000000000000000000000000000000000000000000000000 PUSH0 MSTORE PUSH1 0x21 PUSH1 0x4 MSTORE PUSH1 0x24 PUSH0 REVERT JUMPDEST PUSH1 0x4 DUP2 LT PUSH2 0x738 JUMPI PUSH2 0x737 PUSH2 0x6FA JUMP JUMPDEST JUMPDEST POP JUMP JUMPDEST PUSH0 DUP2 SWAP1 POP PUSH2 0x748 DUP3 PUSH2 0x727 JUMP JUMPDEST SWAP2 SWAP1 POP JUMP JUMPDEST PUSH0 PUSH2 0x757 DUP3 PUSH2 0x73B JUMP JUMPDEST SWAP1 POP SWAP2 SWAP1 POP JUMP JUMPDEST PUSH2 0x767 DUP2 PUSH2 0x74D JUMP JUMPDEST DUP3 MSTORE POP POP JUMP JUMPDEST PUSH1 0x4 DUP2 LT PUSH2 0x77E JUMPI PUSH2 0x77D PUSH2 0x6FA JUMP JUMPDEST JUMPDEST POP JUMP JUMPDEST PUSH0 DUP2 SWAP1 POP PUSH2 0x78E DUP3 PUSH2 0x76D JUMP JUMPDEST SWAP2 SWAP1 POP JUMP JUMPDEST PUSH0 PUSH2 0x79D DUP3 PUSH2 0x781 JUMP JUMPDEST SWAP1 POP SWAP2 SWAP1 POP JUMP JUMPDEST PUSH2 0x7AD DUP2 PUSH2 0x793 JUMP JUMPDEST DUP3 MSTORE POP POP JUMP JUMPDEST PUSH0 PUSH1 0x40 DUP3 ADD SWAP1 POP PUSH2 0x7C6 PUSH0 DUP4 ADD DUP6 PUSH2 0x75E JUMP JUMPDEST PUSH2 0x7D3 PUSH1 0x20 DUP4 ADD DUP5 PUSH2 0x7A4 JUMP JUMPDEST SWAP4 SWAP3 POP POP POP JUMP INVALID LOG2 PUSH5 0x6970667358 0x22 SLT KECCAK256 0xB0 SWAP9 PUSH15 0x1E679A24C2856E274D053583C00E78 0xDB TIMESTAMP GT SELFDESTRUCT SWAP16 0xD4 RETURNDATACOPY CALLDATACOPY 0xF PUSH24 0x250B1A4C64736F6C634300081A0033000000000000000000 "
				},
				"gasEstimates": {
					"creation": {
						"codeDepositCost": "412800",
						"executionCost": "447",
						"totalCost": "413247"
					},
					"external": {
						"MAX_LEN()": "353",
						"heartbeat(bytes,uint16)": "infinite",
						"lastPing()": "infinite"
					}
				},
				"methodIdentifiers": {
					"MAX_LEN()": "5d0797c0",
					"heartbeat(bytes,uint16)": "28c21909",
					"lastPing()": "2760c57e"
				}
			},
			"storageLayout": {
				"storage": [
					{
						"astId": 298,
						"contract": "T/Transport Layer Security (TLS)/Transport Layer Security (TLS).sol:TLSSafeHeartbeat",
						"label": "lastPing",
						"offset": 0,
						"slot": "0",
						"type": "t_bytes_storage"
					}
				],
				"types": {
					"t_bytes_storage": {
						"encoding": "bytes",
						"label": "bytes",
						"numberOfBytes": "32"
					}
				}
			},
			"userdoc": {
				"kind": "user",
				"methods": {},
				"version": 1
			}
		}
	}
}