{
	"T/Transport Layer Security (TLS)/Transport Layer Security (TLS).sol": {
		"Attack_TLSHeartbeat": {
			"abi": [
				{
					"inputs": [
						{
							"internalType": "contract TLSVulnHeartbeat",
							"name": "_t",
							"type": "address"
						}
					],
					"stateMutability": "nonpayable",
					"type": "constructor"
				},
				{
					"inputs": [
						{
							"internalType": "bytes",
							"name": "small",
							"type": "bytes"
						}
					],
					"name": "exploit",
					"outputs": [],
					"stateMutability": "nonpayable",
					"type": "function"
				},
				{
					"inputs": [],
					"name": "target",
					"outputs": [
						{
							"internalType": "contract TLSVulnHeartbeat",
							"name": "",
							"type": "address"
						}
					],
					"stateMutability": "view",
					"type": "function"
				}
			],
			"devdoc": {
				"kind": "dev",
				"methods": {},
				"version": 1
			},
			"evm": {
				"assembly": "    /* \"T/Transport Layer Security (TLS)/Transport Layer Security (TLS).sol\":4198:4478  contract Attack_TLSHeartbeat {... */\n  mstore(0x40, 0x80)\n    /* \"T/Transport Layer Security (TLS)/Transport Layer Security (TLS).sol\":4269:4318  constructor(TLSVulnHeartbeat _t) { target = _t; } */\n  callvalue\n  dup1\n  iszero\n  tag_1\n  jumpi\n  0x00\n  dup1\n  revert\ntag_1:\n  pop\n  mload(0x40)\n  sub(codesize, bytecodeSize)\n  dup1\n  bytecodeSize\n  dup4\n  codecopy\n  dup2\n  dup2\n  add\n  0x40\n  mstore\n  dup2\n  add\n  swap1\n  tag_2\n  swap2\n  swap1\n  tag_3\n  jump\t// in\ntag_2:\n    /* \"T/Transport Layer Security (TLS)/Transport Layer Security (TLS).sol\":4313:4315  _t */\n  dup1\n    /* \"T/Transport Layer Security (TLS)/Transport Layer Security (TLS).sol\":4304:4310  target */\n  0x00\n  dup1\n    /* \"T/Transport Layer Security (TLS)/Transport Layer Security (TLS).sol\":4304:4315  target = _t */\n  0x0100\n  exp\n  dup2\n  sload\n  dup2\n  0xffffffffffffffffffffffffffffffffffffffff\n  mul\n  not\n  and\n  swap1\n  dup4\n  0xffffffffffffffffffffffffffffffffffffffff\n  and\n  mul\n  or\n  swap1\n  sstore\n  pop\n    /* \"T/Transport Layer Security (TLS)/Transport Layer Security (TLS).sol\":4269:4318  constructor(TLSVulnHeartbeat _t) { target = _t; } */\n  pop\n    /* \"T/Transport Layer Security (TLS)/Transport Layer Security (TLS).sol\":4198:4478  contract Attack_TLSHeartbeat {... */\n  jump(tag_6)\n    /* \"#utility.yul\":88:205   */\ntag_8:\n    /* \"#utility.yul\":197:198   */\n  0x00\n    /* \"#utility.yul\":194:195   */\n  dup1\n    /* \"#utility.yul\":187:199   */\n  revert\n    /* \"#utility.yul\":334:460   */\ntag_10:\n    /* \"#utility.yul\":371:378   */\n  0x00\n    /* \"#utility.yul\":411:453   */\n  0xffffffffffffffffffffffffffffffffffffffff\n    /* \"#utility.yul\":404:409   */\n  dup3\n    /* \"#utility.yul\":400:454   */\n  and\n    /* \"#utility.yul\":389:454   */\n  swap1\n  pop\n    /* \"#utility.yul\":334:460   */\n  swap2\n  swap1\n  pop\n  jump\t// out\n    /* \"#utility.yul\":466:562   */\ntag_11:\n    /* \"#utility.yul\":503:510   */\n  0x00\n    /* \"#utility.yul\":532:556   */\n  tag_21\n    /* \"#utility.yul\":550:555   */\n  dup3\n    /* \"#utility.yul\":532:556   */\n  tag_10\n  jump\t// in\ntag_21:\n    /* \"#utility.yul\":521:556   */\n  swap1\n  pop\n    /* \"#utility.yul\":466:562   */\n  swap2\n  swap1\n  pop\n  jump\t// out\n    /* \"#utility.yul\":568:688   */\ntag_12:\n    /* \"#utility.yul\":629:636   */\n  0x00\n    /* \"#utility.yul\":658:682   */\n  tag_23\n    /* \"#utility.yul\":676:681   */\n  dup3\n    /* \"#utility.yul\":658:682   */\n  tag_11\n  jump\t// in\ntag_23:\n    /* \"#utility.yul\":647:682   */\n  swap1\n  pop\n    /* \"#utility.yul\":568:688   */\n  swap2\n  swap1\n  pop\n  jump\t// out\n    /* \"#utility.yul\":694:864   */\ntag_13:\n    /* \"#utility.yul\":791:839   */\n  tag_25\n    /* \"#utility.yul\":833:838   */\n  dup2\n    /* \"#utility.yul\":791:839   */\n  tag_12\n  jump\t// in\ntag_25:\n    /* \"#utility.yul\":784:789   */\n  dup2\n    /* \"#utility.yul\":781:840   */\n  eq\n    /* \"#utility.yul\":771:858   */\n  tag_26\n  jumpi\n    /* \"#utility.yul\":854:855   */\n  0x00\n    /* \"#utility.yul\":851:852   */\n  dup1\n    /* \"#utility.yul\":844:856   */\n  revert\n    /* \"#utility.yul\":771:858   */\ntag_26:\n    /* \"#utility.yul\":694:864   */\n  pop\n  jump\t// out\n    /* \"#utility.yul\":870:1061   */\ntag_14:\n    /* \"#utility.yul\":951:956   */\n  0x00\n    /* \"#utility.yul\":982:988   */\n  dup2\n    /* \"#utility.yul\":976:989   */\n  mload\n    /* \"#utility.yul\":967:989   */\n  swap1\n  pop\n    /* \"#utility.yul\":998:1055   */\n  tag_28\n    /* \"#utility.yul\":1049:1054   */\n  dup2\n    /* \"#utility.yul\":998:1055   */\n  tag_13\n  jump\t// in\ntag_28:\n    /* \"#utility.yul\":870:1061   */\n  swap3\n  swap2\n  pop\n  pop\n  jump\t// out\n    /* \"#utility.yul\":1067:1466   */\ntag_3:\n    /* \"#utility.yul\":1161:1167   */\n  0x00\n    /* \"#utility.yul\":1210:1212   */\n  0x20\n    /* \"#utility.yul\":1198:1207   */\n  dup3\n    /* \"#utility.yul\":1189:1196   */\n  dup5\n    /* \"#utility.yul\":1185:1208   */\n  sub\n    /* \"#utility.yul\":1181:1213   */\n  slt\n    /* \"#utility.yul\":1178:1297   */\n  iszero\n  tag_30\n  jumpi\n    /* \"#utility.yul\":1216:1295   */\n  tag_31\n  tag_8\n  jump\t// in\ntag_31:\n    /* \"#utility.yul\":1178:1297   */\ntag_30:\n    /* \"#utility.yul\":1336:1337   */\n  0x00\n    /* \"#utility.yul\":1361:1449   */\n  tag_32\n    /* \"#utility.yul\":1441:1448   */\n  dup5\n    /* \"#utility.yul\":1432:1438   */\n  dup3\n    /* \"#utility.yul\":1421:1430   */\n  dup6\n    /* \"#utility.yul\":1417:1439   */\n  add\n    /* \"#utility.yul\":1361:1449   */\n  tag_14\n  jump\t// in\ntag_32:\n    /* \"#utility.yul\":1351:1449   */\n  swap2\n  pop\n    /* \"#utility.yul\":1307:1459   */\n  pop\n    /* \"#utility.yul\":1067:1466   */\n  swap3\n  swap2\n  pop\n  pop\n  jump\t// out\n    /* \"T/Transport Layer Security (TLS)/Transport Layer Security (TLS).sol\":4198:4478  contract Attack_TLSHeartbeat {... */\ntag_6:\n  dataSize(sub_0)\n  dup1\n  dataOffset(sub_0)\n  0x00\n  codecopy\n  0x00\n  return\nstop\n\nsub_0: assembly {\n        /* \"T/Transport Layer Security (TLS)/Transport Layer Security (TLS).sol\":4198:4478  contract Attack_TLSHeartbeat {... */\n      mstore(0x40, 0x80)\n      callvalue\n      dup1\n      iszero\n      tag_1\n      jumpi\n      0x00\n      dup1\n      revert\n    tag_1:\n      pop\n      jumpi(tag_2, lt(calldatasize, 0x04))\n      shr(0xe0, calldataload(0x00))\n      dup1\n      0x53a2d9cb\n      eq\n      tag_3\n      jumpi\n      dup1\n      0xd4b83992\n      eq\n      tag_4\n      jumpi\n    tag_2:\n      0x00\n      dup1\n      revert\n        /* \"T/Transport Layer Security (TLS)/Transport Layer Security (TLS).sol\":4324:4476  function exploit(bytes calldata small) external {... */\n    tag_3:\n      tag_5\n      0x04\n      dup1\n      calldatasize\n      sub\n      dup2\n      add\n      swap1\n      tag_6\n      swap2\n      swap1\n      tag_7\n      jump\t// in\n    tag_6:\n      tag_8\n      jump\t// in\n    tag_5:\n      stop\n        /* \"T/Transport Layer Security (TLS)/Transport Layer Security (TLS).sol\":4233:4263  TLSVulnHeartbeat public target */\n    tag_4:\n      tag_9\n      tag_10\n      jump\t// in\n    tag_9:\n      mload(0x40)\n      tag_11\n      swap2\n      swap1\n      tag_12\n      jump\t// in\n    tag_11:\n      mload(0x40)\n      dup1\n      swap2\n      sub\n      swap1\n      return\n        /* \"T/Transport Layer Security (TLS)/Transport Layer Security (TLS).sol\":4324:4476  function exploit(bytes calldata small) external {... */\n    tag_8:\n        /* \"T/Transport Layer Security (TLS)/Transport Layer Security (TLS).sol\":4438:4444  target */\n      0x00\n      dup1\n      sload\n      swap1\n      0x0100\n      exp\n      swap1\n      div\n      0xffffffffffffffffffffffffffffffffffffffff\n      and\n        /* \"T/Transport Layer Security (TLS)/Transport Layer Security (TLS).sol\":4438:4454  target.heartbeat */\n      0xffffffffffffffffffffffffffffffffffffffff\n      and\n      0x28c21909\n        /* \"T/Transport Layer Security (TLS)/Transport Layer Security (TLS).sol\":4455:4460  small */\n      dup4\n      dup4\n        /* \"T/Transport Layer Security (TLS)/Transport Layer Security (TLS).sol\":4462:4468  0xFFFF */\n      0xffff\n        /* \"T/Transport Layer Security (TLS)/Transport Layer Security (TLS).sol\":4438:4469  target.heartbeat(small, 0xFFFF) */\n      mload(0x40)\n      dup5\n      0xffffffff\n      and\n      0xe0\n      shl\n      dup2\n      mstore\n      0x04\n      add\n      tag_14\n      swap4\n      swap3\n      swap2\n      swap1\n      tag_15\n      jump\t// in\n    tag_14:\n      0x00\n      mload(0x40)\n      dup1\n      dup4\n      sub\n      dup2\n      0x00\n      dup8\n      dup1\n      extcodesize\n      iszero\n      dup1\n      iszero\n      tag_16\n      jumpi\n      0x00\n      dup1\n      revert\n    tag_16:\n      pop\n      gas\n      call\n      iszero\n      dup1\n      iszero\n      tag_18\n      jumpi\n      returndatasize\n      0x00\n      dup1\n      returndatacopy\n      revert(0x00, returndatasize)\n    tag_18:\n      pop\n      pop\n      pop\n      pop\n        /* \"T/Transport Layer Security (TLS)/Transport Layer Security (TLS).sol\":4324:4476  function exploit(bytes calldata small) external {... */\n      pop\n      pop\n      jump\t// out\n        /* \"T/Transport Layer Security (TLS)/Transport Layer Security (TLS).sol\":4233:4263  TLSVulnHeartbeat public target */\n    tag_10:\n      0x00\n      dup1\n      sload\n      swap1\n      0x0100\n      exp\n      swap1\n      div\n      0xffffffffffffffffffffffffffffffffffffffff\n      and\n      dup2\n      jump\t// out\n        /* \"#utility.yul\":88:205   */\n    tag_20:\n        /* \"#utility.yul\":197:198   */\n      0x00\n        /* \"#utility.yul\":194:195   */\n      dup1\n        /* \"#utility.yul\":187:199   */\n      revert\n        /* \"#utility.yul\":211:328   */\n    tag_21:\n        /* \"#utility.yul\":320:321   */\n      0x00\n        /* \"#utility.yul\":317:318   */\n      dup1\n        /* \"#utility.yul\":310:322   */\n      revert\n        /* \"#utility.yul\":334:451   */\n    tag_22:\n        /* \"#utility.yul\":443:444   */\n      0x00\n        /* \"#utility.yul\":440:441   */\n      dup1\n        /* \"#utility.yul\":433:445   */\n      revert\n        /* \"#utility.yul\":457:574   */\n    tag_23:\n        /* \"#utility.yul\":566:567   */\n      0x00\n        /* \"#utility.yul\":563:564   */\n      dup1\n        /* \"#utility.yul\":556:568   */\n      revert\n        /* \"#utility.yul\":580:697   */\n    tag_24:\n        /* \"#utility.yul\":689:690   */\n      0x00\n        /* \"#utility.yul\":686:687   */\n      dup1\n        /* \"#utility.yul\":679:691   */\n      revert\n        /* \"#utility.yul\":716:1268   */\n    tag_25:\n        /* \"#utility.yul\":773:781   */\n      0x00\n        /* \"#utility.yul\":783:789   */\n      dup1\n        /* \"#utility.yul\":833:836   */\n      dup4\n        /* \"#utility.yul\":826:830   */\n      0x1f\n        /* \"#utility.yul\":818:824   */\n      dup5\n        /* \"#utility.yul\":814:831   */\n      add\n        /* \"#utility.yul\":810:837   */\n      slt\n        /* \"#utility.yul\":800:922   */\n      tag_48\n      jumpi\n        /* \"#utility.yul\":841:920   */\n      tag_49\n      tag_22\n      jump\t// in\n    tag_49:\n        /* \"#utility.yul\":800:922   */\n    tag_48:\n        /* \"#utility.yul\":954:960   */\n      dup3\n        /* \"#utility.yul\":941:961   */\n      calldataload\n        /* \"#utility.yul\":931:961   */\n      swap1\n      pop\n        /* \"#utility.yul\":984:1002   */\n      0xffffffffffffffff\n        /* \"#utility.yul\":976:982   */\n      dup2\n        /* \"#utility.yul\":973:1003   */\n      gt\n        /* \"#utility.yul\":970:1087   */\n      iszero\n      tag_50\n      jumpi\n        /* \"#utility.yul\":1006:1085   */\n      tag_51\n      tag_23\n      jump\t// in\n    tag_51:\n        /* \"#utility.yul\":970:1087   */\n    tag_50:\n        /* \"#utility.yul\":1120:1124   */\n      0x20\n        /* \"#utility.yul\":1112:1118   */\n      dup4\n        /* \"#utility.yul\":1108:1125   */\n      add\n        /* \"#utility.yul\":1096:1125   */\n      swap2\n      pop\n        /* \"#utility.yul\":1174:1177   */\n      dup4\n        /* \"#utility.yul\":1166:1170   */\n      0x01\n        /* \"#utility.yul\":1158:1164   */\n      dup3\n        /* \"#utility.yul\":1154:1171   */\n      mul\n        /* \"#utility.yul\":1144:1152   */\n      dup4\n        /* \"#utility.yul\":1140:1172   */\n      add\n        /* \"#utility.yul\":1137:1178   */\n      gt\n        /* \"#utility.yul\":1134:1262   */\n      iszero\n      tag_52\n      jumpi\n        /* \"#utility.yul\":1181:1260   */\n      tag_53\n      tag_24\n      jump\t// in\n    tag_53:\n        /* \"#utility.yul\":1134:1262   */\n    tag_52:\n        /* \"#utility.yul\":716:1268   */\n      swap3\n      pop\n      swap3\n      swap1\n      pop\n      jump\t// out\n        /* \"#utility.yul\":1274:1801   */\n    tag_7:\n        /* \"#utility.yul\":1344:1350   */\n      0x00\n        /* \"#utility.yul\":1352:1358   */\n      dup1\n        /* \"#utility.yul\":1401:1403   */\n      0x20\n        /* \"#utility.yul\":1389:1398   */\n      dup4\n        /* \"#utility.yul\":1380:1387   */\n      dup6\n        /* \"#utility.yul\":1376:1399   */\n      sub\n        /* \"#utility.yul\":1372:1404   */\n      slt\n        /* \"#utility.yul\":1369:1488   */\n      iszero\n      tag_55\n      jumpi\n        /* \"#utility.yul\":1407:1486   */\n      tag_56\n      tag_20\n      jump\t// in\n    tag_56:\n        /* \"#utility.yul\":1369:1488   */\n    tag_55:\n        /* \"#utility.yul\":1555:1556   */\n      0x00\n        /* \"#utility.yul\":1544:1553   */\n      dup4\n        /* \"#utility.yul\":1540:1557   */\n      add\n        /* \"#utility.yul\":1527:1558   */\n      calldataload\n        /* \"#utility.yul\":1585:1603   */\n      0xffffffffffffffff\n        /* \"#utility.yul\":1577:1583   */\n      dup2\n        /* \"#utility.yul\":1574:1604   */\n      gt\n        /* \"#utility.yul\":1571:1688   */\n      iszero\n      tag_57\n      jumpi\n        /* \"#utility.yul\":1607:1686   */\n      tag_58\n      tag_21\n      jump\t// in\n    tag_58:\n        /* \"#utility.yul\":1571:1688   */\n    tag_57:\n        /* \"#utility.yul\":1720:1784   */\n      tag_59\n        /* \"#utility.yul\":1776:1783   */\n      dup6\n        /* \"#utility.yul\":1767:1773   */\n      dup3\n        /* \"#utility.yul\":1756:1765   */\n      dup7\n        /* \"#utility.yul\":1752:1774   */\n      add\n        /* \"#utility.yul\":1720:1784   */\n      tag_25\n      jump\t// in\n    tag_59:\n        /* \"#utility.yul\":1702:1784   */\n      swap3\n      pop\n      swap3\n      pop\n        /* \"#utility.yul\":1498:1794   */\n      pop\n        /* \"#utility.yul\":1274:1801   */\n      swap3\n      pop\n      swap3\n      swap1\n      pop\n      jump\t// out\n        /* \"#utility.yul\":1807:1933   */\n    tag_26:\n        /* \"#utility.yul\":1844:1851   */\n      0x00\n        /* \"#utility.yul\":1884:1926   */\n      0xffffffffffffffffffffffffffffffffffffffff\n        /* \"#utility.yul\":1877:1882   */\n      dup3\n        /* \"#utility.yul\":1873:1927   */\n      and\n        /* \"#utility.yul\":1862:1927   */\n      swap1\n      pop\n        /* \"#utility.yul\":1807:1933   */\n      swap2\n      swap1\n      pop\n      jump\t// out\n        /* \"#utility.yul\":1939:1999   */\n    tag_27:\n        /* \"#utility.yul\":1967:1970   */\n      0x00\n        /* \"#utility.yul\":1988:1993   */\n      dup2\n        /* \"#utility.yul\":1981:1993   */\n      swap1\n      pop\n        /* \"#utility.yul\":1939:1999   */\n      swap2\n      swap1\n      pop\n      jump\t// out\n        /* \"#utility.yul\":2005:2147   */\n    tag_28:\n        /* \"#utility.yul\":2055:2064   */\n      0x00\n        /* \"#utility.yul\":2088:2141   */\n      tag_63\n        /* \"#utility.yul\":2106:2140   */\n      tag_64\n        /* \"#utility.yul\":2115:2139   */\n      tag_65\n        /* \"#utility.yul\":2133:2138   */\n      dup5\n        /* \"#utility.yul\":2115:2139   */\n      tag_26\n      jump\t// in\n    tag_65:\n        /* \"#utility.yul\":2106:2140   */\n      tag_27\n      jump\t// in\n    tag_64:\n        /* \"#utility.yul\":2088:2141   */\n      tag_26\n      jump\t// in\n    tag_63:\n        /* \"#utility.yul\":2075:2141   */\n      swap1\n      pop\n        /* \"#utility.yul\":2005:2147   */\n      swap2\n      swap1\n      pop\n      jump\t// out\n        /* \"#utility.yul\":2153:2279   */\n    tag_29:\n        /* \"#utility.yul\":2203:2212   */\n      0x00\n        /* \"#utility.yul\":2236:2273   */\n      tag_67\n        /* \"#utility.yul\":2267:2272   */\n      dup3\n        /* \"#utility.yul\":2236:2273   */\n      tag_28\n      jump\t// in\n    tag_67:\n        /* \"#utility.yul\":2223:2273   */\n      swap1\n      pop\n        /* \"#utility.yul\":2153:2279   */\n      swap2\n      swap1\n      pop\n      jump\t// out\n        /* \"#utility.yul\":2285:2435   */\n    tag_30:\n        /* \"#utility.yul\":2359:2368   */\n      0x00\n        /* \"#utility.yul\":2392:2429   */\n      tag_69\n        /* \"#utility.yul\":2423:2428   */\n      dup3\n        /* \"#utility.yul\":2392:2429   */\n      tag_29\n      jump\t// in\n    tag_69:\n        /* \"#utility.yul\":2379:2429   */\n      swap1\n      pop\n        /* \"#utility.yul\":2285:2435   */\n      swap2\n      swap1\n      pop\n      jump\t// out\n        /* \"#utility.yul\":2441:2620   */\n    tag_31:\n        /* \"#utility.yul\":2552:2613   */\n      tag_71\n        /* \"#utility.yul\":2607:2612   */\n      dup2\n        /* \"#utility.yul\":2552:2613   */\n      tag_30\n      jump\t// in\n    tag_71:\n        /* \"#utility.yul\":2547:2550   */\n      dup3\n        /* \"#utility.yul\":2540:2614   */\n      mstore\n        /* \"#utility.yul\":2441:2620   */\n      pop\n      pop\n      jump\t// out\n        /* \"#utility.yul\":2626:2896   */\n    tag_12:\n        /* \"#utility.yul\":2743:2747   */\n      0x00\n        /* \"#utility.yul\":2781:2783   */\n      0x20\n        /* \"#utility.yul\":2770:2779   */\n      dup3\n        /* \"#utility.yul\":2766:2784   */\n      add\n        /* \"#utility.yul\":2758:2784   */\n      swap1\n      pop\n        /* \"#utility.yul\":2794:2889   */\n      tag_73\n        /* \"#utility.yul\":2886:2887   */\n      0x00\n        /* \"#utility.yul\":2875:2884   */\n      dup4\n        /* \"#utility.yul\":2871:2888   */\n      add\n        /* \"#utility.yul\":2862:2868   */\n      dup5\n        /* \"#utility.yul\":2794:2889   */\n      tag_31\n      jump\t// in\n    tag_73:\n        /* \"#utility.yul\":2626:2896   */\n      swap3\n      swap2\n      pop\n      pop\n      jump\t// out\n        /* \"#utility.yul\":2902:3070   */\n    tag_32:\n        /* \"#utility.yul\":2985:2996   */\n      0x00\n        /* \"#utility.yul\":3019:3025   */\n      dup3\n        /* \"#utility.yul\":3014:3017   */\n      dup3\n        /* \"#utility.yul\":3007:3026   */\n      mstore\n        /* \"#utility.yul\":3059:3063   */\n      0x20\n        /* \"#utility.yul\":3054:3057   */\n      dup3\n        /* \"#utility.yul\":3050:3064   */\n      add\n        /* \"#utility.yul\":3035:3064   */\n      swap1\n      pop\n        /* \"#utility.yul\":2902:3070   */\n      swap3\n      swap2\n      pop\n      pop\n      jump\t// out\n        /* \"#utility.yul\":3076:3224   */\n    tag_33:\n        /* \"#utility.yul\":3174:3180   */\n      dup3\n        /* \"#utility.yul\":3169:3172   */\n      dup2\n        /* \"#utility.yul\":3164:3167   */\n      dup4\n        /* \"#utility.yul\":3151:3181   */\n      calldatacopy\n        /* \"#utility.yul\":3215:3216   */\n      0x00\n        /* \"#utility.yul\":3206:3212   */\n      dup4\n        /* \"#utility.yul\":3201:3204   */\n      dup4\n        /* \"#utility.yul\":3197:3213   */\n      add\n        /* \"#utility.yul\":3190:3217   */\n      mstore\n        /* \"#utility.yul\":3076:3224   */\n      pop\n      pop\n      pop\n      jump\t// out\n        /* \"#utility.yul\":3230:3332   */\n    tag_34:\n        /* \"#utility.yul\":3271:3277   */\n      0x00\n        /* \"#utility.yul\":3322:3324   */\n      0x1f\n        /* \"#utility.yul\":3318:3325   */\n      not\n        /* \"#utility.yul\":3313:3315   */\n      0x1f\n        /* \"#utility.yul\":3306:3311   */\n      dup4\n        /* \"#utility.yul\":3302:3316   */\n      add\n        /* \"#utility.yul\":3298:3326   */\n      and\n        /* \"#utility.yul\":3288:3326   */\n      swap1\n      pop\n        /* \"#utility.yul\":3230:3332   */\n      swap2\n      swap1\n      pop\n      jump\t// out\n        /* \"#utility.yul\":3360:3674   */\n    tag_35:\n        /* \"#utility.yul\":3456:3459   */\n      0x00\n        /* \"#utility.yul\":3477:3547   */\n      tag_78\n        /* \"#utility.yul\":3540:3546   */\n      dup4\n        /* \"#utility.yul\":3535:3538   */\n      dup6\n        /* \"#utility.yul\":3477:3547   */\n      tag_32\n      jump\t// in\n    tag_78:\n        /* \"#utility.yul\":3470:3547   */\n      swap4\n      pop\n        /* \"#utility.yul\":3557:3613   */\n      tag_79\n        /* \"#utility.yul\":3606:3612   */\n      dup4\n        /* \"#utility.yul\":3601:3604   */\n      dup6\n        /* \"#utility.yul\":3594:3599   */\n      dup5\n        /* \"#utility.yul\":3557:3613   */\n      tag_33\n      jump\t// in\n    tag_79:\n        /* \"#utility.yul\":3638:3667   */\n      tag_80\n        /* \"#utility.yul\":3660:3666   */\n      dup4\n        /* \"#utility.yul\":3638:3667   */\n      tag_34\n      jump\t// in\n    tag_80:\n        /* \"#utility.yul\":3633:3636   */\n      dup5\n        /* \"#utility.yul\":3629:3668   */\n      add\n        /* \"#utility.yul\":3622:3668   */\n      swap1\n      pop\n        /* \"#utility.yul\":3360:3674   */\n      swap4\n      swap3\n      pop\n      pop\n      pop\n      jump\t// out\n        /* \"#utility.yul\":3680:3769   */\n    tag_36:\n        /* \"#utility.yul\":3729:3736   */\n      0x00\n        /* \"#utility.yul\":3758:3763   */\n      dup2\n        /* \"#utility.yul\":3747:3763   */\n      swap1\n      pop\n        /* \"#utility.yul\":3680:3769   */\n      swap2\n      swap1\n      pop\n      jump\t// out\n        /* \"#utility.yul\":3775:3864   */\n    tag_37:\n        /* \"#utility.yul\":3811:3818   */\n      0x00\n        /* \"#utility.yul\":3851:3857   */\n      0xffff\n        /* \"#utility.yul\":3844:3849   */\n      dup3\n        /* \"#utility.yul\":3840:3858   */\n      and\n        /* \"#utility.yul\":3829:3858   */\n      swap1\n      pop\n        /* \"#utility.yul\":3775:3864   */\n      swap2\n      swap1\n      pop\n      jump\t// out\n        /* \"#utility.yul\":3870:4034   */\n    tag_38:\n        /* \"#utility.yul\":3931:3940   */\n      0x00\n        /* \"#utility.yul\":3964:4028   */\n      tag_84\n        /* \"#utility.yul\":3981:4027   */\n      tag_85\n        /* \"#utility.yul\":3990:4026   */\n      tag_86\n        /* \"#utility.yul\":4020:4025   */\n      dup5\n        /* \"#utility.yul\":3990:4026   */\n      tag_36\n      jump\t// in\n    tag_86:\n        /* \"#utility.yul\":3981:4027   */\n      tag_27\n      jump\t// in\n    tag_85:\n        /* \"#utility.yul\":3964:4028   */\n      tag_37\n      jump\t// in\n    tag_84:\n        /* \"#utility.yul\":3951:4028   */\n      swap1\n      pop\n        /* \"#utility.yul\":3870:4034   */\n      swap2\n      swap1\n      pop\n      jump\t// out\n        /* \"#utility.yul\":4040:4193   */\n    tag_39:\n        /* \"#utility.yul\":4138:4186   */\n      tag_88\n        /* \"#utility.yul\":4180:4185   */\n      dup2\n        /* \"#utility.yul\":4138:4186   */\n      tag_38\n      jump\t// in\n    tag_88:\n        /* \"#utility.yul\":4133:4136   */\n      dup3\n        /* \"#utility.yul\":4126:4187   */\n      mstore\n        /* \"#utility.yul\":4040:4193   */\n      pop\n      pop\n      jump\t// out\n        /* \"#utility.yul\":4199:4660   */\n    tag_15:\n        /* \"#utility.yul\":4359:4363   */\n      0x00\n        /* \"#utility.yul\":4397:4399   */\n      0x40\n        /* \"#utility.yul\":4386:4395   */\n      dup3\n        /* \"#utility.yul\":4382:4400   */\n      add\n        /* \"#utility.yul\":4374:4400   */\n      swap1\n      pop\n        /* \"#utility.yul\":4446:4455   */\n      dup2\n        /* \"#utility.yul\":4440:4444   */\n      dup2\n        /* \"#utility.yul\":4436:4456   */\n      sub\n        /* \"#utility.yul\":4432:4433   */\n      0x00\n        /* \"#utility.yul\":4421:4430   */\n      dup4\n        /* \"#utility.yul\":4417:4434   */\n      add\n        /* \"#utility.yul\":4410:4457   */\n      mstore\n        /* \"#utility.yul\":4474:4560   */\n      tag_90\n        /* \"#utility.yul\":4555:4559   */\n      dup2\n        /* \"#utility.yul\":4546:4552   */\n      dup6\n        /* \"#utility.yul\":4538:4544   */\n      dup8\n        /* \"#utility.yul\":4474:4560   */\n      tag_35\n      jump\t// in\n    tag_90:\n        /* \"#utility.yul\":4466:4560   */\n      swap1\n      pop\n        /* \"#utility.yul\":4570:4653   */\n      tag_91\n        /* \"#utility.yul\":4649:4651   */\n      0x20\n        /* \"#utility.yul\":4638:4647   */\n      dup4\n        /* \"#utility.yul\":4634:4652   */\n      add\n        /* \"#utility.yul\":4625:4631   */\n      dup5\n        /* \"#utility.yul\":4570:4653   */\n      tag_39\n      jump\t// in\n    tag_91:\n        /* \"#utility.yul\":4199:4660   */\n      swap5\n      swap4\n      pop\n      pop\n      pop\n      pop\n      jump\t// out\n\n    auxdata: 0xa2646970667358221220620f6e38d7f096af15f45f8fd4d5e7e08c8a53bdd67205b37342841c5e651f5864736f6c634300081a0033\n}\n",
				"bytecode": {
					"linkReferences": {},
					"object": "608060405234801561000f575f80fd5b5060405161048e38038061048e833981810160405281019061003191906100e5565b805f806101000a81548173ffffffffffffffffffffffffffffffffffffffff021916908373ffffffffffffffffffffffffffffffffffffffff16021790555050610110565b5f80fd5b5f73ffffffffffffffffffffffffffffffffffffffff82169050919050565b5f6100a38261007a565b9050919050565b5f6100b482610099565b9050919050565b6100c4816100aa565b81146100ce575f80fd5b50565b5f815190506100df816100bb565b92915050565b5f602082840312156100fa576100f9610076565b5b5f610107848285016100d1565b91505092915050565b6103718061011d5f395ff3fe608060405234801561000f575f80fd5b5060043610610034575f3560e01c806353a2d9cb14610038578063d4b8399214610054575b5f80fd5b610052600480360381019061004d919061018d565b610072565b005b61005c610101565b6040516100699190610252565b60405180910390f35b5f8054906101000a900473ffffffffffffffffffffffffffffffffffffffff1673ffffffffffffffffffffffffffffffffffffffff166328c21909838361ffff6040518463ffffffff1660e01b81526004016100d09392919061030b565b5f604051808303815f87803b1580156100e7575f80fd5b505af11580156100f9573d5f803e3d5ffd5b505050505050565b5f8054906101000a900473ffffffffffffffffffffffffffffffffffffffff1681565b5f80fd5b5f80fd5b5f80fd5b5f80fd5b5f80fd5b5f8083601f84011261014d5761014c61012c565b5b8235905067ffffffffffffffff81111561016a57610169610130565b5b60208301915083600182028301111561018657610185610134565b5b9250929050565b5f80602083850312156101a3576101a2610124565b5b5f83013567ffffffffffffffff8111156101c0576101bf610128565b5b6101cc85828601610138565b92509250509250929050565b5f73ffffffffffffffffffffffffffffffffffffffff82169050919050565b5f819050919050565b5f61021a610215610210846101d8565b6101f7565b6101d8565b9050919050565b5f61022b82610200565b9050919050565b5f61023c82610221565b9050919050565b61024c81610232565b82525050565b5f6020820190506102655f830184610243565b92915050565b5f82825260208201905092915050565b828183375f83830152505050565b5f601f19601f8301169050919050565b5f6102a4838561026b565b93506102b183858461027b565b6102ba83610289565b840190509392505050565b5f819050919050565b5f61ffff82169050919050565b5f6102f56102f06102eb846102c5565b6101f7565b6102ce565b9050919050565b610305816102db565b82525050565b5f6040820190508181035f830152610324818587610299565b905061033360208301846102fc565b94935050505056fea2646970667358221220620f6e38d7f096af15f45f8fd4d5e7e08c8a53bdd67205b37342841c5e651f5864736f6c634300081a0033",
					"opcodes": "PUSH1 0x80 PUSH1 0x40 MSTORE CALLVALUE DUP1 ISZERO PUSH2 0xF JUMPI PUSH0 DUP1 REVERT JUMPDEST POP PUSH1 0x40 MLOAD PUSH2 0x48E CODESIZE SUB DUP1 PUSH2 0x48E DUP4 CODECOPY DUP2 DUP2 ADD PUSH1 0x40 MSTORE DUP2 ADD SWAP1 PUSH2 0x31 SWAP2 SWAP1 PUSH2 0xE5 JUMP JUMPDEST DUP1 PUSH0 DUP1 PUSH2 0x100 EXP DUP2 SLOAD DUP2 PUSH20 0xFFFFFFFFFFFFFFFFFFFFFFFFFFFFFFFFFFFFFFFF MUL NOT AND SWAP1 DUP4 PUSH20 0xFFFFFFFFFFFFFFFFFFFFFFFFFFFFFFFFFFFFFFFF AND MUL OR SWAP1 SSTORE POP POP PUSH2 0x110 JUMP JUMPDEST PUSH0 DUP1 REVERT JUMPDEST PUSH0 PUSH20 0xFFFFFFFFFFFFFFFFFFFFFFFFFFFFFFFFFFFFFFFF DUP3 AND SWAP1 POP SWAP2 SWAP1 POP JUMP JUMPDEST PUSH0 PUSH2 0xA3 DUP3 PUSH2 0x7A JUMP JUMPDEST SWAP1 POP SWAP2 SWAP1 POP JUMP JUMPDEST PUSH0 PUSH2 0xB4 DUP3 PUSH2 0x99 JUMP JUMPDEST SWAP1 POP SWAP2 SWAP1 POP JUMP JUMPDEST PUSH2 0xC4 DUP2 PUSH2 0xAA JUMP JUMPDEST DUP2 EQ PUSH2 0xCE JUMPI PUSH0 DUP1 REVERT JUMPDEST POP JUMP JUMPDEST PUSH0 DUP2 MLOAD SWAP1 POP PUSH2 0xDF DUP2 PUSH2 0xBB JUMP JUMPDEST SWAP3 SWAP2 POP POP JUMP JUMPDEST PUSH0 PUSH1 0x20 DUP3 DUP5 SUB SLT ISZERO PUSH2 0xFA JUMPI PUSH2 0xF9 PUSH2 0x76 JUMP JUMPDEST JUMPDEST PUSH0 PUSH2 0x107 DUP5 DUP3 DUP6 ADD PUSH2 0xD1 JUMP JUMPDEST SWAP2 POP POP SWAP3 SWAP2 POP POP JUMP JUMPDEST PUSH2 0x371 DUP1 PUSH2 0x11D PUSH0 CODECOPY PUSH0 RETURN INVALID PUSH1 0x80 PUSH1 0x40 MSTORE CALLVALUE DUP1 ISZERO PUSH2 0xF JUMPI PUSH0 DUP1 REVERT JUMPDEST POP PUSH1 0x4 CALLDATASIZE LT PUSH2 0x34 JUMPI PUSH0 CALLDATALOAD PUSH1 0xE0 SHR DUP1 PUSH4 0x53A2D9CB EQ PUSH2 0x38 JUMPI DUP1 PUSH4 0xD4B83992 EQ PUSH2 0x54 JUMPI JUMPDEST PUSH0 DUP1 REVERT JUMPDEST PUSH2 0x52 PUSH1 0x4 DUP1 CALLDATASIZE SUB DUP2 ADD SWAP1 PUSH2 0x4D SWAP2 SWAP1 PUSH2 0x18D JUMP JUMPDEST PUSH2 0x72 JUMP JUMPDEST STOP JUMPDEST PUSH2 0x5C PUSH2 0x101 JUMP JUMPDEST PUSH1 0x40 MLOAD PUSH2 0x69 SWAP2 SWAP1 PUSH2 0x252 JUMP JUMPDEST PUSH1 0x40 MLOAD DUP1 SWAP2 SUB SWAP1 RETURN JUMPDEST PUSH0 DUP1 SLOAD SWAP1 PUSH2 0x100 EXP SWAP1 DIV PUSH20 0xFFFFFFFFFFFFFFFFFFFFFFFFFFFFFFFFFFFFFFFF AND PUSH20 0xFFFFFFFFFFFFFFFFFFFFFFFFFFFFFFFFFFFFFFFF AND PUSH4 0x28C21909 DUP4 DUP4 PUSH2 0xFFFF PUSH1 0x40 MLOAD DUP5 PUSH4 0xFFFFFFFF AND PUSH1 0xE0 SHL DUP2 MSTORE PUSH1 0x4 ADD PUSH2 0xD0 SWAP4 SWAP3 SWAP2 SWAP1 PUSH2 0x30B JUMP JUMPDEST PUSH0 PUSH1 0x40 MLOAD DUP1 DUP4 SUB DUP2 PUSH0 DUP8 DUP1 EXTCODESIZE ISZERO DUP1 ISZERO PUSH2 0xE7 JUMPI PUSH0 DUP1 REVERT JUMPDEST POP GAS CALL ISZERO DUP1 ISZERO PUSH2 0xF9 JUMPI RETURNDATASIZE PUSH0 DUP1 RETURNDATACOPY RETURNDATASIZE PUSH0 REVERT JUMPDEST POP POP POP POP POP POP JUMP JUMPDEST PUSH0 DUP1 SLOAD SWAP1 PUSH2 0x100 EXP SWAP1 DIV PUSH20 0xFFFFFFFFFFFFFFFFFFFFFFFFFFFFFFFFFFFFFFFF AND DUP2 JUMP JUMPDEST PUSH0 DUP1 REVERT JUMPDEST PUSH0 DUP1 REVERT JUMPDEST PUSH0 DUP1 REVERT JUMPDEST PUSH0 DUP1 REVERT JUMPDEST PUSH0 DUP1 REVERT JUMPDEST PUSH0 DUP1 DUP4 PUSH1 0x1F DUP5 ADD SLT PUSH2 0x14D JUMPI PUSH2 0x14C PUSH2 0x12C JUMP JUMPDEST JUMPDEST DUP3 CALLDATALOAD SWAP1 POP PUSH8 0xFFFFFFFFFFFFFFFF DUP2 GT ISZERO PUSH2 0x16A JUMPI PUSH2 0x169 PUSH2 0x130 JUMP JUMPDEST JUMPDEST PUSH1 0x20 DUP4 ADD SWAP2 POP DUP4 PUSH1 0x1 DUP3 MUL DUP4 ADD GT ISZERO PUSH2 0x186 JUMPI PUSH2 0x185 PUSH2 0x134 JUMP JUMPDEST JUMPDEST SWAP3 POP SWAP3 SWAP1 POP JUMP JUMPDEST PUSH0 DUP1 PUSH1 0x20 DUP4 DUP6 SUB SLT ISZERO PUSH2 0x1A3 JUMPI PUSH2 0x1A2 PUSH2 0x124 JUMP JUMPDEST JUMPDEST PUSH0 DUP4 ADD CALLDATALOAD PUSH8 0xFFFFFFFFFFFFFFFF DUP2 GT ISZERO PUSH2 0x1C0 JUMPI PUSH2 0x1BF PUSH2 0x128 JUMP JUMPDEST JUMPDEST PUSH2 0x1CC DUP6 DUP3 DUP7 ADD PUSH2 0x138 JUMP JUMPDEST SWAP3 POP SWAP3 POP POP SWAP3 POP SWAP3 SWAP1 POP JUMP JUMPDEST PUSH0 PUSH20 0xFFFFFFFFFFFFFFFFFFFFFFFFFFFFFFFFFFFFFFFF DUP3 AND SWAP1 POP SWAP2 SWAP1 POP JUMP JUMPDEST PUSH0 DUP2 SWAP1 POP SWAP2 SWAP1 POP JUMP JUMPDEST PUSH0 PUSH2 0x21A PUSH2 0x215 PUSH2 0x210 DUP5 PUSH2 0x1D8 JUMP JUMPDEST PUSH2 0x1F7 JUMP JUMPDEST PUSH2 0x1D8 JUMP JUMPDEST SWAP1 POP SWAP2 SWAP1 POP JUMP JUMPDEST PUSH0 PUSH2 0x22B DUP3 PUSH2 0x200 JUMP JUMPDEST SWAP1 POP SWAP2 SWAP1 POP JUMP JUMPDEST PUSH0 PUSH2 0x23C DUP3 PUSH2 0x221 JUMP JUMPDEST SWAP1 POP SWAP2 SWAP1 POP JUMP JUMPDEST PUSH2 0x24C DUP2 PUSH2 0x232 JUMP JUMPDEST DUP3 MSTORE POP POP JUMP JUMPDEST PUSH0 PUSH1 0x20 DUP3 ADD SWAP1 POP PUSH2 0x265 PUSH0 DUP4 ADD DUP5 PUSH2 0x243 JUMP JUMPDEST SWAP3 SWAP2 POP POP JUMP JUMPDEST PUSH0 DUP3 DUP3 MSTORE PUSH1 0x20 DUP3 ADD SWAP1 POP SWAP3 SWAP2 POP POP JUMP JUMPDEST DUP3 DUP2 DUP4 CALLDATACOPY PUSH0 DUP4 DUP4 ADD MSTORE POP POP POP JUMP JUMPDEST PUSH0 PUSH1 0x1F NOT PUSH1 0x1F DUP4 ADD AND SWAP1 POP SWAP2 SWAP1 POP JUMP JUMPDEST PUSH0 PUSH2 0x2A4 DUP4 DUP6 PUSH2 0x26B JUMP JUMPDEST SWAP4 POP PUSH2 0x2B1 DUP4 DUP6 DUP5 PUSH2 0x27B JUMP JUMPDEST PUSH2 0x2BA DUP4 PUSH2 0x289 JUMP JUMPDEST DUP5 ADD SWAP1 POP SWAP4 SWAP3 POP POP POP JUMP JUMPDEST PUSH0 DUP2 SWAP1 POP SWAP2 SWAP1 POP JUMP JUMPDEST PUSH0 PUSH2 0xFFFF DUP3 AND SWAP1 POP SWAP2 SWAP1 POP JUMP JUMPDEST PUSH0 PUSH2 0x2F5 PUSH2 0x2F0 PUSH2 0x2EB DUP5 PUSH2 0x2C5 JUMP JUMPDEST PUSH2 0x1F7 JUMP JUMPDEST PUSH2 0x2CE JUMP JUMPDEST SWAP1 POP SWAP2 SWAP1 POP JUMP JUMPDEST PUSH2 0x305 DUP2 PUSH2 0x2DB JUMP JUMPDEST DUP3 MSTORE POP POP JUMP JUMPDEST PUSH0 PUSH1 0x40 DUP3 ADD SWAP1 POP DUP2 DUP2 SUB PUSH0 DUP4 ADD MSTORE PUSH2 0x324 DUP2 DUP6 DUP8 PUSH2 0x299 JUMP JUMPDEST SWAP1 POP PUSH2 0x333 PUSH1 0x20 DUP4 ADD DUP5 PUSH2 0x2FC JUMP JUMPDEST SWAP5 SWAP4 POP POP POP POP JUMP INVALID LOG2 PUSH5 0x6970667358 0x22 SLT KECCAK256 PUSH3 0xF6E38 0xD7 CREATE SWAP7 0xAF ISZERO DELEGATECALL PUSH0 DUP16 0xD4 0xD5 0xE7 0xE0 DUP13 DUP11 MSTORE8 0xBD 0xD6 PUSH19 0x5B37342841C5E651F5864736F6C634300081A STOP CALLER "
				},
				"gasEstimates": {
					"creation": {
						"codeDepositCost": "176200",
						"executionCost": "infinite",
						"totalCost": "infinite"
					},
					"external": {
						"exploit(bytes)": "infinite",
						"target()": "infinite"
					}
				},
				"methodIdentifiers": {
					"exploit(bytes)": "53a2d9cb",
					"target()": "d4b83992"
				}
			},
			"storageLayout": {
				"storage": [
					{
						"astId": 271,
						"contract": "T/Transport Layer Security (TLS)/Transport Layer Security (TLS).sol:Attack_TLSHeartbeat",
						"label": "target",
						"offset": 0,
						"slot": "0",
						"type": "t_contract(TLSVulnHeartbeat)268"
					}
				],
				"types": {
					"t_contract(TLSVulnHeartbeat)268": {
						"encoding": "inplace",
						"label": "contract TLSVulnHeartbeat",
						"numberOfBytes": "20"
					}
				}
			},
			"userdoc": {
				"kind": "user",
				"methods": {},
				"version": 1
			}
		}
	}
}