{
	"T/Transport Layer Security (TLS)/Transport Layer Security (TLS).sol": {
		"Attack_TLSReneg": {
			"abi": [
				{
					"inputs": [
						{
							"internalType": "contract TLSVulnRenegotiation",
							"name": "_t",
							"type": "address"
						}
					],
					"stateMutability": "nonpayable",
					"type": "constructor"
				},
				{
					"inputs": [],
					"name": "spoof",
					"outputs": [],
					"stateMutability": "nonpayable",
					"type": "function"
				},
				{
					"inputs": [],
					"name": "target",
					"outputs": [
						{
							"internalType": "contract TLSVulnRenegotiation",
							"name": "",
							"type": "address"
						}
					],
					"stateMutability": "view",
					"type": "function"
				}
			],
			"devdoc": {
				"kind": "dev",
				"methods": {},
				"version": 1
			},
			"evm": {
				"assembly": "    /* \"T/Transport Layer Security (TLS)/Transport Layer Security (TLS).sol\":5606:5820  contract Attack_TLSReneg {... */\n  mstore(0x40, 0x80)\n    /* \"T/Transport Layer Security (TLS)/Transport Layer Security (TLS).sol\":5677:5730  constructor(TLSVulnRenegotiation _t) { target = _t; } */\n  callvalue\n  dup1\n  iszero\n  tag_1\n  jumpi\n  0x00\n  dup1\n  revert\ntag_1:\n  pop\n  mload(0x40)\n  sub(codesize, bytecodeSize)\n  dup1\n  bytecodeSize\n  dup4\n  codecopy\n  dup2\n  dup2\n  add\n  0x40\n  mstore\n  dup2\n  add\n  swap1\n  tag_2\n  swap2\n  swap1\n  tag_3\n  jump\t// in\ntag_2:\n    /* \"T/Transport Layer Security (TLS)/Transport Layer Security (TLS).sol\":5725:5727  _t */\n  dup1\n    /* \"T/Transport Layer Security (TLS)/Transport Layer Security (TLS).sol\":5716:5722  target */\n  0x00\n  dup1\n    /* \"T/Transport Layer Security (TLS)/Transport Layer Security (TLS).sol\":5716:5727  target = _t */\n  0x0100\n  exp\n  dup2\n  sload\n  dup2\n  0xffffffffffffffffffffffffffffffffffffffff\n  mul\n  not\n  and\n  swap1\n  dup4\n  0xffffffffffffffffffffffffffffffffffffffff\n  and\n  mul\n  or\n  swap1\n  sstore\n  pop\n    /* \"T/Transport Layer Security (TLS)/Transport Layer Security (TLS).sol\":5677:5730  constructor(TLSVulnRenegotiation _t) { target = _t; } */\n  pop\n    /* \"T/Transport Layer Security (TLS)/Transport Layer Security (TLS).sol\":5606:5820  contract Attack_TLSReneg {... */\n  jump(tag_6)\n    /* \"#utility.yul\":88:205   */\ntag_8:\n    /* \"#utility.yul\":197:198   */\n  0x00\n    /* \"#utility.yul\":194:195   */\n  dup1\n    /* \"#utility.yul\":187:199   */\n  revert\n    /* \"#utility.yul\":334:460   */\ntag_10:\n    /* \"#utility.yul\":371:378   */\n  0x00\n    /* \"#utility.yul\":411:453   */\n  0xffffffffffffffffffffffffffffffffffffffff\n    /* \"#utility.yul\":404:409   */\n  dup3\n    /* \"#utility.yul\":400:454   */\n  and\n    /* \"#utility.yul\":389:454   */\n  swap1\n  pop\n    /* \"#utility.yul\":334:460   */\n  swap2\n  swap1\n  pop\n  jump\t// out\n    /* \"#utility.yul\":466:562   */\ntag_11:\n    /* \"#utility.yul\":503:510   */\n  0x00\n    /* \"#utility.yul\":532:556   */\n  tag_21\n    /* \"#utility.yul\":550:555   */\n  dup3\n    /* \"#utility.yul\":532:556   */\n  tag_10\n  jump\t// in\ntag_21:\n    /* \"#utility.yul\":521:556   */\n  swap1\n  pop\n    /* \"#utility.yul\":466:562   */\n  swap2\n  swap1\n  pop\n  jump\t// out\n    /* \"#utility.yul\":568:692   */\ntag_12:\n    /* \"#utility.yul\":633:640   */\n  0x00\n    /* \"#utility.yul\":662:686   */\n  tag_23\n    /* \"#utility.yul\":680:685   */\n  dup3\n    /* \"#utility.yul\":662:686   */\n  tag_11\n  jump\t// in\ntag_23:\n    /* \"#utility.yul\":651:686   */\n  swap1\n  pop\n    /* \"#utility.yul\":568:692   */\n  swap2\n  swap1\n  pop\n  jump\t// out\n    /* \"#utility.yul\":698:876   */\ntag_13:\n    /* \"#utility.yul\":799:851   */\n  tag_25\n    /* \"#utility.yul\":845:850   */\n  dup2\n    /* \"#utility.yul\":799:851   */\n  tag_12\n  jump\t// in\ntag_25:\n    /* \"#utility.yul\":792:797   */\n  dup2\n    /* \"#utility.yul\":789:852   */\n  eq\n    /* \"#utility.yul\":779:870   */\n  tag_26\n  jumpi\n    /* \"#utility.yul\":866:867   */\n  0x00\n    /* \"#utility.yul\":863:864   */\n  dup1\n    /* \"#utility.yul\":856:868   */\n  revert\n    /* \"#utility.yul\":779:870   */\ntag_26:\n    /* \"#utility.yul\":698:876   */\n  pop\n  jump\t// out\n    /* \"#utility.yul\":882:1081   */\ntag_14:\n    /* \"#utility.yul\":967:972   */\n  0x00\n    /* \"#utility.yul\":998:1004   */\n  dup2\n    /* \"#utility.yul\":992:1005   */\n  mload\n    /* \"#utility.yul\":983:1005   */\n  swap1\n  pop\n    /* \"#utility.yul\":1014:1075   */\n  tag_28\n    /* \"#utility.yul\":1069:1074   */\n  dup2\n    /* \"#utility.yul\":1014:1075   */\n  tag_13\n  jump\t// in\ntag_28:\n    /* \"#utility.yul\":882:1081   */\n  swap3\n  swap2\n  pop\n  pop\n  jump\t// out\n    /* \"#utility.yul\":1087:1494   */\ntag_3:\n    /* \"#utility.yul\":1185:1191   */\n  0x00\n    /* \"#utility.yul\":1234:1236   */\n  0x20\n    /* \"#utility.yul\":1222:1231   */\n  dup3\n    /* \"#utility.yul\":1213:1220   */\n  dup5\n    /* \"#utility.yul\":1209:1232   */\n  sub\n    /* \"#utility.yul\":1205:1237   */\n  slt\n    /* \"#utility.yul\":1202:1321   */\n  iszero\n  tag_30\n  jumpi\n    /* \"#utility.yul\":1240:1319   */\n  tag_31\n  tag_8\n  jump\t// in\ntag_31:\n    /* \"#utility.yul\":1202:1321   */\ntag_30:\n    /* \"#utility.yul\":1360:1361   */\n  0x00\n    /* \"#utility.yul\":1385:1477   */\n  tag_32\n    /* \"#utility.yul\":1469:1476   */\n  dup5\n    /* \"#utility.yul\":1460:1466   */\n  dup3\n    /* \"#utility.yul\":1449:1458   */\n  dup6\n    /* \"#utility.yul\":1445:1467   */\n  add\n    /* \"#utility.yul\":1385:1477   */\n  tag_14\n  jump\t// in\ntag_32:\n    /* \"#utility.yul\":1375:1477   */\n  swap2\n  pop\n    /* \"#utility.yul\":1331:1487   */\n  pop\n    /* \"#utility.yul\":1087:1494   */\n  swap3\n  swap2\n  pop\n  pop\n  jump\t// out\n    /* \"T/Transport Layer Security (TLS)/Transport Layer Security (TLS).sol\":5606:5820  contract Attack_TLSReneg {... */\ntag_6:\n  dataSize(sub_0)\n  dup1\n  dataOffset(sub_0)\n  0x00\n  codecopy\n  0x00\n  return\nstop\n\nsub_0: assembly {\n        /* \"T/Transport Layer Security (TLS)/Transport Layer Security (TLS).sol\":5606:5820  contract Attack_TLSReneg {... */\n      mstore(0x40, 0x80)\n      callvalue\n      dup1\n      iszero\n      tag_1\n      jumpi\n      0x00\n      dup1\n      revert\n    tag_1:\n      pop\n      jumpi(tag_2, lt(calldatasize, 0x04))\n      shr(0xe0, calldataload(0x00))\n      dup1\n      0x92693858\n      eq\n      tag_3\n      jumpi\n      dup1\n      0xd4b83992\n      eq\n      tag_4\n      jumpi\n    tag_2:\n      0x00\n      dup1\n      revert\n        /* \"T/Transport Layer Security (TLS)/Transport Layer Security (TLS).sol\":5736:5818  function spoof() external {... */\n    tag_3:\n      tag_5\n      tag_6\n      jump\t// in\n    tag_5:\n      stop\n        /* \"T/Transport Layer Security (TLS)/Transport Layer Security (TLS).sol\":5637:5671  TLSVulnRenegotiation public target */\n    tag_4:\n      tag_7\n      tag_8\n      jump\t// in\n    tag_7:\n      mload(0x40)\n      tag_9\n      swap2\n      swap1\n      tag_10\n      jump\t// in\n    tag_9:\n      mload(0x40)\n      dup1\n      swap2\n      sub\n      swap1\n      return\n        /* \"T/Transport Layer Security (TLS)/Transport Layer Security (TLS).sol\":5736:5818  function spoof() external {... */\n    tag_6:\n        /* \"T/Transport Layer Security (TLS)/Transport Layer Security (TLS).sol\":5772:5778  target */\n      0x00\n      dup1\n      sload\n      swap1\n      0x0100\n      exp\n      swap1\n      div\n      0xffffffffffffffffffffffffffffffffffffffff\n      and\n        /* \"T/Transport Layer Security (TLS)/Transport Layer Security (TLS).sol\":5772:5790  target.renegotiate */\n      0xffffffffffffffffffffffffffffffffffffffff\n      and\n      0x8aa5dfd0\n        /* \"T/Transport Layer Security (TLS)/Transport Layer Security (TLS).sol\":5799:5805  0xBEEF */\n      0xbeef\n        /* \"T/Transport Layer Security (TLS)/Transport Layer Security (TLS).sol\":5772:5811  target.renegotiate(address(0xBEEF), \"\") */\n      mload(0x40)\n      dup3\n      0xffffffff\n      and\n      0xe0\n      shl\n      dup2\n      mstore\n      0x04\n      add\n      tag_12\n      swap2\n      swap1\n      tag_13\n      jump\t// in\n    tag_12:\n      0x00\n      mload(0x40)\n      dup1\n      dup4\n      sub\n      dup2\n      0x00\n      dup8\n      dup1\n      extcodesize\n      iszero\n      dup1\n      iszero\n      tag_14\n      jumpi\n      0x00\n      dup1\n      revert\n    tag_14:\n      pop\n      gas\n      call\n      iszero\n      dup1\n      iszero\n      tag_16\n      jumpi\n      returndatasize\n      0x00\n      dup1\n      returndatacopy\n      revert(0x00, returndatasize)\n    tag_16:\n      pop\n      pop\n      pop\n      pop\n        /* \"T/Transport Layer Security (TLS)/Transport Layer Security (TLS).sol\":5736:5818  function spoof() external {... */\n      jump\t// out\n        /* \"T/Transport Layer Security (TLS)/Transport Layer Security (TLS).sol\":5637:5671  TLSVulnRenegotiation public target */\n    tag_8:\n      0x00\n      dup1\n      sload\n      swap1\n      0x0100\n      exp\n      swap1\n      div\n      0xffffffffffffffffffffffffffffffffffffffff\n      and\n      dup2\n      jump\t// out\n        /* \"#utility.yul\":7:133   */\n    tag_17:\n        /* \"#utility.yul\":44:51   */\n      0x00\n        /* \"#utility.yul\":84:126   */\n      0xffffffffffffffffffffffffffffffffffffffff\n        /* \"#utility.yul\":77:82   */\n      dup3\n        /* \"#utility.yul\":73:127   */\n      and\n        /* \"#utility.yul\":62:127   */\n      swap1\n      pop\n        /* \"#utility.yul\":7:133   */\n      swap2\n      swap1\n      pop\n      jump\t// out\n        /* \"#utility.yul\":139:199   */\n    tag_18:\n        /* \"#utility.yul\":167:170   */\n      0x00\n        /* \"#utility.yul\":188:193   */\n      dup2\n        /* \"#utility.yul\":181:193   */\n      swap1\n      pop\n        /* \"#utility.yul\":139:199   */\n      swap2\n      swap1\n      pop\n      jump\t// out\n        /* \"#utility.yul\":205:347   */\n    tag_19:\n        /* \"#utility.yul\":255:264   */\n      0x00\n        /* \"#utility.yul\":288:341   */\n      tag_32\n        /* \"#utility.yul\":306:340   */\n      tag_33\n        /* \"#utility.yul\":315:339   */\n      tag_34\n        /* \"#utility.yul\":333:338   */\n      dup5\n        /* \"#utility.yul\":315:339   */\n      tag_17\n      jump\t// in\n    tag_34:\n        /* \"#utility.yul\":306:340   */\n      tag_18\n      jump\t// in\n    tag_33:\n        /* \"#utility.yul\":288:341   */\n      tag_17\n      jump\t// in\n    tag_32:\n        /* \"#utility.yul\":275:341   */\n      swap1\n      pop\n        /* \"#utility.yul\":205:347   */\n      swap2\n      swap1\n      pop\n      jump\t// out\n        /* \"#utility.yul\":353:479   */\n    tag_20:\n        /* \"#utility.yul\":403:412   */\n      0x00\n        /* \"#utility.yul\":436:473   */\n      tag_36\n        /* \"#utility.yul\":467:472   */\n      dup3\n        /* \"#utility.yul\":436:473   */\n      tag_19\n      jump\t// in\n    tag_36:\n        /* \"#utility.yul\":423:473   */\n      swap1\n      pop\n        /* \"#utility.yul\":353:479   */\n      swap2\n      swap1\n      pop\n      jump\t// out\n        /* \"#utility.yul\":485:639   */\n    tag_21:\n        /* \"#utility.yul\":563:572   */\n      0x00\n        /* \"#utility.yul\":596:633   */\n      tag_38\n        /* \"#utility.yul\":627:632   */\n      dup3\n        /* \"#utility.yul\":596:633   */\n      tag_20\n      jump\t// in\n    tag_38:\n        /* \"#utility.yul\":583:633   */\n      swap1\n      pop\n        /* \"#utility.yul\":485:639   */\n      swap2\n      swap1\n      pop\n      jump\t// out\n        /* \"#utility.yul\":645:832   */\n    tag_22:\n        /* \"#utility.yul\":760:825   */\n      tag_40\n        /* \"#utility.yul\":819:824   */\n      dup2\n        /* \"#utility.yul\":760:825   */\n      tag_21\n      jump\t// in\n    tag_40:\n        /* \"#utility.yul\":755:758   */\n      dup3\n        /* \"#utility.yul\":748:826   */\n      mstore\n        /* \"#utility.yul\":645:832   */\n      pop\n      pop\n      jump\t// out\n        /* \"#utility.yul\":838:1116   */\n    tag_10:\n        /* \"#utility.yul\":959:963   */\n      0x00\n        /* \"#utility.yul\":997:999   */\n      0x20\n        /* \"#utility.yul\":986:995   */\n      dup3\n        /* \"#utility.yul\":982:1000   */\n      add\n        /* \"#utility.yul\":974:1000   */\n      swap1\n      pop\n        /* \"#utility.yul\":1010:1109   */\n      tag_42\n        /* \"#utility.yul\":1106:1107   */\n      0x00\n        /* \"#utility.yul\":1095:1104   */\n      dup4\n        /* \"#utility.yul\":1091:1108   */\n      add\n        /* \"#utility.yul\":1082:1088   */\n      dup5\n        /* \"#utility.yul\":1010:1109   */\n      tag_22\n      jump\t// in\n    tag_42:\n        /* \"#utility.yul\":838:1116   */\n      swap3\n      swap2\n      pop\n      pop\n      jump\t// out\n        /* \"#utility.yul\":1122:1218   */\n    tag_23:\n        /* \"#utility.yul\":1159:1166   */\n      0x00\n        /* \"#utility.yul\":1188:1212   */\n      tag_44\n        /* \"#utility.yul\":1206:1211   */\n      dup3\n        /* \"#utility.yul\":1188:1212   */\n      tag_17\n      jump\t// in\n    tag_44:\n        /* \"#utility.yul\":1177:1212   */\n      swap1\n      pop\n        /* \"#utility.yul\":1122:1218   */\n      swap2\n      swap1\n      pop\n      jump\t// out\n        /* \"#utility.yul\":1224:1342   */\n    tag_24:\n        /* \"#utility.yul\":1311:1335   */\n      tag_46\n        /* \"#utility.yul\":1329:1334   */\n      dup2\n        /* \"#utility.yul\":1311:1335   */\n      tag_23\n      jump\t// in\n    tag_46:\n        /* \"#utility.yul\":1306:1309   */\n      dup3\n        /* \"#utility.yul\":1299:1336   */\n      mstore\n        /* \"#utility.yul\":1224:1342   */\n      pop\n      pop\n      jump\t// out\n        /* \"#utility.yul\":1348:1516   */\n    tag_25:\n        /* \"#utility.yul\":1431:1442   */\n      0x00\n        /* \"#utility.yul\":1465:1471   */\n      dup3\n        /* \"#utility.yul\":1460:1463   */\n      dup3\n        /* \"#utility.yul\":1453:1472   */\n      mstore\n        /* \"#utility.yul\":1505:1509   */\n      0x20\n        /* \"#utility.yul\":1500:1503   */\n      dup3\n        /* \"#utility.yul\":1496:1510   */\n      add\n        /* \"#utility.yul\":1481:1510   */\n      swap1\n      pop\n        /* \"#utility.yul\":1348:1516   */\n      swap3\n      swap2\n      pop\n      pop\n      jump\t// out\n        /* \"#utility.yul\":1522:1636   */\n    tag_26:\n      pop\n      jump\t// out\n        /* \"#utility.yul\":1642:2004   */\n    tag_27:\n        /* \"#utility.yul\":1783:1786   */\n      0x00\n        /* \"#utility.yul\":1804:1869   */\n      tag_50\n        /* \"#utility.yul\":1867:1868   */\n      0x00\n        /* \"#utility.yul\":1862:1865   */\n      dup4\n        /* \"#utility.yul\":1804:1869   */\n      tag_25\n      jump\t// in\n    tag_50:\n        /* \"#utility.yul\":1797:1869   */\n      swap2\n      pop\n        /* \"#utility.yul\":1878:1971   */\n      tag_51\n        /* \"#utility.yul\":1967:1970   */\n      dup3\n        /* \"#utility.yul\":1878:1971   */\n      tag_26\n      jump\t// in\n    tag_51:\n        /* \"#utility.yul\":1996:1997   */\n      0x00\n        /* \"#utility.yul\":1991:1994   */\n      dup3\n        /* \"#utility.yul\":1987:1998   */\n      add\n        /* \"#utility.yul\":1980:1998   */\n      swap1\n      pop\n        /* \"#utility.yul\":1642:2004   */\n      swap2\n      swap1\n      pop\n      jump\t// out\n        /* \"#utility.yul\":2010:2537   */\n    tag_13:\n        /* \"#utility.yul\":2203:2207   */\n      0x00\n        /* \"#utility.yul\":2241:2243   */\n      0x40\n        /* \"#utility.yul\":2230:2239   */\n      dup3\n        /* \"#utility.yul\":2226:2244   */\n      add\n        /* \"#utility.yul\":2218:2244   */\n      swap1\n      pop\n        /* \"#utility.yul\":2254:2325   */\n      tag_53\n        /* \"#utility.yul\":2322:2323   */\n      0x00\n        /* \"#utility.yul\":2311:2320   */\n      dup4\n        /* \"#utility.yul\":2307:2324   */\n      add\n        /* \"#utility.yul\":2298:2304   */\n      dup5\n        /* \"#utility.yul\":2254:2325   */\n      tag_24\n      jump\t// in\n    tag_53:\n        /* \"#utility.yul\":2372:2381   */\n      dup2\n        /* \"#utility.yul\":2366:2370   */\n      dup2\n        /* \"#utility.yul\":2362:2382   */\n      sub\n        /* \"#utility.yul\":2357:2359   */\n      0x20\n        /* \"#utility.yul\":2346:2355   */\n      dup4\n        /* \"#utility.yul\":2342:2360   */\n      add\n        /* \"#utility.yul\":2335:2383   */\n      mstore\n        /* \"#utility.yul\":2400:2530   */\n      tag_54\n        /* \"#utility.yul\":2525:2529   */\n      dup2\n        /* \"#utility.yul\":2400:2530   */\n      tag_27\n      jump\t// in\n    tag_54:\n        /* \"#utility.yul\":2392:2530   */\n      swap1\n      pop\n        /* \"#utility.yul\":2010:2537   */\n      swap3\n      swap2\n      pop\n      pop\n      jump\t// out\n\n    auxdata: 0xa2646970667358221220532023eb808591feedcb9187a4a7f5f787e3722f7cfe70881d34cae5b887906a64736f6c634300081a0033\n}\n",
				"bytecode": {
					"linkReferences": {},
					"object": "608060405234801561000f575f80fd5b50604051610371380380610371833981810160405281019061003191906100e5565b805f806101000a81548173ffffffffffffffffffffffffffffffffffffffff021916908373ffffffffffffffffffffffffffffffffffffffff16021790555050610110565b5f80fd5b5f73ffffffffffffffffffffffffffffffffffffffff82169050919050565b5f6100a38261007a565b9050919050565b5f6100b482610099565b9050919050565b6100c4816100aa565b81146100ce575f80fd5b50565b5f815190506100df816100bb565b92915050565b5f602082840312156100fa576100f9610076565b5b5f610107848285016100d1565b91505092915050565b6102548061011d5f395ff3fe608060405234801561000f575f80fd5b5060043610610034575f3560e01c80639269385814610038578063d4b8399214610042575b5f80fd5b610040610060565b005b61004a6100e9565b6040516100579190610186565b60405180910390f35b5f8054906101000a900473ffffffffffffffffffffffffffffffffffffffff1673ffffffffffffffffffffffffffffffffffffffff16638aa5dfd061beef6040518263ffffffff1660e01b81526004016100ba91906101f2565b5f604051808303815f87803b1580156100d1575f80fd5b505af11580156100e3573d5f803e3d5ffd5b50505050565b5f8054906101000a900473ffffffffffffffffffffffffffffffffffffffff1681565b5f73ffffffffffffffffffffffffffffffffffffffff82169050919050565b5f819050919050565b5f61014e6101496101448461010c565b61012b565b61010c565b9050919050565b5f61015f82610134565b9050919050565b5f61017082610155565b9050919050565b61018081610166565b82525050565b5f6020820190506101995f830184610177565b92915050565b5f6101a98261010c565b9050919050565b6101b98161019f565b82525050565b5f82825260208201905092915050565b50565b5f6101dd5f836101bf565b91506101e8826101cf565b5f82019050919050565b5f6040820190506102055f8301846101b0565b8181036020830152610216816101d2565b90509291505056fea2646970667358221220532023eb808591feedcb9187a4a7f5f787e3722f7cfe70881d34cae5b887906a64736f6c634300081a0033",
					"opcodes": "PUSH1 0x80 PUSH1 0x40 MSTORE CALLVALUE DUP1 ISZERO PUSH2 0xF JUMPI PUSH0 DUP1 REVERT JUMPDEST POP PUSH1 0x40 MLOAD PUSH2 0x371 CODESIZE SUB DUP1 PUSH2 0x371 DUP4 CODECOPY DUP2 DUP2 ADD PUSH1 0x40 MSTORE DUP2 ADD SWAP1 PUSH2 0x31 SWAP2 SWAP1 PUSH2 0xE5 JUMP JUMPDEST DUP1 PUSH0 DUP1 PUSH2 0x100 EXP DUP2 SLOAD DUP2 PUSH20 0xFFFFFFFFFFFFFFFFFFFFFFFFFFFFFFFFFFFFFFFF MUL NOT AND SWAP1 DUP4 PUSH20 0xFFFFFFFFFFFFFFFFFFFFFFFFFFFFFFFFFFFFFFFF AND MUL OR SWAP1 SSTORE POP POP PUSH2 0x110 JUMP JUMPDEST PUSH0 DUP1 REVERT JUMPDEST PUSH0 PUSH20 0xFFFFFFFFFFFFFFFFFFFFFFFFFFFFFFFFFFFFFFFF DUP3 AND SWAP1 POP SWAP2 SWAP1 POP JUMP JUMPDEST PUSH0 PUSH2 0xA3 DUP3 PUSH2 0x7A JUMP JUMPDEST SWAP1 POP SWAP2 SWAP1 POP JUMP JUMPDEST PUSH0 PUSH2 0xB4 DUP3 PUSH2 0x99 JUMP JUMPDEST SWAP1 POP SWAP2 SWAP1 POP JUMP JUMPDEST PUSH2 0xC4 DUP2 PUSH2 0xAA JUMP JUMPDEST DUP2 EQ PUSH2 0xCE JUMPI PUSH0 DUP1 REVERT JUMPDEST POP JUMP JUMPDEST PUSH0 DUP2 MLOAD SWAP1 POP PUSH2 0xDF DUP2 PUSH2 0xBB JUMP JUMPDEST SWAP3 SWAP2 POP POP JUMP JUMPDEST PUSH0 PUSH1 0x20 DUP3 DUP5 SUB SLT ISZERO PUSH2 0xFA JUMPI PUSH2 0xF9 PUSH2 0x76 JUMP JUMPDEST JUMPDEST PUSH0 PUSH2 0x107 DUP5 DUP3 DUP6 ADD PUSH2 0xD1 JUMP JUMPDEST SWAP2 POP POP SWAP3 SWAP2 POP POP JUMP JUMPDEST PUSH2 0x254 DUP1 PUSH2 0x11D PUSH0 CODECOPY PUSH0 RETURN INVALID PUSH1 0x80 PUSH1 0x40 MSTORE CALLVALUE DUP1 ISZERO PUSH2 0xF JUMPI PUSH0 DUP1 REVERT JUMPDEST POP PUSH1 0x4 CALLDATASIZE LT PUSH2 0x34 JUMPI PUSH0 CALLDATALOAD PUSH1 0xE0 SHR DUP1 PUSH4 0x92693858 EQ PUSH2 0x38 JUMPI DUP1 PUSH4 0xD4B83992 EQ PUSH2 0x42 JUMPI JUMPDEST PUSH0 DUP1 REVERT JUMPDEST PUSH2 0x40 PUSH2 0x60 JUMP JUMPDEST STOP JUMPDEST PUSH2 0x4A PUSH2 0xE9 JUMP JUMPDEST PUSH1 0x40 MLOAD PUSH2 0x57 SWAP2 SWAP1 PUSH2 0x186 JUMP JUMPDEST PUSH1 0x40 MLOAD DUP1 SWAP2 SUB SWAP1 RETURN JUMPDEST PUSH0 DUP1 SLOAD SWAP1 PUSH2 0x100 EXP SWAP1 DIV PUSH20 0xFFFFFFFFFFFFFFFFFFFFFFFFFFFFFFFFFFFFFFFF AND PUSH20 0xFFFFFFFFFFFFFFFFFFFFFFFFFFFFFFFFFFFFFFFF AND PUSH4 0x8AA5DFD0 PUSH2 0xBEEF PUSH1 0x40 MLOAD DUP3 PUSH4 0xFFFFFFFF AND PUSH1 0xE0 SHL DUP2 MSTORE PUSH1 0x4 ADD PUSH2 0xBA SWAP2 SWAP1 PUSH2 0x1F2 JUMP JUMPDEST PUSH0 PUSH1 0x40 MLOAD DUP1 DUP4 SUB DUP2 PUSH0 DUP8 DUP1 EXTCODESIZE ISZERO DUP1 ISZERO PUSH2 0xD1 JUMPI PUSH0 DUP1 REVERT JUMPDEST POP GAS CALL ISZERO DUP1 ISZERO PUSH2 0xE3 JUMPI RETURNDATASIZE PUSH0 DUP1 RETURNDATACOPY RETURNDATASIZE PUSH0 REVERT JUMPDEST POP POP POP POP JUMP JUMPDEST PUSH0 DUP1 SLOAD SWAP1 PUSH2 0x100 EXP SWAP1 DIV PUSH20 0xFFFFFFFFFFFFFFFFFFFFFFFFFFFFFFFFFFFFFFFF AND DUP2 JUMP JUMPDEST PUSH0 PUSH20 0xFFFFFFFFFFFFFFFFFFFFFFFFFFFFFFFFFFFFFFFF DUP3 AND SWAP1 POP SWAP2 SWAP1 POP JUMP JUMPDEST PUSH0 DUP2 SWAP1 POP SWAP2 SWAP1 POP JUMP JUMPDEST PUSH0 PUSH2 0x14E PUSH2 0x149 PUSH2 0x144 DUP5 PUSH2 0x10C JUMP JUMPDEST PUSH2 0x12B JUMP JUMPDEST PUSH2 0x10C JUMP JUMPDEST SWAP1 POP SWAP2 SWAP1 POP JUMP JUMPDEST PUSH0 PUSH2 0x15F DUP3 PUSH2 0x134 JUMP JUMPDEST SWAP1 POP SWAP2 SWAP1 POP JUMP JUMPDEST PUSH0 PUSH2 0x170 DUP3 PUSH2 0x155 JUMP JUMPDEST SWAP1 POP SWAP2 SWAP1 POP JUMP JUMPDEST PUSH2 0x180 DUP2 PUSH2 0x166 JUMP JUMPDEST DUP3 MSTORE POP POP JUMP JUMPDEST PUSH0 PUSH1 0x20 DUP3 ADD SWAP1 POP PUSH2 0x199 PUSH0 DUP4 ADD DUP5 PUSH2 0x177 JUMP JUMPDEST SWAP3 SWAP2 POP POP JUMP JUMPDEST PUSH0 PUSH2 0x1A9 DUP3 PUSH2 0x10C JUMP JUMPDEST SWAP1 POP SWAP2 SWAP1 POP JUMP JUMPDEST PUSH2 0x1B9 DUP2 PUSH2 0x19F JUMP JUMPDEST DUP3 MSTORE POP POP JUMP JUMPDEST PUSH0 DUP3 DUP3 MSTORE PUSH1 0x20 DUP3 ADD SWAP1 POP SWAP3 SWAP2 POP POP JUMP JUMPDEST POP JUMP JUMPDEST PUSH0 PUSH2 0x1DD PUSH0 DUP4 PUSH2 0x1BF JUMP JUMPDEST SWAP2 POP PUSH2 0x1E8 DUP3 PUSH2 0x1CF JUMP JUMPDEST PUSH0 DUP3 ADD SWAP1 POP SWAP2 SWAP1 POP JUMP JUMPDEST PUSH0 PUSH1 0x40 DUP3 ADD SWAP1 POP PUSH2 0x205 PUSH0 DUP4 ADD DUP5 PUSH2 0x1B0 JUMP JUMPDEST DUP2 DUP2 SUB PUSH1 0x20 DUP4 ADD MSTORE PUSH2 0x216 DUP2 PUSH2 0x1D2 JUMP JUMPDEST SWAP1 POP SWAP3 SWAP2 POP POP JUMP INVALID LOG2 PUSH5 0x6970667358 0x22 SLT KECCAK256 MSTORE8 KECCAK256 0x23 0xEB DUP1 DUP6 SWAP2 INVALID 0xED 0xCB SWAP2 DUP8 LOG4 0xA7 CREATE2 0xF7 DUP8 0xE3 PUSH19 0x2F7CFE70881D34CAE5B887906A64736F6C6343 STOP ADDMOD BYTE STOP CALLER "
				},
				"gasEstimates": {
					"creation": {
						"codeDepositCost": "119200",
						"executionCost": "infinite",
						"totalCost": "infinite"
					},
					"external": {
						"spoof()": "infinite",
						"target()": "infinite"
					}
				},
				"methodIdentifiers": {
					"spoof()": "92693858",
					"target()": "d4b83992"
				}
			},
			"storageLayout": {
				"storage": [
					{
						"astId": 370,
						"contract": "T/Transport Layer Security (TLS)/Transport Layer Security (TLS).sol:Attack_TLSReneg",
						"label": "target",
						"offset": 0,
						"slot": "0",
						"type": "t_contract(TLSVulnRenegotiation)367"
					}
				],
				"types": {
					"t_contract(TLSVulnRenegotiation)367": {
						"encoding": "inplace",
						"label": "contract TLSVulnRenegotiation",
						"numberOfBytes": "20"
					}
				}
			},
			"userdoc": {
				"kind": "user",
				"methods": {},
				"version": 1
			}
		}
	}
}