{
	"T/Transport Layer Security (TLS)/Transport Layer Security (TLS).sol": {
		"Attack_TLSRecord": {
			"abi": [
				{
					"inputs": [
						{
							"internalType": "contract TLSVulnRecord",
							"name": "_t",
							"type": "address"
						}
					],
					"stateMutability": "nonpayable",
					"type": "constructor"
				},
				{
					"inputs": [
						{
							"internalType": "address",
							"name": "victim",
							"type": "address"
						}
					],
					"name": "eavesdrop",
					"outputs": [
						{
							"internalType": "bytes",
							"name": "",
							"type": "bytes"
						}
					],
					"stateMutability": "view",
					"type": "function"
				},
				{
					"inputs": [],
					"name": "target",
					"outputs": [
						{
							"internalType": "contract TLSVulnRecord",
							"name": "",
							"type": "address"
						}
					],
					"stateMutability": "view",
					"type": "function"
				}
			],
			"devdoc": {
				"kind": "dev",
				"methods": {},
				"version": 1
			},
			"evm": {
				"assembly": "    /* \"T/Transport Layer Security (TLS)/Transport Layer Security (TLS).sol\":2818:3055  contract Attack_TLSRecord {... */\n  mstore(0x40, 0x80)\n    /* \"T/Transport Layer Security (TLS)/Transport Layer Security (TLS).sol\":2883:2929  constructor(TLSVulnRecord _t) { target = _t; } */\n  callvalue\n  dup1\n  iszero\n  tag_1\n  jumpi\n  0x00\n  dup1\n  revert\ntag_1:\n  pop\n  mload(0x40)\n  sub(codesize, bytecodeSize)\n  dup1\n  bytecodeSize\n  dup4\n  codecopy\n  dup2\n  dup2\n  add\n  0x40\n  mstore\n  dup2\n  add\n  swap1\n  tag_2\n  swap2\n  swap1\n  tag_3\n  jump\t// in\ntag_2:\n    /* \"T/Transport Layer Security (TLS)/Transport Layer Security (TLS).sol\":2924:2926  _t */\n  dup1\n    /* \"T/Transport Layer Security (TLS)/Transport Layer Security (TLS).sol\":2915:2921  target */\n  0x00\n  dup1\n    /* \"T/Transport Layer Security (TLS)/Transport Layer Security (TLS).sol\":2915:2926  target = _t */\n  0x0100\n  exp\n  dup2\n  sload\n  dup2\n  0xffffffffffffffffffffffffffffffffffffffff\n  mul\n  not\n  and\n  swap1\n  dup4\n  0xffffffffffffffffffffffffffffffffffffffff\n  and\n  mul\n  or\n  swap1\n  sstore\n  pop\n    /* \"T/Transport Layer Security (TLS)/Transport Layer Security (TLS).sol\":2883:2929  constructor(TLSVulnRecord _t) { target = _t; } */\n  pop\n    /* \"T/Transport Layer Security (TLS)/Transport Layer Security (TLS).sol\":2818:3055  contract Attack_TLSRecord {... */\n  jump(tag_6)\n    /* \"#utility.yul\":88:205   */\ntag_8:\n    /* \"#utility.yul\":197:198   */\n  0x00\n    /* \"#utility.yul\":194:195   */\n  dup1\n    /* \"#utility.yul\":187:199   */\n  revert\n    /* \"#utility.yul\":334:460   */\ntag_10:\n    /* \"#utility.yul\":371:378   */\n  0x00\n    /* \"#utility.yul\":411:453   */\n  0xffffffffffffffffffffffffffffffffffffffff\n    /* \"#utility.yul\":404:409   */\n  dup3\n    /* \"#utility.yul\":400:454   */\n  and\n    /* \"#utility.yul\":389:454   */\n  swap1\n  pop\n    /* \"#utility.yul\":334:460   */\n  swap2\n  swap1\n  pop\n  jump\t// out\n    /* \"#utility.yul\":466:562   */\ntag_11:\n    /* \"#utility.yul\":503:510   */\n  0x00\n    /* \"#utility.yul\":532:556   */\n  tag_21\n    /* \"#utility.yul\":550:555   */\n  dup3\n    /* \"#utility.yul\":532:556   */\n  tag_10\n  jump\t// in\ntag_21:\n    /* \"#utility.yul\":521:556   */\n  swap1\n  pop\n    /* \"#utility.yul\":466:562   */\n  swap2\n  swap1\n  pop\n  jump\t// out\n    /* \"#utility.yul\":568:685   */\ntag_12:\n    /* \"#utility.yul\":626:633   */\n  0x00\n    /* \"#utility.yul\":655:679   */\n  tag_23\n    /* \"#utility.yul\":673:678   */\n  dup3\n    /* \"#utility.yul\":655:679   */\n  tag_11\n  jump\t// in\ntag_23:\n    /* \"#utility.yul\":644:679   */\n  swap1\n  pop\n    /* \"#utility.yul\":568:685   */\n  swap2\n  swap1\n  pop\n  jump\t// out\n    /* \"#utility.yul\":691:855   */\ntag_13:\n    /* \"#utility.yul\":785:830   */\n  tag_25\n    /* \"#utility.yul\":824:829   */\n  dup2\n    /* \"#utility.yul\":785:830   */\n  tag_12\n  jump\t// in\ntag_25:\n    /* \"#utility.yul\":778:783   */\n  dup2\n    /* \"#utility.yul\":775:831   */\n  eq\n    /* \"#utility.yul\":765:849   */\n  tag_26\n  jumpi\n    /* \"#utility.yul\":845:846   */\n  0x00\n    /* \"#utility.yul\":842:843   */\n  dup1\n    /* \"#utility.yul\":835:847   */\n  revert\n    /* \"#utility.yul\":765:849   */\ntag_26:\n    /* \"#utility.yul\":691:855   */\n  pop\n  jump\t// out\n    /* \"#utility.yul\":861:1046   */\ntag_14:\n    /* \"#utility.yul\":939:944   */\n  0x00\n    /* \"#utility.yul\":970:976   */\n  dup2\n    /* \"#utility.yul\":964:977   */\n  mload\n    /* \"#utility.yul\":955:977   */\n  swap1\n  pop\n    /* \"#utility.yul\":986:1040   */\n  tag_28\n    /* \"#utility.yul\":1034:1039   */\n  dup2\n    /* \"#utility.yul\":986:1040   */\n  tag_13\n  jump\t// in\ntag_28:\n    /* \"#utility.yul\":861:1046   */\n  swap3\n  swap2\n  pop\n  pop\n  jump\t// out\n    /* \"#utility.yul\":1052:1445   */\ntag_3:\n    /* \"#utility.yul\":1143:1149   */\n  0x00\n    /* \"#utility.yul\":1192:1194   */\n  0x20\n    /* \"#utility.yul\":1180:1189   */\n  dup3\n    /* \"#utility.yul\":1171:1178   */\n  dup5\n    /* \"#utility.yul\":1167:1190   */\n  sub\n    /* \"#utility.yul\":1163:1195   */\n  slt\n    /* \"#utility.yul\":1160:1279   */\n  iszero\n  tag_30\n  jumpi\n    /* \"#utility.yul\":1198:1277   */\n  tag_31\n  tag_8\n  jump\t// in\ntag_31:\n    /* \"#utility.yul\":1160:1279   */\ntag_30:\n    /* \"#utility.yul\":1318:1319   */\n  0x00\n    /* \"#utility.yul\":1343:1428   */\n  tag_32\n    /* \"#utility.yul\":1420:1427   */\n  dup5\n    /* \"#utility.yul\":1411:1417   */\n  dup3\n    /* \"#utility.yul\":1400:1409   */\n  dup6\n    /* \"#utility.yul\":1396:1418   */\n  add\n    /* \"#utility.yul\":1343:1428   */\n  tag_14\n  jump\t// in\ntag_32:\n    /* \"#utility.yul\":1333:1428   */\n  swap2\n  pop\n    /* \"#utility.yul\":1289:1438   */\n  pop\n    /* \"#utility.yul\":1052:1445   */\n  swap3\n  swap2\n  pop\n  pop\n  jump\t// out\n    /* \"T/Transport Layer Security (TLS)/Transport Layer Security (TLS).sol\":2818:3055  contract Attack_TLSRecord {... */\ntag_6:\n  dataSize(sub_0)\n  dup1\n  dataOffset(sub_0)\n  0x00\n  codecopy\n  0x00\n  return\nstop\n\nsub_0: assembly {\n        /* \"T/Transport Layer Security (TLS)/Transport Layer Security (TLS).sol\":2818:3055  contract Attack_TLSRecord {... */\n      mstore(0x40, 0x80)\n      callvalue\n      dup1\n      iszero\n      tag_1\n      jumpi\n      0x00\n      dup1\n      revert\n    tag_1:\n      pop\n      jumpi(tag_2, lt(calldatasize, 0x04))\n      shr(0xe0, calldataload(0x00))\n      dup1\n      0xc9e40b34\n      eq\n      tag_3\n      jumpi\n      dup1\n      0xd4b83992\n      eq\n      tag_4\n      jumpi\n    tag_2:\n      0x00\n      dup1\n      revert\n        /* \"T/Transport Layer Security (TLS)/Transport Layer Security (TLS).sol\":2935:3053  function eavesdrop(address victim) external view returns (bytes memory) {... */\n    tag_3:\n      tag_5\n      0x04\n      dup1\n      calldatasize\n      sub\n      dup2\n      add\n      swap1\n      tag_6\n      swap2\n      swap1\n      tag_7\n      jump\t// in\n    tag_6:\n      tag_8\n      jump\t// in\n    tag_5:\n      mload(0x40)\n      tag_9\n      swap2\n      swap1\n      tag_10\n      jump\t// in\n    tag_9:\n      mload(0x40)\n      dup1\n      swap2\n      sub\n      swap1\n      return\n        /* \"T/Transport Layer Security (TLS)/Transport Layer Security (TLS).sol\":2850:2877  TLSVulnRecord public target */\n    tag_4:\n      tag_11\n      tag_12\n      jump\t// in\n    tag_11:\n      mload(0x40)\n      tag_13\n      swap2\n      swap1\n      tag_14\n      jump\t// in\n    tag_13:\n      mload(0x40)\n      dup1\n      swap2\n      sub\n      swap1\n      return\n        /* \"T/Transport Layer Security (TLS)/Transport Layer Security (TLS).sol\":2935:3053  function eavesdrop(address victim) external view returns (bytes memory) {... */\n    tag_8:\n        /* \"T/Transport Layer Security (TLS)/Transport Layer Security (TLS).sol\":2993:3005  bytes memory */\n      0x60\n        /* \"T/Transport Layer Security (TLS)/Transport Layer Security (TLS).sol\":3024:3030  target */\n      0x00\n      dup1\n      sload\n      swap1\n      0x0100\n      exp\n      swap1\n      div\n      0xffffffffffffffffffffffffffffffffffffffff\n      and\n        /* \"T/Transport Layer Security (TLS)/Transport Layer Security (TLS).sol\":3024:3038  target.records */\n      0xffffffffffffffffffffffffffffffffffffffff\n      and\n      0x469e9067\n        /* \"T/Transport Layer Security (TLS)/Transport Layer Security (TLS).sol\":3039:3045  victim */\n      dup4\n        /* \"T/Transport Layer Security (TLS)/Transport Layer Security (TLS).sol\":3024:3046  target.records(victim) */\n      mload(0x40)\n      dup3\n      0xffffffff\n      and\n      0xe0\n      shl\n      dup2\n      mstore\n      0x04\n      add\n      tag_16\n      swap2\n      swap1\n      tag_17\n      jump\t// in\n    tag_16:\n      0x00\n      mload(0x40)\n      dup1\n      dup4\n      sub\n      dup2\n      dup7\n      gas\n      staticcall\n      iszero\n      dup1\n      iszero\n      tag_19\n      jumpi\n      returndatasize\n      0x00\n      dup1\n      returndatacopy\n      revert(0x00, returndatasize)\n    tag_19:\n      pop\n      pop\n      pop\n      pop\n      mload(0x40)\n      returndatasize\n      0x00\n      dup3\n      returndatacopy\n      returndatasize\n      not(0x1f)\n      0x1f\n      dup3\n      add\n      and\n      dup3\n      add\n      dup1\n      0x40\n      mstore\n      pop\n      dup2\n      add\n      swap1\n      tag_20\n      swap2\n      swap1\n      tag_21\n      jump\t// in\n    tag_20:\n        /* \"T/Transport Layer Security (TLS)/Transport Layer Security (TLS).sol\":3017:3046  return target.records(victim) */\n      swap1\n      pop\n        /* \"T/Transport Layer Security (TLS)/Transport Layer Security (TLS).sol\":2935:3053  function eavesdrop(address victim) external view returns (bytes memory) {... */\n      swap2\n      swap1\n      pop\n      jump\t// out\n        /* \"T/Transport Layer Security (TLS)/Transport Layer Security (TLS).sol\":2850:2877  TLSVulnRecord public target */\n    tag_12:\n      0x00\n      dup1\n      sload\n      swap1\n      0x0100\n      exp\n      swap1\n      div\n      0xffffffffffffffffffffffffffffffffffffffff\n      and\n      dup2\n      jump\t// out\n        /* \"#utility.yul\":7:82   */\n    tag_22:\n        /* \"#utility.yul\":40:46   */\n      0x00\n        /* \"#utility.yul\":73:75   */\n      0x40\n        /* \"#utility.yul\":67:76   */\n      mload\n        /* \"#utility.yul\":57:76   */\n      swap1\n      pop\n        /* \"#utility.yul\":7:82   */\n      swap1\n      jump\t// out\n        /* \"#utility.yul\":88:205   */\n    tag_23:\n        /* \"#utility.yul\":197:198   */\n      0x00\n        /* \"#utility.yul\":194:195   */\n      dup1\n        /* \"#utility.yul\":187:199   */\n      revert\n        /* \"#utility.yul\":211:328   */\n    tag_24:\n        /* \"#utility.yul\":320:321   */\n      0x00\n        /* \"#utility.yul\":317:318   */\n      dup1\n        /* \"#utility.yul\":310:322   */\n      revert\n        /* \"#utility.yul\":334:460   */\n    tag_25:\n        /* \"#utility.yul\":371:378   */\n      0x00\n        /* \"#utility.yul\":411:453   */\n      0xffffffffffffffffffffffffffffffffffffffff\n        /* \"#utility.yul\":404:409   */\n      dup3\n        /* \"#utility.yul\":400:454   */\n      and\n        /* \"#utility.yul\":389:454   */\n      swap1\n      pop\n        /* \"#utility.yul\":334:460   */\n      swap2\n      swap1\n      pop\n      jump\t// out\n        /* \"#utility.yul\":466:562   */\n    tag_26:\n        /* \"#utility.yul\":503:510   */\n      0x00\n        /* \"#utility.yul\":532:556   */\n      tag_54\n        /* \"#utility.yul\":550:555   */\n      dup3\n        /* \"#utility.yul\":532:556   */\n      tag_25\n      jump\t// in\n    tag_54:\n        /* \"#utility.yul\":521:556   */\n      swap1\n      pop\n        /* \"#utility.yul\":466:562   */\n      swap2\n      swap1\n      pop\n      jump\t// out\n        /* \"#utility.yul\":568:690   */\n    tag_27:\n        /* \"#utility.yul\":641:665   */\n      tag_56\n        /* \"#utility.yul\":659:664   */\n      dup2\n        /* \"#utility.yul\":641:665   */\n      tag_26\n      jump\t// in\n    tag_56:\n        /* \"#utility.yul\":634:639   */\n      dup2\n        /* \"#utility.yul\":631:666   */\n      eq\n        /* \"#utility.yul\":621:684   */\n      tag_57\n      jumpi\n        /* \"#utility.yul\":680:681   */\n      0x00\n        /* \"#utility.yul\":677:678   */\n      dup1\n        /* \"#utility.yul\":670:682   */\n      revert\n        /* \"#utility.yul\":621:684   */\n    tag_57:\n        /* \"#utility.yul\":568:690   */\n      pop\n      jump\t// out\n        /* \"#utility.yul\":696:835   */\n    tag_28:\n        /* \"#utility.yul\":742:747   */\n      0x00\n        /* \"#utility.yul\":780:786   */\n      dup2\n        /* \"#utility.yul\":767:787   */\n      calldataload\n        /* \"#utility.yul\":758:787   */\n      swap1\n      pop\n        /* \"#utility.yul\":796:829   */\n      tag_59\n        /* \"#utility.yul\":823:828   */\n      dup2\n        /* \"#utility.yul\":796:829   */\n      tag_27\n      jump\t// in\n    tag_59:\n        /* \"#utility.yul\":696:835   */\n      swap3\n      swap2\n      pop\n      pop\n      jump\t// out\n        /* \"#utility.yul\":841:1170   */\n    tag_7:\n        /* \"#utility.yul\":900:906   */\n      0x00\n        /* \"#utility.yul\":949:951   */\n      0x20\n        /* \"#utility.yul\":937:946   */\n      dup3\n        /* \"#utility.yul\":928:935   */\n      dup5\n        /* \"#utility.yul\":924:947   */\n      sub\n        /* \"#utility.yul\":920:952   */\n      slt\n        /* \"#utility.yul\":917:1036   */\n      iszero\n      tag_61\n      jumpi\n        /* \"#utility.yul\":955:1034   */\n      tag_62\n      tag_23\n      jump\t// in\n    tag_62:\n        /* \"#utility.yul\":917:1036   */\n    tag_61:\n        /* \"#utility.yul\":1075:1076   */\n      0x00\n        /* \"#utility.yul\":1100:1153   */\n      tag_63\n        /* \"#utility.yul\":1145:1152   */\n      dup5\n        /* \"#utility.yul\":1136:1142   */\n      dup3\n        /* \"#utility.yul\":1125:1134   */\n      dup6\n        /* \"#utility.yul\":1121:1143   */\n      add\n        /* \"#utility.yul\":1100:1153   */\n      tag_28\n      jump\t// in\n    tag_63:\n        /* \"#utility.yul\":1090:1153   */\n      swap2\n      pop\n        /* \"#utility.yul\":1046:1163   */\n      pop\n        /* \"#utility.yul\":841:1170   */\n      swap3\n      swap2\n      pop\n      pop\n      jump\t// out\n        /* \"#utility.yul\":1176:1274   */\n    tag_29:\n        /* \"#utility.yul\":1227:1233   */\n      0x00\n        /* \"#utility.yul\":1261:1266   */\n      dup2\n        /* \"#utility.yul\":1255:1267   */\n      mload\n        /* \"#utility.yul\":1245:1267   */\n      swap1\n      pop\n        /* \"#utility.yul\":1176:1274   */\n      swap2\n      swap1\n      pop\n      jump\t// out\n        /* \"#utility.yul\":1280:1448   */\n    tag_30:\n        /* \"#utility.yul\":1363:1374   */\n      0x00\n        /* \"#utility.yul\":1397:1403   */\n      dup3\n        /* \"#utility.yul\":1392:1395   */\n      dup3\n        /* \"#utility.yul\":1385:1404   */\n      mstore\n        /* \"#utility.yul\":1437:1441   */\n      0x20\n        /* \"#utility.yul\":1432:1435   */\n      dup3\n        /* \"#utility.yul\":1428:1442   */\n      add\n        /* \"#utility.yul\":1413:1442   */\n      swap1\n      pop\n        /* \"#utility.yul\":1280:1448   */\n      swap3\n      swap2\n      pop\n      pop\n      jump\t// out\n        /* \"#utility.yul\":1454:1593   */\n    tag_31:\n        /* \"#utility.yul\":1543:1549   */\n      dup3\n        /* \"#utility.yul\":1538:1541   */\n      dup2\n        /* \"#utility.yul\":1533:1536   */\n      dup4\n        /* \"#utility.yul\":1527:1550   */\n      mcopy\n        /* \"#utility.yul\":1584:1585   */\n      0x00\n        /* \"#utility.yul\":1575:1581   */\n      dup4\n        /* \"#utility.yul\":1570:1573   */\n      dup4\n        /* \"#utility.yul\":1566:1582   */\n      add\n        /* \"#utility.yul\":1559:1586   */\n      mstore\n        /* \"#utility.yul\":1454:1593   */\n      pop\n      pop\n      pop\n      jump\t// out\n        /* \"#utility.yul\":1599:1701   */\n    tag_32:\n        /* \"#utility.yul\":1640:1646   */\n      0x00\n        /* \"#utility.yul\":1691:1693   */\n      0x1f\n        /* \"#utility.yul\":1687:1694   */\n      not\n        /* \"#utility.yul\":1682:1684   */\n      0x1f\n        /* \"#utility.yul\":1675:1680   */\n      dup4\n        /* \"#utility.yul\":1671:1685   */\n      add\n        /* \"#utility.yul\":1667:1695   */\n      and\n        /* \"#utility.yul\":1657:1695   */\n      swap1\n      pop\n        /* \"#utility.yul\":1599:1701   */\n      swap2\n      swap1\n      pop\n      jump\t// out\n        /* \"#utility.yul\":1707:2080   */\n    tag_33:\n        /* \"#utility.yul\":1793:1796   */\n      0x00\n        /* \"#utility.yul\":1821:1859   */\n      tag_69\n        /* \"#utility.yul\":1853:1858   */\n      dup3\n        /* \"#utility.yul\":1821:1859   */\n      tag_29\n      jump\t// in\n    tag_69:\n        /* \"#utility.yul\":1875:1945   */\n      tag_70\n        /* \"#utility.yul\":1938:1944   */\n      dup2\n        /* \"#utility.yul\":1933:1936   */\n      dup6\n        /* \"#utility.yul\":1875:1945   */\n      tag_30\n      jump\t// in\n    tag_70:\n        /* \"#utility.yul\":1868:1945   */\n      swap4\n      pop\n        /* \"#utility.yul\":1954:2019   */\n      tag_71\n        /* \"#utility.yul\":2012:2018   */\n      dup2\n        /* \"#utility.yul\":2007:2010   */\n      dup6\n        /* \"#utility.yul\":2000:2004   */\n      0x20\n        /* \"#utility.yul\":1993:1998   */\n      dup7\n        /* \"#utility.yul\":1989:2005   */\n      add\n        /* \"#utility.yul\":1954:2019   */\n      tag_31\n      jump\t// in\n    tag_71:\n        /* \"#utility.yul\":2044:2073   */\n      tag_72\n        /* \"#utility.yul\":2066:2072   */\n      dup2\n        /* \"#utility.yul\":2044:2073   */\n      tag_32\n      jump\t// in\n    tag_72:\n        /* \"#utility.yul\":2039:2042   */\n      dup5\n        /* \"#utility.yul\":2035:2074   */\n      add\n        /* \"#utility.yul\":2028:2074   */\n      swap2\n      pop\n        /* \"#utility.yul\":1797:2080   */\n      pop\n        /* \"#utility.yul\":1707:2080   */\n      swap3\n      swap2\n      pop\n      pop\n      jump\t// out\n        /* \"#utility.yul\":2086:2395   */\n    tag_10:\n        /* \"#utility.yul\":2197:2201   */\n      0x00\n        /* \"#utility.yul\":2235:2237   */\n      0x20\n        /* \"#utility.yul\":2224:2233   */\n      dup3\n        /* \"#utility.yul\":2220:2238   */\n      add\n        /* \"#utility.yul\":2212:2238   */\n      swap1\n      pop\n        /* \"#utility.yul\":2284:2293   */\n      dup2\n        /* \"#utility.yul\":2278:2282   */\n      dup2\n        /* \"#utility.yul\":2274:2294   */\n      sub\n        /* \"#utility.yul\":2270:2271   */\n      0x00\n        /* \"#utility.yul\":2259:2268   */\n      dup4\n        /* \"#utility.yul\":2255:2272   */\n      add\n        /* \"#utility.yul\":2248:2295   */\n      mstore\n        /* \"#utility.yul\":2312:2388   */\n      tag_74\n        /* \"#utility.yul\":2383:2387   */\n      dup2\n        /* \"#utility.yul\":2374:2380   */\n      dup5\n        /* \"#utility.yul\":2312:2388   */\n      tag_33\n      jump\t// in\n    tag_74:\n        /* \"#utility.yul\":2304:2388   */\n      swap1\n      pop\n        /* \"#utility.yul\":2086:2395   */\n      swap3\n      swap2\n      pop\n      pop\n      jump\t// out\n        /* \"#utility.yul\":2401:2461   */\n    tag_34:\n        /* \"#utility.yul\":2429:2432   */\n      0x00\n        /* \"#utility.yul\":2450:2455   */\n      dup2\n        /* \"#utility.yul\":2443:2455   */\n      swap1\n      pop\n        /* \"#utility.yul\":2401:2461   */\n      swap2\n      swap1\n      pop\n      jump\t// out\n        /* \"#utility.yul\":2467:2609   */\n    tag_35:\n        /* \"#utility.yul\":2517:2526   */\n      0x00\n        /* \"#utility.yul\":2550:2603   */\n      tag_77\n        /* \"#utility.yul\":2568:2602   */\n      tag_78\n        /* \"#utility.yul\":2577:2601   */\n      tag_79\n        /* \"#utility.yul\":2595:2600   */\n      dup5\n        /* \"#utility.yul\":2577:2601   */\n      tag_25\n      jump\t// in\n    tag_79:\n        /* \"#utility.yul\":2568:2602   */\n      tag_34\n      jump\t// in\n    tag_78:\n        /* \"#utility.yul\":2550:2603   */\n      tag_25\n      jump\t// in\n    tag_77:\n        /* \"#utility.yul\":2537:2603   */\n      swap1\n      pop\n        /* \"#utility.yul\":2467:2609   */\n      swap2\n      swap1\n      pop\n      jump\t// out\n        /* \"#utility.yul\":2615:2741   */\n    tag_36:\n        /* \"#utility.yul\":2665:2674   */\n      0x00\n        /* \"#utility.yul\":2698:2735   */\n      tag_81\n        /* \"#utility.yul\":2729:2734   */\n      dup3\n        /* \"#utility.yul\":2698:2735   */\n      tag_35\n      jump\t// in\n    tag_81:\n        /* \"#utility.yul\":2685:2735   */\n      swap1\n      pop\n        /* \"#utility.yul\":2615:2741   */\n      swap2\n      swap1\n      pop\n      jump\t// out\n        /* \"#utility.yul\":2747:2894   */\n    tag_37:\n        /* \"#utility.yul\":2818:2827   */\n      0x00\n        /* \"#utility.yul\":2851:2888   */\n      tag_83\n        /* \"#utility.yul\":2882:2887   */\n      dup3\n        /* \"#utility.yul\":2851:2888   */\n      tag_36\n      jump\t// in\n    tag_83:\n        /* \"#utility.yul\":2838:2888   */\n      swap1\n      pop\n        /* \"#utility.yul\":2747:2894   */\n      swap2\n      swap1\n      pop\n      jump\t// out\n        /* \"#utility.yul\":2900:3073   */\n    tag_38:\n        /* \"#utility.yul\":3008:3066   */\n      tag_85\n        /* \"#utility.yul\":3060:3065   */\n      dup2\n        /* \"#utility.yul\":3008:3066   */\n      tag_37\n      jump\t// in\n    tag_85:\n        /* \"#utility.yul\":3003:3006   */\n      dup3\n        /* \"#utility.yul\":2996:3067   */\n      mstore\n        /* \"#utility.yul\":2900:3073   */\n      pop\n      pop\n      jump\t// out\n        /* \"#utility.yul\":3079:3343   */\n    tag_14:\n        /* \"#utility.yul\":3193:3197   */\n      0x00\n        /* \"#utility.yul\":3231:3233   */\n      0x20\n        /* \"#utility.yul\":3220:3229   */\n      dup3\n        /* \"#utility.yul\":3216:3234   */\n      add\n        /* \"#utility.yul\":3208:3234   */\n      swap1\n      pop\n        /* \"#utility.yul\":3244:3336   */\n      tag_87\n        /* \"#utility.yul\":3333:3334   */\n      0x00\n        /* \"#utility.yul\":3322:3331   */\n      dup4\n        /* \"#utility.yul\":3318:3335   */\n      add\n        /* \"#utility.yul\":3309:3315   */\n      dup5\n        /* \"#utility.yul\":3244:3336   */\n      tag_38\n      jump\t// in\n    tag_87:\n        /* \"#utility.yul\":3079:3343   */\n      swap3\n      swap2\n      pop\n      pop\n      jump\t// out\n        /* \"#utility.yul\":3349:3467   */\n    tag_39:\n        /* \"#utility.yul\":3436:3460   */\n      tag_89\n        /* \"#utility.yul\":3454:3459   */\n      dup2\n        /* \"#utility.yul\":3436:3460   */\n      tag_26\n      jump\t// in\n    tag_89:\n        /* \"#utility.yul\":3431:3434   */\n      dup3\n        /* \"#utility.yul\":3424:3461   */\n      mstore\n        /* \"#utility.yul\":3349:3467   */\n      pop\n      pop\n      jump\t// out\n        /* \"#utility.yul\":3473:3695   */\n    tag_17:\n        /* \"#utility.yul\":3566:3570   */\n      0x00\n        /* \"#utility.yul\":3604:3606   */\n      0x20\n        /* \"#utility.yul\":3593:3602   */\n      dup3\n        /* \"#utility.yul\":3589:3607   */\n      add\n        /* \"#utility.yul\":3581:3607   */\n      swap1\n      pop\n        /* \"#utility.yul\":3617:3688   */\n      tag_91\n        /* \"#utility.yul\":3685:3686   */\n      0x00\n        /* \"#utility.yul\":3674:3683   */\n      dup4\n        /* \"#utility.yul\":3670:3687   */\n      add\n        /* \"#utility.yul\":3661:3667   */\n      dup5\n        /* \"#utility.yul\":3617:3688   */\n      tag_39\n      jump\t// in\n    tag_91:\n        /* \"#utility.yul\":3473:3695   */\n      swap3\n      swap2\n      pop\n      pop\n      jump\t// out\n        /* \"#utility.yul\":3701:3818   */\n    tag_40:\n        /* \"#utility.yul\":3810:3811   */\n      0x00\n        /* \"#utility.yul\":3807:3808   */\n      dup1\n        /* \"#utility.yul\":3800:3812   */\n      revert\n        /* \"#utility.yul\":3824:3941   */\n    tag_41:\n        /* \"#utility.yul\":3933:3934   */\n      0x00\n        /* \"#utility.yul\":3930:3931   */\n      dup1\n        /* \"#utility.yul\":3923:3935   */\n      revert\n        /* \"#utility.yul\":3947:4127   */\n    tag_42:\n        /* \"#utility.yul\":3995:4072   */\n      0x4e487b7100000000000000000000000000000000000000000000000000000000\n        /* \"#utility.yul\":3992:3993   */\n      0x00\n        /* \"#utility.yul\":3985:4073   */\n      mstore\n        /* \"#utility.yul\":4092:4096   */\n      0x41\n        /* \"#utility.yul\":4089:4090   */\n      0x04\n        /* \"#utility.yul\":4082:4097   */\n      mstore\n        /* \"#utility.yul\":4116:4120   */\n      0x24\n        /* \"#utility.yul\":4113:4114   */\n      0x00\n        /* \"#utility.yul\":4106:4121   */\n      revert\n        /* \"#utility.yul\":4133:4414   */\n    tag_43:\n        /* \"#utility.yul\":4216:4243   */\n      tag_96\n        /* \"#utility.yul\":4238:4242   */\n      dup3\n        /* \"#utility.yul\":4216:4243   */\n      tag_32\n      jump\t// in\n    tag_96:\n        /* \"#utility.yul\":4208:4214   */\n      dup2\n        /* \"#utility.yul\":4204:4244   */\n      add\n        /* \"#utility.yul\":4346:4352   */\n      dup2\n        /* \"#utility.yul\":4334:4344   */\n      dup2\n        /* \"#utility.yul\":4331:4353   */\n      lt\n        /* \"#utility.yul\":4310:4328   */\n      0xffffffffffffffff\n        /* \"#utility.yul\":4298:4308   */\n      dup3\n        /* \"#utility.yul\":4295:4329   */\n      gt\n        /* \"#utility.yul\":4292:4354   */\n      or\n        /* \"#utility.yul\":4289:4377   */\n      iszero\n      tag_97\n      jumpi\n        /* \"#utility.yul\":4357:4375   */\n      tag_98\n      tag_42\n      jump\t// in\n    tag_98:\n        /* \"#utility.yul\":4289:4377   */\n    tag_97:\n        /* \"#utility.yul\":4397:4407   */\n      dup1\n        /* \"#utility.yul\":4393:4395   */\n      0x40\n        /* \"#utility.yul\":4386:4408   */\n      mstore\n        /* \"#utility.yul\":4176:4414   */\n      pop\n        /* \"#utility.yul\":4133:4414   */\n      pop\n      pop\n      jump\t// out\n        /* \"#utility.yul\":4420:4549   */\n    tag_44:\n        /* \"#utility.yul\":4454:4460   */\n      0x00\n        /* \"#utility.yul\":4481:4501   */\n      tag_100\n      tag_22\n      jump\t// in\n    tag_100:\n        /* \"#utility.yul\":4471:4501   */\n      swap1\n      pop\n        /* \"#utility.yul\":4510:4543   */\n      tag_101\n        /* \"#utility.yul\":4538:4542   */\n      dup3\n        /* \"#utility.yul\":4530:4536   */\n      dup3\n        /* \"#utility.yul\":4510:4543   */\n      tag_43\n      jump\t// in\n    tag_101:\n        /* \"#utility.yul\":4420:4549   */\n      swap2\n      swap1\n      pop\n      jump\t// out\n        /* \"#utility.yul\":4555:4862   */\n    tag_45:\n        /* \"#utility.yul\":4616:4620   */\n      0x00\n        /* \"#utility.yul\":4706:4724   */\n      0xffffffffffffffff\n        /* \"#utility.yul\":4698:4704   */\n      dup3\n        /* \"#utility.yul\":4695:4725   */\n      gt\n        /* \"#utility.yul\":4692:4748   */\n      iszero\n      tag_103\n      jumpi\n        /* \"#utility.yul\":4728:4746   */\n      tag_104\n      tag_42\n      jump\t// in\n    tag_104:\n        /* \"#utility.yul\":4692:4748   */\n    tag_103:\n        /* \"#utility.yul\":4766:4795   */\n      tag_105\n        /* \"#utility.yul\":4788:4794   */\n      dup3\n        /* \"#utility.yul\":4766:4795   */\n      tag_32\n      jump\t// in\n    tag_105:\n        /* \"#utility.yul\":4758:4795   */\n      swap1\n      pop\n        /* \"#utility.yul\":4850:4854   */\n      0x20\n        /* \"#utility.yul\":4844:4848   */\n      dup2\n        /* \"#utility.yul\":4840:4855   */\n      add\n        /* \"#utility.yul\":4832:4855   */\n      swap1\n      pop\n        /* \"#utility.yul\":4555:4862   */\n      swap2\n      swap1\n      pop\n      jump\t// out\n        /* \"#utility.yul\":4868:5300   */\n    tag_46:\n        /* \"#utility.yul\":4956:4961   */\n      0x00\n        /* \"#utility.yul\":4981:5046   */\n      tag_107\n        /* \"#utility.yul\":4997:5045   */\n      tag_108\n        /* \"#utility.yul\":5038:5044   */\n      dup5\n        /* \"#utility.yul\":4997:5045   */\n      tag_45\n      jump\t// in\n    tag_108:\n        /* \"#utility.yul\":4981:5046   */\n      tag_44\n      jump\t// in\n    tag_107:\n        /* \"#utility.yul\":4972:5046   */\n      swap1\n      pop\n        /* \"#utility.yul\":5069:5075   */\n      dup3\n        /* \"#utility.yul\":5062:5067   */\n      dup2\n        /* \"#utility.yul\":5055:5076   */\n      mstore\n        /* \"#utility.yul\":5107:5111   */\n      0x20\n        /* \"#utility.yul\":5100:5105   */\n      dup2\n        /* \"#utility.yul\":5096:5112   */\n      add\n        /* \"#utility.yul\":5145:5148   */\n      dup5\n        /* \"#utility.yul\":5136:5142   */\n      dup5\n        /* \"#utility.yul\":5131:5134   */\n      dup5\n        /* \"#utility.yul\":5127:5143   */\n      add\n        /* \"#utility.yul\":5124:5149   */\n      gt\n        /* \"#utility.yul\":5121:5233   */\n      iszero\n      tag_109\n      jumpi\n        /* \"#utility.yul\":5152:5231   */\n      tag_110\n      tag_41\n      jump\t// in\n    tag_110:\n        /* \"#utility.yul\":5121:5233   */\n    tag_109:\n        /* \"#utility.yul\":5242:5294   */\n      tag_111\n        /* \"#utility.yul\":5287:5293   */\n      dup5\n        /* \"#utility.yul\":5282:5285   */\n      dup3\n        /* \"#utility.yul\":5277:5280   */\n      dup6\n        /* \"#utility.yul\":5242:5294   */\n      tag_31\n      jump\t// in\n    tag_111:\n        /* \"#utility.yul\":4962:5300   */\n      pop\n        /* \"#utility.yul\":4868:5300   */\n      swap4\n      swap3\n      pop\n      pop\n      pop\n      jump\t// out\n        /* \"#utility.yul\":5319:5672   */\n    tag_47:\n        /* \"#utility.yul\":5385:5390   */\n      0x00\n        /* \"#utility.yul\":5434:5437   */\n      dup3\n        /* \"#utility.yul\":5427:5431   */\n      0x1f\n        /* \"#utility.yul\":5419:5425   */\n      dup4\n        /* \"#utility.yul\":5415:5432   */\n      add\n        /* \"#utility.yul\":5411:5438   */\n      slt\n        /* \"#utility.yul\":5401:5523   */\n      tag_113\n      jumpi\n        /* \"#utility.yul\":5442:5521   */\n      tag_114\n      tag_40\n      jump\t// in\n    tag_114:\n        /* \"#utility.yul\":5401:5523   */\n    tag_113:\n        /* \"#utility.yul\":5552:5558   */\n      dup2\n        /* \"#utility.yul\":5546:5559   */\n      mload\n        /* \"#utility.yul\":5577:5666   */\n      tag_115\n        /* \"#utility.yul\":5662:5665   */\n      dup5\n        /* \"#utility.yul\":5654:5660   */\n      dup3\n        /* \"#utility.yul\":5647:5651   */\n      0x20\n        /* \"#utility.yul\":5639:5645   */\n      dup7\n        /* \"#utility.yul\":5635:5652   */\n      add\n        /* \"#utility.yul\":5577:5666   */\n      tag_46\n      jump\t// in\n    tag_115:\n        /* \"#utility.yul\":5568:5666   */\n      swap2\n      pop\n        /* \"#utility.yul\":5391:5672   */\n      pop\n        /* \"#utility.yul\":5319:5672   */\n      swap3\n      swap2\n      pop\n      pop\n      jump\t// out\n        /* \"#utility.yul\":5678:6200   */\n    tag_21:\n        /* \"#utility.yul\":5757:5763   */\n      0x00\n        /* \"#utility.yul\":5806:5808   */\n      0x20\n        /* \"#utility.yul\":5794:5803   */\n      dup3\n        /* \"#utility.yul\":5785:5792   */\n      dup5\n        /* \"#utility.yul\":5781:5804   */\n      sub\n        /* \"#utility.yul\":5777:5809   */\n      slt\n        /* \"#utility.yul\":5774:5893   */\n      iszero\n      tag_117\n      jumpi\n        /* \"#utility.yul\":5812:5891   */\n      tag_118\n      tag_23\n      jump\t// in\n    tag_118:\n        /* \"#utility.yul\":5774:5893   */\n    tag_117:\n        /* \"#utility.yul\":5953:5954   */\n      0x00\n        /* \"#utility.yul\":5942:5951   */\n      dup3\n        /* \"#utility.yul\":5938:5955   */\n      add\n        /* \"#utility.yul\":5932:5956   */\n      mload\n        /* \"#utility.yul\":5983:6001   */\n      0xffffffffffffffff\n        /* \"#utility.yul\":5975:5981   */\n      dup2\n        /* \"#utility.yul\":5972:6002   */\n      gt\n        /* \"#utility.yul\":5969:6086   */\n      iszero\n      tag_119\n      jumpi\n        /* \"#utility.yul\":6005:6084   */\n      tag_120\n      tag_24\n      jump\t// in\n    tag_120:\n        /* \"#utility.yul\":5969:6086   */\n    tag_119:\n        /* \"#utility.yul\":6110:6183   */\n      tag_121\n        /* \"#utility.yul\":6175:6182   */\n      dup5\n        /* \"#utility.yul\":6166:6172   */\n      dup3\n        /* \"#utility.yul\":6155:6164   */\n      dup6\n        /* \"#utility.yul\":6151:6173   */\n      add\n        /* \"#utility.yul\":6110:6183   */\n      tag_47\n      jump\t// in\n    tag_121:\n        /* \"#utility.yul\":6100:6183   */\n      swap2\n      pop\n        /* \"#utility.yul\":5903:6193   */\n      pop\n        /* \"#utility.yul\":5678:6200   */\n      swap3\n      swap2\n      pop\n      pop\n      jump\t// out\n\n    auxdata: 0xa2646970667358221220aabbd4822f3a606d0fcfae08699f87a4a6d61e8b66a01c60cfffba76afda517f64736f6c634300081a0033\n}\n",
				"bytecode": {
					"linkReferences": {},
					"object": "608060405234801561000f575f80fd5b506040516105c63803806105c6833981810160405281019061003191906100e5565b805f806101000a81548173ffffffffffffffffffffffffffffffffffffffff021916908373ffffffffffffffffffffffffffffffffffffffff16021790555050610110565b5f80fd5b5f73ffffffffffffffffffffffffffffffffffffffff82169050919050565b5f6100a38261007a565b9050919050565b5f6100b482610099565b9050919050565b6100c4816100aa565b81146100ce575f80fd5b50565b5f815190506100df816100bb565b92915050565b5f602082840312156100fa576100f9610076565b5b5f610107848285016100d1565b91505092915050565b6104a98061011d5f395ff3fe608060405234801561000f575f80fd5b5060043610610034575f3560e01c8063c9e40b3414610038578063d4b8399214610068575b5f80fd5b610052600480360381019061004d91906101b7565b610086565b60405161005f9190610252565b60405180910390f35b610070610129565b60405161007d91906102cd565b60405180910390f35b60605f8054906101000a900473ffffffffffffffffffffffffffffffffffffffff1673ffffffffffffffffffffffffffffffffffffffff1663469e9067836040518263ffffffff1660e01b81526004016100e091906102f5565b5f60405180830381865afa1580156100fa573d5f803e3d5ffd5b505050506040513d5f823e3d601f19601f82011682018060405250810190610122919061042c565b9050919050565b5f8054906101000a900473ffffffffffffffffffffffffffffffffffffffff1681565b5f604051905090565b5f80fd5b5f80fd5b5f73ffffffffffffffffffffffffffffffffffffffff82169050919050565b5f6101868261015d565b9050919050565b6101968161017c565b81146101a0575f80fd5b50565b5f813590506101b18161018d565b92915050565b5f602082840312156101cc576101cb610155565b5b5f6101d9848285016101a3565b91505092915050565b5f81519050919050565b5f82825260208201905092915050565b8281835e5f83830152505050565b5f601f19601f8301169050919050565b5f610224826101e2565b61022e81856101ec565b935061023e8185602086016101fc565b6102478161020a565b840191505092915050565b5f6020820190508181035f83015261026a818461021a565b905092915050565b5f819050919050565b5f61029561029061028b8461015d565b610272565b61015d565b9050919050565b5f6102a68261027b565b9050919050565b5f6102b78261029c565b9050919050565b6102c7816102ad565b82525050565b5f6020820190506102e05f8301846102be565b92915050565b6102ef8161017c565b82525050565b5f6020820190506103085f8301846102e6565b92915050565b5f80fd5b5f80fd5b7f4e487b71000000000000000000000000000000000000000000000000000000005f52604160045260245ffd5b61034c8261020a565b810181811067ffffffffffffffff8211171561036b5761036a610316565b5b80604052505050565b5f61037d61014c565b90506103898282610343565b919050565b5f67ffffffffffffffff8211156103a8576103a7610316565b5b6103b18261020a565b9050602081019050919050565b5f6103d06103cb8461038e565b610374565b9050828152602081018484840111156103ec576103eb610312565b5b6103f78482856101fc565b509392505050565b5f82601f8301126104135761041261030e565b5b81516104238482602086016103be565b91505092915050565b5f6020828403121561044157610440610155565b5b5f82015167ffffffffffffffff81111561045e5761045d610159565b5b61046a848285016103ff565b9150509291505056fea2646970667358221220aabbd4822f3a606d0fcfae08699f87a4a6d61e8b66a01c60cfffba76afda517f64736f6c634300081a0033",
					"opcodes": "PUSH1 0x80 PUSH1 0x40 MSTORE CALLVALUE DUP1 ISZERO PUSH2 0xF JUMPI PUSH0 DUP1 REVERT JUMPDEST POP PUSH1 0x40 MLOAD PUSH2 0x5C6 CODESIZE SUB DUP1 PUSH2 0x5C6 DUP4 CODECOPY DUP2 DUP2 ADD PUSH1 0x40 MSTORE DUP2 ADD SWAP1 PUSH2 0x31 SWAP2 SWAP1 PUSH2 0xE5 JUMP JUMPDEST DUP1 PUSH0 DUP1 PUSH2 0x100 EXP DUP2 SLOAD DUP2 PUSH20 0xFFFFFFFFFFFFFFFFFFFFFFFFFFFFFFFFFFFFFFFF MUL NOT AND SWAP1 DUP4 PUSH20 0xFFFFFFFFFFFFFFFFFFFFFFFFFFFFFFFFFFFFFFFF AND MUL OR SWAP1 SSTORE POP POP PUSH2 0x110 JUMP JUMPDEST PUSH0 DUP1 REVERT JUMPDEST PUSH0 PUSH20 0xFFFFFFFFFFFFFFFFFFFFFFFFFFFFFFFFFFFFFFFF DUP3 AND SWAP1 POP SWAP2 SWAP1 POP JUMP JUMPDEST PUSH0 PUSH2 0xA3 DUP3 PUSH2 0x7A JUMP JUMPDEST SWAP1 POP SWAP2 SWAP1 POP JUMP JUMPDEST PUSH0 PUSH2 0xB4 DUP3 PUSH2 0x99 JUMP JUMPDEST SWAP1 POP SWAP2 SWAP1 POP JUMP JUMPDEST PUSH2 0xC4 DUP2 PUSH2 0xAA JUMP JUMPDEST DUP2 EQ PUSH2 0xCE JUMPI PUSH0 DUP1 REVERT JUMPDEST POP JUMP JUMPDEST PUSH0 DUP2 MLOAD SWAP1 POP PUSH2 0xDF DUP2 PUSH2 0xBB JUMP JUMPDEST SWAP3 SWAP2 POP POP JUMP JUMPDEST PUSH0 PUSH1 0x20 DUP3 DUP5 SUB SLT ISZERO PUSH2 0xFA JUMPI PUSH2 0xF9 PUSH2 0x76 JUMP JUMPDEST JUMPDEST PUSH0 PUSH2 0x107 DUP5 DUP3 DUP6 ADD PUSH2 0xD1 JUMP JUMPDEST SWAP2 POP POP SWAP3 SWAP2 POP POP JUMP JUMPDEST PUSH2 0x4A9 DUP1 PUSH2 0x11D PUSH0 CODECOPY PUSH0 RETURN INVALID PUSH1 0x80 PUSH1 0x40 MSTORE CALLVALUE DUP1 ISZERO PUSH2 0xF JUMPI PUSH0 DUP1 REVERT JUMPDEST POP PUSH1 0x4 CALLDATASIZE LT PUSH2 0x34 JUMPI PUSH0 CALLDATALOAD PUSH1 0xE0 SHR DUP1 PUSH4 0xC9E40B34 EQ PUSH2 0x38 JUMPI DUP1 PUSH4 0xD4B83992 EQ PUSH2 0x68 JUMPI JUMPDEST PUSH0 DUP1 REVERT JUMPDEST PUSH2 0x52 PUSH1 0x4 DUP1 CALLDATASIZE SUB DUP2 ADD SWAP1 PUSH2 0x4D SWAP2 SWAP1 PUSH2 0x1B7 JUMP JUMPDEST PUSH2 0x86 JUMP JUMPDEST PUSH1 0x40 MLOAD PUSH2 0x5F SWAP2 SWAP1 PUSH2 0x252 JUMP JUMPDEST PUSH1 0x40 MLOAD DUP1 SWAP2 SUB SWAP1 RETURN JUMPDEST PUSH2 0x70 PUSH2 0x129 JUMP JUMPDEST PUSH1 0x40 MLOAD PUSH2 0x7D SWAP2 SWAP1 PUSH2 0x2CD JUMP JUMPDEST PUSH1 0x40 MLOAD DUP1 SWAP2 SUB SWAP1 RETURN JUMPDEST PUSH1 0x60 PUSH0 DUP1 SLOAD SWAP1 PUSH2 0x100 EXP SWAP1 DIV PUSH20 0xFFFFFFFFFFFFFFFFFFFFFFFFFFFFFFFFFFFFFFFF AND PUSH20 0xFFFFFFFFFFFFFFFFFFFFFFFFFFFFFFFFFFFFFFFF AND PUSH4 0x469E9067 DUP4 PUSH1 0x40 MLOAD DUP3 PUSH4 0xFFFFFFFF AND PUSH1 0xE0 SHL DUP2 MSTORE PUSH1 0x4 ADD PUSH2 0xE0 SWAP2 SWAP1 PUSH2 0x2F5 JUMP JUMPDEST PUSH0 PUSH1 0x40 MLOAD DUP1 DUP4 SUB DUP2 DUP7 GAS STATICCALL ISZERO DUP1 ISZERO PUSH2 0xFA JUMPI RETURNDATASIZE PUSH0 DUP1 RETURNDATACOPY RETURNDATASIZE PUSH0 REVERT JUMPDEST POP POP POP POP PUSH1 0x40 MLOAD RETURNDATASIZE PUSH0 DUP3 RETURNDATACOPY RETURNDATASIZE PUSH1 0x1F NOT PUSH1 0x1F DUP3 ADD AND DUP3 ADD DUP1 PUSH1 0x40 MSTORE POP DUP2 ADD SWAP1 PUSH2 0x122 SWAP2 SWAP1 PUSH2 0x42C JUMP JUMPDEST SWAP1 POP SWAP2 SWAP1 POP JUMP JUMPDEST PUSH0 DUP1 SLOAD SWAP1 PUSH2 0x100 EXP SWAP1 DIV PUSH20 0xFFFFFFFFFFFFFFFFFFFFFFFFFFFFFFFFFFFFFFFF AND DUP2 JUMP JUMPDEST PUSH0 PUSH1 0x40 MLOAD SWAP1 POP SWAP1 JUMP JUMPDEST PUSH0 DUP1 REVERT JUMPDEST PUSH0 DUP1 REVERT JUMPDEST PUSH0 PUSH20 0xFFFFFFFFFFFFFFFFFFFFFFFFFFFFFFFFFFFFFFFF DUP3 AND SWAP1 POP SWAP2 SWAP1 POP JUMP JUMPDEST PUSH0 PUSH2 0x186 DUP3 PUSH2 0x15D JUMP JUMPDEST SWAP1 POP SWAP2 SWAP1 POP JUMP JUMPDEST PUSH2 0x196 DUP2 PUSH2 0x17C JUMP JUMPDEST DUP2 EQ PUSH2 0x1A0 JUMPI PUSH0 DUP1 REVERT JUMPDEST POP JUMP JUMPDEST PUSH0 DUP2 CALLDATALOAD SWAP1 POP PUSH2 0x1B1 DUP2 PUSH2 0x18D JUMP JUMPDEST SWAP3 SWAP2 POP POP JUMP JUMPDEST PUSH0 PUSH1 0x20 DUP3 DUP5 SUB SLT ISZERO PUSH2 0x1CC JUMPI PUSH2 0x1CB PUSH2 0x155 JUMP JUMPDEST JUMPDEST PUSH0 PUSH2 0x1D9 DUP5 DUP3 DUP6 ADD PUSH2 0x1A3 JUMP JUMPDEST SWAP2 POP POP SWAP3 SWAP2 POP POP JUMP JUMPDEST PUSH0 DUP2 MLOAD SWAP1 POP SWAP2 SWAP1 POP JUMP JUMPDEST PUSH0 DUP3 DUP3 MSTORE PUSH1 0x20 DUP3 ADD SWAP1 POP SWAP3 SWAP2 POP POP JUMP JUMPDEST DUP3 DUP2 DUP4 MCOPY PUSH0 DUP4 DUP4 ADD MSTORE POP POP POP JUMP JUMPDEST PUSH0 PUSH1 0x1F NOT PUSH1 0x1F DUP4 ADD AND SWAP1 POP SWAP2 SWAP1 POP JUMP JUMPDEST PUSH0 PUSH2 0x224 DUP3 PUSH2 0x1E2 JUMP JUMPDEST PUSH2 0x22E DUP2 DUP6 PUSH2 0x1EC JUMP JUMPDEST SWAP4 POP PUSH2 0x23E DUP2 DUP6 PUSH1 0x20 DUP7 ADD PUSH2 0x1FC JUMP JUMPDEST PUSH2 0x247 DUP2 PUSH2 0x20A JUMP JUMPDEST DUP5 ADD SWAP2 POP POP SWAP3 SWAP2 POP POP JUMP JUMPDEST PUSH0 PUSH1 0x20 DUP3 ADD SWAP1 POP DUP2 DUP2 SUB PUSH0 DUP4 ADD MSTORE PUSH2 0x26A DUP2 DUP5 PUSH2 0x21A JUMP JUMPDEST SWAP1 POP SWAP3 SWAP2 POP POP JUMP JUMPDEST PUSH0 DUP2 SWAP1 POP SWAP2 SWAP1 POP JUMP JUMPDEST PUSH0 PUSH2 0x295 PUSH2 0x290 PUSH2 0x28B DUP5 PUSH2 0x15D JUMP JUMPDEST PUSH2 0x272 JUMP JUMPDEST PUSH2 0x15D JUMP JUMPDEST SWAP1 POP SWAP2 SWAP1 POP JUMP JUMPDEST PUSH0 PUSH2 0x2A6 DUP3 PUSH2 0x27B JUMP JUMPDEST SWAP1 POP SWAP2 SWAP1 POP JUMP JUMPDEST PUSH0 PUSH2 0x2B7 DUP3 PUSH2 0x29C JUMP JUMPDEST SWAP1 POP SWAP2 SWAP1 POP JUMP JUMPDEST PUSH2 0x2C7 DUP2 PUSH2 0x2AD JUMP JUMPDEST DUP3 MSTORE POP POP JUMP JUMPDEST PUSH0 PUSH1 0x20 DUP3 ADD SWAP1 POP PUSH2 0x2E0 PUSH0 DUP4 ADD DUP5 PUSH2 0x2BE JUMP JUMPDEST SWAP3 SWAP2 POP POP JUMP JUMPDEST PUSH2 0x2EF DUP2 PUSH2 0x17C JUMP JUMPDEST DUP3 MSTORE POP POP JUMP JUMPDEST PUSH0 PUSH1 0x20 DUP3 ADD SWAP1 POP PUSH2 0x308 PUSH0 DUP4 ADD DUP5 PUSH2 0x2E6 JUMP JUMPDEST SWAP3 SWAP2 POP POP JUMP JUMPDEST PUSH0 DUP1 REVERT JUMPDEST PUSH0 DUP1 REVERT JUMPDEST PUSH32 0x4E487B7100000000000000000000000000000000000000000000000000000000 PUSH0 MSTORE PUSH1 0x41 PUSH1 0x4 MSTORE PUSH1 0x24 PUSH0 REVERT JUMPDEST PUSH2 0x34C DUP3 PUSH2 0x20A JUMP JUMPDEST DUP2 ADD DUP2 DUP2 LT PUSH8 0xFFFFFFFFFFFFFFFF DUP3 GT OR ISZERO PUSH2 0x36B JUMPI PUSH2 0x36A PUSH2 0x316 JUMP JUMPDEST JUMPDEST DUP1 PUSH1 0x40 MSTORE POP POP POP JUMP JUMPDEST PUSH0 PUSH2 0x37D PUSH2 0x14C JUMP JUMPDEST SWAP1 POP PUSH2 0x389 DUP3 DUP3 PUSH2 0x343 JUMP JUMPDEST SWAP2 SWAP1 POP JUMP JUMPDEST PUSH0 PUSH8 0xFFFFFFFFFFFFFFFF DUP3 GT ISZERO PUSH2 0x3A8 JUMPI PUSH2 0x3A7 PUSH2 0x316 JUMP JUMPDEST JUMPDEST PUSH2 0x3B1 DUP3 PUSH2 0x20A JUMP JUMPDEST SWAP1 POP PUSH1 0x20 DUP2 ADD SWAP1 POP SWAP2 SWAP1 POP JUMP JUMPDEST PUSH0 PUSH2 0x3D0 PUSH2 0x3CB DUP5 PUSH2 0x38E JUMP JUMPDEST PUSH2 0x374 JUMP JUMPDEST SWAP1 POP DUP3 DUP2 MSTORE PUSH1 0x20 DUP2 ADD DUP5 DUP5 DUP5 ADD GT ISZERO PUSH2 0x3EC JUMPI PUSH2 0x3EB PUSH2 0x312 JUMP JUMPDEST JUMPDEST PUSH2 0x3F7 DUP5 DUP3 DUP6 PUSH2 0x1FC JUMP JUMPDEST POP SWAP4 SWAP3 POP POP POP JUMP JUMPDEST PUSH0 DUP3 PUSH1 0x1F DUP4 ADD SLT PUSH2 0x413 JUMPI PUSH2 0x412 PUSH2 0x30E JUMP JUMPDEST JUMPDEST DUP2 MLOAD PUSH2 0x423 DUP5 DUP3 PUSH1 0x20 DUP7 ADD PUSH2 0x3BE JUMP JUMPDEST SWAP2 POP POP SWAP3 SWAP2 POP POP JUMP JUMPDEST PUSH0 PUSH1 0x20 DUP3 DUP5 SUB SLT ISZERO PUSH2 0x441 JUMPI PUSH2 0x440 PUSH2 0x155 JUMP JUMPDEST JUMPDEST PUSH0 DUP3 ADD MLOAD PUSH8 0xFFFFFFFFFFFFFFFF DUP2 GT ISZERO PUSH2 0x45E JUMPI PUSH2 0x45D PUSH2 0x159 JUMP JUMPDEST JUMPDEST PUSH2 0x46A DUP5 DUP3 DUP6 ADD PUSH2 0x3FF JUMP JUMPDEST SWAP2 POP POP SWAP3 SWAP2 POP POP JUMP INVALID LOG2 PUSH5 0x6970667358 0x22 SLT KECCAK256 0xAA 0xBB 0xD4 DUP3 0x2F GASPRICE PUSH1 0x6D 0xF 0xCF 0xAE ADDMOD PUSH10 0x9F87A4A6D61E8B66A01C PUSH1 0xCF SELFDESTRUCT 0xBA PUSH23 0xAFDA517F64736F6C634300081A00330000000000000000 "
				},
				"gasEstimates": {
					"creation": {
						"codeDepositCost": "238600",
						"executionCost": "infinite",
						"totalCost": "infinite"
					},
					"external": {
						"eavesdrop(address)": "infinite",
						"target()": "infinite"
					}
				},
				"methodIdentifiers": {
					"eavesdrop(address)": "c9e40b34",
					"target()": "d4b83992"
				}
			},
			"storageLayout": {
				"storage": [
					{
						"astId": 174,
						"contract": "T/Transport Layer Security (TLS)/Transport Layer Security (TLS).sol:Attack_TLSRecord",
						"label": "target",
						"offset": 0,
						"slot": "0",
						"type": "t_contract(TLSVulnRecord)171"
					}
				],
				"types": {
					"t_contract(TLSVulnRecord)171": {
						"encoding": "inplace",
						"label": "contract TLSVulnRecord",
						"numberOfBytes": "20"
					}
				}
			},
			"userdoc": {
				"kind": "user",
				"methods": {},
				"version": 1
			}
		}
	}
}