{
	"T/Transport Layer Security (TLS)/Transport Layer Security (TLS).sol": {
		"TLSSafeHandshake": {
			"abi": [
				{
					"inputs": [],
					"name": "TLS__CertInvalid",
					"type": "error"
				},
				{
					"anonymous": false,
					"inputs": [
						{
							"indexed": true,
							"internalType": "address",
							"name": "who",
							"type": "address"
						},
						{
							"indexed": false,
							"internalType": "enum TLSLayerType",
							"name": "layer",
							"type": "uint8"
						},
						{
							"indexed": false,
							"internalType": "enum TLSDefenseType",
							"name": "defense",
							"type": "uint8"
						}
					],
					"name": "TLSDefended",
					"type": "event"
				},
				{
					"inputs": [
						{
							"internalType": "bytes32",
							"name": "root",
							"type": "bytes32"
						}
					],
					"name": "addTrustedRoot",
					"outputs": [],
					"stateMutability": "nonpayable",
					"type": "function"
				},
				{
					"inputs": [
						{
							"internalType": "address",
							"name": "peer",
							"type": "address"
						},
						{
							"internalType": "bytes",
							"name": "cert",
							"type": "bytes"
						},
						{
							"internalType": "bytes32",
							"name": "certRoot",
							"type": "bytes32"
						}
					],
					"name": "handshake",
					"outputs": [],
					"stateMutability": "nonpayable",
					"type": "function"
				},
				{
					"inputs": [
						{
							"internalType": "address",
							"name": "",
							"type": "address"
						}
					],
					"name": "sessions",
					"outputs": [
						{
							"internalType": "bool",
							"name": "established",
							"type": "bool"
						}
					],
					"stateMutability": "view",
					"type": "function"
				},
				{
					"inputs": [
						{
							"internalType": "bytes32",
							"name": "",
							"type": "bytes32"
						}
					],
					"name": "trustedRoots",
					"outputs": [
						{
							"internalType": "bool",
							"name": "",
							"type": "bool"
						}
					],
					"stateMutability": "view",
					"type": "function"
				}
			],
			"devdoc": {
				"kind": "dev",
				"methods": {},
				"version": 1
			},
			"evm": {
				"assembly": "    /* \"T/Transport Layer Security (TLS)/Transport Layer Security (TLS).sol\":1503:2241  contract TLSSafeHandshake {... */\n  mstore(0x40, 0x80)\n  callvalue\n  dup1\n  iszero\n  tag_1\n  jumpi\n  0x00\n  dup1\n  revert\ntag_1:\n  pop\n  dataSize(sub_0)\n  dup1\n  dataOffset(sub_0)\n  0x00\n  codecopy\n  0x00\n  return\nstop\n\nsub_0: assembly {\n        /* \"T/Transport Layer Security (TLS)/Transport Layer Security (TLS).sol\":1503:2241  contract TLSSafeHandshake {... */\n      mstore(0x40, 0x80)\n      callvalue\n      dup1\n      iszero\n      tag_1\n      jumpi\n      0x00\n      dup1\n      revert\n    tag_1:\n      pop\n      jumpi(tag_2, lt(calldatasize, 0x04))\n      shr(0xe0, calldataload(0x00))\n      dup1\n      0x28e885bf\n      eq\n      tag_3\n      jumpi\n      dup1\n      0x431a1b97\n      eq\n      tag_4\n      jumpi\n      dup1\n      0x7657e90d\n      eq\n      tag_5\n      jumpi\n      dup1\n      0x9a8ab567\n      eq\n      tag_6\n      jumpi\n    tag_2:\n      0x00\n      dup1\n      revert\n        /* \"T/Transport Layer Security (TLS)/Transport Layer Security (TLS).sol\":1804:1893  function addTrustedRoot(bytes32 root) external {... */\n    tag_3:\n      tag_7\n      0x04\n      dup1\n      calldatasize\n      sub\n      dup2\n      add\n      swap1\n      tag_8\n      swap2\n      swap1\n      tag_9\n      jump\t// in\n    tag_8:\n      tag_10\n      jump\t// in\n    tag_7:\n      stop\n        /* \"T/Transport Layer Security (TLS)/Transport Layer Security (TLS).sol\":1576:1619  mapping(address => Session) public sessions */\n    tag_4:\n      tag_11\n      0x04\n      dup1\n      calldatasize\n      sub\n      dup2\n      add\n      swap1\n      tag_12\n      swap2\n      swap1\n      tag_13\n      jump\t// in\n    tag_12:\n      tag_14\n      jump\t// in\n    tag_11:\n      mload(0x40)\n      tag_15\n      swap2\n      swap1\n      tag_16\n      jump\t// in\n    tag_15:\n      mload(0x40)\n      dup1\n      swap2\n      sub\n      swap1\n      return\n        /* \"T/Transport Layer Security (TLS)/Transport Layer Security (TLS).sol\":1625:1669  mapping(bytes32 => bool) public trustedRoots */\n    tag_5:\n      tag_17\n      0x04\n      dup1\n      calldatasize\n      sub\n      dup2\n      add\n      swap1\n      tag_18\n      swap2\n      swap1\n      tag_9\n      jump\t// in\n    tag_18:\n      tag_19\n      jump\t// in\n    tag_17:\n      mload(0x40)\n      tag_20\n      swap2\n      swap1\n      tag_16\n      jump\t// in\n    tag_20:\n      mload(0x40)\n      dup1\n      swap2\n      sub\n      swap1\n      return\n        /* \"T/Transport Layer Security (TLS)/Transport Layer Security (TLS).sol\":1945:2239  function handshake(address peer, bytes calldata cert, bytes32 certRoot) external {... */\n    tag_6:\n      tag_21\n      0x04\n      dup1\n      calldatasize\n      sub\n      dup2\n      add\n      swap1\n      tag_22\n      swap2\n      swap1\n      tag_23\n      jump\t// in\n    tag_22:\n      tag_24\n      jump\t// in\n    tag_21:\n      stop\n        /* \"T/Transport Layer Security (TLS)/Transport Layer Security (TLS).sol\":1804:1893  function addTrustedRoot(bytes32 root) external {... */\n    tag_10:\n        /* \"T/Transport Layer Security (TLS)/Transport Layer Security (TLS).sol\":1882:1886  true */\n      0x01\n        /* \"T/Transport Layer Security (TLS)/Transport Layer Security (TLS).sol\":1861:1873  trustedRoots */\n      dup1\n        /* \"T/Transport Layer Security (TLS)/Transport Layer Security (TLS).sol\":1861:1879  trustedRoots[root] */\n      0x00\n        /* \"T/Transport Layer Security (TLS)/Transport Layer Security (TLS).sol\":1874:1878  root */\n      dup4\n        /* \"T/Transport Layer Security (TLS)/Transport Layer Security (TLS).sol\":1861:1879  trustedRoots[root] */\n      dup2\n      mstore\n      0x20\n      add\n      swap1\n      dup2\n      mstore\n      0x20\n      add\n      0x00\n      keccak256\n      0x00\n        /* \"T/Transport Layer Security (TLS)/Transport Layer Security (TLS).sol\":1861:1886  trustedRoots[root] = true */\n      0x0100\n      exp\n      dup2\n      sload\n      dup2\n      0xff\n      mul\n      not\n      and\n      swap1\n      dup4\n      iszero\n      iszero\n      mul\n      or\n      swap1\n      sstore\n      pop\n        /* \"T/Transport Layer Security (TLS)/Transport Layer Security (TLS).sol\":1804:1893  function addTrustedRoot(bytes32 root) external {... */\n      pop\n      jump\t// out\n        /* \"T/Transport Layer Security (TLS)/Transport Layer Security (TLS).sol\":1576:1619  mapping(address => Session) public sessions */\n    tag_14:\n      mstore(0x20, 0x00)\n      dup1\n      0x00\n      mstore\n      keccak256(0x00, 0x40)\n      0x00\n      swap2\n      pop\n      swap1\n      pop\n      dup1\n      0x00\n      add\n      0x00\n      swap1\n      sload\n      swap1\n      0x0100\n      exp\n      swap1\n      div\n      0xff\n      and\n      swap1\n      pop\n      dup2\n      jump\t// out\n        /* \"T/Transport Layer Security (TLS)/Transport Layer Security (TLS).sol\":1625:1669  mapping(bytes32 => bool) public trustedRoots */\n    tag_19:\n      mstore(0x20, 0x01)\n      dup1\n      0x00\n      mstore\n      keccak256(0x00, 0x40)\n      0x00\n      swap2\n      pop\n      sload\n      swap1\n      0x0100\n      exp\n      swap1\n      div\n      0xff\n      and\n      dup2\n      jump\t// out\n        /* \"T/Transport Layer Security (TLS)/Transport Layer Security (TLS).sol\":1945:2239  function handshake(address peer, bytes calldata cert, bytes32 certRoot) external {... */\n    tag_24:\n        /* \"T/Transport Layer Security (TLS)/Transport Layer Security (TLS).sol\":2041:2053  trustedRoots */\n      0x01\n        /* \"T/Transport Layer Security (TLS)/Transport Layer Security (TLS).sol\":2041:2063  trustedRoots[certRoot] */\n      0x00\n        /* \"T/Transport Layer Security (TLS)/Transport Layer Security (TLS).sol\":2054:2062  certRoot */\n      dup3\n        /* \"T/Transport Layer Security (TLS)/Transport Layer Security (TLS).sol\":2041:2063  trustedRoots[certRoot] */\n      dup2\n      mstore\n      0x20\n      add\n      swap1\n      dup2\n      mstore\n      0x20\n      add\n      0x00\n      keccak256\n      0x00\n      swap1\n      sload\n      swap1\n      0x0100\n      exp\n      swap1\n      div\n      0xff\n      and\n        /* \"T/Transport Layer Security (TLS)/Transport Layer Security (TLS).sol\":2036:2090  if (!trustedRoots[certRoot]) revert TLS__CertInvalid() */\n      tag_27\n      jumpi\n        /* \"T/Transport Layer Security (TLS)/Transport Layer Security (TLS).sol\":2072:2090  TLS__CertInvalid() */\n      mload(0x40)\n      0x4994429700000000000000000000000000000000000000000000000000000000\n      dup2\n      mstore\n      0x04\n      add\n      mload(0x40)\n      dup1\n      swap2\n      sub\n      swap1\n      revert\n        /* \"T/Transport Layer Security (TLS)/Transport Layer Security (TLS).sol\":2036:2090  if (!trustedRoots[certRoot]) revert TLS__CertInvalid() */\n    tag_27:\n        /* \"T/Transport Layer Security (TLS)/Transport Layer Security (TLS).sol\":2135:2139  true */\n      0x01\n        /* \"T/Transport Layer Security (TLS)/Transport Layer Security (TLS).sol\":2100:2108  sessions */\n      0x00\n        /* \"T/Transport Layer Security (TLS)/Transport Layer Security (TLS).sol\":2100:2120  sessions[msg.sender] */\n      dup1\n        /* \"T/Transport Layer Security (TLS)/Transport Layer Security (TLS).sol\":2109:2119  msg.sender */\n      caller\n        /* \"T/Transport Layer Security (TLS)/Transport Layer Security (TLS).sol\":2100:2120  sessions[msg.sender] */\n      0xffffffffffffffffffffffffffffffffffffffff\n      and\n      0xffffffffffffffffffffffffffffffffffffffff\n      and\n      dup2\n      mstore\n      0x20\n      add\n      swap1\n      dup2\n      mstore\n      0x20\n      add\n      0x00\n      keccak256\n        /* \"T/Transport Layer Security (TLS)/Transport Layer Security (TLS).sol\":2100:2132  sessions[msg.sender].established */\n      0x00\n      add\n      0x00\n        /* \"T/Transport Layer Security (TLS)/Transport Layer Security (TLS).sol\":2100:2139  sessions[msg.sender].established = true */\n      0x0100\n      exp\n      dup2\n      sload\n      dup2\n      0xff\n      mul\n      not\n      and\n      swap1\n      dup4\n      iszero\n      iszero\n      mul\n      or\n      swap1\n      sstore\n      pop\n        /* \"T/Transport Layer Security (TLS)/Transport Layer Security (TLS).sol\":2166:2176  msg.sender */\n      caller\n        /* \"T/Transport Layer Security (TLS)/Transport Layer Security (TLS).sol\":2154:2232  TLSDefended(msg.sender, TLSLayerType.Handshake, TLSDefenseType.CertValidation) */\n      0xffffffffffffffffffffffffffffffffffffffff\n      and\n      0x4630e4d8ee2366488de2e4361bb2c5a1ebd888b5590e3f7a70dc072e37d60e91\n        /* \"T/Transport Layer Security (TLS)/Transport Layer Security (TLS).sol\":2178:2200  TLSLayerType.Handshake */\n      0x00\n        /* \"T/Transport Layer Security (TLS)/Transport Layer Security (TLS).sol\":2202:2231  TLSDefenseType.CertValidation */\n      dup1\n        /* \"T/Transport Layer Security (TLS)/Transport Layer Security (TLS).sol\":2154:2232  TLSDefended(msg.sender, TLSLayerType.Handshake, TLSDefenseType.CertValidation) */\n      mload(0x40)\n      tag_28\n      swap3\n      swap2\n      swap1\n      tag_29\n      jump\t// in\n    tag_28:\n      mload(0x40)\n      dup1\n      swap2\n      sub\n      swap1\n      log2\n        /* \"T/Transport Layer Security (TLS)/Transport Layer Security (TLS).sol\":1945:2239  function handshake(address peer, bytes calldata cert, bytes32 certRoot) external {... */\n      pop\n      pop\n      pop\n      pop\n      jump\t// out\n        /* \"#utility.yul\":88:205   */\n    tag_31:\n        /* \"#utility.yul\":197:198   */\n      0x00\n        /* \"#utility.yul\":194:195   */\n      dup1\n        /* \"#utility.yul\":187:199   */\n      revert\n        /* \"#utility.yul\":211:328   */\n    tag_32:\n        /* \"#utility.yul\":320:321   */\n      0x00\n        /* \"#utility.yul\":317:318   */\n      dup1\n        /* \"#utility.yul\":310:322   */\n      revert\n        /* \"#utility.yul\":334:411   */\n    tag_33:\n        /* \"#utility.yul\":371:378   */\n      0x00\n        /* \"#utility.yul\":400:405   */\n      dup2\n        /* \"#utility.yul\":389:405   */\n      swap1\n      pop\n        /* \"#utility.yul\":334:411   */\n      swap2\n      swap1\n      pop\n      jump\t// out\n        /* \"#utility.yul\":417:539   */\n    tag_34:\n        /* \"#utility.yul\":490:514   */\n      tag_61\n        /* \"#utility.yul\":508:513   */\n      dup2\n        /* \"#utility.yul\":490:514   */\n      tag_33\n      jump\t// in\n    tag_61:\n        /* \"#utility.yul\":483:488   */\n      dup2\n        /* \"#utility.yul\":480:515   */\n      eq\n        /* \"#utility.yul\":470:533   */\n      tag_62\n      jumpi\n        /* \"#utility.yul\":529:530   */\n      0x00\n        /* \"#utility.yul\":526:527   */\n      dup1\n        /* \"#utility.yul\":519:531   */\n      revert\n        /* \"#utility.yul\":470:533   */\n    tag_62:\n        /* \"#utility.yul\":417:539   */\n      pop\n      jump\t// out\n        /* \"#utility.yul\":545:684   */\n    tag_35:\n        /* \"#utility.yul\":591:596   */\n      0x00\n        /* \"#utility.yul\":629:635   */\n      dup2\n        /* \"#utility.yul\":616:636   */\n      calldataload\n        /* \"#utility.yul\":607:636   */\n      swap1\n      pop\n        /* \"#utility.yul\":645:678   */\n      tag_64\n        /* \"#utility.yul\":672:677   */\n      dup2\n        /* \"#utility.yul\":645:678   */\n      tag_34\n      jump\t// in\n    tag_64:\n        /* \"#utility.yul\":545:684   */\n      swap3\n      swap2\n      pop\n      pop\n      jump\t// out\n        /* \"#utility.yul\":690:1019   */\n    tag_9:\n        /* \"#utility.yul\":749:755   */\n      0x00\n        /* \"#utility.yul\":798:800   */\n      0x20\n        /* \"#utility.yul\":786:795   */\n      dup3\n        /* \"#utility.yul\":777:784   */\n      dup5\n        /* \"#utility.yul\":773:796   */\n      sub\n        /* \"#utility.yul\":769:801   */\n      slt\n        /* \"#utility.yul\":766:885   */\n      iszero\n      tag_66\n      jumpi\n        /* \"#utility.yul\":804:883   */\n      tag_67\n      tag_31\n      jump\t// in\n    tag_67:\n        /* \"#utility.yul\":766:885   */\n    tag_66:\n        /* \"#utility.yul\":924:925   */\n      0x00\n        /* \"#utility.yul\":949:1002   */\n      tag_68\n        /* \"#utility.yul\":994:1001   */\n      dup5\n        /* \"#utility.yul\":985:991   */\n      dup3\n        /* \"#utility.yul\":974:983   */\n      dup6\n        /* \"#utility.yul\":970:992   */\n      add\n        /* \"#utility.yul\":949:1002   */\n      tag_35\n      jump\t// in\n    tag_68:\n        /* \"#utility.yul\":939:1002   */\n      swap2\n      pop\n        /* \"#utility.yul\":895:1012   */\n      pop\n        /* \"#utility.yul\":690:1019   */\n      swap3\n      swap2\n      pop\n      pop\n      jump\t// out\n        /* \"#utility.yul\":1025:1151   */\n    tag_36:\n        /* \"#utility.yul\":1062:1069   */\n      0x00\n        /* \"#utility.yul\":1102:1144   */\n      0xffffffffffffffffffffffffffffffffffffffff\n        /* \"#utility.yul\":1095:1100   */\n      dup3\n        /* \"#utility.yul\":1091:1145   */\n      and\n        /* \"#utility.yul\":1080:1145   */\n      swap1\n      pop\n        /* \"#utility.yul\":1025:1151   */\n      swap2\n      swap1\n      pop\n      jump\t// out\n        /* \"#utility.yul\":1157:1253   */\n    tag_37:\n        /* \"#utility.yul\":1194:1201   */\n      0x00\n        /* \"#utility.yul\":1223:1247   */\n      tag_71\n        /* \"#utility.yul\":1241:1246   */\n      dup3\n        /* \"#utility.yul\":1223:1247   */\n      tag_36\n      jump\t// in\n    tag_71:\n        /* \"#utility.yul\":1212:1247   */\n      swap1\n      pop\n        /* \"#utility.yul\":1157:1253   */\n      swap2\n      swap1\n      pop\n      jump\t// out\n        /* \"#utility.yul\":1259:1381   */\n    tag_38:\n        /* \"#utility.yul\":1332:1356   */\n      tag_73\n        /* \"#utility.yul\":1350:1355   */\n      dup2\n        /* \"#utility.yul\":1332:1356   */\n      tag_37\n      jump\t// in\n    tag_73:\n        /* \"#utility.yul\":1325:1330   */\n      dup2\n        /* \"#utility.yul\":1322:1357   */\n      eq\n        /* \"#utility.yul\":1312:1375   */\n      tag_74\n      jumpi\n        /* \"#utility.yul\":1371:1372   */\n      0x00\n        /* \"#utility.yul\":1368:1369   */\n      dup1\n        /* \"#utility.yul\":1361:1373   */\n      revert\n        /* \"#utility.yul\":1312:1375   */\n    tag_74:\n        /* \"#utility.yul\":1259:1381   */\n      pop\n      jump\t// out\n        /* \"#utility.yul\":1387:1526   */\n    tag_39:\n        /* \"#utility.yul\":1433:1438   */\n      0x00\n        /* \"#utility.yul\":1471:1477   */\n      dup2\n        /* \"#utility.yul\":1458:1478   */\n      calldataload\n        /* \"#utility.yul\":1449:1478   */\n      swap1\n      pop\n        /* \"#utility.yul\":1487:1520   */\n      tag_76\n        /* \"#utility.yul\":1514:1519   */\n      dup2\n        /* \"#utility.yul\":1487:1520   */\n      tag_38\n      jump\t// in\n    tag_76:\n        /* \"#utility.yul\":1387:1526   */\n      swap3\n      swap2\n      pop\n      pop\n      jump\t// out\n        /* \"#utility.yul\":1532:1861   */\n    tag_13:\n        /* \"#utility.yul\":1591:1597   */\n      0x00\n        /* \"#utility.yul\":1640:1642   */\n      0x20\n        /* \"#utility.yul\":1628:1637   */\n      dup3\n        /* \"#utility.yul\":1619:1626   */\n      dup5\n        /* \"#utility.yul\":1615:1638   */\n      sub\n        /* \"#utility.yul\":1611:1643   */\n      slt\n        /* \"#utility.yul\":1608:1727   */\n      iszero\n      tag_78\n      jumpi\n        /* \"#utility.yul\":1646:1725   */\n      tag_79\n      tag_31\n      jump\t// in\n    tag_79:\n        /* \"#utility.yul\":1608:1727   */\n    tag_78:\n        /* \"#utility.yul\":1766:1767   */\n      0x00\n        /* \"#utility.yul\":1791:1844   */\n      tag_80\n        /* \"#utility.yul\":1836:1843   */\n      dup5\n        /* \"#utility.yul\":1827:1833   */\n      dup3\n        /* \"#utility.yul\":1816:1825   */\n      dup6\n        /* \"#utility.yul\":1812:1834   */\n      add\n        /* \"#utility.yul\":1791:1844   */\n      tag_39\n      jump\t// in\n    tag_80:\n        /* \"#utility.yul\":1781:1844   */\n      swap2\n      pop\n        /* \"#utility.yul\":1737:1854   */\n      pop\n        /* \"#utility.yul\":1532:1861   */\n      swap3\n      swap2\n      pop\n      pop\n      jump\t// out\n        /* \"#utility.yul\":1867:1957   */\n    tag_40:\n        /* \"#utility.yul\":1901:1908   */\n      0x00\n        /* \"#utility.yul\":1944:1949   */\n      dup2\n        /* \"#utility.yul\":1937:1950   */\n      iszero\n        /* \"#utility.yul\":1930:1951   */\n      iszero\n        /* \"#utility.yul\":1919:1951   */\n      swap1\n      pop\n        /* \"#utility.yul\":1867:1957   */\n      swap2\n      swap1\n      pop\n      jump\t// out\n        /* \"#utility.yul\":1963:2072   */\n    tag_41:\n        /* \"#utility.yul\":2044:2065   */\n      tag_83\n        /* \"#utility.yul\":2059:2064   */\n      dup2\n        /* \"#utility.yul\":2044:2065   */\n      tag_40\n      jump\t// in\n    tag_83:\n        /* \"#utility.yul\":2039:2042   */\n      dup3\n        /* \"#utility.yul\":2032:2066   */\n      mstore\n        /* \"#utility.yul\":1963:2072   */\n      pop\n      pop\n      jump\t// out\n        /* \"#utility.yul\":2078:2288   */\n    tag_16:\n        /* \"#utility.yul\":2165:2169   */\n      0x00\n        /* \"#utility.yul\":2203:2205   */\n      0x20\n        /* \"#utility.yul\":2192:2201   */\n      dup3\n        /* \"#utility.yul\":2188:2206   */\n      add\n        /* \"#utility.yul\":2180:2206   */\n      swap1\n      pop\n        /* \"#utility.yul\":2216:2281   */\n      tag_85\n        /* \"#utility.yul\":2278:2279   */\n      0x00\n        /* \"#utility.yul\":2267:2276   */\n      dup4\n        /* \"#utility.yul\":2263:2280   */\n      add\n        /* \"#utility.yul\":2254:2260   */\n      dup5\n        /* \"#utility.yul\":2216:2281   */\n      tag_41\n      jump\t// in\n    tag_85:\n        /* \"#utility.yul\":2078:2288   */\n      swap3\n      swap2\n      pop\n      pop\n      jump\t// out\n        /* \"#utility.yul\":2294:2411   */\n    tag_42:\n        /* \"#utility.yul\":2403:2404   */\n      0x00\n        /* \"#utility.yul\":2400:2401   */\n      dup1\n        /* \"#utility.yul\":2393:2405   */\n      revert\n        /* \"#utility.yul\":2417:2534   */\n    tag_43:\n        /* \"#utility.yul\":2526:2527   */\n      0x00\n        /* \"#utility.yul\":2523:2524   */\n      dup1\n        /* \"#utility.yul\":2516:2528   */\n      revert\n        /* \"#utility.yul\":2540:2657   */\n    tag_44:\n        /* \"#utility.yul\":2649:2650   */\n      0x00\n        /* \"#utility.yul\":2646:2647   */\n      dup1\n        /* \"#utility.yul\":2639:2651   */\n      revert\n        /* \"#utility.yul\":2676:3228   */\n    tag_45:\n        /* \"#utility.yul\":2733:2741   */\n      0x00\n        /* \"#utility.yul\":2743:2749   */\n      dup1\n        /* \"#utility.yul\":2793:2796   */\n      dup4\n        /* \"#utility.yul\":2786:2790   */\n      0x1f\n        /* \"#utility.yul\":2778:2784   */\n      dup5\n        /* \"#utility.yul\":2774:2791   */\n      add\n        /* \"#utility.yul\":2770:2797   */\n      slt\n        /* \"#utility.yul\":2760:2882   */\n      tag_90\n      jumpi\n        /* \"#utility.yul\":2801:2880   */\n      tag_91\n      tag_42\n      jump\t// in\n    tag_91:\n        /* \"#utility.yul\":2760:2882   */\n    tag_90:\n        /* \"#utility.yul\":2914:2920   */\n      dup3\n        /* \"#utility.yul\":2901:2921   */\n      calldataload\n        /* \"#utility.yul\":2891:2921   */\n      swap1\n      pop\n        /* \"#utility.yul\":2944:2962   */\n      0xffffffffffffffff\n        /* \"#utility.yul\":2936:2942   */\n      dup2\n        /* \"#utility.yul\":2933:2963   */\n      gt\n        /* \"#utility.yul\":2930:3047   */\n      iszero\n      tag_92\n      jumpi\n        /* \"#utility.yul\":2966:3045   */\n      tag_93\n      tag_43\n      jump\t// in\n    tag_93:\n        /* \"#utility.yul\":2930:3047   */\n    tag_92:\n        /* \"#utility.yul\":3080:3084   */\n      0x20\n        /* \"#utility.yul\":3072:3078   */\n      dup4\n        /* \"#utility.yul\":3068:3085   */\n      add\n        /* \"#utility.yul\":3056:3085   */\n      swap2\n      pop\n        /* \"#utility.yul\":3134:3137   */\n      dup4\n        /* \"#utility.yul\":3126:3130   */\n      0x01\n        /* \"#utility.yul\":3118:3124   */\n      dup3\n        /* \"#utility.yul\":3114:3131   */\n      mul\n        /* \"#utility.yul\":3104:3112   */\n      dup4\n        /* \"#utility.yul\":3100:3132   */\n      add\n        /* \"#utility.yul\":3097:3138   */\n      gt\n        /* \"#utility.yul\":3094:3222   */\n      iszero\n      tag_94\n      jumpi\n        /* \"#utility.yul\":3141:3220   */\n      tag_95\n      tag_44\n      jump\t// in\n    tag_95:\n        /* \"#utility.yul\":3094:3222   */\n    tag_94:\n        /* \"#utility.yul\":2676:3228   */\n      swap3\n      pop\n      swap3\n      swap1\n      pop\n      jump\t// out\n        /* \"#utility.yul\":3234:4051   */\n    tag_23:\n        /* \"#utility.yul\":3322:3328   */\n      0x00\n        /* \"#utility.yul\":3330:3336   */\n      dup1\n        /* \"#utility.yul\":3338:3344   */\n      0x00\n        /* \"#utility.yul\":3346:3352   */\n      dup1\n        /* \"#utility.yul\":3395:3397   */\n      0x60\n        /* \"#utility.yul\":3383:3392   */\n      dup6\n        /* \"#utility.yul\":3374:3381   */\n      dup8\n        /* \"#utility.yul\":3370:3393   */\n      sub\n        /* \"#utility.yul\":3366:3398   */\n      slt\n        /* \"#utility.yul\":3363:3482   */\n      iszero\n      tag_97\n      jumpi\n        /* \"#utility.yul\":3401:3480   */\n      tag_98\n      tag_31\n      jump\t// in\n    tag_98:\n        /* \"#utility.yul\":3363:3482   */\n    tag_97:\n        /* \"#utility.yul\":3521:3522   */\n      0x00\n        /* \"#utility.yul\":3546:3599   */\n      tag_99\n        /* \"#utility.yul\":3591:3598   */\n      dup8\n        /* \"#utility.yul\":3582:3588   */\n      dup3\n        /* \"#utility.yul\":3571:3580   */\n      dup9\n        /* \"#utility.yul\":3567:3589   */\n      add\n        /* \"#utility.yul\":3546:3599   */\n      tag_39\n      jump\t// in\n    tag_99:\n        /* \"#utility.yul\":3536:3599   */\n      swap5\n      pop\n        /* \"#utility.yul\":3492:3609   */\n      pop\n        /* \"#utility.yul\":3676:3678   */\n      0x20\n        /* \"#utility.yul\":3665:3674   */\n      dup6\n        /* \"#utility.yul\":3661:3679   */\n      add\n        /* \"#utility.yul\":3648:3680   */\n      calldataload\n        /* \"#utility.yul\":3707:3725   */\n      0xffffffffffffffff\n        /* \"#utility.yul\":3699:3705   */\n      dup2\n        /* \"#utility.yul\":3696:3726   */\n      gt\n        /* \"#utility.yul\":3693:3810   */\n      iszero\n      tag_100\n      jumpi\n        /* \"#utility.yul\":3729:3808   */\n      tag_101\n      tag_32\n      jump\t// in\n    tag_101:\n        /* \"#utility.yul\":3693:3810   */\n    tag_100:\n        /* \"#utility.yul\":3842:3906   */\n      tag_102\n        /* \"#utility.yul\":3898:3905   */\n      dup8\n        /* \"#utility.yul\":3889:3895   */\n      dup3\n        /* \"#utility.yul\":3878:3887   */\n      dup9\n        /* \"#utility.yul\":3874:3896   */\n      add\n        /* \"#utility.yul\":3842:3906   */\n      tag_45\n      jump\t// in\n    tag_102:\n        /* \"#utility.yul\":3824:3906   */\n      swap4\n      pop\n      swap4\n      pop\n        /* \"#utility.yul\":3619:3916   */\n      pop\n        /* \"#utility.yul\":3955:3957   */\n      0x40\n        /* \"#utility.yul\":3981:4034   */\n      tag_103\n        /* \"#utility.yul\":4026:4033   */\n      dup8\n        /* \"#utility.yul\":4017:4023   */\n      dup3\n        /* \"#utility.yul\":4006:4015   */\n      dup9\n        /* \"#utility.yul\":4002:4024   */\n      add\n        /* \"#utility.yul\":3981:4034   */\n      tag_35\n      jump\t// in\n    tag_103:\n        /* \"#utility.yul\":3971:4034   */\n      swap2\n      pop\n        /* \"#utility.yul\":3926:4044   */\n      pop\n        /* \"#utility.yul\":3234:4051   */\n      swap3\n      swap6\n      swap2\n      swap5\n      pop\n      swap3\n      pop\n      jump\t// out\n        /* \"#utility.yul\":4057:4237   */\n    tag_46:\n        /* \"#utility.yul\":4105:4182   */\n      0x4e487b7100000000000000000000000000000000000000000000000000000000\n        /* \"#utility.yul\":4102:4103   */\n      0x00\n        /* \"#utility.yul\":4095:4183   */\n      mstore\n        /* \"#utility.yul\":4202:4206   */\n      0x21\n        /* \"#utility.yul\":4199:4200   */\n      0x04\n        /* \"#utility.yul\":4192:4207   */\n      mstore\n        /* \"#utility.yul\":4226:4230   */\n      0x24\n        /* \"#utility.yul\":4223:4224   */\n      0x00\n        /* \"#utility.yul\":4216:4231   */\n      revert\n        /* \"#utility.yul\":4243:4362   */\n    tag_47:\n        /* \"#utility.yul\":4330:4331   */\n      0x04\n        /* \"#utility.yul\":4323:4328   */\n      dup2\n        /* \"#utility.yul\":4320:4332   */\n      lt\n        /* \"#utility.yul\":4310:4356   */\n      tag_106\n      jumpi\n        /* \"#utility.yul\":4336:4354   */\n      tag_107\n      tag_46\n      jump\t// in\n    tag_107:\n        /* \"#utility.yul\":4310:4356   */\n    tag_106:\n        /* \"#utility.yul\":4243:4362   */\n      pop\n      jump\t// out\n        /* \"#utility.yul\":4368:4507   */\n    tag_48:\n        /* \"#utility.yul\":4419:4426   */\n      0x00\n        /* \"#utility.yul\":4448:4453   */\n      dup2\n        /* \"#utility.yul\":4437:4453   */\n      swap1\n      pop\n        /* \"#utility.yul\":4454:4501   */\n      tag_109\n        /* \"#utility.yul\":4495:4500   */\n      dup3\n        /* \"#utility.yul\":4454:4501   */\n      tag_47\n      jump\t// in\n    tag_109:\n        /* \"#utility.yul\":4368:4507   */\n      swap2\n      swap1\n      pop\n      jump\t// out\n        /* \"#utility.yul\":4513:4652   */\n    tag_49:\n        /* \"#utility.yul\":4575:4584   */\n      0x00\n        /* \"#utility.yul\":4608:4646   */\n      tag_111\n        /* \"#utility.yul\":4640:4645   */\n      dup3\n        /* \"#utility.yul\":4608:4646   */\n      tag_48\n      jump\t// in\n    tag_111:\n        /* \"#utility.yul\":4595:4646   */\n      swap1\n      pop\n        /* \"#utility.yul\":4513:4652   */\n      swap2\n      swap1\n      pop\n      jump\t// out\n        /* \"#utility.yul\":4658:4813   */\n    tag_50:\n        /* \"#utility.yul\":4757:4806   */\n      tag_113\n        /* \"#utility.yul\":4800:4805   */\n      dup2\n        /* \"#utility.yul\":4757:4806   */\n      tag_49\n      jump\t// in\n    tag_113:\n        /* \"#utility.yul\":4752:4755   */\n      dup3\n        /* \"#utility.yul\":4745:4807   */\n      mstore\n        /* \"#utility.yul\":4658:4813   */\n      pop\n      pop\n      jump\t// out\n        /* \"#utility.yul\":4819:4941   */\n    tag_51:\n        /* \"#utility.yul\":4909:4910   */\n      0x04\n        /* \"#utility.yul\":4902:4907   */\n      dup2\n        /* \"#utility.yul\":4899:4911   */\n      lt\n        /* \"#utility.yul\":4889:4935   */\n      tag_115\n      jumpi\n        /* \"#utility.yul\":4915:4933   */\n      tag_116\n      tag_46\n      jump\t// in\n    tag_116:\n        /* \"#utility.yul\":4889:4935   */\n    tag_115:\n        /* \"#utility.yul\":4819:4941   */\n      pop\n      jump\t// out\n        /* \"#utility.yul\":4947:5092   */\n    tag_52:\n        /* \"#utility.yul\":5001:5008   */\n      0x00\n        /* \"#utility.yul\":5030:5035   */\n      dup2\n        /* \"#utility.yul\":5019:5035   */\n      swap1\n      pop\n        /* \"#utility.yul\":5036:5086   */\n      tag_118\n        /* \"#utility.yul\":5080:5085   */\n      dup3\n        /* \"#utility.yul\":5036:5086   */\n      tag_51\n      jump\t// in\n    tag_118:\n        /* \"#utility.yul\":4947:5092   */\n      swap2\n      swap1\n      pop\n      jump\t// out\n        /* \"#utility.yul\":5098:5243   */\n    tag_53:\n        /* \"#utility.yul\":5163:5172   */\n      0x00\n        /* \"#utility.yul\":5196:5237   */\n      tag_120\n        /* \"#utility.yul\":5231:5236   */\n      dup3\n        /* \"#utility.yul\":5196:5237   */\n      tag_52\n      jump\t// in\n    tag_120:\n        /* \"#utility.yul\":5183:5237   */\n      swap1\n      pop\n        /* \"#utility.yul\":5098:5243   */\n      swap2\n      swap1\n      pop\n      jump\t// out\n        /* \"#utility.yul\":5249:5410   */\n    tag_54:\n        /* \"#utility.yul\":5351:5403   */\n      tag_122\n        /* \"#utility.yul\":5397:5402   */\n      dup2\n        /* \"#utility.yul\":5351:5403   */\n      tag_53\n      jump\t// in\n    tag_122:\n        /* \"#utility.yul\":5346:5349   */\n      dup3\n        /* \"#utility.yul\":5339:5404   */\n      mstore\n        /* \"#utility.yul\":5249:5410   */\n      pop\n      pop\n      jump\t// out\n        /* \"#utility.yul\":5416:5802   */\n    tag_29:\n        /* \"#utility.yul\":5564:5568   */\n      0x00\n        /* \"#utility.yul\":5602:5604   */\n      0x40\n        /* \"#utility.yul\":5591:5600   */\n      dup3\n        /* \"#utility.yul\":5587:5605   */\n      add\n        /* \"#utility.yul\":5579:5605   */\n      swap1\n      pop\n        /* \"#utility.yul\":5615:5698   */\n      tag_124\n        /* \"#utility.yul\":5695:5696   */\n      0x00\n        /* \"#utility.yul\":5684:5693   */\n      dup4\n        /* \"#utility.yul\":5680:5697   */\n      add\n        /* \"#utility.yul\":5671:5677   */\n      dup6\n        /* \"#utility.yul\":5615:5698   */\n      tag_50\n      jump\t// in\n    tag_124:\n        /* \"#utility.yul\":5708:5795   */\n      tag_125\n        /* \"#utility.yul\":5791:5793   */\n      0x20\n        /* \"#utility.yul\":5780:5789   */\n      dup4\n        /* \"#utility.yul\":5776:5794   */\n      add\n        /* \"#utility.yul\":5767:5773   */\n      dup5\n        /* \"#utility.yul\":5708:5795   */\n      tag_54\n      jump\t// in\n    tag_125:\n        /* \"#utility.yul\":5416:5802   */\n      swap4\n      swap3\n      pop\n      pop\n      pop\n      jump\t// out\n\n    auxdata: 0xa2646970667358221220d2866fe02f5ae95d58b7b00f70a6d2fb950aa2d408ebbc939dee388f9f5d2f2364736f6c634300081a0033\n}\n",
				"bytecode": {
					"linkReferences": {},
					"object": "6080604052348015600e575f80fd5b506105598061001c5f395ff3fe608060405234801561000f575f80fd5b506004361061004a575f3560e01c806328e885bf1461004e578063431a1b971461006a5780637657e90d1461009a5780639a8ab567146100ca575b5f80fd5b6100686004803603810190610063919061028e565b6100e6565b005b610084600480360381019061007f9190610313565b610111565b6040516100919190610358565b60405180910390f35b6100b460048036038101906100af919061028e565b610136565b6040516100c19190610358565b60405180910390f35b6100e460048036038101906100df91906103d2565b610153565b005b6001805f8381526020019081526020015f205f6101000a81548160ff02191690831515021790555050565b5f602052805f5260405f205f91509050805f015f9054906101000a900460ff16905081565b6001602052805f5260405f205f915054906101000a900460ff1681565b60015f8281526020019081526020015f205f9054906101000a900460ff166101a7576040517f4994429700000000000000000000000000000000000000000000000000000000815260040160405180910390fd5b60015f803373ffffffffffffffffffffffffffffffffffffffff1673ffffffffffffffffffffffffffffffffffffffff1681526020019081526020015f205f015f6101000a81548160ff0219169083151502179055503373ffffffffffffffffffffffffffffffffffffffff167f4630e4d8ee2366488de2e4361bb2c5a1ebd888b5590e3f7a70dc072e37d60e915f806040516102459291906104fc565b60405180910390a250505050565b5f80fd5b5f80fd5b5f819050919050565b61026d8161025b565b8114610277575f80fd5b50565b5f8135905061028881610264565b92915050565b5f602082840312156102a3576102a2610253565b5b5f6102b08482850161027a565b91505092915050565b5f73ffffffffffffffffffffffffffffffffffffffff82169050919050565b5f6102e2826102b9565b9050919050565b6102f2816102d8565b81146102fc575f80fd5b50565b5f8135905061030d816102e9565b92915050565b5f6020828403121561032857610327610253565b5b5f610335848285016102ff565b91505092915050565b5f8115159050919050565b6103528161033e565b82525050565b5f60208201905061036b5f830184610349565b92915050565b5f80fd5b5f80fd5b5f80fd5b5f8083601f84011261039257610391610371565b5b8235905067ffffffffffffffff8111156103af576103ae610375565b5b6020830191508360018202830111156103cb576103ca610379565b5b9250929050565b5f805f80606085870312156103ea576103e9610253565b5b5f6103f7878288016102ff565b945050602085013567ffffffffffffffff81111561041857610417610257565b5b6104248782880161037d565b935093505060406104378782880161027a565b91505092959194509250565b7f4e487b71000000000000000000000000000000000000000000000000000000005f52602160045260245ffd5b6004811061048157610480610443565b5b50565b5f81905061049182610470565b919050565b5f6104a082610484565b9050919050565b6104b081610496565b82525050565b600481106104c7576104c6610443565b5b50565b5f8190506104d7826104b6565b919050565b5f6104e6826104ca565b9050919050565b6104f6816104dc565b82525050565b5f60408201905061050f5f8301856104a7565b61051c60208301846104ed565b939250505056fea2646970667358221220d2866fe02f5ae95d58b7b00f70a6d2fb950aa2d408ebbc939dee388f9f5d2f2364736f6c634300081a0033",
					"opcodes": "PUSH1 0x80 PUSH1 0x40 MSTORE CALLVALUE DUP1 ISZERO PUSH1 0xE JUMPI PUSH0 DUP1 REVERT JUMPDEST POP PUSH2 0x559 DUP1 PUSH2 0x1C PUSH0 CODECOPY PUSH0 RETURN INVALID PUSH1 0x80 PUSH1 0x40 MSTORE CALLVALUE DUP1 ISZERO PUSH2 0xF JUMPI PUSH0 DUP1 REVERT JUMPDEST POP PUSH1 0x4 CALLDATASIZE LT PUSH2 0x4A JUMPI PUSH0 CALLDATALOAD PUSH1 0xE0 SHR DUP1 PUSH4 0x28E885BF EQ PUSH2 0x4E JUMPI DUP1 PUSH4 0x431A1B97 EQ PUSH2 0x6A JUMPI DUP1 PUSH4 0x7657E90D EQ PUSH2 0x9A JUMPI DUP1 PUSH4 0x9A8AB567 EQ PUSH2 0xCA JUMPI JUMPDEST PUSH0 DUP1 REVERT JUMPDEST PUSH2 0x68 PUSH1 0x4 DUP1 CALLDATASIZE SUB DUP2 ADD SWAP1 PUSH2 0x63 SWAP2 SWAP1 PUSH2 0x28E JUMP JUMPDEST PUSH2 0xE6 JUMP JUMPDEST STOP JUMPDEST PUSH2 0x84 PUSH1 0x4 DUP1 CALLDATASIZE SUB DUP2 ADD SWAP1 PUSH2 0x7F SWAP2 SWAP1 PUSH2 0x313 JUMP JUMPDEST PUSH2 0x111 JUMP JUMPDEST PUSH1 0x40 MLOAD PUSH2 0x91 SWAP2 SWAP1 PUSH2 0x358 JUMP JUMPDEST PUSH1 0x40 MLOAD DUP1 SWAP2 SUB SWAP1 RETURN JUMPDEST PUSH2 0xB4 PUSH1 0x4 DUP1 CALLDATASIZE SUB DUP2 ADD SWAP1 PUSH2 0xAF SWAP2 SWAP1 PUSH2 0x28E JUMP JUMPDEST PUSH2 0x136 JUMP JUMPDEST PUSH1 0x40 MLOAD PUSH2 0xC1 SWAP2 SWAP1 PUSH2 0x358 JUMP JUMPDEST PUSH1 0x40 MLOAD DUP1 SWAP2 SUB SWAP1 RETURN JUMPDEST PUSH2 0xE4 PUSH1 0x4 DUP1 CALLDATASIZE SUB DUP2 ADD SWAP1 PUSH2 0xDF SWAP2 SWAP1 PUSH2 0x3D2 JUMP JUMPDEST PUSH2 0x153 JUMP JUMPDEST STOP JUMPDEST PUSH1 0x1 DUP1 PUSH0 DUP4 DUP2 MSTORE PUSH1 0x20 ADD SWAP1 DUP2 MSTORE PUSH1 0x20 ADD PUSH0 KECCAK256 PUSH0 PUSH2 0x100 EXP DUP2 SLOAD DUP2 PUSH1 0xFF MUL NOT AND SWAP1 DUP4 ISZERO ISZERO MUL OR SWAP1 SSTORE POP POP JUMP JUMPDEST PUSH0 PUSH1 0x20 MSTORE DUP1 PUSH0 MSTORE PUSH1 0x40 PUSH0 KECCAK256 PUSH0 SWAP2 POP SWAP1 POP DUP1 PUSH0 ADD PUSH0 SWAP1 SLOAD SWAP1 PUSH2 0x100 EXP SWAP1 DIV PUSH1 0xFF AND SWAP1 POP DUP2 JUMP JUMPDEST PUSH1 0x1 PUSH1 0x20 MSTORE DUP1 PUSH0 MSTORE PUSH1 0x40 PUSH0 KECCAK256 PUSH0 SWAP2 POP SLOAD SWAP1 PUSH2 0x100 EXP SWAP1 DIV PUSH1 0xFF AND DUP2 JUMP JUMPDEST PUSH1 0x1 PUSH0 DUP3 DUP2 MSTORE PUSH1 0x20 ADD SWAP1 DUP2 MSTORE PUSH1 0x20 ADD PUSH0 KECCAK256 PUSH0 SWAP1 SLOAD SWAP1 PUSH2 0x100 EXP SWAP1 DIV PUSH1 0xFF AND PUSH2 0x1A7 JUMPI PUSH1 0x40 MLOAD PUSH32 0x4994429700000000000000000000000000000000000000000000000000000000 DUP2 MSTORE PUSH1 0x4 ADD PUSH1 0x40 MLOAD DUP1 SWAP2 SUB SWAP1 REVERT JUMPDEST PUSH1 0x1 PUSH0 DUP1 CALLER PUSH20 0xFFFFFFFFFFFFFFFFFFFFFFFFFFFFFFFFFFFFFFFF AND PUSH20 0xFFFFFFFFFFFFFFFFFFFFFFFFFFFFFFFFFFFFFFFF AND DUP2 MSTORE PUSH1 0x20 ADD SWAP1 DUP2 MSTORE PUSH1 0x20 ADD PUSH0 KECCAK256 PUSH0 ADD PUSH0 PUSH2 0x100 EXP DUP2 SLOAD DUP2 PUSH1 0xFF MUL NOT AND SWAP1 DUP4 ISZERO ISZERO MUL OR SWAP1 SSTORE POP CALLER PUSH20 0xFFFFFFFFFFFFFFFFFFFFFFFFFFFFFFFFFFFFFFFF AND PUSH32 0x4630E4D8EE2366488DE2E4361BB2C5A1EBD888B5590E3F7A70DC072E37D60E91 PUSH0 DUP1 PUSH1 0x40 MLOAD PUSH2 0x245 SWAP3 SWAP2 SWAP1 PUSH2 0x4FC JUMP JUMPDEST PUSH1 0x40 MLOAD DUP1 SWAP2 SUB SWAP1 LOG2 POP POP POP POP JUMP JUMPDEST PUSH0 DUP1 REVERT JUMPDEST PUSH0 DUP1 REVERT JUMPDEST PUSH0 DUP2 SWAP1 POP SWAP2 SWAP1 POP JUMP JUMPDEST PUSH2 0x26D DUP2 PUSH2 0x25B JUMP JUMPDEST DUP2 EQ PUSH2 0x277 JUMPI PUSH0 DUP1 REVERT JUMPDEST POP JUMP JUMPDEST PUSH0 DUP2 CALLDATALOAD SWAP1 POP PUSH2 0x288 DUP2 PUSH2 0x264 JUMP JUMPDEST SWAP3 SWAP2 POP POP JUMP JUMPDEST PUSH0 PUSH1 0x20 DUP3 DUP5 SUB SLT ISZERO PUSH2 0x2A3 JUMPI PUSH2 0x2A2 PUSH2 0x253 JUMP JUMPDEST JUMPDEST PUSH0 PUSH2 0x2B0 DUP5 DUP3 DUP6 ADD PUSH2 0x27A JUMP JUMPDEST SWAP2 POP POP SWAP3 SWAP2 POP POP JUMP JUMPDEST PUSH0 PUSH20 0xFFFFFFFFFFFFFFFFFFFFFFFFFFFFFFFFFFFFFFFF DUP3 AND SWAP1 POP SWAP2 SWAP1 POP JUMP JUMPDEST PUSH0 PUSH2 0x2E2 DUP3 PUSH2 0x2B9 JUMP JUMPDEST SWAP1 POP SWAP2 SWAP1 POP JUMP JUMPDEST PUSH2 0x2F2 DUP2 PUSH2 0x2D8 JUMP JUMPDEST DUP2 EQ PUSH2 0x2FC JUMPI PUSH0 DUP1 REVERT JUMPDEST POP JUMP JUMPDEST PUSH0 DUP2 CALLDATALOAD SWAP1 POP PUSH2 0x30D DUP2 PUSH2 0x2E9 JUMP JUMPDEST SWAP3 SWAP2 POP POP JUMP JUMPDEST PUSH0 PUSH1 0x20 DUP3 DUP5 SUB SLT ISZERO PUSH2 0x328 JUMPI PUSH2 0x327 PUSH2 0x253 JUMP JUMPDEST JUMPDEST PUSH0 PUSH2 0x335 DUP5 DUP3 DUP6 ADD PUSH2 0x2FF JUMP JUMPDEST SWAP2 POP POP SWAP3 SWAP2 POP POP JUMP JUMPDEST PUSH0 DUP2 ISZERO ISZERO SWAP1 POP SWAP2 SWAP1 POP JUMP JUMPDEST PUSH2 0x352 DUP2 PUSH2 0x33E JUMP JUMPDEST DUP3 MSTORE POP POP JUMP JUMPDEST PUSH0 PUSH1 0x20 DUP3 ADD SWAP1 POP PUSH2 0x36B PUSH0 DUP4 ADD DUP5 PUSH2 0x349 JUMP JUMPDEST SWAP3 SWAP2 POP POP JUMP JUMPDEST PUSH0 DUP1 REVERT JUMPDEST PUSH0 DUP1 REVERT JUMPDEST PUSH0 DUP1 REVERT JUMPDEST PUSH0 DUP1 DUP4 PUSH1 0x1F DUP5 ADD SLT PUSH2 0x392 JUMPI PUSH2 0x391 PUSH2 0x371 JUMP JUMPDEST JUMPDEST DUP3 CALLDATALOAD SWAP1 POP PUSH8 0xFFFFFFFFFFFFFFFF DUP2 GT ISZERO PUSH2 0x3AF JUMPI PUSH2 0x3AE PUSH2 0x375 JUMP JUMPDEST JUMPDEST PUSH1 0x20 DUP4 ADD SWAP2 POP DUP4 PUSH1 0x1 DUP3 MUL DUP4 ADD GT ISZERO PUSH2 0x3CB JUMPI PUSH2 0x3CA PUSH2 0x379 JUMP JUMPDEST JUMPDEST SWAP3 POP SWAP3 SWAP1 POP JUMP JUMPDEST PUSH0 DUP1 PUSH0 DUP1 PUSH1 0x60 DUP6 DUP8 SUB SLT ISZERO PUSH2 0x3EA JUMPI PUSH2 0x3E9 PUSH2 0x253 JUMP JUMPDEST JUMPDEST PUSH0 PUSH2 0x3F7 DUP8 DUP3 DUP9 ADD PUSH2 0x2FF JUMP JUMPDEST SWAP5 POP POP PUSH1 0x20 DUP6 ADD CALLDATALOAD PUSH8 0xFFFFFFFFFFFFFFFF DUP2 GT ISZERO PUSH2 0x418 JUMPI PUSH2 0x417 PUSH2 0x257 JUMP JUMPDEST JUMPDEST PUSH2 0x424 DUP8 DUP3 DUP9 ADD PUSH2 0x37D JUMP JUMPDEST SWAP4 POP SWAP4 POP POP PUSH1 0x40 PUSH2 0x437 DUP8 DUP3 DUP9 ADD PUSH2 0x27A JUMP JUMPDEST SWAP2 POP POP SWAP3 SWAP6 SWAP2 SWAP5 POP SWAP3 POP JUMP JUMPDEST PUSH32 0x4E487B7100000000000000000000000000000000000000000000000000000000 PUSH0 MSTORE PUSH1 0x21 PUSH1 0x4 MSTORE PUSH1 0x24 PUSH0 REVERT JUMPDEST PUSH1 0x4 DUP2 LT PUSH2 0x481 JUMPI PUSH2 0x480 PUSH2 0x443 JUMP JUMPDEST JUMPDEST POP JUMP JUMPDEST PUSH0 DUP2 SWAP1 POP PUSH2 0x491 DUP3 PUSH2 0x470 JUMP JUMPDEST SWAP2 SWAP1 POP JUMP JUMPDEST PUSH0 PUSH2 0x4A0 DUP3 PUSH2 0x484 JUMP JUMPDEST SWAP1 POP SWAP2 SWAP1 POP JUMP JUMPDEST PUSH2 0x4B0 DUP2 PUSH2 0x496 JUMP JUMPDEST DUP3 MSTORE POP POP JUMP JUMPDEST PUSH1 0x4 DUP2 LT PUSH2 0x4C7 JUMPI PUSH2 0x4C6 PUSH2 0x443 JUMP JUMPDEST JUMPDEST POP JUMP JUMPDEST PUSH0 DUP2 SWAP1 POP PUSH2 0x4D7 DUP3 PUSH2 0x4B6 JUMP JUMPDEST SWAP2 SWAP1 POP JUMP JUMPDEST PUSH0 PUSH2 0x4E6 DUP3 PUSH2 0x4CA JUMP JUMPDEST SWAP1 POP SWAP2 SWAP1 POP JUMP JUMPDEST PUSH2 0x4F6 DUP2 PUSH2 0x4DC JUMP JUMPDEST DUP3 MSTORE POP POP JUMP JUMPDEST PUSH0 PUSH1 0x40 DUP3 ADD SWAP1 POP PUSH2 0x50F PUSH0 DUP4 ADD DUP6 PUSH2 0x4A7 JUMP JUMPDEST PUSH2 0x51C PUSH1 0x20 DUP4 ADD DUP5 PUSH2 0x4ED JUMP JUMPDEST SWAP4 SWAP3 POP POP POP JUMP INVALID LOG2 PUSH5 0x6970667358 0x22 SLT KECCAK256 0xD2 DUP7 PUSH16 0xE02F5AE95D58B7B00F70A6D2FB950AA2 0xD4 ADDMOD 0xEB 0xBC SWAP4 SWAP14 0xEE CODESIZE DUP16 SWAP16 TSTORE 0x2F 0x23 PUSH5 0x736F6C6343 STOP ADDMOD BYTE STOP CALLER "
				},
				"gasEstimates": {
					"creation": {
						"codeDepositCost": "273800",
						"executionCost": "310",
						"totalCost": "274110"
					},
					"external": {
						"addTrustedRoot(bytes32)": "24721",
						"handshake(address,bytes,bytes32)": "29605",
						"sessions(address)": "2855",
						"trustedRoots(bytes32)": "2807"
					}
				},
				"methodIdentifiers": {
					"addTrustedRoot(bytes32)": "28e885bf",
					"handshake(address,bytes,bytes32)": "9a8ab567",
					"sessions(address)": "431a1b97",
					"trustedRoots(bytes32)": "7657e90d"
				}
			},
			"storageLayout": {
				"storage": [
					{
						"astId": 89,
						"contract": "T/Transport Layer Security (TLS)/Transport Layer Security (TLS).sol:TLSSafeHandshake",
						"label": "sessions",
						"offset": 0,
						"slot": "0",
						"type": "t_mapping(t_address,t_struct(Session)84_storage)"
					},
					{
						"astId": 93,
						"contract": "T/Transport Layer Security (TLS)/Transport Layer Security (TLS).sol:TLSSafeHandshake",
						"label": "trustedRoots",
						"offset": 0,
						"slot": "1",
						"type": "t_mapping(t_bytes32,t_bool)"
					}
				],
				"types": {
					"t_address": {
						"encoding": "inplace",
						"label": "address",
						"numberOfBytes": "20"
					},
					"t_bool": {
						"encoding": "inplace",
						"label": "bool",
						"numberOfBytes": "1"
					},
					"t_bytes32": {
						"encoding": "inplace",
						"label": "bytes32",
						"numberOfBytes": "32"
					},
					"t_mapping(t_address,t_struct(Session)84_storage)": {
						"encoding": "mapping",
						"key": "t_address",
						"label": "mapping(address => struct TLSSafeHandshake.Session)",
						"numberOfBytes": "32",
						"value": "t_struct(Session)84_storage"
					},
					"t_mapping(t_bytes32,t_bool)": {
						"encoding": "mapping",
						"key": "t_bytes32",
						"label": "mapping(bytes32 => bool)",
						"numberOfBytes": "32",
						"value": "t_bool"
					},
					"t_struct(Session)84_storage": {
						"encoding": "inplace",
						"label": "struct TLSSafeHandshake.Session",
						"members": [
							{
								"astId": 83,
								"contract": "T/Transport Layer Security (TLS)/Transport Layer Security (TLS).sol:TLSSafeHandshake",
								"label": "established",
								"offset": 0,
								"slot": "0",
								"type": "t_bool"
							}
						],
						"numberOfBytes": "32"
					}
				}
			},
			"userdoc": {
				"kind": "user",
				"methods": {
					"addTrustedRoot(bytes32)": {
						"notice": "owner seeds trusted root hashes"
					},
					"handshake(address,bytes,bytes32)": {
						"notice": "✅ validate that certRoot is trusted"
					}
				},
				"version": 1
			}
		}
	}
}