{
	"T/Transport Layer Security (TLS)/Transport Layer Security (TLS).sol": {
		"TLSVulnRenegotiation": {
			"abi": [
				{
					"inputs": [
						{
							"internalType": "address",
							"name": "",
							"type": "address"
						}
					],
					"name": "reneg",
					"outputs": [
						{
							"internalType": "bool",
							"name": "",
							"type": "bool"
						}
					],
					"stateMutability": "view",
					"type": "function"
				},
				{
					"inputs": [
						{
							"internalType": "address",
							"name": "peer",
							"type": "address"
						},
						{
							"internalType": "bytes",
							"name": "ext",
							"type": "bytes"
						}
					],
					"name": "renegotiate",
					"outputs": [],
					"stateMutability": "nonpayable",
					"type": "function"
				}
			],
			"devdoc": {
				"kind": "dev",
				"methods": {},
				"version": 1
			},
			"evm": {
				"assembly": "    /* \"T/Transport Layer Security (TLS)/Transport Layer Security (TLS).sol\":5358:5604  contract TLSVulnRenegotiation {... */\n  mstore(0x40, 0x80)\n  callvalue\n  dup1\n  iszero\n  tag_1\n  jumpi\n  0x00\n  dup1\n  revert\ntag_1:\n  pop\n  dataSize(sub_0)\n  dup1\n  dataOffset(sub_0)\n  0x00\n  codecopy\n  0x00\n  return\nstop\n\nsub_0: assembly {\n        /* \"T/Transport Layer Security (TLS)/Transport Layer Security (TLS).sol\":5358:5604  contract TLSVulnRenegotiation {... */\n      mstore(0x40, 0x80)\n      callvalue\n      dup1\n      iszero\n      tag_1\n      jumpi\n      0x00\n      dup1\n      revert\n    tag_1:\n      pop\n      jumpi(tag_2, lt(calldatasize, 0x04))\n      shr(0xe0, calldataload(0x00))\n      dup1\n      0x6bb8b518\n      eq\n      tag_3\n      jumpi\n      dup1\n      0x8aa5dfd0\n      eq\n      tag_4\n      jumpi\n    tag_2:\n      0x00\n      dup1\n      revert\n        /* \"T/Transport Layer Security (TLS)/Transport Layer Security (TLS).sol\":5394:5431  mapping(address => bool) public reneg */\n    tag_3:\n      tag_5\n      0x04\n      dup1\n      calldatasize\n      sub\n      dup2\n      add\n      swap1\n      tag_6\n      swap2\n      swap1\n      tag_7\n      jump\t// in\n    tag_6:\n      tag_8\n      jump\t// in\n    tag_5:\n      mload(0x40)\n      tag_9\n      swap2\n      swap1\n      tag_10\n      jump\t// in\n    tag_9:\n      mload(0x40)\n      dup1\n      swap2\n      sub\n      swap1\n      return\n        /* \"T/Transport Layer Security (TLS)/Transport Layer Security (TLS).sol\":5438:5602  function renegotiate(address peer, bytes calldata ext) external {... */\n    tag_4:\n      tag_11\n      0x04\n      dup1\n      calldatasize\n      sub\n      dup2\n      add\n      swap1\n      tag_12\n      swap2\n      swap1\n      tag_13\n      jump\t// in\n    tag_12:\n      tag_14\n      jump\t// in\n    tag_11:\n      stop\n        /* \"T/Transport Layer Security (TLS)/Transport Layer Security (TLS).sol\":5394:5431  mapping(address => bool) public reneg */\n    tag_8:\n      mstore(0x20, 0x00)\n      dup1\n      0x00\n      mstore\n      keccak256(0x00, 0x40)\n      0x00\n      swap2\n      pop\n      sload\n      swap1\n      0x0100\n      exp\n      swap1\n      div\n      0xff\n      and\n      dup2\n      jump\t// out\n        /* \"T/Transport Layer Security (TLS)/Transport Layer Security (TLS).sol\":5438:5602  function renegotiate(address peer, bytes calldata ext) external {... */\n    tag_14:\n        /* \"T/Transport Layer Security (TLS)/Transport Layer Security (TLS).sol\":5591:5595  true */\n      0x01\n        /* \"T/Transport Layer Security (TLS)/Transport Layer Security (TLS).sol\":5571:5576  reneg */\n      0x00\n        /* \"T/Transport Layer Security (TLS)/Transport Layer Security (TLS).sol\":5571:5588  reneg[msg.sender] */\n      dup1\n        /* \"T/Transport Layer Security (TLS)/Transport Layer Security (TLS).sol\":5577:5587  msg.sender */\n      caller\n        /* \"T/Transport Layer Security (TLS)/Transport Layer Security (TLS).sol\":5571:5588  reneg[msg.sender] */\n      0xffffffffffffffffffffffffffffffffffffffff\n      and\n      0xffffffffffffffffffffffffffffffffffffffff\n      and\n      dup2\n      mstore\n      0x20\n      add\n      swap1\n      dup2\n      mstore\n      0x20\n      add\n      0x00\n      keccak256\n      0x00\n        /* \"T/Transport Layer Security (TLS)/Transport Layer Security (TLS).sol\":5571:5595  reneg[msg.sender] = true */\n      0x0100\n      exp\n      dup2\n      sload\n      dup2\n      0xff\n      mul\n      not\n      and\n      swap1\n      dup4\n      iszero\n      iszero\n      mul\n      or\n      swap1\n      sstore\n      pop\n        /* \"T/Transport Layer Security (TLS)/Transport Layer Security (TLS).sol\":5438:5602  function renegotiate(address peer, bytes calldata ext) external {... */\n      pop\n      pop\n      pop\n      jump\t// out\n        /* \"#utility.yul\":88:205   */\n    tag_17:\n        /* \"#utility.yul\":197:198   */\n      0x00\n        /* \"#utility.yul\":194:195   */\n      dup1\n        /* \"#utility.yul\":187:199   */\n      revert\n        /* \"#utility.yul\":211:328   */\n    tag_18:\n        /* \"#utility.yul\":320:321   */\n      0x00\n        /* \"#utility.yul\":317:318   */\n      dup1\n        /* \"#utility.yul\":310:322   */\n      revert\n        /* \"#utility.yul\":334:460   */\n    tag_19:\n        /* \"#utility.yul\":371:378   */\n      0x00\n        /* \"#utility.yul\":411:453   */\n      0xffffffffffffffffffffffffffffffffffffffff\n        /* \"#utility.yul\":404:409   */\n      dup3\n        /* \"#utility.yul\":400:454   */\n      and\n        /* \"#utility.yul\":389:454   */\n      swap1\n      pop\n        /* \"#utility.yul\":334:460   */\n      swap2\n      swap1\n      pop\n      jump\t// out\n        /* \"#utility.yul\":466:562   */\n    tag_20:\n        /* \"#utility.yul\":503:510   */\n      0x00\n        /* \"#utility.yul\":532:556   */\n      tag_35\n        /* \"#utility.yul\":550:555   */\n      dup3\n        /* \"#utility.yul\":532:556   */\n      tag_19\n      jump\t// in\n    tag_35:\n        /* \"#utility.yul\":521:556   */\n      swap1\n      pop\n        /* \"#utility.yul\":466:562   */\n      swap2\n      swap1\n      pop\n      jump\t// out\n        /* \"#utility.yul\":568:690   */\n    tag_21:\n        /* \"#utility.yul\":641:665   */\n      tag_37\n        /* \"#utility.yul\":659:664   */\n      dup2\n        /* \"#utility.yul\":641:665   */\n      tag_20\n      jump\t// in\n    tag_37:\n        /* \"#utility.yul\":634:639   */\n      dup2\n        /* \"#utility.yul\":631:666   */\n      eq\n        /* \"#utility.yul\":621:684   */\n      tag_38\n      jumpi\n        /* \"#utility.yul\":680:681   */\n      0x00\n        /* \"#utility.yul\":677:678   */\n      dup1\n        /* \"#utility.yul\":670:682   */\n      revert\n        /* \"#utility.yul\":621:684   */\n    tag_38:\n        /* \"#utility.yul\":568:690   */\n      pop\n      jump\t// out\n        /* \"#utility.yul\":696:835   */\n    tag_22:\n        /* \"#utility.yul\":742:747   */\n      0x00\n        /* \"#utility.yul\":780:786   */\n      dup2\n        /* \"#utility.yul\":767:787   */\n      calldataload\n        /* \"#utility.yul\":758:787   */\n      swap1\n      pop\n        /* \"#utility.yul\":796:829   */\n      tag_40\n        /* \"#utility.yul\":823:828   */\n      dup2\n        /* \"#utility.yul\":796:829   */\n      tag_21\n      jump\t// in\n    tag_40:\n        /* \"#utility.yul\":696:835   */\n      swap3\n      swap2\n      pop\n      pop\n      jump\t// out\n        /* \"#utility.yul\":841:1170   */\n    tag_7:\n        /* \"#utility.yul\":900:906   */\n      0x00\n        /* \"#utility.yul\":949:951   */\n      0x20\n        /* \"#utility.yul\":937:946   */\n      dup3\n        /* \"#utility.yul\":928:935   */\n      dup5\n        /* \"#utility.yul\":924:947   */\n      sub\n        /* \"#utility.yul\":920:952   */\n      slt\n        /* \"#utility.yul\":917:1036   */\n      iszero\n      tag_42\n      jumpi\n        /* \"#utility.yul\":955:1034   */\n      tag_43\n      tag_17\n      jump\t// in\n    tag_43:\n        /* \"#utility.yul\":917:1036   */\n    tag_42:\n        /* \"#utility.yul\":1075:1076   */\n      0x00\n        /* \"#utility.yul\":1100:1153   */\n      tag_44\n        /* \"#utility.yul\":1145:1152   */\n      dup5\n        /* \"#utility.yul\":1136:1142   */\n      dup3\n        /* \"#utility.yul\":1125:1134   */\n      dup6\n        /* \"#utility.yul\":1121:1143   */\n      add\n        /* \"#utility.yul\":1100:1153   */\n      tag_22\n      jump\t// in\n    tag_44:\n        /* \"#utility.yul\":1090:1153   */\n      swap2\n      pop\n        /* \"#utility.yul\":1046:1163   */\n      pop\n        /* \"#utility.yul\":841:1170   */\n      swap3\n      swap2\n      pop\n      pop\n      jump\t// out\n        /* \"#utility.yul\":1176:1266   */\n    tag_23:\n        /* \"#utility.yul\":1210:1217   */\n      0x00\n        /* \"#utility.yul\":1253:1258   */\n      dup2\n        /* \"#utility.yul\":1246:1259   */\n      iszero\n        /* \"#utility.yul\":1239:1260   */\n      iszero\n        /* \"#utility.yul\":1228:1260   */\n      swap1\n      pop\n        /* \"#utility.yul\":1176:1266   */\n      swap2\n      swap1\n      pop\n      jump\t// out\n        /* \"#utility.yul\":1272:1381   */\n    tag_24:\n        /* \"#utility.yul\":1353:1374   */\n      tag_47\n        /* \"#utility.yul\":1368:1373   */\n      dup2\n        /* \"#utility.yul\":1353:1374   */\n      tag_23\n      jump\t// in\n    tag_47:\n        /* \"#utility.yul\":1348:1351   */\n      dup3\n        /* \"#utility.yul\":1341:1375   */\n      mstore\n        /* \"#utility.yul\":1272:1381   */\n      pop\n      pop\n      jump\t// out\n        /* \"#utility.yul\":1387:1597   */\n    tag_10:\n        /* \"#utility.yul\":1474:1478   */\n      0x00\n        /* \"#utility.yul\":1512:1514   */\n      0x20\n        /* \"#utility.yul\":1501:1510   */\n      dup3\n        /* \"#utility.yul\":1497:1515   */\n      add\n        /* \"#utility.yul\":1489:1515   */\n      swap1\n      pop\n        /* \"#utility.yul\":1525:1590   */\n      tag_49\n        /* \"#utility.yul\":1587:1588   */\n      0x00\n        /* \"#utility.yul\":1576:1585   */\n      dup4\n        /* \"#utility.yul\":1572:1589   */\n      add\n        /* \"#utility.yul\":1563:1569   */\n      dup5\n        /* \"#utility.yul\":1525:1590   */\n      tag_24\n      jump\t// in\n    tag_49:\n        /* \"#utility.yul\":1387:1597   */\n      swap3\n      swap2\n      pop\n      pop\n      jump\t// out\n        /* \"#utility.yul\":1603:1720   */\n    tag_25:\n        /* \"#utility.yul\":1712:1713   */\n      0x00\n        /* \"#utility.yul\":1709:1710   */\n      dup1\n        /* \"#utility.yul\":1702:1714   */\n      revert\n        /* \"#utility.yul\":1726:1843   */\n    tag_26:\n        /* \"#utility.yul\":1835:1836   */\n      0x00\n        /* \"#utility.yul\":1832:1833   */\n      dup1\n        /* \"#utility.yul\":1825:1837   */\n      revert\n        /* \"#utility.yul\":1849:1966   */\n    tag_27:\n        /* \"#utility.yul\":1958:1959   */\n      0x00\n        /* \"#utility.yul\":1955:1956   */\n      dup1\n        /* \"#utility.yul\":1948:1960   */\n      revert\n        /* \"#utility.yul\":1985:2537   */\n    tag_28:\n        /* \"#utility.yul\":2042:2050   */\n      0x00\n        /* \"#utility.yul\":2052:2058   */\n      dup1\n        /* \"#utility.yul\":2102:2105   */\n      dup4\n        /* \"#utility.yul\":2095:2099   */\n      0x1f\n        /* \"#utility.yul\":2087:2093   */\n      dup5\n        /* \"#utility.yul\":2083:2100   */\n      add\n        /* \"#utility.yul\":2079:2106   */\n      slt\n        /* \"#utility.yul\":2069:2191   */\n      tag_54\n      jumpi\n        /* \"#utility.yul\":2110:2189   */\n      tag_55\n      tag_25\n      jump\t// in\n    tag_55:\n        /* \"#utility.yul\":2069:2191   */\n    tag_54:\n        /* \"#utility.yul\":2223:2229   */\n      dup3\n        /* \"#utility.yul\":2210:2230   */\n      calldataload\n        /* \"#utility.yul\":2200:2230   */\n      swap1\n      pop\n        /* \"#utility.yul\":2253:2271   */\n      0xffffffffffffffff\n        /* \"#utility.yul\":2245:2251   */\n      dup2\n        /* \"#utility.yul\":2242:2272   */\n      gt\n        /* \"#utility.yul\":2239:2356   */\n      iszero\n      tag_56\n      jumpi\n        /* \"#utility.yul\":2275:2354   */\n      tag_57\n      tag_26\n      jump\t// in\n    tag_57:\n        /* \"#utility.yul\":2239:2356   */\n    tag_56:\n        /* \"#utility.yul\":2389:2393   */\n      0x20\n        /* \"#utility.yul\":2381:2387   */\n      dup4\n        /* \"#utility.yul\":2377:2394   */\n      add\n        /* \"#utility.yul\":2365:2394   */\n      swap2\n      pop\n        /* \"#utility.yul\":2443:2446   */\n      dup4\n        /* \"#utility.yul\":2435:2439   */\n      0x01\n        /* \"#utility.yul\":2427:2433   */\n      dup3\n        /* \"#utility.yul\":2423:2440   */\n      mul\n        /* \"#utility.yul\":2413:2421   */\n      dup4\n        /* \"#utility.yul\":2409:2441   */\n      add\n        /* \"#utility.yul\":2406:2447   */\n      gt\n        /* \"#utility.yul\":2403:2531   */\n      iszero\n      tag_58\n      jumpi\n        /* \"#utility.yul\":2450:2529   */\n      tag_59\n      tag_27\n      jump\t// in\n    tag_59:\n        /* \"#utility.yul\":2403:2531   */\n    tag_58:\n        /* \"#utility.yul\":1985:2537   */\n      swap3\n      pop\n      swap3\n      swap1\n      pop\n      jump\t// out\n        /* \"#utility.yul\":2543:3215   */\n    tag_13:\n        /* \"#utility.yul\":2622:2628   */\n      0x00\n        /* \"#utility.yul\":2630:2636   */\n      dup1\n        /* \"#utility.yul\":2638:2644   */\n      0x00\n        /* \"#utility.yul\":2687:2689   */\n      0x40\n        /* \"#utility.yul\":2675:2684   */\n      dup5\n        /* \"#utility.yul\":2666:2673   */\n      dup7\n        /* \"#utility.yul\":2662:2685   */\n      sub\n        /* \"#utility.yul\":2658:2690   */\n      slt\n        /* \"#utility.yul\":2655:2774   */\n      iszero\n      tag_61\n      jumpi\n        /* \"#utility.yul\":2693:2772   */\n      tag_62\n      tag_17\n      jump\t// in\n    tag_62:\n        /* \"#utility.yul\":2655:2774   */\n    tag_61:\n        /* \"#utility.yul\":2813:2814   */\n      0x00\n        /* \"#utility.yul\":2838:2891   */\n      tag_63\n        /* \"#utility.yul\":2883:2890   */\n      dup7\n        /* \"#utility.yul\":2874:2880   */\n      dup3\n        /* \"#utility.yul\":2863:2872   */\n      dup8\n        /* \"#utility.yul\":2859:2881   */\n      add\n        /* \"#utility.yul\":2838:2891   */\n      tag_22\n      jump\t// in\n    tag_63:\n        /* \"#utility.yul\":2828:2891   */\n      swap4\n      pop\n        /* \"#utility.yul\":2784:2901   */\n      pop\n        /* \"#utility.yul\":2968:2970   */\n      0x20\n        /* \"#utility.yul\":2957:2966   */\n      dup5\n        /* \"#utility.yul\":2953:2971   */\n      add\n        /* \"#utility.yul\":2940:2972   */\n      calldataload\n        /* \"#utility.yul\":2999:3017   */\n      0xffffffffffffffff\n        /* \"#utility.yul\":2991:2997   */\n      dup2\n        /* \"#utility.yul\":2988:3018   */\n      gt\n        /* \"#utility.yul\":2985:3102   */\n      iszero\n      tag_64\n      jumpi\n        /* \"#utility.yul\":3021:3100   */\n      tag_65\n      tag_18\n      jump\t// in\n    tag_65:\n        /* \"#utility.yul\":2985:3102   */\n    tag_64:\n        /* \"#utility.yul\":3134:3198   */\n      tag_66\n        /* \"#utility.yul\":3190:3197   */\n      dup7\n        /* \"#utility.yul\":3181:3187   */\n      dup3\n        /* \"#utility.yul\":3170:3179   */\n      dup8\n        /* \"#utility.yul\":3166:3188   */\n      add\n        /* \"#utility.yul\":3134:3198   */\n      tag_28\n      jump\t// in\n    tag_66:\n        /* \"#utility.yul\":3116:3198   */\n      swap3\n      pop\n      swap3\n      pop\n        /* \"#utility.yul\":2911:3208   */\n      pop\n        /* \"#utility.yul\":2543:3215   */\n      swap3\n      pop\n      swap3\n      pop\n      swap3\n      jump\t// out\n\n    auxdata: 0xa2646970667358221220099c59ee6152a6425e6ec1ad1f688d3fa7203dfb8ac20f65c6d9257be373a6bd64736f6c634300081a0033\n}\n",
				"bytecode": {
					"linkReferences": {},
					"object": "6080604052348015600e575f80fd5b506102ad8061001c5f395ff3fe608060405234801561000f575f80fd5b5060043610610034575f3560e01c80636bb8b518146100385780638aa5dfd014610068575b5f80fd5b610052600480360381019061004d919061015b565b610084565b60405161005f91906101a0565b60405180910390f35b610082600480360381019061007d919061021a565b6100a0565b005b5f602052805f5260405f205f915054906101000a900460ff1681565b60015f803373ffffffffffffffffffffffffffffffffffffffff1673ffffffffffffffffffffffffffffffffffffffff1681526020019081526020015f205f6101000a81548160ff021916908315150217905550505050565b5f80fd5b5f80fd5b5f73ffffffffffffffffffffffffffffffffffffffff82169050919050565b5f61012a82610101565b9050919050565b61013a81610120565b8114610144575f80fd5b50565b5f8135905061015581610131565b92915050565b5f602082840312156101705761016f6100f9565b5b5f61017d84828501610147565b91505092915050565b5f8115159050919050565b61019a81610186565b82525050565b5f6020820190506101b35f830184610191565b92915050565b5f80fd5b5f80fd5b5f80fd5b5f8083601f8401126101da576101d96101b9565b5b8235905067ffffffffffffffff8111156101f7576101f66101bd565b5b602083019150836001820283011115610213576102126101c1565b5b9250929050565b5f805f60408486031215610231576102306100f9565b5b5f61023e86828701610147565b935050602084013567ffffffffffffffff81111561025f5761025e6100fd565b5b61026b868287016101c5565b9250925050925092509256fea2646970667358221220099c59ee6152a6425e6ec1ad1f688d3fa7203dfb8ac20f65c6d9257be373a6bd64736f6c634300081a0033",
					"opcodes": "PUSH1 0x80 PUSH1 0x40 MSTORE CALLVALUE DUP1 ISZERO PUSH1 0xE JUMPI PUSH0 DUP1 REVERT JUMPDEST POP PUSH2 0x2AD DUP1 PUSH2 0x1C PUSH0 CODECOPY PUSH0 RETURN INVALID PUSH1 0x80 PUSH1 0x40 MSTORE CALLVALUE DUP1 ISZERO PUSH2 0xF JUMPI PUSH0 DUP1 REVERT JUMPDEST POP PUSH1 0x4 CALLDATASIZE LT PUSH2 0x34 JUMPI PUSH0 CALLDATALOAD PUSH1 0xE0 SHR DUP1 PUSH4 0x6BB8B518 EQ PUSH2 0x38 JUMPI DUP1 PUSH4 0x8AA5DFD0 EQ PUSH2 0x68 JUMPI JUMPDEST PUSH0 DUP1 REVERT JUMPDEST PUSH2 0x52 PUSH1 0x4 DUP1 CALLDATASIZE SUB DUP2 ADD SWAP1 PUSH2 0x4D SWAP2 SWAP1 PUSH2 0x15B JUMP JUMPDEST PUSH2 0x84 JUMP JUMPDEST PUSH1 0x40 MLOAD PUSH2 0x5F SWAP2 SWAP1 PUSH2 0x1A0 JUMP JUMPDEST PUSH1 0x40 MLOAD DUP1 SWAP2 SUB SWAP1 RETURN JUMPDEST PUSH2 0x82 PUSH1 0x4 DUP1 CALLDATASIZE SUB DUP2 ADD SWAP1 PUSH2 0x7D SWAP2 SWAP1 PUSH2 0x21A JUMP JUMPDEST PUSH2 0xA0 JUMP JUMPDEST STOP JUMPDEST PUSH0 PUSH1 0x20 MSTORE DUP1 PUSH0 MSTORE PUSH1 0x40 PUSH0 KECCAK256 PUSH0 SWAP2 POP SLOAD SWAP1 PUSH2 0x100 EXP SWAP1 DIV PUSH1 0xFF AND DUP2 JUMP JUMPDEST PUSH1 0x1 PUSH0 DUP1 CALLER PUSH20 0xFFFFFFFFFFFFFFFFFFFFFFFFFFFFFFFFFFFFFFFF AND PUSH20 0xFFFFFFFFFFFFFFFFFFFFFFFFFFFFFFFFFFFFFFFF AND DUP2 MSTORE PUSH1 0x20 ADD SWAP1 DUP2 MSTORE PUSH1 0x20 ADD PUSH0 KECCAK256 PUSH0 PUSH2 0x100 EXP DUP2 SLOAD DUP2 PUSH1 0xFF MUL NOT AND SWAP1 DUP4 ISZERO ISZERO MUL OR SWAP1 SSTORE POP POP POP POP JUMP JUMPDEST PUSH0 DUP1 REVERT JUMPDEST PUSH0 DUP1 REVERT JUMPDEST PUSH0 PUSH20 0xFFFFFFFFFFFFFFFFFFFFFFFFFFFFFFFFFFFFFFFF DUP3 AND SWAP1 POP SWAP2 SWAP1 POP JUMP JUMPDEST PUSH0 PUSH2 0x12A DUP3 PUSH2 0x101 JUMP JUMPDEST SWAP1 POP SWAP2 SWAP1 POP JUMP JUMPDEST PUSH2 0x13A DUP2 PUSH2 0x120 JUMP JUMPDEST DUP2 EQ PUSH2 0x144 JUMPI PUSH0 DUP1 REVERT JUMPDEST POP JUMP JUMPDEST PUSH0 DUP2 CALLDATALOAD SWAP1 POP PUSH2 0x155 DUP2 PUSH2 0x131 JUMP JUMPDEST SWAP3 SWAP2 POP POP JUMP JUMPDEST PUSH0 PUSH1 0x20 DUP3 DUP5 SUB SLT ISZERO PUSH2 0x170 JUMPI PUSH2 0x16F PUSH2 0xF9 JUMP JUMPDEST JUMPDEST PUSH0 PUSH2 0x17D DUP5 DUP3 DUP6 ADD PUSH2 0x147 JUMP JUMPDEST SWAP2 POP POP SWAP3 SWAP2 POP POP JUMP JUMPDEST PUSH0 DUP2 ISZERO ISZERO SWAP1 POP SWAP2 SWAP1 POP JUMP JUMPDEST PUSH2 0x19A DUP2 PUSH2 0x186 JUMP JUMPDEST DUP3 MSTORE POP POP JUMP JUMPDEST PUSH0 PUSH1 0x20 DUP3 ADD SWAP1 POP PUSH2 0x1B3 PUSH0 DUP4 ADD DUP5 PUSH2 0x191 JUMP JUMPDEST SWAP3 SWAP2 POP POP JUMP JUMPDEST PUSH0 DUP1 REVERT JUMPDEST PUSH0 DUP1 REVERT JUMPDEST PUSH0 DUP1 REVERT JUMPDEST PUSH0 DUP1 DUP4 PUSH1 0x1F DUP5 ADD SLT PUSH2 0x1DA JUMPI PUSH2 0x1D9 PUSH2 0x1B9 JUMP JUMPDEST JUMPDEST DUP3 CALLDATALOAD SWAP1 POP PUSH8 0xFFFFFFFFFFFFFFFF DUP2 GT ISZERO PUSH2 0x1F7 JUMPI PUSH2 0x1F6 PUSH2 0x1BD JUMP JUMPDEST JUMPDEST PUSH1 0x20 DUP4 ADD SWAP2 POP DUP4 PUSH1 0x1 DUP3 MUL DUP4 ADD GT ISZERO PUSH2 0x213 JUMPI PUSH2 0x212 PUSH2 0x1C1 JUMP JUMPDEST JUMPDEST SWAP3 POP SWAP3 SWAP1 POP JUMP JUMPDEST PUSH0 DUP1 PUSH0 PUSH1 0x40 DUP5 DUP7 SUB SLT ISZERO PUSH2 0x231 JUMPI PUSH2 0x230 PUSH2 0xF9 JUMP JUMPDEST JUMPDEST PUSH0 PUSH2 0x23E DUP7 DUP3 DUP8 ADD PUSH2 0x147 JUMP JUMPDEST SWAP4 POP POP PUSH1 0x20 DUP5 ADD CALLDATALOAD PUSH8 0xFFFFFFFFFFFFFFFF DUP2 GT ISZERO PUSH2 0x25F JUMPI PUSH2 0x25E PUSH2 0xFD JUMP JUMPDEST JUMPDEST PUSH2 0x26B DUP7 DUP3 DUP8 ADD PUSH2 0x1C5 JUMP JUMPDEST SWAP3 POP SWAP3 POP POP SWAP3 POP SWAP3 POP SWAP3 JUMP INVALID LOG2 PUSH5 0x6970667358 0x22 SLT KECCAK256 MULMOD SWAP13 MSIZE 0xEE PUSH2 0x52A6 TIMESTAMP MCOPY PUSH15 0xC1AD1F688D3FA7203DFB8AC20F65C6 0xD9 0x25 PUSH28 0xE373A6BD64736F6C634300081A003300000000000000000000000000 "
				},
				"gasEstimates": {
					"creation": {
						"codeDepositCost": "137000",
						"executionCost": "181",
						"totalCost": "137181"
					},
					"external": {
						"reneg(address)": "2810",
						"renegotiate(address,bytes)": "25038"
					}
				},
				"methodIdentifiers": {
					"reneg(address)": "6bb8b518",
					"renegotiate(address,bytes)": "8aa5dfd0"
				}
			},
			"storageLayout": {
				"storage": [
					{
						"astId": 351,
						"contract": "T/Transport Layer Security (TLS)/Transport Layer Security (TLS).sol:TLSVulnRenegotiation",
						"label": "reneg",
						"offset": 0,
						"slot": "0",
						"type": "t_mapping(t_address,t_bool)"
					}
				],
				"types": {
					"t_address": {
						"encoding": "inplace",
						"label": "address",
						"numberOfBytes": "20"
					},
					"t_bool": {
						"encoding": "inplace",
						"label": "bool",
						"numberOfBytes": "1"
					},
					"t_mapping(t_address,t_bool)": {
						"encoding": "mapping",
						"key": "t_address",
						"label": "mapping(address => bool)",
						"numberOfBytes": "32",
						"value": "t_bool"
					}
				}
			},
			"userdoc": {
				"kind": "user",
				"methods": {},
				"version": 1
			}
		}
	}
}