{
	"data": {
		"bytecode": {
			"linkReferences": {},
			"object": "6080604052348015600e575f80fd5b5060015f803373ffffffffffffffffffffffffffffffffffffffff1673ffffffffffffffffffffffffffffffffffffffff1681526020019081526020015f205f6101000a81548160ff021916908315150217905550610b4e806100705f395ff3fe608060405234801561000f575f80fd5b5060043610610055575f3560e01c80630f56d07f14610059578063427fd0ff146100755780635893253c14610091578063a00fd3c8146100c1578063f82f40a1146100dd575b5f80fd5b610073600480360381019061006e9190610434565b61010d565b005b61008f600480360381019061008a91906104c8565b6101ec565b005b6100ab60048036038101906100a69190610506565b6102c0565b6040516100b891906105a1565b60405180910390f35b6100db60048036038101906100d69190610622565b61035b565b005b6100f760048036038101906100f2919061067f565b610381565b60405161010491906106b9565b60405180910390f35b5f803373ffffffffffffffffffffffffffffffffffffffff1673ffffffffffffffffffffffffffffffffffffffff1681526020019081526020015f205f9054906101000a900460ff16610195576040517f08c379a000000000000000000000000000000000000000000000000000000000815260040161018c9061071c565b60405180910390fd5b805f808473ffffffffffffffffffffffffffffffffffffffff1673ffffffffffffffffffffffffffffffffffffffff1681526020019081526020015f205f6101000a81548160ff0219169083151502179055505050565b5f803373ffffffffffffffffffffffffffffffffffffffff1673ffffffffffffffffffffffffffffffffffffffff1681526020019081526020015f205f9054906101000a900460ff1661026b576040517f5613d1e100000000000000000000000000000000000000000000000000000000815260040160405180910390fd5b813373ffffffffffffffffffffffffffffffffffffffff167fc8f500f10afe08fc8a13eb6a7ef75635855c7a292a65475bc130f044de3f4a6f835f6040516102b49291906107f3565b60405180910390a35050565b6001602052805f5260405f205f9150905080546102dc90610847565b80601f016020809104026020016040519081016040528092919081815260200182805461030890610847565b80156103535780601f1061032a57610100808354040283529160200191610353565b820191905f5260205f20905b81548152906001019060200180831161033657829003601f168201915b505050505081565b818160015f8681526020019081526020015f20918261037b929190610a4b565b50505050565b5f602052805f5260405f205f915054906101000a900460ff1681565b5f80fd5b5f80fd5b5f73ffffffffffffffffffffffffffffffffffffffff82169050919050565b5f6103ce826103a5565b9050919050565b6103de816103c4565b81146103e8575f80fd5b50565b5f813590506103f9816103d5565b92915050565b5f8115159050919050565b610413816103ff565b811461041d575f80fd5b50565b5f8135905061042e8161040a565b92915050565b5f806040838503121561044a5761044961039d565b5b5f610457858286016103eb565b925050602061046885828601610420565b9150509250929050565b5f819050919050565b61048481610472565b811461048e575f80fd5b50565b5f8135905061049f8161047b565b92915050565b600481106104b1575f80fd5b50565b5f813590506104c2816104a5565b92915050565b5f80604083850312156104de576104dd61039d565b5b5f6104eb85828601610491565b92505060206104fc858286016104b4565b9150509250929050565b5f6020828403121561051b5761051a61039d565b5b5f61052884828501610491565b91505092915050565b5f81519050919050565b5f82825260208201905092915050565b8281835e5f83830152505050565b5f601f19601f8301169050919050565b5f61057382610531565b61057d818561053b565b935061058d81856020860161054b565b61059681610559565b840191505092915050565b5f6020820190508181035f8301526105b98184610569565b905092915050565b5f80fd5b5f80fd5b5f80fd5b5f8083601f8401126105e2576105e16105c1565b5b8235905067ffffffffffffffff8111156105ff576105fe6105c5565b5b60208301915083600182028301111561061b5761061a6105c9565b5b9250929050565b5f805f604084860312156106395761063861039d565b5b5f61064686828701610491565b935050602084013567ffffffffffffffff811115610667576106666103a1565b5b610673868287016105cd565b92509250509250925092565b5f602082840312156106945761069361039d565b5b5f6106a1848285016103eb565b91505092915050565b6106b3816103ff565b82525050565b5f6020820190506106cc5f8301846106aa565b92915050565b7f6f6e6c792061646d696e000000000000000000000000000000000000000000005f82015250565b5f610706600a8361053b565b9150610711826106d2565b602082019050919050565b5f6020820190508181035f830152610733816106fa565b9050919050565b7f4e487b71000000000000000000000000000000000000000000000000000000005f52602160045260245ffd5b600481106107785761077761073a565b5b50565b5f81905061078882610767565b919050565b5f6107978261077b565b9050919050565b6107a78161078d565b82525050565b600481106107be576107bd61073a565b5b50565b5f8190506107ce826107ad565b919050565b5f6107dd826107c1565b9050919050565b6107ed816107d3565b82525050565b5f6040820190506108065f83018561079e565b61081360208301846107e4565b9392505050565b7f4e487b71000000000000000000000000000000000000000000000000000000005f52602260045260245ffd5b5f600282049050600182168061085e57607f821691505b6020821081036108715761087061081a565b5b50919050565b5f82905092915050565b7f4e487b71000000000000000000000000000000000000000000000000000000005f52604160045260245ffd5b5f819050815f5260205f209050919050565b5f6020601f8301049050919050565b5f82821b905092915050565b5f6008830261090a7fffffffffffffffffffffffffffffffffffffffffffffffffffffffffffffffff826108cf565b61091486836108cf565b95508019841693508086168417925050509392505050565b5f819050919050565b5f61094f61094a61094584610472565b61092c565b610472565b9050919050565b5f819050919050565b61096883610935565b61097c61097482610956565b8484546108db565b825550505050565b5f90565b610990610984565b61099b81848461095f565b505050565b5b818110156109be576109b35f82610988565b6001810190506109a1565b5050565b601f821115610a03576109d4816108ae565b6109dd846108c0565b810160208510156109ec578190505b610a006109f8856108c0565b8301826109a0565b50505b505050565b5f82821c905092915050565b5f610a235f1984600802610a08565b1980831691505092915050565b5f610a3b8383610a14565b9150826002028217905092915050565b610a558383610877565b67ffffffffffffffff811115610a6e57610a6d610881565b5b610a788254610847565b610a838282856109c2565b5f601f831160018114610ab0575f8415610a9e578287013590505b610aa88582610a30565b865550610b0f565b601f198416610abe866108ae565b5f5b82811015610ae557848901358255600182019150602085019450602081019050610ac0565b86831015610b025784890135610afe601f891682610a14565b8355505b6001600288020188555050505b5050505050505056fea264697066735822122010329fffdd5b82d288933ce921da286b02f676f72bdd7214ddf5b28a6a8c85a164736f6c634300081a0033",
			"opcodes": "PUSH1 0x80 PUSH1 0x40 MSTORE CALLVALUE DUP1 ISZERO PUSH1 0xE JUMPI PUSH0 DUP1 REVERT JUMPDEST POP PUSH1 0x1 PUSH0 DUP1 CALLER PUSH20 0xFFFFFFFFFFFFFFFFFFFFFFFFFFFFFFFFFFFFFFFF AND PUSH20 0xFFFFFFFFFFFFFFFFFFFFFFFFFFFFFFFFFFFFFFFF AND DUP2 MSTORE PUSH1 0x20 ADD SWAP1 DUP2 MSTORE PUSH1 0x20 ADD PUSH0 KECCAK256 PUSH0 PUSH2 0x100 EXP DUP2 SLOAD DUP2 PUSH1 0xFF MUL NOT AND SWAP1 DUP4 ISZERO ISZERO MUL OR SWAP1 SSTORE POP PUSH2 0xB4E DUP1 PUSH2 0x70 PUSH0 CODECOPY PUSH0 RETURN INVALID PUSH1 0x80 PUSH1 0x40 MSTORE CALLVALUE DUP1 ISZERO PUSH2 0xF JUMPI PUSH0 DUP1 REVERT JUMPDEST POP PUSH1 0x4 CALLDATASIZE LT PUSH2 0x55 JUMPI PUSH0 CALLDATALOAD PUSH1 0xE0 SHR DUP1 PUSH4 0xF56D07F EQ PUSH2 0x59 JUMPI DUP1 PUSH4 0x427FD0FF EQ PUSH2 0x75 JUMPI DUP1 PUSH4 0x5893253C EQ PUSH2 0x91 JUMPI DUP1 PUSH4 0xA00FD3C8 EQ PUSH2 0xC1 JUMPI DUP1 PUSH4 0xF82F40A1 EQ PUSH2 0xDD JUMPI JUMPDEST PUSH0 DUP1 REVERT JUMPDEST PUSH2 0x73 PUSH1 0x4 DUP1 CALLDATASIZE SUB DUP2 ADD SWAP1 PUSH2 0x6E SWAP2 SWAP1 PUSH2 0x434 JUMP JUMPDEST PUSH2 0x10D JUMP JUMPDEST STOP JUMPDEST PUSH2 0x8F PUSH1 0x4 DUP1 CALLDATASIZE SUB DUP2 ADD SWAP1 PUSH2 0x8A SWAP2 SWAP1 PUSH2 0x4C8 JUMP JUMPDEST PUSH2 0x1EC JUMP JUMPDEST STOP JUMPDEST PUSH2 0xAB PUSH1 0x4 DUP1 CALLDATASIZE SUB DUP2 ADD SWAP1 PUSH2 0xA6 SWAP2 SWAP1 PUSH2 0x506 JUMP JUMPDEST PUSH2 0x2C0 JUMP JUMPDEST PUSH1 0x40 MLOAD PUSH2 0xB8 SWAP2 SWAP1 PUSH2 0x5A1 JUMP JUMPDEST PUSH1 0x40 MLOAD DUP1 SWAP2 SUB SWAP1 RETURN JUMPDEST PUSH2 0xDB PUSH1 0x4 DUP1 CALLDATASIZE SUB DUP2 ADD SWAP1 PUSH2 0xD6 SWAP2 SWAP1 PUSH2 0x622 JUMP JUMPDEST PUSH2 0x35B JUMP JUMPDEST STOP JUMPDEST PUSH2 0xF7 PUSH1 0x4 DUP1 CALLDATASIZE SUB DUP2 ADD SWAP1 PUSH2 0xF2 SWAP2 SWAP1 PUSH2 0x67F JUMP JUMPDEST PUSH2 0x381 JUMP JUMPDEST PUSH1 0x40 MLOAD PUSH2 0x104 SWAP2 SWAP1 PUSH2 0x6B9 JUMP JUMPDEST PUSH1 0x40 MLOAD DUP1 SWAP2 SUB SWAP1 RETURN JUMPDEST PUSH0 DUP1 CALLER PUSH20 0xFFFFFFFFFFFFFFFFFFFFFFFFFFFFFFFFFFFFFFFF AND PUSH20 0xFFFFFFFFFFFFFFFFFFFFFFFFFFFFFFFFFFFFFFFF AND DUP2 MSTORE PUSH1 0x20 ADD SWAP1 DUP2 MSTORE PUSH1 0x20 ADD PUSH0 KECCAK256 PUSH0 SWAP1 SLOAD SWAP1 PUSH2 0x100 EXP SWAP1 DIV PUSH1 0xFF AND PUSH2 0x195 JUMPI PUSH1 0x40 MLOAD PUSH32 0x8C379A000000000000000000000000000000000000000000000000000000000 DUP2 MSTORE PUSH1 0x4 ADD PUSH2 0x18C SWAP1 PUSH2 0x71C JUMP JUMPDEST PUSH1 0x40 MLOAD DUP1 SWAP2 SUB SWAP1 REVERT JUMPDEST DUP1 PUSH0 DUP1 DUP5 PUSH20 0xFFFFFFFFFFFFFFFFFFFFFFFFFFFFFFFFFFFFFFFF AND PUSH20 0xFFFFFFFFFFFFFFFFFFFFFFFFFFFFFFFFFFFFFFFF AND DUP2 MSTORE PUSH1 0x20 ADD SWAP1 DUP2 MSTORE PUSH1 0x20 ADD PUSH0 KECCAK256 PUSH0 PUSH2 0x100 EXP DUP2 SLOAD DUP2 PUSH1 0xFF MUL NOT AND SWAP1 DUP4 ISZERO ISZERO MUL OR SWAP1 SSTORE POP POP POP JUMP JUMPDEST PUSH0 DUP1 CALLER PUSH20 0xFFFFFFFFFFFFFFFFFFFFFFFFFFFFFFFFFFFFFFFF AND PUSH20 0xFFFFFFFFFFFFFFFFFFFFFFFFFFFFFFFFFFFFFFFF AND DUP2 MSTORE PUSH1 0x20 ADD SWAP1 DUP2 MSTORE PUSH1 0x20 ADD PUSH0 KECCAK256 PUSH0 SWAP1 SLOAD SWAP1 PUSH2 0x100 EXP SWAP1 DIV PUSH1 0xFF AND PUSH2 0x26B JUMPI PUSH1 0x40 MLOAD PUSH32 0x5613D1E100000000000000000000000000000000000000000000000000000000 DUP2 MSTORE PUSH1 0x4 ADD PUSH1 0x40 MLOAD DUP1 SWAP2 SUB SWAP1 REVERT JUMPDEST DUP2 CALLER PUSH20 0xFFFFFFFFFFFFFFFFFFFFFFFFFFFFFFFFFFFFFFFF AND PUSH32 0xC8F500F10AFE08FC8A13EB6A7EF75635855C7A292A65475BC130F044DE3F4A6F DUP4 PUSH0 PUSH1 0x40 MLOAD PUSH2 0x2B4 SWAP3 SWAP2 SWAP1 PUSH2 0x7F3 JUMP JUMPDEST PUSH1 0x40 MLOAD DUP1 SWAP2 SUB SWAP1 LOG3 POP POP JUMP JUMPDEST PUSH1 0x1 PUSH1 0x20 MSTORE DUP1 PUSH0 MSTORE PUSH1 0x40 PUSH0 KECCAK256 PUSH0 SWAP2 POP SWAP1 POP DUP1 SLOAD PUSH2 0x2DC SWAP1 PUSH2 0x847 JUMP JUMPDEST DUP1 PUSH1 0x1F ADD PUSH1 0x20 DUP1 SWAP2 DIV MUL PUSH1 0x20 ADD PUSH1 0x40 MLOAD SWAP1 DUP2 ADD PUSH1 0x40 MSTORE DUP1 SWAP3 SWAP2 SWAP1 DUP2 DUP2 MSTORE PUSH1 0x20 ADD DUP3 DUP1 SLOAD PUSH2 0x308 SWAP1 PUSH2 0x847 JUMP JUMPDEST DUP1 ISZERO PUSH2 0x353 JUMPI DUP1 PUSH1 0x1F LT PUSH2 0x32A JUMPI PUSH2 0x100 DUP1 DUP4 SLOAD DIV MUL DUP4 MSTORE SWAP2 PUSH1 0x20 ADD SWAP2 PUSH2 0x353 JUMP JUMPDEST DUP3 ADD SWAP2 SWAP1 PUSH0 MSTORE PUSH1 0x20 PUSH0 KECCAK256 SWAP1 JUMPDEST DUP2 SLOAD DUP2 MSTORE SWAP1 PUSH1 0x1 ADD SWAP1 PUSH1 0x20 ADD DUP1 DUP4 GT PUSH2 0x336 JUMPI DUP3 SWAP1 SUB PUSH1 0x1F AND DUP3 ADD SWAP2 JUMPDEST POP POP POP POP POP DUP2 JUMP JUMPDEST DUP2 DUP2 PUSH1 0x1 PUSH0 DUP7 DUP2 MSTORE PUSH1 0x20 ADD SWAP1 DUP2 MSTORE PUSH1 0x20 ADD PUSH0 KECCAK256 SWAP2 DUP3 PUSH2 0x37B SWAP3 SWAP2 SWAP1 PUSH2 0xA4B JUMP JUMPDEST POP POP POP POP JUMP JUMPDEST PUSH0 PUSH1 0x20 MSTORE DUP1 PUSH0 MSTORE PUSH1 0x40 PUSH0 KECCAK256 PUSH0 SWAP2 POP SLOAD SWAP1 PUSH2 0x100 EXP SWAP1 DIV PUSH1 0xFF AND DUP2 JUMP JUMPDEST PUSH0 DUP1 REVERT JUMPDEST PUSH0 DUP1 REVERT JUMPDEST PUSH0 PUSH20 0xFFFFFFFFFFFFFFFFFFFFFFFFFFFFFFFFFFFFFFFF DUP3 AND SWAP1 POP SWAP2 SWAP1 POP JUMP JUMPDEST PUSH0 PUSH2 0x3CE DUP3 PUSH2 0x3A5 JUMP JUMPDEST SWAP1 POP SWAP2 SWAP1 POP JUMP JUMPDEST PUSH2 0x3DE DUP2 PUSH2 0x3C4 JUMP JUMPDEST DUP2 EQ PUSH2 0x3E8 JUMPI PUSH0 DUP1 REVERT JUMPDEST POP JUMP JUMPDEST PUSH0 DUP2 CALLDATALOAD SWAP1 POP PUSH2 0x3F9 DUP2 PUSH2 0x3D5 JUMP JUMPDEST SWAP3 SWAP2 POP POP JUMP JUMPDEST PUSH0 DUP2 ISZERO ISZERO SWAP1 POP SWAP2 SWAP1 POP JUMP JUMPDEST PUSH2 0x413 DUP2 PUSH2 0x3FF JUMP JUMPDEST DUP2 EQ PUSH2 0x41D JUMPI PUSH0 DUP1 REVERT JUMPDEST POP JUMP JUMPDEST PUSH0 DUP2 CALLDATALOAD SWAP1 POP PUSH2 0x42E DUP2 PUSH2 0x40A JUMP JUMPDEST SWAP3 SWAP2 POP POP JUMP JUMPDEST PUSH0 DUP1 PUSH1 0x40 DUP4 DUP6 SUB SLT ISZERO PUSH2 0x44A JUMPI PUSH2 0x449 PUSH2 0x39D JUMP JUMPDEST JUMPDEST PUSH0 PUSH2 0x457 DUP6 DUP3 DUP7 ADD PUSH2 0x3EB JUMP JUMPDEST SWAP3 POP POP PUSH1 0x20 PUSH2 0x468 DUP6 DUP3 DUP7 ADD PUSH2 0x420 JUMP JUMPDEST SWAP2 POP POP SWAP3 POP SWAP3 SWAP1 POP JUMP JUMPDEST PUSH0 DUP2 SWAP1 POP SWAP2 SWAP1 POP JUMP JUMPDEST PUSH2 0x484 DUP2 PUSH2 0x472 JUMP JUMPDEST DUP2 EQ PUSH2 0x48E JUMPI PUSH0 DUP1 REVERT JUMPDEST POP JUMP JUMPDEST PUSH0 DUP2 CALLDATALOAD SWAP1 POP PUSH2 0x49F DUP2 PUSH2 0x47B JUMP JUMPDEST SWAP3 SWAP2 POP POP JUMP JUMPDEST PUSH1 0x4 DUP2 LT PUSH2 0x4B1 JUMPI PUSH0 DUP1 REVERT JUMPDEST POP JUMP JUMPDEST PUSH0 DUP2 CALLDATALOAD SWAP1 POP PUSH2 0x4C2 DUP2 PUSH2 0x4A5 JUMP JUMPDEST SWAP3 SWAP2 POP POP JUMP JUMPDEST PUSH0 DUP1 PUSH1 0x40 DUP4 DUP6 SUB SLT ISZERO PUSH2 0x4DE JUMPI PUSH2 0x4DD PUSH2 0x39D JUMP JUMPDEST JUMPDEST PUSH0 PUSH2 0x4EB DUP6 DUP3 DUP7 ADD PUSH2 0x491 JUMP JUMPDEST SWAP3 POP POP PUSH1 0x20 PUSH2 0x4FC DUP6 DUP3 DUP7 ADD PUSH2 0x4B4 JUMP JUMPDEST SWAP2 POP POP SWAP3 POP SWAP3 SWAP1 POP JUMP JUMPDEST PUSH0 PUSH1 0x20 DUP3 DUP5 SUB SLT ISZERO PUSH2 0x51B JUMPI PUSH2 0x51A PUSH2 0x39D JUMP JUMPDEST JUMPDEST PUSH0 PUSH2 0x528 DUP5 DUP3 DUP6 ADD PUSH2 0x491 JUMP JUMPDEST SWAP2 POP POP SWAP3 SWAP2 POP POP JUMP JUMPDEST PUSH0 DUP2 MLOAD SWAP1 POP SWAP2 SWAP1 POP JUMP JUMPDEST PUSH0 DUP3 DUP3 MSTORE PUSH1 0x20 DUP3 ADD SWAP1 POP SWAP3 SWAP2 POP POP JUMP JUMPDEST DUP3 DUP2 DUP4 MCOPY PUSH0 DUP4 DUP4 ADD MSTORE POP POP POP JUMP JUMPDEST PUSH0 PUSH1 0x1F NOT PUSH1 0x1F DUP4 ADD AND SWAP1 POP SWAP2 SWAP1 POP JUMP JUMPDEST PUSH0 PUSH2 0x573 DUP3 PUSH2 0x531 JUMP JUMPDEST PUSH2 0x57D DUP2 DUP6 PUSH2 0x53B JUMP JUMPDEST SWAP4 POP PUSH2 0x58D DUP2 DUP6 PUSH1 0x20 DUP7 ADD PUSH2 0x54B JUMP JUMPDEST PUSH2 0x596 DUP2 PUSH2 0x559 JUMP JUMPDEST DUP5 ADD SWAP2 POP POP SWAP3 SWAP2 POP POP JUMP JUMPDEST PUSH0 PUSH1 0x20 DUP3 ADD SWAP1 POP DUP2 DUP2 SUB PUSH0 DUP4 ADD MSTORE PUSH2 0x5B9 DUP2 DUP5 PUSH2 0x569 JUMP JUMPDEST SWAP1 POP SWAP3 SWAP2 POP POP JUMP JUMPDEST PUSH0 DUP1 REVERT JUMPDEST PUSH0 DUP1 REVERT JUMPDEST PUSH0 DUP1 REVERT JUMPDEST PUSH0 DUP1 DUP4 PUSH1 0x1F DUP5 ADD SLT PUSH2 0x5E2 JUMPI PUSH2 0x5E1 PUSH2 0x5C1 JUMP JUMPDEST JUMPDEST DUP3 CALLDATALOAD SWAP1 POP PUSH8 0xFFFFFFFFFFFFFFFF DUP2 GT ISZERO PUSH2 0x5FF JUMPI PUSH2 0x5FE PUSH2 0x5C5 JUMP JUMPDEST JUMPDEST PUSH1 0x20 DUP4 ADD SWAP2 POP DUP4 PUSH1 0x1 DUP3 MUL DUP4 ADD GT ISZERO PUSH2 0x61B JUMPI PUSH2 0x61A PUSH2 0x5C9 JUMP JUMPDEST JUMPDEST SWAP3 POP SWAP3 SWAP1 POP JUMP JUMPDEST PUSH0 DUP1 PUSH0 PUSH1 0x40 DUP5 DUP7 SUB SLT ISZERO PUSH2 0x639 JUMPI PUSH2 0x638 PUSH2 0x39D JUMP JUMPDEST JUMPDEST PUSH0 PUSH2 0x646 DUP7 DUP3 DUP8 ADD PUSH2 0x491 JUMP JUMPDEST SWAP4 POP POP PUSH1 0x20 DUP5 ADD CALLDATALOAD PUSH8 0xFFFFFFFFFFFFFFFF DUP2 GT ISZERO PUSH2 0x667 JUMPI PUSH2 0x666 PUSH2 0x3A1 JUMP JUMPDEST JUMPDEST PUSH2 0x673 DUP7 DUP3 DUP8 ADD PUSH2 0x5CD JUMP JUMPDEST SWAP3 POP SWAP3 POP POP SWAP3 POP SWAP3 POP SWAP3 JUMP JUMPDEST PUSH0 PUSH1 0x20 DUP3 DUP5 SUB SLT ISZERO PUSH2 0x694 JUMPI PUSH2 0x693 PUSH2 0x39D JUMP JUMPDEST JUMPDEST PUSH0 PUSH2 0x6A1 DUP5 DUP3 DUP6 ADD PUSH2 0x3EB JUMP JUMPDEST SWAP2 POP POP SWAP3 SWAP2 POP POP JUMP JUMPDEST PUSH2 0x6B3 DUP2 PUSH2 0x3FF JUMP JUMPDEST DUP3 MSTORE POP POP JUMP JUMPDEST PUSH0 PUSH1 0x20 DUP3 ADD SWAP1 POP PUSH2 0x6CC PUSH0 DUP4 ADD DUP5 PUSH2 0x6AA JUMP JUMPDEST SWAP3 SWAP2 POP POP JUMP JUMPDEST PUSH32 0x6F6E6C792061646D696E00000000000000000000000000000000000000000000 PUSH0 DUP3 ADD MSTORE POP JUMP JUMPDEST PUSH0 PUSH2 0x706 PUSH1 0xA DUP4 PUSH2 0x53B JUMP JUMPDEST SWAP2 POP PUSH2 0x711 DUP3 PUSH2 0x6D2 JUMP JUMPDEST PUSH1 0x20 DUP3 ADD SWAP1 POP SWAP2 SWAP1 POP JUMP JUMPDEST PUSH0 PUSH1 0x20 DUP3 ADD SWAP1 POP DUP2 DUP2 SUB PUSH0 DUP4 ADD MSTORE PUSH2 0x733 DUP2 PUSH2 0x6FA JUMP JUMPDEST SWAP1 POP SWAP2 SWAP1 POP JUMP JUMPDEST PUSH32 0x4E487B7100000000000000000000000000000000000000000000000000000000 PUSH0 MSTORE PUSH1 0x21 PUSH1 0x4 MSTORE PUSH1 0x24 PUSH0 REVERT JUMPDEST PUSH1 0x4 DUP2 LT PUSH2 0x778 JUMPI PUSH2 0x777 PUSH2 0x73A JUMP JUMPDEST JUMPDEST POP JUMP JUMPDEST PUSH0 DUP2 SWAP1 POP PUSH2 0x788 DUP3 PUSH2 0x767 JUMP JUMPDEST SWAP2 SWAP1 POP JUMP JUMPDEST PUSH0 PUSH2 0x797 DUP3 PUSH2 0x77B JUMP JUMPDEST SWAP1 POP SWAP2 SWAP1 POP JUMP JUMPDEST PUSH2 0x7A7 DUP2 PUSH2 0x78D JUMP JUMPDEST DUP3 MSTORE POP POP JUMP JUMPDEST PUSH1 0x4 DUP2 LT PUSH2 0x7BE JUMPI PUSH2 0x7BD PUSH2 0x73A JUMP JUMPDEST JUMPDEST POP JUMP JUMPDEST PUSH0 DUP2 SWAP1 POP PUSH2 0x7CE DUP3 PUSH2 0x7AD JUMP JUMPDEST SWAP2 SWAP1 POP JUMP JUMPDEST PUSH0 PUSH2 0x7DD DUP3 PUSH2 0x7C1 JUMP JUMPDEST SWAP1 POP SWAP2 SWAP1 POP JUMP JUMPDEST PUSH2 0x7ED DUP2 PUSH2 0x7D3 JUMP JUMPDEST DUP3 MSTORE POP POP JUMP JUMPDEST PUSH0 PUSH1 0x40 DUP3 ADD SWAP1 POP PUSH2 0x806 PUSH0 DUP4 ADD DUP6 PUSH2 0x79E JUMP JUMPDEST PUSH2 0x813 PUSH1 0x20 DUP4 ADD DUP5 PUSH2 0x7E4 JUMP JUMPDEST SWAP4 SWAP3 POP POP POP JUMP JUMPDEST PUSH32 0x4E487B7100000000000000000000000000000000000000000000000000000000 PUSH0 MSTORE PUSH1 0x22 PUSH1 0x4 MSTORE PUSH1 0x24 PUSH0 REVERT JUMPDEST PUSH0 PUSH1 0x2 DUP3 DIV SWAP1 POP PUSH1 0x1 DUP3 AND DUP1 PUSH2 0x85E JUMPI PUSH1 0x7F DUP3 AND SWAP2 POP JUMPDEST PUSH1 0x20 DUP3 LT DUP2 SUB PUSH2 0x871 JUMPI PUSH2 0x870 PUSH2 0x81A JUMP JUMPDEST JUMPDEST POP SWAP2 SWAP1 POP JUMP JUMPDEST PUSH0 DUP3 SWAP1 POP SWAP3 SWAP2 POP POP JUMP JUMPDEST PUSH32 0x4E487B7100000000000000000000000000000000000000000000000000000000 PUSH0 MSTORE PUSH1 0x41 PUSH1 0x4 MSTORE PUSH1 0x24 PUSH0 REVERT JUMPDEST PUSH0 DUP2 SWAP1 POP DUP2 PUSH0 MSTORE PUSH1 0x20 PUSH0 KECCAK256 SWAP1 POP SWAP2 SWAP1 POP JUMP JUMPDEST PUSH0 PUSH1 0x20 PUSH1 0x1F DUP4 ADD DIV SWAP1 POP SWAP2 SWAP1 POP JUMP JUMPDEST PUSH0 DUP3 DUP3 SHL SWAP1 POP SWAP3 SWAP2 POP POP JUMP JUMPDEST PUSH0 PUSH1 0x8 DUP4 MUL PUSH2 0x90A PUSH32 0xFFFFFFFFFFFFFFFFFFFFFFFFFFFFFFFFFFFFFFFFFFFFFFFFFFFFFFFFFFFFFFFF DUP3 PUSH2 0x8CF JUMP JUMPDEST PUSH2 0x914 DUP7 DUP4 PUSH2 0x8CF JUMP JUMPDEST SWAP6 POP DUP1 NOT DUP5 AND SWAP4 POP DUP1 DUP7 AND DUP5 OR SWAP3 POP POP POP SWAP4 SWAP3 POP POP POP JUMP JUMPDEST PUSH0 DUP2 SWAP1 POP SWAP2 SWAP1 POP JUMP JUMPDEST PUSH0 PUSH2 0x94F PUSH2 0x94A PUSH2 0x945 DUP5 PUSH2 0x472 JUMP JUMPDEST PUSH2 0x92C JUMP JUMPDEST PUSH2 0x472 JUMP JUMPDEST SWAP1 POP SWAP2 SWAP1 POP JUMP JUMPDEST PUSH0 DUP2 SWAP1 POP SWAP2 SWAP1 POP JUMP JUMPDEST PUSH2 0x968 DUP4 PUSH2 0x935 JUMP JUMPDEST PUSH2 0x97C PUSH2 0x974 DUP3 PUSH2 0x956 JUMP JUMPDEST DUP5 DUP5 SLOAD PUSH2 0x8DB JUMP JUMPDEST DUP3 SSTORE POP POP POP POP JUMP JUMPDEST PUSH0 SWAP1 JUMP JUMPDEST PUSH2 0x990 PUSH2 0x984 JUMP JUMPDEST PUSH2 0x99B DUP2 DUP5 DUP5 PUSH2 0x95F JUMP JUMPDEST POP POP POP JUMP JUMPDEST JUMPDEST DUP2 DUP2 LT ISZERO PUSH2 0x9BE JUMPI PUSH2 0x9B3 PUSH0 DUP3 PUSH2 0x988 JUMP JUMPDEST PUSH1 0x1 DUP2 ADD SWAP1 POP PUSH2 0x9A1 JUMP JUMPDEST POP POP JUMP JUMPDEST PUSH1 0x1F DUP3 GT ISZERO PUSH2 0xA03 JUMPI PUSH2 0x9D4 DUP2 PUSH2 0x8AE JUMP JUMPDEST PUSH2 0x9DD DUP5 PUSH2 0x8C0 JUMP JUMPDEST DUP2 ADD PUSH1 0x20 DUP6 LT ISZERO PUSH2 0x9EC JUMPI DUP2 SWAP1 POP JUMPDEST PUSH2 0xA00 PUSH2 0x9F8 DUP6 PUSH2 0x8C0 JUMP JUMPDEST DUP4 ADD DUP3 PUSH2 0x9A0 JUMP JUMPDEST POP POP JUMPDEST POP POP POP JUMP JUMPDEST PUSH0 DUP3 DUP3 SHR SWAP1 POP SWAP3 SWAP2 POP POP JUMP JUMPDEST PUSH0 PUSH2 0xA23 PUSH0 NOT DUP5 PUSH1 0x8 MUL PUSH2 0xA08 JUMP JUMPDEST NOT DUP1 DUP4 AND SWAP2 POP POP SWAP3 SWAP2 POP POP JUMP JUMPDEST PUSH0 PUSH2 0xA3B DUP4 DUP4 PUSH2 0xA14 JUMP JUMPDEST SWAP2 POP DUP3 PUSH1 0x2 MUL DUP3 OR SWAP1 POP SWAP3 SWAP2 POP POP JUMP JUMPDEST PUSH2 0xA55 DUP4 DUP4 PUSH2 0x877 JUMP JUMPDEST PUSH8 0xFFFFFFFFFFFFFFFF DUP2 GT ISZERO PUSH2 0xA6E JUMPI PUSH2 0xA6D PUSH2 0x881 JUMP JUMPDEST JUMPDEST PUSH2 0xA78 DUP3 SLOAD PUSH2 0x847 JUMP JUMPDEST PUSH2 0xA83 DUP3 DUP3 DUP6 PUSH2 0x9C2 JUMP JUMPDEST PUSH0 PUSH1 0x1F DUP4 GT PUSH1 0x1 DUP2 EQ PUSH2 0xAB0 JUMPI PUSH0 DUP5 ISZERO PUSH2 0xA9E JUMPI DUP3 DUP8 ADD CALLDATALOAD SWAP1 POP JUMPDEST PUSH2 0xAA8 DUP6 DUP3 PUSH2 0xA30 JUMP JUMPDEST DUP7 SSTORE POP PUSH2 0xB0F JUMP JUMPDEST PUSH1 0x1F NOT DUP5 AND PUSH2 0xABE DUP7 PUSH2 0x8AE JUMP JUMPDEST PUSH0 JUMPDEST DUP3 DUP2 LT ISZERO PUSH2 0xAE5 JUMPI DUP5 DUP10 ADD CALLDATALOAD DUP3 SSTORE PUSH1 0x1 DUP3 ADD SWAP2 POP PUSH1 0x20 DUP6 ADD SWAP5 POP PUSH1 0x20 DUP2 ADD SWAP1 POP PUSH2 0xAC0 JUMP JUMPDEST DUP7 DUP4 LT ISZERO PUSH2 0xB02 JUMPI DUP5 DUP10 ADD CALLDATALOAD PUSH2 0xAFE PUSH1 0x1F DUP10 AND DUP3 PUSH2 0xA14 JUMP JUMPDEST DUP4 SSTORE POP JUMPDEST PUSH1 0x1 PUSH1 0x2 DUP9 MUL ADD DUP9 SSTORE POP POP POP JUMPDEST POP POP POP POP POP POP POP JUMP INVALID LOG2 PUSH5 0x6970667358 0x22 SLT KECCAK256 LT ORIGIN SWAP16 SELFDESTRUCT 0xDD JUMPDEST DUP3 0xD2 DUP9 SWAP4 EXTCODECOPY 0xE9 0x21 0xDA 0x28 PUSH12 0x2F676F72BDD7214DDF5B28A PUSH11 0x8C85A164736F6C63430008 BYTE STOP CALLER "
		},
		"gasEstimates": {
			"creation": {
				"codeDepositCost": "578800",
				"executionCost": "24964",
				"totalCost": "603764"
			},
			"external": {
				"allowedSources(address)": "2898",
				"execute(uint256,uint8)": "5263",
				"register(uint256,string)": "infinite",
				"registry(uint256)": "infinite",
				"setSourceAllowed(address,bool)": "27197"
			}
		},
		"methodIdentifiers": {
			"allowedSources(address)": "f82f40a1",
			"execute(uint256,uint8)": "427fd0ff",
			"register(uint256,string)": "a00fd3c8",
			"registry(uint256)": "5893253c",
			"setSourceAllowed(address,bool)": "0f56d07f"
		}
	},
	"abi": [
		{
			"inputs": [],
			"stateMutability": "nonpayable",
			"type": "constructor"
		},
		{
			"inputs": [],
			"name": "AC__NotAllowed",
			"type": "error"
		},
		{
			"anonymous": false,
			"inputs": [
				{
					"indexed": true,
					"internalType": "address",
					"name": "who",
					"type": "address"
				},
				{
					"indexed": true,
					"internalType": "uint256",
					"name": "id",
					"type": "uint256"
				},
				{
					"indexed": false,
					"internalType": "enum ActiveContentType",
					"name": "ctype",
					"type": "uint8"
				},
				{
					"indexed": false,
					"internalType": "enum ActiveContentDefenseType",
					"name": "defense",
					"type": "uint8"
				}
			],
			"name": "ContentExecuted",
			"type": "event"
		},
		{
			"inputs": [
				{
					"internalType": "address",
					"name": "",
					"type": "address"
				}
			],
			"name": "allowedSources",
			"outputs": [
				{
					"internalType": "bool",
					"name": "",
					"type": "bool"
				}
			],
			"stateMutability": "view",
			"type": "function"
		},
		{
			"inputs": [
				{
					"internalType": "uint256",
					"name": "id",
					"type": "uint256"
				},
				{
					"internalType": "enum ActiveContentType",
					"name": "ctype",
					"type": "uint8"
				}
			],
			"name": "execute",
			"outputs": [],
			"stateMutability": "nonpayable",
			"type": "function"
		},
		{
			"inputs": [
				{
					"internalType": "uint256",
					"name": "id",
					"type": "uint256"
				},
				{
					"internalType": "string",
					"name": "payload",
					"type": "string"
				}
			],
			"name": "register",
			"outputs": [],
			"stateMutability": "nonpayable",
			"type": "function"
		},
		{
			"inputs": [
				{
					"internalType": "uint256",
					"name": "",
					"type": "uint256"
				}
			],
			"name": "registry",
			"outputs": [
				{
					"internalType": "string",
					"name": "",
					"type": "string"
				}
			],
			"stateMutability": "view",
			"type": "function"
		},
		{
			"inputs": [
				{
					"internalType": "address",
					"name": "src",
					"type": "address"
				},
				{
					"internalType": "bool",
					"name": "ok",
					"type": "bool"
				}
			],
			"name": "setSourceAllowed",
			"outputs": [],
			"stateMutability": "nonpayable",
			"type": "function"
		}
	]
}