{
	"B/Bind/Self-Binding (Address ↔ Username).sol": {
		"SelfBinding": {
			"abi": [
				{
					"anonymous": false,
					"inputs": [
						{
							"indexed": true,
							"internalType": "address",
							"name": "user",
							"type": "address"
						},
						{
							"indexed": false,
							"internalType": "string",
							"name": "username",
							"type": "string"
						}
					],
					"name": "UsernameBound",
					"type": "event"
				},
				{
					"inputs": [
						{
							"internalType": "string",
							"name": "name",
							"type": "string"
						}
					],
					"name": "bindUsername",
					"outputs": [],
					"stateMutability": "nonpayable",
					"type": "function"
				},
				{
					"inputs": [],
					"name": "getMyUsername",
					"outputs": [
						{
							"internalType": "string",
							"name": "",
							"type": "string"
						}
					],
					"stateMutability": "view",
					"type": "function"
				},
				{
					"inputs": [
						{
							"internalType": "address",
							"name": "",
							"type": "address"
						}
					],
					"name": "usernames",
					"outputs": [
						{
							"internalType": "string",
							"name": "",
							"type": "string"
						}
					],
					"stateMutability": "view",
					"type": "function"
				}
			],
			"devdoc": {
				"kind": "dev",
				"methods": {
					"bindUsername(string)": {
						"params": {
							"name": "The username to bind."
						}
					}
				},
				"version": 1
			},
			"evm": {
				"assembly": "    /* \"B/Bind/Self-Binding (Address \\xe2\\x86\\x94 Username).sol\":58:638  contract SelfBinding {... */\n  mstore(0x40, 0x80)\n  callvalue\n  dup1\n  iszero\n  tag_1\n  jumpi\n  revert(0x00, 0x00)\ntag_1:\n  pop\n  dataSize(sub_0)\n  dup1\n  dataOffset(sub_0)\n  0x00\n  codecopy\n  0x00\n  return\nstop\n\nsub_0: assembly {\n        /* \"B/Bind/Self-Binding (Address \\xe2\\x86\\x94 Username).sol\":58:638  contract SelfBinding {... */\n      mstore(0x40, 0x80)\n      callvalue\n      dup1\n      iszero\n      tag_1\n      jumpi\n      revert(0x00, 0x00)\n    tag_1:\n      pop\n      jumpi(tag_2, lt(calldatasize, 0x04))\n      shr(0xe0, calldataload(0x00))\n      dup1\n      0x8473bb14\n      eq\n      tag_3\n      jumpi\n      dup1\n      0xcf9ad4c4\n      eq\n      tag_4\n      jumpi\n      dup1\n      0xee91877c\n      eq\n      tag_5\n      jumpi\n    tag_2:\n      revert(0x00, 0x00)\n        /* \"B/Bind/Self-Binding (Address \\xe2\\x86\\x94 Username).sol\":530:636  function getMyUsername() public view returns (string memory) {... */\n    tag_3:\n      tag_6\n      tag_7\n      jump\t// in\n    tag_6:\n      mload(0x40)\n      tag_8\n      swap2\n      swap1\n      tag_9\n      jump\t// in\n    tag_8:\n      mload(0x40)\n      dup1\n      swap2\n      sub\n      swap1\n      return\n        /* \"B/Bind/Self-Binding (Address \\xe2\\x86\\x94 Username).sol\":323:465  function bindUsername(string calldata name) public {... */\n    tag_4:\n      tag_10\n      0x04\n      dup1\n      calldatasize\n      sub\n      dup2\n      add\n      swap1\n      tag_11\n      swap2\n      swap1\n      tag_12\n      jump\t// in\n    tag_11:\n      tag_13\n      jump\t// in\n    tag_10:\n      stop\n        /* \"B/Bind/Self-Binding (Address \\xe2\\x86\\x94 Username).sol\":85:128  mapping(address => string) public usernames */\n    tag_5:\n      tag_14\n      0x04\n      dup1\n      calldatasize\n      sub\n      dup2\n      add\n      swap1\n      tag_15\n      swap2\n      swap1\n      tag_16\n      jump\t// in\n    tag_15:\n      tag_17\n      jump\t// in\n    tag_14:\n      mload(0x40)\n      tag_18\n      swap2\n      swap1\n      tag_9\n      jump\t// in\n    tag_18:\n      mload(0x40)\n      dup1\n      swap2\n      sub\n      swap1\n      return\n        /* \"B/Bind/Self-Binding (Address \\xe2\\x86\\x94 Username).sol\":530:636  function getMyUsername() public view returns (string memory) {... */\n    tag_7:\n        /* \"B/Bind/Self-Binding (Address \\xe2\\x86\\x94 Username).sol\":576:589  string memory */\n      0x60\n        /* \"B/Bind/Self-Binding (Address \\xe2\\x86\\x94 Username).sol\":608:617  usernames */\n      0x00\n        /* \"B/Bind/Self-Binding (Address \\xe2\\x86\\x94 Username).sol\":608:629  usernames[msg.sender] */\n      0x00\n        /* \"B/Bind/Self-Binding (Address \\xe2\\x86\\x94 Username).sol\":618:628  msg.sender */\n      caller\n        /* \"B/Bind/Self-Binding (Address \\xe2\\x86\\x94 Username).sol\":608:629  usernames[msg.sender] */\n      0xffffffffffffffffffffffffffffffffffffffff\n      and\n      0xffffffffffffffffffffffffffffffffffffffff\n      and\n      dup2\n      mstore\n      0x20\n      add\n      swap1\n      dup2\n      mstore\n      0x20\n      add\n      0x00\n      keccak256\n        /* \"B/Bind/Self-Binding (Address \\xe2\\x86\\x94 Username).sol\":601:629  return usernames[msg.sender] */\n      dup1\n      sload\n      tag_20\n      swap1\n      tag_21\n      jump\t// in\n    tag_20:\n      dup1\n      0x1f\n      add\n      0x20\n      dup1\n      swap2\n      div\n      mul\n      0x20\n      add\n      mload(0x40)\n      swap1\n      dup2\n      add\n      0x40\n      mstore\n      dup1\n      swap3\n      swap2\n      swap1\n      dup2\n      dup2\n      mstore\n      0x20\n      add\n      dup3\n      dup1\n      sload\n      tag_22\n      swap1\n      tag_21\n      jump\t// in\n    tag_22:\n      dup1\n      iszero\n      tag_23\n      jumpi\n      dup1\n      0x1f\n      lt\n      tag_24\n      jumpi\n      0x0100\n      dup1\n      dup4\n      sload\n      div\n      mul\n      dup4\n      mstore\n      swap2\n      0x20\n      add\n      swap2\n      jump(tag_23)\n    tag_24:\n      dup3\n      add\n      swap2\n      swap1\n      0x00\n      mstore\n      keccak256(0x00, 0x20)\n      swap1\n    tag_25:\n      dup2\n      sload\n      dup2\n      mstore\n      swap1\n      0x01\n      add\n      swap1\n      0x20\n      add\n      dup1\n      dup4\n      gt\n      tag_25\n      jumpi\n      dup3\n      swap1\n      sub\n      0x1f\n      and\n      dup3\n      add\n      swap2\n    tag_23:\n      pop\n      pop\n      pop\n      pop\n      pop\n      swap1\n      pop\n        /* \"B/Bind/Self-Binding (Address \\xe2\\x86\\x94 Username).sol\":530:636  function getMyUsername() public view returns (string memory) {... */\n      swap1\n      jump\t// out\n        /* \"B/Bind/Self-Binding (Address \\xe2\\x86\\x94 Username).sol\":323:465  function bindUsername(string calldata name) public {... */\n    tag_13:\n        /* \"B/Bind/Self-Binding (Address \\xe2\\x86\\x94 Username).sol\":408:412  name */\n      dup2\n      dup2\n        /* \"B/Bind/Self-Binding (Address \\xe2\\x86\\x94 Username).sol\":384:393  usernames */\n      0x00\n        /* \"B/Bind/Self-Binding (Address \\xe2\\x86\\x94 Username).sol\":384:405  usernames[msg.sender] */\n      0x00\n        /* \"B/Bind/Self-Binding (Address \\xe2\\x86\\x94 Username).sol\":394:404  msg.sender */\n      caller\n        /* \"B/Bind/Self-Binding (Address \\xe2\\x86\\x94 Username).sol\":384:405  usernames[msg.sender] */\n      0xffffffffffffffffffffffffffffffffffffffff\n      and\n      0xffffffffffffffffffffffffffffffffffffffff\n      and\n      dup2\n      mstore\n      0x20\n      add\n      swap1\n      dup2\n      mstore\n      0x20\n      add\n      0x00\n      keccak256\n        /* \"B/Bind/Self-Binding (Address \\xe2\\x86\\x94 Username).sol\":384:412  usernames[msg.sender] = name */\n      swap2\n      dup3\n      tag_27\n      swap3\n      swap2\n      swap1\n      tag_28\n      jump\t// in\n    tag_27:\n      pop\n        /* \"B/Bind/Self-Binding (Address \\xe2\\x86\\x94 Username).sol\":441:451  msg.sender */\n      caller\n        /* \"B/Bind/Self-Binding (Address \\xe2\\x86\\x94 Username).sol\":427:458  UsernameBound(msg.sender, name) */\n      0xffffffffffffffffffffffffffffffffffffffff\n      and\n      0x35975493f44c2b506f0e30b5ffe4cc8047cc738b9820ec698ffb14bc3b5aacd3\n        /* \"B/Bind/Self-Binding (Address \\xe2\\x86\\x94 Username).sol\":453:457  name */\n      dup4\n      dup4\n        /* \"B/Bind/Self-Binding (Address \\xe2\\x86\\x94 Username).sol\":427:458  UsernameBound(msg.sender, name) */\n      mload(0x40)\n      tag_29\n      swap3\n      swap2\n      swap1\n      tag_30\n      jump\t// in\n    tag_29:\n      mload(0x40)\n      dup1\n      swap2\n      sub\n      swap1\n      log2\n        /* \"B/Bind/Self-Binding (Address \\xe2\\x86\\x94 Username).sol\":323:465  function bindUsername(string calldata name) public {... */\n      pop\n      pop\n      jump\t// out\n        /* \"B/Bind/Self-Binding (Address \\xe2\\x86\\x94 Username).sol\":85:128  mapping(address => string) public usernames */\n    tag_17:\n      mstore(0x20, 0x00)\n      dup1\n      0x00\n      mstore\n      keccak256(0x00, 0x40)\n      0x00\n      swap2\n      pop\n      swap1\n      pop\n      dup1\n      sload\n      tag_31\n      swap1\n      tag_21\n      jump\t// in\n    tag_31:\n      dup1\n      0x1f\n      add\n      0x20\n      dup1\n      swap2\n      div\n      mul\n      0x20\n      add\n      mload(0x40)\n      swap1\n      dup2\n      add\n      0x40\n      mstore\n      dup1\n      swap3\n      swap2\n      swap1\n      dup2\n      dup2\n      mstore\n      0x20\n      add\n      dup3\n      dup1\n      sload\n      tag_32\n      swap1\n      tag_21\n      jump\t// in\n    tag_32:\n      dup1\n      iszero\n      tag_33\n      jumpi\n      dup1\n      0x1f\n      lt\n      tag_34\n      jumpi\n      0x0100\n      dup1\n      dup4\n      sload\n      div\n      mul\n      dup4\n      mstore\n      swap2\n      0x20\n      add\n      swap2\n      jump(tag_33)\n    tag_34:\n      dup3\n      add\n      swap2\n      swap1\n      0x00\n      mstore\n      keccak256(0x00, 0x20)\n      swap1\n    tag_35:\n      dup2\n      sload\n      dup2\n      mstore\n      swap1\n      0x01\n      add\n      swap1\n      0x20\n      add\n      dup1\n      dup4\n      gt\n      tag_35\n      jumpi\n      dup3\n      swap1\n      sub\n      0x1f\n      and\n      dup3\n      add\n      swap2\n    tag_33:\n      pop\n      pop\n      pop\n      pop\n      pop\n      dup2\n      jump\t// out\n        /* \"#utility.yul\":7:106   */\n    tag_36:\n        /* \"#utility.yul\":59:65   */\n      0x00\n        /* \"#utility.yul\":93:98   */\n      dup2\n        /* \"#utility.yul\":87:99   */\n      mload\n        /* \"#utility.yul\":77:99   */\n      swap1\n      pop\n        /* \"#utility.yul\":7:106   */\n      swap2\n      swap1\n      pop\n      jump\t// out\n        /* \"#utility.yul\":112:281   */\n    tag_37:\n        /* \"#utility.yul\":196:207   */\n      0x00\n        /* \"#utility.yul\":230:236   */\n      dup3\n        /* \"#utility.yul\":225:228   */\n      dup3\n        /* \"#utility.yul\":218:237   */\n      mstore\n        /* \"#utility.yul\":270:274   */\n      0x20\n        /* \"#utility.yul\":265:268   */\n      dup3\n        /* \"#utility.yul\":261:275   */\n      add\n        /* \"#utility.yul\":246:275   */\n      swap1\n      pop\n        /* \"#utility.yul\":112:281   */\n      swap3\n      swap2\n      pop\n      pop\n      jump\t// out\n        /* \"#utility.yul\":287:426   */\n    tag_38:\n        /* \"#utility.yul\":376:382   */\n      dup3\n        /* \"#utility.yul\":371:374   */\n      dup2\n        /* \"#utility.yul\":366:369   */\n      dup4\n        /* \"#utility.yul\":360:383   */\n      mcopy\n        /* \"#utility.yul\":417:418   */\n      0x00\n        /* \"#utility.yul\":408:414   */\n      dup4\n        /* \"#utility.yul\":403:406   */\n      dup4\n        /* \"#utility.yul\":399:415   */\n      add\n        /* \"#utility.yul\":392:419   */\n      mstore\n        /* \"#utility.yul\":287:426   */\n      pop\n      pop\n      pop\n      jump\t// out\n        /* \"#utility.yul\":432:534   */\n    tag_39:\n        /* \"#utility.yul\":473:479   */\n      0x00\n        /* \"#utility.yul\":524:526   */\n      0x1f\n        /* \"#utility.yul\":520:527   */\n      not\n        /* \"#utility.yul\":515:517   */\n      0x1f\n        /* \"#utility.yul\":508:513   */\n      dup4\n        /* \"#utility.yul\":504:518   */\n      add\n        /* \"#utility.yul\":500:528   */\n      and\n        /* \"#utility.yul\":490:528   */\n      swap1\n      pop\n        /* \"#utility.yul\":432:534   */\n      swap2\n      swap1\n      pop\n      jump\t// out\n        /* \"#utility.yul\":540:917   */\n    tag_40:\n        /* \"#utility.yul\":628:631   */\n      0x00\n        /* \"#utility.yul\":656:695   */\n      tag_79\n        /* \"#utility.yul\":689:694   */\n      dup3\n        /* \"#utility.yul\":656:695   */\n      tag_36\n      jump\t// in\n    tag_79:\n        /* \"#utility.yul\":711:782   */\n      tag_80\n        /* \"#utility.yul\":775:781   */\n      dup2\n        /* \"#utility.yul\":770:773   */\n      dup6\n        /* \"#utility.yul\":711:782   */\n      tag_37\n      jump\t// in\n    tag_80:\n        /* \"#utility.yul\":704:782   */\n      swap4\n      pop\n        /* \"#utility.yul\":791:856   */\n      tag_81\n        /* \"#utility.yul\":849:855   */\n      dup2\n        /* \"#utility.yul\":844:847   */\n      dup6\n        /* \"#utility.yul\":837:841   */\n      0x20\n        /* \"#utility.yul\":830:835   */\n      dup7\n        /* \"#utility.yul\":826:842   */\n      add\n        /* \"#utility.yul\":791:856   */\n      tag_38\n      jump\t// in\n    tag_81:\n        /* \"#utility.yul\":881:910   */\n      tag_82\n        /* \"#utility.yul\":903:909   */\n      dup2\n        /* \"#utility.yul\":881:910   */\n      tag_39\n      jump\t// in\n    tag_82:\n        /* \"#utility.yul\":876:879   */\n      dup5\n        /* \"#utility.yul\":872:911   */\n      add\n        /* \"#utility.yul\":865:911   */\n      swap2\n      pop\n        /* \"#utility.yul\":632:917   */\n      pop\n        /* \"#utility.yul\":540:917   */\n      swap3\n      swap2\n      pop\n      pop\n      jump\t// out\n        /* \"#utility.yul\":923:1236   */\n    tag_9:\n        /* \"#utility.yul\":1036:1040   */\n      0x00\n        /* \"#utility.yul\":1074:1076   */\n      0x20\n        /* \"#utility.yul\":1063:1072   */\n      dup3\n        /* \"#utility.yul\":1059:1077   */\n      add\n        /* \"#utility.yul\":1051:1077   */\n      swap1\n      pop\n        /* \"#utility.yul\":1123:1132   */\n      dup2\n        /* \"#utility.yul\":1117:1121   */\n      dup2\n        /* \"#utility.yul\":1113:1133   */\n      sub\n        /* \"#utility.yul\":1109:1110   */\n      0x00\n        /* \"#utility.yul\":1098:1107   */\n      dup4\n        /* \"#utility.yul\":1094:1111   */\n      add\n        /* \"#utility.yul\":1087:1134   */\n      mstore\n        /* \"#utility.yul\":1151:1229   */\n      tag_84\n        /* \"#utility.yul\":1224:1228   */\n      dup2\n        /* \"#utility.yul\":1215:1221   */\n      dup5\n        /* \"#utility.yul\":1151:1229   */\n      tag_40\n      jump\t// in\n    tag_84:\n        /* \"#utility.yul\":1143:1229   */\n      swap1\n      pop\n        /* \"#utility.yul\":923:1236   */\n      swap3\n      swap2\n      pop\n      pop\n      jump\t// out\n        /* \"#utility.yul\":1323:1440   */\n    tag_42:\n        /* \"#utility.yul\":1432:1433   */\n      0x00\n        /* \"#utility.yul\":1429:1430   */\n      0x00\n        /* \"#utility.yul\":1422:1434   */\n      revert\n        /* \"#utility.yul\":1446:1563   */\n    tag_43:\n        /* \"#utility.yul\":1555:1556   */\n      0x00\n        /* \"#utility.yul\":1552:1553   */\n      0x00\n        /* \"#utility.yul\":1545:1557   */\n      revert\n        /* \"#utility.yul\":1569:1686   */\n    tag_44:\n        /* \"#utility.yul\":1678:1679   */\n      0x00\n        /* \"#utility.yul\":1675:1676   */\n      0x00\n        /* \"#utility.yul\":1668:1680   */\n      revert\n        /* \"#utility.yul\":1692:1809   */\n    tag_45:\n        /* \"#utility.yul\":1801:1802   */\n      0x00\n        /* \"#utility.yul\":1798:1799   */\n      0x00\n        /* \"#utility.yul\":1791:1803   */\n      revert\n        /* \"#utility.yul\":1815:1932   */\n    tag_46:\n        /* \"#utility.yul\":1924:1925   */\n      0x00\n        /* \"#utility.yul\":1921:1922   */\n      0x00\n        /* \"#utility.yul\":1914:1926   */\n      revert\n        /* \"#utility.yul\":1952:2505   */\n    tag_47:\n        /* \"#utility.yul\":2010:2018   */\n      0x00\n        /* \"#utility.yul\":2020:2026   */\n      0x00\n        /* \"#utility.yul\":2070:2073   */\n      dup4\n        /* \"#utility.yul\":2063:2067   */\n      0x1f\n        /* \"#utility.yul\":2055:2061   */\n      dup5\n        /* \"#utility.yul\":2051:2068   */\n      add\n        /* \"#utility.yul\":2047:2074   */\n      slt\n        /* \"#utility.yul\":2037:2159   */\n      tag_92\n      jumpi\n        /* \"#utility.yul\":2078:2157   */\n      tag_93\n      tag_44\n      jump\t// in\n    tag_93:\n        /* \"#utility.yul\":2037:2159   */\n    tag_92:\n        /* \"#utility.yul\":2191:2197   */\n      dup3\n        /* \"#utility.yul\":2178:2198   */\n      calldataload\n        /* \"#utility.yul\":2168:2198   */\n      swap1\n      pop\n        /* \"#utility.yul\":2221:2239   */\n      0xffffffffffffffff\n        /* \"#utility.yul\":2213:2219   */\n      dup2\n        /* \"#utility.yul\":2210:2240   */\n      gt\n        /* \"#utility.yul\":2207:2324   */\n      iszero\n      tag_94\n      jumpi\n        /* \"#utility.yul\":2243:2322   */\n      tag_95\n      tag_45\n      jump\t// in\n    tag_95:\n        /* \"#utility.yul\":2207:2324   */\n    tag_94:\n        /* \"#utility.yul\":2357:2361   */\n      0x20\n        /* \"#utility.yul\":2349:2355   */\n      dup4\n        /* \"#utility.yul\":2345:2362   */\n      add\n        /* \"#utility.yul\":2333:2362   */\n      swap2\n      pop\n        /* \"#utility.yul\":2411:2414   */\n      dup4\n        /* \"#utility.yul\":2403:2407   */\n      0x01\n        /* \"#utility.yul\":2395:2401   */\n      dup3\n        /* \"#utility.yul\":2391:2408   */\n      mul\n        /* \"#utility.yul\":2381:2389   */\n      dup4\n        /* \"#utility.yul\":2377:2409   */\n      add\n        /* \"#utility.yul\":2374:2415   */\n      gt\n        /* \"#utility.yul\":2371:2499   */\n      iszero\n      tag_96\n      jumpi\n        /* \"#utility.yul\":2418:2497   */\n      tag_97\n      tag_46\n      jump\t// in\n    tag_97:\n        /* \"#utility.yul\":2371:2499   */\n    tag_96:\n        /* \"#utility.yul\":1952:2505   */\n      swap3\n      pop\n      swap3\n      swap1\n      pop\n      jump\t// out\n        /* \"#utility.yul\":2511:3040   */\n    tag_12:\n        /* \"#utility.yul\":2582:2588   */\n      0x00\n        /* \"#utility.yul\":2590:2596   */\n      0x00\n        /* \"#utility.yul\":2639:2641   */\n      0x20\n        /* \"#utility.yul\":2627:2636   */\n      dup4\n        /* \"#utility.yul\":2618:2625   */\n      dup6\n        /* \"#utility.yul\":2614:2637   */\n      sub\n        /* \"#utility.yul\":2610:2642   */\n      slt\n        /* \"#utility.yul\":2607:2726   */\n      iszero\n      tag_99\n      jumpi\n        /* \"#utility.yul\":2645:2724   */\n      tag_100\n      tag_42\n      jump\t// in\n    tag_100:\n        /* \"#utility.yul\":2607:2726   */\n    tag_99:\n        /* \"#utility.yul\":2793:2794   */\n      0x00\n        /* \"#utility.yul\":2782:2791   */\n      dup4\n        /* \"#utility.yul\":2778:2795   */\n      add\n        /* \"#utility.yul\":2765:2796   */\n      calldataload\n        /* \"#utility.yul\":2823:2841   */\n      0xffffffffffffffff\n        /* \"#utility.yul\":2815:2821   */\n      dup2\n        /* \"#utility.yul\":2812:2842   */\n      gt\n        /* \"#utility.yul\":2809:2926   */\n      iszero\n      tag_101\n      jumpi\n        /* \"#utility.yul\":2845:2924   */\n      tag_102\n      tag_43\n      jump\t// in\n    tag_102:\n        /* \"#utility.yul\":2809:2926   */\n    tag_101:\n        /* \"#utility.yul\":2958:3023   */\n      tag_103\n        /* \"#utility.yul\":3015:3022   */\n      dup6\n        /* \"#utility.yul\":3006:3012   */\n      dup3\n        /* \"#utility.yul\":2995:3004   */\n      dup7\n        /* \"#utility.yul\":2991:3013   */\n      add\n        /* \"#utility.yul\":2958:3023   */\n      tag_47\n      jump\t// in\n    tag_103:\n        /* \"#utility.yul\":2940:3023   */\n      swap3\n      pop\n      swap3\n      pop\n        /* \"#utility.yul\":2736:3033   */\n      pop\n        /* \"#utility.yul\":2511:3040   */\n      swap3\n      pop\n      swap3\n      swap1\n      pop\n      jump\t// out\n        /* \"#utility.yul\":3046:3172   */\n    tag_48:\n        /* \"#utility.yul\":3083:3090   */\n      0x00\n        /* \"#utility.yul\":3123:3165   */\n      0xffffffffffffffffffffffffffffffffffffffff\n        /* \"#utility.yul\":3116:3121   */\n      dup3\n        /* \"#utility.yul\":3112:3166   */\n      and\n        /* \"#utility.yul\":3101:3166   */\n      swap1\n      pop\n        /* \"#utility.yul\":3046:3172   */\n      swap2\n      swap1\n      pop\n      jump\t// out\n        /* \"#utility.yul\":3178:3274   */\n    tag_49:\n        /* \"#utility.yul\":3215:3222   */\n      0x00\n        /* \"#utility.yul\":3244:3268   */\n      tag_106\n        /* \"#utility.yul\":3262:3267   */\n      dup3\n        /* \"#utility.yul\":3244:3268   */\n      tag_48\n      jump\t// in\n    tag_106:\n        /* \"#utility.yul\":3233:3268   */\n      swap1\n      pop\n        /* \"#utility.yul\":3178:3274   */\n      swap2\n      swap1\n      pop\n      jump\t// out\n        /* \"#utility.yul\":3280:3402   */\n    tag_50:\n        /* \"#utility.yul\":3353:3377   */\n      tag_108\n        /* \"#utility.yul\":3371:3376   */\n      dup2\n        /* \"#utility.yul\":3353:3377   */\n      tag_49\n      jump\t// in\n    tag_108:\n        /* \"#utility.yul\":3346:3351   */\n      dup2\n        /* \"#utility.yul\":3343:3378   */\n      eq\n        /* \"#utility.yul\":3333:3396   */\n      tag_109\n      jumpi\n        /* \"#utility.yul\":3392:3393   */\n      0x00\n        /* \"#utility.yul\":3389:3390   */\n      0x00\n        /* \"#utility.yul\":3382:3394   */\n      revert\n        /* \"#utility.yul\":3333:3396   */\n    tag_109:\n        /* \"#utility.yul\":3280:3402   */\n      pop\n      jump\t// out\n        /* \"#utility.yul\":3408:3547   */\n    tag_51:\n        /* \"#utility.yul\":3454:3459   */\n      0x00\n        /* \"#utility.yul\":3492:3498   */\n      dup2\n        /* \"#utility.yul\":3479:3499   */\n      calldataload\n        /* \"#utility.yul\":3470:3499   */\n      swap1\n      pop\n        /* \"#utility.yul\":3508:3541   */\n      tag_111\n        /* \"#utility.yul\":3535:3540   */\n      dup2\n        /* \"#utility.yul\":3508:3541   */\n      tag_50\n      jump\t// in\n    tag_111:\n        /* \"#utility.yul\":3408:3547   */\n      swap3\n      swap2\n      pop\n      pop\n      jump\t// out\n        /* \"#utility.yul\":3553:3882   */\n    tag_16:\n        /* \"#utility.yul\":3612:3618   */\n      0x00\n        /* \"#utility.yul\":3661:3663   */\n      0x20\n        /* \"#utility.yul\":3649:3658   */\n      dup3\n        /* \"#utility.yul\":3640:3647   */\n      dup5\n        /* \"#utility.yul\":3636:3659   */\n      sub\n        /* \"#utility.yul\":3632:3664   */\n      slt\n        /* \"#utility.yul\":3629:3748   */\n      iszero\n      tag_113\n      jumpi\n        /* \"#utility.yul\":3667:3746   */\n      tag_114\n      tag_42\n      jump\t// in\n    tag_114:\n        /* \"#utility.yul\":3629:3748   */\n    tag_113:\n        /* \"#utility.yul\":3787:3788   */\n      0x00\n        /* \"#utility.yul\":3812:3865   */\n      tag_115\n        /* \"#utility.yul\":3857:3864   */\n      dup5\n        /* \"#utility.yul\":3848:3854   */\n      dup3\n        /* \"#utility.yul\":3837:3846   */\n      dup6\n        /* \"#utility.yul\":3833:3855   */\n      add\n        /* \"#utility.yul\":3812:3865   */\n      tag_51\n      jump\t// in\n    tag_115:\n        /* \"#utility.yul\":3802:3865   */\n      swap2\n      pop\n        /* \"#utility.yul\":3758:3875   */\n      pop\n        /* \"#utility.yul\":3553:3882   */\n      swap3\n      swap2\n      pop\n      pop\n      jump\t// out\n        /* \"#utility.yul\":3888:4068   */\n    tag_52:\n        /* \"#utility.yul\":3936:4013   */\n      0x4e487b7100000000000000000000000000000000000000000000000000000000\n        /* \"#utility.yul\":3933:3934   */\n      0x00\n        /* \"#utility.yul\":3926:4014   */\n      mstore\n        /* \"#utility.yul\":4033:4037   */\n      0x22\n        /* \"#utility.yul\":4030:4031   */\n      0x04\n        /* \"#utility.yul\":4023:4038   */\n      mstore\n        /* \"#utility.yul\":4057:4061   */\n      0x24\n        /* \"#utility.yul\":4054:4055   */\n      0x00\n        /* \"#utility.yul\":4047:4062   */\n      revert\n        /* \"#utility.yul\":4074:4394   */\n    tag_21:\n        /* \"#utility.yul\":4118:4124   */\n      0x00\n        /* \"#utility.yul\":4155:4156   */\n      0x02\n        /* \"#utility.yul\":4149:4153   */\n      dup3\n        /* \"#utility.yul\":4145:4157   */\n      div\n        /* \"#utility.yul\":4135:4157   */\n      swap1\n      pop\n        /* \"#utility.yul\":4202:4203   */\n      0x01\n        /* \"#utility.yul\":4196:4200   */\n      dup3\n        /* \"#utility.yul\":4192:4204   */\n      and\n        /* \"#utility.yul\":4223:4241   */\n      dup1\n        /* \"#utility.yul\":4213:4294   */\n      tag_118\n      jumpi\n        /* \"#utility.yul\":4279:4283   */\n      0x7f\n        /* \"#utility.yul\":4271:4277   */\n      dup3\n        /* \"#utility.yul\":4267:4284   */\n      and\n        /* \"#utility.yul\":4257:4284   */\n      swap2\n      pop\n        /* \"#utility.yul\":4213:4294   */\n    tag_118:\n        /* \"#utility.yul\":4341:4343   */\n      0x20\n        /* \"#utility.yul\":4333:4339   */\n      dup3\n        /* \"#utility.yul\":4330:4344   */\n      lt\n        /* \"#utility.yul\":4310:4328   */\n      dup2\n        /* \"#utility.yul\":4307:4345   */\n      sub\n        /* \"#utility.yul\":4304:4388   */\n      tag_119\n      jumpi\n        /* \"#utility.yul\":4360:4378   */\n      tag_120\n      tag_52\n      jump\t// in\n    tag_120:\n        /* \"#utility.yul\":4304:4388   */\n    tag_119:\n        /* \"#utility.yul\":4125:4394   */\n      pop\n        /* \"#utility.yul\":4074:4394   */\n      swap2\n      swap1\n      pop\n      jump\t// out\n        /* \"#utility.yul\":4400:4497   */\n    tag_53:\n        /* \"#utility.yul\":4459:4465   */\n      0x00\n        /* \"#utility.yul\":4487:4490   */\n      dup3\n        /* \"#utility.yul\":4477:4490   */\n      swap1\n      pop\n        /* \"#utility.yul\":4400:4497   */\n      swap3\n      swap2\n      pop\n      pop\n      jump\t// out\n        /* \"#utility.yul\":4503:4683   */\n    tag_54:\n        /* \"#utility.yul\":4551:4628   */\n      0x4e487b7100000000000000000000000000000000000000000000000000000000\n        /* \"#utility.yul\":4548:4549   */\n      0x00\n        /* \"#utility.yul\":4541:4629   */\n      mstore\n        /* \"#utility.yul\":4648:4652   */\n      0x41\n        /* \"#utility.yul\":4645:4646   */\n      0x04\n        /* \"#utility.yul\":4638:4653   */\n      mstore\n        /* \"#utility.yul\":4672:4676   */\n      0x24\n        /* \"#utility.yul\":4669:4670   */\n      0x00\n        /* \"#utility.yul\":4662:4677   */\n      revert\n        /* \"#utility.yul\":4689:4830   */\n    tag_55:\n        /* \"#utility.yul\":4738:4742   */\n      0x00\n        /* \"#utility.yul\":4761:4764   */\n      dup2\n        /* \"#utility.yul\":4753:4764   */\n      swap1\n      pop\n        /* \"#utility.yul\":4784:4787   */\n      dup2\n        /* \"#utility.yul\":4781:4782   */\n      0x00\n        /* \"#utility.yul\":4774:4788   */\n      mstore\n        /* \"#utility.yul\":4818:4822   */\n      0x20\n        /* \"#utility.yul\":4815:4816   */\n      0x00\n        /* \"#utility.yul\":4805:4823   */\n      keccak256\n        /* \"#utility.yul\":4797:4823   */\n      swap1\n      pop\n        /* \"#utility.yul\":4689:4830   */\n      swap2\n      swap1\n      pop\n      jump\t// out\n        /* \"#utility.yul\":4836:4929   */\n    tag_56:\n        /* \"#utility.yul\":4873:4879   */\n      0x00\n        /* \"#utility.yul\":4920:4922   */\n      0x20\n        /* \"#utility.yul\":4915:4917   */\n      0x1f\n        /* \"#utility.yul\":4908:4913   */\n      dup4\n        /* \"#utility.yul\":4904:4918   */\n      add\n        /* \"#utility.yul\":4900:4923   */\n      div\n        /* \"#utility.yul\":4890:4923   */\n      swap1\n      pop\n        /* \"#utility.yul\":4836:4929   */\n      swap2\n      swap1\n      pop\n      jump\t// out\n        /* \"#utility.yul\":4935:5042   */\n    tag_57:\n        /* \"#utility.yul\":4979:4987   */\n      0x00\n        /* \"#utility.yul\":5029:5034   */\n      dup3\n        /* \"#utility.yul\":5023:5027   */\n      dup3\n        /* \"#utility.yul\":5019:5035   */\n      shl\n        /* \"#utility.yul\":4998:5035   */\n      swap1\n      pop\n        /* \"#utility.yul\":4935:5042   */\n      swap3\n      swap2\n      pop\n      pop\n      jump\t// out\n        /* \"#utility.yul\":5048:5441   */\n    tag_58:\n        /* \"#utility.yul\":5117:5123   */\n      0x00\n        /* \"#utility.yul\":5167:5168   */\n      0x08\n        /* \"#utility.yul\":5155:5165   */\n      dup4\n        /* \"#utility.yul\":5151:5169   */\n      mul\n        /* \"#utility.yul\":5190:5287   */\n      tag_127\n        /* \"#utility.yul\":5220:5286   */\n      0xffffffffffffffffffffffffffffffffffffffffffffffffffffffffffffffff\n        /* \"#utility.yul\":5209:5218   */\n      dup3\n        /* \"#utility.yul\":5190:5287   */\n      tag_57\n      jump\t// in\n    tag_127:\n        /* \"#utility.yul\":5308:5347   */\n      tag_128\n        /* \"#utility.yul\":5338:5346   */\n      dup7\n        /* \"#utility.yul\":5327:5336   */\n      dup4\n        /* \"#utility.yul\":5308:5347   */\n      tag_57\n      jump\t// in\n    tag_128:\n        /* \"#utility.yul\":5296:5347   */\n      swap6\n      pop\n        /* \"#utility.yul\":5380:5384   */\n      dup1\n        /* \"#utility.yul\":5376:5385   */\n      not\n        /* \"#utility.yul\":5369:5374   */\n      dup5\n        /* \"#utility.yul\":5365:5386   */\n      and\n        /* \"#utility.yul\":5356:5386   */\n      swap4\n      pop\n        /* \"#utility.yul\":5429:5433   */\n      dup1\n        /* \"#utility.yul\":5419:5427   */\n      dup7\n        /* \"#utility.yul\":5415:5434   */\n      and\n        /* \"#utility.yul\":5408:5413   */\n      dup5\n        /* \"#utility.yul\":5405:5435   */\n      or\n        /* \"#utility.yul\":5395:5435   */\n      swap3\n      pop\n        /* \"#utility.yul\":5124:5441   */\n      pop\n      pop\n        /* \"#utility.yul\":5048:5441   */\n      swap4\n      swap3\n      pop\n      pop\n      pop\n      jump\t// out\n        /* \"#utility.yul\":5447:5524   */\n    tag_59:\n        /* \"#utility.yul\":5484:5491   */\n      0x00\n        /* \"#utility.yul\":5513:5518   */\n      dup2\n        /* \"#utility.yul\":5502:5518   */\n      swap1\n      pop\n        /* \"#utility.yul\":5447:5524   */\n      swap2\n      swap1\n      pop\n      jump\t// out\n        /* \"#utility.yul\":5530:5590   */\n    tag_60:\n        /* \"#utility.yul\":5558:5561   */\n      0x00\n        /* \"#utility.yul\":5579:5584   */\n      dup2\n        /* \"#utility.yul\":5572:5584   */\n      swap1\n      pop\n        /* \"#utility.yul\":5530:5590   */\n      swap2\n      swap1\n      pop\n      jump\t// out\n        /* \"#utility.yul\":5596:5738   */\n    tag_61:\n        /* \"#utility.yul\":5646:5655   */\n      0x00\n        /* \"#utility.yul\":5679:5732   */\n      tag_132\n        /* \"#utility.yul\":5697:5731   */\n      tag_133\n        /* \"#utility.yul\":5706:5730   */\n      tag_134\n        /* \"#utility.yul\":5724:5729   */\n      dup5\n        /* \"#utility.yul\":5706:5730   */\n      tag_59\n      jump\t// in\n    tag_134:\n        /* \"#utility.yul\":5697:5731   */\n      tag_60\n      jump\t// in\n    tag_133:\n        /* \"#utility.yul\":5679:5732   */\n      tag_59\n      jump\t// in\n    tag_132:\n        /* \"#utility.yul\":5666:5732   */\n      swap1\n      pop\n        /* \"#utility.yul\":5596:5738   */\n      swap2\n      swap1\n      pop\n      jump\t// out\n        /* \"#utility.yul\":5744:5819   */\n    tag_62:\n        /* \"#utility.yul\":5787:5790   */\n      0x00\n        /* \"#utility.yul\":5808:5813   */\n      dup2\n        /* \"#utility.yul\":5801:5813   */\n      swap1\n      pop\n        /* \"#utility.yul\":5744:5819   */\n      swap2\n      swap1\n      pop\n      jump\t// out\n        /* \"#utility.yul\":5825:6094   */\n    tag_63:\n        /* \"#utility.yul\":5935:5974   */\n      tag_137\n        /* \"#utility.yul\":5966:5973   */\n      dup4\n        /* \"#utility.yul\":5935:5974   */\n      tag_61\n      jump\t// in\n    tag_137:\n        /* \"#utility.yul\":5996:6087   */\n      tag_138\n        /* \"#utility.yul\":6045:6086   */\n      tag_139\n        /* \"#utility.yul\":6069:6085   */\n      dup3\n        /* \"#utility.yul\":6045:6086   */\n      tag_62\n      jump\t// in\n    tag_139:\n        /* \"#utility.yul\":6037:6043   */\n      dup5\n        /* \"#utility.yul\":6030:6034   */\n      dup5\n        /* \"#utility.yul\":6024:6035   */\n      sload\n        /* \"#utility.yul\":5996:6087   */\n      tag_58\n      jump\t// in\n    tag_138:\n        /* \"#utility.yul\":5990:5994   */\n      dup3\n        /* \"#utility.yul\":5983:6088   */\n      sstore\n        /* \"#utility.yul\":5901:6094   */\n      pop\n        /* \"#utility.yul\":5825:6094   */\n      pop\n      pop\n      pop\n      jump\t// out\n        /* \"#utility.yul\":6100:6173   */\n    tag_64:\n        /* \"#utility.yul\":6145:6148   */\n      0x00\n        /* \"#utility.yul\":6166:6167   */\n      0x00\n        /* \"#utility.yul\":6159:6167   */\n      swap1\n      pop\n        /* \"#utility.yul\":6100:6173   */\n      swap1\n      jump\t// out\n        /* \"#utility.yul\":6179:6368   */\n    tag_65:\n        /* \"#utility.yul\":6256:6288   */\n      tag_142\n      tag_64\n      jump\t// in\n    tag_142:\n        /* \"#utility.yul\":6297:6362   */\n      tag_143\n        /* \"#utility.yul\":6355:6361   */\n      dup2\n        /* \"#utility.yul\":6347:6353   */\n      dup5\n        /* \"#utility.yul\":6341:6345   */\n      dup5\n        /* \"#utility.yul\":6297:6362   */\n      tag_63\n      jump\t// in\n    tag_143:\n        /* \"#utility.yul\":6232:6368   */\n      pop\n        /* \"#utility.yul\":6179:6368   */\n      pop\n      pop\n      jump\t// out\n        /* \"#utility.yul\":6374:6560   */\n    tag_66:\n        /* \"#utility.yul\":6434:6554   */\n    tag_145:\n        /* \"#utility.yul\":6451:6454   */\n      dup2\n        /* \"#utility.yul\":6444:6449   */\n      dup2\n        /* \"#utility.yul\":6441:6455   */\n      lt\n        /* \"#utility.yul\":6434:6554   */\n      iszero\n      tag_147\n      jumpi\n        /* \"#utility.yul\":6505:6544   */\n      tag_148\n        /* \"#utility.yul\":6542:6543   */\n      0x00\n        /* \"#utility.yul\":6535:6540   */\n      dup3\n        /* \"#utility.yul\":6505:6544   */\n      tag_65\n      jump\t// in\n    tag_148:\n        /* \"#utility.yul\":6478:6479   */\n      0x01\n        /* \"#utility.yul\":6471:6476   */\n      dup2\n        /* \"#utility.yul\":6467:6480   */\n      add\n        /* \"#utility.yul\":6458:6480   */\n      swap1\n      pop\n        /* \"#utility.yul\":6434:6554   */\n      jump(tag_145)\n    tag_147:\n        /* \"#utility.yul\":6374:6560   */\n      pop\n      pop\n      jump\t// out\n        /* \"#utility.yul\":6566:7109   */\n    tag_67:\n        /* \"#utility.yul\":6667:6669   */\n      0x1f\n        /* \"#utility.yul\":6662:6665   */\n      dup3\n        /* \"#utility.yul\":6659:6670   */\n      gt\n        /* \"#utility.yul\":6656:7102   */\n      iszero\n      tag_150\n      jumpi\n        /* \"#utility.yul\":6701:6739   */\n      tag_151\n        /* \"#utility.yul\":6733:6738   */\n      dup2\n        /* \"#utility.yul\":6701:6739   */\n      tag_55\n      jump\t// in\n    tag_151:\n        /* \"#utility.yul\":6785:6814   */\n      tag_152\n        /* \"#utility.yul\":6803:6813   */\n      dup5\n        /* \"#utility.yul\":6785:6814   */\n      tag_56\n      jump\t// in\n    tag_152:\n        /* \"#utility.yul\":6775:6783   */\n      dup2\n        /* \"#utility.yul\":6771:6815   */\n      add\n        /* \"#utility.yul\":6968:6970   */\n      0x20\n        /* \"#utility.yul\":6956:6966   */\n      dup6\n        /* \"#utility.yul\":6953:6971   */\n      lt\n        /* \"#utility.yul\":6950:6999   */\n      iszero\n      tag_153\n      jumpi\n        /* \"#utility.yul\":6989:6997   */\n      dup2\n        /* \"#utility.yul\":6974:6997   */\n      swap1\n      pop\n        /* \"#utility.yul\":6950:6999   */\n    tag_153:\n        /* \"#utility.yul\":7012:7092   */\n      tag_154\n        /* \"#utility.yul\":7068:7090   */\n      tag_155\n        /* \"#utility.yul\":7086:7089   */\n      dup6\n        /* \"#utility.yul\":7068:7090   */\n      tag_56\n      jump\t// in\n    tag_155:\n        /* \"#utility.yul\":7058:7066   */\n      dup4\n        /* \"#utility.yul\":7054:7091   */\n      add\n        /* \"#utility.yul\":7041:7052   */\n      dup3\n        /* \"#utility.yul\":7012:7092   */\n      tag_66\n      jump\t// in\n    tag_154:\n        /* \"#utility.yul\":6671:7102   */\n      pop\n      pop\n        /* \"#utility.yul\":6656:7102   */\n    tag_150:\n        /* \"#utility.yul\":6566:7109   */\n      pop\n      pop\n      pop\n      jump\t// out\n        /* \"#utility.yul\":7115:7232   */\n    tag_68:\n        /* \"#utility.yul\":7169:7177   */\n      0x00\n        /* \"#utility.yul\":7219:7224   */\n      dup3\n        /* \"#utility.yul\":7213:7217   */\n      dup3\n        /* \"#utility.yul\":7209:7225   */\n      shr\n        /* \"#utility.yul\":7188:7225   */\n      swap1\n      pop\n        /* \"#utility.yul\":7115:7232   */\n      swap3\n      swap2\n      pop\n      pop\n      jump\t// out\n        /* \"#utility.yul\":7238:7407   */\n    tag_69:\n        /* \"#utility.yul\":7282:7288   */\n      0x00\n        /* \"#utility.yul\":7315:7366   */\n      tag_158\n        /* \"#utility.yul\":7363:7364   */\n      0x00\n        /* \"#utility.yul\":7359:7365   */\n      not\n        /* \"#utility.yul\":7351:7356   */\n      dup5\n        /* \"#utility.yul\":7348:7349   */\n      0x08\n        /* \"#utility.yul\":7344:7357   */\n      mul\n        /* \"#utility.yul\":7315:7366   */\n      tag_68\n      jump\t// in\n    tag_158:\n        /* \"#utility.yul\":7311:7367   */\n      not\n        /* \"#utility.yul\":7396:7400   */\n      dup1\n        /* \"#utility.yul\":7390:7394   */\n      dup4\n        /* \"#utility.yul\":7386:7401   */\n      and\n        /* \"#utility.yul\":7376:7401   */\n      swap2\n      pop\n        /* \"#utility.yul\":7289:7407   */\n      pop\n        /* \"#utility.yul\":7238:7407   */\n      swap3\n      swap2\n      pop\n      pop\n      jump\t// out\n        /* \"#utility.yul\":7412:7707   */\n    tag_70:\n        /* \"#utility.yul\":7488:7492   */\n      0x00\n        /* \"#utility.yul\":7634:7663   */\n      tag_160\n        /* \"#utility.yul\":7659:7662   */\n      dup4\n        /* \"#utility.yul\":7653:7657   */\n      dup4\n        /* \"#utility.yul\":7634:7663   */\n      tag_69\n      jump\t// in\n    tag_160:\n        /* \"#utility.yul\":7626:7663   */\n      swap2\n      pop\n        /* \"#utility.yul\":7696:7699   */\n      dup3\n        /* \"#utility.yul\":7693:7694   */\n      0x02\n        /* \"#utility.yul\":7689:7700   */\n      mul\n        /* \"#utility.yul\":7683:7687   */\n      dup3\n        /* \"#utility.yul\":7680:7701   */\n      or\n        /* \"#utility.yul\":7672:7701   */\n      swap1\n      pop\n        /* \"#utility.yul\":7412:7707   */\n      swap3\n      swap2\n      pop\n      pop\n      jump\t// out\n        /* \"#utility.yul\":7712:9115   */\n    tag_28:\n        /* \"#utility.yul\":7836:7880   */\n      tag_162\n        /* \"#utility.yul\":7876:7879   */\n      dup4\n        /* \"#utility.yul\":7871:7874   */\n      dup4\n        /* \"#utility.yul\":7836:7880   */\n      tag_53\n      jump\t// in\n    tag_162:\n        /* \"#utility.yul\":7945:7963   */\n      0xffffffffffffffff\n        /* \"#utility.yul\":7937:7943   */\n      dup2\n        /* \"#utility.yul\":7934:7964   */\n      gt\n        /* \"#utility.yul\":7931:7987   */\n      iszero\n      tag_163\n      jumpi\n        /* \"#utility.yul\":7967:7985   */\n      tag_164\n      tag_54\n      jump\t// in\n    tag_164:\n        /* \"#utility.yul\":7931:7987   */\n    tag_163:\n        /* \"#utility.yul\":8011:8049   */\n      tag_165\n        /* \"#utility.yul\":8043:8047   */\n      dup3\n        /* \"#utility.yul\":8037:8048   */\n      sload\n        /* \"#utility.yul\":8011:8049   */\n      tag_21\n      jump\t// in\n    tag_165:\n        /* \"#utility.yul\":8096:8163   */\n      tag_166\n        /* \"#utility.yul\":8156:8162   */\n      dup3\n        /* \"#utility.yul\":8148:8154   */\n      dup3\n        /* \"#utility.yul\":8142:8146   */\n      dup6\n        /* \"#utility.yul\":8096:8163   */\n      tag_67\n      jump\t// in\n    tag_166:\n        /* \"#utility.yul\":8190:8191   */\n      0x00\n        /* \"#utility.yul\":8219:8221   */\n      0x1f\n        /* \"#utility.yul\":8211:8217   */\n      dup4\n        /* \"#utility.yul\":8208:8222   */\n      gt\n        /* \"#utility.yul\":8236:8237   */\n      0x01\n        /* \"#utility.yul\":8231:8863   */\n      dup2\n      eq\n      tag_168\n      jumpi\n        /* \"#utility.yul\":8907:8908   */\n      0x00\n        /* \"#utility.yul\":8924:8930   */\n      dup5\n        /* \"#utility.yul\":8921:9005   */\n      iszero\n      tag_169\n      jumpi\n        /* \"#utility.yul\":8980:8989   */\n      dup3\n        /* \"#utility.yul\":8975:8978   */\n      dup8\n        /* \"#utility.yul\":8971:8990   */\n      add\n        /* \"#utility.yul\":8958:8991   */\n      calldataload\n        /* \"#utility.yul\":8949:8991   */\n      swap1\n      pop\n        /* \"#utility.yul\":8921:9005   */\n    tag_169:\n        /* \"#utility.yul\":9031:9098   */\n      tag_170\n        /* \"#utility.yul\":9091:9097   */\n      dup6\n        /* \"#utility.yul\":9084:9089   */\n      dup3\n        /* \"#utility.yul\":9031:9098   */\n      tag_70\n      jump\t// in\n    tag_170:\n        /* \"#utility.yul\":9025:9029   */\n      dup7\n        /* \"#utility.yul\":9018:9099   */\n      sstore\n        /* \"#utility.yul\":8880:9109   */\n      pop\n        /* \"#utility.yul\":8201:9109   */\n      jump(tag_167)\n        /* \"#utility.yul\":8231:8863   */\n    tag_168:\n        /* \"#utility.yul\":8283:8287   */\n      0x1f\n        /* \"#utility.yul\":8279:8288   */\n      not\n        /* \"#utility.yul\":8271:8277   */\n      dup5\n        /* \"#utility.yul\":8267:8289   */\n      and\n        /* \"#utility.yul\":8317:8354   */\n      tag_171\n        /* \"#utility.yul\":8349:8353   */\n      dup7\n        /* \"#utility.yul\":8317:8354   */\n      tag_55\n      jump\t// in\n    tag_171:\n        /* \"#utility.yul\":8376:8377   */\n      0x00\n        /* \"#utility.yul\":8390:8605   */\n    tag_172:\n        /* \"#utility.yul\":8404:8411   */\n      dup3\n        /* \"#utility.yul\":8401:8402   */\n      dup2\n        /* \"#utility.yul\":8398:8412   */\n      lt\n        /* \"#utility.yul\":8390:8605   */\n      iszero\n      tag_174\n      jumpi\n        /* \"#utility.yul\":8490:8499   */\n      dup5\n        /* \"#utility.yul\":8485:8488   */\n      dup10\n        /* \"#utility.yul\":8481:8500   */\n      add\n        /* \"#utility.yul\":8468:8501   */\n      calldataload\n        /* \"#utility.yul\":8460:8466   */\n      dup3\n        /* \"#utility.yul\":8453:8502   */\n      sstore\n        /* \"#utility.yul\":8541:8542   */\n      0x01\n        /* \"#utility.yul\":8533:8539   */\n      dup3\n        /* \"#utility.yul\":8529:8543   */\n      add\n        /* \"#utility.yul\":8519:8543   */\n      swap2\n      pop\n        /* \"#utility.yul\":8588:8590   */\n      0x20\n        /* \"#utility.yul\":8577:8586   */\n      dup6\n        /* \"#utility.yul\":8573:8591   */\n      add\n        /* \"#utility.yul\":8560:8591   */\n      swap5\n      pop\n        /* \"#utility.yul\":8427:8431   */\n      0x20\n        /* \"#utility.yul\":8424:8425   */\n      dup2\n        /* \"#utility.yul\":8420:8432   */\n      add\n        /* \"#utility.yul\":8415:8432   */\n      swap1\n      pop\n        /* \"#utility.yul\":8390:8605   */\n      jump(tag_172)\n    tag_174:\n        /* \"#utility.yul\":8633:8639   */\n      dup7\n        /* \"#utility.yul\":8624:8631   */\n      dup4\n        /* \"#utility.yul\":8621:8640   */\n      lt\n        /* \"#utility.yul\":8618:8804   */\n      iszero\n      tag_175\n      jumpi\n        /* \"#utility.yul\":8698:8707   */\n      dup5\n        /* \"#utility.yul\":8693:8696   */\n      dup10\n        /* \"#utility.yul\":8689:8708   */\n      add\n        /* \"#utility.yul\":8676:8709   */\n      calldataload\n        /* \"#utility.yul\":8741:8789   */\n      tag_176\n        /* \"#utility.yul\":8783:8787   */\n      0x1f\n        /* \"#utility.yul\":8775:8781   */\n      dup10\n        /* \"#utility.yul\":8771:8788   */\n      and\n        /* \"#utility.yul\":8760:8769   */\n      dup3\n        /* \"#utility.yul\":8741:8789   */\n      tag_69\n      jump\t// in\n    tag_176:\n        /* \"#utility.yul\":8733:8739   */\n      dup4\n        /* \"#utility.yul\":8726:8790   */\n      sstore\n        /* \"#utility.yul\":8641:8804   */\n      pop\n        /* \"#utility.yul\":8618:8804   */\n    tag_175:\n        /* \"#utility.yul\":8850:8851   */\n      0x01\n        /* \"#utility.yul\":8846:8847   */\n      0x02\n        /* \"#utility.yul\":8838:8844   */\n      dup9\n        /* \"#utility.yul\":8834:8848   */\n      mul\n        /* \"#utility.yul\":8830:8852   */\n      add\n        /* \"#utility.yul\":8824:8828   */\n      dup9\n        /* \"#utility.yul\":8817:8853   */\n      sstore\n        /* \"#utility.yul\":8238:8863   */\n      pop\n      pop\n      pop\n        /* \"#utility.yul\":8201:9109   */\n    tag_167:\n      pop\n        /* \"#utility.yul\":7811:9115   */\n      pop\n      pop\n      pop\n        /* \"#utility.yul\":7712:9115   */\n      pop\n      pop\n      pop\n      jump\t// out\n        /* \"#utility.yul\":9121:9269   */\n    tag_71:\n        /* \"#utility.yul\":9219:9225   */\n      dup3\n        /* \"#utility.yul\":9214:9217   */\n      dup2\n        /* \"#utility.yul\":9209:9212   */\n      dup4\n        /* \"#utility.yul\":9196:9226   */\n      calldatacopy\n        /* \"#utility.yul\":9260:9261   */\n      0x00\n        /* \"#utility.yul\":9251:9257   */\n      dup4\n        /* \"#utility.yul\":9246:9249   */\n      dup4\n        /* \"#utility.yul\":9242:9258   */\n      add\n        /* \"#utility.yul\":9235:9262   */\n      mstore\n        /* \"#utility.yul\":9121:9269   */\n      pop\n      pop\n      pop\n      jump\t// out\n        /* \"#utility.yul\":9299:9616   */\n    tag_72:\n        /* \"#utility.yul\":9397:9400   */\n      0x00\n        /* \"#utility.yul\":9418:9489   */\n      tag_179\n        /* \"#utility.yul\":9482:9488   */\n      dup4\n        /* \"#utility.yul\":9477:9480   */\n      dup6\n        /* \"#utility.yul\":9418:9489   */\n      tag_37\n      jump\t// in\n    tag_179:\n        /* \"#utility.yul\":9411:9489   */\n      swap4\n      pop\n        /* \"#utility.yul\":9499:9555   */\n      tag_180\n        /* \"#utility.yul\":9548:9554   */\n      dup4\n        /* \"#utility.yul\":9543:9546   */\n      dup6\n        /* \"#utility.yul\":9536:9541   */\n      dup5\n        /* \"#utility.yul\":9499:9555   */\n      tag_71\n      jump\t// in\n    tag_180:\n        /* \"#utility.yul\":9580:9609   */\n      tag_181\n        /* \"#utility.yul\":9602:9608   */\n      dup4\n        /* \"#utility.yul\":9580:9609   */\n      tag_39\n      jump\t// in\n    tag_181:\n        /* \"#utility.yul\":9575:9578   */\n      dup5\n        /* \"#utility.yul\":9571:9610   */\n      add\n        /* \"#utility.yul\":9564:9610   */\n      swap1\n      pop\n        /* \"#utility.yul\":9299:9616   */\n      swap4\n      swap3\n      pop\n      pop\n      pop\n      jump\t// out\n        /* \"#utility.yul\":9622:9955   */\n    tag_30:\n        /* \"#utility.yul\":9745:9749   */\n      0x00\n        /* \"#utility.yul\":9783:9785   */\n      0x20\n        /* \"#utility.yul\":9772:9781   */\n      dup3\n        /* \"#utility.yul\":9768:9786   */\n      add\n        /* \"#utility.yul\":9760:9786   */\n      swap1\n      pop\n        /* \"#utility.yul\":9832:9841   */\n      dup2\n        /* \"#utility.yul\":9826:9830   */\n      dup2\n        /* \"#utility.yul\":9822:9842   */\n      sub\n        /* \"#utility.yul\":9818:9819   */\n      0x00\n        /* \"#utility.yul\":9807:9816   */\n      dup4\n        /* \"#utility.yul\":9803:9820   */\n      add\n        /* \"#utility.yul\":9796:9843   */\n      mstore\n        /* \"#utility.yul\":9860:9948   */\n      tag_183\n        /* \"#utility.yul\":9943:9947   */\n      dup2\n        /* \"#utility.yul\":9934:9940   */\n      dup5\n        /* \"#utility.yul\":9926:9932   */\n      dup7\n        /* \"#utility.yul\":9860:9948   */\n      tag_72\n      jump\t// in\n    tag_183:\n        /* \"#utility.yul\":9852:9948   */\n      swap1\n      pop\n        /* \"#utility.yul\":9622:9955   */\n      swap4\n      swap3\n      pop\n      pop\n      pop\n      jump\t// out\n\n    auxdata: 0xa264697066735822122064e437ad2b490e8b3a48dc3f9d45356e7811c385ebe504647769815822e0236e64736f6c634300081d0033\n}\n",
				"bytecode": {
					"linkReferences": {},
					"object": "6080604052348015600e575f5ffd5b506108168061001c5f395ff3fe608060405234801561000f575f5ffd5b506004361061003f575f3560e01c80638473bb1414610043578063cf9ad4c414610061578063ee91877c1461007d575b5f5ffd5b61004b6100ad565b6040516100589190610321565b60405180910390f35b61007b600480360381019061007691906103aa565b610177565b005b6100976004803603810190610092919061044f565b610217565b6040516100a49190610321565b60405180910390f35b60605f5f3373ffffffffffffffffffffffffffffffffffffffff1673ffffffffffffffffffffffffffffffffffffffff1681526020019081526020015f2080546100f6906104a7565b80601f0160208091040260200160405190810160405280929190818152602001828054610122906104a7565b801561016d5780601f106101445761010080835404028352916020019161016d565b820191905f5260205f20905b81548152906001019060200180831161015057829003601f168201915b5050505050905090565b81815f5f3373ffffffffffffffffffffffffffffffffffffffff1673ffffffffffffffffffffffffffffffffffffffff1681526020019081526020015f2091826101c29291906106b7565b503373ffffffffffffffffffffffffffffffffffffffff167f35975493f44c2b506f0e30b5ffe4cc8047cc738b9820ec698ffb14bc3b5aacd3838360405161020b9291906107be565b60405180910390a25050565b5f602052805f5260405f205f915090508054610232906104a7565b80601f016020809104026020016040519081016040528092919081815260200182805461025e906104a7565b80156102a95780601f10610280576101008083540402835291602001916102a9565b820191905f5260205f20905b81548152906001019060200180831161028c57829003601f168201915b505050505081565b5f81519050919050565b5f82825260208201905092915050565b8281835e5f83830152505050565b5f601f19601f8301169050919050565b5f6102f3826102b1565b6102fd81856102bb565b935061030d8185602086016102cb565b610316816102d9565b840191505092915050565b5f6020820190508181035f83015261033981846102e9565b905092915050565b5f5ffd5b5f5ffd5b5f5ffd5b5f5ffd5b5f5ffd5b5f5f83601f84011261036a57610369610349565b5b8235905067ffffffffffffffff8111156103875761038661034d565b5b6020830191508360018202830111156103a3576103a2610351565b5b9250929050565b5f5f602083850312156103c0576103bf610341565b5b5f83013567ffffffffffffffff8111156103dd576103dc610345565b5b6103e985828601610355565b92509250509250929050565b5f73ffffffffffffffffffffffffffffffffffffffff82169050919050565b5f61041e826103f5565b9050919050565b61042e81610414565b8114610438575f5ffd5b50565b5f8135905061044981610425565b92915050565b5f6020828403121561046457610463610341565b5b5f6104718482850161043b565b91505092915050565b7f4e487b71000000000000000000000000000000000000000000000000000000005f52602260045260245ffd5b5f60028204905060018216806104be57607f821691505b6020821081036104d1576104d061047a565b5b50919050565b5f82905092915050565b7f4e487b71000000000000000000000000000000000000000000000000000000005f52604160045260245ffd5b5f819050815f5260205f209050919050565b5f6020601f8301049050919050565b5f82821b905092915050565b5f6008830261056a7fffffffffffffffffffffffffffffffffffffffffffffffffffffffffffffffff8261052f565b610574868361052f565b95508019841693508086168417925050509392505050565b5f819050919050565b5f819050919050565b5f6105b86105b36105ae8461058c565b610595565b61058c565b9050919050565b5f819050919050565b6105d18361059e565b6105e56105dd826105bf565b84845461053b565b825550505050565b5f5f905090565b6105fc6105ed565b6106078184846105c8565b505050565b5b8181101561062a5761061f5f826105f4565b60018101905061060d565b5050565b601f82111561066f576106408161050e565b61064984610520565b81016020851015610658578190505b61066c61066485610520565b83018261060c565b50505b505050565b5f82821c905092915050565b5f61068f5f1984600802610674565b1980831691505092915050565b5f6106a78383610680565b9150826002028217905092915050565b6106c183836104d7565b67ffffffffffffffff8111156106da576106d96104e1565b5b6106e482546104a7565b6106ef82828561062e565b5f601f83116001811461071c575f841561070a578287013590505b610714858261069c565b86555061077b565b601f19841661072a8661050e565b5f5b828110156107515784890135825560018201915060208501945060208101905061072c565b8683101561076e578489013561076a601f891682610680565b8355505b6001600288020188555050505b50505050505050565b828183375f83830152505050565b5f61079d83856102bb565b93506107aa838584610784565b6107b3836102d9565b840190509392505050565b5f6020820190508181035f8301526107d7818486610792565b9050939250505056fea264697066735822122064e437ad2b490e8b3a48dc3f9d45356e7811c385ebe504647769815822e0236e64736f6c634300081d0033",
					"opcodes": "PUSH1 0x80 PUSH1 0x40 MSTORE CALLVALUE DUP1 ISZERO PUSH1 0xE JUMPI PUSH0 PUSH0 REVERT JUMPDEST POP PUSH2 0x816 DUP1 PUSH2 0x1C PUSH0 CODECOPY PUSH0 RETURN INVALID PUSH1 0x80 PUSH1 0x40 MSTORE CALLVALUE DUP1 ISZERO PUSH2 0xF JUMPI PUSH0 PUSH0 REVERT JUMPDEST POP PUSH1 0x4 CALLDATASIZE LT PUSH2 0x3F JUMPI PUSH0 CALLDATALOAD PUSH1 0xE0 SHR DUP1 PUSH4 0x8473BB14 EQ PUSH2 0x43 JUMPI DUP1 PUSH4 0xCF9AD4C4 EQ PUSH2 0x61 JUMPI DUP1 PUSH4 0xEE91877C EQ PUSH2 0x7D JUMPI JUMPDEST PUSH0 PUSH0 REVERT JUMPDEST PUSH2 0x4B PUSH2 0xAD JUMP JUMPDEST PUSH1 0x40 MLOAD PUSH2 0x58 SWAP2 SWAP1 PUSH2 0x321 JUMP JUMPDEST PUSH1 0x40 MLOAD DUP1 SWAP2 SUB SWAP1 RETURN JUMPDEST PUSH2 0x7B PUSH1 0x4 DUP1 CALLDATASIZE SUB DUP2 ADD SWAP1 PUSH2 0x76 SWAP2 SWAP1 PUSH2 0x3AA JUMP JUMPDEST PUSH2 0x177 JUMP JUMPDEST STOP JUMPDEST PUSH2 0x97 PUSH1 0x4 DUP1 CALLDATASIZE SUB DUP2 ADD SWAP1 PUSH2 0x92 SWAP2 SWAP1 PUSH2 0x44F JUMP JUMPDEST PUSH2 0x217 JUMP JUMPDEST PUSH1 0x40 MLOAD PUSH2 0xA4 SWAP2 SWAP1 PUSH2 0x321 JUMP JUMPDEST PUSH1 0x40 MLOAD DUP1 SWAP2 SUB SWAP1 RETURN JUMPDEST PUSH1 0x60 PUSH0 PUSH0 CALLER PUSH20 0xFFFFFFFFFFFFFFFFFFFFFFFFFFFFFFFFFFFFFFFF AND PUSH20 0xFFFFFFFFFFFFFFFFFFFFFFFFFFFFFFFFFFFFFFFF AND DUP2 MSTORE PUSH1 0x20 ADD SWAP1 DUP2 MSTORE PUSH1 0x20 ADD PUSH0 KECCAK256 DUP1 SLOAD PUSH2 0xF6 SWAP1 PUSH2 0x4A7 JUMP JUMPDEST DUP1 PUSH1 0x1F ADD PUSH1 0x20 DUP1 SWAP2 DIV MUL PUSH1 0x20 ADD PUSH1 0x40 MLOAD SWAP1 DUP2 ADD PUSH1 0x40 MSTORE DUP1 SWAP3 SWAP2 SWAP1 DUP2 DUP2 MSTORE PUSH1 0x20 ADD DUP3 DUP1 SLOAD PUSH2 0x122 SWAP1 PUSH2 0x4A7 JUMP JUMPDEST DUP1 ISZERO PUSH2 0x16D JUMPI DUP1 PUSH1 0x1F LT PUSH2 0x144 JUMPI PUSH2 0x100 DUP1 DUP4 SLOAD DIV MUL DUP4 MSTORE SWAP2 PUSH1 0x20 ADD SWAP2 PUSH2 0x16D JUMP JUMPDEST DUP3 ADD SWAP2 SWAP1 PUSH0 MSTORE PUSH1 0x20 PUSH0 KECCAK256 SWAP1 JUMPDEST DUP2 SLOAD DUP2 MSTORE SWAP1 PUSH1 0x1 ADD SWAP1 PUSH1 0x20 ADD DUP1 DUP4 GT PUSH2 0x150 JUMPI DUP3 SWAP1 SUB PUSH1 0x1F AND DUP3 ADD SWAP2 JUMPDEST POP POP POP POP POP SWAP1 POP SWAP1 JUMP JUMPDEST DUP2 DUP2 PUSH0 PUSH0 CALLER PUSH20 0xFFFFFFFFFFFFFFFFFFFFFFFFFFFFFFFFFFFFFFFF AND PUSH20 0xFFFFFFFFFFFFFFFFFFFFFFFFFFFFFFFFFFFFFFFF AND DUP2 MSTORE PUSH1 0x20 ADD SWAP1 DUP2 MSTORE PUSH1 0x20 ADD PUSH0 KECCAK256 SWAP2 DUP3 PUSH2 0x1C2 SWAP3 SWAP2 SWAP1 PUSH2 0x6B7 JUMP JUMPDEST POP CALLER PUSH20 0xFFFFFFFFFFFFFFFFFFFFFFFFFFFFFFFFFFFFFFFF AND PUSH32 0x35975493F44C2B506F0E30B5FFE4CC8047CC738B9820EC698FFB14BC3B5AACD3 DUP4 DUP4 PUSH1 0x40 MLOAD PUSH2 0x20B SWAP3 SWAP2 SWAP1 PUSH2 0x7BE JUMP JUMPDEST PUSH1 0x40 MLOAD DUP1 SWAP2 SUB SWAP1 LOG2 POP POP JUMP JUMPDEST PUSH0 PUSH1 0x20 MSTORE DUP1 PUSH0 MSTORE PUSH1 0x40 PUSH0 KECCAK256 PUSH0 SWAP2 POP SWAP1 POP DUP1 SLOAD PUSH2 0x232 SWAP1 PUSH2 0x4A7 JUMP JUMPDEST DUP1 PUSH1 0x1F ADD PUSH1 0x20 DUP1 SWAP2 DIV MUL PUSH1 0x20 ADD PUSH1 0x40 MLOAD SWAP1 DUP2 ADD PUSH1 0x40 MSTORE DUP1 SWAP3 SWAP2 SWAP1 DUP2 DUP2 MSTORE PUSH1 0x20 ADD DUP3 DUP1 SLOAD PUSH2 0x25E SWAP1 PUSH2 0x4A7 JUMP JUMPDEST DUP1 ISZERO PUSH2 0x2A9 JUMPI DUP1 PUSH1 0x1F LT PUSH2 0x280 JUMPI PUSH2 0x100 DUP1 DUP4 SLOAD DIV MUL DUP4 MSTORE SWAP2 PUSH1 0x20 ADD SWAP2 PUSH2 0x2A9 JUMP JUMPDEST DUP3 ADD SWAP2 SWAP1 PUSH0 MSTORE PUSH1 0x20 PUSH0 KECCAK256 SWAP1 JUMPDEST DUP2 SLOAD DUP2 MSTORE SWAP1 PUSH1 0x1 ADD SWAP1 PUSH1 0x20 ADD DUP1 DUP4 GT PUSH2 0x28C JUMPI DUP3 SWAP1 SUB PUSH1 0x1F AND DUP3 ADD SWAP2 JUMPDEST POP POP POP POP POP DUP2 JUMP JUMPDEST PUSH0 DUP2 MLOAD SWAP1 POP SWAP2 SWAP1 POP JUMP JUMPDEST PUSH0 DUP3 DUP3 MSTORE PUSH1 0x20 DUP3 ADD SWAP1 POP SWAP3 SWAP2 POP POP JUMP JUMPDEST DUP3 DUP2 DUP4 MCOPY PUSH0 DUP4 DUP4 ADD MSTORE POP POP POP JUMP JUMPDEST PUSH0 PUSH1 0x1F NOT PUSH1 0x1F DUP4 ADD AND SWAP1 POP SWAP2 SWAP1 POP JUMP JUMPDEST PUSH0 PUSH2 0x2F3 DUP3 PUSH2 0x2B1 JUMP JUMPDEST PUSH2 0x2FD DUP2 DUP6 PUSH2 0x2BB JUMP JUMPDEST SWAP4 POP PUSH2 0x30D DUP2 DUP6 PUSH1 0x20 DUP7 ADD PUSH2 0x2CB JUMP JUMPDEST PUSH2 0x316 DUP2 PUSH2 0x2D9 JUMP JUMPDEST DUP5 ADD SWAP2 POP POP SWAP3 SWAP2 POP POP JUMP JUMPDEST PUSH0 PUSH1 0x20 DUP3 ADD SWAP1 POP DUP2 DUP2 SUB PUSH0 DUP4 ADD MSTORE PUSH2 0x339 DUP2 DUP5 PUSH2 0x2E9 JUMP JUMPDEST SWAP1 POP SWAP3 SWAP2 POP POP JUMP JUMPDEST PUSH0 PUSH0 REVERT JUMPDEST PUSH0 PUSH0 REVERT JUMPDEST PUSH0 PUSH0 REVERT JUMPDEST PUSH0 PUSH0 REVERT JUMPDEST PUSH0 PUSH0 REVERT JUMPDEST PUSH0 PUSH0 DUP4 PUSH1 0x1F DUP5 ADD SLT PUSH2 0x36A JUMPI PUSH2 0x369 PUSH2 0x349 JUMP JUMPDEST JUMPDEST DUP3 CALLDATALOAD SWAP1 POP PUSH8 0xFFFFFFFFFFFFFFFF DUP2 GT ISZERO PUSH2 0x387 JUMPI PUSH2 0x386 PUSH2 0x34D JUMP JUMPDEST JUMPDEST PUSH1 0x20 DUP4 ADD SWAP2 POP DUP4 PUSH1 0x1 DUP3 MUL DUP4 ADD GT ISZERO PUSH2 0x3A3 JUMPI PUSH2 0x3A2 PUSH2 0x351 JUMP JUMPDEST JUMPDEST SWAP3 POP SWAP3 SWAP1 POP JUMP JUMPDEST PUSH0 PUSH0 PUSH1 0x20 DUP4 DUP6 SUB SLT ISZERO PUSH2 0x3C0 JUMPI PUSH2 0x3BF PUSH2 0x341 JUMP JUMPDEST JUMPDEST PUSH0 DUP4 ADD CALLDATALOAD PUSH8 0xFFFFFFFFFFFFFFFF DUP2 GT ISZERO PUSH2 0x3DD JUMPI PUSH2 0x3DC PUSH2 0x345 JUMP JUMPDEST JUMPDEST PUSH2 0x3E9 DUP6 DUP3 DUP7 ADD PUSH2 0x355 JUMP JUMPDEST SWAP3 POP SWAP3 POP POP SWAP3 POP SWAP3 SWAP1 POP JUMP JUMPDEST PUSH0 PUSH20 0xFFFFFFFFFFFFFFFFFFFFFFFFFFFFFFFFFFFFFFFF DUP3 AND SWAP1 POP SWAP2 SWAP1 POP JUMP JUMPDEST PUSH0 PUSH2 0x41E DUP3 PUSH2 0x3F5 JUMP JUMPDEST SWAP1 POP SWAP2 SWAP1 POP JUMP JUMPDEST PUSH2 0x42E DUP2 PUSH2 0x414 JUMP JUMPDEST DUP2 EQ PUSH2 0x438 JUMPI PUSH0 PUSH0 REVERT JUMPDEST POP JUMP JUMPDEST PUSH0 DUP2 CALLDATALOAD SWAP1 POP PUSH2 0x449 DUP2 PUSH2 0x425 JUMP JUMPDEST SWAP3 SWAP2 POP POP JUMP JUMPDEST PUSH0 PUSH1 0x20 DUP3 DUP5 SUB SLT ISZERO PUSH2 0x464 JUMPI PUSH2 0x463 PUSH2 0x341 JUMP JUMPDEST JUMPDEST PUSH0 PUSH2 0x471 DUP5 DUP3 DUP6 ADD PUSH2 0x43B JUMP JUMPDEST SWAP2 POP POP SWAP3 SWAP2 POP POP JUMP JUMPDEST PUSH32 0x4E487B7100000000000000000000000000000000000000000000000000000000 PUSH0 MSTORE PUSH1 0x22 PUSH1 0x4 MSTORE PUSH1 0x24 PUSH0 REVERT JUMPDEST PUSH0 PUSH1 0x2 DUP3 DIV SWAP1 POP PUSH1 0x1 DUP3 AND DUP1 PUSH2 0x4BE JUMPI PUSH1 0x7F DUP3 AND SWAP2 POP JUMPDEST PUSH1 0x20 DUP3 LT DUP2 SUB PUSH2 0x4D1 JUMPI PUSH2 0x4D0 PUSH2 0x47A JUMP JUMPDEST JUMPDEST POP SWAP2 SWAP1 POP JUMP JUMPDEST PUSH0 DUP3 SWAP1 POP SWAP3 SWAP2 POP POP JUMP JUMPDEST PUSH32 0x4E487B7100000000000000000000000000000000000000000000000000000000 PUSH0 MSTORE PUSH1 0x41 PUSH1 0x4 MSTORE PUSH1 0x24 PUSH0 REVERT JUMPDEST PUSH0 DUP2 SWAP1 POP DUP2 PUSH0 MSTORE PUSH1 0x20 PUSH0 KECCAK256 SWAP1 POP SWAP2 SWAP1 POP JUMP JUMPDEST PUSH0 PUSH1 0x20 PUSH1 0x1F DUP4 ADD DIV SWAP1 POP SWAP2 SWAP1 POP JUMP JUMPDEST PUSH0 DUP3 DUP3 SHL SWAP1 POP SWAP3 SWAP2 POP POP JUMP JUMPDEST PUSH0 PUSH1 0x8 DUP4 MUL PUSH2 0x56A PUSH32 0xFFFFFFFFFFFFFFFFFFFFFFFFFFFFFFFFFFFFFFFFFFFFFFFFFFFFFFFFFFFFFFFF DUP3 PUSH2 0x52F JUMP JUMPDEST PUSH2 0x574 DUP7 DUP4 PUSH2 0x52F JUMP JUMPDEST SWAP6 POP DUP1 NOT DUP5 AND SWAP4 POP DUP1 DUP7 AND DUP5 OR SWAP3 POP POP POP SWAP4 SWAP3 POP POP POP JUMP JUMPDEST PUSH0 DUP2 SWAP1 POP SWAP2 SWAP1 POP JUMP JUMPDEST PUSH0 DUP2 SWAP1 POP SWAP2 SWAP1 POP JUMP JUMPDEST PUSH0 PUSH2 0x5B8 PUSH2 0x5B3 PUSH2 0x5AE DUP5 PUSH2 0x58C JUMP JUMPDEST PUSH2 0x595 JUMP JUMPDEST PUSH2 0x58C JUMP JUMPDEST SWAP1 POP SWAP2 SWAP1 POP JUMP JUMPDEST PUSH0 DUP2 SWAP1 POP SWAP2 SWAP1 POP JUMP JUMPDEST PUSH2 0x5D1 DUP4 PUSH2 0x59E JUMP JUMPDEST PUSH2 0x5E5 PUSH2 0x5DD DUP3 PUSH2 0x5BF JUMP JUMPDEST DUP5 DUP5 SLOAD PUSH2 0x53B JUMP JUMPDEST DUP3 SSTORE POP POP POP POP JUMP JUMPDEST PUSH0 PUSH0 SWAP1 POP SWAP1 JUMP JUMPDEST PUSH2 0x5FC PUSH2 0x5ED JUMP JUMPDEST PUSH2 0x607 DUP2 DUP5 DUP5 PUSH2 0x5C8 JUMP JUMPDEST POP POP POP JUMP JUMPDEST JUMPDEST DUP2 DUP2 LT ISZERO PUSH2 0x62A JUMPI PUSH2 0x61F PUSH0 DUP3 PUSH2 0x5F4 JUMP JUMPDEST PUSH1 0x1 DUP2 ADD SWAP1 POP PUSH2 0x60D JUMP JUMPDEST POP POP JUMP JUMPDEST PUSH1 0x1F DUP3 GT ISZERO PUSH2 0x66F JUMPI PUSH2 0x640 DUP2 PUSH2 0x50E JUMP JUMPDEST PUSH2 0x649 DUP5 PUSH2 0x520 JUMP JUMPDEST DUP2 ADD PUSH1 0x20 DUP6 LT ISZERO PUSH2 0x658 JUMPI DUP2 SWAP1 POP JUMPDEST PUSH2 0x66C PUSH2 0x664 DUP6 PUSH2 0x520 JUMP JUMPDEST DUP4 ADD DUP3 PUSH2 0x60C JUMP JUMPDEST POP POP JUMPDEST POP POP POP JUMP JUMPDEST PUSH0 DUP3 DUP3 SHR SWAP1 POP SWAP3 SWAP2 POP POP JUMP JUMPDEST PUSH0 PUSH2 0x68F PUSH0 NOT DUP5 PUSH1 0x8 MUL PUSH2 0x674 JUMP JUMPDEST NOT DUP1 DUP4 AND SWAP2 POP POP SWAP3 SWAP2 POP POP JUMP JUMPDEST PUSH0 PUSH2 0x6A7 DUP4 DUP4 PUSH2 0x680 JUMP JUMPDEST SWAP2 POP DUP3 PUSH1 0x2 MUL DUP3 OR SWAP1 POP SWAP3 SWAP2 POP POP JUMP JUMPDEST PUSH2 0x6C1 DUP4 DUP4 PUSH2 0x4D7 JUMP JUMPDEST PUSH8 0xFFFFFFFFFFFFFFFF DUP2 GT ISZERO PUSH2 0x6DA JUMPI PUSH2 0x6D9 PUSH2 0x4E1 JUMP JUMPDEST JUMPDEST PUSH2 0x6E4 DUP3 SLOAD PUSH2 0x4A7 JUMP JUMPDEST PUSH2 0x6EF DUP3 DUP3 DUP6 PUSH2 0x62E JUMP JUMPDEST PUSH0 PUSH1 0x1F DUP4 GT PUSH1 0x1 DUP2 EQ PUSH2 0x71C JUMPI PUSH0 DUP5 ISZERO PUSH2 0x70A JUMPI DUP3 DUP8 ADD CALLDATALOAD SWAP1 POP JUMPDEST PUSH2 0x714 DUP6 DUP3 PUSH2 0x69C JUMP JUMPDEST DUP7 SSTORE POP PUSH2 0x77B JUMP JUMPDEST PUSH1 0x1F NOT DUP5 AND PUSH2 0x72A DUP7 PUSH2 0x50E JUMP JUMPDEST PUSH0 JUMPDEST DUP3 DUP2 LT ISZERO PUSH2 0x751 JUMPI DUP5 DUP10 ADD CALLDATALOAD DUP3 SSTORE PUSH1 0x1 DUP3 ADD SWAP2 POP PUSH1 0x20 DUP6 ADD SWAP5 POP PUSH1 0x20 DUP2 ADD SWAP1 POP PUSH2 0x72C JUMP JUMPDEST DUP7 DUP4 LT ISZERO PUSH2 0x76E JUMPI DUP5 DUP10 ADD CALLDATALOAD PUSH2 0x76A PUSH1 0x1F DUP10 AND DUP3 PUSH2 0x680 JUMP JUMPDEST DUP4 SSTORE POP JUMPDEST PUSH1 0x1 PUSH1 0x2 DUP9 MUL ADD DUP9 SSTORE POP POP POP JUMPDEST POP POP POP POP POP POP POP JUMP JUMPDEST DUP3 DUP2 DUP4 CALLDATACOPY PUSH0 DUP4 DUP4 ADD MSTORE POP POP POP JUMP JUMPDEST PUSH0 PUSH2 0x79D DUP4 DUP6 PUSH2 0x2BB JUMP JUMPDEST SWAP4 POP PUSH2 0x7AA DUP4 DUP6 DUP5 PUSH2 0x784 JUMP JUMPDEST PUSH2 0x7B3 DUP4 PUSH2 0x2D9 JUMP JUMPDEST DUP5 ADD SWAP1 POP SWAP4 SWAP3 POP POP POP JUMP JUMPDEST PUSH0 PUSH1 0x20 DUP3 ADD SWAP1 POP DUP2 DUP2 SUB PUSH0 DUP4 ADD MSTORE PUSH2 0x7D7 DUP2 DUP5 DUP7 PUSH2 0x792 JUMP JUMPDEST SWAP1 POP SWAP4 SWAP3 POP POP POP JUMP INVALID LOG2 PUSH5 0x6970667358 0x22 SLT KECCAK256 PUSH5 0xE437AD2B49 0xE DUP12 GASPRICE BASEFEE 0xDC EXTCODEHASH SWAP14 GASLIMIT CALLDATALOAD PUSH15 0x7811C385EBE504647769815822E023 PUSH15 0x64736F6C634300081D003300000000 "
				},
				"gasEstimates": {
					"creation": {
						"codeDepositCost": "414000",
						"executionCost": "447",
						"totalCost": "414447"
					},
					"external": {
						"bindUsername(string)": "infinite",
						"getMyUsername()": "infinite",
						"usernames(address)": "infinite"
					}
				},
				"methodIdentifiers": {
					"bindUsername(string)": "cf9ad4c4",
					"getMyUsername()": "8473bb14",
					"usernames(address)": "ee91877c"
				}
			},
			"storageLayout": {
				"storage": [
					{
						"astId": 5,
						"contract": "B/Bind/Self-Binding (Address ↔ Username).sol:SelfBinding",
						"label": "usernames",
						"offset": 0,
						"slot": "0",
						"type": "t_mapping(t_address,t_string_storage)"
					}
				],
				"types": {
					"t_address": {
						"encoding": "inplace",
						"label": "address",
						"numberOfBytes": "20"
					},
					"t_mapping(t_address,t_string_storage)": {
						"encoding": "mapping",
						"key": "t_address",
						"label": "mapping(address => string)",
						"numberOfBytes": "32",
						"value": "t_string_storage"
					},
					"t_string_storage": {
						"encoding": "bytes",
						"label": "string",
						"numberOfBytes": "32"
					}
				}
			},
			"userdoc": {
				"kind": "user",
				"methods": {
					"bindUsername(string)": {
						"notice": "Allows a user to bind a username to their address."
					},
					"getMyUsername()": {
						"notice": "Retrieve your own username."
					}
				},
				"version": 1
			}
		}
	}
}