{
	"S/Secure Shell (SSH)/Secure Shell (SSH).sol": {
		"Attack_RoleFastRun": {
			"abi": [
				{
					"inputs": [
						{
							"internalType": "contract SSH_Role",
							"name": "shell",
							"type": "address"
						},
						{
							"internalType": "bytes",
							"name": "cmd",
							"type": "bytes"
						}
					],
					"name": "race",
					"outputs": [],
					"stateMutability": "nonpayable",
					"type": "function"
				}
			],
			"devdoc": {
				"kind": "dev",
				"methods": {},
				"version": 1
			},
			"evm": {
				"assembly": "    /* \"S/Secure Shell (SSH)/Secure Shell (SSH).sol\":6450:6714  contract Attack_RoleFastRun {... */\n  mstore(0x40, 0x80)\n  callvalue\n  dup1\n  iszero\n  tag_1\n  jumpi\n  0x00\n  dup1\n  revert\ntag_1:\n  pop\n  dataSize(sub_0)\n  dup1\n  dataOffset(sub_0)\n  0x00\n  codecopy\n  0x00\n  return\nstop\n\nsub_0: assembly {\n        /* \"S/Secure Shell (SSH)/Secure Shell (SSH).sol\":6450:6714  contract Attack_RoleFastRun {... */\n      mstore(0x40, 0x80)\n      callvalue\n      dup1\n      iszero\n      tag_1\n      jumpi\n      0x00\n      dup1\n      revert\n    tag_1:\n      pop\n      jumpi(tag_2, lt(calldatasize, 0x04))\n      shr(0xe0, calldataload(0x00))\n      dup1\n      0xd1b6fdaf\n      eq\n      tag_3\n      jumpi\n    tag_2:\n      0x00\n      dup1\n      revert\n        /* \"S/Secure Shell (SSH)/Secure Shell (SSH).sol\":6484:6712  function race(SSH_Role shell, bytes calldata cmd) external {... */\n    tag_3:\n      tag_4\n      0x04\n      dup1\n      calldatasize\n      sub\n      dup2\n      add\n      swap1\n      tag_5\n      swap2\n      swap1\n      tag_6\n      jump\t// in\n    tag_5:\n      tag_7\n      jump\t// in\n    tag_4:\n      stop\n    tag_7:\n        /* \"S/Secure Shell (SSH)/Secure Shell (SSH).sol\":6553:6558  shell */\n      dup3\n        /* \"S/Secure Shell (SSH)/Secure Shell (SSH).sol\":6553:6564  shell.queue */\n      0xffffffffffffffffffffffffffffffffffffffff\n      and\n      0x23da2f73\n        /* \"S/Secure Shell (SSH)/Secure Shell (SSH).sol\":6565:6568  cmd */\n      dup4\n      dup4\n        /* \"S/Secure Shell (SSH)/Secure Shell (SSH).sol\":6553:6569  shell.queue(cmd) */\n      mload(0x40)\n      dup4\n      0xffffffff\n      and\n      0xe0\n      shl\n      dup2\n      mstore\n      0x04\n      add\n      tag_9\n      swap3\n      swap2\n      swap1\n      tag_10\n      jump\t// in\n    tag_9:\n      0x20\n      mload(0x40)\n      dup1\n      dup4\n      sub\n      dup2\n      0x00\n      dup8\n      gas\n      call\n      iszero\n      dup1\n      iszero\n      tag_12\n      jumpi\n      returndatasize\n      0x00\n      dup1\n      returndatacopy\n      revert(0x00, returndatasize)\n    tag_12:\n      pop\n      pop\n      pop\n      pop\n      mload(0x40)\n      returndatasize\n      not(0x1f)\n      0x1f\n      dup3\n      add\n      and\n      dup3\n      add\n      dup1\n      0x40\n      mstore\n      pop\n      dup2\n      add\n      swap1\n      tag_13\n      swap2\n      swap1\n      tag_14\n      jump\t// in\n    tag_13:\n      pop\n        /* \"S/Secure Shell (SSH)/Secure Shell (SSH).sol\":6663:6668  shell */\n      dup3\n        /* \"S/Secure Shell (SSH)/Secure Shell (SSH).sol\":6663:6673  shell.exec */\n      0xffffffffffffffffffffffffffffffffffffffff\n      and\n      0x3f47158d\n        /* \"S/Secure Shell (SSH)/Secure Shell (SSH).sol\":6674:6677  cmd */\n      dup4\n      dup4\n        /* \"S/Secure Shell (SSH)/Secure Shell (SSH).sol\":6663:6682  shell.exec(cmd, \"\") */\n      mload(0x40)\n      dup4\n      0xffffffff\n      and\n      0xe0\n      shl\n      dup2\n      mstore\n      0x04\n      add\n      tag_15\n      swap3\n      swap2\n      swap1\n      tag_16\n      jump\t// in\n    tag_15:\n      0x00\n      mload(0x40)\n      dup1\n      dup4\n      sub\n      dup2\n      0x00\n      dup8\n      dup1\n      extcodesize\n      iszero\n      dup1\n      iszero\n      tag_17\n      jumpi\n      0x00\n      dup1\n      revert\n    tag_17:\n      pop\n      gas\n      call\n      iszero\n      dup1\n      iszero\n      tag_19\n      jumpi\n      returndatasize\n      0x00\n      dup1\n      returndatacopy\n      revert(0x00, returndatasize)\n    tag_19:\n      pop\n      pop\n      pop\n      pop\n        /* \"S/Secure Shell (SSH)/Secure Shell (SSH).sol\":6484:6712  function race(SSH_Role shell, bytes calldata cmd) external {... */\n      pop\n      pop\n      pop\n      jump\t// out\n        /* \"#utility.yul\":88:205   */\n    tag_21:\n        /* \"#utility.yul\":197:198   */\n      0x00\n        /* \"#utility.yul\":194:195   */\n      dup1\n        /* \"#utility.yul\":187:199   */\n      revert\n        /* \"#utility.yul\":211:328   */\n    tag_22:\n        /* \"#utility.yul\":320:321   */\n      0x00\n        /* \"#utility.yul\":317:318   */\n      dup1\n        /* \"#utility.yul\":310:322   */\n      revert\n        /* \"#utility.yul\":334:460   */\n    tag_23:\n        /* \"#utility.yul\":371:378   */\n      0x00\n        /* \"#utility.yul\":411:453   */\n      0xffffffffffffffffffffffffffffffffffffffff\n        /* \"#utility.yul\":404:409   */\n      dup3\n        /* \"#utility.yul\":400:454   */\n      and\n        /* \"#utility.yul\":389:454   */\n      swap1\n      pop\n        /* \"#utility.yul\":334:460   */\n      swap2\n      swap1\n      pop\n      jump\t// out\n        /* \"#utility.yul\":466:562   */\n    tag_24:\n        /* \"#utility.yul\":503:510   */\n      0x00\n        /* \"#utility.yul\":532:556   */\n      tag_47\n        /* \"#utility.yul\":550:555   */\n      dup3\n        /* \"#utility.yul\":532:556   */\n      tag_23\n      jump\t// in\n    tag_47:\n        /* \"#utility.yul\":521:556   */\n      swap1\n      pop\n        /* \"#utility.yul\":466:562   */\n      swap2\n      swap1\n      pop\n      jump\t// out\n        /* \"#utility.yul\":568:680   */\n    tag_25:\n        /* \"#utility.yul\":621:628   */\n      0x00\n        /* \"#utility.yul\":650:674   */\n      tag_49\n        /* \"#utility.yul\":668:673   */\n      dup3\n        /* \"#utility.yul\":650:674   */\n      tag_24\n      jump\t// in\n    tag_49:\n        /* \"#utility.yul\":639:674   */\n      swap1\n      pop\n        /* \"#utility.yul\":568:680   */\n      swap2\n      swap1\n      pop\n      jump\t// out\n        /* \"#utility.yul\":686:840   */\n    tag_26:\n        /* \"#utility.yul\":775:815   */\n      tag_51\n        /* \"#utility.yul\":809:814   */\n      dup2\n        /* \"#utility.yul\":775:815   */\n      tag_25\n      jump\t// in\n    tag_51:\n        /* \"#utility.yul\":768:773   */\n      dup2\n        /* \"#utility.yul\":765:816   */\n      eq\n        /* \"#utility.yul\":755:834   */\n      tag_52\n      jumpi\n        /* \"#utility.yul\":830:831   */\n      0x00\n        /* \"#utility.yul\":827:828   */\n      dup1\n        /* \"#utility.yul\":820:832   */\n      revert\n        /* \"#utility.yul\":755:834   */\n    tag_52:\n        /* \"#utility.yul\":686:840   */\n      pop\n      jump\t// out\n        /* \"#utility.yul\":846:1017   */\n    tag_27:\n        /* \"#utility.yul\":908:913   */\n      0x00\n        /* \"#utility.yul\":946:952   */\n      dup2\n        /* \"#utility.yul\":933:953   */\n      calldataload\n        /* \"#utility.yul\":924:953   */\n      swap1\n      pop\n        /* \"#utility.yul\":962:1011   */\n      tag_54\n        /* \"#utility.yul\":1005:1010   */\n      dup2\n        /* \"#utility.yul\":962:1011   */\n      tag_26\n      jump\t// in\n    tag_54:\n        /* \"#utility.yul\":846:1017   */\n      swap3\n      swap2\n      pop\n      pop\n      jump\t// out\n        /* \"#utility.yul\":1023:1140   */\n    tag_28:\n        /* \"#utility.yul\":1132:1133   */\n      0x00\n        /* \"#utility.yul\":1129:1130   */\n      dup1\n        /* \"#utility.yul\":1122:1134   */\n      revert\n        /* \"#utility.yul\":1146:1263   */\n    tag_29:\n        /* \"#utility.yul\":1255:1256   */\n      0x00\n        /* \"#utility.yul\":1252:1253   */\n      dup1\n        /* \"#utility.yul\":1245:1257   */\n      revert\n        /* \"#utility.yul\":1269:1386   */\n    tag_30:\n        /* \"#utility.yul\":1378:1379   */\n      0x00\n        /* \"#utility.yul\":1375:1376   */\n      dup1\n        /* \"#utility.yul\":1368:1380   */\n      revert\n        /* \"#utility.yul\":1405:1957   */\n    tag_31:\n        /* \"#utility.yul\":1462:1470   */\n      0x00\n        /* \"#utility.yul\":1472:1478   */\n      dup1\n        /* \"#utility.yul\":1522:1525   */\n      dup4\n        /* \"#utility.yul\":1515:1519   */\n      0x1f\n        /* \"#utility.yul\":1507:1513   */\n      dup5\n        /* \"#utility.yul\":1503:1520   */\n      add\n        /* \"#utility.yul\":1499:1526   */\n      slt\n        /* \"#utility.yul\":1489:1611   */\n      tag_59\n      jumpi\n        /* \"#utility.yul\":1530:1609   */\n      tag_60\n      tag_28\n      jump\t// in\n    tag_60:\n        /* \"#utility.yul\":1489:1611   */\n    tag_59:\n        /* \"#utility.yul\":1643:1649   */\n      dup3\n        /* \"#utility.yul\":1630:1650   */\n      calldataload\n        /* \"#utility.yul\":1620:1650   */\n      swap1\n      pop\n        /* \"#utility.yul\":1673:1691   */\n      0xffffffffffffffff\n        /* \"#utility.yul\":1665:1671   */\n      dup2\n        /* \"#utility.yul\":1662:1692   */\n      gt\n        /* \"#utility.yul\":1659:1776   */\n      iszero\n      tag_61\n      jumpi\n        /* \"#utility.yul\":1695:1774   */\n      tag_62\n      tag_29\n      jump\t// in\n    tag_62:\n        /* \"#utility.yul\":1659:1776   */\n    tag_61:\n        /* \"#utility.yul\":1809:1813   */\n      0x20\n        /* \"#utility.yul\":1801:1807   */\n      dup4\n        /* \"#utility.yul\":1797:1814   */\n      add\n        /* \"#utility.yul\":1785:1814   */\n      swap2\n      pop\n        /* \"#utility.yul\":1863:1866   */\n      dup4\n        /* \"#utility.yul\":1855:1859   */\n      0x01\n        /* \"#utility.yul\":1847:1853   */\n      dup3\n        /* \"#utility.yul\":1843:1860   */\n      mul\n        /* \"#utility.yul\":1833:1841   */\n      dup4\n        /* \"#utility.yul\":1829:1861   */\n      add\n        /* \"#utility.yul\":1826:1867   */\n      gt\n        /* \"#utility.yul\":1823:1951   */\n      iszero\n      tag_63\n      jumpi\n        /* \"#utility.yul\":1870:1949   */\n      tag_64\n      tag_30\n      jump\t// in\n    tag_64:\n        /* \"#utility.yul\":1823:1951   */\n    tag_63:\n        /* \"#utility.yul\":1405:1957   */\n      swap3\n      pop\n      swap3\n      swap1\n      pop\n      jump\t// out\n        /* \"#utility.yul\":1963:2667   */\n    tag_6:\n        /* \"#utility.yul\":2058:2064   */\n      0x00\n        /* \"#utility.yul\":2066:2072   */\n      dup1\n        /* \"#utility.yul\":2074:2080   */\n      0x00\n        /* \"#utility.yul\":2123:2125   */\n      0x40\n        /* \"#utility.yul\":2111:2120   */\n      dup5\n        /* \"#utility.yul\":2102:2109   */\n      dup7\n        /* \"#utility.yul\":2098:2121   */\n      sub\n        /* \"#utility.yul\":2094:2126   */\n      slt\n        /* \"#utility.yul\":2091:2210   */\n      iszero\n      tag_66\n      jumpi\n        /* \"#utility.yul\":2129:2208   */\n      tag_67\n      tag_21\n      jump\t// in\n    tag_67:\n        /* \"#utility.yul\":2091:2210   */\n    tag_66:\n        /* \"#utility.yul\":2249:2250   */\n      0x00\n        /* \"#utility.yul\":2274:2343   */\n      tag_68\n        /* \"#utility.yul\":2335:2342   */\n      dup7\n        /* \"#utility.yul\":2326:2332   */\n      dup3\n        /* \"#utility.yul\":2315:2324   */\n      dup8\n        /* \"#utility.yul\":2311:2333   */\n      add\n        /* \"#utility.yul\":2274:2343   */\n      tag_27\n      jump\t// in\n    tag_68:\n        /* \"#utility.yul\":2264:2343   */\n      swap4\n      pop\n        /* \"#utility.yul\":2220:2353   */\n      pop\n        /* \"#utility.yul\":2420:2422   */\n      0x20\n        /* \"#utility.yul\":2409:2418   */\n      dup5\n        /* \"#utility.yul\":2405:2423   */\n      add\n        /* \"#utility.yul\":2392:2424   */\n      calldataload\n        /* \"#utility.yul\":2451:2469   */\n      0xffffffffffffffff\n        /* \"#utility.yul\":2443:2449   */\n      dup2\n        /* \"#utility.yul\":2440:2470   */\n      gt\n        /* \"#utility.yul\":2437:2554   */\n      iszero\n      tag_69\n      jumpi\n        /* \"#utility.yul\":2473:2552   */\n      tag_70\n      tag_22\n      jump\t// in\n    tag_70:\n        /* \"#utility.yul\":2437:2554   */\n    tag_69:\n        /* \"#utility.yul\":2586:2650   */\n      tag_71\n        /* \"#utility.yul\":2642:2649   */\n      dup7\n        /* \"#utility.yul\":2633:2639   */\n      dup3\n        /* \"#utility.yul\":2622:2631   */\n      dup8\n        /* \"#utility.yul\":2618:2640   */\n      add\n        /* \"#utility.yul\":2586:2650   */\n      tag_31\n      jump\t// in\n    tag_71:\n        /* \"#utility.yul\":2568:2650   */\n      swap3\n      pop\n      swap3\n      pop\n        /* \"#utility.yul\":2363:2660   */\n      pop\n        /* \"#utility.yul\":1963:2667   */\n      swap3\n      pop\n      swap3\n      pop\n      swap3\n      jump\t// out\n        /* \"#utility.yul\":2673:2841   */\n    tag_32:\n        /* \"#utility.yul\":2756:2767   */\n      0x00\n        /* \"#utility.yul\":2790:2796   */\n      dup3\n        /* \"#utility.yul\":2785:2788   */\n      dup3\n        /* \"#utility.yul\":2778:2797   */\n      mstore\n        /* \"#utility.yul\":2830:2834   */\n      0x20\n        /* \"#utility.yul\":2825:2828   */\n      dup3\n        /* \"#utility.yul\":2821:2835   */\n      add\n        /* \"#utility.yul\":2806:2835   */\n      swap1\n      pop\n        /* \"#utility.yul\":2673:2841   */\n      swap3\n      swap2\n      pop\n      pop\n      jump\t// out\n        /* \"#utility.yul\":2847:2995   */\n    tag_33:\n        /* \"#utility.yul\":2945:2951   */\n      dup3\n        /* \"#utility.yul\":2940:2943   */\n      dup2\n        /* \"#utility.yul\":2935:2938   */\n      dup4\n        /* \"#utility.yul\":2922:2952   */\n      calldatacopy\n        /* \"#utility.yul\":2986:2987   */\n      0x00\n        /* \"#utility.yul\":2977:2983   */\n      dup4\n        /* \"#utility.yul\":2972:2975   */\n      dup4\n        /* \"#utility.yul\":2968:2984   */\n      add\n        /* \"#utility.yul\":2961:2988   */\n      mstore\n        /* \"#utility.yul\":2847:2995   */\n      pop\n      pop\n      pop\n      jump\t// out\n        /* \"#utility.yul\":3001:3103   */\n    tag_34:\n        /* \"#utility.yul\":3042:3048   */\n      0x00\n        /* \"#utility.yul\":3093:3095   */\n      0x1f\n        /* \"#utility.yul\":3089:3096   */\n      not\n        /* \"#utility.yul\":3084:3086   */\n      0x1f\n        /* \"#utility.yul\":3077:3082   */\n      dup4\n        /* \"#utility.yul\":3073:3087   */\n      add\n        /* \"#utility.yul\":3069:3097   */\n      and\n        /* \"#utility.yul\":3059:3097   */\n      swap1\n      pop\n        /* \"#utility.yul\":3001:3103   */\n      swap2\n      swap1\n      pop\n      jump\t// out\n        /* \"#utility.yul\":3131:3445   */\n    tag_35:\n        /* \"#utility.yul\":3227:3230   */\n      0x00\n        /* \"#utility.yul\":3248:3318   */\n      tag_76\n        /* \"#utility.yul\":3311:3317   */\n      dup4\n        /* \"#utility.yul\":3306:3309   */\n      dup6\n        /* \"#utility.yul\":3248:3318   */\n      tag_32\n      jump\t// in\n    tag_76:\n        /* \"#utility.yul\":3241:3318   */\n      swap4\n      pop\n        /* \"#utility.yul\":3328:3384   */\n      tag_77\n        /* \"#utility.yul\":3377:3383   */\n      dup4\n        /* \"#utility.yul\":3372:3375   */\n      dup6\n        /* \"#utility.yul\":3365:3370   */\n      dup5\n        /* \"#utility.yul\":3328:3384   */\n      tag_33\n      jump\t// in\n    tag_77:\n        /* \"#utility.yul\":3409:3438   */\n      tag_78\n        /* \"#utility.yul\":3431:3437   */\n      dup4\n        /* \"#utility.yul\":3409:3438   */\n      tag_34\n      jump\t// in\n    tag_78:\n        /* \"#utility.yul\":3404:3407   */\n      dup5\n        /* \"#utility.yul\":3400:3439   */\n      add\n        /* \"#utility.yul\":3393:3439   */\n      swap1\n      pop\n        /* \"#utility.yul\":3131:3445   */\n      swap4\n      swap3\n      pop\n      pop\n      pop\n      jump\t// out\n        /* \"#utility.yul\":3451:3780   */\n    tag_10:\n        /* \"#utility.yul\":3572:3576   */\n      0x00\n        /* \"#utility.yul\":3610:3612   */\n      0x20\n        /* \"#utility.yul\":3599:3608   */\n      dup3\n        /* \"#utility.yul\":3595:3613   */\n      add\n        /* \"#utility.yul\":3587:3613   */\n      swap1\n      pop\n        /* \"#utility.yul\":3659:3668   */\n      dup2\n        /* \"#utility.yul\":3653:3657   */\n      dup2\n        /* \"#utility.yul\":3649:3669   */\n      sub\n        /* \"#utility.yul\":3645:3646   */\n      0x00\n        /* \"#utility.yul\":3634:3643   */\n      dup4\n        /* \"#utility.yul\":3630:3647   */\n      add\n        /* \"#utility.yul\":3623:3670   */\n      mstore\n        /* \"#utility.yul\":3687:3773   */\n      tag_80\n        /* \"#utility.yul\":3768:3772   */\n      dup2\n        /* \"#utility.yul\":3759:3765   */\n      dup5\n        /* \"#utility.yul\":3751:3757   */\n      dup7\n        /* \"#utility.yul\":3687:3773   */\n      tag_35\n      jump\t// in\n    tag_80:\n        /* \"#utility.yul\":3679:3773   */\n      swap1\n      pop\n        /* \"#utility.yul\":3451:3780   */\n      swap4\n      swap3\n      pop\n      pop\n      pop\n      jump\t// out\n        /* \"#utility.yul\":3786:3863   */\n    tag_36:\n        /* \"#utility.yul\":3823:3830   */\n      0x00\n        /* \"#utility.yul\":3852:3857   */\n      dup2\n        /* \"#utility.yul\":3841:3857   */\n      swap1\n      pop\n        /* \"#utility.yul\":3786:3863   */\n      swap2\n      swap1\n      pop\n      jump\t// out\n        /* \"#utility.yul\":3869:3991   */\n    tag_37:\n        /* \"#utility.yul\":3942:3966   */\n      tag_83\n        /* \"#utility.yul\":3960:3965   */\n      dup2\n        /* \"#utility.yul\":3942:3966   */\n      tag_36\n      jump\t// in\n    tag_83:\n        /* \"#utility.yul\":3935:3940   */\n      dup2\n        /* \"#utility.yul\":3932:3967   */\n      eq\n        /* \"#utility.yul\":3922:3985   */\n      tag_84\n      jumpi\n        /* \"#utility.yul\":3981:3982   */\n      0x00\n        /* \"#utility.yul\":3978:3979   */\n      dup1\n        /* \"#utility.yul\":3971:3983   */\n      revert\n        /* \"#utility.yul\":3922:3985   */\n    tag_84:\n        /* \"#utility.yul\":3869:3991   */\n      pop\n      jump\t// out\n        /* \"#utility.yul\":3997:4140   */\n    tag_38:\n        /* \"#utility.yul\":4054:4059   */\n      0x00\n        /* \"#utility.yul\":4085:4091   */\n      dup2\n        /* \"#utility.yul\":4079:4092   */\n      mload\n        /* \"#utility.yul\":4070:4092   */\n      swap1\n      pop\n        /* \"#utility.yul\":4101:4134   */\n      tag_86\n        /* \"#utility.yul\":4128:4133   */\n      dup2\n        /* \"#utility.yul\":4101:4134   */\n      tag_37\n      jump\t// in\n    tag_86:\n        /* \"#utility.yul\":3997:4140   */\n      swap3\n      swap2\n      pop\n      pop\n      jump\t// out\n        /* \"#utility.yul\":4146:4497   */\n    tag_14:\n        /* \"#utility.yul\":4216:4222   */\n      0x00\n        /* \"#utility.yul\":4265:4267   */\n      0x20\n        /* \"#utility.yul\":4253:4262   */\n      dup3\n        /* \"#utility.yul\":4244:4251   */\n      dup5\n        /* \"#utility.yul\":4240:4263   */\n      sub\n        /* \"#utility.yul\":4236:4268   */\n      slt\n        /* \"#utility.yul\":4233:4352   */\n      iszero\n      tag_88\n      jumpi\n        /* \"#utility.yul\":4271:4350   */\n      tag_89\n      tag_21\n      jump\t// in\n    tag_89:\n        /* \"#utility.yul\":4233:4352   */\n    tag_88:\n        /* \"#utility.yul\":4391:4392   */\n      0x00\n        /* \"#utility.yul\":4416:4480   */\n      tag_90\n        /* \"#utility.yul\":4472:4479   */\n      dup5\n        /* \"#utility.yul\":4463:4469   */\n      dup3\n        /* \"#utility.yul\":4452:4461   */\n      dup6\n        /* \"#utility.yul\":4448:4470   */\n      add\n        /* \"#utility.yul\":4416:4480   */\n      tag_38\n      jump\t// in\n    tag_90:\n        /* \"#utility.yul\":4406:4480   */\n      swap2\n      pop\n        /* \"#utility.yul\":4362:4490   */\n      pop\n        /* \"#utility.yul\":4146:4497   */\n      swap3\n      swap2\n      pop\n      pop\n      jump\t// out\n        /* \"#utility.yul\":4503:4617   */\n    tag_39:\n      pop\n      jump\t// out\n        /* \"#utility.yul\":4623:4985   */\n    tag_40:\n        /* \"#utility.yul\":4764:4767   */\n      0x00\n        /* \"#utility.yul\":4785:4850   */\n      tag_93\n        /* \"#utility.yul\":4848:4849   */\n      0x00\n        /* \"#utility.yul\":4843:4846   */\n      dup4\n        /* \"#utility.yul\":4785:4850   */\n      tag_32\n      jump\t// in\n    tag_93:\n        /* \"#utility.yul\":4778:4850   */\n      swap2\n      pop\n        /* \"#utility.yul\":4859:4952   */\n      tag_94\n        /* \"#utility.yul\":4948:4951   */\n      dup3\n        /* \"#utility.yul\":4859:4952   */\n      tag_39\n      jump\t// in\n    tag_94:\n        /* \"#utility.yul\":4977:4978   */\n      0x00\n        /* \"#utility.yul\":4972:4975   */\n      dup3\n        /* \"#utility.yul\":4968:4979   */\n      add\n        /* \"#utility.yul\":4961:4979   */\n      swap1\n      pop\n        /* \"#utility.yul\":4623:4985   */\n      swap2\n      swap1\n      pop\n      jump\t// out\n        /* \"#utility.yul\":4991:5625   */\n    tag_16:\n        /* \"#utility.yul\":5212:5216   */\n      0x00\n        /* \"#utility.yul\":5250:5252   */\n      0x40\n        /* \"#utility.yul\":5239:5248   */\n      dup3\n        /* \"#utility.yul\":5235:5253   */\n      add\n        /* \"#utility.yul\":5227:5253   */\n      swap1\n      pop\n        /* \"#utility.yul\":5299:5308   */\n      dup2\n        /* \"#utility.yul\":5293:5297   */\n      dup2\n        /* \"#utility.yul\":5289:5309   */\n      sub\n        /* \"#utility.yul\":5285:5286   */\n      0x00\n        /* \"#utility.yul\":5274:5283   */\n      dup4\n        /* \"#utility.yul\":5270:5287   */\n      add\n        /* \"#utility.yul\":5263:5310   */\n      mstore\n        /* \"#utility.yul\":5327:5413   */\n      tag_96\n        /* \"#utility.yul\":5408:5412   */\n      dup2\n        /* \"#utility.yul\":5399:5405   */\n      dup5\n        /* \"#utility.yul\":5391:5397   */\n      dup7\n        /* \"#utility.yul\":5327:5413   */\n      tag_35\n      jump\t// in\n    tag_96:\n        /* \"#utility.yul\":5319:5413   */\n      swap1\n      pop\n        /* \"#utility.yul\":5460:5469   */\n      dup2\n        /* \"#utility.yul\":5454:5458   */\n      dup2\n        /* \"#utility.yul\":5450:5470   */\n      sub\n        /* \"#utility.yul\":5445:5447   */\n      0x20\n        /* \"#utility.yul\":5434:5443   */\n      dup4\n        /* \"#utility.yul\":5430:5448   */\n      add\n        /* \"#utility.yul\":5423:5471   */\n      mstore\n        /* \"#utility.yul\":5488:5618   */\n      tag_97\n        /* \"#utility.yul\":5613:5617   */\n      dup2\n        /* \"#utility.yul\":5488:5618   */\n      tag_40\n      jump\t// in\n    tag_97:\n        /* \"#utility.yul\":5480:5618   */\n      swap1\n      pop\n        /* \"#utility.yul\":4991:5625   */\n      swap4\n      swap3\n      pop\n      pop\n      pop\n      jump\t// out\n\n    auxdata: 0xa2646970667358221220d7f04cdb28275a6e8555fb9cb15bb44bf36c4c550f6e120d7d8a9510748c9a4e64736f6c634300081a0033\n}\n",
				"bytecode": {
					"linkReferences": {},
					"object": "6080604052348015600e575f80fd5b506103cb8061001c5f395ff3fe608060405234801561000f575f80fd5b5060043610610029575f3560e01c8063d1b6fdaf1461002d575b5f80fd5b61004760048036038101906100429190610206565b610049565b005b8273ffffffffffffffffffffffffffffffffffffffff166323da2f7383836040518363ffffffff1660e01b81526004016100849291906102bd565b6020604051808303815f875af11580156100a0573d5f803e3d5ffd5b505050506040513d601f19601f820116820180604052508101906100c49190610312565b508273ffffffffffffffffffffffffffffffffffffffff16633f47158d83836040518363ffffffff1660e01b8152600401610100929190610360565b5f604051808303815f87803b158015610117575f80fd5b505af1158015610129573d5f803e3d5ffd5b50505050505050565b5f80fd5b5f80fd5b5f73ffffffffffffffffffffffffffffffffffffffff82169050919050565b5f6101638261013a565b9050919050565b5f61017482610159565b9050919050565b6101848161016a565b811461018e575f80fd5b50565b5f8135905061019f8161017b565b92915050565b5f80fd5b5f80fd5b5f80fd5b5f8083601f8401126101c6576101c56101a5565b5b8235905067ffffffffffffffff8111156101e3576101e26101a9565b5b6020830191508360018202830111156101ff576101fe6101ad565b5b9250929050565b5f805f6040848603121561021d5761021c610132565b5b5f61022a86828701610191565b935050602084013567ffffffffffffffff81111561024b5761024a610136565b5b610257868287016101b1565b92509250509250925092565b5f82825260208201905092915050565b828183375f83830152505050565b5f601f19601f8301169050919050565b5f61029c8385610263565b93506102a9838584610273565b6102b283610281565b840190509392505050565b5f6020820190508181035f8301526102d6818486610291565b90509392505050565b5f819050919050565b6102f1816102df565b81146102fb575f80fd5b50565b5f8151905061030c816102e8565b92915050565b5f6020828403121561032757610326610132565b5b5f610334848285016102fe565b91505092915050565b50565b5f61034b5f83610263565b91506103568261033d565b5f82019050919050565b5f6040820190508181035f830152610379818486610291565b9050818103602083015261038c81610340565b9050939250505056fea2646970667358221220d7f04cdb28275a6e8555fb9cb15bb44bf36c4c550f6e120d7d8a9510748c9a4e64736f6c634300081a0033",
					"opcodes": "PUSH1 0x80 PUSH1 0x40 MSTORE CALLVALUE DUP1 ISZERO PUSH1 0xE JUMPI PUSH0 DUP1 REVERT JUMPDEST POP PUSH2 0x3CB DUP1 PUSH2 0x1C PUSH0 CODECOPY PUSH0 RETURN INVALID PUSH1 0x80 PUSH1 0x40 MSTORE CALLVALUE DUP1 ISZERO PUSH2 0xF JUMPI PUSH0 DUP1 REVERT JUMPDEST POP PUSH1 0x4 CALLDATASIZE LT PUSH2 0x29 JUMPI PUSH0 CALLDATALOAD PUSH1 0xE0 SHR DUP1 PUSH4 0xD1B6FDAF EQ PUSH2 0x2D JUMPI JUMPDEST PUSH0 DUP1 REVERT JUMPDEST PUSH2 0x47 PUSH1 0x4 DUP1 CALLDATASIZE SUB DUP2 ADD SWAP1 PUSH2 0x42 SWAP2 SWAP1 PUSH2 0x206 JUMP JUMPDEST PUSH2 0x49 JUMP JUMPDEST STOP JUMPDEST DUP3 PUSH20 0xFFFFFFFFFFFFFFFFFFFFFFFFFFFFFFFFFFFFFFFF AND PUSH4 0x23DA2F73 DUP4 DUP4 PUSH1 0x40 MLOAD DUP4 PUSH4 0xFFFFFFFF AND PUSH1 0xE0 SHL DUP2 MSTORE PUSH1 0x4 ADD PUSH2 0x84 SWAP3 SWAP2 SWAP1 PUSH2 0x2BD JUMP JUMPDEST PUSH1 0x20 PUSH1 0x40 MLOAD DUP1 DUP4 SUB DUP2 PUSH0 DUP8 GAS CALL ISZERO DUP1 ISZERO PUSH2 0xA0 JUMPI RETURNDATASIZE PUSH0 DUP1 RETURNDATACOPY RETURNDATASIZE PUSH0 REVERT JUMPDEST POP POP POP POP PUSH1 0x40 MLOAD RETURNDATASIZE PUSH1 0x1F NOT PUSH1 0x1F DUP3 ADD AND DUP3 ADD DUP1 PUSH1 0x40 MSTORE POP DUP2 ADD SWAP1 PUSH2 0xC4 SWAP2 SWAP1 PUSH2 0x312 JUMP JUMPDEST POP DUP3 PUSH20 0xFFFFFFFFFFFFFFFFFFFFFFFFFFFFFFFFFFFFFFFF AND PUSH4 0x3F47158D DUP4 DUP4 PUSH1 0x40 MLOAD DUP4 PUSH4 0xFFFFFFFF AND PUSH1 0xE0 SHL DUP2 MSTORE PUSH1 0x4 ADD PUSH2 0x100 SWAP3 SWAP2 SWAP1 PUSH2 0x360 JUMP JUMPDEST PUSH0 PUSH1 0x40 MLOAD DUP1 DUP4 SUB DUP2 PUSH0 DUP8 DUP1 EXTCODESIZE ISZERO DUP1 ISZERO PUSH2 0x117 JUMPI PUSH0 DUP1 REVERT JUMPDEST POP GAS CALL ISZERO DUP1 ISZERO PUSH2 0x129 JUMPI RETURNDATASIZE PUSH0 DUP1 RETURNDATACOPY RETURNDATASIZE PUSH0 REVERT JUMPDEST POP POP POP POP POP POP POP JUMP JUMPDEST PUSH0 DUP1 REVERT JUMPDEST PUSH0 DUP1 REVERT JUMPDEST PUSH0 PUSH20 0xFFFFFFFFFFFFFFFFFFFFFFFFFFFFFFFFFFFFFFFF DUP3 AND SWAP1 POP SWAP2 SWAP1 POP JUMP JUMPDEST PUSH0 PUSH2 0x163 DUP3 PUSH2 0x13A JUMP JUMPDEST SWAP1 POP SWAP2 SWAP1 POP JUMP JUMPDEST PUSH0 PUSH2 0x174 DUP3 PUSH2 0x159 JUMP JUMPDEST SWAP1 POP SWAP2 SWAP1 POP JUMP JUMPDEST PUSH2 0x184 DUP2 PUSH2 0x16A JUMP JUMPDEST DUP2 EQ PUSH2 0x18E JUMPI PUSH0 DUP1 REVERT JUMPDEST POP JUMP JUMPDEST PUSH0 DUP2 CALLDATALOAD SWAP1 POP PUSH2 0x19F DUP2 PUSH2 0x17B JUMP JUMPDEST SWAP3 SWAP2 POP POP JUMP JUMPDEST PUSH0 DUP1 REVERT JUMPDEST PUSH0 DUP1 REVERT JUMPDEST PUSH0 DUP1 REVERT JUMPDEST PUSH0 DUP1 DUP4 PUSH1 0x1F DUP5 ADD SLT PUSH2 0x1C6 JUMPI PUSH2 0x1C5 PUSH2 0x1A5 JUMP JUMPDEST JUMPDEST DUP3 CALLDATALOAD SWAP1 POP PUSH8 0xFFFFFFFFFFFFFFFF DUP2 GT ISZERO PUSH2 0x1E3 JUMPI PUSH2 0x1E2 PUSH2 0x1A9 JUMP JUMPDEST JUMPDEST PUSH1 0x20 DUP4 ADD SWAP2 POP DUP4 PUSH1 0x1 DUP3 MUL DUP4 ADD GT ISZERO PUSH2 0x1FF JUMPI PUSH2 0x1FE PUSH2 0x1AD JUMP JUMPDEST JUMPDEST SWAP3 POP SWAP3 SWAP1 POP JUMP JUMPDEST PUSH0 DUP1 PUSH0 PUSH1 0x40 DUP5 DUP7 SUB SLT ISZERO PUSH2 0x21D JUMPI PUSH2 0x21C PUSH2 0x132 JUMP JUMPDEST JUMPDEST PUSH0 PUSH2 0x22A DUP7 DUP3 DUP8 ADD PUSH2 0x191 JUMP JUMPDEST SWAP4 POP POP PUSH1 0x20 DUP5 ADD CALLDATALOAD PUSH8 0xFFFFFFFFFFFFFFFF DUP2 GT ISZERO PUSH2 0x24B JUMPI PUSH2 0x24A PUSH2 0x136 JUMP JUMPDEST JUMPDEST PUSH2 0x257 DUP7 DUP3 DUP8 ADD PUSH2 0x1B1 JUMP JUMPDEST SWAP3 POP SWAP3 POP POP SWAP3 POP SWAP3 POP SWAP3 JUMP JUMPDEST PUSH0 DUP3 DUP3 MSTORE PUSH1 0x20 DUP3 ADD SWAP1 POP SWAP3 SWAP2 POP POP JUMP JUMPDEST DUP3 DUP2 DUP4 CALLDATACOPY PUSH0 DUP4 DUP4 ADD MSTORE POP POP POP JUMP JUMPDEST PUSH0 PUSH1 0x1F NOT PUSH1 0x1F DUP4 ADD AND SWAP1 POP SWAP2 SWAP1 POP JUMP JUMPDEST PUSH0 PUSH2 0x29C DUP4 DUP6 PUSH2 0x263 JUMP JUMPDEST SWAP4 POP PUSH2 0x2A9 DUP4 DUP6 DUP5 PUSH2 0x273 JUMP JUMPDEST PUSH2 0x2B2 DUP4 PUSH2 0x281 JUMP JUMPDEST DUP5 ADD SWAP1 POP SWAP4 SWAP3 POP POP POP JUMP JUMPDEST PUSH0 PUSH1 0x20 DUP3 ADD SWAP1 POP DUP2 DUP2 SUB PUSH0 DUP4 ADD MSTORE PUSH2 0x2D6 DUP2 DUP5 DUP7 PUSH2 0x291 JUMP JUMPDEST SWAP1 POP SWAP4 SWAP3 POP POP POP JUMP JUMPDEST PUSH0 DUP2 SWAP1 POP SWAP2 SWAP1 POP JUMP JUMPDEST PUSH2 0x2F1 DUP2 PUSH2 0x2DF JUMP JUMPDEST DUP2 EQ PUSH2 0x2FB JUMPI PUSH0 DUP1 REVERT JUMPDEST POP JUMP JUMPDEST PUSH0 DUP2 MLOAD SWAP1 POP PUSH2 0x30C DUP2 PUSH2 0x2E8 JUMP JUMPDEST SWAP3 SWAP2 POP POP JUMP JUMPDEST PUSH0 PUSH1 0x20 DUP3 DUP5 SUB SLT ISZERO PUSH2 0x327 JUMPI PUSH2 0x326 PUSH2 0x132 JUMP JUMPDEST JUMPDEST PUSH0 PUSH2 0x334 DUP5 DUP3 DUP6 ADD PUSH2 0x2FE JUMP JUMPDEST SWAP2 POP POP SWAP3 SWAP2 POP POP JUMP JUMPDEST POP JUMP JUMPDEST PUSH0 PUSH2 0x34B PUSH0 DUP4 PUSH2 0x263 JUMP JUMPDEST SWAP2 POP PUSH2 0x356 DUP3 PUSH2 0x33D JUMP JUMPDEST PUSH0 DUP3 ADD SWAP1 POP SWAP2 SWAP1 POP JUMP JUMPDEST PUSH0 PUSH1 0x40 DUP3 ADD SWAP1 POP DUP2 DUP2 SUB PUSH0 DUP4 ADD MSTORE PUSH2 0x379 DUP2 DUP5 DUP7 PUSH2 0x291 JUMP JUMPDEST SWAP1 POP DUP2 DUP2 SUB PUSH1 0x20 DUP4 ADD MSTORE PUSH2 0x38C DUP2 PUSH2 0x340 JUMP JUMPDEST SWAP1 POP SWAP4 SWAP3 POP POP POP JUMP INVALID LOG2 PUSH5 0x6970667358 0x22 SLT KECCAK256 0xD7 CREATE 0x4C 0xDB 0x28 0x27 GAS PUSH15 0x8555FB9CB15BB44BF36C4C550F6E12 0xD PUSH30 0x8A9510748C9A4E64736F6C634300081A0033000000000000000000000000 "
				},
				"gasEstimates": {
					"creation": {
						"codeDepositCost": "194200",
						"executionCost": "236",
						"totalCost": "194436"
					},
					"external": {
						"race(address,bytes)": "infinite"
					}
				},
				"methodIdentifiers": {
					"race(address,bytes)": "d1b6fdaf"
				}
			},
			"storageLayout": {
				"storage": [],
				"types": null
			},
			"userdoc": {
				"kind": "user",
				"methods": {},
				"version": 1
			}
		}
	}
}