{
	"S/Secure Shell (SSH)/Secure Shell (SSH).sol": {
		"SSH_Role": {
			"abi": [
				{
					"inputs": [
						{
							"internalType": "address",
							"name": "_admin",
							"type": "address"
						},
						{
							"internalType": "address",
							"name": "_guardian",
							"type": "address"
						},
						{
							"internalType": "uint256",
							"name": "_delay",
							"type": "uint256"
						}
					],
					"stateMutability": "nonpayable",
					"type": "constructor"
				},
				{
					"inputs": [],
					"name": "SSH_NotAdmin",
					"type": "error"
				},
				{
					"inputs": [],
					"name": "SSH_Replayed",
					"type": "error"
				},
				{
					"inputs": [],
					"name": "SSH_RoleExists",
					"type": "error"
				},
				{
					"inputs": [],
					"name": "SSH_TooSoon",
					"type": "error"
				},
				{
					"anonymous": false,
					"inputs": [
						{
							"indexed": true,
							"internalType": "bytes32",
							"name": "cmd",
							"type": "bytes32"
						}
					],
					"name": "Executed",
					"type": "event"
				},
				{
					"anonymous": false,
					"inputs": [
						{
							"indexed": true,
							"internalType": "bytes32",
							"name": "cmd",
							"type": "bytes32"
						},
						{
							"indexed": false,
							"internalType": "uint256",
							"name": "eta",
							"type": "uint256"
						}
					],
					"name": "Queued",
					"type": "event"
				},
				{
					"inputs": [],
					"name": "ADMIN",
					"outputs": [
						{
							"internalType": "bytes32",
							"name": "",
							"type": "bytes32"
						}
					],
					"stateMutability": "view",
					"type": "function"
				},
				{
					"inputs": [
						{
							"internalType": "bytes32",
							"name": "id",
							"type": "bytes32"
						}
					],
					"name": "cancel",
					"outputs": [],
					"stateMutability": "nonpayable",
					"type": "function"
				},
				{
					"inputs": [],
					"name": "delay",
					"outputs": [
						{
							"internalType": "uint256",
							"name": "",
							"type": "uint256"
						}
					],
					"stateMutability": "view",
					"type": "function"
				},
				{
					"inputs": [
						{
							"internalType": "bytes32",
							"name": "",
							"type": "bytes32"
						}
					],
					"name": "done",
					"outputs": [
						{
							"internalType": "bool",
							"name": "",
							"type": "bool"
						}
					],
					"stateMutability": "view",
					"type": "function"
				},
				{
					"inputs": [
						{
							"internalType": "bytes32",
							"name": "",
							"type": "bytes32"
						}
					],
					"name": "eta",
					"outputs": [
						{
							"internalType": "uint256",
							"name": "",
							"type": "uint256"
						}
					],
					"stateMutability": "view",
					"type": "function"
				},
				{
					"inputs": [
						{
							"internalType": "bytes",
							"name": "payload",
							"type": "bytes"
						},
						{
							"internalType": "bytes",
							"name": "",
							"type": "bytes"
						}
					],
					"name": "exec",
					"outputs": [],
					"stateMutability": "nonpayable",
					"type": "function"
				},
				{
					"inputs": [
						{
							"internalType": "address",
							"name": "a",
							"type": "address"
						},
						{
							"internalType": "bytes32",
							"name": "r",
							"type": "bytes32"
						}
					],
					"name": "grant",
					"outputs": [],
					"stateMutability": "nonpayable",
					"type": "function"
				},
				{
					"inputs": [],
					"name": "guardian",
					"outputs": [
						{
							"internalType": "address",
							"name": "",
							"type": "address"
						}
					],
					"stateMutability": "view",
					"type": "function"
				},
				{
					"inputs": [
						{
							"internalType": "bytes",
							"name": "payload",
							"type": "bytes"
						}
					],
					"name": "queue",
					"outputs": [
						{
							"internalType": "bytes32",
							"name": "id",
							"type": "bytes32"
						}
					],
					"stateMutability": "nonpayable",
					"type": "function"
				},
				{
					"inputs": [
						{
							"internalType": "address",
							"name": "a",
							"type": "address"
						}
					],
					"name": "revoke",
					"outputs": [],
					"stateMutability": "nonpayable",
					"type": "function"
				},
				{
					"inputs": [
						{
							"internalType": "uint256",
							"name": "v",
							"type": "uint256"
						}
					],
					"name": "set",
					"outputs": [],
					"stateMutability": "nonpayable",
					"type": "function"
				},
				{
					"inputs": [],
					"name": "value",
					"outputs": [
						{
							"internalType": "uint256",
							"name": "",
							"type": "uint256"
						}
					],
					"stateMutability": "view",
					"type": "function"
				}
			],
			"devdoc": {
				"kind": "dev",
				"methods": {},
				"version": 1
			},
			"evm": {
				"assembly": "    /* \"S/Secure Shell (SSH)/Secure Shell (SSH).sol\":4368:6379  contract SSH_Role is ISecureShell {... */\n  mstore(0x40, 0xa0)\n    /* \"S/Secure Shell (SSH)/Secure Shell (SSH).sol\":4785:4954  constructor(address _admin, address _guardian, uint256 _delay) {... */\n  callvalue\n  dup1\n  iszero\n  tag_1\n  jumpi\n  0x00\n  dup1\n  revert\ntag_1:\n  pop\n  mload(0x40)\n  sub(codesize, bytecodeSize)\n  dup1\n  bytecodeSize\n  dup4\n  codecopy\n  dup2\n  dup2\n  add\n  0x40\n  mstore\n  dup2\n  add\n  swap1\n  tag_2\n  swap2\n  swap1\n  tag_3\n  jump\t// in\ntag_2:\n    /* \"S/Secure Shell (SSH)/Secure Shell (SSH).sol\":4471:4489  keccak256(\"ADMIN\") */\n  0xdf8b4c520ffe197c5343c6f5aec59570151ef9a492f2c624fd45ddde6135ec42\n    /* \"S/Secure Shell (SSH)/Secure Shell (SSH).sol\":4858:4864  _roles */\n  0x03\n    /* \"S/Secure Shell (SSH)/Secure Shell (SSH).sol\":4858:4872  _roles[_admin] */\n  0x00\n    /* \"S/Secure Shell (SSH)/Secure Shell (SSH).sol\":4865:4871  _admin */\n  dup6\n    /* \"S/Secure Shell (SSH)/Secure Shell (SSH).sol\":4858:4872  _roles[_admin] */\n  0xffffffffffffffffffffffffffffffffffffffff\n  and\n  0xffffffffffffffffffffffffffffffffffffffff\n  and\n  dup2\n  mstore\n  0x20\n  add\n  swap1\n  dup2\n  mstore\n  0x20\n  add\n  0x00\n  keccak256\n    /* \"S/Secure Shell (SSH)/Secure Shell (SSH).sol\":4858:4880  _roles[_admin] = ADMIN */\n  dup2\n  swap1\n  sstore\n  pop\n    /* \"S/Secure Shell (SSH)/Secure Shell (SSH).sol\":4906:4915  _guardian */\n  dup2\n    /* \"S/Secure Shell (SSH)/Secure Shell (SSH).sol\":4890:4898  guardian */\n  0x00\n  dup1\n    /* \"S/Secure Shell (SSH)/Secure Shell (SSH).sol\":4890:4915  guardian      = _guardian */\n  0x0100\n  exp\n  dup2\n  sload\n  dup2\n  0xffffffffffffffffffffffffffffffffffffffff\n  mul\n  not\n  and\n  swap1\n  dup4\n  0xffffffffffffffffffffffffffffffffffffffff\n  and\n  mul\n  or\n  swap1\n  sstore\n  pop\n    /* \"S/Secure Shell (SSH)/Secure Shell (SSH).sol\":4941:4947  _delay */\n  dup1\n    /* \"S/Secure Shell (SSH)/Secure Shell (SSH).sol\":4925:4947  delay         = _delay */\n  0x80\n  dup2\n  dup2\n  mstore\n  pop\n  pop\n    /* \"S/Secure Shell (SSH)/Secure Shell (SSH).sol\":4785:4954  constructor(address _admin, address _guardian, uint256 _delay) {... */\n  pop\n  pop\n  pop\n    /* \"S/Secure Shell (SSH)/Secure Shell (SSH).sol\":4368:6379  contract SSH_Role is ISecureShell {... */\n  jump(tag_6)\n    /* \"#utility.yul\":88:205   */\ntag_8:\n    /* \"#utility.yul\":197:198   */\n  0x00\n    /* \"#utility.yul\":194:195   */\n  dup1\n    /* \"#utility.yul\":187:199   */\n  revert\n    /* \"#utility.yul\":334:460   */\ntag_10:\n    /* \"#utility.yul\":371:378   */\n  0x00\n    /* \"#utility.yul\":411:453   */\n  0xffffffffffffffffffffffffffffffffffffffff\n    /* \"#utility.yul\":404:409   */\n  dup3\n    /* \"#utility.yul\":400:454   */\n  and\n    /* \"#utility.yul\":389:454   */\n  swap1\n  pop\n    /* \"#utility.yul\":334:460   */\n  swap2\n  swap1\n  pop\n  jump\t// out\n    /* \"#utility.yul\":466:562   */\ntag_11:\n    /* \"#utility.yul\":503:510   */\n  0x00\n    /* \"#utility.yul\":532:556   */\n  tag_23\n    /* \"#utility.yul\":550:555   */\n  dup3\n    /* \"#utility.yul\":532:556   */\n  tag_10\n  jump\t// in\ntag_23:\n    /* \"#utility.yul\":521:556   */\n  swap1\n  pop\n    /* \"#utility.yul\":466:562   */\n  swap2\n  swap1\n  pop\n  jump\t// out\n    /* \"#utility.yul\":568:690   */\ntag_12:\n    /* \"#utility.yul\":641:665   */\n  tag_25\n    /* \"#utility.yul\":659:664   */\n  dup2\n    /* \"#utility.yul\":641:665   */\n  tag_11\n  jump\t// in\ntag_25:\n    /* \"#utility.yul\":634:639   */\n  dup2\n    /* \"#utility.yul\":631:666   */\n  eq\n    /* \"#utility.yul\":621:684   */\n  tag_26\n  jumpi\n    /* \"#utility.yul\":680:681   */\n  0x00\n    /* \"#utility.yul\":677:678   */\n  dup1\n    /* \"#utility.yul\":670:682   */\n  revert\n    /* \"#utility.yul\":621:684   */\ntag_26:\n    /* \"#utility.yul\":568:690   */\n  pop\n  jump\t// out\n    /* \"#utility.yul\":696:839   */\ntag_13:\n    /* \"#utility.yul\":753:758   */\n  0x00\n    /* \"#utility.yul\":784:790   */\n  dup2\n    /* \"#utility.yul\":778:791   */\n  mload\n    /* \"#utility.yul\":769:791   */\n  swap1\n  pop\n    /* \"#utility.yul\":800:833   */\n  tag_28\n    /* \"#utility.yul\":827:832   */\n  dup2\n    /* \"#utility.yul\":800:833   */\n  tag_12\n  jump\t// in\ntag_28:\n    /* \"#utility.yul\":696:839   */\n  swap3\n  swap2\n  pop\n  pop\n  jump\t// out\n    /* \"#utility.yul\":845:922   */\ntag_14:\n    /* \"#utility.yul\":882:889   */\n  0x00\n    /* \"#utility.yul\":911:916   */\n  dup2\n    /* \"#utility.yul\":900:916   */\n  swap1\n  pop\n    /* \"#utility.yul\":845:922   */\n  swap2\n  swap1\n  pop\n  jump\t// out\n    /* \"#utility.yul\":928:1050   */\ntag_15:\n    /* \"#utility.yul\":1001:1025   */\n  tag_31\n    /* \"#utility.yul\":1019:1024   */\n  dup2\n    /* \"#utility.yul\":1001:1025   */\n  tag_14\n  jump\t// in\ntag_31:\n    /* \"#utility.yul\":994:999   */\n  dup2\n    /* \"#utility.yul\":991:1026   */\n  eq\n    /* \"#utility.yul\":981:1044   */\n  tag_32\n  jumpi\n    /* \"#utility.yul\":1040:1041   */\n  0x00\n    /* \"#utility.yul\":1037:1038   */\n  dup1\n    /* \"#utility.yul\":1030:1042   */\n  revert\n    /* \"#utility.yul\":981:1044   */\ntag_32:\n    /* \"#utility.yul\":928:1050   */\n  pop\n  jump\t// out\n    /* \"#utility.yul\":1056:1199   */\ntag_16:\n    /* \"#utility.yul\":1113:1118   */\n  0x00\n    /* \"#utility.yul\":1144:1150   */\n  dup2\n    /* \"#utility.yul\":1138:1151   */\n  mload\n    /* \"#utility.yul\":1129:1151   */\n  swap1\n  pop\n    /* \"#utility.yul\":1160:1193   */\n  tag_34\n    /* \"#utility.yul\":1187:1192   */\n  dup2\n    /* \"#utility.yul\":1160:1193   */\n  tag_15\n  jump\t// in\ntag_34:\n    /* \"#utility.yul\":1056:1199   */\n  swap3\n  swap2\n  pop\n  pop\n  jump\t// out\n    /* \"#utility.yul\":1205:1868   */\ntag_3:\n    /* \"#utility.yul\":1293:1299   */\n  0x00\n    /* \"#utility.yul\":1301:1307   */\n  dup1\n    /* \"#utility.yul\":1309:1315   */\n  0x00\n    /* \"#utility.yul\":1358:1360   */\n  0x60\n    /* \"#utility.yul\":1346:1355   */\n  dup5\n    /* \"#utility.yul\":1337:1344   */\n  dup7\n    /* \"#utility.yul\":1333:1356   */\n  sub\n    /* \"#utility.yul\":1329:1361   */\n  slt\n    /* \"#utility.yul\":1326:1445   */\n  iszero\n  tag_36\n  jumpi\n    /* \"#utility.yul\":1364:1443   */\n  tag_37\n  tag_8\n  jump\t// in\ntag_37:\n    /* \"#utility.yul\":1326:1445   */\ntag_36:\n    /* \"#utility.yul\":1484:1485   */\n  0x00\n    /* \"#utility.yul\":1509:1573   */\n  tag_38\n    /* \"#utility.yul\":1565:1572   */\n  dup7\n    /* \"#utility.yul\":1556:1562   */\n  dup3\n    /* \"#utility.yul\":1545:1554   */\n  dup8\n    /* \"#utility.yul\":1541:1563   */\n  add\n    /* \"#utility.yul\":1509:1573   */\n  tag_13\n  jump\t// in\ntag_38:\n    /* \"#utility.yul\":1499:1573   */\n  swap4\n  pop\n    /* \"#utility.yul\":1455:1583   */\n  pop\n    /* \"#utility.yul\":1622:1624   */\n  0x20\n    /* \"#utility.yul\":1648:1712   */\n  tag_39\n    /* \"#utility.yul\":1704:1711   */\n  dup7\n    /* \"#utility.yul\":1695:1701   */\n  dup3\n    /* \"#utility.yul\":1684:1693   */\n  dup8\n    /* \"#utility.yul\":1680:1702   */\n  add\n    /* \"#utility.yul\":1648:1712   */\n  tag_13\n  jump\t// in\ntag_39:\n    /* \"#utility.yul\":1638:1712   */\n  swap3\n  pop\n    /* \"#utility.yul\":1593:1722   */\n  pop\n    /* \"#utility.yul\":1761:1763   */\n  0x40\n    /* \"#utility.yul\":1787:1851   */\n  tag_40\n    /* \"#utility.yul\":1843:1850   */\n  dup7\n    /* \"#utility.yul\":1834:1840   */\n  dup3\n    /* \"#utility.yul\":1823:1832   */\n  dup8\n    /* \"#utility.yul\":1819:1841   */\n  add\n    /* \"#utility.yul\":1787:1851   */\n  tag_16\n  jump\t// in\ntag_40:\n    /* \"#utility.yul\":1777:1851   */\n  swap2\n  pop\n    /* \"#utility.yul\":1732:1861   */\n  pop\n    /* \"#utility.yul\":1205:1868   */\n  swap3\n  pop\n  swap3\n  pop\n  swap3\n  jump\t// out\n    /* \"S/Secure Shell (SSH)/Secure Shell (SSH).sol\":4368:6379  contract SSH_Role is ISecureShell {... */\ntag_6:\n  mload(0x80)\n  codecopy(0x00, dataOffset(sub_0), dataSize(sub_0))\n  0x00\n  assignImmutable(\"0x6b5b33fd3ded2cf263edb232310f182d666aca7afaa45921be3c8956e7742d13\")\n  return(0x00, dataSize(sub_0))\nstop\n\nsub_0: assembly {\n        /* \"S/Secure Shell (SSH)/Secure Shell (SSH).sol\":4368:6379  contract SSH_Role is ISecureShell {... */\n      mstore(0x40, 0x80)\n      callvalue\n      dup1\n      iszero\n      tag_1\n      jumpi\n      0x00\n      dup1\n      revert\n    tag_1:\n      pop\n      jumpi(tag_2, lt(calldatasize, 0x04))\n      shr(0xe0, calldataload(0x00))\n      dup1\n      0x452a9320\n      gt\n      tag_15\n      jumpi\n      dup1\n      0x452a9320\n      eq\n      tag_9\n      jumpi\n      dup1\n      0x60fe47b1\n      eq\n      tag_10\n      jumpi\n      dup1\n      0x6a42b8f8\n      eq\n      tag_11\n      jumpi\n      dup1\n      0x74a8f103\n      eq\n      tag_12\n      jumpi\n      dup1\n      0x754d740d\n      eq\n      tag_13\n      jumpi\n      dup1\n      0xc4d252f5\n      eq\n      tag_14\n      jumpi\n      jump(tag_2)\n    tag_15:\n      dup1\n      0x088775a3\n      eq\n      tag_3\n      jumpi\n      dup1\n      0x23da2f73\n      eq\n      tag_4\n      jumpi\n      dup1\n      0x2a0acc6a\n      eq\n      tag_5\n      jumpi\n      dup1\n      0x388a3cf5\n      eq\n      tag_6\n      jumpi\n      dup1\n      0x3f47158d\n      eq\n      tag_7\n      jumpi\n      dup1\n      0x3fa4f245\n      eq\n      tag_8\n      jumpi\n    tag_2:\n      0x00\n      dup1\n      revert\n        /* \"S/Secure Shell (SSH)/Secure Shell (SSH).sol\":4574:4612  mapping(bytes32 => uint256) public eta */\n    tag_3:\n      tag_16\n      0x04\n      dup1\n      calldatasize\n      sub\n      dup2\n      add\n      swap1\n      tag_17\n      swap2\n      swap1\n      tag_18\n      jump\t// in\n    tag_17:\n      tag_19\n      jump\t// in\n    tag_16:\n      mload(0x40)\n      tag_20\n      swap2\n      swap1\n      tag_21\n      jump\t// in\n    tag_20:\n      mload(0x40)\n      dup1\n      swap2\n      sub\n      swap1\n      return\n        /* \"S/Secure Shell (SSH)/Secure Shell (SSH).sol\":5441:5639  function queue(bytes calldata payload) external only(ADMIN) returns (bytes32 id) {... */\n    tag_4:\n      tag_22\n      0x04\n      dup1\n      calldatasize\n      sub\n      dup2\n      add\n      swap1\n      tag_23\n      swap2\n      swap1\n      tag_24\n      jump\t// in\n    tag_23:\n      tag_25\n      jump\t// in\n    tag_22:\n      mload(0x40)\n      tag_26\n      swap2\n      swap1\n      tag_27\n      jump\t// in\n    tag_26:\n      mload(0x40)\n      dup1\n      swap2\n      sub\n      swap1\n      return\n        /* \"S/Secure Shell (SSH)/Secure Shell (SSH).sol\":4439:4489  bytes32 public constant ADMIN = keccak256(\"ADMIN\") */\n    tag_5:\n      tag_28\n      tag_29\n      jump\t// in\n    tag_28:\n      mload(0x40)\n      tag_30\n      swap2\n      swap1\n      tag_27\n      jump\t// in\n    tag_30:\n      mload(0x40)\n      dup1\n      swap2\n      sub\n      swap1\n      return\n        /* \"S/Secure Shell (SSH)/Secure Shell (SSH).sol\":4645:4684  mapping(bytes32 => bool)    public done */\n    tag_6:\n      tag_31\n      0x04\n      dup1\n      calldatasize\n      sub\n      dup2\n      add\n      swap1\n      tag_32\n      swap2\n      swap1\n      tag_18\n      jump\t// in\n    tag_32:\n      tag_33\n      jump\t// in\n    tag_31:\n      mload(0x40)\n      tag_34\n      swap2\n      swap1\n      tag_35\n      jump\t// in\n    tag_34:\n      mload(0x40)\n      dup1\n      swap2\n      sub\n      swap1\n      return\n        /* \"S/Secure Shell (SSH)/Secure Shell (SSH).sol\":5645:5954  function exec(bytes calldata payload, bytes calldata /*sig*/) external override {... */\n    tag_7:\n      tag_36\n      0x04\n      dup1\n      calldatasize\n      sub\n      dup2\n      add\n      swap1\n      tag_37\n      swap2\n      swap1\n      tag_38\n      jump\t// in\n    tag_37:\n      tag_39\n      jump\t// in\n    tag_36:\n      stop\n        /* \"S/Secure Shell (SSH)/Secure Shell (SSH).sol\":6292:6312  uint256 public value */\n    tag_8:\n      tag_40\n      tag_41\n      jump\t// in\n    tag_40:\n      mload(0x40)\n      tag_42\n      swap2\n      swap1\n      tag_21\n      jump\t// in\n    tag_42:\n      mload(0x40)\n      dup1\n      swap2\n      sub\n      swap1\n      return\n        /* \"S/Secure Shell (SSH)/Secure Shell (SSH).sol\":4544:4567  address public guardian */\n    tag_9:\n      tag_43\n      tag_44\n      jump\t// in\n    tag_43:\n      mload(0x40)\n      tag_45\n      swap2\n      swap1\n      tag_46\n      jump\t// in\n    tag_45:\n      mload(0x40)\n      dup1\n      swap2\n      sub\n      swap1\n      return\n        /* \"S/Secure Shell (SSH)/Secure Shell (SSH).sol\":6318:6377  function set(uint256 v) external only(ADMIN) { value = v; } */\n    tag_10:\n      tag_47\n      0x04\n      dup1\n      calldatasize\n      sub\n      dup2\n      add\n      swap1\n      tag_48\n      swap2\n      swap1\n      tag_49\n      jump\t// in\n    tag_48:\n      tag_50\n      jump\t// in\n    tag_47:\n      stop\n        /* \"S/Secure Shell (SSH)/Secure Shell (SSH).sol\":4495:4525  uint256 public immutable delay */\n    tag_11:\n      tag_51\n      tag_52\n      jump\t// in\n    tag_51:\n      mload(0x40)\n      tag_53\n      swap2\n      swap1\n      tag_21\n      jump\t// in\n    tag_53:\n      mload(0x40)\n      dup1\n      swap2\n      sub\n      swap1\n      return\n        /* \"S/Secure Shell (SSH)/Secure Shell (SSH).sol\":5317:5383  function revoke(address a) external only(ADMIN) { _roles[a] = 0; } */\n    tag_12:\n      tag_54\n      0x04\n      dup1\n      calldatasize\n      sub\n      dup2\n      add\n      swap1\n      tag_55\n      swap2\n      swap1\n      tag_56\n      jump\t// in\n    tag_55:\n      tag_57\n      jump\t// in\n    tag_54:\n      stop\n        /* \"S/Secure Shell (SSH)/Secure Shell (SSH).sol\":5171:5312  function grant(address a, bytes32 r) external only(ADMIN) {... */\n    tag_13:\n      tag_58\n      0x04\n      dup1\n      calldatasize\n      sub\n      dup2\n      add\n      swap1\n      tag_59\n      swap2\n      swap1\n      tag_60\n      jump\t// in\n    tag_59:\n      tag_61\n      jump\t// in\n    tag_58:\n      stop\n        /* \"S/Secure Shell (SSH)/Secure Shell (SSH).sol\":5996:6123  function cancel(bytes32 id) external {... */\n    tag_14:\n      tag_62\n      0x04\n      dup1\n      calldatasize\n      sub\n      dup2\n      add\n      swap1\n      tag_63\n      swap2\n      swap1\n      tag_18\n      jump\t// in\n    tag_63:\n      tag_64\n      jump\t// in\n    tag_62:\n      stop\n        /* \"S/Secure Shell (SSH)/Secure Shell (SSH).sol\":4574:4612  mapping(bytes32 => uint256) public eta */\n    tag_19:\n      mstore(0x20, 0x01)\n      dup1\n      0x00\n      mstore\n      keccak256(0x00, 0x40)\n      0x00\n      swap2\n      pop\n      swap1\n      pop\n      sload\n      dup2\n      jump\t// out\n        /* \"S/Secure Shell (SSH)/Secure Shell (SSH).sol\":5441:5639  function queue(bytes calldata payload) external only(ADMIN) returns (bytes32 id) {... */\n    tag_25:\n        /* \"S/Secure Shell (SSH)/Secure Shell (SSH).sol\":5510:5520  bytes32 id */\n      0x00\n        /* \"S/Secure Shell (SSH)/Secure Shell (SSH).sol\":4471:4489  keccak256(\"ADMIN\") */\n      0xdf8b4c520ffe197c5343c6f5aec59570151ef9a492f2c624fd45ddde6135ec42\n        /* \"S/Secure Shell (SSH)/Secure Shell (SSH).sol\":5121:5125  role */\n      dup1\n        /* \"S/Secure Shell (SSH)/Secure Shell (SSH).sol\":5099:5105  _roles */\n      0x03\n        /* \"S/Secure Shell (SSH)/Secure Shell (SSH).sol\":5099:5117  _roles[msg.sender] */\n      0x00\n        /* \"S/Secure Shell (SSH)/Secure Shell (SSH).sol\":5106:5116  msg.sender */\n      caller\n        /* \"S/Secure Shell (SSH)/Secure Shell (SSH).sol\":5099:5117  _roles[msg.sender] */\n      0xffffffffffffffffffffffffffffffffffffffff\n      and\n      0xffffffffffffffffffffffffffffffffffffffff\n      and\n      dup2\n      mstore\n      0x20\n      add\n      swap1\n      dup2\n      mstore\n      0x20\n      add\n      0x00\n      keccak256\n      sload\n        /* \"S/Secure Shell (SSH)/Secure Shell (SSH).sol\":5099:5125  _roles[msg.sender] != role */\n      eq\n        /* \"S/Secure Shell (SSH)/Secure Shell (SSH).sol\":5095:5148  if (_roles[msg.sender] != role) revert SSH_NotAdmin() */\n      tag_66\n      jumpi\n        /* \"S/Secure Shell (SSH)/Secure Shell (SSH).sol\":5134:5148  SSH_NotAdmin() */\n      mload(0x40)\n      0xcdf9313e00000000000000000000000000000000000000000000000000000000\n      dup2\n      mstore\n      0x04\n      add\n      mload(0x40)\n      dup1\n      swap2\n      sub\n      swap1\n      revert\n        /* \"S/Secure Shell (SSH)/Secure Shell (SSH).sol\":5095:5148  if (_roles[msg.sender] != role) revert SSH_NotAdmin() */\n    tag_66:\n        /* \"S/Secure Shell (SSH)/Secure Shell (SSH).sol\":5547:5554  payload */\n      dup4\n      dup4\n        /* \"S/Secure Shell (SSH)/Secure Shell (SSH).sol\":5537:5555  keccak256(payload) */\n      mload(0x40)\n      tag_68\n      swap3\n      swap2\n      swap1\n      tag_69\n      jump\t// in\n    tag_68:\n      mload(0x40)\n      dup1\n      swap2\n      sub\n      swap1\n      keccak256\n        /* \"S/Secure Shell (SSH)/Secure Shell (SSH).sol\":5532:5555  id = keccak256(payload) */\n      swap2\n      pop\n        /* \"S/Secure Shell (SSH)/Secure Shell (SSH).sol\":5593:5598  delay */\n      immutable(\"0x6b5b33fd3ded2cf263edb232310f182d666aca7afaa45921be3c8956e7742d13\")\n        /* \"S/Secure Shell (SSH)/Secure Shell (SSH).sol\":5575:5590  block.timestamp */\n      timestamp\n        /* \"S/Secure Shell (SSH)/Secure Shell (SSH).sol\":5575:5598  block.timestamp + delay */\n      tag_70\n      swap2\n      swap1\n      tag_71\n      jump\t// in\n    tag_70:\n        /* \"S/Secure Shell (SSH)/Secure Shell (SSH).sol\":5565:5568  eta */\n      0x01\n        /* \"S/Secure Shell (SSH)/Secure Shell (SSH).sol\":5565:5572  eta[id] */\n      0x00\n        /* \"S/Secure Shell (SSH)/Secure Shell (SSH).sol\":5569:5571  id */\n      dup5\n        /* \"S/Secure Shell (SSH)/Secure Shell (SSH).sol\":5565:5572  eta[id] */\n      dup2\n      mstore\n      0x20\n      add\n      swap1\n      dup2\n      mstore\n      0x20\n      add\n      0x00\n      keccak256\n        /* \"S/Secure Shell (SSH)/Secure Shell (SSH).sol\":5565:5598  eta[id] = block.timestamp + delay */\n      dup2\n      swap1\n      sstore\n      pop\n        /* \"S/Secure Shell (SSH)/Secure Shell (SSH).sol\":5620:5622  id */\n      dup2\n        /* \"S/Secure Shell (SSH)/Secure Shell (SSH).sol\":5613:5632  Queued(id, eta[id]) */\n      0xc4c626f1f34927b0e12f8b00dc722390b9cf2bbf944aebc2e8226a4557f7f5a5\n        /* \"S/Secure Shell (SSH)/Secure Shell (SSH).sol\":5624:5627  eta */\n      0x01\n        /* \"S/Secure Shell (SSH)/Secure Shell (SSH).sol\":5624:5631  eta[id] */\n      0x00\n        /* \"S/Secure Shell (SSH)/Secure Shell (SSH).sol\":5628:5630  id */\n      dup6\n        /* \"S/Secure Shell (SSH)/Secure Shell (SSH).sol\":5624:5631  eta[id] */\n      dup2\n      mstore\n      0x20\n      add\n      swap1\n      dup2\n      mstore\n      0x20\n      add\n      0x00\n      keccak256\n      sload\n        /* \"S/Secure Shell (SSH)/Secure Shell (SSH).sol\":5613:5632  Queued(id, eta[id]) */\n      mload(0x40)\n      tag_72\n      swap2\n      swap1\n      tag_21\n      jump\t// in\n    tag_72:\n      mload(0x40)\n      dup1\n      swap2\n      sub\n      swap1\n      log2\n        /* \"S/Secure Shell (SSH)/Secure Shell (SSH).sol\":5441:5639  function queue(bytes calldata payload) external only(ADMIN) returns (bytes32 id) {... */\n      pop\n      swap3\n      swap2\n      pop\n      pop\n      jump\t// out\n        /* \"S/Secure Shell (SSH)/Secure Shell (SSH).sol\":4439:4489  bytes32 public constant ADMIN = keccak256(\"ADMIN\") */\n    tag_29:\n        /* \"S/Secure Shell (SSH)/Secure Shell (SSH).sol\":4471:4489  keccak256(\"ADMIN\") */\n      0xdf8b4c520ffe197c5343c6f5aec59570151ef9a492f2c624fd45ddde6135ec42\n        /* \"S/Secure Shell (SSH)/Secure Shell (SSH).sol\":4439:4489  bytes32 public constant ADMIN = keccak256(\"ADMIN\") */\n      dup2\n      jump\t// out\n        /* \"S/Secure Shell (SSH)/Secure Shell (SSH).sol\":4645:4684  mapping(bytes32 => bool)    public done */\n    tag_33:\n      mstore(0x20, 0x02)\n      dup1\n      0x00\n      mstore\n      keccak256(0x00, 0x40)\n      0x00\n      swap2\n      pop\n      sload\n      swap1\n      0x0100\n      exp\n      swap1\n      div\n      0xff\n      and\n      dup2\n      jump\t// out\n        /* \"S/Secure Shell (SSH)/Secure Shell (SSH).sol\":5645:5954  function exec(bytes calldata payload, bytes calldata /*sig*/) external override {... */\n    tag_39:\n        /* \"S/Secure Shell (SSH)/Secure Shell (SSH).sol\":5735:5745  bytes32 id */\n      0x00\n        /* \"S/Secure Shell (SSH)/Secure Shell (SSH).sol\":5758:5765  payload */\n      dup5\n      dup5\n        /* \"S/Secure Shell (SSH)/Secure Shell (SSH).sol\":5748:5766  keccak256(payload) */\n      mload(0x40)\n      tag_74\n      swap3\n      swap2\n      swap1\n      tag_69\n      jump\t// in\n    tag_74:\n      mload(0x40)\n      dup1\n      swap2\n      sub\n      swap1\n      keccak256\n        /* \"S/Secure Shell (SSH)/Secure Shell (SSH).sol\":5735:5766  bytes32 id = keccak256(payload) */\n      swap1\n      pop\n        /* \"S/Secure Shell (SSH)/Secure Shell (SSH).sol\":5798:5801  eta */\n      0x01\n        /* \"S/Secure Shell (SSH)/Secure Shell (SSH).sol\":5798:5805  eta[id] */\n      0x00\n        /* \"S/Secure Shell (SSH)/Secure Shell (SSH).sol\":5802:5804  id */\n      dup3\n        /* \"S/Secure Shell (SSH)/Secure Shell (SSH).sol\":5798:5805  eta[id] */\n      dup2\n      mstore\n      0x20\n      add\n      swap1\n      dup2\n      mstore\n      0x20\n      add\n      0x00\n      keccak256\n      sload\n        /* \"S/Secure Shell (SSH)/Secure Shell (SSH).sol\":5780:5795  block.timestamp */\n      timestamp\n        /* \"S/Secure Shell (SSH)/Secure Shell (SSH).sol\":5780:5805  block.timestamp < eta[id] */\n      lt\n        /* \"S/Secure Shell (SSH)/Secure Shell (SSH).sol\":5776:5827  if (block.timestamp < eta[id]) revert SSH_TooSoon() */\n      iszero\n      tag_75\n      jumpi\n        /* \"S/Secure Shell (SSH)/Secure Shell (SSH).sol\":5814:5827  SSH_TooSoon() */\n      mload(0x40)\n      0xfd0e89d200000000000000000000000000000000000000000000000000000000\n      dup2\n      mstore\n      0x04\n      add\n      mload(0x40)\n      dup1\n      swap2\n      sub\n      swap1\n      revert\n        /* \"S/Secure Shell (SSH)/Secure Shell (SSH).sol\":5776:5827  if (block.timestamp < eta[id]) revert SSH_TooSoon() */\n    tag_75:\n        /* \"S/Secure Shell (SSH)/Secure Shell (SSH).sol\":5841:5845  done */\n      0x02\n        /* \"S/Secure Shell (SSH)/Secure Shell (SSH).sol\":5841:5849  done[id] */\n      0x00\n        /* \"S/Secure Shell (SSH)/Secure Shell (SSH).sol\":5846:5848  id */\n      dup3\n        /* \"S/Secure Shell (SSH)/Secure Shell (SSH).sol\":5841:5849  done[id] */\n      dup2\n      mstore\n      0x20\n      add\n      swap1\n      dup2\n      mstore\n      0x20\n      add\n      0x00\n      keccak256\n      0x00\n      swap1\n      sload\n      swap1\n      0x0100\n      exp\n      swap1\n      div\n      0xff\n      and\n        /* \"S/Secure Shell (SSH)/Secure Shell (SSH).sol\":5837:5872  if (done[id]) revert SSH_Replayed() */\n      iszero\n      tag_76\n      jumpi\n        /* \"S/Secure Shell (SSH)/Secure Shell (SSH).sol\":5858:5872  SSH_Replayed() */\n      mload(0x40)\n      0xab444a4000000000000000000000000000000000000000000000000000000000\n      dup2\n      mstore\n      0x04\n      add\n      mload(0x40)\n      dup1\n      swap2\n      sub\n      swap1\n      revert\n        /* \"S/Secure Shell (SSH)/Secure Shell (SSH).sol\":5837:5872  if (done[id]) revert SSH_Replayed() */\n    tag_76:\n        /* \"S/Secure Shell (SSH)/Secure Shell (SSH).sol\":5893:5897  true */\n      0x01\n        /* \"S/Secure Shell (SSH)/Secure Shell (SSH).sol\":5882:5886  done */\n      0x02\n        /* \"S/Secure Shell (SSH)/Secure Shell (SSH).sol\":5882:5890  done[id] */\n      0x00\n        /* \"S/Secure Shell (SSH)/Secure Shell (SSH).sol\":5887:5889  id */\n      dup4\n        /* \"S/Secure Shell (SSH)/Secure Shell (SSH).sol\":5882:5890  done[id] */\n      dup2\n      mstore\n      0x20\n      add\n      swap1\n      dup2\n      mstore\n      0x20\n      add\n      0x00\n      keccak256\n      0x00\n        /* \"S/Secure Shell (SSH)/Secure Shell (SSH).sol\":5882:5897  done[id] = true */\n      0x0100\n      exp\n      dup2\n      sload\n      dup2\n      0xff\n      mul\n      not\n      and\n      swap1\n      dup4\n      iszero\n      iszero\n      mul\n      or\n      swap1\n      sstore\n      pop\n        /* \"S/Secure Shell (SSH)/Secure Shell (SSH).sol\":5907:5920  _run(payload) */\n      tag_77\n        /* \"S/Secure Shell (SSH)/Secure Shell (SSH).sol\":5912:5919  payload */\n      dup6\n      dup6\n        /* \"S/Secure Shell (SSH)/Secure Shell (SSH).sol\":5907:5911  _run */\n      tag_78\n        /* \"S/Secure Shell (SSH)/Secure Shell (SSH).sol\":5907:5920  _run(payload) */\n      jump\t// in\n    tag_77:\n        /* \"S/Secure Shell (SSH)/Secure Shell (SSH).sol\":5944:5946  id */\n      dup1\n        /* \"S/Secure Shell (SSH)/Secure Shell (SSH).sol\":5935:5947  Executed(id) */\n      0xa74c8847d513feba22a0f0cb38d53081abf97562cdb293926ba243689e7c41ca\n      mload(0x40)\n      mload(0x40)\n      dup1\n      swap2\n      sub\n      swap1\n      log2\n        /* \"S/Secure Shell (SSH)/Secure Shell (SSH).sol\":5725:5954  {... */\n      pop\n        /* \"S/Secure Shell (SSH)/Secure Shell (SSH).sol\":5645:5954  function exec(bytes calldata payload, bytes calldata /*sig*/) external override {... */\n      pop\n      pop\n      pop\n      pop\n      jump\t// out\n        /* \"S/Secure Shell (SSH)/Secure Shell (SSH).sol\":6292:6312  uint256 public value */\n    tag_41:\n      sload(0x04)\n      dup2\n      jump\t// out\n        /* \"S/Secure Shell (SSH)/Secure Shell (SSH).sol\":4544:4567  address public guardian */\n    tag_44:\n      0x00\n      dup1\n      sload\n      swap1\n      0x0100\n      exp\n      swap1\n      div\n      0xffffffffffffffffffffffffffffffffffffffff\n      and\n      dup2\n      jump\t// out\n        /* \"S/Secure Shell (SSH)/Secure Shell (SSH).sol\":6318:6377  function set(uint256 v) external only(ADMIN) { value = v; } */\n    tag_50:\n        /* \"S/Secure Shell (SSH)/Secure Shell (SSH).sol\":4471:4489  keccak256(\"ADMIN\") */\n      0xdf8b4c520ffe197c5343c6f5aec59570151ef9a492f2c624fd45ddde6135ec42\n        /* \"S/Secure Shell (SSH)/Secure Shell (SSH).sol\":5121:5125  role */\n      dup1\n        /* \"S/Secure Shell (SSH)/Secure Shell (SSH).sol\":5099:5105  _roles */\n      0x03\n        /* \"S/Secure Shell (SSH)/Secure Shell (SSH).sol\":5099:5117  _roles[msg.sender] */\n      0x00\n        /* \"S/Secure Shell (SSH)/Secure Shell (SSH).sol\":5106:5116  msg.sender */\n      caller\n        /* \"S/Secure Shell (SSH)/Secure Shell (SSH).sol\":5099:5117  _roles[msg.sender] */\n      0xffffffffffffffffffffffffffffffffffffffff\n      and\n      0xffffffffffffffffffffffffffffffffffffffff\n      and\n      dup2\n      mstore\n      0x20\n      add\n      swap1\n      dup2\n      mstore\n      0x20\n      add\n      0x00\n      keccak256\n      sload\n        /* \"S/Secure Shell (SSH)/Secure Shell (SSH).sol\":5099:5125  _roles[msg.sender] != role */\n      eq\n        /* \"S/Secure Shell (SSH)/Secure Shell (SSH).sol\":5095:5148  if (_roles[msg.sender] != role) revert SSH_NotAdmin() */\n      tag_80\n      jumpi\n        /* \"S/Secure Shell (SSH)/Secure Shell (SSH).sol\":5134:5148  SSH_NotAdmin() */\n      mload(0x40)\n      0xcdf9313e00000000000000000000000000000000000000000000000000000000\n      dup2\n      mstore\n      0x04\n      add\n      mload(0x40)\n      dup1\n      swap2\n      sub\n      swap1\n      revert\n        /* \"S/Secure Shell (SSH)/Secure Shell (SSH).sol\":5095:5148  if (_roles[msg.sender] != role) revert SSH_NotAdmin() */\n    tag_80:\n        /* \"S/Secure Shell (SSH)/Secure Shell (SSH).sol\":6373:6374  v */\n      dup2\n        /* \"S/Secure Shell (SSH)/Secure Shell (SSH).sol\":6365:6370  value */\n      0x04\n        /* \"S/Secure Shell (SSH)/Secure Shell (SSH).sol\":6365:6374  value = v */\n      dup2\n      swap1\n      sstore\n      pop\n        /* \"S/Secure Shell (SSH)/Secure Shell (SSH).sol\":6318:6377  function set(uint256 v) external only(ADMIN) { value = v; } */\n      pop\n      pop\n      jump\t// out\n        /* \"S/Secure Shell (SSH)/Secure Shell (SSH).sol\":4495:4525  uint256 public immutable delay */\n    tag_52:\n      immutable(\"0x6b5b33fd3ded2cf263edb232310f182d666aca7afaa45921be3c8956e7742d13\")\n      dup2\n      jump\t// out\n        /* \"S/Secure Shell (SSH)/Secure Shell (SSH).sol\":5317:5383  function revoke(address a) external only(ADMIN) { _roles[a] = 0; } */\n    tag_57:\n        /* \"S/Secure Shell (SSH)/Secure Shell (SSH).sol\":4471:4489  keccak256(\"ADMIN\") */\n      0xdf8b4c520ffe197c5343c6f5aec59570151ef9a492f2c624fd45ddde6135ec42\n        /* \"S/Secure Shell (SSH)/Secure Shell (SSH).sol\":5121:5125  role */\n      dup1\n        /* \"S/Secure Shell (SSH)/Secure Shell (SSH).sol\":5099:5105  _roles */\n      0x03\n        /* \"S/Secure Shell (SSH)/Secure Shell (SSH).sol\":5099:5117  _roles[msg.sender] */\n      0x00\n        /* \"S/Secure Shell (SSH)/Secure Shell (SSH).sol\":5106:5116  msg.sender */\n      caller\n        /* \"S/Secure Shell (SSH)/Secure Shell (SSH).sol\":5099:5117  _roles[msg.sender] */\n      0xffffffffffffffffffffffffffffffffffffffff\n      and\n      0xffffffffffffffffffffffffffffffffffffffff\n      and\n      dup2\n      mstore\n      0x20\n      add\n      swap1\n      dup2\n      mstore\n      0x20\n      add\n      0x00\n      keccak256\n      sload\n        /* \"S/Secure Shell (SSH)/Secure Shell (SSH).sol\":5099:5125  _roles[msg.sender] != role */\n      eq\n        /* \"S/Secure Shell (SSH)/Secure Shell (SSH).sol\":5095:5148  if (_roles[msg.sender] != role) revert SSH_NotAdmin() */\n      tag_83\n      jumpi\n        /* \"S/Secure Shell (SSH)/Secure Shell (SSH).sol\":5134:5148  SSH_NotAdmin() */\n      mload(0x40)\n      0xcdf9313e00000000000000000000000000000000000000000000000000000000\n      dup2\n      mstore\n      0x04\n      add\n      mload(0x40)\n      dup1\n      swap2\n      sub\n      swap1\n      revert\n        /* \"S/Secure Shell (SSH)/Secure Shell (SSH).sol\":5095:5148  if (_roles[msg.sender] != role) revert SSH_NotAdmin() */\n    tag_83:\n        /* \"S/Secure Shell (SSH)/Secure Shell (SSH).sol\":5379:5380  0 */\n      0x00\n        /* \"S/Secure Shell (SSH)/Secure Shell (SSH).sol\":5367:5380  _roles[a] = 0 */\n      dup1\n      shl\n        /* \"S/Secure Shell (SSH)/Secure Shell (SSH).sol\":5367:5373  _roles */\n      0x03\n        /* \"S/Secure Shell (SSH)/Secure Shell (SSH).sol\":5367:5376  _roles[a] */\n      0x00\n        /* \"S/Secure Shell (SSH)/Secure Shell (SSH).sol\":5374:5375  a */\n      dup5\n        /* \"S/Secure Shell (SSH)/Secure Shell (SSH).sol\":5367:5376  _roles[a] */\n      0xffffffffffffffffffffffffffffffffffffffff\n      and\n      0xffffffffffffffffffffffffffffffffffffffff\n      and\n      dup2\n      mstore\n      0x20\n      add\n      swap1\n      dup2\n      mstore\n      0x20\n      add\n      0x00\n      keccak256\n        /* \"S/Secure Shell (SSH)/Secure Shell (SSH).sol\":5367:5380  _roles[a] = 0 */\n      dup2\n      swap1\n      sstore\n      pop\n        /* \"S/Secure Shell (SSH)/Secure Shell (SSH).sol\":5317:5383  function revoke(address a) external only(ADMIN) { _roles[a] = 0; } */\n      pop\n      pop\n      jump\t// out\n        /* \"S/Secure Shell (SSH)/Secure Shell (SSH).sol\":5171:5312  function grant(address a, bytes32 r) external only(ADMIN) {... */\n    tag_61:\n        /* \"S/Secure Shell (SSH)/Secure Shell (SSH).sol\":4471:4489  keccak256(\"ADMIN\") */\n      0xdf8b4c520ffe197c5343c6f5aec59570151ef9a492f2c624fd45ddde6135ec42\n        /* \"S/Secure Shell (SSH)/Secure Shell (SSH).sol\":5121:5125  role */\n      dup1\n        /* \"S/Secure Shell (SSH)/Secure Shell (SSH).sol\":5099:5105  _roles */\n      0x03\n        /* \"S/Secure Shell (SSH)/Secure Shell (SSH).sol\":5099:5117  _roles[msg.sender] */\n      0x00\n        /* \"S/Secure Shell (SSH)/Secure Shell (SSH).sol\":5106:5116  msg.sender */\n      caller\n        /* \"S/Secure Shell (SSH)/Secure Shell (SSH).sol\":5099:5117  _roles[msg.sender] */\n      0xffffffffffffffffffffffffffffffffffffffff\n      and\n      0xffffffffffffffffffffffffffffffffffffffff\n      and\n      dup2\n      mstore\n      0x20\n      add\n      swap1\n      dup2\n      mstore\n      0x20\n      add\n      0x00\n      keccak256\n      sload\n        /* \"S/Secure Shell (SSH)/Secure Shell (SSH).sol\":5099:5125  _roles[msg.sender] != role */\n      eq\n        /* \"S/Secure Shell (SSH)/Secure Shell (SSH).sol\":5095:5148  if (_roles[msg.sender] != role) revert SSH_NotAdmin() */\n      tag_86\n      jumpi\n        /* \"S/Secure Shell (SSH)/Secure Shell (SSH).sol\":5134:5148  SSH_NotAdmin() */\n      mload(0x40)\n      0xcdf9313e00000000000000000000000000000000000000000000000000000000\n      dup2\n      mstore\n      0x04\n      add\n      mload(0x40)\n      dup1\n      swap2\n      sub\n      swap1\n      revert\n        /* \"S/Secure Shell (SSH)/Secure Shell (SSH).sol\":5095:5148  if (_roles[msg.sender] != role) revert SSH_NotAdmin() */\n    tag_86:\n        /* \"S/Secure Shell (SSH)/Secure Shell (SSH).sol\":5256:5257  0 */\n      0x00\n        /* \"S/Secure Shell (SSH)/Secure Shell (SSH).sol\":5243:5257  _roles[a] != 0 */\n      dup1\n      shl\n        /* \"S/Secure Shell (SSH)/Secure Shell (SSH).sol\":5243:5249  _roles */\n      0x03\n        /* \"S/Secure Shell (SSH)/Secure Shell (SSH).sol\":5243:5252  _roles[a] */\n      0x00\n        /* \"S/Secure Shell (SSH)/Secure Shell (SSH).sol\":5250:5251  a */\n      dup6\n        /* \"S/Secure Shell (SSH)/Secure Shell (SSH).sol\":5243:5252  _roles[a] */\n      0xffffffffffffffffffffffffffffffffffffffff\n      and\n      0xffffffffffffffffffffffffffffffffffffffff\n      and\n      dup2\n      mstore\n      0x20\n      add\n      swap1\n      dup2\n      mstore\n      0x20\n      add\n      0x00\n      keccak256\n      sload\n        /* \"S/Secure Shell (SSH)/Secure Shell (SSH).sol\":5243:5257  _roles[a] != 0 */\n      eq\n        /* \"S/Secure Shell (SSH)/Secure Shell (SSH).sol\":5239:5282  if (_roles[a] != 0) revert SSH_RoleExists() */\n      tag_88\n      jumpi\n        /* \"S/Secure Shell (SSH)/Secure Shell (SSH).sol\":5266:5282  SSH_RoleExists() */\n      mload(0x40)\n      0x2b069d4300000000000000000000000000000000000000000000000000000000\n      dup2\n      mstore\n      0x04\n      add\n      mload(0x40)\n      dup1\n      swap2\n      sub\n      swap1\n      revert\n        /* \"S/Secure Shell (SSH)/Secure Shell (SSH).sol\":5239:5282  if (_roles[a] != 0) revert SSH_RoleExists() */\n    tag_88:\n        /* \"S/Secure Shell (SSH)/Secure Shell (SSH).sol\":5304:5305  r */\n      dup2\n        /* \"S/Secure Shell (SSH)/Secure Shell (SSH).sol\":5292:5298  _roles */\n      0x03\n        /* \"S/Secure Shell (SSH)/Secure Shell (SSH).sol\":5292:5301  _roles[a] */\n      0x00\n        /* \"S/Secure Shell (SSH)/Secure Shell (SSH).sol\":5299:5300  a */\n      dup6\n        /* \"S/Secure Shell (SSH)/Secure Shell (SSH).sol\":5292:5301  _roles[a] */\n      0xffffffffffffffffffffffffffffffffffffffff\n      and\n      0xffffffffffffffffffffffffffffffffffffffff\n      and\n      dup2\n      mstore\n      0x20\n      add\n      swap1\n      dup2\n      mstore\n      0x20\n      add\n      0x00\n      keccak256\n        /* \"S/Secure Shell (SSH)/Secure Shell (SSH).sol\":5292:5305  _roles[a] = r */\n      dup2\n      swap1\n      sstore\n      pop\n        /* \"S/Secure Shell (SSH)/Secure Shell (SSH).sol\":5171:5312  function grant(address a, bytes32 r) external only(ADMIN) {... */\n      pop\n      pop\n      pop\n      jump\t// out\n        /* \"S/Secure Shell (SSH)/Secure Shell (SSH).sol\":5996:6123  function cancel(bytes32 id) external {... */\n    tag_64:\n        /* \"S/Secure Shell (SSH)/Secure Shell (SSH).sol\":6061:6069  guardian */\n      0x00\n      dup1\n      sload\n      swap1\n      0x0100\n      exp\n      swap1\n      div\n      0xffffffffffffffffffffffffffffffffffffffff\n      and\n        /* \"S/Secure Shell (SSH)/Secure Shell (SSH).sol\":6047:6069  msg.sender != guardian */\n      0xffffffffffffffffffffffffffffffffffffffff\n      and\n        /* \"S/Secure Shell (SSH)/Secure Shell (SSH).sol\":6047:6057  msg.sender */\n      caller\n        /* \"S/Secure Shell (SSH)/Secure Shell (SSH).sol\":6047:6069  msg.sender != guardian */\n      0xffffffffffffffffffffffffffffffffffffffff\n      and\n      eq\n        /* \"S/Secure Shell (SSH)/Secure Shell (SSH).sol\":6043:6092  if (msg.sender != guardian) revert SSH_NotAdmin() */\n      tag_90\n      jumpi\n        /* \"S/Secure Shell (SSH)/Secure Shell (SSH).sol\":6078:6092  SSH_NotAdmin() */\n      mload(0x40)\n      0xcdf9313e00000000000000000000000000000000000000000000000000000000\n      dup2\n      mstore\n      0x04\n      add\n      mload(0x40)\n      dup1\n      swap2\n      sub\n      swap1\n      revert\n        /* \"S/Secure Shell (SSH)/Secure Shell (SSH).sol\":6043:6092  if (msg.sender != guardian) revert SSH_NotAdmin() */\n    tag_90:\n        /* \"S/Secure Shell (SSH)/Secure Shell (SSH).sol\":6109:6112  eta */\n      0x01\n        /* \"S/Secure Shell (SSH)/Secure Shell (SSH).sol\":6109:6116  eta[id] */\n      0x00\n        /* \"S/Secure Shell (SSH)/Secure Shell (SSH).sol\":6113:6115  id */\n      dup3\n        /* \"S/Secure Shell (SSH)/Secure Shell (SSH).sol\":6109:6116  eta[id] */\n      dup2\n      mstore\n      0x20\n      add\n      swap1\n      dup2\n      mstore\n      0x20\n      add\n      0x00\n      keccak256\n        /* \"S/Secure Shell (SSH)/Secure Shell (SSH).sol\":6102:6116  delete eta[id] */\n      0x00\n      swap1\n      sstore\n        /* \"S/Secure Shell (SSH)/Secure Shell (SSH).sol\":5996:6123  function cancel(bytes32 id) external {... */\n      pop\n      jump\t// out\n        /* \"S/Secure Shell (SSH)/Secure Shell (SSH).sol\":6129:6242  function _run(bytes calldata p) internal {... */\n    tag_78:\n        /* \"S/Secure Shell (SSH)/Secure Shell (SSH).sol\":6181:6188  bool ok */\n      0x00\n        /* \"S/Secure Shell (SSH)/Secure Shell (SSH).sol\":6201:6205  this */\n      address\n        /* \"S/Secure Shell (SSH)/Secure Shell (SSH).sol\":6193:6211  address(this).call */\n      0xffffffffffffffffffffffffffffffffffffffff\n      and\n        /* \"S/Secure Shell (SSH)/Secure Shell (SSH).sol\":6212:6213  p */\n      dup4\n      dup4\n        /* \"S/Secure Shell (SSH)/Secure Shell (SSH).sol\":6193:6214  address(this).call(p) */\n      mload(0x40)\n      tag_92\n      swap3\n      swap2\n      swap1\n      tag_69\n      jump\t// in\n    tag_92:\n      0x00\n      mload(0x40)\n      dup1\n      dup4\n      sub\n      dup2\n      0x00\n      dup7\n      gas\n      call\n      swap2\n      pop\n      pop\n      returndatasize\n      dup1\n      0x00\n      dup2\n      eq\n      tag_95\n      jumpi\n      mload(0x40)\n      swap2\n      pop\n      and(add(returndatasize, 0x3f), not(0x1f))\n      dup3\n      add\n      0x40\n      mstore\n      returndatasize\n      dup3\n      mstore\n      returndatasize\n      0x00\n      0x20\n      dup5\n      add\n      returndatacopy\n      jump(tag_94)\n    tag_95:\n      0x60\n      swap2\n      pop\n    tag_94:\n      pop\n        /* \"S/Secure Shell (SSH)/Secure Shell (SSH).sol\":6180:6214  (bool ok,) = address(this).call(p) */\n      pop\n      swap1\n      pop\n        /* \"S/Secure Shell (SSH)/Secure Shell (SSH).sol\":6232:6234  ok */\n      dup1\n        /* \"S/Secure Shell (SSH)/Secure Shell (SSH).sol\":6224:6235  require(ok) */\n      tag_96\n      jumpi\n      0x00\n      dup1\n      revert\n    tag_96:\n        /* \"S/Secure Shell (SSH)/Secure Shell (SSH).sol\":6170:6242  {... */\n      pop\n        /* \"S/Secure Shell (SSH)/Secure Shell (SSH).sol\":6129:6242  function _run(bytes calldata p) internal {... */\n      pop\n      pop\n      jump\t// out\n        /* \"#utility.yul\":88:205   */\n    tag_98:\n        /* \"#utility.yul\":197:198   */\n      0x00\n        /* \"#utility.yul\":194:195   */\n      dup1\n        /* \"#utility.yul\":187:199   */\n      revert\n        /* \"#utility.yul\":211:328   */\n    tag_99:\n        /* \"#utility.yul\":320:321   */\n      0x00\n        /* \"#utility.yul\":317:318   */\n      dup1\n        /* \"#utility.yul\":310:322   */\n      revert\n        /* \"#utility.yul\":334:411   */\n    tag_100:\n        /* \"#utility.yul\":371:378   */\n      0x00\n        /* \"#utility.yul\":400:405   */\n      dup2\n        /* \"#utility.yul\":389:405   */\n      swap1\n      pop\n        /* \"#utility.yul\":334:411   */\n      swap2\n      swap1\n      pop\n      jump\t// out\n        /* \"#utility.yul\":417:539   */\n    tag_101:\n        /* \"#utility.yul\":490:514   */\n      tag_129\n        /* \"#utility.yul\":508:513   */\n      dup2\n        /* \"#utility.yul\":490:514   */\n      tag_100\n      jump\t// in\n    tag_129:\n        /* \"#utility.yul\":483:488   */\n      dup2\n        /* \"#utility.yul\":480:515   */\n      eq\n        /* \"#utility.yul\":470:533   */\n      tag_130\n      jumpi\n        /* \"#utility.yul\":529:530   */\n      0x00\n        /* \"#utility.yul\":526:527   */\n      dup1\n        /* \"#utility.yul\":519:531   */\n      revert\n        /* \"#utility.yul\":470:533   */\n    tag_130:\n        /* \"#utility.yul\":417:539   */\n      pop\n      jump\t// out\n        /* \"#utility.yul\":545:684   */\n    tag_102:\n        /* \"#utility.yul\":591:596   */\n      0x00\n        /* \"#utility.yul\":629:635   */\n      dup2\n        /* \"#utility.yul\":616:636   */\n      calldataload\n        /* \"#utility.yul\":607:636   */\n      swap1\n      pop\n        /* \"#utility.yul\":645:678   */\n      tag_132\n        /* \"#utility.yul\":672:677   */\n      dup2\n        /* \"#utility.yul\":645:678   */\n      tag_101\n      jump\t// in\n    tag_132:\n        /* \"#utility.yul\":545:684   */\n      swap3\n      swap2\n      pop\n      pop\n      jump\t// out\n        /* \"#utility.yul\":690:1019   */\n    tag_18:\n        /* \"#utility.yul\":749:755   */\n      0x00\n        /* \"#utility.yul\":798:800   */\n      0x20\n        /* \"#utility.yul\":786:795   */\n      dup3\n        /* \"#utility.yul\":777:784   */\n      dup5\n        /* \"#utility.yul\":773:796   */\n      sub\n        /* \"#utility.yul\":769:801   */\n      slt\n        /* \"#utility.yul\":766:885   */\n      iszero\n      tag_134\n      jumpi\n        /* \"#utility.yul\":804:883   */\n      tag_135\n      tag_98\n      jump\t// in\n    tag_135:\n        /* \"#utility.yul\":766:885   */\n    tag_134:\n        /* \"#utility.yul\":924:925   */\n      0x00\n        /* \"#utility.yul\":949:1002   */\n      tag_136\n        /* \"#utility.yul\":994:1001   */\n      dup5\n        /* \"#utility.yul\":985:991   */\n      dup3\n        /* \"#utility.yul\":974:983   */\n      dup6\n        /* \"#utility.yul\":970:992   */\n      add\n        /* \"#utility.yul\":949:1002   */\n      tag_102\n      jump\t// in\n    tag_136:\n        /* \"#utility.yul\":939:1002   */\n      swap2\n      pop\n        /* \"#utility.yul\":895:1012   */\n      pop\n        /* \"#utility.yul\":690:1019   */\n      swap3\n      swap2\n      pop\n      pop\n      jump\t// out\n        /* \"#utility.yul\":1025:1102   */\n    tag_103:\n        /* \"#utility.yul\":1062:1069   */\n      0x00\n        /* \"#utility.yul\":1091:1096   */\n      dup2\n        /* \"#utility.yul\":1080:1096   */\n      swap1\n      pop\n        /* \"#utility.yul\":1025:1102   */\n      swap2\n      swap1\n      pop\n      jump\t// out\n        /* \"#utility.yul\":1108:1226   */\n    tag_104:\n        /* \"#utility.yul\":1195:1219   */\n      tag_139\n        /* \"#utility.yul\":1213:1218   */\n      dup2\n        /* \"#utility.yul\":1195:1219   */\n      tag_103\n      jump\t// in\n    tag_139:\n        /* \"#utility.yul\":1190:1193   */\n      dup3\n        /* \"#utility.yul\":1183:1220   */\n      mstore\n        /* \"#utility.yul\":1108:1226   */\n      pop\n      pop\n      jump\t// out\n        /* \"#utility.yul\":1232:1454   */\n    tag_21:\n        /* \"#utility.yul\":1325:1329   */\n      0x00\n        /* \"#utility.yul\":1363:1365   */\n      0x20\n        /* \"#utility.yul\":1352:1361   */\n      dup3\n        /* \"#utility.yul\":1348:1366   */\n      add\n        /* \"#utility.yul\":1340:1366   */\n      swap1\n      pop\n        /* \"#utility.yul\":1376:1447   */\n      tag_141\n        /* \"#utility.yul\":1444:1445   */\n      0x00\n        /* \"#utility.yul\":1433:1442   */\n      dup4\n        /* \"#utility.yul\":1429:1446   */\n      add\n        /* \"#utility.yul\":1420:1426   */\n      dup5\n        /* \"#utility.yul\":1376:1447   */\n      tag_104\n      jump\t// in\n    tag_141:\n        /* \"#utility.yul\":1232:1454   */\n      swap3\n      swap2\n      pop\n      pop\n      jump\t// out\n        /* \"#utility.yul\":1460:1577   */\n    tag_105:\n        /* \"#utility.yul\":1569:1570   */\n      0x00\n        /* \"#utility.yul\":1566:1567   */\n      dup1\n        /* \"#utility.yul\":1559:1571   */\n      revert\n        /* \"#utility.yul\":1583:1700   */\n    tag_106:\n        /* \"#utility.yul\":1692:1693   */\n      0x00\n        /* \"#utility.yul\":1689:1690   */\n      dup1\n        /* \"#utility.yul\":1682:1694   */\n      revert\n        /* \"#utility.yul\":1706:1823   */\n    tag_107:\n        /* \"#utility.yul\":1815:1816   */\n      0x00\n        /* \"#utility.yul\":1812:1813   */\n      dup1\n        /* \"#utility.yul\":1805:1817   */\n      revert\n        /* \"#utility.yul\":1842:2394   */\n    tag_108:\n        /* \"#utility.yul\":1899:1907   */\n      0x00\n        /* \"#utility.yul\":1909:1915   */\n      dup1\n        /* \"#utility.yul\":1959:1962   */\n      dup4\n        /* \"#utility.yul\":1952:1956   */\n      0x1f\n        /* \"#utility.yul\":1944:1950   */\n      dup5\n        /* \"#utility.yul\":1940:1957   */\n      add\n        /* \"#utility.yul\":1936:1963   */\n      slt\n        /* \"#utility.yul\":1926:2048   */\n      tag_146\n      jumpi\n        /* \"#utility.yul\":1967:2046   */\n      tag_147\n      tag_105\n      jump\t// in\n    tag_147:\n        /* \"#utility.yul\":1926:2048   */\n    tag_146:\n        /* \"#utility.yul\":2080:2086   */\n      dup3\n        /* \"#utility.yul\":2067:2087   */\n      calldataload\n        /* \"#utility.yul\":2057:2087   */\n      swap1\n      pop\n        /* \"#utility.yul\":2110:2128   */\n      0xffffffffffffffff\n        /* \"#utility.yul\":2102:2108   */\n      dup2\n        /* \"#utility.yul\":2099:2129   */\n      gt\n        /* \"#utility.yul\":2096:2213   */\n      iszero\n      tag_148\n      jumpi\n        /* \"#utility.yul\":2132:2211   */\n      tag_149\n      tag_106\n      jump\t// in\n    tag_149:\n        /* \"#utility.yul\":2096:2213   */\n    tag_148:\n        /* \"#utility.yul\":2246:2250   */\n      0x20\n        /* \"#utility.yul\":2238:2244   */\n      dup4\n        /* \"#utility.yul\":2234:2251   */\n      add\n        /* \"#utility.yul\":2222:2251   */\n      swap2\n      pop\n        /* \"#utility.yul\":2300:2303   */\n      dup4\n        /* \"#utility.yul\":2292:2296   */\n      0x01\n        /* \"#utility.yul\":2284:2290   */\n      dup3\n        /* \"#utility.yul\":2280:2297   */\n      mul\n        /* \"#utility.yul\":2270:2278   */\n      dup4\n        /* \"#utility.yul\":2266:2298   */\n      add\n        /* \"#utility.yul\":2263:2304   */\n      gt\n        /* \"#utility.yul\":2260:2388   */\n      iszero\n      tag_150\n      jumpi\n        /* \"#utility.yul\":2307:2386   */\n      tag_151\n      tag_107\n      jump\t// in\n    tag_151:\n        /* \"#utility.yul\":2260:2388   */\n    tag_150:\n        /* \"#utility.yul\":1842:2394   */\n      swap3\n      pop\n      swap3\n      swap1\n      pop\n      jump\t// out\n        /* \"#utility.yul\":2400:2927   */\n    tag_24:\n        /* \"#utility.yul\":2470:2476   */\n      0x00\n        /* \"#utility.yul\":2478:2484   */\n      dup1\n        /* \"#utility.yul\":2527:2529   */\n      0x20\n        /* \"#utility.yul\":2515:2524   */\n      dup4\n        /* \"#utility.yul\":2506:2513   */\n      dup6\n        /* \"#utility.yul\":2502:2525   */\n      sub\n        /* \"#utility.yul\":2498:2530   */\n      slt\n        /* \"#utility.yul\":2495:2614   */\n      iszero\n      tag_153\n      jumpi\n        /* \"#utility.yul\":2533:2612   */\n      tag_154\n      tag_98\n      jump\t// in\n    tag_154:\n        /* \"#utility.yul\":2495:2614   */\n    tag_153:\n        /* \"#utility.yul\":2681:2682   */\n      0x00\n        /* \"#utility.yul\":2670:2679   */\n      dup4\n        /* \"#utility.yul\":2666:2683   */\n      add\n        /* \"#utility.yul\":2653:2684   */\n      calldataload\n        /* \"#utility.yul\":2711:2729   */\n      0xffffffffffffffff\n        /* \"#utility.yul\":2703:2709   */\n      dup2\n        /* \"#utility.yul\":2700:2730   */\n      gt\n        /* \"#utility.yul\":2697:2814   */\n      iszero\n      tag_155\n      jumpi\n        /* \"#utility.yul\":2733:2812   */\n      tag_156\n      tag_99\n      jump\t// in\n    tag_156:\n        /* \"#utility.yul\":2697:2814   */\n    tag_155:\n        /* \"#utility.yul\":2846:2910   */\n      tag_157\n        /* \"#utility.yul\":2902:2909   */\n      dup6\n        /* \"#utility.yul\":2893:2899   */\n      dup3\n        /* \"#utility.yul\":2882:2891   */\n      dup7\n        /* \"#utility.yul\":2878:2900   */\n      add\n        /* \"#utility.yul\":2846:2910   */\n      tag_108\n      jump\t// in\n    tag_157:\n        /* \"#utility.yul\":2828:2910   */\n      swap3\n      pop\n      swap3\n      pop\n        /* \"#utility.yul\":2624:2920   */\n      pop\n        /* \"#utility.yul\":2400:2927   */\n      swap3\n      pop\n      swap3\n      swap1\n      pop\n      jump\t// out\n        /* \"#utility.yul\":2933:3051   */\n    tag_109:\n        /* \"#utility.yul\":3020:3044   */\n      tag_159\n        /* \"#utility.yul\":3038:3043   */\n      dup2\n        /* \"#utility.yul\":3020:3044   */\n      tag_100\n      jump\t// in\n    tag_159:\n        /* \"#utility.yul\":3015:3018   */\n      dup3\n        /* \"#utility.yul\":3008:3045   */\n      mstore\n        /* \"#utility.yul\":2933:3051   */\n      pop\n      pop\n      jump\t// out\n        /* \"#utility.yul\":3057:3279   */\n    tag_27:\n        /* \"#utility.yul\":3150:3154   */\n      0x00\n        /* \"#utility.yul\":3188:3190   */\n      0x20\n        /* \"#utility.yul\":3177:3186   */\n      dup3\n        /* \"#utility.yul\":3173:3191   */\n      add\n        /* \"#utility.yul\":3165:3191   */\n      swap1\n      pop\n        /* \"#utility.yul\":3201:3272   */\n      tag_161\n        /* \"#utility.yul\":3269:3270   */\n      0x00\n        /* \"#utility.yul\":3258:3267   */\n      dup4\n        /* \"#utility.yul\":3254:3271   */\n      add\n        /* \"#utility.yul\":3245:3251   */\n      dup5\n        /* \"#utility.yul\":3201:3272   */\n      tag_109\n      jump\t// in\n    tag_161:\n        /* \"#utility.yul\":3057:3279   */\n      swap3\n      swap2\n      pop\n      pop\n      jump\t// out\n        /* \"#utility.yul\":3285:3375   */\n    tag_110:\n        /* \"#utility.yul\":3319:3326   */\n      0x00\n        /* \"#utility.yul\":3362:3367   */\n      dup2\n        /* \"#utility.yul\":3355:3368   */\n      iszero\n        /* \"#utility.yul\":3348:3369   */\n      iszero\n        /* \"#utility.yul\":3337:3369   */\n      swap1\n      pop\n        /* \"#utility.yul\":3285:3375   */\n      swap2\n      swap1\n      pop\n      jump\t// out\n        /* \"#utility.yul\":3381:3490   */\n    tag_111:\n        /* \"#utility.yul\":3462:3483   */\n      tag_164\n        /* \"#utility.yul\":3477:3482   */\n      dup2\n        /* \"#utility.yul\":3462:3483   */\n      tag_110\n      jump\t// in\n    tag_164:\n        /* \"#utility.yul\":3457:3460   */\n      dup3\n        /* \"#utility.yul\":3450:3484   */\n      mstore\n        /* \"#utility.yul\":3381:3490   */\n      pop\n      pop\n      jump\t// out\n        /* \"#utility.yul\":3496:3706   */\n    tag_35:\n        /* \"#utility.yul\":3583:3587   */\n      0x00\n        /* \"#utility.yul\":3621:3623   */\n      0x20\n        /* \"#utility.yul\":3610:3619   */\n      dup3\n        /* \"#utility.yul\":3606:3624   */\n      add\n        /* \"#utility.yul\":3598:3624   */\n      swap1\n      pop\n        /* \"#utility.yul\":3634:3699   */\n      tag_166\n        /* \"#utility.yul\":3696:3697   */\n      0x00\n        /* \"#utility.yul\":3685:3694   */\n      dup4\n        /* \"#utility.yul\":3681:3698   */\n      add\n        /* \"#utility.yul\":3672:3678   */\n      dup5\n        /* \"#utility.yul\":3634:3699   */\n      tag_111\n      jump\t// in\n    tag_166:\n        /* \"#utility.yul\":3496:3706   */\n      swap3\n      swap2\n      pop\n      pop\n      jump\t// out\n        /* \"#utility.yul\":3712:4582   */\n    tag_38:\n        /* \"#utility.yul\":3802:3808   */\n      0x00\n        /* \"#utility.yul\":3810:3816   */\n      dup1\n        /* \"#utility.yul\":3818:3824   */\n      0x00\n        /* \"#utility.yul\":3826:3832   */\n      dup1\n        /* \"#utility.yul\":3875:3877   */\n      0x40\n        /* \"#utility.yul\":3863:3872   */\n      dup6\n        /* \"#utility.yul\":3854:3861   */\n      dup8\n        /* \"#utility.yul\":3850:3873   */\n      sub\n        /* \"#utility.yul\":3846:3878   */\n      slt\n        /* \"#utility.yul\":3843:3962   */\n      iszero\n      tag_168\n      jumpi\n        /* \"#utility.yul\":3881:3960   */\n      tag_169\n      tag_98\n      jump\t// in\n    tag_169:\n        /* \"#utility.yul\":3843:3962   */\n    tag_168:\n        /* \"#utility.yul\":4029:4030   */\n      0x00\n        /* \"#utility.yul\":4018:4027   */\n      dup6\n        /* \"#utility.yul\":4014:4031   */\n      add\n        /* \"#utility.yul\":4001:4032   */\n      calldataload\n        /* \"#utility.yul\":4059:4077   */\n      0xffffffffffffffff\n        /* \"#utility.yul\":4051:4057   */\n      dup2\n        /* \"#utility.yul\":4048:4078   */\n      gt\n        /* \"#utility.yul\":4045:4162   */\n      iszero\n      tag_170\n      jumpi\n        /* \"#utility.yul\":4081:4160   */\n      tag_171\n      tag_99\n      jump\t// in\n    tag_171:\n        /* \"#utility.yul\":4045:4162   */\n    tag_170:\n        /* \"#utility.yul\":4194:4258   */\n      tag_172\n        /* \"#utility.yul\":4250:4257   */\n      dup8\n        /* \"#utility.yul\":4241:4247   */\n      dup3\n        /* \"#utility.yul\":4230:4239   */\n      dup9\n        /* \"#utility.yul\":4226:4248   */\n      add\n        /* \"#utility.yul\":4194:4258   */\n      tag_108\n      jump\t// in\n    tag_172:\n        /* \"#utility.yul\":4176:4258   */\n      swap5\n      pop\n      swap5\n      pop\n        /* \"#utility.yul\":3972:4268   */\n      pop\n        /* \"#utility.yul\":4335:4337   */\n      0x20\n        /* \"#utility.yul\":4324:4333   */\n      dup6\n        /* \"#utility.yul\":4320:4338   */\n      add\n        /* \"#utility.yul\":4307:4339   */\n      calldataload\n        /* \"#utility.yul\":4366:4384   */\n      0xffffffffffffffff\n        /* \"#utility.yul\":4358:4364   */\n      dup2\n        /* \"#utility.yul\":4355:4385   */\n      gt\n        /* \"#utility.yul\":4352:4469   */\n      iszero\n      tag_173\n      jumpi\n        /* \"#utility.yul\":4388:4467   */\n      tag_174\n      tag_99\n      jump\t// in\n    tag_174:\n        /* \"#utility.yul\":4352:4469   */\n    tag_173:\n        /* \"#utility.yul\":4501:4565   */\n      tag_175\n        /* \"#utility.yul\":4557:4564   */\n      dup8\n        /* \"#utility.yul\":4548:4554   */\n      dup3\n        /* \"#utility.yul\":4537:4546   */\n      dup9\n        /* \"#utility.yul\":4533:4555   */\n      add\n        /* \"#utility.yul\":4501:4565   */\n      tag_108\n      jump\t// in\n    tag_175:\n        /* \"#utility.yul\":4483:4565   */\n      swap3\n      pop\n      swap3\n      pop\n        /* \"#utility.yul\":4278:4575   */\n      pop\n        /* \"#utility.yul\":3712:4582   */\n      swap3\n      swap6\n      swap2\n      swap5\n      pop\n      swap3\n      pop\n      jump\t// out\n        /* \"#utility.yul\":4588:4714   */\n    tag_112:\n        /* \"#utility.yul\":4625:4632   */\n      0x00\n        /* \"#utility.yul\":4665:4707   */\n      0xffffffffffffffffffffffffffffffffffffffff\n        /* \"#utility.yul\":4658:4663   */\n      dup3\n        /* \"#utility.yul\":4654:4708   */\n      and\n        /* \"#utility.yul\":4643:4708   */\n      swap1\n      pop\n        /* \"#utility.yul\":4588:4714   */\n      swap2\n      swap1\n      pop\n      jump\t// out\n        /* \"#utility.yul\":4720:4816   */\n    tag_113:\n        /* \"#utility.yul\":4757:4764   */\n      0x00\n        /* \"#utility.yul\":4786:4810   */\n      tag_178\n        /* \"#utility.yul\":4804:4809   */\n      dup3\n        /* \"#utility.yul\":4786:4810   */\n      tag_112\n      jump\t// in\n    tag_178:\n        /* \"#utility.yul\":4775:4810   */\n      swap1\n      pop\n        /* \"#utility.yul\":4720:4816   */\n      swap2\n      swap1\n      pop\n      jump\t// out\n        /* \"#utility.yul\":4822:4940   */\n    tag_114:\n        /* \"#utility.yul\":4909:4933   */\n      tag_180\n        /* \"#utility.yul\":4927:4932   */\n      dup2\n        /* \"#utility.yul\":4909:4933   */\n      tag_113\n      jump\t// in\n    tag_180:\n        /* \"#utility.yul\":4904:4907   */\n      dup3\n        /* \"#utility.yul\":4897:4934   */\n      mstore\n        /* \"#utility.yul\":4822:4940   */\n      pop\n      pop\n      jump\t// out\n        /* \"#utility.yul\":4946:5168   */\n    tag_46:\n        /* \"#utility.yul\":5039:5043   */\n      0x00\n        /* \"#utility.yul\":5077:5079   */\n      0x20\n        /* \"#utility.yul\":5066:5075   */\n      dup3\n        /* \"#utility.yul\":5062:5080   */\n      add\n        /* \"#utility.yul\":5054:5080   */\n      swap1\n      pop\n        /* \"#utility.yul\":5090:5161   */\n      tag_182\n        /* \"#utility.yul\":5158:5159   */\n      0x00\n        /* \"#utility.yul\":5147:5156   */\n      dup4\n        /* \"#utility.yul\":5143:5160   */\n      add\n        /* \"#utility.yul\":5134:5140   */\n      dup5\n        /* \"#utility.yul\":5090:5161   */\n      tag_114\n      jump\t// in\n    tag_182:\n        /* \"#utility.yul\":4946:5168   */\n      swap3\n      swap2\n      pop\n      pop\n      jump\t// out\n        /* \"#utility.yul\":5174:5296   */\n    tag_115:\n        /* \"#utility.yul\":5247:5271   */\n      tag_184\n        /* \"#utility.yul\":5265:5270   */\n      dup2\n        /* \"#utility.yul\":5247:5271   */\n      tag_103\n      jump\t// in\n    tag_184:\n        /* \"#utility.yul\":5240:5245   */\n      dup2\n        /* \"#utility.yul\":5237:5272   */\n      eq\n        /* \"#utility.yul\":5227:5290   */\n      tag_185\n      jumpi\n        /* \"#utility.yul\":5286:5287   */\n      0x00\n        /* \"#utility.yul\":5283:5284   */\n      dup1\n        /* \"#utility.yul\":5276:5288   */\n      revert\n        /* \"#utility.yul\":5227:5290   */\n    tag_185:\n        /* \"#utility.yul\":5174:5296   */\n      pop\n      jump\t// out\n        /* \"#utility.yul\":5302:5441   */\n    tag_116:\n        /* \"#utility.yul\":5348:5353   */\n      0x00\n        /* \"#utility.yul\":5386:5392   */\n      dup2\n        /* \"#utility.yul\":5373:5393   */\n      calldataload\n        /* \"#utility.yul\":5364:5393   */\n      swap1\n      pop\n        /* \"#utility.yul\":5402:5435   */\n      tag_187\n        /* \"#utility.yul\":5429:5434   */\n      dup2\n        /* \"#utility.yul\":5402:5435   */\n      tag_115\n      jump\t// in\n    tag_187:\n        /* \"#utility.yul\":5302:5441   */\n      swap3\n      swap2\n      pop\n      pop\n      jump\t// out\n        /* \"#utility.yul\":5447:5776   */\n    tag_49:\n        /* \"#utility.yul\":5506:5512   */\n      0x00\n        /* \"#utility.yul\":5555:5557   */\n      0x20\n        /* \"#utility.yul\":5543:5552   */\n      dup3\n        /* \"#utility.yul\":5534:5541   */\n      dup5\n        /* \"#utility.yul\":5530:5553   */\n      sub\n        /* \"#utility.yul\":5526:5558   */\n      slt\n        /* \"#utility.yul\":5523:5642   */\n      iszero\n      tag_189\n      jumpi\n        /* \"#utility.yul\":5561:5640   */\n      tag_190\n      tag_98\n      jump\t// in\n    tag_190:\n        /* \"#utility.yul\":5523:5642   */\n    tag_189:\n        /* \"#utility.yul\":5681:5682   */\n      0x00\n        /* \"#utility.yul\":5706:5759   */\n      tag_191\n        /* \"#utility.yul\":5751:5758   */\n      dup5\n        /* \"#utility.yul\":5742:5748   */\n      dup3\n        /* \"#utility.yul\":5731:5740   */\n      dup6\n        /* \"#utility.yul\":5727:5749   */\n      add\n        /* \"#utility.yul\":5706:5759   */\n      tag_116\n      jump\t// in\n    tag_191:\n        /* \"#utility.yul\":5696:5759   */\n      swap2\n      pop\n        /* \"#utility.yul\":5652:5769   */\n      pop\n        /* \"#utility.yul\":5447:5776   */\n      swap3\n      swap2\n      pop\n      pop\n      jump\t// out\n        /* \"#utility.yul\":5782:5904   */\n    tag_117:\n        /* \"#utility.yul\":5855:5879   */\n      tag_193\n        /* \"#utility.yul\":5873:5878   */\n      dup2\n        /* \"#utility.yul\":5855:5879   */\n      tag_113\n      jump\t// in\n    tag_193:\n        /* \"#utility.yul\":5848:5853   */\n      dup2\n        /* \"#utility.yul\":5845:5880   */\n      eq\n        /* \"#utility.yul\":5835:5898   */\n      tag_194\n      jumpi\n        /* \"#utility.yul\":5894:5895   */\n      0x00\n        /* \"#utility.yul\":5891:5892   */\n      dup1\n        /* \"#utility.yul\":5884:5896   */\n      revert\n        /* \"#utility.yul\":5835:5898   */\n    tag_194:\n        /* \"#utility.yul\":5782:5904   */\n      pop\n      jump\t// out\n        /* \"#utility.yul\":5910:6049   */\n    tag_118:\n        /* \"#utility.yul\":5956:5961   */\n      0x00\n        /* \"#utility.yul\":5994:6000   */\n      dup2\n        /* \"#utility.yul\":5981:6001   */\n      calldataload\n        /* \"#utility.yul\":5972:6001   */\n      swap1\n      pop\n        /* \"#utility.yul\":6010:6043   */\n      tag_196\n        /* \"#utility.yul\":6037:6042   */\n      dup2\n        /* \"#utility.yul\":6010:6043   */\n      tag_117\n      jump\t// in\n    tag_196:\n        /* \"#utility.yul\":5910:6049   */\n      swap3\n      swap2\n      pop\n      pop\n      jump\t// out\n        /* \"#utility.yul\":6055:6384   */\n    tag_56:\n        /* \"#utility.yul\":6114:6120   */\n      0x00\n        /* \"#utility.yul\":6163:6165   */\n      0x20\n        /* \"#utility.yul\":6151:6160   */\n      dup3\n        /* \"#utility.yul\":6142:6149   */\n      dup5\n        /* \"#utility.yul\":6138:6161   */\n      sub\n        /* \"#utility.yul\":6134:6166   */\n      slt\n        /* \"#utility.yul\":6131:6250   */\n      iszero\n      tag_198\n      jumpi\n        /* \"#utility.yul\":6169:6248   */\n      tag_199\n      tag_98\n      jump\t// in\n    tag_199:\n        /* \"#utility.yul\":6131:6250   */\n    tag_198:\n        /* \"#utility.yul\":6289:6290   */\n      0x00\n        /* \"#utility.yul\":6314:6367   */\n      tag_200\n        /* \"#utility.yul\":6359:6366   */\n      dup5\n        /* \"#utility.yul\":6350:6356   */\n      dup3\n        /* \"#utility.yul\":6339:6348   */\n      dup6\n        /* \"#utility.yul\":6335:6357   */\n      add\n        /* \"#utility.yul\":6314:6367   */\n      tag_118\n      jump\t// in\n    tag_200:\n        /* \"#utility.yul\":6304:6367   */\n      swap2\n      pop\n        /* \"#utility.yul\":6260:6377   */\n      pop\n        /* \"#utility.yul\":6055:6384   */\n      swap3\n      swap2\n      pop\n      pop\n      jump\t// out\n        /* \"#utility.yul\":6390:6864   */\n    tag_60:\n        /* \"#utility.yul\":6458:6464   */\n      0x00\n        /* \"#utility.yul\":6466:6472   */\n      dup1\n        /* \"#utility.yul\":6515:6517   */\n      0x40\n        /* \"#utility.yul\":6503:6512   */\n      dup4\n        /* \"#utility.yul\":6494:6501   */\n      dup6\n        /* \"#utility.yul\":6490:6513   */\n      sub\n        /* \"#utility.yul\":6486:6518   */\n      slt\n        /* \"#utility.yul\":6483:6602   */\n      iszero\n      tag_202\n      jumpi\n        /* \"#utility.yul\":6521:6600   */\n      tag_203\n      tag_98\n      jump\t// in\n    tag_203:\n        /* \"#utility.yul\":6483:6602   */\n    tag_202:\n        /* \"#utility.yul\":6641:6642   */\n      0x00\n        /* \"#utility.yul\":6666:6719   */\n      tag_204\n        /* \"#utility.yul\":6711:6718   */\n      dup6\n        /* \"#utility.yul\":6702:6708   */\n      dup3\n        /* \"#utility.yul\":6691:6700   */\n      dup7\n        /* \"#utility.yul\":6687:6709   */\n      add\n        /* \"#utility.yul\":6666:6719   */\n      tag_118\n      jump\t// in\n    tag_204:\n        /* \"#utility.yul\":6656:6719   */\n      swap3\n      pop\n        /* \"#utility.yul\":6612:6729   */\n      pop\n        /* \"#utility.yul\":6768:6770   */\n      0x20\n        /* \"#utility.yul\":6794:6847   */\n      tag_205\n        /* \"#utility.yul\":6839:6846   */\n      dup6\n        /* \"#utility.yul\":6830:6836   */\n      dup3\n        /* \"#utility.yul\":6819:6828   */\n      dup7\n        /* \"#utility.yul\":6815:6837   */\n      add\n        /* \"#utility.yul\":6794:6847   */\n      tag_102\n      jump\t// in\n    tag_205:\n        /* \"#utility.yul\":6784:6847   */\n      swap2\n      pop\n        /* \"#utility.yul\":6739:6857   */\n      pop\n        /* \"#utility.yul\":6390:6864   */\n      swap3\n      pop\n      swap3\n      swap1\n      pop\n      jump\t// out\n        /* \"#utility.yul\":6870:7017   */\n    tag_119:\n        /* \"#utility.yul\":6971:6982   */\n      0x00\n        /* \"#utility.yul\":7008:7011   */\n      dup2\n        /* \"#utility.yul\":6993:7011   */\n      swap1\n      pop\n        /* \"#utility.yul\":6870:7017   */\n      swap3\n      swap2\n      pop\n      pop\n      jump\t// out\n        /* \"#utility.yul\":7023:7171   */\n    tag_120:\n        /* \"#utility.yul\":7121:7127   */\n      dup3\n        /* \"#utility.yul\":7116:7119   */\n      dup2\n        /* \"#utility.yul\":7111:7114   */\n      dup4\n        /* \"#utility.yul\":7098:7128   */\n      calldatacopy\n        /* \"#utility.yul\":7162:7163   */\n      0x00\n        /* \"#utility.yul\":7153:7159   */\n      dup4\n        /* \"#utility.yul\":7148:7151   */\n      dup4\n        /* \"#utility.yul\":7144:7160   */\n      add\n        /* \"#utility.yul\":7137:7164   */\n      mstore\n        /* \"#utility.yul\":7023:7171   */\n      pop\n      pop\n      pop\n      jump\t// out\n        /* \"#utility.yul\":7199:7526   */\n    tag_121:\n        /* \"#utility.yul\":7313:7316   */\n      0x00\n        /* \"#utility.yul\":7334:7422   */\n      tag_209\n        /* \"#utility.yul\":7415:7421   */\n      dup4\n        /* \"#utility.yul\":7410:7413   */\n      dup6\n        /* \"#utility.yul\":7334:7422   */\n      tag_119\n      jump\t// in\n    tag_209:\n        /* \"#utility.yul\":7327:7422   */\n      swap4\n      pop\n        /* \"#utility.yul\":7432:7488   */\n      tag_210\n        /* \"#utility.yul\":7481:7487   */\n      dup4\n        /* \"#utility.yul\":7476:7479   */\n      dup6\n        /* \"#utility.yul\":7469:7474   */\n      dup5\n        /* \"#utility.yul\":7432:7488   */\n      tag_120\n      jump\t// in\n    tag_210:\n        /* \"#utility.yul\":7513:7519   */\n      dup3\n        /* \"#utility.yul\":7508:7511   */\n      dup5\n        /* \"#utility.yul\":7504:7520   */\n      add\n        /* \"#utility.yul\":7497:7520   */\n      swap1\n      pop\n        /* \"#utility.yul\":7199:7526   */\n      swap4\n      swap3\n      pop\n      pop\n      pop\n      jump\t// out\n        /* \"#utility.yul\":7532:7823   */\n    tag_69:\n        /* \"#utility.yul\":7672:7675   */\n      0x00\n        /* \"#utility.yul\":7694:7797   */\n      tag_212\n        /* \"#utility.yul\":7793:7796   */\n      dup3\n        /* \"#utility.yul\":7784:7790   */\n      dup5\n        /* \"#utility.yul\":7776:7782   */\n      dup7\n        /* \"#utility.yul\":7694:7797   */\n      tag_121\n      jump\t// in\n    tag_212:\n        /* \"#utility.yul\":7687:7797   */\n      swap2\n      pop\n        /* \"#utility.yul\":7814:7817   */\n      dup2\n        /* \"#utility.yul\":7807:7817   */\n      swap1\n      pop\n        /* \"#utility.yul\":7532:7823   */\n      swap4\n      swap3\n      pop\n      pop\n      pop\n      jump\t// out\n        /* \"#utility.yul\":7829:8009   */\n    tag_122:\n        /* \"#utility.yul\":7877:7954   */\n      0x4e487b7100000000000000000000000000000000000000000000000000000000\n        /* \"#utility.yul\":7874:7875   */\n      0x00\n        /* \"#utility.yul\":7867:7955   */\n      mstore\n        /* \"#utility.yul\":7974:7978   */\n      0x11\n        /* \"#utility.yul\":7971:7972   */\n      0x04\n        /* \"#utility.yul\":7964:7979   */\n      mstore\n        /* \"#utility.yul\":7998:8002   */\n      0x24\n        /* \"#utility.yul\":7995:7996   */\n      0x00\n        /* \"#utility.yul\":7988:8003   */\n      revert\n        /* \"#utility.yul\":8015:8206   */\n    tag_71:\n        /* \"#utility.yul\":8055:8058   */\n      0x00\n        /* \"#utility.yul\":8074:8094   */\n      tag_215\n        /* \"#utility.yul\":8092:8093   */\n      dup3\n        /* \"#utility.yul\":8074:8094   */\n      tag_103\n      jump\t// in\n    tag_215:\n        /* \"#utility.yul\":8069:8094   */\n      swap2\n      pop\n        /* \"#utility.yul\":8108:8128   */\n      tag_216\n        /* \"#utility.yul\":8126:8127   */\n      dup4\n        /* \"#utility.yul\":8108:8128   */\n      tag_103\n      jump\t// in\n    tag_216:\n        /* \"#utility.yul\":8103:8128   */\n      swap3\n      pop\n        /* \"#utility.yul\":8151:8152   */\n      dup3\n        /* \"#utility.yul\":8148:8149   */\n      dup3\n        /* \"#utility.yul\":8144:8153   */\n      add\n        /* \"#utility.yul\":8137:8153   */\n      swap1\n      pop\n        /* \"#utility.yul\":8172:8175   */\n      dup1\n        /* \"#utility.yul\":8169:8170   */\n      dup3\n        /* \"#utility.yul\":8166:8176   */\n      gt\n        /* \"#utility.yul\":8163:8199   */\n      iszero\n      tag_217\n      jumpi\n        /* \"#utility.yul\":8179:8197   */\n      tag_218\n      tag_122\n      jump\t// in\n    tag_218:\n        /* \"#utility.yul\":8163:8199   */\n    tag_217:\n        /* \"#utility.yul\":8015:8206   */\n      swap3\n      swap2\n      pop\n      pop\n      jump\t// out\n\n    auxdata: 0xa264697066735822122053a04b4c884d7745fe501bf3dd88b33f7888ab715f45c7cf926b430963d4393b64736f6c634300081a0033\n}\n",
				"bytecode": {
					"linkReferences": {},
					"object": "60a060405234801561000f575f80fd5b50604051610f64380380610f6483398181016040528101906100319190610173565b7fdf8b4c520ffe197c5343c6f5aec59570151ef9a492f2c624fd45ddde6135ec4260035f8573ffffffffffffffffffffffffffffffffffffffff1673ffffffffffffffffffffffffffffffffffffffff1681526020019081526020015f2081905550815f806101000a81548173ffffffffffffffffffffffffffffffffffffffff021916908373ffffffffffffffffffffffffffffffffffffffff16021790555080608081815250505050506101c3565b5f80fd5b5f73ffffffffffffffffffffffffffffffffffffffff82169050919050565b5f61010f826100e6565b9050919050565b61011f81610105565b8114610129575f80fd5b50565b5f8151905061013a81610116565b92915050565b5f819050919050565b61015281610140565b811461015c575f80fd5b50565b5f8151905061016d81610149565b92915050565b5f805f6060848603121561018a576101896100e2565b5b5f6101978682870161012c565b93505060206101a88682870161012c565b92505060406101b98682870161015f565b9150509250925092565b608051610d826101e25f395f818161031301526105d20152610d825ff3fe608060405234801561000f575f80fd5b50600436106100b2575f3560e01c8063452a93201161006f578063452a93201461019e57806360fe47b1146101bc5780636a42b8f8146101d857806374a8f103146101f6578063754d740d14610212578063c4d252f51461022e576100b2565b8063088775a3146100b657806323da2f73146100e65780632a0acc6a14610116578063388a3cf5146101345780633f47158d146101645780633fa4f24514610180575b5f80fd5b6100d060048036038101906100cb9190610977565b61024a565b6040516100dd91906109ba565b60405180910390f35b61010060048036038101906100fb9190610a34565b61025f565b60405161010d9190610a8e565b60405180910390f35b61011e6103a2565b60405161012b9190610a8e565b60405180910390f35b61014e60048036038101906101499190610977565b6103c6565b60405161015b9190610ac1565b60405180910390f35b61017e60048036038101906101799190610ada565b6103e3565b005b610188610505565b60405161019591906109ba565b60405180910390f35b6101a661050b565b6040516101b39190610b97565b60405180910390f35b6101d660048036038101906101d19190610bda565b61052e565b005b6101e06105d0565b6040516101ed91906109ba565b60405180910390f35b610210600480360381019061020b9190610c2f565b6105f4565b005b61022c60048036038101906102279190610c5a565b6106d3565b005b61024860048036038101906102439190610977565b610829565b005b6001602052805f5260405f205f915090505481565b5f7fdf8b4c520ffe197c5343c6f5aec59570151ef9a492f2c624fd45ddde6135ec428060035f3373ffffffffffffffffffffffffffffffffffffffff1673ffffffffffffffffffffffffffffffffffffffff1681526020019081526020015f2054146102f7576040517fcdf9313e00000000000000000000000000000000000000000000000000000000815260040160405180910390fd5b8383604051610307929190610cd4565b604051809103902091507f00000000000000000000000000000000000000000000000000000000000000004261033d9190610d19565b60015f8481526020019081526020015f2081905550817fc4c626f1f34927b0e12f8b00dc722390b9cf2bbf944aebc2e8226a4557f7f5a560015f8581526020019081526020015f205460405161039391906109ba565b60405180910390a25092915050565b7fdf8b4c520ffe197c5343c6f5aec59570151ef9a492f2c624fd45ddde6135ec4281565b6002602052805f5260405f205f915054906101000a900460ff1681565b5f84846040516103f4929190610cd4565b6040518091039020905060015f8281526020019081526020015f2054421015610449576040517ffd0e89d200000000000000000000000000000000000000000000000000000000815260040160405180910390fd5b60025f8281526020019081526020015f205f9054906101000a900460ff161561049e576040517fab444a4000000000000000000000000000000000000000000000000000000000815260040160405180910390fd5b600160025f8381526020019081526020015f205f6101000a81548160ff0219169083151502179055506104d185856108c4565b807fa74c8847d513feba22a0f0cb38d53081abf97562cdb293926ba243689e7c41ca60405160405180910390a25050505050565b60045481565b5f8054906101000a900473ffffffffffffffffffffffffffffffffffffffff1681565b7fdf8b4c520ffe197c5343c6f5aec59570151ef9a492f2c624fd45ddde6135ec428060035f3373ffffffffffffffffffffffffffffffffffffffff1673ffffffffffffffffffffffffffffffffffffffff1681526020019081526020015f2054146105c5576040517fcdf9313e00000000000000000000000000000000000000000000000000000000815260040160405180910390fd5b816004819055505050565b7f000000000000000000000000000000000000000000000000000000000000000081565b7fdf8b4c520ffe197c5343c6f5aec59570151ef9a492f2c624fd45ddde6135ec428060035f3373ffffffffffffffffffffffffffffffffffffffff1673ffffffffffffffffffffffffffffffffffffffff1681526020019081526020015f20541461068b576040517fcdf9313e00000000000000000000000000000000000000000000000000000000815260040160405180910390fd5b5f801b60035f8473ffffffffffffffffffffffffffffffffffffffff1673ffffffffffffffffffffffffffffffffffffffff1681526020019081526020015f20819055505050565b7fdf8b4c520ffe197c5343c6f5aec59570151ef9a492f2c624fd45ddde6135ec428060035f3373ffffffffffffffffffffffffffffffffffffffff1673ffffffffffffffffffffffffffffffffffffffff1681526020019081526020015f20541461076a576040517fcdf9313e00000000000000000000000000000000000000000000000000000000815260040160405180910390fd5b5f801b60035f8573ffffffffffffffffffffffffffffffffffffffff1673ffffffffffffffffffffffffffffffffffffffff1681526020019081526020015f2054146107e2576040517f2b069d4300000000000000000000000000000000000000000000000000000000815260040160405180910390fd5b8160035f8573ffffffffffffffffffffffffffffffffffffffff1673ffffffffffffffffffffffffffffffffffffffff1681526020019081526020015f2081905550505050565b5f8054906101000a900473ffffffffffffffffffffffffffffffffffffffff1673ffffffffffffffffffffffffffffffffffffffff163373ffffffffffffffffffffffffffffffffffffffff16146108ad576040517fcdf9313e00000000000000000000000000000000000000000000000000000000815260040160405180910390fd5b60015f8281526020019081526020015f205f905550565b5f3073ffffffffffffffffffffffffffffffffffffffff1683836040516108ec929190610cd4565b5f604051808303815f865af19150503d805f8114610925576040519150601f19603f3d011682016040523d82523d5f602084013e61092a565b606091505b5050905080610937575f80fd5b505050565b5f80fd5b5f80fd5b5f819050919050565b61095681610944565b8114610960575f80fd5b50565b5f813590506109718161094d565b92915050565b5f6020828403121561098c5761098b61093c565b5b5f61099984828501610963565b91505092915050565b5f819050919050565b6109b4816109a2565b82525050565b5f6020820190506109cd5f8301846109ab565b92915050565b5f80fd5b5f80fd5b5f80fd5b5f8083601f8401126109f4576109f36109d3565b5b8235905067ffffffffffffffff811115610a1157610a106109d7565b5b602083019150836001820283011115610a2d57610a2c6109db565b5b9250929050565b5f8060208385031215610a4a57610a4961093c565b5b5f83013567ffffffffffffffff811115610a6757610a66610940565b5b610a73858286016109df565b92509250509250929050565b610a8881610944565b82525050565b5f602082019050610aa15f830184610a7f565b92915050565b5f8115159050919050565b610abb81610aa7565b82525050565b5f602082019050610ad45f830184610ab2565b92915050565b5f805f8060408587031215610af257610af161093c565b5b5f85013567ffffffffffffffff811115610b0f57610b0e610940565b5b610b1b878288016109df565b9450945050602085013567ffffffffffffffff811115610b3e57610b3d610940565b5b610b4a878288016109df565b925092505092959194509250565b5f73ffffffffffffffffffffffffffffffffffffffff82169050919050565b5f610b8182610b58565b9050919050565b610b9181610b77565b82525050565b5f602082019050610baa5f830184610b88565b92915050565b610bb9816109a2565b8114610bc3575f80fd5b50565b5f81359050610bd481610bb0565b92915050565b5f60208284031215610bef57610bee61093c565b5b5f610bfc84828501610bc6565b91505092915050565b610c0e81610b77565b8114610c18575f80fd5b50565b5f81359050610c2981610c05565b92915050565b5f60208284031215610c4457610c4361093c565b5b5f610c5184828501610c1b565b91505092915050565b5f8060408385031215610c7057610c6f61093c565b5b5f610c7d85828601610c1b565b9250506020610c8e85828601610963565b9150509250929050565b5f81905092915050565b828183375f83830152505050565b5f610cbb8385610c98565b9350610cc8838584610ca2565b82840190509392505050565b5f610ce0828486610cb0565b91508190509392505050565b7f4e487b71000000000000000000000000000000000000000000000000000000005f52601160045260245ffd5b5f610d23826109a2565b9150610d2e836109a2565b9250828201905080821115610d4657610d45610cec565b5b9291505056fea264697066735822122053a04b4c884d7745fe501bf3dd88b33f7888ab715f45c7cf926b430963d4393b64736f6c634300081a0033",
					"opcodes": "PUSH1 0xA0 PUSH1 0x40 MSTORE CALLVALUE DUP1 ISZERO PUSH2 0xF JUMPI PUSH0 DUP1 REVERT JUMPDEST POP PUSH1 0x40 MLOAD PUSH2 0xF64 CODESIZE SUB DUP1 PUSH2 0xF64 DUP4 CODECOPY DUP2 DUP2 ADD PUSH1 0x40 MSTORE DUP2 ADD SWAP1 PUSH2 0x31 SWAP2 SWAP1 PUSH2 0x173 JUMP JUMPDEST PUSH32 0xDF8B4C520FFE197C5343C6F5AEC59570151EF9A492F2C624FD45DDDE6135EC42 PUSH1 0x3 PUSH0 DUP6 PUSH20 0xFFFFFFFFFFFFFFFFFFFFFFFFFFFFFFFFFFFFFFFF AND PUSH20 0xFFFFFFFFFFFFFFFFFFFFFFFFFFFFFFFFFFFFFFFF AND DUP2 MSTORE PUSH1 0x20 ADD SWAP1 DUP2 MSTORE PUSH1 0x20 ADD PUSH0 KECCAK256 DUP2 SWAP1 SSTORE POP DUP2 PUSH0 DUP1 PUSH2 0x100 EXP DUP2 SLOAD DUP2 PUSH20 0xFFFFFFFFFFFFFFFFFFFFFFFFFFFFFFFFFFFFFFFF MUL NOT AND SWAP1 DUP4 PUSH20 0xFFFFFFFFFFFFFFFFFFFFFFFFFFFFFFFFFFFFFFFF AND MUL OR SWAP1 SSTORE POP DUP1 PUSH1 0x80 DUP2 DUP2 MSTORE POP POP POP POP POP PUSH2 0x1C3 JUMP JUMPDEST PUSH0 DUP1 REVERT JUMPDEST PUSH0 PUSH20 0xFFFFFFFFFFFFFFFFFFFFFFFFFFFFFFFFFFFFFFFF DUP3 AND SWAP1 POP SWAP2 SWAP1 POP JUMP JUMPDEST PUSH0 PUSH2 0x10F DUP3 PUSH2 0xE6 JUMP JUMPDEST SWAP1 POP SWAP2 SWAP1 POP JUMP JUMPDEST PUSH2 0x11F DUP2 PUSH2 0x105 JUMP JUMPDEST DUP2 EQ PUSH2 0x129 JUMPI PUSH0 DUP1 REVERT JUMPDEST POP JUMP JUMPDEST PUSH0 DUP2 MLOAD SWAP1 POP PUSH2 0x13A DUP2 PUSH2 0x116 JUMP JUMPDEST SWAP3 SWAP2 POP POP JUMP JUMPDEST PUSH0 DUP2 SWAP1 POP SWAP2 SWAP1 POP JUMP JUMPDEST PUSH2 0x152 DUP2 PUSH2 0x140 JUMP JUMPDEST DUP2 EQ PUSH2 0x15C JUMPI PUSH0 DUP1 REVERT JUMPDEST POP JUMP JUMPDEST PUSH0 DUP2 MLOAD SWAP1 POP PUSH2 0x16D DUP2 PUSH2 0x149 JUMP JUMPDEST SWAP3 SWAP2 POP POP JUMP JUMPDEST PUSH0 DUP1 PUSH0 PUSH1 0x60 DUP5 DUP7 SUB SLT ISZERO PUSH2 0x18A JUMPI PUSH2 0x189 PUSH2 0xE2 JUMP JUMPDEST JUMPDEST PUSH0 PUSH2 0x197 DUP7 DUP3 DUP8 ADD PUSH2 0x12C JUMP JUMPDEST SWAP4 POP POP PUSH1 0x20 PUSH2 0x1A8 DUP7 DUP3 DUP8 ADD PUSH2 0x12C JUMP JUMPDEST SWAP3 POP POP PUSH1 0x40 PUSH2 0x1B9 DUP7 DUP3 DUP8 ADD PUSH2 0x15F JUMP JUMPDEST SWAP2 POP POP SWAP3 POP SWAP3 POP SWAP3 JUMP JUMPDEST PUSH1 0x80 MLOAD PUSH2 0xD82 PUSH2 0x1E2 PUSH0 CODECOPY PUSH0 DUP2 DUP2 PUSH2 0x313 ADD MSTORE PUSH2 0x5D2 ADD MSTORE PUSH2 0xD82 PUSH0 RETURN INVALID PUSH1 0x80 PUSH1 0x40 MSTORE CALLVALUE DUP1 ISZERO PUSH2 0xF JUMPI PUSH0 DUP1 REVERT JUMPDEST POP PUSH1 0x4 CALLDATASIZE LT PUSH2 0xB2 JUMPI PUSH0 CALLDATALOAD PUSH1 0xE0 SHR DUP1 PUSH4 0x452A9320 GT PUSH2 0x6F JUMPI DUP1 PUSH4 0x452A9320 EQ PUSH2 0x19E JUMPI DUP1 PUSH4 0x60FE47B1 EQ PUSH2 0x1BC JUMPI DUP1 PUSH4 0x6A42B8F8 EQ PUSH2 0x1D8 JUMPI DUP1 PUSH4 0x74A8F103 EQ PUSH2 0x1F6 JUMPI DUP1 PUSH4 0x754D740D EQ PUSH2 0x212 JUMPI DUP1 PUSH4 0xC4D252F5 EQ PUSH2 0x22E JUMPI PUSH2 0xB2 JUMP JUMPDEST DUP1 PUSH4 0x88775A3 EQ PUSH2 0xB6 JUMPI DUP1 PUSH4 0x23DA2F73 EQ PUSH2 0xE6 JUMPI DUP1 PUSH4 0x2A0ACC6A EQ PUSH2 0x116 JUMPI DUP1 PUSH4 0x388A3CF5 EQ PUSH2 0x134 JUMPI DUP1 PUSH4 0x3F47158D EQ PUSH2 0x164 JUMPI DUP1 PUSH4 0x3FA4F245 EQ PUSH2 0x180 JUMPI JUMPDEST PUSH0 DUP1 REVERT JUMPDEST PUSH2 0xD0 PUSH1 0x4 DUP1 CALLDATASIZE SUB DUP2 ADD SWAP1 PUSH2 0xCB SWAP2 SWAP1 PUSH2 0x977 JUMP JUMPDEST PUSH2 0x24A JUMP JUMPDEST PUSH1 0x40 MLOAD PUSH2 0xDD SWAP2 SWAP1 PUSH2 0x9BA JUMP JUMPDEST PUSH1 0x40 MLOAD DUP1 SWAP2 SUB SWAP1 RETURN JUMPDEST PUSH2 0x100 PUSH1 0x4 DUP1 CALLDATASIZE SUB DUP2 ADD SWAP1 PUSH2 0xFB SWAP2 SWAP1 PUSH2 0xA34 JUMP JUMPDEST PUSH2 0x25F JUMP JUMPDEST PUSH1 0x40 MLOAD PUSH2 0x10D SWAP2 SWAP1 PUSH2 0xA8E JUMP JUMPDEST PUSH1 0x40 MLOAD DUP1 SWAP2 SUB SWAP1 RETURN JUMPDEST PUSH2 0x11E PUSH2 0x3A2 JUMP JUMPDEST PUSH1 0x40 MLOAD PUSH2 0x12B SWAP2 SWAP1 PUSH2 0xA8E JUMP JUMPDEST PUSH1 0x40 MLOAD DUP1 SWAP2 SUB SWAP1 RETURN JUMPDEST PUSH2 0x14E PUSH1 0x4 DUP1 CALLDATASIZE SUB DUP2 ADD SWAP1 PUSH2 0x149 SWAP2 SWAP1 PUSH2 0x977 JUMP JUMPDEST PUSH2 0x3C6 JUMP JUMPDEST PUSH1 0x40 MLOAD PUSH2 0x15B SWAP2 SWAP1 PUSH2 0xAC1 JUMP JUMPDEST PUSH1 0x40 MLOAD DUP1 SWAP2 SUB SWAP1 RETURN JUMPDEST PUSH2 0x17E PUSH1 0x4 DUP1 CALLDATASIZE SUB DUP2 ADD SWAP1 PUSH2 0x179 SWAP2 SWAP1 PUSH2 0xADA JUMP JUMPDEST PUSH2 0x3E3 JUMP JUMPDEST STOP JUMPDEST PUSH2 0x188 PUSH2 0x505 JUMP JUMPDEST PUSH1 0x40 MLOAD PUSH2 0x195 SWAP2 SWAP1 PUSH2 0x9BA JUMP JUMPDEST PUSH1 0x40 MLOAD DUP1 SWAP2 SUB SWAP1 RETURN JUMPDEST PUSH2 0x1A6 PUSH2 0x50B JUMP JUMPDEST PUSH1 0x40 MLOAD PUSH2 0x1B3 SWAP2 SWAP1 PUSH2 0xB97 JUMP JUMPDEST PUSH1 0x40 MLOAD DUP1 SWAP2 SUB SWAP1 RETURN JUMPDEST PUSH2 0x1D6 PUSH1 0x4 DUP1 CALLDATASIZE SUB DUP2 ADD SWAP1 PUSH2 0x1D1 SWAP2 SWAP1 PUSH2 0xBDA JUMP JUMPDEST PUSH2 0x52E JUMP JUMPDEST STOP JUMPDEST PUSH2 0x1E0 PUSH2 0x5D0 JUMP JUMPDEST PUSH1 0x40 MLOAD PUSH2 0x1ED SWAP2 SWAP1 PUSH2 0x9BA JUMP JUMPDEST PUSH1 0x40 MLOAD DUP1 SWAP2 SUB SWAP1 RETURN JUMPDEST PUSH2 0x210 PUSH1 0x4 DUP1 CALLDATASIZE SUB DUP2 ADD SWAP1 PUSH2 0x20B SWAP2 SWAP1 PUSH2 0xC2F JUMP JUMPDEST PUSH2 0x5F4 JUMP JUMPDEST STOP JUMPDEST PUSH2 0x22C PUSH1 0x4 DUP1 CALLDATASIZE SUB DUP2 ADD SWAP1 PUSH2 0x227 SWAP2 SWAP1 PUSH2 0xC5A JUMP JUMPDEST PUSH2 0x6D3 JUMP JUMPDEST STOP JUMPDEST PUSH2 0x248 PUSH1 0x4 DUP1 CALLDATASIZE SUB DUP2 ADD SWAP1 PUSH2 0x243 SWAP2 SWAP1 PUSH2 0x977 JUMP JUMPDEST PUSH2 0x829 JUMP JUMPDEST STOP JUMPDEST PUSH1 0x1 PUSH1 0x20 MSTORE DUP1 PUSH0 MSTORE PUSH1 0x40 PUSH0 KECCAK256 PUSH0 SWAP2 POP SWAP1 POP SLOAD DUP2 JUMP JUMPDEST PUSH0 PUSH32 0xDF8B4C520FFE197C5343C6F5AEC59570151EF9A492F2C624FD45DDDE6135EC42 DUP1 PUSH1 0x3 PUSH0 CALLER PUSH20 0xFFFFFFFFFFFFFFFFFFFFFFFFFFFFFFFFFFFFFFFF AND PUSH20 0xFFFFFFFFFFFFFFFFFFFFFFFFFFFFFFFFFFFFFFFF AND DUP2 MSTORE PUSH1 0x20 ADD SWAP1 DUP2 MSTORE PUSH1 0x20 ADD PUSH0 KECCAK256 SLOAD EQ PUSH2 0x2F7 JUMPI PUSH1 0x40 MLOAD PUSH32 0xCDF9313E00000000000000000000000000000000000000000000000000000000 DUP2 MSTORE PUSH1 0x4 ADD PUSH1 0x40 MLOAD DUP1 SWAP2 SUB SWAP1 REVERT JUMPDEST DUP4 DUP4 PUSH1 0x40 MLOAD PUSH2 0x307 SWAP3 SWAP2 SWAP1 PUSH2 0xCD4 JUMP JUMPDEST PUSH1 0x40 MLOAD DUP1 SWAP2 SUB SWAP1 KECCAK256 SWAP2 POP PUSH32 0x0 TIMESTAMP PUSH2 0x33D SWAP2 SWAP1 PUSH2 0xD19 JUMP JUMPDEST PUSH1 0x1 PUSH0 DUP5 DUP2 MSTORE PUSH1 0x20 ADD SWAP1 DUP2 MSTORE PUSH1 0x20 ADD PUSH0 KECCAK256 DUP2 SWAP1 SSTORE POP DUP2 PUSH32 0xC4C626F1F34927B0E12F8B00DC722390B9CF2BBF944AEBC2E8226A4557F7F5A5 PUSH1 0x1 PUSH0 DUP6 DUP2 MSTORE PUSH1 0x20 ADD SWAP1 DUP2 MSTORE PUSH1 0x20 ADD PUSH0 KECCAK256 SLOAD PUSH1 0x40 MLOAD PUSH2 0x393 SWAP2 SWAP1 PUSH2 0x9BA JUMP JUMPDEST PUSH1 0x40 MLOAD DUP1 SWAP2 SUB SWAP1 LOG2 POP SWAP3 SWAP2 POP POP JUMP JUMPDEST PUSH32 0xDF8B4C520FFE197C5343C6F5AEC59570151EF9A492F2C624FD45DDDE6135EC42 DUP2 JUMP JUMPDEST PUSH1 0x2 PUSH1 0x20 MSTORE DUP1 PUSH0 MSTORE PUSH1 0x40 PUSH0 KECCAK256 PUSH0 SWAP2 POP SLOAD SWAP1 PUSH2 0x100 EXP SWAP1 DIV PUSH1 0xFF AND DUP2 JUMP JUMPDEST PUSH0 DUP5 DUP5 PUSH1 0x40 MLOAD PUSH2 0x3F4 SWAP3 SWAP2 SWAP1 PUSH2 0xCD4 JUMP JUMPDEST PUSH1 0x40 MLOAD DUP1 SWAP2 SUB SWAP1 KECCAK256 SWAP1 POP PUSH1 0x1 PUSH0 DUP3 DUP2 MSTORE PUSH1 0x20 ADD SWAP1 DUP2 MSTORE PUSH1 0x20 ADD PUSH0 KECCAK256 SLOAD TIMESTAMP LT ISZERO PUSH2 0x449 JUMPI PUSH1 0x40 MLOAD PUSH32 0xFD0E89D200000000000000000000000000000000000000000000000000000000 DUP2 MSTORE PUSH1 0x4 ADD PUSH1 0x40 MLOAD DUP1 SWAP2 SUB SWAP1 REVERT JUMPDEST PUSH1 0x2 PUSH0 DUP3 DUP2 MSTORE PUSH1 0x20 ADD SWAP1 DUP2 MSTORE PUSH1 0x20 ADD PUSH0 KECCAK256 PUSH0 SWAP1 SLOAD SWAP1 PUSH2 0x100 EXP SWAP1 DIV PUSH1 0xFF AND ISZERO PUSH2 0x49E JUMPI PUSH1 0x40 MLOAD PUSH32 0xAB444A4000000000000000000000000000000000000000000000000000000000 DUP2 MSTORE PUSH1 0x4 ADD PUSH1 0x40 MLOAD DUP1 SWAP2 SUB SWAP1 REVERT JUMPDEST PUSH1 0x1 PUSH1 0x2 PUSH0 DUP4 DUP2 MSTORE PUSH1 0x20 ADD SWAP1 DUP2 MSTORE PUSH1 0x20 ADD PUSH0 KECCAK256 PUSH0 PUSH2 0x100 EXP DUP2 SLOAD DUP2 PUSH1 0xFF MUL NOT AND SWAP1 DUP4 ISZERO ISZERO MUL OR SWAP1 SSTORE POP PUSH2 0x4D1 DUP6 DUP6 PUSH2 0x8C4 JUMP JUMPDEST DUP1 PUSH32 0xA74C8847D513FEBA22A0F0CB38D53081ABF97562CDB293926BA243689E7C41CA PUSH1 0x40 MLOAD PUSH1 0x40 MLOAD DUP1 SWAP2 SUB SWAP1 LOG2 POP POP POP POP POP JUMP JUMPDEST PUSH1 0x4 SLOAD DUP2 JUMP JUMPDEST PUSH0 DUP1 SLOAD SWAP1 PUSH2 0x100 EXP SWAP1 DIV PUSH20 0xFFFFFFFFFFFFFFFFFFFFFFFFFFFFFFFFFFFFFFFF AND DUP2 JUMP JUMPDEST PUSH32 0xDF8B4C520FFE197C5343C6F5AEC59570151EF9A492F2C624FD45DDDE6135EC42 DUP1 PUSH1 0x3 PUSH0 CALLER PUSH20 0xFFFFFFFFFFFFFFFFFFFFFFFFFFFFFFFFFFFFFFFF AND PUSH20 0xFFFFFFFFFFFFFFFFFFFFFFFFFFFFFFFFFFFFFFFF AND DUP2 MSTORE PUSH1 0x20 ADD SWAP1 DUP2 MSTORE PUSH1 0x20 ADD PUSH0 KECCAK256 SLOAD EQ PUSH2 0x5C5 JUMPI PUSH1 0x40 MLOAD PUSH32 0xCDF9313E00000000000000000000000000000000000000000000000000000000 DUP2 MSTORE PUSH1 0x4 ADD PUSH1 0x40 MLOAD DUP1 SWAP2 SUB SWAP1 REVERT JUMPDEST DUP2 PUSH1 0x4 DUP2 SWAP1 SSTORE POP POP POP JUMP JUMPDEST PUSH32 0x0 DUP2 JUMP JUMPDEST PUSH32 0xDF8B4C520FFE197C5343C6F5AEC59570151EF9A492F2C624FD45DDDE6135EC42 DUP1 PUSH1 0x3 PUSH0 CALLER PUSH20 0xFFFFFFFFFFFFFFFFFFFFFFFFFFFFFFFFFFFFFFFF AND PUSH20 0xFFFFFFFFFFFFFFFFFFFFFFFFFFFFFFFFFFFFFFFF AND DUP2 MSTORE PUSH1 0x20 ADD SWAP1 DUP2 MSTORE PUSH1 0x20 ADD PUSH0 KECCAK256 SLOAD EQ PUSH2 0x68B JUMPI PUSH1 0x40 MLOAD PUSH32 0xCDF9313E00000000000000000000000000000000000000000000000000000000 DUP2 MSTORE PUSH1 0x4 ADD PUSH1 0x40 MLOAD DUP1 SWAP2 SUB SWAP1 REVERT JUMPDEST PUSH0 DUP1 SHL PUSH1 0x3 PUSH0 DUP5 PUSH20 0xFFFFFFFFFFFFFFFFFFFFFFFFFFFFFFFFFFFFFFFF AND PUSH20 0xFFFFFFFFFFFFFFFFFFFFFFFFFFFFFFFFFFFFFFFF AND DUP2 MSTORE PUSH1 0x20 ADD SWAP1 DUP2 MSTORE PUSH1 0x20 ADD PUSH0 KECCAK256 DUP2 SWAP1 SSTORE POP POP POP JUMP JUMPDEST PUSH32 0xDF8B4C520FFE197C5343C6F5AEC59570151EF9A492F2C624FD45DDDE6135EC42 DUP1 PUSH1 0x3 PUSH0 CALLER PUSH20 0xFFFFFFFFFFFFFFFFFFFFFFFFFFFFFFFFFFFFFFFF AND PUSH20 0xFFFFFFFFFFFFFFFFFFFFFFFFFFFFFFFFFFFFFFFF AND DUP2 MSTORE PUSH1 0x20 ADD SWAP1 DUP2 MSTORE PUSH1 0x20 ADD PUSH0 KECCAK256 SLOAD EQ PUSH2 0x76A JUMPI PUSH1 0x40 MLOAD PUSH32 0xCDF9313E00000000000000000000000000000000000000000000000000000000 DUP2 MSTORE PUSH1 0x4 ADD PUSH1 0x40 MLOAD DUP1 SWAP2 SUB SWAP1 REVERT JUMPDEST PUSH0 DUP1 SHL PUSH1 0x3 PUSH0 DUP6 PUSH20 0xFFFFFFFFFFFFFFFFFFFFFFFFFFFFFFFFFFFFFFFF AND PUSH20 0xFFFFFFFFFFFFFFFFFFFFFFFFFFFFFFFFFFFFFFFF AND DUP2 MSTORE PUSH1 0x20 ADD SWAP1 DUP2 MSTORE PUSH1 0x20 ADD PUSH0 KECCAK256 SLOAD EQ PUSH2 0x7E2 JUMPI PUSH1 0x40 MLOAD PUSH32 0x2B069D4300000000000000000000000000000000000000000000000000000000 DUP2 MSTORE PUSH1 0x4 ADD PUSH1 0x40 MLOAD DUP1 SWAP2 SUB SWAP1 REVERT JUMPDEST DUP2 PUSH1 0x3 PUSH0 DUP6 PUSH20 0xFFFFFFFFFFFFFFFFFFFFFFFFFFFFFFFFFFFFFFFF AND PUSH20 0xFFFFFFFFFFFFFFFFFFFFFFFFFFFFFFFFFFFFFFFF AND DUP2 MSTORE PUSH1 0x20 ADD SWAP1 DUP2 MSTORE PUSH1 0x20 ADD PUSH0 KECCAK256 DUP2 SWAP1 SSTORE POP POP POP POP JUMP JUMPDEST PUSH0 DUP1 SLOAD SWAP1 PUSH2 0x100 EXP SWAP1 DIV PUSH20 0xFFFFFFFFFFFFFFFFFFFFFFFFFFFFFFFFFFFFFFFF AND PUSH20 0xFFFFFFFFFFFFFFFFFFFFFFFFFFFFFFFFFFFFFFFF AND CALLER PUSH20 0xFFFFFFFFFFFFFFFFFFFFFFFFFFFFFFFFFFFFFFFF AND EQ PUSH2 0x8AD JUMPI PUSH1 0x40 MLOAD PUSH32 0xCDF9313E00000000000000000000000000000000000000000000000000000000 DUP2 MSTORE PUSH1 0x4 ADD PUSH1 0x40 MLOAD DUP1 SWAP2 SUB SWAP1 REVERT JUMPDEST PUSH1 0x1 PUSH0 DUP3 DUP2 MSTORE PUSH1 0x20 ADD SWAP1 DUP2 MSTORE PUSH1 0x20 ADD PUSH0 KECCAK256 PUSH0 SWAP1 SSTORE POP JUMP JUMPDEST PUSH0 ADDRESS PUSH20 0xFFFFFFFFFFFFFFFFFFFFFFFFFFFFFFFFFFFFFFFF AND DUP4 DUP4 PUSH1 0x40 MLOAD PUSH2 0x8EC SWAP3 SWAP2 SWAP1 PUSH2 0xCD4 JUMP JUMPDEST PUSH0 PUSH1 0x40 MLOAD DUP1 DUP4 SUB DUP2 PUSH0 DUP7 GAS CALL SWAP2 POP POP RETURNDATASIZE DUP1 PUSH0 DUP2 EQ PUSH2 0x925 JUMPI PUSH1 0x40 MLOAD SWAP2 POP PUSH1 0x1F NOT PUSH1 0x3F RETURNDATASIZE ADD AND DUP3 ADD PUSH1 0x40 MSTORE RETURNDATASIZE DUP3 MSTORE RETURNDATASIZE PUSH0 PUSH1 0x20 DUP5 ADD RETURNDATACOPY PUSH2 0x92A JUMP JUMPDEST PUSH1 0x60 SWAP2 POP JUMPDEST POP POP SWAP1 POP DUP1 PUSH2 0x937 JUMPI PUSH0 DUP1 REVERT JUMPDEST POP POP POP JUMP JUMPDEST PUSH0 DUP1 REVERT JUMPDEST PUSH0 DUP1 REVERT JUMPDEST PUSH0 DUP2 SWAP1 POP SWAP2 SWAP1 POP JUMP JUMPDEST PUSH2 0x956 DUP2 PUSH2 0x944 JUMP JUMPDEST DUP2 EQ PUSH2 0x960 JUMPI PUSH0 DUP1 REVERT JUMPDEST POP JUMP JUMPDEST PUSH0 DUP2 CALLDATALOAD SWAP1 POP PUSH2 0x971 DUP2 PUSH2 0x94D JUMP JUMPDEST SWAP3 SWAP2 POP POP JUMP JUMPDEST PUSH0 PUSH1 0x20 DUP3 DUP5 SUB SLT ISZERO PUSH2 0x98C JUMPI PUSH2 0x98B PUSH2 0x93C JUMP JUMPDEST JUMPDEST PUSH0 PUSH2 0x999 DUP5 DUP3 DUP6 ADD PUSH2 0x963 JUMP JUMPDEST SWAP2 POP POP SWAP3 SWAP2 POP POP JUMP JUMPDEST PUSH0 DUP2 SWAP1 POP SWAP2 SWAP1 POP JUMP JUMPDEST PUSH2 0x9B4 DUP2 PUSH2 0x9A2 JUMP JUMPDEST DUP3 MSTORE POP POP JUMP JUMPDEST PUSH0 PUSH1 0x20 DUP3 ADD SWAP1 POP PUSH2 0x9CD PUSH0 DUP4 ADD DUP5 PUSH2 0x9AB JUMP JUMPDEST SWAP3 SWAP2 POP POP JUMP JUMPDEST PUSH0 DUP1 REVERT JUMPDEST PUSH0 DUP1 REVERT JUMPDEST PUSH0 DUP1 REVERT JUMPDEST PUSH0 DUP1 DUP4 PUSH1 0x1F DUP5 ADD SLT PUSH2 0x9F4 JUMPI PUSH2 0x9F3 PUSH2 0x9D3 JUMP JUMPDEST JUMPDEST DUP3 CALLDATALOAD SWAP1 POP PUSH8 0xFFFFFFFFFFFFFFFF DUP2 GT ISZERO PUSH2 0xA11 JUMPI PUSH2 0xA10 PUSH2 0x9D7 JUMP JUMPDEST JUMPDEST PUSH1 0x20 DUP4 ADD SWAP2 POP DUP4 PUSH1 0x1 DUP3 MUL DUP4 ADD GT ISZERO PUSH2 0xA2D JUMPI PUSH2 0xA2C PUSH2 0x9DB JUMP JUMPDEST JUMPDEST SWAP3 POP SWAP3 SWAP1 POP JUMP JUMPDEST PUSH0 DUP1 PUSH1 0x20 DUP4 DUP6 SUB SLT ISZERO PUSH2 0xA4A JUMPI PUSH2 0xA49 PUSH2 0x93C JUMP JUMPDEST JUMPDEST PUSH0 DUP4 ADD CALLDATALOAD PUSH8 0xFFFFFFFFFFFFFFFF DUP2 GT ISZERO PUSH2 0xA67 JUMPI PUSH2 0xA66 PUSH2 0x940 JUMP JUMPDEST JUMPDEST PUSH2 0xA73 DUP6 DUP3 DUP7 ADD PUSH2 0x9DF JUMP JUMPDEST SWAP3 POP SWAP3 POP POP SWAP3 POP SWAP3 SWAP1 POP JUMP JUMPDEST PUSH2 0xA88 DUP2 PUSH2 0x944 JUMP JUMPDEST DUP3 MSTORE POP POP JUMP JUMPDEST PUSH0 PUSH1 0x20 DUP3 ADD SWAP1 POP PUSH2 0xAA1 PUSH0 DUP4 ADD DUP5 PUSH2 0xA7F JUMP JUMPDEST SWAP3 SWAP2 POP POP JUMP JUMPDEST PUSH0 DUP2 ISZERO ISZERO SWAP1 POP SWAP2 SWAP1 POP JUMP JUMPDEST PUSH2 0xABB DUP2 PUSH2 0xAA7 JUMP JUMPDEST DUP3 MSTORE POP POP JUMP JUMPDEST PUSH0 PUSH1 0x20 DUP3 ADD SWAP1 POP PUSH2 0xAD4 PUSH0 DUP4 ADD DUP5 PUSH2 0xAB2 JUMP JUMPDEST SWAP3 SWAP2 POP POP JUMP JUMPDEST PUSH0 DUP1 PUSH0 DUP1 PUSH1 0x40 DUP6 DUP8 SUB SLT ISZERO PUSH2 0xAF2 JUMPI PUSH2 0xAF1 PUSH2 0x93C JUMP JUMPDEST JUMPDEST PUSH0 DUP6 ADD CALLDATALOAD PUSH8 0xFFFFFFFFFFFFFFFF DUP2 GT ISZERO PUSH2 0xB0F JUMPI PUSH2 0xB0E PUSH2 0x940 JUMP JUMPDEST JUMPDEST PUSH2 0xB1B DUP8 DUP3 DUP9 ADD PUSH2 0x9DF JUMP JUMPDEST SWAP5 POP SWAP5 POP POP PUSH1 0x20 DUP6 ADD CALLDATALOAD PUSH8 0xFFFFFFFFFFFFFFFF DUP2 GT ISZERO PUSH2 0xB3E JUMPI PUSH2 0xB3D PUSH2 0x940 JUMP JUMPDEST JUMPDEST PUSH2 0xB4A DUP8 DUP3 DUP9 ADD PUSH2 0x9DF JUMP JUMPDEST SWAP3 POP SWAP3 POP POP SWAP3 SWAP6 SWAP2 SWAP5 POP SWAP3 POP JUMP JUMPDEST PUSH0 PUSH20 0xFFFFFFFFFFFFFFFFFFFFFFFFFFFFFFFFFFFFFFFF DUP3 AND SWAP1 POP SWAP2 SWAP1 POP JUMP JUMPDEST PUSH0 PUSH2 0xB81 DUP3 PUSH2 0xB58 JUMP JUMPDEST SWAP1 POP SWAP2 SWAP1 POP JUMP JUMPDEST PUSH2 0xB91 DUP2 PUSH2 0xB77 JUMP JUMPDEST DUP3 MSTORE POP POP JUMP JUMPDEST PUSH0 PUSH1 0x20 DUP3 ADD SWAP1 POP PUSH2 0xBAA PUSH0 DUP4 ADD DUP5 PUSH2 0xB88 JUMP JUMPDEST SWAP3 SWAP2 POP POP JUMP JUMPDEST PUSH2 0xBB9 DUP2 PUSH2 0x9A2 JUMP JUMPDEST DUP2 EQ PUSH2 0xBC3 JUMPI PUSH0 DUP1 REVERT JUMPDEST POP JUMP JUMPDEST PUSH0 DUP2 CALLDATALOAD SWAP1 POP PUSH2 0xBD4 DUP2 PUSH2 0xBB0 JUMP JUMPDEST SWAP3 SWAP2 POP POP JUMP JUMPDEST PUSH0 PUSH1 0x20 DUP3 DUP5 SUB SLT ISZERO PUSH2 0xBEF JUMPI PUSH2 0xBEE PUSH2 0x93C JUMP JUMPDEST JUMPDEST PUSH0 PUSH2 0xBFC DUP5 DUP3 DUP6 ADD PUSH2 0xBC6 JUMP JUMPDEST SWAP2 POP POP SWAP3 SWAP2 POP POP JUMP JUMPDEST PUSH2 0xC0E DUP2 PUSH2 0xB77 JUMP JUMPDEST DUP2 EQ PUSH2 0xC18 JUMPI PUSH0 DUP1 REVERT JUMPDEST POP JUMP JUMPDEST PUSH0 DUP2 CALLDATALOAD SWAP1 POP PUSH2 0xC29 DUP2 PUSH2 0xC05 JUMP JUMPDEST SWAP3 SWAP2 POP POP JUMP JUMPDEST PUSH0 PUSH1 0x20 DUP3 DUP5 SUB SLT ISZERO PUSH2 0xC44 JUMPI PUSH2 0xC43 PUSH2 0x93C JUMP JUMPDEST JUMPDEST PUSH0 PUSH2 0xC51 DUP5 DUP3 DUP6 ADD PUSH2 0xC1B JUMP JUMPDEST SWAP2 POP POP SWAP3 SWAP2 POP POP JUMP JUMPDEST PUSH0 DUP1 PUSH1 0x40 DUP4 DUP6 SUB SLT ISZERO PUSH2 0xC70 JUMPI PUSH2 0xC6F PUSH2 0x93C JUMP JUMPDEST JUMPDEST PUSH0 PUSH2 0xC7D DUP6 DUP3 DUP7 ADD PUSH2 0xC1B JUMP JUMPDEST SWAP3 POP POP PUSH1 0x20 PUSH2 0xC8E DUP6 DUP3 DUP7 ADD PUSH2 0x963 JUMP JUMPDEST SWAP2 POP POP SWAP3 POP SWAP3 SWAP1 POP JUMP JUMPDEST PUSH0 DUP2 SWAP1 POP SWAP3 SWAP2 POP POP JUMP JUMPDEST DUP3 DUP2 DUP4 CALLDATACOPY PUSH0 DUP4 DUP4 ADD MSTORE POP POP POP JUMP JUMPDEST PUSH0 PUSH2 0xCBB DUP4 DUP6 PUSH2 0xC98 JUMP JUMPDEST SWAP4 POP PUSH2 0xCC8 DUP4 DUP6 DUP5 PUSH2 0xCA2 JUMP JUMPDEST DUP3 DUP5 ADD SWAP1 POP SWAP4 SWAP3 POP POP POP JUMP JUMPDEST PUSH0 PUSH2 0xCE0 DUP3 DUP5 DUP7 PUSH2 0xCB0 JUMP JUMPDEST SWAP2 POP DUP2 SWAP1 POP SWAP4 SWAP3 POP POP POP JUMP JUMPDEST PUSH32 0x4E487B7100000000000000000000000000000000000000000000000000000000 PUSH0 MSTORE PUSH1 0x11 PUSH1 0x4 MSTORE PUSH1 0x24 PUSH0 REVERT JUMPDEST PUSH0 PUSH2 0xD23 DUP3 PUSH2 0x9A2 JUMP JUMPDEST SWAP2 POP PUSH2 0xD2E DUP4 PUSH2 0x9A2 JUMP JUMPDEST SWAP3 POP DUP3 DUP3 ADD SWAP1 POP DUP1 DUP3 GT ISZERO PUSH2 0xD46 JUMPI PUSH2 0xD45 PUSH2 0xCEC JUMP JUMPDEST JUMPDEST SWAP3 SWAP2 POP POP JUMP INVALID LOG2 PUSH5 0x6970667358 0x22 SLT KECCAK256 MSTORE8 LOG0 0x4B 0x4C DUP9 0x4D PUSH24 0x45FE501BF3DD88B33F7888AB715F45C7CF926B430963D439 EXTCODESIZE PUSH5 0x736F6C6343 STOP ADDMOD BYTE STOP CALLER "
				},
				"gasEstimates": {
					"creation": {
						"codeDepositCost": "691600",
						"executionCost": "infinite",
						"totalCost": "infinite"
					},
					"external": {
						"ADMIN()": "370",
						"cancel(bytes32)": "7761",
						"delay()": "infinite",
						"done(bytes32)": "2852",
						"eta(bytes32)": "2755",
						"exec(bytes,bytes)": "infinite",
						"grant(address,bytes32)": "27341",
						"guardian()": "2505",
						"queue(bytes)": "infinite",
						"revoke(address)": "7837",
						"set(uint256)": "24752",
						"value()": "2536"
					},
					"internal": {
						"_run(bytes calldata)": "infinite"
					}
				},
				"methodIdentifiers": {
					"ADMIN()": "2a0acc6a",
					"cancel(bytes32)": "c4d252f5",
					"delay()": "6a42b8f8",
					"done(bytes32)": "388a3cf5",
					"eta(bytes32)": "088775a3",
					"exec(bytes,bytes)": "3f47158d",
					"grant(address,bytes32)": "754d740d",
					"guardian()": "452a9320",
					"queue(bytes)": "23da2f73",
					"revoke(address)": "74a8f103",
					"set(uint256)": "60fe47b1",
					"value()": "3fa4f245"
				}
			},
			"storageLayout": {
				"storage": [
					{
						"astId": 341,
						"contract": "S/Secure Shell (SSH)/Secure Shell (SSH).sol:SSH_Role",
						"label": "guardian",
						"offset": 0,
						"slot": "0",
						"type": "t_address"
					},
					{
						"astId": 345,
						"contract": "S/Secure Shell (SSH)/Secure Shell (SSH).sol:SSH_Role",
						"label": "eta",
						"offset": 0,
						"slot": "1",
						"type": "t_mapping(t_bytes32,t_uint256)"
					},
					{
						"astId": 349,
						"contract": "S/Secure Shell (SSH)/Secure Shell (SSH).sol:SSH_Role",
						"label": "done",
						"offset": 0,
						"slot": "2",
						"type": "t_mapping(t_bytes32,t_bool)"
					},
					{
						"astId": 387,
						"contract": "S/Secure Shell (SSH)/Secure Shell (SSH).sol:SSH_Role",
						"label": "_roles",
						"offset": 0,
						"slot": "3",
						"type": "t_mapping(t_address,t_bytes32)"
					},
					{
						"astId": 564,
						"contract": "S/Secure Shell (SSH)/Secure Shell (SSH).sol:SSH_Role",
						"label": "value",
						"offset": 0,
						"slot": "4",
						"type": "t_uint256"
					}
				],
				"types": {
					"t_address": {
						"encoding": "inplace",
						"label": "address",
						"numberOfBytes": "20"
					},
					"t_bool": {
						"encoding": "inplace",
						"label": "bool",
						"numberOfBytes": "1"
					},
					"t_bytes32": {
						"encoding": "inplace",
						"label": "bytes32",
						"numberOfBytes": "32"
					},
					"t_mapping(t_address,t_bytes32)": {
						"encoding": "mapping",
						"key": "t_address",
						"label": "mapping(address => bytes32)",
						"numberOfBytes": "32",
						"value": "t_bytes32"
					},
					"t_mapping(t_bytes32,t_bool)": {
						"encoding": "mapping",
						"key": "t_bytes32",
						"label": "mapping(bytes32 => bool)",
						"numberOfBytes": "32",
						"value": "t_bool"
					},
					"t_mapping(t_bytes32,t_uint256)": {
						"encoding": "mapping",
						"key": "t_bytes32",
						"label": "mapping(bytes32 => uint256)",
						"numberOfBytes": "32",
						"value": "t_uint256"
					},
					"t_uint256": {
						"encoding": "inplace",
						"label": "uint256",
						"numberOfBytes": "32"
					}
				}
			},
			"userdoc": {
				"kind": "user",
				"methods": {},
				"version": 1
			}
		}
	}
}