{
	"S/Secure Shell (SSH)/Secure Shell (SSH).sol": {
		"SSH_Key": {
			"abi": [
				{
					"inputs": [
						{
							"internalType": "address",
							"name": "_o",
							"type": "address"
						}
					],
					"stateMutability": "nonpayable",
					"type": "constructor"
				},
				{
					"inputs": [],
					"name": "SSH_NotOwner",
					"type": "error"
				},
				{
					"inputs": [
						{
							"internalType": "bytes",
							"name": "payload",
							"type": "bytes"
						},
						{
							"internalType": "bytes",
							"name": "",
							"type": "bytes"
						}
					],
					"name": "exec",
					"outputs": [],
					"stateMutability": "nonpayable",
					"type": "function"
				},
				{
					"inputs": [],
					"name": "owner",
					"outputs": [
						{
							"internalType": "address",
							"name": "",
							"type": "address"
						}
					],
					"stateMutability": "view",
					"type": "function"
				},
				{
					"inputs": [],
					"name": "secret",
					"outputs": [
						{
							"internalType": "uint256",
							"name": "",
							"type": "uint256"
						}
					],
					"stateMutability": "view",
					"type": "function"
				},
				{
					"inputs": [
						{
							"internalType": "uint256",
							"name": "n",
							"type": "uint256"
						}
					],
					"name": "setSecret",
					"outputs": [],
					"stateMutability": "nonpayable",
					"type": "function"
				}
			],
			"devdoc": {
				"kind": "dev",
				"methods": {},
				"version": 1
			},
			"evm": {
				"assembly": "    /* \"S/Secure Shell (SSH)/Secure Shell (SSH).sol\":1315:1930  contract SSH_Key is ISecureShell {... */\n  mstore(0x40, 0xa0)\n    /* \"S/Secure Shell (SSH)/Secure Shell (SSH).sol\":1390:1429  constructor(address _o) { owner = _o; } */\n  callvalue\n  dup1\n  iszero\n  tag_1\n  jumpi\n  0x00\n  dup1\n  revert\ntag_1:\n  pop\n  mload(0x40)\n  sub(codesize, bytecodeSize)\n  dup1\n  bytecodeSize\n  dup4\n  codecopy\n  dup2\n  dup2\n  add\n  0x40\n  mstore\n  dup2\n  add\n  swap1\n  tag_2\n  swap2\n  swap1\n  tag_3\n  jump\t// in\ntag_2:\n    /* \"S/Secure Shell (SSH)/Secure Shell (SSH).sol\":1424:1426  _o */\n  dup1\n    /* \"S/Secure Shell (SSH)/Secure Shell (SSH).sol\":1416:1426  owner = _o */\n  0xffffffffffffffffffffffffffffffffffffffff\n  and\n  0x80\n  dup2\n  0xffffffffffffffffffffffffffffffffffffffff\n  and\n  dup2\n  mstore\n  pop\n  pop\n    /* \"S/Secure Shell (SSH)/Secure Shell (SSH).sol\":1390:1429  constructor(address _o) { owner = _o; } */\n  pop\n    /* \"S/Secure Shell (SSH)/Secure Shell (SSH).sol\":1315:1930  contract SSH_Key is ISecureShell {... */\n  jump(tag_6)\n    /* \"#utility.yul\":88:205   */\ntag_8:\n    /* \"#utility.yul\":197:198   */\n  0x00\n    /* \"#utility.yul\":194:195   */\n  dup1\n    /* \"#utility.yul\":187:199   */\n  revert\n    /* \"#utility.yul\":334:460   */\ntag_10:\n    /* \"#utility.yul\":371:378   */\n  0x00\n    /* \"#utility.yul\":411:453   */\n  0xffffffffffffffffffffffffffffffffffffffff\n    /* \"#utility.yul\":404:409   */\n  dup3\n    /* \"#utility.yul\":400:454   */\n  and\n    /* \"#utility.yul\":389:454   */\n  swap1\n  pop\n    /* \"#utility.yul\":334:460   */\n  swap2\n  swap1\n  pop\n  jump\t// out\n    /* \"#utility.yul\":466:562   */\ntag_11:\n    /* \"#utility.yul\":503:510   */\n  0x00\n    /* \"#utility.yul\":532:556   */\n  tag_20\n    /* \"#utility.yul\":550:555   */\n  dup3\n    /* \"#utility.yul\":532:556   */\n  tag_10\n  jump\t// in\ntag_20:\n    /* \"#utility.yul\":521:556   */\n  swap1\n  pop\n    /* \"#utility.yul\":466:562   */\n  swap2\n  swap1\n  pop\n  jump\t// out\n    /* \"#utility.yul\":568:690   */\ntag_12:\n    /* \"#utility.yul\":641:665   */\n  tag_22\n    /* \"#utility.yul\":659:664   */\n  dup2\n    /* \"#utility.yul\":641:665   */\n  tag_11\n  jump\t// in\ntag_22:\n    /* \"#utility.yul\":634:639   */\n  dup2\n    /* \"#utility.yul\":631:666   */\n  eq\n    /* \"#utility.yul\":621:684   */\n  tag_23\n  jumpi\n    /* \"#utility.yul\":680:681   */\n  0x00\n    /* \"#utility.yul\":677:678   */\n  dup1\n    /* \"#utility.yul\":670:682   */\n  revert\n    /* \"#utility.yul\":621:684   */\ntag_23:\n    /* \"#utility.yul\":568:690   */\n  pop\n  jump\t// out\n    /* \"#utility.yul\":696:839   */\ntag_13:\n    /* \"#utility.yul\":753:758   */\n  0x00\n    /* \"#utility.yul\":784:790   */\n  dup2\n    /* \"#utility.yul\":778:791   */\n  mload\n    /* \"#utility.yul\":769:791   */\n  swap1\n  pop\n    /* \"#utility.yul\":800:833   */\n  tag_25\n    /* \"#utility.yul\":827:832   */\n  dup2\n    /* \"#utility.yul\":800:833   */\n  tag_12\n  jump\t// in\ntag_25:\n    /* \"#utility.yul\":696:839   */\n  swap3\n  swap2\n  pop\n  pop\n  jump\t// out\n    /* \"#utility.yul\":845:1196   */\ntag_3:\n    /* \"#utility.yul\":915:921   */\n  0x00\n    /* \"#utility.yul\":964:966   */\n  0x20\n    /* \"#utility.yul\":952:961   */\n  dup3\n    /* \"#utility.yul\":943:950   */\n  dup5\n    /* \"#utility.yul\":939:962   */\n  sub\n    /* \"#utility.yul\":935:967   */\n  slt\n    /* \"#utility.yul\":932:1051   */\n  iszero\n  tag_27\n  jumpi\n    /* \"#utility.yul\":970:1049   */\n  tag_28\n  tag_8\n  jump\t// in\ntag_28:\n    /* \"#utility.yul\":932:1051   */\ntag_27:\n    /* \"#utility.yul\":1090:1091   */\n  0x00\n    /* \"#utility.yul\":1115:1179   */\n  tag_29\n    /* \"#utility.yul\":1171:1178   */\n  dup5\n    /* \"#utility.yul\":1162:1168   */\n  dup3\n    /* \"#utility.yul\":1151:1160   */\n  dup6\n    /* \"#utility.yul\":1147:1169   */\n  add\n    /* \"#utility.yul\":1115:1179   */\n  tag_13\n  jump\t// in\ntag_29:\n    /* \"#utility.yul\":1105:1179   */\n  swap2\n  pop\n    /* \"#utility.yul\":1061:1189   */\n  pop\n    /* \"#utility.yul\":845:1196   */\n  swap3\n  swap2\n  pop\n  pop\n  jump\t// out\n    /* \"S/Secure Shell (SSH)/Secure Shell (SSH).sol\":1315:1930  contract SSH_Key is ISecureShell {... */\ntag_6:\n  mload(0x80)\n  codecopy(0x00, dataOffset(sub_0), dataSize(sub_0))\n  0x00\n  assignImmutable(\"0x32da71dbd53bc029835bc5ecdd3e688035cc92bb61b1811d1685e67ba974e19f\")\n  return(0x00, dataSize(sub_0))\nstop\n\nsub_0: assembly {\n        /* \"S/Secure Shell (SSH)/Secure Shell (SSH).sol\":1315:1930  contract SSH_Key is ISecureShell {... */\n      mstore(0x40, 0x80)\n      callvalue\n      dup1\n      iszero\n      tag_1\n      jumpi\n      0x00\n      dup1\n      revert\n    tag_1:\n      pop\n      jumpi(tag_2, lt(calldatasize, 0x04))\n      shr(0xe0, calldataload(0x00))\n      dup1\n      0x3b4dbf8b\n      eq\n      tag_3\n      jumpi\n      dup1\n      0x3f47158d\n      eq\n      tag_4\n      jumpi\n      dup1\n      0x8da5cb5b\n      eq\n      tag_5\n      jumpi\n      dup1\n      0xd1efd30d\n      eq\n      tag_6\n      jumpi\n    tag_2:\n      0x00\n      dup1\n      revert\n        /* \"S/Secure Shell (SSH)/Secure Shell (SSH).sol\":1874:1928  function setSecret(uint256 n) external { secret = n; } */\n    tag_3:\n      tag_7\n      0x04\n      dup1\n      calldatasize\n      sub\n      dup2\n      add\n      swap1\n      tag_8\n      swap2\n      swap1\n      tag_9\n      jump\t// in\n    tag_8:\n      tag_10\n      jump\t// in\n    tag_7:\n      stop\n        /* \"S/Secure Shell (SSH)/Secure Shell (SSH).sol\":1435:1601  function exec(bytes calldata payload, bytes calldata /*sig*/) external override {... */\n    tag_4:\n      tag_11\n      0x04\n      dup1\n      calldatasize\n      sub\n      dup2\n      add\n      swap1\n      tag_12\n      swap2\n      swap1\n      tag_13\n      jump\t// in\n    tag_12:\n      tag_14\n      jump\t// in\n    tag_11:\n      stop\n        /* \"S/Secure Shell (SSH)/Secure Shell (SSH).sol\":1354:1384  address public immutable owner */\n    tag_5:\n      tag_15\n      tag_16\n      jump\t// in\n    tag_15:\n      mload(0x40)\n      tag_17\n      swap2\n      swap1\n      tag_18\n      jump\t// in\n    tag_17:\n      mload(0x40)\n      dup1\n      swap2\n      sub\n      swap1\n      return\n        /* \"S/Secure Shell (SSH)/Secure Shell (SSH).sol\":1847:1868  uint256 public secret */\n    tag_6:\n      tag_19\n      tag_20\n      jump\t// in\n    tag_19:\n      mload(0x40)\n      tag_21\n      swap2\n      swap1\n      tag_22\n      jump\t// in\n    tag_21:\n      mload(0x40)\n      dup1\n      swap2\n      sub\n      swap1\n      return\n        /* \"S/Secure Shell (SSH)/Secure Shell (SSH).sol\":1874:1928  function setSecret(uint256 n) external { secret = n; } */\n    tag_10:\n        /* \"S/Secure Shell (SSH)/Secure Shell (SSH).sol\":1924:1925  n */\n      dup1\n        /* \"S/Secure Shell (SSH)/Secure Shell (SSH).sol\":1915:1921  secret */\n      0x00\n        /* \"S/Secure Shell (SSH)/Secure Shell (SSH).sol\":1915:1925  secret = n */\n      dup2\n      swap1\n      sstore\n      pop\n        /* \"S/Secure Shell (SSH)/Secure Shell (SSH).sol\":1874:1928  function setSecret(uint256 n) external { secret = n; } */\n      pop\n      jump\t// out\n        /* \"S/Secure Shell (SSH)/Secure Shell (SSH).sol\":1435:1601  function exec(bytes calldata payload, bytes calldata /*sig*/) external override {... */\n    tag_14:\n        /* \"S/Secure Shell (SSH)/Secure Shell (SSH).sol\":1543:1548  owner */\n      immutable(\"0x32da71dbd53bc029835bc5ecdd3e688035cc92bb61b1811d1685e67ba974e19f\")\n        /* \"S/Secure Shell (SSH)/Secure Shell (SSH).sol\":1529:1548  msg.sender != owner */\n      0xffffffffffffffffffffffffffffffffffffffff\n      and\n        /* \"S/Secure Shell (SSH)/Secure Shell (SSH).sol\":1529:1539  msg.sender */\n      caller\n        /* \"S/Secure Shell (SSH)/Secure Shell (SSH).sol\":1529:1548  msg.sender != owner */\n      0xffffffffffffffffffffffffffffffffffffffff\n      and\n      eq\n        /* \"S/Secure Shell (SSH)/Secure Shell (SSH).sol\":1525:1571  if (msg.sender != owner) revert SSH_NotOwner() */\n      tag_25\n      jumpi\n        /* \"S/Secure Shell (SSH)/Secure Shell (SSH).sol\":1557:1571  SSH_NotOwner() */\n      mload(0x40)\n      0x58300b2d00000000000000000000000000000000000000000000000000000000\n      dup2\n      mstore\n      0x04\n      add\n      mload(0x40)\n      dup1\n      swap2\n      sub\n      swap1\n      revert\n        /* \"S/Secure Shell (SSH)/Secure Shell (SSH).sol\":1525:1571  if (msg.sender != owner) revert SSH_NotOwner() */\n    tag_25:\n        /* \"S/Secure Shell (SSH)/Secure Shell (SSH).sol\":1581:1594  _run(payload) */\n      tag_26\n        /* \"S/Secure Shell (SSH)/Secure Shell (SSH).sol\":1586:1593  payload */\n      dup5\n      dup5\n        /* \"S/Secure Shell (SSH)/Secure Shell (SSH).sol\":1581:1585  _run */\n      tag_27\n        /* \"S/Secure Shell (SSH)/Secure Shell (SSH).sol\":1581:1594  _run(payload) */\n      jump\t// in\n    tag_26:\n        /* \"S/Secure Shell (SSH)/Secure Shell (SSH).sol\":1435:1601  function exec(bytes calldata payload, bytes calldata /*sig*/) external override {... */\n      pop\n      pop\n      pop\n      pop\n      jump\t// out\n        /* \"S/Secure Shell (SSH)/Secure Shell (SSH).sol\":1354:1384  address public immutable owner */\n    tag_16:\n      immutable(\"0x32da71dbd53bc029835bc5ecdd3e688035cc92bb61b1811d1685e67ba974e19f\")\n      dup2\n      jump\t// out\n        /* \"S/Secure Shell (SSH)/Secure Shell (SSH).sol\":1847:1868  uint256 public secret */\n    tag_20:\n      sload(0x00)\n      dup2\n      jump\t// out\n        /* \"S/Secure Shell (SSH)/Secure Shell (SSH).sol\":1652:1789  function _run(bytes calldata payload) internal {... */\n    tag_27:\n        /* \"S/Secure Shell (SSH)/Secure Shell (SSH).sol\":1710:1717  bool ok */\n      0x00\n        /* \"S/Secure Shell (SSH)/Secure Shell (SSH).sol\":1730:1734  this */\n      address\n        /* \"S/Secure Shell (SSH)/Secure Shell (SSH).sol\":1722:1740  address(this).call */\n      0xffffffffffffffffffffffffffffffffffffffff\n      and\n        /* \"S/Secure Shell (SSH)/Secure Shell (SSH).sol\":1741:1748  payload */\n      dup4\n      dup4\n        /* \"S/Secure Shell (SSH)/Secure Shell (SSH).sol\":1722:1749  address(this).call(payload) */\n      mload(0x40)\n      tag_29\n      swap3\n      swap2\n      swap1\n      tag_30\n      jump\t// in\n    tag_29:\n      0x00\n      mload(0x40)\n      dup1\n      dup4\n      sub\n      dup2\n      0x00\n      dup7\n      gas\n      call\n      swap2\n      pop\n      pop\n      returndatasize\n      dup1\n      0x00\n      dup2\n      eq\n      tag_33\n      jumpi\n      mload(0x40)\n      swap2\n      pop\n      and(add(returndatasize, 0x3f), not(0x1f))\n      dup3\n      add\n      0x40\n      mstore\n      returndatasize\n      dup3\n      mstore\n      returndatasize\n      0x00\n      0x20\n      dup5\n      add\n      returndatacopy\n      jump(tag_32)\n    tag_33:\n      0x60\n      swap2\n      pop\n    tag_32:\n      pop\n        /* \"S/Secure Shell (SSH)/Secure Shell (SSH).sol\":1709:1749  (bool ok,) = address(this).call(payload) */\n      pop\n      swap1\n      pop\n        /* \"S/Secure Shell (SSH)/Secure Shell (SSH).sol\":1767:1769  ok */\n      dup1\n        /* \"S/Secure Shell (SSH)/Secure Shell (SSH).sol\":1759:1782  require(ok, \"Cmd fail\") */\n      tag_34\n      jumpi\n      mload(0x40)\n      0x08c379a000000000000000000000000000000000000000000000000000000000\n      dup2\n      mstore\n      0x04\n      add\n      tag_35\n      swap1\n      tag_36\n      jump\t// in\n    tag_35:\n      mload(0x40)\n      dup1\n      swap2\n      sub\n      swap1\n      revert\n    tag_34:\n        /* \"S/Secure Shell (SSH)/Secure Shell (SSH).sol\":1699:1789  {... */\n      pop\n        /* \"S/Secure Shell (SSH)/Secure Shell (SSH).sol\":1652:1789  function _run(bytes calldata payload) internal {... */\n      pop\n      pop\n      jump\t// out\n        /* \"#utility.yul\":88:205   */\n    tag_38:\n        /* \"#utility.yul\":197:198   */\n      0x00\n        /* \"#utility.yul\":194:195   */\n      dup1\n        /* \"#utility.yul\":187:199   */\n      revert\n        /* \"#utility.yul\":211:328   */\n    tag_39:\n        /* \"#utility.yul\":320:321   */\n      0x00\n        /* \"#utility.yul\":317:318   */\n      dup1\n        /* \"#utility.yul\":310:322   */\n      revert\n        /* \"#utility.yul\":334:411   */\n    tag_40:\n        /* \"#utility.yul\":371:378   */\n      0x00\n        /* \"#utility.yul\":400:405   */\n      dup2\n        /* \"#utility.yul\":389:405   */\n      swap1\n      pop\n        /* \"#utility.yul\":334:411   */\n      swap2\n      swap1\n      pop\n      jump\t// out\n        /* \"#utility.yul\":417:539   */\n    tag_41:\n        /* \"#utility.yul\":490:514   */\n      tag_63\n        /* \"#utility.yul\":508:513   */\n      dup2\n        /* \"#utility.yul\":490:514   */\n      tag_40\n      jump\t// in\n    tag_63:\n        /* \"#utility.yul\":483:488   */\n      dup2\n        /* \"#utility.yul\":480:515   */\n      eq\n        /* \"#utility.yul\":470:533   */\n      tag_64\n      jumpi\n        /* \"#utility.yul\":529:530   */\n      0x00\n        /* \"#utility.yul\":526:527   */\n      dup1\n        /* \"#utility.yul\":519:531   */\n      revert\n        /* \"#utility.yul\":470:533   */\n    tag_64:\n        /* \"#utility.yul\":417:539   */\n      pop\n      jump\t// out\n        /* \"#utility.yul\":545:684   */\n    tag_42:\n        /* \"#utility.yul\":591:596   */\n      0x00\n        /* \"#utility.yul\":629:635   */\n      dup2\n        /* \"#utility.yul\":616:636   */\n      calldataload\n        /* \"#utility.yul\":607:636   */\n      swap1\n      pop\n        /* \"#utility.yul\":645:678   */\n      tag_66\n        /* \"#utility.yul\":672:677   */\n      dup2\n        /* \"#utility.yul\":645:678   */\n      tag_41\n      jump\t// in\n    tag_66:\n        /* \"#utility.yul\":545:684   */\n      swap3\n      swap2\n      pop\n      pop\n      jump\t// out\n        /* \"#utility.yul\":690:1019   */\n    tag_9:\n        /* \"#utility.yul\":749:755   */\n      0x00\n        /* \"#utility.yul\":798:800   */\n      0x20\n        /* \"#utility.yul\":786:795   */\n      dup3\n        /* \"#utility.yul\":777:784   */\n      dup5\n        /* \"#utility.yul\":773:796   */\n      sub\n        /* \"#utility.yul\":769:801   */\n      slt\n        /* \"#utility.yul\":766:885   */\n      iszero\n      tag_68\n      jumpi\n        /* \"#utility.yul\":804:883   */\n      tag_69\n      tag_38\n      jump\t// in\n    tag_69:\n        /* \"#utility.yul\":766:885   */\n    tag_68:\n        /* \"#utility.yul\":924:925   */\n      0x00\n        /* \"#utility.yul\":949:1002   */\n      tag_70\n        /* \"#utility.yul\":994:1001   */\n      dup5\n        /* \"#utility.yul\":985:991   */\n      dup3\n        /* \"#utility.yul\":974:983   */\n      dup6\n        /* \"#utility.yul\":970:992   */\n      add\n        /* \"#utility.yul\":949:1002   */\n      tag_42\n      jump\t// in\n    tag_70:\n        /* \"#utility.yul\":939:1002   */\n      swap2\n      pop\n        /* \"#utility.yul\":895:1012   */\n      pop\n        /* \"#utility.yul\":690:1019   */\n      swap3\n      swap2\n      pop\n      pop\n      jump\t// out\n        /* \"#utility.yul\":1025:1142   */\n    tag_43:\n        /* \"#utility.yul\":1134:1135   */\n      0x00\n        /* \"#utility.yul\":1131:1132   */\n      dup1\n        /* \"#utility.yul\":1124:1136   */\n      revert\n        /* \"#utility.yul\":1148:1265   */\n    tag_44:\n        /* \"#utility.yul\":1257:1258   */\n      0x00\n        /* \"#utility.yul\":1254:1255   */\n      dup1\n        /* \"#utility.yul\":1247:1259   */\n      revert\n        /* \"#utility.yul\":1271:1388   */\n    tag_45:\n        /* \"#utility.yul\":1380:1381   */\n      0x00\n        /* \"#utility.yul\":1377:1378   */\n      dup1\n        /* \"#utility.yul\":1370:1382   */\n      revert\n        /* \"#utility.yul\":1407:1959   */\n    tag_46:\n        /* \"#utility.yul\":1464:1472   */\n      0x00\n        /* \"#utility.yul\":1474:1480   */\n      dup1\n        /* \"#utility.yul\":1524:1527   */\n      dup4\n        /* \"#utility.yul\":1517:1521   */\n      0x1f\n        /* \"#utility.yul\":1509:1515   */\n      dup5\n        /* \"#utility.yul\":1505:1522   */\n      add\n        /* \"#utility.yul\":1501:1528   */\n      slt\n        /* \"#utility.yul\":1491:1613   */\n      tag_75\n      jumpi\n        /* \"#utility.yul\":1532:1611   */\n      tag_76\n      tag_43\n      jump\t// in\n    tag_76:\n        /* \"#utility.yul\":1491:1613   */\n    tag_75:\n        /* \"#utility.yul\":1645:1651   */\n      dup3\n        /* \"#utility.yul\":1632:1652   */\n      calldataload\n        /* \"#utility.yul\":1622:1652   */\n      swap1\n      pop\n        /* \"#utility.yul\":1675:1693   */\n      0xffffffffffffffff\n        /* \"#utility.yul\":1667:1673   */\n      dup2\n        /* \"#utility.yul\":1664:1694   */\n      gt\n        /* \"#utility.yul\":1661:1778   */\n      iszero\n      tag_77\n      jumpi\n        /* \"#utility.yul\":1697:1776   */\n      tag_78\n      tag_44\n      jump\t// in\n    tag_78:\n        /* \"#utility.yul\":1661:1778   */\n    tag_77:\n        /* \"#utility.yul\":1811:1815   */\n      0x20\n        /* \"#utility.yul\":1803:1809   */\n      dup4\n        /* \"#utility.yul\":1799:1816   */\n      add\n        /* \"#utility.yul\":1787:1816   */\n      swap2\n      pop\n        /* \"#utility.yul\":1865:1868   */\n      dup4\n        /* \"#utility.yul\":1857:1861   */\n      0x01\n        /* \"#utility.yul\":1849:1855   */\n      dup3\n        /* \"#utility.yul\":1845:1862   */\n      mul\n        /* \"#utility.yul\":1835:1843   */\n      dup4\n        /* \"#utility.yul\":1831:1863   */\n      add\n        /* \"#utility.yul\":1828:1869   */\n      gt\n        /* \"#utility.yul\":1825:1953   */\n      iszero\n      tag_79\n      jumpi\n        /* \"#utility.yul\":1872:1951   */\n      tag_80\n      tag_45\n      jump\t// in\n    tag_80:\n        /* \"#utility.yul\":1825:1953   */\n    tag_79:\n        /* \"#utility.yul\":1407:1959   */\n      swap3\n      pop\n      swap3\n      swap1\n      pop\n      jump\t// out\n        /* \"#utility.yul\":1965:2835   */\n    tag_13:\n        /* \"#utility.yul\":2055:2061   */\n      0x00\n        /* \"#utility.yul\":2063:2069   */\n      dup1\n        /* \"#utility.yul\":2071:2077   */\n      0x00\n        /* \"#utility.yul\":2079:2085   */\n      dup1\n        /* \"#utility.yul\":2128:2130   */\n      0x40\n        /* \"#utility.yul\":2116:2125   */\n      dup6\n        /* \"#utility.yul\":2107:2114   */\n      dup8\n        /* \"#utility.yul\":2103:2126   */\n      sub\n        /* \"#utility.yul\":2099:2131   */\n      slt\n        /* \"#utility.yul\":2096:2215   */\n      iszero\n      tag_82\n      jumpi\n        /* \"#utility.yul\":2134:2213   */\n      tag_83\n      tag_38\n      jump\t// in\n    tag_83:\n        /* \"#utility.yul\":2096:2215   */\n    tag_82:\n        /* \"#utility.yul\":2282:2283   */\n      0x00\n        /* \"#utility.yul\":2271:2280   */\n      dup6\n        /* \"#utility.yul\":2267:2284   */\n      add\n        /* \"#utility.yul\":2254:2285   */\n      calldataload\n        /* \"#utility.yul\":2312:2330   */\n      0xffffffffffffffff\n        /* \"#utility.yul\":2304:2310   */\n      dup2\n        /* \"#utility.yul\":2301:2331   */\n      gt\n        /* \"#utility.yul\":2298:2415   */\n      iszero\n      tag_84\n      jumpi\n        /* \"#utility.yul\":2334:2413   */\n      tag_85\n      tag_39\n      jump\t// in\n    tag_85:\n        /* \"#utility.yul\":2298:2415   */\n    tag_84:\n        /* \"#utility.yul\":2447:2511   */\n      tag_86\n        /* \"#utility.yul\":2503:2510   */\n      dup8\n        /* \"#utility.yul\":2494:2500   */\n      dup3\n        /* \"#utility.yul\":2483:2492   */\n      dup9\n        /* \"#utility.yul\":2479:2501   */\n      add\n        /* \"#utility.yul\":2447:2511   */\n      tag_46\n      jump\t// in\n    tag_86:\n        /* \"#utility.yul\":2429:2511   */\n      swap5\n      pop\n      swap5\n      pop\n        /* \"#utility.yul\":2225:2521   */\n      pop\n        /* \"#utility.yul\":2588:2590   */\n      0x20\n        /* \"#utility.yul\":2577:2586   */\n      dup6\n        /* \"#utility.yul\":2573:2591   */\n      add\n        /* \"#utility.yul\":2560:2592   */\n      calldataload\n        /* \"#utility.yul\":2619:2637   */\n      0xffffffffffffffff\n        /* \"#utility.yul\":2611:2617   */\n      dup2\n        /* \"#utility.yul\":2608:2638   */\n      gt\n        /* \"#utility.yul\":2605:2722   */\n      iszero\n      tag_87\n      jumpi\n        /* \"#utility.yul\":2641:2720   */\n      tag_88\n      tag_39\n      jump\t// in\n    tag_88:\n        /* \"#utility.yul\":2605:2722   */\n    tag_87:\n        /* \"#utility.yul\":2754:2818   */\n      tag_89\n        /* \"#utility.yul\":2810:2817   */\n      dup8\n        /* \"#utility.yul\":2801:2807   */\n      dup3\n        /* \"#utility.yul\":2790:2799   */\n      dup9\n        /* \"#utility.yul\":2786:2808   */\n      add\n        /* \"#utility.yul\":2754:2818   */\n      tag_46\n      jump\t// in\n    tag_89:\n        /* \"#utility.yul\":2736:2818   */\n      swap3\n      pop\n      swap3\n      pop\n        /* \"#utility.yul\":2531:2828   */\n      pop\n        /* \"#utility.yul\":1965:2835   */\n      swap3\n      swap6\n      swap2\n      swap5\n      pop\n      swap3\n      pop\n      jump\t// out\n        /* \"#utility.yul\":2841:2967   */\n    tag_47:\n        /* \"#utility.yul\":2878:2885   */\n      0x00\n        /* \"#utility.yul\":2918:2960   */\n      0xffffffffffffffffffffffffffffffffffffffff\n        /* \"#utility.yul\":2911:2916   */\n      dup3\n        /* \"#utility.yul\":2907:2961   */\n      and\n        /* \"#utility.yul\":2896:2961   */\n      swap1\n      pop\n        /* \"#utility.yul\":2841:2967   */\n      swap2\n      swap1\n      pop\n      jump\t// out\n        /* \"#utility.yul\":2973:3069   */\n    tag_48:\n        /* \"#utility.yul\":3010:3017   */\n      0x00\n        /* \"#utility.yul\":3039:3063   */\n      tag_92\n        /* \"#utility.yul\":3057:3062   */\n      dup3\n        /* \"#utility.yul\":3039:3063   */\n      tag_47\n      jump\t// in\n    tag_92:\n        /* \"#utility.yul\":3028:3063   */\n      swap1\n      pop\n        /* \"#utility.yul\":2973:3069   */\n      swap2\n      swap1\n      pop\n      jump\t// out\n        /* \"#utility.yul\":3075:3193   */\n    tag_49:\n        /* \"#utility.yul\":3162:3186   */\n      tag_94\n        /* \"#utility.yul\":3180:3185   */\n      dup2\n        /* \"#utility.yul\":3162:3186   */\n      tag_48\n      jump\t// in\n    tag_94:\n        /* \"#utility.yul\":3157:3160   */\n      dup3\n        /* \"#utility.yul\":3150:3187   */\n      mstore\n        /* \"#utility.yul\":3075:3193   */\n      pop\n      pop\n      jump\t// out\n        /* \"#utility.yul\":3199:3421   */\n    tag_18:\n        /* \"#utility.yul\":3292:3296   */\n      0x00\n        /* \"#utility.yul\":3330:3332   */\n      0x20\n        /* \"#utility.yul\":3319:3328   */\n      dup3\n        /* \"#utility.yul\":3315:3333   */\n      add\n        /* \"#utility.yul\":3307:3333   */\n      swap1\n      pop\n        /* \"#utility.yul\":3343:3414   */\n      tag_96\n        /* \"#utility.yul\":3411:3412   */\n      0x00\n        /* \"#utility.yul\":3400:3409   */\n      dup4\n        /* \"#utility.yul\":3396:3413   */\n      add\n        /* \"#utility.yul\":3387:3393   */\n      dup5\n        /* \"#utility.yul\":3343:3414   */\n      tag_49\n      jump\t// in\n    tag_96:\n        /* \"#utility.yul\":3199:3421   */\n      swap3\n      swap2\n      pop\n      pop\n      jump\t// out\n        /* \"#utility.yul\":3427:3545   */\n    tag_50:\n        /* \"#utility.yul\":3514:3538   */\n      tag_98\n        /* \"#utility.yul\":3532:3537   */\n      dup2\n        /* \"#utility.yul\":3514:3538   */\n      tag_40\n      jump\t// in\n    tag_98:\n        /* \"#utility.yul\":3509:3512   */\n      dup3\n        /* \"#utility.yul\":3502:3539   */\n      mstore\n        /* \"#utility.yul\":3427:3545   */\n      pop\n      pop\n      jump\t// out\n        /* \"#utility.yul\":3551:3773   */\n    tag_22:\n        /* \"#utility.yul\":3644:3648   */\n      0x00\n        /* \"#utility.yul\":3682:3684   */\n      0x20\n        /* \"#utility.yul\":3671:3680   */\n      dup3\n        /* \"#utility.yul\":3667:3685   */\n      add\n        /* \"#utility.yul\":3659:3685   */\n      swap1\n      pop\n        /* \"#utility.yul\":3695:3766   */\n      tag_100\n        /* \"#utility.yul\":3763:3764   */\n      0x00\n        /* \"#utility.yul\":3752:3761   */\n      dup4\n        /* \"#utility.yul\":3748:3765   */\n      add\n        /* \"#utility.yul\":3739:3745   */\n      dup5\n        /* \"#utility.yul\":3695:3766   */\n      tag_50\n      jump\t// in\n    tag_100:\n        /* \"#utility.yul\":3551:3773   */\n      swap3\n      swap2\n      pop\n      pop\n      jump\t// out\n        /* \"#utility.yul\":3779:3926   */\n    tag_51:\n        /* \"#utility.yul\":3880:3891   */\n      0x00\n        /* \"#utility.yul\":3917:3920   */\n      dup2\n        /* \"#utility.yul\":3902:3920   */\n      swap1\n      pop\n        /* \"#utility.yul\":3779:3926   */\n      swap3\n      swap2\n      pop\n      pop\n      jump\t// out\n        /* \"#utility.yul\":3932:4080   */\n    tag_52:\n        /* \"#utility.yul\":4030:4036   */\n      dup3\n        /* \"#utility.yul\":4025:4028   */\n      dup2\n        /* \"#utility.yul\":4020:4023   */\n      dup4\n        /* \"#utility.yul\":4007:4037   */\n      calldatacopy\n        /* \"#utility.yul\":4071:4072   */\n      0x00\n        /* \"#utility.yul\":4062:4068   */\n      dup4\n        /* \"#utility.yul\":4057:4060   */\n      dup4\n        /* \"#utility.yul\":4053:4069   */\n      add\n        /* \"#utility.yul\":4046:4073   */\n      mstore\n        /* \"#utility.yul\":3932:4080   */\n      pop\n      pop\n      pop\n      jump\t// out\n        /* \"#utility.yul\":4108:4435   */\n    tag_53:\n        /* \"#utility.yul\":4222:4225   */\n      0x00\n        /* \"#utility.yul\":4243:4331   */\n      tag_104\n        /* \"#utility.yul\":4324:4330   */\n      dup4\n        /* \"#utility.yul\":4319:4322   */\n      dup6\n        /* \"#utility.yul\":4243:4331   */\n      tag_51\n      jump\t// in\n    tag_104:\n        /* \"#utility.yul\":4236:4331   */\n      swap4\n      pop\n        /* \"#utility.yul\":4341:4397   */\n      tag_105\n        /* \"#utility.yul\":4390:4396   */\n      dup4\n        /* \"#utility.yul\":4385:4388   */\n      dup6\n        /* \"#utility.yul\":4378:4383   */\n      dup5\n        /* \"#utility.yul\":4341:4397   */\n      tag_52\n      jump\t// in\n    tag_105:\n        /* \"#utility.yul\":4422:4428   */\n      dup3\n        /* \"#utility.yul\":4417:4420   */\n      dup5\n        /* \"#utility.yul\":4413:4429   */\n      add\n        /* \"#utility.yul\":4406:4429   */\n      swap1\n      pop\n        /* \"#utility.yul\":4108:4435   */\n      swap4\n      swap3\n      pop\n      pop\n      pop\n      jump\t// out\n        /* \"#utility.yul\":4441:4732   */\n    tag_30:\n        /* \"#utility.yul\":4581:4584   */\n      0x00\n        /* \"#utility.yul\":4603:4706   */\n      tag_107\n        /* \"#utility.yul\":4702:4705   */\n      dup3\n        /* \"#utility.yul\":4693:4699   */\n      dup5\n        /* \"#utility.yul\":4685:4691   */\n      dup7\n        /* \"#utility.yul\":4603:4706   */\n      tag_53\n      jump\t// in\n    tag_107:\n        /* \"#utility.yul\":4596:4706   */\n      swap2\n      pop\n        /* \"#utility.yul\":4723:4726   */\n      dup2\n        /* \"#utility.yul\":4716:4726   */\n      swap1\n      pop\n        /* \"#utility.yul\":4441:4732   */\n      swap4\n      swap3\n      pop\n      pop\n      pop\n      jump\t// out\n        /* \"#utility.yul\":4738:4907   */\n    tag_54:\n        /* \"#utility.yul\":4822:4833   */\n      0x00\n        /* \"#utility.yul\":4856:4862   */\n      dup3\n        /* \"#utility.yul\":4851:4854   */\n      dup3\n        /* \"#utility.yul\":4844:4863   */\n      mstore\n        /* \"#utility.yul\":4896:4900   */\n      0x20\n        /* \"#utility.yul\":4891:4894   */\n      dup3\n        /* \"#utility.yul\":4887:4901   */\n      add\n        /* \"#utility.yul\":4872:4901   */\n      swap1\n      pop\n        /* \"#utility.yul\":4738:4907   */\n      swap3\n      swap2\n      pop\n      pop\n      jump\t// out\n        /* \"#utility.yul\":4913:5071   */\n    tag_55:\n        /* \"#utility.yul\":5053:5063   */\n      0x436d64206661696c000000000000000000000000000000000000000000000000\n        /* \"#utility.yul\":5049:5050   */\n      0x00\n        /* \"#utility.yul\":5041:5047   */\n      dup3\n        /* \"#utility.yul\":5037:5051   */\n      add\n        /* \"#utility.yul\":5030:5064   */\n      mstore\n        /* \"#utility.yul\":4913:5071   */\n      pop\n      jump\t// out\n        /* \"#utility.yul\":5077:5442   */\n    tag_56:\n        /* \"#utility.yul\":5219:5222   */\n      0x00\n        /* \"#utility.yul\":5240:5306   */\n      tag_111\n        /* \"#utility.yul\":5304:5305   */\n      0x08\n        /* \"#utility.yul\":5299:5302   */\n      dup4\n        /* \"#utility.yul\":5240:5306   */\n      tag_54\n      jump\t// in\n    tag_111:\n        /* \"#utility.yul\":5233:5306   */\n      swap2\n      pop\n        /* \"#utility.yul\":5315:5408   */\n      tag_112\n        /* \"#utility.yul\":5404:5407   */\n      dup3\n        /* \"#utility.yul\":5315:5408   */\n      tag_55\n      jump\t// in\n    tag_112:\n        /* \"#utility.yul\":5433:5435   */\n      0x20\n        /* \"#utility.yul\":5428:5431   */\n      dup3\n        /* \"#utility.yul\":5424:5436   */\n      add\n        /* \"#utility.yul\":5417:5436   */\n      swap1\n      pop\n        /* \"#utility.yul\":5077:5442   */\n      swap2\n      swap1\n      pop\n      jump\t// out\n        /* \"#utility.yul\":5448:5867   */\n    tag_36:\n        /* \"#utility.yul\":5614:5618   */\n      0x00\n        /* \"#utility.yul\":5652:5654   */\n      0x20\n        /* \"#utility.yul\":5641:5650   */\n      dup3\n        /* \"#utility.yul\":5637:5655   */\n      add\n        /* \"#utility.yul\":5629:5655   */\n      swap1\n      pop\n        /* \"#utility.yul\":5701:5710   */\n      dup2\n        /* \"#utility.yul\":5695:5699   */\n      dup2\n        /* \"#utility.yul\":5691:5711   */\n      sub\n        /* \"#utility.yul\":5687:5688   */\n      0x00\n        /* \"#utility.yul\":5676:5685   */\n      dup4\n        /* \"#utility.yul\":5672:5689   */\n      add\n        /* \"#utility.yul\":5665:5712   */\n      mstore\n        /* \"#utility.yul\":5729:5860   */\n      tag_114\n        /* \"#utility.yul\":5855:5859   */\n      dup2\n        /* \"#utility.yul\":5729:5860   */\n      tag_56\n      jump\t// in\n    tag_114:\n        /* \"#utility.yul\":5721:5860   */\n      swap1\n      pop\n        /* \"#utility.yul\":5448:5867   */\n      swap2\n      swap1\n      pop\n      jump\t// out\n\n    auxdata: 0xa2646970667358221220ae230ac9dbd1ce5078e0b27a5bb05e160fa073a1ca86411dd47c111ef5ac1a2364736f6c634300081a0033\n}\n",
				"bytecode": {
					"linkReferences": {},
					"object": "60a060405234801561000f575f80fd5b50604051610611380380610611833981810160405281019061003191906100c9565b8073ffffffffffffffffffffffffffffffffffffffff1660808173ffffffffffffffffffffffffffffffffffffffff1681525050506100f4565b5f80fd5b5f73ffffffffffffffffffffffffffffffffffffffff82169050919050565b5f6100988261006f565b9050919050565b6100a88161008e565b81146100b2575f80fd5b50565b5f815190506100c38161009f565b92915050565b5f602082840312156100de576100dd61006b565b5b5f6100eb848285016100b5565b91505092915050565b6080516104ff6101125f395f818160cd015261016201526104ff5ff3fe608060405234801561000f575f80fd5b506004361061004a575f3560e01c80633b4dbf8b1461004e5780633f47158d1461006a5780638da5cb5b14610086578063d1efd30d146100a4575b5f80fd5b61006860048036038101906100639190610273565b6100c2565b005b610084600480360381019061007f91906102ff565b6100cb565b005b61008e610160565b60405161009b91906103bc565b60405180910390f35b6100ac610184565b6040516100b991906103e4565b60405180910390f35b805f8190555050565b7f000000000000000000000000000000000000000000000000000000000000000073ffffffffffffffffffffffffffffffffffffffff163373ffffffffffffffffffffffffffffffffffffffff1614610150576040517f58300b2d00000000000000000000000000000000000000000000000000000000815260040160405180910390fd5b61015a8484610189565b50505050565b7f000000000000000000000000000000000000000000000000000000000000000081565b5f5481565b5f3073ffffffffffffffffffffffffffffffffffffffff1683836040516101b1929190610439565b5f604051808303815f865af19150503d805f81146101ea576040519150601f19603f3d011682016040523d82523d5f602084013e6101ef565b606091505b5050905080610233576040517f08c379a000000000000000000000000000000000000000000000000000000000815260040161022a906104ab565b60405180910390fd5b505050565b5f80fd5b5f80fd5b5f819050919050565b61025281610240565b811461025c575f80fd5b50565b5f8135905061026d81610249565b92915050565b5f6020828403121561028857610287610238565b5b5f6102958482850161025f565b91505092915050565b5f80fd5b5f80fd5b5f80fd5b5f8083601f8401126102bf576102be61029e565b5b8235905067ffffffffffffffff8111156102dc576102db6102a2565b5b6020830191508360018202830111156102f8576102f76102a6565b5b9250929050565b5f805f806040858703121561031757610316610238565b5b5f85013567ffffffffffffffff8111156103345761033361023c565b5b610340878288016102aa565b9450945050602085013567ffffffffffffffff8111156103635761036261023c565b5b61036f878288016102aa565b925092505092959194509250565b5f73ffffffffffffffffffffffffffffffffffffffff82169050919050565b5f6103a68261037d565b9050919050565b6103b68161039c565b82525050565b5f6020820190506103cf5f8301846103ad565b92915050565b6103de81610240565b82525050565b5f6020820190506103f75f8301846103d5565b92915050565b5f81905092915050565b828183375f83830152505050565b5f61042083856103fd565b935061042d838584610407565b82840190509392505050565b5f610445828486610415565b91508190509392505050565b5f82825260208201905092915050565b7f436d64206661696c0000000000000000000000000000000000000000000000005f82015250565b5f610495600883610451565b91506104a082610461565b602082019050919050565b5f6020820190508181035f8301526104c281610489565b905091905056fea2646970667358221220ae230ac9dbd1ce5078e0b27a5bb05e160fa073a1ca86411dd47c111ef5ac1a2364736f6c634300081a0033",
					"opcodes": "PUSH1 0xA0 PUSH1 0x40 MSTORE CALLVALUE DUP1 ISZERO PUSH2 0xF JUMPI PUSH0 DUP1 REVERT JUMPDEST POP PUSH1 0x40 MLOAD PUSH2 0x611 CODESIZE SUB DUP1 PUSH2 0x611 DUP4 CODECOPY DUP2 DUP2 ADD PUSH1 0x40 MSTORE DUP2 ADD SWAP1 PUSH2 0x31 SWAP2 SWAP1 PUSH2 0xC9 JUMP JUMPDEST DUP1 PUSH20 0xFFFFFFFFFFFFFFFFFFFFFFFFFFFFFFFFFFFFFFFF AND PUSH1 0x80 DUP2 PUSH20 0xFFFFFFFFFFFFFFFFFFFFFFFFFFFFFFFFFFFFFFFF AND DUP2 MSTORE POP POP POP PUSH2 0xF4 JUMP JUMPDEST PUSH0 DUP1 REVERT JUMPDEST PUSH0 PUSH20 0xFFFFFFFFFFFFFFFFFFFFFFFFFFFFFFFFFFFFFFFF DUP3 AND SWAP1 POP SWAP2 SWAP1 POP JUMP JUMPDEST PUSH0 PUSH2 0x98 DUP3 PUSH2 0x6F JUMP JUMPDEST SWAP1 POP SWAP2 SWAP1 POP JUMP JUMPDEST PUSH2 0xA8 DUP2 PUSH2 0x8E JUMP JUMPDEST DUP2 EQ PUSH2 0xB2 JUMPI PUSH0 DUP1 REVERT JUMPDEST POP JUMP JUMPDEST PUSH0 DUP2 MLOAD SWAP1 POP PUSH2 0xC3 DUP2 PUSH2 0x9F JUMP JUMPDEST SWAP3 SWAP2 POP POP JUMP JUMPDEST PUSH0 PUSH1 0x20 DUP3 DUP5 SUB SLT ISZERO PUSH2 0xDE JUMPI PUSH2 0xDD PUSH2 0x6B JUMP JUMPDEST JUMPDEST PUSH0 PUSH2 0xEB DUP5 DUP3 DUP6 ADD PUSH2 0xB5 JUMP JUMPDEST SWAP2 POP POP SWAP3 SWAP2 POP POP JUMP JUMPDEST PUSH1 0x80 MLOAD PUSH2 0x4FF PUSH2 0x112 PUSH0 CODECOPY PUSH0 DUP2 DUP2 PUSH1 0xCD ADD MSTORE PUSH2 0x162 ADD MSTORE PUSH2 0x4FF PUSH0 RETURN INVALID PUSH1 0x80 PUSH1 0x40 MSTORE CALLVALUE DUP1 ISZERO PUSH2 0xF JUMPI PUSH0 DUP1 REVERT JUMPDEST POP PUSH1 0x4 CALLDATASIZE LT PUSH2 0x4A JUMPI PUSH0 CALLDATALOAD PUSH1 0xE0 SHR DUP1 PUSH4 0x3B4DBF8B EQ PUSH2 0x4E JUMPI DUP1 PUSH4 0x3F47158D EQ PUSH2 0x6A JUMPI DUP1 PUSH4 0x8DA5CB5B EQ PUSH2 0x86 JUMPI DUP1 PUSH4 0xD1EFD30D EQ PUSH2 0xA4 JUMPI JUMPDEST PUSH0 DUP1 REVERT JUMPDEST PUSH2 0x68 PUSH1 0x4 DUP1 CALLDATASIZE SUB DUP2 ADD SWAP1 PUSH2 0x63 SWAP2 SWAP1 PUSH2 0x273 JUMP JUMPDEST PUSH2 0xC2 JUMP JUMPDEST STOP JUMPDEST PUSH2 0x84 PUSH1 0x4 DUP1 CALLDATASIZE SUB DUP2 ADD SWAP1 PUSH2 0x7F SWAP2 SWAP1 PUSH2 0x2FF JUMP JUMPDEST PUSH2 0xCB JUMP JUMPDEST STOP JUMPDEST PUSH2 0x8E PUSH2 0x160 JUMP JUMPDEST PUSH1 0x40 MLOAD PUSH2 0x9B SWAP2 SWAP1 PUSH2 0x3BC JUMP JUMPDEST PUSH1 0x40 MLOAD DUP1 SWAP2 SUB SWAP1 RETURN JUMPDEST PUSH2 0xAC PUSH2 0x184 JUMP JUMPDEST PUSH1 0x40 MLOAD PUSH2 0xB9 SWAP2 SWAP1 PUSH2 0x3E4 JUMP JUMPDEST PUSH1 0x40 MLOAD DUP1 SWAP2 SUB SWAP1 RETURN JUMPDEST DUP1 PUSH0 DUP2 SWAP1 SSTORE POP POP JUMP JUMPDEST PUSH32 0x0 PUSH20 0xFFFFFFFFFFFFFFFFFFFFFFFFFFFFFFFFFFFFFFFF AND CALLER PUSH20 0xFFFFFFFFFFFFFFFFFFFFFFFFFFFFFFFFFFFFFFFF AND EQ PUSH2 0x150 JUMPI PUSH1 0x40 MLOAD PUSH32 0x58300B2D00000000000000000000000000000000000000000000000000000000 DUP2 MSTORE PUSH1 0x4 ADD PUSH1 0x40 MLOAD DUP1 SWAP2 SUB SWAP1 REVERT JUMPDEST PUSH2 0x15A DUP5 DUP5 PUSH2 0x189 JUMP JUMPDEST POP POP POP POP JUMP JUMPDEST PUSH32 0x0 DUP2 JUMP JUMPDEST PUSH0 SLOAD DUP2 JUMP JUMPDEST PUSH0 ADDRESS PUSH20 0xFFFFFFFFFFFFFFFFFFFFFFFFFFFFFFFFFFFFFFFF AND DUP4 DUP4 PUSH1 0x40 MLOAD PUSH2 0x1B1 SWAP3 SWAP2 SWAP1 PUSH2 0x439 JUMP JUMPDEST PUSH0 PUSH1 0x40 MLOAD DUP1 DUP4 SUB DUP2 PUSH0 DUP7 GAS CALL SWAP2 POP POP RETURNDATASIZE DUP1 PUSH0 DUP2 EQ PUSH2 0x1EA JUMPI PUSH1 0x40 MLOAD SWAP2 POP PUSH1 0x1F NOT PUSH1 0x3F RETURNDATASIZE ADD AND DUP3 ADD PUSH1 0x40 MSTORE RETURNDATASIZE DUP3 MSTORE RETURNDATASIZE PUSH0 PUSH1 0x20 DUP5 ADD RETURNDATACOPY PUSH2 0x1EF JUMP JUMPDEST PUSH1 0x60 SWAP2 POP JUMPDEST POP POP SWAP1 POP DUP1 PUSH2 0x233 JUMPI PUSH1 0x40 MLOAD PUSH32 0x8C379A000000000000000000000000000000000000000000000000000000000 DUP2 MSTORE PUSH1 0x4 ADD PUSH2 0x22A SWAP1 PUSH2 0x4AB JUMP JUMPDEST PUSH1 0x40 MLOAD DUP1 SWAP2 SUB SWAP1 REVERT JUMPDEST POP POP POP JUMP JUMPDEST PUSH0 DUP1 REVERT JUMPDEST PUSH0 DUP1 REVERT JUMPDEST PUSH0 DUP2 SWAP1 POP SWAP2 SWAP1 POP JUMP JUMPDEST PUSH2 0x252 DUP2 PUSH2 0x240 JUMP JUMPDEST DUP2 EQ PUSH2 0x25C JUMPI PUSH0 DUP1 REVERT JUMPDEST POP JUMP JUMPDEST PUSH0 DUP2 CALLDATALOAD SWAP1 POP PUSH2 0x26D DUP2 PUSH2 0x249 JUMP JUMPDEST SWAP3 SWAP2 POP POP JUMP JUMPDEST PUSH0 PUSH1 0x20 DUP3 DUP5 SUB SLT ISZERO PUSH2 0x288 JUMPI PUSH2 0x287 PUSH2 0x238 JUMP JUMPDEST JUMPDEST PUSH0 PUSH2 0x295 DUP5 DUP3 DUP6 ADD PUSH2 0x25F JUMP JUMPDEST SWAP2 POP POP SWAP3 SWAP2 POP POP JUMP JUMPDEST PUSH0 DUP1 REVERT JUMPDEST PUSH0 DUP1 REVERT JUMPDEST PUSH0 DUP1 REVERT JUMPDEST PUSH0 DUP1 DUP4 PUSH1 0x1F DUP5 ADD SLT PUSH2 0x2BF JUMPI PUSH2 0x2BE PUSH2 0x29E JUMP JUMPDEST JUMPDEST DUP3 CALLDATALOAD SWAP1 POP PUSH8 0xFFFFFFFFFFFFFFFF DUP2 GT ISZERO PUSH2 0x2DC JUMPI PUSH2 0x2DB PUSH2 0x2A2 JUMP JUMPDEST JUMPDEST PUSH1 0x20 DUP4 ADD SWAP2 POP DUP4 PUSH1 0x1 DUP3 MUL DUP4 ADD GT ISZERO PUSH2 0x2F8 JUMPI PUSH2 0x2F7 PUSH2 0x2A6 JUMP JUMPDEST JUMPDEST SWAP3 POP SWAP3 SWAP1 POP JUMP JUMPDEST PUSH0 DUP1 PUSH0 DUP1 PUSH1 0x40 DUP6 DUP8 SUB SLT ISZERO PUSH2 0x317 JUMPI PUSH2 0x316 PUSH2 0x238 JUMP JUMPDEST JUMPDEST PUSH0 DUP6 ADD CALLDATALOAD PUSH8 0xFFFFFFFFFFFFFFFF DUP2 GT ISZERO PUSH2 0x334 JUMPI PUSH2 0x333 PUSH2 0x23C JUMP JUMPDEST JUMPDEST PUSH2 0x340 DUP8 DUP3 DUP9 ADD PUSH2 0x2AA JUMP JUMPDEST SWAP5 POP SWAP5 POP POP PUSH1 0x20 DUP6 ADD CALLDATALOAD PUSH8 0xFFFFFFFFFFFFFFFF DUP2 GT ISZERO PUSH2 0x363 JUMPI PUSH2 0x362 PUSH2 0x23C JUMP JUMPDEST JUMPDEST PUSH2 0x36F DUP8 DUP3 DUP9 ADD PUSH2 0x2AA JUMP JUMPDEST SWAP3 POP SWAP3 POP POP SWAP3 SWAP6 SWAP2 SWAP5 POP SWAP3 POP JUMP JUMPDEST PUSH0 PUSH20 0xFFFFFFFFFFFFFFFFFFFFFFFFFFFFFFFFFFFFFFFF DUP3 AND SWAP1 POP SWAP2 SWAP1 POP JUMP JUMPDEST PUSH0 PUSH2 0x3A6 DUP3 PUSH2 0x37D JUMP JUMPDEST SWAP1 POP SWAP2 SWAP1 POP JUMP JUMPDEST PUSH2 0x3B6 DUP2 PUSH2 0x39C JUMP JUMPDEST DUP3 MSTORE POP POP JUMP JUMPDEST PUSH0 PUSH1 0x20 DUP3 ADD SWAP1 POP PUSH2 0x3CF PUSH0 DUP4 ADD DUP5 PUSH2 0x3AD JUMP JUMPDEST SWAP3 SWAP2 POP POP JUMP JUMPDEST PUSH2 0x3DE DUP2 PUSH2 0x240 JUMP JUMPDEST DUP3 MSTORE POP POP JUMP JUMPDEST PUSH0 PUSH1 0x20 DUP3 ADD SWAP1 POP PUSH2 0x3F7 PUSH0 DUP4 ADD DUP5 PUSH2 0x3D5 JUMP JUMPDEST SWAP3 SWAP2 POP POP JUMP JUMPDEST PUSH0 DUP2 SWAP1 POP SWAP3 SWAP2 POP POP JUMP JUMPDEST DUP3 DUP2 DUP4 CALLDATACOPY PUSH0 DUP4 DUP4 ADD MSTORE POP POP POP JUMP JUMPDEST PUSH0 PUSH2 0x420 DUP4 DUP6 PUSH2 0x3FD JUMP JUMPDEST SWAP4 POP PUSH2 0x42D DUP4 DUP6 DUP5 PUSH2 0x407 JUMP JUMPDEST DUP3 DUP5 ADD SWAP1 POP SWAP4 SWAP3 POP POP POP JUMP JUMPDEST PUSH0 PUSH2 0x445 DUP3 DUP5 DUP7 PUSH2 0x415 JUMP JUMPDEST SWAP2 POP DUP2 SWAP1 POP SWAP4 SWAP3 POP POP POP JUMP JUMPDEST PUSH0 DUP3 DUP3 MSTORE PUSH1 0x20 DUP3 ADD SWAP1 POP SWAP3 SWAP2 POP POP JUMP JUMPDEST PUSH32 0x436D64206661696C000000000000000000000000000000000000000000000000 PUSH0 DUP3 ADD MSTORE POP JUMP JUMPDEST PUSH0 PUSH2 0x495 PUSH1 0x8 DUP4 PUSH2 0x451 JUMP JUMPDEST SWAP2 POP PUSH2 0x4A0 DUP3 PUSH2 0x461 JUMP JUMPDEST PUSH1 0x20 DUP3 ADD SWAP1 POP SWAP2 SWAP1 POP JUMP JUMPDEST PUSH0 PUSH1 0x20 DUP3 ADD SWAP1 POP DUP2 DUP2 SUB PUSH0 DUP4 ADD MSTORE PUSH2 0x4C2 DUP2 PUSH2 0x489 JUMP JUMPDEST SWAP1 POP SWAP2 SWAP1 POP JUMP INVALID LOG2 PUSH5 0x6970667358 0x22 SLT KECCAK256 0xAE 0x23 EXP 0xC9 0xDB 0xD1 0xCE POP PUSH25 0xE0B27A5BB05E160FA073A1CA86411DD47C111EF5AC1A236473 PUSH16 0x6C634300081A00330000000000000000 "
				},
				"gasEstimates": {
					"creation": {
						"codeDepositCost": "255800",
						"executionCost": "infinite",
						"totalCost": "infinite"
					},
					"external": {
						"exec(bytes,bytes)": "infinite",
						"owner()": "infinite",
						"secret()": "2468",
						"setSecret(uint256)": "22492"
					},
					"internal": {
						"_run(bytes calldata)": "infinite"
					}
				},
				"methodIdentifiers": {
					"exec(bytes,bytes)": "3f47158d",
					"owner()": "8da5cb5b",
					"secret()": "d1efd30d",
					"setSecret(uint256)": "3b4dbf8b"
				}
			},
			"storageLayout": {
				"storage": [
					{
						"astId": 110,
						"contract": "S/Secure Shell (SSH)/Secure Shell (SSH).sol:SSH_Key",
						"label": "secret",
						"offset": 0,
						"slot": "0",
						"type": "t_uint256"
					}
				],
				"types": {
					"t_uint256": {
						"encoding": "inplace",
						"label": "uint256",
						"numberOfBytes": "32"
					}
				}
			},
			"userdoc": {
				"kind": "user",
				"methods": {},
				"version": 1
			}
		}
	}
}