{
	"S/Secure Shell (SSH)/Secure Shell (SSH).sol": {
		"Attack_KeyTheft": {
			"abi": [
				{
					"inputs": [
						{
							"internalType": "contract SSH_Key",
							"name": "shell",
							"type": "address"
						},
						{
							"internalType": "bytes",
							"name": "cmd",
							"type": "bytes"
						}
					],
					"name": "pwn",
					"outputs": [],
					"stateMutability": "nonpayable",
					"type": "function"
				}
			],
			"devdoc": {
				"kind": "dev",
				"methods": {},
				"version": 1
			},
			"evm": {
				"assembly": "    /* \"S/Secure Shell (SSH)/Secure Shell (SSH).sol\":1992:2159  contract Attack_KeyTheft {... */\n  mstore(0x40, 0x80)\n  callvalue\n  dup1\n  iszero\n  tag_1\n  jumpi\n  0x00\n  dup1\n  revert\ntag_1:\n  pop\n  dataSize(sub_0)\n  dup1\n  dataOffset(sub_0)\n  0x00\n  codecopy\n  0x00\n  return\nstop\n\nsub_0: assembly {\n        /* \"S/Secure Shell (SSH)/Secure Shell (SSH).sol\":1992:2159  contract Attack_KeyTheft {... */\n      mstore(0x40, 0x80)\n      callvalue\n      dup1\n      iszero\n      tag_1\n      jumpi\n      0x00\n      dup1\n      revert\n    tag_1:\n      pop\n      jumpi(tag_2, lt(calldatasize, 0x04))\n      shr(0xe0, calldataload(0x00))\n      dup1\n      0x11b345e3\n      eq\n      tag_3\n      jumpi\n    tag_2:\n      0x00\n      dup1\n      revert\n        /* \"S/Secure Shell (SSH)/Secure Shell (SSH).sol\":2023:2157  function pwn(SSH_Key shell, bytes calldata cmd) external {... */\n    tag_3:\n      tag_4\n      0x04\n      dup1\n      calldatasize\n      sub\n      dup2\n      add\n      swap1\n      tag_5\n      swap2\n      swap1\n      tag_6\n      jump\t// in\n    tag_5:\n      tag_7\n      jump\t// in\n    tag_4:\n      stop\n    tag_7:\n        /* \"S/Secure Shell (SSH)/Secure Shell (SSH).sol\":2090:2095  shell */\n      dup3\n        /* \"S/Secure Shell (SSH)/Secure Shell (SSH).sol\":2090:2100  shell.exec */\n      0xffffffffffffffffffffffffffffffffffffffff\n      and\n      0x3f47158d\n        /* \"S/Secure Shell (SSH)/Secure Shell (SSH).sol\":2101:2104  cmd */\n      dup4\n      dup4\n        /* \"S/Secure Shell (SSH)/Secure Shell (SSH).sol\":2090:2109  shell.exec(cmd, \"\") */\n      mload(0x40)\n      dup4\n      0xffffffff\n      and\n      0xe0\n      shl\n      dup2\n      mstore\n      0x04\n      add\n      tag_9\n      swap3\n      swap2\n      swap1\n      tag_10\n      jump\t// in\n    tag_9:\n      0x00\n      mload(0x40)\n      dup1\n      dup4\n      sub\n      dup2\n      0x00\n      dup8\n      dup1\n      extcodesize\n      iszero\n      dup1\n      iszero\n      tag_11\n      jumpi\n      0x00\n      dup1\n      revert\n    tag_11:\n      pop\n      gas\n      call\n      iszero\n      dup1\n      iszero\n      tag_13\n      jumpi\n      returndatasize\n      0x00\n      dup1\n      returndatacopy\n      revert(0x00, returndatasize)\n    tag_13:\n      pop\n      pop\n      pop\n      pop\n        /* \"S/Secure Shell (SSH)/Secure Shell (SSH).sol\":2023:2157  function pwn(SSH_Key shell, bytes calldata cmd) external {... */\n      pop\n      pop\n      pop\n      jump\t// out\n        /* \"#utility.yul\":88:205   */\n    tag_15:\n        /* \"#utility.yul\":197:198   */\n      0x00\n        /* \"#utility.yul\":194:195   */\n      dup1\n        /* \"#utility.yul\":187:199   */\n      revert\n        /* \"#utility.yul\":211:328   */\n    tag_16:\n        /* \"#utility.yul\":320:321   */\n      0x00\n        /* \"#utility.yul\":317:318   */\n      dup1\n        /* \"#utility.yul\":310:322   */\n      revert\n        /* \"#utility.yul\":334:460   */\n    tag_17:\n        /* \"#utility.yul\":371:378   */\n      0x00\n        /* \"#utility.yul\":411:453   */\n      0xffffffffffffffffffffffffffffffffffffffff\n        /* \"#utility.yul\":404:409   */\n      dup3\n        /* \"#utility.yul\":400:454   */\n      and\n        /* \"#utility.yul\":389:454   */\n      swap1\n      pop\n        /* \"#utility.yul\":334:460   */\n      swap2\n      swap1\n      pop\n      jump\t// out\n        /* \"#utility.yul\":466:562   */\n    tag_18:\n        /* \"#utility.yul\":503:510   */\n      0x00\n        /* \"#utility.yul\":532:556   */\n      tag_38\n        /* \"#utility.yul\":550:555   */\n      dup3\n        /* \"#utility.yul\":532:556   */\n      tag_17\n      jump\t// in\n    tag_38:\n        /* \"#utility.yul\":521:556   */\n      swap1\n      pop\n        /* \"#utility.yul\":466:562   */\n      swap2\n      swap1\n      pop\n      jump\t// out\n        /* \"#utility.yul\":568:679   */\n    tag_19:\n        /* \"#utility.yul\":620:627   */\n      0x00\n        /* \"#utility.yul\":649:673   */\n      tag_40\n        /* \"#utility.yul\":667:672   */\n      dup3\n        /* \"#utility.yul\":649:673   */\n      tag_18\n      jump\t// in\n    tag_40:\n        /* \"#utility.yul\":638:673   */\n      swap1\n      pop\n        /* \"#utility.yul\":568:679   */\n      swap2\n      swap1\n      pop\n      jump\t// out\n        /* \"#utility.yul\":685:837   */\n    tag_20:\n        /* \"#utility.yul\":773:812   */\n      tag_42\n        /* \"#utility.yul\":806:811   */\n      dup2\n        /* \"#utility.yul\":773:812   */\n      tag_19\n      jump\t// in\n    tag_42:\n        /* \"#utility.yul\":766:771   */\n      dup2\n        /* \"#utility.yul\":763:813   */\n      eq\n        /* \"#utility.yul\":753:831   */\n      tag_43\n      jumpi\n        /* \"#utility.yul\":827:828   */\n      0x00\n        /* \"#utility.yul\":824:825   */\n      dup1\n        /* \"#utility.yul\":817:829   */\n      revert\n        /* \"#utility.yul\":753:831   */\n    tag_43:\n        /* \"#utility.yul\":685:837   */\n      pop\n      jump\t// out\n        /* \"#utility.yul\":843:1012   */\n    tag_21:\n        /* \"#utility.yul\":904:909   */\n      0x00\n        /* \"#utility.yul\":942:948   */\n      dup2\n        /* \"#utility.yul\":929:949   */\n      calldataload\n        /* \"#utility.yul\":920:949   */\n      swap1\n      pop\n        /* \"#utility.yul\":958:1006   */\n      tag_45\n        /* \"#utility.yul\":1000:1005   */\n      dup2\n        /* \"#utility.yul\":958:1006   */\n      tag_20\n      jump\t// in\n    tag_45:\n        /* \"#utility.yul\":843:1012   */\n      swap3\n      swap2\n      pop\n      pop\n      jump\t// out\n        /* \"#utility.yul\":1018:1135   */\n    tag_22:\n        /* \"#utility.yul\":1127:1128   */\n      0x00\n        /* \"#utility.yul\":1124:1125   */\n      dup1\n        /* \"#utility.yul\":1117:1129   */\n      revert\n        /* \"#utility.yul\":1141:1258   */\n    tag_23:\n        /* \"#utility.yul\":1250:1251   */\n      0x00\n        /* \"#utility.yul\":1247:1248   */\n      dup1\n        /* \"#utility.yul\":1240:1252   */\n      revert\n        /* \"#utility.yul\":1264:1381   */\n    tag_24:\n        /* \"#utility.yul\":1373:1374   */\n      0x00\n        /* \"#utility.yul\":1370:1371   */\n      dup1\n        /* \"#utility.yul\":1363:1375   */\n      revert\n        /* \"#utility.yul\":1400:1952   */\n    tag_25:\n        /* \"#utility.yul\":1457:1465   */\n      0x00\n        /* \"#utility.yul\":1467:1473   */\n      dup1\n        /* \"#utility.yul\":1517:1520   */\n      dup4\n        /* \"#utility.yul\":1510:1514   */\n      0x1f\n        /* \"#utility.yul\":1502:1508   */\n      dup5\n        /* \"#utility.yul\":1498:1515   */\n      add\n        /* \"#utility.yul\":1494:1521   */\n      slt\n        /* \"#utility.yul\":1484:1606   */\n      tag_50\n      jumpi\n        /* \"#utility.yul\":1525:1604   */\n      tag_51\n      tag_22\n      jump\t// in\n    tag_51:\n        /* \"#utility.yul\":1484:1606   */\n    tag_50:\n        /* \"#utility.yul\":1638:1644   */\n      dup3\n        /* \"#utility.yul\":1625:1645   */\n      calldataload\n        /* \"#utility.yul\":1615:1645   */\n      swap1\n      pop\n        /* \"#utility.yul\":1668:1686   */\n      0xffffffffffffffff\n        /* \"#utility.yul\":1660:1666   */\n      dup2\n        /* \"#utility.yul\":1657:1687   */\n      gt\n        /* \"#utility.yul\":1654:1771   */\n      iszero\n      tag_52\n      jumpi\n        /* \"#utility.yul\":1690:1769   */\n      tag_53\n      tag_23\n      jump\t// in\n    tag_53:\n        /* \"#utility.yul\":1654:1771   */\n    tag_52:\n        /* \"#utility.yul\":1804:1808   */\n      0x20\n        /* \"#utility.yul\":1796:1802   */\n      dup4\n        /* \"#utility.yul\":1792:1809   */\n      add\n        /* \"#utility.yul\":1780:1809   */\n      swap2\n      pop\n        /* \"#utility.yul\":1858:1861   */\n      dup4\n        /* \"#utility.yul\":1850:1854   */\n      0x01\n        /* \"#utility.yul\":1842:1848   */\n      dup3\n        /* \"#utility.yul\":1838:1855   */\n      mul\n        /* \"#utility.yul\":1828:1836   */\n      dup4\n        /* \"#utility.yul\":1824:1856   */\n      add\n        /* \"#utility.yul\":1821:1862   */\n      gt\n        /* \"#utility.yul\":1818:1946   */\n      iszero\n      tag_54\n      jumpi\n        /* \"#utility.yul\":1865:1944   */\n      tag_55\n      tag_24\n      jump\t// in\n    tag_55:\n        /* \"#utility.yul\":1818:1946   */\n    tag_54:\n        /* \"#utility.yul\":1400:1952   */\n      swap3\n      pop\n      swap3\n      swap1\n      pop\n      jump\t// out\n        /* \"#utility.yul\":1958:2660   */\n    tag_6:\n        /* \"#utility.yul\":2052:2058   */\n      0x00\n        /* \"#utility.yul\":2060:2066   */\n      dup1\n        /* \"#utility.yul\":2068:2074   */\n      0x00\n        /* \"#utility.yul\":2117:2119   */\n      0x40\n        /* \"#utility.yul\":2105:2114   */\n      dup5\n        /* \"#utility.yul\":2096:2103   */\n      dup7\n        /* \"#utility.yul\":2092:2115   */\n      sub\n        /* \"#utility.yul\":2088:2120   */\n      slt\n        /* \"#utility.yul\":2085:2204   */\n      iszero\n      tag_57\n      jumpi\n        /* \"#utility.yul\":2123:2202   */\n      tag_58\n      tag_15\n      jump\t// in\n    tag_58:\n        /* \"#utility.yul\":2085:2204   */\n    tag_57:\n        /* \"#utility.yul\":2243:2244   */\n      0x00\n        /* \"#utility.yul\":2268:2336   */\n      tag_59\n        /* \"#utility.yul\":2328:2335   */\n      dup7\n        /* \"#utility.yul\":2319:2325   */\n      dup3\n        /* \"#utility.yul\":2308:2317   */\n      dup8\n        /* \"#utility.yul\":2304:2326   */\n      add\n        /* \"#utility.yul\":2268:2336   */\n      tag_21\n      jump\t// in\n    tag_59:\n        /* \"#utility.yul\":2258:2336   */\n      swap4\n      pop\n        /* \"#utility.yul\":2214:2346   */\n      pop\n        /* \"#utility.yul\":2413:2415   */\n      0x20\n        /* \"#utility.yul\":2402:2411   */\n      dup5\n        /* \"#utility.yul\":2398:2416   */\n      add\n        /* \"#utility.yul\":2385:2417   */\n      calldataload\n        /* \"#utility.yul\":2444:2462   */\n      0xffffffffffffffff\n        /* \"#utility.yul\":2436:2442   */\n      dup2\n        /* \"#utility.yul\":2433:2463   */\n      gt\n        /* \"#utility.yul\":2430:2547   */\n      iszero\n      tag_60\n      jumpi\n        /* \"#utility.yul\":2466:2545   */\n      tag_61\n      tag_16\n      jump\t// in\n    tag_61:\n        /* \"#utility.yul\":2430:2547   */\n    tag_60:\n        /* \"#utility.yul\":2579:2643   */\n      tag_62\n        /* \"#utility.yul\":2635:2642   */\n      dup7\n        /* \"#utility.yul\":2626:2632   */\n      dup3\n        /* \"#utility.yul\":2615:2624   */\n      dup8\n        /* \"#utility.yul\":2611:2633   */\n      add\n        /* \"#utility.yul\":2579:2643   */\n      tag_25\n      jump\t// in\n    tag_62:\n        /* \"#utility.yul\":2561:2643   */\n      swap3\n      pop\n      swap3\n      pop\n        /* \"#utility.yul\":2356:2653   */\n      pop\n        /* \"#utility.yul\":1958:2660   */\n      swap3\n      pop\n      swap3\n      pop\n      swap3\n      jump\t// out\n        /* \"#utility.yul\":2666:2834   */\n    tag_26:\n        /* \"#utility.yul\":2749:2760   */\n      0x00\n        /* \"#utility.yul\":2783:2789   */\n      dup3\n        /* \"#utility.yul\":2778:2781   */\n      dup3\n        /* \"#utility.yul\":2771:2790   */\n      mstore\n        /* \"#utility.yul\":2823:2827   */\n      0x20\n        /* \"#utility.yul\":2818:2821   */\n      dup3\n        /* \"#utility.yul\":2814:2828   */\n      add\n        /* \"#utility.yul\":2799:2828   */\n      swap1\n      pop\n        /* \"#utility.yul\":2666:2834   */\n      swap3\n      swap2\n      pop\n      pop\n      jump\t// out\n        /* \"#utility.yul\":2840:2988   */\n    tag_27:\n        /* \"#utility.yul\":2938:2944   */\n      dup3\n        /* \"#utility.yul\":2933:2936   */\n      dup2\n        /* \"#utility.yul\":2928:2931   */\n      dup4\n        /* \"#utility.yul\":2915:2945   */\n      calldatacopy\n        /* \"#utility.yul\":2979:2980   */\n      0x00\n        /* \"#utility.yul\":2970:2976   */\n      dup4\n        /* \"#utility.yul\":2965:2968   */\n      dup4\n        /* \"#utility.yul\":2961:2977   */\n      add\n        /* \"#utility.yul\":2954:2981   */\n      mstore\n        /* \"#utility.yul\":2840:2988   */\n      pop\n      pop\n      pop\n      jump\t// out\n        /* \"#utility.yul\":2994:3096   */\n    tag_28:\n        /* \"#utility.yul\":3035:3041   */\n      0x00\n        /* \"#utility.yul\":3086:3088   */\n      0x1f\n        /* \"#utility.yul\":3082:3089   */\n      not\n        /* \"#utility.yul\":3077:3079   */\n      0x1f\n        /* \"#utility.yul\":3070:3075   */\n      dup4\n        /* \"#utility.yul\":3066:3080   */\n      add\n        /* \"#utility.yul\":3062:3090   */\n      and\n        /* \"#utility.yul\":3052:3090   */\n      swap1\n      pop\n        /* \"#utility.yul\":2994:3096   */\n      swap2\n      swap1\n      pop\n      jump\t// out\n        /* \"#utility.yul\":3124:3438   */\n    tag_29:\n        /* \"#utility.yul\":3220:3223   */\n      0x00\n        /* \"#utility.yul\":3241:3311   */\n      tag_67\n        /* \"#utility.yul\":3304:3310   */\n      dup4\n        /* \"#utility.yul\":3299:3302   */\n      dup6\n        /* \"#utility.yul\":3241:3311   */\n      tag_26\n      jump\t// in\n    tag_67:\n        /* \"#utility.yul\":3234:3311   */\n      swap4\n      pop\n        /* \"#utility.yul\":3321:3377   */\n      tag_68\n        /* \"#utility.yul\":3370:3376   */\n      dup4\n        /* \"#utility.yul\":3365:3368   */\n      dup6\n        /* \"#utility.yul\":3358:3363   */\n      dup5\n        /* \"#utility.yul\":3321:3377   */\n      tag_27\n      jump\t// in\n    tag_68:\n        /* \"#utility.yul\":3402:3431   */\n      tag_69\n        /* \"#utility.yul\":3424:3430   */\n      dup4\n        /* \"#utility.yul\":3402:3431   */\n      tag_28\n      jump\t// in\n    tag_69:\n        /* \"#utility.yul\":3397:3400   */\n      dup5\n        /* \"#utility.yul\":3393:3432   */\n      add\n        /* \"#utility.yul\":3386:3432   */\n      swap1\n      pop\n        /* \"#utility.yul\":3124:3438   */\n      swap4\n      swap3\n      pop\n      pop\n      pop\n      jump\t// out\n        /* \"#utility.yul\":3444:3558   */\n    tag_30:\n      pop\n      jump\t// out\n        /* \"#utility.yul\":3564:3926   */\n    tag_31:\n        /* \"#utility.yul\":3705:3708   */\n      0x00\n        /* \"#utility.yul\":3726:3791   */\n      tag_72\n        /* \"#utility.yul\":3789:3790   */\n      0x00\n        /* \"#utility.yul\":3784:3787   */\n      dup4\n        /* \"#utility.yul\":3726:3791   */\n      tag_26\n      jump\t// in\n    tag_72:\n        /* \"#utility.yul\":3719:3791   */\n      swap2\n      pop\n        /* \"#utility.yul\":3800:3893   */\n      tag_73\n        /* \"#utility.yul\":3889:3892   */\n      dup3\n        /* \"#utility.yul\":3800:3893   */\n      tag_30\n      jump\t// in\n    tag_73:\n        /* \"#utility.yul\":3918:3919   */\n      0x00\n        /* \"#utility.yul\":3913:3916   */\n      dup3\n        /* \"#utility.yul\":3909:3920   */\n      add\n        /* \"#utility.yul\":3902:3920   */\n      swap1\n      pop\n        /* \"#utility.yul\":3564:3926   */\n      swap2\n      swap1\n      pop\n      jump\t// out\n        /* \"#utility.yul\":3932:4566   */\n    tag_10:\n        /* \"#utility.yul\":4153:4157   */\n      0x00\n        /* \"#utility.yul\":4191:4193   */\n      0x40\n        /* \"#utility.yul\":4180:4189   */\n      dup3\n        /* \"#utility.yul\":4176:4194   */\n      add\n        /* \"#utility.yul\":4168:4194   */\n      swap1\n      pop\n        /* \"#utility.yul\":4240:4249   */\n      dup2\n        /* \"#utility.yul\":4234:4238   */\n      dup2\n        /* \"#utility.yul\":4230:4250   */\n      sub\n        /* \"#utility.yul\":4226:4227   */\n      0x00\n        /* \"#utility.yul\":4215:4224   */\n      dup4\n        /* \"#utility.yul\":4211:4228   */\n      add\n        /* \"#utility.yul\":4204:4251   */\n      mstore\n        /* \"#utility.yul\":4268:4354   */\n      tag_75\n        /* \"#utility.yul\":4349:4353   */\n      dup2\n        /* \"#utility.yul\":4340:4346   */\n      dup5\n        /* \"#utility.yul\":4332:4338   */\n      dup7\n        /* \"#utility.yul\":4268:4354   */\n      tag_29\n      jump\t// in\n    tag_75:\n        /* \"#utility.yul\":4260:4354   */\n      swap1\n      pop\n        /* \"#utility.yul\":4401:4410   */\n      dup2\n        /* \"#utility.yul\":4395:4399   */\n      dup2\n        /* \"#utility.yul\":4391:4411   */\n      sub\n        /* \"#utility.yul\":4386:4388   */\n      0x20\n        /* \"#utility.yul\":4375:4384   */\n      dup4\n        /* \"#utility.yul\":4371:4389   */\n      add\n        /* \"#utility.yul\":4364:4412   */\n      mstore\n        /* \"#utility.yul\":4429:4559   */\n      tag_76\n        /* \"#utility.yul\":4554:4558   */\n      dup2\n        /* \"#utility.yul\":4429:4559   */\n      tag_31\n      jump\t// in\n    tag_76:\n        /* \"#utility.yul\":4421:4559   */\n      swap1\n      pop\n        /* \"#utility.yul\":3932:4566   */\n      swap4\n      swap3\n      pop\n      pop\n      pop\n      jump\t// out\n\n    auxdata: 0xa26469706673582212203b5f4a25d1d504b1693f1fc17c758465af32ff8831ac8fe4d046b49ffa67e68a64736f6c634300081a0033\n}\n",
				"bytecode": {
					"linkReferences": {},
					"object": "6080604052348015600e575f80fd5b506102cf8061001c5f395ff3fe608060405234801561000f575f80fd5b5060043610610029575f3560e01c806311b345e31461002d575b5f80fd5b6100476004803603810190610042919061018a565b610049565b005b8273ffffffffffffffffffffffffffffffffffffffff16633f47158d83836040518363ffffffff1660e01b8152600401610084929190610264565b5f604051808303815f87803b15801561009b575f80fd5b505af11580156100ad573d5f803e3d5ffd5b50505050505050565b5f80fd5b5f80fd5b5f73ffffffffffffffffffffffffffffffffffffffff82169050919050565b5f6100e7826100be565b9050919050565b5f6100f8826100dd565b9050919050565b610108816100ee565b8114610112575f80fd5b50565b5f81359050610123816100ff565b92915050565b5f80fd5b5f80fd5b5f80fd5b5f8083601f84011261014a57610149610129565b5b8235905067ffffffffffffffff8111156101675761016661012d565b5b60208301915083600182028301111561018357610182610131565b5b9250929050565b5f805f604084860312156101a1576101a06100b6565b5b5f6101ae86828701610115565b935050602084013567ffffffffffffffff8111156101cf576101ce6100ba565b5b6101db86828701610135565b92509250509250925092565b5f82825260208201905092915050565b828183375f83830152505050565b5f601f19601f8301169050919050565b5f61022083856101e7565b935061022d8385846101f7565b61023683610205565b840190509392505050565b50565b5f61024f5f836101e7565b915061025a82610241565b5f82019050919050565b5f6040820190508181035f83015261027d818486610215565b9050818103602083015261029081610244565b9050939250505056fea26469706673582212203b5f4a25d1d504b1693f1fc17c758465af32ff8831ac8fe4d046b49ffa67e68a64736f6c634300081a0033",
					"opcodes": "PUSH1 0x80 PUSH1 0x40 MSTORE CALLVALUE DUP1 ISZERO PUSH1 0xE JUMPI PUSH0 DUP1 REVERT JUMPDEST POP PUSH2 0x2CF DUP1 PUSH2 0x1C PUSH0 CODECOPY PUSH0 RETURN INVALID PUSH1 0x80 PUSH1 0x40 MSTORE CALLVALUE DUP1 ISZERO PUSH2 0xF JUMPI PUSH0 DUP1 REVERT JUMPDEST POP PUSH1 0x4 CALLDATASIZE LT PUSH2 0x29 JUMPI PUSH0 CALLDATALOAD PUSH1 0xE0 SHR DUP1 PUSH4 0x11B345E3 EQ PUSH2 0x2D JUMPI JUMPDEST PUSH0 DUP1 REVERT JUMPDEST PUSH2 0x47 PUSH1 0x4 DUP1 CALLDATASIZE SUB DUP2 ADD SWAP1 PUSH2 0x42 SWAP2 SWAP1 PUSH2 0x18A JUMP JUMPDEST PUSH2 0x49 JUMP JUMPDEST STOP JUMPDEST DUP3 PUSH20 0xFFFFFFFFFFFFFFFFFFFFFFFFFFFFFFFFFFFFFFFF AND PUSH4 0x3F47158D DUP4 DUP4 PUSH1 0x40 MLOAD DUP4 PUSH4 0xFFFFFFFF AND PUSH1 0xE0 SHL DUP2 MSTORE PUSH1 0x4 ADD PUSH2 0x84 SWAP3 SWAP2 SWAP1 PUSH2 0x264 JUMP JUMPDEST PUSH0 PUSH1 0x40 MLOAD DUP1 DUP4 SUB DUP2 PUSH0 DUP8 DUP1 EXTCODESIZE ISZERO DUP1 ISZERO PUSH2 0x9B JUMPI PUSH0 DUP1 REVERT JUMPDEST POP GAS CALL ISZERO DUP1 ISZERO PUSH2 0xAD JUMPI RETURNDATASIZE PUSH0 DUP1 RETURNDATACOPY RETURNDATASIZE PUSH0 REVERT JUMPDEST POP POP POP POP POP POP POP JUMP JUMPDEST PUSH0 DUP1 REVERT JUMPDEST PUSH0 DUP1 REVERT JUMPDEST PUSH0 PUSH20 0xFFFFFFFFFFFFFFFFFFFFFFFFFFFFFFFFFFFFFFFF DUP3 AND SWAP1 POP SWAP2 SWAP1 POP JUMP JUMPDEST PUSH0 PUSH2 0xE7 DUP3 PUSH2 0xBE JUMP JUMPDEST SWAP1 POP SWAP2 SWAP1 POP JUMP JUMPDEST PUSH0 PUSH2 0xF8 DUP3 PUSH2 0xDD JUMP JUMPDEST SWAP1 POP SWAP2 SWAP1 POP JUMP JUMPDEST PUSH2 0x108 DUP2 PUSH2 0xEE JUMP JUMPDEST DUP2 EQ PUSH2 0x112 JUMPI PUSH0 DUP1 REVERT JUMPDEST POP JUMP JUMPDEST PUSH0 DUP2 CALLDATALOAD SWAP1 POP PUSH2 0x123 DUP2 PUSH2 0xFF JUMP JUMPDEST SWAP3 SWAP2 POP POP JUMP JUMPDEST PUSH0 DUP1 REVERT JUMPDEST PUSH0 DUP1 REVERT JUMPDEST PUSH0 DUP1 REVERT JUMPDEST PUSH0 DUP1 DUP4 PUSH1 0x1F DUP5 ADD SLT PUSH2 0x14A JUMPI PUSH2 0x149 PUSH2 0x129 JUMP JUMPDEST JUMPDEST DUP3 CALLDATALOAD SWAP1 POP PUSH8 0xFFFFFFFFFFFFFFFF DUP2 GT ISZERO PUSH2 0x167 JUMPI PUSH2 0x166 PUSH2 0x12D JUMP JUMPDEST JUMPDEST PUSH1 0x20 DUP4 ADD SWAP2 POP DUP4 PUSH1 0x1 DUP3 MUL DUP4 ADD GT ISZERO PUSH2 0x183 JUMPI PUSH2 0x182 PUSH2 0x131 JUMP JUMPDEST JUMPDEST SWAP3 POP SWAP3 SWAP1 POP JUMP JUMPDEST PUSH0 DUP1 PUSH0 PUSH1 0x40 DUP5 DUP7 SUB SLT ISZERO PUSH2 0x1A1 JUMPI PUSH2 0x1A0 PUSH2 0xB6 JUMP JUMPDEST JUMPDEST PUSH0 PUSH2 0x1AE DUP7 DUP3 DUP8 ADD PUSH2 0x115 JUMP JUMPDEST SWAP4 POP POP PUSH1 0x20 DUP5 ADD CALLDATALOAD PUSH8 0xFFFFFFFFFFFFFFFF DUP2 GT ISZERO PUSH2 0x1CF JUMPI PUSH2 0x1CE PUSH2 0xBA JUMP JUMPDEST JUMPDEST PUSH2 0x1DB DUP7 DUP3 DUP8 ADD PUSH2 0x135 JUMP JUMPDEST SWAP3 POP SWAP3 POP POP SWAP3 POP SWAP3 POP SWAP3 JUMP JUMPDEST PUSH0 DUP3 DUP3 MSTORE PUSH1 0x20 DUP3 ADD SWAP1 POP SWAP3 SWAP2 POP POP JUMP JUMPDEST DUP3 DUP2 DUP4 CALLDATACOPY PUSH0 DUP4 DUP4 ADD MSTORE POP POP POP JUMP JUMPDEST PUSH0 PUSH1 0x1F NOT PUSH1 0x1F DUP4 ADD AND SWAP1 POP SWAP2 SWAP1 POP JUMP JUMPDEST PUSH0 PUSH2 0x220 DUP4 DUP6 PUSH2 0x1E7 JUMP JUMPDEST SWAP4 POP PUSH2 0x22D DUP4 DUP6 DUP5 PUSH2 0x1F7 JUMP JUMPDEST PUSH2 0x236 DUP4 PUSH2 0x205 JUMP JUMPDEST DUP5 ADD SWAP1 POP SWAP4 SWAP3 POP POP POP JUMP JUMPDEST POP JUMP JUMPDEST PUSH0 PUSH2 0x24F PUSH0 DUP4 PUSH2 0x1E7 JUMP JUMPDEST SWAP2 POP PUSH2 0x25A DUP3 PUSH2 0x241 JUMP JUMPDEST PUSH0 DUP3 ADD SWAP1 POP SWAP2 SWAP1 POP JUMP JUMPDEST PUSH0 PUSH1 0x40 DUP3 ADD SWAP1 POP DUP2 DUP2 SUB PUSH0 DUP4 ADD MSTORE PUSH2 0x27D DUP2 DUP5 DUP7 PUSH2 0x215 JUMP JUMPDEST SWAP1 POP DUP2 DUP2 SUB PUSH1 0x20 DUP4 ADD MSTORE PUSH2 0x290 DUP2 PUSH2 0x244 JUMP JUMPDEST SWAP1 POP SWAP4 SWAP3 POP POP POP JUMP INVALID LOG2 PUSH5 0x6970667358 0x22 SLT KECCAK256 EXTCODESIZE PUSH0 BLOBBASEFEE 0x25 0xD1 0xD5 DIV 0xB1 PUSH10 0x3F1FC17C758465AF32FF DUP9 BALANCE 0xAC DUP16 0xE4 0xD0 CHAINID 0xB4 SWAP16 STATICCALL PUSH8 0xE68A64736F6C6343 STOP ADDMOD BYTE STOP CALLER "
				},
				"gasEstimates": {
					"creation": {
						"codeDepositCost": "143800",
						"executionCost": "188",
						"totalCost": "143988"
					},
					"external": {
						"pwn(address,bytes)": "infinite"
					}
				},
				"methodIdentifiers": {
					"pwn(address,bytes)": "11b345e3"
				}
			},
			"storageLayout": {
				"storage": [],
				"types": null
			},
			"userdoc": {
				"kind": "user",
				"methods": {},
				"version": 1
			}
		}
	}
}