{
	"S/Secure Shell (SSH)/Secure Shell (SSH).sol": {
		"Attack_SessionReplay": {
			"abi": [
				{
					"inputs": [
						{
							"internalType": "contract SSH_Session",
							"name": "shell",
							"type": "address"
						},
						{
							"internalType": "bytes",
							"name": "payload",
							"type": "bytes"
						},
						{
							"internalType": "bytes",
							"name": "oldSig",
							"type": "bytes"
						}
					],
					"name": "replay",
					"outputs": [],
					"stateMutability": "nonpayable",
					"type": "function"
				}
			],
			"devdoc": {
				"kind": "dev",
				"methods": {},
				"version": 1
			},
			"evm": {
				"assembly": "    /* \"S/Secure Shell (SSH)/Secure Shell (SSH).sol\":3988:4187  contract Attack_SessionReplay {... */\n  mstore(0x40, 0x80)\n  callvalue\n  dup1\n  iszero\n  tag_1\n  jumpi\n  0x00\n  dup1\n  revert\ntag_1:\n  pop\n  dataSize(sub_0)\n  dup1\n  dataOffset(sub_0)\n  0x00\n  codecopy\n  0x00\n  return\nstop\n\nsub_0: assembly {\n        /* \"S/Secure Shell (SSH)/Secure Shell (SSH).sol\":3988:4187  contract Attack_SessionReplay {... */\n      mstore(0x40, 0x80)\n      callvalue\n      dup1\n      iszero\n      tag_1\n      jumpi\n      0x00\n      dup1\n      revert\n    tag_1:\n      pop\n      jumpi(tag_2, lt(calldatasize, 0x04))\n      shr(0xe0, calldataload(0x00))\n      dup1\n      0xcc80bfaf\n      eq\n      tag_3\n      jumpi\n    tag_2:\n      0x00\n      dup1\n      revert\n        /* \"S/Secure Shell (SSH)/Secure Shell (SSH).sol\":4024:4185  function replay(SSH_Session shell, bytes calldata payload, bytes calldata oldSig) external {... */\n    tag_3:\n      tag_4\n      0x04\n      dup1\n      calldatasize\n      sub\n      dup2\n      add\n      swap1\n      tag_5\n      swap2\n      swap1\n      tag_6\n      jump\t// in\n    tag_5:\n      tag_7\n      jump\t// in\n    tag_4:\n      stop\n    tag_7:\n        /* \"S/Secure Shell (SSH)/Secure Shell (SSH).sol\":4125:4130  shell */\n      dup5\n        /* \"S/Secure Shell (SSH)/Secure Shell (SSH).sol\":4125:4135  shell.exec */\n      0xffffffffffffffffffffffffffffffffffffffff\n      and\n      0x3f47158d\n        /* \"S/Secure Shell (SSH)/Secure Shell (SSH).sol\":4136:4143  payload */\n      dup6\n      dup6\n        /* \"S/Secure Shell (SSH)/Secure Shell (SSH).sol\":4145:4151  oldSig */\n      dup6\n      dup6\n        /* \"S/Secure Shell (SSH)/Secure Shell (SSH).sol\":4125:4152  shell.exec(payload, oldSig) */\n      mload(0x40)\n      dup6\n      0xffffffff\n      and\n      0xe0\n      shl\n      dup2\n      mstore\n      0x04\n      add\n      tag_9\n      swap5\n      swap4\n      swap3\n      swap2\n      swap1\n      tag_10\n      jump\t// in\n    tag_9:\n      0x00\n      mload(0x40)\n      dup1\n      dup4\n      sub\n      dup2\n      0x00\n      dup8\n      dup1\n      extcodesize\n      iszero\n      dup1\n      iszero\n      tag_11\n      jumpi\n      0x00\n      dup1\n      revert\n    tag_11:\n      pop\n      gas\n      call\n      iszero\n      dup1\n      iszero\n      tag_13\n      jumpi\n      returndatasize\n      0x00\n      dup1\n      returndatacopy\n      revert(0x00, returndatasize)\n    tag_13:\n      pop\n      pop\n      pop\n      pop\n        /* \"S/Secure Shell (SSH)/Secure Shell (SSH).sol\":4024:4185  function replay(SSH_Session shell, bytes calldata payload, bytes calldata oldSig) external {... */\n      pop\n      pop\n      pop\n      pop\n      pop\n      jump\t// out\n        /* \"#utility.yul\":88:205   */\n    tag_15:\n        /* \"#utility.yul\":197:198   */\n      0x00\n        /* \"#utility.yul\":194:195   */\n      dup1\n        /* \"#utility.yul\":187:199   */\n      revert\n        /* \"#utility.yul\":211:328   */\n    tag_16:\n        /* \"#utility.yul\":320:321   */\n      0x00\n        /* \"#utility.yul\":317:318   */\n      dup1\n        /* \"#utility.yul\":310:322   */\n      revert\n        /* \"#utility.yul\":334:460   */\n    tag_17:\n        /* \"#utility.yul\":371:378   */\n      0x00\n        /* \"#utility.yul\":411:453   */\n      0xffffffffffffffffffffffffffffffffffffffff\n        /* \"#utility.yul\":404:409   */\n      dup3\n        /* \"#utility.yul\":400:454   */\n      and\n        /* \"#utility.yul\":389:454   */\n      swap1\n      pop\n        /* \"#utility.yul\":334:460   */\n      swap2\n      swap1\n      pop\n      jump\t// out\n        /* \"#utility.yul\":466:562   */\n    tag_18:\n        /* \"#utility.yul\":503:510   */\n      0x00\n        /* \"#utility.yul\":532:556   */\n      tag_36\n        /* \"#utility.yul\":550:555   */\n      dup3\n        /* \"#utility.yul\":532:556   */\n      tag_17\n      jump\t// in\n    tag_36:\n        /* \"#utility.yul\":521:556   */\n      swap1\n      pop\n        /* \"#utility.yul\":466:562   */\n      swap2\n      swap1\n      pop\n      jump\t// out\n        /* \"#utility.yul\":568:683   */\n    tag_19:\n        /* \"#utility.yul\":624:631   */\n      0x00\n        /* \"#utility.yul\":653:677   */\n      tag_38\n        /* \"#utility.yul\":671:676   */\n      dup3\n        /* \"#utility.yul\":653:677   */\n      tag_18\n      jump\t// in\n    tag_38:\n        /* \"#utility.yul\":642:677   */\n      swap1\n      pop\n        /* \"#utility.yul\":568:683   */\n      swap2\n      swap1\n      pop\n      jump\t// out\n        /* \"#utility.yul\":689:849   */\n    tag_20:\n        /* \"#utility.yul\":781:824   */\n      tag_40\n        /* \"#utility.yul\":818:823   */\n      dup2\n        /* \"#utility.yul\":781:824   */\n      tag_19\n      jump\t// in\n    tag_40:\n        /* \"#utility.yul\":774:779   */\n      dup2\n        /* \"#utility.yul\":771:825   */\n      eq\n        /* \"#utility.yul\":761:843   */\n      tag_41\n      jumpi\n        /* \"#utility.yul\":839:840   */\n      0x00\n        /* \"#utility.yul\":836:837   */\n      dup1\n        /* \"#utility.yul\":829:841   */\n      revert\n        /* \"#utility.yul\":761:843   */\n    tag_41:\n        /* \"#utility.yul\":689:849   */\n      pop\n      jump\t// out\n        /* \"#utility.yul\":855:1032   */\n    tag_21:\n        /* \"#utility.yul\":920:925   */\n      0x00\n        /* \"#utility.yul\":958:964   */\n      dup2\n        /* \"#utility.yul\":945:965   */\n      calldataload\n        /* \"#utility.yul\":936:965   */\n      swap1\n      pop\n        /* \"#utility.yul\":974:1026   */\n      tag_43\n        /* \"#utility.yul\":1020:1025   */\n      dup2\n        /* \"#utility.yul\":974:1026   */\n      tag_20\n      jump\t// in\n    tag_43:\n        /* \"#utility.yul\":855:1032   */\n      swap3\n      swap2\n      pop\n      pop\n      jump\t// out\n        /* \"#utility.yul\":1038:1155   */\n    tag_22:\n        /* \"#utility.yul\":1147:1148   */\n      0x00\n        /* \"#utility.yul\":1144:1145   */\n      dup1\n        /* \"#utility.yul\":1137:1149   */\n      revert\n        /* \"#utility.yul\":1161:1278   */\n    tag_23:\n        /* \"#utility.yul\":1270:1271   */\n      0x00\n        /* \"#utility.yul\":1267:1268   */\n      dup1\n        /* \"#utility.yul\":1260:1272   */\n      revert\n        /* \"#utility.yul\":1284:1401   */\n    tag_24:\n        /* \"#utility.yul\":1393:1394   */\n      0x00\n        /* \"#utility.yul\":1390:1391   */\n      dup1\n        /* \"#utility.yul\":1383:1395   */\n      revert\n        /* \"#utility.yul\":1420:1972   */\n    tag_25:\n        /* \"#utility.yul\":1477:1485   */\n      0x00\n        /* \"#utility.yul\":1487:1493   */\n      dup1\n        /* \"#utility.yul\":1537:1540   */\n      dup4\n        /* \"#utility.yul\":1530:1534   */\n      0x1f\n        /* \"#utility.yul\":1522:1528   */\n      dup5\n        /* \"#utility.yul\":1518:1535   */\n      add\n        /* \"#utility.yul\":1514:1541   */\n      slt\n        /* \"#utility.yul\":1504:1626   */\n      tag_48\n      jumpi\n        /* \"#utility.yul\":1545:1624   */\n      tag_49\n      tag_22\n      jump\t// in\n    tag_49:\n        /* \"#utility.yul\":1504:1626   */\n    tag_48:\n        /* \"#utility.yul\":1658:1664   */\n      dup3\n        /* \"#utility.yul\":1645:1665   */\n      calldataload\n        /* \"#utility.yul\":1635:1665   */\n      swap1\n      pop\n        /* \"#utility.yul\":1688:1706   */\n      0xffffffffffffffff\n        /* \"#utility.yul\":1680:1686   */\n      dup2\n        /* \"#utility.yul\":1677:1707   */\n      gt\n        /* \"#utility.yul\":1674:1791   */\n      iszero\n      tag_50\n      jumpi\n        /* \"#utility.yul\":1710:1789   */\n      tag_51\n      tag_23\n      jump\t// in\n    tag_51:\n        /* \"#utility.yul\":1674:1791   */\n    tag_50:\n        /* \"#utility.yul\":1824:1828   */\n      0x20\n        /* \"#utility.yul\":1816:1822   */\n      dup4\n        /* \"#utility.yul\":1812:1829   */\n      add\n        /* \"#utility.yul\":1800:1829   */\n      swap2\n      pop\n        /* \"#utility.yul\":1878:1881   */\n      dup4\n        /* \"#utility.yul\":1870:1874   */\n      0x01\n        /* \"#utility.yul\":1862:1868   */\n      dup3\n        /* \"#utility.yul\":1858:1875   */\n      mul\n        /* \"#utility.yul\":1848:1856   */\n      dup4\n        /* \"#utility.yul\":1844:1876   */\n      add\n        /* \"#utility.yul\":1841:1882   */\n      gt\n        /* \"#utility.yul\":1838:1966   */\n      iszero\n      tag_52\n      jumpi\n        /* \"#utility.yul\":1885:1964   */\n      tag_53\n      tag_24\n      jump\t// in\n    tag_53:\n        /* \"#utility.yul\":1838:1966   */\n    tag_52:\n        /* \"#utility.yul\":1420:1972   */\n      swap3\n      pop\n      swap3\n      swap1\n      pop\n      jump\t// out\n        /* \"#utility.yul\":1978:3031   */\n    tag_6:\n        /* \"#utility.yul\":2096:2102   */\n      0x00\n        /* \"#utility.yul\":2104:2110   */\n      dup1\n        /* \"#utility.yul\":2112:2118   */\n      0x00\n        /* \"#utility.yul\":2120:2126   */\n      dup1\n        /* \"#utility.yul\":2128:2134   */\n      0x00\n        /* \"#utility.yul\":2177:2179   */\n      0x60\n        /* \"#utility.yul\":2165:2174   */\n      dup7\n        /* \"#utility.yul\":2156:2163   */\n      dup9\n        /* \"#utility.yul\":2152:2175   */\n      sub\n        /* \"#utility.yul\":2148:2180   */\n      slt\n        /* \"#utility.yul\":2145:2264   */\n      iszero\n      tag_55\n      jumpi\n        /* \"#utility.yul\":2183:2262   */\n      tag_56\n      tag_15\n      jump\t// in\n    tag_56:\n        /* \"#utility.yul\":2145:2264   */\n    tag_55:\n        /* \"#utility.yul\":2303:2304   */\n      0x00\n        /* \"#utility.yul\":2328:2400   */\n      tag_57\n        /* \"#utility.yul\":2392:2399   */\n      dup9\n        /* \"#utility.yul\":2383:2389   */\n      dup3\n        /* \"#utility.yul\":2372:2381   */\n      dup10\n        /* \"#utility.yul\":2368:2390   */\n      add\n        /* \"#utility.yul\":2328:2400   */\n      tag_21\n      jump\t// in\n    tag_57:\n        /* \"#utility.yul\":2318:2400   */\n      swap6\n      pop\n        /* \"#utility.yul\":2274:2410   */\n      pop\n        /* \"#utility.yul\":2477:2479   */\n      0x20\n        /* \"#utility.yul\":2466:2475   */\n      dup7\n        /* \"#utility.yul\":2462:2480   */\n      add\n        /* \"#utility.yul\":2449:2481   */\n      calldataload\n        /* \"#utility.yul\":2508:2526   */\n      0xffffffffffffffff\n        /* \"#utility.yul\":2500:2506   */\n      dup2\n        /* \"#utility.yul\":2497:2527   */\n      gt\n        /* \"#utility.yul\":2494:2611   */\n      iszero\n      tag_58\n      jumpi\n        /* \"#utility.yul\":2530:2609   */\n      tag_59\n      tag_16\n      jump\t// in\n    tag_59:\n        /* \"#utility.yul\":2494:2611   */\n    tag_58:\n        /* \"#utility.yul\":2643:2707   */\n      tag_60\n        /* \"#utility.yul\":2699:2706   */\n      dup9\n        /* \"#utility.yul\":2690:2696   */\n      dup3\n        /* \"#utility.yul\":2679:2688   */\n      dup10\n        /* \"#utility.yul\":2675:2697   */\n      add\n        /* \"#utility.yul\":2643:2707   */\n      tag_25\n      jump\t// in\n    tag_60:\n        /* \"#utility.yul\":2625:2707   */\n      swap5\n      pop\n      swap5\n      pop\n        /* \"#utility.yul\":2420:2717   */\n      pop\n        /* \"#utility.yul\":2784:2786   */\n      0x40\n        /* \"#utility.yul\":2773:2782   */\n      dup7\n        /* \"#utility.yul\":2769:2787   */\n      add\n        /* \"#utility.yul\":2756:2788   */\n      calldataload\n        /* \"#utility.yul\":2815:2833   */\n      0xffffffffffffffff\n        /* \"#utility.yul\":2807:2813   */\n      dup2\n        /* \"#utility.yul\":2804:2834   */\n      gt\n        /* \"#utility.yul\":2801:2918   */\n      iszero\n      tag_61\n      jumpi\n        /* \"#utility.yul\":2837:2916   */\n      tag_62\n      tag_16\n      jump\t// in\n    tag_62:\n        /* \"#utility.yul\":2801:2918   */\n    tag_61:\n        /* \"#utility.yul\":2950:3014   */\n      tag_63\n        /* \"#utility.yul\":3006:3013   */\n      dup9\n        /* \"#utility.yul\":2997:3003   */\n      dup3\n        /* \"#utility.yul\":2986:2995   */\n      dup10\n        /* \"#utility.yul\":2982:3004   */\n      add\n        /* \"#utility.yul\":2950:3014   */\n      tag_25\n      jump\t// in\n    tag_63:\n        /* \"#utility.yul\":2932:3014   */\n      swap3\n      pop\n      swap3\n      pop\n        /* \"#utility.yul\":2727:3024   */\n      pop\n        /* \"#utility.yul\":1978:3031   */\n      swap3\n      swap6\n      pop\n      swap3\n      swap6\n      swap1\n      swap4\n      pop\n      jump\t// out\n        /* \"#utility.yul\":3037:3205   */\n    tag_26:\n        /* \"#utility.yul\":3120:3131   */\n      0x00\n        /* \"#utility.yul\":3154:3160   */\n      dup3\n        /* \"#utility.yul\":3149:3152   */\n      dup3\n        /* \"#utility.yul\":3142:3161   */\n      mstore\n        /* \"#utility.yul\":3194:3198   */\n      0x20\n        /* \"#utility.yul\":3189:3192   */\n      dup3\n        /* \"#utility.yul\":3185:3199   */\n      add\n        /* \"#utility.yul\":3170:3199   */\n      swap1\n      pop\n        /* \"#utility.yul\":3037:3205   */\n      swap3\n      swap2\n      pop\n      pop\n      jump\t// out\n        /* \"#utility.yul\":3211:3359   */\n    tag_27:\n        /* \"#utility.yul\":3309:3315   */\n      dup3\n        /* \"#utility.yul\":3304:3307   */\n      dup2\n        /* \"#utility.yul\":3299:3302   */\n      dup4\n        /* \"#utility.yul\":3286:3316   */\n      calldatacopy\n        /* \"#utility.yul\":3350:3351   */\n      0x00\n        /* \"#utility.yul\":3341:3347   */\n      dup4\n        /* \"#utility.yul\":3336:3339   */\n      dup4\n        /* \"#utility.yul\":3332:3348   */\n      add\n        /* \"#utility.yul\":3325:3352   */\n      mstore\n        /* \"#utility.yul\":3211:3359   */\n      pop\n      pop\n      pop\n      jump\t// out\n        /* \"#utility.yul\":3365:3467   */\n    tag_28:\n        /* \"#utility.yul\":3406:3412   */\n      0x00\n        /* \"#utility.yul\":3457:3459   */\n      0x1f\n        /* \"#utility.yul\":3453:3460   */\n      not\n        /* \"#utility.yul\":3448:3450   */\n      0x1f\n        /* \"#utility.yul\":3441:3446   */\n      dup4\n        /* \"#utility.yul\":3437:3451   */\n      add\n        /* \"#utility.yul\":3433:3461   */\n      and\n        /* \"#utility.yul\":3423:3461   */\n      swap1\n      pop\n        /* \"#utility.yul\":3365:3467   */\n      swap2\n      swap1\n      pop\n      jump\t// out\n        /* \"#utility.yul\":3495:3809   */\n    tag_29:\n        /* \"#utility.yul\":3591:3594   */\n      0x00\n        /* \"#utility.yul\":3612:3682   */\n      tag_68\n        /* \"#utility.yul\":3675:3681   */\n      dup4\n        /* \"#utility.yul\":3670:3673   */\n      dup6\n        /* \"#utility.yul\":3612:3682   */\n      tag_26\n      jump\t// in\n    tag_68:\n        /* \"#utility.yul\":3605:3682   */\n      swap4\n      pop\n        /* \"#utility.yul\":3692:3748   */\n      tag_69\n        /* \"#utility.yul\":3741:3747   */\n      dup4\n        /* \"#utility.yul\":3736:3739   */\n      dup6\n        /* \"#utility.yul\":3729:3734   */\n      dup5\n        /* \"#utility.yul\":3692:3748   */\n      tag_27\n      jump\t// in\n    tag_69:\n        /* \"#utility.yul\":3773:3802   */\n      tag_70\n        /* \"#utility.yul\":3795:3801   */\n      dup4\n        /* \"#utility.yul\":3773:3802   */\n      tag_28\n      jump\t// in\n    tag_70:\n        /* \"#utility.yul\":3768:3771   */\n      dup5\n        /* \"#utility.yul\":3764:3803   */\n      add\n        /* \"#utility.yul\":3757:3803   */\n      swap1\n      pop\n        /* \"#utility.yul\":3495:3809   */\n      swap4\n      swap3\n      pop\n      pop\n      pop\n      jump\t// out\n        /* \"#utility.yul\":3815:4361   */\n    tag_10:\n        /* \"#utility.yul\":3992:3996   */\n      0x00\n        /* \"#utility.yul\":4030:4032   */\n      0x40\n        /* \"#utility.yul\":4019:4028   */\n      dup3\n        /* \"#utility.yul\":4015:4033   */\n      add\n        /* \"#utility.yul\":4007:4033   */\n      swap1\n      pop\n        /* \"#utility.yul\":4079:4088   */\n      dup2\n        /* \"#utility.yul\":4073:4077   */\n      dup2\n        /* \"#utility.yul\":4069:4089   */\n      sub\n        /* \"#utility.yul\":4065:4066   */\n      0x00\n        /* \"#utility.yul\":4054:4063   */\n      dup4\n        /* \"#utility.yul\":4050:4067   */\n      add\n        /* \"#utility.yul\":4043:4090   */\n      mstore\n        /* \"#utility.yul\":4107:4193   */\n      tag_72\n        /* \"#utility.yul\":4188:4192   */\n      dup2\n        /* \"#utility.yul\":4179:4185   */\n      dup7\n        /* \"#utility.yul\":4171:4177   */\n      dup9\n        /* \"#utility.yul\":4107:4193   */\n      tag_29\n      jump\t// in\n    tag_72:\n        /* \"#utility.yul\":4099:4193   */\n      swap1\n      pop\n        /* \"#utility.yul\":4240:4249   */\n      dup2\n        /* \"#utility.yul\":4234:4238   */\n      dup2\n        /* \"#utility.yul\":4230:4250   */\n      sub\n        /* \"#utility.yul\":4225:4227   */\n      0x20\n        /* \"#utility.yul\":4214:4223   */\n      dup4\n        /* \"#utility.yul\":4210:4228   */\n      add\n        /* \"#utility.yul\":4203:4251   */\n      mstore\n        /* \"#utility.yul\":4268:4354   */\n      tag_73\n        /* \"#utility.yul\":4349:4353   */\n      dup2\n        /* \"#utility.yul\":4340:4346   */\n      dup5\n        /* \"#utility.yul\":4332:4338   */\n      dup7\n        /* \"#utility.yul\":4268:4354   */\n      tag_29\n      jump\t// in\n    tag_73:\n        /* \"#utility.yul\":4260:4354   */\n      swap1\n      pop\n        /* \"#utility.yul\":3815:4361   */\n      swap6\n      swap5\n      pop\n      pop\n      pop\n      pop\n      pop\n      jump\t// out\n\n    auxdata: 0xa26469706673582212202472bbb1a7e94d5d097065cd4f9a889026b8a12469414fdfe731ae2602a85c0264736f6c634300081a0033\n}\n",
				"bytecode": {
					"linkReferences": {},
					"object": "6080604052348015600e575f80fd5b506102ea8061001c5f395ff3fe608060405234801561000f575f80fd5b5060043610610029575f3560e01c8063cc80bfaf1461002d575b5f80fd5b61004760048036038101906100429190610190565b610049565b005b8473ffffffffffffffffffffffffffffffffffffffff16633f47158d858585856040518563ffffffff1660e01b8152600401610088949392919061027b565b5f604051808303815f87803b15801561009f575f80fd5b505af11580156100b1573d5f803e3d5ffd5b505050505050505050565b5f80fd5b5f80fd5b5f73ffffffffffffffffffffffffffffffffffffffff82169050919050565b5f6100ed826100c4565b9050919050565b5f6100fe826100e3565b9050919050565b61010e816100f4565b8114610118575f80fd5b50565b5f8135905061012981610105565b92915050565b5f80fd5b5f80fd5b5f80fd5b5f8083601f8401126101505761014f61012f565b5b8235905067ffffffffffffffff81111561016d5761016c610133565b5b60208301915083600182028301111561018957610188610137565b5b9250929050565b5f805f805f606086880312156101a9576101a86100bc565b5b5f6101b68882890161011b565b955050602086013567ffffffffffffffff8111156101d7576101d66100c0565b5b6101e38882890161013b565b9450945050604086013567ffffffffffffffff811115610206576102056100c0565b5b6102128882890161013b565b92509250509295509295909350565b5f82825260208201905092915050565b828183375f83830152505050565b5f601f19601f8301169050919050565b5f61025a8385610221565b9350610267838584610231565b6102708361023f565b840190509392505050565b5f6040820190508181035f83015261029481868861024f565b905081810360208301526102a981848661024f565b90509594505050505056fea26469706673582212202472bbb1a7e94d5d097065cd4f9a889026b8a12469414fdfe731ae2602a85c0264736f6c634300081a0033",
					"opcodes": "PUSH1 0x80 PUSH1 0x40 MSTORE CALLVALUE DUP1 ISZERO PUSH1 0xE JUMPI PUSH0 DUP1 REVERT JUMPDEST POP PUSH2 0x2EA DUP1 PUSH2 0x1C PUSH0 CODECOPY PUSH0 RETURN INVALID PUSH1 0x80 PUSH1 0x40 MSTORE CALLVALUE DUP1 ISZERO PUSH2 0xF JUMPI PUSH0 DUP1 REVERT JUMPDEST POP PUSH1 0x4 CALLDATASIZE LT PUSH2 0x29 JUMPI PUSH0 CALLDATALOAD PUSH1 0xE0 SHR DUP1 PUSH4 0xCC80BFAF EQ PUSH2 0x2D JUMPI JUMPDEST PUSH0 DUP1 REVERT JUMPDEST PUSH2 0x47 PUSH1 0x4 DUP1 CALLDATASIZE SUB DUP2 ADD SWAP1 PUSH2 0x42 SWAP2 SWAP1 PUSH2 0x190 JUMP JUMPDEST PUSH2 0x49 JUMP JUMPDEST STOP JUMPDEST DUP5 PUSH20 0xFFFFFFFFFFFFFFFFFFFFFFFFFFFFFFFFFFFFFFFF AND PUSH4 0x3F47158D DUP6 DUP6 DUP6 DUP6 PUSH1 0x40 MLOAD DUP6 PUSH4 0xFFFFFFFF AND PUSH1 0xE0 SHL DUP2 MSTORE PUSH1 0x4 ADD PUSH2 0x88 SWAP5 SWAP4 SWAP3 SWAP2 SWAP1 PUSH2 0x27B JUMP JUMPDEST PUSH0 PUSH1 0x40 MLOAD DUP1 DUP4 SUB DUP2 PUSH0 DUP8 DUP1 EXTCODESIZE ISZERO DUP1 ISZERO PUSH2 0x9F JUMPI PUSH0 DUP1 REVERT JUMPDEST POP GAS CALL ISZERO DUP1 ISZERO PUSH2 0xB1 JUMPI RETURNDATASIZE PUSH0 DUP1 RETURNDATACOPY RETURNDATASIZE PUSH0 REVERT JUMPDEST POP POP POP POP POP POP POP POP POP JUMP JUMPDEST PUSH0 DUP1 REVERT JUMPDEST PUSH0 DUP1 REVERT JUMPDEST PUSH0 PUSH20 0xFFFFFFFFFFFFFFFFFFFFFFFFFFFFFFFFFFFFFFFF DUP3 AND SWAP1 POP SWAP2 SWAP1 POP JUMP JUMPDEST PUSH0 PUSH2 0xED DUP3 PUSH2 0xC4 JUMP JUMPDEST SWAP1 POP SWAP2 SWAP1 POP JUMP JUMPDEST PUSH0 PUSH2 0xFE DUP3 PUSH2 0xE3 JUMP JUMPDEST SWAP1 POP SWAP2 SWAP1 POP JUMP JUMPDEST PUSH2 0x10E DUP2 PUSH2 0xF4 JUMP JUMPDEST DUP2 EQ PUSH2 0x118 JUMPI PUSH0 DUP1 REVERT JUMPDEST POP JUMP JUMPDEST PUSH0 DUP2 CALLDATALOAD SWAP1 POP PUSH2 0x129 DUP2 PUSH2 0x105 JUMP JUMPDEST SWAP3 SWAP2 POP POP JUMP JUMPDEST PUSH0 DUP1 REVERT JUMPDEST PUSH0 DUP1 REVERT JUMPDEST PUSH0 DUP1 REVERT JUMPDEST PUSH0 DUP1 DUP4 PUSH1 0x1F DUP5 ADD SLT PUSH2 0x150 JUMPI PUSH2 0x14F PUSH2 0x12F JUMP JUMPDEST JUMPDEST DUP3 CALLDATALOAD SWAP1 POP PUSH8 0xFFFFFFFFFFFFFFFF DUP2 GT ISZERO PUSH2 0x16D JUMPI PUSH2 0x16C PUSH2 0x133 JUMP JUMPDEST JUMPDEST PUSH1 0x20 DUP4 ADD SWAP2 POP DUP4 PUSH1 0x1 DUP3 MUL DUP4 ADD GT ISZERO PUSH2 0x189 JUMPI PUSH2 0x188 PUSH2 0x137 JUMP JUMPDEST JUMPDEST SWAP3 POP SWAP3 SWAP1 POP JUMP JUMPDEST PUSH0 DUP1 PUSH0 DUP1 PUSH0 PUSH1 0x60 DUP7 DUP9 SUB SLT ISZERO PUSH2 0x1A9 JUMPI PUSH2 0x1A8 PUSH2 0xBC JUMP JUMPDEST JUMPDEST PUSH0 PUSH2 0x1B6 DUP9 DUP3 DUP10 ADD PUSH2 0x11B JUMP JUMPDEST SWAP6 POP POP PUSH1 0x20 DUP7 ADD CALLDATALOAD PUSH8 0xFFFFFFFFFFFFFFFF DUP2 GT ISZERO PUSH2 0x1D7 JUMPI PUSH2 0x1D6 PUSH2 0xC0 JUMP JUMPDEST JUMPDEST PUSH2 0x1E3 DUP9 DUP3 DUP10 ADD PUSH2 0x13B JUMP JUMPDEST SWAP5 POP SWAP5 POP POP PUSH1 0x40 DUP7 ADD CALLDATALOAD PUSH8 0xFFFFFFFFFFFFFFFF DUP2 GT ISZERO PUSH2 0x206 JUMPI PUSH2 0x205 PUSH2 0xC0 JUMP JUMPDEST JUMPDEST PUSH2 0x212 DUP9 DUP3 DUP10 ADD PUSH2 0x13B JUMP JUMPDEST SWAP3 POP SWAP3 POP POP SWAP3 SWAP6 POP SWAP3 SWAP6 SWAP1 SWAP4 POP JUMP JUMPDEST PUSH0 DUP3 DUP3 MSTORE PUSH1 0x20 DUP3 ADD SWAP1 POP SWAP3 SWAP2 POP POP JUMP JUMPDEST DUP3 DUP2 DUP4 CALLDATACOPY PUSH0 DUP4 DUP4 ADD MSTORE POP POP POP JUMP JUMPDEST PUSH0 PUSH1 0x1F NOT PUSH1 0x1F DUP4 ADD AND SWAP1 POP SWAP2 SWAP1 POP JUMP JUMPDEST PUSH0 PUSH2 0x25A DUP4 DUP6 PUSH2 0x221 JUMP JUMPDEST SWAP4 POP PUSH2 0x267 DUP4 DUP6 DUP5 PUSH2 0x231 JUMP JUMPDEST PUSH2 0x270 DUP4 PUSH2 0x23F JUMP JUMPDEST DUP5 ADD SWAP1 POP SWAP4 SWAP3 POP POP POP JUMP JUMPDEST PUSH0 PUSH1 0x40 DUP3 ADD SWAP1 POP DUP2 DUP2 SUB PUSH0 DUP4 ADD MSTORE PUSH2 0x294 DUP2 DUP7 DUP9 PUSH2 0x24F JUMP JUMPDEST SWAP1 POP DUP2 DUP2 SUB PUSH1 0x20 DUP4 ADD MSTORE PUSH2 0x2A9 DUP2 DUP5 DUP7 PUSH2 0x24F JUMP JUMPDEST SWAP1 POP SWAP6 SWAP5 POP POP POP POP POP JUMP INVALID LOG2 PUSH5 0x6970667358 0x22 SLT KECCAK256 0x24 PUSH19 0xBBB1A7E94D5D097065CD4F9A889026B8A12469 COINBASE 0x4F 0xDF 0xE7 BALANCE 0xAE 0x26 MUL 0xA8 TLOAD MUL PUSH5 0x736F6C6343 STOP ADDMOD BYTE STOP CALLER "
				},
				"gasEstimates": {
					"creation": {
						"codeDepositCost": "149200",
						"executionCost": "194",
						"totalCost": "149394"
					},
					"external": {
						"replay(address,bytes,bytes)": "infinite"
					}
				},
				"methodIdentifiers": {
					"replay(address,bytes,bytes)": "cc80bfaf"
				}
			},
			"storageLayout": {
				"storage": [],
				"types": null
			},
			"userdoc": {
				"kind": "user",
				"methods": {},
				"version": 1
			}
		}
	}
}