{
	"data": {
		"bytecode": {
			"linkReferences": {},
			"object": "60c060405234801561000f575f80fd5b50604051610eec380380610eec8339818101604052810190610031919061013d565b8073ffffffffffffffffffffffffffffffffffffffff1660808173ffffffffffffffffffffffffffffffffffffffff16815250507f8cad95687ba82c2ce50e74f7b754645e5117c3a5bec8151c0726d5857980a8667f4ea587805a5f5d20a8854323bf711b6e32415fef2b0284e6d559f4b45d99cfde46306040516020016100bc94939291906101a7565b6040516020818303038152906040528051906020012060a08181525050506101ea565b5f80fd5b5f73ffffffffffffffffffffffffffffffffffffffff82169050919050565b5f61010c826100e3565b9050919050565b61011c81610102565b8114610126575f80fd5b50565b5f8151905061013781610113565b92915050565b5f60208284031215610152576101516100df565b5b5f61015f84828501610129565b91505092915050565b5f819050919050565b61017a81610168565b82525050565b5f819050919050565b61019281610180565b82525050565b6101a181610102565b82525050565b5f6080820190506101ba5f830187610171565b6101c76020830186610171565b6101d46040830185610189565b6101e16060830184610198565b95945050505050565b60805160a051610cd36102195f395f818161020901526103d001525f818161025401526104450152610cd35ff3fe608060405234801561000f575f80fd5b5060043610610055575f3560e01c806328546b101461005957806352a9674b14610075578063654ad8a7146100935780639723fb6d146100c35780639d82bdfa146100f3575b5f80fd5b610073600480360381019061006e919061068a565b610111565b005b61007d6103ce565b60405161008a9190610745565b60405180910390f35b6100ad60048036038101906100a89190610896565b6103f2565b6040516100ba91906108f7565b60405180910390f35b6100dd60048036038101906100d89190610910565b610427565b6040516100ea91906108f7565b60405180910390f35b6100fb610443565b604051610108919061097a565b60405180910390f35b8242111561014b576040517f319bfadc00000000000000000000000000000000000000000000000000000000815260040160405180910390fd5b5f808581526020019081526020015f205f9054906101000a900460ff161561019f576040517f1909350800000000000000000000000000000000000000000000000000000000815260040160405180910390fd5b5f7f996c2133aefaf08f945b457eb91f758dbabcea4f676752ae267c7f501902266287876040516101d19291906109c1565b604051809103902086866040516020016101ee94939291906109e8565b6040516020818303038152906040528051906020012090505f7f00000000000000000000000000000000000000000000000000000000000000008260405160200161023a929190610a9f565b6040516020818303038152906040528051906020012090507f000000000000000000000000000000000000000000000000000000000000000073ffffffffffffffffffffffffffffffffffffffff166102df85858080601f0160208091040260200160405190810160405280939291908181526020018383808284375f81840152601f19601f820116905080830192505050505050508361046790919063ffffffff16565b73ffffffffffffffffffffffffffffffffffffffff161461032c576040517f46316a5d00000000000000000000000000000000000000000000000000000000815260040160405180910390fd5b60015f808881526020019081526020015f205f6101000a81548160ff0219169083151502179055506001808989604051610367929190610af9565b90815260200160405180910390205f6101000a81548160ff0219169083151502179055507ffcb97f30ee54d9eac735da9366fdedc9e603df29fea93dfc6ec3951954988ca588886040516103bc929190610b4d565b60405180910390a15050505050505050565b7f000000000000000000000000000000000000000000000000000000000000000081565b6001818051602081018201805184825260208301602085012081835280955050505050505f915054906101000a900460ff1681565b5f602052805f5260405f205f915054906101000a900460ff1681565b7f000000000000000000000000000000000000000000000000000000000000000081565b5f60418251146104ac576040517f08c379a00000000000000000000000000000000000000000000000000000000081526004016104a390610bb9565b60405180910390fd5b5f805f602085015192506040850151915060608501515f1a90505f6001878386866040515f81526020016040526040516104e99493929190610bf2565b6020604051602081039080840390855afa158015610509573d5f803e3d5ffd5b5050506020604051035190505f73ffffffffffffffffffffffffffffffffffffffff168173ffffffffffffffffffffffffffffffffffffffff1603610583576040517f08c379a000000000000000000000000000000000000000000000000000000000815260040161057a90610c7f565b60405180910390fd5b8094505050505092915050565b5f604051905090565b5f80fd5b5f80fd5b5f80fd5b5f80fd5b5f80fd5b5f8083601f8401126105c2576105c16105a1565b5b8235905067ffffffffffffffff8111156105df576105de6105a5565b5b6020830191508360018202830111156105fb576105fa6105a9565b5b9250929050565b5f819050919050565b61061481610602565b811461061e575f80fd5b50565b5f8135905061062f8161060b565b92915050565b5f8083601f84011261064a576106496105a1565b5b8235905067ffffffffffffffff811115610667576106666105a5565b5b602083019150836001820283011115610683576106826105a9565b5b9250929050565b5f805f805f80608087890312156106a4576106a3610599565b5b5f87013567ffffffffffffffff8111156106c1576106c061059d565b5b6106cd89828a016105ad565b965096505060206106e089828a01610621565b94505060406106f189828a01610621565b935050606087013567ffffffffffffffff8111156107125761071161059d565b5b61071e89828a01610635565b92509250509295509295509295565b5f819050919050565b61073f8161072d565b82525050565b5f6020820190506107585f830184610736565b92915050565b5f80fd5b5f601f19601f8301169050919050565b7f4e487b71000000000000000000000000000000000000000000000000000000005f52604160045260245ffd5b6107a882610762565b810181811067ffffffffffffffff821117156107c7576107c6610772565b5b80604052505050565b5f6107d9610590565b90506107e5828261079f565b919050565b5f67ffffffffffffffff82111561080457610803610772565b5b61080d82610762565b9050602081019050919050565b828183375f83830152505050565b5f61083a610835846107ea565b6107d0565b9050828152602081018484840111156108565761085561075e565b5b61086184828561081a565b509392505050565b5f82601f83011261087d5761087c6105a1565b5b813561088d848260208601610828565b91505092915050565b5f602082840312156108ab576108aa610599565b5b5f82013567ffffffffffffffff8111156108c8576108c761059d565b5b6108d484828501610869565b91505092915050565b5f8115159050919050565b6108f1816108dd565b82525050565b5f60208201905061090a5f8301846108e8565b92915050565b5f6020828403121561092557610924610599565b5b5f61093284828501610621565b91505092915050565b5f73ffffffffffffffffffffffffffffffffffffffff82169050919050565b5f6109648261093b565b9050919050565b6109748161095a565b82525050565b5f60208201905061098d5f83018461096b565b92915050565b5f81905092915050565b5f6109a88385610993565b93506109b583858461081a565b82840190509392505050565b5f6109cd82848661099d565b91508190509392505050565b6109e281610602565b82525050565b5f6080820190506109fb5f830187610736565b610a086020830186610736565b610a1560408301856109d9565b610a2260608301846109d9565b95945050505050565b5f81905092915050565b7f19010000000000000000000000000000000000000000000000000000000000005f82015250565b5f610a69600283610a2b565b9150610a7482610a35565b600282019050919050565b5f819050919050565b610a99610a948261072d565b610a7f565b82525050565b5f610aa982610a5d565b9150610ab58285610a88565b602082019150610ac58284610a88565b6020820191508190509392505050565b5f610ae08385610a2b565b9350610aed83858461081a565b82840190509392505050565b5f610b05828486610ad5565b91508190509392505050565b5f82825260208201905092915050565b5f610b2c8385610b11565b9350610b3983858461081a565b610b4283610762565b840190509392505050565b5f6020820190508181035f830152610b66818486610b21565b90509392505050565b7f45434453413a20626164206c656e6774680000000000000000000000000000005f82015250565b5f610ba3601183610b11565b9150610bae82610b6f565b602082019050919050565b5f6020820190508181035f830152610bd081610b97565b9050919050565b5f60ff82169050919050565b610bec81610bd7565b82525050565b5f608082019050610c055f830187610736565b610c126020830186610be3565b610c1f6040830185610736565b610c2c6060830184610736565b95945050505050565b7f45434453413a20696e76616c69640000000000000000000000000000000000005f82015250565b5f610c69600e83610b11565b9150610c7482610c35565b602082019050919050565b5f6020820190508181035f830152610c9681610c5d565b905091905056fea264697066735822122076f18947f6156eb7d11cbb905339e6b16b0b55c4a2812279d029631ec3e5604064736f6c634300081a0033",
			"opcodes": "PUSH1 0xC0 PUSH1 0x40 MSTORE CALLVALUE DUP1 ISZERO PUSH2 0xF JUMPI PUSH0 DUP1 REVERT JUMPDEST POP PUSH1 0x40 MLOAD PUSH2 0xEEC CODESIZE SUB DUP1 PUSH2 0xEEC DUP4 CODECOPY DUP2 DUP2 ADD PUSH1 0x40 MSTORE DUP2 ADD SWAP1 PUSH2 0x31 SWAP2 SWAP1 PUSH2 0x13D JUMP JUMPDEST DUP1 PUSH20 0xFFFFFFFFFFFFFFFFFFFFFFFFFFFFFFFFFFFFFFFF AND PUSH1 0x80 DUP2 PUSH20 0xFFFFFFFFFFFFFFFFFFFFFFFFFFFFFFFFFFFFFFFF AND DUP2 MSTORE POP POP PUSH32 0x8CAD95687BA82C2CE50E74F7B754645E5117C3A5BEC8151C0726D5857980A866 PUSH32 0x4EA587805A5F5D20A8854323BF711B6E32415FEF2B0284E6D559F4B45D99CFDE CHAINID ADDRESS PUSH1 0x40 MLOAD PUSH1 0x20 ADD PUSH2 0xBC SWAP5 SWAP4 SWAP3 SWAP2 SWAP1 PUSH2 0x1A7 JUMP JUMPDEST PUSH1 0x40 MLOAD PUSH1 0x20 DUP2 DUP4 SUB SUB DUP2 MSTORE SWAP1 PUSH1 0x40 MSTORE DUP1 MLOAD SWAP1 PUSH1 0x20 ADD KECCAK256 PUSH1 0xA0 DUP2 DUP2 MSTORE POP POP POP PUSH2 0x1EA JUMP JUMPDEST PUSH0 DUP1 REVERT JUMPDEST PUSH0 PUSH20 0xFFFFFFFFFFFFFFFFFFFFFFFFFFFFFFFFFFFFFFFF DUP3 AND SWAP1 POP SWAP2 SWAP1 POP JUMP JUMPDEST PUSH0 PUSH2 0x10C DUP3 PUSH2 0xE3 JUMP JUMPDEST SWAP1 POP SWAP2 SWAP1 POP JUMP JUMPDEST PUSH2 0x11C DUP2 PUSH2 0x102 JUMP JUMPDEST DUP2 EQ PUSH2 0x126 JUMPI PUSH0 DUP1 REVERT JUMPDEST POP JUMP JUMPDEST PUSH0 DUP2 MLOAD SWAP1 POP PUSH2 0x137 DUP2 PUSH2 0x113 JUMP JUMPDEST SWAP3 SWAP2 POP POP JUMP JUMPDEST PUSH0 PUSH1 0x20 DUP3 DUP5 SUB SLT ISZERO PUSH2 0x152 JUMPI PUSH2 0x151 PUSH2 0xDF JUMP JUMPDEST JUMPDEST PUSH0 PUSH2 0x15F DUP5 DUP3 DUP6 ADD PUSH2 0x129 JUMP JUMPDEST SWAP2 POP POP SWAP3 SWAP2 POP POP JUMP JUMPDEST PUSH0 DUP2 SWAP1 POP SWAP2 SWAP1 POP JUMP JUMPDEST PUSH2 0x17A DUP2 PUSH2 0x168 JUMP JUMPDEST DUP3 MSTORE POP POP JUMP JUMPDEST PUSH0 DUP2 SWAP1 POP SWAP2 SWAP1 POP JUMP JUMPDEST PUSH2 0x192 DUP2 PUSH2 0x180 JUMP JUMPDEST DUP3 MSTORE POP POP JUMP JUMPDEST PUSH2 0x1A1 DUP2 PUSH2 0x102 JUMP JUMPDEST DUP3 MSTORE POP POP JUMP JUMPDEST PUSH0 PUSH1 0x80 DUP3 ADD SWAP1 POP PUSH2 0x1BA PUSH0 DUP4 ADD DUP8 PUSH2 0x171 JUMP JUMPDEST PUSH2 0x1C7 PUSH1 0x20 DUP4 ADD DUP7 PUSH2 0x171 JUMP JUMPDEST PUSH2 0x1D4 PUSH1 0x40 DUP4 ADD DUP6 PUSH2 0x189 JUMP JUMPDEST PUSH2 0x1E1 PUSH1 0x60 DUP4 ADD DUP5 PUSH2 0x198 JUMP JUMPDEST SWAP6 SWAP5 POP POP POP POP POP JUMP JUMPDEST PUSH1 0x80 MLOAD PUSH1 0xA0 MLOAD PUSH2 0xCD3 PUSH2 0x219 PUSH0 CODECOPY PUSH0 DUP2 DUP2 PUSH2 0x209 ADD MSTORE PUSH2 0x3D0 ADD MSTORE PUSH0 DUP2 DUP2 PUSH2 0x254 ADD MSTORE PUSH2 0x445 ADD MSTORE PUSH2 0xCD3 PUSH0 RETURN INVALID PUSH1 0x80 PUSH1 0x40 MSTORE CALLVALUE DUP1 ISZERO PUSH2 0xF JUMPI PUSH0 DUP1 REVERT JUMPDEST POP PUSH1 0x4 CALLDATASIZE LT PUSH2 0x55 JUMPI PUSH0 CALLDATALOAD PUSH1 0xE0 SHR DUP1 PUSH4 0x28546B10 EQ PUSH2 0x59 JUMPI DUP1 PUSH4 0x52A9674B EQ PUSH2 0x75 JUMPI DUP1 PUSH4 0x654AD8A7 EQ PUSH2 0x93 JUMPI DUP1 PUSH4 0x9723FB6D EQ PUSH2 0xC3 JUMPI DUP1 PUSH4 0x9D82BDFA EQ PUSH2 0xF3 JUMPI JUMPDEST PUSH0 DUP1 REVERT JUMPDEST PUSH2 0x73 PUSH1 0x4 DUP1 CALLDATASIZE SUB DUP2 ADD SWAP1 PUSH2 0x6E SWAP2 SWAP1 PUSH2 0x68A JUMP JUMPDEST PUSH2 0x111 JUMP JUMPDEST STOP JUMPDEST PUSH2 0x7D PUSH2 0x3CE JUMP JUMPDEST PUSH1 0x40 MLOAD PUSH2 0x8A SWAP2 SWAP1 PUSH2 0x745 JUMP JUMPDEST PUSH1 0x40 MLOAD DUP1 SWAP2 SUB SWAP1 RETURN JUMPDEST PUSH2 0xAD PUSH1 0x4 DUP1 CALLDATASIZE SUB DUP2 ADD SWAP1 PUSH2 0xA8 SWAP2 SWAP1 PUSH2 0x896 JUMP JUMPDEST PUSH2 0x3F2 JUMP JUMPDEST PUSH1 0x40 MLOAD PUSH2 0xBA SWAP2 SWAP1 PUSH2 0x8F7 JUMP JUMPDEST PUSH1 0x40 MLOAD DUP1 SWAP2 SUB SWAP1 RETURN JUMPDEST PUSH2 0xDD PUSH1 0x4 DUP1 CALLDATASIZE SUB DUP2 ADD SWAP1 PUSH2 0xD8 SWAP2 SWAP1 PUSH2 0x910 JUMP JUMPDEST PUSH2 0x427 JUMP JUMPDEST PUSH1 0x40 MLOAD PUSH2 0xEA SWAP2 SWAP1 PUSH2 0x8F7 JUMP JUMPDEST PUSH1 0x40 MLOAD DUP1 SWAP2 SUB SWAP1 RETURN JUMPDEST PUSH2 0xFB PUSH2 0x443 JUMP JUMPDEST PUSH1 0x40 MLOAD PUSH2 0x108 SWAP2 SWAP1 PUSH2 0x97A JUMP JUMPDEST PUSH1 0x40 MLOAD DUP1 SWAP2 SUB SWAP1 RETURN JUMPDEST DUP3 TIMESTAMP GT ISZERO PUSH2 0x14B JUMPI PUSH1 0x40 MLOAD PUSH32 0x319BFADC00000000000000000000000000000000000000000000000000000000 DUP2 MSTORE PUSH1 0x4 ADD PUSH1 0x40 MLOAD DUP1 SWAP2 SUB SWAP1 REVERT JUMPDEST PUSH0 DUP1 DUP6 DUP2 MSTORE PUSH1 0x20 ADD SWAP1 DUP2 MSTORE PUSH1 0x20 ADD PUSH0 KECCAK256 PUSH0 SWAP1 SLOAD SWAP1 PUSH2 0x100 EXP SWAP1 DIV PUSH1 0xFF AND ISZERO PUSH2 0x19F JUMPI PUSH1 0x40 MLOAD PUSH32 0x1909350800000000000000000000000000000000000000000000000000000000 DUP2 MSTORE PUSH1 0x4 ADD PUSH1 0x40 MLOAD DUP1 SWAP2 SUB SWAP1 REVERT JUMPDEST PUSH0 PUSH32 0x996C2133AEFAF08F945B457EB91F758DBABCEA4F676752AE267C7F5019022662 DUP8 DUP8 PUSH1 0x40 MLOAD PUSH2 0x1D1 SWAP3 SWAP2 SWAP1 PUSH2 0x9C1 JUMP JUMPDEST PUSH1 0x40 MLOAD DUP1 SWAP2 SUB SWAP1 KECCAK256 DUP7 DUP7 PUSH1 0x40 MLOAD PUSH1 0x20 ADD PUSH2 0x1EE SWAP5 SWAP4 SWAP3 SWAP2 SWAP1 PUSH2 0x9E8 JUMP JUMPDEST PUSH1 0x40 MLOAD PUSH1 0x20 DUP2 DUP4 SUB SUB DUP2 MSTORE SWAP1 PUSH1 0x40 MSTORE DUP1 MLOAD SWAP1 PUSH1 0x20 ADD KECCAK256 SWAP1 POP PUSH0 PUSH32 0x0 DUP3 PUSH1 0x40 MLOAD PUSH1 0x20 ADD PUSH2 0x23A SWAP3 SWAP2 SWAP1 PUSH2 0xA9F JUMP JUMPDEST PUSH1 0x40 MLOAD PUSH1 0x20 DUP2 DUP4 SUB SUB DUP2 MSTORE SWAP1 PUSH1 0x40 MSTORE DUP1 MLOAD SWAP1 PUSH1 0x20 ADD KECCAK256 SWAP1 POP PUSH32 0x0 PUSH20 0xFFFFFFFFFFFFFFFFFFFFFFFFFFFFFFFFFFFFFFFF AND PUSH2 0x2DF DUP6 DUP6 DUP1 DUP1 PUSH1 0x1F ADD PUSH1 0x20 DUP1 SWAP2 DIV MUL PUSH1 0x20 ADD PUSH1 0x40 MLOAD SWAP1 DUP2 ADD PUSH1 0x40 MSTORE DUP1 SWAP4 SWAP3 SWAP2 SWAP1 DUP2 DUP2 MSTORE PUSH1 0x20 ADD DUP4 DUP4 DUP1 DUP3 DUP5 CALLDATACOPY PUSH0 DUP2 DUP5 ADD MSTORE PUSH1 0x1F NOT PUSH1 0x1F DUP3 ADD AND SWAP1 POP DUP1 DUP4 ADD SWAP3 POP POP POP POP POP POP POP DUP4 PUSH2 0x467 SWAP1 SWAP2 SWAP1 PUSH4 0xFFFFFFFF AND JUMP JUMPDEST PUSH20 0xFFFFFFFFFFFFFFFFFFFFFFFFFFFFFFFFFFFFFFFF AND EQ PUSH2 0x32C JUMPI PUSH1 0x40 MLOAD PUSH32 0x46316A5D00000000000000000000000000000000000000000000000000000000 DUP2 MSTORE PUSH1 0x4 ADD PUSH1 0x40 MLOAD DUP1 SWAP2 SUB SWAP1 REVERT JUMPDEST PUSH1 0x1 PUSH0 DUP1 DUP9 DUP2 MSTORE PUSH1 0x20 ADD SWAP1 DUP2 MSTORE PUSH1 0x20 ADD PUSH0 KECCAK256 PUSH0 PUSH2 0x100 EXP DUP2 SLOAD DUP2 PUSH1 0xFF MUL NOT AND SWAP1 DUP4 ISZERO ISZERO MUL OR SWAP1 SSTORE POP PUSH1 0x1 DUP1 DUP10 DUP10 PUSH1 0x40 MLOAD PUSH2 0x367 SWAP3 SWAP2 SWAP1 PUSH2 0xAF9 JUMP JUMPDEST SWAP1 DUP2 MSTORE PUSH1 0x20 ADD PUSH1 0x40 MLOAD DUP1 SWAP2 SUB SWAP1 KECCAK256 PUSH0 PUSH2 0x100 EXP DUP2 SLOAD DUP2 PUSH1 0xFF MUL NOT AND SWAP1 DUP4 ISZERO ISZERO MUL OR SWAP1 SSTORE POP PUSH32 0xFCB97F30EE54D9EAC735DA9366FDEDC9E603DF29FEA93DFC6EC3951954988CA5 DUP9 DUP9 PUSH1 0x40 MLOAD PUSH2 0x3BC SWAP3 SWAP2 SWAP1 PUSH2 0xB4D JUMP JUMPDEST PUSH1 0x40 MLOAD DUP1 SWAP2 SUB SWAP1 LOG1 POP POP POP POP POP POP POP POP JUMP JUMPDEST PUSH32 0x0 DUP2 JUMP JUMPDEST PUSH1 0x1 DUP2 DUP1 MLOAD PUSH1 0x20 DUP2 ADD DUP3 ADD DUP1 MLOAD DUP5 DUP3 MSTORE PUSH1 0x20 DUP4 ADD PUSH1 0x20 DUP6 ADD KECCAK256 DUP2 DUP4 MSTORE DUP1 SWAP6 POP POP POP POP POP POP PUSH0 SWAP2 POP SLOAD SWAP1 PUSH2 0x100 EXP SWAP1 DIV PUSH1 0xFF AND DUP2 JUMP JUMPDEST PUSH0 PUSH1 0x20 MSTORE DUP1 PUSH0 MSTORE PUSH1 0x40 PUSH0 KECCAK256 PUSH0 SWAP2 POP SLOAD SWAP1 PUSH2 0x100 EXP SWAP1 DIV PUSH1 0xFF AND DUP2 JUMP JUMPDEST PUSH32 0x0 DUP2 JUMP JUMPDEST PUSH0 PUSH1 0x41 DUP3 MLOAD EQ PUSH2 0x4AC JUMPI PUSH1 0x40 MLOAD PUSH32 0x8C379A000000000000000000000000000000000000000000000000000000000 DUP2 MSTORE PUSH1 0x4 ADD PUSH2 0x4A3 SWAP1 PUSH2 0xBB9 JUMP JUMPDEST PUSH1 0x40 MLOAD DUP1 SWAP2 SUB SWAP1 REVERT JUMPDEST PUSH0 DUP1 PUSH0 PUSH1 0x20 DUP6 ADD MLOAD SWAP3 POP PUSH1 0x40 DUP6 ADD MLOAD SWAP2 POP PUSH1 0x60 DUP6 ADD MLOAD PUSH0 BYTE SWAP1 POP PUSH0 PUSH1 0x1 DUP8 DUP4 DUP7 DUP7 PUSH1 0x40 MLOAD PUSH0 DUP2 MSTORE PUSH1 0x20 ADD PUSH1 0x40 MSTORE PUSH1 0x40 MLOAD PUSH2 0x4E9 SWAP5 SWAP4 SWAP3 SWAP2 SWAP1 PUSH2 0xBF2 JUMP JUMPDEST PUSH1 0x20 PUSH1 0x40 MLOAD PUSH1 0x20 DUP2 SUB SWAP1 DUP1 DUP5 SUB SWAP1 DUP6 GAS STATICCALL ISZERO DUP1 ISZERO PUSH2 0x509 JUMPI RETURNDATASIZE PUSH0 DUP1 RETURNDATACOPY RETURNDATASIZE PUSH0 REVERT JUMPDEST POP POP POP PUSH1 0x20 PUSH1 0x40 MLOAD SUB MLOAD SWAP1 POP PUSH0 PUSH20 0xFFFFFFFFFFFFFFFFFFFFFFFFFFFFFFFFFFFFFFFF AND DUP2 PUSH20 0xFFFFFFFFFFFFFFFFFFFFFFFFFFFFFFFFFFFFFFFF AND SUB PUSH2 0x583 JUMPI PUSH1 0x40 MLOAD PUSH32 0x8C379A000000000000000000000000000000000000000000000000000000000 DUP2 MSTORE PUSH1 0x4 ADD PUSH2 0x57A SWAP1 PUSH2 0xC7F JUMP JUMPDEST PUSH1 0x40 MLOAD DUP1 SWAP2 SUB SWAP1 REVERT JUMPDEST DUP1 SWAP5 POP POP POP POP POP SWAP3 SWAP2 POP POP JUMP JUMPDEST PUSH0 PUSH1 0x40 MLOAD SWAP1 POP SWAP1 JUMP JUMPDEST PUSH0 DUP1 REVERT JUMPDEST PUSH0 DUP1 REVERT JUMPDEST PUSH0 DUP1 REVERT JUMPDEST PUSH0 DUP1 REVERT JUMPDEST PUSH0 DUP1 REVERT JUMPDEST PUSH0 DUP1 DUP4 PUSH1 0x1F DUP5 ADD SLT PUSH2 0x5C2 JUMPI PUSH2 0x5C1 PUSH2 0x5A1 JUMP JUMPDEST JUMPDEST DUP3 CALLDATALOAD SWAP1 POP PUSH8 0xFFFFFFFFFFFFFFFF DUP2 GT ISZERO PUSH2 0x5DF JUMPI PUSH2 0x5DE PUSH2 0x5A5 JUMP JUMPDEST JUMPDEST PUSH1 0x20 DUP4 ADD SWAP2 POP DUP4 PUSH1 0x1 DUP3 MUL DUP4 ADD GT ISZERO PUSH2 0x5FB JUMPI PUSH2 0x5FA PUSH2 0x5A9 JUMP JUMPDEST JUMPDEST SWAP3 POP SWAP3 SWAP1 POP JUMP JUMPDEST PUSH0 DUP2 SWAP1 POP SWAP2 SWAP1 POP JUMP JUMPDEST PUSH2 0x614 DUP2 PUSH2 0x602 JUMP JUMPDEST DUP2 EQ PUSH2 0x61E JUMPI PUSH0 DUP1 REVERT JUMPDEST POP JUMP JUMPDEST PUSH0 DUP2 CALLDATALOAD SWAP1 POP PUSH2 0x62F DUP2 PUSH2 0x60B JUMP JUMPDEST SWAP3 SWAP2 POP POP JUMP JUMPDEST PUSH0 DUP1 DUP4 PUSH1 0x1F DUP5 ADD SLT PUSH2 0x64A JUMPI PUSH2 0x649 PUSH2 0x5A1 JUMP JUMPDEST JUMPDEST DUP3 CALLDATALOAD SWAP1 POP PUSH8 0xFFFFFFFFFFFFFFFF DUP2 GT ISZERO PUSH2 0x667 JUMPI PUSH2 0x666 PUSH2 0x5A5 JUMP JUMPDEST JUMPDEST PUSH1 0x20 DUP4 ADD SWAP2 POP DUP4 PUSH1 0x1 DUP3 MUL DUP4 ADD GT ISZERO PUSH2 0x683 JUMPI PUSH2 0x682 PUSH2 0x5A9 JUMP JUMPDEST JUMPDEST SWAP3 POP SWAP3 SWAP1 POP JUMP JUMPDEST PUSH0 DUP1 PUSH0 DUP1 PUSH0 DUP1 PUSH1 0x80 DUP8 DUP10 SUB SLT ISZERO PUSH2 0x6A4 JUMPI PUSH2 0x6A3 PUSH2 0x599 JUMP JUMPDEST JUMPDEST PUSH0 DUP8 ADD CALLDATALOAD PUSH8 0xFFFFFFFFFFFFFFFF DUP2 GT ISZERO PUSH2 0x6C1 JUMPI PUSH2 0x6C0 PUSH2 0x59D JUMP JUMPDEST JUMPDEST PUSH2 0x6CD DUP10 DUP3 DUP11 ADD PUSH2 0x5AD JUMP JUMPDEST SWAP7 POP SWAP7 POP POP PUSH1 0x20 PUSH2 0x6E0 DUP10 DUP3 DUP11 ADD PUSH2 0x621 JUMP JUMPDEST SWAP5 POP POP PUSH1 0x40 PUSH2 0x6F1 DUP10 DUP3 DUP11 ADD PUSH2 0x621 JUMP JUMPDEST SWAP4 POP POP PUSH1 0x60 DUP8 ADD CALLDATALOAD PUSH8 0xFFFFFFFFFFFFFFFF DUP2 GT ISZERO PUSH2 0x712 JUMPI PUSH2 0x711 PUSH2 0x59D JUMP JUMPDEST JUMPDEST PUSH2 0x71E DUP10 DUP3 DUP11 ADD PUSH2 0x635 JUMP JUMPDEST SWAP3 POP SWAP3 POP POP SWAP3 SWAP6 POP SWAP3 SWAP6 POP SWAP3 SWAP6 JUMP JUMPDEST PUSH0 DUP2 SWAP1 POP SWAP2 SWAP1 POP JUMP JUMPDEST PUSH2 0x73F DUP2 PUSH2 0x72D JUMP JUMPDEST DUP3 MSTORE POP POP JUMP JUMPDEST PUSH0 PUSH1 0x20 DUP3 ADD SWAP1 POP PUSH2 0x758 PUSH0 DUP4 ADD DUP5 PUSH2 0x736 JUMP JUMPDEST SWAP3 SWAP2 POP POP JUMP JUMPDEST PUSH0 DUP1 REVERT JUMPDEST PUSH0 PUSH1 0x1F NOT PUSH1 0x1F DUP4 ADD AND SWAP1 POP SWAP2 SWAP1 POP JUMP JUMPDEST PUSH32 0x4E487B7100000000000000000000000000000000000000000000000000000000 PUSH0 MSTORE PUSH1 0x41 PUSH1 0x4 MSTORE PUSH1 0x24 PUSH0 REVERT JUMPDEST PUSH2 0x7A8 DUP3 PUSH2 0x762 JUMP JUMPDEST DUP2 ADD DUP2 DUP2 LT PUSH8 0xFFFFFFFFFFFFFFFF DUP3 GT OR ISZERO PUSH2 0x7C7 JUMPI PUSH2 0x7C6 PUSH2 0x772 JUMP JUMPDEST JUMPDEST DUP1 PUSH1 0x40 MSTORE POP POP POP JUMP JUMPDEST PUSH0 PUSH2 0x7D9 PUSH2 0x590 JUMP JUMPDEST SWAP1 POP PUSH2 0x7E5 DUP3 DUP3 PUSH2 0x79F JUMP JUMPDEST SWAP2 SWAP1 POP JUMP JUMPDEST PUSH0 PUSH8 0xFFFFFFFFFFFFFFFF DUP3 GT ISZERO PUSH2 0x804 JUMPI PUSH2 0x803 PUSH2 0x772 JUMP JUMPDEST JUMPDEST PUSH2 0x80D DUP3 PUSH2 0x762 JUMP JUMPDEST SWAP1 POP PUSH1 0x20 DUP2 ADD SWAP1 POP SWAP2 SWAP1 POP JUMP JUMPDEST DUP3 DUP2 DUP4 CALLDATACOPY PUSH0 DUP4 DUP4 ADD MSTORE POP POP POP JUMP JUMPDEST PUSH0 PUSH2 0x83A PUSH2 0x835 DUP5 PUSH2 0x7EA JUMP JUMPDEST PUSH2 0x7D0 JUMP JUMPDEST SWAP1 POP DUP3 DUP2 MSTORE PUSH1 0x20 DUP2 ADD DUP5 DUP5 DUP5 ADD GT ISZERO PUSH2 0x856 JUMPI PUSH2 0x855 PUSH2 0x75E JUMP JUMPDEST JUMPDEST PUSH2 0x861 DUP5 DUP3 DUP6 PUSH2 0x81A JUMP JUMPDEST POP SWAP4 SWAP3 POP POP POP JUMP JUMPDEST PUSH0 DUP3 PUSH1 0x1F DUP4 ADD SLT PUSH2 0x87D JUMPI PUSH2 0x87C PUSH2 0x5A1 JUMP JUMPDEST JUMPDEST DUP2 CALLDATALOAD PUSH2 0x88D DUP5 DUP3 PUSH1 0x20 DUP7 ADD PUSH2 0x828 JUMP JUMPDEST SWAP2 POP POP SWAP3 SWAP2 POP POP JUMP JUMPDEST PUSH0 PUSH1 0x20 DUP3 DUP5 SUB SLT ISZERO PUSH2 0x8AB JUMPI PUSH2 0x8AA PUSH2 0x599 JUMP JUMPDEST JUMPDEST PUSH0 DUP3 ADD CALLDATALOAD PUSH8 0xFFFFFFFFFFFFFFFF DUP2 GT ISZERO PUSH2 0x8C8 JUMPI PUSH2 0x8C7 PUSH2 0x59D JUMP JUMPDEST JUMPDEST PUSH2 0x8D4 DUP5 DUP3 DUP6 ADD PUSH2 0x869 JUMP JUMPDEST SWAP2 POP POP SWAP3 SWAP2 POP POP JUMP JUMPDEST PUSH0 DUP2 ISZERO ISZERO SWAP1 POP SWAP2 SWAP1 POP JUMP JUMPDEST PUSH2 0x8F1 DUP2 PUSH2 0x8DD JUMP JUMPDEST DUP3 MSTORE POP POP JUMP JUMPDEST PUSH0 PUSH1 0x20 DUP3 ADD SWAP1 POP PUSH2 0x90A PUSH0 DUP4 ADD DUP5 PUSH2 0x8E8 JUMP JUMPDEST SWAP3 SWAP2 POP POP JUMP JUMPDEST PUSH0 PUSH1 0x20 DUP3 DUP5 SUB SLT ISZERO PUSH2 0x925 JUMPI PUSH2 0x924 PUSH2 0x599 JUMP JUMPDEST JUMPDEST PUSH0 PUSH2 0x932 DUP5 DUP3 DUP6 ADD PUSH2 0x621 JUMP JUMPDEST SWAP2 POP POP SWAP3 SWAP2 POP POP JUMP JUMPDEST PUSH0 PUSH20 0xFFFFFFFFFFFFFFFFFFFFFFFFFFFFFFFFFFFFFFFF DUP3 AND SWAP1 POP SWAP2 SWAP1 POP JUMP JUMPDEST PUSH0 PUSH2 0x964 DUP3 PUSH2 0x93B JUMP JUMPDEST SWAP1 POP SWAP2 SWAP1 POP JUMP JUMPDEST PUSH2 0x974 DUP2 PUSH2 0x95A JUMP JUMPDEST DUP3 MSTORE POP POP JUMP JUMPDEST PUSH0 PUSH1 0x20 DUP3 ADD SWAP1 POP PUSH2 0x98D PUSH0 DUP4 ADD DUP5 PUSH2 0x96B JUMP JUMPDEST SWAP3 SWAP2 POP POP JUMP JUMPDEST PUSH0 DUP2 SWAP1 POP SWAP3 SWAP2 POP POP JUMP JUMPDEST PUSH0 PUSH2 0x9A8 DUP4 DUP6 PUSH2 0x993 JUMP JUMPDEST SWAP4 POP PUSH2 0x9B5 DUP4 DUP6 DUP5 PUSH2 0x81A JUMP JUMPDEST DUP3 DUP5 ADD SWAP1 POP SWAP4 SWAP3 POP POP POP JUMP JUMPDEST PUSH0 PUSH2 0x9CD DUP3 DUP5 DUP7 PUSH2 0x99D JUMP JUMPDEST SWAP2 POP DUP2 SWAP1 POP SWAP4 SWAP3 POP POP POP JUMP JUMPDEST PUSH2 0x9E2 DUP2 PUSH2 0x602 JUMP JUMPDEST DUP3 MSTORE POP POP JUMP JUMPDEST PUSH0 PUSH1 0x80 DUP3 ADD SWAP1 POP PUSH2 0x9FB PUSH0 DUP4 ADD DUP8 PUSH2 0x736 JUMP JUMPDEST PUSH2 0xA08 PUSH1 0x20 DUP4 ADD DUP7 PUSH2 0x736 JUMP JUMPDEST PUSH2 0xA15 PUSH1 0x40 DUP4 ADD DUP6 PUSH2 0x9D9 JUMP JUMPDEST PUSH2 0xA22 PUSH1 0x60 DUP4 ADD DUP5 PUSH2 0x9D9 JUMP JUMPDEST SWAP6 SWAP5 POP POP POP POP POP JUMP JUMPDEST PUSH0 DUP2 SWAP1 POP SWAP3 SWAP2 POP POP JUMP JUMPDEST PUSH32 0x1901000000000000000000000000000000000000000000000000000000000000 PUSH0 DUP3 ADD MSTORE POP JUMP JUMPDEST PUSH0 PUSH2 0xA69 PUSH1 0x2 DUP4 PUSH2 0xA2B JUMP JUMPDEST SWAP2 POP PUSH2 0xA74 DUP3 PUSH2 0xA35 JUMP JUMPDEST PUSH1 0x2 DUP3 ADD SWAP1 POP SWAP2 SWAP1 POP JUMP JUMPDEST PUSH0 DUP2 SWAP1 POP SWAP2 SWAP1 POP JUMP JUMPDEST PUSH2 0xA99 PUSH2 0xA94 DUP3 PUSH2 0x72D JUMP JUMPDEST PUSH2 0xA7F JUMP JUMPDEST DUP3 MSTORE POP POP JUMP JUMPDEST PUSH0 PUSH2 0xAA9 DUP3 PUSH2 0xA5D JUMP JUMPDEST SWAP2 POP PUSH2 0xAB5 DUP3 DUP6 PUSH2 0xA88 JUMP JUMPDEST PUSH1 0x20 DUP3 ADD SWAP2 POP PUSH2 0xAC5 DUP3 DUP5 PUSH2 0xA88 JUMP JUMPDEST PUSH1 0x20 DUP3 ADD SWAP2 POP DUP2 SWAP1 POP SWAP4 SWAP3 POP POP POP JUMP JUMPDEST PUSH0 PUSH2 0xAE0 DUP4 DUP6 PUSH2 0xA2B JUMP JUMPDEST SWAP4 POP PUSH2 0xAED DUP4 DUP6 DUP5 PUSH2 0x81A JUMP JUMPDEST DUP3 DUP5 ADD SWAP1 POP SWAP4 SWAP3 POP POP POP JUMP JUMPDEST PUSH0 PUSH2 0xB05 DUP3 DUP5 DUP7 PUSH2 0xAD5 JUMP JUMPDEST SWAP2 POP DUP2 SWAP1 POP SWAP4 SWAP3 POP POP POP JUMP JUMPDEST PUSH0 DUP3 DUP3 MSTORE PUSH1 0x20 DUP3 ADD SWAP1 POP SWAP3 SWAP2 POP POP JUMP JUMPDEST PUSH0 PUSH2 0xB2C DUP4 DUP6 PUSH2 0xB11 JUMP JUMPDEST SWAP4 POP PUSH2 0xB39 DUP4 DUP6 DUP5 PUSH2 0x81A JUMP JUMPDEST PUSH2 0xB42 DUP4 PUSH2 0x762 JUMP JUMPDEST DUP5 ADD SWAP1 POP SWAP4 SWAP3 POP POP POP JUMP JUMPDEST PUSH0 PUSH1 0x20 DUP3 ADD SWAP1 POP DUP2 DUP2 SUB PUSH0 DUP4 ADD MSTORE PUSH2 0xB66 DUP2 DUP5 DUP7 PUSH2 0xB21 JUMP JUMPDEST SWAP1 POP SWAP4 SWAP3 POP POP POP JUMP JUMPDEST PUSH32 0x45434453413A20626164206C656E677468000000000000000000000000000000 PUSH0 DUP3 ADD MSTORE POP JUMP JUMPDEST PUSH0 PUSH2 0xBA3 PUSH1 0x11 DUP4 PUSH2 0xB11 JUMP JUMPDEST SWAP2 POP PUSH2 0xBAE DUP3 PUSH2 0xB6F JUMP JUMPDEST PUSH1 0x20 DUP3 ADD SWAP1 POP SWAP2 SWAP1 POP JUMP JUMPDEST PUSH0 PUSH1 0x20 DUP3 ADD SWAP1 POP DUP2 DUP2 SUB PUSH0 DUP4 ADD MSTORE PUSH2 0xBD0 DUP2 PUSH2 0xB97 JUMP JUMPDEST SWAP1 POP SWAP2 SWAP1 POP JUMP JUMPDEST PUSH0 PUSH1 0xFF DUP3 AND SWAP1 POP SWAP2 SWAP1 POP JUMP JUMPDEST PUSH2 0xBEC DUP2 PUSH2 0xBD7 JUMP JUMPDEST DUP3 MSTORE POP POP JUMP JUMPDEST PUSH0 PUSH1 0x80 DUP3 ADD SWAP1 POP PUSH2 0xC05 PUSH0 DUP4 ADD DUP8 PUSH2 0x736 JUMP JUMPDEST PUSH2 0xC12 PUSH1 0x20 DUP4 ADD DUP7 PUSH2 0xBE3 JUMP JUMPDEST PUSH2 0xC1F PUSH1 0x40 DUP4 ADD DUP6 PUSH2 0x736 JUMP JUMPDEST PUSH2 0xC2C PUSH1 0x60 DUP4 ADD DUP5 PUSH2 0x736 JUMP JUMPDEST SWAP6 SWAP5 POP POP POP POP POP JUMP JUMPDEST PUSH32 0x45434453413A20696E76616C6964000000000000000000000000000000000000 PUSH0 DUP3 ADD MSTORE POP JUMP JUMPDEST PUSH0 PUSH2 0xC69 PUSH1 0xE DUP4 PUSH2 0xB11 JUMP JUMPDEST SWAP2 POP PUSH2 0xC74 DUP3 PUSH2 0xC35 JUMP JUMPDEST PUSH1 0x20 DUP3 ADD SWAP1 POP SWAP2 SWAP1 POP JUMP JUMPDEST PUSH0 PUSH1 0x20 DUP3 ADD SWAP1 POP DUP2 DUP2 SUB PUSH0 DUP4 ADD MSTORE PUSH2 0xC96 DUP2 PUSH2 0xC5D JUMP JUMPDEST SWAP1 POP SWAP2 SWAP1 POP JUMP INVALID LOG2 PUSH5 0x6970667358 0x22 SLT KECCAK256 PUSH23 0xF18947F6156EB7D11CBB905339E6B16B0B55C4A2812279 0xD0 0x29 PUSH4 0x1EC3E560 BLOCKHASH PUSH5 0x736F6C6343 STOP ADDMOD BYTE STOP CALLER "
		},
		"gasEstimates": {
			"creation": {
				"codeDepositCost": "656600",
				"executionCost": "infinite",
				"totalCost": "infinite"
			},
			"external": {
				"DOMAIN()": "infinite",
				"addPhone(string,uint256,uint256,bytes)": "infinite",
				"phoneProvider()": "infinite",
				"usedNonce(uint256)": "2828",
				"whitelisted(string)": "infinite"
			}
		},
		"methodIdentifiers": {
			"DOMAIN()": "52a9674b",
			"addPhone(string,uint256,uint256,bytes)": "28546b10",
			"phoneProvider()": "9d82bdfa",
			"usedNonce(uint256)": "9723fb6d",
			"whitelisted(string)": "654ad8a7"
		}
	},
	"abi": [
		{
			"inputs": [
				{
					"internalType": "address",
					"name": "_phoneProvider",
					"type": "address"
				}
			],
			"stateMutability": "nonpayable",
			"type": "constructor"
		},
		{
			"inputs": [],
			"name": "PhoneWLSafe__Expired",
			"type": "error"
		},
		{
			"inputs": [],
			"name": "PhoneWLSafe__Replayed",
			"type": "error"
		},
		{
			"inputs": [],
			"name": "PhoneWL__BadSig",
			"type": "error"
		},
		{
			"anonymous": false,
			"inputs": [
				{
					"indexed": false,
					"internalType": "string",
					"name": "phone",
					"type": "string"
				}
			],
			"name": "PhoneWhitelisted",
			"type": "event"
		},
		{
			"inputs": [],
			"name": "DOMAIN",
			"outputs": [
				{
					"internalType": "bytes32",
					"name": "",
					"type": "bytes32"
				}
			],
			"stateMutability": "view",
			"type": "function"
		},
		{
			"inputs": [
				{
					"internalType": "string",
					"name": "phone",
					"type": "string"
				},
				{
					"internalType": "uint256",
					"name": "nonce",
					"type": "uint256"
				},
				{
					"internalType": "uint256",
					"name": "expiry",
					"type": "uint256"
				},
				{
					"internalType": "bytes",
					"name": "sig",
					"type": "bytes"
				}
			],
			"name": "addPhone",
			"outputs": [],
			"stateMutability": "nonpayable",
			"type": "function"
		},
		{
			"inputs": [],
			"name": "phoneProvider",
			"outputs": [
				{
					"internalType": "address",
					"name": "",
					"type": "address"
				}
			],
			"stateMutability": "view",
			"type": "function"
		},
		{
			"inputs": [
				{
					"internalType": "uint256",
					"name": "",
					"type": "uint256"
				}
			],
			"name": "usedNonce",
			"outputs": [
				{
					"internalType": "bool",
					"name": "",
					"type": "bool"
				}
			],
			"stateMutability": "view",
			"type": "function"
		},
		{
			"inputs": [
				{
					"internalType": "string",
					"name": "",
					"type": "string"
				}
			],
			"name": "whitelisted",
			"outputs": [
				{
					"internalType": "bool",
					"name": "",
					"type": "bool"
				}
			],
			"stateMutability": "view",
			"type": "function"
		}
	]
}