{
	"data": {
		"bytecode": {
			"linkReferences": {},
			"object": "608060405260055f553480156012575f80fd5b50610ab3806100205f395ff3fe608060405234801561000f575f80fd5b5060043610610055575f3560e01c8063131a0680146100595780633c05eca1146100755780639c09de5f146100a55780639d2aa744146100c3578063a3133521146100f3575b5f80fd5b610073600480360381019061006e9190610442565b61010f565b005b61008f600480360381019061008a919061051a565b61025b565b60405161009c91906105c8565b60405180910390f35b6100ad61030c565b6040516100ba91906105f7565b60405180910390f35b6100dd60048036038101906100d89190610610565b610311565b6040516100ea91906105f7565b60405180910390f35b61010d60048036038101906101089190610610565b610326565b005b5f5460015f3373ffffffffffffffffffffffffffffffffffffffff1673ffffffffffffffffffffffffffffffffffffffff1681526020019081526020015f20541061018f576040517f08c379a000000000000000000000000000000000000000000000000000000000815260040161018690610685565b60405180910390fd5b60025f3373ffffffffffffffffffffffffffffffffffffffff1673ffffffffffffffffffffffffffffffffffffffff1681526020019081526020015f20828290918060018154018082558091505060019003905f5260205f20015f9091929091929091929091925091826102049291906108d4565b5060015f3373ffffffffffffffffffffffffffffffffffffffff1673ffffffffffffffffffffffffffffffffffffffff1681526020019081526020015f205f815480929190610252906109ce565b91905055505050565b6002602052815f5260405f208181548110610274575f80fd5b905f5260205f20015f9150915050805461028d90610707565b80601f01602080910402602001604051908101604052809291908181526020018280546102b990610707565b80156103045780601f106102db57610100808354040283529160200191610304565b820191905f5260205f20905b8154815290600101906020018083116102e757829003601f168201915b505050505081565b5f5481565b6001602052805f5260405f205f915090505481565b8073ffffffffffffffffffffffffffffffffffffffff163373ffffffffffffffffffffffffffffffffffffffff1614610394576040517f08c379a000000000000000000000000000000000000000000000000000000000815260040161038b90610a5f565b60405180910390fd5b5f60015f8373ffffffffffffffffffffffffffffffffffffffff1673ffffffffffffffffffffffffffffffffffffffff1681526020019081526020015f208190555050565b5f80fd5b5f80fd5b5f80fd5b5f80fd5b5f80fd5b5f8083601f840112610402576104016103e1565b5b8235905067ffffffffffffffff81111561041f5761041e6103e5565b5b60208301915083600182028301111561043b5761043a6103e9565b5b9250929050565b5f8060208385031215610458576104576103d9565b5b5f83013567ffffffffffffffff811115610475576104746103dd565b5b610481858286016103ed565b92509250509250929050565b5f73ffffffffffffffffffffffffffffffffffffffff82169050919050565b5f6104b68261048d565b9050919050565b6104c6816104ac565b81146104d0575f80fd5b50565b5f813590506104e1816104bd565b92915050565b5f819050919050565b6104f9816104e7565b8114610503575f80fd5b50565b5f81359050610514816104f0565b92915050565b5f80604083850312156105305761052f6103d9565b5b5f61053d858286016104d3565b925050602061054e85828601610506565b9150509250929050565b5f81519050919050565b5f82825260208201905092915050565b8281835e5f83830152505050565b5f601f19601f8301169050919050565b5f61059a82610558565b6105a48185610562565b93506105b4818560208601610572565b6105bd81610580565b840191505092915050565b5f6020820190508181035f8301526105e08184610590565b905092915050565b6105f1816104e7565b82525050565b5f60208201905061060a5f8301846105e8565b92915050565b5f60208284031215610625576106246103d9565b5b5f610632848285016104d3565b91505092915050565b7f53746f726167652071756f7461206578636565646564000000000000000000005f82015250565b5f61066f601683610562565b915061067a8261063b565b602082019050919050565b5f6020820190508181035f83015261069c81610663565b9050919050565b5f82905092915050565b7f4e487b71000000000000000000000000000000000000000000000000000000005f52604160045260245ffd5b7f4e487b71000000000000000000000000000000000000000000000000000000005f52602260045260245ffd5b5f600282049050600182168061071e57607f821691505b602082108103610731576107306106da565b5b50919050565b5f819050815f5260205f209050919050565b5f6020601f8301049050919050565b5f82821b905092915050565b5f600883026107937fffffffffffffffffffffffffffffffffffffffffffffffffffffffffffffffff82610758565b61079d8683610758565b95508019841693508086168417925050509392505050565b5f819050919050565b5f6107d86107d36107ce846104e7565b6107b5565b6104e7565b9050919050565b5f819050919050565b6107f1836107be565b6108056107fd826107df565b848454610764565b825550505050565b5f90565b61081961080d565b6108248184846107e8565b505050565b5b818110156108475761083c5f82610811565b60018101905061082a565b5050565b601f82111561088c5761085d81610737565b61086684610749565b81016020851015610875578190505b61088961088185610749565b830182610829565b50505b505050565b5f82821c905092915050565b5f6108ac5f1984600802610891565b1980831691505092915050565b5f6108c4838361089d565b9150826002028217905092915050565b6108de83836106a3565b67ffffffffffffffff8111156108f7576108f66106ad565b5b6109018254610707565b61090c82828561084b565b5f601f831160018114610939575f8415610927578287013590505b61093185826108b9565b865550610998565b601f19841661094786610737565b5f5b8281101561096e57848901358255600182019150602085019450602081019050610949565b8683101561098b5784890135610987601f89168261089d565b8355505b6001600288020188555050505b50505050505050565b7f4e487b71000000000000000000000000000000000000000000000000000000005f52601160045260245ffd5b5f6109d8826104e7565b91507fffffffffffffffffffffffffffffffffffffffffffffffffffffffffffffffff8203610a0a57610a096109a1565b5b600182019050919050565b7f53656c66207265736574206f6e6c7900000000000000000000000000000000005f82015250565b5f610a49600f83610562565b9150610a5482610a15565b602082019050919050565b5f6020820190508181035f830152610a7681610a3d565b905091905056fea26469706673582212207ee6aed542e6b0520f7c997957e72d5ce68047a6a9daf1dd68a3f2fe301ea01964736f6c634300081a0033",
			"opcodes": "PUSH1 0x80 PUSH1 0x40 MSTORE PUSH1 0x5 PUSH0 SSTORE CALLVALUE DUP1 ISZERO PUSH1 0x12 JUMPI PUSH0 DUP1 REVERT JUMPDEST POP PUSH2 0xAB3 DUP1 PUSH2 0x20 PUSH0 CODECOPY PUSH0 RETURN INVALID PUSH1 0x80 PUSH1 0x40 MSTORE CALLVALUE DUP1 ISZERO PUSH2 0xF JUMPI PUSH0 DUP1 REVERT JUMPDEST POP PUSH1 0x4 CALLDATASIZE LT PUSH2 0x55 JUMPI PUSH0 CALLDATALOAD PUSH1 0xE0 SHR DUP1 PUSH4 0x131A0680 EQ PUSH2 0x59 JUMPI DUP1 PUSH4 0x3C05ECA1 EQ PUSH2 0x75 JUMPI DUP1 PUSH4 0x9C09DE5F EQ PUSH2 0xA5 JUMPI DUP1 PUSH4 0x9D2AA744 EQ PUSH2 0xC3 JUMPI DUP1 PUSH4 0xA3133521 EQ PUSH2 0xF3 JUMPI JUMPDEST PUSH0 DUP1 REVERT JUMPDEST PUSH2 0x73 PUSH1 0x4 DUP1 CALLDATASIZE SUB DUP2 ADD SWAP1 PUSH2 0x6E SWAP2 SWAP1 PUSH2 0x442 JUMP JUMPDEST PUSH2 0x10F JUMP JUMPDEST STOP JUMPDEST PUSH2 0x8F PUSH1 0x4 DUP1 CALLDATASIZE SUB DUP2 ADD SWAP1 PUSH2 0x8A SWAP2 SWAP1 PUSH2 0x51A JUMP JUMPDEST PUSH2 0x25B JUMP JUMPDEST PUSH1 0x40 MLOAD PUSH2 0x9C SWAP2 SWAP1 PUSH2 0x5C8 JUMP JUMPDEST PUSH1 0x40 MLOAD DUP1 SWAP2 SUB SWAP1 RETURN JUMPDEST PUSH2 0xAD PUSH2 0x30C JUMP JUMPDEST PUSH1 0x40 MLOAD PUSH2 0xBA SWAP2 SWAP1 PUSH2 0x5F7 JUMP JUMPDEST PUSH1 0x40 MLOAD DUP1 SWAP2 SUB SWAP1 RETURN JUMPDEST PUSH2 0xDD PUSH1 0x4 DUP1 CALLDATASIZE SUB DUP2 ADD SWAP1 PUSH2 0xD8 SWAP2 SWAP1 PUSH2 0x610 JUMP JUMPDEST PUSH2 0x311 JUMP JUMPDEST PUSH1 0x40 MLOAD PUSH2 0xEA SWAP2 SWAP1 PUSH2 0x5F7 JUMP JUMPDEST PUSH1 0x40 MLOAD DUP1 SWAP2 SUB SWAP1 RETURN JUMPDEST PUSH2 0x10D PUSH1 0x4 DUP1 CALLDATASIZE SUB DUP2 ADD SWAP1 PUSH2 0x108 SWAP2 SWAP1 PUSH2 0x610 JUMP JUMPDEST PUSH2 0x326 JUMP JUMPDEST STOP JUMPDEST PUSH0 SLOAD PUSH1 0x1 PUSH0 CALLER PUSH20 0xFFFFFFFFFFFFFFFFFFFFFFFFFFFFFFFFFFFFFFFF AND PUSH20 0xFFFFFFFFFFFFFFFFFFFFFFFFFFFFFFFFFFFFFFFF AND DUP2 MSTORE PUSH1 0x20 ADD SWAP1 DUP2 MSTORE PUSH1 0x20 ADD PUSH0 KECCAK256 SLOAD LT PUSH2 0x18F JUMPI PUSH1 0x40 MLOAD PUSH32 0x8C379A000000000000000000000000000000000000000000000000000000000 DUP2 MSTORE PUSH1 0x4 ADD PUSH2 0x186 SWAP1 PUSH2 0x685 JUMP JUMPDEST PUSH1 0x40 MLOAD DUP1 SWAP2 SUB SWAP1 REVERT JUMPDEST PUSH1 0x2 PUSH0 CALLER PUSH20 0xFFFFFFFFFFFFFFFFFFFFFFFFFFFFFFFFFFFFFFFF AND PUSH20 0xFFFFFFFFFFFFFFFFFFFFFFFFFFFFFFFFFFFFFFFF AND DUP2 MSTORE PUSH1 0x20 ADD SWAP1 DUP2 MSTORE PUSH1 0x20 ADD PUSH0 KECCAK256 DUP3 DUP3 SWAP1 SWAP2 DUP1 PUSH1 0x1 DUP2 SLOAD ADD DUP1 DUP3 SSTORE DUP1 SWAP2 POP POP PUSH1 0x1 SWAP1 SUB SWAP1 PUSH0 MSTORE PUSH1 0x20 PUSH0 KECCAK256 ADD PUSH0 SWAP1 SWAP2 SWAP3 SWAP1 SWAP2 SWAP3 SWAP1 SWAP2 SWAP3 SWAP1 SWAP2 SWAP3 POP SWAP2 DUP3 PUSH2 0x204 SWAP3 SWAP2 SWAP1 PUSH2 0x8D4 JUMP JUMPDEST POP PUSH1 0x1 PUSH0 CALLER PUSH20 0xFFFFFFFFFFFFFFFFFFFFFFFFFFFFFFFFFFFFFFFF AND PUSH20 0xFFFFFFFFFFFFFFFFFFFFFFFFFFFFFFFFFFFFFFFF AND DUP2 MSTORE PUSH1 0x20 ADD SWAP1 DUP2 MSTORE PUSH1 0x20 ADD PUSH0 KECCAK256 PUSH0 DUP2 SLOAD DUP1 SWAP3 SWAP2 SWAP1 PUSH2 0x252 SWAP1 PUSH2 0x9CE JUMP JUMPDEST SWAP2 SWAP1 POP SSTORE POP POP POP JUMP JUMPDEST PUSH1 0x2 PUSH1 0x20 MSTORE DUP2 PUSH0 MSTORE PUSH1 0x40 PUSH0 KECCAK256 DUP2 DUP2 SLOAD DUP2 LT PUSH2 0x274 JUMPI PUSH0 DUP1 REVERT JUMPDEST SWAP1 PUSH0 MSTORE PUSH1 0x20 PUSH0 KECCAK256 ADD PUSH0 SWAP2 POP SWAP2 POP POP DUP1 SLOAD PUSH2 0x28D SWAP1 PUSH2 0x707 JUMP JUMPDEST DUP1 PUSH1 0x1F ADD PUSH1 0x20 DUP1 SWAP2 DIV MUL PUSH1 0x20 ADD PUSH1 0x40 MLOAD SWAP1 DUP2 ADD PUSH1 0x40 MSTORE DUP1 SWAP3 SWAP2 SWAP1 DUP2 DUP2 MSTORE PUSH1 0x20 ADD DUP3 DUP1 SLOAD PUSH2 0x2B9 SWAP1 PUSH2 0x707 JUMP JUMPDEST DUP1 ISZERO PUSH2 0x304 JUMPI DUP1 PUSH1 0x1F LT PUSH2 0x2DB JUMPI PUSH2 0x100 DUP1 DUP4 SLOAD DIV MUL DUP4 MSTORE SWAP2 PUSH1 0x20 ADD SWAP2 PUSH2 0x304 JUMP JUMPDEST DUP3 ADD SWAP2 SWAP1 PUSH0 MSTORE PUSH1 0x20 PUSH0 KECCAK256 SWAP1 JUMPDEST DUP2 SLOAD DUP2 MSTORE SWAP1 PUSH1 0x1 ADD SWAP1 PUSH1 0x20 ADD DUP1 DUP4 GT PUSH2 0x2E7 JUMPI DUP3 SWAP1 SUB PUSH1 0x1F AND DUP3 ADD SWAP2 JUMPDEST POP POP POP POP POP DUP2 JUMP JUMPDEST PUSH0 SLOAD DUP2 JUMP JUMPDEST PUSH1 0x1 PUSH1 0x20 MSTORE DUP1 PUSH0 MSTORE PUSH1 0x40 PUSH0 KECCAK256 PUSH0 SWAP2 POP SWAP1 POP SLOAD DUP2 JUMP JUMPDEST DUP1 PUSH20 0xFFFFFFFFFFFFFFFFFFFFFFFFFFFFFFFFFFFFFFFF AND CALLER PUSH20 0xFFFFFFFFFFFFFFFFFFFFFFFFFFFFFFFFFFFFFFFF AND EQ PUSH2 0x394 JUMPI PUSH1 0x40 MLOAD PUSH32 0x8C379A000000000000000000000000000000000000000000000000000000000 DUP2 MSTORE PUSH1 0x4 ADD PUSH2 0x38B SWAP1 PUSH2 0xA5F JUMP JUMPDEST PUSH1 0x40 MLOAD DUP1 SWAP2 SUB SWAP1 REVERT JUMPDEST PUSH0 PUSH1 0x1 PUSH0 DUP4 PUSH20 0xFFFFFFFFFFFFFFFFFFFFFFFFFFFFFFFFFFFFFFFF AND PUSH20 0xFFFFFFFFFFFFFFFFFFFFFFFFFFFFFFFFFFFFFFFF AND DUP2 MSTORE PUSH1 0x20 ADD SWAP1 DUP2 MSTORE PUSH1 0x20 ADD PUSH0 KECCAK256 DUP2 SWAP1 SSTORE POP POP JUMP JUMPDEST PUSH0 DUP1 REVERT JUMPDEST PUSH0 DUP1 REVERT JUMPDEST PUSH0 DUP1 REVERT JUMPDEST PUSH0 DUP1 REVERT JUMPDEST PUSH0 DUP1 REVERT JUMPDEST PUSH0 DUP1 DUP4 PUSH1 0x1F DUP5 ADD SLT PUSH2 0x402 JUMPI PUSH2 0x401 PUSH2 0x3E1 JUMP JUMPDEST JUMPDEST DUP3 CALLDATALOAD SWAP1 POP PUSH8 0xFFFFFFFFFFFFFFFF DUP2 GT ISZERO PUSH2 0x41F JUMPI PUSH2 0x41E PUSH2 0x3E5 JUMP JUMPDEST JUMPDEST PUSH1 0x20 DUP4 ADD SWAP2 POP DUP4 PUSH1 0x1 DUP3 MUL DUP4 ADD GT ISZERO PUSH2 0x43B JUMPI PUSH2 0x43A PUSH2 0x3E9 JUMP JUMPDEST JUMPDEST SWAP3 POP SWAP3 SWAP1 POP JUMP JUMPDEST PUSH0 DUP1 PUSH1 0x20 DUP4 DUP6 SUB SLT ISZERO PUSH2 0x458 JUMPI PUSH2 0x457 PUSH2 0x3D9 JUMP JUMPDEST JUMPDEST PUSH0 DUP4 ADD CALLDATALOAD PUSH8 0xFFFFFFFFFFFFFFFF DUP2 GT ISZERO PUSH2 0x475 JUMPI PUSH2 0x474 PUSH2 0x3DD JUMP JUMPDEST JUMPDEST PUSH2 0x481 DUP6 DUP3 DUP7 ADD PUSH2 0x3ED JUMP JUMPDEST SWAP3 POP SWAP3 POP POP SWAP3 POP SWAP3 SWAP1 POP JUMP JUMPDEST PUSH0 PUSH20 0xFFFFFFFFFFFFFFFFFFFFFFFFFFFFFFFFFFFFFFFF DUP3 AND SWAP1 POP SWAP2 SWAP1 POP JUMP JUMPDEST PUSH0 PUSH2 0x4B6 DUP3 PUSH2 0x48D JUMP JUMPDEST SWAP1 POP SWAP2 SWAP1 POP JUMP JUMPDEST PUSH2 0x4C6 DUP2 PUSH2 0x4AC JUMP JUMPDEST DUP2 EQ PUSH2 0x4D0 JUMPI PUSH0 DUP1 REVERT JUMPDEST POP JUMP JUMPDEST PUSH0 DUP2 CALLDATALOAD SWAP1 POP PUSH2 0x4E1 DUP2 PUSH2 0x4BD JUMP JUMPDEST SWAP3 SWAP2 POP POP JUMP JUMPDEST PUSH0 DUP2 SWAP1 POP SWAP2 SWAP1 POP JUMP JUMPDEST PUSH2 0x4F9 DUP2 PUSH2 0x4E7 JUMP JUMPDEST DUP2 EQ PUSH2 0x503 JUMPI PUSH0 DUP1 REVERT JUMPDEST POP JUMP JUMPDEST PUSH0 DUP2 CALLDATALOAD SWAP1 POP PUSH2 0x514 DUP2 PUSH2 0x4F0 JUMP JUMPDEST SWAP3 SWAP2 POP POP JUMP JUMPDEST PUSH0 DUP1 PUSH1 0x40 DUP4 DUP6 SUB SLT ISZERO PUSH2 0x530 JUMPI PUSH2 0x52F PUSH2 0x3D9 JUMP JUMPDEST JUMPDEST PUSH0 PUSH2 0x53D DUP6 DUP3 DUP7 ADD PUSH2 0x4D3 JUMP JUMPDEST SWAP3 POP POP PUSH1 0x20 PUSH2 0x54E DUP6 DUP3 DUP7 ADD PUSH2 0x506 JUMP JUMPDEST SWAP2 POP POP SWAP3 POP SWAP3 SWAP1 POP JUMP JUMPDEST PUSH0 DUP2 MLOAD SWAP1 POP SWAP2 SWAP1 POP JUMP JUMPDEST PUSH0 DUP3 DUP3 MSTORE PUSH1 0x20 DUP3 ADD SWAP1 POP SWAP3 SWAP2 POP POP JUMP JUMPDEST DUP3 DUP2 DUP4 MCOPY PUSH0 DUP4 DUP4 ADD MSTORE POP POP POP JUMP JUMPDEST PUSH0 PUSH1 0x1F NOT PUSH1 0x1F DUP4 ADD AND SWAP1 POP SWAP2 SWAP1 POP JUMP JUMPDEST PUSH0 PUSH2 0x59A DUP3 PUSH2 0x558 JUMP JUMPDEST PUSH2 0x5A4 DUP2 DUP6 PUSH2 0x562 JUMP JUMPDEST SWAP4 POP PUSH2 0x5B4 DUP2 DUP6 PUSH1 0x20 DUP7 ADD PUSH2 0x572 JUMP JUMPDEST PUSH2 0x5BD DUP2 PUSH2 0x580 JUMP JUMPDEST DUP5 ADD SWAP2 POP POP SWAP3 SWAP2 POP POP JUMP JUMPDEST PUSH0 PUSH1 0x20 DUP3 ADD SWAP1 POP DUP2 DUP2 SUB PUSH0 DUP4 ADD MSTORE PUSH2 0x5E0 DUP2 DUP5 PUSH2 0x590 JUMP JUMPDEST SWAP1 POP SWAP3 SWAP2 POP POP JUMP JUMPDEST PUSH2 0x5F1 DUP2 PUSH2 0x4E7 JUMP JUMPDEST DUP3 MSTORE POP POP JUMP JUMPDEST PUSH0 PUSH1 0x20 DUP3 ADD SWAP1 POP PUSH2 0x60A PUSH0 DUP4 ADD DUP5 PUSH2 0x5E8 JUMP JUMPDEST SWAP3 SWAP2 POP POP JUMP JUMPDEST PUSH0 PUSH1 0x20 DUP3 DUP5 SUB SLT ISZERO PUSH2 0x625 JUMPI PUSH2 0x624 PUSH2 0x3D9 JUMP JUMPDEST JUMPDEST PUSH0 PUSH2 0x632 DUP5 DUP3 DUP6 ADD PUSH2 0x4D3 JUMP JUMPDEST SWAP2 POP POP SWAP3 SWAP2 POP POP JUMP JUMPDEST PUSH32 0x53746F726167652071756F746120657863656564656400000000000000000000 PUSH0 DUP3 ADD MSTORE POP JUMP JUMPDEST PUSH0 PUSH2 0x66F PUSH1 0x16 DUP4 PUSH2 0x562 JUMP JUMPDEST SWAP2 POP PUSH2 0x67A DUP3 PUSH2 0x63B JUMP JUMPDEST PUSH1 0x20 DUP3 ADD SWAP1 POP SWAP2 SWAP1 POP JUMP JUMPDEST PUSH0 PUSH1 0x20 DUP3 ADD SWAP1 POP DUP2 DUP2 SUB PUSH0 DUP4 ADD MSTORE PUSH2 0x69C DUP2 PUSH2 0x663 JUMP JUMPDEST SWAP1 POP SWAP2 SWAP1 POP JUMP JUMPDEST PUSH0 DUP3 SWAP1 POP SWAP3 SWAP2 POP POP JUMP JUMPDEST PUSH32 0x4E487B7100000000000000000000000000000000000000000000000000000000 PUSH0 MSTORE PUSH1 0x41 PUSH1 0x4 MSTORE PUSH1 0x24 PUSH0 REVERT JUMPDEST PUSH32 0x4E487B7100000000000000000000000000000000000000000000000000000000 PUSH0 MSTORE PUSH1 0x22 PUSH1 0x4 MSTORE PUSH1 0x24 PUSH0 REVERT JUMPDEST PUSH0 PUSH1 0x2 DUP3 DIV SWAP1 POP PUSH1 0x1 DUP3 AND DUP1 PUSH2 0x71E JUMPI PUSH1 0x7F DUP3 AND SWAP2 POP JUMPDEST PUSH1 0x20 DUP3 LT DUP2 SUB PUSH2 0x731 JUMPI PUSH2 0x730 PUSH2 0x6DA JUMP JUMPDEST JUMPDEST POP SWAP2 SWAP1 POP JUMP JUMPDEST PUSH0 DUP2 SWAP1 POP DUP2 PUSH0 MSTORE PUSH1 0x20 PUSH0 KECCAK256 SWAP1 POP SWAP2 SWAP1 POP JUMP JUMPDEST PUSH0 PUSH1 0x20 PUSH1 0x1F DUP4 ADD DIV SWAP1 POP SWAP2 SWAP1 POP JUMP JUMPDEST PUSH0 DUP3 DUP3 SHL SWAP1 POP SWAP3 SWAP2 POP POP JUMP JUMPDEST PUSH0 PUSH1 0x8 DUP4 MUL PUSH2 0x793 PUSH32 0xFFFFFFFFFFFFFFFFFFFFFFFFFFFFFFFFFFFFFFFFFFFFFFFFFFFFFFFFFFFFFFFF DUP3 PUSH2 0x758 JUMP JUMPDEST PUSH2 0x79D DUP7 DUP4 PUSH2 0x758 JUMP JUMPDEST SWAP6 POP DUP1 NOT DUP5 AND SWAP4 POP DUP1 DUP7 AND DUP5 OR SWAP3 POP POP POP SWAP4 SWAP3 POP POP POP JUMP JUMPDEST PUSH0 DUP2 SWAP1 POP SWAP2 SWAP1 POP JUMP JUMPDEST PUSH0 PUSH2 0x7D8 PUSH2 0x7D3 PUSH2 0x7CE DUP5 PUSH2 0x4E7 JUMP JUMPDEST PUSH2 0x7B5 JUMP JUMPDEST PUSH2 0x4E7 JUMP JUMPDEST SWAP1 POP SWAP2 SWAP1 POP JUMP JUMPDEST PUSH0 DUP2 SWAP1 POP SWAP2 SWAP1 POP JUMP JUMPDEST PUSH2 0x7F1 DUP4 PUSH2 0x7BE JUMP JUMPDEST PUSH2 0x805 PUSH2 0x7FD DUP3 PUSH2 0x7DF JUMP JUMPDEST DUP5 DUP5 SLOAD PUSH2 0x764 JUMP JUMPDEST DUP3 SSTORE POP POP POP POP JUMP JUMPDEST PUSH0 SWAP1 JUMP JUMPDEST PUSH2 0x819 PUSH2 0x80D JUMP JUMPDEST PUSH2 0x824 DUP2 DUP5 DUP5 PUSH2 0x7E8 JUMP JUMPDEST POP POP POP JUMP JUMPDEST JUMPDEST DUP2 DUP2 LT ISZERO PUSH2 0x847 JUMPI PUSH2 0x83C PUSH0 DUP3 PUSH2 0x811 JUMP JUMPDEST PUSH1 0x1 DUP2 ADD SWAP1 POP PUSH2 0x82A JUMP JUMPDEST POP POP JUMP JUMPDEST PUSH1 0x1F DUP3 GT ISZERO PUSH2 0x88C JUMPI PUSH2 0x85D DUP2 PUSH2 0x737 JUMP JUMPDEST PUSH2 0x866 DUP5 PUSH2 0x749 JUMP JUMPDEST DUP2 ADD PUSH1 0x20 DUP6 LT ISZERO PUSH2 0x875 JUMPI DUP2 SWAP1 POP JUMPDEST PUSH2 0x889 PUSH2 0x881 DUP6 PUSH2 0x749 JUMP JUMPDEST DUP4 ADD DUP3 PUSH2 0x829 JUMP JUMPDEST POP POP JUMPDEST POP POP POP JUMP JUMPDEST PUSH0 DUP3 DUP3 SHR SWAP1 POP SWAP3 SWAP2 POP POP JUMP JUMPDEST PUSH0 PUSH2 0x8AC PUSH0 NOT DUP5 PUSH1 0x8 MUL PUSH2 0x891 JUMP JUMPDEST NOT DUP1 DUP4 AND SWAP2 POP POP SWAP3 SWAP2 POP POP JUMP JUMPDEST PUSH0 PUSH2 0x8C4 DUP4 DUP4 PUSH2 0x89D JUMP JUMPDEST SWAP2 POP DUP3 PUSH1 0x2 MUL DUP3 OR SWAP1 POP SWAP3 SWAP2 POP POP JUMP JUMPDEST PUSH2 0x8DE DUP4 DUP4 PUSH2 0x6A3 JUMP JUMPDEST PUSH8 0xFFFFFFFFFFFFFFFF DUP2 GT ISZERO PUSH2 0x8F7 JUMPI PUSH2 0x8F6 PUSH2 0x6AD JUMP JUMPDEST JUMPDEST PUSH2 0x901 DUP3 SLOAD PUSH2 0x707 JUMP JUMPDEST PUSH2 0x90C DUP3 DUP3 DUP6 PUSH2 0x84B JUMP JUMPDEST PUSH0 PUSH1 0x1F DUP4 GT PUSH1 0x1 DUP2 EQ PUSH2 0x939 JUMPI PUSH0 DUP5 ISZERO PUSH2 0x927 JUMPI DUP3 DUP8 ADD CALLDATALOAD SWAP1 POP JUMPDEST PUSH2 0x931 DUP6 DUP3 PUSH2 0x8B9 JUMP JUMPDEST DUP7 SSTORE POP PUSH2 0x998 JUMP JUMPDEST PUSH1 0x1F NOT DUP5 AND PUSH2 0x947 DUP7 PUSH2 0x737 JUMP JUMPDEST PUSH0 JUMPDEST DUP3 DUP2 LT ISZERO PUSH2 0x96E JUMPI DUP5 DUP10 ADD CALLDATALOAD DUP3 SSTORE PUSH1 0x1 DUP3 ADD SWAP2 POP PUSH1 0x20 DUP6 ADD SWAP5 POP PUSH1 0x20 DUP2 ADD SWAP1 POP PUSH2 0x949 JUMP JUMPDEST DUP7 DUP4 LT ISZERO PUSH2 0x98B JUMPI DUP5 DUP10 ADD CALLDATALOAD PUSH2 0x987 PUSH1 0x1F DUP10 AND DUP3 PUSH2 0x89D JUMP JUMPDEST DUP4 SSTORE POP JUMPDEST PUSH1 0x1 PUSH1 0x2 DUP9 MUL ADD DUP9 SSTORE POP POP POP JUMPDEST POP POP POP POP POP POP POP JUMP JUMPDEST PUSH32 0x4E487B7100000000000000000000000000000000000000000000000000000000 PUSH0 MSTORE PUSH1 0x11 PUSH1 0x4 MSTORE PUSH1 0x24 PUSH0 REVERT JUMPDEST PUSH0 PUSH2 0x9D8 DUP3 PUSH2 0x4E7 JUMP JUMPDEST SWAP2 POP PUSH32 0xFFFFFFFFFFFFFFFFFFFFFFFFFFFFFFFFFFFFFFFFFFFFFFFFFFFFFFFFFFFFFFFF DUP3 SUB PUSH2 0xA0A JUMPI PUSH2 0xA09 PUSH2 0x9A1 JUMP JUMPDEST JUMPDEST PUSH1 0x1 DUP3 ADD SWAP1 POP SWAP2 SWAP1 POP JUMP JUMPDEST PUSH32 0x53656C66207265736574206F6E6C790000000000000000000000000000000000 PUSH0 DUP3 ADD MSTORE POP JUMP JUMPDEST PUSH0 PUSH2 0xA49 PUSH1 0xF DUP4 PUSH2 0x562 JUMP JUMPDEST SWAP2 POP PUSH2 0xA54 DUP3 PUSH2 0xA15 JUMP JUMPDEST PUSH1 0x20 DUP3 ADD SWAP1 POP SWAP2 SWAP1 POP JUMP JUMPDEST PUSH0 PUSH1 0x20 DUP3 ADD SWAP1 POP DUP2 DUP2 SUB PUSH0 DUP4 ADD MSTORE PUSH2 0xA76 DUP2 PUSH2 0xA3D JUMP JUMPDEST SWAP1 POP SWAP2 SWAP1 POP JUMP INVALID LOG2 PUSH5 0x6970667358 0x22 SLT KECCAK256 PUSH31 0xE6AED542E6B0520F7C997957E72D5CE68047A6A9DAF1DD68A3F2FE301EA019 PUSH5 0x736F6C6343 STOP ADDMOD BYTE STOP CALLER "
		},
		"gasEstimates": {
			"creation": {
				"codeDepositCost": "547800",
				"executionCost": "22684",
				"totalCost": "570484"
			},
			"external": {
				"maxWritesPerUser()": "2446",
				"resetQuota(address)": "5650",
				"store(string)": "infinite",
				"userData(address,uint256)": "infinite",
				"writeCount(address)": "2846"
			}
		},
		"methodIdentifiers": {
			"maxWritesPerUser()": "9c09de5f",
			"resetQuota(address)": "a3133521",
			"store(string)": "131a0680",
			"userData(address,uint256)": "3c05eca1",
			"writeCount(address)": "9d2aa744"
		}
	},
	"abi": [
		{
			"inputs": [],
			"name": "maxWritesPerUser",
			"outputs": [
				{
					"internalType": "uint256",
					"name": "",
					"type": "uint256"
				}
			],
			"stateMutability": "view",
			"type": "function"
		},
		{
			"inputs": [
				{
					"internalType": "address",
					"name": "user",
					"type": "address"
				}
			],
			"name": "resetQuota",
			"outputs": [],
			"stateMutability": "nonpayable",
			"type": "function"
		},
		{
			"inputs": [
				{
					"internalType": "string",
					"name": "value",
					"type": "string"
				}
			],
			"name": "store",
			"outputs": [],
			"stateMutability": "nonpayable",
			"type": "function"
		},
		{
			"inputs": [
				{
					"internalType": "address",
					"name": "",
					"type": "address"
				},
				{
					"internalType": "uint256",
					"name": "",
					"type": "uint256"
				}
			],
			"name": "userData",
			"outputs": [
				{
					"internalType": "string",
					"name": "",
					"type": "string"
				}
			],
			"stateMutability": "view",
			"type": "function"
		},
		{
			"inputs": [
				{
					"internalType": "address",
					"name": "",
					"type": "address"
				}
			],
			"name": "writeCount",
			"outputs": [
				{
					"internalType": "uint256",
					"name": "",
					"type": "uint256"
				}
			],
			"stateMutability": "view",
			"type": "function"
		}
	]
}