{
	"I/IncidentResponse/emergencyWithdrawalforusersFallback.sol": {
		"EmergencyWithdrawal": {
			"abi": [
				{
					"inputs": [],
					"name": "deposit",
					"outputs": [],
					"stateMutability": "payable",
					"type": "function"
				},
				{
					"inputs": [
						{
							"internalType": "address",
							"name": "",
							"type": "address"
						}
					],
					"name": "deposits",
					"outputs": [
						{
							"internalType": "uint256",
							"name": "",
							"type": "uint256"
						}
					],
					"stateMutability": "view",
					"type": "function"
				},
				{
					"inputs": [],
					"name": "emergency",
					"outputs": [
						{
							"internalType": "bool",
							"name": "",
							"type": "bool"
						}
					],
					"stateMutability": "view",
					"type": "function"
				},
				{
					"inputs": [],
					"name": "emergencyWithdraw",
					"outputs": [],
					"stateMutability": "nonpayable",
					"type": "function"
				},
				{
					"inputs": [
						{
							"internalType": "bool",
							"name": "state",
							"type": "bool"
						}
					],
					"name": "toggleEmergency",
					"outputs": [],
					"stateMutability": "nonpayable",
					"type": "function"
				}
			],
			"devdoc": {
				"kind": "dev",
				"methods": {},
				"version": 1
			},
			"evm": {
				"assembly": "    /* \"I/IncidentResponse/emergencyWithdrawalforusersFallback.sol\":0:521  contract EmergencyWithdrawal {... */\n  mstore(0x40, 0x80)\n    /* \"I/IncidentResponse/emergencyWithdrawalforusersFallback.sol\":108:113  false */\n  0x00\n    /* \"I/IncidentResponse/emergencyWithdrawalforusersFallback.sol\":84:113  bool public emergency = false */\n  0x01\n  exp(0x0100, 0x00)\n  dup2\n  sload\n  dup2\n  0xff\n  mul\n  not\n  and\n  swap1\n  dup4\n  iszero\n  iszero\n  mul\n  or\n  swap1\n  sstore\n  pop\n    /* \"I/IncidentResponse/emergencyWithdrawalforusersFallback.sol\":0:521  contract EmergencyWithdrawal {... */\n  callvalue\n  dup1\n  iszero\n  tag_1\n  jumpi\n  0x00\n  dup1\n  revert\ntag_1:\n  pop\n  dataSize(sub_0)\n  dup1\n  dataOffset(sub_0)\n  0x00\n  codecopy\n  0x00\n  return\nstop\n\nsub_0: assembly {\n        /* \"I/IncidentResponse/emergencyWithdrawalforusersFallback.sol\":0:521  contract EmergencyWithdrawal {... */\n      mstore(0x40, 0x80)\n      jumpi(tag_1, lt(calldatasize, 0x04))\n      shr(0xe0, calldataload(0x00))\n      dup1\n      0xcaa6fea4\n      eq\n      tag_2\n      jumpi\n      dup1\n      0xcb68bef8\n      eq\n      tag_3\n      jumpi\n      dup1\n      0xd0e30db0\n      eq\n      tag_4\n      jumpi\n      dup1\n      0xdb2e21bc\n      eq\n      tag_5\n      jumpi\n      dup1\n      0xfc7e286d\n      eq\n      tag_6\n      jumpi\n    tag_1:\n      0x00\n      dup1\n      revert\n        /* \"I/IncidentResponse/emergencyWithdrawalforusersFallback.sol\":84:113  bool public emergency = false */\n    tag_2:\n      callvalue\n      dup1\n      iszero\n      tag_7\n      jumpi\n      0x00\n      dup1\n      revert\n    tag_7:\n      pop\n      tag_8\n      tag_9\n      jump\t// in\n    tag_8:\n      mload(0x40)\n      tag_10\n      swap2\n      swap1\n      tag_11\n      jump\t// in\n    tag_10:\n      mload(0x40)\n      dup1\n      swap2\n      sub\n      swap1\n      return\n        /* \"I/IncidentResponse/emergencyWithdrawalforusersFallback.sol\":120:200  function toggleEmergency(bool state) external {... */\n    tag_3:\n      callvalue\n      dup1\n      iszero\n      tag_12\n      jumpi\n      0x00\n      dup1\n      revert\n    tag_12:\n      pop\n      tag_13\n      0x04\n      dup1\n      calldatasize\n      sub\n      dup2\n      add\n      swap1\n      tag_14\n      swap2\n      swap1\n      tag_15\n      jump\t// in\n    tag_14:\n      tag_16\n      jump\t// in\n    tag_13:\n      stop\n        /* \"I/IncidentResponse/emergencyWithdrawalforusersFallback.sol\":206:292  function deposit() external payable {... */\n    tag_4:\n      tag_17\n      tag_18\n      jump\t// in\n    tag_17:\n      stop\n        /* \"I/IncidentResponse/emergencyWithdrawalforusersFallback.sol\":298:519  function emergencyWithdraw() external {... */\n    tag_5:\n      callvalue\n      dup1\n      iszero\n      tag_19\n      jumpi\n      0x00\n      dup1\n      revert\n    tag_19:\n      pop\n      tag_20\n      tag_21\n      jump\t// in\n    tag_20:\n      stop\n        /* \"I/IncidentResponse/emergencyWithdrawalforusersFallback.sol\":35:78  mapping(address => uint256) public deposits */\n    tag_6:\n      callvalue\n      dup1\n      iszero\n      tag_22\n      jumpi\n      0x00\n      dup1\n      revert\n    tag_22:\n      pop\n      tag_23\n      0x04\n      dup1\n      calldatasize\n      sub\n      dup2\n      add\n      swap1\n      tag_24\n      swap2\n      swap1\n      tag_25\n      jump\t// in\n    tag_24:\n      tag_26\n      jump\t// in\n    tag_23:\n      mload(0x40)\n      tag_27\n      swap2\n      swap1\n      tag_28\n      jump\t// in\n    tag_27:\n      mload(0x40)\n      dup1\n      swap2\n      sub\n      swap1\n      return\n        /* \"I/IncidentResponse/emergencyWithdrawalforusersFallback.sol\":84:113  bool public emergency = false */\n    tag_9:\n      0x01\n      0x00\n      swap1\n      sload\n      swap1\n      0x0100\n      exp\n      swap1\n      div\n      0xff\n      and\n      dup2\n      jump\t// out\n        /* \"I/IncidentResponse/emergencyWithdrawalforusersFallback.sol\":120:200  function toggleEmergency(bool state) external {... */\n    tag_16:\n        /* \"I/IncidentResponse/emergencyWithdrawalforusersFallback.sol\":188:193  state */\n      dup1\n        /* \"I/IncidentResponse/emergencyWithdrawalforusersFallback.sol\":176:185  emergency */\n      0x01\n      0x00\n        /* \"I/IncidentResponse/emergencyWithdrawalforusersFallback.sol\":176:193  emergency = state */\n      0x0100\n      exp\n      dup2\n      sload\n      dup2\n      0xff\n      mul\n      not\n      and\n      swap1\n      dup4\n      iszero\n      iszero\n      mul\n      or\n      swap1\n      sstore\n      pop\n        /* \"I/IncidentResponse/emergencyWithdrawalforusersFallback.sol\":120:200  function toggleEmergency(bool state) external {... */\n      pop\n      jump\t// out\n        /* \"I/IncidentResponse/emergencyWithdrawalforusersFallback.sol\":206:292  function deposit() external payable {... */\n    tag_18:\n        /* \"I/IncidentResponse/emergencyWithdrawalforusersFallback.sol\":276:285  msg.value */\n      callvalue\n        /* \"I/IncidentResponse/emergencyWithdrawalforusersFallback.sol\":252:260  deposits */\n      0x00\n        /* \"I/IncidentResponse/emergencyWithdrawalforusersFallback.sol\":252:272  deposits[msg.sender] */\n      dup1\n        /* \"I/IncidentResponse/emergencyWithdrawalforusersFallback.sol\":261:271  msg.sender */\n      caller\n        /* \"I/IncidentResponse/emergencyWithdrawalforusersFallback.sol\":252:272  deposits[msg.sender] */\n      0xffffffffffffffffffffffffffffffffffffffff\n      and\n      0xffffffffffffffffffffffffffffffffffffffff\n      and\n      dup2\n      mstore\n      0x20\n      add\n      swap1\n      dup2\n      mstore\n      0x20\n      add\n      0x00\n      keccak256\n      0x00\n        /* \"I/IncidentResponse/emergencyWithdrawalforusersFallback.sol\":252:285  deposits[msg.sender] += msg.value */\n      dup3\n      dup3\n      sload\n      tag_31\n      swap2\n      swap1\n      tag_32\n      jump\t// in\n    tag_31:\n      swap3\n      pop\n      pop\n      dup2\n      swap1\n      sstore\n      pop\n        /* \"I/IncidentResponse/emergencyWithdrawalforusersFallback.sol\":206:292  function deposit() external payable {... */\n      jump\t// out\n        /* \"I/IncidentResponse/emergencyWithdrawalforusersFallback.sol\":298:519  function emergencyWithdraw() external {... */\n    tag_21:\n        /* \"I/IncidentResponse/emergencyWithdrawalforusersFallback.sol\":354:363  emergency */\n      0x01\n      0x00\n      swap1\n      sload\n      swap1\n      0x0100\n      exp\n      swap1\n      div\n      0xff\n      and\n        /* \"I/IncidentResponse/emergencyWithdrawalforusersFallback.sol\":346:385  require(emergency, \"Only in emergency\") */\n      tag_34\n      jumpi\n      mload(0x40)\n      0x08c379a000000000000000000000000000000000000000000000000000000000\n      dup2\n      mstore\n      0x04\n      add\n      tag_35\n      swap1\n      tag_36\n      jump\t// in\n    tag_35:\n      mload(0x40)\n      dup1\n      swap2\n      sub\n      swap1\n      revert\n    tag_34:\n        /* \"I/IncidentResponse/emergencyWithdrawalforusersFallback.sol\":395:409  uint256 amount */\n      0x00\n        /* \"I/IncidentResponse/emergencyWithdrawalforusersFallback.sol\":412:420  deposits */\n      dup1\n        /* \"I/IncidentResponse/emergencyWithdrawalforusersFallback.sol\":412:432  deposits[msg.sender] */\n      0x00\n        /* \"I/IncidentResponse/emergencyWithdrawalforusersFallback.sol\":421:431  msg.sender */\n      caller\n        /* \"I/IncidentResponse/emergencyWithdrawalforusersFallback.sol\":412:432  deposits[msg.sender] */\n      0xffffffffffffffffffffffffffffffffffffffff\n      and\n      0xffffffffffffffffffffffffffffffffffffffff\n      and\n      dup2\n      mstore\n      0x20\n      add\n      swap1\n      dup2\n      mstore\n      0x20\n      add\n      0x00\n      keccak256\n      sload\n        /* \"I/IncidentResponse/emergencyWithdrawalforusersFallback.sol\":395:432  uint256 amount = deposits[msg.sender] */\n      swap1\n      pop\n        /* \"I/IncidentResponse/emergencyWithdrawalforusersFallback.sol\":465:466  0 */\n      0x00\n        /* \"I/IncidentResponse/emergencyWithdrawalforusersFallback.sol\":442:450  deposits */\n      dup1\n        /* \"I/IncidentResponse/emergencyWithdrawalforusersFallback.sol\":442:462  deposits[msg.sender] */\n      0x00\n        /* \"I/IncidentResponse/emergencyWithdrawalforusersFallback.sol\":451:461  msg.sender */\n      caller\n        /* \"I/IncidentResponse/emergencyWithdrawalforusersFallback.sol\":442:462  deposits[msg.sender] */\n      0xffffffffffffffffffffffffffffffffffffffff\n      and\n      0xffffffffffffffffffffffffffffffffffffffff\n      and\n      dup2\n      mstore\n      0x20\n      add\n      swap1\n      dup2\n      mstore\n      0x20\n      add\n      0x00\n      keccak256\n        /* \"I/IncidentResponse/emergencyWithdrawalforusersFallback.sol\":442:466  deposits[msg.sender] = 0 */\n      dup2\n      swap1\n      sstore\n      pop\n        /* \"I/IncidentResponse/emergencyWithdrawalforusersFallback.sol\":484:494  msg.sender */\n      caller\n        /* \"I/IncidentResponse/emergencyWithdrawalforusersFallback.sol\":476:504  payable(msg.sender).transfer */\n      0xffffffffffffffffffffffffffffffffffffffff\n      and\n        /* \"I/IncidentResponse/emergencyWithdrawalforusersFallback.sol\":476:512  payable(msg.sender).transfer(amount) */\n      0x08fc\n        /* \"I/IncidentResponse/emergencyWithdrawalforusersFallback.sol\":505:511  amount */\n      dup3\n        /* \"I/IncidentResponse/emergencyWithdrawalforusersFallback.sol\":476:512  payable(msg.sender).transfer(amount) */\n      swap1\n      dup2\n      iszero\n      mul\n      swap1\n      mload(0x40)\n      0x00\n      mload(0x40)\n      dup1\n      dup4\n      sub\n      dup2\n      dup6\n      dup9\n      dup9\n      call\n      swap4\n      pop\n      pop\n      pop\n      pop\n      iszero\n      dup1\n      iszero\n      tag_38\n      jumpi\n      returndatasize\n      0x00\n      dup1\n      returndatacopy\n      revert(0x00, returndatasize)\n    tag_38:\n      pop\n        /* \"I/IncidentResponse/emergencyWithdrawalforusersFallback.sol\":336:519  {... */\n      pop\n        /* \"I/IncidentResponse/emergencyWithdrawalforusersFallback.sol\":298:519  function emergencyWithdraw() external {... */\n      jump\t// out\n        /* \"I/IncidentResponse/emergencyWithdrawalforusersFallback.sol\":35:78  mapping(address => uint256) public deposits */\n    tag_26:\n      mstore(0x20, 0x00)\n      dup1\n      0x00\n      mstore\n      keccak256(0x00, 0x40)\n      0x00\n      swap2\n      pop\n      swap1\n      pop\n      sload\n      dup2\n      jump\t// out\n        /* \"#utility.yul\":7:97   */\n    tag_39:\n        /* \"#utility.yul\":41:48   */\n      0x00\n        /* \"#utility.yul\":84:89   */\n      dup2\n        /* \"#utility.yul\":77:90   */\n      iszero\n        /* \"#utility.yul\":70:91   */\n      iszero\n        /* \"#utility.yul\":59:91   */\n      swap1\n      pop\n        /* \"#utility.yul\":7:97   */\n      swap2\n      swap1\n      pop\n      jump\t// out\n        /* \"#utility.yul\":103:212   */\n    tag_40:\n        /* \"#utility.yul\":184:205   */\n      tag_59\n        /* \"#utility.yul\":199:204   */\n      dup2\n        /* \"#utility.yul\":184:205   */\n      tag_39\n      jump\t// in\n    tag_59:\n        /* \"#utility.yul\":179:182   */\n      dup3\n        /* \"#utility.yul\":172:206   */\n      mstore\n        /* \"#utility.yul\":103:212   */\n      pop\n      pop\n      jump\t// out\n        /* \"#utility.yul\":218:428   */\n    tag_11:\n        /* \"#utility.yul\":305:309   */\n      0x00\n        /* \"#utility.yul\":343:345   */\n      0x20\n        /* \"#utility.yul\":332:341   */\n      dup3\n        /* \"#utility.yul\":328:346   */\n      add\n        /* \"#utility.yul\":320:346   */\n      swap1\n      pop\n        /* \"#utility.yul\":356:421   */\n      tag_61\n        /* \"#utility.yul\":418:419   */\n      0x00\n        /* \"#utility.yul\":407:416   */\n      dup4\n        /* \"#utility.yul\":403:420   */\n      add\n        /* \"#utility.yul\":394:400   */\n      dup5\n        /* \"#utility.yul\":356:421   */\n      tag_40\n      jump\t// in\n    tag_61:\n        /* \"#utility.yul\":218:428   */\n      swap3\n      swap2\n      pop\n      pop\n      jump\t// out\n        /* \"#utility.yul\":515:632   */\n    tag_42:\n        /* \"#utility.yul\":624:625   */\n      0x00\n        /* \"#utility.yul\":621:622   */\n      dup1\n        /* \"#utility.yul\":614:626   */\n      revert\n        /* \"#utility.yul\":761:877   */\n    tag_44:\n        /* \"#utility.yul\":831:852   */\n      tag_66\n        /* \"#utility.yul\":846:851   */\n      dup2\n        /* \"#utility.yul\":831:852   */\n      tag_39\n      jump\t// in\n    tag_66:\n        /* \"#utility.yul\":824:829   */\n      dup2\n        /* \"#utility.yul\":821:853   */\n      eq\n        /* \"#utility.yul\":811:871   */\n      tag_67\n      jumpi\n        /* \"#utility.yul\":867:868   */\n      0x00\n        /* \"#utility.yul\":864:865   */\n      dup1\n        /* \"#utility.yul\":857:869   */\n      revert\n        /* \"#utility.yul\":811:871   */\n    tag_67:\n        /* \"#utility.yul\":761:877   */\n      pop\n      jump\t// out\n        /* \"#utility.yul\":883:1016   */\n    tag_45:\n        /* \"#utility.yul\":926:931   */\n      0x00\n        /* \"#utility.yul\":964:970   */\n      dup2\n        /* \"#utility.yul\":951:971   */\n      calldataload\n        /* \"#utility.yul\":942:971   */\n      swap1\n      pop\n        /* \"#utility.yul\":980:1010   */\n      tag_69\n        /* \"#utility.yul\":1004:1009   */\n      dup2\n        /* \"#utility.yul\":980:1010   */\n      tag_44\n      jump\t// in\n    tag_69:\n        /* \"#utility.yul\":883:1016   */\n      swap3\n      swap2\n      pop\n      pop\n      jump\t// out\n        /* \"#utility.yul\":1022:1345   */\n    tag_15:\n        /* \"#utility.yul\":1078:1084   */\n      0x00\n        /* \"#utility.yul\":1127:1129   */\n      0x20\n        /* \"#utility.yul\":1115:1124   */\n      dup3\n        /* \"#utility.yul\":1106:1113   */\n      dup5\n        /* \"#utility.yul\":1102:1125   */\n      sub\n        /* \"#utility.yul\":1098:1130   */\n      slt\n        /* \"#utility.yul\":1095:1214   */\n      iszero\n      tag_71\n      jumpi\n        /* \"#utility.yul\":1133:1212   */\n      tag_72\n      tag_42\n      jump\t// in\n    tag_72:\n        /* \"#utility.yul\":1095:1214   */\n    tag_71:\n        /* \"#utility.yul\":1253:1254   */\n      0x00\n        /* \"#utility.yul\":1278:1328   */\n      tag_73\n        /* \"#utility.yul\":1320:1327   */\n      dup5\n        /* \"#utility.yul\":1311:1317   */\n      dup3\n        /* \"#utility.yul\":1300:1309   */\n      dup6\n        /* \"#utility.yul\":1296:1318   */\n      add\n        /* \"#utility.yul\":1278:1328   */\n      tag_45\n      jump\t// in\n    tag_73:\n        /* \"#utility.yul\":1268:1328   */\n      swap2\n      pop\n        /* \"#utility.yul\":1224:1338   */\n      pop\n        /* \"#utility.yul\":1022:1345   */\n      swap3\n      swap2\n      pop\n      pop\n      jump\t// out\n        /* \"#utility.yul\":1351:1477   */\n    tag_46:\n        /* \"#utility.yul\":1388:1395   */\n      0x00\n        /* \"#utility.yul\":1428:1470   */\n      0xffffffffffffffffffffffffffffffffffffffff\n        /* \"#utility.yul\":1421:1426   */\n      dup3\n        /* \"#utility.yul\":1417:1471   */\n      and\n        /* \"#utility.yul\":1406:1471   */\n      swap1\n      pop\n        /* \"#utility.yul\":1351:1477   */\n      swap2\n      swap1\n      pop\n      jump\t// out\n        /* \"#utility.yul\":1483:1579   */\n    tag_47:\n        /* \"#utility.yul\":1520:1527   */\n      0x00\n        /* \"#utility.yul\":1549:1573   */\n      tag_76\n        /* \"#utility.yul\":1567:1572   */\n      dup3\n        /* \"#utility.yul\":1549:1573   */\n      tag_46\n      jump\t// in\n    tag_76:\n        /* \"#utility.yul\":1538:1573   */\n      swap1\n      pop\n        /* \"#utility.yul\":1483:1579   */\n      swap2\n      swap1\n      pop\n      jump\t// out\n        /* \"#utility.yul\":1585:1707   */\n    tag_48:\n        /* \"#utility.yul\":1658:1682   */\n      tag_78\n        /* \"#utility.yul\":1676:1681   */\n      dup2\n        /* \"#utility.yul\":1658:1682   */\n      tag_47\n      jump\t// in\n    tag_78:\n        /* \"#utility.yul\":1651:1656   */\n      dup2\n        /* \"#utility.yul\":1648:1683   */\n      eq\n        /* \"#utility.yul\":1638:1701   */\n      tag_79\n      jumpi\n        /* \"#utility.yul\":1697:1698   */\n      0x00\n        /* \"#utility.yul\":1694:1695   */\n      dup1\n        /* \"#utility.yul\":1687:1699   */\n      revert\n        /* \"#utility.yul\":1638:1701   */\n    tag_79:\n        /* \"#utility.yul\":1585:1707   */\n      pop\n      jump\t// out\n        /* \"#utility.yul\":1713:1852   */\n    tag_49:\n        /* \"#utility.yul\":1759:1764   */\n      0x00\n        /* \"#utility.yul\":1797:1803   */\n      dup2\n        /* \"#utility.yul\":1784:1804   */\n      calldataload\n        /* \"#utility.yul\":1775:1804   */\n      swap1\n      pop\n        /* \"#utility.yul\":1813:1846   */\n      tag_81\n        /* \"#utility.yul\":1840:1845   */\n      dup2\n        /* \"#utility.yul\":1813:1846   */\n      tag_48\n      jump\t// in\n    tag_81:\n        /* \"#utility.yul\":1713:1852   */\n      swap3\n      swap2\n      pop\n      pop\n      jump\t// out\n        /* \"#utility.yul\":1858:2187   */\n    tag_25:\n        /* \"#utility.yul\":1917:1923   */\n      0x00\n        /* \"#utility.yul\":1966:1968   */\n      0x20\n        /* \"#utility.yul\":1954:1963   */\n      dup3\n        /* \"#utility.yul\":1945:1952   */\n      dup5\n        /* \"#utility.yul\":1941:1964   */\n      sub\n        /* \"#utility.yul\":1937:1969   */\n      slt\n        /* \"#utility.yul\":1934:2053   */\n      iszero\n      tag_83\n      jumpi\n        /* \"#utility.yul\":1972:2051   */\n      tag_84\n      tag_42\n      jump\t// in\n    tag_84:\n        /* \"#utility.yul\":1934:2053   */\n    tag_83:\n        /* \"#utility.yul\":2092:2093   */\n      0x00\n        /* \"#utility.yul\":2117:2170   */\n      tag_85\n        /* \"#utility.yul\":2162:2169   */\n      dup5\n        /* \"#utility.yul\":2153:2159   */\n      dup3\n        /* \"#utility.yul\":2142:2151   */\n      dup6\n        /* \"#utility.yul\":2138:2160   */\n      add\n        /* \"#utility.yul\":2117:2170   */\n      tag_49\n      jump\t// in\n    tag_85:\n        /* \"#utility.yul\":2107:2170   */\n      swap2\n      pop\n        /* \"#utility.yul\":2063:2180   */\n      pop\n        /* \"#utility.yul\":1858:2187   */\n      swap3\n      swap2\n      pop\n      pop\n      jump\t// out\n        /* \"#utility.yul\":2193:2270   */\n    tag_50:\n        /* \"#utility.yul\":2230:2237   */\n      0x00\n        /* \"#utility.yul\":2259:2264   */\n      dup2\n        /* \"#utility.yul\":2248:2264   */\n      swap1\n      pop\n        /* \"#utility.yul\":2193:2270   */\n      swap2\n      swap1\n      pop\n      jump\t// out\n        /* \"#utility.yul\":2276:2394   */\n    tag_51:\n        /* \"#utility.yul\":2363:2387   */\n      tag_88\n        /* \"#utility.yul\":2381:2386   */\n      dup2\n        /* \"#utility.yul\":2363:2387   */\n      tag_50\n      jump\t// in\n    tag_88:\n        /* \"#utility.yul\":2358:2361   */\n      dup3\n        /* \"#utility.yul\":2351:2388   */\n      mstore\n        /* \"#utility.yul\":2276:2394   */\n      pop\n      pop\n      jump\t// out\n        /* \"#utility.yul\":2400:2622   */\n    tag_28:\n        /* \"#utility.yul\":2493:2497   */\n      0x00\n        /* \"#utility.yul\":2531:2533   */\n      0x20\n        /* \"#utility.yul\":2520:2529   */\n      dup3\n        /* \"#utility.yul\":2516:2534   */\n      add\n        /* \"#utility.yul\":2508:2534   */\n      swap1\n      pop\n        /* \"#utility.yul\":2544:2615   */\n      tag_90\n        /* \"#utility.yul\":2612:2613   */\n      0x00\n        /* \"#utility.yul\":2601:2610   */\n      dup4\n        /* \"#utility.yul\":2597:2614   */\n      add\n        /* \"#utility.yul\":2588:2594   */\n      dup5\n        /* \"#utility.yul\":2544:2615   */\n      tag_51\n      jump\t// in\n    tag_90:\n        /* \"#utility.yul\":2400:2622   */\n      swap3\n      swap2\n      pop\n      pop\n      jump\t// out\n        /* \"#utility.yul\":2628:2808   */\n    tag_52:\n        /* \"#utility.yul\":2676:2753   */\n      0x4e487b7100000000000000000000000000000000000000000000000000000000\n        /* \"#utility.yul\":2673:2674   */\n      0x00\n        /* \"#utility.yul\":2666:2754   */\n      mstore\n        /* \"#utility.yul\":2773:2777   */\n      0x11\n        /* \"#utility.yul\":2770:2771   */\n      0x04\n        /* \"#utility.yul\":2763:2778   */\n      mstore\n        /* \"#utility.yul\":2797:2801   */\n      0x24\n        /* \"#utility.yul\":2794:2795   */\n      0x00\n        /* \"#utility.yul\":2787:2802   */\n      revert\n        /* \"#utility.yul\":2814:3005   */\n    tag_32:\n        /* \"#utility.yul\":2854:2857   */\n      0x00\n        /* \"#utility.yul\":2873:2893   */\n      tag_93\n        /* \"#utility.yul\":2891:2892   */\n      dup3\n        /* \"#utility.yul\":2873:2893   */\n      tag_50\n      jump\t// in\n    tag_93:\n        /* \"#utility.yul\":2868:2893   */\n      swap2\n      pop\n        /* \"#utility.yul\":2907:2927   */\n      tag_94\n        /* \"#utility.yul\":2925:2926   */\n      dup4\n        /* \"#utility.yul\":2907:2927   */\n      tag_50\n      jump\t// in\n    tag_94:\n        /* \"#utility.yul\":2902:2927   */\n      swap3\n      pop\n        /* \"#utility.yul\":2950:2951   */\n      dup3\n        /* \"#utility.yul\":2947:2948   */\n      dup3\n        /* \"#utility.yul\":2943:2952   */\n      add\n        /* \"#utility.yul\":2936:2952   */\n      swap1\n      pop\n        /* \"#utility.yul\":2971:2974   */\n      dup1\n        /* \"#utility.yul\":2968:2969   */\n      dup3\n        /* \"#utility.yul\":2965:2975   */\n      gt\n        /* \"#utility.yul\":2962:2998   */\n      iszero\n      tag_95\n      jumpi\n        /* \"#utility.yul\":2978:2996   */\n      tag_96\n      tag_52\n      jump\t// in\n    tag_96:\n        /* \"#utility.yul\":2962:2998   */\n    tag_95:\n        /* \"#utility.yul\":2814:3005   */\n      swap3\n      swap2\n      pop\n      pop\n      jump\t// out\n        /* \"#utility.yul\":3011:3180   */\n    tag_53:\n        /* \"#utility.yul\":3095:3106   */\n      0x00\n        /* \"#utility.yul\":3129:3135   */\n      dup3\n        /* \"#utility.yul\":3124:3127   */\n      dup3\n        /* \"#utility.yul\":3117:3136   */\n      mstore\n        /* \"#utility.yul\":3169:3173   */\n      0x20\n        /* \"#utility.yul\":3164:3167   */\n      dup3\n        /* \"#utility.yul\":3160:3174   */\n      add\n        /* \"#utility.yul\":3145:3174   */\n      swap1\n      pop\n        /* \"#utility.yul\":3011:3180   */\n      swap3\n      swap2\n      pop\n      pop\n      jump\t// out\n        /* \"#utility.yul\":3186:3353   */\n    tag_54:\n        /* \"#utility.yul\":3326:3345   */\n      0x4f6e6c7920696e20656d657267656e6379000000000000000000000000000000\n        /* \"#utility.yul\":3322:3323   */\n      0x00\n        /* \"#utility.yul\":3314:3320   */\n      dup3\n        /* \"#utility.yul\":3310:3324   */\n      add\n        /* \"#utility.yul\":3303:3346   */\n      mstore\n        /* \"#utility.yul\":3186:3353   */\n      pop\n      jump\t// out\n        /* \"#utility.yul\":3359:3725   */\n    tag_55:\n        /* \"#utility.yul\":3501:3504   */\n      0x00\n        /* \"#utility.yul\":3522:3589   */\n      tag_100\n        /* \"#utility.yul\":3586:3588   */\n      0x11\n        /* \"#utility.yul\":3581:3584   */\n      dup4\n        /* \"#utility.yul\":3522:3589   */\n      tag_53\n      jump\t// in\n    tag_100:\n        /* \"#utility.yul\":3515:3589   */\n      swap2\n      pop\n        /* \"#utility.yul\":3598:3691   */\n      tag_101\n        /* \"#utility.yul\":3687:3690   */\n      dup3\n        /* \"#utility.yul\":3598:3691   */\n      tag_54\n      jump\t// in\n    tag_101:\n        /* \"#utility.yul\":3716:3718   */\n      0x20\n        /* \"#utility.yul\":3711:3714   */\n      dup3\n        /* \"#utility.yul\":3707:3719   */\n      add\n        /* \"#utility.yul\":3700:3719   */\n      swap1\n      pop\n        /* \"#utility.yul\":3359:3725   */\n      swap2\n      swap1\n      pop\n      jump\t// out\n        /* \"#utility.yul\":3731:4150   */\n    tag_36:\n        /* \"#utility.yul\":3897:3901   */\n      0x00\n        /* \"#utility.yul\":3935:3937   */\n      0x20\n        /* \"#utility.yul\":3924:3933   */\n      dup3\n        /* \"#utility.yul\":3920:3938   */\n      add\n        /* \"#utility.yul\":3912:3938   */\n      swap1\n      pop\n        /* \"#utility.yul\":3984:3993   */\n      dup2\n        /* \"#utility.yul\":3978:3982   */\n      dup2\n        /* \"#utility.yul\":3974:3994   */\n      sub\n        /* \"#utility.yul\":3970:3971   */\n      0x00\n        /* \"#utility.yul\":3959:3968   */\n      dup4\n        /* \"#utility.yul\":3955:3972   */\n      add\n        /* \"#utility.yul\":3948:3995   */\n      mstore\n        /* \"#utility.yul\":4012:4143   */\n      tag_103\n        /* \"#utility.yul\":4138:4142   */\n      dup2\n        /* \"#utility.yul\":4012:4143   */\n      tag_55\n      jump\t// in\n    tag_103:\n        /* \"#utility.yul\":4004:4143   */\n      swap1\n      pop\n        /* \"#utility.yul\":3731:4150   */\n      swap2\n      swap1\n      pop\n      jump\t// out\n\n    auxdata: 0xa264697066735822122042325ef6d6bfa3d70b972a26bc1f1047fb7094294506e31ee4cafe75e3d4c24b64736f6c634300081a0033\n}\n",
				"bytecode": {
					"linkReferences": {},
					"object": "60806040525f60015f6101000a81548160ff0219169083151502179055503480156027575f80fd5b506104f7806100355f395ff3fe608060405260043610610049575f3560e01c8063caa6fea41461004d578063cb68bef814610077578063d0e30db01461009f578063db2e21bc146100a9578063fc7e286d146100bf575b5f80fd5b348015610058575f80fd5b506100616100fb565b60405161006e91906102c1565b60405180910390f35b348015610082575f80fd5b5061009d60048036038101906100989190610308565b61010d565b005b6100a7610129565b005b3480156100b4575f80fd5b506100bd61017d565b005b3480156100ca575f80fd5b506100e560048036038101906100e0919061038d565b610293565b6040516100f291906103d0565b60405180910390f35b60015f9054906101000a900460ff1681565b8060015f6101000a81548160ff02191690831515021790555050565b345f803373ffffffffffffffffffffffffffffffffffffffff1673ffffffffffffffffffffffffffffffffffffffff1681526020019081526020015f205f8282546101749190610416565b92505081905550565b60015f9054906101000a900460ff166101cb576040517f08c379a00000000000000000000000000000000000000000000000000000000081526004016101c2906104a3565b60405180910390fd5b5f805f3373ffffffffffffffffffffffffffffffffffffffff1673ffffffffffffffffffffffffffffffffffffffff1681526020019081526020015f205490505f805f3373ffffffffffffffffffffffffffffffffffffffff1673ffffffffffffffffffffffffffffffffffffffff1681526020019081526020015f20819055503373ffffffffffffffffffffffffffffffffffffffff166108fc8290811502906040515f60405180830381858888f1935050505015801561028f573d5f803e3d5ffd5b5050565b5f602052805f5260405f205f915090505481565b5f8115159050919050565b6102bb816102a7565b82525050565b5f6020820190506102d45f8301846102b2565b92915050565b5f80fd5b6102e7816102a7565b81146102f1575f80fd5b50565b5f81359050610302816102de565b92915050565b5f6020828403121561031d5761031c6102da565b5b5f61032a848285016102f4565b91505092915050565b5f73ffffffffffffffffffffffffffffffffffffffff82169050919050565b5f61035c82610333565b9050919050565b61036c81610352565b8114610376575f80fd5b50565b5f8135905061038781610363565b92915050565b5f602082840312156103a2576103a16102da565b5b5f6103af84828501610379565b91505092915050565b5f819050919050565b6103ca816103b8565b82525050565b5f6020820190506103e35f8301846103c1565b92915050565b7f4e487b71000000000000000000000000000000000000000000000000000000005f52601160045260245ffd5b5f610420826103b8565b915061042b836103b8565b9250828201905080821115610443576104426103e9565b5b92915050565b5f82825260208201905092915050565b7f4f6e6c7920696e20656d657267656e63790000000000000000000000000000005f82015250565b5f61048d601183610449565b915061049882610459565b602082019050919050565b5f6020820190508181035f8301526104ba81610481565b905091905056fea264697066735822122042325ef6d6bfa3d70b972a26bc1f1047fb7094294506e31ee4cafe75e3d4c24b64736f6c634300081a0033",
					"opcodes": "PUSH1 0x80 PUSH1 0x40 MSTORE PUSH0 PUSH1 0x1 PUSH0 PUSH2 0x100 EXP DUP2 SLOAD DUP2 PUSH1 0xFF MUL NOT AND SWAP1 DUP4 ISZERO ISZERO MUL OR SWAP1 SSTORE POP CALLVALUE DUP1 ISZERO PUSH1 0x27 JUMPI PUSH0 DUP1 REVERT JUMPDEST POP PUSH2 0x4F7 DUP1 PUSH2 0x35 PUSH0 CODECOPY PUSH0 RETURN INVALID PUSH1 0x80 PUSH1 0x40 MSTORE PUSH1 0x4 CALLDATASIZE LT PUSH2 0x49 JUMPI PUSH0 CALLDATALOAD PUSH1 0xE0 SHR DUP1 PUSH4 0xCAA6FEA4 EQ PUSH2 0x4D JUMPI DUP1 PUSH4 0xCB68BEF8 EQ PUSH2 0x77 JUMPI DUP1 PUSH4 0xD0E30DB0 EQ PUSH2 0x9F JUMPI DUP1 PUSH4 0xDB2E21BC EQ PUSH2 0xA9 JUMPI DUP1 PUSH4 0xFC7E286D EQ PUSH2 0xBF JUMPI JUMPDEST PUSH0 DUP1 REVERT JUMPDEST CALLVALUE DUP1 ISZERO PUSH2 0x58 JUMPI PUSH0 DUP1 REVERT JUMPDEST POP PUSH2 0x61 PUSH2 0xFB JUMP JUMPDEST PUSH1 0x40 MLOAD PUSH2 0x6E SWAP2 SWAP1 PUSH2 0x2C1 JUMP JUMPDEST PUSH1 0x40 MLOAD DUP1 SWAP2 SUB SWAP1 RETURN JUMPDEST CALLVALUE DUP1 ISZERO PUSH2 0x82 JUMPI PUSH0 DUP1 REVERT JUMPDEST POP PUSH2 0x9D PUSH1 0x4 DUP1 CALLDATASIZE SUB DUP2 ADD SWAP1 PUSH2 0x98 SWAP2 SWAP1 PUSH2 0x308 JUMP JUMPDEST PUSH2 0x10D JUMP JUMPDEST STOP JUMPDEST PUSH2 0xA7 PUSH2 0x129 JUMP JUMPDEST STOP JUMPDEST CALLVALUE DUP1 ISZERO PUSH2 0xB4 JUMPI PUSH0 DUP1 REVERT JUMPDEST POP PUSH2 0xBD PUSH2 0x17D JUMP JUMPDEST STOP JUMPDEST CALLVALUE DUP1 ISZERO PUSH2 0xCA JUMPI PUSH0 DUP1 REVERT JUMPDEST POP PUSH2 0xE5 PUSH1 0x4 DUP1 CALLDATASIZE SUB DUP2 ADD SWAP1 PUSH2 0xE0 SWAP2 SWAP1 PUSH2 0x38D JUMP JUMPDEST PUSH2 0x293 JUMP JUMPDEST PUSH1 0x40 MLOAD PUSH2 0xF2 SWAP2 SWAP1 PUSH2 0x3D0 JUMP JUMPDEST PUSH1 0x40 MLOAD DUP1 SWAP2 SUB SWAP1 RETURN JUMPDEST PUSH1 0x1 PUSH0 SWAP1 SLOAD SWAP1 PUSH2 0x100 EXP SWAP1 DIV PUSH1 0xFF AND DUP2 JUMP JUMPDEST DUP1 PUSH1 0x1 PUSH0 PUSH2 0x100 EXP DUP2 SLOAD DUP2 PUSH1 0xFF MUL NOT AND SWAP1 DUP4 ISZERO ISZERO MUL OR SWAP1 SSTORE POP POP JUMP JUMPDEST CALLVALUE PUSH0 DUP1 CALLER PUSH20 0xFFFFFFFFFFFFFFFFFFFFFFFFFFFFFFFFFFFFFFFF AND PUSH20 0xFFFFFFFFFFFFFFFFFFFFFFFFFFFFFFFFFFFFFFFF AND DUP2 MSTORE PUSH1 0x20 ADD SWAP1 DUP2 MSTORE PUSH1 0x20 ADD PUSH0 KECCAK256 PUSH0 DUP3 DUP3 SLOAD PUSH2 0x174 SWAP2 SWAP1 PUSH2 0x416 JUMP JUMPDEST SWAP3 POP POP DUP2 SWAP1 SSTORE POP JUMP JUMPDEST PUSH1 0x1 PUSH0 SWAP1 SLOAD SWAP1 PUSH2 0x100 EXP SWAP1 DIV PUSH1 0xFF AND PUSH2 0x1CB JUMPI PUSH1 0x40 MLOAD PUSH32 0x8C379A000000000000000000000000000000000000000000000000000000000 DUP2 MSTORE PUSH1 0x4 ADD PUSH2 0x1C2 SWAP1 PUSH2 0x4A3 JUMP JUMPDEST PUSH1 0x40 MLOAD DUP1 SWAP2 SUB SWAP1 REVERT JUMPDEST PUSH0 DUP1 PUSH0 CALLER PUSH20 0xFFFFFFFFFFFFFFFFFFFFFFFFFFFFFFFFFFFFFFFF AND PUSH20 0xFFFFFFFFFFFFFFFFFFFFFFFFFFFFFFFFFFFFFFFF AND DUP2 MSTORE PUSH1 0x20 ADD SWAP1 DUP2 MSTORE PUSH1 0x20 ADD PUSH0 KECCAK256 SLOAD SWAP1 POP PUSH0 DUP1 PUSH0 CALLER PUSH20 0xFFFFFFFFFFFFFFFFFFFFFFFFFFFFFFFFFFFFFFFF AND PUSH20 0xFFFFFFFFFFFFFFFFFFFFFFFFFFFFFFFFFFFFFFFF AND DUP2 MSTORE PUSH1 0x20 ADD SWAP1 DUP2 MSTORE PUSH1 0x20 ADD PUSH0 KECCAK256 DUP2 SWAP1 SSTORE POP CALLER PUSH20 0xFFFFFFFFFFFFFFFFFFFFFFFFFFFFFFFFFFFFFFFF AND PUSH2 0x8FC DUP3 SWAP1 DUP2 ISZERO MUL SWAP1 PUSH1 0x40 MLOAD PUSH0 PUSH1 0x40 MLOAD DUP1 DUP4 SUB DUP2 DUP6 DUP9 DUP9 CALL SWAP4 POP POP POP POP ISZERO DUP1 ISZERO PUSH2 0x28F JUMPI RETURNDATASIZE PUSH0 DUP1 RETURNDATACOPY RETURNDATASIZE PUSH0 REVERT JUMPDEST POP POP JUMP JUMPDEST PUSH0 PUSH1 0x20 MSTORE DUP1 PUSH0 MSTORE PUSH1 0x40 PUSH0 KECCAK256 PUSH0 SWAP2 POP SWAP1 POP SLOAD DUP2 JUMP JUMPDEST PUSH0 DUP2 ISZERO ISZERO SWAP1 POP SWAP2 SWAP1 POP JUMP JUMPDEST PUSH2 0x2BB DUP2 PUSH2 0x2A7 JUMP JUMPDEST DUP3 MSTORE POP POP JUMP JUMPDEST PUSH0 PUSH1 0x20 DUP3 ADD SWAP1 POP PUSH2 0x2D4 PUSH0 DUP4 ADD DUP5 PUSH2 0x2B2 JUMP JUMPDEST SWAP3 SWAP2 POP POP JUMP JUMPDEST PUSH0 DUP1 REVERT JUMPDEST PUSH2 0x2E7 DUP2 PUSH2 0x2A7 JUMP JUMPDEST DUP2 EQ PUSH2 0x2F1 JUMPI PUSH0 DUP1 REVERT JUMPDEST POP JUMP JUMPDEST PUSH0 DUP2 CALLDATALOAD SWAP1 POP PUSH2 0x302 DUP2 PUSH2 0x2DE JUMP JUMPDEST SWAP3 SWAP2 POP POP JUMP JUMPDEST PUSH0 PUSH1 0x20 DUP3 DUP5 SUB SLT ISZERO PUSH2 0x31D JUMPI PUSH2 0x31C PUSH2 0x2DA JUMP JUMPDEST JUMPDEST PUSH0 PUSH2 0x32A DUP5 DUP3 DUP6 ADD PUSH2 0x2F4 JUMP JUMPDEST SWAP2 POP POP SWAP3 SWAP2 POP POP JUMP JUMPDEST PUSH0 PUSH20 0xFFFFFFFFFFFFFFFFFFFFFFFFFFFFFFFFFFFFFFFF DUP3 AND SWAP1 POP SWAP2 SWAP1 POP JUMP JUMPDEST PUSH0 PUSH2 0x35C DUP3 PUSH2 0x333 JUMP JUMPDEST SWAP1 POP SWAP2 SWAP1 POP JUMP JUMPDEST PUSH2 0x36C DUP2 PUSH2 0x352 JUMP JUMPDEST DUP2 EQ PUSH2 0x376 JUMPI PUSH0 DUP1 REVERT JUMPDEST POP JUMP JUMPDEST PUSH0 DUP2 CALLDATALOAD SWAP1 POP PUSH2 0x387 DUP2 PUSH2 0x363 JUMP JUMPDEST SWAP3 SWAP2 POP POP JUMP JUMPDEST PUSH0 PUSH1 0x20 DUP3 DUP5 SUB SLT ISZERO PUSH2 0x3A2 JUMPI PUSH2 0x3A1 PUSH2 0x2DA JUMP JUMPDEST JUMPDEST PUSH0 PUSH2 0x3AF DUP5 DUP3 DUP6 ADD PUSH2 0x379 JUMP JUMPDEST SWAP2 POP POP SWAP3 SWAP2 POP POP JUMP JUMPDEST PUSH0 DUP2 SWAP1 POP SWAP2 SWAP1 POP JUMP JUMPDEST PUSH2 0x3CA DUP2 PUSH2 0x3B8 JUMP JUMPDEST DUP3 MSTORE POP POP JUMP JUMPDEST PUSH0 PUSH1 0x20 DUP3 ADD SWAP1 POP PUSH2 0x3E3 PUSH0 DUP4 ADD DUP5 PUSH2 0x3C1 JUMP JUMPDEST SWAP3 SWAP2 POP POP JUMP JUMPDEST PUSH32 0x4E487B7100000000000000000000000000000000000000000000000000000000 PUSH0 MSTORE PUSH1 0x11 PUSH1 0x4 MSTORE PUSH1 0x24 PUSH0 REVERT JUMPDEST PUSH0 PUSH2 0x420 DUP3 PUSH2 0x3B8 JUMP JUMPDEST SWAP2 POP PUSH2 0x42B DUP4 PUSH2 0x3B8 JUMP JUMPDEST SWAP3 POP DUP3 DUP3 ADD SWAP1 POP DUP1 DUP3 GT ISZERO PUSH2 0x443 JUMPI PUSH2 0x442 PUSH2 0x3E9 JUMP JUMPDEST JUMPDEST SWAP3 SWAP2 POP POP JUMP JUMPDEST PUSH0 DUP3 DUP3 MSTORE PUSH1 0x20 DUP3 ADD SWAP1 POP SWAP3 SWAP2 POP POP JUMP JUMPDEST PUSH32 0x4F6E6C7920696E20656D657267656E6379000000000000000000000000000000 PUSH0 DUP3 ADD MSTORE POP JUMP JUMPDEST PUSH0 PUSH2 0x48D PUSH1 0x11 DUP4 PUSH2 0x449 JUMP JUMPDEST SWAP2 POP PUSH2 0x498 DUP3 PUSH2 0x459 JUMP JUMPDEST PUSH1 0x20 DUP3 ADD SWAP1 POP SWAP2 SWAP1 POP JUMP JUMPDEST PUSH0 PUSH1 0x20 DUP3 ADD SWAP1 POP DUP2 DUP2 SUB PUSH0 DUP4 ADD MSTORE PUSH2 0x4BA DUP2 PUSH2 0x481 JUMP JUMPDEST SWAP1 POP SWAP2 SWAP1 POP JUMP INVALID LOG2 PUSH5 0x6970667358 0x22 SLT KECCAK256 TIMESTAMP ORIGIN MCOPY 0xF6 0xD6 0xBF LOG3 0xD7 SIGNEXTEND SWAP8 0x2A 0x26 0xBC 0x1F LT SELFBALANCE 0xFB PUSH17 0x94294506E31EE4CAFE75E3D4C24B64736F PUSH13 0x634300081A0033000000000000 "
				},
				"gasEstimates": {
					"creation": {
						"codeDepositCost": "254200",
						"executionCost": "24557",
						"totalCost": "278757"
					},
					"external": {
						"deposit()": "infinite",
						"deposits(address)": "2867",
						"emergency()": "2444",
						"emergencyWithdraw()": "infinite",
						"toggleEmergency(bool)": "24673"
					}
				},
				"methodIdentifiers": {
					"deposit()": "d0e30db0",
					"deposits(address)": "fc7e286d",
					"emergency()": "caa6fea4",
					"emergencyWithdraw()": "db2e21bc",
					"toggleEmergency(bool)": "cb68bef8"
				}
			},
			"storageLayout": {
				"storage": [
					{
						"astId": 4,
						"contract": "I/IncidentResponse/emergencyWithdrawalforusersFallback.sol:EmergencyWithdrawal",
						"label": "deposits",
						"offset": 0,
						"slot": "0",
						"type": "t_mapping(t_address,t_uint256)"
					},
					{
						"astId": 7,
						"contract": "I/IncidentResponse/emergencyWithdrawalforusersFallback.sol:EmergencyWithdrawal",
						"label": "emergency",
						"offset": 0,
						"slot": "1",
						"type": "t_bool"
					}
				],
				"types": {
					"t_address": {
						"encoding": "inplace",
						"label": "address",
						"numberOfBytes": "20"
					},
					"t_bool": {
						"encoding": "inplace",
						"label": "bool",
						"numberOfBytes": "1"
					},
					"t_mapping(t_address,t_uint256)": {
						"encoding": "mapping",
						"key": "t_address",
						"label": "mapping(address => uint256)",
						"numberOfBytes": "32",
						"value": "t_uint256"
					},
					"t_uint256": {
						"encoding": "inplace",
						"label": "uint256",
						"numberOfBytes": "32"
					}
				}
			},
			"userdoc": {
				"kind": "user",
				"methods": {},
				"version": 1
			}
		}
	}
}