{
	"R/Routing Loop/LoopRouterB.sol": {
		"LoopRouterB": {
			"abi": [
				{
					"inputs": [
						{
							"internalType": "address",
							"name": "_a",
							"type": "address"
						}
					],
					"stateMutability": "nonpayable",
					"type": "constructor"
				},
				{
					"inputs": [
						{
							"internalType": "uint256",
							"name": "value",
							"type": "uint256"
						}
					],
					"name": "bounceBack",
					"outputs": [],
					"stateMutability": "nonpayable",
					"type": "function"
				},
				{
					"inputs": [],
					"name": "routerA",
					"outputs": [
						{
							"internalType": "address",
							"name": "",
							"type": "address"
						}
					],
					"stateMutability": "view",
					"type": "function"
				}
			],
			"devdoc": {
				"kind": "dev",
				"methods": {},
				"version": 1
			},
			"evm": {
				"assembly": "    /* \"R/Routing Loop/LoopRouterB.sol\":77:337  contract LoopRouterB {... */\n  mstore(0x40, 0x80)\n    /* \"R/Routing Loop/LoopRouterB.sol\":133:186  constructor(address _a) {... */\n  callvalue\n  dup1\n  iszero\n  tag_1\n  jumpi\n  0x00\n  dup1\n  revert\ntag_1:\n  pop\n  mload(0x40)\n  sub(codesize, bytecodeSize)\n  dup1\n  bytecodeSize\n  dup4\n  codecopy\n  dup2\n  dup2\n  add\n  0x40\n  mstore\n  dup2\n  add\n  swap1\n  tag_2\n  swap2\n  swap1\n  tag_3\n  jump\t// in\ntag_2:\n    /* \"R/Routing Loop/LoopRouterB.sol\":177:179  _a */\n  dup1\n    /* \"R/Routing Loop/LoopRouterB.sol\":167:174  routerA */\n  0x00\n  dup1\n    /* \"R/Routing Loop/LoopRouterB.sol\":167:179  routerA = _a */\n  0x0100\n  exp\n  dup2\n  sload\n  dup2\n  0xffffffffffffffffffffffffffffffffffffffff\n  mul\n  not\n  and\n  swap1\n  dup4\n  0xffffffffffffffffffffffffffffffffffffffff\n  and\n  mul\n  or\n  swap1\n  sstore\n  pop\n    /* \"R/Routing Loop/LoopRouterB.sol\":133:186  constructor(address _a) {... */\n  pop\n    /* \"R/Routing Loop/LoopRouterB.sol\":77:337  contract LoopRouterB {... */\n  jump(tag_6)\n    /* \"#utility.yul\":88:205   */\ntag_8:\n    /* \"#utility.yul\":197:198   */\n  0x00\n    /* \"#utility.yul\":194:195   */\n  dup1\n    /* \"#utility.yul\":187:199   */\n  revert\n    /* \"#utility.yul\":334:460   */\ntag_10:\n    /* \"#utility.yul\":371:378   */\n  0x00\n    /* \"#utility.yul\":411:453   */\n  0xffffffffffffffffffffffffffffffffffffffff\n    /* \"#utility.yul\":404:409   */\n  dup3\n    /* \"#utility.yul\":400:454   */\n  and\n    /* \"#utility.yul\":389:454   */\n  swap1\n  pop\n    /* \"#utility.yul\":334:460   */\n  swap2\n  swap1\n  pop\n  jump\t// out\n    /* \"#utility.yul\":466:562   */\ntag_11:\n    /* \"#utility.yul\":503:510   */\n  0x00\n    /* \"#utility.yul\":532:556   */\n  tag_20\n    /* \"#utility.yul\":550:555   */\n  dup3\n    /* \"#utility.yul\":532:556   */\n  tag_10\n  jump\t// in\ntag_20:\n    /* \"#utility.yul\":521:556   */\n  swap1\n  pop\n    /* \"#utility.yul\":466:562   */\n  swap2\n  swap1\n  pop\n  jump\t// out\n    /* \"#utility.yul\":568:690   */\ntag_12:\n    /* \"#utility.yul\":641:665   */\n  tag_22\n    /* \"#utility.yul\":659:664   */\n  dup2\n    /* \"#utility.yul\":641:665   */\n  tag_11\n  jump\t// in\ntag_22:\n    /* \"#utility.yul\":634:639   */\n  dup2\n    /* \"#utility.yul\":631:666   */\n  eq\n    /* \"#utility.yul\":621:684   */\n  tag_23\n  jumpi\n    /* \"#utility.yul\":680:681   */\n  0x00\n    /* \"#utility.yul\":677:678   */\n  dup1\n    /* \"#utility.yul\":670:682   */\n  revert\n    /* \"#utility.yul\":621:684   */\ntag_23:\n    /* \"#utility.yul\":568:690   */\n  pop\n  jump\t// out\n    /* \"#utility.yul\":696:839   */\ntag_13:\n    /* \"#utility.yul\":753:758   */\n  0x00\n    /* \"#utility.yul\":784:790   */\n  dup2\n    /* \"#utility.yul\":778:791   */\n  mload\n    /* \"#utility.yul\":769:791   */\n  swap1\n  pop\n    /* \"#utility.yul\":800:833   */\n  tag_25\n    /* \"#utility.yul\":827:832   */\n  dup2\n    /* \"#utility.yul\":800:833   */\n  tag_12\n  jump\t// in\ntag_25:\n    /* \"#utility.yul\":696:839   */\n  swap3\n  swap2\n  pop\n  pop\n  jump\t// out\n    /* \"#utility.yul\":845:1196   */\ntag_3:\n    /* \"#utility.yul\":915:921   */\n  0x00\n    /* \"#utility.yul\":964:966   */\n  0x20\n    /* \"#utility.yul\":952:961   */\n  dup3\n    /* \"#utility.yul\":943:950   */\n  dup5\n    /* \"#utility.yul\":939:962   */\n  sub\n    /* \"#utility.yul\":935:967   */\n  slt\n    /* \"#utility.yul\":932:1051   */\n  iszero\n  tag_27\n  jumpi\n    /* \"#utility.yul\":970:1049   */\n  tag_28\n  tag_8\n  jump\t// in\ntag_28:\n    /* \"#utility.yul\":932:1051   */\ntag_27:\n    /* \"#utility.yul\":1090:1091   */\n  0x00\n    /* \"#utility.yul\":1115:1179   */\n  tag_29\n    /* \"#utility.yul\":1171:1178   */\n  dup5\n    /* \"#utility.yul\":1162:1168   */\n  dup3\n    /* \"#utility.yul\":1151:1160   */\n  dup6\n    /* \"#utility.yul\":1147:1169   */\n  add\n    /* \"#utility.yul\":1115:1179   */\n  tag_13\n  jump\t// in\ntag_29:\n    /* \"#utility.yul\":1105:1179   */\n  swap2\n  pop\n    /* \"#utility.yul\":1061:1189   */\n  pop\n    /* \"#utility.yul\":845:1196   */\n  swap3\n  swap2\n  pop\n  pop\n  jump\t// out\n    /* \"R/Routing Loop/LoopRouterB.sol\":77:337  contract LoopRouterB {... */\ntag_6:\n  dataSize(sub_0)\n  dup1\n  dataOffset(sub_0)\n  0x00\n  codecopy\n  0x00\n  return\nstop\n\nsub_0: assembly {\n        /* \"R/Routing Loop/LoopRouterB.sol\":77:337  contract LoopRouterB {... */\n      mstore(0x40, 0x80)\n      callvalue\n      dup1\n      iszero\n      tag_1\n      jumpi\n      0x00\n      dup1\n      revert\n    tag_1:\n      pop\n      jumpi(tag_2, lt(calldatasize, 0x04))\n      shr(0xe0, calldataload(0x00))\n      dup1\n      0x65434da7\n      eq\n      tag_3\n      jumpi\n      dup1\n      0xfdfec8eb\n      eq\n      tag_4\n      jumpi\n    tag_2:\n      0x00\n      dup1\n      revert\n        /* \"R/Routing Loop/LoopRouterB.sol\":104:126  address public routerA */\n    tag_3:\n      tag_5\n      tag_6\n      jump\t// in\n    tag_5:\n      mload(0x40)\n      tag_7\n      swap2\n      swap1\n      tag_8\n      jump\t// in\n    tag_7:\n      mload(0x40)\n      dup1\n      swap2\n      sub\n      swap1\n      return\n        /* \"R/Routing Loop/LoopRouterB.sol\":192:335  function bounceBack(uint256 value) external {... */\n    tag_4:\n      tag_9\n      0x04\n      dup1\n      calldatasize\n      sub\n      dup2\n      add\n      swap1\n      tag_10\n      swap2\n      swap1\n      tag_11\n      jump\t// in\n    tag_10:\n      tag_12\n      jump\t// in\n    tag_9:\n      stop\n        /* \"R/Routing Loop/LoopRouterB.sol\":104:126  address public routerA */\n    tag_6:\n      0x00\n      dup1\n      sload\n      swap1\n      0x0100\n      exp\n      swap1\n      div\n      0xffffffffffffffffffffffffffffffffffffffff\n      and\n      dup2\n      jump\t// out\n        /* \"R/Routing Loop/LoopRouterB.sol\":192:335  function bounceBack(uint256 value) external {... */\n    tag_12:\n        /* \"R/Routing Loop/LoopRouterB.sol\":258:259  0 */\n      0x00\n        /* \"R/Routing Loop/LoopRouterB.sol\":250:255  value */\n      dup2\n        /* \"R/Routing Loop/LoopRouterB.sol\":250:259  value > 0 */\n      gt\n        /* \"R/Routing Loop/LoopRouterB.sol\":246:329  if (value > 0) {... */\n      iszero\n      tag_14\n      jumpi\n        /* \"R/Routing Loop/LoopRouterB.sol\":288:295  routerA */\n      0x00\n      dup1\n      sload\n      swap1\n      0x0100\n      exp\n      swap1\n      div\n      0xffffffffffffffffffffffffffffffffffffffff\n      and\n        /* \"R/Routing Loop/LoopRouterB.sol\":275:307  ILoopRouterA(routerA).bounceBack */\n      0xffffffffffffffffffffffffffffffffffffffff\n      and\n      0xfdfec8eb\n        /* \"R/Routing Loop/LoopRouterB.sol\":316:317  1 */\n      0x01\n        /* \"R/Routing Loop/LoopRouterB.sol\":308:313  value */\n      dup4\n        /* \"R/Routing Loop/LoopRouterB.sol\":308:317  value - 1 */\n      tag_15\n      swap2\n      swap1\n      tag_16\n      jump\t// in\n    tag_15:\n        /* \"R/Routing Loop/LoopRouterB.sol\":275:318  ILoopRouterA(routerA).bounceBack(value - 1) */\n      mload(0x40)\n      dup3\n      0xffffffff\n      and\n      0xe0\n      shl\n      dup2\n      mstore\n      0x04\n      add\n      tag_17\n      swap2\n      swap1\n      tag_18\n      jump\t// in\n    tag_17:\n      0x00\n      mload(0x40)\n      dup1\n      dup4\n      sub\n      dup2\n      0x00\n      dup8\n      dup1\n      extcodesize\n      iszero\n      dup1\n      iszero\n      tag_19\n      jumpi\n      0x00\n      dup1\n      revert\n    tag_19:\n      pop\n      gas\n      call\n      iszero\n      dup1\n      iszero\n      tag_21\n      jumpi\n      returndatasize\n      0x00\n      dup1\n      returndatacopy\n      revert(0x00, returndatasize)\n    tag_21:\n      pop\n      pop\n      pop\n      pop\n        /* \"R/Routing Loop/LoopRouterB.sol\":246:329  if (value > 0) {... */\n    tag_14:\n        /* \"R/Routing Loop/LoopRouterB.sol\":192:335  function bounceBack(uint256 value) external {... */\n      pop\n      jump\t// out\n        /* \"#utility.yul\":7:133   */\n    tag_22:\n        /* \"#utility.yul\":44:51   */\n      0x00\n        /* \"#utility.yul\":84:126   */\n      0xffffffffffffffffffffffffffffffffffffffff\n        /* \"#utility.yul\":77:82   */\n      dup3\n        /* \"#utility.yul\":73:127   */\n      and\n        /* \"#utility.yul\":62:127   */\n      swap1\n      pop\n        /* \"#utility.yul\":7:133   */\n      swap2\n      swap1\n      pop\n      jump\t// out\n        /* \"#utility.yul\":139:235   */\n    tag_23:\n        /* \"#utility.yul\":176:183   */\n      0x00\n        /* \"#utility.yul\":205:229   */\n      tag_36\n        /* \"#utility.yul\":223:228   */\n      dup3\n        /* \"#utility.yul\":205:229   */\n      tag_22\n      jump\t// in\n    tag_36:\n        /* \"#utility.yul\":194:229   */\n      swap1\n      pop\n        /* \"#utility.yul\":139:235   */\n      swap2\n      swap1\n      pop\n      jump\t// out\n        /* \"#utility.yul\":241:359   */\n    tag_24:\n        /* \"#utility.yul\":328:352   */\n      tag_38\n        /* \"#utility.yul\":346:351   */\n      dup2\n        /* \"#utility.yul\":328:352   */\n      tag_23\n      jump\t// in\n    tag_38:\n        /* \"#utility.yul\":323:326   */\n      dup3\n        /* \"#utility.yul\":316:353   */\n      mstore\n        /* \"#utility.yul\":241:359   */\n      pop\n      pop\n      jump\t// out\n        /* \"#utility.yul\":365:587   */\n    tag_8:\n        /* \"#utility.yul\":458:462   */\n      0x00\n        /* \"#utility.yul\":496:498   */\n      0x20\n        /* \"#utility.yul\":485:494   */\n      dup3\n        /* \"#utility.yul\":481:499   */\n      add\n        /* \"#utility.yul\":473:499   */\n      swap1\n      pop\n        /* \"#utility.yul\":509:580   */\n      tag_40\n        /* \"#utility.yul\":577:578   */\n      0x00\n        /* \"#utility.yul\":566:575   */\n      dup4\n        /* \"#utility.yul\":562:579   */\n      add\n        /* \"#utility.yul\":553:559   */\n      dup5\n        /* \"#utility.yul\":509:580   */\n      tag_24\n      jump\t// in\n    tag_40:\n        /* \"#utility.yul\":365:587   */\n      swap3\n      swap2\n      pop\n      pop\n      jump\t// out\n        /* \"#utility.yul\":674:791   */\n    tag_26:\n        /* \"#utility.yul\":783:784   */\n      0x00\n        /* \"#utility.yul\":780:781   */\n      dup1\n        /* \"#utility.yul\":773:785   */\n      revert\n        /* \"#utility.yul\":920:997   */\n    tag_28:\n        /* \"#utility.yul\":957:964   */\n      0x00\n        /* \"#utility.yul\":986:991   */\n      dup2\n        /* \"#utility.yul\":975:991   */\n      swap1\n      pop\n        /* \"#utility.yul\":920:997   */\n      swap2\n      swap1\n      pop\n      jump\t// out\n        /* \"#utility.yul\":1003:1125   */\n    tag_29:\n        /* \"#utility.yul\":1076:1100   */\n      tag_46\n        /* \"#utility.yul\":1094:1099   */\n      dup2\n        /* \"#utility.yul\":1076:1100   */\n      tag_28\n      jump\t// in\n    tag_46:\n        /* \"#utility.yul\":1069:1074   */\n      dup2\n        /* \"#utility.yul\":1066:1101   */\n      eq\n        /* \"#utility.yul\":1056:1119   */\n      tag_47\n      jumpi\n        /* \"#utility.yul\":1115:1116   */\n      0x00\n        /* \"#utility.yul\":1112:1113   */\n      dup1\n        /* \"#utility.yul\":1105:1117   */\n      revert\n        /* \"#utility.yul\":1056:1119   */\n    tag_47:\n        /* \"#utility.yul\":1003:1125   */\n      pop\n      jump\t// out\n        /* \"#utility.yul\":1131:1270   */\n    tag_30:\n        /* \"#utility.yul\":1177:1182   */\n      0x00\n        /* \"#utility.yul\":1215:1221   */\n      dup2\n        /* \"#utility.yul\":1202:1222   */\n      calldataload\n        /* \"#utility.yul\":1193:1222   */\n      swap1\n      pop\n        /* \"#utility.yul\":1231:1264   */\n      tag_49\n        /* \"#utility.yul\":1258:1263   */\n      dup2\n        /* \"#utility.yul\":1231:1264   */\n      tag_29\n      jump\t// in\n    tag_49:\n        /* \"#utility.yul\":1131:1270   */\n      swap3\n      swap2\n      pop\n      pop\n      jump\t// out\n        /* \"#utility.yul\":1276:1605   */\n    tag_11:\n        /* \"#utility.yul\":1335:1341   */\n      0x00\n        /* \"#utility.yul\":1384:1386   */\n      0x20\n        /* \"#utility.yul\":1372:1381   */\n      dup3\n        /* \"#utility.yul\":1363:1370   */\n      dup5\n        /* \"#utility.yul\":1359:1382   */\n      sub\n        /* \"#utility.yul\":1355:1387   */\n      slt\n        /* \"#utility.yul\":1352:1471   */\n      iszero\n      tag_51\n      jumpi\n        /* \"#utility.yul\":1390:1469   */\n      tag_52\n      tag_26\n      jump\t// in\n    tag_52:\n        /* \"#utility.yul\":1352:1471   */\n    tag_51:\n        /* \"#utility.yul\":1510:1511   */\n      0x00\n        /* \"#utility.yul\":1535:1588   */\n      tag_53\n        /* \"#utility.yul\":1580:1587   */\n      dup5\n        /* \"#utility.yul\":1571:1577   */\n      dup3\n        /* \"#utility.yul\":1560:1569   */\n      dup6\n        /* \"#utility.yul\":1556:1578   */\n      add\n        /* \"#utility.yul\":1535:1588   */\n      tag_30\n      jump\t// in\n    tag_53:\n        /* \"#utility.yul\":1525:1588   */\n      swap2\n      pop\n        /* \"#utility.yul\":1481:1598   */\n      pop\n        /* \"#utility.yul\":1276:1605   */\n      swap3\n      swap2\n      pop\n      pop\n      jump\t// out\n        /* \"#utility.yul\":1611:1791   */\n    tag_31:\n        /* \"#utility.yul\":1659:1736   */\n      0x4e487b7100000000000000000000000000000000000000000000000000000000\n        /* \"#utility.yul\":1656:1657   */\n      0x00\n        /* \"#utility.yul\":1649:1737   */\n      mstore\n        /* \"#utility.yul\":1756:1760   */\n      0x11\n        /* \"#utility.yul\":1753:1754   */\n      0x04\n        /* \"#utility.yul\":1746:1761   */\n      mstore\n        /* \"#utility.yul\":1780:1784   */\n      0x24\n        /* \"#utility.yul\":1777:1778   */\n      0x00\n        /* \"#utility.yul\":1770:1785   */\n      revert\n        /* \"#utility.yul\":1797:1991   */\n    tag_16:\n        /* \"#utility.yul\":1837:1841   */\n      0x00\n        /* \"#utility.yul\":1857:1877   */\n      tag_56\n        /* \"#utility.yul\":1875:1876   */\n      dup3\n        /* \"#utility.yul\":1857:1877   */\n      tag_28\n      jump\t// in\n    tag_56:\n        /* \"#utility.yul\":1852:1877   */\n      swap2\n      pop\n        /* \"#utility.yul\":1891:1911   */\n      tag_57\n        /* \"#utility.yul\":1909:1910   */\n      dup4\n        /* \"#utility.yul\":1891:1911   */\n      tag_28\n      jump\t// in\n    tag_57:\n        /* \"#utility.yul\":1886:1911   */\n      swap3\n      pop\n        /* \"#utility.yul\":1935:1936   */\n      dup3\n        /* \"#utility.yul\":1932:1933   */\n      dup3\n        /* \"#utility.yul\":1928:1937   */\n      sub\n        /* \"#utility.yul\":1920:1937   */\n      swap1\n      pop\n        /* \"#utility.yul\":1959:1960   */\n      dup2\n        /* \"#utility.yul\":1953:1957   */\n      dup2\n        /* \"#utility.yul\":1950:1961   */\n      gt\n        /* \"#utility.yul\":1947:1984   */\n      iszero\n      tag_58\n      jumpi\n        /* \"#utility.yul\":1964:1982   */\n      tag_59\n      tag_31\n      jump\t// in\n    tag_59:\n        /* \"#utility.yul\":1947:1984   */\n    tag_58:\n        /* \"#utility.yul\":1797:1991   */\n      swap3\n      swap2\n      pop\n      pop\n      jump\t// out\n        /* \"#utility.yul\":1997:2115   */\n    tag_32:\n        /* \"#utility.yul\":2084:2108   */\n      tag_61\n        /* \"#utility.yul\":2102:2107   */\n      dup2\n        /* \"#utility.yul\":2084:2108   */\n      tag_28\n      jump\t// in\n    tag_61:\n        /* \"#utility.yul\":2079:2082   */\n      dup3\n        /* \"#utility.yul\":2072:2109   */\n      mstore\n        /* \"#utility.yul\":1997:2115   */\n      pop\n      pop\n      jump\t// out\n        /* \"#utility.yul\":2121:2343   */\n    tag_18:\n        /* \"#utility.yul\":2214:2218   */\n      0x00\n        /* \"#utility.yul\":2252:2254   */\n      0x20\n        /* \"#utility.yul\":2241:2250   */\n      dup3\n        /* \"#utility.yul\":2237:2255   */\n      add\n        /* \"#utility.yul\":2229:2255   */\n      swap1\n      pop\n        /* \"#utility.yul\":2265:2336   */\n      tag_63\n        /* \"#utility.yul\":2333:2334   */\n      0x00\n        /* \"#utility.yul\":2322:2331   */\n      dup4\n        /* \"#utility.yul\":2318:2335   */\n      add\n        /* \"#utility.yul\":2309:2315   */\n      dup5\n        /* \"#utility.yul\":2265:2336   */\n      tag_32\n      jump\t// in\n    tag_63:\n        /* \"#utility.yul\":2121:2343   */\n      swap3\n      swap2\n      pop\n      pop\n      jump\t// out\n\n    auxdata: 0xa2646970667358221220f65db365c0a461abab4bc94cf7d5b11bc2a25568d78045144023f43d5b14201d64736f6c634300081a0033\n}\n",
				"bytecode": {
					"linkReferences": {},
					"object": "608060405234801561000f575f80fd5b506040516103b63803806103b6833981810160405281019061003191906100d4565b805f806101000a81548173ffffffffffffffffffffffffffffffffffffffff021916908373ffffffffffffffffffffffffffffffffffffffff160217905550506100ff565b5f80fd5b5f73ffffffffffffffffffffffffffffffffffffffff82169050919050565b5f6100a38261007a565b9050919050565b6100b381610099565b81146100bd575f80fd5b50565b5f815190506100ce816100aa565b92915050565b5f602082840312156100e9576100e8610076565b5b5f6100f6848285016100c0565b91505092915050565b6102aa8061010c5f395ff3fe608060405234801561000f575f80fd5b5060043610610034575f3560e01c806365434da714610038578063fdfec8eb14610056575b5f80fd5b610040610072565b60405161004d9190610171565b60405180910390f35b610070600480360381019061006b91906101c1565b610095565b005b5f8054906101000a900473ffffffffffffffffffffffffffffffffffffffff1681565b5f81111561012f575f8054906101000a900473ffffffffffffffffffffffffffffffffffffffff1673ffffffffffffffffffffffffffffffffffffffff1663fdfec8eb6001836100e59190610219565b6040518263ffffffff1660e01b8152600401610101919061025b565b5f604051808303815f87803b158015610118575f80fd5b505af115801561012a573d5f803e3d5ffd5b505050505b50565b5f73ffffffffffffffffffffffffffffffffffffffff82169050919050565b5f61015b82610132565b9050919050565b61016b81610151565b82525050565b5f6020820190506101845f830184610162565b92915050565b5f80fd5b5f819050919050565b6101a08161018e565b81146101aa575f80fd5b50565b5f813590506101bb81610197565b92915050565b5f602082840312156101d6576101d561018a565b5b5f6101e3848285016101ad565b91505092915050565b7f4e487b71000000000000000000000000000000000000000000000000000000005f52601160045260245ffd5b5f6102238261018e565b915061022e8361018e565b9250828203905081811115610246576102456101ec565b5b92915050565b6102558161018e565b82525050565b5f60208201905061026e5f83018461024c565b9291505056fea2646970667358221220f65db365c0a461abab4bc94cf7d5b11bc2a25568d78045144023f43d5b14201d64736f6c634300081a0033",
					"opcodes": "PUSH1 0x80 PUSH1 0x40 MSTORE CALLVALUE DUP1 ISZERO PUSH2 0xF JUMPI PUSH0 DUP1 REVERT JUMPDEST POP PUSH1 0x40 MLOAD PUSH2 0x3B6 CODESIZE SUB DUP1 PUSH2 0x3B6 DUP4 CODECOPY DUP2 DUP2 ADD PUSH1 0x40 MSTORE DUP2 ADD SWAP1 PUSH2 0x31 SWAP2 SWAP1 PUSH2 0xD4 JUMP JUMPDEST DUP1 PUSH0 DUP1 PUSH2 0x100 EXP DUP2 SLOAD DUP2 PUSH20 0xFFFFFFFFFFFFFFFFFFFFFFFFFFFFFFFFFFFFFFFF MUL NOT AND SWAP1 DUP4 PUSH20 0xFFFFFFFFFFFFFFFFFFFFFFFFFFFFFFFFFFFFFFFF AND MUL OR SWAP1 SSTORE POP POP PUSH2 0xFF JUMP JUMPDEST PUSH0 DUP1 REVERT JUMPDEST PUSH0 PUSH20 0xFFFFFFFFFFFFFFFFFFFFFFFFFFFFFFFFFFFFFFFF DUP3 AND SWAP1 POP SWAP2 SWAP1 POP JUMP JUMPDEST PUSH0 PUSH2 0xA3 DUP3 PUSH2 0x7A JUMP JUMPDEST SWAP1 POP SWAP2 SWAP1 POP JUMP JUMPDEST PUSH2 0xB3 DUP2 PUSH2 0x99 JUMP JUMPDEST DUP2 EQ PUSH2 0xBD JUMPI PUSH0 DUP1 REVERT JUMPDEST POP JUMP JUMPDEST PUSH0 DUP2 MLOAD SWAP1 POP PUSH2 0xCE DUP2 PUSH2 0xAA JUMP JUMPDEST SWAP3 SWAP2 POP POP JUMP JUMPDEST PUSH0 PUSH1 0x20 DUP3 DUP5 SUB SLT ISZERO PUSH2 0xE9 JUMPI PUSH2 0xE8 PUSH2 0x76 JUMP JUMPDEST JUMPDEST PUSH0 PUSH2 0xF6 DUP5 DUP3 DUP6 ADD PUSH2 0xC0 JUMP JUMPDEST SWAP2 POP POP SWAP3 SWAP2 POP POP JUMP JUMPDEST PUSH2 0x2AA DUP1 PUSH2 0x10C PUSH0 CODECOPY PUSH0 RETURN INVALID PUSH1 0x80 PUSH1 0x40 MSTORE CALLVALUE DUP1 ISZERO PUSH2 0xF JUMPI PUSH0 DUP1 REVERT JUMPDEST POP PUSH1 0x4 CALLDATASIZE LT PUSH2 0x34 JUMPI PUSH0 CALLDATALOAD PUSH1 0xE0 SHR DUP1 PUSH4 0x65434DA7 EQ PUSH2 0x38 JUMPI DUP1 PUSH4 0xFDFEC8EB EQ PUSH2 0x56 JUMPI JUMPDEST PUSH0 DUP1 REVERT JUMPDEST PUSH2 0x40 PUSH2 0x72 JUMP JUMPDEST PUSH1 0x40 MLOAD PUSH2 0x4D SWAP2 SWAP1 PUSH2 0x171 JUMP JUMPDEST PUSH1 0x40 MLOAD DUP1 SWAP2 SUB SWAP1 RETURN JUMPDEST PUSH2 0x70 PUSH1 0x4 DUP1 CALLDATASIZE SUB DUP2 ADD SWAP1 PUSH2 0x6B SWAP2 SWAP1 PUSH2 0x1C1 JUMP JUMPDEST PUSH2 0x95 JUMP JUMPDEST STOP JUMPDEST PUSH0 DUP1 SLOAD SWAP1 PUSH2 0x100 EXP SWAP1 DIV PUSH20 0xFFFFFFFFFFFFFFFFFFFFFFFFFFFFFFFFFFFFFFFF AND DUP2 JUMP JUMPDEST PUSH0 DUP2 GT ISZERO PUSH2 0x12F JUMPI PUSH0 DUP1 SLOAD SWAP1 PUSH2 0x100 EXP SWAP1 DIV PUSH20 0xFFFFFFFFFFFFFFFFFFFFFFFFFFFFFFFFFFFFFFFF AND PUSH20 0xFFFFFFFFFFFFFFFFFFFFFFFFFFFFFFFFFFFFFFFF AND PUSH4 0xFDFEC8EB PUSH1 0x1 DUP4 PUSH2 0xE5 SWAP2 SWAP1 PUSH2 0x219 JUMP JUMPDEST PUSH1 0x40 MLOAD DUP3 PUSH4 0xFFFFFFFF AND PUSH1 0xE0 SHL DUP2 MSTORE PUSH1 0x4 ADD PUSH2 0x101 SWAP2 SWAP1 PUSH2 0x25B JUMP JUMPDEST PUSH0 PUSH1 0x40 MLOAD DUP1 DUP4 SUB DUP2 PUSH0 DUP8 DUP1 EXTCODESIZE ISZERO DUP1 ISZERO PUSH2 0x118 JUMPI PUSH0 DUP1 REVERT JUMPDEST POP GAS CALL ISZERO DUP1 ISZERO PUSH2 0x12A JUMPI RETURNDATASIZE PUSH0 DUP1 RETURNDATACOPY RETURNDATASIZE PUSH0 REVERT JUMPDEST POP POP POP POP JUMPDEST POP JUMP JUMPDEST PUSH0 PUSH20 0xFFFFFFFFFFFFFFFFFFFFFFFFFFFFFFFFFFFFFFFF DUP3 AND SWAP1 POP SWAP2 SWAP1 POP JUMP JUMPDEST PUSH0 PUSH2 0x15B DUP3 PUSH2 0x132 JUMP JUMPDEST SWAP1 POP SWAP2 SWAP1 POP JUMP JUMPDEST PUSH2 0x16B DUP2 PUSH2 0x151 JUMP JUMPDEST DUP3 MSTORE POP POP JUMP JUMPDEST PUSH0 PUSH1 0x20 DUP3 ADD SWAP1 POP PUSH2 0x184 PUSH0 DUP4 ADD DUP5 PUSH2 0x162 JUMP JUMPDEST SWAP3 SWAP2 POP POP JUMP JUMPDEST PUSH0 DUP1 REVERT JUMPDEST PUSH0 DUP2 SWAP1 POP SWAP2 SWAP1 POP JUMP JUMPDEST PUSH2 0x1A0 DUP2 PUSH2 0x18E JUMP JUMPDEST DUP2 EQ PUSH2 0x1AA JUMPI PUSH0 DUP1 REVERT JUMPDEST POP JUMP JUMPDEST PUSH0 DUP2 CALLDATALOAD SWAP1 POP PUSH2 0x1BB DUP2 PUSH2 0x197 JUMP JUMPDEST SWAP3 SWAP2 POP POP JUMP JUMPDEST PUSH0 PUSH1 0x20 DUP3 DUP5 SUB SLT ISZERO PUSH2 0x1D6 JUMPI PUSH2 0x1D5 PUSH2 0x18A JUMP JUMPDEST JUMPDEST PUSH0 PUSH2 0x1E3 DUP5 DUP3 DUP6 ADD PUSH2 0x1AD JUMP JUMPDEST SWAP2 POP POP SWAP3 SWAP2 POP POP JUMP JUMPDEST PUSH32 0x4E487B7100000000000000000000000000000000000000000000000000000000 PUSH0 MSTORE PUSH1 0x11 PUSH1 0x4 MSTORE PUSH1 0x24 PUSH0 REVERT JUMPDEST PUSH0 PUSH2 0x223 DUP3 PUSH2 0x18E JUMP JUMPDEST SWAP2 POP PUSH2 0x22E DUP4 PUSH2 0x18E JUMP JUMPDEST SWAP3 POP DUP3 DUP3 SUB SWAP1 POP DUP2 DUP2 GT ISZERO PUSH2 0x246 JUMPI PUSH2 0x245 PUSH2 0x1EC JUMP JUMPDEST JUMPDEST SWAP3 SWAP2 POP POP JUMP JUMPDEST PUSH2 0x255 DUP2 PUSH2 0x18E JUMP JUMPDEST DUP3 MSTORE POP POP JUMP JUMPDEST PUSH0 PUSH1 0x20 DUP3 ADD SWAP1 POP PUSH2 0x26E PUSH0 DUP4 ADD DUP5 PUSH2 0x24C JUMP JUMPDEST SWAP3 SWAP2 POP POP JUMP INVALID LOG2 PUSH5 0x6970667358 0x22 SLT KECCAK256 0xF6 TSTORE 0xB3 PUSH6 0xC0A461ABAB4B 0xC9 0x4C 0xF7 0xD5 0xB1 SHL 0xC2 LOG2 SSTORE PUSH9 0xD78045144023F43D5B EQ KECCAK256 SAR PUSH5 0x736F6C6343 STOP ADDMOD BYTE STOP CALLER "
				},
				"gasEstimates": {
					"creation": {
						"codeDepositCost": "136400",
						"executionCost": "infinite",
						"totalCost": "infinite"
					},
					"external": {
						"bounceBack(uint256)": "infinite",
						"routerA()": "2483"
					}
				},
				"methodIdentifiers": {
					"bounceBack(uint256)": "fdfec8eb",
					"routerA()": "65434da7"
				}
			},
			"storageLayout": {
				"storage": [
					{
						"astId": 8,
						"contract": "R/Routing Loop/LoopRouterB.sol:LoopRouterB",
						"label": "routerA",
						"offset": 0,
						"slot": "0",
						"type": "t_address"
					}
				],
				"types": {
					"t_address": {
						"encoding": "inplace",
						"label": "address",
						"numberOfBytes": "20"
					}
				}
			},
			"userdoc": {
				"kind": "user",
				"methods": {},
				"version": 1
			}
		}
	}
}