{
	"S/Shell/Shell.sol": {
		"WebShellSafe": {
			"abi": [
				{
					"inputs": [
						{
							"internalType": "bytes4[]",
							"name": "sels",
							"type": "bytes4[]"
						}
					],
					"stateMutability": "nonpayable",
					"type": "constructor"
				},
				{
					"inputs": [],
					"name": "Shell__NotOwner",
					"type": "error"
				},
				{
					"inputs": [],
					"name": "Shell__SelectorNotAllowed",
					"type": "error"
				},
				{
					"stateMutability": "payable",
					"type": "fallback"
				},
				{
					"inputs": [
						{
							"internalType": "bytes4",
							"name": "sel",
							"type": "bytes4"
						}
					],
					"name": "allow",
					"outputs": [],
					"stateMutability": "nonpayable",
					"type": "function"
				},
				{
					"inputs": [
						{
							"internalType": "bytes4",
							"name": "",
							"type": "bytes4"
						}
					],
					"name": "allowed",
					"outputs": [
						{
							"internalType": "bool",
							"name": "",
							"type": "bool"
						}
					],
					"stateMutability": "view",
					"type": "function"
				},
				{
					"inputs": [],
					"name": "owner",
					"outputs": [
						{
							"internalType": "address",
							"name": "",
							"type": "address"
						}
					],
					"stateMutability": "view",
					"type": "function"
				}
			],
			"devdoc": {
				"kind": "dev",
				"methods": {},
				"version": 1
			},
			"evm": {
				"assembly": "    /* \"S/Shell/Shell.sol\":2428:3119  contract WebShellSafe {... */\n  mstore(0x40, 0xa0)\n    /* \"S/Shell/Shell.sol\":2537:2698  constructor(bytes4[] memory sels) {... */\n  callvalue\n  dup1\n  iszero\n  tag_1\n  jumpi\n  0x00\n  dup1\n  revert\ntag_1:\n  pop\n  mload(0x40)\n  sub(codesize, bytecodeSize)\n  dup1\n  bytecodeSize\n  dup4\n  codecopy\n  dup2\n  dup2\n  add\n  0x40\n  mstore\n  dup2\n  add\n  swap1\n  tag_2\n  swap2\n  swap1\n  tag_3\n  jump\t// in\ntag_2:\n    /* \"S/Shell/Shell.sol\":2589:2599  msg.sender */\n  caller\n    /* \"S/Shell/Shell.sol\":2581:2599  owner = msg.sender */\n  0xffffffffffffffffffffffffffffffffffffffff\n  and\n  0x80\n  dup2\n  0xffffffffffffffffffffffffffffffffffffffff\n  and\n  dup2\n  mstore\n  pop\n  pop\n    /* \"S/Shell/Shell.sol\":2614:2620  uint i */\n  0x00\n    /* \"S/Shell/Shell.sol\":2609:2692  for (uint i; i < sels.length; i++) {... */\ntag_6:\n    /* \"S/Shell/Shell.sol\":2626:2630  sels */\n  dup2\n    /* \"S/Shell/Shell.sol\":2626:2637  sels.length */\n  mload\n    /* \"S/Shell/Shell.sol\":2622:2623  i */\n  dup2\n    /* \"S/Shell/Shell.sol\":2622:2637  i < sels.length */\n  lt\n    /* \"S/Shell/Shell.sol\":2609:2692  for (uint i; i < sels.length; i++) {... */\n  iszero\n  tag_7\n  jumpi\n    /* \"S/Shell/Shell.sol\":2677:2681  true */\n  0x01\n    /* \"S/Shell/Shell.sol\":2658:2665  allowed */\n  0x00\n    /* \"S/Shell/Shell.sol\":2658:2674  allowed[sels[i]] */\n  dup1\n    /* \"S/Shell/Shell.sol\":2666:2670  sels */\n  dup5\n    /* \"S/Shell/Shell.sol\":2671:2672  i */\n  dup5\n    /* \"S/Shell/Shell.sol\":2666:2673  sels[i] */\n  dup2\n  mload\n  dup2\n  lt\n  tag_9\n  jumpi\n  tag_10\n  tag_11\n  jump\t// in\ntag_10:\ntag_9:\n  0x20\n  mul\n  0x20\n  add\n  add\n  mload\n    /* \"S/Shell/Shell.sol\":2658:2674  allowed[sels[i]] */\n  not(0xffffffffffffffffffffffffffffffffffffffffffffffffffffffff)\n  and\n  not(0xffffffffffffffffffffffffffffffffffffffffffffffffffffffff)\n  and\n  dup2\n  mstore\n  0x20\n  add\n  swap1\n  dup2\n  mstore\n  0x20\n  add\n  0x00\n  keccak256\n  0x00\n    /* \"S/Shell/Shell.sol\":2658:2681  allowed[sels[i]] = true */\n  0x0100\n  exp\n  dup2\n  sload\n  dup2\n  0xff\n  mul\n  not\n  and\n  swap1\n  dup4\n  iszero\n  iszero\n  mul\n  or\n  swap1\n  sstore\n  pop\n    /* \"S/Shell/Shell.sol\":2639:2642  i++ */\n  dup1\n  dup1\n  0x01\n  add\n  swap2\n  pop\n  pop\n    /* \"S/Shell/Shell.sol\":2609:2692  for (uint i; i < sels.length; i++) {... */\n  jump(tag_6)\ntag_7:\n  pop\n    /* \"S/Shell/Shell.sol\":2537:2698  constructor(bytes4[] memory sels) {... */\n  pop\n    /* \"S/Shell/Shell.sol\":2428:3119  contract WebShellSafe {... */\n  jump(tag_12)\n    /* \"#utility.yul\":7:82   */\ntag_13:\n    /* \"#utility.yul\":40:46   */\n  0x00\n    /* \"#utility.yul\":73:75   */\n  0x40\n    /* \"#utility.yul\":67:76   */\n  mload\n    /* \"#utility.yul\":57:76   */\n  swap1\n  pop\n    /* \"#utility.yul\":7:82   */\n  swap1\n  jump\t// out\n    /* \"#utility.yul\":88:205   */\ntag_14:\n    /* \"#utility.yul\":197:198   */\n  0x00\n    /* \"#utility.yul\":194:195   */\n  dup1\n    /* \"#utility.yul\":187:199   */\n  revert\n    /* \"#utility.yul\":211:328   */\ntag_15:\n    /* \"#utility.yul\":320:321   */\n  0x00\n    /* \"#utility.yul\":317:318   */\n  dup1\n    /* \"#utility.yul\":310:322   */\n  revert\n    /* \"#utility.yul\":334:451   */\ntag_16:\n    /* \"#utility.yul\":443:444   */\n  0x00\n    /* \"#utility.yul\":440:441   */\n  dup1\n    /* \"#utility.yul\":433:445   */\n  revert\n    /* \"#utility.yul\":457:559   */\ntag_17:\n    /* \"#utility.yul\":498:504   */\n  0x00\n    /* \"#utility.yul\":549:551   */\n  0x1f\n    /* \"#utility.yul\":545:552   */\n  not\n    /* \"#utility.yul\":540:542   */\n  0x1f\n    /* \"#utility.yul\":533:538   */\n  dup4\n    /* \"#utility.yul\":529:543   */\n  add\n    /* \"#utility.yul\":525:553   */\n  and\n    /* \"#utility.yul\":515:553   */\n  swap1\n  pop\n    /* \"#utility.yul\":457:559   */\n  swap2\n  swap1\n  pop\n  jump\t// out\n    /* \"#utility.yul\":565:745   */\ntag_18:\n    /* \"#utility.yul\":613:690   */\n  0x4e487b7100000000000000000000000000000000000000000000000000000000\n    /* \"#utility.yul\":610:611   */\n  0x00\n    /* \"#utility.yul\":603:691   */\n  mstore\n    /* \"#utility.yul\":710:714   */\n  0x41\n    /* \"#utility.yul\":707:708   */\n  0x04\n    /* \"#utility.yul\":700:715   */\n  mstore\n    /* \"#utility.yul\":734:738   */\n  0x24\n    /* \"#utility.yul\":731:732   */\n  0x00\n    /* \"#utility.yul\":724:739   */\n  revert\n    /* \"#utility.yul\":751:1032   */\ntag_19:\n    /* \"#utility.yul\":834:861   */\n  tag_36\n    /* \"#utility.yul\":856:860   */\n  dup3\n    /* \"#utility.yul\":834:861   */\n  tag_17\n  jump\t// in\ntag_36:\n    /* \"#utility.yul\":826:832   */\n  dup2\n    /* \"#utility.yul\":822:862   */\n  add\n    /* \"#utility.yul\":964:970   */\n  dup2\n    /* \"#utility.yul\":952:962   */\n  dup2\n    /* \"#utility.yul\":949:971   */\n  lt\n    /* \"#utility.yul\":928:946   */\n  0xffffffffffffffff\n    /* \"#utility.yul\":916:926   */\n  dup3\n    /* \"#utility.yul\":913:947   */\n  gt\n    /* \"#utility.yul\":910:972   */\n  or\n    /* \"#utility.yul\":907:995   */\n  iszero\n  tag_37\n  jumpi\n    /* \"#utility.yul\":975:993   */\n  tag_38\n  tag_18\n  jump\t// in\ntag_38:\n    /* \"#utility.yul\":907:995   */\ntag_37:\n    /* \"#utility.yul\":1015:1025   */\n  dup1\n    /* \"#utility.yul\":1011:1013   */\n  0x40\n    /* \"#utility.yul\":1004:1026   */\n  mstore\n    /* \"#utility.yul\":794:1032   */\n  pop\n    /* \"#utility.yul\":751:1032   */\n  pop\n  pop\n  jump\t// out\n    /* \"#utility.yul\":1038:1167   */\ntag_20:\n    /* \"#utility.yul\":1072:1078   */\n  0x00\n    /* \"#utility.yul\":1099:1119   */\n  tag_40\n  tag_13\n  jump\t// in\ntag_40:\n    /* \"#utility.yul\":1089:1119   */\n  swap1\n  pop\n    /* \"#utility.yul\":1128:1161   */\n  tag_41\n    /* \"#utility.yul\":1156:1160   */\n  dup3\n    /* \"#utility.yul\":1148:1154   */\n  dup3\n    /* \"#utility.yul\":1128:1161   */\n  tag_19\n  jump\t// in\ntag_41:\n    /* \"#utility.yul\":1038:1167   */\n  swap2\n  swap1\n  pop\n  jump\t// out\n    /* \"#utility.yul\":1173:1483   */\ntag_21:\n    /* \"#utility.yul\":1249:1253   */\n  0x00\n    /* \"#utility.yul\":1339:1357   */\n  0xffffffffffffffff\n    /* \"#utility.yul\":1331:1337   */\n  dup3\n    /* \"#utility.yul\":1328:1358   */\n  gt\n    /* \"#utility.yul\":1325:1381   */\n  iszero\n  tag_43\n  jumpi\n    /* \"#utility.yul\":1361:1379   */\n  tag_44\n  tag_18\n  jump\t// in\ntag_44:\n    /* \"#utility.yul\":1325:1381   */\ntag_43:\n    /* \"#utility.yul\":1411:1415   */\n  0x20\n    /* \"#utility.yul\":1403:1409   */\n  dup3\n    /* \"#utility.yul\":1399:1416   */\n  mul\n    /* \"#utility.yul\":1391:1416   */\n  swap1\n  pop\n    /* \"#utility.yul\":1471:1475   */\n  0x20\n    /* \"#utility.yul\":1465:1469   */\n  dup2\n    /* \"#utility.yul\":1461:1476   */\n  add\n    /* \"#utility.yul\":1453:1476   */\n  swap1\n  pop\n    /* \"#utility.yul\":1173:1483   */\n  swap2\n  swap1\n  pop\n  jump\t// out\n    /* \"#utility.yul\":1489:1606   */\ntag_22:\n    /* \"#utility.yul\":1598:1599   */\n  0x00\n    /* \"#utility.yul\":1595:1596   */\n  dup1\n    /* \"#utility.yul\":1588:1600   */\n  revert\n    /* \"#utility.yul\":1612:1761   */\ntag_23:\n    /* \"#utility.yul\":1648:1655   */\n  0x00\n    /* \"#utility.yul\":1688:1754   */\n  0xffffffff00000000000000000000000000000000000000000000000000000000\n    /* \"#utility.yul\":1681:1686   */\n  dup3\n    /* \"#utility.yul\":1677:1755   */\n  and\n    /* \"#utility.yul\":1666:1755   */\n  swap1\n  pop\n    /* \"#utility.yul\":1612:1761   */\n  swap2\n  swap1\n  pop\n  jump\t// out\n    /* \"#utility.yul\":1767:1887   */\ntag_24:\n    /* \"#utility.yul\":1839:1862   */\n  tag_48\n    /* \"#utility.yul\":1856:1861   */\n  dup2\n    /* \"#utility.yul\":1839:1862   */\n  tag_23\n  jump\t// in\ntag_48:\n    /* \"#utility.yul\":1832:1837   */\n  dup2\n    /* \"#utility.yul\":1829:1863   */\n  eq\n    /* \"#utility.yul\":1819:1881   */\n  tag_49\n  jumpi\n    /* \"#utility.yul\":1877:1878   */\n  0x00\n    /* \"#utility.yul\":1874:1875   */\n  dup1\n    /* \"#utility.yul\":1867:1879   */\n  revert\n    /* \"#utility.yul\":1819:1881   */\ntag_49:\n    /* \"#utility.yul\":1767:1887   */\n  pop\n  jump\t// out\n    /* \"#utility.yul\":1893:2034   */\ntag_25:\n    /* \"#utility.yul\":1949:1954   */\n  0x00\n    /* \"#utility.yul\":1980:1986   */\n  dup2\n    /* \"#utility.yul\":1974:1987   */\n  mload\n    /* \"#utility.yul\":1965:1987   */\n  swap1\n  pop\n    /* \"#utility.yul\":1996:2028   */\n  tag_51\n    /* \"#utility.yul\":2022:2027   */\n  dup2\n    /* \"#utility.yul\":1996:2028   */\n  tag_24\n  jump\t// in\ntag_51:\n    /* \"#utility.yul\":1893:2034   */\n  swap3\n  swap2\n  pop\n  pop\n  jump\t// out\n    /* \"#utility.yul\":2056:2785   */\ntag_26:\n    /* \"#utility.yul\":2162:2167   */\n  0x00\n    /* \"#utility.yul\":2187:2267   */\n  tag_53\n    /* \"#utility.yul\":2203:2266   */\n  tag_54\n    /* \"#utility.yul\":2259:2265   */\n  dup5\n    /* \"#utility.yul\":2203:2266   */\n  tag_21\n  jump\t// in\ntag_54:\n    /* \"#utility.yul\":2187:2267   */\n  tag_20\n  jump\t// in\ntag_53:\n    /* \"#utility.yul\":2178:2267   */\n  swap1\n  pop\n    /* \"#utility.yul\":2287:2292   */\n  dup1\n    /* \"#utility.yul\":2316:2322   */\n  dup4\n    /* \"#utility.yul\":2309:2314   */\n  dup3\n    /* \"#utility.yul\":2302:2323   */\n  mstore\n    /* \"#utility.yul\":2350:2354   */\n  0x20\n    /* \"#utility.yul\":2343:2348   */\n  dup3\n    /* \"#utility.yul\":2339:2355   */\n  add\n    /* \"#utility.yul\":2332:2355   */\n  swap1\n  pop\n    /* \"#utility.yul\":2403:2407   */\n  0x20\n    /* \"#utility.yul\":2395:2401   */\n  dup5\n    /* \"#utility.yul\":2391:2408   */\n  mul\n    /* \"#utility.yul\":2383:2389   */\n  dup4\n    /* \"#utility.yul\":2379:2409   */\n  add\n    /* \"#utility.yul\":2432:2435   */\n  dup6\n    /* \"#utility.yul\":2424:2430   */\n  dup2\n    /* \"#utility.yul\":2421:2436   */\n  gt\n    /* \"#utility.yul\":2418:2540   */\n  iszero\n  tag_55\n  jumpi\n    /* \"#utility.yul\":2451:2530   */\n  tag_56\n  tag_22\n  jump\t// in\ntag_56:\n    /* \"#utility.yul\":2418:2540   */\ntag_55:\n    /* \"#utility.yul\":2566:2572   */\n  dup4\n    /* \"#utility.yul\":2549:2779   */\ntag_57:\n    /* \"#utility.yul\":2583:2589   */\n  dup2\n    /* \"#utility.yul\":2578:2581   */\n  dup2\n    /* \"#utility.yul\":2575:2590   */\n  lt\n    /* \"#utility.yul\":2549:2779   */\n  iszero\n  tag_59\n  jumpi\n    /* \"#utility.yul\":2658:2661   */\n  dup1\n    /* \"#utility.yul\":2687:2734   */\n  tag_60\n    /* \"#utility.yul\":2730:2733   */\n  dup9\n    /* \"#utility.yul\":2718:2728   */\n  dup3\n    /* \"#utility.yul\":2687:2734   */\n  tag_25\n  jump\t// in\ntag_60:\n    /* \"#utility.yul\":2682:2685   */\n  dup5\n    /* \"#utility.yul\":2675:2735   */\n  mstore\n    /* \"#utility.yul\":2764:2768   */\n  0x20\n    /* \"#utility.yul\":2759:2762   */\n  dup5\n    /* \"#utility.yul\":2755:2769   */\n  add\n    /* \"#utility.yul\":2748:2769   */\n  swap4\n  pop\n    /* \"#utility.yul\":2625:2779   */\n  pop\n    /* \"#utility.yul\":2609:2613   */\n  0x20\n    /* \"#utility.yul\":2604:2607   */\n  dup2\n    /* \"#utility.yul\":2600:2614   */\n  add\n    /* \"#utility.yul\":2593:2614   */\n  swap1\n  pop\n    /* \"#utility.yul\":2549:2779   */\n  jump(tag_57)\ntag_59:\n    /* \"#utility.yul\":2553:2574   */\n  pop\n    /* \"#utility.yul\":2168:2785   */\n  pop\n  pop\n    /* \"#utility.yul\":2056:2785   */\n  swap4\n  swap3\n  pop\n  pop\n  pop\n  jump\t// out\n    /* \"#utility.yul\":2807:3190   */\ntag_27:\n    /* \"#utility.yul\":2888:2893   */\n  0x00\n    /* \"#utility.yul\":2937:2940   */\n  dup3\n    /* \"#utility.yul\":2930:2934   */\n  0x1f\n    /* \"#utility.yul\":2922:2928   */\n  dup4\n    /* \"#utility.yul\":2918:2935   */\n  add\n    /* \"#utility.yul\":2914:2941   */\n  slt\n    /* \"#utility.yul\":2904:3026   */\n  tag_62\n  jumpi\n    /* \"#utility.yul\":2945:3024   */\n  tag_63\n  tag_16\n  jump\t// in\ntag_63:\n    /* \"#utility.yul\":2904:3026   */\ntag_62:\n    /* \"#utility.yul\":3055:3061   */\n  dup2\n    /* \"#utility.yul\":3049:3062   */\n  mload\n    /* \"#utility.yul\":3080:3184   */\n  tag_64\n    /* \"#utility.yul\":3180:3183   */\n  dup5\n    /* \"#utility.yul\":3172:3178   */\n  dup3\n    /* \"#utility.yul\":3165:3169   */\n  0x20\n    /* \"#utility.yul\":3157:3163   */\n  dup7\n    /* \"#utility.yul\":3153:3170   */\n  add\n    /* \"#utility.yul\":3080:3184   */\n  tag_26\n  jump\t// in\ntag_64:\n    /* \"#utility.yul\":3071:3184   */\n  swap2\n  pop\n    /* \"#utility.yul\":2894:3190   */\n  pop\n    /* \"#utility.yul\":2807:3190   */\n  swap3\n  swap2\n  pop\n  pop\n  jump\t// out\n    /* \"#utility.yul\":3196:3748   */\ntag_3:\n    /* \"#utility.yul\":3290:3296   */\n  0x00\n    /* \"#utility.yul\":3339:3341   */\n  0x20\n    /* \"#utility.yul\":3327:3336   */\n  dup3\n    /* \"#utility.yul\":3318:3325   */\n  dup5\n    /* \"#utility.yul\":3314:3337   */\n  sub\n    /* \"#utility.yul\":3310:3342   */\n  slt\n    /* \"#utility.yul\":3307:3426   */\n  iszero\n  tag_66\n  jumpi\n    /* \"#utility.yul\":3345:3424   */\n  tag_67\n  tag_14\n  jump\t// in\ntag_67:\n    /* \"#utility.yul\":3307:3426   */\ntag_66:\n    /* \"#utility.yul\":3486:3487   */\n  0x00\n    /* \"#utility.yul\":3475:3484   */\n  dup3\n    /* \"#utility.yul\":3471:3488   */\n  add\n    /* \"#utility.yul\":3465:3489   */\n  mload\n    /* \"#utility.yul\":3516:3534   */\n  0xffffffffffffffff\n    /* \"#utility.yul\":3508:3514   */\n  dup2\n    /* \"#utility.yul\":3505:3535   */\n  gt\n    /* \"#utility.yul\":3502:3619   */\n  iszero\n  tag_68\n  jumpi\n    /* \"#utility.yul\":3538:3617   */\n  tag_69\n  tag_15\n  jump\t// in\ntag_69:\n    /* \"#utility.yul\":3502:3619   */\ntag_68:\n    /* \"#utility.yul\":3643:3731   */\n  tag_70\n    /* \"#utility.yul\":3723:3730   */\n  dup5\n    /* \"#utility.yul\":3714:3720   */\n  dup3\n    /* \"#utility.yul\":3703:3712   */\n  dup6\n    /* \"#utility.yul\":3699:3721   */\n  add\n    /* \"#utility.yul\":3643:3731   */\n  tag_27\n  jump\t// in\ntag_70:\n    /* \"#utility.yul\":3633:3731   */\n  swap2\n  pop\n    /* \"#utility.yul\":3436:3741   */\n  pop\n    /* \"#utility.yul\":3196:3748   */\n  swap3\n  swap2\n  pop\n  pop\n  jump\t// out\n    /* \"#utility.yul\":3754:3934   */\ntag_11:\n    /* \"#utility.yul\":3802:3879   */\n  0x4e487b7100000000000000000000000000000000000000000000000000000000\n    /* \"#utility.yul\":3799:3800   */\n  0x00\n    /* \"#utility.yul\":3792:3880   */\n  mstore\n    /* \"#utility.yul\":3899:3903   */\n  0x32\n    /* \"#utility.yul\":3896:3897   */\n  0x04\n    /* \"#utility.yul\":3889:3904   */\n  mstore\n    /* \"#utility.yul\":3923:3927   */\n  0x24\n    /* \"#utility.yul\":3920:3921   */\n  0x00\n    /* \"#utility.yul\":3913:3928   */\n  revert\n    /* \"S/Shell/Shell.sol\":2428:3119  contract WebShellSafe {... */\ntag_12:\n  mload(0x80)\n  codecopy(0x00, dataOffset(sub_0), dataSize(sub_0))\n  0x00\n  assignImmutable(\"0xa193fcc33caa07ae168578ccf7b3af2565fac160043aa975f5f8e1204096a380\")\n  return(0x00, dataSize(sub_0))\nstop\n\nsub_0: assembly {\n        /* \"S/Shell/Shell.sol\":2428:3119  contract WebShellSafe {... */\n      mstore(0x40, 0x80)\n      jumpi(tag_1, lt(calldatasize, 0x04))\n      shr(0xe0, calldataload(0x00))\n      dup1\n      0x6199f754\n      eq\n      tag_3\n      jumpi\n      dup1\n      0x8da5cb5b\n      eq\n      tag_4\n      jumpi\n      dup1\n      0x9c2141f2\n      eq\n      tag_5\n      jumpi\n      jump(tag_2)\n    tag_1:\n    tag_2:\n        /* \"S/Shell/Shell.sol\":2923:2933  bytes4 sel */\n      0x00\n        /* \"S/Shell/Shell.sol\":2936:2943  msg.sig */\n      dup1\n      calldataload\n      0xffffffff00000000000000000000000000000000000000000000000000000000\n      and\n        /* \"S/Shell/Shell.sol\":2923:2943  bytes4 sel = msg.sig */\n      swap1\n      pop\n        /* \"S/Shell/Shell.sol\":2958:2965  allowed */\n      0x00\n        /* \"S/Shell/Shell.sol\":2958:2970  allowed[sel] */\n      dup1\n        /* \"S/Shell/Shell.sol\":2966:2969  sel */\n      dup3\n        /* \"S/Shell/Shell.sol\":2958:2970  allowed[sel] */\n      not(0xffffffffffffffffffffffffffffffffffffffffffffffffffffffff)\n      and\n      not(0xffffffffffffffffffffffffffffffffffffffffffffffffffffffff)\n      and\n      dup2\n      mstore\n      0x20\n      add\n      swap1\n      dup2\n      mstore\n      0x20\n      add\n      0x00\n      keccak256\n      0x00\n      swap1\n      sload\n      swap1\n      0x0100\n      exp\n      swap1\n      div\n      0xff\n      and\n        /* \"S/Shell/Shell.sol\":2953:3006  if (!allowed[sel]) revert Shell__SelectorNotAllowed() */\n      tag_8\n      jumpi\n        /* \"S/Shell/Shell.sol\":2979:3006  Shell__SelectorNotAllowed() */\n      mload(0x40)\n      0xeebbfcef00000000000000000000000000000000000000000000000000000000\n      dup2\n      mstore\n      0x04\n      add\n      mload(0x40)\n      dup1\n      swap2\n      sub\n      swap1\n      revert\n        /* \"S/Shell/Shell.sol\":2953:3006  if (!allowed[sel]) revert Shell__SelectorNotAllowed() */\n    tag_8:\n        /* \"S/Shell/Shell.sol\":3017:3024  bool ok */\n      0x00\n        /* \"S/Shell/Shell.sol\":3038:3042  this */\n      address\n        /* \"S/Shell/Shell.sol\":3030:3056  address(this).delegatecall */\n      0xffffffffffffffffffffffffffffffffffffffff\n      and\n        /* \"S/Shell/Shell.sol\":3057:3065  msg.data */\n      0x00\n      calldatasize\n        /* \"S/Shell/Shell.sol\":3030:3066  address(this).delegatecall(msg.data) */\n      mload(0x40)\n      tag_9\n      swap3\n      swap2\n      swap1\n      tag_10\n      jump\t// in\n    tag_9:\n      0x00\n      mload(0x40)\n      dup1\n      dup4\n      sub\n      dup2\n      dup6\n      gas\n      delegatecall\n      swap2\n      pop\n      pop\n      returndatasize\n      dup1\n      0x00\n      dup2\n      eq\n      tag_13\n      jumpi\n      mload(0x40)\n      swap2\n      pop\n      and(add(returndatasize, 0x3f), not(0x1f))\n      dup3\n      add\n      0x40\n      mstore\n      returndatasize\n      dup3\n      mstore\n      returndatasize\n      0x00\n      0x20\n      dup5\n      add\n      returndatacopy\n      jump(tag_12)\n    tag_13:\n      0x60\n      swap2\n      pop\n    tag_12:\n      pop\n        /* \"S/Shell/Shell.sol\":3016:3066  (bool ok, ) = address(this).delegatecall(msg.data) */\n      pop\n      swap1\n      pop\n        /* \"S/Shell/Shell.sol\":3084:3086  ok */\n      dup1\n        /* \"S/Shell/Shell.sol\":3076:3110  require(ok, \"delegatecall failed\") */\n      tag_14\n      jumpi\n      mload(0x40)\n      0x08c379a000000000000000000000000000000000000000000000000000000000\n      dup2\n      mstore\n      0x04\n      add\n      tag_15\n      swap1\n      tag_16\n      jump\t// in\n    tag_15:\n      mload(0x40)\n      dup1\n      swap2\n      sub\n      swap1\n      revert\n    tag_14:\n        /* \"S/Shell/Shell.sol\":2913:3117  {... */\n      stop\n        /* \"S/Shell/Shell.sol\":2748:2879  function allow(bytes4 sel) external {... */\n    tag_3:\n      callvalue\n      dup1\n      iszero\n      tag_17\n      jumpi\n      0x00\n      dup1\n      revert\n    tag_17:\n      pop\n      tag_18\n      0x04\n      dup1\n      calldatasize\n      sub\n      dup2\n      add\n      swap1\n      tag_19\n      swap2\n      swap1\n      tag_20\n      jump\t// in\n    tag_19:\n      tag_21\n      jump\t// in\n    tag_18:\n      stop\n        /* \"S/Shell/Shell.sol\":2456:2486  address public immutable owner */\n    tag_4:\n      callvalue\n      dup1\n      iszero\n      tag_22\n      jumpi\n      0x00\n      dup1\n      revert\n    tag_22:\n      pop\n      tag_23\n      tag_24\n      jump\t// in\n    tag_23:\n      mload(0x40)\n      tag_25\n      swap2\n      swap1\n      tag_26\n      jump\t// in\n    tag_25:\n      mload(0x40)\n      dup1\n      swap2\n      sub\n      swap1\n      return\n        /* \"S/Shell/Shell.sol\":2492:2530  mapping(bytes4 => bool) public allowed */\n    tag_5:\n      callvalue\n      dup1\n      iszero\n      tag_27\n      jumpi\n      0x00\n      dup1\n      revert\n    tag_27:\n      pop\n      tag_28\n      0x04\n      dup1\n      calldatasize\n      sub\n      dup2\n      add\n      swap1\n      tag_29\n      swap2\n      swap1\n      tag_20\n      jump\t// in\n    tag_29:\n      tag_30\n      jump\t// in\n    tag_28:\n      mload(0x40)\n      tag_31\n      swap2\n      swap1\n      tag_32\n      jump\t// in\n    tag_31:\n      mload(0x40)\n      dup1\n      swap2\n      sub\n      swap1\n      return\n        /* \"S/Shell/Shell.sol\":2748:2879  function allow(bytes4 sel) external {... */\n    tag_21:\n        /* \"S/Shell/Shell.sol\":2812:2817  owner */\n      immutable(\"0xa193fcc33caa07ae168578ccf7b3af2565fac160043aa975f5f8e1204096a380\")\n        /* \"S/Shell/Shell.sol\":2798:2817  msg.sender != owner */\n      0xffffffffffffffffffffffffffffffffffffffff\n      and\n        /* \"S/Shell/Shell.sol\":2798:2808  msg.sender */\n      caller\n        /* \"S/Shell/Shell.sol\":2798:2817  msg.sender != owner */\n      0xffffffffffffffffffffffffffffffffffffffff\n      and\n      eq\n        /* \"S/Shell/Shell.sol\":2794:2843  if (msg.sender != owner) revert Shell__NotOwner() */\n      tag_34\n      jumpi\n        /* \"S/Shell/Shell.sol\":2826:2843  Shell__NotOwner() */\n      mload(0x40)\n      0xde1e8bd500000000000000000000000000000000000000000000000000000000\n      dup2\n      mstore\n      0x04\n      add\n      mload(0x40)\n      dup1\n      swap2\n      sub\n      swap1\n      revert\n        /* \"S/Shell/Shell.sol\":2794:2843  if (msg.sender != owner) revert Shell__NotOwner() */\n    tag_34:\n        /* \"S/Shell/Shell.sol\":2868:2872  true */\n      0x01\n        /* \"S/Shell/Shell.sol\":2853:2860  allowed */\n      0x00\n        /* \"S/Shell/Shell.sol\":2853:2865  allowed[sel] */\n      dup1\n        /* \"S/Shell/Shell.sol\":2861:2864  sel */\n      dup4\n        /* \"S/Shell/Shell.sol\":2853:2865  allowed[sel] */\n      not(0xffffffffffffffffffffffffffffffffffffffffffffffffffffffff)\n      and\n      not(0xffffffffffffffffffffffffffffffffffffffffffffffffffffffff)\n      and\n      dup2\n      mstore\n      0x20\n      add\n      swap1\n      dup2\n      mstore\n      0x20\n      add\n      0x00\n      keccak256\n      0x00\n        /* \"S/Shell/Shell.sol\":2853:2872  allowed[sel] = true */\n      0x0100\n      exp\n      dup2\n      sload\n      dup2\n      0xff\n      mul\n      not\n      and\n      swap1\n      dup4\n      iszero\n      iszero\n      mul\n      or\n      swap1\n      sstore\n      pop\n        /* \"S/Shell/Shell.sol\":2748:2879  function allow(bytes4 sel) external {... */\n      pop\n      jump\t// out\n        /* \"S/Shell/Shell.sol\":2456:2486  address public immutable owner */\n    tag_24:\n      immutable(\"0xa193fcc33caa07ae168578ccf7b3af2565fac160043aa975f5f8e1204096a380\")\n      dup2\n      jump\t// out\n        /* \"S/Shell/Shell.sol\":2492:2530  mapping(bytes4 => bool) public allowed */\n    tag_30:\n      mstore(0x20, 0x00)\n      dup1\n      0x00\n      mstore\n      keccak256(0x00, 0x40)\n      0x00\n      swap2\n      pop\n      sload\n      swap1\n      0x0100\n      exp\n      swap1\n      div\n      0xff\n      and\n      dup2\n      jump\t// out\n        /* \"#utility.yul\":7:154   */\n    tag_35:\n        /* \"#utility.yul\":108:119   */\n      0x00\n        /* \"#utility.yul\":145:148   */\n      dup2\n        /* \"#utility.yul\":130:148   */\n      swap1\n      pop\n        /* \"#utility.yul\":7:154   */\n      swap3\n      swap2\n      pop\n      pop\n      jump\t// out\n        /* \"#utility.yul\":160:308   */\n    tag_36:\n        /* \"#utility.yul\":258:264   */\n      dup3\n        /* \"#utility.yul\":253:256   */\n      dup2\n        /* \"#utility.yul\":248:251   */\n      dup4\n        /* \"#utility.yul\":235:265   */\n      calldatacopy\n        /* \"#utility.yul\":299:300   */\n      0x00\n        /* \"#utility.yul\":290:296   */\n      dup4\n        /* \"#utility.yul\":285:288   */\n      dup4\n        /* \"#utility.yul\":281:297   */\n      add\n        /* \"#utility.yul\":274:301   */\n      mstore\n        /* \"#utility.yul\":160:308   */\n      pop\n      pop\n      pop\n      jump\t// out\n        /* \"#utility.yul\":336:663   */\n    tag_37:\n        /* \"#utility.yul\":450:453   */\n      0x00\n        /* \"#utility.yul\":471:559   */\n      tag_56\n        /* \"#utility.yul\":552:558   */\n      dup4\n        /* \"#utility.yul\":547:550   */\n      dup6\n        /* \"#utility.yul\":471:559   */\n      tag_35\n      jump\t// in\n    tag_56:\n        /* \"#utility.yul\":464:559   */\n      swap4\n      pop\n        /* \"#utility.yul\":569:625   */\n      tag_57\n        /* \"#utility.yul\":618:624   */\n      dup4\n        /* \"#utility.yul\":613:616   */\n      dup6\n        /* \"#utility.yul\":606:611   */\n      dup5\n        /* \"#utility.yul\":569:625   */\n      tag_36\n      jump\t// in\n    tag_57:\n        /* \"#utility.yul\":650:656   */\n      dup3\n        /* \"#utility.yul\":645:648   */\n      dup5\n        /* \"#utility.yul\":641:657   */\n      add\n        /* \"#utility.yul\":634:657   */\n      swap1\n      pop\n        /* \"#utility.yul\":336:663   */\n      swap4\n      swap3\n      pop\n      pop\n      pop\n      jump\t// out\n        /* \"#utility.yul\":669:960   */\n    tag_10:\n        /* \"#utility.yul\":809:812   */\n      0x00\n        /* \"#utility.yul\":831:934   */\n      tag_59\n        /* \"#utility.yul\":930:933   */\n      dup3\n        /* \"#utility.yul\":921:927   */\n      dup5\n        /* \"#utility.yul\":913:919   */\n      dup7\n        /* \"#utility.yul\":831:934   */\n      tag_37\n      jump\t// in\n    tag_59:\n        /* \"#utility.yul\":824:934   */\n      swap2\n      pop\n        /* \"#utility.yul\":951:954   */\n      dup2\n        /* \"#utility.yul\":944:954   */\n      swap1\n      pop\n        /* \"#utility.yul\":669:960   */\n      swap4\n      swap3\n      pop\n      pop\n      pop\n      jump\t// out\n        /* \"#utility.yul\":966:1135   */\n    tag_38:\n        /* \"#utility.yul\":1050:1061   */\n      0x00\n        /* \"#utility.yul\":1084:1090   */\n      dup3\n        /* \"#utility.yul\":1079:1082   */\n      dup3\n        /* \"#utility.yul\":1072:1091   */\n      mstore\n        /* \"#utility.yul\":1124:1128   */\n      0x20\n        /* \"#utility.yul\":1119:1122   */\n      dup3\n        /* \"#utility.yul\":1115:1129   */\n      add\n        /* \"#utility.yul\":1100:1129   */\n      swap1\n      pop\n        /* \"#utility.yul\":966:1135   */\n      swap3\n      swap2\n      pop\n      pop\n      jump\t// out\n        /* \"#utility.yul\":1141:1310   */\n    tag_39:\n        /* \"#utility.yul\":1281:1302   */\n      0x64656c656761746563616c6c206661696c656400000000000000000000000000\n        /* \"#utility.yul\":1277:1278   */\n      0x00\n        /* \"#utility.yul\":1269:1275   */\n      dup3\n        /* \"#utility.yul\":1265:1279   */\n      add\n        /* \"#utility.yul\":1258:1303   */\n      mstore\n        /* \"#utility.yul\":1141:1310   */\n      pop\n      jump\t// out\n        /* \"#utility.yul\":1316:1682   */\n    tag_40:\n        /* \"#utility.yul\":1458:1461   */\n      0x00\n        /* \"#utility.yul\":1479:1546   */\n      tag_63\n        /* \"#utility.yul\":1543:1545   */\n      0x13\n        /* \"#utility.yul\":1538:1541   */\n      dup4\n        /* \"#utility.yul\":1479:1546   */\n      tag_38\n      jump\t// in\n    tag_63:\n        /* \"#utility.yul\":1472:1546   */\n      swap2\n      pop\n        /* \"#utility.yul\":1555:1648   */\n      tag_64\n        /* \"#utility.yul\":1644:1647   */\n      dup3\n        /* \"#utility.yul\":1555:1648   */\n      tag_39\n      jump\t// in\n    tag_64:\n        /* \"#utility.yul\":1673:1675   */\n      0x20\n        /* \"#utility.yul\":1668:1671   */\n      dup3\n        /* \"#utility.yul\":1664:1676   */\n      add\n        /* \"#utility.yul\":1657:1676   */\n      swap1\n      pop\n        /* \"#utility.yul\":1316:1682   */\n      swap2\n      swap1\n      pop\n      jump\t// out\n        /* \"#utility.yul\":1688:2107   */\n    tag_16:\n        /* \"#utility.yul\":1854:1858   */\n      0x00\n        /* \"#utility.yul\":1892:1894   */\n      0x20\n        /* \"#utility.yul\":1881:1890   */\n      dup3\n        /* \"#utility.yul\":1877:1895   */\n      add\n        /* \"#utility.yul\":1869:1895   */\n      swap1\n      pop\n        /* \"#utility.yul\":1941:1950   */\n      dup2\n        /* \"#utility.yul\":1935:1939   */\n      dup2\n        /* \"#utility.yul\":1931:1951   */\n      sub\n        /* \"#utility.yul\":1927:1928   */\n      0x00\n        /* \"#utility.yul\":1916:1925   */\n      dup4\n        /* \"#utility.yul\":1912:1929   */\n      add\n        /* \"#utility.yul\":1905:1952   */\n      mstore\n        /* \"#utility.yul\":1969:2100   */\n      tag_66\n        /* \"#utility.yul\":2095:2099   */\n      dup2\n        /* \"#utility.yul\":1969:2100   */\n      tag_40\n      jump\t// in\n    tag_66:\n        /* \"#utility.yul\":1961:2100   */\n      swap1\n      pop\n        /* \"#utility.yul\":1688:2107   */\n      swap2\n      swap1\n      pop\n      jump\t// out\n        /* \"#utility.yul\":2194:2311   */\n    tag_42:\n        /* \"#utility.yul\":2303:2304   */\n      0x00\n        /* \"#utility.yul\":2300:2301   */\n      dup1\n        /* \"#utility.yul\":2293:2305   */\n      revert\n        /* \"#utility.yul\":2440:2589   */\n    tag_44:\n        /* \"#utility.yul\":2476:2483   */\n      0x00\n        /* \"#utility.yul\":2516:2582   */\n      0xffffffff00000000000000000000000000000000000000000000000000000000\n        /* \"#utility.yul\":2509:2514   */\n      dup3\n        /* \"#utility.yul\":2505:2583   */\n      and\n        /* \"#utility.yul\":2494:2583   */\n      swap1\n      pop\n        /* \"#utility.yul\":2440:2589   */\n      swap2\n      swap1\n      pop\n      jump\t// out\n        /* \"#utility.yul\":2595:2715   */\n    tag_45:\n        /* \"#utility.yul\":2667:2690   */\n      tag_72\n        /* \"#utility.yul\":2684:2689   */\n      dup2\n        /* \"#utility.yul\":2667:2690   */\n      tag_44\n      jump\t// in\n    tag_72:\n        /* \"#utility.yul\":2660:2665   */\n      dup2\n        /* \"#utility.yul\":2657:2691   */\n      eq\n        /* \"#utility.yul\":2647:2709   */\n      tag_73\n      jumpi\n        /* \"#utility.yul\":2705:2706   */\n      0x00\n        /* \"#utility.yul\":2702:2703   */\n      dup1\n        /* \"#utility.yul\":2695:2707   */\n      revert\n        /* \"#utility.yul\":2647:2709   */\n    tag_73:\n        /* \"#utility.yul\":2595:2715   */\n      pop\n      jump\t// out\n        /* \"#utility.yul\":2721:2858   */\n    tag_46:\n        /* \"#utility.yul\":2766:2771   */\n      0x00\n        /* \"#utility.yul\":2804:2810   */\n      dup2\n        /* \"#utility.yul\":2791:2811   */\n      calldataload\n        /* \"#utility.yul\":2782:2811   */\n      swap1\n      pop\n        /* \"#utility.yul\":2820:2852   */\n      tag_75\n        /* \"#utility.yul\":2846:2851   */\n      dup2\n        /* \"#utility.yul\":2820:2852   */\n      tag_45\n      jump\t// in\n    tag_75:\n        /* \"#utility.yul\":2721:2858   */\n      swap3\n      swap2\n      pop\n      pop\n      jump\t// out\n        /* \"#utility.yul\":2864:3191   */\n    tag_20:\n        /* \"#utility.yul\":2922:2928   */\n      0x00\n        /* \"#utility.yul\":2971:2973   */\n      0x20\n        /* \"#utility.yul\":2959:2968   */\n      dup3\n        /* \"#utility.yul\":2950:2957   */\n      dup5\n        /* \"#utility.yul\":2946:2969   */\n      sub\n        /* \"#utility.yul\":2942:2974   */\n      slt\n        /* \"#utility.yul\":2939:3058   */\n      iszero\n      tag_77\n      jumpi\n        /* \"#utility.yul\":2977:3056   */\n      tag_78\n      tag_42\n      jump\t// in\n    tag_78:\n        /* \"#utility.yul\":2939:3058   */\n    tag_77:\n        /* \"#utility.yul\":3097:3098   */\n      0x00\n        /* \"#utility.yul\":3122:3174   */\n      tag_79\n        /* \"#utility.yul\":3166:3173   */\n      dup5\n        /* \"#utility.yul\":3157:3163   */\n      dup3\n        /* \"#utility.yul\":3146:3155   */\n      dup6\n        /* \"#utility.yul\":3142:3164   */\n      add\n        /* \"#utility.yul\":3122:3174   */\n      tag_46\n      jump\t// in\n    tag_79:\n        /* \"#utility.yul\":3112:3174   */\n      swap2\n      pop\n        /* \"#utility.yul\":3068:3184   */\n      pop\n        /* \"#utility.yul\":2864:3191   */\n      swap3\n      swap2\n      pop\n      pop\n      jump\t// out\n        /* \"#utility.yul\":3197:3323   */\n    tag_47:\n        /* \"#utility.yul\":3234:3241   */\n      0x00\n        /* \"#utility.yul\":3274:3316   */\n      0xffffffffffffffffffffffffffffffffffffffff\n        /* \"#utility.yul\":3267:3272   */\n      dup3\n        /* \"#utility.yul\":3263:3317   */\n      and\n        /* \"#utility.yul\":3252:3317   */\n      swap1\n      pop\n        /* \"#utility.yul\":3197:3323   */\n      swap2\n      swap1\n      pop\n      jump\t// out\n        /* \"#utility.yul\":3329:3425   */\n    tag_48:\n        /* \"#utility.yul\":3366:3373   */\n      0x00\n        /* \"#utility.yul\":3395:3419   */\n      tag_82\n        /* \"#utility.yul\":3413:3418   */\n      dup3\n        /* \"#utility.yul\":3395:3419   */\n      tag_47\n      jump\t// in\n    tag_82:\n        /* \"#utility.yul\":3384:3419   */\n      swap1\n      pop\n        /* \"#utility.yul\":3329:3425   */\n      swap2\n      swap1\n      pop\n      jump\t// out\n        /* \"#utility.yul\":3431:3549   */\n    tag_49:\n        /* \"#utility.yul\":3518:3542   */\n      tag_84\n        /* \"#utility.yul\":3536:3541   */\n      dup2\n        /* \"#utility.yul\":3518:3542   */\n      tag_48\n      jump\t// in\n    tag_84:\n        /* \"#utility.yul\":3513:3516   */\n      dup3\n        /* \"#utility.yul\":3506:3543   */\n      mstore\n        /* \"#utility.yul\":3431:3549   */\n      pop\n      pop\n      jump\t// out\n        /* \"#utility.yul\":3555:3777   */\n    tag_26:\n        /* \"#utility.yul\":3648:3652   */\n      0x00\n        /* \"#utility.yul\":3686:3688   */\n      0x20\n        /* \"#utility.yul\":3675:3684   */\n      dup3\n        /* \"#utility.yul\":3671:3689   */\n      add\n        /* \"#utility.yul\":3663:3689   */\n      swap1\n      pop\n        /* \"#utility.yul\":3699:3770   */\n      tag_86\n        /* \"#utility.yul\":3767:3768   */\n      0x00\n        /* \"#utility.yul\":3756:3765   */\n      dup4\n        /* \"#utility.yul\":3752:3769   */\n      add\n        /* \"#utility.yul\":3743:3749   */\n      dup5\n        /* \"#utility.yul\":3699:3770   */\n      tag_49\n      jump\t// in\n    tag_86:\n        /* \"#utility.yul\":3555:3777   */\n      swap3\n      swap2\n      pop\n      pop\n      jump\t// out\n        /* \"#utility.yul\":3783:3873   */\n    tag_50:\n        /* \"#utility.yul\":3817:3824   */\n      0x00\n        /* \"#utility.yul\":3860:3865   */\n      dup2\n        /* \"#utility.yul\":3853:3866   */\n      iszero\n        /* \"#utility.yul\":3846:3867   */\n      iszero\n        /* \"#utility.yul\":3835:3867   */\n      swap1\n      pop\n        /* \"#utility.yul\":3783:3873   */\n      swap2\n      swap1\n      pop\n      jump\t// out\n        /* \"#utility.yul\":3879:3988   */\n    tag_51:\n        /* \"#utility.yul\":3960:3981   */\n      tag_89\n        /* \"#utility.yul\":3975:3980   */\n      dup2\n        /* \"#utility.yul\":3960:3981   */\n      tag_50\n      jump\t// in\n    tag_89:\n        /* \"#utility.yul\":3955:3958   */\n      dup3\n        /* \"#utility.yul\":3948:3982   */\n      mstore\n        /* \"#utility.yul\":3879:3988   */\n      pop\n      pop\n      jump\t// out\n        /* \"#utility.yul\":3994:4204   */\n    tag_32:\n        /* \"#utility.yul\":4081:4085   */\n      0x00\n        /* \"#utility.yul\":4119:4121   */\n      0x20\n        /* \"#utility.yul\":4108:4117   */\n      dup3\n        /* \"#utility.yul\":4104:4122   */\n      add\n        /* \"#utility.yul\":4096:4122   */\n      swap1\n      pop\n        /* \"#utility.yul\":4132:4197   */\n      tag_91\n        /* \"#utility.yul\":4194:4195   */\n      0x00\n        /* \"#utility.yul\":4183:4192   */\n      dup4\n        /* \"#utility.yul\":4179:4196   */\n      add\n        /* \"#utility.yul\":4170:4176   */\n      dup5\n        /* \"#utility.yul\":4132:4197   */\n      tag_51\n      jump\t// in\n    tag_91:\n        /* \"#utility.yul\":3994:4204   */\n      swap3\n      swap2\n      pop\n      pop\n      jump\t// out\n\n    auxdata: 0xa2646970667358221220537cde97ea5fb7adb666269eae297a415bd91ae92901d8736e5d3d87570277ed64736f6c634300081a0033\n}\n",
				"bytecode": {
					"linkReferences": {},
					"object": "60a060405234801561000f575f80fd5b506040516108b53803806108b5833981810160405281019061003191906102ba565b3373ffffffffffffffffffffffffffffffffffffffff1660808173ffffffffffffffffffffffffffffffffffffffff16815250505f5b81518110156100fd5760015f8084848151811061008757610086610301565b5b60200260200101517bffffffffffffffffffffffffffffffffffffffffffffffffffffffff19167bffffffffffffffffffffffffffffffffffffffffffffffffffffffff191681526020019081526020015f205f6101000a81548160ff0219169083151502179055508080600101915050610067565b505061032e565b5f604051905090565b5f80fd5b5f80fd5b5f80fd5b5f601f19601f8301169050919050565b7f4e487b71000000000000000000000000000000000000000000000000000000005f52604160045260245ffd5b61015f82610119565b810181811067ffffffffffffffff8211171561017e5761017d610129565b5b80604052505050565b5f610190610104565b905061019c8282610156565b919050565b5f67ffffffffffffffff8211156101bb576101ba610129565b5b602082029050602081019050919050565b5f80fd5b5f7fffffffff0000000000000000000000000000000000000000000000000000000082169050919050565b610204816101d0565b811461020e575f80fd5b50565b5f8151905061021f816101fb565b92915050565b5f610237610232846101a1565b610187565b9050808382526020820190506020840283018581111561025a576102596101cc565b5b835b81811015610283578061026f8882610211565b84526020840193505060208101905061025c565b5050509392505050565b5f82601f8301126102a1576102a0610115565b5b81516102b1848260208601610225565b91505092915050565b5f602082840312156102cf576102ce61010d565b5b5f82015167ffffffffffffffff8111156102ec576102eb610111565b5b6102f88482850161028d565b91505092915050565b7f4e487b71000000000000000000000000000000000000000000000000000000005f52603260045260245ffd5b60805161056861034d5f395f818161022b015261031901526105685ff3fe608060405260043610610037575f3560e01c80636199f7541461019b5780638da5cb5b146101c35780639c2141f2146101ed57610038565b5b5f80357fffffffff000000000000000000000000000000000000000000000000000000001690505f80827bffffffffffffffffffffffffffffffffffffffffffffffffffffffff19167bffffffffffffffffffffffffffffffffffffffffffffffffffffffff191681526020019081526020015f205f9054906101000a900460ff166100f0576040517feebbfcef00000000000000000000000000000000000000000000000000000000815260040160405180910390fd5b5f3073ffffffffffffffffffffffffffffffffffffffff165f36604051610118929190610393565b5f60405180830381855af49150503d805f8114610150576040519150601f19603f3d011682016040523d82523d5f602084013e610155565b606091505b5050905080610199576040517f08c379a000000000000000000000000000000000000000000000000000000000815260040161019090610405565b60405180910390fd5b005b3480156101a6575f80fd5b506101c160048036038101906101bc919061047c565b610229565b005b3480156101ce575f80fd5b506101d7610317565b6040516101e491906104e6565b60405180910390f35b3480156101f8575f80fd5b50610213600480360381019061020e919061047c565b61033b565b6040516102209190610519565b60405180910390f35b7f000000000000000000000000000000000000000000000000000000000000000073ffffffffffffffffffffffffffffffffffffffff163373ffffffffffffffffffffffffffffffffffffffff16146102ae576040517fde1e8bd500000000000000000000000000000000000000000000000000000000815260040160405180910390fd5b60015f80837bffffffffffffffffffffffffffffffffffffffffffffffffffffffff19167bffffffffffffffffffffffffffffffffffffffffffffffffffffffff191681526020019081526020015f205f6101000a81548160ff02191690831515021790555050565b7f000000000000000000000000000000000000000000000000000000000000000081565b5f602052805f5260405f205f915054906101000a900460ff1681565b5f81905092915050565b828183375f83830152505050565b5f61037a8385610357565b9350610387838584610361565b82840190509392505050565b5f61039f82848661036f565b91508190509392505050565b5f82825260208201905092915050565b7f64656c656761746563616c6c206661696c6564000000000000000000000000005f82015250565b5f6103ef6013836103ab565b91506103fa826103bb565b602082019050919050565b5f6020820190508181035f83015261041c816103e3565b9050919050565b5f80fd5b5f7fffffffff0000000000000000000000000000000000000000000000000000000082169050919050565b61045b81610427565b8114610465575f80fd5b50565b5f8135905061047681610452565b92915050565b5f6020828403121561049157610490610423565b5b5f61049e84828501610468565b91505092915050565b5f73ffffffffffffffffffffffffffffffffffffffff82169050919050565b5f6104d0826104a7565b9050919050565b6104e0816104c6565b82525050565b5f6020820190506104f95f8301846104d7565b92915050565b5f8115159050919050565b610513816104ff565b82525050565b5f60208201905061052c5f83018461050a565b9291505056fea2646970667358221220537cde97ea5fb7adb666269eae297a415bd91ae92901d8736e5d3d87570277ed64736f6c634300081a0033",
					"opcodes": "PUSH1 0xA0 PUSH1 0x40 MSTORE CALLVALUE DUP1 ISZERO PUSH2 0xF JUMPI PUSH0 DUP1 REVERT JUMPDEST POP PUSH1 0x40 MLOAD PUSH2 0x8B5 CODESIZE SUB DUP1 PUSH2 0x8B5 DUP4 CODECOPY DUP2 DUP2 ADD PUSH1 0x40 MSTORE DUP2 ADD SWAP1 PUSH2 0x31 SWAP2 SWAP1 PUSH2 0x2BA JUMP JUMPDEST CALLER PUSH20 0xFFFFFFFFFFFFFFFFFFFFFFFFFFFFFFFFFFFFFFFF AND PUSH1 0x80 DUP2 PUSH20 0xFFFFFFFFFFFFFFFFFFFFFFFFFFFFFFFFFFFFFFFF AND DUP2 MSTORE POP POP PUSH0 JUMPDEST DUP2 MLOAD DUP2 LT ISZERO PUSH2 0xFD JUMPI PUSH1 0x1 PUSH0 DUP1 DUP5 DUP5 DUP2 MLOAD DUP2 LT PUSH2 0x87 JUMPI PUSH2 0x86 PUSH2 0x301 JUMP JUMPDEST JUMPDEST PUSH1 0x20 MUL PUSH1 0x20 ADD ADD MLOAD PUSH28 0xFFFFFFFFFFFFFFFFFFFFFFFFFFFFFFFFFFFFFFFFFFFFFFFFFFFFFFFF NOT AND PUSH28 0xFFFFFFFFFFFFFFFFFFFFFFFFFFFFFFFFFFFFFFFFFFFFFFFFFFFFFFFF NOT AND DUP2 MSTORE PUSH1 0x20 ADD SWAP1 DUP2 MSTORE PUSH1 0x20 ADD PUSH0 KECCAK256 PUSH0 PUSH2 0x100 EXP DUP2 SLOAD DUP2 PUSH1 0xFF MUL NOT AND SWAP1 DUP4 ISZERO ISZERO MUL OR SWAP1 SSTORE POP DUP1 DUP1 PUSH1 0x1 ADD SWAP2 POP POP PUSH2 0x67 JUMP JUMPDEST POP POP PUSH2 0x32E JUMP JUMPDEST PUSH0 PUSH1 0x40 MLOAD SWAP1 POP SWAP1 JUMP JUMPDEST PUSH0 DUP1 REVERT JUMPDEST PUSH0 DUP1 REVERT JUMPDEST PUSH0 DUP1 REVERT JUMPDEST PUSH0 PUSH1 0x1F NOT PUSH1 0x1F DUP4 ADD AND SWAP1 POP SWAP2 SWAP1 POP JUMP JUMPDEST PUSH32 0x4E487B7100000000000000000000000000000000000000000000000000000000 PUSH0 MSTORE PUSH1 0x41 PUSH1 0x4 MSTORE PUSH1 0x24 PUSH0 REVERT JUMPDEST PUSH2 0x15F DUP3 PUSH2 0x119 JUMP JUMPDEST DUP2 ADD DUP2 DUP2 LT PUSH8 0xFFFFFFFFFFFFFFFF DUP3 GT OR ISZERO PUSH2 0x17E JUMPI PUSH2 0x17D PUSH2 0x129 JUMP JUMPDEST JUMPDEST DUP1 PUSH1 0x40 MSTORE POP POP POP JUMP JUMPDEST PUSH0 PUSH2 0x190 PUSH2 0x104 JUMP JUMPDEST SWAP1 POP PUSH2 0x19C DUP3 DUP3 PUSH2 0x156 JUMP JUMPDEST SWAP2 SWAP1 POP JUMP JUMPDEST PUSH0 PUSH8 0xFFFFFFFFFFFFFFFF DUP3 GT ISZERO PUSH2 0x1BB JUMPI PUSH2 0x1BA PUSH2 0x129 JUMP JUMPDEST JUMPDEST PUSH1 0x20 DUP3 MUL SWAP1 POP PUSH1 0x20 DUP2 ADD SWAP1 POP SWAP2 SWAP1 POP JUMP JUMPDEST PUSH0 DUP1 REVERT JUMPDEST PUSH0 PUSH32 0xFFFFFFFF00000000000000000000000000000000000000000000000000000000 DUP3 AND SWAP1 POP SWAP2 SWAP1 POP JUMP JUMPDEST PUSH2 0x204 DUP2 PUSH2 0x1D0 JUMP JUMPDEST DUP2 EQ PUSH2 0x20E JUMPI PUSH0 DUP1 REVERT JUMPDEST POP JUMP JUMPDEST PUSH0 DUP2 MLOAD SWAP1 POP PUSH2 0x21F DUP2 PUSH2 0x1FB JUMP JUMPDEST SWAP3 SWAP2 POP POP JUMP JUMPDEST PUSH0 PUSH2 0x237 PUSH2 0x232 DUP5 PUSH2 0x1A1 JUMP JUMPDEST PUSH2 0x187 JUMP JUMPDEST SWAP1 POP DUP1 DUP4 DUP3 MSTORE PUSH1 0x20 DUP3 ADD SWAP1 POP PUSH1 0x20 DUP5 MUL DUP4 ADD DUP6 DUP2 GT ISZERO PUSH2 0x25A JUMPI PUSH2 0x259 PUSH2 0x1CC JUMP JUMPDEST JUMPDEST DUP4 JUMPDEST DUP2 DUP2 LT ISZERO PUSH2 0x283 JUMPI DUP1 PUSH2 0x26F DUP9 DUP3 PUSH2 0x211 JUMP JUMPDEST DUP5 MSTORE PUSH1 0x20 DUP5 ADD SWAP4 POP POP PUSH1 0x20 DUP2 ADD SWAP1 POP PUSH2 0x25C JUMP JUMPDEST POP POP POP SWAP4 SWAP3 POP POP POP JUMP JUMPDEST PUSH0 DUP3 PUSH1 0x1F DUP4 ADD SLT PUSH2 0x2A1 JUMPI PUSH2 0x2A0 PUSH2 0x115 JUMP JUMPDEST JUMPDEST DUP2 MLOAD PUSH2 0x2B1 DUP5 DUP3 PUSH1 0x20 DUP7 ADD PUSH2 0x225 JUMP JUMPDEST SWAP2 POP POP SWAP3 SWAP2 POP POP JUMP JUMPDEST PUSH0 PUSH1 0x20 DUP3 DUP5 SUB SLT ISZERO PUSH2 0x2CF JUMPI PUSH2 0x2CE PUSH2 0x10D JUMP JUMPDEST JUMPDEST PUSH0 DUP3 ADD MLOAD PUSH8 0xFFFFFFFFFFFFFFFF DUP2 GT ISZERO PUSH2 0x2EC JUMPI PUSH2 0x2EB PUSH2 0x111 JUMP JUMPDEST JUMPDEST PUSH2 0x2F8 DUP5 DUP3 DUP6 ADD PUSH2 0x28D JUMP JUMPDEST SWAP2 POP POP SWAP3 SWAP2 POP POP JUMP JUMPDEST PUSH32 0x4E487B7100000000000000000000000000000000000000000000000000000000 PUSH0 MSTORE PUSH1 0x32 PUSH1 0x4 MSTORE PUSH1 0x24 PUSH0 REVERT JUMPDEST PUSH1 0x80 MLOAD PUSH2 0x568 PUSH2 0x34D PUSH0 CODECOPY PUSH0 DUP2 DUP2 PUSH2 0x22B ADD MSTORE PUSH2 0x319 ADD MSTORE PUSH2 0x568 PUSH0 RETURN INVALID PUSH1 0x80 PUSH1 0x40 MSTORE PUSH1 0x4 CALLDATASIZE LT PUSH2 0x37 JUMPI PUSH0 CALLDATALOAD PUSH1 0xE0 SHR DUP1 PUSH4 0x6199F754 EQ PUSH2 0x19B JUMPI DUP1 PUSH4 0x8DA5CB5B EQ PUSH2 0x1C3 JUMPI DUP1 PUSH4 0x9C2141F2 EQ PUSH2 0x1ED JUMPI PUSH2 0x38 JUMP JUMPDEST JUMPDEST PUSH0 DUP1 CALLDATALOAD PUSH32 0xFFFFFFFF00000000000000000000000000000000000000000000000000000000 AND SWAP1 POP PUSH0 DUP1 DUP3 PUSH28 0xFFFFFFFFFFFFFFFFFFFFFFFFFFFFFFFFFFFFFFFFFFFFFFFFFFFFFFFF NOT AND PUSH28 0xFFFFFFFFFFFFFFFFFFFFFFFFFFFFFFFFFFFFFFFFFFFFFFFFFFFFFFFF NOT AND DUP2 MSTORE PUSH1 0x20 ADD SWAP1 DUP2 MSTORE PUSH1 0x20 ADD PUSH0 KECCAK256 PUSH0 SWAP1 SLOAD SWAP1 PUSH2 0x100 EXP SWAP1 DIV PUSH1 0xFF AND PUSH2 0xF0 JUMPI PUSH1 0x40 MLOAD PUSH32 0xEEBBFCEF00000000000000000000000000000000000000000000000000000000 DUP2 MSTORE PUSH1 0x4 ADD PUSH1 0x40 MLOAD DUP1 SWAP2 SUB SWAP1 REVERT JUMPDEST PUSH0 ADDRESS PUSH20 0xFFFFFFFFFFFFFFFFFFFFFFFFFFFFFFFFFFFFFFFF AND PUSH0 CALLDATASIZE PUSH1 0x40 MLOAD PUSH2 0x118 SWAP3 SWAP2 SWAP1 PUSH2 0x393 JUMP JUMPDEST PUSH0 PUSH1 0x40 MLOAD DUP1 DUP4 SUB DUP2 DUP6 GAS DELEGATECALL SWAP2 POP POP RETURNDATASIZE DUP1 PUSH0 DUP2 EQ PUSH2 0x150 JUMPI PUSH1 0x40 MLOAD SWAP2 POP PUSH1 0x1F NOT PUSH1 0x3F RETURNDATASIZE ADD AND DUP3 ADD PUSH1 0x40 MSTORE RETURNDATASIZE DUP3 MSTORE RETURNDATASIZE PUSH0 PUSH1 0x20 DUP5 ADD RETURNDATACOPY PUSH2 0x155 JUMP JUMPDEST PUSH1 0x60 SWAP2 POP JUMPDEST POP POP SWAP1 POP DUP1 PUSH2 0x199 JUMPI PUSH1 0x40 MLOAD PUSH32 0x8C379A000000000000000000000000000000000000000000000000000000000 DUP2 MSTORE PUSH1 0x4 ADD PUSH2 0x190 SWAP1 PUSH2 0x405 JUMP JUMPDEST PUSH1 0x40 MLOAD DUP1 SWAP2 SUB SWAP1 REVERT JUMPDEST STOP JUMPDEST CALLVALUE DUP1 ISZERO PUSH2 0x1A6 JUMPI PUSH0 DUP1 REVERT JUMPDEST POP PUSH2 0x1C1 PUSH1 0x4 DUP1 CALLDATASIZE SUB DUP2 ADD SWAP1 PUSH2 0x1BC SWAP2 SWAP1 PUSH2 0x47C JUMP JUMPDEST PUSH2 0x229 JUMP JUMPDEST STOP JUMPDEST CALLVALUE DUP1 ISZERO PUSH2 0x1CE JUMPI PUSH0 DUP1 REVERT JUMPDEST POP PUSH2 0x1D7 PUSH2 0x317 JUMP JUMPDEST PUSH1 0x40 MLOAD PUSH2 0x1E4 SWAP2 SWAP1 PUSH2 0x4E6 JUMP JUMPDEST PUSH1 0x40 MLOAD DUP1 SWAP2 SUB SWAP1 RETURN JUMPDEST CALLVALUE DUP1 ISZERO PUSH2 0x1F8 JUMPI PUSH0 DUP1 REVERT JUMPDEST POP PUSH2 0x213 PUSH1 0x4 DUP1 CALLDATASIZE SUB DUP2 ADD SWAP1 PUSH2 0x20E SWAP2 SWAP1 PUSH2 0x47C JUMP JUMPDEST PUSH2 0x33B JUMP JUMPDEST PUSH1 0x40 MLOAD PUSH2 0x220 SWAP2 SWAP1 PUSH2 0x519 JUMP JUMPDEST PUSH1 0x40 MLOAD DUP1 SWAP2 SUB SWAP1 RETURN JUMPDEST PUSH32 0x0 PUSH20 0xFFFFFFFFFFFFFFFFFFFFFFFFFFFFFFFFFFFFFFFF AND CALLER PUSH20 0xFFFFFFFFFFFFFFFFFFFFFFFFFFFFFFFFFFFFFFFF AND EQ PUSH2 0x2AE JUMPI PUSH1 0x40 MLOAD PUSH32 0xDE1E8BD500000000000000000000000000000000000000000000000000000000 DUP2 MSTORE PUSH1 0x4 ADD PUSH1 0x40 MLOAD DUP1 SWAP2 SUB SWAP1 REVERT JUMPDEST PUSH1 0x1 PUSH0 DUP1 DUP4 PUSH28 0xFFFFFFFFFFFFFFFFFFFFFFFFFFFFFFFFFFFFFFFFFFFFFFFFFFFFFFFF NOT AND PUSH28 0xFFFFFFFFFFFFFFFFFFFFFFFFFFFFFFFFFFFFFFFFFFFFFFFFFFFFFFFF NOT AND DUP2 MSTORE PUSH1 0x20 ADD SWAP1 DUP2 MSTORE PUSH1 0x20 ADD PUSH0 KECCAK256 PUSH0 PUSH2 0x100 EXP DUP2 SLOAD DUP2 PUSH1 0xFF MUL NOT AND SWAP1 DUP4 ISZERO ISZERO MUL OR SWAP1 SSTORE POP POP JUMP JUMPDEST PUSH32 0x0 DUP2 JUMP JUMPDEST PUSH0 PUSH1 0x20 MSTORE DUP1 PUSH0 MSTORE PUSH1 0x40 PUSH0 KECCAK256 PUSH0 SWAP2 POP SLOAD SWAP1 PUSH2 0x100 EXP SWAP1 DIV PUSH1 0xFF AND DUP2 JUMP JUMPDEST PUSH0 DUP2 SWAP1 POP SWAP3 SWAP2 POP POP JUMP JUMPDEST DUP3 DUP2 DUP4 CALLDATACOPY PUSH0 DUP4 DUP4 ADD MSTORE POP POP POP JUMP JUMPDEST PUSH0 PUSH2 0x37A DUP4 DUP6 PUSH2 0x357 JUMP JUMPDEST SWAP4 POP PUSH2 0x387 DUP4 DUP6 DUP5 PUSH2 0x361 JUMP JUMPDEST DUP3 DUP5 ADD SWAP1 POP SWAP4 SWAP3 POP POP POP JUMP JUMPDEST PUSH0 PUSH2 0x39F DUP3 DUP5 DUP7 PUSH2 0x36F JUMP JUMPDEST SWAP2 POP DUP2 SWAP1 POP SWAP4 SWAP3 POP POP POP JUMP JUMPDEST PUSH0 DUP3 DUP3 MSTORE PUSH1 0x20 DUP3 ADD SWAP1 POP SWAP3 SWAP2 POP POP JUMP JUMPDEST PUSH32 0x64656C656761746563616C6C206661696C656400000000000000000000000000 PUSH0 DUP3 ADD MSTORE POP JUMP JUMPDEST PUSH0 PUSH2 0x3EF PUSH1 0x13 DUP4 PUSH2 0x3AB JUMP JUMPDEST SWAP2 POP PUSH2 0x3FA DUP3 PUSH2 0x3BB JUMP JUMPDEST PUSH1 0x20 DUP3 ADD SWAP1 POP SWAP2 SWAP1 POP JUMP JUMPDEST PUSH0 PUSH1 0x20 DUP3 ADD SWAP1 POP DUP2 DUP2 SUB PUSH0 DUP4 ADD MSTORE PUSH2 0x41C DUP2 PUSH2 0x3E3 JUMP JUMPDEST SWAP1 POP SWAP2 SWAP1 POP JUMP JUMPDEST PUSH0 DUP1 REVERT JUMPDEST PUSH0 PUSH32 0xFFFFFFFF00000000000000000000000000000000000000000000000000000000 DUP3 AND SWAP1 POP SWAP2 SWAP1 POP JUMP JUMPDEST PUSH2 0x45B DUP2 PUSH2 0x427 JUMP JUMPDEST DUP2 EQ PUSH2 0x465 JUMPI PUSH0 DUP1 REVERT JUMPDEST POP JUMP JUMPDEST PUSH0 DUP2 CALLDATALOAD SWAP1 POP PUSH2 0x476 DUP2 PUSH2 0x452 JUMP JUMPDEST SWAP3 SWAP2 POP POP JUMP JUMPDEST PUSH0 PUSH1 0x20 DUP3 DUP5 SUB SLT ISZERO PUSH2 0x491 JUMPI PUSH2 0x490 PUSH2 0x423 JUMP JUMPDEST JUMPDEST PUSH0 PUSH2 0x49E DUP5 DUP3 DUP6 ADD PUSH2 0x468 JUMP JUMPDEST SWAP2 POP POP SWAP3 SWAP2 POP POP JUMP JUMPDEST PUSH0 PUSH20 0xFFFFFFFFFFFFFFFFFFFFFFFFFFFFFFFFFFFFFFFF DUP3 AND SWAP1 POP SWAP2 SWAP1 POP JUMP JUMPDEST PUSH0 PUSH2 0x4D0 DUP3 PUSH2 0x4A7 JUMP JUMPDEST SWAP1 POP SWAP2 SWAP1 POP JUMP JUMPDEST PUSH2 0x4E0 DUP2 PUSH2 0x4C6 JUMP JUMPDEST DUP3 MSTORE POP POP JUMP JUMPDEST PUSH0 PUSH1 0x20 DUP3 ADD SWAP1 POP PUSH2 0x4F9 PUSH0 DUP4 ADD DUP5 PUSH2 0x4D7 JUMP JUMPDEST SWAP3 SWAP2 POP POP JUMP JUMPDEST PUSH0 DUP2 ISZERO ISZERO SWAP1 POP SWAP2 SWAP1 POP JUMP JUMPDEST PUSH2 0x513 DUP2 PUSH2 0x4FF JUMP JUMPDEST DUP3 MSTORE POP POP JUMP JUMPDEST PUSH0 PUSH1 0x20 DUP3 ADD SWAP1 POP PUSH2 0x52C PUSH0 DUP4 ADD DUP5 PUSH2 0x50A JUMP JUMPDEST SWAP3 SWAP2 POP POP JUMP INVALID LOG2 PUSH5 0x6970667358 0x22 SLT KECCAK256 MSTORE8 PUSH29 0xDE97EA5FB7ADB666269EAE297A415BD91AE92901D8736E5D3D87570277 0xED PUSH5 0x736F6C6343 STOP ADDMOD BYTE STOP CALLER "
				},
				"gasEstimates": {
					"creation": {
						"codeDepositCost": "276800",
						"executionCost": "infinite",
						"totalCost": "infinite"
					},
					"external": {
						"": "infinite",
						"allow(bytes4)": "infinite",
						"allowed(bytes4)": "2812",
						"owner()": "infinite"
					}
				},
				"methodIdentifiers": {
					"allow(bytes4)": "6199f754",
					"allowed(bytes4)": "9c2141f2",
					"owner()": "8da5cb5b"
				}
			},
			"storageLayout": {
				"storage": [
					{
						"astId": 208,
						"contract": "S/Shell/Shell.sol:WebShellSafe",
						"label": "allowed",
						"offset": 0,
						"slot": "0",
						"type": "t_mapping(t_bytes4,t_bool)"
					}
				],
				"types": {
					"t_bool": {
						"encoding": "inplace",
						"label": "bool",
						"numberOfBytes": "1"
					},
					"t_bytes4": {
						"encoding": "inplace",
						"label": "bytes4",
						"numberOfBytes": "4"
					},
					"t_mapping(t_bytes4,t_bool)": {
						"encoding": "mapping",
						"key": "t_bytes4",
						"label": "mapping(bytes4 => bool)",
						"numberOfBytes": "32",
						"value": "t_bool"
					}
				}
			},
			"userdoc": {
				"errors": {
					"Shell__NotOwner()": [
						{
							"notice": "Shared errors"
						}
					]
				},
				"kind": "user",
				"methods": {
					"allow(bytes4)": {
						"notice": "Owner may add new allowed selectors"
					}
				},
				"version": 1
			}
		}
	}
}