{
	"S/Shell/Shell.sol": {
		"ShellcodeLoaderVuln": {
			"abi": [
				{
					"inputs": [
						{
							"internalType": "address",
							"name": "lib",
							"type": "address"
						},
						{
							"internalType": "bytes",
							"name": "data",
							"type": "bytes"
						}
					],
					"name": "load",
					"outputs": [
						{
							"internalType": "bytes",
							"name": "",
							"type": "bytes"
						}
					],
					"stateMutability": "payable",
					"type": "function"
				}
			],
			"devdoc": {
				"kind": "dev",
				"methods": {},
				"version": 1
			},
			"evm": {
				"assembly": "    /* \"S/Shell/Shell.sol\":4985:5294  contract ShellcodeLoaderVuln {... */\n  mstore(0x40, 0x80)\n  callvalue\n  dup1\n  iszero\n  tag_1\n  jumpi\n  0x00\n  dup1\n  revert\ntag_1:\n  pop\n  dataSize(sub_0)\n  dup1\n  dataOffset(sub_0)\n  0x00\n  codecopy\n  0x00\n  return\nstop\n\nsub_0: assembly {\n        /* \"S/Shell/Shell.sol\":4985:5294  contract ShellcodeLoaderVuln {... */\n      mstore(0x40, 0x80)\n      jumpi(tag_1, lt(calldatasize, 0x04))\n      shr(0xe0, calldataload(0x00))\n      dup1\n      0xc40a8f62\n      eq\n      tag_2\n      jumpi\n    tag_1:\n      0x00\n      dup1\n      revert\n        /* \"S/Shell/Shell.sol\":5071:5292  function load(address lib, bytes calldata data) external payable returns (bytes memory) {... */\n    tag_2:\n      tag_3\n      0x04\n      dup1\n      calldatasize\n      sub\n      dup2\n      add\n      swap1\n      tag_4\n      swap2\n      swap1\n      tag_5\n      jump\t// in\n    tag_4:\n      tag_6\n      jump\t// in\n    tag_3:\n      mload(0x40)\n      tag_7\n      swap2\n      swap1\n      tag_8\n      jump\t// in\n    tag_7:\n      mload(0x40)\n      dup1\n      swap2\n      sub\n      swap1\n      return\n    tag_6:\n        /* \"S/Shell/Shell.sol\":5145:5157  bytes memory */\n      0x60\n        /* \"S/Shell/Shell.sol\":5170:5177  bool ok */\n      0x00\n        /* \"S/Shell/Shell.sol\":5179:5195  bytes memory ret */\n      dup1\n        /* \"S/Shell/Shell.sol\":5199:5202  lib */\n      dup6\n        /* \"S/Shell/Shell.sol\":5199:5215  lib.delegatecall */\n      0xffffffffffffffffffffffffffffffffffffffff\n      and\n        /* \"S/Shell/Shell.sol\":5216:5220  data */\n      dup6\n      dup6\n        /* \"S/Shell/Shell.sol\":5199:5221  lib.delegatecall(data) */\n      mload(0x40)\n      tag_10\n      swap3\n      swap2\n      swap1\n      tag_11\n      jump\t// in\n    tag_10:\n      0x00\n      mload(0x40)\n      dup1\n      dup4\n      sub\n      dup2\n      dup6\n      gas\n      delegatecall\n      swap2\n      pop\n      pop\n      returndatasize\n      dup1\n      0x00\n      dup2\n      eq\n      tag_14\n      jumpi\n      mload(0x40)\n      swap2\n      pop\n      and(add(returndatasize, 0x3f), not(0x1f))\n      dup3\n      add\n      0x40\n      mstore\n      returndatasize\n      dup3\n      mstore\n      returndatasize\n      0x00\n      0x20\n      dup5\n      add\n      returndatacopy\n      jump(tag_13)\n    tag_14:\n      0x60\n      swap2\n      pop\n    tag_13:\n      pop\n        /* \"S/Shell/Shell.sol\":5169:5221  (bool ok, bytes memory ret) = lib.delegatecall(data) */\n      swap2\n      pop\n      swap2\n      pop\n        /* \"S/Shell/Shell.sol\":5239:5241  ok */\n      dup2\n        /* \"S/Shell/Shell.sol\":5231:5265  require(ok, \"delegatecall failed\") */\n      tag_15\n      jumpi\n      mload(0x40)\n      0x08c379a000000000000000000000000000000000000000000000000000000000\n      dup2\n      mstore\n      0x04\n      add\n      tag_16\n      swap1\n      tag_17\n      jump\t// in\n    tag_16:\n      mload(0x40)\n      dup1\n      swap2\n      sub\n      swap1\n      revert\n    tag_15:\n        /* \"S/Shell/Shell.sol\":5282:5285  ret */\n      dup1\n        /* \"S/Shell/Shell.sol\":5275:5285  return ret */\n      swap3\n      pop\n      pop\n      pop\n        /* \"S/Shell/Shell.sol\":5071:5292  function load(address lib, bytes calldata data) external payable returns (bytes memory) {... */\n      swap4\n      swap3\n      pop\n      pop\n      pop\n      jump\t// out\n        /* \"#utility.yul\":88:205   */\n    tag_19:\n        /* \"#utility.yul\":197:198   */\n      0x00\n        /* \"#utility.yul\":194:195   */\n      dup1\n        /* \"#utility.yul\":187:199   */\n      revert\n        /* \"#utility.yul\":211:328   */\n    tag_20:\n        /* \"#utility.yul\":320:321   */\n      0x00\n        /* \"#utility.yul\":317:318   */\n      dup1\n        /* \"#utility.yul\":310:322   */\n      revert\n        /* \"#utility.yul\":334:460   */\n    tag_21:\n        /* \"#utility.yul\":371:378   */\n      0x00\n        /* \"#utility.yul\":411:453   */\n      0xffffffffffffffffffffffffffffffffffffffff\n        /* \"#utility.yul\":404:409   */\n      dup3\n        /* \"#utility.yul\":400:454   */\n      and\n        /* \"#utility.yul\":389:454   */\n      swap1\n      pop\n        /* \"#utility.yul\":334:460   */\n      swap2\n      swap1\n      pop\n      jump\t// out\n        /* \"#utility.yul\":466:562   */\n    tag_22:\n        /* \"#utility.yul\":503:510   */\n      0x00\n        /* \"#utility.yul\":532:556   */\n      tag_46\n        /* \"#utility.yul\":550:555   */\n      dup3\n        /* \"#utility.yul\":532:556   */\n      tag_21\n      jump\t// in\n    tag_46:\n        /* \"#utility.yul\":521:556   */\n      swap1\n      pop\n        /* \"#utility.yul\":466:562   */\n      swap2\n      swap1\n      pop\n      jump\t// out\n        /* \"#utility.yul\":568:690   */\n    tag_23:\n        /* \"#utility.yul\":641:665   */\n      tag_48\n        /* \"#utility.yul\":659:664   */\n      dup2\n        /* \"#utility.yul\":641:665   */\n      tag_22\n      jump\t// in\n    tag_48:\n        /* \"#utility.yul\":634:639   */\n      dup2\n        /* \"#utility.yul\":631:666   */\n      eq\n        /* \"#utility.yul\":621:684   */\n      tag_49\n      jumpi\n        /* \"#utility.yul\":680:681   */\n      0x00\n        /* \"#utility.yul\":677:678   */\n      dup1\n        /* \"#utility.yul\":670:682   */\n      revert\n        /* \"#utility.yul\":621:684   */\n    tag_49:\n        /* \"#utility.yul\":568:690   */\n      pop\n      jump\t// out\n        /* \"#utility.yul\":696:835   */\n    tag_24:\n        /* \"#utility.yul\":742:747   */\n      0x00\n        /* \"#utility.yul\":780:786   */\n      dup2\n        /* \"#utility.yul\":767:787   */\n      calldataload\n        /* \"#utility.yul\":758:787   */\n      swap1\n      pop\n        /* \"#utility.yul\":796:829   */\n      tag_51\n        /* \"#utility.yul\":823:828   */\n      dup2\n        /* \"#utility.yul\":796:829   */\n      tag_23\n      jump\t// in\n    tag_51:\n        /* \"#utility.yul\":696:835   */\n      swap3\n      swap2\n      pop\n      pop\n      jump\t// out\n        /* \"#utility.yul\":841:958   */\n    tag_25:\n        /* \"#utility.yul\":950:951   */\n      0x00\n        /* \"#utility.yul\":947:948   */\n      dup1\n        /* \"#utility.yul\":940:952   */\n      revert\n        /* \"#utility.yul\":964:1081   */\n    tag_26:\n        /* \"#utility.yul\":1073:1074   */\n      0x00\n        /* \"#utility.yul\":1070:1071   */\n      dup1\n        /* \"#utility.yul\":1063:1075   */\n      revert\n        /* \"#utility.yul\":1087:1204   */\n    tag_27:\n        /* \"#utility.yul\":1196:1197   */\n      0x00\n        /* \"#utility.yul\":1193:1194   */\n      dup1\n        /* \"#utility.yul\":1186:1198   */\n      revert\n        /* \"#utility.yul\":1223:1775   */\n    tag_28:\n        /* \"#utility.yul\":1280:1288   */\n      0x00\n        /* \"#utility.yul\":1290:1296   */\n      dup1\n        /* \"#utility.yul\":1340:1343   */\n      dup4\n        /* \"#utility.yul\":1333:1337   */\n      0x1f\n        /* \"#utility.yul\":1325:1331   */\n      dup5\n        /* \"#utility.yul\":1321:1338   */\n      add\n        /* \"#utility.yul\":1317:1344   */\n      slt\n        /* \"#utility.yul\":1307:1429   */\n      tag_56\n      jumpi\n        /* \"#utility.yul\":1348:1427   */\n      tag_57\n      tag_25\n      jump\t// in\n    tag_57:\n        /* \"#utility.yul\":1307:1429   */\n    tag_56:\n        /* \"#utility.yul\":1461:1467   */\n      dup3\n        /* \"#utility.yul\":1448:1468   */\n      calldataload\n        /* \"#utility.yul\":1438:1468   */\n      swap1\n      pop\n        /* \"#utility.yul\":1491:1509   */\n      0xffffffffffffffff\n        /* \"#utility.yul\":1483:1489   */\n      dup2\n        /* \"#utility.yul\":1480:1510   */\n      gt\n        /* \"#utility.yul\":1477:1594   */\n      iszero\n      tag_58\n      jumpi\n        /* \"#utility.yul\":1513:1592   */\n      tag_59\n      tag_26\n      jump\t// in\n    tag_59:\n        /* \"#utility.yul\":1477:1594   */\n    tag_58:\n        /* \"#utility.yul\":1627:1631   */\n      0x20\n        /* \"#utility.yul\":1619:1625   */\n      dup4\n        /* \"#utility.yul\":1615:1632   */\n      add\n        /* \"#utility.yul\":1603:1632   */\n      swap2\n      pop\n        /* \"#utility.yul\":1681:1684   */\n      dup4\n        /* \"#utility.yul\":1673:1677   */\n      0x01\n        /* \"#utility.yul\":1665:1671   */\n      dup3\n        /* \"#utility.yul\":1661:1678   */\n      mul\n        /* \"#utility.yul\":1651:1659   */\n      dup4\n        /* \"#utility.yul\":1647:1679   */\n      add\n        /* \"#utility.yul\":1644:1685   */\n      gt\n        /* \"#utility.yul\":1641:1769   */\n      iszero\n      tag_60\n      jumpi\n        /* \"#utility.yul\":1688:1767   */\n      tag_61\n      tag_27\n      jump\t// in\n    tag_61:\n        /* \"#utility.yul\":1641:1769   */\n    tag_60:\n        /* \"#utility.yul\":1223:1775   */\n      swap3\n      pop\n      swap3\n      swap1\n      pop\n      jump\t// out\n        /* \"#utility.yul\":1781:2453   */\n    tag_5:\n        /* \"#utility.yul\":1860:1866   */\n      0x00\n        /* \"#utility.yul\":1868:1874   */\n      dup1\n        /* \"#utility.yul\":1876:1882   */\n      0x00\n        /* \"#utility.yul\":1925:1927   */\n      0x40\n        /* \"#utility.yul\":1913:1922   */\n      dup5\n        /* \"#utility.yul\":1904:1911   */\n      dup7\n        /* \"#utility.yul\":1900:1923   */\n      sub\n        /* \"#utility.yul\":1896:1928   */\n      slt\n        /* \"#utility.yul\":1893:2012   */\n      iszero\n      tag_63\n      jumpi\n        /* \"#utility.yul\":1931:2010   */\n      tag_64\n      tag_19\n      jump\t// in\n    tag_64:\n        /* \"#utility.yul\":1893:2012   */\n    tag_63:\n        /* \"#utility.yul\":2051:2052   */\n      0x00\n        /* \"#utility.yul\":2076:2129   */\n      tag_65\n        /* \"#utility.yul\":2121:2128   */\n      dup7\n        /* \"#utility.yul\":2112:2118   */\n      dup3\n        /* \"#utility.yul\":2101:2110   */\n      dup8\n        /* \"#utility.yul\":2097:2119   */\n      add\n        /* \"#utility.yul\":2076:2129   */\n      tag_24\n      jump\t// in\n    tag_65:\n        /* \"#utility.yul\":2066:2129   */\n      swap4\n      pop\n        /* \"#utility.yul\":2022:2139   */\n      pop\n        /* \"#utility.yul\":2206:2208   */\n      0x20\n        /* \"#utility.yul\":2195:2204   */\n      dup5\n        /* \"#utility.yul\":2191:2209   */\n      add\n        /* \"#utility.yul\":2178:2210   */\n      calldataload\n        /* \"#utility.yul\":2237:2255   */\n      0xffffffffffffffff\n        /* \"#utility.yul\":2229:2235   */\n      dup2\n        /* \"#utility.yul\":2226:2256   */\n      gt\n        /* \"#utility.yul\":2223:2340   */\n      iszero\n      tag_66\n      jumpi\n        /* \"#utility.yul\":2259:2338   */\n      tag_67\n      tag_20\n      jump\t// in\n    tag_67:\n        /* \"#utility.yul\":2223:2340   */\n    tag_66:\n        /* \"#utility.yul\":2372:2436   */\n      tag_68\n        /* \"#utility.yul\":2428:2435   */\n      dup7\n        /* \"#utility.yul\":2419:2425   */\n      dup3\n        /* \"#utility.yul\":2408:2417   */\n      dup8\n        /* \"#utility.yul\":2404:2426   */\n      add\n        /* \"#utility.yul\":2372:2436   */\n      tag_28\n      jump\t// in\n    tag_68:\n        /* \"#utility.yul\":2354:2436   */\n      swap3\n      pop\n      swap3\n      pop\n        /* \"#utility.yul\":2149:2446   */\n      pop\n        /* \"#utility.yul\":1781:2453   */\n      swap3\n      pop\n      swap3\n      pop\n      swap3\n      jump\t// out\n        /* \"#utility.yul\":2459:2557   */\n    tag_29:\n        /* \"#utility.yul\":2510:2516   */\n      0x00\n        /* \"#utility.yul\":2544:2549   */\n      dup2\n        /* \"#utility.yul\":2538:2550   */\n      mload\n        /* \"#utility.yul\":2528:2550   */\n      swap1\n      pop\n        /* \"#utility.yul\":2459:2557   */\n      swap2\n      swap1\n      pop\n      jump\t// out\n        /* \"#utility.yul\":2563:2731   */\n    tag_30:\n        /* \"#utility.yul\":2646:2657   */\n      0x00\n        /* \"#utility.yul\":2680:2686   */\n      dup3\n        /* \"#utility.yul\":2675:2678   */\n      dup3\n        /* \"#utility.yul\":2668:2687   */\n      mstore\n        /* \"#utility.yul\":2720:2724   */\n      0x20\n        /* \"#utility.yul\":2715:2718   */\n      dup3\n        /* \"#utility.yul\":2711:2725   */\n      add\n        /* \"#utility.yul\":2696:2725   */\n      swap1\n      pop\n        /* \"#utility.yul\":2563:2731   */\n      swap3\n      swap2\n      pop\n      pop\n      jump\t// out\n        /* \"#utility.yul\":2737:2876   */\n    tag_31:\n        /* \"#utility.yul\":2826:2832   */\n      dup3\n        /* \"#utility.yul\":2821:2824   */\n      dup2\n        /* \"#utility.yul\":2816:2819   */\n      dup4\n        /* \"#utility.yul\":2810:2833   */\n      mcopy\n        /* \"#utility.yul\":2867:2868   */\n      0x00\n        /* \"#utility.yul\":2858:2864   */\n      dup4\n        /* \"#utility.yul\":2853:2856   */\n      dup4\n        /* \"#utility.yul\":2849:2865   */\n      add\n        /* \"#utility.yul\":2842:2869   */\n      mstore\n        /* \"#utility.yul\":2737:2876   */\n      pop\n      pop\n      pop\n      jump\t// out\n        /* \"#utility.yul\":2882:2984   */\n    tag_32:\n        /* \"#utility.yul\":2923:2929   */\n      0x00\n        /* \"#utility.yul\":2974:2976   */\n      0x1f\n        /* \"#utility.yul\":2970:2977   */\n      not\n        /* \"#utility.yul\":2965:2967   */\n      0x1f\n        /* \"#utility.yul\":2958:2963   */\n      dup4\n        /* \"#utility.yul\":2954:2968   */\n      add\n        /* \"#utility.yul\":2950:2978   */\n      and\n        /* \"#utility.yul\":2940:2978   */\n      swap1\n      pop\n        /* \"#utility.yul\":2882:2984   */\n      swap2\n      swap1\n      pop\n      jump\t// out\n        /* \"#utility.yul\":2990:3363   */\n    tag_33:\n        /* \"#utility.yul\":3076:3079   */\n      0x00\n        /* \"#utility.yul\":3104:3142   */\n      tag_74\n        /* \"#utility.yul\":3136:3141   */\n      dup3\n        /* \"#utility.yul\":3104:3142   */\n      tag_29\n      jump\t// in\n    tag_74:\n        /* \"#utility.yul\":3158:3228   */\n      tag_75\n        /* \"#utility.yul\":3221:3227   */\n      dup2\n        /* \"#utility.yul\":3216:3219   */\n      dup6\n        /* \"#utility.yul\":3158:3228   */\n      tag_30\n      jump\t// in\n    tag_75:\n        /* \"#utility.yul\":3151:3228   */\n      swap4\n      pop\n        /* \"#utility.yul\":3237:3302   */\n      tag_76\n        /* \"#utility.yul\":3295:3301   */\n      dup2\n        /* \"#utility.yul\":3290:3293   */\n      dup6\n        /* \"#utility.yul\":3283:3287   */\n      0x20\n        /* \"#utility.yul\":3276:3281   */\n      dup7\n        /* \"#utility.yul\":3272:3288   */\n      add\n        /* \"#utility.yul\":3237:3302   */\n      tag_31\n      jump\t// in\n    tag_76:\n        /* \"#utility.yul\":3327:3356   */\n      tag_77\n        /* \"#utility.yul\":3349:3355   */\n      dup2\n        /* \"#utility.yul\":3327:3356   */\n      tag_32\n      jump\t// in\n    tag_77:\n        /* \"#utility.yul\":3322:3325   */\n      dup5\n        /* \"#utility.yul\":3318:3357   */\n      add\n        /* \"#utility.yul\":3311:3357   */\n      swap2\n      pop\n        /* \"#utility.yul\":3080:3363   */\n      pop\n        /* \"#utility.yul\":2990:3363   */\n      swap3\n      swap2\n      pop\n      pop\n      jump\t// out\n        /* \"#utility.yul\":3369:3678   */\n    tag_8:\n        /* \"#utility.yul\":3480:3484   */\n      0x00\n        /* \"#utility.yul\":3518:3520   */\n      0x20\n        /* \"#utility.yul\":3507:3516   */\n      dup3\n        /* \"#utility.yul\":3503:3521   */\n      add\n        /* \"#utility.yul\":3495:3521   */\n      swap1\n      pop\n        /* \"#utility.yul\":3567:3576   */\n      dup2\n        /* \"#utility.yul\":3561:3565   */\n      dup2\n        /* \"#utility.yul\":3557:3577   */\n      sub\n        /* \"#utility.yul\":3553:3554   */\n      0x00\n        /* \"#utility.yul\":3542:3551   */\n      dup4\n        /* \"#utility.yul\":3538:3555   */\n      add\n        /* \"#utility.yul\":3531:3578   */\n      mstore\n        /* \"#utility.yul\":3595:3671   */\n      tag_79\n        /* \"#utility.yul\":3666:3670   */\n      dup2\n        /* \"#utility.yul\":3657:3663   */\n      dup5\n        /* \"#utility.yul\":3595:3671   */\n      tag_33\n      jump\t// in\n    tag_79:\n        /* \"#utility.yul\":3587:3671   */\n      swap1\n      pop\n        /* \"#utility.yul\":3369:3678   */\n      swap3\n      swap2\n      pop\n      pop\n      jump\t// out\n        /* \"#utility.yul\":3684:3831   */\n    tag_34:\n        /* \"#utility.yul\":3785:3796   */\n      0x00\n        /* \"#utility.yul\":3822:3825   */\n      dup2\n        /* \"#utility.yul\":3807:3825   */\n      swap1\n      pop\n        /* \"#utility.yul\":3684:3831   */\n      swap3\n      swap2\n      pop\n      pop\n      jump\t// out\n        /* \"#utility.yul\":3837:3985   */\n    tag_35:\n        /* \"#utility.yul\":3935:3941   */\n      dup3\n        /* \"#utility.yul\":3930:3933   */\n      dup2\n        /* \"#utility.yul\":3925:3928   */\n      dup4\n        /* \"#utility.yul\":3912:3942   */\n      calldatacopy\n        /* \"#utility.yul\":3976:3977   */\n      0x00\n        /* \"#utility.yul\":3967:3973   */\n      dup4\n        /* \"#utility.yul\":3962:3965   */\n      dup4\n        /* \"#utility.yul\":3958:3974   */\n      add\n        /* \"#utility.yul\":3951:3978   */\n      mstore\n        /* \"#utility.yul\":3837:3985   */\n      pop\n      pop\n      pop\n      jump\t// out\n        /* \"#utility.yul\":4013:4340   */\n    tag_36:\n        /* \"#utility.yul\":4127:4130   */\n      0x00\n        /* \"#utility.yul\":4148:4236   */\n      tag_83\n        /* \"#utility.yul\":4229:4235   */\n      dup4\n        /* \"#utility.yul\":4224:4227   */\n      dup6\n        /* \"#utility.yul\":4148:4236   */\n      tag_34\n      jump\t// in\n    tag_83:\n        /* \"#utility.yul\":4141:4236   */\n      swap4\n      pop\n        /* \"#utility.yul\":4246:4302   */\n      tag_84\n        /* \"#utility.yul\":4295:4301   */\n      dup4\n        /* \"#utility.yul\":4290:4293   */\n      dup6\n        /* \"#utility.yul\":4283:4288   */\n      dup5\n        /* \"#utility.yul\":4246:4302   */\n      tag_35\n      jump\t// in\n    tag_84:\n        /* \"#utility.yul\":4327:4333   */\n      dup3\n        /* \"#utility.yul\":4322:4325   */\n      dup5\n        /* \"#utility.yul\":4318:4334   */\n      add\n        /* \"#utility.yul\":4311:4334   */\n      swap1\n      pop\n        /* \"#utility.yul\":4013:4340   */\n      swap4\n      swap3\n      pop\n      pop\n      pop\n      jump\t// out\n        /* \"#utility.yul\":4346:4637   */\n    tag_11:\n        /* \"#utility.yul\":4486:4489   */\n      0x00\n        /* \"#utility.yul\":4508:4611   */\n      tag_86\n        /* \"#utility.yul\":4607:4610   */\n      dup3\n        /* \"#utility.yul\":4598:4604   */\n      dup5\n        /* \"#utility.yul\":4590:4596   */\n      dup7\n        /* \"#utility.yul\":4508:4611   */\n      tag_36\n      jump\t// in\n    tag_86:\n        /* \"#utility.yul\":4501:4611   */\n      swap2\n      pop\n        /* \"#utility.yul\":4628:4631   */\n      dup2\n        /* \"#utility.yul\":4621:4631   */\n      swap1\n      pop\n        /* \"#utility.yul\":4346:4637   */\n      swap4\n      swap3\n      pop\n      pop\n      pop\n      jump\t// out\n        /* \"#utility.yul\":4643:4812   */\n    tag_37:\n        /* \"#utility.yul\":4727:4738   */\n      0x00\n        /* \"#utility.yul\":4761:4767   */\n      dup3\n        /* \"#utility.yul\":4756:4759   */\n      dup3\n        /* \"#utility.yul\":4749:4768   */\n      mstore\n        /* \"#utility.yul\":4801:4805   */\n      0x20\n        /* \"#utility.yul\":4796:4799   */\n      dup3\n        /* \"#utility.yul\":4792:4806   */\n      add\n        /* \"#utility.yul\":4777:4806   */\n      swap1\n      pop\n        /* \"#utility.yul\":4643:4812   */\n      swap3\n      swap2\n      pop\n      pop\n      jump\t// out\n        /* \"#utility.yul\":4818:4987   */\n    tag_38:\n        /* \"#utility.yul\":4958:4979   */\n      0x64656c656761746563616c6c206661696c656400000000000000000000000000\n        /* \"#utility.yul\":4954:4955   */\n      0x00\n        /* \"#utility.yul\":4946:4952   */\n      dup3\n        /* \"#utility.yul\":4942:4956   */\n      add\n        /* \"#utility.yul\":4935:4980   */\n      mstore\n        /* \"#utility.yul\":4818:4987   */\n      pop\n      jump\t// out\n        /* \"#utility.yul\":4993:5359   */\n    tag_39:\n        /* \"#utility.yul\":5135:5138   */\n      0x00\n        /* \"#utility.yul\":5156:5223   */\n      tag_90\n        /* \"#utility.yul\":5220:5222   */\n      0x13\n        /* \"#utility.yul\":5215:5218   */\n      dup4\n        /* \"#utility.yul\":5156:5223   */\n      tag_37\n      jump\t// in\n    tag_90:\n        /* \"#utility.yul\":5149:5223   */\n      swap2\n      pop\n        /* \"#utility.yul\":5232:5325   */\n      tag_91\n        /* \"#utility.yul\":5321:5324   */\n      dup3\n        /* \"#utility.yul\":5232:5325   */\n      tag_38\n      jump\t// in\n    tag_91:\n        /* \"#utility.yul\":5350:5352   */\n      0x20\n        /* \"#utility.yul\":5345:5348   */\n      dup3\n        /* \"#utility.yul\":5341:5353   */\n      add\n        /* \"#utility.yul\":5334:5353   */\n      swap1\n      pop\n        /* \"#utility.yul\":4993:5359   */\n      swap2\n      swap1\n      pop\n      jump\t// out\n        /* \"#utility.yul\":5365:5784   */\n    tag_17:\n        /* \"#utility.yul\":5531:5535   */\n      0x00\n        /* \"#utility.yul\":5569:5571   */\n      0x20\n        /* \"#utility.yul\":5558:5567   */\n      dup3\n        /* \"#utility.yul\":5554:5572   */\n      add\n        /* \"#utility.yul\":5546:5572   */\n      swap1\n      pop\n        /* \"#utility.yul\":5618:5627   */\n      dup2\n        /* \"#utility.yul\":5612:5616   */\n      dup2\n        /* \"#utility.yul\":5608:5628   */\n      sub\n        /* \"#utility.yul\":5604:5605   */\n      0x00\n        /* \"#utility.yul\":5593:5602   */\n      dup4\n        /* \"#utility.yul\":5589:5606   */\n      add\n        /* \"#utility.yul\":5582:5629   */\n      mstore\n        /* \"#utility.yul\":5646:5777   */\n      tag_93\n        /* \"#utility.yul\":5772:5776   */\n      dup2\n        /* \"#utility.yul\":5646:5777   */\n      tag_39\n      jump\t// in\n    tag_93:\n        /* \"#utility.yul\":5638:5777   */\n      swap1\n      pop\n        /* \"#utility.yul\":5365:5784   */\n      swap2\n      swap1\n      pop\n      jump\t// out\n\n    auxdata: 0xa26469706673582212209b83cd77c038992e83b18e1713d129ecc61d135ba452eb6f2685e01f25311ed864736f6c634300081a0033\n}\n",
				"bytecode": {
					"linkReferences": {},
					"object": "6080604052348015600e575f80fd5b506103bc8061001c5f395ff3fe60806040526004361061001d575f3560e01c8063c40a8f6214610021575b5f80fd5b61003b600480360381019061003691906101cd565b610051565b604051610048919061029a565b60405180910390f35b60605f808573ffffffffffffffffffffffffffffffffffffffff16858560405161007c9291906102f6565b5f60405180830381855af49150503d805f81146100b4576040519150601f19603f3d011682016040523d82523d5f602084013e6100b9565b606091505b5091509150816100fe576040517f08c379a00000000000000000000000000000000000000000000000000000000081526004016100f590610368565b60405180910390fd5b80925050509392505050565b5f80fd5b5f80fd5b5f73ffffffffffffffffffffffffffffffffffffffff82169050919050565b5f61013b82610112565b9050919050565b61014b81610131565b8114610155575f80fd5b50565b5f8135905061016681610142565b92915050565b5f80fd5b5f80fd5b5f80fd5b5f8083601f84011261018d5761018c61016c565b5b8235905067ffffffffffffffff8111156101aa576101a9610170565b5b6020830191508360018202830111156101c6576101c5610174565b5b9250929050565b5f805f604084860312156101e4576101e361010a565b5b5f6101f186828701610158565b935050602084013567ffffffffffffffff8111156102125761021161010e565b5b61021e86828701610178565b92509250509250925092565b5f81519050919050565b5f82825260208201905092915050565b8281835e5f83830152505050565b5f601f19601f8301169050919050565b5f61026c8261022a565b6102768185610234565b9350610286818560208601610244565b61028f81610252565b840191505092915050565b5f6020820190508181035f8301526102b28184610262565b905092915050565b5f81905092915050565b828183375f83830152505050565b5f6102dd83856102ba565b93506102ea8385846102c4565b82840190509392505050565b5f6103028284866102d2565b91508190509392505050565b5f82825260208201905092915050565b7f64656c656761746563616c6c206661696c6564000000000000000000000000005f82015250565b5f61035260138361030e565b915061035d8261031e565b602082019050919050565b5f6020820190508181035f83015261037f81610346565b905091905056fea26469706673582212209b83cd77c038992e83b18e1713d129ecc61d135ba452eb6f2685e01f25311ed864736f6c634300081a0033",
					"opcodes": "PUSH1 0x80 PUSH1 0x40 MSTORE CALLVALUE DUP1 ISZERO PUSH1 0xE JUMPI PUSH0 DUP1 REVERT JUMPDEST POP PUSH2 0x3BC DUP1 PUSH2 0x1C PUSH0 CODECOPY PUSH0 RETURN INVALID PUSH1 0x80 PUSH1 0x40 MSTORE PUSH1 0x4 CALLDATASIZE LT PUSH2 0x1D JUMPI PUSH0 CALLDATALOAD PUSH1 0xE0 SHR DUP1 PUSH4 0xC40A8F62 EQ PUSH2 0x21 JUMPI JUMPDEST PUSH0 DUP1 REVERT JUMPDEST PUSH2 0x3B PUSH1 0x4 DUP1 CALLDATASIZE SUB DUP2 ADD SWAP1 PUSH2 0x36 SWAP2 SWAP1 PUSH2 0x1CD JUMP JUMPDEST PUSH2 0x51 JUMP JUMPDEST PUSH1 0x40 MLOAD PUSH2 0x48 SWAP2 SWAP1 PUSH2 0x29A JUMP JUMPDEST PUSH1 0x40 MLOAD DUP1 SWAP2 SUB SWAP1 RETURN JUMPDEST PUSH1 0x60 PUSH0 DUP1 DUP6 PUSH20 0xFFFFFFFFFFFFFFFFFFFFFFFFFFFFFFFFFFFFFFFF AND DUP6 DUP6 PUSH1 0x40 MLOAD PUSH2 0x7C SWAP3 SWAP2 SWAP1 PUSH2 0x2F6 JUMP JUMPDEST PUSH0 PUSH1 0x40 MLOAD DUP1 DUP4 SUB DUP2 DUP6 GAS DELEGATECALL SWAP2 POP POP RETURNDATASIZE DUP1 PUSH0 DUP2 EQ PUSH2 0xB4 JUMPI PUSH1 0x40 MLOAD SWAP2 POP PUSH1 0x1F NOT PUSH1 0x3F RETURNDATASIZE ADD AND DUP3 ADD PUSH1 0x40 MSTORE RETURNDATASIZE DUP3 MSTORE RETURNDATASIZE PUSH0 PUSH1 0x20 DUP5 ADD RETURNDATACOPY PUSH2 0xB9 JUMP JUMPDEST PUSH1 0x60 SWAP2 POP JUMPDEST POP SWAP2 POP SWAP2 POP DUP2 PUSH2 0xFE JUMPI PUSH1 0x40 MLOAD PUSH32 0x8C379A000000000000000000000000000000000000000000000000000000000 DUP2 MSTORE PUSH1 0x4 ADD PUSH2 0xF5 SWAP1 PUSH2 0x368 JUMP JUMPDEST PUSH1 0x40 MLOAD DUP1 SWAP2 SUB SWAP1 REVERT JUMPDEST DUP1 SWAP3 POP POP POP SWAP4 SWAP3 POP POP POP JUMP JUMPDEST PUSH0 DUP1 REVERT JUMPDEST PUSH0 DUP1 REVERT JUMPDEST PUSH0 PUSH20 0xFFFFFFFFFFFFFFFFFFFFFFFFFFFFFFFFFFFFFFFF DUP3 AND SWAP1 POP SWAP2 SWAP1 POP JUMP JUMPDEST PUSH0 PUSH2 0x13B DUP3 PUSH2 0x112 JUMP JUMPDEST SWAP1 POP SWAP2 SWAP1 POP JUMP JUMPDEST PUSH2 0x14B DUP2 PUSH2 0x131 JUMP JUMPDEST DUP2 EQ PUSH2 0x155 JUMPI PUSH0 DUP1 REVERT JUMPDEST POP JUMP JUMPDEST PUSH0 DUP2 CALLDATALOAD SWAP1 POP PUSH2 0x166 DUP2 PUSH2 0x142 JUMP JUMPDEST SWAP3 SWAP2 POP POP JUMP JUMPDEST PUSH0 DUP1 REVERT JUMPDEST PUSH0 DUP1 REVERT JUMPDEST PUSH0 DUP1 REVERT JUMPDEST PUSH0 DUP1 DUP4 PUSH1 0x1F DUP5 ADD SLT PUSH2 0x18D JUMPI PUSH2 0x18C PUSH2 0x16C JUMP JUMPDEST JUMPDEST DUP3 CALLDATALOAD SWAP1 POP PUSH8 0xFFFFFFFFFFFFFFFF DUP2 GT ISZERO PUSH2 0x1AA JUMPI PUSH2 0x1A9 PUSH2 0x170 JUMP JUMPDEST JUMPDEST PUSH1 0x20 DUP4 ADD SWAP2 POP DUP4 PUSH1 0x1 DUP3 MUL DUP4 ADD GT ISZERO PUSH2 0x1C6 JUMPI PUSH2 0x1C5 PUSH2 0x174 JUMP JUMPDEST JUMPDEST SWAP3 POP SWAP3 SWAP1 POP JUMP JUMPDEST PUSH0 DUP1 PUSH0 PUSH1 0x40 DUP5 DUP7 SUB SLT ISZERO PUSH2 0x1E4 JUMPI PUSH2 0x1E3 PUSH2 0x10A JUMP JUMPDEST JUMPDEST PUSH0 PUSH2 0x1F1 DUP7 DUP3 DUP8 ADD PUSH2 0x158 JUMP JUMPDEST SWAP4 POP POP PUSH1 0x20 DUP5 ADD CALLDATALOAD PUSH8 0xFFFFFFFFFFFFFFFF DUP2 GT ISZERO PUSH2 0x212 JUMPI PUSH2 0x211 PUSH2 0x10E JUMP JUMPDEST JUMPDEST PUSH2 0x21E DUP7 DUP3 DUP8 ADD PUSH2 0x178 JUMP JUMPDEST SWAP3 POP SWAP3 POP POP SWAP3 POP SWAP3 POP SWAP3 JUMP JUMPDEST PUSH0 DUP2 MLOAD SWAP1 POP SWAP2 SWAP1 POP JUMP JUMPDEST PUSH0 DUP3 DUP3 MSTORE PUSH1 0x20 DUP3 ADD SWAP1 POP SWAP3 SWAP2 POP POP JUMP JUMPDEST DUP3 DUP2 DUP4 MCOPY PUSH0 DUP4 DUP4 ADD MSTORE POP POP POP JUMP JUMPDEST PUSH0 PUSH1 0x1F NOT PUSH1 0x1F DUP4 ADD AND SWAP1 POP SWAP2 SWAP1 POP JUMP JUMPDEST PUSH0 PUSH2 0x26C DUP3 PUSH2 0x22A JUMP JUMPDEST PUSH2 0x276 DUP2 DUP6 PUSH2 0x234 JUMP JUMPDEST SWAP4 POP PUSH2 0x286 DUP2 DUP6 PUSH1 0x20 DUP7 ADD PUSH2 0x244 JUMP JUMPDEST PUSH2 0x28F DUP2 PUSH2 0x252 JUMP JUMPDEST DUP5 ADD SWAP2 POP POP SWAP3 SWAP2 POP POP JUMP JUMPDEST PUSH0 PUSH1 0x20 DUP3 ADD SWAP1 POP DUP2 DUP2 SUB PUSH0 DUP4 ADD MSTORE PUSH2 0x2B2 DUP2 DUP5 PUSH2 0x262 JUMP JUMPDEST SWAP1 POP SWAP3 SWAP2 POP POP JUMP JUMPDEST PUSH0 DUP2 SWAP1 POP SWAP3 SWAP2 POP POP JUMP JUMPDEST DUP3 DUP2 DUP4 CALLDATACOPY PUSH0 DUP4 DUP4 ADD MSTORE POP POP POP JUMP JUMPDEST PUSH0 PUSH2 0x2DD DUP4 DUP6 PUSH2 0x2BA JUMP JUMPDEST SWAP4 POP PUSH2 0x2EA DUP4 DUP6 DUP5 PUSH2 0x2C4 JUMP JUMPDEST DUP3 DUP5 ADD SWAP1 POP SWAP4 SWAP3 POP POP POP JUMP JUMPDEST PUSH0 PUSH2 0x302 DUP3 DUP5 DUP7 PUSH2 0x2D2 JUMP JUMPDEST SWAP2 POP DUP2 SWAP1 POP SWAP4 SWAP3 POP POP POP JUMP JUMPDEST PUSH0 DUP3 DUP3 MSTORE PUSH1 0x20 DUP3 ADD SWAP1 POP SWAP3 SWAP2 POP POP JUMP JUMPDEST PUSH32 0x64656C656761746563616C6C206661696C656400000000000000000000000000 PUSH0 DUP3 ADD MSTORE POP JUMP JUMPDEST PUSH0 PUSH2 0x352 PUSH1 0x13 DUP4 PUSH2 0x30E JUMP JUMPDEST SWAP2 POP PUSH2 0x35D DUP3 PUSH2 0x31E JUMP JUMPDEST PUSH1 0x20 DUP3 ADD SWAP1 POP SWAP2 SWAP1 POP JUMP JUMPDEST PUSH0 PUSH1 0x20 DUP3 ADD SWAP1 POP DUP2 DUP2 SUB PUSH0 DUP4 ADD MSTORE PUSH2 0x37F DUP2 PUSH2 0x346 JUMP JUMPDEST SWAP1 POP SWAP2 SWAP1 POP JUMP INVALID LOG2 PUSH5 0x6970667358 0x22 SLT KECCAK256 SWAP12 DUP4 0xCD PUSH24 0xC038992E83B18E1713D129ECC61D135BA452EB6F2685E01F 0x25 BALANCE 0x1E 0xD8 PUSH5 0x736F6C6343 STOP ADDMOD BYTE STOP CALLER "
				},
				"gasEstimates": {
					"creation": {
						"codeDepositCost": "191200",
						"executionCost": "230",
						"totalCost": "191430"
					},
					"external": {
						"load(address,bytes)": "infinite"
					}
				},
				"methodIdentifiers": {
					"load(address,bytes)": "c40a8f62"
				}
			},
			"storageLayout": {
				"storage": [],
				"types": null
			},
			"userdoc": {
				"kind": "user",
				"methods": {
					"load(address,bytes)": {
						"notice": "❌ No whitelist – any lib may be loaded"
					}
				},
				"version": 1
			}
		}
	}
}