{
	"S/Shell/Shell.sol": {
		"Attack_ReverseShell": {
			"abi": [
				{
					"inputs": [
						{
							"internalType": "contract ReverseShellVuln",
							"name": "_t",
							"type": "address"
						}
					],
					"stateMutability": "nonpayable",
					"type": "constructor"
				},
				{
					"inputs": [],
					"name": "attack",
					"outputs": [],
					"stateMutability": "nonpayable",
					"type": "function"
				},
				{
					"inputs": [],
					"name": "got",
					"outputs": [
						{
							"internalType": "uint256",
							"name": "",
							"type": "uint256"
						}
					],
					"stateMutability": "view",
					"type": "function"
				},
				{
					"inputs": [],
					"name": "ok",
					"outputs": [
						{
							"internalType": "bool",
							"name": "",
							"type": "bool"
						}
					],
					"stateMutability": "view",
					"type": "function"
				},
				{
					"inputs": [
						{
							"internalType": "uint256",
							"name": "s",
							"type": "uint256"
						}
					],
					"name": "receiveSecret",
					"outputs": [],
					"stateMutability": "nonpayable",
					"type": "function"
				},
				{
					"inputs": [],
					"name": "target",
					"outputs": [
						{
							"internalType": "contract ReverseShellVuln",
							"name": "",
							"type": "address"
						}
					],
					"stateMutability": "view",
					"type": "function"
				}
			],
			"devdoc": {
				"kind": "dev",
				"methods": {},
				"version": 1
			},
			"evm": {
				"assembly": "    /* \"S/Shell/Shell.sol\":3800:4169  contract Attack_ReverseShell {... */\n  mstore(0x40, 0x80)\n    /* \"S/Shell/Shell.sol\":3919:3968  constructor(ReverseShellVuln _t) { target = _t; } */\n  callvalue\n  dup1\n  iszero\n  tag_1\n  jumpi\n  0x00\n  dup1\n  revert\ntag_1:\n  pop\n  mload(0x40)\n  sub(codesize, bytecodeSize)\n  dup1\n  bytecodeSize\n  dup4\n  codecopy\n  dup2\n  dup2\n  add\n  0x40\n  mstore\n  dup2\n  add\n  swap1\n  tag_2\n  swap2\n  swap1\n  tag_3\n  jump\t// in\ntag_2:\n    /* \"S/Shell/Shell.sol\":3963:3965  _t */\n  dup1\n    /* \"S/Shell/Shell.sol\":3954:3960  target */\n  0x00\n  dup1\n    /* \"S/Shell/Shell.sol\":3954:3965  target = _t */\n  0x0100\n  exp\n  dup2\n  sload\n  dup2\n  0xffffffffffffffffffffffffffffffffffffffff\n  mul\n  not\n  and\n  swap1\n  dup4\n  0xffffffffffffffffffffffffffffffffffffffff\n  and\n  mul\n  or\n  swap1\n  sstore\n  pop\n    /* \"S/Shell/Shell.sol\":3919:3968  constructor(ReverseShellVuln _t) { target = _t; } */\n  pop\n    /* \"S/Shell/Shell.sol\":3800:4169  contract Attack_ReverseShell {... */\n  jump(tag_6)\n    /* \"#utility.yul\":88:205   */\ntag_8:\n    /* \"#utility.yul\":197:198   */\n  0x00\n    /* \"#utility.yul\":194:195   */\n  dup1\n    /* \"#utility.yul\":187:199   */\n  revert\n    /* \"#utility.yul\":334:460   */\ntag_10:\n    /* \"#utility.yul\":371:378   */\n  0x00\n    /* \"#utility.yul\":411:453   */\n  0xffffffffffffffffffffffffffffffffffffffff\n    /* \"#utility.yul\":404:409   */\n  dup3\n    /* \"#utility.yul\":400:454   */\n  and\n    /* \"#utility.yul\":389:454   */\n  swap1\n  pop\n    /* \"#utility.yul\":334:460   */\n  swap2\n  swap1\n  pop\n  jump\t// out\n    /* \"#utility.yul\":466:562   */\ntag_11:\n    /* \"#utility.yul\":503:510   */\n  0x00\n    /* \"#utility.yul\":532:556   */\n  tag_21\n    /* \"#utility.yul\":550:555   */\n  dup3\n    /* \"#utility.yul\":532:556   */\n  tag_10\n  jump\t// in\ntag_21:\n    /* \"#utility.yul\":521:556   */\n  swap1\n  pop\n    /* \"#utility.yul\":466:562   */\n  swap2\n  swap1\n  pop\n  jump\t// out\n    /* \"#utility.yul\":568:688   */\ntag_12:\n    /* \"#utility.yul\":629:636   */\n  0x00\n    /* \"#utility.yul\":658:682   */\n  tag_23\n    /* \"#utility.yul\":676:681   */\n  dup3\n    /* \"#utility.yul\":658:682   */\n  tag_11\n  jump\t// in\ntag_23:\n    /* \"#utility.yul\":647:682   */\n  swap1\n  pop\n    /* \"#utility.yul\":568:688   */\n  swap2\n  swap1\n  pop\n  jump\t// out\n    /* \"#utility.yul\":694:864   */\ntag_13:\n    /* \"#utility.yul\":791:839   */\n  tag_25\n    /* \"#utility.yul\":833:838   */\n  dup2\n    /* \"#utility.yul\":791:839   */\n  tag_12\n  jump\t// in\ntag_25:\n    /* \"#utility.yul\":784:789   */\n  dup2\n    /* \"#utility.yul\":781:840   */\n  eq\n    /* \"#utility.yul\":771:858   */\n  tag_26\n  jumpi\n    /* \"#utility.yul\":854:855   */\n  0x00\n    /* \"#utility.yul\":851:852   */\n  dup1\n    /* \"#utility.yul\":844:856   */\n  revert\n    /* \"#utility.yul\":771:858   */\ntag_26:\n    /* \"#utility.yul\":694:864   */\n  pop\n  jump\t// out\n    /* \"#utility.yul\":870:1061   */\ntag_14:\n    /* \"#utility.yul\":951:956   */\n  0x00\n    /* \"#utility.yul\":982:988   */\n  dup2\n    /* \"#utility.yul\":976:989   */\n  mload\n    /* \"#utility.yul\":967:989   */\n  swap1\n  pop\n    /* \"#utility.yul\":998:1055   */\n  tag_28\n    /* \"#utility.yul\":1049:1054   */\n  dup2\n    /* \"#utility.yul\":998:1055   */\n  tag_13\n  jump\t// in\ntag_28:\n    /* \"#utility.yul\":870:1061   */\n  swap3\n  swap2\n  pop\n  pop\n  jump\t// out\n    /* \"#utility.yul\":1067:1466   */\ntag_3:\n    /* \"#utility.yul\":1161:1167   */\n  0x00\n    /* \"#utility.yul\":1210:1212   */\n  0x20\n    /* \"#utility.yul\":1198:1207   */\n  dup3\n    /* \"#utility.yul\":1189:1196   */\n  dup5\n    /* \"#utility.yul\":1185:1208   */\n  sub\n    /* \"#utility.yul\":1181:1213   */\n  slt\n    /* \"#utility.yul\":1178:1297   */\n  iszero\n  tag_30\n  jumpi\n    /* \"#utility.yul\":1216:1295   */\n  tag_31\n  tag_8\n  jump\t// in\ntag_31:\n    /* \"#utility.yul\":1178:1297   */\ntag_30:\n    /* \"#utility.yul\":1336:1337   */\n  0x00\n    /* \"#utility.yul\":1361:1449   */\n  tag_32\n    /* \"#utility.yul\":1441:1448   */\n  dup5\n    /* \"#utility.yul\":1432:1438   */\n  dup3\n    /* \"#utility.yul\":1421:1430   */\n  dup6\n    /* \"#utility.yul\":1417:1439   */\n  add\n    /* \"#utility.yul\":1361:1449   */\n  tag_14\n  jump\t// in\ntag_32:\n    /* \"#utility.yul\":1351:1449   */\n  swap2\n  pop\n    /* \"#utility.yul\":1307:1459   */\n  pop\n    /* \"#utility.yul\":1067:1466   */\n  swap3\n  swap2\n  pop\n  pop\n  jump\t// out\n    /* \"S/Shell/Shell.sol\":3800:4169  contract Attack_ReverseShell {... */\ntag_6:\n  dataSize(sub_0)\n  dup1\n  dataOffset(sub_0)\n  0x00\n  codecopy\n  0x00\n  return\nstop\n\nsub_0: assembly {\n        /* \"S/Shell/Shell.sol\":3800:4169  contract Attack_ReverseShell {... */\n      mstore(0x40, 0x80)\n      callvalue\n      dup1\n      iszero\n      tag_1\n      jumpi\n      0x00\n      dup1\n      revert\n    tag_1:\n      pop\n      jumpi(tag_2, lt(calldatasize, 0x04))\n      shr(0xe0, calldataload(0x00))\n      dup1\n      0x9e5faafc\n      eq\n      tag_3\n      jumpi\n      dup1\n      0xa7e3a0cc\n      eq\n      tag_4\n      jumpi\n      dup1\n      0xd4b83992\n      eq\n      tag_5\n      jumpi\n      dup1\n      0xd909b403\n      eq\n      tag_6\n      jumpi\n      dup1\n      0xde2111e2\n      eq\n      tag_7\n      jumpi\n    tag_2:\n      0x00\n      dup1\n      revert\n        /* \"S/Shell/Shell.sol\":3974:4034  function attack() external {... */\n    tag_3:\n      tag_8\n      tag_9\n      jump\t// in\n    tag_8:\n      stop\n        /* \"S/Shell/Shell.sol\":4080:4167  function receiveSecret(uint256 s) external {... */\n    tag_4:\n      tag_10\n      0x04\n      dup1\n      calldatasize\n      sub\n      dup2\n      add\n      swap1\n      tag_11\n      swap2\n      swap1\n      tag_12\n      jump\t// in\n    tag_11:\n      tag_13\n      jump\t// in\n    tag_10:\n      stop\n        /* \"S/Shell/Shell.sol\":3835:3865  ReverseShellVuln public target */\n    tag_5:\n      tag_14\n      tag_15\n      jump\t// in\n    tag_14:\n      mload(0x40)\n      tag_16\n      swap2\n      swap1\n      tag_17\n      jump\t// in\n    tag_16:\n      mload(0x40)\n      dup1\n      swap2\n      sub\n      swap1\n      return\n        /* \"S/Shell/Shell.sol\":3895:3912  bool    public ok */\n    tag_6:\n      tag_18\n      tag_19\n      jump\t// in\n    tag_18:\n      mload(0x40)\n      tag_20\n      swap2\n      swap1\n      tag_21\n      jump\t// in\n    tag_20:\n      mload(0x40)\n      dup1\n      swap2\n      sub\n      swap1\n      return\n        /* \"S/Shell/Shell.sol\":3871:3889  uint256 public got */\n    tag_7:\n      tag_22\n      tag_23\n      jump\t// in\n    tag_22:\n      mload(0x40)\n      tag_24\n      swap2\n      swap1\n      tag_25\n      jump\t// in\n    tag_24:\n      mload(0x40)\n      dup1\n      swap2\n      sub\n      swap1\n      return\n        /* \"S/Shell/Shell.sol\":3974:4034  function attack() external {... */\n    tag_9:\n        /* \"S/Shell/Shell.sol\":4011:4017  target */\n      0x00\n      dup1\n      sload\n      swap1\n      0x0100\n      exp\n      swap1\n      div\n      0xffffffffffffffffffffffffffffffffffffffff\n      and\n        /* \"S/Shell/Shell.sol\":4011:4025  target.trigger */\n      0xffffffffffffffffffffffffffffffffffffffff\n      and\n      0x7fec8d38\n        /* \"S/Shell/Shell.sol\":4011:4027  target.trigger() */\n      mload(0x40)\n      dup2\n      0xffffffff\n      and\n      0xe0\n      shl\n      dup2\n      mstore\n      0x04\n      add\n      0x00\n      mload(0x40)\n      dup1\n      dup4\n      sub\n      dup2\n      0x00\n      dup8\n      dup1\n      extcodesize\n      iszero\n      dup1\n      iszero\n      tag_27\n      jumpi\n      0x00\n      dup1\n      revert\n    tag_27:\n      pop\n      gas\n      call\n      iszero\n      dup1\n      iszero\n      tag_29\n      jumpi\n      returndatasize\n      0x00\n      dup1\n      returndatacopy\n      revert(0x00, returndatasize)\n    tag_29:\n      pop\n      pop\n      pop\n      pop\n        /* \"S/Shell/Shell.sol\":3974:4034  function attack() external {... */\n      jump\t// out\n        /* \"S/Shell/Shell.sol\":4080:4167  function receiveSecret(uint256 s) external {... */\n    tag_13:\n        /* \"S/Shell/Shell.sol\":4139:4143  true */\n      0x01\n        /* \"S/Shell/Shell.sol\":4133:4135  ok */\n      0x02\n      0x00\n        /* \"S/Shell/Shell.sol\":4133:4143  ok  = true */\n      0x0100\n      exp\n      dup2\n      sload\n      dup2\n      0xff\n      mul\n      not\n      and\n      swap1\n      dup4\n      iszero\n      iszero\n      mul\n      or\n      swap1\n      sstore\n      pop\n        /* \"S/Shell/Shell.sol\":4159:4160  s */\n      dup1\n        /* \"S/Shell/Shell.sol\":4153:4156  got */\n      0x01\n        /* \"S/Shell/Shell.sol\":4153:4160  got = s */\n      dup2\n      swap1\n      sstore\n      pop\n        /* \"S/Shell/Shell.sol\":4080:4167  function receiveSecret(uint256 s) external {... */\n      pop\n      jump\t// out\n        /* \"S/Shell/Shell.sol\":3835:3865  ReverseShellVuln public target */\n    tag_15:\n      0x00\n      dup1\n      sload\n      swap1\n      0x0100\n      exp\n      swap1\n      div\n      0xffffffffffffffffffffffffffffffffffffffff\n      and\n      dup2\n      jump\t// out\n        /* \"S/Shell/Shell.sol\":3895:3912  bool    public ok */\n    tag_19:\n      0x02\n      0x00\n      swap1\n      sload\n      swap1\n      0x0100\n      exp\n      swap1\n      div\n      0xff\n      and\n      dup2\n      jump\t// out\n        /* \"S/Shell/Shell.sol\":3871:3889  uint256 public got */\n    tag_23:\n      sload(0x01)\n      dup2\n      jump\t// out\n        /* \"#utility.yul\":88:205   */\n    tag_32:\n        /* \"#utility.yul\":197:198   */\n      0x00\n        /* \"#utility.yul\":194:195   */\n      dup1\n        /* \"#utility.yul\":187:199   */\n      revert\n        /* \"#utility.yul\":334:411   */\n    tag_34:\n        /* \"#utility.yul\":371:378   */\n      0x00\n        /* \"#utility.yul\":400:405   */\n      dup2\n        /* \"#utility.yul\":389:405   */\n      swap1\n      pop\n        /* \"#utility.yul\":334:411   */\n      swap2\n      swap1\n      pop\n      jump\t// out\n        /* \"#utility.yul\":417:539   */\n    tag_35:\n        /* \"#utility.yul\":490:514   */\n      tag_52\n        /* \"#utility.yul\":508:513   */\n      dup2\n        /* \"#utility.yul\":490:514   */\n      tag_34\n      jump\t// in\n    tag_52:\n        /* \"#utility.yul\":483:488   */\n      dup2\n        /* \"#utility.yul\":480:515   */\n      eq\n        /* \"#utility.yul\":470:533   */\n      tag_53\n      jumpi\n        /* \"#utility.yul\":529:530   */\n      0x00\n        /* \"#utility.yul\":526:527   */\n      dup1\n        /* \"#utility.yul\":519:531   */\n      revert\n        /* \"#utility.yul\":470:533   */\n    tag_53:\n        /* \"#utility.yul\":417:539   */\n      pop\n      jump\t// out\n        /* \"#utility.yul\":545:684   */\n    tag_36:\n        /* \"#utility.yul\":591:596   */\n      0x00\n        /* \"#utility.yul\":629:635   */\n      dup2\n        /* \"#utility.yul\":616:636   */\n      calldataload\n        /* \"#utility.yul\":607:636   */\n      swap1\n      pop\n        /* \"#utility.yul\":645:678   */\n      tag_55\n        /* \"#utility.yul\":672:677   */\n      dup2\n        /* \"#utility.yul\":645:678   */\n      tag_35\n      jump\t// in\n    tag_55:\n        /* \"#utility.yul\":545:684   */\n      swap3\n      swap2\n      pop\n      pop\n      jump\t// out\n        /* \"#utility.yul\":690:1019   */\n    tag_12:\n        /* \"#utility.yul\":749:755   */\n      0x00\n        /* \"#utility.yul\":798:800   */\n      0x20\n        /* \"#utility.yul\":786:795   */\n      dup3\n        /* \"#utility.yul\":777:784   */\n      dup5\n        /* \"#utility.yul\":773:796   */\n      sub\n        /* \"#utility.yul\":769:801   */\n      slt\n        /* \"#utility.yul\":766:885   */\n      iszero\n      tag_57\n      jumpi\n        /* \"#utility.yul\":804:883   */\n      tag_58\n      tag_32\n      jump\t// in\n    tag_58:\n        /* \"#utility.yul\":766:885   */\n    tag_57:\n        /* \"#utility.yul\":924:925   */\n      0x00\n        /* \"#utility.yul\":949:1002   */\n      tag_59\n        /* \"#utility.yul\":994:1001   */\n      dup5\n        /* \"#utility.yul\":985:991   */\n      dup3\n        /* \"#utility.yul\":974:983   */\n      dup6\n        /* \"#utility.yul\":970:992   */\n      add\n        /* \"#utility.yul\":949:1002   */\n      tag_36\n      jump\t// in\n    tag_59:\n        /* \"#utility.yul\":939:1002   */\n      swap2\n      pop\n        /* \"#utility.yul\":895:1012   */\n      pop\n        /* \"#utility.yul\":690:1019   */\n      swap3\n      swap2\n      pop\n      pop\n      jump\t// out\n        /* \"#utility.yul\":1025:1151   */\n    tag_37:\n        /* \"#utility.yul\":1062:1069   */\n      0x00\n        /* \"#utility.yul\":1102:1144   */\n      0xffffffffffffffffffffffffffffffffffffffff\n        /* \"#utility.yul\":1095:1100   */\n      dup3\n        /* \"#utility.yul\":1091:1145   */\n      and\n        /* \"#utility.yul\":1080:1145   */\n      swap1\n      pop\n        /* \"#utility.yul\":1025:1151   */\n      swap2\n      swap1\n      pop\n      jump\t// out\n        /* \"#utility.yul\":1157:1217   */\n    tag_38:\n        /* \"#utility.yul\":1185:1188   */\n      0x00\n        /* \"#utility.yul\":1206:1211   */\n      dup2\n        /* \"#utility.yul\":1199:1211   */\n      swap1\n      pop\n        /* \"#utility.yul\":1157:1217   */\n      swap2\n      swap1\n      pop\n      jump\t// out\n        /* \"#utility.yul\":1223:1365   */\n    tag_39:\n        /* \"#utility.yul\":1273:1282   */\n      0x00\n        /* \"#utility.yul\":1306:1359   */\n      tag_63\n        /* \"#utility.yul\":1324:1358   */\n      tag_64\n        /* \"#utility.yul\":1333:1357   */\n      tag_65\n        /* \"#utility.yul\":1351:1356   */\n      dup5\n        /* \"#utility.yul\":1333:1357   */\n      tag_37\n      jump\t// in\n    tag_65:\n        /* \"#utility.yul\":1324:1358   */\n      tag_38\n      jump\t// in\n    tag_64:\n        /* \"#utility.yul\":1306:1359   */\n      tag_37\n      jump\t// in\n    tag_63:\n        /* \"#utility.yul\":1293:1359   */\n      swap1\n      pop\n        /* \"#utility.yul\":1223:1365   */\n      swap2\n      swap1\n      pop\n      jump\t// out\n        /* \"#utility.yul\":1371:1497   */\n    tag_40:\n        /* \"#utility.yul\":1421:1430   */\n      0x00\n        /* \"#utility.yul\":1454:1491   */\n      tag_67\n        /* \"#utility.yul\":1485:1490   */\n      dup3\n        /* \"#utility.yul\":1454:1491   */\n      tag_39\n      jump\t// in\n    tag_67:\n        /* \"#utility.yul\":1441:1491   */\n      swap1\n      pop\n        /* \"#utility.yul\":1371:1497   */\n      swap2\n      swap1\n      pop\n      jump\t// out\n        /* \"#utility.yul\":1503:1653   */\n    tag_41:\n        /* \"#utility.yul\":1577:1586   */\n      0x00\n        /* \"#utility.yul\":1610:1647   */\n      tag_69\n        /* \"#utility.yul\":1641:1646   */\n      dup3\n        /* \"#utility.yul\":1610:1647   */\n      tag_40\n      jump\t// in\n    tag_69:\n        /* \"#utility.yul\":1597:1647   */\n      swap1\n      pop\n        /* \"#utility.yul\":1503:1653   */\n      swap2\n      swap1\n      pop\n      jump\t// out\n        /* \"#utility.yul\":1659:1838   */\n    tag_42:\n        /* \"#utility.yul\":1770:1831   */\n      tag_71\n        /* \"#utility.yul\":1825:1830   */\n      dup2\n        /* \"#utility.yul\":1770:1831   */\n      tag_41\n      jump\t// in\n    tag_71:\n        /* \"#utility.yul\":1765:1768   */\n      dup3\n        /* \"#utility.yul\":1758:1832   */\n      mstore\n        /* \"#utility.yul\":1659:1838   */\n      pop\n      pop\n      jump\t// out\n        /* \"#utility.yul\":1844:2114   */\n    tag_17:\n        /* \"#utility.yul\":1961:1965   */\n      0x00\n        /* \"#utility.yul\":1999:2001   */\n      0x20\n        /* \"#utility.yul\":1988:1997   */\n      dup3\n        /* \"#utility.yul\":1984:2002   */\n      add\n        /* \"#utility.yul\":1976:2002   */\n      swap1\n      pop\n        /* \"#utility.yul\":2012:2107   */\n      tag_73\n        /* \"#utility.yul\":2104:2105   */\n      0x00\n        /* \"#utility.yul\":2093:2102   */\n      dup4\n        /* \"#utility.yul\":2089:2106   */\n      add\n        /* \"#utility.yul\":2080:2086   */\n      dup5\n        /* \"#utility.yul\":2012:2107   */\n      tag_42\n      jump\t// in\n    tag_73:\n        /* \"#utility.yul\":1844:2114   */\n      swap3\n      swap2\n      pop\n      pop\n      jump\t// out\n        /* \"#utility.yul\":2120:2210   */\n    tag_43:\n        /* \"#utility.yul\":2154:2161   */\n      0x00\n        /* \"#utility.yul\":2197:2202   */\n      dup2\n        /* \"#utility.yul\":2190:2203   */\n      iszero\n        /* \"#utility.yul\":2183:2204   */\n      iszero\n        /* \"#utility.yul\":2172:2204   */\n      swap1\n      pop\n        /* \"#utility.yul\":2120:2210   */\n      swap2\n      swap1\n      pop\n      jump\t// out\n        /* \"#utility.yul\":2216:2325   */\n    tag_44:\n        /* \"#utility.yul\":2297:2318   */\n      tag_76\n        /* \"#utility.yul\":2312:2317   */\n      dup2\n        /* \"#utility.yul\":2297:2318   */\n      tag_43\n      jump\t// in\n    tag_76:\n        /* \"#utility.yul\":2292:2295   */\n      dup3\n        /* \"#utility.yul\":2285:2319   */\n      mstore\n        /* \"#utility.yul\":2216:2325   */\n      pop\n      pop\n      jump\t// out\n        /* \"#utility.yul\":2331:2541   */\n    tag_21:\n        /* \"#utility.yul\":2418:2422   */\n      0x00\n        /* \"#utility.yul\":2456:2458   */\n      0x20\n        /* \"#utility.yul\":2445:2454   */\n      dup3\n        /* \"#utility.yul\":2441:2459   */\n      add\n        /* \"#utility.yul\":2433:2459   */\n      swap1\n      pop\n        /* \"#utility.yul\":2469:2534   */\n      tag_78\n        /* \"#utility.yul\":2531:2532   */\n      0x00\n        /* \"#utility.yul\":2520:2529   */\n      dup4\n        /* \"#utility.yul\":2516:2533   */\n      add\n        /* \"#utility.yul\":2507:2513   */\n      dup5\n        /* \"#utility.yul\":2469:2534   */\n      tag_44\n      jump\t// in\n    tag_78:\n        /* \"#utility.yul\":2331:2541   */\n      swap3\n      swap2\n      pop\n      pop\n      jump\t// out\n        /* \"#utility.yul\":2547:2665   */\n    tag_45:\n        /* \"#utility.yul\":2634:2658   */\n      tag_80\n        /* \"#utility.yul\":2652:2657   */\n      dup2\n        /* \"#utility.yul\":2634:2658   */\n      tag_34\n      jump\t// in\n    tag_80:\n        /* \"#utility.yul\":2629:2632   */\n      dup3\n        /* \"#utility.yul\":2622:2659   */\n      mstore\n        /* \"#utility.yul\":2547:2665   */\n      pop\n      pop\n      jump\t// out\n        /* \"#utility.yul\":2671:2893   */\n    tag_25:\n        /* \"#utility.yul\":2764:2768   */\n      0x00\n        /* \"#utility.yul\":2802:2804   */\n      0x20\n        /* \"#utility.yul\":2791:2800   */\n      dup3\n        /* \"#utility.yul\":2787:2805   */\n      add\n        /* \"#utility.yul\":2779:2805   */\n      swap1\n      pop\n        /* \"#utility.yul\":2815:2886   */\n      tag_82\n        /* \"#utility.yul\":2883:2884   */\n      0x00\n        /* \"#utility.yul\":2872:2881   */\n      dup4\n        /* \"#utility.yul\":2868:2885   */\n      add\n        /* \"#utility.yul\":2859:2865   */\n      dup5\n        /* \"#utility.yul\":2815:2886   */\n      tag_45\n      jump\t// in\n    tag_82:\n        /* \"#utility.yul\":2671:2893   */\n      swap3\n      swap2\n      pop\n      pop\n      jump\t// out\n\n    auxdata: 0xa2646970667358221220e7ca9802849ce7ab0bedd3628dac99ebb78d73f096e12f60e337ab51a684876264736f6c634300081a0033\n}\n",
				"bytecode": {
					"linkReferences": {},
					"object": "608060405234801561000f575f80fd5b50604051610457380380610457833981810160405281019061003191906100e5565b805f806101000a81548173ffffffffffffffffffffffffffffffffffffffff021916908373ffffffffffffffffffffffffffffffffffffffff16021790555050610110565b5f80fd5b5f73ffffffffffffffffffffffffffffffffffffffff82169050919050565b5f6100a38261007a565b9050919050565b5f6100b482610099565b9050919050565b6100c4816100aa565b81146100ce575f80fd5b50565b5f815190506100df816100bb565b92915050565b5f602082840312156100fa576100f9610076565b5b5f610107848285016100d1565b91505092915050565b61033a8061011d5f395ff3fe608060405234801561000f575f80fd5b5060043610610055575f3560e01c80639e5faafc14610059578063a7e3a0cc14610063578063d4b839921461007f578063d909b4031461009d578063de2111e2146100bb575b5f80fd5b6100616100d9565b005b61007d600480360381019061007891906101eb565b610155565b005b610087610179565b6040516100949190610290565b60405180910390f35b6100a561019c565b6040516100b291906102c3565b60405180910390f35b6100c36101ae565b6040516100d091906102eb565b60405180910390f35b5f8054906101000a900473ffffffffffffffffffffffffffffffffffffffff1673ffffffffffffffffffffffffffffffffffffffff16637fec8d386040518163ffffffff1660e01b81526004015f604051808303815f87803b15801561013d575f80fd5b505af115801561014f573d5f803e3d5ffd5b50505050565b600160025f6101000a81548160ff0219169083151502179055508060018190555050565b5f8054906101000a900473ffffffffffffffffffffffffffffffffffffffff1681565b60025f9054906101000a900460ff1681565b60015481565b5f80fd5b5f819050919050565b6101ca816101b8565b81146101d4575f80fd5b50565b5f813590506101e5816101c1565b92915050565b5f60208284031215610200576101ff6101b4565b5b5f61020d848285016101d7565b91505092915050565b5f73ffffffffffffffffffffffffffffffffffffffff82169050919050565b5f819050919050565b5f61025861025361024e84610216565b610235565b610216565b9050919050565b5f6102698261023e565b9050919050565b5f61027a8261025f565b9050919050565b61028a81610270565b82525050565b5f6020820190506102a35f830184610281565b92915050565b5f8115159050919050565b6102bd816102a9565b82525050565b5f6020820190506102d65f8301846102b4565b92915050565b6102e5816101b8565b82525050565b5f6020820190506102fe5f8301846102dc565b9291505056fea2646970667358221220e7ca9802849ce7ab0bedd3628dac99ebb78d73f096e12f60e337ab51a684876264736f6c634300081a0033",
					"opcodes": "PUSH1 0x80 PUSH1 0x40 MSTORE CALLVALUE DUP1 ISZERO PUSH2 0xF JUMPI PUSH0 DUP1 REVERT JUMPDEST POP PUSH1 0x40 MLOAD PUSH2 0x457 CODESIZE SUB DUP1 PUSH2 0x457 DUP4 CODECOPY DUP2 DUP2 ADD PUSH1 0x40 MSTORE DUP2 ADD SWAP1 PUSH2 0x31 SWAP2 SWAP1 PUSH2 0xE5 JUMP JUMPDEST DUP1 PUSH0 DUP1 PUSH2 0x100 EXP DUP2 SLOAD DUP2 PUSH20 0xFFFFFFFFFFFFFFFFFFFFFFFFFFFFFFFFFFFFFFFF MUL NOT AND SWAP1 DUP4 PUSH20 0xFFFFFFFFFFFFFFFFFFFFFFFFFFFFFFFFFFFFFFFF AND MUL OR SWAP1 SSTORE POP POP PUSH2 0x110 JUMP JUMPDEST PUSH0 DUP1 REVERT JUMPDEST PUSH0 PUSH20 0xFFFFFFFFFFFFFFFFFFFFFFFFFFFFFFFFFFFFFFFF DUP3 AND SWAP1 POP SWAP2 SWAP1 POP JUMP JUMPDEST PUSH0 PUSH2 0xA3 DUP3 PUSH2 0x7A JUMP JUMPDEST SWAP1 POP SWAP2 SWAP1 POP JUMP JUMPDEST PUSH0 PUSH2 0xB4 DUP3 PUSH2 0x99 JUMP JUMPDEST SWAP1 POP SWAP2 SWAP1 POP JUMP JUMPDEST PUSH2 0xC4 DUP2 PUSH2 0xAA JUMP JUMPDEST DUP2 EQ PUSH2 0xCE JUMPI PUSH0 DUP1 REVERT JUMPDEST POP JUMP JUMPDEST PUSH0 DUP2 MLOAD SWAP1 POP PUSH2 0xDF DUP2 PUSH2 0xBB JUMP JUMPDEST SWAP3 SWAP2 POP POP JUMP JUMPDEST PUSH0 PUSH1 0x20 DUP3 DUP5 SUB SLT ISZERO PUSH2 0xFA JUMPI PUSH2 0xF9 PUSH2 0x76 JUMP JUMPDEST JUMPDEST PUSH0 PUSH2 0x107 DUP5 DUP3 DUP6 ADD PUSH2 0xD1 JUMP JUMPDEST SWAP2 POP POP SWAP3 SWAP2 POP POP JUMP JUMPDEST PUSH2 0x33A DUP1 PUSH2 0x11D PUSH0 CODECOPY PUSH0 RETURN INVALID PUSH1 0x80 PUSH1 0x40 MSTORE CALLVALUE DUP1 ISZERO PUSH2 0xF JUMPI PUSH0 DUP1 REVERT JUMPDEST POP PUSH1 0x4 CALLDATASIZE LT PUSH2 0x55 JUMPI PUSH0 CALLDATALOAD PUSH1 0xE0 SHR DUP1 PUSH4 0x9E5FAAFC EQ PUSH2 0x59 JUMPI DUP1 PUSH4 0xA7E3A0CC EQ PUSH2 0x63 JUMPI DUP1 PUSH4 0xD4B83992 EQ PUSH2 0x7F JUMPI DUP1 PUSH4 0xD909B403 EQ PUSH2 0x9D JUMPI DUP1 PUSH4 0xDE2111E2 EQ PUSH2 0xBB JUMPI JUMPDEST PUSH0 DUP1 REVERT JUMPDEST PUSH2 0x61 PUSH2 0xD9 JUMP JUMPDEST STOP JUMPDEST PUSH2 0x7D PUSH1 0x4 DUP1 CALLDATASIZE SUB DUP2 ADD SWAP1 PUSH2 0x78 SWAP2 SWAP1 PUSH2 0x1EB JUMP JUMPDEST PUSH2 0x155 JUMP JUMPDEST STOP JUMPDEST PUSH2 0x87 PUSH2 0x179 JUMP JUMPDEST PUSH1 0x40 MLOAD PUSH2 0x94 SWAP2 SWAP1 PUSH2 0x290 JUMP JUMPDEST PUSH1 0x40 MLOAD DUP1 SWAP2 SUB SWAP1 RETURN JUMPDEST PUSH2 0xA5 PUSH2 0x19C JUMP JUMPDEST PUSH1 0x40 MLOAD PUSH2 0xB2 SWAP2 SWAP1 PUSH2 0x2C3 JUMP JUMPDEST PUSH1 0x40 MLOAD DUP1 SWAP2 SUB SWAP1 RETURN JUMPDEST PUSH2 0xC3 PUSH2 0x1AE JUMP JUMPDEST PUSH1 0x40 MLOAD PUSH2 0xD0 SWAP2 SWAP1 PUSH2 0x2EB JUMP JUMPDEST PUSH1 0x40 MLOAD DUP1 SWAP2 SUB SWAP1 RETURN JUMPDEST PUSH0 DUP1 SLOAD SWAP1 PUSH2 0x100 EXP SWAP1 DIV PUSH20 0xFFFFFFFFFFFFFFFFFFFFFFFFFFFFFFFFFFFFFFFF AND PUSH20 0xFFFFFFFFFFFFFFFFFFFFFFFFFFFFFFFFFFFFFFFF AND PUSH4 0x7FEC8D38 PUSH1 0x40 MLOAD DUP2 PUSH4 0xFFFFFFFF AND PUSH1 0xE0 SHL DUP2 MSTORE PUSH1 0x4 ADD PUSH0 PUSH1 0x40 MLOAD DUP1 DUP4 SUB DUP2 PUSH0 DUP8 DUP1 EXTCODESIZE ISZERO DUP1 ISZERO PUSH2 0x13D JUMPI PUSH0 DUP1 REVERT JUMPDEST POP GAS CALL ISZERO DUP1 ISZERO PUSH2 0x14F JUMPI RETURNDATASIZE PUSH0 DUP1 RETURNDATACOPY RETURNDATASIZE PUSH0 REVERT JUMPDEST POP POP POP POP JUMP JUMPDEST PUSH1 0x1 PUSH1 0x2 PUSH0 PUSH2 0x100 EXP DUP2 SLOAD DUP2 PUSH1 0xFF MUL NOT AND SWAP1 DUP4 ISZERO ISZERO MUL OR SWAP1 SSTORE POP DUP1 PUSH1 0x1 DUP2 SWAP1 SSTORE POP POP JUMP JUMPDEST PUSH0 DUP1 SLOAD SWAP1 PUSH2 0x100 EXP SWAP1 DIV PUSH20 0xFFFFFFFFFFFFFFFFFFFFFFFFFFFFFFFFFFFFFFFF AND DUP2 JUMP JUMPDEST PUSH1 0x2 PUSH0 SWAP1 SLOAD SWAP1 PUSH2 0x100 EXP SWAP1 DIV PUSH1 0xFF AND DUP2 JUMP JUMPDEST PUSH1 0x1 SLOAD DUP2 JUMP JUMPDEST PUSH0 DUP1 REVERT JUMPDEST PUSH0 DUP2 SWAP1 POP SWAP2 SWAP1 POP JUMP JUMPDEST PUSH2 0x1CA DUP2 PUSH2 0x1B8 JUMP JUMPDEST DUP2 EQ PUSH2 0x1D4 JUMPI PUSH0 DUP1 REVERT JUMPDEST POP JUMP JUMPDEST PUSH0 DUP2 CALLDATALOAD SWAP1 POP PUSH2 0x1E5 DUP2 PUSH2 0x1C1 JUMP JUMPDEST SWAP3 SWAP2 POP POP JUMP JUMPDEST PUSH0 PUSH1 0x20 DUP3 DUP5 SUB SLT ISZERO PUSH2 0x200 JUMPI PUSH2 0x1FF PUSH2 0x1B4 JUMP JUMPDEST JUMPDEST PUSH0 PUSH2 0x20D DUP5 DUP3 DUP6 ADD PUSH2 0x1D7 JUMP JUMPDEST SWAP2 POP POP SWAP3 SWAP2 POP POP JUMP JUMPDEST PUSH0 PUSH20 0xFFFFFFFFFFFFFFFFFFFFFFFFFFFFFFFFFFFFFFFF DUP3 AND SWAP1 POP SWAP2 SWAP1 POP JUMP JUMPDEST PUSH0 DUP2 SWAP1 POP SWAP2 SWAP1 POP JUMP JUMPDEST PUSH0 PUSH2 0x258 PUSH2 0x253 PUSH2 0x24E DUP5 PUSH2 0x216 JUMP JUMPDEST PUSH2 0x235 JUMP JUMPDEST PUSH2 0x216 JUMP JUMPDEST SWAP1 POP SWAP2 SWAP1 POP JUMP JUMPDEST PUSH0 PUSH2 0x269 DUP3 PUSH2 0x23E JUMP JUMPDEST SWAP1 POP SWAP2 SWAP1 POP JUMP JUMPDEST PUSH0 PUSH2 0x27A DUP3 PUSH2 0x25F JUMP JUMPDEST SWAP1 POP SWAP2 SWAP1 POP JUMP JUMPDEST PUSH2 0x28A DUP2 PUSH2 0x270 JUMP JUMPDEST DUP3 MSTORE POP POP JUMP JUMPDEST PUSH0 PUSH1 0x20 DUP3 ADD SWAP1 POP PUSH2 0x2A3 PUSH0 DUP4 ADD DUP5 PUSH2 0x281 JUMP JUMPDEST SWAP3 SWAP2 POP POP JUMP JUMPDEST PUSH0 DUP2 ISZERO ISZERO SWAP1 POP SWAP2 SWAP1 POP JUMP JUMPDEST PUSH2 0x2BD DUP2 PUSH2 0x2A9 JUMP JUMPDEST DUP3 MSTORE POP POP JUMP JUMPDEST PUSH0 PUSH1 0x20 DUP3 ADD SWAP1 POP PUSH2 0x2D6 PUSH0 DUP4 ADD DUP5 PUSH2 0x2B4 JUMP JUMPDEST SWAP3 SWAP2 POP POP JUMP JUMPDEST PUSH2 0x2E5 DUP2 PUSH2 0x1B8 JUMP JUMPDEST DUP3 MSTORE POP POP JUMP JUMPDEST PUSH0 PUSH1 0x20 DUP3 ADD SWAP1 POP PUSH2 0x2FE PUSH0 DUP4 ADD DUP5 PUSH2 0x2DC JUMP JUMPDEST SWAP3 SWAP2 POP POP JUMP INVALID LOG2 PUSH5 0x6970667358 0x22 SLT KECCAK256 0xE7 0xCA SWAP9 MUL DUP5 SWAP13 0xE7 0xAB SIGNEXTEND 0xED 0xD3 PUSH3 0x8DAC99 0xEB 0xB7 DUP14 PUSH20 0xF096E12F60E337AB51A684876264736F6C634300 ADDMOD BYTE STOP CALLER "
				},
				"gasEstimates": {
					"creation": {
						"codeDepositCost": "165200",
						"executionCost": "infinite",
						"totalCost": "infinite"
					},
					"external": {
						"attack()": "infinite",
						"got()": "2491",
						"ok()": "2510",
						"receiveSecret(uint256)": "46781",
						"target()": "infinite"
					}
				},
				"methodIdentifiers": {
					"attack()": "9e5faafc",
					"got()": "de2111e2",
					"ok()": "d909b403",
					"receiveSecret(uint256)": "a7e3a0cc",
					"target()": "d4b83992"
				}
			},
			"storageLayout": {
				"storage": [
					{
						"astId": 337,
						"contract": "S/Shell/Shell.sol:Attack_ReverseShell",
						"label": "target",
						"offset": 0,
						"slot": "0",
						"type": "t_contract(ReverseShellVuln)333"
					},
					{
						"astId": 339,
						"contract": "S/Shell/Shell.sol:Attack_ReverseShell",
						"label": "got",
						"offset": 0,
						"slot": "1",
						"type": "t_uint256"
					},
					{
						"astId": 341,
						"contract": "S/Shell/Shell.sol:Attack_ReverseShell",
						"label": "ok",
						"offset": 0,
						"slot": "2",
						"type": "t_bool"
					}
				],
				"types": {
					"t_bool": {
						"encoding": "inplace",
						"label": "bool",
						"numberOfBytes": "1"
					},
					"t_contract(ReverseShellVuln)333": {
						"encoding": "inplace",
						"label": "contract ReverseShellVuln",
						"numberOfBytes": "20"
					},
					"t_uint256": {
						"encoding": "inplace",
						"label": "uint256",
						"numberOfBytes": "32"
					}
				}
			},
			"userdoc": {
				"kind": "user",
				"methods": {
					"receiveSecret(uint256)": {
						"notice": "Called back by target.trigger()"
					}
				},
				"notice": "Attack collects the secret",
				"version": 1
			}
		}
	}
}