{
	"S/Shell/Shell.sol": {
		"ReverseShellSafe": {
			"abi": [
				{
					"inputs": [],
					"stateMutability": "nonpayable",
					"type": "constructor"
				},
				{
					"inputs": [],
					"name": "Shell__NotOwner",
					"type": "error"
				},
				{
					"anonymous": false,
					"inputs": [
						{
							"indexed": true,
							"internalType": "address",
							"name": "to",
							"type": "address"
						},
						{
							"indexed": false,
							"internalType": "uint256",
							"name": "val",
							"type": "uint256"
						}
					],
					"name": "Sent",
					"type": "event"
				},
				{
					"inputs": [],
					"name": "owner",
					"outputs": [
						{
							"internalType": "address",
							"name": "",
							"type": "address"
						}
					],
					"stateMutability": "view",
					"type": "function"
				},
				{
					"inputs": [],
					"name": "trigger",
					"outputs": [],
					"stateMutability": "nonpayable",
					"type": "function"
				}
			],
			"devdoc": {
				"kind": "dev",
				"methods": {},
				"version": 1
			},
			"evm": {
				"assembly": "    /* \"S/Shell/Shell.sol\":4171:4720  contract ReverseShellSafe {... */\n  mstore(0x40, 0xa0)\n    /* \"S/Shell/Shell.sol\":4264:4272  0xC0FFEE */\n  0xc0ffee\n    /* \"S/Shell/Shell.sol\":4239:4272  uint256 private secret = 0xC0FFEE */\n  0x00\n  sstore\n    /* \"S/Shell/Shell.sol\":4329:4366  constructor() { owner = msg.sender; } */\n  callvalue\n  dup1\n  iszero\n  tag_1\n  jumpi\n  0x00\n  dup1\n  revert\ntag_1:\n  pop\n    /* \"S/Shell/Shell.sol\":4353:4363  msg.sender */\n  caller\n    /* \"S/Shell/Shell.sol\":4345:4363  owner = msg.sender */\n  0xffffffffffffffffffffffffffffffffffffffff\n  and\n  0x80\n  dup2\n  0xffffffffffffffffffffffffffffffffffffffff\n  and\n  dup2\n  mstore\n  pop\n  pop\n    /* \"S/Shell/Shell.sol\":4171:4720  contract ReverseShellSafe {... */\n  mload(0x80)\n  codecopy(0x00, dataOffset(sub_0), dataSize(sub_0))\n  0x00\n  assignImmutable(\"0x571dd8aeb083ba31171345d7ed78dcdb2e0ef1ded5d63247b288b600c1eb6c39\")\n  return(0x00, dataSize(sub_0))\nstop\n\nsub_0: assembly {\n        /* \"S/Shell/Shell.sol\":4171:4720  contract ReverseShellSafe {... */\n      mstore(0x40, 0x80)\n      callvalue\n      dup1\n      iszero\n      tag_1\n      jumpi\n      0x00\n      dup1\n      revert\n    tag_1:\n      pop\n      jumpi(tag_2, lt(calldatasize, 0x04))\n      shr(0xe0, calldataload(0x00))\n      dup1\n      0x7fec8d38\n      eq\n      tag_3\n      jumpi\n      dup1\n      0x8da5cb5b\n      eq\n      tag_4\n      jumpi\n    tag_2:\n      0x00\n      dup1\n      revert\n        /* \"S/Shell/Shell.sol\":4423:4718  function trigger() external {... */\n    tag_3:\n      tag_5\n      tag_6\n      jump\t// in\n    tag_5:\n      stop\n        /* \"S/Shell/Shell.sol\":4203:4233  address public immutable owner */\n    tag_4:\n      tag_7\n      tag_8\n      jump\t// in\n    tag_7:\n      mload(0x40)\n      tag_9\n      swap2\n      swap1\n      tag_10\n      jump\t// in\n    tag_9:\n      mload(0x40)\n      dup1\n      swap2\n      sub\n      swap1\n      return\n        /* \"S/Shell/Shell.sol\":4423:4718  function trigger() external {... */\n    tag_6:\n        /* \"S/Shell/Shell.sol\":4479:4484  owner */\n      immutable(\"0x571dd8aeb083ba31171345d7ed78dcdb2e0ef1ded5d63247b288b600c1eb6c39\")\n        /* \"S/Shell/Shell.sol\":4465:4484  msg.sender != owner */\n      0xffffffffffffffffffffffffffffffffffffffff\n      and\n        /* \"S/Shell/Shell.sol\":4465:4475  msg.sender */\n      caller\n        /* \"S/Shell/Shell.sol\":4465:4484  msg.sender != owner */\n      0xffffffffffffffffffffffffffffffffffffffff\n      and\n      eq\n        /* \"S/Shell/Shell.sol\":4461:4510  if (msg.sender != owner) revert Shell__NotOwner() */\n      tag_12\n      jumpi\n        /* \"S/Shell/Shell.sol\":4493:4510  Shell__NotOwner() */\n      mload(0x40)\n      0xde1e8bd500000000000000000000000000000000000000000000000000000000\n      dup2\n      mstore\n      0x04\n      add\n      mload(0x40)\n      dup1\n      swap2\n      sub\n      swap1\n      revert\n        /* \"S/Shell/Shell.sol\":4461:4510  if (msg.sender != owner) revert Shell__NotOwner() */\n    tag_12:\n        /* \"S/Shell/Shell.sol\":4521:4529  bool ok2 */\n      0x00\n        /* \"S/Shell/Shell.sol\":4535:4545  msg.sender */\n      caller\n        /* \"S/Shell/Shell.sol\":4535:4550  msg.sender.call */\n      0xffffffffffffffffffffffffffffffffffffffff\n      and\n        /* \"S/Shell/Shell.sol\":4614:4620  secret */\n      sload(0x00)\n        /* \"S/Shell/Shell.sol\":4564:4621  abi.encodeWithSignature(\"receiveSecret(uint256)\", secret) */\n      add(0x24, mload(0x40))\n      tag_13\n      swap2\n      swap1\n      tag_14\n      jump\t// in\n    tag_13:\n      mload(0x40)\n      0x20\n      dup2\n      dup4\n      sub\n      sub\n      dup2\n      mstore\n      swap1\n      0x40\n      mstore\n      and(not(0xffffffffffffffffffffffffffffffffffffffffffffffffffffffff), 0xa7e3a0cc00000000000000000000000000000000000000000000000000000000)\n      0x20\n      dup3\n      add\n      dup1\n      mload\n      0xffffffffffffffffffffffffffffffffffffffffffffffffffffffff\n      dup4\n      dup2\n      dup4\n      and\n      or\n      dup4\n      mstore\n      pop\n      pop\n      pop\n      pop\n        /* \"S/Shell/Shell.sol\":4535:4631  msg.sender.call(... */\n      mload(0x40)\n      tag_15\n      swap2\n      swap1\n      tag_16\n      jump\t// in\n    tag_15:\n      0x00\n      mload(0x40)\n      dup1\n      dup4\n      sub\n      dup2\n      0x00\n      dup7\n      gas\n      call\n      swap2\n      pop\n      pop\n      returndatasize\n      dup1\n      0x00\n      dup2\n      eq\n      tag_19\n      jumpi\n      mload(0x40)\n      swap2\n      pop\n      and(add(returndatasize, 0x3f), not(0x1f))\n      dup3\n      add\n      0x40\n      mstore\n      returndatasize\n      dup3\n      mstore\n      returndatasize\n      0x00\n      0x20\n      dup5\n      add\n      returndatacopy\n      jump(tag_18)\n    tag_19:\n      0x60\n      swap2\n      pop\n    tag_18:\n      pop\n        /* \"S/Shell/Shell.sol\":4520:4631  (bool ok2, ) = msg.sender.call(... */\n      pop\n      swap1\n      pop\n        /* \"S/Shell/Shell.sol\":4649:4652  ok2 */\n      dup1\n        /* \"S/Shell/Shell.sol\":4641:4672  require(ok2, \"callback failed\") */\n      tag_20\n      jumpi\n      mload(0x40)\n      0x08c379a000000000000000000000000000000000000000000000000000000000\n      dup2\n      mstore\n      0x04\n      add\n      tag_21\n      swap1\n      tag_22\n      jump\t// in\n    tag_21:\n      mload(0x40)\n      dup1\n      swap2\n      sub\n      swap1\n      revert\n    tag_20:\n        /* \"S/Shell/Shell.sol\":4692:4702  msg.sender */\n      caller\n        /* \"S/Shell/Shell.sol\":4687:4711  Sent(msg.sender, secret) */\n      0xffffffffffffffffffffffffffffffffffffffff\n      and\n      0x510ffb4dcab972ae9d2007a58e13f1b0881776d23cd8f5cc32f8c5be2dbf70d2\n        /* \"S/Shell/Shell.sol\":4704:4710  secret */\n      sload(0x00)\n        /* \"S/Shell/Shell.sol\":4687:4711  Sent(msg.sender, secret) */\n      mload(0x40)\n      tag_23\n      swap2\n      swap1\n      tag_14\n      jump\t// in\n    tag_23:\n      mload(0x40)\n      dup1\n      swap2\n      sub\n      swap1\n      log2\n        /* \"S/Shell/Shell.sol\":4451:4718  {... */\n      pop\n        /* \"S/Shell/Shell.sol\":4423:4718  function trigger() external {... */\n      jump\t// out\n        /* \"S/Shell/Shell.sol\":4203:4233  address public immutable owner */\n    tag_8:\n      immutable(\"0x571dd8aeb083ba31171345d7ed78dcdb2e0ef1ded5d63247b288b600c1eb6c39\")\n      dup2\n      jump\t// out\n        /* \"#utility.yul\":7:133   */\n    tag_24:\n        /* \"#utility.yul\":44:51   */\n      0x00\n        /* \"#utility.yul\":84:126   */\n      0xffffffffffffffffffffffffffffffffffffffff\n        /* \"#utility.yul\":77:82   */\n      dup3\n        /* \"#utility.yul\":73:127   */\n      and\n        /* \"#utility.yul\":62:127   */\n      swap1\n      pop\n        /* \"#utility.yul\":7:133   */\n      swap2\n      swap1\n      pop\n      jump\t// out\n        /* \"#utility.yul\":139:235   */\n    tag_25:\n        /* \"#utility.yul\":176:183   */\n      0x00\n        /* \"#utility.yul\":205:229   */\n      tag_39\n        /* \"#utility.yul\":223:228   */\n      dup3\n        /* \"#utility.yul\":205:229   */\n      tag_24\n      jump\t// in\n    tag_39:\n        /* \"#utility.yul\":194:229   */\n      swap1\n      pop\n        /* \"#utility.yul\":139:235   */\n      swap2\n      swap1\n      pop\n      jump\t// out\n        /* \"#utility.yul\":241:359   */\n    tag_26:\n        /* \"#utility.yul\":328:352   */\n      tag_41\n        /* \"#utility.yul\":346:351   */\n      dup2\n        /* \"#utility.yul\":328:352   */\n      tag_25\n      jump\t// in\n    tag_41:\n        /* \"#utility.yul\":323:326   */\n      dup3\n        /* \"#utility.yul\":316:353   */\n      mstore\n        /* \"#utility.yul\":241:359   */\n      pop\n      pop\n      jump\t// out\n        /* \"#utility.yul\":365:587   */\n    tag_10:\n        /* \"#utility.yul\":458:462   */\n      0x00\n        /* \"#utility.yul\":496:498   */\n      0x20\n        /* \"#utility.yul\":485:494   */\n      dup3\n        /* \"#utility.yul\":481:499   */\n      add\n        /* \"#utility.yul\":473:499   */\n      swap1\n      pop\n        /* \"#utility.yul\":509:580   */\n      tag_43\n        /* \"#utility.yul\":577:578   */\n      0x00\n        /* \"#utility.yul\":566:575   */\n      dup4\n        /* \"#utility.yul\":562:579   */\n      add\n        /* \"#utility.yul\":553:559   */\n      dup5\n        /* \"#utility.yul\":509:580   */\n      tag_26\n      jump\t// in\n    tag_43:\n        /* \"#utility.yul\":365:587   */\n      swap3\n      swap2\n      pop\n      pop\n      jump\t// out\n        /* \"#utility.yul\":593:670   */\n    tag_27:\n        /* \"#utility.yul\":630:637   */\n      0x00\n        /* \"#utility.yul\":659:664   */\n      dup2\n        /* \"#utility.yul\":648:664   */\n      swap1\n      pop\n        /* \"#utility.yul\":593:670   */\n      swap2\n      swap1\n      pop\n      jump\t// out\n        /* \"#utility.yul\":676:794   */\n    tag_28:\n        /* \"#utility.yul\":763:787   */\n      tag_46\n        /* \"#utility.yul\":781:786   */\n      dup2\n        /* \"#utility.yul\":763:787   */\n      tag_27\n      jump\t// in\n    tag_46:\n        /* \"#utility.yul\":758:761   */\n      dup3\n        /* \"#utility.yul\":751:788   */\n      mstore\n        /* \"#utility.yul\":676:794   */\n      pop\n      pop\n      jump\t// out\n        /* \"#utility.yul\":800:1022   */\n    tag_14:\n        /* \"#utility.yul\":893:897   */\n      0x00\n        /* \"#utility.yul\":931:933   */\n      0x20\n        /* \"#utility.yul\":920:929   */\n      dup3\n        /* \"#utility.yul\":916:934   */\n      add\n        /* \"#utility.yul\":908:934   */\n      swap1\n      pop\n        /* \"#utility.yul\":944:1015   */\n      tag_48\n        /* \"#utility.yul\":1012:1013   */\n      0x00\n        /* \"#utility.yul\":1001:1010   */\n      dup4\n        /* \"#utility.yul\":997:1014   */\n      add\n        /* \"#utility.yul\":988:994   */\n      dup5\n        /* \"#utility.yul\":944:1015   */\n      tag_28\n      jump\t// in\n    tag_48:\n        /* \"#utility.yul\":800:1022   */\n      swap3\n      swap2\n      pop\n      pop\n      jump\t// out\n        /* \"#utility.yul\":1028:1126   */\n    tag_29:\n        /* \"#utility.yul\":1079:1085   */\n      0x00\n        /* \"#utility.yul\":1113:1118   */\n      dup2\n        /* \"#utility.yul\":1107:1119   */\n      mload\n        /* \"#utility.yul\":1097:1119   */\n      swap1\n      pop\n        /* \"#utility.yul\":1028:1126   */\n      swap2\n      swap1\n      pop\n      jump\t// out\n        /* \"#utility.yul\":1132:1279   */\n    tag_30:\n        /* \"#utility.yul\":1233:1244   */\n      0x00\n        /* \"#utility.yul\":1270:1273   */\n      dup2\n        /* \"#utility.yul\":1255:1273   */\n      swap1\n      pop\n        /* \"#utility.yul\":1132:1279   */\n      swap3\n      swap2\n      pop\n      pop\n      jump\t// out\n        /* \"#utility.yul\":1285:1424   */\n    tag_31:\n        /* \"#utility.yul\":1374:1380   */\n      dup3\n        /* \"#utility.yul\":1369:1372   */\n      dup2\n        /* \"#utility.yul\":1364:1367   */\n      dup4\n        /* \"#utility.yul\":1358:1381   */\n      mcopy\n        /* \"#utility.yul\":1415:1416   */\n      0x00\n        /* \"#utility.yul\":1406:1412   */\n      dup4\n        /* \"#utility.yul\":1401:1404   */\n      dup4\n        /* \"#utility.yul\":1397:1413   */\n      add\n        /* \"#utility.yul\":1390:1417   */\n      mstore\n        /* \"#utility.yul\":1285:1424   */\n      pop\n      pop\n      pop\n      jump\t// out\n        /* \"#utility.yul\":1430:1816   */\n    tag_32:\n        /* \"#utility.yul\":1534:1537   */\n      0x00\n        /* \"#utility.yul\":1562:1600   */\n      tag_53\n        /* \"#utility.yul\":1594:1599   */\n      dup3\n        /* \"#utility.yul\":1562:1600   */\n      tag_29\n      jump\t// in\n    tag_53:\n        /* \"#utility.yul\":1616:1704   */\n      tag_54\n        /* \"#utility.yul\":1697:1703   */\n      dup2\n        /* \"#utility.yul\":1692:1695   */\n      dup6\n        /* \"#utility.yul\":1616:1704   */\n      tag_30\n      jump\t// in\n    tag_54:\n        /* \"#utility.yul\":1609:1704   */\n      swap4\n      pop\n        /* \"#utility.yul\":1713:1778   */\n      tag_55\n        /* \"#utility.yul\":1771:1777   */\n      dup2\n        /* \"#utility.yul\":1766:1769   */\n      dup6\n        /* \"#utility.yul\":1759:1763   */\n      0x20\n        /* \"#utility.yul\":1752:1757   */\n      dup7\n        /* \"#utility.yul\":1748:1764   */\n      add\n        /* \"#utility.yul\":1713:1778   */\n      tag_31\n      jump\t// in\n    tag_55:\n        /* \"#utility.yul\":1803:1809   */\n      dup1\n        /* \"#utility.yul\":1798:1801   */\n      dup5\n        /* \"#utility.yul\":1794:1810   */\n      add\n        /* \"#utility.yul\":1787:1810   */\n      swap2\n      pop\n        /* \"#utility.yul\":1538:1816   */\n      pop\n        /* \"#utility.yul\":1430:1816   */\n      swap3\n      swap2\n      pop\n      pop\n      jump\t// out\n        /* \"#utility.yul\":1822:2093   */\n    tag_16:\n        /* \"#utility.yul\":1952:1955   */\n      0x00\n        /* \"#utility.yul\":1974:2067   */\n      tag_57\n        /* \"#utility.yul\":2063:2066   */\n      dup3\n        /* \"#utility.yul\":2054:2060   */\n      dup5\n        /* \"#utility.yul\":1974:2067   */\n      tag_32\n      jump\t// in\n    tag_57:\n        /* \"#utility.yul\":1967:2067   */\n      swap2\n      pop\n        /* \"#utility.yul\":2084:2087   */\n      dup2\n        /* \"#utility.yul\":2077:2087   */\n      swap1\n      pop\n        /* \"#utility.yul\":1822:2093   */\n      swap3\n      swap2\n      pop\n      pop\n      jump\t// out\n        /* \"#utility.yul\":2099:2268   */\n    tag_33:\n        /* \"#utility.yul\":2183:2194   */\n      0x00\n        /* \"#utility.yul\":2217:2223   */\n      dup3\n        /* \"#utility.yul\":2212:2215   */\n      dup3\n        /* \"#utility.yul\":2205:2224   */\n      mstore\n        /* \"#utility.yul\":2257:2261   */\n      0x20\n        /* \"#utility.yul\":2252:2255   */\n      dup3\n        /* \"#utility.yul\":2248:2262   */\n      add\n        /* \"#utility.yul\":2233:2262   */\n      swap1\n      pop\n        /* \"#utility.yul\":2099:2268   */\n      swap3\n      swap2\n      pop\n      pop\n      jump\t// out\n        /* \"#utility.yul\":2274:2439   */\n    tag_34:\n        /* \"#utility.yul\":2414:2431   */\n      0x63616c6c6261636b206661696c65640000000000000000000000000000000000\n        /* \"#utility.yul\":2410:2411   */\n      0x00\n        /* \"#utility.yul\":2402:2408   */\n      dup3\n        /* \"#utility.yul\":2398:2412   */\n      add\n        /* \"#utility.yul\":2391:2432   */\n      mstore\n        /* \"#utility.yul\":2274:2439   */\n      pop\n      jump\t// out\n        /* \"#utility.yul\":2445:2811   */\n    tag_35:\n        /* \"#utility.yul\":2587:2590   */\n      0x00\n        /* \"#utility.yul\":2608:2675   */\n      tag_61\n        /* \"#utility.yul\":2672:2674   */\n      0x0f\n        /* \"#utility.yul\":2667:2670   */\n      dup4\n        /* \"#utility.yul\":2608:2675   */\n      tag_33\n      jump\t// in\n    tag_61:\n        /* \"#utility.yul\":2601:2675   */\n      swap2\n      pop\n        /* \"#utility.yul\":2684:2777   */\n      tag_62\n        /* \"#utility.yul\":2773:2776   */\n      dup3\n        /* \"#utility.yul\":2684:2777   */\n      tag_34\n      jump\t// in\n    tag_62:\n        /* \"#utility.yul\":2802:2804   */\n      0x20\n        /* \"#utility.yul\":2797:2800   */\n      dup3\n        /* \"#utility.yul\":2793:2805   */\n      add\n        /* \"#utility.yul\":2786:2805   */\n      swap1\n      pop\n        /* \"#utility.yul\":2445:2811   */\n      swap2\n      swap1\n      pop\n      jump\t// out\n        /* \"#utility.yul\":2817:3236   */\n    tag_22:\n        /* \"#utility.yul\":2983:2987   */\n      0x00\n        /* \"#utility.yul\":3021:3023   */\n      0x20\n        /* \"#utility.yul\":3010:3019   */\n      dup3\n        /* \"#utility.yul\":3006:3024   */\n      add\n        /* \"#utility.yul\":2998:3024   */\n      swap1\n      pop\n        /* \"#utility.yul\":3070:3079   */\n      dup2\n        /* \"#utility.yul\":3064:3068   */\n      dup2\n        /* \"#utility.yul\":3060:3080   */\n      sub\n        /* \"#utility.yul\":3056:3057   */\n      0x00\n        /* \"#utility.yul\":3045:3054   */\n      dup4\n        /* \"#utility.yul\":3041:3058   */\n      add\n        /* \"#utility.yul\":3034:3081   */\n      mstore\n        /* \"#utility.yul\":3098:3229   */\n      tag_64\n        /* \"#utility.yul\":3224:3228   */\n      dup2\n        /* \"#utility.yul\":3098:3229   */\n      tag_35\n      jump\t// in\n    tag_64:\n        /* \"#utility.yul\":3090:3229   */\n      swap1\n      pop\n        /* \"#utility.yul\":2817:3236   */\n      swap2\n      swap1\n      pop\n      jump\t// out\n\n    auxdata: 0xa264697066735822122005053df953a52ebc87a01a9fa23133a8450d74d65600da2ae7c3044a6fb5019c64736f6c634300081a0033\n}\n",
				"bytecode": {
					"linkReferences": {},
					"object": "60a060405262c0ffee5f553480156014575f80fd5b503373ffffffffffffffffffffffffffffffffffffffff1660808173ffffffffffffffffffffffffffffffffffffffff16815250506080516104306100675f395f81816062015261026f01526104305ff3fe608060405234801561000f575f80fd5b5060043610610034575f3560e01c80637fec8d38146100385780638da5cb5b14610042575b5f80fd5b610040610060565b005b61004a61026d565b60405161005791906102d0565b60405180910390f35b7f000000000000000000000000000000000000000000000000000000000000000073ffffffffffffffffffffffffffffffffffffffff163373ffffffffffffffffffffffffffffffffffffffff16146100e5576040517fde1e8bd500000000000000000000000000000000000000000000000000000000815260040160405180910390fd5b5f3373ffffffffffffffffffffffffffffffffffffffff165f5460405160240161010f9190610301565b6040516020818303038152906040527fa7e3a0cc000000000000000000000000000000000000000000000000000000007bffffffffffffffffffffffffffffffffffffffffffffffffffffffff19166020820180517bffffffffffffffffffffffffffffffffffffffffffffffffffffffff8381831617835250505050604051610199919061036c565b5f604051808303815f865af19150503d805f81146101d2576040519150601f19603f3d011682016040523d82523d5f602084013e6101d7565b606091505b505090508061021b576040517f08c379a0000000000000000000000000000000000000000000000000000000008152600401610212906103dc565b60405180910390fd5b3373ffffffffffffffffffffffffffffffffffffffff167f510ffb4dcab972ae9d2007a58e13f1b0881776d23cd8f5cc32f8c5be2dbf70d25f546040516102629190610301565b60405180910390a250565b7f000000000000000000000000000000000000000000000000000000000000000081565b5f73ffffffffffffffffffffffffffffffffffffffff82169050919050565b5f6102ba82610291565b9050919050565b6102ca816102b0565b82525050565b5f6020820190506102e35f8301846102c1565b92915050565b5f819050919050565b6102fb816102e9565b82525050565b5f6020820190506103145f8301846102f2565b92915050565b5f81519050919050565b5f81905092915050565b8281835e5f83830152505050565b5f6103468261031a565b6103508185610324565b935061036081856020860161032e565b80840191505092915050565b5f610377828461033c565b915081905092915050565b5f82825260208201905092915050565b7f63616c6c6261636b206661696c656400000000000000000000000000000000005f82015250565b5f6103c6600f83610382565b91506103d182610392565b602082019050919050565b5f6020820190508181035f8301526103f3816103ba565b905091905056fea264697066735822122005053df953a52ebc87a01a9fa23133a8450d74d65600da2ae7c3044a6fb5019c64736f6c634300081a0033",
					"opcodes": "PUSH1 0xA0 PUSH1 0x40 MSTORE PUSH3 0xC0FFEE PUSH0 SSTORE CALLVALUE DUP1 ISZERO PUSH1 0x14 JUMPI PUSH0 DUP1 REVERT JUMPDEST POP CALLER PUSH20 0xFFFFFFFFFFFFFFFFFFFFFFFFFFFFFFFFFFFFFFFF AND PUSH1 0x80 DUP2 PUSH20 0xFFFFFFFFFFFFFFFFFFFFFFFFFFFFFFFFFFFFFFFF AND DUP2 MSTORE POP POP PUSH1 0x80 MLOAD PUSH2 0x430 PUSH2 0x67 PUSH0 CODECOPY PUSH0 DUP2 DUP2 PUSH1 0x62 ADD MSTORE PUSH2 0x26F ADD MSTORE PUSH2 0x430 PUSH0 RETURN INVALID PUSH1 0x80 PUSH1 0x40 MSTORE CALLVALUE DUP1 ISZERO PUSH2 0xF JUMPI PUSH0 DUP1 REVERT JUMPDEST POP PUSH1 0x4 CALLDATASIZE LT PUSH2 0x34 JUMPI PUSH0 CALLDATALOAD PUSH1 0xE0 SHR DUP1 PUSH4 0x7FEC8D38 EQ PUSH2 0x38 JUMPI DUP1 PUSH4 0x8DA5CB5B EQ PUSH2 0x42 JUMPI JUMPDEST PUSH0 DUP1 REVERT JUMPDEST PUSH2 0x40 PUSH2 0x60 JUMP JUMPDEST STOP JUMPDEST PUSH2 0x4A PUSH2 0x26D JUMP JUMPDEST PUSH1 0x40 MLOAD PUSH2 0x57 SWAP2 SWAP1 PUSH2 0x2D0 JUMP JUMPDEST PUSH1 0x40 MLOAD DUP1 SWAP2 SUB SWAP1 RETURN JUMPDEST PUSH32 0x0 PUSH20 0xFFFFFFFFFFFFFFFFFFFFFFFFFFFFFFFFFFFFFFFF AND CALLER PUSH20 0xFFFFFFFFFFFFFFFFFFFFFFFFFFFFFFFFFFFFFFFF AND EQ PUSH2 0xE5 JUMPI PUSH1 0x40 MLOAD PUSH32 0xDE1E8BD500000000000000000000000000000000000000000000000000000000 DUP2 MSTORE PUSH1 0x4 ADD PUSH1 0x40 MLOAD DUP1 SWAP2 SUB SWAP1 REVERT JUMPDEST PUSH0 CALLER PUSH20 0xFFFFFFFFFFFFFFFFFFFFFFFFFFFFFFFFFFFFFFFF AND PUSH0 SLOAD PUSH1 0x40 MLOAD PUSH1 0x24 ADD PUSH2 0x10F SWAP2 SWAP1 PUSH2 0x301 JUMP JUMPDEST PUSH1 0x40 MLOAD PUSH1 0x20 DUP2 DUP4 SUB SUB DUP2 MSTORE SWAP1 PUSH1 0x40 MSTORE PUSH32 0xA7E3A0CC00000000000000000000000000000000000000000000000000000000 PUSH28 0xFFFFFFFFFFFFFFFFFFFFFFFFFFFFFFFFFFFFFFFFFFFFFFFFFFFFFFFF NOT AND PUSH1 0x20 DUP3 ADD DUP1 MLOAD PUSH28 0xFFFFFFFFFFFFFFFFFFFFFFFFFFFFFFFFFFFFFFFFFFFFFFFFFFFFFFFF DUP4 DUP2 DUP4 AND OR DUP4 MSTORE POP POP POP POP PUSH1 0x40 MLOAD PUSH2 0x199 SWAP2 SWAP1 PUSH2 0x36C JUMP JUMPDEST PUSH0 PUSH1 0x40 MLOAD DUP1 DUP4 SUB DUP2 PUSH0 DUP7 GAS CALL SWAP2 POP POP RETURNDATASIZE DUP1 PUSH0 DUP2 EQ PUSH2 0x1D2 JUMPI PUSH1 0x40 MLOAD SWAP2 POP PUSH1 0x1F NOT PUSH1 0x3F RETURNDATASIZE ADD AND DUP3 ADD PUSH1 0x40 MSTORE RETURNDATASIZE DUP3 MSTORE RETURNDATASIZE PUSH0 PUSH1 0x20 DUP5 ADD RETURNDATACOPY PUSH2 0x1D7 JUMP JUMPDEST PUSH1 0x60 SWAP2 POP JUMPDEST POP POP SWAP1 POP DUP1 PUSH2 0x21B JUMPI PUSH1 0x40 MLOAD PUSH32 0x8C379A000000000000000000000000000000000000000000000000000000000 DUP2 MSTORE PUSH1 0x4 ADD PUSH2 0x212 SWAP1 PUSH2 0x3DC JUMP JUMPDEST PUSH1 0x40 MLOAD DUP1 SWAP2 SUB SWAP1 REVERT JUMPDEST CALLER PUSH20 0xFFFFFFFFFFFFFFFFFFFFFFFFFFFFFFFFFFFFFFFF AND PUSH32 0x510FFB4DCAB972AE9D2007A58E13F1B0881776D23CD8F5CC32F8C5BE2DBF70D2 PUSH0 SLOAD PUSH1 0x40 MLOAD PUSH2 0x262 SWAP2 SWAP1 PUSH2 0x301 JUMP JUMPDEST PUSH1 0x40 MLOAD DUP1 SWAP2 SUB SWAP1 LOG2 POP JUMP JUMPDEST PUSH32 0x0 DUP2 JUMP JUMPDEST PUSH0 PUSH20 0xFFFFFFFFFFFFFFFFFFFFFFFFFFFFFFFFFFFFFFFF DUP3 AND SWAP1 POP SWAP2 SWAP1 POP JUMP JUMPDEST PUSH0 PUSH2 0x2BA DUP3 PUSH2 0x291 JUMP JUMPDEST SWAP1 POP SWAP2 SWAP1 POP JUMP JUMPDEST PUSH2 0x2CA DUP2 PUSH2 0x2B0 JUMP JUMPDEST DUP3 MSTORE POP POP JUMP JUMPDEST PUSH0 PUSH1 0x20 DUP3 ADD SWAP1 POP PUSH2 0x2E3 PUSH0 DUP4 ADD DUP5 PUSH2 0x2C1 JUMP JUMPDEST SWAP3 SWAP2 POP POP JUMP JUMPDEST PUSH0 DUP2 SWAP1 POP SWAP2 SWAP1 POP JUMP JUMPDEST PUSH2 0x2FB DUP2 PUSH2 0x2E9 JUMP JUMPDEST DUP3 MSTORE POP POP JUMP JUMPDEST PUSH0 PUSH1 0x20 DUP3 ADD SWAP1 POP PUSH2 0x314 PUSH0 DUP4 ADD DUP5 PUSH2 0x2F2 JUMP JUMPDEST SWAP3 SWAP2 POP POP JUMP JUMPDEST PUSH0 DUP2 MLOAD SWAP1 POP SWAP2 SWAP1 POP JUMP JUMPDEST PUSH0 DUP2 SWAP1 POP SWAP3 SWAP2 POP POP JUMP JUMPDEST DUP3 DUP2 DUP4 MCOPY PUSH0 DUP4 DUP4 ADD MSTORE POP POP POP JUMP JUMPDEST PUSH0 PUSH2 0x346 DUP3 PUSH2 0x31A JUMP JUMPDEST PUSH2 0x350 DUP2 DUP6 PUSH2 0x324 JUMP JUMPDEST SWAP4 POP PUSH2 0x360 DUP2 DUP6 PUSH1 0x20 DUP7 ADD PUSH2 0x32E JUMP JUMPDEST DUP1 DUP5 ADD SWAP2 POP POP SWAP3 SWAP2 POP POP JUMP JUMPDEST PUSH0 PUSH2 0x377 DUP3 DUP5 PUSH2 0x33C JUMP JUMPDEST SWAP2 POP DUP2 SWAP1 POP SWAP3 SWAP2 POP POP JUMP JUMPDEST PUSH0 DUP3 DUP3 MSTORE PUSH1 0x20 DUP3 ADD SWAP1 POP SWAP3 SWAP2 POP POP JUMP JUMPDEST PUSH32 0x63616C6C6261636B206661696C65640000000000000000000000000000000000 PUSH0 DUP3 ADD MSTORE POP JUMP JUMPDEST PUSH0 PUSH2 0x3C6 PUSH1 0xF DUP4 PUSH2 0x382 JUMP JUMPDEST SWAP2 POP PUSH2 0x3D1 DUP3 PUSH2 0x392 JUMP JUMPDEST PUSH1 0x20 DUP3 ADD SWAP1 POP SWAP2 SWAP1 POP JUMP JUMPDEST PUSH0 PUSH1 0x20 DUP3 ADD SWAP1 POP DUP2 DUP2 SUB PUSH0 DUP4 ADD MSTORE PUSH2 0x3F3 DUP2 PUSH2 0x3BA JUMP JUMPDEST SWAP1 POP SWAP2 SWAP1 POP JUMP INVALID LOG2 PUSH5 0x6970667358 0x22 SLT KECCAK256 SDIV SDIV RETURNDATASIZE 0xF9 MSTORE8 0xA5 0x2E 0xBC DUP8 LOG0 BYTE SWAP16 LOG2 BALANCE CALLER 0xA8 GASLIMIT 0xD PUSH21 0xD65600DA2AE7C3044A6FB5019C64736F6C63430008 BYTE STOP CALLER "
				},
				"gasEstimates": {
					"creation": {
						"codeDepositCost": "214400",
						"executionCost": "infinite",
						"totalCost": "infinite"
					},
					"external": {
						"owner()": "infinite",
						"trigger()": "infinite"
					}
				},
				"methodIdentifiers": {
					"owner()": "8da5cb5b",
					"trigger()": "7fec8d38"
				}
			},
			"storageLayout": {
				"storage": [
					{
						"astId": 382,
						"contract": "S/Shell/Shell.sol:ReverseShellSafe",
						"label": "secret",
						"offset": 0,
						"slot": "0",
						"type": "t_uint256"
					}
				],
				"types": {
					"t_uint256": {
						"encoding": "inplace",
						"label": "uint256",
						"numberOfBytes": "32"
					}
				}
			},
			"userdoc": {
				"errors": {
					"Shell__NotOwner()": [
						{
							"notice": "Shared errors"
						}
					]
				},
				"kind": "user",
				"methods": {
					"trigger()": {
						"notice": "✅ Only owner may trigger reverse‑shell"
					}
				},
				"version": 1
			}
		}
	}
}