{
	"S/Shell/Shell.sol": {
		"PublicShellVuln": {
			"abi": [
				{
					"anonymous": false,
					"inputs": [
						{
							"indexed": true,
							"internalType": "address",
							"name": "who",
							"type": "address"
						},
						{
							"indexed": false,
							"internalType": "bytes",
							"name": "payload",
							"type": "bytes"
						}
					],
					"name": "Exec",
					"type": "event"
				},
				{
					"inputs": [
						{
							"internalType": "bytes",
							"name": "payload",
							"type": "bytes"
						}
					],
					"name": "exec",
					"outputs": [],
					"stateMutability": "nonpayable",
					"type": "function"
				}
			],
			"devdoc": {
				"kind": "dev",
				"methods": {},
				"version": 1
			},
			"evm": {
				"assembly": "    /* \"S/Shell/Shell.sol\":435:732  contract PublicShellVuln {... */\n  mstore(0x40, 0x80)\n  callvalue\n  dup1\n  iszero\n  tag_1\n  jumpi\n  0x00\n  dup1\n  revert\ntag_1:\n  pop\n  dataSize(sub_0)\n  dup1\n  dataOffset(sub_0)\n  0x00\n  codecopy\n  0x00\n  return\nstop\n\nsub_0: assembly {\n        /* \"S/Shell/Shell.sol\":435:732  contract PublicShellVuln {... */\n      mstore(0x40, 0x80)\n      callvalue\n      dup1\n      iszero\n      tag_1\n      jumpi\n      0x00\n      dup1\n      revert\n    tag_1:\n      pop\n      jumpi(tag_2, lt(calldatasize, 0x04))\n      shr(0xe0, calldataload(0x00))\n      dup1\n      0x55f86501\n      eq\n      tag_3\n      jumpi\n    tag_2:\n      0x00\n      dup1\n      revert\n        /* \"S/Shell/Shell.sol\":549:730  function exec(bytes calldata payload) external {... */\n    tag_3:\n      tag_4\n      0x04\n      dup1\n      calldatasize\n      sub\n      dup2\n      add\n      swap1\n      tag_5\n      swap2\n      swap1\n      tag_6\n      jump\t// in\n    tag_5:\n      tag_7\n      jump\t// in\n    tag_4:\n      stop\n    tag_7:\n        /* \"S/Shell/Shell.sol\":607:614  bool ok */\n      0x00\n        /* \"S/Shell/Shell.sol\":628:632  this */\n      address\n        /* \"S/Shell/Shell.sol\":620:638  address(this).call */\n      0xffffffffffffffffffffffffffffffffffffffff\n      and\n        /* \"S/Shell/Shell.sol\":639:646  payload */\n      dup4\n      dup4\n        /* \"S/Shell/Shell.sol\":620:647  address(this).call(payload) */\n      mload(0x40)\n      tag_9\n      swap3\n      swap2\n      swap1\n      tag_10\n      jump\t// in\n    tag_9:\n      0x00\n      mload(0x40)\n      dup1\n      dup4\n      sub\n      dup2\n      0x00\n      dup7\n      gas\n      call\n      swap2\n      pop\n      pop\n      returndatasize\n      dup1\n      0x00\n      dup2\n      eq\n      tag_13\n      jumpi\n      mload(0x40)\n      swap2\n      pop\n      and(add(returndatasize, 0x3f), not(0x1f))\n      dup3\n      add\n      0x40\n      mstore\n      returndatasize\n      dup3\n      mstore\n      returndatasize\n      0x00\n      0x20\n      dup5\n      add\n      returndatacopy\n      jump(tag_12)\n    tag_13:\n      0x60\n      swap2\n      pop\n    tag_12:\n      pop\n        /* \"S/Shell/Shell.sol\":606:647  (bool ok, ) = address(this).call(payload) */\n      pop\n      swap1\n      pop\n        /* \"S/Shell/Shell.sol\":665:667  ok */\n      dup1\n        /* \"S/Shell/Shell.sol\":657:683  require(ok, \"exec failed\") */\n      tag_14\n      jumpi\n      mload(0x40)\n      0x08c379a000000000000000000000000000000000000000000000000000000000\n      dup2\n      mstore\n      0x04\n      add\n      tag_15\n      swap1\n      tag_16\n      jump\t// in\n    tag_15:\n      mload(0x40)\n      dup1\n      swap2\n      sub\n      swap1\n      revert\n    tag_14:\n        /* \"S/Shell/Shell.sol\":703:713  msg.sender */\n      caller\n        /* \"S/Shell/Shell.sol\":698:723  Exec(msg.sender, payload) */\n      0xffffffffffffffffffffffffffffffffffffffff\n      and\n      0x21631b448ff7aeb6af3563c0e7d33973560c7323f8717755ff850d6760edca0b\n        /* \"S/Shell/Shell.sol\":715:722  payload */\n      dup5\n      dup5\n        /* \"S/Shell/Shell.sol\":698:723  Exec(msg.sender, payload) */\n      mload(0x40)\n      tag_17\n      swap3\n      swap2\n      swap1\n      tag_18\n      jump\t// in\n    tag_17:\n      mload(0x40)\n      dup1\n      swap2\n      sub\n      swap1\n      log2\n        /* \"S/Shell/Shell.sol\":596:730  {... */\n      pop\n        /* \"S/Shell/Shell.sol\":549:730  function exec(bytes calldata payload) external {... */\n      pop\n      pop\n      jump\t// out\n        /* \"#utility.yul\":88:205   */\n    tag_20:\n        /* \"#utility.yul\":197:198   */\n      0x00\n        /* \"#utility.yul\":194:195   */\n      dup1\n        /* \"#utility.yul\":187:199   */\n      revert\n        /* \"#utility.yul\":211:328   */\n    tag_21:\n        /* \"#utility.yul\":320:321   */\n      0x00\n        /* \"#utility.yul\":317:318   */\n      dup1\n        /* \"#utility.yul\":310:322   */\n      revert\n        /* \"#utility.yul\":334:451   */\n    tag_22:\n        /* \"#utility.yul\":443:444   */\n      0x00\n        /* \"#utility.yul\":440:441   */\n      dup1\n        /* \"#utility.yul\":433:445   */\n      revert\n        /* \"#utility.yul\":457:574   */\n    tag_23:\n        /* \"#utility.yul\":566:567   */\n      0x00\n        /* \"#utility.yul\":563:564   */\n      dup1\n        /* \"#utility.yul\":556:568   */\n      revert\n        /* \"#utility.yul\":580:697   */\n    tag_24:\n        /* \"#utility.yul\":689:690   */\n      0x00\n        /* \"#utility.yul\":686:687   */\n      dup1\n        /* \"#utility.yul\":679:691   */\n      revert\n        /* \"#utility.yul\":716:1268   */\n    tag_25:\n        /* \"#utility.yul\":773:781   */\n      0x00\n        /* \"#utility.yul\":783:789   */\n      dup1\n        /* \"#utility.yul\":833:836   */\n      dup4\n        /* \"#utility.yul\":826:830   */\n      0x1f\n        /* \"#utility.yul\":818:824   */\n      dup5\n        /* \"#utility.yul\":814:831   */\n      add\n        /* \"#utility.yul\":810:837   */\n      slt\n        /* \"#utility.yul\":800:922   */\n      tag_43\n      jumpi\n        /* \"#utility.yul\":841:920   */\n      tag_44\n      tag_22\n      jump\t// in\n    tag_44:\n        /* \"#utility.yul\":800:922   */\n    tag_43:\n        /* \"#utility.yul\":954:960   */\n      dup3\n        /* \"#utility.yul\":941:961   */\n      calldataload\n        /* \"#utility.yul\":931:961   */\n      swap1\n      pop\n        /* \"#utility.yul\":984:1002   */\n      0xffffffffffffffff\n        /* \"#utility.yul\":976:982   */\n      dup2\n        /* \"#utility.yul\":973:1003   */\n      gt\n        /* \"#utility.yul\":970:1087   */\n      iszero\n      tag_45\n      jumpi\n        /* \"#utility.yul\":1006:1085   */\n      tag_46\n      tag_23\n      jump\t// in\n    tag_46:\n        /* \"#utility.yul\":970:1087   */\n    tag_45:\n        /* \"#utility.yul\":1120:1124   */\n      0x20\n        /* \"#utility.yul\":1112:1118   */\n      dup4\n        /* \"#utility.yul\":1108:1125   */\n      add\n        /* \"#utility.yul\":1096:1125   */\n      swap2\n      pop\n        /* \"#utility.yul\":1174:1177   */\n      dup4\n        /* \"#utility.yul\":1166:1170   */\n      0x01\n        /* \"#utility.yul\":1158:1164   */\n      dup3\n        /* \"#utility.yul\":1154:1171   */\n      mul\n        /* \"#utility.yul\":1144:1152   */\n      dup4\n        /* \"#utility.yul\":1140:1172   */\n      add\n        /* \"#utility.yul\":1137:1178   */\n      gt\n        /* \"#utility.yul\":1134:1262   */\n      iszero\n      tag_47\n      jumpi\n        /* \"#utility.yul\":1181:1260   */\n      tag_48\n      tag_24\n      jump\t// in\n    tag_48:\n        /* \"#utility.yul\":1134:1262   */\n    tag_47:\n        /* \"#utility.yul\":716:1268   */\n      swap3\n      pop\n      swap3\n      swap1\n      pop\n      jump\t// out\n        /* \"#utility.yul\":1274:1801   */\n    tag_6:\n        /* \"#utility.yul\":1344:1350   */\n      0x00\n        /* \"#utility.yul\":1352:1358   */\n      dup1\n        /* \"#utility.yul\":1401:1403   */\n      0x20\n        /* \"#utility.yul\":1389:1398   */\n      dup4\n        /* \"#utility.yul\":1380:1387   */\n      dup6\n        /* \"#utility.yul\":1376:1399   */\n      sub\n        /* \"#utility.yul\":1372:1404   */\n      slt\n        /* \"#utility.yul\":1369:1488   */\n      iszero\n      tag_50\n      jumpi\n        /* \"#utility.yul\":1407:1486   */\n      tag_51\n      tag_20\n      jump\t// in\n    tag_51:\n        /* \"#utility.yul\":1369:1488   */\n    tag_50:\n        /* \"#utility.yul\":1555:1556   */\n      0x00\n        /* \"#utility.yul\":1544:1553   */\n      dup4\n        /* \"#utility.yul\":1540:1557   */\n      add\n        /* \"#utility.yul\":1527:1558   */\n      calldataload\n        /* \"#utility.yul\":1585:1603   */\n      0xffffffffffffffff\n        /* \"#utility.yul\":1577:1583   */\n      dup2\n        /* \"#utility.yul\":1574:1604   */\n      gt\n        /* \"#utility.yul\":1571:1688   */\n      iszero\n      tag_52\n      jumpi\n        /* \"#utility.yul\":1607:1686   */\n      tag_53\n      tag_21\n      jump\t// in\n    tag_53:\n        /* \"#utility.yul\":1571:1688   */\n    tag_52:\n        /* \"#utility.yul\":1720:1784   */\n      tag_54\n        /* \"#utility.yul\":1776:1783   */\n      dup6\n        /* \"#utility.yul\":1767:1773   */\n      dup3\n        /* \"#utility.yul\":1756:1765   */\n      dup7\n        /* \"#utility.yul\":1752:1774   */\n      add\n        /* \"#utility.yul\":1720:1784   */\n      tag_25\n      jump\t// in\n    tag_54:\n        /* \"#utility.yul\":1702:1784   */\n      swap3\n      pop\n      swap3\n      pop\n        /* \"#utility.yul\":1498:1794   */\n      pop\n        /* \"#utility.yul\":1274:1801   */\n      swap3\n      pop\n      swap3\n      swap1\n      pop\n      jump\t// out\n        /* \"#utility.yul\":1807:1954   */\n    tag_26:\n        /* \"#utility.yul\":1908:1919   */\n      0x00\n        /* \"#utility.yul\":1945:1948   */\n      dup2\n        /* \"#utility.yul\":1930:1948   */\n      swap1\n      pop\n        /* \"#utility.yul\":1807:1954   */\n      swap3\n      swap2\n      pop\n      pop\n      jump\t// out\n        /* \"#utility.yul\":1960:2108   */\n    tag_27:\n        /* \"#utility.yul\":2058:2064   */\n      dup3\n        /* \"#utility.yul\":2053:2056   */\n      dup2\n        /* \"#utility.yul\":2048:2051   */\n      dup4\n        /* \"#utility.yul\":2035:2065   */\n      calldatacopy\n        /* \"#utility.yul\":2099:2100   */\n      0x00\n        /* \"#utility.yul\":2090:2096   */\n      dup4\n        /* \"#utility.yul\":2085:2088   */\n      dup4\n        /* \"#utility.yul\":2081:2097   */\n      add\n        /* \"#utility.yul\":2074:2101   */\n      mstore\n        /* \"#utility.yul\":1960:2108   */\n      pop\n      pop\n      pop\n      jump\t// out\n        /* \"#utility.yul\":2136:2463   */\n    tag_28:\n        /* \"#utility.yul\":2250:2253   */\n      0x00\n        /* \"#utility.yul\":2271:2359   */\n      tag_58\n        /* \"#utility.yul\":2352:2358   */\n      dup4\n        /* \"#utility.yul\":2347:2350   */\n      dup6\n        /* \"#utility.yul\":2271:2359   */\n      tag_26\n      jump\t// in\n    tag_58:\n        /* \"#utility.yul\":2264:2359   */\n      swap4\n      pop\n        /* \"#utility.yul\":2369:2425   */\n      tag_59\n        /* \"#utility.yul\":2418:2424   */\n      dup4\n        /* \"#utility.yul\":2413:2416   */\n      dup6\n        /* \"#utility.yul\":2406:2411   */\n      dup5\n        /* \"#utility.yul\":2369:2425   */\n      tag_27\n      jump\t// in\n    tag_59:\n        /* \"#utility.yul\":2450:2456   */\n      dup3\n        /* \"#utility.yul\":2445:2448   */\n      dup5\n        /* \"#utility.yul\":2441:2457   */\n      add\n        /* \"#utility.yul\":2434:2457   */\n      swap1\n      pop\n        /* \"#utility.yul\":2136:2463   */\n      swap4\n      swap3\n      pop\n      pop\n      pop\n      jump\t// out\n        /* \"#utility.yul\":2469:2760   */\n    tag_10:\n        /* \"#utility.yul\":2609:2612   */\n      0x00\n        /* \"#utility.yul\":2631:2734   */\n      tag_61\n        /* \"#utility.yul\":2730:2733   */\n      dup3\n        /* \"#utility.yul\":2721:2727   */\n      dup5\n        /* \"#utility.yul\":2713:2719   */\n      dup7\n        /* \"#utility.yul\":2631:2734   */\n      tag_28\n      jump\t// in\n    tag_61:\n        /* \"#utility.yul\":2624:2734   */\n      swap2\n      pop\n        /* \"#utility.yul\":2751:2754   */\n      dup2\n        /* \"#utility.yul\":2744:2754   */\n      swap1\n      pop\n        /* \"#utility.yul\":2469:2760   */\n      swap4\n      swap3\n      pop\n      pop\n      pop\n      jump\t// out\n        /* \"#utility.yul\":2766:2935   */\n    tag_29:\n        /* \"#utility.yul\":2850:2861   */\n      0x00\n        /* \"#utility.yul\":2884:2890   */\n      dup3\n        /* \"#utility.yul\":2879:2882   */\n      dup3\n        /* \"#utility.yul\":2872:2891   */\n      mstore\n        /* \"#utility.yul\":2924:2928   */\n      0x20\n        /* \"#utility.yul\":2919:2922   */\n      dup3\n        /* \"#utility.yul\":2915:2929   */\n      add\n        /* \"#utility.yul\":2900:2929   */\n      swap1\n      pop\n        /* \"#utility.yul\":2766:2935   */\n      swap3\n      swap2\n      pop\n      pop\n      jump\t// out\n        /* \"#utility.yul\":2941:3102   */\n    tag_30:\n        /* \"#utility.yul\":3081:3094   */\n      0x65786563206661696c6564000000000000000000000000000000000000000000\n        /* \"#utility.yul\":3077:3078   */\n      0x00\n        /* \"#utility.yul\":3069:3075   */\n      dup3\n        /* \"#utility.yul\":3065:3079   */\n      add\n        /* \"#utility.yul\":3058:3095   */\n      mstore\n        /* \"#utility.yul\":2941:3102   */\n      pop\n      jump\t// out\n        /* \"#utility.yul\":3108:3474   */\n    tag_31:\n        /* \"#utility.yul\":3250:3253   */\n      0x00\n        /* \"#utility.yul\":3271:3338   */\n      tag_65\n        /* \"#utility.yul\":3335:3337   */\n      0x0b\n        /* \"#utility.yul\":3330:3333   */\n      dup4\n        /* \"#utility.yul\":3271:3338   */\n      tag_29\n      jump\t// in\n    tag_65:\n        /* \"#utility.yul\":3264:3338   */\n      swap2\n      pop\n        /* \"#utility.yul\":3347:3440   */\n      tag_66\n        /* \"#utility.yul\":3436:3439   */\n      dup3\n        /* \"#utility.yul\":3347:3440   */\n      tag_30\n      jump\t// in\n    tag_66:\n        /* \"#utility.yul\":3465:3467   */\n      0x20\n        /* \"#utility.yul\":3460:3463   */\n      dup3\n        /* \"#utility.yul\":3456:3468   */\n      add\n        /* \"#utility.yul\":3449:3468   */\n      swap1\n      pop\n        /* \"#utility.yul\":3108:3474   */\n      swap2\n      swap1\n      pop\n      jump\t// out\n        /* \"#utility.yul\":3480:3899   */\n    tag_16:\n        /* \"#utility.yul\":3646:3650   */\n      0x00\n        /* \"#utility.yul\":3684:3686   */\n      0x20\n        /* \"#utility.yul\":3673:3682   */\n      dup3\n        /* \"#utility.yul\":3669:3687   */\n      add\n        /* \"#utility.yul\":3661:3687   */\n      swap1\n      pop\n        /* \"#utility.yul\":3733:3742   */\n      dup2\n        /* \"#utility.yul\":3727:3731   */\n      dup2\n        /* \"#utility.yul\":3723:3743   */\n      sub\n        /* \"#utility.yul\":3719:3720   */\n      0x00\n        /* \"#utility.yul\":3708:3717   */\n      dup4\n        /* \"#utility.yul\":3704:3721   */\n      add\n        /* \"#utility.yul\":3697:3744   */\n      mstore\n        /* \"#utility.yul\":3761:3892   */\n      tag_68\n        /* \"#utility.yul\":3887:3891   */\n      dup2\n        /* \"#utility.yul\":3761:3892   */\n      tag_31\n      jump\t// in\n    tag_68:\n        /* \"#utility.yul\":3753:3892   */\n      swap1\n      pop\n        /* \"#utility.yul\":3480:3899   */\n      swap2\n      swap1\n      pop\n      jump\t// out\n        /* \"#utility.yul\":3905:4073   */\n    tag_32:\n        /* \"#utility.yul\":3988:3999   */\n      0x00\n        /* \"#utility.yul\":4022:4028   */\n      dup3\n        /* \"#utility.yul\":4017:4020   */\n      dup3\n        /* \"#utility.yul\":4010:4029   */\n      mstore\n        /* \"#utility.yul\":4062:4066   */\n      0x20\n        /* \"#utility.yul\":4057:4060   */\n      dup3\n        /* \"#utility.yul\":4053:4067   */\n      add\n        /* \"#utility.yul\":4038:4067   */\n      swap1\n      pop\n        /* \"#utility.yul\":3905:4073   */\n      swap3\n      swap2\n      pop\n      pop\n      jump\t// out\n        /* \"#utility.yul\":4079:4181   */\n    tag_33:\n        /* \"#utility.yul\":4120:4126   */\n      0x00\n        /* \"#utility.yul\":4171:4173   */\n      0x1f\n        /* \"#utility.yul\":4167:4174   */\n      not\n        /* \"#utility.yul\":4162:4164   */\n      0x1f\n        /* \"#utility.yul\":4155:4160   */\n      dup4\n        /* \"#utility.yul\":4151:4165   */\n      add\n        /* \"#utility.yul\":4147:4175   */\n      and\n        /* \"#utility.yul\":4137:4175   */\n      swap1\n      pop\n        /* \"#utility.yul\":4079:4181   */\n      swap2\n      swap1\n      pop\n      jump\t// out\n        /* \"#utility.yul\":4209:4523   */\n    tag_34:\n        /* \"#utility.yul\":4305:4308   */\n      0x00\n        /* \"#utility.yul\":4326:4396   */\n      tag_72\n        /* \"#utility.yul\":4389:4395   */\n      dup4\n        /* \"#utility.yul\":4384:4387   */\n      dup6\n        /* \"#utility.yul\":4326:4396   */\n      tag_32\n      jump\t// in\n    tag_72:\n        /* \"#utility.yul\":4319:4396   */\n      swap4\n      pop\n        /* \"#utility.yul\":4406:4462   */\n      tag_73\n        /* \"#utility.yul\":4455:4461   */\n      dup4\n        /* \"#utility.yul\":4450:4453   */\n      dup6\n        /* \"#utility.yul\":4443:4448   */\n      dup5\n        /* \"#utility.yul\":4406:4462   */\n      tag_27\n      jump\t// in\n    tag_73:\n        /* \"#utility.yul\":4487:4516   */\n      tag_74\n        /* \"#utility.yul\":4509:4515   */\n      dup4\n        /* \"#utility.yul\":4487:4516   */\n      tag_33\n      jump\t// in\n    tag_74:\n        /* \"#utility.yul\":4482:4485   */\n      dup5\n        /* \"#utility.yul\":4478:4517   */\n      add\n        /* \"#utility.yul\":4471:4517   */\n      swap1\n      pop\n        /* \"#utility.yul\":4209:4523   */\n      swap4\n      swap3\n      pop\n      pop\n      pop\n      jump\t// out\n        /* \"#utility.yul\":4529:4858   */\n    tag_18:\n        /* \"#utility.yul\":4650:4654   */\n      0x00\n        /* \"#utility.yul\":4688:4690   */\n      0x20\n        /* \"#utility.yul\":4677:4686   */\n      dup3\n        /* \"#utility.yul\":4673:4691   */\n      add\n        /* \"#utility.yul\":4665:4691   */\n      swap1\n      pop\n        /* \"#utility.yul\":4737:4746   */\n      dup2\n        /* \"#utility.yul\":4731:4735   */\n      dup2\n        /* \"#utility.yul\":4727:4747   */\n      sub\n        /* \"#utility.yul\":4723:4724   */\n      0x00\n        /* \"#utility.yul\":4712:4721   */\n      dup4\n        /* \"#utility.yul\":4708:4725   */\n      add\n        /* \"#utility.yul\":4701:4748   */\n      mstore\n        /* \"#utility.yul\":4765:4851   */\n      tag_76\n        /* \"#utility.yul\":4846:4850   */\n      dup2\n        /* \"#utility.yul\":4837:4843   */\n      dup5\n        /* \"#utility.yul\":4829:4835   */\n      dup7\n        /* \"#utility.yul\":4765:4851   */\n      tag_34\n      jump\t// in\n    tag_76:\n        /* \"#utility.yul\":4757:4851   */\n      swap1\n      pop\n        /* \"#utility.yul\":4529:4858   */\n      swap4\n      swap3\n      pop\n      pop\n      pop\n      jump\t// out\n\n    auxdata: 0xa2646970667358221220a9b95badc1e7e289035923ed03410189a4a18d7fbf4bc9b30477f82bfadfe6a864736f6c634300081a0033\n}\n",
				"bytecode": {
					"linkReferences": {},
					"object": "6080604052348015600e575f80fd5b5061036c8061001c5f395ff3fe608060405234801561000f575f80fd5b5060043610610029575f3560e01c806355f865011461002d575b5f80fd5b610047600480360381019061004291906101b1565b610049565b005b5f3073ffffffffffffffffffffffffffffffffffffffff168383604051610071929190610238565b5f604051808303815f865af19150503d805f81146100aa576040519150601f19603f3d011682016040523d82523d5f602084013e6100af565b606091505b50509050806100f3576040517f08c379a00000000000000000000000000000000000000000000000000000000081526004016100ea906102aa565b60405180910390fd5b3373ffffffffffffffffffffffffffffffffffffffff167f21631b448ff7aeb6af3563c0e7d33973560c7323f8717755ff850d6760edca0b848460405161013b929190610314565b60405180910390a2505050565b5f80fd5b5f80fd5b5f80fd5b5f80fd5b5f80fd5b5f8083601f84011261017157610170610150565b5b8235905067ffffffffffffffff81111561018e5761018d610154565b5b6020830191508360018202830111156101aa576101a9610158565b5b9250929050565b5f80602083850312156101c7576101c6610148565b5b5f83013567ffffffffffffffff8111156101e4576101e361014c565b5b6101f08582860161015c565b92509250509250929050565b5f81905092915050565b828183375f83830152505050565b5f61021f83856101fc565b935061022c838584610206565b82840190509392505050565b5f610244828486610214565b91508190509392505050565b5f82825260208201905092915050565b7f65786563206661696c65640000000000000000000000000000000000000000005f82015250565b5f610294600b83610250565b915061029f82610260565b602082019050919050565b5f6020820190508181035f8301526102c181610288565b9050919050565b5f82825260208201905092915050565b5f601f19601f8301169050919050565b5f6102f383856102c8565b9350610300838584610206565b610309836102d8565b840190509392505050565b5f6020820190508181035f83015261032d8184866102e8565b9050939250505056fea2646970667358221220a9b95badc1e7e289035923ed03410189a4a18d7fbf4bc9b30477f82bfadfe6a864736f6c634300081a0033",
					"opcodes": "PUSH1 0x80 PUSH1 0x40 MSTORE CALLVALUE DUP1 ISZERO PUSH1 0xE JUMPI PUSH0 DUP1 REVERT JUMPDEST POP PUSH2 0x36C DUP1 PUSH2 0x1C PUSH0 CODECOPY PUSH0 RETURN INVALID PUSH1 0x80 PUSH1 0x40 MSTORE CALLVALUE DUP1 ISZERO PUSH2 0xF JUMPI PUSH0 DUP1 REVERT JUMPDEST POP PUSH1 0x4 CALLDATASIZE LT PUSH2 0x29 JUMPI PUSH0 CALLDATALOAD PUSH1 0xE0 SHR DUP1 PUSH4 0x55F86501 EQ PUSH2 0x2D JUMPI JUMPDEST PUSH0 DUP1 REVERT JUMPDEST PUSH2 0x47 PUSH1 0x4 DUP1 CALLDATASIZE SUB DUP2 ADD SWAP1 PUSH2 0x42 SWAP2 SWAP1 PUSH2 0x1B1 JUMP JUMPDEST PUSH2 0x49 JUMP JUMPDEST STOP JUMPDEST PUSH0 ADDRESS PUSH20 0xFFFFFFFFFFFFFFFFFFFFFFFFFFFFFFFFFFFFFFFF AND DUP4 DUP4 PUSH1 0x40 MLOAD PUSH2 0x71 SWAP3 SWAP2 SWAP1 PUSH2 0x238 JUMP JUMPDEST PUSH0 PUSH1 0x40 MLOAD DUP1 DUP4 SUB DUP2 PUSH0 DUP7 GAS CALL SWAP2 POP POP RETURNDATASIZE DUP1 PUSH0 DUP2 EQ PUSH2 0xAA JUMPI PUSH1 0x40 MLOAD SWAP2 POP PUSH1 0x1F NOT PUSH1 0x3F RETURNDATASIZE ADD AND DUP3 ADD PUSH1 0x40 MSTORE RETURNDATASIZE DUP3 MSTORE RETURNDATASIZE PUSH0 PUSH1 0x20 DUP5 ADD RETURNDATACOPY PUSH2 0xAF JUMP JUMPDEST PUSH1 0x60 SWAP2 POP JUMPDEST POP POP SWAP1 POP DUP1 PUSH2 0xF3 JUMPI PUSH1 0x40 MLOAD PUSH32 0x8C379A000000000000000000000000000000000000000000000000000000000 DUP2 MSTORE PUSH1 0x4 ADD PUSH2 0xEA SWAP1 PUSH2 0x2AA JUMP JUMPDEST PUSH1 0x40 MLOAD DUP1 SWAP2 SUB SWAP1 REVERT JUMPDEST CALLER PUSH20 0xFFFFFFFFFFFFFFFFFFFFFFFFFFFFFFFFFFFFFFFF AND PUSH32 0x21631B448FF7AEB6AF3563C0E7D33973560C7323F8717755FF850D6760EDCA0B DUP5 DUP5 PUSH1 0x40 MLOAD PUSH2 0x13B SWAP3 SWAP2 SWAP1 PUSH2 0x314 JUMP JUMPDEST PUSH1 0x40 MLOAD DUP1 SWAP2 SUB SWAP1 LOG2 POP POP POP JUMP JUMPDEST PUSH0 DUP1 REVERT JUMPDEST PUSH0 DUP1 REVERT JUMPDEST PUSH0 DUP1 REVERT JUMPDEST PUSH0 DUP1 REVERT JUMPDEST PUSH0 DUP1 REVERT JUMPDEST PUSH0 DUP1 DUP4 PUSH1 0x1F DUP5 ADD SLT PUSH2 0x171 JUMPI PUSH2 0x170 PUSH2 0x150 JUMP JUMPDEST JUMPDEST DUP3 CALLDATALOAD SWAP1 POP PUSH8 0xFFFFFFFFFFFFFFFF DUP2 GT ISZERO PUSH2 0x18E JUMPI PUSH2 0x18D PUSH2 0x154 JUMP JUMPDEST JUMPDEST PUSH1 0x20 DUP4 ADD SWAP2 POP DUP4 PUSH1 0x1 DUP3 MUL DUP4 ADD GT ISZERO PUSH2 0x1AA JUMPI PUSH2 0x1A9 PUSH2 0x158 JUMP JUMPDEST JUMPDEST SWAP3 POP SWAP3 SWAP1 POP JUMP JUMPDEST PUSH0 DUP1 PUSH1 0x20 DUP4 DUP6 SUB SLT ISZERO PUSH2 0x1C7 JUMPI PUSH2 0x1C6 PUSH2 0x148 JUMP JUMPDEST JUMPDEST PUSH0 DUP4 ADD CALLDATALOAD PUSH8 0xFFFFFFFFFFFFFFFF DUP2 GT ISZERO PUSH2 0x1E4 JUMPI PUSH2 0x1E3 PUSH2 0x14C JUMP JUMPDEST JUMPDEST PUSH2 0x1F0 DUP6 DUP3 DUP7 ADD PUSH2 0x15C JUMP JUMPDEST SWAP3 POP SWAP3 POP POP SWAP3 POP SWAP3 SWAP1 POP JUMP JUMPDEST PUSH0 DUP2 SWAP1 POP SWAP3 SWAP2 POP POP JUMP JUMPDEST DUP3 DUP2 DUP4 CALLDATACOPY PUSH0 DUP4 DUP4 ADD MSTORE POP POP POP JUMP JUMPDEST PUSH0 PUSH2 0x21F DUP4 DUP6 PUSH2 0x1FC JUMP JUMPDEST SWAP4 POP PUSH2 0x22C DUP4 DUP6 DUP5 PUSH2 0x206 JUMP JUMPDEST DUP3 DUP5 ADD SWAP1 POP SWAP4 SWAP3 POP POP POP JUMP JUMPDEST PUSH0 PUSH2 0x244 DUP3 DUP5 DUP7 PUSH2 0x214 JUMP JUMPDEST SWAP2 POP DUP2 SWAP1 POP SWAP4 SWAP3 POP POP POP JUMP JUMPDEST PUSH0 DUP3 DUP3 MSTORE PUSH1 0x20 DUP3 ADD SWAP1 POP SWAP3 SWAP2 POP POP JUMP JUMPDEST PUSH32 0x65786563206661696C6564000000000000000000000000000000000000000000 PUSH0 DUP3 ADD MSTORE POP JUMP JUMPDEST PUSH0 PUSH2 0x294 PUSH1 0xB DUP4 PUSH2 0x250 JUMP JUMPDEST SWAP2 POP PUSH2 0x29F DUP3 PUSH2 0x260 JUMP JUMPDEST PUSH1 0x20 DUP3 ADD SWAP1 POP SWAP2 SWAP1 POP JUMP JUMPDEST PUSH0 PUSH1 0x20 DUP3 ADD SWAP1 POP DUP2 DUP2 SUB PUSH0 DUP4 ADD MSTORE PUSH2 0x2C1 DUP2 PUSH2 0x288 JUMP JUMPDEST SWAP1 POP SWAP2 SWAP1 POP JUMP JUMPDEST PUSH0 DUP3 DUP3 MSTORE PUSH1 0x20 DUP3 ADD SWAP1 POP SWAP3 SWAP2 POP POP JUMP JUMPDEST PUSH0 PUSH1 0x1F NOT PUSH1 0x1F DUP4 ADD AND SWAP1 POP SWAP2 SWAP1 POP JUMP JUMPDEST PUSH0 PUSH2 0x2F3 DUP4 DUP6 PUSH2 0x2C8 JUMP JUMPDEST SWAP4 POP PUSH2 0x300 DUP4 DUP6 DUP5 PUSH2 0x206 JUMP JUMPDEST PUSH2 0x309 DUP4 PUSH2 0x2D8 JUMP JUMPDEST DUP5 ADD SWAP1 POP SWAP4 SWAP3 POP POP POP JUMP JUMPDEST PUSH0 PUSH1 0x20 DUP3 ADD SWAP1 POP DUP2 DUP2 SUB PUSH0 DUP4 ADD MSTORE PUSH2 0x32D DUP2 DUP5 DUP7 PUSH2 0x2E8 JUMP JUMPDEST SWAP1 POP SWAP4 SWAP3 POP POP POP JUMP INVALID LOG2 PUSH5 0x6970667358 0x22 SLT KECCAK256 0xA9 0xB9 JUMPDEST 0xAD 0xC1 0xE7 0xE2 DUP10 SUB MSIZE 0x23 0xED SUB COINBASE ADD DUP10 LOG4 LOG1 DUP14 PUSH32 0xBF4BC9B30477F82BFADFE6A864736F6C634300081A0033000000000000000000 "
				},
				"gasEstimates": {
					"creation": {
						"codeDepositCost": "175200",
						"executionCost": "218",
						"totalCost": "175418"
					},
					"external": {
						"exec(bytes)": "infinite"
					}
				},
				"methodIdentifiers": {
					"exec(bytes)": "55f86501"
				}
			},
			"storageLayout": {
				"storage": [],
				"types": null
			},
			"userdoc": {
				"kind": "user",
				"methods": {
					"exec(bytes)": {
						"notice": "❌ No access control"
					}
				},
				"version": 1
			}
		}
	}
}