{
	"S/Shell/Shell.sol": {
		"PublicShellSafe": {
			"abi": [
				{
					"inputs": [],
					"stateMutability": "nonpayable",
					"type": "constructor"
				},
				{
					"inputs": [],
					"name": "Shell__NotOwner",
					"type": "error"
				},
				{
					"anonymous": false,
					"inputs": [
						{
							"indexed": true,
							"internalType": "address",
							"name": "who",
							"type": "address"
						},
						{
							"indexed": false,
							"internalType": "bytes",
							"name": "payload",
							"type": "bytes"
						}
					],
					"name": "Exec",
					"type": "event"
				},
				{
					"inputs": [
						{
							"internalType": "bytes",
							"name": "payload",
							"type": "bytes"
						}
					],
					"name": "exec",
					"outputs": [],
					"stateMutability": "nonpayable",
					"type": "function"
				},
				{
					"inputs": [],
					"name": "owner",
					"outputs": [
						{
							"internalType": "address",
							"name": "",
							"type": "address"
						}
					],
					"stateMutability": "view",
					"type": "function"
				}
			],
			"devdoc": {
				"kind": "dev",
				"methods": {},
				"version": 1
			},
			"evm": {
				"assembly": "    /* \"S/Shell/Shell.sol\":1101:1538  contract PublicShellSafe {... */\n  mstore(0x40, 0xa0)\n    /* \"S/Shell/Shell.sol\":1221:1258  constructor() { owner = msg.sender; } */\n  callvalue\n  dup1\n  iszero\n  tag_1\n  jumpi\n  0x00\n  dup1\n  revert\ntag_1:\n  pop\n    /* \"S/Shell/Shell.sol\":1245:1255  msg.sender */\n  caller\n    /* \"S/Shell/Shell.sol\":1237:1255  owner = msg.sender */\n  0xffffffffffffffffffffffffffffffffffffffff\n  and\n  0x80\n  dup2\n  0xffffffffffffffffffffffffffffffffffffffff\n  and\n  dup2\n  mstore\n  pop\n  pop\n    /* \"S/Shell/Shell.sol\":1101:1538  contract PublicShellSafe {... */\n  mload(0x80)\n  codecopy(0x00, dataOffset(sub_0), dataSize(sub_0))\n  0x00\n  assignImmutable(\"0x5392f7a671cdf89487ccf8e3646ea8f7570009490584962db6fa064c6e4ad499\")\n  return(0x00, dataSize(sub_0))\nstop\n\nsub_0: assembly {\n        /* \"S/Shell/Shell.sol\":1101:1538  contract PublicShellSafe {... */\n      mstore(0x40, 0x80)\n      callvalue\n      dup1\n      iszero\n      tag_1\n      jumpi\n      0x00\n      dup1\n      revert\n    tag_1:\n      pop\n      jumpi(tag_2, lt(calldatasize, 0x04))\n      shr(0xe0, calldataload(0x00))\n      dup1\n      0x55f86501\n      eq\n      tag_3\n      jumpi\n      dup1\n      0x8da5cb5b\n      eq\n      tag_4\n      jumpi\n    tag_2:\n      0x00\n      dup1\n      revert\n        /* \"S/Shell/Shell.sol\":1296:1536  function exec(bytes calldata payload) external {... */\n    tag_3:\n      tag_5\n      0x04\n      dup1\n      calldatasize\n      sub\n      dup2\n      add\n      swap1\n      tag_6\n      swap2\n      swap1\n      tag_7\n      jump\t// in\n    tag_6:\n      tag_8\n      jump\t// in\n    tag_5:\n      stop\n        /* \"S/Shell/Shell.sol\":1132:1162  address public immutable owner */\n    tag_4:\n      tag_9\n      tag_10\n      jump\t// in\n    tag_9:\n      mload(0x40)\n      tag_11\n      swap2\n      swap1\n      tag_12\n      jump\t// in\n    tag_11:\n      mload(0x40)\n      dup1\n      swap2\n      sub\n      swap1\n      return\n        /* \"S/Shell/Shell.sol\":1296:1536  function exec(bytes calldata payload) external {... */\n    tag_8:\n        /* \"S/Shell/Shell.sol\":1371:1376  owner */\n      immutable(\"0x5392f7a671cdf89487ccf8e3646ea8f7570009490584962db6fa064c6e4ad499\")\n        /* \"S/Shell/Shell.sol\":1357:1376  msg.sender != owner */\n      0xffffffffffffffffffffffffffffffffffffffff\n      and\n        /* \"S/Shell/Shell.sol\":1357:1367  msg.sender */\n      caller\n        /* \"S/Shell/Shell.sol\":1357:1376  msg.sender != owner */\n      0xffffffffffffffffffffffffffffffffffffffff\n      and\n      eq\n        /* \"S/Shell/Shell.sol\":1353:1402  if (msg.sender != owner) revert Shell__NotOwner() */\n      tag_14\n      jumpi\n        /* \"S/Shell/Shell.sol\":1385:1402  Shell__NotOwner() */\n      mload(0x40)\n      0xde1e8bd500000000000000000000000000000000000000000000000000000000\n      dup2\n      mstore\n      0x04\n      add\n      mload(0x40)\n      dup1\n      swap2\n      sub\n      swap1\n      revert\n        /* \"S/Shell/Shell.sol\":1353:1402  if (msg.sender != owner) revert Shell__NotOwner() */\n    tag_14:\n        /* \"S/Shell/Shell.sol\":1413:1420  bool ok */\n      0x00\n        /* \"S/Shell/Shell.sol\":1434:1438  this */\n      address\n        /* \"S/Shell/Shell.sol\":1426:1444  address(this).call */\n      0xffffffffffffffffffffffffffffffffffffffff\n      and\n        /* \"S/Shell/Shell.sol\":1445:1452  payload */\n      dup4\n      dup4\n        /* \"S/Shell/Shell.sol\":1426:1453  address(this).call(payload) */\n      mload(0x40)\n      tag_15\n      swap3\n      swap2\n      swap1\n      tag_16\n      jump\t// in\n    tag_15:\n      0x00\n      mload(0x40)\n      dup1\n      dup4\n      sub\n      dup2\n      0x00\n      dup7\n      gas\n      call\n      swap2\n      pop\n      pop\n      returndatasize\n      dup1\n      0x00\n      dup2\n      eq\n      tag_19\n      jumpi\n      mload(0x40)\n      swap2\n      pop\n      and(add(returndatasize, 0x3f), not(0x1f))\n      dup3\n      add\n      0x40\n      mstore\n      returndatasize\n      dup3\n      mstore\n      returndatasize\n      0x00\n      0x20\n      dup5\n      add\n      returndatacopy\n      jump(tag_18)\n    tag_19:\n      0x60\n      swap2\n      pop\n    tag_18:\n      pop\n        /* \"S/Shell/Shell.sol\":1412:1453  (bool ok, ) = address(this).call(payload) */\n      pop\n      swap1\n      pop\n        /* \"S/Shell/Shell.sol\":1471:1473  ok */\n      dup1\n        /* \"S/Shell/Shell.sol\":1463:1489  require(ok, \"exec failed\") */\n      tag_20\n      jumpi\n      mload(0x40)\n      0x08c379a000000000000000000000000000000000000000000000000000000000\n      dup2\n      mstore\n      0x04\n      add\n      tag_21\n      swap1\n      tag_22\n      jump\t// in\n    tag_21:\n      mload(0x40)\n      dup1\n      swap2\n      sub\n      swap1\n      revert\n    tag_20:\n        /* \"S/Shell/Shell.sol\":1509:1519  msg.sender */\n      caller\n        /* \"S/Shell/Shell.sol\":1504:1529  Exec(msg.sender, payload) */\n      0xffffffffffffffffffffffffffffffffffffffff\n      and\n      0x21631b448ff7aeb6af3563c0e7d33973560c7323f8717755ff850d6760edca0b\n        /* \"S/Shell/Shell.sol\":1521:1528  payload */\n      dup5\n      dup5\n        /* \"S/Shell/Shell.sol\":1504:1529  Exec(msg.sender, payload) */\n      mload(0x40)\n      tag_23\n      swap3\n      swap2\n      swap1\n      tag_24\n      jump\t// in\n    tag_23:\n      mload(0x40)\n      dup1\n      swap2\n      sub\n      swap1\n      log2\n        /* \"S/Shell/Shell.sol\":1343:1536  {... */\n      pop\n        /* \"S/Shell/Shell.sol\":1296:1536  function exec(bytes calldata payload) external {... */\n      pop\n      pop\n      jump\t// out\n        /* \"S/Shell/Shell.sol\":1132:1162  address public immutable owner */\n    tag_10:\n      immutable(\"0x5392f7a671cdf89487ccf8e3646ea8f7570009490584962db6fa064c6e4ad499\")\n      dup2\n      jump\t// out\n        /* \"#utility.yul\":88:205   */\n    tag_26:\n        /* \"#utility.yul\":197:198   */\n      0x00\n        /* \"#utility.yul\":194:195   */\n      dup1\n        /* \"#utility.yul\":187:199   */\n      revert\n        /* \"#utility.yul\":211:328   */\n    tag_27:\n        /* \"#utility.yul\":320:321   */\n      0x00\n        /* \"#utility.yul\":317:318   */\n      dup1\n        /* \"#utility.yul\":310:322   */\n      revert\n        /* \"#utility.yul\":334:451   */\n    tag_28:\n        /* \"#utility.yul\":443:444   */\n      0x00\n        /* \"#utility.yul\":440:441   */\n      dup1\n        /* \"#utility.yul\":433:445   */\n      revert\n        /* \"#utility.yul\":457:574   */\n    tag_29:\n        /* \"#utility.yul\":566:567   */\n      0x00\n        /* \"#utility.yul\":563:564   */\n      dup1\n        /* \"#utility.yul\":556:568   */\n      revert\n        /* \"#utility.yul\":580:697   */\n    tag_30:\n        /* \"#utility.yul\":689:690   */\n      0x00\n        /* \"#utility.yul\":686:687   */\n      dup1\n        /* \"#utility.yul\":679:691   */\n      revert\n        /* \"#utility.yul\":716:1268   */\n    tag_31:\n        /* \"#utility.yul\":773:781   */\n      0x00\n        /* \"#utility.yul\":783:789   */\n      dup1\n        /* \"#utility.yul\":833:836   */\n      dup4\n        /* \"#utility.yul\":826:830   */\n      0x1f\n        /* \"#utility.yul\":818:824   */\n      dup5\n        /* \"#utility.yul\":814:831   */\n      add\n        /* \"#utility.yul\":810:837   */\n      slt\n        /* \"#utility.yul\":800:922   */\n      tag_52\n      jumpi\n        /* \"#utility.yul\":841:920   */\n      tag_53\n      tag_28\n      jump\t// in\n    tag_53:\n        /* \"#utility.yul\":800:922   */\n    tag_52:\n        /* \"#utility.yul\":954:960   */\n      dup3\n        /* \"#utility.yul\":941:961   */\n      calldataload\n        /* \"#utility.yul\":931:961   */\n      swap1\n      pop\n        /* \"#utility.yul\":984:1002   */\n      0xffffffffffffffff\n        /* \"#utility.yul\":976:982   */\n      dup2\n        /* \"#utility.yul\":973:1003   */\n      gt\n        /* \"#utility.yul\":970:1087   */\n      iszero\n      tag_54\n      jumpi\n        /* \"#utility.yul\":1006:1085   */\n      tag_55\n      tag_29\n      jump\t// in\n    tag_55:\n        /* \"#utility.yul\":970:1087   */\n    tag_54:\n        /* \"#utility.yul\":1120:1124   */\n      0x20\n        /* \"#utility.yul\":1112:1118   */\n      dup4\n        /* \"#utility.yul\":1108:1125   */\n      add\n        /* \"#utility.yul\":1096:1125   */\n      swap2\n      pop\n        /* \"#utility.yul\":1174:1177   */\n      dup4\n        /* \"#utility.yul\":1166:1170   */\n      0x01\n        /* \"#utility.yul\":1158:1164   */\n      dup3\n        /* \"#utility.yul\":1154:1171   */\n      mul\n        /* \"#utility.yul\":1144:1152   */\n      dup4\n        /* \"#utility.yul\":1140:1172   */\n      add\n        /* \"#utility.yul\":1137:1178   */\n      gt\n        /* \"#utility.yul\":1134:1262   */\n      iszero\n      tag_56\n      jumpi\n        /* \"#utility.yul\":1181:1260   */\n      tag_57\n      tag_30\n      jump\t// in\n    tag_57:\n        /* \"#utility.yul\":1134:1262   */\n    tag_56:\n        /* \"#utility.yul\":716:1268   */\n      swap3\n      pop\n      swap3\n      swap1\n      pop\n      jump\t// out\n        /* \"#utility.yul\":1274:1801   */\n    tag_7:\n        /* \"#utility.yul\":1344:1350   */\n      0x00\n        /* \"#utility.yul\":1352:1358   */\n      dup1\n        /* \"#utility.yul\":1401:1403   */\n      0x20\n        /* \"#utility.yul\":1389:1398   */\n      dup4\n        /* \"#utility.yul\":1380:1387   */\n      dup6\n        /* \"#utility.yul\":1376:1399   */\n      sub\n        /* \"#utility.yul\":1372:1404   */\n      slt\n        /* \"#utility.yul\":1369:1488   */\n      iszero\n      tag_59\n      jumpi\n        /* \"#utility.yul\":1407:1486   */\n      tag_60\n      tag_26\n      jump\t// in\n    tag_60:\n        /* \"#utility.yul\":1369:1488   */\n    tag_59:\n        /* \"#utility.yul\":1555:1556   */\n      0x00\n        /* \"#utility.yul\":1544:1553   */\n      dup4\n        /* \"#utility.yul\":1540:1557   */\n      add\n        /* \"#utility.yul\":1527:1558   */\n      calldataload\n        /* \"#utility.yul\":1585:1603   */\n      0xffffffffffffffff\n        /* \"#utility.yul\":1577:1583   */\n      dup2\n        /* \"#utility.yul\":1574:1604   */\n      gt\n        /* \"#utility.yul\":1571:1688   */\n      iszero\n      tag_61\n      jumpi\n        /* \"#utility.yul\":1607:1686   */\n      tag_62\n      tag_27\n      jump\t// in\n    tag_62:\n        /* \"#utility.yul\":1571:1688   */\n    tag_61:\n        /* \"#utility.yul\":1720:1784   */\n      tag_63\n        /* \"#utility.yul\":1776:1783   */\n      dup6\n        /* \"#utility.yul\":1767:1773   */\n      dup3\n        /* \"#utility.yul\":1756:1765   */\n      dup7\n        /* \"#utility.yul\":1752:1774   */\n      add\n        /* \"#utility.yul\":1720:1784   */\n      tag_31\n      jump\t// in\n    tag_63:\n        /* \"#utility.yul\":1702:1784   */\n      swap3\n      pop\n      swap3\n      pop\n        /* \"#utility.yul\":1498:1794   */\n      pop\n        /* \"#utility.yul\":1274:1801   */\n      swap3\n      pop\n      swap3\n      swap1\n      pop\n      jump\t// out\n        /* \"#utility.yul\":1807:1933   */\n    tag_32:\n        /* \"#utility.yul\":1844:1851   */\n      0x00\n        /* \"#utility.yul\":1884:1926   */\n      0xffffffffffffffffffffffffffffffffffffffff\n        /* \"#utility.yul\":1877:1882   */\n      dup3\n        /* \"#utility.yul\":1873:1927   */\n      and\n        /* \"#utility.yul\":1862:1927   */\n      swap1\n      pop\n        /* \"#utility.yul\":1807:1933   */\n      swap2\n      swap1\n      pop\n      jump\t// out\n        /* \"#utility.yul\":1939:2035   */\n    tag_33:\n        /* \"#utility.yul\":1976:1983   */\n      0x00\n        /* \"#utility.yul\":2005:2029   */\n      tag_66\n        /* \"#utility.yul\":2023:2028   */\n      dup3\n        /* \"#utility.yul\":2005:2029   */\n      tag_32\n      jump\t// in\n    tag_66:\n        /* \"#utility.yul\":1994:2029   */\n      swap1\n      pop\n        /* \"#utility.yul\":1939:2035   */\n      swap2\n      swap1\n      pop\n      jump\t// out\n        /* \"#utility.yul\":2041:2159   */\n    tag_34:\n        /* \"#utility.yul\":2128:2152   */\n      tag_68\n        /* \"#utility.yul\":2146:2151   */\n      dup2\n        /* \"#utility.yul\":2128:2152   */\n      tag_33\n      jump\t// in\n    tag_68:\n        /* \"#utility.yul\":2123:2126   */\n      dup3\n        /* \"#utility.yul\":2116:2153   */\n      mstore\n        /* \"#utility.yul\":2041:2159   */\n      pop\n      pop\n      jump\t// out\n        /* \"#utility.yul\":2165:2387   */\n    tag_12:\n        /* \"#utility.yul\":2258:2262   */\n      0x00\n        /* \"#utility.yul\":2296:2298   */\n      0x20\n        /* \"#utility.yul\":2285:2294   */\n      dup3\n        /* \"#utility.yul\":2281:2299   */\n      add\n        /* \"#utility.yul\":2273:2299   */\n      swap1\n      pop\n        /* \"#utility.yul\":2309:2380   */\n      tag_70\n        /* \"#utility.yul\":2377:2378   */\n      0x00\n        /* \"#utility.yul\":2366:2375   */\n      dup4\n        /* \"#utility.yul\":2362:2379   */\n      add\n        /* \"#utility.yul\":2353:2359   */\n      dup5\n        /* \"#utility.yul\":2309:2380   */\n      tag_34\n      jump\t// in\n    tag_70:\n        /* \"#utility.yul\":2165:2387   */\n      swap3\n      swap2\n      pop\n      pop\n      jump\t// out\n        /* \"#utility.yul\":2393:2540   */\n    tag_35:\n        /* \"#utility.yul\":2494:2505   */\n      0x00\n        /* \"#utility.yul\":2531:2534   */\n      dup2\n        /* \"#utility.yul\":2516:2534   */\n      swap1\n      pop\n        /* \"#utility.yul\":2393:2540   */\n      swap3\n      swap2\n      pop\n      pop\n      jump\t// out\n        /* \"#utility.yul\":2546:2694   */\n    tag_36:\n        /* \"#utility.yul\":2644:2650   */\n      dup3\n        /* \"#utility.yul\":2639:2642   */\n      dup2\n        /* \"#utility.yul\":2634:2637   */\n      dup4\n        /* \"#utility.yul\":2621:2651   */\n      calldatacopy\n        /* \"#utility.yul\":2685:2686   */\n      0x00\n        /* \"#utility.yul\":2676:2682   */\n      dup4\n        /* \"#utility.yul\":2671:2674   */\n      dup4\n        /* \"#utility.yul\":2667:2683   */\n      add\n        /* \"#utility.yul\":2660:2687   */\n      mstore\n        /* \"#utility.yul\":2546:2694   */\n      pop\n      pop\n      pop\n      jump\t// out\n        /* \"#utility.yul\":2722:3049   */\n    tag_37:\n        /* \"#utility.yul\":2836:2839   */\n      0x00\n        /* \"#utility.yul\":2857:2945   */\n      tag_74\n        /* \"#utility.yul\":2938:2944   */\n      dup4\n        /* \"#utility.yul\":2933:2936   */\n      dup6\n        /* \"#utility.yul\":2857:2945   */\n      tag_35\n      jump\t// in\n    tag_74:\n        /* \"#utility.yul\":2850:2945   */\n      swap4\n      pop\n        /* \"#utility.yul\":2955:3011   */\n      tag_75\n        /* \"#utility.yul\":3004:3010   */\n      dup4\n        /* \"#utility.yul\":2999:3002   */\n      dup6\n        /* \"#utility.yul\":2992:2997   */\n      dup5\n        /* \"#utility.yul\":2955:3011   */\n      tag_36\n      jump\t// in\n    tag_75:\n        /* \"#utility.yul\":3036:3042   */\n      dup3\n        /* \"#utility.yul\":3031:3034   */\n      dup5\n        /* \"#utility.yul\":3027:3043   */\n      add\n        /* \"#utility.yul\":3020:3043   */\n      swap1\n      pop\n        /* \"#utility.yul\":2722:3049   */\n      swap4\n      swap3\n      pop\n      pop\n      pop\n      jump\t// out\n        /* \"#utility.yul\":3055:3346   */\n    tag_16:\n        /* \"#utility.yul\":3195:3198   */\n      0x00\n        /* \"#utility.yul\":3217:3320   */\n      tag_77\n        /* \"#utility.yul\":3316:3319   */\n      dup3\n        /* \"#utility.yul\":3307:3313   */\n      dup5\n        /* \"#utility.yul\":3299:3305   */\n      dup7\n        /* \"#utility.yul\":3217:3320   */\n      tag_37\n      jump\t// in\n    tag_77:\n        /* \"#utility.yul\":3210:3320   */\n      swap2\n      pop\n        /* \"#utility.yul\":3337:3340   */\n      dup2\n        /* \"#utility.yul\":3330:3340   */\n      swap1\n      pop\n        /* \"#utility.yul\":3055:3346   */\n      swap4\n      swap3\n      pop\n      pop\n      pop\n      jump\t// out\n        /* \"#utility.yul\":3352:3521   */\n    tag_38:\n        /* \"#utility.yul\":3436:3447   */\n      0x00\n        /* \"#utility.yul\":3470:3476   */\n      dup3\n        /* \"#utility.yul\":3465:3468   */\n      dup3\n        /* \"#utility.yul\":3458:3477   */\n      mstore\n        /* \"#utility.yul\":3510:3514   */\n      0x20\n        /* \"#utility.yul\":3505:3508   */\n      dup3\n        /* \"#utility.yul\":3501:3515   */\n      add\n        /* \"#utility.yul\":3486:3515   */\n      swap1\n      pop\n        /* \"#utility.yul\":3352:3521   */\n      swap3\n      swap2\n      pop\n      pop\n      jump\t// out\n        /* \"#utility.yul\":3527:3688   */\n    tag_39:\n        /* \"#utility.yul\":3667:3680   */\n      0x65786563206661696c6564000000000000000000000000000000000000000000\n        /* \"#utility.yul\":3663:3664   */\n      0x00\n        /* \"#utility.yul\":3655:3661   */\n      dup3\n        /* \"#utility.yul\":3651:3665   */\n      add\n        /* \"#utility.yul\":3644:3681   */\n      mstore\n        /* \"#utility.yul\":3527:3688   */\n      pop\n      jump\t// out\n        /* \"#utility.yul\":3694:4060   */\n    tag_40:\n        /* \"#utility.yul\":3836:3839   */\n      0x00\n        /* \"#utility.yul\":3857:3924   */\n      tag_81\n        /* \"#utility.yul\":3921:3923   */\n      0x0b\n        /* \"#utility.yul\":3916:3919   */\n      dup4\n        /* \"#utility.yul\":3857:3924   */\n      tag_38\n      jump\t// in\n    tag_81:\n        /* \"#utility.yul\":3850:3924   */\n      swap2\n      pop\n        /* \"#utility.yul\":3933:4026   */\n      tag_82\n        /* \"#utility.yul\":4022:4025   */\n      dup3\n        /* \"#utility.yul\":3933:4026   */\n      tag_39\n      jump\t// in\n    tag_82:\n        /* \"#utility.yul\":4051:4053   */\n      0x20\n        /* \"#utility.yul\":4046:4049   */\n      dup3\n        /* \"#utility.yul\":4042:4054   */\n      add\n        /* \"#utility.yul\":4035:4054   */\n      swap1\n      pop\n        /* \"#utility.yul\":3694:4060   */\n      swap2\n      swap1\n      pop\n      jump\t// out\n        /* \"#utility.yul\":4066:4485   */\n    tag_22:\n        /* \"#utility.yul\":4232:4236   */\n      0x00\n        /* \"#utility.yul\":4270:4272   */\n      0x20\n        /* \"#utility.yul\":4259:4268   */\n      dup3\n        /* \"#utility.yul\":4255:4273   */\n      add\n        /* \"#utility.yul\":4247:4273   */\n      swap1\n      pop\n        /* \"#utility.yul\":4319:4328   */\n      dup2\n        /* \"#utility.yul\":4313:4317   */\n      dup2\n        /* \"#utility.yul\":4309:4329   */\n      sub\n        /* \"#utility.yul\":4305:4306   */\n      0x00\n        /* \"#utility.yul\":4294:4303   */\n      dup4\n        /* \"#utility.yul\":4290:4307   */\n      add\n        /* \"#utility.yul\":4283:4330   */\n      mstore\n        /* \"#utility.yul\":4347:4478   */\n      tag_84\n        /* \"#utility.yul\":4473:4477   */\n      dup2\n        /* \"#utility.yul\":4347:4478   */\n      tag_40\n      jump\t// in\n    tag_84:\n        /* \"#utility.yul\":4339:4478   */\n      swap1\n      pop\n        /* \"#utility.yul\":4066:4485   */\n      swap2\n      swap1\n      pop\n      jump\t// out\n        /* \"#utility.yul\":4491:4659   */\n    tag_41:\n        /* \"#utility.yul\":4574:4585   */\n      0x00\n        /* \"#utility.yul\":4608:4614   */\n      dup3\n        /* \"#utility.yul\":4603:4606   */\n      dup3\n        /* \"#utility.yul\":4596:4615   */\n      mstore\n        /* \"#utility.yul\":4648:4652   */\n      0x20\n        /* \"#utility.yul\":4643:4646   */\n      dup3\n        /* \"#utility.yul\":4639:4653   */\n      add\n        /* \"#utility.yul\":4624:4653   */\n      swap1\n      pop\n        /* \"#utility.yul\":4491:4659   */\n      swap3\n      swap2\n      pop\n      pop\n      jump\t// out\n        /* \"#utility.yul\":4665:4767   */\n    tag_42:\n        /* \"#utility.yul\":4706:4712   */\n      0x00\n        /* \"#utility.yul\":4757:4759   */\n      0x1f\n        /* \"#utility.yul\":4753:4760   */\n      not\n        /* \"#utility.yul\":4748:4750   */\n      0x1f\n        /* \"#utility.yul\":4741:4746   */\n      dup4\n        /* \"#utility.yul\":4737:4751   */\n      add\n        /* \"#utility.yul\":4733:4761   */\n      and\n        /* \"#utility.yul\":4723:4761   */\n      swap1\n      pop\n        /* \"#utility.yul\":4665:4767   */\n      swap2\n      swap1\n      pop\n      jump\t// out\n        /* \"#utility.yul\":4795:5109   */\n    tag_43:\n        /* \"#utility.yul\":4891:4894   */\n      0x00\n        /* \"#utility.yul\":4912:4982   */\n      tag_88\n        /* \"#utility.yul\":4975:4981   */\n      dup4\n        /* \"#utility.yul\":4970:4973   */\n      dup6\n        /* \"#utility.yul\":4912:4982   */\n      tag_41\n      jump\t// in\n    tag_88:\n        /* \"#utility.yul\":4905:4982   */\n      swap4\n      pop\n        /* \"#utility.yul\":4992:5048   */\n      tag_89\n        /* \"#utility.yul\":5041:5047   */\n      dup4\n        /* \"#utility.yul\":5036:5039   */\n      dup6\n        /* \"#utility.yul\":5029:5034   */\n      dup5\n        /* \"#utility.yul\":4992:5048   */\n      tag_36\n      jump\t// in\n    tag_89:\n        /* \"#utility.yul\":5073:5102   */\n      tag_90\n        /* \"#utility.yul\":5095:5101   */\n      dup4\n        /* \"#utility.yul\":5073:5102   */\n      tag_42\n      jump\t// in\n    tag_90:\n        /* \"#utility.yul\":5068:5071   */\n      dup5\n        /* \"#utility.yul\":5064:5103   */\n      add\n        /* \"#utility.yul\":5057:5103   */\n      swap1\n      pop\n        /* \"#utility.yul\":4795:5109   */\n      swap4\n      swap3\n      pop\n      pop\n      pop\n      jump\t// out\n        /* \"#utility.yul\":5115:5444   */\n    tag_24:\n        /* \"#utility.yul\":5236:5240   */\n      0x00\n        /* \"#utility.yul\":5274:5276   */\n      0x20\n        /* \"#utility.yul\":5263:5272   */\n      dup3\n        /* \"#utility.yul\":5259:5277   */\n      add\n        /* \"#utility.yul\":5251:5277   */\n      swap1\n      pop\n        /* \"#utility.yul\":5323:5332   */\n      dup2\n        /* \"#utility.yul\":5317:5321   */\n      dup2\n        /* \"#utility.yul\":5313:5333   */\n      sub\n        /* \"#utility.yul\":5309:5310   */\n      0x00\n        /* \"#utility.yul\":5298:5307   */\n      dup4\n        /* \"#utility.yul\":5294:5311   */\n      add\n        /* \"#utility.yul\":5287:5334   */\n      mstore\n        /* \"#utility.yul\":5351:5437   */\n      tag_92\n        /* \"#utility.yul\":5432:5436   */\n      dup2\n        /* \"#utility.yul\":5423:5429   */\n      dup5\n        /* \"#utility.yul\":5415:5421   */\n      dup7\n        /* \"#utility.yul\":5351:5437   */\n      tag_43\n      jump\t// in\n    tag_92:\n        /* \"#utility.yul\":5343:5437   */\n      swap1\n      pop\n        /* \"#utility.yul\":5115:5444   */\n      swap4\n      swap3\n      pop\n      pop\n      pop\n      jump\t// out\n\n    auxdata: 0xa26469706673582212203c5cad11fc4184707806b54af55e55b9cc0d20d9d0d1eef769ab2d79ae99b60964736f6c634300081a0033\n}\n",
				"bytecode": {
					"linkReferences": {},
					"object": "60a0604052348015600e575f80fd5b503373ffffffffffffffffffffffffffffffffffffffff1660808173ffffffffffffffffffffffffffffffffffffffff16815250506080516104966100615f395f8181607401526101f801526104965ff3fe608060405234801561000f575f80fd5b5060043610610034575f3560e01c806355f86501146100385780638da5cb5b14610054575b5f80fd5b610052600480360381019061004d9190610283565b610072565b005b61005c6101f6565b604051610069919061030d565b60405180910390f35b7f000000000000000000000000000000000000000000000000000000000000000073ffffffffffffffffffffffffffffffffffffffff163373ffffffffffffffffffffffffffffffffffffffff16146100f7576040517fde1e8bd500000000000000000000000000000000000000000000000000000000815260040160405180910390fd5b5f3073ffffffffffffffffffffffffffffffffffffffff16838360405161011f929190610362565b5f604051808303815f865af19150503d805f8114610158576040519150601f19603f3d011682016040523d82523d5f602084013e61015d565b606091505b50509050806101a1576040517f08c379a0000000000000000000000000000000000000000000000000000000008152600401610198906103d4565b60405180910390fd5b3373ffffffffffffffffffffffffffffffffffffffff167f21631b448ff7aeb6af3563c0e7d33973560c7323f8717755ff850d6760edca0b84846040516101e992919061043e565b60405180910390a2505050565b7f000000000000000000000000000000000000000000000000000000000000000081565b5f80fd5b5f80fd5b5f80fd5b5f80fd5b5f80fd5b5f8083601f84011261024357610242610222565b5b8235905067ffffffffffffffff8111156102605761025f610226565b5b60208301915083600182028301111561027c5761027b61022a565b5b9250929050565b5f80602083850312156102995761029861021a565b5b5f83013567ffffffffffffffff8111156102b6576102b561021e565b5b6102c28582860161022e565b92509250509250929050565b5f73ffffffffffffffffffffffffffffffffffffffff82169050919050565b5f6102f7826102ce565b9050919050565b610307816102ed565b82525050565b5f6020820190506103205f8301846102fe565b92915050565b5f81905092915050565b828183375f83830152505050565b5f6103498385610326565b9350610356838584610330565b82840190509392505050565b5f61036e82848661033e565b91508190509392505050565b5f82825260208201905092915050565b7f65786563206661696c65640000000000000000000000000000000000000000005f82015250565b5f6103be600b8361037a565b91506103c98261038a565b602082019050919050565b5f6020820190508181035f8301526103eb816103b2565b9050919050565b5f82825260208201905092915050565b5f601f19601f8301169050919050565b5f61041d83856103f2565b935061042a838584610330565b61043383610402565b840190509392505050565b5f6020820190508181035f830152610457818486610412565b9050939250505056fea26469706673582212203c5cad11fc4184707806b54af55e55b9cc0d20d9d0d1eef769ab2d79ae99b60964736f6c634300081a0033",
					"opcodes": "PUSH1 0xA0 PUSH1 0x40 MSTORE CALLVALUE DUP1 ISZERO PUSH1 0xE JUMPI PUSH0 DUP1 REVERT JUMPDEST POP CALLER PUSH20 0xFFFFFFFFFFFFFFFFFFFFFFFFFFFFFFFFFFFFFFFF AND PUSH1 0x80 DUP2 PUSH20 0xFFFFFFFFFFFFFFFFFFFFFFFFFFFFFFFFFFFFFFFF AND DUP2 MSTORE POP POP PUSH1 0x80 MLOAD PUSH2 0x496 PUSH2 0x61 PUSH0 CODECOPY PUSH0 DUP2 DUP2 PUSH1 0x74 ADD MSTORE PUSH2 0x1F8 ADD MSTORE PUSH2 0x496 PUSH0 RETURN INVALID PUSH1 0x80 PUSH1 0x40 MSTORE CALLVALUE DUP1 ISZERO PUSH2 0xF JUMPI PUSH0 DUP1 REVERT JUMPDEST POP PUSH1 0x4 CALLDATASIZE LT PUSH2 0x34 JUMPI PUSH0 CALLDATALOAD PUSH1 0xE0 SHR DUP1 PUSH4 0x55F86501 EQ PUSH2 0x38 JUMPI DUP1 PUSH4 0x8DA5CB5B EQ PUSH2 0x54 JUMPI JUMPDEST PUSH0 DUP1 REVERT JUMPDEST PUSH2 0x52 PUSH1 0x4 DUP1 CALLDATASIZE SUB DUP2 ADD SWAP1 PUSH2 0x4D SWAP2 SWAP1 PUSH2 0x283 JUMP JUMPDEST PUSH2 0x72 JUMP JUMPDEST STOP JUMPDEST PUSH2 0x5C PUSH2 0x1F6 JUMP JUMPDEST PUSH1 0x40 MLOAD PUSH2 0x69 SWAP2 SWAP1 PUSH2 0x30D JUMP JUMPDEST PUSH1 0x40 MLOAD DUP1 SWAP2 SUB SWAP1 RETURN JUMPDEST PUSH32 0x0 PUSH20 0xFFFFFFFFFFFFFFFFFFFFFFFFFFFFFFFFFFFFFFFF AND CALLER PUSH20 0xFFFFFFFFFFFFFFFFFFFFFFFFFFFFFFFFFFFFFFFF AND EQ PUSH2 0xF7 JUMPI PUSH1 0x40 MLOAD PUSH32 0xDE1E8BD500000000000000000000000000000000000000000000000000000000 DUP2 MSTORE PUSH1 0x4 ADD PUSH1 0x40 MLOAD DUP1 SWAP2 SUB SWAP1 REVERT JUMPDEST PUSH0 ADDRESS PUSH20 0xFFFFFFFFFFFFFFFFFFFFFFFFFFFFFFFFFFFFFFFF AND DUP4 DUP4 PUSH1 0x40 MLOAD PUSH2 0x11F SWAP3 SWAP2 SWAP1 PUSH2 0x362 JUMP JUMPDEST PUSH0 PUSH1 0x40 MLOAD DUP1 DUP4 SUB DUP2 PUSH0 DUP7 GAS CALL SWAP2 POP POP RETURNDATASIZE DUP1 PUSH0 DUP2 EQ PUSH2 0x158 JUMPI PUSH1 0x40 MLOAD SWAP2 POP PUSH1 0x1F NOT PUSH1 0x3F RETURNDATASIZE ADD AND DUP3 ADD PUSH1 0x40 MSTORE RETURNDATASIZE DUP3 MSTORE RETURNDATASIZE PUSH0 PUSH1 0x20 DUP5 ADD RETURNDATACOPY PUSH2 0x15D JUMP JUMPDEST PUSH1 0x60 SWAP2 POP JUMPDEST POP POP SWAP1 POP DUP1 PUSH2 0x1A1 JUMPI PUSH1 0x40 MLOAD PUSH32 0x8C379A000000000000000000000000000000000000000000000000000000000 DUP2 MSTORE PUSH1 0x4 ADD PUSH2 0x198 SWAP1 PUSH2 0x3D4 JUMP JUMPDEST PUSH1 0x40 MLOAD DUP1 SWAP2 SUB SWAP1 REVERT JUMPDEST CALLER PUSH20 0xFFFFFFFFFFFFFFFFFFFFFFFFFFFFFFFFFFFFFFFF AND PUSH32 0x21631B448FF7AEB6AF3563C0E7D33973560C7323F8717755FF850D6760EDCA0B DUP5 DUP5 PUSH1 0x40 MLOAD PUSH2 0x1E9 SWAP3 SWAP2 SWAP1 PUSH2 0x43E JUMP JUMPDEST PUSH1 0x40 MLOAD DUP1 SWAP2 SUB SWAP1 LOG2 POP POP POP JUMP JUMPDEST PUSH32 0x0 DUP2 JUMP JUMPDEST PUSH0 DUP1 REVERT JUMPDEST PUSH0 DUP1 REVERT JUMPDEST PUSH0 DUP1 REVERT JUMPDEST PUSH0 DUP1 REVERT JUMPDEST PUSH0 DUP1 REVERT JUMPDEST PUSH0 DUP1 DUP4 PUSH1 0x1F DUP5 ADD SLT PUSH2 0x243 JUMPI PUSH2 0x242 PUSH2 0x222 JUMP JUMPDEST JUMPDEST DUP3 CALLDATALOAD SWAP1 POP PUSH8 0xFFFFFFFFFFFFFFFF DUP2 GT ISZERO PUSH2 0x260 JUMPI PUSH2 0x25F PUSH2 0x226 JUMP JUMPDEST JUMPDEST PUSH1 0x20 DUP4 ADD SWAP2 POP DUP4 PUSH1 0x1 DUP3 MUL DUP4 ADD GT ISZERO PUSH2 0x27C JUMPI PUSH2 0x27B PUSH2 0x22A JUMP JUMPDEST JUMPDEST SWAP3 POP SWAP3 SWAP1 POP JUMP JUMPDEST PUSH0 DUP1 PUSH1 0x20 DUP4 DUP6 SUB SLT ISZERO PUSH2 0x299 JUMPI PUSH2 0x298 PUSH2 0x21A JUMP JUMPDEST JUMPDEST PUSH0 DUP4 ADD CALLDATALOAD PUSH8 0xFFFFFFFFFFFFFFFF DUP2 GT ISZERO PUSH2 0x2B6 JUMPI PUSH2 0x2B5 PUSH2 0x21E JUMP JUMPDEST JUMPDEST PUSH2 0x2C2 DUP6 DUP3 DUP7 ADD PUSH2 0x22E JUMP JUMPDEST SWAP3 POP SWAP3 POP POP SWAP3 POP SWAP3 SWAP1 POP JUMP JUMPDEST PUSH0 PUSH20 0xFFFFFFFFFFFFFFFFFFFFFFFFFFFFFFFFFFFFFFFF DUP3 AND SWAP1 POP SWAP2 SWAP1 POP JUMP JUMPDEST PUSH0 PUSH2 0x2F7 DUP3 PUSH2 0x2CE JUMP JUMPDEST SWAP1 POP SWAP2 SWAP1 POP JUMP JUMPDEST PUSH2 0x307 DUP2 PUSH2 0x2ED JUMP JUMPDEST DUP3 MSTORE POP POP JUMP JUMPDEST PUSH0 PUSH1 0x20 DUP3 ADD SWAP1 POP PUSH2 0x320 PUSH0 DUP4 ADD DUP5 PUSH2 0x2FE JUMP JUMPDEST SWAP3 SWAP2 POP POP JUMP JUMPDEST PUSH0 DUP2 SWAP1 POP SWAP3 SWAP2 POP POP JUMP JUMPDEST DUP3 DUP2 DUP4 CALLDATACOPY PUSH0 DUP4 DUP4 ADD MSTORE POP POP POP JUMP JUMPDEST PUSH0 PUSH2 0x349 DUP4 DUP6 PUSH2 0x326 JUMP JUMPDEST SWAP4 POP PUSH2 0x356 DUP4 DUP6 DUP5 PUSH2 0x330 JUMP JUMPDEST DUP3 DUP5 ADD SWAP1 POP SWAP4 SWAP3 POP POP POP JUMP JUMPDEST PUSH0 PUSH2 0x36E DUP3 DUP5 DUP7 PUSH2 0x33E JUMP JUMPDEST SWAP2 POP DUP2 SWAP1 POP SWAP4 SWAP3 POP POP POP JUMP JUMPDEST PUSH0 DUP3 DUP3 MSTORE PUSH1 0x20 DUP3 ADD SWAP1 POP SWAP3 SWAP2 POP POP JUMP JUMPDEST PUSH32 0x65786563206661696C6564000000000000000000000000000000000000000000 PUSH0 DUP3 ADD MSTORE POP JUMP JUMPDEST PUSH0 PUSH2 0x3BE PUSH1 0xB DUP4 PUSH2 0x37A JUMP JUMPDEST SWAP2 POP PUSH2 0x3C9 DUP3 PUSH2 0x38A JUMP JUMPDEST PUSH1 0x20 DUP3 ADD SWAP1 POP SWAP2 SWAP1 POP JUMP JUMPDEST PUSH0 PUSH1 0x20 DUP3 ADD SWAP1 POP DUP2 DUP2 SUB PUSH0 DUP4 ADD MSTORE PUSH2 0x3EB DUP2 PUSH2 0x3B2 JUMP JUMPDEST SWAP1 POP SWAP2 SWAP1 POP JUMP JUMPDEST PUSH0 DUP3 DUP3 MSTORE PUSH1 0x20 DUP3 ADD SWAP1 POP SWAP3 SWAP2 POP POP JUMP JUMPDEST PUSH0 PUSH1 0x1F NOT PUSH1 0x1F DUP4 ADD AND SWAP1 POP SWAP2 SWAP1 POP JUMP JUMPDEST PUSH0 PUSH2 0x41D DUP4 DUP6 PUSH2 0x3F2 JUMP JUMPDEST SWAP4 POP PUSH2 0x42A DUP4 DUP6 DUP5 PUSH2 0x330 JUMP JUMPDEST PUSH2 0x433 DUP4 PUSH2 0x402 JUMP JUMPDEST DUP5 ADD SWAP1 POP SWAP4 SWAP3 POP POP POP JUMP JUMPDEST PUSH0 PUSH1 0x20 DUP3 ADD SWAP1 POP DUP2 DUP2 SUB PUSH0 DUP4 ADD MSTORE PUSH2 0x457 DUP2 DUP5 DUP7 PUSH2 0x412 JUMP JUMPDEST SWAP1 POP SWAP4 SWAP3 POP POP POP JUMP INVALID LOG2 PUSH5 0x6970667358 0x22 SLT KECCAK256 EXTCODECOPY TLOAD 0xAD GT 0xFC COINBASE DUP5 PUSH17 0x7806B54AF55E55B9CC0D20D9D0D1EEF769 0xAB 0x2D PUSH26 0xAE99B60964736F6C634300081A00330000000000000000000000 "
				},
				"gasEstimates": {
					"creation": {
						"codeDepositCost": "234800",
						"executionCost": "infinite",
						"totalCost": "infinite"
					},
					"external": {
						"exec(bytes)": "infinite",
						"owner()": "infinite"
					}
				},
				"methodIdentifiers": {
					"exec(bytes)": "55f86501",
					"owner()": "8da5cb5b"
				}
			},
			"storageLayout": {
				"storage": [],
				"types": null
			},
			"userdoc": {
				"errors": {
					"Shell__NotOwner()": [
						{
							"notice": "Shared errors"
						}
					]
				},
				"kind": "user",
				"methods": {
					"exec(bytes)": {
						"notice": "✅ Only owner may exec"
					}
				},
				"version": 1
			}
		}
	}
}