{
	"S/Shell/Shell.sol": {
		"Attack_WebShell": {
			"abi": [
				{
					"inputs": [
						{
							"internalType": "contract WebShellVuln",
							"name": "_t",
							"type": "address"
						}
					],
					"stateMutability": "nonpayable",
					"type": "constructor"
				},
				{
					"inputs": [
						{
							"internalType": "bytes4",
							"name": "sel",
							"type": "bytes4"
						},
						{
							"internalType": "bytes",
							"name": "args",
							"type": "bytes"
						}
					],
					"name": "exploit",
					"outputs": [],
					"stateMutability": "nonpayable",
					"type": "function"
				},
				{
					"inputs": [],
					"name": "target",
					"outputs": [
						{
							"internalType": "contract WebShellVuln",
							"name": "",
							"type": "address"
						}
					],
					"stateMutability": "view",
					"type": "function"
				}
			],
			"devdoc": {
				"kind": "dev",
				"methods": {},
				"version": 1
			},
			"evm": {
				"assembly": "    /* \"S/Shell/Shell.sol\":2072:2426  contract Attack_WebShell {... */\n  mstore(0x40, 0x80)\n    /* \"S/Shell/Shell.sol\":2135:2180  constructor(WebShellVuln _t) { target = _t; } */\n  callvalue\n  dup1\n  iszero\n  tag_1\n  jumpi\n  0x00\n  dup1\n  revert\ntag_1:\n  pop\n  mload(0x40)\n  sub(codesize, bytecodeSize)\n  dup1\n  bytecodeSize\n  dup4\n  codecopy\n  dup2\n  dup2\n  add\n  0x40\n  mstore\n  dup2\n  add\n  swap1\n  tag_2\n  swap2\n  swap1\n  tag_3\n  jump\t// in\ntag_2:\n    /* \"S/Shell/Shell.sol\":2175:2177  _t */\n  dup1\n    /* \"S/Shell/Shell.sol\":2166:2172  target */\n  0x00\n  dup1\n    /* \"S/Shell/Shell.sol\":2166:2177  target = _t */\n  0x0100\n  exp\n  dup2\n  sload\n  dup2\n  0xffffffffffffffffffffffffffffffffffffffff\n  mul\n  not\n  and\n  swap1\n  dup4\n  0xffffffffffffffffffffffffffffffffffffffff\n  and\n  mul\n  or\n  swap1\n  sstore\n  pop\n    /* \"S/Shell/Shell.sol\":2135:2180  constructor(WebShellVuln _t) { target = _t; } */\n  pop\n    /* \"S/Shell/Shell.sol\":2072:2426  contract Attack_WebShell {... */\n  jump(tag_6)\n    /* \"#utility.yul\":88:205   */\ntag_8:\n    /* \"#utility.yul\":197:198   */\n  0x00\n    /* \"#utility.yul\":194:195   */\n  dup1\n    /* \"#utility.yul\":187:199   */\n  revert\n    /* \"#utility.yul\":334:460   */\ntag_10:\n    /* \"#utility.yul\":371:378   */\n  0x00\n    /* \"#utility.yul\":411:453   */\n  0xffffffffffffffffffffffffffffffffffffffff\n    /* \"#utility.yul\":404:409   */\n  dup3\n    /* \"#utility.yul\":400:454   */\n  and\n    /* \"#utility.yul\":389:454   */\n  swap1\n  pop\n    /* \"#utility.yul\":334:460   */\n  swap2\n  swap1\n  pop\n  jump\t// out\n    /* \"#utility.yul\":466:570   */\ntag_11:\n    /* \"#utility.yul\":511:518   */\n  0x00\n    /* \"#utility.yul\":540:564   */\n  tag_21\n    /* \"#utility.yul\":558:563   */\n  dup3\n    /* \"#utility.yul\":540:564   */\n  tag_10\n  jump\t// in\ntag_21:\n    /* \"#utility.yul\":529:564   */\n  swap1\n  pop\n    /* \"#utility.yul\":466:570   */\n  swap2\n  swap1\n  pop\n  jump\t// out\n    /* \"#utility.yul\":576:700   */\ntag_12:\n    /* \"#utility.yul\":633:640   */\n  0x00\n    /* \"#utility.yul\":662:694   */\n  tag_23\n    /* \"#utility.yul\":688:693   */\n  dup3\n    /* \"#utility.yul\":662:694   */\n  tag_11\n  jump\t// in\ntag_23:\n    /* \"#utility.yul\":651:694   */\n  swap1\n  pop\n    /* \"#utility.yul\":576:700   */\n  swap2\n  swap1\n  pop\n  jump\t// out\n    /* \"#utility.yul\":706:868   */\ntag_13:\n    /* \"#utility.yul\":799:843   */\n  tag_25\n    /* \"#utility.yul\":837:842   */\n  dup2\n    /* \"#utility.yul\":799:843   */\n  tag_12\n  jump\t// in\ntag_25:\n    /* \"#utility.yul\":792:797   */\n  dup2\n    /* \"#utility.yul\":789:844   */\n  eq\n    /* \"#utility.yul\":779:862   */\n  tag_26\n  jumpi\n    /* \"#utility.yul\":858:859   */\n  0x00\n    /* \"#utility.yul\":855:856   */\n  dup1\n    /* \"#utility.yul\":848:860   */\n  revert\n    /* \"#utility.yul\":779:862   */\ntag_26:\n    /* \"#utility.yul\":706:868   */\n  pop\n  jump\t// out\n    /* \"#utility.yul\":874:1057   */\ntag_14:\n    /* \"#utility.yul\":951:956   */\n  0x00\n    /* \"#utility.yul\":982:988   */\n  dup2\n    /* \"#utility.yul\":976:989   */\n  mload\n    /* \"#utility.yul\":967:989   */\n  swap1\n  pop\n    /* \"#utility.yul\":998:1051   */\n  tag_28\n    /* \"#utility.yul\":1045:1050   */\n  dup2\n    /* \"#utility.yul\":998:1051   */\n  tag_13\n  jump\t// in\ntag_28:\n    /* \"#utility.yul\":874:1057   */\n  swap3\n  swap2\n  pop\n  pop\n  jump\t// out\n    /* \"#utility.yul\":1063:1454   */\ntag_3:\n    /* \"#utility.yul\":1153:1159   */\n  0x00\n    /* \"#utility.yul\":1202:1204   */\n  0x20\n    /* \"#utility.yul\":1190:1199   */\n  dup3\n    /* \"#utility.yul\":1181:1188   */\n  dup5\n    /* \"#utility.yul\":1177:1200   */\n  sub\n    /* \"#utility.yul\":1173:1205   */\n  slt\n    /* \"#utility.yul\":1170:1289   */\n  iszero\n  tag_30\n  jumpi\n    /* \"#utility.yul\":1208:1287   */\n  tag_31\n  tag_8\n  jump\t// in\ntag_31:\n    /* \"#utility.yul\":1170:1289   */\ntag_30:\n    /* \"#utility.yul\":1328:1329   */\n  0x00\n    /* \"#utility.yul\":1353:1437   */\n  tag_32\n    /* \"#utility.yul\":1429:1436   */\n  dup5\n    /* \"#utility.yul\":1420:1426   */\n  dup3\n    /* \"#utility.yul\":1409:1418   */\n  dup6\n    /* \"#utility.yul\":1405:1427   */\n  add\n    /* \"#utility.yul\":1353:1437   */\n  tag_14\n  jump\t// in\ntag_32:\n    /* \"#utility.yul\":1343:1437   */\n  swap2\n  pop\n    /* \"#utility.yul\":1299:1447   */\n  pop\n    /* \"#utility.yul\":1063:1454   */\n  swap3\n  swap2\n  pop\n  pop\n  jump\t// out\n    /* \"S/Shell/Shell.sol\":2072:2426  contract Attack_WebShell {... */\ntag_6:\n  dataSize(sub_0)\n  dup1\n  dataOffset(sub_0)\n  0x00\n  codecopy\n  0x00\n  return\nstop\n\nsub_0: assembly {\n        /* \"S/Shell/Shell.sol\":2072:2426  contract Attack_WebShell {... */\n      mstore(0x40, 0x80)\n      callvalue\n      dup1\n      iszero\n      tag_1\n      jumpi\n      0x00\n      dup1\n      revert\n    tag_1:\n      pop\n      jumpi(tag_2, lt(calldatasize, 0x04))\n      shr(0xe0, calldataload(0x00))\n      dup1\n      0xd4b83992\n      eq\n      tag_3\n      jumpi\n      dup1\n      0xdef38fda\n      eq\n      tag_4\n      jumpi\n    tag_2:\n      0x00\n      dup1\n      revert\n        /* \"S/Shell/Shell.sol\":2103:2129  WebShellVuln public target */\n    tag_3:\n      tag_5\n      tag_6\n      jump\t// in\n    tag_5:\n      mload(0x40)\n      tag_7\n      swap2\n      swap1\n      tag_8\n      jump\t// in\n    tag_7:\n      mload(0x40)\n      dup1\n      swap2\n      sub\n      swap1\n      return\n        /* \"S/Shell/Shell.sol\":2186:2424  function exploit(bytes4 sel, bytes calldata args) external {... */\n    tag_4:\n      tag_9\n      0x04\n      dup1\n      calldatasize\n      sub\n      dup2\n      add\n      swap1\n      tag_10\n      swap2\n      swap1\n      tag_11\n      jump\t// in\n    tag_10:\n      tag_12\n      jump\t// in\n    tag_9:\n      stop\n        /* \"S/Shell/Shell.sol\":2103:2129  WebShellVuln public target */\n    tag_6:\n      0x00\n      dup1\n      sload\n      swap1\n      0x0100\n      exp\n      swap1\n      div\n      0xffffffffffffffffffffffffffffffffffffffff\n      and\n      dup2\n      jump\t// out\n        /* \"S/Shell/Shell.sol\":2186:2424  function exploit(bytes4 sel, bytes calldata args) external {... */\n    tag_12:\n        /* \"S/Shell/Shell.sol\":2299:2316  bytes memory data */\n      0x00\n        /* \"S/Shell/Shell.sol\":2336:2339  sel */\n      dup4\n        /* \"S/Shell/Shell.sol\":2341:2345  args */\n      dup4\n      dup4\n        /* \"S/Shell/Shell.sol\":2319:2346  abi.encodePacked(sel, args) */\n      add(0x20, mload(0x40))\n      tag_14\n      swap4\n      swap3\n      swap2\n      swap1\n      tag_15\n      jump\t// in\n    tag_14:\n      mload(0x40)\n      0x20\n      dup2\n      dup4\n      sub\n      sub\n      dup2\n      mstore\n      swap1\n      0x40\n      mstore\n        /* \"S/Shell/Shell.sol\":2299:2346  bytes memory data = abi.encodePacked(sel, args) */\n      swap1\n      pop\n        /* \"S/Shell/Shell.sol\":2357:2364  bool ok */\n      0x00\n        /* \"S/Shell/Shell.sol\":2378:2384  target */\n      dup1\n      0x00\n      swap1\n      sload\n      swap1\n      0x0100\n      exp\n      swap1\n      div\n      0xffffffffffffffffffffffffffffffffffffffff\n      and\n        /* \"S/Shell/Shell.sol\":2370:2390  address(target).call */\n      0xffffffffffffffffffffffffffffffffffffffff\n      and\n        /* \"S/Shell/Shell.sol\":2391:2395  data */\n      dup3\n        /* \"S/Shell/Shell.sol\":2370:2396  address(target).call(data) */\n      mload(0x40)\n      tag_16\n      swap2\n      swap1\n      tag_17\n      jump\t// in\n    tag_16:\n      0x00\n      mload(0x40)\n      dup1\n      dup4\n      sub\n      dup2\n      0x00\n      dup7\n      gas\n      call\n      swap2\n      pop\n      pop\n      returndatasize\n      dup1\n      0x00\n      dup2\n      eq\n      tag_20\n      jumpi\n      mload(0x40)\n      swap2\n      pop\n      and(add(returndatasize, 0x3f), not(0x1f))\n      dup3\n      add\n      0x40\n      mstore\n      returndatasize\n      dup3\n      mstore\n      returndatasize\n      0x00\n      0x20\n      dup5\n      add\n      returndatacopy\n      jump(tag_19)\n    tag_20:\n      0x60\n      swap2\n      pop\n    tag_19:\n      pop\n        /* \"S/Shell/Shell.sol\":2356:2396  (bool ok, ) = address(target).call(data) */\n      pop\n      swap1\n      pop\n        /* \"S/Shell/Shell.sol\":2414:2416  ok */\n      dup1\n        /* \"S/Shell/Shell.sol\":2406:2417  require(ok) */\n      tag_21\n      jumpi\n      0x00\n      dup1\n      revert\n    tag_21:\n        /* \"S/Shell/Shell.sol\":2245:2424  {... */\n      pop\n      pop\n        /* \"S/Shell/Shell.sol\":2186:2424  function exploit(bytes4 sel, bytes calldata args) external {... */\n      pop\n      pop\n      pop\n      jump\t// out\n        /* \"#utility.yul\":7:133   */\n    tag_22:\n        /* \"#utility.yul\":44:51   */\n      0x00\n        /* \"#utility.yul\":84:126   */\n      0xffffffffffffffffffffffffffffffffffffffff\n        /* \"#utility.yul\":77:82   */\n      dup3\n        /* \"#utility.yul\":73:127   */\n      and\n        /* \"#utility.yul\":62:127   */\n      swap1\n      pop\n        /* \"#utility.yul\":7:133   */\n      swap2\n      swap1\n      pop\n      jump\t// out\n        /* \"#utility.yul\":139:199   */\n    tag_23:\n        /* \"#utility.yul\":167:170   */\n      0x00\n        /* \"#utility.yul\":188:193   */\n      dup2\n        /* \"#utility.yul\":181:193   */\n      swap1\n      pop\n        /* \"#utility.yul\":139:199   */\n      swap2\n      swap1\n      pop\n      jump\t// out\n        /* \"#utility.yul\":205:347   */\n    tag_24:\n        /* \"#utility.yul\":255:264   */\n      0x00\n        /* \"#utility.yul\":288:341   */\n      tag_50\n        /* \"#utility.yul\":306:340   */\n      tag_51\n        /* \"#utility.yul\":315:339   */\n      tag_52\n        /* \"#utility.yul\":333:338   */\n      dup5\n        /* \"#utility.yul\":315:339   */\n      tag_22\n      jump\t// in\n    tag_52:\n        /* \"#utility.yul\":306:340   */\n      tag_23\n      jump\t// in\n    tag_51:\n        /* \"#utility.yul\":288:341   */\n      tag_22\n      jump\t// in\n    tag_50:\n        /* \"#utility.yul\":275:341   */\n      swap1\n      pop\n        /* \"#utility.yul\":205:347   */\n      swap2\n      swap1\n      pop\n      jump\t// out\n        /* \"#utility.yul\":353:487   */\n    tag_25:\n        /* \"#utility.yul\":411:420   */\n      0x00\n        /* \"#utility.yul\":444:481   */\n      tag_54\n        /* \"#utility.yul\":475:480   */\n      dup3\n        /* \"#utility.yul\":444:481   */\n      tag_24\n      jump\t// in\n    tag_54:\n        /* \"#utility.yul\":431:481   */\n      swap1\n      pop\n        /* \"#utility.yul\":353:487   */\n      swap2\n      swap1\n      pop\n      jump\t// out\n        /* \"#utility.yul\":493:655   */\n    tag_26:\n        /* \"#utility.yul\":571:580   */\n      0x00\n        /* \"#utility.yul\":604:649   */\n      tag_56\n        /* \"#utility.yul\":643:648   */\n      dup3\n        /* \"#utility.yul\":604:649   */\n      tag_25\n      jump\t// in\n    tag_56:\n        /* \"#utility.yul\":591:649   */\n      swap1\n      pop\n        /* \"#utility.yul\":493:655   */\n      swap2\n      swap1\n      pop\n      jump\t// out\n        /* \"#utility.yul\":661:848   */\n    tag_27:\n        /* \"#utility.yul\":776:841   */\n      tag_58\n        /* \"#utility.yul\":835:840   */\n      dup2\n        /* \"#utility.yul\":776:841   */\n      tag_26\n      jump\t// in\n    tag_58:\n        /* \"#utility.yul\":771:774   */\n      dup3\n        /* \"#utility.yul\":764:842   */\n      mstore\n        /* \"#utility.yul\":661:848   */\n      pop\n      pop\n      jump\t// out\n        /* \"#utility.yul\":854:1132   */\n    tag_8:\n        /* \"#utility.yul\":975:979   */\n      0x00\n        /* \"#utility.yul\":1013:1015   */\n      0x20\n        /* \"#utility.yul\":1002:1011   */\n      dup3\n        /* \"#utility.yul\":998:1016   */\n      add\n        /* \"#utility.yul\":990:1016   */\n      swap1\n      pop\n        /* \"#utility.yul\":1026:1125   */\n      tag_60\n        /* \"#utility.yul\":1122:1123   */\n      0x00\n        /* \"#utility.yul\":1111:1120   */\n      dup4\n        /* \"#utility.yul\":1107:1124   */\n      add\n        /* \"#utility.yul\":1098:1104   */\n      dup5\n        /* \"#utility.yul\":1026:1125   */\n      tag_27\n      jump\t// in\n    tag_60:\n        /* \"#utility.yul\":854:1132   */\n      swap3\n      swap2\n      pop\n      pop\n      jump\t// out\n        /* \"#utility.yul\":1219:1336   */\n    tag_29:\n        /* \"#utility.yul\":1328:1329   */\n      0x00\n        /* \"#utility.yul\":1325:1326   */\n      dup1\n        /* \"#utility.yul\":1318:1330   */\n      revert\n        /* \"#utility.yul\":1342:1459   */\n    tag_30:\n        /* \"#utility.yul\":1451:1452   */\n      0x00\n        /* \"#utility.yul\":1448:1449   */\n      dup1\n        /* \"#utility.yul\":1441:1453   */\n      revert\n        /* \"#utility.yul\":1465:1614   */\n    tag_31:\n        /* \"#utility.yul\":1501:1508   */\n      0x00\n        /* \"#utility.yul\":1541:1607   */\n      0xffffffff00000000000000000000000000000000000000000000000000000000\n        /* \"#utility.yul\":1534:1539   */\n      dup3\n        /* \"#utility.yul\":1530:1608   */\n      and\n        /* \"#utility.yul\":1519:1608   */\n      swap1\n      pop\n        /* \"#utility.yul\":1465:1614   */\n      swap2\n      swap1\n      pop\n      jump\t// out\n        /* \"#utility.yul\":1620:1740   */\n    tag_32:\n        /* \"#utility.yul\":1692:1715   */\n      tag_66\n        /* \"#utility.yul\":1709:1714   */\n      dup2\n        /* \"#utility.yul\":1692:1715   */\n      tag_31\n      jump\t// in\n    tag_66:\n        /* \"#utility.yul\":1685:1690   */\n      dup2\n        /* \"#utility.yul\":1682:1716   */\n      eq\n        /* \"#utility.yul\":1672:1734   */\n      tag_67\n      jumpi\n        /* \"#utility.yul\":1730:1731   */\n      0x00\n        /* \"#utility.yul\":1727:1728   */\n      dup1\n        /* \"#utility.yul\":1720:1732   */\n      revert\n        /* \"#utility.yul\":1672:1734   */\n    tag_67:\n        /* \"#utility.yul\":1620:1740   */\n      pop\n      jump\t// out\n        /* \"#utility.yul\":1746:1883   */\n    tag_33:\n        /* \"#utility.yul\":1791:1796   */\n      0x00\n        /* \"#utility.yul\":1829:1835   */\n      dup2\n        /* \"#utility.yul\":1816:1836   */\n      calldataload\n        /* \"#utility.yul\":1807:1836   */\n      swap1\n      pop\n        /* \"#utility.yul\":1845:1877   */\n      tag_69\n        /* \"#utility.yul\":1871:1876   */\n      dup2\n        /* \"#utility.yul\":1845:1877   */\n      tag_32\n      jump\t// in\n    tag_69:\n        /* \"#utility.yul\":1746:1883   */\n      swap3\n      swap2\n      pop\n      pop\n      jump\t// out\n        /* \"#utility.yul\":1889:2006   */\n    tag_34:\n        /* \"#utility.yul\":1998:1999   */\n      0x00\n        /* \"#utility.yul\":1995:1996   */\n      dup1\n        /* \"#utility.yul\":1988:2000   */\n      revert\n        /* \"#utility.yul\":2012:2129   */\n    tag_35:\n        /* \"#utility.yul\":2121:2122   */\n      0x00\n        /* \"#utility.yul\":2118:2119   */\n      dup1\n        /* \"#utility.yul\":2111:2123   */\n      revert\n        /* \"#utility.yul\":2135:2252   */\n    tag_36:\n        /* \"#utility.yul\":2244:2245   */\n      0x00\n        /* \"#utility.yul\":2241:2242   */\n      dup1\n        /* \"#utility.yul\":2234:2246   */\n      revert\n        /* \"#utility.yul\":2271:2823   */\n    tag_37:\n        /* \"#utility.yul\":2328:2336   */\n      0x00\n        /* \"#utility.yul\":2338:2344   */\n      dup1\n        /* \"#utility.yul\":2388:2391   */\n      dup4\n        /* \"#utility.yul\":2381:2385   */\n      0x1f\n        /* \"#utility.yul\":2373:2379   */\n      dup5\n        /* \"#utility.yul\":2369:2386   */\n      add\n        /* \"#utility.yul\":2365:2392   */\n      slt\n        /* \"#utility.yul\":2355:2477   */\n      tag_74\n      jumpi\n        /* \"#utility.yul\":2396:2475   */\n      tag_75\n      tag_34\n      jump\t// in\n    tag_75:\n        /* \"#utility.yul\":2355:2477   */\n    tag_74:\n        /* \"#utility.yul\":2509:2515   */\n      dup3\n        /* \"#utility.yul\":2496:2516   */\n      calldataload\n        /* \"#utility.yul\":2486:2516   */\n      swap1\n      pop\n        /* \"#utility.yul\":2539:2557   */\n      0xffffffffffffffff\n        /* \"#utility.yul\":2531:2537   */\n      dup2\n        /* \"#utility.yul\":2528:2558   */\n      gt\n        /* \"#utility.yul\":2525:2642   */\n      iszero\n      tag_76\n      jumpi\n        /* \"#utility.yul\":2561:2640   */\n      tag_77\n      tag_35\n      jump\t// in\n    tag_77:\n        /* \"#utility.yul\":2525:2642   */\n    tag_76:\n        /* \"#utility.yul\":2675:2679   */\n      0x20\n        /* \"#utility.yul\":2667:2673   */\n      dup4\n        /* \"#utility.yul\":2663:2680   */\n      add\n        /* \"#utility.yul\":2651:2680   */\n      swap2\n      pop\n        /* \"#utility.yul\":2729:2732   */\n      dup4\n        /* \"#utility.yul\":2721:2725   */\n      0x01\n        /* \"#utility.yul\":2713:2719   */\n      dup3\n        /* \"#utility.yul\":2709:2726   */\n      mul\n        /* \"#utility.yul\":2699:2707   */\n      dup4\n        /* \"#utility.yul\":2695:2727   */\n      add\n        /* \"#utility.yul\":2692:2733   */\n      gt\n        /* \"#utility.yul\":2689:2817   */\n      iszero\n      tag_78\n      jumpi\n        /* \"#utility.yul\":2736:2815   */\n      tag_79\n      tag_36\n      jump\t// in\n    tag_79:\n        /* \"#utility.yul\":2689:2817   */\n    tag_78:\n        /* \"#utility.yul\":2271:2823   */\n      swap3\n      pop\n      swap3\n      swap1\n      pop\n      jump\t// out\n        /* \"#utility.yul\":2829:3499   */\n    tag_11:\n        /* \"#utility.yul\":2907:2913   */\n      0x00\n        /* \"#utility.yul\":2915:2921   */\n      dup1\n        /* \"#utility.yul\":2923:2929   */\n      0x00\n        /* \"#utility.yul\":2972:2974   */\n      0x40\n        /* \"#utility.yul\":2960:2969   */\n      dup5\n        /* \"#utility.yul\":2951:2958   */\n      dup7\n        /* \"#utility.yul\":2947:2970   */\n      sub\n        /* \"#utility.yul\":2943:2975   */\n      slt\n        /* \"#utility.yul\":2940:3059   */\n      iszero\n      tag_81\n      jumpi\n        /* \"#utility.yul\":2978:3057   */\n      tag_82\n      tag_29\n      jump\t// in\n    tag_82:\n        /* \"#utility.yul\":2940:3059   */\n    tag_81:\n        /* \"#utility.yul\":3098:3099   */\n      0x00\n        /* \"#utility.yul\":3123:3175   */\n      tag_83\n        /* \"#utility.yul\":3167:3174   */\n      dup7\n        /* \"#utility.yul\":3158:3164   */\n      dup3\n        /* \"#utility.yul\":3147:3156   */\n      dup8\n        /* \"#utility.yul\":3143:3165   */\n      add\n        /* \"#utility.yul\":3123:3175   */\n      tag_33\n      jump\t// in\n    tag_83:\n        /* \"#utility.yul\":3113:3175   */\n      swap4\n      pop\n        /* \"#utility.yul\":3069:3185   */\n      pop\n        /* \"#utility.yul\":3252:3254   */\n      0x20\n        /* \"#utility.yul\":3241:3250   */\n      dup5\n        /* \"#utility.yul\":3237:3255   */\n      add\n        /* \"#utility.yul\":3224:3256   */\n      calldataload\n        /* \"#utility.yul\":3283:3301   */\n      0xffffffffffffffff\n        /* \"#utility.yul\":3275:3281   */\n      dup2\n        /* \"#utility.yul\":3272:3302   */\n      gt\n        /* \"#utility.yul\":3269:3386   */\n      iszero\n      tag_84\n      jumpi\n        /* \"#utility.yul\":3305:3384   */\n      tag_85\n      tag_30\n      jump\t// in\n    tag_85:\n        /* \"#utility.yul\":3269:3386   */\n    tag_84:\n        /* \"#utility.yul\":3418:3482   */\n      tag_86\n        /* \"#utility.yul\":3474:3481   */\n      dup7\n        /* \"#utility.yul\":3465:3471   */\n      dup3\n        /* \"#utility.yul\":3454:3463   */\n      dup8\n        /* \"#utility.yul\":3450:3472   */\n      add\n        /* \"#utility.yul\":3418:3482   */\n      tag_37\n      jump\t// in\n    tag_86:\n        /* \"#utility.yul\":3400:3482   */\n      swap3\n      pop\n      swap3\n      pop\n        /* \"#utility.yul\":3195:3492   */\n      pop\n        /* \"#utility.yul\":2829:3499   */\n      swap3\n      pop\n      swap3\n      pop\n      swap3\n      jump\t// out\n        /* \"#utility.yul\":3505:3583   */\n    tag_38:\n        /* \"#utility.yul\":3543:3550   */\n      0x00\n        /* \"#utility.yul\":3572:3577   */\n      dup2\n        /* \"#utility.yul\":3561:3577   */\n      swap1\n      pop\n        /* \"#utility.yul\":3505:3583   */\n      swap2\n      swap1\n      pop\n      jump\t// out\n        /* \"#utility.yul\":3589:3742   */\n    tag_39:\n        /* \"#utility.yul\":3692:3735   */\n      tag_89\n        /* \"#utility.yul\":3711:3734   */\n      tag_90\n        /* \"#utility.yul\":3728:3733   */\n      dup3\n        /* \"#utility.yul\":3711:3734   */\n      tag_31\n      jump\t// in\n    tag_90:\n        /* \"#utility.yul\":3692:3735   */\n      tag_38\n      jump\t// in\n    tag_89:\n        /* \"#utility.yul\":3687:3690   */\n      dup3\n        /* \"#utility.yul\":3680:3736   */\n      mstore\n        /* \"#utility.yul\":3589:3742   */\n      pop\n      pop\n      jump\t// out\n        /* \"#utility.yul\":3748:3895   */\n    tag_40:\n        /* \"#utility.yul\":3849:3860   */\n      0x00\n        /* \"#utility.yul\":3886:3889   */\n      dup2\n        /* \"#utility.yul\":3871:3889   */\n      swap1\n      pop\n        /* \"#utility.yul\":3748:3895   */\n      swap3\n      swap2\n      pop\n      pop\n      jump\t// out\n        /* \"#utility.yul\":3901:4049   */\n    tag_41:\n        /* \"#utility.yul\":3999:4005   */\n      dup3\n        /* \"#utility.yul\":3994:3997   */\n      dup2\n        /* \"#utility.yul\":3989:3992   */\n      dup4\n        /* \"#utility.yul\":3976:4006   */\n      calldatacopy\n        /* \"#utility.yul\":4040:4041   */\n      0x00\n        /* \"#utility.yul\":4031:4037   */\n      dup4\n        /* \"#utility.yul\":4026:4029   */\n      dup4\n        /* \"#utility.yul\":4022:4038   */\n      add\n        /* \"#utility.yul\":4015:4042   */\n      mstore\n        /* \"#utility.yul\":3901:4049   */\n      pop\n      pop\n      pop\n      jump\t// out\n        /* \"#utility.yul\":4077:4404   */\n    tag_42:\n        /* \"#utility.yul\":4191:4194   */\n      0x00\n        /* \"#utility.yul\":4212:4300   */\n      tag_94\n        /* \"#utility.yul\":4293:4299   */\n      dup4\n        /* \"#utility.yul\":4288:4291   */\n      dup6\n        /* \"#utility.yul\":4212:4300   */\n      tag_40\n      jump\t// in\n    tag_94:\n        /* \"#utility.yul\":4205:4300   */\n      swap4\n      pop\n        /* \"#utility.yul\":4310:4366   */\n      tag_95\n        /* \"#utility.yul\":4359:4365   */\n      dup4\n        /* \"#utility.yul\":4354:4357   */\n      dup6\n        /* \"#utility.yul\":4347:4352   */\n      dup5\n        /* \"#utility.yul\":4310:4366   */\n      tag_41\n      jump\t// in\n    tag_95:\n        /* \"#utility.yul\":4391:4397   */\n      dup3\n        /* \"#utility.yul\":4386:4389   */\n      dup5\n        /* \"#utility.yul\":4382:4398   */\n      add\n        /* \"#utility.yul\":4375:4398   */\n      swap1\n      pop\n        /* \"#utility.yul\":4077:4404   */\n      swap4\n      swap3\n      pop\n      pop\n      pop\n      jump\t// out\n        /* \"#utility.yul\":4410:4837   */\n    tag_15:\n        /* \"#utility.yul\":4576:4579   */\n      0x00\n        /* \"#utility.yul\":4591:4664   */\n      tag_97\n        /* \"#utility.yul\":4660:4663   */\n      dup3\n        /* \"#utility.yul\":4651:4657   */\n      dup7\n        /* \"#utility.yul\":4591:4664   */\n      tag_39\n      jump\t// in\n    tag_97:\n        /* \"#utility.yul\":4689:4690   */\n      0x04\n        /* \"#utility.yul\":4684:4687   */\n      dup3\n        /* \"#utility.yul\":4680:4691   */\n      add\n        /* \"#utility.yul\":4673:4691   */\n      swap2\n      pop\n        /* \"#utility.yul\":4708:4811   */\n      tag_98\n        /* \"#utility.yul\":4807:4810   */\n      dup3\n        /* \"#utility.yul\":4798:4804   */\n      dup5\n        /* \"#utility.yul\":4790:4796   */\n      dup7\n        /* \"#utility.yul\":4708:4811   */\n      tag_42\n      jump\t// in\n    tag_98:\n        /* \"#utility.yul\":4701:4811   */\n      swap2\n      pop\n        /* \"#utility.yul\":4828:4831   */\n      dup2\n        /* \"#utility.yul\":4821:4831   */\n      swap1\n      pop\n        /* \"#utility.yul\":4410:4837   */\n      swap5\n      swap4\n      pop\n      pop\n      pop\n      pop\n      jump\t// out\n        /* \"#utility.yul\":4843:4941   */\n    tag_43:\n        /* \"#utility.yul\":4894:4900   */\n      0x00\n        /* \"#utility.yul\":4928:4933   */\n      dup2\n        /* \"#utility.yul\":4922:4934   */\n      mload\n        /* \"#utility.yul\":4912:4934   */\n      swap1\n      pop\n        /* \"#utility.yul\":4843:4941   */\n      swap2\n      swap1\n      pop\n      jump\t// out\n        /* \"#utility.yul\":4947:5086   */\n    tag_44:\n        /* \"#utility.yul\":5036:5042   */\n      dup3\n        /* \"#utility.yul\":5031:5034   */\n      dup2\n        /* \"#utility.yul\":5026:5029   */\n      dup4\n        /* \"#utility.yul\":5020:5043   */\n      mcopy\n        /* \"#utility.yul\":5077:5078   */\n      0x00\n        /* \"#utility.yul\":5068:5074   */\n      dup4\n        /* \"#utility.yul\":5063:5066   */\n      dup4\n        /* \"#utility.yul\":5059:5075   */\n      add\n        /* \"#utility.yul\":5052:5079   */\n      mstore\n        /* \"#utility.yul\":4947:5086   */\n      pop\n      pop\n      pop\n      jump\t// out\n        /* \"#utility.yul\":5092:5478   */\n    tag_45:\n        /* \"#utility.yul\":5196:5199   */\n      0x00\n        /* \"#utility.yul\":5224:5262   */\n      tag_102\n        /* \"#utility.yul\":5256:5261   */\n      dup3\n        /* \"#utility.yul\":5224:5262   */\n      tag_43\n      jump\t// in\n    tag_102:\n        /* \"#utility.yul\":5278:5366   */\n      tag_103\n        /* \"#utility.yul\":5359:5365   */\n      dup2\n        /* \"#utility.yul\":5354:5357   */\n      dup6\n        /* \"#utility.yul\":5278:5366   */\n      tag_40\n      jump\t// in\n    tag_103:\n        /* \"#utility.yul\":5271:5366   */\n      swap4\n      pop\n        /* \"#utility.yul\":5375:5440   */\n      tag_104\n        /* \"#utility.yul\":5433:5439   */\n      dup2\n        /* \"#utility.yul\":5428:5431   */\n      dup6\n        /* \"#utility.yul\":5421:5425   */\n      0x20\n        /* \"#utility.yul\":5414:5419   */\n      dup7\n        /* \"#utility.yul\":5410:5426   */\n      add\n        /* \"#utility.yul\":5375:5440   */\n      tag_44\n      jump\t// in\n    tag_104:\n        /* \"#utility.yul\":5465:5471   */\n      dup1\n        /* \"#utility.yul\":5460:5463   */\n      dup5\n        /* \"#utility.yul\":5456:5472   */\n      add\n        /* \"#utility.yul\":5449:5472   */\n      swap2\n      pop\n        /* \"#utility.yul\":5200:5478   */\n      pop\n        /* \"#utility.yul\":5092:5478   */\n      swap3\n      swap2\n      pop\n      pop\n      jump\t// out\n        /* \"#utility.yul\":5484:5755   */\n    tag_17:\n        /* \"#utility.yul\":5614:5617   */\n      0x00\n        /* \"#utility.yul\":5636:5729   */\n      tag_106\n        /* \"#utility.yul\":5725:5728   */\n      dup3\n        /* \"#utility.yul\":5716:5722   */\n      dup5\n        /* \"#utility.yul\":5636:5729   */\n      tag_45\n      jump\t// in\n    tag_106:\n        /* \"#utility.yul\":5629:5729   */\n      swap2\n      pop\n        /* \"#utility.yul\":5746:5749   */\n      dup2\n        /* \"#utility.yul\":5739:5749   */\n      swap1\n      pop\n        /* \"#utility.yul\":5484:5755   */\n      swap3\n      swap2\n      pop\n      pop\n      jump\t// out\n\n    auxdata: 0xa2646970667358221220b512ed6e79ef31a9f29730591b211f07e63b498d10d00750eda9806de1ede4fe64736f6c634300081a0033\n}\n",
				"bytecode": {
					"linkReferences": {},
					"object": "608060405234801561000f575f80fd5b50604051610538380380610538833981810160405281019061003191906100e5565b805f806101000a81548173ffffffffffffffffffffffffffffffffffffffff021916908373ffffffffffffffffffffffffffffffffffffffff16021790555050610110565b5f80fd5b5f73ffffffffffffffffffffffffffffffffffffffff82169050919050565b5f6100a38261007a565b9050919050565b5f6100b482610099565b9050919050565b6100c4816100aa565b81146100ce575f80fd5b50565b5f815190506100df816100bb565b92915050565b5f602082840312156100fa576100f9610076565b5b5f610107848285016100d1565b91505092915050565b61041b8061011d5f395ff3fe608060405234801561000f575f80fd5b5060043610610034575f3560e01c8063d4b8399214610038578063def38fda14610056575b5f80fd5b610040610072565b60405161004d91906101ce565b60405180910390f35b610070600480360381019061006b91906102a5565b610095565b005b5f8054906101000a900473ffffffffffffffffffffffffffffffffffffffff1681565b5f8383836040516020016100ab9392919061035e565b60405160208183030381529060405290505f805f9054906101000a900473ffffffffffffffffffffffffffffffffffffffff1673ffffffffffffffffffffffffffffffffffffffff168260405161010291906103cf565b5f604051808303815f865af19150503d805f811461013b576040519150601f19603f3d011682016040523d82523d5f602084013e610140565b606091505b505090508061014d575f80fd5b5050505050565b5f73ffffffffffffffffffffffffffffffffffffffff82169050919050565b5f819050919050565b5f61019661019161018c84610154565b610173565b610154565b9050919050565b5f6101a78261017c565b9050919050565b5f6101b88261019d565b9050919050565b6101c8816101ae565b82525050565b5f6020820190506101e15f8301846101bf565b92915050565b5f80fd5b5f80fd5b5f7fffffffff0000000000000000000000000000000000000000000000000000000082169050919050565b610223816101ef565b811461022d575f80fd5b50565b5f8135905061023e8161021a565b92915050565b5f80fd5b5f80fd5b5f80fd5b5f8083601f84011261026557610264610244565b5b8235905067ffffffffffffffff81111561028257610281610248565b5b60208301915083600182028301111561029e5761029d61024c565b5b9250929050565b5f805f604084860312156102bc576102bb6101e7565b5b5f6102c986828701610230565b935050602084013567ffffffffffffffff8111156102ea576102e96101eb565b5b6102f686828701610250565b92509250509250925092565b5f819050919050565b61031c610317826101ef565b610302565b82525050565b5f81905092915050565b828183375f83830152505050565b5f6103458385610322565b935061035283858461032c565b82840190509392505050565b5f610369828661030b565b60048201915061037a82848661033a565b9150819050949350505050565b5f81519050919050565b8281835e5f83830152505050565b5f6103a982610387565b6103b38185610322565b93506103c3818560208601610391565b80840191505092915050565b5f6103da828461039f565b91508190509291505056fea2646970667358221220b512ed6e79ef31a9f29730591b211f07e63b498d10d00750eda9806de1ede4fe64736f6c634300081a0033",
					"opcodes": "PUSH1 0x80 PUSH1 0x40 MSTORE CALLVALUE DUP1 ISZERO PUSH2 0xF JUMPI PUSH0 DUP1 REVERT JUMPDEST POP PUSH1 0x40 MLOAD PUSH2 0x538 CODESIZE SUB DUP1 PUSH2 0x538 DUP4 CODECOPY DUP2 DUP2 ADD PUSH1 0x40 MSTORE DUP2 ADD SWAP1 PUSH2 0x31 SWAP2 SWAP1 PUSH2 0xE5 JUMP JUMPDEST DUP1 PUSH0 DUP1 PUSH2 0x100 EXP DUP2 SLOAD DUP2 PUSH20 0xFFFFFFFFFFFFFFFFFFFFFFFFFFFFFFFFFFFFFFFF MUL NOT AND SWAP1 DUP4 PUSH20 0xFFFFFFFFFFFFFFFFFFFFFFFFFFFFFFFFFFFFFFFF AND MUL OR SWAP1 SSTORE POP POP PUSH2 0x110 JUMP JUMPDEST PUSH0 DUP1 REVERT JUMPDEST PUSH0 PUSH20 0xFFFFFFFFFFFFFFFFFFFFFFFFFFFFFFFFFFFFFFFF DUP3 AND SWAP1 POP SWAP2 SWAP1 POP JUMP JUMPDEST PUSH0 PUSH2 0xA3 DUP3 PUSH2 0x7A JUMP JUMPDEST SWAP1 POP SWAP2 SWAP1 POP JUMP JUMPDEST PUSH0 PUSH2 0xB4 DUP3 PUSH2 0x99 JUMP JUMPDEST SWAP1 POP SWAP2 SWAP1 POP JUMP JUMPDEST PUSH2 0xC4 DUP2 PUSH2 0xAA JUMP JUMPDEST DUP2 EQ PUSH2 0xCE JUMPI PUSH0 DUP1 REVERT JUMPDEST POP JUMP JUMPDEST PUSH0 DUP2 MLOAD SWAP1 POP PUSH2 0xDF DUP2 PUSH2 0xBB JUMP JUMPDEST SWAP3 SWAP2 POP POP JUMP JUMPDEST PUSH0 PUSH1 0x20 DUP3 DUP5 SUB SLT ISZERO PUSH2 0xFA JUMPI PUSH2 0xF9 PUSH2 0x76 JUMP JUMPDEST JUMPDEST PUSH0 PUSH2 0x107 DUP5 DUP3 DUP6 ADD PUSH2 0xD1 JUMP JUMPDEST SWAP2 POP POP SWAP3 SWAP2 POP POP JUMP JUMPDEST PUSH2 0x41B DUP1 PUSH2 0x11D PUSH0 CODECOPY PUSH0 RETURN INVALID PUSH1 0x80 PUSH1 0x40 MSTORE CALLVALUE DUP1 ISZERO PUSH2 0xF JUMPI PUSH0 DUP1 REVERT JUMPDEST POP PUSH1 0x4 CALLDATASIZE LT PUSH2 0x34 JUMPI PUSH0 CALLDATALOAD PUSH1 0xE0 SHR DUP1 PUSH4 0xD4B83992 EQ PUSH2 0x38 JUMPI DUP1 PUSH4 0xDEF38FDA EQ PUSH2 0x56 JUMPI JUMPDEST PUSH0 DUP1 REVERT JUMPDEST PUSH2 0x40 PUSH2 0x72 JUMP JUMPDEST PUSH1 0x40 MLOAD PUSH2 0x4D SWAP2 SWAP1 PUSH2 0x1CE JUMP JUMPDEST PUSH1 0x40 MLOAD DUP1 SWAP2 SUB SWAP1 RETURN JUMPDEST PUSH2 0x70 PUSH1 0x4 DUP1 CALLDATASIZE SUB DUP2 ADD SWAP1 PUSH2 0x6B SWAP2 SWAP1 PUSH2 0x2A5 JUMP JUMPDEST PUSH2 0x95 JUMP JUMPDEST STOP JUMPDEST PUSH0 DUP1 SLOAD SWAP1 PUSH2 0x100 EXP SWAP1 DIV PUSH20 0xFFFFFFFFFFFFFFFFFFFFFFFFFFFFFFFFFFFFFFFF AND DUP2 JUMP JUMPDEST PUSH0 DUP4 DUP4 DUP4 PUSH1 0x40 MLOAD PUSH1 0x20 ADD PUSH2 0xAB SWAP4 SWAP3 SWAP2 SWAP1 PUSH2 0x35E JUMP JUMPDEST PUSH1 0x40 MLOAD PUSH1 0x20 DUP2 DUP4 SUB SUB DUP2 MSTORE SWAP1 PUSH1 0x40 MSTORE SWAP1 POP PUSH0 DUP1 PUSH0 SWAP1 SLOAD SWAP1 PUSH2 0x100 EXP SWAP1 DIV PUSH20 0xFFFFFFFFFFFFFFFFFFFFFFFFFFFFFFFFFFFFFFFF AND PUSH20 0xFFFFFFFFFFFFFFFFFFFFFFFFFFFFFFFFFFFFFFFF AND DUP3 PUSH1 0x40 MLOAD PUSH2 0x102 SWAP2 SWAP1 PUSH2 0x3CF JUMP JUMPDEST PUSH0 PUSH1 0x40 MLOAD DUP1 DUP4 SUB DUP2 PUSH0 DUP7 GAS CALL SWAP2 POP POP RETURNDATASIZE DUP1 PUSH0 DUP2 EQ PUSH2 0x13B JUMPI PUSH1 0x40 MLOAD SWAP2 POP PUSH1 0x1F NOT PUSH1 0x3F RETURNDATASIZE ADD AND DUP3 ADD PUSH1 0x40 MSTORE RETURNDATASIZE DUP3 MSTORE RETURNDATASIZE PUSH0 PUSH1 0x20 DUP5 ADD RETURNDATACOPY PUSH2 0x140 JUMP JUMPDEST PUSH1 0x60 SWAP2 POP JUMPDEST POP POP SWAP1 POP DUP1 PUSH2 0x14D JUMPI PUSH0 DUP1 REVERT JUMPDEST POP POP POP POP POP JUMP JUMPDEST PUSH0 PUSH20 0xFFFFFFFFFFFFFFFFFFFFFFFFFFFFFFFFFFFFFFFF DUP3 AND SWAP1 POP SWAP2 SWAP1 POP JUMP JUMPDEST PUSH0 DUP2 SWAP1 POP SWAP2 SWAP1 POP JUMP JUMPDEST PUSH0 PUSH2 0x196 PUSH2 0x191 PUSH2 0x18C DUP5 PUSH2 0x154 JUMP JUMPDEST PUSH2 0x173 JUMP JUMPDEST PUSH2 0x154 JUMP JUMPDEST SWAP1 POP SWAP2 SWAP1 POP JUMP JUMPDEST PUSH0 PUSH2 0x1A7 DUP3 PUSH2 0x17C JUMP JUMPDEST SWAP1 POP SWAP2 SWAP1 POP JUMP JUMPDEST PUSH0 PUSH2 0x1B8 DUP3 PUSH2 0x19D JUMP JUMPDEST SWAP1 POP SWAP2 SWAP1 POP JUMP JUMPDEST PUSH2 0x1C8 DUP2 PUSH2 0x1AE JUMP JUMPDEST DUP3 MSTORE POP POP JUMP JUMPDEST PUSH0 PUSH1 0x20 DUP3 ADD SWAP1 POP PUSH2 0x1E1 PUSH0 DUP4 ADD DUP5 PUSH2 0x1BF JUMP JUMPDEST SWAP3 SWAP2 POP POP JUMP JUMPDEST PUSH0 DUP1 REVERT JUMPDEST PUSH0 DUP1 REVERT JUMPDEST PUSH0 PUSH32 0xFFFFFFFF00000000000000000000000000000000000000000000000000000000 DUP3 AND SWAP1 POP SWAP2 SWAP1 POP JUMP JUMPDEST PUSH2 0x223 DUP2 PUSH2 0x1EF JUMP JUMPDEST DUP2 EQ PUSH2 0x22D JUMPI PUSH0 DUP1 REVERT JUMPDEST POP JUMP JUMPDEST PUSH0 DUP2 CALLDATALOAD SWAP1 POP PUSH2 0x23E DUP2 PUSH2 0x21A JUMP JUMPDEST SWAP3 SWAP2 POP POP JUMP JUMPDEST PUSH0 DUP1 REVERT JUMPDEST PUSH0 DUP1 REVERT JUMPDEST PUSH0 DUP1 REVERT JUMPDEST PUSH0 DUP1 DUP4 PUSH1 0x1F DUP5 ADD SLT PUSH2 0x265 JUMPI PUSH2 0x264 PUSH2 0x244 JUMP JUMPDEST JUMPDEST DUP3 CALLDATALOAD SWAP1 POP PUSH8 0xFFFFFFFFFFFFFFFF DUP2 GT ISZERO PUSH2 0x282 JUMPI PUSH2 0x281 PUSH2 0x248 JUMP JUMPDEST JUMPDEST PUSH1 0x20 DUP4 ADD SWAP2 POP DUP4 PUSH1 0x1 DUP3 MUL DUP4 ADD GT ISZERO PUSH2 0x29E JUMPI PUSH2 0x29D PUSH2 0x24C JUMP JUMPDEST JUMPDEST SWAP3 POP SWAP3 SWAP1 POP JUMP JUMPDEST PUSH0 DUP1 PUSH0 PUSH1 0x40 DUP5 DUP7 SUB SLT ISZERO PUSH2 0x2BC JUMPI PUSH2 0x2BB PUSH2 0x1E7 JUMP JUMPDEST JUMPDEST PUSH0 PUSH2 0x2C9 DUP7 DUP3 DUP8 ADD PUSH2 0x230 JUMP JUMPDEST SWAP4 POP POP PUSH1 0x20 DUP5 ADD CALLDATALOAD PUSH8 0xFFFFFFFFFFFFFFFF DUP2 GT ISZERO PUSH2 0x2EA JUMPI PUSH2 0x2E9 PUSH2 0x1EB JUMP JUMPDEST JUMPDEST PUSH2 0x2F6 DUP7 DUP3 DUP8 ADD PUSH2 0x250 JUMP JUMPDEST SWAP3 POP SWAP3 POP POP SWAP3 POP SWAP3 POP SWAP3 JUMP JUMPDEST PUSH0 DUP2 SWAP1 POP SWAP2 SWAP1 POP JUMP JUMPDEST PUSH2 0x31C PUSH2 0x317 DUP3 PUSH2 0x1EF JUMP JUMPDEST PUSH2 0x302 JUMP JUMPDEST DUP3 MSTORE POP POP JUMP JUMPDEST PUSH0 DUP2 SWAP1 POP SWAP3 SWAP2 POP POP JUMP JUMPDEST DUP3 DUP2 DUP4 CALLDATACOPY PUSH0 DUP4 DUP4 ADD MSTORE POP POP POP JUMP JUMPDEST PUSH0 PUSH2 0x345 DUP4 DUP6 PUSH2 0x322 JUMP JUMPDEST SWAP4 POP PUSH2 0x352 DUP4 DUP6 DUP5 PUSH2 0x32C JUMP JUMPDEST DUP3 DUP5 ADD SWAP1 POP SWAP4 SWAP3 POP POP POP JUMP JUMPDEST PUSH0 PUSH2 0x369 DUP3 DUP7 PUSH2 0x30B JUMP JUMPDEST PUSH1 0x4 DUP3 ADD SWAP2 POP PUSH2 0x37A DUP3 DUP5 DUP7 PUSH2 0x33A JUMP JUMPDEST SWAP2 POP DUP2 SWAP1 POP SWAP5 SWAP4 POP POP POP POP JUMP JUMPDEST PUSH0 DUP2 MLOAD SWAP1 POP SWAP2 SWAP1 POP JUMP JUMPDEST DUP3 DUP2 DUP4 MCOPY PUSH0 DUP4 DUP4 ADD MSTORE POP POP POP JUMP JUMPDEST PUSH0 PUSH2 0x3A9 DUP3 PUSH2 0x387 JUMP JUMPDEST PUSH2 0x3B3 DUP2 DUP6 PUSH2 0x322 JUMP JUMPDEST SWAP4 POP PUSH2 0x3C3 DUP2 DUP6 PUSH1 0x20 DUP7 ADD PUSH2 0x391 JUMP JUMPDEST DUP1 DUP5 ADD SWAP2 POP POP SWAP3 SWAP2 POP POP JUMP JUMPDEST PUSH0 PUSH2 0x3DA DUP3 DUP5 PUSH2 0x39F JUMP JUMPDEST SWAP2 POP DUP2 SWAP1 POP SWAP3 SWAP2 POP POP JUMP INVALID LOG2 PUSH5 0x6970667358 0x22 SLT KECCAK256 0xB5 SLT 0xED PUSH15 0x79EF31A9F29730591B211F07E63B49 DUP14 LT 0xD0 SMOD POP 0xED 0xA9 DUP1 PUSH14 0xE1EDE4FE64736F6C634300081A00 CALLER "
				},
				"gasEstimates": {
					"creation": {
						"codeDepositCost": "210200",
						"executionCost": "infinite",
						"totalCost": "infinite"
					},
					"external": {
						"exploit(bytes4,bytes)": "infinite",
						"target()": "infinite"
					}
				},
				"methodIdentifiers": {
					"exploit(bytes4,bytes)": "def38fda",
					"target()": "d4b83992"
				}
			},
			"storageLayout": {
				"storage": [
					{
						"astId": 160,
						"contract": "S/Shell/Shell.sol:Attack_WebShell",
						"label": "target",
						"offset": 0,
						"slot": "0",
						"type": "t_contract(WebShellVuln)156"
					}
				],
				"types": {
					"t_contract(WebShellVuln)156": {
						"encoding": "inplace",
						"label": "contract WebShellVuln",
						"numberOfBytes": "20"
					}
				}
			},
			"userdoc": {
				"kind": "user",
				"methods": {},
				"notice": "Attack: invoke arbitrary function via fallback",
				"version": 1
			}
		}
	}
}