{
	"S/Shell/Shell.sol": {
		"ShellcodeLoaderSafe": {
			"abi": [
				{
					"inputs": [
						{
							"internalType": "address[]",
							"name": "libs",
							"type": "address[]"
						}
					],
					"stateMutability": "nonpayable",
					"type": "constructor"
				},
				{
					"inputs": [],
					"name": "Loader__NotApproved",
					"type": "error"
				},
				{
					"inputs": [],
					"name": "Loader__NotOwner",
					"type": "error"
				},
				{
					"anonymous": false,
					"inputs": [
						{
							"indexed": false,
							"internalType": "address",
							"name": "lib",
							"type": "address"
						}
					],
					"name": "Approved",
					"type": "event"
				},
				{
					"inputs": [
						{
							"internalType": "address",
							"name": "lib",
							"type": "address"
						}
					],
					"name": "approveLib",
					"outputs": [],
					"stateMutability": "nonpayable",
					"type": "function"
				},
				{
					"inputs": [
						{
							"internalType": "address",
							"name": "",
							"type": "address"
						}
					],
					"name": "approved",
					"outputs": [
						{
							"internalType": "bool",
							"name": "",
							"type": "bool"
						}
					],
					"stateMutability": "view",
					"type": "function"
				},
				{
					"inputs": [
						{
							"internalType": "address",
							"name": "lib",
							"type": "address"
						},
						{
							"internalType": "bytes",
							"name": "data",
							"type": "bytes"
						}
					],
					"name": "load",
					"outputs": [
						{
							"internalType": "bytes",
							"name": "",
							"type": "bytes"
						}
					],
					"stateMutability": "payable",
					"type": "function"
				},
				{
					"inputs": [],
					"name": "owner",
					"outputs": [
						{
							"internalType": "address",
							"name": "",
							"type": "address"
						}
					],
					"stateMutability": "view",
					"type": "function"
				}
			],
			"devdoc": {
				"kind": "dev",
				"methods": {},
				"version": 1
			},
			"evm": {
				"assembly": "    /* \"S/Shell/Shell.sol\":5700:6531  contract ShellcodeLoaderSafe {... */\n  mstore(0x40, 0xa0)\n    /* \"S/Shell/Shell.sol\":5852:5991  constructor(address[] memory libs) {... */\n  callvalue\n  dup1\n  iszero\n  tag_1\n  jumpi\n  0x00\n  dup1\n  revert\ntag_1:\n  pop\n  mload(0x40)\n  sub(codesize, bytecodeSize)\n  dup1\n  bytecodeSize\n  dup4\n  codecopy\n  dup2\n  dup2\n  add\n  0x40\n  mstore\n  dup2\n  add\n  swap1\n  tag_2\n  swap2\n  swap1\n  tag_3\n  jump\t// in\ntag_2:\n    /* \"S/Shell/Shell.sol\":5905:5915  msg.sender */\n  caller\n    /* \"S/Shell/Shell.sol\":5897:5915  owner = msg.sender */\n  0xffffffffffffffffffffffffffffffffffffffff\n  and\n  0x80\n  dup2\n  0xffffffffffffffffffffffffffffffffffffffff\n  and\n  dup2\n  mstore\n  pop\n  pop\n    /* \"S/Shell/Shell.sol\":5930:5936  uint i */\n  0x00\n    /* \"S/Shell/Shell.sol\":5925:5984  for (uint i; i < libs.length; i++) approved[libs[i]] = true */\ntag_6:\n    /* \"S/Shell/Shell.sol\":5942:5946  libs */\n  dup2\n    /* \"S/Shell/Shell.sol\":5942:5953  libs.length */\n  mload\n    /* \"S/Shell/Shell.sol\":5938:5939  i */\n  dup2\n    /* \"S/Shell/Shell.sol\":5938:5953  i < libs.length */\n  lt\n    /* \"S/Shell/Shell.sol\":5925:5984  for (uint i; i < libs.length; i++) approved[libs[i]] = true */\n  iszero\n  tag_7\n  jumpi\n    /* \"S/Shell/Shell.sol\":5980:5984  true */\n  0x01\n    /* \"S/Shell/Shell.sol\":5960:5968  approved */\n  0x00\n    /* \"S/Shell/Shell.sol\":5960:5977  approved[libs[i]] */\n  dup1\n    /* \"S/Shell/Shell.sol\":5969:5973  libs */\n  dup5\n    /* \"S/Shell/Shell.sol\":5974:5975  i */\n  dup5\n    /* \"S/Shell/Shell.sol\":5969:5976  libs[i] */\n  dup2\n  mload\n  dup2\n  lt\n  tag_9\n  jumpi\n  tag_10\n  tag_11\n  jump\t// in\ntag_10:\ntag_9:\n  0x20\n  mul\n  0x20\n  add\n  add\n  mload\n    /* \"S/Shell/Shell.sol\":5960:5977  approved[libs[i]] */\n  0xffffffffffffffffffffffffffffffffffffffff\n  and\n  0xffffffffffffffffffffffffffffffffffffffff\n  and\n  dup2\n  mstore\n  0x20\n  add\n  swap1\n  dup2\n  mstore\n  0x20\n  add\n  0x00\n  keccak256\n  0x00\n    /* \"S/Shell/Shell.sol\":5960:5984  approved[libs[i]] = true */\n  0x0100\n  exp\n  dup2\n  sload\n  dup2\n  0xff\n  mul\n  not\n  and\n  swap1\n  dup4\n  iszero\n  iszero\n  mul\n  or\n  swap1\n  sstore\n  pop\n    /* \"S/Shell/Shell.sol\":5955:5958  i++ */\n  dup1\n  dup1\n  0x01\n  add\n  swap2\n  pop\n  pop\n    /* \"S/Shell/Shell.sol\":5925:5984  for (uint i; i < libs.length; i++) approved[libs[i]] = true */\n  jump(tag_6)\ntag_7:\n  pop\n    /* \"S/Shell/Shell.sol\":5852:5991  constructor(address[] memory libs) {... */\n  pop\n    /* \"S/Shell/Shell.sol\":5700:6531  contract ShellcodeLoaderSafe {... */\n  jump(tag_12)\n    /* \"#utility.yul\":7:82   */\ntag_13:\n    /* \"#utility.yul\":40:46   */\n  0x00\n    /* \"#utility.yul\":73:75   */\n  0x40\n    /* \"#utility.yul\":67:76   */\n  mload\n    /* \"#utility.yul\":57:76   */\n  swap1\n  pop\n    /* \"#utility.yul\":7:82   */\n  swap1\n  jump\t// out\n    /* \"#utility.yul\":88:205   */\ntag_14:\n    /* \"#utility.yul\":197:198   */\n  0x00\n    /* \"#utility.yul\":194:195   */\n  dup1\n    /* \"#utility.yul\":187:199   */\n  revert\n    /* \"#utility.yul\":211:328   */\ntag_15:\n    /* \"#utility.yul\":320:321   */\n  0x00\n    /* \"#utility.yul\":317:318   */\n  dup1\n    /* \"#utility.yul\":310:322   */\n  revert\n    /* \"#utility.yul\":334:451   */\ntag_16:\n    /* \"#utility.yul\":443:444   */\n  0x00\n    /* \"#utility.yul\":440:441   */\n  dup1\n    /* \"#utility.yul\":433:445   */\n  revert\n    /* \"#utility.yul\":457:559   */\ntag_17:\n    /* \"#utility.yul\":498:504   */\n  0x00\n    /* \"#utility.yul\":549:551   */\n  0x1f\n    /* \"#utility.yul\":545:552   */\n  not\n    /* \"#utility.yul\":540:542   */\n  0x1f\n    /* \"#utility.yul\":533:538   */\n  dup4\n    /* \"#utility.yul\":529:543   */\n  add\n    /* \"#utility.yul\":525:553   */\n  and\n    /* \"#utility.yul\":515:553   */\n  swap1\n  pop\n    /* \"#utility.yul\":457:559   */\n  swap2\n  swap1\n  pop\n  jump\t// out\n    /* \"#utility.yul\":565:745   */\ntag_18:\n    /* \"#utility.yul\":613:690   */\n  0x4e487b7100000000000000000000000000000000000000000000000000000000\n    /* \"#utility.yul\":610:611   */\n  0x00\n    /* \"#utility.yul\":603:691   */\n  mstore\n    /* \"#utility.yul\":710:714   */\n  0x41\n    /* \"#utility.yul\":707:708   */\n  0x04\n    /* \"#utility.yul\":700:715   */\n  mstore\n    /* \"#utility.yul\":734:738   */\n  0x24\n    /* \"#utility.yul\":731:732   */\n  0x00\n    /* \"#utility.yul\":724:739   */\n  revert\n    /* \"#utility.yul\":751:1032   */\ntag_19:\n    /* \"#utility.yul\":834:861   */\n  tag_37\n    /* \"#utility.yul\":856:860   */\n  dup3\n    /* \"#utility.yul\":834:861   */\n  tag_17\n  jump\t// in\ntag_37:\n    /* \"#utility.yul\":826:832   */\n  dup2\n    /* \"#utility.yul\":822:862   */\n  add\n    /* \"#utility.yul\":964:970   */\n  dup2\n    /* \"#utility.yul\":952:962   */\n  dup2\n    /* \"#utility.yul\":949:971   */\n  lt\n    /* \"#utility.yul\":928:946   */\n  0xffffffffffffffff\n    /* \"#utility.yul\":916:926   */\n  dup3\n    /* \"#utility.yul\":913:947   */\n  gt\n    /* \"#utility.yul\":910:972   */\n  or\n    /* \"#utility.yul\":907:995   */\n  iszero\n  tag_38\n  jumpi\n    /* \"#utility.yul\":975:993   */\n  tag_39\n  tag_18\n  jump\t// in\ntag_39:\n    /* \"#utility.yul\":907:995   */\ntag_38:\n    /* \"#utility.yul\":1015:1025   */\n  dup1\n    /* \"#utility.yul\":1011:1013   */\n  0x40\n    /* \"#utility.yul\":1004:1026   */\n  mstore\n    /* \"#utility.yul\":794:1032   */\n  pop\n    /* \"#utility.yul\":751:1032   */\n  pop\n  pop\n  jump\t// out\n    /* \"#utility.yul\":1038:1167   */\ntag_20:\n    /* \"#utility.yul\":1072:1078   */\n  0x00\n    /* \"#utility.yul\":1099:1119   */\n  tag_41\n  tag_13\n  jump\t// in\ntag_41:\n    /* \"#utility.yul\":1089:1119   */\n  swap1\n  pop\n    /* \"#utility.yul\":1128:1161   */\n  tag_42\n    /* \"#utility.yul\":1156:1160   */\n  dup3\n    /* \"#utility.yul\":1148:1154   */\n  dup3\n    /* \"#utility.yul\":1128:1161   */\n  tag_19\n  jump\t// in\ntag_42:\n    /* \"#utility.yul\":1038:1167   */\n  swap2\n  swap1\n  pop\n  jump\t// out\n    /* \"#utility.yul\":1173:1484   */\ntag_21:\n    /* \"#utility.yul\":1250:1254   */\n  0x00\n    /* \"#utility.yul\":1340:1358   */\n  0xffffffffffffffff\n    /* \"#utility.yul\":1332:1338   */\n  dup3\n    /* \"#utility.yul\":1329:1359   */\n  gt\n    /* \"#utility.yul\":1326:1382   */\n  iszero\n  tag_44\n  jumpi\n    /* \"#utility.yul\":1362:1380   */\n  tag_45\n  tag_18\n  jump\t// in\ntag_45:\n    /* \"#utility.yul\":1326:1382   */\ntag_44:\n    /* \"#utility.yul\":1412:1416   */\n  0x20\n    /* \"#utility.yul\":1404:1410   */\n  dup3\n    /* \"#utility.yul\":1400:1417   */\n  mul\n    /* \"#utility.yul\":1392:1417   */\n  swap1\n  pop\n    /* \"#utility.yul\":1472:1476   */\n  0x20\n    /* \"#utility.yul\":1466:1470   */\n  dup2\n    /* \"#utility.yul\":1462:1477   */\n  add\n    /* \"#utility.yul\":1454:1477   */\n  swap1\n  pop\n    /* \"#utility.yul\":1173:1484   */\n  swap2\n  swap1\n  pop\n  jump\t// out\n    /* \"#utility.yul\":1490:1607   */\ntag_22:\n    /* \"#utility.yul\":1599:1600   */\n  0x00\n    /* \"#utility.yul\":1596:1597   */\n  dup1\n    /* \"#utility.yul\":1589:1601   */\n  revert\n    /* \"#utility.yul\":1613:1739   */\ntag_23:\n    /* \"#utility.yul\":1650:1657   */\n  0x00\n    /* \"#utility.yul\":1690:1732   */\n  0xffffffffffffffffffffffffffffffffffffffff\n    /* \"#utility.yul\":1683:1688   */\n  dup3\n    /* \"#utility.yul\":1679:1733   */\n  and\n    /* \"#utility.yul\":1668:1733   */\n  swap1\n  pop\n    /* \"#utility.yul\":1613:1739   */\n  swap2\n  swap1\n  pop\n  jump\t// out\n    /* \"#utility.yul\":1745:1841   */\ntag_24:\n    /* \"#utility.yul\":1782:1789   */\n  0x00\n    /* \"#utility.yul\":1811:1835   */\n  tag_49\n    /* \"#utility.yul\":1829:1834   */\n  dup3\n    /* \"#utility.yul\":1811:1835   */\n  tag_23\n  jump\t// in\ntag_49:\n    /* \"#utility.yul\":1800:1835   */\n  swap1\n  pop\n    /* \"#utility.yul\":1745:1841   */\n  swap2\n  swap1\n  pop\n  jump\t// out\n    /* \"#utility.yul\":1847:1969   */\ntag_25:\n    /* \"#utility.yul\":1920:1944   */\n  tag_51\n    /* \"#utility.yul\":1938:1943   */\n  dup2\n    /* \"#utility.yul\":1920:1944   */\n  tag_24\n  jump\t// in\ntag_51:\n    /* \"#utility.yul\":1913:1918   */\n  dup2\n    /* \"#utility.yul\":1910:1945   */\n  eq\n    /* \"#utility.yul\":1900:1963   */\n  tag_52\n  jumpi\n    /* \"#utility.yul\":1959:1960   */\n  0x00\n    /* \"#utility.yul\":1956:1957   */\n  dup1\n    /* \"#utility.yul\":1949:1961   */\n  revert\n    /* \"#utility.yul\":1900:1963   */\ntag_52:\n    /* \"#utility.yul\":1847:1969   */\n  pop\n  jump\t// out\n    /* \"#utility.yul\":1975:2118   */\ntag_26:\n    /* \"#utility.yul\":2032:2037   */\n  0x00\n    /* \"#utility.yul\":2063:2069   */\n  dup2\n    /* \"#utility.yul\":2057:2070   */\n  mload\n    /* \"#utility.yul\":2048:2070   */\n  swap1\n  pop\n    /* \"#utility.yul\":2079:2112   */\n  tag_54\n    /* \"#utility.yul\":2106:2111   */\n  dup2\n    /* \"#utility.yul\":2079:2112   */\n  tag_25\n  jump\t// in\ntag_54:\n    /* \"#utility.yul\":1975:2118   */\n  swap3\n  swap2\n  pop\n  pop\n  jump\t// out\n    /* \"#utility.yul\":2141:2873   */\ntag_27:\n    /* \"#utility.yul\":2248:2253   */\n  0x00\n    /* \"#utility.yul\":2273:2354   */\n  tag_56\n    /* \"#utility.yul\":2289:2353   */\n  tag_57\n    /* \"#utility.yul\":2346:2352   */\n  dup5\n    /* \"#utility.yul\":2289:2353   */\n  tag_21\n  jump\t// in\ntag_57:\n    /* \"#utility.yul\":2273:2354   */\n  tag_20\n  jump\t// in\ntag_56:\n    /* \"#utility.yul\":2264:2354   */\n  swap1\n  pop\n    /* \"#utility.yul\":2374:2379   */\n  dup1\n    /* \"#utility.yul\":2403:2409   */\n  dup4\n    /* \"#utility.yul\":2396:2401   */\n  dup3\n    /* \"#utility.yul\":2389:2410   */\n  mstore\n    /* \"#utility.yul\":2437:2441   */\n  0x20\n    /* \"#utility.yul\":2430:2435   */\n  dup3\n    /* \"#utility.yul\":2426:2442   */\n  add\n    /* \"#utility.yul\":2419:2442   */\n  swap1\n  pop\n    /* \"#utility.yul\":2490:2494   */\n  0x20\n    /* \"#utility.yul\":2482:2488   */\n  dup5\n    /* \"#utility.yul\":2478:2495   */\n  mul\n    /* \"#utility.yul\":2470:2476   */\n  dup4\n    /* \"#utility.yul\":2466:2496   */\n  add\n    /* \"#utility.yul\":2519:2522   */\n  dup6\n    /* \"#utility.yul\":2511:2517   */\n  dup2\n    /* \"#utility.yul\":2508:2523   */\n  gt\n    /* \"#utility.yul\":2505:2627   */\n  iszero\n  tag_58\n  jumpi\n    /* \"#utility.yul\":2538:2617   */\n  tag_59\n  tag_22\n  jump\t// in\ntag_59:\n    /* \"#utility.yul\":2505:2627   */\ntag_58:\n    /* \"#utility.yul\":2653:2659   */\n  dup4\n    /* \"#utility.yul\":2636:2867   */\ntag_60:\n    /* \"#utility.yul\":2670:2676   */\n  dup2\n    /* \"#utility.yul\":2665:2668   */\n  dup2\n    /* \"#utility.yul\":2662:2677   */\n  lt\n    /* \"#utility.yul\":2636:2867   */\n  iszero\n  tag_62\n  jumpi\n    /* \"#utility.yul\":2745:2748   */\n  dup1\n    /* \"#utility.yul\":2774:2822   */\n  tag_63\n    /* \"#utility.yul\":2818:2821   */\n  dup9\n    /* \"#utility.yul\":2806:2816   */\n  dup3\n    /* \"#utility.yul\":2774:2822   */\n  tag_26\n  jump\t// in\ntag_63:\n    /* \"#utility.yul\":2769:2772   */\n  dup5\n    /* \"#utility.yul\":2762:2823   */\n  mstore\n    /* \"#utility.yul\":2852:2856   */\n  0x20\n    /* \"#utility.yul\":2847:2850   */\n  dup5\n    /* \"#utility.yul\":2843:2857   */\n  add\n    /* \"#utility.yul\":2836:2857   */\n  swap4\n  pop\n    /* \"#utility.yul\":2712:2867   */\n  pop\n    /* \"#utility.yul\":2696:2700   */\n  0x20\n    /* \"#utility.yul\":2691:2694   */\n  dup2\n    /* \"#utility.yul\":2687:2701   */\n  add\n    /* \"#utility.yul\":2680:2701   */\n  swap1\n  pop\n    /* \"#utility.yul\":2636:2867   */\n  jump(tag_60)\ntag_62:\n    /* \"#utility.yul\":2640:2661   */\n  pop\n    /* \"#utility.yul\":2254:2873   */\n  pop\n  pop\n    /* \"#utility.yul\":2141:2873   */\n  swap4\n  swap3\n  pop\n  pop\n  pop\n  jump\t// out\n    /* \"#utility.yul\":2896:3281   */\ntag_28:\n    /* \"#utility.yul\":2978:2983   */\n  0x00\n    /* \"#utility.yul\":3027:3030   */\n  dup3\n    /* \"#utility.yul\":3020:3024   */\n  0x1f\n    /* \"#utility.yul\":3012:3018   */\n  dup4\n    /* \"#utility.yul\":3008:3025   */\n  add\n    /* \"#utility.yul\":3004:3031   */\n  slt\n    /* \"#utility.yul\":2994:3116   */\n  tag_65\n  jumpi\n    /* \"#utility.yul\":3035:3114   */\n  tag_66\n  tag_16\n  jump\t// in\ntag_66:\n    /* \"#utility.yul\":2994:3116   */\ntag_65:\n    /* \"#utility.yul\":3145:3151   */\n  dup2\n    /* \"#utility.yul\":3139:3152   */\n  mload\n    /* \"#utility.yul\":3170:3275   */\n  tag_67\n    /* \"#utility.yul\":3271:3274   */\n  dup5\n    /* \"#utility.yul\":3263:3269   */\n  dup3\n    /* \"#utility.yul\":3256:3260   */\n  0x20\n    /* \"#utility.yul\":3248:3254   */\n  dup7\n    /* \"#utility.yul\":3244:3261   */\n  add\n    /* \"#utility.yul\":3170:3275   */\n  tag_27\n  jump\t// in\ntag_67:\n    /* \"#utility.yul\":3161:3275   */\n  swap2\n  pop\n    /* \"#utility.yul\":2984:3281   */\n  pop\n    /* \"#utility.yul\":2896:3281   */\n  swap3\n  swap2\n  pop\n  pop\n  jump\t// out\n    /* \"#utility.yul\":3287:3841   */\ntag_3:\n    /* \"#utility.yul\":3382:3388   */\n  0x00\n    /* \"#utility.yul\":3431:3433   */\n  0x20\n    /* \"#utility.yul\":3419:3428   */\n  dup3\n    /* \"#utility.yul\":3410:3417   */\n  dup5\n    /* \"#utility.yul\":3406:3429   */\n  sub\n    /* \"#utility.yul\":3402:3434   */\n  slt\n    /* \"#utility.yul\":3399:3518   */\n  iszero\n  tag_69\n  jumpi\n    /* \"#utility.yul\":3437:3516   */\n  tag_70\n  tag_14\n  jump\t// in\ntag_70:\n    /* \"#utility.yul\":3399:3518   */\ntag_69:\n    /* \"#utility.yul\":3578:3579   */\n  0x00\n    /* \"#utility.yul\":3567:3576   */\n  dup3\n    /* \"#utility.yul\":3563:3580   */\n  add\n    /* \"#utility.yul\":3557:3581   */\n  mload\n    /* \"#utility.yul\":3608:3626   */\n  0xffffffffffffffff\n    /* \"#utility.yul\":3600:3606   */\n  dup2\n    /* \"#utility.yul\":3597:3627   */\n  gt\n    /* \"#utility.yul\":3594:3711   */\n  iszero\n  tag_71\n  jumpi\n    /* \"#utility.yul\":3630:3709   */\n  tag_72\n  tag_15\n  jump\t// in\ntag_72:\n    /* \"#utility.yul\":3594:3711   */\ntag_71:\n    /* \"#utility.yul\":3735:3824   */\n  tag_73\n    /* \"#utility.yul\":3816:3823   */\n  dup5\n    /* \"#utility.yul\":3807:3813   */\n  dup3\n    /* \"#utility.yul\":3796:3805   */\n  dup6\n    /* \"#utility.yul\":3792:3814   */\n  add\n    /* \"#utility.yul\":3735:3824   */\n  tag_28\n  jump\t// in\ntag_73:\n    /* \"#utility.yul\":3725:3824   */\n  swap2\n  pop\n    /* \"#utility.yul\":3528:3834   */\n  pop\n    /* \"#utility.yul\":3287:3841   */\n  swap3\n  swap2\n  pop\n  pop\n  jump\t// out\n    /* \"#utility.yul\":3847:4027   */\ntag_11:\n    /* \"#utility.yul\":3895:3972   */\n  0x4e487b7100000000000000000000000000000000000000000000000000000000\n    /* \"#utility.yul\":3892:3893   */\n  0x00\n    /* \"#utility.yul\":3885:3973   */\n  mstore\n    /* \"#utility.yul\":3992:3996   */\n  0x32\n    /* \"#utility.yul\":3989:3990   */\n  0x04\n    /* \"#utility.yul\":3982:3997   */\n  mstore\n    /* \"#utility.yul\":4016:4020   */\n  0x24\n    /* \"#utility.yul\":4013:4014   */\n  0x00\n    /* \"#utility.yul\":4006:4021   */\n  revert\n    /* \"S/Shell/Shell.sol\":5700:6531  contract ShellcodeLoaderSafe {... */\ntag_12:\n  mload(0x80)\n  codecopy(0x00, dataOffset(sub_0), dataSize(sub_0))\n  0x00\n  assignImmutable(\"0x74af0cf009313e3c0d92464af6a8b6afccd4848a55d5ef8dac37109dbdba36ea\")\n  return(0x00, dataSize(sub_0))\nstop\n\nsub_0: assembly {\n        /* \"S/Shell/Shell.sol\":5700:6531  contract ShellcodeLoaderSafe {... */\n      mstore(0x40, 0x80)\n      jumpi(tag_1, lt(calldatasize, 0x04))\n      shr(0xe0, calldataload(0x00))\n      dup1\n      0x8da5cb5b\n      eq\n      tag_2\n      jumpi\n      dup1\n      0xc40a8f62\n      eq\n      tag_3\n      jumpi\n      dup1\n      0xd8b964e6\n      eq\n      tag_4\n      jumpi\n      dup1\n      0xf6fe5e5b\n      eq\n      tag_5\n      jumpi\n    tag_1:\n      0x00\n      dup1\n      revert\n        /* \"S/Shell/Shell.sol\":5735:5765  address public immutable owner */\n    tag_2:\n      callvalue\n      dup1\n      iszero\n      tag_6\n      jumpi\n      0x00\n      dup1\n      revert\n    tag_6:\n      pop\n      tag_7\n      tag_8\n      jump\t// in\n    tag_7:\n      mload(0x40)\n      tag_9\n      swap2\n      swap1\n      tag_10\n      jump\t// in\n    tag_9:\n      mload(0x40)\n      dup1\n      swap2\n      sub\n      swap1\n      return\n        /* \"S/Shell/Shell.sol\":6250:6529  function load(address lib, bytes calldata data) external payable returns (bytes memory) {... */\n    tag_3:\n      tag_11\n      0x04\n      dup1\n      calldatasize\n      sub\n      dup2\n      add\n      swap1\n      tag_12\n      swap2\n      swap1\n      tag_13\n      jump\t// in\n    tag_12:\n      tag_14\n      jump\t// in\n    tag_11:\n      mload(0x40)\n      tag_15\n      swap2\n      swap1\n      tag_16\n      jump\t// in\n    tag_15:\n      mload(0x40)\n      dup1\n      swap2\n      sub\n      swap1\n      return\n        /* \"S/Shell/Shell.sol\":5771:5811  mapping(address => bool) public approved */\n    tag_4:\n      callvalue\n      dup1\n      iszero\n      tag_17\n      jumpi\n      0x00\n      dup1\n      revert\n    tag_17:\n      pop\n      tag_18\n      0x04\n      dup1\n      calldatasize\n      sub\n      dup2\n      add\n      swap1\n      tag_19\n      swap2\n      swap1\n      tag_20\n      jump\t// in\n    tag_19:\n      tag_21\n      jump\t// in\n    tag_18:\n      mload(0x40)\n      tag_22\n      swap2\n      swap1\n      tag_23\n      jump\t// in\n    tag_22:\n      mload(0x40)\n      dup1\n      swap2\n      sub\n      swap1\n      return\n        /* \"S/Shell/Shell.sol\":6034:6201  function approveLib(address lib) external {... */\n    tag_5:\n      callvalue\n      dup1\n      iszero\n      tag_24\n      jumpi\n      0x00\n      dup1\n      revert\n    tag_24:\n      pop\n      tag_25\n      0x04\n      dup1\n      calldatasize\n      sub\n      dup2\n      add\n      swap1\n      tag_26\n      swap2\n      swap1\n      tag_20\n      jump\t// in\n    tag_26:\n      tag_27\n      jump\t// in\n    tag_25:\n      stop\n        /* \"S/Shell/Shell.sol\":5735:5765  address public immutable owner */\n    tag_8:\n      immutable(\"0x74af0cf009313e3c0d92464af6a8b6afccd4848a55d5ef8dac37109dbdba36ea\")\n      dup2\n      jump\t// out\n        /* \"S/Shell/Shell.sol\":6250:6529  function load(address lib, bytes calldata data) external payable returns (bytes memory) {... */\n    tag_14:\n        /* \"S/Shell/Shell.sol\":6324:6336  bytes memory */\n      0x60\n        /* \"S/Shell/Shell.sol\":6353:6361  approved */\n      0x00\n        /* \"S/Shell/Shell.sol\":6353:6366  approved[lib] */\n      dup1\n        /* \"S/Shell/Shell.sol\":6362:6365  lib */\n      dup6\n        /* \"S/Shell/Shell.sol\":6353:6366  approved[lib] */\n      0xffffffffffffffffffffffffffffffffffffffff\n      and\n      0xffffffffffffffffffffffffffffffffffffffff\n      and\n      dup2\n      mstore\n      0x20\n      add\n      swap1\n      dup2\n      mstore\n      0x20\n      add\n      0x00\n      keccak256\n      0x00\n      swap1\n      sload\n      swap1\n      0x0100\n      exp\n      swap1\n      div\n      0xff\n      and\n        /* \"S/Shell/Shell.sol\":6348:6396  if (!approved[lib]) revert Loader__NotApproved() */\n      tag_29\n      jumpi\n        /* \"S/Shell/Shell.sol\":6375:6396  Loader__NotApproved() */\n      mload(0x40)\n      0x43052aea00000000000000000000000000000000000000000000000000000000\n      dup2\n      mstore\n      0x04\n      add\n      mload(0x40)\n      dup1\n      swap2\n      sub\n      swap1\n      revert\n        /* \"S/Shell/Shell.sol\":6348:6396  if (!approved[lib]) revert Loader__NotApproved() */\n    tag_29:\n        /* \"S/Shell/Shell.sol\":6407:6414  bool ok */\n      0x00\n        /* \"S/Shell/Shell.sol\":6416:6432  bytes memory ret */\n      dup1\n        /* \"S/Shell/Shell.sol\":6436:6439  lib */\n      dup6\n        /* \"S/Shell/Shell.sol\":6436:6452  lib.delegatecall */\n      0xffffffffffffffffffffffffffffffffffffffff\n      and\n        /* \"S/Shell/Shell.sol\":6453:6457  data */\n      dup6\n      dup6\n        /* \"S/Shell/Shell.sol\":6436:6458  lib.delegatecall(data) */\n      mload(0x40)\n      tag_30\n      swap3\n      swap2\n      swap1\n      tag_31\n      jump\t// in\n    tag_30:\n      0x00\n      mload(0x40)\n      dup1\n      dup4\n      sub\n      dup2\n      dup6\n      gas\n      delegatecall\n      swap2\n      pop\n      pop\n      returndatasize\n      dup1\n      0x00\n      dup2\n      eq\n      tag_34\n      jumpi\n      mload(0x40)\n      swap2\n      pop\n      and(add(returndatasize, 0x3f), not(0x1f))\n      dup3\n      add\n      0x40\n      mstore\n      returndatasize\n      dup3\n      mstore\n      returndatasize\n      0x00\n      0x20\n      dup5\n      add\n      returndatacopy\n      jump(tag_33)\n    tag_34:\n      0x60\n      swap2\n      pop\n    tag_33:\n      pop\n        /* \"S/Shell/Shell.sol\":6406:6458  (bool ok, bytes memory ret) = lib.delegatecall(data) */\n      swap2\n      pop\n      swap2\n      pop\n        /* \"S/Shell/Shell.sol\":6476:6478  ok */\n      dup2\n        /* \"S/Shell/Shell.sol\":6468:6502  require(ok, \"delegatecall failed\") */\n      tag_35\n      jumpi\n      mload(0x40)\n      0x08c379a000000000000000000000000000000000000000000000000000000000\n      dup2\n      mstore\n      0x04\n      add\n      tag_36\n      swap1\n      tag_37\n      jump\t// in\n    tag_36:\n      mload(0x40)\n      dup1\n      swap2\n      sub\n      swap1\n      revert\n    tag_35:\n        /* \"S/Shell/Shell.sol\":6519:6522  ret */\n      dup1\n        /* \"S/Shell/Shell.sol\":6512:6522  return ret */\n      swap3\n      pop\n      pop\n      pop\n        /* \"S/Shell/Shell.sol\":6250:6529  function load(address lib, bytes calldata data) external payable returns (bytes memory) {... */\n      swap4\n      swap3\n      pop\n      pop\n      pop\n      jump\t// out\n        /* \"S/Shell/Shell.sol\":5771:5811  mapping(address => bool) public approved */\n    tag_21:\n      mstore(0x20, 0x00)\n      dup1\n      0x00\n      mstore\n      keccak256(0x00, 0x40)\n      0x00\n      swap2\n      pop\n      sload\n      swap1\n      0x0100\n      exp\n      swap1\n      div\n      0xff\n      and\n      dup2\n      jump\t// out\n        /* \"S/Shell/Shell.sol\":6034:6201  function approveLib(address lib) external {... */\n    tag_27:\n        /* \"S/Shell/Shell.sol\":6104:6109  owner */\n      immutable(\"0x74af0cf009313e3c0d92464af6a8b6afccd4848a55d5ef8dac37109dbdba36ea\")\n        /* \"S/Shell/Shell.sol\":6090:6109  msg.sender != owner */\n      0xffffffffffffffffffffffffffffffffffffffff\n      and\n        /* \"S/Shell/Shell.sol\":6090:6100  msg.sender */\n      caller\n        /* \"S/Shell/Shell.sol\":6090:6109  msg.sender != owner */\n      0xffffffffffffffffffffffffffffffffffffffff\n      and\n      eq\n        /* \"S/Shell/Shell.sol\":6086:6136  if (msg.sender != owner) revert Loader__NotOwner() */\n      tag_39\n      jumpi\n        /* \"S/Shell/Shell.sol\":6118:6136  Loader__NotOwner() */\n      mload(0x40)\n      0xf781105300000000000000000000000000000000000000000000000000000000\n      dup2\n      mstore\n      0x04\n      add\n      mload(0x40)\n      dup1\n      swap2\n      sub\n      swap1\n      revert\n        /* \"S/Shell/Shell.sol\":6086:6136  if (msg.sender != owner) revert Loader__NotOwner() */\n    tag_39:\n        /* \"S/Shell/Shell.sol\":6162:6166  true */\n      0x01\n        /* \"S/Shell/Shell.sol\":6146:6154  approved */\n      0x00\n        /* \"S/Shell/Shell.sol\":6146:6159  approved[lib] */\n      dup1\n        /* \"S/Shell/Shell.sol\":6155:6158  lib */\n      dup4\n        /* \"S/Shell/Shell.sol\":6146:6159  approved[lib] */\n      0xffffffffffffffffffffffffffffffffffffffff\n      and\n      0xffffffffffffffffffffffffffffffffffffffff\n      and\n      dup2\n      mstore\n      0x20\n      add\n      swap1\n      dup2\n      mstore\n      0x20\n      add\n      0x00\n      keccak256\n      0x00\n        /* \"S/Shell/Shell.sol\":6146:6166  approved[lib] = true */\n      0x0100\n      exp\n      dup2\n      sload\n      dup2\n      0xff\n      mul\n      not\n      and\n      swap1\n      dup4\n      iszero\n      iszero\n      mul\n      or\n      swap1\n      sstore\n      pop\n        /* \"S/Shell/Shell.sol\":6181:6194  Approved(lib) */\n      0x5d91bd0cecc45fef102af61de92c5462fadc884a5ce9d21c15e8a85198f2349e\n        /* \"S/Shell/Shell.sol\":6190:6193  lib */\n      dup2\n        /* \"S/Shell/Shell.sol\":6181:6194  Approved(lib) */\n      mload(0x40)\n      tag_40\n      swap2\n      swap1\n      tag_10\n      jump\t// in\n    tag_40:\n      mload(0x40)\n      dup1\n      swap2\n      sub\n      swap1\n      log1\n        /* \"S/Shell/Shell.sol\":6034:6201  function approveLib(address lib) external {... */\n      pop\n      jump\t// out\n        /* \"#utility.yul\":7:133   */\n    tag_41:\n        /* \"#utility.yul\":44:51   */\n      0x00\n        /* \"#utility.yul\":84:126   */\n      0xffffffffffffffffffffffffffffffffffffffff\n        /* \"#utility.yul\":77:82   */\n      dup3\n        /* \"#utility.yul\":73:127   */\n      and\n        /* \"#utility.yul\":62:127   */\n      swap1\n      pop\n        /* \"#utility.yul\":7:133   */\n      swap2\n      swap1\n      pop\n      jump\t// out\n        /* \"#utility.yul\":139:235   */\n    tag_42:\n        /* \"#utility.yul\":176:183   */\n      0x00\n        /* \"#utility.yul\":205:229   */\n      tag_69\n        /* \"#utility.yul\":223:228   */\n      dup3\n        /* \"#utility.yul\":205:229   */\n      tag_41\n      jump\t// in\n    tag_69:\n        /* \"#utility.yul\":194:229   */\n      swap1\n      pop\n        /* \"#utility.yul\":139:235   */\n      swap2\n      swap1\n      pop\n      jump\t// out\n        /* \"#utility.yul\":241:359   */\n    tag_43:\n        /* \"#utility.yul\":328:352   */\n      tag_71\n        /* \"#utility.yul\":346:351   */\n      dup2\n        /* \"#utility.yul\":328:352   */\n      tag_42\n      jump\t// in\n    tag_71:\n        /* \"#utility.yul\":323:326   */\n      dup3\n        /* \"#utility.yul\":316:353   */\n      mstore\n        /* \"#utility.yul\":241:359   */\n      pop\n      pop\n      jump\t// out\n        /* \"#utility.yul\":365:587   */\n    tag_10:\n        /* \"#utility.yul\":458:462   */\n      0x00\n        /* \"#utility.yul\":496:498   */\n      0x20\n        /* \"#utility.yul\":485:494   */\n      dup3\n        /* \"#utility.yul\":481:499   */\n      add\n        /* \"#utility.yul\":473:499   */\n      swap1\n      pop\n        /* \"#utility.yul\":509:580   */\n      tag_73\n        /* \"#utility.yul\":577:578   */\n      0x00\n        /* \"#utility.yul\":566:575   */\n      dup4\n        /* \"#utility.yul\":562:579   */\n      add\n        /* \"#utility.yul\":553:559   */\n      dup5\n        /* \"#utility.yul\":509:580   */\n      tag_43\n      jump\t// in\n    tag_73:\n        /* \"#utility.yul\":365:587   */\n      swap3\n      swap2\n      pop\n      pop\n      jump\t// out\n        /* \"#utility.yul\":674:791   */\n    tag_45:\n        /* \"#utility.yul\":783:784   */\n      0x00\n        /* \"#utility.yul\":780:781   */\n      dup1\n        /* \"#utility.yul\":773:785   */\n      revert\n        /* \"#utility.yul\":797:914   */\n    tag_46:\n        /* \"#utility.yul\":906:907   */\n      0x00\n        /* \"#utility.yul\":903:904   */\n      dup1\n        /* \"#utility.yul\":896:908   */\n      revert\n        /* \"#utility.yul\":920:1042   */\n    tag_47:\n        /* \"#utility.yul\":993:1017   */\n      tag_78\n        /* \"#utility.yul\":1011:1016   */\n      dup2\n        /* \"#utility.yul\":993:1017   */\n      tag_42\n      jump\t// in\n    tag_78:\n        /* \"#utility.yul\":986:991   */\n      dup2\n        /* \"#utility.yul\":983:1018   */\n      eq\n        /* \"#utility.yul\":973:1036   */\n      tag_79\n      jumpi\n        /* \"#utility.yul\":1032:1033   */\n      0x00\n        /* \"#utility.yul\":1029:1030   */\n      dup1\n        /* \"#utility.yul\":1022:1034   */\n      revert\n        /* \"#utility.yul\":973:1036   */\n    tag_79:\n        /* \"#utility.yul\":920:1042   */\n      pop\n      jump\t// out\n        /* \"#utility.yul\":1048:1187   */\n    tag_48:\n        /* \"#utility.yul\":1094:1099   */\n      0x00\n        /* \"#utility.yul\":1132:1138   */\n      dup2\n        /* \"#utility.yul\":1119:1139   */\n      calldataload\n        /* \"#utility.yul\":1110:1139   */\n      swap1\n      pop\n        /* \"#utility.yul\":1148:1181   */\n      tag_81\n        /* \"#utility.yul\":1175:1180   */\n      dup2\n        /* \"#utility.yul\":1148:1181   */\n      tag_47\n      jump\t// in\n    tag_81:\n        /* \"#utility.yul\":1048:1187   */\n      swap3\n      swap2\n      pop\n      pop\n      jump\t// out\n        /* \"#utility.yul\":1193:1310   */\n    tag_49:\n        /* \"#utility.yul\":1302:1303   */\n      0x00\n        /* \"#utility.yul\":1299:1300   */\n      dup1\n        /* \"#utility.yul\":1292:1304   */\n      revert\n        /* \"#utility.yul\":1316:1433   */\n    tag_50:\n        /* \"#utility.yul\":1425:1426   */\n      0x00\n        /* \"#utility.yul\":1422:1423   */\n      dup1\n        /* \"#utility.yul\":1415:1427   */\n      revert\n        /* \"#utility.yul\":1439:1556   */\n    tag_51:\n        /* \"#utility.yul\":1548:1549   */\n      0x00\n        /* \"#utility.yul\":1545:1546   */\n      dup1\n        /* \"#utility.yul\":1538:1550   */\n      revert\n        /* \"#utility.yul\":1575:2127   */\n    tag_52:\n        /* \"#utility.yul\":1632:1640   */\n      0x00\n        /* \"#utility.yul\":1642:1648   */\n      dup1\n        /* \"#utility.yul\":1692:1695   */\n      dup4\n        /* \"#utility.yul\":1685:1689   */\n      0x1f\n        /* \"#utility.yul\":1677:1683   */\n      dup5\n        /* \"#utility.yul\":1673:1690   */\n      add\n        /* \"#utility.yul\":1669:1696   */\n      slt\n        /* \"#utility.yul\":1659:1781   */\n      tag_86\n      jumpi\n        /* \"#utility.yul\":1700:1779   */\n      tag_87\n      tag_49\n      jump\t// in\n    tag_87:\n        /* \"#utility.yul\":1659:1781   */\n    tag_86:\n        /* \"#utility.yul\":1813:1819   */\n      dup3\n        /* \"#utility.yul\":1800:1820   */\n      calldataload\n        /* \"#utility.yul\":1790:1820   */\n      swap1\n      pop\n        /* \"#utility.yul\":1843:1861   */\n      0xffffffffffffffff\n        /* \"#utility.yul\":1835:1841   */\n      dup2\n        /* \"#utility.yul\":1832:1862   */\n      gt\n        /* \"#utility.yul\":1829:1946   */\n      iszero\n      tag_88\n      jumpi\n        /* \"#utility.yul\":1865:1944   */\n      tag_89\n      tag_50\n      jump\t// in\n    tag_89:\n        /* \"#utility.yul\":1829:1946   */\n    tag_88:\n        /* \"#utility.yul\":1979:1983   */\n      0x20\n        /* \"#utility.yul\":1971:1977   */\n      dup4\n        /* \"#utility.yul\":1967:1984   */\n      add\n        /* \"#utility.yul\":1955:1984   */\n      swap2\n      pop\n        /* \"#utility.yul\":2033:2036   */\n      dup4\n        /* \"#utility.yul\":2025:2029   */\n      0x01\n        /* \"#utility.yul\":2017:2023   */\n      dup3\n        /* \"#utility.yul\":2013:2030   */\n      mul\n        /* \"#utility.yul\":2003:2011   */\n      dup4\n        /* \"#utility.yul\":1999:2031   */\n      add\n        /* \"#utility.yul\":1996:2037   */\n      gt\n        /* \"#utility.yul\":1993:2121   */\n      iszero\n      tag_90\n      jumpi\n        /* \"#utility.yul\":2040:2119   */\n      tag_91\n      tag_51\n      jump\t// in\n    tag_91:\n        /* \"#utility.yul\":1993:2121   */\n    tag_90:\n        /* \"#utility.yul\":1575:2127   */\n      swap3\n      pop\n      swap3\n      swap1\n      pop\n      jump\t// out\n        /* \"#utility.yul\":2133:2805   */\n    tag_13:\n        /* \"#utility.yul\":2212:2218   */\n      0x00\n        /* \"#utility.yul\":2220:2226   */\n      dup1\n        /* \"#utility.yul\":2228:2234   */\n      0x00\n        /* \"#utility.yul\":2277:2279   */\n      0x40\n        /* \"#utility.yul\":2265:2274   */\n      dup5\n        /* \"#utility.yul\":2256:2263   */\n      dup7\n        /* \"#utility.yul\":2252:2275   */\n      sub\n        /* \"#utility.yul\":2248:2280   */\n      slt\n        /* \"#utility.yul\":2245:2364   */\n      iszero\n      tag_93\n      jumpi\n        /* \"#utility.yul\":2283:2362   */\n      tag_94\n      tag_45\n      jump\t// in\n    tag_94:\n        /* \"#utility.yul\":2245:2364   */\n    tag_93:\n        /* \"#utility.yul\":2403:2404   */\n      0x00\n        /* \"#utility.yul\":2428:2481   */\n      tag_95\n        /* \"#utility.yul\":2473:2480   */\n      dup7\n        /* \"#utility.yul\":2464:2470   */\n      dup3\n        /* \"#utility.yul\":2453:2462   */\n      dup8\n        /* \"#utility.yul\":2449:2471   */\n      add\n        /* \"#utility.yul\":2428:2481   */\n      tag_48\n      jump\t// in\n    tag_95:\n        /* \"#utility.yul\":2418:2481   */\n      swap4\n      pop\n        /* \"#utility.yul\":2374:2491   */\n      pop\n        /* \"#utility.yul\":2558:2560   */\n      0x20\n        /* \"#utility.yul\":2547:2556   */\n      dup5\n        /* \"#utility.yul\":2543:2561   */\n      add\n        /* \"#utility.yul\":2530:2562   */\n      calldataload\n        /* \"#utility.yul\":2589:2607   */\n      0xffffffffffffffff\n        /* \"#utility.yul\":2581:2587   */\n      dup2\n        /* \"#utility.yul\":2578:2608   */\n      gt\n        /* \"#utility.yul\":2575:2692   */\n      iszero\n      tag_96\n      jumpi\n        /* \"#utility.yul\":2611:2690   */\n      tag_97\n      tag_46\n      jump\t// in\n    tag_97:\n        /* \"#utility.yul\":2575:2692   */\n    tag_96:\n        /* \"#utility.yul\":2724:2788   */\n      tag_98\n        /* \"#utility.yul\":2780:2787   */\n      dup7\n        /* \"#utility.yul\":2771:2777   */\n      dup3\n        /* \"#utility.yul\":2760:2769   */\n      dup8\n        /* \"#utility.yul\":2756:2778   */\n      add\n        /* \"#utility.yul\":2724:2788   */\n      tag_52\n      jump\t// in\n    tag_98:\n        /* \"#utility.yul\":2706:2788   */\n      swap3\n      pop\n      swap3\n      pop\n        /* \"#utility.yul\":2501:2798   */\n      pop\n        /* \"#utility.yul\":2133:2805   */\n      swap3\n      pop\n      swap3\n      pop\n      swap3\n      jump\t// out\n        /* \"#utility.yul\":2811:2909   */\n    tag_53:\n        /* \"#utility.yul\":2862:2868   */\n      0x00\n        /* \"#utility.yul\":2896:2901   */\n      dup2\n        /* \"#utility.yul\":2890:2902   */\n      mload\n        /* \"#utility.yul\":2880:2902   */\n      swap1\n      pop\n        /* \"#utility.yul\":2811:2909   */\n      swap2\n      swap1\n      pop\n      jump\t// out\n        /* \"#utility.yul\":2915:3083   */\n    tag_54:\n        /* \"#utility.yul\":2998:3009   */\n      0x00\n        /* \"#utility.yul\":3032:3038   */\n      dup3\n        /* \"#utility.yul\":3027:3030   */\n      dup3\n        /* \"#utility.yul\":3020:3039   */\n      mstore\n        /* \"#utility.yul\":3072:3076   */\n      0x20\n        /* \"#utility.yul\":3067:3070   */\n      dup3\n        /* \"#utility.yul\":3063:3077   */\n      add\n        /* \"#utility.yul\":3048:3077   */\n      swap1\n      pop\n        /* \"#utility.yul\":2915:3083   */\n      swap3\n      swap2\n      pop\n      pop\n      jump\t// out\n        /* \"#utility.yul\":3089:3228   */\n    tag_55:\n        /* \"#utility.yul\":3178:3184   */\n      dup3\n        /* \"#utility.yul\":3173:3176   */\n      dup2\n        /* \"#utility.yul\":3168:3171   */\n      dup4\n        /* \"#utility.yul\":3162:3185   */\n      mcopy\n        /* \"#utility.yul\":3219:3220   */\n      0x00\n        /* \"#utility.yul\":3210:3216   */\n      dup4\n        /* \"#utility.yul\":3205:3208   */\n      dup4\n        /* \"#utility.yul\":3201:3217   */\n      add\n        /* \"#utility.yul\":3194:3221   */\n      mstore\n        /* \"#utility.yul\":3089:3228   */\n      pop\n      pop\n      pop\n      jump\t// out\n        /* \"#utility.yul\":3234:3336   */\n    tag_56:\n        /* \"#utility.yul\":3275:3281   */\n      0x00\n        /* \"#utility.yul\":3326:3328   */\n      0x1f\n        /* \"#utility.yul\":3322:3329   */\n      not\n        /* \"#utility.yul\":3317:3319   */\n      0x1f\n        /* \"#utility.yul\":3310:3315   */\n      dup4\n        /* \"#utility.yul\":3306:3320   */\n      add\n        /* \"#utility.yul\":3302:3330   */\n      and\n        /* \"#utility.yul\":3292:3330   */\n      swap1\n      pop\n        /* \"#utility.yul\":3234:3336   */\n      swap2\n      swap1\n      pop\n      jump\t// out\n        /* \"#utility.yul\":3342:3715   */\n    tag_57:\n        /* \"#utility.yul\":3428:3431   */\n      0x00\n        /* \"#utility.yul\":3456:3494   */\n      tag_104\n        /* \"#utility.yul\":3488:3493   */\n      dup3\n        /* \"#utility.yul\":3456:3494   */\n      tag_53\n      jump\t// in\n    tag_104:\n        /* \"#utility.yul\":3510:3580   */\n      tag_105\n        /* \"#utility.yul\":3573:3579   */\n      dup2\n        /* \"#utility.yul\":3568:3571   */\n      dup6\n        /* \"#utility.yul\":3510:3580   */\n      tag_54\n      jump\t// in\n    tag_105:\n        /* \"#utility.yul\":3503:3580   */\n      swap4\n      pop\n        /* \"#utility.yul\":3589:3654   */\n      tag_106\n        /* \"#utility.yul\":3647:3653   */\n      dup2\n        /* \"#utility.yul\":3642:3645   */\n      dup6\n        /* \"#utility.yul\":3635:3639   */\n      0x20\n        /* \"#utility.yul\":3628:3633   */\n      dup7\n        /* \"#utility.yul\":3624:3640   */\n      add\n        /* \"#utility.yul\":3589:3654   */\n      tag_55\n      jump\t// in\n    tag_106:\n        /* \"#utility.yul\":3679:3708   */\n      tag_107\n        /* \"#utility.yul\":3701:3707   */\n      dup2\n        /* \"#utility.yul\":3679:3708   */\n      tag_56\n      jump\t// in\n    tag_107:\n        /* \"#utility.yul\":3674:3677   */\n      dup5\n        /* \"#utility.yul\":3670:3709   */\n      add\n        /* \"#utility.yul\":3663:3709   */\n      swap2\n      pop\n        /* \"#utility.yul\":3432:3715   */\n      pop\n        /* \"#utility.yul\":3342:3715   */\n      swap3\n      swap2\n      pop\n      pop\n      jump\t// out\n        /* \"#utility.yul\":3721:4030   */\n    tag_16:\n        /* \"#utility.yul\":3832:3836   */\n      0x00\n        /* \"#utility.yul\":3870:3872   */\n      0x20\n        /* \"#utility.yul\":3859:3868   */\n      dup3\n        /* \"#utility.yul\":3855:3873   */\n      add\n        /* \"#utility.yul\":3847:3873   */\n      swap1\n      pop\n        /* \"#utility.yul\":3919:3928   */\n      dup2\n        /* \"#utility.yul\":3913:3917   */\n      dup2\n        /* \"#utility.yul\":3909:3929   */\n      sub\n        /* \"#utility.yul\":3905:3906   */\n      0x00\n        /* \"#utility.yul\":3894:3903   */\n      dup4\n        /* \"#utility.yul\":3890:3907   */\n      add\n        /* \"#utility.yul\":3883:3930   */\n      mstore\n        /* \"#utility.yul\":3947:4023   */\n      tag_109\n        /* \"#utility.yul\":4018:4022   */\n      dup2\n        /* \"#utility.yul\":4009:4015   */\n      dup5\n        /* \"#utility.yul\":3947:4023   */\n      tag_57\n      jump\t// in\n    tag_109:\n        /* \"#utility.yul\":3939:4023   */\n      swap1\n      pop\n        /* \"#utility.yul\":3721:4030   */\n      swap3\n      swap2\n      pop\n      pop\n      jump\t// out\n        /* \"#utility.yul\":4036:4365   */\n    tag_20:\n        /* \"#utility.yul\":4095:4101   */\n      0x00\n        /* \"#utility.yul\":4144:4146   */\n      0x20\n        /* \"#utility.yul\":4132:4141   */\n      dup3\n        /* \"#utility.yul\":4123:4130   */\n      dup5\n        /* \"#utility.yul\":4119:4142   */\n      sub\n        /* \"#utility.yul\":4115:4147   */\n      slt\n        /* \"#utility.yul\":4112:4231   */\n      iszero\n      tag_111\n      jumpi\n        /* \"#utility.yul\":4150:4229   */\n      tag_112\n      tag_45\n      jump\t// in\n    tag_112:\n        /* \"#utility.yul\":4112:4231   */\n    tag_111:\n        /* \"#utility.yul\":4270:4271   */\n      0x00\n        /* \"#utility.yul\":4295:4348   */\n      tag_113\n        /* \"#utility.yul\":4340:4347   */\n      dup5\n        /* \"#utility.yul\":4331:4337   */\n      dup3\n        /* \"#utility.yul\":4320:4329   */\n      dup6\n        /* \"#utility.yul\":4316:4338   */\n      add\n        /* \"#utility.yul\":4295:4348   */\n      tag_48\n      jump\t// in\n    tag_113:\n        /* \"#utility.yul\":4285:4348   */\n      swap2\n      pop\n        /* \"#utility.yul\":4241:4358   */\n      pop\n        /* \"#utility.yul\":4036:4365   */\n      swap3\n      swap2\n      pop\n      pop\n      jump\t// out\n        /* \"#utility.yul\":4371:4461   */\n    tag_58:\n        /* \"#utility.yul\":4405:4412   */\n      0x00\n        /* \"#utility.yul\":4448:4453   */\n      dup2\n        /* \"#utility.yul\":4441:4454   */\n      iszero\n        /* \"#utility.yul\":4434:4455   */\n      iszero\n        /* \"#utility.yul\":4423:4455   */\n      swap1\n      pop\n        /* \"#utility.yul\":4371:4461   */\n      swap2\n      swap1\n      pop\n      jump\t// out\n        /* \"#utility.yul\":4467:4576   */\n    tag_59:\n        /* \"#utility.yul\":4548:4569   */\n      tag_116\n        /* \"#utility.yul\":4563:4568   */\n      dup2\n        /* \"#utility.yul\":4548:4569   */\n      tag_58\n      jump\t// in\n    tag_116:\n        /* \"#utility.yul\":4543:4546   */\n      dup3\n        /* \"#utility.yul\":4536:4570   */\n      mstore\n        /* \"#utility.yul\":4467:4576   */\n      pop\n      pop\n      jump\t// out\n        /* \"#utility.yul\":4582:4792   */\n    tag_23:\n        /* \"#utility.yul\":4669:4673   */\n      0x00\n        /* \"#utility.yul\":4707:4709   */\n      0x20\n        /* \"#utility.yul\":4696:4705   */\n      dup3\n        /* \"#utility.yul\":4692:4710   */\n      add\n        /* \"#utility.yul\":4684:4710   */\n      swap1\n      pop\n        /* \"#utility.yul\":4720:4785   */\n      tag_118\n        /* \"#utility.yul\":4782:4783   */\n      0x00\n        /* \"#utility.yul\":4771:4780   */\n      dup4\n        /* \"#utility.yul\":4767:4784   */\n      add\n        /* \"#utility.yul\":4758:4764   */\n      dup5\n        /* \"#utility.yul\":4720:4785   */\n      tag_59\n      jump\t// in\n    tag_118:\n        /* \"#utility.yul\":4582:4792   */\n      swap3\n      swap2\n      pop\n      pop\n      jump\t// out\n        /* \"#utility.yul\":4798:4945   */\n    tag_60:\n        /* \"#utility.yul\":4899:4910   */\n      0x00\n        /* \"#utility.yul\":4936:4939   */\n      dup2\n        /* \"#utility.yul\":4921:4939   */\n      swap1\n      pop\n        /* \"#utility.yul\":4798:4945   */\n      swap3\n      swap2\n      pop\n      pop\n      jump\t// out\n        /* \"#utility.yul\":4951:5099   */\n    tag_61:\n        /* \"#utility.yul\":5049:5055   */\n      dup3\n        /* \"#utility.yul\":5044:5047   */\n      dup2\n        /* \"#utility.yul\":5039:5042   */\n      dup4\n        /* \"#utility.yul\":5026:5056   */\n      calldatacopy\n        /* \"#utility.yul\":5090:5091   */\n      0x00\n        /* \"#utility.yul\":5081:5087   */\n      dup4\n        /* \"#utility.yul\":5076:5079   */\n      dup4\n        /* \"#utility.yul\":5072:5088   */\n      add\n        /* \"#utility.yul\":5065:5092   */\n      mstore\n        /* \"#utility.yul\":4951:5099   */\n      pop\n      pop\n      pop\n      jump\t// out\n        /* \"#utility.yul\":5127:5454   */\n    tag_62:\n        /* \"#utility.yul\":5241:5244   */\n      0x00\n        /* \"#utility.yul\":5262:5350   */\n      tag_122\n        /* \"#utility.yul\":5343:5349   */\n      dup4\n        /* \"#utility.yul\":5338:5341   */\n      dup6\n        /* \"#utility.yul\":5262:5350   */\n      tag_60\n      jump\t// in\n    tag_122:\n        /* \"#utility.yul\":5255:5350   */\n      swap4\n      pop\n        /* \"#utility.yul\":5360:5416   */\n      tag_123\n        /* \"#utility.yul\":5409:5415   */\n      dup4\n        /* \"#utility.yul\":5404:5407   */\n      dup6\n        /* \"#utility.yul\":5397:5402   */\n      dup5\n        /* \"#utility.yul\":5360:5416   */\n      tag_61\n      jump\t// in\n    tag_123:\n        /* \"#utility.yul\":5441:5447   */\n      dup3\n        /* \"#utility.yul\":5436:5439   */\n      dup5\n        /* \"#utility.yul\":5432:5448   */\n      add\n        /* \"#utility.yul\":5425:5448   */\n      swap1\n      pop\n        /* \"#utility.yul\":5127:5454   */\n      swap4\n      swap3\n      pop\n      pop\n      pop\n      jump\t// out\n        /* \"#utility.yul\":5460:5751   */\n    tag_31:\n        /* \"#utility.yul\":5600:5603   */\n      0x00\n        /* \"#utility.yul\":5622:5725   */\n      tag_125\n        /* \"#utility.yul\":5721:5724   */\n      dup3\n        /* \"#utility.yul\":5712:5718   */\n      dup5\n        /* \"#utility.yul\":5704:5710   */\n      dup7\n        /* \"#utility.yul\":5622:5725   */\n      tag_62\n      jump\t// in\n    tag_125:\n        /* \"#utility.yul\":5615:5725   */\n      swap2\n      pop\n        /* \"#utility.yul\":5742:5745   */\n      dup2\n        /* \"#utility.yul\":5735:5745   */\n      swap1\n      pop\n        /* \"#utility.yul\":5460:5751   */\n      swap4\n      swap3\n      pop\n      pop\n      pop\n      jump\t// out\n        /* \"#utility.yul\":5757:5926   */\n    tag_63:\n        /* \"#utility.yul\":5841:5852   */\n      0x00\n        /* \"#utility.yul\":5875:5881   */\n      dup3\n        /* \"#utility.yul\":5870:5873   */\n      dup3\n        /* \"#utility.yul\":5863:5882   */\n      mstore\n        /* \"#utility.yul\":5915:5919   */\n      0x20\n        /* \"#utility.yul\":5910:5913   */\n      dup3\n        /* \"#utility.yul\":5906:5920   */\n      add\n        /* \"#utility.yul\":5891:5920   */\n      swap1\n      pop\n        /* \"#utility.yul\":5757:5926   */\n      swap3\n      swap2\n      pop\n      pop\n      jump\t// out\n        /* \"#utility.yul\":5932:6101   */\n    tag_64:\n        /* \"#utility.yul\":6072:6093   */\n      0x64656c656761746563616c6c206661696c656400000000000000000000000000\n        /* \"#utility.yul\":6068:6069   */\n      0x00\n        /* \"#utility.yul\":6060:6066   */\n      dup3\n        /* \"#utility.yul\":6056:6070   */\n      add\n        /* \"#utility.yul\":6049:6094   */\n      mstore\n        /* \"#utility.yul\":5932:6101   */\n      pop\n      jump\t// out\n        /* \"#utility.yul\":6107:6473   */\n    tag_65:\n        /* \"#utility.yul\":6249:6252   */\n      0x00\n        /* \"#utility.yul\":6270:6337   */\n      tag_129\n        /* \"#utility.yul\":6334:6336   */\n      0x13\n        /* \"#utility.yul\":6329:6332   */\n      dup4\n        /* \"#utility.yul\":6270:6337   */\n      tag_63\n      jump\t// in\n    tag_129:\n        /* \"#utility.yul\":6263:6337   */\n      swap2\n      pop\n        /* \"#utility.yul\":6346:6439   */\n      tag_130\n        /* \"#utility.yul\":6435:6438   */\n      dup3\n        /* \"#utility.yul\":6346:6439   */\n      tag_64\n      jump\t// in\n    tag_130:\n        /* \"#utility.yul\":6464:6466   */\n      0x20\n        /* \"#utility.yul\":6459:6462   */\n      dup3\n        /* \"#utility.yul\":6455:6467   */\n      add\n        /* \"#utility.yul\":6448:6467   */\n      swap1\n      pop\n        /* \"#utility.yul\":6107:6473   */\n      swap2\n      swap1\n      pop\n      jump\t// out\n        /* \"#utility.yul\":6479:6898   */\n    tag_37:\n        /* \"#utility.yul\":6645:6649   */\n      0x00\n        /* \"#utility.yul\":6683:6685   */\n      0x20\n        /* \"#utility.yul\":6672:6681   */\n      dup3\n        /* \"#utility.yul\":6668:6686   */\n      add\n        /* \"#utility.yul\":6660:6686   */\n      swap1\n      pop\n        /* \"#utility.yul\":6732:6741   */\n      dup2\n        /* \"#utility.yul\":6726:6730   */\n      dup2\n        /* \"#utility.yul\":6722:6742   */\n      sub\n        /* \"#utility.yul\":6718:6719   */\n      0x00\n        /* \"#utility.yul\":6707:6716   */\n      dup4\n        /* \"#utility.yul\":6703:6720   */\n      add\n        /* \"#utility.yul\":6696:6743   */\n      mstore\n        /* \"#utility.yul\":6760:6891   */\n      tag_132\n        /* \"#utility.yul\":6886:6890   */\n      dup2\n        /* \"#utility.yul\":6760:6891   */\n      tag_65\n      jump\t// in\n    tag_132:\n        /* \"#utility.yul\":6752:6891   */\n      swap1\n      pop\n        /* \"#utility.yul\":6479:6898   */\n      swap2\n      swap1\n      pop\n      jump\t// out\n\n    auxdata: 0xa2646970667358221220b355aa5e37b207833039057efefa4832a6cea6deab00ee9a40fccb095632b52564736f6c634300081a0033\n}\n",
				"bytecode": {
					"linkReferences": {},
					"object": "60a060405234801561000f575f80fd5b50604051610a03380380610a03833981810160405281019061003191906102ad565b3373ffffffffffffffffffffffffffffffffffffffff1660808173ffffffffffffffffffffffffffffffffffffffff16815250505f5b81518110156100eb5760015f80848481518110610087576100866102f4565b5b602002602001015173ffffffffffffffffffffffffffffffffffffffff1673ffffffffffffffffffffffffffffffffffffffff1681526020019081526020015f205f6101000a81548160ff0219169083151502179055508080600101915050610067565b5050610321565b5f604051905090565b5f80fd5b5f80fd5b5f80fd5b5f601f19601f8301169050919050565b7f4e487b71000000000000000000000000000000000000000000000000000000005f52604160045260245ffd5b61014d82610107565b810181811067ffffffffffffffff8211171561016c5761016b610117565b5b80604052505050565b5f61017e6100f2565b905061018a8282610144565b919050565b5f67ffffffffffffffff8211156101a9576101a8610117565b5b602082029050602081019050919050565b5f80fd5b5f73ffffffffffffffffffffffffffffffffffffffff82169050919050565b5f6101e7826101be565b9050919050565b6101f7816101dd565b8114610201575f80fd5b50565b5f81519050610212816101ee565b92915050565b5f61022a6102258461018f565b610175565b9050808382526020820190506020840283018581111561024d5761024c6101ba565b5b835b8181101561027657806102628882610204565b84526020840193505060208101905061024f565b5050509392505050565b5f82601f83011261029457610293610103565b5b81516102a4848260208601610218565b91505092915050565b5f602082840312156102c2576102c16100fb565b5b5f82015167ffffffffffffffff8111156102df576102de6100ff565b5b6102eb84828501610280565b91505092915050565b7f4e487b71000000000000000000000000000000000000000000000000000000005f52603260045260245ffd5b6080516106c36103405f395f8181610102015261027a01526106c35ff3fe60806040526004361061003e575f3560e01c80638da5cb5b14610042578063c40a8f621461006c578063d8b964e61461009c578063f6fe5e5b146100d8575b5f80fd5b34801561004d575f80fd5b50610056610100565b60405161006391906103ca565b60405180910390f35b61008660048036038101906100819190610476565b610124565b6040516100939190610543565b60405180910390f35b3480156100a7575f80fd5b506100c260048036038101906100bd9190610563565b61025c565b6040516100cf91906105a8565b60405180910390f35b3480156100e3575f80fd5b506100fe60048036038101906100f99190610563565b610278565b005b7f000000000000000000000000000000000000000000000000000000000000000081565b60605f808573ffffffffffffffffffffffffffffffffffffffff1673ffffffffffffffffffffffffffffffffffffffff1681526020019081526020015f205f9054906101000a900460ff166101a5576040517f43052aea00000000000000000000000000000000000000000000000000000000815260040160405180910390fd5b5f808573ffffffffffffffffffffffffffffffffffffffff1685856040516101ce9291906105fd565b5f60405180830381855af49150503d805f8114610206576040519150601f19603f3d011682016040523d82523d5f602084013e61020b565b606091505b509150915081610250576040517f08c379a00000000000000000000000000000000000000000000000000000000081526004016102479061066f565b60405180910390fd5b80925050509392505050565b5f602052805f5260405f205f915054906101000a900460ff1681565b7f000000000000000000000000000000000000000000000000000000000000000073ffffffffffffffffffffffffffffffffffffffff163373ffffffffffffffffffffffffffffffffffffffff16146102fd576040517ff781105300000000000000000000000000000000000000000000000000000000815260040160405180910390fd5b60015f808373ffffffffffffffffffffffffffffffffffffffff1673ffffffffffffffffffffffffffffffffffffffff1681526020019081526020015f205f6101000a81548160ff0219169083151502179055507f5d91bd0cecc45fef102af61de92c5462fadc884a5ce9d21c15e8a85198f2349e8160405161038091906103ca565b60405180910390a150565b5f73ffffffffffffffffffffffffffffffffffffffff82169050919050565b5f6103b48261038b565b9050919050565b6103c4816103aa565b82525050565b5f6020820190506103dd5f8301846103bb565b92915050565b5f80fd5b5f80fd5b6103f4816103aa565b81146103fe575f80fd5b50565b5f8135905061040f816103eb565b92915050565b5f80fd5b5f80fd5b5f80fd5b5f8083601f84011261043657610435610415565b5b8235905067ffffffffffffffff81111561045357610452610419565b5b60208301915083600182028301111561046f5761046e61041d565b5b9250929050565b5f805f6040848603121561048d5761048c6103e3565b5b5f61049a86828701610401565b935050602084013567ffffffffffffffff8111156104bb576104ba6103e7565b5b6104c786828701610421565b92509250509250925092565b5f81519050919050565b5f82825260208201905092915050565b8281835e5f83830152505050565b5f601f19601f8301169050919050565b5f610515826104d3565b61051f81856104dd565b935061052f8185602086016104ed565b610538816104fb565b840191505092915050565b5f6020820190508181035f83015261055b818461050b565b905092915050565b5f60208284031215610578576105776103e3565b5b5f61058584828501610401565b91505092915050565b5f8115159050919050565b6105a28161058e565b82525050565b5f6020820190506105bb5f830184610599565b92915050565b5f81905092915050565b828183375f83830152505050565b5f6105e483856105c1565b93506105f18385846105cb565b82840190509392505050565b5f6106098284866105d9565b91508190509392505050565b5f82825260208201905092915050565b7f64656c656761746563616c6c206661696c6564000000000000000000000000005f82015250565b5f610659601383610615565b915061066482610625565b602082019050919050565b5f6020820190508181035f8301526106868161064d565b905091905056fea2646970667358221220b355aa5e37b207833039057efefa4832a6cea6deab00ee9a40fccb095632b52564736f6c634300081a0033",
					"opcodes": "PUSH1 0xA0 PUSH1 0x40 MSTORE CALLVALUE DUP1 ISZERO PUSH2 0xF JUMPI PUSH0 DUP1 REVERT JUMPDEST POP PUSH1 0x40 MLOAD PUSH2 0xA03 CODESIZE SUB DUP1 PUSH2 0xA03 DUP4 CODECOPY DUP2 DUP2 ADD PUSH1 0x40 MSTORE DUP2 ADD SWAP1 PUSH2 0x31 SWAP2 SWAP1 PUSH2 0x2AD JUMP JUMPDEST CALLER PUSH20 0xFFFFFFFFFFFFFFFFFFFFFFFFFFFFFFFFFFFFFFFF AND PUSH1 0x80 DUP2 PUSH20 0xFFFFFFFFFFFFFFFFFFFFFFFFFFFFFFFFFFFFFFFF AND DUP2 MSTORE POP POP PUSH0 JUMPDEST DUP2 MLOAD DUP2 LT ISZERO PUSH2 0xEB JUMPI PUSH1 0x1 PUSH0 DUP1 DUP5 DUP5 DUP2 MLOAD DUP2 LT PUSH2 0x87 JUMPI PUSH2 0x86 PUSH2 0x2F4 JUMP JUMPDEST JUMPDEST PUSH1 0x20 MUL PUSH1 0x20 ADD ADD MLOAD PUSH20 0xFFFFFFFFFFFFFFFFFFFFFFFFFFFFFFFFFFFFFFFF AND PUSH20 0xFFFFFFFFFFFFFFFFFFFFFFFFFFFFFFFFFFFFFFFF AND DUP2 MSTORE PUSH1 0x20 ADD SWAP1 DUP2 MSTORE PUSH1 0x20 ADD PUSH0 KECCAK256 PUSH0 PUSH2 0x100 EXP DUP2 SLOAD DUP2 PUSH1 0xFF MUL NOT AND SWAP1 DUP4 ISZERO ISZERO MUL OR SWAP1 SSTORE POP DUP1 DUP1 PUSH1 0x1 ADD SWAP2 POP POP PUSH2 0x67 JUMP JUMPDEST POP POP PUSH2 0x321 JUMP JUMPDEST PUSH0 PUSH1 0x40 MLOAD SWAP1 POP SWAP1 JUMP JUMPDEST PUSH0 DUP1 REVERT JUMPDEST PUSH0 DUP1 REVERT JUMPDEST PUSH0 DUP1 REVERT JUMPDEST PUSH0 PUSH1 0x1F NOT PUSH1 0x1F DUP4 ADD AND SWAP1 POP SWAP2 SWAP1 POP JUMP JUMPDEST PUSH32 0x4E487B7100000000000000000000000000000000000000000000000000000000 PUSH0 MSTORE PUSH1 0x41 PUSH1 0x4 MSTORE PUSH1 0x24 PUSH0 REVERT JUMPDEST PUSH2 0x14D DUP3 PUSH2 0x107 JUMP JUMPDEST DUP2 ADD DUP2 DUP2 LT PUSH8 0xFFFFFFFFFFFFFFFF DUP3 GT OR ISZERO PUSH2 0x16C JUMPI PUSH2 0x16B PUSH2 0x117 JUMP JUMPDEST JUMPDEST DUP1 PUSH1 0x40 MSTORE POP POP POP JUMP JUMPDEST PUSH0 PUSH2 0x17E PUSH2 0xF2 JUMP JUMPDEST SWAP1 POP PUSH2 0x18A DUP3 DUP3 PUSH2 0x144 JUMP JUMPDEST SWAP2 SWAP1 POP JUMP JUMPDEST PUSH0 PUSH8 0xFFFFFFFFFFFFFFFF DUP3 GT ISZERO PUSH2 0x1A9 JUMPI PUSH2 0x1A8 PUSH2 0x117 JUMP JUMPDEST JUMPDEST PUSH1 0x20 DUP3 MUL SWAP1 POP PUSH1 0x20 DUP2 ADD SWAP1 POP SWAP2 SWAP1 POP JUMP JUMPDEST PUSH0 DUP1 REVERT JUMPDEST PUSH0 PUSH20 0xFFFFFFFFFFFFFFFFFFFFFFFFFFFFFFFFFFFFFFFF DUP3 AND SWAP1 POP SWAP2 SWAP1 POP JUMP JUMPDEST PUSH0 PUSH2 0x1E7 DUP3 PUSH2 0x1BE JUMP JUMPDEST SWAP1 POP SWAP2 SWAP1 POP JUMP JUMPDEST PUSH2 0x1F7 DUP2 PUSH2 0x1DD JUMP JUMPDEST DUP2 EQ PUSH2 0x201 JUMPI PUSH0 DUP1 REVERT JUMPDEST POP JUMP JUMPDEST PUSH0 DUP2 MLOAD SWAP1 POP PUSH2 0x212 DUP2 PUSH2 0x1EE JUMP JUMPDEST SWAP3 SWAP2 POP POP JUMP JUMPDEST PUSH0 PUSH2 0x22A PUSH2 0x225 DUP5 PUSH2 0x18F JUMP JUMPDEST PUSH2 0x175 JUMP JUMPDEST SWAP1 POP DUP1 DUP4 DUP3 MSTORE PUSH1 0x20 DUP3 ADD SWAP1 POP PUSH1 0x20 DUP5 MUL DUP4 ADD DUP6 DUP2 GT ISZERO PUSH2 0x24D JUMPI PUSH2 0x24C PUSH2 0x1BA JUMP JUMPDEST JUMPDEST DUP4 JUMPDEST DUP2 DUP2 LT ISZERO PUSH2 0x276 JUMPI DUP1 PUSH2 0x262 DUP9 DUP3 PUSH2 0x204 JUMP JUMPDEST DUP5 MSTORE PUSH1 0x20 DUP5 ADD SWAP4 POP POP PUSH1 0x20 DUP2 ADD SWAP1 POP PUSH2 0x24F JUMP JUMPDEST POP POP POP SWAP4 SWAP3 POP POP POP JUMP JUMPDEST PUSH0 DUP3 PUSH1 0x1F DUP4 ADD SLT PUSH2 0x294 JUMPI PUSH2 0x293 PUSH2 0x103 JUMP JUMPDEST JUMPDEST DUP2 MLOAD PUSH2 0x2A4 DUP5 DUP3 PUSH1 0x20 DUP7 ADD PUSH2 0x218 JUMP JUMPDEST SWAP2 POP POP SWAP3 SWAP2 POP POP JUMP JUMPDEST PUSH0 PUSH1 0x20 DUP3 DUP5 SUB SLT ISZERO PUSH2 0x2C2 JUMPI PUSH2 0x2C1 PUSH2 0xFB JUMP JUMPDEST JUMPDEST PUSH0 DUP3 ADD MLOAD PUSH8 0xFFFFFFFFFFFFFFFF DUP2 GT ISZERO PUSH2 0x2DF JUMPI PUSH2 0x2DE PUSH2 0xFF JUMP JUMPDEST JUMPDEST PUSH2 0x2EB DUP5 DUP3 DUP6 ADD PUSH2 0x280 JUMP JUMPDEST SWAP2 POP POP SWAP3 SWAP2 POP POP JUMP JUMPDEST PUSH32 0x4E487B7100000000000000000000000000000000000000000000000000000000 PUSH0 MSTORE PUSH1 0x32 PUSH1 0x4 MSTORE PUSH1 0x24 PUSH0 REVERT JUMPDEST PUSH1 0x80 MLOAD PUSH2 0x6C3 PUSH2 0x340 PUSH0 CODECOPY PUSH0 DUP2 DUP2 PUSH2 0x102 ADD MSTORE PUSH2 0x27A ADD MSTORE PUSH2 0x6C3 PUSH0 RETURN INVALID PUSH1 0x80 PUSH1 0x40 MSTORE PUSH1 0x4 CALLDATASIZE LT PUSH2 0x3E JUMPI PUSH0 CALLDATALOAD PUSH1 0xE0 SHR DUP1 PUSH4 0x8DA5CB5B EQ PUSH2 0x42 JUMPI DUP1 PUSH4 0xC40A8F62 EQ PUSH2 0x6C JUMPI DUP1 PUSH4 0xD8B964E6 EQ PUSH2 0x9C JUMPI DUP1 PUSH4 0xF6FE5E5B EQ PUSH2 0xD8 JUMPI JUMPDEST PUSH0 DUP1 REVERT JUMPDEST CALLVALUE DUP1 ISZERO PUSH2 0x4D JUMPI PUSH0 DUP1 REVERT JUMPDEST POP PUSH2 0x56 PUSH2 0x100 JUMP JUMPDEST PUSH1 0x40 MLOAD PUSH2 0x63 SWAP2 SWAP1 PUSH2 0x3CA JUMP JUMPDEST PUSH1 0x40 MLOAD DUP1 SWAP2 SUB SWAP1 RETURN JUMPDEST PUSH2 0x86 PUSH1 0x4 DUP1 CALLDATASIZE SUB DUP2 ADD SWAP1 PUSH2 0x81 SWAP2 SWAP1 PUSH2 0x476 JUMP JUMPDEST PUSH2 0x124 JUMP JUMPDEST PUSH1 0x40 MLOAD PUSH2 0x93 SWAP2 SWAP1 PUSH2 0x543 JUMP JUMPDEST PUSH1 0x40 MLOAD DUP1 SWAP2 SUB SWAP1 RETURN JUMPDEST CALLVALUE DUP1 ISZERO PUSH2 0xA7 JUMPI PUSH0 DUP1 REVERT JUMPDEST POP PUSH2 0xC2 PUSH1 0x4 DUP1 CALLDATASIZE SUB DUP2 ADD SWAP1 PUSH2 0xBD SWAP2 SWAP1 PUSH2 0x563 JUMP JUMPDEST PUSH2 0x25C JUMP JUMPDEST PUSH1 0x40 MLOAD PUSH2 0xCF SWAP2 SWAP1 PUSH2 0x5A8 JUMP JUMPDEST PUSH1 0x40 MLOAD DUP1 SWAP2 SUB SWAP1 RETURN JUMPDEST CALLVALUE DUP1 ISZERO PUSH2 0xE3 JUMPI PUSH0 DUP1 REVERT JUMPDEST POP PUSH2 0xFE PUSH1 0x4 DUP1 CALLDATASIZE SUB DUP2 ADD SWAP1 PUSH2 0xF9 SWAP2 SWAP1 PUSH2 0x563 JUMP JUMPDEST PUSH2 0x278 JUMP JUMPDEST STOP JUMPDEST PUSH32 0x0 DUP2 JUMP JUMPDEST PUSH1 0x60 PUSH0 DUP1 DUP6 PUSH20 0xFFFFFFFFFFFFFFFFFFFFFFFFFFFFFFFFFFFFFFFF AND PUSH20 0xFFFFFFFFFFFFFFFFFFFFFFFFFFFFFFFFFFFFFFFF AND DUP2 MSTORE PUSH1 0x20 ADD SWAP1 DUP2 MSTORE PUSH1 0x20 ADD PUSH0 KECCAK256 PUSH0 SWAP1 SLOAD SWAP1 PUSH2 0x100 EXP SWAP1 DIV PUSH1 0xFF AND PUSH2 0x1A5 JUMPI PUSH1 0x40 MLOAD PUSH32 0x43052AEA00000000000000000000000000000000000000000000000000000000 DUP2 MSTORE PUSH1 0x4 ADD PUSH1 0x40 MLOAD DUP1 SWAP2 SUB SWAP1 REVERT JUMPDEST PUSH0 DUP1 DUP6 PUSH20 0xFFFFFFFFFFFFFFFFFFFFFFFFFFFFFFFFFFFFFFFF AND DUP6 DUP6 PUSH1 0x40 MLOAD PUSH2 0x1CE SWAP3 SWAP2 SWAP1 PUSH2 0x5FD JUMP JUMPDEST PUSH0 PUSH1 0x40 MLOAD DUP1 DUP4 SUB DUP2 DUP6 GAS DELEGATECALL SWAP2 POP POP RETURNDATASIZE DUP1 PUSH0 DUP2 EQ PUSH2 0x206 JUMPI PUSH1 0x40 MLOAD SWAP2 POP PUSH1 0x1F NOT PUSH1 0x3F RETURNDATASIZE ADD AND DUP3 ADD PUSH1 0x40 MSTORE RETURNDATASIZE DUP3 MSTORE RETURNDATASIZE PUSH0 PUSH1 0x20 DUP5 ADD RETURNDATACOPY PUSH2 0x20B JUMP JUMPDEST PUSH1 0x60 SWAP2 POP JUMPDEST POP SWAP2 POP SWAP2 POP DUP2 PUSH2 0x250 JUMPI PUSH1 0x40 MLOAD PUSH32 0x8C379A000000000000000000000000000000000000000000000000000000000 DUP2 MSTORE PUSH1 0x4 ADD PUSH2 0x247 SWAP1 PUSH2 0x66F JUMP JUMPDEST PUSH1 0x40 MLOAD DUP1 SWAP2 SUB SWAP1 REVERT JUMPDEST DUP1 SWAP3 POP POP POP SWAP4 SWAP3 POP POP POP JUMP JUMPDEST PUSH0 PUSH1 0x20 MSTORE DUP1 PUSH0 MSTORE PUSH1 0x40 PUSH0 KECCAK256 PUSH0 SWAP2 POP SLOAD SWAP1 PUSH2 0x100 EXP SWAP1 DIV PUSH1 0xFF AND DUP2 JUMP JUMPDEST PUSH32 0x0 PUSH20 0xFFFFFFFFFFFFFFFFFFFFFFFFFFFFFFFFFFFFFFFF AND CALLER PUSH20 0xFFFFFFFFFFFFFFFFFFFFFFFFFFFFFFFFFFFFFFFF AND EQ PUSH2 0x2FD JUMPI PUSH1 0x40 MLOAD PUSH32 0xF781105300000000000000000000000000000000000000000000000000000000 DUP2 MSTORE PUSH1 0x4 ADD PUSH1 0x40 MLOAD DUP1 SWAP2 SUB SWAP1 REVERT JUMPDEST PUSH1 0x1 PUSH0 DUP1 DUP4 PUSH20 0xFFFFFFFFFFFFFFFFFFFFFFFFFFFFFFFFFFFFFFFF AND PUSH20 0xFFFFFFFFFFFFFFFFFFFFFFFFFFFFFFFFFFFFFFFF AND DUP2 MSTORE PUSH1 0x20 ADD SWAP1 DUP2 MSTORE PUSH1 0x20 ADD PUSH0 KECCAK256 PUSH0 PUSH2 0x100 EXP DUP2 SLOAD DUP2 PUSH1 0xFF MUL NOT AND SWAP1 DUP4 ISZERO ISZERO MUL OR SWAP1 SSTORE POP PUSH32 0x5D91BD0CECC45FEF102AF61DE92C5462FADC884A5CE9D21C15E8A85198F2349E DUP2 PUSH1 0x40 MLOAD PUSH2 0x380 SWAP2 SWAP1 PUSH2 0x3CA JUMP JUMPDEST PUSH1 0x40 MLOAD DUP1 SWAP2 SUB SWAP1 LOG1 POP JUMP JUMPDEST PUSH0 PUSH20 0xFFFFFFFFFFFFFFFFFFFFFFFFFFFFFFFFFFFFFFFF DUP3 AND SWAP1 POP SWAP2 SWAP1 POP JUMP JUMPDEST PUSH0 PUSH2 0x3B4 DUP3 PUSH2 0x38B JUMP JUMPDEST SWAP1 POP SWAP2 SWAP1 POP JUMP JUMPDEST PUSH2 0x3C4 DUP2 PUSH2 0x3AA JUMP JUMPDEST DUP3 MSTORE POP POP JUMP JUMPDEST PUSH0 PUSH1 0x20 DUP3 ADD SWAP1 POP PUSH2 0x3DD PUSH0 DUP4 ADD DUP5 PUSH2 0x3BB JUMP JUMPDEST SWAP3 SWAP2 POP POP JUMP JUMPDEST PUSH0 DUP1 REVERT JUMPDEST PUSH0 DUP1 REVERT JUMPDEST PUSH2 0x3F4 DUP2 PUSH2 0x3AA JUMP JUMPDEST DUP2 EQ PUSH2 0x3FE JUMPI PUSH0 DUP1 REVERT JUMPDEST POP JUMP JUMPDEST PUSH0 DUP2 CALLDATALOAD SWAP1 POP PUSH2 0x40F DUP2 PUSH2 0x3EB JUMP JUMPDEST SWAP3 SWAP2 POP POP JUMP JUMPDEST PUSH0 DUP1 REVERT JUMPDEST PUSH0 DUP1 REVERT JUMPDEST PUSH0 DUP1 REVERT JUMPDEST PUSH0 DUP1 DUP4 PUSH1 0x1F DUP5 ADD SLT PUSH2 0x436 JUMPI PUSH2 0x435 PUSH2 0x415 JUMP JUMPDEST JUMPDEST DUP3 CALLDATALOAD SWAP1 POP PUSH8 0xFFFFFFFFFFFFFFFF DUP2 GT ISZERO PUSH2 0x453 JUMPI PUSH2 0x452 PUSH2 0x419 JUMP JUMPDEST JUMPDEST PUSH1 0x20 DUP4 ADD SWAP2 POP DUP4 PUSH1 0x1 DUP3 MUL DUP4 ADD GT ISZERO PUSH2 0x46F JUMPI PUSH2 0x46E PUSH2 0x41D JUMP JUMPDEST JUMPDEST SWAP3 POP SWAP3 SWAP1 POP JUMP JUMPDEST PUSH0 DUP1 PUSH0 PUSH1 0x40 DUP5 DUP7 SUB SLT ISZERO PUSH2 0x48D JUMPI PUSH2 0x48C PUSH2 0x3E3 JUMP JUMPDEST JUMPDEST PUSH0 PUSH2 0x49A DUP7 DUP3 DUP8 ADD PUSH2 0x401 JUMP JUMPDEST SWAP4 POP POP PUSH1 0x20 DUP5 ADD CALLDATALOAD PUSH8 0xFFFFFFFFFFFFFFFF DUP2 GT ISZERO PUSH2 0x4BB JUMPI PUSH2 0x4BA PUSH2 0x3E7 JUMP JUMPDEST JUMPDEST PUSH2 0x4C7 DUP7 DUP3 DUP8 ADD PUSH2 0x421 JUMP JUMPDEST SWAP3 POP SWAP3 POP POP SWAP3 POP SWAP3 POP SWAP3 JUMP JUMPDEST PUSH0 DUP2 MLOAD SWAP1 POP SWAP2 SWAP1 POP JUMP JUMPDEST PUSH0 DUP3 DUP3 MSTORE PUSH1 0x20 DUP3 ADD SWAP1 POP SWAP3 SWAP2 POP POP JUMP JUMPDEST DUP3 DUP2 DUP4 MCOPY PUSH0 DUP4 DUP4 ADD MSTORE POP POP POP JUMP JUMPDEST PUSH0 PUSH1 0x1F NOT PUSH1 0x1F DUP4 ADD AND SWAP1 POP SWAP2 SWAP1 POP JUMP JUMPDEST PUSH0 PUSH2 0x515 DUP3 PUSH2 0x4D3 JUMP JUMPDEST PUSH2 0x51F DUP2 DUP6 PUSH2 0x4DD JUMP JUMPDEST SWAP4 POP PUSH2 0x52F DUP2 DUP6 PUSH1 0x20 DUP7 ADD PUSH2 0x4ED JUMP JUMPDEST PUSH2 0x538 DUP2 PUSH2 0x4FB JUMP JUMPDEST DUP5 ADD SWAP2 POP POP SWAP3 SWAP2 POP POP JUMP JUMPDEST PUSH0 PUSH1 0x20 DUP3 ADD SWAP1 POP DUP2 DUP2 SUB PUSH0 DUP4 ADD MSTORE PUSH2 0x55B DUP2 DUP5 PUSH2 0x50B JUMP JUMPDEST SWAP1 POP SWAP3 SWAP2 POP POP JUMP JUMPDEST PUSH0 PUSH1 0x20 DUP3 DUP5 SUB SLT ISZERO PUSH2 0x578 JUMPI PUSH2 0x577 PUSH2 0x3E3 JUMP JUMPDEST JUMPDEST PUSH0 PUSH2 0x585 DUP5 DUP3 DUP6 ADD PUSH2 0x401 JUMP JUMPDEST SWAP2 POP POP SWAP3 SWAP2 POP POP JUMP JUMPDEST PUSH0 DUP2 ISZERO ISZERO SWAP1 POP SWAP2 SWAP1 POP JUMP JUMPDEST PUSH2 0x5A2 DUP2 PUSH2 0x58E JUMP JUMPDEST DUP3 MSTORE POP POP JUMP JUMPDEST PUSH0 PUSH1 0x20 DUP3 ADD SWAP1 POP PUSH2 0x5BB PUSH0 DUP4 ADD DUP5 PUSH2 0x599 JUMP JUMPDEST SWAP3 SWAP2 POP POP JUMP JUMPDEST PUSH0 DUP2 SWAP1 POP SWAP3 SWAP2 POP POP JUMP JUMPDEST DUP3 DUP2 DUP4 CALLDATACOPY PUSH0 DUP4 DUP4 ADD MSTORE POP POP POP JUMP JUMPDEST PUSH0 PUSH2 0x5E4 DUP4 DUP6 PUSH2 0x5C1 JUMP JUMPDEST SWAP4 POP PUSH2 0x5F1 DUP4 DUP6 DUP5 PUSH2 0x5CB JUMP JUMPDEST DUP3 DUP5 ADD SWAP1 POP SWAP4 SWAP3 POP POP POP JUMP JUMPDEST PUSH0 PUSH2 0x609 DUP3 DUP5 DUP7 PUSH2 0x5D9 JUMP JUMPDEST SWAP2 POP DUP2 SWAP1 POP SWAP4 SWAP3 POP POP POP JUMP JUMPDEST PUSH0 DUP3 DUP3 MSTORE PUSH1 0x20 DUP3 ADD SWAP1 POP SWAP3 SWAP2 POP POP JUMP JUMPDEST PUSH32 0x64656C656761746563616C6C206661696C656400000000000000000000000000 PUSH0 DUP3 ADD MSTORE POP JUMP JUMPDEST PUSH0 PUSH2 0x659 PUSH1 0x13 DUP4 PUSH2 0x615 JUMP JUMPDEST SWAP2 POP PUSH2 0x664 DUP3 PUSH2 0x625 JUMP JUMPDEST PUSH1 0x20 DUP3 ADD SWAP1 POP SWAP2 SWAP1 POP JUMP JUMPDEST PUSH0 PUSH1 0x20 DUP3 ADD SWAP1 POP DUP2 DUP2 SUB PUSH0 DUP4 ADD MSTORE PUSH2 0x686 DUP2 PUSH2 0x64D JUMP JUMPDEST SWAP1 POP SWAP2 SWAP1 POP JUMP INVALID LOG2 PUSH5 0x6970667358 0x22 SLT KECCAK256 0xB3 SSTORE 0xAA MCOPY CALLDATACOPY 0xB2 SMOD DUP4 ADDRESS CODECOPY SDIV PUSH31 0xFEFA4832A6CEA6DEAB00EE9A40FCCB095632B52564736F6C634300081A0033 "
				},
				"gasEstimates": {
					"creation": {
						"codeDepositCost": "346200",
						"executionCost": "infinite",
						"totalCost": "infinite"
					},
					"external": {
						"approveLib(address)": "infinite",
						"approved(address)": "2854",
						"load(address,bytes)": "infinite",
						"owner()": "infinite"
					}
				},
				"methodIdentifiers": {
					"approveLib(address)": "f6fe5e5b",
					"approved(address)": "d8b964e6",
					"load(address,bytes)": "c40a8f62",
					"owner()": "8da5cb5b"
				}
			},
			"storageLayout": {
				"storage": [
					{
						"astId": 508,
						"contract": "S/Shell/Shell.sol:ShellcodeLoaderSafe",
						"label": "approved",
						"offset": 0,
						"slot": "0",
						"type": "t_mapping(t_address,t_bool)"
					}
				],
				"types": {
					"t_address": {
						"encoding": "inplace",
						"label": "address",
						"numberOfBytes": "20"
					},
					"t_bool": {
						"encoding": "inplace",
						"label": "bool",
						"numberOfBytes": "1"
					},
					"t_mapping(t_address,t_bool)": {
						"encoding": "mapping",
						"key": "t_address",
						"label": "mapping(address => bool)",
						"numberOfBytes": "32",
						"value": "t_bool"
					}
				}
			},
			"userdoc": {
				"kind": "user",
				"methods": {
					"approveLib(address)": {
						"notice": "Owner may whitelist new libs"
					},
					"load(address,bytes)": {
						"notice": "✅ Only approved libs may be used"
					}
				},
				"version": 1
			}
		}
	}
}