{
	"I/Incident Handling/auto trigger via gas pattern or function reverrt.sol": {
		"AutoIncidentMonitor": {
			"abi": [
				{
					"inputs": [],
					"name": "alert",
					"outputs": [
						{
							"internalType": "bool",
							"name": "",
							"type": "bool"
						}
					],
					"stateMutability": "view",
					"type": "function"
				},
				{
					"inputs": [],
					"name": "lastGas",
					"outputs": [
						{
							"internalType": "uint256",
							"name": "",
							"type": "uint256"
						}
					],
					"stateMutability": "view",
					"type": "function"
				},
				{
					"inputs": [],
					"name": "sensitiveCall",
					"outputs": [],
					"stateMutability": "nonpayable",
					"type": "function"
				}
			],
			"devdoc": {
				"kind": "dev",
				"methods": {},
				"version": 1
			},
			"evm": {
				"assembly": "    /* \"I/Incident Handling/auto trigger via gas pattern or function reverrt.sol\":0:257  contract AutoIncidentMonitor {... */\n  mstore(0x40, 0x80)\n  callvalue\n  dup1\n  iszero\n  tag_1\n  jumpi\n  0x00\n  dup1\n  revert\ntag_1:\n  pop\n  dataSize(sub_0)\n  dup1\n  dataOffset(sub_0)\n  0x00\n  codecopy\n  0x00\n  return\nstop\n\nsub_0: assembly {\n        /* \"I/Incident Handling/auto trigger via gas pattern or function reverrt.sol\":0:257  contract AutoIncidentMonitor {... */\n      mstore(0x40, 0x80)\n      callvalue\n      dup1\n      iszero\n      tag_1\n      jumpi\n      0x00\n      dup1\n      revert\n    tag_1:\n      pop\n      jumpi(tag_2, lt(calldatasize, 0x04))\n      shr(0xe0, calldataload(0x00))\n      dup1\n      0x54f19d8e\n      eq\n      tag_3\n      jumpi\n      dup1\n      0x76d66fdb\n      eq\n      tag_4\n      jumpi\n      dup1\n      0xdc5d3a17\n      eq\n      tag_5\n      jumpi\n    tag_2:\n      0x00\n      dup1\n      revert\n        /* \"I/Incident Handling/auto trigger via gas pattern or function reverrt.sol\":87:255  function sensitiveCall() external {... */\n    tag_3:\n      tag_6\n      tag_7\n      jump\t// in\n    tag_6:\n      stop\n        /* \"I/Incident Handling/auto trigger via gas pattern or function reverrt.sol\":63:80  bool public alert */\n    tag_4:\n      tag_8\n      tag_9\n      jump\t// in\n    tag_8:\n      mload(0x40)\n      tag_10\n      swap2\n      swap1\n      tag_11\n      jump\t// in\n    tag_10:\n      mload(0x40)\n      dup1\n      swap2\n      sub\n      swap1\n      return\n        /* \"I/Incident Handling/auto trigger via gas pattern or function reverrt.sol\":35:57  uint256 public lastGas */\n    tag_5:\n      tag_12\n      tag_13\n      jump\t// in\n    tag_12:\n      mload(0x40)\n      tag_14\n      swap2\n      swap1\n      tag_15\n      jump\t// in\n    tag_14:\n      mload(0x40)\n      dup1\n      swap2\n      sub\n      swap1\n      return\n        /* \"I/Incident Handling/auto trigger via gas pattern or function reverrt.sol\":87:255  function sensitiveCall() external {... */\n    tag_7:\n        /* \"I/Incident Handling/auto trigger via gas pattern or function reverrt.sol\":141:150  gasleft() */\n      gas\n        /* \"I/Incident Handling/auto trigger via gas pattern or function reverrt.sol\":131:138  lastGas */\n      0x00\n        /* \"I/Incident Handling/auto trigger via gas pattern or function reverrt.sol\":131:150  lastGas = gasleft() */\n      dup2\n      swap1\n      sstore\n      pop\n        /* \"I/Incident Handling/auto trigger via gas pattern or function reverrt.sol\":174:180  100000 */\n      0x0186a0\n        /* \"I/Incident Handling/auto trigger via gas pattern or function reverrt.sol\":164:171  lastGas */\n      sload(0x00)\n        /* \"I/Incident Handling/auto trigger via gas pattern or function reverrt.sol\":164:180  lastGas < 100000 */\n      lt\n        /* \"I/Incident Handling/auto trigger via gas pattern or function reverrt.sol\":160:249  if (lastGas < 100000) {... */\n      iszero\n      tag_17\n      jumpi\n        /* \"I/Incident Handling/auto trigger via gas pattern or function reverrt.sol\":204:208  true */\n      0x01\n        /* \"I/Incident Handling/auto trigger via gas pattern or function reverrt.sol\":196:201  alert */\n      dup1\n      0x00\n        /* \"I/Incident Handling/auto trigger via gas pattern or function reverrt.sol\":196:208  alert = true */\n      0x0100\n      exp\n      dup2\n      sload\n      dup2\n      0xff\n      mul\n      not\n      and\n      swap1\n      dup4\n      iszero\n      iszero\n      mul\n      or\n      swap1\n      sstore\n      pop\n        /* \"I/Incident Handling/auto trigger via gas pattern or function reverrt.sol\":160:249  if (lastGas < 100000) {... */\n    tag_17:\n        /* \"I/Incident Handling/auto trigger via gas pattern or function reverrt.sol\":87:255  function sensitiveCall() external {... */\n      jump\t// out\n        /* \"I/Incident Handling/auto trigger via gas pattern or function reverrt.sol\":63:80  bool public alert */\n    tag_9:\n      0x01\n      0x00\n      swap1\n      sload\n      swap1\n      0x0100\n      exp\n      swap1\n      div\n      0xff\n      and\n      dup2\n      jump\t// out\n        /* \"I/Incident Handling/auto trigger via gas pattern or function reverrt.sol\":35:57  uint256 public lastGas */\n    tag_13:\n      sload(0x00)\n      dup2\n      jump\t// out\n        /* \"#utility.yul\":7:97   */\n    tag_18:\n        /* \"#utility.yul\":41:48   */\n      0x00\n        /* \"#utility.yul\":84:89   */\n      dup2\n        /* \"#utility.yul\":77:90   */\n      iszero\n        /* \"#utility.yul\":70:91   */\n      iszero\n        /* \"#utility.yul\":59:91   */\n      swap1\n      pop\n        /* \"#utility.yul\":7:97   */\n      swap2\n      swap1\n      pop\n      jump\t// out\n        /* \"#utility.yul\":103:212   */\n    tag_19:\n        /* \"#utility.yul\":184:205   */\n      tag_25\n        /* \"#utility.yul\":199:204   */\n      dup2\n        /* \"#utility.yul\":184:205   */\n      tag_18\n      jump\t// in\n    tag_25:\n        /* \"#utility.yul\":179:182   */\n      dup3\n        /* \"#utility.yul\":172:206   */\n      mstore\n        /* \"#utility.yul\":103:212   */\n      pop\n      pop\n      jump\t// out\n        /* \"#utility.yul\":218:428   */\n    tag_11:\n        /* \"#utility.yul\":305:309   */\n      0x00\n        /* \"#utility.yul\":343:345   */\n      0x20\n        /* \"#utility.yul\":332:341   */\n      dup3\n        /* \"#utility.yul\":328:346   */\n      add\n        /* \"#utility.yul\":320:346   */\n      swap1\n      pop\n        /* \"#utility.yul\":356:421   */\n      tag_27\n        /* \"#utility.yul\":418:419   */\n      0x00\n        /* \"#utility.yul\":407:416   */\n      dup4\n        /* \"#utility.yul\":403:420   */\n      add\n        /* \"#utility.yul\":394:400   */\n      dup5\n        /* \"#utility.yul\":356:421   */\n      tag_19\n      jump\t// in\n    tag_27:\n        /* \"#utility.yul\":218:428   */\n      swap3\n      swap2\n      pop\n      pop\n      jump\t// out\n        /* \"#utility.yul\":434:511   */\n    tag_20:\n        /* \"#utility.yul\":471:478   */\n      0x00\n        /* \"#utility.yul\":500:505   */\n      dup2\n        /* \"#utility.yul\":489:505   */\n      swap1\n      pop\n        /* \"#utility.yul\":434:511   */\n      swap2\n      swap1\n      pop\n      jump\t// out\n        /* \"#utility.yul\":517:635   */\n    tag_21:\n        /* \"#utility.yul\":604:628   */\n      tag_30\n        /* \"#utility.yul\":622:627   */\n      dup2\n        /* \"#utility.yul\":604:628   */\n      tag_20\n      jump\t// in\n    tag_30:\n        /* \"#utility.yul\":599:602   */\n      dup3\n        /* \"#utility.yul\":592:629   */\n      mstore\n        /* \"#utility.yul\":517:635   */\n      pop\n      pop\n      jump\t// out\n        /* \"#utility.yul\":641:863   */\n    tag_15:\n        /* \"#utility.yul\":734:738   */\n      0x00\n        /* \"#utility.yul\":772:774   */\n      0x20\n        /* \"#utility.yul\":761:770   */\n      dup3\n        /* \"#utility.yul\":757:775   */\n      add\n        /* \"#utility.yul\":749:775   */\n      swap1\n      pop\n        /* \"#utility.yul\":785:856   */\n      tag_32\n        /* \"#utility.yul\":853:854   */\n      0x00\n        /* \"#utility.yul\":842:851   */\n      dup4\n        /* \"#utility.yul\":838:855   */\n      add\n        /* \"#utility.yul\":829:835   */\n      dup5\n        /* \"#utility.yul\":785:856   */\n      tag_21\n      jump\t// in\n    tag_32:\n        /* \"#utility.yul\":641:863   */\n      swap3\n      swap2\n      pop\n      pop\n      jump\t// out\n\n    auxdata: 0xa264697066735822122044366974e99c5d3186f5ef2c67bdc37cf0e8e3561e84204d593abd72f1973c9a64736f6c634300081a0033\n}\n",
				"bytecode": {
					"linkReferences": {},
					"object": "6080604052348015600e575f80fd5b506101688061001c5f395ff3fe608060405234801561000f575f80fd5b506004361061003f575f3560e01c806354f19d8e1461004357806376d66fdb1461004d578063dc5d3a171461006b575b5f80fd5b61004b610089565b005b6100556100b7565b60405161006291906100e8565b60405180910390f35b6100736100c9565b6040516100809190610119565b60405180910390f35b5a5f81905550620186a05f5410156100b5576001805f6101000a81548160ff0219169083151502179055505b565b60015f9054906101000a900460ff1681565b5f5481565b5f8115159050919050565b6100e2816100ce565b82525050565b5f6020820190506100fb5f8301846100d9565b92915050565b5f819050919050565b61011381610101565b82525050565b5f60208201905061012c5f83018461010a565b9291505056fea264697066735822122044366974e99c5d3186f5ef2c67bdc37cf0e8e3561e84204d593abd72f1973c9a64736f6c634300081a0033",
					"opcodes": "PUSH1 0x80 PUSH1 0x40 MSTORE CALLVALUE DUP1 ISZERO PUSH1 0xE JUMPI PUSH0 DUP1 REVERT JUMPDEST POP PUSH2 0x168 DUP1 PUSH2 0x1C PUSH0 CODECOPY PUSH0 RETURN INVALID PUSH1 0x80 PUSH1 0x40 MSTORE CALLVALUE DUP1 ISZERO PUSH2 0xF JUMPI PUSH0 DUP1 REVERT JUMPDEST POP PUSH1 0x4 CALLDATASIZE LT PUSH2 0x3F JUMPI PUSH0 CALLDATALOAD PUSH1 0xE0 SHR DUP1 PUSH4 0x54F19D8E EQ PUSH2 0x43 JUMPI DUP1 PUSH4 0x76D66FDB EQ PUSH2 0x4D JUMPI DUP1 PUSH4 0xDC5D3A17 EQ PUSH2 0x6B JUMPI JUMPDEST PUSH0 DUP1 REVERT JUMPDEST PUSH2 0x4B PUSH2 0x89 JUMP JUMPDEST STOP JUMPDEST PUSH2 0x55 PUSH2 0xB7 JUMP JUMPDEST PUSH1 0x40 MLOAD PUSH2 0x62 SWAP2 SWAP1 PUSH2 0xE8 JUMP JUMPDEST PUSH1 0x40 MLOAD DUP1 SWAP2 SUB SWAP1 RETURN JUMPDEST PUSH2 0x73 PUSH2 0xC9 JUMP JUMPDEST PUSH1 0x40 MLOAD PUSH2 0x80 SWAP2 SWAP1 PUSH2 0x119 JUMP JUMPDEST PUSH1 0x40 MLOAD DUP1 SWAP2 SUB SWAP1 RETURN JUMPDEST GAS PUSH0 DUP2 SWAP1 SSTORE POP PUSH3 0x186A0 PUSH0 SLOAD LT ISZERO PUSH2 0xB5 JUMPI PUSH1 0x1 DUP1 PUSH0 PUSH2 0x100 EXP DUP2 SLOAD DUP2 PUSH1 0xFF MUL NOT AND SWAP1 DUP4 ISZERO ISZERO MUL OR SWAP1 SSTORE POP JUMPDEST JUMP JUMPDEST PUSH1 0x1 PUSH0 SWAP1 SLOAD SWAP1 PUSH2 0x100 EXP SWAP1 DIV PUSH1 0xFF AND DUP2 JUMP JUMPDEST PUSH0 SLOAD DUP2 JUMP JUMPDEST PUSH0 DUP2 ISZERO ISZERO SWAP1 POP SWAP2 SWAP1 POP JUMP JUMPDEST PUSH2 0xE2 DUP2 PUSH2 0xCE JUMP JUMPDEST DUP3 MSTORE POP POP JUMP JUMPDEST PUSH0 PUSH1 0x20 DUP3 ADD SWAP1 POP PUSH2 0xFB PUSH0 DUP4 ADD DUP5 PUSH2 0xD9 JUMP JUMPDEST SWAP3 SWAP2 POP POP JUMP JUMPDEST PUSH0 DUP2 SWAP1 POP SWAP2 SWAP1 POP JUMP JUMPDEST PUSH2 0x113 DUP2 PUSH2 0x101 JUMP JUMPDEST DUP3 MSTORE POP POP JUMP JUMPDEST PUSH0 PUSH1 0x20 DUP3 ADD SWAP1 POP PUSH2 0x12C PUSH0 DUP4 ADD DUP5 PUSH2 0x10A JUMP JUMPDEST SWAP3 SWAP2 POP POP JUMP INVALID LOG2 PUSH5 0x6970667358 0x22 SLT KECCAK256 PREVRANDAO CALLDATASIZE PUSH10 0x74E99C5D3186F5EF2C67 0xBD 0xC3 PUSH29 0xF0E8E3561E84204D593ABD72F1973C9A64736F6C634300081A00330000 "
				},
				"gasEstimates": {
					"creation": {
						"codeDepositCost": "72000",
						"executionCost": "121",
						"totalCost": "72121"
					},
					"external": {
						"alert()": "2466",
						"lastGas()": "2446",
						"sensitiveCall()": "48624"
					}
				},
				"methodIdentifiers": {
					"alert()": "76d66fdb",
					"lastGas()": "dc5d3a17",
					"sensitiveCall()": "54f19d8e"
				}
			},
			"storageLayout": {
				"storage": [
					{
						"astId": 2,
						"contract": "I/Incident Handling/auto trigger via gas pattern or function reverrt.sol:AutoIncidentMonitor",
						"label": "lastGas",
						"offset": 0,
						"slot": "0",
						"type": "t_uint256"
					},
					{
						"astId": 4,
						"contract": "I/Incident Handling/auto trigger via gas pattern or function reverrt.sol:AutoIncidentMonitor",
						"label": "alert",
						"offset": 0,
						"slot": "1",
						"type": "t_bool"
					}
				],
				"types": {
					"t_bool": {
						"encoding": "inplace",
						"label": "bool",
						"numberOfBytes": "1"
					},
					"t_uint256": {
						"encoding": "inplace",
						"label": "uint256",
						"numberOfBytes": "32"
					}
				}
			},
			"userdoc": {
				"kind": "user",
				"methods": {},
				"version": 1
			}
		}
	}
}