{
	"H/Honeymonkey/Reentrancy Trap (Defense).sol": {
		"HoneymonkeyReentrancyTrap": {
			"abi": [
				{
					"anonymous": false,
					"inputs": [
						{
							"indexed": false,
							"internalType": "address",
							"name": "attacker",
							"type": "address"
						}
					],
					"name": "TrapTriggered",
					"type": "event"
				},
				{
					"inputs": [],
					"name": "deposit",
					"outputs": [],
					"stateMutability": "payable",
					"type": "function"
				},
				{
					"inputs": [
						{
							"internalType": "address",
							"name": "",
							"type": "address"
						}
					],
					"name": "deposits",
					"outputs": [
						{
							"internalType": "uint256",
							"name": "",
							"type": "uint256"
						}
					],
					"stateMutability": "view",
					"type": "function"
				},
				{
					"inputs": [],
					"name": "trapTriggered",
					"outputs": [
						{
							"internalType": "bool",
							"name": "",
							"type": "bool"
						}
					],
					"stateMutability": "view",
					"type": "function"
				},
				{
					"inputs": [],
					"name": "withdraw",
					"outputs": [],
					"stateMutability": "nonpayable",
					"type": "function"
				}
			],
			"devdoc": {
				"kind": "dev",
				"methods": {},
				"version": 1
			},
			"evm": {
				"assembly": "    /* \"H/Honeymonkey/Reentrancy Trap (Defense).sol\":0:590  contract HoneymonkeyReentrancyTrap {... */\n  mstore(0x40, 0x80)\n  callvalue\n  dup1\n  iszero\n  tag_1\n  jumpi\n  0x00\n  dup1\n  revert\ntag_1:\n  pop\n  dataSize(sub_0)\n  dup1\n  dataOffset(sub_0)\n  0x00\n  codecopy\n  0x00\n  return\nstop\n\nsub_0: assembly {\n        /* \"H/Honeymonkey/Reentrancy Trap (Defense).sol\":0:590  contract HoneymonkeyReentrancyTrap {... */\n      mstore(0x40, 0x80)\n      jumpi(tag_1, lt(calldatasize, 0x04))\n      shr(0xe0, calldataload(0x00))\n      dup1\n      0x034bcbb1\n      eq\n      tag_2\n      jumpi\n      dup1\n      0x3ccfd60b\n      eq\n      tag_3\n      jumpi\n      dup1\n      0xd0e30db0\n      eq\n      tag_4\n      jumpi\n      dup1\n      0xfc7e286d\n      eq\n      tag_5\n      jumpi\n    tag_1:\n      0x00\n      dup1\n      revert\n        /* \"H/Honeymonkey/Reentrancy Trap (Defense).sol\":41:66  bool public trapTriggered */\n    tag_2:\n      callvalue\n      dup1\n      iszero\n      tag_6\n      jumpi\n      0x00\n      dup1\n      revert\n    tag_6:\n      pop\n      tag_7\n      tag_8\n      jump\t// in\n    tag_7:\n      mload(0x40)\n      tag_9\n      swap2\n      swap1\n      tag_10\n      jump\t// in\n    tag_9:\n      mload(0x40)\n      dup1\n      swap2\n      sub\n      swap1\n      return\n        /* \"H/Honeymonkey/Reentrancy Trap (Defense).sol\":258:588  function withdraw() external {... */\n    tag_3:\n      callvalue\n      dup1\n      iszero\n      tag_11\n      jumpi\n      0x00\n      dup1\n      revert\n    tag_11:\n      pop\n      tag_12\n      tag_13\n      jump\t// in\n    tag_12:\n      stop\n        /* \"H/Honeymonkey/Reentrancy Trap (Defense).sol\":166:252  function deposit() external payable {... */\n    tag_4:\n      tag_14\n      tag_15\n      jump\t// in\n    tag_14:\n      stop\n        /* \"H/Honeymonkey/Reentrancy Trap (Defense).sol\":72:115  mapping(address => uint256) public deposits */\n    tag_5:\n      callvalue\n      dup1\n      iszero\n      tag_16\n      jumpi\n      0x00\n      dup1\n      revert\n    tag_16:\n      pop\n      tag_17\n      0x04\n      dup1\n      calldatasize\n      sub\n      dup2\n      add\n      swap1\n      tag_18\n      swap2\n      swap1\n      tag_19\n      jump\t// in\n    tag_18:\n      tag_20\n      jump\t// in\n    tag_17:\n      mload(0x40)\n      tag_21\n      swap2\n      swap1\n      tag_22\n      jump\t// in\n    tag_21:\n      mload(0x40)\n      dup1\n      swap2\n      sub\n      swap1\n      return\n        /* \"H/Honeymonkey/Reentrancy Trap (Defense).sol\":41:66  bool public trapTriggered */\n    tag_8:\n      0x00\n      dup1\n      sload\n      swap1\n      0x0100\n      exp\n      swap1\n      div\n      0xff\n      and\n      dup2\n      jump\t// out\n        /* \"H/Honeymonkey/Reentrancy Trap (Defense).sol\":258:588  function withdraw() external {... */\n    tag_13:\n        /* \"H/Honeymonkey/Reentrancy Trap (Defense).sol\":313:320  100_000 */\n      0x0186a0\n        /* \"H/Honeymonkey/Reentrancy Trap (Defense).sol\":301:310  gasleft() */\n      gas\n        /* \"H/Honeymonkey/Reentrancy Trap (Defense).sol\":301:320  gasleft() > 100_000 */\n      gt\n        /* \"H/Honeymonkey/Reentrancy Trap (Defense).sol\":297:454  if (gasleft() > 100_000) {... */\n      iszero\n      tag_24\n      jumpi\n        /* \"H/Honeymonkey/Reentrancy Trap (Defense).sol\":352:356  true */\n      0x01\n        /* \"H/Honeymonkey/Reentrancy Trap (Defense).sol\":336:349  trapTriggered */\n      0x00\n      dup1\n        /* \"H/Honeymonkey/Reentrancy Trap (Defense).sol\":336:356  trapTriggered = true */\n      0x0100\n      exp\n      dup2\n      sload\n      dup2\n      0xff\n      mul\n      not\n      and\n      swap1\n      dup4\n      iszero\n      iszero\n      mul\n      or\n      swap1\n      sstore\n      pop\n        /* \"H/Honeymonkey/Reentrancy Trap (Defense).sol\":375:400  TrapTriggered(msg.sender) */\n      0xacf53fb2da5dded17a7542255d187177082a98cdbd8d86d05a6ee037e1668487\n        /* \"H/Honeymonkey/Reentrancy Trap (Defense).sol\":389:399  msg.sender */\n      caller\n        /* \"H/Honeymonkey/Reentrancy Trap (Defense).sol\":375:400  TrapTriggered(msg.sender) */\n      mload(0x40)\n      tag_25\n      swap2\n      swap1\n      tag_26\n      jump\t// in\n    tag_25:\n      mload(0x40)\n      dup1\n      swap2\n      sub\n      swap1\n      log1\n        /* \"H/Honeymonkey/Reentrancy Trap (Defense).sol\":414:443  revert(\"Reentrancy detected\") */\n      mload(0x40)\n      0x08c379a000000000000000000000000000000000000000000000000000000000\n      dup2\n      mstore\n      0x04\n      add\n      tag_27\n      swap1\n      tag_28\n      jump\t// in\n    tag_27:\n      mload(0x40)\n      dup1\n      swap2\n      sub\n      swap1\n      revert\n        /* \"H/Honeymonkey/Reentrancy Trap (Defense).sol\":297:454  if (gasleft() > 100_000) {... */\n    tag_24:\n        /* \"H/Honeymonkey/Reentrancy Trap (Defense).sol\":464:478  uint256 amount */\n      0x00\n        /* \"H/Honeymonkey/Reentrancy Trap (Defense).sol\":481:489  deposits */\n      0x01\n        /* \"H/Honeymonkey/Reentrancy Trap (Defense).sol\":481:501  deposits[msg.sender] */\n      0x00\n        /* \"H/Honeymonkey/Reentrancy Trap (Defense).sol\":490:500  msg.sender */\n      caller\n        /* \"H/Honeymonkey/Reentrancy Trap (Defense).sol\":481:501  deposits[msg.sender] */\n      0xffffffffffffffffffffffffffffffffffffffff\n      and\n      0xffffffffffffffffffffffffffffffffffffffff\n      and\n      dup2\n      mstore\n      0x20\n      add\n      swap1\n      dup2\n      mstore\n      0x20\n      add\n      0x00\n      keccak256\n      sload\n        /* \"H/Honeymonkey/Reentrancy Trap (Defense).sol\":464:501  uint256 amount = deposits[msg.sender] */\n      swap1\n      pop\n        /* \"H/Honeymonkey/Reentrancy Trap (Defense).sol\":534:535  0 */\n      0x00\n        /* \"H/Honeymonkey/Reentrancy Trap (Defense).sol\":511:519  deposits */\n      0x01\n        /* \"H/Honeymonkey/Reentrancy Trap (Defense).sol\":511:531  deposits[msg.sender] */\n      0x00\n        /* \"H/Honeymonkey/Reentrancy Trap (Defense).sol\":520:530  msg.sender */\n      caller\n        /* \"H/Honeymonkey/Reentrancy Trap (Defense).sol\":511:531  deposits[msg.sender] */\n      0xffffffffffffffffffffffffffffffffffffffff\n      and\n      0xffffffffffffffffffffffffffffffffffffffff\n      and\n      dup2\n      mstore\n      0x20\n      add\n      swap1\n      dup2\n      mstore\n      0x20\n      add\n      0x00\n      keccak256\n        /* \"H/Honeymonkey/Reentrancy Trap (Defense).sol\":511:535  deposits[msg.sender] = 0 */\n      dup2\n      swap1\n      sstore\n      pop\n        /* \"H/Honeymonkey/Reentrancy Trap (Defense).sol\":553:563  msg.sender */\n      caller\n        /* \"H/Honeymonkey/Reentrancy Trap (Defense).sol\":545:573  payable(msg.sender).transfer */\n      0xffffffffffffffffffffffffffffffffffffffff\n      and\n        /* \"H/Honeymonkey/Reentrancy Trap (Defense).sol\":545:581  payable(msg.sender).transfer(amount) */\n      0x08fc\n        /* \"H/Honeymonkey/Reentrancy Trap (Defense).sol\":574:580  amount */\n      dup3\n        /* \"H/Honeymonkey/Reentrancy Trap (Defense).sol\":545:581  payable(msg.sender).transfer(amount) */\n      swap1\n      dup2\n      iszero\n      mul\n      swap1\n      mload(0x40)\n      0x00\n      mload(0x40)\n      dup1\n      dup4\n      sub\n      dup2\n      dup6\n      dup9\n      dup9\n      call\n      swap4\n      pop\n      pop\n      pop\n      pop\n      iszero\n      dup1\n      iszero\n      tag_30\n      jumpi\n      returndatasize\n      0x00\n      dup1\n      returndatacopy\n      revert(0x00, returndatasize)\n    tag_30:\n      pop\n        /* \"H/Honeymonkey/Reentrancy Trap (Defense).sol\":287:588  {... */\n      pop\n        /* \"H/Honeymonkey/Reentrancy Trap (Defense).sol\":258:588  function withdraw() external {... */\n      jump\t// out\n        /* \"H/Honeymonkey/Reentrancy Trap (Defense).sol\":166:252  function deposit() external payable {... */\n    tag_15:\n        /* \"H/Honeymonkey/Reentrancy Trap (Defense).sol\":236:245  msg.value */\n      callvalue\n        /* \"H/Honeymonkey/Reentrancy Trap (Defense).sol\":212:220  deposits */\n      0x01\n        /* \"H/Honeymonkey/Reentrancy Trap (Defense).sol\":212:232  deposits[msg.sender] */\n      0x00\n        /* \"H/Honeymonkey/Reentrancy Trap (Defense).sol\":221:231  msg.sender */\n      caller\n        /* \"H/Honeymonkey/Reentrancy Trap (Defense).sol\":212:232  deposits[msg.sender] */\n      0xffffffffffffffffffffffffffffffffffffffff\n      and\n      0xffffffffffffffffffffffffffffffffffffffff\n      and\n      dup2\n      mstore\n      0x20\n      add\n      swap1\n      dup2\n      mstore\n      0x20\n      add\n      0x00\n      keccak256\n      0x00\n        /* \"H/Honeymonkey/Reentrancy Trap (Defense).sol\":212:245  deposits[msg.sender] += msg.value */\n      dup3\n      dup3\n      sload\n      tag_32\n      swap2\n      swap1\n      tag_33\n      jump\t// in\n    tag_32:\n      swap3\n      pop\n      pop\n      dup2\n      swap1\n      sstore\n      pop\n        /* \"H/Honeymonkey/Reentrancy Trap (Defense).sol\":166:252  function deposit() external payable {... */\n      jump\t// out\n        /* \"H/Honeymonkey/Reentrancy Trap (Defense).sol\":72:115  mapping(address => uint256) public deposits */\n    tag_20:\n      mstore(0x20, 0x01)\n      dup1\n      0x00\n      mstore\n      keccak256(0x00, 0x40)\n      0x00\n      swap2\n      pop\n      swap1\n      pop\n      sload\n      dup2\n      jump\t// out\n        /* \"#utility.yul\":7:97   */\n    tag_34:\n        /* \"#utility.yul\":41:48   */\n      0x00\n        /* \"#utility.yul\":84:89   */\n      dup2\n        /* \"#utility.yul\":77:90   */\n      iszero\n        /* \"#utility.yul\":70:91   */\n      iszero\n        /* \"#utility.yul\":59:91   */\n      swap1\n      pop\n        /* \"#utility.yul\":7:97   */\n      swap2\n      swap1\n      pop\n      jump\t// out\n        /* \"#utility.yul\":103:212   */\n    tag_35:\n        /* \"#utility.yul\":184:205   */\n      tag_53\n        /* \"#utility.yul\":199:204   */\n      dup2\n        /* \"#utility.yul\":184:205   */\n      tag_34\n      jump\t// in\n    tag_53:\n        /* \"#utility.yul\":179:182   */\n      dup3\n        /* \"#utility.yul\":172:206   */\n      mstore\n        /* \"#utility.yul\":103:212   */\n      pop\n      pop\n      jump\t// out\n        /* \"#utility.yul\":218:428   */\n    tag_10:\n        /* \"#utility.yul\":305:309   */\n      0x00\n        /* \"#utility.yul\":343:345   */\n      0x20\n        /* \"#utility.yul\":332:341   */\n      dup3\n        /* \"#utility.yul\":328:346   */\n      add\n        /* \"#utility.yul\":320:346   */\n      swap1\n      pop\n        /* \"#utility.yul\":356:421   */\n      tag_55\n        /* \"#utility.yul\":418:419   */\n      0x00\n        /* \"#utility.yul\":407:416   */\n      dup4\n        /* \"#utility.yul\":403:420   */\n      add\n        /* \"#utility.yul\":394:400   */\n      dup5\n        /* \"#utility.yul\":356:421   */\n      tag_35\n      jump\t// in\n    tag_55:\n        /* \"#utility.yul\":218:428   */\n      swap3\n      swap2\n      pop\n      pop\n      jump\t// out\n        /* \"#utility.yul\":515:632   */\n    tag_37:\n        /* \"#utility.yul\":624:625   */\n      0x00\n        /* \"#utility.yul\":621:622   */\n      dup1\n        /* \"#utility.yul\":614:626   */\n      revert\n        /* \"#utility.yul\":761:887   */\n    tag_39:\n        /* \"#utility.yul\":798:805   */\n      0x00\n        /* \"#utility.yul\":838:880   */\n      0xffffffffffffffffffffffffffffffffffffffff\n        /* \"#utility.yul\":831:836   */\n      dup3\n        /* \"#utility.yul\":827:881   */\n      and\n        /* \"#utility.yul\":816:881   */\n      swap1\n      pop\n        /* \"#utility.yul\":761:887   */\n      swap2\n      swap1\n      pop\n      jump\t// out\n        /* \"#utility.yul\":893:989   */\n    tag_40:\n        /* \"#utility.yul\":930:937   */\n      0x00\n        /* \"#utility.yul\":959:983   */\n      tag_61\n        /* \"#utility.yul\":977:982   */\n      dup3\n        /* \"#utility.yul\":959:983   */\n      tag_39\n      jump\t// in\n    tag_61:\n        /* \"#utility.yul\":948:983   */\n      swap1\n      pop\n        /* \"#utility.yul\":893:989   */\n      swap2\n      swap1\n      pop\n      jump\t// out\n        /* \"#utility.yul\":995:1117   */\n    tag_41:\n        /* \"#utility.yul\":1068:1092   */\n      tag_63\n        /* \"#utility.yul\":1086:1091   */\n      dup2\n        /* \"#utility.yul\":1068:1092   */\n      tag_40\n      jump\t// in\n    tag_63:\n        /* \"#utility.yul\":1061:1066   */\n      dup2\n        /* \"#utility.yul\":1058:1093   */\n      eq\n        /* \"#utility.yul\":1048:1111   */\n      tag_64\n      jumpi\n        /* \"#utility.yul\":1107:1108   */\n      0x00\n        /* \"#utility.yul\":1104:1105   */\n      dup1\n        /* \"#utility.yul\":1097:1109   */\n      revert\n        /* \"#utility.yul\":1048:1111   */\n    tag_64:\n        /* \"#utility.yul\":995:1117   */\n      pop\n      jump\t// out\n        /* \"#utility.yul\":1123:1262   */\n    tag_42:\n        /* \"#utility.yul\":1169:1174   */\n      0x00\n        /* \"#utility.yul\":1207:1213   */\n      dup2\n        /* \"#utility.yul\":1194:1214   */\n      calldataload\n        /* \"#utility.yul\":1185:1214   */\n      swap1\n      pop\n        /* \"#utility.yul\":1223:1256   */\n      tag_66\n        /* \"#utility.yul\":1250:1255   */\n      dup2\n        /* \"#utility.yul\":1223:1256   */\n      tag_41\n      jump\t// in\n    tag_66:\n        /* \"#utility.yul\":1123:1262   */\n      swap3\n      swap2\n      pop\n      pop\n      jump\t// out\n        /* \"#utility.yul\":1268:1597   */\n    tag_19:\n        /* \"#utility.yul\":1327:1333   */\n      0x00\n        /* \"#utility.yul\":1376:1378   */\n      0x20\n        /* \"#utility.yul\":1364:1373   */\n      dup3\n        /* \"#utility.yul\":1355:1362   */\n      dup5\n        /* \"#utility.yul\":1351:1374   */\n      sub\n        /* \"#utility.yul\":1347:1379   */\n      slt\n        /* \"#utility.yul\":1344:1463   */\n      iszero\n      tag_68\n      jumpi\n        /* \"#utility.yul\":1382:1461   */\n      tag_69\n      tag_37\n      jump\t// in\n    tag_69:\n        /* \"#utility.yul\":1344:1463   */\n    tag_68:\n        /* \"#utility.yul\":1502:1503   */\n      0x00\n        /* \"#utility.yul\":1527:1580   */\n      tag_70\n        /* \"#utility.yul\":1572:1579   */\n      dup5\n        /* \"#utility.yul\":1563:1569   */\n      dup3\n        /* \"#utility.yul\":1552:1561   */\n      dup6\n        /* \"#utility.yul\":1548:1570   */\n      add\n        /* \"#utility.yul\":1527:1580   */\n      tag_42\n      jump\t// in\n    tag_70:\n        /* \"#utility.yul\":1517:1580   */\n      swap2\n      pop\n        /* \"#utility.yul\":1473:1590   */\n      pop\n        /* \"#utility.yul\":1268:1597   */\n      swap3\n      swap2\n      pop\n      pop\n      jump\t// out\n        /* \"#utility.yul\":1603:1680   */\n    tag_43:\n        /* \"#utility.yul\":1640:1647   */\n      0x00\n        /* \"#utility.yul\":1669:1674   */\n      dup2\n        /* \"#utility.yul\":1658:1674   */\n      swap1\n      pop\n        /* \"#utility.yul\":1603:1680   */\n      swap2\n      swap1\n      pop\n      jump\t// out\n        /* \"#utility.yul\":1686:1804   */\n    tag_44:\n        /* \"#utility.yul\":1773:1797   */\n      tag_73\n        /* \"#utility.yul\":1791:1796   */\n      dup2\n        /* \"#utility.yul\":1773:1797   */\n      tag_43\n      jump\t// in\n    tag_73:\n        /* \"#utility.yul\":1768:1771   */\n      dup3\n        /* \"#utility.yul\":1761:1798   */\n      mstore\n        /* \"#utility.yul\":1686:1804   */\n      pop\n      pop\n      jump\t// out\n        /* \"#utility.yul\":1810:2032   */\n    tag_22:\n        /* \"#utility.yul\":1903:1907   */\n      0x00\n        /* \"#utility.yul\":1941:1943   */\n      0x20\n        /* \"#utility.yul\":1930:1939   */\n      dup3\n        /* \"#utility.yul\":1926:1944   */\n      add\n        /* \"#utility.yul\":1918:1944   */\n      swap1\n      pop\n        /* \"#utility.yul\":1954:2025   */\n      tag_75\n        /* \"#utility.yul\":2022:2023   */\n      0x00\n        /* \"#utility.yul\":2011:2020   */\n      dup4\n        /* \"#utility.yul\":2007:2024   */\n      add\n        /* \"#utility.yul\":1998:2004   */\n      dup5\n        /* \"#utility.yul\":1954:2025   */\n      tag_44\n      jump\t// in\n    tag_75:\n        /* \"#utility.yul\":1810:2032   */\n      swap3\n      swap2\n      pop\n      pop\n      jump\t// out\n        /* \"#utility.yul\":2038:2156   */\n    tag_45:\n        /* \"#utility.yul\":2125:2149   */\n      tag_77\n        /* \"#utility.yul\":2143:2148   */\n      dup2\n        /* \"#utility.yul\":2125:2149   */\n      tag_40\n      jump\t// in\n    tag_77:\n        /* \"#utility.yul\":2120:2123   */\n      dup3\n        /* \"#utility.yul\":2113:2150   */\n      mstore\n        /* \"#utility.yul\":2038:2156   */\n      pop\n      pop\n      jump\t// out\n        /* \"#utility.yul\":2162:2384   */\n    tag_26:\n        /* \"#utility.yul\":2255:2259   */\n      0x00\n        /* \"#utility.yul\":2293:2295   */\n      0x20\n        /* \"#utility.yul\":2282:2291   */\n      dup3\n        /* \"#utility.yul\":2278:2296   */\n      add\n        /* \"#utility.yul\":2270:2296   */\n      swap1\n      pop\n        /* \"#utility.yul\":2306:2377   */\n      tag_79\n        /* \"#utility.yul\":2374:2375   */\n      0x00\n        /* \"#utility.yul\":2363:2372   */\n      dup4\n        /* \"#utility.yul\":2359:2376   */\n      add\n        /* \"#utility.yul\":2350:2356   */\n      dup5\n        /* \"#utility.yul\":2306:2377   */\n      tag_45\n      jump\t// in\n    tag_79:\n        /* \"#utility.yul\":2162:2384   */\n      swap3\n      swap2\n      pop\n      pop\n      jump\t// out\n        /* \"#utility.yul\":2390:2559   */\n    tag_46:\n        /* \"#utility.yul\":2474:2485   */\n      0x00\n        /* \"#utility.yul\":2508:2514   */\n      dup3\n        /* \"#utility.yul\":2503:2506   */\n      dup3\n        /* \"#utility.yul\":2496:2515   */\n      mstore\n        /* \"#utility.yul\":2548:2552   */\n      0x20\n        /* \"#utility.yul\":2543:2546   */\n      dup3\n        /* \"#utility.yul\":2539:2553   */\n      add\n        /* \"#utility.yul\":2524:2553   */\n      swap1\n      pop\n        /* \"#utility.yul\":2390:2559   */\n      swap3\n      swap2\n      pop\n      pop\n      jump\t// out\n        /* \"#utility.yul\":2565:2734   */\n    tag_47:\n        /* \"#utility.yul\":2705:2726   */\n      0x5265656e7472616e637920646574656374656400000000000000000000000000\n        /* \"#utility.yul\":2701:2702   */\n      0x00\n        /* \"#utility.yul\":2693:2699   */\n      dup3\n        /* \"#utility.yul\":2689:2703   */\n      add\n        /* \"#utility.yul\":2682:2727   */\n      mstore\n        /* \"#utility.yul\":2565:2734   */\n      pop\n      jump\t// out\n        /* \"#utility.yul\":2740:3106   */\n    tag_48:\n        /* \"#utility.yul\":2882:2885   */\n      0x00\n        /* \"#utility.yul\":2903:2970   */\n      tag_83\n        /* \"#utility.yul\":2967:2969   */\n      0x13\n        /* \"#utility.yul\":2962:2965   */\n      dup4\n        /* \"#utility.yul\":2903:2970   */\n      tag_46\n      jump\t// in\n    tag_83:\n        /* \"#utility.yul\":2896:2970   */\n      swap2\n      pop\n        /* \"#utility.yul\":2979:3072   */\n      tag_84\n        /* \"#utility.yul\":3068:3071   */\n      dup3\n        /* \"#utility.yul\":2979:3072   */\n      tag_47\n      jump\t// in\n    tag_84:\n        /* \"#utility.yul\":3097:3099   */\n      0x20\n        /* \"#utility.yul\":3092:3095   */\n      dup3\n        /* \"#utility.yul\":3088:3100   */\n      add\n        /* \"#utility.yul\":3081:3100   */\n      swap1\n      pop\n        /* \"#utility.yul\":2740:3106   */\n      swap2\n      swap1\n      pop\n      jump\t// out\n        /* \"#utility.yul\":3112:3531   */\n    tag_28:\n        /* \"#utility.yul\":3278:3282   */\n      0x00\n        /* \"#utility.yul\":3316:3318   */\n      0x20\n        /* \"#utility.yul\":3305:3314   */\n      dup3\n        /* \"#utility.yul\":3301:3319   */\n      add\n        /* \"#utility.yul\":3293:3319   */\n      swap1\n      pop\n        /* \"#utility.yul\":3365:3374   */\n      dup2\n        /* \"#utility.yul\":3359:3363   */\n      dup2\n        /* \"#utility.yul\":3355:3375   */\n      sub\n        /* \"#utility.yul\":3351:3352   */\n      0x00\n        /* \"#utility.yul\":3340:3349   */\n      dup4\n        /* \"#utility.yul\":3336:3353   */\n      add\n        /* \"#utility.yul\":3329:3376   */\n      mstore\n        /* \"#utility.yul\":3393:3524   */\n      tag_86\n        /* \"#utility.yul\":3519:3523   */\n      dup2\n        /* \"#utility.yul\":3393:3524   */\n      tag_48\n      jump\t// in\n    tag_86:\n        /* \"#utility.yul\":3385:3524   */\n      swap1\n      pop\n        /* \"#utility.yul\":3112:3531   */\n      swap2\n      swap1\n      pop\n      jump\t// out\n        /* \"#utility.yul\":3537:3717   */\n    tag_49:\n        /* \"#utility.yul\":3585:3662   */\n      0x4e487b7100000000000000000000000000000000000000000000000000000000\n        /* \"#utility.yul\":3582:3583   */\n      0x00\n        /* \"#utility.yul\":3575:3663   */\n      mstore\n        /* \"#utility.yul\":3682:3686   */\n      0x11\n        /* \"#utility.yul\":3679:3680   */\n      0x04\n        /* \"#utility.yul\":3672:3687   */\n      mstore\n        /* \"#utility.yul\":3706:3710   */\n      0x24\n        /* \"#utility.yul\":3703:3704   */\n      0x00\n        /* \"#utility.yul\":3696:3711   */\n      revert\n        /* \"#utility.yul\":3723:3914   */\n    tag_33:\n        /* \"#utility.yul\":3763:3766   */\n      0x00\n        /* \"#utility.yul\":3782:3802   */\n      tag_89\n        /* \"#utility.yul\":3800:3801   */\n      dup3\n        /* \"#utility.yul\":3782:3802   */\n      tag_43\n      jump\t// in\n    tag_89:\n        /* \"#utility.yul\":3777:3802   */\n      swap2\n      pop\n        /* \"#utility.yul\":3816:3836   */\n      tag_90\n        /* \"#utility.yul\":3834:3835   */\n      dup4\n        /* \"#utility.yul\":3816:3836   */\n      tag_43\n      jump\t// in\n    tag_90:\n        /* \"#utility.yul\":3811:3836   */\n      swap3\n      pop\n        /* \"#utility.yul\":3859:3860   */\n      dup3\n        /* \"#utility.yul\":3856:3857   */\n      dup3\n        /* \"#utility.yul\":3852:3861   */\n      add\n        /* \"#utility.yul\":3845:3861   */\n      swap1\n      pop\n        /* \"#utility.yul\":3880:3883   */\n      dup1\n        /* \"#utility.yul\":3877:3878   */\n      dup3\n        /* \"#utility.yul\":3874:3884   */\n      gt\n        /* \"#utility.yul\":3871:3907   */\n      iszero\n      tag_91\n      jumpi\n        /* \"#utility.yul\":3887:3905   */\n      tag_92\n      tag_49\n      jump\t// in\n    tag_92:\n        /* \"#utility.yul\":3871:3907   */\n    tag_91:\n        /* \"#utility.yul\":3723:3914   */\n      swap3\n      swap2\n      pop\n      pop\n      jump\t// out\n\n    auxdata: 0xa264697066735822122006331c99fb2a6acdc9b33285bbe5f57a6de2b02e7f9822fa40431382c3cf1a0664736f6c634300081a0033\n}\n",
				"bytecode": {
					"linkReferences": {},
					"object": "6080604052348015600e575f80fd5b506104c58061001c5f395ff3fe60806040526004361061003e575f3560e01c8063034bcbb1146100425780633ccfd60b1461006c578063d0e30db014610082578063fc7e286d1461008c575b5f80fd5b34801561004d575f80fd5b506100566100c8565b60405161006391906102bc565b60405180910390f35b348015610077575f80fd5b506100806100d8565b005b61008a610238565b005b348015610097575f80fd5b506100b260048036038101906100ad9190610333565b61028d565b6040516100bf9190610376565b60405180910390f35b5f8054906101000a900460ff1681565b620186a05a111561016e5760015f806101000a81548160ff0219169083151502179055507facf53fb2da5dded17a7542255d187177082a98cdbd8d86d05a6ee037e16684873360405161012b919061039e565b60405180910390a16040517f08c379a000000000000000000000000000000000000000000000000000000000815260040161016590610411565b60405180910390fd5b5f60015f3373ffffffffffffffffffffffffffffffffffffffff1673ffffffffffffffffffffffffffffffffffffffff1681526020019081526020015f205490505f60015f3373ffffffffffffffffffffffffffffffffffffffff1673ffffffffffffffffffffffffffffffffffffffff1681526020019081526020015f20819055503373ffffffffffffffffffffffffffffffffffffffff166108fc8290811502906040515f60405180830381858888f19350505050158015610234573d5f803e3d5ffd5b5050565b3460015f3373ffffffffffffffffffffffffffffffffffffffff1673ffffffffffffffffffffffffffffffffffffffff1681526020019081526020015f205f828254610284919061045c565b92505081905550565b6001602052805f5260405f205f915090505481565b5f8115159050919050565b6102b6816102a2565b82525050565b5f6020820190506102cf5f8301846102ad565b92915050565b5f80fd5b5f73ffffffffffffffffffffffffffffffffffffffff82169050919050565b5f610302826102d9565b9050919050565b610312816102f8565b811461031c575f80fd5b50565b5f8135905061032d81610309565b92915050565b5f60208284031215610348576103476102d5565b5b5f6103558482850161031f565b91505092915050565b5f819050919050565b6103708161035e565b82525050565b5f6020820190506103895f830184610367565b92915050565b610398816102f8565b82525050565b5f6020820190506103b15f83018461038f565b92915050565b5f82825260208201905092915050565b7f5265656e7472616e6379206465746563746564000000000000000000000000005f82015250565b5f6103fb6013836103b7565b9150610406826103c7565b602082019050919050565b5f6020820190508181035f830152610428816103ef565b9050919050565b7f4e487b71000000000000000000000000000000000000000000000000000000005f52601160045260245ffd5b5f6104668261035e565b91506104718361035e565b92508282019050808211156104895761048861042f565b5b9291505056fea264697066735822122006331c99fb2a6acdc9b33285bbe5f57a6de2b02e7f9822fa40431382c3cf1a0664736f6c634300081a0033",
					"opcodes": "PUSH1 0x80 PUSH1 0x40 MSTORE CALLVALUE DUP1 ISZERO PUSH1 0xE JUMPI PUSH0 DUP1 REVERT JUMPDEST POP PUSH2 0x4C5 DUP1 PUSH2 0x1C PUSH0 CODECOPY PUSH0 RETURN INVALID PUSH1 0x80 PUSH1 0x40 MSTORE PUSH1 0x4 CALLDATASIZE LT PUSH2 0x3E JUMPI PUSH0 CALLDATALOAD PUSH1 0xE0 SHR DUP1 PUSH4 0x34BCBB1 EQ PUSH2 0x42 JUMPI DUP1 PUSH4 0x3CCFD60B EQ PUSH2 0x6C JUMPI DUP1 PUSH4 0xD0E30DB0 EQ PUSH2 0x82 JUMPI DUP1 PUSH4 0xFC7E286D EQ PUSH2 0x8C JUMPI JUMPDEST PUSH0 DUP1 REVERT JUMPDEST CALLVALUE DUP1 ISZERO PUSH2 0x4D JUMPI PUSH0 DUP1 REVERT JUMPDEST POP PUSH2 0x56 PUSH2 0xC8 JUMP JUMPDEST PUSH1 0x40 MLOAD PUSH2 0x63 SWAP2 SWAP1 PUSH2 0x2BC JUMP JUMPDEST PUSH1 0x40 MLOAD DUP1 SWAP2 SUB SWAP1 RETURN JUMPDEST CALLVALUE DUP1 ISZERO PUSH2 0x77 JUMPI PUSH0 DUP1 REVERT JUMPDEST POP PUSH2 0x80 PUSH2 0xD8 JUMP JUMPDEST STOP JUMPDEST PUSH2 0x8A PUSH2 0x238 JUMP JUMPDEST STOP JUMPDEST CALLVALUE DUP1 ISZERO PUSH2 0x97 JUMPI PUSH0 DUP1 REVERT JUMPDEST POP PUSH2 0xB2 PUSH1 0x4 DUP1 CALLDATASIZE SUB DUP2 ADD SWAP1 PUSH2 0xAD SWAP2 SWAP1 PUSH2 0x333 JUMP JUMPDEST PUSH2 0x28D JUMP JUMPDEST PUSH1 0x40 MLOAD PUSH2 0xBF SWAP2 SWAP1 PUSH2 0x376 JUMP JUMPDEST PUSH1 0x40 MLOAD DUP1 SWAP2 SUB SWAP1 RETURN JUMPDEST PUSH0 DUP1 SLOAD SWAP1 PUSH2 0x100 EXP SWAP1 DIV PUSH1 0xFF AND DUP2 JUMP JUMPDEST PUSH3 0x186A0 GAS GT ISZERO PUSH2 0x16E JUMPI PUSH1 0x1 PUSH0 DUP1 PUSH2 0x100 EXP DUP2 SLOAD DUP2 PUSH1 0xFF MUL NOT AND SWAP1 DUP4 ISZERO ISZERO MUL OR SWAP1 SSTORE POP PUSH32 0xACF53FB2DA5DDED17A7542255D187177082A98CDBD8D86D05A6EE037E1668487 CALLER PUSH1 0x40 MLOAD PUSH2 0x12B SWAP2 SWAP1 PUSH2 0x39E JUMP JUMPDEST PUSH1 0x40 MLOAD DUP1 SWAP2 SUB SWAP1 LOG1 PUSH1 0x40 MLOAD PUSH32 0x8C379A000000000000000000000000000000000000000000000000000000000 DUP2 MSTORE PUSH1 0x4 ADD PUSH2 0x165 SWAP1 PUSH2 0x411 JUMP JUMPDEST PUSH1 0x40 MLOAD DUP1 SWAP2 SUB SWAP1 REVERT JUMPDEST PUSH0 PUSH1 0x1 PUSH0 CALLER PUSH20 0xFFFFFFFFFFFFFFFFFFFFFFFFFFFFFFFFFFFFFFFF AND PUSH20 0xFFFFFFFFFFFFFFFFFFFFFFFFFFFFFFFFFFFFFFFF AND DUP2 MSTORE PUSH1 0x20 ADD SWAP1 DUP2 MSTORE PUSH1 0x20 ADD PUSH0 KECCAK256 SLOAD SWAP1 POP PUSH0 PUSH1 0x1 PUSH0 CALLER PUSH20 0xFFFFFFFFFFFFFFFFFFFFFFFFFFFFFFFFFFFFFFFF AND PUSH20 0xFFFFFFFFFFFFFFFFFFFFFFFFFFFFFFFFFFFFFFFF AND DUP2 MSTORE PUSH1 0x20 ADD SWAP1 DUP2 MSTORE PUSH1 0x20 ADD PUSH0 KECCAK256 DUP2 SWAP1 SSTORE POP CALLER PUSH20 0xFFFFFFFFFFFFFFFFFFFFFFFFFFFFFFFFFFFFFFFF AND PUSH2 0x8FC DUP3 SWAP1 DUP2 ISZERO MUL SWAP1 PUSH1 0x40 MLOAD PUSH0 PUSH1 0x40 MLOAD DUP1 DUP4 SUB DUP2 DUP6 DUP9 DUP9 CALL SWAP4 POP POP POP POP ISZERO DUP1 ISZERO PUSH2 0x234 JUMPI RETURNDATASIZE PUSH0 DUP1 RETURNDATACOPY RETURNDATASIZE PUSH0 REVERT JUMPDEST POP POP JUMP JUMPDEST CALLVALUE PUSH1 0x1 PUSH0 CALLER PUSH20 0xFFFFFFFFFFFFFFFFFFFFFFFFFFFFFFFFFFFFFFFF AND PUSH20 0xFFFFFFFFFFFFFFFFFFFFFFFFFFFFFFFFFFFFFFFF AND DUP2 MSTORE PUSH1 0x20 ADD SWAP1 DUP2 MSTORE PUSH1 0x20 ADD PUSH0 KECCAK256 PUSH0 DUP3 DUP3 SLOAD PUSH2 0x284 SWAP2 SWAP1 PUSH2 0x45C JUMP JUMPDEST SWAP3 POP POP DUP2 SWAP1 SSTORE POP JUMP JUMPDEST PUSH1 0x1 PUSH1 0x20 MSTORE DUP1 PUSH0 MSTORE PUSH1 0x40 PUSH0 KECCAK256 PUSH0 SWAP2 POP SWAP1 POP SLOAD DUP2 JUMP JUMPDEST PUSH0 DUP2 ISZERO ISZERO SWAP1 POP SWAP2 SWAP1 POP JUMP JUMPDEST PUSH2 0x2B6 DUP2 PUSH2 0x2A2 JUMP JUMPDEST DUP3 MSTORE POP POP JUMP JUMPDEST PUSH0 PUSH1 0x20 DUP3 ADD SWAP1 POP PUSH2 0x2CF PUSH0 DUP4 ADD DUP5 PUSH2 0x2AD JUMP JUMPDEST SWAP3 SWAP2 POP POP JUMP JUMPDEST PUSH0 DUP1 REVERT JUMPDEST PUSH0 PUSH20 0xFFFFFFFFFFFFFFFFFFFFFFFFFFFFFFFFFFFFFFFF DUP3 AND SWAP1 POP SWAP2 SWAP1 POP JUMP JUMPDEST PUSH0 PUSH2 0x302 DUP3 PUSH2 0x2D9 JUMP JUMPDEST SWAP1 POP SWAP2 SWAP1 POP JUMP JUMPDEST PUSH2 0x312 DUP2 PUSH2 0x2F8 JUMP JUMPDEST DUP2 EQ PUSH2 0x31C JUMPI PUSH0 DUP1 REVERT JUMPDEST POP JUMP JUMPDEST PUSH0 DUP2 CALLDATALOAD SWAP1 POP PUSH2 0x32D DUP2 PUSH2 0x309 JUMP JUMPDEST SWAP3 SWAP2 POP POP JUMP JUMPDEST PUSH0 PUSH1 0x20 DUP3 DUP5 SUB SLT ISZERO PUSH2 0x348 JUMPI PUSH2 0x347 PUSH2 0x2D5 JUMP JUMPDEST JUMPDEST PUSH0 PUSH2 0x355 DUP5 DUP3 DUP6 ADD PUSH2 0x31F JUMP JUMPDEST SWAP2 POP POP SWAP3 SWAP2 POP POP JUMP JUMPDEST PUSH0 DUP2 SWAP1 POP SWAP2 SWAP1 POP JUMP JUMPDEST PUSH2 0x370 DUP2 PUSH2 0x35E JUMP JUMPDEST DUP3 MSTORE POP POP JUMP JUMPDEST PUSH0 PUSH1 0x20 DUP3 ADD SWAP1 POP PUSH2 0x389 PUSH0 DUP4 ADD DUP5 PUSH2 0x367 JUMP JUMPDEST SWAP3 SWAP2 POP POP JUMP JUMPDEST PUSH2 0x398 DUP2 PUSH2 0x2F8 JUMP JUMPDEST DUP3 MSTORE POP POP JUMP JUMPDEST PUSH0 PUSH1 0x20 DUP3 ADD SWAP1 POP PUSH2 0x3B1 PUSH0 DUP4 ADD DUP5 PUSH2 0x38F JUMP JUMPDEST SWAP3 SWAP2 POP POP JUMP JUMPDEST PUSH0 DUP3 DUP3 MSTORE PUSH1 0x20 DUP3 ADD SWAP1 POP SWAP3 SWAP2 POP POP JUMP JUMPDEST PUSH32 0x5265656E7472616E637920646574656374656400000000000000000000000000 PUSH0 DUP3 ADD MSTORE POP JUMP JUMPDEST PUSH0 PUSH2 0x3FB PUSH1 0x13 DUP4 PUSH2 0x3B7 JUMP JUMPDEST SWAP2 POP PUSH2 0x406 DUP3 PUSH2 0x3C7 JUMP JUMPDEST PUSH1 0x20 DUP3 ADD SWAP1 POP SWAP2 SWAP1 POP JUMP JUMPDEST PUSH0 PUSH1 0x20 DUP3 ADD SWAP1 POP DUP2 DUP2 SUB PUSH0 DUP4 ADD MSTORE PUSH2 0x428 DUP2 PUSH2 0x3EF JUMP JUMPDEST SWAP1 POP SWAP2 SWAP1 POP JUMP JUMPDEST PUSH32 0x4E487B7100000000000000000000000000000000000000000000000000000000 PUSH0 MSTORE PUSH1 0x11 PUSH1 0x4 MSTORE PUSH1 0x24 PUSH0 REVERT JUMPDEST PUSH0 PUSH2 0x466 DUP3 PUSH2 0x35E JUMP JUMPDEST SWAP2 POP PUSH2 0x471 DUP4 PUSH2 0x35E JUMP JUMPDEST SWAP3 POP DUP3 DUP3 ADD SWAP1 POP DUP1 DUP3 GT ISZERO PUSH2 0x489 JUMPI PUSH2 0x488 PUSH2 0x42F JUMP JUMPDEST JUMPDEST SWAP3 SWAP2 POP POP JUMP INVALID LOG2 PUSH5 0x6970667358 0x22 SLT KECCAK256 MOD CALLER SHR SWAP10 0xFB 0x2A PUSH11 0xCDC9B33285BBE5F57A6DE2 0xB0 0x2E PUSH32 0x9822FA40431382C3CF1A0664736F6C634300081A003300000000000000000000 "
				},
				"gasEstimates": {
					"creation": {
						"codeDepositCost": "244200",
						"executionCost": "285",
						"totalCost": "244485"
					},
					"external": {
						"deposit()": "infinite",
						"deposits(address)": "2846",
						"trapTriggered()": "2441",
						"withdraw()": "infinite"
					}
				},
				"methodIdentifiers": {
					"deposit()": "d0e30db0",
					"deposits(address)": "fc7e286d",
					"trapTriggered()": "034bcbb1",
					"withdraw()": "3ccfd60b"
				}
			},
			"storageLayout": {
				"storage": [
					{
						"astId": 2,
						"contract": "H/Honeymonkey/Reentrancy Trap (Defense).sol:HoneymonkeyReentrancyTrap",
						"label": "trapTriggered",
						"offset": 0,
						"slot": "0",
						"type": "t_bool"
					},
					{
						"astId": 6,
						"contract": "H/Honeymonkey/Reentrancy Trap (Defense).sol:HoneymonkeyReentrancyTrap",
						"label": "deposits",
						"offset": 0,
						"slot": "1",
						"type": "t_mapping(t_address,t_uint256)"
					}
				],
				"types": {
					"t_address": {
						"encoding": "inplace",
						"label": "address",
						"numberOfBytes": "20"
					},
					"t_bool": {
						"encoding": "inplace",
						"label": "bool",
						"numberOfBytes": "1"
					},
					"t_mapping(t_address,t_uint256)": {
						"encoding": "mapping",
						"key": "t_address",
						"label": "mapping(address => uint256)",
						"numberOfBytes": "32",
						"value": "t_uint256"
					},
					"t_uint256": {
						"encoding": "inplace",
						"label": "uint256",
						"numberOfBytes": "32"
					}
				}
			},
			"userdoc": {
				"kind": "user",
				"methods": {},
				"version": 1
			}
		}
	}
}