{
	"A/AccountHarvesting/AccountHarvesting.sol": {
		"AccountHarvestSafeCaptcha": {
			"abi": [
				{
					"inputs": [
						{
							"internalType": "string[]",
							"name": "initialUsers",
							"type": "string[]"
						}
					],
					"stateMutability": "nonpayable",
					"type": "constructor"
				},
				{
					"inputs": [],
					"name": "AH__BadCaptcha",
					"type": "error"
				},
				{
					"anonymous": false,
					"inputs": [
						{
							"indexed": true,
							"internalType": "address",
							"name": "by",
							"type": "address"
						},
						{
							"indexed": false,
							"internalType": "string",
							"name": "username",
							"type": "string"
						},
						{
							"indexed": false,
							"internalType": "enum AccountHarvestingDefenseType",
							"name": "defense",
							"type": "uint8"
						}
					],
					"name": "HarvestChecked",
					"type": "event"
				},
				{
					"inputs": [
						{
							"internalType": "address",
							"name": "",
							"type": "address"
						}
					],
					"name": "captchaToken",
					"outputs": [
						{
							"internalType": "bytes32",
							"name": "",
							"type": "bytes32"
						}
					],
					"stateMutability": "view",
					"type": "function"
				},
				{
					"inputs": [
						{
							"internalType": "string",
							"name": "username",
							"type": "string"
						},
						{
							"internalType": "bytes32",
							"name": "token",
							"type": "bytes32"
						}
					],
					"name": "checkUser",
					"outputs": [],
					"stateMutability": "nonpayable",
					"type": "function"
				},
				{
					"inputs": [
						{
							"internalType": "address",
							"name": "user",
							"type": "address"
						},
						{
							"internalType": "bytes32",
							"name": "token",
							"type": "bytes32"
						}
					],
					"name": "setCaptchaToken",
					"outputs": [],
					"stateMutability": "nonpayable",
					"type": "function"
				},
				{
					"inputs": [
						{
							"internalType": "string",
							"name": "",
							"type": "string"
						}
					],
					"name": "userExists",
					"outputs": [
						{
							"internalType": "bool",
							"name": "",
							"type": "bool"
						}
					],
					"stateMutability": "view",
					"type": "function"
				}
			],
			"devdoc": {
				"kind": "dev",
				"methods": {},
				"version": 1
			},
			"evm": {
				"assembly": "    /* \"A/AccountHarvesting/AccountHarvesting.sol\":3757:4693  contract AccountHarvestSafeCaptcha {... */\n  mstore(0x40, 0x80)\n    /* \"A/AccountHarvesting/AccountHarvesting.sol\":4070:4234  constructor(string[] memory initialUsers) {... */\n  callvalue\n  dup1\n  iszero\n  tag_1\n  jumpi\n  0x00\n  dup1\n  revert\ntag_1:\n  pop\n  mload(0x40)\n  sub(codesize, bytecodeSize)\n  dup1\n  bytecodeSize\n  dup4\n  codecopy\n  dup2\n  dup2\n  add\n  0x40\n  mstore\n  dup2\n  add\n  swap1\n  tag_2\n  swap2\n  swap1\n  tag_3\n  jump\t// in\ntag_2:\n    /* \"A/AccountHarvesting/AccountHarvesting.sol\":4127:4133  uint i */\n  0x00\n    /* \"A/AccountHarvesting/AccountHarvesting.sol\":4122:4228  for (uint i = 0; i < initialUsers.length; i++) {... */\ntag_6:\n    /* \"A/AccountHarvesting/AccountHarvesting.sol\":4143:4155  initialUsers */\n  dup2\n    /* \"A/AccountHarvesting/AccountHarvesting.sol\":4143:4162  initialUsers.length */\n  mload\n    /* \"A/AccountHarvesting/AccountHarvesting.sol\":4139:4140  i */\n  dup2\n    /* \"A/AccountHarvesting/AccountHarvesting.sol\":4139:4162  i < initialUsers.length */\n  lt\n    /* \"A/AccountHarvesting/AccountHarvesting.sol\":4122:4228  for (uint i = 0; i < initialUsers.length; i++) {... */\n  iszero\n  tag_7\n  jumpi\n    /* \"A/AccountHarvesting/AccountHarvesting.sol\":4213:4217  true */\n  0x01\n    /* \"A/AccountHarvesting/AccountHarvesting.sol\":4183:4193  userExists */\n  0x00\n    /* \"A/AccountHarvesting/AccountHarvesting.sol\":4194:4206  initialUsers */\n  dup4\n    /* \"A/AccountHarvesting/AccountHarvesting.sol\":4207:4208  i */\n  dup4\n    /* \"A/AccountHarvesting/AccountHarvesting.sol\":4194:4209  initialUsers[i] */\n  dup2\n  mload\n  dup2\n  lt\n  tag_9\n  jumpi\n  tag_10\n  tag_11\n  jump\t// in\ntag_10:\ntag_9:\n  0x20\n  mul\n  0x20\n  add\n  add\n  mload\n    /* \"A/AccountHarvesting/AccountHarvesting.sol\":4183:4210  userExists[initialUsers[i]] */\n  mload(0x40)\n  tag_12\n  swap2\n  swap1\n  tag_13\n  jump\t// in\ntag_12:\n  swap1\n  dup2\n  mstore\n  0x20\n  add\n  mload(0x40)\n  dup1\n  swap2\n  sub\n  swap1\n  keccak256\n  0x00\n    /* \"A/AccountHarvesting/AccountHarvesting.sol\":4183:4217  userExists[initialUsers[i]] = true */\n  0x0100\n  exp\n  dup2\n  sload\n  dup2\n  0xff\n  mul\n  not\n  and\n  swap1\n  dup4\n  iszero\n  iszero\n  mul\n  or\n  swap1\n  sstore\n  pop\n    /* \"A/AccountHarvesting/AccountHarvesting.sol\":4164:4167  i++ */\n  dup1\n  dup1\n  0x01\n  add\n  swap2\n  pop\n  pop\n    /* \"A/AccountHarvesting/AccountHarvesting.sol\":4122:4228  for (uint i = 0; i < initialUsers.length; i++) {... */\n  jump(tag_6)\ntag_7:\n  pop\n    /* \"A/AccountHarvesting/AccountHarvesting.sol\":4070:4234  constructor(string[] memory initialUsers) {... */\n  pop\n    /* \"A/AccountHarvesting/AccountHarvesting.sol\":3757:4693  contract AccountHarvestSafeCaptcha {... */\n  jump(tag_14)\n    /* \"#utility.yul\":7:82   */\ntag_15:\n    /* \"#utility.yul\":40:46   */\n  0x00\n    /* \"#utility.yul\":73:75   */\n  0x40\n    /* \"#utility.yul\":67:76   */\n  mload\n    /* \"#utility.yul\":57:76   */\n  swap1\n  pop\n    /* \"#utility.yul\":7:82   */\n  swap1\n  jump\t// out\n    /* \"#utility.yul\":88:205   */\ntag_16:\n    /* \"#utility.yul\":197:198   */\n  0x00\n    /* \"#utility.yul\":194:195   */\n  dup1\n    /* \"#utility.yul\":187:199   */\n  revert\n    /* \"#utility.yul\":211:328   */\ntag_17:\n    /* \"#utility.yul\":320:321   */\n  0x00\n    /* \"#utility.yul\":317:318   */\n  dup1\n    /* \"#utility.yul\":310:322   */\n  revert\n    /* \"#utility.yul\":334:451   */\ntag_18:\n    /* \"#utility.yul\":443:444   */\n  0x00\n    /* \"#utility.yul\":440:441   */\n  dup1\n    /* \"#utility.yul\":433:445   */\n  revert\n    /* \"#utility.yul\":457:559   */\ntag_19:\n    /* \"#utility.yul\":498:504   */\n  0x00\n    /* \"#utility.yul\":549:551   */\n  0x1f\n    /* \"#utility.yul\":545:552   */\n  not\n    /* \"#utility.yul\":540:542   */\n  0x1f\n    /* \"#utility.yul\":533:538   */\n  dup4\n    /* \"#utility.yul\":529:543   */\n  add\n    /* \"#utility.yul\":525:553   */\n  and\n    /* \"#utility.yul\":515:553   */\n  swap1\n  pop\n    /* \"#utility.yul\":457:559   */\n  swap2\n  swap1\n  pop\n  jump\t// out\n    /* \"#utility.yul\":565:745   */\ntag_20:\n    /* \"#utility.yul\":613:690   */\n  0x4e487b7100000000000000000000000000000000000000000000000000000000\n    /* \"#utility.yul\":610:611   */\n  0x00\n    /* \"#utility.yul\":603:691   */\n  mstore\n    /* \"#utility.yul\":710:714   */\n  0x41\n    /* \"#utility.yul\":707:708   */\n  0x04\n    /* \"#utility.yul\":700:715   */\n  mstore\n    /* \"#utility.yul\":734:738   */\n  0x24\n    /* \"#utility.yul\":731:732   */\n  0x00\n    /* \"#utility.yul\":724:739   */\n  revert\n    /* \"#utility.yul\":751:1032   */\ntag_21:\n    /* \"#utility.yul\":834:861   */\n  tag_43\n    /* \"#utility.yul\":856:860   */\n  dup3\n    /* \"#utility.yul\":834:861   */\n  tag_19\n  jump\t// in\ntag_43:\n    /* \"#utility.yul\":826:832   */\n  dup2\n    /* \"#utility.yul\":822:862   */\n  add\n    /* \"#utility.yul\":964:970   */\n  dup2\n    /* \"#utility.yul\":952:962   */\n  dup2\n    /* \"#utility.yul\":949:971   */\n  lt\n    /* \"#utility.yul\":928:946   */\n  0xffffffffffffffff\n    /* \"#utility.yul\":916:926   */\n  dup3\n    /* \"#utility.yul\":913:947   */\n  gt\n    /* \"#utility.yul\":910:972   */\n  or\n    /* \"#utility.yul\":907:995   */\n  iszero\n  tag_44\n  jumpi\n    /* \"#utility.yul\":975:993   */\n  tag_45\n  tag_20\n  jump\t// in\ntag_45:\n    /* \"#utility.yul\":907:995   */\ntag_44:\n    /* \"#utility.yul\":1015:1025   */\n  dup1\n    /* \"#utility.yul\":1011:1013   */\n  0x40\n    /* \"#utility.yul\":1004:1026   */\n  mstore\n    /* \"#utility.yul\":794:1032   */\n  pop\n    /* \"#utility.yul\":751:1032   */\n  pop\n  pop\n  jump\t// out\n    /* \"#utility.yul\":1038:1167   */\ntag_22:\n    /* \"#utility.yul\":1072:1078   */\n  0x00\n    /* \"#utility.yul\":1099:1119   */\n  tag_47\n  tag_15\n  jump\t// in\ntag_47:\n    /* \"#utility.yul\":1089:1119   */\n  swap1\n  pop\n    /* \"#utility.yul\":1128:1161   */\n  tag_48\n    /* \"#utility.yul\":1156:1160   */\n  dup3\n    /* \"#utility.yul\":1148:1154   */\n  dup3\n    /* \"#utility.yul\":1128:1161   */\n  tag_21\n  jump\t// in\ntag_48:\n    /* \"#utility.yul\":1038:1167   */\n  swap2\n  swap1\n  pop\n  jump\t// out\n    /* \"#utility.yul\":1173:1494   */\ntag_23:\n    /* \"#utility.yul\":1260:1264   */\n  0x00\n    /* \"#utility.yul\":1350:1368   */\n  0xffffffffffffffff\n    /* \"#utility.yul\":1342:1348   */\n  dup3\n    /* \"#utility.yul\":1339:1369   */\n  gt\n    /* \"#utility.yul\":1336:1392   */\n  iszero\n  tag_50\n  jumpi\n    /* \"#utility.yul\":1372:1390   */\n  tag_51\n  tag_20\n  jump\t// in\ntag_51:\n    /* \"#utility.yul\":1336:1392   */\ntag_50:\n    /* \"#utility.yul\":1422:1426   */\n  0x20\n    /* \"#utility.yul\":1414:1420   */\n  dup3\n    /* \"#utility.yul\":1410:1427   */\n  mul\n    /* \"#utility.yul\":1402:1427   */\n  swap1\n  pop\n    /* \"#utility.yul\":1482:1486   */\n  0x20\n    /* \"#utility.yul\":1476:1480   */\n  dup2\n    /* \"#utility.yul\":1472:1487   */\n  add\n    /* \"#utility.yul\":1464:1487   */\n  swap1\n  pop\n    /* \"#utility.yul\":1173:1494   */\n  swap2\n  swap1\n  pop\n  jump\t// out\n    /* \"#utility.yul\":1500:1617   */\ntag_24:\n    /* \"#utility.yul\":1609:1610   */\n  0x00\n    /* \"#utility.yul\":1606:1607   */\n  dup1\n    /* \"#utility.yul\":1599:1611   */\n  revert\n    /* \"#utility.yul\":1623:1740   */\ntag_25:\n    /* \"#utility.yul\":1732:1733   */\n  0x00\n    /* \"#utility.yul\":1729:1730   */\n  dup1\n    /* \"#utility.yul\":1722:1734   */\n  revert\n    /* \"#utility.yul\":1746:2054   */\ntag_26:\n    /* \"#utility.yul\":1808:1812   */\n  0x00\n    /* \"#utility.yul\":1898:1916   */\n  0xffffffffffffffff\n    /* \"#utility.yul\":1890:1896   */\n  dup3\n    /* \"#utility.yul\":1887:1917   */\n  gt\n    /* \"#utility.yul\":1884:1940   */\n  iszero\n  tag_55\n  jumpi\n    /* \"#utility.yul\":1920:1938   */\n  tag_56\n  tag_20\n  jump\t// in\ntag_56:\n    /* \"#utility.yul\":1884:1940   */\ntag_55:\n    /* \"#utility.yul\":1958:1987   */\n  tag_57\n    /* \"#utility.yul\":1980:1986   */\n  dup3\n    /* \"#utility.yul\":1958:1987   */\n  tag_19\n  jump\t// in\ntag_57:\n    /* \"#utility.yul\":1950:1987   */\n  swap1\n  pop\n    /* \"#utility.yul\":2042:2046   */\n  0x20\n    /* \"#utility.yul\":2036:2040   */\n  dup2\n    /* \"#utility.yul\":2032:2047   */\n  add\n    /* \"#utility.yul\":2024:2047   */\n  swap1\n  pop\n    /* \"#utility.yul\":1746:2054   */\n  swap2\n  swap1\n  pop\n  jump\t// out\n    /* \"#utility.yul\":2060:2199   */\ntag_27:\n    /* \"#utility.yul\":2149:2155   */\n  dup3\n    /* \"#utility.yul\":2144:2147   */\n  dup2\n    /* \"#utility.yul\":2139:2142   */\n  dup4\n    /* \"#utility.yul\":2133:2156   */\n  mcopy\n    /* \"#utility.yul\":2190:2191   */\n  0x00\n    /* \"#utility.yul\":2181:2187   */\n  dup4\n    /* \"#utility.yul\":2176:2179   */\n  dup4\n    /* \"#utility.yul\":2172:2188   */\n  add\n    /* \"#utility.yul\":2165:2192   */\n  mstore\n    /* \"#utility.yul\":2060:2199   */\n  pop\n  pop\n  pop\n  jump\t// out\n    /* \"#utility.yul\":2205:2639   */\ntag_28:\n    /* \"#utility.yul\":2294:2299   */\n  0x00\n    /* \"#utility.yul\":2319:2385   */\n  tag_60\n    /* \"#utility.yul\":2335:2384   */\n  tag_61\n    /* \"#utility.yul\":2377:2383   */\n  dup5\n    /* \"#utility.yul\":2335:2384   */\n  tag_26\n  jump\t// in\ntag_61:\n    /* \"#utility.yul\":2319:2385   */\n  tag_22\n  jump\t// in\ntag_60:\n    /* \"#utility.yul\":2310:2385   */\n  swap1\n  pop\n    /* \"#utility.yul\":2408:2414   */\n  dup3\n    /* \"#utility.yul\":2401:2406   */\n  dup2\n    /* \"#utility.yul\":2394:2415   */\n  mstore\n    /* \"#utility.yul\":2446:2450   */\n  0x20\n    /* \"#utility.yul\":2439:2444   */\n  dup2\n    /* \"#utility.yul\":2435:2451   */\n  add\n    /* \"#utility.yul\":2484:2487   */\n  dup5\n    /* \"#utility.yul\":2475:2481   */\n  dup5\n    /* \"#utility.yul\":2470:2473   */\n  dup5\n    /* \"#utility.yul\":2466:2482   */\n  add\n    /* \"#utility.yul\":2463:2488   */\n  gt\n    /* \"#utility.yul\":2460:2572   */\n  iszero\n  tag_62\n  jumpi\n    /* \"#utility.yul\":2491:2570   */\n  tag_63\n  tag_25\n  jump\t// in\ntag_63:\n    /* \"#utility.yul\":2460:2572   */\ntag_62:\n    /* \"#utility.yul\":2581:2633   */\n  tag_64\n    /* \"#utility.yul\":2626:2632   */\n  dup5\n    /* \"#utility.yul\":2621:2624   */\n  dup3\n    /* \"#utility.yul\":2616:2619   */\n  dup6\n    /* \"#utility.yul\":2581:2633   */\n  tag_27\n  jump\t// in\ntag_64:\n    /* \"#utility.yul\":2300:2639   */\n  pop\n    /* \"#utility.yul\":2205:2639   */\n  swap4\n  swap3\n  pop\n  pop\n  pop\n  jump\t// out\n    /* \"#utility.yul\":2659:3014   */\ntag_29:\n    /* \"#utility.yul\":2726:2731   */\n  0x00\n    /* \"#utility.yul\":2775:2778   */\n  dup3\n    /* \"#utility.yul\":2768:2772   */\n  0x1f\n    /* \"#utility.yul\":2760:2766   */\n  dup4\n    /* \"#utility.yul\":2756:2773   */\n  add\n    /* \"#utility.yul\":2752:2779   */\n  slt\n    /* \"#utility.yul\":2742:2864   */\n  tag_66\n  jumpi\n    /* \"#utility.yul\":2783:2862   */\n  tag_67\n  tag_18\n  jump\t// in\ntag_67:\n    /* \"#utility.yul\":2742:2864   */\ntag_66:\n    /* \"#utility.yul\":2893:2899   */\n  dup2\n    /* \"#utility.yul\":2887:2900   */\n  mload\n    /* \"#utility.yul\":2918:3008   */\n  tag_68\n    /* \"#utility.yul\":3004:3007   */\n  dup5\n    /* \"#utility.yul\":2996:3002   */\n  dup3\n    /* \"#utility.yul\":2989:2993   */\n  0x20\n    /* \"#utility.yul\":2981:2987   */\n  dup7\n    /* \"#utility.yul\":2977:2994   */\n  add\n    /* \"#utility.yul\":2918:3008   */\n  tag_28\n  jump\t// in\ntag_68:\n    /* \"#utility.yul\":2909:3008   */\n  swap2\n  pop\n    /* \"#utility.yul\":2732:3014   */\n  pop\n    /* \"#utility.yul\":2659:3014   */\n  swap3\n  swap2\n  pop\n  pop\n  jump\t// out\n    /* \"#utility.yul\":3036:3996   */\ntag_30:\n    /* \"#utility.yul\":3153:3158   */\n  0x00\n    /* \"#utility.yul\":3178:3269   */\n  tag_70\n    /* \"#utility.yul\":3194:3268   */\n  tag_71\n    /* \"#utility.yul\":3261:3267   */\n  dup5\n    /* \"#utility.yul\":3194:3268   */\n  tag_23\n  jump\t// in\ntag_71:\n    /* \"#utility.yul\":3178:3269   */\n  tag_22\n  jump\t// in\ntag_70:\n    /* \"#utility.yul\":3169:3269   */\n  swap1\n  pop\n    /* \"#utility.yul\":3289:3294   */\n  dup1\n    /* \"#utility.yul\":3318:3324   */\n  dup4\n    /* \"#utility.yul\":3311:3316   */\n  dup3\n    /* \"#utility.yul\":3304:3325   */\n  mstore\n    /* \"#utility.yul\":3352:3356   */\n  0x20\n    /* \"#utility.yul\":3345:3350   */\n  dup3\n    /* \"#utility.yul\":3341:3357   */\n  add\n    /* \"#utility.yul\":3334:3357   */\n  swap1\n  pop\n    /* \"#utility.yul\":3405:3409   */\n  0x20\n    /* \"#utility.yul\":3397:3403   */\n  dup5\n    /* \"#utility.yul\":3393:3410   */\n  mul\n    /* \"#utility.yul\":3385:3391   */\n  dup4\n    /* \"#utility.yul\":3381:3411   */\n  add\n    /* \"#utility.yul\":3434:3437   */\n  dup6\n    /* \"#utility.yul\":3426:3432   */\n  dup2\n    /* \"#utility.yul\":3423:3438   */\n  gt\n    /* \"#utility.yul\":3420:3542   */\n  iszero\n  tag_72\n  jumpi\n    /* \"#utility.yul\":3453:3532   */\n  tag_73\n  tag_24\n  jump\t// in\ntag_73:\n    /* \"#utility.yul\":3420:3542   */\ntag_72:\n    /* \"#utility.yul\":3568:3574   */\n  dup4\n    /* \"#utility.yul\":3551:3990   */\ntag_74:\n    /* \"#utility.yul\":3585:3591   */\n  dup2\n    /* \"#utility.yul\":3580:3583   */\n  dup2\n    /* \"#utility.yul\":3577:3592   */\n  lt\n    /* \"#utility.yul\":3551:3990   */\n  iszero\n  tag_76\n  jumpi\n    /* \"#utility.yul\":3667:3670   */\n  dup1\n    /* \"#utility.yul\":3661:3671   */\n  mload\n    /* \"#utility.yul\":3703:3721   */\n  0xffffffffffffffff\n    /* \"#utility.yul\":3690:3701   */\n  dup2\n    /* \"#utility.yul\":3687:3722   */\n  gt\n    /* \"#utility.yul\":3684:3806   */\n  iszero\n  tag_77\n  jumpi\n    /* \"#utility.yul\":3725:3804   */\n  tag_78\n  tag_18\n  jump\t// in\ntag_78:\n    /* \"#utility.yul\":3684:3806   */\ntag_77:\n    /* \"#utility.yul\":3849:3860   */\n  dup1\n    /* \"#utility.yul\":3841:3847   */\n  dup7\n    /* \"#utility.yul\":3837:3861   */\n  add\n    /* \"#utility.yul\":3887:3945   */\n  tag_79\n    /* \"#utility.yul\":3941:3944   */\n  dup10\n    /* \"#utility.yul\":3929:3939   */\n  dup3\n    /* \"#utility.yul\":3887:3945   */\n  tag_29\n  jump\t// in\ntag_79:\n    /* \"#utility.yul\":3882:3885   */\n  dup6\n    /* \"#utility.yul\":3875:3946   */\n  mstore\n    /* \"#utility.yul\":3975:3979   */\n  0x20\n    /* \"#utility.yul\":3970:3973   */\n  dup6\n    /* \"#utility.yul\":3966:3980   */\n  add\n    /* \"#utility.yul\":3959:3980   */\n  swap5\n  pop\n    /* \"#utility.yul\":3627:3990   */\n  pop\n  pop\n    /* \"#utility.yul\":3611:3615   */\n  0x20\n    /* \"#utility.yul\":3606:3609   */\n  dup2\n    /* \"#utility.yul\":3602:3616   */\n  add\n    /* \"#utility.yul\":3595:3616   */\n  swap1\n  pop\n    /* \"#utility.yul\":3551:3990   */\n  jump(tag_74)\ntag_76:\n    /* \"#utility.yul\":3555:3576   */\n  pop\n    /* \"#utility.yul\":3159:3996   */\n  pop\n  pop\n    /* \"#utility.yul\":3036:3996   */\n  swap4\n  swap3\n  pop\n  pop\n  pop\n  jump\t// out\n    /* \"#utility.yul\":4018:4423   */\ntag_31:\n    /* \"#utility.yul\":4110:4115   */\n  0x00\n    /* \"#utility.yul\":4159:4162   */\n  dup3\n    /* \"#utility.yul\":4152:4156   */\n  0x1f\n    /* \"#utility.yul\":4144:4150   */\n  dup4\n    /* \"#utility.yul\":4140:4157   */\n  add\n    /* \"#utility.yul\":4136:4163   */\n  slt\n    /* \"#utility.yul\":4126:4248   */\n  tag_81\n  jumpi\n    /* \"#utility.yul\":4167:4246   */\n  tag_82\n  tag_18\n  jump\t// in\ntag_82:\n    /* \"#utility.yul\":4126:4248   */\ntag_81:\n    /* \"#utility.yul\":4277:4283   */\n  dup2\n    /* \"#utility.yul\":4271:4284   */\n  mload\n    /* \"#utility.yul\":4302:4417   */\n  tag_83\n    /* \"#utility.yul\":4413:4416   */\n  dup5\n    /* \"#utility.yul\":4405:4411   */\n  dup3\n    /* \"#utility.yul\":4398:4402   */\n  0x20\n    /* \"#utility.yul\":4390:4396   */\n  dup7\n    /* \"#utility.yul\":4386:4403   */\n  add\n    /* \"#utility.yul\":4302:4417   */\n  tag_30\n  jump\t// in\ntag_83:\n    /* \"#utility.yul\":4293:4417   */\n  swap2\n  pop\n    /* \"#utility.yul\":4116:4423   */\n  pop\n    /* \"#utility.yul\":4018:4423   */\n  swap3\n  swap2\n  pop\n  pop\n  jump\t// out\n    /* \"#utility.yul\":4429:5003   */\ntag_3:\n    /* \"#utility.yul\":4534:4540   */\n  0x00\n    /* \"#utility.yul\":4583:4585   */\n  0x20\n    /* \"#utility.yul\":4571:4580   */\n  dup3\n    /* \"#utility.yul\":4562:4569   */\n  dup5\n    /* \"#utility.yul\":4558:4581   */\n  sub\n    /* \"#utility.yul\":4554:4586   */\n  slt\n    /* \"#utility.yul\":4551:4670   */\n  iszero\n  tag_85\n  jumpi\n    /* \"#utility.yul\":4589:4668   */\n  tag_86\n  tag_16\n  jump\t// in\ntag_86:\n    /* \"#utility.yul\":4551:4670   */\ntag_85:\n    /* \"#utility.yul\":4730:4731   */\n  0x00\n    /* \"#utility.yul\":4719:4728   */\n  dup3\n    /* \"#utility.yul\":4715:4732   */\n  add\n    /* \"#utility.yul\":4709:4733   */\n  mload\n    /* \"#utility.yul\":4760:4778   */\n  0xffffffffffffffff\n    /* \"#utility.yul\":4752:4758   */\n  dup2\n    /* \"#utility.yul\":4749:4779   */\n  gt\n    /* \"#utility.yul\":4746:4863   */\n  iszero\n  tag_87\n  jumpi\n    /* \"#utility.yul\":4782:4861   */\n  tag_88\n  tag_17\n  jump\t// in\ntag_88:\n    /* \"#utility.yul\":4746:4863   */\ntag_87:\n    /* \"#utility.yul\":4887:4986   */\n  tag_89\n    /* \"#utility.yul\":4978:4985   */\n  dup5\n    /* \"#utility.yul\":4969:4975   */\n  dup3\n    /* \"#utility.yul\":4958:4967   */\n  dup6\n    /* \"#utility.yul\":4954:4976   */\n  add\n    /* \"#utility.yul\":4887:4986   */\n  tag_31\n  jump\t// in\ntag_89:\n    /* \"#utility.yul\":4877:4986   */\n  swap2\n  pop\n    /* \"#utility.yul\":4680:4996   */\n  pop\n    /* \"#utility.yul\":4429:5003   */\n  swap3\n  swap2\n  pop\n  pop\n  jump\t// out\n    /* \"#utility.yul\":5009:5189   */\ntag_11:\n    /* \"#utility.yul\":5057:5134   */\n  0x4e487b7100000000000000000000000000000000000000000000000000000000\n    /* \"#utility.yul\":5054:5055   */\n  0x00\n    /* \"#utility.yul\":5047:5135   */\n  mstore\n    /* \"#utility.yul\":5154:5158   */\n  0x32\n    /* \"#utility.yul\":5151:5152   */\n  0x04\n    /* \"#utility.yul\":5144:5159   */\n  mstore\n    /* \"#utility.yul\":5178:5182   */\n  0x24\n    /* \"#utility.yul\":5175:5176   */\n  0x00\n    /* \"#utility.yul\":5168:5183   */\n  revert\n    /* \"#utility.yul\":5195:5294   */\ntag_32:\n    /* \"#utility.yul\":5247:5253   */\n  0x00\n    /* \"#utility.yul\":5281:5286   */\n  dup2\n    /* \"#utility.yul\":5275:5287   */\n  mload\n    /* \"#utility.yul\":5265:5287   */\n  swap1\n  pop\n    /* \"#utility.yul\":5195:5294   */\n  swap2\n  swap1\n  pop\n  jump\t// out\n    /* \"#utility.yul\":5300:5448   */\ntag_33:\n    /* \"#utility.yul\":5402:5413   */\n  0x00\n    /* \"#utility.yul\":5439:5442   */\n  dup2\n    /* \"#utility.yul\":5424:5442   */\n  swap1\n  pop\n    /* \"#utility.yul\":5300:5448   */\n  swap3\n  swap2\n  pop\n  pop\n  jump\t// out\n    /* \"#utility.yul\":5454:5844   */\ntag_34:\n    /* \"#utility.yul\":5560:5563   */\n  0x00\n    /* \"#utility.yul\":5588:5627   */\n  tag_94\n    /* \"#utility.yul\":5621:5626   */\n  dup3\n    /* \"#utility.yul\":5588:5627   */\n  tag_32\n  jump\t// in\ntag_94:\n    /* \"#utility.yul\":5643:5732   */\n  tag_95\n    /* \"#utility.yul\":5725:5731   */\n  dup2\n    /* \"#utility.yul\":5720:5723   */\n  dup6\n    /* \"#utility.yul\":5643:5732   */\n  tag_33\n  jump\t// in\ntag_95:\n    /* \"#utility.yul\":5636:5732   */\n  swap4\n  pop\n    /* \"#utility.yul\":5741:5806   */\n  tag_96\n    /* \"#utility.yul\":5799:5805   */\n  dup2\n    /* \"#utility.yul\":5794:5797   */\n  dup6\n    /* \"#utility.yul\":5787:5791   */\n  0x20\n    /* \"#utility.yul\":5780:5785   */\n  dup7\n    /* \"#utility.yul\":5776:5792   */\n  add\n    /* \"#utility.yul\":5741:5806   */\n  tag_27\n  jump\t// in\ntag_96:\n    /* \"#utility.yul\":5831:5837   */\n  dup1\n    /* \"#utility.yul\":5826:5829   */\n  dup5\n    /* \"#utility.yul\":5822:5838   */\n  add\n    /* \"#utility.yul\":5815:5838   */\n  swap2\n  pop\n    /* \"#utility.yul\":5564:5844   */\n  pop\n    /* \"#utility.yul\":5454:5844   */\n  swap3\n  swap2\n  pop\n  pop\n  jump\t// out\n    /* \"#utility.yul\":5850:6125   */\ntag_13:\n    /* \"#utility.yul\":5982:5985   */\n  0x00\n    /* \"#utility.yul\":6004:6099   */\n  tag_98\n    /* \"#utility.yul\":6095:6098   */\n  dup3\n    /* \"#utility.yul\":6086:6092   */\n  dup5\n    /* \"#utility.yul\":6004:6099   */\n  tag_34\n  jump\t// in\ntag_98:\n    /* \"#utility.yul\":5997:6099   */\n  swap2\n  pop\n    /* \"#utility.yul\":6116:6119   */\n  dup2\n    /* \"#utility.yul\":6109:6119   */\n  swap1\n  pop\n    /* \"#utility.yul\":5850:6125   */\n  swap3\n  swap2\n  pop\n  pop\n  jump\t// out\n    /* \"A/AccountHarvesting/AccountHarvesting.sol\":3757:4693  contract AccountHarvestSafeCaptcha {... */\ntag_14:\n  dataSize(sub_0)\n  dup1\n  dataOffset(sub_0)\n  0x00\n  codecopy\n  0x00\n  return\nstop\n\nsub_0: assembly {\n        /* \"A/AccountHarvesting/AccountHarvesting.sol\":3757:4693  contract AccountHarvestSafeCaptcha {... */\n      mstore(0x40, 0x80)\n      callvalue\n      dup1\n      iszero\n      tag_1\n      jumpi\n      0x00\n      dup1\n      revert\n    tag_1:\n      pop\n      jumpi(tag_2, lt(calldatasize, 0x04))\n      shr(0xe0, calldataload(0x00))\n      dup1\n      0x42a364fb\n      eq\n      tag_3\n      jumpi\n      dup1\n      0x88eb34dd\n      eq\n      tag_4\n      jumpi\n      dup1\n      0xa334edcd\n      eq\n      tag_5\n      jumpi\n      dup1\n      0xfddc968e\n      eq\n      tag_6\n      jumpi\n    tag_2:\n      0x00\n      dup1\n      revert\n        /* \"A/AccountHarvesting/AccountHarvesting.sol\":4442:4691  function checkUser(string calldata username, bytes32 token) external {... */\n    tag_3:\n      tag_7\n      0x04\n      dup1\n      calldatasize\n      sub\n      dup2\n      add\n      swap1\n      tag_8\n      swap2\n      swap1\n      tag_9\n      jump\t// in\n    tag_8:\n      tag_10\n      jump\t// in\n    tag_7:\n      stop\n        /* \"A/AccountHarvesting/AccountHarvesting.sol\":4287:4436  function setCaptchaToken(address user, bytes32 token) external {... */\n    tag_4:\n      tag_11\n      0x04\n      dup1\n      calldatasize\n      sub\n      dup2\n      add\n      swap1\n      tag_12\n      swap2\n      swap1\n      tag_13\n      jump\t// in\n    tag_12:\n      tag_14\n      jump\t// in\n    tag_11:\n      stop\n        /* \"A/AccountHarvesting/AccountHarvesting.sol\":3845:3892  mapping(address => bytes32) public captchaToken */\n    tag_5:\n      tag_15\n      0x04\n      dup1\n      calldatasize\n      sub\n      dup2\n      add\n      swap1\n      tag_16\n      swap2\n      swap1\n      tag_17\n      jump\t// in\n    tag_16:\n      tag_18\n      jump\t// in\n    tag_15:\n      mload(0x40)\n      tag_19\n      swap2\n      swap1\n      tag_20\n      jump\t// in\n    tag_19:\n      mload(0x40)\n      dup1\n      swap2\n      sub\n      swap1\n      return\n        /* \"A/AccountHarvesting/AccountHarvesting.sol\":3798:3839  mapping(string => bool) public userExists */\n    tag_6:\n      tag_21\n      0x04\n      dup1\n      calldatasize\n      sub\n      dup2\n      add\n      swap1\n      tag_22\n      swap2\n      swap1\n      tag_23\n      jump\t// in\n    tag_22:\n      tag_24\n      jump\t// in\n    tag_21:\n      mload(0x40)\n      tag_25\n      swap2\n      swap1\n      tag_26\n      jump\t// in\n    tag_25:\n      mload(0x40)\n      dup1\n      swap2\n      sub\n      swap1\n      return\n        /* \"A/AccountHarvesting/AccountHarvesting.sol\":4442:4691  function checkUser(string calldata username, bytes32 token) external {... */\n    tag_10:\n        /* \"A/AccountHarvesting/AccountHarvesting.sol\":4553:4558  token */\n      dup1\n        /* \"A/AccountHarvesting/AccountHarvesting.sol\":4525:4537  captchaToken */\n      0x01\n        /* \"A/AccountHarvesting/AccountHarvesting.sol\":4525:4549  captchaToken[msg.sender] */\n      0x00\n        /* \"A/AccountHarvesting/AccountHarvesting.sol\":4538:4548  msg.sender */\n      caller\n        /* \"A/AccountHarvesting/AccountHarvesting.sol\":4525:4549  captchaToken[msg.sender] */\n      0xffffffffffffffffffffffffffffffffffffffff\n      and\n      0xffffffffffffffffffffffffffffffffffffffff\n      and\n      dup2\n      mstore\n      0x20\n      add\n      swap1\n      dup2\n      mstore\n      0x20\n      add\n      0x00\n      keccak256\n      sload\n        /* \"A/AccountHarvesting/AccountHarvesting.sol\":4525:4558  captchaToken[msg.sender] != token */\n      eq\n        /* \"A/AccountHarvesting/AccountHarvesting.sol\":4521:4583  if (captchaToken[msg.sender] != token) revert AH__BadCaptcha() */\n      tag_28\n      jumpi\n        /* \"A/AccountHarvesting/AccountHarvesting.sol\":4567:4583  AH__BadCaptcha() */\n      mload(0x40)\n      0xe30d885800000000000000000000000000000000000000000000000000000000\n      dup2\n      mstore\n      0x04\n      add\n      mload(0x40)\n      dup1\n      swap2\n      sub\n      swap1\n      revert\n        /* \"A/AccountHarvesting/AccountHarvesting.sol\":4521:4583  if (captchaToken[msg.sender] != token) revert AH__BadCaptcha() */\n    tag_28:\n        /* \"A/AccountHarvesting/AccountHarvesting.sol\":4613:4623  msg.sender */\n      caller\n        /* \"A/AccountHarvesting/AccountHarvesting.sol\":4598:4684  HarvestChecked(msg.sender, username, AccountHarvestingDefenseType.CAPTCHAVerification) */\n      0xffffffffffffffffffffffffffffffffffffffff\n      and\n      0xdc840972025b14465e97e71ee4dc2050a4cf483e3feb7d6af5fa0b68ee58ec2f\n        /* \"A/AccountHarvesting/AccountHarvesting.sol\":4625:4633  username */\n      dup5\n      dup5\n        /* \"A/AccountHarvesting/AccountHarvesting.sol\":4635:4683  AccountHarvestingDefenseType.CAPTCHAVerification */\n      0x01\n        /* \"A/AccountHarvesting/AccountHarvesting.sol\":4598:4684  HarvestChecked(msg.sender, username, AccountHarvestingDefenseType.CAPTCHAVerification) */\n      mload(0x40)\n      tag_29\n      swap4\n      swap3\n      swap2\n      swap1\n      tag_30\n      jump\t// in\n    tag_29:\n      mload(0x40)\n      dup1\n      swap2\n      sub\n      swap1\n      log2\n        /* \"A/AccountHarvesting/AccountHarvesting.sol\":4442:4691  function checkUser(string calldata username, bytes32 token) external {... */\n      pop\n      pop\n      pop\n      jump\t// out\n        /* \"A/AccountHarvesting/AccountHarvesting.sol\":4287:4436  function setCaptchaToken(address user, bytes32 token) external {... */\n    tag_14:\n        /* \"A/AccountHarvesting/AccountHarvesting.sol\":4424:4429  token */\n      dup1\n        /* \"A/AccountHarvesting/AccountHarvesting.sol\":4403:4415  captchaToken */\n      0x01\n        /* \"A/AccountHarvesting/AccountHarvesting.sol\":4403:4421  captchaToken[user] */\n      0x00\n        /* \"A/AccountHarvesting/AccountHarvesting.sol\":4416:4420  user */\n      dup5\n        /* \"A/AccountHarvesting/AccountHarvesting.sol\":4403:4421  captchaToken[user] */\n      0xffffffffffffffffffffffffffffffffffffffff\n      and\n      0xffffffffffffffffffffffffffffffffffffffff\n      and\n      dup2\n      mstore\n      0x20\n      add\n      swap1\n      dup2\n      mstore\n      0x20\n      add\n      0x00\n      keccak256\n        /* \"A/AccountHarvesting/AccountHarvesting.sol\":4403:4429  captchaToken[user] = token */\n      dup2\n      swap1\n      sstore\n      pop\n        /* \"A/AccountHarvesting/AccountHarvesting.sol\":4287:4436  function setCaptchaToken(address user, bytes32 token) external {... */\n      pop\n      pop\n      jump\t// out\n        /* \"A/AccountHarvesting/AccountHarvesting.sol\":3845:3892  mapping(address => bytes32) public captchaToken */\n    tag_18:\n      mstore(0x20, 0x01)\n      dup1\n      0x00\n      mstore\n      keccak256(0x00, 0x40)\n      0x00\n      swap2\n      pop\n      swap1\n      pop\n      sload\n      dup2\n      jump\t// out\n        /* \"A/AccountHarvesting/AccountHarvesting.sol\":3798:3839  mapping(string => bool) public userExists */\n    tag_24:\n      0x00\n      dup2\n      dup1\n      mload\n      0x20\n      dup2\n      add\n      dup3\n      add\n      dup1\n      mload\n      dup5\n      dup3\n      mstore\n      0x20\n      dup4\n      add\n      0x20\n      dup6\n      add\n      keccak256\n      dup2\n      dup4\n      mstore\n      dup1\n      swap6\n      pop\n      pop\n      pop\n      pop\n      pop\n      pop\n      0x00\n      swap2\n      pop\n      sload\n      swap1\n      0x0100\n      exp\n      swap1\n      div\n      0xff\n      and\n      dup2\n      jump\t// out\n        /* \"#utility.yul\":7:82   */\n    tag_32:\n        /* \"#utility.yul\":40:46   */\n      0x00\n        /* \"#utility.yul\":73:75   */\n      0x40\n        /* \"#utility.yul\":67:76   */\n      mload\n        /* \"#utility.yul\":57:76   */\n      swap1\n      pop\n        /* \"#utility.yul\":7:82   */\n      swap1\n      jump\t// out\n        /* \"#utility.yul\":88:205   */\n    tag_33:\n        /* \"#utility.yul\":197:198   */\n      0x00\n        /* \"#utility.yul\":194:195   */\n      dup1\n        /* \"#utility.yul\":187:199   */\n      revert\n        /* \"#utility.yul\":211:328   */\n    tag_34:\n        /* \"#utility.yul\":320:321   */\n      0x00\n        /* \"#utility.yul\":317:318   */\n      dup1\n        /* \"#utility.yul\":310:322   */\n      revert\n        /* \"#utility.yul\":334:451   */\n    tag_35:\n        /* \"#utility.yul\":443:444   */\n      0x00\n        /* \"#utility.yul\":440:441   */\n      dup1\n        /* \"#utility.yul\":433:445   */\n      revert\n        /* \"#utility.yul\":457:574   */\n    tag_36:\n        /* \"#utility.yul\":566:567   */\n      0x00\n        /* \"#utility.yul\":563:564   */\n      dup1\n        /* \"#utility.yul\":556:568   */\n      revert\n        /* \"#utility.yul\":580:697   */\n    tag_37:\n        /* \"#utility.yul\":689:690   */\n      0x00\n        /* \"#utility.yul\":686:687   */\n      dup1\n        /* \"#utility.yul\":679:691   */\n      revert\n        /* \"#utility.yul\":717:1270   */\n    tag_38:\n        /* \"#utility.yul\":775:783   */\n      0x00\n        /* \"#utility.yul\":785:791   */\n      dup1\n        /* \"#utility.yul\":835:838   */\n      dup4\n        /* \"#utility.yul\":828:832   */\n      0x1f\n        /* \"#utility.yul\":820:826   */\n      dup5\n        /* \"#utility.yul\":816:833   */\n      add\n        /* \"#utility.yul\":812:839   */\n      slt\n        /* \"#utility.yul\":802:924   */\n      tag_73\n      jumpi\n        /* \"#utility.yul\":843:922   */\n      tag_74\n      tag_35\n      jump\t// in\n    tag_74:\n        /* \"#utility.yul\":802:924   */\n    tag_73:\n        /* \"#utility.yul\":956:962   */\n      dup3\n        /* \"#utility.yul\":943:963   */\n      calldataload\n        /* \"#utility.yul\":933:963   */\n      swap1\n      pop\n        /* \"#utility.yul\":986:1004   */\n      0xffffffffffffffff\n        /* \"#utility.yul\":978:984   */\n      dup2\n        /* \"#utility.yul\":975:1005   */\n      gt\n        /* \"#utility.yul\":972:1089   */\n      iszero\n      tag_75\n      jumpi\n        /* \"#utility.yul\":1008:1087   */\n      tag_76\n      tag_36\n      jump\t// in\n    tag_76:\n        /* \"#utility.yul\":972:1089   */\n    tag_75:\n        /* \"#utility.yul\":1122:1126   */\n      0x20\n        /* \"#utility.yul\":1114:1120   */\n      dup4\n        /* \"#utility.yul\":1110:1127   */\n      add\n        /* \"#utility.yul\":1098:1127   */\n      swap2\n      pop\n        /* \"#utility.yul\":1176:1179   */\n      dup4\n        /* \"#utility.yul\":1168:1172   */\n      0x01\n        /* \"#utility.yul\":1160:1166   */\n      dup3\n        /* \"#utility.yul\":1156:1173   */\n      mul\n        /* \"#utility.yul\":1146:1154   */\n      dup4\n        /* \"#utility.yul\":1142:1174   */\n      add\n        /* \"#utility.yul\":1139:1180   */\n      gt\n        /* \"#utility.yul\":1136:1264   */\n      iszero\n      tag_77\n      jumpi\n        /* \"#utility.yul\":1183:1262   */\n      tag_78\n      tag_37\n      jump\t// in\n    tag_78:\n        /* \"#utility.yul\":1136:1264   */\n    tag_77:\n        /* \"#utility.yul\":717:1270   */\n      swap3\n      pop\n      swap3\n      swap1\n      pop\n      jump\t// out\n        /* \"#utility.yul\":1276:1353   */\n    tag_39:\n        /* \"#utility.yul\":1313:1320   */\n      0x00\n        /* \"#utility.yul\":1342:1347   */\n      dup2\n        /* \"#utility.yul\":1331:1347   */\n      swap1\n      pop\n        /* \"#utility.yul\":1276:1353   */\n      swap2\n      swap1\n      pop\n      jump\t// out\n        /* \"#utility.yul\":1359:1481   */\n    tag_40:\n        /* \"#utility.yul\":1432:1456   */\n      tag_81\n        /* \"#utility.yul\":1450:1455   */\n      dup2\n        /* \"#utility.yul\":1432:1456   */\n      tag_39\n      jump\t// in\n    tag_81:\n        /* \"#utility.yul\":1425:1430   */\n      dup2\n        /* \"#utility.yul\":1422:1457   */\n      eq\n        /* \"#utility.yul\":1412:1475   */\n      tag_82\n      jumpi\n        /* \"#utility.yul\":1471:1472   */\n      0x00\n        /* \"#utility.yul\":1468:1469   */\n      dup1\n        /* \"#utility.yul\":1461:1473   */\n      revert\n        /* \"#utility.yul\":1412:1475   */\n    tag_82:\n        /* \"#utility.yul\":1359:1481   */\n      pop\n      jump\t// out\n        /* \"#utility.yul\":1487:1626   */\n    tag_41:\n        /* \"#utility.yul\":1533:1538   */\n      0x00\n        /* \"#utility.yul\":1571:1577   */\n      dup2\n        /* \"#utility.yul\":1558:1578   */\n      calldataload\n        /* \"#utility.yul\":1549:1578   */\n      swap1\n      pop\n        /* \"#utility.yul\":1587:1620   */\n      tag_84\n        /* \"#utility.yul\":1614:1619   */\n      dup2\n        /* \"#utility.yul\":1587:1620   */\n      tag_40\n      jump\t// in\n    tag_84:\n        /* \"#utility.yul\":1487:1626   */\n      swap3\n      swap2\n      pop\n      pop\n      jump\t// out\n        /* \"#utility.yul\":1632:2306   */\n    tag_9:\n        /* \"#utility.yul\":1712:1718   */\n      0x00\n        /* \"#utility.yul\":1720:1726   */\n      dup1\n        /* \"#utility.yul\":1728:1734   */\n      0x00\n        /* \"#utility.yul\":1777:1779   */\n      0x40\n        /* \"#utility.yul\":1765:1774   */\n      dup5\n        /* \"#utility.yul\":1756:1763   */\n      dup7\n        /* \"#utility.yul\":1752:1775   */\n      sub\n        /* \"#utility.yul\":1748:1780   */\n      slt\n        /* \"#utility.yul\":1745:1864   */\n      iszero\n      tag_86\n      jumpi\n        /* \"#utility.yul\":1783:1862   */\n      tag_87\n      tag_33\n      jump\t// in\n    tag_87:\n        /* \"#utility.yul\":1745:1864   */\n    tag_86:\n        /* \"#utility.yul\":1931:1932   */\n      0x00\n        /* \"#utility.yul\":1920:1929   */\n      dup5\n        /* \"#utility.yul\":1916:1933   */\n      add\n        /* \"#utility.yul\":1903:1934   */\n      calldataload\n        /* \"#utility.yul\":1961:1979   */\n      0xffffffffffffffff\n        /* \"#utility.yul\":1953:1959   */\n      dup2\n        /* \"#utility.yul\":1950:1980   */\n      gt\n        /* \"#utility.yul\":1947:2064   */\n      iszero\n      tag_88\n      jumpi\n        /* \"#utility.yul\":1983:2062   */\n      tag_89\n      tag_34\n      jump\t// in\n    tag_89:\n        /* \"#utility.yul\":1947:2064   */\n    tag_88:\n        /* \"#utility.yul\":2096:2161   */\n      tag_90\n        /* \"#utility.yul\":2153:2160   */\n      dup7\n        /* \"#utility.yul\":2144:2150   */\n      dup3\n        /* \"#utility.yul\":2133:2142   */\n      dup8\n        /* \"#utility.yul\":2129:2151   */\n      add\n        /* \"#utility.yul\":2096:2161   */\n      tag_38\n      jump\t// in\n    tag_90:\n        /* \"#utility.yul\":2078:2161   */\n      swap4\n      pop\n      swap4\n      pop\n        /* \"#utility.yul\":1874:2171   */\n      pop\n        /* \"#utility.yul\":2210:2212   */\n      0x20\n        /* \"#utility.yul\":2236:2289   */\n      tag_91\n        /* \"#utility.yul\":2281:2288   */\n      dup7\n        /* \"#utility.yul\":2272:2278   */\n      dup3\n        /* \"#utility.yul\":2261:2270   */\n      dup8\n        /* \"#utility.yul\":2257:2279   */\n      add\n        /* \"#utility.yul\":2236:2289   */\n      tag_41\n      jump\t// in\n    tag_91:\n        /* \"#utility.yul\":2226:2289   */\n      swap2\n      pop\n        /* \"#utility.yul\":2181:2299   */\n      pop\n        /* \"#utility.yul\":1632:2306   */\n      swap3\n      pop\n      swap3\n      pop\n      swap3\n      jump\t// out\n        /* \"#utility.yul\":2312:2438   */\n    tag_42:\n        /* \"#utility.yul\":2349:2356   */\n      0x00\n        /* \"#utility.yul\":2389:2431   */\n      0xffffffffffffffffffffffffffffffffffffffff\n        /* \"#utility.yul\":2382:2387   */\n      dup3\n        /* \"#utility.yul\":2378:2432   */\n      and\n        /* \"#utility.yul\":2367:2432   */\n      swap1\n      pop\n        /* \"#utility.yul\":2312:2438   */\n      swap2\n      swap1\n      pop\n      jump\t// out\n        /* \"#utility.yul\":2444:2540   */\n    tag_43:\n        /* \"#utility.yul\":2481:2488   */\n      0x00\n        /* \"#utility.yul\":2510:2534   */\n      tag_94\n        /* \"#utility.yul\":2528:2533   */\n      dup3\n        /* \"#utility.yul\":2510:2534   */\n      tag_42\n      jump\t// in\n    tag_94:\n        /* \"#utility.yul\":2499:2534   */\n      swap1\n      pop\n        /* \"#utility.yul\":2444:2540   */\n      swap2\n      swap1\n      pop\n      jump\t// out\n        /* \"#utility.yul\":2546:2668   */\n    tag_44:\n        /* \"#utility.yul\":2619:2643   */\n      tag_96\n        /* \"#utility.yul\":2637:2642   */\n      dup2\n        /* \"#utility.yul\":2619:2643   */\n      tag_43\n      jump\t// in\n    tag_96:\n        /* \"#utility.yul\":2612:2617   */\n      dup2\n        /* \"#utility.yul\":2609:2644   */\n      eq\n        /* \"#utility.yul\":2599:2662   */\n      tag_97\n      jumpi\n        /* \"#utility.yul\":2658:2659   */\n      0x00\n        /* \"#utility.yul\":2655:2656   */\n      dup1\n        /* \"#utility.yul\":2648:2660   */\n      revert\n        /* \"#utility.yul\":2599:2662   */\n    tag_97:\n        /* \"#utility.yul\":2546:2668   */\n      pop\n      jump\t// out\n        /* \"#utility.yul\":2674:2813   */\n    tag_45:\n        /* \"#utility.yul\":2720:2725   */\n      0x00\n        /* \"#utility.yul\":2758:2764   */\n      dup2\n        /* \"#utility.yul\":2745:2765   */\n      calldataload\n        /* \"#utility.yul\":2736:2765   */\n      swap1\n      pop\n        /* \"#utility.yul\":2774:2807   */\n      tag_99\n        /* \"#utility.yul\":2801:2806   */\n      dup2\n        /* \"#utility.yul\":2774:2807   */\n      tag_44\n      jump\t// in\n    tag_99:\n        /* \"#utility.yul\":2674:2813   */\n      swap3\n      swap2\n      pop\n      pop\n      jump\t// out\n        /* \"#utility.yul\":2819:3293   */\n    tag_13:\n        /* \"#utility.yul\":2887:2893   */\n      0x00\n        /* \"#utility.yul\":2895:2901   */\n      dup1\n        /* \"#utility.yul\":2944:2946   */\n      0x40\n        /* \"#utility.yul\":2932:2941   */\n      dup4\n        /* \"#utility.yul\":2923:2930   */\n      dup6\n        /* \"#utility.yul\":2919:2942   */\n      sub\n        /* \"#utility.yul\":2915:2947   */\n      slt\n        /* \"#utility.yul\":2912:3031   */\n      iszero\n      tag_101\n      jumpi\n        /* \"#utility.yul\":2950:3029   */\n      tag_102\n      tag_33\n      jump\t// in\n    tag_102:\n        /* \"#utility.yul\":2912:3031   */\n    tag_101:\n        /* \"#utility.yul\":3070:3071   */\n      0x00\n        /* \"#utility.yul\":3095:3148   */\n      tag_103\n        /* \"#utility.yul\":3140:3147   */\n      dup6\n        /* \"#utility.yul\":3131:3137   */\n      dup3\n        /* \"#utility.yul\":3120:3129   */\n      dup7\n        /* \"#utility.yul\":3116:3138   */\n      add\n        /* \"#utility.yul\":3095:3148   */\n      tag_45\n      jump\t// in\n    tag_103:\n        /* \"#utility.yul\":3085:3148   */\n      swap3\n      pop\n        /* \"#utility.yul\":3041:3158   */\n      pop\n        /* \"#utility.yul\":3197:3199   */\n      0x20\n        /* \"#utility.yul\":3223:3276   */\n      tag_104\n        /* \"#utility.yul\":3268:3275   */\n      dup6\n        /* \"#utility.yul\":3259:3265   */\n      dup3\n        /* \"#utility.yul\":3248:3257   */\n      dup7\n        /* \"#utility.yul\":3244:3266   */\n      add\n        /* \"#utility.yul\":3223:3276   */\n      tag_41\n      jump\t// in\n    tag_104:\n        /* \"#utility.yul\":3213:3276   */\n      swap2\n      pop\n        /* \"#utility.yul\":3168:3286   */\n      pop\n        /* \"#utility.yul\":2819:3293   */\n      swap3\n      pop\n      swap3\n      swap1\n      pop\n      jump\t// out\n        /* \"#utility.yul\":3299:3628   */\n    tag_17:\n        /* \"#utility.yul\":3358:3364   */\n      0x00\n        /* \"#utility.yul\":3407:3409   */\n      0x20\n        /* \"#utility.yul\":3395:3404   */\n      dup3\n        /* \"#utility.yul\":3386:3393   */\n      dup5\n        /* \"#utility.yul\":3382:3405   */\n      sub\n        /* \"#utility.yul\":3378:3410   */\n      slt\n        /* \"#utility.yul\":3375:3494   */\n      iszero\n      tag_106\n      jumpi\n        /* \"#utility.yul\":3413:3492   */\n      tag_107\n      tag_33\n      jump\t// in\n    tag_107:\n        /* \"#utility.yul\":3375:3494   */\n    tag_106:\n        /* \"#utility.yul\":3533:3534   */\n      0x00\n        /* \"#utility.yul\":3558:3611   */\n      tag_108\n        /* \"#utility.yul\":3603:3610   */\n      dup5\n        /* \"#utility.yul\":3594:3600   */\n      dup3\n        /* \"#utility.yul\":3583:3592   */\n      dup6\n        /* \"#utility.yul\":3579:3601   */\n      add\n        /* \"#utility.yul\":3558:3611   */\n      tag_45\n      jump\t// in\n    tag_108:\n        /* \"#utility.yul\":3548:3611   */\n      swap2\n      pop\n        /* \"#utility.yul\":3504:3621   */\n      pop\n        /* \"#utility.yul\":3299:3628   */\n      swap3\n      swap2\n      pop\n      pop\n      jump\t// out\n        /* \"#utility.yul\":3634:3752   */\n    tag_46:\n        /* \"#utility.yul\":3721:3745   */\n      tag_110\n        /* \"#utility.yul\":3739:3744   */\n      dup2\n        /* \"#utility.yul\":3721:3745   */\n      tag_39\n      jump\t// in\n    tag_110:\n        /* \"#utility.yul\":3716:3719   */\n      dup3\n        /* \"#utility.yul\":3709:3746   */\n      mstore\n        /* \"#utility.yul\":3634:3752   */\n      pop\n      pop\n      jump\t// out\n        /* \"#utility.yul\":3758:3980   */\n    tag_20:\n        /* \"#utility.yul\":3851:3855   */\n      0x00\n        /* \"#utility.yul\":3889:3891   */\n      0x20\n        /* \"#utility.yul\":3878:3887   */\n      dup3\n        /* \"#utility.yul\":3874:3892   */\n      add\n        /* \"#utility.yul\":3866:3892   */\n      swap1\n      pop\n        /* \"#utility.yul\":3902:3973   */\n      tag_112\n        /* \"#utility.yul\":3970:3971   */\n      0x00\n        /* \"#utility.yul\":3959:3968   */\n      dup4\n        /* \"#utility.yul\":3955:3972   */\n      add\n        /* \"#utility.yul\":3946:3952   */\n      dup5\n        /* \"#utility.yul\":3902:3973   */\n      tag_46\n      jump\t// in\n    tag_112:\n        /* \"#utility.yul\":3758:3980   */\n      swap3\n      swap2\n      pop\n      pop\n      jump\t// out\n        /* \"#utility.yul\":3986:4103   */\n    tag_47:\n        /* \"#utility.yul\":4095:4096   */\n      0x00\n        /* \"#utility.yul\":4092:4093   */\n      dup1\n        /* \"#utility.yul\":4085:4097   */\n      revert\n        /* \"#utility.yul\":4109:4211   */\n    tag_48:\n        /* \"#utility.yul\":4150:4156   */\n      0x00\n        /* \"#utility.yul\":4201:4203   */\n      0x1f\n        /* \"#utility.yul\":4197:4204   */\n      not\n        /* \"#utility.yul\":4192:4194   */\n      0x1f\n        /* \"#utility.yul\":4185:4190   */\n      dup4\n        /* \"#utility.yul\":4181:4195   */\n      add\n        /* \"#utility.yul\":4177:4205   */\n      and\n        /* \"#utility.yul\":4167:4205   */\n      swap1\n      pop\n        /* \"#utility.yul\":4109:4211   */\n      swap2\n      swap1\n      pop\n      jump\t// out\n        /* \"#utility.yul\":4217:4397   */\n    tag_49:\n        /* \"#utility.yul\":4265:4342   */\n      0x4e487b7100000000000000000000000000000000000000000000000000000000\n        /* \"#utility.yul\":4262:4263   */\n      0x00\n        /* \"#utility.yul\":4255:4343   */\n      mstore\n        /* \"#utility.yul\":4362:4366   */\n      0x41\n        /* \"#utility.yul\":4359:4360   */\n      0x04\n        /* \"#utility.yul\":4352:4367   */\n      mstore\n        /* \"#utility.yul\":4386:4390   */\n      0x24\n        /* \"#utility.yul\":4383:4384   */\n      0x00\n        /* \"#utility.yul\":4376:4391   */\n      revert\n        /* \"#utility.yul\":4403:4684   */\n    tag_50:\n        /* \"#utility.yul\":4486:4513   */\n      tag_117\n        /* \"#utility.yul\":4508:4512   */\n      dup3\n        /* \"#utility.yul\":4486:4513   */\n      tag_48\n      jump\t// in\n    tag_117:\n        /* \"#utility.yul\":4478:4484   */\n      dup2\n        /* \"#utility.yul\":4474:4514   */\n      add\n        /* \"#utility.yul\":4616:4622   */\n      dup2\n        /* \"#utility.yul\":4604:4614   */\n      dup2\n        /* \"#utility.yul\":4601:4623   */\n      lt\n        /* \"#utility.yul\":4580:4598   */\n      0xffffffffffffffff\n        /* \"#utility.yul\":4568:4578   */\n      dup3\n        /* \"#utility.yul\":4565:4599   */\n      gt\n        /* \"#utility.yul\":4562:4624   */\n      or\n        /* \"#utility.yul\":4559:4647   */\n      iszero\n      tag_118\n      jumpi\n        /* \"#utility.yul\":4627:4645   */\n      tag_119\n      tag_49\n      jump\t// in\n    tag_119:\n        /* \"#utility.yul\":4559:4647   */\n    tag_118:\n        /* \"#utility.yul\":4667:4677   */\n      dup1\n        /* \"#utility.yul\":4663:4665   */\n      0x40\n        /* \"#utility.yul\":4656:4678   */\n      mstore\n        /* \"#utility.yul\":4446:4684   */\n      pop\n        /* \"#utility.yul\":4403:4684   */\n      pop\n      pop\n      jump\t// out\n        /* \"#utility.yul\":4690:4819   */\n    tag_51:\n        /* \"#utility.yul\":4724:4730   */\n      0x00\n        /* \"#utility.yul\":4751:4771   */\n      tag_121\n      tag_32\n      jump\t// in\n    tag_121:\n        /* \"#utility.yul\":4741:4771   */\n      swap1\n      pop\n        /* \"#utility.yul\":4780:4813   */\n      tag_122\n        /* \"#utility.yul\":4808:4812   */\n      dup3\n        /* \"#utility.yul\":4800:4806   */\n      dup3\n        /* \"#utility.yul\":4780:4813   */\n      tag_50\n      jump\t// in\n    tag_122:\n        /* \"#utility.yul\":4690:4819   */\n      swap2\n      swap1\n      pop\n      jump\t// out\n        /* \"#utility.yul\":4825:5133   */\n    tag_52:\n        /* \"#utility.yul\":4887:4891   */\n      0x00\n        /* \"#utility.yul\":4977:4995   */\n      0xffffffffffffffff\n        /* \"#utility.yul\":4969:4975   */\n      dup3\n        /* \"#utility.yul\":4966:4996   */\n      gt\n        /* \"#utility.yul\":4963:5019   */\n      iszero\n      tag_124\n      jumpi\n        /* \"#utility.yul\":4999:5017   */\n      tag_125\n      tag_49\n      jump\t// in\n    tag_125:\n        /* \"#utility.yul\":4963:5019   */\n    tag_124:\n        /* \"#utility.yul\":5037:5066   */\n      tag_126\n        /* \"#utility.yul\":5059:5065   */\n      dup3\n        /* \"#utility.yul\":5037:5066   */\n      tag_48\n      jump\t// in\n    tag_126:\n        /* \"#utility.yul\":5029:5066   */\n      swap1\n      pop\n        /* \"#utility.yul\":5121:5125   */\n      0x20\n        /* \"#utility.yul\":5115:5119   */\n      dup2\n        /* \"#utility.yul\":5111:5126   */\n      add\n        /* \"#utility.yul\":5103:5126   */\n      swap1\n      pop\n        /* \"#utility.yul\":4825:5133   */\n      swap2\n      swap1\n      pop\n      jump\t// out\n        /* \"#utility.yul\":5139:5287   */\n    tag_53:\n        /* \"#utility.yul\":5237:5243   */\n      dup3\n        /* \"#utility.yul\":5232:5235   */\n      dup2\n        /* \"#utility.yul\":5227:5230   */\n      dup4\n        /* \"#utility.yul\":5214:5244   */\n      calldatacopy\n        /* \"#utility.yul\":5278:5279   */\n      0x00\n        /* \"#utility.yul\":5269:5275   */\n      dup4\n        /* \"#utility.yul\":5264:5267   */\n      dup4\n        /* \"#utility.yul\":5260:5276   */\n      add\n        /* \"#utility.yul\":5253:5280   */\n      mstore\n        /* \"#utility.yul\":5139:5287   */\n      pop\n      pop\n      pop\n      jump\t// out\n        /* \"#utility.yul\":5293:5718   */\n    tag_54:\n        /* \"#utility.yul\":5371:5376   */\n      0x00\n        /* \"#utility.yul\":5396:5462   */\n      tag_129\n        /* \"#utility.yul\":5412:5461   */\n      tag_130\n        /* \"#utility.yul\":5454:5460   */\n      dup5\n        /* \"#utility.yul\":5412:5461   */\n      tag_52\n      jump\t// in\n    tag_130:\n        /* \"#utility.yul\":5396:5462   */\n      tag_51\n      jump\t// in\n    tag_129:\n        /* \"#utility.yul\":5387:5462   */\n      swap1\n      pop\n        /* \"#utility.yul\":5485:5491   */\n      dup3\n        /* \"#utility.yul\":5478:5483   */\n      dup2\n        /* \"#utility.yul\":5471:5492   */\n      mstore\n        /* \"#utility.yul\":5523:5527   */\n      0x20\n        /* \"#utility.yul\":5516:5521   */\n      dup2\n        /* \"#utility.yul\":5512:5528   */\n      add\n        /* \"#utility.yul\":5561:5564   */\n      dup5\n        /* \"#utility.yul\":5552:5558   */\n      dup5\n        /* \"#utility.yul\":5547:5550   */\n      dup5\n        /* \"#utility.yul\":5543:5559   */\n      add\n        /* \"#utility.yul\":5540:5565   */\n      gt\n        /* \"#utility.yul\":5537:5649   */\n      iszero\n      tag_131\n      jumpi\n        /* \"#utility.yul\":5568:5647   */\n      tag_132\n      tag_47\n      jump\t// in\n    tag_132:\n        /* \"#utility.yul\":5537:5649   */\n    tag_131:\n        /* \"#utility.yul\":5658:5712   */\n      tag_133\n        /* \"#utility.yul\":5705:5711   */\n      dup5\n        /* \"#utility.yul\":5700:5703   */\n      dup3\n        /* \"#utility.yul\":5695:5698   */\n      dup6\n        /* \"#utility.yul\":5658:5712   */\n      tag_53\n      jump\t// in\n    tag_133:\n        /* \"#utility.yul\":5377:5718   */\n      pop\n        /* \"#utility.yul\":5293:5718   */\n      swap4\n      swap3\n      pop\n      pop\n      pop\n      jump\t// out\n        /* \"#utility.yul\":5738:6078   */\n    tag_55:\n        /* \"#utility.yul\":5794:5799   */\n      0x00\n        /* \"#utility.yul\":5843:5846   */\n      dup3\n        /* \"#utility.yul\":5836:5840   */\n      0x1f\n        /* \"#utility.yul\":5828:5834   */\n      dup4\n        /* \"#utility.yul\":5824:5841   */\n      add\n        /* \"#utility.yul\":5820:5847   */\n      slt\n        /* \"#utility.yul\":5810:5932   */\n      tag_135\n      jumpi\n        /* \"#utility.yul\":5851:5930   */\n      tag_136\n      tag_35\n      jump\t// in\n    tag_136:\n        /* \"#utility.yul\":5810:5932   */\n    tag_135:\n        /* \"#utility.yul\":5968:5974   */\n      dup2\n        /* \"#utility.yul\":5955:5975   */\n      calldataload\n        /* \"#utility.yul\":5993:6072   */\n      tag_137\n        /* \"#utility.yul\":6068:6071   */\n      dup5\n        /* \"#utility.yul\":6060:6066   */\n      dup3\n        /* \"#utility.yul\":6053:6057   */\n      0x20\n        /* \"#utility.yul\":6045:6051   */\n      dup7\n        /* \"#utility.yul\":6041:6058   */\n      add\n        /* \"#utility.yul\":5993:6072   */\n      tag_54\n      jump\t// in\n    tag_137:\n        /* \"#utility.yul\":5984:6072   */\n      swap2\n      pop\n        /* \"#utility.yul\":5800:6078   */\n      pop\n        /* \"#utility.yul\":5738:6078   */\n      swap3\n      swap2\n      pop\n      pop\n      jump\t// out\n        /* \"#utility.yul\":6084:6593   */\n    tag_23:\n        /* \"#utility.yul\":6153:6159   */\n      0x00\n        /* \"#utility.yul\":6202:6204   */\n      0x20\n        /* \"#utility.yul\":6190:6199   */\n      dup3\n        /* \"#utility.yul\":6181:6188   */\n      dup5\n        /* \"#utility.yul\":6177:6200   */\n      sub\n        /* \"#utility.yul\":6173:6205   */\n      slt\n        /* \"#utility.yul\":6170:6289   */\n      iszero\n      tag_139\n      jumpi\n        /* \"#utility.yul\":6208:6287   */\n      tag_140\n      tag_33\n      jump\t// in\n    tag_140:\n        /* \"#utility.yul\":6170:6289   */\n    tag_139:\n        /* \"#utility.yul\":6356:6357   */\n      0x00\n        /* \"#utility.yul\":6345:6354   */\n      dup3\n        /* \"#utility.yul\":6341:6358   */\n      add\n        /* \"#utility.yul\":6328:6359   */\n      calldataload\n        /* \"#utility.yul\":6386:6404   */\n      0xffffffffffffffff\n        /* \"#utility.yul\":6378:6384   */\n      dup2\n        /* \"#utility.yul\":6375:6405   */\n      gt\n        /* \"#utility.yul\":6372:6489   */\n      iszero\n      tag_141\n      jumpi\n        /* \"#utility.yul\":6408:6487   */\n      tag_142\n      tag_34\n      jump\t// in\n    tag_142:\n        /* \"#utility.yul\":6372:6489   */\n    tag_141:\n        /* \"#utility.yul\":6513:6576   */\n      tag_143\n        /* \"#utility.yul\":6568:6575   */\n      dup5\n        /* \"#utility.yul\":6559:6565   */\n      dup3\n        /* \"#utility.yul\":6548:6557   */\n      dup6\n        /* \"#utility.yul\":6544:6566   */\n      add\n        /* \"#utility.yul\":6513:6576   */\n      tag_55\n      jump\t// in\n    tag_143:\n        /* \"#utility.yul\":6503:6576   */\n      swap2\n      pop\n        /* \"#utility.yul\":6299:6586   */\n      pop\n        /* \"#utility.yul\":6084:6593   */\n      swap3\n      swap2\n      pop\n      pop\n      jump\t// out\n        /* \"#utility.yul\":6599:6689   */\n    tag_56:\n        /* \"#utility.yul\":6633:6640   */\n      0x00\n        /* \"#utility.yul\":6676:6681   */\n      dup2\n        /* \"#utility.yul\":6669:6682   */\n      iszero\n        /* \"#utility.yul\":6662:6683   */\n      iszero\n        /* \"#utility.yul\":6651:6683   */\n      swap1\n      pop\n        /* \"#utility.yul\":6599:6689   */\n      swap2\n      swap1\n      pop\n      jump\t// out\n        /* \"#utility.yul\":6695:6804   */\n    tag_57:\n        /* \"#utility.yul\":6776:6797   */\n      tag_146\n        /* \"#utility.yul\":6791:6796   */\n      dup2\n        /* \"#utility.yul\":6776:6797   */\n      tag_56\n      jump\t// in\n    tag_146:\n        /* \"#utility.yul\":6771:6774   */\n      dup3\n        /* \"#utility.yul\":6764:6798   */\n      mstore\n        /* \"#utility.yul\":6695:6804   */\n      pop\n      pop\n      jump\t// out\n        /* \"#utility.yul\":6810:7020   */\n    tag_26:\n        /* \"#utility.yul\":6897:6901   */\n      0x00\n        /* \"#utility.yul\":6935:6937   */\n      0x20\n        /* \"#utility.yul\":6924:6933   */\n      dup3\n        /* \"#utility.yul\":6920:6938   */\n      add\n        /* \"#utility.yul\":6912:6938   */\n      swap1\n      pop\n        /* \"#utility.yul\":6948:7013   */\n      tag_148\n        /* \"#utility.yul\":7010:7011   */\n      0x00\n        /* \"#utility.yul\":6999:7008   */\n      dup4\n        /* \"#utility.yul\":6995:7012   */\n      add\n        /* \"#utility.yul\":6986:6992   */\n      dup5\n        /* \"#utility.yul\":6948:7013   */\n      tag_57\n      jump\t// in\n    tag_148:\n        /* \"#utility.yul\":6810:7020   */\n      swap3\n      swap2\n      pop\n      pop\n      jump\t// out\n        /* \"#utility.yul\":7026:7195   */\n    tag_58:\n        /* \"#utility.yul\":7110:7121   */\n      0x00\n        /* \"#utility.yul\":7144:7150   */\n      dup3\n        /* \"#utility.yul\":7139:7142   */\n      dup3\n        /* \"#utility.yul\":7132:7151   */\n      mstore\n        /* \"#utility.yul\":7184:7188   */\n      0x20\n        /* \"#utility.yul\":7179:7182   */\n      dup3\n        /* \"#utility.yul\":7175:7189   */\n      add\n        /* \"#utility.yul\":7160:7189   */\n      swap1\n      pop\n        /* \"#utility.yul\":7026:7195   */\n      swap3\n      swap2\n      pop\n      pop\n      jump\t// out\n        /* \"#utility.yul\":7225:7542   */\n    tag_59:\n        /* \"#utility.yul\":7323:7326   */\n      0x00\n        /* \"#utility.yul\":7344:7415   */\n      tag_151\n        /* \"#utility.yul\":7408:7414   */\n      dup4\n        /* \"#utility.yul\":7403:7406   */\n      dup6\n        /* \"#utility.yul\":7344:7415   */\n      tag_58\n      jump\t// in\n    tag_151:\n        /* \"#utility.yul\":7337:7415   */\n      swap4\n      pop\n        /* \"#utility.yul\":7425:7481   */\n      tag_152\n        /* \"#utility.yul\":7474:7480   */\n      dup4\n        /* \"#utility.yul\":7469:7472   */\n      dup6\n        /* \"#utility.yul\":7462:7467   */\n      dup5\n        /* \"#utility.yul\":7425:7481   */\n      tag_53\n      jump\t// in\n    tag_152:\n        /* \"#utility.yul\":7506:7535   */\n      tag_153\n        /* \"#utility.yul\":7528:7534   */\n      dup4\n        /* \"#utility.yul\":7506:7535   */\n      tag_48\n      jump\t// in\n    tag_153:\n        /* \"#utility.yul\":7501:7504   */\n      dup5\n        /* \"#utility.yul\":7497:7536   */\n      add\n        /* \"#utility.yul\":7490:7536   */\n      swap1\n      pop\n        /* \"#utility.yul\":7225:7542   */\n      swap4\n      swap3\n      pop\n      pop\n      pop\n      jump\t// out\n        /* \"#utility.yul\":7548:7728   */\n    tag_60:\n        /* \"#utility.yul\":7596:7673   */\n      0x4e487b7100000000000000000000000000000000000000000000000000000000\n        /* \"#utility.yul\":7593:7594   */\n      0x00\n        /* \"#utility.yul\":7586:7674   */\n      mstore\n        /* \"#utility.yul\":7693:7697   */\n      0x21\n        /* \"#utility.yul\":7690:7691   */\n      0x04\n        /* \"#utility.yul\":7683:7698   */\n      mstore\n        /* \"#utility.yul\":7717:7721   */\n      0x24\n        /* \"#utility.yul\":7714:7715   */\n      0x00\n        /* \"#utility.yul\":7707:7722   */\n      revert\n        /* \"#utility.yul\":7734:7870   */\n    tag_61:\n        /* \"#utility.yul\":7838:7839   */\n      0x04\n        /* \"#utility.yul\":7831:7836   */\n      dup2\n        /* \"#utility.yul\":7828:7840   */\n      lt\n        /* \"#utility.yul\":7818:7864   */\n      tag_156\n      jumpi\n        /* \"#utility.yul\":7844:7862   */\n      tag_157\n      tag_60\n      jump\t// in\n    tag_157:\n        /* \"#utility.yul\":7818:7864   */\n    tag_156:\n        /* \"#utility.yul\":7734:7870   */\n      pop\n      jump\t// out\n        /* \"#utility.yul\":7876:8049   */\n    tag_62:\n        /* \"#utility.yul\":7944:7951   */\n      0x00\n        /* \"#utility.yul\":7973:7978   */\n      dup2\n        /* \"#utility.yul\":7962:7978   */\n      swap1\n      pop\n        /* \"#utility.yul\":7979:8043   */\n      tag_159\n        /* \"#utility.yul\":8037:8042   */\n      dup3\n        /* \"#utility.yul\":7979:8043   */\n      tag_61\n      jump\t// in\n    tag_159:\n        /* \"#utility.yul\":7876:8049   */\n      swap2\n      swap1\n      pop\n      jump\t// out\n        /* \"#utility.yul\":8055:8228   */\n    tag_63:\n        /* \"#utility.yul\":8134:8143   */\n      0x00\n        /* \"#utility.yul\":8167:8222   */\n      tag_161\n        /* \"#utility.yul\":8216:8221   */\n      dup3\n        /* \"#utility.yul\":8167:8222   */\n      tag_62\n      jump\t// in\n    tag_161:\n        /* \"#utility.yul\":8154:8222   */\n      swap1\n      pop\n        /* \"#utility.yul\":8055:8228   */\n      swap2\n      swap1\n      pop\n      jump\t// out\n        /* \"#utility.yul\":8234:8423   */\n    tag_64:\n        /* \"#utility.yul\":8350:8416   */\n      tag_163\n        /* \"#utility.yul\":8410:8415   */\n      dup2\n        /* \"#utility.yul\":8350:8416   */\n      tag_63\n      jump\t// in\n    tag_163:\n        /* \"#utility.yul\":8345:8348   */\n      dup3\n        /* \"#utility.yul\":8338:8417   */\n      mstore\n        /* \"#utility.yul\":8234:8423   */\n      pop\n      pop\n      jump\t// out\n        /* \"#utility.yul\":8429:8930   */\n    tag_30:\n        /* \"#utility.yul\":8609:8613   */\n      0x00\n        /* \"#utility.yul\":8647:8649   */\n      0x40\n        /* \"#utility.yul\":8636:8645   */\n      dup3\n        /* \"#utility.yul\":8632:8650   */\n      add\n        /* \"#utility.yul\":8624:8650   */\n      swap1\n      pop\n        /* \"#utility.yul\":8696:8705   */\n      dup2\n        /* \"#utility.yul\":8690:8694   */\n      dup2\n        /* \"#utility.yul\":8686:8706   */\n      sub\n        /* \"#utility.yul\":8682:8683   */\n      0x00\n        /* \"#utility.yul\":8671:8680   */\n      dup4\n        /* \"#utility.yul\":8667:8684   */\n      add\n        /* \"#utility.yul\":8660:8707   */\n      mstore\n        /* \"#utility.yul\":8724:8812   */\n      tag_165\n        /* \"#utility.yul\":8807:8811   */\n      dup2\n        /* \"#utility.yul\":8798:8804   */\n      dup6\n        /* \"#utility.yul\":8790:8796   */\n      dup8\n        /* \"#utility.yul\":8724:8812   */\n      tag_59\n      jump\t// in\n    tag_165:\n        /* \"#utility.yul\":8716:8812   */\n      swap1\n      pop\n        /* \"#utility.yul\":8822:8923   */\n      tag_166\n        /* \"#utility.yul\":8919:8921   */\n      0x20\n        /* \"#utility.yul\":8908:8917   */\n      dup4\n        /* \"#utility.yul\":8904:8922   */\n      add\n        /* \"#utility.yul\":8895:8901   */\n      dup5\n        /* \"#utility.yul\":8822:8923   */\n      tag_64\n      jump\t// in\n    tag_166:\n        /* \"#utility.yul\":8429:8930   */\n      swap5\n      swap4\n      pop\n      pop\n      pop\n      pop\n      jump\t// out\n\n    auxdata: 0xa2646970667358221220d8473dd212046fcfa4b2a61a05a0434fc5524f72709b15391c2b868003a42b1464736f6c634300081a0033\n}\n",
				"bytecode": {
					"linkReferences": {},
					"object": "608060405234801561000f575f80fd5b50604051610aa0380380610aa0833981810160405281019061003191906102ce565b5f5b81518110156100985760015f83838151811061005257610051610315565b5b60200260200101516040516100679190610386565b90815260200160405180910390205f6101000a81548160ff0219169083151502179055508080600101915050610033565b505061039c565b5f604051905090565b5f80fd5b5f80fd5b5f80fd5b5f601f19601f8301169050919050565b7f4e487b71000000000000000000000000000000000000000000000000000000005f52604160045260245ffd5b6100fa826100b4565b810181811067ffffffffffffffff82111715610119576101186100c4565b5b80604052505050565b5f61012b61009f565b905061013782826100f1565b919050565b5f67ffffffffffffffff821115610156576101556100c4565b5b602082029050602081019050919050565b5f80fd5b5f80fd5b5f67ffffffffffffffff821115610189576101886100c4565b5b610192826100b4565b9050602081019050919050565b8281835e5f83830152505050565b5f6101bf6101ba8461016f565b610122565b9050828152602081018484840111156101db576101da61016b565b5b6101e684828561019f565b509392505050565b5f82601f830112610202576102016100b0565b5b81516102128482602086016101ad565b91505092915050565b5f61022d6102288461013c565b610122565b905080838252602082019050602084028301858111156102505761024f610167565b5b835b8181101561029757805167ffffffffffffffff811115610275576102746100b0565b5b80860161028289826101ee565b85526020850194505050602081019050610252565b5050509392505050565b5f82601f8301126102b5576102b46100b0565b5b81516102c584826020860161021b565b91505092915050565b5f602082840312156102e3576102e26100a8565b5b5f82015167ffffffffffffffff811115610300576102ff6100ac565b5b61030c848285016102a1565b91505092915050565b7f4e487b71000000000000000000000000000000000000000000000000000000005f52603260045260245ffd5b5f81519050919050565b5f81905092915050565b5f61036082610342565b61036a818561034c565b935061037a81856020860161019f565b80840191505092915050565b5f6103918284610356565b915081905092915050565b6106f7806103a95f395ff3fe608060405234801561000f575f80fd5b506004361061004a575f3560e01c806342a364fb1461004e57806388eb34dd1461006a578063a334edcd14610086578063fddc968e146100b6575b5f80fd5b610068600480360381019061006391906102e8565b6100e6565b005b610084600480360381019061007f919061039f565b6101b4565b005b6100a0600480360381019061009b91906103dd565b6101fa565b6040516100ad9190610417565b60405180910390f35b6100d060048036038101906100cb9190610568565b61020f565b6040516100dd91906105c9565b60405180910390f35b8060015f3373ffffffffffffffffffffffffffffffffffffffff1673ffffffffffffffffffffffffffffffffffffffff1681526020019081526020015f20541461015c576040517fe30d885800000000000000000000000000000000000000000000000000000000815260040160405180910390fd5b3373ffffffffffffffffffffffffffffffffffffffff167fdc840972025b14465e97e71ee4dc2050a4cf483e3feb7d6af5fa0b68ee58ec2f848460016040516101a793929190610691565b60405180910390a2505050565b8060015f8473ffffffffffffffffffffffffffffffffffffffff1673ffffffffffffffffffffffffffffffffffffffff1681526020019081526020015f20819055505050565b6001602052805f5260405f205f915090505481565b5f818051602081018201805184825260208301602085012081835280955050505050505f915054906101000a900460ff1681565b5f604051905090565b5f80fd5b5f80fd5b5f80fd5b5f80fd5b5f80fd5b5f8083601f84011261027557610274610254565b5b8235905067ffffffffffffffff81111561029257610291610258565b5b6020830191508360018202830111156102ae576102ad61025c565b5b9250929050565b5f819050919050565b6102c7816102b5565b81146102d1575f80fd5b50565b5f813590506102e2816102be565b92915050565b5f805f604084860312156102ff576102fe61024c565b5b5f84013567ffffffffffffffff81111561031c5761031b610250565b5b61032886828701610260565b9350935050602061033b868287016102d4565b9150509250925092565b5f73ffffffffffffffffffffffffffffffffffffffff82169050919050565b5f61036e82610345565b9050919050565b61037e81610364565b8114610388575f80fd5b50565b5f8135905061039981610375565b92915050565b5f80604083850312156103b5576103b461024c565b5b5f6103c28582860161038b565b92505060206103d3858286016102d4565b9150509250929050565b5f602082840312156103f2576103f161024c565b5b5f6103ff8482850161038b565b91505092915050565b610411816102b5565b82525050565b5f60208201905061042a5f830184610408565b92915050565b5f80fd5b5f601f19601f8301169050919050565b7f4e487b71000000000000000000000000000000000000000000000000000000005f52604160045260245ffd5b61047a82610434565b810181811067ffffffffffffffff8211171561049957610498610444565b5b80604052505050565b5f6104ab610243565b90506104b78282610471565b919050565b5f67ffffffffffffffff8211156104d6576104d5610444565b5b6104df82610434565b9050602081019050919050565b828183375f83830152505050565b5f61050c610507846104bc565b6104a2565b90508281526020810184848401111561052857610527610430565b5b6105338482856104ec565b509392505050565b5f82601f83011261054f5761054e610254565b5b813561055f8482602086016104fa565b91505092915050565b5f6020828403121561057d5761057c61024c565b5b5f82013567ffffffffffffffff81111561059a57610599610250565b5b6105a68482850161053b565b91505092915050565b5f8115159050919050565b6105c3816105af565b82525050565b5f6020820190506105dc5f8301846105ba565b92915050565b5f82825260208201905092915050565b5f6105fd83856105e2565b935061060a8385846104ec565b61061383610434565b840190509392505050565b7f4e487b71000000000000000000000000000000000000000000000000000000005f52602160045260245ffd5b6004811061065c5761065b61061e565b5b50565b5f81905061066c8261064b565b919050565b5f61067b8261065f565b9050919050565b61068b81610671565b82525050565b5f6040820190508181035f8301526106aa8185876105f2565b90506106b96020830184610682565b94935050505056fea2646970667358221220d8473dd212046fcfa4b2a61a05a0434fc5524f72709b15391c2b868003a42b1464736f6c634300081a0033",
					"opcodes": "PUSH1 0x80 PUSH1 0x40 MSTORE CALLVALUE DUP1 ISZERO PUSH2 0xF JUMPI PUSH0 DUP1 REVERT JUMPDEST POP PUSH1 0x40 MLOAD PUSH2 0xAA0 CODESIZE SUB DUP1 PUSH2 0xAA0 DUP4 CODECOPY DUP2 DUP2 ADD PUSH1 0x40 MSTORE DUP2 ADD SWAP1 PUSH2 0x31 SWAP2 SWAP1 PUSH2 0x2CE JUMP JUMPDEST PUSH0 JUMPDEST DUP2 MLOAD DUP2 LT ISZERO PUSH2 0x98 JUMPI PUSH1 0x1 PUSH0 DUP4 DUP4 DUP2 MLOAD DUP2 LT PUSH2 0x52 JUMPI PUSH2 0x51 PUSH2 0x315 JUMP JUMPDEST JUMPDEST PUSH1 0x20 MUL PUSH1 0x20 ADD ADD MLOAD PUSH1 0x40 MLOAD PUSH2 0x67 SWAP2 SWAP1 PUSH2 0x386 JUMP JUMPDEST SWAP1 DUP2 MSTORE PUSH1 0x20 ADD PUSH1 0x40 MLOAD DUP1 SWAP2 SUB SWAP1 KECCAK256 PUSH0 PUSH2 0x100 EXP DUP2 SLOAD DUP2 PUSH1 0xFF MUL NOT AND SWAP1 DUP4 ISZERO ISZERO MUL OR SWAP1 SSTORE POP DUP1 DUP1 PUSH1 0x1 ADD SWAP2 POP POP PUSH2 0x33 JUMP JUMPDEST POP POP PUSH2 0x39C JUMP JUMPDEST PUSH0 PUSH1 0x40 MLOAD SWAP1 POP SWAP1 JUMP JUMPDEST PUSH0 DUP1 REVERT JUMPDEST PUSH0 DUP1 REVERT JUMPDEST PUSH0 DUP1 REVERT JUMPDEST PUSH0 PUSH1 0x1F NOT PUSH1 0x1F DUP4 ADD AND SWAP1 POP SWAP2 SWAP1 POP JUMP JUMPDEST PUSH32 0x4E487B7100000000000000000000000000000000000000000000000000000000 PUSH0 MSTORE PUSH1 0x41 PUSH1 0x4 MSTORE PUSH1 0x24 PUSH0 REVERT JUMPDEST PUSH2 0xFA DUP3 PUSH2 0xB4 JUMP JUMPDEST DUP2 ADD DUP2 DUP2 LT PUSH8 0xFFFFFFFFFFFFFFFF DUP3 GT OR ISZERO PUSH2 0x119 JUMPI PUSH2 0x118 PUSH2 0xC4 JUMP JUMPDEST JUMPDEST DUP1 PUSH1 0x40 MSTORE POP POP POP JUMP JUMPDEST PUSH0 PUSH2 0x12B PUSH2 0x9F JUMP JUMPDEST SWAP1 POP PUSH2 0x137 DUP3 DUP3 PUSH2 0xF1 JUMP JUMPDEST SWAP2 SWAP1 POP JUMP JUMPDEST PUSH0 PUSH8 0xFFFFFFFFFFFFFFFF DUP3 GT ISZERO PUSH2 0x156 JUMPI PUSH2 0x155 PUSH2 0xC4 JUMP JUMPDEST JUMPDEST PUSH1 0x20 DUP3 MUL SWAP1 POP PUSH1 0x20 DUP2 ADD SWAP1 POP SWAP2 SWAP1 POP JUMP JUMPDEST PUSH0 DUP1 REVERT JUMPDEST PUSH0 DUP1 REVERT JUMPDEST PUSH0 PUSH8 0xFFFFFFFFFFFFFFFF DUP3 GT ISZERO PUSH2 0x189 JUMPI PUSH2 0x188 PUSH2 0xC4 JUMP JUMPDEST JUMPDEST PUSH2 0x192 DUP3 PUSH2 0xB4 JUMP JUMPDEST SWAP1 POP PUSH1 0x20 DUP2 ADD SWAP1 POP SWAP2 SWAP1 POP JUMP JUMPDEST DUP3 DUP2 DUP4 MCOPY PUSH0 DUP4 DUP4 ADD MSTORE POP POP POP JUMP JUMPDEST PUSH0 PUSH2 0x1BF PUSH2 0x1BA DUP5 PUSH2 0x16F JUMP JUMPDEST PUSH2 0x122 JUMP JUMPDEST SWAP1 POP DUP3 DUP2 MSTORE PUSH1 0x20 DUP2 ADD DUP5 DUP5 DUP5 ADD GT ISZERO PUSH2 0x1DB JUMPI PUSH2 0x1DA PUSH2 0x16B JUMP JUMPDEST JUMPDEST PUSH2 0x1E6 DUP5 DUP3 DUP6 PUSH2 0x19F JUMP JUMPDEST POP SWAP4 SWAP3 POP POP POP JUMP JUMPDEST PUSH0 DUP3 PUSH1 0x1F DUP4 ADD SLT PUSH2 0x202 JUMPI PUSH2 0x201 PUSH2 0xB0 JUMP JUMPDEST JUMPDEST DUP2 MLOAD PUSH2 0x212 DUP5 DUP3 PUSH1 0x20 DUP7 ADD PUSH2 0x1AD JUMP JUMPDEST SWAP2 POP POP SWAP3 SWAP2 POP POP JUMP JUMPDEST PUSH0 PUSH2 0x22D PUSH2 0x228 DUP5 PUSH2 0x13C JUMP JUMPDEST PUSH2 0x122 JUMP JUMPDEST SWAP1 POP DUP1 DUP4 DUP3 MSTORE PUSH1 0x20 DUP3 ADD SWAP1 POP PUSH1 0x20 DUP5 MUL DUP4 ADD DUP6 DUP2 GT ISZERO PUSH2 0x250 JUMPI PUSH2 0x24F PUSH2 0x167 JUMP JUMPDEST JUMPDEST DUP4 JUMPDEST DUP2 DUP2 LT ISZERO PUSH2 0x297 JUMPI DUP1 MLOAD PUSH8 0xFFFFFFFFFFFFFFFF DUP2 GT ISZERO PUSH2 0x275 JUMPI PUSH2 0x274 PUSH2 0xB0 JUMP JUMPDEST JUMPDEST DUP1 DUP7 ADD PUSH2 0x282 DUP10 DUP3 PUSH2 0x1EE JUMP JUMPDEST DUP6 MSTORE PUSH1 0x20 DUP6 ADD SWAP5 POP POP POP PUSH1 0x20 DUP2 ADD SWAP1 POP PUSH2 0x252 JUMP JUMPDEST POP POP POP SWAP4 SWAP3 POP POP POP JUMP JUMPDEST PUSH0 DUP3 PUSH1 0x1F DUP4 ADD SLT PUSH2 0x2B5 JUMPI PUSH2 0x2B4 PUSH2 0xB0 JUMP JUMPDEST JUMPDEST DUP2 MLOAD PUSH2 0x2C5 DUP5 DUP3 PUSH1 0x20 DUP7 ADD PUSH2 0x21B JUMP JUMPDEST SWAP2 POP POP SWAP3 SWAP2 POP POP JUMP JUMPDEST PUSH0 PUSH1 0x20 DUP3 DUP5 SUB SLT ISZERO PUSH2 0x2E3 JUMPI PUSH2 0x2E2 PUSH2 0xA8 JUMP JUMPDEST JUMPDEST PUSH0 DUP3 ADD MLOAD PUSH8 0xFFFFFFFFFFFFFFFF DUP2 GT ISZERO PUSH2 0x300 JUMPI PUSH2 0x2FF PUSH2 0xAC JUMP JUMPDEST JUMPDEST PUSH2 0x30C DUP5 DUP3 DUP6 ADD PUSH2 0x2A1 JUMP JUMPDEST SWAP2 POP POP SWAP3 SWAP2 POP POP JUMP JUMPDEST PUSH32 0x4E487B7100000000000000000000000000000000000000000000000000000000 PUSH0 MSTORE PUSH1 0x32 PUSH1 0x4 MSTORE PUSH1 0x24 PUSH0 REVERT JUMPDEST PUSH0 DUP2 MLOAD SWAP1 POP SWAP2 SWAP1 POP JUMP JUMPDEST PUSH0 DUP2 SWAP1 POP SWAP3 SWAP2 POP POP JUMP JUMPDEST PUSH0 PUSH2 0x360 DUP3 PUSH2 0x342 JUMP JUMPDEST PUSH2 0x36A DUP2 DUP6 PUSH2 0x34C JUMP JUMPDEST SWAP4 POP PUSH2 0x37A DUP2 DUP6 PUSH1 0x20 DUP7 ADD PUSH2 0x19F JUMP JUMPDEST DUP1 DUP5 ADD SWAP2 POP POP SWAP3 SWAP2 POP POP JUMP JUMPDEST PUSH0 PUSH2 0x391 DUP3 DUP5 PUSH2 0x356 JUMP JUMPDEST SWAP2 POP DUP2 SWAP1 POP SWAP3 SWAP2 POP POP JUMP JUMPDEST PUSH2 0x6F7 DUP1 PUSH2 0x3A9 PUSH0 CODECOPY PUSH0 RETURN INVALID PUSH1 0x80 PUSH1 0x40 MSTORE CALLVALUE DUP1 ISZERO PUSH2 0xF JUMPI PUSH0 DUP1 REVERT JUMPDEST POP PUSH1 0x4 CALLDATASIZE LT PUSH2 0x4A JUMPI PUSH0 CALLDATALOAD PUSH1 0xE0 SHR DUP1 PUSH4 0x42A364FB EQ PUSH2 0x4E JUMPI DUP1 PUSH4 0x88EB34DD EQ PUSH2 0x6A JUMPI DUP1 PUSH4 0xA334EDCD EQ PUSH2 0x86 JUMPI DUP1 PUSH4 0xFDDC968E EQ PUSH2 0xB6 JUMPI JUMPDEST PUSH0 DUP1 REVERT JUMPDEST PUSH2 0x68 PUSH1 0x4 DUP1 CALLDATASIZE SUB DUP2 ADD SWAP1 PUSH2 0x63 SWAP2 SWAP1 PUSH2 0x2E8 JUMP JUMPDEST PUSH2 0xE6 JUMP JUMPDEST STOP JUMPDEST PUSH2 0x84 PUSH1 0x4 DUP1 CALLDATASIZE SUB DUP2 ADD SWAP1 PUSH2 0x7F SWAP2 SWAP1 PUSH2 0x39F JUMP JUMPDEST PUSH2 0x1B4 JUMP JUMPDEST STOP JUMPDEST PUSH2 0xA0 PUSH1 0x4 DUP1 CALLDATASIZE SUB DUP2 ADD SWAP1 PUSH2 0x9B SWAP2 SWAP1 PUSH2 0x3DD JUMP JUMPDEST PUSH2 0x1FA JUMP JUMPDEST PUSH1 0x40 MLOAD PUSH2 0xAD SWAP2 SWAP1 PUSH2 0x417 JUMP JUMPDEST PUSH1 0x40 MLOAD DUP1 SWAP2 SUB SWAP1 RETURN JUMPDEST PUSH2 0xD0 PUSH1 0x4 DUP1 CALLDATASIZE SUB DUP2 ADD SWAP1 PUSH2 0xCB SWAP2 SWAP1 PUSH2 0x568 JUMP JUMPDEST PUSH2 0x20F JUMP JUMPDEST PUSH1 0x40 MLOAD PUSH2 0xDD SWAP2 SWAP1 PUSH2 0x5C9 JUMP JUMPDEST PUSH1 0x40 MLOAD DUP1 SWAP2 SUB SWAP1 RETURN JUMPDEST DUP1 PUSH1 0x1 PUSH0 CALLER PUSH20 0xFFFFFFFFFFFFFFFFFFFFFFFFFFFFFFFFFFFFFFFF AND PUSH20 0xFFFFFFFFFFFFFFFFFFFFFFFFFFFFFFFFFFFFFFFF AND DUP2 MSTORE PUSH1 0x20 ADD SWAP1 DUP2 MSTORE PUSH1 0x20 ADD PUSH0 KECCAK256 SLOAD EQ PUSH2 0x15C JUMPI PUSH1 0x40 MLOAD PUSH32 0xE30D885800000000000000000000000000000000000000000000000000000000 DUP2 MSTORE PUSH1 0x4 ADD PUSH1 0x40 MLOAD DUP1 SWAP2 SUB SWAP1 REVERT JUMPDEST CALLER PUSH20 0xFFFFFFFFFFFFFFFFFFFFFFFFFFFFFFFFFFFFFFFF AND PUSH32 0xDC840972025B14465E97E71EE4DC2050A4CF483E3FEB7D6AF5FA0B68EE58EC2F DUP5 DUP5 PUSH1 0x1 PUSH1 0x40 MLOAD PUSH2 0x1A7 SWAP4 SWAP3 SWAP2 SWAP1 PUSH2 0x691 JUMP JUMPDEST PUSH1 0x40 MLOAD DUP1 SWAP2 SUB SWAP1 LOG2 POP POP POP JUMP JUMPDEST DUP1 PUSH1 0x1 PUSH0 DUP5 PUSH20 0xFFFFFFFFFFFFFFFFFFFFFFFFFFFFFFFFFFFFFFFF AND PUSH20 0xFFFFFFFFFFFFFFFFFFFFFFFFFFFFFFFFFFFFFFFF AND DUP2 MSTORE PUSH1 0x20 ADD SWAP1 DUP2 MSTORE PUSH1 0x20 ADD PUSH0 KECCAK256 DUP2 SWAP1 SSTORE POP POP POP JUMP JUMPDEST PUSH1 0x1 PUSH1 0x20 MSTORE DUP1 PUSH0 MSTORE PUSH1 0x40 PUSH0 KECCAK256 PUSH0 SWAP2 POP SWAP1 POP SLOAD DUP2 JUMP JUMPDEST PUSH0 DUP2 DUP1 MLOAD PUSH1 0x20 DUP2 ADD DUP3 ADD DUP1 MLOAD DUP5 DUP3 MSTORE PUSH1 0x20 DUP4 ADD PUSH1 0x20 DUP6 ADD KECCAK256 DUP2 DUP4 MSTORE DUP1 SWAP6 POP POP POP POP POP POP PUSH0 SWAP2 POP SLOAD SWAP1 PUSH2 0x100 EXP SWAP1 DIV PUSH1 0xFF AND DUP2 JUMP JUMPDEST PUSH0 PUSH1 0x40 MLOAD SWAP1 POP SWAP1 JUMP JUMPDEST PUSH0 DUP1 REVERT JUMPDEST PUSH0 DUP1 REVERT JUMPDEST PUSH0 DUP1 REVERT JUMPDEST PUSH0 DUP1 REVERT JUMPDEST PUSH0 DUP1 REVERT JUMPDEST PUSH0 DUP1 DUP4 PUSH1 0x1F DUP5 ADD SLT PUSH2 0x275 JUMPI PUSH2 0x274 PUSH2 0x254 JUMP JUMPDEST JUMPDEST DUP3 CALLDATALOAD SWAP1 POP PUSH8 0xFFFFFFFFFFFFFFFF DUP2 GT ISZERO PUSH2 0x292 JUMPI PUSH2 0x291 PUSH2 0x258 JUMP JUMPDEST JUMPDEST PUSH1 0x20 DUP4 ADD SWAP2 POP DUP4 PUSH1 0x1 DUP3 MUL DUP4 ADD GT ISZERO PUSH2 0x2AE JUMPI PUSH2 0x2AD PUSH2 0x25C JUMP JUMPDEST JUMPDEST SWAP3 POP SWAP3 SWAP1 POP JUMP JUMPDEST PUSH0 DUP2 SWAP1 POP SWAP2 SWAP1 POP JUMP JUMPDEST PUSH2 0x2C7 DUP2 PUSH2 0x2B5 JUMP JUMPDEST DUP2 EQ PUSH2 0x2D1 JUMPI PUSH0 DUP1 REVERT JUMPDEST POP JUMP JUMPDEST PUSH0 DUP2 CALLDATALOAD SWAP1 POP PUSH2 0x2E2 DUP2 PUSH2 0x2BE JUMP JUMPDEST SWAP3 SWAP2 POP POP JUMP JUMPDEST PUSH0 DUP1 PUSH0 PUSH1 0x40 DUP5 DUP7 SUB SLT ISZERO PUSH2 0x2FF JUMPI PUSH2 0x2FE PUSH2 0x24C JUMP JUMPDEST JUMPDEST PUSH0 DUP5 ADD CALLDATALOAD PUSH8 0xFFFFFFFFFFFFFFFF DUP2 GT ISZERO PUSH2 0x31C JUMPI PUSH2 0x31B PUSH2 0x250 JUMP JUMPDEST JUMPDEST PUSH2 0x328 DUP7 DUP3 DUP8 ADD PUSH2 0x260 JUMP JUMPDEST SWAP4 POP SWAP4 POP POP PUSH1 0x20 PUSH2 0x33B DUP7 DUP3 DUP8 ADD PUSH2 0x2D4 JUMP JUMPDEST SWAP2 POP POP SWAP3 POP SWAP3 POP SWAP3 JUMP JUMPDEST PUSH0 PUSH20 0xFFFFFFFFFFFFFFFFFFFFFFFFFFFFFFFFFFFFFFFF DUP3 AND SWAP1 POP SWAP2 SWAP1 POP JUMP JUMPDEST PUSH0 PUSH2 0x36E DUP3 PUSH2 0x345 JUMP JUMPDEST SWAP1 POP SWAP2 SWAP1 POP JUMP JUMPDEST PUSH2 0x37E DUP2 PUSH2 0x364 JUMP JUMPDEST DUP2 EQ PUSH2 0x388 JUMPI PUSH0 DUP1 REVERT JUMPDEST POP JUMP JUMPDEST PUSH0 DUP2 CALLDATALOAD SWAP1 POP PUSH2 0x399 DUP2 PUSH2 0x375 JUMP JUMPDEST SWAP3 SWAP2 POP POP JUMP JUMPDEST PUSH0 DUP1 PUSH1 0x40 DUP4 DUP6 SUB SLT ISZERO PUSH2 0x3B5 JUMPI PUSH2 0x3B4 PUSH2 0x24C JUMP JUMPDEST JUMPDEST PUSH0 PUSH2 0x3C2 DUP6 DUP3 DUP7 ADD PUSH2 0x38B JUMP JUMPDEST SWAP3 POP POP PUSH1 0x20 PUSH2 0x3D3 DUP6 DUP3 DUP7 ADD PUSH2 0x2D4 JUMP JUMPDEST SWAP2 POP POP SWAP3 POP SWAP3 SWAP1 POP JUMP JUMPDEST PUSH0 PUSH1 0x20 DUP3 DUP5 SUB SLT ISZERO PUSH2 0x3F2 JUMPI PUSH2 0x3F1 PUSH2 0x24C JUMP JUMPDEST JUMPDEST PUSH0 PUSH2 0x3FF DUP5 DUP3 DUP6 ADD PUSH2 0x38B JUMP JUMPDEST SWAP2 POP POP SWAP3 SWAP2 POP POP JUMP JUMPDEST PUSH2 0x411 DUP2 PUSH2 0x2B5 JUMP JUMPDEST DUP3 MSTORE POP POP JUMP JUMPDEST PUSH0 PUSH1 0x20 DUP3 ADD SWAP1 POP PUSH2 0x42A PUSH0 DUP4 ADD DUP5 PUSH2 0x408 JUMP JUMPDEST SWAP3 SWAP2 POP POP JUMP JUMPDEST PUSH0 DUP1 REVERT JUMPDEST PUSH0 PUSH1 0x1F NOT PUSH1 0x1F DUP4 ADD AND SWAP1 POP SWAP2 SWAP1 POP JUMP JUMPDEST PUSH32 0x4E487B7100000000000000000000000000000000000000000000000000000000 PUSH0 MSTORE PUSH1 0x41 PUSH1 0x4 MSTORE PUSH1 0x24 PUSH0 REVERT JUMPDEST PUSH2 0x47A DUP3 PUSH2 0x434 JUMP JUMPDEST DUP2 ADD DUP2 DUP2 LT PUSH8 0xFFFFFFFFFFFFFFFF DUP3 GT OR ISZERO PUSH2 0x499 JUMPI PUSH2 0x498 PUSH2 0x444 JUMP JUMPDEST JUMPDEST DUP1 PUSH1 0x40 MSTORE POP POP POP JUMP JUMPDEST PUSH0 PUSH2 0x4AB PUSH2 0x243 JUMP JUMPDEST SWAP1 POP PUSH2 0x4B7 DUP3 DUP3 PUSH2 0x471 JUMP JUMPDEST SWAP2 SWAP1 POP JUMP JUMPDEST PUSH0 PUSH8 0xFFFFFFFFFFFFFFFF DUP3 GT ISZERO PUSH2 0x4D6 JUMPI PUSH2 0x4D5 PUSH2 0x444 JUMP JUMPDEST JUMPDEST PUSH2 0x4DF DUP3 PUSH2 0x434 JUMP JUMPDEST SWAP1 POP PUSH1 0x20 DUP2 ADD SWAP1 POP SWAP2 SWAP1 POP JUMP JUMPDEST DUP3 DUP2 DUP4 CALLDATACOPY PUSH0 DUP4 DUP4 ADD MSTORE POP POP POP JUMP JUMPDEST PUSH0 PUSH2 0x50C PUSH2 0x507 DUP5 PUSH2 0x4BC JUMP JUMPDEST PUSH2 0x4A2 JUMP JUMPDEST SWAP1 POP DUP3 DUP2 MSTORE PUSH1 0x20 DUP2 ADD DUP5 DUP5 DUP5 ADD GT ISZERO PUSH2 0x528 JUMPI PUSH2 0x527 PUSH2 0x430 JUMP JUMPDEST JUMPDEST PUSH2 0x533 DUP5 DUP3 DUP6 PUSH2 0x4EC JUMP JUMPDEST POP SWAP4 SWAP3 POP POP POP JUMP JUMPDEST PUSH0 DUP3 PUSH1 0x1F DUP4 ADD SLT PUSH2 0x54F JUMPI PUSH2 0x54E PUSH2 0x254 JUMP JUMPDEST JUMPDEST DUP2 CALLDATALOAD PUSH2 0x55F DUP5 DUP3 PUSH1 0x20 DUP7 ADD PUSH2 0x4FA JUMP JUMPDEST SWAP2 POP POP SWAP3 SWAP2 POP POP JUMP JUMPDEST PUSH0 PUSH1 0x20 DUP3 DUP5 SUB SLT ISZERO PUSH2 0x57D JUMPI PUSH2 0x57C PUSH2 0x24C JUMP JUMPDEST JUMPDEST PUSH0 DUP3 ADD CALLDATALOAD PUSH8 0xFFFFFFFFFFFFFFFF DUP2 GT ISZERO PUSH2 0x59A JUMPI PUSH2 0x599 PUSH2 0x250 JUMP JUMPDEST JUMPDEST PUSH2 0x5A6 DUP5 DUP3 DUP6 ADD PUSH2 0x53B JUMP JUMPDEST SWAP2 POP POP SWAP3 SWAP2 POP POP JUMP JUMPDEST PUSH0 DUP2 ISZERO ISZERO SWAP1 POP SWAP2 SWAP1 POP JUMP JUMPDEST PUSH2 0x5C3 DUP2 PUSH2 0x5AF JUMP JUMPDEST DUP3 MSTORE POP POP JUMP JUMPDEST PUSH0 PUSH1 0x20 DUP3 ADD SWAP1 POP PUSH2 0x5DC PUSH0 DUP4 ADD DUP5 PUSH2 0x5BA JUMP JUMPDEST SWAP3 SWAP2 POP POP JUMP JUMPDEST PUSH0 DUP3 DUP3 MSTORE PUSH1 0x20 DUP3 ADD SWAP1 POP SWAP3 SWAP2 POP POP JUMP JUMPDEST PUSH0 PUSH2 0x5FD DUP4 DUP6 PUSH2 0x5E2 JUMP JUMPDEST SWAP4 POP PUSH2 0x60A DUP4 DUP6 DUP5 PUSH2 0x4EC JUMP JUMPDEST PUSH2 0x613 DUP4 PUSH2 0x434 JUMP JUMPDEST DUP5 ADD SWAP1 POP SWAP4 SWAP3 POP POP POP JUMP JUMPDEST PUSH32 0x4E487B7100000000000000000000000000000000000000000000000000000000 PUSH0 MSTORE PUSH1 0x21 PUSH1 0x4 MSTORE PUSH1 0x24 PUSH0 REVERT JUMPDEST PUSH1 0x4 DUP2 LT PUSH2 0x65C JUMPI PUSH2 0x65B PUSH2 0x61E JUMP JUMPDEST JUMPDEST POP JUMP JUMPDEST PUSH0 DUP2 SWAP1 POP PUSH2 0x66C DUP3 PUSH2 0x64B JUMP JUMPDEST SWAP2 SWAP1 POP JUMP JUMPDEST PUSH0 PUSH2 0x67B DUP3 PUSH2 0x65F JUMP JUMPDEST SWAP1 POP SWAP2 SWAP1 POP JUMP JUMPDEST PUSH2 0x68B DUP2 PUSH2 0x671 JUMP JUMPDEST DUP3 MSTORE POP POP JUMP JUMPDEST PUSH0 PUSH1 0x40 DUP3 ADD SWAP1 POP DUP2 DUP2 SUB PUSH0 DUP4 ADD MSTORE PUSH2 0x6AA DUP2 DUP6 DUP8 PUSH2 0x5F2 JUMP JUMPDEST SWAP1 POP PUSH2 0x6B9 PUSH1 0x20 DUP4 ADD DUP5 PUSH2 0x682 JUMP JUMPDEST SWAP5 SWAP4 POP POP POP POP JUMP INVALID LOG2 PUSH5 0x6970667358 0x22 SLT KECCAK256 0xD8 SELFBALANCE RETURNDATASIZE 0xD2 SLT DIV PUSH16 0xCFA4B2A61A05A0434FC5524F72709B15 CODECOPY SHR 0x2B DUP7 DUP1 SUB LOG4 0x2B EQ PUSH5 0x736F6C6343 STOP ADDMOD BYTE STOP CALLER "
				},
				"gasEstimates": {
					"creation": {
						"codeDepositCost": "356600",
						"executionCost": "infinite",
						"totalCost": "infinite"
					},
					"external": {
						"captchaToken(address)": "2824",
						"checkUser(string,bytes32)": "infinite",
						"setCaptchaToken(address,bytes32)": "22822",
						"userExists(string)": "infinite"
					}
				},
				"methodIdentifiers": {
					"captchaToken(address)": "a334edcd",
					"checkUser(string,bytes32)": "42a364fb",
					"setCaptchaToken(address,bytes32)": "88eb34dd",
					"userExists(string)": "fddc968e"
				}
			},
			"storageLayout": {
				"storage": [
					{
						"astId": 244,
						"contract": "A/AccountHarvesting/AccountHarvesting.sol:AccountHarvestSafeCaptcha",
						"label": "userExists",
						"offset": 0,
						"slot": "0",
						"type": "t_mapping(t_string_memory_ptr,t_bool)"
					},
					{
						"astId": 248,
						"contract": "A/AccountHarvesting/AccountHarvesting.sol:AccountHarvestSafeCaptcha",
						"label": "captchaToken",
						"offset": 0,
						"slot": "1",
						"type": "t_mapping(t_address,t_bytes32)"
					}
				],
				"types": {
					"t_address": {
						"encoding": "inplace",
						"label": "address",
						"numberOfBytes": "20"
					},
					"t_bool": {
						"encoding": "inplace",
						"label": "bool",
						"numberOfBytes": "1"
					},
					"t_bytes32": {
						"encoding": "inplace",
						"label": "bytes32",
						"numberOfBytes": "32"
					},
					"t_mapping(t_address,t_bytes32)": {
						"encoding": "mapping",
						"key": "t_address",
						"label": "mapping(address => bytes32)",
						"numberOfBytes": "32",
						"value": "t_bytes32"
					},
					"t_mapping(t_string_memory_ptr,t_bool)": {
						"encoding": "mapping",
						"key": "t_string_memory_ptr",
						"label": "mapping(string => bool)",
						"numberOfBytes": "32",
						"value": "t_bool"
					},
					"t_string_memory_ptr": {
						"encoding": "bytes",
						"label": "string",
						"numberOfBytes": "32"
					}
				}
			},
			"userdoc": {
				"kind": "user",
				"methods": {
					"setCaptchaToken(address,bytes32)": {
						"notice": "owner assigns CAPTCHA tokens off-chain"
					}
				},
				"version": 1
			}
		}
	}
}