{
	"A/AccountHarvesting/AccountHarvesting.sol": {
		"Attack_AccountHarvest": {
			"abi": [
				{
					"inputs": [
						{
							"internalType": "contract AccountHarvestVuln",
							"name": "_t",
							"type": "address"
						}
					],
					"stateMutability": "nonpayable",
					"type": "constructor"
				},
				{
					"inputs": [
						{
							"internalType": "string[]",
							"name": "names",
							"type": "string[]"
						}
					],
					"name": "bulkCheck",
					"outputs": [],
					"stateMutability": "nonpayable",
					"type": "function"
				},
				{
					"inputs": [],
					"name": "target",
					"outputs": [
						{
							"internalType": "contract AccountHarvestVuln",
							"name": "",
							"type": "address"
						}
					],
					"stateMutability": "view",
					"type": "function"
				}
			],
			"devdoc": {
				"kind": "dev",
				"methods": {},
				"version": 1
			},
			"evm": {
				"assembly": "    /* \"A/AccountHarvesting/AccountHarvesting.sol\":1892:2222  contract Attack_AccountHarvest {... */\n  mstore(0x40, 0x80)\n    /* \"A/AccountHarvesting/AccountHarvesting.sol\":1967:2018  constructor(AccountHarvestVuln _t) { target = _t; } */\n  callvalue\n  dup1\n  iszero\n  tag_1\n  jumpi\n  0x00\n  dup1\n  revert\ntag_1:\n  pop\n  mload(0x40)\n  sub(codesize, bytecodeSize)\n  dup1\n  bytecodeSize\n  dup4\n  codecopy\n  dup2\n  dup2\n  add\n  0x40\n  mstore\n  dup2\n  add\n  swap1\n  tag_2\n  swap2\n  swap1\n  tag_3\n  jump\t// in\ntag_2:\n    /* \"A/AccountHarvesting/AccountHarvesting.sol\":2013:2015  _t */\n  dup1\n    /* \"A/AccountHarvesting/AccountHarvesting.sol\":2004:2010  target */\n  0x00\n  dup1\n    /* \"A/AccountHarvesting/AccountHarvesting.sol\":2004:2015  target = _t */\n  0x0100\n  exp\n  dup2\n  sload\n  dup2\n  0xffffffffffffffffffffffffffffffffffffffff\n  mul\n  not\n  and\n  swap1\n  dup4\n  0xffffffffffffffffffffffffffffffffffffffff\n  and\n  mul\n  or\n  swap1\n  sstore\n  pop\n    /* \"A/AccountHarvesting/AccountHarvesting.sol\":1967:2018  constructor(AccountHarvestVuln _t) { target = _t; } */\n  pop\n    /* \"A/AccountHarvesting/AccountHarvesting.sol\":1892:2222  contract Attack_AccountHarvest {... */\n  jump(tag_6)\n    /* \"#utility.yul\":88:205   */\ntag_8:\n    /* \"#utility.yul\":197:198   */\n  0x00\n    /* \"#utility.yul\":194:195   */\n  dup1\n    /* \"#utility.yul\":187:199   */\n  revert\n    /* \"#utility.yul\":334:460   */\ntag_10:\n    /* \"#utility.yul\":371:378   */\n  0x00\n    /* \"#utility.yul\":411:453   */\n  0xffffffffffffffffffffffffffffffffffffffff\n    /* \"#utility.yul\":404:409   */\n  dup3\n    /* \"#utility.yul\":400:454   */\n  and\n    /* \"#utility.yul\":389:454   */\n  swap1\n  pop\n    /* \"#utility.yul\":334:460   */\n  swap2\n  swap1\n  pop\n  jump\t// out\n    /* \"#utility.yul\":466:562   */\ntag_11:\n    /* \"#utility.yul\":503:510   */\n  0x00\n    /* \"#utility.yul\":532:556   */\n  tag_21\n    /* \"#utility.yul\":550:555   */\n  dup3\n    /* \"#utility.yul\":532:556   */\n  tag_10\n  jump\t// in\ntag_21:\n    /* \"#utility.yul\":521:556   */\n  swap1\n  pop\n    /* \"#utility.yul\":466:562   */\n  swap2\n  swap1\n  pop\n  jump\t// out\n    /* \"#utility.yul\":568:689   */\ntag_12:\n    /* \"#utility.yul\":630:637   */\n  0x00\n    /* \"#utility.yul\":659:683   */\n  tag_23\n    /* \"#utility.yul\":677:682   */\n  dup3\n    /* \"#utility.yul\":659:683   */\n  tag_11\n  jump\t// in\ntag_23:\n    /* \"#utility.yul\":648:683   */\n  swap1\n  pop\n    /* \"#utility.yul\":568:689   */\n  swap2\n  swap1\n  pop\n  jump\t// out\n    /* \"#utility.yul\":695:867   */\ntag_13:\n    /* \"#utility.yul\":793:842   */\n  tag_25\n    /* \"#utility.yul\":836:841   */\n  dup2\n    /* \"#utility.yul\":793:842   */\n  tag_12\n  jump\t// in\ntag_25:\n    /* \"#utility.yul\":786:791   */\n  dup2\n    /* \"#utility.yul\":783:843   */\n  eq\n    /* \"#utility.yul\":773:861   */\n  tag_26\n  jumpi\n    /* \"#utility.yul\":857:858   */\n  0x00\n    /* \"#utility.yul\":854:855   */\n  dup1\n    /* \"#utility.yul\":847:859   */\n  revert\n    /* \"#utility.yul\":773:861   */\ntag_26:\n    /* \"#utility.yul\":695:867   */\n  pop\n  jump\t// out\n    /* \"#utility.yul\":873:1066   */\ntag_14:\n    /* \"#utility.yul\":955:960   */\n  0x00\n    /* \"#utility.yul\":986:992   */\n  dup2\n    /* \"#utility.yul\":980:993   */\n  mload\n    /* \"#utility.yul\":971:993   */\n  swap1\n  pop\n    /* \"#utility.yul\":1002:1060   */\n  tag_28\n    /* \"#utility.yul\":1054:1059   */\n  dup2\n    /* \"#utility.yul\":1002:1060   */\n  tag_13\n  jump\t// in\ntag_28:\n    /* \"#utility.yul\":873:1066   */\n  swap3\n  swap2\n  pop\n  pop\n  jump\t// out\n    /* \"#utility.yul\":1072:1473   */\ntag_3:\n    /* \"#utility.yul\":1167:1173   */\n  0x00\n    /* \"#utility.yul\":1216:1218   */\n  0x20\n    /* \"#utility.yul\":1204:1213   */\n  dup3\n    /* \"#utility.yul\":1195:1202   */\n  dup5\n    /* \"#utility.yul\":1191:1214   */\n  sub\n    /* \"#utility.yul\":1187:1219   */\n  slt\n    /* \"#utility.yul\":1184:1303   */\n  iszero\n  tag_30\n  jumpi\n    /* \"#utility.yul\":1222:1301   */\n  tag_31\n  tag_8\n  jump\t// in\ntag_31:\n    /* \"#utility.yul\":1184:1303   */\ntag_30:\n    /* \"#utility.yul\":1342:1343   */\n  0x00\n    /* \"#utility.yul\":1367:1456   */\n  tag_32\n    /* \"#utility.yul\":1448:1455   */\n  dup5\n    /* \"#utility.yul\":1439:1445   */\n  dup3\n    /* \"#utility.yul\":1428:1437   */\n  dup6\n    /* \"#utility.yul\":1424:1446   */\n  add\n    /* \"#utility.yul\":1367:1456   */\n  tag_14\n  jump\t// in\ntag_32:\n    /* \"#utility.yul\":1357:1456   */\n  swap2\n  pop\n    /* \"#utility.yul\":1313:1466   */\n  pop\n    /* \"#utility.yul\":1072:1473   */\n  swap3\n  swap2\n  pop\n  pop\n  jump\t// out\n    /* \"A/AccountHarvesting/AccountHarvesting.sol\":1892:2222  contract Attack_AccountHarvest {... */\ntag_6:\n  dataSize(sub_0)\n  dup1\n  dataOffset(sub_0)\n  0x00\n  codecopy\n  0x00\n  return\nstop\n\nsub_0: assembly {\n        /* \"A/AccountHarvesting/AccountHarvesting.sol\":1892:2222  contract Attack_AccountHarvest {... */\n      mstore(0x40, 0x80)\n      callvalue\n      dup1\n      iszero\n      tag_1\n      jumpi\n      0x00\n      dup1\n      revert\n    tag_1:\n      pop\n      jumpi(tag_2, lt(calldatasize, 0x04))\n      shr(0xe0, calldataload(0x00))\n      dup1\n      0xc7496af7\n      eq\n      tag_3\n      jumpi\n      dup1\n      0xd4b83992\n      eq\n      tag_4\n      jumpi\n    tag_2:\n      0x00\n      dup1\n      revert\n        /* \"A/AccountHarvesting/AccountHarvesting.sol\":2060:2220  function bulkCheck(string[] calldata names) external {... */\n    tag_3:\n      tag_5\n      0x04\n      dup1\n      calldatasize\n      sub\n      dup2\n      add\n      swap1\n      tag_6\n      swap2\n      swap1\n      tag_7\n      jump\t// in\n    tag_6:\n      tag_8\n      jump\t// in\n    tag_5:\n      stop\n        /* \"A/AccountHarvesting/AccountHarvesting.sol\":1929:1961  AccountHarvestVuln public target */\n    tag_4:\n      tag_9\n      tag_10\n      jump\t// in\n    tag_9:\n      mload(0x40)\n      tag_11\n      swap2\n      swap1\n      tag_12\n      jump\t// in\n    tag_11:\n      mload(0x40)\n      dup1\n      swap2\n      sub\n      swap1\n      return\n        /* \"A/AccountHarvesting/AccountHarvesting.sol\":2060:2220  function bulkCheck(string[] calldata names) external {... */\n    tag_8:\n        /* \"A/AccountHarvesting/AccountHarvesting.sol\":2128:2134  uint i */\n      0x00\n        /* \"A/AccountHarvesting/AccountHarvesting.sol\":2123:2214  for (uint i = 0; i < names.length; i++) {... */\n    tag_14:\n        /* \"A/AccountHarvesting/AccountHarvesting.sol\":2144:2149  names */\n      dup3\n      dup3\n        /* \"A/AccountHarvesting/AccountHarvesting.sol\":2144:2156  names.length */\n      swap1\n      pop\n        /* \"A/AccountHarvesting/AccountHarvesting.sol\":2140:2141  i */\n      dup2\n        /* \"A/AccountHarvesting/AccountHarvesting.sol\":2140:2156  i < names.length */\n      lt\n        /* \"A/AccountHarvesting/AccountHarvesting.sol\":2123:2214  for (uint i = 0; i < names.length; i++) {... */\n      iszero\n      tag_15\n      jumpi\n        /* \"A/AccountHarvesting/AccountHarvesting.sol\":2177:2183  target */\n      0x00\n      dup1\n      sload\n      swap1\n      0x0100\n      exp\n      swap1\n      div\n      0xffffffffffffffffffffffffffffffffffffffff\n      and\n        /* \"A/AccountHarvesting/AccountHarvesting.sol\":2177:2193  target.checkUser */\n      0xffffffffffffffffffffffffffffffffffffffff\n      and\n      0x1eb41b71\n        /* \"A/AccountHarvesting/AccountHarvesting.sol\":2194:2199  names */\n      dup5\n      dup5\n        /* \"A/AccountHarvesting/AccountHarvesting.sol\":2200:2201  i */\n      dup5\n        /* \"A/AccountHarvesting/AccountHarvesting.sol\":2194:2202  names[i] */\n      dup2\n      dup2\n      lt\n      tag_17\n      jumpi\n      tag_18\n      tag_19\n      jump\t// in\n    tag_18:\n    tag_17:\n      swap1\n      pop\n      0x20\n      mul\n      dup2\n      add\n      swap1\n      tag_20\n      swap2\n      swap1\n      tag_21\n      jump\t// in\n    tag_20:\n        /* \"A/AccountHarvesting/AccountHarvesting.sol\":2177:2203  target.checkUser(names[i]) */\n      mload(0x40)\n      dup4\n      0xffffffff\n      and\n      0xe0\n      shl\n      dup2\n      mstore\n      0x04\n      add\n      tag_22\n      swap3\n      swap2\n      swap1\n      tag_23\n      jump\t// in\n    tag_22:\n      0x00\n      mload(0x40)\n      dup1\n      dup4\n      sub\n      dup2\n      0x00\n      dup8\n      dup1\n      extcodesize\n      iszero\n      dup1\n      iszero\n      tag_24\n      jumpi\n      0x00\n      dup1\n      revert\n    tag_24:\n      pop\n      gas\n      call\n      iszero\n      dup1\n      iszero\n      tag_26\n      jumpi\n      returndatasize\n      0x00\n      dup1\n      returndatacopy\n      revert(0x00, returndatasize)\n    tag_26:\n      pop\n      pop\n      pop\n      pop\n        /* \"A/AccountHarvesting/AccountHarvesting.sol\":2158:2161  i++ */\n      dup1\n      dup1\n      0x01\n      add\n      swap2\n      pop\n      pop\n        /* \"A/AccountHarvesting/AccountHarvesting.sol\":2123:2214  for (uint i = 0; i < names.length; i++) {... */\n      jump(tag_14)\n    tag_15:\n      pop\n        /* \"A/AccountHarvesting/AccountHarvesting.sol\":2060:2220  function bulkCheck(string[] calldata names) external {... */\n      pop\n      pop\n      jump\t// out\n        /* \"A/AccountHarvesting/AccountHarvesting.sol\":1929:1961  AccountHarvestVuln public target */\n    tag_10:\n      0x00\n      dup1\n      sload\n      swap1\n      0x0100\n      exp\n      swap1\n      div\n      0xffffffffffffffffffffffffffffffffffffffff\n      and\n      dup2\n      jump\t// out\n        /* \"#utility.yul\":88:205   */\n    tag_28:\n        /* \"#utility.yul\":197:198   */\n      0x00\n        /* \"#utility.yul\":194:195   */\n      dup1\n        /* \"#utility.yul\":187:199   */\n      revert\n        /* \"#utility.yul\":211:328   */\n    tag_29:\n        /* \"#utility.yul\":320:321   */\n      0x00\n        /* \"#utility.yul\":317:318   */\n      dup1\n        /* \"#utility.yul\":310:322   */\n      revert\n        /* \"#utility.yul\":334:451   */\n    tag_30:\n        /* \"#utility.yul\":443:444   */\n      0x00\n        /* \"#utility.yul\":440:441   */\n      dup1\n        /* \"#utility.yul\":433:445   */\n      revert\n        /* \"#utility.yul\":457:574   */\n    tag_31:\n        /* \"#utility.yul\":566:567   */\n      0x00\n        /* \"#utility.yul\":563:564   */\n      dup1\n        /* \"#utility.yul\":556:568   */\n      revert\n        /* \"#utility.yul\":580:697   */\n    tag_32:\n        /* \"#utility.yul\":689:690   */\n      0x00\n        /* \"#utility.yul\":686:687   */\n      dup1\n        /* \"#utility.yul\":679:691   */\n      revert\n        /* \"#utility.yul\":719:1299   */\n    tag_33:\n        /* \"#utility.yul\":804:812   */\n      0x00\n        /* \"#utility.yul\":814:820   */\n      dup1\n        /* \"#utility.yul\":864:867   */\n      dup4\n        /* \"#utility.yul\":857:861   */\n      0x1f\n        /* \"#utility.yul\":849:855   */\n      dup5\n        /* \"#utility.yul\":845:862   */\n      add\n        /* \"#utility.yul\":841:868   */\n      slt\n        /* \"#utility.yul\":831:953   */\n      tag_55\n      jumpi\n        /* \"#utility.yul\":872:951   */\n      tag_56\n      tag_30\n      jump\t// in\n    tag_56:\n        /* \"#utility.yul\":831:953   */\n    tag_55:\n        /* \"#utility.yul\":985:991   */\n      dup3\n        /* \"#utility.yul\":972:992   */\n      calldataload\n        /* \"#utility.yul\":962:992   */\n      swap1\n      pop\n        /* \"#utility.yul\":1015:1033   */\n      0xffffffffffffffff\n        /* \"#utility.yul\":1007:1013   */\n      dup2\n        /* \"#utility.yul\":1004:1034   */\n      gt\n        /* \"#utility.yul\":1001:1118   */\n      iszero\n      tag_57\n      jumpi\n        /* \"#utility.yul\":1037:1116   */\n      tag_58\n      tag_31\n      jump\t// in\n    tag_58:\n        /* \"#utility.yul\":1001:1118   */\n    tag_57:\n        /* \"#utility.yul\":1151:1155   */\n      0x20\n        /* \"#utility.yul\":1143:1149   */\n      dup4\n        /* \"#utility.yul\":1139:1156   */\n      add\n        /* \"#utility.yul\":1127:1156   */\n      swap2\n      pop\n        /* \"#utility.yul\":1205:1208   */\n      dup4\n        /* \"#utility.yul\":1197:1201   */\n      0x20\n        /* \"#utility.yul\":1189:1195   */\n      dup3\n        /* \"#utility.yul\":1185:1202   */\n      mul\n        /* \"#utility.yul\":1175:1183   */\n      dup4\n        /* \"#utility.yul\":1171:1203   */\n      add\n        /* \"#utility.yul\":1168:1209   */\n      gt\n        /* \"#utility.yul\":1165:1293   */\n      iszero\n      tag_59\n      jumpi\n        /* \"#utility.yul\":1212:1291   */\n      tag_60\n      tag_32\n      jump\t// in\n    tag_60:\n        /* \"#utility.yul\":1165:1293   */\n    tag_59:\n        /* \"#utility.yul\":719:1299   */\n      swap3\n      pop\n      swap3\n      swap1\n      pop\n      jump\t// out\n        /* \"#utility.yul\":1305:1888   */\n    tag_7:\n        /* \"#utility.yul\":1403:1409   */\n      0x00\n        /* \"#utility.yul\":1411:1417   */\n      dup1\n        /* \"#utility.yul\":1460:1462   */\n      0x20\n        /* \"#utility.yul\":1448:1457   */\n      dup4\n        /* \"#utility.yul\":1439:1446   */\n      dup6\n        /* \"#utility.yul\":1435:1458   */\n      sub\n        /* \"#utility.yul\":1431:1463   */\n      slt\n        /* \"#utility.yul\":1428:1547   */\n      iszero\n      tag_62\n      jumpi\n        /* \"#utility.yul\":1466:1545   */\n      tag_63\n      tag_28\n      jump\t// in\n    tag_63:\n        /* \"#utility.yul\":1428:1547   */\n    tag_62:\n        /* \"#utility.yul\":1614:1615   */\n      0x00\n        /* \"#utility.yul\":1603:1612   */\n      dup4\n        /* \"#utility.yul\":1599:1616   */\n      add\n        /* \"#utility.yul\":1586:1617   */\n      calldataload\n        /* \"#utility.yul\":1644:1662   */\n      0xffffffffffffffff\n        /* \"#utility.yul\":1636:1642   */\n      dup2\n        /* \"#utility.yul\":1633:1663   */\n      gt\n        /* \"#utility.yul\":1630:1747   */\n      iszero\n      tag_64\n      jumpi\n        /* \"#utility.yul\":1666:1745   */\n      tag_65\n      tag_29\n      jump\t// in\n    tag_65:\n        /* \"#utility.yul\":1630:1747   */\n    tag_64:\n        /* \"#utility.yul\":1779:1871   */\n      tag_66\n        /* \"#utility.yul\":1863:1870   */\n      dup6\n        /* \"#utility.yul\":1854:1860   */\n      dup3\n        /* \"#utility.yul\":1843:1852   */\n      dup7\n        /* \"#utility.yul\":1839:1861   */\n      add\n        /* \"#utility.yul\":1779:1871   */\n      tag_33\n      jump\t// in\n    tag_66:\n        /* \"#utility.yul\":1761:1871   */\n      swap3\n      pop\n      swap3\n      pop\n        /* \"#utility.yul\":1557:1881   */\n      pop\n        /* \"#utility.yul\":1305:1888   */\n      swap3\n      pop\n      swap3\n      swap1\n      pop\n      jump\t// out\n        /* \"#utility.yul\":1894:2020   */\n    tag_34:\n        /* \"#utility.yul\":1931:1938   */\n      0x00\n        /* \"#utility.yul\":1971:2013   */\n      0xffffffffffffffffffffffffffffffffffffffff\n        /* \"#utility.yul\":1964:1969   */\n      dup3\n        /* \"#utility.yul\":1960:2014   */\n      and\n        /* \"#utility.yul\":1949:2014   */\n      swap1\n      pop\n        /* \"#utility.yul\":1894:2020   */\n      swap2\n      swap1\n      pop\n      jump\t// out\n        /* \"#utility.yul\":2026:2086   */\n    tag_35:\n        /* \"#utility.yul\":2054:2057   */\n      0x00\n        /* \"#utility.yul\":2075:2080   */\n      dup2\n        /* \"#utility.yul\":2068:2080   */\n      swap1\n      pop\n        /* \"#utility.yul\":2026:2086   */\n      swap2\n      swap1\n      pop\n      jump\t// out\n        /* \"#utility.yul\":2092:2234   */\n    tag_36:\n        /* \"#utility.yul\":2142:2151   */\n      0x00\n        /* \"#utility.yul\":2175:2228   */\n      tag_70\n        /* \"#utility.yul\":2193:2227   */\n      tag_71\n        /* \"#utility.yul\":2202:2226   */\n      tag_72\n        /* \"#utility.yul\":2220:2225   */\n      dup5\n        /* \"#utility.yul\":2202:2226   */\n      tag_34\n      jump\t// in\n    tag_72:\n        /* \"#utility.yul\":2193:2227   */\n      tag_35\n      jump\t// in\n    tag_71:\n        /* \"#utility.yul\":2175:2228   */\n      tag_34\n      jump\t// in\n    tag_70:\n        /* \"#utility.yul\":2162:2228   */\n      swap1\n      pop\n        /* \"#utility.yul\":2092:2234   */\n      swap2\n      swap1\n      pop\n      jump\t// out\n        /* \"#utility.yul\":2240:2366   */\n    tag_37:\n        /* \"#utility.yul\":2290:2299   */\n      0x00\n        /* \"#utility.yul\":2323:2360   */\n      tag_74\n        /* \"#utility.yul\":2354:2359   */\n      dup3\n        /* \"#utility.yul\":2323:2360   */\n      tag_36\n      jump\t// in\n    tag_74:\n        /* \"#utility.yul\":2310:2360   */\n      swap1\n      pop\n        /* \"#utility.yul\":2240:2366   */\n      swap2\n      swap1\n      pop\n      jump\t// out\n        /* \"#utility.yul\":2372:2523   */\n    tag_38:\n        /* \"#utility.yul\":2447:2456   */\n      0x00\n        /* \"#utility.yul\":2480:2517   */\n      tag_76\n        /* \"#utility.yul\":2511:2516   */\n      dup3\n        /* \"#utility.yul\":2480:2517   */\n      tag_37\n      jump\t// in\n    tag_76:\n        /* \"#utility.yul\":2467:2517   */\n      swap1\n      pop\n        /* \"#utility.yul\":2372:2523   */\n      swap2\n      swap1\n      pop\n      jump\t// out\n        /* \"#utility.yul\":2529:2710   */\n    tag_39:\n        /* \"#utility.yul\":2641:2703   */\n      tag_78\n        /* \"#utility.yul\":2697:2702   */\n      dup2\n        /* \"#utility.yul\":2641:2703   */\n      tag_38\n      jump\t// in\n    tag_78:\n        /* \"#utility.yul\":2636:2639   */\n      dup3\n        /* \"#utility.yul\":2629:2704   */\n      mstore\n        /* \"#utility.yul\":2529:2710   */\n      pop\n      pop\n      jump\t// out\n        /* \"#utility.yul\":2716:2988   */\n    tag_12:\n        /* \"#utility.yul\":2834:2838   */\n      0x00\n        /* \"#utility.yul\":2872:2874   */\n      0x20\n        /* \"#utility.yul\":2861:2870   */\n      dup3\n        /* \"#utility.yul\":2857:2875   */\n      add\n        /* \"#utility.yul\":2849:2875   */\n      swap1\n      pop\n        /* \"#utility.yul\":2885:2981   */\n      tag_80\n        /* \"#utility.yul\":2978:2979   */\n      0x00\n        /* \"#utility.yul\":2967:2976   */\n      dup4\n        /* \"#utility.yul\":2963:2980   */\n      add\n        /* \"#utility.yul\":2954:2960   */\n      dup5\n        /* \"#utility.yul\":2885:2981   */\n      tag_39\n      jump\t// in\n    tag_80:\n        /* \"#utility.yul\":2716:2988   */\n      swap3\n      swap2\n      pop\n      pop\n      jump\t// out\n        /* \"#utility.yul\":2994:3174   */\n    tag_19:\n        /* \"#utility.yul\":3042:3119   */\n      0x4e487b7100000000000000000000000000000000000000000000000000000000\n        /* \"#utility.yul\":3039:3040   */\n      0x00\n        /* \"#utility.yul\":3032:3120   */\n      mstore\n        /* \"#utility.yul\":3139:3143   */\n      0x32\n        /* \"#utility.yul\":3136:3137   */\n      0x04\n        /* \"#utility.yul\":3129:3144   */\n      mstore\n        /* \"#utility.yul\":3163:3167   */\n      0x24\n        /* \"#utility.yul\":3160:3161   */\n      0x00\n        /* \"#utility.yul\":3153:3168   */\n      revert\n        /* \"#utility.yul\":3180:3297   */\n    tag_40:\n        /* \"#utility.yul\":3289:3290   */\n      0x00\n        /* \"#utility.yul\":3286:3287   */\n      dup1\n        /* \"#utility.yul\":3279:3291   */\n      revert\n        /* \"#utility.yul\":3303:3420   */\n    tag_41:\n        /* \"#utility.yul\":3412:3413   */\n      0x00\n        /* \"#utility.yul\":3409:3410   */\n      dup1\n        /* \"#utility.yul\":3402:3414   */\n      revert\n        /* \"#utility.yul\":3426:3543   */\n    tag_42:\n        /* \"#utility.yul\":3535:3536   */\n      0x00\n        /* \"#utility.yul\":3532:3533   */\n      dup1\n        /* \"#utility.yul\":3525:3537   */\n      revert\n        /* \"#utility.yul\":3549:4274   */\n    tag_21:\n        /* \"#utility.yul\":3627:3631   */\n      0x00\n        /* \"#utility.yul\":3633:3639   */\n      dup1\n        /* \"#utility.yul\":3689:3700   */\n      dup4\n        /* \"#utility.yul\":3676:3701   */\n      calldataload\n        /* \"#utility.yul\":3789:3790   */\n      0x01\n        /* \"#utility.yul\":3783:3787   */\n      0x20\n        /* \"#utility.yul\":3779:3791   */\n      sub\n        /* \"#utility.yul\":3768:3776   */\n      dup5\n        /* \"#utility.yul\":3752:3766   */\n      calldatasize\n        /* \"#utility.yul\":3748:3777   */\n      sub\n        /* \"#utility.yul\":3744:3792   */\n      sub\n        /* \"#utility.yul\":3724:3742   */\n      dup2\n        /* \"#utility.yul\":3720:3793   */\n      slt\n        /* \"#utility.yul\":3710:3878   */\n      tag_86\n      jumpi\n        /* \"#utility.yul\":3797:3876   */\n      tag_87\n      tag_40\n      jump\t// in\n    tag_87:\n        /* \"#utility.yul\":3710:3878   */\n    tag_86:\n        /* \"#utility.yul\":3909:3927   */\n      dup1\n        /* \"#utility.yul\":3899:3907   */\n      dup5\n        /* \"#utility.yul\":3895:3928   */\n      add\n        /* \"#utility.yul\":3887:3928   */\n      swap3\n      pop\n        /* \"#utility.yul\":3961:3965   */\n      dup3\n        /* \"#utility.yul\":3948:3966   */\n      calldataload\n        /* \"#utility.yul\":3938:3966   */\n      swap2\n      pop\n        /* \"#utility.yul\":3989:4007   */\n      0xffffffffffffffff\n        /* \"#utility.yul\":3981:3987   */\n      dup3\n        /* \"#utility.yul\":3978:4008   */\n      gt\n        /* \"#utility.yul\":3975:4092   */\n      iszero\n      tag_88\n      jumpi\n        /* \"#utility.yul\":4011:4090   */\n      tag_89\n      tag_41\n      jump\t// in\n    tag_89:\n        /* \"#utility.yul\":3975:4092   */\n    tag_88:\n        /* \"#utility.yul\":4119:4121   */\n      0x20\n        /* \"#utility.yul\":4113:4117   */\n      dup4\n        /* \"#utility.yul\":4109:4122   */\n      add\n        /* \"#utility.yul\":4101:4122   */\n      swap3\n      pop\n        /* \"#utility.yul\":4176:4180   */\n      0x01\n        /* \"#utility.yul\":4168:4174   */\n      dup3\n        /* \"#utility.yul\":4164:4181   */\n      mul\n        /* \"#utility.yul\":4148:4162   */\n      calldatasize\n        /* \"#utility.yul\":4144:4182   */\n      sub\n        /* \"#utility.yul\":4138:4142   */\n      dup4\n        /* \"#utility.yul\":4134:4183   */\n      sgt\n        /* \"#utility.yul\":4131:4267   */\n      iszero\n      tag_90\n      jumpi\n        /* \"#utility.yul\":4186:4265   */\n      tag_91\n      tag_42\n      jump\t// in\n    tag_91:\n        /* \"#utility.yul\":4131:4267   */\n    tag_90:\n        /* \"#utility.yul\":3640:4274   */\n      pop\n        /* \"#utility.yul\":3549:4274   */\n      swap3\n      pop\n      swap3\n      swap1\n      pop\n      jump\t// out\n        /* \"#utility.yul\":4280:4449   */\n    tag_43:\n        /* \"#utility.yul\":4364:4375   */\n      0x00\n        /* \"#utility.yul\":4398:4404   */\n      dup3\n        /* \"#utility.yul\":4393:4396   */\n      dup3\n        /* \"#utility.yul\":4386:4405   */\n      mstore\n        /* \"#utility.yul\":4438:4442   */\n      0x20\n        /* \"#utility.yul\":4433:4436   */\n      dup3\n        /* \"#utility.yul\":4429:4443   */\n      add\n        /* \"#utility.yul\":4414:4443   */\n      swap1\n      pop\n        /* \"#utility.yul\":4280:4449   */\n      swap3\n      swap2\n      pop\n      pop\n      jump\t// out\n        /* \"#utility.yul\":4455:4603   */\n    tag_44:\n        /* \"#utility.yul\":4553:4559   */\n      dup3\n        /* \"#utility.yul\":4548:4551   */\n      dup2\n        /* \"#utility.yul\":4543:4546   */\n      dup4\n        /* \"#utility.yul\":4530:4560   */\n      calldatacopy\n        /* \"#utility.yul\":4594:4595   */\n      0x00\n        /* \"#utility.yul\":4585:4591   */\n      dup4\n        /* \"#utility.yul\":4580:4583   */\n      dup4\n        /* \"#utility.yul\":4576:4592   */\n      add\n        /* \"#utility.yul\":4569:4596   */\n      mstore\n        /* \"#utility.yul\":4455:4603   */\n      pop\n      pop\n      pop\n      jump\t// out\n        /* \"#utility.yul\":4609:4711   */\n    tag_45:\n        /* \"#utility.yul\":4650:4656   */\n      0x00\n        /* \"#utility.yul\":4701:4703   */\n      0x1f\n        /* \"#utility.yul\":4697:4704   */\n      not\n        /* \"#utility.yul\":4692:4694   */\n      0x1f\n        /* \"#utility.yul\":4685:4690   */\n      dup4\n        /* \"#utility.yul\":4681:4695   */\n      add\n        /* \"#utility.yul\":4677:4705   */\n      and\n        /* \"#utility.yul\":4667:4705   */\n      swap1\n      pop\n        /* \"#utility.yul\":4609:4711   */\n      swap2\n      swap1\n      pop\n      jump\t// out\n        /* \"#utility.yul\":4741:5058   */\n    tag_46:\n        /* \"#utility.yul\":4839:4842   */\n      0x00\n        /* \"#utility.yul\":4860:4931   */\n      tag_96\n        /* \"#utility.yul\":4924:4930   */\n      dup4\n        /* \"#utility.yul\":4919:4922   */\n      dup6\n        /* \"#utility.yul\":4860:4931   */\n      tag_43\n      jump\t// in\n    tag_96:\n        /* \"#utility.yul\":4853:4931   */\n      swap4\n      pop\n        /* \"#utility.yul\":4941:4997   */\n      tag_97\n        /* \"#utility.yul\":4990:4996   */\n      dup4\n        /* \"#utility.yul\":4985:4988   */\n      dup6\n        /* \"#utility.yul\":4978:4983   */\n      dup5\n        /* \"#utility.yul\":4941:4997   */\n      tag_44\n      jump\t// in\n    tag_97:\n        /* \"#utility.yul\":5022:5051   */\n      tag_98\n        /* \"#utility.yul\":5044:5050   */\n      dup4\n        /* \"#utility.yul\":5022:5051   */\n      tag_45\n      jump\t// in\n    tag_98:\n        /* \"#utility.yul\":5017:5020   */\n      dup5\n        /* \"#utility.yul\":5013:5052   */\n      add\n        /* \"#utility.yul\":5006:5052   */\n      swap1\n      pop\n        /* \"#utility.yul\":4741:5058   */\n      swap4\n      swap3\n      pop\n      pop\n      pop\n      jump\t// out\n        /* \"#utility.yul\":5064:5397   */\n    tag_23:\n        /* \"#utility.yul\":5187:5191   */\n      0x00\n        /* \"#utility.yul\":5225:5227   */\n      0x20\n        /* \"#utility.yul\":5214:5223   */\n      dup3\n        /* \"#utility.yul\":5210:5228   */\n      add\n        /* \"#utility.yul\":5202:5228   */\n      swap1\n      pop\n        /* \"#utility.yul\":5274:5283   */\n      dup2\n        /* \"#utility.yul\":5268:5272   */\n      dup2\n        /* \"#utility.yul\":5264:5284   */\n      sub\n        /* \"#utility.yul\":5260:5261   */\n      0x00\n        /* \"#utility.yul\":5249:5258   */\n      dup4\n        /* \"#utility.yul\":5245:5262   */\n      add\n        /* \"#utility.yul\":5238:5285   */\n      mstore\n        /* \"#utility.yul\":5302:5390   */\n      tag_100\n        /* \"#utility.yul\":5385:5389   */\n      dup2\n        /* \"#utility.yul\":5376:5382   */\n      dup5\n        /* \"#utility.yul\":5368:5374   */\n      dup7\n        /* \"#utility.yul\":5302:5390   */\n      tag_46\n      jump\t// in\n    tag_100:\n        /* \"#utility.yul\":5294:5390   */\n      swap1\n      pop\n        /* \"#utility.yul\":5064:5397   */\n      swap4\n      swap3\n      pop\n      pop\n      pop\n      jump\t// out\n\n    auxdata: 0xa26469706673582212204dbb0b2979b9694d3082bbf24d526bd0b568893e22af810c3cbb3d1d94e04efe64736f6c634300081a0033\n}\n",
				"bytecode": {
					"linkReferences": {},
					"object": "608060405234801561000f575f80fd5b5060405161050f38038061050f833981810160405281019061003191906100e5565b805f806101000a81548173ffffffffffffffffffffffffffffffffffffffff021916908373ffffffffffffffffffffffffffffffffffffffff16021790555050610110565b5f80fd5b5f73ffffffffffffffffffffffffffffffffffffffff82169050919050565b5f6100a38261007a565b9050919050565b5f6100b482610099565b9050919050565b6100c4816100aa565b81146100ce575f80fd5b50565b5f815190506100df816100bb565b92915050565b5f602082840312156100fa576100f9610076565b5b5f610107848285016100d1565b91505092915050565b6103f28061011d5f395ff3fe608060405234801561000f575f80fd5b5060043610610034575f3560e01c8063c7496af714610038578063d4b8399214610054575b5f80fd5b610052600480360381019061004d91906101c7565b610072565b005b61005c61013b565b604051610069919061028c565b60405180910390f35b5f5b82829050811015610136575f8054906101000a900473ffffffffffffffffffffffffffffffffffffffff1673ffffffffffffffffffffffffffffffffffffffff16631eb41b718484848181106100cd576100cc6102a5565b5b90506020028101906100df91906102de565b6040518363ffffffff1660e01b81526004016100fc92919061039a565b5f604051808303815f87803b158015610113575f80fd5b505af1158015610125573d5f803e3d5ffd5b505050508080600101915050610074565b505050565b5f8054906101000a900473ffffffffffffffffffffffffffffffffffffffff1681565b5f80fd5b5f80fd5b5f80fd5b5f80fd5b5f80fd5b5f8083601f84011261018757610186610166565b5b8235905067ffffffffffffffff8111156101a4576101a361016a565b5b6020830191508360208202830111156101c0576101bf61016e565b5b9250929050565b5f80602083850312156101dd576101dc61015e565b5b5f83013567ffffffffffffffff8111156101fa576101f9610162565b5b61020685828601610172565b92509250509250929050565b5f73ffffffffffffffffffffffffffffffffffffffff82169050919050565b5f819050919050565b5f61025461024f61024a84610212565b610231565b610212565b9050919050565b5f6102658261023a565b9050919050565b5f6102768261025b565b9050919050565b6102868161026c565b82525050565b5f60208201905061029f5f83018461027d565b92915050565b7f4e487b71000000000000000000000000000000000000000000000000000000005f52603260045260245ffd5b5f80fd5b5f80fd5b5f80fd5b5f80833560016020038436030381126102fa576102f96102d2565b5b80840192508235915067ffffffffffffffff82111561031c5761031b6102d6565b5b602083019250600182023603831315610338576103376102da565b5b509250929050565b5f82825260208201905092915050565b828183375f83830152505050565b5f601f19601f8301169050919050565b5f6103798385610340565b9350610386838584610350565b61038f8361035e565b840190509392505050565b5f6020820190508181035f8301526103b381848661036e565b9050939250505056fea26469706673582212204dbb0b2979b9694d3082bbf24d526bd0b568893e22af810c3cbb3d1d94e04efe64736f6c634300081a0033",
					"opcodes": "PUSH1 0x80 PUSH1 0x40 MSTORE CALLVALUE DUP1 ISZERO PUSH2 0xF JUMPI PUSH0 DUP1 REVERT JUMPDEST POP PUSH1 0x40 MLOAD PUSH2 0x50F CODESIZE SUB DUP1 PUSH2 0x50F DUP4 CODECOPY DUP2 DUP2 ADD PUSH1 0x40 MSTORE DUP2 ADD SWAP1 PUSH2 0x31 SWAP2 SWAP1 PUSH2 0xE5 JUMP JUMPDEST DUP1 PUSH0 DUP1 PUSH2 0x100 EXP DUP2 SLOAD DUP2 PUSH20 0xFFFFFFFFFFFFFFFFFFFFFFFFFFFFFFFFFFFFFFFF MUL NOT AND SWAP1 DUP4 PUSH20 0xFFFFFFFFFFFFFFFFFFFFFFFFFFFFFFFFFFFFFFFF AND MUL OR SWAP1 SSTORE POP POP PUSH2 0x110 JUMP JUMPDEST PUSH0 DUP1 REVERT JUMPDEST PUSH0 PUSH20 0xFFFFFFFFFFFFFFFFFFFFFFFFFFFFFFFFFFFFFFFF DUP3 AND SWAP1 POP SWAP2 SWAP1 POP JUMP JUMPDEST PUSH0 PUSH2 0xA3 DUP3 PUSH2 0x7A JUMP JUMPDEST SWAP1 POP SWAP2 SWAP1 POP JUMP JUMPDEST PUSH0 PUSH2 0xB4 DUP3 PUSH2 0x99 JUMP JUMPDEST SWAP1 POP SWAP2 SWAP1 POP JUMP JUMPDEST PUSH2 0xC4 DUP2 PUSH2 0xAA JUMP JUMPDEST DUP2 EQ PUSH2 0xCE JUMPI PUSH0 DUP1 REVERT JUMPDEST POP JUMP JUMPDEST PUSH0 DUP2 MLOAD SWAP1 POP PUSH2 0xDF DUP2 PUSH2 0xBB JUMP JUMPDEST SWAP3 SWAP2 POP POP JUMP JUMPDEST PUSH0 PUSH1 0x20 DUP3 DUP5 SUB SLT ISZERO PUSH2 0xFA JUMPI PUSH2 0xF9 PUSH2 0x76 JUMP JUMPDEST JUMPDEST PUSH0 PUSH2 0x107 DUP5 DUP3 DUP6 ADD PUSH2 0xD1 JUMP JUMPDEST SWAP2 POP POP SWAP3 SWAP2 POP POP JUMP JUMPDEST PUSH2 0x3F2 DUP1 PUSH2 0x11D PUSH0 CODECOPY PUSH0 RETURN INVALID PUSH1 0x80 PUSH1 0x40 MSTORE CALLVALUE DUP1 ISZERO PUSH2 0xF JUMPI PUSH0 DUP1 REVERT JUMPDEST POP PUSH1 0x4 CALLDATASIZE LT PUSH2 0x34 JUMPI PUSH0 CALLDATALOAD PUSH1 0xE0 SHR DUP1 PUSH4 0xC7496AF7 EQ PUSH2 0x38 JUMPI DUP1 PUSH4 0xD4B83992 EQ PUSH2 0x54 JUMPI JUMPDEST PUSH0 DUP1 REVERT JUMPDEST PUSH2 0x52 PUSH1 0x4 DUP1 CALLDATASIZE SUB DUP2 ADD SWAP1 PUSH2 0x4D SWAP2 SWAP1 PUSH2 0x1C7 JUMP JUMPDEST PUSH2 0x72 JUMP JUMPDEST STOP JUMPDEST PUSH2 0x5C PUSH2 0x13B JUMP JUMPDEST PUSH1 0x40 MLOAD PUSH2 0x69 SWAP2 SWAP1 PUSH2 0x28C JUMP JUMPDEST PUSH1 0x40 MLOAD DUP1 SWAP2 SUB SWAP1 RETURN JUMPDEST PUSH0 JUMPDEST DUP3 DUP3 SWAP1 POP DUP2 LT ISZERO PUSH2 0x136 JUMPI PUSH0 DUP1 SLOAD SWAP1 PUSH2 0x100 EXP SWAP1 DIV PUSH20 0xFFFFFFFFFFFFFFFFFFFFFFFFFFFFFFFFFFFFFFFF AND PUSH20 0xFFFFFFFFFFFFFFFFFFFFFFFFFFFFFFFFFFFFFFFF AND PUSH4 0x1EB41B71 DUP5 DUP5 DUP5 DUP2 DUP2 LT PUSH2 0xCD JUMPI PUSH2 0xCC PUSH2 0x2A5 JUMP JUMPDEST JUMPDEST SWAP1 POP PUSH1 0x20 MUL DUP2 ADD SWAP1 PUSH2 0xDF SWAP2 SWAP1 PUSH2 0x2DE JUMP JUMPDEST PUSH1 0x40 MLOAD DUP4 PUSH4 0xFFFFFFFF AND PUSH1 0xE0 SHL DUP2 MSTORE PUSH1 0x4 ADD PUSH2 0xFC SWAP3 SWAP2 SWAP1 PUSH2 0x39A JUMP JUMPDEST PUSH0 PUSH1 0x40 MLOAD DUP1 DUP4 SUB DUP2 PUSH0 DUP8 DUP1 EXTCODESIZE ISZERO DUP1 ISZERO PUSH2 0x113 JUMPI PUSH0 DUP1 REVERT JUMPDEST POP GAS CALL ISZERO DUP1 ISZERO PUSH2 0x125 JUMPI RETURNDATASIZE PUSH0 DUP1 RETURNDATACOPY RETURNDATASIZE PUSH0 REVERT JUMPDEST POP POP POP POP DUP1 DUP1 PUSH1 0x1 ADD SWAP2 POP POP PUSH2 0x74 JUMP JUMPDEST POP POP POP JUMP JUMPDEST PUSH0 DUP1 SLOAD SWAP1 PUSH2 0x100 EXP SWAP1 DIV PUSH20 0xFFFFFFFFFFFFFFFFFFFFFFFFFFFFFFFFFFFFFFFF AND DUP2 JUMP JUMPDEST PUSH0 DUP1 REVERT JUMPDEST PUSH0 DUP1 REVERT JUMPDEST PUSH0 DUP1 REVERT JUMPDEST PUSH0 DUP1 REVERT JUMPDEST PUSH0 DUP1 REVERT JUMPDEST PUSH0 DUP1 DUP4 PUSH1 0x1F DUP5 ADD SLT PUSH2 0x187 JUMPI PUSH2 0x186 PUSH2 0x166 JUMP JUMPDEST JUMPDEST DUP3 CALLDATALOAD SWAP1 POP PUSH8 0xFFFFFFFFFFFFFFFF DUP2 GT ISZERO PUSH2 0x1A4 JUMPI PUSH2 0x1A3 PUSH2 0x16A JUMP JUMPDEST JUMPDEST PUSH1 0x20 DUP4 ADD SWAP2 POP DUP4 PUSH1 0x20 DUP3 MUL DUP4 ADD GT ISZERO PUSH2 0x1C0 JUMPI PUSH2 0x1BF PUSH2 0x16E JUMP JUMPDEST JUMPDEST SWAP3 POP SWAP3 SWAP1 POP JUMP JUMPDEST PUSH0 DUP1 PUSH1 0x20 DUP4 DUP6 SUB SLT ISZERO PUSH2 0x1DD JUMPI PUSH2 0x1DC PUSH2 0x15E JUMP JUMPDEST JUMPDEST PUSH0 DUP4 ADD CALLDATALOAD PUSH8 0xFFFFFFFFFFFFFFFF DUP2 GT ISZERO PUSH2 0x1FA JUMPI PUSH2 0x1F9 PUSH2 0x162 JUMP JUMPDEST JUMPDEST PUSH2 0x206 DUP6 DUP3 DUP7 ADD PUSH2 0x172 JUMP JUMPDEST SWAP3 POP SWAP3 POP POP SWAP3 POP SWAP3 SWAP1 POP JUMP JUMPDEST PUSH0 PUSH20 0xFFFFFFFFFFFFFFFFFFFFFFFFFFFFFFFFFFFFFFFF DUP3 AND SWAP1 POP SWAP2 SWAP1 POP JUMP JUMPDEST PUSH0 DUP2 SWAP1 POP SWAP2 SWAP1 POP JUMP JUMPDEST PUSH0 PUSH2 0x254 PUSH2 0x24F PUSH2 0x24A DUP5 PUSH2 0x212 JUMP JUMPDEST PUSH2 0x231 JUMP JUMPDEST PUSH2 0x212 JUMP JUMPDEST SWAP1 POP SWAP2 SWAP1 POP JUMP JUMPDEST PUSH0 PUSH2 0x265 DUP3 PUSH2 0x23A JUMP JUMPDEST SWAP1 POP SWAP2 SWAP1 POP JUMP JUMPDEST PUSH0 PUSH2 0x276 DUP3 PUSH2 0x25B JUMP JUMPDEST SWAP1 POP SWAP2 SWAP1 POP JUMP JUMPDEST PUSH2 0x286 DUP2 PUSH2 0x26C JUMP JUMPDEST DUP3 MSTORE POP POP JUMP JUMPDEST PUSH0 PUSH1 0x20 DUP3 ADD SWAP1 POP PUSH2 0x29F PUSH0 DUP4 ADD DUP5 PUSH2 0x27D JUMP JUMPDEST SWAP3 SWAP2 POP POP JUMP JUMPDEST PUSH32 0x4E487B7100000000000000000000000000000000000000000000000000000000 PUSH0 MSTORE PUSH1 0x32 PUSH1 0x4 MSTORE PUSH1 0x24 PUSH0 REVERT JUMPDEST PUSH0 DUP1 REVERT JUMPDEST PUSH0 DUP1 REVERT JUMPDEST PUSH0 DUP1 REVERT JUMPDEST PUSH0 DUP1 DUP4 CALLDATALOAD PUSH1 0x1 PUSH1 0x20 SUB DUP5 CALLDATASIZE SUB SUB DUP2 SLT PUSH2 0x2FA JUMPI PUSH2 0x2F9 PUSH2 0x2D2 JUMP JUMPDEST JUMPDEST DUP1 DUP5 ADD SWAP3 POP DUP3 CALLDATALOAD SWAP2 POP PUSH8 0xFFFFFFFFFFFFFFFF DUP3 GT ISZERO PUSH2 0x31C JUMPI PUSH2 0x31B PUSH2 0x2D6 JUMP JUMPDEST JUMPDEST PUSH1 0x20 DUP4 ADD SWAP3 POP PUSH1 0x1 DUP3 MUL CALLDATASIZE SUB DUP4 SGT ISZERO PUSH2 0x338 JUMPI PUSH2 0x337 PUSH2 0x2DA JUMP JUMPDEST JUMPDEST POP SWAP3 POP SWAP3 SWAP1 POP JUMP JUMPDEST PUSH0 DUP3 DUP3 MSTORE PUSH1 0x20 DUP3 ADD SWAP1 POP SWAP3 SWAP2 POP POP JUMP JUMPDEST DUP3 DUP2 DUP4 CALLDATACOPY PUSH0 DUP4 DUP4 ADD MSTORE POP POP POP JUMP JUMPDEST PUSH0 PUSH1 0x1F NOT PUSH1 0x1F DUP4 ADD AND SWAP1 POP SWAP2 SWAP1 POP JUMP JUMPDEST PUSH0 PUSH2 0x379 DUP4 DUP6 PUSH2 0x340 JUMP JUMPDEST SWAP4 POP PUSH2 0x386 DUP4 DUP6 DUP5 PUSH2 0x350 JUMP JUMPDEST PUSH2 0x38F DUP4 PUSH2 0x35E JUMP JUMPDEST DUP5 ADD SWAP1 POP SWAP4 SWAP3 POP POP POP JUMP JUMPDEST PUSH0 PUSH1 0x20 DUP3 ADD SWAP1 POP DUP2 DUP2 SUB PUSH0 DUP4 ADD MSTORE PUSH2 0x3B3 DUP2 DUP5 DUP7 PUSH2 0x36E JUMP JUMPDEST SWAP1 POP SWAP4 SWAP3 POP POP POP JUMP INVALID LOG2 PUSH5 0x6970667358 0x22 SLT KECCAK256 0x4D 0xBB SIGNEXTEND 0x29 PUSH26 0xB9694D3082BBF24D526BD0B568893E22AF810C3CBB3D1D94E04E INVALID PUSH5 0x736F6C6343 STOP ADDMOD BYTE STOP CALLER "
				},
				"gasEstimates": {
					"creation": {
						"codeDepositCost": "202000",
						"executionCost": "infinite",
						"totalCost": "infinite"
					},
					"external": {
						"bulkCheck(string[])": "infinite",
						"target()": "infinite"
					}
				},
				"methodIdentifiers": {
					"bulkCheck(string[])": "c7496af7",
					"target()": "d4b83992"
				}
			},
			"storageLayout": {
				"storage": [
					{
						"astId": 90,
						"contract": "A/AccountHarvesting/AccountHarvesting.sol:Attack_AccountHarvest",
						"label": "target",
						"offset": 0,
						"slot": "0",
						"type": "t_contract(AccountHarvestVuln)87"
					}
				],
				"types": {
					"t_contract(AccountHarvestVuln)87": {
						"encoding": "inplace",
						"label": "contract AccountHarvestVuln",
						"numberOfBytes": "20"
					}
				}
			},
			"userdoc": {
				"kind": "user",
				"methods": {
					"bulkCheck(string[])": {
						"notice": "bulk‐check many usernames"
					}
				},
				"version": 1
			}
		}
	}
}