{
	"A/AccountHarvesting/AccountHarvesting.sol": {
		"AccountHarvestSafeRateLimit": {
			"abi": [
				{
					"inputs": [
						{
							"internalType": "string[]",
							"name": "initialUsers",
							"type": "string[]"
						}
					],
					"stateMutability": "nonpayable",
					"type": "constructor"
				},
				{
					"inputs": [],
					"name": "AH__TooManyRequests",
					"type": "error"
				},
				{
					"anonymous": false,
					"inputs": [
						{
							"indexed": true,
							"internalType": "address",
							"name": "by",
							"type": "address"
						},
						{
							"indexed": false,
							"internalType": "string",
							"name": "username",
							"type": "string"
						},
						{
							"indexed": false,
							"internalType": "enum AccountHarvestingDefenseType",
							"name": "defense",
							"type": "uint8"
						}
					],
					"name": "HarvestChecked",
					"type": "event"
				},
				{
					"inputs": [],
					"name": "MAX_PER_BLOCK",
					"outputs": [
						{
							"internalType": "uint256",
							"name": "",
							"type": "uint256"
						}
					],
					"stateMutability": "view",
					"type": "function"
				},
				{
					"inputs": [
						{
							"internalType": "string",
							"name": "username",
							"type": "string"
						}
					],
					"name": "checkUser",
					"outputs": [],
					"stateMutability": "nonpayable",
					"type": "function"
				},
				{
					"inputs": [
						{
							"internalType": "address",
							"name": "",
							"type": "address"
						}
					],
					"name": "countInBlock",
					"outputs": [
						{
							"internalType": "uint256",
							"name": "",
							"type": "uint256"
						}
					],
					"stateMutability": "view",
					"type": "function"
				},
				{
					"inputs": [
						{
							"internalType": "address",
							"name": "",
							"type": "address"
						}
					],
					"name": "lastBlock",
					"outputs": [
						{
							"internalType": "uint256",
							"name": "",
							"type": "uint256"
						}
					],
					"stateMutability": "view",
					"type": "function"
				},
				{
					"inputs": [
						{
							"internalType": "string",
							"name": "",
							"type": "string"
						}
					],
					"name": "userExists",
					"outputs": [
						{
							"internalType": "bool",
							"name": "",
							"type": "bool"
						}
					],
					"stateMutability": "view",
					"type": "function"
				}
			],
			"devdoc": {
				"kind": "dev",
				"methods": {},
				"version": 1
			},
			"evm": {
				"assembly": "    /* \"A/AccountHarvesting/AccountHarvesting.sol\":2472:3493  contract AccountHarvestSafeRateLimit {... */\n  mstore(0x40, 0x80)\n    /* \"A/AccountHarvesting/AccountHarvesting.sol\":2890:3054  constructor(string[] memory initialUsers) {... */\n  callvalue\n  dup1\n  iszero\n  tag_1\n  jumpi\n  0x00\n  dup1\n  revert\ntag_1:\n  pop\n  mload(0x40)\n  sub(codesize, bytecodeSize)\n  dup1\n  bytecodeSize\n  dup4\n  codecopy\n  dup2\n  dup2\n  add\n  0x40\n  mstore\n  dup2\n  add\n  swap1\n  tag_2\n  swap2\n  swap1\n  tag_3\n  jump\t// in\ntag_2:\n    /* \"A/AccountHarvesting/AccountHarvesting.sol\":2947:2953  uint i */\n  0x00\n    /* \"A/AccountHarvesting/AccountHarvesting.sol\":2942:3048  for (uint i = 0; i < initialUsers.length; i++) {... */\ntag_6:\n    /* \"A/AccountHarvesting/AccountHarvesting.sol\":2963:2975  initialUsers */\n  dup2\n    /* \"A/AccountHarvesting/AccountHarvesting.sol\":2963:2982  initialUsers.length */\n  mload\n    /* \"A/AccountHarvesting/AccountHarvesting.sol\":2959:2960  i */\n  dup2\n    /* \"A/AccountHarvesting/AccountHarvesting.sol\":2959:2982  i < initialUsers.length */\n  lt\n    /* \"A/AccountHarvesting/AccountHarvesting.sol\":2942:3048  for (uint i = 0; i < initialUsers.length; i++) {... */\n  iszero\n  tag_7\n  jumpi\n    /* \"A/AccountHarvesting/AccountHarvesting.sol\":3033:3037  true */\n  0x01\n    /* \"A/AccountHarvesting/AccountHarvesting.sol\":3003:3013  userExists */\n  0x02\n    /* \"A/AccountHarvesting/AccountHarvesting.sol\":3014:3026  initialUsers */\n  dup4\n    /* \"A/AccountHarvesting/AccountHarvesting.sol\":3027:3028  i */\n  dup4\n    /* \"A/AccountHarvesting/AccountHarvesting.sol\":3014:3029  initialUsers[i] */\n  dup2\n  mload\n  dup2\n  lt\n  tag_9\n  jumpi\n  tag_10\n  tag_11\n  jump\t// in\ntag_10:\ntag_9:\n  0x20\n  mul\n  0x20\n  add\n  add\n  mload\n    /* \"A/AccountHarvesting/AccountHarvesting.sol\":3003:3030  userExists[initialUsers[i]] */\n  mload(0x40)\n  tag_12\n  swap2\n  swap1\n  tag_13\n  jump\t// in\ntag_12:\n  swap1\n  dup2\n  mstore\n  0x20\n  add\n  mload(0x40)\n  dup1\n  swap2\n  sub\n  swap1\n  keccak256\n  0x00\n    /* \"A/AccountHarvesting/AccountHarvesting.sol\":3003:3037  userExists[initialUsers[i]] = true */\n  0x0100\n  exp\n  dup2\n  sload\n  dup2\n  0xff\n  mul\n  not\n  and\n  swap1\n  dup4\n  iszero\n  iszero\n  mul\n  or\n  swap1\n  sstore\n  pop\n    /* \"A/AccountHarvesting/AccountHarvesting.sol\":2984:2987  i++ */\n  dup1\n  dup1\n  0x01\n  add\n  swap2\n  pop\n  pop\n    /* \"A/AccountHarvesting/AccountHarvesting.sol\":2942:3048  for (uint i = 0; i < initialUsers.length; i++) {... */\n  jump(tag_6)\ntag_7:\n  pop\n    /* \"A/AccountHarvesting/AccountHarvesting.sol\":2890:3054  constructor(string[] memory initialUsers) {... */\n  pop\n    /* \"A/AccountHarvesting/AccountHarvesting.sol\":2472:3493  contract AccountHarvestSafeRateLimit {... */\n  jump(tag_14)\n    /* \"#utility.yul\":7:82   */\ntag_15:\n    /* \"#utility.yul\":40:46   */\n  0x00\n    /* \"#utility.yul\":73:75   */\n  0x40\n    /* \"#utility.yul\":67:76   */\n  mload\n    /* \"#utility.yul\":57:76   */\n  swap1\n  pop\n    /* \"#utility.yul\":7:82   */\n  swap1\n  jump\t// out\n    /* \"#utility.yul\":88:205   */\ntag_16:\n    /* \"#utility.yul\":197:198   */\n  0x00\n    /* \"#utility.yul\":194:195   */\n  dup1\n    /* \"#utility.yul\":187:199   */\n  revert\n    /* \"#utility.yul\":211:328   */\ntag_17:\n    /* \"#utility.yul\":320:321   */\n  0x00\n    /* \"#utility.yul\":317:318   */\n  dup1\n    /* \"#utility.yul\":310:322   */\n  revert\n    /* \"#utility.yul\":334:451   */\ntag_18:\n    /* \"#utility.yul\":443:444   */\n  0x00\n    /* \"#utility.yul\":440:441   */\n  dup1\n    /* \"#utility.yul\":433:445   */\n  revert\n    /* \"#utility.yul\":457:559   */\ntag_19:\n    /* \"#utility.yul\":498:504   */\n  0x00\n    /* \"#utility.yul\":549:551   */\n  0x1f\n    /* \"#utility.yul\":545:552   */\n  not\n    /* \"#utility.yul\":540:542   */\n  0x1f\n    /* \"#utility.yul\":533:538   */\n  dup4\n    /* \"#utility.yul\":529:543   */\n  add\n    /* \"#utility.yul\":525:553   */\n  and\n    /* \"#utility.yul\":515:553   */\n  swap1\n  pop\n    /* \"#utility.yul\":457:559   */\n  swap2\n  swap1\n  pop\n  jump\t// out\n    /* \"#utility.yul\":565:745   */\ntag_20:\n    /* \"#utility.yul\":613:690   */\n  0x4e487b7100000000000000000000000000000000000000000000000000000000\n    /* \"#utility.yul\":610:611   */\n  0x00\n    /* \"#utility.yul\":603:691   */\n  mstore\n    /* \"#utility.yul\":710:714   */\n  0x41\n    /* \"#utility.yul\":707:708   */\n  0x04\n    /* \"#utility.yul\":700:715   */\n  mstore\n    /* \"#utility.yul\":734:738   */\n  0x24\n    /* \"#utility.yul\":731:732   */\n  0x00\n    /* \"#utility.yul\":724:739   */\n  revert\n    /* \"#utility.yul\":751:1032   */\ntag_21:\n    /* \"#utility.yul\":834:861   */\n  tag_43\n    /* \"#utility.yul\":856:860   */\n  dup3\n    /* \"#utility.yul\":834:861   */\n  tag_19\n  jump\t// in\ntag_43:\n    /* \"#utility.yul\":826:832   */\n  dup2\n    /* \"#utility.yul\":822:862   */\n  add\n    /* \"#utility.yul\":964:970   */\n  dup2\n    /* \"#utility.yul\":952:962   */\n  dup2\n    /* \"#utility.yul\":949:971   */\n  lt\n    /* \"#utility.yul\":928:946   */\n  0xffffffffffffffff\n    /* \"#utility.yul\":916:926   */\n  dup3\n    /* \"#utility.yul\":913:947   */\n  gt\n    /* \"#utility.yul\":910:972   */\n  or\n    /* \"#utility.yul\":907:995   */\n  iszero\n  tag_44\n  jumpi\n    /* \"#utility.yul\":975:993   */\n  tag_45\n  tag_20\n  jump\t// in\ntag_45:\n    /* \"#utility.yul\":907:995   */\ntag_44:\n    /* \"#utility.yul\":1015:1025   */\n  dup1\n    /* \"#utility.yul\":1011:1013   */\n  0x40\n    /* \"#utility.yul\":1004:1026   */\n  mstore\n    /* \"#utility.yul\":794:1032   */\n  pop\n    /* \"#utility.yul\":751:1032   */\n  pop\n  pop\n  jump\t// out\n    /* \"#utility.yul\":1038:1167   */\ntag_22:\n    /* \"#utility.yul\":1072:1078   */\n  0x00\n    /* \"#utility.yul\":1099:1119   */\n  tag_47\n  tag_15\n  jump\t// in\ntag_47:\n    /* \"#utility.yul\":1089:1119   */\n  swap1\n  pop\n    /* \"#utility.yul\":1128:1161   */\n  tag_48\n    /* \"#utility.yul\":1156:1160   */\n  dup3\n    /* \"#utility.yul\":1148:1154   */\n  dup3\n    /* \"#utility.yul\":1128:1161   */\n  tag_21\n  jump\t// in\ntag_48:\n    /* \"#utility.yul\":1038:1167   */\n  swap2\n  swap1\n  pop\n  jump\t// out\n    /* \"#utility.yul\":1173:1494   */\ntag_23:\n    /* \"#utility.yul\":1260:1264   */\n  0x00\n    /* \"#utility.yul\":1350:1368   */\n  0xffffffffffffffff\n    /* \"#utility.yul\":1342:1348   */\n  dup3\n    /* \"#utility.yul\":1339:1369   */\n  gt\n    /* \"#utility.yul\":1336:1392   */\n  iszero\n  tag_50\n  jumpi\n    /* \"#utility.yul\":1372:1390   */\n  tag_51\n  tag_20\n  jump\t// in\ntag_51:\n    /* \"#utility.yul\":1336:1392   */\ntag_50:\n    /* \"#utility.yul\":1422:1426   */\n  0x20\n    /* \"#utility.yul\":1414:1420   */\n  dup3\n    /* \"#utility.yul\":1410:1427   */\n  mul\n    /* \"#utility.yul\":1402:1427   */\n  swap1\n  pop\n    /* \"#utility.yul\":1482:1486   */\n  0x20\n    /* \"#utility.yul\":1476:1480   */\n  dup2\n    /* \"#utility.yul\":1472:1487   */\n  add\n    /* \"#utility.yul\":1464:1487   */\n  swap1\n  pop\n    /* \"#utility.yul\":1173:1494   */\n  swap2\n  swap1\n  pop\n  jump\t// out\n    /* \"#utility.yul\":1500:1617   */\ntag_24:\n    /* \"#utility.yul\":1609:1610   */\n  0x00\n    /* \"#utility.yul\":1606:1607   */\n  dup1\n    /* \"#utility.yul\":1599:1611   */\n  revert\n    /* \"#utility.yul\":1623:1740   */\ntag_25:\n    /* \"#utility.yul\":1732:1733   */\n  0x00\n    /* \"#utility.yul\":1729:1730   */\n  dup1\n    /* \"#utility.yul\":1722:1734   */\n  revert\n    /* \"#utility.yul\":1746:2054   */\ntag_26:\n    /* \"#utility.yul\":1808:1812   */\n  0x00\n    /* \"#utility.yul\":1898:1916   */\n  0xffffffffffffffff\n    /* \"#utility.yul\":1890:1896   */\n  dup3\n    /* \"#utility.yul\":1887:1917   */\n  gt\n    /* \"#utility.yul\":1884:1940   */\n  iszero\n  tag_55\n  jumpi\n    /* \"#utility.yul\":1920:1938   */\n  tag_56\n  tag_20\n  jump\t// in\ntag_56:\n    /* \"#utility.yul\":1884:1940   */\ntag_55:\n    /* \"#utility.yul\":1958:1987   */\n  tag_57\n    /* \"#utility.yul\":1980:1986   */\n  dup3\n    /* \"#utility.yul\":1958:1987   */\n  tag_19\n  jump\t// in\ntag_57:\n    /* \"#utility.yul\":1950:1987   */\n  swap1\n  pop\n    /* \"#utility.yul\":2042:2046   */\n  0x20\n    /* \"#utility.yul\":2036:2040   */\n  dup2\n    /* \"#utility.yul\":2032:2047   */\n  add\n    /* \"#utility.yul\":2024:2047   */\n  swap1\n  pop\n    /* \"#utility.yul\":1746:2054   */\n  swap2\n  swap1\n  pop\n  jump\t// out\n    /* \"#utility.yul\":2060:2199   */\ntag_27:\n    /* \"#utility.yul\":2149:2155   */\n  dup3\n    /* \"#utility.yul\":2144:2147   */\n  dup2\n    /* \"#utility.yul\":2139:2142   */\n  dup4\n    /* \"#utility.yul\":2133:2156   */\n  mcopy\n    /* \"#utility.yul\":2190:2191   */\n  0x00\n    /* \"#utility.yul\":2181:2187   */\n  dup4\n    /* \"#utility.yul\":2176:2179   */\n  dup4\n    /* \"#utility.yul\":2172:2188   */\n  add\n    /* \"#utility.yul\":2165:2192   */\n  mstore\n    /* \"#utility.yul\":2060:2199   */\n  pop\n  pop\n  pop\n  jump\t// out\n    /* \"#utility.yul\":2205:2639   */\ntag_28:\n    /* \"#utility.yul\":2294:2299   */\n  0x00\n    /* \"#utility.yul\":2319:2385   */\n  tag_60\n    /* \"#utility.yul\":2335:2384   */\n  tag_61\n    /* \"#utility.yul\":2377:2383   */\n  dup5\n    /* \"#utility.yul\":2335:2384   */\n  tag_26\n  jump\t// in\ntag_61:\n    /* \"#utility.yul\":2319:2385   */\n  tag_22\n  jump\t// in\ntag_60:\n    /* \"#utility.yul\":2310:2385   */\n  swap1\n  pop\n    /* \"#utility.yul\":2408:2414   */\n  dup3\n    /* \"#utility.yul\":2401:2406   */\n  dup2\n    /* \"#utility.yul\":2394:2415   */\n  mstore\n    /* \"#utility.yul\":2446:2450   */\n  0x20\n    /* \"#utility.yul\":2439:2444   */\n  dup2\n    /* \"#utility.yul\":2435:2451   */\n  add\n    /* \"#utility.yul\":2484:2487   */\n  dup5\n    /* \"#utility.yul\":2475:2481   */\n  dup5\n    /* \"#utility.yul\":2470:2473   */\n  dup5\n    /* \"#utility.yul\":2466:2482   */\n  add\n    /* \"#utility.yul\":2463:2488   */\n  gt\n    /* \"#utility.yul\":2460:2572   */\n  iszero\n  tag_62\n  jumpi\n    /* \"#utility.yul\":2491:2570   */\n  tag_63\n  tag_25\n  jump\t// in\ntag_63:\n    /* \"#utility.yul\":2460:2572   */\ntag_62:\n    /* \"#utility.yul\":2581:2633   */\n  tag_64\n    /* \"#utility.yul\":2626:2632   */\n  dup5\n    /* \"#utility.yul\":2621:2624   */\n  dup3\n    /* \"#utility.yul\":2616:2619   */\n  dup6\n    /* \"#utility.yul\":2581:2633   */\n  tag_27\n  jump\t// in\ntag_64:\n    /* \"#utility.yul\":2300:2639   */\n  pop\n    /* \"#utility.yul\":2205:2639   */\n  swap4\n  swap3\n  pop\n  pop\n  pop\n  jump\t// out\n    /* \"#utility.yul\":2659:3014   */\ntag_29:\n    /* \"#utility.yul\":2726:2731   */\n  0x00\n    /* \"#utility.yul\":2775:2778   */\n  dup3\n    /* \"#utility.yul\":2768:2772   */\n  0x1f\n    /* \"#utility.yul\":2760:2766   */\n  dup4\n    /* \"#utility.yul\":2756:2773   */\n  add\n    /* \"#utility.yul\":2752:2779   */\n  slt\n    /* \"#utility.yul\":2742:2864   */\n  tag_66\n  jumpi\n    /* \"#utility.yul\":2783:2862   */\n  tag_67\n  tag_18\n  jump\t// in\ntag_67:\n    /* \"#utility.yul\":2742:2864   */\ntag_66:\n    /* \"#utility.yul\":2893:2899   */\n  dup2\n    /* \"#utility.yul\":2887:2900   */\n  mload\n    /* \"#utility.yul\":2918:3008   */\n  tag_68\n    /* \"#utility.yul\":3004:3007   */\n  dup5\n    /* \"#utility.yul\":2996:3002   */\n  dup3\n    /* \"#utility.yul\":2989:2993   */\n  0x20\n    /* \"#utility.yul\":2981:2987   */\n  dup7\n    /* \"#utility.yul\":2977:2994   */\n  add\n    /* \"#utility.yul\":2918:3008   */\n  tag_28\n  jump\t// in\ntag_68:\n    /* \"#utility.yul\":2909:3008   */\n  swap2\n  pop\n    /* \"#utility.yul\":2732:3014   */\n  pop\n    /* \"#utility.yul\":2659:3014   */\n  swap3\n  swap2\n  pop\n  pop\n  jump\t// out\n    /* \"#utility.yul\":3036:3996   */\ntag_30:\n    /* \"#utility.yul\":3153:3158   */\n  0x00\n    /* \"#utility.yul\":3178:3269   */\n  tag_70\n    /* \"#utility.yul\":3194:3268   */\n  tag_71\n    /* \"#utility.yul\":3261:3267   */\n  dup5\n    /* \"#utility.yul\":3194:3268   */\n  tag_23\n  jump\t// in\ntag_71:\n    /* \"#utility.yul\":3178:3269   */\n  tag_22\n  jump\t// in\ntag_70:\n    /* \"#utility.yul\":3169:3269   */\n  swap1\n  pop\n    /* \"#utility.yul\":3289:3294   */\n  dup1\n    /* \"#utility.yul\":3318:3324   */\n  dup4\n    /* \"#utility.yul\":3311:3316   */\n  dup3\n    /* \"#utility.yul\":3304:3325   */\n  mstore\n    /* \"#utility.yul\":3352:3356   */\n  0x20\n    /* \"#utility.yul\":3345:3350   */\n  dup3\n    /* \"#utility.yul\":3341:3357   */\n  add\n    /* \"#utility.yul\":3334:3357   */\n  swap1\n  pop\n    /* \"#utility.yul\":3405:3409   */\n  0x20\n    /* \"#utility.yul\":3397:3403   */\n  dup5\n    /* \"#utility.yul\":3393:3410   */\n  mul\n    /* \"#utility.yul\":3385:3391   */\n  dup4\n    /* \"#utility.yul\":3381:3411   */\n  add\n    /* \"#utility.yul\":3434:3437   */\n  dup6\n    /* \"#utility.yul\":3426:3432   */\n  dup2\n    /* \"#utility.yul\":3423:3438   */\n  gt\n    /* \"#utility.yul\":3420:3542   */\n  iszero\n  tag_72\n  jumpi\n    /* \"#utility.yul\":3453:3532   */\n  tag_73\n  tag_24\n  jump\t// in\ntag_73:\n    /* \"#utility.yul\":3420:3542   */\ntag_72:\n    /* \"#utility.yul\":3568:3574   */\n  dup4\n    /* \"#utility.yul\":3551:3990   */\ntag_74:\n    /* \"#utility.yul\":3585:3591   */\n  dup2\n    /* \"#utility.yul\":3580:3583   */\n  dup2\n    /* \"#utility.yul\":3577:3592   */\n  lt\n    /* \"#utility.yul\":3551:3990   */\n  iszero\n  tag_76\n  jumpi\n    /* \"#utility.yul\":3667:3670   */\n  dup1\n    /* \"#utility.yul\":3661:3671   */\n  mload\n    /* \"#utility.yul\":3703:3721   */\n  0xffffffffffffffff\n    /* \"#utility.yul\":3690:3701   */\n  dup2\n    /* \"#utility.yul\":3687:3722   */\n  gt\n    /* \"#utility.yul\":3684:3806   */\n  iszero\n  tag_77\n  jumpi\n    /* \"#utility.yul\":3725:3804   */\n  tag_78\n  tag_18\n  jump\t// in\ntag_78:\n    /* \"#utility.yul\":3684:3806   */\ntag_77:\n    /* \"#utility.yul\":3849:3860   */\n  dup1\n    /* \"#utility.yul\":3841:3847   */\n  dup7\n    /* \"#utility.yul\":3837:3861   */\n  add\n    /* \"#utility.yul\":3887:3945   */\n  tag_79\n    /* \"#utility.yul\":3941:3944   */\n  dup10\n    /* \"#utility.yul\":3929:3939   */\n  dup3\n    /* \"#utility.yul\":3887:3945   */\n  tag_29\n  jump\t// in\ntag_79:\n    /* \"#utility.yul\":3882:3885   */\n  dup6\n    /* \"#utility.yul\":3875:3946   */\n  mstore\n    /* \"#utility.yul\":3975:3979   */\n  0x20\n    /* \"#utility.yul\":3970:3973   */\n  dup6\n    /* \"#utility.yul\":3966:3980   */\n  add\n    /* \"#utility.yul\":3959:3980   */\n  swap5\n  pop\n    /* \"#utility.yul\":3627:3990   */\n  pop\n  pop\n    /* \"#utility.yul\":3611:3615   */\n  0x20\n    /* \"#utility.yul\":3606:3609   */\n  dup2\n    /* \"#utility.yul\":3602:3616   */\n  add\n    /* \"#utility.yul\":3595:3616   */\n  swap1\n  pop\n    /* \"#utility.yul\":3551:3990   */\n  jump(tag_74)\ntag_76:\n    /* \"#utility.yul\":3555:3576   */\n  pop\n    /* \"#utility.yul\":3159:3996   */\n  pop\n  pop\n    /* \"#utility.yul\":3036:3996   */\n  swap4\n  swap3\n  pop\n  pop\n  pop\n  jump\t// out\n    /* \"#utility.yul\":4018:4423   */\ntag_31:\n    /* \"#utility.yul\":4110:4115   */\n  0x00\n    /* \"#utility.yul\":4159:4162   */\n  dup3\n    /* \"#utility.yul\":4152:4156   */\n  0x1f\n    /* \"#utility.yul\":4144:4150   */\n  dup4\n    /* \"#utility.yul\":4140:4157   */\n  add\n    /* \"#utility.yul\":4136:4163   */\n  slt\n    /* \"#utility.yul\":4126:4248   */\n  tag_81\n  jumpi\n    /* \"#utility.yul\":4167:4246   */\n  tag_82\n  tag_18\n  jump\t// in\ntag_82:\n    /* \"#utility.yul\":4126:4248   */\ntag_81:\n    /* \"#utility.yul\":4277:4283   */\n  dup2\n    /* \"#utility.yul\":4271:4284   */\n  mload\n    /* \"#utility.yul\":4302:4417   */\n  tag_83\n    /* \"#utility.yul\":4413:4416   */\n  dup5\n    /* \"#utility.yul\":4405:4411   */\n  dup3\n    /* \"#utility.yul\":4398:4402   */\n  0x20\n    /* \"#utility.yul\":4390:4396   */\n  dup7\n    /* \"#utility.yul\":4386:4403   */\n  add\n    /* \"#utility.yul\":4302:4417   */\n  tag_30\n  jump\t// in\ntag_83:\n    /* \"#utility.yul\":4293:4417   */\n  swap2\n  pop\n    /* \"#utility.yul\":4116:4423   */\n  pop\n    /* \"#utility.yul\":4018:4423   */\n  swap3\n  swap2\n  pop\n  pop\n  jump\t// out\n    /* \"#utility.yul\":4429:5003   */\ntag_3:\n    /* \"#utility.yul\":4534:4540   */\n  0x00\n    /* \"#utility.yul\":4583:4585   */\n  0x20\n    /* \"#utility.yul\":4571:4580   */\n  dup3\n    /* \"#utility.yul\":4562:4569   */\n  dup5\n    /* \"#utility.yul\":4558:4581   */\n  sub\n    /* \"#utility.yul\":4554:4586   */\n  slt\n    /* \"#utility.yul\":4551:4670   */\n  iszero\n  tag_85\n  jumpi\n    /* \"#utility.yul\":4589:4668   */\n  tag_86\n  tag_16\n  jump\t// in\ntag_86:\n    /* \"#utility.yul\":4551:4670   */\ntag_85:\n    /* \"#utility.yul\":4730:4731   */\n  0x00\n    /* \"#utility.yul\":4719:4728   */\n  dup3\n    /* \"#utility.yul\":4715:4732   */\n  add\n    /* \"#utility.yul\":4709:4733   */\n  mload\n    /* \"#utility.yul\":4760:4778   */\n  0xffffffffffffffff\n    /* \"#utility.yul\":4752:4758   */\n  dup2\n    /* \"#utility.yul\":4749:4779   */\n  gt\n    /* \"#utility.yul\":4746:4863   */\n  iszero\n  tag_87\n  jumpi\n    /* \"#utility.yul\":4782:4861   */\n  tag_88\n  tag_17\n  jump\t// in\ntag_88:\n    /* \"#utility.yul\":4746:4863   */\ntag_87:\n    /* \"#utility.yul\":4887:4986   */\n  tag_89\n    /* \"#utility.yul\":4978:4985   */\n  dup5\n    /* \"#utility.yul\":4969:4975   */\n  dup3\n    /* \"#utility.yul\":4958:4967   */\n  dup6\n    /* \"#utility.yul\":4954:4976   */\n  add\n    /* \"#utility.yul\":4887:4986   */\n  tag_31\n  jump\t// in\ntag_89:\n    /* \"#utility.yul\":4877:4986   */\n  swap2\n  pop\n    /* \"#utility.yul\":4680:4996   */\n  pop\n    /* \"#utility.yul\":4429:5003   */\n  swap3\n  swap2\n  pop\n  pop\n  jump\t// out\n    /* \"#utility.yul\":5009:5189   */\ntag_11:\n    /* \"#utility.yul\":5057:5134   */\n  0x4e487b7100000000000000000000000000000000000000000000000000000000\n    /* \"#utility.yul\":5054:5055   */\n  0x00\n    /* \"#utility.yul\":5047:5135   */\n  mstore\n    /* \"#utility.yul\":5154:5158   */\n  0x32\n    /* \"#utility.yul\":5151:5152   */\n  0x04\n    /* \"#utility.yul\":5144:5159   */\n  mstore\n    /* \"#utility.yul\":5178:5182   */\n  0x24\n    /* \"#utility.yul\":5175:5176   */\n  0x00\n    /* \"#utility.yul\":5168:5183   */\n  revert\n    /* \"#utility.yul\":5195:5294   */\ntag_32:\n    /* \"#utility.yul\":5247:5253   */\n  0x00\n    /* \"#utility.yul\":5281:5286   */\n  dup2\n    /* \"#utility.yul\":5275:5287   */\n  mload\n    /* \"#utility.yul\":5265:5287   */\n  swap1\n  pop\n    /* \"#utility.yul\":5195:5294   */\n  swap2\n  swap1\n  pop\n  jump\t// out\n    /* \"#utility.yul\":5300:5448   */\ntag_33:\n    /* \"#utility.yul\":5402:5413   */\n  0x00\n    /* \"#utility.yul\":5439:5442   */\n  dup2\n    /* \"#utility.yul\":5424:5442   */\n  swap1\n  pop\n    /* \"#utility.yul\":5300:5448   */\n  swap3\n  swap2\n  pop\n  pop\n  jump\t// out\n    /* \"#utility.yul\":5454:5844   */\ntag_34:\n    /* \"#utility.yul\":5560:5563   */\n  0x00\n    /* \"#utility.yul\":5588:5627   */\n  tag_94\n    /* \"#utility.yul\":5621:5626   */\n  dup3\n    /* \"#utility.yul\":5588:5627   */\n  tag_32\n  jump\t// in\ntag_94:\n    /* \"#utility.yul\":5643:5732   */\n  tag_95\n    /* \"#utility.yul\":5725:5731   */\n  dup2\n    /* \"#utility.yul\":5720:5723   */\n  dup6\n    /* \"#utility.yul\":5643:5732   */\n  tag_33\n  jump\t// in\ntag_95:\n    /* \"#utility.yul\":5636:5732   */\n  swap4\n  pop\n    /* \"#utility.yul\":5741:5806   */\n  tag_96\n    /* \"#utility.yul\":5799:5805   */\n  dup2\n    /* \"#utility.yul\":5794:5797   */\n  dup6\n    /* \"#utility.yul\":5787:5791   */\n  0x20\n    /* \"#utility.yul\":5780:5785   */\n  dup7\n    /* \"#utility.yul\":5776:5792   */\n  add\n    /* \"#utility.yul\":5741:5806   */\n  tag_27\n  jump\t// in\ntag_96:\n    /* \"#utility.yul\":5831:5837   */\n  dup1\n    /* \"#utility.yul\":5826:5829   */\n  dup5\n    /* \"#utility.yul\":5822:5838   */\n  add\n    /* \"#utility.yul\":5815:5838   */\n  swap2\n  pop\n    /* \"#utility.yul\":5564:5844   */\n  pop\n    /* \"#utility.yul\":5454:5844   */\n  swap3\n  swap2\n  pop\n  pop\n  jump\t// out\n    /* \"#utility.yul\":5850:6125   */\ntag_13:\n    /* \"#utility.yul\":5982:5985   */\n  0x00\n    /* \"#utility.yul\":6004:6099   */\n  tag_98\n    /* \"#utility.yul\":6095:6098   */\n  dup3\n    /* \"#utility.yul\":6086:6092   */\n  dup5\n    /* \"#utility.yul\":6004:6099   */\n  tag_34\n  jump\t// in\ntag_98:\n    /* \"#utility.yul\":5997:6099   */\n  swap2\n  pop\n    /* \"#utility.yul\":6116:6119   */\n  dup2\n    /* \"#utility.yul\":6109:6119   */\n  swap1\n  pop\n    /* \"#utility.yul\":5850:6125   */\n  swap3\n  swap2\n  pop\n  pop\n  jump\t// out\n    /* \"A/AccountHarvesting/AccountHarvesting.sol\":2472:3493  contract AccountHarvestSafeRateLimit {... */\ntag_14:\n  dataSize(sub_0)\n  dup1\n  dataOffset(sub_0)\n  0x00\n  codecopy\n  0x00\n  return\nstop\n\nsub_0: assembly {\n        /* \"A/AccountHarvesting/AccountHarvesting.sol\":2472:3493  contract AccountHarvestSafeRateLimit {... */\n      mstore(0x40, 0x80)\n      callvalue\n      dup1\n      iszero\n      tag_1\n      jumpi\n      0x00\n      dup1\n      revert\n    tag_1:\n      pop\n      jumpi(tag_2, lt(calldatasize, 0x04))\n      shr(0xe0, calldataload(0x00))\n      dup1\n      0x0d2a95ef\n      eq\n      tag_3\n      jumpi\n      dup1\n      0x1eb41b71\n      eq\n      tag_4\n      jumpi\n      dup1\n      0x3e9893a6\n      eq\n      tag_5\n      jumpi\n      dup1\n      0x952ca92c\n      eq\n      tag_6\n      jumpi\n      dup1\n      0xfddc968e\n      eq\n      tag_7\n      jumpi\n    tag_2:\n      0x00\n      dup1\n      revert\n        /* \"A/AccountHarvesting/AccountHarvesting.sol\":2618:2659  uint256 public constant MAX_PER_BLOCK = 5 */\n    tag_3:\n      tag_8\n      tag_9\n      jump\t// in\n    tag_8:\n      mload(0x40)\n      tag_10\n      swap2\n      swap1\n      tag_11\n      jump\t// in\n    tag_10:\n      mload(0x40)\n      dup1\n      swap2\n      sub\n      swap1\n      return\n        /* \"A/AccountHarvesting/AccountHarvesting.sol\":3060:3491  function checkUser(string calldata username) external {... */\n    tag_4:\n      tag_12\n      0x04\n      dup1\n      calldatasize\n      sub\n      dup2\n      add\n      swap1\n      tag_13\n      swap2\n      swap1\n      tag_14\n      jump\t// in\n    tag_13:\n      tag_15\n      jump\t// in\n    tag_12:\n      stop\n        /* \"A/AccountHarvesting/AccountHarvesting.sol\":2565:2612  mapping(address => uint256) public countInBlock */\n    tag_5:\n      tag_16\n      0x04\n      dup1\n      calldatasize\n      sub\n      dup2\n      add\n      swap1\n      tag_17\n      swap2\n      swap1\n      tag_18\n      jump\t// in\n    tag_17:\n      tag_19\n      jump\t// in\n    tag_16:\n      mload(0x40)\n      tag_20\n      swap2\n      swap1\n      tag_11\n      jump\t// in\n    tag_20:\n      mload(0x40)\n      dup1\n      swap2\n      sub\n      swap1\n      return\n        /* \"A/AccountHarvesting/AccountHarvesting.sol\":2515:2559  mapping(address => uint256) public lastBlock */\n    tag_6:\n      tag_21\n      0x04\n      dup1\n      calldatasize\n      sub\n      dup2\n      add\n      swap1\n      tag_22\n      swap2\n      swap1\n      tag_18\n      jump\t// in\n    tag_22:\n      tag_23\n      jump\t// in\n    tag_21:\n      mload(0x40)\n      tag_24\n      swap2\n      swap1\n      tag_11\n      jump\t// in\n    tag_24:\n      mload(0x40)\n      dup1\n      swap2\n      sub\n      swap1\n      return\n        /* \"A/AccountHarvesting/AccountHarvesting.sol\":2666:2707  mapping(string => bool) public userExists */\n    tag_7:\n      tag_25\n      0x04\n      dup1\n      calldatasize\n      sub\n      dup2\n      add\n      swap1\n      tag_26\n      swap2\n      swap1\n      tag_27\n      jump\t// in\n    tag_26:\n      tag_28\n      jump\t// in\n    tag_25:\n      mload(0x40)\n      tag_29\n      swap2\n      swap1\n      tag_30\n      jump\t// in\n    tag_29:\n      mload(0x40)\n      dup1\n      swap2\n      sub\n      swap1\n      return\n        /* \"A/AccountHarvesting/AccountHarvesting.sol\":2618:2659  uint256 public constant MAX_PER_BLOCK = 5 */\n    tag_9:\n        /* \"A/AccountHarvesting/AccountHarvesting.sol\":2658:2659  5 */\n      0x05\n        /* \"A/AccountHarvesting/AccountHarvesting.sol\":2618:2659  uint256 public constant MAX_PER_BLOCK = 5 */\n      dup2\n      jump\t// out\n        /* \"A/AccountHarvesting/AccountHarvesting.sol\":3060:3491  function checkUser(string calldata username) external {... */\n    tag_15:\n        /* \"A/AccountHarvesting/AccountHarvesting.sol\":3144:3153  lastBlock */\n      0x00\n        /* \"A/AccountHarvesting/AccountHarvesting.sol\":3144:3165  lastBlock[msg.sender] */\n      dup1\n        /* \"A/AccountHarvesting/AccountHarvesting.sol\":3154:3164  msg.sender */\n      caller\n        /* \"A/AccountHarvesting/AccountHarvesting.sol\":3144:3165  lastBlock[msg.sender] */\n      0xffffffffffffffffffffffffffffffffffffffff\n      and\n      0xffffffffffffffffffffffffffffffffffffffff\n      and\n      dup2\n      mstore\n      0x20\n      add\n      swap1\n      dup2\n      mstore\n      0x20\n      add\n      0x00\n      keccak256\n      sload\n        /* \"A/AccountHarvesting/AccountHarvesting.sol\":3128:3140  block.number */\n      number\n        /* \"A/AccountHarvesting/AccountHarvesting.sol\":3128:3165  block.number != lastBlock[msg.sender] */\n      eq\n        /* \"A/AccountHarvesting/AccountHarvesting.sol\":3124:3273  if (block.number != lastBlock[msg.sender]) {... */\n      tag_32\n      jumpi\n        /* \"A/AccountHarvesting/AccountHarvesting.sol\":3208:3220  block.number */\n      number\n        /* \"A/AccountHarvesting/AccountHarvesting.sol\":3181:3190  lastBlock */\n      0x00\n        /* \"A/AccountHarvesting/AccountHarvesting.sol\":3181:3202  lastBlock[msg.sender] */\n      dup1\n        /* \"A/AccountHarvesting/AccountHarvesting.sol\":3191:3201  msg.sender */\n      caller\n        /* \"A/AccountHarvesting/AccountHarvesting.sol\":3181:3202  lastBlock[msg.sender] */\n      0xffffffffffffffffffffffffffffffffffffffff\n      and\n      0xffffffffffffffffffffffffffffffffffffffff\n      and\n      dup2\n      mstore\n      0x20\n      add\n      swap1\n      dup2\n      mstore\n      0x20\n      add\n      0x00\n      keccak256\n        /* \"A/AccountHarvesting/AccountHarvesting.sol\":3181:3220  lastBlock[msg.sender]    = block.number */\n      dup2\n      swap1\n      sstore\n      pop\n        /* \"A/AccountHarvesting/AccountHarvesting.sol\":3261:3262  0 */\n      0x00\n        /* \"A/AccountHarvesting/AccountHarvesting.sol\":3234:3246  countInBlock */\n      0x01\n        /* \"A/AccountHarvesting/AccountHarvesting.sol\":3234:3258  countInBlock[msg.sender] */\n      0x00\n        /* \"A/AccountHarvesting/AccountHarvesting.sol\":3247:3257  msg.sender */\n      caller\n        /* \"A/AccountHarvesting/AccountHarvesting.sol\":3234:3258  countInBlock[msg.sender] */\n      0xffffffffffffffffffffffffffffffffffffffff\n      and\n      0xffffffffffffffffffffffffffffffffffffffff\n      and\n      dup2\n      mstore\n      0x20\n      add\n      swap1\n      dup2\n      mstore\n      0x20\n      add\n      0x00\n      keccak256\n        /* \"A/AccountHarvesting/AccountHarvesting.sol\":3234:3262  countInBlock[msg.sender] = 0 */\n      dup2\n      swap1\n      sstore\n      pop\n        /* \"A/AccountHarvesting/AccountHarvesting.sol\":3124:3273  if (block.number != lastBlock[msg.sender]) {... */\n    tag_32:\n        /* \"A/AccountHarvesting/AccountHarvesting.sol\":3282:3294  countInBlock */\n      0x01\n        /* \"A/AccountHarvesting/AccountHarvesting.sol\":3282:3306  countInBlock[msg.sender] */\n      0x00\n        /* \"A/AccountHarvesting/AccountHarvesting.sol\":3295:3305  msg.sender */\n      caller\n        /* \"A/AccountHarvesting/AccountHarvesting.sol\":3282:3306  countInBlock[msg.sender] */\n      0xffffffffffffffffffffffffffffffffffffffff\n      and\n      0xffffffffffffffffffffffffffffffffffffffff\n      and\n      dup2\n      mstore\n      0x20\n      add\n      swap1\n      dup2\n      mstore\n      0x20\n      add\n      0x00\n      keccak256\n      0x00\n        /* \"A/AccountHarvesting/AccountHarvesting.sol\":3282:3308  countInBlock[msg.sender]++ */\n      dup2\n      sload\n      dup1\n      swap3\n      swap2\n      swap1\n      tag_33\n      swap1\n      tag_34\n      jump\t// in\n    tag_33:\n      swap2\n      swap1\n      pop\n      sstore\n      pop\n        /* \"A/AccountHarvesting/AccountHarvesting.sol\":2658:2659  5 */\n      0x05\n        /* \"A/AccountHarvesting/AccountHarvesting.sol\":3322:3334  countInBlock */\n      0x01\n        /* \"A/AccountHarvesting/AccountHarvesting.sol\":3322:3346  countInBlock[msg.sender] */\n      0x00\n        /* \"A/AccountHarvesting/AccountHarvesting.sol\":3335:3345  msg.sender */\n      caller\n        /* \"A/AccountHarvesting/AccountHarvesting.sol\":3322:3346  countInBlock[msg.sender] */\n      0xffffffffffffffffffffffffffffffffffffffff\n      and\n      0xffffffffffffffffffffffffffffffffffffffff\n      and\n      dup2\n      mstore\n      0x20\n      add\n      swap1\n      dup2\n      mstore\n      0x20\n      add\n      0x00\n      keccak256\n      sload\n        /* \"A/AccountHarvesting/AccountHarvesting.sol\":3322:3362  countInBlock[msg.sender] > MAX_PER_BLOCK */\n      gt\n        /* \"A/AccountHarvesting/AccountHarvesting.sol\":3318:3392  if (countInBlock[msg.sender] > MAX_PER_BLOCK) revert AH__TooManyRequests() */\n      iszero\n      tag_35\n      jumpi\n        /* \"A/AccountHarvesting/AccountHarvesting.sol\":3371:3392  AH__TooManyRequests() */\n      mload(0x40)\n      0x318aa16700000000000000000000000000000000000000000000000000000000\n      dup2\n      mstore\n      0x04\n      add\n      mload(0x40)\n      dup1\n      swap2\n      sub\n      swap1\n      revert\n        /* \"A/AccountHarvesting/AccountHarvesting.sol\":3318:3392  if (countInBlock[msg.sender] > MAX_PER_BLOCK) revert AH__TooManyRequests() */\n    tag_35:\n        /* \"A/AccountHarvesting/AccountHarvesting.sol\":3423:3433  msg.sender */\n      caller\n        /* \"A/AccountHarvesting/AccountHarvesting.sol\":3408:3484  HarvestChecked(msg.sender, username, AccountHarvestingDefenseType.RateLimit) */\n      0xffffffffffffffffffffffffffffffffffffffff\n      and\n      0xdc840972025b14465e97e71ee4dc2050a4cf483e3feb7d6af5fa0b68ee58ec2f\n        /* \"A/AccountHarvesting/AccountHarvesting.sol\":3435:3443  username */\n      dup4\n      dup4\n        /* \"A/AccountHarvesting/AccountHarvesting.sol\":3445:3483  AccountHarvestingDefenseType.RateLimit */\n      0x00\n        /* \"A/AccountHarvesting/AccountHarvesting.sol\":3408:3484  HarvestChecked(msg.sender, username, AccountHarvestingDefenseType.RateLimit) */\n      mload(0x40)\n      tag_36\n      swap4\n      swap3\n      swap2\n      swap1\n      tag_37\n      jump\t// in\n    tag_36:\n      mload(0x40)\n      dup1\n      swap2\n      sub\n      swap1\n      log2\n        /* \"A/AccountHarvesting/AccountHarvesting.sol\":3060:3491  function checkUser(string calldata username) external {... */\n      pop\n      pop\n      jump\t// out\n        /* \"A/AccountHarvesting/AccountHarvesting.sol\":2565:2612  mapping(address => uint256) public countInBlock */\n    tag_19:\n      mstore(0x20, 0x01)\n      dup1\n      0x00\n      mstore\n      keccak256(0x00, 0x40)\n      0x00\n      swap2\n      pop\n      swap1\n      pop\n      sload\n      dup2\n      jump\t// out\n        /* \"A/AccountHarvesting/AccountHarvesting.sol\":2515:2559  mapping(address => uint256) public lastBlock */\n    tag_23:\n      mstore(0x20, 0x00)\n      dup1\n      0x00\n      mstore\n      keccak256(0x00, 0x40)\n      0x00\n      swap2\n      pop\n      swap1\n      pop\n      sload\n      dup2\n      jump\t// out\n        /* \"A/AccountHarvesting/AccountHarvesting.sol\":2666:2707  mapping(string => bool) public userExists */\n    tag_28:\n      0x02\n      dup2\n      dup1\n      mload\n      0x20\n      dup2\n      add\n      dup3\n      add\n      dup1\n      mload\n      dup5\n      dup3\n      mstore\n      0x20\n      dup4\n      add\n      0x20\n      dup6\n      add\n      keccak256\n      dup2\n      dup4\n      mstore\n      dup1\n      swap6\n      pop\n      pop\n      pop\n      pop\n      pop\n      pop\n      0x00\n      swap2\n      pop\n      sload\n      swap1\n      0x0100\n      exp\n      swap1\n      div\n      0xff\n      and\n      dup2\n      jump\t// out\n        /* \"#utility.yul\":7:84   */\n    tag_38:\n        /* \"#utility.yul\":44:51   */\n      0x00\n        /* \"#utility.yul\":73:78   */\n      dup2\n        /* \"#utility.yul\":62:78   */\n      swap1\n      pop\n        /* \"#utility.yul\":7:84   */\n      swap2\n      swap1\n      pop\n      jump\t// out\n        /* \"#utility.yul\":90:208   */\n    tag_39:\n        /* \"#utility.yul\":177:201   */\n      tag_73\n        /* \"#utility.yul\":195:200   */\n      dup2\n        /* \"#utility.yul\":177:201   */\n      tag_38\n      jump\t// in\n    tag_73:\n        /* \"#utility.yul\":172:175   */\n      dup3\n        /* \"#utility.yul\":165:202   */\n      mstore\n        /* \"#utility.yul\":90:208   */\n      pop\n      pop\n      jump\t// out\n        /* \"#utility.yul\":214:436   */\n    tag_11:\n        /* \"#utility.yul\":307:311   */\n      0x00\n        /* \"#utility.yul\":345:347   */\n      0x20\n        /* \"#utility.yul\":334:343   */\n      dup3\n        /* \"#utility.yul\":330:348   */\n      add\n        /* \"#utility.yul\":322:348   */\n      swap1\n      pop\n        /* \"#utility.yul\":358:429   */\n      tag_75\n        /* \"#utility.yul\":426:427   */\n      0x00\n        /* \"#utility.yul\":415:424   */\n      dup4\n        /* \"#utility.yul\":411:428   */\n      add\n        /* \"#utility.yul\":402:408   */\n      dup5\n        /* \"#utility.yul\":358:429   */\n      tag_39\n      jump\t// in\n    tag_75:\n        /* \"#utility.yul\":214:436   */\n      swap3\n      swap2\n      pop\n      pop\n      jump\t// out\n        /* \"#utility.yul\":442:517   */\n    tag_40:\n        /* \"#utility.yul\":475:481   */\n      0x00\n        /* \"#utility.yul\":508:510   */\n      0x40\n        /* \"#utility.yul\":502:511   */\n      mload\n        /* \"#utility.yul\":492:511   */\n      swap1\n      pop\n        /* \"#utility.yul\":442:517   */\n      swap1\n      jump\t// out\n        /* \"#utility.yul\":523:640   */\n    tag_41:\n        /* \"#utility.yul\":632:633   */\n      0x00\n        /* \"#utility.yul\":629:630   */\n      dup1\n        /* \"#utility.yul\":622:634   */\n      revert\n        /* \"#utility.yul\":646:763   */\n    tag_42:\n        /* \"#utility.yul\":755:756   */\n      0x00\n        /* \"#utility.yul\":752:753   */\n      dup1\n        /* \"#utility.yul\":745:757   */\n      revert\n        /* \"#utility.yul\":769:886   */\n    tag_43:\n        /* \"#utility.yul\":878:879   */\n      0x00\n        /* \"#utility.yul\":875:876   */\n      dup1\n        /* \"#utility.yul\":868:880   */\n      revert\n        /* \"#utility.yul\":892:1009   */\n    tag_44:\n        /* \"#utility.yul\":1001:1002   */\n      0x00\n        /* \"#utility.yul\":998:999   */\n      dup1\n        /* \"#utility.yul\":991:1003   */\n      revert\n        /* \"#utility.yul\":1015:1132   */\n    tag_45:\n        /* \"#utility.yul\":1124:1125   */\n      0x00\n        /* \"#utility.yul\":1121:1122   */\n      dup1\n        /* \"#utility.yul\":1114:1126   */\n      revert\n        /* \"#utility.yul\":1152:1705   */\n    tag_46:\n        /* \"#utility.yul\":1210:1218   */\n      0x00\n        /* \"#utility.yul\":1220:1226   */\n      dup1\n        /* \"#utility.yul\":1270:1273   */\n      dup4\n        /* \"#utility.yul\":1263:1267   */\n      0x1f\n        /* \"#utility.yul\":1255:1261   */\n      dup5\n        /* \"#utility.yul\":1251:1268   */\n      add\n        /* \"#utility.yul\":1247:1274   */\n      slt\n        /* \"#utility.yul\":1237:1359   */\n      tag_83\n      jumpi\n        /* \"#utility.yul\":1278:1357   */\n      tag_84\n      tag_43\n      jump\t// in\n    tag_84:\n        /* \"#utility.yul\":1237:1359   */\n    tag_83:\n        /* \"#utility.yul\":1391:1397   */\n      dup3\n        /* \"#utility.yul\":1378:1398   */\n      calldataload\n        /* \"#utility.yul\":1368:1398   */\n      swap1\n      pop\n        /* \"#utility.yul\":1421:1439   */\n      0xffffffffffffffff\n        /* \"#utility.yul\":1413:1419   */\n      dup2\n        /* \"#utility.yul\":1410:1440   */\n      gt\n        /* \"#utility.yul\":1407:1524   */\n      iszero\n      tag_85\n      jumpi\n        /* \"#utility.yul\":1443:1522   */\n      tag_86\n      tag_44\n      jump\t// in\n    tag_86:\n        /* \"#utility.yul\":1407:1524   */\n    tag_85:\n        /* \"#utility.yul\":1557:1561   */\n      0x20\n        /* \"#utility.yul\":1549:1555   */\n      dup4\n        /* \"#utility.yul\":1545:1562   */\n      add\n        /* \"#utility.yul\":1533:1562   */\n      swap2\n      pop\n        /* \"#utility.yul\":1611:1614   */\n      dup4\n        /* \"#utility.yul\":1603:1607   */\n      0x01\n        /* \"#utility.yul\":1595:1601   */\n      dup3\n        /* \"#utility.yul\":1591:1608   */\n      mul\n        /* \"#utility.yul\":1581:1589   */\n      dup4\n        /* \"#utility.yul\":1577:1609   */\n      add\n        /* \"#utility.yul\":1574:1615   */\n      gt\n        /* \"#utility.yul\":1571:1699   */\n      iszero\n      tag_87\n      jumpi\n        /* \"#utility.yul\":1618:1697   */\n      tag_88\n      tag_45\n      jump\t// in\n    tag_88:\n        /* \"#utility.yul\":1571:1699   */\n    tag_87:\n        /* \"#utility.yul\":1152:1705   */\n      swap3\n      pop\n      swap3\n      swap1\n      pop\n      jump\t// out\n        /* \"#utility.yul\":1711:2240   */\n    tag_14:\n        /* \"#utility.yul\":1782:1788   */\n      0x00\n        /* \"#utility.yul\":1790:1796   */\n      dup1\n        /* \"#utility.yul\":1839:1841   */\n      0x20\n        /* \"#utility.yul\":1827:1836   */\n      dup4\n        /* \"#utility.yul\":1818:1825   */\n      dup6\n        /* \"#utility.yul\":1814:1837   */\n      sub\n        /* \"#utility.yul\":1810:1842   */\n      slt\n        /* \"#utility.yul\":1807:1926   */\n      iszero\n      tag_90\n      jumpi\n        /* \"#utility.yul\":1845:1924   */\n      tag_91\n      tag_41\n      jump\t// in\n    tag_91:\n        /* \"#utility.yul\":1807:1926   */\n    tag_90:\n        /* \"#utility.yul\":1993:1994   */\n      0x00\n        /* \"#utility.yul\":1982:1991   */\n      dup4\n        /* \"#utility.yul\":1978:1995   */\n      add\n        /* \"#utility.yul\":1965:1996   */\n      calldataload\n        /* \"#utility.yul\":2023:2041   */\n      0xffffffffffffffff\n        /* \"#utility.yul\":2015:2021   */\n      dup2\n        /* \"#utility.yul\":2012:2042   */\n      gt\n        /* \"#utility.yul\":2009:2126   */\n      iszero\n      tag_92\n      jumpi\n        /* \"#utility.yul\":2045:2124   */\n      tag_93\n      tag_42\n      jump\t// in\n    tag_93:\n        /* \"#utility.yul\":2009:2126   */\n    tag_92:\n        /* \"#utility.yul\":2158:2223   */\n      tag_94\n        /* \"#utility.yul\":2215:2222   */\n      dup6\n        /* \"#utility.yul\":2206:2212   */\n      dup3\n        /* \"#utility.yul\":2195:2204   */\n      dup7\n        /* \"#utility.yul\":2191:2213   */\n      add\n        /* \"#utility.yul\":2158:2223   */\n      tag_46\n      jump\t// in\n    tag_94:\n        /* \"#utility.yul\":2140:2223   */\n      swap3\n      pop\n      swap3\n      pop\n        /* \"#utility.yul\":1936:2233   */\n      pop\n        /* \"#utility.yul\":1711:2240   */\n      swap3\n      pop\n      swap3\n      swap1\n      pop\n      jump\t// out\n        /* \"#utility.yul\":2246:2372   */\n    tag_47:\n        /* \"#utility.yul\":2283:2290   */\n      0x00\n        /* \"#utility.yul\":2323:2365   */\n      0xffffffffffffffffffffffffffffffffffffffff\n        /* \"#utility.yul\":2316:2321   */\n      dup3\n        /* \"#utility.yul\":2312:2366   */\n      and\n        /* \"#utility.yul\":2301:2366   */\n      swap1\n      pop\n        /* \"#utility.yul\":2246:2372   */\n      swap2\n      swap1\n      pop\n      jump\t// out\n        /* \"#utility.yul\":2378:2474   */\n    tag_48:\n        /* \"#utility.yul\":2415:2422   */\n      0x00\n        /* \"#utility.yul\":2444:2468   */\n      tag_97\n        /* \"#utility.yul\":2462:2467   */\n      dup3\n        /* \"#utility.yul\":2444:2468   */\n      tag_47\n      jump\t// in\n    tag_97:\n        /* \"#utility.yul\":2433:2468   */\n      swap1\n      pop\n        /* \"#utility.yul\":2378:2474   */\n      swap2\n      swap1\n      pop\n      jump\t// out\n        /* \"#utility.yul\":2480:2602   */\n    tag_49:\n        /* \"#utility.yul\":2553:2577   */\n      tag_99\n        /* \"#utility.yul\":2571:2576   */\n      dup2\n        /* \"#utility.yul\":2553:2577   */\n      tag_48\n      jump\t// in\n    tag_99:\n        /* \"#utility.yul\":2546:2551   */\n      dup2\n        /* \"#utility.yul\":2543:2578   */\n      eq\n        /* \"#utility.yul\":2533:2596   */\n      tag_100\n      jumpi\n        /* \"#utility.yul\":2592:2593   */\n      0x00\n        /* \"#utility.yul\":2589:2590   */\n      dup1\n        /* \"#utility.yul\":2582:2594   */\n      revert\n        /* \"#utility.yul\":2533:2596   */\n    tag_100:\n        /* \"#utility.yul\":2480:2602   */\n      pop\n      jump\t// out\n        /* \"#utility.yul\":2608:2747   */\n    tag_50:\n        /* \"#utility.yul\":2654:2659   */\n      0x00\n        /* \"#utility.yul\":2692:2698   */\n      dup2\n        /* \"#utility.yul\":2679:2699   */\n      calldataload\n        /* \"#utility.yul\":2670:2699   */\n      swap1\n      pop\n        /* \"#utility.yul\":2708:2741   */\n      tag_102\n        /* \"#utility.yul\":2735:2740   */\n      dup2\n        /* \"#utility.yul\":2708:2741   */\n      tag_49\n      jump\t// in\n    tag_102:\n        /* \"#utility.yul\":2608:2747   */\n      swap3\n      swap2\n      pop\n      pop\n      jump\t// out\n        /* \"#utility.yul\":2753:3082   */\n    tag_18:\n        /* \"#utility.yul\":2812:2818   */\n      0x00\n        /* \"#utility.yul\":2861:2863   */\n      0x20\n        /* \"#utility.yul\":2849:2858   */\n      dup3\n        /* \"#utility.yul\":2840:2847   */\n      dup5\n        /* \"#utility.yul\":2836:2859   */\n      sub\n        /* \"#utility.yul\":2832:2864   */\n      slt\n        /* \"#utility.yul\":2829:2948   */\n      iszero\n      tag_104\n      jumpi\n        /* \"#utility.yul\":2867:2946   */\n      tag_105\n      tag_41\n      jump\t// in\n    tag_105:\n        /* \"#utility.yul\":2829:2948   */\n    tag_104:\n        /* \"#utility.yul\":2987:2988   */\n      0x00\n        /* \"#utility.yul\":3012:3065   */\n      tag_106\n        /* \"#utility.yul\":3057:3064   */\n      dup5\n        /* \"#utility.yul\":3048:3054   */\n      dup3\n        /* \"#utility.yul\":3037:3046   */\n      dup6\n        /* \"#utility.yul\":3033:3055   */\n      add\n        /* \"#utility.yul\":3012:3065   */\n      tag_50\n      jump\t// in\n    tag_106:\n        /* \"#utility.yul\":3002:3065   */\n      swap2\n      pop\n        /* \"#utility.yul\":2958:3075   */\n      pop\n        /* \"#utility.yul\":2753:3082   */\n      swap3\n      swap2\n      pop\n      pop\n      jump\t// out\n        /* \"#utility.yul\":3088:3205   */\n    tag_51:\n        /* \"#utility.yul\":3197:3198   */\n      0x00\n        /* \"#utility.yul\":3194:3195   */\n      dup1\n        /* \"#utility.yul\":3187:3199   */\n      revert\n        /* \"#utility.yul\":3211:3313   */\n    tag_52:\n        /* \"#utility.yul\":3252:3258   */\n      0x00\n        /* \"#utility.yul\":3303:3305   */\n      0x1f\n        /* \"#utility.yul\":3299:3306   */\n      not\n        /* \"#utility.yul\":3294:3296   */\n      0x1f\n        /* \"#utility.yul\":3287:3292   */\n      dup4\n        /* \"#utility.yul\":3283:3297   */\n      add\n        /* \"#utility.yul\":3279:3307   */\n      and\n        /* \"#utility.yul\":3269:3307   */\n      swap1\n      pop\n        /* \"#utility.yul\":3211:3313   */\n      swap2\n      swap1\n      pop\n      jump\t// out\n        /* \"#utility.yul\":3319:3499   */\n    tag_53:\n        /* \"#utility.yul\":3367:3444   */\n      0x4e487b7100000000000000000000000000000000000000000000000000000000\n        /* \"#utility.yul\":3364:3365   */\n      0x00\n        /* \"#utility.yul\":3357:3445   */\n      mstore\n        /* \"#utility.yul\":3464:3468   */\n      0x41\n        /* \"#utility.yul\":3461:3462   */\n      0x04\n        /* \"#utility.yul\":3454:3469   */\n      mstore\n        /* \"#utility.yul\":3488:3492   */\n      0x24\n        /* \"#utility.yul\":3485:3486   */\n      0x00\n        /* \"#utility.yul\":3478:3493   */\n      revert\n        /* \"#utility.yul\":3505:3786   */\n    tag_54:\n        /* \"#utility.yul\":3588:3615   */\n      tag_111\n        /* \"#utility.yul\":3610:3614   */\n      dup3\n        /* \"#utility.yul\":3588:3615   */\n      tag_52\n      jump\t// in\n    tag_111:\n        /* \"#utility.yul\":3580:3586   */\n      dup2\n        /* \"#utility.yul\":3576:3616   */\n      add\n        /* \"#utility.yul\":3718:3724   */\n      dup2\n        /* \"#utility.yul\":3706:3716   */\n      dup2\n        /* \"#utility.yul\":3703:3725   */\n      lt\n        /* \"#utility.yul\":3682:3700   */\n      0xffffffffffffffff\n        /* \"#utility.yul\":3670:3680   */\n      dup3\n        /* \"#utility.yul\":3667:3701   */\n      gt\n        /* \"#utility.yul\":3664:3726   */\n      or\n        /* \"#utility.yul\":3661:3749   */\n      iszero\n      tag_112\n      jumpi\n        /* \"#utility.yul\":3729:3747   */\n      tag_113\n      tag_53\n      jump\t// in\n    tag_113:\n        /* \"#utility.yul\":3661:3749   */\n    tag_112:\n        /* \"#utility.yul\":3769:3779   */\n      dup1\n        /* \"#utility.yul\":3765:3767   */\n      0x40\n        /* \"#utility.yul\":3758:3780   */\n      mstore\n        /* \"#utility.yul\":3548:3786   */\n      pop\n        /* \"#utility.yul\":3505:3786   */\n      pop\n      pop\n      jump\t// out\n        /* \"#utility.yul\":3792:3921   */\n    tag_55:\n        /* \"#utility.yul\":3826:3832   */\n      0x00\n        /* \"#utility.yul\":3853:3873   */\n      tag_115\n      tag_40\n      jump\t// in\n    tag_115:\n        /* \"#utility.yul\":3843:3873   */\n      swap1\n      pop\n        /* \"#utility.yul\":3882:3915   */\n      tag_116\n        /* \"#utility.yul\":3910:3914   */\n      dup3\n        /* \"#utility.yul\":3902:3908   */\n      dup3\n        /* \"#utility.yul\":3882:3915   */\n      tag_54\n      jump\t// in\n    tag_116:\n        /* \"#utility.yul\":3792:3921   */\n      swap2\n      swap1\n      pop\n      jump\t// out\n        /* \"#utility.yul\":3927:4235   */\n    tag_56:\n        /* \"#utility.yul\":3989:3993   */\n      0x00\n        /* \"#utility.yul\":4079:4097   */\n      0xffffffffffffffff\n        /* \"#utility.yul\":4071:4077   */\n      dup3\n        /* \"#utility.yul\":4068:4098   */\n      gt\n        /* \"#utility.yul\":4065:4121   */\n      iszero\n      tag_118\n      jumpi\n        /* \"#utility.yul\":4101:4119   */\n      tag_119\n      tag_53\n      jump\t// in\n    tag_119:\n        /* \"#utility.yul\":4065:4121   */\n    tag_118:\n        /* \"#utility.yul\":4139:4168   */\n      tag_120\n        /* \"#utility.yul\":4161:4167   */\n      dup3\n        /* \"#utility.yul\":4139:4168   */\n      tag_52\n      jump\t// in\n    tag_120:\n        /* \"#utility.yul\":4131:4168   */\n      swap1\n      pop\n        /* \"#utility.yul\":4223:4227   */\n      0x20\n        /* \"#utility.yul\":4217:4221   */\n      dup2\n        /* \"#utility.yul\":4213:4228   */\n      add\n        /* \"#utility.yul\":4205:4228   */\n      swap1\n      pop\n        /* \"#utility.yul\":3927:4235   */\n      swap2\n      swap1\n      pop\n      jump\t// out\n        /* \"#utility.yul\":4241:4389   */\n    tag_57:\n        /* \"#utility.yul\":4339:4345   */\n      dup3\n        /* \"#utility.yul\":4334:4337   */\n      dup2\n        /* \"#utility.yul\":4329:4332   */\n      dup4\n        /* \"#utility.yul\":4316:4346   */\n      calldatacopy\n        /* \"#utility.yul\":4380:4381   */\n      0x00\n        /* \"#utility.yul\":4371:4377   */\n      dup4\n        /* \"#utility.yul\":4366:4369   */\n      dup4\n        /* \"#utility.yul\":4362:4378   */\n      add\n        /* \"#utility.yul\":4355:4382   */\n      mstore\n        /* \"#utility.yul\":4241:4389   */\n      pop\n      pop\n      pop\n      jump\t// out\n        /* \"#utility.yul\":4395:4820   */\n    tag_58:\n        /* \"#utility.yul\":4473:4478   */\n      0x00\n        /* \"#utility.yul\":4498:4564   */\n      tag_123\n        /* \"#utility.yul\":4514:4563   */\n      tag_124\n        /* \"#utility.yul\":4556:4562   */\n      dup5\n        /* \"#utility.yul\":4514:4563   */\n      tag_56\n      jump\t// in\n    tag_124:\n        /* \"#utility.yul\":4498:4564   */\n      tag_55\n      jump\t// in\n    tag_123:\n        /* \"#utility.yul\":4489:4564   */\n      swap1\n      pop\n        /* \"#utility.yul\":4587:4593   */\n      dup3\n        /* \"#utility.yul\":4580:4585   */\n      dup2\n        /* \"#utility.yul\":4573:4594   */\n      mstore\n        /* \"#utility.yul\":4625:4629   */\n      0x20\n        /* \"#utility.yul\":4618:4623   */\n      dup2\n        /* \"#utility.yul\":4614:4630   */\n      add\n        /* \"#utility.yul\":4663:4666   */\n      dup5\n        /* \"#utility.yul\":4654:4660   */\n      dup5\n        /* \"#utility.yul\":4649:4652   */\n      dup5\n        /* \"#utility.yul\":4645:4661   */\n      add\n        /* \"#utility.yul\":4642:4667   */\n      gt\n        /* \"#utility.yul\":4639:4751   */\n      iszero\n      tag_125\n      jumpi\n        /* \"#utility.yul\":4670:4749   */\n      tag_126\n      tag_51\n      jump\t// in\n    tag_126:\n        /* \"#utility.yul\":4639:4751   */\n    tag_125:\n        /* \"#utility.yul\":4760:4814   */\n      tag_127\n        /* \"#utility.yul\":4807:4813   */\n      dup5\n        /* \"#utility.yul\":4802:4805   */\n      dup3\n        /* \"#utility.yul\":4797:4800   */\n      dup6\n        /* \"#utility.yul\":4760:4814   */\n      tag_57\n      jump\t// in\n    tag_127:\n        /* \"#utility.yul\":4479:4820   */\n      pop\n        /* \"#utility.yul\":4395:4820   */\n      swap4\n      swap3\n      pop\n      pop\n      pop\n      jump\t// out\n        /* \"#utility.yul\":4840:5180   */\n    tag_59:\n        /* \"#utility.yul\":4896:4901   */\n      0x00\n        /* \"#utility.yul\":4945:4948   */\n      dup3\n        /* \"#utility.yul\":4938:4942   */\n      0x1f\n        /* \"#utility.yul\":4930:4936   */\n      dup4\n        /* \"#utility.yul\":4926:4943   */\n      add\n        /* \"#utility.yul\":4922:4949   */\n      slt\n        /* \"#utility.yul\":4912:5034   */\n      tag_129\n      jumpi\n        /* \"#utility.yul\":4953:5032   */\n      tag_130\n      tag_43\n      jump\t// in\n    tag_130:\n        /* \"#utility.yul\":4912:5034   */\n    tag_129:\n        /* \"#utility.yul\":5070:5076   */\n      dup2\n        /* \"#utility.yul\":5057:5077   */\n      calldataload\n        /* \"#utility.yul\":5095:5174   */\n      tag_131\n        /* \"#utility.yul\":5170:5173   */\n      dup5\n        /* \"#utility.yul\":5162:5168   */\n      dup3\n        /* \"#utility.yul\":5155:5159   */\n      0x20\n        /* \"#utility.yul\":5147:5153   */\n      dup7\n        /* \"#utility.yul\":5143:5160   */\n      add\n        /* \"#utility.yul\":5095:5174   */\n      tag_58\n      jump\t// in\n    tag_131:\n        /* \"#utility.yul\":5086:5174   */\n      swap2\n      pop\n        /* \"#utility.yul\":4902:5180   */\n      pop\n        /* \"#utility.yul\":4840:5180   */\n      swap3\n      swap2\n      pop\n      pop\n      jump\t// out\n        /* \"#utility.yul\":5186:5695   */\n    tag_27:\n        /* \"#utility.yul\":5255:5261   */\n      0x00\n        /* \"#utility.yul\":5304:5306   */\n      0x20\n        /* \"#utility.yul\":5292:5301   */\n      dup3\n        /* \"#utility.yul\":5283:5290   */\n      dup5\n        /* \"#utility.yul\":5279:5302   */\n      sub\n        /* \"#utility.yul\":5275:5307   */\n      slt\n        /* \"#utility.yul\":5272:5391   */\n      iszero\n      tag_133\n      jumpi\n        /* \"#utility.yul\":5310:5389   */\n      tag_134\n      tag_41\n      jump\t// in\n    tag_134:\n        /* \"#utility.yul\":5272:5391   */\n    tag_133:\n        /* \"#utility.yul\":5458:5459   */\n      0x00\n        /* \"#utility.yul\":5447:5456   */\n      dup3\n        /* \"#utility.yul\":5443:5460   */\n      add\n        /* \"#utility.yul\":5430:5461   */\n      calldataload\n        /* \"#utility.yul\":5488:5506   */\n      0xffffffffffffffff\n        /* \"#utility.yul\":5480:5486   */\n      dup2\n        /* \"#utility.yul\":5477:5507   */\n      gt\n        /* \"#utility.yul\":5474:5591   */\n      iszero\n      tag_135\n      jumpi\n        /* \"#utility.yul\":5510:5589   */\n      tag_136\n      tag_42\n      jump\t// in\n    tag_136:\n        /* \"#utility.yul\":5474:5591   */\n    tag_135:\n        /* \"#utility.yul\":5615:5678   */\n      tag_137\n        /* \"#utility.yul\":5670:5677   */\n      dup5\n        /* \"#utility.yul\":5661:5667   */\n      dup3\n        /* \"#utility.yul\":5650:5659   */\n      dup6\n        /* \"#utility.yul\":5646:5668   */\n      add\n        /* \"#utility.yul\":5615:5678   */\n      tag_59\n      jump\t// in\n    tag_137:\n        /* \"#utility.yul\":5605:5678   */\n      swap2\n      pop\n        /* \"#utility.yul\":5401:5688   */\n      pop\n        /* \"#utility.yul\":5186:5695   */\n      swap3\n      swap2\n      pop\n      pop\n      jump\t// out\n        /* \"#utility.yul\":5701:5791   */\n    tag_60:\n        /* \"#utility.yul\":5735:5742   */\n      0x00\n        /* \"#utility.yul\":5778:5783   */\n      dup2\n        /* \"#utility.yul\":5771:5784   */\n      iszero\n        /* \"#utility.yul\":5764:5785   */\n      iszero\n        /* \"#utility.yul\":5753:5785   */\n      swap1\n      pop\n        /* \"#utility.yul\":5701:5791   */\n      swap2\n      swap1\n      pop\n      jump\t// out\n        /* \"#utility.yul\":5797:5906   */\n    tag_61:\n        /* \"#utility.yul\":5878:5899   */\n      tag_140\n        /* \"#utility.yul\":5893:5898   */\n      dup2\n        /* \"#utility.yul\":5878:5899   */\n      tag_60\n      jump\t// in\n    tag_140:\n        /* \"#utility.yul\":5873:5876   */\n      dup3\n        /* \"#utility.yul\":5866:5900   */\n      mstore\n        /* \"#utility.yul\":5797:5906   */\n      pop\n      pop\n      jump\t// out\n        /* \"#utility.yul\":5912:6122   */\n    tag_30:\n        /* \"#utility.yul\":5999:6003   */\n      0x00\n        /* \"#utility.yul\":6037:6039   */\n      0x20\n        /* \"#utility.yul\":6026:6035   */\n      dup3\n        /* \"#utility.yul\":6022:6040   */\n      add\n        /* \"#utility.yul\":6014:6040   */\n      swap1\n      pop\n        /* \"#utility.yul\":6050:6115   */\n      tag_142\n        /* \"#utility.yul\":6112:6113   */\n      0x00\n        /* \"#utility.yul\":6101:6110   */\n      dup4\n        /* \"#utility.yul\":6097:6114   */\n      add\n        /* \"#utility.yul\":6088:6094   */\n      dup5\n        /* \"#utility.yul\":6050:6115   */\n      tag_61\n      jump\t// in\n    tag_142:\n        /* \"#utility.yul\":5912:6122   */\n      swap3\n      swap2\n      pop\n      pop\n      jump\t// out\n        /* \"#utility.yul\":6128:6308   */\n    tag_62:\n        /* \"#utility.yul\":6176:6253   */\n      0x4e487b7100000000000000000000000000000000000000000000000000000000\n        /* \"#utility.yul\":6173:6174   */\n      0x00\n        /* \"#utility.yul\":6166:6254   */\n      mstore\n        /* \"#utility.yul\":6273:6277   */\n      0x11\n        /* \"#utility.yul\":6270:6271   */\n      0x04\n        /* \"#utility.yul\":6263:6278   */\n      mstore\n        /* \"#utility.yul\":6297:6301   */\n      0x24\n        /* \"#utility.yul\":6294:6295   */\n      0x00\n        /* \"#utility.yul\":6287:6302   */\n      revert\n        /* \"#utility.yul\":6314:6547   */\n    tag_34:\n        /* \"#utility.yul\":6353:6356   */\n      0x00\n        /* \"#utility.yul\":6376:6400   */\n      tag_145\n        /* \"#utility.yul\":6394:6399   */\n      dup3\n        /* \"#utility.yul\":6376:6400   */\n      tag_38\n      jump\t// in\n    tag_145:\n        /* \"#utility.yul\":6367:6400   */\n      swap2\n      pop\n        /* \"#utility.yul\":6422:6488   */\n      0xffffffffffffffffffffffffffffffffffffffffffffffffffffffffffffffff\n        /* \"#utility.yul\":6415:6420   */\n      dup3\n        /* \"#utility.yul\":6412:6489   */\n      sub\n        /* \"#utility.yul\":6409:6512   */\n      tag_146\n      jumpi\n        /* \"#utility.yul\":6492:6510   */\n      tag_147\n      tag_62\n      jump\t// in\n    tag_147:\n        /* \"#utility.yul\":6409:6512   */\n    tag_146:\n        /* \"#utility.yul\":6539:6540   */\n      0x01\n        /* \"#utility.yul\":6532:6537   */\n      dup3\n        /* \"#utility.yul\":6528:6541   */\n      add\n        /* \"#utility.yul\":6521:6541   */\n      swap1\n      pop\n        /* \"#utility.yul\":6314:6547   */\n      swap2\n      swap1\n      pop\n      jump\t// out\n        /* \"#utility.yul\":6553:6722   */\n    tag_63:\n        /* \"#utility.yul\":6637:6648   */\n      0x00\n        /* \"#utility.yul\":6671:6677   */\n      dup3\n        /* \"#utility.yul\":6666:6669   */\n      dup3\n        /* \"#utility.yul\":6659:6678   */\n      mstore\n        /* \"#utility.yul\":6711:6715   */\n      0x20\n        /* \"#utility.yul\":6706:6709   */\n      dup3\n        /* \"#utility.yul\":6702:6716   */\n      add\n        /* \"#utility.yul\":6687:6716   */\n      swap1\n      pop\n        /* \"#utility.yul\":6553:6722   */\n      swap3\n      swap2\n      pop\n      pop\n      jump\t// out\n        /* \"#utility.yul\":6752:7069   */\n    tag_64:\n        /* \"#utility.yul\":6850:6853   */\n      0x00\n        /* \"#utility.yul\":6871:6942   */\n      tag_150\n        /* \"#utility.yul\":6935:6941   */\n      dup4\n        /* \"#utility.yul\":6930:6933   */\n      dup6\n        /* \"#utility.yul\":6871:6942   */\n      tag_63\n      jump\t// in\n    tag_150:\n        /* \"#utility.yul\":6864:6942   */\n      swap4\n      pop\n        /* \"#utility.yul\":6952:7008   */\n      tag_151\n        /* \"#utility.yul\":7001:7007   */\n      dup4\n        /* \"#utility.yul\":6996:6999   */\n      dup6\n        /* \"#utility.yul\":6989:6994   */\n      dup5\n        /* \"#utility.yul\":6952:7008   */\n      tag_57\n      jump\t// in\n    tag_151:\n        /* \"#utility.yul\":7033:7062   */\n      tag_152\n        /* \"#utility.yul\":7055:7061   */\n      dup4\n        /* \"#utility.yul\":7033:7062   */\n      tag_52\n      jump\t// in\n    tag_152:\n        /* \"#utility.yul\":7028:7031   */\n      dup5\n        /* \"#utility.yul\":7024:7063   */\n      add\n        /* \"#utility.yul\":7017:7063   */\n      swap1\n      pop\n        /* \"#utility.yul\":6752:7069   */\n      swap4\n      swap3\n      pop\n      pop\n      pop\n      jump\t// out\n        /* \"#utility.yul\":7075:7255   */\n    tag_65:\n        /* \"#utility.yul\":7123:7200   */\n      0x4e487b7100000000000000000000000000000000000000000000000000000000\n        /* \"#utility.yul\":7120:7121   */\n      0x00\n        /* \"#utility.yul\":7113:7201   */\n      mstore\n        /* \"#utility.yul\":7220:7224   */\n      0x21\n        /* \"#utility.yul\":7217:7218   */\n      0x04\n        /* \"#utility.yul\":7210:7225   */\n      mstore\n        /* \"#utility.yul\":7244:7248   */\n      0x24\n        /* \"#utility.yul\":7241:7242   */\n      0x00\n        /* \"#utility.yul\":7234:7249   */\n      revert\n        /* \"#utility.yul\":7261:7397   */\n    tag_66:\n        /* \"#utility.yul\":7365:7366   */\n      0x04\n        /* \"#utility.yul\":7358:7363   */\n      dup2\n        /* \"#utility.yul\":7355:7367   */\n      lt\n        /* \"#utility.yul\":7345:7391   */\n      tag_155\n      jumpi\n        /* \"#utility.yul\":7371:7389   */\n      tag_156\n      tag_65\n      jump\t// in\n    tag_156:\n        /* \"#utility.yul\":7345:7391   */\n    tag_155:\n        /* \"#utility.yul\":7261:7397   */\n      pop\n      jump\t// out\n        /* \"#utility.yul\":7403:7576   */\n    tag_67:\n        /* \"#utility.yul\":7471:7478   */\n      0x00\n        /* \"#utility.yul\":7500:7505   */\n      dup2\n        /* \"#utility.yul\":7489:7505   */\n      swap1\n      pop\n        /* \"#utility.yul\":7506:7570   */\n      tag_158\n        /* \"#utility.yul\":7564:7569   */\n      dup3\n        /* \"#utility.yul\":7506:7570   */\n      tag_66\n      jump\t// in\n    tag_158:\n        /* \"#utility.yul\":7403:7576   */\n      swap2\n      swap1\n      pop\n      jump\t// out\n        /* \"#utility.yul\":7582:7755   */\n    tag_68:\n        /* \"#utility.yul\":7661:7670   */\n      0x00\n        /* \"#utility.yul\":7694:7749   */\n      tag_160\n        /* \"#utility.yul\":7743:7748   */\n      dup3\n        /* \"#utility.yul\":7694:7749   */\n      tag_67\n      jump\t// in\n    tag_160:\n        /* \"#utility.yul\":7681:7749   */\n      swap1\n      pop\n        /* \"#utility.yul\":7582:7755   */\n      swap2\n      swap1\n      pop\n      jump\t// out\n        /* \"#utility.yul\":7761:7950   */\n    tag_69:\n        /* \"#utility.yul\":7877:7943   */\n      tag_162\n        /* \"#utility.yul\":7937:7942   */\n      dup2\n        /* \"#utility.yul\":7877:7943   */\n      tag_68\n      jump\t// in\n    tag_162:\n        /* \"#utility.yul\":7872:7875   */\n      dup3\n        /* \"#utility.yul\":7865:7944   */\n      mstore\n        /* \"#utility.yul\":7761:7950   */\n      pop\n      pop\n      jump\t// out\n        /* \"#utility.yul\":7956:8457   */\n    tag_37:\n        /* \"#utility.yul\":8136:8140   */\n      0x00\n        /* \"#utility.yul\":8174:8176   */\n      0x40\n        /* \"#utility.yul\":8163:8172   */\n      dup3\n        /* \"#utility.yul\":8159:8177   */\n      add\n        /* \"#utility.yul\":8151:8177   */\n      swap1\n      pop\n        /* \"#utility.yul\":8223:8232   */\n      dup2\n        /* \"#utility.yul\":8217:8221   */\n      dup2\n        /* \"#utility.yul\":8213:8233   */\n      sub\n        /* \"#utility.yul\":8209:8210   */\n      0x00\n        /* \"#utility.yul\":8198:8207   */\n      dup4\n        /* \"#utility.yul\":8194:8211   */\n      add\n        /* \"#utility.yul\":8187:8234   */\n      mstore\n        /* \"#utility.yul\":8251:8339   */\n      tag_164\n        /* \"#utility.yul\":8334:8338   */\n      dup2\n        /* \"#utility.yul\":8325:8331   */\n      dup6\n        /* \"#utility.yul\":8317:8323   */\n      dup8\n        /* \"#utility.yul\":8251:8339   */\n      tag_64\n      jump\t// in\n    tag_164:\n        /* \"#utility.yul\":8243:8339   */\n      swap1\n      pop\n        /* \"#utility.yul\":8349:8450   */\n      tag_165\n        /* \"#utility.yul\":8446:8448   */\n      0x20\n        /* \"#utility.yul\":8435:8444   */\n      dup4\n        /* \"#utility.yul\":8431:8449   */\n      add\n        /* \"#utility.yul\":8422:8428   */\n      dup5\n        /* \"#utility.yul\":8349:8450   */\n      tag_69\n      jump\t// in\n    tag_165:\n        /* \"#utility.yul\":7956:8457   */\n      swap5\n      swap4\n      pop\n      pop\n      pop\n      pop\n      jump\t// out\n\n    auxdata: 0xa2646970667358221220f312de21c9ebaca37b83f25b5479701df7e5f85c587da4f6517f3a81ed1fe67764736f6c634300081a0033\n}\n",
				"bytecode": {
					"linkReferences": {},
					"object": "608060405234801561000f575f80fd5b50604051610bc5380380610bc5833981810160405281019061003191906102cf565b5f5b8151811015610099576001600283838151811061005357610052610316565b5b60200260200101516040516100689190610387565b90815260200160405180910390205f6101000a81548160ff0219169083151502179055508080600101915050610033565b505061039d565b5f604051905090565b5f80fd5b5f80fd5b5f80fd5b5f601f19601f8301169050919050565b7f4e487b71000000000000000000000000000000000000000000000000000000005f52604160045260245ffd5b6100fb826100b5565b810181811067ffffffffffffffff8211171561011a576101196100c5565b5b80604052505050565b5f61012c6100a0565b905061013882826100f2565b919050565b5f67ffffffffffffffff821115610157576101566100c5565b5b602082029050602081019050919050565b5f80fd5b5f80fd5b5f67ffffffffffffffff82111561018a576101896100c5565b5b610193826100b5565b9050602081019050919050565b8281835e5f83830152505050565b5f6101c06101bb84610170565b610123565b9050828152602081018484840111156101dc576101db61016c565b5b6101e78482856101a0565b509392505050565b5f82601f830112610203576102026100b1565b5b81516102138482602086016101ae565b91505092915050565b5f61022e6102298461013d565b610123565b9050808382526020820190506020840283018581111561025157610250610168565b5b835b8181101561029857805167ffffffffffffffff811115610276576102756100b1565b5b80860161028389826101ef565b85526020850194505050602081019050610253565b5050509392505050565b5f82601f8301126102b6576102b56100b1565b5b81516102c684826020860161021c565b91505092915050565b5f602082840312156102e4576102e36100a9565b5b5f82015167ffffffffffffffff811115610301576103006100ad565b5b61030d848285016102a2565b91505092915050565b7f4e487b71000000000000000000000000000000000000000000000000000000005f52603260045260245ffd5b5f81519050919050565b5f81905092915050565b5f61036182610343565b61036b818561034d565b935061037b8185602086016101a0565b80840191505092915050565b5f6103928284610357565b915081905092915050565b61081b806103aa5f395ff3fe608060405234801561000f575f80fd5b5060043610610055575f3560e01c80630d2a95ef146100595780631eb41b71146100775780633e9893a614610093578063952ca92c146100c3578063fddc968e146100f3575b5f80fd5b610061610123565b60405161006e9190610385565b60405180910390f35b610091600480360381019061008c9190610410565b610128565b005b6100ad60048036038101906100a891906104b5565b61030f565b6040516100ba9190610385565b60405180910390f35b6100dd60048036038101906100d891906104b5565b610324565b6040516100ea9190610385565b60405180910390f35b61010d60048036038101906101089190610618565b610338565b60405161011a9190610679565b60405180910390f35b600581565b5f803373ffffffffffffffffffffffffffffffffffffffff1673ffffffffffffffffffffffffffffffffffffffff1681526020019081526020015f205443146101ef57435f803373ffffffffffffffffffffffffffffffffffffffff1673ffffffffffffffffffffffffffffffffffffffff1681526020019081526020015f20819055505f60015f3373ffffffffffffffffffffffffffffffffffffffff1673ffffffffffffffffffffffffffffffffffffffff1681526020019081526020015f20819055505b60015f3373ffffffffffffffffffffffffffffffffffffffff1673ffffffffffffffffffffffffffffffffffffffff1681526020019081526020015f205f81548092919061023c906106bf565b9190505550600560015f3373ffffffffffffffffffffffffffffffffffffffff1673ffffffffffffffffffffffffffffffffffffffff1681526020019081526020015f205411156102b9576040517f318aa16700000000000000000000000000000000000000000000000000000000815260040160405180910390fd5b3373ffffffffffffffffffffffffffffffffffffffff167fdc840972025b14465e97e71ee4dc2050a4cf483e3feb7d6af5fa0b68ee58ec2f83835f604051610303939291906107b5565b60405180910390a25050565b6001602052805f5260405f205f915090505481565b5f602052805f5260405f205f915090505481565b6002818051602081018201805184825260208301602085012081835280955050505050505f915054906101000a900460ff1681565b5f819050919050565b61037f8161036d565b82525050565b5f6020820190506103985f830184610376565b92915050565b5f604051905090565b5f80fd5b5f80fd5b5f80fd5b5f80fd5b5f80fd5b5f8083601f8401126103d0576103cf6103af565b5b8235905067ffffffffffffffff8111156103ed576103ec6103b3565b5b602083019150836001820283011115610409576104086103b7565b5b9250929050565b5f8060208385031215610426576104256103a7565b5b5f83013567ffffffffffffffff811115610443576104426103ab565b5b61044f858286016103bb565b92509250509250929050565b5f73ffffffffffffffffffffffffffffffffffffffff82169050919050565b5f6104848261045b565b9050919050565b6104948161047a565b811461049e575f80fd5b50565b5f813590506104af8161048b565b92915050565b5f602082840312156104ca576104c96103a7565b5b5f6104d7848285016104a1565b91505092915050565b5f80fd5b5f601f19601f8301169050919050565b7f4e487b71000000000000000000000000000000000000000000000000000000005f52604160045260245ffd5b61052a826104e4565b810181811067ffffffffffffffff82111715610549576105486104f4565b5b80604052505050565b5f61055b61039e565b90506105678282610521565b919050565b5f67ffffffffffffffff821115610586576105856104f4565b5b61058f826104e4565b9050602081019050919050565b828183375f83830152505050565b5f6105bc6105b78461056c565b610552565b9050828152602081018484840111156105d8576105d76104e0565b5b6105e384828561059c565b509392505050565b5f82601f8301126105ff576105fe6103af565b5b813561060f8482602086016105aa565b91505092915050565b5f6020828403121561062d5761062c6103a7565b5b5f82013567ffffffffffffffff81111561064a576106496103ab565b5b610656848285016105eb565b91505092915050565b5f8115159050919050565b6106738161065f565b82525050565b5f60208201905061068c5f83018461066a565b92915050565b7f4e487b71000000000000000000000000000000000000000000000000000000005f52601160045260245ffd5b5f6106c98261036d565b91507fffffffffffffffffffffffffffffffffffffffffffffffffffffffffffffffff82036106fb576106fa610692565b5b600182019050919050565b5f82825260208201905092915050565b5f6107218385610706565b935061072e83858461059c565b610737836104e4565b840190509392505050565b7f4e487b71000000000000000000000000000000000000000000000000000000005f52602160045260245ffd5b600481106107805761077f610742565b5b50565b5f8190506107908261076f565b919050565b5f61079f82610783565b9050919050565b6107af81610795565b82525050565b5f6040820190508181035f8301526107ce818587610716565b90506107dd60208301846107a6565b94935050505056fea2646970667358221220f312de21c9ebaca37b83f25b5479701df7e5f85c587da4f6517f3a81ed1fe67764736f6c634300081a0033",
					"opcodes": "PUSH1 0x80 PUSH1 0x40 MSTORE CALLVALUE DUP1 ISZERO PUSH2 0xF JUMPI PUSH0 DUP1 REVERT JUMPDEST POP PUSH1 0x40 MLOAD PUSH2 0xBC5 CODESIZE SUB DUP1 PUSH2 0xBC5 DUP4 CODECOPY DUP2 DUP2 ADD PUSH1 0x40 MSTORE DUP2 ADD SWAP1 PUSH2 0x31 SWAP2 SWAP1 PUSH2 0x2CF JUMP JUMPDEST PUSH0 JUMPDEST DUP2 MLOAD DUP2 LT ISZERO PUSH2 0x99 JUMPI PUSH1 0x1 PUSH1 0x2 DUP4 DUP4 DUP2 MLOAD DUP2 LT PUSH2 0x53 JUMPI PUSH2 0x52 PUSH2 0x316 JUMP JUMPDEST JUMPDEST PUSH1 0x20 MUL PUSH1 0x20 ADD ADD MLOAD PUSH1 0x40 MLOAD PUSH2 0x68 SWAP2 SWAP1 PUSH2 0x387 JUMP JUMPDEST SWAP1 DUP2 MSTORE PUSH1 0x20 ADD PUSH1 0x40 MLOAD DUP1 SWAP2 SUB SWAP1 KECCAK256 PUSH0 PUSH2 0x100 EXP DUP2 SLOAD DUP2 PUSH1 0xFF MUL NOT AND SWAP1 DUP4 ISZERO ISZERO MUL OR SWAP1 SSTORE POP DUP1 DUP1 PUSH1 0x1 ADD SWAP2 POP POP PUSH2 0x33 JUMP JUMPDEST POP POP PUSH2 0x39D JUMP JUMPDEST PUSH0 PUSH1 0x40 MLOAD SWAP1 POP SWAP1 JUMP JUMPDEST PUSH0 DUP1 REVERT JUMPDEST PUSH0 DUP1 REVERT JUMPDEST PUSH0 DUP1 REVERT JUMPDEST PUSH0 PUSH1 0x1F NOT PUSH1 0x1F DUP4 ADD AND SWAP1 POP SWAP2 SWAP1 POP JUMP JUMPDEST PUSH32 0x4E487B7100000000000000000000000000000000000000000000000000000000 PUSH0 MSTORE PUSH1 0x41 PUSH1 0x4 MSTORE PUSH1 0x24 PUSH0 REVERT JUMPDEST PUSH2 0xFB DUP3 PUSH2 0xB5 JUMP JUMPDEST DUP2 ADD DUP2 DUP2 LT PUSH8 0xFFFFFFFFFFFFFFFF DUP3 GT OR ISZERO PUSH2 0x11A JUMPI PUSH2 0x119 PUSH2 0xC5 JUMP JUMPDEST JUMPDEST DUP1 PUSH1 0x40 MSTORE POP POP POP JUMP JUMPDEST PUSH0 PUSH2 0x12C PUSH2 0xA0 JUMP JUMPDEST SWAP1 POP PUSH2 0x138 DUP3 DUP3 PUSH2 0xF2 JUMP JUMPDEST SWAP2 SWAP1 POP JUMP JUMPDEST PUSH0 PUSH8 0xFFFFFFFFFFFFFFFF DUP3 GT ISZERO PUSH2 0x157 JUMPI PUSH2 0x156 PUSH2 0xC5 JUMP JUMPDEST JUMPDEST PUSH1 0x20 DUP3 MUL SWAP1 POP PUSH1 0x20 DUP2 ADD SWAP1 POP SWAP2 SWAP1 POP JUMP JUMPDEST PUSH0 DUP1 REVERT JUMPDEST PUSH0 DUP1 REVERT JUMPDEST PUSH0 PUSH8 0xFFFFFFFFFFFFFFFF DUP3 GT ISZERO PUSH2 0x18A JUMPI PUSH2 0x189 PUSH2 0xC5 JUMP JUMPDEST JUMPDEST PUSH2 0x193 DUP3 PUSH2 0xB5 JUMP JUMPDEST SWAP1 POP PUSH1 0x20 DUP2 ADD SWAP1 POP SWAP2 SWAP1 POP JUMP JUMPDEST DUP3 DUP2 DUP4 MCOPY PUSH0 DUP4 DUP4 ADD MSTORE POP POP POP JUMP JUMPDEST PUSH0 PUSH2 0x1C0 PUSH2 0x1BB DUP5 PUSH2 0x170 JUMP JUMPDEST PUSH2 0x123 JUMP JUMPDEST SWAP1 POP DUP3 DUP2 MSTORE PUSH1 0x20 DUP2 ADD DUP5 DUP5 DUP5 ADD GT ISZERO PUSH2 0x1DC JUMPI PUSH2 0x1DB PUSH2 0x16C JUMP JUMPDEST JUMPDEST PUSH2 0x1E7 DUP5 DUP3 DUP6 PUSH2 0x1A0 JUMP JUMPDEST POP SWAP4 SWAP3 POP POP POP JUMP JUMPDEST PUSH0 DUP3 PUSH1 0x1F DUP4 ADD SLT PUSH2 0x203 JUMPI PUSH2 0x202 PUSH2 0xB1 JUMP JUMPDEST JUMPDEST DUP2 MLOAD PUSH2 0x213 DUP5 DUP3 PUSH1 0x20 DUP7 ADD PUSH2 0x1AE JUMP JUMPDEST SWAP2 POP POP SWAP3 SWAP2 POP POP JUMP JUMPDEST PUSH0 PUSH2 0x22E PUSH2 0x229 DUP5 PUSH2 0x13D JUMP JUMPDEST PUSH2 0x123 JUMP JUMPDEST SWAP1 POP DUP1 DUP4 DUP3 MSTORE PUSH1 0x20 DUP3 ADD SWAP1 POP PUSH1 0x20 DUP5 MUL DUP4 ADD DUP6 DUP2 GT ISZERO PUSH2 0x251 JUMPI PUSH2 0x250 PUSH2 0x168 JUMP JUMPDEST JUMPDEST DUP4 JUMPDEST DUP2 DUP2 LT ISZERO PUSH2 0x298 JUMPI DUP1 MLOAD PUSH8 0xFFFFFFFFFFFFFFFF DUP2 GT ISZERO PUSH2 0x276 JUMPI PUSH2 0x275 PUSH2 0xB1 JUMP JUMPDEST JUMPDEST DUP1 DUP7 ADD PUSH2 0x283 DUP10 DUP3 PUSH2 0x1EF JUMP JUMPDEST DUP6 MSTORE PUSH1 0x20 DUP6 ADD SWAP5 POP POP POP PUSH1 0x20 DUP2 ADD SWAP1 POP PUSH2 0x253 JUMP JUMPDEST POP POP POP SWAP4 SWAP3 POP POP POP JUMP JUMPDEST PUSH0 DUP3 PUSH1 0x1F DUP4 ADD SLT PUSH2 0x2B6 JUMPI PUSH2 0x2B5 PUSH2 0xB1 JUMP JUMPDEST JUMPDEST DUP2 MLOAD PUSH2 0x2C6 DUP5 DUP3 PUSH1 0x20 DUP7 ADD PUSH2 0x21C JUMP JUMPDEST SWAP2 POP POP SWAP3 SWAP2 POP POP JUMP JUMPDEST PUSH0 PUSH1 0x20 DUP3 DUP5 SUB SLT ISZERO PUSH2 0x2E4 JUMPI PUSH2 0x2E3 PUSH2 0xA9 JUMP JUMPDEST JUMPDEST PUSH0 DUP3 ADD MLOAD PUSH8 0xFFFFFFFFFFFFFFFF DUP2 GT ISZERO PUSH2 0x301 JUMPI PUSH2 0x300 PUSH2 0xAD JUMP JUMPDEST JUMPDEST PUSH2 0x30D DUP5 DUP3 DUP6 ADD PUSH2 0x2A2 JUMP JUMPDEST SWAP2 POP POP SWAP3 SWAP2 POP POP JUMP JUMPDEST PUSH32 0x4E487B7100000000000000000000000000000000000000000000000000000000 PUSH0 MSTORE PUSH1 0x32 PUSH1 0x4 MSTORE PUSH1 0x24 PUSH0 REVERT JUMPDEST PUSH0 DUP2 MLOAD SWAP1 POP SWAP2 SWAP1 POP JUMP JUMPDEST PUSH0 DUP2 SWAP1 POP SWAP3 SWAP2 POP POP JUMP JUMPDEST PUSH0 PUSH2 0x361 DUP3 PUSH2 0x343 JUMP JUMPDEST PUSH2 0x36B DUP2 DUP6 PUSH2 0x34D JUMP JUMPDEST SWAP4 POP PUSH2 0x37B DUP2 DUP6 PUSH1 0x20 DUP7 ADD PUSH2 0x1A0 JUMP JUMPDEST DUP1 DUP5 ADD SWAP2 POP POP SWAP3 SWAP2 POP POP JUMP JUMPDEST PUSH0 PUSH2 0x392 DUP3 DUP5 PUSH2 0x357 JUMP JUMPDEST SWAP2 POP DUP2 SWAP1 POP SWAP3 SWAP2 POP POP JUMP JUMPDEST PUSH2 0x81B DUP1 PUSH2 0x3AA PUSH0 CODECOPY PUSH0 RETURN INVALID PUSH1 0x80 PUSH1 0x40 MSTORE CALLVALUE DUP1 ISZERO PUSH2 0xF JUMPI PUSH0 DUP1 REVERT JUMPDEST POP PUSH1 0x4 CALLDATASIZE LT PUSH2 0x55 JUMPI PUSH0 CALLDATALOAD PUSH1 0xE0 SHR DUP1 PUSH4 0xD2A95EF EQ PUSH2 0x59 JUMPI DUP1 PUSH4 0x1EB41B71 EQ PUSH2 0x77 JUMPI DUP1 PUSH4 0x3E9893A6 EQ PUSH2 0x93 JUMPI DUP1 PUSH4 0x952CA92C EQ PUSH2 0xC3 JUMPI DUP1 PUSH4 0xFDDC968E EQ PUSH2 0xF3 JUMPI JUMPDEST PUSH0 DUP1 REVERT JUMPDEST PUSH2 0x61 PUSH2 0x123 JUMP JUMPDEST PUSH1 0x40 MLOAD PUSH2 0x6E SWAP2 SWAP1 PUSH2 0x385 JUMP JUMPDEST PUSH1 0x40 MLOAD DUP1 SWAP2 SUB SWAP1 RETURN JUMPDEST PUSH2 0x91 PUSH1 0x4 DUP1 CALLDATASIZE SUB DUP2 ADD SWAP1 PUSH2 0x8C SWAP2 SWAP1 PUSH2 0x410 JUMP JUMPDEST PUSH2 0x128 JUMP JUMPDEST STOP JUMPDEST PUSH2 0xAD PUSH1 0x4 DUP1 CALLDATASIZE SUB DUP2 ADD SWAP1 PUSH2 0xA8 SWAP2 SWAP1 PUSH2 0x4B5 JUMP JUMPDEST PUSH2 0x30F JUMP JUMPDEST PUSH1 0x40 MLOAD PUSH2 0xBA SWAP2 SWAP1 PUSH2 0x385 JUMP JUMPDEST PUSH1 0x40 MLOAD DUP1 SWAP2 SUB SWAP1 RETURN JUMPDEST PUSH2 0xDD PUSH1 0x4 DUP1 CALLDATASIZE SUB DUP2 ADD SWAP1 PUSH2 0xD8 SWAP2 SWAP1 PUSH2 0x4B5 JUMP JUMPDEST PUSH2 0x324 JUMP JUMPDEST PUSH1 0x40 MLOAD PUSH2 0xEA SWAP2 SWAP1 PUSH2 0x385 JUMP JUMPDEST PUSH1 0x40 MLOAD DUP1 SWAP2 SUB SWAP1 RETURN JUMPDEST PUSH2 0x10D PUSH1 0x4 DUP1 CALLDATASIZE SUB DUP2 ADD SWAP1 PUSH2 0x108 SWAP2 SWAP1 PUSH2 0x618 JUMP JUMPDEST PUSH2 0x338 JUMP JUMPDEST PUSH1 0x40 MLOAD PUSH2 0x11A SWAP2 SWAP1 PUSH2 0x679 JUMP JUMPDEST PUSH1 0x40 MLOAD DUP1 SWAP2 SUB SWAP1 RETURN JUMPDEST PUSH1 0x5 DUP2 JUMP JUMPDEST PUSH0 DUP1 CALLER PUSH20 0xFFFFFFFFFFFFFFFFFFFFFFFFFFFFFFFFFFFFFFFF AND PUSH20 0xFFFFFFFFFFFFFFFFFFFFFFFFFFFFFFFFFFFFFFFF AND DUP2 MSTORE PUSH1 0x20 ADD SWAP1 DUP2 MSTORE PUSH1 0x20 ADD PUSH0 KECCAK256 SLOAD NUMBER EQ PUSH2 0x1EF JUMPI NUMBER PUSH0 DUP1 CALLER PUSH20 0xFFFFFFFFFFFFFFFFFFFFFFFFFFFFFFFFFFFFFFFF AND PUSH20 0xFFFFFFFFFFFFFFFFFFFFFFFFFFFFFFFFFFFFFFFF AND DUP2 MSTORE PUSH1 0x20 ADD SWAP1 DUP2 MSTORE PUSH1 0x20 ADD PUSH0 KECCAK256 DUP2 SWAP1 SSTORE POP PUSH0 PUSH1 0x1 PUSH0 CALLER PUSH20 0xFFFFFFFFFFFFFFFFFFFFFFFFFFFFFFFFFFFFFFFF AND PUSH20 0xFFFFFFFFFFFFFFFFFFFFFFFFFFFFFFFFFFFFFFFF AND DUP2 MSTORE PUSH1 0x20 ADD SWAP1 DUP2 MSTORE PUSH1 0x20 ADD PUSH0 KECCAK256 DUP2 SWAP1 SSTORE POP JUMPDEST PUSH1 0x1 PUSH0 CALLER PUSH20 0xFFFFFFFFFFFFFFFFFFFFFFFFFFFFFFFFFFFFFFFF AND PUSH20 0xFFFFFFFFFFFFFFFFFFFFFFFFFFFFFFFFFFFFFFFF AND DUP2 MSTORE PUSH1 0x20 ADD SWAP1 DUP2 MSTORE PUSH1 0x20 ADD PUSH0 KECCAK256 PUSH0 DUP2 SLOAD DUP1 SWAP3 SWAP2 SWAP1 PUSH2 0x23C SWAP1 PUSH2 0x6BF JUMP JUMPDEST SWAP2 SWAP1 POP SSTORE POP PUSH1 0x5 PUSH1 0x1 PUSH0 CALLER PUSH20 0xFFFFFFFFFFFFFFFFFFFFFFFFFFFFFFFFFFFFFFFF AND PUSH20 0xFFFFFFFFFFFFFFFFFFFFFFFFFFFFFFFFFFFFFFFF AND DUP2 MSTORE PUSH1 0x20 ADD SWAP1 DUP2 MSTORE PUSH1 0x20 ADD PUSH0 KECCAK256 SLOAD GT ISZERO PUSH2 0x2B9 JUMPI PUSH1 0x40 MLOAD PUSH32 0x318AA16700000000000000000000000000000000000000000000000000000000 DUP2 MSTORE PUSH1 0x4 ADD PUSH1 0x40 MLOAD DUP1 SWAP2 SUB SWAP1 REVERT JUMPDEST CALLER PUSH20 0xFFFFFFFFFFFFFFFFFFFFFFFFFFFFFFFFFFFFFFFF AND PUSH32 0xDC840972025B14465E97E71EE4DC2050A4CF483E3FEB7D6AF5FA0B68EE58EC2F DUP4 DUP4 PUSH0 PUSH1 0x40 MLOAD PUSH2 0x303 SWAP4 SWAP3 SWAP2 SWAP1 PUSH2 0x7B5 JUMP JUMPDEST PUSH1 0x40 MLOAD DUP1 SWAP2 SUB SWAP1 LOG2 POP POP JUMP JUMPDEST PUSH1 0x1 PUSH1 0x20 MSTORE DUP1 PUSH0 MSTORE PUSH1 0x40 PUSH0 KECCAK256 PUSH0 SWAP2 POP SWAP1 POP SLOAD DUP2 JUMP JUMPDEST PUSH0 PUSH1 0x20 MSTORE DUP1 PUSH0 MSTORE PUSH1 0x40 PUSH0 KECCAK256 PUSH0 SWAP2 POP SWAP1 POP SLOAD DUP2 JUMP JUMPDEST PUSH1 0x2 DUP2 DUP1 MLOAD PUSH1 0x20 DUP2 ADD DUP3 ADD DUP1 MLOAD DUP5 DUP3 MSTORE PUSH1 0x20 DUP4 ADD PUSH1 0x20 DUP6 ADD KECCAK256 DUP2 DUP4 MSTORE DUP1 SWAP6 POP POP POP POP POP POP PUSH0 SWAP2 POP SLOAD SWAP1 PUSH2 0x100 EXP SWAP1 DIV PUSH1 0xFF AND DUP2 JUMP JUMPDEST PUSH0 DUP2 SWAP1 POP SWAP2 SWAP1 POP JUMP JUMPDEST PUSH2 0x37F DUP2 PUSH2 0x36D JUMP JUMPDEST DUP3 MSTORE POP POP JUMP JUMPDEST PUSH0 PUSH1 0x20 DUP3 ADD SWAP1 POP PUSH2 0x398 PUSH0 DUP4 ADD DUP5 PUSH2 0x376 JUMP JUMPDEST SWAP3 SWAP2 POP POP JUMP JUMPDEST PUSH0 PUSH1 0x40 MLOAD SWAP1 POP SWAP1 JUMP JUMPDEST PUSH0 DUP1 REVERT JUMPDEST PUSH0 DUP1 REVERT JUMPDEST PUSH0 DUP1 REVERT JUMPDEST PUSH0 DUP1 REVERT JUMPDEST PUSH0 DUP1 REVERT JUMPDEST PUSH0 DUP1 DUP4 PUSH1 0x1F DUP5 ADD SLT PUSH2 0x3D0 JUMPI PUSH2 0x3CF PUSH2 0x3AF JUMP JUMPDEST JUMPDEST DUP3 CALLDATALOAD SWAP1 POP PUSH8 0xFFFFFFFFFFFFFFFF DUP2 GT ISZERO PUSH2 0x3ED JUMPI PUSH2 0x3EC PUSH2 0x3B3 JUMP JUMPDEST JUMPDEST PUSH1 0x20 DUP4 ADD SWAP2 POP DUP4 PUSH1 0x1 DUP3 MUL DUP4 ADD GT ISZERO PUSH2 0x409 JUMPI PUSH2 0x408 PUSH2 0x3B7 JUMP JUMPDEST JUMPDEST SWAP3 POP SWAP3 SWAP1 POP JUMP JUMPDEST PUSH0 DUP1 PUSH1 0x20 DUP4 DUP6 SUB SLT ISZERO PUSH2 0x426 JUMPI PUSH2 0x425 PUSH2 0x3A7 JUMP JUMPDEST JUMPDEST PUSH0 DUP4 ADD CALLDATALOAD PUSH8 0xFFFFFFFFFFFFFFFF DUP2 GT ISZERO PUSH2 0x443 JUMPI PUSH2 0x442 PUSH2 0x3AB JUMP JUMPDEST JUMPDEST PUSH2 0x44F DUP6 DUP3 DUP7 ADD PUSH2 0x3BB JUMP JUMPDEST SWAP3 POP SWAP3 POP POP SWAP3 POP SWAP3 SWAP1 POP JUMP JUMPDEST PUSH0 PUSH20 0xFFFFFFFFFFFFFFFFFFFFFFFFFFFFFFFFFFFFFFFF DUP3 AND SWAP1 POP SWAP2 SWAP1 POP JUMP JUMPDEST PUSH0 PUSH2 0x484 DUP3 PUSH2 0x45B JUMP JUMPDEST SWAP1 POP SWAP2 SWAP1 POP JUMP JUMPDEST PUSH2 0x494 DUP2 PUSH2 0x47A JUMP JUMPDEST DUP2 EQ PUSH2 0x49E JUMPI PUSH0 DUP1 REVERT JUMPDEST POP JUMP JUMPDEST PUSH0 DUP2 CALLDATALOAD SWAP1 POP PUSH2 0x4AF DUP2 PUSH2 0x48B JUMP JUMPDEST SWAP3 SWAP2 POP POP JUMP JUMPDEST PUSH0 PUSH1 0x20 DUP3 DUP5 SUB SLT ISZERO PUSH2 0x4CA JUMPI PUSH2 0x4C9 PUSH2 0x3A7 JUMP JUMPDEST JUMPDEST PUSH0 PUSH2 0x4D7 DUP5 DUP3 DUP6 ADD PUSH2 0x4A1 JUMP JUMPDEST SWAP2 POP POP SWAP3 SWAP2 POP POP JUMP JUMPDEST PUSH0 DUP1 REVERT JUMPDEST PUSH0 PUSH1 0x1F NOT PUSH1 0x1F DUP4 ADD AND SWAP1 POP SWAP2 SWAP1 POP JUMP JUMPDEST PUSH32 0x4E487B7100000000000000000000000000000000000000000000000000000000 PUSH0 MSTORE PUSH1 0x41 PUSH1 0x4 MSTORE PUSH1 0x24 PUSH0 REVERT JUMPDEST PUSH2 0x52A DUP3 PUSH2 0x4E4 JUMP JUMPDEST DUP2 ADD DUP2 DUP2 LT PUSH8 0xFFFFFFFFFFFFFFFF DUP3 GT OR ISZERO PUSH2 0x549 JUMPI PUSH2 0x548 PUSH2 0x4F4 JUMP JUMPDEST JUMPDEST DUP1 PUSH1 0x40 MSTORE POP POP POP JUMP JUMPDEST PUSH0 PUSH2 0x55B PUSH2 0x39E JUMP JUMPDEST SWAP1 POP PUSH2 0x567 DUP3 DUP3 PUSH2 0x521 JUMP JUMPDEST SWAP2 SWAP1 POP JUMP JUMPDEST PUSH0 PUSH8 0xFFFFFFFFFFFFFFFF DUP3 GT ISZERO PUSH2 0x586 JUMPI PUSH2 0x585 PUSH2 0x4F4 JUMP JUMPDEST JUMPDEST PUSH2 0x58F DUP3 PUSH2 0x4E4 JUMP JUMPDEST SWAP1 POP PUSH1 0x20 DUP2 ADD SWAP1 POP SWAP2 SWAP1 POP JUMP JUMPDEST DUP3 DUP2 DUP4 CALLDATACOPY PUSH0 DUP4 DUP4 ADD MSTORE POP POP POP JUMP JUMPDEST PUSH0 PUSH2 0x5BC PUSH2 0x5B7 DUP5 PUSH2 0x56C JUMP JUMPDEST PUSH2 0x552 JUMP JUMPDEST SWAP1 POP DUP3 DUP2 MSTORE PUSH1 0x20 DUP2 ADD DUP5 DUP5 DUP5 ADD GT ISZERO PUSH2 0x5D8 JUMPI PUSH2 0x5D7 PUSH2 0x4E0 JUMP JUMPDEST JUMPDEST PUSH2 0x5E3 DUP5 DUP3 DUP6 PUSH2 0x59C JUMP JUMPDEST POP SWAP4 SWAP3 POP POP POP JUMP JUMPDEST PUSH0 DUP3 PUSH1 0x1F DUP4 ADD SLT PUSH2 0x5FF JUMPI PUSH2 0x5FE PUSH2 0x3AF JUMP JUMPDEST JUMPDEST DUP2 CALLDATALOAD PUSH2 0x60F DUP5 DUP3 PUSH1 0x20 DUP7 ADD PUSH2 0x5AA JUMP JUMPDEST SWAP2 POP POP SWAP3 SWAP2 POP POP JUMP JUMPDEST PUSH0 PUSH1 0x20 DUP3 DUP5 SUB SLT ISZERO PUSH2 0x62D JUMPI PUSH2 0x62C PUSH2 0x3A7 JUMP JUMPDEST JUMPDEST PUSH0 DUP3 ADD CALLDATALOAD PUSH8 0xFFFFFFFFFFFFFFFF DUP2 GT ISZERO PUSH2 0x64A JUMPI PUSH2 0x649 PUSH2 0x3AB JUMP JUMPDEST JUMPDEST PUSH2 0x656 DUP5 DUP3 DUP6 ADD PUSH2 0x5EB JUMP JUMPDEST SWAP2 POP POP SWAP3 SWAP2 POP POP JUMP JUMPDEST PUSH0 DUP2 ISZERO ISZERO SWAP1 POP SWAP2 SWAP1 POP JUMP JUMPDEST PUSH2 0x673 DUP2 PUSH2 0x65F JUMP JUMPDEST DUP3 MSTORE POP POP JUMP JUMPDEST PUSH0 PUSH1 0x20 DUP3 ADD SWAP1 POP PUSH2 0x68C PUSH0 DUP4 ADD DUP5 PUSH2 0x66A JUMP JUMPDEST SWAP3 SWAP2 POP POP JUMP JUMPDEST PUSH32 0x4E487B7100000000000000000000000000000000000000000000000000000000 PUSH0 MSTORE PUSH1 0x11 PUSH1 0x4 MSTORE PUSH1 0x24 PUSH0 REVERT JUMPDEST PUSH0 PUSH2 0x6C9 DUP3 PUSH2 0x36D JUMP JUMPDEST SWAP2 POP PUSH32 0xFFFFFFFFFFFFFFFFFFFFFFFFFFFFFFFFFFFFFFFFFFFFFFFFFFFFFFFFFFFFFFFF DUP3 SUB PUSH2 0x6FB JUMPI PUSH2 0x6FA PUSH2 0x692 JUMP JUMPDEST JUMPDEST PUSH1 0x1 DUP3 ADD SWAP1 POP SWAP2 SWAP1 POP JUMP JUMPDEST PUSH0 DUP3 DUP3 MSTORE PUSH1 0x20 DUP3 ADD SWAP1 POP SWAP3 SWAP2 POP POP JUMP JUMPDEST PUSH0 PUSH2 0x721 DUP4 DUP6 PUSH2 0x706 JUMP JUMPDEST SWAP4 POP PUSH2 0x72E DUP4 DUP6 DUP5 PUSH2 0x59C JUMP JUMPDEST PUSH2 0x737 DUP4 PUSH2 0x4E4 JUMP JUMPDEST DUP5 ADD SWAP1 POP SWAP4 SWAP3 POP POP POP JUMP JUMPDEST PUSH32 0x4E487B7100000000000000000000000000000000000000000000000000000000 PUSH0 MSTORE PUSH1 0x21 PUSH1 0x4 MSTORE PUSH1 0x24 PUSH0 REVERT JUMPDEST PUSH1 0x4 DUP2 LT PUSH2 0x780 JUMPI PUSH2 0x77F PUSH2 0x742 JUMP JUMPDEST JUMPDEST POP JUMP JUMPDEST PUSH0 DUP2 SWAP1 POP PUSH2 0x790 DUP3 PUSH2 0x76F JUMP JUMPDEST SWAP2 SWAP1 POP JUMP JUMPDEST PUSH0 PUSH2 0x79F DUP3 PUSH2 0x783 JUMP JUMPDEST SWAP1 POP SWAP2 SWAP1 POP JUMP JUMPDEST PUSH2 0x7AF DUP2 PUSH2 0x795 JUMP JUMPDEST DUP3 MSTORE POP POP JUMP JUMPDEST PUSH0 PUSH1 0x40 DUP3 ADD SWAP1 POP DUP2 DUP2 SUB PUSH0 DUP4 ADD MSTORE PUSH2 0x7CE DUP2 DUP6 DUP8 PUSH2 0x716 JUMP JUMPDEST SWAP1 POP PUSH2 0x7DD PUSH1 0x20 DUP4 ADD DUP5 PUSH2 0x7A6 JUMP JUMPDEST SWAP5 SWAP4 POP POP POP POP JUMP INVALID LOG2 PUSH5 0x6970667358 0x22 SLT KECCAK256 RETURN SLT 0xDE 0x21 0xC9 0xEB 0xAC LOG3 PUSH28 0x83F25B5479701DF7E5F85C587DA4F6517F3A81ED1FE67764736F6C63 NUMBER STOP ADDMOD BYTE STOP CALLER "
				},
				"gasEstimates": {
					"creation": {
						"codeDepositCost": "415000",
						"executionCost": "infinite",
						"totalCost": "infinite"
					},
					"external": {
						"MAX_PER_BLOCK()": "303",
						"checkUser(string)": "infinite",
						"countInBlock(address)": "2824",
						"lastBlock(address)": "2845",
						"userExists(string)": "infinite"
					}
				},
				"methodIdentifiers": {
					"MAX_PER_BLOCK()": "0d2a95ef",
					"checkUser(string)": "1eb41b71",
					"countInBlock(address)": "3e9893a6",
					"lastBlock(address)": "952ca92c",
					"userExists(string)": "fddc968e"
				}
			},
			"storageLayout": {
				"storage": [
					{
						"astId": 135,
						"contract": "A/AccountHarvesting/AccountHarvesting.sol:AccountHarvestSafeRateLimit",
						"label": "lastBlock",
						"offset": 0,
						"slot": "0",
						"type": "t_mapping(t_address,t_uint256)"
					},
					{
						"astId": 139,
						"contract": "A/AccountHarvesting/AccountHarvesting.sol:AccountHarvestSafeRateLimit",
						"label": "countInBlock",
						"offset": 0,
						"slot": "1",
						"type": "t_mapping(t_address,t_uint256)"
					},
					{
						"astId": 146,
						"contract": "A/AccountHarvesting/AccountHarvesting.sol:AccountHarvestSafeRateLimit",
						"label": "userExists",
						"offset": 0,
						"slot": "2",
						"type": "t_mapping(t_string_memory_ptr,t_bool)"
					}
				],
				"types": {
					"t_address": {
						"encoding": "inplace",
						"label": "address",
						"numberOfBytes": "20"
					},
					"t_bool": {
						"encoding": "inplace",
						"label": "bool",
						"numberOfBytes": "1"
					},
					"t_mapping(t_address,t_uint256)": {
						"encoding": "mapping",
						"key": "t_address",
						"label": "mapping(address => uint256)",
						"numberOfBytes": "32",
						"value": "t_uint256"
					},
					"t_mapping(t_string_memory_ptr,t_bool)": {
						"encoding": "mapping",
						"key": "t_string_memory_ptr",
						"label": "mapping(string => bool)",
						"numberOfBytes": "32",
						"value": "t_bool"
					},
					"t_string_memory_ptr": {
						"encoding": "bytes",
						"label": "string",
						"numberOfBytes": "32"
					},
					"t_uint256": {
						"encoding": "inplace",
						"label": "uint256",
						"numberOfBytes": "32"
					}
				}
			},
			"userdoc": {
				"kind": "user",
				"methods": {},
				"version": 1
			}
		}
	}
}