{
	"A/AccountHarvesting/AccountHarvesting.sol": {
		"AccountHarvestSafeAdvanced": {
			"abi": [
				{
					"inputs": [
						{
							"internalType": "string[]",
							"name": "initialUsers",
							"type": "string[]"
						}
					],
					"stateMutability": "nonpayable",
					"type": "constructor"
				},
				{
					"inputs": [],
					"name": "AH__Locked",
					"type": "error"
				},
				{
					"anonymous": false,
					"inputs": [
						{
							"indexed": true,
							"internalType": "address",
							"name": "by",
							"type": "address"
						},
						{
							"indexed": false,
							"internalType": "string",
							"name": "username",
							"type": "string"
						},
						{
							"indexed": false,
							"internalType": "enum AccountHarvestingDefenseType",
							"name": "defense",
							"type": "uint8"
						}
					],
					"name": "HarvestChecked",
					"type": "event"
				},
				{
					"inputs": [],
					"name": "MAX_FAIL",
					"outputs": [
						{
							"internalType": "uint256",
							"name": "",
							"type": "uint256"
						}
					],
					"stateMutability": "view",
					"type": "function"
				},
				{
					"inputs": [
						{
							"internalType": "string",
							"name": "username",
							"type": "string"
						}
					],
					"name": "checkUser",
					"outputs": [],
					"stateMutability": "nonpayable",
					"type": "function"
				},
				{
					"inputs": [
						{
							"internalType": "address",
							"name": "",
							"type": "address"
						}
					],
					"name": "failCount",
					"outputs": [
						{
							"internalType": "uint256",
							"name": "",
							"type": "uint256"
						}
					],
					"stateMutability": "view",
					"type": "function"
				},
				{
					"inputs": [
						{
							"internalType": "address",
							"name": "",
							"type": "address"
						}
					],
					"name": "locked",
					"outputs": [
						{
							"internalType": "bool",
							"name": "",
							"type": "bool"
						}
					],
					"stateMutability": "view",
					"type": "function"
				},
				{
					"inputs": [
						{
							"internalType": "string",
							"name": "",
							"type": "string"
						}
					],
					"name": "userExists",
					"outputs": [
						{
							"internalType": "bool",
							"name": "",
							"type": "bool"
						}
					],
					"stateMutability": "view",
					"type": "function"
				}
			],
			"devdoc": {
				"kind": "dev",
				"methods": {},
				"version": 1
			},
			"evm": {
				"assembly": "    /* \"A/AccountHarvesting/AccountHarvesting.sol\":4961:6249  contract AccountHarvestSafeAdvanced {... */\n  mstore(0x40, 0x80)\n    /* \"A/AccountHarvesting/AccountHarvesting.sol\":5358:5522  constructor(string[] memory initialUsers) {... */\n  callvalue\n  dup1\n  iszero\n  tag_1\n  jumpi\n  0x00\n  dup1\n  revert\ntag_1:\n  pop\n  mload(0x40)\n  sub(codesize, bytecodeSize)\n  dup1\n  bytecodeSize\n  dup4\n  codecopy\n  dup2\n  dup2\n  add\n  0x40\n  mstore\n  dup2\n  add\n  swap1\n  tag_2\n  swap2\n  swap1\n  tag_3\n  jump\t// in\ntag_2:\n    /* \"A/AccountHarvesting/AccountHarvesting.sol\":5415:5421  uint i */\n  0x00\n    /* \"A/AccountHarvesting/AccountHarvesting.sol\":5410:5516  for (uint i = 0; i < initialUsers.length; i++) {... */\ntag_6:\n    /* \"A/AccountHarvesting/AccountHarvesting.sol\":5431:5443  initialUsers */\n  dup2\n    /* \"A/AccountHarvesting/AccountHarvesting.sol\":5431:5450  initialUsers.length */\n  mload\n    /* \"A/AccountHarvesting/AccountHarvesting.sol\":5427:5428  i */\n  dup2\n    /* \"A/AccountHarvesting/AccountHarvesting.sol\":5427:5450  i < initialUsers.length */\n  lt\n    /* \"A/AccountHarvesting/AccountHarvesting.sol\":5410:5516  for (uint i = 0; i < initialUsers.length; i++) {... */\n  iszero\n  tag_7\n  jumpi\n    /* \"A/AccountHarvesting/AccountHarvesting.sol\":5501:5505  true */\n  0x01\n    /* \"A/AccountHarvesting/AccountHarvesting.sol\":5471:5481  userExists */\n  0x00\n    /* \"A/AccountHarvesting/AccountHarvesting.sol\":5482:5494  initialUsers */\n  dup4\n    /* \"A/AccountHarvesting/AccountHarvesting.sol\":5495:5496  i */\n  dup4\n    /* \"A/AccountHarvesting/AccountHarvesting.sol\":5482:5497  initialUsers[i] */\n  dup2\n  mload\n  dup2\n  lt\n  tag_9\n  jumpi\n  tag_10\n  tag_11\n  jump\t// in\ntag_10:\ntag_9:\n  0x20\n  mul\n  0x20\n  add\n  add\n  mload\n    /* \"A/AccountHarvesting/AccountHarvesting.sol\":5471:5498  userExists[initialUsers[i]] */\n  mload(0x40)\n  tag_12\n  swap2\n  swap1\n  tag_13\n  jump\t// in\ntag_12:\n  swap1\n  dup2\n  mstore\n  0x20\n  add\n  mload(0x40)\n  dup1\n  swap2\n  sub\n  swap1\n  keccak256\n  0x00\n    /* \"A/AccountHarvesting/AccountHarvesting.sol\":5471:5505  userExists[initialUsers[i]] = true */\n  0x0100\n  exp\n  dup2\n  sload\n  dup2\n  0xff\n  mul\n  not\n  and\n  swap1\n  dup4\n  iszero\n  iszero\n  mul\n  or\n  swap1\n  sstore\n  pop\n    /* \"A/AccountHarvesting/AccountHarvesting.sol\":5452:5455  i++ */\n  dup1\n  dup1\n  0x01\n  add\n  swap2\n  pop\n  pop\n    /* \"A/AccountHarvesting/AccountHarvesting.sol\":5410:5516  for (uint i = 0; i < initialUsers.length; i++) {... */\n  jump(tag_6)\ntag_7:\n  pop\n    /* \"A/AccountHarvesting/AccountHarvesting.sol\":5358:5522  constructor(string[] memory initialUsers) {... */\n  pop\n    /* \"A/AccountHarvesting/AccountHarvesting.sol\":4961:6249  contract AccountHarvestSafeAdvanced {... */\n  jump(tag_14)\n    /* \"#utility.yul\":7:82   */\ntag_15:\n    /* \"#utility.yul\":40:46   */\n  0x00\n    /* \"#utility.yul\":73:75   */\n  0x40\n    /* \"#utility.yul\":67:76   */\n  mload\n    /* \"#utility.yul\":57:76   */\n  swap1\n  pop\n    /* \"#utility.yul\":7:82   */\n  swap1\n  jump\t// out\n    /* \"#utility.yul\":88:205   */\ntag_16:\n    /* \"#utility.yul\":197:198   */\n  0x00\n    /* \"#utility.yul\":194:195   */\n  dup1\n    /* \"#utility.yul\":187:199   */\n  revert\n    /* \"#utility.yul\":211:328   */\ntag_17:\n    /* \"#utility.yul\":320:321   */\n  0x00\n    /* \"#utility.yul\":317:318   */\n  dup1\n    /* \"#utility.yul\":310:322   */\n  revert\n    /* \"#utility.yul\":334:451   */\ntag_18:\n    /* \"#utility.yul\":443:444   */\n  0x00\n    /* \"#utility.yul\":440:441   */\n  dup1\n    /* \"#utility.yul\":433:445   */\n  revert\n    /* \"#utility.yul\":457:559   */\ntag_19:\n    /* \"#utility.yul\":498:504   */\n  0x00\n    /* \"#utility.yul\":549:551   */\n  0x1f\n    /* \"#utility.yul\":545:552   */\n  not\n    /* \"#utility.yul\":540:542   */\n  0x1f\n    /* \"#utility.yul\":533:538   */\n  dup4\n    /* \"#utility.yul\":529:543   */\n  add\n    /* \"#utility.yul\":525:553   */\n  and\n    /* \"#utility.yul\":515:553   */\n  swap1\n  pop\n    /* \"#utility.yul\":457:559   */\n  swap2\n  swap1\n  pop\n  jump\t// out\n    /* \"#utility.yul\":565:745   */\ntag_20:\n    /* \"#utility.yul\":613:690   */\n  0x4e487b7100000000000000000000000000000000000000000000000000000000\n    /* \"#utility.yul\":610:611   */\n  0x00\n    /* \"#utility.yul\":603:691   */\n  mstore\n    /* \"#utility.yul\":710:714   */\n  0x41\n    /* \"#utility.yul\":707:708   */\n  0x04\n    /* \"#utility.yul\":700:715   */\n  mstore\n    /* \"#utility.yul\":734:738   */\n  0x24\n    /* \"#utility.yul\":731:732   */\n  0x00\n    /* \"#utility.yul\":724:739   */\n  revert\n    /* \"#utility.yul\":751:1032   */\ntag_21:\n    /* \"#utility.yul\":834:861   */\n  tag_43\n    /* \"#utility.yul\":856:860   */\n  dup3\n    /* \"#utility.yul\":834:861   */\n  tag_19\n  jump\t// in\ntag_43:\n    /* \"#utility.yul\":826:832   */\n  dup2\n    /* \"#utility.yul\":822:862   */\n  add\n    /* \"#utility.yul\":964:970   */\n  dup2\n    /* \"#utility.yul\":952:962   */\n  dup2\n    /* \"#utility.yul\":949:971   */\n  lt\n    /* \"#utility.yul\":928:946   */\n  0xffffffffffffffff\n    /* \"#utility.yul\":916:926   */\n  dup3\n    /* \"#utility.yul\":913:947   */\n  gt\n    /* \"#utility.yul\":910:972   */\n  or\n    /* \"#utility.yul\":907:995   */\n  iszero\n  tag_44\n  jumpi\n    /* \"#utility.yul\":975:993   */\n  tag_45\n  tag_20\n  jump\t// in\ntag_45:\n    /* \"#utility.yul\":907:995   */\ntag_44:\n    /* \"#utility.yul\":1015:1025   */\n  dup1\n    /* \"#utility.yul\":1011:1013   */\n  0x40\n    /* \"#utility.yul\":1004:1026   */\n  mstore\n    /* \"#utility.yul\":794:1032   */\n  pop\n    /* \"#utility.yul\":751:1032   */\n  pop\n  pop\n  jump\t// out\n    /* \"#utility.yul\":1038:1167   */\ntag_22:\n    /* \"#utility.yul\":1072:1078   */\n  0x00\n    /* \"#utility.yul\":1099:1119   */\n  tag_47\n  tag_15\n  jump\t// in\ntag_47:\n    /* \"#utility.yul\":1089:1119   */\n  swap1\n  pop\n    /* \"#utility.yul\":1128:1161   */\n  tag_48\n    /* \"#utility.yul\":1156:1160   */\n  dup3\n    /* \"#utility.yul\":1148:1154   */\n  dup3\n    /* \"#utility.yul\":1128:1161   */\n  tag_21\n  jump\t// in\ntag_48:\n    /* \"#utility.yul\":1038:1167   */\n  swap2\n  swap1\n  pop\n  jump\t// out\n    /* \"#utility.yul\":1173:1494   */\ntag_23:\n    /* \"#utility.yul\":1260:1264   */\n  0x00\n    /* \"#utility.yul\":1350:1368   */\n  0xffffffffffffffff\n    /* \"#utility.yul\":1342:1348   */\n  dup3\n    /* \"#utility.yul\":1339:1369   */\n  gt\n    /* \"#utility.yul\":1336:1392   */\n  iszero\n  tag_50\n  jumpi\n    /* \"#utility.yul\":1372:1390   */\n  tag_51\n  tag_20\n  jump\t// in\ntag_51:\n    /* \"#utility.yul\":1336:1392   */\ntag_50:\n    /* \"#utility.yul\":1422:1426   */\n  0x20\n    /* \"#utility.yul\":1414:1420   */\n  dup3\n    /* \"#utility.yul\":1410:1427   */\n  mul\n    /* \"#utility.yul\":1402:1427   */\n  swap1\n  pop\n    /* \"#utility.yul\":1482:1486   */\n  0x20\n    /* \"#utility.yul\":1476:1480   */\n  dup2\n    /* \"#utility.yul\":1472:1487   */\n  add\n    /* \"#utility.yul\":1464:1487   */\n  swap1\n  pop\n    /* \"#utility.yul\":1173:1494   */\n  swap2\n  swap1\n  pop\n  jump\t// out\n    /* \"#utility.yul\":1500:1617   */\ntag_24:\n    /* \"#utility.yul\":1609:1610   */\n  0x00\n    /* \"#utility.yul\":1606:1607   */\n  dup1\n    /* \"#utility.yul\":1599:1611   */\n  revert\n    /* \"#utility.yul\":1623:1740   */\ntag_25:\n    /* \"#utility.yul\":1732:1733   */\n  0x00\n    /* \"#utility.yul\":1729:1730   */\n  dup1\n    /* \"#utility.yul\":1722:1734   */\n  revert\n    /* \"#utility.yul\":1746:2054   */\ntag_26:\n    /* \"#utility.yul\":1808:1812   */\n  0x00\n    /* \"#utility.yul\":1898:1916   */\n  0xffffffffffffffff\n    /* \"#utility.yul\":1890:1896   */\n  dup3\n    /* \"#utility.yul\":1887:1917   */\n  gt\n    /* \"#utility.yul\":1884:1940   */\n  iszero\n  tag_55\n  jumpi\n    /* \"#utility.yul\":1920:1938   */\n  tag_56\n  tag_20\n  jump\t// in\ntag_56:\n    /* \"#utility.yul\":1884:1940   */\ntag_55:\n    /* \"#utility.yul\":1958:1987   */\n  tag_57\n    /* \"#utility.yul\":1980:1986   */\n  dup3\n    /* \"#utility.yul\":1958:1987   */\n  tag_19\n  jump\t// in\ntag_57:\n    /* \"#utility.yul\":1950:1987   */\n  swap1\n  pop\n    /* \"#utility.yul\":2042:2046   */\n  0x20\n    /* \"#utility.yul\":2036:2040   */\n  dup2\n    /* \"#utility.yul\":2032:2047   */\n  add\n    /* \"#utility.yul\":2024:2047   */\n  swap1\n  pop\n    /* \"#utility.yul\":1746:2054   */\n  swap2\n  swap1\n  pop\n  jump\t// out\n    /* \"#utility.yul\":2060:2199   */\ntag_27:\n    /* \"#utility.yul\":2149:2155   */\n  dup3\n    /* \"#utility.yul\":2144:2147   */\n  dup2\n    /* \"#utility.yul\":2139:2142   */\n  dup4\n    /* \"#utility.yul\":2133:2156   */\n  mcopy\n    /* \"#utility.yul\":2190:2191   */\n  0x00\n    /* \"#utility.yul\":2181:2187   */\n  dup4\n    /* \"#utility.yul\":2176:2179   */\n  dup4\n    /* \"#utility.yul\":2172:2188   */\n  add\n    /* \"#utility.yul\":2165:2192   */\n  mstore\n    /* \"#utility.yul\":2060:2199   */\n  pop\n  pop\n  pop\n  jump\t// out\n    /* \"#utility.yul\":2205:2639   */\ntag_28:\n    /* \"#utility.yul\":2294:2299   */\n  0x00\n    /* \"#utility.yul\":2319:2385   */\n  tag_60\n    /* \"#utility.yul\":2335:2384   */\n  tag_61\n    /* \"#utility.yul\":2377:2383   */\n  dup5\n    /* \"#utility.yul\":2335:2384   */\n  tag_26\n  jump\t// in\ntag_61:\n    /* \"#utility.yul\":2319:2385   */\n  tag_22\n  jump\t// in\ntag_60:\n    /* \"#utility.yul\":2310:2385   */\n  swap1\n  pop\n    /* \"#utility.yul\":2408:2414   */\n  dup3\n    /* \"#utility.yul\":2401:2406   */\n  dup2\n    /* \"#utility.yul\":2394:2415   */\n  mstore\n    /* \"#utility.yul\":2446:2450   */\n  0x20\n    /* \"#utility.yul\":2439:2444   */\n  dup2\n    /* \"#utility.yul\":2435:2451   */\n  add\n    /* \"#utility.yul\":2484:2487   */\n  dup5\n    /* \"#utility.yul\":2475:2481   */\n  dup5\n    /* \"#utility.yul\":2470:2473   */\n  dup5\n    /* \"#utility.yul\":2466:2482   */\n  add\n    /* \"#utility.yul\":2463:2488   */\n  gt\n    /* \"#utility.yul\":2460:2572   */\n  iszero\n  tag_62\n  jumpi\n    /* \"#utility.yul\":2491:2570   */\n  tag_63\n  tag_25\n  jump\t// in\ntag_63:\n    /* \"#utility.yul\":2460:2572   */\ntag_62:\n    /* \"#utility.yul\":2581:2633   */\n  tag_64\n    /* \"#utility.yul\":2626:2632   */\n  dup5\n    /* \"#utility.yul\":2621:2624   */\n  dup3\n    /* \"#utility.yul\":2616:2619   */\n  dup6\n    /* \"#utility.yul\":2581:2633   */\n  tag_27\n  jump\t// in\ntag_64:\n    /* \"#utility.yul\":2300:2639   */\n  pop\n    /* \"#utility.yul\":2205:2639   */\n  swap4\n  swap3\n  pop\n  pop\n  pop\n  jump\t// out\n    /* \"#utility.yul\":2659:3014   */\ntag_29:\n    /* \"#utility.yul\":2726:2731   */\n  0x00\n    /* \"#utility.yul\":2775:2778   */\n  dup3\n    /* \"#utility.yul\":2768:2772   */\n  0x1f\n    /* \"#utility.yul\":2760:2766   */\n  dup4\n    /* \"#utility.yul\":2756:2773   */\n  add\n    /* \"#utility.yul\":2752:2779   */\n  slt\n    /* \"#utility.yul\":2742:2864   */\n  tag_66\n  jumpi\n    /* \"#utility.yul\":2783:2862   */\n  tag_67\n  tag_18\n  jump\t// in\ntag_67:\n    /* \"#utility.yul\":2742:2864   */\ntag_66:\n    /* \"#utility.yul\":2893:2899   */\n  dup2\n    /* \"#utility.yul\":2887:2900   */\n  mload\n    /* \"#utility.yul\":2918:3008   */\n  tag_68\n    /* \"#utility.yul\":3004:3007   */\n  dup5\n    /* \"#utility.yul\":2996:3002   */\n  dup3\n    /* \"#utility.yul\":2989:2993   */\n  0x20\n    /* \"#utility.yul\":2981:2987   */\n  dup7\n    /* \"#utility.yul\":2977:2994   */\n  add\n    /* \"#utility.yul\":2918:3008   */\n  tag_28\n  jump\t// in\ntag_68:\n    /* \"#utility.yul\":2909:3008   */\n  swap2\n  pop\n    /* \"#utility.yul\":2732:3014   */\n  pop\n    /* \"#utility.yul\":2659:3014   */\n  swap3\n  swap2\n  pop\n  pop\n  jump\t// out\n    /* \"#utility.yul\":3036:3996   */\ntag_30:\n    /* \"#utility.yul\":3153:3158   */\n  0x00\n    /* \"#utility.yul\":3178:3269   */\n  tag_70\n    /* \"#utility.yul\":3194:3268   */\n  tag_71\n    /* \"#utility.yul\":3261:3267   */\n  dup5\n    /* \"#utility.yul\":3194:3268   */\n  tag_23\n  jump\t// in\ntag_71:\n    /* \"#utility.yul\":3178:3269   */\n  tag_22\n  jump\t// in\ntag_70:\n    /* \"#utility.yul\":3169:3269   */\n  swap1\n  pop\n    /* \"#utility.yul\":3289:3294   */\n  dup1\n    /* \"#utility.yul\":3318:3324   */\n  dup4\n    /* \"#utility.yul\":3311:3316   */\n  dup3\n    /* \"#utility.yul\":3304:3325   */\n  mstore\n    /* \"#utility.yul\":3352:3356   */\n  0x20\n    /* \"#utility.yul\":3345:3350   */\n  dup3\n    /* \"#utility.yul\":3341:3357   */\n  add\n    /* \"#utility.yul\":3334:3357   */\n  swap1\n  pop\n    /* \"#utility.yul\":3405:3409   */\n  0x20\n    /* \"#utility.yul\":3397:3403   */\n  dup5\n    /* \"#utility.yul\":3393:3410   */\n  mul\n    /* \"#utility.yul\":3385:3391   */\n  dup4\n    /* \"#utility.yul\":3381:3411   */\n  add\n    /* \"#utility.yul\":3434:3437   */\n  dup6\n    /* \"#utility.yul\":3426:3432   */\n  dup2\n    /* \"#utility.yul\":3423:3438   */\n  gt\n    /* \"#utility.yul\":3420:3542   */\n  iszero\n  tag_72\n  jumpi\n    /* \"#utility.yul\":3453:3532   */\n  tag_73\n  tag_24\n  jump\t// in\ntag_73:\n    /* \"#utility.yul\":3420:3542   */\ntag_72:\n    /* \"#utility.yul\":3568:3574   */\n  dup4\n    /* \"#utility.yul\":3551:3990   */\ntag_74:\n    /* \"#utility.yul\":3585:3591   */\n  dup2\n    /* \"#utility.yul\":3580:3583   */\n  dup2\n    /* \"#utility.yul\":3577:3592   */\n  lt\n    /* \"#utility.yul\":3551:3990   */\n  iszero\n  tag_76\n  jumpi\n    /* \"#utility.yul\":3667:3670   */\n  dup1\n    /* \"#utility.yul\":3661:3671   */\n  mload\n    /* \"#utility.yul\":3703:3721   */\n  0xffffffffffffffff\n    /* \"#utility.yul\":3690:3701   */\n  dup2\n    /* \"#utility.yul\":3687:3722   */\n  gt\n    /* \"#utility.yul\":3684:3806   */\n  iszero\n  tag_77\n  jumpi\n    /* \"#utility.yul\":3725:3804   */\n  tag_78\n  tag_18\n  jump\t// in\ntag_78:\n    /* \"#utility.yul\":3684:3806   */\ntag_77:\n    /* \"#utility.yul\":3849:3860   */\n  dup1\n    /* \"#utility.yul\":3841:3847   */\n  dup7\n    /* \"#utility.yul\":3837:3861   */\n  add\n    /* \"#utility.yul\":3887:3945   */\n  tag_79\n    /* \"#utility.yul\":3941:3944   */\n  dup10\n    /* \"#utility.yul\":3929:3939   */\n  dup3\n    /* \"#utility.yul\":3887:3945   */\n  tag_29\n  jump\t// in\ntag_79:\n    /* \"#utility.yul\":3882:3885   */\n  dup6\n    /* \"#utility.yul\":3875:3946   */\n  mstore\n    /* \"#utility.yul\":3975:3979   */\n  0x20\n    /* \"#utility.yul\":3970:3973   */\n  dup6\n    /* \"#utility.yul\":3966:3980   */\n  add\n    /* \"#utility.yul\":3959:3980   */\n  swap5\n  pop\n    /* \"#utility.yul\":3627:3990   */\n  pop\n  pop\n    /* \"#utility.yul\":3611:3615   */\n  0x20\n    /* \"#utility.yul\":3606:3609   */\n  dup2\n    /* \"#utility.yul\":3602:3616   */\n  add\n    /* \"#utility.yul\":3595:3616   */\n  swap1\n  pop\n    /* \"#utility.yul\":3551:3990   */\n  jump(tag_74)\ntag_76:\n    /* \"#utility.yul\":3555:3576   */\n  pop\n    /* \"#utility.yul\":3159:3996   */\n  pop\n  pop\n    /* \"#utility.yul\":3036:3996   */\n  swap4\n  swap3\n  pop\n  pop\n  pop\n  jump\t// out\n    /* \"#utility.yul\":4018:4423   */\ntag_31:\n    /* \"#utility.yul\":4110:4115   */\n  0x00\n    /* \"#utility.yul\":4159:4162   */\n  dup3\n    /* \"#utility.yul\":4152:4156   */\n  0x1f\n    /* \"#utility.yul\":4144:4150   */\n  dup4\n    /* \"#utility.yul\":4140:4157   */\n  add\n    /* \"#utility.yul\":4136:4163   */\n  slt\n    /* \"#utility.yul\":4126:4248   */\n  tag_81\n  jumpi\n    /* \"#utility.yul\":4167:4246   */\n  tag_82\n  tag_18\n  jump\t// in\ntag_82:\n    /* \"#utility.yul\":4126:4248   */\ntag_81:\n    /* \"#utility.yul\":4277:4283   */\n  dup2\n    /* \"#utility.yul\":4271:4284   */\n  mload\n    /* \"#utility.yul\":4302:4417   */\n  tag_83\n    /* \"#utility.yul\":4413:4416   */\n  dup5\n    /* \"#utility.yul\":4405:4411   */\n  dup3\n    /* \"#utility.yul\":4398:4402   */\n  0x20\n    /* \"#utility.yul\":4390:4396   */\n  dup7\n    /* \"#utility.yul\":4386:4403   */\n  add\n    /* \"#utility.yul\":4302:4417   */\n  tag_30\n  jump\t// in\ntag_83:\n    /* \"#utility.yul\":4293:4417   */\n  swap2\n  pop\n    /* \"#utility.yul\":4116:4423   */\n  pop\n    /* \"#utility.yul\":4018:4423   */\n  swap3\n  swap2\n  pop\n  pop\n  jump\t// out\n    /* \"#utility.yul\":4429:5003   */\ntag_3:\n    /* \"#utility.yul\":4534:4540   */\n  0x00\n    /* \"#utility.yul\":4583:4585   */\n  0x20\n    /* \"#utility.yul\":4571:4580   */\n  dup3\n    /* \"#utility.yul\":4562:4569   */\n  dup5\n    /* \"#utility.yul\":4558:4581   */\n  sub\n    /* \"#utility.yul\":4554:4586   */\n  slt\n    /* \"#utility.yul\":4551:4670   */\n  iszero\n  tag_85\n  jumpi\n    /* \"#utility.yul\":4589:4668   */\n  tag_86\n  tag_16\n  jump\t// in\ntag_86:\n    /* \"#utility.yul\":4551:4670   */\ntag_85:\n    /* \"#utility.yul\":4730:4731   */\n  0x00\n    /* \"#utility.yul\":4719:4728   */\n  dup3\n    /* \"#utility.yul\":4715:4732   */\n  add\n    /* \"#utility.yul\":4709:4733   */\n  mload\n    /* \"#utility.yul\":4760:4778   */\n  0xffffffffffffffff\n    /* \"#utility.yul\":4752:4758   */\n  dup2\n    /* \"#utility.yul\":4749:4779   */\n  gt\n    /* \"#utility.yul\":4746:4863   */\n  iszero\n  tag_87\n  jumpi\n    /* \"#utility.yul\":4782:4861   */\n  tag_88\n  tag_17\n  jump\t// in\ntag_88:\n    /* \"#utility.yul\":4746:4863   */\ntag_87:\n    /* \"#utility.yul\":4887:4986   */\n  tag_89\n    /* \"#utility.yul\":4978:4985   */\n  dup5\n    /* \"#utility.yul\":4969:4975   */\n  dup3\n    /* \"#utility.yul\":4958:4967   */\n  dup6\n    /* \"#utility.yul\":4954:4976   */\n  add\n    /* \"#utility.yul\":4887:4986   */\n  tag_31\n  jump\t// in\ntag_89:\n    /* \"#utility.yul\":4877:4986   */\n  swap2\n  pop\n    /* \"#utility.yul\":4680:4996   */\n  pop\n    /* \"#utility.yul\":4429:5003   */\n  swap3\n  swap2\n  pop\n  pop\n  jump\t// out\n    /* \"#utility.yul\":5009:5189   */\ntag_11:\n    /* \"#utility.yul\":5057:5134   */\n  0x4e487b7100000000000000000000000000000000000000000000000000000000\n    /* \"#utility.yul\":5054:5055   */\n  0x00\n    /* \"#utility.yul\":5047:5135   */\n  mstore\n    /* \"#utility.yul\":5154:5158   */\n  0x32\n    /* \"#utility.yul\":5151:5152   */\n  0x04\n    /* \"#utility.yul\":5144:5159   */\n  mstore\n    /* \"#utility.yul\":5178:5182   */\n  0x24\n    /* \"#utility.yul\":5175:5176   */\n  0x00\n    /* \"#utility.yul\":5168:5183   */\n  revert\n    /* \"#utility.yul\":5195:5294   */\ntag_32:\n    /* \"#utility.yul\":5247:5253   */\n  0x00\n    /* \"#utility.yul\":5281:5286   */\n  dup2\n    /* \"#utility.yul\":5275:5287   */\n  mload\n    /* \"#utility.yul\":5265:5287   */\n  swap1\n  pop\n    /* \"#utility.yul\":5195:5294   */\n  swap2\n  swap1\n  pop\n  jump\t// out\n    /* \"#utility.yul\":5300:5448   */\ntag_33:\n    /* \"#utility.yul\":5402:5413   */\n  0x00\n    /* \"#utility.yul\":5439:5442   */\n  dup2\n    /* \"#utility.yul\":5424:5442   */\n  swap1\n  pop\n    /* \"#utility.yul\":5300:5448   */\n  swap3\n  swap2\n  pop\n  pop\n  jump\t// out\n    /* \"#utility.yul\":5454:5844   */\ntag_34:\n    /* \"#utility.yul\":5560:5563   */\n  0x00\n    /* \"#utility.yul\":5588:5627   */\n  tag_94\n    /* \"#utility.yul\":5621:5626   */\n  dup3\n    /* \"#utility.yul\":5588:5627   */\n  tag_32\n  jump\t// in\ntag_94:\n    /* \"#utility.yul\":5643:5732   */\n  tag_95\n    /* \"#utility.yul\":5725:5731   */\n  dup2\n    /* \"#utility.yul\":5720:5723   */\n  dup6\n    /* \"#utility.yul\":5643:5732   */\n  tag_33\n  jump\t// in\ntag_95:\n    /* \"#utility.yul\":5636:5732   */\n  swap4\n  pop\n    /* \"#utility.yul\":5741:5806   */\n  tag_96\n    /* \"#utility.yul\":5799:5805   */\n  dup2\n    /* \"#utility.yul\":5794:5797   */\n  dup6\n    /* \"#utility.yul\":5787:5791   */\n  0x20\n    /* \"#utility.yul\":5780:5785   */\n  dup7\n    /* \"#utility.yul\":5776:5792   */\n  add\n    /* \"#utility.yul\":5741:5806   */\n  tag_27\n  jump\t// in\ntag_96:\n    /* \"#utility.yul\":5831:5837   */\n  dup1\n    /* \"#utility.yul\":5826:5829   */\n  dup5\n    /* \"#utility.yul\":5822:5838   */\n  add\n    /* \"#utility.yul\":5815:5838   */\n  swap2\n  pop\n    /* \"#utility.yul\":5564:5844   */\n  pop\n    /* \"#utility.yul\":5454:5844   */\n  swap3\n  swap2\n  pop\n  pop\n  jump\t// out\n    /* \"#utility.yul\":5850:6125   */\ntag_13:\n    /* \"#utility.yul\":5982:5985   */\n  0x00\n    /* \"#utility.yul\":6004:6099   */\n  tag_98\n    /* \"#utility.yul\":6095:6098   */\n  dup3\n    /* \"#utility.yul\":6086:6092   */\n  dup5\n    /* \"#utility.yul\":6004:6099   */\n  tag_34\n  jump\t// in\ntag_98:\n    /* \"#utility.yul\":5997:6099   */\n  swap2\n  pop\n    /* \"#utility.yul\":6116:6119   */\n  dup2\n    /* \"#utility.yul\":6109:6119   */\n  swap1\n  pop\n    /* \"#utility.yul\":5850:6125   */\n  swap3\n  swap2\n  pop\n  pop\n  jump\t// out\n    /* \"A/AccountHarvesting/AccountHarvesting.sol\":4961:6249  contract AccountHarvestSafeAdvanced {... */\ntag_14:\n  dataSize(sub_0)\n  dup1\n  dataOffset(sub_0)\n  0x00\n  codecopy\n  0x00\n  return\nstop\n\nsub_0: assembly {\n        /* \"A/AccountHarvesting/AccountHarvesting.sol\":4961:6249  contract AccountHarvestSafeAdvanced {... */\n      mstore(0x40, 0x80)\n      callvalue\n      dup1\n      iszero\n      tag_1\n      jumpi\n      0x00\n      dup1\n      revert\n    tag_1:\n      pop\n      jumpi(tag_2, lt(calldatasize, 0x04))\n      shr(0xe0, calldataload(0x00))\n      dup1\n      0x1eb41b71\n      eq\n      tag_3\n      jumpi\n      dup1\n      0x50eb61ac\n      eq\n      tag_4\n      jumpi\n      dup1\n      0x965d769f\n      eq\n      tag_5\n      jumpi\n      dup1\n      0xcbf9fe5f\n      eq\n      tag_6\n      jumpi\n      dup1\n      0xfddc968e\n      eq\n      tag_7\n      jumpi\n    tag_2:\n      0x00\n      dup1\n      revert\n        /* \"A/AccountHarvesting/AccountHarvesting.sol\":5602:6247  function checkUser(string calldata username) external {... */\n    tag_3:\n      tag_8\n      0x04\n      dup1\n      calldatasize\n      sub\n      dup2\n      add\n      swap1\n      tag_9\n      swap2\n      swap1\n      tag_10\n      jump\t// in\n    tag_9:\n      tag_11\n      jump\t// in\n    tag_8:\n      stop\n        /* \"A/AccountHarvesting/AccountHarvesting.sol\":5050:5094  mapping(address => uint256) public failCount */\n    tag_4:\n      tag_12\n      0x04\n      dup1\n      calldatasize\n      sub\n      dup2\n      add\n      swap1\n      tag_13\n      swap2\n      swap1\n      tag_14\n      jump\t// in\n    tag_13:\n      tag_15\n      jump\t// in\n    tag_12:\n      mload(0x40)\n      tag_16\n      swap2\n      swap1\n      tag_17\n      jump\t// in\n    tag_16:\n      mload(0x40)\n      dup1\n      swap2\n      sub\n      swap1\n      return\n        /* \"A/AccountHarvesting/AccountHarvesting.sol\":5147:5183  uint256 public constant MAX_FAIL = 3 */\n    tag_5:\n      tag_18\n      tag_19\n      jump\t// in\n    tag_18:\n      mload(0x40)\n      tag_20\n      swap2\n      swap1\n      tag_17\n      jump\t// in\n    tag_20:\n      mload(0x40)\n      dup1\n      swap2\n      sub\n      swap1\n      return\n        /* \"A/AccountHarvesting/AccountHarvesting.sol\":5100:5141  mapping(address => bool)    public locked */\n    tag_6:\n      tag_21\n      0x04\n      dup1\n      calldatasize\n      sub\n      dup2\n      add\n      swap1\n      tag_22\n      swap2\n      swap1\n      tag_14\n      jump\t// in\n    tag_22:\n      tag_23\n      jump\t// in\n    tag_21:\n      mload(0x40)\n      tag_24\n      swap2\n      swap1\n      tag_25\n      jump\t// in\n    tag_24:\n      mload(0x40)\n      dup1\n      swap2\n      sub\n      swap1\n      return\n        /* \"A/AccountHarvesting/AccountHarvesting.sol\":5003:5044  mapping(string => bool) public userExists */\n    tag_7:\n      tag_26\n      0x04\n      dup1\n      calldatasize\n      sub\n      dup2\n      add\n      swap1\n      tag_27\n      swap2\n      swap1\n      tag_28\n      jump\t// in\n    tag_27:\n      tag_29\n      jump\t// in\n    tag_26:\n      mload(0x40)\n      tag_30\n      swap2\n      swap1\n      tag_25\n      jump\t// in\n    tag_30:\n      mload(0x40)\n      dup1\n      swap2\n      sub\n      swap1\n      return\n        /* \"A/AccountHarvesting/AccountHarvesting.sol\":5602:6247  function checkUser(string calldata username) external {... */\n    tag_11:\n        /* \"A/AccountHarvesting/AccountHarvesting.sol\":5670:5676  locked */\n      0x02\n        /* \"A/AccountHarvesting/AccountHarvesting.sol\":5670:5688  locked[msg.sender] */\n      0x00\n        /* \"A/AccountHarvesting/AccountHarvesting.sol\":5677:5687  msg.sender */\n      caller\n        /* \"A/AccountHarvesting/AccountHarvesting.sol\":5670:5688  locked[msg.sender] */\n      0xffffffffffffffffffffffffffffffffffffffff\n      and\n      0xffffffffffffffffffffffffffffffffffffffff\n      and\n      dup2\n      mstore\n      0x20\n      add\n      swap1\n      dup2\n      mstore\n      0x20\n      add\n      0x00\n      keccak256\n      0x00\n      swap1\n      sload\n      swap1\n      0x0100\n      exp\n      swap1\n      div\n      0xff\n      and\n        /* \"A/AccountHarvesting/AccountHarvesting.sol\":5666:5709  if (locked[msg.sender]) revert AH__Locked() */\n      iszero\n      tag_32\n      jumpi\n        /* \"A/AccountHarvesting/AccountHarvesting.sol\":5697:5709  AH__Locked() */\n      mload(0x40)\n      0xf6dec6a000000000000000000000000000000000000000000000000000000000\n      dup2\n      mstore\n      0x04\n      add\n      mload(0x40)\n      dup1\n      swap2\n      sub\n      swap1\n      revert\n        /* \"A/AccountHarvesting/AccountHarvesting.sol\":5666:5709  if (locked[msg.sender]) revert AH__Locked() */\n    tag_32:\n        /* \"A/AccountHarvesting/AccountHarvesting.sol\":5777:5788  bool exists */\n      0x00\n        /* \"A/AccountHarvesting/AccountHarvesting.sol\":5791:5801  userExists */\n      dup1\n        /* \"A/AccountHarvesting/AccountHarvesting.sol\":5802:5810  username */\n      dup4\n      dup4\n        /* \"A/AccountHarvesting/AccountHarvesting.sol\":5791:5811  userExists[username] */\n      mload(0x40)\n      tag_33\n      swap3\n      swap2\n      swap1\n      tag_34\n      jump\t// in\n    tag_33:\n      swap1\n      dup2\n      mstore\n      0x20\n      add\n      mload(0x40)\n      dup1\n      swap2\n      sub\n      swap1\n      keccak256\n      0x00\n      swap1\n      sload\n      swap1\n      0x0100\n      exp\n      swap1\n      div\n      0xff\n      and\n        /* \"A/AccountHarvesting/AccountHarvesting.sol\":5777:5811  bool exists = userExists[username] */\n      swap1\n      pop\n        /* \"A/AccountHarvesting/AccountHarvesting.sol\":5893:5899  exists */\n      dup1\n        /* \"A/AccountHarvesting/AccountHarvesting.sol\":5888:6143  if (!exists) {... */\n      tag_35\n      jumpi\n        /* \"A/AccountHarvesting/AccountHarvesting.sol\":5915:5924  failCount */\n      0x01\n        /* \"A/AccountHarvesting/AccountHarvesting.sol\":5915:5936  failCount[msg.sender] */\n      0x00\n        /* \"A/AccountHarvesting/AccountHarvesting.sol\":5925:5935  msg.sender */\n      caller\n        /* \"A/AccountHarvesting/AccountHarvesting.sol\":5915:5936  failCount[msg.sender] */\n      0xffffffffffffffffffffffffffffffffffffffff\n      and\n      0xffffffffffffffffffffffffffffffffffffffff\n      and\n      dup2\n      mstore\n      0x20\n      add\n      swap1\n      dup2\n      mstore\n      0x20\n      add\n      0x00\n      keccak256\n      0x00\n        /* \"A/AccountHarvesting/AccountHarvesting.sol\":5915:5938  failCount[msg.sender]++ */\n      dup2\n      sload\n      dup1\n      swap3\n      swap2\n      swap1\n      tag_36\n      swap1\n      tag_37\n      jump\t// in\n    tag_36:\n      swap2\n      swap1\n      pop\n      sstore\n      pop\n        /* \"A/AccountHarvesting/AccountHarvesting.sol\":5182:5183  3 */\n      0x03\n        /* \"A/AccountHarvesting/AccountHarvesting.sol\":5956:5965  failCount */\n      0x01\n        /* \"A/AccountHarvesting/AccountHarvesting.sol\":5956:5977  failCount[msg.sender] */\n      0x00\n        /* \"A/AccountHarvesting/AccountHarvesting.sol\":5966:5976  msg.sender */\n      caller\n        /* \"A/AccountHarvesting/AccountHarvesting.sol\":5956:5977  failCount[msg.sender] */\n      0xffffffffffffffffffffffffffffffffffffffff\n      and\n      0xffffffffffffffffffffffffffffffffffffffff\n      and\n      dup2\n      mstore\n      0x20\n      add\n      swap1\n      dup2\n      mstore\n      0x20\n      add\n      0x00\n      keccak256\n      sload\n        /* \"A/AccountHarvesting/AccountHarvesting.sol\":5956:5989  failCount[msg.sender] >= MAX_FAIL */\n      lt\n        /* \"A/AccountHarvesting/AccountHarvesting.sol\":5952:6049  if (failCount[msg.sender] >= MAX_FAIL) {... */\n      tag_38\n      jumpi\n        /* \"A/AccountHarvesting/AccountHarvesting.sol\":6030:6034  true */\n      0x01\n        /* \"A/AccountHarvesting/AccountHarvesting.sol\":6009:6015  locked */\n      0x02\n        /* \"A/AccountHarvesting/AccountHarvesting.sol\":6009:6027  locked[msg.sender] */\n      0x00\n        /* \"A/AccountHarvesting/AccountHarvesting.sol\":6016:6026  msg.sender */\n      caller\n        /* \"A/AccountHarvesting/AccountHarvesting.sol\":6009:6027  locked[msg.sender] */\n      0xffffffffffffffffffffffffffffffffffffffff\n      and\n      0xffffffffffffffffffffffffffffffffffffffff\n      and\n      dup2\n      mstore\n      0x20\n      add\n      swap1\n      dup2\n      mstore\n      0x20\n      add\n      0x00\n      keccak256\n      0x00\n        /* \"A/AccountHarvesting/AccountHarvesting.sol\":6009:6034  locked[msg.sender] = true */\n      0x0100\n      exp\n      dup2\n      sload\n      dup2\n      0xff\n      mul\n      not\n      and\n      swap1\n      dup4\n      iszero\n      iszero\n      mul\n      or\n      swap1\n      sstore\n      pop\n        /* \"A/AccountHarvesting/AccountHarvesting.sol\":5952:6049  if (failCount[msg.sender] >= MAX_FAIL) {... */\n    tag_38:\n        /* \"A/AccountHarvesting/AccountHarvesting.sol\":5888:6143  if (!exists) {... */\n      jump(tag_39)\n    tag_35:\n        /* \"A/AccountHarvesting/AccountHarvesting.sol\":6131:6132  0 */\n      0x00\n        /* \"A/AccountHarvesting/AccountHarvesting.sol\":6107:6116  failCount */\n      0x01\n        /* \"A/AccountHarvesting/AccountHarvesting.sol\":6107:6128  failCount[msg.sender] */\n      0x00\n        /* \"A/AccountHarvesting/AccountHarvesting.sol\":6117:6127  msg.sender */\n      caller\n        /* \"A/AccountHarvesting/AccountHarvesting.sol\":6107:6128  failCount[msg.sender] */\n      0xffffffffffffffffffffffffffffffffffffffff\n      and\n      0xffffffffffffffffffffffffffffffffffffffff\n      and\n      dup2\n      mstore\n      0x20\n      add\n      swap1\n      dup2\n      mstore\n      0x20\n      add\n      0x00\n      keccak256\n        /* \"A/AccountHarvesting/AccountHarvesting.sol\":6107:6132  failCount[msg.sender] = 0 */\n      dup2\n      swap1\n      sstore\n      pop\n        /* \"A/AccountHarvesting/AccountHarvesting.sol\":5888:6143  if (!exists) {... */\n    tag_39:\n        /* \"A/AccountHarvesting/AccountHarvesting.sol\":6173:6183  msg.sender */\n      caller\n        /* \"A/AccountHarvesting/AccountHarvesting.sol\":6158:6240  HarvestChecked(msg.sender, username, AccountHarvestingDefenseType.UniformResponse) */\n      0xffffffffffffffffffffffffffffffffffffffff\n      and\n      0xdc840972025b14465e97e71ee4dc2050a4cf483e3feb7d6af5fa0b68ee58ec2f\n        /* \"A/AccountHarvesting/AccountHarvesting.sol\":6185:6193  username */\n      dup5\n      dup5\n        /* \"A/AccountHarvesting/AccountHarvesting.sol\":6195:6239  AccountHarvestingDefenseType.UniformResponse */\n      0x02\n        /* \"A/AccountHarvesting/AccountHarvesting.sol\":6158:6240  HarvestChecked(msg.sender, username, AccountHarvestingDefenseType.UniformResponse) */\n      mload(0x40)\n      tag_40\n      swap4\n      swap3\n      swap2\n      swap1\n      tag_41\n      jump\t// in\n    tag_40:\n      mload(0x40)\n      dup1\n      swap2\n      sub\n      swap1\n      log2\n        /* \"A/AccountHarvesting/AccountHarvesting.sol\":5656:6247  {... */\n      pop\n        /* \"A/AccountHarvesting/AccountHarvesting.sol\":5602:6247  function checkUser(string calldata username) external {... */\n      pop\n      pop\n      jump\t// out\n        /* \"A/AccountHarvesting/AccountHarvesting.sol\":5050:5094  mapping(address => uint256) public failCount */\n    tag_15:\n      mstore(0x20, 0x01)\n      dup1\n      0x00\n      mstore\n      keccak256(0x00, 0x40)\n      0x00\n      swap2\n      pop\n      swap1\n      pop\n      sload\n      dup2\n      jump\t// out\n        /* \"A/AccountHarvesting/AccountHarvesting.sol\":5147:5183  uint256 public constant MAX_FAIL = 3 */\n    tag_19:\n        /* \"A/AccountHarvesting/AccountHarvesting.sol\":5182:5183  3 */\n      0x03\n        /* \"A/AccountHarvesting/AccountHarvesting.sol\":5147:5183  uint256 public constant MAX_FAIL = 3 */\n      dup2\n      jump\t// out\n        /* \"A/AccountHarvesting/AccountHarvesting.sol\":5100:5141  mapping(address => bool)    public locked */\n    tag_23:\n      mstore(0x20, 0x02)\n      dup1\n      0x00\n      mstore\n      keccak256(0x00, 0x40)\n      0x00\n      swap2\n      pop\n      sload\n      swap1\n      0x0100\n      exp\n      swap1\n      div\n      0xff\n      and\n      dup2\n      jump\t// out\n        /* \"A/AccountHarvesting/AccountHarvesting.sol\":5003:5044  mapping(string => bool) public userExists */\n    tag_29:\n      0x00\n      dup2\n      dup1\n      mload\n      0x20\n      dup2\n      add\n      dup3\n      add\n      dup1\n      mload\n      dup5\n      dup3\n      mstore\n      0x20\n      dup4\n      add\n      0x20\n      dup6\n      add\n      keccak256\n      dup2\n      dup4\n      mstore\n      dup1\n      swap6\n      pop\n      pop\n      pop\n      pop\n      pop\n      pop\n      0x00\n      swap2\n      pop\n      sload\n      swap1\n      0x0100\n      exp\n      swap1\n      div\n      0xff\n      and\n      dup2\n      jump\t// out\n        /* \"#utility.yul\":7:82   */\n    tag_42:\n        /* \"#utility.yul\":40:46   */\n      0x00\n        /* \"#utility.yul\":73:75   */\n      0x40\n        /* \"#utility.yul\":67:76   */\n      mload\n        /* \"#utility.yul\":57:76   */\n      swap1\n      pop\n        /* \"#utility.yul\":7:82   */\n      swap1\n      jump\t// out\n        /* \"#utility.yul\":88:205   */\n    tag_43:\n        /* \"#utility.yul\":197:198   */\n      0x00\n        /* \"#utility.yul\":194:195   */\n      dup1\n        /* \"#utility.yul\":187:199   */\n      revert\n        /* \"#utility.yul\":211:328   */\n    tag_44:\n        /* \"#utility.yul\":320:321   */\n      0x00\n        /* \"#utility.yul\":317:318   */\n      dup1\n        /* \"#utility.yul\":310:322   */\n      revert\n        /* \"#utility.yul\":334:451   */\n    tag_45:\n        /* \"#utility.yul\":443:444   */\n      0x00\n        /* \"#utility.yul\":440:441   */\n      dup1\n        /* \"#utility.yul\":433:445   */\n      revert\n        /* \"#utility.yul\":457:574   */\n    tag_46:\n        /* \"#utility.yul\":566:567   */\n      0x00\n        /* \"#utility.yul\":563:564   */\n      dup1\n        /* \"#utility.yul\":556:568   */\n      revert\n        /* \"#utility.yul\":580:697   */\n    tag_47:\n        /* \"#utility.yul\":689:690   */\n      0x00\n        /* \"#utility.yul\":686:687   */\n      dup1\n        /* \"#utility.yul\":679:691   */\n      revert\n        /* \"#utility.yul\":717:1270   */\n    tag_48:\n        /* \"#utility.yul\":775:783   */\n      0x00\n        /* \"#utility.yul\":785:791   */\n      dup1\n        /* \"#utility.yul\":835:838   */\n      dup4\n        /* \"#utility.yul\":828:832   */\n      0x1f\n        /* \"#utility.yul\":820:826   */\n      dup5\n        /* \"#utility.yul\":816:833   */\n      add\n        /* \"#utility.yul\":812:839   */\n      slt\n        /* \"#utility.yul\":802:924   */\n      tag_84\n      jumpi\n        /* \"#utility.yul\":843:922   */\n      tag_85\n      tag_45\n      jump\t// in\n    tag_85:\n        /* \"#utility.yul\":802:924   */\n    tag_84:\n        /* \"#utility.yul\":956:962   */\n      dup3\n        /* \"#utility.yul\":943:963   */\n      calldataload\n        /* \"#utility.yul\":933:963   */\n      swap1\n      pop\n        /* \"#utility.yul\":986:1004   */\n      0xffffffffffffffff\n        /* \"#utility.yul\":978:984   */\n      dup2\n        /* \"#utility.yul\":975:1005   */\n      gt\n        /* \"#utility.yul\":972:1089   */\n      iszero\n      tag_86\n      jumpi\n        /* \"#utility.yul\":1008:1087   */\n      tag_87\n      tag_46\n      jump\t// in\n    tag_87:\n        /* \"#utility.yul\":972:1089   */\n    tag_86:\n        /* \"#utility.yul\":1122:1126   */\n      0x20\n        /* \"#utility.yul\":1114:1120   */\n      dup4\n        /* \"#utility.yul\":1110:1127   */\n      add\n        /* \"#utility.yul\":1098:1127   */\n      swap2\n      pop\n        /* \"#utility.yul\":1176:1179   */\n      dup4\n        /* \"#utility.yul\":1168:1172   */\n      0x01\n        /* \"#utility.yul\":1160:1166   */\n      dup3\n        /* \"#utility.yul\":1156:1173   */\n      mul\n        /* \"#utility.yul\":1146:1154   */\n      dup4\n        /* \"#utility.yul\":1142:1174   */\n      add\n        /* \"#utility.yul\":1139:1180   */\n      gt\n        /* \"#utility.yul\":1136:1264   */\n      iszero\n      tag_88\n      jumpi\n        /* \"#utility.yul\":1183:1262   */\n      tag_89\n      tag_47\n      jump\t// in\n    tag_89:\n        /* \"#utility.yul\":1136:1264   */\n    tag_88:\n        /* \"#utility.yul\":717:1270   */\n      swap3\n      pop\n      swap3\n      swap1\n      pop\n      jump\t// out\n        /* \"#utility.yul\":1276:1805   */\n    tag_10:\n        /* \"#utility.yul\":1347:1353   */\n      0x00\n        /* \"#utility.yul\":1355:1361   */\n      dup1\n        /* \"#utility.yul\":1404:1406   */\n      0x20\n        /* \"#utility.yul\":1392:1401   */\n      dup4\n        /* \"#utility.yul\":1383:1390   */\n      dup6\n        /* \"#utility.yul\":1379:1402   */\n      sub\n        /* \"#utility.yul\":1375:1407   */\n      slt\n        /* \"#utility.yul\":1372:1491   */\n      iszero\n      tag_91\n      jumpi\n        /* \"#utility.yul\":1410:1489   */\n      tag_92\n      tag_43\n      jump\t// in\n    tag_92:\n        /* \"#utility.yul\":1372:1491   */\n    tag_91:\n        /* \"#utility.yul\":1558:1559   */\n      0x00\n        /* \"#utility.yul\":1547:1556   */\n      dup4\n        /* \"#utility.yul\":1543:1560   */\n      add\n        /* \"#utility.yul\":1530:1561   */\n      calldataload\n        /* \"#utility.yul\":1588:1606   */\n      0xffffffffffffffff\n        /* \"#utility.yul\":1580:1586   */\n      dup2\n        /* \"#utility.yul\":1577:1607   */\n      gt\n        /* \"#utility.yul\":1574:1691   */\n      iszero\n      tag_93\n      jumpi\n        /* \"#utility.yul\":1610:1689   */\n      tag_94\n      tag_44\n      jump\t// in\n    tag_94:\n        /* \"#utility.yul\":1574:1691   */\n    tag_93:\n        /* \"#utility.yul\":1723:1788   */\n      tag_95\n        /* \"#utility.yul\":1780:1787   */\n      dup6\n        /* \"#utility.yul\":1771:1777   */\n      dup3\n        /* \"#utility.yul\":1760:1769   */\n      dup7\n        /* \"#utility.yul\":1756:1778   */\n      add\n        /* \"#utility.yul\":1723:1788   */\n      tag_48\n      jump\t// in\n    tag_95:\n        /* \"#utility.yul\":1705:1788   */\n      swap3\n      pop\n      swap3\n      pop\n        /* \"#utility.yul\":1501:1798   */\n      pop\n        /* \"#utility.yul\":1276:1805   */\n      swap3\n      pop\n      swap3\n      swap1\n      pop\n      jump\t// out\n        /* \"#utility.yul\":1811:1937   */\n    tag_49:\n        /* \"#utility.yul\":1848:1855   */\n      0x00\n        /* \"#utility.yul\":1888:1930   */\n      0xffffffffffffffffffffffffffffffffffffffff\n        /* \"#utility.yul\":1881:1886   */\n      dup3\n        /* \"#utility.yul\":1877:1931   */\n      and\n        /* \"#utility.yul\":1866:1931   */\n      swap1\n      pop\n        /* \"#utility.yul\":1811:1937   */\n      swap2\n      swap1\n      pop\n      jump\t// out\n        /* \"#utility.yul\":1943:2039   */\n    tag_50:\n        /* \"#utility.yul\":1980:1987   */\n      0x00\n        /* \"#utility.yul\":2009:2033   */\n      tag_98\n        /* \"#utility.yul\":2027:2032   */\n      dup3\n        /* \"#utility.yul\":2009:2033   */\n      tag_49\n      jump\t// in\n    tag_98:\n        /* \"#utility.yul\":1998:2033   */\n      swap1\n      pop\n        /* \"#utility.yul\":1943:2039   */\n      swap2\n      swap1\n      pop\n      jump\t// out\n        /* \"#utility.yul\":2045:2167   */\n    tag_51:\n        /* \"#utility.yul\":2118:2142   */\n      tag_100\n        /* \"#utility.yul\":2136:2141   */\n      dup2\n        /* \"#utility.yul\":2118:2142   */\n      tag_50\n      jump\t// in\n    tag_100:\n        /* \"#utility.yul\":2111:2116   */\n      dup2\n        /* \"#utility.yul\":2108:2143   */\n      eq\n        /* \"#utility.yul\":2098:2161   */\n      tag_101\n      jumpi\n        /* \"#utility.yul\":2157:2158   */\n      0x00\n        /* \"#utility.yul\":2154:2155   */\n      dup1\n        /* \"#utility.yul\":2147:2159   */\n      revert\n        /* \"#utility.yul\":2098:2161   */\n    tag_101:\n        /* \"#utility.yul\":2045:2167   */\n      pop\n      jump\t// out\n        /* \"#utility.yul\":2173:2312   */\n    tag_52:\n        /* \"#utility.yul\":2219:2224   */\n      0x00\n        /* \"#utility.yul\":2257:2263   */\n      dup2\n        /* \"#utility.yul\":2244:2264   */\n      calldataload\n        /* \"#utility.yul\":2235:2264   */\n      swap1\n      pop\n        /* \"#utility.yul\":2273:2306   */\n      tag_103\n        /* \"#utility.yul\":2300:2305   */\n      dup2\n        /* \"#utility.yul\":2273:2306   */\n      tag_51\n      jump\t// in\n    tag_103:\n        /* \"#utility.yul\":2173:2312   */\n      swap3\n      swap2\n      pop\n      pop\n      jump\t// out\n        /* \"#utility.yul\":2318:2647   */\n    tag_14:\n        /* \"#utility.yul\":2377:2383   */\n      0x00\n        /* \"#utility.yul\":2426:2428   */\n      0x20\n        /* \"#utility.yul\":2414:2423   */\n      dup3\n        /* \"#utility.yul\":2405:2412   */\n      dup5\n        /* \"#utility.yul\":2401:2424   */\n      sub\n        /* \"#utility.yul\":2397:2429   */\n      slt\n        /* \"#utility.yul\":2394:2513   */\n      iszero\n      tag_105\n      jumpi\n        /* \"#utility.yul\":2432:2511   */\n      tag_106\n      tag_43\n      jump\t// in\n    tag_106:\n        /* \"#utility.yul\":2394:2513   */\n    tag_105:\n        /* \"#utility.yul\":2552:2553   */\n      0x00\n        /* \"#utility.yul\":2577:2630   */\n      tag_107\n        /* \"#utility.yul\":2622:2629   */\n      dup5\n        /* \"#utility.yul\":2613:2619   */\n      dup3\n        /* \"#utility.yul\":2602:2611   */\n      dup6\n        /* \"#utility.yul\":2598:2620   */\n      add\n        /* \"#utility.yul\":2577:2630   */\n      tag_52\n      jump\t// in\n    tag_107:\n        /* \"#utility.yul\":2567:2630   */\n      swap2\n      pop\n        /* \"#utility.yul\":2523:2640   */\n      pop\n        /* \"#utility.yul\":2318:2647   */\n      swap3\n      swap2\n      pop\n      pop\n      jump\t// out\n        /* \"#utility.yul\":2653:2730   */\n    tag_53:\n        /* \"#utility.yul\":2690:2697   */\n      0x00\n        /* \"#utility.yul\":2719:2724   */\n      dup2\n        /* \"#utility.yul\":2708:2724   */\n      swap1\n      pop\n        /* \"#utility.yul\":2653:2730   */\n      swap2\n      swap1\n      pop\n      jump\t// out\n        /* \"#utility.yul\":2736:2854   */\n    tag_54:\n        /* \"#utility.yul\":2823:2847   */\n      tag_110\n        /* \"#utility.yul\":2841:2846   */\n      dup2\n        /* \"#utility.yul\":2823:2847   */\n      tag_53\n      jump\t// in\n    tag_110:\n        /* \"#utility.yul\":2818:2821   */\n      dup3\n        /* \"#utility.yul\":2811:2848   */\n      mstore\n        /* \"#utility.yul\":2736:2854   */\n      pop\n      pop\n      jump\t// out\n        /* \"#utility.yul\":2860:3082   */\n    tag_17:\n        /* \"#utility.yul\":2953:2957   */\n      0x00\n        /* \"#utility.yul\":2991:2993   */\n      0x20\n        /* \"#utility.yul\":2980:2989   */\n      dup3\n        /* \"#utility.yul\":2976:2994   */\n      add\n        /* \"#utility.yul\":2968:2994   */\n      swap1\n      pop\n        /* \"#utility.yul\":3004:3075   */\n      tag_112\n        /* \"#utility.yul\":3072:3073   */\n      0x00\n        /* \"#utility.yul\":3061:3070   */\n      dup4\n        /* \"#utility.yul\":3057:3074   */\n      add\n        /* \"#utility.yul\":3048:3054   */\n      dup5\n        /* \"#utility.yul\":3004:3075   */\n      tag_54\n      jump\t// in\n    tag_112:\n        /* \"#utility.yul\":2860:3082   */\n      swap3\n      swap2\n      pop\n      pop\n      jump\t// out\n        /* \"#utility.yul\":3088:3178   */\n    tag_55:\n        /* \"#utility.yul\":3122:3129   */\n      0x00\n        /* \"#utility.yul\":3165:3170   */\n      dup2\n        /* \"#utility.yul\":3158:3171   */\n      iszero\n        /* \"#utility.yul\":3151:3172   */\n      iszero\n        /* \"#utility.yul\":3140:3172   */\n      swap1\n      pop\n        /* \"#utility.yul\":3088:3178   */\n      swap2\n      swap1\n      pop\n      jump\t// out\n        /* \"#utility.yul\":3184:3293   */\n    tag_56:\n        /* \"#utility.yul\":3265:3286   */\n      tag_115\n        /* \"#utility.yul\":3280:3285   */\n      dup2\n        /* \"#utility.yul\":3265:3286   */\n      tag_55\n      jump\t// in\n    tag_115:\n        /* \"#utility.yul\":3260:3263   */\n      dup3\n        /* \"#utility.yul\":3253:3287   */\n      mstore\n        /* \"#utility.yul\":3184:3293   */\n      pop\n      pop\n      jump\t// out\n        /* \"#utility.yul\":3299:3509   */\n    tag_25:\n        /* \"#utility.yul\":3386:3390   */\n      0x00\n        /* \"#utility.yul\":3424:3426   */\n      0x20\n        /* \"#utility.yul\":3413:3422   */\n      dup3\n        /* \"#utility.yul\":3409:3427   */\n      add\n        /* \"#utility.yul\":3401:3427   */\n      swap1\n      pop\n        /* \"#utility.yul\":3437:3502   */\n      tag_117\n        /* \"#utility.yul\":3499:3500   */\n      0x00\n        /* \"#utility.yul\":3488:3497   */\n      dup4\n        /* \"#utility.yul\":3484:3501   */\n      add\n        /* \"#utility.yul\":3475:3481   */\n      dup5\n        /* \"#utility.yul\":3437:3502   */\n      tag_56\n      jump\t// in\n    tag_117:\n        /* \"#utility.yul\":3299:3509   */\n      swap3\n      swap2\n      pop\n      pop\n      jump\t// out\n        /* \"#utility.yul\":3515:3632   */\n    tag_57:\n        /* \"#utility.yul\":3624:3625   */\n      0x00\n        /* \"#utility.yul\":3621:3622   */\n      dup1\n        /* \"#utility.yul\":3614:3626   */\n      revert\n        /* \"#utility.yul\":3638:3740   */\n    tag_58:\n        /* \"#utility.yul\":3679:3685   */\n      0x00\n        /* \"#utility.yul\":3730:3732   */\n      0x1f\n        /* \"#utility.yul\":3726:3733   */\n      not\n        /* \"#utility.yul\":3721:3723   */\n      0x1f\n        /* \"#utility.yul\":3714:3719   */\n      dup4\n        /* \"#utility.yul\":3710:3724   */\n      add\n        /* \"#utility.yul\":3706:3734   */\n      and\n        /* \"#utility.yul\":3696:3734   */\n      swap1\n      pop\n        /* \"#utility.yul\":3638:3740   */\n      swap2\n      swap1\n      pop\n      jump\t// out\n        /* \"#utility.yul\":3746:3926   */\n    tag_59:\n        /* \"#utility.yul\":3794:3871   */\n      0x4e487b7100000000000000000000000000000000000000000000000000000000\n        /* \"#utility.yul\":3791:3792   */\n      0x00\n        /* \"#utility.yul\":3784:3872   */\n      mstore\n        /* \"#utility.yul\":3891:3895   */\n      0x41\n        /* \"#utility.yul\":3888:3889   */\n      0x04\n        /* \"#utility.yul\":3881:3896   */\n      mstore\n        /* \"#utility.yul\":3915:3919   */\n      0x24\n        /* \"#utility.yul\":3912:3913   */\n      0x00\n        /* \"#utility.yul\":3905:3920   */\n      revert\n        /* \"#utility.yul\":3932:4213   */\n    tag_60:\n        /* \"#utility.yul\":4015:4042   */\n      tag_122\n        /* \"#utility.yul\":4037:4041   */\n      dup3\n        /* \"#utility.yul\":4015:4042   */\n      tag_58\n      jump\t// in\n    tag_122:\n        /* \"#utility.yul\":4007:4013   */\n      dup2\n        /* \"#utility.yul\":4003:4043   */\n      add\n        /* \"#utility.yul\":4145:4151   */\n      dup2\n        /* \"#utility.yul\":4133:4143   */\n      dup2\n        /* \"#utility.yul\":4130:4152   */\n      lt\n        /* \"#utility.yul\":4109:4127   */\n      0xffffffffffffffff\n        /* \"#utility.yul\":4097:4107   */\n      dup3\n        /* \"#utility.yul\":4094:4128   */\n      gt\n        /* \"#utility.yul\":4091:4153   */\n      or\n        /* \"#utility.yul\":4088:4176   */\n      iszero\n      tag_123\n      jumpi\n        /* \"#utility.yul\":4156:4174   */\n      tag_124\n      tag_59\n      jump\t// in\n    tag_124:\n        /* \"#utility.yul\":4088:4176   */\n    tag_123:\n        /* \"#utility.yul\":4196:4206   */\n      dup1\n        /* \"#utility.yul\":4192:4194   */\n      0x40\n        /* \"#utility.yul\":4185:4207   */\n      mstore\n        /* \"#utility.yul\":3975:4213   */\n      pop\n        /* \"#utility.yul\":3932:4213   */\n      pop\n      pop\n      jump\t// out\n        /* \"#utility.yul\":4219:4348   */\n    tag_61:\n        /* \"#utility.yul\":4253:4259   */\n      0x00\n        /* \"#utility.yul\":4280:4300   */\n      tag_126\n      tag_42\n      jump\t// in\n    tag_126:\n        /* \"#utility.yul\":4270:4300   */\n      swap1\n      pop\n        /* \"#utility.yul\":4309:4342   */\n      tag_127\n        /* \"#utility.yul\":4337:4341   */\n      dup3\n        /* \"#utility.yul\":4329:4335   */\n      dup3\n        /* \"#utility.yul\":4309:4342   */\n      tag_60\n      jump\t// in\n    tag_127:\n        /* \"#utility.yul\":4219:4348   */\n      swap2\n      swap1\n      pop\n      jump\t// out\n        /* \"#utility.yul\":4354:4662   */\n    tag_62:\n        /* \"#utility.yul\":4416:4420   */\n      0x00\n        /* \"#utility.yul\":4506:4524   */\n      0xffffffffffffffff\n        /* \"#utility.yul\":4498:4504   */\n      dup3\n        /* \"#utility.yul\":4495:4525   */\n      gt\n        /* \"#utility.yul\":4492:4548   */\n      iszero\n      tag_129\n      jumpi\n        /* \"#utility.yul\":4528:4546   */\n      tag_130\n      tag_59\n      jump\t// in\n    tag_130:\n        /* \"#utility.yul\":4492:4548   */\n    tag_129:\n        /* \"#utility.yul\":4566:4595   */\n      tag_131\n        /* \"#utility.yul\":4588:4594   */\n      dup3\n        /* \"#utility.yul\":4566:4595   */\n      tag_58\n      jump\t// in\n    tag_131:\n        /* \"#utility.yul\":4558:4595   */\n      swap1\n      pop\n        /* \"#utility.yul\":4650:4654   */\n      0x20\n        /* \"#utility.yul\":4644:4648   */\n      dup2\n        /* \"#utility.yul\":4640:4655   */\n      add\n        /* \"#utility.yul\":4632:4655   */\n      swap1\n      pop\n        /* \"#utility.yul\":4354:4662   */\n      swap2\n      swap1\n      pop\n      jump\t// out\n        /* \"#utility.yul\":4668:4816   */\n    tag_63:\n        /* \"#utility.yul\":4766:4772   */\n      dup3\n        /* \"#utility.yul\":4761:4764   */\n      dup2\n        /* \"#utility.yul\":4756:4759   */\n      dup4\n        /* \"#utility.yul\":4743:4773   */\n      calldatacopy\n        /* \"#utility.yul\":4807:4808   */\n      0x00\n        /* \"#utility.yul\":4798:4804   */\n      dup4\n        /* \"#utility.yul\":4793:4796   */\n      dup4\n        /* \"#utility.yul\":4789:4805   */\n      add\n        /* \"#utility.yul\":4782:4809   */\n      mstore\n        /* \"#utility.yul\":4668:4816   */\n      pop\n      pop\n      pop\n      jump\t// out\n        /* \"#utility.yul\":4822:5247   */\n    tag_64:\n        /* \"#utility.yul\":4900:4905   */\n      0x00\n        /* \"#utility.yul\":4925:4991   */\n      tag_134\n        /* \"#utility.yul\":4941:4990   */\n      tag_135\n        /* \"#utility.yul\":4983:4989   */\n      dup5\n        /* \"#utility.yul\":4941:4990   */\n      tag_62\n      jump\t// in\n    tag_135:\n        /* \"#utility.yul\":4925:4991   */\n      tag_61\n      jump\t// in\n    tag_134:\n        /* \"#utility.yul\":4916:4991   */\n      swap1\n      pop\n        /* \"#utility.yul\":5014:5020   */\n      dup3\n        /* \"#utility.yul\":5007:5012   */\n      dup2\n        /* \"#utility.yul\":5000:5021   */\n      mstore\n        /* \"#utility.yul\":5052:5056   */\n      0x20\n        /* \"#utility.yul\":5045:5050   */\n      dup2\n        /* \"#utility.yul\":5041:5057   */\n      add\n        /* \"#utility.yul\":5090:5093   */\n      dup5\n        /* \"#utility.yul\":5081:5087   */\n      dup5\n        /* \"#utility.yul\":5076:5079   */\n      dup5\n        /* \"#utility.yul\":5072:5088   */\n      add\n        /* \"#utility.yul\":5069:5094   */\n      gt\n        /* \"#utility.yul\":5066:5178   */\n      iszero\n      tag_136\n      jumpi\n        /* \"#utility.yul\":5097:5176   */\n      tag_137\n      tag_57\n      jump\t// in\n    tag_137:\n        /* \"#utility.yul\":5066:5178   */\n    tag_136:\n        /* \"#utility.yul\":5187:5241   */\n      tag_138\n        /* \"#utility.yul\":5234:5240   */\n      dup5\n        /* \"#utility.yul\":5229:5232   */\n      dup3\n        /* \"#utility.yul\":5224:5227   */\n      dup6\n        /* \"#utility.yul\":5187:5241   */\n      tag_63\n      jump\t// in\n    tag_138:\n        /* \"#utility.yul\":4906:5247   */\n      pop\n        /* \"#utility.yul\":4822:5247   */\n      swap4\n      swap3\n      pop\n      pop\n      pop\n      jump\t// out\n        /* \"#utility.yul\":5267:5607   */\n    tag_65:\n        /* \"#utility.yul\":5323:5328   */\n      0x00\n        /* \"#utility.yul\":5372:5375   */\n      dup3\n        /* \"#utility.yul\":5365:5369   */\n      0x1f\n        /* \"#utility.yul\":5357:5363   */\n      dup4\n        /* \"#utility.yul\":5353:5370   */\n      add\n        /* \"#utility.yul\":5349:5376   */\n      slt\n        /* \"#utility.yul\":5339:5461   */\n      tag_140\n      jumpi\n        /* \"#utility.yul\":5380:5459   */\n      tag_141\n      tag_45\n      jump\t// in\n    tag_141:\n        /* \"#utility.yul\":5339:5461   */\n    tag_140:\n        /* \"#utility.yul\":5497:5503   */\n      dup2\n        /* \"#utility.yul\":5484:5504   */\n      calldataload\n        /* \"#utility.yul\":5522:5601   */\n      tag_142\n        /* \"#utility.yul\":5597:5600   */\n      dup5\n        /* \"#utility.yul\":5589:5595   */\n      dup3\n        /* \"#utility.yul\":5582:5586   */\n      0x20\n        /* \"#utility.yul\":5574:5580   */\n      dup7\n        /* \"#utility.yul\":5570:5587   */\n      add\n        /* \"#utility.yul\":5522:5601   */\n      tag_64\n      jump\t// in\n    tag_142:\n        /* \"#utility.yul\":5513:5601   */\n      swap2\n      pop\n        /* \"#utility.yul\":5329:5607   */\n      pop\n        /* \"#utility.yul\":5267:5607   */\n      swap3\n      swap2\n      pop\n      pop\n      jump\t// out\n        /* \"#utility.yul\":5613:6122   */\n    tag_28:\n        /* \"#utility.yul\":5682:5688   */\n      0x00\n        /* \"#utility.yul\":5731:5733   */\n      0x20\n        /* \"#utility.yul\":5719:5728   */\n      dup3\n        /* \"#utility.yul\":5710:5717   */\n      dup5\n        /* \"#utility.yul\":5706:5729   */\n      sub\n        /* \"#utility.yul\":5702:5734   */\n      slt\n        /* \"#utility.yul\":5699:5818   */\n      iszero\n      tag_144\n      jumpi\n        /* \"#utility.yul\":5737:5816   */\n      tag_145\n      tag_43\n      jump\t// in\n    tag_145:\n        /* \"#utility.yul\":5699:5818   */\n    tag_144:\n        /* \"#utility.yul\":5885:5886   */\n      0x00\n        /* \"#utility.yul\":5874:5883   */\n      dup3\n        /* \"#utility.yul\":5870:5887   */\n      add\n        /* \"#utility.yul\":5857:5888   */\n      calldataload\n        /* \"#utility.yul\":5915:5933   */\n      0xffffffffffffffff\n        /* \"#utility.yul\":5907:5913   */\n      dup2\n        /* \"#utility.yul\":5904:5934   */\n      gt\n        /* \"#utility.yul\":5901:6018   */\n      iszero\n      tag_146\n      jumpi\n        /* \"#utility.yul\":5937:6016   */\n      tag_147\n      tag_44\n      jump\t// in\n    tag_147:\n        /* \"#utility.yul\":5901:6018   */\n    tag_146:\n        /* \"#utility.yul\":6042:6105   */\n      tag_148\n        /* \"#utility.yul\":6097:6104   */\n      dup5\n        /* \"#utility.yul\":6088:6094   */\n      dup3\n        /* \"#utility.yul\":6077:6086   */\n      dup6\n        /* \"#utility.yul\":6073:6095   */\n      add\n        /* \"#utility.yul\":6042:6105   */\n      tag_65\n      jump\t// in\n    tag_148:\n        /* \"#utility.yul\":6032:6105   */\n      swap2\n      pop\n        /* \"#utility.yul\":5828:6115   */\n      pop\n        /* \"#utility.yul\":5613:6122   */\n      swap3\n      swap2\n      pop\n      pop\n      jump\t// out\n        /* \"#utility.yul\":6128:6276   */\n    tag_66:\n        /* \"#utility.yul\":6230:6241   */\n      0x00\n        /* \"#utility.yul\":6267:6270   */\n      dup2\n        /* \"#utility.yul\":6252:6270   */\n      swap1\n      pop\n        /* \"#utility.yul\":6128:6276   */\n      swap3\n      swap2\n      pop\n      pop\n      jump\t// out\n        /* \"#utility.yul\":6306:6636   */\n    tag_67:\n        /* \"#utility.yul\":6422:6425   */\n      0x00\n        /* \"#utility.yul\":6443:6532   */\n      tag_151\n        /* \"#utility.yul\":6525:6531   */\n      dup4\n        /* \"#utility.yul\":6520:6523   */\n      dup6\n        /* \"#utility.yul\":6443:6532   */\n      tag_66\n      jump\t// in\n    tag_151:\n        /* \"#utility.yul\":6436:6532   */\n      swap4\n      pop\n        /* \"#utility.yul\":6542:6598   */\n      tag_152\n        /* \"#utility.yul\":6591:6597   */\n      dup4\n        /* \"#utility.yul\":6586:6589   */\n      dup6\n        /* \"#utility.yul\":6579:6584   */\n      dup5\n        /* \"#utility.yul\":6542:6598   */\n      tag_63\n      jump\t// in\n    tag_152:\n        /* \"#utility.yul\":6623:6629   */\n      dup3\n        /* \"#utility.yul\":6618:6621   */\n      dup5\n        /* \"#utility.yul\":6614:6630   */\n      add\n        /* \"#utility.yul\":6607:6630   */\n      swap1\n      pop\n        /* \"#utility.yul\":6306:6636   */\n      swap4\n      swap3\n      pop\n      pop\n      pop\n      jump\t// out\n        /* \"#utility.yul\":6642:6937   */\n    tag_34:\n        /* \"#utility.yul\":6784:6787   */\n      0x00\n        /* \"#utility.yul\":6806:6911   */\n      tag_154\n        /* \"#utility.yul\":6907:6910   */\n      dup3\n        /* \"#utility.yul\":6898:6904   */\n      dup5\n        /* \"#utility.yul\":6890:6896   */\n      dup7\n        /* \"#utility.yul\":6806:6911   */\n      tag_67\n      jump\t// in\n    tag_154:\n        /* \"#utility.yul\":6799:6911   */\n      swap2\n      pop\n        /* \"#utility.yul\":6928:6931   */\n      dup2\n        /* \"#utility.yul\":6921:6931   */\n      swap1\n      pop\n        /* \"#utility.yul\":6642:6937   */\n      swap4\n      swap3\n      pop\n      pop\n      pop\n      jump\t// out\n        /* \"#utility.yul\":6943:7123   */\n    tag_68:\n        /* \"#utility.yul\":6991:7068   */\n      0x4e487b7100000000000000000000000000000000000000000000000000000000\n        /* \"#utility.yul\":6988:6989   */\n      0x00\n        /* \"#utility.yul\":6981:7069   */\n      mstore\n        /* \"#utility.yul\":7088:7092   */\n      0x11\n        /* \"#utility.yul\":7085:7086   */\n      0x04\n        /* \"#utility.yul\":7078:7093   */\n      mstore\n        /* \"#utility.yul\":7112:7116   */\n      0x24\n        /* \"#utility.yul\":7109:7110   */\n      0x00\n        /* \"#utility.yul\":7102:7117   */\n      revert\n        /* \"#utility.yul\":7129:7362   */\n    tag_37:\n        /* \"#utility.yul\":7168:7171   */\n      0x00\n        /* \"#utility.yul\":7191:7215   */\n      tag_157\n        /* \"#utility.yul\":7209:7214   */\n      dup3\n        /* \"#utility.yul\":7191:7215   */\n      tag_53\n      jump\t// in\n    tag_157:\n        /* \"#utility.yul\":7182:7215   */\n      swap2\n      pop\n        /* \"#utility.yul\":7237:7303   */\n      0xffffffffffffffffffffffffffffffffffffffffffffffffffffffffffffffff\n        /* \"#utility.yul\":7230:7235   */\n      dup3\n        /* \"#utility.yul\":7227:7304   */\n      sub\n        /* \"#utility.yul\":7224:7327   */\n      tag_158\n      jumpi\n        /* \"#utility.yul\":7307:7325   */\n      tag_159\n      tag_68\n      jump\t// in\n    tag_159:\n        /* \"#utility.yul\":7224:7327   */\n    tag_158:\n        /* \"#utility.yul\":7354:7355   */\n      0x01\n        /* \"#utility.yul\":7347:7352   */\n      dup3\n        /* \"#utility.yul\":7343:7356   */\n      add\n        /* \"#utility.yul\":7336:7356   */\n      swap1\n      pop\n        /* \"#utility.yul\":7129:7362   */\n      swap2\n      swap1\n      pop\n      jump\t// out\n        /* \"#utility.yul\":7368:7537   */\n    tag_69:\n        /* \"#utility.yul\":7452:7463   */\n      0x00\n        /* \"#utility.yul\":7486:7492   */\n      dup3\n        /* \"#utility.yul\":7481:7484   */\n      dup3\n        /* \"#utility.yul\":7474:7493   */\n      mstore\n        /* \"#utility.yul\":7526:7530   */\n      0x20\n        /* \"#utility.yul\":7521:7524   */\n      dup3\n        /* \"#utility.yul\":7517:7531   */\n      add\n        /* \"#utility.yul\":7502:7531   */\n      swap1\n      pop\n        /* \"#utility.yul\":7368:7537   */\n      swap3\n      swap2\n      pop\n      pop\n      jump\t// out\n        /* \"#utility.yul\":7567:7884   */\n    tag_70:\n        /* \"#utility.yul\":7665:7668   */\n      0x00\n        /* \"#utility.yul\":7686:7757   */\n      tag_162\n        /* \"#utility.yul\":7750:7756   */\n      dup4\n        /* \"#utility.yul\":7745:7748   */\n      dup6\n        /* \"#utility.yul\":7686:7757   */\n      tag_69\n      jump\t// in\n    tag_162:\n        /* \"#utility.yul\":7679:7757   */\n      swap4\n      pop\n        /* \"#utility.yul\":7767:7823   */\n      tag_163\n        /* \"#utility.yul\":7816:7822   */\n      dup4\n        /* \"#utility.yul\":7811:7814   */\n      dup6\n        /* \"#utility.yul\":7804:7809   */\n      dup5\n        /* \"#utility.yul\":7767:7823   */\n      tag_63\n      jump\t// in\n    tag_163:\n        /* \"#utility.yul\":7848:7877   */\n      tag_164\n        /* \"#utility.yul\":7870:7876   */\n      dup4\n        /* \"#utility.yul\":7848:7877   */\n      tag_58\n      jump\t// in\n    tag_164:\n        /* \"#utility.yul\":7843:7846   */\n      dup5\n        /* \"#utility.yul\":7839:7878   */\n      add\n        /* \"#utility.yul\":7832:7878   */\n      swap1\n      pop\n        /* \"#utility.yul\":7567:7884   */\n      swap4\n      swap3\n      pop\n      pop\n      pop\n      jump\t// out\n        /* \"#utility.yul\":7890:8070   */\n    tag_71:\n        /* \"#utility.yul\":7938:8015   */\n      0x4e487b7100000000000000000000000000000000000000000000000000000000\n        /* \"#utility.yul\":7935:7936   */\n      0x00\n        /* \"#utility.yul\":7928:8016   */\n      mstore\n        /* \"#utility.yul\":8035:8039   */\n      0x21\n        /* \"#utility.yul\":8032:8033   */\n      0x04\n        /* \"#utility.yul\":8025:8040   */\n      mstore\n        /* \"#utility.yul\":8059:8063   */\n      0x24\n        /* \"#utility.yul\":8056:8057   */\n      0x00\n        /* \"#utility.yul\":8049:8064   */\n      revert\n        /* \"#utility.yul\":8076:8212   */\n    tag_72:\n        /* \"#utility.yul\":8180:8181   */\n      0x04\n        /* \"#utility.yul\":8173:8178   */\n      dup2\n        /* \"#utility.yul\":8170:8182   */\n      lt\n        /* \"#utility.yul\":8160:8206   */\n      tag_167\n      jumpi\n        /* \"#utility.yul\":8186:8204   */\n      tag_168\n      tag_71\n      jump\t// in\n    tag_168:\n        /* \"#utility.yul\":8160:8206   */\n    tag_167:\n        /* \"#utility.yul\":8076:8212   */\n      pop\n      jump\t// out\n        /* \"#utility.yul\":8218:8391   */\n    tag_73:\n        /* \"#utility.yul\":8286:8293   */\n      0x00\n        /* \"#utility.yul\":8315:8320   */\n      dup2\n        /* \"#utility.yul\":8304:8320   */\n      swap1\n      pop\n        /* \"#utility.yul\":8321:8385   */\n      tag_170\n        /* \"#utility.yul\":8379:8384   */\n      dup3\n        /* \"#utility.yul\":8321:8385   */\n      tag_72\n      jump\t// in\n    tag_170:\n        /* \"#utility.yul\":8218:8391   */\n      swap2\n      swap1\n      pop\n      jump\t// out\n        /* \"#utility.yul\":8397:8570   */\n    tag_74:\n        /* \"#utility.yul\":8476:8485   */\n      0x00\n        /* \"#utility.yul\":8509:8564   */\n      tag_172\n        /* \"#utility.yul\":8558:8563   */\n      dup3\n        /* \"#utility.yul\":8509:8564   */\n      tag_73\n      jump\t// in\n    tag_172:\n        /* \"#utility.yul\":8496:8564   */\n      swap1\n      pop\n        /* \"#utility.yul\":8397:8570   */\n      swap2\n      swap1\n      pop\n      jump\t// out\n        /* \"#utility.yul\":8576:8765   */\n    tag_75:\n        /* \"#utility.yul\":8692:8758   */\n      tag_174\n        /* \"#utility.yul\":8752:8757   */\n      dup2\n        /* \"#utility.yul\":8692:8758   */\n      tag_74\n      jump\t// in\n    tag_174:\n        /* \"#utility.yul\":8687:8690   */\n      dup3\n        /* \"#utility.yul\":8680:8759   */\n      mstore\n        /* \"#utility.yul\":8576:8765   */\n      pop\n      pop\n      jump\t// out\n        /* \"#utility.yul\":8771:9272   */\n    tag_41:\n        /* \"#utility.yul\":8951:8955   */\n      0x00\n        /* \"#utility.yul\":8989:8991   */\n      0x40\n        /* \"#utility.yul\":8978:8987   */\n      dup3\n        /* \"#utility.yul\":8974:8992   */\n      add\n        /* \"#utility.yul\":8966:8992   */\n      swap1\n      pop\n        /* \"#utility.yul\":9038:9047   */\n      dup2\n        /* \"#utility.yul\":9032:9036   */\n      dup2\n        /* \"#utility.yul\":9028:9048   */\n      sub\n        /* \"#utility.yul\":9024:9025   */\n      0x00\n        /* \"#utility.yul\":9013:9022   */\n      dup4\n        /* \"#utility.yul\":9009:9026   */\n      add\n        /* \"#utility.yul\":9002:9049   */\n      mstore\n        /* \"#utility.yul\":9066:9154   */\n      tag_176\n        /* \"#utility.yul\":9149:9153   */\n      dup2\n        /* \"#utility.yul\":9140:9146   */\n      dup6\n        /* \"#utility.yul\":9132:9138   */\n      dup8\n        /* \"#utility.yul\":9066:9154   */\n      tag_70\n      jump\t// in\n    tag_176:\n        /* \"#utility.yul\":9058:9154   */\n      swap1\n      pop\n        /* \"#utility.yul\":9164:9265   */\n      tag_177\n        /* \"#utility.yul\":9261:9263   */\n      0x20\n        /* \"#utility.yul\":9250:9259   */\n      dup4\n        /* \"#utility.yul\":9246:9264   */\n      add\n        /* \"#utility.yul\":9237:9243   */\n      dup5\n        /* \"#utility.yul\":9164:9265   */\n      tag_75\n      jump\t// in\n    tag_177:\n        /* \"#utility.yul\":8771:9272   */\n      swap5\n      swap4\n      pop\n      pop\n      pop\n      pop\n      jump\t// out\n\n    auxdata: 0xa2646970667358221220b2d04a87f0f78359b13164aae1ef37157e7074f2027eb246bce41c51950db1e064736f6c634300081a0033\n}\n",
				"bytecode": {
					"linkReferences": {},
					"object": "608060405234801561000f575f80fd5b50604051610c6d380380610c6d833981810160405281019061003191906102ce565b5f5b81518110156100985760015f83838151811061005257610051610315565b5b60200260200101516040516100679190610386565b90815260200160405180910390205f6101000a81548160ff0219169083151502179055508080600101915050610033565b505061039c565b5f604051905090565b5f80fd5b5f80fd5b5f80fd5b5f601f19601f8301169050919050565b7f4e487b71000000000000000000000000000000000000000000000000000000005f52604160045260245ffd5b6100fa826100b4565b810181811067ffffffffffffffff82111715610119576101186100c4565b5b80604052505050565b5f61012b61009f565b905061013782826100f1565b919050565b5f67ffffffffffffffff821115610156576101556100c4565b5b602082029050602081019050919050565b5f80fd5b5f80fd5b5f67ffffffffffffffff821115610189576101886100c4565b5b610192826100b4565b9050602081019050919050565b8281835e5f83830152505050565b5f6101bf6101ba8461016f565b610122565b9050828152602081018484840111156101db576101da61016b565b5b6101e684828561019f565b509392505050565b5f82601f830112610202576102016100b0565b5b81516102128482602086016101ad565b91505092915050565b5f61022d6102288461013c565b610122565b905080838252602082019050602084028301858111156102505761024f610167565b5b835b8181101561029757805167ffffffffffffffff811115610275576102746100b0565b5b80860161028289826101ee565b85526020850194505050602081019050610252565b5050509392505050565b5f82601f8301126102b5576102b46100b0565b5b81516102c584826020860161021b565b91505092915050565b5f602082840312156102e3576102e26100a8565b5b5f82015167ffffffffffffffff811115610300576102ff6100ac565b5b61030c848285016102a1565b91505092915050565b7f4e487b71000000000000000000000000000000000000000000000000000000005f52603260045260245ffd5b5f81519050919050565b5f81905092915050565b5f61036082610342565b61036a818561034c565b935061037a81856020860161019f565b80840191505092915050565b5f6103918284610356565b915081905092915050565b6108c4806103a95f395ff3fe608060405234801561000f575f80fd5b5060043610610055575f3560e01c80631eb41b711461005957806350eb61ac14610075578063965d769f146100a5578063cbf9fe5f146100c3578063fddc968e146100f3575b5f80fd5b610073600480360381019061006e9190610442565b610123565b005b61008f600480360381019061008a91906104e7565b610365565b60405161009c919061052a565b60405180910390f35b6100ad61037a565b6040516100ba919061052a565b60405180910390f35b6100dd60048036038101906100d891906104e7565b61037f565b6040516100ea919061055d565b60405180910390f35b61010d600480360381019061010891906106ae565b61039c565b60405161011a919061055d565b60405180910390f35b60025f3373ffffffffffffffffffffffffffffffffffffffff1673ffffffffffffffffffffffffffffffffffffffff1681526020019081526020015f205f9054906101000a900460ff16156101a4576040517ff6dec6a000000000000000000000000000000000000000000000000000000000815260040160405180910390fd5b5f8083836040516101b6929190610723565b90815260200160405180910390205f9054906101000a900460ff169050806102ca5760015f3373ffffffffffffffffffffffffffffffffffffffff1673ffffffffffffffffffffffffffffffffffffffff1681526020019081526020015f205f81548092919061022590610768565b9190505550600360015f3373ffffffffffffffffffffffffffffffffffffffff1673ffffffffffffffffffffffffffffffffffffffff1681526020019081526020015f2054106102c557600160025f3373ffffffffffffffffffffffffffffffffffffffff1673ffffffffffffffffffffffffffffffffffffffff1681526020019081526020015f205f6101000a81548160ff0219169083151502179055505b61030d565b5f60015f3373ffffffffffffffffffffffffffffffffffffffff1673ffffffffffffffffffffffffffffffffffffffff1681526020019081526020015f20819055505b3373ffffffffffffffffffffffffffffffffffffffff167fdc840972025b14465e97e71ee4dc2050a4cf483e3feb7d6af5fa0b68ee58ec2f848460026040516103589392919061085e565b60405180910390a2505050565b6001602052805f5260405f205f915090505481565b600381565b6002602052805f5260405f205f915054906101000a900460ff1681565b5f818051602081018201805184825260208301602085012081835280955050505050505f915054906101000a900460ff1681565b5f604051905090565b5f80fd5b5f80fd5b5f80fd5b5f80fd5b5f80fd5b5f8083601f840112610402576104016103e1565b5b8235905067ffffffffffffffff81111561041f5761041e6103e5565b5b60208301915083600182028301111561043b5761043a6103e9565b5b9250929050565b5f8060208385031215610458576104576103d9565b5b5f83013567ffffffffffffffff811115610475576104746103dd565b5b610481858286016103ed565b92509250509250929050565b5f73ffffffffffffffffffffffffffffffffffffffff82169050919050565b5f6104b68261048d565b9050919050565b6104c6816104ac565b81146104d0575f80fd5b50565b5f813590506104e1816104bd565b92915050565b5f602082840312156104fc576104fb6103d9565b5b5f610509848285016104d3565b91505092915050565b5f819050919050565b61052481610512565b82525050565b5f60208201905061053d5f83018461051b565b92915050565b5f8115159050919050565b61055781610543565b82525050565b5f6020820190506105705f83018461054e565b92915050565b5f80fd5b5f601f19601f8301169050919050565b7f4e487b71000000000000000000000000000000000000000000000000000000005f52604160045260245ffd5b6105c08261057a565b810181811067ffffffffffffffff821117156105df576105de61058a565b5b80604052505050565b5f6105f16103d0565b90506105fd82826105b7565b919050565b5f67ffffffffffffffff82111561061c5761061b61058a565b5b6106258261057a565b9050602081019050919050565b828183375f83830152505050565b5f61065261064d84610602565b6105e8565b90508281526020810184848401111561066e5761066d610576565b5b610679848285610632565b509392505050565b5f82601f830112610695576106946103e1565b5b81356106a5848260208601610640565b91505092915050565b5f602082840312156106c3576106c26103d9565b5b5f82013567ffffffffffffffff8111156106e0576106df6103dd565b5b6106ec84828501610681565b91505092915050565b5f81905092915050565b5f61070a83856106f5565b9350610717838584610632565b82840190509392505050565b5f61072f8284866106ff565b91508190509392505050565b7f4e487b71000000000000000000000000000000000000000000000000000000005f52601160045260245ffd5b5f61077282610512565b91507fffffffffffffffffffffffffffffffffffffffffffffffffffffffffffffffff82036107a4576107a361073b565b5b600182019050919050565b5f82825260208201905092915050565b5f6107ca83856107af565b93506107d7838584610632565b6107e08361057a565b840190509392505050565b7f4e487b71000000000000000000000000000000000000000000000000000000005f52602160045260245ffd5b60048110610829576108286107eb565b5b50565b5f81905061083982610818565b919050565b5f6108488261082c565b9050919050565b6108588161083e565b82525050565b5f6040820190508181035f8301526108778185876107bf565b9050610886602083018461084f565b94935050505056fea2646970667358221220b2d04a87f0f78359b13164aae1ef37157e7074f2027eb246bce41c51950db1e064736f6c634300081a0033",
					"opcodes": "PUSH1 0x80 PUSH1 0x40 MSTORE CALLVALUE DUP1 ISZERO PUSH2 0xF JUMPI PUSH0 DUP1 REVERT JUMPDEST POP PUSH1 0x40 MLOAD PUSH2 0xC6D CODESIZE SUB DUP1 PUSH2 0xC6D DUP4 CODECOPY DUP2 DUP2 ADD PUSH1 0x40 MSTORE DUP2 ADD SWAP1 PUSH2 0x31 SWAP2 SWAP1 PUSH2 0x2CE JUMP JUMPDEST PUSH0 JUMPDEST DUP2 MLOAD DUP2 LT ISZERO PUSH2 0x98 JUMPI PUSH1 0x1 PUSH0 DUP4 DUP4 DUP2 MLOAD DUP2 LT PUSH2 0x52 JUMPI PUSH2 0x51 PUSH2 0x315 JUMP JUMPDEST JUMPDEST PUSH1 0x20 MUL PUSH1 0x20 ADD ADD MLOAD PUSH1 0x40 MLOAD PUSH2 0x67 SWAP2 SWAP1 PUSH2 0x386 JUMP JUMPDEST SWAP1 DUP2 MSTORE PUSH1 0x20 ADD PUSH1 0x40 MLOAD DUP1 SWAP2 SUB SWAP1 KECCAK256 PUSH0 PUSH2 0x100 EXP DUP2 SLOAD DUP2 PUSH1 0xFF MUL NOT AND SWAP1 DUP4 ISZERO ISZERO MUL OR SWAP1 SSTORE POP DUP1 DUP1 PUSH1 0x1 ADD SWAP2 POP POP PUSH2 0x33 JUMP JUMPDEST POP POP PUSH2 0x39C JUMP JUMPDEST PUSH0 PUSH1 0x40 MLOAD SWAP1 POP SWAP1 JUMP JUMPDEST PUSH0 DUP1 REVERT JUMPDEST PUSH0 DUP1 REVERT JUMPDEST PUSH0 DUP1 REVERT JUMPDEST PUSH0 PUSH1 0x1F NOT PUSH1 0x1F DUP4 ADD AND SWAP1 POP SWAP2 SWAP1 POP JUMP JUMPDEST PUSH32 0x4E487B7100000000000000000000000000000000000000000000000000000000 PUSH0 MSTORE PUSH1 0x41 PUSH1 0x4 MSTORE PUSH1 0x24 PUSH0 REVERT JUMPDEST PUSH2 0xFA DUP3 PUSH2 0xB4 JUMP JUMPDEST DUP2 ADD DUP2 DUP2 LT PUSH8 0xFFFFFFFFFFFFFFFF DUP3 GT OR ISZERO PUSH2 0x119 JUMPI PUSH2 0x118 PUSH2 0xC4 JUMP JUMPDEST JUMPDEST DUP1 PUSH1 0x40 MSTORE POP POP POP JUMP JUMPDEST PUSH0 PUSH2 0x12B PUSH2 0x9F JUMP JUMPDEST SWAP1 POP PUSH2 0x137 DUP3 DUP3 PUSH2 0xF1 JUMP JUMPDEST SWAP2 SWAP1 POP JUMP JUMPDEST PUSH0 PUSH8 0xFFFFFFFFFFFFFFFF DUP3 GT ISZERO PUSH2 0x156 JUMPI PUSH2 0x155 PUSH2 0xC4 JUMP JUMPDEST JUMPDEST PUSH1 0x20 DUP3 MUL SWAP1 POP PUSH1 0x20 DUP2 ADD SWAP1 POP SWAP2 SWAP1 POP JUMP JUMPDEST PUSH0 DUP1 REVERT JUMPDEST PUSH0 DUP1 REVERT JUMPDEST PUSH0 PUSH8 0xFFFFFFFFFFFFFFFF DUP3 GT ISZERO PUSH2 0x189 JUMPI PUSH2 0x188 PUSH2 0xC4 JUMP JUMPDEST JUMPDEST PUSH2 0x192 DUP3 PUSH2 0xB4 JUMP JUMPDEST SWAP1 POP PUSH1 0x20 DUP2 ADD SWAP1 POP SWAP2 SWAP1 POP JUMP JUMPDEST DUP3 DUP2 DUP4 MCOPY PUSH0 DUP4 DUP4 ADD MSTORE POP POP POP JUMP JUMPDEST PUSH0 PUSH2 0x1BF PUSH2 0x1BA DUP5 PUSH2 0x16F JUMP JUMPDEST PUSH2 0x122 JUMP JUMPDEST SWAP1 POP DUP3 DUP2 MSTORE PUSH1 0x20 DUP2 ADD DUP5 DUP5 DUP5 ADD GT ISZERO PUSH2 0x1DB JUMPI PUSH2 0x1DA PUSH2 0x16B JUMP JUMPDEST JUMPDEST PUSH2 0x1E6 DUP5 DUP3 DUP6 PUSH2 0x19F JUMP JUMPDEST POP SWAP4 SWAP3 POP POP POP JUMP JUMPDEST PUSH0 DUP3 PUSH1 0x1F DUP4 ADD SLT PUSH2 0x202 JUMPI PUSH2 0x201 PUSH2 0xB0 JUMP JUMPDEST JUMPDEST DUP2 MLOAD PUSH2 0x212 DUP5 DUP3 PUSH1 0x20 DUP7 ADD PUSH2 0x1AD JUMP JUMPDEST SWAP2 POP POP SWAP3 SWAP2 POP POP JUMP JUMPDEST PUSH0 PUSH2 0x22D PUSH2 0x228 DUP5 PUSH2 0x13C JUMP JUMPDEST PUSH2 0x122 JUMP JUMPDEST SWAP1 POP DUP1 DUP4 DUP3 MSTORE PUSH1 0x20 DUP3 ADD SWAP1 POP PUSH1 0x20 DUP5 MUL DUP4 ADD DUP6 DUP2 GT ISZERO PUSH2 0x250 JUMPI PUSH2 0x24F PUSH2 0x167 JUMP JUMPDEST JUMPDEST DUP4 JUMPDEST DUP2 DUP2 LT ISZERO PUSH2 0x297 JUMPI DUP1 MLOAD PUSH8 0xFFFFFFFFFFFFFFFF DUP2 GT ISZERO PUSH2 0x275 JUMPI PUSH2 0x274 PUSH2 0xB0 JUMP JUMPDEST JUMPDEST DUP1 DUP7 ADD PUSH2 0x282 DUP10 DUP3 PUSH2 0x1EE JUMP JUMPDEST DUP6 MSTORE PUSH1 0x20 DUP6 ADD SWAP5 POP POP POP PUSH1 0x20 DUP2 ADD SWAP1 POP PUSH2 0x252 JUMP JUMPDEST POP POP POP SWAP4 SWAP3 POP POP POP JUMP JUMPDEST PUSH0 DUP3 PUSH1 0x1F DUP4 ADD SLT PUSH2 0x2B5 JUMPI PUSH2 0x2B4 PUSH2 0xB0 JUMP JUMPDEST JUMPDEST DUP2 MLOAD PUSH2 0x2C5 DUP5 DUP3 PUSH1 0x20 DUP7 ADD PUSH2 0x21B JUMP JUMPDEST SWAP2 POP POP SWAP3 SWAP2 POP POP JUMP JUMPDEST PUSH0 PUSH1 0x20 DUP3 DUP5 SUB SLT ISZERO PUSH2 0x2E3 JUMPI PUSH2 0x2E2 PUSH2 0xA8 JUMP JUMPDEST JUMPDEST PUSH0 DUP3 ADD MLOAD PUSH8 0xFFFFFFFFFFFFFFFF DUP2 GT ISZERO PUSH2 0x300 JUMPI PUSH2 0x2FF PUSH2 0xAC JUMP JUMPDEST JUMPDEST PUSH2 0x30C DUP5 DUP3 DUP6 ADD PUSH2 0x2A1 JUMP JUMPDEST SWAP2 POP POP SWAP3 SWAP2 POP POP JUMP JUMPDEST PUSH32 0x4E487B7100000000000000000000000000000000000000000000000000000000 PUSH0 MSTORE PUSH1 0x32 PUSH1 0x4 MSTORE PUSH1 0x24 PUSH0 REVERT JUMPDEST PUSH0 DUP2 MLOAD SWAP1 POP SWAP2 SWAP1 POP JUMP JUMPDEST PUSH0 DUP2 SWAP1 POP SWAP3 SWAP2 POP POP JUMP JUMPDEST PUSH0 PUSH2 0x360 DUP3 PUSH2 0x342 JUMP JUMPDEST PUSH2 0x36A DUP2 DUP6 PUSH2 0x34C JUMP JUMPDEST SWAP4 POP PUSH2 0x37A DUP2 DUP6 PUSH1 0x20 DUP7 ADD PUSH2 0x19F JUMP JUMPDEST DUP1 DUP5 ADD SWAP2 POP POP SWAP3 SWAP2 POP POP JUMP JUMPDEST PUSH0 PUSH2 0x391 DUP3 DUP5 PUSH2 0x356 JUMP JUMPDEST SWAP2 POP DUP2 SWAP1 POP SWAP3 SWAP2 POP POP JUMP JUMPDEST PUSH2 0x8C4 DUP1 PUSH2 0x3A9 PUSH0 CODECOPY PUSH0 RETURN INVALID PUSH1 0x80 PUSH1 0x40 MSTORE CALLVALUE DUP1 ISZERO PUSH2 0xF JUMPI PUSH0 DUP1 REVERT JUMPDEST POP PUSH1 0x4 CALLDATASIZE LT PUSH2 0x55 JUMPI PUSH0 CALLDATALOAD PUSH1 0xE0 SHR DUP1 PUSH4 0x1EB41B71 EQ PUSH2 0x59 JUMPI DUP1 PUSH4 0x50EB61AC EQ PUSH2 0x75 JUMPI DUP1 PUSH4 0x965D769F EQ PUSH2 0xA5 JUMPI DUP1 PUSH4 0xCBF9FE5F EQ PUSH2 0xC3 JUMPI DUP1 PUSH4 0xFDDC968E EQ PUSH2 0xF3 JUMPI JUMPDEST PUSH0 DUP1 REVERT JUMPDEST PUSH2 0x73 PUSH1 0x4 DUP1 CALLDATASIZE SUB DUP2 ADD SWAP1 PUSH2 0x6E SWAP2 SWAP1 PUSH2 0x442 JUMP JUMPDEST PUSH2 0x123 JUMP JUMPDEST STOP JUMPDEST PUSH2 0x8F PUSH1 0x4 DUP1 CALLDATASIZE SUB DUP2 ADD SWAP1 PUSH2 0x8A SWAP2 SWAP1 PUSH2 0x4E7 JUMP JUMPDEST PUSH2 0x365 JUMP JUMPDEST PUSH1 0x40 MLOAD PUSH2 0x9C SWAP2 SWAP1 PUSH2 0x52A JUMP JUMPDEST PUSH1 0x40 MLOAD DUP1 SWAP2 SUB SWAP1 RETURN JUMPDEST PUSH2 0xAD PUSH2 0x37A JUMP JUMPDEST PUSH1 0x40 MLOAD PUSH2 0xBA SWAP2 SWAP1 PUSH2 0x52A JUMP JUMPDEST PUSH1 0x40 MLOAD DUP1 SWAP2 SUB SWAP1 RETURN JUMPDEST PUSH2 0xDD PUSH1 0x4 DUP1 CALLDATASIZE SUB DUP2 ADD SWAP1 PUSH2 0xD8 SWAP2 SWAP1 PUSH2 0x4E7 JUMP JUMPDEST PUSH2 0x37F JUMP JUMPDEST PUSH1 0x40 MLOAD PUSH2 0xEA SWAP2 SWAP1 PUSH2 0x55D JUMP JUMPDEST PUSH1 0x40 MLOAD DUP1 SWAP2 SUB SWAP1 RETURN JUMPDEST PUSH2 0x10D PUSH1 0x4 DUP1 CALLDATASIZE SUB DUP2 ADD SWAP1 PUSH2 0x108 SWAP2 SWAP1 PUSH2 0x6AE JUMP JUMPDEST PUSH2 0x39C JUMP JUMPDEST PUSH1 0x40 MLOAD PUSH2 0x11A SWAP2 SWAP1 PUSH2 0x55D JUMP JUMPDEST PUSH1 0x40 MLOAD DUP1 SWAP2 SUB SWAP1 RETURN JUMPDEST PUSH1 0x2 PUSH0 CALLER PUSH20 0xFFFFFFFFFFFFFFFFFFFFFFFFFFFFFFFFFFFFFFFF AND PUSH20 0xFFFFFFFFFFFFFFFFFFFFFFFFFFFFFFFFFFFFFFFF AND DUP2 MSTORE PUSH1 0x20 ADD SWAP1 DUP2 MSTORE PUSH1 0x20 ADD PUSH0 KECCAK256 PUSH0 SWAP1 SLOAD SWAP1 PUSH2 0x100 EXP SWAP1 DIV PUSH1 0xFF AND ISZERO PUSH2 0x1A4 JUMPI PUSH1 0x40 MLOAD PUSH32 0xF6DEC6A000000000000000000000000000000000000000000000000000000000 DUP2 MSTORE PUSH1 0x4 ADD PUSH1 0x40 MLOAD DUP1 SWAP2 SUB SWAP1 REVERT JUMPDEST PUSH0 DUP1 DUP4 DUP4 PUSH1 0x40 MLOAD PUSH2 0x1B6 SWAP3 SWAP2 SWAP1 PUSH2 0x723 JUMP JUMPDEST SWAP1 DUP2 MSTORE PUSH1 0x20 ADD PUSH1 0x40 MLOAD DUP1 SWAP2 SUB SWAP1 KECCAK256 PUSH0 SWAP1 SLOAD SWAP1 PUSH2 0x100 EXP SWAP1 DIV PUSH1 0xFF AND SWAP1 POP DUP1 PUSH2 0x2CA JUMPI PUSH1 0x1 PUSH0 CALLER PUSH20 0xFFFFFFFFFFFFFFFFFFFFFFFFFFFFFFFFFFFFFFFF AND PUSH20 0xFFFFFFFFFFFFFFFFFFFFFFFFFFFFFFFFFFFFFFFF AND DUP2 MSTORE PUSH1 0x20 ADD SWAP1 DUP2 MSTORE PUSH1 0x20 ADD PUSH0 KECCAK256 PUSH0 DUP2 SLOAD DUP1 SWAP3 SWAP2 SWAP1 PUSH2 0x225 SWAP1 PUSH2 0x768 JUMP JUMPDEST SWAP2 SWAP1 POP SSTORE POP PUSH1 0x3 PUSH1 0x1 PUSH0 CALLER PUSH20 0xFFFFFFFFFFFFFFFFFFFFFFFFFFFFFFFFFFFFFFFF AND PUSH20 0xFFFFFFFFFFFFFFFFFFFFFFFFFFFFFFFFFFFFFFFF AND DUP2 MSTORE PUSH1 0x20 ADD SWAP1 DUP2 MSTORE PUSH1 0x20 ADD PUSH0 KECCAK256 SLOAD LT PUSH2 0x2C5 JUMPI PUSH1 0x1 PUSH1 0x2 PUSH0 CALLER PUSH20 0xFFFFFFFFFFFFFFFFFFFFFFFFFFFFFFFFFFFFFFFF AND PUSH20 0xFFFFFFFFFFFFFFFFFFFFFFFFFFFFFFFFFFFFFFFF AND DUP2 MSTORE PUSH1 0x20 ADD SWAP1 DUP2 MSTORE PUSH1 0x20 ADD PUSH0 KECCAK256 PUSH0 PUSH2 0x100 EXP DUP2 SLOAD DUP2 PUSH1 0xFF MUL NOT AND SWAP1 DUP4 ISZERO ISZERO MUL OR SWAP1 SSTORE POP JUMPDEST PUSH2 0x30D JUMP JUMPDEST PUSH0 PUSH1 0x1 PUSH0 CALLER PUSH20 0xFFFFFFFFFFFFFFFFFFFFFFFFFFFFFFFFFFFFFFFF AND PUSH20 0xFFFFFFFFFFFFFFFFFFFFFFFFFFFFFFFFFFFFFFFF AND DUP2 MSTORE PUSH1 0x20 ADD SWAP1 DUP2 MSTORE PUSH1 0x20 ADD PUSH0 KECCAK256 DUP2 SWAP1 SSTORE POP JUMPDEST CALLER PUSH20 0xFFFFFFFFFFFFFFFFFFFFFFFFFFFFFFFFFFFFFFFF AND PUSH32 0xDC840972025B14465E97E71EE4DC2050A4CF483E3FEB7D6AF5FA0B68EE58EC2F DUP5 DUP5 PUSH1 0x2 PUSH1 0x40 MLOAD PUSH2 0x358 SWAP4 SWAP3 SWAP2 SWAP1 PUSH2 0x85E JUMP JUMPDEST PUSH1 0x40 MLOAD DUP1 SWAP2 SUB SWAP1 LOG2 POP POP POP JUMP JUMPDEST PUSH1 0x1 PUSH1 0x20 MSTORE DUP1 PUSH0 MSTORE PUSH1 0x40 PUSH0 KECCAK256 PUSH0 SWAP2 POP SWAP1 POP SLOAD DUP2 JUMP JUMPDEST PUSH1 0x3 DUP2 JUMP JUMPDEST PUSH1 0x2 PUSH1 0x20 MSTORE DUP1 PUSH0 MSTORE PUSH1 0x40 PUSH0 KECCAK256 PUSH0 SWAP2 POP SLOAD SWAP1 PUSH2 0x100 EXP SWAP1 DIV PUSH1 0xFF AND DUP2 JUMP JUMPDEST PUSH0 DUP2 DUP1 MLOAD PUSH1 0x20 DUP2 ADD DUP3 ADD DUP1 MLOAD DUP5 DUP3 MSTORE PUSH1 0x20 DUP4 ADD PUSH1 0x20 DUP6 ADD KECCAK256 DUP2 DUP4 MSTORE DUP1 SWAP6 POP POP POP POP POP POP PUSH0 SWAP2 POP SLOAD SWAP1 PUSH2 0x100 EXP SWAP1 DIV PUSH1 0xFF AND DUP2 JUMP JUMPDEST PUSH0 PUSH1 0x40 MLOAD SWAP1 POP SWAP1 JUMP JUMPDEST PUSH0 DUP1 REVERT JUMPDEST PUSH0 DUP1 REVERT JUMPDEST PUSH0 DUP1 REVERT JUMPDEST PUSH0 DUP1 REVERT JUMPDEST PUSH0 DUP1 REVERT JUMPDEST PUSH0 DUP1 DUP4 PUSH1 0x1F DUP5 ADD SLT PUSH2 0x402 JUMPI PUSH2 0x401 PUSH2 0x3E1 JUMP JUMPDEST JUMPDEST DUP3 CALLDATALOAD SWAP1 POP PUSH8 0xFFFFFFFFFFFFFFFF DUP2 GT ISZERO PUSH2 0x41F JUMPI PUSH2 0x41E PUSH2 0x3E5 JUMP JUMPDEST JUMPDEST PUSH1 0x20 DUP4 ADD SWAP2 POP DUP4 PUSH1 0x1 DUP3 MUL DUP4 ADD GT ISZERO PUSH2 0x43B JUMPI PUSH2 0x43A PUSH2 0x3E9 JUMP JUMPDEST JUMPDEST SWAP3 POP SWAP3 SWAP1 POP JUMP JUMPDEST PUSH0 DUP1 PUSH1 0x20 DUP4 DUP6 SUB SLT ISZERO PUSH2 0x458 JUMPI PUSH2 0x457 PUSH2 0x3D9 JUMP JUMPDEST JUMPDEST PUSH0 DUP4 ADD CALLDATALOAD PUSH8 0xFFFFFFFFFFFFFFFF DUP2 GT ISZERO PUSH2 0x475 JUMPI PUSH2 0x474 PUSH2 0x3DD JUMP JUMPDEST JUMPDEST PUSH2 0x481 DUP6 DUP3 DUP7 ADD PUSH2 0x3ED JUMP JUMPDEST SWAP3 POP SWAP3 POP POP SWAP3 POP SWAP3 SWAP1 POP JUMP JUMPDEST PUSH0 PUSH20 0xFFFFFFFFFFFFFFFFFFFFFFFFFFFFFFFFFFFFFFFF DUP3 AND SWAP1 POP SWAP2 SWAP1 POP JUMP JUMPDEST PUSH0 PUSH2 0x4B6 DUP3 PUSH2 0x48D JUMP JUMPDEST SWAP1 POP SWAP2 SWAP1 POP JUMP JUMPDEST PUSH2 0x4C6 DUP2 PUSH2 0x4AC JUMP JUMPDEST DUP2 EQ PUSH2 0x4D0 JUMPI PUSH0 DUP1 REVERT JUMPDEST POP JUMP JUMPDEST PUSH0 DUP2 CALLDATALOAD SWAP1 POP PUSH2 0x4E1 DUP2 PUSH2 0x4BD JUMP JUMPDEST SWAP3 SWAP2 POP POP JUMP JUMPDEST PUSH0 PUSH1 0x20 DUP3 DUP5 SUB SLT ISZERO PUSH2 0x4FC JUMPI PUSH2 0x4FB PUSH2 0x3D9 JUMP JUMPDEST JUMPDEST PUSH0 PUSH2 0x509 DUP5 DUP3 DUP6 ADD PUSH2 0x4D3 JUMP JUMPDEST SWAP2 POP POP SWAP3 SWAP2 POP POP JUMP JUMPDEST PUSH0 DUP2 SWAP1 POP SWAP2 SWAP1 POP JUMP JUMPDEST PUSH2 0x524 DUP2 PUSH2 0x512 JUMP JUMPDEST DUP3 MSTORE POP POP JUMP JUMPDEST PUSH0 PUSH1 0x20 DUP3 ADD SWAP1 POP PUSH2 0x53D PUSH0 DUP4 ADD DUP5 PUSH2 0x51B JUMP JUMPDEST SWAP3 SWAP2 POP POP JUMP JUMPDEST PUSH0 DUP2 ISZERO ISZERO SWAP1 POP SWAP2 SWAP1 POP JUMP JUMPDEST PUSH2 0x557 DUP2 PUSH2 0x543 JUMP JUMPDEST DUP3 MSTORE POP POP JUMP JUMPDEST PUSH0 PUSH1 0x20 DUP3 ADD SWAP1 POP PUSH2 0x570 PUSH0 DUP4 ADD DUP5 PUSH2 0x54E JUMP JUMPDEST SWAP3 SWAP2 POP POP JUMP JUMPDEST PUSH0 DUP1 REVERT JUMPDEST PUSH0 PUSH1 0x1F NOT PUSH1 0x1F DUP4 ADD AND SWAP1 POP SWAP2 SWAP1 POP JUMP JUMPDEST PUSH32 0x4E487B7100000000000000000000000000000000000000000000000000000000 PUSH0 MSTORE PUSH1 0x41 PUSH1 0x4 MSTORE PUSH1 0x24 PUSH0 REVERT JUMPDEST PUSH2 0x5C0 DUP3 PUSH2 0x57A JUMP JUMPDEST DUP2 ADD DUP2 DUP2 LT PUSH8 0xFFFFFFFFFFFFFFFF DUP3 GT OR ISZERO PUSH2 0x5DF JUMPI PUSH2 0x5DE PUSH2 0x58A JUMP JUMPDEST JUMPDEST DUP1 PUSH1 0x40 MSTORE POP POP POP JUMP JUMPDEST PUSH0 PUSH2 0x5F1 PUSH2 0x3D0 JUMP JUMPDEST SWAP1 POP PUSH2 0x5FD DUP3 DUP3 PUSH2 0x5B7 JUMP JUMPDEST SWAP2 SWAP1 POP JUMP JUMPDEST PUSH0 PUSH8 0xFFFFFFFFFFFFFFFF DUP3 GT ISZERO PUSH2 0x61C JUMPI PUSH2 0x61B PUSH2 0x58A JUMP JUMPDEST JUMPDEST PUSH2 0x625 DUP3 PUSH2 0x57A JUMP JUMPDEST SWAP1 POP PUSH1 0x20 DUP2 ADD SWAP1 POP SWAP2 SWAP1 POP JUMP JUMPDEST DUP3 DUP2 DUP4 CALLDATACOPY PUSH0 DUP4 DUP4 ADD MSTORE POP POP POP JUMP JUMPDEST PUSH0 PUSH2 0x652 PUSH2 0x64D DUP5 PUSH2 0x602 JUMP JUMPDEST PUSH2 0x5E8 JUMP JUMPDEST SWAP1 POP DUP3 DUP2 MSTORE PUSH1 0x20 DUP2 ADD DUP5 DUP5 DUP5 ADD GT ISZERO PUSH2 0x66E JUMPI PUSH2 0x66D PUSH2 0x576 JUMP JUMPDEST JUMPDEST PUSH2 0x679 DUP5 DUP3 DUP6 PUSH2 0x632 JUMP JUMPDEST POP SWAP4 SWAP3 POP POP POP JUMP JUMPDEST PUSH0 DUP3 PUSH1 0x1F DUP4 ADD SLT PUSH2 0x695 JUMPI PUSH2 0x694 PUSH2 0x3E1 JUMP JUMPDEST JUMPDEST DUP2 CALLDATALOAD PUSH2 0x6A5 DUP5 DUP3 PUSH1 0x20 DUP7 ADD PUSH2 0x640 JUMP JUMPDEST SWAP2 POP POP SWAP3 SWAP2 POP POP JUMP JUMPDEST PUSH0 PUSH1 0x20 DUP3 DUP5 SUB SLT ISZERO PUSH2 0x6C3 JUMPI PUSH2 0x6C2 PUSH2 0x3D9 JUMP JUMPDEST JUMPDEST PUSH0 DUP3 ADD CALLDATALOAD PUSH8 0xFFFFFFFFFFFFFFFF DUP2 GT ISZERO PUSH2 0x6E0 JUMPI PUSH2 0x6DF PUSH2 0x3DD JUMP JUMPDEST JUMPDEST PUSH2 0x6EC DUP5 DUP3 DUP6 ADD PUSH2 0x681 JUMP JUMPDEST SWAP2 POP POP SWAP3 SWAP2 POP POP JUMP JUMPDEST PUSH0 DUP2 SWAP1 POP SWAP3 SWAP2 POP POP JUMP JUMPDEST PUSH0 PUSH2 0x70A DUP4 DUP6 PUSH2 0x6F5 JUMP JUMPDEST SWAP4 POP PUSH2 0x717 DUP4 DUP6 DUP5 PUSH2 0x632 JUMP JUMPDEST DUP3 DUP5 ADD SWAP1 POP SWAP4 SWAP3 POP POP POP JUMP JUMPDEST PUSH0 PUSH2 0x72F DUP3 DUP5 DUP7 PUSH2 0x6FF JUMP JUMPDEST SWAP2 POP DUP2 SWAP1 POP SWAP4 SWAP3 POP POP POP JUMP JUMPDEST PUSH32 0x4E487B7100000000000000000000000000000000000000000000000000000000 PUSH0 MSTORE PUSH1 0x11 PUSH1 0x4 MSTORE PUSH1 0x24 PUSH0 REVERT JUMPDEST PUSH0 PUSH2 0x772 DUP3 PUSH2 0x512 JUMP JUMPDEST SWAP2 POP PUSH32 0xFFFFFFFFFFFFFFFFFFFFFFFFFFFFFFFFFFFFFFFFFFFFFFFFFFFFFFFFFFFFFFFF DUP3 SUB PUSH2 0x7A4 JUMPI PUSH2 0x7A3 PUSH2 0x73B JUMP JUMPDEST JUMPDEST PUSH1 0x1 DUP3 ADD SWAP1 POP SWAP2 SWAP1 POP JUMP JUMPDEST PUSH0 DUP3 DUP3 MSTORE PUSH1 0x20 DUP3 ADD SWAP1 POP SWAP3 SWAP2 POP POP JUMP JUMPDEST PUSH0 PUSH2 0x7CA DUP4 DUP6 PUSH2 0x7AF JUMP JUMPDEST SWAP4 POP PUSH2 0x7D7 DUP4 DUP6 DUP5 PUSH2 0x632 JUMP JUMPDEST PUSH2 0x7E0 DUP4 PUSH2 0x57A JUMP JUMPDEST DUP5 ADD SWAP1 POP SWAP4 SWAP3 POP POP POP JUMP JUMPDEST PUSH32 0x4E487B7100000000000000000000000000000000000000000000000000000000 PUSH0 MSTORE PUSH1 0x21 PUSH1 0x4 MSTORE PUSH1 0x24 PUSH0 REVERT JUMPDEST PUSH1 0x4 DUP2 LT PUSH2 0x829 JUMPI PUSH2 0x828 PUSH2 0x7EB JUMP JUMPDEST JUMPDEST POP JUMP JUMPDEST PUSH0 DUP2 SWAP1 POP PUSH2 0x839 DUP3 PUSH2 0x818 JUMP JUMPDEST SWAP2 SWAP1 POP JUMP JUMPDEST PUSH0 PUSH2 0x848 DUP3 PUSH2 0x82C JUMP JUMPDEST SWAP1 POP SWAP2 SWAP1 POP JUMP JUMPDEST PUSH2 0x858 DUP2 PUSH2 0x83E JUMP JUMPDEST DUP3 MSTORE POP POP JUMP JUMPDEST PUSH0 PUSH1 0x40 DUP3 ADD SWAP1 POP DUP2 DUP2 SUB PUSH0 DUP4 ADD MSTORE PUSH2 0x877 DUP2 DUP6 DUP8 PUSH2 0x7BF JUMP JUMPDEST SWAP1 POP PUSH2 0x886 PUSH1 0x20 DUP4 ADD DUP5 PUSH2 0x84F JUMP JUMPDEST SWAP5 SWAP4 POP POP POP POP JUMP INVALID LOG2 PUSH5 0x6970667358 0x22 SLT KECCAK256 0xB2 0xD0 BLOBBASEFEE DUP8 CREATE 0xF7 DUP4 MSIZE 0xB1 BALANCE PUSH5 0xAAE1EF3715 PUSH31 0x7074F2027EB246BCE41C51950DB1E064736F6C634300081A00330000000000 "
				},
				"gasEstimates": {
					"creation": {
						"codeDepositCost": "448800",
						"executionCost": "infinite",
						"totalCost": "infinite"
					},
					"external": {
						"MAX_FAIL()": "347",
						"checkUser(string)": "infinite",
						"failCount(address)": "2802",
						"locked(address)": "2877",
						"userExists(string)": "infinite"
					}
				},
				"methodIdentifiers": {
					"MAX_FAIL()": "965d769f",
					"checkUser(string)": "1eb41b71",
					"failCount(address)": "50eb61ac",
					"locked(address)": "cbf9fe5f",
					"userExists(string)": "fddc968e"
				}
			},
			"storageLayout": {
				"storage": [
					{
						"astId": 333,
						"contract": "A/AccountHarvesting/AccountHarvesting.sol:AccountHarvestSafeAdvanced",
						"label": "userExists",
						"offset": 0,
						"slot": "0",
						"type": "t_mapping(t_string_memory_ptr,t_bool)"
					},
					{
						"astId": 337,
						"contract": "A/AccountHarvesting/AccountHarvesting.sol:AccountHarvestSafeAdvanced",
						"label": "failCount",
						"offset": 0,
						"slot": "1",
						"type": "t_mapping(t_address,t_uint256)"
					},
					{
						"astId": 341,
						"contract": "A/AccountHarvesting/AccountHarvesting.sol:AccountHarvestSafeAdvanced",
						"label": "locked",
						"offset": 0,
						"slot": "2",
						"type": "t_mapping(t_address,t_bool)"
					}
				],
				"types": {
					"t_address": {
						"encoding": "inplace",
						"label": "address",
						"numberOfBytes": "20"
					},
					"t_bool": {
						"encoding": "inplace",
						"label": "bool",
						"numberOfBytes": "1"
					},
					"t_mapping(t_address,t_bool)": {
						"encoding": "mapping",
						"key": "t_address",
						"label": "mapping(address => bool)",
						"numberOfBytes": "32",
						"value": "t_bool"
					},
					"t_mapping(t_address,t_uint256)": {
						"encoding": "mapping",
						"key": "t_address",
						"label": "mapping(address => uint256)",
						"numberOfBytes": "32",
						"value": "t_uint256"
					},
					"t_mapping(t_string_memory_ptr,t_bool)": {
						"encoding": "mapping",
						"key": "t_string_memory_ptr",
						"label": "mapping(string => bool)",
						"numberOfBytes": "32",
						"value": "t_bool"
					},
					"t_string_memory_ptr": {
						"encoding": "bytes",
						"label": "string",
						"numberOfBytes": "32"
					},
					"t_uint256": {
						"encoding": "inplace",
						"label": "uint256",
						"numberOfBytes": "32"
					}
				}
			},
			"userdoc": {
				"kind": "user",
				"methods": {
					"checkUser(string)": {
						"notice": "uniform response: always emits same event regardless of existence"
					}
				},
				"version": 1
			}
		}
	}
}