{
	"A/AccountHarvesting/AccountHarvesting.sol": {
		"AccountHarvestVuln": {
			"abi": [
				{
					"inputs": [
						{
							"internalType": "string[]",
							"name": "initialUsers",
							"type": "string[]"
						}
					],
					"stateMutability": "nonpayable",
					"type": "constructor"
				},
				{
					"anonymous": false,
					"inputs": [
						{
							"indexed": true,
							"internalType": "address",
							"name": "by",
							"type": "address"
						},
						{
							"indexed": false,
							"internalType": "string",
							"name": "username",
							"type": "string"
						},
						{
							"indexed": false,
							"internalType": "bool",
							"name": "exists",
							"type": "bool"
						},
						{
							"indexed": false,
							"internalType": "enum AccountHarvestingAttackType",
							"name": "attack",
							"type": "uint8"
						}
					],
					"name": "HarvestChecked",
					"type": "event"
				},
				{
					"inputs": [
						{
							"internalType": "string",
							"name": "username",
							"type": "string"
						}
					],
					"name": "checkUser",
					"outputs": [],
					"stateMutability": "nonpayable",
					"type": "function"
				},
				{
					"inputs": [
						{
							"internalType": "string",
							"name": "",
							"type": "string"
						}
					],
					"name": "userExists",
					"outputs": [
						{
							"internalType": "bool",
							"name": "",
							"type": "bool"
						}
					],
					"stateMutability": "view",
					"type": "function"
				}
			],
			"devdoc": {
				"kind": "dev",
				"methods": {},
				"version": 1
			},
			"evm": {
				"assembly": "    /* \"A/AccountHarvesting/AccountHarvesting.sol\":912:1614  contract AccountHarvestVuln {... */\n  mstore(0x40, 0x80)\n    /* \"A/AccountHarvesting/AccountHarvesting.sol\":1168:1332  constructor(string[] memory initialUsers) {... */\n  callvalue\n  dup1\n  iszero\n  tag_1\n  jumpi\n  0x00\n  dup1\n  revert\ntag_1:\n  pop\n  mload(0x40)\n  sub(codesize, bytecodeSize)\n  dup1\n  bytecodeSize\n  dup4\n  codecopy\n  dup2\n  dup2\n  add\n  0x40\n  mstore\n  dup2\n  add\n  swap1\n  tag_2\n  swap2\n  swap1\n  tag_3\n  jump\t// in\ntag_2:\n    /* \"A/AccountHarvesting/AccountHarvesting.sol\":1225:1231  uint i */\n  0x00\n    /* \"A/AccountHarvesting/AccountHarvesting.sol\":1220:1326  for (uint i = 0; i < initialUsers.length; i++) {... */\ntag_6:\n    /* \"A/AccountHarvesting/AccountHarvesting.sol\":1241:1253  initialUsers */\n  dup2\n    /* \"A/AccountHarvesting/AccountHarvesting.sol\":1241:1260  initialUsers.length */\n  mload\n    /* \"A/AccountHarvesting/AccountHarvesting.sol\":1237:1238  i */\n  dup2\n    /* \"A/AccountHarvesting/AccountHarvesting.sol\":1237:1260  i < initialUsers.length */\n  lt\n    /* \"A/AccountHarvesting/AccountHarvesting.sol\":1220:1326  for (uint i = 0; i < initialUsers.length; i++) {... */\n  iszero\n  tag_7\n  jumpi\n    /* \"A/AccountHarvesting/AccountHarvesting.sol\":1311:1315  true */\n  0x01\n    /* \"A/AccountHarvesting/AccountHarvesting.sol\":1281:1291  userExists */\n  0x00\n    /* \"A/AccountHarvesting/AccountHarvesting.sol\":1292:1304  initialUsers */\n  dup4\n    /* \"A/AccountHarvesting/AccountHarvesting.sol\":1305:1306  i */\n  dup4\n    /* \"A/AccountHarvesting/AccountHarvesting.sol\":1292:1307  initialUsers[i] */\n  dup2\n  mload\n  dup2\n  lt\n  tag_9\n  jumpi\n  tag_10\n  tag_11\n  jump\t// in\ntag_10:\ntag_9:\n  0x20\n  mul\n  0x20\n  add\n  add\n  mload\n    /* \"A/AccountHarvesting/AccountHarvesting.sol\":1281:1308  userExists[initialUsers[i]] */\n  mload(0x40)\n  tag_12\n  swap2\n  swap1\n  tag_13\n  jump\t// in\ntag_12:\n  swap1\n  dup2\n  mstore\n  0x20\n  add\n  mload(0x40)\n  dup1\n  swap2\n  sub\n  swap1\n  keccak256\n  0x00\n    /* \"A/AccountHarvesting/AccountHarvesting.sol\":1281:1315  userExists[initialUsers[i]] = true */\n  0x0100\n  exp\n  dup2\n  sload\n  dup2\n  0xff\n  mul\n  not\n  and\n  swap1\n  dup4\n  iszero\n  iszero\n  mul\n  or\n  swap1\n  sstore\n  pop\n    /* \"A/AccountHarvesting/AccountHarvesting.sol\":1262:1265  i++ */\n  dup1\n  dup1\n  0x01\n  add\n  swap2\n  pop\n  pop\n    /* \"A/AccountHarvesting/AccountHarvesting.sol\":1220:1326  for (uint i = 0; i < initialUsers.length; i++) {... */\n  jump(tag_6)\ntag_7:\n  pop\n    /* \"A/AccountHarvesting/AccountHarvesting.sol\":1168:1332  constructor(string[] memory initialUsers) {... */\n  pop\n    /* \"A/AccountHarvesting/AccountHarvesting.sol\":912:1614  contract AccountHarvestVuln {... */\n  jump(tag_14)\n    /* \"#utility.yul\":7:82   */\ntag_15:\n    /* \"#utility.yul\":40:46   */\n  0x00\n    /* \"#utility.yul\":73:75   */\n  0x40\n    /* \"#utility.yul\":67:76   */\n  mload\n    /* \"#utility.yul\":57:76   */\n  swap1\n  pop\n    /* \"#utility.yul\":7:82   */\n  swap1\n  jump\t// out\n    /* \"#utility.yul\":88:205   */\ntag_16:\n    /* \"#utility.yul\":197:198   */\n  0x00\n    /* \"#utility.yul\":194:195   */\n  dup1\n    /* \"#utility.yul\":187:199   */\n  revert\n    /* \"#utility.yul\":211:328   */\ntag_17:\n    /* \"#utility.yul\":320:321   */\n  0x00\n    /* \"#utility.yul\":317:318   */\n  dup1\n    /* \"#utility.yul\":310:322   */\n  revert\n    /* \"#utility.yul\":334:451   */\ntag_18:\n    /* \"#utility.yul\":443:444   */\n  0x00\n    /* \"#utility.yul\":440:441   */\n  dup1\n    /* \"#utility.yul\":433:445   */\n  revert\n    /* \"#utility.yul\":457:559   */\ntag_19:\n    /* \"#utility.yul\":498:504   */\n  0x00\n    /* \"#utility.yul\":549:551   */\n  0x1f\n    /* \"#utility.yul\":545:552   */\n  not\n    /* \"#utility.yul\":540:542   */\n  0x1f\n    /* \"#utility.yul\":533:538   */\n  dup4\n    /* \"#utility.yul\":529:543   */\n  add\n    /* \"#utility.yul\":525:553   */\n  and\n    /* \"#utility.yul\":515:553   */\n  swap1\n  pop\n    /* \"#utility.yul\":457:559   */\n  swap2\n  swap1\n  pop\n  jump\t// out\n    /* \"#utility.yul\":565:745   */\ntag_20:\n    /* \"#utility.yul\":613:690   */\n  0x4e487b7100000000000000000000000000000000000000000000000000000000\n    /* \"#utility.yul\":610:611   */\n  0x00\n    /* \"#utility.yul\":603:691   */\n  mstore\n    /* \"#utility.yul\":710:714   */\n  0x41\n    /* \"#utility.yul\":707:708   */\n  0x04\n    /* \"#utility.yul\":700:715   */\n  mstore\n    /* \"#utility.yul\":734:738   */\n  0x24\n    /* \"#utility.yul\":731:732   */\n  0x00\n    /* \"#utility.yul\":724:739   */\n  revert\n    /* \"#utility.yul\":751:1032   */\ntag_21:\n    /* \"#utility.yul\":834:861   */\n  tag_43\n    /* \"#utility.yul\":856:860   */\n  dup3\n    /* \"#utility.yul\":834:861   */\n  tag_19\n  jump\t// in\ntag_43:\n    /* \"#utility.yul\":826:832   */\n  dup2\n    /* \"#utility.yul\":822:862   */\n  add\n    /* \"#utility.yul\":964:970   */\n  dup2\n    /* \"#utility.yul\":952:962   */\n  dup2\n    /* \"#utility.yul\":949:971   */\n  lt\n    /* \"#utility.yul\":928:946   */\n  0xffffffffffffffff\n    /* \"#utility.yul\":916:926   */\n  dup3\n    /* \"#utility.yul\":913:947   */\n  gt\n    /* \"#utility.yul\":910:972   */\n  or\n    /* \"#utility.yul\":907:995   */\n  iszero\n  tag_44\n  jumpi\n    /* \"#utility.yul\":975:993   */\n  tag_45\n  tag_20\n  jump\t// in\ntag_45:\n    /* \"#utility.yul\":907:995   */\ntag_44:\n    /* \"#utility.yul\":1015:1025   */\n  dup1\n    /* \"#utility.yul\":1011:1013   */\n  0x40\n    /* \"#utility.yul\":1004:1026   */\n  mstore\n    /* \"#utility.yul\":794:1032   */\n  pop\n    /* \"#utility.yul\":751:1032   */\n  pop\n  pop\n  jump\t// out\n    /* \"#utility.yul\":1038:1167   */\ntag_22:\n    /* \"#utility.yul\":1072:1078   */\n  0x00\n    /* \"#utility.yul\":1099:1119   */\n  tag_47\n  tag_15\n  jump\t// in\ntag_47:\n    /* \"#utility.yul\":1089:1119   */\n  swap1\n  pop\n    /* \"#utility.yul\":1128:1161   */\n  tag_48\n    /* \"#utility.yul\":1156:1160   */\n  dup3\n    /* \"#utility.yul\":1148:1154   */\n  dup3\n    /* \"#utility.yul\":1128:1161   */\n  tag_21\n  jump\t// in\ntag_48:\n    /* \"#utility.yul\":1038:1167   */\n  swap2\n  swap1\n  pop\n  jump\t// out\n    /* \"#utility.yul\":1173:1494   */\ntag_23:\n    /* \"#utility.yul\":1260:1264   */\n  0x00\n    /* \"#utility.yul\":1350:1368   */\n  0xffffffffffffffff\n    /* \"#utility.yul\":1342:1348   */\n  dup3\n    /* \"#utility.yul\":1339:1369   */\n  gt\n    /* \"#utility.yul\":1336:1392   */\n  iszero\n  tag_50\n  jumpi\n    /* \"#utility.yul\":1372:1390   */\n  tag_51\n  tag_20\n  jump\t// in\ntag_51:\n    /* \"#utility.yul\":1336:1392   */\ntag_50:\n    /* \"#utility.yul\":1422:1426   */\n  0x20\n    /* \"#utility.yul\":1414:1420   */\n  dup3\n    /* \"#utility.yul\":1410:1427   */\n  mul\n    /* \"#utility.yul\":1402:1427   */\n  swap1\n  pop\n    /* \"#utility.yul\":1482:1486   */\n  0x20\n    /* \"#utility.yul\":1476:1480   */\n  dup2\n    /* \"#utility.yul\":1472:1487   */\n  add\n    /* \"#utility.yul\":1464:1487   */\n  swap1\n  pop\n    /* \"#utility.yul\":1173:1494   */\n  swap2\n  swap1\n  pop\n  jump\t// out\n    /* \"#utility.yul\":1500:1617   */\ntag_24:\n    /* \"#utility.yul\":1609:1610   */\n  0x00\n    /* \"#utility.yul\":1606:1607   */\n  dup1\n    /* \"#utility.yul\":1599:1611   */\n  revert\n    /* \"#utility.yul\":1623:1740   */\ntag_25:\n    /* \"#utility.yul\":1732:1733   */\n  0x00\n    /* \"#utility.yul\":1729:1730   */\n  dup1\n    /* \"#utility.yul\":1722:1734   */\n  revert\n    /* \"#utility.yul\":1746:2054   */\ntag_26:\n    /* \"#utility.yul\":1808:1812   */\n  0x00\n    /* \"#utility.yul\":1898:1916   */\n  0xffffffffffffffff\n    /* \"#utility.yul\":1890:1896   */\n  dup3\n    /* \"#utility.yul\":1887:1917   */\n  gt\n    /* \"#utility.yul\":1884:1940   */\n  iszero\n  tag_55\n  jumpi\n    /* \"#utility.yul\":1920:1938   */\n  tag_56\n  tag_20\n  jump\t// in\ntag_56:\n    /* \"#utility.yul\":1884:1940   */\ntag_55:\n    /* \"#utility.yul\":1958:1987   */\n  tag_57\n    /* \"#utility.yul\":1980:1986   */\n  dup3\n    /* \"#utility.yul\":1958:1987   */\n  tag_19\n  jump\t// in\ntag_57:\n    /* \"#utility.yul\":1950:1987   */\n  swap1\n  pop\n    /* \"#utility.yul\":2042:2046   */\n  0x20\n    /* \"#utility.yul\":2036:2040   */\n  dup2\n    /* \"#utility.yul\":2032:2047   */\n  add\n    /* \"#utility.yul\":2024:2047   */\n  swap1\n  pop\n    /* \"#utility.yul\":1746:2054   */\n  swap2\n  swap1\n  pop\n  jump\t// out\n    /* \"#utility.yul\":2060:2199   */\ntag_27:\n    /* \"#utility.yul\":2149:2155   */\n  dup3\n    /* \"#utility.yul\":2144:2147   */\n  dup2\n    /* \"#utility.yul\":2139:2142   */\n  dup4\n    /* \"#utility.yul\":2133:2156   */\n  mcopy\n    /* \"#utility.yul\":2190:2191   */\n  0x00\n    /* \"#utility.yul\":2181:2187   */\n  dup4\n    /* \"#utility.yul\":2176:2179   */\n  dup4\n    /* \"#utility.yul\":2172:2188   */\n  add\n    /* \"#utility.yul\":2165:2192   */\n  mstore\n    /* \"#utility.yul\":2060:2199   */\n  pop\n  pop\n  pop\n  jump\t// out\n    /* \"#utility.yul\":2205:2639   */\ntag_28:\n    /* \"#utility.yul\":2294:2299   */\n  0x00\n    /* \"#utility.yul\":2319:2385   */\n  tag_60\n    /* \"#utility.yul\":2335:2384   */\n  tag_61\n    /* \"#utility.yul\":2377:2383   */\n  dup5\n    /* \"#utility.yul\":2335:2384   */\n  tag_26\n  jump\t// in\ntag_61:\n    /* \"#utility.yul\":2319:2385   */\n  tag_22\n  jump\t// in\ntag_60:\n    /* \"#utility.yul\":2310:2385   */\n  swap1\n  pop\n    /* \"#utility.yul\":2408:2414   */\n  dup3\n    /* \"#utility.yul\":2401:2406   */\n  dup2\n    /* \"#utility.yul\":2394:2415   */\n  mstore\n    /* \"#utility.yul\":2446:2450   */\n  0x20\n    /* \"#utility.yul\":2439:2444   */\n  dup2\n    /* \"#utility.yul\":2435:2451   */\n  add\n    /* \"#utility.yul\":2484:2487   */\n  dup5\n    /* \"#utility.yul\":2475:2481   */\n  dup5\n    /* \"#utility.yul\":2470:2473   */\n  dup5\n    /* \"#utility.yul\":2466:2482   */\n  add\n    /* \"#utility.yul\":2463:2488   */\n  gt\n    /* \"#utility.yul\":2460:2572   */\n  iszero\n  tag_62\n  jumpi\n    /* \"#utility.yul\":2491:2570   */\n  tag_63\n  tag_25\n  jump\t// in\ntag_63:\n    /* \"#utility.yul\":2460:2572   */\ntag_62:\n    /* \"#utility.yul\":2581:2633   */\n  tag_64\n    /* \"#utility.yul\":2626:2632   */\n  dup5\n    /* \"#utility.yul\":2621:2624   */\n  dup3\n    /* \"#utility.yul\":2616:2619   */\n  dup6\n    /* \"#utility.yul\":2581:2633   */\n  tag_27\n  jump\t// in\ntag_64:\n    /* \"#utility.yul\":2300:2639   */\n  pop\n    /* \"#utility.yul\":2205:2639   */\n  swap4\n  swap3\n  pop\n  pop\n  pop\n  jump\t// out\n    /* \"#utility.yul\":2659:3014   */\ntag_29:\n    /* \"#utility.yul\":2726:2731   */\n  0x00\n    /* \"#utility.yul\":2775:2778   */\n  dup3\n    /* \"#utility.yul\":2768:2772   */\n  0x1f\n    /* \"#utility.yul\":2760:2766   */\n  dup4\n    /* \"#utility.yul\":2756:2773   */\n  add\n    /* \"#utility.yul\":2752:2779   */\n  slt\n    /* \"#utility.yul\":2742:2864   */\n  tag_66\n  jumpi\n    /* \"#utility.yul\":2783:2862   */\n  tag_67\n  tag_18\n  jump\t// in\ntag_67:\n    /* \"#utility.yul\":2742:2864   */\ntag_66:\n    /* \"#utility.yul\":2893:2899   */\n  dup2\n    /* \"#utility.yul\":2887:2900   */\n  mload\n    /* \"#utility.yul\":2918:3008   */\n  tag_68\n    /* \"#utility.yul\":3004:3007   */\n  dup5\n    /* \"#utility.yul\":2996:3002   */\n  dup3\n    /* \"#utility.yul\":2989:2993   */\n  0x20\n    /* \"#utility.yul\":2981:2987   */\n  dup7\n    /* \"#utility.yul\":2977:2994   */\n  add\n    /* \"#utility.yul\":2918:3008   */\n  tag_28\n  jump\t// in\ntag_68:\n    /* \"#utility.yul\":2909:3008   */\n  swap2\n  pop\n    /* \"#utility.yul\":2732:3014   */\n  pop\n    /* \"#utility.yul\":2659:3014   */\n  swap3\n  swap2\n  pop\n  pop\n  jump\t// out\n    /* \"#utility.yul\":3036:3996   */\ntag_30:\n    /* \"#utility.yul\":3153:3158   */\n  0x00\n    /* \"#utility.yul\":3178:3269   */\n  tag_70\n    /* \"#utility.yul\":3194:3268   */\n  tag_71\n    /* \"#utility.yul\":3261:3267   */\n  dup5\n    /* \"#utility.yul\":3194:3268   */\n  tag_23\n  jump\t// in\ntag_71:\n    /* \"#utility.yul\":3178:3269   */\n  tag_22\n  jump\t// in\ntag_70:\n    /* \"#utility.yul\":3169:3269   */\n  swap1\n  pop\n    /* \"#utility.yul\":3289:3294   */\n  dup1\n    /* \"#utility.yul\":3318:3324   */\n  dup4\n    /* \"#utility.yul\":3311:3316   */\n  dup3\n    /* \"#utility.yul\":3304:3325   */\n  mstore\n    /* \"#utility.yul\":3352:3356   */\n  0x20\n    /* \"#utility.yul\":3345:3350   */\n  dup3\n    /* \"#utility.yul\":3341:3357   */\n  add\n    /* \"#utility.yul\":3334:3357   */\n  swap1\n  pop\n    /* \"#utility.yul\":3405:3409   */\n  0x20\n    /* \"#utility.yul\":3397:3403   */\n  dup5\n    /* \"#utility.yul\":3393:3410   */\n  mul\n    /* \"#utility.yul\":3385:3391   */\n  dup4\n    /* \"#utility.yul\":3381:3411   */\n  add\n    /* \"#utility.yul\":3434:3437   */\n  dup6\n    /* \"#utility.yul\":3426:3432   */\n  dup2\n    /* \"#utility.yul\":3423:3438   */\n  gt\n    /* \"#utility.yul\":3420:3542   */\n  iszero\n  tag_72\n  jumpi\n    /* \"#utility.yul\":3453:3532   */\n  tag_73\n  tag_24\n  jump\t// in\ntag_73:\n    /* \"#utility.yul\":3420:3542   */\ntag_72:\n    /* \"#utility.yul\":3568:3574   */\n  dup4\n    /* \"#utility.yul\":3551:3990   */\ntag_74:\n    /* \"#utility.yul\":3585:3591   */\n  dup2\n    /* \"#utility.yul\":3580:3583   */\n  dup2\n    /* \"#utility.yul\":3577:3592   */\n  lt\n    /* \"#utility.yul\":3551:3990   */\n  iszero\n  tag_76\n  jumpi\n    /* \"#utility.yul\":3667:3670   */\n  dup1\n    /* \"#utility.yul\":3661:3671   */\n  mload\n    /* \"#utility.yul\":3703:3721   */\n  0xffffffffffffffff\n    /* \"#utility.yul\":3690:3701   */\n  dup2\n    /* \"#utility.yul\":3687:3722   */\n  gt\n    /* \"#utility.yul\":3684:3806   */\n  iszero\n  tag_77\n  jumpi\n    /* \"#utility.yul\":3725:3804   */\n  tag_78\n  tag_18\n  jump\t// in\ntag_78:\n    /* \"#utility.yul\":3684:3806   */\ntag_77:\n    /* \"#utility.yul\":3849:3860   */\n  dup1\n    /* \"#utility.yul\":3841:3847   */\n  dup7\n    /* \"#utility.yul\":3837:3861   */\n  add\n    /* \"#utility.yul\":3887:3945   */\n  tag_79\n    /* \"#utility.yul\":3941:3944   */\n  dup10\n    /* \"#utility.yul\":3929:3939   */\n  dup3\n    /* \"#utility.yul\":3887:3945   */\n  tag_29\n  jump\t// in\ntag_79:\n    /* \"#utility.yul\":3882:3885   */\n  dup6\n    /* \"#utility.yul\":3875:3946   */\n  mstore\n    /* \"#utility.yul\":3975:3979   */\n  0x20\n    /* \"#utility.yul\":3970:3973   */\n  dup6\n    /* \"#utility.yul\":3966:3980   */\n  add\n    /* \"#utility.yul\":3959:3980   */\n  swap5\n  pop\n    /* \"#utility.yul\":3627:3990   */\n  pop\n  pop\n    /* \"#utility.yul\":3611:3615   */\n  0x20\n    /* \"#utility.yul\":3606:3609   */\n  dup2\n    /* \"#utility.yul\":3602:3616   */\n  add\n    /* \"#utility.yul\":3595:3616   */\n  swap1\n  pop\n    /* \"#utility.yul\":3551:3990   */\n  jump(tag_74)\ntag_76:\n    /* \"#utility.yul\":3555:3576   */\n  pop\n    /* \"#utility.yul\":3159:3996   */\n  pop\n  pop\n    /* \"#utility.yul\":3036:3996   */\n  swap4\n  swap3\n  pop\n  pop\n  pop\n  jump\t// out\n    /* \"#utility.yul\":4018:4423   */\ntag_31:\n    /* \"#utility.yul\":4110:4115   */\n  0x00\n    /* \"#utility.yul\":4159:4162   */\n  dup3\n    /* \"#utility.yul\":4152:4156   */\n  0x1f\n    /* \"#utility.yul\":4144:4150   */\n  dup4\n    /* \"#utility.yul\":4140:4157   */\n  add\n    /* \"#utility.yul\":4136:4163   */\n  slt\n    /* \"#utility.yul\":4126:4248   */\n  tag_81\n  jumpi\n    /* \"#utility.yul\":4167:4246   */\n  tag_82\n  tag_18\n  jump\t// in\ntag_82:\n    /* \"#utility.yul\":4126:4248   */\ntag_81:\n    /* \"#utility.yul\":4277:4283   */\n  dup2\n    /* \"#utility.yul\":4271:4284   */\n  mload\n    /* \"#utility.yul\":4302:4417   */\n  tag_83\n    /* \"#utility.yul\":4413:4416   */\n  dup5\n    /* \"#utility.yul\":4405:4411   */\n  dup3\n    /* \"#utility.yul\":4398:4402   */\n  0x20\n    /* \"#utility.yul\":4390:4396   */\n  dup7\n    /* \"#utility.yul\":4386:4403   */\n  add\n    /* \"#utility.yul\":4302:4417   */\n  tag_30\n  jump\t// in\ntag_83:\n    /* \"#utility.yul\":4293:4417   */\n  swap2\n  pop\n    /* \"#utility.yul\":4116:4423   */\n  pop\n    /* \"#utility.yul\":4018:4423   */\n  swap3\n  swap2\n  pop\n  pop\n  jump\t// out\n    /* \"#utility.yul\":4429:5003   */\ntag_3:\n    /* \"#utility.yul\":4534:4540   */\n  0x00\n    /* \"#utility.yul\":4583:4585   */\n  0x20\n    /* \"#utility.yul\":4571:4580   */\n  dup3\n    /* \"#utility.yul\":4562:4569   */\n  dup5\n    /* \"#utility.yul\":4558:4581   */\n  sub\n    /* \"#utility.yul\":4554:4586   */\n  slt\n    /* \"#utility.yul\":4551:4670   */\n  iszero\n  tag_85\n  jumpi\n    /* \"#utility.yul\":4589:4668   */\n  tag_86\n  tag_16\n  jump\t// in\ntag_86:\n    /* \"#utility.yul\":4551:4670   */\ntag_85:\n    /* \"#utility.yul\":4730:4731   */\n  0x00\n    /* \"#utility.yul\":4719:4728   */\n  dup3\n    /* \"#utility.yul\":4715:4732   */\n  add\n    /* \"#utility.yul\":4709:4733   */\n  mload\n    /* \"#utility.yul\":4760:4778   */\n  0xffffffffffffffff\n    /* \"#utility.yul\":4752:4758   */\n  dup2\n    /* \"#utility.yul\":4749:4779   */\n  gt\n    /* \"#utility.yul\":4746:4863   */\n  iszero\n  tag_87\n  jumpi\n    /* \"#utility.yul\":4782:4861   */\n  tag_88\n  tag_17\n  jump\t// in\ntag_88:\n    /* \"#utility.yul\":4746:4863   */\ntag_87:\n    /* \"#utility.yul\":4887:4986   */\n  tag_89\n    /* \"#utility.yul\":4978:4985   */\n  dup5\n    /* \"#utility.yul\":4969:4975   */\n  dup3\n    /* \"#utility.yul\":4958:4967   */\n  dup6\n    /* \"#utility.yul\":4954:4976   */\n  add\n    /* \"#utility.yul\":4887:4986   */\n  tag_31\n  jump\t// in\ntag_89:\n    /* \"#utility.yul\":4877:4986   */\n  swap2\n  pop\n    /* \"#utility.yul\":4680:4996   */\n  pop\n    /* \"#utility.yul\":4429:5003   */\n  swap3\n  swap2\n  pop\n  pop\n  jump\t// out\n    /* \"#utility.yul\":5009:5189   */\ntag_11:\n    /* \"#utility.yul\":5057:5134   */\n  0x4e487b7100000000000000000000000000000000000000000000000000000000\n    /* \"#utility.yul\":5054:5055   */\n  0x00\n    /* \"#utility.yul\":5047:5135   */\n  mstore\n    /* \"#utility.yul\":5154:5158   */\n  0x32\n    /* \"#utility.yul\":5151:5152   */\n  0x04\n    /* \"#utility.yul\":5144:5159   */\n  mstore\n    /* \"#utility.yul\":5178:5182   */\n  0x24\n    /* \"#utility.yul\":5175:5176   */\n  0x00\n    /* \"#utility.yul\":5168:5183   */\n  revert\n    /* \"#utility.yul\":5195:5294   */\ntag_32:\n    /* \"#utility.yul\":5247:5253   */\n  0x00\n    /* \"#utility.yul\":5281:5286   */\n  dup2\n    /* \"#utility.yul\":5275:5287   */\n  mload\n    /* \"#utility.yul\":5265:5287   */\n  swap1\n  pop\n    /* \"#utility.yul\":5195:5294   */\n  swap2\n  swap1\n  pop\n  jump\t// out\n    /* \"#utility.yul\":5300:5448   */\ntag_33:\n    /* \"#utility.yul\":5402:5413   */\n  0x00\n    /* \"#utility.yul\":5439:5442   */\n  dup2\n    /* \"#utility.yul\":5424:5442   */\n  swap1\n  pop\n    /* \"#utility.yul\":5300:5448   */\n  swap3\n  swap2\n  pop\n  pop\n  jump\t// out\n    /* \"#utility.yul\":5454:5844   */\ntag_34:\n    /* \"#utility.yul\":5560:5563   */\n  0x00\n    /* \"#utility.yul\":5588:5627   */\n  tag_94\n    /* \"#utility.yul\":5621:5626   */\n  dup3\n    /* \"#utility.yul\":5588:5627   */\n  tag_32\n  jump\t// in\ntag_94:\n    /* \"#utility.yul\":5643:5732   */\n  tag_95\n    /* \"#utility.yul\":5725:5731   */\n  dup2\n    /* \"#utility.yul\":5720:5723   */\n  dup6\n    /* \"#utility.yul\":5643:5732   */\n  tag_33\n  jump\t// in\ntag_95:\n    /* \"#utility.yul\":5636:5732   */\n  swap4\n  pop\n    /* \"#utility.yul\":5741:5806   */\n  tag_96\n    /* \"#utility.yul\":5799:5805   */\n  dup2\n    /* \"#utility.yul\":5794:5797   */\n  dup6\n    /* \"#utility.yul\":5787:5791   */\n  0x20\n    /* \"#utility.yul\":5780:5785   */\n  dup7\n    /* \"#utility.yul\":5776:5792   */\n  add\n    /* \"#utility.yul\":5741:5806   */\n  tag_27\n  jump\t// in\ntag_96:\n    /* \"#utility.yul\":5831:5837   */\n  dup1\n    /* \"#utility.yul\":5826:5829   */\n  dup5\n    /* \"#utility.yul\":5822:5838   */\n  add\n    /* \"#utility.yul\":5815:5838   */\n  swap2\n  pop\n    /* \"#utility.yul\":5564:5844   */\n  pop\n    /* \"#utility.yul\":5454:5844   */\n  swap3\n  swap2\n  pop\n  pop\n  jump\t// out\n    /* \"#utility.yul\":5850:6125   */\ntag_13:\n    /* \"#utility.yul\":5982:5985   */\n  0x00\n    /* \"#utility.yul\":6004:6099   */\n  tag_98\n    /* \"#utility.yul\":6095:6098   */\n  dup3\n    /* \"#utility.yul\":6086:6092   */\n  dup5\n    /* \"#utility.yul\":6004:6099   */\n  tag_34\n  jump\t// in\ntag_98:\n    /* \"#utility.yul\":5997:6099   */\n  swap2\n  pop\n    /* \"#utility.yul\":6116:6119   */\n  dup2\n    /* \"#utility.yul\":6109:6119   */\n  swap1\n  pop\n    /* \"#utility.yul\":5850:6125   */\n  swap3\n  swap2\n  pop\n  pop\n  jump\t// out\n    /* \"A/AccountHarvesting/AccountHarvesting.sol\":912:1614  contract AccountHarvestVuln {... */\ntag_14:\n  dataSize(sub_0)\n  dup1\n  dataOffset(sub_0)\n  0x00\n  codecopy\n  0x00\n  return\nstop\n\nsub_0: assembly {\n        /* \"A/AccountHarvesting/AccountHarvesting.sol\":912:1614  contract AccountHarvestVuln {... */\n      mstore(0x40, 0x80)\n      callvalue\n      dup1\n      iszero\n      tag_1\n      jumpi\n      0x00\n      dup1\n      revert\n    tag_1:\n      pop\n      jumpi(tag_2, lt(calldatasize, 0x04))\n      shr(0xe0, calldataload(0x00))\n      dup1\n      0x1eb41b71\n      eq\n      tag_3\n      jumpi\n      dup1\n      0xfddc968e\n      eq\n      tag_4\n      jumpi\n    tag_2:\n      0x00\n      dup1\n      revert\n        /* \"A/AccountHarvesting/AccountHarvesting.sol\":1407:1612  function checkUser(string calldata username) external {... */\n    tag_3:\n      tag_5\n      0x04\n      dup1\n      calldatasize\n      sub\n      dup2\n      add\n      swap1\n      tag_6\n      swap2\n      swap1\n      tag_7\n      jump\t// in\n    tag_6:\n      tag_8\n      jump\t// in\n    tag_5:\n      stop\n        /* \"A/AccountHarvesting/AccountHarvesting.sol\":946:987  mapping(string => bool) public userExists */\n    tag_4:\n      tag_9\n      0x04\n      dup1\n      calldatasize\n      sub\n      dup2\n      add\n      swap1\n      tag_10\n      swap2\n      swap1\n      tag_11\n      jump\t// in\n    tag_10:\n      tag_12\n      jump\t// in\n    tag_9:\n      mload(0x40)\n      tag_13\n      swap2\n      swap1\n      tag_14\n      jump\t// in\n    tag_13:\n      mload(0x40)\n      dup1\n      swap2\n      sub\n      swap1\n      return\n        /* \"A/AccountHarvesting/AccountHarvesting.sol\":1407:1612  function checkUser(string calldata username) external {... */\n    tag_8:\n        /* \"A/AccountHarvesting/AccountHarvesting.sol\":1471:1482  bool exists */\n      0x00\n        /* \"A/AccountHarvesting/AccountHarvesting.sol\":1485:1495  userExists */\n      dup1\n        /* \"A/AccountHarvesting/AccountHarvesting.sol\":1496:1504  username */\n      dup4\n      dup4\n        /* \"A/AccountHarvesting/AccountHarvesting.sol\":1485:1505  userExists[username] */\n      mload(0x40)\n      tag_16\n      swap3\n      swap2\n      swap1\n      tag_17\n      jump\t// in\n    tag_16:\n      swap1\n      dup2\n      mstore\n      0x20\n      add\n      mload(0x40)\n      dup1\n      swap2\n      sub\n      swap1\n      keccak256\n      0x00\n      swap1\n      sload\n      swap1\n      0x0100\n      exp\n      swap1\n      div\n      0xff\n      and\n        /* \"A/AccountHarvesting/AccountHarvesting.sol\":1471:1505  bool exists = userExists[username] */\n      swap1\n      pop\n        /* \"A/AccountHarvesting/AccountHarvesting.sol\":1535:1545  msg.sender */\n      caller\n        /* \"A/AccountHarvesting/AccountHarvesting.sol\":1520:1605  HarvestChecked(msg.sender, username, exists, AccountHarvestingAttackType.Enumeration) */\n      0xffffffffffffffffffffffffffffffffffffffff\n      and\n      0x1c0520feabd05eba81826b6aea2f1577513359aab30ab64545ad8ecedece8b33\n        /* \"A/AccountHarvesting/AccountHarvesting.sol\":1547:1555  username */\n      dup5\n      dup5\n        /* \"A/AccountHarvesting/AccountHarvesting.sol\":1557:1563  exists */\n      dup5\n        /* \"A/AccountHarvesting/AccountHarvesting.sol\":1565:1604  AccountHarvestingAttackType.Enumeration */\n      0x00\n        /* \"A/AccountHarvesting/AccountHarvesting.sol\":1520:1605  HarvestChecked(msg.sender, username, exists, AccountHarvestingAttackType.Enumeration) */\n      mload(0x40)\n      tag_18\n      swap5\n      swap4\n      swap3\n      swap2\n      swap1\n      tag_19\n      jump\t// in\n    tag_18:\n      mload(0x40)\n      dup1\n      swap2\n      sub\n      swap1\n      log2\n        /* \"A/AccountHarvesting/AccountHarvesting.sol\":1461:1612  {... */\n      pop\n        /* \"A/AccountHarvesting/AccountHarvesting.sol\":1407:1612  function checkUser(string calldata username) external {... */\n      pop\n      pop\n      jump\t// out\n        /* \"A/AccountHarvesting/AccountHarvesting.sol\":946:987  mapping(string => bool) public userExists */\n    tag_12:\n      0x00\n      dup2\n      dup1\n      mload\n      0x20\n      dup2\n      add\n      dup3\n      add\n      dup1\n      mload\n      dup5\n      dup3\n      mstore\n      0x20\n      dup4\n      add\n      0x20\n      dup6\n      add\n      keccak256\n      dup2\n      dup4\n      mstore\n      dup1\n      swap6\n      pop\n      pop\n      pop\n      pop\n      pop\n      pop\n      0x00\n      swap2\n      pop\n      sload\n      swap1\n      0x0100\n      exp\n      swap1\n      div\n      0xff\n      and\n      dup2\n      jump\t// out\n        /* \"#utility.yul\":7:82   */\n    tag_20:\n        /* \"#utility.yul\":40:46   */\n      0x00\n        /* \"#utility.yul\":73:75   */\n      0x40\n        /* \"#utility.yul\":67:76   */\n      mload\n        /* \"#utility.yul\":57:76   */\n      swap1\n      pop\n        /* \"#utility.yul\":7:82   */\n      swap1\n      jump\t// out\n        /* \"#utility.yul\":88:205   */\n    tag_21:\n        /* \"#utility.yul\":197:198   */\n      0x00\n        /* \"#utility.yul\":194:195   */\n      dup1\n        /* \"#utility.yul\":187:199   */\n      revert\n        /* \"#utility.yul\":211:328   */\n    tag_22:\n        /* \"#utility.yul\":320:321   */\n      0x00\n        /* \"#utility.yul\":317:318   */\n      dup1\n        /* \"#utility.yul\":310:322   */\n      revert\n        /* \"#utility.yul\":334:451   */\n    tag_23:\n        /* \"#utility.yul\":443:444   */\n      0x00\n        /* \"#utility.yul\":440:441   */\n      dup1\n        /* \"#utility.yul\":433:445   */\n      revert\n        /* \"#utility.yul\":457:574   */\n    tag_24:\n        /* \"#utility.yul\":566:567   */\n      0x00\n        /* \"#utility.yul\":563:564   */\n      dup1\n        /* \"#utility.yul\":556:568   */\n      revert\n        /* \"#utility.yul\":580:697   */\n    tag_25:\n        /* \"#utility.yul\":689:690   */\n      0x00\n        /* \"#utility.yul\":686:687   */\n      dup1\n        /* \"#utility.yul\":679:691   */\n      revert\n        /* \"#utility.yul\":717:1270   */\n    tag_26:\n        /* \"#utility.yul\":775:783   */\n      0x00\n        /* \"#utility.yul\":785:791   */\n      dup1\n        /* \"#utility.yul\":835:838   */\n      dup4\n        /* \"#utility.yul\":828:832   */\n      0x1f\n        /* \"#utility.yul\":820:826   */\n      dup5\n        /* \"#utility.yul\":816:833   */\n      add\n        /* \"#utility.yul\":812:839   */\n      slt\n        /* \"#utility.yul\":802:924   */\n      tag_55\n      jumpi\n        /* \"#utility.yul\":843:922   */\n      tag_56\n      tag_23\n      jump\t// in\n    tag_56:\n        /* \"#utility.yul\":802:924   */\n    tag_55:\n        /* \"#utility.yul\":956:962   */\n      dup3\n        /* \"#utility.yul\":943:963   */\n      calldataload\n        /* \"#utility.yul\":933:963   */\n      swap1\n      pop\n        /* \"#utility.yul\":986:1004   */\n      0xffffffffffffffff\n        /* \"#utility.yul\":978:984   */\n      dup2\n        /* \"#utility.yul\":975:1005   */\n      gt\n        /* \"#utility.yul\":972:1089   */\n      iszero\n      tag_57\n      jumpi\n        /* \"#utility.yul\":1008:1087   */\n      tag_58\n      tag_24\n      jump\t// in\n    tag_58:\n        /* \"#utility.yul\":972:1089   */\n    tag_57:\n        /* \"#utility.yul\":1122:1126   */\n      0x20\n        /* \"#utility.yul\":1114:1120   */\n      dup4\n        /* \"#utility.yul\":1110:1127   */\n      add\n        /* \"#utility.yul\":1098:1127   */\n      swap2\n      pop\n        /* \"#utility.yul\":1176:1179   */\n      dup4\n        /* \"#utility.yul\":1168:1172   */\n      0x01\n        /* \"#utility.yul\":1160:1166   */\n      dup3\n        /* \"#utility.yul\":1156:1173   */\n      mul\n        /* \"#utility.yul\":1146:1154   */\n      dup4\n        /* \"#utility.yul\":1142:1174   */\n      add\n        /* \"#utility.yul\":1139:1180   */\n      gt\n        /* \"#utility.yul\":1136:1264   */\n      iszero\n      tag_59\n      jumpi\n        /* \"#utility.yul\":1183:1262   */\n      tag_60\n      tag_25\n      jump\t// in\n    tag_60:\n        /* \"#utility.yul\":1136:1264   */\n    tag_59:\n        /* \"#utility.yul\":717:1270   */\n      swap3\n      pop\n      swap3\n      swap1\n      pop\n      jump\t// out\n        /* \"#utility.yul\":1276:1805   */\n    tag_7:\n        /* \"#utility.yul\":1347:1353   */\n      0x00\n        /* \"#utility.yul\":1355:1361   */\n      dup1\n        /* \"#utility.yul\":1404:1406   */\n      0x20\n        /* \"#utility.yul\":1392:1401   */\n      dup4\n        /* \"#utility.yul\":1383:1390   */\n      dup6\n        /* \"#utility.yul\":1379:1402   */\n      sub\n        /* \"#utility.yul\":1375:1407   */\n      slt\n        /* \"#utility.yul\":1372:1491   */\n      iszero\n      tag_62\n      jumpi\n        /* \"#utility.yul\":1410:1489   */\n      tag_63\n      tag_21\n      jump\t// in\n    tag_63:\n        /* \"#utility.yul\":1372:1491   */\n    tag_62:\n        /* \"#utility.yul\":1558:1559   */\n      0x00\n        /* \"#utility.yul\":1547:1556   */\n      dup4\n        /* \"#utility.yul\":1543:1560   */\n      add\n        /* \"#utility.yul\":1530:1561   */\n      calldataload\n        /* \"#utility.yul\":1588:1606   */\n      0xffffffffffffffff\n        /* \"#utility.yul\":1580:1586   */\n      dup2\n        /* \"#utility.yul\":1577:1607   */\n      gt\n        /* \"#utility.yul\":1574:1691   */\n      iszero\n      tag_64\n      jumpi\n        /* \"#utility.yul\":1610:1689   */\n      tag_65\n      tag_22\n      jump\t// in\n    tag_65:\n        /* \"#utility.yul\":1574:1691   */\n    tag_64:\n        /* \"#utility.yul\":1723:1788   */\n      tag_66\n        /* \"#utility.yul\":1780:1787   */\n      dup6\n        /* \"#utility.yul\":1771:1777   */\n      dup3\n        /* \"#utility.yul\":1760:1769   */\n      dup7\n        /* \"#utility.yul\":1756:1778   */\n      add\n        /* \"#utility.yul\":1723:1788   */\n      tag_26\n      jump\t// in\n    tag_66:\n        /* \"#utility.yul\":1705:1788   */\n      swap3\n      pop\n      swap3\n      pop\n        /* \"#utility.yul\":1501:1798   */\n      pop\n        /* \"#utility.yul\":1276:1805   */\n      swap3\n      pop\n      swap3\n      swap1\n      pop\n      jump\t// out\n        /* \"#utility.yul\":1811:1928   */\n    tag_27:\n        /* \"#utility.yul\":1920:1921   */\n      0x00\n        /* \"#utility.yul\":1917:1918   */\n      dup1\n        /* \"#utility.yul\":1910:1922   */\n      revert\n        /* \"#utility.yul\":1934:2036   */\n    tag_28:\n        /* \"#utility.yul\":1975:1981   */\n      0x00\n        /* \"#utility.yul\":2026:2028   */\n      0x1f\n        /* \"#utility.yul\":2022:2029   */\n      not\n        /* \"#utility.yul\":2017:2019   */\n      0x1f\n        /* \"#utility.yul\":2010:2015   */\n      dup4\n        /* \"#utility.yul\":2006:2020   */\n      add\n        /* \"#utility.yul\":2002:2030   */\n      and\n        /* \"#utility.yul\":1992:2030   */\n      swap1\n      pop\n        /* \"#utility.yul\":1934:2036   */\n      swap2\n      swap1\n      pop\n      jump\t// out\n        /* \"#utility.yul\":2042:2222   */\n    tag_29:\n        /* \"#utility.yul\":2090:2167   */\n      0x4e487b7100000000000000000000000000000000000000000000000000000000\n        /* \"#utility.yul\":2087:2088   */\n      0x00\n        /* \"#utility.yul\":2080:2168   */\n      mstore\n        /* \"#utility.yul\":2187:2191   */\n      0x41\n        /* \"#utility.yul\":2184:2185   */\n      0x04\n        /* \"#utility.yul\":2177:2192   */\n      mstore\n        /* \"#utility.yul\":2211:2215   */\n      0x24\n        /* \"#utility.yul\":2208:2209   */\n      0x00\n        /* \"#utility.yul\":2201:2216   */\n      revert\n        /* \"#utility.yul\":2228:2509   */\n    tag_30:\n        /* \"#utility.yul\":2311:2338   */\n      tag_71\n        /* \"#utility.yul\":2333:2337   */\n      dup3\n        /* \"#utility.yul\":2311:2338   */\n      tag_28\n      jump\t// in\n    tag_71:\n        /* \"#utility.yul\":2303:2309   */\n      dup2\n        /* \"#utility.yul\":2299:2339   */\n      add\n        /* \"#utility.yul\":2441:2447   */\n      dup2\n        /* \"#utility.yul\":2429:2439   */\n      dup2\n        /* \"#utility.yul\":2426:2448   */\n      lt\n        /* \"#utility.yul\":2405:2423   */\n      0xffffffffffffffff\n        /* \"#utility.yul\":2393:2403   */\n      dup3\n        /* \"#utility.yul\":2390:2424   */\n      gt\n        /* \"#utility.yul\":2387:2449   */\n      or\n        /* \"#utility.yul\":2384:2472   */\n      iszero\n      tag_72\n      jumpi\n        /* \"#utility.yul\":2452:2470   */\n      tag_73\n      tag_29\n      jump\t// in\n    tag_73:\n        /* \"#utility.yul\":2384:2472   */\n    tag_72:\n        /* \"#utility.yul\":2492:2502   */\n      dup1\n        /* \"#utility.yul\":2488:2490   */\n      0x40\n        /* \"#utility.yul\":2481:2503   */\n      mstore\n        /* \"#utility.yul\":2271:2509   */\n      pop\n        /* \"#utility.yul\":2228:2509   */\n      pop\n      pop\n      jump\t// out\n        /* \"#utility.yul\":2515:2644   */\n    tag_31:\n        /* \"#utility.yul\":2549:2555   */\n      0x00\n        /* \"#utility.yul\":2576:2596   */\n      tag_75\n      tag_20\n      jump\t// in\n    tag_75:\n        /* \"#utility.yul\":2566:2596   */\n      swap1\n      pop\n        /* \"#utility.yul\":2605:2638   */\n      tag_76\n        /* \"#utility.yul\":2633:2637   */\n      dup3\n        /* \"#utility.yul\":2625:2631   */\n      dup3\n        /* \"#utility.yul\":2605:2638   */\n      tag_30\n      jump\t// in\n    tag_76:\n        /* \"#utility.yul\":2515:2644   */\n      swap2\n      swap1\n      pop\n      jump\t// out\n        /* \"#utility.yul\":2650:2958   */\n    tag_32:\n        /* \"#utility.yul\":2712:2716   */\n      0x00\n        /* \"#utility.yul\":2802:2820   */\n      0xffffffffffffffff\n        /* \"#utility.yul\":2794:2800   */\n      dup3\n        /* \"#utility.yul\":2791:2821   */\n      gt\n        /* \"#utility.yul\":2788:2844   */\n      iszero\n      tag_78\n      jumpi\n        /* \"#utility.yul\":2824:2842   */\n      tag_79\n      tag_29\n      jump\t// in\n    tag_79:\n        /* \"#utility.yul\":2788:2844   */\n    tag_78:\n        /* \"#utility.yul\":2862:2891   */\n      tag_80\n        /* \"#utility.yul\":2884:2890   */\n      dup3\n        /* \"#utility.yul\":2862:2891   */\n      tag_28\n      jump\t// in\n    tag_80:\n        /* \"#utility.yul\":2854:2891   */\n      swap1\n      pop\n        /* \"#utility.yul\":2946:2950   */\n      0x20\n        /* \"#utility.yul\":2940:2944   */\n      dup2\n        /* \"#utility.yul\":2936:2951   */\n      add\n        /* \"#utility.yul\":2928:2951   */\n      swap1\n      pop\n        /* \"#utility.yul\":2650:2958   */\n      swap2\n      swap1\n      pop\n      jump\t// out\n        /* \"#utility.yul\":2964:3112   */\n    tag_33:\n        /* \"#utility.yul\":3062:3068   */\n      dup3\n        /* \"#utility.yul\":3057:3060   */\n      dup2\n        /* \"#utility.yul\":3052:3055   */\n      dup4\n        /* \"#utility.yul\":3039:3069   */\n      calldatacopy\n        /* \"#utility.yul\":3103:3104   */\n      0x00\n        /* \"#utility.yul\":3094:3100   */\n      dup4\n        /* \"#utility.yul\":3089:3092   */\n      dup4\n        /* \"#utility.yul\":3085:3101   */\n      add\n        /* \"#utility.yul\":3078:3105   */\n      mstore\n        /* \"#utility.yul\":2964:3112   */\n      pop\n      pop\n      pop\n      jump\t// out\n        /* \"#utility.yul\":3118:3543   */\n    tag_34:\n        /* \"#utility.yul\":3196:3201   */\n      0x00\n        /* \"#utility.yul\":3221:3287   */\n      tag_83\n        /* \"#utility.yul\":3237:3286   */\n      tag_84\n        /* \"#utility.yul\":3279:3285   */\n      dup5\n        /* \"#utility.yul\":3237:3286   */\n      tag_32\n      jump\t// in\n    tag_84:\n        /* \"#utility.yul\":3221:3287   */\n      tag_31\n      jump\t// in\n    tag_83:\n        /* \"#utility.yul\":3212:3287   */\n      swap1\n      pop\n        /* \"#utility.yul\":3310:3316   */\n      dup3\n        /* \"#utility.yul\":3303:3308   */\n      dup2\n        /* \"#utility.yul\":3296:3317   */\n      mstore\n        /* \"#utility.yul\":3348:3352   */\n      0x20\n        /* \"#utility.yul\":3341:3346   */\n      dup2\n        /* \"#utility.yul\":3337:3353   */\n      add\n        /* \"#utility.yul\":3386:3389   */\n      dup5\n        /* \"#utility.yul\":3377:3383   */\n      dup5\n        /* \"#utility.yul\":3372:3375   */\n      dup5\n        /* \"#utility.yul\":3368:3384   */\n      add\n        /* \"#utility.yul\":3365:3390   */\n      gt\n        /* \"#utility.yul\":3362:3474   */\n      iszero\n      tag_85\n      jumpi\n        /* \"#utility.yul\":3393:3472   */\n      tag_86\n      tag_27\n      jump\t// in\n    tag_86:\n        /* \"#utility.yul\":3362:3474   */\n    tag_85:\n        /* \"#utility.yul\":3483:3537   */\n      tag_87\n        /* \"#utility.yul\":3530:3536   */\n      dup5\n        /* \"#utility.yul\":3525:3528   */\n      dup3\n        /* \"#utility.yul\":3520:3523   */\n      dup6\n        /* \"#utility.yul\":3483:3537   */\n      tag_33\n      jump\t// in\n    tag_87:\n        /* \"#utility.yul\":3202:3543   */\n      pop\n        /* \"#utility.yul\":3118:3543   */\n      swap4\n      swap3\n      pop\n      pop\n      pop\n      jump\t// out\n        /* \"#utility.yul\":3563:3903   */\n    tag_35:\n        /* \"#utility.yul\":3619:3624   */\n      0x00\n        /* \"#utility.yul\":3668:3671   */\n      dup3\n        /* \"#utility.yul\":3661:3665   */\n      0x1f\n        /* \"#utility.yul\":3653:3659   */\n      dup4\n        /* \"#utility.yul\":3649:3666   */\n      add\n        /* \"#utility.yul\":3645:3672   */\n      slt\n        /* \"#utility.yul\":3635:3757   */\n      tag_89\n      jumpi\n        /* \"#utility.yul\":3676:3755   */\n      tag_90\n      tag_23\n      jump\t// in\n    tag_90:\n        /* \"#utility.yul\":3635:3757   */\n    tag_89:\n        /* \"#utility.yul\":3793:3799   */\n      dup2\n        /* \"#utility.yul\":3780:3800   */\n      calldataload\n        /* \"#utility.yul\":3818:3897   */\n      tag_91\n        /* \"#utility.yul\":3893:3896   */\n      dup5\n        /* \"#utility.yul\":3885:3891   */\n      dup3\n        /* \"#utility.yul\":3878:3882   */\n      0x20\n        /* \"#utility.yul\":3870:3876   */\n      dup7\n        /* \"#utility.yul\":3866:3883   */\n      add\n        /* \"#utility.yul\":3818:3897   */\n      tag_34\n      jump\t// in\n    tag_91:\n        /* \"#utility.yul\":3809:3897   */\n      swap2\n      pop\n        /* \"#utility.yul\":3625:3903   */\n      pop\n        /* \"#utility.yul\":3563:3903   */\n      swap3\n      swap2\n      pop\n      pop\n      jump\t// out\n        /* \"#utility.yul\":3909:4418   */\n    tag_11:\n        /* \"#utility.yul\":3978:3984   */\n      0x00\n        /* \"#utility.yul\":4027:4029   */\n      0x20\n        /* \"#utility.yul\":4015:4024   */\n      dup3\n        /* \"#utility.yul\":4006:4013   */\n      dup5\n        /* \"#utility.yul\":4002:4025   */\n      sub\n        /* \"#utility.yul\":3998:4030   */\n      slt\n        /* \"#utility.yul\":3995:4114   */\n      iszero\n      tag_93\n      jumpi\n        /* \"#utility.yul\":4033:4112   */\n      tag_94\n      tag_21\n      jump\t// in\n    tag_94:\n        /* \"#utility.yul\":3995:4114   */\n    tag_93:\n        /* \"#utility.yul\":4181:4182   */\n      0x00\n        /* \"#utility.yul\":4170:4179   */\n      dup3\n        /* \"#utility.yul\":4166:4183   */\n      add\n        /* \"#utility.yul\":4153:4184   */\n      calldataload\n        /* \"#utility.yul\":4211:4229   */\n      0xffffffffffffffff\n        /* \"#utility.yul\":4203:4209   */\n      dup2\n        /* \"#utility.yul\":4200:4230   */\n      gt\n        /* \"#utility.yul\":4197:4314   */\n      iszero\n      tag_95\n      jumpi\n        /* \"#utility.yul\":4233:4312   */\n      tag_96\n      tag_22\n      jump\t// in\n    tag_96:\n        /* \"#utility.yul\":4197:4314   */\n    tag_95:\n        /* \"#utility.yul\":4338:4401   */\n      tag_97\n        /* \"#utility.yul\":4393:4400   */\n      dup5\n        /* \"#utility.yul\":4384:4390   */\n      dup3\n        /* \"#utility.yul\":4373:4382   */\n      dup6\n        /* \"#utility.yul\":4369:4391   */\n      add\n        /* \"#utility.yul\":4338:4401   */\n      tag_35\n      jump\t// in\n    tag_97:\n        /* \"#utility.yul\":4328:4401   */\n      swap2\n      pop\n        /* \"#utility.yul\":4124:4411   */\n      pop\n        /* \"#utility.yul\":3909:4418   */\n      swap3\n      swap2\n      pop\n      pop\n      jump\t// out\n        /* \"#utility.yul\":4424:4514   */\n    tag_36:\n        /* \"#utility.yul\":4458:4465   */\n      0x00\n        /* \"#utility.yul\":4501:4506   */\n      dup2\n        /* \"#utility.yul\":4494:4507   */\n      iszero\n        /* \"#utility.yul\":4487:4508   */\n      iszero\n        /* \"#utility.yul\":4476:4508   */\n      swap1\n      pop\n        /* \"#utility.yul\":4424:4514   */\n      swap2\n      swap1\n      pop\n      jump\t// out\n        /* \"#utility.yul\":4520:4629   */\n    tag_37:\n        /* \"#utility.yul\":4601:4622   */\n      tag_100\n        /* \"#utility.yul\":4616:4621   */\n      dup2\n        /* \"#utility.yul\":4601:4622   */\n      tag_36\n      jump\t// in\n    tag_100:\n        /* \"#utility.yul\":4596:4599   */\n      dup3\n        /* \"#utility.yul\":4589:4623   */\n      mstore\n        /* \"#utility.yul\":4520:4629   */\n      pop\n      pop\n      jump\t// out\n        /* \"#utility.yul\":4635:4845   */\n    tag_14:\n        /* \"#utility.yul\":4722:4726   */\n      0x00\n        /* \"#utility.yul\":4760:4762   */\n      0x20\n        /* \"#utility.yul\":4749:4758   */\n      dup3\n        /* \"#utility.yul\":4745:4763   */\n      add\n        /* \"#utility.yul\":4737:4763   */\n      swap1\n      pop\n        /* \"#utility.yul\":4773:4838   */\n      tag_102\n        /* \"#utility.yul\":4835:4836   */\n      0x00\n        /* \"#utility.yul\":4824:4833   */\n      dup4\n        /* \"#utility.yul\":4820:4837   */\n      add\n        /* \"#utility.yul\":4811:4817   */\n      dup5\n        /* \"#utility.yul\":4773:4838   */\n      tag_37\n      jump\t// in\n    tag_102:\n        /* \"#utility.yul\":4635:4845   */\n      swap3\n      swap2\n      pop\n      pop\n      jump\t// out\n        /* \"#utility.yul\":4851:4999   */\n    tag_38:\n        /* \"#utility.yul\":4953:4964   */\n      0x00\n        /* \"#utility.yul\":4990:4993   */\n      dup2\n        /* \"#utility.yul\":4975:4993   */\n      swap1\n      pop\n        /* \"#utility.yul\":4851:4999   */\n      swap3\n      swap2\n      pop\n      pop\n      jump\t// out\n        /* \"#utility.yul\":5029:5359   */\n    tag_39:\n        /* \"#utility.yul\":5145:5148   */\n      0x00\n        /* \"#utility.yul\":5166:5255   */\n      tag_105\n        /* \"#utility.yul\":5248:5254   */\n      dup4\n        /* \"#utility.yul\":5243:5246   */\n      dup6\n        /* \"#utility.yul\":5166:5255   */\n      tag_38\n      jump\t// in\n    tag_105:\n        /* \"#utility.yul\":5159:5255   */\n      swap4\n      pop\n        /* \"#utility.yul\":5265:5321   */\n      tag_106\n        /* \"#utility.yul\":5314:5320   */\n      dup4\n        /* \"#utility.yul\":5309:5312   */\n      dup6\n        /* \"#utility.yul\":5302:5307   */\n      dup5\n        /* \"#utility.yul\":5265:5321   */\n      tag_33\n      jump\t// in\n    tag_106:\n        /* \"#utility.yul\":5346:5352   */\n      dup3\n        /* \"#utility.yul\":5341:5344   */\n      dup5\n        /* \"#utility.yul\":5337:5353   */\n      add\n        /* \"#utility.yul\":5330:5353   */\n      swap1\n      pop\n        /* \"#utility.yul\":5029:5359   */\n      swap4\n      swap3\n      pop\n      pop\n      pop\n      jump\t// out\n        /* \"#utility.yul\":5365:5660   */\n    tag_17:\n        /* \"#utility.yul\":5507:5510   */\n      0x00\n        /* \"#utility.yul\":5529:5634   */\n      tag_108\n        /* \"#utility.yul\":5630:5633   */\n      dup3\n        /* \"#utility.yul\":5621:5627   */\n      dup5\n        /* \"#utility.yul\":5613:5619   */\n      dup7\n        /* \"#utility.yul\":5529:5634   */\n      tag_39\n      jump\t// in\n    tag_108:\n        /* \"#utility.yul\":5522:5634   */\n      swap2\n      pop\n        /* \"#utility.yul\":5651:5654   */\n      dup2\n        /* \"#utility.yul\":5644:5654   */\n      swap1\n      pop\n        /* \"#utility.yul\":5365:5660   */\n      swap4\n      swap3\n      pop\n      pop\n      pop\n      jump\t// out\n        /* \"#utility.yul\":5666:5835   */\n    tag_40:\n        /* \"#utility.yul\":5750:5761   */\n      0x00\n        /* \"#utility.yul\":5784:5790   */\n      dup3\n        /* \"#utility.yul\":5779:5782   */\n      dup3\n        /* \"#utility.yul\":5772:5791   */\n      mstore\n        /* \"#utility.yul\":5824:5828   */\n      0x20\n        /* \"#utility.yul\":5819:5822   */\n      dup3\n        /* \"#utility.yul\":5815:5829   */\n      add\n        /* \"#utility.yul\":5800:5829   */\n      swap1\n      pop\n        /* \"#utility.yul\":5666:5835   */\n      swap3\n      swap2\n      pop\n      pop\n      jump\t// out\n        /* \"#utility.yul\":5865:6182   */\n    tag_41:\n        /* \"#utility.yul\":5963:5966   */\n      0x00\n        /* \"#utility.yul\":5984:6055   */\n      tag_111\n        /* \"#utility.yul\":6048:6054   */\n      dup4\n        /* \"#utility.yul\":6043:6046   */\n      dup6\n        /* \"#utility.yul\":5984:6055   */\n      tag_40\n      jump\t// in\n    tag_111:\n        /* \"#utility.yul\":5977:6055   */\n      swap4\n      pop\n        /* \"#utility.yul\":6065:6121   */\n      tag_112\n        /* \"#utility.yul\":6114:6120   */\n      dup4\n        /* \"#utility.yul\":6109:6112   */\n      dup6\n        /* \"#utility.yul\":6102:6107   */\n      dup5\n        /* \"#utility.yul\":6065:6121   */\n      tag_33\n      jump\t// in\n    tag_112:\n        /* \"#utility.yul\":6146:6175   */\n      tag_113\n        /* \"#utility.yul\":6168:6174   */\n      dup4\n        /* \"#utility.yul\":6146:6175   */\n      tag_28\n      jump\t// in\n    tag_113:\n        /* \"#utility.yul\":6141:6144   */\n      dup5\n        /* \"#utility.yul\":6137:6176   */\n      add\n        /* \"#utility.yul\":6130:6176   */\n      swap1\n      pop\n        /* \"#utility.yul\":5865:6182   */\n      swap4\n      swap3\n      pop\n      pop\n      pop\n      jump\t// out\n        /* \"#utility.yul\":6188:6368   */\n    tag_42:\n        /* \"#utility.yul\":6236:6313   */\n      0x4e487b7100000000000000000000000000000000000000000000000000000000\n        /* \"#utility.yul\":6233:6234   */\n      0x00\n        /* \"#utility.yul\":6226:6314   */\n      mstore\n        /* \"#utility.yul\":6333:6337   */\n      0x21\n        /* \"#utility.yul\":6330:6331   */\n      0x04\n        /* \"#utility.yul\":6323:6338   */\n      mstore\n        /* \"#utility.yul\":6357:6361   */\n      0x24\n        /* \"#utility.yul\":6354:6355   */\n      0x00\n        /* \"#utility.yul\":6347:6362   */\n      revert\n        /* \"#utility.yul\":6374:6508   */\n    tag_43:\n        /* \"#utility.yul\":6476:6477   */\n      0x02\n        /* \"#utility.yul\":6469:6474   */\n      dup2\n        /* \"#utility.yul\":6466:6478   */\n      lt\n        /* \"#utility.yul\":6456:6502   */\n      tag_116\n      jumpi\n        /* \"#utility.yul\":6482:6500   */\n      tag_117\n      tag_42\n      jump\t// in\n    tag_117:\n        /* \"#utility.yul\":6456:6502   */\n    tag_116:\n        /* \"#utility.yul\":6374:6508   */\n      pop\n      jump\t// out\n        /* \"#utility.yul\":6514:6683   */\n    tag_44:\n        /* \"#utility.yul\":6580:6587   */\n      0x00\n        /* \"#utility.yul\":6609:6614   */\n      dup2\n        /* \"#utility.yul\":6598:6614   */\n      swap1\n      pop\n        /* \"#utility.yul\":6615:6677   */\n      tag_119\n        /* \"#utility.yul\":6671:6676   */\n      dup3\n        /* \"#utility.yul\":6615:6677   */\n      tag_43\n      jump\t// in\n    tag_119:\n        /* \"#utility.yul\":6514:6683   */\n      swap2\n      swap1\n      pop\n      jump\t// out\n        /* \"#utility.yul\":6689:6858   */\n    tag_45:\n        /* \"#utility.yul\":6766:6775   */\n      0x00\n        /* \"#utility.yul\":6799:6852   */\n      tag_121\n        /* \"#utility.yul\":6846:6851   */\n      dup3\n        /* \"#utility.yul\":6799:6852   */\n      tag_44\n      jump\t// in\n    tag_121:\n        /* \"#utility.yul\":6786:6852   */\n      swap1\n      pop\n        /* \"#utility.yul\":6689:6858   */\n      swap2\n      swap1\n      pop\n      jump\t// out\n        /* \"#utility.yul\":6864:7049   */\n    tag_46:\n        /* \"#utility.yul\":6978:7042   */\n      tag_123\n        /* \"#utility.yul\":7036:7041   */\n      dup2\n        /* \"#utility.yul\":6978:7042   */\n      tag_45\n      jump\t// in\n    tag_123:\n        /* \"#utility.yul\":6973:6976   */\n      dup3\n        /* \"#utility.yul\":6966:7043   */\n      mstore\n        /* \"#utility.yul\":6864:7049   */\n      pop\n      pop\n      jump\t// out\n        /* \"#utility.yul\":7055:7650   */\n    tag_19:\n        /* \"#utility.yul\":7255:7259   */\n      0x00\n        /* \"#utility.yul\":7293:7295   */\n      0x60\n        /* \"#utility.yul\":7282:7291   */\n      dup3\n        /* \"#utility.yul\":7278:7296   */\n      add\n        /* \"#utility.yul\":7270:7296   */\n      swap1\n      pop\n        /* \"#utility.yul\":7342:7351   */\n      dup2\n        /* \"#utility.yul\":7336:7340   */\n      dup2\n        /* \"#utility.yul\":7332:7352   */\n      sub\n        /* \"#utility.yul\":7328:7329   */\n      0x00\n        /* \"#utility.yul\":7317:7326   */\n      dup4\n        /* \"#utility.yul\":7313:7330   */\n      add\n        /* \"#utility.yul\":7306:7353   */\n      mstore\n        /* \"#utility.yul\":7370:7458   */\n      tag_125\n        /* \"#utility.yul\":7453:7457   */\n      dup2\n        /* \"#utility.yul\":7444:7450   */\n      dup7\n        /* \"#utility.yul\":7436:7442   */\n      dup9\n        /* \"#utility.yul\":7370:7458   */\n      tag_41\n      jump\t// in\n    tag_125:\n        /* \"#utility.yul\":7362:7458   */\n      swap1\n      pop\n        /* \"#utility.yul\":7468:7534   */\n      tag_126\n        /* \"#utility.yul\":7530:7532   */\n      0x20\n        /* \"#utility.yul\":7519:7528   */\n      dup4\n        /* \"#utility.yul\":7515:7533   */\n      add\n        /* \"#utility.yul\":7506:7512   */\n      dup6\n        /* \"#utility.yul\":7468:7534   */\n      tag_37\n      jump\t// in\n    tag_126:\n        /* \"#utility.yul\":7544:7643   */\n      tag_127\n        /* \"#utility.yul\":7639:7641   */\n      0x40\n        /* \"#utility.yul\":7628:7637   */\n      dup4\n        /* \"#utility.yul\":7624:7642   */\n      add\n        /* \"#utility.yul\":7615:7621   */\n      dup5\n        /* \"#utility.yul\":7544:7643   */\n      tag_46\n      jump\t// in\n    tag_127:\n        /* \"#utility.yul\":7055:7650   */\n      swap6\n      swap5\n      pop\n      pop\n      pop\n      pop\n      pop\n      jump\t// out\n\n    auxdata: 0xa2646970667358221220322b16c4a2bfc49a6fbf764f2618ea3f8ec8bdd5eec6487c4688da697035d85764736f6c634300081a0033\n}\n",
				"bytecode": {
					"linkReferences": {},
					"object": "608060405234801561000f575f80fd5b506040516108c13803806108c1833981810160405281019061003191906102ce565b5f5b81518110156100985760015f83838151811061005257610051610315565b5b60200260200101516040516100679190610386565b90815260200160405180910390205f6101000a81548160ff0219169083151502179055508080600101915050610033565b505061039c565b5f604051905090565b5f80fd5b5f80fd5b5f80fd5b5f601f19601f8301169050919050565b7f4e487b71000000000000000000000000000000000000000000000000000000005f52604160045260245ffd5b6100fa826100b4565b810181811067ffffffffffffffff82111715610119576101186100c4565b5b80604052505050565b5f61012b61009f565b905061013782826100f1565b919050565b5f67ffffffffffffffff821115610156576101556100c4565b5b602082029050602081019050919050565b5f80fd5b5f80fd5b5f67ffffffffffffffff821115610189576101886100c4565b5b610192826100b4565b9050602081019050919050565b8281835e5f83830152505050565b5f6101bf6101ba8461016f565b610122565b9050828152602081018484840111156101db576101da61016b565b5b6101e684828561019f565b509392505050565b5f82601f830112610202576102016100b0565b5b81516102128482602086016101ad565b91505092915050565b5f61022d6102288461013c565b610122565b905080838252602082019050602084028301858111156102505761024f610167565b5b835b8181101561029757805167ffffffffffffffff811115610275576102746100b0565b5b80860161028289826101ee565b85526020850194505050602081019050610252565b5050509392505050565b5f82601f8301126102b5576102b46100b0565b5b81516102c584826020860161021b565b91505092915050565b5f602082840312156102e3576102e26100a8565b5b5f82015167ffffffffffffffff811115610300576102ff6100ac565b5b61030c848285016102a1565b91505092915050565b7f4e487b71000000000000000000000000000000000000000000000000000000005f52603260045260245ffd5b5f81519050919050565b5f81905092915050565b5f61036082610342565b61036a818561034c565b935061037a81856020860161019f565b80840191505092915050565b5f6103918284610356565b915081905092915050565b610518806103a95f395ff3fe608060405234801561000f575f80fd5b5060043610610034575f3560e01c80631eb41b7114610038578063fddc968e14610054575b5f80fd5b610052600480360381019061004d91906101b2565b610084565b005b61006e60048036038101906100699190610335565b61010c565b60405161007b9190610396565b60405180910390f35b5f8083836040516100969291906103dd565b90815260200160405180910390205f9054906101000a900460ff1690503373ffffffffffffffffffffffffffffffffffffffff167f1c0520feabd05eba81826b6aea2f1577513359aab30ab64545ad8ecedece8b338484845f6040516100ff94939291906104a4565b60405180910390a2505050565b5f818051602081018201805184825260208301602085012081835280955050505050505f915054906101000a900460ff1681565b5f604051905090565b5f80fd5b5f80fd5b5f80fd5b5f80fd5b5f80fd5b5f8083601f84011261017257610171610151565b5b8235905067ffffffffffffffff81111561018f5761018e610155565b5b6020830191508360018202830111156101ab576101aa610159565b5b9250929050565b5f80602083850312156101c8576101c7610149565b5b5f83013567ffffffffffffffff8111156101e5576101e461014d565b5b6101f18582860161015d565b92509250509250929050565b5f80fd5b5f601f19601f8301169050919050565b7f4e487b71000000000000000000000000000000000000000000000000000000005f52604160045260245ffd5b61024782610201565b810181811067ffffffffffffffff8211171561026657610265610211565b5b80604052505050565b5f610278610140565b9050610284828261023e565b919050565b5f67ffffffffffffffff8211156102a3576102a2610211565b5b6102ac82610201565b9050602081019050919050565b828183375f83830152505050565b5f6102d96102d484610289565b61026f565b9050828152602081018484840111156102f5576102f46101fd565b5b6103008482856102b9565b509392505050565b5f82601f83011261031c5761031b610151565b5b813561032c8482602086016102c7565b91505092915050565b5f6020828403121561034a57610349610149565b5b5f82013567ffffffffffffffff8111156103675761036661014d565b5b61037384828501610308565b91505092915050565b5f8115159050919050565b6103908161037c565b82525050565b5f6020820190506103a95f830184610387565b92915050565b5f81905092915050565b5f6103c483856103af565b93506103d18385846102b9565b82840190509392505050565b5f6103e98284866103b9565b91508190509392505050565b5f82825260208201905092915050565b5f61041083856103f5565b935061041d8385846102b9565b61042683610201565b840190509392505050565b7f4e487b71000000000000000000000000000000000000000000000000000000005f52602160045260245ffd5b6002811061046f5761046e610431565b5b50565b5f81905061047f8261045e565b919050565b5f61048e82610472565b9050919050565b61049e81610484565b82525050565b5f6060820190508181035f8301526104bd818688610405565b90506104cc6020830185610387565b6104d96040830184610495565b9594505050505056fea2646970667358221220322b16c4a2bfc49a6fbf764f2618ea3f8ec8bdd5eec6487c4688da697035d85764736f6c634300081a0033",
					"opcodes": "PUSH1 0x80 PUSH1 0x40 MSTORE CALLVALUE DUP1 ISZERO PUSH2 0xF JUMPI PUSH0 DUP1 REVERT JUMPDEST POP PUSH1 0x40 MLOAD PUSH2 0x8C1 CODESIZE SUB DUP1 PUSH2 0x8C1 DUP4 CODECOPY DUP2 DUP2 ADD PUSH1 0x40 MSTORE DUP2 ADD SWAP1 PUSH2 0x31 SWAP2 SWAP1 PUSH2 0x2CE JUMP JUMPDEST PUSH0 JUMPDEST DUP2 MLOAD DUP2 LT ISZERO PUSH2 0x98 JUMPI PUSH1 0x1 PUSH0 DUP4 DUP4 DUP2 MLOAD DUP2 LT PUSH2 0x52 JUMPI PUSH2 0x51 PUSH2 0x315 JUMP JUMPDEST JUMPDEST PUSH1 0x20 MUL PUSH1 0x20 ADD ADD MLOAD PUSH1 0x40 MLOAD PUSH2 0x67 SWAP2 SWAP1 PUSH2 0x386 JUMP JUMPDEST SWAP1 DUP2 MSTORE PUSH1 0x20 ADD PUSH1 0x40 MLOAD DUP1 SWAP2 SUB SWAP1 KECCAK256 PUSH0 PUSH2 0x100 EXP DUP2 SLOAD DUP2 PUSH1 0xFF MUL NOT AND SWAP1 DUP4 ISZERO ISZERO MUL OR SWAP1 SSTORE POP DUP1 DUP1 PUSH1 0x1 ADD SWAP2 POP POP PUSH2 0x33 JUMP JUMPDEST POP POP PUSH2 0x39C JUMP JUMPDEST PUSH0 PUSH1 0x40 MLOAD SWAP1 POP SWAP1 JUMP JUMPDEST PUSH0 DUP1 REVERT JUMPDEST PUSH0 DUP1 REVERT JUMPDEST PUSH0 DUP1 REVERT JUMPDEST PUSH0 PUSH1 0x1F NOT PUSH1 0x1F DUP4 ADD AND SWAP1 POP SWAP2 SWAP1 POP JUMP JUMPDEST PUSH32 0x4E487B7100000000000000000000000000000000000000000000000000000000 PUSH0 MSTORE PUSH1 0x41 PUSH1 0x4 MSTORE PUSH1 0x24 PUSH0 REVERT JUMPDEST PUSH2 0xFA DUP3 PUSH2 0xB4 JUMP JUMPDEST DUP2 ADD DUP2 DUP2 LT PUSH8 0xFFFFFFFFFFFFFFFF DUP3 GT OR ISZERO PUSH2 0x119 JUMPI PUSH2 0x118 PUSH2 0xC4 JUMP JUMPDEST JUMPDEST DUP1 PUSH1 0x40 MSTORE POP POP POP JUMP JUMPDEST PUSH0 PUSH2 0x12B PUSH2 0x9F JUMP JUMPDEST SWAP1 POP PUSH2 0x137 DUP3 DUP3 PUSH2 0xF1 JUMP JUMPDEST SWAP2 SWAP1 POP JUMP JUMPDEST PUSH0 PUSH8 0xFFFFFFFFFFFFFFFF DUP3 GT ISZERO PUSH2 0x156 JUMPI PUSH2 0x155 PUSH2 0xC4 JUMP JUMPDEST JUMPDEST PUSH1 0x20 DUP3 MUL SWAP1 POP PUSH1 0x20 DUP2 ADD SWAP1 POP SWAP2 SWAP1 POP JUMP JUMPDEST PUSH0 DUP1 REVERT JUMPDEST PUSH0 DUP1 REVERT JUMPDEST PUSH0 PUSH8 0xFFFFFFFFFFFFFFFF DUP3 GT ISZERO PUSH2 0x189 JUMPI PUSH2 0x188 PUSH2 0xC4 JUMP JUMPDEST JUMPDEST PUSH2 0x192 DUP3 PUSH2 0xB4 JUMP JUMPDEST SWAP1 POP PUSH1 0x20 DUP2 ADD SWAP1 POP SWAP2 SWAP1 POP JUMP JUMPDEST DUP3 DUP2 DUP4 MCOPY PUSH0 DUP4 DUP4 ADD MSTORE POP POP POP JUMP JUMPDEST PUSH0 PUSH2 0x1BF PUSH2 0x1BA DUP5 PUSH2 0x16F JUMP JUMPDEST PUSH2 0x122 JUMP JUMPDEST SWAP1 POP DUP3 DUP2 MSTORE PUSH1 0x20 DUP2 ADD DUP5 DUP5 DUP5 ADD GT ISZERO PUSH2 0x1DB JUMPI PUSH2 0x1DA PUSH2 0x16B JUMP JUMPDEST JUMPDEST PUSH2 0x1E6 DUP5 DUP3 DUP6 PUSH2 0x19F JUMP JUMPDEST POP SWAP4 SWAP3 POP POP POP JUMP JUMPDEST PUSH0 DUP3 PUSH1 0x1F DUP4 ADD SLT PUSH2 0x202 JUMPI PUSH2 0x201 PUSH2 0xB0 JUMP JUMPDEST JUMPDEST DUP2 MLOAD PUSH2 0x212 DUP5 DUP3 PUSH1 0x20 DUP7 ADD PUSH2 0x1AD JUMP JUMPDEST SWAP2 POP POP SWAP3 SWAP2 POP POP JUMP JUMPDEST PUSH0 PUSH2 0x22D PUSH2 0x228 DUP5 PUSH2 0x13C JUMP JUMPDEST PUSH2 0x122 JUMP JUMPDEST SWAP1 POP DUP1 DUP4 DUP3 MSTORE PUSH1 0x20 DUP3 ADD SWAP1 POP PUSH1 0x20 DUP5 MUL DUP4 ADD DUP6 DUP2 GT ISZERO PUSH2 0x250 JUMPI PUSH2 0x24F PUSH2 0x167 JUMP JUMPDEST JUMPDEST DUP4 JUMPDEST DUP2 DUP2 LT ISZERO PUSH2 0x297 JUMPI DUP1 MLOAD PUSH8 0xFFFFFFFFFFFFFFFF DUP2 GT ISZERO PUSH2 0x275 JUMPI PUSH2 0x274 PUSH2 0xB0 JUMP JUMPDEST JUMPDEST DUP1 DUP7 ADD PUSH2 0x282 DUP10 DUP3 PUSH2 0x1EE JUMP JUMPDEST DUP6 MSTORE PUSH1 0x20 DUP6 ADD SWAP5 POP POP POP PUSH1 0x20 DUP2 ADD SWAP1 POP PUSH2 0x252 JUMP JUMPDEST POP POP POP SWAP4 SWAP3 POP POP POP JUMP JUMPDEST PUSH0 DUP3 PUSH1 0x1F DUP4 ADD SLT PUSH2 0x2B5 JUMPI PUSH2 0x2B4 PUSH2 0xB0 JUMP JUMPDEST JUMPDEST DUP2 MLOAD PUSH2 0x2C5 DUP5 DUP3 PUSH1 0x20 DUP7 ADD PUSH2 0x21B JUMP JUMPDEST SWAP2 POP POP SWAP3 SWAP2 POP POP JUMP JUMPDEST PUSH0 PUSH1 0x20 DUP3 DUP5 SUB SLT ISZERO PUSH2 0x2E3 JUMPI PUSH2 0x2E2 PUSH2 0xA8 JUMP JUMPDEST JUMPDEST PUSH0 DUP3 ADD MLOAD PUSH8 0xFFFFFFFFFFFFFFFF DUP2 GT ISZERO PUSH2 0x300 JUMPI PUSH2 0x2FF PUSH2 0xAC JUMP JUMPDEST JUMPDEST PUSH2 0x30C DUP5 DUP3 DUP6 ADD PUSH2 0x2A1 JUMP JUMPDEST SWAP2 POP POP SWAP3 SWAP2 POP POP JUMP JUMPDEST PUSH32 0x4E487B7100000000000000000000000000000000000000000000000000000000 PUSH0 MSTORE PUSH1 0x32 PUSH1 0x4 MSTORE PUSH1 0x24 PUSH0 REVERT JUMPDEST PUSH0 DUP2 MLOAD SWAP1 POP SWAP2 SWAP1 POP JUMP JUMPDEST PUSH0 DUP2 SWAP1 POP SWAP3 SWAP2 POP POP JUMP JUMPDEST PUSH0 PUSH2 0x360 DUP3 PUSH2 0x342 JUMP JUMPDEST PUSH2 0x36A DUP2 DUP6 PUSH2 0x34C JUMP JUMPDEST SWAP4 POP PUSH2 0x37A DUP2 DUP6 PUSH1 0x20 DUP7 ADD PUSH2 0x19F JUMP JUMPDEST DUP1 DUP5 ADD SWAP2 POP POP SWAP3 SWAP2 POP POP JUMP JUMPDEST PUSH0 PUSH2 0x391 DUP3 DUP5 PUSH2 0x356 JUMP JUMPDEST SWAP2 POP DUP2 SWAP1 POP SWAP3 SWAP2 POP POP JUMP JUMPDEST PUSH2 0x518 DUP1 PUSH2 0x3A9 PUSH0 CODECOPY PUSH0 RETURN INVALID PUSH1 0x80 PUSH1 0x40 MSTORE CALLVALUE DUP1 ISZERO PUSH2 0xF JUMPI PUSH0 DUP1 REVERT JUMPDEST POP PUSH1 0x4 CALLDATASIZE LT PUSH2 0x34 JUMPI PUSH0 CALLDATALOAD PUSH1 0xE0 SHR DUP1 PUSH4 0x1EB41B71 EQ PUSH2 0x38 JUMPI DUP1 PUSH4 0xFDDC968E EQ PUSH2 0x54 JUMPI JUMPDEST PUSH0 DUP1 REVERT JUMPDEST PUSH2 0x52 PUSH1 0x4 DUP1 CALLDATASIZE SUB DUP2 ADD SWAP1 PUSH2 0x4D SWAP2 SWAP1 PUSH2 0x1B2 JUMP JUMPDEST PUSH2 0x84 JUMP JUMPDEST STOP JUMPDEST PUSH2 0x6E PUSH1 0x4 DUP1 CALLDATASIZE SUB DUP2 ADD SWAP1 PUSH2 0x69 SWAP2 SWAP1 PUSH2 0x335 JUMP JUMPDEST PUSH2 0x10C JUMP JUMPDEST PUSH1 0x40 MLOAD PUSH2 0x7B SWAP2 SWAP1 PUSH2 0x396 JUMP JUMPDEST PUSH1 0x40 MLOAD DUP1 SWAP2 SUB SWAP1 RETURN JUMPDEST PUSH0 DUP1 DUP4 DUP4 PUSH1 0x40 MLOAD PUSH2 0x96 SWAP3 SWAP2 SWAP1 PUSH2 0x3DD JUMP JUMPDEST SWAP1 DUP2 MSTORE PUSH1 0x20 ADD PUSH1 0x40 MLOAD DUP1 SWAP2 SUB SWAP1 KECCAK256 PUSH0 SWAP1 SLOAD SWAP1 PUSH2 0x100 EXP SWAP1 DIV PUSH1 0xFF AND SWAP1 POP CALLER PUSH20 0xFFFFFFFFFFFFFFFFFFFFFFFFFFFFFFFFFFFFFFFF AND PUSH32 0x1C0520FEABD05EBA81826B6AEA2F1577513359AAB30AB64545AD8ECEDECE8B33 DUP5 DUP5 DUP5 PUSH0 PUSH1 0x40 MLOAD PUSH2 0xFF SWAP5 SWAP4 SWAP3 SWAP2 SWAP1 PUSH2 0x4A4 JUMP JUMPDEST PUSH1 0x40 MLOAD DUP1 SWAP2 SUB SWAP1 LOG2 POP POP POP JUMP JUMPDEST PUSH0 DUP2 DUP1 MLOAD PUSH1 0x20 DUP2 ADD DUP3 ADD DUP1 MLOAD DUP5 DUP3 MSTORE PUSH1 0x20 DUP4 ADD PUSH1 0x20 DUP6 ADD KECCAK256 DUP2 DUP4 MSTORE DUP1 SWAP6 POP POP POP POP POP POP PUSH0 SWAP2 POP SLOAD SWAP1 PUSH2 0x100 EXP SWAP1 DIV PUSH1 0xFF AND DUP2 JUMP JUMPDEST PUSH0 PUSH1 0x40 MLOAD SWAP1 POP SWAP1 JUMP JUMPDEST PUSH0 DUP1 REVERT JUMPDEST PUSH0 DUP1 REVERT JUMPDEST PUSH0 DUP1 REVERT JUMPDEST PUSH0 DUP1 REVERT JUMPDEST PUSH0 DUP1 REVERT JUMPDEST PUSH0 DUP1 DUP4 PUSH1 0x1F DUP5 ADD SLT PUSH2 0x172 JUMPI PUSH2 0x171 PUSH2 0x151 JUMP JUMPDEST JUMPDEST DUP3 CALLDATALOAD SWAP1 POP PUSH8 0xFFFFFFFFFFFFFFFF DUP2 GT ISZERO PUSH2 0x18F JUMPI PUSH2 0x18E PUSH2 0x155 JUMP JUMPDEST JUMPDEST PUSH1 0x20 DUP4 ADD SWAP2 POP DUP4 PUSH1 0x1 DUP3 MUL DUP4 ADD GT ISZERO PUSH2 0x1AB JUMPI PUSH2 0x1AA PUSH2 0x159 JUMP JUMPDEST JUMPDEST SWAP3 POP SWAP3 SWAP1 POP JUMP JUMPDEST PUSH0 DUP1 PUSH1 0x20 DUP4 DUP6 SUB SLT ISZERO PUSH2 0x1C8 JUMPI PUSH2 0x1C7 PUSH2 0x149 JUMP JUMPDEST JUMPDEST PUSH0 DUP4 ADD CALLDATALOAD PUSH8 0xFFFFFFFFFFFFFFFF DUP2 GT ISZERO PUSH2 0x1E5 JUMPI PUSH2 0x1E4 PUSH2 0x14D JUMP JUMPDEST JUMPDEST PUSH2 0x1F1 DUP6 DUP3 DUP7 ADD PUSH2 0x15D JUMP JUMPDEST SWAP3 POP SWAP3 POP POP SWAP3 POP SWAP3 SWAP1 POP JUMP JUMPDEST PUSH0 DUP1 REVERT JUMPDEST PUSH0 PUSH1 0x1F NOT PUSH1 0x1F DUP4 ADD AND SWAP1 POP SWAP2 SWAP1 POP JUMP JUMPDEST PUSH32 0x4E487B7100000000000000000000000000000000000000000000000000000000 PUSH0 MSTORE PUSH1 0x41 PUSH1 0x4 MSTORE PUSH1 0x24 PUSH0 REVERT JUMPDEST PUSH2 0x247 DUP3 PUSH2 0x201 JUMP JUMPDEST DUP2 ADD DUP2 DUP2 LT PUSH8 0xFFFFFFFFFFFFFFFF DUP3 GT OR ISZERO PUSH2 0x266 JUMPI PUSH2 0x265 PUSH2 0x211 JUMP JUMPDEST JUMPDEST DUP1 PUSH1 0x40 MSTORE POP POP POP JUMP JUMPDEST PUSH0 PUSH2 0x278 PUSH2 0x140 JUMP JUMPDEST SWAP1 POP PUSH2 0x284 DUP3 DUP3 PUSH2 0x23E JUMP JUMPDEST SWAP2 SWAP1 POP JUMP JUMPDEST PUSH0 PUSH8 0xFFFFFFFFFFFFFFFF DUP3 GT ISZERO PUSH2 0x2A3 JUMPI PUSH2 0x2A2 PUSH2 0x211 JUMP JUMPDEST JUMPDEST PUSH2 0x2AC DUP3 PUSH2 0x201 JUMP JUMPDEST SWAP1 POP PUSH1 0x20 DUP2 ADD SWAP1 POP SWAP2 SWAP1 POP JUMP JUMPDEST DUP3 DUP2 DUP4 CALLDATACOPY PUSH0 DUP4 DUP4 ADD MSTORE POP POP POP JUMP JUMPDEST PUSH0 PUSH2 0x2D9 PUSH2 0x2D4 DUP5 PUSH2 0x289 JUMP JUMPDEST PUSH2 0x26F JUMP JUMPDEST SWAP1 POP DUP3 DUP2 MSTORE PUSH1 0x20 DUP2 ADD DUP5 DUP5 DUP5 ADD GT ISZERO PUSH2 0x2F5 JUMPI PUSH2 0x2F4 PUSH2 0x1FD JUMP JUMPDEST JUMPDEST PUSH2 0x300 DUP5 DUP3 DUP6 PUSH2 0x2B9 JUMP JUMPDEST POP SWAP4 SWAP3 POP POP POP JUMP JUMPDEST PUSH0 DUP3 PUSH1 0x1F DUP4 ADD SLT PUSH2 0x31C JUMPI PUSH2 0x31B PUSH2 0x151 JUMP JUMPDEST JUMPDEST DUP2 CALLDATALOAD PUSH2 0x32C DUP5 DUP3 PUSH1 0x20 DUP7 ADD PUSH2 0x2C7 JUMP JUMPDEST SWAP2 POP POP SWAP3 SWAP2 POP POP JUMP JUMPDEST PUSH0 PUSH1 0x20 DUP3 DUP5 SUB SLT ISZERO PUSH2 0x34A JUMPI PUSH2 0x349 PUSH2 0x149 JUMP JUMPDEST JUMPDEST PUSH0 DUP3 ADD CALLDATALOAD PUSH8 0xFFFFFFFFFFFFFFFF DUP2 GT ISZERO PUSH2 0x367 JUMPI PUSH2 0x366 PUSH2 0x14D JUMP JUMPDEST JUMPDEST PUSH2 0x373 DUP5 DUP3 DUP6 ADD PUSH2 0x308 JUMP JUMPDEST SWAP2 POP POP SWAP3 SWAP2 POP POP JUMP JUMPDEST PUSH0 DUP2 ISZERO ISZERO SWAP1 POP SWAP2 SWAP1 POP JUMP JUMPDEST PUSH2 0x390 DUP2 PUSH2 0x37C JUMP JUMPDEST DUP3 MSTORE POP POP JUMP JUMPDEST PUSH0 PUSH1 0x20 DUP3 ADD SWAP1 POP PUSH2 0x3A9 PUSH0 DUP4 ADD DUP5 PUSH2 0x387 JUMP JUMPDEST SWAP3 SWAP2 POP POP JUMP JUMPDEST PUSH0 DUP2 SWAP1 POP SWAP3 SWAP2 POP POP JUMP JUMPDEST PUSH0 PUSH2 0x3C4 DUP4 DUP6 PUSH2 0x3AF JUMP JUMPDEST SWAP4 POP PUSH2 0x3D1 DUP4 DUP6 DUP5 PUSH2 0x2B9 JUMP JUMPDEST DUP3 DUP5 ADD SWAP1 POP SWAP4 SWAP3 POP POP POP JUMP JUMPDEST PUSH0 PUSH2 0x3E9 DUP3 DUP5 DUP7 PUSH2 0x3B9 JUMP JUMPDEST SWAP2 POP DUP2 SWAP1 POP SWAP4 SWAP3 POP POP POP JUMP JUMPDEST PUSH0 DUP3 DUP3 MSTORE PUSH1 0x20 DUP3 ADD SWAP1 POP SWAP3 SWAP2 POP POP JUMP JUMPDEST PUSH0 PUSH2 0x410 DUP4 DUP6 PUSH2 0x3F5 JUMP JUMPDEST SWAP4 POP PUSH2 0x41D DUP4 DUP6 DUP5 PUSH2 0x2B9 JUMP JUMPDEST PUSH2 0x426 DUP4 PUSH2 0x201 JUMP JUMPDEST DUP5 ADD SWAP1 POP SWAP4 SWAP3 POP POP POP JUMP JUMPDEST PUSH32 0x4E487B7100000000000000000000000000000000000000000000000000000000 PUSH0 MSTORE PUSH1 0x21 PUSH1 0x4 MSTORE PUSH1 0x24 PUSH0 REVERT JUMPDEST PUSH1 0x2 DUP2 LT PUSH2 0x46F JUMPI PUSH2 0x46E PUSH2 0x431 JUMP JUMPDEST JUMPDEST POP JUMP JUMPDEST PUSH0 DUP2 SWAP1 POP PUSH2 0x47F DUP3 PUSH2 0x45E JUMP JUMPDEST SWAP2 SWAP1 POP JUMP JUMPDEST PUSH0 PUSH2 0x48E DUP3 PUSH2 0x472 JUMP JUMPDEST SWAP1 POP SWAP2 SWAP1 POP JUMP JUMPDEST PUSH2 0x49E DUP2 PUSH2 0x484 JUMP JUMPDEST DUP3 MSTORE POP POP JUMP JUMPDEST PUSH0 PUSH1 0x60 DUP3 ADD SWAP1 POP DUP2 DUP2 SUB PUSH0 DUP4 ADD MSTORE PUSH2 0x4BD DUP2 DUP7 DUP9 PUSH2 0x405 JUMP JUMPDEST SWAP1 POP PUSH2 0x4CC PUSH1 0x20 DUP4 ADD DUP6 PUSH2 0x387 JUMP JUMPDEST PUSH2 0x4D9 PUSH1 0x40 DUP4 ADD DUP5 PUSH2 0x495 JUMP JUMPDEST SWAP6 SWAP5 POP POP POP POP POP JUMP INVALID LOG2 PUSH5 0x6970667358 0x22 SLT KECCAK256 ORIGIN 0x2B AND 0xC4 LOG2 0xBF 0xC4 SWAP11 PUSH16 0xBF764F2618EA3F8EC8BDD5EEC6487C46 DUP9 0xDA PUSH10 0x7035D85764736F6C6343 STOP ADDMOD BYTE STOP CALLER "
				},
				"gasEstimates": {
					"creation": {
						"codeDepositCost": "260800",
						"executionCost": "infinite",
						"totalCost": "infinite"
					},
					"external": {
						"checkUser(string)": "infinite",
						"userExists(string)": "infinite"
					}
				},
				"methodIdentifiers": {
					"checkUser(string)": "1eb41b71",
					"userExists(string)": "fddc968e"
				}
			},
			"storageLayout": {
				"storage": [
					{
						"astId": 25,
						"contract": "A/AccountHarvesting/AccountHarvesting.sol:AccountHarvestVuln",
						"label": "userExists",
						"offset": 0,
						"slot": "0",
						"type": "t_mapping(t_string_memory_ptr,t_bool)"
					}
				],
				"types": {
					"t_bool": {
						"encoding": "inplace",
						"label": "bool",
						"numberOfBytes": "1"
					},
					"t_mapping(t_string_memory_ptr,t_bool)": {
						"encoding": "mapping",
						"key": "t_string_memory_ptr",
						"label": "mapping(string => bool)",
						"numberOfBytes": "32",
						"value": "t_bool"
					},
					"t_string_memory_ptr": {
						"encoding": "bytes",
						"label": "string",
						"numberOfBytes": "32"
					}
				}
			},
			"userdoc": {
				"kind": "user",
				"methods": {
					"checkUser(string)": {
						"notice": "❌ no rate-limit or uniformity: returns true/false directly"
					}
				},
				"version": 1
			}
		}
	}
}