{
	"data": {
		"bytecode": {
			"linkReferences": {},
			"object": "6080604052348015600e575f80fd5b50335f806101000a81548173ffffffffffffffffffffffffffffffffffffffff021916908373ffffffffffffffffffffffffffffffffffffffff160217905550610aa88061005b5f395ff3fe608060405260043610610042575f3560e01c806316e1d2e91461004d57806320800a0014610075578063813971cd1461008b578063f77c4791146100c757610049565b3661004957005b5f80fd5b348015610058575f80fd5b50610073600480360381019061006e919061066f565b6100f1565b005b348015610080575f80fd5b506100896104d6565b005b348015610096575f80fd5b506100b160048036038101906100ac91906106ad565b6105c8565b6040516100be91906106f2565b60405180910390f35b3480156100d2575f80fd5b506100db6105e5565b6040516100e8919061071a565b60405180910390f35b5f8054906101000a900473ffffffffffffffffffffffffffffffffffffffff1673ffffffffffffffffffffffffffffffffffffffff163373ffffffffffffffffffffffffffffffffffffffff161461017e576040517f08c379a00000000000000000000000000000000000000000000000000000000081526004016101759061078d565b60405180910390fd5b60015f8373ffffffffffffffffffffffffffffffffffffffff1673ffffffffffffffffffffffffffffffffffffffff1681526020019081526020015f205f9054906101000a900460ff1615610208576040517f08c379a00000000000000000000000000000000000000000000000000000000081526004016101ff906107f5565b60405180910390fd5b6001805f8473ffffffffffffffffffffffffffffffffffffffff1673ffffffffffffffffffffffffffffffffffffffff1681526020019081526020015f205f6101000a81548160ff0219169083151502179055508173ffffffffffffffffffffffffffffffffffffffff1663095ea7b382670de0b6b3a76400006040518363ffffffff1660e01b815260040161029f92919061085e565b6020604051808303815f875af19250505080156102da57506040513d601f19601f820116820180604052508101906102d791906108af565b60015b610368576102e66108e6565b806308c379a00361035957506102fa610973565b80610305575061035b565b8273ffffffffffffffffffffffffffffffffffffffff167f7dcfa13baf730bfed54b93bc6c60318c9d12dec8cf83d9c40a73760157a956948260405161034b9190610a52565b60405180910390a250610363565b505b3d5f803e3d5ffd5b6103c4565b508073ffffffffffffffffffffffffffffffffffffffff168273ffffffffffffffffffffffffffffffffffffffff167f07b7a9ac5c25510597f1aacc7837ddb354bc9a5bda70f6bd23f41f6fd68f265d60405160405180910390a35b8173ffffffffffffffffffffffffffffffffffffffff1663a9059cbb82670de0b6b3a76400006040518363ffffffff1660e01b815260040161040792919061085e565b6020604051808303815f875af192505050801561044257506040513d601f19601f8201168201806040525081019061043f91906108af565b60015b6104d05761044e6108e6565b806308c379a0036104c15750610462610973565b8061046d57506104c3565b8273ffffffffffffffffffffffffffffffffffffffff167f9a11d71da2d3883fbdd85c000ef5dc40e2cf4497948ef04a9b374161120264ac826040516104b39190610a52565b60405180910390a2506104cb565b505b3d5f803e3d5ffd5b6104d2565b505b5050565b5f8054906101000a900473ffffffffffffffffffffffffffffffffffffffff1673ffffffffffffffffffffffffffffffffffffffff163373ffffffffffffffffffffffffffffffffffffffff1614610563576040517f08c379a000000000000000000000000000000000000000000000000000000000815260040161055a9061078d565b60405180910390fd5b5f8054906101000a900473ffffffffffffffffffffffffffffffffffffffff1673ffffffffffffffffffffffffffffffffffffffff166108fc4790811502906040515f60405180830381858888f193505050501580156105c5573d5f803e3d5ffd5b50565b6001602052805f5260405f205f915054906101000a900460ff1681565b5f8054906101000a900473ffffffffffffffffffffffffffffffffffffffff1681565b5f604051905090565b5f80fd5b5f73ffffffffffffffffffffffffffffffffffffffff82169050919050565b5f61063e82610615565b9050919050565b61064e81610634565b8114610658575f80fd5b50565b5f8135905061066981610645565b92915050565b5f806040838503121561068557610684610611565b5b5f6106928582860161065b565b92505060206106a38582860161065b565b9150509250929050565b5f602082840312156106c2576106c1610611565b5b5f6106cf8482850161065b565b91505092915050565b5f8115159050919050565b6106ec816106d8565b82525050565b5f6020820190506107055f8301846106e3565b92915050565b61071481610634565b82525050565b5f60208201905061072d5f83018461070b565b92915050565b5f82825260208201905092915050565b7f4e6f7420636f6e74726f6c6c65720000000000000000000000000000000000005f82015250565b5f610777600e83610733565b915061078282610743565b602082019050919050565b5f6020820190508181035f8301526107a48161076b565b9050919050565b7f416c7265616479207465737465640000000000000000000000000000000000005f82015250565b5f6107df600e83610733565b91506107ea826107ab565b602082019050919050565b5f6020820190508181035f83015261080c816107d3565b9050919050565b5f819050919050565b5f819050919050565b5f819050919050565b5f61084861084361083e84610813565b610825565b61081c565b9050919050565b6108588161082e565b82525050565b5f6040820190506108715f83018561070b565b61087e602083018461084f565b9392505050565b61088e816106d8565b8114610898575f80fd5b50565b5f815190506108a981610885565b92915050565b5f602082840312156108c4576108c3610611565b5b5f6108d18482850161089b565b91505092915050565b5f8160e01c9050919050565b5f60033d11156109025760045f803e6108ff5f516108da565b90505b90565b5f601f19601f8301169050919050565b7f4e487b71000000000000000000000000000000000000000000000000000000005f52604160045260245ffd5b61094b82610905565b810181811067ffffffffffffffff8211171561096a57610969610915565b5b80604052505050565b5f60443d106109ff57610984610608565b60043d036004823e80513d602482011167ffffffffffffffff821117156109ac5750506109ff565b808201805167ffffffffffffffff8111156109ca57505050506109ff565b80602083010160043d0385018111156109e75750505050506109ff565b6109f682602001850186610942565b82955050505050505b90565b5f81519050919050565b8281835e5f83830152505050565b5f610a2482610a02565b610a2e8185610733565b9350610a3e818560208601610a0c565b610a4781610905565b840191505092915050565b5f6020820190508181035f830152610a6a8184610a1a565b90509291505056fea26469706673582212202f8539e1b224f13b29a23c82d0e677470356aedc286d352643662e5144f17ec764736f6c634300081a0033",
			"opcodes": "PUSH1 0x80 PUSH1 0x40 MSTORE CALLVALUE DUP1 ISZERO PUSH1 0xE JUMPI PUSH0 DUP1 REVERT JUMPDEST POP CALLER PUSH0 DUP1 PUSH2 0x100 EXP DUP2 SLOAD DUP2 PUSH20 0xFFFFFFFFFFFFFFFFFFFFFFFFFFFFFFFFFFFFFFFF MUL NOT AND SWAP1 DUP4 PUSH20 0xFFFFFFFFFFFFFFFFFFFFFFFFFFFFFFFFFFFFFFFF AND MUL OR SWAP1 SSTORE POP PUSH2 0xAA8 DUP1 PUSH2 0x5B PUSH0 CODECOPY PUSH0 RETURN INVALID PUSH1 0x80 PUSH1 0x40 MSTORE PUSH1 0x4 CALLDATASIZE LT PUSH2 0x42 JUMPI PUSH0 CALLDATALOAD PUSH1 0xE0 SHR DUP1 PUSH4 0x16E1D2E9 EQ PUSH2 0x4D JUMPI DUP1 PUSH4 0x20800A00 EQ PUSH2 0x75 JUMPI DUP1 PUSH4 0x813971CD EQ PUSH2 0x8B JUMPI DUP1 PUSH4 0xF77C4791 EQ PUSH2 0xC7 JUMPI PUSH2 0x49 JUMP JUMPDEST CALLDATASIZE PUSH2 0x49 JUMPI STOP JUMPDEST PUSH0 DUP1 REVERT JUMPDEST CALLVALUE DUP1 ISZERO PUSH2 0x58 JUMPI PUSH0 DUP1 REVERT JUMPDEST POP PUSH2 0x73 PUSH1 0x4 DUP1 CALLDATASIZE SUB DUP2 ADD SWAP1 PUSH2 0x6E SWAP2 SWAP1 PUSH2 0x66F JUMP JUMPDEST PUSH2 0xF1 JUMP JUMPDEST STOP JUMPDEST CALLVALUE DUP1 ISZERO PUSH2 0x80 JUMPI PUSH0 DUP1 REVERT JUMPDEST POP PUSH2 0x89 PUSH2 0x4D6 JUMP JUMPDEST STOP JUMPDEST CALLVALUE DUP1 ISZERO PUSH2 0x96 JUMPI PUSH0 DUP1 REVERT JUMPDEST POP PUSH2 0xB1 PUSH1 0x4 DUP1 CALLDATASIZE SUB DUP2 ADD SWAP1 PUSH2 0xAC SWAP2 SWAP1 PUSH2 0x6AD JUMP JUMPDEST PUSH2 0x5C8 JUMP JUMPDEST PUSH1 0x40 MLOAD PUSH2 0xBE SWAP2 SWAP1 PUSH2 0x6F2 JUMP JUMPDEST PUSH1 0x40 MLOAD DUP1 SWAP2 SUB SWAP1 RETURN JUMPDEST CALLVALUE DUP1 ISZERO PUSH2 0xD2 JUMPI PUSH0 DUP1 REVERT JUMPDEST POP PUSH2 0xDB PUSH2 0x5E5 JUMP JUMPDEST PUSH1 0x40 MLOAD PUSH2 0xE8 SWAP2 SWAP1 PUSH2 0x71A JUMP JUMPDEST PUSH1 0x40 MLOAD DUP1 SWAP2 SUB SWAP1 RETURN JUMPDEST PUSH0 DUP1 SLOAD SWAP1 PUSH2 0x100 EXP SWAP1 DIV PUSH20 0xFFFFFFFFFFFFFFFFFFFFFFFFFFFFFFFFFFFFFFFF AND PUSH20 0xFFFFFFFFFFFFFFFFFFFFFFFFFFFFFFFFFFFFFFFF AND CALLER PUSH20 0xFFFFFFFFFFFFFFFFFFFFFFFFFFFFFFFFFFFFFFFF AND EQ PUSH2 0x17E JUMPI PUSH1 0x40 MLOAD PUSH32 0x8C379A000000000000000000000000000000000000000000000000000000000 DUP2 MSTORE PUSH1 0x4 ADD PUSH2 0x175 SWAP1 PUSH2 0x78D JUMP JUMPDEST PUSH1 0x40 MLOAD DUP1 SWAP2 SUB SWAP1 REVERT JUMPDEST PUSH1 0x1 PUSH0 DUP4 PUSH20 0xFFFFFFFFFFFFFFFFFFFFFFFFFFFFFFFFFFFFFFFF AND PUSH20 0xFFFFFFFFFFFFFFFFFFFFFFFFFFFFFFFFFFFFFFFF AND DUP2 MSTORE PUSH1 0x20 ADD SWAP1 DUP2 MSTORE PUSH1 0x20 ADD PUSH0 KECCAK256 PUSH0 SWAP1 SLOAD SWAP1 PUSH2 0x100 EXP SWAP1 DIV PUSH1 0xFF AND ISZERO PUSH2 0x208 JUMPI PUSH1 0x40 MLOAD PUSH32 0x8C379A000000000000000000000000000000000000000000000000000000000 DUP2 MSTORE PUSH1 0x4 ADD PUSH2 0x1FF SWAP1 PUSH2 0x7F5 JUMP JUMPDEST PUSH1 0x40 MLOAD DUP1 SWAP2 SUB SWAP1 REVERT JUMPDEST PUSH1 0x1 DUP1 PUSH0 DUP5 PUSH20 0xFFFFFFFFFFFFFFFFFFFFFFFFFFFFFFFFFFFFFFFF AND PUSH20 0xFFFFFFFFFFFFFFFFFFFFFFFFFFFFFFFFFFFFFFFF AND DUP2 MSTORE PUSH1 0x20 ADD SWAP1 DUP2 MSTORE PUSH1 0x20 ADD PUSH0 KECCAK256 PUSH0 PUSH2 0x100 EXP DUP2 SLOAD DUP2 PUSH1 0xFF MUL NOT AND SWAP1 DUP4 ISZERO ISZERO MUL OR SWAP1 SSTORE POP DUP2 PUSH20 0xFFFFFFFFFFFFFFFFFFFFFFFFFFFFFFFFFFFFFFFF AND PUSH4 0x95EA7B3 DUP3 PUSH8 0xDE0B6B3A7640000 PUSH1 0x40 MLOAD DUP4 PUSH4 0xFFFFFFFF AND PUSH1 0xE0 SHL DUP2 MSTORE PUSH1 0x4 ADD PUSH2 0x29F SWAP3 SWAP2 SWAP1 PUSH2 0x85E JUMP JUMPDEST PUSH1 0x20 PUSH1 0x40 MLOAD DUP1 DUP4 SUB DUP2 PUSH0 DUP8 GAS CALL SWAP3 POP POP POP DUP1 ISZERO PUSH2 0x2DA JUMPI POP PUSH1 0x40 MLOAD RETURNDATASIZE PUSH1 0x1F NOT PUSH1 0x1F DUP3 ADD AND DUP3 ADD DUP1 PUSH1 0x40 MSTORE POP DUP2 ADD SWAP1 PUSH2 0x2D7 SWAP2 SWAP1 PUSH2 0x8AF JUMP JUMPDEST PUSH1 0x1 JUMPDEST PUSH2 0x368 JUMPI PUSH2 0x2E6 PUSH2 0x8E6 JUMP JUMPDEST DUP1 PUSH4 0x8C379A0 SUB PUSH2 0x359 JUMPI POP PUSH2 0x2FA PUSH2 0x973 JUMP JUMPDEST DUP1 PUSH2 0x305 JUMPI POP PUSH2 0x35B JUMP JUMPDEST DUP3 PUSH20 0xFFFFFFFFFFFFFFFFFFFFFFFFFFFFFFFFFFFFFFFF AND PUSH32 0x7DCFA13BAF730BFED54B93BC6C60318C9D12DEC8CF83D9C40A73760157A95694 DUP3 PUSH1 0x40 MLOAD PUSH2 0x34B SWAP2 SWAP1 PUSH2 0xA52 JUMP JUMPDEST PUSH1 0x40 MLOAD DUP1 SWAP2 SUB SWAP1 LOG2 POP PUSH2 0x363 JUMP JUMPDEST POP JUMPDEST RETURNDATASIZE PUSH0 DUP1 RETURNDATACOPY RETURNDATASIZE PUSH0 REVERT JUMPDEST PUSH2 0x3C4 JUMP JUMPDEST POP DUP1 PUSH20 0xFFFFFFFFFFFFFFFFFFFFFFFFFFFFFFFFFFFFFFFF AND DUP3 PUSH20 0xFFFFFFFFFFFFFFFFFFFFFFFFFFFFFFFFFFFFFFFF AND PUSH32 0x7B7A9AC5C25510597F1AACC7837DDB354BC9A5BDA70F6BD23F41F6FD68F265D PUSH1 0x40 MLOAD PUSH1 0x40 MLOAD DUP1 SWAP2 SUB SWAP1 LOG3 JUMPDEST DUP2 PUSH20 0xFFFFFFFFFFFFFFFFFFFFFFFFFFFFFFFFFFFFFFFF AND PUSH4 0xA9059CBB DUP3 PUSH8 0xDE0B6B3A7640000 PUSH1 0x40 MLOAD DUP4 PUSH4 0xFFFFFFFF AND PUSH1 0xE0 SHL DUP2 MSTORE PUSH1 0x4 ADD PUSH2 0x407 SWAP3 SWAP2 SWAP1 PUSH2 0x85E JUMP JUMPDEST PUSH1 0x20 PUSH1 0x40 MLOAD DUP1 DUP4 SUB DUP2 PUSH0 DUP8 GAS CALL SWAP3 POP POP POP DUP1 ISZERO PUSH2 0x442 JUMPI POP PUSH1 0x40 MLOAD RETURNDATASIZE PUSH1 0x1F NOT PUSH1 0x1F DUP3 ADD AND DUP3 ADD DUP1 PUSH1 0x40 MSTORE POP DUP2 ADD SWAP1 PUSH2 0x43F SWAP2 SWAP1 PUSH2 0x8AF JUMP JUMPDEST PUSH1 0x1 JUMPDEST PUSH2 0x4D0 JUMPI PUSH2 0x44E PUSH2 0x8E6 JUMP JUMPDEST DUP1 PUSH4 0x8C379A0 SUB PUSH2 0x4C1 JUMPI POP PUSH2 0x462 PUSH2 0x973 JUMP JUMPDEST DUP1 PUSH2 0x46D JUMPI POP PUSH2 0x4C3 JUMP JUMPDEST DUP3 PUSH20 0xFFFFFFFFFFFFFFFFFFFFFFFFFFFFFFFFFFFFFFFF AND PUSH32 0x9A11D71DA2D3883FBDD85C000EF5DC40E2CF4497948EF04A9B374161120264AC DUP3 PUSH1 0x40 MLOAD PUSH2 0x4B3 SWAP2 SWAP1 PUSH2 0xA52 JUMP JUMPDEST PUSH1 0x40 MLOAD DUP1 SWAP2 SUB SWAP1 LOG2 POP PUSH2 0x4CB JUMP JUMPDEST POP JUMPDEST RETURNDATASIZE PUSH0 DUP1 RETURNDATACOPY RETURNDATASIZE PUSH0 REVERT JUMPDEST PUSH2 0x4D2 JUMP JUMPDEST POP JUMPDEST POP POP JUMP JUMPDEST PUSH0 DUP1 SLOAD SWAP1 PUSH2 0x100 EXP SWAP1 DIV PUSH20 0xFFFFFFFFFFFFFFFFFFFFFFFFFFFFFFFFFFFFFFFF AND PUSH20 0xFFFFFFFFFFFFFFFFFFFFFFFFFFFFFFFFFFFFFFFF AND CALLER PUSH20 0xFFFFFFFFFFFFFFFFFFFFFFFFFFFFFFFFFFFFFFFF AND EQ PUSH2 0x563 JUMPI PUSH1 0x40 MLOAD PUSH32 0x8C379A000000000000000000000000000000000000000000000000000000000 DUP2 MSTORE PUSH1 0x4 ADD PUSH2 0x55A SWAP1 PUSH2 0x78D JUMP JUMPDEST PUSH1 0x40 MLOAD DUP1 SWAP2 SUB SWAP1 REVERT JUMPDEST PUSH0 DUP1 SLOAD SWAP1 PUSH2 0x100 EXP SWAP1 DIV PUSH20 0xFFFFFFFFFFFFFFFFFFFFFFFFFFFFFFFFFFFFFFFF AND PUSH20 0xFFFFFFFFFFFFFFFFFFFFFFFFFFFFFFFFFFFFFFFF AND PUSH2 0x8FC SELFBALANCE SWAP1 DUP2 ISZERO MUL SWAP1 PUSH1 0x40 MLOAD PUSH0 PUSH1 0x40 MLOAD DUP1 DUP4 SUB DUP2 DUP6 DUP9 DUP9 CALL SWAP4 POP POP POP POP ISZERO DUP1 ISZERO PUSH2 0x5C5 JUMPI RETURNDATASIZE PUSH0 DUP1 RETURNDATACOPY RETURNDATASIZE PUSH0 REVERT JUMPDEST POP JUMP JUMPDEST PUSH1 0x1 PUSH1 0x20 MSTORE DUP1 PUSH0 MSTORE PUSH1 0x40 PUSH0 KECCAK256 PUSH0 SWAP2 POP SLOAD SWAP1 PUSH2 0x100 EXP SWAP1 DIV PUSH1 0xFF AND DUP2 JUMP JUMPDEST PUSH0 DUP1 SLOAD SWAP1 PUSH2 0x100 EXP SWAP1 DIV PUSH20 0xFFFFFFFFFFFFFFFFFFFFFFFFFFFFFFFFFFFFFFFF AND DUP2 JUMP JUMPDEST PUSH0 PUSH1 0x40 MLOAD SWAP1 POP SWAP1 JUMP JUMPDEST PUSH0 DUP1 REVERT JUMPDEST PUSH0 PUSH20 0xFFFFFFFFFFFFFFFFFFFFFFFFFFFFFFFFFFFFFFFF DUP3 AND SWAP1 POP SWAP2 SWAP1 POP JUMP JUMPDEST PUSH0 PUSH2 0x63E DUP3 PUSH2 0x615 JUMP JUMPDEST SWAP1 POP SWAP2 SWAP1 POP JUMP JUMPDEST PUSH2 0x64E DUP2 PUSH2 0x634 JUMP JUMPDEST DUP2 EQ PUSH2 0x658 JUMPI PUSH0 DUP1 REVERT JUMPDEST POP JUMP JUMPDEST PUSH0 DUP2 CALLDATALOAD SWAP1 POP PUSH2 0x669 DUP2 PUSH2 0x645 JUMP JUMPDEST SWAP3 SWAP2 POP POP JUMP JUMPDEST PUSH0 DUP1 PUSH1 0x40 DUP4 DUP6 SUB SLT ISZERO PUSH2 0x685 JUMPI PUSH2 0x684 PUSH2 0x611 JUMP JUMPDEST JUMPDEST PUSH0 PUSH2 0x692 DUP6 DUP3 DUP7 ADD PUSH2 0x65B JUMP JUMPDEST SWAP3 POP POP PUSH1 0x20 PUSH2 0x6A3 DUP6 DUP3 DUP7 ADD PUSH2 0x65B JUMP JUMPDEST SWAP2 POP POP SWAP3 POP SWAP3 SWAP1 POP JUMP JUMPDEST PUSH0 PUSH1 0x20 DUP3 DUP5 SUB SLT ISZERO PUSH2 0x6C2 JUMPI PUSH2 0x6C1 PUSH2 0x611 JUMP JUMPDEST JUMPDEST PUSH0 PUSH2 0x6CF DUP5 DUP3 DUP6 ADD PUSH2 0x65B JUMP JUMPDEST SWAP2 POP POP SWAP3 SWAP2 POP POP JUMP JUMPDEST PUSH0 DUP2 ISZERO ISZERO SWAP1 POP SWAP2 SWAP1 POP JUMP JUMPDEST PUSH2 0x6EC DUP2 PUSH2 0x6D8 JUMP JUMPDEST DUP3 MSTORE POP POP JUMP JUMPDEST PUSH0 PUSH1 0x20 DUP3 ADD SWAP1 POP PUSH2 0x705 PUSH0 DUP4 ADD DUP5 PUSH2 0x6E3 JUMP JUMPDEST SWAP3 SWAP2 POP POP JUMP JUMPDEST PUSH2 0x714 DUP2 PUSH2 0x634 JUMP JUMPDEST DUP3 MSTORE POP POP JUMP JUMPDEST PUSH0 PUSH1 0x20 DUP3 ADD SWAP1 POP PUSH2 0x72D PUSH0 DUP4 ADD DUP5 PUSH2 0x70B JUMP JUMPDEST SWAP3 SWAP2 POP POP JUMP JUMPDEST PUSH0 DUP3 DUP3 MSTORE PUSH1 0x20 DUP3 ADD SWAP1 POP SWAP3 SWAP2 POP POP JUMP JUMPDEST PUSH32 0x4E6F7420636F6E74726F6C6C6572000000000000000000000000000000000000 PUSH0 DUP3 ADD MSTORE POP JUMP JUMPDEST PUSH0 PUSH2 0x777 PUSH1 0xE DUP4 PUSH2 0x733 JUMP JUMPDEST SWAP2 POP PUSH2 0x782 DUP3 PUSH2 0x743 JUMP JUMPDEST PUSH1 0x20 DUP3 ADD SWAP1 POP SWAP2 SWAP1 POP JUMP JUMPDEST PUSH0 PUSH1 0x20 DUP3 ADD SWAP1 POP DUP2 DUP2 SUB PUSH0 DUP4 ADD MSTORE PUSH2 0x7A4 DUP2 PUSH2 0x76B JUMP JUMPDEST SWAP1 POP SWAP2 SWAP1 POP JUMP JUMPDEST PUSH32 0x416C726561647920746573746564000000000000000000000000000000000000 PUSH0 DUP3 ADD MSTORE POP JUMP JUMPDEST PUSH0 PUSH2 0x7DF PUSH1 0xE DUP4 PUSH2 0x733 JUMP JUMPDEST SWAP2 POP PUSH2 0x7EA DUP3 PUSH2 0x7AB JUMP JUMPDEST PUSH1 0x20 DUP3 ADD SWAP1 POP SWAP2 SWAP1 POP JUMP JUMPDEST PUSH0 PUSH1 0x20 DUP3 ADD SWAP1 POP DUP2 DUP2 SUB PUSH0 DUP4 ADD MSTORE PUSH2 0x80C DUP2 PUSH2 0x7D3 JUMP JUMPDEST SWAP1 POP SWAP2 SWAP1 POP JUMP JUMPDEST PUSH0 DUP2 SWAP1 POP SWAP2 SWAP1 POP JUMP JUMPDEST PUSH0 DUP2 SWAP1 POP SWAP2 SWAP1 POP JUMP JUMPDEST PUSH0 DUP2 SWAP1 POP SWAP2 SWAP1 POP JUMP JUMPDEST PUSH0 PUSH2 0x848 PUSH2 0x843 PUSH2 0x83E DUP5 PUSH2 0x813 JUMP JUMPDEST PUSH2 0x825 JUMP JUMPDEST PUSH2 0x81C JUMP JUMPDEST SWAP1 POP SWAP2 SWAP1 POP JUMP JUMPDEST PUSH2 0x858 DUP2 PUSH2 0x82E JUMP JUMPDEST DUP3 MSTORE POP POP JUMP JUMPDEST PUSH0 PUSH1 0x40 DUP3 ADD SWAP1 POP PUSH2 0x871 PUSH0 DUP4 ADD DUP6 PUSH2 0x70B JUMP JUMPDEST PUSH2 0x87E PUSH1 0x20 DUP4 ADD DUP5 PUSH2 0x84F JUMP JUMPDEST SWAP4 SWAP3 POP POP POP JUMP JUMPDEST PUSH2 0x88E DUP2 PUSH2 0x6D8 JUMP JUMPDEST DUP2 EQ PUSH2 0x898 JUMPI PUSH0 DUP1 REVERT JUMPDEST POP JUMP JUMPDEST PUSH0 DUP2 MLOAD SWAP1 POP PUSH2 0x8A9 DUP2 PUSH2 0x885 JUMP JUMPDEST SWAP3 SWAP2 POP POP JUMP JUMPDEST PUSH0 PUSH1 0x20 DUP3 DUP5 SUB SLT ISZERO PUSH2 0x8C4 JUMPI PUSH2 0x8C3 PUSH2 0x611 JUMP JUMPDEST JUMPDEST PUSH0 PUSH2 0x8D1 DUP5 DUP3 DUP6 ADD PUSH2 0x89B JUMP JUMPDEST SWAP2 POP POP SWAP3 SWAP2 POP POP JUMP JUMPDEST PUSH0 DUP2 PUSH1 0xE0 SHR SWAP1 POP SWAP2 SWAP1 POP JUMP JUMPDEST PUSH0 PUSH1 0x3 RETURNDATASIZE GT ISZERO PUSH2 0x902 JUMPI PUSH1 0x4 PUSH0 DUP1 RETURNDATACOPY PUSH2 0x8FF PUSH0 MLOAD PUSH2 0x8DA JUMP JUMPDEST SWAP1 POP JUMPDEST SWAP1 JUMP JUMPDEST PUSH0 PUSH1 0x1F NOT PUSH1 0x1F DUP4 ADD AND SWAP1 POP SWAP2 SWAP1 POP JUMP JUMPDEST PUSH32 0x4E487B7100000000000000000000000000000000000000000000000000000000 PUSH0 MSTORE PUSH1 0x41 PUSH1 0x4 MSTORE PUSH1 0x24 PUSH0 REVERT JUMPDEST PUSH2 0x94B DUP3 PUSH2 0x905 JUMP JUMPDEST DUP2 ADD DUP2 DUP2 LT PUSH8 0xFFFFFFFFFFFFFFFF DUP3 GT OR ISZERO PUSH2 0x96A JUMPI PUSH2 0x969 PUSH2 0x915 JUMP JUMPDEST JUMPDEST DUP1 PUSH1 0x40 MSTORE POP POP POP JUMP JUMPDEST PUSH0 PUSH1 0x44 RETURNDATASIZE LT PUSH2 0x9FF JUMPI PUSH2 0x984 PUSH2 0x608 JUMP JUMPDEST PUSH1 0x4 RETURNDATASIZE SUB PUSH1 0x4 DUP3 RETURNDATACOPY DUP1 MLOAD RETURNDATASIZE PUSH1 0x24 DUP3 ADD GT PUSH8 0xFFFFFFFFFFFFFFFF DUP3 GT OR ISZERO PUSH2 0x9AC JUMPI POP POP PUSH2 0x9FF JUMP JUMPDEST DUP1 DUP3 ADD DUP1 MLOAD PUSH8 0xFFFFFFFFFFFFFFFF DUP2 GT ISZERO PUSH2 0x9CA JUMPI POP POP POP POP PUSH2 0x9FF JUMP JUMPDEST DUP1 PUSH1 0x20 DUP4 ADD ADD PUSH1 0x4 RETURNDATASIZE SUB DUP6 ADD DUP2 GT ISZERO PUSH2 0x9E7 JUMPI POP POP POP POP POP PUSH2 0x9FF JUMP JUMPDEST PUSH2 0x9F6 DUP3 PUSH1 0x20 ADD DUP6 ADD DUP7 PUSH2 0x942 JUMP JUMPDEST DUP3 SWAP6 POP POP POP POP POP POP JUMPDEST SWAP1 JUMP JUMPDEST PUSH0 DUP2 MLOAD SWAP1 POP SWAP2 SWAP1 POP JUMP JUMPDEST DUP3 DUP2 DUP4 MCOPY PUSH0 DUP4 DUP4 ADD MSTORE POP POP POP JUMP JUMPDEST PUSH0 PUSH2 0xA24 DUP3 PUSH2 0xA02 JUMP JUMPDEST PUSH2 0xA2E DUP2 DUP6 PUSH2 0x733 JUMP JUMPDEST SWAP4 POP PUSH2 0xA3E DUP2 DUP6 PUSH1 0x20 DUP7 ADD PUSH2 0xA0C JUMP JUMPDEST PUSH2 0xA47 DUP2 PUSH2 0x905 JUMP JUMPDEST DUP5 ADD SWAP2 POP POP SWAP3 SWAP2 POP POP JUMP JUMPDEST PUSH0 PUSH1 0x20 DUP3 ADD SWAP1 POP DUP2 DUP2 SUB PUSH0 DUP4 ADD MSTORE PUSH2 0xA6A DUP2 DUP5 PUSH2 0xA1A JUMP JUMPDEST SWAP1 POP SWAP3 SWAP2 POP POP JUMP INVALID LOG2 PUSH5 0x6970667358 0x22 SLT KECCAK256 0x2F DUP6 CODECOPY 0xE1 0xB2 0x24 CALL EXTCODESIZE 0x29 LOG2 EXTCODECOPY DUP3 0xD0 0xE6 PUSH24 0x470356AEDC286D352643662E5144F17EC764736F6C634300 ADDMOD BYTE STOP CALLER "
		},
		"gasEstimates": {
			"creation": {
				"codeDepositCost": "545600",
				"executionCost": "24844",
				"totalCost": "570444"
			},
			"external": {
				"controller()": "2549",
				"rescueETH()": "infinite",
				"testToken(address,address)": "infinite",
				"tested(address)": "2855"
			}
		},
		"methodIdentifiers": {
			"controller()": "f77c4791",
			"rescueETH()": "20800a00",
			"testToken(address,address)": "16e1d2e9",
			"tested(address)": "813971cd"
		}
	},
	"abi": [
		{
			"inputs": [],
			"stateMutability": "nonpayable",
			"type": "constructor"
		},
		{
			"anonymous": false,
			"inputs": [
				{
					"indexed": true,
					"internalType": "address",
					"name": "token",
					"type": "address"
				},
				{
					"indexed": false,
					"internalType": "string",
					"name": "reason",
					"type": "string"
				}
			],
			"name": "ApproveFailed",
			"type": "event"
		},
		{
			"anonymous": false,
			"inputs": [
				{
					"indexed": true,
					"internalType": "address",
					"name": "token",
					"type": "address"
				},
				{
					"indexed": true,
					"internalType": "address",
					"name": "target",
					"type": "address"
				}
			],
			"name": "ApproveSucceeded",
			"type": "event"
		},
		{
			"anonymous": false,
			"inputs": [
				{
					"indexed": true,
					"internalType": "address",
					"name": "token",
					"type": "address"
				},
				{
					"indexed": false,
					"internalType": "string",
					"name": "reason",
					"type": "string"
				}
			],
			"name": "TransferFailed",
			"type": "event"
		},
		{
			"inputs": [],
			"name": "controller",
			"outputs": [
				{
					"internalType": "address",
					"name": "",
					"type": "address"
				}
			],
			"stateMutability": "view",
			"type": "function"
		},
		{
			"inputs": [],
			"name": "rescueETH",
			"outputs": [],
			"stateMutability": "nonpayable",
			"type": "function"
		},
		{
			"inputs": [
				{
					"internalType": "address",
					"name": "token",
					"type": "address"
				},
				{
					"internalType": "address",
					"name": "target",
					"type": "address"
				}
			],
			"name": "testToken",
			"outputs": [],
			"stateMutability": "nonpayable",
			"type": "function"
		},
		{
			"inputs": [
				{
					"internalType": "address",
					"name": "",
					"type": "address"
				}
			],
			"name": "tested",
			"outputs": [
				{
					"internalType": "bool",
					"name": "",
					"type": "bool"
				}
			],
			"stateMutability": "view",
			"type": "function"
		},
		{
			"stateMutability": "payable",
			"type": "receive"
		}
	]
}