{
	"H/Header/EIP-712 Header Struct (Typed Message).sol": {
		"EIP712HeaderVerify": {
			"abi": [
				{
					"inputs": [],
					"name": "ECDSAInvalidSignature",
					"type": "error"
				},
				{
					"inputs": [
						{
							"internalType": "uint256",
							"name": "length",
							"type": "uint256"
						}
					],
					"name": "ECDSAInvalidSignatureLength",
					"type": "error"
				},
				{
					"inputs": [
						{
							"internalType": "bytes32",
							"name": "s",
							"type": "bytes32"
						}
					],
					"name": "ECDSAInvalidSignatureS",
					"type": "error"
				},
				{
					"inputs": [],
					"name": "DOMAIN_HASH",
					"outputs": [
						{
							"internalType": "bytes32",
							"name": "",
							"type": "bytes32"
						}
					],
					"stateMutability": "view",
					"type": "function"
				},
				{
					"inputs": [
						{
							"components": [
								{
									"internalType": "address",
									"name": "from",
									"type": "address"
								},
								{
									"internalType": "uint256",
									"name": "nonce",
									"type": "uint256"
								},
								{
									"internalType": "uint256",
									"name": "deadline",
									"type": "uint256"
								}
							],
							"internalType": "struct EIP712HeaderVerify.Header",
							"name": "header",
							"type": "tuple"
						},
						{
							"internalType": "bytes",
							"name": "sig",
							"type": "bytes"
						}
					],
					"name": "verify",
					"outputs": [
						{
							"internalType": "bool",
							"name": "",
							"type": "bool"
						}
					],
					"stateMutability": "view",
					"type": "function"
				}
			],
			"devdoc": {
				"errors": {
					"ECDSAInvalidSignature()": [
						{
							"details": "The signature derives the `address(0)`."
						}
					],
					"ECDSAInvalidSignatureLength(uint256)": [
						{
							"details": "The signature has an invalid length."
						}
					],
					"ECDSAInvalidSignatureS(bytes32)": [
						{
							"details": "The signature has an S value that is in the upper half order."
						}
					]
				},
				"kind": "dev",
				"methods": {},
				"version": 1
			},
			"evm": {
				"assembly": "    /* \"H/Header/EIP-712 Header Struct (Typed Message).sol\":64:648  contract EIP712HeaderVerify {... */\n  mstore(0x40, 0x80)\n  callvalue\n  dup1\n  iszero\n  tag_1\n  jumpi\n  0x00\n  dup1\n  revert\ntag_1:\n  pop\n  dataSize(sub_0)\n  dup1\n  dataOffset(sub_0)\n  0x00\n  codecopy\n  0x00\n  return\nstop\n\nsub_0: assembly {\n        /* \"H/Header/EIP-712 Header Struct (Typed Message).sol\":64:648  contract EIP712HeaderVerify {... */\n      mstore(0x40, 0x80)\n      callvalue\n      dup1\n      iszero\n      tag_1\n      jumpi\n      0x00\n      dup1\n      revert\n    tag_1:\n      pop\n      jumpi(tag_2, lt(calldatasize, 0x04))\n      shr(0xe0, calldataload(0x00))\n      dup1\n      0x8b114f7a\n      eq\n      tag_3\n      jumpi\n      dup1\n      0xfdbeb5ee\n      eq\n      tag_4\n      jumpi\n    tag_2:\n      0x00\n      dup1\n      revert\n        /* \"H/Header/EIP-712 Header Struct (Typed Message).sol\":128:204  bytes32 public constant DOMAIN_HASH = keccak256(\"EIP712Domain(string name)\") */\n    tag_3:\n      tag_5\n      tag_6\n      jump\t// in\n    tag_5:\n      mload(0x40)\n      tag_7\n      swap2\n      swap1\n      tag_8\n      jump\t// in\n    tag_7:\n      mload(0x40)\n      dup1\n      swap2\n      sub\n      swap1\n      return\n        /* \"H/Header/EIP-712 Header Struct (Typed Message).sol\":309:646  function verify(Header memory header, bytes calldata sig) external view returns (bool) {... */\n    tag_4:\n      tag_9\n      0x04\n      dup1\n      calldatasize\n      sub\n      dup2\n      add\n      swap1\n      tag_10\n      swap2\n      swap1\n      tag_11\n      jump\t// in\n    tag_10:\n      tag_12\n      jump\t// in\n    tag_9:\n      mload(0x40)\n      tag_13\n      swap2\n      swap1\n      tag_14\n      jump\t// in\n    tag_13:\n      mload(0x40)\n      dup1\n      swap2\n      sub\n      swap1\n      return\n        /* \"H/Header/EIP-712 Header Struct (Typed Message).sol\":128:204  bytes32 public constant DOMAIN_HASH = keccak256(\"EIP712Domain(string name)\") */\n    tag_6:\n        /* \"H/Header/EIP-712 Header Struct (Typed Message).sol\":166:204  keccak256(\"EIP712Domain(string name)\") */\n      0xb2178a58fb1eefb359ecfdd57bb19c0bdd0f4e6eed8547f46600e500ed111af3\n        /* \"H/Header/EIP-712 Header Struct (Typed Message).sol\":128:204  bytes32 public constant DOMAIN_HASH = keccak256(\"EIP712Domain(string name)\") */\n      dup2\n      jump\t// out\n        /* \"H/Header/EIP-712 Header Struct (Typed Message).sol\":309:646  function verify(Header memory header, bytes calldata sig) external view returns (bool) {... */\n    tag_12:\n        /* \"H/Header/EIP-712 Header Struct (Typed Message).sol\":390:394  bool */\n      0x00\n        /* \"H/Header/EIP-712 Header Struct (Typed Message).sol\":406:420  bytes32 digest */\n      dup1\n        /* \"H/Header/EIP-712 Header Struct (Typed Message).sol\":166:204  keccak256(\"EIP712Domain(string name)\") */\n      0xb2178a58fb1eefb359ecfdd57bb19c0bdd0f4e6eed8547f46600e500ed111af3\n        /* \"H/Header/EIP-712 Header Struct (Typed Message).sol\":533:539  header */\n      dup6\n        /* \"H/Header/EIP-712 Header Struct (Typed Message).sol\":533:544  header.from */\n      0x00\n      add\n      mload\n        /* \"H/Header/EIP-712 Header Struct (Typed Message).sol\":546:552  header */\n      dup7\n        /* \"H/Header/EIP-712 Header Struct (Typed Message).sol\":546:558  header.nonce */\n      0x20\n      add\n      mload\n        /* \"H/Header/EIP-712 Header Struct (Typed Message).sol\":560:566  header */\n      dup8\n        /* \"H/Header/EIP-712 Header Struct (Typed Message).sol\":560:575  header.deadline */\n      0x40\n      add\n      mload\n        /* \"H/Header/EIP-712 Header Struct (Typed Message).sol\":522:576  abi.encode(header.from, header.nonce, header.deadline) */\n      add(0x20, mload(0x40))\n      tag_16\n      swap4\n      swap3\n      swap2\n      swap1\n      tag_17\n      jump\t// in\n    tag_16:\n      mload(0x40)\n      0x20\n      dup2\n      dup4\n      sub\n      sub\n      dup2\n      mstore\n      swap1\n      0x40\n      mstore\n        /* \"H/Header/EIP-712 Header Struct (Typed Message).sol\":512:577  keccak256(abi.encode(header.from, header.nonce, header.deadline)) */\n      dup1\n      mload\n      swap1\n      0x20\n      add\n      keccak256\n        /* \"H/Header/EIP-712 Header Struct (Typed Message).sol\":433:587  abi.encodePacked(... */\n      add(0x20, mload(0x40))\n      tag_18\n      swap3\n      swap2\n      swap1\n      tag_19\n      jump\t// in\n    tag_18:\n      mload(0x40)\n      0x20\n      dup2\n      dup4\n      sub\n      sub\n      dup2\n      mstore\n      swap1\n      0x40\n      mstore\n        /* \"H/Header/EIP-712 Header Struct (Typed Message).sol\":423:588  keccak256(abi.encodePacked(... */\n      dup1\n      mload\n      swap1\n      0x20\n      add\n      keccak256\n        /* \"H/Header/EIP-712 Header Struct (Typed Message).sol\":406:588  bytes32 digest = keccak256(abi.encodePacked(... */\n      swap1\n      pop\n        /* \"H/Header/EIP-712 Header Struct (Typed Message).sol\":628:634  header */\n      dup5\n        /* \"H/Header/EIP-712 Header Struct (Typed Message).sol\":628:639  header.from */\n      0x00\n      add\n      mload\n        /* \"H/Header/EIP-712 Header Struct (Typed Message).sol\":605:639  digest.recover(sig) == header.from */\n      0xffffffffffffffffffffffffffffffffffffffff\n      and\n        /* \"H/Header/EIP-712 Header Struct (Typed Message).sol\":605:624  digest.recover(sig) */\n      tag_20\n        /* \"H/Header/EIP-712 Header Struct (Typed Message).sol\":620:623  sig */\n      dup6\n      dup6\n        /* \"H/Header/EIP-712 Header Struct (Typed Message).sol\":605:624  digest.recover(sig) */\n      dup1\n      dup1\n      0x1f\n      add\n      0x20\n      dup1\n      swap2\n      div\n      mul\n      0x20\n      add\n      mload(0x40)\n      swap1\n      dup2\n      add\n      0x40\n      mstore\n      dup1\n      swap4\n      swap3\n      swap2\n      swap1\n      dup2\n      dup2\n      mstore\n      0x20\n      add\n      dup4\n      dup4\n      dup1\n      dup3\n      dup5\n      calldatacopy\n      0x00\n      dup2\n      dup5\n      add\n      mstore\n      not(0x1f)\n      0x1f\n      dup3\n      add\n      and\n      swap1\n      pop\n      dup1\n      dup4\n      add\n      swap3\n      pop\n      pop\n      pop\n      pop\n      pop\n      pop\n      pop\n        /* \"H/Header/EIP-712 Header Struct (Typed Message).sol\":605:611  digest */\n      dup4\n        /* \"H/Header/EIP-712 Header Struct (Typed Message).sol\":605:619  digest.recover */\n      tag_21\n      swap1\n        /* \"H/Header/EIP-712 Header Struct (Typed Message).sol\":605:624  digest.recover(sig) */\n      swap2\n      swap1\n      0xffffffff\n      and\n      jump\t// in\n    tag_20:\n        /* \"H/Header/EIP-712 Header Struct (Typed Message).sol\":605:639  digest.recover(sig) == header.from */\n      0xffffffffffffffffffffffffffffffffffffffff\n      and\n      eq\n        /* \"H/Header/EIP-712 Header Struct (Typed Message).sol\":598:639  return digest.recover(sig) == header.from */\n      swap2\n      pop\n      pop\n        /* \"H/Header/EIP-712 Header Struct (Typed Message).sol\":309:646  function verify(Header memory header, bytes calldata sig) external view returns (bool) {... */\n      swap4\n      swap3\n      pop\n      pop\n      pop\n      jump\t// out\n        /* \"@openzeppelin/contracts/utils/cryptography/ECDSA.sol\":3714:3969  function recover(bytes32 hash, bytes memory signature) internal pure returns (address) {... */\n    tag_21:\n        /* \"@openzeppelin/contracts/utils/cryptography/ECDSA.sol\":3792:3799  address */\n      0x00\n        /* \"@openzeppelin/contracts/utils/cryptography/ECDSA.sol\":3812:3829  address recovered */\n      dup1\n        /* \"@openzeppelin/contracts/utils/cryptography/ECDSA.sol\":3831:3849  RecoverError error */\n      0x00\n        /* \"@openzeppelin/contracts/utils/cryptography/ECDSA.sol\":3851:3867  bytes32 errorArg */\n      dup1\n        /* \"@openzeppelin/contracts/utils/cryptography/ECDSA.sol\":3871:3898  tryRecover(hash, signature) */\n      tag_23\n        /* \"@openzeppelin/contracts/utils/cryptography/ECDSA.sol\":3882:3886  hash */\n      dup7\n        /* \"@openzeppelin/contracts/utils/cryptography/ECDSA.sol\":3888:3897  signature */\n      dup7\n        /* \"@openzeppelin/contracts/utils/cryptography/ECDSA.sol\":3871:3881  tryRecover */\n      tag_24\n        /* \"@openzeppelin/contracts/utils/cryptography/ECDSA.sol\":3871:3898  tryRecover(hash, signature) */\n      jump\t// in\n    tag_23:\n        /* \"@openzeppelin/contracts/utils/cryptography/ECDSA.sol\":3811:3898  (address recovered, RecoverError error, bytes32 errorArg) = tryRecover(hash, signature) */\n      swap3\n      pop\n      swap3\n      pop\n      swap3\n      pop\n        /* \"@openzeppelin/contracts/utils/cryptography/ECDSA.sol\":3908:3936  _throwError(error, errorArg) */\n      tag_25\n        /* \"@openzeppelin/contracts/utils/cryptography/ECDSA.sol\":3920:3925  error */\n      dup3\n        /* \"@openzeppelin/contracts/utils/cryptography/ECDSA.sol\":3927:3935  errorArg */\n      dup3\n        /* \"@openzeppelin/contracts/utils/cryptography/ECDSA.sol\":3908:3919  _throwError */\n      tag_26\n        /* \"@openzeppelin/contracts/utils/cryptography/ECDSA.sol\":3908:3936  _throwError(error, errorArg) */\n      jump\t// in\n    tag_25:\n        /* \"@openzeppelin/contracts/utils/cryptography/ECDSA.sol\":3953:3962  recovered */\n      dup3\n        /* \"@openzeppelin/contracts/utils/cryptography/ECDSA.sol\":3946:3962  return recovered */\n      swap4\n      pop\n      pop\n      pop\n      pop\n        /* \"@openzeppelin/contracts/utils/cryptography/ECDSA.sol\":3714:3969  function recover(bytes32 hash, bytes memory signature) internal pure returns (address) {... */\n      swap3\n      swap2\n      pop\n      pop\n      jump\t// out\n        /* \"@openzeppelin/contracts/utils/cryptography/ECDSA.sol\":2129:2907  function tryRecover(... */\n    tag_24:\n        /* \"@openzeppelin/contracts/utils/cryptography/ECDSA.sol\":2232:2249  address recovered */\n      0x00\n        /* \"@openzeppelin/contracts/utils/cryptography/ECDSA.sol\":2251:2267  RecoverError err */\n      dup1\n        /* \"@openzeppelin/contracts/utils/cryptography/ECDSA.sol\":2269:2283  bytes32 errArg */\n      0x00\n        /* \"@openzeppelin/contracts/utils/cryptography/ECDSA.sol\":2319:2321  65 */\n      0x41\n        /* \"@openzeppelin/contracts/utils/cryptography/ECDSA.sol\":2299:2308  signature */\n      dup5\n        /* \"@openzeppelin/contracts/utils/cryptography/ECDSA.sol\":2299:2315  signature.length */\n      mload\n        /* \"@openzeppelin/contracts/utils/cryptography/ECDSA.sol\":2299:2321  signature.length == 65 */\n      sub\n        /* \"@openzeppelin/contracts/utils/cryptography/ECDSA.sol\":2295:2901  if (signature.length == 65) {... */\n      tag_28\n      jumpi\n        /* \"@openzeppelin/contracts/utils/cryptography/ECDSA.sol\":2337:2346  bytes32 r */\n      0x00\n        /* \"@openzeppelin/contracts/utils/cryptography/ECDSA.sol\":2360:2369  bytes32 s */\n      dup1\n        /* \"@openzeppelin/contracts/utils/cryptography/ECDSA.sol\":2383:2390  uint8 v */\n      0x00\n        /* \"@openzeppelin/contracts/utils/cryptography/ECDSA.sol\":2604:2608  0x20 */\n      0x20\n        /* \"@openzeppelin/contracts/utils/cryptography/ECDSA.sol\":2593:2602  signature */\n      dup8\n        /* \"@openzeppelin/contracts/utils/cryptography/ECDSA.sol\":2589:2609  add(signature, 0x20) */\n      add\n        /* \"@openzeppelin/contracts/utils/cryptography/ECDSA.sol\":2583:2610  mload(add(signature, 0x20)) */\n      mload\n        /* \"@openzeppelin/contracts/utils/cryptography/ECDSA.sol\":2578:2610  r := mload(add(signature, 0x20)) */\n      swap3\n      pop\n        /* \"@openzeppelin/contracts/utils/cryptography/ECDSA.sol\":2653:2657  0x40 */\n      0x40\n        /* \"@openzeppelin/contracts/utils/cryptography/ECDSA.sol\":2642:2651  signature */\n      dup8\n        /* \"@openzeppelin/contracts/utils/cryptography/ECDSA.sol\":2638:2658  add(signature, 0x40) */\n      add\n        /* \"@openzeppelin/contracts/utils/cryptography/ECDSA.sol\":2632:2659  mload(add(signature, 0x40)) */\n      mload\n        /* \"@openzeppelin/contracts/utils/cryptography/ECDSA.sol\":2627:2659  s := mload(add(signature, 0x40)) */\n      swap2\n      pop\n        /* \"@openzeppelin/contracts/utils/cryptography/ECDSA.sol\":2710:2714  0x60 */\n      0x60\n        /* \"@openzeppelin/contracts/utils/cryptography/ECDSA.sol\":2699:2708  signature */\n      dup8\n        /* \"@openzeppelin/contracts/utils/cryptography/ECDSA.sol\":2695:2715  add(signature, 0x60) */\n      add\n        /* \"@openzeppelin/contracts/utils/cryptography/ECDSA.sol\":2689:2716  mload(add(signature, 0x60)) */\n      mload\n        /* \"@openzeppelin/contracts/utils/cryptography/ECDSA.sol\":2686:2687  0 */\n      0x00\n        /* \"@openzeppelin/contracts/utils/cryptography/ECDSA.sol\":2681:2717  byte(0, mload(add(signature, 0x60))) */\n      byte\n        /* \"@openzeppelin/contracts/utils/cryptography/ECDSA.sol\":2676:2717  v := byte(0, mload(add(signature, 0x60))) */\n      swap1\n      pop\n        /* \"@openzeppelin/contracts/utils/cryptography/ECDSA.sol\":2751:2776  tryRecover(hash, v, r, s) */\n      tag_29\n        /* \"@openzeppelin/contracts/utils/cryptography/ECDSA.sol\":2762:2766  hash */\n      dup9\n        /* \"@openzeppelin/contracts/utils/cryptography/ECDSA.sol\":2768:2769  v */\n      dup3\n        /* \"@openzeppelin/contracts/utils/cryptography/ECDSA.sol\":2771:2772  r */\n      dup6\n        /* \"@openzeppelin/contracts/utils/cryptography/ECDSA.sol\":2774:2775  s */\n      dup6\n        /* \"@openzeppelin/contracts/utils/cryptography/ECDSA.sol\":2751:2761  tryRecover */\n      tag_30\n        /* \"@openzeppelin/contracts/utils/cryptography/ECDSA.sol\":2751:2776  tryRecover(hash, v, r, s) */\n      jump\t// in\n    tag_29:\n        /* \"@openzeppelin/contracts/utils/cryptography/ECDSA.sol\":2744:2776  return tryRecover(hash, v, r, s) */\n      swap6\n      pop\n      swap6\n      pop\n      swap6\n      pop\n      pop\n      pop\n      pop\n      jump(tag_27)\n        /* \"@openzeppelin/contracts/utils/cryptography/ECDSA.sol\":2295:2901  if (signature.length == 65) {... */\n    tag_28:\n        /* \"@openzeppelin/contracts/utils/cryptography/ECDSA.sol\":2823:2824  0 */\n      0x00\n        /* \"@openzeppelin/contracts/utils/cryptography/ECDSA.sol\":2827:2862  RecoverError.InvalidSignatureLength */\n      0x02\n        /* \"@openzeppelin/contracts/utils/cryptography/ECDSA.sol\":2872:2881  signature */\n      dup6\n        /* \"@openzeppelin/contracts/utils/cryptography/ECDSA.sol\":2872:2888  signature.length */\n      mload\n        /* \"@openzeppelin/contracts/utils/cryptography/ECDSA.sol\":2864:2889  bytes32(signature.length) */\n      0x00\n      shl\n        /* \"@openzeppelin/contracts/utils/cryptography/ECDSA.sol\":2807:2890  return (address(0), RecoverError.InvalidSignatureLength, bytes32(signature.length)) */\n      swap3\n      pop\n      swap3\n      pop\n      swap3\n      pop\n        /* \"@openzeppelin/contracts/utils/cryptography/ECDSA.sol\":2129:2907  function tryRecover(... */\n    tag_27:\n      swap3\n      pop\n      swap3\n      pop\n      swap3\n      jump\t// out\n        /* \"@openzeppelin/contracts/utils/cryptography/ECDSA.sol\":7280:7812  function _throwError(RecoverError error, bytes32 errorArg) private pure {... */\n    tag_26:\n        /* \"@openzeppelin/contracts/utils/cryptography/ECDSA.sol\":7375:7395  RecoverError.NoError */\n      0x00\n        /* \"@openzeppelin/contracts/utils/cryptography/ECDSA.sol\":7366:7395  error == RecoverError.NoError */\n      0x03\n      dup2\n      gt\n      iszero\n      tag_33\n      jumpi\n      tag_34\n      tag_35\n      jump\t// in\n    tag_34:\n    tag_33:\n        /* \"@openzeppelin/contracts/utils/cryptography/ECDSA.sol\":7366:7371  error */\n      dup3\n        /* \"@openzeppelin/contracts/utils/cryptography/ECDSA.sol\":7366:7395  error == RecoverError.NoError */\n      0x03\n      dup2\n      gt\n      iszero\n      tag_36\n      jumpi\n      tag_37\n      tag_35\n      jump\t// in\n    tag_37:\n    tag_36:\n      sub\n        /* \"@openzeppelin/contracts/utils/cryptography/ECDSA.sol\":7362:7806  if (error == RecoverError.NoError) {... */\n      iszero\n        /* \"@openzeppelin/contracts/utils/cryptography/ECDSA.sol\":7411:7418  return; */\n      tag_32\n        /* \"@openzeppelin/contracts/utils/cryptography/ECDSA.sol\":7362:7806  if (error == RecoverError.NoError) {... */\n      jumpi\n        /* \"@openzeppelin/contracts/utils/cryptography/ECDSA.sol\":7471:7500  RecoverError.InvalidSignature */\n      0x01\n        /* \"@openzeppelin/contracts/utils/cryptography/ECDSA.sol\":7462:7500  error == RecoverError.InvalidSignature */\n      0x03\n      dup2\n      gt\n      iszero\n      tag_40\n      jumpi\n      tag_41\n      tag_35\n      jump\t// in\n    tag_41:\n    tag_40:\n        /* \"@openzeppelin/contracts/utils/cryptography/ECDSA.sol\":7462:7467  error */\n      dup3\n        /* \"@openzeppelin/contracts/utils/cryptography/ECDSA.sol\":7462:7500  error == RecoverError.InvalidSignature */\n      0x03\n      dup2\n      gt\n      iszero\n      tag_42\n      jumpi\n      tag_43\n      tag_35\n      jump\t// in\n    tag_43:\n    tag_42:\n      sub\n        /* \"@openzeppelin/contracts/utils/cryptography/ECDSA.sol\":7458:7806  if (error == RecoverError.InvalidSignature) {... */\n      tag_44\n      jumpi\n        /* \"@openzeppelin/contracts/utils/cryptography/ECDSA.sol\":7523:7546  ECDSAInvalidSignature() */\n      mload(0x40)\n      0xf645eedf00000000000000000000000000000000000000000000000000000000\n      dup2\n      mstore\n      0x04\n      add\n      mload(0x40)\n      dup1\n      swap2\n      sub\n      swap1\n      revert\n        /* \"@openzeppelin/contracts/utils/cryptography/ECDSA.sol\":7458:7806  if (error == RecoverError.InvalidSignature) {... */\n    tag_44:\n        /* \"@openzeppelin/contracts/utils/cryptography/ECDSA.sol\":7576:7611  RecoverError.InvalidSignatureLength */\n      0x02\n        /* \"@openzeppelin/contracts/utils/cryptography/ECDSA.sol\":7567:7611  error == RecoverError.InvalidSignatureLength */\n      0x03\n      dup2\n      gt\n      iszero\n      tag_46\n      jumpi\n      tag_47\n      tag_35\n      jump\t// in\n    tag_47:\n    tag_46:\n        /* \"@openzeppelin/contracts/utils/cryptography/ECDSA.sol\":7567:7572  error */\n      dup3\n        /* \"@openzeppelin/contracts/utils/cryptography/ECDSA.sol\":7567:7611  error == RecoverError.InvalidSignatureLength */\n      0x03\n      dup2\n      gt\n      iszero\n      tag_48\n      jumpi\n      tag_49\n      tag_35\n      jump\t// in\n    tag_49:\n    tag_48:\n      sub\n        /* \"@openzeppelin/contracts/utils/cryptography/ECDSA.sol\":7563:7806  if (error == RecoverError.InvalidSignatureLength) {... */\n      tag_50\n      jumpi\n        /* \"@openzeppelin/contracts/utils/cryptography/ECDSA.sol\":7670:7678  errorArg */\n      dup1\n        /* \"@openzeppelin/contracts/utils/cryptography/ECDSA.sol\":7662:7679  uint256(errorArg) */\n      0x00\n      shr\n        /* \"@openzeppelin/contracts/utils/cryptography/ECDSA.sol\":7634:7680  ECDSAInvalidSignatureLength(uint256(errorArg)) */\n      mload(0x40)\n      0xfce698f700000000000000000000000000000000000000000000000000000000\n      dup2\n      mstore\n      0x04\n      add\n      tag_51\n      swap2\n      swap1\n      tag_52\n      jump\t// in\n    tag_51:\n      mload(0x40)\n      dup1\n      swap2\n      sub\n      swap1\n      revert\n        /* \"@openzeppelin/contracts/utils/cryptography/ECDSA.sol\":7563:7806  if (error == RecoverError.InvalidSignatureLength) {... */\n    tag_50:\n        /* \"@openzeppelin/contracts/utils/cryptography/ECDSA.sol\":7710:7740  RecoverError.InvalidSignatureS */\n      0x03\n        /* \"@openzeppelin/contracts/utils/cryptography/ECDSA.sol\":7701:7740  error == RecoverError.InvalidSignatureS */\n      dup1\n      dup2\n      gt\n      iszero\n      tag_54\n      jumpi\n      tag_55\n      tag_35\n      jump\t// in\n    tag_55:\n    tag_54:\n        /* \"@openzeppelin/contracts/utils/cryptography/ECDSA.sol\":7701:7706  error */\n      dup3\n        /* \"@openzeppelin/contracts/utils/cryptography/ECDSA.sol\":7701:7740  error == RecoverError.InvalidSignatureS */\n      0x03\n      dup2\n      gt\n      iszero\n      tag_56\n      jumpi\n      tag_57\n      tag_35\n      jump\t// in\n    tag_57:\n    tag_56:\n      sub\n        /* \"@openzeppelin/contracts/utils/cryptography/ECDSA.sol\":7697:7806  if (error == RecoverError.InvalidSignatureS) {... */\n      tag_58\n      jumpi\n        /* \"@openzeppelin/contracts/utils/cryptography/ECDSA.sol\":7786:7794  errorArg */\n      dup1\n        /* \"@openzeppelin/contracts/utils/cryptography/ECDSA.sol\":7763:7795  ECDSAInvalidSignatureS(errorArg) */\n      mload(0x40)\n      0xd78bce0c00000000000000000000000000000000000000000000000000000000\n      dup2\n      mstore\n      0x04\n      add\n      tag_59\n      swap2\n      swap1\n      tag_8\n      jump\t// in\n    tag_59:\n      mload(0x40)\n      dup1\n      swap2\n      sub\n      swap1\n      revert\n        /* \"@openzeppelin/contracts/utils/cryptography/ECDSA.sol\":7697:7806  if (error == RecoverError.InvalidSignatureS) {... */\n    tag_58:\n        /* \"@openzeppelin/contracts/utils/cryptography/ECDSA.sol\":7280:7812  function _throwError(RecoverError error, bytes32 errorArg) private pure {... */\n    tag_32:\n      pop\n      pop\n      jump\t// out\n        /* \"@openzeppelin/contracts/utils/cryptography/ECDSA.sol\":5203:6754  function tryRecover(... */\n    tag_30:\n        /* \"@openzeppelin/contracts/utils/cryptography/ECDSA.sol\":5329:5346  address recovered */\n      0x00\n        /* \"@openzeppelin/contracts/utils/cryptography/ECDSA.sol\":5348:5364  RecoverError err */\n      dup1\n        /* \"@openzeppelin/contracts/utils/cryptography/ECDSA.sol\":5366:5380  bytes32 errArg */\n      0x00\n        /* \"@openzeppelin/contracts/utils/cryptography/ECDSA.sol\":6283:6349  0x7FFFFFFFFFFFFFFFFFFFFFFFFFFFFFFF5D576E7357A4501DDFE92F46681B20A0 */\n      0x7fffffffffffffffffffffffffffffff5d576e7357a4501ddfe92f46681b20a0\n        /* \"@openzeppelin/contracts/utils/cryptography/ECDSA.sol\":6278:6279  s */\n      dup5\n        /* \"@openzeppelin/contracts/utils/cryptography/ECDSA.sol\":6270:6280  uint256(s) */\n      0x00\n      shr\n        /* \"@openzeppelin/contracts/utils/cryptography/ECDSA.sol\":6270:6349  uint256(s) > 0x7FFFFFFFFFFFFFFFFFFFFFFFFFFFFFFF5D576E7357A4501DDFE92F46681B20A0 */\n      gt\n        /* \"@openzeppelin/contracts/utils/cryptography/ECDSA.sol\":6266:6430  if (uint256(s) > 0x7FFFFFFFFFFFFFFFFFFFFFFFFFFFFFFF5D576E7357A4501DDFE92F46681B20A0) {... */\n      iszero\n      tag_61\n      jumpi\n        /* \"@openzeppelin/contracts/utils/cryptography/ECDSA.sol\":6381:6382  0 */\n      0x00\n        /* \"@openzeppelin/contracts/utils/cryptography/ECDSA.sol\":6385:6415  RecoverError.InvalidSignatureS */\n      0x03\n        /* \"@openzeppelin/contracts/utils/cryptography/ECDSA.sol\":6417:6418  s */\n      dup6\n        /* \"@openzeppelin/contracts/utils/cryptography/ECDSA.sol\":6365:6419  return (address(0), RecoverError.InvalidSignatureS, s) */\n      swap3\n      pop\n      swap3\n      pop\n      swap3\n      pop\n      jump(tag_60)\n        /* \"@openzeppelin/contracts/utils/cryptography/ECDSA.sol\":6266:6430  if (uint256(s) > 0x7FFFFFFFFFFFFFFFFFFFFFFFFFFFFFFF5D576E7357A4501DDFE92F46681B20A0) {... */\n    tag_61:\n        /* \"@openzeppelin/contracts/utils/cryptography/ECDSA.sol\":6524:6538  address signer */\n      0x00\n        /* \"@openzeppelin/contracts/utils/cryptography/ECDSA.sol\":6541:6565  ecrecover(hash, v, r, s) */\n      0x01\n        /* \"@openzeppelin/contracts/utils/cryptography/ECDSA.sol\":6551:6555  hash */\n      dup9\n        /* \"@openzeppelin/contracts/utils/cryptography/ECDSA.sol\":6557:6558  v */\n      dup9\n        /* \"@openzeppelin/contracts/utils/cryptography/ECDSA.sol\":6560:6561  r */\n      dup9\n        /* \"@openzeppelin/contracts/utils/cryptography/ECDSA.sol\":6563:6564  s */\n      dup9\n        /* \"@openzeppelin/contracts/utils/cryptography/ECDSA.sol\":6541:6565  ecrecover(hash, v, r, s) */\n      mload(0x40)\n      0x00\n      dup2\n      mstore\n      0x20\n      add\n      0x40\n      mstore\n      mload(0x40)\n      tag_62\n      swap5\n      swap4\n      swap3\n      swap2\n      swap1\n      tag_63\n      jump\t// in\n    tag_62:\n      0x20\n      mload(0x40)\n      0x20\n      dup2\n      sub\n      swap1\n      dup1\n      dup5\n      sub\n      swap1\n      dup6\n      gas\n      staticcall\n      iszero\n      dup1\n      iszero\n      tag_65\n      jumpi\n      returndatasize\n      0x00\n      dup1\n      returndatacopy\n      revert(0x00, returndatasize)\n    tag_65:\n      pop\n      pop\n      pop\n      mload(sub(mload(0x40), 0x20))\n        /* \"@openzeppelin/contracts/utils/cryptography/ECDSA.sol\":6524:6565  address signer = ecrecover(hash, v, r, s) */\n      swap1\n      pop\n        /* \"@openzeppelin/contracts/utils/cryptography/ECDSA.sol\":6597:6598  0 */\n      0x00\n        /* \"@openzeppelin/contracts/utils/cryptography/ECDSA.sol\":6579:6599  signer == address(0) */\n      0xffffffffffffffffffffffffffffffffffffffff\n      and\n        /* \"@openzeppelin/contracts/utils/cryptography/ECDSA.sol\":6579:6585  signer */\n      dup2\n        /* \"@openzeppelin/contracts/utils/cryptography/ECDSA.sol\":6579:6599  signer == address(0) */\n      0xffffffffffffffffffffffffffffffffffffffff\n      and\n      sub\n        /* \"@openzeppelin/contracts/utils/cryptography/ECDSA.sol\":6575:6688  if (signer == address(0)) {... */\n      tag_66\n      jumpi\n        /* \"@openzeppelin/contracts/utils/cryptography/ECDSA.sol\":6631:6632  0 */\n      0x00\n        /* \"@openzeppelin/contracts/utils/cryptography/ECDSA.sol\":6635:6664  RecoverError.InvalidSignature */\n      0x01\n        /* \"@openzeppelin/contracts/utils/cryptography/ECDSA.sol\":6674:6675  0 */\n      0x00\n        /* \"@openzeppelin/contracts/utils/cryptography/ECDSA.sol\":6666:6676  bytes32(0) */\n      dup1\n      shl\n        /* \"@openzeppelin/contracts/utils/cryptography/ECDSA.sol\":6615:6677  return (address(0), RecoverError.InvalidSignature, bytes32(0)) */\n      swap4\n      pop\n      swap4\n      pop\n      swap4\n      pop\n      pop\n      jump(tag_60)\n        /* \"@openzeppelin/contracts/utils/cryptography/ECDSA.sol\":6575:6688  if (signer == address(0)) {... */\n    tag_66:\n        /* \"@openzeppelin/contracts/utils/cryptography/ECDSA.sol\":6706:6712  signer */\n      dup1\n        /* \"@openzeppelin/contracts/utils/cryptography/ECDSA.sol\":6714:6734  RecoverError.NoError */\n      0x00\n        /* \"@openzeppelin/contracts/utils/cryptography/ECDSA.sol\":6744:6745  0 */\n      dup1\n        /* \"@openzeppelin/contracts/utils/cryptography/ECDSA.sol\":6736:6746  bytes32(0) */\n      0x00\n      shl\n        /* \"@openzeppelin/contracts/utils/cryptography/ECDSA.sol\":6698:6747  return (signer, RecoverError.NoError, bytes32(0)) */\n      swap4\n      pop\n      swap4\n      pop\n      swap4\n      pop\n      pop\n        /* \"@openzeppelin/contracts/utils/cryptography/ECDSA.sol\":5203:6754  function tryRecover(... */\n    tag_60:\n      swap5\n      pop\n      swap5\n      pop\n      swap5\n      swap2\n      pop\n      pop\n      jump\t// out\n        /* \"#utility.yul\":7:84   */\n    tag_67:\n        /* \"#utility.yul\":44:51   */\n      0x00\n        /* \"#utility.yul\":73:78   */\n      dup2\n        /* \"#utility.yul\":62:78   */\n      swap1\n      pop\n        /* \"#utility.yul\":7:84   */\n      swap2\n      swap1\n      pop\n      jump\t// out\n        /* \"#utility.yul\":90:208   */\n    tag_68:\n        /* \"#utility.yul\":177:201   */\n      tag_104\n        /* \"#utility.yul\":195:200   */\n      dup2\n        /* \"#utility.yul\":177:201   */\n      tag_67\n      jump\t// in\n    tag_104:\n        /* \"#utility.yul\":172:175   */\n      dup3\n        /* \"#utility.yul\":165:202   */\n      mstore\n        /* \"#utility.yul\":90:208   */\n      pop\n      pop\n      jump\t// out\n        /* \"#utility.yul\":214:436   */\n    tag_8:\n        /* \"#utility.yul\":307:311   */\n      0x00\n        /* \"#utility.yul\":345:347   */\n      0x20\n        /* \"#utility.yul\":334:343   */\n      dup3\n        /* \"#utility.yul\":330:348   */\n      add\n        /* \"#utility.yul\":322:348   */\n      swap1\n      pop\n        /* \"#utility.yul\":358:429   */\n      tag_106\n        /* \"#utility.yul\":426:427   */\n      0x00\n        /* \"#utility.yul\":415:424   */\n      dup4\n        /* \"#utility.yul\":411:428   */\n      add\n        /* \"#utility.yul\":402:408   */\n      dup5\n        /* \"#utility.yul\":358:429   */\n      tag_68\n      jump\t// in\n    tag_106:\n        /* \"#utility.yul\":214:436   */\n      swap3\n      swap2\n      pop\n      pop\n      jump\t// out\n        /* \"#utility.yul\":442:517   */\n    tag_69:\n        /* \"#utility.yul\":475:481   */\n      0x00\n        /* \"#utility.yul\":508:510   */\n      0x40\n        /* \"#utility.yul\":502:511   */\n      mload\n        /* \"#utility.yul\":492:511   */\n      swap1\n      pop\n        /* \"#utility.yul\":442:517   */\n      swap1\n      jump\t// out\n        /* \"#utility.yul\":523:640   */\n    tag_70:\n        /* \"#utility.yul\":632:633   */\n      0x00\n        /* \"#utility.yul\":629:630   */\n      dup1\n        /* \"#utility.yul\":622:634   */\n      revert\n        /* \"#utility.yul\":646:763   */\n    tag_71:\n        /* \"#utility.yul\":755:756   */\n      0x00\n        /* \"#utility.yul\":752:753   */\n      dup1\n        /* \"#utility.yul\":745:757   */\n      revert\n        /* \"#utility.yul\":769:886   */\n    tag_72:\n        /* \"#utility.yul\":878:879   */\n      0x00\n        /* \"#utility.yul\":875:876   */\n      dup1\n        /* \"#utility.yul\":868:880   */\n      revert\n        /* \"#utility.yul\":892:994   */\n    tag_73:\n        /* \"#utility.yul\":933:939   */\n      0x00\n        /* \"#utility.yul\":984:986   */\n      0x1f\n        /* \"#utility.yul\":980:987   */\n      not\n        /* \"#utility.yul\":975:977   */\n      0x1f\n        /* \"#utility.yul\":968:973   */\n      dup4\n        /* \"#utility.yul\":964:978   */\n      add\n        /* \"#utility.yul\":960:988   */\n      and\n        /* \"#utility.yul\":950:988   */\n      swap1\n      pop\n        /* \"#utility.yul\":892:994   */\n      swap2\n      swap1\n      pop\n      jump\t// out\n        /* \"#utility.yul\":1000:1180   */\n    tag_74:\n        /* \"#utility.yul\":1048:1125   */\n      0x4e487b7100000000000000000000000000000000000000000000000000000000\n        /* \"#utility.yul\":1045:1046   */\n      0x00\n        /* \"#utility.yul\":1038:1126   */\n      mstore\n        /* \"#utility.yul\":1145:1149   */\n      0x41\n        /* \"#utility.yul\":1142:1143   */\n      0x04\n        /* \"#utility.yul\":1135:1150   */\n      mstore\n        /* \"#utility.yul\":1169:1173   */\n      0x24\n        /* \"#utility.yul\":1166:1167   */\n      0x00\n        /* \"#utility.yul\":1159:1174   */\n      revert\n        /* \"#utility.yul\":1186:1467   */\n    tag_75:\n        /* \"#utility.yul\":1269:1296   */\n      tag_114\n        /* \"#utility.yul\":1291:1295   */\n      dup3\n        /* \"#utility.yul\":1269:1296   */\n      tag_73\n      jump\t// in\n    tag_114:\n        /* \"#utility.yul\":1261:1267   */\n      dup2\n        /* \"#utility.yul\":1257:1297   */\n      add\n        /* \"#utility.yul\":1399:1405   */\n      dup2\n        /* \"#utility.yul\":1387:1397   */\n      dup2\n        /* \"#utility.yul\":1384:1406   */\n      lt\n        /* \"#utility.yul\":1363:1381   */\n      0xffffffffffffffff\n        /* \"#utility.yul\":1351:1361   */\n      dup3\n        /* \"#utility.yul\":1348:1382   */\n      gt\n        /* \"#utility.yul\":1345:1407   */\n      or\n        /* \"#utility.yul\":1342:1430   */\n      iszero\n      tag_115\n      jumpi\n        /* \"#utility.yul\":1410:1428   */\n      tag_116\n      tag_74\n      jump\t// in\n    tag_116:\n        /* \"#utility.yul\":1342:1430   */\n    tag_115:\n        /* \"#utility.yul\":1450:1460   */\n      dup1\n        /* \"#utility.yul\":1446:1448   */\n      0x40\n        /* \"#utility.yul\":1439:1461   */\n      mstore\n        /* \"#utility.yul\":1229:1467   */\n      pop\n        /* \"#utility.yul\":1186:1467   */\n      pop\n      pop\n      jump\t// out\n        /* \"#utility.yul\":1473:1602   */\n    tag_76:\n        /* \"#utility.yul\":1507:1513   */\n      0x00\n        /* \"#utility.yul\":1534:1554   */\n      tag_118\n      tag_69\n      jump\t// in\n    tag_118:\n        /* \"#utility.yul\":1524:1554   */\n      swap1\n      pop\n        /* \"#utility.yul\":1563:1596   */\n      tag_119\n        /* \"#utility.yul\":1591:1595   */\n      dup3\n        /* \"#utility.yul\":1583:1589   */\n      dup3\n        /* \"#utility.yul\":1563:1596   */\n      tag_75\n      jump\t// in\n    tag_119:\n        /* \"#utility.yul\":1473:1602   */\n      swap2\n      swap1\n      pop\n      jump\t// out\n        /* \"#utility.yul\":1731:1857   */\n    tag_78:\n        /* \"#utility.yul\":1768:1775   */\n      0x00\n        /* \"#utility.yul\":1808:1850   */\n      0xffffffffffffffffffffffffffffffffffffffff\n        /* \"#utility.yul\":1801:1806   */\n      dup3\n        /* \"#utility.yul\":1797:1851   */\n      and\n        /* \"#utility.yul\":1786:1851   */\n      swap1\n      pop\n        /* \"#utility.yul\":1731:1857   */\n      swap2\n      swap1\n      pop\n      jump\t// out\n        /* \"#utility.yul\":1863:1959   */\n    tag_79:\n        /* \"#utility.yul\":1900:1907   */\n      0x00\n        /* \"#utility.yul\":1929:1953   */\n      tag_123\n        /* \"#utility.yul\":1947:1952   */\n      dup3\n        /* \"#utility.yul\":1929:1953   */\n      tag_78\n      jump\t// in\n    tag_123:\n        /* \"#utility.yul\":1918:1953   */\n      swap1\n      pop\n        /* \"#utility.yul\":1863:1959   */\n      swap2\n      swap1\n      pop\n      jump\t// out\n        /* \"#utility.yul\":1965:2087   */\n    tag_80:\n        /* \"#utility.yul\":2038:2062   */\n      tag_125\n        /* \"#utility.yul\":2056:2061   */\n      dup2\n        /* \"#utility.yul\":2038:2062   */\n      tag_79\n      jump\t// in\n    tag_125:\n        /* \"#utility.yul\":2031:2036   */\n      dup2\n        /* \"#utility.yul\":2028:2063   */\n      eq\n        /* \"#utility.yul\":2018:2081   */\n      tag_126\n      jumpi\n        /* \"#utility.yul\":2077:2078   */\n      0x00\n        /* \"#utility.yul\":2074:2075   */\n      dup1\n        /* \"#utility.yul\":2067:2079   */\n      revert\n        /* \"#utility.yul\":2018:2081   */\n    tag_126:\n        /* \"#utility.yul\":1965:2087   */\n      pop\n      jump\t// out\n        /* \"#utility.yul\":2093:2232   */\n    tag_81:\n        /* \"#utility.yul\":2139:2144   */\n      0x00\n        /* \"#utility.yul\":2177:2183   */\n      dup2\n        /* \"#utility.yul\":2164:2184   */\n      calldataload\n        /* \"#utility.yul\":2155:2184   */\n      swap1\n      pop\n        /* \"#utility.yul\":2193:2226   */\n      tag_128\n        /* \"#utility.yul\":2220:2225   */\n      dup2\n        /* \"#utility.yul\":2193:2226   */\n      tag_80\n      jump\t// in\n    tag_128:\n        /* \"#utility.yul\":2093:2232   */\n      swap3\n      swap2\n      pop\n      pop\n      jump\t// out\n        /* \"#utility.yul\":2238:2315   */\n    tag_82:\n        /* \"#utility.yul\":2275:2282   */\n      0x00\n        /* \"#utility.yul\":2304:2309   */\n      dup2\n        /* \"#utility.yul\":2293:2309   */\n      swap1\n      pop\n        /* \"#utility.yul\":2238:2315   */\n      swap2\n      swap1\n      pop\n      jump\t// out\n        /* \"#utility.yul\":2321:2443   */\n    tag_83:\n        /* \"#utility.yul\":2394:2418   */\n      tag_131\n        /* \"#utility.yul\":2412:2417   */\n      dup2\n        /* \"#utility.yul\":2394:2418   */\n      tag_82\n      jump\t// in\n    tag_131:\n        /* \"#utility.yul\":2387:2392   */\n      dup2\n        /* \"#utility.yul\":2384:2419   */\n      eq\n        /* \"#utility.yul\":2374:2437   */\n      tag_132\n      jumpi\n        /* \"#utility.yul\":2433:2434   */\n      0x00\n        /* \"#utility.yul\":2430:2431   */\n      dup1\n        /* \"#utility.yul\":2423:2435   */\n      revert\n        /* \"#utility.yul\":2374:2437   */\n    tag_132:\n        /* \"#utility.yul\":2321:2443   */\n      pop\n      jump\t// out\n        /* \"#utility.yul\":2449:2588   */\n    tag_84:\n        /* \"#utility.yul\":2495:2500   */\n      0x00\n        /* \"#utility.yul\":2533:2539   */\n      dup2\n        /* \"#utility.yul\":2520:2540   */\n      calldataload\n        /* \"#utility.yul\":2511:2540   */\n      swap1\n      pop\n        /* \"#utility.yul\":2549:2582   */\n      tag_134\n        /* \"#utility.yul\":2576:2581   */\n      dup2\n        /* \"#utility.yul\":2549:2582   */\n      tag_83\n      jump\t// in\n    tag_134:\n        /* \"#utility.yul\":2449:2588   */\n      swap3\n      swap2\n      pop\n      pop\n      jump\t// out\n        /* \"#utility.yul\":2634:3372   */\n    tag_85:\n        /* \"#utility.yul\":2706:2711   */\n      0x00\n        /* \"#utility.yul\":2750:2754   */\n      0x60\n        /* \"#utility.yul\":2738:2747   */\n      dup3\n        /* \"#utility.yul\":2733:2736   */\n      dup5\n        /* \"#utility.yul\":2729:2748   */\n      sub\n        /* \"#utility.yul\":2725:2755   */\n      slt\n        /* \"#utility.yul\":2722:2839   */\n      iszero\n      tag_136\n      jumpi\n        /* \"#utility.yul\":2758:2837   */\n      tag_137\n      tag_72\n      jump\t// in\n    tag_137:\n        /* \"#utility.yul\":2722:2839   */\n    tag_136:\n        /* \"#utility.yul\":2857:2878   */\n      tag_138\n        /* \"#utility.yul\":2873:2877   */\n      0x60\n        /* \"#utility.yul\":2857:2878   */\n      tag_76\n      jump\t// in\n    tag_138:\n        /* \"#utility.yul\":2848:2878   */\n      swap1\n      pop\n        /* \"#utility.yul\":2937:2938   */\n      0x00\n        /* \"#utility.yul\":2977:3026   */\n      tag_139\n        /* \"#utility.yul\":3022:3025   */\n      dup5\n        /* \"#utility.yul\":3013:3019   */\n      dup3\n        /* \"#utility.yul\":3002:3011   */\n      dup6\n        /* \"#utility.yul\":2998:3020   */\n      add\n        /* \"#utility.yul\":2977:3026   */\n      tag_81\n      jump\t// in\n    tag_139:\n        /* \"#utility.yul\":2970:2974   */\n      0x00\n        /* \"#utility.yul\":2963:2968   */\n      dup4\n        /* \"#utility.yul\":2959:2975   */\n      add\n        /* \"#utility.yul\":2952:3027   */\n      mstore\n        /* \"#utility.yul\":2888:3038   */\n      pop\n        /* \"#utility.yul\":3098:3100   */\n      0x20\n        /* \"#utility.yul\":3139:3188   */\n      tag_140\n        /* \"#utility.yul\":3184:3187   */\n      dup5\n        /* \"#utility.yul\":3175:3181   */\n      dup3\n        /* \"#utility.yul\":3164:3173   */\n      dup6\n        /* \"#utility.yul\":3160:3182   */\n      add\n        /* \"#utility.yul\":3139:3188   */\n      tag_84\n      jump\t// in\n    tag_140:\n        /* \"#utility.yul\":3132:3136   */\n      0x20\n        /* \"#utility.yul\":3125:3130   */\n      dup4\n        /* \"#utility.yul\":3121:3137   */\n      add\n        /* \"#utility.yul\":3114:3189   */\n      mstore\n        /* \"#utility.yul\":3048:3200   */\n      pop\n        /* \"#utility.yul\":3263:3265   */\n      0x40\n        /* \"#utility.yul\":3304:3353   */\n      tag_141\n        /* \"#utility.yul\":3349:3352   */\n      dup5\n        /* \"#utility.yul\":3340:3346   */\n      dup3\n        /* \"#utility.yul\":3329:3338   */\n      dup6\n        /* \"#utility.yul\":3325:3347   */\n      add\n        /* \"#utility.yul\":3304:3353   */\n      tag_84\n      jump\t// in\n    tag_141:\n        /* \"#utility.yul\":3297:3301   */\n      0x40\n        /* \"#utility.yul\":3290:3295   */\n      dup4\n        /* \"#utility.yul\":3286:3302   */\n      add\n        /* \"#utility.yul\":3279:3354   */\n      mstore\n        /* \"#utility.yul\":3210:3365   */\n      pop\n        /* \"#utility.yul\":2634:3372   */\n      swap3\n      swap2\n      pop\n      pop\n      jump\t// out\n        /* \"#utility.yul\":3378:3495   */\n    tag_86:\n        /* \"#utility.yul\":3487:3488   */\n      0x00\n        /* \"#utility.yul\":3484:3485   */\n      dup1\n        /* \"#utility.yul\":3477:3489   */\n      revert\n        /* \"#utility.yul\":3501:3618   */\n    tag_87:\n        /* \"#utility.yul\":3610:3611   */\n      0x00\n        /* \"#utility.yul\":3607:3608   */\n      dup1\n        /* \"#utility.yul\":3600:3612   */\n      revert\n        /* \"#utility.yul\":3624:3741   */\n    tag_88:\n        /* \"#utility.yul\":3733:3734   */\n      0x00\n        /* \"#utility.yul\":3730:3731   */\n      dup1\n        /* \"#utility.yul\":3723:3735   */\n      revert\n        /* \"#utility.yul\":3760:4312   */\n    tag_89:\n        /* \"#utility.yul\":3817:3825   */\n      0x00\n        /* \"#utility.yul\":3827:3833   */\n      dup1\n        /* \"#utility.yul\":3877:3880   */\n      dup4\n        /* \"#utility.yul\":3870:3874   */\n      0x1f\n        /* \"#utility.yul\":3862:3868   */\n      dup5\n        /* \"#utility.yul\":3858:3875   */\n      add\n        /* \"#utility.yul\":3854:3881   */\n      slt\n        /* \"#utility.yul\":3844:3966   */\n      tag_146\n      jumpi\n        /* \"#utility.yul\":3885:3964   */\n      tag_147\n      tag_86\n      jump\t// in\n    tag_147:\n        /* \"#utility.yul\":3844:3966   */\n    tag_146:\n        /* \"#utility.yul\":3998:4004   */\n      dup3\n        /* \"#utility.yul\":3985:4005   */\n      calldataload\n        /* \"#utility.yul\":3975:4005   */\n      swap1\n      pop\n        /* \"#utility.yul\":4028:4046   */\n      0xffffffffffffffff\n        /* \"#utility.yul\":4020:4026   */\n      dup2\n        /* \"#utility.yul\":4017:4047   */\n      gt\n        /* \"#utility.yul\":4014:4131   */\n      iszero\n      tag_148\n      jumpi\n        /* \"#utility.yul\":4050:4129   */\n      tag_149\n      tag_87\n      jump\t// in\n    tag_149:\n        /* \"#utility.yul\":4014:4131   */\n    tag_148:\n        /* \"#utility.yul\":4164:4168   */\n      0x20\n        /* \"#utility.yul\":4156:4162   */\n      dup4\n        /* \"#utility.yul\":4152:4169   */\n      add\n        /* \"#utility.yul\":4140:4169   */\n      swap2\n      pop\n        /* \"#utility.yul\":4218:4221   */\n      dup4\n        /* \"#utility.yul\":4210:4214   */\n      0x01\n        /* \"#utility.yul\":4202:4208   */\n      dup3\n        /* \"#utility.yul\":4198:4215   */\n      mul\n        /* \"#utility.yul\":4188:4196   */\n      dup4\n        /* \"#utility.yul\":4184:4216   */\n      add\n        /* \"#utility.yul\":4181:4222   */\n      gt\n        /* \"#utility.yul\":4178:4306   */\n      iszero\n      tag_150\n      jumpi\n        /* \"#utility.yul\":4225:4304   */\n      tag_151\n      tag_88\n      jump\t// in\n    tag_151:\n        /* \"#utility.yul\":4178:4306   */\n    tag_150:\n        /* \"#utility.yul\":3760:4312   */\n      swap3\n      pop\n      swap3\n      swap1\n      pop\n      jump\t// out\n        /* \"#utility.yul\":4318:5037   */\n    tag_11:\n        /* \"#utility.yul\":4420:4426   */\n      0x00\n        /* \"#utility.yul\":4428:4434   */\n      dup1\n        /* \"#utility.yul\":4436:4442   */\n      0x00\n        /* \"#utility.yul\":4485:4488   */\n      0x80\n        /* \"#utility.yul\":4473:4482   */\n      dup5\n        /* \"#utility.yul\":4464:4471   */\n      dup7\n        /* \"#utility.yul\":4460:4483   */\n      sub\n        /* \"#utility.yul\":4456:4489   */\n      slt\n        /* \"#utility.yul\":4453:4573   */\n      iszero\n      tag_153\n      jumpi\n        /* \"#utility.yul\":4492:4571   */\n      tag_154\n      tag_70\n      jump\t// in\n    tag_154:\n        /* \"#utility.yul\":4453:4573   */\n    tag_153:\n        /* \"#utility.yul\":4612:4613   */\n      0x00\n        /* \"#utility.yul\":4637:4713   */\n      tag_155\n        /* \"#utility.yul\":4705:4712   */\n      dup7\n        /* \"#utility.yul\":4696:4702   */\n      dup3\n        /* \"#utility.yul\":4685:4694   */\n      dup8\n        /* \"#utility.yul\":4681:4703   */\n      add\n        /* \"#utility.yul\":4637:4713   */\n      tag_85\n      jump\t// in\n    tag_155:\n        /* \"#utility.yul\":4627:4713   */\n      swap4\n      pop\n        /* \"#utility.yul\":4583:4723   */\n      pop\n        /* \"#utility.yul\":4790:4792   */\n      0x60\n        /* \"#utility.yul\":4779:4788   */\n      dup5\n        /* \"#utility.yul\":4775:4793   */\n      add\n        /* \"#utility.yul\":4762:4794   */\n      calldataload\n        /* \"#utility.yul\":4821:4839   */\n      0xffffffffffffffff\n        /* \"#utility.yul\":4813:4819   */\n      dup2\n        /* \"#utility.yul\":4810:4840   */\n      gt\n        /* \"#utility.yul\":4807:4924   */\n      iszero\n      tag_156\n      jumpi\n        /* \"#utility.yul\":4843:4922   */\n      tag_157\n      tag_71\n      jump\t// in\n    tag_157:\n        /* \"#utility.yul\":4807:4924   */\n    tag_156:\n        /* \"#utility.yul\":4956:5020   */\n      tag_158\n        /* \"#utility.yul\":5012:5019   */\n      dup7\n        /* \"#utility.yul\":5003:5009   */\n      dup3\n        /* \"#utility.yul\":4992:5001   */\n      dup8\n        /* \"#utility.yul\":4988:5010   */\n      add\n        /* \"#utility.yul\":4956:5020   */\n      tag_89\n      jump\t// in\n    tag_158:\n        /* \"#utility.yul\":4938:5020   */\n      swap3\n      pop\n      swap3\n      pop\n        /* \"#utility.yul\":4733:5030   */\n      pop\n        /* \"#utility.yul\":4318:5037   */\n      swap3\n      pop\n      swap3\n      pop\n      swap3\n      jump\t// out\n        /* \"#utility.yul\":5043:5133   */\n    tag_90:\n        /* \"#utility.yul\":5077:5084   */\n      0x00\n        /* \"#utility.yul\":5120:5125   */\n      dup2\n        /* \"#utility.yul\":5113:5126   */\n      iszero\n        /* \"#utility.yul\":5106:5127   */\n      iszero\n        /* \"#utility.yul\":5095:5127   */\n      swap1\n      pop\n        /* \"#utility.yul\":5043:5133   */\n      swap2\n      swap1\n      pop\n      jump\t// out\n        /* \"#utility.yul\":5139:5248   */\n    tag_91:\n        /* \"#utility.yul\":5220:5241   */\n      tag_161\n        /* \"#utility.yul\":5235:5240   */\n      dup2\n        /* \"#utility.yul\":5220:5241   */\n      tag_90\n      jump\t// in\n    tag_161:\n        /* \"#utility.yul\":5215:5218   */\n      dup3\n        /* \"#utility.yul\":5208:5242   */\n      mstore\n        /* \"#utility.yul\":5139:5248   */\n      pop\n      pop\n      jump\t// out\n        /* \"#utility.yul\":5254:5464   */\n    tag_14:\n        /* \"#utility.yul\":5341:5345   */\n      0x00\n        /* \"#utility.yul\":5379:5381   */\n      0x20\n        /* \"#utility.yul\":5368:5377   */\n      dup3\n        /* \"#utility.yul\":5364:5382   */\n      add\n        /* \"#utility.yul\":5356:5382   */\n      swap1\n      pop\n        /* \"#utility.yul\":5392:5457   */\n      tag_163\n        /* \"#utility.yul\":5454:5455   */\n      0x00\n        /* \"#utility.yul\":5443:5452   */\n      dup4\n        /* \"#utility.yul\":5439:5456   */\n      add\n        /* \"#utility.yul\":5430:5436   */\n      dup5\n        /* \"#utility.yul\":5392:5457   */\n      tag_91\n      jump\t// in\n    tag_163:\n        /* \"#utility.yul\":5254:5464   */\n      swap3\n      swap2\n      pop\n      pop\n      jump\t// out\n        /* \"#utility.yul\":5470:5588   */\n    tag_92:\n        /* \"#utility.yul\":5557:5581   */\n      tag_165\n        /* \"#utility.yul\":5575:5580   */\n      dup2\n        /* \"#utility.yul\":5557:5581   */\n      tag_79\n      jump\t// in\n    tag_165:\n        /* \"#utility.yul\":5552:5555   */\n      dup3\n        /* \"#utility.yul\":5545:5582   */\n      mstore\n        /* \"#utility.yul\":5470:5588   */\n      pop\n      pop\n      jump\t// out\n        /* \"#utility.yul\":5594:5712   */\n    tag_93:\n        /* \"#utility.yul\":5681:5705   */\n      tag_167\n        /* \"#utility.yul\":5699:5704   */\n      dup2\n        /* \"#utility.yul\":5681:5705   */\n      tag_82\n      jump\t// in\n    tag_167:\n        /* \"#utility.yul\":5676:5679   */\n      dup3\n        /* \"#utility.yul\":5669:5706   */\n      mstore\n        /* \"#utility.yul\":5594:5712   */\n      pop\n      pop\n      jump\t// out\n        /* \"#utility.yul\":5718:6160   */\n    tag_17:\n        /* \"#utility.yul\":5867:5871   */\n      0x00\n        /* \"#utility.yul\":5905:5907   */\n      0x60\n        /* \"#utility.yul\":5894:5903   */\n      dup3\n        /* \"#utility.yul\":5890:5908   */\n      add\n        /* \"#utility.yul\":5882:5908   */\n      swap1\n      pop\n        /* \"#utility.yul\":5918:5989   */\n      tag_169\n        /* \"#utility.yul\":5986:5987   */\n      0x00\n        /* \"#utility.yul\":5975:5984   */\n      dup4\n        /* \"#utility.yul\":5971:5988   */\n      add\n        /* \"#utility.yul\":5962:5968   */\n      dup7\n        /* \"#utility.yul\":5918:5989   */\n      tag_92\n      jump\t// in\n    tag_169:\n        /* \"#utility.yul\":5999:6071   */\n      tag_170\n        /* \"#utility.yul\":6067:6069   */\n      0x20\n        /* \"#utility.yul\":6056:6065   */\n      dup4\n        /* \"#utility.yul\":6052:6070   */\n      add\n        /* \"#utility.yul\":6043:6049   */\n      dup6\n        /* \"#utility.yul\":5999:6071   */\n      tag_93\n      jump\t// in\n    tag_170:\n        /* \"#utility.yul\":6081:6153   */\n      tag_171\n        /* \"#utility.yul\":6149:6151   */\n      0x40\n        /* \"#utility.yul\":6138:6147   */\n      dup4\n        /* \"#utility.yul\":6134:6152   */\n      add\n        /* \"#utility.yul\":6125:6131   */\n      dup5\n        /* \"#utility.yul\":6081:6153   */\n      tag_93\n      jump\t// in\n    tag_171:\n        /* \"#utility.yul\":5718:6160   */\n      swap5\n      swap4\n      pop\n      pop\n      pop\n      pop\n      jump\t// out\n        /* \"#utility.yul\":6166:6314   */\n    tag_94:\n        /* \"#utility.yul\":6268:6279   */\n      0x00\n        /* \"#utility.yul\":6305:6308   */\n      dup2\n        /* \"#utility.yul\":6290:6308   */\n      swap1\n      pop\n        /* \"#utility.yul\":6166:6314   */\n      swap3\n      swap2\n      pop\n      pop\n      jump\t// out\n        /* \"#utility.yul\":6320:6534   */\n    tag_95:\n        /* \"#utility.yul\":6460:6526   */\n      0x1901000000000000000000000000000000000000000000000000000000000000\n        /* \"#utility.yul\":6456:6457   */\n      0x00\n        /* \"#utility.yul\":6448:6454   */\n      dup3\n        /* \"#utility.yul\":6444:6458   */\n      add\n        /* \"#utility.yul\":6437:6527   */\n      mstore\n        /* \"#utility.yul\":6320:6534   */\n      pop\n      jump\t// out\n        /* \"#utility.yul\":6540:6940   */\n    tag_96:\n        /* \"#utility.yul\":6700:6703   */\n      0x00\n        /* \"#utility.yul\":6721:6805   */\n      tag_175\n        /* \"#utility.yul\":6803:6804   */\n      0x02\n        /* \"#utility.yul\":6798:6801   */\n      dup4\n        /* \"#utility.yul\":6721:6805   */\n      tag_94\n      jump\t// in\n    tag_175:\n        /* \"#utility.yul\":6714:6805   */\n      swap2\n      pop\n        /* \"#utility.yul\":6814:6907   */\n      tag_176\n        /* \"#utility.yul\":6903:6906   */\n      dup3\n        /* \"#utility.yul\":6814:6907   */\n      tag_95\n      jump\t// in\n    tag_176:\n        /* \"#utility.yul\":6932:6933   */\n      0x02\n        /* \"#utility.yul\":6927:6930   */\n      dup3\n        /* \"#utility.yul\":6923:6934   */\n      add\n        /* \"#utility.yul\":6916:6934   */\n      swap1\n      pop\n        /* \"#utility.yul\":6540:6940   */\n      swap2\n      swap1\n      pop\n      jump\t// out\n        /* \"#utility.yul\":6946:7025   */\n    tag_97:\n        /* \"#utility.yul\":6985:6992   */\n      0x00\n        /* \"#utility.yul\":7014:7019   */\n      dup2\n        /* \"#utility.yul\":7003:7019   */\n      swap1\n      pop\n        /* \"#utility.yul\":6946:7025   */\n      swap2\n      swap1\n      pop\n      jump\t// out\n        /* \"#utility.yul\":7031:7188   */\n    tag_98:\n        /* \"#utility.yul\":7136:7181   */\n      tag_179\n        /* \"#utility.yul\":7156:7180   */\n      tag_180\n        /* \"#utility.yul\":7174:7179   */\n      dup3\n        /* \"#utility.yul\":7156:7180   */\n      tag_67\n      jump\t// in\n    tag_180:\n        /* \"#utility.yul\":7136:7181   */\n      tag_97\n      jump\t// in\n    tag_179:\n        /* \"#utility.yul\":7131:7134   */\n      dup3\n        /* \"#utility.yul\":7124:7182   */\n      mstore\n        /* \"#utility.yul\":7031:7188   */\n      pop\n      pop\n      jump\t// out\n        /* \"#utility.yul\":7194:7857   */\n    tag_19:\n        /* \"#utility.yul\":7435:7438   */\n      0x00\n        /* \"#utility.yul\":7457:7605   */\n      tag_182\n        /* \"#utility.yul\":7601:7604   */\n      dup3\n        /* \"#utility.yul\":7457:7605   */\n      tag_96\n      jump\t// in\n    tag_182:\n        /* \"#utility.yul\":7450:7605   */\n      swap2\n      pop\n        /* \"#utility.yul\":7615:7690   */\n      tag_183\n        /* \"#utility.yul\":7686:7689   */\n      dup3\n        /* \"#utility.yul\":7677:7683   */\n      dup6\n        /* \"#utility.yul\":7615:7690   */\n      tag_98\n      jump\t// in\n    tag_183:\n        /* \"#utility.yul\":7715:7717   */\n      0x20\n        /* \"#utility.yul\":7710:7713   */\n      dup3\n        /* \"#utility.yul\":7706:7718   */\n      add\n        /* \"#utility.yul\":7699:7718   */\n      swap2\n      pop\n        /* \"#utility.yul\":7728:7803   */\n      tag_184\n        /* \"#utility.yul\":7799:7802   */\n      dup3\n        /* \"#utility.yul\":7790:7796   */\n      dup5\n        /* \"#utility.yul\":7728:7803   */\n      tag_98\n      jump\t// in\n    tag_184:\n        /* \"#utility.yul\":7828:7830   */\n      0x20\n        /* \"#utility.yul\":7823:7826   */\n      dup3\n        /* \"#utility.yul\":7819:7831   */\n      add\n        /* \"#utility.yul\":7812:7831   */\n      swap2\n      pop\n        /* \"#utility.yul\":7848:7851   */\n      dup2\n        /* \"#utility.yul\":7841:7851   */\n      swap1\n      pop\n        /* \"#utility.yul\":7194:7857   */\n      swap4\n      swap3\n      pop\n      pop\n      pop\n      jump\t// out\n        /* \"#utility.yul\":7863:8043   */\n    tag_35:\n        /* \"#utility.yul\":7911:7988   */\n      0x4e487b7100000000000000000000000000000000000000000000000000000000\n        /* \"#utility.yul\":7908:7909   */\n      0x00\n        /* \"#utility.yul\":7901:7989   */\n      mstore\n        /* \"#utility.yul\":8008:8012   */\n      0x21\n        /* \"#utility.yul\":8005:8006   */\n      0x04\n        /* \"#utility.yul\":7998:8013   */\n      mstore\n        /* \"#utility.yul\":8032:8036   */\n      0x24\n        /* \"#utility.yul\":8029:8030   */\n      0x00\n        /* \"#utility.yul\":8022:8037   */\n      revert\n        /* \"#utility.yul\":8049:8271   */\n    tag_52:\n        /* \"#utility.yul\":8142:8146   */\n      0x00\n        /* \"#utility.yul\":8180:8182   */\n      0x20\n        /* \"#utility.yul\":8169:8178   */\n      dup3\n        /* \"#utility.yul\":8165:8183   */\n      add\n        /* \"#utility.yul\":8157:8183   */\n      swap1\n      pop\n        /* \"#utility.yul\":8193:8264   */\n      tag_187\n        /* \"#utility.yul\":8261:8262   */\n      0x00\n        /* \"#utility.yul\":8250:8259   */\n      dup4\n        /* \"#utility.yul\":8246:8263   */\n      add\n        /* \"#utility.yul\":8237:8243   */\n      dup5\n        /* \"#utility.yul\":8193:8264   */\n      tag_93\n      jump\t// in\n    tag_187:\n        /* \"#utility.yul\":8049:8271   */\n      swap3\n      swap2\n      pop\n      pop\n      jump\t// out\n        /* \"#utility.yul\":8277:8363   */\n    tag_99:\n        /* \"#utility.yul\":8312:8319   */\n      0x00\n        /* \"#utility.yul\":8352:8356   */\n      0xff\n        /* \"#utility.yul\":8345:8350   */\n      dup3\n        /* \"#utility.yul\":8341:8357   */\n      and\n        /* \"#utility.yul\":8330:8357   */\n      swap1\n      pop\n        /* \"#utility.yul\":8277:8363   */\n      swap2\n      swap1\n      pop\n      jump\t// out\n        /* \"#utility.yul\":8369:8481   */\n    tag_100:\n        /* \"#utility.yul\":8452:8474   */\n      tag_190\n        /* \"#utility.yul\":8468:8473   */\n      dup2\n        /* \"#utility.yul\":8452:8474   */\n      tag_99\n      jump\t// in\n    tag_190:\n        /* \"#utility.yul\":8447:8450   */\n      dup3\n        /* \"#utility.yul\":8440:8475   */\n      mstore\n        /* \"#utility.yul\":8369:8481   */\n      pop\n      pop\n      jump\t// out\n        /* \"#utility.yul\":8487:9032   */\n    tag_63:\n        /* \"#utility.yul\":8660:8664   */\n      0x00\n        /* \"#utility.yul\":8698:8701   */\n      0x80\n        /* \"#utility.yul\":8687:8696   */\n      dup3\n        /* \"#utility.yul\":8683:8702   */\n      add\n        /* \"#utility.yul\":8675:8702   */\n      swap1\n      pop\n        /* \"#utility.yul\":8712:8783   */\n      tag_192\n        /* \"#utility.yul\":8780:8781   */\n      0x00\n        /* \"#utility.yul\":8769:8778   */\n      dup4\n        /* \"#utility.yul\":8765:8782   */\n      add\n        /* \"#utility.yul\":8756:8762   */\n      dup8\n        /* \"#utility.yul\":8712:8783   */\n      tag_68\n      jump\t// in\n    tag_192:\n        /* \"#utility.yul\":8793:8861   */\n      tag_193\n        /* \"#utility.yul\":8857:8859   */\n      0x20\n        /* \"#utility.yul\":8846:8855   */\n      dup4\n        /* \"#utility.yul\":8842:8860   */\n      add\n        /* \"#utility.yul\":8833:8839   */\n      dup7\n        /* \"#utility.yul\":8793:8861   */\n      tag_100\n      jump\t// in\n    tag_193:\n        /* \"#utility.yul\":8871:8943   */\n      tag_194\n        /* \"#utility.yul\":8939:8941   */\n      0x40\n        /* \"#utility.yul\":8928:8937   */\n      dup4\n        /* \"#utility.yul\":8924:8942   */\n      add\n        /* \"#utility.yul\":8915:8921   */\n      dup6\n        /* \"#utility.yul\":8871:8943   */\n      tag_68\n      jump\t// in\n    tag_194:\n        /* \"#utility.yul\":8953:9025   */\n      tag_195\n        /* \"#utility.yul\":9021:9023   */\n      0x60\n        /* \"#utility.yul\":9010:9019   */\n      dup4\n        /* \"#utility.yul\":9006:9024   */\n      add\n        /* \"#utility.yul\":8997:9003   */\n      dup5\n        /* \"#utility.yul\":8953:9025   */\n      tag_68\n      jump\t// in\n    tag_195:\n        /* \"#utility.yul\":8487:9032   */\n      swap6\n      swap5\n      pop\n      pop\n      pop\n      pop\n      pop\n      jump\t// out\n\n    auxdata: 0xa2646970667358221220419aadbd8fb038141ae3d31f769cb2aa0b76a67a022d46da2b1b3fc5b9bf937a64736f6c634300081a0033\n}\n",
				"bytecode": {
					"linkReferences": {},
					"object": "6080604052348015600e575f80fd5b506109098061001c5f395ff3fe608060405234801561000f575f80fd5b5060043610610034575f3560e01c80638b114f7a14610038578063fdbeb5ee14610056575b5f80fd5b610040610086565b60405161004d919061049d565b60405180910390f35b610070600480360381019061006b91906106a2565b6100aa565b60405161007d9190610719565b60405180910390f35b7fb2178a58fb1eefb359ecfdd57bb19c0bdd0f4e6eed8547f46600e500ed111af381565b5f807fb2178a58fb1eefb359ecfdd57bb19c0bdd0f4e6eed8547f46600e500ed111af3855f0151866020015187604001516040516020016100ed93929190610750565b604051602081830303815290604052805190602001206040516020016101149291906107f9565b604051602081830303815290604052805190602001209050845f015173ffffffffffffffffffffffffffffffffffffffff1661019c85858080601f0160208091040260200160405190810160405280939291908181526020018383808284375f81840152601f19601f82011690508083019250505050505050836101bd90919063ffffffff16565b73ffffffffffffffffffffffffffffffffffffffff16149150509392505050565b5f805f806101cb86866101e7565b9250925092506101db828261023c565b82935050505092915050565b5f805f6041845103610227575f805f602087015192506040870151915060608701515f1a90506102198882858561039e565b955095509550505050610235565b5f600285515f1b9250925092505b9250925092565b5f600381111561024f5761024e61082f565b5b8260038111156102625761026161082f565b5b031561039a576001600381111561027c5761027b61082f565b5b82600381111561028f5761028e61082f565b5b036102c6576040517ff645eedf00000000000000000000000000000000000000000000000000000000815260040160405180910390fd5b600260038111156102da576102d961082f565b5b8260038111156102ed576102ec61082f565b5b0361033157805f1c6040517ffce698f7000000000000000000000000000000000000000000000000000000008152600401610328919061085c565b60405180910390fd5b6003808111156103445761034361082f565b5b8260038111156103575761035661082f565b5b0361039957806040517fd78bce0c000000000000000000000000000000000000000000000000000000008152600401610390919061049d565b60405180910390fd5b5b5050565b5f805f7f7fffffffffffffffffffffffffffffff5d576e7357a4501ddfe92f46681b20a0845f1c11156103da575f60038592509250925061047b565b5f6001888888886040515f81526020016040526040516103fd9493929190610890565b6020604051602081039080840390855afa15801561041d573d5f803e3d5ffd5b5050506020604051035190505f73ffffffffffffffffffffffffffffffffffffffff168173ffffffffffffffffffffffffffffffffffffffff160361046e575f60015f801b9350935093505061047b565b805f805f1b935093509350505b9450945094915050565b5f819050919050565b61049781610485565b82525050565b5f6020820190506104b05f83018461048e565b92915050565b5f604051905090565b5f80fd5b5f80fd5b5f80fd5b5f601f19601f8301169050919050565b7f4e487b71000000000000000000000000000000000000000000000000000000005f52604160045260245ffd5b610511826104cb565b810181811067ffffffffffffffff821117156105305761052f6104db565b5b80604052505050565b5f6105426104b6565b905061054e8282610508565b919050565b5f73ffffffffffffffffffffffffffffffffffffffff82169050919050565b5f61057c82610553565b9050919050565b61058c81610572565b8114610596575f80fd5b50565b5f813590506105a781610583565b92915050565b5f819050919050565b6105bf816105ad565b81146105c9575f80fd5b50565b5f813590506105da816105b6565b92915050565b5f606082840312156105f5576105f46104c7565b5b6105ff6060610539565b90505f61060e84828501610599565b5f830152506020610621848285016105cc565b6020830152506040610635848285016105cc565b60408301525092915050565b5f80fd5b5f80fd5b5f80fd5b5f8083601f84011261066257610661610641565b5b8235905067ffffffffffffffff81111561067f5761067e610645565b5b60208301915083600182028301111561069b5761069a610649565b5b9250929050565b5f805f608084860312156106b9576106b86104bf565b5b5f6106c6868287016105e0565b935050606084013567ffffffffffffffff8111156106e7576106e66104c3565b5b6106f38682870161064d565b92509250509250925092565b5f8115159050919050565b610713816106ff565b82525050565b5f60208201905061072c5f83018461070a565b92915050565b61073b81610572565b82525050565b61074a816105ad565b82525050565b5f6060820190506107635f830186610732565b6107706020830185610741565b61077d6040830184610741565b949350505050565b5f81905092915050565b7f19010000000000000000000000000000000000000000000000000000000000005f82015250565b5f6107c3600283610785565b91506107ce8261078f565b600282019050919050565b5f819050919050565b6107f36107ee82610485565b6107d9565b82525050565b5f610803826107b7565b915061080f82856107e2565b60208201915061081f82846107e2565b6020820191508190509392505050565b7f4e487b71000000000000000000000000000000000000000000000000000000005f52602160045260245ffd5b5f60208201905061086f5f830184610741565b92915050565b5f60ff82169050919050565b61088a81610875565b82525050565b5f6080820190506108a35f83018761048e565b6108b06020830186610881565b6108bd604083018561048e565b6108ca606083018461048e565b9594505050505056fea2646970667358221220419aadbd8fb038141ae3d31f769cb2aa0b76a67a022d46da2b1b3fc5b9bf937a64736f6c634300081a0033",
					"opcodes": "PUSH1 0x80 PUSH1 0x40 MSTORE CALLVALUE DUP1 ISZERO PUSH1 0xE JUMPI PUSH0 DUP1 REVERT JUMPDEST POP PUSH2 0x909 DUP1 PUSH2 0x1C PUSH0 CODECOPY PUSH0 RETURN INVALID PUSH1 0x80 PUSH1 0x40 MSTORE CALLVALUE DUP1 ISZERO PUSH2 0xF JUMPI PUSH0 DUP1 REVERT JUMPDEST POP PUSH1 0x4 CALLDATASIZE LT PUSH2 0x34 JUMPI PUSH0 CALLDATALOAD PUSH1 0xE0 SHR DUP1 PUSH4 0x8B114F7A EQ PUSH2 0x38 JUMPI DUP1 PUSH4 0xFDBEB5EE EQ PUSH2 0x56 JUMPI JUMPDEST PUSH0 DUP1 REVERT JUMPDEST PUSH2 0x40 PUSH2 0x86 JUMP JUMPDEST PUSH1 0x40 MLOAD PUSH2 0x4D SWAP2 SWAP1 PUSH2 0x49D JUMP JUMPDEST PUSH1 0x40 MLOAD DUP1 SWAP2 SUB SWAP1 RETURN JUMPDEST PUSH2 0x70 PUSH1 0x4 DUP1 CALLDATASIZE SUB DUP2 ADD SWAP1 PUSH2 0x6B SWAP2 SWAP1 PUSH2 0x6A2 JUMP JUMPDEST PUSH2 0xAA JUMP JUMPDEST PUSH1 0x40 MLOAD PUSH2 0x7D SWAP2 SWAP1 PUSH2 0x719 JUMP JUMPDEST PUSH1 0x40 MLOAD DUP1 SWAP2 SUB SWAP1 RETURN JUMPDEST PUSH32 0xB2178A58FB1EEFB359ECFDD57BB19C0BDD0F4E6EED8547F46600E500ED111AF3 DUP2 JUMP JUMPDEST PUSH0 DUP1 PUSH32 0xB2178A58FB1EEFB359ECFDD57BB19C0BDD0F4E6EED8547F46600E500ED111AF3 DUP6 PUSH0 ADD MLOAD DUP7 PUSH1 0x20 ADD MLOAD DUP8 PUSH1 0x40 ADD MLOAD PUSH1 0x40 MLOAD PUSH1 0x20 ADD PUSH2 0xED SWAP4 SWAP3 SWAP2 SWAP1 PUSH2 0x750 JUMP JUMPDEST PUSH1 0x40 MLOAD PUSH1 0x20 DUP2 DUP4 SUB SUB DUP2 MSTORE SWAP1 PUSH1 0x40 MSTORE DUP1 MLOAD SWAP1 PUSH1 0x20 ADD KECCAK256 PUSH1 0x40 MLOAD PUSH1 0x20 ADD PUSH2 0x114 SWAP3 SWAP2 SWAP1 PUSH2 0x7F9 JUMP JUMPDEST PUSH1 0x40 MLOAD PUSH1 0x20 DUP2 DUP4 SUB SUB DUP2 MSTORE SWAP1 PUSH1 0x40 MSTORE DUP1 MLOAD SWAP1 PUSH1 0x20 ADD KECCAK256 SWAP1 POP DUP5 PUSH0 ADD MLOAD PUSH20 0xFFFFFFFFFFFFFFFFFFFFFFFFFFFFFFFFFFFFFFFF AND PUSH2 0x19C DUP6 DUP6 DUP1 DUP1 PUSH1 0x1F ADD PUSH1 0x20 DUP1 SWAP2 DIV MUL PUSH1 0x20 ADD PUSH1 0x40 MLOAD SWAP1 DUP2 ADD PUSH1 0x40 MSTORE DUP1 SWAP4 SWAP3 SWAP2 SWAP1 DUP2 DUP2 MSTORE PUSH1 0x20 ADD DUP4 DUP4 DUP1 DUP3 DUP5 CALLDATACOPY PUSH0 DUP2 DUP5 ADD MSTORE PUSH1 0x1F NOT PUSH1 0x1F DUP3 ADD AND SWAP1 POP DUP1 DUP4 ADD SWAP3 POP POP POP POP POP POP POP DUP4 PUSH2 0x1BD SWAP1 SWAP2 SWAP1 PUSH4 0xFFFFFFFF AND JUMP JUMPDEST PUSH20 0xFFFFFFFFFFFFFFFFFFFFFFFFFFFFFFFFFFFFFFFF AND EQ SWAP2 POP POP SWAP4 SWAP3 POP POP POP JUMP JUMPDEST PUSH0 DUP1 PUSH0 DUP1 PUSH2 0x1CB DUP7 DUP7 PUSH2 0x1E7 JUMP JUMPDEST SWAP3 POP SWAP3 POP SWAP3 POP PUSH2 0x1DB DUP3 DUP3 PUSH2 0x23C JUMP JUMPDEST DUP3 SWAP4 POP POP POP POP SWAP3 SWAP2 POP POP JUMP JUMPDEST PUSH0 DUP1 PUSH0 PUSH1 0x41 DUP5 MLOAD SUB PUSH2 0x227 JUMPI PUSH0 DUP1 PUSH0 PUSH1 0x20 DUP8 ADD MLOAD SWAP3 POP PUSH1 0x40 DUP8 ADD MLOAD SWAP2 POP PUSH1 0x60 DUP8 ADD MLOAD PUSH0 BYTE SWAP1 POP PUSH2 0x219 DUP9 DUP3 DUP6 DUP6 PUSH2 0x39E JUMP JUMPDEST SWAP6 POP SWAP6 POP SWAP6 POP POP POP POP PUSH2 0x235 JUMP JUMPDEST PUSH0 PUSH1 0x2 DUP6 MLOAD PUSH0 SHL SWAP3 POP SWAP3 POP SWAP3 POP JUMPDEST SWAP3 POP SWAP3 POP SWAP3 JUMP JUMPDEST PUSH0 PUSH1 0x3 DUP2 GT ISZERO PUSH2 0x24F JUMPI PUSH2 0x24E PUSH2 0x82F JUMP JUMPDEST JUMPDEST DUP3 PUSH1 0x3 DUP2 GT ISZERO PUSH2 0x262 JUMPI PUSH2 0x261 PUSH2 0x82F JUMP JUMPDEST JUMPDEST SUB ISZERO PUSH2 0x39A JUMPI PUSH1 0x1 PUSH1 0x3 DUP2 GT ISZERO PUSH2 0x27C JUMPI PUSH2 0x27B PUSH2 0x82F JUMP JUMPDEST JUMPDEST DUP3 PUSH1 0x3 DUP2 GT ISZERO PUSH2 0x28F JUMPI PUSH2 0x28E PUSH2 0x82F JUMP JUMPDEST JUMPDEST SUB PUSH2 0x2C6 JUMPI PUSH1 0x40 MLOAD PUSH32 0xF645EEDF00000000000000000000000000000000000000000000000000000000 DUP2 MSTORE PUSH1 0x4 ADD PUSH1 0x40 MLOAD DUP1 SWAP2 SUB SWAP1 REVERT JUMPDEST PUSH1 0x2 PUSH1 0x3 DUP2 GT ISZERO PUSH2 0x2DA JUMPI PUSH2 0x2D9 PUSH2 0x82F JUMP JUMPDEST JUMPDEST DUP3 PUSH1 0x3 DUP2 GT ISZERO PUSH2 0x2ED JUMPI PUSH2 0x2EC PUSH2 0x82F JUMP JUMPDEST JUMPDEST SUB PUSH2 0x331 JUMPI DUP1 PUSH0 SHR PUSH1 0x40 MLOAD PUSH32 0xFCE698F700000000000000000000000000000000000000000000000000000000 DUP2 MSTORE PUSH1 0x4 ADD PUSH2 0x328 SWAP2 SWAP1 PUSH2 0x85C JUMP JUMPDEST PUSH1 0x40 MLOAD DUP1 SWAP2 SUB SWAP1 REVERT JUMPDEST PUSH1 0x3 DUP1 DUP2 GT ISZERO PUSH2 0x344 JUMPI PUSH2 0x343 PUSH2 0x82F JUMP JUMPDEST JUMPDEST DUP3 PUSH1 0x3 DUP2 GT ISZERO PUSH2 0x357 JUMPI PUSH2 0x356 PUSH2 0x82F JUMP JUMPDEST JUMPDEST SUB PUSH2 0x399 JUMPI DUP1 PUSH1 0x40 MLOAD PUSH32 0xD78BCE0C00000000000000000000000000000000000000000000000000000000 DUP2 MSTORE PUSH1 0x4 ADD PUSH2 0x390 SWAP2 SWAP1 PUSH2 0x49D JUMP JUMPDEST PUSH1 0x40 MLOAD DUP1 SWAP2 SUB SWAP1 REVERT JUMPDEST JUMPDEST POP POP JUMP JUMPDEST PUSH0 DUP1 PUSH0 PUSH32 0x7FFFFFFFFFFFFFFFFFFFFFFFFFFFFFFF5D576E7357A4501DDFE92F46681B20A0 DUP5 PUSH0 SHR GT ISZERO PUSH2 0x3DA JUMPI PUSH0 PUSH1 0x3 DUP6 SWAP3 POP SWAP3 POP SWAP3 POP PUSH2 0x47B JUMP JUMPDEST PUSH0 PUSH1 0x1 DUP9 DUP9 DUP9 DUP9 PUSH1 0x40 MLOAD PUSH0 DUP2 MSTORE PUSH1 0x20 ADD PUSH1 0x40 MSTORE PUSH1 0x40 MLOAD PUSH2 0x3FD SWAP5 SWAP4 SWAP3 SWAP2 SWAP1 PUSH2 0x890 JUMP JUMPDEST PUSH1 0x20 PUSH1 0x40 MLOAD PUSH1 0x20 DUP2 SUB SWAP1 DUP1 DUP5 SUB SWAP1 DUP6 GAS STATICCALL ISZERO DUP1 ISZERO PUSH2 0x41D JUMPI RETURNDATASIZE PUSH0 DUP1 RETURNDATACOPY RETURNDATASIZE PUSH0 REVERT JUMPDEST POP POP POP PUSH1 0x20 PUSH1 0x40 MLOAD SUB MLOAD SWAP1 POP PUSH0 PUSH20 0xFFFFFFFFFFFFFFFFFFFFFFFFFFFFFFFFFFFFFFFF AND DUP2 PUSH20 0xFFFFFFFFFFFFFFFFFFFFFFFFFFFFFFFFFFFFFFFF AND SUB PUSH2 0x46E JUMPI PUSH0 PUSH1 0x1 PUSH0 DUP1 SHL SWAP4 POP SWAP4 POP SWAP4 POP POP PUSH2 0x47B JUMP JUMPDEST DUP1 PUSH0 DUP1 PUSH0 SHL SWAP4 POP SWAP4 POP SWAP4 POP POP JUMPDEST SWAP5 POP SWAP5 POP SWAP5 SWAP2 POP POP JUMP JUMPDEST PUSH0 DUP2 SWAP1 POP SWAP2 SWAP1 POP JUMP JUMPDEST PUSH2 0x497 DUP2 PUSH2 0x485 JUMP JUMPDEST DUP3 MSTORE POP POP JUMP JUMPDEST PUSH0 PUSH1 0x20 DUP3 ADD SWAP1 POP PUSH2 0x4B0 PUSH0 DUP4 ADD DUP5 PUSH2 0x48E JUMP JUMPDEST SWAP3 SWAP2 POP POP JUMP JUMPDEST PUSH0 PUSH1 0x40 MLOAD SWAP1 POP SWAP1 JUMP JUMPDEST PUSH0 DUP1 REVERT JUMPDEST PUSH0 DUP1 REVERT JUMPDEST PUSH0 DUP1 REVERT JUMPDEST PUSH0 PUSH1 0x1F NOT PUSH1 0x1F DUP4 ADD AND SWAP1 POP SWAP2 SWAP1 POP JUMP JUMPDEST PUSH32 0x4E487B7100000000000000000000000000000000000000000000000000000000 PUSH0 MSTORE PUSH1 0x41 PUSH1 0x4 MSTORE PUSH1 0x24 PUSH0 REVERT JUMPDEST PUSH2 0x511 DUP3 PUSH2 0x4CB JUMP JUMPDEST DUP2 ADD DUP2 DUP2 LT PUSH8 0xFFFFFFFFFFFFFFFF DUP3 GT OR ISZERO PUSH2 0x530 JUMPI PUSH2 0x52F PUSH2 0x4DB JUMP JUMPDEST JUMPDEST DUP1 PUSH1 0x40 MSTORE POP POP POP JUMP JUMPDEST PUSH0 PUSH2 0x542 PUSH2 0x4B6 JUMP JUMPDEST SWAP1 POP PUSH2 0x54E DUP3 DUP3 PUSH2 0x508 JUMP JUMPDEST SWAP2 SWAP1 POP JUMP JUMPDEST PUSH0 PUSH20 0xFFFFFFFFFFFFFFFFFFFFFFFFFFFFFFFFFFFFFFFF DUP3 AND SWAP1 POP SWAP2 SWAP1 POP JUMP JUMPDEST PUSH0 PUSH2 0x57C DUP3 PUSH2 0x553 JUMP JUMPDEST SWAP1 POP SWAP2 SWAP1 POP JUMP JUMPDEST PUSH2 0x58C DUP2 PUSH2 0x572 JUMP JUMPDEST DUP2 EQ PUSH2 0x596 JUMPI PUSH0 DUP1 REVERT JUMPDEST POP JUMP JUMPDEST PUSH0 DUP2 CALLDATALOAD SWAP1 POP PUSH2 0x5A7 DUP2 PUSH2 0x583 JUMP JUMPDEST SWAP3 SWAP2 POP POP JUMP JUMPDEST PUSH0 DUP2 SWAP1 POP SWAP2 SWAP1 POP JUMP JUMPDEST PUSH2 0x5BF DUP2 PUSH2 0x5AD JUMP JUMPDEST DUP2 EQ PUSH2 0x5C9 JUMPI PUSH0 DUP1 REVERT JUMPDEST POP JUMP JUMPDEST PUSH0 DUP2 CALLDATALOAD SWAP1 POP PUSH2 0x5DA DUP2 PUSH2 0x5B6 JUMP JUMPDEST SWAP3 SWAP2 POP POP JUMP JUMPDEST PUSH0 PUSH1 0x60 DUP3 DUP5 SUB SLT ISZERO PUSH2 0x5F5 JUMPI PUSH2 0x5F4 PUSH2 0x4C7 JUMP JUMPDEST JUMPDEST PUSH2 0x5FF PUSH1 0x60 PUSH2 0x539 JUMP JUMPDEST SWAP1 POP PUSH0 PUSH2 0x60E DUP5 DUP3 DUP6 ADD PUSH2 0x599 JUMP JUMPDEST PUSH0 DUP4 ADD MSTORE POP PUSH1 0x20 PUSH2 0x621 DUP5 DUP3 DUP6 ADD PUSH2 0x5CC JUMP JUMPDEST PUSH1 0x20 DUP4 ADD MSTORE POP PUSH1 0x40 PUSH2 0x635 DUP5 DUP3 DUP6 ADD PUSH2 0x5CC JUMP JUMPDEST PUSH1 0x40 DUP4 ADD MSTORE POP SWAP3 SWAP2 POP POP JUMP JUMPDEST PUSH0 DUP1 REVERT JUMPDEST PUSH0 DUP1 REVERT JUMPDEST PUSH0 DUP1 REVERT JUMPDEST PUSH0 DUP1 DUP4 PUSH1 0x1F DUP5 ADD SLT PUSH2 0x662 JUMPI PUSH2 0x661 PUSH2 0x641 JUMP JUMPDEST JUMPDEST DUP3 CALLDATALOAD SWAP1 POP PUSH8 0xFFFFFFFFFFFFFFFF DUP2 GT ISZERO PUSH2 0x67F JUMPI PUSH2 0x67E PUSH2 0x645 JUMP JUMPDEST JUMPDEST PUSH1 0x20 DUP4 ADD SWAP2 POP DUP4 PUSH1 0x1 DUP3 MUL DUP4 ADD GT ISZERO PUSH2 0x69B JUMPI PUSH2 0x69A PUSH2 0x649 JUMP JUMPDEST JUMPDEST SWAP3 POP SWAP3 SWAP1 POP JUMP JUMPDEST PUSH0 DUP1 PUSH0 PUSH1 0x80 DUP5 DUP7 SUB SLT ISZERO PUSH2 0x6B9 JUMPI PUSH2 0x6B8 PUSH2 0x4BF JUMP JUMPDEST JUMPDEST PUSH0 PUSH2 0x6C6 DUP7 DUP3 DUP8 ADD PUSH2 0x5E0 JUMP JUMPDEST SWAP4 POP POP PUSH1 0x60 DUP5 ADD CALLDATALOAD PUSH8 0xFFFFFFFFFFFFFFFF DUP2 GT ISZERO PUSH2 0x6E7 JUMPI PUSH2 0x6E6 PUSH2 0x4C3 JUMP JUMPDEST JUMPDEST PUSH2 0x6F3 DUP7 DUP3 DUP8 ADD PUSH2 0x64D JUMP JUMPDEST SWAP3 POP SWAP3 POP POP SWAP3 POP SWAP3 POP SWAP3 JUMP JUMPDEST PUSH0 DUP2 ISZERO ISZERO SWAP1 POP SWAP2 SWAP1 POP JUMP JUMPDEST PUSH2 0x713 DUP2 PUSH2 0x6FF JUMP JUMPDEST DUP3 MSTORE POP POP JUMP JUMPDEST PUSH0 PUSH1 0x20 DUP3 ADD SWAP1 POP PUSH2 0x72C PUSH0 DUP4 ADD DUP5 PUSH2 0x70A JUMP JUMPDEST SWAP3 SWAP2 POP POP JUMP JUMPDEST PUSH2 0x73B DUP2 PUSH2 0x572 JUMP JUMPDEST DUP3 MSTORE POP POP JUMP JUMPDEST PUSH2 0x74A DUP2 PUSH2 0x5AD JUMP JUMPDEST DUP3 MSTORE POP POP JUMP JUMPDEST PUSH0 PUSH1 0x60 DUP3 ADD SWAP1 POP PUSH2 0x763 PUSH0 DUP4 ADD DUP7 PUSH2 0x732 JUMP JUMPDEST PUSH2 0x770 PUSH1 0x20 DUP4 ADD DUP6 PUSH2 0x741 JUMP JUMPDEST PUSH2 0x77D PUSH1 0x40 DUP4 ADD DUP5 PUSH2 0x741 JUMP JUMPDEST SWAP5 SWAP4 POP POP POP POP JUMP JUMPDEST PUSH0 DUP2 SWAP1 POP SWAP3 SWAP2 POP POP JUMP JUMPDEST PUSH32 0x1901000000000000000000000000000000000000000000000000000000000000 PUSH0 DUP3 ADD MSTORE POP JUMP JUMPDEST PUSH0 PUSH2 0x7C3 PUSH1 0x2 DUP4 PUSH2 0x785 JUMP JUMPDEST SWAP2 POP PUSH2 0x7CE DUP3 PUSH2 0x78F JUMP JUMPDEST PUSH1 0x2 DUP3 ADD SWAP1 POP SWAP2 SWAP1 POP JUMP JUMPDEST PUSH0 DUP2 SWAP1 POP SWAP2 SWAP1 POP JUMP JUMPDEST PUSH2 0x7F3 PUSH2 0x7EE DUP3 PUSH2 0x485 JUMP JUMPDEST PUSH2 0x7D9 JUMP JUMPDEST DUP3 MSTORE POP POP JUMP JUMPDEST PUSH0 PUSH2 0x803 DUP3 PUSH2 0x7B7 JUMP JUMPDEST SWAP2 POP PUSH2 0x80F DUP3 DUP6 PUSH2 0x7E2 JUMP JUMPDEST PUSH1 0x20 DUP3 ADD SWAP2 POP PUSH2 0x81F DUP3 DUP5 PUSH2 0x7E2 JUMP JUMPDEST PUSH1 0x20 DUP3 ADD SWAP2 POP DUP2 SWAP1 POP SWAP4 SWAP3 POP POP POP JUMP JUMPDEST PUSH32 0x4E487B7100000000000000000000000000000000000000000000000000000000 PUSH0 MSTORE PUSH1 0x21 PUSH1 0x4 MSTORE PUSH1 0x24 PUSH0 REVERT JUMPDEST PUSH0 PUSH1 0x20 DUP3 ADD SWAP1 POP PUSH2 0x86F PUSH0 DUP4 ADD DUP5 PUSH2 0x741 JUMP JUMPDEST SWAP3 SWAP2 POP POP JUMP JUMPDEST PUSH0 PUSH1 0xFF DUP3 AND SWAP1 POP SWAP2 SWAP1 POP JUMP JUMPDEST PUSH2 0x88A DUP2 PUSH2 0x875 JUMP JUMPDEST DUP3 MSTORE POP POP JUMP JUMPDEST PUSH0 PUSH1 0x80 DUP3 ADD SWAP1 POP PUSH2 0x8A3 PUSH0 DUP4 ADD DUP8 PUSH2 0x48E JUMP JUMPDEST PUSH2 0x8B0 PUSH1 0x20 DUP4 ADD DUP7 PUSH2 0x881 JUMP JUMPDEST PUSH2 0x8BD PUSH1 0x40 DUP4 ADD DUP6 PUSH2 0x48E JUMP JUMPDEST PUSH2 0x8CA PUSH1 0x60 DUP4 ADD DUP5 PUSH2 0x48E JUMP JUMPDEST SWAP6 SWAP5 POP POP POP POP POP JUMP INVALID LOG2 PUSH5 0x6970667358 0x22 SLT KECCAK256 COINBASE SWAP11 0xAD 0xBD DUP16 0xB0 CODESIZE EQ BYTE 0xE3 0xD3 0x1F PUSH23 0x9CB2AA0B76A67A022D46DA2B1B3FC5B9BF937A64736F6C PUSH4 0x4300081A STOP CALLER "
				},
				"gasEstimates": {
					"creation": {
						"codeDepositCost": "462600",
						"executionCost": "497",
						"totalCost": "463097"
					},
					"external": {
						"DOMAIN_HASH()": "303",
						"verify((address,uint256,uint256),bytes)": "infinite"
					}
				},
				"methodIdentifiers": {
					"DOMAIN_HASH()": "8b114f7a",
					"verify((address,uint256,uint256),bytes)": "fdbeb5ee"
				}
			},
			"storageLayout": {
				"storage": [],
				"types": null
			},
			"userdoc": {
				"kind": "user",
				"methods": {},
				"version": 1
			}
		}
	}
}