{
	"data": {
		"bytecode": {
			"linkReferences": {},
			"object": "6080604052348015600e575f5ffd5b5061037a8061001c5f395ff3fe608060405234801561000f575f5ffd5b506004361061003f575f3560e01c80635b34b96614610043578063916d57431461004d5780639c37a9401461006b575b5f5ffd5b61004b61009b565b005b6100556101af565b604051610062919061023e565b60405180910390f35b610085600480360381019061008091906102b5565b610201565b604051610092919061023e565b60405180910390f35b60015f5f3373ffffffffffffffffffffffffffffffffffffffff1673ffffffffffffffffffffffffffffffffffffffff1681526020019081526020015f205f8282829054906101000a900463ffffffff166100f6919061030d565b92506101000a81548163ffffffff021916908363ffffffff1602179055503373ffffffffffffffffffffffffffffffffffffffff167f81f2274297ab03c9ec399d8f95862bfb81586566294bf0f051e519c4c50738215f5f3373ffffffffffffffffffffffffffffffffffffffff1673ffffffffffffffffffffffffffffffffffffffff1681526020019081526020015f205f9054906101000a900463ffffffff166040516101a5919061023e565b60405180910390a2565b5f5f5f3373ffffffffffffffffffffffffffffffffffffffff1673ffffffffffffffffffffffffffffffffffffffff1681526020019081526020015f205f9054906101000a900463ffffffff16905090565b5f602052805f5260405f205f915054906101000a900463ffffffff1681565b5f63ffffffff82169050919050565b61023881610220565b82525050565b5f6020820190506102515f83018461022f565b92915050565b5f5ffd5b5f73ffffffffffffffffffffffffffffffffffffffff82169050919050565b5f6102848261025b565b9050919050565b6102948161027a565b811461029e575f5ffd5b50565b5f813590506102af8161028b565b92915050565b5f602082840312156102ca576102c9610257565b5b5f6102d7848285016102a1565b91505092915050565b7f4e487b71000000000000000000000000000000000000000000000000000000005f52601160045260245ffd5b5f61031782610220565b915061032283610220565b9250828201905063ffffffff81111561033e5761033d6102e0565b5b9291505056fea2646970667358221220c024727fb68a33ad0e3436fd9dcb5f76f73f15ff92a619be28e63c2e1551874264736f6c634300081d0033",
			"opcodes": "PUSH1 0x80 PUSH1 0x40 MSTORE CALLVALUE DUP1 ISZERO PUSH1 0xE JUMPI PUSH0 PUSH0 REVERT JUMPDEST POP PUSH2 0x37A DUP1 PUSH2 0x1C PUSH0 CODECOPY PUSH0 RETURN INVALID PUSH1 0x80 PUSH1 0x40 MSTORE CALLVALUE DUP1 ISZERO PUSH2 0xF JUMPI PUSH0 PUSH0 REVERT JUMPDEST POP PUSH1 0x4 CALLDATASIZE LT PUSH2 0x3F JUMPI PUSH0 CALLDATALOAD PUSH1 0xE0 SHR DUP1 PUSH4 0x5B34B966 EQ PUSH2 0x43 JUMPI DUP1 PUSH4 0x916D5743 EQ PUSH2 0x4D JUMPI DUP1 PUSH4 0x9C37A940 EQ PUSH2 0x6B JUMPI JUMPDEST PUSH0 PUSH0 REVERT JUMPDEST PUSH2 0x4B PUSH2 0x9B JUMP JUMPDEST STOP JUMPDEST PUSH2 0x55 PUSH2 0x1AF JUMP JUMPDEST PUSH1 0x40 MLOAD PUSH2 0x62 SWAP2 SWAP1 PUSH2 0x23E JUMP JUMPDEST PUSH1 0x40 MLOAD DUP1 SWAP2 SUB SWAP1 RETURN JUMPDEST PUSH2 0x85 PUSH1 0x4 DUP1 CALLDATASIZE SUB DUP2 ADD SWAP1 PUSH2 0x80 SWAP2 SWAP1 PUSH2 0x2B5 JUMP JUMPDEST PUSH2 0x201 JUMP JUMPDEST PUSH1 0x40 MLOAD PUSH2 0x92 SWAP2 SWAP1 PUSH2 0x23E JUMP JUMPDEST PUSH1 0x40 MLOAD DUP1 SWAP2 SUB SWAP1 RETURN JUMPDEST PUSH1 0x1 PUSH0 PUSH0 CALLER PUSH20 0xFFFFFFFFFFFFFFFFFFFFFFFFFFFFFFFFFFFFFFFF AND PUSH20 0xFFFFFFFFFFFFFFFFFFFFFFFFFFFFFFFFFFFFFFFF AND DUP2 MSTORE PUSH1 0x20 ADD SWAP1 DUP2 MSTORE PUSH1 0x20 ADD PUSH0 KECCAK256 PUSH0 DUP3 DUP3 DUP3 SWAP1 SLOAD SWAP1 PUSH2 0x100 EXP SWAP1 DIV PUSH4 0xFFFFFFFF AND PUSH2 0xF6 SWAP2 SWAP1 PUSH2 0x30D JUMP JUMPDEST SWAP3 POP PUSH2 0x100 EXP DUP2 SLOAD DUP2 PUSH4 0xFFFFFFFF MUL NOT AND SWAP1 DUP4 PUSH4 0xFFFFFFFF AND MUL OR SWAP1 SSTORE POP CALLER PUSH20 0xFFFFFFFFFFFFFFFFFFFFFFFFFFFFFFFFFFFFFFFF AND PUSH32 0x81F2274297AB03C9EC399D8F95862BFB81586566294BF0F051E519C4C5073821 PUSH0 PUSH0 CALLER PUSH20 0xFFFFFFFFFFFFFFFFFFFFFFFFFFFFFFFFFFFFFFFF AND PUSH20 0xFFFFFFFFFFFFFFFFFFFFFFFFFFFFFFFFFFFFFFFF AND DUP2 MSTORE PUSH1 0x20 ADD SWAP1 DUP2 MSTORE PUSH1 0x20 ADD PUSH0 KECCAK256 PUSH0 SWAP1 SLOAD SWAP1 PUSH2 0x100 EXP SWAP1 DIV PUSH4 0xFFFFFFFF AND PUSH1 0x40 MLOAD PUSH2 0x1A5 SWAP2 SWAP1 PUSH2 0x23E JUMP JUMPDEST PUSH1 0x40 MLOAD DUP1 SWAP2 SUB SWAP1 LOG2 JUMP JUMPDEST PUSH0 PUSH0 PUSH0 CALLER PUSH20 0xFFFFFFFFFFFFFFFFFFFFFFFFFFFFFFFFFFFFFFFF AND PUSH20 0xFFFFFFFFFFFFFFFFFFFFFFFFFFFFFFFFFFFFFFFF AND DUP2 MSTORE PUSH1 0x20 ADD SWAP1 DUP2 MSTORE PUSH1 0x20 ADD PUSH0 KECCAK256 PUSH0 SWAP1 SLOAD SWAP1 PUSH2 0x100 EXP SWAP1 DIV PUSH4 0xFFFFFFFF AND SWAP1 POP SWAP1 JUMP JUMPDEST PUSH0 PUSH1 0x20 MSTORE DUP1 PUSH0 MSTORE PUSH1 0x40 PUSH0 KECCAK256 PUSH0 SWAP2 POP SLOAD SWAP1 PUSH2 0x100 EXP SWAP1 DIV PUSH4 0xFFFFFFFF AND DUP2 JUMP JUMPDEST PUSH0 PUSH4 0xFFFFFFFF DUP3 AND SWAP1 POP SWAP2 SWAP1 POP JUMP JUMPDEST PUSH2 0x238 DUP2 PUSH2 0x220 JUMP JUMPDEST DUP3 MSTORE POP POP JUMP JUMPDEST PUSH0 PUSH1 0x20 DUP3 ADD SWAP1 POP PUSH2 0x251 PUSH0 DUP4 ADD DUP5 PUSH2 0x22F JUMP JUMPDEST SWAP3 SWAP2 POP POP JUMP JUMPDEST PUSH0 PUSH0 REVERT JUMPDEST PUSH0 PUSH20 0xFFFFFFFFFFFFFFFFFFFFFFFFFFFFFFFFFFFFFFFF DUP3 AND SWAP1 POP SWAP2 SWAP1 POP JUMP JUMPDEST PUSH0 PUSH2 0x284 DUP3 PUSH2 0x25B JUMP JUMPDEST SWAP1 POP SWAP2 SWAP1 POP JUMP JUMPDEST PUSH2 0x294 DUP2 PUSH2 0x27A JUMP JUMPDEST DUP2 EQ PUSH2 0x29E JUMPI PUSH0 PUSH0 REVERT JUMPDEST POP JUMP JUMPDEST PUSH0 DUP2 CALLDATALOAD SWAP1 POP PUSH2 0x2AF DUP2 PUSH2 0x28B JUMP JUMPDEST SWAP3 SWAP2 POP POP JUMP JUMPDEST PUSH0 PUSH1 0x20 DUP3 DUP5 SUB SLT ISZERO PUSH2 0x2CA JUMPI PUSH2 0x2C9 PUSH2 0x257 JUMP JUMPDEST JUMPDEST PUSH0 PUSH2 0x2D7 DUP5 DUP3 DUP6 ADD PUSH2 0x2A1 JUMP JUMPDEST SWAP2 POP POP SWAP3 SWAP2 POP POP JUMP JUMPDEST PUSH32 0x4E487B7100000000000000000000000000000000000000000000000000000000 PUSH0 MSTORE PUSH1 0x11 PUSH1 0x4 MSTORE PUSH1 0x24 PUSH0 REVERT JUMPDEST PUSH0 PUSH2 0x317 DUP3 PUSH2 0x220 JUMP JUMPDEST SWAP2 POP PUSH2 0x322 DUP4 PUSH2 0x220 JUMP JUMPDEST SWAP3 POP DUP3 DUP3 ADD SWAP1 POP PUSH4 0xFFFFFFFF DUP2 GT ISZERO PUSH2 0x33E JUMPI PUSH2 0x33D PUSH2 0x2E0 JUMP JUMPDEST JUMPDEST SWAP3 SWAP2 POP POP JUMP INVALID LOG2 PUSH5 0x6970667358 0x22 SLT KECCAK256 0xC0 0x24 PUSH19 0x7FB68A33AD0E3436FD9DCB5F76F73F15FF92A6 NOT 0xBE 0x28 DUPN 0x3C 0x2E ISZERO MLOAD DUP8 TIMESTAMP PUSH5 0x736F6C6343 STOP ADDMOD SAR STOP CALLER "
		},
		"gasEstimates": {
			"creation": {
				"codeDepositCost": "178000",
				"executionCost": "218",
				"totalCost": "178218"
			},
			"external": {
				"getMyCounter()": "2559",
				"incrementCounter()": "infinite",
				"smallCounters(address)": "2854"
			}
		},
		"methodIdentifiers": {
			"getMyCounter()": "916d5743",
			"incrementCounter()": "5b34b966",
			"smallCounters(address)": "9c37a940"
		}
	},
	"abi": [
		{
			"anonymous": false,
			"inputs": [
				{
					"indexed": true,
					"internalType": "address",
					"name": "user",
					"type": "address"
				},
				{
					"indexed": false,
					"internalType": "uint32",
					"name": "newValue",
					"type": "uint32"
				}
			],
			"name": "CounterIncremented",
			"type": "event"
		},
		{
			"inputs": [],
			"name": "getMyCounter",
			"outputs": [
				{
					"internalType": "uint32",
					"name": "",
					"type": "uint32"
				}
			],
			"stateMutability": "view",
			"type": "function"
		},
		{
			"inputs": [],
			"name": "incrementCounter",
			"outputs": [],
			"stateMutability": "nonpayable",
			"type": "function"
		},
		{
			"inputs": [
				{
					"internalType": "address",
					"name": "",
					"type": "address"
				}
			],
			"name": "smallCounters",
			"outputs": [
				{
					"internalType": "uint32",
					"name": "",
					"type": "uint32"
				}
			],
			"stateMutability": "view",
			"type": "function"
		}
	]
}