{
	"N/Netmask/NetmaskValidator.sol": {
		"NetmaskValidator": {
			"abi": [
				{
					"inputs": [
						{
							"internalType": "uint160",
							"name": "mask",
							"type": "uint160"
						}
					],
					"name": "validateMask",
					"outputs": [
						{
							"internalType": "bool",
							"name": "",
							"type": "bool"
						}
					],
					"stateMutability": "pure",
					"type": "function"
				}
			],
			"devdoc": {
				"kind": "dev",
				"methods": {},
				"version": 1
			},
			"evm": {
				"assembly": "    /* \"N/Netmask/NetmaskValidator.sol\":0:435  contract NetmaskValidator {... */\n  mstore(0x40, 0x80)\n  callvalue\n  dup1\n  iszero\n  tag_1\n  jumpi\n  0x00\n  dup1\n  revert\ntag_1:\n  pop\n  dataSize(sub_0)\n  dup1\n  dataOffset(sub_0)\n  0x00\n  codecopy\n  0x00\n  return\nstop\n\nsub_0: assembly {\n        /* \"N/Netmask/NetmaskValidator.sol\":0:435  contract NetmaskValidator {... */\n      mstore(0x40, 0x80)\n      callvalue\n      dup1\n      iszero\n      tag_1\n      jumpi\n      0x00\n      dup1\n      revert\n    tag_1:\n      pop\n      jumpi(tag_2, lt(calldatasize, 0x04))\n      shr(0xe0, calldataload(0x00))\n      dup1\n      0x96045814\n      eq\n      tag_3\n      jumpi\n    tag_2:\n      0x00\n      dup1\n      revert\n        /* \"N/Netmask/NetmaskValidator.sol\":32:433  function validateMask(uint160 mask) external pure returns (bool) {... */\n    tag_3:\n      tag_4\n      0x04\n      dup1\n      calldatasize\n      sub\n      dup2\n      add\n      swap1\n      tag_5\n      swap2\n      swap1\n      tag_6\n      jump\t// in\n    tag_5:\n      tag_7\n      jump\t// in\n    tag_4:\n      mload(0x40)\n      tag_8\n      swap2\n      swap1\n      tag_9\n      jump\t// in\n    tag_8:\n      mload(0x40)\n      dup1\n      swap2\n      sub\n      swap1\n      return\n    tag_7:\n        /* \"N/Netmask/NetmaskValidator.sol\":91:95  bool */\n      0x00\n        /* \"N/Netmask/NetmaskValidator.sol\":179:192  bool seenZero */\n      dup1\n        /* \"N/Netmask/NetmaskValidator.sol\":195:200  false */\n      0x00\n        /* \"N/Netmask/NetmaskValidator.sol\":179:200  bool seenZero = false */\n      swap1\n      pop\n        /* \"N/Netmask/NetmaskValidator.sol\":215:224  uint256 i */\n      0x00\n        /* \"N/Netmask/NetmaskValidator.sol\":227:230  159 */\n      0x9f\n        /* \"N/Netmask/NetmaskValidator.sol\":215:230  uint256 i = 159 */\n      swap1\n      pop\n        /* \"N/Netmask/NetmaskValidator.sol\":210:406  for (uint256 i = 159; i >= 0; i--) {... */\n    tag_11:\n        /* \"N/Netmask/NetmaskValidator.sol\":237:238  0 */\n      0x00\n        /* \"N/Netmask/NetmaskValidator.sol\":232:233  i */\n      dup2\n        /* \"N/Netmask/NetmaskValidator.sol\":232:238  i >= 0 */\n      lt\n        /* \"N/Netmask/NetmaskValidator.sol\":210:406  for (uint256 i = 159; i >= 0; i--) {... */\n      tag_12\n      jumpi\n        /* \"N/Netmask/NetmaskValidator.sol\":259:267  bool bit */\n      0x00\n        /* \"N/Netmask/NetmaskValidator.sol\":291:292  0 */\n      dup1\n        /* \"N/Netmask/NetmaskValidator.sol\":284:285  i */\n      dup3\n        /* \"N/Netmask/NetmaskValidator.sol\":279:280  1 */\n      0x01\n        /* \"N/Netmask/NetmaskValidator.sol\":279:285  1 << i */\n      swap1\n      shl\n        /* \"N/Netmask/NetmaskValidator.sol\":271:275  mask */\n      dup7\n        /* \"N/Netmask/NetmaskValidator.sol\":271:286  mask & (1 << i) */\n      0xffffffffffffffffffffffffffffffffffffffff\n      and\n      and\n        /* \"N/Netmask/NetmaskValidator.sol\":270:292  (mask & (1 << i)) != 0 */\n      eq\n      iszero\n        /* \"N/Netmask/NetmaskValidator.sol\":259:292  bool bit = (mask & (1 << i)) != 0 */\n      swap1\n      pop\n        /* \"N/Netmask/NetmaskValidator.sol\":311:314  bit */\n      dup1\n        /* \"N/Netmask/NetmaskValidator.sol\":306:331  if (!bit) seenZero = true */\n      tag_14\n      jumpi\n        /* \"N/Netmask/NetmaskValidator.sol\":327:331  true */\n      0x01\n        /* \"N/Netmask/NetmaskValidator.sol\":316:331  seenZero = true */\n      swap3\n      pop\n        /* \"N/Netmask/NetmaskValidator.sol\":306:331  if (!bit) seenZero = true */\n    tag_14:\n        /* \"N/Netmask/NetmaskValidator.sol\":349:352  bit */\n      dup1\n        /* \"N/Netmask/NetmaskValidator.sol\":349:364  bit && seenZero */\n      dup1\n      iszero\n      tag_15\n      jumpi\n      pop\n        /* \"N/Netmask/NetmaskValidator.sol\":356:364  seenZero */\n      dup3\n        /* \"N/Netmask/NetmaskValidator.sol\":349:364  bit && seenZero */\n    tag_15:\n        /* \"N/Netmask/NetmaskValidator.sol\":345:378  if (bit && seenZero) return false */\n      iszero\n      tag_16\n      jumpi\n        /* \"N/Netmask/NetmaskValidator.sol\":373:378  false */\n      0x00\n        /* \"N/Netmask/NetmaskValidator.sol\":366:378  return false */\n      swap4\n      pop\n      pop\n      pop\n      pop\n      jump(tag_10)\n        /* \"N/Netmask/NetmaskValidator.sol\":345:378  if (bit && seenZero) return false */\n    tag_16:\n        /* \"N/Netmask/NetmaskValidator.sol\":245:406  {... */\n      pop\n        /* \"N/Netmask/NetmaskValidator.sol\":240:243  i-- */\n      dup1\n      dup1\n      tag_17\n      swap1\n      tag_18\n      jump\t// in\n    tag_17:\n      swap2\n      pop\n      pop\n        /* \"N/Netmask/NetmaskValidator.sol\":210:406  for (uint256 i = 159; i >= 0; i--) {... */\n      jump(tag_11)\n    tag_12:\n      pop\n        /* \"N/Netmask/NetmaskValidator.sol\":422:426  true */\n      0x01\n        /* \"N/Netmask/NetmaskValidator.sol\":415:426  return true */\n      swap2\n      pop\n      pop\n        /* \"N/Netmask/NetmaskValidator.sol\":32:433  function validateMask(uint160 mask) external pure returns (bool) {... */\n    tag_10:\n      swap2\n      swap1\n      pop\n      jump\t// out\n        /* \"#utility.yul\":88:205   */\n    tag_20:\n        /* \"#utility.yul\":197:198   */\n      0x00\n        /* \"#utility.yul\":194:195   */\n      dup1\n        /* \"#utility.yul\":187:199   */\n      revert\n        /* \"#utility.yul\":334:460   */\n    tag_22:\n        /* \"#utility.yul\":371:378   */\n      0x00\n        /* \"#utility.yul\":411:453   */\n      0xffffffffffffffffffffffffffffffffffffffff\n        /* \"#utility.yul\":404:409   */\n      dup3\n        /* \"#utility.yul\":400:454   */\n      and\n        /* \"#utility.yul\":389:454   */\n      swap1\n      pop\n        /* \"#utility.yul\":334:460   */\n      swap2\n      swap1\n      pop\n      jump\t// out\n        /* \"#utility.yul\":466:588   */\n    tag_23:\n        /* \"#utility.yul\":539:563   */\n      tag_35\n        /* \"#utility.yul\":557:562   */\n      dup2\n        /* \"#utility.yul\":539:563   */\n      tag_22\n      jump\t// in\n    tag_35:\n        /* \"#utility.yul\":532:537   */\n      dup2\n        /* \"#utility.yul\":529:564   */\n      eq\n        /* \"#utility.yul\":519:582   */\n      tag_36\n      jumpi\n        /* \"#utility.yul\":578:579   */\n      0x00\n        /* \"#utility.yul\":575:576   */\n      dup1\n        /* \"#utility.yul\":568:580   */\n      revert\n        /* \"#utility.yul\":519:582   */\n    tag_36:\n        /* \"#utility.yul\":466:588   */\n      pop\n      jump\t// out\n        /* \"#utility.yul\":594:733   */\n    tag_24:\n        /* \"#utility.yul\":640:645   */\n      0x00\n        /* \"#utility.yul\":678:684   */\n      dup2\n        /* \"#utility.yul\":665:685   */\n      calldataload\n        /* \"#utility.yul\":656:685   */\n      swap1\n      pop\n        /* \"#utility.yul\":694:727   */\n      tag_38\n        /* \"#utility.yul\":721:726   */\n      dup2\n        /* \"#utility.yul\":694:727   */\n      tag_23\n      jump\t// in\n    tag_38:\n        /* \"#utility.yul\":594:733   */\n      swap3\n      swap2\n      pop\n      pop\n      jump\t// out\n        /* \"#utility.yul\":739:1068   */\n    tag_6:\n        /* \"#utility.yul\":798:804   */\n      0x00\n        /* \"#utility.yul\":847:849   */\n      0x20\n        /* \"#utility.yul\":835:844   */\n      dup3\n        /* \"#utility.yul\":826:833   */\n      dup5\n        /* \"#utility.yul\":822:845   */\n      sub\n        /* \"#utility.yul\":818:850   */\n      slt\n        /* \"#utility.yul\":815:934   */\n      iszero\n      tag_40\n      jumpi\n        /* \"#utility.yul\":853:932   */\n      tag_41\n      tag_20\n      jump\t// in\n    tag_41:\n        /* \"#utility.yul\":815:934   */\n    tag_40:\n        /* \"#utility.yul\":973:974   */\n      0x00\n        /* \"#utility.yul\":998:1051   */\n      tag_42\n        /* \"#utility.yul\":1043:1050   */\n      dup5\n        /* \"#utility.yul\":1034:1040   */\n      dup3\n        /* \"#utility.yul\":1023:1032   */\n      dup6\n        /* \"#utility.yul\":1019:1041   */\n      add\n        /* \"#utility.yul\":998:1051   */\n      tag_24\n      jump\t// in\n    tag_42:\n        /* \"#utility.yul\":988:1051   */\n      swap2\n      pop\n        /* \"#utility.yul\":944:1061   */\n      pop\n        /* \"#utility.yul\":739:1068   */\n      swap3\n      swap2\n      pop\n      pop\n      jump\t// out\n        /* \"#utility.yul\":1074:1164   */\n    tag_25:\n        /* \"#utility.yul\":1108:1115   */\n      0x00\n        /* \"#utility.yul\":1151:1156   */\n      dup2\n        /* \"#utility.yul\":1144:1157   */\n      iszero\n        /* \"#utility.yul\":1137:1158   */\n      iszero\n        /* \"#utility.yul\":1126:1158   */\n      swap1\n      pop\n        /* \"#utility.yul\":1074:1164   */\n      swap2\n      swap1\n      pop\n      jump\t// out\n        /* \"#utility.yul\":1170:1279   */\n    tag_26:\n        /* \"#utility.yul\":1251:1272   */\n      tag_45\n        /* \"#utility.yul\":1266:1271   */\n      dup2\n        /* \"#utility.yul\":1251:1272   */\n      tag_25\n      jump\t// in\n    tag_45:\n        /* \"#utility.yul\":1246:1249   */\n      dup3\n        /* \"#utility.yul\":1239:1273   */\n      mstore\n        /* \"#utility.yul\":1170:1279   */\n      pop\n      pop\n      jump\t// out\n        /* \"#utility.yul\":1285:1495   */\n    tag_9:\n        /* \"#utility.yul\":1372:1376   */\n      0x00\n        /* \"#utility.yul\":1410:1412   */\n      0x20\n        /* \"#utility.yul\":1399:1408   */\n      dup3\n        /* \"#utility.yul\":1395:1413   */\n      add\n        /* \"#utility.yul\":1387:1413   */\n      swap1\n      pop\n        /* \"#utility.yul\":1423:1488   */\n      tag_47\n        /* \"#utility.yul\":1485:1486   */\n      0x00\n        /* \"#utility.yul\":1474:1483   */\n      dup4\n        /* \"#utility.yul\":1470:1487   */\n      add\n        /* \"#utility.yul\":1461:1467   */\n      dup5\n        /* \"#utility.yul\":1423:1488   */\n      tag_26\n      jump\t// in\n    tag_47:\n        /* \"#utility.yul\":1285:1495   */\n      swap3\n      swap2\n      pop\n      pop\n      jump\t// out\n        /* \"#utility.yul\":1501:1681   */\n    tag_27:\n        /* \"#utility.yul\":1549:1626   */\n      0x4e487b7100000000000000000000000000000000000000000000000000000000\n        /* \"#utility.yul\":1546:1547   */\n      0x00\n        /* \"#utility.yul\":1539:1627   */\n      mstore\n        /* \"#utility.yul\":1646:1650   */\n      0x11\n        /* \"#utility.yul\":1643:1644   */\n      0x04\n        /* \"#utility.yul\":1636:1651   */\n      mstore\n        /* \"#utility.yul\":1670:1674   */\n      0x24\n        /* \"#utility.yul\":1667:1668   */\n      0x00\n        /* \"#utility.yul\":1660:1675   */\n      revert\n        /* \"#utility.yul\":1687:1764   */\n    tag_28:\n        /* \"#utility.yul\":1724:1731   */\n      0x00\n        /* \"#utility.yul\":1753:1758   */\n      dup2\n        /* \"#utility.yul\":1742:1758   */\n      swap1\n      pop\n        /* \"#utility.yul\":1687:1764   */\n      swap2\n      swap1\n      pop\n      jump\t// out\n        /* \"#utility.yul\":1770:1941   */\n    tag_18:\n        /* \"#utility.yul\":1809:1812   */\n      0x00\n        /* \"#utility.yul\":1832:1856   */\n      tag_51\n        /* \"#utility.yul\":1850:1855   */\n      dup3\n        /* \"#utility.yul\":1832:1856   */\n      tag_28\n      jump\t// in\n    tag_51:\n        /* \"#utility.yul\":1823:1856   */\n      swap2\n      pop\n        /* \"#utility.yul\":1878:1882   */\n      0x00\n        /* \"#utility.yul\":1871:1876   */\n      dup3\n        /* \"#utility.yul\":1868:1883   */\n      sub\n        /* \"#utility.yul\":1865:1906   */\n      tag_52\n      jumpi\n        /* \"#utility.yul\":1886:1904   */\n      tag_53\n      tag_27\n      jump\t// in\n    tag_53:\n        /* \"#utility.yul\":1865:1906   */\n    tag_52:\n        /* \"#utility.yul\":1933:1934   */\n      0x01\n        /* \"#utility.yul\":1926:1931   */\n      dup3\n        /* \"#utility.yul\":1922:1935   */\n      sub\n        /* \"#utility.yul\":1915:1935   */\n      swap1\n      pop\n        /* \"#utility.yul\":1770:1941   */\n      swap2\n      swap1\n      pop\n      jump\t// out\n\n    auxdata: 0xa2646970667358221220fd95f9c072d1a121d91cc7e11443e22fd00b7ea0b98f986cd371a79aebd71b6d64736f6c634300081a0033\n}\n",
				"bytecode": {
					"linkReferences": {},
					"object": "6080604052348015600e575f80fd5b506102148061001c5f395ff3fe608060405234801561000f575f80fd5b5060043610610029575f3560e01c8063960458141461002d575b5f80fd5b61004760048036038101906100429190610123565b61005d565b6040516100549190610168565b60405180910390f35b5f805f90505f609f90505b5f81106100ca575f80826001901b8673ffffffffffffffffffffffffffffffffffffffff1616141590508061009c57600192505b8080156100a65750825b156100b6575f93505050506100d1565b5080806100c2906101b7565b915050610068565b5060019150505b919050565b5f80fd5b5f73ffffffffffffffffffffffffffffffffffffffff82169050919050565b610102816100da565b811461010c575f80fd5b50565b5f8135905061011d816100f9565b92915050565b5f60208284031215610138576101376100d6565b5b5f6101458482850161010f565b91505092915050565b5f8115159050919050565b6101628161014e565b82525050565b5f60208201905061017b5f830184610159565b92915050565b7f4e487b71000000000000000000000000000000000000000000000000000000005f52601160045260245ffd5b5f819050919050565b5f6101c1826101ae565b91505f82036101d3576101d2610181565b5b60018203905091905056fea2646970667358221220fd95f9c072d1a121d91cc7e11443e22fd00b7ea0b98f986cd371a79aebd71b6d64736f6c634300081a0033",
					"opcodes": "PUSH1 0x80 PUSH1 0x40 MSTORE CALLVALUE DUP1 ISZERO PUSH1 0xE JUMPI PUSH0 DUP1 REVERT JUMPDEST POP PUSH2 0x214 DUP1 PUSH2 0x1C PUSH0 CODECOPY PUSH0 RETURN INVALID PUSH1 0x80 PUSH1 0x40 MSTORE CALLVALUE DUP1 ISZERO PUSH2 0xF JUMPI PUSH0 DUP1 REVERT JUMPDEST POP PUSH1 0x4 CALLDATASIZE LT PUSH2 0x29 JUMPI PUSH0 CALLDATALOAD PUSH1 0xE0 SHR DUP1 PUSH4 0x96045814 EQ PUSH2 0x2D JUMPI JUMPDEST PUSH0 DUP1 REVERT JUMPDEST PUSH2 0x47 PUSH1 0x4 DUP1 CALLDATASIZE SUB DUP2 ADD SWAP1 PUSH2 0x42 SWAP2 SWAP1 PUSH2 0x123 JUMP JUMPDEST PUSH2 0x5D JUMP JUMPDEST PUSH1 0x40 MLOAD PUSH2 0x54 SWAP2 SWAP1 PUSH2 0x168 JUMP JUMPDEST PUSH1 0x40 MLOAD DUP1 SWAP2 SUB SWAP1 RETURN JUMPDEST PUSH0 DUP1 PUSH0 SWAP1 POP PUSH0 PUSH1 0x9F SWAP1 POP JUMPDEST PUSH0 DUP2 LT PUSH2 0xCA JUMPI PUSH0 DUP1 DUP3 PUSH1 0x1 SWAP1 SHL DUP7 PUSH20 0xFFFFFFFFFFFFFFFFFFFFFFFFFFFFFFFFFFFFFFFF AND AND EQ ISZERO SWAP1 POP DUP1 PUSH2 0x9C JUMPI PUSH1 0x1 SWAP3 POP JUMPDEST DUP1 DUP1 ISZERO PUSH2 0xA6 JUMPI POP DUP3 JUMPDEST ISZERO PUSH2 0xB6 JUMPI PUSH0 SWAP4 POP POP POP POP PUSH2 0xD1 JUMP JUMPDEST POP DUP1 DUP1 PUSH2 0xC2 SWAP1 PUSH2 0x1B7 JUMP JUMPDEST SWAP2 POP POP PUSH2 0x68 JUMP JUMPDEST POP PUSH1 0x1 SWAP2 POP POP JUMPDEST SWAP2 SWAP1 POP JUMP JUMPDEST PUSH0 DUP1 REVERT JUMPDEST PUSH0 PUSH20 0xFFFFFFFFFFFFFFFFFFFFFFFFFFFFFFFFFFFFFFFF DUP3 AND SWAP1 POP SWAP2 SWAP1 POP JUMP JUMPDEST PUSH2 0x102 DUP2 PUSH2 0xDA JUMP JUMPDEST DUP2 EQ PUSH2 0x10C JUMPI PUSH0 DUP1 REVERT JUMPDEST POP JUMP JUMPDEST PUSH0 DUP2 CALLDATALOAD SWAP1 POP PUSH2 0x11D DUP2 PUSH2 0xF9 JUMP JUMPDEST SWAP3 SWAP2 POP POP JUMP JUMPDEST PUSH0 PUSH1 0x20 DUP3 DUP5 SUB SLT ISZERO PUSH2 0x138 JUMPI PUSH2 0x137 PUSH2 0xD6 JUMP JUMPDEST JUMPDEST PUSH0 PUSH2 0x145 DUP5 DUP3 DUP6 ADD PUSH2 0x10F JUMP JUMPDEST SWAP2 POP POP SWAP3 SWAP2 POP POP JUMP JUMPDEST PUSH0 DUP2 ISZERO ISZERO SWAP1 POP SWAP2 SWAP1 POP JUMP JUMPDEST PUSH2 0x162 DUP2 PUSH2 0x14E JUMP JUMPDEST DUP3 MSTORE POP POP JUMP JUMPDEST PUSH0 PUSH1 0x20 DUP3 ADD SWAP1 POP PUSH2 0x17B PUSH0 DUP4 ADD DUP5 PUSH2 0x159 JUMP JUMPDEST SWAP3 SWAP2 POP POP JUMP JUMPDEST PUSH32 0x4E487B7100000000000000000000000000000000000000000000000000000000 PUSH0 MSTORE PUSH1 0x11 PUSH1 0x4 MSTORE PUSH1 0x24 PUSH0 REVERT JUMPDEST PUSH0 DUP2 SWAP1 POP SWAP2 SWAP1 POP JUMP JUMPDEST PUSH0 PUSH2 0x1C1 DUP3 PUSH2 0x1AE JUMP JUMPDEST SWAP2 POP PUSH0 DUP3 SUB PUSH2 0x1D3 JUMPI PUSH2 0x1D2 PUSH2 0x181 JUMP JUMPDEST JUMPDEST PUSH1 0x1 DUP3 SUB SWAP1 POP SWAP2 SWAP1 POP JUMP INVALID LOG2 PUSH5 0x6970667358 0x22 SLT KECCAK256 REVERT SWAP6 0xF9 0xC0 PUSH19 0xD1A121D91CC7E11443E22FD00B7EA0B98F986C 0xD3 PUSH18 0xA79AEBD71B6D64736F6C634300081A003300 "
				},
				"gasEstimates": {
					"creation": {
						"codeDepositCost": "106400",
						"executionCost": "151",
						"totalCost": "106551"
					},
					"external": {
						"validateMask(uint160)": "infinite"
					}
				},
				"methodIdentifiers": {
					"validateMask(uint160)": "96045814"
				}
			},
			"storageLayout": {
				"storage": [],
				"types": null
			},
			"userdoc": {
				"kind": "user",
				"methods": {},
				"version": 1
			}
		}
	}
}