{
	"data": {
		"bytecode": {
			"linkReferences": {},
			"object": "6080604052348015600e575f80fd5b506106338061001c5f395ff3fe608060405260043610610033575f3560e01c80634e71d92d14610037578063d0e30db01461004d578063e3d670d714610057575b5f80fd5b348015610042575f80fd5b5061004b610093565b005b6100556102bc565b005b348015610062575f80fd5b5061007d60048036038101906100789190610382565b610310565b60405161008a91906103c5565b60405180910390f35b60015f9054906101000a900460ff16156100e2576040517f08c379a00000000000000000000000000000000000000000000000000000000081526004016100d990610438565b60405180910390fd5b6001805f6101000a81548160ff0219169083151502179055505f805f3373ffffffffffffffffffffffffffffffffffffffff1673ffffffffffffffffffffffffffffffffffffffff1681526020019081526020015f205490505f811161017d576040517f08c379a0000000000000000000000000000000000000000000000000000000008152600401610174906104a0565b60405180910390fd5b5f3373ffffffffffffffffffffffffffffffffffffffff16826040516101a2906104eb565b5f6040518083038185875af1925050503d805f81146101dc576040519150601f19603f3d011682016040523d82523d5f602084013e6101e1565b606091505b5050905080610225576040517f08c379a000000000000000000000000000000000000000000000000000000000815260040161021c90610549565b60405180910390fd5b5f805f3373ffffffffffffffffffffffffffffffffffffffff1673ffffffffffffffffffffffffffffffffffffffff1681526020019081526020015f20819055507fd8138f8a3f377c5259ca548e70e4c2de94f129f5a11036a15b69513cba2b426a3383604051610297929190610576565b60405180910390a15f60015f6101000a81548160ff0219169083151502179055505050565b345f803373ffffffffffffffffffffffffffffffffffffffff1673ffffffffffffffffffffffffffffffffffffffff1681526020019081526020015f205f82825461030791906105ca565b92505081905550565b5f602052805f5260405f205f915090505481565b5f80fd5b5f73ffffffffffffffffffffffffffffffffffffffff82169050919050565b5f61035182610328565b9050919050565b61036181610347565b811461036b575f80fd5b50565b5f8135905061037c81610358565b92915050565b5f6020828403121561039757610396610324565b5b5f6103a48482850161036e565b91505092915050565b5f819050919050565b6103bf816103ad565b82525050565b5f6020820190506103d85f8301846103b6565b92915050565b5f82825260208201905092915050565b7f4c6f636b656400000000000000000000000000000000000000000000000000005f82015250565b5f6104226006836103de565b915061042d826103ee565b602082019050919050565b5f6020820190508181035f83015261044f81610416565b9050919050565b7f4e6f7468696e67000000000000000000000000000000000000000000000000005f82015250565b5f61048a6007836103de565b915061049582610456565b602082019050919050565b5f6020820190508181035f8301526104b78161047e565b9050919050565b5f81905092915050565b50565b5f6104d65f836104be565b91506104e1826104c8565b5f82019050919050565b5f6104f5826104cb565b9150819050919050565b7f4661696c000000000000000000000000000000000000000000000000000000005f82015250565b5f6105336004836103de565b915061053e826104ff565b602082019050919050565b5f6020820190508181035f83015261056081610527565b9050919050565b61057081610347565b82525050565b5f6040820190506105895f830185610567565b61059660208301846103b6565b9392505050565b7f4e487b71000000000000000000000000000000000000000000000000000000005f52601160045260245ffd5b5f6105d4826103ad565b91506105df836103ad565b92508282019050808211156105f7576105f661059d565b5b9291505056fea2646970667358221220c85df237d5ca5e45f848c33da024490494f14695b389744c70858e10e614793164736f6c634300081a0033",
			"opcodes": "PUSH1 0x80 PUSH1 0x40 MSTORE CALLVALUE DUP1 ISZERO PUSH1 0xE JUMPI PUSH0 DUP1 REVERT JUMPDEST POP PUSH2 0x633 DUP1 PUSH2 0x1C PUSH0 CODECOPY PUSH0 RETURN INVALID PUSH1 0x80 PUSH1 0x40 MSTORE PUSH1 0x4 CALLDATASIZE LT PUSH2 0x33 JUMPI PUSH0 CALLDATALOAD PUSH1 0xE0 SHR DUP1 PUSH4 0x4E71D92D EQ PUSH2 0x37 JUMPI DUP1 PUSH4 0xD0E30DB0 EQ PUSH2 0x4D JUMPI DUP1 PUSH4 0xE3D670D7 EQ PUSH2 0x57 JUMPI JUMPDEST PUSH0 DUP1 REVERT JUMPDEST CALLVALUE DUP1 ISZERO PUSH2 0x42 JUMPI PUSH0 DUP1 REVERT JUMPDEST POP PUSH2 0x4B PUSH2 0x93 JUMP JUMPDEST STOP JUMPDEST PUSH2 0x55 PUSH2 0x2BC JUMP JUMPDEST STOP JUMPDEST CALLVALUE DUP1 ISZERO PUSH2 0x62 JUMPI PUSH0 DUP1 REVERT JUMPDEST POP PUSH2 0x7D PUSH1 0x4 DUP1 CALLDATASIZE SUB DUP2 ADD SWAP1 PUSH2 0x78 SWAP2 SWAP1 PUSH2 0x382 JUMP JUMPDEST PUSH2 0x310 JUMP JUMPDEST PUSH1 0x40 MLOAD PUSH2 0x8A SWAP2 SWAP1 PUSH2 0x3C5 JUMP JUMPDEST PUSH1 0x40 MLOAD DUP1 SWAP2 SUB SWAP1 RETURN JUMPDEST PUSH1 0x1 PUSH0 SWAP1 SLOAD SWAP1 PUSH2 0x100 EXP SWAP1 DIV PUSH1 0xFF AND ISZERO PUSH2 0xE2 JUMPI PUSH1 0x40 MLOAD PUSH32 0x8C379A000000000000000000000000000000000000000000000000000000000 DUP2 MSTORE PUSH1 0x4 ADD PUSH2 0xD9 SWAP1 PUSH2 0x438 JUMP JUMPDEST PUSH1 0x40 MLOAD DUP1 SWAP2 SUB SWAP1 REVERT JUMPDEST PUSH1 0x1 DUP1 PUSH0 PUSH2 0x100 EXP DUP2 SLOAD DUP2 PUSH1 0xFF MUL NOT AND SWAP1 DUP4 ISZERO ISZERO MUL OR SWAP1 SSTORE POP PUSH0 DUP1 PUSH0 CALLER PUSH20 0xFFFFFFFFFFFFFFFFFFFFFFFFFFFFFFFFFFFFFFFF AND PUSH20 0xFFFFFFFFFFFFFFFFFFFFFFFFFFFFFFFFFFFFFFFF AND DUP2 MSTORE PUSH1 0x20 ADD SWAP1 DUP2 MSTORE PUSH1 0x20 ADD PUSH0 KECCAK256 SLOAD SWAP1 POP PUSH0 DUP2 GT PUSH2 0x17D JUMPI PUSH1 0x40 MLOAD PUSH32 0x8C379A000000000000000000000000000000000000000000000000000000000 DUP2 MSTORE PUSH1 0x4 ADD PUSH2 0x174 SWAP1 PUSH2 0x4A0 JUMP JUMPDEST PUSH1 0x40 MLOAD DUP1 SWAP2 SUB SWAP1 REVERT JUMPDEST PUSH0 CALLER PUSH20 0xFFFFFFFFFFFFFFFFFFFFFFFFFFFFFFFFFFFFFFFF AND DUP3 PUSH1 0x40 MLOAD PUSH2 0x1A2 SWAP1 PUSH2 0x4EB JUMP JUMPDEST PUSH0 PUSH1 0x40 MLOAD DUP1 DUP4 SUB DUP2 DUP6 DUP8 GAS CALL SWAP3 POP POP POP RETURNDATASIZE DUP1 PUSH0 DUP2 EQ PUSH2 0x1DC JUMPI PUSH1 0x40 MLOAD SWAP2 POP PUSH1 0x1F NOT PUSH1 0x3F RETURNDATASIZE ADD AND DUP3 ADD PUSH1 0x40 MSTORE RETURNDATASIZE DUP3 MSTORE RETURNDATASIZE PUSH0 PUSH1 0x20 DUP5 ADD RETURNDATACOPY PUSH2 0x1E1 JUMP JUMPDEST PUSH1 0x60 SWAP2 POP JUMPDEST POP POP SWAP1 POP DUP1 PUSH2 0x225 JUMPI PUSH1 0x40 MLOAD PUSH32 0x8C379A000000000000000000000000000000000000000000000000000000000 DUP2 MSTORE PUSH1 0x4 ADD PUSH2 0x21C SWAP1 PUSH2 0x549 JUMP JUMPDEST PUSH1 0x40 MLOAD DUP1 SWAP2 SUB SWAP1 REVERT JUMPDEST PUSH0 DUP1 PUSH0 CALLER PUSH20 0xFFFFFFFFFFFFFFFFFFFFFFFFFFFFFFFFFFFFFFFF AND PUSH20 0xFFFFFFFFFFFFFFFFFFFFFFFFFFFFFFFFFFFFFFFF AND DUP2 MSTORE PUSH1 0x20 ADD SWAP1 DUP2 MSTORE PUSH1 0x20 ADD PUSH0 KECCAK256 DUP2 SWAP1 SSTORE POP PUSH32 0xD8138F8A3F377C5259CA548E70E4C2DE94F129F5A11036A15B69513CBA2B426A CALLER DUP4 PUSH1 0x40 MLOAD PUSH2 0x297 SWAP3 SWAP2 SWAP1 PUSH2 0x576 JUMP JUMPDEST PUSH1 0x40 MLOAD DUP1 SWAP2 SUB SWAP1 LOG1 PUSH0 PUSH1 0x1 PUSH0 PUSH2 0x100 EXP DUP2 SLOAD DUP2 PUSH1 0xFF MUL NOT AND SWAP1 DUP4 ISZERO ISZERO MUL OR SWAP1 SSTORE POP POP POP JUMP JUMPDEST CALLVALUE PUSH0 DUP1 CALLER PUSH20 0xFFFFFFFFFFFFFFFFFFFFFFFFFFFFFFFFFFFFFFFF AND PUSH20 0xFFFFFFFFFFFFFFFFFFFFFFFFFFFFFFFFFFFFFFFF AND DUP2 MSTORE PUSH1 0x20 ADD SWAP1 DUP2 MSTORE PUSH1 0x20 ADD PUSH0 KECCAK256 PUSH0 DUP3 DUP3 SLOAD PUSH2 0x307 SWAP2 SWAP1 PUSH2 0x5CA JUMP JUMPDEST SWAP3 POP POP DUP2 SWAP1 SSTORE POP JUMP JUMPDEST PUSH0 PUSH1 0x20 MSTORE DUP1 PUSH0 MSTORE PUSH1 0x40 PUSH0 KECCAK256 PUSH0 SWAP2 POP SWAP1 POP SLOAD DUP2 JUMP JUMPDEST PUSH0 DUP1 REVERT JUMPDEST PUSH0 PUSH20 0xFFFFFFFFFFFFFFFFFFFFFFFFFFFFFFFFFFFFFFFF DUP3 AND SWAP1 POP SWAP2 SWAP1 POP JUMP JUMPDEST PUSH0 PUSH2 0x351 DUP3 PUSH2 0x328 JUMP JUMPDEST SWAP1 POP SWAP2 SWAP1 POP JUMP JUMPDEST PUSH2 0x361 DUP2 PUSH2 0x347 JUMP JUMPDEST DUP2 EQ PUSH2 0x36B JUMPI PUSH0 DUP1 REVERT JUMPDEST POP JUMP JUMPDEST PUSH0 DUP2 CALLDATALOAD SWAP1 POP PUSH2 0x37C DUP2 PUSH2 0x358 JUMP JUMPDEST SWAP3 SWAP2 POP POP JUMP JUMPDEST PUSH0 PUSH1 0x20 DUP3 DUP5 SUB SLT ISZERO PUSH2 0x397 JUMPI PUSH2 0x396 PUSH2 0x324 JUMP JUMPDEST JUMPDEST PUSH0 PUSH2 0x3A4 DUP5 DUP3 DUP6 ADD PUSH2 0x36E JUMP JUMPDEST SWAP2 POP POP SWAP3 SWAP2 POP POP JUMP JUMPDEST PUSH0 DUP2 SWAP1 POP SWAP2 SWAP1 POP JUMP JUMPDEST PUSH2 0x3BF DUP2 PUSH2 0x3AD JUMP JUMPDEST DUP3 MSTORE POP POP JUMP JUMPDEST PUSH0 PUSH1 0x20 DUP3 ADD SWAP1 POP PUSH2 0x3D8 PUSH0 DUP4 ADD DUP5 PUSH2 0x3B6 JUMP JUMPDEST SWAP3 SWAP2 POP POP JUMP JUMPDEST PUSH0 DUP3 DUP3 MSTORE PUSH1 0x20 DUP3 ADD SWAP1 POP SWAP3 SWAP2 POP POP JUMP JUMPDEST PUSH32 0x4C6F636B65640000000000000000000000000000000000000000000000000000 PUSH0 DUP3 ADD MSTORE POP JUMP JUMPDEST PUSH0 PUSH2 0x422 PUSH1 0x6 DUP4 PUSH2 0x3DE JUMP JUMPDEST SWAP2 POP PUSH2 0x42D DUP3 PUSH2 0x3EE JUMP JUMPDEST PUSH1 0x20 DUP3 ADD SWAP1 POP SWAP2 SWAP1 POP JUMP JUMPDEST PUSH0 PUSH1 0x20 DUP3 ADD SWAP1 POP DUP2 DUP2 SUB PUSH0 DUP4 ADD MSTORE PUSH2 0x44F DUP2 PUSH2 0x416 JUMP JUMPDEST SWAP1 POP SWAP2 SWAP1 POP JUMP JUMPDEST PUSH32 0x4E6F7468696E6700000000000000000000000000000000000000000000000000 PUSH0 DUP3 ADD MSTORE POP JUMP JUMPDEST PUSH0 PUSH2 0x48A PUSH1 0x7 DUP4 PUSH2 0x3DE JUMP JUMPDEST SWAP2 POP PUSH2 0x495 DUP3 PUSH2 0x456 JUMP JUMPDEST PUSH1 0x20 DUP3 ADD SWAP1 POP SWAP2 SWAP1 POP JUMP JUMPDEST PUSH0 PUSH1 0x20 DUP3 ADD SWAP1 POP DUP2 DUP2 SUB PUSH0 DUP4 ADD MSTORE PUSH2 0x4B7 DUP2 PUSH2 0x47E JUMP JUMPDEST SWAP1 POP SWAP2 SWAP1 POP JUMP JUMPDEST PUSH0 DUP2 SWAP1 POP SWAP3 SWAP2 POP POP JUMP JUMPDEST POP JUMP JUMPDEST PUSH0 PUSH2 0x4D6 PUSH0 DUP4 PUSH2 0x4BE JUMP JUMPDEST SWAP2 POP PUSH2 0x4E1 DUP3 PUSH2 0x4C8 JUMP JUMPDEST PUSH0 DUP3 ADD SWAP1 POP SWAP2 SWAP1 POP JUMP JUMPDEST PUSH0 PUSH2 0x4F5 DUP3 PUSH2 0x4CB JUMP JUMPDEST SWAP2 POP DUP2 SWAP1 POP SWAP2 SWAP1 POP JUMP JUMPDEST PUSH32 0x4661696C00000000000000000000000000000000000000000000000000000000 PUSH0 DUP3 ADD MSTORE POP JUMP JUMPDEST PUSH0 PUSH2 0x533 PUSH1 0x4 DUP4 PUSH2 0x3DE JUMP JUMPDEST SWAP2 POP PUSH2 0x53E DUP3 PUSH2 0x4FF JUMP JUMPDEST PUSH1 0x20 DUP3 ADD SWAP1 POP SWAP2 SWAP1 POP JUMP JUMPDEST PUSH0 PUSH1 0x20 DUP3 ADD SWAP1 POP DUP2 DUP2 SUB PUSH0 DUP4 ADD MSTORE PUSH2 0x560 DUP2 PUSH2 0x527 JUMP JUMPDEST SWAP1 POP SWAP2 SWAP1 POP JUMP JUMPDEST PUSH2 0x570 DUP2 PUSH2 0x347 JUMP JUMPDEST DUP3 MSTORE POP POP JUMP JUMPDEST PUSH0 PUSH1 0x40 DUP3 ADD SWAP1 POP PUSH2 0x589 PUSH0 DUP4 ADD DUP6 PUSH2 0x567 JUMP JUMPDEST PUSH2 0x596 PUSH1 0x20 DUP4 ADD DUP5 PUSH2 0x3B6 JUMP JUMPDEST SWAP4 SWAP3 POP POP POP JUMP JUMPDEST PUSH32 0x4E487B7100000000000000000000000000000000000000000000000000000000 PUSH0 MSTORE PUSH1 0x11 PUSH1 0x4 MSTORE PUSH1 0x24 PUSH0 REVERT JUMPDEST PUSH0 PUSH2 0x5D4 DUP3 PUSH2 0x3AD JUMP JUMPDEST SWAP2 POP PUSH2 0x5DF DUP4 PUSH2 0x3AD JUMP JUMPDEST SWAP3 POP DUP3 DUP3 ADD SWAP1 POP DUP1 DUP3 GT ISZERO PUSH2 0x5F7 JUMPI PUSH2 0x5F6 PUSH2 0x59D JUMP JUMPDEST JUMPDEST SWAP3 SWAP2 POP POP JUMP INVALID LOG2 PUSH5 0x6970667358 0x22 SLT KECCAK256 0xC8 TSTORE CALLCODE CALLDATACOPY 0xD5 0xCA MCOPY GASLIMIT 0xF8 BASEFEE 0xC3 RETURNDATASIZE LOG0 0x24 BLOBHASH DIV SWAP5 CALL CHAINID SWAP6 0xB3 DUP10 PUSH21 0x4C70858E10E614793164736F6C634300081A003300 "
		},
		"gasEstimates": {
			"creation": {
				"codeDepositCost": "317400",
				"executionCost": "353",
				"totalCost": "317753"
			},
			"external": {
				"balance(address)": "2823",
				"claim()": "infinite",
				"deposit()": "infinite"
			}
		},
		"methodIdentifiers": {
			"balance(address)": "e3d670d7",
			"claim()": "4e71d92d",
			"deposit()": "d0e30db0"
		}
	},
	"abi": [
		{
			"anonymous": false,
			"inputs": [
				{
					"indexed": false,
					"internalType": "address",
					"name": "user",
					"type": "address"
				},
				{
					"indexed": false,
					"internalType": "uint256",
					"name": "amount",
					"type": "uint256"
				}
			],
			"name": "Claimed",
			"type": "event"
		},
		{
			"inputs": [
				{
					"internalType": "address",
					"name": "",
					"type": "address"
				}
			],
			"name": "balance",
			"outputs": [
				{
					"internalType": "uint256",
					"name": "",
					"type": "uint256"
				}
			],
			"stateMutability": "view",
			"type": "function"
		},
		{
			"inputs": [],
			"name": "claim",
			"outputs": [],
			"stateMutability": "nonpayable",
			"type": "function"
		},
		{
			"inputs": [],
			"name": "deposit",
			"outputs": [],
			"stateMutability": "payable",
			"type": "function"
		}
	]
}