{
	"E/Ethernet/Controlled LAN with Membership  Rate Limit.sol": {
		"ManagedLANBroadcast": {
			"abi": [
				{
					"inputs": [
						{
							"internalType": "address[]",
							"name": "initialMembers",
							"type": "address[]"
						}
					],
					"stateMutability": "nonpayable",
					"type": "constructor"
				},
				{
					"anonymous": false,
					"inputs": [
						{
							"indexed": true,
							"internalType": "address",
							"name": "from",
							"type": "address"
						},
						{
							"indexed": false,
							"internalType": "bytes",
							"name": "message",
							"type": "bytes"
						}
					],
					"name": "Broadcast",
					"type": "event"
				},
				{
					"inputs": [],
					"name": "admin",
					"outputs": [
						{
							"internalType": "address",
							"name": "",
							"type": "address"
						}
					],
					"stateMutability": "view",
					"type": "function"
				},
				{
					"inputs": [],
					"name": "broadcastFee",
					"outputs": [
						{
							"internalType": "uint256",
							"name": "",
							"type": "uint256"
						}
					],
					"stateMutability": "view",
					"type": "function"
				},
				{
					"inputs": [
						{
							"internalType": "bytes",
							"name": "message",
							"type": "bytes"
						}
					],
					"name": "broadcastMessage",
					"outputs": [],
					"stateMutability": "payable",
					"type": "function"
				},
				{
					"inputs": [],
					"name": "cooldown",
					"outputs": [
						{
							"internalType": "uint256",
							"name": "",
							"type": "uint256"
						}
					],
					"stateMutability": "view",
					"type": "function"
				},
				{
					"inputs": [
						{
							"internalType": "address",
							"name": "",
							"type": "address"
						}
					],
					"name": "isMember",
					"outputs": [
						{
							"internalType": "bool",
							"name": "",
							"type": "bool"
						}
					],
					"stateMutability": "view",
					"type": "function"
				},
				{
					"inputs": [
						{
							"internalType": "address",
							"name": "",
							"type": "address"
						}
					],
					"name": "lastBroadcastTime",
					"outputs": [
						{
							"internalType": "uint256",
							"name": "",
							"type": "uint256"
						}
					],
					"stateMutability": "view",
					"type": "function"
				},
				{
					"inputs": [
						{
							"internalType": "uint256",
							"name": "cd",
							"type": "uint256"
						}
					],
					"name": "setCooldown",
					"outputs": [],
					"stateMutability": "nonpayable",
					"type": "function"
				},
				{
					"inputs": [
						{
							"internalType": "uint256",
							"name": "fee",
							"type": "uint256"
						}
					],
					"name": "setFee",
					"outputs": [],
					"stateMutability": "nonpayable",
					"type": "function"
				},
				{
					"inputs": [
						{
							"internalType": "address",
							"name": "user",
							"type": "address"
						},
						{
							"internalType": "bool",
							"name": "status",
							"type": "bool"
						}
					],
					"name": "setMember",
					"outputs": [],
					"stateMutability": "nonpayable",
					"type": "function"
				}
			],
			"devdoc": {
				"kind": "dev",
				"methods": {},
				"version": 1
			},
			"evm": {
				"assembly": "    /* \"E/Ethernet/Controlled LAN with Membership  Rate Limit.sol\":212:1550  contract ManagedLANBroadcast {... */\n  mstore(0x40, 0x80)\n    /* \"E/Ethernet/Controlled LAN with Membership  Rate Limit.sol\":323:334  0.001 ether */\n  0x038d7ea4c68000\n    /* \"E/Ethernet/Controlled LAN with Membership  Rate Limit.sol\":293:334  uint256 public broadcastFee = 0.001 ether */\n  0x01\n  sstore\n    /* \"E/Ethernet/Controlled LAN with Membership  Rate Limit.sol\":366:368  60 */\n  0x3c\n    /* \"E/Ethernet/Controlled LAN with Membership  Rate Limit.sol\":340:368  uint256 public cooldown = 60 */\n  0x02\n  sstore\n    /* \"E/Ethernet/Controlled LAN with Membership  Rate Limit.sol\":532:732  constructor(address[] memory initialMembers) {... */\n  callvalue\n  dup1\n  iszero\n  tag_1\n  jumpi\n  0x00\n  dup1\n  revert\ntag_1:\n  pop\n  mload(0x40)\n  sub(codesize, bytecodeSize)\n  dup1\n  bytecodeSize\n  dup4\n  codecopy\n  dup2\n  dup2\n  add\n  0x40\n  mstore\n  dup2\n  add\n  swap1\n  tag_2\n  swap2\n  swap1\n  tag_3\n  jump\t// in\ntag_2:\n    /* \"E/Ethernet/Controlled LAN with Membership  Rate Limit.sol\":595:605  msg.sender */\n  caller\n    /* \"E/Ethernet/Controlled LAN with Membership  Rate Limit.sol\":587:592  admin */\n  0x04\n  0x00\n    /* \"E/Ethernet/Controlled LAN with Membership  Rate Limit.sol\":587:605  admin = msg.sender */\n  0x0100\n  exp\n  dup2\n  sload\n  dup2\n  0xffffffffffffffffffffffffffffffffffffffff\n  mul\n  not\n  and\n  swap1\n  dup4\n  0xffffffffffffffffffffffffffffffffffffffff\n  and\n  mul\n  or\n  swap1\n  sstore\n  pop\n    /* \"E/Ethernet/Controlled LAN with Membership  Rate Limit.sol\":620:629  uint256 i */\n  0x00\n    /* \"E/Ethernet/Controlled LAN with Membership  Rate Limit.sol\":615:726  for (uint256 i = 0; i < initialMembers.length; i++) {... */\ntag_6:\n    /* \"E/Ethernet/Controlled LAN with Membership  Rate Limit.sol\":639:653  initialMembers */\n  dup2\n    /* \"E/Ethernet/Controlled LAN with Membership  Rate Limit.sol\":639:660  initialMembers.length */\n  mload\n    /* \"E/Ethernet/Controlled LAN with Membership  Rate Limit.sol\":635:636  i */\n  dup2\n    /* \"E/Ethernet/Controlled LAN with Membership  Rate Limit.sol\":635:660  i < initialMembers.length */\n  lt\n    /* \"E/Ethernet/Controlled LAN with Membership  Rate Limit.sol\":615:726  for (uint256 i = 0; i < initialMembers.length; i++) {... */\n  iszero\n  tag_7\n  jumpi\n    /* \"E/Ethernet/Controlled LAN with Membership  Rate Limit.sol\":711:715  true */\n  0x01\n    /* \"E/Ethernet/Controlled LAN with Membership  Rate Limit.sol\":681:689  isMember */\n  0x00\n    /* \"E/Ethernet/Controlled LAN with Membership  Rate Limit.sol\":681:708  isMember[initialMembers[i]] */\n  dup1\n    /* \"E/Ethernet/Controlled LAN with Membership  Rate Limit.sol\":690:704  initialMembers */\n  dup5\n    /* \"E/Ethernet/Controlled LAN with Membership  Rate Limit.sol\":705:706  i */\n  dup5\n    /* \"E/Ethernet/Controlled LAN with Membership  Rate Limit.sol\":690:707  initialMembers[i] */\n  dup2\n  mload\n  dup2\n  lt\n  tag_9\n  jumpi\n  tag_10\n  tag_11\n  jump\t// in\ntag_10:\ntag_9:\n  0x20\n  mul\n  0x20\n  add\n  add\n  mload\n    /* \"E/Ethernet/Controlled LAN with Membership  Rate Limit.sol\":681:708  isMember[initialMembers[i]] */\n  0xffffffffffffffffffffffffffffffffffffffff\n  and\n  0xffffffffffffffffffffffffffffffffffffffff\n  and\n  dup2\n  mstore\n  0x20\n  add\n  swap1\n  dup2\n  mstore\n  0x20\n  add\n  0x00\n  keccak256\n  0x00\n    /* \"E/Ethernet/Controlled LAN with Membership  Rate Limit.sol\":681:715  isMember[initialMembers[i]] = true */\n  0x0100\n  exp\n  dup2\n  sload\n  dup2\n  0xff\n  mul\n  not\n  and\n  swap1\n  dup4\n  iszero\n  iszero\n  mul\n  or\n  swap1\n  sstore\n  pop\n    /* \"E/Ethernet/Controlled LAN with Membership  Rate Limit.sol\":662:665  i++ */\n  dup1\n  dup1\n  0x01\n  add\n  swap2\n  pop\n  pop\n    /* \"E/Ethernet/Controlled LAN with Membership  Rate Limit.sol\":615:726  for (uint256 i = 0; i < initialMembers.length; i++) {... */\n  jump(tag_6)\ntag_7:\n  pop\n    /* \"E/Ethernet/Controlled LAN with Membership  Rate Limit.sol\":532:732  constructor(address[] memory initialMembers) {... */\n  pop\n    /* \"E/Ethernet/Controlled LAN with Membership  Rate Limit.sol\":212:1550  contract ManagedLANBroadcast {... */\n  jump(tag_12)\n    /* \"#utility.yul\":7:82   */\ntag_13:\n    /* \"#utility.yul\":40:46   */\n  0x00\n    /* \"#utility.yul\":73:75   */\n  0x40\n    /* \"#utility.yul\":67:76   */\n  mload\n    /* \"#utility.yul\":57:76   */\n  swap1\n  pop\n    /* \"#utility.yul\":7:82   */\n  swap1\n  jump\t// out\n    /* \"#utility.yul\":88:205   */\ntag_14:\n    /* \"#utility.yul\":197:198   */\n  0x00\n    /* \"#utility.yul\":194:195   */\n  dup1\n    /* \"#utility.yul\":187:199   */\n  revert\n    /* \"#utility.yul\":211:328   */\ntag_15:\n    /* \"#utility.yul\":320:321   */\n  0x00\n    /* \"#utility.yul\":317:318   */\n  dup1\n    /* \"#utility.yul\":310:322   */\n  revert\n    /* \"#utility.yul\":334:451   */\ntag_16:\n    /* \"#utility.yul\":443:444   */\n  0x00\n    /* \"#utility.yul\":440:441   */\n  dup1\n    /* \"#utility.yul\":433:445   */\n  revert\n    /* \"#utility.yul\":457:559   */\ntag_17:\n    /* \"#utility.yul\":498:504   */\n  0x00\n    /* \"#utility.yul\":549:551   */\n  0x1f\n    /* \"#utility.yul\":545:552   */\n  not\n    /* \"#utility.yul\":540:542   */\n  0x1f\n    /* \"#utility.yul\":533:538   */\n  dup4\n    /* \"#utility.yul\":529:543   */\n  add\n    /* \"#utility.yul\":525:553   */\n  and\n    /* \"#utility.yul\":515:553   */\n  swap1\n  pop\n    /* \"#utility.yul\":457:559   */\n  swap2\n  swap1\n  pop\n  jump\t// out\n    /* \"#utility.yul\":565:745   */\ntag_18:\n    /* \"#utility.yul\":613:690   */\n  0x4e487b7100000000000000000000000000000000000000000000000000000000\n    /* \"#utility.yul\":610:611   */\n  0x00\n    /* \"#utility.yul\":603:691   */\n  mstore\n    /* \"#utility.yul\":710:714   */\n  0x41\n    /* \"#utility.yul\":707:708   */\n  0x04\n    /* \"#utility.yul\":700:715   */\n  mstore\n    /* \"#utility.yul\":734:738   */\n  0x24\n    /* \"#utility.yul\":731:732   */\n  0x00\n    /* \"#utility.yul\":724:739   */\n  revert\n    /* \"#utility.yul\":751:1032   */\ntag_19:\n    /* \"#utility.yul\":834:861   */\n  tag_37\n    /* \"#utility.yul\":856:860   */\n  dup3\n    /* \"#utility.yul\":834:861   */\n  tag_17\n  jump\t// in\ntag_37:\n    /* \"#utility.yul\":826:832   */\n  dup2\n    /* \"#utility.yul\":822:862   */\n  add\n    /* \"#utility.yul\":964:970   */\n  dup2\n    /* \"#utility.yul\":952:962   */\n  dup2\n    /* \"#utility.yul\":949:971   */\n  lt\n    /* \"#utility.yul\":928:946   */\n  0xffffffffffffffff\n    /* \"#utility.yul\":916:926   */\n  dup3\n    /* \"#utility.yul\":913:947   */\n  gt\n    /* \"#utility.yul\":910:972   */\n  or\n    /* \"#utility.yul\":907:995   */\n  iszero\n  tag_38\n  jumpi\n    /* \"#utility.yul\":975:993   */\n  tag_39\n  tag_18\n  jump\t// in\ntag_39:\n    /* \"#utility.yul\":907:995   */\ntag_38:\n    /* \"#utility.yul\":1015:1025   */\n  dup1\n    /* \"#utility.yul\":1011:1013   */\n  0x40\n    /* \"#utility.yul\":1004:1026   */\n  mstore\n    /* \"#utility.yul\":794:1032   */\n  pop\n    /* \"#utility.yul\":751:1032   */\n  pop\n  pop\n  jump\t// out\n    /* \"#utility.yul\":1038:1167   */\ntag_20:\n    /* \"#utility.yul\":1072:1078   */\n  0x00\n    /* \"#utility.yul\":1099:1119   */\n  tag_41\n  tag_13\n  jump\t// in\ntag_41:\n    /* \"#utility.yul\":1089:1119   */\n  swap1\n  pop\n    /* \"#utility.yul\":1128:1161   */\n  tag_42\n    /* \"#utility.yul\":1156:1160   */\n  dup3\n    /* \"#utility.yul\":1148:1154   */\n  dup3\n    /* \"#utility.yul\":1128:1161   */\n  tag_19\n  jump\t// in\ntag_42:\n    /* \"#utility.yul\":1038:1167   */\n  swap2\n  swap1\n  pop\n  jump\t// out\n    /* \"#utility.yul\":1173:1484   */\ntag_21:\n    /* \"#utility.yul\":1250:1254   */\n  0x00\n    /* \"#utility.yul\":1340:1358   */\n  0xffffffffffffffff\n    /* \"#utility.yul\":1332:1338   */\n  dup3\n    /* \"#utility.yul\":1329:1359   */\n  gt\n    /* \"#utility.yul\":1326:1382   */\n  iszero\n  tag_44\n  jumpi\n    /* \"#utility.yul\":1362:1380   */\n  tag_45\n  tag_18\n  jump\t// in\ntag_45:\n    /* \"#utility.yul\":1326:1382   */\ntag_44:\n    /* \"#utility.yul\":1412:1416   */\n  0x20\n    /* \"#utility.yul\":1404:1410   */\n  dup3\n    /* \"#utility.yul\":1400:1417   */\n  mul\n    /* \"#utility.yul\":1392:1417   */\n  swap1\n  pop\n    /* \"#utility.yul\":1472:1476   */\n  0x20\n    /* \"#utility.yul\":1466:1470   */\n  dup2\n    /* \"#utility.yul\":1462:1477   */\n  add\n    /* \"#utility.yul\":1454:1477   */\n  swap1\n  pop\n    /* \"#utility.yul\":1173:1484   */\n  swap2\n  swap1\n  pop\n  jump\t// out\n    /* \"#utility.yul\":1490:1607   */\ntag_22:\n    /* \"#utility.yul\":1599:1600   */\n  0x00\n    /* \"#utility.yul\":1596:1597   */\n  dup1\n    /* \"#utility.yul\":1589:1601   */\n  revert\n    /* \"#utility.yul\":1613:1739   */\ntag_23:\n    /* \"#utility.yul\":1650:1657   */\n  0x00\n    /* \"#utility.yul\":1690:1732   */\n  0xffffffffffffffffffffffffffffffffffffffff\n    /* \"#utility.yul\":1683:1688   */\n  dup3\n    /* \"#utility.yul\":1679:1733   */\n  and\n    /* \"#utility.yul\":1668:1733   */\n  swap1\n  pop\n    /* \"#utility.yul\":1613:1739   */\n  swap2\n  swap1\n  pop\n  jump\t// out\n    /* \"#utility.yul\":1745:1841   */\ntag_24:\n    /* \"#utility.yul\":1782:1789   */\n  0x00\n    /* \"#utility.yul\":1811:1835   */\n  tag_49\n    /* \"#utility.yul\":1829:1834   */\n  dup3\n    /* \"#utility.yul\":1811:1835   */\n  tag_23\n  jump\t// in\ntag_49:\n    /* \"#utility.yul\":1800:1835   */\n  swap1\n  pop\n    /* \"#utility.yul\":1745:1841   */\n  swap2\n  swap1\n  pop\n  jump\t// out\n    /* \"#utility.yul\":1847:1969   */\ntag_25:\n    /* \"#utility.yul\":1920:1944   */\n  tag_51\n    /* \"#utility.yul\":1938:1943   */\n  dup2\n    /* \"#utility.yul\":1920:1944   */\n  tag_24\n  jump\t// in\ntag_51:\n    /* \"#utility.yul\":1913:1918   */\n  dup2\n    /* \"#utility.yul\":1910:1945   */\n  eq\n    /* \"#utility.yul\":1900:1963   */\n  tag_52\n  jumpi\n    /* \"#utility.yul\":1959:1960   */\n  0x00\n    /* \"#utility.yul\":1956:1957   */\n  dup1\n    /* \"#utility.yul\":1949:1961   */\n  revert\n    /* \"#utility.yul\":1900:1963   */\ntag_52:\n    /* \"#utility.yul\":1847:1969   */\n  pop\n  jump\t// out\n    /* \"#utility.yul\":1975:2118   */\ntag_26:\n    /* \"#utility.yul\":2032:2037   */\n  0x00\n    /* \"#utility.yul\":2063:2069   */\n  dup2\n    /* \"#utility.yul\":2057:2070   */\n  mload\n    /* \"#utility.yul\":2048:2070   */\n  swap1\n  pop\n    /* \"#utility.yul\":2079:2112   */\n  tag_54\n    /* \"#utility.yul\":2106:2111   */\n  dup2\n    /* \"#utility.yul\":2079:2112   */\n  tag_25\n  jump\t// in\ntag_54:\n    /* \"#utility.yul\":1975:2118   */\n  swap3\n  swap2\n  pop\n  pop\n  jump\t// out\n    /* \"#utility.yul\":2141:2873   */\ntag_27:\n    /* \"#utility.yul\":2248:2253   */\n  0x00\n    /* \"#utility.yul\":2273:2354   */\n  tag_56\n    /* \"#utility.yul\":2289:2353   */\n  tag_57\n    /* \"#utility.yul\":2346:2352   */\n  dup5\n    /* \"#utility.yul\":2289:2353   */\n  tag_21\n  jump\t// in\ntag_57:\n    /* \"#utility.yul\":2273:2354   */\n  tag_20\n  jump\t// in\ntag_56:\n    /* \"#utility.yul\":2264:2354   */\n  swap1\n  pop\n    /* \"#utility.yul\":2374:2379   */\n  dup1\n    /* \"#utility.yul\":2403:2409   */\n  dup4\n    /* \"#utility.yul\":2396:2401   */\n  dup3\n    /* \"#utility.yul\":2389:2410   */\n  mstore\n    /* \"#utility.yul\":2437:2441   */\n  0x20\n    /* \"#utility.yul\":2430:2435   */\n  dup3\n    /* \"#utility.yul\":2426:2442   */\n  add\n    /* \"#utility.yul\":2419:2442   */\n  swap1\n  pop\n    /* \"#utility.yul\":2490:2494   */\n  0x20\n    /* \"#utility.yul\":2482:2488   */\n  dup5\n    /* \"#utility.yul\":2478:2495   */\n  mul\n    /* \"#utility.yul\":2470:2476   */\n  dup4\n    /* \"#utility.yul\":2466:2496   */\n  add\n    /* \"#utility.yul\":2519:2522   */\n  dup6\n    /* \"#utility.yul\":2511:2517   */\n  dup2\n    /* \"#utility.yul\":2508:2523   */\n  gt\n    /* \"#utility.yul\":2505:2627   */\n  iszero\n  tag_58\n  jumpi\n    /* \"#utility.yul\":2538:2617   */\n  tag_59\n  tag_22\n  jump\t// in\ntag_59:\n    /* \"#utility.yul\":2505:2627   */\ntag_58:\n    /* \"#utility.yul\":2653:2659   */\n  dup4\n    /* \"#utility.yul\":2636:2867   */\ntag_60:\n    /* \"#utility.yul\":2670:2676   */\n  dup2\n    /* \"#utility.yul\":2665:2668   */\n  dup2\n    /* \"#utility.yul\":2662:2677   */\n  lt\n    /* \"#utility.yul\":2636:2867   */\n  iszero\n  tag_62\n  jumpi\n    /* \"#utility.yul\":2745:2748   */\n  dup1\n    /* \"#utility.yul\":2774:2822   */\n  tag_63\n    /* \"#utility.yul\":2818:2821   */\n  dup9\n    /* \"#utility.yul\":2806:2816   */\n  dup3\n    /* \"#utility.yul\":2774:2822   */\n  tag_26\n  jump\t// in\ntag_63:\n    /* \"#utility.yul\":2769:2772   */\n  dup5\n    /* \"#utility.yul\":2762:2823   */\n  mstore\n    /* \"#utility.yul\":2852:2856   */\n  0x20\n    /* \"#utility.yul\":2847:2850   */\n  dup5\n    /* \"#utility.yul\":2843:2857   */\n  add\n    /* \"#utility.yul\":2836:2857   */\n  swap4\n  pop\n    /* \"#utility.yul\":2712:2867   */\n  pop\n    /* \"#utility.yul\":2696:2700   */\n  0x20\n    /* \"#utility.yul\":2691:2694   */\n  dup2\n    /* \"#utility.yul\":2687:2701   */\n  add\n    /* \"#utility.yul\":2680:2701   */\n  swap1\n  pop\n    /* \"#utility.yul\":2636:2867   */\n  jump(tag_60)\ntag_62:\n    /* \"#utility.yul\":2640:2661   */\n  pop\n    /* \"#utility.yul\":2254:2873   */\n  pop\n  pop\n    /* \"#utility.yul\":2141:2873   */\n  swap4\n  swap3\n  pop\n  pop\n  pop\n  jump\t// out\n    /* \"#utility.yul\":2896:3281   */\ntag_28:\n    /* \"#utility.yul\":2978:2983   */\n  0x00\n    /* \"#utility.yul\":3027:3030   */\n  dup3\n    /* \"#utility.yul\":3020:3024   */\n  0x1f\n    /* \"#utility.yul\":3012:3018   */\n  dup4\n    /* \"#utility.yul\":3008:3025   */\n  add\n    /* \"#utility.yul\":3004:3031   */\n  slt\n    /* \"#utility.yul\":2994:3116   */\n  tag_65\n  jumpi\n    /* \"#utility.yul\":3035:3114   */\n  tag_66\n  tag_16\n  jump\t// in\ntag_66:\n    /* \"#utility.yul\":2994:3116   */\ntag_65:\n    /* \"#utility.yul\":3145:3151   */\n  dup2\n    /* \"#utility.yul\":3139:3152   */\n  mload\n    /* \"#utility.yul\":3170:3275   */\n  tag_67\n    /* \"#utility.yul\":3271:3274   */\n  dup5\n    /* \"#utility.yul\":3263:3269   */\n  dup3\n    /* \"#utility.yul\":3256:3260   */\n  0x20\n    /* \"#utility.yul\":3248:3254   */\n  dup7\n    /* \"#utility.yul\":3244:3261   */\n  add\n    /* \"#utility.yul\":3170:3275   */\n  tag_27\n  jump\t// in\ntag_67:\n    /* \"#utility.yul\":3161:3275   */\n  swap2\n  pop\n    /* \"#utility.yul\":2984:3281   */\n  pop\n    /* \"#utility.yul\":2896:3281   */\n  swap3\n  swap2\n  pop\n  pop\n  jump\t// out\n    /* \"#utility.yul\":3287:3841   */\ntag_3:\n    /* \"#utility.yul\":3382:3388   */\n  0x00\n    /* \"#utility.yul\":3431:3433   */\n  0x20\n    /* \"#utility.yul\":3419:3428   */\n  dup3\n    /* \"#utility.yul\":3410:3417   */\n  dup5\n    /* \"#utility.yul\":3406:3429   */\n  sub\n    /* \"#utility.yul\":3402:3434   */\n  slt\n    /* \"#utility.yul\":3399:3518   */\n  iszero\n  tag_69\n  jumpi\n    /* \"#utility.yul\":3437:3516   */\n  tag_70\n  tag_14\n  jump\t// in\ntag_70:\n    /* \"#utility.yul\":3399:3518   */\ntag_69:\n    /* \"#utility.yul\":3578:3579   */\n  0x00\n    /* \"#utility.yul\":3567:3576   */\n  dup3\n    /* \"#utility.yul\":3563:3580   */\n  add\n    /* \"#utility.yul\":3557:3581   */\n  mload\n    /* \"#utility.yul\":3608:3626   */\n  0xffffffffffffffff\n    /* \"#utility.yul\":3600:3606   */\n  dup2\n    /* \"#utility.yul\":3597:3627   */\n  gt\n    /* \"#utility.yul\":3594:3711   */\n  iszero\n  tag_71\n  jumpi\n    /* \"#utility.yul\":3630:3709   */\n  tag_72\n  tag_15\n  jump\t// in\ntag_72:\n    /* \"#utility.yul\":3594:3711   */\ntag_71:\n    /* \"#utility.yul\":3735:3824   */\n  tag_73\n    /* \"#utility.yul\":3816:3823   */\n  dup5\n    /* \"#utility.yul\":3807:3813   */\n  dup3\n    /* \"#utility.yul\":3796:3805   */\n  dup6\n    /* \"#utility.yul\":3792:3814   */\n  add\n    /* \"#utility.yul\":3735:3824   */\n  tag_28\n  jump\t// in\ntag_73:\n    /* \"#utility.yul\":3725:3824   */\n  swap2\n  pop\n    /* \"#utility.yul\":3528:3834   */\n  pop\n    /* \"#utility.yul\":3287:3841   */\n  swap3\n  swap2\n  pop\n  pop\n  jump\t// out\n    /* \"#utility.yul\":3847:4027   */\ntag_11:\n    /* \"#utility.yul\":3895:3972   */\n  0x4e487b7100000000000000000000000000000000000000000000000000000000\n    /* \"#utility.yul\":3892:3893   */\n  0x00\n    /* \"#utility.yul\":3885:3973   */\n  mstore\n    /* \"#utility.yul\":3992:3996   */\n  0x32\n    /* \"#utility.yul\":3989:3990   */\n  0x04\n    /* \"#utility.yul\":3982:3997   */\n  mstore\n    /* \"#utility.yul\":4016:4020   */\n  0x24\n    /* \"#utility.yul\":4013:4014   */\n  0x00\n    /* \"#utility.yul\":4006:4021   */\n  revert\n    /* \"E/Ethernet/Controlled LAN with Membership  Rate Limit.sol\":212:1550  contract ManagedLANBroadcast {... */\ntag_12:\n  dataSize(sub_0)\n  dup1\n  dataOffset(sub_0)\n  0x00\n  codecopy\n  0x00\n  return\nstop\n\nsub_0: assembly {\n        /* \"E/Ethernet/Controlled LAN with Membership  Rate Limit.sol\":212:1550  contract ManagedLANBroadcast {... */\n      mstore(0x40, 0x80)\n      jumpi(tag_1, lt(calldatasize, 0x04))\n      shr(0xe0, calldataload(0x00))\n      dup1\n      0x787a08a6\n      gt\n      tag_11\n      jumpi\n      dup1\n      0x787a08a6\n      eq\n      tag_6\n      jumpi\n      dup1\n      0xa230c524\n      eq\n      tag_7\n      jumpi\n      dup1\n      0xd0637023\n      eq\n      tag_8\n      jumpi\n      dup1\n      0xe294d915\n      eq\n      tag_9\n      jumpi\n      dup1\n      0xf851a440\n      eq\n      tag_10\n      jumpi\n      jump(tag_1)\n    tag_11:\n      dup1\n      0x03b218fd\n      eq\n      tag_2\n      jumpi\n      dup1\n      0x4fc3f41a\n      eq\n      tag_3\n      jumpi\n      dup1\n      0x69fe0e2d\n      eq\n      tag_4\n      jumpi\n      dup1\n      0x744cd69c\n      eq\n      tag_5\n      jumpi\n    tag_1:\n      0x00\n      dup1\n      revert\n        /* \"E/Ethernet/Controlled LAN with Membership  Rate Limit.sol\":387:439  mapping(address => uint256) public lastBroadcastTime */\n    tag_2:\n      callvalue\n      dup1\n      iszero\n      tag_12\n      jumpi\n      0x00\n      dup1\n      revert\n    tag_12:\n      pop\n      tag_13\n      0x04\n      dup1\n      calldatasize\n      sub\n      dup2\n      add\n      swap1\n      tag_14\n      swap2\n      swap1\n      tag_15\n      jump\t// in\n    tag_14:\n      tag_16\n      jump\t// in\n    tag_13:\n      mload(0x40)\n      tag_17\n      swap2\n      swap1\n      tag_18\n      jump\t// in\n    tag_17:\n      mload(0x40)\n      dup1\n      swap2\n      sub\n      swap1\n      return\n        /* \"E/Ethernet/Controlled LAN with Membership  Rate Limit.sol\":1020:1143  function setCooldown(uint256 cd) external {... */\n    tag_3:\n      callvalue\n      dup1\n      iszero\n      tag_19\n      jumpi\n      0x00\n      dup1\n      revert\n    tag_19:\n      pop\n      tag_20\n      0x04\n      dup1\n      calldatasize\n      sub\n      dup2\n      add\n      swap1\n      tag_21\n      swap2\n      swap1\n      tag_22\n      jump\t// in\n    tag_21:\n      tag_23\n      jump\t// in\n    tag_20:\n      stop\n        /* \"E/Ethernet/Controlled LAN with Membership  Rate Limit.sol\":890:1014  function setFee(uint256 fee) external {... */\n    tag_4:\n      callvalue\n      dup1\n      iszero\n      tag_24\n      jumpi\n      0x00\n      dup1\n      revert\n    tag_24:\n      pop\n      tag_25\n      0x04\n      dup1\n      calldatasize\n      sub\n      dup2\n      add\n      swap1\n      tag_26\n      swap2\n      swap1\n      tag_22\n      jump\t// in\n    tag_26:\n      tag_27\n      jump\t// in\n    tag_25:\n      stop\n        /* \"E/Ethernet/Controlled LAN with Membership  Rate Limit.sol\":738:884  function setMember(address user, bool status) external {... */\n    tag_5:\n      callvalue\n      dup1\n      iszero\n      tag_28\n      jumpi\n      0x00\n      dup1\n      revert\n    tag_28:\n      pop\n      tag_29\n      0x04\n      dup1\n      calldatasize\n      sub\n      dup2\n      add\n      swap1\n      tag_30\n      swap2\n      swap1\n      tag_31\n      jump\t// in\n    tag_30:\n      tag_32\n      jump\t// in\n    tag_29:\n      stop\n        /* \"E/Ethernet/Controlled LAN with Membership  Rate Limit.sol\":340:368  uint256 public cooldown = 60 */\n    tag_6:\n      callvalue\n      dup1\n      iszero\n      tag_33\n      jumpi\n      0x00\n      dup1\n      revert\n    tag_33:\n      pop\n      tag_34\n      tag_35\n      jump\t// in\n    tag_34:\n      mload(0x40)\n      tag_36\n      swap2\n      swap1\n      tag_18\n      jump\t// in\n    tag_36:\n      mload(0x40)\n      dup1\n      swap2\n      sub\n      swap1\n      return\n        /* \"E/Ethernet/Controlled LAN with Membership  Rate Limit.sol\":247:287  mapping(address => bool) public isMember */\n    tag_7:\n      callvalue\n      dup1\n      iszero\n      tag_37\n      jumpi\n      0x00\n      dup1\n      revert\n    tag_37:\n      pop\n      tag_38\n      0x04\n      dup1\n      calldatasize\n      sub\n      dup2\n      add\n      swap1\n      tag_39\n      swap2\n      swap1\n      tag_15\n      jump\t// in\n    tag_39:\n      tag_40\n      jump\t// in\n    tag_38:\n      mload(0x40)\n      tag_41\n      swap2\n      swap1\n      tag_42\n      jump\t// in\n    tag_41:\n      mload(0x40)\n      dup1\n      swap2\n      sub\n      swap1\n      return\n        /* \"E/Ethernet/Controlled LAN with Membership  Rate Limit.sol\":1149:1548  function broadcastMessage(bytes calldata message) external payable {... */\n    tag_8:\n      tag_43\n      0x04\n      dup1\n      calldatasize\n      sub\n      dup2\n      add\n      swap1\n      tag_44\n      swap2\n      swap1\n      tag_45\n      jump\t// in\n    tag_44:\n      tag_46\n      jump\t// in\n    tag_43:\n      stop\n        /* \"E/Ethernet/Controlled LAN with Membership  Rate Limit.sol\":293:334  uint256 public broadcastFee = 0.001 ether */\n    tag_9:\n      callvalue\n      dup1\n      iszero\n      tag_47\n      jumpi\n      0x00\n      dup1\n      revert\n    tag_47:\n      pop\n      tag_48\n      tag_49\n      jump\t// in\n    tag_48:\n      mload(0x40)\n      tag_50\n      swap2\n      swap1\n      tag_18\n      jump\t// in\n    tag_50:\n      mload(0x40)\n      dup1\n      swap2\n      sub\n      swap1\n      return\n        /* \"E/Ethernet/Controlled LAN with Membership  Rate Limit.sol\":505:525  address public admin */\n    tag_10:\n      callvalue\n      dup1\n      iszero\n      tag_51\n      jumpi\n      0x00\n      dup1\n      revert\n    tag_51:\n      pop\n      tag_52\n      tag_53\n      jump\t// in\n    tag_52:\n      mload(0x40)\n      tag_54\n      swap2\n      swap1\n      tag_55\n      jump\t// in\n    tag_54:\n      mload(0x40)\n      dup1\n      swap2\n      sub\n      swap1\n      return\n        /* \"E/Ethernet/Controlled LAN with Membership  Rate Limit.sol\":387:439  mapping(address => uint256) public lastBroadcastTime */\n    tag_16:\n      mstore(0x20, 0x03)\n      dup1\n      0x00\n      mstore\n      keccak256(0x00, 0x40)\n      0x00\n      swap2\n      pop\n      swap1\n      pop\n      sload\n      dup2\n      jump\t// out\n        /* \"E/Ethernet/Controlled LAN with Membership  Rate Limit.sol\":1020:1143  function setCooldown(uint256 cd) external {... */\n    tag_23:\n        /* \"E/Ethernet/Controlled LAN with Membership  Rate Limit.sol\":1094:1099  admin */\n      0x04\n      0x00\n      swap1\n      sload\n      swap1\n      0x0100\n      exp\n      swap1\n      div\n      0xffffffffffffffffffffffffffffffffffffffff\n      and\n        /* \"E/Ethernet/Controlled LAN with Membership  Rate Limit.sol\":1080:1099  msg.sender == admin */\n      0xffffffffffffffffffffffffffffffffffffffff\n      and\n        /* \"E/Ethernet/Controlled LAN with Membership  Rate Limit.sol\":1080:1090  msg.sender */\n      caller\n        /* \"E/Ethernet/Controlled LAN with Membership  Rate Limit.sol\":1080:1099  msg.sender == admin */\n      0xffffffffffffffffffffffffffffffffffffffff\n      and\n      eq\n        /* \"E/Ethernet/Controlled LAN with Membership  Rate Limit.sol\":1072:1113  require(msg.sender == admin, \"Not admin\") */\n      tag_57\n      jumpi\n      mload(0x40)\n      0x08c379a000000000000000000000000000000000000000000000000000000000\n      dup2\n      mstore\n      0x04\n      add\n      tag_58\n      swap1\n      tag_59\n      jump\t// in\n    tag_58:\n      mload(0x40)\n      dup1\n      swap2\n      sub\n      swap1\n      revert\n    tag_57:\n        /* \"E/Ethernet/Controlled LAN with Membership  Rate Limit.sol\":1134:1136  cd */\n      dup1\n        /* \"E/Ethernet/Controlled LAN with Membership  Rate Limit.sol\":1123:1131  cooldown */\n      0x02\n        /* \"E/Ethernet/Controlled LAN with Membership  Rate Limit.sol\":1123:1136  cooldown = cd */\n      dup2\n      swap1\n      sstore\n      pop\n        /* \"E/Ethernet/Controlled LAN with Membership  Rate Limit.sol\":1020:1143  function setCooldown(uint256 cd) external {... */\n      pop\n      jump\t// out\n        /* \"E/Ethernet/Controlled LAN with Membership  Rate Limit.sol\":890:1014  function setFee(uint256 fee) external {... */\n    tag_27:\n        /* \"E/Ethernet/Controlled LAN with Membership  Rate Limit.sol\":960:965  admin */\n      0x04\n      0x00\n      swap1\n      sload\n      swap1\n      0x0100\n      exp\n      swap1\n      div\n      0xffffffffffffffffffffffffffffffffffffffff\n      and\n        /* \"E/Ethernet/Controlled LAN with Membership  Rate Limit.sol\":946:965  msg.sender == admin */\n      0xffffffffffffffffffffffffffffffffffffffff\n      and\n        /* \"E/Ethernet/Controlled LAN with Membership  Rate Limit.sol\":946:956  msg.sender */\n      caller\n        /* \"E/Ethernet/Controlled LAN with Membership  Rate Limit.sol\":946:965  msg.sender == admin */\n      0xffffffffffffffffffffffffffffffffffffffff\n      and\n      eq\n        /* \"E/Ethernet/Controlled LAN with Membership  Rate Limit.sol\":938:979  require(msg.sender == admin, \"Not admin\") */\n      tag_61\n      jumpi\n      mload(0x40)\n      0x08c379a000000000000000000000000000000000000000000000000000000000\n      dup2\n      mstore\n      0x04\n      add\n      tag_62\n      swap1\n      tag_59\n      jump\t// in\n    tag_62:\n      mload(0x40)\n      dup1\n      swap2\n      sub\n      swap1\n      revert\n    tag_61:\n        /* \"E/Ethernet/Controlled LAN with Membership  Rate Limit.sol\":1004:1007  fee */\n      dup1\n        /* \"E/Ethernet/Controlled LAN with Membership  Rate Limit.sol\":989:1001  broadcastFee */\n      0x01\n        /* \"E/Ethernet/Controlled LAN with Membership  Rate Limit.sol\":989:1007  broadcastFee = fee */\n      dup2\n      swap1\n      sstore\n      pop\n        /* \"E/Ethernet/Controlled LAN with Membership  Rate Limit.sol\":890:1014  function setFee(uint256 fee) external {... */\n      pop\n      jump\t// out\n        /* \"E/Ethernet/Controlled LAN with Membership  Rate Limit.sol\":738:884  function setMember(address user, bool status) external {... */\n    tag_32:\n        /* \"E/Ethernet/Controlled LAN with Membership  Rate Limit.sol\":825:830  admin */\n      0x04\n      0x00\n      swap1\n      sload\n      swap1\n      0x0100\n      exp\n      swap1\n      div\n      0xffffffffffffffffffffffffffffffffffffffff\n      and\n        /* \"E/Ethernet/Controlled LAN with Membership  Rate Limit.sol\":811:830  msg.sender == admin */\n      0xffffffffffffffffffffffffffffffffffffffff\n      and\n        /* \"E/Ethernet/Controlled LAN with Membership  Rate Limit.sol\":811:821  msg.sender */\n      caller\n        /* \"E/Ethernet/Controlled LAN with Membership  Rate Limit.sol\":811:830  msg.sender == admin */\n      0xffffffffffffffffffffffffffffffffffffffff\n      and\n      eq\n        /* \"E/Ethernet/Controlled LAN with Membership  Rate Limit.sol\":803:844  require(msg.sender == admin, \"Not admin\") */\n      tag_64\n      jumpi\n      mload(0x40)\n      0x08c379a000000000000000000000000000000000000000000000000000000000\n      dup2\n      mstore\n      0x04\n      add\n      tag_65\n      swap1\n      tag_59\n      jump\t// in\n    tag_65:\n      mload(0x40)\n      dup1\n      swap2\n      sub\n      swap1\n      revert\n    tag_64:\n        /* \"E/Ethernet/Controlled LAN with Membership  Rate Limit.sol\":871:877  status */\n      dup1\n        /* \"E/Ethernet/Controlled LAN with Membership  Rate Limit.sol\":854:862  isMember */\n      0x00\n        /* \"E/Ethernet/Controlled LAN with Membership  Rate Limit.sol\":854:868  isMember[user] */\n      dup1\n        /* \"E/Ethernet/Controlled LAN with Membership  Rate Limit.sol\":863:867  user */\n      dup5\n        /* \"E/Ethernet/Controlled LAN with Membership  Rate Limit.sol\":854:868  isMember[user] */\n      0xffffffffffffffffffffffffffffffffffffffff\n      and\n      0xffffffffffffffffffffffffffffffffffffffff\n      and\n      dup2\n      mstore\n      0x20\n      add\n      swap1\n      dup2\n      mstore\n      0x20\n      add\n      0x00\n      keccak256\n      0x00\n        /* \"E/Ethernet/Controlled LAN with Membership  Rate Limit.sol\":854:877  isMember[user] = status */\n      0x0100\n      exp\n      dup2\n      sload\n      dup2\n      0xff\n      mul\n      not\n      and\n      swap1\n      dup4\n      iszero\n      iszero\n      mul\n      or\n      swap1\n      sstore\n      pop\n        /* \"E/Ethernet/Controlled LAN with Membership  Rate Limit.sol\":738:884  function setMember(address user, bool status) external {... */\n      pop\n      pop\n      jump\t// out\n        /* \"E/Ethernet/Controlled LAN with Membership  Rate Limit.sol\":340:368  uint256 public cooldown = 60 */\n    tag_35:\n      sload(0x02)\n      dup2\n      jump\t// out\n        /* \"E/Ethernet/Controlled LAN with Membership  Rate Limit.sol\":247:287  mapping(address => bool) public isMember */\n    tag_40:\n      mstore(0x20, 0x00)\n      dup1\n      0x00\n      mstore\n      keccak256(0x00, 0x40)\n      0x00\n      swap2\n      pop\n      sload\n      swap1\n      0x0100\n      exp\n      swap1\n      div\n      0xff\n      and\n      dup2\n      jump\t// out\n        /* \"E/Ethernet/Controlled LAN with Membership  Rate Limit.sol\":1149:1548  function broadcastMessage(bytes calldata message) external payable {... */\n    tag_46:\n        /* \"E/Ethernet/Controlled LAN with Membership  Rate Limit.sol\":1234:1242  isMember */\n      0x00\n        /* \"E/Ethernet/Controlled LAN with Membership  Rate Limit.sol\":1234:1254  isMember[msg.sender] */\n      dup1\n        /* \"E/Ethernet/Controlled LAN with Membership  Rate Limit.sol\":1243:1253  msg.sender */\n      caller\n        /* \"E/Ethernet/Controlled LAN with Membership  Rate Limit.sol\":1234:1254  isMember[msg.sender] */\n      0xffffffffffffffffffffffffffffffffffffffff\n      and\n      0xffffffffffffffffffffffffffffffffffffffff\n      and\n      dup2\n      mstore\n      0x20\n      add\n      swap1\n      dup2\n      mstore\n      0x20\n      add\n      0x00\n      keccak256\n      0x00\n      swap1\n      sload\n      swap1\n      0x0100\n      exp\n      swap1\n      div\n      0xff\n      and\n        /* \"E/Ethernet/Controlled LAN with Membership  Rate Limit.sol\":1226:1280  require(isMember[msg.sender], \"Not in LAN membership\") */\n      tag_67\n      jumpi\n      mload(0x40)\n      0x08c379a000000000000000000000000000000000000000000000000000000000\n      dup2\n      mstore\n      0x04\n      add\n      tag_68\n      swap1\n      tag_69\n      jump\t// in\n    tag_68:\n      mload(0x40)\n      dup1\n      swap2\n      sub\n      swap1\n      revert\n    tag_67:\n        /* \"E/Ethernet/Controlled LAN with Membership  Rate Limit.sol\":1311:1323  broadcastFee */\n      sload(0x01)\n        /* \"E/Ethernet/Controlled LAN with Membership  Rate Limit.sol\":1298:1307  msg.value */\n      callvalue\n        /* \"E/Ethernet/Controlled LAN with Membership  Rate Limit.sol\":1298:1323  msg.value >= broadcastFee */\n      lt\n      iszero\n        /* \"E/Ethernet/Controlled LAN with Membership  Rate Limit.sol\":1290:1340  require(msg.value >= broadcastFee, \"Fee not paid\") */\n      tag_70\n      jumpi\n      mload(0x40)\n      0x08c379a000000000000000000000000000000000000000000000000000000000\n      dup2\n      mstore\n      0x04\n      add\n      tag_71\n      swap1\n      tag_72\n      jump\t// in\n    tag_71:\n      mload(0x40)\n      dup1\n      swap2\n      sub\n      swap1\n      revert\n    tag_70:\n        /* \"E/Ethernet/Controlled LAN with Membership  Rate Limit.sol\":1409:1417  cooldown */\n      sload(0x02)\n        /* \"E/Ethernet/Controlled LAN with Membership  Rate Limit.sol\":1377:1394  lastBroadcastTime */\n      0x03\n        /* \"E/Ethernet/Controlled LAN with Membership  Rate Limit.sol\":1377:1406  lastBroadcastTime[msg.sender] */\n      0x00\n        /* \"E/Ethernet/Controlled LAN with Membership  Rate Limit.sol\":1395:1405  msg.sender */\n      caller\n        /* \"E/Ethernet/Controlled LAN with Membership  Rate Limit.sol\":1377:1406  lastBroadcastTime[msg.sender] */\n      0xffffffffffffffffffffffffffffffffffffffff\n      and\n      0xffffffffffffffffffffffffffffffffffffffff\n      and\n      dup2\n      mstore\n      0x20\n      add\n      swap1\n      dup2\n      mstore\n      0x20\n      add\n      0x00\n      keccak256\n      sload\n        /* \"E/Ethernet/Controlled LAN with Membership  Rate Limit.sol\":1377:1417  lastBroadcastTime[msg.sender] + cooldown */\n      tag_73\n      swap2\n      swap1\n      tag_74\n      jump\t// in\n    tag_73:\n        /* \"E/Ethernet/Controlled LAN with Membership  Rate Limit.sol\":1358:1373  block.timestamp */\n      timestamp\n        /* \"E/Ethernet/Controlled LAN with Membership  Rate Limit.sol\":1358:1417  block.timestamp >= lastBroadcastTime[msg.sender] + cooldown */\n      lt\n      iszero\n        /* \"E/Ethernet/Controlled LAN with Membership  Rate Limit.sol\":1350:1437  require(block.timestamp >= lastBroadcastTime[msg.sender] + cooldown, \"Cooldown active\") */\n      tag_75\n      jumpi\n      mload(0x40)\n      0x08c379a000000000000000000000000000000000000000000000000000000000\n      dup2\n      mstore\n      0x04\n      add\n      tag_76\n      swap1\n      tag_77\n      jump\t// in\n    tag_76:\n      mload(0x40)\n      dup1\n      swap2\n      sub\n      swap1\n      revert\n    tag_75:\n        /* \"E/Ethernet/Controlled LAN with Membership  Rate Limit.sol\":1480:1495  block.timestamp */\n      timestamp\n        /* \"E/Ethernet/Controlled LAN with Membership  Rate Limit.sol\":1448:1465  lastBroadcastTime */\n      0x03\n        /* \"E/Ethernet/Controlled LAN with Membership  Rate Limit.sol\":1448:1477  lastBroadcastTime[msg.sender] */\n      0x00\n        /* \"E/Ethernet/Controlled LAN with Membership  Rate Limit.sol\":1466:1476  msg.sender */\n      caller\n        /* \"E/Ethernet/Controlled LAN with Membership  Rate Limit.sol\":1448:1477  lastBroadcastTime[msg.sender] */\n      0xffffffffffffffffffffffffffffffffffffffff\n      and\n      0xffffffffffffffffffffffffffffffffffffffff\n      and\n      dup2\n      mstore\n      0x20\n      add\n      swap1\n      dup2\n      mstore\n      0x20\n      add\n      0x00\n      keccak256\n        /* \"E/Ethernet/Controlled LAN with Membership  Rate Limit.sol\":1448:1495  lastBroadcastTime[msg.sender] = block.timestamp */\n      dup2\n      swap1\n      sstore\n      pop\n        /* \"E/Ethernet/Controlled LAN with Membership  Rate Limit.sol\":1521:1531  msg.sender */\n      caller\n        /* \"E/Ethernet/Controlled LAN with Membership  Rate Limit.sol\":1511:1541  Broadcast(msg.sender, message) */\n      0xffffffffffffffffffffffffffffffffffffffff\n      and\n      0xdde7dd55e8cc2b0de406a77c362cc0b66ee49e8022f03c215488cd0f866f609b\n        /* \"E/Ethernet/Controlled LAN with Membership  Rate Limit.sol\":1533:1540  message */\n      dup4\n      dup4\n        /* \"E/Ethernet/Controlled LAN with Membership  Rate Limit.sol\":1511:1541  Broadcast(msg.sender, message) */\n      mload(0x40)\n      tag_78\n      swap3\n      swap2\n      swap1\n      tag_79\n      jump\t// in\n    tag_78:\n      mload(0x40)\n      dup1\n      swap2\n      sub\n      swap1\n      log2\n        /* \"E/Ethernet/Controlled LAN with Membership  Rate Limit.sol\":1149:1548  function broadcastMessage(bytes calldata message) external payable {... */\n      pop\n      pop\n      jump\t// out\n        /* \"E/Ethernet/Controlled LAN with Membership  Rate Limit.sol\":293:334  uint256 public broadcastFee = 0.001 ether */\n    tag_49:\n      sload(0x01)\n      dup2\n      jump\t// out\n        /* \"E/Ethernet/Controlled LAN with Membership  Rate Limit.sol\":505:525  address public admin */\n    tag_53:\n      0x04\n      0x00\n      swap1\n      sload\n      swap1\n      0x0100\n      exp\n      swap1\n      div\n      0xffffffffffffffffffffffffffffffffffffffff\n      and\n      dup2\n      jump\t// out\n        /* \"#utility.yul\":88:205   */\n    tag_81:\n        /* \"#utility.yul\":197:198   */\n      0x00\n        /* \"#utility.yul\":194:195   */\n      dup1\n        /* \"#utility.yul\":187:199   */\n      revert\n        /* \"#utility.yul\":211:328   */\n    tag_82:\n        /* \"#utility.yul\":320:321   */\n      0x00\n        /* \"#utility.yul\":317:318   */\n      dup1\n        /* \"#utility.yul\":310:322   */\n      revert\n        /* \"#utility.yul\":334:460   */\n    tag_83:\n        /* \"#utility.yul\":371:378   */\n      0x00\n        /* \"#utility.yul\":411:453   */\n      0xffffffffffffffffffffffffffffffffffffffff\n        /* \"#utility.yul\":404:409   */\n      dup3\n        /* \"#utility.yul\":400:454   */\n      and\n        /* \"#utility.yul\":389:454   */\n      swap1\n      pop\n        /* \"#utility.yul\":334:460   */\n      swap2\n      swap1\n      pop\n      jump\t// out\n        /* \"#utility.yul\":466:562   */\n    tag_84:\n        /* \"#utility.yul\":503:510   */\n      0x00\n        /* \"#utility.yul\":532:556   */\n      tag_120\n        /* \"#utility.yul\":550:555   */\n      dup3\n        /* \"#utility.yul\":532:556   */\n      tag_83\n      jump\t// in\n    tag_120:\n        /* \"#utility.yul\":521:556   */\n      swap1\n      pop\n        /* \"#utility.yul\":466:562   */\n      swap2\n      swap1\n      pop\n      jump\t// out\n        /* \"#utility.yul\":568:690   */\n    tag_85:\n        /* \"#utility.yul\":641:665   */\n      tag_122\n        /* \"#utility.yul\":659:664   */\n      dup2\n        /* \"#utility.yul\":641:665   */\n      tag_84\n      jump\t// in\n    tag_122:\n        /* \"#utility.yul\":634:639   */\n      dup2\n        /* \"#utility.yul\":631:666   */\n      eq\n        /* \"#utility.yul\":621:684   */\n      tag_123\n      jumpi\n        /* \"#utility.yul\":680:681   */\n      0x00\n        /* \"#utility.yul\":677:678   */\n      dup1\n        /* \"#utility.yul\":670:682   */\n      revert\n        /* \"#utility.yul\":621:684   */\n    tag_123:\n        /* \"#utility.yul\":568:690   */\n      pop\n      jump\t// out\n        /* \"#utility.yul\":696:835   */\n    tag_86:\n        /* \"#utility.yul\":742:747   */\n      0x00\n        /* \"#utility.yul\":780:786   */\n      dup2\n        /* \"#utility.yul\":767:787   */\n      calldataload\n        /* \"#utility.yul\":758:787   */\n      swap1\n      pop\n        /* \"#utility.yul\":796:829   */\n      tag_125\n        /* \"#utility.yul\":823:828   */\n      dup2\n        /* \"#utility.yul\":796:829   */\n      tag_85\n      jump\t// in\n    tag_125:\n        /* \"#utility.yul\":696:835   */\n      swap3\n      swap2\n      pop\n      pop\n      jump\t// out\n        /* \"#utility.yul\":841:1170   */\n    tag_15:\n        /* \"#utility.yul\":900:906   */\n      0x00\n        /* \"#utility.yul\":949:951   */\n      0x20\n        /* \"#utility.yul\":937:946   */\n      dup3\n        /* \"#utility.yul\":928:935   */\n      dup5\n        /* \"#utility.yul\":924:947   */\n      sub\n        /* \"#utility.yul\":920:952   */\n      slt\n        /* \"#utility.yul\":917:1036   */\n      iszero\n      tag_127\n      jumpi\n        /* \"#utility.yul\":955:1034   */\n      tag_128\n      tag_81\n      jump\t// in\n    tag_128:\n        /* \"#utility.yul\":917:1036   */\n    tag_127:\n        /* \"#utility.yul\":1075:1076   */\n      0x00\n        /* \"#utility.yul\":1100:1153   */\n      tag_129\n        /* \"#utility.yul\":1145:1152   */\n      dup5\n        /* \"#utility.yul\":1136:1142   */\n      dup3\n        /* \"#utility.yul\":1125:1134   */\n      dup6\n        /* \"#utility.yul\":1121:1143   */\n      add\n        /* \"#utility.yul\":1100:1153   */\n      tag_86\n      jump\t// in\n    tag_129:\n        /* \"#utility.yul\":1090:1153   */\n      swap2\n      pop\n        /* \"#utility.yul\":1046:1163   */\n      pop\n        /* \"#utility.yul\":841:1170   */\n      swap3\n      swap2\n      pop\n      pop\n      jump\t// out\n        /* \"#utility.yul\":1176:1253   */\n    tag_87:\n        /* \"#utility.yul\":1213:1220   */\n      0x00\n        /* \"#utility.yul\":1242:1247   */\n      dup2\n        /* \"#utility.yul\":1231:1247   */\n      swap1\n      pop\n        /* \"#utility.yul\":1176:1253   */\n      swap2\n      swap1\n      pop\n      jump\t// out\n        /* \"#utility.yul\":1259:1377   */\n    tag_88:\n        /* \"#utility.yul\":1346:1370   */\n      tag_132\n        /* \"#utility.yul\":1364:1369   */\n      dup2\n        /* \"#utility.yul\":1346:1370   */\n      tag_87\n      jump\t// in\n    tag_132:\n        /* \"#utility.yul\":1341:1344   */\n      dup3\n        /* \"#utility.yul\":1334:1371   */\n      mstore\n        /* \"#utility.yul\":1259:1377   */\n      pop\n      pop\n      jump\t// out\n        /* \"#utility.yul\":1383:1605   */\n    tag_18:\n        /* \"#utility.yul\":1476:1480   */\n      0x00\n        /* \"#utility.yul\":1514:1516   */\n      0x20\n        /* \"#utility.yul\":1503:1512   */\n      dup3\n        /* \"#utility.yul\":1499:1517   */\n      add\n        /* \"#utility.yul\":1491:1517   */\n      swap1\n      pop\n        /* \"#utility.yul\":1527:1598   */\n      tag_134\n        /* \"#utility.yul\":1595:1596   */\n      0x00\n        /* \"#utility.yul\":1584:1593   */\n      dup4\n        /* \"#utility.yul\":1580:1597   */\n      add\n        /* \"#utility.yul\":1571:1577   */\n      dup5\n        /* \"#utility.yul\":1527:1598   */\n      tag_88\n      jump\t// in\n    tag_134:\n        /* \"#utility.yul\":1383:1605   */\n      swap3\n      swap2\n      pop\n      pop\n      jump\t// out\n        /* \"#utility.yul\":1611:1733   */\n    tag_89:\n        /* \"#utility.yul\":1684:1708   */\n      tag_136\n        /* \"#utility.yul\":1702:1707   */\n      dup2\n        /* \"#utility.yul\":1684:1708   */\n      tag_87\n      jump\t// in\n    tag_136:\n        /* \"#utility.yul\":1677:1682   */\n      dup2\n        /* \"#utility.yul\":1674:1709   */\n      eq\n        /* \"#utility.yul\":1664:1727   */\n      tag_137\n      jumpi\n        /* \"#utility.yul\":1723:1724   */\n      0x00\n        /* \"#utility.yul\":1720:1721   */\n      dup1\n        /* \"#utility.yul\":1713:1725   */\n      revert\n        /* \"#utility.yul\":1664:1727   */\n    tag_137:\n        /* \"#utility.yul\":1611:1733   */\n      pop\n      jump\t// out\n        /* \"#utility.yul\":1739:1878   */\n    tag_90:\n        /* \"#utility.yul\":1785:1790   */\n      0x00\n        /* \"#utility.yul\":1823:1829   */\n      dup2\n        /* \"#utility.yul\":1810:1830   */\n      calldataload\n        /* \"#utility.yul\":1801:1830   */\n      swap1\n      pop\n        /* \"#utility.yul\":1839:1872   */\n      tag_139\n        /* \"#utility.yul\":1866:1871   */\n      dup2\n        /* \"#utility.yul\":1839:1872   */\n      tag_89\n      jump\t// in\n    tag_139:\n        /* \"#utility.yul\":1739:1878   */\n      swap3\n      swap2\n      pop\n      pop\n      jump\t// out\n        /* \"#utility.yul\":1884:2213   */\n    tag_22:\n        /* \"#utility.yul\":1943:1949   */\n      0x00\n        /* \"#utility.yul\":1992:1994   */\n      0x20\n        /* \"#utility.yul\":1980:1989   */\n      dup3\n        /* \"#utility.yul\":1971:1978   */\n      dup5\n        /* \"#utility.yul\":1967:1990   */\n      sub\n        /* \"#utility.yul\":1963:1995   */\n      slt\n        /* \"#utility.yul\":1960:2079   */\n      iszero\n      tag_141\n      jumpi\n        /* \"#utility.yul\":1998:2077   */\n      tag_142\n      tag_81\n      jump\t// in\n    tag_142:\n        /* \"#utility.yul\":1960:2079   */\n    tag_141:\n        /* \"#utility.yul\":2118:2119   */\n      0x00\n        /* \"#utility.yul\":2143:2196   */\n      tag_143\n        /* \"#utility.yul\":2188:2195   */\n      dup5\n        /* \"#utility.yul\":2179:2185   */\n      dup3\n        /* \"#utility.yul\":2168:2177   */\n      dup6\n        /* \"#utility.yul\":2164:2186   */\n      add\n        /* \"#utility.yul\":2143:2196   */\n      tag_90\n      jump\t// in\n    tag_143:\n        /* \"#utility.yul\":2133:2196   */\n      swap2\n      pop\n        /* \"#utility.yul\":2089:2206   */\n      pop\n        /* \"#utility.yul\":1884:2213   */\n      swap3\n      swap2\n      pop\n      pop\n      jump\t// out\n        /* \"#utility.yul\":2219:2309   */\n    tag_91:\n        /* \"#utility.yul\":2253:2260   */\n      0x00\n        /* \"#utility.yul\":2296:2301   */\n      dup2\n        /* \"#utility.yul\":2289:2302   */\n      iszero\n        /* \"#utility.yul\":2282:2303   */\n      iszero\n        /* \"#utility.yul\":2271:2303   */\n      swap1\n      pop\n        /* \"#utility.yul\":2219:2309   */\n      swap2\n      swap1\n      pop\n      jump\t// out\n        /* \"#utility.yul\":2315:2431   */\n    tag_92:\n        /* \"#utility.yul\":2385:2406   */\n      tag_146\n        /* \"#utility.yul\":2400:2405   */\n      dup2\n        /* \"#utility.yul\":2385:2406   */\n      tag_91\n      jump\t// in\n    tag_146:\n        /* \"#utility.yul\":2378:2383   */\n      dup2\n        /* \"#utility.yul\":2375:2407   */\n      eq\n        /* \"#utility.yul\":2365:2425   */\n      tag_147\n      jumpi\n        /* \"#utility.yul\":2421:2422   */\n      0x00\n        /* \"#utility.yul\":2418:2419   */\n      dup1\n        /* \"#utility.yul\":2411:2423   */\n      revert\n        /* \"#utility.yul\":2365:2425   */\n    tag_147:\n        /* \"#utility.yul\":2315:2431   */\n      pop\n      jump\t// out\n        /* \"#utility.yul\":2437:2570   */\n    tag_93:\n        /* \"#utility.yul\":2480:2485   */\n      0x00\n        /* \"#utility.yul\":2518:2524   */\n      dup2\n        /* \"#utility.yul\":2505:2525   */\n      calldataload\n        /* \"#utility.yul\":2496:2525   */\n      swap1\n      pop\n        /* \"#utility.yul\":2534:2564   */\n      tag_149\n        /* \"#utility.yul\":2558:2563   */\n      dup2\n        /* \"#utility.yul\":2534:2564   */\n      tag_92\n      jump\t// in\n    tag_149:\n        /* \"#utility.yul\":2437:2570   */\n      swap3\n      swap2\n      pop\n      pop\n      jump\t// out\n        /* \"#utility.yul\":2576:3044   */\n    tag_31:\n        /* \"#utility.yul\":2641:2647   */\n      0x00\n        /* \"#utility.yul\":2649:2655   */\n      dup1\n        /* \"#utility.yul\":2698:2700   */\n      0x40\n        /* \"#utility.yul\":2686:2695   */\n      dup4\n        /* \"#utility.yul\":2677:2684   */\n      dup6\n        /* \"#utility.yul\":2673:2696   */\n      sub\n        /* \"#utility.yul\":2669:2701   */\n      slt\n        /* \"#utility.yul\":2666:2785   */\n      iszero\n      tag_151\n      jumpi\n        /* \"#utility.yul\":2704:2783   */\n      tag_152\n      tag_81\n      jump\t// in\n    tag_152:\n        /* \"#utility.yul\":2666:2785   */\n    tag_151:\n        /* \"#utility.yul\":2824:2825   */\n      0x00\n        /* \"#utility.yul\":2849:2902   */\n      tag_153\n        /* \"#utility.yul\":2894:2901   */\n      dup6\n        /* \"#utility.yul\":2885:2891   */\n      dup3\n        /* \"#utility.yul\":2874:2883   */\n      dup7\n        /* \"#utility.yul\":2870:2892   */\n      add\n        /* \"#utility.yul\":2849:2902   */\n      tag_86\n      jump\t// in\n    tag_153:\n        /* \"#utility.yul\":2839:2902   */\n      swap3\n      pop\n        /* \"#utility.yul\":2795:2912   */\n      pop\n        /* \"#utility.yul\":2951:2953   */\n      0x20\n        /* \"#utility.yul\":2977:3027   */\n      tag_154\n        /* \"#utility.yul\":3019:3026   */\n      dup6\n        /* \"#utility.yul\":3010:3016   */\n      dup3\n        /* \"#utility.yul\":2999:3008   */\n      dup7\n        /* \"#utility.yul\":2995:3017   */\n      add\n        /* \"#utility.yul\":2977:3027   */\n      tag_93\n      jump\t// in\n    tag_154:\n        /* \"#utility.yul\":2967:3027   */\n      swap2\n      pop\n        /* \"#utility.yul\":2922:3037   */\n      pop\n        /* \"#utility.yul\":2576:3044   */\n      swap3\n      pop\n      swap3\n      swap1\n      pop\n      jump\t// out\n        /* \"#utility.yul\":3050:3159   */\n    tag_94:\n        /* \"#utility.yul\":3131:3152   */\n      tag_156\n        /* \"#utility.yul\":3146:3151   */\n      dup2\n        /* \"#utility.yul\":3131:3152   */\n      tag_91\n      jump\t// in\n    tag_156:\n        /* \"#utility.yul\":3126:3129   */\n      dup3\n        /* \"#utility.yul\":3119:3153   */\n      mstore\n        /* \"#utility.yul\":3050:3159   */\n      pop\n      pop\n      jump\t// out\n        /* \"#utility.yul\":3165:3375   */\n    tag_42:\n        /* \"#utility.yul\":3252:3256   */\n      0x00\n        /* \"#utility.yul\":3290:3292   */\n      0x20\n        /* \"#utility.yul\":3279:3288   */\n      dup3\n        /* \"#utility.yul\":3275:3293   */\n      add\n        /* \"#utility.yul\":3267:3293   */\n      swap1\n      pop\n        /* \"#utility.yul\":3303:3368   */\n      tag_158\n        /* \"#utility.yul\":3365:3366   */\n      0x00\n        /* \"#utility.yul\":3354:3363   */\n      dup4\n        /* \"#utility.yul\":3350:3367   */\n      add\n        /* \"#utility.yul\":3341:3347   */\n      dup5\n        /* \"#utility.yul\":3303:3368   */\n      tag_94\n      jump\t// in\n    tag_158:\n        /* \"#utility.yul\":3165:3375   */\n      swap3\n      swap2\n      pop\n      pop\n      jump\t// out\n        /* \"#utility.yul\":3381:3498   */\n    tag_95:\n        /* \"#utility.yul\":3490:3491   */\n      0x00\n        /* \"#utility.yul\":3487:3488   */\n      dup1\n        /* \"#utility.yul\":3480:3492   */\n      revert\n        /* \"#utility.yul\":3504:3621   */\n    tag_96:\n        /* \"#utility.yul\":3613:3614   */\n      0x00\n        /* \"#utility.yul\":3610:3611   */\n      dup1\n        /* \"#utility.yul\":3603:3615   */\n      revert\n        /* \"#utility.yul\":3627:3744   */\n    tag_97:\n        /* \"#utility.yul\":3736:3737   */\n      0x00\n        /* \"#utility.yul\":3733:3734   */\n      dup1\n        /* \"#utility.yul\":3726:3738   */\n      revert\n        /* \"#utility.yul\":3763:4315   */\n    tag_98:\n        /* \"#utility.yul\":3820:3828   */\n      0x00\n        /* \"#utility.yul\":3830:3836   */\n      dup1\n        /* \"#utility.yul\":3880:3883   */\n      dup4\n        /* \"#utility.yul\":3873:3877   */\n      0x1f\n        /* \"#utility.yul\":3865:3871   */\n      dup5\n        /* \"#utility.yul\":3861:3878   */\n      add\n        /* \"#utility.yul\":3857:3884   */\n      slt\n        /* \"#utility.yul\":3847:3969   */\n      tag_163\n      jumpi\n        /* \"#utility.yul\":3888:3967   */\n      tag_164\n      tag_95\n      jump\t// in\n    tag_164:\n        /* \"#utility.yul\":3847:3969   */\n    tag_163:\n        /* \"#utility.yul\":4001:4007   */\n      dup3\n        /* \"#utility.yul\":3988:4008   */\n      calldataload\n        /* \"#utility.yul\":3978:4008   */\n      swap1\n      pop\n        /* \"#utility.yul\":4031:4049   */\n      0xffffffffffffffff\n        /* \"#utility.yul\":4023:4029   */\n      dup2\n        /* \"#utility.yul\":4020:4050   */\n      gt\n        /* \"#utility.yul\":4017:4134   */\n      iszero\n      tag_165\n      jumpi\n        /* \"#utility.yul\":4053:4132   */\n      tag_166\n      tag_96\n      jump\t// in\n    tag_166:\n        /* \"#utility.yul\":4017:4134   */\n    tag_165:\n        /* \"#utility.yul\":4167:4171   */\n      0x20\n        /* \"#utility.yul\":4159:4165   */\n      dup4\n        /* \"#utility.yul\":4155:4172   */\n      add\n        /* \"#utility.yul\":4143:4172   */\n      swap2\n      pop\n        /* \"#utility.yul\":4221:4224   */\n      dup4\n        /* \"#utility.yul\":4213:4217   */\n      0x01\n        /* \"#utility.yul\":4205:4211   */\n      dup3\n        /* \"#utility.yul\":4201:4218   */\n      mul\n        /* \"#utility.yul\":4191:4199   */\n      dup4\n        /* \"#utility.yul\":4187:4219   */\n      add\n        /* \"#utility.yul\":4184:4225   */\n      gt\n        /* \"#utility.yul\":4181:4309   */\n      iszero\n      tag_167\n      jumpi\n        /* \"#utility.yul\":4228:4307   */\n      tag_168\n      tag_97\n      jump\t// in\n    tag_168:\n        /* \"#utility.yul\":4181:4309   */\n    tag_167:\n        /* \"#utility.yul\":3763:4315   */\n      swap3\n      pop\n      swap3\n      swap1\n      pop\n      jump\t// out\n        /* \"#utility.yul\":4321:4848   */\n    tag_45:\n        /* \"#utility.yul\":4391:4397   */\n      0x00\n        /* \"#utility.yul\":4399:4405   */\n      dup1\n        /* \"#utility.yul\":4448:4450   */\n      0x20\n        /* \"#utility.yul\":4436:4445   */\n      dup4\n        /* \"#utility.yul\":4427:4434   */\n      dup6\n        /* \"#utility.yul\":4423:4446   */\n      sub\n        /* \"#utility.yul\":4419:4451   */\n      slt\n        /* \"#utility.yul\":4416:4535   */\n      iszero\n      tag_170\n      jumpi\n        /* \"#utility.yul\":4454:4533   */\n      tag_171\n      tag_81\n      jump\t// in\n    tag_171:\n        /* \"#utility.yul\":4416:4535   */\n    tag_170:\n        /* \"#utility.yul\":4602:4603   */\n      0x00\n        /* \"#utility.yul\":4591:4600   */\n      dup4\n        /* \"#utility.yul\":4587:4604   */\n      add\n        /* \"#utility.yul\":4574:4605   */\n      calldataload\n        /* \"#utility.yul\":4632:4650   */\n      0xffffffffffffffff\n        /* \"#utility.yul\":4624:4630   */\n      dup2\n        /* \"#utility.yul\":4621:4651   */\n      gt\n        /* \"#utility.yul\":4618:4735   */\n      iszero\n      tag_172\n      jumpi\n        /* \"#utility.yul\":4654:4733   */\n      tag_173\n      tag_82\n      jump\t// in\n    tag_173:\n        /* \"#utility.yul\":4618:4735   */\n    tag_172:\n        /* \"#utility.yul\":4767:4831   */\n      tag_174\n        /* \"#utility.yul\":4823:4830   */\n      dup6\n        /* \"#utility.yul\":4814:4820   */\n      dup3\n        /* \"#utility.yul\":4803:4812   */\n      dup7\n        /* \"#utility.yul\":4799:4821   */\n      add\n        /* \"#utility.yul\":4767:4831   */\n      tag_98\n      jump\t// in\n    tag_174:\n        /* \"#utility.yul\":4749:4831   */\n      swap3\n      pop\n      swap3\n      pop\n        /* \"#utility.yul\":4545:4841   */\n      pop\n        /* \"#utility.yul\":4321:4848   */\n      swap3\n      pop\n      swap3\n      swap1\n      pop\n      jump\t// out\n        /* \"#utility.yul\":4854:4972   */\n    tag_99:\n        /* \"#utility.yul\":4941:4965   */\n      tag_176\n        /* \"#utility.yul\":4959:4964   */\n      dup2\n        /* \"#utility.yul\":4941:4965   */\n      tag_84\n      jump\t// in\n    tag_176:\n        /* \"#utility.yul\":4936:4939   */\n      dup3\n        /* \"#utility.yul\":4929:4966   */\n      mstore\n        /* \"#utility.yul\":4854:4972   */\n      pop\n      pop\n      jump\t// out\n        /* \"#utility.yul\":4978:5200   */\n    tag_55:\n        /* \"#utility.yul\":5071:5075   */\n      0x00\n        /* \"#utility.yul\":5109:5111   */\n      0x20\n        /* \"#utility.yul\":5098:5107   */\n      dup3\n        /* \"#utility.yul\":5094:5112   */\n      add\n        /* \"#utility.yul\":5086:5112   */\n      swap1\n      pop\n        /* \"#utility.yul\":5122:5193   */\n      tag_178\n        /* \"#utility.yul\":5190:5191   */\n      0x00\n        /* \"#utility.yul\":5179:5188   */\n      dup4\n        /* \"#utility.yul\":5175:5192   */\n      add\n        /* \"#utility.yul\":5166:5172   */\n      dup5\n        /* \"#utility.yul\":5122:5193   */\n      tag_99\n      jump\t// in\n    tag_178:\n        /* \"#utility.yul\":4978:5200   */\n      swap3\n      swap2\n      pop\n      pop\n      jump\t// out\n        /* \"#utility.yul\":5206:5375   */\n    tag_100:\n        /* \"#utility.yul\":5290:5301   */\n      0x00\n        /* \"#utility.yul\":5324:5330   */\n      dup3\n        /* \"#utility.yul\":5319:5322   */\n      dup3\n        /* \"#utility.yul\":5312:5331   */\n      mstore\n        /* \"#utility.yul\":5364:5368   */\n      0x20\n        /* \"#utility.yul\":5359:5362   */\n      dup3\n        /* \"#utility.yul\":5355:5369   */\n      add\n        /* \"#utility.yul\":5340:5369   */\n      swap1\n      pop\n        /* \"#utility.yul\":5206:5375   */\n      swap3\n      swap2\n      pop\n      pop\n      jump\t// out\n        /* \"#utility.yul\":5381:5540   */\n    tag_101:\n        /* \"#utility.yul\":5521:5532   */\n      0x4e6f742061646d696e0000000000000000000000000000000000000000000000\n        /* \"#utility.yul\":5517:5518   */\n      0x00\n        /* \"#utility.yul\":5509:5515   */\n      dup3\n        /* \"#utility.yul\":5505:5519   */\n      add\n        /* \"#utility.yul\":5498:5533   */\n      mstore\n        /* \"#utility.yul\":5381:5540   */\n      pop\n      jump\t// out\n        /* \"#utility.yul\":5546:5911   */\n    tag_102:\n        /* \"#utility.yul\":5688:5691   */\n      0x00\n        /* \"#utility.yul\":5709:5775   */\n      tag_182\n        /* \"#utility.yul\":5773:5774   */\n      0x09\n        /* \"#utility.yul\":5768:5771   */\n      dup4\n        /* \"#utility.yul\":5709:5775   */\n      tag_100\n      jump\t// in\n    tag_182:\n        /* \"#utility.yul\":5702:5775   */\n      swap2\n      pop\n        /* \"#utility.yul\":5784:5877   */\n      tag_183\n        /* \"#utility.yul\":5873:5876   */\n      dup3\n        /* \"#utility.yul\":5784:5877   */\n      tag_101\n      jump\t// in\n    tag_183:\n        /* \"#utility.yul\":5902:5904   */\n      0x20\n        /* \"#utility.yul\":5897:5900   */\n      dup3\n        /* \"#utility.yul\":5893:5905   */\n      add\n        /* \"#utility.yul\":5886:5905   */\n      swap1\n      pop\n        /* \"#utility.yul\":5546:5911   */\n      swap2\n      swap1\n      pop\n      jump\t// out\n        /* \"#utility.yul\":5917:6336   */\n    tag_59:\n        /* \"#utility.yul\":6083:6087   */\n      0x00\n        /* \"#utility.yul\":6121:6123   */\n      0x20\n        /* \"#utility.yul\":6110:6119   */\n      dup3\n        /* \"#utility.yul\":6106:6124   */\n      add\n        /* \"#utility.yul\":6098:6124   */\n      swap1\n      pop\n        /* \"#utility.yul\":6170:6179   */\n      dup2\n        /* \"#utility.yul\":6164:6168   */\n      dup2\n        /* \"#utility.yul\":6160:6180   */\n      sub\n        /* \"#utility.yul\":6156:6157   */\n      0x00\n        /* \"#utility.yul\":6145:6154   */\n      dup4\n        /* \"#utility.yul\":6141:6158   */\n      add\n        /* \"#utility.yul\":6134:6181   */\n      mstore\n        /* \"#utility.yul\":6198:6329   */\n      tag_185\n        /* \"#utility.yul\":6324:6328   */\n      dup2\n        /* \"#utility.yul\":6198:6329   */\n      tag_102\n      jump\t// in\n    tag_185:\n        /* \"#utility.yul\":6190:6329   */\n      swap1\n      pop\n        /* \"#utility.yul\":5917:6336   */\n      swap2\n      swap1\n      pop\n      jump\t// out\n        /* \"#utility.yul\":6342:6513   */\n    tag_103:\n        /* \"#utility.yul\":6482:6505   */\n      0x4e6f7420696e204c414e206d656d626572736869700000000000000000000000\n        /* \"#utility.yul\":6478:6479   */\n      0x00\n        /* \"#utility.yul\":6470:6476   */\n      dup3\n        /* \"#utility.yul\":6466:6480   */\n      add\n        /* \"#utility.yul\":6459:6506   */\n      mstore\n        /* \"#utility.yul\":6342:6513   */\n      pop\n      jump\t// out\n        /* \"#utility.yul\":6519:6885   */\n    tag_104:\n        /* \"#utility.yul\":6661:6664   */\n      0x00\n        /* \"#utility.yul\":6682:6749   */\n      tag_188\n        /* \"#utility.yul\":6746:6748   */\n      0x15\n        /* \"#utility.yul\":6741:6744   */\n      dup4\n        /* \"#utility.yul\":6682:6749   */\n      tag_100\n      jump\t// in\n    tag_188:\n        /* \"#utility.yul\":6675:6749   */\n      swap2\n      pop\n        /* \"#utility.yul\":6758:6851   */\n      tag_189\n        /* \"#utility.yul\":6847:6850   */\n      dup3\n        /* \"#utility.yul\":6758:6851   */\n      tag_103\n      jump\t// in\n    tag_189:\n        /* \"#utility.yul\":6876:6878   */\n      0x20\n        /* \"#utility.yul\":6871:6874   */\n      dup3\n        /* \"#utility.yul\":6867:6879   */\n      add\n        /* \"#utility.yul\":6860:6879   */\n      swap1\n      pop\n        /* \"#utility.yul\":6519:6885   */\n      swap2\n      swap1\n      pop\n      jump\t// out\n        /* \"#utility.yul\":6891:7310   */\n    tag_69:\n        /* \"#utility.yul\":7057:7061   */\n      0x00\n        /* \"#utility.yul\":7095:7097   */\n      0x20\n        /* \"#utility.yul\":7084:7093   */\n      dup3\n        /* \"#utility.yul\":7080:7098   */\n      add\n        /* \"#utility.yul\":7072:7098   */\n      swap1\n      pop\n        /* \"#utility.yul\":7144:7153   */\n      dup2\n        /* \"#utility.yul\":7138:7142   */\n      dup2\n        /* \"#utility.yul\":7134:7154   */\n      sub\n        /* \"#utility.yul\":7130:7131   */\n      0x00\n        /* \"#utility.yul\":7119:7128   */\n      dup4\n        /* \"#utility.yul\":7115:7132   */\n      add\n        /* \"#utility.yul\":7108:7155   */\n      mstore\n        /* \"#utility.yul\":7172:7303   */\n      tag_191\n        /* \"#utility.yul\":7298:7302   */\n      dup2\n        /* \"#utility.yul\":7172:7303   */\n      tag_104\n      jump\t// in\n    tag_191:\n        /* \"#utility.yul\":7164:7303   */\n      swap1\n      pop\n        /* \"#utility.yul\":6891:7310   */\n      swap2\n      swap1\n      pop\n      jump\t// out\n        /* \"#utility.yul\":7316:7478   */\n    tag_105:\n        /* \"#utility.yul\":7456:7470   */\n      0x466565206e6f7420706169640000000000000000000000000000000000000000\n        /* \"#utility.yul\":7452:7453   */\n      0x00\n        /* \"#utility.yul\":7444:7450   */\n      dup3\n        /* \"#utility.yul\":7440:7454   */\n      add\n        /* \"#utility.yul\":7433:7471   */\n      mstore\n        /* \"#utility.yul\":7316:7478   */\n      pop\n      jump\t// out\n        /* \"#utility.yul\":7484:7850   */\n    tag_106:\n        /* \"#utility.yul\":7626:7629   */\n      0x00\n        /* \"#utility.yul\":7647:7714   */\n      tag_194\n        /* \"#utility.yul\":7711:7713   */\n      0x0c\n        /* \"#utility.yul\":7706:7709   */\n      dup4\n        /* \"#utility.yul\":7647:7714   */\n      tag_100\n      jump\t// in\n    tag_194:\n        /* \"#utility.yul\":7640:7714   */\n      swap2\n      pop\n        /* \"#utility.yul\":7723:7816   */\n      tag_195\n        /* \"#utility.yul\":7812:7815   */\n      dup3\n        /* \"#utility.yul\":7723:7816   */\n      tag_105\n      jump\t// in\n    tag_195:\n        /* \"#utility.yul\":7841:7843   */\n      0x20\n        /* \"#utility.yul\":7836:7839   */\n      dup3\n        /* \"#utility.yul\":7832:7844   */\n      add\n        /* \"#utility.yul\":7825:7844   */\n      swap1\n      pop\n        /* \"#utility.yul\":7484:7850   */\n      swap2\n      swap1\n      pop\n      jump\t// out\n        /* \"#utility.yul\":7856:8275   */\n    tag_72:\n        /* \"#utility.yul\":8022:8026   */\n      0x00\n        /* \"#utility.yul\":8060:8062   */\n      0x20\n        /* \"#utility.yul\":8049:8058   */\n      dup3\n        /* \"#utility.yul\":8045:8063   */\n      add\n        /* \"#utility.yul\":8037:8063   */\n      swap1\n      pop\n        /* \"#utility.yul\":8109:8118   */\n      dup2\n        /* \"#utility.yul\":8103:8107   */\n      dup2\n        /* \"#utility.yul\":8099:8119   */\n      sub\n        /* \"#utility.yul\":8095:8096   */\n      0x00\n        /* \"#utility.yul\":8084:8093   */\n      dup4\n        /* \"#utility.yul\":8080:8097   */\n      add\n        /* \"#utility.yul\":8073:8120   */\n      mstore\n        /* \"#utility.yul\":8137:8268   */\n      tag_197\n        /* \"#utility.yul\":8263:8267   */\n      dup2\n        /* \"#utility.yul\":8137:8268   */\n      tag_106\n      jump\t// in\n    tag_197:\n        /* \"#utility.yul\":8129:8268   */\n      swap1\n      pop\n        /* \"#utility.yul\":7856:8275   */\n      swap2\n      swap1\n      pop\n      jump\t// out\n        /* \"#utility.yul\":8281:8461   */\n    tag_107:\n        /* \"#utility.yul\":8329:8406   */\n      0x4e487b7100000000000000000000000000000000000000000000000000000000\n        /* \"#utility.yul\":8326:8327   */\n      0x00\n        /* \"#utility.yul\":8319:8407   */\n      mstore\n        /* \"#utility.yul\":8426:8430   */\n      0x11\n        /* \"#utility.yul\":8423:8424   */\n      0x04\n        /* \"#utility.yul\":8416:8431   */\n      mstore\n        /* \"#utility.yul\":8450:8454   */\n      0x24\n        /* \"#utility.yul\":8447:8448   */\n      0x00\n        /* \"#utility.yul\":8440:8455   */\n      revert\n        /* \"#utility.yul\":8467:8658   */\n    tag_74:\n        /* \"#utility.yul\":8507:8510   */\n      0x00\n        /* \"#utility.yul\":8526:8546   */\n      tag_200\n        /* \"#utility.yul\":8544:8545   */\n      dup3\n        /* \"#utility.yul\":8526:8546   */\n      tag_87\n      jump\t// in\n    tag_200:\n        /* \"#utility.yul\":8521:8546   */\n      swap2\n      pop\n        /* \"#utility.yul\":8560:8580   */\n      tag_201\n        /* \"#utility.yul\":8578:8579   */\n      dup4\n        /* \"#utility.yul\":8560:8580   */\n      tag_87\n      jump\t// in\n    tag_201:\n        /* \"#utility.yul\":8555:8580   */\n      swap3\n      pop\n        /* \"#utility.yul\":8603:8604   */\n      dup3\n        /* \"#utility.yul\":8600:8601   */\n      dup3\n        /* \"#utility.yul\":8596:8605   */\n      add\n        /* \"#utility.yul\":8589:8605   */\n      swap1\n      pop\n        /* \"#utility.yul\":8624:8627   */\n      dup1\n        /* \"#utility.yul\":8621:8622   */\n      dup3\n        /* \"#utility.yul\":8618:8628   */\n      gt\n        /* \"#utility.yul\":8615:8651   */\n      iszero\n      tag_202\n      jumpi\n        /* \"#utility.yul\":8631:8649   */\n      tag_203\n      tag_107\n      jump\t// in\n    tag_203:\n        /* \"#utility.yul\":8615:8651   */\n    tag_202:\n        /* \"#utility.yul\":8467:8658   */\n      swap3\n      swap2\n      pop\n      pop\n      jump\t// out\n        /* \"#utility.yul\":8664:8829   */\n    tag_108:\n        /* \"#utility.yul\":8804:8821   */\n      0x436f6f6c646f776e206163746976650000000000000000000000000000000000\n        /* \"#utility.yul\":8800:8801   */\n      0x00\n        /* \"#utility.yul\":8792:8798   */\n      dup3\n        /* \"#utility.yul\":8788:8802   */\n      add\n        /* \"#utility.yul\":8781:8822   */\n      mstore\n        /* \"#utility.yul\":8664:8829   */\n      pop\n      jump\t// out\n        /* \"#utility.yul\":8835:9201   */\n    tag_109:\n        /* \"#utility.yul\":8977:8980   */\n      0x00\n        /* \"#utility.yul\":8998:9065   */\n      tag_206\n        /* \"#utility.yul\":9062:9064   */\n      0x0f\n        /* \"#utility.yul\":9057:9060   */\n      dup4\n        /* \"#utility.yul\":8998:9065   */\n      tag_100\n      jump\t// in\n    tag_206:\n        /* \"#utility.yul\":8991:9065   */\n      swap2\n      pop\n        /* \"#utility.yul\":9074:9167   */\n      tag_207\n        /* \"#utility.yul\":9163:9166   */\n      dup3\n        /* \"#utility.yul\":9074:9167   */\n      tag_108\n      jump\t// in\n    tag_207:\n        /* \"#utility.yul\":9192:9194   */\n      0x20\n        /* \"#utility.yul\":9187:9190   */\n      dup3\n        /* \"#utility.yul\":9183:9195   */\n      add\n        /* \"#utility.yul\":9176:9195   */\n      swap1\n      pop\n        /* \"#utility.yul\":8835:9201   */\n      swap2\n      swap1\n      pop\n      jump\t// out\n        /* \"#utility.yul\":9207:9626   */\n    tag_77:\n        /* \"#utility.yul\":9373:9377   */\n      0x00\n        /* \"#utility.yul\":9411:9413   */\n      0x20\n        /* \"#utility.yul\":9400:9409   */\n      dup3\n        /* \"#utility.yul\":9396:9414   */\n      add\n        /* \"#utility.yul\":9388:9414   */\n      swap1\n      pop\n        /* \"#utility.yul\":9460:9469   */\n      dup2\n        /* \"#utility.yul\":9454:9458   */\n      dup2\n        /* \"#utility.yul\":9450:9470   */\n      sub\n        /* \"#utility.yul\":9446:9447   */\n      0x00\n        /* \"#utility.yul\":9435:9444   */\n      dup4\n        /* \"#utility.yul\":9431:9448   */\n      add\n        /* \"#utility.yul\":9424:9471   */\n      mstore\n        /* \"#utility.yul\":9488:9619   */\n      tag_209\n        /* \"#utility.yul\":9614:9618   */\n      dup2\n        /* \"#utility.yul\":9488:9619   */\n      tag_109\n      jump\t// in\n    tag_209:\n        /* \"#utility.yul\":9480:9619   */\n      swap1\n      pop\n        /* \"#utility.yul\":9207:9626   */\n      swap2\n      swap1\n      pop\n      jump\t// out\n        /* \"#utility.yul\":9632:9800   */\n    tag_110:\n        /* \"#utility.yul\":9715:9726   */\n      0x00\n        /* \"#utility.yul\":9749:9755   */\n      dup3\n        /* \"#utility.yul\":9744:9747   */\n      dup3\n        /* \"#utility.yul\":9737:9756   */\n      mstore\n        /* \"#utility.yul\":9789:9793   */\n      0x20\n        /* \"#utility.yul\":9784:9787   */\n      dup3\n        /* \"#utility.yul\":9780:9794   */\n      add\n        /* \"#utility.yul\":9765:9794   */\n      swap1\n      pop\n        /* \"#utility.yul\":9632:9800   */\n      swap3\n      swap2\n      pop\n      pop\n      jump\t// out\n        /* \"#utility.yul\":9806:9954   */\n    tag_111:\n        /* \"#utility.yul\":9904:9910   */\n      dup3\n        /* \"#utility.yul\":9899:9902   */\n      dup2\n        /* \"#utility.yul\":9894:9897   */\n      dup4\n        /* \"#utility.yul\":9881:9911   */\n      calldatacopy\n        /* \"#utility.yul\":9945:9946   */\n      0x00\n        /* \"#utility.yul\":9936:9942   */\n      dup4\n        /* \"#utility.yul\":9931:9934   */\n      dup4\n        /* \"#utility.yul\":9927:9943   */\n      add\n        /* \"#utility.yul\":9920:9947   */\n      mstore\n        /* \"#utility.yul\":9806:9954   */\n      pop\n      pop\n      pop\n      jump\t// out\n        /* \"#utility.yul\":9960:10062   */\n    tag_112:\n        /* \"#utility.yul\":10001:10007   */\n      0x00\n        /* \"#utility.yul\":10052:10054   */\n      0x1f\n        /* \"#utility.yul\":10048:10055   */\n      not\n        /* \"#utility.yul\":10043:10045   */\n      0x1f\n        /* \"#utility.yul\":10036:10041   */\n      dup4\n        /* \"#utility.yul\":10032:10046   */\n      add\n        /* \"#utility.yul\":10028:10056   */\n      and\n        /* \"#utility.yul\":10018:10056   */\n      swap1\n      pop\n        /* \"#utility.yul\":9960:10062   */\n      swap2\n      swap1\n      pop\n      jump\t// out\n        /* \"#utility.yul\":10090:10404   */\n    tag_113:\n        /* \"#utility.yul\":10186:10189   */\n      0x00\n        /* \"#utility.yul\":10207:10277   */\n      tag_214\n        /* \"#utility.yul\":10270:10276   */\n      dup4\n        /* \"#utility.yul\":10265:10268   */\n      dup6\n        /* \"#utility.yul\":10207:10277   */\n      tag_110\n      jump\t// in\n    tag_214:\n        /* \"#utility.yul\":10200:10277   */\n      swap4\n      pop\n        /* \"#utility.yul\":10287:10343   */\n      tag_215\n        /* \"#utility.yul\":10336:10342   */\n      dup4\n        /* \"#utility.yul\":10331:10334   */\n      dup6\n        /* \"#utility.yul\":10324:10329   */\n      dup5\n        /* \"#utility.yul\":10287:10343   */\n      tag_111\n      jump\t// in\n    tag_215:\n        /* \"#utility.yul\":10368:10397   */\n      tag_216\n        /* \"#utility.yul\":10390:10396   */\n      dup4\n        /* \"#utility.yul\":10368:10397   */\n      tag_112\n      jump\t// in\n    tag_216:\n        /* \"#utility.yul\":10363:10366   */\n      dup5\n        /* \"#utility.yul\":10359:10398   */\n      add\n        /* \"#utility.yul\":10352:10398   */\n      swap1\n      pop\n        /* \"#utility.yul\":10090:10404   */\n      swap4\n      swap3\n      pop\n      pop\n      pop\n      jump\t// out\n        /* \"#utility.yul\":10410:10739   */\n    tag_79:\n        /* \"#utility.yul\":10531:10535   */\n      0x00\n        /* \"#utility.yul\":10569:10571   */\n      0x20\n        /* \"#utility.yul\":10558:10567   */\n      dup3\n        /* \"#utility.yul\":10554:10572   */\n      add\n        /* \"#utility.yul\":10546:10572   */\n      swap1\n      pop\n        /* \"#utility.yul\":10618:10627   */\n      dup2\n        /* \"#utility.yul\":10612:10616   */\n      dup2\n        /* \"#utility.yul\":10608:10628   */\n      sub\n        /* \"#utility.yul\":10604:10605   */\n      0x00\n        /* \"#utility.yul\":10593:10602   */\n      dup4\n        /* \"#utility.yul\":10589:10606   */\n      add\n        /* \"#utility.yul\":10582:10629   */\n      mstore\n        /* \"#utility.yul\":10646:10732   */\n      tag_218\n        /* \"#utility.yul\":10727:10731   */\n      dup2\n        /* \"#utility.yul\":10718:10724   */\n      dup5\n        /* \"#utility.yul\":10710:10716   */\n      dup7\n        /* \"#utility.yul\":10646:10732   */\n      tag_113\n      jump\t// in\n    tag_218:\n        /* \"#utility.yul\":10638:10732   */\n      swap1\n      pop\n        /* \"#utility.yul\":10410:10739   */\n      swap4\n      swap3\n      pop\n      pop\n      pop\n      jump\t// out\n\n    auxdata: 0xa264697066735822122097df7f7170229847700974fc23b7e3bf05cf30b0c7d59cddf923a77eef8e0d3464736f6c634300081a0033\n}\n",
				"bytecode": {
					"linkReferences": {},
					"object": "608060405266038d7ea4c68000600155603c60025534801561001f575f80fd5b50604051610f0b380380610f0b833981810160405281019061004191906102c9565b3360045f6101000a81548173ffffffffffffffffffffffffffffffffffffffff021916908373ffffffffffffffffffffffffffffffffffffffff1602179055505f5b81518110156101075760015f808484815181106100a3576100a2610310565b5b602002602001015173ffffffffffffffffffffffffffffffffffffffff1673ffffffffffffffffffffffffffffffffffffffff1681526020019081526020015f205f6101000a81548160ff0219169083151502179055508080600101915050610083565b505061033d565b5f604051905090565b5f80fd5b5f80fd5b5f80fd5b5f601f19601f8301169050919050565b7f4e487b71000000000000000000000000000000000000000000000000000000005f52604160045260245ffd5b61016982610123565b810181811067ffffffffffffffff8211171561018857610187610133565b5b80604052505050565b5f61019a61010e565b90506101a68282610160565b919050565b5f67ffffffffffffffff8211156101c5576101c4610133565b5b602082029050602081019050919050565b5f80fd5b5f73ffffffffffffffffffffffffffffffffffffffff82169050919050565b5f610203826101da565b9050919050565b610213816101f9565b811461021d575f80fd5b50565b5f8151905061022e8161020a565b92915050565b5f610246610241846101ab565b610191565b90508083825260208201905060208402830185811115610269576102686101d6565b5b835b81811015610292578061027e8882610220565b84526020840193505060208101905061026b565b5050509392505050565b5f82601f8301126102b0576102af61011f565b5b81516102c0848260208601610234565b91505092915050565b5f602082840312156102de576102dd610117565b5b5f82015167ffffffffffffffff8111156102fb576102fa61011b565b5b6103078482850161029c565b91505092915050565b7f4e487b71000000000000000000000000000000000000000000000000000000005f52603260045260245ffd5b610bc18061034a5f395ff3fe608060405260043610610085575f3560e01c8063787a08a611610058578063787a08a61461013d578063a230c52414610167578063d0637023146101a3578063e294d915146101bf578063f851a440146101e957610085565b806303b218fd146100895780634fc3f41a146100c557806369fe0e2d146100ed578063744cd69c14610115575b5f80fd5b348015610094575f80fd5b506100af60048036038101906100aa91906106df565b610213565b6040516100bc9190610722565b60405180910390f35b3480156100d0575f80fd5b506100eb60048036038101906100e69190610765565b610228565b005b3480156100f8575f80fd5b50610113600480360381019061010e9190610765565b6102c1565b005b348015610120575f80fd5b5061013b600480360381019061013691906107c5565b61035a565b005b348015610148575f80fd5b50610151610440565b60405161015e9190610722565b60405180910390f35b348015610172575f80fd5b5061018d600480360381019061018891906106df565b610446565b60405161019a9190610812565b60405180910390f35b6101bd60048036038101906101b8919061088c565b610462565b005b3480156101ca575f80fd5b506101d3610652565b6040516101e09190610722565b60405180910390f35b3480156101f4575f80fd5b506101fd610658565b60405161020a91906108e6565b60405180910390f35b6003602052805f5260405f205f915090505481565b60045f9054906101000a900473ffffffffffffffffffffffffffffffffffffffff1673ffffffffffffffffffffffffffffffffffffffff163373ffffffffffffffffffffffffffffffffffffffff16146102b7576040517f08c379a00000000000000000000000000000000000000000000000000000000081526004016102ae90610959565b60405180910390fd5b8060028190555050565b60045f9054906101000a900473ffffffffffffffffffffffffffffffffffffffff1673ffffffffffffffffffffffffffffffffffffffff163373ffffffffffffffffffffffffffffffffffffffff1614610350576040517f08c379a000000000000000000000000000000000000000000000000000000000815260040161034790610959565b60405180910390fd5b8060018190555050565b60045f9054906101000a900473ffffffffffffffffffffffffffffffffffffffff1673ffffffffffffffffffffffffffffffffffffffff163373ffffffffffffffffffffffffffffffffffffffff16146103e9576040517f08c379a00000000000000000000000000000000000000000000000000000000081526004016103e090610959565b60405180910390fd5b805f808473ffffffffffffffffffffffffffffffffffffffff1673ffffffffffffffffffffffffffffffffffffffff1681526020019081526020015f205f6101000a81548160ff0219169083151502179055505050565b60025481565b5f602052805f5260405f205f915054906101000a900460ff1681565b5f803373ffffffffffffffffffffffffffffffffffffffff1673ffffffffffffffffffffffffffffffffffffffff1681526020019081526020015f205f9054906101000a900460ff166104ea576040517f08c379a00000000000000000000000000000000000000000000000000000000081526004016104e1906109c1565b60405180910390fd5b60015434101561052f576040517f08c379a000000000000000000000000000000000000000000000000000000000815260040161052690610a29565b60405180910390fd5b60025460035f3373ffffffffffffffffffffffffffffffffffffffff1673ffffffffffffffffffffffffffffffffffffffff1681526020019081526020015f205461057a9190610a74565b4210156105bc576040517f08c379a00000000000000000000000000000000000000000000000000000000081526004016105b390610af1565b60405180910390fd5b4260035f3373ffffffffffffffffffffffffffffffffffffffff1673ffffffffffffffffffffffffffffffffffffffff1681526020019081526020015f20819055503373ffffffffffffffffffffffffffffffffffffffff167fdde7dd55e8cc2b0de406a77c362cc0b66ee49e8022f03c215488cd0f866f609b8383604051610646929190610b69565b60405180910390a25050565b60015481565b60045f9054906101000a900473ffffffffffffffffffffffffffffffffffffffff1681565b5f80fd5b5f80fd5b5f73ffffffffffffffffffffffffffffffffffffffff82169050919050565b5f6106ae82610685565b9050919050565b6106be816106a4565b81146106c8575f80fd5b50565b5f813590506106d9816106b5565b92915050565b5f602082840312156106f4576106f361067d565b5b5f610701848285016106cb565b91505092915050565b5f819050919050565b61071c8161070a565b82525050565b5f6020820190506107355f830184610713565b92915050565b6107448161070a565b811461074e575f80fd5b50565b5f8135905061075f8161073b565b92915050565b5f6020828403121561077a5761077961067d565b5b5f61078784828501610751565b91505092915050565b5f8115159050919050565b6107a481610790565b81146107ae575f80fd5b50565b5f813590506107bf8161079b565b92915050565b5f80604083850312156107db576107da61067d565b5b5f6107e8858286016106cb565b92505060206107f9858286016107b1565b9150509250929050565b61080c81610790565b82525050565b5f6020820190506108255f830184610803565b92915050565b5f80fd5b5f80fd5b5f80fd5b5f8083601f84011261084c5761084b61082b565b5b8235905067ffffffffffffffff8111156108695761086861082f565b5b60208301915083600182028301111561088557610884610833565b5b9250929050565b5f80602083850312156108a2576108a161067d565b5b5f83013567ffffffffffffffff8111156108bf576108be610681565b5b6108cb85828601610837565b92509250509250929050565b6108e0816106a4565b82525050565b5f6020820190506108f95f8301846108d7565b92915050565b5f82825260208201905092915050565b7f4e6f742061646d696e00000000000000000000000000000000000000000000005f82015250565b5f6109436009836108ff565b915061094e8261090f565b602082019050919050565b5f6020820190508181035f83015261097081610937565b9050919050565b7f4e6f7420696e204c414e206d656d6265727368697000000000000000000000005f82015250565b5f6109ab6015836108ff565b91506109b682610977565b602082019050919050565b5f6020820190508181035f8301526109d88161099f565b9050919050565b7f466565206e6f74207061696400000000000000000000000000000000000000005f82015250565b5f610a13600c836108ff565b9150610a1e826109df565b602082019050919050565b5f6020820190508181035f830152610a4081610a07565b9050919050565b7f4e487b71000000000000000000000000000000000000000000000000000000005f52601160045260245ffd5b5f610a7e8261070a565b9150610a898361070a565b9250828201905080821115610aa157610aa0610a47565b5b92915050565b7f436f6f6c646f776e2061637469766500000000000000000000000000000000005f82015250565b5f610adb600f836108ff565b9150610ae682610aa7565b602082019050919050565b5f6020820190508181035f830152610b0881610acf565b9050919050565b5f82825260208201905092915050565b828183375f83830152505050565b5f601f19601f8301169050919050565b5f610b488385610b0f565b9350610b55838584610b1f565b610b5e83610b2d565b840190509392505050565b5f6020820190508181035f830152610b82818486610b3d565b9050939250505056fea264697066735822122097df7f7170229847700974fc23b7e3bf05cf30b0c7d59cddf923a77eef8e0d3464736f6c634300081a0033",
					"opcodes": "PUSH1 0x80 PUSH1 0x40 MSTORE PUSH7 0x38D7EA4C68000 PUSH1 0x1 SSTORE PUSH1 0x3C PUSH1 0x2 SSTORE CALLVALUE DUP1 ISZERO PUSH2 0x1F JUMPI PUSH0 DUP1 REVERT JUMPDEST POP PUSH1 0x40 MLOAD PUSH2 0xF0B CODESIZE SUB DUP1 PUSH2 0xF0B DUP4 CODECOPY DUP2 DUP2 ADD PUSH1 0x40 MSTORE DUP2 ADD SWAP1 PUSH2 0x41 SWAP2 SWAP1 PUSH2 0x2C9 JUMP JUMPDEST CALLER PUSH1 0x4 PUSH0 PUSH2 0x100 EXP DUP2 SLOAD DUP2 PUSH20 0xFFFFFFFFFFFFFFFFFFFFFFFFFFFFFFFFFFFFFFFF MUL NOT AND SWAP1 DUP4 PUSH20 0xFFFFFFFFFFFFFFFFFFFFFFFFFFFFFFFFFFFFFFFF AND MUL OR SWAP1 SSTORE POP PUSH0 JUMPDEST DUP2 MLOAD DUP2 LT ISZERO PUSH2 0x107 JUMPI PUSH1 0x1 PUSH0 DUP1 DUP5 DUP5 DUP2 MLOAD DUP2 LT PUSH2 0xA3 JUMPI PUSH2 0xA2 PUSH2 0x310 JUMP JUMPDEST JUMPDEST PUSH1 0x20 MUL PUSH1 0x20 ADD ADD MLOAD PUSH20 0xFFFFFFFFFFFFFFFFFFFFFFFFFFFFFFFFFFFFFFFF AND PUSH20 0xFFFFFFFFFFFFFFFFFFFFFFFFFFFFFFFFFFFFFFFF AND DUP2 MSTORE PUSH1 0x20 ADD SWAP1 DUP2 MSTORE PUSH1 0x20 ADD PUSH0 KECCAK256 PUSH0 PUSH2 0x100 EXP DUP2 SLOAD DUP2 PUSH1 0xFF MUL NOT AND SWAP1 DUP4 ISZERO ISZERO MUL OR SWAP1 SSTORE POP DUP1 DUP1 PUSH1 0x1 ADD SWAP2 POP POP PUSH2 0x83 JUMP JUMPDEST POP POP PUSH2 0x33D JUMP JUMPDEST PUSH0 PUSH1 0x40 MLOAD SWAP1 POP SWAP1 JUMP JUMPDEST PUSH0 DUP1 REVERT JUMPDEST PUSH0 DUP1 REVERT JUMPDEST PUSH0 DUP1 REVERT JUMPDEST PUSH0 PUSH1 0x1F NOT PUSH1 0x1F DUP4 ADD AND SWAP1 POP SWAP2 SWAP1 POP JUMP JUMPDEST PUSH32 0x4E487B7100000000000000000000000000000000000000000000000000000000 PUSH0 MSTORE PUSH1 0x41 PUSH1 0x4 MSTORE PUSH1 0x24 PUSH0 REVERT JUMPDEST PUSH2 0x169 DUP3 PUSH2 0x123 JUMP JUMPDEST DUP2 ADD DUP2 DUP2 LT PUSH8 0xFFFFFFFFFFFFFFFF DUP3 GT OR ISZERO PUSH2 0x188 JUMPI PUSH2 0x187 PUSH2 0x133 JUMP JUMPDEST JUMPDEST DUP1 PUSH1 0x40 MSTORE POP POP POP JUMP JUMPDEST PUSH0 PUSH2 0x19A PUSH2 0x10E JUMP JUMPDEST SWAP1 POP PUSH2 0x1A6 DUP3 DUP3 PUSH2 0x160 JUMP JUMPDEST SWAP2 SWAP1 POP JUMP JUMPDEST PUSH0 PUSH8 0xFFFFFFFFFFFFFFFF DUP3 GT ISZERO PUSH2 0x1C5 JUMPI PUSH2 0x1C4 PUSH2 0x133 JUMP JUMPDEST JUMPDEST PUSH1 0x20 DUP3 MUL SWAP1 POP PUSH1 0x20 DUP2 ADD SWAP1 POP SWAP2 SWAP1 POP JUMP JUMPDEST PUSH0 DUP1 REVERT JUMPDEST PUSH0 PUSH20 0xFFFFFFFFFFFFFFFFFFFFFFFFFFFFFFFFFFFFFFFF DUP3 AND SWAP1 POP SWAP2 SWAP1 POP JUMP JUMPDEST PUSH0 PUSH2 0x203 DUP3 PUSH2 0x1DA JUMP JUMPDEST SWAP1 POP SWAP2 SWAP1 POP JUMP JUMPDEST PUSH2 0x213 DUP2 PUSH2 0x1F9 JUMP JUMPDEST DUP2 EQ PUSH2 0x21D JUMPI PUSH0 DUP1 REVERT JUMPDEST POP JUMP JUMPDEST PUSH0 DUP2 MLOAD SWAP1 POP PUSH2 0x22E DUP2 PUSH2 0x20A JUMP JUMPDEST SWAP3 SWAP2 POP POP JUMP JUMPDEST PUSH0 PUSH2 0x246 PUSH2 0x241 DUP5 PUSH2 0x1AB JUMP JUMPDEST PUSH2 0x191 JUMP JUMPDEST SWAP1 POP DUP1 DUP4 DUP3 MSTORE PUSH1 0x20 DUP3 ADD SWAP1 POP PUSH1 0x20 DUP5 MUL DUP4 ADD DUP6 DUP2 GT ISZERO PUSH2 0x269 JUMPI PUSH2 0x268 PUSH2 0x1D6 JUMP JUMPDEST JUMPDEST DUP4 JUMPDEST DUP2 DUP2 LT ISZERO PUSH2 0x292 JUMPI DUP1 PUSH2 0x27E DUP9 DUP3 PUSH2 0x220 JUMP JUMPDEST DUP5 MSTORE PUSH1 0x20 DUP5 ADD SWAP4 POP POP PUSH1 0x20 DUP2 ADD SWAP1 POP PUSH2 0x26B JUMP JUMPDEST POP POP POP SWAP4 SWAP3 POP POP POP JUMP JUMPDEST PUSH0 DUP3 PUSH1 0x1F DUP4 ADD SLT PUSH2 0x2B0 JUMPI PUSH2 0x2AF PUSH2 0x11F JUMP JUMPDEST JUMPDEST DUP2 MLOAD PUSH2 0x2C0 DUP5 DUP3 PUSH1 0x20 DUP7 ADD PUSH2 0x234 JUMP JUMPDEST SWAP2 POP POP SWAP3 SWAP2 POP POP JUMP JUMPDEST PUSH0 PUSH1 0x20 DUP3 DUP5 SUB SLT ISZERO PUSH2 0x2DE JUMPI PUSH2 0x2DD PUSH2 0x117 JUMP JUMPDEST JUMPDEST PUSH0 DUP3 ADD MLOAD PUSH8 0xFFFFFFFFFFFFFFFF DUP2 GT ISZERO PUSH2 0x2FB JUMPI PUSH2 0x2FA PUSH2 0x11B JUMP JUMPDEST JUMPDEST PUSH2 0x307 DUP5 DUP3 DUP6 ADD PUSH2 0x29C JUMP JUMPDEST SWAP2 POP POP SWAP3 SWAP2 POP POP JUMP JUMPDEST PUSH32 0x4E487B7100000000000000000000000000000000000000000000000000000000 PUSH0 MSTORE PUSH1 0x32 PUSH1 0x4 MSTORE PUSH1 0x24 PUSH0 REVERT JUMPDEST PUSH2 0xBC1 DUP1 PUSH2 0x34A PUSH0 CODECOPY PUSH0 RETURN INVALID PUSH1 0x80 PUSH1 0x40 MSTORE PUSH1 0x4 CALLDATASIZE LT PUSH2 0x85 JUMPI PUSH0 CALLDATALOAD PUSH1 0xE0 SHR DUP1 PUSH4 0x787A08A6 GT PUSH2 0x58 JUMPI DUP1 PUSH4 0x787A08A6 EQ PUSH2 0x13D JUMPI DUP1 PUSH4 0xA230C524 EQ PUSH2 0x167 JUMPI DUP1 PUSH4 0xD0637023 EQ PUSH2 0x1A3 JUMPI DUP1 PUSH4 0xE294D915 EQ PUSH2 0x1BF JUMPI DUP1 PUSH4 0xF851A440 EQ PUSH2 0x1E9 JUMPI PUSH2 0x85 JUMP JUMPDEST DUP1 PUSH4 0x3B218FD EQ PUSH2 0x89 JUMPI DUP1 PUSH4 0x4FC3F41A EQ PUSH2 0xC5 JUMPI DUP1 PUSH4 0x69FE0E2D EQ PUSH2 0xED JUMPI DUP1 PUSH4 0x744CD69C EQ PUSH2 0x115 JUMPI JUMPDEST PUSH0 DUP1 REVERT JUMPDEST CALLVALUE DUP1 ISZERO PUSH2 0x94 JUMPI PUSH0 DUP1 REVERT JUMPDEST POP PUSH2 0xAF PUSH1 0x4 DUP1 CALLDATASIZE SUB DUP2 ADD SWAP1 PUSH2 0xAA SWAP2 SWAP1 PUSH2 0x6DF JUMP JUMPDEST PUSH2 0x213 JUMP JUMPDEST PUSH1 0x40 MLOAD PUSH2 0xBC SWAP2 SWAP1 PUSH2 0x722 JUMP JUMPDEST PUSH1 0x40 MLOAD DUP1 SWAP2 SUB SWAP1 RETURN JUMPDEST CALLVALUE DUP1 ISZERO PUSH2 0xD0 JUMPI PUSH0 DUP1 REVERT JUMPDEST POP PUSH2 0xEB PUSH1 0x4 DUP1 CALLDATASIZE SUB DUP2 ADD SWAP1 PUSH2 0xE6 SWAP2 SWAP1 PUSH2 0x765 JUMP JUMPDEST PUSH2 0x228 JUMP JUMPDEST STOP JUMPDEST CALLVALUE DUP1 ISZERO PUSH2 0xF8 JUMPI PUSH0 DUP1 REVERT JUMPDEST POP PUSH2 0x113 PUSH1 0x4 DUP1 CALLDATASIZE SUB DUP2 ADD SWAP1 PUSH2 0x10E SWAP2 SWAP1 PUSH2 0x765 JUMP JUMPDEST PUSH2 0x2C1 JUMP JUMPDEST STOP JUMPDEST CALLVALUE DUP1 ISZERO PUSH2 0x120 JUMPI PUSH0 DUP1 REVERT JUMPDEST POP PUSH2 0x13B PUSH1 0x4 DUP1 CALLDATASIZE SUB DUP2 ADD SWAP1 PUSH2 0x136 SWAP2 SWAP1 PUSH2 0x7C5 JUMP JUMPDEST PUSH2 0x35A JUMP JUMPDEST STOP JUMPDEST CALLVALUE DUP1 ISZERO PUSH2 0x148 JUMPI PUSH0 DUP1 REVERT JUMPDEST POP PUSH2 0x151 PUSH2 0x440 JUMP JUMPDEST PUSH1 0x40 MLOAD PUSH2 0x15E SWAP2 SWAP1 PUSH2 0x722 JUMP JUMPDEST PUSH1 0x40 MLOAD DUP1 SWAP2 SUB SWAP1 RETURN JUMPDEST CALLVALUE DUP1 ISZERO PUSH2 0x172 JUMPI PUSH0 DUP1 REVERT JUMPDEST POP PUSH2 0x18D PUSH1 0x4 DUP1 CALLDATASIZE SUB DUP2 ADD SWAP1 PUSH2 0x188 SWAP2 SWAP1 PUSH2 0x6DF JUMP JUMPDEST PUSH2 0x446 JUMP JUMPDEST PUSH1 0x40 MLOAD PUSH2 0x19A SWAP2 SWAP1 PUSH2 0x812 JUMP JUMPDEST PUSH1 0x40 MLOAD DUP1 SWAP2 SUB SWAP1 RETURN JUMPDEST PUSH2 0x1BD PUSH1 0x4 DUP1 CALLDATASIZE SUB DUP2 ADD SWAP1 PUSH2 0x1B8 SWAP2 SWAP1 PUSH2 0x88C JUMP JUMPDEST PUSH2 0x462 JUMP JUMPDEST STOP JUMPDEST CALLVALUE DUP1 ISZERO PUSH2 0x1CA JUMPI PUSH0 DUP1 REVERT JUMPDEST POP PUSH2 0x1D3 PUSH2 0x652 JUMP JUMPDEST PUSH1 0x40 MLOAD PUSH2 0x1E0 SWAP2 SWAP1 PUSH2 0x722 JUMP JUMPDEST PUSH1 0x40 MLOAD DUP1 SWAP2 SUB SWAP1 RETURN JUMPDEST CALLVALUE DUP1 ISZERO PUSH2 0x1F4 JUMPI PUSH0 DUP1 REVERT JUMPDEST POP PUSH2 0x1FD PUSH2 0x658 JUMP JUMPDEST PUSH1 0x40 MLOAD PUSH2 0x20A SWAP2 SWAP1 PUSH2 0x8E6 JUMP JUMPDEST PUSH1 0x40 MLOAD DUP1 SWAP2 SUB SWAP1 RETURN JUMPDEST PUSH1 0x3 PUSH1 0x20 MSTORE DUP1 PUSH0 MSTORE PUSH1 0x40 PUSH0 KECCAK256 PUSH0 SWAP2 POP SWAP1 POP SLOAD DUP2 JUMP JUMPDEST PUSH1 0x4 PUSH0 SWAP1 SLOAD SWAP1 PUSH2 0x100 EXP SWAP1 DIV PUSH20 0xFFFFFFFFFFFFFFFFFFFFFFFFFFFFFFFFFFFFFFFF AND PUSH20 0xFFFFFFFFFFFFFFFFFFFFFFFFFFFFFFFFFFFFFFFF AND CALLER PUSH20 0xFFFFFFFFFFFFFFFFFFFFFFFFFFFFFFFFFFFFFFFF AND EQ PUSH2 0x2B7 JUMPI PUSH1 0x40 MLOAD PUSH32 0x8C379A000000000000000000000000000000000000000000000000000000000 DUP2 MSTORE PUSH1 0x4 ADD PUSH2 0x2AE SWAP1 PUSH2 0x959 JUMP JUMPDEST PUSH1 0x40 MLOAD DUP1 SWAP2 SUB SWAP1 REVERT JUMPDEST DUP1 PUSH1 0x2 DUP2 SWAP1 SSTORE POP POP JUMP JUMPDEST PUSH1 0x4 PUSH0 SWAP1 SLOAD SWAP1 PUSH2 0x100 EXP SWAP1 DIV PUSH20 0xFFFFFFFFFFFFFFFFFFFFFFFFFFFFFFFFFFFFFFFF AND PUSH20 0xFFFFFFFFFFFFFFFFFFFFFFFFFFFFFFFFFFFFFFFF AND CALLER PUSH20 0xFFFFFFFFFFFFFFFFFFFFFFFFFFFFFFFFFFFFFFFF AND EQ PUSH2 0x350 JUMPI PUSH1 0x40 MLOAD PUSH32 0x8C379A000000000000000000000000000000000000000000000000000000000 DUP2 MSTORE PUSH1 0x4 ADD PUSH2 0x347 SWAP1 PUSH2 0x959 JUMP JUMPDEST PUSH1 0x40 MLOAD DUP1 SWAP2 SUB SWAP1 REVERT JUMPDEST DUP1 PUSH1 0x1 DUP2 SWAP1 SSTORE POP POP JUMP JUMPDEST PUSH1 0x4 PUSH0 SWAP1 SLOAD SWAP1 PUSH2 0x100 EXP SWAP1 DIV PUSH20 0xFFFFFFFFFFFFFFFFFFFFFFFFFFFFFFFFFFFFFFFF AND PUSH20 0xFFFFFFFFFFFFFFFFFFFFFFFFFFFFFFFFFFFFFFFF AND CALLER PUSH20 0xFFFFFFFFFFFFFFFFFFFFFFFFFFFFFFFFFFFFFFFF AND EQ PUSH2 0x3E9 JUMPI PUSH1 0x40 MLOAD PUSH32 0x8C379A000000000000000000000000000000000000000000000000000000000 DUP2 MSTORE PUSH1 0x4 ADD PUSH2 0x3E0 SWAP1 PUSH2 0x959 JUMP JUMPDEST PUSH1 0x40 MLOAD DUP1 SWAP2 SUB SWAP1 REVERT JUMPDEST DUP1 PUSH0 DUP1 DUP5 PUSH20 0xFFFFFFFFFFFFFFFFFFFFFFFFFFFFFFFFFFFFFFFF AND PUSH20 0xFFFFFFFFFFFFFFFFFFFFFFFFFFFFFFFFFFFFFFFF AND DUP2 MSTORE PUSH1 0x20 ADD SWAP1 DUP2 MSTORE PUSH1 0x20 ADD PUSH0 KECCAK256 PUSH0 PUSH2 0x100 EXP DUP2 SLOAD DUP2 PUSH1 0xFF MUL NOT AND SWAP1 DUP4 ISZERO ISZERO MUL OR SWAP1 SSTORE POP POP POP JUMP JUMPDEST PUSH1 0x2 SLOAD DUP2 JUMP JUMPDEST PUSH0 PUSH1 0x20 MSTORE DUP1 PUSH0 MSTORE PUSH1 0x40 PUSH0 KECCAK256 PUSH0 SWAP2 POP SLOAD SWAP1 PUSH2 0x100 EXP SWAP1 DIV PUSH1 0xFF AND DUP2 JUMP JUMPDEST PUSH0 DUP1 CALLER PUSH20 0xFFFFFFFFFFFFFFFFFFFFFFFFFFFFFFFFFFFFFFFF AND PUSH20 0xFFFFFFFFFFFFFFFFFFFFFFFFFFFFFFFFFFFFFFFF AND DUP2 MSTORE PUSH1 0x20 ADD SWAP1 DUP2 MSTORE PUSH1 0x20 ADD PUSH0 KECCAK256 PUSH0 SWAP1 SLOAD SWAP1 PUSH2 0x100 EXP SWAP1 DIV PUSH1 0xFF AND PUSH2 0x4EA JUMPI PUSH1 0x40 MLOAD PUSH32 0x8C379A000000000000000000000000000000000000000000000000000000000 DUP2 MSTORE PUSH1 0x4 ADD PUSH2 0x4E1 SWAP1 PUSH2 0x9C1 JUMP JUMPDEST PUSH1 0x40 MLOAD DUP1 SWAP2 SUB SWAP1 REVERT JUMPDEST PUSH1 0x1 SLOAD CALLVALUE LT ISZERO PUSH2 0x52F JUMPI PUSH1 0x40 MLOAD PUSH32 0x8C379A000000000000000000000000000000000000000000000000000000000 DUP2 MSTORE PUSH1 0x4 ADD PUSH2 0x526 SWAP1 PUSH2 0xA29 JUMP JUMPDEST PUSH1 0x40 MLOAD DUP1 SWAP2 SUB SWAP1 REVERT JUMPDEST PUSH1 0x2 SLOAD PUSH1 0x3 PUSH0 CALLER PUSH20 0xFFFFFFFFFFFFFFFFFFFFFFFFFFFFFFFFFFFFFFFF AND PUSH20 0xFFFFFFFFFFFFFFFFFFFFFFFFFFFFFFFFFFFFFFFF AND DUP2 MSTORE PUSH1 0x20 ADD SWAP1 DUP2 MSTORE PUSH1 0x20 ADD PUSH0 KECCAK256 SLOAD PUSH2 0x57A SWAP2 SWAP1 PUSH2 0xA74 JUMP JUMPDEST TIMESTAMP LT ISZERO PUSH2 0x5BC JUMPI PUSH1 0x40 MLOAD PUSH32 0x8C379A000000000000000000000000000000000000000000000000000000000 DUP2 MSTORE PUSH1 0x4 ADD PUSH2 0x5B3 SWAP1 PUSH2 0xAF1 JUMP JUMPDEST PUSH1 0x40 MLOAD DUP1 SWAP2 SUB SWAP1 REVERT JUMPDEST TIMESTAMP PUSH1 0x3 PUSH0 CALLER PUSH20 0xFFFFFFFFFFFFFFFFFFFFFFFFFFFFFFFFFFFFFFFF AND PUSH20 0xFFFFFFFFFFFFFFFFFFFFFFFFFFFFFFFFFFFFFFFF AND DUP2 MSTORE PUSH1 0x20 ADD SWAP1 DUP2 MSTORE PUSH1 0x20 ADD PUSH0 KECCAK256 DUP2 SWAP1 SSTORE POP CALLER PUSH20 0xFFFFFFFFFFFFFFFFFFFFFFFFFFFFFFFFFFFFFFFF AND PUSH32 0xDDE7DD55E8CC2B0DE406A77C362CC0B66EE49E8022F03C215488CD0F866F609B DUP4 DUP4 PUSH1 0x40 MLOAD PUSH2 0x646 SWAP3 SWAP2 SWAP1 PUSH2 0xB69 JUMP JUMPDEST PUSH1 0x40 MLOAD DUP1 SWAP2 SUB SWAP1 LOG2 POP POP JUMP JUMPDEST PUSH1 0x1 SLOAD DUP2 JUMP JUMPDEST PUSH1 0x4 PUSH0 SWAP1 SLOAD SWAP1 PUSH2 0x100 EXP SWAP1 DIV PUSH20 0xFFFFFFFFFFFFFFFFFFFFFFFFFFFFFFFFFFFFFFFF AND DUP2 JUMP JUMPDEST PUSH0 DUP1 REVERT JUMPDEST PUSH0 DUP1 REVERT JUMPDEST PUSH0 PUSH20 0xFFFFFFFFFFFFFFFFFFFFFFFFFFFFFFFFFFFFFFFF DUP3 AND SWAP1 POP SWAP2 SWAP1 POP JUMP JUMPDEST PUSH0 PUSH2 0x6AE DUP3 PUSH2 0x685 JUMP JUMPDEST SWAP1 POP SWAP2 SWAP1 POP JUMP JUMPDEST PUSH2 0x6BE DUP2 PUSH2 0x6A4 JUMP JUMPDEST DUP2 EQ PUSH2 0x6C8 JUMPI PUSH0 DUP1 REVERT JUMPDEST POP JUMP JUMPDEST PUSH0 DUP2 CALLDATALOAD SWAP1 POP PUSH2 0x6D9 DUP2 PUSH2 0x6B5 JUMP JUMPDEST SWAP3 SWAP2 POP POP JUMP JUMPDEST PUSH0 PUSH1 0x20 DUP3 DUP5 SUB SLT ISZERO PUSH2 0x6F4 JUMPI PUSH2 0x6F3 PUSH2 0x67D JUMP JUMPDEST JUMPDEST PUSH0 PUSH2 0x701 DUP5 DUP3 DUP6 ADD PUSH2 0x6CB JUMP JUMPDEST SWAP2 POP POP SWAP3 SWAP2 POP POP JUMP JUMPDEST PUSH0 DUP2 SWAP1 POP SWAP2 SWAP1 POP JUMP JUMPDEST PUSH2 0x71C DUP2 PUSH2 0x70A JUMP JUMPDEST DUP3 MSTORE POP POP JUMP JUMPDEST PUSH0 PUSH1 0x20 DUP3 ADD SWAP1 POP PUSH2 0x735 PUSH0 DUP4 ADD DUP5 PUSH2 0x713 JUMP JUMPDEST SWAP3 SWAP2 POP POP JUMP JUMPDEST PUSH2 0x744 DUP2 PUSH2 0x70A JUMP JUMPDEST DUP2 EQ PUSH2 0x74E JUMPI PUSH0 DUP1 REVERT JUMPDEST POP JUMP JUMPDEST PUSH0 DUP2 CALLDATALOAD SWAP1 POP PUSH2 0x75F DUP2 PUSH2 0x73B JUMP JUMPDEST SWAP3 SWAP2 POP POP JUMP JUMPDEST PUSH0 PUSH1 0x20 DUP3 DUP5 SUB SLT ISZERO PUSH2 0x77A JUMPI PUSH2 0x779 PUSH2 0x67D JUMP JUMPDEST JUMPDEST PUSH0 PUSH2 0x787 DUP5 DUP3 DUP6 ADD PUSH2 0x751 JUMP JUMPDEST SWAP2 POP POP SWAP3 SWAP2 POP POP JUMP JUMPDEST PUSH0 DUP2 ISZERO ISZERO SWAP1 POP SWAP2 SWAP1 POP JUMP JUMPDEST PUSH2 0x7A4 DUP2 PUSH2 0x790 JUMP JUMPDEST DUP2 EQ PUSH2 0x7AE JUMPI PUSH0 DUP1 REVERT JUMPDEST POP JUMP JUMPDEST PUSH0 DUP2 CALLDATALOAD SWAP1 POP PUSH2 0x7BF DUP2 PUSH2 0x79B JUMP JUMPDEST SWAP3 SWAP2 POP POP JUMP JUMPDEST PUSH0 DUP1 PUSH1 0x40 DUP4 DUP6 SUB SLT ISZERO PUSH2 0x7DB JUMPI PUSH2 0x7DA PUSH2 0x67D JUMP JUMPDEST JUMPDEST PUSH0 PUSH2 0x7E8 DUP6 DUP3 DUP7 ADD PUSH2 0x6CB JUMP JUMPDEST SWAP3 POP POP PUSH1 0x20 PUSH2 0x7F9 DUP6 DUP3 DUP7 ADD PUSH2 0x7B1 JUMP JUMPDEST SWAP2 POP POP SWAP3 POP SWAP3 SWAP1 POP JUMP JUMPDEST PUSH2 0x80C DUP2 PUSH2 0x790 JUMP JUMPDEST DUP3 MSTORE POP POP JUMP JUMPDEST PUSH0 PUSH1 0x20 DUP3 ADD SWAP1 POP PUSH2 0x825 PUSH0 DUP4 ADD DUP5 PUSH2 0x803 JUMP JUMPDEST SWAP3 SWAP2 POP POP JUMP JUMPDEST PUSH0 DUP1 REVERT JUMPDEST PUSH0 DUP1 REVERT JUMPDEST PUSH0 DUP1 REVERT JUMPDEST PUSH0 DUP1 DUP4 PUSH1 0x1F DUP5 ADD SLT PUSH2 0x84C JUMPI PUSH2 0x84B PUSH2 0x82B JUMP JUMPDEST JUMPDEST DUP3 CALLDATALOAD SWAP1 POP PUSH8 0xFFFFFFFFFFFFFFFF DUP2 GT ISZERO PUSH2 0x869 JUMPI PUSH2 0x868 PUSH2 0x82F JUMP JUMPDEST JUMPDEST PUSH1 0x20 DUP4 ADD SWAP2 POP DUP4 PUSH1 0x1 DUP3 MUL DUP4 ADD GT ISZERO PUSH2 0x885 JUMPI PUSH2 0x884 PUSH2 0x833 JUMP JUMPDEST JUMPDEST SWAP3 POP SWAP3 SWAP1 POP JUMP JUMPDEST PUSH0 DUP1 PUSH1 0x20 DUP4 DUP6 SUB SLT ISZERO PUSH2 0x8A2 JUMPI PUSH2 0x8A1 PUSH2 0x67D JUMP JUMPDEST JUMPDEST PUSH0 DUP4 ADD CALLDATALOAD PUSH8 0xFFFFFFFFFFFFFFFF DUP2 GT ISZERO PUSH2 0x8BF JUMPI PUSH2 0x8BE PUSH2 0x681 JUMP JUMPDEST JUMPDEST PUSH2 0x8CB DUP6 DUP3 DUP7 ADD PUSH2 0x837 JUMP JUMPDEST SWAP3 POP SWAP3 POP POP SWAP3 POP SWAP3 SWAP1 POP JUMP JUMPDEST PUSH2 0x8E0 DUP2 PUSH2 0x6A4 JUMP JUMPDEST DUP3 MSTORE POP POP JUMP JUMPDEST PUSH0 PUSH1 0x20 DUP3 ADD SWAP1 POP PUSH2 0x8F9 PUSH0 DUP4 ADD DUP5 PUSH2 0x8D7 JUMP JUMPDEST SWAP3 SWAP2 POP POP JUMP JUMPDEST PUSH0 DUP3 DUP3 MSTORE PUSH1 0x20 DUP3 ADD SWAP1 POP SWAP3 SWAP2 POP POP JUMP JUMPDEST PUSH32 0x4E6F742061646D696E0000000000000000000000000000000000000000000000 PUSH0 DUP3 ADD MSTORE POP JUMP JUMPDEST PUSH0 PUSH2 0x943 PUSH1 0x9 DUP4 PUSH2 0x8FF JUMP JUMPDEST SWAP2 POP PUSH2 0x94E DUP3 PUSH2 0x90F JUMP JUMPDEST PUSH1 0x20 DUP3 ADD SWAP1 POP SWAP2 SWAP1 POP JUMP JUMPDEST PUSH0 PUSH1 0x20 DUP3 ADD SWAP1 POP DUP2 DUP2 SUB PUSH0 DUP4 ADD MSTORE PUSH2 0x970 DUP2 PUSH2 0x937 JUMP JUMPDEST SWAP1 POP SWAP2 SWAP1 POP JUMP JUMPDEST PUSH32 0x4E6F7420696E204C414E206D656D626572736869700000000000000000000000 PUSH0 DUP3 ADD MSTORE POP JUMP JUMPDEST PUSH0 PUSH2 0x9AB PUSH1 0x15 DUP4 PUSH2 0x8FF JUMP JUMPDEST SWAP2 POP PUSH2 0x9B6 DUP3 PUSH2 0x977 JUMP JUMPDEST PUSH1 0x20 DUP3 ADD SWAP1 POP SWAP2 SWAP1 POP JUMP JUMPDEST PUSH0 PUSH1 0x20 DUP3 ADD SWAP1 POP DUP2 DUP2 SUB PUSH0 DUP4 ADD MSTORE PUSH2 0x9D8 DUP2 PUSH2 0x99F JUMP JUMPDEST SWAP1 POP SWAP2 SWAP1 POP JUMP JUMPDEST PUSH32 0x466565206E6F7420706169640000000000000000000000000000000000000000 PUSH0 DUP3 ADD MSTORE POP JUMP JUMPDEST PUSH0 PUSH2 0xA13 PUSH1 0xC DUP4 PUSH2 0x8FF JUMP JUMPDEST SWAP2 POP PUSH2 0xA1E DUP3 PUSH2 0x9DF JUMP JUMPDEST PUSH1 0x20 DUP3 ADD SWAP1 POP SWAP2 SWAP1 POP JUMP JUMPDEST PUSH0 PUSH1 0x20 DUP3 ADD SWAP1 POP DUP2 DUP2 SUB PUSH0 DUP4 ADD MSTORE PUSH2 0xA40 DUP2 PUSH2 0xA07 JUMP JUMPDEST SWAP1 POP SWAP2 SWAP1 POP JUMP JUMPDEST PUSH32 0x4E487B7100000000000000000000000000000000000000000000000000000000 PUSH0 MSTORE PUSH1 0x11 PUSH1 0x4 MSTORE PUSH1 0x24 PUSH0 REVERT JUMPDEST PUSH0 PUSH2 0xA7E DUP3 PUSH2 0x70A JUMP JUMPDEST SWAP2 POP PUSH2 0xA89 DUP4 PUSH2 0x70A JUMP JUMPDEST SWAP3 POP DUP3 DUP3 ADD SWAP1 POP DUP1 DUP3 GT ISZERO PUSH2 0xAA1 JUMPI PUSH2 0xAA0 PUSH2 0xA47 JUMP JUMPDEST JUMPDEST SWAP3 SWAP2 POP POP JUMP JUMPDEST PUSH32 0x436F6F6C646F776E206163746976650000000000000000000000000000000000 PUSH0 DUP3 ADD MSTORE POP JUMP JUMPDEST PUSH0 PUSH2 0xADB PUSH1 0xF DUP4 PUSH2 0x8FF JUMP JUMPDEST SWAP2 POP PUSH2 0xAE6 DUP3 PUSH2 0xAA7 JUMP JUMPDEST PUSH1 0x20 DUP3 ADD SWAP1 POP SWAP2 SWAP1 POP JUMP JUMPDEST PUSH0 PUSH1 0x20 DUP3 ADD SWAP1 POP DUP2 DUP2 SUB PUSH0 DUP4 ADD MSTORE PUSH2 0xB08 DUP2 PUSH2 0xACF JUMP JUMPDEST SWAP1 POP SWAP2 SWAP1 POP JUMP JUMPDEST PUSH0 DUP3 DUP3 MSTORE PUSH1 0x20 DUP3 ADD SWAP1 POP SWAP3 SWAP2 POP POP JUMP JUMPDEST DUP3 DUP2 DUP4 CALLDATACOPY PUSH0 DUP4 DUP4 ADD MSTORE POP POP POP JUMP JUMPDEST PUSH0 PUSH1 0x1F NOT PUSH1 0x1F DUP4 ADD AND SWAP1 POP SWAP2 SWAP1 POP JUMP JUMPDEST PUSH0 PUSH2 0xB48 DUP4 DUP6 PUSH2 0xB0F JUMP JUMPDEST SWAP4 POP PUSH2 0xB55 DUP4 DUP6 DUP5 PUSH2 0xB1F JUMP JUMPDEST PUSH2 0xB5E DUP4 PUSH2 0xB2D JUMP JUMPDEST DUP5 ADD SWAP1 POP SWAP4 SWAP3 POP POP POP JUMP JUMPDEST PUSH0 PUSH1 0x20 DUP3 ADD SWAP1 POP DUP2 DUP2 SUB PUSH0 DUP4 ADD MSTORE PUSH2 0xB82 DUP2 DUP5 DUP7 PUSH2 0xB3D JUMP JUMPDEST SWAP1 POP SWAP4 SWAP3 POP POP POP JUMP INVALID LOG2 PUSH5 0x6970667358 0x22 SLT KECCAK256 SWAP8 0xDF PUSH32 0x7170229847700974FC23B7E3BF05CF30B0C7D59CDDF923A77EEF8E0D3464736F PUSH13 0x634300081A0033000000000000 "
				},
				"gasEstimates": {
					"creation": {
						"codeDepositCost": "601800",
						"executionCost": "infinite",
						"totalCost": "infinite"
					},
					"external": {
						"admin()": "2596",
						"broadcastFee()": "2491",
						"broadcastMessage(bytes)": "infinite",
						"cooldown()": "2425",
						"isMember(address)": "2854",
						"lastBroadcastTime(address)": "2803",
						"setCooldown(uint256)": "24707",
						"setFee(uint256)": "24729",
						"setMember(address,bool)": "27216"
					}
				},
				"methodIdentifiers": {
					"admin()": "f851a440",
					"broadcastFee()": "e294d915",
					"broadcastMessage(bytes)": "d0637023",
					"cooldown()": "787a08a6",
					"isMember(address)": "a230c524",
					"lastBroadcastTime(address)": "03b218fd",
					"setCooldown(uint256)": "4fc3f41a",
					"setFee(uint256)": "69fe0e2d",
					"setMember(address,bool)": "744cd69c"
				}
			},
			"storageLayout": {
				"storage": [
					{
						"astId": 6,
						"contract": "E/Ethernet/Controlled LAN with Membership  Rate Limit.sol:ManagedLANBroadcast",
						"label": "isMember",
						"offset": 0,
						"slot": "0",
						"type": "t_mapping(t_address,t_bool)"
					},
					{
						"astId": 9,
						"contract": "E/Ethernet/Controlled LAN with Membership  Rate Limit.sol:ManagedLANBroadcast",
						"label": "broadcastFee",
						"offset": 0,
						"slot": "1",
						"type": "t_uint256"
					},
					{
						"astId": 12,
						"contract": "E/Ethernet/Controlled LAN with Membership  Rate Limit.sol:ManagedLANBroadcast",
						"label": "cooldown",
						"offset": 0,
						"slot": "2",
						"type": "t_uint256"
					},
					{
						"astId": 16,
						"contract": "E/Ethernet/Controlled LAN with Membership  Rate Limit.sol:ManagedLANBroadcast",
						"label": "lastBroadcastTime",
						"offset": 0,
						"slot": "3",
						"type": "t_mapping(t_address,t_uint256)"
					},
					{
						"astId": 24,
						"contract": "E/Ethernet/Controlled LAN with Membership  Rate Limit.sol:ManagedLANBroadcast",
						"label": "admin",
						"offset": 0,
						"slot": "4",
						"type": "t_address"
					}
				],
				"types": {
					"t_address": {
						"encoding": "inplace",
						"label": "address",
						"numberOfBytes": "20"
					},
					"t_bool": {
						"encoding": "inplace",
						"label": "bool",
						"numberOfBytes": "1"
					},
					"t_mapping(t_address,t_bool)": {
						"encoding": "mapping",
						"key": "t_address",
						"label": "mapping(address => bool)",
						"numberOfBytes": "32",
						"value": "t_bool"
					},
					"t_mapping(t_address,t_uint256)": {
						"encoding": "mapping",
						"key": "t_address",
						"label": "mapping(address => uint256)",
						"numberOfBytes": "32",
						"value": "t_uint256"
					},
					"t_uint256": {
						"encoding": "inplace",
						"label": "uint256",
						"numberOfBytes": "32"
					}
				}
			},
			"userdoc": {
				"kind": "user",
				"methods": {},
				"notice": "DEFENSE TYPE: A controlled approach: only whitelisted members can broadcast,  and possibly we do a rate-limit or fee to discourage spam.",
				"version": 1
			}
		}
	}
}