{
	"B/British standard 7799/Incident Logging & Emergency Freeze type4.sol": {
		"BS7799IncidentManager": {
			"abi": [
				{
					"inputs": [],
					"stateMutability": "nonpayable",
					"type": "constructor"
				},
				{
					"anonymous": false,
					"inputs": [
						{
							"indexed": false,
							"internalType": "bool",
							"name": "frozen",
							"type": "bool"
						}
					],
					"name": "EmergencyFreeze",
					"type": "event"
				},
				{
					"anonymous": false,
					"inputs": [
						{
							"indexed": true,
							"internalType": "address",
							"name": "reporter",
							"type": "address"
						},
						{
							"indexed": false,
							"internalType": "string",
							"name": "details",
							"type": "string"
						}
					],
					"name": "IncidentReported",
					"type": "event"
				},
				{
					"inputs": [],
					"name": "admin",
					"outputs": [
						{
							"internalType": "address",
							"name": "",
							"type": "address"
						}
					],
					"stateMutability": "view",
					"type": "function"
				},
				{
					"inputs": [],
					"name": "frozen",
					"outputs": [
						{
							"internalType": "bool",
							"name": "",
							"type": "bool"
						}
					],
					"stateMutability": "view",
					"type": "function"
				},
				{
					"inputs": [],
					"name": "performAction",
					"outputs": [],
					"stateMutability": "nonpayable",
					"type": "function"
				},
				{
					"inputs": [
						{
							"internalType": "string",
							"name": "details",
							"type": "string"
						}
					],
					"name": "reportIncident",
					"outputs": [],
					"stateMutability": "nonpayable",
					"type": "function"
				},
				{
					"inputs": [],
					"name": "toggleFreeze",
					"outputs": [],
					"stateMutability": "nonpayable",
					"type": "function"
				}
			],
			"devdoc": {
				"kind": "dev",
				"methods": {},
				"version": 1
			},
			"evm": {
				"assembly": "    /* \"B/British standard 7799/Incident Logging & Emergency Freeze type4.sol\":0:701  contract BS7799IncidentManager {... */\n  mstore(0x40, 0x80)\n    /* \"B/British standard 7799/Incident Logging & Emergency Freeze type4.sol\":199:248  constructor() {... */\n  callvalue\n  dup1\n  iszero\n  tag_1\n  jumpi\n  revert(0x00, 0x00)\ntag_1:\n  pop\n    /* \"B/British standard 7799/Incident Logging & Emergency Freeze type4.sol\":231:241  msg.sender */\n  caller\n    /* \"B/British standard 7799/Incident Logging & Emergency Freeze type4.sol\":223:228  admin */\n  0x00\n  0x01\n    /* \"B/British standard 7799/Incident Logging & Emergency Freeze type4.sol\":223:241  admin = msg.sender */\n  0x0100\n  exp\n  dup2\n  sload\n  dup2\n  0xffffffffffffffffffffffffffffffffffffffff\n  mul\n  not\n  and\n  swap1\n  dup4\n  0xffffffffffffffffffffffffffffffffffffffff\n  and\n  mul\n  or\n  swap1\n  sstore\n  pop\n    /* \"B/British standard 7799/Incident Logging & Emergency Freeze type4.sol\":0:701  contract BS7799IncidentManager {... */\n  dataSize(sub_0)\n  dup1\n  dataOffset(sub_0)\n  0x00\n  codecopy\n  0x00\n  return\nstop\n\nsub_0: assembly {\n        /* \"B/British standard 7799/Incident Logging & Emergency Freeze type4.sol\":0:701  contract BS7799IncidentManager {... */\n      mstore(0x40, 0x80)\n      callvalue\n      dup1\n      iszero\n      tag_1\n      jumpi\n      revert(0x00, 0x00)\n    tag_1:\n      pop\n      jumpi(tag_2, lt(calldatasize, 0x04))\n      shr(0xe0, calldataload(0x00))\n      dup1\n      0x054f7d9c\n      eq\n      tag_3\n      jumpi\n      dup1\n      0x1c4077d9\n      eq\n      tag_4\n      jumpi\n      dup1\n      0x34fc2591\n      eq\n      tag_5\n      jumpi\n      dup1\n      0x6c18f73e\n      eq\n      tag_6\n      jumpi\n      dup1\n      0xf851a440\n      eq\n      tag_7\n      jumpi\n    tag_2:\n      revert(0x00, 0x00)\n        /* \"B/British standard 7799/Incident Logging & Emergency Freeze type4.sol\":37:55  bool public frozen */\n    tag_3:\n      tag_8\n      tag_9\n      jump\t// in\n    tag_8:\n      mload(0x40)\n      tag_10\n      swap2\n      swap1\n      tag_11\n      jump\t// in\n    tag_10:\n      mload(0x40)\n      dup1\n      swap2\n      sub\n      swap1\n      return\n        /* \"B/British standard 7799/Incident Logging & Emergency Freeze type4.sol\":342:457  function reportIncident(string calldata details) public {... */\n    tag_4:\n      tag_12\n      0x04\n      dup1\n      calldatasize\n      sub\n      dup2\n      add\n      swap1\n      tag_13\n      swap2\n      swap1\n      tag_14\n      jump\t// in\n    tag_13:\n      tag_15\n      jump\t// in\n    tag_12:\n      stop\n        /* \"B/British standard 7799/Incident Logging & Emergency Freeze type4.sol\":463:617  function toggleFreeze() public {... */\n    tag_5:\n      tag_16\n      tag_17\n      jump\t// in\n    tag_16:\n      stop\n        /* \"B/British standard 7799/Incident Logging & Emergency Freeze type4.sol\":623:699  function performAction() public notFrozen {... */\n    tag_6:\n      tag_18\n      tag_19\n      jump\t// in\n    tag_18:\n      stop\n        /* \"B/British standard 7799/Incident Logging & Emergency Freeze type4.sol\":61:81  address public admin */\n    tag_7:\n      tag_20\n      tag_21\n      jump\t// in\n    tag_20:\n      mload(0x40)\n      tag_22\n      swap2\n      swap1\n      tag_23\n      jump\t// in\n    tag_22:\n      mload(0x40)\n      dup1\n      swap2\n      sub\n      swap1\n      return\n        /* \"B/British standard 7799/Incident Logging & Emergency Freeze type4.sol\":37:55  bool public frozen */\n    tag_9:\n      0x00\n      0x00\n      swap1\n      sload\n      swap1\n      0x0100\n      exp\n      swap1\n      div\n      0xff\n      and\n      dup2\n      jump\t// out\n        /* \"B/British standard 7799/Incident Logging & Emergency Freeze type4.sol\":342:457  function reportIncident(string calldata details) public {... */\n    tag_15:\n        /* \"B/British standard 7799/Incident Logging & Emergency Freeze type4.sol\":430:440  msg.sender */\n      caller\n        /* \"B/British standard 7799/Incident Logging & Emergency Freeze type4.sol\":413:450  IncidentReported(msg.sender, details) */\n      0xffffffffffffffffffffffffffffffffffffffff\n      and\n      0x1c88dcf8315b69e2bbfa9061510ea72ae6cdd5ff67b94bb023aedcd5509a5782\n        /* \"B/British standard 7799/Incident Logging & Emergency Freeze type4.sol\":442:449  details */\n      dup4\n      dup4\n        /* \"B/British standard 7799/Incident Logging & Emergency Freeze type4.sol\":413:450  IncidentReported(msg.sender, details) */\n      mload(0x40)\n      tag_25\n      swap3\n      swap2\n      swap1\n      tag_26\n      jump\t// in\n    tag_25:\n      mload(0x40)\n      dup1\n      swap2\n      sub\n      swap1\n      log2\n        /* \"B/British standard 7799/Incident Logging & Emergency Freeze type4.sol\":342:457  function reportIncident(string calldata details) public {... */\n      pop\n      pop\n      jump\t// out\n        /* \"B/British standard 7799/Incident Logging & Emergency Freeze type4.sol\":463:617  function toggleFreeze() public {... */\n    tag_17:\n        /* \"B/British standard 7799/Incident Logging & Emergency Freeze type4.sol\":526:531  admin */\n      0x00\n      0x01\n      swap1\n      sload\n      swap1\n      0x0100\n      exp\n      swap1\n      div\n      0xffffffffffffffffffffffffffffffffffffffff\n      and\n        /* \"B/British standard 7799/Incident Logging & Emergency Freeze type4.sol\":512:531  msg.sender == admin */\n      0xffffffffffffffffffffffffffffffffffffffff\n      and\n        /* \"B/British standard 7799/Incident Logging & Emergency Freeze type4.sol\":512:522  msg.sender */\n      caller\n        /* \"B/British standard 7799/Incident Logging & Emergency Freeze type4.sol\":512:531  msg.sender == admin */\n      0xffffffffffffffffffffffffffffffffffffffff\n      and\n      eq\n        /* \"B/British standard 7799/Incident Logging & Emergency Freeze type4.sol\":504:546  require(msg.sender == admin, \"Only admin\") */\n      tag_28\n      jumpi\n      mload(0x40)\n      0x08c379a000000000000000000000000000000000000000000000000000000000\n      dup2\n      mstore\n      0x04\n      add\n      tag_29\n      swap1\n      tag_30\n      jump\t// in\n    tag_29:\n      mload(0x40)\n      dup1\n      swap2\n      sub\n      swap1\n      revert\n    tag_28:\n        /* \"B/British standard 7799/Incident Logging & Emergency Freeze type4.sol\":566:572  frozen */\n      0x00\n      0x00\n      swap1\n      sload\n      swap1\n      0x0100\n      exp\n      swap1\n      div\n      0xff\n      and\n        /* \"B/British standard 7799/Incident Logging & Emergency Freeze type4.sol\":565:572  !frozen */\n      iszero\n        /* \"B/British standard 7799/Incident Logging & Emergency Freeze type4.sol\":556:562  frozen */\n      0x00\n      0x00\n        /* \"B/British standard 7799/Incident Logging & Emergency Freeze type4.sol\":556:572  frozen = !frozen */\n      0x0100\n      exp\n      dup2\n      sload\n      dup2\n      0xff\n      mul\n      not\n      and\n      swap1\n      dup4\n      iszero\n      iszero\n      mul\n      or\n      swap1\n      sstore\n      pop\n        /* \"B/British standard 7799/Incident Logging & Emergency Freeze type4.sol\":587:610  EmergencyFreeze(frozen) */\n      0x27f5c154103cc6664ee3956704cb9580c247b4109e9d12827860d69ad96d3f5a\n        /* \"B/British standard 7799/Incident Logging & Emergency Freeze type4.sol\":603:609  frozen */\n      0x00\n      0x00\n      swap1\n      sload\n      swap1\n      0x0100\n      exp\n      swap1\n      div\n      0xff\n      and\n        /* \"B/British standard 7799/Incident Logging & Emergency Freeze type4.sol\":587:610  EmergencyFreeze(frozen) */\n      mload(0x40)\n      tag_31\n      swap2\n      swap1\n      tag_11\n      jump\t// in\n    tag_31:\n      mload(0x40)\n      dup1\n      swap2\n      sub\n      swap1\n      log1\n        /* \"B/British standard 7799/Incident Logging & Emergency Freeze type4.sol\":463:617  function toggleFreeze() public {... */\n      jump\t// out\n        /* \"B/British standard 7799/Incident Logging & Emergency Freeze type4.sol\":623:699  function performAction() public notFrozen {... */\n    tag_19:\n        /* \"B/British standard 7799/Incident Logging & Emergency Freeze type4.sol\":294:300  frozen */\n      0x00\n      0x00\n      swap1\n      sload\n      swap1\n      0x0100\n      exp\n      swap1\n      div\n      0xff\n      and\n        /* \"B/British standard 7799/Incident Logging & Emergency Freeze type4.sol\":293:300  !frozen */\n      iszero\n        /* \"B/British standard 7799/Incident Logging & Emergency Freeze type4.sol\":285:318  require(!frozen, \"System frozen\") */\n      tag_33\n      jumpi\n      mload(0x40)\n      0x08c379a000000000000000000000000000000000000000000000000000000000\n      dup2\n      mstore\n      0x04\n      add\n      tag_34\n      swap1\n      tag_35\n      jump\t// in\n    tag_34:\n      mload(0x40)\n      dup1\n      swap2\n      sub\n      swap1\n      revert\n    tag_33:\n        /* \"B/British standard 7799/Incident Logging & Emergency Freeze type4.sol\":623:699  function performAction() public notFrozen {... */\n      jump\t// out\n        /* \"B/British standard 7799/Incident Logging & Emergency Freeze type4.sol\":61:81  address public admin */\n    tag_21:\n      0x00\n      0x01\n      swap1\n      sload\n      swap1\n      0x0100\n      exp\n      swap1\n      div\n      0xffffffffffffffffffffffffffffffffffffffff\n      and\n      dup2\n      jump\t// out\n        /* \"#utility.yul\":7:97   */\n    tag_37:\n        /* \"#utility.yul\":41:48   */\n      0x00\n        /* \"#utility.yul\":84:89   */\n      dup2\n        /* \"#utility.yul\":77:90   */\n      iszero\n        /* \"#utility.yul\":70:91   */\n      iszero\n        /* \"#utility.yul\":59:91   */\n      swap1\n      pop\n        /* \"#utility.yul\":7:97   */\n      swap2\n      swap1\n      pop\n      jump\t// out\n        /* \"#utility.yul\":103:212   */\n    tag_38:\n        /* \"#utility.yul\":184:205   */\n      tag_60\n        /* \"#utility.yul\":199:204   */\n      dup2\n        /* \"#utility.yul\":184:205   */\n      tag_37\n      jump\t// in\n    tag_60:\n        /* \"#utility.yul\":179:182   */\n      dup3\n        /* \"#utility.yul\":172:206   */\n      mstore\n        /* \"#utility.yul\":103:212   */\n      pop\n      pop\n      jump\t// out\n        /* \"#utility.yul\":218:428   */\n    tag_11:\n        /* \"#utility.yul\":305:309   */\n      0x00\n        /* \"#utility.yul\":343:345   */\n      0x20\n        /* \"#utility.yul\":332:341   */\n      dup3\n        /* \"#utility.yul\":328:346   */\n      add\n        /* \"#utility.yul\":320:346   */\n      swap1\n      pop\n        /* \"#utility.yul\":356:421   */\n      tag_62\n        /* \"#utility.yul\":418:419   */\n      0x00\n        /* \"#utility.yul\":407:416   */\n      dup4\n        /* \"#utility.yul\":403:420   */\n      add\n        /* \"#utility.yul\":394:400   */\n      dup5\n        /* \"#utility.yul\":356:421   */\n      tag_38\n      jump\t// in\n    tag_62:\n        /* \"#utility.yul\":218:428   */\n      swap3\n      swap2\n      pop\n      pop\n      jump\t// out\n        /* \"#utility.yul\":515:632   */\n    tag_40:\n        /* \"#utility.yul\":624:625   */\n      0x00\n        /* \"#utility.yul\":621:622   */\n      0x00\n        /* \"#utility.yul\":614:626   */\n      revert\n        /* \"#utility.yul\":638:755   */\n    tag_41:\n        /* \"#utility.yul\":747:748   */\n      0x00\n        /* \"#utility.yul\":744:745   */\n      0x00\n        /* \"#utility.yul\":737:749   */\n      revert\n        /* \"#utility.yul\":761:878   */\n    tag_42:\n        /* \"#utility.yul\":870:871   */\n      0x00\n        /* \"#utility.yul\":867:868   */\n      0x00\n        /* \"#utility.yul\":860:872   */\n      revert\n        /* \"#utility.yul\":884:1001   */\n    tag_43:\n        /* \"#utility.yul\":993:994   */\n      0x00\n        /* \"#utility.yul\":990:991   */\n      0x00\n        /* \"#utility.yul\":983:995   */\n      revert\n        /* \"#utility.yul\":1007:1124   */\n    tag_44:\n        /* \"#utility.yul\":1116:1117   */\n      0x00\n        /* \"#utility.yul\":1113:1114   */\n      0x00\n        /* \"#utility.yul\":1106:1118   */\n      revert\n        /* \"#utility.yul\":1144:1697   */\n    tag_45:\n        /* \"#utility.yul\":1202:1210   */\n      0x00\n        /* \"#utility.yul\":1212:1218   */\n      0x00\n        /* \"#utility.yul\":1262:1265   */\n      dup4\n        /* \"#utility.yul\":1255:1259   */\n      0x1f\n        /* \"#utility.yul\":1247:1253   */\n      dup5\n        /* \"#utility.yul\":1243:1260   */\n      add\n        /* \"#utility.yul\":1239:1266   */\n      slt\n        /* \"#utility.yul\":1229:1351   */\n      tag_70\n      jumpi\n        /* \"#utility.yul\":1270:1349   */\n      tag_71\n      tag_42\n      jump\t// in\n    tag_71:\n        /* \"#utility.yul\":1229:1351   */\n    tag_70:\n        /* \"#utility.yul\":1383:1389   */\n      dup3\n        /* \"#utility.yul\":1370:1390   */\n      calldataload\n        /* \"#utility.yul\":1360:1390   */\n      swap1\n      pop\n        /* \"#utility.yul\":1413:1431   */\n      0xffffffffffffffff\n        /* \"#utility.yul\":1405:1411   */\n      dup2\n        /* \"#utility.yul\":1402:1432   */\n      gt\n        /* \"#utility.yul\":1399:1516   */\n      iszero\n      tag_72\n      jumpi\n        /* \"#utility.yul\":1435:1514   */\n      tag_73\n      tag_43\n      jump\t// in\n    tag_73:\n        /* \"#utility.yul\":1399:1516   */\n    tag_72:\n        /* \"#utility.yul\":1549:1553   */\n      0x20\n        /* \"#utility.yul\":1541:1547   */\n      dup4\n        /* \"#utility.yul\":1537:1554   */\n      add\n        /* \"#utility.yul\":1525:1554   */\n      swap2\n      pop\n        /* \"#utility.yul\":1603:1606   */\n      dup4\n        /* \"#utility.yul\":1595:1599   */\n      0x01\n        /* \"#utility.yul\":1587:1593   */\n      dup3\n        /* \"#utility.yul\":1583:1600   */\n      mul\n        /* \"#utility.yul\":1573:1581   */\n      dup4\n        /* \"#utility.yul\":1569:1601   */\n      add\n        /* \"#utility.yul\":1566:1607   */\n      gt\n        /* \"#utility.yul\":1563:1691   */\n      iszero\n      tag_74\n      jumpi\n        /* \"#utility.yul\":1610:1689   */\n      tag_75\n      tag_44\n      jump\t// in\n    tag_75:\n        /* \"#utility.yul\":1563:1691   */\n    tag_74:\n        /* \"#utility.yul\":1144:1697   */\n      swap3\n      pop\n      swap3\n      swap1\n      pop\n      jump\t// out\n        /* \"#utility.yul\":1703:2232   */\n    tag_14:\n        /* \"#utility.yul\":1774:1780   */\n      0x00\n        /* \"#utility.yul\":1782:1788   */\n      0x00\n        /* \"#utility.yul\":1831:1833   */\n      0x20\n        /* \"#utility.yul\":1819:1828   */\n      dup4\n        /* \"#utility.yul\":1810:1817   */\n      dup6\n        /* \"#utility.yul\":1806:1829   */\n      sub\n        /* \"#utility.yul\":1802:1834   */\n      slt\n        /* \"#utility.yul\":1799:1918   */\n      iszero\n      tag_77\n      jumpi\n        /* \"#utility.yul\":1837:1916   */\n      tag_78\n      tag_40\n      jump\t// in\n    tag_78:\n        /* \"#utility.yul\":1799:1918   */\n    tag_77:\n        /* \"#utility.yul\":1985:1986   */\n      0x00\n        /* \"#utility.yul\":1974:1983   */\n      dup4\n        /* \"#utility.yul\":1970:1987   */\n      add\n        /* \"#utility.yul\":1957:1988   */\n      calldataload\n        /* \"#utility.yul\":2015:2033   */\n      0xffffffffffffffff\n        /* \"#utility.yul\":2007:2013   */\n      dup2\n        /* \"#utility.yul\":2004:2034   */\n      gt\n        /* \"#utility.yul\":2001:2118   */\n      iszero\n      tag_79\n      jumpi\n        /* \"#utility.yul\":2037:2116   */\n      tag_80\n      tag_41\n      jump\t// in\n    tag_80:\n        /* \"#utility.yul\":2001:2118   */\n    tag_79:\n        /* \"#utility.yul\":2150:2215   */\n      tag_81\n        /* \"#utility.yul\":2207:2214   */\n      dup6\n        /* \"#utility.yul\":2198:2204   */\n      dup3\n        /* \"#utility.yul\":2187:2196   */\n      dup7\n        /* \"#utility.yul\":2183:2205   */\n      add\n        /* \"#utility.yul\":2150:2215   */\n      tag_45\n      jump\t// in\n    tag_81:\n        /* \"#utility.yul\":2132:2215   */\n      swap3\n      pop\n      swap3\n      pop\n        /* \"#utility.yul\":1928:2225   */\n      pop\n        /* \"#utility.yul\":1703:2232   */\n      swap3\n      pop\n      swap3\n      swap1\n      pop\n      jump\t// out\n        /* \"#utility.yul\":2238:2364   */\n    tag_46:\n        /* \"#utility.yul\":2275:2282   */\n      0x00\n        /* \"#utility.yul\":2315:2357   */\n      0xffffffffffffffffffffffffffffffffffffffff\n        /* \"#utility.yul\":2308:2313   */\n      dup3\n        /* \"#utility.yul\":2304:2358   */\n      and\n        /* \"#utility.yul\":2293:2358   */\n      swap1\n      pop\n        /* \"#utility.yul\":2238:2364   */\n      swap2\n      swap1\n      pop\n      jump\t// out\n        /* \"#utility.yul\":2370:2466   */\n    tag_47:\n        /* \"#utility.yul\":2407:2414   */\n      0x00\n        /* \"#utility.yul\":2436:2460   */\n      tag_84\n        /* \"#utility.yul\":2454:2459   */\n      dup3\n        /* \"#utility.yul\":2436:2460   */\n      tag_46\n      jump\t// in\n    tag_84:\n        /* \"#utility.yul\":2425:2460   */\n      swap1\n      pop\n        /* \"#utility.yul\":2370:2466   */\n      swap2\n      swap1\n      pop\n      jump\t// out\n        /* \"#utility.yul\":2472:2590   */\n    tag_48:\n        /* \"#utility.yul\":2559:2583   */\n      tag_86\n        /* \"#utility.yul\":2577:2582   */\n      dup2\n        /* \"#utility.yul\":2559:2583   */\n      tag_47\n      jump\t// in\n    tag_86:\n        /* \"#utility.yul\":2554:2557   */\n      dup3\n        /* \"#utility.yul\":2547:2584   */\n      mstore\n        /* \"#utility.yul\":2472:2590   */\n      pop\n      pop\n      jump\t// out\n        /* \"#utility.yul\":2596:2818   */\n    tag_23:\n        /* \"#utility.yul\":2689:2693   */\n      0x00\n        /* \"#utility.yul\":2727:2729   */\n      0x20\n        /* \"#utility.yul\":2716:2725   */\n      dup3\n        /* \"#utility.yul\":2712:2730   */\n      add\n        /* \"#utility.yul\":2704:2730   */\n      swap1\n      pop\n        /* \"#utility.yul\":2740:2811   */\n      tag_88\n        /* \"#utility.yul\":2808:2809   */\n      0x00\n        /* \"#utility.yul\":2797:2806   */\n      dup4\n        /* \"#utility.yul\":2793:2810   */\n      add\n        /* \"#utility.yul\":2784:2790   */\n      dup5\n        /* \"#utility.yul\":2740:2811   */\n      tag_48\n      jump\t// in\n    tag_88:\n        /* \"#utility.yul\":2596:2818   */\n      swap3\n      swap2\n      pop\n      pop\n      jump\t// out\n        /* \"#utility.yul\":2824:2993   */\n    tag_49:\n        /* \"#utility.yul\":2908:2919   */\n      0x00\n        /* \"#utility.yul\":2942:2948   */\n      dup3\n        /* \"#utility.yul\":2937:2940   */\n      dup3\n        /* \"#utility.yul\":2930:2949   */\n      mstore\n        /* \"#utility.yul\":2982:2986   */\n      0x20\n        /* \"#utility.yul\":2977:2980   */\n      dup3\n        /* \"#utility.yul\":2973:2987   */\n      add\n        /* \"#utility.yul\":2958:2987   */\n      swap1\n      pop\n        /* \"#utility.yul\":2824:2993   */\n      swap3\n      swap2\n      pop\n      pop\n      jump\t// out\n        /* \"#utility.yul\":2999:3147   */\n    tag_50:\n        /* \"#utility.yul\":3097:3103   */\n      dup3\n        /* \"#utility.yul\":3092:3095   */\n      dup2\n        /* \"#utility.yul\":3087:3090   */\n      dup4\n        /* \"#utility.yul\":3074:3104   */\n      calldatacopy\n        /* \"#utility.yul\":3138:3139   */\n      0x00\n        /* \"#utility.yul\":3129:3135   */\n      dup4\n        /* \"#utility.yul\":3124:3127   */\n      dup4\n        /* \"#utility.yul\":3120:3136   */\n      add\n        /* \"#utility.yul\":3113:3140   */\n      mstore\n        /* \"#utility.yul\":2999:3147   */\n      pop\n      pop\n      pop\n      jump\t// out\n        /* \"#utility.yul\":3153:3255   */\n    tag_51:\n        /* \"#utility.yul\":3194:3200   */\n      0x00\n        /* \"#utility.yul\":3245:3247   */\n      0x1f\n        /* \"#utility.yul\":3241:3248   */\n      not\n        /* \"#utility.yul\":3236:3238   */\n      0x1f\n        /* \"#utility.yul\":3229:3234   */\n      dup4\n        /* \"#utility.yul\":3225:3239   */\n      add\n        /* \"#utility.yul\":3221:3249   */\n      and\n        /* \"#utility.yul\":3211:3249   */\n      swap1\n      pop\n        /* \"#utility.yul\":3153:3255   */\n      swap2\n      swap1\n      pop\n      jump\t// out\n        /* \"#utility.yul\":3285:3602   */\n    tag_52:\n        /* \"#utility.yul\":3383:3386   */\n      0x00\n        /* \"#utility.yul\":3404:3475   */\n      tag_93\n        /* \"#utility.yul\":3468:3474   */\n      dup4\n        /* \"#utility.yul\":3463:3466   */\n      dup6\n        /* \"#utility.yul\":3404:3475   */\n      tag_49\n      jump\t// in\n    tag_93:\n        /* \"#utility.yul\":3397:3475   */\n      swap4\n      pop\n        /* \"#utility.yul\":3485:3541   */\n      tag_94\n        /* \"#utility.yul\":3534:3540   */\n      dup4\n        /* \"#utility.yul\":3529:3532   */\n      dup6\n        /* \"#utility.yul\":3522:3527   */\n      dup5\n        /* \"#utility.yul\":3485:3541   */\n      tag_50\n      jump\t// in\n    tag_94:\n        /* \"#utility.yul\":3566:3595   */\n      tag_95\n        /* \"#utility.yul\":3588:3594   */\n      dup4\n        /* \"#utility.yul\":3566:3595   */\n      tag_51\n      jump\t// in\n    tag_95:\n        /* \"#utility.yul\":3561:3564   */\n      dup5\n        /* \"#utility.yul\":3557:3596   */\n      add\n        /* \"#utility.yul\":3550:3596   */\n      swap1\n      pop\n        /* \"#utility.yul\":3285:3602   */\n      swap4\n      swap3\n      pop\n      pop\n      pop\n      jump\t// out\n        /* \"#utility.yul\":3608:3941   */\n    tag_26:\n        /* \"#utility.yul\":3731:3735   */\n      0x00\n        /* \"#utility.yul\":3769:3771   */\n      0x20\n        /* \"#utility.yul\":3758:3767   */\n      dup3\n        /* \"#utility.yul\":3754:3772   */\n      add\n        /* \"#utility.yul\":3746:3772   */\n      swap1\n      pop\n        /* \"#utility.yul\":3818:3827   */\n      dup2\n        /* \"#utility.yul\":3812:3816   */\n      dup2\n        /* \"#utility.yul\":3808:3828   */\n      sub\n        /* \"#utility.yul\":3804:3805   */\n      0x00\n        /* \"#utility.yul\":3793:3802   */\n      dup4\n        /* \"#utility.yul\":3789:3806   */\n      add\n        /* \"#utility.yul\":3782:3829   */\n      mstore\n        /* \"#utility.yul\":3846:3934   */\n      tag_97\n        /* \"#utility.yul\":3929:3933   */\n      dup2\n        /* \"#utility.yul\":3920:3926   */\n      dup5\n        /* \"#utility.yul\":3912:3918   */\n      dup7\n        /* \"#utility.yul\":3846:3934   */\n      tag_52\n      jump\t// in\n    tag_97:\n        /* \"#utility.yul\":3838:3934   */\n      swap1\n      pop\n        /* \"#utility.yul\":3608:3941   */\n      swap4\n      swap3\n      pop\n      pop\n      pop\n      jump\t// out\n        /* \"#utility.yul\":3947:4107   */\n    tag_53:\n        /* \"#utility.yul\":4087:4099   */\n      0x4f6e6c792061646d696e00000000000000000000000000000000000000000000\n        /* \"#utility.yul\":4083:4084   */\n      0x00\n        /* \"#utility.yul\":4075:4081   */\n      dup3\n        /* \"#utility.yul\":4071:4085   */\n      add\n        /* \"#utility.yul\":4064:4100   */\n      mstore\n        /* \"#utility.yul\":3947:4107   */\n      pop\n      jump\t// out\n        /* \"#utility.yul\":4113:4479   */\n    tag_54:\n        /* \"#utility.yul\":4255:4258   */\n      0x00\n        /* \"#utility.yul\":4276:4343   */\n      tag_100\n        /* \"#utility.yul\":4340:4342   */\n      0x0a\n        /* \"#utility.yul\":4335:4338   */\n      dup4\n        /* \"#utility.yul\":4276:4343   */\n      tag_49\n      jump\t// in\n    tag_100:\n        /* \"#utility.yul\":4269:4343   */\n      swap2\n      pop\n        /* \"#utility.yul\":4352:4445   */\n      tag_101\n        /* \"#utility.yul\":4441:4444   */\n      dup3\n        /* \"#utility.yul\":4352:4445   */\n      tag_53\n      jump\t// in\n    tag_101:\n        /* \"#utility.yul\":4470:4472   */\n      0x20\n        /* \"#utility.yul\":4465:4468   */\n      dup3\n        /* \"#utility.yul\":4461:4473   */\n      add\n        /* \"#utility.yul\":4454:4473   */\n      swap1\n      pop\n        /* \"#utility.yul\":4113:4479   */\n      swap2\n      swap1\n      pop\n      jump\t// out\n        /* \"#utility.yul\":4485:4904   */\n    tag_30:\n        /* \"#utility.yul\":4651:4655   */\n      0x00\n        /* \"#utility.yul\":4689:4691   */\n      0x20\n        /* \"#utility.yul\":4678:4687   */\n      dup3\n        /* \"#utility.yul\":4674:4692   */\n      add\n        /* \"#utility.yul\":4666:4692   */\n      swap1\n      pop\n        /* \"#utility.yul\":4738:4747   */\n      dup2\n        /* \"#utility.yul\":4732:4736   */\n      dup2\n        /* \"#utility.yul\":4728:4748   */\n      sub\n        /* \"#utility.yul\":4724:4725   */\n      0x00\n        /* \"#utility.yul\":4713:4722   */\n      dup4\n        /* \"#utility.yul\":4709:4726   */\n      add\n        /* \"#utility.yul\":4702:4749   */\n      mstore\n        /* \"#utility.yul\":4766:4897   */\n      tag_103\n        /* \"#utility.yul\":4892:4896   */\n      dup2\n        /* \"#utility.yul\":4766:4897   */\n      tag_54\n      jump\t// in\n    tag_103:\n        /* \"#utility.yul\":4758:4897   */\n      swap1\n      pop\n        /* \"#utility.yul\":4485:4904   */\n      swap2\n      swap1\n      pop\n      jump\t// out\n        /* \"#utility.yul\":4910:5073   */\n    tag_55:\n        /* \"#utility.yul\":5050:5065   */\n      0x53797374656d2066726f7a656e00000000000000000000000000000000000000\n        /* \"#utility.yul\":5046:5047   */\n      0x00\n        /* \"#utility.yul\":5038:5044   */\n      dup3\n        /* \"#utility.yul\":5034:5048   */\n      add\n        /* \"#utility.yul\":5027:5066   */\n      mstore\n        /* \"#utility.yul\":4910:5073   */\n      pop\n      jump\t// out\n        /* \"#utility.yul\":5079:5445   */\n    tag_56:\n        /* \"#utility.yul\":5221:5224   */\n      0x00\n        /* \"#utility.yul\":5242:5309   */\n      tag_106\n        /* \"#utility.yul\":5306:5308   */\n      0x0d\n        /* \"#utility.yul\":5301:5304   */\n      dup4\n        /* \"#utility.yul\":5242:5309   */\n      tag_49\n      jump\t// in\n    tag_106:\n        /* \"#utility.yul\":5235:5309   */\n      swap2\n      pop\n        /* \"#utility.yul\":5318:5411   */\n      tag_107\n        /* \"#utility.yul\":5407:5410   */\n      dup3\n        /* \"#utility.yul\":5318:5411   */\n      tag_55\n      jump\t// in\n    tag_107:\n        /* \"#utility.yul\":5436:5438   */\n      0x20\n        /* \"#utility.yul\":5431:5434   */\n      dup3\n        /* \"#utility.yul\":5427:5439   */\n      add\n        /* \"#utility.yul\":5420:5439   */\n      swap1\n      pop\n        /* \"#utility.yul\":5079:5445   */\n      swap2\n      swap1\n      pop\n      jump\t// out\n        /* \"#utility.yul\":5451:5870   */\n    tag_35:\n        /* \"#utility.yul\":5617:5621   */\n      0x00\n        /* \"#utility.yul\":5655:5657   */\n      0x20\n        /* \"#utility.yul\":5644:5653   */\n      dup3\n        /* \"#utility.yul\":5640:5658   */\n      add\n        /* \"#utility.yul\":5632:5658   */\n      swap1\n      pop\n        /* \"#utility.yul\":5704:5713   */\n      dup2\n        /* \"#utility.yul\":5698:5702   */\n      dup2\n        /* \"#utility.yul\":5694:5714   */\n      sub\n        /* \"#utility.yul\":5690:5691   */\n      0x00\n        /* \"#utility.yul\":5679:5688   */\n      dup4\n        /* \"#utility.yul\":5675:5692   */\n      add\n        /* \"#utility.yul\":5668:5715   */\n      mstore\n        /* \"#utility.yul\":5732:5863   */\n      tag_109\n        /* \"#utility.yul\":5858:5862   */\n      dup2\n        /* \"#utility.yul\":5732:5863   */\n      tag_56\n      jump\t// in\n    tag_109:\n        /* \"#utility.yul\":5724:5863   */\n      swap1\n      pop\n        /* \"#utility.yul\":5451:5870   */\n      swap2\n      swap1\n      pop\n      jump\t// out\n\n    auxdata: 0xa26469706673582212208eef4a0e98a354f0ca15a818a225651c699f0d5d6f91624a5ade62915aeff1d664736f6c634300081d0033\n}\n",
				"bytecode": {
					"linkReferences": {},
					"object": "6080604052348015600e575f5ffd5b50335f60016101000a81548173ffffffffffffffffffffffffffffffffffffffff021916908373ffffffffffffffffffffffffffffffffffffffff16021790555061055b8061005c5f395ff3fe608060405234801561000f575f5ffd5b5060043610610055575f3560e01c8063054f7d9c146100595780631c4077d91461007757806334fc2591146100935780636c18f73e1461009d578063f851a440146100a7575b5f5ffd5b6100616100c5565b60405161006e91906102b4565b60405180910390f35b610091600480360381019061008c9190610336565b6100d6565b005b61009b61012a565b005b6100a5610225565b005b6100af610275565b6040516100bc91906103c0565b60405180910390f35b5f5f9054906101000a900460ff1681565b3373ffffffffffffffffffffffffffffffffffffffff167f1c88dcf8315b69e2bbfa9061510ea72ae6cdd5ff67b94bb023aedcd5509a5782838360405161011e929190610433565b60405180910390a25050565b5f60019054906101000a900473ffffffffffffffffffffffffffffffffffffffff1673ffffffffffffffffffffffffffffffffffffffff163373ffffffffffffffffffffffffffffffffffffffff16146101b9576040517f08c379a00000000000000000000000000000000000000000000000000000000081526004016101b09061049f565b60405180910390fd5b5f5f9054906101000a900460ff16155f5f6101000a81548160ff0219169083151502179055507f27f5c154103cc6664ee3956704cb9580c247b4109e9d12827860d69ad96d3f5a5f5f9054906101000a900460ff1660405161021b91906102b4565b60405180910390a1565b5f5f9054906101000a900460ff1615610273576040517f08c379a000000000000000000000000000000000000000000000000000000000815260040161026a90610507565b60405180910390fd5b565b5f60019054906101000a900473ffffffffffffffffffffffffffffffffffffffff1681565b5f8115159050919050565b6102ae8161029a565b82525050565b5f6020820190506102c75f8301846102a5565b92915050565b5f5ffd5b5f5ffd5b5f5ffd5b5f5ffd5b5f5ffd5b5f5f83601f8401126102f6576102f56102d5565b5b8235905067ffffffffffffffff811115610313576103126102d9565b5b60208301915083600182028301111561032f5761032e6102dd565b5b9250929050565b5f5f6020838503121561034c5761034b6102cd565b5b5f83013567ffffffffffffffff811115610369576103686102d1565b5b610375858286016102e1565b92509250509250929050565b5f73ffffffffffffffffffffffffffffffffffffffff82169050919050565b5f6103aa82610381565b9050919050565b6103ba816103a0565b82525050565b5f6020820190506103d35f8301846103b1565b92915050565b5f82825260208201905092915050565b828183375f83830152505050565b5f601f19601f8301169050919050565b5f61041283856103d9565b935061041f8385846103e9565b610428836103f7565b840190509392505050565b5f6020820190508181035f83015261044c818486610407565b90509392505050565b7f4f6e6c792061646d696e000000000000000000000000000000000000000000005f82015250565b5f610489600a836103d9565b915061049482610455565b602082019050919050565b5f6020820190508181035f8301526104b68161047d565b9050919050565b7f53797374656d2066726f7a656e000000000000000000000000000000000000005f82015250565b5f6104f1600d836103d9565b91506104fc826104bd565b602082019050919050565b5f6020820190508181035f83015261051e816104e5565b905091905056fea26469706673582212208eef4a0e98a354f0ca15a818a225651c699f0d5d6f91624a5ade62915aeff1d664736f6c634300081d0033",
					"opcodes": "PUSH1 0x80 PUSH1 0x40 MSTORE CALLVALUE DUP1 ISZERO PUSH1 0xE JUMPI PUSH0 PUSH0 REVERT JUMPDEST POP CALLER PUSH0 PUSH1 0x1 PUSH2 0x100 EXP DUP2 SLOAD DUP2 PUSH20 0xFFFFFFFFFFFFFFFFFFFFFFFFFFFFFFFFFFFFFFFF MUL NOT AND SWAP1 DUP4 PUSH20 0xFFFFFFFFFFFFFFFFFFFFFFFFFFFFFFFFFFFFFFFF AND MUL OR SWAP1 SSTORE POP PUSH2 0x55B DUP1 PUSH2 0x5C PUSH0 CODECOPY PUSH0 RETURN INVALID PUSH1 0x80 PUSH1 0x40 MSTORE CALLVALUE DUP1 ISZERO PUSH2 0xF JUMPI PUSH0 PUSH0 REVERT JUMPDEST POP PUSH1 0x4 CALLDATASIZE LT PUSH2 0x55 JUMPI PUSH0 CALLDATALOAD PUSH1 0xE0 SHR DUP1 PUSH4 0x54F7D9C EQ PUSH2 0x59 JUMPI DUP1 PUSH4 0x1C4077D9 EQ PUSH2 0x77 JUMPI DUP1 PUSH4 0x34FC2591 EQ PUSH2 0x93 JUMPI DUP1 PUSH4 0x6C18F73E EQ PUSH2 0x9D JUMPI DUP1 PUSH4 0xF851A440 EQ PUSH2 0xA7 JUMPI JUMPDEST PUSH0 PUSH0 REVERT JUMPDEST PUSH2 0x61 PUSH2 0xC5 JUMP JUMPDEST PUSH1 0x40 MLOAD PUSH2 0x6E SWAP2 SWAP1 PUSH2 0x2B4 JUMP JUMPDEST PUSH1 0x40 MLOAD DUP1 SWAP2 SUB SWAP1 RETURN JUMPDEST PUSH2 0x91 PUSH1 0x4 DUP1 CALLDATASIZE SUB DUP2 ADD SWAP1 PUSH2 0x8C SWAP2 SWAP1 PUSH2 0x336 JUMP JUMPDEST PUSH2 0xD6 JUMP JUMPDEST STOP JUMPDEST PUSH2 0x9B PUSH2 0x12A JUMP JUMPDEST STOP JUMPDEST PUSH2 0xA5 PUSH2 0x225 JUMP JUMPDEST STOP JUMPDEST PUSH2 0xAF PUSH2 0x275 JUMP JUMPDEST PUSH1 0x40 MLOAD PUSH2 0xBC SWAP2 SWAP1 PUSH2 0x3C0 JUMP JUMPDEST PUSH1 0x40 MLOAD DUP1 SWAP2 SUB SWAP1 RETURN JUMPDEST PUSH0 PUSH0 SWAP1 SLOAD SWAP1 PUSH2 0x100 EXP SWAP1 DIV PUSH1 0xFF AND DUP2 JUMP JUMPDEST CALLER PUSH20 0xFFFFFFFFFFFFFFFFFFFFFFFFFFFFFFFFFFFFFFFF AND PUSH32 0x1C88DCF8315B69E2BBFA9061510EA72AE6CDD5FF67B94BB023AEDCD5509A5782 DUP4 DUP4 PUSH1 0x40 MLOAD PUSH2 0x11E SWAP3 SWAP2 SWAP1 PUSH2 0x433 JUMP JUMPDEST PUSH1 0x40 MLOAD DUP1 SWAP2 SUB SWAP1 LOG2 POP POP JUMP JUMPDEST PUSH0 PUSH1 0x1 SWAP1 SLOAD SWAP1 PUSH2 0x100 EXP SWAP1 DIV PUSH20 0xFFFFFFFFFFFFFFFFFFFFFFFFFFFFFFFFFFFFFFFF AND PUSH20 0xFFFFFFFFFFFFFFFFFFFFFFFFFFFFFFFFFFFFFFFF AND CALLER PUSH20 0xFFFFFFFFFFFFFFFFFFFFFFFFFFFFFFFFFFFFFFFF AND EQ PUSH2 0x1B9 JUMPI PUSH1 0x40 MLOAD PUSH32 0x8C379A000000000000000000000000000000000000000000000000000000000 DUP2 MSTORE PUSH1 0x4 ADD PUSH2 0x1B0 SWAP1 PUSH2 0x49F JUMP JUMPDEST PUSH1 0x40 MLOAD DUP1 SWAP2 SUB SWAP1 REVERT JUMPDEST PUSH0 PUSH0 SWAP1 SLOAD SWAP1 PUSH2 0x100 EXP SWAP1 DIV PUSH1 0xFF AND ISZERO PUSH0 PUSH0 PUSH2 0x100 EXP DUP2 SLOAD DUP2 PUSH1 0xFF MUL NOT AND SWAP1 DUP4 ISZERO ISZERO MUL OR SWAP1 SSTORE POP PUSH32 0x27F5C154103CC6664EE3956704CB9580C247B4109E9D12827860D69AD96D3F5A PUSH0 PUSH0 SWAP1 SLOAD SWAP1 PUSH2 0x100 EXP SWAP1 DIV PUSH1 0xFF AND PUSH1 0x40 MLOAD PUSH2 0x21B SWAP2 SWAP1 PUSH2 0x2B4 JUMP JUMPDEST PUSH1 0x40 MLOAD DUP1 SWAP2 SUB SWAP1 LOG1 JUMP JUMPDEST PUSH0 PUSH0 SWAP1 SLOAD SWAP1 PUSH2 0x100 EXP SWAP1 DIV PUSH1 0xFF AND ISZERO PUSH2 0x273 JUMPI PUSH1 0x40 MLOAD PUSH32 0x8C379A000000000000000000000000000000000000000000000000000000000 DUP2 MSTORE PUSH1 0x4 ADD PUSH2 0x26A SWAP1 PUSH2 0x507 JUMP JUMPDEST PUSH1 0x40 MLOAD DUP1 SWAP2 SUB SWAP1 REVERT JUMPDEST JUMP JUMPDEST PUSH0 PUSH1 0x1 SWAP1 SLOAD SWAP1 PUSH2 0x100 EXP SWAP1 DIV PUSH20 0xFFFFFFFFFFFFFFFFFFFFFFFFFFFFFFFFFFFFFFFF AND DUP2 JUMP JUMPDEST PUSH0 DUP2 ISZERO ISZERO SWAP1 POP SWAP2 SWAP1 POP JUMP JUMPDEST PUSH2 0x2AE DUP2 PUSH2 0x29A JUMP JUMPDEST DUP3 MSTORE POP POP JUMP JUMPDEST PUSH0 PUSH1 0x20 DUP3 ADD SWAP1 POP PUSH2 0x2C7 PUSH0 DUP4 ADD DUP5 PUSH2 0x2A5 JUMP JUMPDEST SWAP3 SWAP2 POP POP JUMP JUMPDEST PUSH0 PUSH0 REVERT JUMPDEST PUSH0 PUSH0 REVERT JUMPDEST PUSH0 PUSH0 REVERT JUMPDEST PUSH0 PUSH0 REVERT JUMPDEST PUSH0 PUSH0 REVERT JUMPDEST PUSH0 PUSH0 DUP4 PUSH1 0x1F DUP5 ADD SLT PUSH2 0x2F6 JUMPI PUSH2 0x2F5 PUSH2 0x2D5 JUMP JUMPDEST JUMPDEST DUP3 CALLDATALOAD SWAP1 POP PUSH8 0xFFFFFFFFFFFFFFFF DUP2 GT ISZERO PUSH2 0x313 JUMPI PUSH2 0x312 PUSH2 0x2D9 JUMP JUMPDEST JUMPDEST PUSH1 0x20 DUP4 ADD SWAP2 POP DUP4 PUSH1 0x1 DUP3 MUL DUP4 ADD GT ISZERO PUSH2 0x32F JUMPI PUSH2 0x32E PUSH2 0x2DD JUMP JUMPDEST JUMPDEST SWAP3 POP SWAP3 SWAP1 POP JUMP JUMPDEST PUSH0 PUSH0 PUSH1 0x20 DUP4 DUP6 SUB SLT ISZERO PUSH2 0x34C JUMPI PUSH2 0x34B PUSH2 0x2CD JUMP JUMPDEST JUMPDEST PUSH0 DUP4 ADD CALLDATALOAD PUSH8 0xFFFFFFFFFFFFFFFF DUP2 GT ISZERO PUSH2 0x369 JUMPI PUSH2 0x368 PUSH2 0x2D1 JUMP JUMPDEST JUMPDEST PUSH2 0x375 DUP6 DUP3 DUP7 ADD PUSH2 0x2E1 JUMP JUMPDEST SWAP3 POP SWAP3 POP POP SWAP3 POP SWAP3 SWAP1 POP JUMP JUMPDEST PUSH0 PUSH20 0xFFFFFFFFFFFFFFFFFFFFFFFFFFFFFFFFFFFFFFFF DUP3 AND SWAP1 POP SWAP2 SWAP1 POP JUMP JUMPDEST PUSH0 PUSH2 0x3AA DUP3 PUSH2 0x381 JUMP JUMPDEST SWAP1 POP SWAP2 SWAP1 POP JUMP JUMPDEST PUSH2 0x3BA DUP2 PUSH2 0x3A0 JUMP JUMPDEST DUP3 MSTORE POP POP JUMP JUMPDEST PUSH0 PUSH1 0x20 DUP3 ADD SWAP1 POP PUSH2 0x3D3 PUSH0 DUP4 ADD DUP5 PUSH2 0x3B1 JUMP JUMPDEST SWAP3 SWAP2 POP POP JUMP JUMPDEST PUSH0 DUP3 DUP3 MSTORE PUSH1 0x20 DUP3 ADD SWAP1 POP SWAP3 SWAP2 POP POP JUMP JUMPDEST DUP3 DUP2 DUP4 CALLDATACOPY PUSH0 DUP4 DUP4 ADD MSTORE POP POP POP JUMP JUMPDEST PUSH0 PUSH1 0x1F NOT PUSH1 0x1F DUP4 ADD AND SWAP1 POP SWAP2 SWAP1 POP JUMP JUMPDEST PUSH0 PUSH2 0x412 DUP4 DUP6 PUSH2 0x3D9 JUMP JUMPDEST SWAP4 POP PUSH2 0x41F DUP4 DUP6 DUP5 PUSH2 0x3E9 JUMP JUMPDEST PUSH2 0x428 DUP4 PUSH2 0x3F7 JUMP JUMPDEST DUP5 ADD SWAP1 POP SWAP4 SWAP3 POP POP POP JUMP JUMPDEST PUSH0 PUSH1 0x20 DUP3 ADD SWAP1 POP DUP2 DUP2 SUB PUSH0 DUP4 ADD MSTORE PUSH2 0x44C DUP2 DUP5 DUP7 PUSH2 0x407 JUMP JUMPDEST SWAP1 POP SWAP4 SWAP3 POP POP POP JUMP JUMPDEST PUSH32 0x4F6E6C792061646D696E00000000000000000000000000000000000000000000 PUSH0 DUP3 ADD MSTORE POP JUMP JUMPDEST PUSH0 PUSH2 0x489 PUSH1 0xA DUP4 PUSH2 0x3D9 JUMP JUMPDEST SWAP2 POP PUSH2 0x494 DUP3 PUSH2 0x455 JUMP JUMPDEST PUSH1 0x20 DUP3 ADD SWAP1 POP SWAP2 SWAP1 POP JUMP JUMPDEST PUSH0 PUSH1 0x20 DUP3 ADD SWAP1 POP DUP2 DUP2 SUB PUSH0 DUP4 ADD MSTORE PUSH2 0x4B6 DUP2 PUSH2 0x47D JUMP JUMPDEST SWAP1 POP SWAP2 SWAP1 POP JUMP JUMPDEST PUSH32 0x53797374656D2066726F7A656E00000000000000000000000000000000000000 PUSH0 DUP3 ADD MSTORE POP JUMP JUMPDEST PUSH0 PUSH2 0x4F1 PUSH1 0xD DUP4 PUSH2 0x3D9 JUMP JUMPDEST SWAP2 POP PUSH2 0x4FC DUP3 PUSH2 0x4BD JUMP JUMPDEST PUSH1 0x20 DUP3 ADD SWAP1 POP SWAP2 SWAP1 POP JUMP JUMPDEST PUSH0 PUSH1 0x20 DUP3 ADD SWAP1 POP DUP2 DUP2 SUB PUSH0 DUP4 ADD MSTORE PUSH2 0x51E DUP2 PUSH2 0x4E5 JUMP JUMPDEST SWAP1 POP SWAP2 SWAP1 POP JUMP INVALID LOG2 PUSH5 0x6970667358 0x22 SLT KECCAK256 DUP15 0xEF BLOBBASEFEE 0xE SWAP9 LOG3 SLOAD CREATE 0xCA ISZERO 0xA8 XOR LOG2 0x25 PUSH6 0x1C699F0D5D6F SWAP2 PUSH3 0x4A5ADE PUSH3 0x915AEF CALL 0xD6 PUSH5 0x736F6C6343 STOP ADDMOD SAR STOP CALLER "
				},
				"gasEstimates": {
					"creation": {
						"codeDepositCost": "274200",
						"executionCost": "24625",
						"totalCost": "298825"
					},
					"external": {
						"admin()": "2624",
						"frozen()": "2443",
						"performAction()": "2625",
						"reportIncident(string)": "infinite",
						"toggleFreeze()": "32114"
					}
				},
				"methodIdentifiers": {
					"admin()": "f851a440",
					"frozen()": "054f7d9c",
					"performAction()": "6c18f73e",
					"reportIncident(string)": "1c4077d9",
					"toggleFreeze()": "34fc2591"
				}
			},
			"storageLayout": {
				"storage": [
					{
						"astId": 2,
						"contract": "B/British standard 7799/Incident Logging & Emergency Freeze type4.sol:BS7799IncidentManager",
						"label": "frozen",
						"offset": 0,
						"slot": "0",
						"type": "t_bool"
					},
					{
						"astId": 4,
						"contract": "B/British standard 7799/Incident Logging & Emergency Freeze type4.sol:BS7799IncidentManager",
						"label": "admin",
						"offset": 1,
						"slot": "0",
						"type": "t_address"
					}
				],
				"types": {
					"t_address": {
						"encoding": "inplace",
						"label": "address",
						"numberOfBytes": "20"
					},
					"t_bool": {
						"encoding": "inplace",
						"label": "bool",
						"numberOfBytes": "1"
					}
				}
			},
			"userdoc": {
				"kind": "user",
				"methods": {},
				"version": 1
			}
		}
	}
}