{
	"R/Registry/selectorRegistry.sol": {
		"SelectorRegistry": {
			"abi": [
				{
					"anonymous": false,
					"inputs": [
						{
							"indexed": false,
							"internalType": "bytes4",
							"name": "selector",
							"type": "bytes4"
						}
					],
					"name": "SelectorAdded",
					"type": "event"
				},
				{
					"anonymous": false,
					"inputs": [
						{
							"indexed": false,
							"internalType": "bytes4",
							"name": "selector",
							"type": "bytes4"
						}
					],
					"name": "SelectorRemoved",
					"type": "event"
				},
				{
					"inputs": [
						{
							"internalType": "bytes4",
							"name": "sel",
							"type": "bytes4"
						}
					],
					"name": "add",
					"outputs": [],
					"stateMutability": "nonpayable",
					"type": "function"
				},
				{
					"inputs": [
						{
							"internalType": "bytes4",
							"name": "",
							"type": "bytes4"
						}
					],
					"name": "registered",
					"outputs": [
						{
							"internalType": "bool",
							"name": "",
							"type": "bool"
						}
					],
					"stateMutability": "view",
					"type": "function"
				},
				{
					"inputs": [
						{
							"internalType": "bytes4",
							"name": "sel",
							"type": "bytes4"
						}
					],
					"name": "remove",
					"outputs": [],
					"stateMutability": "nonpayable",
					"type": "function"
				}
			],
			"devdoc": {
				"kind": "dev",
				"methods": {},
				"version": 1
			},
			"evm": {
				"assembly": "    /* \"R/Registry/selectorRegistry.sol\":0:392  contract SelectorRegistry {... */\n  mstore(0x40, 0x80)\n  callvalue\n  dup1\n  iszero\n  tag_1\n  jumpi\n  0x00\n  dup1\n  revert\ntag_1:\n  pop\n  dataSize(sub_0)\n  dup1\n  dataOffset(sub_0)\n  0x00\n  codecopy\n  0x00\n  return\nstop\n\nsub_0: assembly {\n        /* \"R/Registry/selectorRegistry.sol\":0:392  contract SelectorRegistry {... */\n      mstore(0x40, 0x80)\n      callvalue\n      dup1\n      iszero\n      tag_1\n      jumpi\n      0x00\n      dup1\n      revert\n    tag_1:\n      pop\n      jumpi(tag_2, lt(calldatasize, 0x04))\n      shr(0xe0, calldataload(0x00))\n      dup1\n      0x2c4553d8\n      eq\n      tag_3\n      jumpi\n      dup1\n      0xde8e8b3d\n      eq\n      tag_4\n      jumpi\n      dup1\n      0xe7453ebc\n      eq\n      tag_5\n      jumpi\n    tag_2:\n      0x00\n      dup1\n      revert\n        /* \"R/Registry/selectorRegistry.sol\":166:272  function add(bytes4 sel) external {... */\n    tag_3:\n      tag_6\n      0x04\n      dup1\n      calldatasize\n      sub\n      dup2\n      add\n      swap1\n      tag_7\n      swap2\n      swap1\n      tag_8\n      jump\t// in\n    tag_7:\n      tag_9\n      jump\t// in\n    tag_6:\n      stop\n        /* \"R/Registry/selectorRegistry.sol\":32:73  mapping(bytes4 => bool) public registered */\n    tag_4:\n      tag_10\n      0x04\n      dup1\n      calldatasize\n      sub\n      dup2\n      add\n      swap1\n      tag_11\n      swap2\n      swap1\n      tag_8\n      jump\t// in\n    tag_11:\n      tag_12\n      jump\t// in\n    tag_10:\n      mload(0x40)\n      tag_13\n      swap2\n      swap1\n      tag_14\n      jump\t// in\n    tag_13:\n      mload(0x40)\n      dup1\n      swap2\n      sub\n      swap1\n      return\n        /* \"R/Registry/selectorRegistry.sol\":278:390  function remove(bytes4 sel) external {... */\n    tag_5:\n      tag_15\n      0x04\n      dup1\n      calldatasize\n      sub\n      dup2\n      add\n      swap1\n      tag_16\n      swap2\n      swap1\n      tag_8\n      jump\t// in\n    tag_16:\n      tag_17\n      jump\t// in\n    tag_15:\n      stop\n        /* \"R/Registry/selectorRegistry.sol\":166:272  function add(bytes4 sel) external {... */\n    tag_9:\n        /* \"R/Registry/selectorRegistry.sol\":228:232  true */\n      0x01\n        /* \"R/Registry/selectorRegistry.sol\":210:220  registered */\n      0x00\n        /* \"R/Registry/selectorRegistry.sol\":210:225  registered[sel] */\n      dup1\n        /* \"R/Registry/selectorRegistry.sol\":221:224  sel */\n      dup4\n        /* \"R/Registry/selectorRegistry.sol\":210:225  registered[sel] */\n      not(0xffffffffffffffffffffffffffffffffffffffffffffffffffffffff)\n      and\n      not(0xffffffffffffffffffffffffffffffffffffffffffffffffffffffff)\n      and\n      dup2\n      mstore\n      0x20\n      add\n      swap1\n      dup2\n      mstore\n      0x20\n      add\n      0x00\n      keccak256\n      0x00\n        /* \"R/Registry/selectorRegistry.sol\":210:232  registered[sel] = true */\n      0x0100\n      exp\n      dup2\n      sload\n      dup2\n      0xff\n      mul\n      not\n      and\n      swap1\n      dup4\n      iszero\n      iszero\n      mul\n      or\n      swap1\n      sstore\n      pop\n        /* \"R/Registry/selectorRegistry.sol\":247:265  SelectorAdded(sel) */\n      0x8f79b7b0ef0c000e58db1da8bc93976e6776286ab028c9f6ea88fbcbf0cfd4f3\n        /* \"R/Registry/selectorRegistry.sol\":261:264  sel */\n      dup2\n        /* \"R/Registry/selectorRegistry.sol\":247:265  SelectorAdded(sel) */\n      mload(0x40)\n      tag_19\n      swap2\n      swap1\n      tag_20\n      jump\t// in\n    tag_19:\n      mload(0x40)\n      dup1\n      swap2\n      sub\n      swap1\n      log1\n        /* \"R/Registry/selectorRegistry.sol\":166:272  function add(bytes4 sel) external {... */\n      pop\n      jump\t// out\n        /* \"R/Registry/selectorRegistry.sol\":32:73  mapping(bytes4 => bool) public registered */\n    tag_12:\n      mstore(0x20, 0x00)\n      dup1\n      0x00\n      mstore\n      keccak256(0x00, 0x40)\n      0x00\n      swap2\n      pop\n      sload\n      swap1\n      0x0100\n      exp\n      swap1\n      div\n      0xff\n      and\n      dup2\n      jump\t// out\n        /* \"R/Registry/selectorRegistry.sol\":278:390  function remove(bytes4 sel) external {... */\n    tag_17:\n        /* \"R/Registry/selectorRegistry.sol\":343:348  false */\n      0x00\n        /* \"R/Registry/selectorRegistry.sol\":325:335  registered */\n      dup1\n        /* \"R/Registry/selectorRegistry.sol\":325:340  registered[sel] */\n      0x00\n        /* \"R/Registry/selectorRegistry.sol\":336:339  sel */\n      dup4\n        /* \"R/Registry/selectorRegistry.sol\":325:340  registered[sel] */\n      not(0xffffffffffffffffffffffffffffffffffffffffffffffffffffffff)\n      and\n      not(0xffffffffffffffffffffffffffffffffffffffffffffffffffffffff)\n      and\n      dup2\n      mstore\n      0x20\n      add\n      swap1\n      dup2\n      mstore\n      0x20\n      add\n      0x00\n      keccak256\n      0x00\n        /* \"R/Registry/selectorRegistry.sol\":325:348  registered[sel] = false */\n      0x0100\n      exp\n      dup2\n      sload\n      dup2\n      0xff\n      mul\n      not\n      and\n      swap1\n      dup4\n      iszero\n      iszero\n      mul\n      or\n      swap1\n      sstore\n      pop\n        /* \"R/Registry/selectorRegistry.sol\":363:383  SelectorRemoved(sel) */\n      0xde03ac4c41f6f2e1f1f274aac0ec03d9c5907cf5a447c59c2254718a880055a9\n        /* \"R/Registry/selectorRegistry.sol\":379:382  sel */\n      dup2\n        /* \"R/Registry/selectorRegistry.sol\":363:383  SelectorRemoved(sel) */\n      mload(0x40)\n      tag_22\n      swap2\n      swap1\n      tag_20\n      jump\t// in\n    tag_22:\n      mload(0x40)\n      dup1\n      swap2\n      sub\n      swap1\n      log1\n        /* \"R/Registry/selectorRegistry.sol\":278:390  function remove(bytes4 sel) external {... */\n      pop\n      jump\t// out\n        /* \"#utility.yul\":88:205   */\n    tag_24:\n        /* \"#utility.yul\":197:198   */\n      0x00\n        /* \"#utility.yul\":194:195   */\n      dup1\n        /* \"#utility.yul\":187:199   */\n      revert\n        /* \"#utility.yul\":334:483   */\n    tag_26:\n        /* \"#utility.yul\":370:377   */\n      0x00\n        /* \"#utility.yul\":410:476   */\n      0xffffffff00000000000000000000000000000000000000000000000000000000\n        /* \"#utility.yul\":403:408   */\n      dup3\n        /* \"#utility.yul\":399:477   */\n      and\n        /* \"#utility.yul\":388:477   */\n      swap1\n      pop\n        /* \"#utility.yul\":334:483   */\n      swap2\n      swap1\n      pop\n      jump\t// out\n        /* \"#utility.yul\":489:609   */\n    tag_27:\n        /* \"#utility.yul\":561:584   */\n      tag_38\n        /* \"#utility.yul\":578:583   */\n      dup2\n        /* \"#utility.yul\":561:584   */\n      tag_26\n      jump\t// in\n    tag_38:\n        /* \"#utility.yul\":554:559   */\n      dup2\n        /* \"#utility.yul\":551:585   */\n      eq\n        /* \"#utility.yul\":541:603   */\n      tag_39\n      jumpi\n        /* \"#utility.yul\":599:600   */\n      0x00\n        /* \"#utility.yul\":596:597   */\n      dup1\n        /* \"#utility.yul\":589:601   */\n      revert\n        /* \"#utility.yul\":541:603   */\n    tag_39:\n        /* \"#utility.yul\":489:609   */\n      pop\n      jump\t// out\n        /* \"#utility.yul\":615:752   */\n    tag_28:\n        /* \"#utility.yul\":660:665   */\n      0x00\n        /* \"#utility.yul\":698:704   */\n      dup2\n        /* \"#utility.yul\":685:705   */\n      calldataload\n        /* \"#utility.yul\":676:705   */\n      swap1\n      pop\n        /* \"#utility.yul\":714:746   */\n      tag_41\n        /* \"#utility.yul\":740:745   */\n      dup2\n        /* \"#utility.yul\":714:746   */\n      tag_27\n      jump\t// in\n    tag_41:\n        /* \"#utility.yul\":615:752   */\n      swap3\n      swap2\n      pop\n      pop\n      jump\t// out\n        /* \"#utility.yul\":758:1085   */\n    tag_8:\n        /* \"#utility.yul\":816:822   */\n      0x00\n        /* \"#utility.yul\":865:867   */\n      0x20\n        /* \"#utility.yul\":853:862   */\n      dup3\n        /* \"#utility.yul\":844:851   */\n      dup5\n        /* \"#utility.yul\":840:863   */\n      sub\n        /* \"#utility.yul\":836:868   */\n      slt\n        /* \"#utility.yul\":833:952   */\n      iszero\n      tag_43\n      jumpi\n        /* \"#utility.yul\":871:950   */\n      tag_44\n      tag_24\n      jump\t// in\n    tag_44:\n        /* \"#utility.yul\":833:952   */\n    tag_43:\n        /* \"#utility.yul\":991:992   */\n      0x00\n        /* \"#utility.yul\":1016:1068   */\n      tag_45\n        /* \"#utility.yul\":1060:1067   */\n      dup5\n        /* \"#utility.yul\":1051:1057   */\n      dup3\n        /* \"#utility.yul\":1040:1049   */\n      dup6\n        /* \"#utility.yul\":1036:1058   */\n      add\n        /* \"#utility.yul\":1016:1068   */\n      tag_28\n      jump\t// in\n    tag_45:\n        /* \"#utility.yul\":1006:1068   */\n      swap2\n      pop\n        /* \"#utility.yul\":962:1078   */\n      pop\n        /* \"#utility.yul\":758:1085   */\n      swap3\n      swap2\n      pop\n      pop\n      jump\t// out\n        /* \"#utility.yul\":1091:1181   */\n    tag_29:\n        /* \"#utility.yul\":1125:1132   */\n      0x00\n        /* \"#utility.yul\":1168:1173   */\n      dup2\n        /* \"#utility.yul\":1161:1174   */\n      iszero\n        /* \"#utility.yul\":1154:1175   */\n      iszero\n        /* \"#utility.yul\":1143:1175   */\n      swap1\n      pop\n        /* \"#utility.yul\":1091:1181   */\n      swap2\n      swap1\n      pop\n      jump\t// out\n        /* \"#utility.yul\":1187:1296   */\n    tag_30:\n        /* \"#utility.yul\":1268:1289   */\n      tag_48\n        /* \"#utility.yul\":1283:1288   */\n      dup2\n        /* \"#utility.yul\":1268:1289   */\n      tag_29\n      jump\t// in\n    tag_48:\n        /* \"#utility.yul\":1263:1266   */\n      dup3\n        /* \"#utility.yul\":1256:1290   */\n      mstore\n        /* \"#utility.yul\":1187:1296   */\n      pop\n      pop\n      jump\t// out\n        /* \"#utility.yul\":1302:1512   */\n    tag_14:\n        /* \"#utility.yul\":1389:1393   */\n      0x00\n        /* \"#utility.yul\":1427:1429   */\n      0x20\n        /* \"#utility.yul\":1416:1425   */\n      dup3\n        /* \"#utility.yul\":1412:1430   */\n      add\n        /* \"#utility.yul\":1404:1430   */\n      swap1\n      pop\n        /* \"#utility.yul\":1440:1505   */\n      tag_50\n        /* \"#utility.yul\":1502:1503   */\n      0x00\n        /* \"#utility.yul\":1491:1500   */\n      dup4\n        /* \"#utility.yul\":1487:1504   */\n      add\n        /* \"#utility.yul\":1478:1484   */\n      dup5\n        /* \"#utility.yul\":1440:1505   */\n      tag_30\n      jump\t// in\n    tag_50:\n        /* \"#utility.yul\":1302:1512   */\n      swap3\n      swap2\n      pop\n      pop\n      jump\t// out\n        /* \"#utility.yul\":1518:1633   */\n    tag_31:\n        /* \"#utility.yul\":1603:1626   */\n      tag_52\n        /* \"#utility.yul\":1620:1625   */\n      dup2\n        /* \"#utility.yul\":1603:1626   */\n      tag_26\n      jump\t// in\n    tag_52:\n        /* \"#utility.yul\":1598:1601   */\n      dup3\n        /* \"#utility.yul\":1591:1627   */\n      mstore\n        /* \"#utility.yul\":1518:1633   */\n      pop\n      pop\n      jump\t// out\n        /* \"#utility.yul\":1639:1857   */\n    tag_20:\n        /* \"#utility.yul\":1730:1734   */\n      0x00\n        /* \"#utility.yul\":1768:1770   */\n      0x20\n        /* \"#utility.yul\":1757:1766   */\n      dup3\n        /* \"#utility.yul\":1753:1771   */\n      add\n        /* \"#utility.yul\":1745:1771   */\n      swap1\n      pop\n        /* \"#utility.yul\":1781:1850   */\n      tag_54\n        /* \"#utility.yul\":1847:1848   */\n      0x00\n        /* \"#utility.yul\":1836:1845   */\n      dup4\n        /* \"#utility.yul\":1832:1849   */\n      add\n        /* \"#utility.yul\":1823:1829   */\n      dup5\n        /* \"#utility.yul\":1781:1850   */\n      tag_31\n      jump\t// in\n    tag_54:\n        /* \"#utility.yul\":1639:1857   */\n      swap3\n      swap2\n      pop\n      pop\n      jump\t// out\n\n    auxdata: 0xa26469706673582212200fd926c4708eade1716287ff0108d4e849cbff3aabf1b7d8ae89837170b090e764736f6c634300081a0033\n}\n",
				"bytecode": {
					"linkReferences": {},
					"object": "6080604052348015600e575f80fd5b5061031b8061001c5f395ff3fe608060405234801561000f575f80fd5b506004361061003f575f3560e01c80632c4553d814610043578063de8e8b3d1461005f578063e7453ebc1461008f575b5f80fd5b61005d6004803603810190610058919061025f565b6100ab565b005b6100796004803603810190610074919061025f565b61014b565b60405161008691906102a4565b60405180910390f35b6100a960048036038101906100a4919061025f565b610167565b005b60015f80837bffffffffffffffffffffffffffffffffffffffffffffffffffffffff19167bffffffffffffffffffffffffffffffffffffffffffffffffffffffff191681526020019081526020015f205f6101000a81548160ff0219169083151502179055507f8f79b7b0ef0c000e58db1da8bc93976e6776286ab028c9f6ea88fbcbf0cfd4f38160405161014091906102cc565b60405180910390a150565b5f602052805f5260405f205f915054906101000a900460ff1681565b5f805f837bffffffffffffffffffffffffffffffffffffffffffffffffffffffff19167bffffffffffffffffffffffffffffffffffffffffffffffffffffffff191681526020019081526020015f205f6101000a81548160ff0219169083151502179055507fde03ac4c41f6f2e1f1f274aac0ec03d9c5907cf5a447c59c2254718a880055a9816040516101fb91906102cc565b60405180910390a150565b5f80fd5b5f7fffffffff0000000000000000000000000000000000000000000000000000000082169050919050565b61023e8161020a565b8114610248575f80fd5b50565b5f8135905061025981610235565b92915050565b5f6020828403121561027457610273610206565b5b5f6102818482850161024b565b91505092915050565b5f8115159050919050565b61029e8161028a565b82525050565b5f6020820190506102b75f830184610295565b92915050565b6102c68161020a565b82525050565b5f6020820190506102df5f8301846102bd565b9291505056fea26469706673582212200fd926c4708eade1716287ff0108d4e849cbff3aabf1b7d8ae89837170b090e764736f6c634300081a0033",
					"opcodes": "PUSH1 0x80 PUSH1 0x40 MSTORE CALLVALUE DUP1 ISZERO PUSH1 0xE JUMPI PUSH0 DUP1 REVERT JUMPDEST POP PUSH2 0x31B DUP1 PUSH2 0x1C PUSH0 CODECOPY PUSH0 RETURN INVALID PUSH1 0x80 PUSH1 0x40 MSTORE CALLVALUE DUP1 ISZERO PUSH2 0xF JUMPI PUSH0 DUP1 REVERT JUMPDEST POP PUSH1 0x4 CALLDATASIZE LT PUSH2 0x3F JUMPI PUSH0 CALLDATALOAD PUSH1 0xE0 SHR DUP1 PUSH4 0x2C4553D8 EQ PUSH2 0x43 JUMPI DUP1 PUSH4 0xDE8E8B3D EQ PUSH2 0x5F JUMPI DUP1 PUSH4 0xE7453EBC EQ PUSH2 0x8F JUMPI JUMPDEST PUSH0 DUP1 REVERT JUMPDEST PUSH2 0x5D PUSH1 0x4 DUP1 CALLDATASIZE SUB DUP2 ADD SWAP1 PUSH2 0x58 SWAP2 SWAP1 PUSH2 0x25F JUMP JUMPDEST PUSH2 0xAB JUMP JUMPDEST STOP JUMPDEST PUSH2 0x79 PUSH1 0x4 DUP1 CALLDATASIZE SUB DUP2 ADD SWAP1 PUSH2 0x74 SWAP2 SWAP1 PUSH2 0x25F JUMP JUMPDEST PUSH2 0x14B JUMP JUMPDEST PUSH1 0x40 MLOAD PUSH2 0x86 SWAP2 SWAP1 PUSH2 0x2A4 JUMP JUMPDEST PUSH1 0x40 MLOAD DUP1 SWAP2 SUB SWAP1 RETURN JUMPDEST PUSH2 0xA9 PUSH1 0x4 DUP1 CALLDATASIZE SUB DUP2 ADD SWAP1 PUSH2 0xA4 SWAP2 SWAP1 PUSH2 0x25F JUMP JUMPDEST PUSH2 0x167 JUMP JUMPDEST STOP JUMPDEST PUSH1 0x1 PUSH0 DUP1 DUP4 PUSH28 0xFFFFFFFFFFFFFFFFFFFFFFFFFFFFFFFFFFFFFFFFFFFFFFFFFFFFFFFF NOT AND PUSH28 0xFFFFFFFFFFFFFFFFFFFFFFFFFFFFFFFFFFFFFFFFFFFFFFFFFFFFFFFF NOT AND DUP2 MSTORE PUSH1 0x20 ADD SWAP1 DUP2 MSTORE PUSH1 0x20 ADD PUSH0 KECCAK256 PUSH0 PUSH2 0x100 EXP DUP2 SLOAD DUP2 PUSH1 0xFF MUL NOT AND SWAP1 DUP4 ISZERO ISZERO MUL OR SWAP1 SSTORE POP PUSH32 0x8F79B7B0EF0C000E58DB1DA8BC93976E6776286AB028C9F6EA88FBCBF0CFD4F3 DUP2 PUSH1 0x40 MLOAD PUSH2 0x140 SWAP2 SWAP1 PUSH2 0x2CC JUMP JUMPDEST PUSH1 0x40 MLOAD DUP1 SWAP2 SUB SWAP1 LOG1 POP JUMP JUMPDEST PUSH0 PUSH1 0x20 MSTORE DUP1 PUSH0 MSTORE PUSH1 0x40 PUSH0 KECCAK256 PUSH0 SWAP2 POP SLOAD SWAP1 PUSH2 0x100 EXP SWAP1 DIV PUSH1 0xFF AND DUP2 JUMP JUMPDEST PUSH0 DUP1 PUSH0 DUP4 PUSH28 0xFFFFFFFFFFFFFFFFFFFFFFFFFFFFFFFFFFFFFFFFFFFFFFFFFFFFFFFF NOT AND PUSH28 0xFFFFFFFFFFFFFFFFFFFFFFFFFFFFFFFFFFFFFFFFFFFFFFFFFFFFFFFF NOT AND DUP2 MSTORE PUSH1 0x20 ADD SWAP1 DUP2 MSTORE PUSH1 0x20 ADD PUSH0 KECCAK256 PUSH0 PUSH2 0x100 EXP DUP2 SLOAD DUP2 PUSH1 0xFF MUL NOT AND SWAP1 DUP4 ISZERO ISZERO MUL OR SWAP1 SSTORE POP PUSH32 0xDE03AC4C41F6F2E1F1F274AAC0EC03D9C5907CF5A447C59C2254718A880055A9 DUP2 PUSH1 0x40 MLOAD PUSH2 0x1FB SWAP2 SWAP1 PUSH2 0x2CC JUMP JUMPDEST PUSH1 0x40 MLOAD DUP1 SWAP2 SUB SWAP1 LOG1 POP JUMP JUMPDEST PUSH0 DUP1 REVERT JUMPDEST PUSH0 PUSH32 0xFFFFFFFF00000000000000000000000000000000000000000000000000000000 DUP3 AND SWAP1 POP SWAP2 SWAP1 POP JUMP JUMPDEST PUSH2 0x23E DUP2 PUSH2 0x20A JUMP JUMPDEST DUP2 EQ PUSH2 0x248 JUMPI PUSH0 DUP1 REVERT JUMPDEST POP JUMP JUMPDEST PUSH0 DUP2 CALLDATALOAD SWAP1 POP PUSH2 0x259 DUP2 PUSH2 0x235 JUMP JUMPDEST SWAP3 SWAP2 POP POP JUMP JUMPDEST PUSH0 PUSH1 0x20 DUP3 DUP5 SUB SLT ISZERO PUSH2 0x274 JUMPI PUSH2 0x273 PUSH2 0x206 JUMP JUMPDEST JUMPDEST PUSH0 PUSH2 0x281 DUP5 DUP3 DUP6 ADD PUSH2 0x24B JUMP JUMPDEST SWAP2 POP POP SWAP3 SWAP2 POP POP JUMP JUMPDEST PUSH0 DUP2 ISZERO ISZERO SWAP1 POP SWAP2 SWAP1 POP JUMP JUMPDEST PUSH2 0x29E DUP2 PUSH2 0x28A JUMP JUMPDEST DUP3 MSTORE POP POP JUMP JUMPDEST PUSH0 PUSH1 0x20 DUP3 ADD SWAP1 POP PUSH2 0x2B7 PUSH0 DUP4 ADD DUP5 PUSH2 0x295 JUMP JUMPDEST SWAP3 SWAP2 POP POP JUMP JUMPDEST PUSH2 0x2C6 DUP2 PUSH2 0x20A JUMP JUMPDEST DUP3 MSTORE POP POP JUMP JUMPDEST PUSH0 PUSH1 0x20 DUP3 ADD SWAP1 POP PUSH2 0x2DF PUSH0 DUP4 ADD DUP5 PUSH2 0x2BD JUMP JUMPDEST SWAP3 SWAP2 POP POP JUMP INVALID LOG2 PUSH5 0x6970667358 0x22 SLT KECCAK256 0xF 0xD9 0x26 0xC4 PUSH17 0x8EADE1716287FF0108D4E849CBFF3AABF1 0xB7 0xD8 0xAE DUP10 DUP4 PUSH18 0x70B090E764736F6C634300081A0033000000 "
				},
				"gasEstimates": {
					"creation": {
						"codeDepositCost": "159000",
						"executionCost": "200",
						"totalCost": "159200"
					},
					"external": {
						"add(bytes4)": "infinite",
						"registered(bytes4)": "2790",
						"remove(bytes4)": "infinite"
					}
				},
				"methodIdentifiers": {
					"add(bytes4)": "2c4553d8",
					"registered(bytes4)": "de8e8b3d",
					"remove(bytes4)": "e7453ebc"
				}
			},
			"storageLayout": {
				"storage": [
					{
						"astId": 4,
						"contract": "R/Registry/selectorRegistry.sol:SelectorRegistry",
						"label": "registered",
						"offset": 0,
						"slot": "0",
						"type": "t_mapping(t_bytes4,t_bool)"
					}
				],
				"types": {
					"t_bool": {
						"encoding": "inplace",
						"label": "bool",
						"numberOfBytes": "1"
					},
					"t_bytes4": {
						"encoding": "inplace",
						"label": "bytes4",
						"numberOfBytes": "4"
					},
					"t_mapping(t_bytes4,t_bool)": {
						"encoding": "mapping",
						"key": "t_bytes4",
						"label": "mapping(bytes4 => bool)",
						"numberOfBytes": "32",
						"value": "t_bool"
					}
				}
			},
			"userdoc": {
				"kind": "user",
				"methods": {},
				"version": 1
			}
		}
	}
}