{
	"R/Registry/UniversalRegistry.sol": {
		"UniversalRegistry": {
			"abi": [
				{
					"anonymous": false,
					"inputs": [
						{
							"indexed": true,
							"internalType": "bytes32",
							"name": "key",
							"type": "bytes32"
						}
					],
					"name": "Deactivated",
					"type": "event"
				},
				{
					"anonymous": false,
					"inputs": [
						{
							"indexed": true,
							"internalType": "bytes32",
							"name": "key",
							"type": "bytes32"
						},
						{
							"indexed": false,
							"internalType": "enum UniversalRegistry.EntryType",
							"name": "kind",
							"type": "uint8"
						},
						{
							"indexed": false,
							"internalType": "string",
							"name": "tag",
							"type": "string"
						}
					],
					"name": "Registered",
					"type": "event"
				},
				{
					"inputs": [
						{
							"internalType": "bytes32",
							"name": "value",
							"type": "bytes32"
						}
					],
					"name": "deactivate",
					"outputs": [],
					"stateMutability": "nonpayable",
					"type": "function"
				},
				{
					"inputs": [
						{
							"internalType": "uint256",
							"name": "",
							"type": "uint256"
						}
					],
					"name": "entries",
					"outputs": [
						{
							"internalType": "enum UniversalRegistry.EntryType",
							"name": "kind",
							"type": "uint8"
						},
						{
							"internalType": "bytes32",
							"name": "value",
							"type": "bytes32"
						},
						{
							"internalType": "string",
							"name": "tag",
							"type": "string"
						},
						{
							"internalType": "uint256",
							"name": "addedAt",
							"type": "uint256"
						},
						{
							"internalType": "bool",
							"name": "active",
							"type": "bool"
						}
					],
					"stateMutability": "view",
					"type": "function"
				},
				{
					"inputs": [
						{
							"internalType": "bytes32",
							"name": "",
							"type": "bytes32"
						}
					],
					"name": "exists",
					"outputs": [
						{
							"internalType": "bool",
							"name": "",
							"type": "bool"
						}
					],
					"stateMutability": "view",
					"type": "function"
				},
				{
					"inputs": [
						{
							"internalType": "uint256",
							"name": "i",
							"type": "uint256"
						}
					],
					"name": "get",
					"outputs": [
						{
							"components": [
								{
									"internalType": "enum UniversalRegistry.EntryType",
									"name": "kind",
									"type": "uint8"
								},
								{
									"internalType": "bytes32",
									"name": "value",
									"type": "bytes32"
								},
								{
									"internalType": "string",
									"name": "tag",
									"type": "string"
								},
								{
									"internalType": "uint256",
									"name": "addedAt",
									"type": "uint256"
								},
								{
									"internalType": "bool",
									"name": "active",
									"type": "bool"
								}
							],
							"internalType": "struct UniversalRegistry.Entry",
							"name": "",
							"type": "tuple"
						}
					],
					"stateMutability": "view",
					"type": "function"
				},
				{
					"inputs": [
						{
							"internalType": "enum UniversalRegistry.EntryType",
							"name": "kind",
							"type": "uint8"
						},
						{
							"internalType": "bytes32",
							"name": "value",
							"type": "bytes32"
						},
						{
							"internalType": "string",
							"name": "tag",
							"type": "string"
						}
					],
					"name": "register",
					"outputs": [],
					"stateMutability": "nonpayable",
					"type": "function"
				},
				{
					"inputs": [],
					"name": "total",
					"outputs": [
						{
							"internalType": "uint256",
							"name": "",
							"type": "uint256"
						}
					],
					"stateMutability": "view",
					"type": "function"
				}
			],
			"devdoc": {
				"kind": "dev",
				"methods": {},
				"version": 1
			},
			"evm": {
				"assembly": "    /* \"R/Registry/UniversalRegistry.sol\":58:1115  contract UniversalRegistry {... */\n  mstore(0x40, 0x80)\n  callvalue\n  dup1\n  iszero\n  tag_1\n  jumpi\n  0x00\n  dup1\n  revert\ntag_1:\n  pop\n  dataSize(sub_0)\n  dup1\n  dataOffset(sub_0)\n  0x00\n  codecopy\n  0x00\n  return\nstop\n\nsub_0: assembly {\n        /* \"R/Registry/UniversalRegistry.sol\":58:1115  contract UniversalRegistry {... */\n      mstore(0x40, 0x80)\n      callvalue\n      dup1\n      iszero\n      tag_1\n      jumpi\n      0x00\n      dup1\n      revert\n    tag_1:\n      pop\n      jumpi(tag_2, lt(calldatasize, 0x04))\n      shr(0xe0, calldataload(0x00))\n      dup1\n      0x1475a777\n      eq\n      tag_3\n      jumpi\n      dup1\n      0x22eee84c\n      eq\n      tag_4\n      jumpi\n      dup1\n      0x2ddbd13a\n      eq\n      tag_5\n      jumpi\n      dup1\n      0x38a699a4\n      eq\n      tag_6\n      jumpi\n      dup1\n      0x9507d39a\n      eq\n      tag_7\n      jumpi\n      dup1\n      0xb30906d4\n      eq\n      tag_8\n      jumpi\n    tag_2:\n      0x00\n      dup1\n      revert\n        /* \"R/Registry/UniversalRegistry.sol\":473:753  function register(EntryType kind, bytes32 value, string calldata tag) external {... */\n    tag_3:\n      tag_9\n      0x04\n      dup1\n      calldatasize\n      sub\n      dup2\n      add\n      swap1\n      tag_10\n      swap2\n      swap1\n      tag_11\n      jump\t// in\n    tag_10:\n      tag_12\n      jump\t// in\n    tag_9:\n      stop\n        /* \"R/Registry/UniversalRegistry.sol\":759:919  function deactivate(bytes32 value) external {... */\n    tag_4:\n      tag_13\n      0x04\n      dup1\n      calldatasize\n      sub\n      dup2\n      add\n      swap1\n      tag_14\n      swap2\n      swap1\n      tag_15\n      jump\t// in\n    tag_14:\n      tag_16\n      jump\t// in\n    tag_13:\n      stop\n        /* \"R/Registry/UniversalRegistry.sol\":925:1012  function total() external view returns (uint256) {... */\n    tag_5:\n      tag_17\n      tag_18\n      jump\t// in\n    tag_17:\n      mload(0x40)\n      tag_19\n      swap2\n      swap1\n      tag_20\n      jump\t// in\n    tag_19:\n      mload(0x40)\n      dup1\n      swap2\n      sub\n      swap1\n      return\n        /* \"R/Registry/UniversalRegistry.sol\":312:350  mapping(bytes32 => bool) public exists */\n    tag_6:\n      tag_21\n      0x04\n      dup1\n      calldatasize\n      sub\n      dup2\n      add\n      swap1\n      tag_22\n      swap2\n      swap1\n      tag_15\n      jump\t// in\n    tag_22:\n      tag_23\n      jump\t// in\n    tag_21:\n      mload(0x40)\n      tag_24\n      swap2\n      swap1\n      tag_25\n      jump\t// in\n    tag_24:\n      mload(0x40)\n      dup1\n      swap2\n      sub\n      swap1\n      return\n        /* \"R/Registry/UniversalRegistry.sol\":1018:1113  function get(uint256 i) external view returns (Entry memory) {... */\n    tag_7:\n      tag_26\n      0x04\n      dup1\n      calldatasize\n      sub\n      dup2\n      add\n      swap1\n      tag_27\n      swap2\n      swap1\n      tag_28\n      jump\t// in\n    tag_27:\n      tag_29\n      jump\t// in\n    tag_26:\n      mload(0x40)\n      tag_30\n      swap2\n      swap1\n      tag_31\n      jump\t// in\n    tag_30:\n      mload(0x40)\n      dup1\n      swap2\n      sub\n      swap1\n      return\n        /* \"R/Registry/UniversalRegistry.sol\":284:306  Entry[] public entries */\n    tag_8:\n      tag_32\n      0x04\n      dup1\n      calldatasize\n      sub\n      dup2\n      add\n      swap1\n      tag_33\n      swap2\n      swap1\n      tag_28\n      jump\t// in\n    tag_33:\n      tag_34\n      jump\t// in\n    tag_32:\n      mload(0x40)\n      tag_35\n      swap6\n      swap5\n      swap4\n      swap3\n      swap2\n      swap1\n      tag_36\n      jump\t// in\n    tag_35:\n      mload(0x40)\n      dup1\n      swap2\n      sub\n      swap1\n      return\n        /* \"R/Registry/UniversalRegistry.sol\":473:753  function register(EntryType kind, bytes32 value, string calldata tag) external {... */\n    tag_12:\n        /* \"R/Registry/UniversalRegistry.sol\":571:577  exists */\n      0x01\n        /* \"R/Registry/UniversalRegistry.sol\":571:584  exists[value] */\n      0x00\n        /* \"R/Registry/UniversalRegistry.sol\":578:583  value */\n      dup5\n        /* \"R/Registry/UniversalRegistry.sol\":571:584  exists[value] */\n      dup2\n      mstore\n      0x20\n      add\n      swap1\n      dup2\n      mstore\n      0x20\n      add\n      0x00\n      keccak256\n      0x00\n      swap1\n      sload\n      swap1\n      0x0100\n      exp\n      swap1\n      div\n      0xff\n      and\n        /* \"R/Registry/UniversalRegistry.sol\":570:584  !exists[value] */\n      iszero\n        /* \"R/Registry/UniversalRegistry.sol\":562:603  require(!exists[value], \"Already exists\") */\n      tag_38\n      jumpi\n      mload(0x40)\n      0x08c379a000000000000000000000000000000000000000000000000000000000\n      dup2\n      mstore\n      0x04\n      add\n      tag_39\n      swap1\n      tag_40\n      jump\t// in\n    tag_39:\n      mload(0x40)\n      dup1\n      swap2\n      sub\n      swap1\n      revert\n    tag_38:\n        /* \"R/Registry/UniversalRegistry.sol\":613:620  entries */\n      0x00\n        /* \"R/Registry/UniversalRegistry.sol\":626:672  Entry(kind, value, tag, block.timestamp, true) */\n      mload(0x40)\n      dup1\n      0xa0\n      add\n      0x40\n      mstore\n      dup1\n        /* \"R/Registry/UniversalRegistry.sol\":632:636  kind */\n      dup7\n        /* \"R/Registry/UniversalRegistry.sol\":626:672  Entry(kind, value, tag, block.timestamp, true) */\n      0x03\n      dup2\n      gt\n      iszero\n      tag_41\n      jumpi\n      tag_42\n      tag_43\n      jump\t// in\n    tag_42:\n    tag_41:\n      dup2\n      mstore\n      0x20\n      add\n        /* \"R/Registry/UniversalRegistry.sol\":638:643  value */\n      dup6\n        /* \"R/Registry/UniversalRegistry.sol\":626:672  Entry(kind, value, tag, block.timestamp, true) */\n      dup2\n      mstore\n      0x20\n      add\n        /* \"R/Registry/UniversalRegistry.sol\":645:648  tag */\n      dup5\n      dup5\n        /* \"R/Registry/UniversalRegistry.sol\":626:672  Entry(kind, value, tag, block.timestamp, true) */\n      dup1\n      dup1\n      0x1f\n      add\n      0x20\n      dup1\n      swap2\n      div\n      mul\n      0x20\n      add\n      mload(0x40)\n      swap1\n      dup2\n      add\n      0x40\n      mstore\n      dup1\n      swap4\n      swap3\n      swap2\n      swap1\n      dup2\n      dup2\n      mstore\n      0x20\n      add\n      dup4\n      dup4\n      dup1\n      dup3\n      dup5\n      calldatacopy\n      0x00\n      dup2\n      dup5\n      add\n      mstore\n      not(0x1f)\n      0x1f\n      dup3\n      add\n      and\n      swap1\n      pop\n      dup1\n      dup4\n      add\n      swap3\n      pop\n      pop\n      pop\n      pop\n      pop\n      pop\n      pop\n      dup2\n      mstore\n      0x20\n      add\n        /* \"R/Registry/UniversalRegistry.sol\":650:665  block.timestamp */\n      timestamp\n        /* \"R/Registry/UniversalRegistry.sol\":626:672  Entry(kind, value, tag, block.timestamp, true) */\n      dup2\n      mstore\n      0x20\n      add\n        /* \"R/Registry/UniversalRegistry.sol\":667:671  true */\n      0x01\n        /* \"R/Registry/UniversalRegistry.sol\":626:672  Entry(kind, value, tag, block.timestamp, true) */\n      iszero\n      iszero\n      dup2\n      mstore\n      pop\n        /* \"R/Registry/UniversalRegistry.sol\":613:673  entries.push(Entry(kind, value, tag, block.timestamp, true)) */\n      swap1\n      dup1\n      0x01\n      dup2\n      sload\n      add\n      dup1\n      dup3\n      sstore\n      dup1\n      swap2\n      pop\n      pop\n      0x01\n      swap1\n      sub\n      swap1\n      0x00\n      mstore\n      keccak256(0x00, 0x20)\n      swap1\n      0x05\n      mul\n      add\n      0x00\n      swap1\n      swap2\n      swap1\n      swap2\n      swap1\n      swap2\n      pop\n      0x00\n      dup3\n      add\n      mload\n      dup2\n      0x00\n      add\n      exp(0x0100, 0x00)\n      dup2\n      sload\n      dup2\n      0xff\n      mul\n      not\n      and\n      swap1\n      dup4\n      0x03\n      dup2\n      gt\n      iszero\n      tag_45\n      jumpi\n      tag_46\n      tag_43\n      jump\t// in\n    tag_46:\n    tag_45:\n      mul\n      or\n      swap1\n      sstore\n      pop\n      0x20\n      dup3\n      add\n      mload\n      dup2\n      0x01\n      add\n      sstore\n      0x40\n      dup3\n      add\n      mload\n      dup2\n      0x02\n      add\n      swap1\n      dup2\n      tag_47\n      swap2\n      swap1\n      tag_48\n      jump\t// in\n    tag_47:\n      pop\n      0x60\n      dup3\n      add\n      mload\n      dup2\n      0x03\n      add\n      sstore\n      0x80\n      dup3\n      add\n      mload\n      dup2\n      0x04\n      add\n      exp(0x0100, 0x00)\n      dup2\n      sload\n      dup2\n      0xff\n      mul\n      not\n      and\n      swap1\n      dup4\n      iszero\n      iszero\n      mul\n      or\n      swap1\n      sstore\n      pop\n      pop\n      pop\n        /* \"R/Registry/UniversalRegistry.sol\":699:703  true */\n      0x01\n        /* \"R/Registry/UniversalRegistry.sol\":683:689  exists */\n      dup1\n        /* \"R/Registry/UniversalRegistry.sol\":683:696  exists[value] */\n      0x00\n        /* \"R/Registry/UniversalRegistry.sol\":690:695  value */\n      dup6\n        /* \"R/Registry/UniversalRegistry.sol\":683:696  exists[value] */\n      dup2\n      mstore\n      0x20\n      add\n      swap1\n      dup2\n      mstore\n      0x20\n      add\n      0x00\n      keccak256\n      0x00\n        /* \"R/Registry/UniversalRegistry.sol\":683:703  exists[value] = true */\n      0x0100\n      exp\n      dup2\n      sload\n      dup2\n      0xff\n      mul\n      not\n      and\n      swap1\n      dup4\n      iszero\n      iszero\n      mul\n      or\n      swap1\n      sstore\n      pop\n        /* \"R/Registry/UniversalRegistry.sol\":729:734  value */\n      dup3\n        /* \"R/Registry/UniversalRegistry.sol\":718:746  Registered(value, kind, tag) */\n      0x8aeceacc22af9fef3c689c2ee4dcb159ecc527f41f6d2994d6180af5eac23413\n        /* \"R/Registry/UniversalRegistry.sol\":736:740  kind */\n      dup6\n        /* \"R/Registry/UniversalRegistry.sol\":742:745  tag */\n      dup5\n      dup5\n        /* \"R/Registry/UniversalRegistry.sol\":718:746  Registered(value, kind, tag) */\n      mload(0x40)\n      tag_49\n      swap4\n      swap3\n      swap2\n      swap1\n      tag_50\n      jump\t// in\n    tag_49:\n      mload(0x40)\n      dup1\n      swap2\n      sub\n      swap1\n      log2\n        /* \"R/Registry/UniversalRegistry.sol\":473:753  function register(EntryType kind, bytes32 value, string calldata tag) external {... */\n      pop\n      pop\n      pop\n      pop\n      jump\t// out\n        /* \"R/Registry/UniversalRegistry.sol\":759:919  function deactivate(bytes32 value) external {... */\n    tag_16:\n        /* \"R/Registry/UniversalRegistry.sol\":821:827  exists */\n      0x01\n        /* \"R/Registry/UniversalRegistry.sol\":821:834  exists[value] */\n      0x00\n        /* \"R/Registry/UniversalRegistry.sol\":828:833  value */\n      dup3\n        /* \"R/Registry/UniversalRegistry.sol\":821:834  exists[value] */\n      dup2\n      mstore\n      0x20\n      add\n      swap1\n      dup2\n      mstore\n      0x20\n      add\n      0x00\n      keccak256\n      0x00\n      swap1\n      sload\n      swap1\n      0x0100\n      exp\n      swap1\n      div\n      0xff\n      and\n        /* \"R/Registry/UniversalRegistry.sol\":813:848  require(exists[value], \"Not found\") */\n      tag_52\n      jumpi\n      mload(0x40)\n      0x08c379a000000000000000000000000000000000000000000000000000000000\n      dup2\n      mstore\n      0x04\n      add\n      tag_53\n      swap1\n      tag_54\n      jump\t// in\n    tag_53:\n      mload(0x40)\n      dup1\n      swap2\n      sub\n      swap1\n      revert\n    tag_52:\n        /* \"R/Registry/UniversalRegistry.sol\":874:879  false */\n      0x00\n        /* \"R/Registry/UniversalRegistry.sol\":858:864  exists */\n      0x01\n        /* \"R/Registry/UniversalRegistry.sol\":858:871  exists[value] */\n      0x00\n        /* \"R/Registry/UniversalRegistry.sol\":865:870  value */\n      dup4\n        /* \"R/Registry/UniversalRegistry.sol\":858:871  exists[value] */\n      dup2\n      mstore\n      0x20\n      add\n      swap1\n      dup2\n      mstore\n      0x20\n      add\n      0x00\n      keccak256\n      0x00\n        /* \"R/Registry/UniversalRegistry.sol\":858:879  exists[value] = false */\n      0x0100\n      exp\n      dup2\n      sload\n      dup2\n      0xff\n      mul\n      not\n      and\n      swap1\n      dup4\n      iszero\n      iszero\n      mul\n      or\n      swap1\n      sstore\n      pop\n        /* \"R/Registry/UniversalRegistry.sol\":906:911  value */\n      dup1\n        /* \"R/Registry/UniversalRegistry.sol\":894:912  Deactivated(value) */\n      0xe0c972902b8c453716a2a401ad60d945b4086632729c2e7d8c45843e386da569\n      mload(0x40)\n      mload(0x40)\n      dup1\n      swap2\n      sub\n      swap1\n      log2\n        /* \"R/Registry/UniversalRegistry.sol\":759:919  function deactivate(bytes32 value) external {... */\n      pop\n      jump\t// out\n        /* \"R/Registry/UniversalRegistry.sol\":925:1012  function total() external view returns (uint256) {... */\n    tag_18:\n        /* \"R/Registry/UniversalRegistry.sol\":965:972  uint256 */\n      0x00\n        /* \"R/Registry/UniversalRegistry.sol\":991:998  entries */\n      dup1\n        /* \"R/Registry/UniversalRegistry.sol\":991:1005  entries.length */\n      dup1\n      sload\n      swap1\n      pop\n        /* \"R/Registry/UniversalRegistry.sol\":984:1005  return entries.length */\n      swap1\n      pop\n        /* \"R/Registry/UniversalRegistry.sol\":925:1012  function total() external view returns (uint256) {... */\n      swap1\n      jump\t// out\n        /* \"R/Registry/UniversalRegistry.sol\":312:350  mapping(bytes32 => bool) public exists */\n    tag_23:\n      mstore(0x20, 0x01)\n      dup1\n      0x00\n      mstore\n      keccak256(0x00, 0x40)\n      0x00\n      swap2\n      pop\n      sload\n      swap1\n      0x0100\n      exp\n      swap1\n      div\n      0xff\n      and\n      dup2\n      jump\t// out\n        /* \"R/Registry/UniversalRegistry.sol\":1018:1113  function get(uint256 i) external view returns (Entry memory) {... */\n    tag_29:\n        /* \"R/Registry/UniversalRegistry.sol\":1065:1077  Entry memory */\n      tag_56\n      tag_57\n      jump\t// in\n    tag_56:\n        /* \"R/Registry/UniversalRegistry.sol\":1096:1103  entries */\n      0x00\n        /* \"R/Registry/UniversalRegistry.sol\":1104:1105  i */\n      dup3\n        /* \"R/Registry/UniversalRegistry.sol\":1096:1106  entries[i] */\n      dup2\n      sload\n      dup2\n      lt\n      tag_59\n      jumpi\n      tag_60\n      tag_61\n      jump\t// in\n    tag_60:\n    tag_59:\n      swap1\n      0x00\n      mstore\n      keccak256(0x00, 0x20)\n      swap1\n      0x05\n      mul\n      add\n        /* \"R/Registry/UniversalRegistry.sol\":1089:1106  return entries[i] */\n      mload(0x40)\n      dup1\n      0xa0\n      add\n      0x40\n      mstore\n      swap1\n      dup2\n      0x00\n      dup3\n      add\n      0x00\n      swap1\n      sload\n      swap1\n      0x0100\n      exp\n      swap1\n      div\n      0xff\n      and\n      0x03\n      dup2\n      gt\n      iszero\n      tag_63\n      jumpi\n      tag_64\n      tag_43\n      jump\t// in\n    tag_64:\n    tag_63:\n      0x03\n      dup2\n      gt\n      iszero\n      tag_65\n      jumpi\n      tag_66\n      tag_43\n      jump\t// in\n    tag_66:\n    tag_65:\n      dup2\n      mstore\n      0x20\n      add\n      0x01\n      dup3\n      add\n      sload\n      dup2\n      mstore\n      0x20\n      add\n      0x02\n      dup3\n      add\n      dup1\n      sload\n      tag_67\n      swap1\n      tag_68\n      jump\t// in\n    tag_67:\n      dup1\n      0x1f\n      add\n      0x20\n      dup1\n      swap2\n      div\n      mul\n      0x20\n      add\n      mload(0x40)\n      swap1\n      dup2\n      add\n      0x40\n      mstore\n      dup1\n      swap3\n      swap2\n      swap1\n      dup2\n      dup2\n      mstore\n      0x20\n      add\n      dup3\n      dup1\n      sload\n      tag_69\n      swap1\n      tag_68\n      jump\t// in\n    tag_69:\n      dup1\n      iszero\n      tag_70\n      jumpi\n      dup1\n      0x1f\n      lt\n      tag_71\n      jumpi\n      0x0100\n      dup1\n      dup4\n      sload\n      div\n      mul\n      dup4\n      mstore\n      swap2\n      0x20\n      add\n      swap2\n      jump(tag_70)\n    tag_71:\n      dup3\n      add\n      swap2\n      swap1\n      0x00\n      mstore\n      keccak256(0x00, 0x20)\n      swap1\n    tag_72:\n      dup2\n      sload\n      dup2\n      mstore\n      swap1\n      0x01\n      add\n      swap1\n      0x20\n      add\n      dup1\n      dup4\n      gt\n      tag_72\n      jumpi\n      dup3\n      swap1\n      sub\n      0x1f\n      and\n      dup3\n      add\n      swap2\n    tag_70:\n      pop\n      pop\n      pop\n      pop\n      pop\n      dup2\n      mstore\n      0x20\n      add\n      0x03\n      dup3\n      add\n      sload\n      dup2\n      mstore\n      0x20\n      add\n      0x04\n      dup3\n      add\n      0x00\n      swap1\n      sload\n      swap1\n      0x0100\n      exp\n      swap1\n      div\n      0xff\n      and\n      iszero\n      iszero\n      iszero\n      iszero\n      dup2\n      mstore\n      pop\n      pop\n      swap1\n      pop\n        /* \"R/Registry/UniversalRegistry.sol\":1018:1113  function get(uint256 i) external view returns (Entry memory) {... */\n      swap2\n      swap1\n      pop\n      jump\t// out\n        /* \"R/Registry/UniversalRegistry.sol\":284:306  Entry[] public entries */\n    tag_34:\n      0x00\n      dup2\n      dup2\n      sload\n      dup2\n      lt\n      tag_73\n      jumpi\n      0x00\n      dup1\n      revert\n    tag_73:\n      swap1\n      0x00\n      mstore\n      keccak256(0x00, 0x20)\n      swap1\n      0x05\n      mul\n      add\n      0x00\n      swap2\n      pop\n      swap1\n      pop\n      dup1\n      0x00\n      add\n      0x00\n      swap1\n      sload\n      swap1\n      0x0100\n      exp\n      swap1\n      div\n      0xff\n      and\n      swap1\n      dup1\n      0x01\n      add\n      sload\n      swap1\n      dup1\n      0x02\n      add\n      dup1\n      sload\n      tag_75\n      swap1\n      tag_68\n      jump\t// in\n    tag_75:\n      dup1\n      0x1f\n      add\n      0x20\n      dup1\n      swap2\n      div\n      mul\n      0x20\n      add\n      mload(0x40)\n      swap1\n      dup2\n      add\n      0x40\n      mstore\n      dup1\n      swap3\n      swap2\n      swap1\n      dup2\n      dup2\n      mstore\n      0x20\n      add\n      dup3\n      dup1\n      sload\n      tag_76\n      swap1\n      tag_68\n      jump\t// in\n    tag_76:\n      dup1\n      iszero\n      tag_77\n      jumpi\n      dup1\n      0x1f\n      lt\n      tag_78\n      jumpi\n      0x0100\n      dup1\n      dup4\n      sload\n      div\n      mul\n      dup4\n      mstore\n      swap2\n      0x20\n      add\n      swap2\n      jump(tag_77)\n    tag_78:\n      dup3\n      add\n      swap2\n      swap1\n      0x00\n      mstore\n      keccak256(0x00, 0x20)\n      swap1\n    tag_79:\n      dup2\n      sload\n      dup2\n      mstore\n      swap1\n      0x01\n      add\n      swap1\n      0x20\n      add\n      dup1\n      dup4\n      gt\n      tag_79\n      jumpi\n      dup3\n      swap1\n      sub\n      0x1f\n      and\n      dup3\n      add\n      swap2\n    tag_77:\n      pop\n      pop\n      pop\n      pop\n      pop\n      swap1\n      dup1\n      0x03\n      add\n      sload\n      swap1\n      dup1\n      0x04\n      add\n      0x00\n      swap1\n      sload\n      swap1\n      0x0100\n      exp\n      swap1\n      div\n      0xff\n      and\n      swap1\n      pop\n      dup6\n      jump\t// out\n    tag_57:\n      mload(0x40)\n      dup1\n      0xa0\n      add\n      0x40\n      mstore\n      dup1\n      0x00\n      0x03\n      dup2\n      gt\n      iszero\n      tag_80\n      jumpi\n      tag_81\n      tag_43\n      jump\t// in\n    tag_81:\n    tag_80:\n      dup2\n      mstore\n      0x20\n      add\n      0x00\n      dup1\n      not\n      and\n      dup2\n      mstore\n      0x20\n      add\n      0x60\n      dup2\n      mstore\n      0x20\n      add\n      0x00\n      dup2\n      mstore\n      0x20\n      add\n      iszero(iszero(0x00))\n      dup2\n      mstore\n      pop\n      swap1\n      jump\t// out\n        /* \"#utility.yul\":88:205   */\n    tag_83:\n        /* \"#utility.yul\":197:198   */\n      0x00\n        /* \"#utility.yul\":194:195   */\n      dup1\n        /* \"#utility.yul\":187:199   */\n      revert\n        /* \"#utility.yul\":211:328   */\n    tag_84:\n        /* \"#utility.yul\":320:321   */\n      0x00\n        /* \"#utility.yul\":317:318   */\n      dup1\n        /* \"#utility.yul\":310:322   */\n      revert\n        /* \"#utility.yul\":334:444   */\n    tag_85:\n        /* \"#utility.yul\":418:419   */\n      0x04\n        /* \"#utility.yul\":411:416   */\n      dup2\n        /* \"#utility.yul\":408:420   */\n      lt\n        /* \"#utility.yul\":398:438   */\n      tag_145\n      jumpi\n        /* \"#utility.yul\":434:435   */\n      0x00\n        /* \"#utility.yul\":431:432   */\n      dup1\n        /* \"#utility.yul\":424:436   */\n      revert\n        /* \"#utility.yul\":398:438   */\n    tag_145:\n        /* \"#utility.yul\":334:444   */\n      pop\n      jump\t// out\n        /* \"#utility.yul\":450:611   */\n    tag_86:\n        /* \"#utility.yul\":507:512   */\n      0x00\n        /* \"#utility.yul\":545:551   */\n      dup2\n        /* \"#utility.yul\":532:552   */\n      calldataload\n        /* \"#utility.yul\":523:552   */\n      swap1\n      pop\n        /* \"#utility.yul\":561:605   */\n      tag_147\n        /* \"#utility.yul\":599:604   */\n      dup2\n        /* \"#utility.yul\":561:605   */\n      tag_85\n      jump\t// in\n    tag_147:\n        /* \"#utility.yul\":450:611   */\n      swap3\n      swap2\n      pop\n      pop\n      jump\t// out\n        /* \"#utility.yul\":617:694   */\n    tag_87:\n        /* \"#utility.yul\":654:661   */\n      0x00\n        /* \"#utility.yul\":683:688   */\n      dup2\n        /* \"#utility.yul\":672:688   */\n      swap1\n      pop\n        /* \"#utility.yul\":617:694   */\n      swap2\n      swap1\n      pop\n      jump\t// out\n        /* \"#utility.yul\":700:822   */\n    tag_88:\n        /* \"#utility.yul\":773:797   */\n      tag_150\n        /* \"#utility.yul\":791:796   */\n      dup2\n        /* \"#utility.yul\":773:797   */\n      tag_87\n      jump\t// in\n    tag_150:\n        /* \"#utility.yul\":766:771   */\n      dup2\n        /* \"#utility.yul\":763:798   */\n      eq\n        /* \"#utility.yul\":753:816   */\n      tag_151\n      jumpi\n        /* \"#utility.yul\":812:813   */\n      0x00\n        /* \"#utility.yul\":809:810   */\n      dup1\n        /* \"#utility.yul\":802:814   */\n      revert\n        /* \"#utility.yul\":753:816   */\n    tag_151:\n        /* \"#utility.yul\":700:822   */\n      pop\n      jump\t// out\n        /* \"#utility.yul\":828:967   */\n    tag_89:\n        /* \"#utility.yul\":874:879   */\n      0x00\n        /* \"#utility.yul\":912:918   */\n      dup2\n        /* \"#utility.yul\":899:919   */\n      calldataload\n        /* \"#utility.yul\":890:919   */\n      swap1\n      pop\n        /* \"#utility.yul\":928:961   */\n      tag_153\n        /* \"#utility.yul\":955:960   */\n      dup2\n        /* \"#utility.yul\":928:961   */\n      tag_88\n      jump\t// in\n    tag_153:\n        /* \"#utility.yul\":828:967   */\n      swap3\n      swap2\n      pop\n      pop\n      jump\t// out\n        /* \"#utility.yul\":973:1090   */\n    tag_90:\n        /* \"#utility.yul\":1082:1083   */\n      0x00\n        /* \"#utility.yul\":1079:1080   */\n      dup1\n        /* \"#utility.yul\":1072:1084   */\n      revert\n        /* \"#utility.yul\":1096:1213   */\n    tag_91:\n        /* \"#utility.yul\":1205:1206   */\n      0x00\n        /* \"#utility.yul\":1202:1203   */\n      dup1\n        /* \"#utility.yul\":1195:1207   */\n      revert\n        /* \"#utility.yul\":1219:1336   */\n    tag_92:\n        /* \"#utility.yul\":1328:1329   */\n      0x00\n        /* \"#utility.yul\":1325:1326   */\n      dup1\n        /* \"#utility.yul\":1318:1330   */\n      revert\n        /* \"#utility.yul\":1356:1909   */\n    tag_93:\n        /* \"#utility.yul\":1414:1422   */\n      0x00\n        /* \"#utility.yul\":1424:1430   */\n      dup1\n        /* \"#utility.yul\":1474:1477   */\n      dup4\n        /* \"#utility.yul\":1467:1471   */\n      0x1f\n        /* \"#utility.yul\":1459:1465   */\n      dup5\n        /* \"#utility.yul\":1455:1472   */\n      add\n        /* \"#utility.yul\":1451:1478   */\n      slt\n        /* \"#utility.yul\":1441:1563   */\n      tag_158\n      jumpi\n        /* \"#utility.yul\":1482:1561   */\n      tag_159\n      tag_90\n      jump\t// in\n    tag_159:\n        /* \"#utility.yul\":1441:1563   */\n    tag_158:\n        /* \"#utility.yul\":1595:1601   */\n      dup3\n        /* \"#utility.yul\":1582:1602   */\n      calldataload\n        /* \"#utility.yul\":1572:1602   */\n      swap1\n      pop\n        /* \"#utility.yul\":1625:1643   */\n      0xffffffffffffffff\n        /* \"#utility.yul\":1617:1623   */\n      dup2\n        /* \"#utility.yul\":1614:1644   */\n      gt\n        /* \"#utility.yul\":1611:1728   */\n      iszero\n      tag_160\n      jumpi\n        /* \"#utility.yul\":1647:1726   */\n      tag_161\n      tag_91\n      jump\t// in\n    tag_161:\n        /* \"#utility.yul\":1611:1728   */\n    tag_160:\n        /* \"#utility.yul\":1761:1765   */\n      0x20\n        /* \"#utility.yul\":1753:1759   */\n      dup4\n        /* \"#utility.yul\":1749:1766   */\n      add\n        /* \"#utility.yul\":1737:1766   */\n      swap2\n      pop\n        /* \"#utility.yul\":1815:1818   */\n      dup4\n        /* \"#utility.yul\":1807:1811   */\n      0x01\n        /* \"#utility.yul\":1799:1805   */\n      dup3\n        /* \"#utility.yul\":1795:1812   */\n      mul\n        /* \"#utility.yul\":1785:1793   */\n      dup4\n        /* \"#utility.yul\":1781:1813   */\n      add\n        /* \"#utility.yul\":1778:1819   */\n      gt\n        /* \"#utility.yul\":1775:1903   */\n      iszero\n      tag_162\n      jumpi\n        /* \"#utility.yul\":1822:1901   */\n      tag_163\n      tag_92\n      jump\t// in\n    tag_163:\n        /* \"#utility.yul\":1775:1903   */\n    tag_162:\n        /* \"#utility.yul\":1356:1909   */\n      swap3\n      pop\n      swap3\n      swap1\n      pop\n      jump\t// out\n        /* \"#utility.yul\":1915:2756   */\n    tag_11:\n        /* \"#utility.yul\":2015:2021   */\n      0x00\n        /* \"#utility.yul\":2023:2029   */\n      dup1\n        /* \"#utility.yul\":2031:2037   */\n      0x00\n        /* \"#utility.yul\":2039:2045   */\n      dup1\n        /* \"#utility.yul\":2088:2090   */\n      0x60\n        /* \"#utility.yul\":2076:2085   */\n      dup6\n        /* \"#utility.yul\":2067:2074   */\n      dup8\n        /* \"#utility.yul\":2063:2086   */\n      sub\n        /* \"#utility.yul\":2059:2091   */\n      slt\n        /* \"#utility.yul\":2056:2175   */\n      iszero\n      tag_165\n      jumpi\n        /* \"#utility.yul\":2094:2173   */\n      tag_166\n      tag_83\n      jump\t// in\n    tag_166:\n        /* \"#utility.yul\":2056:2175   */\n    tag_165:\n        /* \"#utility.yul\":2214:2215   */\n      0x00\n        /* \"#utility.yul\":2239:2303   */\n      tag_167\n        /* \"#utility.yul\":2295:2302   */\n      dup8\n        /* \"#utility.yul\":2286:2292   */\n      dup3\n        /* \"#utility.yul\":2275:2284   */\n      dup9\n        /* \"#utility.yul\":2271:2293   */\n      add\n        /* \"#utility.yul\":2239:2303   */\n      tag_86\n      jump\t// in\n    tag_167:\n        /* \"#utility.yul\":2229:2303   */\n      swap5\n      pop\n        /* \"#utility.yul\":2185:2313   */\n      pop\n        /* \"#utility.yul\":2352:2354   */\n      0x20\n        /* \"#utility.yul\":2378:2431   */\n      tag_168\n        /* \"#utility.yul\":2423:2430   */\n      dup8\n        /* \"#utility.yul\":2414:2420   */\n      dup3\n        /* \"#utility.yul\":2403:2412   */\n      dup9\n        /* \"#utility.yul\":2399:2421   */\n      add\n        /* \"#utility.yul\":2378:2431   */\n      tag_89\n      jump\t// in\n    tag_168:\n        /* \"#utility.yul\":2368:2431   */\n      swap4\n      pop\n        /* \"#utility.yul\":2323:2441   */\n      pop\n        /* \"#utility.yul\":2508:2510   */\n      0x40\n        /* \"#utility.yul\":2497:2506   */\n      dup6\n        /* \"#utility.yul\":2493:2511   */\n      add\n        /* \"#utility.yul\":2480:2512   */\n      calldataload\n        /* \"#utility.yul\":2539:2557   */\n      0xffffffffffffffff\n        /* \"#utility.yul\":2531:2537   */\n      dup2\n        /* \"#utility.yul\":2528:2558   */\n      gt\n        /* \"#utility.yul\":2525:2642   */\n      iszero\n      tag_169\n      jumpi\n        /* \"#utility.yul\":2561:2640   */\n      tag_170\n      tag_84\n      jump\t// in\n    tag_170:\n        /* \"#utility.yul\":2525:2642   */\n    tag_169:\n        /* \"#utility.yul\":2674:2739   */\n      tag_171\n        /* \"#utility.yul\":2731:2738   */\n      dup8\n        /* \"#utility.yul\":2722:2728   */\n      dup3\n        /* \"#utility.yul\":2711:2720   */\n      dup9\n        /* \"#utility.yul\":2707:2729   */\n      add\n        /* \"#utility.yul\":2674:2739   */\n      tag_93\n      jump\t// in\n    tag_171:\n        /* \"#utility.yul\":2656:2739   */\n      swap3\n      pop\n      swap3\n      pop\n        /* \"#utility.yul\":2451:2749   */\n      pop\n        /* \"#utility.yul\":1915:2756   */\n      swap3\n      swap6\n      swap2\n      swap5\n      pop\n      swap3\n      pop\n      jump\t// out\n        /* \"#utility.yul\":2762:3091   */\n    tag_15:\n        /* \"#utility.yul\":2821:2827   */\n      0x00\n        /* \"#utility.yul\":2870:2872   */\n      0x20\n        /* \"#utility.yul\":2858:2867   */\n      dup3\n        /* \"#utility.yul\":2849:2856   */\n      dup5\n        /* \"#utility.yul\":2845:2868   */\n      sub\n        /* \"#utility.yul\":2841:2873   */\n      slt\n        /* \"#utility.yul\":2838:2957   */\n      iszero\n      tag_173\n      jumpi\n        /* \"#utility.yul\":2876:2955   */\n      tag_174\n      tag_83\n      jump\t// in\n    tag_174:\n        /* \"#utility.yul\":2838:2957   */\n    tag_173:\n        /* \"#utility.yul\":2996:2997   */\n      0x00\n        /* \"#utility.yul\":3021:3074   */\n      tag_175\n        /* \"#utility.yul\":3066:3073   */\n      dup5\n        /* \"#utility.yul\":3057:3063   */\n      dup3\n        /* \"#utility.yul\":3046:3055   */\n      dup6\n        /* \"#utility.yul\":3042:3064   */\n      add\n        /* \"#utility.yul\":3021:3074   */\n      tag_89\n      jump\t// in\n    tag_175:\n        /* \"#utility.yul\":3011:3074   */\n      swap2\n      pop\n        /* \"#utility.yul\":2967:3084   */\n      pop\n        /* \"#utility.yul\":2762:3091   */\n      swap3\n      swap2\n      pop\n      pop\n      jump\t// out\n        /* \"#utility.yul\":3097:3174   */\n    tag_94:\n        /* \"#utility.yul\":3134:3141   */\n      0x00\n        /* \"#utility.yul\":3163:3168   */\n      dup2\n        /* \"#utility.yul\":3152:3168   */\n      swap1\n      pop\n        /* \"#utility.yul\":3097:3174   */\n      swap2\n      swap1\n      pop\n      jump\t// out\n        /* \"#utility.yul\":3180:3298   */\n    tag_95:\n        /* \"#utility.yul\":3267:3291   */\n      tag_178\n        /* \"#utility.yul\":3285:3290   */\n      dup2\n        /* \"#utility.yul\":3267:3291   */\n      tag_94\n      jump\t// in\n    tag_178:\n        /* \"#utility.yul\":3262:3265   */\n      dup3\n        /* \"#utility.yul\":3255:3292   */\n      mstore\n        /* \"#utility.yul\":3180:3298   */\n      pop\n      pop\n      jump\t// out\n        /* \"#utility.yul\":3304:3526   */\n    tag_20:\n        /* \"#utility.yul\":3397:3401   */\n      0x00\n        /* \"#utility.yul\":3435:3437   */\n      0x20\n        /* \"#utility.yul\":3424:3433   */\n      dup3\n        /* \"#utility.yul\":3420:3438   */\n      add\n        /* \"#utility.yul\":3412:3438   */\n      swap1\n      pop\n        /* \"#utility.yul\":3448:3519   */\n      tag_180\n        /* \"#utility.yul\":3516:3517   */\n      0x00\n        /* \"#utility.yul\":3505:3514   */\n      dup4\n        /* \"#utility.yul\":3501:3518   */\n      add\n        /* \"#utility.yul\":3492:3498   */\n      dup5\n        /* \"#utility.yul\":3448:3519   */\n      tag_95\n      jump\t// in\n    tag_180:\n        /* \"#utility.yul\":3304:3526   */\n      swap3\n      swap2\n      pop\n      pop\n      jump\t// out\n        /* \"#utility.yul\":3532:3622   */\n    tag_96:\n        /* \"#utility.yul\":3566:3573   */\n      0x00\n        /* \"#utility.yul\":3609:3614   */\n      dup2\n        /* \"#utility.yul\":3602:3615   */\n      iszero\n        /* \"#utility.yul\":3595:3616   */\n      iszero\n        /* \"#utility.yul\":3584:3616   */\n      swap1\n      pop\n        /* \"#utility.yul\":3532:3622   */\n      swap2\n      swap1\n      pop\n      jump\t// out\n        /* \"#utility.yul\":3628:3737   */\n    tag_97:\n        /* \"#utility.yul\":3709:3730   */\n      tag_183\n        /* \"#utility.yul\":3724:3729   */\n      dup2\n        /* \"#utility.yul\":3709:3730   */\n      tag_96\n      jump\t// in\n    tag_183:\n        /* \"#utility.yul\":3704:3707   */\n      dup3\n        /* \"#utility.yul\":3697:3731   */\n      mstore\n        /* \"#utility.yul\":3628:3737   */\n      pop\n      pop\n      jump\t// out\n        /* \"#utility.yul\":3743:3953   */\n    tag_25:\n        /* \"#utility.yul\":3830:3834   */\n      0x00\n        /* \"#utility.yul\":3868:3870   */\n      0x20\n        /* \"#utility.yul\":3857:3866   */\n      dup3\n        /* \"#utility.yul\":3853:3871   */\n      add\n        /* \"#utility.yul\":3845:3871   */\n      swap1\n      pop\n        /* \"#utility.yul\":3881:3946   */\n      tag_185\n        /* \"#utility.yul\":3943:3944   */\n      0x00\n        /* \"#utility.yul\":3932:3941   */\n      dup4\n        /* \"#utility.yul\":3928:3945   */\n      add\n        /* \"#utility.yul\":3919:3925   */\n      dup5\n        /* \"#utility.yul\":3881:3946   */\n      tag_97\n      jump\t// in\n    tag_185:\n        /* \"#utility.yul\":3743:3953   */\n      swap3\n      swap2\n      pop\n      pop\n      jump\t// out\n        /* \"#utility.yul\":3959:4081   */\n    tag_98:\n        /* \"#utility.yul\":4032:4056   */\n      tag_187\n        /* \"#utility.yul\":4050:4055   */\n      dup2\n        /* \"#utility.yul\":4032:4056   */\n      tag_94\n      jump\t// in\n    tag_187:\n        /* \"#utility.yul\":4025:4030   */\n      dup2\n        /* \"#utility.yul\":4022:4057   */\n      eq\n        /* \"#utility.yul\":4012:4075   */\n      tag_188\n      jumpi\n        /* \"#utility.yul\":4071:4072   */\n      0x00\n        /* \"#utility.yul\":4068:4069   */\n      dup1\n        /* \"#utility.yul\":4061:4073   */\n      revert\n        /* \"#utility.yul\":4012:4075   */\n    tag_188:\n        /* \"#utility.yul\":3959:4081   */\n      pop\n      jump\t// out\n        /* \"#utility.yul\":4087:4226   */\n    tag_99:\n        /* \"#utility.yul\":4133:4138   */\n      0x00\n        /* \"#utility.yul\":4171:4177   */\n      dup2\n        /* \"#utility.yul\":4158:4178   */\n      calldataload\n        /* \"#utility.yul\":4149:4178   */\n      swap1\n      pop\n        /* \"#utility.yul\":4187:4220   */\n      tag_190\n        /* \"#utility.yul\":4214:4219   */\n      dup2\n        /* \"#utility.yul\":4187:4220   */\n      tag_98\n      jump\t// in\n    tag_190:\n        /* \"#utility.yul\":4087:4226   */\n      swap3\n      swap2\n      pop\n      pop\n      jump\t// out\n        /* \"#utility.yul\":4232:4561   */\n    tag_28:\n        /* \"#utility.yul\":4291:4297   */\n      0x00\n        /* \"#utility.yul\":4340:4342   */\n      0x20\n        /* \"#utility.yul\":4328:4337   */\n      dup3\n        /* \"#utility.yul\":4319:4326   */\n      dup5\n        /* \"#utility.yul\":4315:4338   */\n      sub\n        /* \"#utility.yul\":4311:4343   */\n      slt\n        /* \"#utility.yul\":4308:4427   */\n      iszero\n      tag_192\n      jumpi\n        /* \"#utility.yul\":4346:4425   */\n      tag_193\n      tag_83\n      jump\t// in\n    tag_193:\n        /* \"#utility.yul\":4308:4427   */\n    tag_192:\n        /* \"#utility.yul\":4466:4467   */\n      0x00\n        /* \"#utility.yul\":4491:4544   */\n      tag_194\n        /* \"#utility.yul\":4536:4543   */\n      dup5\n        /* \"#utility.yul\":4527:4533   */\n      dup3\n        /* \"#utility.yul\":4516:4525   */\n      dup6\n        /* \"#utility.yul\":4512:4534   */\n      add\n        /* \"#utility.yul\":4491:4544   */\n      tag_99\n      jump\t// in\n    tag_194:\n        /* \"#utility.yul\":4481:4544   */\n      swap2\n      pop\n        /* \"#utility.yul\":4437:4554   */\n      pop\n        /* \"#utility.yul\":4232:4561   */\n      swap3\n      swap2\n      pop\n      pop\n      jump\t// out\n        /* \"#utility.yul\":4567:4747   */\n    tag_43:\n        /* \"#utility.yul\":4615:4692   */\n      0x4e487b7100000000000000000000000000000000000000000000000000000000\n        /* \"#utility.yul\":4612:4613   */\n      0x00\n        /* \"#utility.yul\":4605:4693   */\n      mstore\n        /* \"#utility.yul\":4712:4716   */\n      0x21\n        /* \"#utility.yul\":4709:4710   */\n      0x04\n        /* \"#utility.yul\":4702:4717   */\n      mstore\n        /* \"#utility.yul\":4736:4740   */\n      0x24\n        /* \"#utility.yul\":4733:4734   */\n      0x00\n        /* \"#utility.yul\":4726:4741   */\n      revert\n        /* \"#utility.yul\":4753:4869   */\n    tag_100:\n        /* \"#utility.yul\":4837:4838   */\n      0x04\n        /* \"#utility.yul\":4830:4835   */\n      dup2\n        /* \"#utility.yul\":4827:4839   */\n      lt\n        /* \"#utility.yul\":4817:4863   */\n      tag_197\n      jumpi\n        /* \"#utility.yul\":4843:4861   */\n      tag_198\n      tag_43\n      jump\t// in\n    tag_198:\n        /* \"#utility.yul\":4817:4863   */\n    tag_197:\n        /* \"#utility.yul\":4753:4869   */\n      pop\n      jump\t// out\n        /* \"#utility.yul\":4875:5008   */\n    tag_101:\n        /* \"#utility.yul\":4923:4930   */\n      0x00\n        /* \"#utility.yul\":4952:4957   */\n      dup2\n        /* \"#utility.yul\":4941:4957   */\n      swap1\n      pop\n        /* \"#utility.yul\":4958:5002   */\n      tag_200\n        /* \"#utility.yul\":4996:5001   */\n      dup3\n        /* \"#utility.yul\":4958:5002   */\n      tag_100\n      jump\t// in\n    tag_200:\n        /* \"#utility.yul\":4875:5008   */\n      swap2\n      swap1\n      pop\n      jump\t// out\n        /* \"#utility.yul\":5014:5147   */\n    tag_102:\n        /* \"#utility.yul\":5073:5082   */\n      0x00\n        /* \"#utility.yul\":5106:5141   */\n      tag_202\n        /* \"#utility.yul\":5135:5140   */\n      dup3\n        /* \"#utility.yul\":5106:5141   */\n      tag_101\n      jump\t// in\n    tag_202:\n        /* \"#utility.yul\":5093:5141   */\n      swap1\n      pop\n        /* \"#utility.yul\":5014:5147   */\n      swap2\n      swap1\n      pop\n      jump\t// out\n        /* \"#utility.yul\":5153:5292   */\n    tag_103:\n        /* \"#utility.yul\":5239:5285   */\n      tag_204\n        /* \"#utility.yul\":5279:5284   */\n      dup2\n        /* \"#utility.yul\":5239:5285   */\n      tag_102\n      jump\t// in\n    tag_204:\n        /* \"#utility.yul\":5234:5237   */\n      dup3\n        /* \"#utility.yul\":5227:5286   */\n      mstore\n        /* \"#utility.yul\":5153:5292   */\n      pop\n      pop\n      jump\t// out\n        /* \"#utility.yul\":5298:5406   */\n    tag_104:\n        /* \"#utility.yul\":5375:5399   */\n      tag_206\n        /* \"#utility.yul\":5393:5398   */\n      dup2\n        /* \"#utility.yul\":5375:5399   */\n      tag_87\n      jump\t// in\n    tag_206:\n        /* \"#utility.yul\":5370:5373   */\n      dup3\n        /* \"#utility.yul\":5363:5400   */\n      mstore\n        /* \"#utility.yul\":5298:5406   */\n      pop\n      pop\n      jump\t// out\n        /* \"#utility.yul\":5412:5511   */\n    tag_105:\n        /* \"#utility.yul\":5464:5470   */\n      0x00\n        /* \"#utility.yul\":5498:5503   */\n      dup2\n        /* \"#utility.yul\":5492:5504   */\n      mload\n        /* \"#utility.yul\":5482:5504   */\n      swap1\n      pop\n        /* \"#utility.yul\":5412:5511   */\n      swap2\n      swap1\n      pop\n      jump\t// out\n        /* \"#utility.yul\":5517:5676   */\n    tag_106:\n        /* \"#utility.yul\":5591:5602   */\n      0x00\n        /* \"#utility.yul\":5625:5631   */\n      dup3\n        /* \"#utility.yul\":5620:5623   */\n      dup3\n        /* \"#utility.yul\":5613:5632   */\n      mstore\n        /* \"#utility.yul\":5665:5669   */\n      0x20\n        /* \"#utility.yul\":5660:5663   */\n      dup3\n        /* \"#utility.yul\":5656:5670   */\n      add\n        /* \"#utility.yul\":5641:5670   */\n      swap1\n      pop\n        /* \"#utility.yul\":5517:5676   */\n      swap3\n      swap2\n      pop\n      pop\n      jump\t// out\n        /* \"#utility.yul\":5682:5821   */\n    tag_107:\n        /* \"#utility.yul\":5771:5777   */\n      dup3\n        /* \"#utility.yul\":5766:5769   */\n      dup2\n        /* \"#utility.yul\":5761:5764   */\n      dup4\n        /* \"#utility.yul\":5755:5778   */\n      mcopy\n        /* \"#utility.yul\":5812:5813   */\n      0x00\n        /* \"#utility.yul\":5803:5809   */\n      dup4\n        /* \"#utility.yul\":5798:5801   */\n      dup4\n        /* \"#utility.yul\":5794:5810   */\n      add\n        /* \"#utility.yul\":5787:5814   */\n      mstore\n        /* \"#utility.yul\":5682:5821   */\n      pop\n      pop\n      pop\n      jump\t// out\n        /* \"#utility.yul\":5827:5929   */\n    tag_108:\n        /* \"#utility.yul\":5868:5874   */\n      0x00\n        /* \"#utility.yul\":5919:5921   */\n      0x1f\n        /* \"#utility.yul\":5915:5922   */\n      not\n        /* \"#utility.yul\":5910:5912   */\n      0x1f\n        /* \"#utility.yul\":5903:5908   */\n      dup4\n        /* \"#utility.yul\":5899:5913   */\n      add\n        /* \"#utility.yul\":5895:5923   */\n      and\n        /* \"#utility.yul\":5885:5923   */\n      swap1\n      pop\n        /* \"#utility.yul\":5827:5929   */\n      swap2\n      swap1\n      pop\n      jump\t// out\n        /* \"#utility.yul\":5935:6292   */\n    tag_109:\n        /* \"#utility.yul\":6013:6016   */\n      0x00\n        /* \"#utility.yul\":6041:6080   */\n      tag_212\n        /* \"#utility.yul\":6074:6079   */\n      dup3\n        /* \"#utility.yul\":6041:6080   */\n      tag_105\n      jump\t// in\n    tag_212:\n        /* \"#utility.yul\":6096:6157   */\n      tag_213\n        /* \"#utility.yul\":6150:6156   */\n      dup2\n        /* \"#utility.yul\":6145:6148   */\n      dup6\n        /* \"#utility.yul\":6096:6157   */\n      tag_106\n      jump\t// in\n    tag_213:\n        /* \"#utility.yul\":6089:6157   */\n      swap4\n      pop\n        /* \"#utility.yul\":6166:6231   */\n      tag_214\n        /* \"#utility.yul\":6224:6230   */\n      dup2\n        /* \"#utility.yul\":6219:6222   */\n      dup6\n        /* \"#utility.yul\":6212:6216   */\n      0x20\n        /* \"#utility.yul\":6205:6210   */\n      dup7\n        /* \"#utility.yul\":6201:6217   */\n      add\n        /* \"#utility.yul\":6166:6231   */\n      tag_107\n      jump\t// in\n    tag_214:\n        /* \"#utility.yul\":6256:6285   */\n      tag_215\n        /* \"#utility.yul\":6278:6284   */\n      dup2\n        /* \"#utility.yul\":6256:6285   */\n      tag_108\n      jump\t// in\n    tag_215:\n        /* \"#utility.yul\":6251:6254   */\n      dup5\n        /* \"#utility.yul\":6247:6286   */\n      add\n        /* \"#utility.yul\":6240:6286   */\n      swap2\n      pop\n        /* \"#utility.yul\":6017:6292   */\n      pop\n        /* \"#utility.yul\":5935:6292   */\n      swap3\n      swap2\n      pop\n      pop\n      jump\t// out\n        /* \"#utility.yul\":6298:6406   */\n    tag_110:\n        /* \"#utility.yul\":6375:6399   */\n      tag_217\n        /* \"#utility.yul\":6393:6398   */\n      dup2\n        /* \"#utility.yul\":6375:6399   */\n      tag_94\n      jump\t// in\n    tag_217:\n        /* \"#utility.yul\":6370:6373   */\n      dup3\n        /* \"#utility.yul\":6363:6400   */\n      mstore\n        /* \"#utility.yul\":6298:6406   */\n      pop\n      pop\n      jump\t// out\n        /* \"#utility.yul\":6412:6511   */\n    tag_111:\n        /* \"#utility.yul\":6483:6504   */\n      tag_219\n        /* \"#utility.yul\":6498:6503   */\n      dup2\n        /* \"#utility.yul\":6483:6504   */\n      tag_96\n      jump\t// in\n    tag_219:\n        /* \"#utility.yul\":6478:6481   */\n      dup3\n        /* \"#utility.yul\":6471:6505   */\n      mstore\n        /* \"#utility.yul\":6412:6511   */\n      pop\n      pop\n      jump\t// out\n        /* \"#utility.yul\":6589:7717   */\n    tag_112:\n        /* \"#utility.yul\":6700:6703   */\n      0x00\n        /* \"#utility.yul\":6736:6740   */\n      0xa0\n        /* \"#utility.yul\":6731:6734   */\n      dup4\n        /* \"#utility.yul\":6727:6741   */\n      add\n        /* \"#utility.yul\":6823:6827   */\n      0x00\n        /* \"#utility.yul\":6816:6821   */\n      dup4\n        /* \"#utility.yul\":6812:6828   */\n      add\n        /* \"#utility.yul\":6806:6829   */\n      mload\n        /* \"#utility.yul\":6842:6914   */\n      tag_221\n        /* \"#utility.yul\":6908:6912   */\n      0x00\n        /* \"#utility.yul\":6903:6906   */\n      dup7\n        /* \"#utility.yul\":6899:6913   */\n      add\n        /* \"#utility.yul\":6885:6897   */\n      dup3\n        /* \"#utility.yul\":6842:6914   */\n      tag_103\n      jump\t// in\n    tag_221:\n        /* \"#utility.yul\":6751:6924   */\n      pop\n        /* \"#utility.yul\":7007:7011   */\n      0x20\n        /* \"#utility.yul\":7000:7005   */\n      dup4\n        /* \"#utility.yul\":6996:7012   */\n      add\n        /* \"#utility.yul\":6990:7013   */\n      mload\n        /* \"#utility.yul\":7026:7089   */\n      tag_222\n        /* \"#utility.yul\":7083:7087   */\n      0x20\n        /* \"#utility.yul\":7078:7081   */\n      dup7\n        /* \"#utility.yul\":7074:7088   */\n      add\n        /* \"#utility.yul\":7060:7072   */\n      dup3\n        /* \"#utility.yul\":7026:7089   */\n      tag_104\n      jump\t// in\n    tag_222:\n        /* \"#utility.yul\":6934:7099   */\n      pop\n        /* \"#utility.yul\":7180:7184   */\n      0x40\n        /* \"#utility.yul\":7173:7178   */\n      dup4\n        /* \"#utility.yul\":7169:7185   */\n      add\n        /* \"#utility.yul\":7163:7186   */\n      mload\n        /* \"#utility.yul\":7233:7236   */\n      dup5\n        /* \"#utility.yul\":7227:7231   */\n      dup3\n        /* \"#utility.yul\":7223:7237   */\n      sub\n        /* \"#utility.yul\":7216:7220   */\n      0x40\n        /* \"#utility.yul\":7211:7214   */\n      dup7\n        /* \"#utility.yul\":7207:7221   */\n      add\n        /* \"#utility.yul\":7200:7238   */\n      mstore\n        /* \"#utility.yul\":7259:7332   */\n      tag_223\n        /* \"#utility.yul\":7327:7331   */\n      dup3\n        /* \"#utility.yul\":7313:7325   */\n      dup3\n        /* \"#utility.yul\":7259:7332   */\n      tag_109\n      jump\t// in\n    tag_223:\n        /* \"#utility.yul\":7251:7332   */\n      swap2\n      pop\n        /* \"#utility.yul\":7109:7343   */\n      pop\n        /* \"#utility.yul\":7428:7432   */\n      0x60\n        /* \"#utility.yul\":7421:7426   */\n      dup4\n        /* \"#utility.yul\":7417:7433   */\n      add\n        /* \"#utility.yul\":7411:7434   */\n      mload\n        /* \"#utility.yul\":7447:7510   */\n      tag_224\n        /* \"#utility.yul\":7504:7508   */\n      0x60\n        /* \"#utility.yul\":7499:7502   */\n      dup7\n        /* \"#utility.yul\":7495:7509   */\n      add\n        /* \"#utility.yul\":7481:7493   */\n      dup3\n        /* \"#utility.yul\":7447:7510   */\n      tag_110\n      jump\t// in\n    tag_224:\n        /* \"#utility.yul\":7353:7520   */\n      pop\n        /* \"#utility.yul\":7604:7608   */\n      0x80\n        /* \"#utility.yul\":7597:7602   */\n      dup4\n        /* \"#utility.yul\":7593:7609   */\n      add\n        /* \"#utility.yul\":7587:7610   */\n      mload\n        /* \"#utility.yul\":7623:7680   */\n      tag_225\n        /* \"#utility.yul\":7674:7678   */\n      0x80\n        /* \"#utility.yul\":7669:7672   */\n      dup7\n        /* \"#utility.yul\":7665:7679   */\n      add\n        /* \"#utility.yul\":7651:7663   */\n      dup3\n        /* \"#utility.yul\":7623:7680   */\n      tag_111\n      jump\t// in\n    tag_225:\n        /* \"#utility.yul\":7530:7690   */\n      pop\n        /* \"#utility.yul\":7707:7711   */\n      dup1\n        /* \"#utility.yul\":7700:7711   */\n      swap2\n      pop\n        /* \"#utility.yul\":6705:7717   */\n      pop\n        /* \"#utility.yul\":6589:7717   */\n      swap3\n      swap2\n      pop\n      pop\n      jump\t// out\n        /* \"#utility.yul\":7723:8080   */\n    tag_31:\n        /* \"#utility.yul\":7858:7862   */\n      0x00\n        /* \"#utility.yul\":7896:7898   */\n      0x20\n        /* \"#utility.yul\":7885:7894   */\n      dup3\n        /* \"#utility.yul\":7881:7899   */\n      add\n        /* \"#utility.yul\":7873:7899   */\n      swap1\n      pop\n        /* \"#utility.yul\":7945:7954   */\n      dup2\n        /* \"#utility.yul\":7939:7943   */\n      dup2\n        /* \"#utility.yul\":7935:7955   */\n      sub\n        /* \"#utility.yul\":7931:7932   */\n      0x00\n        /* \"#utility.yul\":7920:7929   */\n      dup4\n        /* \"#utility.yul\":7916:7933   */\n      add\n        /* \"#utility.yul\":7909:7956   */\n      mstore\n        /* \"#utility.yul\":7973:8073   */\n      tag_227\n        /* \"#utility.yul\":8068:8072   */\n      dup2\n        /* \"#utility.yul\":8059:8065   */\n      dup5\n        /* \"#utility.yul\":7973:8073   */\n      tag_112\n      jump\t// in\n    tag_227:\n        /* \"#utility.yul\":7965:8073   */\n      swap1\n      pop\n        /* \"#utility.yul\":7723:8080   */\n      swap3\n      swap2\n      pop\n      pop\n      jump\t// out\n        /* \"#utility.yul\":8086:8235   */\n    tag_113:\n        /* \"#utility.yul\":8182:8228   */\n      tag_229\n        /* \"#utility.yul\":8222:8227   */\n      dup2\n        /* \"#utility.yul\":8182:8228   */\n      tag_102\n      jump\t// in\n    tag_229:\n        /* \"#utility.yul\":8177:8180   */\n      dup3\n        /* \"#utility.yul\":8170:8229   */\n      mstore\n        /* \"#utility.yul\":8086:8235   */\n      pop\n      pop\n      jump\t// out\n        /* \"#utility.yul\":8241:8359   */\n    tag_114:\n        /* \"#utility.yul\":8328:8352   */\n      tag_231\n        /* \"#utility.yul\":8346:8351   */\n      dup2\n        /* \"#utility.yul\":8328:8352   */\n      tag_87\n      jump\t// in\n    tag_231:\n        /* \"#utility.yul\":8323:8326   */\n      dup3\n        /* \"#utility.yul\":8316:8353   */\n      mstore\n        /* \"#utility.yul\":8241:8359   */\n      pop\n      pop\n      jump\t// out\n        /* \"#utility.yul\":8365:8534   */\n    tag_115:\n        /* \"#utility.yul\":8449:8460   */\n      0x00\n        /* \"#utility.yul\":8483:8489   */\n      dup3\n        /* \"#utility.yul\":8478:8481   */\n      dup3\n        /* \"#utility.yul\":8471:8490   */\n      mstore\n        /* \"#utility.yul\":8523:8527   */\n      0x20\n        /* \"#utility.yul\":8518:8521   */\n      dup3\n        /* \"#utility.yul\":8514:8528   */\n      add\n        /* \"#utility.yul\":8499:8528   */\n      swap1\n      pop\n        /* \"#utility.yul\":8365:8534   */\n      swap3\n      swap2\n      pop\n      pop\n      jump\t// out\n        /* \"#utility.yul\":8540:8917   */\n    tag_116:\n        /* \"#utility.yul\":8628:8631   */\n      0x00\n        /* \"#utility.yul\":8656:8695   */\n      tag_234\n        /* \"#utility.yul\":8689:8694   */\n      dup3\n        /* \"#utility.yul\":8656:8695   */\n      tag_105\n      jump\t// in\n    tag_234:\n        /* \"#utility.yul\":8711:8782   */\n      tag_235\n        /* \"#utility.yul\":8775:8781   */\n      dup2\n        /* \"#utility.yul\":8770:8773   */\n      dup6\n        /* \"#utility.yul\":8711:8782   */\n      tag_115\n      jump\t// in\n    tag_235:\n        /* \"#utility.yul\":8704:8782   */\n      swap4\n      pop\n        /* \"#utility.yul\":8791:8856   */\n      tag_236\n        /* \"#utility.yul\":8849:8855   */\n      dup2\n        /* \"#utility.yul\":8844:8847   */\n      dup6\n        /* \"#utility.yul\":8837:8841   */\n      0x20\n        /* \"#utility.yul\":8830:8835   */\n      dup7\n        /* \"#utility.yul\":8826:8842   */\n      add\n        /* \"#utility.yul\":8791:8856   */\n      tag_107\n      jump\t// in\n    tag_236:\n        /* \"#utility.yul\":8881:8910   */\n      tag_237\n        /* \"#utility.yul\":8903:8909   */\n      dup2\n        /* \"#utility.yul\":8881:8910   */\n      tag_108\n      jump\t// in\n    tag_237:\n        /* \"#utility.yul\":8876:8879   */\n      dup5\n        /* \"#utility.yul\":8872:8911   */\n      add\n        /* \"#utility.yul\":8865:8911   */\n      swap2\n      pop\n        /* \"#utility.yul\":8632:8917   */\n      pop\n        /* \"#utility.yul\":8540:8917   */\n      swap3\n      swap2\n      pop\n      pop\n      jump\t// out\n        /* \"#utility.yul\":8923:9684   */\n    tag_36:\n        /* \"#utility.yul\":9151:9155   */\n      0x00\n        /* \"#utility.yul\":9189:9192   */\n      0xa0\n        /* \"#utility.yul\":9178:9187   */\n      dup3\n        /* \"#utility.yul\":9174:9193   */\n      add\n        /* \"#utility.yul\":9166:9193   */\n      swap1\n      pop\n        /* \"#utility.yul\":9203:9283   */\n      tag_239\n        /* \"#utility.yul\":9280:9281   */\n      0x00\n        /* \"#utility.yul\":9269:9278   */\n      dup4\n        /* \"#utility.yul\":9265:9282   */\n      add\n        /* \"#utility.yul\":9256:9262   */\n      dup9\n        /* \"#utility.yul\":9203:9283   */\n      tag_113\n      jump\t// in\n    tag_239:\n        /* \"#utility.yul\":9293:9365   */\n      tag_240\n        /* \"#utility.yul\":9361:9363   */\n      0x20\n        /* \"#utility.yul\":9350:9359   */\n      dup4\n        /* \"#utility.yul\":9346:9364   */\n      add\n        /* \"#utility.yul\":9337:9343   */\n      dup8\n        /* \"#utility.yul\":9293:9365   */\n      tag_114\n      jump\t// in\n    tag_240:\n        /* \"#utility.yul\":9412:9421   */\n      dup2\n        /* \"#utility.yul\":9406:9410   */\n      dup2\n        /* \"#utility.yul\":9402:9422   */\n      sub\n        /* \"#utility.yul\":9397:9399   */\n      0x40\n        /* \"#utility.yul\":9386:9395   */\n      dup4\n        /* \"#utility.yul\":9382:9400   */\n      add\n        /* \"#utility.yul\":9375:9423   */\n      mstore\n        /* \"#utility.yul\":9440:9518   */\n      tag_241\n        /* \"#utility.yul\":9513:9517   */\n      dup2\n        /* \"#utility.yul\":9504:9510   */\n      dup7\n        /* \"#utility.yul\":9440:9518   */\n      tag_116\n      jump\t// in\n    tag_241:\n        /* \"#utility.yul\":9432:9518   */\n      swap1\n      pop\n        /* \"#utility.yul\":9528:9600   */\n      tag_242\n        /* \"#utility.yul\":9596:9598   */\n      0x60\n        /* \"#utility.yul\":9585:9594   */\n      dup4\n        /* \"#utility.yul\":9581:9599   */\n      add\n        /* \"#utility.yul\":9572:9578   */\n      dup6\n        /* \"#utility.yul\":9528:9600   */\n      tag_95\n      jump\t// in\n    tag_242:\n        /* \"#utility.yul\":9610:9677   */\n      tag_243\n        /* \"#utility.yul\":9672:9675   */\n      0x80\n        /* \"#utility.yul\":9661:9670   */\n      dup4\n        /* \"#utility.yul\":9657:9676   */\n      add\n        /* \"#utility.yul\":9648:9654   */\n      dup5\n        /* \"#utility.yul\":9610:9677   */\n      tag_97\n      jump\t// in\n    tag_243:\n        /* \"#utility.yul\":8923:9684   */\n      swap7\n      swap6\n      pop\n      pop\n      pop\n      pop\n      pop\n      pop\n      jump\t// out\n        /* \"#utility.yul\":9690:9854   */\n    tag_117:\n        /* \"#utility.yul\":9830:9846   */\n      0x416c726561647920657869737473000000000000000000000000000000000000\n        /* \"#utility.yul\":9826:9827   */\n      0x00\n        /* \"#utility.yul\":9818:9824   */\n      dup3\n        /* \"#utility.yul\":9814:9828   */\n      add\n        /* \"#utility.yul\":9807:9847   */\n      mstore\n        /* \"#utility.yul\":9690:9854   */\n      pop\n      jump\t// out\n        /* \"#utility.yul\":9860:10226   */\n    tag_118:\n        /* \"#utility.yul\":10002:10005   */\n      0x00\n        /* \"#utility.yul\":10023:10090   */\n      tag_246\n        /* \"#utility.yul\":10087:10089   */\n      0x0e\n        /* \"#utility.yul\":10082:10085   */\n      dup4\n        /* \"#utility.yul\":10023:10090   */\n      tag_115\n      jump\t// in\n    tag_246:\n        /* \"#utility.yul\":10016:10090   */\n      swap2\n      pop\n        /* \"#utility.yul\":10099:10192   */\n      tag_247\n        /* \"#utility.yul\":10188:10191   */\n      dup3\n        /* \"#utility.yul\":10099:10192   */\n      tag_117\n      jump\t// in\n    tag_247:\n        /* \"#utility.yul\":10217:10219   */\n      0x20\n        /* \"#utility.yul\":10212:10215   */\n      dup3\n        /* \"#utility.yul\":10208:10220   */\n      add\n        /* \"#utility.yul\":10201:10220   */\n      swap1\n      pop\n        /* \"#utility.yul\":9860:10226   */\n      swap2\n      swap1\n      pop\n      jump\t// out\n        /* \"#utility.yul\":10232:10651   */\n    tag_40:\n        /* \"#utility.yul\":10398:10402   */\n      0x00\n        /* \"#utility.yul\":10436:10438   */\n      0x20\n        /* \"#utility.yul\":10425:10434   */\n      dup3\n        /* \"#utility.yul\":10421:10439   */\n      add\n        /* \"#utility.yul\":10413:10439   */\n      swap1\n      pop\n        /* \"#utility.yul\":10485:10494   */\n      dup2\n        /* \"#utility.yul\":10479:10483   */\n      dup2\n        /* \"#utility.yul\":10475:10495   */\n      sub\n        /* \"#utility.yul\":10471:10472   */\n      0x00\n        /* \"#utility.yul\":10460:10469   */\n      dup4\n        /* \"#utility.yul\":10456:10473   */\n      add\n        /* \"#utility.yul\":10449:10496   */\n      mstore\n        /* \"#utility.yul\":10513:10644   */\n      tag_249\n        /* \"#utility.yul\":10639:10643   */\n      dup2\n        /* \"#utility.yul\":10513:10644   */\n      tag_118\n      jump\t// in\n    tag_249:\n        /* \"#utility.yul\":10505:10644   */\n      swap1\n      pop\n        /* \"#utility.yul\":10232:10651   */\n      swap2\n      swap1\n      pop\n      jump\t// out\n        /* \"#utility.yul\":10657:10837   */\n    tag_119:\n        /* \"#utility.yul\":10705:10782   */\n      0x4e487b7100000000000000000000000000000000000000000000000000000000\n        /* \"#utility.yul\":10702:10703   */\n      0x00\n        /* \"#utility.yul\":10695:10783   */\n      mstore\n        /* \"#utility.yul\":10802:10806   */\n      0x41\n        /* \"#utility.yul\":10799:10800   */\n      0x04\n        /* \"#utility.yul\":10792:10807   */\n      mstore\n        /* \"#utility.yul\":10826:10830   */\n      0x24\n        /* \"#utility.yul\":10823:10824   */\n      0x00\n        /* \"#utility.yul\":10816:10831   */\n      revert\n        /* \"#utility.yul\":10843:11023   */\n    tag_120:\n        /* \"#utility.yul\":10891:10968   */\n      0x4e487b7100000000000000000000000000000000000000000000000000000000\n        /* \"#utility.yul\":10888:10889   */\n      0x00\n        /* \"#utility.yul\":10881:10969   */\n      mstore\n        /* \"#utility.yul\":10988:10992   */\n      0x22\n        /* \"#utility.yul\":10985:10986   */\n      0x04\n        /* \"#utility.yul\":10978:10993   */\n      mstore\n        /* \"#utility.yul\":11012:11016   */\n      0x24\n        /* \"#utility.yul\":11009:11010   */\n      0x00\n        /* \"#utility.yul\":11002:11017   */\n      revert\n        /* \"#utility.yul\":11029:11349   */\n    tag_68:\n        /* \"#utility.yul\":11073:11079   */\n      0x00\n        /* \"#utility.yul\":11110:11111   */\n      0x02\n        /* \"#utility.yul\":11104:11108   */\n      dup3\n        /* \"#utility.yul\":11100:11112   */\n      div\n        /* \"#utility.yul\":11090:11112   */\n      swap1\n      pop\n        /* \"#utility.yul\":11157:11158   */\n      0x01\n        /* \"#utility.yul\":11151:11155   */\n      dup3\n        /* \"#utility.yul\":11147:11159   */\n      and\n        /* \"#utility.yul\":11178:11196   */\n      dup1\n        /* \"#utility.yul\":11168:11249   */\n      tag_253\n      jumpi\n        /* \"#utility.yul\":11234:11238   */\n      0x7f\n        /* \"#utility.yul\":11226:11232   */\n      dup3\n        /* \"#utility.yul\":11222:11239   */\n      and\n        /* \"#utility.yul\":11212:11239   */\n      swap2\n      pop\n        /* \"#utility.yul\":11168:11249   */\n    tag_253:\n        /* \"#utility.yul\":11296:11298   */\n      0x20\n        /* \"#utility.yul\":11288:11294   */\n      dup3\n        /* \"#utility.yul\":11285:11299   */\n      lt\n        /* \"#utility.yul\":11265:11283   */\n      dup2\n        /* \"#utility.yul\":11262:11300   */\n      sub\n        /* \"#utility.yul\":11259:11343   */\n      tag_254\n      jumpi\n        /* \"#utility.yul\":11315:11333   */\n      tag_255\n      tag_120\n      jump\t// in\n    tag_255:\n        /* \"#utility.yul\":11259:11343   */\n    tag_254:\n        /* \"#utility.yul\":11080:11349   */\n      pop\n        /* \"#utility.yul\":11029:11349   */\n      swap2\n      swap1\n      pop\n      jump\t// out\n        /* \"#utility.yul\":11355:11496   */\n    tag_121:\n        /* \"#utility.yul\":11404:11408   */\n      0x00\n        /* \"#utility.yul\":11427:11430   */\n      dup2\n        /* \"#utility.yul\":11419:11430   */\n      swap1\n      pop\n        /* \"#utility.yul\":11450:11453   */\n      dup2\n        /* \"#utility.yul\":11447:11448   */\n      0x00\n        /* \"#utility.yul\":11440:11454   */\n      mstore\n        /* \"#utility.yul\":11484:11488   */\n      0x20\n        /* \"#utility.yul\":11481:11482   */\n      0x00\n        /* \"#utility.yul\":11471:11489   */\n      keccak256\n        /* \"#utility.yul\":11463:11489   */\n      swap1\n      pop\n        /* \"#utility.yul\":11355:11496   */\n      swap2\n      swap1\n      pop\n      jump\t// out\n        /* \"#utility.yul\":11502:11595   */\n    tag_122:\n        /* \"#utility.yul\":11539:11545   */\n      0x00\n        /* \"#utility.yul\":11586:11588   */\n      0x20\n        /* \"#utility.yul\":11581:11583   */\n      0x1f\n        /* \"#utility.yul\":11574:11579   */\n      dup4\n        /* \"#utility.yul\":11570:11584   */\n      add\n        /* \"#utility.yul\":11566:11589   */\n      div\n        /* \"#utility.yul\":11556:11589   */\n      swap1\n      pop\n        /* \"#utility.yul\":11502:11595   */\n      swap2\n      swap1\n      pop\n      jump\t// out\n        /* \"#utility.yul\":11601:11708   */\n    tag_123:\n        /* \"#utility.yul\":11645:11653   */\n      0x00\n        /* \"#utility.yul\":11695:11700   */\n      dup3\n        /* \"#utility.yul\":11689:11693   */\n      dup3\n        /* \"#utility.yul\":11685:11701   */\n      shl\n        /* \"#utility.yul\":11664:11701   */\n      swap1\n      pop\n        /* \"#utility.yul\":11601:11708   */\n      swap3\n      swap2\n      pop\n      pop\n      jump\t// out\n        /* \"#utility.yul\":11714:12107   */\n    tag_124:\n        /* \"#utility.yul\":11783:11789   */\n      0x00\n        /* \"#utility.yul\":11833:11834   */\n      0x08\n        /* \"#utility.yul\":11821:11831   */\n      dup4\n        /* \"#utility.yul\":11817:11835   */\n      mul\n        /* \"#utility.yul\":11856:11953   */\n      tag_260\n        /* \"#utility.yul\":11886:11952   */\n      0xffffffffffffffffffffffffffffffffffffffffffffffffffffffffffffffff\n        /* \"#utility.yul\":11875:11884   */\n      dup3\n        /* \"#utility.yul\":11856:11953   */\n      tag_123\n      jump\t// in\n    tag_260:\n        /* \"#utility.yul\":11974:12013   */\n      tag_261\n        /* \"#utility.yul\":12004:12012   */\n      dup7\n        /* \"#utility.yul\":11993:12002   */\n      dup4\n        /* \"#utility.yul\":11974:12013   */\n      tag_123\n      jump\t// in\n    tag_261:\n        /* \"#utility.yul\":11962:12013   */\n      swap6\n      pop\n        /* \"#utility.yul\":12046:12050   */\n      dup1\n        /* \"#utility.yul\":12042:12051   */\n      not\n        /* \"#utility.yul\":12035:12040   */\n      dup5\n        /* \"#utility.yul\":12031:12052   */\n      and\n        /* \"#utility.yul\":12022:12052   */\n      swap4\n      pop\n        /* \"#utility.yul\":12095:12099   */\n      dup1\n        /* \"#utility.yul\":12085:12093   */\n      dup7\n        /* \"#utility.yul\":12081:12100   */\n      and\n        /* \"#utility.yul\":12074:12079   */\n      dup5\n        /* \"#utility.yul\":12071:12101   */\n      or\n        /* \"#utility.yul\":12061:12101   */\n      swap3\n      pop\n        /* \"#utility.yul\":11790:12107   */\n      pop\n      pop\n        /* \"#utility.yul\":11714:12107   */\n      swap4\n      swap3\n      pop\n      pop\n      pop\n      jump\t// out\n        /* \"#utility.yul\":12113:12173   */\n    tag_125:\n        /* \"#utility.yul\":12141:12144   */\n      0x00\n        /* \"#utility.yul\":12162:12167   */\n      dup2\n        /* \"#utility.yul\":12155:12167   */\n      swap1\n      pop\n        /* \"#utility.yul\":12113:12173   */\n      swap2\n      swap1\n      pop\n      jump\t// out\n        /* \"#utility.yul\":12179:12321   */\n    tag_126:\n        /* \"#utility.yul\":12229:12238   */\n      0x00\n        /* \"#utility.yul\":12262:12315   */\n      tag_264\n        /* \"#utility.yul\":12280:12314   */\n      tag_265\n        /* \"#utility.yul\":12289:12313   */\n      tag_266\n        /* \"#utility.yul\":12307:12312   */\n      dup5\n        /* \"#utility.yul\":12289:12313   */\n      tag_94\n      jump\t// in\n    tag_266:\n        /* \"#utility.yul\":12280:12314   */\n      tag_125\n      jump\t// in\n    tag_265:\n        /* \"#utility.yul\":12262:12315   */\n      tag_94\n      jump\t// in\n    tag_264:\n        /* \"#utility.yul\":12249:12315   */\n      swap1\n      pop\n        /* \"#utility.yul\":12179:12321   */\n      swap2\n      swap1\n      pop\n      jump\t// out\n        /* \"#utility.yul\":12327:12402   */\n    tag_127:\n        /* \"#utility.yul\":12370:12373   */\n      0x00\n        /* \"#utility.yul\":12391:12396   */\n      dup2\n        /* \"#utility.yul\":12384:12396   */\n      swap1\n      pop\n        /* \"#utility.yul\":12327:12402   */\n      swap2\n      swap1\n      pop\n      jump\t// out\n        /* \"#utility.yul\":12408:12677   */\n    tag_128:\n        /* \"#utility.yul\":12518:12557   */\n      tag_269\n        /* \"#utility.yul\":12549:12556   */\n      dup4\n        /* \"#utility.yul\":12518:12557   */\n      tag_126\n      jump\t// in\n    tag_269:\n        /* \"#utility.yul\":12579:12670   */\n      tag_270\n        /* \"#utility.yul\":12628:12669   */\n      tag_271\n        /* \"#utility.yul\":12652:12668   */\n      dup3\n        /* \"#utility.yul\":12628:12669   */\n      tag_127\n      jump\t// in\n    tag_271:\n        /* \"#utility.yul\":12620:12626   */\n      dup5\n        /* \"#utility.yul\":12613:12617   */\n      dup5\n        /* \"#utility.yul\":12607:12618   */\n      sload\n        /* \"#utility.yul\":12579:12670   */\n      tag_124\n      jump\t// in\n    tag_270:\n        /* \"#utility.yul\":12573:12577   */\n      dup3\n        /* \"#utility.yul\":12566:12671   */\n      sstore\n        /* \"#utility.yul\":12484:12677   */\n      pop\n        /* \"#utility.yul\":12408:12677   */\n      pop\n      pop\n      pop\n      jump\t// out\n        /* \"#utility.yul\":12683:12756   */\n    tag_129:\n        /* \"#utility.yul\":12728:12731   */\n      0x00\n        /* \"#utility.yul\":12683:12756   */\n      swap1\n      jump\t// out\n        /* \"#utility.yul\":12762:12951   */\n    tag_130:\n        /* \"#utility.yul\":12839:12871   */\n      tag_274\n      tag_129\n      jump\t// in\n    tag_274:\n        /* \"#utility.yul\":12880:12945   */\n      tag_275\n        /* \"#utility.yul\":12938:12944   */\n      dup2\n        /* \"#utility.yul\":12930:12936   */\n      dup5\n        /* \"#utility.yul\":12924:12928   */\n      dup5\n        /* \"#utility.yul\":12880:12945   */\n      tag_128\n      jump\t// in\n    tag_275:\n        /* \"#utility.yul\":12815:12951   */\n      pop\n        /* \"#utility.yul\":12762:12951   */\n      pop\n      pop\n      jump\t// out\n        /* \"#utility.yul\":12957:13143   */\n    tag_131:\n        /* \"#utility.yul\":13017:13137   */\n    tag_277:\n        /* \"#utility.yul\":13034:13037   */\n      dup2\n        /* \"#utility.yul\":13027:13032   */\n      dup2\n        /* \"#utility.yul\":13024:13038   */\n      lt\n        /* \"#utility.yul\":13017:13137   */\n      iszero\n      tag_279\n      jumpi\n        /* \"#utility.yul\":13088:13127   */\n      tag_280\n        /* \"#utility.yul\":13125:13126   */\n      0x00\n        /* \"#utility.yul\":13118:13123   */\n      dup3\n        /* \"#utility.yul\":13088:13127   */\n      tag_130\n      jump\t// in\n    tag_280:\n        /* \"#utility.yul\":13061:13062   */\n      0x01\n        /* \"#utility.yul\":13054:13059   */\n      dup2\n        /* \"#utility.yul\":13050:13063   */\n      add\n        /* \"#utility.yul\":13041:13063   */\n      swap1\n      pop\n        /* \"#utility.yul\":13017:13137   */\n      jump(tag_277)\n    tag_279:\n        /* \"#utility.yul\":12957:13143   */\n      pop\n      pop\n      jump\t// out\n        /* \"#utility.yul\":13149:13692   */\n    tag_132:\n        /* \"#utility.yul\":13250:13252   */\n      0x1f\n        /* \"#utility.yul\":13245:13248   */\n      dup3\n        /* \"#utility.yul\":13242:13253   */\n      gt\n        /* \"#utility.yul\":13239:13685   */\n      iszero\n      tag_282\n      jumpi\n        /* \"#utility.yul\":13284:13322   */\n      tag_283\n        /* \"#utility.yul\":13316:13321   */\n      dup2\n        /* \"#utility.yul\":13284:13322   */\n      tag_121\n      jump\t// in\n    tag_283:\n        /* \"#utility.yul\":13368:13397   */\n      tag_284\n        /* \"#utility.yul\":13386:13396   */\n      dup5\n        /* \"#utility.yul\":13368:13397   */\n      tag_122\n      jump\t// in\n    tag_284:\n        /* \"#utility.yul\":13358:13366   */\n      dup2\n        /* \"#utility.yul\":13354:13398   */\n      add\n        /* \"#utility.yul\":13551:13553   */\n      0x20\n        /* \"#utility.yul\":13539:13549   */\n      dup6\n        /* \"#utility.yul\":13536:13554   */\n      lt\n        /* \"#utility.yul\":13533:13582   */\n      iszero\n      tag_285\n      jumpi\n        /* \"#utility.yul\":13572:13580   */\n      dup2\n        /* \"#utility.yul\":13557:13580   */\n      swap1\n      pop\n        /* \"#utility.yul\":13533:13582   */\n    tag_285:\n        /* \"#utility.yul\":13595:13675   */\n      tag_286\n        /* \"#utility.yul\":13651:13673   */\n      tag_287\n        /* \"#utility.yul\":13669:13672   */\n      dup6\n        /* \"#utility.yul\":13651:13673   */\n      tag_122\n      jump\t// in\n    tag_287:\n        /* \"#utility.yul\":13641:13649   */\n      dup4\n        /* \"#utility.yul\":13637:13674   */\n      add\n        /* \"#utility.yul\":13624:13635   */\n      dup3\n        /* \"#utility.yul\":13595:13675   */\n      tag_131\n      jump\t// in\n    tag_286:\n        /* \"#utility.yul\":13254:13685   */\n      pop\n      pop\n        /* \"#utility.yul\":13239:13685   */\n    tag_282:\n        /* \"#utility.yul\":13149:13692   */\n      pop\n      pop\n      pop\n      jump\t// out\n        /* \"#utility.yul\":13698:13815   */\n    tag_133:\n        /* \"#utility.yul\":13752:13760   */\n      0x00\n        /* \"#utility.yul\":13802:13807   */\n      dup3\n        /* \"#utility.yul\":13796:13800   */\n      dup3\n        /* \"#utility.yul\":13792:13808   */\n      shr\n        /* \"#utility.yul\":13771:13808   */\n      swap1\n      pop\n        /* \"#utility.yul\":13698:13815   */\n      swap3\n      swap2\n      pop\n      pop\n      jump\t// out\n        /* \"#utility.yul\":13821:13990   */\n    tag_134:\n        /* \"#utility.yul\":13865:13871   */\n      0x00\n        /* \"#utility.yul\":13898:13949   */\n      tag_290\n        /* \"#utility.yul\":13946:13947   */\n      0x00\n        /* \"#utility.yul\":13942:13948   */\n      not\n        /* \"#utility.yul\":13934:13939   */\n      dup5\n        /* \"#utility.yul\":13931:13932   */\n      0x08\n        /* \"#utility.yul\":13927:13940   */\n      mul\n        /* \"#utility.yul\":13898:13949   */\n      tag_133\n      jump\t// in\n    tag_290:\n        /* \"#utility.yul\":13894:13950   */\n      not\n        /* \"#utility.yul\":13979:13983   */\n      dup1\n        /* \"#utility.yul\":13973:13977   */\n      dup4\n        /* \"#utility.yul\":13969:13984   */\n      and\n        /* \"#utility.yul\":13959:13984   */\n      swap2\n      pop\n        /* \"#utility.yul\":13872:13990   */\n      pop\n        /* \"#utility.yul\":13821:13990   */\n      swap3\n      swap2\n      pop\n      pop\n      jump\t// out\n        /* \"#utility.yul\":13995:14290   */\n    tag_135:\n        /* \"#utility.yul\":14071:14075   */\n      0x00\n        /* \"#utility.yul\":14217:14246   */\n      tag_292\n        /* \"#utility.yul\":14242:14245   */\n      dup4\n        /* \"#utility.yul\":14236:14240   */\n      dup4\n        /* \"#utility.yul\":14217:14246   */\n      tag_134\n      jump\t// in\n    tag_292:\n        /* \"#utility.yul\":14209:14246   */\n      swap2\n      pop\n        /* \"#utility.yul\":14279:14282   */\n      dup3\n        /* \"#utility.yul\":14276:14277   */\n      0x02\n        /* \"#utility.yul\":14272:14283   */\n      mul\n        /* \"#utility.yul\":14266:14270   */\n      dup3\n        /* \"#utility.yul\":14263:14284   */\n      or\n        /* \"#utility.yul\":14255:14284   */\n      swap1\n      pop\n        /* \"#utility.yul\":13995:14290   */\n      swap3\n      swap2\n      pop\n      pop\n      jump\t// out\n        /* \"#utility.yul\":14295:15690   */\n    tag_48:\n        /* \"#utility.yul\":14412:14449   */\n      tag_294\n        /* \"#utility.yul\":14445:14448   */\n      dup3\n        /* \"#utility.yul\":14412:14449   */\n      tag_105\n      jump\t// in\n    tag_294:\n        /* \"#utility.yul\":14514:14532   */\n      0xffffffffffffffff\n        /* \"#utility.yul\":14506:14512   */\n      dup2\n        /* \"#utility.yul\":14503:14533   */\n      gt\n        /* \"#utility.yul\":14500:14556   */\n      iszero\n      tag_295\n      jumpi\n        /* \"#utility.yul\":14536:14554   */\n      tag_296\n      tag_119\n      jump\t// in\n    tag_296:\n        /* \"#utility.yul\":14500:14556   */\n    tag_295:\n        /* \"#utility.yul\":14580:14618   */\n      tag_297\n        /* \"#utility.yul\":14612:14616   */\n      dup3\n        /* \"#utility.yul\":14606:14617   */\n      sload\n        /* \"#utility.yul\":14580:14618   */\n      tag_68\n      jump\t// in\n    tag_297:\n        /* \"#utility.yul\":14665:14732   */\n      tag_298\n        /* \"#utility.yul\":14725:14731   */\n      dup3\n        /* \"#utility.yul\":14717:14723   */\n      dup3\n        /* \"#utility.yul\":14711:14715   */\n      dup6\n        /* \"#utility.yul\":14665:14732   */\n      tag_132\n      jump\t// in\n    tag_298:\n        /* \"#utility.yul\":14759:14760   */\n      0x00\n        /* \"#utility.yul\":14783:14787   */\n      0x20\n        /* \"#utility.yul\":14770:14787   */\n      swap1\n      pop\n        /* \"#utility.yul\":14815:14817   */\n      0x1f\n        /* \"#utility.yul\":14807:14813   */\n      dup4\n        /* \"#utility.yul\":14804:14818   */\n      gt\n        /* \"#utility.yul\":14832:14833   */\n      0x01\n        /* \"#utility.yul\":14827:15445   */\n      dup2\n      eq\n      tag_300\n      jumpi\n        /* \"#utility.yul\":15489:15490   */\n      0x00\n        /* \"#utility.yul\":15506:15512   */\n      dup5\n        /* \"#utility.yul\":15503:15580   */\n      iszero\n      tag_301\n      jumpi\n        /* \"#utility.yul\":15555:15564   */\n      dup3\n        /* \"#utility.yul\":15550:15553   */\n      dup8\n        /* \"#utility.yul\":15546:15565   */\n      add\n        /* \"#utility.yul\":15540:15566   */\n      mload\n        /* \"#utility.yul\":15531:15566   */\n      swap1\n      pop\n        /* \"#utility.yul\":15503:15580   */\n    tag_301:\n        /* \"#utility.yul\":15606:15673   */\n      tag_302\n        /* \"#utility.yul\":15666:15672   */\n      dup6\n        /* \"#utility.yul\":15659:15664   */\n      dup3\n        /* \"#utility.yul\":15606:15673   */\n      tag_135\n      jump\t// in\n    tag_302:\n        /* \"#utility.yul\":15600:15604   */\n      dup7\n        /* \"#utility.yul\":15593:15674   */\n      sstore\n        /* \"#utility.yul\":15462:15684   */\n      pop\n        /* \"#utility.yul\":14797:15684   */\n      jump(tag_299)\n        /* \"#utility.yul\":14827:15445   */\n    tag_300:\n        /* \"#utility.yul\":14879:14883   */\n      0x1f\n        /* \"#utility.yul\":14875:14884   */\n      not\n        /* \"#utility.yul\":14867:14873   */\n      dup5\n        /* \"#utility.yul\":14863:14885   */\n      and\n        /* \"#utility.yul\":14913:14950   */\n      tag_303\n        /* \"#utility.yul\":14945:14949   */\n      dup7\n        /* \"#utility.yul\":14913:14950   */\n      tag_121\n      jump\t// in\n    tag_303:\n        /* \"#utility.yul\":14972:14973   */\n      0x00\n        /* \"#utility.yul\":14986:15194   */\n    tag_304:\n        /* \"#utility.yul\":15000:15007   */\n      dup3\n        /* \"#utility.yul\":14997:14998   */\n      dup2\n        /* \"#utility.yul\":14994:15008   */\n      lt\n        /* \"#utility.yul\":14986:15194   */\n      iszero\n      tag_306\n      jumpi\n        /* \"#utility.yul\":15079:15088   */\n      dup5\n        /* \"#utility.yul\":15074:15077   */\n      dup10\n        /* \"#utility.yul\":15070:15089   */\n      add\n        /* \"#utility.yul\":15064:15090   */\n      mload\n        /* \"#utility.yul\":15056:15062   */\n      dup3\n        /* \"#utility.yul\":15049:15091   */\n      sstore\n        /* \"#utility.yul\":15130:15131   */\n      0x01\n        /* \"#utility.yul\":15122:15128   */\n      dup3\n        /* \"#utility.yul\":15118:15132   */\n      add\n        /* \"#utility.yul\":15108:15132   */\n      swap2\n      pop\n        /* \"#utility.yul\":15177:15179   */\n      0x20\n        /* \"#utility.yul\":15166:15175   */\n      dup6\n        /* \"#utility.yul\":15162:15180   */\n      add\n        /* \"#utility.yul\":15149:15180   */\n      swap5\n      pop\n        /* \"#utility.yul\":15023:15027   */\n      0x20\n        /* \"#utility.yul\":15020:15021   */\n      dup2\n        /* \"#utility.yul\":15016:15028   */\n      add\n        /* \"#utility.yul\":15011:15028   */\n      swap1\n      pop\n        /* \"#utility.yul\":14986:15194   */\n      jump(tag_304)\n    tag_306:\n        /* \"#utility.yul\":15222:15228   */\n      dup7\n        /* \"#utility.yul\":15213:15220   */\n      dup4\n        /* \"#utility.yul\":15210:15229   */\n      lt\n        /* \"#utility.yul\":15207:15386   */\n      iszero\n      tag_307\n      jumpi\n        /* \"#utility.yul\":15280:15289   */\n      dup5\n        /* \"#utility.yul\":15275:15278   */\n      dup10\n        /* \"#utility.yul\":15271:15290   */\n      add\n        /* \"#utility.yul\":15265:15291   */\n      mload\n        /* \"#utility.yul\":15323:15371   */\n      tag_308\n        /* \"#utility.yul\":15365:15369   */\n      0x1f\n        /* \"#utility.yul\":15357:15363   */\n      dup10\n        /* \"#utility.yul\":15353:15370   */\n      and\n        /* \"#utility.yul\":15342:15351   */\n      dup3\n        /* \"#utility.yul\":15323:15371   */\n      tag_134\n      jump\t// in\n    tag_308:\n        /* \"#utility.yul\":15315:15321   */\n      dup4\n        /* \"#utility.yul\":15308:15372   */\n      sstore\n        /* \"#utility.yul\":15230:15386   */\n      pop\n        /* \"#utility.yul\":15207:15386   */\n    tag_307:\n        /* \"#utility.yul\":15432:15433   */\n      0x01\n        /* \"#utility.yul\":15428:15429   */\n      0x02\n        /* \"#utility.yul\":15420:15426   */\n      dup9\n        /* \"#utility.yul\":15416:15430   */\n      mul\n        /* \"#utility.yul\":15412:15434   */\n      add\n        /* \"#utility.yul\":15406:15410   */\n      dup9\n        /* \"#utility.yul\":15399:15435   */\n      sstore\n        /* \"#utility.yul\":14834:15445   */\n      pop\n      pop\n      pop\n        /* \"#utility.yul\":14797:15684   */\n    tag_299:\n      pop\n        /* \"#utility.yul\":14387:15690   */\n      pop\n      pop\n      pop\n        /* \"#utility.yul\":14295:15690   */\n      pop\n      pop\n      jump\t// out\n        /* \"#utility.yul\":15696:15844   */\n    tag_136:\n        /* \"#utility.yul\":15794:15800   */\n      dup3\n        /* \"#utility.yul\":15789:15792   */\n      dup2\n        /* \"#utility.yul\":15784:15787   */\n      dup4\n        /* \"#utility.yul\":15771:15801   */\n      calldatacopy\n        /* \"#utility.yul\":15835:15836   */\n      0x00\n        /* \"#utility.yul\":15826:15832   */\n      dup4\n        /* \"#utility.yul\":15821:15824   */\n      dup4\n        /* \"#utility.yul\":15817:15833   */\n      add\n        /* \"#utility.yul\":15810:15837   */\n      mstore\n        /* \"#utility.yul\":15696:15844   */\n      pop\n      pop\n      pop\n      jump\t// out\n        /* \"#utility.yul\":15874:16191   */\n    tag_137:\n        /* \"#utility.yul\":15972:15975   */\n      0x00\n        /* \"#utility.yul\":15993:16064   */\n      tag_311\n        /* \"#utility.yul\":16057:16063   */\n      dup4\n        /* \"#utility.yul\":16052:16055   */\n      dup6\n        /* \"#utility.yul\":15993:16064   */\n      tag_115\n      jump\t// in\n    tag_311:\n        /* \"#utility.yul\":15986:16064   */\n      swap4\n      pop\n        /* \"#utility.yul\":16074:16130   */\n      tag_312\n        /* \"#utility.yul\":16123:16129   */\n      dup4\n        /* \"#utility.yul\":16118:16121   */\n      dup6\n        /* \"#utility.yul\":16111:16116   */\n      dup5\n        /* \"#utility.yul\":16074:16130   */\n      tag_136\n      jump\t// in\n    tag_312:\n        /* \"#utility.yul\":16155:16184   */\n      tag_313\n        /* \"#utility.yul\":16177:16183   */\n      dup4\n        /* \"#utility.yul\":16155:16184   */\n      tag_108\n      jump\t// in\n    tag_313:\n        /* \"#utility.yul\":16150:16153   */\n      dup5\n        /* \"#utility.yul\":16146:16185   */\n      add\n        /* \"#utility.yul\":16139:16185   */\n      swap1\n      pop\n        /* \"#utility.yul\":15874:16191   */\n      swap4\n      swap3\n      pop\n      pop\n      pop\n      jump\t// out\n        /* \"#utility.yul\":16197:16658   */\n    tag_50:\n        /* \"#utility.yul\":16357:16361   */\n      0x00\n        /* \"#utility.yul\":16395:16397   */\n      0x40\n        /* \"#utility.yul\":16384:16393   */\n      dup3\n        /* \"#utility.yul\":16380:16398   */\n      add\n        /* \"#utility.yul\":16372:16398   */\n      swap1\n      pop\n        /* \"#utility.yul\":16408:16488   */\n      tag_315\n        /* \"#utility.yul\":16485:16486   */\n      0x00\n        /* \"#utility.yul\":16474:16483   */\n      dup4\n        /* \"#utility.yul\":16470:16487   */\n      add\n        /* \"#utility.yul\":16461:16467   */\n      dup7\n        /* \"#utility.yul\":16408:16488   */\n      tag_113\n      jump\t// in\n    tag_315:\n        /* \"#utility.yul\":16535:16544   */\n      dup2\n        /* \"#utility.yul\":16529:16533   */\n      dup2\n        /* \"#utility.yul\":16525:16545   */\n      sub\n        /* \"#utility.yul\":16520:16522   */\n      0x20\n        /* \"#utility.yul\":16509:16518   */\n      dup4\n        /* \"#utility.yul\":16505:16523   */\n      add\n        /* \"#utility.yul\":16498:16546   */\n      mstore\n        /* \"#utility.yul\":16563:16651   */\n      tag_316\n        /* \"#utility.yul\":16646:16650   */\n      dup2\n        /* \"#utility.yul\":16637:16643   */\n      dup5\n        /* \"#utility.yul\":16629:16635   */\n      dup7\n        /* \"#utility.yul\":16563:16651   */\n      tag_137\n      jump\t// in\n    tag_316:\n        /* \"#utility.yul\":16555:16651   */\n      swap1\n      pop\n        /* \"#utility.yul\":16197:16658   */\n      swap5\n      swap4\n      pop\n      pop\n      pop\n      pop\n      jump\t// out\n        /* \"#utility.yul\":16664:16823   */\n    tag_138:\n        /* \"#utility.yul\":16804:16815   */\n      0x4e6f7420666f756e640000000000000000000000000000000000000000000000\n        /* \"#utility.yul\":16800:16801   */\n      0x00\n        /* \"#utility.yul\":16792:16798   */\n      dup3\n        /* \"#utility.yul\":16788:16802   */\n      add\n        /* \"#utility.yul\":16781:16816   */\n      mstore\n        /* \"#utility.yul\":16664:16823   */\n      pop\n      jump\t// out\n        /* \"#utility.yul\":16829:17194   */\n    tag_139:\n        /* \"#utility.yul\":16971:16974   */\n      0x00\n        /* \"#utility.yul\":16992:17058   */\n      tag_319\n        /* \"#utility.yul\":17056:17057   */\n      0x09\n        /* \"#utility.yul\":17051:17054   */\n      dup4\n        /* \"#utility.yul\":16992:17058   */\n      tag_115\n      jump\t// in\n    tag_319:\n        /* \"#utility.yul\":16985:17058   */\n      swap2\n      pop\n        /* \"#utility.yul\":17067:17160   */\n      tag_320\n        /* \"#utility.yul\":17156:17159   */\n      dup3\n        /* \"#utility.yul\":17067:17160   */\n      tag_138\n      jump\t// in\n    tag_320:\n        /* \"#utility.yul\":17185:17187   */\n      0x20\n        /* \"#utility.yul\":17180:17183   */\n      dup3\n        /* \"#utility.yul\":17176:17188   */\n      add\n        /* \"#utility.yul\":17169:17188   */\n      swap1\n      pop\n        /* \"#utility.yul\":16829:17194   */\n      swap2\n      swap1\n      pop\n      jump\t// out\n        /* \"#utility.yul\":17200:17619   */\n    tag_54:\n        /* \"#utility.yul\":17366:17370   */\n      0x00\n        /* \"#utility.yul\":17404:17406   */\n      0x20\n        /* \"#utility.yul\":17393:17402   */\n      dup3\n        /* \"#utility.yul\":17389:17407   */\n      add\n        /* \"#utility.yul\":17381:17407   */\n      swap1\n      pop\n        /* \"#utility.yul\":17453:17462   */\n      dup2\n        /* \"#utility.yul\":17447:17451   */\n      dup2\n        /* \"#utility.yul\":17443:17463   */\n      sub\n        /* \"#utility.yul\":17439:17440   */\n      0x00\n        /* \"#utility.yul\":17428:17437   */\n      dup4\n        /* \"#utility.yul\":17424:17441   */\n      add\n        /* \"#utility.yul\":17417:17464   */\n      mstore\n        /* \"#utility.yul\":17481:17612   */\n      tag_322\n        /* \"#utility.yul\":17607:17611   */\n      dup2\n        /* \"#utility.yul\":17481:17612   */\n      tag_139\n      jump\t// in\n    tag_322:\n        /* \"#utility.yul\":17473:17612   */\n      swap1\n      pop\n        /* \"#utility.yul\":17200:17619   */\n      swap2\n      swap1\n      pop\n      jump\t// out\n        /* \"#utility.yul\":17625:17805   */\n    tag_61:\n        /* \"#utility.yul\":17673:17750   */\n      0x4e487b7100000000000000000000000000000000000000000000000000000000\n        /* \"#utility.yul\":17670:17671   */\n      0x00\n        /* \"#utility.yul\":17663:17751   */\n      mstore\n        /* \"#utility.yul\":17770:17774   */\n      0x32\n        /* \"#utility.yul\":17767:17768   */\n      0x04\n        /* \"#utility.yul\":17760:17775   */\n      mstore\n        /* \"#utility.yul\":17794:17798   */\n      0x24\n        /* \"#utility.yul\":17791:17792   */\n      0x00\n        /* \"#utility.yul\":17784:17799   */\n      revert\n\n    auxdata: 0xa264697066735822122052a7c593440e23e7570d9727af2d3a6e2644ef3ad635964ee66f2169227b9d5a64736f6c634300081a0033\n}\n",
				"bytecode": {
					"linkReferences": {},
					"object": "6080604052348015600e575f80fd5b50610f698061001c5f395ff3fe608060405234801561000f575f80fd5b5060043610610060575f3560e01c80631475a7771461006457806322eee84c146100805780632ddbd13a1461009c57806338a699a4146100ba5780639507d39a146100ea578063b30906d41461011a575b5f80fd5b61007e60048036038101906100799190610720565b61014e565b005b61009a60048036038101906100959190610791565b610334565b005b6100a46103e9565b6040516100b191906107d4565b60405180910390f35b6100d460048036038101906100cf9190610791565b6103f4565b6040516100e19190610807565b60405180910390f35b61010460048036038101906100ff919061084a565b610411565b60405161011191906109f8565b60405180910390f35b610134600480360381019061012f919061084a565b610541565b604051610145959493929190610a7e565b60405180910390f35b60015f8481526020019081526020015f205f9054906101000a900460ff16156101ac576040517f08c379a00000000000000000000000000000000000000000000000000000000081526004016101a390610b20565b60405180910390fd5b5f6040518060a001604052808660038111156101cb576101ca610875565b5b815260200185815260200184848080601f0160208091040260200160405190810160405280939291908181526020018383808284375f81840152601f19601f82011690508083019250505050505050815260200142815260200160011515815250908060018154018082558091505060019003905f5260205f2090600502015f909190919091505f820151815f015f6101000a81548160ff0219169083600381111561027a57610279610875565b5b021790555060208201518160010155604082015181600201908161029e9190610d65565b50606082015181600301556080820151816004015f6101000a81548160ff02191690831515021790555050506001805f8581526020019081526020015f205f6101000a81548160ff021916908315150217905550827f8aeceacc22af9fef3c689c2ee4dcb159ecc527f41f6d2994d6180af5eac2341385848460405161032693929190610e6e565b60405180910390a250505050565b60015f8281526020019081526020015f205f9054906101000a900460ff16610391576040517f08c379a000000000000000000000000000000000000000000000000000000000815260040161038890610ee8565b60405180910390fd5b5f60015f8381526020019081526020015f205f6101000a81548160ff021916908315150217905550807fe0c972902b8c453716a2a401ad60d945b4086632729c2e7d8c45843e386da56960405160405180910390a250565b5f8080549050905090565b6001602052805f5260405f205f915054906101000a900460ff1681565b61041961061f565b5f828154811061042c5761042b610f06565b5b905f5260205f2090600502016040518060a00160405290815f82015f9054906101000a900460ff16600381111561046657610465610875565b5b600381111561047857610477610875565b5b81526020016001820154815260200160028201805461049690610b98565b80601f01602080910402602001604051908101604052809291908181526020018280546104c290610b98565b801561050d5780601f106104e45761010080835404028352916020019161050d565b820191905f5260205f20905b8154815290600101906020018083116104f057829003601f168201915b5050505050815260200160038201548152602001600482015f9054906101000a900460ff1615151515815250509050919050565b5f818154811061054f575f80fd5b905f5260205f2090600502015f91509050805f015f9054906101000a900460ff169080600101549080600201805461058690610b98565b80601f01602080910402602001604051908101604052809291908181526020018280546105b290610b98565b80156105fd5780601f106105d4576101008083540402835291602001916105fd565b820191905f5260205f20905b8154815290600101906020018083116105e057829003601f168201915b505050505090806003015490806004015f9054906101000a900460ff16905085565b6040518060a001604052805f600381111561063d5761063c610875565b5b81526020015f8019168152602001606081526020015f81526020015f151581525090565b5f80fd5b5f80fd5b60048110610675575f80fd5b50565b5f8135905061068681610669565b92915050565b5f819050919050565b61069e8161068c565b81146106a8575f80fd5b50565b5f813590506106b981610695565b92915050565b5f80fd5b5f80fd5b5f80fd5b5f8083601f8401126106e0576106df6106bf565b5b8235905067ffffffffffffffff8111156106fd576106fc6106c3565b5b602083019150836001820283011115610719576107186106c7565b5b9250929050565b5f805f806060858703121561073857610737610661565b5b5f61074587828801610678565b9450506020610756878288016106ab565b935050604085013567ffffffffffffffff81111561077757610776610665565b5b610783878288016106cb565b925092505092959194509250565b5f602082840312156107a6576107a5610661565b5b5f6107b3848285016106ab565b91505092915050565b5f819050919050565b6107ce816107bc565b82525050565b5f6020820190506107e75f8301846107c5565b92915050565b5f8115159050919050565b610801816107ed565b82525050565b5f60208201905061081a5f8301846107f8565b92915050565b610829816107bc565b8114610833575f80fd5b50565b5f8135905061084481610820565b92915050565b5f6020828403121561085f5761085e610661565b5b5f61086c84828501610836565b91505092915050565b7f4e487b71000000000000000000000000000000000000000000000000000000005f52602160045260245ffd5b600481106108b3576108b2610875565b5b50565b5f8190506108c3826108a2565b919050565b5f6108d2826108b6565b9050919050565b6108e2816108c8565b82525050565b6108f18161068c565b82525050565b5f81519050919050565b5f82825260208201905092915050565b8281835e5f83830152505050565b5f601f19601f8301169050919050565b5f610939826108f7565b6109438185610901565b9350610953818560208601610911565b61095c8161091f565b840191505092915050565b610970816107bc565b82525050565b61097f816107ed565b82525050565b5f60a083015f83015161099a5f8601826108d9565b5060208301516109ad60208601826108e8565b50604083015184820360408601526109c5828261092f565b91505060608301516109da6060860182610967565b5060808301516109ed6080860182610976565b508091505092915050565b5f6020820190508181035f830152610a108184610985565b905092915050565b610a21816108c8565b82525050565b610a308161068c565b82525050565b5f82825260208201905092915050565b5f610a50826108f7565b610a5a8185610a36565b9350610a6a818560208601610911565b610a738161091f565b840191505092915050565b5f60a082019050610a915f830188610a18565b610a9e6020830187610a27565b8181036040830152610ab08186610a46565b9050610abf60608301856107c5565b610acc60808301846107f8565b9695505050505050565b7f416c7265616479206578697374730000000000000000000000000000000000005f82015250565b5f610b0a600e83610a36565b9150610b1582610ad6565b602082019050919050565b5f6020820190508181035f830152610b3781610afe565b9050919050565b7f4e487b71000000000000000000000000000000000000000000000000000000005f52604160045260245ffd5b7f4e487b71000000000000000000000000000000000000000000000000000000005f52602260045260245ffd5b5f6002820490506001821680610baf57607f821691505b602082108103610bc257610bc1610b6b565b5b50919050565b5f819050815f5260205f209050919050565b5f6020601f8301049050919050565b5f82821b905092915050565b5f60088302610c247fffffffffffffffffffffffffffffffffffffffffffffffffffffffffffffffff82610be9565b610c2e8683610be9565b95508019841693508086168417925050509392505050565b5f819050919050565b5f610c69610c64610c5f846107bc565b610c46565b6107bc565b9050919050565b5f819050919050565b610c8283610c4f565b610c96610c8e82610c70565b848454610bf5565b825550505050565b5f90565b610caa610c9e565b610cb5818484610c79565b505050565b5b81811015610cd857610ccd5f82610ca2565b600181019050610cbb565b5050565b601f821115610d1d57610cee81610bc8565b610cf784610bda565b81016020851015610d06578190505b610d1a610d1285610bda565b830182610cba565b50505b505050565b5f82821c905092915050565b5f610d3d5f1984600802610d22565b1980831691505092915050565b5f610d558383610d2e565b9150826002028217905092915050565b610d6e826108f7565b67ffffffffffffffff811115610d8757610d86610b3e565b5b610d918254610b98565b610d9c828285610cdc565b5f60209050601f831160018114610dcd575f8415610dbb578287015190505b610dc58582610d4a565b865550610e2c565b601f198416610ddb86610bc8565b5f5b82811015610e0257848901518255600182019150602085019450602081019050610ddd565b86831015610e1f5784890151610e1b601f891682610d2e565b8355505b6001600288020188555050505b505050505050565b828183375f83830152505050565b5f610e4d8385610a36565b9350610e5a838584610e34565b610e638361091f565b840190509392505050565b5f604082019050610e815f830186610a18565b8181036020830152610e94818486610e42565b9050949350505050565b7f4e6f7420666f756e6400000000000000000000000000000000000000000000005f82015250565b5f610ed2600983610a36565b9150610edd82610e9e565b602082019050919050565b5f6020820190508181035f830152610eff81610ec6565b9050919050565b7f4e487b71000000000000000000000000000000000000000000000000000000005f52603260045260245ffdfea264697066735822122052a7c593440e23e7570d9727af2d3a6e2644ef3ad635964ee66f2169227b9d5a64736f6c634300081a0033",
					"opcodes": "PUSH1 0x80 PUSH1 0x40 MSTORE CALLVALUE DUP1 ISZERO PUSH1 0xE JUMPI PUSH0 DUP1 REVERT JUMPDEST POP PUSH2 0xF69 DUP1 PUSH2 0x1C PUSH0 CODECOPY PUSH0 RETURN INVALID PUSH1 0x80 PUSH1 0x40 MSTORE CALLVALUE DUP1 ISZERO PUSH2 0xF JUMPI PUSH0 DUP1 REVERT JUMPDEST POP PUSH1 0x4 CALLDATASIZE LT PUSH2 0x60 JUMPI PUSH0 CALLDATALOAD PUSH1 0xE0 SHR DUP1 PUSH4 0x1475A777 EQ PUSH2 0x64 JUMPI DUP1 PUSH4 0x22EEE84C EQ PUSH2 0x80 JUMPI DUP1 PUSH4 0x2DDBD13A EQ PUSH2 0x9C JUMPI DUP1 PUSH4 0x38A699A4 EQ PUSH2 0xBA JUMPI DUP1 PUSH4 0x9507D39A EQ PUSH2 0xEA JUMPI DUP1 PUSH4 0xB30906D4 EQ PUSH2 0x11A JUMPI JUMPDEST PUSH0 DUP1 REVERT JUMPDEST PUSH2 0x7E PUSH1 0x4 DUP1 CALLDATASIZE SUB DUP2 ADD SWAP1 PUSH2 0x79 SWAP2 SWAP1 PUSH2 0x720 JUMP JUMPDEST PUSH2 0x14E JUMP JUMPDEST STOP JUMPDEST PUSH2 0x9A PUSH1 0x4 DUP1 CALLDATASIZE SUB DUP2 ADD SWAP1 PUSH2 0x95 SWAP2 SWAP1 PUSH2 0x791 JUMP JUMPDEST PUSH2 0x334 JUMP JUMPDEST STOP JUMPDEST PUSH2 0xA4 PUSH2 0x3E9 JUMP JUMPDEST PUSH1 0x40 MLOAD PUSH2 0xB1 SWAP2 SWAP1 PUSH2 0x7D4 JUMP JUMPDEST PUSH1 0x40 MLOAD DUP1 SWAP2 SUB SWAP1 RETURN JUMPDEST PUSH2 0xD4 PUSH1 0x4 DUP1 CALLDATASIZE SUB DUP2 ADD SWAP1 PUSH2 0xCF SWAP2 SWAP1 PUSH2 0x791 JUMP JUMPDEST PUSH2 0x3F4 JUMP JUMPDEST PUSH1 0x40 MLOAD PUSH2 0xE1 SWAP2 SWAP1 PUSH2 0x807 JUMP JUMPDEST PUSH1 0x40 MLOAD DUP1 SWAP2 SUB SWAP1 RETURN JUMPDEST PUSH2 0x104 PUSH1 0x4 DUP1 CALLDATASIZE SUB DUP2 ADD SWAP1 PUSH2 0xFF SWAP2 SWAP1 PUSH2 0x84A JUMP JUMPDEST PUSH2 0x411 JUMP JUMPDEST PUSH1 0x40 MLOAD PUSH2 0x111 SWAP2 SWAP1 PUSH2 0x9F8 JUMP JUMPDEST PUSH1 0x40 MLOAD DUP1 SWAP2 SUB SWAP1 RETURN JUMPDEST PUSH2 0x134 PUSH1 0x4 DUP1 CALLDATASIZE SUB DUP2 ADD SWAP1 PUSH2 0x12F SWAP2 SWAP1 PUSH2 0x84A JUMP JUMPDEST PUSH2 0x541 JUMP JUMPDEST PUSH1 0x40 MLOAD PUSH2 0x145 SWAP6 SWAP5 SWAP4 SWAP3 SWAP2 SWAP1 PUSH2 0xA7E JUMP JUMPDEST PUSH1 0x40 MLOAD DUP1 SWAP2 SUB SWAP1 RETURN JUMPDEST PUSH1 0x1 PUSH0 DUP5 DUP2 MSTORE PUSH1 0x20 ADD SWAP1 DUP2 MSTORE PUSH1 0x20 ADD PUSH0 KECCAK256 PUSH0 SWAP1 SLOAD SWAP1 PUSH2 0x100 EXP SWAP1 DIV PUSH1 0xFF AND ISZERO PUSH2 0x1AC JUMPI PUSH1 0x40 MLOAD PUSH32 0x8C379A000000000000000000000000000000000000000000000000000000000 DUP2 MSTORE PUSH1 0x4 ADD PUSH2 0x1A3 SWAP1 PUSH2 0xB20 JUMP JUMPDEST PUSH1 0x40 MLOAD DUP1 SWAP2 SUB SWAP1 REVERT JUMPDEST PUSH0 PUSH1 0x40 MLOAD DUP1 PUSH1 0xA0 ADD PUSH1 0x40 MSTORE DUP1 DUP7 PUSH1 0x3 DUP2 GT ISZERO PUSH2 0x1CB JUMPI PUSH2 0x1CA PUSH2 0x875 JUMP JUMPDEST JUMPDEST DUP2 MSTORE PUSH1 0x20 ADD DUP6 DUP2 MSTORE PUSH1 0x20 ADD DUP5 DUP5 DUP1 DUP1 PUSH1 0x1F ADD PUSH1 0x20 DUP1 SWAP2 DIV MUL PUSH1 0x20 ADD PUSH1 0x40 MLOAD SWAP1 DUP2 ADD PUSH1 0x40 MSTORE DUP1 SWAP4 SWAP3 SWAP2 SWAP1 DUP2 DUP2 MSTORE PUSH1 0x20 ADD DUP4 DUP4 DUP1 DUP3 DUP5 CALLDATACOPY PUSH0 DUP2 DUP5 ADD MSTORE PUSH1 0x1F NOT PUSH1 0x1F DUP3 ADD AND SWAP1 POP DUP1 DUP4 ADD SWAP3 POP POP POP POP POP POP POP DUP2 MSTORE PUSH1 0x20 ADD TIMESTAMP DUP2 MSTORE PUSH1 0x20 ADD PUSH1 0x1 ISZERO ISZERO DUP2 MSTORE POP SWAP1 DUP1 PUSH1 0x1 DUP2 SLOAD ADD DUP1 DUP3 SSTORE DUP1 SWAP2 POP POP PUSH1 0x1 SWAP1 SUB SWAP1 PUSH0 MSTORE PUSH1 0x20 PUSH0 KECCAK256 SWAP1 PUSH1 0x5 MUL ADD PUSH0 SWAP1 SWAP2 SWAP1 SWAP2 SWAP1 SWAP2 POP PUSH0 DUP3 ADD MLOAD DUP2 PUSH0 ADD PUSH0 PUSH2 0x100 EXP DUP2 SLOAD DUP2 PUSH1 0xFF MUL NOT AND SWAP1 DUP4 PUSH1 0x3 DUP2 GT ISZERO PUSH2 0x27A JUMPI PUSH2 0x279 PUSH2 0x875 JUMP JUMPDEST JUMPDEST MUL OR SWAP1 SSTORE POP PUSH1 0x20 DUP3 ADD MLOAD DUP2 PUSH1 0x1 ADD SSTORE PUSH1 0x40 DUP3 ADD MLOAD DUP2 PUSH1 0x2 ADD SWAP1 DUP2 PUSH2 0x29E SWAP2 SWAP1 PUSH2 0xD65 JUMP JUMPDEST POP PUSH1 0x60 DUP3 ADD MLOAD DUP2 PUSH1 0x3 ADD SSTORE PUSH1 0x80 DUP3 ADD MLOAD DUP2 PUSH1 0x4 ADD PUSH0 PUSH2 0x100 EXP DUP2 SLOAD DUP2 PUSH1 0xFF MUL NOT AND SWAP1 DUP4 ISZERO ISZERO MUL OR SWAP1 SSTORE POP POP POP PUSH1 0x1 DUP1 PUSH0 DUP6 DUP2 MSTORE PUSH1 0x20 ADD SWAP1 DUP2 MSTORE PUSH1 0x20 ADD PUSH0 KECCAK256 PUSH0 PUSH2 0x100 EXP DUP2 SLOAD DUP2 PUSH1 0xFF MUL NOT AND SWAP1 DUP4 ISZERO ISZERO MUL OR SWAP1 SSTORE POP DUP3 PUSH32 0x8AECEACC22AF9FEF3C689C2EE4DCB159ECC527F41F6D2994D6180AF5EAC23413 DUP6 DUP5 DUP5 PUSH1 0x40 MLOAD PUSH2 0x326 SWAP4 SWAP3 SWAP2 SWAP1 PUSH2 0xE6E JUMP JUMPDEST PUSH1 0x40 MLOAD DUP1 SWAP2 SUB SWAP1 LOG2 POP POP POP POP JUMP JUMPDEST PUSH1 0x1 PUSH0 DUP3 DUP2 MSTORE PUSH1 0x20 ADD SWAP1 DUP2 MSTORE PUSH1 0x20 ADD PUSH0 KECCAK256 PUSH0 SWAP1 SLOAD SWAP1 PUSH2 0x100 EXP SWAP1 DIV PUSH1 0xFF AND PUSH2 0x391 JUMPI PUSH1 0x40 MLOAD PUSH32 0x8C379A000000000000000000000000000000000000000000000000000000000 DUP2 MSTORE PUSH1 0x4 ADD PUSH2 0x388 SWAP1 PUSH2 0xEE8 JUMP JUMPDEST PUSH1 0x40 MLOAD DUP1 SWAP2 SUB SWAP1 REVERT JUMPDEST PUSH0 PUSH1 0x1 PUSH0 DUP4 DUP2 MSTORE PUSH1 0x20 ADD SWAP1 DUP2 MSTORE PUSH1 0x20 ADD PUSH0 KECCAK256 PUSH0 PUSH2 0x100 EXP DUP2 SLOAD DUP2 PUSH1 0xFF MUL NOT AND SWAP1 DUP4 ISZERO ISZERO MUL OR SWAP1 SSTORE POP DUP1 PUSH32 0xE0C972902B8C453716A2A401AD60D945B4086632729C2E7D8C45843E386DA569 PUSH1 0x40 MLOAD PUSH1 0x40 MLOAD DUP1 SWAP2 SUB SWAP1 LOG2 POP JUMP JUMPDEST PUSH0 DUP1 DUP1 SLOAD SWAP1 POP SWAP1 POP SWAP1 JUMP JUMPDEST PUSH1 0x1 PUSH1 0x20 MSTORE DUP1 PUSH0 MSTORE PUSH1 0x40 PUSH0 KECCAK256 PUSH0 SWAP2 POP SLOAD SWAP1 PUSH2 0x100 EXP SWAP1 DIV PUSH1 0xFF AND DUP2 JUMP JUMPDEST PUSH2 0x419 PUSH2 0x61F JUMP JUMPDEST PUSH0 DUP3 DUP2 SLOAD DUP2 LT PUSH2 0x42C JUMPI PUSH2 0x42B PUSH2 0xF06 JUMP JUMPDEST JUMPDEST SWAP1 PUSH0 MSTORE PUSH1 0x20 PUSH0 KECCAK256 SWAP1 PUSH1 0x5 MUL ADD PUSH1 0x40 MLOAD DUP1 PUSH1 0xA0 ADD PUSH1 0x40 MSTORE SWAP1 DUP2 PUSH0 DUP3 ADD PUSH0 SWAP1 SLOAD SWAP1 PUSH2 0x100 EXP SWAP1 DIV PUSH1 0xFF AND PUSH1 0x3 DUP2 GT ISZERO PUSH2 0x466 JUMPI PUSH2 0x465 PUSH2 0x875 JUMP JUMPDEST JUMPDEST PUSH1 0x3 DUP2 GT ISZERO PUSH2 0x478 JUMPI PUSH2 0x477 PUSH2 0x875 JUMP JUMPDEST JUMPDEST DUP2 MSTORE PUSH1 0x20 ADD PUSH1 0x1 DUP3 ADD SLOAD DUP2 MSTORE PUSH1 0x20 ADD PUSH1 0x2 DUP3 ADD DUP1 SLOAD PUSH2 0x496 SWAP1 PUSH2 0xB98 JUMP JUMPDEST DUP1 PUSH1 0x1F ADD PUSH1 0x20 DUP1 SWAP2 DIV MUL PUSH1 0x20 ADD PUSH1 0x40 MLOAD SWAP1 DUP2 ADD PUSH1 0x40 MSTORE DUP1 SWAP3 SWAP2 SWAP1 DUP2 DUP2 MSTORE PUSH1 0x20 ADD DUP3 DUP1 SLOAD PUSH2 0x4C2 SWAP1 PUSH2 0xB98 JUMP JUMPDEST DUP1 ISZERO PUSH2 0x50D JUMPI DUP1 PUSH1 0x1F LT PUSH2 0x4E4 JUMPI PUSH2 0x100 DUP1 DUP4 SLOAD DIV MUL DUP4 MSTORE SWAP2 PUSH1 0x20 ADD SWAP2 PUSH2 0x50D JUMP JUMPDEST DUP3 ADD SWAP2 SWAP1 PUSH0 MSTORE PUSH1 0x20 PUSH0 KECCAK256 SWAP1 JUMPDEST DUP2 SLOAD DUP2 MSTORE SWAP1 PUSH1 0x1 ADD SWAP1 PUSH1 0x20 ADD DUP1 DUP4 GT PUSH2 0x4F0 JUMPI DUP3 SWAP1 SUB PUSH1 0x1F AND DUP3 ADD SWAP2 JUMPDEST POP POP POP POP POP DUP2 MSTORE PUSH1 0x20 ADD PUSH1 0x3 DUP3 ADD SLOAD DUP2 MSTORE PUSH1 0x20 ADD PUSH1 0x4 DUP3 ADD PUSH0 SWAP1 SLOAD SWAP1 PUSH2 0x100 EXP SWAP1 DIV PUSH1 0xFF AND ISZERO ISZERO ISZERO ISZERO DUP2 MSTORE POP POP SWAP1 POP SWAP2 SWAP1 POP JUMP JUMPDEST PUSH0 DUP2 DUP2 SLOAD DUP2 LT PUSH2 0x54F JUMPI PUSH0 DUP1 REVERT JUMPDEST SWAP1 PUSH0 MSTORE PUSH1 0x20 PUSH0 KECCAK256 SWAP1 PUSH1 0x5 MUL ADD PUSH0 SWAP2 POP SWAP1 POP DUP1 PUSH0 ADD PUSH0 SWAP1 SLOAD SWAP1 PUSH2 0x100 EXP SWAP1 DIV PUSH1 0xFF AND SWAP1 DUP1 PUSH1 0x1 ADD SLOAD SWAP1 DUP1 PUSH1 0x2 ADD DUP1 SLOAD PUSH2 0x586 SWAP1 PUSH2 0xB98 JUMP JUMPDEST DUP1 PUSH1 0x1F ADD PUSH1 0x20 DUP1 SWAP2 DIV MUL PUSH1 0x20 ADD PUSH1 0x40 MLOAD SWAP1 DUP2 ADD PUSH1 0x40 MSTORE DUP1 SWAP3 SWAP2 SWAP1 DUP2 DUP2 MSTORE PUSH1 0x20 ADD DUP3 DUP1 SLOAD PUSH2 0x5B2 SWAP1 PUSH2 0xB98 JUMP JUMPDEST DUP1 ISZERO PUSH2 0x5FD JUMPI DUP1 PUSH1 0x1F LT PUSH2 0x5D4 JUMPI PUSH2 0x100 DUP1 DUP4 SLOAD DIV MUL DUP4 MSTORE SWAP2 PUSH1 0x20 ADD SWAP2 PUSH2 0x5FD JUMP JUMPDEST DUP3 ADD SWAP2 SWAP1 PUSH0 MSTORE PUSH1 0x20 PUSH0 KECCAK256 SWAP1 JUMPDEST DUP2 SLOAD DUP2 MSTORE SWAP1 PUSH1 0x1 ADD SWAP1 PUSH1 0x20 ADD DUP1 DUP4 GT PUSH2 0x5E0 JUMPI DUP3 SWAP1 SUB PUSH1 0x1F AND DUP3 ADD SWAP2 JUMPDEST POP POP POP POP POP SWAP1 DUP1 PUSH1 0x3 ADD SLOAD SWAP1 DUP1 PUSH1 0x4 ADD PUSH0 SWAP1 SLOAD SWAP1 PUSH2 0x100 EXP SWAP1 DIV PUSH1 0xFF AND SWAP1 POP DUP6 JUMP JUMPDEST PUSH1 0x40 MLOAD DUP1 PUSH1 0xA0 ADD PUSH1 0x40 MSTORE DUP1 PUSH0 PUSH1 0x3 DUP2 GT ISZERO PUSH2 0x63D JUMPI PUSH2 0x63C PUSH2 0x875 JUMP JUMPDEST JUMPDEST DUP2 MSTORE PUSH1 0x20 ADD PUSH0 DUP1 NOT AND DUP2 MSTORE PUSH1 0x20 ADD PUSH1 0x60 DUP2 MSTORE PUSH1 0x20 ADD PUSH0 DUP2 MSTORE PUSH1 0x20 ADD PUSH0 ISZERO ISZERO DUP2 MSTORE POP SWAP1 JUMP JUMPDEST PUSH0 DUP1 REVERT JUMPDEST PUSH0 DUP1 REVERT JUMPDEST PUSH1 0x4 DUP2 LT PUSH2 0x675 JUMPI PUSH0 DUP1 REVERT JUMPDEST POP JUMP JUMPDEST PUSH0 DUP2 CALLDATALOAD SWAP1 POP PUSH2 0x686 DUP2 PUSH2 0x669 JUMP JUMPDEST SWAP3 SWAP2 POP POP JUMP JUMPDEST PUSH0 DUP2 SWAP1 POP SWAP2 SWAP1 POP JUMP JUMPDEST PUSH2 0x69E DUP2 PUSH2 0x68C JUMP JUMPDEST DUP2 EQ PUSH2 0x6A8 JUMPI PUSH0 DUP1 REVERT JUMPDEST POP JUMP JUMPDEST PUSH0 DUP2 CALLDATALOAD SWAP1 POP PUSH2 0x6B9 DUP2 PUSH2 0x695 JUMP JUMPDEST SWAP3 SWAP2 POP POP JUMP JUMPDEST PUSH0 DUP1 REVERT JUMPDEST PUSH0 DUP1 REVERT JUMPDEST PUSH0 DUP1 REVERT JUMPDEST PUSH0 DUP1 DUP4 PUSH1 0x1F DUP5 ADD SLT PUSH2 0x6E0 JUMPI PUSH2 0x6DF PUSH2 0x6BF JUMP JUMPDEST JUMPDEST DUP3 CALLDATALOAD SWAP1 POP PUSH8 0xFFFFFFFFFFFFFFFF DUP2 GT ISZERO PUSH2 0x6FD JUMPI PUSH2 0x6FC PUSH2 0x6C3 JUMP JUMPDEST JUMPDEST PUSH1 0x20 DUP4 ADD SWAP2 POP DUP4 PUSH1 0x1 DUP3 MUL DUP4 ADD GT ISZERO PUSH2 0x719 JUMPI PUSH2 0x718 PUSH2 0x6C7 JUMP JUMPDEST JUMPDEST SWAP3 POP SWAP3 SWAP1 POP JUMP JUMPDEST PUSH0 DUP1 PUSH0 DUP1 PUSH1 0x60 DUP6 DUP8 SUB SLT ISZERO PUSH2 0x738 JUMPI PUSH2 0x737 PUSH2 0x661 JUMP JUMPDEST JUMPDEST PUSH0 PUSH2 0x745 DUP8 DUP3 DUP9 ADD PUSH2 0x678 JUMP JUMPDEST SWAP5 POP POP PUSH1 0x20 PUSH2 0x756 DUP8 DUP3 DUP9 ADD PUSH2 0x6AB JUMP JUMPDEST SWAP4 POP POP PUSH1 0x40 DUP6 ADD CALLDATALOAD PUSH8 0xFFFFFFFFFFFFFFFF DUP2 GT ISZERO PUSH2 0x777 JUMPI PUSH2 0x776 PUSH2 0x665 JUMP JUMPDEST JUMPDEST PUSH2 0x783 DUP8 DUP3 DUP9 ADD PUSH2 0x6CB JUMP JUMPDEST SWAP3 POP SWAP3 POP POP SWAP3 SWAP6 SWAP2 SWAP5 POP SWAP3 POP JUMP JUMPDEST PUSH0 PUSH1 0x20 DUP3 DUP5 SUB SLT ISZERO PUSH2 0x7A6 JUMPI PUSH2 0x7A5 PUSH2 0x661 JUMP JUMPDEST JUMPDEST PUSH0 PUSH2 0x7B3 DUP5 DUP3 DUP6 ADD PUSH2 0x6AB JUMP JUMPDEST SWAP2 POP POP SWAP3 SWAP2 POP POP JUMP JUMPDEST PUSH0 DUP2 SWAP1 POP SWAP2 SWAP1 POP JUMP JUMPDEST PUSH2 0x7CE DUP2 PUSH2 0x7BC JUMP JUMPDEST DUP3 MSTORE POP POP JUMP JUMPDEST PUSH0 PUSH1 0x20 DUP3 ADD SWAP1 POP PUSH2 0x7E7 PUSH0 DUP4 ADD DUP5 PUSH2 0x7C5 JUMP JUMPDEST SWAP3 SWAP2 POP POP JUMP JUMPDEST PUSH0 DUP2 ISZERO ISZERO SWAP1 POP SWAP2 SWAP1 POP JUMP JUMPDEST PUSH2 0x801 DUP2 PUSH2 0x7ED JUMP JUMPDEST DUP3 MSTORE POP POP JUMP JUMPDEST PUSH0 PUSH1 0x20 DUP3 ADD SWAP1 POP PUSH2 0x81A PUSH0 DUP4 ADD DUP5 PUSH2 0x7F8 JUMP JUMPDEST SWAP3 SWAP2 POP POP JUMP JUMPDEST PUSH2 0x829 DUP2 PUSH2 0x7BC JUMP JUMPDEST DUP2 EQ PUSH2 0x833 JUMPI PUSH0 DUP1 REVERT JUMPDEST POP JUMP JUMPDEST PUSH0 DUP2 CALLDATALOAD SWAP1 POP PUSH2 0x844 DUP2 PUSH2 0x820 JUMP JUMPDEST SWAP3 SWAP2 POP POP JUMP JUMPDEST PUSH0 PUSH1 0x20 DUP3 DUP5 SUB SLT ISZERO PUSH2 0x85F JUMPI PUSH2 0x85E PUSH2 0x661 JUMP JUMPDEST JUMPDEST PUSH0 PUSH2 0x86C DUP5 DUP3 DUP6 ADD PUSH2 0x836 JUMP JUMPDEST SWAP2 POP POP SWAP3 SWAP2 POP POP JUMP JUMPDEST PUSH32 0x4E487B7100000000000000000000000000000000000000000000000000000000 PUSH0 MSTORE PUSH1 0x21 PUSH1 0x4 MSTORE PUSH1 0x24 PUSH0 REVERT JUMPDEST PUSH1 0x4 DUP2 LT PUSH2 0x8B3 JUMPI PUSH2 0x8B2 PUSH2 0x875 JUMP JUMPDEST JUMPDEST POP JUMP JUMPDEST PUSH0 DUP2 SWAP1 POP PUSH2 0x8C3 DUP3 PUSH2 0x8A2 JUMP JUMPDEST SWAP2 SWAP1 POP JUMP JUMPDEST PUSH0 PUSH2 0x8D2 DUP3 PUSH2 0x8B6 JUMP JUMPDEST SWAP1 POP SWAP2 SWAP1 POP JUMP JUMPDEST PUSH2 0x8E2 DUP2 PUSH2 0x8C8 JUMP JUMPDEST DUP3 MSTORE POP POP JUMP JUMPDEST PUSH2 0x8F1 DUP2 PUSH2 0x68C JUMP JUMPDEST DUP3 MSTORE POP POP JUMP JUMPDEST PUSH0 DUP2 MLOAD SWAP1 POP SWAP2 SWAP1 POP JUMP JUMPDEST PUSH0 DUP3 DUP3 MSTORE PUSH1 0x20 DUP3 ADD SWAP1 POP SWAP3 SWAP2 POP POP JUMP JUMPDEST DUP3 DUP2 DUP4 MCOPY PUSH0 DUP4 DUP4 ADD MSTORE POP POP POP JUMP JUMPDEST PUSH0 PUSH1 0x1F NOT PUSH1 0x1F DUP4 ADD AND SWAP1 POP SWAP2 SWAP1 POP JUMP JUMPDEST PUSH0 PUSH2 0x939 DUP3 PUSH2 0x8F7 JUMP JUMPDEST PUSH2 0x943 DUP2 DUP6 PUSH2 0x901 JUMP JUMPDEST SWAP4 POP PUSH2 0x953 DUP2 DUP6 PUSH1 0x20 DUP7 ADD PUSH2 0x911 JUMP JUMPDEST PUSH2 0x95C DUP2 PUSH2 0x91F JUMP JUMPDEST DUP5 ADD SWAP2 POP POP SWAP3 SWAP2 POP POP JUMP JUMPDEST PUSH2 0x970 DUP2 PUSH2 0x7BC JUMP JUMPDEST DUP3 MSTORE POP POP JUMP JUMPDEST PUSH2 0x97F DUP2 PUSH2 0x7ED JUMP JUMPDEST DUP3 MSTORE POP POP JUMP JUMPDEST PUSH0 PUSH1 0xA0 DUP4 ADD PUSH0 DUP4 ADD MLOAD PUSH2 0x99A PUSH0 DUP7 ADD DUP3 PUSH2 0x8D9 JUMP JUMPDEST POP PUSH1 0x20 DUP4 ADD MLOAD PUSH2 0x9AD PUSH1 0x20 DUP7 ADD DUP3 PUSH2 0x8E8 JUMP JUMPDEST POP PUSH1 0x40 DUP4 ADD MLOAD DUP5 DUP3 SUB PUSH1 0x40 DUP7 ADD MSTORE PUSH2 0x9C5 DUP3 DUP3 PUSH2 0x92F JUMP JUMPDEST SWAP2 POP POP PUSH1 0x60 DUP4 ADD MLOAD PUSH2 0x9DA PUSH1 0x60 DUP7 ADD DUP3 PUSH2 0x967 JUMP JUMPDEST POP PUSH1 0x80 DUP4 ADD MLOAD PUSH2 0x9ED PUSH1 0x80 DUP7 ADD DUP3 PUSH2 0x976 JUMP JUMPDEST POP DUP1 SWAP2 POP POP SWAP3 SWAP2 POP POP JUMP JUMPDEST PUSH0 PUSH1 0x20 DUP3 ADD SWAP1 POP DUP2 DUP2 SUB PUSH0 DUP4 ADD MSTORE PUSH2 0xA10 DUP2 DUP5 PUSH2 0x985 JUMP JUMPDEST SWAP1 POP SWAP3 SWAP2 POP POP JUMP JUMPDEST PUSH2 0xA21 DUP2 PUSH2 0x8C8 JUMP JUMPDEST DUP3 MSTORE POP POP JUMP JUMPDEST PUSH2 0xA30 DUP2 PUSH2 0x68C JUMP JUMPDEST DUP3 MSTORE POP POP JUMP JUMPDEST PUSH0 DUP3 DUP3 MSTORE PUSH1 0x20 DUP3 ADD SWAP1 POP SWAP3 SWAP2 POP POP JUMP JUMPDEST PUSH0 PUSH2 0xA50 DUP3 PUSH2 0x8F7 JUMP JUMPDEST PUSH2 0xA5A DUP2 DUP6 PUSH2 0xA36 JUMP JUMPDEST SWAP4 POP PUSH2 0xA6A DUP2 DUP6 PUSH1 0x20 DUP7 ADD PUSH2 0x911 JUMP JUMPDEST PUSH2 0xA73 DUP2 PUSH2 0x91F JUMP JUMPDEST DUP5 ADD SWAP2 POP POP SWAP3 SWAP2 POP POP JUMP JUMPDEST PUSH0 PUSH1 0xA0 DUP3 ADD SWAP1 POP PUSH2 0xA91 PUSH0 DUP4 ADD DUP9 PUSH2 0xA18 JUMP JUMPDEST PUSH2 0xA9E PUSH1 0x20 DUP4 ADD DUP8 PUSH2 0xA27 JUMP JUMPDEST DUP2 DUP2 SUB PUSH1 0x40 DUP4 ADD MSTORE PUSH2 0xAB0 DUP2 DUP7 PUSH2 0xA46 JUMP JUMPDEST SWAP1 POP PUSH2 0xABF PUSH1 0x60 DUP4 ADD DUP6 PUSH2 0x7C5 JUMP JUMPDEST PUSH2 0xACC PUSH1 0x80 DUP4 ADD DUP5 PUSH2 0x7F8 JUMP JUMPDEST SWAP7 SWAP6 POP POP POP POP POP POP JUMP JUMPDEST PUSH32 0x416C726561647920657869737473000000000000000000000000000000000000 PUSH0 DUP3 ADD MSTORE POP JUMP JUMPDEST PUSH0 PUSH2 0xB0A PUSH1 0xE DUP4 PUSH2 0xA36 JUMP JUMPDEST SWAP2 POP PUSH2 0xB15 DUP3 PUSH2 0xAD6 JUMP JUMPDEST PUSH1 0x20 DUP3 ADD SWAP1 POP SWAP2 SWAP1 POP JUMP JUMPDEST PUSH0 PUSH1 0x20 DUP3 ADD SWAP1 POP DUP2 DUP2 SUB PUSH0 DUP4 ADD MSTORE PUSH2 0xB37 DUP2 PUSH2 0xAFE JUMP JUMPDEST SWAP1 POP SWAP2 SWAP1 POP JUMP JUMPDEST PUSH32 0x4E487B7100000000000000000000000000000000000000000000000000000000 PUSH0 MSTORE PUSH1 0x41 PUSH1 0x4 MSTORE PUSH1 0x24 PUSH0 REVERT JUMPDEST PUSH32 0x4E487B7100000000000000000000000000000000000000000000000000000000 PUSH0 MSTORE PUSH1 0x22 PUSH1 0x4 MSTORE PUSH1 0x24 PUSH0 REVERT JUMPDEST PUSH0 PUSH1 0x2 DUP3 DIV SWAP1 POP PUSH1 0x1 DUP3 AND DUP1 PUSH2 0xBAF JUMPI PUSH1 0x7F DUP3 AND SWAP2 POP JUMPDEST PUSH1 0x20 DUP3 LT DUP2 SUB PUSH2 0xBC2 JUMPI PUSH2 0xBC1 PUSH2 0xB6B JUMP JUMPDEST JUMPDEST POP SWAP2 SWAP1 POP JUMP JUMPDEST PUSH0 DUP2 SWAP1 POP DUP2 PUSH0 MSTORE PUSH1 0x20 PUSH0 KECCAK256 SWAP1 POP SWAP2 SWAP1 POP JUMP JUMPDEST PUSH0 PUSH1 0x20 PUSH1 0x1F DUP4 ADD DIV SWAP1 POP SWAP2 SWAP1 POP JUMP JUMPDEST PUSH0 DUP3 DUP3 SHL SWAP1 POP SWAP3 SWAP2 POP POP JUMP JUMPDEST PUSH0 PUSH1 0x8 DUP4 MUL PUSH2 0xC24 PUSH32 0xFFFFFFFFFFFFFFFFFFFFFFFFFFFFFFFFFFFFFFFFFFFFFFFFFFFFFFFFFFFFFFFF DUP3 PUSH2 0xBE9 JUMP JUMPDEST PUSH2 0xC2E DUP7 DUP4 PUSH2 0xBE9 JUMP JUMPDEST SWAP6 POP DUP1 NOT DUP5 AND SWAP4 POP DUP1 DUP7 AND DUP5 OR SWAP3 POP POP POP SWAP4 SWAP3 POP POP POP JUMP JUMPDEST PUSH0 DUP2 SWAP1 POP SWAP2 SWAP1 POP JUMP JUMPDEST PUSH0 PUSH2 0xC69 PUSH2 0xC64 PUSH2 0xC5F DUP5 PUSH2 0x7BC JUMP JUMPDEST PUSH2 0xC46 JUMP JUMPDEST PUSH2 0x7BC JUMP JUMPDEST SWAP1 POP SWAP2 SWAP1 POP JUMP JUMPDEST PUSH0 DUP2 SWAP1 POP SWAP2 SWAP1 POP JUMP JUMPDEST PUSH2 0xC82 DUP4 PUSH2 0xC4F JUMP JUMPDEST PUSH2 0xC96 PUSH2 0xC8E DUP3 PUSH2 0xC70 JUMP JUMPDEST DUP5 DUP5 SLOAD PUSH2 0xBF5 JUMP JUMPDEST DUP3 SSTORE POP POP POP POP JUMP JUMPDEST PUSH0 SWAP1 JUMP JUMPDEST PUSH2 0xCAA PUSH2 0xC9E JUMP JUMPDEST PUSH2 0xCB5 DUP2 DUP5 DUP5 PUSH2 0xC79 JUMP JUMPDEST POP POP POP JUMP JUMPDEST JUMPDEST DUP2 DUP2 LT ISZERO PUSH2 0xCD8 JUMPI PUSH2 0xCCD PUSH0 DUP3 PUSH2 0xCA2 JUMP JUMPDEST PUSH1 0x1 DUP2 ADD SWAP1 POP PUSH2 0xCBB JUMP JUMPDEST POP POP JUMP JUMPDEST PUSH1 0x1F DUP3 GT ISZERO PUSH2 0xD1D JUMPI PUSH2 0xCEE DUP2 PUSH2 0xBC8 JUMP JUMPDEST PUSH2 0xCF7 DUP5 PUSH2 0xBDA JUMP JUMPDEST DUP2 ADD PUSH1 0x20 DUP6 LT ISZERO PUSH2 0xD06 JUMPI DUP2 SWAP1 POP JUMPDEST PUSH2 0xD1A PUSH2 0xD12 DUP6 PUSH2 0xBDA JUMP JUMPDEST DUP4 ADD DUP3 PUSH2 0xCBA JUMP JUMPDEST POP POP JUMPDEST POP POP POP JUMP JUMPDEST PUSH0 DUP3 DUP3 SHR SWAP1 POP SWAP3 SWAP2 POP POP JUMP JUMPDEST PUSH0 PUSH2 0xD3D PUSH0 NOT DUP5 PUSH1 0x8 MUL PUSH2 0xD22 JUMP JUMPDEST NOT DUP1 DUP4 AND SWAP2 POP POP SWAP3 SWAP2 POP POP JUMP JUMPDEST PUSH0 PUSH2 0xD55 DUP4 DUP4 PUSH2 0xD2E JUMP JUMPDEST SWAP2 POP DUP3 PUSH1 0x2 MUL DUP3 OR SWAP1 POP SWAP3 SWAP2 POP POP JUMP JUMPDEST PUSH2 0xD6E DUP3 PUSH2 0x8F7 JUMP JUMPDEST PUSH8 0xFFFFFFFFFFFFFFFF DUP2 GT ISZERO PUSH2 0xD87 JUMPI PUSH2 0xD86 PUSH2 0xB3E JUMP JUMPDEST JUMPDEST PUSH2 0xD91 DUP3 SLOAD PUSH2 0xB98 JUMP JUMPDEST PUSH2 0xD9C DUP3 DUP3 DUP6 PUSH2 0xCDC JUMP JUMPDEST PUSH0 PUSH1 0x20 SWAP1 POP PUSH1 0x1F DUP4 GT PUSH1 0x1 DUP2 EQ PUSH2 0xDCD JUMPI PUSH0 DUP5 ISZERO PUSH2 0xDBB JUMPI DUP3 DUP8 ADD MLOAD SWAP1 POP JUMPDEST PUSH2 0xDC5 DUP6 DUP3 PUSH2 0xD4A JUMP JUMPDEST DUP7 SSTORE POP PUSH2 0xE2C JUMP JUMPDEST PUSH1 0x1F NOT DUP5 AND PUSH2 0xDDB DUP7 PUSH2 0xBC8 JUMP JUMPDEST PUSH0 JUMPDEST DUP3 DUP2 LT ISZERO PUSH2 0xE02 JUMPI DUP5 DUP10 ADD MLOAD DUP3 SSTORE PUSH1 0x1 DUP3 ADD SWAP2 POP PUSH1 0x20 DUP6 ADD SWAP5 POP PUSH1 0x20 DUP2 ADD SWAP1 POP PUSH2 0xDDD JUMP JUMPDEST DUP7 DUP4 LT ISZERO PUSH2 0xE1F JUMPI DUP5 DUP10 ADD MLOAD PUSH2 0xE1B PUSH1 0x1F DUP10 AND DUP3 PUSH2 0xD2E JUMP JUMPDEST DUP4 SSTORE POP JUMPDEST PUSH1 0x1 PUSH1 0x2 DUP9 MUL ADD DUP9 SSTORE POP POP POP JUMPDEST POP POP POP POP POP POP JUMP JUMPDEST DUP3 DUP2 DUP4 CALLDATACOPY PUSH0 DUP4 DUP4 ADD MSTORE POP POP POP JUMP JUMPDEST PUSH0 PUSH2 0xE4D DUP4 DUP6 PUSH2 0xA36 JUMP JUMPDEST SWAP4 POP PUSH2 0xE5A DUP4 DUP6 DUP5 PUSH2 0xE34 JUMP JUMPDEST PUSH2 0xE63 DUP4 PUSH2 0x91F JUMP JUMPDEST DUP5 ADD SWAP1 POP SWAP4 SWAP3 POP POP POP JUMP JUMPDEST PUSH0 PUSH1 0x40 DUP3 ADD SWAP1 POP PUSH2 0xE81 PUSH0 DUP4 ADD DUP7 PUSH2 0xA18 JUMP JUMPDEST DUP2 DUP2 SUB PUSH1 0x20 DUP4 ADD MSTORE PUSH2 0xE94 DUP2 DUP5 DUP7 PUSH2 0xE42 JUMP JUMPDEST SWAP1 POP SWAP5 SWAP4 POP POP POP POP JUMP JUMPDEST PUSH32 0x4E6F7420666F756E640000000000000000000000000000000000000000000000 PUSH0 DUP3 ADD MSTORE POP JUMP JUMPDEST PUSH0 PUSH2 0xED2 PUSH1 0x9 DUP4 PUSH2 0xA36 JUMP JUMPDEST SWAP2 POP PUSH2 0xEDD DUP3 PUSH2 0xE9E JUMP JUMPDEST PUSH1 0x20 DUP3 ADD SWAP1 POP SWAP2 SWAP1 POP JUMP JUMPDEST PUSH0 PUSH1 0x20 DUP3 ADD SWAP1 POP DUP2 DUP2 SUB PUSH0 DUP4 ADD MSTORE PUSH2 0xEFF DUP2 PUSH2 0xEC6 JUMP JUMPDEST SWAP1 POP SWAP2 SWAP1 POP JUMP JUMPDEST PUSH32 0x4E487B7100000000000000000000000000000000000000000000000000000000 PUSH0 MSTORE PUSH1 0x32 PUSH1 0x4 MSTORE PUSH1 0x24 PUSH0 REVERT INVALID LOG2 PUSH5 0x6970667358 0x22 SLT KECCAK256 MSTORE 0xA7 0xC5 SWAP4 PREVRANDAO 0xE 0x23 0xE7 JUMPI 0xD SWAP8 0x27 0xAF 0x2D GASPRICE PUSH15 0x2644EF3AD635964EE66F2169227B9D GAS PUSH5 0x736F6C6343 STOP ADDMOD BYTE STOP CALLER "
				},
				"gasEstimates": {
					"creation": {
						"codeDepositCost": "789000",
						"executionCost": "823",
						"totalCost": "789823"
					},
					"external": {
						"deactivate(bytes32)": "28125",
						"entries(uint256)": "infinite",
						"exists(bytes32)": "2829",
						"get(uint256)": "infinite",
						"register(uint8,bytes32,string)": "infinite",
						"total()": "2462"
					}
				},
				"methodIdentifiers": {
					"deactivate(bytes32)": "22eee84c",
					"entries(uint256)": "b30906d4",
					"exists(bytes32)": "38a699a4",
					"get(uint256)": "9507d39a",
					"register(uint8,bytes32,string)": "1475a777",
					"total()": "2ddbd13a"
				}
			},
			"storageLayout": {
				"storage": [
					{
						"astId": 22,
						"contract": "R/Registry/UniversalRegistry.sol:UniversalRegistry",
						"label": "entries",
						"offset": 0,
						"slot": "0",
						"type": "t_array(t_struct(Entry)18_storage)dyn_storage"
					},
					{
						"astId": 26,
						"contract": "R/Registry/UniversalRegistry.sol:UniversalRegistry",
						"label": "exists",
						"offset": 0,
						"slot": "1",
						"type": "t_mapping(t_bytes32,t_bool)"
					}
				],
				"types": {
					"t_array(t_struct(Entry)18_storage)dyn_storage": {
						"base": "t_struct(Entry)18_storage",
						"encoding": "dynamic_array",
						"label": "struct UniversalRegistry.Entry[]",
						"numberOfBytes": "32"
					},
					"t_bool": {
						"encoding": "inplace",
						"label": "bool",
						"numberOfBytes": "1"
					},
					"t_bytes32": {
						"encoding": "inplace",
						"label": "bytes32",
						"numberOfBytes": "32"
					},
					"t_enum(EntryType)6": {
						"encoding": "inplace",
						"label": "enum UniversalRegistry.EntryType",
						"numberOfBytes": "1"
					},
					"t_mapping(t_bytes32,t_bool)": {
						"encoding": "mapping",
						"key": "t_bytes32",
						"label": "mapping(bytes32 => bool)",
						"numberOfBytes": "32",
						"value": "t_bool"
					},
					"t_string_storage": {
						"encoding": "bytes",
						"label": "string",
						"numberOfBytes": "32"
					},
					"t_struct(Entry)18_storage": {
						"encoding": "inplace",
						"label": "struct UniversalRegistry.Entry",
						"members": [
							{
								"astId": 9,
								"contract": "R/Registry/UniversalRegistry.sol:UniversalRegistry",
								"label": "kind",
								"offset": 0,
								"slot": "0",
								"type": "t_enum(EntryType)6"
							},
							{
								"astId": 11,
								"contract": "R/Registry/UniversalRegistry.sol:UniversalRegistry",
								"label": "value",
								"offset": 0,
								"slot": "1",
								"type": "t_bytes32"
							},
							{
								"astId": 13,
								"contract": "R/Registry/UniversalRegistry.sol:UniversalRegistry",
								"label": "tag",
								"offset": 0,
								"slot": "2",
								"type": "t_string_storage"
							},
							{
								"astId": 15,
								"contract": "R/Registry/UniversalRegistry.sol:UniversalRegistry",
								"label": "addedAt",
								"offset": 0,
								"slot": "3",
								"type": "t_uint256"
							},
							{
								"astId": 17,
								"contract": "R/Registry/UniversalRegistry.sol:UniversalRegistry",
								"label": "active",
								"offset": 0,
								"slot": "4",
								"type": "t_bool"
							}
						],
						"numberOfBytes": "160"
					},
					"t_uint256": {
						"encoding": "inplace",
						"label": "uint256",
						"numberOfBytes": "32"
					}
				}
			},
			"userdoc": {
				"kind": "user",
				"methods": {},
				"version": 1
			}
		}
	}
}