{
	"B/Boot record infector/type 4 Route Path Checksum Verification.sol": {
		"RouteChecksumVerifier": {
			"abi": [
				{
					"inputs": [
						{
							"internalType": "string",
							"name": "route",
							"type": "string"
						},
						{
							"internalType": "bytes32",
							"name": "expectedHash",
							"type": "bytes32"
						}
					],
					"name": "verifyRouteChecksum",
					"outputs": [
						{
							"internalType": "bool",
							"name": "",
							"type": "bool"
						}
					],
					"stateMutability": "pure",
					"type": "function"
				}
			],
			"devdoc": {
				"kind": "dev",
				"methods": {},
				"version": 1
			},
			"evm": {
				"assembly": "    /* \"B/Boot record infector/type 4 Route Path Checksum Verification.sol\":0:214  contract RouteChecksumVerifier {... */\n  mstore(0x40, 0x80)\n  callvalue\n  dup1\n  iszero\n  tag_1\n  jumpi\n  revert(0x00, 0x00)\ntag_1:\n  pop\n  dataSize(sub_0)\n  dup1\n  dataOffset(sub_0)\n  0x00\n  codecopy\n  0x00\n  return\nstop\n\nsub_0: assembly {\n        /* \"B/Boot record infector/type 4 Route Path Checksum Verification.sol\":0:214  contract RouteChecksumVerifier {... */\n      mstore(0x40, 0x80)\n      callvalue\n      dup1\n      iszero\n      tag_1\n      jumpi\n      revert(0x00, 0x00)\n    tag_1:\n      pop\n      jumpi(tag_2, lt(calldatasize, 0x04))\n      shr(0xe0, calldataload(0x00))\n      dup1\n      0xca90dd05\n      eq\n      tag_3\n      jumpi\n    tag_2:\n      revert(0x00, 0x00)\n        /* \"B/Boot record infector/type 4 Route Path Checksum Verification.sol\":37:212  function verifyRouteChecksum(string calldata route, bytes32 expectedHash) public pure returns (bool) {... */\n    tag_3:\n      tag_4\n      0x04\n      dup1\n      calldatasize\n      sub\n      dup2\n      add\n      swap1\n      tag_5\n      swap2\n      swap1\n      tag_6\n      jump\t// in\n    tag_5:\n      tag_7\n      jump\t// in\n    tag_4:\n      mload(0x40)\n      tag_8\n      swap2\n      swap1\n      tag_9\n      jump\t// in\n    tag_8:\n      mload(0x40)\n      dup1\n      swap2\n      sub\n      swap1\n      return\n    tag_7:\n        /* \"B/Boot record infector/type 4 Route Path Checksum Verification.sol\":132:136  bool */\n      0x00\n        /* \"B/Boot record infector/type 4 Route Path Checksum Verification.sol\":193:205  expectedHash */\n      dup2\n        /* \"B/Boot record infector/type 4 Route Path Checksum Verification.sol\":182:187  route */\n      dup5\n      dup5\n        /* \"B/Boot record infector/type 4 Route Path Checksum Verification.sol\":165:188  abi.encodePacked(route) */\n      add(0x20, mload(0x40))\n      tag_11\n      swap3\n      swap2\n      swap1\n      tag_12\n      jump\t// in\n    tag_11:\n      mload(0x40)\n      0x20\n      dup2\n      dup4\n      sub\n      sub\n      dup2\n      mstore\n      swap1\n      0x40\n      mstore\n        /* \"B/Boot record infector/type 4 Route Path Checksum Verification.sol\":155:189  keccak256(abi.encodePacked(route)) */\n      dup1\n      mload\n      swap1\n      0x20\n      add\n      keccak256\n        /* \"B/Boot record infector/type 4 Route Path Checksum Verification.sol\":155:205  keccak256(abi.encodePacked(route)) == expectedHash */\n      eq\n        /* \"B/Boot record infector/type 4 Route Path Checksum Verification.sol\":148:205  return keccak256(abi.encodePacked(route)) == expectedHash */\n      swap1\n      pop\n        /* \"B/Boot record infector/type 4 Route Path Checksum Verification.sol\":37:212  function verifyRouteChecksum(string calldata route, bytes32 expectedHash) public pure returns (bool) {... */\n      swap4\n      swap3\n      pop\n      pop\n      pop\n      jump\t// out\n        /* \"#utility.yul\":88:205   */\n    tag_14:\n        /* \"#utility.yul\":197:198   */\n      0x00\n        /* \"#utility.yul\":194:195   */\n      0x00\n        /* \"#utility.yul\":187:199   */\n      revert\n        /* \"#utility.yul\":211:328   */\n    tag_15:\n        /* \"#utility.yul\":320:321   */\n      0x00\n        /* \"#utility.yul\":317:318   */\n      0x00\n        /* \"#utility.yul\":310:322   */\n      revert\n        /* \"#utility.yul\":334:451   */\n    tag_16:\n        /* \"#utility.yul\":443:444   */\n      0x00\n        /* \"#utility.yul\":440:441   */\n      0x00\n        /* \"#utility.yul\":433:445   */\n      revert\n        /* \"#utility.yul\":457:574   */\n    tag_17:\n        /* \"#utility.yul\":566:567   */\n      0x00\n        /* \"#utility.yul\":563:564   */\n      0x00\n        /* \"#utility.yul\":556:568   */\n      revert\n        /* \"#utility.yul\":580:697   */\n    tag_18:\n        /* \"#utility.yul\":689:690   */\n      0x00\n        /* \"#utility.yul\":686:687   */\n      0x00\n        /* \"#utility.yul\":679:691   */\n      revert\n        /* \"#utility.yul\":717:1270   */\n    tag_19:\n        /* \"#utility.yul\":775:783   */\n      0x00\n        /* \"#utility.yul\":785:791   */\n      0x00\n        /* \"#utility.yul\":835:838   */\n      dup4\n        /* \"#utility.yul\":828:832   */\n      0x1f\n        /* \"#utility.yul\":820:826   */\n      dup5\n        /* \"#utility.yul\":816:833   */\n      add\n        /* \"#utility.yul\":812:839   */\n      slt\n        /* \"#utility.yul\":802:924   */\n      tag_36\n      jumpi\n        /* \"#utility.yul\":843:922   */\n      tag_37\n      tag_16\n      jump\t// in\n    tag_37:\n        /* \"#utility.yul\":802:924   */\n    tag_36:\n        /* \"#utility.yul\":956:962   */\n      dup3\n        /* \"#utility.yul\":943:963   */\n      calldataload\n        /* \"#utility.yul\":933:963   */\n      swap1\n      pop\n        /* \"#utility.yul\":986:1004   */\n      0xffffffffffffffff\n        /* \"#utility.yul\":978:984   */\n      dup2\n        /* \"#utility.yul\":975:1005   */\n      gt\n        /* \"#utility.yul\":972:1089   */\n      iszero\n      tag_38\n      jumpi\n        /* \"#utility.yul\":1008:1087   */\n      tag_39\n      tag_17\n      jump\t// in\n    tag_39:\n        /* \"#utility.yul\":972:1089   */\n    tag_38:\n        /* \"#utility.yul\":1122:1126   */\n      0x20\n        /* \"#utility.yul\":1114:1120   */\n      dup4\n        /* \"#utility.yul\":1110:1127   */\n      add\n        /* \"#utility.yul\":1098:1127   */\n      swap2\n      pop\n        /* \"#utility.yul\":1176:1179   */\n      dup4\n        /* \"#utility.yul\":1168:1172   */\n      0x01\n        /* \"#utility.yul\":1160:1166   */\n      dup3\n        /* \"#utility.yul\":1156:1173   */\n      mul\n        /* \"#utility.yul\":1146:1154   */\n      dup4\n        /* \"#utility.yul\":1142:1174   */\n      add\n        /* \"#utility.yul\":1139:1180   */\n      gt\n        /* \"#utility.yul\":1136:1264   */\n      iszero\n      tag_40\n      jumpi\n        /* \"#utility.yul\":1183:1262   */\n      tag_41\n      tag_18\n      jump\t// in\n    tag_41:\n        /* \"#utility.yul\":1136:1264   */\n    tag_40:\n        /* \"#utility.yul\":717:1270   */\n      swap3\n      pop\n      swap3\n      swap1\n      pop\n      jump\t// out\n        /* \"#utility.yul\":1276:1353   */\n    tag_20:\n        /* \"#utility.yul\":1313:1320   */\n      0x00\n        /* \"#utility.yul\":1342:1347   */\n      dup2\n        /* \"#utility.yul\":1331:1347   */\n      swap1\n      pop\n        /* \"#utility.yul\":1276:1353   */\n      swap2\n      swap1\n      pop\n      jump\t// out\n        /* \"#utility.yul\":1359:1481   */\n    tag_21:\n        /* \"#utility.yul\":1432:1456   */\n      tag_44\n        /* \"#utility.yul\":1450:1455   */\n      dup2\n        /* \"#utility.yul\":1432:1456   */\n      tag_20\n      jump\t// in\n    tag_44:\n        /* \"#utility.yul\":1425:1430   */\n      dup2\n        /* \"#utility.yul\":1422:1457   */\n      eq\n        /* \"#utility.yul\":1412:1475   */\n      tag_45\n      jumpi\n        /* \"#utility.yul\":1471:1472   */\n      0x00\n        /* \"#utility.yul\":1468:1469   */\n      0x00\n        /* \"#utility.yul\":1461:1473   */\n      revert\n        /* \"#utility.yul\":1412:1475   */\n    tag_45:\n        /* \"#utility.yul\":1359:1481   */\n      pop\n      jump\t// out\n        /* \"#utility.yul\":1487:1626   */\n    tag_22:\n        /* \"#utility.yul\":1533:1538   */\n      0x00\n        /* \"#utility.yul\":1571:1577   */\n      dup2\n        /* \"#utility.yul\":1558:1578   */\n      calldataload\n        /* \"#utility.yul\":1549:1578   */\n      swap1\n      pop\n        /* \"#utility.yul\":1587:1620   */\n      tag_47\n        /* \"#utility.yul\":1614:1619   */\n      dup2\n        /* \"#utility.yul\":1587:1620   */\n      tag_21\n      jump\t// in\n    tag_47:\n        /* \"#utility.yul\":1487:1626   */\n      swap3\n      swap2\n      pop\n      pop\n      jump\t// out\n        /* \"#utility.yul\":1632:2306   */\n    tag_6:\n        /* \"#utility.yul\":1712:1718   */\n      0x00\n        /* \"#utility.yul\":1720:1726   */\n      0x00\n        /* \"#utility.yul\":1728:1734   */\n      0x00\n        /* \"#utility.yul\":1777:1779   */\n      0x40\n        /* \"#utility.yul\":1765:1774   */\n      dup5\n        /* \"#utility.yul\":1756:1763   */\n      dup7\n        /* \"#utility.yul\":1752:1775   */\n      sub\n        /* \"#utility.yul\":1748:1780   */\n      slt\n        /* \"#utility.yul\":1745:1864   */\n      iszero\n      tag_49\n      jumpi\n        /* \"#utility.yul\":1783:1862   */\n      tag_50\n      tag_14\n      jump\t// in\n    tag_50:\n        /* \"#utility.yul\":1745:1864   */\n    tag_49:\n        /* \"#utility.yul\":1931:1932   */\n      0x00\n        /* \"#utility.yul\":1920:1929   */\n      dup5\n        /* \"#utility.yul\":1916:1933   */\n      add\n        /* \"#utility.yul\":1903:1934   */\n      calldataload\n        /* \"#utility.yul\":1961:1979   */\n      0xffffffffffffffff\n        /* \"#utility.yul\":1953:1959   */\n      dup2\n        /* \"#utility.yul\":1950:1980   */\n      gt\n        /* \"#utility.yul\":1947:2064   */\n      iszero\n      tag_51\n      jumpi\n        /* \"#utility.yul\":1983:2062   */\n      tag_52\n      tag_15\n      jump\t// in\n    tag_52:\n        /* \"#utility.yul\":1947:2064   */\n    tag_51:\n        /* \"#utility.yul\":2096:2161   */\n      tag_53\n        /* \"#utility.yul\":2153:2160   */\n      dup7\n        /* \"#utility.yul\":2144:2150   */\n      dup3\n        /* \"#utility.yul\":2133:2142   */\n      dup8\n        /* \"#utility.yul\":2129:2151   */\n      add\n        /* \"#utility.yul\":2096:2161   */\n      tag_19\n      jump\t// in\n    tag_53:\n        /* \"#utility.yul\":2078:2161   */\n      swap4\n      pop\n      swap4\n      pop\n        /* \"#utility.yul\":1874:2171   */\n      pop\n        /* \"#utility.yul\":2210:2212   */\n      0x20\n        /* \"#utility.yul\":2236:2289   */\n      tag_54\n        /* \"#utility.yul\":2281:2288   */\n      dup7\n        /* \"#utility.yul\":2272:2278   */\n      dup3\n        /* \"#utility.yul\":2261:2270   */\n      dup8\n        /* \"#utility.yul\":2257:2279   */\n      add\n        /* \"#utility.yul\":2236:2289   */\n      tag_22\n      jump\t// in\n    tag_54:\n        /* \"#utility.yul\":2226:2289   */\n      swap2\n      pop\n        /* \"#utility.yul\":2181:2299   */\n      pop\n        /* \"#utility.yul\":1632:2306   */\n      swap3\n      pop\n      swap3\n      pop\n      swap3\n      jump\t// out\n        /* \"#utility.yul\":2312:2402   */\n    tag_23:\n        /* \"#utility.yul\":2346:2353   */\n      0x00\n        /* \"#utility.yul\":2389:2394   */\n      dup2\n        /* \"#utility.yul\":2382:2395   */\n      iszero\n        /* \"#utility.yul\":2375:2396   */\n      iszero\n        /* \"#utility.yul\":2364:2396   */\n      swap1\n      pop\n        /* \"#utility.yul\":2312:2402   */\n      swap2\n      swap1\n      pop\n      jump\t// out\n        /* \"#utility.yul\":2408:2517   */\n    tag_24:\n        /* \"#utility.yul\":2489:2510   */\n      tag_57\n        /* \"#utility.yul\":2504:2509   */\n      dup2\n        /* \"#utility.yul\":2489:2510   */\n      tag_23\n      jump\t// in\n    tag_57:\n        /* \"#utility.yul\":2484:2487   */\n      dup3\n        /* \"#utility.yul\":2477:2511   */\n      mstore\n        /* \"#utility.yul\":2408:2517   */\n      pop\n      pop\n      jump\t// out\n        /* \"#utility.yul\":2523:2733   */\n    tag_9:\n        /* \"#utility.yul\":2610:2614   */\n      0x00\n        /* \"#utility.yul\":2648:2650   */\n      0x20\n        /* \"#utility.yul\":2637:2646   */\n      dup3\n        /* \"#utility.yul\":2633:2651   */\n      add\n        /* \"#utility.yul\":2625:2651   */\n      swap1\n      pop\n        /* \"#utility.yul\":2661:2726   */\n      tag_59\n        /* \"#utility.yul\":2723:2724   */\n      0x00\n        /* \"#utility.yul\":2712:2721   */\n      dup4\n        /* \"#utility.yul\":2708:2725   */\n      add\n        /* \"#utility.yul\":2699:2705   */\n      dup5\n        /* \"#utility.yul\":2661:2726   */\n      tag_24\n      jump\t// in\n    tag_59:\n        /* \"#utility.yul\":2523:2733   */\n      swap3\n      swap2\n      pop\n      pop\n      jump\t// out\n        /* \"#utility.yul\":2739:2887   */\n    tag_25:\n        /* \"#utility.yul\":2841:2852   */\n      0x00\n        /* \"#utility.yul\":2878:2881   */\n      dup2\n        /* \"#utility.yul\":2863:2881   */\n      swap1\n      pop\n        /* \"#utility.yul\":2739:2887   */\n      swap3\n      swap2\n      pop\n      pop\n      jump\t// out\n        /* \"#utility.yul\":2893:3041   */\n    tag_26:\n        /* \"#utility.yul\":2991:2997   */\n      dup3\n        /* \"#utility.yul\":2986:2989   */\n      dup2\n        /* \"#utility.yul\":2981:2984   */\n      dup4\n        /* \"#utility.yul\":2968:2998   */\n      calldatacopy\n        /* \"#utility.yul\":3032:3033   */\n      0x00\n        /* \"#utility.yul\":3023:3029   */\n      dup4\n        /* \"#utility.yul\":3018:3021   */\n      dup4\n        /* \"#utility.yul\":3014:3030   */\n      add\n        /* \"#utility.yul\":3007:3034   */\n      mstore\n        /* \"#utility.yul\":2893:3041   */\n      pop\n      pop\n      pop\n      jump\t// out\n        /* \"#utility.yul\":3071:3401   */\n    tag_27:\n        /* \"#utility.yul\":3187:3190   */\n      0x00\n        /* \"#utility.yul\":3208:3297   */\n      tag_63\n        /* \"#utility.yul\":3290:3296   */\n      dup4\n        /* \"#utility.yul\":3285:3288   */\n      dup6\n        /* \"#utility.yul\":3208:3297   */\n      tag_25\n      jump\t// in\n    tag_63:\n        /* \"#utility.yul\":3201:3297   */\n      swap4\n      pop\n        /* \"#utility.yul\":3307:3363   */\n      tag_64\n        /* \"#utility.yul\":3356:3362   */\n      dup4\n        /* \"#utility.yul\":3351:3354   */\n      dup6\n        /* \"#utility.yul\":3344:3349   */\n      dup5\n        /* \"#utility.yul\":3307:3363   */\n      tag_26\n      jump\t// in\n    tag_64:\n        /* \"#utility.yul\":3388:3394   */\n      dup3\n        /* \"#utility.yul\":3383:3386   */\n      dup5\n        /* \"#utility.yul\":3379:3395   */\n      add\n        /* \"#utility.yul\":3372:3395   */\n      swap1\n      pop\n        /* \"#utility.yul\":3071:3401   */\n      swap4\n      swap3\n      pop\n      pop\n      pop\n      jump\t// out\n        /* \"#utility.yul\":3407:3702   */\n    tag_12:\n        /* \"#utility.yul\":3549:3552   */\n      0x00\n        /* \"#utility.yul\":3571:3676   */\n      tag_66\n        /* \"#utility.yul\":3672:3675   */\n      dup3\n        /* \"#utility.yul\":3663:3669   */\n      dup5\n        /* \"#utility.yul\":3655:3661   */\n      dup7\n        /* \"#utility.yul\":3571:3676   */\n      tag_27\n      jump\t// in\n    tag_66:\n        /* \"#utility.yul\":3564:3676   */\n      swap2\n      pop\n        /* \"#utility.yul\":3693:3696   */\n      dup2\n        /* \"#utility.yul\":3686:3696   */\n      swap1\n      pop\n        /* \"#utility.yul\":3407:3702   */\n      swap4\n      swap3\n      pop\n      pop\n      pop\n      jump\t// out\n\n    auxdata: 0xa264697066735822122060a3ae870b30a35e1d407bbf2d1cdb9b4cbded3e0f4e60eec72d23c90184b5a864736f6c634300081d0033\n}\n",
				"bytecode": {
					"linkReferences": {},
					"object": "6080604052348015600e575f5ffd5b506102488061001c5f395ff3fe608060405234801561000f575f5ffd5b5060043610610029575f3560e01c8063ca90dd051461002d575b5f5ffd5b6100476004803603810190610042919061012e565b61005d565b60405161005491906101a5565b60405180910390f35b5f8184846040516020016100729291906101fa565b604051602081830303815290604052805190602001201490509392505050565b5f5ffd5b5f5ffd5b5f5ffd5b5f5ffd5b5f5ffd5b5f5f83601f8401126100bb576100ba61009a565b5b8235905067ffffffffffffffff8111156100d8576100d761009e565b5b6020830191508360018202830111156100f4576100f36100a2565b5b9250929050565b5f819050919050565b61010d816100fb565b8114610117575f5ffd5b50565b5f8135905061012881610104565b92915050565b5f5f5f6040848603121561014557610144610092565b5b5f84013567ffffffffffffffff81111561016257610161610096565b5b61016e868287016100a6565b935093505060206101818682870161011a565b9150509250925092565b5f8115159050919050565b61019f8161018b565b82525050565b5f6020820190506101b85f830184610196565b92915050565b5f81905092915050565b828183375f83830152505050565b5f6101e183856101be565b93506101ee8385846101c8565b82840190509392505050565b5f6102068284866101d6565b9150819050939250505056fea264697066735822122060a3ae870b30a35e1d407bbf2d1cdb9b4cbded3e0f4e60eec72d23c90184b5a864736f6c634300081d0033",
					"opcodes": "PUSH1 0x80 PUSH1 0x40 MSTORE CALLVALUE DUP1 ISZERO PUSH1 0xE JUMPI PUSH0 PUSH0 REVERT JUMPDEST POP PUSH2 0x248 DUP1 PUSH2 0x1C PUSH0 CODECOPY PUSH0 RETURN INVALID PUSH1 0x80 PUSH1 0x40 MSTORE CALLVALUE DUP1 ISZERO PUSH2 0xF JUMPI PUSH0 PUSH0 REVERT JUMPDEST POP PUSH1 0x4 CALLDATASIZE LT PUSH2 0x29 JUMPI PUSH0 CALLDATALOAD PUSH1 0xE0 SHR DUP1 PUSH4 0xCA90DD05 EQ PUSH2 0x2D JUMPI JUMPDEST PUSH0 PUSH0 REVERT JUMPDEST PUSH2 0x47 PUSH1 0x4 DUP1 CALLDATASIZE SUB DUP2 ADD SWAP1 PUSH2 0x42 SWAP2 SWAP1 PUSH2 0x12E JUMP JUMPDEST PUSH2 0x5D JUMP JUMPDEST PUSH1 0x40 MLOAD PUSH2 0x54 SWAP2 SWAP1 PUSH2 0x1A5 JUMP JUMPDEST PUSH1 0x40 MLOAD DUP1 SWAP2 SUB SWAP1 RETURN JUMPDEST PUSH0 DUP2 DUP5 DUP5 PUSH1 0x40 MLOAD PUSH1 0x20 ADD PUSH2 0x72 SWAP3 SWAP2 SWAP1 PUSH2 0x1FA JUMP JUMPDEST PUSH1 0x40 MLOAD PUSH1 0x20 DUP2 DUP4 SUB SUB DUP2 MSTORE SWAP1 PUSH1 0x40 MSTORE DUP1 MLOAD SWAP1 PUSH1 0x20 ADD KECCAK256 EQ SWAP1 POP SWAP4 SWAP3 POP POP POP JUMP JUMPDEST PUSH0 PUSH0 REVERT JUMPDEST PUSH0 PUSH0 REVERT JUMPDEST PUSH0 PUSH0 REVERT JUMPDEST PUSH0 PUSH0 REVERT JUMPDEST PUSH0 PUSH0 REVERT JUMPDEST PUSH0 PUSH0 DUP4 PUSH1 0x1F DUP5 ADD SLT PUSH2 0xBB JUMPI PUSH2 0xBA PUSH2 0x9A JUMP JUMPDEST JUMPDEST DUP3 CALLDATALOAD SWAP1 POP PUSH8 0xFFFFFFFFFFFFFFFF DUP2 GT ISZERO PUSH2 0xD8 JUMPI PUSH2 0xD7 PUSH2 0x9E JUMP JUMPDEST JUMPDEST PUSH1 0x20 DUP4 ADD SWAP2 POP DUP4 PUSH1 0x1 DUP3 MUL DUP4 ADD GT ISZERO PUSH2 0xF4 JUMPI PUSH2 0xF3 PUSH2 0xA2 JUMP JUMPDEST JUMPDEST SWAP3 POP SWAP3 SWAP1 POP JUMP JUMPDEST PUSH0 DUP2 SWAP1 POP SWAP2 SWAP1 POP JUMP JUMPDEST PUSH2 0x10D DUP2 PUSH2 0xFB JUMP JUMPDEST DUP2 EQ PUSH2 0x117 JUMPI PUSH0 PUSH0 REVERT JUMPDEST POP JUMP JUMPDEST PUSH0 DUP2 CALLDATALOAD SWAP1 POP PUSH2 0x128 DUP2 PUSH2 0x104 JUMP JUMPDEST SWAP3 SWAP2 POP POP JUMP JUMPDEST PUSH0 PUSH0 PUSH0 PUSH1 0x40 DUP5 DUP7 SUB SLT ISZERO PUSH2 0x145 JUMPI PUSH2 0x144 PUSH2 0x92 JUMP JUMPDEST JUMPDEST PUSH0 DUP5 ADD CALLDATALOAD PUSH8 0xFFFFFFFFFFFFFFFF DUP2 GT ISZERO PUSH2 0x162 JUMPI PUSH2 0x161 PUSH2 0x96 JUMP JUMPDEST JUMPDEST PUSH2 0x16E DUP7 DUP3 DUP8 ADD PUSH2 0xA6 JUMP JUMPDEST SWAP4 POP SWAP4 POP POP PUSH1 0x20 PUSH2 0x181 DUP7 DUP3 DUP8 ADD PUSH2 0x11A JUMP JUMPDEST SWAP2 POP POP SWAP3 POP SWAP3 POP SWAP3 JUMP JUMPDEST PUSH0 DUP2 ISZERO ISZERO SWAP1 POP SWAP2 SWAP1 POP JUMP JUMPDEST PUSH2 0x19F DUP2 PUSH2 0x18B JUMP JUMPDEST DUP3 MSTORE POP POP JUMP JUMPDEST PUSH0 PUSH1 0x20 DUP3 ADD SWAP1 POP PUSH2 0x1B8 PUSH0 DUP4 ADD DUP5 PUSH2 0x196 JUMP JUMPDEST SWAP3 SWAP2 POP POP JUMP JUMPDEST PUSH0 DUP2 SWAP1 POP SWAP3 SWAP2 POP POP JUMP JUMPDEST DUP3 DUP2 DUP4 CALLDATACOPY PUSH0 DUP4 DUP4 ADD MSTORE POP POP POP JUMP JUMPDEST PUSH0 PUSH2 0x1E1 DUP4 DUP6 PUSH2 0x1BE JUMP JUMPDEST SWAP4 POP PUSH2 0x1EE DUP4 DUP6 DUP5 PUSH2 0x1C8 JUMP JUMPDEST DUP3 DUP5 ADD SWAP1 POP SWAP4 SWAP3 POP POP POP JUMP JUMPDEST PUSH0 PUSH2 0x206 DUP3 DUP5 DUP7 PUSH2 0x1D6 JUMP JUMPDEST SWAP2 POP DUP2 SWAP1 POP SWAP4 SWAP3 POP POP POP JUMP INVALID LOG2 PUSH5 0x6970667358 0x22 SLT KECCAK256 PUSH1 0xA3 0xAE DUP8 SIGNEXTEND ADDRESS LOG3 MCOPY SAR BLOCKHASH PUSH28 0xBF2D1CDB9B4CBDED3E0F4E60EEC72D23C90184B5A864736F6C634300 ADDMOD SAR STOP CALLER "
				},
				"gasEstimates": {
					"creation": {
						"codeDepositCost": "116800",
						"executionCost": "163",
						"totalCost": "116963"
					},
					"external": {
						"verifyRouteChecksum(string,bytes32)": "infinite"
					}
				},
				"methodIdentifiers": {
					"verifyRouteChecksum(string,bytes32)": "ca90dd05"
				}
			},
			"storageLayout": {
				"storage": [],
				"types": null
			},
			"userdoc": {
				"kind": "user",
				"methods": {},
				"version": 1
			}
		}
	}
}