{
	"E/Escrow Passwords/attack Plaintext Escrow Password.sol": {
		"PlaintextEscrowPassword": {
			"abi": [
				{
					"inputs": [
						{
							"internalType": "address",
							"name": "_seller",
							"type": "address"
						},
						{
							"internalType": "address",
							"name": "_buyer",
							"type": "address"
						},
						{
							"internalType": "uint256",
							"name": "_price",
							"type": "uint256"
						},
						{
							"internalType": "string",
							"name": "_password",
							"type": "string"
						}
					],
					"stateMutability": "payable",
					"type": "constructor"
				},
				{
					"inputs": [],
					"name": "buyer",
					"outputs": [
						{
							"internalType": "address",
							"name": "",
							"type": "address"
						}
					],
					"stateMutability": "view",
					"type": "function"
				},
				{
					"inputs": [],
					"name": "escrowPassword",
					"outputs": [
						{
							"internalType": "string",
							"name": "",
							"type": "string"
						}
					],
					"stateMutability": "view",
					"type": "function"
				},
				{
					"inputs": [],
					"name": "isReleased",
					"outputs": [
						{
							"internalType": "bool",
							"name": "",
							"type": "bool"
						}
					],
					"stateMutability": "view",
					"type": "function"
				},
				{
					"inputs": [],
					"name": "price",
					"outputs": [
						{
							"internalType": "uint256",
							"name": "",
							"type": "uint256"
						}
					],
					"stateMutability": "view",
					"type": "function"
				},
				{
					"inputs": [
						{
							"internalType": "string",
							"name": "attempt",
							"type": "string"
						}
					],
					"name": "release",
					"outputs": [],
					"stateMutability": "nonpayable",
					"type": "function"
				},
				{
					"inputs": [],
					"name": "seller",
					"outputs": [
						{
							"internalType": "address",
							"name": "",
							"type": "address"
						}
					],
					"stateMutability": "view",
					"type": "function"
				}
			],
			"devdoc": {
				"kind": "dev",
				"methods": {},
				"version": 1
			},
			"evm": {
				"assembly": "    /* \"E/Escrow Passwords/attack Plaintext Escrow Password.sol\":227:1120  contract PlaintextEscrowPassword {... */\n  mstore(0x40, 0x80)\n    /* \"E/Escrow Passwords/attack Plaintext Escrow Password.sol\":438:760  constructor(address _seller, address _buyer, uint256 _price, string memory _password) payable {... */\n  mload(0x40)\n  sub(codesize, bytecodeSize)\n  dup1\n  bytecodeSize\n  dup4\n  codecopy\n  dup2\n  dup2\n  add\n  0x40\n  mstore\n  dup2\n  add\n  swap1\n  tag_1\n  swap2\n  swap1\n  tag_2\n  jump\t// in\ntag_1:\n    /* \"E/Escrow Passwords/attack Plaintext Escrow Password.sol\":563:569  _price */\n  dup2\n    /* \"E/Escrow Passwords/attack Plaintext Escrow Password.sol\":550:559  msg.value */\n  callvalue\n    /* \"E/Escrow Passwords/attack Plaintext Escrow Password.sol\":550:569  msg.value == _price */\n  eq\n    /* \"E/Escrow Passwords/attack Plaintext Escrow Password.sol\":542:590  require(msg.value == _price, \"Must fund escrow\") */\n  tag_5\n  jumpi\n  mload(0x40)\n  0x08c379a000000000000000000000000000000000000000000000000000000000\n  dup2\n  mstore\n  0x04\n  add\n  tag_6\n  swap1\n  tag_7\n  jump\t// in\ntag_6:\n  mload(0x40)\n  dup1\n  swap2\n  sub\n  swap1\n  revert\ntag_5:\n    /* \"E/Escrow Passwords/attack Plaintext Escrow Password.sol\":609:616  _seller */\n  dup4\n    /* \"E/Escrow Passwords/attack Plaintext Escrow Password.sol\":600:606  seller */\n  0x00\n  dup1\n    /* \"E/Escrow Passwords/attack Plaintext Escrow Password.sol\":600:616  seller = _seller */\n  0x0100\n  exp\n  dup2\n  sload\n  dup2\n  0xffffffffffffffffffffffffffffffffffffffff\n  mul\n  not\n  and\n  swap1\n  dup4\n  0xffffffffffffffffffffffffffffffffffffffff\n  and\n  mul\n  or\n  swap1\n  sstore\n  pop\n    /* \"E/Escrow Passwords/attack Plaintext Escrow Password.sol\":634:640  _buyer */\n  dup3\n    /* \"E/Escrow Passwords/attack Plaintext Escrow Password.sol\":626:631  buyer */\n  0x01\n  0x00\n    /* \"E/Escrow Passwords/attack Plaintext Escrow Password.sol\":626:640  buyer = _buyer */\n  0x0100\n  exp\n  dup2\n  sload\n  dup2\n  0xffffffffffffffffffffffffffffffffffffffff\n  mul\n  not\n  and\n  swap1\n  dup4\n  0xffffffffffffffffffffffffffffffffffffffff\n  and\n  mul\n  or\n  swap1\n  sstore\n  pop\n    /* \"E/Escrow Passwords/attack Plaintext Escrow Password.sol\":658:664  _price */\n  dup2\n    /* \"E/Escrow Passwords/attack Plaintext Escrow Password.sol\":650:655  price */\n  0x02\n    /* \"E/Escrow Passwords/attack Plaintext Escrow Password.sol\":650:664  price = _price */\n  dup2\n  swap1\n  sstore\n  pop\n    /* \"E/Escrow Passwords/attack Plaintext Escrow Password.sol\":691:700  _password */\n  dup1\n    /* \"E/Escrow Passwords/attack Plaintext Escrow Password.sol\":674:688  escrowPassword */\n  0x03\n    /* \"E/Escrow Passwords/attack Plaintext Escrow Password.sol\":674:700  escrowPassword = _password */\n  swap1\n  dup2\n  tag_8\n  swap2\n  swap1\n  tag_9\n  jump\t// in\ntag_8:\n  pop\n    /* \"E/Escrow Passwords/attack Plaintext Escrow Password.sol\":748:753  false */\n  0x00\n    /* \"E/Escrow Passwords/attack Plaintext Escrow Password.sol\":735:745  isReleased */\n  0x04\n  0x00\n    /* \"E/Escrow Passwords/attack Plaintext Escrow Password.sol\":735:753  isReleased = false */\n  0x0100\n  exp\n  dup2\n  sload\n  dup2\n  0xff\n  mul\n  not\n  and\n  swap1\n  dup4\n  iszero\n  iszero\n  mul\n  or\n  swap1\n  sstore\n  pop\n    /* \"E/Escrow Passwords/attack Plaintext Escrow Password.sol\":438:760  constructor(address _seller, address _buyer, uint256 _price, string memory _password) payable {... */\n  pop\n  pop\n  pop\n  pop\n    /* \"E/Escrow Passwords/attack Plaintext Escrow Password.sol\":227:1120  contract PlaintextEscrowPassword {... */\n  jump(tag_10)\n    /* \"#utility.yul\":7:82   */\ntag_11:\n    /* \"#utility.yul\":40:46   */\n  0x00\n    /* \"#utility.yul\":73:75   */\n  0x40\n    /* \"#utility.yul\":67:76   */\n  mload\n    /* \"#utility.yul\":57:76   */\n  swap1\n  pop\n    /* \"#utility.yul\":7:82   */\n  swap1\n  jump\t// out\n    /* \"#utility.yul\":88:205   */\ntag_12:\n    /* \"#utility.yul\":197:198   */\n  0x00\n    /* \"#utility.yul\":194:195   */\n  dup1\n    /* \"#utility.yul\":187:199   */\n  revert\n    /* \"#utility.yul\":211:328   */\ntag_13:\n    /* \"#utility.yul\":320:321   */\n  0x00\n    /* \"#utility.yul\":317:318   */\n  dup1\n    /* \"#utility.yul\":310:322   */\n  revert\n    /* \"#utility.yul\":334:460   */\ntag_14:\n    /* \"#utility.yul\":371:378   */\n  0x00\n    /* \"#utility.yul\":411:453   */\n  0xffffffffffffffffffffffffffffffffffffffff\n    /* \"#utility.yul\":404:409   */\n  dup3\n    /* \"#utility.yul\":400:454   */\n  and\n    /* \"#utility.yul\":389:454   */\n  swap1\n  pop\n    /* \"#utility.yul\":334:460   */\n  swap2\n  swap1\n  pop\n  jump\t// out\n    /* \"#utility.yul\":466:562   */\ntag_15:\n    /* \"#utility.yul\":503:510   */\n  0x00\n    /* \"#utility.yul\":532:556   */\n  tag_58\n    /* \"#utility.yul\":550:555   */\n  dup3\n    /* \"#utility.yul\":532:556   */\n  tag_14\n  jump\t// in\ntag_58:\n    /* \"#utility.yul\":521:556   */\n  swap1\n  pop\n    /* \"#utility.yul\":466:562   */\n  swap2\n  swap1\n  pop\n  jump\t// out\n    /* \"#utility.yul\":568:690   */\ntag_16:\n    /* \"#utility.yul\":641:665   */\n  tag_60\n    /* \"#utility.yul\":659:664   */\n  dup2\n    /* \"#utility.yul\":641:665   */\n  tag_15\n  jump\t// in\ntag_60:\n    /* \"#utility.yul\":634:639   */\n  dup2\n    /* \"#utility.yul\":631:666   */\n  eq\n    /* \"#utility.yul\":621:684   */\n  tag_61\n  jumpi\n    /* \"#utility.yul\":680:681   */\n  0x00\n    /* \"#utility.yul\":677:678   */\n  dup1\n    /* \"#utility.yul\":670:682   */\n  revert\n    /* \"#utility.yul\":621:684   */\ntag_61:\n    /* \"#utility.yul\":568:690   */\n  pop\n  jump\t// out\n    /* \"#utility.yul\":696:839   */\ntag_17:\n    /* \"#utility.yul\":753:758   */\n  0x00\n    /* \"#utility.yul\":784:790   */\n  dup2\n    /* \"#utility.yul\":778:791   */\n  mload\n    /* \"#utility.yul\":769:791   */\n  swap1\n  pop\n    /* \"#utility.yul\":800:833   */\n  tag_63\n    /* \"#utility.yul\":827:832   */\n  dup2\n    /* \"#utility.yul\":800:833   */\n  tag_16\n  jump\t// in\ntag_63:\n    /* \"#utility.yul\":696:839   */\n  swap3\n  swap2\n  pop\n  pop\n  jump\t// out\n    /* \"#utility.yul\":845:922   */\ntag_18:\n    /* \"#utility.yul\":882:889   */\n  0x00\n    /* \"#utility.yul\":911:916   */\n  dup2\n    /* \"#utility.yul\":900:916   */\n  swap1\n  pop\n    /* \"#utility.yul\":845:922   */\n  swap2\n  swap1\n  pop\n  jump\t// out\n    /* \"#utility.yul\":928:1050   */\ntag_19:\n    /* \"#utility.yul\":1001:1025   */\n  tag_66\n    /* \"#utility.yul\":1019:1024   */\n  dup2\n    /* \"#utility.yul\":1001:1025   */\n  tag_18\n  jump\t// in\ntag_66:\n    /* \"#utility.yul\":994:999   */\n  dup2\n    /* \"#utility.yul\":991:1026   */\n  eq\n    /* \"#utility.yul\":981:1044   */\n  tag_67\n  jumpi\n    /* \"#utility.yul\":1040:1041   */\n  0x00\n    /* \"#utility.yul\":1037:1038   */\n  dup1\n    /* \"#utility.yul\":1030:1042   */\n  revert\n    /* \"#utility.yul\":981:1044   */\ntag_67:\n    /* \"#utility.yul\":928:1050   */\n  pop\n  jump\t// out\n    /* \"#utility.yul\":1056:1199   */\ntag_20:\n    /* \"#utility.yul\":1113:1118   */\n  0x00\n    /* \"#utility.yul\":1144:1150   */\n  dup2\n    /* \"#utility.yul\":1138:1151   */\n  mload\n    /* \"#utility.yul\":1129:1151   */\n  swap1\n  pop\n    /* \"#utility.yul\":1160:1193   */\n  tag_69\n    /* \"#utility.yul\":1187:1192   */\n  dup2\n    /* \"#utility.yul\":1160:1193   */\n  tag_19\n  jump\t// in\ntag_69:\n    /* \"#utility.yul\":1056:1199   */\n  swap3\n  swap2\n  pop\n  pop\n  jump\t// out\n    /* \"#utility.yul\":1205:1322   */\ntag_21:\n    /* \"#utility.yul\":1314:1315   */\n  0x00\n    /* \"#utility.yul\":1311:1312   */\n  dup1\n    /* \"#utility.yul\":1304:1316   */\n  revert\n    /* \"#utility.yul\":1328:1445   */\ntag_22:\n    /* \"#utility.yul\":1437:1438   */\n  0x00\n    /* \"#utility.yul\":1434:1435   */\n  dup1\n    /* \"#utility.yul\":1427:1439   */\n  revert\n    /* \"#utility.yul\":1451:1553   */\ntag_23:\n    /* \"#utility.yul\":1492:1498   */\n  0x00\n    /* \"#utility.yul\":1543:1545   */\n  0x1f\n    /* \"#utility.yul\":1539:1546   */\n  not\n    /* \"#utility.yul\":1534:1536   */\n  0x1f\n    /* \"#utility.yul\":1527:1532   */\n  dup4\n    /* \"#utility.yul\":1523:1537   */\n  add\n    /* \"#utility.yul\":1519:1547   */\n  and\n    /* \"#utility.yul\":1509:1547   */\n  swap1\n  pop\n    /* \"#utility.yul\":1451:1553   */\n  swap2\n  swap1\n  pop\n  jump\t// out\n    /* \"#utility.yul\":1559:1739   */\ntag_24:\n    /* \"#utility.yul\":1607:1684   */\n  0x4e487b7100000000000000000000000000000000000000000000000000000000\n    /* \"#utility.yul\":1604:1605   */\n  0x00\n    /* \"#utility.yul\":1597:1685   */\n  mstore\n    /* \"#utility.yul\":1704:1708   */\n  0x41\n    /* \"#utility.yul\":1701:1702   */\n  0x04\n    /* \"#utility.yul\":1694:1709   */\n  mstore\n    /* \"#utility.yul\":1728:1732   */\n  0x24\n    /* \"#utility.yul\":1725:1726   */\n  0x00\n    /* \"#utility.yul\":1718:1733   */\n  revert\n    /* \"#utility.yul\":1745:2026   */\ntag_25:\n    /* \"#utility.yul\":1828:1855   */\n  tag_75\n    /* \"#utility.yul\":1850:1854   */\n  dup3\n    /* \"#utility.yul\":1828:1855   */\n  tag_23\n  jump\t// in\ntag_75:\n    /* \"#utility.yul\":1820:1826   */\n  dup2\n    /* \"#utility.yul\":1816:1856   */\n  add\n    /* \"#utility.yul\":1958:1964   */\n  dup2\n    /* \"#utility.yul\":1946:1956   */\n  dup2\n    /* \"#utility.yul\":1943:1965   */\n  lt\n    /* \"#utility.yul\":1922:1940   */\n  0xffffffffffffffff\n    /* \"#utility.yul\":1910:1920   */\n  dup3\n    /* \"#utility.yul\":1907:1941   */\n  gt\n    /* \"#utility.yul\":1904:1966   */\n  or\n    /* \"#utility.yul\":1901:1989   */\n  iszero\n  tag_76\n  jumpi\n    /* \"#utility.yul\":1969:1987   */\n  tag_77\n  tag_24\n  jump\t// in\ntag_77:\n    /* \"#utility.yul\":1901:1989   */\ntag_76:\n    /* \"#utility.yul\":2009:2019   */\n  dup1\n    /* \"#utility.yul\":2005:2007   */\n  0x40\n    /* \"#utility.yul\":1998:2020   */\n  mstore\n    /* \"#utility.yul\":1788:2026   */\n  pop\n    /* \"#utility.yul\":1745:2026   */\n  pop\n  pop\n  jump\t// out\n    /* \"#utility.yul\":2032:2161   */\ntag_26:\n    /* \"#utility.yul\":2066:2072   */\n  0x00\n    /* \"#utility.yul\":2093:2113   */\n  tag_79\n  tag_11\n  jump\t// in\ntag_79:\n    /* \"#utility.yul\":2083:2113   */\n  swap1\n  pop\n    /* \"#utility.yul\":2122:2155   */\n  tag_80\n    /* \"#utility.yul\":2150:2154   */\n  dup3\n    /* \"#utility.yul\":2142:2148   */\n  dup3\n    /* \"#utility.yul\":2122:2155   */\n  tag_25\n  jump\t// in\ntag_80:\n    /* \"#utility.yul\":2032:2161   */\n  swap2\n  swap1\n  pop\n  jump\t// out\n    /* \"#utility.yul\":2167:2475   */\ntag_27:\n    /* \"#utility.yul\":2229:2233   */\n  0x00\n    /* \"#utility.yul\":2319:2337   */\n  0xffffffffffffffff\n    /* \"#utility.yul\":2311:2317   */\n  dup3\n    /* \"#utility.yul\":2308:2338   */\n  gt\n    /* \"#utility.yul\":2305:2361   */\n  iszero\n  tag_82\n  jumpi\n    /* \"#utility.yul\":2341:2359   */\n  tag_83\n  tag_24\n  jump\t// in\ntag_83:\n    /* \"#utility.yul\":2305:2361   */\ntag_82:\n    /* \"#utility.yul\":2379:2408   */\n  tag_84\n    /* \"#utility.yul\":2401:2407   */\n  dup3\n    /* \"#utility.yul\":2379:2408   */\n  tag_23\n  jump\t// in\ntag_84:\n    /* \"#utility.yul\":2371:2408   */\n  swap1\n  pop\n    /* \"#utility.yul\":2463:2467   */\n  0x20\n    /* \"#utility.yul\":2457:2461   */\n  dup2\n    /* \"#utility.yul\":2453:2468   */\n  add\n    /* \"#utility.yul\":2445:2468   */\n  swap1\n  pop\n    /* \"#utility.yul\":2167:2475   */\n  swap2\n  swap1\n  pop\n  jump\t// out\n    /* \"#utility.yul\":2481:2620   */\ntag_28:\n    /* \"#utility.yul\":2570:2576   */\n  dup3\n    /* \"#utility.yul\":2565:2568   */\n  dup2\n    /* \"#utility.yul\":2560:2563   */\n  dup4\n    /* \"#utility.yul\":2554:2577   */\n  mcopy\n    /* \"#utility.yul\":2611:2612   */\n  0x00\n    /* \"#utility.yul\":2602:2608   */\n  dup4\n    /* \"#utility.yul\":2597:2600   */\n  dup4\n    /* \"#utility.yul\":2593:2609   */\n  add\n    /* \"#utility.yul\":2586:2613   */\n  mstore\n    /* \"#utility.yul\":2481:2620   */\n  pop\n  pop\n  pop\n  jump\t// out\n    /* \"#utility.yul\":2626:3060   */\ntag_29:\n    /* \"#utility.yul\":2715:2720   */\n  0x00\n    /* \"#utility.yul\":2740:2806   */\n  tag_87\n    /* \"#utility.yul\":2756:2805   */\n  tag_88\n    /* \"#utility.yul\":2798:2804   */\n  dup5\n    /* \"#utility.yul\":2756:2805   */\n  tag_27\n  jump\t// in\ntag_88:\n    /* \"#utility.yul\":2740:2806   */\n  tag_26\n  jump\t// in\ntag_87:\n    /* \"#utility.yul\":2731:2806   */\n  swap1\n  pop\n    /* \"#utility.yul\":2829:2835   */\n  dup3\n    /* \"#utility.yul\":2822:2827   */\n  dup2\n    /* \"#utility.yul\":2815:2836   */\n  mstore\n    /* \"#utility.yul\":2867:2871   */\n  0x20\n    /* \"#utility.yul\":2860:2865   */\n  dup2\n    /* \"#utility.yul\":2856:2872   */\n  add\n    /* \"#utility.yul\":2905:2908   */\n  dup5\n    /* \"#utility.yul\":2896:2902   */\n  dup5\n    /* \"#utility.yul\":2891:2894   */\n  dup5\n    /* \"#utility.yul\":2887:2903   */\n  add\n    /* \"#utility.yul\":2884:2909   */\n  gt\n    /* \"#utility.yul\":2881:2993   */\n  iszero\n  tag_89\n  jumpi\n    /* \"#utility.yul\":2912:2991   */\n  tag_90\n  tag_22\n  jump\t// in\ntag_90:\n    /* \"#utility.yul\":2881:2993   */\ntag_89:\n    /* \"#utility.yul\":3002:3054   */\n  tag_91\n    /* \"#utility.yul\":3047:3053   */\n  dup5\n    /* \"#utility.yul\":3042:3045   */\n  dup3\n    /* \"#utility.yul\":3037:3040   */\n  dup6\n    /* \"#utility.yul\":3002:3054   */\n  tag_28\n  jump\t// in\ntag_91:\n    /* \"#utility.yul\":2721:3060   */\n  pop\n    /* \"#utility.yul\":2626:3060   */\n  swap4\n  swap3\n  pop\n  pop\n  pop\n  jump\t// out\n    /* \"#utility.yul\":3080:3435   */\ntag_30:\n    /* \"#utility.yul\":3147:3152   */\n  0x00\n    /* \"#utility.yul\":3196:3199   */\n  dup3\n    /* \"#utility.yul\":3189:3193   */\n  0x1f\n    /* \"#utility.yul\":3181:3187   */\n  dup4\n    /* \"#utility.yul\":3177:3194   */\n  add\n    /* \"#utility.yul\":3173:3200   */\n  slt\n    /* \"#utility.yul\":3163:3285   */\n  tag_93\n  jumpi\n    /* \"#utility.yul\":3204:3283   */\n  tag_94\n  tag_21\n  jump\t// in\ntag_94:\n    /* \"#utility.yul\":3163:3285   */\ntag_93:\n    /* \"#utility.yul\":3314:3320   */\n  dup2\n    /* \"#utility.yul\":3308:3321   */\n  mload\n    /* \"#utility.yul\":3339:3429   */\n  tag_95\n    /* \"#utility.yul\":3425:3428   */\n  dup5\n    /* \"#utility.yul\":3417:3423   */\n  dup3\n    /* \"#utility.yul\":3410:3414   */\n  0x20\n    /* \"#utility.yul\":3402:3408   */\n  dup7\n    /* \"#utility.yul\":3398:3415   */\n  add\n    /* \"#utility.yul\":3339:3429   */\n  tag_29\n  jump\t// in\ntag_95:\n    /* \"#utility.yul\":3330:3429   */\n  swap2\n  pop\n    /* \"#utility.yul\":3153:3435   */\n  pop\n    /* \"#utility.yul\":3080:3435   */\n  swap3\n  swap2\n  pop\n  pop\n  jump\t// out\n    /* \"#utility.yul\":3441:4434   */\ntag_2:\n    /* \"#utility.yul\":3548:3554   */\n  0x00\n    /* \"#utility.yul\":3556:3562   */\n  dup1\n    /* \"#utility.yul\":3564:3570   */\n  0x00\n    /* \"#utility.yul\":3572:3578   */\n  dup1\n    /* \"#utility.yul\":3621:3624   */\n  0x80\n    /* \"#utility.yul\":3609:3618   */\n  dup6\n    /* \"#utility.yul\":3600:3607   */\n  dup8\n    /* \"#utility.yul\":3596:3619   */\n  sub\n    /* \"#utility.yul\":3592:3625   */\n  slt\n    /* \"#utility.yul\":3589:3709   */\n  iszero\n  tag_97\n  jumpi\n    /* \"#utility.yul\":3628:3707   */\n  tag_98\n  tag_12\n  jump\t// in\ntag_98:\n    /* \"#utility.yul\":3589:3709   */\ntag_97:\n    /* \"#utility.yul\":3748:3749   */\n  0x00\n    /* \"#utility.yul\":3773:3837   */\n  tag_99\n    /* \"#utility.yul\":3829:3836   */\n  dup8\n    /* \"#utility.yul\":3820:3826   */\n  dup3\n    /* \"#utility.yul\":3809:3818   */\n  dup9\n    /* \"#utility.yul\":3805:3827   */\n  add\n    /* \"#utility.yul\":3773:3837   */\n  tag_17\n  jump\t// in\ntag_99:\n    /* \"#utility.yul\":3763:3837   */\n  swap5\n  pop\n    /* \"#utility.yul\":3719:3847   */\n  pop\n    /* \"#utility.yul\":3886:3888   */\n  0x20\n    /* \"#utility.yul\":3912:3976   */\n  tag_100\n    /* \"#utility.yul\":3968:3975   */\n  dup8\n    /* \"#utility.yul\":3959:3965   */\n  dup3\n    /* \"#utility.yul\":3948:3957   */\n  dup9\n    /* \"#utility.yul\":3944:3966   */\n  add\n    /* \"#utility.yul\":3912:3976   */\n  tag_17\n  jump\t// in\ntag_100:\n    /* \"#utility.yul\":3902:3976   */\n  swap4\n  pop\n    /* \"#utility.yul\":3857:3986   */\n  pop\n    /* \"#utility.yul\":4025:4027   */\n  0x40\n    /* \"#utility.yul\":4051:4115   */\n  tag_101\n    /* \"#utility.yul\":4107:4114   */\n  dup8\n    /* \"#utility.yul\":4098:4104   */\n  dup3\n    /* \"#utility.yul\":4087:4096   */\n  dup9\n    /* \"#utility.yul\":4083:4105   */\n  add\n    /* \"#utility.yul\":4051:4115   */\n  tag_20\n  jump\t// in\ntag_101:\n    /* \"#utility.yul\":4041:4115   */\n  swap3\n  pop\n    /* \"#utility.yul\":3996:4125   */\n  pop\n    /* \"#utility.yul\":4185:4187   */\n  0x60\n    /* \"#utility.yul\":4174:4183   */\n  dup6\n    /* \"#utility.yul\":4170:4188   */\n  add\n    /* \"#utility.yul\":4164:4189   */\n  mload\n    /* \"#utility.yul\":4216:4234   */\n  0xffffffffffffffff\n    /* \"#utility.yul\":4208:4214   */\n  dup2\n    /* \"#utility.yul\":4205:4235   */\n  gt\n    /* \"#utility.yul\":4202:4319   */\n  iszero\n  tag_102\n  jumpi\n    /* \"#utility.yul\":4238:4317   */\n  tag_103\n  tag_13\n  jump\t// in\ntag_103:\n    /* \"#utility.yul\":4202:4319   */\ntag_102:\n    /* \"#utility.yul\":4343:4417   */\n  tag_104\n    /* \"#utility.yul\":4409:4416   */\n  dup8\n    /* \"#utility.yul\":4400:4406   */\n  dup3\n    /* \"#utility.yul\":4389:4398   */\n  dup9\n    /* \"#utility.yul\":4385:4407   */\n  add\n    /* \"#utility.yul\":4343:4417   */\n  tag_30\n  jump\t// in\ntag_104:\n    /* \"#utility.yul\":4333:4417   */\n  swap2\n  pop\n    /* \"#utility.yul\":4135:4427   */\n  pop\n    /* \"#utility.yul\":3441:4434   */\n  swap3\n  swap6\n  swap2\n  swap5\n  pop\n  swap3\n  pop\n  jump\t// out\n    /* \"#utility.yul\":4440:4609   */\ntag_31:\n    /* \"#utility.yul\":4524:4535   */\n  0x00\n    /* \"#utility.yul\":4558:4564   */\n  dup3\n    /* \"#utility.yul\":4553:4556   */\n  dup3\n    /* \"#utility.yul\":4546:4565   */\n  mstore\n    /* \"#utility.yul\":4598:4602   */\n  0x20\n    /* \"#utility.yul\":4593:4596   */\n  dup3\n    /* \"#utility.yul\":4589:4603   */\n  add\n    /* \"#utility.yul\":4574:4603   */\n  swap1\n  pop\n    /* \"#utility.yul\":4440:4609   */\n  swap3\n  swap2\n  pop\n  pop\n  jump\t// out\n    /* \"#utility.yul\":4615:4781   */\ntag_32:\n    /* \"#utility.yul\":4755:4773   */\n  0x4d7573742066756e6420657363726f7700000000000000000000000000000000\n    /* \"#utility.yul\":4751:4752   */\n  0x00\n    /* \"#utility.yul\":4743:4749   */\n  dup3\n    /* \"#utility.yul\":4739:4753   */\n  add\n    /* \"#utility.yul\":4732:4774   */\n  mstore\n    /* \"#utility.yul\":4615:4781   */\n  pop\n  jump\t// out\n    /* \"#utility.yul\":4787:5153   */\ntag_33:\n    /* \"#utility.yul\":4929:4932   */\n  0x00\n    /* \"#utility.yul\":4950:5017   */\n  tag_108\n    /* \"#utility.yul\":5014:5016   */\n  0x10\n    /* \"#utility.yul\":5009:5012   */\n  dup4\n    /* \"#utility.yul\":4950:5017   */\n  tag_31\n  jump\t// in\ntag_108:\n    /* \"#utility.yul\":4943:5017   */\n  swap2\n  pop\n    /* \"#utility.yul\":5026:5119   */\n  tag_109\n    /* \"#utility.yul\":5115:5118   */\n  dup3\n    /* \"#utility.yul\":5026:5119   */\n  tag_32\n  jump\t// in\ntag_109:\n    /* \"#utility.yul\":5144:5146   */\n  0x20\n    /* \"#utility.yul\":5139:5142   */\n  dup3\n    /* \"#utility.yul\":5135:5147   */\n  add\n    /* \"#utility.yul\":5128:5147   */\n  swap1\n  pop\n    /* \"#utility.yul\":4787:5153   */\n  swap2\n  swap1\n  pop\n  jump\t// out\n    /* \"#utility.yul\":5159:5578   */\ntag_7:\n    /* \"#utility.yul\":5325:5329   */\n  0x00\n    /* \"#utility.yul\":5363:5365   */\n  0x20\n    /* \"#utility.yul\":5352:5361   */\n  dup3\n    /* \"#utility.yul\":5348:5366   */\n  add\n    /* \"#utility.yul\":5340:5366   */\n  swap1\n  pop\n    /* \"#utility.yul\":5412:5421   */\n  dup2\n    /* \"#utility.yul\":5406:5410   */\n  dup2\n    /* \"#utility.yul\":5402:5422   */\n  sub\n    /* \"#utility.yul\":5398:5399   */\n  0x00\n    /* \"#utility.yul\":5387:5396   */\n  dup4\n    /* \"#utility.yul\":5383:5400   */\n  add\n    /* \"#utility.yul\":5376:5423   */\n  mstore\n    /* \"#utility.yul\":5440:5571   */\n  tag_111\n    /* \"#utility.yul\":5566:5570   */\n  dup2\n    /* \"#utility.yul\":5440:5571   */\n  tag_33\n  jump\t// in\ntag_111:\n    /* \"#utility.yul\":5432:5571   */\n  swap1\n  pop\n    /* \"#utility.yul\":5159:5578   */\n  swap2\n  swap1\n  pop\n  jump\t// out\n    /* \"#utility.yul\":5584:5683   */\ntag_34:\n    /* \"#utility.yul\":5636:5642   */\n  0x00\n    /* \"#utility.yul\":5670:5675   */\n  dup2\n    /* \"#utility.yul\":5664:5676   */\n  mload\n    /* \"#utility.yul\":5654:5676   */\n  swap1\n  pop\n    /* \"#utility.yul\":5584:5683   */\n  swap2\n  swap1\n  pop\n  jump\t// out\n    /* \"#utility.yul\":5689:5869   */\ntag_35:\n    /* \"#utility.yul\":5737:5814   */\n  0x4e487b7100000000000000000000000000000000000000000000000000000000\n    /* \"#utility.yul\":5734:5735   */\n  0x00\n    /* \"#utility.yul\":5727:5815   */\n  mstore\n    /* \"#utility.yul\":5834:5838   */\n  0x22\n    /* \"#utility.yul\":5831:5832   */\n  0x04\n    /* \"#utility.yul\":5824:5839   */\n  mstore\n    /* \"#utility.yul\":5858:5862   */\n  0x24\n    /* \"#utility.yul\":5855:5856   */\n  0x00\n    /* \"#utility.yul\":5848:5863   */\n  revert\n    /* \"#utility.yul\":5875:6195   */\ntag_36:\n    /* \"#utility.yul\":5919:5925   */\n  0x00\n    /* \"#utility.yul\":5956:5957   */\n  0x02\n    /* \"#utility.yul\":5950:5954   */\n  dup3\n    /* \"#utility.yul\":5946:5958   */\n  div\n    /* \"#utility.yul\":5936:5958   */\n  swap1\n  pop\n    /* \"#utility.yul\":6003:6004   */\n  0x01\n    /* \"#utility.yul\":5997:6001   */\n  dup3\n    /* \"#utility.yul\":5993:6005   */\n  and\n    /* \"#utility.yul\":6024:6042   */\n  dup1\n    /* \"#utility.yul\":6014:6095   */\n  tag_115\n  jumpi\n    /* \"#utility.yul\":6080:6084   */\n  0x7f\n    /* \"#utility.yul\":6072:6078   */\n  dup3\n    /* \"#utility.yul\":6068:6085   */\n  and\n    /* \"#utility.yul\":6058:6085   */\n  swap2\n  pop\n    /* \"#utility.yul\":6014:6095   */\ntag_115:\n    /* \"#utility.yul\":6142:6144   */\n  0x20\n    /* \"#utility.yul\":6134:6140   */\n  dup3\n    /* \"#utility.yul\":6131:6145   */\n  lt\n    /* \"#utility.yul\":6111:6129   */\n  dup2\n    /* \"#utility.yul\":6108:6146   */\n  sub\n    /* \"#utility.yul\":6105:6189   */\n  tag_116\n  jumpi\n    /* \"#utility.yul\":6161:6179   */\n  tag_117\n  tag_35\n  jump\t// in\ntag_117:\n    /* \"#utility.yul\":6105:6189   */\ntag_116:\n    /* \"#utility.yul\":5926:6195   */\n  pop\n    /* \"#utility.yul\":5875:6195   */\n  swap2\n  swap1\n  pop\n  jump\t// out\n    /* \"#utility.yul\":6201:6342   */\ntag_37:\n    /* \"#utility.yul\":6250:6254   */\n  0x00\n    /* \"#utility.yul\":6273:6276   */\n  dup2\n    /* \"#utility.yul\":6265:6276   */\n  swap1\n  pop\n    /* \"#utility.yul\":6296:6299   */\n  dup2\n    /* \"#utility.yul\":6293:6294   */\n  0x00\n    /* \"#utility.yul\":6286:6300   */\n  mstore\n    /* \"#utility.yul\":6330:6334   */\n  0x20\n    /* \"#utility.yul\":6327:6328   */\n  0x00\n    /* \"#utility.yul\":6317:6335   */\n  keccak256\n    /* \"#utility.yul\":6309:6335   */\n  swap1\n  pop\n    /* \"#utility.yul\":6201:6342   */\n  swap2\n  swap1\n  pop\n  jump\t// out\n    /* \"#utility.yul\":6348:6441   */\ntag_38:\n    /* \"#utility.yul\":6385:6391   */\n  0x00\n    /* \"#utility.yul\":6432:6434   */\n  0x20\n    /* \"#utility.yul\":6427:6429   */\n  0x1f\n    /* \"#utility.yul\":6420:6425   */\n  dup4\n    /* \"#utility.yul\":6416:6430   */\n  add\n    /* \"#utility.yul\":6412:6435   */\n  div\n    /* \"#utility.yul\":6402:6435   */\n  swap1\n  pop\n    /* \"#utility.yul\":6348:6441   */\n  swap2\n  swap1\n  pop\n  jump\t// out\n    /* \"#utility.yul\":6447:6554   */\ntag_39:\n    /* \"#utility.yul\":6491:6499   */\n  0x00\n    /* \"#utility.yul\":6541:6546   */\n  dup3\n    /* \"#utility.yul\":6535:6539   */\n  dup3\n    /* \"#utility.yul\":6531:6547   */\n  shl\n    /* \"#utility.yul\":6510:6547   */\n  swap1\n  pop\n    /* \"#utility.yul\":6447:6554   */\n  swap3\n  swap2\n  pop\n  pop\n  jump\t// out\n    /* \"#utility.yul\":6560:6953   */\ntag_40:\n    /* \"#utility.yul\":6629:6635   */\n  0x00\n    /* \"#utility.yul\":6679:6680   */\n  0x08\n    /* \"#utility.yul\":6667:6677   */\n  dup4\n    /* \"#utility.yul\":6663:6681   */\n  mul\n    /* \"#utility.yul\":6702:6799   */\n  tag_122\n    /* \"#utility.yul\":6732:6798   */\n  0xffffffffffffffffffffffffffffffffffffffffffffffffffffffffffffffff\n    /* \"#utility.yul\":6721:6730   */\n  dup3\n    /* \"#utility.yul\":6702:6799   */\n  tag_39\n  jump\t// in\ntag_122:\n    /* \"#utility.yul\":6820:6859   */\n  tag_123\n    /* \"#utility.yul\":6850:6858   */\n  dup7\n    /* \"#utility.yul\":6839:6848   */\n  dup4\n    /* \"#utility.yul\":6820:6859   */\n  tag_39\n  jump\t// in\ntag_123:\n    /* \"#utility.yul\":6808:6859   */\n  swap6\n  pop\n    /* \"#utility.yul\":6892:6896   */\n  dup1\n    /* \"#utility.yul\":6888:6897   */\n  not\n    /* \"#utility.yul\":6881:6886   */\n  dup5\n    /* \"#utility.yul\":6877:6898   */\n  and\n    /* \"#utility.yul\":6868:6898   */\n  swap4\n  pop\n    /* \"#utility.yul\":6941:6945   */\n  dup1\n    /* \"#utility.yul\":6931:6939   */\n  dup7\n    /* \"#utility.yul\":6927:6946   */\n  and\n    /* \"#utility.yul\":6920:6925   */\n  dup5\n    /* \"#utility.yul\":6917:6947   */\n  or\n    /* \"#utility.yul\":6907:6947   */\n  swap3\n  pop\n    /* \"#utility.yul\":6636:6953   */\n  pop\n  pop\n    /* \"#utility.yul\":6560:6953   */\n  swap4\n  swap3\n  pop\n  pop\n  pop\n  jump\t// out\n    /* \"#utility.yul\":6959:7019   */\ntag_41:\n    /* \"#utility.yul\":6987:6990   */\n  0x00\n    /* \"#utility.yul\":7008:7013   */\n  dup2\n    /* \"#utility.yul\":7001:7013   */\n  swap1\n  pop\n    /* \"#utility.yul\":6959:7019   */\n  swap2\n  swap1\n  pop\n  jump\t// out\n    /* \"#utility.yul\":7025:7167   */\ntag_42:\n    /* \"#utility.yul\":7075:7084   */\n  0x00\n    /* \"#utility.yul\":7108:7161   */\n  tag_126\n    /* \"#utility.yul\":7126:7160   */\n  tag_127\n    /* \"#utility.yul\":7135:7159   */\n  tag_128\n    /* \"#utility.yul\":7153:7158   */\n  dup5\n    /* \"#utility.yul\":7135:7159   */\n  tag_18\n  jump\t// in\ntag_128:\n    /* \"#utility.yul\":7126:7160   */\n  tag_41\n  jump\t// in\ntag_127:\n    /* \"#utility.yul\":7108:7161   */\n  tag_18\n  jump\t// in\ntag_126:\n    /* \"#utility.yul\":7095:7161   */\n  swap1\n  pop\n    /* \"#utility.yul\":7025:7167   */\n  swap2\n  swap1\n  pop\n  jump\t// out\n    /* \"#utility.yul\":7173:7248   */\ntag_43:\n    /* \"#utility.yul\":7216:7219   */\n  0x00\n    /* \"#utility.yul\":7237:7242   */\n  dup2\n    /* \"#utility.yul\":7230:7242   */\n  swap1\n  pop\n    /* \"#utility.yul\":7173:7248   */\n  swap2\n  swap1\n  pop\n  jump\t// out\n    /* \"#utility.yul\":7254:7523   */\ntag_44:\n    /* \"#utility.yul\":7364:7403   */\n  tag_131\n    /* \"#utility.yul\":7395:7402   */\n  dup4\n    /* \"#utility.yul\":7364:7403   */\n  tag_42\n  jump\t// in\ntag_131:\n    /* \"#utility.yul\":7425:7516   */\n  tag_132\n    /* \"#utility.yul\":7474:7515   */\n  tag_133\n    /* \"#utility.yul\":7498:7514   */\n  dup3\n    /* \"#utility.yul\":7474:7515   */\n  tag_43\n  jump\t// in\ntag_133:\n    /* \"#utility.yul\":7466:7472   */\n  dup5\n    /* \"#utility.yul\":7459:7463   */\n  dup5\n    /* \"#utility.yul\":7453:7464   */\n  sload\n    /* \"#utility.yul\":7425:7516   */\n  tag_40\n  jump\t// in\ntag_132:\n    /* \"#utility.yul\":7419:7423   */\n  dup3\n    /* \"#utility.yul\":7412:7517   */\n  sstore\n    /* \"#utility.yul\":7330:7523   */\n  pop\n    /* \"#utility.yul\":7254:7523   */\n  pop\n  pop\n  pop\n  jump\t// out\n    /* \"#utility.yul\":7529:7602   */\ntag_45:\n    /* \"#utility.yul\":7574:7577   */\n  0x00\n    /* \"#utility.yul\":7529:7602   */\n  swap1\n  jump\t// out\n    /* \"#utility.yul\":7608:7797   */\ntag_46:\n    /* \"#utility.yul\":7685:7717   */\n  tag_136\n  tag_45\n  jump\t// in\ntag_136:\n    /* \"#utility.yul\":7726:7791   */\n  tag_137\n    /* \"#utility.yul\":7784:7790   */\n  dup2\n    /* \"#utility.yul\":7776:7782   */\n  dup5\n    /* \"#utility.yul\":7770:7774   */\n  dup5\n    /* \"#utility.yul\":7726:7791   */\n  tag_44\n  jump\t// in\ntag_137:\n    /* \"#utility.yul\":7661:7797   */\n  pop\n    /* \"#utility.yul\":7608:7797   */\n  pop\n  pop\n  jump\t// out\n    /* \"#utility.yul\":7803:7989   */\ntag_47:\n    /* \"#utility.yul\":7863:7983   */\ntag_139:\n    /* \"#utility.yul\":7880:7883   */\n  dup2\n    /* \"#utility.yul\":7873:7878   */\n  dup2\n    /* \"#utility.yul\":7870:7884   */\n  lt\n    /* \"#utility.yul\":7863:7983   */\n  iszero\n  tag_141\n  jumpi\n    /* \"#utility.yul\":7934:7973   */\n  tag_142\n    /* \"#utility.yul\":7971:7972   */\n  0x00\n    /* \"#utility.yul\":7964:7969   */\n  dup3\n    /* \"#utility.yul\":7934:7973   */\n  tag_46\n  jump\t// in\ntag_142:\n    /* \"#utility.yul\":7907:7908   */\n  0x01\n    /* \"#utility.yul\":7900:7905   */\n  dup2\n    /* \"#utility.yul\":7896:7909   */\n  add\n    /* \"#utility.yul\":7887:7909   */\n  swap1\n  pop\n    /* \"#utility.yul\":7863:7983   */\n  jump(tag_139)\ntag_141:\n    /* \"#utility.yul\":7803:7989   */\n  pop\n  pop\n  jump\t// out\n    /* \"#utility.yul\":7995:8538   */\ntag_48:\n    /* \"#utility.yul\":8096:8098   */\n  0x1f\n    /* \"#utility.yul\":8091:8094   */\n  dup3\n    /* \"#utility.yul\":8088:8099   */\n  gt\n    /* \"#utility.yul\":8085:8531   */\n  iszero\n  tag_144\n  jumpi\n    /* \"#utility.yul\":8130:8168   */\n  tag_145\n    /* \"#utility.yul\":8162:8167   */\n  dup2\n    /* \"#utility.yul\":8130:8168   */\n  tag_37\n  jump\t// in\ntag_145:\n    /* \"#utility.yul\":8214:8243   */\n  tag_146\n    /* \"#utility.yul\":8232:8242   */\n  dup5\n    /* \"#utility.yul\":8214:8243   */\n  tag_38\n  jump\t// in\ntag_146:\n    /* \"#utility.yul\":8204:8212   */\n  dup2\n    /* \"#utility.yul\":8200:8244   */\n  add\n    /* \"#utility.yul\":8397:8399   */\n  0x20\n    /* \"#utility.yul\":8385:8395   */\n  dup6\n    /* \"#utility.yul\":8382:8400   */\n  lt\n    /* \"#utility.yul\":8379:8428   */\n  iszero\n  tag_147\n  jumpi\n    /* \"#utility.yul\":8418:8426   */\n  dup2\n    /* \"#utility.yul\":8403:8426   */\n  swap1\n  pop\n    /* \"#utility.yul\":8379:8428   */\ntag_147:\n    /* \"#utility.yul\":8441:8521   */\n  tag_148\n    /* \"#utility.yul\":8497:8519   */\n  tag_149\n    /* \"#utility.yul\":8515:8518   */\n  dup6\n    /* \"#utility.yul\":8497:8519   */\n  tag_38\n  jump\t// in\ntag_149:\n    /* \"#utility.yul\":8487:8495   */\n  dup4\n    /* \"#utility.yul\":8483:8520   */\n  add\n    /* \"#utility.yul\":8470:8481   */\n  dup3\n    /* \"#utility.yul\":8441:8521   */\n  tag_47\n  jump\t// in\ntag_148:\n    /* \"#utility.yul\":8100:8531   */\n  pop\n  pop\n    /* \"#utility.yul\":8085:8531   */\ntag_144:\n    /* \"#utility.yul\":7995:8538   */\n  pop\n  pop\n  pop\n  jump\t// out\n    /* \"#utility.yul\":8544:8661   */\ntag_49:\n    /* \"#utility.yul\":8598:8606   */\n  0x00\n    /* \"#utility.yul\":8648:8653   */\n  dup3\n    /* \"#utility.yul\":8642:8646   */\n  dup3\n    /* \"#utility.yul\":8638:8654   */\n  shr\n    /* \"#utility.yul\":8617:8654   */\n  swap1\n  pop\n    /* \"#utility.yul\":8544:8661   */\n  swap3\n  swap2\n  pop\n  pop\n  jump\t// out\n    /* \"#utility.yul\":8667:8836   */\ntag_50:\n    /* \"#utility.yul\":8711:8717   */\n  0x00\n    /* \"#utility.yul\":8744:8795   */\n  tag_152\n    /* \"#utility.yul\":8792:8793   */\n  0x00\n    /* \"#utility.yul\":8788:8794   */\n  not\n    /* \"#utility.yul\":8780:8785   */\n  dup5\n    /* \"#utility.yul\":8777:8778   */\n  0x08\n    /* \"#utility.yul\":8773:8786   */\n  mul\n    /* \"#utility.yul\":8744:8795   */\n  tag_49\n  jump\t// in\ntag_152:\n    /* \"#utility.yul\":8740:8796   */\n  not\n    /* \"#utility.yul\":8825:8829   */\n  dup1\n    /* \"#utility.yul\":8819:8823   */\n  dup4\n    /* \"#utility.yul\":8815:8830   */\n  and\n    /* \"#utility.yul\":8805:8830   */\n  swap2\n  pop\n    /* \"#utility.yul\":8718:8836   */\n  pop\n    /* \"#utility.yul\":8667:8836   */\n  swap3\n  swap2\n  pop\n  pop\n  jump\t// out\n    /* \"#utility.yul\":8841:9136   */\ntag_51:\n    /* \"#utility.yul\":8917:8921   */\n  0x00\n    /* \"#utility.yul\":9063:9092   */\n  tag_154\n    /* \"#utility.yul\":9088:9091   */\n  dup4\n    /* \"#utility.yul\":9082:9086   */\n  dup4\n    /* \"#utility.yul\":9063:9092   */\n  tag_50\n  jump\t// in\ntag_154:\n    /* \"#utility.yul\":9055:9092   */\n  swap2\n  pop\n    /* \"#utility.yul\":9125:9128   */\n  dup3\n    /* \"#utility.yul\":9122:9123   */\n  0x02\n    /* \"#utility.yul\":9118:9129   */\n  mul\n    /* \"#utility.yul\":9112:9116   */\n  dup3\n    /* \"#utility.yul\":9109:9130   */\n  or\n    /* \"#utility.yul\":9101:9130   */\n  swap1\n  pop\n    /* \"#utility.yul\":8841:9136   */\n  swap3\n  swap2\n  pop\n  pop\n  jump\t// out\n    /* \"#utility.yul\":9141:10536   */\ntag_9:\n    /* \"#utility.yul\":9258:9295   */\n  tag_156\n    /* \"#utility.yul\":9291:9294   */\n  dup3\n    /* \"#utility.yul\":9258:9295   */\n  tag_34\n  jump\t// in\ntag_156:\n    /* \"#utility.yul\":9360:9378   */\n  0xffffffffffffffff\n    /* \"#utility.yul\":9352:9358   */\n  dup2\n    /* \"#utility.yul\":9349:9379   */\n  gt\n    /* \"#utility.yul\":9346:9402   */\n  iszero\n  tag_157\n  jumpi\n    /* \"#utility.yul\":9382:9400   */\n  tag_158\n  tag_24\n  jump\t// in\ntag_158:\n    /* \"#utility.yul\":9346:9402   */\ntag_157:\n    /* \"#utility.yul\":9426:9464   */\n  tag_159\n    /* \"#utility.yul\":9458:9462   */\n  dup3\n    /* \"#utility.yul\":9452:9463   */\n  sload\n    /* \"#utility.yul\":9426:9464   */\n  tag_36\n  jump\t// in\ntag_159:\n    /* \"#utility.yul\":9511:9578   */\n  tag_160\n    /* \"#utility.yul\":9571:9577   */\n  dup3\n    /* \"#utility.yul\":9563:9569   */\n  dup3\n    /* \"#utility.yul\":9557:9561   */\n  dup6\n    /* \"#utility.yul\":9511:9578   */\n  tag_48\n  jump\t// in\ntag_160:\n    /* \"#utility.yul\":9605:9606   */\n  0x00\n    /* \"#utility.yul\":9629:9633   */\n  0x20\n    /* \"#utility.yul\":9616:9633   */\n  swap1\n  pop\n    /* \"#utility.yul\":9661:9663   */\n  0x1f\n    /* \"#utility.yul\":9653:9659   */\n  dup4\n    /* \"#utility.yul\":9650:9664   */\n  gt\n    /* \"#utility.yul\":9678:9679   */\n  0x01\n    /* \"#utility.yul\":9673:10291   */\n  dup2\n  eq\n  tag_162\n  jumpi\n    /* \"#utility.yul\":10335:10336   */\n  0x00\n    /* \"#utility.yul\":10352:10358   */\n  dup5\n    /* \"#utility.yul\":10349:10426   */\n  iszero\n  tag_163\n  jumpi\n    /* \"#utility.yul\":10401:10410   */\n  dup3\n    /* \"#utility.yul\":10396:10399   */\n  dup8\n    /* \"#utility.yul\":10392:10411   */\n  add\n    /* \"#utility.yul\":10386:10412   */\n  mload\n    /* \"#utility.yul\":10377:10412   */\n  swap1\n  pop\n    /* \"#utility.yul\":10349:10426   */\ntag_163:\n    /* \"#utility.yul\":10452:10519   */\n  tag_164\n    /* \"#utility.yul\":10512:10518   */\n  dup6\n    /* \"#utility.yul\":10505:10510   */\n  dup3\n    /* \"#utility.yul\":10452:10519   */\n  tag_51\n  jump\t// in\ntag_164:\n    /* \"#utility.yul\":10446:10450   */\n  dup7\n    /* \"#utility.yul\":10439:10520   */\n  sstore\n    /* \"#utility.yul\":10308:10530   */\n  pop\n    /* \"#utility.yul\":9643:10530   */\n  jump(tag_161)\n    /* \"#utility.yul\":9673:10291   */\ntag_162:\n    /* \"#utility.yul\":9725:9729   */\n  0x1f\n    /* \"#utility.yul\":9721:9730   */\n  not\n    /* \"#utility.yul\":9713:9719   */\n  dup5\n    /* \"#utility.yul\":9709:9731   */\n  and\n    /* \"#utility.yul\":9759:9796   */\n  tag_165\n    /* \"#utility.yul\":9791:9795   */\n  dup7\n    /* \"#utility.yul\":9759:9796   */\n  tag_37\n  jump\t// in\ntag_165:\n    /* \"#utility.yul\":9818:9819   */\n  0x00\n    /* \"#utility.yul\":9832:10040   */\ntag_166:\n    /* \"#utility.yul\":9846:9853   */\n  dup3\n    /* \"#utility.yul\":9843:9844   */\n  dup2\n    /* \"#utility.yul\":9840:9854   */\n  lt\n    /* \"#utility.yul\":9832:10040   */\n  iszero\n  tag_168\n  jumpi\n    /* \"#utility.yul\":9925:9934   */\n  dup5\n    /* \"#utility.yul\":9920:9923   */\n  dup10\n    /* \"#utility.yul\":9916:9935   */\n  add\n    /* \"#utility.yul\":9910:9936   */\n  mload\n    /* \"#utility.yul\":9902:9908   */\n  dup3\n    /* \"#utility.yul\":9895:9937   */\n  sstore\n    /* \"#utility.yul\":9976:9977   */\n  0x01\n    /* \"#utility.yul\":9968:9974   */\n  dup3\n    /* \"#utility.yul\":9964:9978   */\n  add\n    /* \"#utility.yul\":9954:9978   */\n  swap2\n  pop\n    /* \"#utility.yul\":10023:10025   */\n  0x20\n    /* \"#utility.yul\":10012:10021   */\n  dup6\n    /* \"#utility.yul\":10008:10026   */\n  add\n    /* \"#utility.yul\":9995:10026   */\n  swap5\n  pop\n    /* \"#utility.yul\":9869:9873   */\n  0x20\n    /* \"#utility.yul\":9866:9867   */\n  dup2\n    /* \"#utility.yul\":9862:9874   */\n  add\n    /* \"#utility.yul\":9857:9874   */\n  swap1\n  pop\n    /* \"#utility.yul\":9832:10040   */\n  jump(tag_166)\ntag_168:\n    /* \"#utility.yul\":10068:10074   */\n  dup7\n    /* \"#utility.yul\":10059:10066   */\n  dup4\n    /* \"#utility.yul\":10056:10075   */\n  lt\n    /* \"#utility.yul\":10053:10232   */\n  iszero\n  tag_169\n  jumpi\n    /* \"#utility.yul\":10126:10135   */\n  dup5\n    /* \"#utility.yul\":10121:10124   */\n  dup10\n    /* \"#utility.yul\":10117:10136   */\n  add\n    /* \"#utility.yul\":10111:10137   */\n  mload\n    /* \"#utility.yul\":10169:10217   */\n  tag_170\n    /* \"#utility.yul\":10211:10215   */\n  0x1f\n    /* \"#utility.yul\":10203:10209   */\n  dup10\n    /* \"#utility.yul\":10199:10216   */\n  and\n    /* \"#utility.yul\":10188:10197   */\n  dup3\n    /* \"#utility.yul\":10169:10217   */\n  tag_50\n  jump\t// in\ntag_170:\n    /* \"#utility.yul\":10161:10167   */\n  dup4\n    /* \"#utility.yul\":10154:10218   */\n  sstore\n    /* \"#utility.yul\":10076:10232   */\n  pop\n    /* \"#utility.yul\":10053:10232   */\ntag_169:\n    /* \"#utility.yul\":10278:10279   */\n  0x01\n    /* \"#utility.yul\":10274:10275   */\n  0x02\n    /* \"#utility.yul\":10266:10272   */\n  dup9\n    /* \"#utility.yul\":10262:10276   */\n  mul\n    /* \"#utility.yul\":10258:10280   */\n  add\n    /* \"#utility.yul\":10252:10256   */\n  dup9\n    /* \"#utility.yul\":10245:10281   */\n  sstore\n    /* \"#utility.yul\":9680:10291   */\n  pop\n  pop\n  pop\n    /* \"#utility.yul\":9643:10530   */\ntag_161:\n  pop\n    /* \"#utility.yul\":9233:10536   */\n  pop\n  pop\n  pop\n    /* \"#utility.yul\":9141:10536   */\n  pop\n  pop\n  jump\t// out\n    /* \"E/Escrow Passwords/attack Plaintext Escrow Password.sol\":227:1120  contract PlaintextEscrowPassword {... */\ntag_10:\n  dataSize(sub_0)\n  dup1\n  dataOffset(sub_0)\n  0x00\n  codecopy\n  0x00\n  return\nstop\n\nsub_0: assembly {\n        /* \"E/Escrow Passwords/attack Plaintext Escrow Password.sol\":227:1120  contract PlaintextEscrowPassword {... */\n      mstore(0x40, 0x80)\n      callvalue\n      dup1\n      iszero\n      tag_1\n      jumpi\n      0x00\n      dup1\n      revert\n    tag_1:\n      pop\n      jumpi(tag_2, lt(calldatasize, 0x04))\n      shr(0xe0, calldataload(0x00))\n      dup1\n      0x08551a53\n      eq\n      tag_3\n      jumpi\n      dup1\n      0x7150d8ae\n      eq\n      tag_4\n      jumpi\n      dup1\n      0xa035b1fe\n      eq\n      tag_5\n      jumpi\n      dup1\n      0xedfc30b1\n      eq\n      tag_6\n      jumpi\n      dup1\n      0xf34e3723\n      eq\n      tag_7\n      jumpi\n      dup1\n      0xfa2a8997\n      eq\n      tag_8\n      jumpi\n    tag_2:\n      0x00\n      dup1\n      revert\n        /* \"E/Escrow Passwords/attack Plaintext Escrow Password.sol\":266:287  address public seller */\n    tag_3:\n      tag_9\n      tag_10\n      jump\t// in\n    tag_9:\n      mload(0x40)\n      tag_11\n      swap2\n      swap1\n      tag_12\n      jump\t// in\n    tag_11:\n      mload(0x40)\n      dup1\n      swap2\n      sub\n      swap1\n      return\n        /* \"E/Escrow Passwords/attack Plaintext Escrow Password.sol\":293:313  address public buyer */\n    tag_4:\n      tag_13\n      tag_14\n      jump\t// in\n    tag_13:\n      mload(0x40)\n      tag_15\n      swap2\n      swap1\n      tag_12\n      jump\t// in\n    tag_15:\n      mload(0x40)\n      dup1\n      swap2\n      sub\n      swap1\n      return\n        /* \"E/Escrow Passwords/attack Plaintext Escrow Password.sol\":319:339  uint256 public price */\n    tag_5:\n      tag_16\n      tag_17\n      jump\t// in\n    tag_16:\n      mload(0x40)\n      tag_18\n      swap2\n      swap1\n      tag_19\n      jump\t// in\n    tag_18:\n      mload(0x40)\n      dup1\n      swap2\n      sub\n      swap1\n      return\n        /* \"E/Escrow Passwords/attack Plaintext Escrow Password.sol\":345:373  string public escrowPassword */\n    tag_6:\n      tag_20\n      tag_21\n      jump\t// in\n    tag_20:\n      mload(0x40)\n      tag_22\n      swap2\n      swap1\n      tag_23\n      jump\t// in\n    tag_22:\n      mload(0x40)\n      dup1\n      swap2\n      sub\n      swap1\n      return\n        /* \"E/Escrow Passwords/attack Plaintext Escrow Password.sol\":766:1118  function release(string calldata attempt) external {... */\n    tag_7:\n      tag_24\n      0x04\n      dup1\n      calldatasize\n      sub\n      dup2\n      add\n      swap1\n      tag_25\n      swap2\n      swap1\n      tag_26\n      jump\t// in\n    tag_25:\n      tag_27\n      jump\t// in\n    tag_24:\n      stop\n        /* \"E/Escrow Passwords/attack Plaintext Escrow Password.sol\":409:431  bool public isReleased */\n    tag_8:\n      tag_28\n      tag_29\n      jump\t// in\n    tag_28:\n      mload(0x40)\n      tag_30\n      swap2\n      swap1\n      tag_31\n      jump\t// in\n    tag_30:\n      mload(0x40)\n      dup1\n      swap2\n      sub\n      swap1\n      return\n        /* \"E/Escrow Passwords/attack Plaintext Escrow Password.sol\":266:287  address public seller */\n    tag_10:\n      0x00\n      dup1\n      sload\n      swap1\n      0x0100\n      exp\n      swap1\n      div\n      0xffffffffffffffffffffffffffffffffffffffff\n      and\n      dup2\n      jump\t// out\n        /* \"E/Escrow Passwords/attack Plaintext Escrow Password.sol\":293:313  address public buyer */\n    tag_14:\n      0x01\n      0x00\n      swap1\n      sload\n      swap1\n      0x0100\n      exp\n      swap1\n      div\n      0xffffffffffffffffffffffffffffffffffffffff\n      and\n      dup2\n      jump\t// out\n        /* \"E/Escrow Passwords/attack Plaintext Escrow Password.sol\":319:339  uint256 public price */\n    tag_17:\n      sload(0x02)\n      dup2\n      jump\t// out\n        /* \"E/Escrow Passwords/attack Plaintext Escrow Password.sol\":345:373  string public escrowPassword */\n    tag_21:\n      0x03\n      dup1\n      sload\n      tag_32\n      swap1\n      tag_33\n      jump\t// in\n    tag_32:\n      dup1\n      0x1f\n      add\n      0x20\n      dup1\n      swap2\n      div\n      mul\n      0x20\n      add\n      mload(0x40)\n      swap1\n      dup2\n      add\n      0x40\n      mstore\n      dup1\n      swap3\n      swap2\n      swap1\n      dup2\n      dup2\n      mstore\n      0x20\n      add\n      dup3\n      dup1\n      sload\n      tag_34\n      swap1\n      tag_33\n      jump\t// in\n    tag_34:\n      dup1\n      iszero\n      tag_35\n      jumpi\n      dup1\n      0x1f\n      lt\n      tag_36\n      jumpi\n      0x0100\n      dup1\n      dup4\n      sload\n      div\n      mul\n      dup4\n      mstore\n      swap2\n      0x20\n      add\n      swap2\n      jump(tag_35)\n    tag_36:\n      dup3\n      add\n      swap2\n      swap1\n      0x00\n      mstore\n      keccak256(0x00, 0x20)\n      swap1\n    tag_37:\n      dup2\n      sload\n      dup2\n      mstore\n      swap1\n      0x01\n      add\n      swap1\n      0x20\n      add\n      dup1\n      dup4\n      gt\n      tag_37\n      jumpi\n      dup3\n      swap1\n      sub\n      0x1f\n      and\n      dup3\n      add\n      swap2\n    tag_35:\n      pop\n      pop\n      pop\n      pop\n      pop\n      dup2\n      jump\t// out\n        /* \"E/Escrow Passwords/attack Plaintext Escrow Password.sol\":766:1118  function release(string calldata attempt) external {... */\n    tag_27:\n        /* \"E/Escrow Passwords/attack Plaintext Escrow Password.sol\":1008:1022  escrowPassword */\n      0x03\n        /* \"E/Escrow Passwords/attack Plaintext Escrow Password.sol\":992:1024  keccak256(bytes(escrowPassword)) */\n      mload(0x40)\n      tag_39\n      swap2\n      swap1\n      tag_40\n      jump\t// in\n    tag_39:\n      mload(0x40)\n      dup1\n      swap2\n      sub\n      swap1\n      keccak256\n        /* \"E/Escrow Passwords/attack Plaintext Escrow Password.sol\":979:986  attempt */\n      dup3\n      dup3\n        /* \"E/Escrow Passwords/attack Plaintext Escrow Password.sol\":963:988  keccak256(bytes(attempt)) */\n      mload(0x40)\n      tag_41\n      swap3\n      swap2\n      swap1\n      tag_42\n      jump\t// in\n    tag_41:\n      mload(0x40)\n      dup1\n      swap2\n      sub\n      swap1\n      keccak256\n        /* \"E/Escrow Passwords/attack Plaintext Escrow Password.sol\":963:1024  keccak256(bytes(attempt)) == keccak256(bytes(escrowPassword)) */\n      eq\n        /* \"E/Escrow Passwords/attack Plaintext Escrow Password.sol\":955:1043  require(keccak256(bytes(attempt)) == keccak256(bytes(escrowPassword)), \"Wrong password\") */\n      tag_43\n      jumpi\n      mload(0x40)\n      0x08c379a000000000000000000000000000000000000000000000000000000000\n      dup2\n      mstore\n      0x04\n      add\n      tag_44\n      swap1\n      tag_45\n      jump\t// in\n    tag_44:\n      mload(0x40)\n      dup1\n      swap2\n      sub\n      swap1\n      revert\n    tag_43:\n        /* \"E/Escrow Passwords/attack Plaintext Escrow Password.sol\":1066:1070  true */\n      0x01\n        /* \"E/Escrow Passwords/attack Plaintext Escrow Password.sol\":1053:1063  isReleased */\n      0x04\n      0x00\n        /* \"E/Escrow Passwords/attack Plaintext Escrow Password.sol\":1053:1070  isReleased = true */\n      0x0100\n      exp\n      dup2\n      sload\n      dup2\n      0xff\n      mul\n      not\n      and\n      swap1\n      dup4\n      iszero\n      iszero\n      mul\n      or\n      swap1\n      sstore\n      pop\n        /* \"E/Escrow Passwords/attack Plaintext Escrow Password.sol\":1088:1094  seller */\n      0x00\n      dup1\n      sload\n      swap1\n      0x0100\n      exp\n      swap1\n      div\n      0xffffffffffffffffffffffffffffffffffffffff\n      and\n        /* \"E/Escrow Passwords/attack Plaintext Escrow Password.sol\":1080:1104  payable(seller).transfer */\n      0xffffffffffffffffffffffffffffffffffffffff\n      and\n        /* \"E/Escrow Passwords/attack Plaintext Escrow Password.sol\":1080:1111  payable(seller).transfer(price) */\n      0x08fc\n        /* \"E/Escrow Passwords/attack Plaintext Escrow Password.sol\":1105:1110  price */\n      sload(0x02)\n        /* \"E/Escrow Passwords/attack Plaintext Escrow Password.sol\":1080:1111  payable(seller).transfer(price) */\n      swap1\n      dup2\n      iszero\n      mul\n      swap1\n      mload(0x40)\n      0x00\n      mload(0x40)\n      dup1\n      dup4\n      sub\n      dup2\n      dup6\n      dup9\n      dup9\n      call\n      swap4\n      pop\n      pop\n      pop\n      pop\n      iszero\n      dup1\n      iszero\n      tag_47\n      jumpi\n      returndatasize\n      0x00\n      dup1\n      returndatacopy\n      revert(0x00, returndatasize)\n    tag_47:\n      pop\n        /* \"E/Escrow Passwords/attack Plaintext Escrow Password.sol\":766:1118  function release(string calldata attempt) external {... */\n      pop\n      pop\n      jump\t// out\n        /* \"E/Escrow Passwords/attack Plaintext Escrow Password.sol\":409:431  bool public isReleased */\n    tag_29:\n      0x04\n      0x00\n      swap1\n      sload\n      swap1\n      0x0100\n      exp\n      swap1\n      div\n      0xff\n      and\n      dup2\n      jump\t// out\n        /* \"#utility.yul\":7:133   */\n    tag_48:\n        /* \"#utility.yul\":44:51   */\n      0x00\n        /* \"#utility.yul\":84:126   */\n      0xffffffffffffffffffffffffffffffffffffffff\n        /* \"#utility.yul\":77:82   */\n      dup3\n        /* \"#utility.yul\":73:127   */\n      and\n        /* \"#utility.yul\":62:127   */\n      swap1\n      pop\n        /* \"#utility.yul\":7:133   */\n      swap2\n      swap1\n      pop\n      jump\t// out\n        /* \"#utility.yul\":139:235   */\n    tag_49:\n        /* \"#utility.yul\":176:183   */\n      0x00\n        /* \"#utility.yul\":205:229   */\n      tag_78\n        /* \"#utility.yul\":223:228   */\n      dup3\n        /* \"#utility.yul\":205:229   */\n      tag_48\n      jump\t// in\n    tag_78:\n        /* \"#utility.yul\":194:229   */\n      swap1\n      pop\n        /* \"#utility.yul\":139:235   */\n      swap2\n      swap1\n      pop\n      jump\t// out\n        /* \"#utility.yul\":241:359   */\n    tag_50:\n        /* \"#utility.yul\":328:352   */\n      tag_80\n        /* \"#utility.yul\":346:351   */\n      dup2\n        /* \"#utility.yul\":328:352   */\n      tag_49\n      jump\t// in\n    tag_80:\n        /* \"#utility.yul\":323:326   */\n      dup3\n        /* \"#utility.yul\":316:353   */\n      mstore\n        /* \"#utility.yul\":241:359   */\n      pop\n      pop\n      jump\t// out\n        /* \"#utility.yul\":365:587   */\n    tag_12:\n        /* \"#utility.yul\":458:462   */\n      0x00\n        /* \"#utility.yul\":496:498   */\n      0x20\n        /* \"#utility.yul\":485:494   */\n      dup3\n        /* \"#utility.yul\":481:499   */\n      add\n        /* \"#utility.yul\":473:499   */\n      swap1\n      pop\n        /* \"#utility.yul\":509:580   */\n      tag_82\n        /* \"#utility.yul\":577:578   */\n      0x00\n        /* \"#utility.yul\":566:575   */\n      dup4\n        /* \"#utility.yul\":562:579   */\n      add\n        /* \"#utility.yul\":553:559   */\n      dup5\n        /* \"#utility.yul\":509:580   */\n      tag_50\n      jump\t// in\n    tag_82:\n        /* \"#utility.yul\":365:587   */\n      swap3\n      swap2\n      pop\n      pop\n      jump\t// out\n        /* \"#utility.yul\":593:670   */\n    tag_51:\n        /* \"#utility.yul\":630:637   */\n      0x00\n        /* \"#utility.yul\":659:664   */\n      dup2\n        /* \"#utility.yul\":648:664   */\n      swap1\n      pop\n        /* \"#utility.yul\":593:670   */\n      swap2\n      swap1\n      pop\n      jump\t// out\n        /* \"#utility.yul\":676:794   */\n    tag_52:\n        /* \"#utility.yul\":763:787   */\n      tag_85\n        /* \"#utility.yul\":781:786   */\n      dup2\n        /* \"#utility.yul\":763:787   */\n      tag_51\n      jump\t// in\n    tag_85:\n        /* \"#utility.yul\":758:761   */\n      dup3\n        /* \"#utility.yul\":751:788   */\n      mstore\n        /* \"#utility.yul\":676:794   */\n      pop\n      pop\n      jump\t// out\n        /* \"#utility.yul\":800:1022   */\n    tag_19:\n        /* \"#utility.yul\":893:897   */\n      0x00\n        /* \"#utility.yul\":931:933   */\n      0x20\n        /* \"#utility.yul\":920:929   */\n      dup3\n        /* \"#utility.yul\":916:934   */\n      add\n        /* \"#utility.yul\":908:934   */\n      swap1\n      pop\n        /* \"#utility.yul\":944:1015   */\n      tag_87\n        /* \"#utility.yul\":1012:1013   */\n      0x00\n        /* \"#utility.yul\":1001:1010   */\n      dup4\n        /* \"#utility.yul\":997:1014   */\n      add\n        /* \"#utility.yul\":988:994   */\n      dup5\n        /* \"#utility.yul\":944:1015   */\n      tag_52\n      jump\t// in\n    tag_87:\n        /* \"#utility.yul\":800:1022   */\n      swap3\n      swap2\n      pop\n      pop\n      jump\t// out\n        /* \"#utility.yul\":1028:1127   */\n    tag_53:\n        /* \"#utility.yul\":1080:1086   */\n      0x00\n        /* \"#utility.yul\":1114:1119   */\n      dup2\n        /* \"#utility.yul\":1108:1120   */\n      mload\n        /* \"#utility.yul\":1098:1120   */\n      swap1\n      pop\n        /* \"#utility.yul\":1028:1127   */\n      swap2\n      swap1\n      pop\n      jump\t// out\n        /* \"#utility.yul\":1133:1302   */\n    tag_54:\n        /* \"#utility.yul\":1217:1228   */\n      0x00\n        /* \"#utility.yul\":1251:1257   */\n      dup3\n        /* \"#utility.yul\":1246:1249   */\n      dup3\n        /* \"#utility.yul\":1239:1258   */\n      mstore\n        /* \"#utility.yul\":1291:1295   */\n      0x20\n        /* \"#utility.yul\":1286:1289   */\n      dup3\n        /* \"#utility.yul\":1282:1296   */\n      add\n        /* \"#utility.yul\":1267:1296   */\n      swap1\n      pop\n        /* \"#utility.yul\":1133:1302   */\n      swap3\n      swap2\n      pop\n      pop\n      jump\t// out\n        /* \"#utility.yul\":1308:1447   */\n    tag_55:\n        /* \"#utility.yul\":1397:1403   */\n      dup3\n        /* \"#utility.yul\":1392:1395   */\n      dup2\n        /* \"#utility.yul\":1387:1390   */\n      dup4\n        /* \"#utility.yul\":1381:1404   */\n      mcopy\n        /* \"#utility.yul\":1438:1439   */\n      0x00\n        /* \"#utility.yul\":1429:1435   */\n      dup4\n        /* \"#utility.yul\":1424:1427   */\n      dup4\n        /* \"#utility.yul\":1420:1436   */\n      add\n        /* \"#utility.yul\":1413:1440   */\n      mstore\n        /* \"#utility.yul\":1308:1447   */\n      pop\n      pop\n      pop\n      jump\t// out\n        /* \"#utility.yul\":1453:1555   */\n    tag_56:\n        /* \"#utility.yul\":1494:1500   */\n      0x00\n        /* \"#utility.yul\":1545:1547   */\n      0x1f\n        /* \"#utility.yul\":1541:1548   */\n      not\n        /* \"#utility.yul\":1536:1538   */\n      0x1f\n        /* \"#utility.yul\":1529:1534   */\n      dup4\n        /* \"#utility.yul\":1525:1539   */\n      add\n        /* \"#utility.yul\":1521:1549   */\n      and\n        /* \"#utility.yul\":1511:1549   */\n      swap1\n      pop\n        /* \"#utility.yul\":1453:1555   */\n      swap2\n      swap1\n      pop\n      jump\t// out\n        /* \"#utility.yul\":1561:1938   */\n    tag_57:\n        /* \"#utility.yul\":1649:1652   */\n      0x00\n        /* \"#utility.yul\":1677:1716   */\n      tag_93\n        /* \"#utility.yul\":1710:1715   */\n      dup3\n        /* \"#utility.yul\":1677:1716   */\n      tag_53\n      jump\t// in\n    tag_93:\n        /* \"#utility.yul\":1732:1803   */\n      tag_94\n        /* \"#utility.yul\":1796:1802   */\n      dup2\n        /* \"#utility.yul\":1791:1794   */\n      dup6\n        /* \"#utility.yul\":1732:1803   */\n      tag_54\n      jump\t// in\n    tag_94:\n        /* \"#utility.yul\":1725:1803   */\n      swap4\n      pop\n        /* \"#utility.yul\":1812:1877   */\n      tag_95\n        /* \"#utility.yul\":1870:1876   */\n      dup2\n        /* \"#utility.yul\":1865:1868   */\n      dup6\n        /* \"#utility.yul\":1858:1862   */\n      0x20\n        /* \"#utility.yul\":1851:1856   */\n      dup7\n        /* \"#utility.yul\":1847:1863   */\n      add\n        /* \"#utility.yul\":1812:1877   */\n      tag_55\n      jump\t// in\n    tag_95:\n        /* \"#utility.yul\":1902:1931   */\n      tag_96\n        /* \"#utility.yul\":1924:1930   */\n      dup2\n        /* \"#utility.yul\":1902:1931   */\n      tag_56\n      jump\t// in\n    tag_96:\n        /* \"#utility.yul\":1897:1900   */\n      dup5\n        /* \"#utility.yul\":1893:1932   */\n      add\n        /* \"#utility.yul\":1886:1932   */\n      swap2\n      pop\n        /* \"#utility.yul\":1653:1938   */\n      pop\n        /* \"#utility.yul\":1561:1938   */\n      swap3\n      swap2\n      pop\n      pop\n      jump\t// out\n        /* \"#utility.yul\":1944:2257   */\n    tag_23:\n        /* \"#utility.yul\":2057:2061   */\n      0x00\n        /* \"#utility.yul\":2095:2097   */\n      0x20\n        /* \"#utility.yul\":2084:2093   */\n      dup3\n        /* \"#utility.yul\":2080:2098   */\n      add\n        /* \"#utility.yul\":2072:2098   */\n      swap1\n      pop\n        /* \"#utility.yul\":2144:2153   */\n      dup2\n        /* \"#utility.yul\":2138:2142   */\n      dup2\n        /* \"#utility.yul\":2134:2154   */\n      sub\n        /* \"#utility.yul\":2130:2131   */\n      0x00\n        /* \"#utility.yul\":2119:2128   */\n      dup4\n        /* \"#utility.yul\":2115:2132   */\n      add\n        /* \"#utility.yul\":2108:2155   */\n      mstore\n        /* \"#utility.yul\":2172:2250   */\n      tag_98\n        /* \"#utility.yul\":2245:2249   */\n      dup2\n        /* \"#utility.yul\":2236:2242   */\n      dup5\n        /* \"#utility.yul\":2172:2250   */\n      tag_57\n      jump\t// in\n    tag_98:\n        /* \"#utility.yul\":2164:2250   */\n      swap1\n      pop\n        /* \"#utility.yul\":1944:2257   */\n      swap3\n      swap2\n      pop\n      pop\n      jump\t// out\n        /* \"#utility.yul\":2344:2461   */\n    tag_59:\n        /* \"#utility.yul\":2453:2454   */\n      0x00\n        /* \"#utility.yul\":2450:2451   */\n      dup1\n        /* \"#utility.yul\":2443:2455   */\n      revert\n        /* \"#utility.yul\":2467:2584   */\n    tag_60:\n        /* \"#utility.yul\":2576:2577   */\n      0x00\n        /* \"#utility.yul\":2573:2574   */\n      dup1\n        /* \"#utility.yul\":2566:2578   */\n      revert\n        /* \"#utility.yul\":2590:2707   */\n    tag_61:\n        /* \"#utility.yul\":2699:2700   */\n      0x00\n        /* \"#utility.yul\":2696:2697   */\n      dup1\n        /* \"#utility.yul\":2689:2701   */\n      revert\n        /* \"#utility.yul\":2713:2830   */\n    tag_62:\n        /* \"#utility.yul\":2822:2823   */\n      0x00\n        /* \"#utility.yul\":2819:2820   */\n      dup1\n        /* \"#utility.yul\":2812:2824   */\n      revert\n        /* \"#utility.yul\":2836:2953   */\n    tag_63:\n        /* \"#utility.yul\":2945:2946   */\n      0x00\n        /* \"#utility.yul\":2942:2943   */\n      dup1\n        /* \"#utility.yul\":2935:2947   */\n      revert\n        /* \"#utility.yul\":2973:3526   */\n    tag_64:\n        /* \"#utility.yul\":3031:3039   */\n      0x00\n        /* \"#utility.yul\":3041:3047   */\n      dup1\n        /* \"#utility.yul\":3091:3094   */\n      dup4\n        /* \"#utility.yul\":3084:3088   */\n      0x1f\n        /* \"#utility.yul\":3076:3082   */\n      dup5\n        /* \"#utility.yul\":3072:3089   */\n      add\n        /* \"#utility.yul\":3068:3095   */\n      slt\n        /* \"#utility.yul\":3058:3180   */\n      tag_106\n      jumpi\n        /* \"#utility.yul\":3099:3178   */\n      tag_107\n      tag_61\n      jump\t// in\n    tag_107:\n        /* \"#utility.yul\":3058:3180   */\n    tag_106:\n        /* \"#utility.yul\":3212:3218   */\n      dup3\n        /* \"#utility.yul\":3199:3219   */\n      calldataload\n        /* \"#utility.yul\":3189:3219   */\n      swap1\n      pop\n        /* \"#utility.yul\":3242:3260   */\n      0xffffffffffffffff\n        /* \"#utility.yul\":3234:3240   */\n      dup2\n        /* \"#utility.yul\":3231:3261   */\n      gt\n        /* \"#utility.yul\":3228:3345   */\n      iszero\n      tag_108\n      jumpi\n        /* \"#utility.yul\":3264:3343   */\n      tag_109\n      tag_62\n      jump\t// in\n    tag_109:\n        /* \"#utility.yul\":3228:3345   */\n    tag_108:\n        /* \"#utility.yul\":3378:3382   */\n      0x20\n        /* \"#utility.yul\":3370:3376   */\n      dup4\n        /* \"#utility.yul\":3366:3383   */\n      add\n        /* \"#utility.yul\":3354:3383   */\n      swap2\n      pop\n        /* \"#utility.yul\":3432:3435   */\n      dup4\n        /* \"#utility.yul\":3424:3428   */\n      0x01\n        /* \"#utility.yul\":3416:3422   */\n      dup3\n        /* \"#utility.yul\":3412:3429   */\n      mul\n        /* \"#utility.yul\":3402:3410   */\n      dup4\n        /* \"#utility.yul\":3398:3430   */\n      add\n        /* \"#utility.yul\":3395:3436   */\n      gt\n        /* \"#utility.yul\":3392:3520   */\n      iszero\n      tag_110\n      jumpi\n        /* \"#utility.yul\":3439:3518   */\n      tag_111\n      tag_63\n      jump\t// in\n    tag_111:\n        /* \"#utility.yul\":3392:3520   */\n    tag_110:\n        /* \"#utility.yul\":2973:3526   */\n      swap3\n      pop\n      swap3\n      swap1\n      pop\n      jump\t// out\n        /* \"#utility.yul\":3532:4061   */\n    tag_26:\n        /* \"#utility.yul\":3603:3609   */\n      0x00\n        /* \"#utility.yul\":3611:3617   */\n      dup1\n        /* \"#utility.yul\":3660:3662   */\n      0x20\n        /* \"#utility.yul\":3648:3657   */\n      dup4\n        /* \"#utility.yul\":3639:3646   */\n      dup6\n        /* \"#utility.yul\":3635:3658   */\n      sub\n        /* \"#utility.yul\":3631:3663   */\n      slt\n        /* \"#utility.yul\":3628:3747   */\n      iszero\n      tag_113\n      jumpi\n        /* \"#utility.yul\":3666:3745   */\n      tag_114\n      tag_59\n      jump\t// in\n    tag_114:\n        /* \"#utility.yul\":3628:3747   */\n    tag_113:\n        /* \"#utility.yul\":3814:3815   */\n      0x00\n        /* \"#utility.yul\":3803:3812   */\n      dup4\n        /* \"#utility.yul\":3799:3816   */\n      add\n        /* \"#utility.yul\":3786:3817   */\n      calldataload\n        /* \"#utility.yul\":3844:3862   */\n      0xffffffffffffffff\n        /* \"#utility.yul\":3836:3842   */\n      dup2\n        /* \"#utility.yul\":3833:3863   */\n      gt\n        /* \"#utility.yul\":3830:3947   */\n      iszero\n      tag_115\n      jumpi\n        /* \"#utility.yul\":3866:3945   */\n      tag_116\n      tag_60\n      jump\t// in\n    tag_116:\n        /* \"#utility.yul\":3830:3947   */\n    tag_115:\n        /* \"#utility.yul\":3979:4044   */\n      tag_117\n        /* \"#utility.yul\":4036:4043   */\n      dup6\n        /* \"#utility.yul\":4027:4033   */\n      dup3\n        /* \"#utility.yul\":4016:4025   */\n      dup7\n        /* \"#utility.yul\":4012:4034   */\n      add\n        /* \"#utility.yul\":3979:4044   */\n      tag_64\n      jump\t// in\n    tag_117:\n        /* \"#utility.yul\":3961:4044   */\n      swap3\n      pop\n      swap3\n      pop\n        /* \"#utility.yul\":3757:4054   */\n      pop\n        /* \"#utility.yul\":3532:4061   */\n      swap3\n      pop\n      swap3\n      swap1\n      pop\n      jump\t// out\n        /* \"#utility.yul\":4067:4157   */\n    tag_65:\n        /* \"#utility.yul\":4101:4108   */\n      0x00\n        /* \"#utility.yul\":4144:4149   */\n      dup2\n        /* \"#utility.yul\":4137:4150   */\n      iszero\n        /* \"#utility.yul\":4130:4151   */\n      iszero\n        /* \"#utility.yul\":4119:4151   */\n      swap1\n      pop\n        /* \"#utility.yul\":4067:4157   */\n      swap2\n      swap1\n      pop\n      jump\t// out\n        /* \"#utility.yul\":4163:4272   */\n    tag_66:\n        /* \"#utility.yul\":4244:4265   */\n      tag_120\n        /* \"#utility.yul\":4259:4264   */\n      dup2\n        /* \"#utility.yul\":4244:4265   */\n      tag_65\n      jump\t// in\n    tag_120:\n        /* \"#utility.yul\":4239:4242   */\n      dup3\n        /* \"#utility.yul\":4232:4266   */\n      mstore\n        /* \"#utility.yul\":4163:4272   */\n      pop\n      pop\n      jump\t// out\n        /* \"#utility.yul\":4278:4488   */\n    tag_31:\n        /* \"#utility.yul\":4365:4369   */\n      0x00\n        /* \"#utility.yul\":4403:4405   */\n      0x20\n        /* \"#utility.yul\":4392:4401   */\n      dup3\n        /* \"#utility.yul\":4388:4406   */\n      add\n        /* \"#utility.yul\":4380:4406   */\n      swap1\n      pop\n        /* \"#utility.yul\":4416:4481   */\n      tag_122\n        /* \"#utility.yul\":4478:4479   */\n      0x00\n        /* \"#utility.yul\":4467:4476   */\n      dup4\n        /* \"#utility.yul\":4463:4480   */\n      add\n        /* \"#utility.yul\":4454:4460   */\n      dup5\n        /* \"#utility.yul\":4416:4481   */\n      tag_66\n      jump\t// in\n    tag_122:\n        /* \"#utility.yul\":4278:4488   */\n      swap3\n      swap2\n      pop\n      pop\n      jump\t// out\n        /* \"#utility.yul\":4494:4674   */\n    tag_67:\n        /* \"#utility.yul\":4542:4619   */\n      0x4e487b7100000000000000000000000000000000000000000000000000000000\n        /* \"#utility.yul\":4539:4540   */\n      0x00\n        /* \"#utility.yul\":4532:4620   */\n      mstore\n        /* \"#utility.yul\":4639:4643   */\n      0x22\n        /* \"#utility.yul\":4636:4637   */\n      0x04\n        /* \"#utility.yul\":4629:4644   */\n      mstore\n        /* \"#utility.yul\":4663:4667   */\n      0x24\n        /* \"#utility.yul\":4660:4661   */\n      0x00\n        /* \"#utility.yul\":4653:4668   */\n      revert\n        /* \"#utility.yul\":4680:5000   */\n    tag_33:\n        /* \"#utility.yul\":4724:4730   */\n      0x00\n        /* \"#utility.yul\":4761:4762   */\n      0x02\n        /* \"#utility.yul\":4755:4759   */\n      dup3\n        /* \"#utility.yul\":4751:4763   */\n      div\n        /* \"#utility.yul\":4741:4763   */\n      swap1\n      pop\n        /* \"#utility.yul\":4808:4809   */\n      0x01\n        /* \"#utility.yul\":4802:4806   */\n      dup3\n        /* \"#utility.yul\":4798:4810   */\n      and\n        /* \"#utility.yul\":4829:4847   */\n      dup1\n        /* \"#utility.yul\":4819:4900   */\n      tag_125\n      jumpi\n        /* \"#utility.yul\":4885:4889   */\n      0x7f\n        /* \"#utility.yul\":4877:4883   */\n      dup3\n        /* \"#utility.yul\":4873:4890   */\n      and\n        /* \"#utility.yul\":4863:4890   */\n      swap2\n      pop\n        /* \"#utility.yul\":4819:4900   */\n    tag_125:\n        /* \"#utility.yul\":4947:4949   */\n      0x20\n        /* \"#utility.yul\":4939:4945   */\n      dup3\n        /* \"#utility.yul\":4936:4950   */\n      lt\n        /* \"#utility.yul\":4916:4934   */\n      dup2\n        /* \"#utility.yul\":4913:4951   */\n      sub\n        /* \"#utility.yul\":4910:4994   */\n      tag_126\n      jumpi\n        /* \"#utility.yul\":4966:4984   */\n      tag_127\n      tag_67\n      jump\t// in\n    tag_127:\n        /* \"#utility.yul\":4910:4994   */\n    tag_126:\n        /* \"#utility.yul\":4731:5000   */\n      pop\n        /* \"#utility.yul\":4680:5000   */\n      swap2\n      swap1\n      pop\n      jump\t// out\n        /* \"#utility.yul\":5006:5153   */\n    tag_68:\n        /* \"#utility.yul\":5107:5118   */\n      0x00\n        /* \"#utility.yul\":5144:5147   */\n      dup2\n        /* \"#utility.yul\":5129:5147   */\n      swap1\n      pop\n        /* \"#utility.yul\":5006:5153   */\n      swap3\n      swap2\n      pop\n      pop\n      jump\t// out\n        /* \"#utility.yul\":5159:5303   */\n    tag_69:\n        /* \"#utility.yul\":5211:5215   */\n      0x00\n        /* \"#utility.yul\":5234:5237   */\n      dup2\n        /* \"#utility.yul\":5226:5237   */\n      swap1\n      pop\n        /* \"#utility.yul\":5257:5260   */\n      dup2\n        /* \"#utility.yul\":5254:5255   */\n      0x00\n        /* \"#utility.yul\":5247:5261   */\n      mstore\n        /* \"#utility.yul\":5291:5295   */\n      0x20\n        /* \"#utility.yul\":5288:5289   */\n      0x00\n        /* \"#utility.yul\":5278:5296   */\n      keccak256\n        /* \"#utility.yul\":5270:5296   */\n      swap1\n      pop\n        /* \"#utility.yul\":5159:5303   */\n      swap2\n      swap1\n      pop\n      jump\t// out\n        /* \"#utility.yul\":5331:6209   */\n    tag_70:\n        /* \"#utility.yul\":5436:5439   */\n      0x00\n        /* \"#utility.yul\":5473:5478   */\n      dup2\n        /* \"#utility.yul\":5467:5479   */\n      sload\n        /* \"#utility.yul\":5502:5538   */\n      tag_131\n        /* \"#utility.yul\":5528:5537   */\n      dup2\n        /* \"#utility.yul\":5502:5538   */\n      tag_33\n      jump\t// in\n    tag_131:\n        /* \"#utility.yul\":5554:5642   */\n      tag_132\n        /* \"#utility.yul\":5635:5641   */\n      dup2\n        /* \"#utility.yul\":5630:5633   */\n      dup7\n        /* \"#utility.yul\":5554:5642   */\n      tag_68\n      jump\t// in\n    tag_132:\n        /* \"#utility.yul\":5547:5642   */\n      swap5\n      pop\n        /* \"#utility.yul\":5673:5674   */\n      0x01\n        /* \"#utility.yul\":5662:5671   */\n      dup3\n        /* \"#utility.yul\":5658:5675   */\n      and\n        /* \"#utility.yul\":5689:5690   */\n      0x00\n        /* \"#utility.yul\":5684:5850   */\n      dup2\n      eq\n      tag_134\n      jumpi\n        /* \"#utility.yul\":5864:5865   */\n      0x01\n        /* \"#utility.yul\":5859:6203   */\n      dup2\n      eq\n      tag_135\n      jumpi\n        /* \"#utility.yul\":5651:6203   */\n      jump(tag_133)\n        /* \"#utility.yul\":5684:5850   */\n    tag_134:\n        /* \"#utility.yul\":5768:5772   */\n      0xff\n        /* \"#utility.yul\":5764:5773   */\n      not\n        /* \"#utility.yul\":5753:5762   */\n      dup4\n        /* \"#utility.yul\":5749:5774   */\n      and\n        /* \"#utility.yul\":5744:5747   */\n      dup7\n        /* \"#utility.yul\":5737:5775   */\n      mstore\n        /* \"#utility.yul\":5830:5836   */\n      dup2\n        /* \"#utility.yul\":5823:5837   */\n      iszero\n        /* \"#utility.yul\":5816:5838   */\n      iszero\n        /* \"#utility.yul\":5808:5814   */\n      dup3\n        /* \"#utility.yul\":5804:5839   */\n      mul\n        /* \"#utility.yul\":5799:5802   */\n      dup7\n        /* \"#utility.yul\":5795:5840   */\n      add\n        /* \"#utility.yul\":5788:5840   */\n      swap4\n      pop\n        /* \"#utility.yul\":5684:5850   */\n      jump(tag_133)\n        /* \"#utility.yul\":5859:6203   */\n    tag_135:\n        /* \"#utility.yul\":5926:5967   */\n      tag_136\n        /* \"#utility.yul\":5961:5966   */\n      dup6\n        /* \"#utility.yul\":5926:5967   */\n      tag_69\n      jump\t// in\n    tag_136:\n        /* \"#utility.yul\":5989:5990   */\n      0x00\n        /* \"#utility.yul\":6003:6157   */\n    tag_137:\n        /* \"#utility.yul\":6017:6023   */\n      dup4\n        /* \"#utility.yul\":6014:6015   */\n      dup2\n        /* \"#utility.yul\":6011:6024   */\n      lt\n        /* \"#utility.yul\":6003:6157   */\n      iszero\n      tag_139\n      jumpi\n        /* \"#utility.yul\":6091:6098   */\n      dup2\n        /* \"#utility.yul\":6085:6099   */\n      sload\n        /* \"#utility.yul\":6081:6082   */\n      dup2\n        /* \"#utility.yul\":6076:6079   */\n      dup10\n        /* \"#utility.yul\":6072:6083   */\n      add\n        /* \"#utility.yul\":6065:6100   */\n      mstore\n        /* \"#utility.yul\":6141:6142   */\n      0x01\n        /* \"#utility.yul\":6132:6139   */\n      dup3\n        /* \"#utility.yul\":6128:6143   */\n      add\n        /* \"#utility.yul\":6117:6143   */\n      swap2\n      pop\n        /* \"#utility.yul\":6039:6043   */\n      0x20\n        /* \"#utility.yul\":6036:6037   */\n      dup2\n        /* \"#utility.yul\":6032:6044   */\n      add\n        /* \"#utility.yul\":6027:6044   */\n      swap1\n      pop\n        /* \"#utility.yul\":6003:6157   */\n      jump(tag_137)\n    tag_139:\n        /* \"#utility.yul\":6186:6192   */\n      dup4\n        /* \"#utility.yul\":6181:6184   */\n      dup9\n        /* \"#utility.yul\":6177:6193   */\n      add\n        /* \"#utility.yul\":6170:6193   */\n      swap6\n      pop\n        /* \"#utility.yul\":5866:6203   */\n      pop\n      pop\n        /* \"#utility.yul\":5651:6203   */\n    tag_133:\n      pop\n        /* \"#utility.yul\":5440:6209   */\n      pop\n      pop\n        /* \"#utility.yul\":5331:6209   */\n      swap3\n      swap2\n      pop\n      pop\n      jump\t// out\n        /* \"#utility.yul\":6215:6488   */\n    tag_40:\n        /* \"#utility.yul\":6346:6349   */\n      0x00\n        /* \"#utility.yul\":6368:6462   */\n      tag_141\n        /* \"#utility.yul\":6458:6461   */\n      dup3\n        /* \"#utility.yul\":6449:6455   */\n      dup5\n        /* \"#utility.yul\":6368:6462   */\n      tag_70\n      jump\t// in\n    tag_141:\n        /* \"#utility.yul\":6361:6462   */\n      swap2\n      pop\n        /* \"#utility.yul\":6479:6482   */\n      dup2\n        /* \"#utility.yul\":6472:6482   */\n      swap1\n      pop\n        /* \"#utility.yul\":6215:6488   */\n      swap3\n      swap2\n      pop\n      pop\n      jump\t// out\n        /* \"#utility.yul\":6494:6642   */\n    tag_71:\n        /* \"#utility.yul\":6592:6598   */\n      dup3\n        /* \"#utility.yul\":6587:6590   */\n      dup2\n        /* \"#utility.yul\":6582:6585   */\n      dup4\n        /* \"#utility.yul\":6569:6599   */\n      calldatacopy\n        /* \"#utility.yul\":6633:6634   */\n      0x00\n        /* \"#utility.yul\":6624:6630   */\n      dup4\n        /* \"#utility.yul\":6619:6622   */\n      dup4\n        /* \"#utility.yul\":6615:6631   */\n      add\n        /* \"#utility.yul\":6608:6635   */\n      mstore\n        /* \"#utility.yul\":6494:6642   */\n      pop\n      pop\n      pop\n      jump\t// out\n        /* \"#utility.yul\":6670:6997   */\n    tag_72:\n        /* \"#utility.yul\":6784:6787   */\n      0x00\n        /* \"#utility.yul\":6805:6893   */\n      tag_144\n        /* \"#utility.yul\":6886:6892   */\n      dup4\n        /* \"#utility.yul\":6881:6884   */\n      dup6\n        /* \"#utility.yul\":6805:6893   */\n      tag_68\n      jump\t// in\n    tag_144:\n        /* \"#utility.yul\":6798:6893   */\n      swap4\n      pop\n        /* \"#utility.yul\":6903:6959   */\n      tag_145\n        /* \"#utility.yul\":6952:6958   */\n      dup4\n        /* \"#utility.yul\":6947:6950   */\n      dup6\n        /* \"#utility.yul\":6940:6945   */\n      dup5\n        /* \"#utility.yul\":6903:6959   */\n      tag_71\n      jump\t// in\n    tag_145:\n        /* \"#utility.yul\":6984:6990   */\n      dup3\n        /* \"#utility.yul\":6979:6982   */\n      dup5\n        /* \"#utility.yul\":6975:6991   */\n      add\n        /* \"#utility.yul\":6968:6991   */\n      swap1\n      pop\n        /* \"#utility.yul\":6670:6997   */\n      swap4\n      swap3\n      pop\n      pop\n      pop\n      jump\t// out\n        /* \"#utility.yul\":7003:7294   */\n    tag_42:\n        /* \"#utility.yul\":7143:7146   */\n      0x00\n        /* \"#utility.yul\":7165:7268   */\n      tag_147\n        /* \"#utility.yul\":7264:7267   */\n      dup3\n        /* \"#utility.yul\":7255:7261   */\n      dup5\n        /* \"#utility.yul\":7247:7253   */\n      dup7\n        /* \"#utility.yul\":7165:7268   */\n      tag_72\n      jump\t// in\n    tag_147:\n        /* \"#utility.yul\":7158:7268   */\n      swap2\n      pop\n        /* \"#utility.yul\":7285:7288   */\n      dup2\n        /* \"#utility.yul\":7278:7288   */\n      swap1\n      pop\n        /* \"#utility.yul\":7003:7294   */\n      swap4\n      swap3\n      pop\n      pop\n      pop\n      jump\t// out\n        /* \"#utility.yul\":7300:7464   */\n    tag_73:\n        /* \"#utility.yul\":7440:7456   */\n      0x57726f6e672070617373776f7264000000000000000000000000000000000000\n        /* \"#utility.yul\":7436:7437   */\n      0x00\n        /* \"#utility.yul\":7428:7434   */\n      dup3\n        /* \"#utility.yul\":7424:7438   */\n      add\n        /* \"#utility.yul\":7417:7457   */\n      mstore\n        /* \"#utility.yul\":7300:7464   */\n      pop\n      jump\t// out\n        /* \"#utility.yul\":7470:7836   */\n    tag_74:\n        /* \"#utility.yul\":7612:7615   */\n      0x00\n        /* \"#utility.yul\":7633:7700   */\n      tag_150\n        /* \"#utility.yul\":7697:7699   */\n      0x0e\n        /* \"#utility.yul\":7692:7695   */\n      dup4\n        /* \"#utility.yul\":7633:7700   */\n      tag_54\n      jump\t// in\n    tag_150:\n        /* \"#utility.yul\":7626:7700   */\n      swap2\n      pop\n        /* \"#utility.yul\":7709:7802   */\n      tag_151\n        /* \"#utility.yul\":7798:7801   */\n      dup3\n        /* \"#utility.yul\":7709:7802   */\n      tag_73\n      jump\t// in\n    tag_151:\n        /* \"#utility.yul\":7827:7829   */\n      0x20\n        /* \"#utility.yul\":7822:7825   */\n      dup3\n        /* \"#utility.yul\":7818:7830   */\n      add\n        /* \"#utility.yul\":7811:7830   */\n      swap1\n      pop\n        /* \"#utility.yul\":7470:7836   */\n      swap2\n      swap1\n      pop\n      jump\t// out\n        /* \"#utility.yul\":7842:8261   */\n    tag_45:\n        /* \"#utility.yul\":8008:8012   */\n      0x00\n        /* \"#utility.yul\":8046:8048   */\n      0x20\n        /* \"#utility.yul\":8035:8044   */\n      dup3\n        /* \"#utility.yul\":8031:8049   */\n      add\n        /* \"#utility.yul\":8023:8049   */\n      swap1\n      pop\n        /* \"#utility.yul\":8095:8104   */\n      dup2\n        /* \"#utility.yul\":8089:8093   */\n      dup2\n        /* \"#utility.yul\":8085:8105   */\n      sub\n        /* \"#utility.yul\":8081:8082   */\n      0x00\n        /* \"#utility.yul\":8070:8079   */\n      dup4\n        /* \"#utility.yul\":8066:8083   */\n      add\n        /* \"#utility.yul\":8059:8106   */\n      mstore\n        /* \"#utility.yul\":8123:8254   */\n      tag_153\n        /* \"#utility.yul\":8249:8253   */\n      dup2\n        /* \"#utility.yul\":8123:8254   */\n      tag_74\n      jump\t// in\n    tag_153:\n        /* \"#utility.yul\":8115:8254   */\n      swap1\n      pop\n        /* \"#utility.yul\":7842:8261   */\n      swap2\n      swap1\n      pop\n      jump\t// out\n\n    auxdata: 0xa26469706673582212201861913ae4477515c41ce8d5ab9e9be3ae9366a20721616dfefd5ff842d02e4764736f6c634300081a0033\n}\n",
				"bytecode": {
					"linkReferences": {},
					"object": "6080604052604051610dbc380380610dbc833981810160405281019061002591906102f9565b813414610067576040517f08c379a000000000000000000000000000000000000000000000000000000000815260040161005e906103d3565b60405180910390fd5b835f806101000a81548173ffffffffffffffffffffffffffffffffffffffff021916908373ffffffffffffffffffffffffffffffffffffffff1602179055508260015f6101000a81548173ffffffffffffffffffffffffffffffffffffffff021916908373ffffffffffffffffffffffffffffffffffffffff1602179055508160028190555080600390816100fc91906105f5565b505f60045f6101000a81548160ff021916908315150217905550505050506106c4565b5f604051905090565b5f80fd5b5f80fd5b5f73ffffffffffffffffffffffffffffffffffffffff82169050919050565b5f61015982610130565b9050919050565b6101698161014f565b8114610173575f80fd5b50565b5f8151905061018481610160565b92915050565b5f819050919050565b61019c8161018a565b81146101a6575f80fd5b50565b5f815190506101b781610193565b92915050565b5f80fd5b5f80fd5b5f601f19601f8301169050919050565b7f4e487b71000000000000000000000000000000000000000000000000000000005f52604160045260245ffd5b61020b826101c5565b810181811067ffffffffffffffff8211171561022a576102296101d5565b5b80604052505050565b5f61023c61011f565b90506102488282610202565b919050565b5f67ffffffffffffffff821115610267576102666101d5565b5b610270826101c5565b9050602081019050919050565b8281835e5f83830152505050565b5f61029d6102988461024d565b610233565b9050828152602081018484840111156102b9576102b86101c1565b5b6102c484828561027d565b509392505050565b5f82601f8301126102e0576102df6101bd565b5b81516102f084826020860161028b565b91505092915050565b5f805f806080858703121561031157610310610128565b5b5f61031e87828801610176565b945050602061032f87828801610176565b9350506040610340878288016101a9565b925050606085015167ffffffffffffffff8111156103615761036061012c565b5b61036d878288016102cc565b91505092959194509250565b5f82825260208201905092915050565b7f4d7573742066756e6420657363726f77000000000000000000000000000000005f82015250565b5f6103bd601083610379565b91506103c882610389565b602082019050919050565b5f6020820190508181035f8301526103ea816103b1565b9050919050565b5f81519050919050565b7f4e487b71000000000000000000000000000000000000000000000000000000005f52602260045260245ffd5b5f600282049050600182168061043f57607f821691505b602082108103610452576104516103fb565b5b50919050565b5f819050815f5260205f209050919050565b5f6020601f8301049050919050565b5f82821b905092915050565b5f600883026104b47fffffffffffffffffffffffffffffffffffffffffffffffffffffffffffffffff82610479565b6104be8683610479565b95508019841693508086168417925050509392505050565b5f819050919050565b5f6104f96104f46104ef8461018a565b6104d6565b61018a565b9050919050565b5f819050919050565b610512836104df565b61052661051e82610500565b848454610485565b825550505050565b5f90565b61053a61052e565b610545818484610509565b505050565b5b818110156105685761055d5f82610532565b60018101905061054b565b5050565b601f8211156105ad5761057e81610458565b6105878461046a565b81016020851015610596578190505b6105aa6105a28561046a565b83018261054a565b50505b505050565b5f82821c905092915050565b5f6105cd5f19846008026105b2565b1980831691505092915050565b5f6105e583836105be565b9150826002028217905092915050565b6105fe826103f1565b67ffffffffffffffff811115610617576106166101d5565b5b6106218254610428565b61062c82828561056c565b5f60209050601f83116001811461065d575f841561064b578287015190505b61065585826105da565b8655506106bc565b601f19841661066b86610458565b5f5b828110156106925784890151825560018201915060208501945060208101905061066d565b868310156106af57848901516106ab601f8916826105be565b8355505b6001600288020188555050505b505050505050565b6106eb806106d15f395ff3fe608060405234801561000f575f80fd5b5060043610610060575f3560e01c806308551a53146100645780637150d8ae14610082578063a035b1fe146100a0578063edfc30b1146100be578063f34e3723146100dc578063fa2a8997146100f8575b5f80fd5b61006c610116565b6040516100799190610333565b60405180910390f35b61008a610139565b6040516100979190610333565b60405180910390f35b6100a861015e565b6040516100b59190610364565b60405180910390f35b6100c6610164565b6040516100d391906103ed565b60405180910390f35b6100f660048036038101906100f19190610476565b6101f0565b005b6101006102e2565b60405161010d91906104db565b60405180910390f35b5f8054906101000a900473ffffffffffffffffffffffffffffffffffffffff1681565b60015f9054906101000a900473ffffffffffffffffffffffffffffffffffffffff1681565b60025481565b6003805461017190610521565b80601f016020809104026020016040519081016040528092919081815260200182805461019d90610521565b80156101e85780601f106101bf576101008083540402835291602001916101e8565b820191905f5260205f20905b8154815290600101906020018083116101cb57829003601f168201915b505050505081565b60036040516101ff91906105ed565b60405180910390208282604051610217929190610635565b60405180910390201461025f576040517f08c379a000000000000000000000000000000000000000000000000000000000815260040161025690610697565b60405180910390fd5b600160045f6101000a81548160ff0219169083151502179055505f8054906101000a900473ffffffffffffffffffffffffffffffffffffffff1673ffffffffffffffffffffffffffffffffffffffff166108fc60025490811502906040515f60405180830381858888f193505050501580156102dd573d5f803e3d5ffd5b505050565b60045f9054906101000a900460ff1681565b5f73ffffffffffffffffffffffffffffffffffffffff82169050919050565b5f61031d826102f4565b9050919050565b61032d81610313565b82525050565b5f6020820190506103465f830184610324565b92915050565b5f819050919050565b61035e8161034c565b82525050565b5f6020820190506103775f830184610355565b92915050565b5f81519050919050565b5f82825260208201905092915050565b8281835e5f83830152505050565b5f601f19601f8301169050919050565b5f6103bf8261037d565b6103c98185610387565b93506103d9818560208601610397565b6103e2816103a5565b840191505092915050565b5f6020820190508181035f83015261040581846103b5565b905092915050565b5f80fd5b5f80fd5b5f80fd5b5f80fd5b5f80fd5b5f8083601f84011261043657610435610415565b5b8235905067ffffffffffffffff81111561045357610452610419565b5b60208301915083600182028301111561046f5761046e61041d565b5b9250929050565b5f806020838503121561048c5761048b61040d565b5b5f83013567ffffffffffffffff8111156104a9576104a8610411565b5b6104b585828601610421565b92509250509250929050565b5f8115159050919050565b6104d5816104c1565b82525050565b5f6020820190506104ee5f8301846104cc565b92915050565b7f4e487b71000000000000000000000000000000000000000000000000000000005f52602260045260245ffd5b5f600282049050600182168061053857607f821691505b60208210810361054b5761054a6104f4565b5b50919050565b5f81905092915050565b5f819050815f5260205f209050919050565b5f815461057981610521565b6105838186610551565b9450600182165f811461059d57600181146105b2576105e4565b60ff19831686528115158202860193506105e4565b6105bb8561055b565b5f5b838110156105dc578154818901526001820191506020810190506105bd565b838801955050505b50505092915050565b5f6105f8828461056d565b915081905092915050565b828183375f83830152505050565b5f61061c8385610551565b9350610629838584610603565b82840190509392505050565b5f610641828486610611565b91508190509392505050565b7f57726f6e672070617373776f72640000000000000000000000000000000000005f82015250565b5f610681600e83610387565b915061068c8261064d565b602082019050919050565b5f6020820190508181035f8301526106ae81610675565b905091905056fea26469706673582212201861913ae4477515c41ce8d5ab9e9be3ae9366a20721616dfefd5ff842d02e4764736f6c634300081a0033",
					"opcodes": "PUSH1 0x80 PUSH1 0x40 MSTORE PUSH1 0x40 MLOAD PUSH2 0xDBC CODESIZE SUB DUP1 PUSH2 0xDBC DUP4 CODECOPY DUP2 DUP2 ADD PUSH1 0x40 MSTORE DUP2 ADD SWAP1 PUSH2 0x25 SWAP2 SWAP1 PUSH2 0x2F9 JUMP JUMPDEST DUP2 CALLVALUE EQ PUSH2 0x67 JUMPI PUSH1 0x40 MLOAD PUSH32 0x8C379A000000000000000000000000000000000000000000000000000000000 DUP2 MSTORE PUSH1 0x4 ADD PUSH2 0x5E SWAP1 PUSH2 0x3D3 JUMP JUMPDEST PUSH1 0x40 MLOAD DUP1 SWAP2 SUB SWAP1 REVERT JUMPDEST DUP4 PUSH0 DUP1 PUSH2 0x100 EXP DUP2 SLOAD DUP2 PUSH20 0xFFFFFFFFFFFFFFFFFFFFFFFFFFFFFFFFFFFFFFFF MUL NOT AND SWAP1 DUP4 PUSH20 0xFFFFFFFFFFFFFFFFFFFFFFFFFFFFFFFFFFFFFFFF AND MUL OR SWAP1 SSTORE POP DUP3 PUSH1 0x1 PUSH0 PUSH2 0x100 EXP DUP2 SLOAD DUP2 PUSH20 0xFFFFFFFFFFFFFFFFFFFFFFFFFFFFFFFFFFFFFFFF MUL NOT AND SWAP1 DUP4 PUSH20 0xFFFFFFFFFFFFFFFFFFFFFFFFFFFFFFFFFFFFFFFF AND MUL OR SWAP1 SSTORE POP DUP2 PUSH1 0x2 DUP2 SWAP1 SSTORE POP DUP1 PUSH1 0x3 SWAP1 DUP2 PUSH2 0xFC SWAP2 SWAP1 PUSH2 0x5F5 JUMP JUMPDEST POP PUSH0 PUSH1 0x4 PUSH0 PUSH2 0x100 EXP DUP2 SLOAD DUP2 PUSH1 0xFF MUL NOT AND SWAP1 DUP4 ISZERO ISZERO MUL OR SWAP1 SSTORE POP POP POP POP POP PUSH2 0x6C4 JUMP JUMPDEST PUSH0 PUSH1 0x40 MLOAD SWAP1 POP SWAP1 JUMP JUMPDEST PUSH0 DUP1 REVERT JUMPDEST PUSH0 DUP1 REVERT JUMPDEST PUSH0 PUSH20 0xFFFFFFFFFFFFFFFFFFFFFFFFFFFFFFFFFFFFFFFF DUP3 AND SWAP1 POP SWAP2 SWAP1 POP JUMP JUMPDEST PUSH0 PUSH2 0x159 DUP3 PUSH2 0x130 JUMP JUMPDEST SWAP1 POP SWAP2 SWAP1 POP JUMP JUMPDEST PUSH2 0x169 DUP2 PUSH2 0x14F JUMP JUMPDEST DUP2 EQ PUSH2 0x173 JUMPI PUSH0 DUP1 REVERT JUMPDEST POP JUMP JUMPDEST PUSH0 DUP2 MLOAD SWAP1 POP PUSH2 0x184 DUP2 PUSH2 0x160 JUMP JUMPDEST SWAP3 SWAP2 POP POP JUMP JUMPDEST PUSH0 DUP2 SWAP1 POP SWAP2 SWAP1 POP JUMP JUMPDEST PUSH2 0x19C DUP2 PUSH2 0x18A JUMP JUMPDEST DUP2 EQ PUSH2 0x1A6 JUMPI PUSH0 DUP1 REVERT JUMPDEST POP JUMP JUMPDEST PUSH0 DUP2 MLOAD SWAP1 POP PUSH2 0x1B7 DUP2 PUSH2 0x193 JUMP JUMPDEST SWAP3 SWAP2 POP POP JUMP JUMPDEST PUSH0 DUP1 REVERT JUMPDEST PUSH0 DUP1 REVERT JUMPDEST PUSH0 PUSH1 0x1F NOT PUSH1 0x1F DUP4 ADD AND SWAP1 POP SWAP2 SWAP1 POP JUMP JUMPDEST PUSH32 0x4E487B7100000000000000000000000000000000000000000000000000000000 PUSH0 MSTORE PUSH1 0x41 PUSH1 0x4 MSTORE PUSH1 0x24 PUSH0 REVERT JUMPDEST PUSH2 0x20B DUP3 PUSH2 0x1C5 JUMP JUMPDEST DUP2 ADD DUP2 DUP2 LT PUSH8 0xFFFFFFFFFFFFFFFF DUP3 GT OR ISZERO PUSH2 0x22A JUMPI PUSH2 0x229 PUSH2 0x1D5 JUMP JUMPDEST JUMPDEST DUP1 PUSH1 0x40 MSTORE POP POP POP JUMP JUMPDEST PUSH0 PUSH2 0x23C PUSH2 0x11F JUMP JUMPDEST SWAP1 POP PUSH2 0x248 DUP3 DUP3 PUSH2 0x202 JUMP JUMPDEST SWAP2 SWAP1 POP JUMP JUMPDEST PUSH0 PUSH8 0xFFFFFFFFFFFFFFFF DUP3 GT ISZERO PUSH2 0x267 JUMPI PUSH2 0x266 PUSH2 0x1D5 JUMP JUMPDEST JUMPDEST PUSH2 0x270 DUP3 PUSH2 0x1C5 JUMP JUMPDEST SWAP1 POP PUSH1 0x20 DUP2 ADD SWAP1 POP SWAP2 SWAP1 POP JUMP JUMPDEST DUP3 DUP2 DUP4 MCOPY PUSH0 DUP4 DUP4 ADD MSTORE POP POP POP JUMP JUMPDEST PUSH0 PUSH2 0x29D PUSH2 0x298 DUP5 PUSH2 0x24D JUMP JUMPDEST PUSH2 0x233 JUMP JUMPDEST SWAP1 POP DUP3 DUP2 MSTORE PUSH1 0x20 DUP2 ADD DUP5 DUP5 DUP5 ADD GT ISZERO PUSH2 0x2B9 JUMPI PUSH2 0x2B8 PUSH2 0x1C1 JUMP JUMPDEST JUMPDEST PUSH2 0x2C4 DUP5 DUP3 DUP6 PUSH2 0x27D JUMP JUMPDEST POP SWAP4 SWAP3 POP POP POP JUMP JUMPDEST PUSH0 DUP3 PUSH1 0x1F DUP4 ADD SLT PUSH2 0x2E0 JUMPI PUSH2 0x2DF PUSH2 0x1BD JUMP JUMPDEST JUMPDEST DUP2 MLOAD PUSH2 0x2F0 DUP5 DUP3 PUSH1 0x20 DUP7 ADD PUSH2 0x28B JUMP JUMPDEST SWAP2 POP POP SWAP3 SWAP2 POP POP JUMP JUMPDEST PUSH0 DUP1 PUSH0 DUP1 PUSH1 0x80 DUP6 DUP8 SUB SLT ISZERO PUSH2 0x311 JUMPI PUSH2 0x310 PUSH2 0x128 JUMP JUMPDEST JUMPDEST PUSH0 PUSH2 0x31E DUP8 DUP3 DUP9 ADD PUSH2 0x176 JUMP JUMPDEST SWAP5 POP POP PUSH1 0x20 PUSH2 0x32F DUP8 DUP3 DUP9 ADD PUSH2 0x176 JUMP JUMPDEST SWAP4 POP POP PUSH1 0x40 PUSH2 0x340 DUP8 DUP3 DUP9 ADD PUSH2 0x1A9 JUMP JUMPDEST SWAP3 POP POP PUSH1 0x60 DUP6 ADD MLOAD PUSH8 0xFFFFFFFFFFFFFFFF DUP2 GT ISZERO PUSH2 0x361 JUMPI PUSH2 0x360 PUSH2 0x12C JUMP JUMPDEST JUMPDEST PUSH2 0x36D DUP8 DUP3 DUP9 ADD PUSH2 0x2CC JUMP JUMPDEST SWAP2 POP POP SWAP3 SWAP6 SWAP2 SWAP5 POP SWAP3 POP JUMP JUMPDEST PUSH0 DUP3 DUP3 MSTORE PUSH1 0x20 DUP3 ADD SWAP1 POP SWAP3 SWAP2 POP POP JUMP JUMPDEST PUSH32 0x4D7573742066756E6420657363726F7700000000000000000000000000000000 PUSH0 DUP3 ADD MSTORE POP JUMP JUMPDEST PUSH0 PUSH2 0x3BD PUSH1 0x10 DUP4 PUSH2 0x379 JUMP JUMPDEST SWAP2 POP PUSH2 0x3C8 DUP3 PUSH2 0x389 JUMP JUMPDEST PUSH1 0x20 DUP3 ADD SWAP1 POP SWAP2 SWAP1 POP JUMP JUMPDEST PUSH0 PUSH1 0x20 DUP3 ADD SWAP1 POP DUP2 DUP2 SUB PUSH0 DUP4 ADD MSTORE PUSH2 0x3EA DUP2 PUSH2 0x3B1 JUMP JUMPDEST SWAP1 POP SWAP2 SWAP1 POP JUMP JUMPDEST PUSH0 DUP2 MLOAD SWAP1 POP SWAP2 SWAP1 POP JUMP JUMPDEST PUSH32 0x4E487B7100000000000000000000000000000000000000000000000000000000 PUSH0 MSTORE PUSH1 0x22 PUSH1 0x4 MSTORE PUSH1 0x24 PUSH0 REVERT JUMPDEST PUSH0 PUSH1 0x2 DUP3 DIV SWAP1 POP PUSH1 0x1 DUP3 AND DUP1 PUSH2 0x43F JUMPI PUSH1 0x7F DUP3 AND SWAP2 POP JUMPDEST PUSH1 0x20 DUP3 LT DUP2 SUB PUSH2 0x452 JUMPI PUSH2 0x451 PUSH2 0x3FB JUMP JUMPDEST JUMPDEST POP SWAP2 SWAP1 POP JUMP JUMPDEST PUSH0 DUP2 SWAP1 POP DUP2 PUSH0 MSTORE PUSH1 0x20 PUSH0 KECCAK256 SWAP1 POP SWAP2 SWAP1 POP JUMP JUMPDEST PUSH0 PUSH1 0x20 PUSH1 0x1F DUP4 ADD DIV SWAP1 POP SWAP2 SWAP1 POP JUMP JUMPDEST PUSH0 DUP3 DUP3 SHL SWAP1 POP SWAP3 SWAP2 POP POP JUMP JUMPDEST PUSH0 PUSH1 0x8 DUP4 MUL PUSH2 0x4B4 PUSH32 0xFFFFFFFFFFFFFFFFFFFFFFFFFFFFFFFFFFFFFFFFFFFFFFFFFFFFFFFFFFFFFFFF DUP3 PUSH2 0x479 JUMP JUMPDEST PUSH2 0x4BE DUP7 DUP4 PUSH2 0x479 JUMP JUMPDEST SWAP6 POP DUP1 NOT DUP5 AND SWAP4 POP DUP1 DUP7 AND DUP5 OR SWAP3 POP POP POP SWAP4 SWAP3 POP POP POP JUMP JUMPDEST PUSH0 DUP2 SWAP1 POP SWAP2 SWAP1 POP JUMP JUMPDEST PUSH0 PUSH2 0x4F9 PUSH2 0x4F4 PUSH2 0x4EF DUP5 PUSH2 0x18A JUMP JUMPDEST PUSH2 0x4D6 JUMP JUMPDEST PUSH2 0x18A JUMP JUMPDEST SWAP1 POP SWAP2 SWAP1 POP JUMP JUMPDEST PUSH0 DUP2 SWAP1 POP SWAP2 SWAP1 POP JUMP JUMPDEST PUSH2 0x512 DUP4 PUSH2 0x4DF JUMP JUMPDEST PUSH2 0x526 PUSH2 0x51E DUP3 PUSH2 0x500 JUMP JUMPDEST DUP5 DUP5 SLOAD PUSH2 0x485 JUMP JUMPDEST DUP3 SSTORE POP POP POP POP JUMP JUMPDEST PUSH0 SWAP1 JUMP JUMPDEST PUSH2 0x53A PUSH2 0x52E JUMP JUMPDEST PUSH2 0x545 DUP2 DUP5 DUP5 PUSH2 0x509 JUMP JUMPDEST POP POP POP JUMP JUMPDEST JUMPDEST DUP2 DUP2 LT ISZERO PUSH2 0x568 JUMPI PUSH2 0x55D PUSH0 DUP3 PUSH2 0x532 JUMP JUMPDEST PUSH1 0x1 DUP2 ADD SWAP1 POP PUSH2 0x54B JUMP JUMPDEST POP POP JUMP JUMPDEST PUSH1 0x1F DUP3 GT ISZERO PUSH2 0x5AD JUMPI PUSH2 0x57E DUP2 PUSH2 0x458 JUMP JUMPDEST PUSH2 0x587 DUP5 PUSH2 0x46A JUMP JUMPDEST DUP2 ADD PUSH1 0x20 DUP6 LT ISZERO PUSH2 0x596 JUMPI DUP2 SWAP1 POP JUMPDEST PUSH2 0x5AA PUSH2 0x5A2 DUP6 PUSH2 0x46A JUMP JUMPDEST DUP4 ADD DUP3 PUSH2 0x54A JUMP JUMPDEST POP POP JUMPDEST POP POP POP JUMP JUMPDEST PUSH0 DUP3 DUP3 SHR SWAP1 POP SWAP3 SWAP2 POP POP JUMP JUMPDEST PUSH0 PUSH2 0x5CD PUSH0 NOT DUP5 PUSH1 0x8 MUL PUSH2 0x5B2 JUMP JUMPDEST NOT DUP1 DUP4 AND SWAP2 POP POP SWAP3 SWAP2 POP POP JUMP JUMPDEST PUSH0 PUSH2 0x5E5 DUP4 DUP4 PUSH2 0x5BE JUMP JUMPDEST SWAP2 POP DUP3 PUSH1 0x2 MUL DUP3 OR SWAP1 POP SWAP3 SWAP2 POP POP JUMP JUMPDEST PUSH2 0x5FE DUP3 PUSH2 0x3F1 JUMP JUMPDEST PUSH8 0xFFFFFFFFFFFFFFFF DUP2 GT ISZERO PUSH2 0x617 JUMPI PUSH2 0x616 PUSH2 0x1D5 JUMP JUMPDEST JUMPDEST PUSH2 0x621 DUP3 SLOAD PUSH2 0x428 JUMP JUMPDEST PUSH2 0x62C DUP3 DUP3 DUP6 PUSH2 0x56C JUMP JUMPDEST PUSH0 PUSH1 0x20 SWAP1 POP PUSH1 0x1F DUP4 GT PUSH1 0x1 DUP2 EQ PUSH2 0x65D JUMPI PUSH0 DUP5 ISZERO PUSH2 0x64B JUMPI DUP3 DUP8 ADD MLOAD SWAP1 POP JUMPDEST PUSH2 0x655 DUP6 DUP3 PUSH2 0x5DA JUMP JUMPDEST DUP7 SSTORE POP PUSH2 0x6BC JUMP JUMPDEST PUSH1 0x1F NOT DUP5 AND PUSH2 0x66B DUP7 PUSH2 0x458 JUMP JUMPDEST PUSH0 JUMPDEST DUP3 DUP2 LT ISZERO PUSH2 0x692 JUMPI DUP5 DUP10 ADD MLOAD DUP3 SSTORE PUSH1 0x1 DUP3 ADD SWAP2 POP PUSH1 0x20 DUP6 ADD SWAP5 POP PUSH1 0x20 DUP2 ADD SWAP1 POP PUSH2 0x66D JUMP JUMPDEST DUP7 DUP4 LT ISZERO PUSH2 0x6AF JUMPI DUP5 DUP10 ADD MLOAD PUSH2 0x6AB PUSH1 0x1F DUP10 AND DUP3 PUSH2 0x5BE JUMP JUMPDEST DUP4 SSTORE POP JUMPDEST PUSH1 0x1 PUSH1 0x2 DUP9 MUL ADD DUP9 SSTORE POP POP POP JUMPDEST POP POP POP POP POP POP JUMP JUMPDEST PUSH2 0x6EB DUP1 PUSH2 0x6D1 PUSH0 CODECOPY PUSH0 RETURN INVALID PUSH1 0x80 PUSH1 0x40 MSTORE CALLVALUE DUP1 ISZERO PUSH2 0xF JUMPI PUSH0 DUP1 REVERT JUMPDEST POP PUSH1 0x4 CALLDATASIZE LT PUSH2 0x60 JUMPI PUSH0 CALLDATALOAD PUSH1 0xE0 SHR DUP1 PUSH4 0x8551A53 EQ PUSH2 0x64 JUMPI DUP1 PUSH4 0x7150D8AE EQ PUSH2 0x82 JUMPI DUP1 PUSH4 0xA035B1FE EQ PUSH2 0xA0 JUMPI DUP1 PUSH4 0xEDFC30B1 EQ PUSH2 0xBE JUMPI DUP1 PUSH4 0xF34E3723 EQ PUSH2 0xDC JUMPI DUP1 PUSH4 0xFA2A8997 EQ PUSH2 0xF8 JUMPI JUMPDEST PUSH0 DUP1 REVERT JUMPDEST PUSH2 0x6C PUSH2 0x116 JUMP JUMPDEST PUSH1 0x40 MLOAD PUSH2 0x79 SWAP2 SWAP1 PUSH2 0x333 JUMP JUMPDEST PUSH1 0x40 MLOAD DUP1 SWAP2 SUB SWAP1 RETURN JUMPDEST PUSH2 0x8A PUSH2 0x139 JUMP JUMPDEST PUSH1 0x40 MLOAD PUSH2 0x97 SWAP2 SWAP1 PUSH2 0x333 JUMP JUMPDEST PUSH1 0x40 MLOAD DUP1 SWAP2 SUB SWAP1 RETURN JUMPDEST PUSH2 0xA8 PUSH2 0x15E JUMP JUMPDEST PUSH1 0x40 MLOAD PUSH2 0xB5 SWAP2 SWAP1 PUSH2 0x364 JUMP JUMPDEST PUSH1 0x40 MLOAD DUP1 SWAP2 SUB SWAP1 RETURN JUMPDEST PUSH2 0xC6 PUSH2 0x164 JUMP JUMPDEST PUSH1 0x40 MLOAD PUSH2 0xD3 SWAP2 SWAP1 PUSH2 0x3ED JUMP JUMPDEST PUSH1 0x40 MLOAD DUP1 SWAP2 SUB SWAP1 RETURN JUMPDEST PUSH2 0xF6 PUSH1 0x4 DUP1 CALLDATASIZE SUB DUP2 ADD SWAP1 PUSH2 0xF1 SWAP2 SWAP1 PUSH2 0x476 JUMP JUMPDEST PUSH2 0x1F0 JUMP JUMPDEST STOP JUMPDEST PUSH2 0x100 PUSH2 0x2E2 JUMP JUMPDEST PUSH1 0x40 MLOAD PUSH2 0x10D SWAP2 SWAP1 PUSH2 0x4DB JUMP JUMPDEST PUSH1 0x40 MLOAD DUP1 SWAP2 SUB SWAP1 RETURN JUMPDEST PUSH0 DUP1 SLOAD SWAP1 PUSH2 0x100 EXP SWAP1 DIV PUSH20 0xFFFFFFFFFFFFFFFFFFFFFFFFFFFFFFFFFFFFFFFF AND DUP2 JUMP JUMPDEST PUSH1 0x1 PUSH0 SWAP1 SLOAD SWAP1 PUSH2 0x100 EXP SWAP1 DIV PUSH20 0xFFFFFFFFFFFFFFFFFFFFFFFFFFFFFFFFFFFFFFFF AND DUP2 JUMP JUMPDEST PUSH1 0x2 SLOAD DUP2 JUMP JUMPDEST PUSH1 0x3 DUP1 SLOAD PUSH2 0x171 SWAP1 PUSH2 0x521 JUMP JUMPDEST DUP1 PUSH1 0x1F ADD PUSH1 0x20 DUP1 SWAP2 DIV MUL PUSH1 0x20 ADD PUSH1 0x40 MLOAD SWAP1 DUP2 ADD PUSH1 0x40 MSTORE DUP1 SWAP3 SWAP2 SWAP1 DUP2 DUP2 MSTORE PUSH1 0x20 ADD DUP3 DUP1 SLOAD PUSH2 0x19D SWAP1 PUSH2 0x521 JUMP JUMPDEST DUP1 ISZERO PUSH2 0x1E8 JUMPI DUP1 PUSH1 0x1F LT PUSH2 0x1BF JUMPI PUSH2 0x100 DUP1 DUP4 SLOAD DIV MUL DUP4 MSTORE SWAP2 PUSH1 0x20 ADD SWAP2 PUSH2 0x1E8 JUMP JUMPDEST DUP3 ADD SWAP2 SWAP1 PUSH0 MSTORE PUSH1 0x20 PUSH0 KECCAK256 SWAP1 JUMPDEST DUP2 SLOAD DUP2 MSTORE SWAP1 PUSH1 0x1 ADD SWAP1 PUSH1 0x20 ADD DUP1 DUP4 GT PUSH2 0x1CB JUMPI DUP3 SWAP1 SUB PUSH1 0x1F AND DUP3 ADD SWAP2 JUMPDEST POP POP POP POP POP DUP2 JUMP JUMPDEST PUSH1 0x3 PUSH1 0x40 MLOAD PUSH2 0x1FF SWAP2 SWAP1 PUSH2 0x5ED JUMP JUMPDEST PUSH1 0x40 MLOAD DUP1 SWAP2 SUB SWAP1 KECCAK256 DUP3 DUP3 PUSH1 0x40 MLOAD PUSH2 0x217 SWAP3 SWAP2 SWAP1 PUSH2 0x635 JUMP JUMPDEST PUSH1 0x40 MLOAD DUP1 SWAP2 SUB SWAP1 KECCAK256 EQ PUSH2 0x25F JUMPI PUSH1 0x40 MLOAD PUSH32 0x8C379A000000000000000000000000000000000000000000000000000000000 DUP2 MSTORE PUSH1 0x4 ADD PUSH2 0x256 SWAP1 PUSH2 0x697 JUMP JUMPDEST PUSH1 0x40 MLOAD DUP1 SWAP2 SUB SWAP1 REVERT JUMPDEST PUSH1 0x1 PUSH1 0x4 PUSH0 PUSH2 0x100 EXP DUP2 SLOAD DUP2 PUSH1 0xFF MUL NOT AND SWAP1 DUP4 ISZERO ISZERO MUL OR SWAP1 SSTORE POP PUSH0 DUP1 SLOAD SWAP1 PUSH2 0x100 EXP SWAP1 DIV PUSH20 0xFFFFFFFFFFFFFFFFFFFFFFFFFFFFFFFFFFFFFFFF AND PUSH20 0xFFFFFFFFFFFFFFFFFFFFFFFFFFFFFFFFFFFFFFFF AND PUSH2 0x8FC PUSH1 0x2 SLOAD SWAP1 DUP2 ISZERO MUL SWAP1 PUSH1 0x40 MLOAD PUSH0 PUSH1 0x40 MLOAD DUP1 DUP4 SUB DUP2 DUP6 DUP9 DUP9 CALL SWAP4 POP POP POP POP ISZERO DUP1 ISZERO PUSH2 0x2DD JUMPI RETURNDATASIZE PUSH0 DUP1 RETURNDATACOPY RETURNDATASIZE PUSH0 REVERT JUMPDEST POP POP POP JUMP JUMPDEST PUSH1 0x4 PUSH0 SWAP1 SLOAD SWAP1 PUSH2 0x100 EXP SWAP1 DIV PUSH1 0xFF AND DUP2 JUMP JUMPDEST PUSH0 PUSH20 0xFFFFFFFFFFFFFFFFFFFFFFFFFFFFFFFFFFFFFFFF DUP3 AND SWAP1 POP SWAP2 SWAP1 POP JUMP JUMPDEST PUSH0 PUSH2 0x31D DUP3 PUSH2 0x2F4 JUMP JUMPDEST SWAP1 POP SWAP2 SWAP1 POP JUMP JUMPDEST PUSH2 0x32D DUP2 PUSH2 0x313 JUMP JUMPDEST DUP3 MSTORE POP POP JUMP JUMPDEST PUSH0 PUSH1 0x20 DUP3 ADD SWAP1 POP PUSH2 0x346 PUSH0 DUP4 ADD DUP5 PUSH2 0x324 JUMP JUMPDEST SWAP3 SWAP2 POP POP JUMP JUMPDEST PUSH0 DUP2 SWAP1 POP SWAP2 SWAP1 POP JUMP JUMPDEST PUSH2 0x35E DUP2 PUSH2 0x34C JUMP JUMPDEST DUP3 MSTORE POP POP JUMP JUMPDEST PUSH0 PUSH1 0x20 DUP3 ADD SWAP1 POP PUSH2 0x377 PUSH0 DUP4 ADD DUP5 PUSH2 0x355 JUMP JUMPDEST SWAP3 SWAP2 POP POP JUMP JUMPDEST PUSH0 DUP2 MLOAD SWAP1 POP SWAP2 SWAP1 POP JUMP JUMPDEST PUSH0 DUP3 DUP3 MSTORE PUSH1 0x20 DUP3 ADD SWAP1 POP SWAP3 SWAP2 POP POP JUMP JUMPDEST DUP3 DUP2 DUP4 MCOPY PUSH0 DUP4 DUP4 ADD MSTORE POP POP POP JUMP JUMPDEST PUSH0 PUSH1 0x1F NOT PUSH1 0x1F DUP4 ADD AND SWAP1 POP SWAP2 SWAP1 POP JUMP JUMPDEST PUSH0 PUSH2 0x3BF DUP3 PUSH2 0x37D JUMP JUMPDEST PUSH2 0x3C9 DUP2 DUP6 PUSH2 0x387 JUMP JUMPDEST SWAP4 POP PUSH2 0x3D9 DUP2 DUP6 PUSH1 0x20 DUP7 ADD PUSH2 0x397 JUMP JUMPDEST PUSH2 0x3E2 DUP2 PUSH2 0x3A5 JUMP JUMPDEST DUP5 ADD SWAP2 POP POP SWAP3 SWAP2 POP POP JUMP JUMPDEST PUSH0 PUSH1 0x20 DUP3 ADD SWAP1 POP DUP2 DUP2 SUB PUSH0 DUP4 ADD MSTORE PUSH2 0x405 DUP2 DUP5 PUSH2 0x3B5 JUMP JUMPDEST SWAP1 POP SWAP3 SWAP2 POP POP JUMP JUMPDEST PUSH0 DUP1 REVERT JUMPDEST PUSH0 DUP1 REVERT JUMPDEST PUSH0 DUP1 REVERT JUMPDEST PUSH0 DUP1 REVERT JUMPDEST PUSH0 DUP1 REVERT JUMPDEST PUSH0 DUP1 DUP4 PUSH1 0x1F DUP5 ADD SLT PUSH2 0x436 JUMPI PUSH2 0x435 PUSH2 0x415 JUMP JUMPDEST JUMPDEST DUP3 CALLDATALOAD SWAP1 POP PUSH8 0xFFFFFFFFFFFFFFFF DUP2 GT ISZERO PUSH2 0x453 JUMPI PUSH2 0x452 PUSH2 0x419 JUMP JUMPDEST JUMPDEST PUSH1 0x20 DUP4 ADD SWAP2 POP DUP4 PUSH1 0x1 DUP3 MUL DUP4 ADD GT ISZERO PUSH2 0x46F JUMPI PUSH2 0x46E PUSH2 0x41D JUMP JUMPDEST JUMPDEST SWAP3 POP SWAP3 SWAP1 POP JUMP JUMPDEST PUSH0 DUP1 PUSH1 0x20 DUP4 DUP6 SUB SLT ISZERO PUSH2 0x48C JUMPI PUSH2 0x48B PUSH2 0x40D JUMP JUMPDEST JUMPDEST PUSH0 DUP4 ADD CALLDATALOAD PUSH8 0xFFFFFFFFFFFFFFFF DUP2 GT ISZERO PUSH2 0x4A9 JUMPI PUSH2 0x4A8 PUSH2 0x411 JUMP JUMPDEST JUMPDEST PUSH2 0x4B5 DUP6 DUP3 DUP7 ADD PUSH2 0x421 JUMP JUMPDEST SWAP3 POP SWAP3 POP POP SWAP3 POP SWAP3 SWAP1 POP JUMP JUMPDEST PUSH0 DUP2 ISZERO ISZERO SWAP1 POP SWAP2 SWAP1 POP JUMP JUMPDEST PUSH2 0x4D5 DUP2 PUSH2 0x4C1 JUMP JUMPDEST DUP3 MSTORE POP POP JUMP JUMPDEST PUSH0 PUSH1 0x20 DUP3 ADD SWAP1 POP PUSH2 0x4EE PUSH0 DUP4 ADD DUP5 PUSH2 0x4CC JUMP JUMPDEST SWAP3 SWAP2 POP POP JUMP JUMPDEST PUSH32 0x4E487B7100000000000000000000000000000000000000000000000000000000 PUSH0 MSTORE PUSH1 0x22 PUSH1 0x4 MSTORE PUSH1 0x24 PUSH0 REVERT JUMPDEST PUSH0 PUSH1 0x2 DUP3 DIV SWAP1 POP PUSH1 0x1 DUP3 AND DUP1 PUSH2 0x538 JUMPI PUSH1 0x7F DUP3 AND SWAP2 POP JUMPDEST PUSH1 0x20 DUP3 LT DUP2 SUB PUSH2 0x54B JUMPI PUSH2 0x54A PUSH2 0x4F4 JUMP JUMPDEST JUMPDEST POP SWAP2 SWAP1 POP JUMP JUMPDEST PUSH0 DUP2 SWAP1 POP SWAP3 SWAP2 POP POP JUMP JUMPDEST PUSH0 DUP2 SWAP1 POP DUP2 PUSH0 MSTORE PUSH1 0x20 PUSH0 KECCAK256 SWAP1 POP SWAP2 SWAP1 POP JUMP JUMPDEST PUSH0 DUP2 SLOAD PUSH2 0x579 DUP2 PUSH2 0x521 JUMP JUMPDEST PUSH2 0x583 DUP2 DUP7 PUSH2 0x551 JUMP JUMPDEST SWAP5 POP PUSH1 0x1 DUP3 AND PUSH0 DUP2 EQ PUSH2 0x59D JUMPI PUSH1 0x1 DUP2 EQ PUSH2 0x5B2 JUMPI PUSH2 0x5E4 JUMP JUMPDEST PUSH1 0xFF NOT DUP4 AND DUP7 MSTORE DUP2 ISZERO ISZERO DUP3 MUL DUP7 ADD SWAP4 POP PUSH2 0x5E4 JUMP JUMPDEST PUSH2 0x5BB DUP6 PUSH2 0x55B JUMP JUMPDEST PUSH0 JUMPDEST DUP4 DUP2 LT ISZERO PUSH2 0x5DC JUMPI DUP2 SLOAD DUP2 DUP10 ADD MSTORE PUSH1 0x1 DUP3 ADD SWAP2 POP PUSH1 0x20 DUP2 ADD SWAP1 POP PUSH2 0x5BD JUMP JUMPDEST DUP4 DUP9 ADD SWAP6 POP POP POP JUMPDEST POP POP POP SWAP3 SWAP2 POP POP JUMP JUMPDEST PUSH0 PUSH2 0x5F8 DUP3 DUP5 PUSH2 0x56D JUMP JUMPDEST SWAP2 POP DUP2 SWAP1 POP SWAP3 SWAP2 POP POP JUMP JUMPDEST DUP3 DUP2 DUP4 CALLDATACOPY PUSH0 DUP4 DUP4 ADD MSTORE POP POP POP JUMP JUMPDEST PUSH0 PUSH2 0x61C DUP4 DUP6 PUSH2 0x551 JUMP JUMPDEST SWAP4 POP PUSH2 0x629 DUP4 DUP6 DUP5 PUSH2 0x603 JUMP JUMPDEST DUP3 DUP5 ADD SWAP1 POP SWAP4 SWAP3 POP POP POP JUMP JUMPDEST PUSH0 PUSH2 0x641 DUP3 DUP5 DUP7 PUSH2 0x611 JUMP JUMPDEST SWAP2 POP DUP2 SWAP1 POP SWAP4 SWAP3 POP POP POP JUMP JUMPDEST PUSH32 0x57726F6E672070617373776F7264000000000000000000000000000000000000 PUSH0 DUP3 ADD MSTORE POP JUMP JUMPDEST PUSH0 PUSH2 0x681 PUSH1 0xE DUP4 PUSH2 0x387 JUMP JUMPDEST SWAP2 POP PUSH2 0x68C DUP3 PUSH2 0x64D JUMP JUMPDEST PUSH1 0x20 DUP3 ADD SWAP1 POP SWAP2 SWAP1 POP JUMP JUMPDEST PUSH0 PUSH1 0x20 DUP3 ADD SWAP1 POP DUP2 DUP2 SUB PUSH0 DUP4 ADD MSTORE PUSH2 0x6AE DUP2 PUSH2 0x675 JUMP JUMPDEST SWAP1 POP SWAP2 SWAP1 POP JUMP INVALID LOG2 PUSH5 0x6970667358 0x22 SLT KECCAK256 XOR PUSH2 0x913A 0xE4 SELFBALANCE PUSH22 0x15C41CE8D5AB9E9BE3AE9366A20721616DFEFD5FF842 0xD0 0x2E SELFBALANCE PUSH5 0x736F6C6343 STOP ADDMOD BYTE STOP CALLER "
				},
				"gasEstimates": {
					"creation": {
						"codeDepositCost": "354200",
						"executionCost": "infinite",
						"totalCost": "infinite"
					},
					"external": {
						"buyer()": "2508",
						"escrowPassword()": "infinite",
						"isReleased()": "2554",
						"price()": "2447",
						"release(string)": "infinite",
						"seller()": "2483"
					}
				},
				"methodIdentifiers": {
					"buyer()": "7150d8ae",
					"escrowPassword()": "edfc30b1",
					"isReleased()": "fa2a8997",
					"price()": "a035b1fe",
					"release(string)": "f34e3723",
					"seller()": "08551a53"
				}
			},
			"storageLayout": {
				"storage": [
					{
						"astId": 4,
						"contract": "E/Escrow Passwords/attack Plaintext Escrow Password.sol:PlaintextEscrowPassword",
						"label": "seller",
						"offset": 0,
						"slot": "0",
						"type": "t_address"
					},
					{
						"astId": 6,
						"contract": "E/Escrow Passwords/attack Plaintext Escrow Password.sol:PlaintextEscrowPassword",
						"label": "buyer",
						"offset": 0,
						"slot": "1",
						"type": "t_address"
					},
					{
						"astId": 8,
						"contract": "E/Escrow Passwords/attack Plaintext Escrow Password.sol:PlaintextEscrowPassword",
						"label": "price",
						"offset": 0,
						"slot": "2",
						"type": "t_uint256"
					},
					{
						"astId": 10,
						"contract": "E/Escrow Passwords/attack Plaintext Escrow Password.sol:PlaintextEscrowPassword",
						"label": "escrowPassword",
						"offset": 0,
						"slot": "3",
						"type": "t_string_storage"
					},
					{
						"astId": 12,
						"contract": "E/Escrow Passwords/attack Plaintext Escrow Password.sol:PlaintextEscrowPassword",
						"label": "isReleased",
						"offset": 0,
						"slot": "4",
						"type": "t_bool"
					}
				],
				"types": {
					"t_address": {
						"encoding": "inplace",
						"label": "address",
						"numberOfBytes": "20"
					},
					"t_bool": {
						"encoding": "inplace",
						"label": "bool",
						"numberOfBytes": "1"
					},
					"t_string_storage": {
						"encoding": "bytes",
						"label": "string",
						"numberOfBytes": "32"
					},
					"t_uint256": {
						"encoding": "inplace",
						"label": "uint256",
						"numberOfBytes": "32"
					}
				}
			},
			"userdoc": {
				"kind": "user",
				"methods": {},
				"notice": "ATTACK TYPE: An escrow where the password is stored on-chain,  or the contract checks a direct equality with a public variable => easy to see or guess.",
				"version": 1
			}
		}
	}
}