{
	"E/Escrow Passwords/Off-Chain Encryption Approach.sol": {
		"OffChainEscrowPasswordReference": {
			"abi": [
				{
					"inputs": [
						{
							"internalType": "bytes32",
							"name": "_hashedKey",
							"type": "bytes32"
						}
					],
					"stateMutability": "payable",
					"type": "constructor"
				},
				{
					"inputs": [],
					"name": "hashedKey",
					"outputs": [
						{
							"internalType": "bytes32",
							"name": "",
							"type": "bytes32"
						}
					],
					"stateMutability": "view",
					"type": "function"
				},
				{
					"inputs": [],
					"name": "isReleased",
					"outputs": [
						{
							"internalType": "bool",
							"name": "",
							"type": "bool"
						}
					],
					"stateMutability": "view",
					"type": "function"
				},
				{
					"inputs": [
						{
							"internalType": "string",
							"name": "plaintext",
							"type": "string"
						},
						{
							"internalType": "bytes32",
							"name": "salt",
							"type": "bytes32"
						}
					],
					"name": "revealKey",
					"outputs": [],
					"stateMutability": "nonpayable",
					"type": "function"
				}
			],
			"devdoc": {
				"kind": "dev",
				"methods": {},
				"version": 1
			},
			"evm": {
				"assembly": "    /* \"E/Escrow Passwords/Off-Chain Encryption Approach.sol\":344:852  contract OffChainEscrowPasswordReference {... */\n  mstore(0x40, 0x80)\n    /* \"E/Escrow Passwords/Off-Chain Encryption Approach.sol\":450:557  constructor(bytes32 _hashedKey) payable {... */\n  mload(0x40)\n  sub(codesize, bytecodeSize)\n  dup1\n  bytecodeSize\n  dup4\n  codecopy\n  dup2\n  dup2\n  add\n  0x40\n  mstore\n  dup2\n  add\n  swap1\n  tag_1\n  swap2\n  swap1\n  tag_2\n  jump\t// in\ntag_1:\n    /* \"E/Escrow Passwords/Off-Chain Encryption Approach.sol\":512:522  _hashedKey */\n  dup1\n    /* \"E/Escrow Passwords/Off-Chain Encryption Approach.sol\":500:509  hashedKey */\n  0x00\n    /* \"E/Escrow Passwords/Off-Chain Encryption Approach.sol\":500:522  hashedKey = _hashedKey */\n  dup2\n  swap1\n  sstore\n  pop\n    /* \"E/Escrow Passwords/Off-Chain Encryption Approach.sol\":545:550  false */\n  0x00\n    /* \"E/Escrow Passwords/Off-Chain Encryption Approach.sol\":532:542  isReleased */\n  0x01\n  0x00\n    /* \"E/Escrow Passwords/Off-Chain Encryption Approach.sol\":532:550  isReleased = false */\n  0x0100\n  exp\n  dup2\n  sload\n  dup2\n  0xff\n  mul\n  not\n  and\n  swap1\n  dup4\n  iszero\n  iszero\n  mul\n  or\n  swap1\n  sstore\n  pop\n    /* \"E/Escrow Passwords/Off-Chain Encryption Approach.sol\":450:557  constructor(bytes32 _hashedKey) payable {... */\n  pop\n    /* \"E/Escrow Passwords/Off-Chain Encryption Approach.sol\":344:852  contract OffChainEscrowPasswordReference {... */\n  jump(tag_5)\n    /* \"#utility.yul\":88:205   */\ntag_7:\n    /* \"#utility.yul\":197:198   */\n  0x00\n    /* \"#utility.yul\":194:195   */\n  dup1\n    /* \"#utility.yul\":187:199   */\n  revert\n    /* \"#utility.yul\":334:411   */\ntag_9:\n    /* \"#utility.yul\":371:378   */\n  0x00\n    /* \"#utility.yul\":400:405   */\n  dup2\n    /* \"#utility.yul\":389:405   */\n  swap1\n  pop\n    /* \"#utility.yul\":334:411   */\n  swap2\n  swap1\n  pop\n  jump\t// out\n    /* \"#utility.yul\":417:539   */\ntag_10:\n    /* \"#utility.yul\":490:514   */\n  tag_18\n    /* \"#utility.yul\":508:513   */\n  dup2\n    /* \"#utility.yul\":490:514   */\n  tag_9\n  jump\t// in\ntag_18:\n    /* \"#utility.yul\":483:488   */\n  dup2\n    /* \"#utility.yul\":480:515   */\n  eq\n    /* \"#utility.yul\":470:533   */\n  tag_19\n  jumpi\n    /* \"#utility.yul\":529:530   */\n  0x00\n    /* \"#utility.yul\":526:527   */\n  dup1\n    /* \"#utility.yul\":519:531   */\n  revert\n    /* \"#utility.yul\":470:533   */\ntag_19:\n    /* \"#utility.yul\":417:539   */\n  pop\n  jump\t// out\n    /* \"#utility.yul\":545:688   */\ntag_11:\n    /* \"#utility.yul\":602:607   */\n  0x00\n    /* \"#utility.yul\":633:639   */\n  dup2\n    /* \"#utility.yul\":627:640   */\n  mload\n    /* \"#utility.yul\":618:640   */\n  swap1\n  pop\n    /* \"#utility.yul\":649:682   */\n  tag_21\n    /* \"#utility.yul\":676:681   */\n  dup2\n    /* \"#utility.yul\":649:682   */\n  tag_10\n  jump\t// in\ntag_21:\n    /* \"#utility.yul\":545:688   */\n  swap3\n  swap2\n  pop\n  pop\n  jump\t// out\n    /* \"#utility.yul\":694:1045   */\ntag_2:\n    /* \"#utility.yul\":764:770   */\n  0x00\n    /* \"#utility.yul\":813:815   */\n  0x20\n    /* \"#utility.yul\":801:810   */\n  dup3\n    /* \"#utility.yul\":792:799   */\n  dup5\n    /* \"#utility.yul\":788:811   */\n  sub\n    /* \"#utility.yul\":784:816   */\n  slt\n    /* \"#utility.yul\":781:900   */\n  iszero\n  tag_23\n  jumpi\n    /* \"#utility.yul\":819:898   */\n  tag_24\n  tag_7\n  jump\t// in\ntag_24:\n    /* \"#utility.yul\":781:900   */\ntag_23:\n    /* \"#utility.yul\":939:940   */\n  0x00\n    /* \"#utility.yul\":964:1028   */\n  tag_25\n    /* \"#utility.yul\":1020:1027   */\n  dup5\n    /* \"#utility.yul\":1011:1017   */\n  dup3\n    /* \"#utility.yul\":1000:1009   */\n  dup6\n    /* \"#utility.yul\":996:1018   */\n  add\n    /* \"#utility.yul\":964:1028   */\n  tag_11\n  jump\t// in\ntag_25:\n    /* \"#utility.yul\":954:1028   */\n  swap2\n  pop\n    /* \"#utility.yul\":910:1038   */\n  pop\n    /* \"#utility.yul\":694:1045   */\n  swap3\n  swap2\n  pop\n  pop\n  jump\t// out\n    /* \"E/Escrow Passwords/Off-Chain Encryption Approach.sol\":344:852  contract OffChainEscrowPasswordReference {... */\ntag_5:\n  dataSize(sub_0)\n  dup1\n  dataOffset(sub_0)\n  0x00\n  codecopy\n  0x00\n  return\nstop\n\nsub_0: assembly {\n        /* \"E/Escrow Passwords/Off-Chain Encryption Approach.sol\":344:852  contract OffChainEscrowPasswordReference {... */\n      mstore(0x40, 0x80)\n      callvalue\n      dup1\n      iszero\n      tag_1\n      jumpi\n      0x00\n      dup1\n      revert\n    tag_1:\n      pop\n      jumpi(tag_2, lt(calldatasize, 0x04))\n      shr(0xe0, calldataload(0x00))\n      dup1\n      0x7715fa4c\n      eq\n      tag_3\n      jumpi\n      dup1\n      0xafbbe6fd\n      eq\n      tag_4\n      jumpi\n      dup1\n      0xfa2a8997\n      eq\n      tag_5\n      jumpi\n    tag_2:\n      0x00\n      dup1\n      revert\n        /* \"E/Escrow Passwords/Off-Chain Encryption Approach.sol\":563:850  function revealKey(string calldata plaintext, bytes32 salt) external {... */\n    tag_3:\n      tag_6\n      0x04\n      dup1\n      calldatasize\n      sub\n      dup2\n      add\n      swap1\n      tag_7\n      swap2\n      swap1\n      tag_8\n      jump\t// in\n    tag_7:\n      tag_9\n      jump\t// in\n    tag_6:\n      stop\n        /* \"E/Escrow Passwords/Off-Chain Encryption Approach.sol\":391:415  bytes32 public hashedKey */\n    tag_4:\n      tag_10\n      tag_11\n      jump\t// in\n    tag_10:\n      mload(0x40)\n      tag_12\n      swap2\n      swap1\n      tag_13\n      jump\t// in\n    tag_12:\n      mload(0x40)\n      dup1\n      swap2\n      sub\n      swap1\n      return\n        /* \"E/Escrow Passwords/Off-Chain Encryption Approach.sol\":421:443  bool public isReleased */\n    tag_5:\n      tag_14\n      tag_15\n      jump\t// in\n    tag_14:\n      mload(0x40)\n      tag_16\n      swap2\n      swap1\n      tag_17\n      jump\t// in\n    tag_16:\n      mload(0x40)\n      dup1\n      swap2\n      sub\n      swap1\n      return\n        /* \"E/Escrow Passwords/Off-Chain Encryption Approach.sol\":563:850  function revealKey(string calldata plaintext, bytes32 salt) external {... */\n    tag_9:\n        /* \"E/Escrow Passwords/Off-Chain Encryption Approach.sol\":651:661  isReleased */\n      0x01\n      0x00\n      swap1\n      sload\n      swap1\n      0x0100\n      exp\n      swap1\n      div\n      0xff\n      and\n        /* \"E/Escrow Passwords/Off-Chain Encryption Approach.sol\":650:661  !isReleased */\n      iszero\n        /* \"E/Escrow Passwords/Off-Chain Encryption Approach.sol\":642:678  require(!isReleased, \"Already done\") */\n      tag_19\n      jumpi\n      mload(0x40)\n      0x08c379a000000000000000000000000000000000000000000000000000000000\n      dup2\n      mstore\n      0x04\n      add\n      tag_20\n      swap1\n      tag_21\n      jump\t// in\n    tag_20:\n      mload(0x40)\n      dup1\n      swap2\n      sub\n      swap1\n      revert\n    tag_19:\n        /* \"E/Escrow Passwords/Off-Chain Encryption Approach.sol\":744:753  hashedKey */\n      sload(0x00)\n        /* \"E/Escrow Passwords/Off-Chain Encryption Approach.sol\":723:732  plaintext */\n      dup4\n      dup4\n        /* \"E/Escrow Passwords/Off-Chain Encryption Approach.sol\":734:738  salt */\n      dup4\n        /* \"E/Escrow Passwords/Off-Chain Encryption Approach.sol\":706:739  abi.encodePacked(plaintext, salt) */\n      add(0x20, mload(0x40))\n      tag_22\n      swap4\n      swap3\n      swap2\n      swap1\n      tag_23\n      jump\t// in\n    tag_22:\n      mload(0x40)\n      0x20\n      dup2\n      dup4\n      sub\n      sub\n      dup2\n      mstore\n      swap1\n      0x40\n      mstore\n        /* \"E/Escrow Passwords/Off-Chain Encryption Approach.sol\":696:740  keccak256(abi.encodePacked(plaintext, salt)) */\n      dup1\n      mload\n      swap1\n      0x20\n      add\n      keccak256\n        /* \"E/Escrow Passwords/Off-Chain Encryption Approach.sol\":696:753  keccak256(abi.encodePacked(plaintext, salt)) == hashedKey */\n      eq\n        /* \"E/Escrow Passwords/Off-Chain Encryption Approach.sol\":688:769  require(keccak256(abi.encodePacked(plaintext, salt)) == hashedKey, \"Invalid key\") */\n      tag_24\n      jumpi\n      mload(0x40)\n      0x08c379a000000000000000000000000000000000000000000000000000000000\n      dup2\n      mstore\n      0x04\n      add\n      tag_25\n      swap1\n      tag_26\n      jump\t// in\n    tag_25:\n      mload(0x40)\n      dup1\n      swap2\n      sub\n      swap1\n      revert\n    tag_24:\n        /* \"E/Escrow Passwords/Off-Chain Encryption Approach.sol\":792:796  true */\n      0x01\n        /* \"E/Escrow Passwords/Off-Chain Encryption Approach.sol\":779:789  isReleased */\n      dup1\n      0x00\n        /* \"E/Escrow Passwords/Off-Chain Encryption Approach.sol\":779:796  isReleased = true */\n      0x0100\n      exp\n      dup2\n      sload\n      dup2\n      0xff\n      mul\n      not\n      and\n      swap1\n      dup4\n      iszero\n      iszero\n      mul\n      or\n      swap1\n      sstore\n      pop\n        /* \"E/Escrow Passwords/Off-Chain Encryption Approach.sol\":563:850  function revealKey(string calldata plaintext, bytes32 salt) external {... */\n      pop\n      pop\n      pop\n      jump\t// out\n        /* \"E/Escrow Passwords/Off-Chain Encryption Approach.sol\":391:415  bytes32 public hashedKey */\n    tag_11:\n      sload(0x00)\n      dup2\n      jump\t// out\n        /* \"E/Escrow Passwords/Off-Chain Encryption Approach.sol\":421:443  bool public isReleased */\n    tag_15:\n      0x01\n      0x00\n      swap1\n      sload\n      swap1\n      0x0100\n      exp\n      swap1\n      div\n      0xff\n      and\n      dup2\n      jump\t// out\n        /* \"#utility.yul\":88:205   */\n    tag_28:\n        /* \"#utility.yul\":197:198   */\n      0x00\n        /* \"#utility.yul\":194:195   */\n      dup1\n        /* \"#utility.yul\":187:199   */\n      revert\n        /* \"#utility.yul\":211:328   */\n    tag_29:\n        /* \"#utility.yul\":320:321   */\n      0x00\n        /* \"#utility.yul\":317:318   */\n      dup1\n        /* \"#utility.yul\":310:322   */\n      revert\n        /* \"#utility.yul\":334:451   */\n    tag_30:\n        /* \"#utility.yul\":443:444   */\n      0x00\n        /* \"#utility.yul\":440:441   */\n      dup1\n        /* \"#utility.yul\":433:445   */\n      revert\n        /* \"#utility.yul\":457:574   */\n    tag_31:\n        /* \"#utility.yul\":566:567   */\n      0x00\n        /* \"#utility.yul\":563:564   */\n      dup1\n        /* \"#utility.yul\":556:568   */\n      revert\n        /* \"#utility.yul\":580:697   */\n    tag_32:\n        /* \"#utility.yul\":689:690   */\n      0x00\n        /* \"#utility.yul\":686:687   */\n      dup1\n        /* \"#utility.yul\":679:691   */\n      revert\n        /* \"#utility.yul\":717:1270   */\n    tag_33:\n        /* \"#utility.yul\":775:783   */\n      0x00\n        /* \"#utility.yul\":785:791   */\n      dup1\n        /* \"#utility.yul\":835:838   */\n      dup4\n        /* \"#utility.yul\":828:832   */\n      0x1f\n        /* \"#utility.yul\":820:826   */\n      dup5\n        /* \"#utility.yul\":816:833   */\n      add\n        /* \"#utility.yul\":812:839   */\n      slt\n        /* \"#utility.yul\":802:924   */\n      tag_58\n      jumpi\n        /* \"#utility.yul\":843:922   */\n      tag_59\n      tag_30\n      jump\t// in\n    tag_59:\n        /* \"#utility.yul\":802:924   */\n    tag_58:\n        /* \"#utility.yul\":956:962   */\n      dup3\n        /* \"#utility.yul\":943:963   */\n      calldataload\n        /* \"#utility.yul\":933:963   */\n      swap1\n      pop\n        /* \"#utility.yul\":986:1004   */\n      0xffffffffffffffff\n        /* \"#utility.yul\":978:984   */\n      dup2\n        /* \"#utility.yul\":975:1005   */\n      gt\n        /* \"#utility.yul\":972:1089   */\n      iszero\n      tag_60\n      jumpi\n        /* \"#utility.yul\":1008:1087   */\n      tag_61\n      tag_31\n      jump\t// in\n    tag_61:\n        /* \"#utility.yul\":972:1089   */\n    tag_60:\n        /* \"#utility.yul\":1122:1126   */\n      0x20\n        /* \"#utility.yul\":1114:1120   */\n      dup4\n        /* \"#utility.yul\":1110:1127   */\n      add\n        /* \"#utility.yul\":1098:1127   */\n      swap2\n      pop\n        /* \"#utility.yul\":1176:1179   */\n      dup4\n        /* \"#utility.yul\":1168:1172   */\n      0x01\n        /* \"#utility.yul\":1160:1166   */\n      dup3\n        /* \"#utility.yul\":1156:1173   */\n      mul\n        /* \"#utility.yul\":1146:1154   */\n      dup4\n        /* \"#utility.yul\":1142:1174   */\n      add\n        /* \"#utility.yul\":1139:1180   */\n      gt\n        /* \"#utility.yul\":1136:1264   */\n      iszero\n      tag_62\n      jumpi\n        /* \"#utility.yul\":1183:1262   */\n      tag_63\n      tag_32\n      jump\t// in\n    tag_63:\n        /* \"#utility.yul\":1136:1264   */\n    tag_62:\n        /* \"#utility.yul\":717:1270   */\n      swap3\n      pop\n      swap3\n      swap1\n      pop\n      jump\t// out\n        /* \"#utility.yul\":1276:1353   */\n    tag_34:\n        /* \"#utility.yul\":1313:1320   */\n      0x00\n        /* \"#utility.yul\":1342:1347   */\n      dup2\n        /* \"#utility.yul\":1331:1347   */\n      swap1\n      pop\n        /* \"#utility.yul\":1276:1353   */\n      swap2\n      swap1\n      pop\n      jump\t// out\n        /* \"#utility.yul\":1359:1481   */\n    tag_35:\n        /* \"#utility.yul\":1432:1456   */\n      tag_66\n        /* \"#utility.yul\":1450:1455   */\n      dup2\n        /* \"#utility.yul\":1432:1456   */\n      tag_34\n      jump\t// in\n    tag_66:\n        /* \"#utility.yul\":1425:1430   */\n      dup2\n        /* \"#utility.yul\":1422:1457   */\n      eq\n        /* \"#utility.yul\":1412:1475   */\n      tag_67\n      jumpi\n        /* \"#utility.yul\":1471:1472   */\n      0x00\n        /* \"#utility.yul\":1468:1469   */\n      dup1\n        /* \"#utility.yul\":1461:1473   */\n      revert\n        /* \"#utility.yul\":1412:1475   */\n    tag_67:\n        /* \"#utility.yul\":1359:1481   */\n      pop\n      jump\t// out\n        /* \"#utility.yul\":1487:1626   */\n    tag_36:\n        /* \"#utility.yul\":1533:1538   */\n      0x00\n        /* \"#utility.yul\":1571:1577   */\n      dup2\n        /* \"#utility.yul\":1558:1578   */\n      calldataload\n        /* \"#utility.yul\":1549:1578   */\n      swap1\n      pop\n        /* \"#utility.yul\":1587:1620   */\n      tag_69\n        /* \"#utility.yul\":1614:1619   */\n      dup2\n        /* \"#utility.yul\":1587:1620   */\n      tag_35\n      jump\t// in\n    tag_69:\n        /* \"#utility.yul\":1487:1626   */\n      swap3\n      swap2\n      pop\n      pop\n      jump\t// out\n        /* \"#utility.yul\":1632:2306   */\n    tag_8:\n        /* \"#utility.yul\":1712:1718   */\n      0x00\n        /* \"#utility.yul\":1720:1726   */\n      dup1\n        /* \"#utility.yul\":1728:1734   */\n      0x00\n        /* \"#utility.yul\":1777:1779   */\n      0x40\n        /* \"#utility.yul\":1765:1774   */\n      dup5\n        /* \"#utility.yul\":1756:1763   */\n      dup7\n        /* \"#utility.yul\":1752:1775   */\n      sub\n        /* \"#utility.yul\":1748:1780   */\n      slt\n        /* \"#utility.yul\":1745:1864   */\n      iszero\n      tag_71\n      jumpi\n        /* \"#utility.yul\":1783:1862   */\n      tag_72\n      tag_28\n      jump\t// in\n    tag_72:\n        /* \"#utility.yul\":1745:1864   */\n    tag_71:\n        /* \"#utility.yul\":1931:1932   */\n      0x00\n        /* \"#utility.yul\":1920:1929   */\n      dup5\n        /* \"#utility.yul\":1916:1933   */\n      add\n        /* \"#utility.yul\":1903:1934   */\n      calldataload\n        /* \"#utility.yul\":1961:1979   */\n      0xffffffffffffffff\n        /* \"#utility.yul\":1953:1959   */\n      dup2\n        /* \"#utility.yul\":1950:1980   */\n      gt\n        /* \"#utility.yul\":1947:2064   */\n      iszero\n      tag_73\n      jumpi\n        /* \"#utility.yul\":1983:2062   */\n      tag_74\n      tag_29\n      jump\t// in\n    tag_74:\n        /* \"#utility.yul\":1947:2064   */\n    tag_73:\n        /* \"#utility.yul\":2096:2161   */\n      tag_75\n        /* \"#utility.yul\":2153:2160   */\n      dup7\n        /* \"#utility.yul\":2144:2150   */\n      dup3\n        /* \"#utility.yul\":2133:2142   */\n      dup8\n        /* \"#utility.yul\":2129:2151   */\n      add\n        /* \"#utility.yul\":2096:2161   */\n      tag_33\n      jump\t// in\n    tag_75:\n        /* \"#utility.yul\":2078:2161   */\n      swap4\n      pop\n      swap4\n      pop\n        /* \"#utility.yul\":1874:2171   */\n      pop\n        /* \"#utility.yul\":2210:2212   */\n      0x20\n        /* \"#utility.yul\":2236:2289   */\n      tag_76\n        /* \"#utility.yul\":2281:2288   */\n      dup7\n        /* \"#utility.yul\":2272:2278   */\n      dup3\n        /* \"#utility.yul\":2261:2270   */\n      dup8\n        /* \"#utility.yul\":2257:2279   */\n      add\n        /* \"#utility.yul\":2236:2289   */\n      tag_36\n      jump\t// in\n    tag_76:\n        /* \"#utility.yul\":2226:2289   */\n      swap2\n      pop\n        /* \"#utility.yul\":2181:2299   */\n      pop\n        /* \"#utility.yul\":1632:2306   */\n      swap3\n      pop\n      swap3\n      pop\n      swap3\n      jump\t// out\n        /* \"#utility.yul\":2312:2430   */\n    tag_37:\n        /* \"#utility.yul\":2399:2423   */\n      tag_78\n        /* \"#utility.yul\":2417:2422   */\n      dup2\n        /* \"#utility.yul\":2399:2423   */\n      tag_34\n      jump\t// in\n    tag_78:\n        /* \"#utility.yul\":2394:2397   */\n      dup3\n        /* \"#utility.yul\":2387:2424   */\n      mstore\n        /* \"#utility.yul\":2312:2430   */\n      pop\n      pop\n      jump\t// out\n        /* \"#utility.yul\":2436:2658   */\n    tag_13:\n        /* \"#utility.yul\":2529:2533   */\n      0x00\n        /* \"#utility.yul\":2567:2569   */\n      0x20\n        /* \"#utility.yul\":2556:2565   */\n      dup3\n        /* \"#utility.yul\":2552:2570   */\n      add\n        /* \"#utility.yul\":2544:2570   */\n      swap1\n      pop\n        /* \"#utility.yul\":2580:2651   */\n      tag_80\n        /* \"#utility.yul\":2648:2649   */\n      0x00\n        /* \"#utility.yul\":2637:2646   */\n      dup4\n        /* \"#utility.yul\":2633:2650   */\n      add\n        /* \"#utility.yul\":2624:2630   */\n      dup5\n        /* \"#utility.yul\":2580:2651   */\n      tag_37\n      jump\t// in\n    tag_80:\n        /* \"#utility.yul\":2436:2658   */\n      swap3\n      swap2\n      pop\n      pop\n      jump\t// out\n        /* \"#utility.yul\":2664:2754   */\n    tag_38:\n        /* \"#utility.yul\":2698:2705   */\n      0x00\n        /* \"#utility.yul\":2741:2746   */\n      dup2\n        /* \"#utility.yul\":2734:2747   */\n      iszero\n        /* \"#utility.yul\":2727:2748   */\n      iszero\n        /* \"#utility.yul\":2716:2748   */\n      swap1\n      pop\n        /* \"#utility.yul\":2664:2754   */\n      swap2\n      swap1\n      pop\n      jump\t// out\n        /* \"#utility.yul\":2760:2869   */\n    tag_39:\n        /* \"#utility.yul\":2841:2862   */\n      tag_83\n        /* \"#utility.yul\":2856:2861   */\n      dup2\n        /* \"#utility.yul\":2841:2862   */\n      tag_38\n      jump\t// in\n    tag_83:\n        /* \"#utility.yul\":2836:2839   */\n      dup3\n        /* \"#utility.yul\":2829:2863   */\n      mstore\n        /* \"#utility.yul\":2760:2869   */\n      pop\n      pop\n      jump\t// out\n        /* \"#utility.yul\":2875:3085   */\n    tag_17:\n        /* \"#utility.yul\":2962:2966   */\n      0x00\n        /* \"#utility.yul\":3000:3002   */\n      0x20\n        /* \"#utility.yul\":2989:2998   */\n      dup3\n        /* \"#utility.yul\":2985:3003   */\n      add\n        /* \"#utility.yul\":2977:3003   */\n      swap1\n      pop\n        /* \"#utility.yul\":3013:3078   */\n      tag_85\n        /* \"#utility.yul\":3075:3076   */\n      0x00\n        /* \"#utility.yul\":3064:3073   */\n      dup4\n        /* \"#utility.yul\":3060:3077   */\n      add\n        /* \"#utility.yul\":3051:3057   */\n      dup5\n        /* \"#utility.yul\":3013:3078   */\n      tag_39\n      jump\t// in\n    tag_85:\n        /* \"#utility.yul\":2875:3085   */\n      swap3\n      swap2\n      pop\n      pop\n      jump\t// out\n        /* \"#utility.yul\":3091:3260   */\n    tag_40:\n        /* \"#utility.yul\":3175:3186   */\n      0x00\n        /* \"#utility.yul\":3209:3215   */\n      dup3\n        /* \"#utility.yul\":3204:3207   */\n      dup3\n        /* \"#utility.yul\":3197:3216   */\n      mstore\n        /* \"#utility.yul\":3249:3253   */\n      0x20\n        /* \"#utility.yul\":3244:3247   */\n      dup3\n        /* \"#utility.yul\":3240:3254   */\n      add\n        /* \"#utility.yul\":3225:3254   */\n      swap1\n      pop\n        /* \"#utility.yul\":3091:3260   */\n      swap3\n      swap2\n      pop\n      pop\n      jump\t// out\n        /* \"#utility.yul\":3266:3428   */\n    tag_41:\n        /* \"#utility.yul\":3406:3420   */\n      0x416c726561647920646f6e650000000000000000000000000000000000000000\n        /* \"#utility.yul\":3402:3403   */\n      0x00\n        /* \"#utility.yul\":3394:3400   */\n      dup3\n        /* \"#utility.yul\":3390:3404   */\n      add\n        /* \"#utility.yul\":3383:3421   */\n      mstore\n        /* \"#utility.yul\":3266:3428   */\n      pop\n      jump\t// out\n        /* \"#utility.yul\":3434:3800   */\n    tag_42:\n        /* \"#utility.yul\":3576:3579   */\n      0x00\n        /* \"#utility.yul\":3597:3664   */\n      tag_89\n        /* \"#utility.yul\":3661:3663   */\n      0x0c\n        /* \"#utility.yul\":3656:3659   */\n      dup4\n        /* \"#utility.yul\":3597:3664   */\n      tag_40\n      jump\t// in\n    tag_89:\n        /* \"#utility.yul\":3590:3664   */\n      swap2\n      pop\n        /* \"#utility.yul\":3673:3766   */\n      tag_90\n        /* \"#utility.yul\":3762:3765   */\n      dup3\n        /* \"#utility.yul\":3673:3766   */\n      tag_41\n      jump\t// in\n    tag_90:\n        /* \"#utility.yul\":3791:3793   */\n      0x20\n        /* \"#utility.yul\":3786:3789   */\n      dup3\n        /* \"#utility.yul\":3782:3794   */\n      add\n        /* \"#utility.yul\":3775:3794   */\n      swap1\n      pop\n        /* \"#utility.yul\":3434:3800   */\n      swap2\n      swap1\n      pop\n      jump\t// out\n        /* \"#utility.yul\":3806:4225   */\n    tag_21:\n        /* \"#utility.yul\":3972:3976   */\n      0x00\n        /* \"#utility.yul\":4010:4012   */\n      0x20\n        /* \"#utility.yul\":3999:4008   */\n      dup3\n        /* \"#utility.yul\":3995:4013   */\n      add\n        /* \"#utility.yul\":3987:4013   */\n      swap1\n      pop\n        /* \"#utility.yul\":4059:4068   */\n      dup2\n        /* \"#utility.yul\":4053:4057   */\n      dup2\n        /* \"#utility.yul\":4049:4069   */\n      sub\n        /* \"#utility.yul\":4045:4046   */\n      0x00\n        /* \"#utility.yul\":4034:4043   */\n      dup4\n        /* \"#utility.yul\":4030:4047   */\n      add\n        /* \"#utility.yul\":4023:4070   */\n      mstore\n        /* \"#utility.yul\":4087:4218   */\n      tag_92\n        /* \"#utility.yul\":4213:4217   */\n      dup2\n        /* \"#utility.yul\":4087:4218   */\n      tag_42\n      jump\t// in\n    tag_92:\n        /* \"#utility.yul\":4079:4218   */\n      swap1\n      pop\n        /* \"#utility.yul\":3806:4225   */\n      swap2\n      swap1\n      pop\n      jump\t// out\n        /* \"#utility.yul\":4231:4379   */\n    tag_43:\n        /* \"#utility.yul\":4333:4344   */\n      0x00\n        /* \"#utility.yul\":4370:4373   */\n      dup2\n        /* \"#utility.yul\":4355:4373   */\n      swap1\n      pop\n        /* \"#utility.yul\":4231:4379   */\n      swap3\n      swap2\n      pop\n      pop\n      jump\t// out\n        /* \"#utility.yul\":4385:4533   */\n    tag_44:\n        /* \"#utility.yul\":4483:4489   */\n      dup3\n        /* \"#utility.yul\":4478:4481   */\n      dup2\n        /* \"#utility.yul\":4473:4476   */\n      dup4\n        /* \"#utility.yul\":4460:4490   */\n      calldatacopy\n        /* \"#utility.yul\":4524:4525   */\n      0x00\n        /* \"#utility.yul\":4515:4521   */\n      dup4\n        /* \"#utility.yul\":4510:4513   */\n      dup4\n        /* \"#utility.yul\":4506:4522   */\n      add\n        /* \"#utility.yul\":4499:4526   */\n      mstore\n        /* \"#utility.yul\":4385:4533   */\n      pop\n      pop\n      pop\n      jump\t// out\n        /* \"#utility.yul\":4563:4893   */\n    tag_45:\n        /* \"#utility.yul\":4679:4682   */\n      0x00\n        /* \"#utility.yul\":4700:4789   */\n      tag_96\n        /* \"#utility.yul\":4782:4788   */\n      dup4\n        /* \"#utility.yul\":4777:4780   */\n      dup6\n        /* \"#utility.yul\":4700:4789   */\n      tag_43\n      jump\t// in\n    tag_96:\n        /* \"#utility.yul\":4693:4789   */\n      swap4\n      pop\n        /* \"#utility.yul\":4799:4855   */\n      tag_97\n        /* \"#utility.yul\":4848:4854   */\n      dup4\n        /* \"#utility.yul\":4843:4846   */\n      dup6\n        /* \"#utility.yul\":4836:4841   */\n      dup5\n        /* \"#utility.yul\":4799:4855   */\n      tag_44\n      jump\t// in\n    tag_97:\n        /* \"#utility.yul\":4880:4886   */\n      dup3\n        /* \"#utility.yul\":4875:4878   */\n      dup5\n        /* \"#utility.yul\":4871:4887   */\n      add\n        /* \"#utility.yul\":4864:4887   */\n      swap1\n      pop\n        /* \"#utility.yul\":4563:4893   */\n      swap4\n      swap3\n      pop\n      pop\n      pop\n      jump\t// out\n        /* \"#utility.yul\":4899:4978   */\n    tag_46:\n        /* \"#utility.yul\":4938:4945   */\n      0x00\n        /* \"#utility.yul\":4967:4972   */\n      dup2\n        /* \"#utility.yul\":4956:4972   */\n      swap1\n      pop\n        /* \"#utility.yul\":4899:4978   */\n      swap2\n      swap1\n      pop\n      jump\t// out\n        /* \"#utility.yul\":4984:5141   */\n    tag_47:\n        /* \"#utility.yul\":5089:5134   */\n      tag_100\n        /* \"#utility.yul\":5109:5133   */\n      tag_101\n        /* \"#utility.yul\":5127:5132   */\n      dup3\n        /* \"#utility.yul\":5109:5133   */\n      tag_34\n      jump\t// in\n    tag_101:\n        /* \"#utility.yul\":5089:5134   */\n      tag_46\n      jump\t// in\n    tag_100:\n        /* \"#utility.yul\":5084:5087   */\n      dup3\n        /* \"#utility.yul\":5077:5135   */\n      mstore\n        /* \"#utility.yul\":4984:5141   */\n      pop\n      pop\n      jump\t// out\n        /* \"#utility.yul\":5147:5583   */\n    tag_23:\n        /* \"#utility.yul\":5317:5320   */\n      0x00\n        /* \"#utility.yul\":5339:5444   */\n      tag_103\n        /* \"#utility.yul\":5440:5443   */\n      dup3\n        /* \"#utility.yul\":5431:5437   */\n      dup6\n        /* \"#utility.yul\":5423:5429   */\n      dup8\n        /* \"#utility.yul\":5339:5444   */\n      tag_45\n      jump\t// in\n    tag_103:\n        /* \"#utility.yul\":5332:5444   */\n      swap2\n      pop\n        /* \"#utility.yul\":5454:5529   */\n      tag_104\n        /* \"#utility.yul\":5525:5528   */\n      dup3\n        /* \"#utility.yul\":5516:5522   */\n      dup5\n        /* \"#utility.yul\":5454:5529   */\n      tag_47\n      jump\t// in\n    tag_104:\n        /* \"#utility.yul\":5554:5556   */\n      0x20\n        /* \"#utility.yul\":5549:5552   */\n      dup3\n        /* \"#utility.yul\":5545:5557   */\n      add\n        /* \"#utility.yul\":5538:5557   */\n      swap2\n      pop\n        /* \"#utility.yul\":5574:5577   */\n      dup2\n        /* \"#utility.yul\":5567:5577   */\n      swap1\n      pop\n        /* \"#utility.yul\":5147:5583   */\n      swap5\n      swap4\n      pop\n      pop\n      pop\n      pop\n      jump\t// out\n        /* \"#utility.yul\":5589:5750   */\n    tag_48:\n        /* \"#utility.yul\":5729:5742   */\n      0x496e76616c6964206b6579000000000000000000000000000000000000000000\n        /* \"#utility.yul\":5725:5726   */\n      0x00\n        /* \"#utility.yul\":5717:5723   */\n      dup3\n        /* \"#utility.yul\":5713:5727   */\n      add\n        /* \"#utility.yul\":5706:5743   */\n      mstore\n        /* \"#utility.yul\":5589:5750   */\n      pop\n      jump\t// out\n        /* \"#utility.yul\":5756:6122   */\n    tag_49:\n        /* \"#utility.yul\":5898:5901   */\n      0x00\n        /* \"#utility.yul\":5919:5986   */\n      tag_107\n        /* \"#utility.yul\":5983:5985   */\n      0x0b\n        /* \"#utility.yul\":5978:5981   */\n      dup4\n        /* \"#utility.yul\":5919:5986   */\n      tag_40\n      jump\t// in\n    tag_107:\n        /* \"#utility.yul\":5912:5986   */\n      swap2\n      pop\n        /* \"#utility.yul\":5995:6088   */\n      tag_108\n        /* \"#utility.yul\":6084:6087   */\n      dup3\n        /* \"#utility.yul\":5995:6088   */\n      tag_48\n      jump\t// in\n    tag_108:\n        /* \"#utility.yul\":6113:6115   */\n      0x20\n        /* \"#utility.yul\":6108:6111   */\n      dup3\n        /* \"#utility.yul\":6104:6116   */\n      add\n        /* \"#utility.yul\":6097:6116   */\n      swap1\n      pop\n        /* \"#utility.yul\":5756:6122   */\n      swap2\n      swap1\n      pop\n      jump\t// out\n        /* \"#utility.yul\":6128:6547   */\n    tag_26:\n        /* \"#utility.yul\":6294:6298   */\n      0x00\n        /* \"#utility.yul\":6332:6334   */\n      0x20\n        /* \"#utility.yul\":6321:6330   */\n      dup3\n        /* \"#utility.yul\":6317:6335   */\n      add\n        /* \"#utility.yul\":6309:6335   */\n      swap1\n      pop\n        /* \"#utility.yul\":6381:6390   */\n      dup2\n        /* \"#utility.yul\":6375:6379   */\n      dup2\n        /* \"#utility.yul\":6371:6391   */\n      sub\n        /* \"#utility.yul\":6367:6368   */\n      0x00\n        /* \"#utility.yul\":6356:6365   */\n      dup4\n        /* \"#utility.yul\":6352:6369   */\n      add\n        /* \"#utility.yul\":6345:6392   */\n      mstore\n        /* \"#utility.yul\":6409:6540   */\n      tag_110\n        /* \"#utility.yul\":6535:6539   */\n      dup2\n        /* \"#utility.yul\":6409:6540   */\n      tag_49\n      jump\t// in\n    tag_110:\n        /* \"#utility.yul\":6401:6540   */\n      swap1\n      pop\n        /* \"#utility.yul\":6128:6547   */\n      swap2\n      swap1\n      pop\n      jump\t// out\n\n    auxdata: 0xa2646970667358221220e151d0ffe27dae818c41851d710d83fdb98ba0a637c52a0bce798fc3561d20e664736f6c634300081a0033\n}\n",
				"bytecode": {
					"linkReferences": {},
					"object": "60806040526040516105273803806105278339818101604052810190602391906079565b805f819055505f60015f6101000a81548160ff02191690831515021790555050609f565b5f80fd5b5f819050919050565b605b81604b565b81146064575f80fd5b50565b5f815190506073816054565b92915050565b5f60208284031215608b57608a6047565b5b5f6096848285016067565b91505092915050565b61047b806100ac5f395ff3fe608060405234801561000f575f80fd5b506004361061003f575f3560e01c80637715fa4c14610043578063afbbe6fd1461005f578063fa2a89971461007d575b5f80fd5b61005d60048036038101906100589190610228565b61009b565b005b610067610175565b6040516100749190610294565b60405180910390f35b61008561017a565b60405161009291906102c7565b60405180910390f35b60015f9054906101000a900460ff16156100ea576040517f08c379a00000000000000000000000000000000000000000000000000000000081526004016100e19061033a565b60405180910390fd5b5f54838383604051602001610101939291906103b4565b6040516020818303038152906040528051906020012014610157576040517f08c379a000000000000000000000000000000000000000000000000000000000815260040161014e90610427565b60405180910390fd5b6001805f6101000a81548160ff021916908315150217905550505050565b5f5481565b60015f9054906101000a900460ff1681565b5f80fd5b5f80fd5b5f80fd5b5f80fd5b5f80fd5b5f8083601f8401126101b5576101b4610194565b5b8235905067ffffffffffffffff8111156101d2576101d1610198565b5b6020830191508360018202830111156101ee576101ed61019c565b5b9250929050565b5f819050919050565b610207816101f5565b8114610211575f80fd5b50565b5f81359050610222816101fe565b92915050565b5f805f6040848603121561023f5761023e61018c565b5b5f84013567ffffffffffffffff81111561025c5761025b610190565b5b610268868287016101a0565b9350935050602061027b86828701610214565b9150509250925092565b61028e816101f5565b82525050565b5f6020820190506102a75f830184610285565b92915050565b5f8115159050919050565b6102c1816102ad565b82525050565b5f6020820190506102da5f8301846102b8565b92915050565b5f82825260208201905092915050565b7f416c726561647920646f6e6500000000000000000000000000000000000000005f82015250565b5f610324600c836102e0565b915061032f826102f0565b602082019050919050565b5f6020820190508181035f83015261035181610318565b9050919050565b5f81905092915050565b828183375f83830152505050565b5f61037b8385610358565b9350610388838584610362565b82840190509392505050565b5f819050919050565b6103ae6103a9826101f5565b610394565b82525050565b5f6103c0828587610370565b91506103cc828461039d565b602082019150819050949350505050565b7f496e76616c6964206b65790000000000000000000000000000000000000000005f82015250565b5f610411600b836102e0565b915061041c826103dd565b602082019050919050565b5f6020820190508181035f83015261043e81610405565b905091905056fea2646970667358221220e151d0ffe27dae818c41851d710d83fdb98ba0a637c52a0bce798fc3561d20e664736f6c634300081a0033",
					"opcodes": "PUSH1 0x80 PUSH1 0x40 MSTORE PUSH1 0x40 MLOAD PUSH2 0x527 CODESIZE SUB DUP1 PUSH2 0x527 DUP4 CODECOPY DUP2 DUP2 ADD PUSH1 0x40 MSTORE DUP2 ADD SWAP1 PUSH1 0x23 SWAP2 SWAP1 PUSH1 0x79 JUMP JUMPDEST DUP1 PUSH0 DUP2 SWAP1 SSTORE POP PUSH0 PUSH1 0x1 PUSH0 PUSH2 0x100 EXP DUP2 SLOAD DUP2 PUSH1 0xFF MUL NOT AND SWAP1 DUP4 ISZERO ISZERO MUL OR SWAP1 SSTORE POP POP PUSH1 0x9F JUMP JUMPDEST PUSH0 DUP1 REVERT JUMPDEST PUSH0 DUP2 SWAP1 POP SWAP2 SWAP1 POP JUMP JUMPDEST PUSH1 0x5B DUP2 PUSH1 0x4B JUMP JUMPDEST DUP2 EQ PUSH1 0x64 JUMPI PUSH0 DUP1 REVERT JUMPDEST POP JUMP JUMPDEST PUSH0 DUP2 MLOAD SWAP1 POP PUSH1 0x73 DUP2 PUSH1 0x54 JUMP JUMPDEST SWAP3 SWAP2 POP POP JUMP JUMPDEST PUSH0 PUSH1 0x20 DUP3 DUP5 SUB SLT ISZERO PUSH1 0x8B JUMPI PUSH1 0x8A PUSH1 0x47 JUMP JUMPDEST JUMPDEST PUSH0 PUSH1 0x96 DUP5 DUP3 DUP6 ADD PUSH1 0x67 JUMP JUMPDEST SWAP2 POP POP SWAP3 SWAP2 POP POP JUMP JUMPDEST PUSH2 0x47B DUP1 PUSH2 0xAC PUSH0 CODECOPY PUSH0 RETURN INVALID PUSH1 0x80 PUSH1 0x40 MSTORE CALLVALUE DUP1 ISZERO PUSH2 0xF JUMPI PUSH0 DUP1 REVERT JUMPDEST POP PUSH1 0x4 CALLDATASIZE LT PUSH2 0x3F JUMPI PUSH0 CALLDATALOAD PUSH1 0xE0 SHR DUP1 PUSH4 0x7715FA4C EQ PUSH2 0x43 JUMPI DUP1 PUSH4 0xAFBBE6FD EQ PUSH2 0x5F JUMPI DUP1 PUSH4 0xFA2A8997 EQ PUSH2 0x7D JUMPI JUMPDEST PUSH0 DUP1 REVERT JUMPDEST PUSH2 0x5D PUSH1 0x4 DUP1 CALLDATASIZE SUB DUP2 ADD SWAP1 PUSH2 0x58 SWAP2 SWAP1 PUSH2 0x228 JUMP JUMPDEST PUSH2 0x9B JUMP JUMPDEST STOP JUMPDEST PUSH2 0x67 PUSH2 0x175 JUMP JUMPDEST PUSH1 0x40 MLOAD PUSH2 0x74 SWAP2 SWAP1 PUSH2 0x294 JUMP JUMPDEST PUSH1 0x40 MLOAD DUP1 SWAP2 SUB SWAP1 RETURN JUMPDEST PUSH2 0x85 PUSH2 0x17A JUMP JUMPDEST PUSH1 0x40 MLOAD PUSH2 0x92 SWAP2 SWAP1 PUSH2 0x2C7 JUMP JUMPDEST PUSH1 0x40 MLOAD DUP1 SWAP2 SUB SWAP1 RETURN JUMPDEST PUSH1 0x1 PUSH0 SWAP1 SLOAD SWAP1 PUSH2 0x100 EXP SWAP1 DIV PUSH1 0xFF AND ISZERO PUSH2 0xEA JUMPI PUSH1 0x40 MLOAD PUSH32 0x8C379A000000000000000000000000000000000000000000000000000000000 DUP2 MSTORE PUSH1 0x4 ADD PUSH2 0xE1 SWAP1 PUSH2 0x33A JUMP JUMPDEST PUSH1 0x40 MLOAD DUP1 SWAP2 SUB SWAP1 REVERT JUMPDEST PUSH0 SLOAD DUP4 DUP4 DUP4 PUSH1 0x40 MLOAD PUSH1 0x20 ADD PUSH2 0x101 SWAP4 SWAP3 SWAP2 SWAP1 PUSH2 0x3B4 JUMP JUMPDEST PUSH1 0x40 MLOAD PUSH1 0x20 DUP2 DUP4 SUB SUB DUP2 MSTORE SWAP1 PUSH1 0x40 MSTORE DUP1 MLOAD SWAP1 PUSH1 0x20 ADD KECCAK256 EQ PUSH2 0x157 JUMPI PUSH1 0x40 MLOAD PUSH32 0x8C379A000000000000000000000000000000000000000000000000000000000 DUP2 MSTORE PUSH1 0x4 ADD PUSH2 0x14E SWAP1 PUSH2 0x427 JUMP JUMPDEST PUSH1 0x40 MLOAD DUP1 SWAP2 SUB SWAP1 REVERT JUMPDEST PUSH1 0x1 DUP1 PUSH0 PUSH2 0x100 EXP DUP2 SLOAD DUP2 PUSH1 0xFF MUL NOT AND SWAP1 DUP4 ISZERO ISZERO MUL OR SWAP1 SSTORE POP POP POP POP JUMP JUMPDEST PUSH0 SLOAD DUP2 JUMP JUMPDEST PUSH1 0x1 PUSH0 SWAP1 SLOAD SWAP1 PUSH2 0x100 EXP SWAP1 DIV PUSH1 0xFF AND DUP2 JUMP JUMPDEST PUSH0 DUP1 REVERT JUMPDEST PUSH0 DUP1 REVERT JUMPDEST PUSH0 DUP1 REVERT JUMPDEST PUSH0 DUP1 REVERT JUMPDEST PUSH0 DUP1 REVERT JUMPDEST PUSH0 DUP1 DUP4 PUSH1 0x1F DUP5 ADD SLT PUSH2 0x1B5 JUMPI PUSH2 0x1B4 PUSH2 0x194 JUMP JUMPDEST JUMPDEST DUP3 CALLDATALOAD SWAP1 POP PUSH8 0xFFFFFFFFFFFFFFFF DUP2 GT ISZERO PUSH2 0x1D2 JUMPI PUSH2 0x1D1 PUSH2 0x198 JUMP JUMPDEST JUMPDEST PUSH1 0x20 DUP4 ADD SWAP2 POP DUP4 PUSH1 0x1 DUP3 MUL DUP4 ADD GT ISZERO PUSH2 0x1EE JUMPI PUSH2 0x1ED PUSH2 0x19C JUMP JUMPDEST JUMPDEST SWAP3 POP SWAP3 SWAP1 POP JUMP JUMPDEST PUSH0 DUP2 SWAP1 POP SWAP2 SWAP1 POP JUMP JUMPDEST PUSH2 0x207 DUP2 PUSH2 0x1F5 JUMP JUMPDEST DUP2 EQ PUSH2 0x211 JUMPI PUSH0 DUP1 REVERT JUMPDEST POP JUMP JUMPDEST PUSH0 DUP2 CALLDATALOAD SWAP1 POP PUSH2 0x222 DUP2 PUSH2 0x1FE JUMP JUMPDEST SWAP3 SWAP2 POP POP JUMP JUMPDEST PUSH0 DUP1 PUSH0 PUSH1 0x40 DUP5 DUP7 SUB SLT ISZERO PUSH2 0x23F JUMPI PUSH2 0x23E PUSH2 0x18C JUMP JUMPDEST JUMPDEST PUSH0 DUP5 ADD CALLDATALOAD PUSH8 0xFFFFFFFFFFFFFFFF DUP2 GT ISZERO PUSH2 0x25C JUMPI PUSH2 0x25B PUSH2 0x190 JUMP JUMPDEST JUMPDEST PUSH2 0x268 DUP7 DUP3 DUP8 ADD PUSH2 0x1A0 JUMP JUMPDEST SWAP4 POP SWAP4 POP POP PUSH1 0x20 PUSH2 0x27B DUP7 DUP3 DUP8 ADD PUSH2 0x214 JUMP JUMPDEST SWAP2 POP POP SWAP3 POP SWAP3 POP SWAP3 JUMP JUMPDEST PUSH2 0x28E DUP2 PUSH2 0x1F5 JUMP JUMPDEST DUP3 MSTORE POP POP JUMP JUMPDEST PUSH0 PUSH1 0x20 DUP3 ADD SWAP1 POP PUSH2 0x2A7 PUSH0 DUP4 ADD DUP5 PUSH2 0x285 JUMP JUMPDEST SWAP3 SWAP2 POP POP JUMP JUMPDEST PUSH0 DUP2 ISZERO ISZERO SWAP1 POP SWAP2 SWAP1 POP JUMP JUMPDEST PUSH2 0x2C1 DUP2 PUSH2 0x2AD JUMP JUMPDEST DUP3 MSTORE POP POP JUMP JUMPDEST PUSH0 PUSH1 0x20 DUP3 ADD SWAP1 POP PUSH2 0x2DA PUSH0 DUP4 ADD DUP5 PUSH2 0x2B8 JUMP JUMPDEST SWAP3 SWAP2 POP POP JUMP JUMPDEST PUSH0 DUP3 DUP3 MSTORE PUSH1 0x20 DUP3 ADD SWAP1 POP SWAP3 SWAP2 POP POP JUMP JUMPDEST PUSH32 0x416C726561647920646F6E650000000000000000000000000000000000000000 PUSH0 DUP3 ADD MSTORE POP JUMP JUMPDEST PUSH0 PUSH2 0x324 PUSH1 0xC DUP4 PUSH2 0x2E0 JUMP JUMPDEST SWAP2 POP PUSH2 0x32F DUP3 PUSH2 0x2F0 JUMP JUMPDEST PUSH1 0x20 DUP3 ADD SWAP1 POP SWAP2 SWAP1 POP JUMP JUMPDEST PUSH0 PUSH1 0x20 DUP3 ADD SWAP1 POP DUP2 DUP2 SUB PUSH0 DUP4 ADD MSTORE PUSH2 0x351 DUP2 PUSH2 0x318 JUMP JUMPDEST SWAP1 POP SWAP2 SWAP1 POP JUMP JUMPDEST PUSH0 DUP2 SWAP1 POP SWAP3 SWAP2 POP POP JUMP JUMPDEST DUP3 DUP2 DUP4 CALLDATACOPY PUSH0 DUP4 DUP4 ADD MSTORE POP POP POP JUMP JUMPDEST PUSH0 PUSH2 0x37B DUP4 DUP6 PUSH2 0x358 JUMP JUMPDEST SWAP4 POP PUSH2 0x388 DUP4 DUP6 DUP5 PUSH2 0x362 JUMP JUMPDEST DUP3 DUP5 ADD SWAP1 POP SWAP4 SWAP3 POP POP POP JUMP JUMPDEST PUSH0 DUP2 SWAP1 POP SWAP2 SWAP1 POP JUMP JUMPDEST PUSH2 0x3AE PUSH2 0x3A9 DUP3 PUSH2 0x1F5 JUMP JUMPDEST PUSH2 0x394 JUMP JUMPDEST DUP3 MSTORE POP POP JUMP JUMPDEST PUSH0 PUSH2 0x3C0 DUP3 DUP6 DUP8 PUSH2 0x370 JUMP JUMPDEST SWAP2 POP PUSH2 0x3CC DUP3 DUP5 PUSH2 0x39D JUMP JUMPDEST PUSH1 0x20 DUP3 ADD SWAP2 POP DUP2 SWAP1 POP SWAP5 SWAP4 POP POP POP POP JUMP JUMPDEST PUSH32 0x496E76616C6964206B6579000000000000000000000000000000000000000000 PUSH0 DUP3 ADD MSTORE POP JUMP JUMPDEST PUSH0 PUSH2 0x411 PUSH1 0xB DUP4 PUSH2 0x2E0 JUMP JUMPDEST SWAP2 POP PUSH2 0x41C DUP3 PUSH2 0x3DD JUMP JUMPDEST PUSH1 0x20 DUP3 ADD SWAP1 POP SWAP2 SWAP1 POP JUMP JUMPDEST PUSH0 PUSH1 0x20 DUP3 ADD SWAP1 POP DUP2 DUP2 SUB PUSH0 DUP4 ADD MSTORE PUSH2 0x43E DUP2 PUSH2 0x405 JUMP JUMPDEST SWAP1 POP SWAP2 SWAP1 POP JUMP INVALID LOG2 PUSH5 0x6970667358 0x22 SLT KECCAK256 0xE1 MLOAD 0xD0 SELFDESTRUCT 0xE2 PUSH30 0xAE818C41851D710D83FDB98BA0A637C52A0BCE798FC3561D20E664736F6C PUSH4 0x4300081A STOP CALLER "
				},
				"gasEstimates": {
					"creation": {
						"codeDepositCost": "229400",
						"executionCost": "infinite",
						"totalCost": "infinite"
					},
					"external": {
						"hashedKey()": "2424",
						"isReleased()": "2488",
						"revealKey(string,bytes32)": "infinite"
					}
				},
				"methodIdentifiers": {
					"hashedKey()": "afbbe6fd",
					"isReleased()": "fa2a8997",
					"revealKey(string,bytes32)": "7715fa4c"
				}
			},
			"storageLayout": {
				"storage": [
					{
						"astId": 4,
						"contract": "E/Escrow Passwords/Off-Chain Encryption Approach.sol:OffChainEscrowPasswordReference",
						"label": "hashedKey",
						"offset": 0,
						"slot": "0",
						"type": "t_bytes32"
					},
					{
						"astId": 6,
						"contract": "E/Escrow Passwords/Off-Chain Encryption Approach.sol:OffChainEscrowPasswordReference",
						"label": "isReleased",
						"offset": 0,
						"slot": "1",
						"type": "t_bool"
					}
				],
				"types": {
					"t_bool": {
						"encoding": "inplace",
						"label": "bool",
						"numberOfBytes": "1"
					},
					"t_bytes32": {
						"encoding": "inplace",
						"label": "bytes32",
						"numberOfBytes": "32"
					}
				}
			},
			"userdoc": {
				"kind": "user",
				"methods": {},
				"notice": "Another approach to password escrow: The password is stored off-chain, but the contract references an encryption  so that if the user wants to reveal, they do so in an event or partial code.  Not a direct on-chain password check, but more like a reference approach.",
				"version": 1
			}
		}
	}
}