{
	"L/Layer 2 Tunneling Protocol (L2TP)/Tunneled Token Transfer (Escrowed L2TP Tunnel).sol": {
		"L2TokenTunnel": {
			"abi": [
				{
					"inputs": [
						{
							"internalType": "address",
							"name": "_token",
							"type": "address"
						},
						{
							"internalType": "address",
							"name": "_l1Receiver",
							"type": "address"
						}
					],
					"stateMutability": "nonpayable",
					"type": "constructor"
				},
				{
					"anonymous": false,
					"inputs": [
						{
							"indexed": false,
							"internalType": "address",
							"name": "user",
							"type": "address"
						},
						{
							"indexed": false,
							"internalType": "uint256",
							"name": "amount",
							"type": "uint256"
						},
						{
							"indexed": false,
							"internalType": "string",
							"name": "destination",
							"type": "string"
						}
					],
					"name": "TokenTunneled",
					"type": "event"
				},
				{
					"inputs": [],
					"name": "remoteL1Receiver",
					"outputs": [
						{
							"internalType": "address",
							"name": "",
							"type": "address"
						}
					],
					"stateMutability": "view",
					"type": "function"
				},
				{
					"inputs": [],
					"name": "token",
					"outputs": [
						{
							"internalType": "contract IERC20",
							"name": "",
							"type": "address"
						}
					],
					"stateMutability": "view",
					"type": "function"
				},
				{
					"inputs": [
						{
							"internalType": "uint256",
							"name": "amount",
							"type": "uint256"
						},
						{
							"internalType": "string",
							"name": "destChain",
							"type": "string"
						}
					],
					"name": "tunnelTokens",
					"outputs": [],
					"stateMutability": "nonpayable",
					"type": "function"
				}
			],
			"devdoc": {
				"kind": "dev",
				"methods": {},
				"version": 1
			},
			"evm": {
				"assembly": "    /* \"L/Layer 2 Tunneling Protocol (L2TP)/Tunneled Token Transfer (Escrowed L2TP Tunnel).sol\":126:693  contract L2TokenTunnel {... */\n  mstore(0x40, 0x80)\n    /* \"L/Layer 2 Tunneling Protocol (L2TP)/Tunneled Token Transfer (Escrowed L2TP Tunnel).sol\":294:422  constructor(address _token, address _l1Receiver) {... */\n  callvalue\n  dup1\n  iszero\n  tag_1\n  jumpi\n  0x00\n  dup1\n  revert\ntag_1:\n  pop\n  mload(0x40)\n  sub(codesize, bytecodeSize)\n  dup1\n  bytecodeSize\n  dup4\n  codecopy\n  dup2\n  dup2\n  add\n  0x40\n  mstore\n  dup2\n  add\n  swap1\n  tag_2\n  swap2\n  swap1\n  tag_3\n  jump\t// in\ntag_2:\n    /* \"L/Layer 2 Tunneling Protocol (L2TP)/Tunneled Token Transfer (Escrowed L2TP Tunnel).sol\":368:374  _token */\n  dup2\n    /* \"L/Layer 2 Tunneling Protocol (L2TP)/Tunneled Token Transfer (Escrowed L2TP Tunnel).sol\":353:358  token */\n  0x00\n  dup1\n    /* \"L/Layer 2 Tunneling Protocol (L2TP)/Tunneled Token Transfer (Escrowed L2TP Tunnel).sol\":353:375  token = IERC20(_token) */\n  0x0100\n  exp\n  dup2\n  sload\n  dup2\n  0xffffffffffffffffffffffffffffffffffffffff\n  mul\n  not\n  and\n  swap1\n  dup4\n  0xffffffffffffffffffffffffffffffffffffffff\n  and\n  mul\n  or\n  swap1\n  sstore\n  pop\n    /* \"L/Layer 2 Tunneling Protocol (L2TP)/Tunneled Token Transfer (Escrowed L2TP Tunnel).sol\":404:415  _l1Receiver */\n  dup1\n    /* \"L/Layer 2 Tunneling Protocol (L2TP)/Tunneled Token Transfer (Escrowed L2TP Tunnel).sol\":385:401  remoteL1Receiver */\n  0x01\n  0x00\n    /* \"L/Layer 2 Tunneling Protocol (L2TP)/Tunneled Token Transfer (Escrowed L2TP Tunnel).sol\":385:415  remoteL1Receiver = _l1Receiver */\n  0x0100\n  exp\n  dup2\n  sload\n  dup2\n  0xffffffffffffffffffffffffffffffffffffffff\n  mul\n  not\n  and\n  swap1\n  dup4\n  0xffffffffffffffffffffffffffffffffffffffff\n  and\n  mul\n  or\n  swap1\n  sstore\n  pop\n    /* \"L/Layer 2 Tunneling Protocol (L2TP)/Tunneled Token Transfer (Escrowed L2TP Tunnel).sol\":294:422  constructor(address _token, address _l1Receiver) {... */\n  pop\n  pop\n    /* \"L/Layer 2 Tunneling Protocol (L2TP)/Tunneled Token Transfer (Escrowed L2TP Tunnel).sol\":126:693  contract L2TokenTunnel {... */\n  jump(tag_6)\n    /* \"#utility.yul\":88:205   */\ntag_8:\n    /* \"#utility.yul\":197:198   */\n  0x00\n    /* \"#utility.yul\":194:195   */\n  dup1\n    /* \"#utility.yul\":187:199   */\n  revert\n    /* \"#utility.yul\":334:460   */\ntag_10:\n    /* \"#utility.yul\":371:378   */\n  0x00\n    /* \"#utility.yul\":411:453   */\n  0xffffffffffffffffffffffffffffffffffffffff\n    /* \"#utility.yul\":404:409   */\n  dup3\n    /* \"#utility.yul\":400:454   */\n  and\n    /* \"#utility.yul\":389:454   */\n  swap1\n  pop\n    /* \"#utility.yul\":334:460   */\n  swap2\n  swap1\n  pop\n  jump\t// out\n    /* \"#utility.yul\":466:562   */\ntag_11:\n    /* \"#utility.yul\":503:510   */\n  0x00\n    /* \"#utility.yul\":532:556   */\n  tag_20\n    /* \"#utility.yul\":550:555   */\n  dup3\n    /* \"#utility.yul\":532:556   */\n  tag_10\n  jump\t// in\ntag_20:\n    /* \"#utility.yul\":521:556   */\n  swap1\n  pop\n    /* \"#utility.yul\":466:562   */\n  swap2\n  swap1\n  pop\n  jump\t// out\n    /* \"#utility.yul\":568:690   */\ntag_12:\n    /* \"#utility.yul\":641:665   */\n  tag_22\n    /* \"#utility.yul\":659:664   */\n  dup2\n    /* \"#utility.yul\":641:665   */\n  tag_11\n  jump\t// in\ntag_22:\n    /* \"#utility.yul\":634:639   */\n  dup2\n    /* \"#utility.yul\":631:666   */\n  eq\n    /* \"#utility.yul\":621:684   */\n  tag_23\n  jumpi\n    /* \"#utility.yul\":680:681   */\n  0x00\n    /* \"#utility.yul\":677:678   */\n  dup1\n    /* \"#utility.yul\":670:682   */\n  revert\n    /* \"#utility.yul\":621:684   */\ntag_23:\n    /* \"#utility.yul\":568:690   */\n  pop\n  jump\t// out\n    /* \"#utility.yul\":696:839   */\ntag_13:\n    /* \"#utility.yul\":753:758   */\n  0x00\n    /* \"#utility.yul\":784:790   */\n  dup2\n    /* \"#utility.yul\":778:791   */\n  mload\n    /* \"#utility.yul\":769:791   */\n  swap1\n  pop\n    /* \"#utility.yul\":800:833   */\n  tag_25\n    /* \"#utility.yul\":827:832   */\n  dup2\n    /* \"#utility.yul\":800:833   */\n  tag_12\n  jump\t// in\ntag_25:\n    /* \"#utility.yul\":696:839   */\n  swap3\n  swap2\n  pop\n  pop\n  jump\t// out\n    /* \"#utility.yul\":845:1352   */\ntag_3:\n    /* \"#utility.yul\":924:930   */\n  0x00\n    /* \"#utility.yul\":932:938   */\n  dup1\n    /* \"#utility.yul\":981:983   */\n  0x40\n    /* \"#utility.yul\":969:978   */\n  dup4\n    /* \"#utility.yul\":960:967   */\n  dup6\n    /* \"#utility.yul\":956:979   */\n  sub\n    /* \"#utility.yul\":952:984   */\n  slt\n    /* \"#utility.yul\":949:1068   */\n  iszero\n  tag_27\n  jumpi\n    /* \"#utility.yul\":987:1066   */\n  tag_28\n  tag_8\n  jump\t// in\ntag_28:\n    /* \"#utility.yul\":949:1068   */\ntag_27:\n    /* \"#utility.yul\":1107:1108   */\n  0x00\n    /* \"#utility.yul\":1132:1196   */\n  tag_29\n    /* \"#utility.yul\":1188:1195   */\n  dup6\n    /* \"#utility.yul\":1179:1185   */\n  dup3\n    /* \"#utility.yul\":1168:1177   */\n  dup7\n    /* \"#utility.yul\":1164:1186   */\n  add\n    /* \"#utility.yul\":1132:1196   */\n  tag_13\n  jump\t// in\ntag_29:\n    /* \"#utility.yul\":1122:1196   */\n  swap3\n  pop\n    /* \"#utility.yul\":1078:1206   */\n  pop\n    /* \"#utility.yul\":1245:1247   */\n  0x20\n    /* \"#utility.yul\":1271:1335   */\n  tag_30\n    /* \"#utility.yul\":1327:1334   */\n  dup6\n    /* \"#utility.yul\":1318:1324   */\n  dup3\n    /* \"#utility.yul\":1307:1316   */\n  dup7\n    /* \"#utility.yul\":1303:1325   */\n  add\n    /* \"#utility.yul\":1271:1335   */\n  tag_13\n  jump\t// in\ntag_30:\n    /* \"#utility.yul\":1261:1335   */\n  swap2\n  pop\n    /* \"#utility.yul\":1216:1345   */\n  pop\n    /* \"#utility.yul\":845:1352   */\n  swap3\n  pop\n  swap3\n  swap1\n  pop\n  jump\t// out\n    /* \"L/Layer 2 Tunneling Protocol (L2TP)/Tunneled Token Transfer (Escrowed L2TP Tunnel).sol\":126:693  contract L2TokenTunnel {... */\ntag_6:\n  dataSize(sub_0)\n  dup1\n  dataOffset(sub_0)\n  0x00\n  codecopy\n  0x00\n  return\nstop\n\nsub_0: assembly {\n        /* \"L/Layer 2 Tunneling Protocol (L2TP)/Tunneled Token Transfer (Escrowed L2TP Tunnel).sol\":126:693  contract L2TokenTunnel {... */\n      mstore(0x40, 0x80)\n      callvalue\n      dup1\n      iszero\n      tag_1\n      jumpi\n      0x00\n      dup1\n      revert\n    tag_1:\n      pop\n      jumpi(tag_2, lt(calldatasize, 0x04))\n      shr(0xe0, calldataload(0x00))\n      dup1\n      0x055e133c\n      eq\n      tag_3\n      jumpi\n      dup1\n      0x384ffa6b\n      eq\n      tag_4\n      jumpi\n      dup1\n      0xfc0c546a\n      eq\n      tag_5\n      jumpi\n    tag_2:\n      0x00\n      dup1\n      revert\n        /* \"L/Layer 2 Tunneling Protocol (L2TP)/Tunneled Token Transfer (Escrowed L2TP Tunnel).sol\":180:211  address public remoteL1Receiver */\n    tag_3:\n      tag_6\n      tag_7\n      jump\t// in\n    tag_6:\n      mload(0x40)\n      tag_8\n      swap2\n      swap1\n      tag_9\n      jump\t// in\n    tag_8:\n      mload(0x40)\n      dup1\n      swap2\n      sub\n      swap1\n      return\n        /* \"L/Layer 2 Tunneling Protocol (L2TP)/Tunneled Token Transfer (Escrowed L2TP Tunnel).sol\":428:691  function tunnelTokens(uint256 amount, string memory destChain) external {... */\n    tag_4:\n      tag_10\n      0x04\n      dup1\n      calldatasize\n      sub\n      dup2\n      add\n      swap1\n      tag_11\n      swap2\n      swap1\n      tag_12\n      jump\t// in\n    tag_11:\n      tag_13\n      jump\t// in\n    tag_10:\n      stop\n        /* \"L/Layer 2 Tunneling Protocol (L2TP)/Tunneled Token Transfer (Escrowed L2TP Tunnel).sol\":155:174  IERC20 public token */\n    tag_5:\n      tag_14\n      tag_15\n      jump\t// in\n    tag_14:\n      mload(0x40)\n      tag_16\n      swap2\n      swap1\n      tag_17\n      jump\t// in\n    tag_16:\n      mload(0x40)\n      dup1\n      swap2\n      sub\n      swap1\n      return\n        /* \"L/Layer 2 Tunneling Protocol (L2TP)/Tunneled Token Transfer (Escrowed L2TP Tunnel).sol\":180:211  address public remoteL1Receiver */\n    tag_7:\n      0x01\n      0x00\n      swap1\n      sload\n      swap1\n      0x0100\n      exp\n      swap1\n      div\n      0xffffffffffffffffffffffffffffffffffffffff\n      and\n      dup2\n      jump\t// out\n        /* \"L/Layer 2 Tunneling Protocol (L2TP)/Tunneled Token Transfer (Escrowed L2TP Tunnel).sol\":428:691  function tunnelTokens(uint256 amount, string memory destChain) external {... */\n    tag_13:\n        /* \"L/Layer 2 Tunneling Protocol (L2TP)/Tunneled Token Transfer (Escrowed L2TP Tunnel).sol\":510:515  token */\n      0x00\n      dup1\n      sload\n      swap1\n      0x0100\n      exp\n      swap1\n      div\n      0xffffffffffffffffffffffffffffffffffffffff\n      and\n        /* \"L/Layer 2 Tunneling Protocol (L2TP)/Tunneled Token Transfer (Escrowed L2TP Tunnel).sol\":510:528  token.transferFrom */\n      0xffffffffffffffffffffffffffffffffffffffff\n      and\n      0x23b872dd\n        /* \"L/Layer 2 Tunneling Protocol (L2TP)/Tunneled Token Transfer (Escrowed L2TP Tunnel).sol\":529:539  msg.sender */\n      caller\n        /* \"L/Layer 2 Tunneling Protocol (L2TP)/Tunneled Token Transfer (Escrowed L2TP Tunnel).sol\":549:553  this */\n      address\n        /* \"L/Layer 2 Tunneling Protocol (L2TP)/Tunneled Token Transfer (Escrowed L2TP Tunnel).sol\":556:562  amount */\n      dup6\n        /* \"L/Layer 2 Tunneling Protocol (L2TP)/Tunneled Token Transfer (Escrowed L2TP Tunnel).sol\":510:563  token.transferFrom(msg.sender, address(this), amount) */\n      mload(0x40)\n      dup5\n      0xffffffff\n      and\n      0xe0\n      shl\n      dup2\n      mstore\n      0x04\n      add\n      tag_19\n      swap4\n      swap3\n      swap2\n      swap1\n      tag_20\n      jump\t// in\n    tag_19:\n      0x20\n      mload(0x40)\n      dup1\n      dup4\n      sub\n      dup2\n      0x00\n      dup8\n      gas\n      call\n      iszero\n      dup1\n      iszero\n      tag_22\n      jumpi\n      returndatasize\n      0x00\n      dup1\n      returndatacopy\n      revert(0x00, returndatasize)\n    tag_22:\n      pop\n      pop\n      pop\n      pop\n      mload(0x40)\n      returndatasize\n      not(0x1f)\n      0x1f\n      dup3\n      add\n      and\n      dup3\n      add\n      dup1\n      0x40\n      mstore\n      pop\n      dup2\n      add\n      swap1\n      tag_23\n      swap2\n      swap1\n      tag_24\n      jump\t// in\n    tag_23:\n      pop\n        /* \"L/Layer 2 Tunneling Protocol (L2TP)/Tunneled Token Transfer (Escrowed L2TP Tunnel).sol\":578:622  TokenTunneled(msg.sender, amount, destChain) */\n      0xf7ef9982322b264396da3da83e58c5916e2b499765df22ec760ed26fb5a07add\n        /* \"L/Layer 2 Tunneling Protocol (L2TP)/Tunneled Token Transfer (Escrowed L2TP Tunnel).sol\":592:602  msg.sender */\n      caller\n        /* \"L/Layer 2 Tunneling Protocol (L2TP)/Tunneled Token Transfer (Escrowed L2TP Tunnel).sol\":604:610  amount */\n      dup4\n        /* \"L/Layer 2 Tunneling Protocol (L2TP)/Tunneled Token Transfer (Escrowed L2TP Tunnel).sol\":612:621  destChain */\n      dup4\n        /* \"L/Layer 2 Tunneling Protocol (L2TP)/Tunneled Token Transfer (Escrowed L2TP Tunnel).sol\":578:622  TokenTunneled(msg.sender, amount, destChain) */\n      mload(0x40)\n      tag_25\n      swap4\n      swap3\n      swap2\n      swap1\n      tag_26\n      jump\t// in\n    tag_25:\n      mload(0x40)\n      dup1\n      swap2\n      sub\n      swap1\n      log1\n        /* \"L/Layer 2 Tunneling Protocol (L2TP)/Tunneled Token Transfer (Escrowed L2TP Tunnel).sol\":428:691  function tunnelTokens(uint256 amount, string memory destChain) external {... */\n      pop\n      pop\n      jump\t// out\n        /* \"L/Layer 2 Tunneling Protocol (L2TP)/Tunneled Token Transfer (Escrowed L2TP Tunnel).sol\":155:174  IERC20 public token */\n    tag_15:\n      0x00\n      dup1\n      sload\n      swap1\n      0x0100\n      exp\n      swap1\n      div\n      0xffffffffffffffffffffffffffffffffffffffff\n      and\n      dup2\n      jump\t// out\n        /* \"#utility.yul\":7:133   */\n    tag_27:\n        /* \"#utility.yul\":44:51   */\n      0x00\n        /* \"#utility.yul\":84:126   */\n      0xffffffffffffffffffffffffffffffffffffffff\n        /* \"#utility.yul\":77:82   */\n      dup3\n        /* \"#utility.yul\":73:127   */\n      and\n        /* \"#utility.yul\":62:127   */\n      swap1\n      pop\n        /* \"#utility.yul\":7:133   */\n      swap2\n      swap1\n      pop\n      jump\t// out\n        /* \"#utility.yul\":139:235   */\n    tag_28:\n        /* \"#utility.yul\":176:183   */\n      0x00\n        /* \"#utility.yul\":205:229   */\n      tag_62\n        /* \"#utility.yul\":223:228   */\n      dup3\n        /* \"#utility.yul\":205:229   */\n      tag_27\n      jump\t// in\n    tag_62:\n        /* \"#utility.yul\":194:229   */\n      swap1\n      pop\n        /* \"#utility.yul\":139:235   */\n      swap2\n      swap1\n      pop\n      jump\t// out\n        /* \"#utility.yul\":241:359   */\n    tag_29:\n        /* \"#utility.yul\":328:352   */\n      tag_64\n        /* \"#utility.yul\":346:351   */\n      dup2\n        /* \"#utility.yul\":328:352   */\n      tag_28\n      jump\t// in\n    tag_64:\n        /* \"#utility.yul\":323:326   */\n      dup3\n        /* \"#utility.yul\":316:353   */\n      mstore\n        /* \"#utility.yul\":241:359   */\n      pop\n      pop\n      jump\t// out\n        /* \"#utility.yul\":365:587   */\n    tag_9:\n        /* \"#utility.yul\":458:462   */\n      0x00\n        /* \"#utility.yul\":496:498   */\n      0x20\n        /* \"#utility.yul\":485:494   */\n      dup3\n        /* \"#utility.yul\":481:499   */\n      add\n        /* \"#utility.yul\":473:499   */\n      swap1\n      pop\n        /* \"#utility.yul\":509:580   */\n      tag_66\n        /* \"#utility.yul\":577:578   */\n      0x00\n        /* \"#utility.yul\":566:575   */\n      dup4\n        /* \"#utility.yul\":562:579   */\n      add\n        /* \"#utility.yul\":553:559   */\n      dup5\n        /* \"#utility.yul\":509:580   */\n      tag_29\n      jump\t// in\n    tag_66:\n        /* \"#utility.yul\":365:587   */\n      swap3\n      swap2\n      pop\n      pop\n      jump\t// out\n        /* \"#utility.yul\":593:668   */\n    tag_30:\n        /* \"#utility.yul\":626:632   */\n      0x00\n        /* \"#utility.yul\":659:661   */\n      0x40\n        /* \"#utility.yul\":653:662   */\n      mload\n        /* \"#utility.yul\":643:662   */\n      swap1\n      pop\n        /* \"#utility.yul\":593:668   */\n      swap1\n      jump\t// out\n        /* \"#utility.yul\":674:791   */\n    tag_31:\n        /* \"#utility.yul\":783:784   */\n      0x00\n        /* \"#utility.yul\":780:781   */\n      dup1\n        /* \"#utility.yul\":773:785   */\n      revert\n        /* \"#utility.yul\":797:914   */\n    tag_32:\n        /* \"#utility.yul\":906:907   */\n      0x00\n        /* \"#utility.yul\":903:904   */\n      dup1\n        /* \"#utility.yul\":896:908   */\n      revert\n        /* \"#utility.yul\":920:997   */\n    tag_33:\n        /* \"#utility.yul\":957:964   */\n      0x00\n        /* \"#utility.yul\":986:991   */\n      dup2\n        /* \"#utility.yul\":975:991   */\n      swap1\n      pop\n        /* \"#utility.yul\":920:997   */\n      swap2\n      swap1\n      pop\n      jump\t// out\n        /* \"#utility.yul\":1003:1125   */\n    tag_34:\n        /* \"#utility.yul\":1076:1100   */\n      tag_72\n        /* \"#utility.yul\":1094:1099   */\n      dup2\n        /* \"#utility.yul\":1076:1100   */\n      tag_33\n      jump\t// in\n    tag_72:\n        /* \"#utility.yul\":1069:1074   */\n      dup2\n        /* \"#utility.yul\":1066:1101   */\n      eq\n        /* \"#utility.yul\":1056:1119   */\n      tag_73\n      jumpi\n        /* \"#utility.yul\":1115:1116   */\n      0x00\n        /* \"#utility.yul\":1112:1113   */\n      dup1\n        /* \"#utility.yul\":1105:1117   */\n      revert\n        /* \"#utility.yul\":1056:1119   */\n    tag_73:\n        /* \"#utility.yul\":1003:1125   */\n      pop\n      jump\t// out\n        /* \"#utility.yul\":1131:1270   */\n    tag_35:\n        /* \"#utility.yul\":1177:1182   */\n      0x00\n        /* \"#utility.yul\":1215:1221   */\n      dup2\n        /* \"#utility.yul\":1202:1222   */\n      calldataload\n        /* \"#utility.yul\":1193:1222   */\n      swap1\n      pop\n        /* \"#utility.yul\":1231:1264   */\n      tag_75\n        /* \"#utility.yul\":1258:1263   */\n      dup2\n        /* \"#utility.yul\":1231:1264   */\n      tag_34\n      jump\t// in\n    tag_75:\n        /* \"#utility.yul\":1131:1270   */\n      swap3\n      swap2\n      pop\n      pop\n      jump\t// out\n        /* \"#utility.yul\":1276:1393   */\n    tag_36:\n        /* \"#utility.yul\":1385:1386   */\n      0x00\n        /* \"#utility.yul\":1382:1383   */\n      dup1\n        /* \"#utility.yul\":1375:1387   */\n      revert\n        /* \"#utility.yul\":1399:1516   */\n    tag_37:\n        /* \"#utility.yul\":1508:1509   */\n      0x00\n        /* \"#utility.yul\":1505:1506   */\n      dup1\n        /* \"#utility.yul\":1498:1510   */\n      revert\n        /* \"#utility.yul\":1522:1624   */\n    tag_38:\n        /* \"#utility.yul\":1563:1569   */\n      0x00\n        /* \"#utility.yul\":1614:1616   */\n      0x1f\n        /* \"#utility.yul\":1610:1617   */\n      not\n        /* \"#utility.yul\":1605:1607   */\n      0x1f\n        /* \"#utility.yul\":1598:1603   */\n      dup4\n        /* \"#utility.yul\":1594:1608   */\n      add\n        /* \"#utility.yul\":1590:1618   */\n      and\n        /* \"#utility.yul\":1580:1618   */\n      swap1\n      pop\n        /* \"#utility.yul\":1522:1624   */\n      swap2\n      swap1\n      pop\n      jump\t// out\n        /* \"#utility.yul\":1630:1810   */\n    tag_39:\n        /* \"#utility.yul\":1678:1755   */\n      0x4e487b7100000000000000000000000000000000000000000000000000000000\n        /* \"#utility.yul\":1675:1676   */\n      0x00\n        /* \"#utility.yul\":1668:1756   */\n      mstore\n        /* \"#utility.yul\":1775:1779   */\n      0x41\n        /* \"#utility.yul\":1772:1773   */\n      0x04\n        /* \"#utility.yul\":1765:1780   */\n      mstore\n        /* \"#utility.yul\":1799:1803   */\n      0x24\n        /* \"#utility.yul\":1796:1797   */\n      0x00\n        /* \"#utility.yul\":1789:1804   */\n      revert\n        /* \"#utility.yul\":1816:2097   */\n    tag_40:\n        /* \"#utility.yul\":1899:1926   */\n      tag_81\n        /* \"#utility.yul\":1921:1925   */\n      dup3\n        /* \"#utility.yul\":1899:1926   */\n      tag_38\n      jump\t// in\n    tag_81:\n        /* \"#utility.yul\":1891:1897   */\n      dup2\n        /* \"#utility.yul\":1887:1927   */\n      add\n        /* \"#utility.yul\":2029:2035   */\n      dup2\n        /* \"#utility.yul\":2017:2027   */\n      dup2\n        /* \"#utility.yul\":2014:2036   */\n      lt\n        /* \"#utility.yul\":1993:2011   */\n      0xffffffffffffffff\n        /* \"#utility.yul\":1981:1991   */\n      dup3\n        /* \"#utility.yul\":1978:2012   */\n      gt\n        /* \"#utility.yul\":1975:2037   */\n      or\n        /* \"#utility.yul\":1972:2060   */\n      iszero\n      tag_82\n      jumpi\n        /* \"#utility.yul\":2040:2058   */\n      tag_83\n      tag_39\n      jump\t// in\n    tag_83:\n        /* \"#utility.yul\":1972:2060   */\n    tag_82:\n        /* \"#utility.yul\":2080:2090   */\n      dup1\n        /* \"#utility.yul\":2076:2078   */\n      0x40\n        /* \"#utility.yul\":2069:2091   */\n      mstore\n        /* \"#utility.yul\":1859:2097   */\n      pop\n        /* \"#utility.yul\":1816:2097   */\n      pop\n      pop\n      jump\t// out\n        /* \"#utility.yul\":2103:2232   */\n    tag_41:\n        /* \"#utility.yul\":2137:2143   */\n      0x00\n        /* \"#utility.yul\":2164:2184   */\n      tag_85\n      tag_30\n      jump\t// in\n    tag_85:\n        /* \"#utility.yul\":2154:2184   */\n      swap1\n      pop\n        /* \"#utility.yul\":2193:2226   */\n      tag_86\n        /* \"#utility.yul\":2221:2225   */\n      dup3\n        /* \"#utility.yul\":2213:2219   */\n      dup3\n        /* \"#utility.yul\":2193:2226   */\n      tag_40\n      jump\t// in\n    tag_86:\n        /* \"#utility.yul\":2103:2232   */\n      swap2\n      swap1\n      pop\n      jump\t// out\n        /* \"#utility.yul\":2238:2546   */\n    tag_42:\n        /* \"#utility.yul\":2300:2304   */\n      0x00\n        /* \"#utility.yul\":2390:2408   */\n      0xffffffffffffffff\n        /* \"#utility.yul\":2382:2388   */\n      dup3\n        /* \"#utility.yul\":2379:2409   */\n      gt\n        /* \"#utility.yul\":2376:2432   */\n      iszero\n      tag_88\n      jumpi\n        /* \"#utility.yul\":2412:2430   */\n      tag_89\n      tag_39\n      jump\t// in\n    tag_89:\n        /* \"#utility.yul\":2376:2432   */\n    tag_88:\n        /* \"#utility.yul\":2450:2479   */\n      tag_90\n        /* \"#utility.yul\":2472:2478   */\n      dup3\n        /* \"#utility.yul\":2450:2479   */\n      tag_38\n      jump\t// in\n    tag_90:\n        /* \"#utility.yul\":2442:2479   */\n      swap1\n      pop\n        /* \"#utility.yul\":2534:2538   */\n      0x20\n        /* \"#utility.yul\":2528:2532   */\n      dup2\n        /* \"#utility.yul\":2524:2539   */\n      add\n        /* \"#utility.yul\":2516:2539   */\n      swap1\n      pop\n        /* \"#utility.yul\":2238:2546   */\n      swap2\n      swap1\n      pop\n      jump\t// out\n        /* \"#utility.yul\":2552:2700   */\n    tag_43:\n        /* \"#utility.yul\":2650:2656   */\n      dup3\n        /* \"#utility.yul\":2645:2648   */\n      dup2\n        /* \"#utility.yul\":2640:2643   */\n      dup4\n        /* \"#utility.yul\":2627:2657   */\n      calldatacopy\n        /* \"#utility.yul\":2691:2692   */\n      0x00\n        /* \"#utility.yul\":2682:2688   */\n      dup4\n        /* \"#utility.yul\":2677:2680   */\n      dup4\n        /* \"#utility.yul\":2673:2689   */\n      add\n        /* \"#utility.yul\":2666:2693   */\n      mstore\n        /* \"#utility.yul\":2552:2700   */\n      pop\n      pop\n      pop\n      jump\t// out\n        /* \"#utility.yul\":2706:3131   */\n    tag_44:\n        /* \"#utility.yul\":2784:2789   */\n      0x00\n        /* \"#utility.yul\":2809:2875   */\n      tag_93\n        /* \"#utility.yul\":2825:2874   */\n      tag_94\n        /* \"#utility.yul\":2867:2873   */\n      dup5\n        /* \"#utility.yul\":2825:2874   */\n      tag_42\n      jump\t// in\n    tag_94:\n        /* \"#utility.yul\":2809:2875   */\n      tag_41\n      jump\t// in\n    tag_93:\n        /* \"#utility.yul\":2800:2875   */\n      swap1\n      pop\n        /* \"#utility.yul\":2898:2904   */\n      dup3\n        /* \"#utility.yul\":2891:2896   */\n      dup2\n        /* \"#utility.yul\":2884:2905   */\n      mstore\n        /* \"#utility.yul\":2936:2940   */\n      0x20\n        /* \"#utility.yul\":2929:2934   */\n      dup2\n        /* \"#utility.yul\":2925:2941   */\n      add\n        /* \"#utility.yul\":2974:2977   */\n      dup5\n        /* \"#utility.yul\":2965:2971   */\n      dup5\n        /* \"#utility.yul\":2960:2963   */\n      dup5\n        /* \"#utility.yul\":2956:2972   */\n      add\n        /* \"#utility.yul\":2953:2978   */\n      gt\n        /* \"#utility.yul\":2950:3062   */\n      iszero\n      tag_95\n      jumpi\n        /* \"#utility.yul\":2981:3060   */\n      tag_96\n      tag_37\n      jump\t// in\n    tag_96:\n        /* \"#utility.yul\":2950:3062   */\n    tag_95:\n        /* \"#utility.yul\":3071:3125   */\n      tag_97\n        /* \"#utility.yul\":3118:3124   */\n      dup5\n        /* \"#utility.yul\":3113:3116   */\n      dup3\n        /* \"#utility.yul\":3108:3111   */\n      dup6\n        /* \"#utility.yul\":3071:3125   */\n      tag_43\n      jump\t// in\n    tag_97:\n        /* \"#utility.yul\":2790:3131   */\n      pop\n        /* \"#utility.yul\":2706:3131   */\n      swap4\n      swap3\n      pop\n      pop\n      pop\n      jump\t// out\n        /* \"#utility.yul\":3151:3491   */\n    tag_45:\n        /* \"#utility.yul\":3207:3212   */\n      0x00\n        /* \"#utility.yul\":3256:3259   */\n      dup3\n        /* \"#utility.yul\":3249:3253   */\n      0x1f\n        /* \"#utility.yul\":3241:3247   */\n      dup4\n        /* \"#utility.yul\":3237:3254   */\n      add\n        /* \"#utility.yul\":3233:3260   */\n      slt\n        /* \"#utility.yul\":3223:3345   */\n      tag_99\n      jumpi\n        /* \"#utility.yul\":3264:3343   */\n      tag_100\n      tag_36\n      jump\t// in\n    tag_100:\n        /* \"#utility.yul\":3223:3345   */\n    tag_99:\n        /* \"#utility.yul\":3381:3387   */\n      dup2\n        /* \"#utility.yul\":3368:3388   */\n      calldataload\n        /* \"#utility.yul\":3406:3485   */\n      tag_101\n        /* \"#utility.yul\":3481:3484   */\n      dup5\n        /* \"#utility.yul\":3473:3479   */\n      dup3\n        /* \"#utility.yul\":3466:3470   */\n      0x20\n        /* \"#utility.yul\":3458:3464   */\n      dup7\n        /* \"#utility.yul\":3454:3471   */\n      add\n        /* \"#utility.yul\":3406:3485   */\n      tag_44\n      jump\t// in\n    tag_101:\n        /* \"#utility.yul\":3397:3485   */\n      swap2\n      pop\n        /* \"#utility.yul\":3213:3491   */\n      pop\n        /* \"#utility.yul\":3151:3491   */\n      swap3\n      swap2\n      pop\n      pop\n      jump\t// out\n        /* \"#utility.yul\":3497:4151   */\n    tag_12:\n        /* \"#utility.yul\":3575:3581   */\n      0x00\n        /* \"#utility.yul\":3583:3589   */\n      dup1\n        /* \"#utility.yul\":3632:3634   */\n      0x40\n        /* \"#utility.yul\":3620:3629   */\n      dup4\n        /* \"#utility.yul\":3611:3618   */\n      dup6\n        /* \"#utility.yul\":3607:3630   */\n      sub\n        /* \"#utility.yul\":3603:3635   */\n      slt\n        /* \"#utility.yul\":3600:3719   */\n      iszero\n      tag_103\n      jumpi\n        /* \"#utility.yul\":3638:3717   */\n      tag_104\n      tag_31\n      jump\t// in\n    tag_104:\n        /* \"#utility.yul\":3600:3719   */\n    tag_103:\n        /* \"#utility.yul\":3758:3759   */\n      0x00\n        /* \"#utility.yul\":3783:3836   */\n      tag_105\n        /* \"#utility.yul\":3828:3835   */\n      dup6\n        /* \"#utility.yul\":3819:3825   */\n      dup3\n        /* \"#utility.yul\":3808:3817   */\n      dup7\n        /* \"#utility.yul\":3804:3826   */\n      add\n        /* \"#utility.yul\":3783:3836   */\n      tag_35\n      jump\t// in\n    tag_105:\n        /* \"#utility.yul\":3773:3836   */\n      swap3\n      pop\n        /* \"#utility.yul\":3729:3846   */\n      pop\n        /* \"#utility.yul\":3913:3915   */\n      0x20\n        /* \"#utility.yul\":3902:3911   */\n      dup4\n        /* \"#utility.yul\":3898:3916   */\n      add\n        /* \"#utility.yul\":3885:3917   */\n      calldataload\n        /* \"#utility.yul\":3944:3962   */\n      0xffffffffffffffff\n        /* \"#utility.yul\":3936:3942   */\n      dup2\n        /* \"#utility.yul\":3933:3963   */\n      gt\n        /* \"#utility.yul\":3930:4047   */\n      iszero\n      tag_106\n      jumpi\n        /* \"#utility.yul\":3966:4045   */\n      tag_107\n      tag_32\n      jump\t// in\n    tag_107:\n        /* \"#utility.yul\":3930:4047   */\n    tag_106:\n        /* \"#utility.yul\":4071:4134   */\n      tag_108\n        /* \"#utility.yul\":4126:4133   */\n      dup6\n        /* \"#utility.yul\":4117:4123   */\n      dup3\n        /* \"#utility.yul\":4106:4115   */\n      dup7\n        /* \"#utility.yul\":4102:4124   */\n      add\n        /* \"#utility.yul\":4071:4134   */\n      tag_45\n      jump\t// in\n    tag_108:\n        /* \"#utility.yul\":4061:4134   */\n      swap2\n      pop\n        /* \"#utility.yul\":3856:4144   */\n      pop\n        /* \"#utility.yul\":3497:4151   */\n      swap3\n      pop\n      swap3\n      swap1\n      pop\n      jump\t// out\n        /* \"#utility.yul\":4157:4217   */\n    tag_46:\n        /* \"#utility.yul\":4185:4188   */\n      0x00\n        /* \"#utility.yul\":4206:4211   */\n      dup2\n        /* \"#utility.yul\":4199:4211   */\n      swap1\n      pop\n        /* \"#utility.yul\":4157:4217   */\n      swap2\n      swap1\n      pop\n      jump\t// out\n        /* \"#utility.yul\":4223:4365   */\n    tag_47:\n        /* \"#utility.yul\":4273:4282   */\n      0x00\n        /* \"#utility.yul\":4306:4359   */\n      tag_111\n        /* \"#utility.yul\":4324:4358   */\n      tag_112\n        /* \"#utility.yul\":4333:4357   */\n      tag_113\n        /* \"#utility.yul\":4351:4356   */\n      dup5\n        /* \"#utility.yul\":4333:4357   */\n      tag_27\n      jump\t// in\n    tag_113:\n        /* \"#utility.yul\":4324:4358   */\n      tag_46\n      jump\t// in\n    tag_112:\n        /* \"#utility.yul\":4306:4359   */\n      tag_27\n      jump\t// in\n    tag_111:\n        /* \"#utility.yul\":4293:4359   */\n      swap1\n      pop\n        /* \"#utility.yul\":4223:4365   */\n      swap2\n      swap1\n      pop\n      jump\t// out\n        /* \"#utility.yul\":4371:4497   */\n    tag_48:\n        /* \"#utility.yul\":4421:4430   */\n      0x00\n        /* \"#utility.yul\":4454:4491   */\n      tag_115\n        /* \"#utility.yul\":4485:4490   */\n      dup3\n        /* \"#utility.yul\":4454:4491   */\n      tag_47\n      jump\t// in\n    tag_115:\n        /* \"#utility.yul\":4441:4491   */\n      swap1\n      pop\n        /* \"#utility.yul\":4371:4497   */\n      swap2\n      swap1\n      pop\n      jump\t// out\n        /* \"#utility.yul\":4503:4642   */\n    tag_49:\n        /* \"#utility.yul\":4566:4575   */\n      0x00\n        /* \"#utility.yul\":4599:4636   */\n      tag_117\n        /* \"#utility.yul\":4630:4635   */\n      dup3\n        /* \"#utility.yul\":4599:4636   */\n      tag_48\n      jump\t// in\n    tag_117:\n        /* \"#utility.yul\":4586:4636   */\n      swap1\n      pop\n        /* \"#utility.yul\":4503:4642   */\n      swap2\n      swap1\n      pop\n      jump\t// out\n        /* \"#utility.yul\":4648:4805   */\n    tag_50:\n        /* \"#utility.yul\":4748:4798   */\n      tag_119\n        /* \"#utility.yul\":4792:4797   */\n      dup2\n        /* \"#utility.yul\":4748:4798   */\n      tag_49\n      jump\t// in\n    tag_119:\n        /* \"#utility.yul\":4743:4746   */\n      dup3\n        /* \"#utility.yul\":4736:4799   */\n      mstore\n        /* \"#utility.yul\":4648:4805   */\n      pop\n      pop\n      jump\t// out\n        /* \"#utility.yul\":4811:5059   */\n    tag_17:\n        /* \"#utility.yul\":4917:4921   */\n      0x00\n        /* \"#utility.yul\":4955:4957   */\n      0x20\n        /* \"#utility.yul\":4944:4953   */\n      dup3\n        /* \"#utility.yul\":4940:4958   */\n      add\n        /* \"#utility.yul\":4932:4958   */\n      swap1\n      pop\n        /* \"#utility.yul\":4968:5052   */\n      tag_121\n        /* \"#utility.yul\":5049:5050   */\n      0x00\n        /* \"#utility.yul\":5038:5047   */\n      dup4\n        /* \"#utility.yul\":5034:5051   */\n      add\n        /* \"#utility.yul\":5025:5031   */\n      dup5\n        /* \"#utility.yul\":4968:5052   */\n      tag_50\n      jump\t// in\n    tag_121:\n        /* \"#utility.yul\":4811:5059   */\n      swap3\n      swap2\n      pop\n      pop\n      jump\t// out\n        /* \"#utility.yul\":5065:5183   */\n    tag_51:\n        /* \"#utility.yul\":5152:5176   */\n      tag_123\n        /* \"#utility.yul\":5170:5175   */\n      dup2\n        /* \"#utility.yul\":5152:5176   */\n      tag_33\n      jump\t// in\n    tag_123:\n        /* \"#utility.yul\":5147:5150   */\n      dup3\n        /* \"#utility.yul\":5140:5177   */\n      mstore\n        /* \"#utility.yul\":5065:5183   */\n      pop\n      pop\n      jump\t// out\n        /* \"#utility.yul\":5189:5631   */\n    tag_20:\n        /* \"#utility.yul\":5338:5342   */\n      0x00\n        /* \"#utility.yul\":5376:5378   */\n      0x60\n        /* \"#utility.yul\":5365:5374   */\n      dup3\n        /* \"#utility.yul\":5361:5379   */\n      add\n        /* \"#utility.yul\":5353:5379   */\n      swap1\n      pop\n        /* \"#utility.yul\":5389:5460   */\n      tag_125\n        /* \"#utility.yul\":5457:5458   */\n      0x00\n        /* \"#utility.yul\":5446:5455   */\n      dup4\n        /* \"#utility.yul\":5442:5459   */\n      add\n        /* \"#utility.yul\":5433:5439   */\n      dup7\n        /* \"#utility.yul\":5389:5460   */\n      tag_29\n      jump\t// in\n    tag_125:\n        /* \"#utility.yul\":5470:5542   */\n      tag_126\n        /* \"#utility.yul\":5538:5540   */\n      0x20\n        /* \"#utility.yul\":5527:5536   */\n      dup4\n        /* \"#utility.yul\":5523:5541   */\n      add\n        /* \"#utility.yul\":5514:5520   */\n      dup6\n        /* \"#utility.yul\":5470:5542   */\n      tag_29\n      jump\t// in\n    tag_126:\n        /* \"#utility.yul\":5552:5624   */\n      tag_127\n        /* \"#utility.yul\":5620:5622   */\n      0x40\n        /* \"#utility.yul\":5609:5618   */\n      dup4\n        /* \"#utility.yul\":5605:5623   */\n      add\n        /* \"#utility.yul\":5596:5602   */\n      dup5\n        /* \"#utility.yul\":5552:5624   */\n      tag_51\n      jump\t// in\n    tag_127:\n        /* \"#utility.yul\":5189:5631   */\n      swap5\n      swap4\n      pop\n      pop\n      pop\n      pop\n      jump\t// out\n        /* \"#utility.yul\":5637:5727   */\n    tag_52:\n        /* \"#utility.yul\":5671:5678   */\n      0x00\n        /* \"#utility.yul\":5714:5719   */\n      dup2\n        /* \"#utility.yul\":5707:5720   */\n      iszero\n        /* \"#utility.yul\":5700:5721   */\n      iszero\n        /* \"#utility.yul\":5689:5721   */\n      swap1\n      pop\n        /* \"#utility.yul\":5637:5727   */\n      swap2\n      swap1\n      pop\n      jump\t// out\n        /* \"#utility.yul\":5733:5849   */\n    tag_53:\n        /* \"#utility.yul\":5803:5824   */\n      tag_130\n        /* \"#utility.yul\":5818:5823   */\n      dup2\n        /* \"#utility.yul\":5803:5824   */\n      tag_52\n      jump\t// in\n    tag_130:\n        /* \"#utility.yul\":5796:5801   */\n      dup2\n        /* \"#utility.yul\":5793:5825   */\n      eq\n        /* \"#utility.yul\":5783:5843   */\n      tag_131\n      jumpi\n        /* \"#utility.yul\":5839:5840   */\n      0x00\n        /* \"#utility.yul\":5836:5837   */\n      dup1\n        /* \"#utility.yul\":5829:5841   */\n      revert\n        /* \"#utility.yul\":5783:5843   */\n    tag_131:\n        /* \"#utility.yul\":5733:5849   */\n      pop\n      jump\t// out\n        /* \"#utility.yul\":5855:5992   */\n    tag_54:\n        /* \"#utility.yul\":5909:5914   */\n      0x00\n        /* \"#utility.yul\":5940:5946   */\n      dup2\n        /* \"#utility.yul\":5934:5947   */\n      mload\n        /* \"#utility.yul\":5925:5947   */\n      swap1\n      pop\n        /* \"#utility.yul\":5956:5986   */\n      tag_133\n        /* \"#utility.yul\":5980:5985   */\n      dup2\n        /* \"#utility.yul\":5956:5986   */\n      tag_53\n      jump\t// in\n    tag_133:\n        /* \"#utility.yul\":5855:5992   */\n      swap3\n      swap2\n      pop\n      pop\n      jump\t// out\n        /* \"#utility.yul\":5998:6343   */\n    tag_24:\n        /* \"#utility.yul\":6065:6071   */\n      0x00\n        /* \"#utility.yul\":6114:6116   */\n      0x20\n        /* \"#utility.yul\":6102:6111   */\n      dup3\n        /* \"#utility.yul\":6093:6100   */\n      dup5\n        /* \"#utility.yul\":6089:6112   */\n      sub\n        /* \"#utility.yul\":6085:6117   */\n      slt\n        /* \"#utility.yul\":6082:6201   */\n      iszero\n      tag_135\n      jumpi\n        /* \"#utility.yul\":6120:6199   */\n      tag_136\n      tag_31\n      jump\t// in\n    tag_136:\n        /* \"#utility.yul\":6082:6201   */\n    tag_135:\n        /* \"#utility.yul\":6240:6241   */\n      0x00\n        /* \"#utility.yul\":6265:6326   */\n      tag_137\n        /* \"#utility.yul\":6318:6325   */\n      dup5\n        /* \"#utility.yul\":6309:6315   */\n      dup3\n        /* \"#utility.yul\":6298:6307   */\n      dup6\n        /* \"#utility.yul\":6294:6316   */\n      add\n        /* \"#utility.yul\":6265:6326   */\n      tag_54\n      jump\t// in\n    tag_137:\n        /* \"#utility.yul\":6255:6326   */\n      swap2\n      pop\n        /* \"#utility.yul\":6211:6336   */\n      pop\n        /* \"#utility.yul\":5998:6343   */\n      swap3\n      swap2\n      pop\n      pop\n      jump\t// out\n        /* \"#utility.yul\":6349:6448   */\n    tag_55:\n        /* \"#utility.yul\":6401:6407   */\n      0x00\n        /* \"#utility.yul\":6435:6440   */\n      dup2\n        /* \"#utility.yul\":6429:6441   */\n      mload\n        /* \"#utility.yul\":6419:6441   */\n      swap1\n      pop\n        /* \"#utility.yul\":6349:6448   */\n      swap2\n      swap1\n      pop\n      jump\t// out\n        /* \"#utility.yul\":6454:6623   */\n    tag_56:\n        /* \"#utility.yul\":6538:6549   */\n      0x00\n        /* \"#utility.yul\":6572:6578   */\n      dup3\n        /* \"#utility.yul\":6567:6570   */\n      dup3\n        /* \"#utility.yul\":6560:6579   */\n      mstore\n        /* \"#utility.yul\":6612:6616   */\n      0x20\n        /* \"#utility.yul\":6607:6610   */\n      dup3\n        /* \"#utility.yul\":6603:6617   */\n      add\n        /* \"#utility.yul\":6588:6617   */\n      swap1\n      pop\n        /* \"#utility.yul\":6454:6623   */\n      swap3\n      swap2\n      pop\n      pop\n      jump\t// out\n        /* \"#utility.yul\":6629:6768   */\n    tag_57:\n        /* \"#utility.yul\":6718:6724   */\n      dup3\n        /* \"#utility.yul\":6713:6716   */\n      dup2\n        /* \"#utility.yul\":6708:6711   */\n      dup4\n        /* \"#utility.yul\":6702:6725   */\n      mcopy\n        /* \"#utility.yul\":6759:6760   */\n      0x00\n        /* \"#utility.yul\":6750:6756   */\n      dup4\n        /* \"#utility.yul\":6745:6748   */\n      dup4\n        /* \"#utility.yul\":6741:6757   */\n      add\n        /* \"#utility.yul\":6734:6761   */\n      mstore\n        /* \"#utility.yul\":6629:6768   */\n      pop\n      pop\n      pop\n      jump\t// out\n        /* \"#utility.yul\":6774:7151   */\n    tag_58:\n        /* \"#utility.yul\":6862:6865   */\n      0x00\n        /* \"#utility.yul\":6890:6929   */\n      tag_142\n        /* \"#utility.yul\":6923:6928   */\n      dup3\n        /* \"#utility.yul\":6890:6929   */\n      tag_55\n      jump\t// in\n    tag_142:\n        /* \"#utility.yul\":6945:7016   */\n      tag_143\n        /* \"#utility.yul\":7009:7015   */\n      dup2\n        /* \"#utility.yul\":7004:7007   */\n      dup6\n        /* \"#utility.yul\":6945:7016   */\n      tag_56\n      jump\t// in\n    tag_143:\n        /* \"#utility.yul\":6938:7016   */\n      swap4\n      pop\n        /* \"#utility.yul\":7025:7090   */\n      tag_144\n        /* \"#utility.yul\":7083:7089   */\n      dup2\n        /* \"#utility.yul\":7078:7081   */\n      dup6\n        /* \"#utility.yul\":7071:7075   */\n      0x20\n        /* \"#utility.yul\":7064:7069   */\n      dup7\n        /* \"#utility.yul\":7060:7076   */\n      add\n        /* \"#utility.yul\":7025:7090   */\n      tag_57\n      jump\t// in\n    tag_144:\n        /* \"#utility.yul\":7115:7144   */\n      tag_145\n        /* \"#utility.yul\":7137:7143   */\n      dup2\n        /* \"#utility.yul\":7115:7144   */\n      tag_38\n      jump\t// in\n    tag_145:\n        /* \"#utility.yul\":7110:7113   */\n      dup5\n        /* \"#utility.yul\":7106:7145   */\n      add\n        /* \"#utility.yul\":7099:7145   */\n      swap2\n      pop\n        /* \"#utility.yul\":6866:7151   */\n      pop\n        /* \"#utility.yul\":6774:7151   */\n      swap3\n      swap2\n      pop\n      pop\n      jump\t// out\n        /* \"#utility.yul\":7157:7690   */\n    tag_26:\n        /* \"#utility.yul\":7326:7330   */\n      0x00\n        /* \"#utility.yul\":7364:7366   */\n      0x60\n        /* \"#utility.yul\":7353:7362   */\n      dup3\n        /* \"#utility.yul\":7349:7367   */\n      add\n        /* \"#utility.yul\":7341:7367   */\n      swap1\n      pop\n        /* \"#utility.yul\":7377:7448   */\n      tag_147\n        /* \"#utility.yul\":7445:7446   */\n      0x00\n        /* \"#utility.yul\":7434:7443   */\n      dup4\n        /* \"#utility.yul\":7430:7447   */\n      add\n        /* \"#utility.yul\":7421:7427   */\n      dup7\n        /* \"#utility.yul\":7377:7448   */\n      tag_29\n      jump\t// in\n    tag_147:\n        /* \"#utility.yul\":7458:7530   */\n      tag_148\n        /* \"#utility.yul\":7526:7528   */\n      0x20\n        /* \"#utility.yul\":7515:7524   */\n      dup4\n        /* \"#utility.yul\":7511:7529   */\n      add\n        /* \"#utility.yul\":7502:7508   */\n      dup6\n        /* \"#utility.yul\":7458:7530   */\n      tag_51\n      jump\t// in\n    tag_148:\n        /* \"#utility.yul\":7577:7586   */\n      dup2\n        /* \"#utility.yul\":7571:7575   */\n      dup2\n        /* \"#utility.yul\":7567:7587   */\n      sub\n        /* \"#utility.yul\":7562:7564   */\n      0x40\n        /* \"#utility.yul\":7551:7560   */\n      dup4\n        /* \"#utility.yul\":7547:7565   */\n      add\n        /* \"#utility.yul\":7540:7588   */\n      mstore\n        /* \"#utility.yul\":7605:7683   */\n      tag_149\n        /* \"#utility.yul\":7678:7682   */\n      dup2\n        /* \"#utility.yul\":7669:7675   */\n      dup5\n        /* \"#utility.yul\":7605:7683   */\n      tag_58\n      jump\t// in\n    tag_149:\n        /* \"#utility.yul\":7597:7683   */\n      swap1\n      pop\n        /* \"#utility.yul\":7157:7690   */\n      swap5\n      swap4\n      pop\n      pop\n      pop\n      pop\n      jump\t// out\n\n    auxdata: 0xa26469706673582212207d211141688579552f445c582da812c61a57923559cf69a37c1136b666f8facf64736f6c634300081a0033\n}\n",
				"bytecode": {
					"linkReferences": {},
					"object": "608060405234801561000f575f80fd5b5060405161073b38038061073b83398181016040528101906100319190610115565b815f806101000a81548173ffffffffffffffffffffffffffffffffffffffff021916908373ffffffffffffffffffffffffffffffffffffffff1602179055508060015f6101000a81548173ffffffffffffffffffffffffffffffffffffffff021916908373ffffffffffffffffffffffffffffffffffffffff1602179055505050610153565b5f80fd5b5f73ffffffffffffffffffffffffffffffffffffffff82169050919050565b5f6100e4826100bb565b9050919050565b6100f4816100da565b81146100fe575f80fd5b50565b5f8151905061010f816100eb565b92915050565b5f806040838503121561012b5761012a6100b7565b5b5f61013885828601610101565b925050602061014985828601610101565b9150509250929050565b6105db806101605f395ff3fe608060405234801561000f575f80fd5b506004361061003f575f3560e01c8063055e133c14610043578063384ffa6b14610061578063fc0c546a1461007d575b5f80fd5b61004b61009b565b60405161005891906101fe565b60405180910390f35b61007b60048036038101906100769190610397565b6100c0565b005b61008561019c565b604051610092919061044c565b60405180910390f35b60015f9054906101000a900473ffffffffffffffffffffffffffffffffffffffff1681565b5f8054906101000a900473ffffffffffffffffffffffffffffffffffffffff1673ffffffffffffffffffffffffffffffffffffffff166323b872dd3330856040518463ffffffff1660e01b815260040161011c93929190610474565b6020604051808303815f875af1158015610138573d5f803e3d5ffd5b505050506040513d601f19601f8201168201806040525081019061015c91906104de565b507ff7ef9982322b264396da3da83e58c5916e2b499765df22ec760ed26fb5a07add33838360405161019093929190610569565b60405180910390a15050565b5f8054906101000a900473ffffffffffffffffffffffffffffffffffffffff1681565b5f73ffffffffffffffffffffffffffffffffffffffff82169050919050565b5f6101e8826101bf565b9050919050565b6101f8816101de565b82525050565b5f6020820190506102115f8301846101ef565b92915050565b5f604051905090565b5f80fd5b5f80fd5b5f819050919050565b61023a81610228565b8114610244575f80fd5b50565b5f8135905061025581610231565b92915050565b5f80fd5b5f80fd5b5f601f19601f8301169050919050565b7f4e487b71000000000000000000000000000000000000000000000000000000005f52604160045260245ffd5b6102a982610263565b810181811067ffffffffffffffff821117156102c8576102c7610273565b5b80604052505050565b5f6102da610217565b90506102e682826102a0565b919050565b5f67ffffffffffffffff82111561030557610304610273565b5b61030e82610263565b9050602081019050919050565b828183375f83830152505050565b5f61033b610336846102eb565b6102d1565b9050828152602081018484840111156103575761035661025f565b5b61036284828561031b565b509392505050565b5f82601f83011261037e5761037d61025b565b5b813561038e848260208601610329565b91505092915050565b5f80604083850312156103ad576103ac610220565b5b5f6103ba85828601610247565b925050602083013567ffffffffffffffff8111156103db576103da610224565b5b6103e78582860161036a565b9150509250929050565b5f819050919050565b5f61041461040f61040a846101bf565b6103f1565b6101bf565b9050919050565b5f610425826103fa565b9050919050565b5f6104368261041b565b9050919050565b6104468161042c565b82525050565b5f60208201905061045f5f83018461043d565b92915050565b61046e81610228565b82525050565b5f6060820190506104875f8301866101ef565b61049460208301856101ef565b6104a16040830184610465565b949350505050565b5f8115159050919050565b6104bd816104a9565b81146104c7575f80fd5b50565b5f815190506104d8816104b4565b92915050565b5f602082840312156104f3576104f2610220565b5b5f610500848285016104ca565b91505092915050565b5f81519050919050565b5f82825260208201905092915050565b8281835e5f83830152505050565b5f61053b82610509565b6105458185610513565b9350610555818560208601610523565b61055e81610263565b840191505092915050565b5f60608201905061057c5f8301866101ef565b6105896020830185610465565b818103604083015261059b8184610531565b905094935050505056fea26469706673582212207d211141688579552f445c582da812c61a57923559cf69a37c1136b666f8facf64736f6c634300081a0033",
					"opcodes": "PUSH1 0x80 PUSH1 0x40 MSTORE CALLVALUE DUP1 ISZERO PUSH2 0xF JUMPI PUSH0 DUP1 REVERT JUMPDEST POP PUSH1 0x40 MLOAD PUSH2 0x73B CODESIZE SUB DUP1 PUSH2 0x73B DUP4 CODECOPY DUP2 DUP2 ADD PUSH1 0x40 MSTORE DUP2 ADD SWAP1 PUSH2 0x31 SWAP2 SWAP1 PUSH2 0x115 JUMP JUMPDEST DUP2 PUSH0 DUP1 PUSH2 0x100 EXP DUP2 SLOAD DUP2 PUSH20 0xFFFFFFFFFFFFFFFFFFFFFFFFFFFFFFFFFFFFFFFF MUL NOT AND SWAP1 DUP4 PUSH20 0xFFFFFFFFFFFFFFFFFFFFFFFFFFFFFFFFFFFFFFFF AND MUL OR SWAP1 SSTORE POP DUP1 PUSH1 0x1 PUSH0 PUSH2 0x100 EXP DUP2 SLOAD DUP2 PUSH20 0xFFFFFFFFFFFFFFFFFFFFFFFFFFFFFFFFFFFFFFFF MUL NOT AND SWAP1 DUP4 PUSH20 0xFFFFFFFFFFFFFFFFFFFFFFFFFFFFFFFFFFFFFFFF AND MUL OR SWAP1 SSTORE POP POP POP PUSH2 0x153 JUMP JUMPDEST PUSH0 DUP1 REVERT JUMPDEST PUSH0 PUSH20 0xFFFFFFFFFFFFFFFFFFFFFFFFFFFFFFFFFFFFFFFF DUP3 AND SWAP1 POP SWAP2 SWAP1 POP JUMP JUMPDEST PUSH0 PUSH2 0xE4 DUP3 PUSH2 0xBB JUMP JUMPDEST SWAP1 POP SWAP2 SWAP1 POP JUMP JUMPDEST PUSH2 0xF4 DUP2 PUSH2 0xDA JUMP JUMPDEST DUP2 EQ PUSH2 0xFE JUMPI PUSH0 DUP1 REVERT JUMPDEST POP JUMP JUMPDEST PUSH0 DUP2 MLOAD SWAP1 POP PUSH2 0x10F DUP2 PUSH2 0xEB JUMP JUMPDEST SWAP3 SWAP2 POP POP JUMP JUMPDEST PUSH0 DUP1 PUSH1 0x40 DUP4 DUP6 SUB SLT ISZERO PUSH2 0x12B JUMPI PUSH2 0x12A PUSH2 0xB7 JUMP JUMPDEST JUMPDEST PUSH0 PUSH2 0x138 DUP6 DUP3 DUP7 ADD PUSH2 0x101 JUMP JUMPDEST SWAP3 POP POP PUSH1 0x20 PUSH2 0x149 DUP6 DUP3 DUP7 ADD PUSH2 0x101 JUMP JUMPDEST SWAP2 POP POP SWAP3 POP SWAP3 SWAP1 POP JUMP JUMPDEST PUSH2 0x5DB DUP1 PUSH2 0x160 PUSH0 CODECOPY PUSH0 RETURN INVALID PUSH1 0x80 PUSH1 0x40 MSTORE CALLVALUE DUP1 ISZERO PUSH2 0xF JUMPI PUSH0 DUP1 REVERT JUMPDEST POP PUSH1 0x4 CALLDATASIZE LT PUSH2 0x3F JUMPI PUSH0 CALLDATALOAD PUSH1 0xE0 SHR DUP1 PUSH4 0x55E133C EQ PUSH2 0x43 JUMPI DUP1 PUSH4 0x384FFA6B EQ PUSH2 0x61 JUMPI DUP1 PUSH4 0xFC0C546A EQ PUSH2 0x7D JUMPI JUMPDEST PUSH0 DUP1 REVERT JUMPDEST PUSH2 0x4B PUSH2 0x9B JUMP JUMPDEST PUSH1 0x40 MLOAD PUSH2 0x58 SWAP2 SWAP1 PUSH2 0x1FE JUMP JUMPDEST PUSH1 0x40 MLOAD DUP1 SWAP2 SUB SWAP1 RETURN JUMPDEST PUSH2 0x7B PUSH1 0x4 DUP1 CALLDATASIZE SUB DUP2 ADD SWAP1 PUSH2 0x76 SWAP2 SWAP1 PUSH2 0x397 JUMP JUMPDEST PUSH2 0xC0 JUMP JUMPDEST STOP JUMPDEST PUSH2 0x85 PUSH2 0x19C JUMP JUMPDEST PUSH1 0x40 MLOAD PUSH2 0x92 SWAP2 SWAP1 PUSH2 0x44C JUMP JUMPDEST PUSH1 0x40 MLOAD DUP1 SWAP2 SUB SWAP1 RETURN JUMPDEST PUSH1 0x1 PUSH0 SWAP1 SLOAD SWAP1 PUSH2 0x100 EXP SWAP1 DIV PUSH20 0xFFFFFFFFFFFFFFFFFFFFFFFFFFFFFFFFFFFFFFFF AND DUP2 JUMP JUMPDEST PUSH0 DUP1 SLOAD SWAP1 PUSH2 0x100 EXP SWAP1 DIV PUSH20 0xFFFFFFFFFFFFFFFFFFFFFFFFFFFFFFFFFFFFFFFF AND PUSH20 0xFFFFFFFFFFFFFFFFFFFFFFFFFFFFFFFFFFFFFFFF AND PUSH4 0x23B872DD CALLER ADDRESS DUP6 PUSH1 0x40 MLOAD DUP5 PUSH4 0xFFFFFFFF AND PUSH1 0xE0 SHL DUP2 MSTORE PUSH1 0x4 ADD PUSH2 0x11C SWAP4 SWAP3 SWAP2 SWAP1 PUSH2 0x474 JUMP JUMPDEST PUSH1 0x20 PUSH1 0x40 MLOAD DUP1 DUP4 SUB DUP2 PUSH0 DUP8 GAS CALL ISZERO DUP1 ISZERO PUSH2 0x138 JUMPI RETURNDATASIZE PUSH0 DUP1 RETURNDATACOPY RETURNDATASIZE PUSH0 REVERT JUMPDEST POP POP POP POP PUSH1 0x40 MLOAD RETURNDATASIZE PUSH1 0x1F NOT PUSH1 0x1F DUP3 ADD AND DUP3 ADD DUP1 PUSH1 0x40 MSTORE POP DUP2 ADD SWAP1 PUSH2 0x15C SWAP2 SWAP1 PUSH2 0x4DE JUMP JUMPDEST POP PUSH32 0xF7EF9982322B264396DA3DA83E58C5916E2B499765DF22EC760ED26FB5A07ADD CALLER DUP4 DUP4 PUSH1 0x40 MLOAD PUSH2 0x190 SWAP4 SWAP3 SWAP2 SWAP1 PUSH2 0x569 JUMP JUMPDEST PUSH1 0x40 MLOAD DUP1 SWAP2 SUB SWAP1 LOG1 POP POP JUMP JUMPDEST PUSH0 DUP1 SLOAD SWAP1 PUSH2 0x100 EXP SWAP1 DIV PUSH20 0xFFFFFFFFFFFFFFFFFFFFFFFFFFFFFFFFFFFFFFFF AND DUP2 JUMP JUMPDEST PUSH0 PUSH20 0xFFFFFFFFFFFFFFFFFFFFFFFFFFFFFFFFFFFFFFFF DUP3 AND SWAP1 POP SWAP2 SWAP1 POP JUMP JUMPDEST PUSH0 PUSH2 0x1E8 DUP3 PUSH2 0x1BF JUMP JUMPDEST SWAP1 POP SWAP2 SWAP1 POP JUMP JUMPDEST PUSH2 0x1F8 DUP2 PUSH2 0x1DE JUMP JUMPDEST DUP3 MSTORE POP POP JUMP JUMPDEST PUSH0 PUSH1 0x20 DUP3 ADD SWAP1 POP PUSH2 0x211 PUSH0 DUP4 ADD DUP5 PUSH2 0x1EF JUMP JUMPDEST SWAP3 SWAP2 POP POP JUMP JUMPDEST PUSH0 PUSH1 0x40 MLOAD SWAP1 POP SWAP1 JUMP JUMPDEST PUSH0 DUP1 REVERT JUMPDEST PUSH0 DUP1 REVERT JUMPDEST PUSH0 DUP2 SWAP1 POP SWAP2 SWAP1 POP JUMP JUMPDEST PUSH2 0x23A DUP2 PUSH2 0x228 JUMP JUMPDEST DUP2 EQ PUSH2 0x244 JUMPI PUSH0 DUP1 REVERT JUMPDEST POP JUMP JUMPDEST PUSH0 DUP2 CALLDATALOAD SWAP1 POP PUSH2 0x255 DUP2 PUSH2 0x231 JUMP JUMPDEST SWAP3 SWAP2 POP POP JUMP JUMPDEST PUSH0 DUP1 REVERT JUMPDEST PUSH0 DUP1 REVERT JUMPDEST PUSH0 PUSH1 0x1F NOT PUSH1 0x1F DUP4 ADD AND SWAP1 POP SWAP2 SWAP1 POP JUMP JUMPDEST PUSH32 0x4E487B7100000000000000000000000000000000000000000000000000000000 PUSH0 MSTORE PUSH1 0x41 PUSH1 0x4 MSTORE PUSH1 0x24 PUSH0 REVERT JUMPDEST PUSH2 0x2A9 DUP3 PUSH2 0x263 JUMP JUMPDEST DUP2 ADD DUP2 DUP2 LT PUSH8 0xFFFFFFFFFFFFFFFF DUP3 GT OR ISZERO PUSH2 0x2C8 JUMPI PUSH2 0x2C7 PUSH2 0x273 JUMP JUMPDEST JUMPDEST DUP1 PUSH1 0x40 MSTORE POP POP POP JUMP JUMPDEST PUSH0 PUSH2 0x2DA PUSH2 0x217 JUMP JUMPDEST SWAP1 POP PUSH2 0x2E6 DUP3 DUP3 PUSH2 0x2A0 JUMP JUMPDEST SWAP2 SWAP1 POP JUMP JUMPDEST PUSH0 PUSH8 0xFFFFFFFFFFFFFFFF DUP3 GT ISZERO PUSH2 0x305 JUMPI PUSH2 0x304 PUSH2 0x273 JUMP JUMPDEST JUMPDEST PUSH2 0x30E DUP3 PUSH2 0x263 JUMP JUMPDEST SWAP1 POP PUSH1 0x20 DUP2 ADD SWAP1 POP SWAP2 SWAP1 POP JUMP JUMPDEST DUP3 DUP2 DUP4 CALLDATACOPY PUSH0 DUP4 DUP4 ADD MSTORE POP POP POP JUMP JUMPDEST PUSH0 PUSH2 0x33B PUSH2 0x336 DUP5 PUSH2 0x2EB JUMP JUMPDEST PUSH2 0x2D1 JUMP JUMPDEST SWAP1 POP DUP3 DUP2 MSTORE PUSH1 0x20 DUP2 ADD DUP5 DUP5 DUP5 ADD GT ISZERO PUSH2 0x357 JUMPI PUSH2 0x356 PUSH2 0x25F JUMP JUMPDEST JUMPDEST PUSH2 0x362 DUP5 DUP3 DUP6 PUSH2 0x31B JUMP JUMPDEST POP SWAP4 SWAP3 POP POP POP JUMP JUMPDEST PUSH0 DUP3 PUSH1 0x1F DUP4 ADD SLT PUSH2 0x37E JUMPI PUSH2 0x37D PUSH2 0x25B JUMP JUMPDEST JUMPDEST DUP2 CALLDATALOAD PUSH2 0x38E DUP5 DUP3 PUSH1 0x20 DUP7 ADD PUSH2 0x329 JUMP JUMPDEST SWAP2 POP POP SWAP3 SWAP2 POP POP JUMP JUMPDEST PUSH0 DUP1 PUSH1 0x40 DUP4 DUP6 SUB SLT ISZERO PUSH2 0x3AD JUMPI PUSH2 0x3AC PUSH2 0x220 JUMP JUMPDEST JUMPDEST PUSH0 PUSH2 0x3BA DUP6 DUP3 DUP7 ADD PUSH2 0x247 JUMP JUMPDEST SWAP3 POP POP PUSH1 0x20 DUP4 ADD CALLDATALOAD PUSH8 0xFFFFFFFFFFFFFFFF DUP2 GT ISZERO PUSH2 0x3DB JUMPI PUSH2 0x3DA PUSH2 0x224 JUMP JUMPDEST JUMPDEST PUSH2 0x3E7 DUP6 DUP3 DUP7 ADD PUSH2 0x36A JUMP JUMPDEST SWAP2 POP POP SWAP3 POP SWAP3 SWAP1 POP JUMP JUMPDEST PUSH0 DUP2 SWAP1 POP SWAP2 SWAP1 POP JUMP JUMPDEST PUSH0 PUSH2 0x414 PUSH2 0x40F PUSH2 0x40A DUP5 PUSH2 0x1BF JUMP JUMPDEST PUSH2 0x3F1 JUMP JUMPDEST PUSH2 0x1BF JUMP JUMPDEST SWAP1 POP SWAP2 SWAP1 POP JUMP JUMPDEST PUSH0 PUSH2 0x425 DUP3 PUSH2 0x3FA JUMP JUMPDEST SWAP1 POP SWAP2 SWAP1 POP JUMP JUMPDEST PUSH0 PUSH2 0x436 DUP3 PUSH2 0x41B JUMP JUMPDEST SWAP1 POP SWAP2 SWAP1 POP JUMP JUMPDEST PUSH2 0x446 DUP2 PUSH2 0x42C JUMP JUMPDEST DUP3 MSTORE POP POP JUMP JUMPDEST PUSH0 PUSH1 0x20 DUP3 ADD SWAP1 POP PUSH2 0x45F PUSH0 DUP4 ADD DUP5 PUSH2 0x43D JUMP JUMPDEST SWAP3 SWAP2 POP POP JUMP JUMPDEST PUSH2 0x46E DUP2 PUSH2 0x228 JUMP JUMPDEST DUP3 MSTORE POP POP JUMP JUMPDEST PUSH0 PUSH1 0x60 DUP3 ADD SWAP1 POP PUSH2 0x487 PUSH0 DUP4 ADD DUP7 PUSH2 0x1EF JUMP JUMPDEST PUSH2 0x494 PUSH1 0x20 DUP4 ADD DUP6 PUSH2 0x1EF JUMP JUMPDEST PUSH2 0x4A1 PUSH1 0x40 DUP4 ADD DUP5 PUSH2 0x465 JUMP JUMPDEST SWAP5 SWAP4 POP POP POP POP JUMP JUMPDEST PUSH0 DUP2 ISZERO ISZERO SWAP1 POP SWAP2 SWAP1 POP JUMP JUMPDEST PUSH2 0x4BD DUP2 PUSH2 0x4A9 JUMP JUMPDEST DUP2 EQ PUSH2 0x4C7 JUMPI PUSH0 DUP1 REVERT JUMPDEST POP JUMP JUMPDEST PUSH0 DUP2 MLOAD SWAP1 POP PUSH2 0x4D8 DUP2 PUSH2 0x4B4 JUMP JUMPDEST SWAP3 SWAP2 POP POP JUMP JUMPDEST PUSH0 PUSH1 0x20 DUP3 DUP5 SUB SLT ISZERO PUSH2 0x4F3 JUMPI PUSH2 0x4F2 PUSH2 0x220 JUMP JUMPDEST JUMPDEST PUSH0 PUSH2 0x500 DUP5 DUP3 DUP6 ADD PUSH2 0x4CA JUMP JUMPDEST SWAP2 POP POP SWAP3 SWAP2 POP POP JUMP JUMPDEST PUSH0 DUP2 MLOAD SWAP1 POP SWAP2 SWAP1 POP JUMP JUMPDEST PUSH0 DUP3 DUP3 MSTORE PUSH1 0x20 DUP3 ADD SWAP1 POP SWAP3 SWAP2 POP POP JUMP JUMPDEST DUP3 DUP2 DUP4 MCOPY PUSH0 DUP4 DUP4 ADD MSTORE POP POP POP JUMP JUMPDEST PUSH0 PUSH2 0x53B DUP3 PUSH2 0x509 JUMP JUMPDEST PUSH2 0x545 DUP2 DUP6 PUSH2 0x513 JUMP JUMPDEST SWAP4 POP PUSH2 0x555 DUP2 DUP6 PUSH1 0x20 DUP7 ADD PUSH2 0x523 JUMP JUMPDEST PUSH2 0x55E DUP2 PUSH2 0x263 JUMP JUMPDEST DUP5 ADD SWAP2 POP POP SWAP3 SWAP2 POP POP JUMP JUMPDEST PUSH0 PUSH1 0x60 DUP3 ADD SWAP1 POP PUSH2 0x57C PUSH0 DUP4 ADD DUP7 PUSH2 0x1EF JUMP JUMPDEST PUSH2 0x589 PUSH1 0x20 DUP4 ADD DUP6 PUSH2 0x465 JUMP JUMPDEST DUP2 DUP2 SUB PUSH1 0x40 DUP4 ADD MSTORE PUSH2 0x59B DUP2 DUP5 PUSH2 0x531 JUMP JUMPDEST SWAP1 POP SWAP5 SWAP4 POP POP POP POP JUMP INVALID LOG2 PUSH5 0x6970667358 0x22 SLT KECCAK256 PUSH30 0x211141688579552F445C582DA812C61A57923559CF69A37C1136B666F8FA 0xCF PUSH5 0x736F6C6343 STOP ADDMOD BYTE STOP CALLER "
				},
				"gasEstimates": {
					"creation": {
						"codeDepositCost": "299800",
						"executionCost": "infinite",
						"totalCost": "infinite"
					},
					"external": {
						"remoteL1Receiver()": "2486",
						"token()": "infinite",
						"tunnelTokens(uint256,string)": "infinite"
					}
				},
				"methodIdentifiers": {
					"remoteL1Receiver()": "055e133c",
					"token()": "fc0c546a",
					"tunnelTokens(uint256,string)": "384ffa6b"
				}
			},
			"storageLayout": {
				"storage": [
					{
						"astId": 16,
						"contract": "L/Layer 2 Tunneling Protocol (L2TP)/Tunneled Token Transfer (Escrowed L2TP Tunnel).sol:L2TokenTunnel",
						"label": "token",
						"offset": 0,
						"slot": "0",
						"type": "t_contract(IERC20)13"
					},
					{
						"astId": 18,
						"contract": "L/Layer 2 Tunneling Protocol (L2TP)/Tunneled Token Transfer (Escrowed L2TP Tunnel).sol:L2TokenTunnel",
						"label": "remoteL1Receiver",
						"offset": 0,
						"slot": "1",
						"type": "t_address"
					}
				],
				"types": {
					"t_address": {
						"encoding": "inplace",
						"label": "address",
						"numberOfBytes": "20"
					},
					"t_contract(IERC20)13": {
						"encoding": "inplace",
						"label": "contract IERC20",
						"numberOfBytes": "20"
					}
				}
			},
			"userdoc": {
				"kind": "user",
				"methods": {},
				"version": 1
			}
		}
	}
}