{
	"P/Pharming/Pharming.sol": {
		"MetadataIntegrity": {
			"abi": [
				{
					"inputs": [
						{
							"internalType": "uint256",
							"name": "",
							"type": "uint256"
						}
					],
					"name": "metaHash",
					"outputs": [
						{
							"internalType": "bytes32",
							"name": "",
							"type": "bytes32"
						}
					],
					"stateMutability": "view",
					"type": "function"
				},
				{
					"inputs": [
						{
							"internalType": "uint256",
							"name": "tokenId",
							"type": "uint256"
						},
						{
							"internalType": "string",
							"name": "uri",
							"type": "string"
						}
					],
					"name": "storeHash",
					"outputs": [],
					"stateMutability": "nonpayable",
					"type": "function"
				},
				{
					"inputs": [
						{
							"internalType": "uint256",
							"name": "id",
							"type": "uint256"
						},
						{
							"internalType": "string",
							"name": "uri",
							"type": "string"
						}
					],
					"name": "validate",
					"outputs": [
						{
							"internalType": "bool",
							"name": "",
							"type": "bool"
						}
					],
					"stateMutability": "view",
					"type": "function"
				}
			],
			"devdoc": {
				"kind": "dev",
				"methods": {},
				"version": 1
			},
			"evm": {
				"assembly": "    /* \"P/Pharming/Pharming.sol\":3557:3913  contract MetadataIntegrity {... */\n  mstore(0x40, 0x80)\n  callvalue\n  dup1\n  iszero\n  tag_1\n  jumpi\n  0x00\n  dup1\n  revert\ntag_1:\n  pop\n  dataSize(sub_0)\n  dup1\n  dataOffset(sub_0)\n  0x00\n  codecopy\n  0x00\n  return\nstop\n\nsub_0: assembly {\n        /* \"P/Pharming/Pharming.sol\":3557:3913  contract MetadataIntegrity {... */\n      mstore(0x40, 0x80)\n      callvalue\n      dup1\n      iszero\n      tag_1\n      jumpi\n      0x00\n      dup1\n      revert\n    tag_1:\n      pop\n      jumpi(tag_2, lt(calldatasize, 0x04))\n      shr(0xe0, calldataload(0x00))\n      dup1\n      0x649bcbd0\n      eq\n      tag_3\n      jumpi\n      dup1\n      0x8c11c9cd\n      eq\n      tag_4\n      jumpi\n      dup1\n      0x9b6bd89c\n      eq\n      tag_5\n      jumpi\n    tag_2:\n      0x00\n      dup1\n      revert\n        /* \"P/Pharming/Pharming.sol\":3590:3633  mapping(uint256 => bytes32) public metaHash */\n    tag_3:\n      tag_6\n      0x04\n      dup1\n      calldatasize\n      sub\n      dup2\n      add\n      swap1\n      tag_7\n      swap2\n      swap1\n      tag_8\n      jump\t// in\n    tag_7:\n      tag_9\n      jump\t// in\n    tag_6:\n      mload(0x40)\n      tag_10\n      swap2\n      swap1\n      tag_11\n      jump\t// in\n    tag_10:\n      mload(0x40)\n      dup1\n      swap2\n      sub\n      swap1\n      return\n        /* \"P/Pharming/Pharming.sol\":3770:3911  function validate(uint256 id, string calldata uri) external view returns (bool) {... */\n    tag_4:\n      tag_12\n      0x04\n      dup1\n      calldatasize\n      sub\n      dup2\n      add\n      swap1\n      tag_13\n      swap2\n      swap1\n      tag_14\n      jump\t// in\n    tag_13:\n      tag_15\n      jump\t// in\n    tag_12:\n      mload(0x40)\n      tag_16\n      swap2\n      swap1\n      tag_17\n      jump\t// in\n    tag_16:\n      mload(0x40)\n      dup1\n      swap2\n      sub\n      swap1\n      return\n        /* \"P/Pharming/Pharming.sol\":3640:3764  function storeHash(uint256 tokenId, string calldata uri) external {... */\n    tag_5:\n      tag_18\n      0x04\n      dup1\n      calldatasize\n      sub\n      dup2\n      add\n      swap1\n      tag_19\n      swap2\n      swap1\n      tag_14\n      jump\t// in\n    tag_19:\n      tag_20\n      jump\t// in\n    tag_18:\n      stop\n        /* \"P/Pharming/Pharming.sol\":3590:3633  mapping(uint256 => bytes32) public metaHash */\n    tag_9:\n      mstore(0x20, 0x00)\n      dup1\n      0x00\n      mstore\n      keccak256(0x00, 0x40)\n      0x00\n      swap2\n      pop\n      swap1\n      pop\n      sload\n      dup2\n      jump\t// out\n        /* \"P/Pharming/Pharming.sol\":3770:3911  function validate(uint256 id, string calldata uri) external view returns (bool) {... */\n    tag_15:\n        /* \"P/Pharming/Pharming.sol\":3844:3848  bool */\n      0x00\n        /* \"P/Pharming/Pharming.sol\":3892:3900  metaHash */\n      dup1\n        /* \"P/Pharming/Pharming.sol\":3892:3904  metaHash[id] */\n      0x00\n        /* \"P/Pharming/Pharming.sol\":3901:3903  id */\n      dup6\n        /* \"P/Pharming/Pharming.sol\":3892:3904  metaHash[id] */\n      dup2\n      mstore\n      0x20\n      add\n      swap1\n      dup2\n      mstore\n      0x20\n      add\n      0x00\n      keccak256\n      sload\n        /* \"P/Pharming/Pharming.sol\":3883:3886  uri */\n      dup4\n      dup4\n        /* \"P/Pharming/Pharming.sol\":3867:3888  keccak256(bytes(uri)) */\n      mload(0x40)\n      tag_22\n      swap3\n      swap2\n      swap1\n      tag_23\n      jump\t// in\n    tag_22:\n      mload(0x40)\n      dup1\n      swap2\n      sub\n      swap1\n      keccak256\n        /* \"P/Pharming/Pharming.sol\":3867:3904  keccak256(bytes(uri)) == metaHash[id] */\n      eq\n        /* \"P/Pharming/Pharming.sol\":3860:3904  return keccak256(bytes(uri)) == metaHash[id] */\n      swap1\n      pop\n        /* \"P/Pharming/Pharming.sol\":3770:3911  function validate(uint256 id, string calldata uri) external view returns (bool) {... */\n      swap4\n      swap3\n      pop\n      pop\n      pop\n      jump\t// out\n        /* \"P/Pharming/Pharming.sol\":3640:3764  function storeHash(uint256 tokenId, string calldata uri) external {... */\n    tag_20:\n        /* \"P/Pharming/Pharming.sol\":3752:3755  uri */\n      dup2\n      dup2\n        /* \"P/Pharming/Pharming.sol\":3736:3757  keccak256(bytes(uri)) */\n      mload(0x40)\n      tag_25\n      swap3\n      swap2\n      swap1\n      tag_23\n      jump\t// in\n    tag_25:\n      mload(0x40)\n      dup1\n      swap2\n      sub\n      swap1\n      keccak256\n        /* \"P/Pharming/Pharming.sol\":3716:3724  metaHash */\n      0x00\n        /* \"P/Pharming/Pharming.sol\":3716:3733  metaHash[tokenId] */\n      dup1\n        /* \"P/Pharming/Pharming.sol\":3725:3732  tokenId */\n      dup6\n        /* \"P/Pharming/Pharming.sol\":3716:3733  metaHash[tokenId] */\n      dup2\n      mstore\n      0x20\n      add\n      swap1\n      dup2\n      mstore\n      0x20\n      add\n      0x00\n      keccak256\n        /* \"P/Pharming/Pharming.sol\":3716:3757  metaHash[tokenId] = keccak256(bytes(uri)) */\n      dup2\n      swap1\n      sstore\n      pop\n        /* \"P/Pharming/Pharming.sol\":3640:3764  function storeHash(uint256 tokenId, string calldata uri) external {... */\n      pop\n      pop\n      pop\n      jump\t// out\n        /* \"#utility.yul\":88:205   */\n    tag_27:\n        /* \"#utility.yul\":197:198   */\n      0x00\n        /* \"#utility.yul\":194:195   */\n      dup1\n        /* \"#utility.yul\":187:199   */\n      revert\n        /* \"#utility.yul\":211:328   */\n    tag_28:\n        /* \"#utility.yul\":320:321   */\n      0x00\n        /* \"#utility.yul\":317:318   */\n      dup1\n        /* \"#utility.yul\":310:322   */\n      revert\n        /* \"#utility.yul\":334:411   */\n    tag_29:\n        /* \"#utility.yul\":371:378   */\n      0x00\n        /* \"#utility.yul\":400:405   */\n      dup2\n        /* \"#utility.yul\":389:405   */\n      swap1\n      pop\n        /* \"#utility.yul\":334:411   */\n      swap2\n      swap1\n      pop\n      jump\t// out\n        /* \"#utility.yul\":417:539   */\n    tag_30:\n        /* \"#utility.yul\":490:514   */\n      tag_49\n        /* \"#utility.yul\":508:513   */\n      dup2\n        /* \"#utility.yul\":490:514   */\n      tag_29\n      jump\t// in\n    tag_49:\n        /* \"#utility.yul\":483:488   */\n      dup2\n        /* \"#utility.yul\":480:515   */\n      eq\n        /* \"#utility.yul\":470:533   */\n      tag_50\n      jumpi\n        /* \"#utility.yul\":529:530   */\n      0x00\n        /* \"#utility.yul\":526:527   */\n      dup1\n        /* \"#utility.yul\":519:531   */\n      revert\n        /* \"#utility.yul\":470:533   */\n    tag_50:\n        /* \"#utility.yul\":417:539   */\n      pop\n      jump\t// out\n        /* \"#utility.yul\":545:684   */\n    tag_31:\n        /* \"#utility.yul\":591:596   */\n      0x00\n        /* \"#utility.yul\":629:635   */\n      dup2\n        /* \"#utility.yul\":616:636   */\n      calldataload\n        /* \"#utility.yul\":607:636   */\n      swap1\n      pop\n        /* \"#utility.yul\":645:678   */\n      tag_52\n        /* \"#utility.yul\":672:677   */\n      dup2\n        /* \"#utility.yul\":645:678   */\n      tag_30\n      jump\t// in\n    tag_52:\n        /* \"#utility.yul\":545:684   */\n      swap3\n      swap2\n      pop\n      pop\n      jump\t// out\n        /* \"#utility.yul\":690:1019   */\n    tag_8:\n        /* \"#utility.yul\":749:755   */\n      0x00\n        /* \"#utility.yul\":798:800   */\n      0x20\n        /* \"#utility.yul\":786:795   */\n      dup3\n        /* \"#utility.yul\":777:784   */\n      dup5\n        /* \"#utility.yul\":773:796   */\n      sub\n        /* \"#utility.yul\":769:801   */\n      slt\n        /* \"#utility.yul\":766:885   */\n      iszero\n      tag_54\n      jumpi\n        /* \"#utility.yul\":804:883   */\n      tag_55\n      tag_27\n      jump\t// in\n    tag_55:\n        /* \"#utility.yul\":766:885   */\n    tag_54:\n        /* \"#utility.yul\":924:925   */\n      0x00\n        /* \"#utility.yul\":949:1002   */\n      tag_56\n        /* \"#utility.yul\":994:1001   */\n      dup5\n        /* \"#utility.yul\":985:991   */\n      dup3\n        /* \"#utility.yul\":974:983   */\n      dup6\n        /* \"#utility.yul\":970:992   */\n      add\n        /* \"#utility.yul\":949:1002   */\n      tag_31\n      jump\t// in\n    tag_56:\n        /* \"#utility.yul\":939:1002   */\n      swap2\n      pop\n        /* \"#utility.yul\":895:1012   */\n      pop\n        /* \"#utility.yul\":690:1019   */\n      swap3\n      swap2\n      pop\n      pop\n      jump\t// out\n        /* \"#utility.yul\":1025:1102   */\n    tag_32:\n        /* \"#utility.yul\":1062:1069   */\n      0x00\n        /* \"#utility.yul\":1091:1096   */\n      dup2\n        /* \"#utility.yul\":1080:1096   */\n      swap1\n      pop\n        /* \"#utility.yul\":1025:1102   */\n      swap2\n      swap1\n      pop\n      jump\t// out\n        /* \"#utility.yul\":1108:1226   */\n    tag_33:\n        /* \"#utility.yul\":1195:1219   */\n      tag_59\n        /* \"#utility.yul\":1213:1218   */\n      dup2\n        /* \"#utility.yul\":1195:1219   */\n      tag_32\n      jump\t// in\n    tag_59:\n        /* \"#utility.yul\":1190:1193   */\n      dup3\n        /* \"#utility.yul\":1183:1220   */\n      mstore\n        /* \"#utility.yul\":1108:1226   */\n      pop\n      pop\n      jump\t// out\n        /* \"#utility.yul\":1232:1454   */\n    tag_11:\n        /* \"#utility.yul\":1325:1329   */\n      0x00\n        /* \"#utility.yul\":1363:1365   */\n      0x20\n        /* \"#utility.yul\":1352:1361   */\n      dup3\n        /* \"#utility.yul\":1348:1366   */\n      add\n        /* \"#utility.yul\":1340:1366   */\n      swap1\n      pop\n        /* \"#utility.yul\":1376:1447   */\n      tag_61\n        /* \"#utility.yul\":1444:1445   */\n      0x00\n        /* \"#utility.yul\":1433:1442   */\n      dup4\n        /* \"#utility.yul\":1429:1446   */\n      add\n        /* \"#utility.yul\":1420:1426   */\n      dup5\n        /* \"#utility.yul\":1376:1447   */\n      tag_33\n      jump\t// in\n    tag_61:\n        /* \"#utility.yul\":1232:1454   */\n      swap3\n      swap2\n      pop\n      pop\n      jump\t// out\n        /* \"#utility.yul\":1460:1577   */\n    tag_34:\n        /* \"#utility.yul\":1569:1570   */\n      0x00\n        /* \"#utility.yul\":1566:1567   */\n      dup1\n        /* \"#utility.yul\":1559:1571   */\n      revert\n        /* \"#utility.yul\":1583:1700   */\n    tag_35:\n        /* \"#utility.yul\":1692:1693   */\n      0x00\n        /* \"#utility.yul\":1689:1690   */\n      dup1\n        /* \"#utility.yul\":1682:1694   */\n      revert\n        /* \"#utility.yul\":1706:1823   */\n    tag_36:\n        /* \"#utility.yul\":1815:1816   */\n      0x00\n        /* \"#utility.yul\":1812:1813   */\n      dup1\n        /* \"#utility.yul\":1805:1817   */\n      revert\n        /* \"#utility.yul\":1843:2396   */\n    tag_37:\n        /* \"#utility.yul\":1901:1909   */\n      0x00\n        /* \"#utility.yul\":1911:1917   */\n      dup1\n        /* \"#utility.yul\":1961:1964   */\n      dup4\n        /* \"#utility.yul\":1954:1958   */\n      0x1f\n        /* \"#utility.yul\":1946:1952   */\n      dup5\n        /* \"#utility.yul\":1942:1959   */\n      add\n        /* \"#utility.yul\":1938:1965   */\n      slt\n        /* \"#utility.yul\":1928:2050   */\n      tag_66\n      jumpi\n        /* \"#utility.yul\":1969:2048   */\n      tag_67\n      tag_34\n      jump\t// in\n    tag_67:\n        /* \"#utility.yul\":1928:2050   */\n    tag_66:\n        /* \"#utility.yul\":2082:2088   */\n      dup3\n        /* \"#utility.yul\":2069:2089   */\n      calldataload\n        /* \"#utility.yul\":2059:2089   */\n      swap1\n      pop\n        /* \"#utility.yul\":2112:2130   */\n      0xffffffffffffffff\n        /* \"#utility.yul\":2104:2110   */\n      dup2\n        /* \"#utility.yul\":2101:2131   */\n      gt\n        /* \"#utility.yul\":2098:2215   */\n      iszero\n      tag_68\n      jumpi\n        /* \"#utility.yul\":2134:2213   */\n      tag_69\n      tag_35\n      jump\t// in\n    tag_69:\n        /* \"#utility.yul\":2098:2215   */\n    tag_68:\n        /* \"#utility.yul\":2248:2252   */\n      0x20\n        /* \"#utility.yul\":2240:2246   */\n      dup4\n        /* \"#utility.yul\":2236:2253   */\n      add\n        /* \"#utility.yul\":2224:2253   */\n      swap2\n      pop\n        /* \"#utility.yul\":2302:2305   */\n      dup4\n        /* \"#utility.yul\":2294:2298   */\n      0x01\n        /* \"#utility.yul\":2286:2292   */\n      dup3\n        /* \"#utility.yul\":2282:2299   */\n      mul\n        /* \"#utility.yul\":2272:2280   */\n      dup4\n        /* \"#utility.yul\":2268:2300   */\n      add\n        /* \"#utility.yul\":2265:2306   */\n      gt\n        /* \"#utility.yul\":2262:2390   */\n      iszero\n      tag_70\n      jumpi\n        /* \"#utility.yul\":2309:2388   */\n      tag_71\n      tag_36\n      jump\t// in\n    tag_71:\n        /* \"#utility.yul\":2262:2390   */\n    tag_70:\n        /* \"#utility.yul\":1843:2396   */\n      swap3\n      pop\n      swap3\n      swap1\n      pop\n      jump\t// out\n        /* \"#utility.yul\":2402:3076   */\n    tag_14:\n        /* \"#utility.yul\":2482:2488   */\n      0x00\n        /* \"#utility.yul\":2490:2496   */\n      dup1\n        /* \"#utility.yul\":2498:2504   */\n      0x00\n        /* \"#utility.yul\":2547:2549   */\n      0x40\n        /* \"#utility.yul\":2535:2544   */\n      dup5\n        /* \"#utility.yul\":2526:2533   */\n      dup7\n        /* \"#utility.yul\":2522:2545   */\n      sub\n        /* \"#utility.yul\":2518:2550   */\n      slt\n        /* \"#utility.yul\":2515:2634   */\n      iszero\n      tag_73\n      jumpi\n        /* \"#utility.yul\":2553:2632   */\n      tag_74\n      tag_27\n      jump\t// in\n    tag_74:\n        /* \"#utility.yul\":2515:2634   */\n    tag_73:\n        /* \"#utility.yul\":2673:2674   */\n      0x00\n        /* \"#utility.yul\":2698:2751   */\n      tag_75\n        /* \"#utility.yul\":2743:2750   */\n      dup7\n        /* \"#utility.yul\":2734:2740   */\n      dup3\n        /* \"#utility.yul\":2723:2732   */\n      dup8\n        /* \"#utility.yul\":2719:2741   */\n      add\n        /* \"#utility.yul\":2698:2751   */\n      tag_31\n      jump\t// in\n    tag_75:\n        /* \"#utility.yul\":2688:2751   */\n      swap4\n      pop\n        /* \"#utility.yul\":2644:2761   */\n      pop\n        /* \"#utility.yul\":2828:2830   */\n      0x20\n        /* \"#utility.yul\":2817:2826   */\n      dup5\n        /* \"#utility.yul\":2813:2831   */\n      add\n        /* \"#utility.yul\":2800:2832   */\n      calldataload\n        /* \"#utility.yul\":2859:2877   */\n      0xffffffffffffffff\n        /* \"#utility.yul\":2851:2857   */\n      dup2\n        /* \"#utility.yul\":2848:2878   */\n      gt\n        /* \"#utility.yul\":2845:2962   */\n      iszero\n      tag_76\n      jumpi\n        /* \"#utility.yul\":2881:2960   */\n      tag_77\n      tag_28\n      jump\t// in\n    tag_77:\n        /* \"#utility.yul\":2845:2962   */\n    tag_76:\n        /* \"#utility.yul\":2994:3059   */\n      tag_78\n        /* \"#utility.yul\":3051:3058   */\n      dup7\n        /* \"#utility.yul\":3042:3048   */\n      dup3\n        /* \"#utility.yul\":3031:3040   */\n      dup8\n        /* \"#utility.yul\":3027:3049   */\n      add\n        /* \"#utility.yul\":2994:3059   */\n      tag_37\n      jump\t// in\n    tag_78:\n        /* \"#utility.yul\":2976:3059   */\n      swap3\n      pop\n      swap3\n      pop\n        /* \"#utility.yul\":2771:3069   */\n      pop\n        /* \"#utility.yul\":2402:3076   */\n      swap3\n      pop\n      swap3\n      pop\n      swap3\n      jump\t// out\n        /* \"#utility.yul\":3082:3172   */\n    tag_38:\n        /* \"#utility.yul\":3116:3123   */\n      0x00\n        /* \"#utility.yul\":3159:3164   */\n      dup2\n        /* \"#utility.yul\":3152:3165   */\n      iszero\n        /* \"#utility.yul\":3145:3166   */\n      iszero\n        /* \"#utility.yul\":3134:3166   */\n      swap1\n      pop\n        /* \"#utility.yul\":3082:3172   */\n      swap2\n      swap1\n      pop\n      jump\t// out\n        /* \"#utility.yul\":3178:3287   */\n    tag_39:\n        /* \"#utility.yul\":3259:3280   */\n      tag_81\n        /* \"#utility.yul\":3274:3279   */\n      dup2\n        /* \"#utility.yul\":3259:3280   */\n      tag_38\n      jump\t// in\n    tag_81:\n        /* \"#utility.yul\":3254:3257   */\n      dup3\n        /* \"#utility.yul\":3247:3281   */\n      mstore\n        /* \"#utility.yul\":3178:3287   */\n      pop\n      pop\n      jump\t// out\n        /* \"#utility.yul\":3293:3503   */\n    tag_17:\n        /* \"#utility.yul\":3380:3384   */\n      0x00\n        /* \"#utility.yul\":3418:3420   */\n      0x20\n        /* \"#utility.yul\":3407:3416   */\n      dup3\n        /* \"#utility.yul\":3403:3421   */\n      add\n        /* \"#utility.yul\":3395:3421   */\n      swap1\n      pop\n        /* \"#utility.yul\":3431:3496   */\n      tag_83\n        /* \"#utility.yul\":3493:3494   */\n      0x00\n        /* \"#utility.yul\":3482:3491   */\n      dup4\n        /* \"#utility.yul\":3478:3495   */\n      add\n        /* \"#utility.yul\":3469:3475   */\n      dup5\n        /* \"#utility.yul\":3431:3496   */\n      tag_39\n      jump\t// in\n    tag_83:\n        /* \"#utility.yul\":3293:3503   */\n      swap3\n      swap2\n      pop\n      pop\n      jump\t// out\n        /* \"#utility.yul\":3509:3656   */\n    tag_40:\n        /* \"#utility.yul\":3610:3621   */\n      0x00\n        /* \"#utility.yul\":3647:3650   */\n      dup2\n        /* \"#utility.yul\":3632:3650   */\n      swap1\n      pop\n        /* \"#utility.yul\":3509:3656   */\n      swap3\n      swap2\n      pop\n      pop\n      jump\t// out\n        /* \"#utility.yul\":3662:3810   */\n    tag_41:\n        /* \"#utility.yul\":3760:3766   */\n      dup3\n        /* \"#utility.yul\":3755:3758   */\n      dup2\n        /* \"#utility.yul\":3750:3753   */\n      dup4\n        /* \"#utility.yul\":3737:3767   */\n      calldatacopy\n        /* \"#utility.yul\":3801:3802   */\n      0x00\n        /* \"#utility.yul\":3792:3798   */\n      dup4\n        /* \"#utility.yul\":3787:3790   */\n      dup4\n        /* \"#utility.yul\":3783:3799   */\n      add\n        /* \"#utility.yul\":3776:3803   */\n      mstore\n        /* \"#utility.yul\":3662:3810   */\n      pop\n      pop\n      pop\n      jump\t// out\n        /* \"#utility.yul\":3838:4165   */\n    tag_42:\n        /* \"#utility.yul\":3952:3955   */\n      0x00\n        /* \"#utility.yul\":3973:4061   */\n      tag_87\n        /* \"#utility.yul\":4054:4060   */\n      dup4\n        /* \"#utility.yul\":4049:4052   */\n      dup6\n        /* \"#utility.yul\":3973:4061   */\n      tag_40\n      jump\t// in\n    tag_87:\n        /* \"#utility.yul\":3966:4061   */\n      swap4\n      pop\n        /* \"#utility.yul\":4071:4127   */\n      tag_88\n        /* \"#utility.yul\":4120:4126   */\n      dup4\n        /* \"#utility.yul\":4115:4118   */\n      dup6\n        /* \"#utility.yul\":4108:4113   */\n      dup5\n        /* \"#utility.yul\":4071:4127   */\n      tag_41\n      jump\t// in\n    tag_88:\n        /* \"#utility.yul\":4152:4158   */\n      dup3\n        /* \"#utility.yul\":4147:4150   */\n      dup5\n        /* \"#utility.yul\":4143:4159   */\n      add\n        /* \"#utility.yul\":4136:4159   */\n      swap1\n      pop\n        /* \"#utility.yul\":3838:4165   */\n      swap4\n      swap3\n      pop\n      pop\n      pop\n      jump\t// out\n        /* \"#utility.yul\":4171:4462   */\n    tag_23:\n        /* \"#utility.yul\":4311:4314   */\n      0x00\n        /* \"#utility.yul\":4333:4436   */\n      tag_90\n        /* \"#utility.yul\":4432:4435   */\n      dup3\n        /* \"#utility.yul\":4423:4429   */\n      dup5\n        /* \"#utility.yul\":4415:4421   */\n      dup7\n        /* \"#utility.yul\":4333:4436   */\n      tag_42\n      jump\t// in\n    tag_90:\n        /* \"#utility.yul\":4326:4436   */\n      swap2\n      pop\n        /* \"#utility.yul\":4453:4456   */\n      dup2\n        /* \"#utility.yul\":4446:4456   */\n      swap1\n      pop\n        /* \"#utility.yul\":4171:4462   */\n      swap4\n      swap3\n      pop\n      pop\n      pop\n      jump\t// out\n\n    auxdata: 0xa2646970667358221220855044ca700489fd7ec4f64594bbd0add6a1e82cbd92dfbb3a569ae25e9737d564736f6c634300081a0033\n}\n",
				"bytecode": {
					"linkReferences": {},
					"object": "6080604052348015600e575f80fd5b5061034a8061001c5f395ff3fe608060405234801561000f575f80fd5b506004361061003f575f3560e01c8063649bcbd0146100435780638c11c9cd146100735780639b6bd89c146100a3575b5f80fd5b61005d60048036038101906100589190610173565b6100bf565b60405161006a91906101b6565b60405180910390f35b61008d60048036038101906100889190610230565b6100d3565b60405161009a91906102a7565b60405180910390f35b6100bd60048036038101906100b89190610230565b610107565b005b5f602052805f5260405f205f915090505481565b5f805f8581526020019081526020015f205483836040516100f59291906102fc565b60405180910390201490509392505050565b81816040516101179291906102fc565b60405180910390205f808581526020019081526020015f2081905550505050565b5f80fd5b5f80fd5b5f819050919050565b61015281610140565b811461015c575f80fd5b50565b5f8135905061016d81610149565b92915050565b5f6020828403121561018857610187610138565b5b5f6101958482850161015f565b91505092915050565b5f819050919050565b6101b08161019e565b82525050565b5f6020820190506101c95f8301846101a7565b92915050565b5f80fd5b5f80fd5b5f80fd5b5f8083601f8401126101f0576101ef6101cf565b5b8235905067ffffffffffffffff81111561020d5761020c6101d3565b5b602083019150836001820283011115610229576102286101d7565b5b9250929050565b5f805f6040848603121561024757610246610138565b5b5f6102548682870161015f565b935050602084013567ffffffffffffffff8111156102755761027461013c565b5b610281868287016101db565b92509250509250925092565b5f8115159050919050565b6102a18161028d565b82525050565b5f6020820190506102ba5f830184610298565b92915050565b5f81905092915050565b828183375f83830152505050565b5f6102e383856102c0565b93506102f08385846102ca565b82840190509392505050565b5f6103088284866102d8565b9150819050939250505056fea2646970667358221220855044ca700489fd7ec4f64594bbd0add6a1e82cbd92dfbb3a569ae25e9737d564736f6c634300081a0033",
					"opcodes": "PUSH1 0x80 PUSH1 0x40 MSTORE CALLVALUE DUP1 ISZERO PUSH1 0xE JUMPI PUSH0 DUP1 REVERT JUMPDEST POP PUSH2 0x34A DUP1 PUSH2 0x1C PUSH0 CODECOPY PUSH0 RETURN INVALID PUSH1 0x80 PUSH1 0x40 MSTORE CALLVALUE DUP1 ISZERO PUSH2 0xF JUMPI PUSH0 DUP1 REVERT JUMPDEST POP PUSH1 0x4 CALLDATASIZE LT PUSH2 0x3F JUMPI PUSH0 CALLDATALOAD PUSH1 0xE0 SHR DUP1 PUSH4 0x649BCBD0 EQ PUSH2 0x43 JUMPI DUP1 PUSH4 0x8C11C9CD EQ PUSH2 0x73 JUMPI DUP1 PUSH4 0x9B6BD89C EQ PUSH2 0xA3 JUMPI JUMPDEST PUSH0 DUP1 REVERT JUMPDEST PUSH2 0x5D PUSH1 0x4 DUP1 CALLDATASIZE SUB DUP2 ADD SWAP1 PUSH2 0x58 SWAP2 SWAP1 PUSH2 0x173 JUMP JUMPDEST PUSH2 0xBF JUMP JUMPDEST PUSH1 0x40 MLOAD PUSH2 0x6A SWAP2 SWAP1 PUSH2 0x1B6 JUMP JUMPDEST PUSH1 0x40 MLOAD DUP1 SWAP2 SUB SWAP1 RETURN JUMPDEST PUSH2 0x8D PUSH1 0x4 DUP1 CALLDATASIZE SUB DUP2 ADD SWAP1 PUSH2 0x88 SWAP2 SWAP1 PUSH2 0x230 JUMP JUMPDEST PUSH2 0xD3 JUMP JUMPDEST PUSH1 0x40 MLOAD PUSH2 0x9A SWAP2 SWAP1 PUSH2 0x2A7 JUMP JUMPDEST PUSH1 0x40 MLOAD DUP1 SWAP2 SUB SWAP1 RETURN JUMPDEST PUSH2 0xBD PUSH1 0x4 DUP1 CALLDATASIZE SUB DUP2 ADD SWAP1 PUSH2 0xB8 SWAP2 SWAP1 PUSH2 0x230 JUMP JUMPDEST PUSH2 0x107 JUMP JUMPDEST STOP JUMPDEST PUSH0 PUSH1 0x20 MSTORE DUP1 PUSH0 MSTORE PUSH1 0x40 PUSH0 KECCAK256 PUSH0 SWAP2 POP SWAP1 POP SLOAD DUP2 JUMP JUMPDEST PUSH0 DUP1 PUSH0 DUP6 DUP2 MSTORE PUSH1 0x20 ADD SWAP1 DUP2 MSTORE PUSH1 0x20 ADD PUSH0 KECCAK256 SLOAD DUP4 DUP4 PUSH1 0x40 MLOAD PUSH2 0xF5 SWAP3 SWAP2 SWAP1 PUSH2 0x2FC JUMP JUMPDEST PUSH1 0x40 MLOAD DUP1 SWAP2 SUB SWAP1 KECCAK256 EQ SWAP1 POP SWAP4 SWAP3 POP POP POP JUMP JUMPDEST DUP2 DUP2 PUSH1 0x40 MLOAD PUSH2 0x117 SWAP3 SWAP2 SWAP1 PUSH2 0x2FC JUMP JUMPDEST PUSH1 0x40 MLOAD DUP1 SWAP2 SUB SWAP1 KECCAK256 PUSH0 DUP1 DUP6 DUP2 MSTORE PUSH1 0x20 ADD SWAP1 DUP2 MSTORE PUSH1 0x20 ADD PUSH0 KECCAK256 DUP2 SWAP1 SSTORE POP POP POP POP JUMP JUMPDEST PUSH0 DUP1 REVERT JUMPDEST PUSH0 DUP1 REVERT JUMPDEST PUSH0 DUP2 SWAP1 POP SWAP2 SWAP1 POP JUMP JUMPDEST PUSH2 0x152 DUP2 PUSH2 0x140 JUMP JUMPDEST DUP2 EQ PUSH2 0x15C JUMPI PUSH0 DUP1 REVERT JUMPDEST POP JUMP JUMPDEST PUSH0 DUP2 CALLDATALOAD SWAP1 POP PUSH2 0x16D DUP2 PUSH2 0x149 JUMP JUMPDEST SWAP3 SWAP2 POP POP JUMP JUMPDEST PUSH0 PUSH1 0x20 DUP3 DUP5 SUB SLT ISZERO PUSH2 0x188 JUMPI PUSH2 0x187 PUSH2 0x138 JUMP JUMPDEST JUMPDEST PUSH0 PUSH2 0x195 DUP5 DUP3 DUP6 ADD PUSH2 0x15F JUMP JUMPDEST SWAP2 POP POP SWAP3 SWAP2 POP POP JUMP JUMPDEST PUSH0 DUP2 SWAP1 POP SWAP2 SWAP1 POP JUMP JUMPDEST PUSH2 0x1B0 DUP2 PUSH2 0x19E JUMP JUMPDEST DUP3 MSTORE POP POP JUMP JUMPDEST PUSH0 PUSH1 0x20 DUP3 ADD SWAP1 POP PUSH2 0x1C9 PUSH0 DUP4 ADD DUP5 PUSH2 0x1A7 JUMP JUMPDEST SWAP3 SWAP2 POP POP JUMP JUMPDEST PUSH0 DUP1 REVERT JUMPDEST PUSH0 DUP1 REVERT JUMPDEST PUSH0 DUP1 REVERT JUMPDEST PUSH0 DUP1 DUP4 PUSH1 0x1F DUP5 ADD SLT PUSH2 0x1F0 JUMPI PUSH2 0x1EF PUSH2 0x1CF JUMP JUMPDEST JUMPDEST DUP3 CALLDATALOAD SWAP1 POP PUSH8 0xFFFFFFFFFFFFFFFF DUP2 GT ISZERO PUSH2 0x20D JUMPI PUSH2 0x20C PUSH2 0x1D3 JUMP JUMPDEST JUMPDEST PUSH1 0x20 DUP4 ADD SWAP2 POP DUP4 PUSH1 0x1 DUP3 MUL DUP4 ADD GT ISZERO PUSH2 0x229 JUMPI PUSH2 0x228 PUSH2 0x1D7 JUMP JUMPDEST JUMPDEST SWAP3 POP SWAP3 SWAP1 POP JUMP JUMPDEST PUSH0 DUP1 PUSH0 PUSH1 0x40 DUP5 DUP7 SUB SLT ISZERO PUSH2 0x247 JUMPI PUSH2 0x246 PUSH2 0x138 JUMP JUMPDEST JUMPDEST PUSH0 PUSH2 0x254 DUP7 DUP3 DUP8 ADD PUSH2 0x15F JUMP JUMPDEST SWAP4 POP POP PUSH1 0x20 DUP5 ADD CALLDATALOAD PUSH8 0xFFFFFFFFFFFFFFFF DUP2 GT ISZERO PUSH2 0x275 JUMPI PUSH2 0x274 PUSH2 0x13C JUMP JUMPDEST JUMPDEST PUSH2 0x281 DUP7 DUP3 DUP8 ADD PUSH2 0x1DB JUMP JUMPDEST SWAP3 POP SWAP3 POP POP SWAP3 POP SWAP3 POP SWAP3 JUMP JUMPDEST PUSH0 DUP2 ISZERO ISZERO SWAP1 POP SWAP2 SWAP1 POP JUMP JUMPDEST PUSH2 0x2A1 DUP2 PUSH2 0x28D JUMP JUMPDEST DUP3 MSTORE POP POP JUMP JUMPDEST PUSH0 PUSH1 0x20 DUP3 ADD SWAP1 POP PUSH2 0x2BA PUSH0 DUP4 ADD DUP5 PUSH2 0x298 JUMP JUMPDEST SWAP3 SWAP2 POP POP JUMP JUMPDEST PUSH0 DUP2 SWAP1 POP SWAP3 SWAP2 POP POP JUMP JUMPDEST DUP3 DUP2 DUP4 CALLDATACOPY PUSH0 DUP4 DUP4 ADD MSTORE POP POP POP JUMP JUMPDEST PUSH0 PUSH2 0x2E3 DUP4 DUP6 PUSH2 0x2C0 JUMP JUMPDEST SWAP4 POP PUSH2 0x2F0 DUP4 DUP6 DUP5 PUSH2 0x2CA JUMP JUMPDEST DUP3 DUP5 ADD SWAP1 POP SWAP4 SWAP3 POP POP POP JUMP JUMPDEST PUSH0 PUSH2 0x308 DUP3 DUP5 DUP7 PUSH2 0x2D8 JUMP JUMPDEST SWAP2 POP DUP2 SWAP1 POP SWAP4 SWAP3 POP POP POP JUMP INVALID LOG2 PUSH5 0x6970667358 0x22 SLT KECCAK256 DUP6 POP PREVRANDAO 0xCA PUSH17 0x489FD7EC4F64594BBD0ADD6A1E82CBD92 0xDF 0xBB GASPRICE JUMP SWAP11 0xE2 MCOPY SWAP8 CALLDATACOPY 0xD5 PUSH5 0x736F6C6343 STOP ADDMOD BYTE STOP CALLER "
				},
				"gasEstimates": {
					"creation": {
						"codeDepositCost": "168400",
						"executionCost": "212",
						"totalCost": "168612"
					},
					"external": {
						"metaHash(uint256)": "2731",
						"storeHash(uint256,string)": "infinite",
						"validate(uint256,string)": "infinite"
					}
				},
				"methodIdentifiers": {
					"metaHash(uint256)": "649bcbd0",
					"storeHash(uint256,string)": "9b6bd89c",
					"validate(uint256,string)": "8c11c9cd"
				}
			},
			"storageLayout": {
				"storage": [
					{
						"astId": 352,
						"contract": "P/Pharming/Pharming.sol:MetadataIntegrity",
						"label": "metaHash",
						"offset": 0,
						"slot": "0",
						"type": "t_mapping(t_uint256,t_bytes32)"
					}
				],
				"types": {
					"t_bytes32": {
						"encoding": "inplace",
						"label": "bytes32",
						"numberOfBytes": "32"
					},
					"t_mapping(t_uint256,t_bytes32)": {
						"encoding": "mapping",
						"key": "t_uint256",
						"label": "mapping(uint256 => bytes32)",
						"numberOfBytes": "32",
						"value": "t_bytes32"
					},
					"t_uint256": {
						"encoding": "inplace",
						"label": "uint256",
						"numberOfBytes": "32"
					}
				}
			},
			"userdoc": {
				"kind": "user",
				"methods": {},
				"version": 1
			}
		}
	}
}