{
	"P/Pharming/Pharming.sol": {
		"NFTMetadataPharming": {
			"abi": [
				{
					"inputs": [
						{
							"internalType": "uint256",
							"name": "",
							"type": "uint256"
						}
					],
					"name": "metadata",
					"outputs": [
						{
							"internalType": "string",
							"name": "",
							"type": "string"
						}
					],
					"stateMutability": "view",
					"type": "function"
				},
				{
					"inputs": [
						{
							"internalType": "uint256",
							"name": "id",
							"type": "uint256"
						},
						{
							"internalType": "string",
							"name": "uri",
							"type": "string"
						}
					],
					"name": "setURI",
					"outputs": [],
					"stateMutability": "nonpayable",
					"type": "function"
				},
				{
					"inputs": [
						{
							"internalType": "uint256",
							"name": "id",
							"type": "uint256"
						}
					],
					"name": "uri",
					"outputs": [
						{
							"internalType": "string",
							"name": "",
							"type": "string"
						}
					],
					"stateMutability": "view",
					"type": "function"
				}
			],
			"devdoc": {
				"kind": "dev",
				"methods": {},
				"version": 1
			},
			"evm": {
				"assembly": "    /* \"P/Pharming/Pharming.sol\":1387:1671  contract NFTMetadataPharming {... */\n  mstore(0x40, 0x80)\n  callvalue\n  dup1\n  iszero\n  tag_1\n  jumpi\n  0x00\n  dup1\n  revert\ntag_1:\n  pop\n  dataSize(sub_0)\n  dup1\n  dataOffset(sub_0)\n  0x00\n  codecopy\n  0x00\n  return\nstop\n\nsub_0: assembly {\n        /* \"P/Pharming/Pharming.sol\":1387:1671  contract NFTMetadataPharming {... */\n      mstore(0x40, 0x80)\n      callvalue\n      dup1\n      iszero\n      tag_1\n      jumpi\n      0x00\n      dup1\n      revert\n    tag_1:\n      pop\n      jumpi(tag_2, lt(calldatasize, 0x04))\n      shr(0xe0, calldataload(0x00))\n      dup1\n      0x0e89341c\n      eq\n      tag_3\n      jumpi\n      dup1\n      0x862440e2\n      eq\n      tag_4\n      jumpi\n      dup1\n      0xe3684e39\n      eq\n      tag_5\n      jumpi\n    tag_2:\n      0x00\n      dup1\n      revert\n        /* \"P/Pharming/Pharming.sol\":1570:1669  function uri(uint256 id) external view returns (string memory) {... */\n    tag_3:\n      tag_6\n      0x04\n      dup1\n      calldatasize\n      sub\n      dup2\n      add\n      swap1\n      tag_7\n      swap2\n      swap1\n      tag_8\n      jump\t// in\n    tag_7:\n      tag_9\n      jump\t// in\n    tag_6:\n      mload(0x40)\n      tag_10\n      swap2\n      swap1\n      tag_11\n      jump\t// in\n    tag_10:\n      mload(0x40)\n      dup1\n      swap2\n      sub\n      swap1\n      return\n        /* \"P/Pharming/Pharming.sol\":1471:1564  function setURI(uint256 id, string calldata uri) external {... */\n    tag_4:\n      tag_12\n      0x04\n      dup1\n      calldatasize\n      sub\n      dup2\n      add\n      swap1\n      tag_13\n      swap2\n      swap1\n      tag_14\n      jump\t// in\n    tag_13:\n      tag_15\n      jump\t// in\n    tag_12:\n      stop\n        /* \"P/Pharming/Pharming.sol\":1422:1464  mapping(uint256 => string) public metadata */\n    tag_5:\n      tag_16\n      0x04\n      dup1\n      calldatasize\n      sub\n      dup2\n      add\n      swap1\n      tag_17\n      swap2\n      swap1\n      tag_8\n      jump\t// in\n    tag_17:\n      tag_18\n      jump\t// in\n    tag_16:\n      mload(0x40)\n      tag_19\n      swap2\n      swap1\n      tag_11\n      jump\t// in\n    tag_19:\n      mload(0x40)\n      dup1\n      swap2\n      sub\n      swap1\n      return\n        /* \"P/Pharming/Pharming.sol\":1570:1669  function uri(uint256 id) external view returns (string memory) {... */\n    tag_9:\n        /* \"P/Pharming/Pharming.sol\":1618:1631  string memory */\n      0x60\n        /* \"P/Pharming/Pharming.sol\":1650:1658  metadata */\n      0x00\n        /* \"P/Pharming/Pharming.sol\":1650:1662  metadata[id] */\n      dup1\n        /* \"P/Pharming/Pharming.sol\":1659:1661  id */\n      dup4\n        /* \"P/Pharming/Pharming.sol\":1650:1662  metadata[id] */\n      dup2\n      mstore\n      0x20\n      add\n      swap1\n      dup2\n      mstore\n      0x20\n      add\n      0x00\n      keccak256\n        /* \"P/Pharming/Pharming.sol\":1643:1662  return metadata[id] */\n      dup1\n      sload\n      tag_21\n      swap1\n      tag_22\n      jump\t// in\n    tag_21:\n      dup1\n      0x1f\n      add\n      0x20\n      dup1\n      swap2\n      div\n      mul\n      0x20\n      add\n      mload(0x40)\n      swap1\n      dup2\n      add\n      0x40\n      mstore\n      dup1\n      swap3\n      swap2\n      swap1\n      dup2\n      dup2\n      mstore\n      0x20\n      add\n      dup3\n      dup1\n      sload\n      tag_23\n      swap1\n      tag_22\n      jump\t// in\n    tag_23:\n      dup1\n      iszero\n      tag_24\n      jumpi\n      dup1\n      0x1f\n      lt\n      tag_25\n      jumpi\n      0x0100\n      dup1\n      dup4\n      sload\n      div\n      mul\n      dup4\n      mstore\n      swap2\n      0x20\n      add\n      swap2\n      jump(tag_24)\n    tag_25:\n      dup3\n      add\n      swap2\n      swap1\n      0x00\n      mstore\n      keccak256(0x00, 0x20)\n      swap1\n    tag_26:\n      dup2\n      sload\n      dup2\n      mstore\n      swap1\n      0x01\n      add\n      swap1\n      0x20\n      add\n      dup1\n      dup4\n      gt\n      tag_26\n      jumpi\n      dup3\n      swap1\n      sub\n      0x1f\n      and\n      dup3\n      add\n      swap2\n    tag_24:\n      pop\n      pop\n      pop\n      pop\n      pop\n      swap1\n      pop\n        /* \"P/Pharming/Pharming.sol\":1570:1669  function uri(uint256 id) external view returns (string memory) {... */\n      swap2\n      swap1\n      pop\n      jump\t// out\n        /* \"P/Pharming/Pharming.sol\":1471:1564  function setURI(uint256 id, string calldata uri) external {... */\n    tag_15:\n        /* \"P/Pharming/Pharming.sol\":1554:1557  uri */\n      dup2\n      dup2\n        /* \"P/Pharming/Pharming.sol\":1539:1547  metadata */\n      0x00\n        /* \"P/Pharming/Pharming.sol\":1539:1551  metadata[id] */\n      dup1\n        /* \"P/Pharming/Pharming.sol\":1548:1550  id */\n      dup7\n        /* \"P/Pharming/Pharming.sol\":1539:1551  metadata[id] */\n      dup2\n      mstore\n      0x20\n      add\n      swap1\n      dup2\n      mstore\n      0x20\n      add\n      0x00\n      keccak256\n        /* \"P/Pharming/Pharming.sol\":1539:1557  metadata[id] = uri */\n      swap2\n      dup3\n      tag_28\n      swap3\n      swap2\n      swap1\n      tag_29\n      jump\t// in\n    tag_28:\n      pop\n        /* \"P/Pharming/Pharming.sol\":1471:1564  function setURI(uint256 id, string calldata uri) external {... */\n      pop\n      pop\n      pop\n      jump\t// out\n        /* \"P/Pharming/Pharming.sol\":1422:1464  mapping(uint256 => string) public metadata */\n    tag_18:\n      mstore(0x20, 0x00)\n      dup1\n      0x00\n      mstore\n      keccak256(0x00, 0x40)\n      0x00\n      swap2\n      pop\n      swap1\n      pop\n      dup1\n      sload\n      tag_30\n      swap1\n      tag_22\n      jump\t// in\n    tag_30:\n      dup1\n      0x1f\n      add\n      0x20\n      dup1\n      swap2\n      div\n      mul\n      0x20\n      add\n      mload(0x40)\n      swap1\n      dup2\n      add\n      0x40\n      mstore\n      dup1\n      swap3\n      swap2\n      swap1\n      dup2\n      dup2\n      mstore\n      0x20\n      add\n      dup3\n      dup1\n      sload\n      tag_31\n      swap1\n      tag_22\n      jump\t// in\n    tag_31:\n      dup1\n      iszero\n      tag_32\n      jumpi\n      dup1\n      0x1f\n      lt\n      tag_33\n      jumpi\n      0x0100\n      dup1\n      dup4\n      sload\n      div\n      mul\n      dup4\n      mstore\n      swap2\n      0x20\n      add\n      swap2\n      jump(tag_32)\n    tag_33:\n      dup3\n      add\n      swap2\n      swap1\n      0x00\n      mstore\n      keccak256(0x00, 0x20)\n      swap1\n    tag_34:\n      dup2\n      sload\n      dup2\n      mstore\n      swap1\n      0x01\n      add\n      swap1\n      0x20\n      add\n      dup1\n      dup4\n      gt\n      tag_34\n      jumpi\n      dup3\n      swap1\n      sub\n      0x1f\n      and\n      dup3\n      add\n      swap2\n    tag_32:\n      pop\n      pop\n      pop\n      pop\n      pop\n      dup2\n      jump\t// out\n        /* \"#utility.yul\":88:205   */\n    tag_36:\n        /* \"#utility.yul\":197:198   */\n      0x00\n        /* \"#utility.yul\":194:195   */\n      dup1\n        /* \"#utility.yul\":187:199   */\n      revert\n        /* \"#utility.yul\":211:328   */\n    tag_37:\n        /* \"#utility.yul\":320:321   */\n      0x00\n        /* \"#utility.yul\":317:318   */\n      dup1\n        /* \"#utility.yul\":310:322   */\n      revert\n        /* \"#utility.yul\":334:411   */\n    tag_38:\n        /* \"#utility.yul\":371:378   */\n      0x00\n        /* \"#utility.yul\":400:405   */\n      dup2\n        /* \"#utility.yul\":389:405   */\n      swap1\n      pop\n        /* \"#utility.yul\":334:411   */\n      swap2\n      swap1\n      pop\n      jump\t// out\n        /* \"#utility.yul\":417:539   */\n    tag_39:\n        /* \"#utility.yul\":490:514   */\n      tag_74\n        /* \"#utility.yul\":508:513   */\n      dup2\n        /* \"#utility.yul\":490:514   */\n      tag_38\n      jump\t// in\n    tag_74:\n        /* \"#utility.yul\":483:488   */\n      dup2\n        /* \"#utility.yul\":480:515   */\n      eq\n        /* \"#utility.yul\":470:533   */\n      tag_75\n      jumpi\n        /* \"#utility.yul\":529:530   */\n      0x00\n        /* \"#utility.yul\":526:527   */\n      dup1\n        /* \"#utility.yul\":519:531   */\n      revert\n        /* \"#utility.yul\":470:533   */\n    tag_75:\n        /* \"#utility.yul\":417:539   */\n      pop\n      jump\t// out\n        /* \"#utility.yul\":545:684   */\n    tag_40:\n        /* \"#utility.yul\":591:596   */\n      0x00\n        /* \"#utility.yul\":629:635   */\n      dup2\n        /* \"#utility.yul\":616:636   */\n      calldataload\n        /* \"#utility.yul\":607:636   */\n      swap1\n      pop\n        /* \"#utility.yul\":645:678   */\n      tag_77\n        /* \"#utility.yul\":672:677   */\n      dup2\n        /* \"#utility.yul\":645:678   */\n      tag_39\n      jump\t// in\n    tag_77:\n        /* \"#utility.yul\":545:684   */\n      swap3\n      swap2\n      pop\n      pop\n      jump\t// out\n        /* \"#utility.yul\":690:1019   */\n    tag_8:\n        /* \"#utility.yul\":749:755   */\n      0x00\n        /* \"#utility.yul\":798:800   */\n      0x20\n        /* \"#utility.yul\":786:795   */\n      dup3\n        /* \"#utility.yul\":777:784   */\n      dup5\n        /* \"#utility.yul\":773:796   */\n      sub\n        /* \"#utility.yul\":769:801   */\n      slt\n        /* \"#utility.yul\":766:885   */\n      iszero\n      tag_79\n      jumpi\n        /* \"#utility.yul\":804:883   */\n      tag_80\n      tag_36\n      jump\t// in\n    tag_80:\n        /* \"#utility.yul\":766:885   */\n    tag_79:\n        /* \"#utility.yul\":924:925   */\n      0x00\n        /* \"#utility.yul\":949:1002   */\n      tag_81\n        /* \"#utility.yul\":994:1001   */\n      dup5\n        /* \"#utility.yul\":985:991   */\n      dup3\n        /* \"#utility.yul\":974:983   */\n      dup6\n        /* \"#utility.yul\":970:992   */\n      add\n        /* \"#utility.yul\":949:1002   */\n      tag_40\n      jump\t// in\n    tag_81:\n        /* \"#utility.yul\":939:1002   */\n      swap2\n      pop\n        /* \"#utility.yul\":895:1012   */\n      pop\n        /* \"#utility.yul\":690:1019   */\n      swap3\n      swap2\n      pop\n      pop\n      jump\t// out\n        /* \"#utility.yul\":1025:1124   */\n    tag_41:\n        /* \"#utility.yul\":1077:1083   */\n      0x00\n        /* \"#utility.yul\":1111:1116   */\n      dup2\n        /* \"#utility.yul\":1105:1117   */\n      mload\n        /* \"#utility.yul\":1095:1117   */\n      swap1\n      pop\n        /* \"#utility.yul\":1025:1124   */\n      swap2\n      swap1\n      pop\n      jump\t// out\n        /* \"#utility.yul\":1130:1299   */\n    tag_42:\n        /* \"#utility.yul\":1214:1225   */\n      0x00\n        /* \"#utility.yul\":1248:1254   */\n      dup3\n        /* \"#utility.yul\":1243:1246   */\n      dup3\n        /* \"#utility.yul\":1236:1255   */\n      mstore\n        /* \"#utility.yul\":1288:1292   */\n      0x20\n        /* \"#utility.yul\":1283:1286   */\n      dup3\n        /* \"#utility.yul\":1279:1293   */\n      add\n        /* \"#utility.yul\":1264:1293   */\n      swap1\n      pop\n        /* \"#utility.yul\":1130:1299   */\n      swap3\n      swap2\n      pop\n      pop\n      jump\t// out\n        /* \"#utility.yul\":1305:1444   */\n    tag_43:\n        /* \"#utility.yul\":1394:1400   */\n      dup3\n        /* \"#utility.yul\":1389:1392   */\n      dup2\n        /* \"#utility.yul\":1384:1387   */\n      dup4\n        /* \"#utility.yul\":1378:1401   */\n      mcopy\n        /* \"#utility.yul\":1435:1436   */\n      0x00\n        /* \"#utility.yul\":1426:1432   */\n      dup4\n        /* \"#utility.yul\":1421:1424   */\n      dup4\n        /* \"#utility.yul\":1417:1433   */\n      add\n        /* \"#utility.yul\":1410:1437   */\n      mstore\n        /* \"#utility.yul\":1305:1444   */\n      pop\n      pop\n      pop\n      jump\t// out\n        /* \"#utility.yul\":1450:1552   */\n    tag_44:\n        /* \"#utility.yul\":1491:1497   */\n      0x00\n        /* \"#utility.yul\":1542:1544   */\n      0x1f\n        /* \"#utility.yul\":1538:1545   */\n      not\n        /* \"#utility.yul\":1533:1535   */\n      0x1f\n        /* \"#utility.yul\":1526:1531   */\n      dup4\n        /* \"#utility.yul\":1522:1536   */\n      add\n        /* \"#utility.yul\":1518:1546   */\n      and\n        /* \"#utility.yul\":1508:1546   */\n      swap1\n      pop\n        /* \"#utility.yul\":1450:1552   */\n      swap2\n      swap1\n      pop\n      jump\t// out\n        /* \"#utility.yul\":1558:1935   */\n    tag_45:\n        /* \"#utility.yul\":1646:1649   */\n      0x00\n        /* \"#utility.yul\":1674:1713   */\n      tag_87\n        /* \"#utility.yul\":1707:1712   */\n      dup3\n        /* \"#utility.yul\":1674:1713   */\n      tag_41\n      jump\t// in\n    tag_87:\n        /* \"#utility.yul\":1729:1800   */\n      tag_88\n        /* \"#utility.yul\":1793:1799   */\n      dup2\n        /* \"#utility.yul\":1788:1791   */\n      dup6\n        /* \"#utility.yul\":1729:1800   */\n      tag_42\n      jump\t// in\n    tag_88:\n        /* \"#utility.yul\":1722:1800   */\n      swap4\n      pop\n        /* \"#utility.yul\":1809:1874   */\n      tag_89\n        /* \"#utility.yul\":1867:1873   */\n      dup2\n        /* \"#utility.yul\":1862:1865   */\n      dup6\n        /* \"#utility.yul\":1855:1859   */\n      0x20\n        /* \"#utility.yul\":1848:1853   */\n      dup7\n        /* \"#utility.yul\":1844:1860   */\n      add\n        /* \"#utility.yul\":1809:1874   */\n      tag_43\n      jump\t// in\n    tag_89:\n        /* \"#utility.yul\":1899:1928   */\n      tag_90\n        /* \"#utility.yul\":1921:1927   */\n      dup2\n        /* \"#utility.yul\":1899:1928   */\n      tag_44\n      jump\t// in\n    tag_90:\n        /* \"#utility.yul\":1894:1897   */\n      dup5\n        /* \"#utility.yul\":1890:1929   */\n      add\n        /* \"#utility.yul\":1883:1929   */\n      swap2\n      pop\n        /* \"#utility.yul\":1650:1935   */\n      pop\n        /* \"#utility.yul\":1558:1935   */\n      swap3\n      swap2\n      pop\n      pop\n      jump\t// out\n        /* \"#utility.yul\":1941:2254   */\n    tag_11:\n        /* \"#utility.yul\":2054:2058   */\n      0x00\n        /* \"#utility.yul\":2092:2094   */\n      0x20\n        /* \"#utility.yul\":2081:2090   */\n      dup3\n        /* \"#utility.yul\":2077:2095   */\n      add\n        /* \"#utility.yul\":2069:2095   */\n      swap1\n      pop\n        /* \"#utility.yul\":2141:2150   */\n      dup2\n        /* \"#utility.yul\":2135:2139   */\n      dup2\n        /* \"#utility.yul\":2131:2151   */\n      sub\n        /* \"#utility.yul\":2127:2128   */\n      0x00\n        /* \"#utility.yul\":2116:2125   */\n      dup4\n        /* \"#utility.yul\":2112:2129   */\n      add\n        /* \"#utility.yul\":2105:2152   */\n      mstore\n        /* \"#utility.yul\":2169:2247   */\n      tag_92\n        /* \"#utility.yul\":2242:2246   */\n      dup2\n        /* \"#utility.yul\":2233:2239   */\n      dup5\n        /* \"#utility.yul\":2169:2247   */\n      tag_45\n      jump\t// in\n    tag_92:\n        /* \"#utility.yul\":2161:2247   */\n      swap1\n      pop\n        /* \"#utility.yul\":1941:2254   */\n      swap3\n      swap2\n      pop\n      pop\n      jump\t// out\n        /* \"#utility.yul\":2260:2377   */\n    tag_46:\n        /* \"#utility.yul\":2369:2370   */\n      0x00\n        /* \"#utility.yul\":2366:2367   */\n      dup1\n        /* \"#utility.yul\":2359:2371   */\n      revert\n        /* \"#utility.yul\":2383:2500   */\n    tag_47:\n        /* \"#utility.yul\":2492:2493   */\n      0x00\n        /* \"#utility.yul\":2489:2490   */\n      dup1\n        /* \"#utility.yul\":2482:2494   */\n      revert\n        /* \"#utility.yul\":2506:2623   */\n    tag_48:\n        /* \"#utility.yul\":2615:2616   */\n      0x00\n        /* \"#utility.yul\":2612:2613   */\n      dup1\n        /* \"#utility.yul\":2605:2617   */\n      revert\n        /* \"#utility.yul\":2643:3196   */\n    tag_49:\n        /* \"#utility.yul\":2701:2709   */\n      0x00\n        /* \"#utility.yul\":2711:2717   */\n      dup1\n        /* \"#utility.yul\":2761:2764   */\n      dup4\n        /* \"#utility.yul\":2754:2758   */\n      0x1f\n        /* \"#utility.yul\":2746:2752   */\n      dup5\n        /* \"#utility.yul\":2742:2759   */\n      add\n        /* \"#utility.yul\":2738:2765   */\n      slt\n        /* \"#utility.yul\":2728:2850   */\n      tag_97\n      jumpi\n        /* \"#utility.yul\":2769:2848   */\n      tag_98\n      tag_46\n      jump\t// in\n    tag_98:\n        /* \"#utility.yul\":2728:2850   */\n    tag_97:\n        /* \"#utility.yul\":2882:2888   */\n      dup3\n        /* \"#utility.yul\":2869:2889   */\n      calldataload\n        /* \"#utility.yul\":2859:2889   */\n      swap1\n      pop\n        /* \"#utility.yul\":2912:2930   */\n      0xffffffffffffffff\n        /* \"#utility.yul\":2904:2910   */\n      dup2\n        /* \"#utility.yul\":2901:2931   */\n      gt\n        /* \"#utility.yul\":2898:3015   */\n      iszero\n      tag_99\n      jumpi\n        /* \"#utility.yul\":2934:3013   */\n      tag_100\n      tag_47\n      jump\t// in\n    tag_100:\n        /* \"#utility.yul\":2898:3015   */\n    tag_99:\n        /* \"#utility.yul\":3048:3052   */\n      0x20\n        /* \"#utility.yul\":3040:3046   */\n      dup4\n        /* \"#utility.yul\":3036:3053   */\n      add\n        /* \"#utility.yul\":3024:3053   */\n      swap2\n      pop\n        /* \"#utility.yul\":3102:3105   */\n      dup4\n        /* \"#utility.yul\":3094:3098   */\n      0x01\n        /* \"#utility.yul\":3086:3092   */\n      dup3\n        /* \"#utility.yul\":3082:3099   */\n      mul\n        /* \"#utility.yul\":3072:3080   */\n      dup4\n        /* \"#utility.yul\":3068:3100   */\n      add\n        /* \"#utility.yul\":3065:3106   */\n      gt\n        /* \"#utility.yul\":3062:3190   */\n      iszero\n      tag_101\n      jumpi\n        /* \"#utility.yul\":3109:3188   */\n      tag_102\n      tag_48\n      jump\t// in\n    tag_102:\n        /* \"#utility.yul\":3062:3190   */\n    tag_101:\n        /* \"#utility.yul\":2643:3196   */\n      swap3\n      pop\n      swap3\n      swap1\n      pop\n      jump\t// out\n        /* \"#utility.yul\":3202:3876   */\n    tag_14:\n        /* \"#utility.yul\":3282:3288   */\n      0x00\n        /* \"#utility.yul\":3290:3296   */\n      dup1\n        /* \"#utility.yul\":3298:3304   */\n      0x00\n        /* \"#utility.yul\":3347:3349   */\n      0x40\n        /* \"#utility.yul\":3335:3344   */\n      dup5\n        /* \"#utility.yul\":3326:3333   */\n      dup7\n        /* \"#utility.yul\":3322:3345   */\n      sub\n        /* \"#utility.yul\":3318:3350   */\n      slt\n        /* \"#utility.yul\":3315:3434   */\n      iszero\n      tag_104\n      jumpi\n        /* \"#utility.yul\":3353:3432   */\n      tag_105\n      tag_36\n      jump\t// in\n    tag_105:\n        /* \"#utility.yul\":3315:3434   */\n    tag_104:\n        /* \"#utility.yul\":3473:3474   */\n      0x00\n        /* \"#utility.yul\":3498:3551   */\n      tag_106\n        /* \"#utility.yul\":3543:3550   */\n      dup7\n        /* \"#utility.yul\":3534:3540   */\n      dup3\n        /* \"#utility.yul\":3523:3532   */\n      dup8\n        /* \"#utility.yul\":3519:3541   */\n      add\n        /* \"#utility.yul\":3498:3551   */\n      tag_40\n      jump\t// in\n    tag_106:\n        /* \"#utility.yul\":3488:3551   */\n      swap4\n      pop\n        /* \"#utility.yul\":3444:3561   */\n      pop\n        /* \"#utility.yul\":3628:3630   */\n      0x20\n        /* \"#utility.yul\":3617:3626   */\n      dup5\n        /* \"#utility.yul\":3613:3631   */\n      add\n        /* \"#utility.yul\":3600:3632   */\n      calldataload\n        /* \"#utility.yul\":3659:3677   */\n      0xffffffffffffffff\n        /* \"#utility.yul\":3651:3657   */\n      dup2\n        /* \"#utility.yul\":3648:3678   */\n      gt\n        /* \"#utility.yul\":3645:3762   */\n      iszero\n      tag_107\n      jumpi\n        /* \"#utility.yul\":3681:3760   */\n      tag_108\n      tag_37\n      jump\t// in\n    tag_108:\n        /* \"#utility.yul\":3645:3762   */\n    tag_107:\n        /* \"#utility.yul\":3794:3859   */\n      tag_109\n        /* \"#utility.yul\":3851:3858   */\n      dup7\n        /* \"#utility.yul\":3842:3848   */\n      dup3\n        /* \"#utility.yul\":3831:3840   */\n      dup8\n        /* \"#utility.yul\":3827:3849   */\n      add\n        /* \"#utility.yul\":3794:3859   */\n      tag_49\n      jump\t// in\n    tag_109:\n        /* \"#utility.yul\":3776:3859   */\n      swap3\n      pop\n      swap3\n      pop\n        /* \"#utility.yul\":3571:3869   */\n      pop\n        /* \"#utility.yul\":3202:3876   */\n      swap3\n      pop\n      swap3\n      pop\n      swap3\n      jump\t// out\n        /* \"#utility.yul\":3882:4062   */\n    tag_50:\n        /* \"#utility.yul\":3930:4007   */\n      0x4e487b7100000000000000000000000000000000000000000000000000000000\n        /* \"#utility.yul\":3927:3928   */\n      0x00\n        /* \"#utility.yul\":3920:4008   */\n      mstore\n        /* \"#utility.yul\":4027:4031   */\n      0x22\n        /* \"#utility.yul\":4024:4025   */\n      0x04\n        /* \"#utility.yul\":4017:4032   */\n      mstore\n        /* \"#utility.yul\":4051:4055   */\n      0x24\n        /* \"#utility.yul\":4048:4049   */\n      0x00\n        /* \"#utility.yul\":4041:4056   */\n      revert\n        /* \"#utility.yul\":4068:4388   */\n    tag_22:\n        /* \"#utility.yul\":4112:4118   */\n      0x00\n        /* \"#utility.yul\":4149:4150   */\n      0x02\n        /* \"#utility.yul\":4143:4147   */\n      dup3\n        /* \"#utility.yul\":4139:4151   */\n      div\n        /* \"#utility.yul\":4129:4151   */\n      swap1\n      pop\n        /* \"#utility.yul\":4196:4197   */\n      0x01\n        /* \"#utility.yul\":4190:4194   */\n      dup3\n        /* \"#utility.yul\":4186:4198   */\n      and\n        /* \"#utility.yul\":4217:4235   */\n      dup1\n        /* \"#utility.yul\":4207:4288   */\n      tag_112\n      jumpi\n        /* \"#utility.yul\":4273:4277   */\n      0x7f\n        /* \"#utility.yul\":4265:4271   */\n      dup3\n        /* \"#utility.yul\":4261:4278   */\n      and\n        /* \"#utility.yul\":4251:4278   */\n      swap2\n      pop\n        /* \"#utility.yul\":4207:4288   */\n    tag_112:\n        /* \"#utility.yul\":4335:4337   */\n      0x20\n        /* \"#utility.yul\":4327:4333   */\n      dup3\n        /* \"#utility.yul\":4324:4338   */\n      lt\n        /* \"#utility.yul\":4304:4322   */\n      dup2\n        /* \"#utility.yul\":4301:4339   */\n      sub\n        /* \"#utility.yul\":4298:4382   */\n      tag_113\n      jumpi\n        /* \"#utility.yul\":4354:4372   */\n      tag_114\n      tag_50\n      jump\t// in\n    tag_114:\n        /* \"#utility.yul\":4298:4382   */\n    tag_113:\n        /* \"#utility.yul\":4119:4388   */\n      pop\n        /* \"#utility.yul\":4068:4388   */\n      swap2\n      swap1\n      pop\n      jump\t// out\n        /* \"#utility.yul\":4394:4491   */\n    tag_51:\n        /* \"#utility.yul\":4453:4459   */\n      0x00\n        /* \"#utility.yul\":4481:4484   */\n      dup3\n        /* \"#utility.yul\":4471:4484   */\n      swap1\n      pop\n        /* \"#utility.yul\":4394:4491   */\n      swap3\n      swap2\n      pop\n      pop\n      jump\t// out\n        /* \"#utility.yul\":4497:4677   */\n    tag_52:\n        /* \"#utility.yul\":4545:4622   */\n      0x4e487b7100000000000000000000000000000000000000000000000000000000\n        /* \"#utility.yul\":4542:4543   */\n      0x00\n        /* \"#utility.yul\":4535:4623   */\n      mstore\n        /* \"#utility.yul\":4642:4646   */\n      0x41\n        /* \"#utility.yul\":4639:4640   */\n      0x04\n        /* \"#utility.yul\":4632:4647   */\n      mstore\n        /* \"#utility.yul\":4666:4670   */\n      0x24\n        /* \"#utility.yul\":4663:4664   */\n      0x00\n        /* \"#utility.yul\":4656:4671   */\n      revert\n        /* \"#utility.yul\":4683:4824   */\n    tag_53:\n        /* \"#utility.yul\":4732:4736   */\n      0x00\n        /* \"#utility.yul\":4755:4758   */\n      dup2\n        /* \"#utility.yul\":4747:4758   */\n      swap1\n      pop\n        /* \"#utility.yul\":4778:4781   */\n      dup2\n        /* \"#utility.yul\":4775:4776   */\n      0x00\n        /* \"#utility.yul\":4768:4782   */\n      mstore\n        /* \"#utility.yul\":4812:4816   */\n      0x20\n        /* \"#utility.yul\":4809:4810   */\n      0x00\n        /* \"#utility.yul\":4799:4817   */\n      keccak256\n        /* \"#utility.yul\":4791:4817   */\n      swap1\n      pop\n        /* \"#utility.yul\":4683:4824   */\n      swap2\n      swap1\n      pop\n      jump\t// out\n        /* \"#utility.yul\":4830:4923   */\n    tag_54:\n        /* \"#utility.yul\":4867:4873   */\n      0x00\n        /* \"#utility.yul\":4914:4916   */\n      0x20\n        /* \"#utility.yul\":4909:4911   */\n      0x1f\n        /* \"#utility.yul\":4902:4907   */\n      dup4\n        /* \"#utility.yul\":4898:4912   */\n      add\n        /* \"#utility.yul\":4894:4917   */\n      div\n        /* \"#utility.yul\":4884:4917   */\n      swap1\n      pop\n        /* \"#utility.yul\":4830:4923   */\n      swap2\n      swap1\n      pop\n      jump\t// out\n        /* \"#utility.yul\":4929:5036   */\n    tag_55:\n        /* \"#utility.yul\":4973:4981   */\n      0x00\n        /* \"#utility.yul\":5023:5028   */\n      dup3\n        /* \"#utility.yul\":5017:5021   */\n      dup3\n        /* \"#utility.yul\":5013:5029   */\n      shl\n        /* \"#utility.yul\":4992:5029   */\n      swap1\n      pop\n        /* \"#utility.yul\":4929:5036   */\n      swap3\n      swap2\n      pop\n      pop\n      jump\t// out\n        /* \"#utility.yul\":5042:5435   */\n    tag_56:\n        /* \"#utility.yul\":5111:5117   */\n      0x00\n        /* \"#utility.yul\":5161:5162   */\n      0x08\n        /* \"#utility.yul\":5149:5159   */\n      dup4\n        /* \"#utility.yul\":5145:5163   */\n      mul\n        /* \"#utility.yul\":5184:5281   */\n      tag_121\n        /* \"#utility.yul\":5214:5280   */\n      0xffffffffffffffffffffffffffffffffffffffffffffffffffffffffffffffff\n        /* \"#utility.yul\":5203:5212   */\n      dup3\n        /* \"#utility.yul\":5184:5281   */\n      tag_55\n      jump\t// in\n    tag_121:\n        /* \"#utility.yul\":5302:5341   */\n      tag_122\n        /* \"#utility.yul\":5332:5340   */\n      dup7\n        /* \"#utility.yul\":5321:5330   */\n      dup4\n        /* \"#utility.yul\":5302:5341   */\n      tag_55\n      jump\t// in\n    tag_122:\n        /* \"#utility.yul\":5290:5341   */\n      swap6\n      pop\n        /* \"#utility.yul\":5374:5378   */\n      dup1\n        /* \"#utility.yul\":5370:5379   */\n      not\n        /* \"#utility.yul\":5363:5368   */\n      dup5\n        /* \"#utility.yul\":5359:5380   */\n      and\n        /* \"#utility.yul\":5350:5380   */\n      swap4\n      pop\n        /* \"#utility.yul\":5423:5427   */\n      dup1\n        /* \"#utility.yul\":5413:5421   */\n      dup7\n        /* \"#utility.yul\":5409:5428   */\n      and\n        /* \"#utility.yul\":5402:5407   */\n      dup5\n        /* \"#utility.yul\":5399:5429   */\n      or\n        /* \"#utility.yul\":5389:5429   */\n      swap3\n      pop\n        /* \"#utility.yul\":5118:5435   */\n      pop\n      pop\n        /* \"#utility.yul\":5042:5435   */\n      swap4\n      swap3\n      pop\n      pop\n      pop\n      jump\t// out\n        /* \"#utility.yul\":5441:5501   */\n    tag_57:\n        /* \"#utility.yul\":5469:5472   */\n      0x00\n        /* \"#utility.yul\":5490:5495   */\n      dup2\n        /* \"#utility.yul\":5483:5495   */\n      swap1\n      pop\n        /* \"#utility.yul\":5441:5501   */\n      swap2\n      swap1\n      pop\n      jump\t// out\n        /* \"#utility.yul\":5507:5649   */\n    tag_58:\n        /* \"#utility.yul\":5557:5566   */\n      0x00\n        /* \"#utility.yul\":5590:5643   */\n      tag_125\n        /* \"#utility.yul\":5608:5642   */\n      tag_126\n        /* \"#utility.yul\":5617:5641   */\n      tag_127\n        /* \"#utility.yul\":5635:5640   */\n      dup5\n        /* \"#utility.yul\":5617:5641   */\n      tag_38\n      jump\t// in\n    tag_127:\n        /* \"#utility.yul\":5608:5642   */\n      tag_57\n      jump\t// in\n    tag_126:\n        /* \"#utility.yul\":5590:5643   */\n      tag_38\n      jump\t// in\n    tag_125:\n        /* \"#utility.yul\":5577:5643   */\n      swap1\n      pop\n        /* \"#utility.yul\":5507:5649   */\n      swap2\n      swap1\n      pop\n      jump\t// out\n        /* \"#utility.yul\":5655:5730   */\n    tag_59:\n        /* \"#utility.yul\":5698:5701   */\n      0x00\n        /* \"#utility.yul\":5719:5724   */\n      dup2\n        /* \"#utility.yul\":5712:5724   */\n      swap1\n      pop\n        /* \"#utility.yul\":5655:5730   */\n      swap2\n      swap1\n      pop\n      jump\t// out\n        /* \"#utility.yul\":5736:6005   */\n    tag_60:\n        /* \"#utility.yul\":5846:5885   */\n      tag_130\n        /* \"#utility.yul\":5877:5884   */\n      dup4\n        /* \"#utility.yul\":5846:5885   */\n      tag_58\n      jump\t// in\n    tag_130:\n        /* \"#utility.yul\":5907:5998   */\n      tag_131\n        /* \"#utility.yul\":5956:5997   */\n      tag_132\n        /* \"#utility.yul\":5980:5996   */\n      dup3\n        /* \"#utility.yul\":5956:5997   */\n      tag_59\n      jump\t// in\n    tag_132:\n        /* \"#utility.yul\":5948:5954   */\n      dup5\n        /* \"#utility.yul\":5941:5945   */\n      dup5\n        /* \"#utility.yul\":5935:5946   */\n      sload\n        /* \"#utility.yul\":5907:5998   */\n      tag_56\n      jump\t// in\n    tag_131:\n        /* \"#utility.yul\":5901:5905   */\n      dup3\n        /* \"#utility.yul\":5894:5999   */\n      sstore\n        /* \"#utility.yul\":5812:6005   */\n      pop\n        /* \"#utility.yul\":5736:6005   */\n      pop\n      pop\n      pop\n      jump\t// out\n        /* \"#utility.yul\":6011:6084   */\n    tag_61:\n        /* \"#utility.yul\":6056:6059   */\n      0x00\n        /* \"#utility.yul\":6011:6084   */\n      swap1\n      jump\t// out\n        /* \"#utility.yul\":6090:6279   */\n    tag_62:\n        /* \"#utility.yul\":6167:6199   */\n      tag_135\n      tag_61\n      jump\t// in\n    tag_135:\n        /* \"#utility.yul\":6208:6273   */\n      tag_136\n        /* \"#utility.yul\":6266:6272   */\n      dup2\n        /* \"#utility.yul\":6258:6264   */\n      dup5\n        /* \"#utility.yul\":6252:6256   */\n      dup5\n        /* \"#utility.yul\":6208:6273   */\n      tag_60\n      jump\t// in\n    tag_136:\n        /* \"#utility.yul\":6143:6279   */\n      pop\n        /* \"#utility.yul\":6090:6279   */\n      pop\n      pop\n      jump\t// out\n        /* \"#utility.yul\":6285:6471   */\n    tag_63:\n        /* \"#utility.yul\":6345:6465   */\n    tag_138:\n        /* \"#utility.yul\":6362:6365   */\n      dup2\n        /* \"#utility.yul\":6355:6360   */\n      dup2\n        /* \"#utility.yul\":6352:6366   */\n      lt\n        /* \"#utility.yul\":6345:6465   */\n      iszero\n      tag_140\n      jumpi\n        /* \"#utility.yul\":6416:6455   */\n      tag_141\n        /* \"#utility.yul\":6453:6454   */\n      0x00\n        /* \"#utility.yul\":6446:6451   */\n      dup3\n        /* \"#utility.yul\":6416:6455   */\n      tag_62\n      jump\t// in\n    tag_141:\n        /* \"#utility.yul\":6389:6390   */\n      0x01\n        /* \"#utility.yul\":6382:6387   */\n      dup2\n        /* \"#utility.yul\":6378:6391   */\n      add\n        /* \"#utility.yul\":6369:6391   */\n      swap1\n      pop\n        /* \"#utility.yul\":6345:6465   */\n      jump(tag_138)\n    tag_140:\n        /* \"#utility.yul\":6285:6471   */\n      pop\n      pop\n      jump\t// out\n        /* \"#utility.yul\":6477:7020   */\n    tag_64:\n        /* \"#utility.yul\":6578:6580   */\n      0x1f\n        /* \"#utility.yul\":6573:6576   */\n      dup3\n        /* \"#utility.yul\":6570:6581   */\n      gt\n        /* \"#utility.yul\":6567:7013   */\n      iszero\n      tag_143\n      jumpi\n        /* \"#utility.yul\":6612:6650   */\n      tag_144\n        /* \"#utility.yul\":6644:6649   */\n      dup2\n        /* \"#utility.yul\":6612:6650   */\n      tag_53\n      jump\t// in\n    tag_144:\n        /* \"#utility.yul\":6696:6725   */\n      tag_145\n        /* \"#utility.yul\":6714:6724   */\n      dup5\n        /* \"#utility.yul\":6696:6725   */\n      tag_54\n      jump\t// in\n    tag_145:\n        /* \"#utility.yul\":6686:6694   */\n      dup2\n        /* \"#utility.yul\":6682:6726   */\n      add\n        /* \"#utility.yul\":6879:6881   */\n      0x20\n        /* \"#utility.yul\":6867:6877   */\n      dup6\n        /* \"#utility.yul\":6864:6882   */\n      lt\n        /* \"#utility.yul\":6861:6910   */\n      iszero\n      tag_146\n      jumpi\n        /* \"#utility.yul\":6900:6908   */\n      dup2\n        /* \"#utility.yul\":6885:6908   */\n      swap1\n      pop\n        /* \"#utility.yul\":6861:6910   */\n    tag_146:\n        /* \"#utility.yul\":6923:7003   */\n      tag_147\n        /* \"#utility.yul\":6979:7001   */\n      tag_148\n        /* \"#utility.yul\":6997:7000   */\n      dup6\n        /* \"#utility.yul\":6979:7001   */\n      tag_54\n      jump\t// in\n    tag_148:\n        /* \"#utility.yul\":6969:6977   */\n      dup4\n        /* \"#utility.yul\":6965:7002   */\n      add\n        /* \"#utility.yul\":6952:6963   */\n      dup3\n        /* \"#utility.yul\":6923:7003   */\n      tag_63\n      jump\t// in\n    tag_147:\n        /* \"#utility.yul\":6582:7013   */\n      pop\n      pop\n        /* \"#utility.yul\":6567:7013   */\n    tag_143:\n        /* \"#utility.yul\":6477:7020   */\n      pop\n      pop\n      pop\n      jump\t// out\n        /* \"#utility.yul\":7026:7143   */\n    tag_65:\n        /* \"#utility.yul\":7080:7088   */\n      0x00\n        /* \"#utility.yul\":7130:7135   */\n      dup3\n        /* \"#utility.yul\":7124:7128   */\n      dup3\n        /* \"#utility.yul\":7120:7136   */\n      shr\n        /* \"#utility.yul\":7099:7136   */\n      swap1\n      pop\n        /* \"#utility.yul\":7026:7143   */\n      swap3\n      swap2\n      pop\n      pop\n      jump\t// out\n        /* \"#utility.yul\":7149:7318   */\n    tag_66:\n        /* \"#utility.yul\":7193:7199   */\n      0x00\n        /* \"#utility.yul\":7226:7277   */\n      tag_151\n        /* \"#utility.yul\":7274:7275   */\n      0x00\n        /* \"#utility.yul\":7270:7276   */\n      not\n        /* \"#utility.yul\":7262:7267   */\n      dup5\n        /* \"#utility.yul\":7259:7260   */\n      0x08\n        /* \"#utility.yul\":7255:7268   */\n      mul\n        /* \"#utility.yul\":7226:7277   */\n      tag_65\n      jump\t// in\n    tag_151:\n        /* \"#utility.yul\":7222:7278   */\n      not\n        /* \"#utility.yul\":7307:7311   */\n      dup1\n        /* \"#utility.yul\":7301:7305   */\n      dup4\n        /* \"#utility.yul\":7297:7312   */\n      and\n        /* \"#utility.yul\":7287:7312   */\n      swap2\n      pop\n        /* \"#utility.yul\":7200:7318   */\n      pop\n        /* \"#utility.yul\":7149:7318   */\n      swap3\n      swap2\n      pop\n      pop\n      jump\t// out\n        /* \"#utility.yul\":7323:7618   */\n    tag_67:\n        /* \"#utility.yul\":7399:7403   */\n      0x00\n        /* \"#utility.yul\":7545:7574   */\n      tag_153\n        /* \"#utility.yul\":7570:7573   */\n      dup4\n        /* \"#utility.yul\":7564:7568   */\n      dup4\n        /* \"#utility.yul\":7545:7574   */\n      tag_66\n      jump\t// in\n    tag_153:\n        /* \"#utility.yul\":7537:7574   */\n      swap2\n      pop\n        /* \"#utility.yul\":7607:7610   */\n      dup3\n        /* \"#utility.yul\":7604:7605   */\n      0x02\n        /* \"#utility.yul\":7600:7611   */\n      mul\n        /* \"#utility.yul\":7594:7598   */\n      dup3\n        /* \"#utility.yul\":7591:7612   */\n      or\n        /* \"#utility.yul\":7583:7612   */\n      swap1\n      pop\n        /* \"#utility.yul\":7323:7618   */\n      swap3\n      swap2\n      pop\n      pop\n      jump\t// out\n        /* \"#utility.yul\":7623:9026   */\n    tag_29:\n        /* \"#utility.yul\":7747:7791   */\n      tag_155\n        /* \"#utility.yul\":7787:7790   */\n      dup4\n        /* \"#utility.yul\":7782:7785   */\n      dup4\n        /* \"#utility.yul\":7747:7791   */\n      tag_51\n      jump\t// in\n    tag_155:\n        /* \"#utility.yul\":7856:7874   */\n      0xffffffffffffffff\n        /* \"#utility.yul\":7848:7854   */\n      dup2\n        /* \"#utility.yul\":7845:7875   */\n      gt\n        /* \"#utility.yul\":7842:7898   */\n      iszero\n      tag_156\n      jumpi\n        /* \"#utility.yul\":7878:7896   */\n      tag_157\n      tag_52\n      jump\t// in\n    tag_157:\n        /* \"#utility.yul\":7842:7898   */\n    tag_156:\n        /* \"#utility.yul\":7922:7960   */\n      tag_158\n        /* \"#utility.yul\":7954:7958   */\n      dup3\n        /* \"#utility.yul\":7948:7959   */\n      sload\n        /* \"#utility.yul\":7922:7960   */\n      tag_22\n      jump\t// in\n    tag_158:\n        /* \"#utility.yul\":8007:8074   */\n      tag_159\n        /* \"#utility.yul\":8067:8073   */\n      dup3\n        /* \"#utility.yul\":8059:8065   */\n      dup3\n        /* \"#utility.yul\":8053:8057   */\n      dup6\n        /* \"#utility.yul\":8007:8074   */\n      tag_64\n      jump\t// in\n    tag_159:\n        /* \"#utility.yul\":8101:8102   */\n      0x00\n        /* \"#utility.yul\":8130:8132   */\n      0x1f\n        /* \"#utility.yul\":8122:8128   */\n      dup4\n        /* \"#utility.yul\":8119:8133   */\n      gt\n        /* \"#utility.yul\":8147:8148   */\n      0x01\n        /* \"#utility.yul\":8142:8774   */\n      dup2\n      eq\n      tag_161\n      jumpi\n        /* \"#utility.yul\":8818:8819   */\n      0x00\n        /* \"#utility.yul\":8835:8841   */\n      dup5\n        /* \"#utility.yul\":8832:8916   */\n      iszero\n      tag_162\n      jumpi\n        /* \"#utility.yul\":8891:8900   */\n      dup3\n        /* \"#utility.yul\":8886:8889   */\n      dup8\n        /* \"#utility.yul\":8882:8901   */\n      add\n        /* \"#utility.yul\":8869:8902   */\n      calldataload\n        /* \"#utility.yul\":8860:8902   */\n      swap1\n      pop\n        /* \"#utility.yul\":8832:8916   */\n    tag_162:\n        /* \"#utility.yul\":8942:9009   */\n      tag_163\n        /* \"#utility.yul\":9002:9008   */\n      dup6\n        /* \"#utility.yul\":8995:9000   */\n      dup3\n        /* \"#utility.yul\":8942:9009   */\n      tag_67\n      jump\t// in\n    tag_163:\n        /* \"#utility.yul\":8936:8940   */\n      dup7\n        /* \"#utility.yul\":8929:9010   */\n      sstore\n        /* \"#utility.yul\":8791:9020   */\n      pop\n        /* \"#utility.yul\":8112:9020   */\n      jump(tag_160)\n        /* \"#utility.yul\":8142:8774   */\n    tag_161:\n        /* \"#utility.yul\":8194:8198   */\n      0x1f\n        /* \"#utility.yul\":8190:8199   */\n      not\n        /* \"#utility.yul\":8182:8188   */\n      dup5\n        /* \"#utility.yul\":8178:8200   */\n      and\n        /* \"#utility.yul\":8228:8265   */\n      tag_164\n        /* \"#utility.yul\":8260:8264   */\n      dup7\n        /* \"#utility.yul\":8228:8265   */\n      tag_53\n      jump\t// in\n    tag_164:\n        /* \"#utility.yul\":8287:8288   */\n      0x00\n        /* \"#utility.yul\":8301:8516   */\n    tag_165:\n        /* \"#utility.yul\":8315:8322   */\n      dup3\n        /* \"#utility.yul\":8312:8313   */\n      dup2\n        /* \"#utility.yul\":8309:8323   */\n      lt\n        /* \"#utility.yul\":8301:8516   */\n      iszero\n      tag_167\n      jumpi\n        /* \"#utility.yul\":8401:8410   */\n      dup5\n        /* \"#utility.yul\":8396:8399   */\n      dup10\n        /* \"#utility.yul\":8392:8411   */\n      add\n        /* \"#utility.yul\":8379:8412   */\n      calldataload\n        /* \"#utility.yul\":8371:8377   */\n      dup3\n        /* \"#utility.yul\":8364:8413   */\n      sstore\n        /* \"#utility.yul\":8452:8453   */\n      0x01\n        /* \"#utility.yul\":8444:8450   */\n      dup3\n        /* \"#utility.yul\":8440:8454   */\n      add\n        /* \"#utility.yul\":8430:8454   */\n      swap2\n      pop\n        /* \"#utility.yul\":8499:8501   */\n      0x20\n        /* \"#utility.yul\":8488:8497   */\n      dup6\n        /* \"#utility.yul\":8484:8502   */\n      add\n        /* \"#utility.yul\":8471:8502   */\n      swap5\n      pop\n        /* \"#utility.yul\":8338:8342   */\n      0x20\n        /* \"#utility.yul\":8335:8336   */\n      dup2\n        /* \"#utility.yul\":8331:8343   */\n      add\n        /* \"#utility.yul\":8326:8343   */\n      swap1\n      pop\n        /* \"#utility.yul\":8301:8516   */\n      jump(tag_165)\n    tag_167:\n        /* \"#utility.yul\":8544:8550   */\n      dup7\n        /* \"#utility.yul\":8535:8542   */\n      dup4\n        /* \"#utility.yul\":8532:8551   */\n      lt\n        /* \"#utility.yul\":8529:8715   */\n      iszero\n      tag_168\n      jumpi\n        /* \"#utility.yul\":8609:8618   */\n      dup5\n        /* \"#utility.yul\":8604:8607   */\n      dup10\n        /* \"#utility.yul\":8600:8619   */\n      add\n        /* \"#utility.yul\":8587:8620   */\n      calldataload\n        /* \"#utility.yul\":8652:8700   */\n      tag_169\n        /* \"#utility.yul\":8694:8698   */\n      0x1f\n        /* \"#utility.yul\":8686:8692   */\n      dup10\n        /* \"#utility.yul\":8682:8699   */\n      and\n        /* \"#utility.yul\":8671:8680   */\n      dup3\n        /* \"#utility.yul\":8652:8700   */\n      tag_66\n      jump\t// in\n    tag_169:\n        /* \"#utility.yul\":8644:8650   */\n      dup4\n        /* \"#utility.yul\":8637:8701   */\n      sstore\n        /* \"#utility.yul\":8552:8715   */\n      pop\n        /* \"#utility.yul\":8529:8715   */\n    tag_168:\n        /* \"#utility.yul\":8761:8762   */\n      0x01\n        /* \"#utility.yul\":8757:8758   */\n      0x02\n        /* \"#utility.yul\":8749:8755   */\n      dup9\n        /* \"#utility.yul\":8745:8759   */\n      mul\n        /* \"#utility.yul\":8741:8763   */\n      add\n        /* \"#utility.yul\":8735:8739   */\n      dup9\n        /* \"#utility.yul\":8728:8764   */\n      sstore\n        /* \"#utility.yul\":8149:8774   */\n      pop\n      pop\n      pop\n        /* \"#utility.yul\":8112:9020   */\n    tag_160:\n      pop\n        /* \"#utility.yul\":7722:9026   */\n      pop\n      pop\n      pop\n        /* \"#utility.yul\":7623:9026   */\n      pop\n      pop\n      pop\n      jump\t// out\n\n    auxdata: 0xa26469706673582212205a656e4e6d041a091ee34acdfe6494fb3e17f82257ef6a259549b5854ca3e20364736f6c634300081a0033\n}\n",
				"bytecode": {
					"linkReferences": {},
					"object": "6080604052348015600e575f80fd5b506107068061001c5f395ff3fe608060405234801561000f575f80fd5b506004361061003f575f3560e01c80630e89341c14610043578063862440e214610073578063e3684e391461008f575b5f80fd5b61005d60048036038101906100589190610259565b6100bf565b60405161006a91906102f4565b60405180910390f35b61008d60048036038101906100889190610375565b61015f565b005b6100a960048036038101906100a49190610259565b610184565b6040516100b691906102f4565b60405180910390f35b60605f808381526020019081526020015f2080546100dc906103ff565b80601f0160208091040260200160405190810160405280929190818152602001828054610108906103ff565b80156101535780601f1061012a57610100808354040283529160200191610153565b820191905f5260205f20905b81548152906001019060200180831161013657829003601f168201915b50505050509050919050565b81815f808681526020019081526020015f20918261017e929190610603565b50505050565b5f602052805f5260405f205f91509050805461019f906103ff565b80601f01602080910402602001604051908101604052809291908181526020018280546101cb906103ff565b80156102165780601f106101ed57610100808354040283529160200191610216565b820191905f5260205f20905b8154815290600101906020018083116101f957829003601f168201915b505050505081565b5f80fd5b5f80fd5b5f819050919050565b61023881610226565b8114610242575f80fd5b50565b5f813590506102538161022f565b92915050565b5f6020828403121561026e5761026d61021e565b5b5f61027b84828501610245565b91505092915050565b5f81519050919050565b5f82825260208201905092915050565b8281835e5f83830152505050565b5f601f19601f8301169050919050565b5f6102c682610284565b6102d0818561028e565b93506102e081856020860161029e565b6102e9816102ac565b840191505092915050565b5f6020820190508181035f83015261030c81846102bc565b905092915050565b5f80fd5b5f80fd5b5f80fd5b5f8083601f84011261033557610334610314565b5b8235905067ffffffffffffffff81111561035257610351610318565b5b60208301915083600182028301111561036e5761036d61031c565b5b9250929050565b5f805f6040848603121561038c5761038b61021e565b5b5f61039986828701610245565b935050602084013567ffffffffffffffff8111156103ba576103b9610222565b5b6103c686828701610320565b92509250509250925092565b7f4e487b71000000000000000000000000000000000000000000000000000000005f52602260045260245ffd5b5f600282049050600182168061041657607f821691505b602082108103610429576104286103d2565b5b50919050565b5f82905092915050565b7f4e487b71000000000000000000000000000000000000000000000000000000005f52604160045260245ffd5b5f819050815f5260205f209050919050565b5f6020601f8301049050919050565b5f82821b905092915050565b5f600883026104c27fffffffffffffffffffffffffffffffffffffffffffffffffffffffffffffffff82610487565b6104cc8683610487565b95508019841693508086168417925050509392505050565b5f819050919050565b5f6105076105026104fd84610226565b6104e4565b610226565b9050919050565b5f819050919050565b610520836104ed565b61053461052c8261050e565b848454610493565b825550505050565b5f90565b61054861053c565b610553818484610517565b505050565b5b818110156105765761056b5f82610540565b600181019050610559565b5050565b601f8211156105bb5761058c81610466565b61059584610478565b810160208510156105a4578190505b6105b86105b085610478565b830182610558565b50505b505050565b5f82821c905092915050565b5f6105db5f19846008026105c0565b1980831691505092915050565b5f6105f383836105cc565b9150826002028217905092915050565b61060d838361042f565b67ffffffffffffffff81111561062657610625610439565b5b61063082546103ff565b61063b82828561057a565b5f601f831160018114610668575f8415610656578287013590505b61066085826105e8565b8655506106c7565b601f19841661067686610466565b5f5b8281101561069d57848901358255600182019150602085019450602081019050610678565b868310156106ba57848901356106b6601f8916826105cc565b8355505b6001600288020188555050505b5050505050505056fea26469706673582212205a656e4e6d041a091ee34acdfe6494fb3e17f82257ef6a259549b5854ca3e20364736f6c634300081a0033",
					"opcodes": "PUSH1 0x80 PUSH1 0x40 MSTORE CALLVALUE DUP1 ISZERO PUSH1 0xE JUMPI PUSH0 DUP1 REVERT JUMPDEST POP PUSH2 0x706 DUP1 PUSH2 0x1C PUSH0 CODECOPY PUSH0 RETURN INVALID PUSH1 0x80 PUSH1 0x40 MSTORE CALLVALUE DUP1 ISZERO PUSH2 0xF JUMPI PUSH0 DUP1 REVERT JUMPDEST POP PUSH1 0x4 CALLDATASIZE LT PUSH2 0x3F JUMPI PUSH0 CALLDATALOAD PUSH1 0xE0 SHR DUP1 PUSH4 0xE89341C EQ PUSH2 0x43 JUMPI DUP1 PUSH4 0x862440E2 EQ PUSH2 0x73 JUMPI DUP1 PUSH4 0xE3684E39 EQ PUSH2 0x8F JUMPI JUMPDEST PUSH0 DUP1 REVERT JUMPDEST PUSH2 0x5D PUSH1 0x4 DUP1 CALLDATASIZE SUB DUP2 ADD SWAP1 PUSH2 0x58 SWAP2 SWAP1 PUSH2 0x259 JUMP JUMPDEST PUSH2 0xBF JUMP JUMPDEST PUSH1 0x40 MLOAD PUSH2 0x6A SWAP2 SWAP1 PUSH2 0x2F4 JUMP JUMPDEST PUSH1 0x40 MLOAD DUP1 SWAP2 SUB SWAP1 RETURN JUMPDEST PUSH2 0x8D PUSH1 0x4 DUP1 CALLDATASIZE SUB DUP2 ADD SWAP1 PUSH2 0x88 SWAP2 SWAP1 PUSH2 0x375 JUMP JUMPDEST PUSH2 0x15F JUMP JUMPDEST STOP JUMPDEST PUSH2 0xA9 PUSH1 0x4 DUP1 CALLDATASIZE SUB DUP2 ADD SWAP1 PUSH2 0xA4 SWAP2 SWAP1 PUSH2 0x259 JUMP JUMPDEST PUSH2 0x184 JUMP JUMPDEST PUSH1 0x40 MLOAD PUSH2 0xB6 SWAP2 SWAP1 PUSH2 0x2F4 JUMP JUMPDEST PUSH1 0x40 MLOAD DUP1 SWAP2 SUB SWAP1 RETURN JUMPDEST PUSH1 0x60 PUSH0 DUP1 DUP4 DUP2 MSTORE PUSH1 0x20 ADD SWAP1 DUP2 MSTORE PUSH1 0x20 ADD PUSH0 KECCAK256 DUP1 SLOAD PUSH2 0xDC SWAP1 PUSH2 0x3FF JUMP JUMPDEST DUP1 PUSH1 0x1F ADD PUSH1 0x20 DUP1 SWAP2 DIV MUL PUSH1 0x20 ADD PUSH1 0x40 MLOAD SWAP1 DUP2 ADD PUSH1 0x40 MSTORE DUP1 SWAP3 SWAP2 SWAP1 DUP2 DUP2 MSTORE PUSH1 0x20 ADD DUP3 DUP1 SLOAD PUSH2 0x108 SWAP1 PUSH2 0x3FF JUMP JUMPDEST DUP1 ISZERO PUSH2 0x153 JUMPI DUP1 PUSH1 0x1F LT PUSH2 0x12A JUMPI PUSH2 0x100 DUP1 DUP4 SLOAD DIV MUL DUP4 MSTORE SWAP2 PUSH1 0x20 ADD SWAP2 PUSH2 0x153 JUMP JUMPDEST DUP3 ADD SWAP2 SWAP1 PUSH0 MSTORE PUSH1 0x20 PUSH0 KECCAK256 SWAP1 JUMPDEST DUP2 SLOAD DUP2 MSTORE SWAP1 PUSH1 0x1 ADD SWAP1 PUSH1 0x20 ADD DUP1 DUP4 GT PUSH2 0x136 JUMPI DUP3 SWAP1 SUB PUSH1 0x1F AND DUP3 ADD SWAP2 JUMPDEST POP POP POP POP POP SWAP1 POP SWAP2 SWAP1 POP JUMP JUMPDEST DUP2 DUP2 PUSH0 DUP1 DUP7 DUP2 MSTORE PUSH1 0x20 ADD SWAP1 DUP2 MSTORE PUSH1 0x20 ADD PUSH0 KECCAK256 SWAP2 DUP3 PUSH2 0x17E SWAP3 SWAP2 SWAP1 PUSH2 0x603 JUMP JUMPDEST POP POP POP POP JUMP JUMPDEST PUSH0 PUSH1 0x20 MSTORE DUP1 PUSH0 MSTORE PUSH1 0x40 PUSH0 KECCAK256 PUSH0 SWAP2 POP SWAP1 POP DUP1 SLOAD PUSH2 0x19F SWAP1 PUSH2 0x3FF JUMP JUMPDEST DUP1 PUSH1 0x1F ADD PUSH1 0x20 DUP1 SWAP2 DIV MUL PUSH1 0x20 ADD PUSH1 0x40 MLOAD SWAP1 DUP2 ADD PUSH1 0x40 MSTORE DUP1 SWAP3 SWAP2 SWAP1 DUP2 DUP2 MSTORE PUSH1 0x20 ADD DUP3 DUP1 SLOAD PUSH2 0x1CB SWAP1 PUSH2 0x3FF JUMP JUMPDEST DUP1 ISZERO PUSH2 0x216 JUMPI DUP1 PUSH1 0x1F LT PUSH2 0x1ED JUMPI PUSH2 0x100 DUP1 DUP4 SLOAD DIV MUL DUP4 MSTORE SWAP2 PUSH1 0x20 ADD SWAP2 PUSH2 0x216 JUMP JUMPDEST DUP3 ADD SWAP2 SWAP1 PUSH0 MSTORE PUSH1 0x20 PUSH0 KECCAK256 SWAP1 JUMPDEST DUP2 SLOAD DUP2 MSTORE SWAP1 PUSH1 0x1 ADD SWAP1 PUSH1 0x20 ADD DUP1 DUP4 GT PUSH2 0x1F9 JUMPI DUP3 SWAP1 SUB PUSH1 0x1F AND DUP3 ADD SWAP2 JUMPDEST POP POP POP POP POP DUP2 JUMP JUMPDEST PUSH0 DUP1 REVERT JUMPDEST PUSH0 DUP1 REVERT JUMPDEST PUSH0 DUP2 SWAP1 POP SWAP2 SWAP1 POP JUMP JUMPDEST PUSH2 0x238 DUP2 PUSH2 0x226 JUMP JUMPDEST DUP2 EQ PUSH2 0x242 JUMPI PUSH0 DUP1 REVERT JUMPDEST POP JUMP JUMPDEST PUSH0 DUP2 CALLDATALOAD SWAP1 POP PUSH2 0x253 DUP2 PUSH2 0x22F JUMP JUMPDEST SWAP3 SWAP2 POP POP JUMP JUMPDEST PUSH0 PUSH1 0x20 DUP3 DUP5 SUB SLT ISZERO PUSH2 0x26E JUMPI PUSH2 0x26D PUSH2 0x21E JUMP JUMPDEST JUMPDEST PUSH0 PUSH2 0x27B DUP5 DUP3 DUP6 ADD PUSH2 0x245 JUMP JUMPDEST SWAP2 POP POP SWAP3 SWAP2 POP POP JUMP JUMPDEST PUSH0 DUP2 MLOAD SWAP1 POP SWAP2 SWAP1 POP JUMP JUMPDEST PUSH0 DUP3 DUP3 MSTORE PUSH1 0x20 DUP3 ADD SWAP1 POP SWAP3 SWAP2 POP POP JUMP JUMPDEST DUP3 DUP2 DUP4 MCOPY PUSH0 DUP4 DUP4 ADD MSTORE POP POP POP JUMP JUMPDEST PUSH0 PUSH1 0x1F NOT PUSH1 0x1F DUP4 ADD AND SWAP1 POP SWAP2 SWAP1 POP JUMP JUMPDEST PUSH0 PUSH2 0x2C6 DUP3 PUSH2 0x284 JUMP JUMPDEST PUSH2 0x2D0 DUP2 DUP6 PUSH2 0x28E JUMP JUMPDEST SWAP4 POP PUSH2 0x2E0 DUP2 DUP6 PUSH1 0x20 DUP7 ADD PUSH2 0x29E JUMP JUMPDEST PUSH2 0x2E9 DUP2 PUSH2 0x2AC JUMP JUMPDEST DUP5 ADD SWAP2 POP POP SWAP3 SWAP2 POP POP JUMP JUMPDEST PUSH0 PUSH1 0x20 DUP3 ADD SWAP1 POP DUP2 DUP2 SUB PUSH0 DUP4 ADD MSTORE PUSH2 0x30C DUP2 DUP5 PUSH2 0x2BC JUMP JUMPDEST SWAP1 POP SWAP3 SWAP2 POP POP JUMP JUMPDEST PUSH0 DUP1 REVERT JUMPDEST PUSH0 DUP1 REVERT JUMPDEST PUSH0 DUP1 REVERT JUMPDEST PUSH0 DUP1 DUP4 PUSH1 0x1F DUP5 ADD SLT PUSH2 0x335 JUMPI PUSH2 0x334 PUSH2 0x314 JUMP JUMPDEST JUMPDEST DUP3 CALLDATALOAD SWAP1 POP PUSH8 0xFFFFFFFFFFFFFFFF DUP2 GT ISZERO PUSH2 0x352 JUMPI PUSH2 0x351 PUSH2 0x318 JUMP JUMPDEST JUMPDEST PUSH1 0x20 DUP4 ADD SWAP2 POP DUP4 PUSH1 0x1 DUP3 MUL DUP4 ADD GT ISZERO PUSH2 0x36E JUMPI PUSH2 0x36D PUSH2 0x31C JUMP JUMPDEST JUMPDEST SWAP3 POP SWAP3 SWAP1 POP JUMP JUMPDEST PUSH0 DUP1 PUSH0 PUSH1 0x40 DUP5 DUP7 SUB SLT ISZERO PUSH2 0x38C JUMPI PUSH2 0x38B PUSH2 0x21E JUMP JUMPDEST JUMPDEST PUSH0 PUSH2 0x399 DUP7 DUP3 DUP8 ADD PUSH2 0x245 JUMP JUMPDEST SWAP4 POP POP PUSH1 0x20 DUP5 ADD CALLDATALOAD PUSH8 0xFFFFFFFFFFFFFFFF DUP2 GT ISZERO PUSH2 0x3BA JUMPI PUSH2 0x3B9 PUSH2 0x222 JUMP JUMPDEST JUMPDEST PUSH2 0x3C6 DUP7 DUP3 DUP8 ADD PUSH2 0x320 JUMP JUMPDEST SWAP3 POP SWAP3 POP POP SWAP3 POP SWAP3 POP SWAP3 JUMP JUMPDEST PUSH32 0x4E487B7100000000000000000000000000000000000000000000000000000000 PUSH0 MSTORE PUSH1 0x22 PUSH1 0x4 MSTORE PUSH1 0x24 PUSH0 REVERT JUMPDEST PUSH0 PUSH1 0x2 DUP3 DIV SWAP1 POP PUSH1 0x1 DUP3 AND DUP1 PUSH2 0x416 JUMPI PUSH1 0x7F DUP3 AND SWAP2 POP JUMPDEST PUSH1 0x20 DUP3 LT DUP2 SUB PUSH2 0x429 JUMPI PUSH2 0x428 PUSH2 0x3D2 JUMP JUMPDEST JUMPDEST POP SWAP2 SWAP1 POP JUMP JUMPDEST PUSH0 DUP3 SWAP1 POP SWAP3 SWAP2 POP POP JUMP JUMPDEST PUSH32 0x4E487B7100000000000000000000000000000000000000000000000000000000 PUSH0 MSTORE PUSH1 0x41 PUSH1 0x4 MSTORE PUSH1 0x24 PUSH0 REVERT JUMPDEST PUSH0 DUP2 SWAP1 POP DUP2 PUSH0 MSTORE PUSH1 0x20 PUSH0 KECCAK256 SWAP1 POP SWAP2 SWAP1 POP JUMP JUMPDEST PUSH0 PUSH1 0x20 PUSH1 0x1F DUP4 ADD DIV SWAP1 POP SWAP2 SWAP1 POP JUMP JUMPDEST PUSH0 DUP3 DUP3 SHL SWAP1 POP SWAP3 SWAP2 POP POP JUMP JUMPDEST PUSH0 PUSH1 0x8 DUP4 MUL PUSH2 0x4C2 PUSH32 0xFFFFFFFFFFFFFFFFFFFFFFFFFFFFFFFFFFFFFFFFFFFFFFFFFFFFFFFFFFFFFFFF DUP3 PUSH2 0x487 JUMP JUMPDEST PUSH2 0x4CC DUP7 DUP4 PUSH2 0x487 JUMP JUMPDEST SWAP6 POP DUP1 NOT DUP5 AND SWAP4 POP DUP1 DUP7 AND DUP5 OR SWAP3 POP POP POP SWAP4 SWAP3 POP POP POP JUMP JUMPDEST PUSH0 DUP2 SWAP1 POP SWAP2 SWAP1 POP JUMP JUMPDEST PUSH0 PUSH2 0x507 PUSH2 0x502 PUSH2 0x4FD DUP5 PUSH2 0x226 JUMP JUMPDEST PUSH2 0x4E4 JUMP JUMPDEST PUSH2 0x226 JUMP JUMPDEST SWAP1 POP SWAP2 SWAP1 POP JUMP JUMPDEST PUSH0 DUP2 SWAP1 POP SWAP2 SWAP1 POP JUMP JUMPDEST PUSH2 0x520 DUP4 PUSH2 0x4ED JUMP JUMPDEST PUSH2 0x534 PUSH2 0x52C DUP3 PUSH2 0x50E JUMP JUMPDEST DUP5 DUP5 SLOAD PUSH2 0x493 JUMP JUMPDEST DUP3 SSTORE POP POP POP POP JUMP JUMPDEST PUSH0 SWAP1 JUMP JUMPDEST PUSH2 0x548 PUSH2 0x53C JUMP JUMPDEST PUSH2 0x553 DUP2 DUP5 DUP5 PUSH2 0x517 JUMP JUMPDEST POP POP POP JUMP JUMPDEST JUMPDEST DUP2 DUP2 LT ISZERO PUSH2 0x576 JUMPI PUSH2 0x56B PUSH0 DUP3 PUSH2 0x540 JUMP JUMPDEST PUSH1 0x1 DUP2 ADD SWAP1 POP PUSH2 0x559 JUMP JUMPDEST POP POP JUMP JUMPDEST PUSH1 0x1F DUP3 GT ISZERO PUSH2 0x5BB JUMPI PUSH2 0x58C DUP2 PUSH2 0x466 JUMP JUMPDEST PUSH2 0x595 DUP5 PUSH2 0x478 JUMP JUMPDEST DUP2 ADD PUSH1 0x20 DUP6 LT ISZERO PUSH2 0x5A4 JUMPI DUP2 SWAP1 POP JUMPDEST PUSH2 0x5B8 PUSH2 0x5B0 DUP6 PUSH2 0x478 JUMP JUMPDEST DUP4 ADD DUP3 PUSH2 0x558 JUMP JUMPDEST POP POP JUMPDEST POP POP POP JUMP JUMPDEST PUSH0 DUP3 DUP3 SHR SWAP1 POP SWAP3 SWAP2 POP POP JUMP JUMPDEST PUSH0 PUSH2 0x5DB PUSH0 NOT DUP5 PUSH1 0x8 MUL PUSH2 0x5C0 JUMP JUMPDEST NOT DUP1 DUP4 AND SWAP2 POP POP SWAP3 SWAP2 POP POP JUMP JUMPDEST PUSH0 PUSH2 0x5F3 DUP4 DUP4 PUSH2 0x5CC JUMP JUMPDEST SWAP2 POP DUP3 PUSH1 0x2 MUL DUP3 OR SWAP1 POP SWAP3 SWAP2 POP POP JUMP JUMPDEST PUSH2 0x60D DUP4 DUP4 PUSH2 0x42F JUMP JUMPDEST PUSH8 0xFFFFFFFFFFFFFFFF DUP2 GT ISZERO PUSH2 0x626 JUMPI PUSH2 0x625 PUSH2 0x439 JUMP JUMPDEST JUMPDEST PUSH2 0x630 DUP3 SLOAD PUSH2 0x3FF JUMP JUMPDEST PUSH2 0x63B DUP3 DUP3 DUP6 PUSH2 0x57A JUMP JUMPDEST PUSH0 PUSH1 0x1F DUP4 GT PUSH1 0x1 DUP2 EQ PUSH2 0x668 JUMPI PUSH0 DUP5 ISZERO PUSH2 0x656 JUMPI DUP3 DUP8 ADD CALLDATALOAD SWAP1 POP JUMPDEST PUSH2 0x660 DUP6 DUP3 PUSH2 0x5E8 JUMP JUMPDEST DUP7 SSTORE POP PUSH2 0x6C7 JUMP JUMPDEST PUSH1 0x1F NOT DUP5 AND PUSH2 0x676 DUP7 PUSH2 0x466 JUMP JUMPDEST PUSH0 JUMPDEST DUP3 DUP2 LT ISZERO PUSH2 0x69D JUMPI DUP5 DUP10 ADD CALLDATALOAD DUP3 SSTORE PUSH1 0x1 DUP3 ADD SWAP2 POP PUSH1 0x20 DUP6 ADD SWAP5 POP PUSH1 0x20 DUP2 ADD SWAP1 POP PUSH2 0x678 JUMP JUMPDEST DUP7 DUP4 LT ISZERO PUSH2 0x6BA JUMPI DUP5 DUP10 ADD CALLDATALOAD PUSH2 0x6B6 PUSH1 0x1F DUP10 AND DUP3 PUSH2 0x5CC JUMP JUMPDEST DUP4 SSTORE POP JUMPDEST PUSH1 0x1 PUSH1 0x2 DUP9 MUL ADD DUP9 SSTORE POP POP POP JUMPDEST POP POP POP POP POP POP POP JUMP INVALID LOG2 PUSH5 0x6970667358 0x22 SLT KECCAK256 GAS PUSH6 0x6E4E6D041A09 0x1E 0xE3 BLOBBASEFEE 0xCD INVALID PUSH5 0x94FB3E17F8 0x22 JUMPI 0xEF PUSH11 0x259549B5854CA3E2036473 PUSH16 0x6C634300081A00330000000000000000 "
				},
				"gasEstimates": {
					"creation": {
						"codeDepositCost": "359600",
						"executionCost": "397",
						"totalCost": "359997"
					},
					"external": {
						"metadata(uint256)": "infinite",
						"setURI(uint256,string)": "infinite",
						"uri(uint256)": "infinite"
					}
				},
				"methodIdentifiers": {
					"metadata(uint256)": "e3684e39",
					"setURI(uint256,string)": "862440e2",
					"uri(uint256)": "0e89341c"
				}
			},
			"storageLayout": {
				"storage": [
					{
						"astId": 123,
						"contract": "P/Pharming/Pharming.sol:NFTMetadataPharming",
						"label": "metadata",
						"offset": 0,
						"slot": "0",
						"type": "t_mapping(t_uint256,t_string_storage)"
					}
				],
				"types": {
					"t_mapping(t_uint256,t_string_storage)": {
						"encoding": "mapping",
						"key": "t_uint256",
						"label": "mapping(uint256 => string)",
						"numberOfBytes": "32",
						"value": "t_string_storage"
					},
					"t_string_storage": {
						"encoding": "bytes",
						"label": "string",
						"numberOfBytes": "32"
					},
					"t_uint256": {
						"encoding": "inplace",
						"label": "uint256",
						"numberOfBytes": "32"
					}
				}
			},
			"userdoc": {
				"kind": "user",
				"methods": {},
				"version": 1
			}
		}
	}
}