{
	"P/Pharming/Pharming.sol": {
		"ProxyGuard": {
			"abi": [
				{
					"stateMutability": "nonpayable",
					"type": "fallback"
				},
				{
					"inputs": [],
					"name": "admin",
					"outputs": [
						{
							"internalType": "address",
							"name": "",
							"type": "address"
						}
					],
					"stateMutability": "view",
					"type": "function"
				},
				{
					"inputs": [],
					"name": "logic",
					"outputs": [
						{
							"internalType": "address",
							"name": "",
							"type": "address"
						}
					],
					"stateMutability": "view",
					"type": "function"
				},
				{
					"inputs": [
						{
							"internalType": "address",
							"name": "newLogic",
							"type": "address"
						}
					],
					"name": "upgrade",
					"outputs": [],
					"stateMutability": "nonpayable",
					"type": "function"
				}
			],
			"devdoc": {
				"kind": "dev",
				"methods": {},
				"version": 1
			},
			"evm": {
				"assembly": "    /* \"P/Pharming/Pharming.sol\":2107:2481  contract ProxyGuard {... */\n  mstore(0x40, 0x80)\n  callvalue\n  dup1\n  iszero\n  tag_1\n  jumpi\n  0x00\n  dup1\n  revert\ntag_1:\n  pop\n  dataSize(sub_0)\n  dup1\n  dataOffset(sub_0)\n  0x00\n  codecopy\n  0x00\n  return\nstop\n\nsub_0: assembly {\n        /* \"P/Pharming/Pharming.sol\":2107:2481  contract ProxyGuard {... */\n      mstore(0x40, 0x80)\n      callvalue\n      dup1\n      iszero\n      tag_1\n      jumpi\n      0x00\n      dup1\n      revert\n    tag_1:\n      pop\n      jumpi(tag_2, lt(calldatasize, 0x04))\n      shr(0xe0, calldataload(0x00))\n      dup1\n      0x0900f010\n      eq\n      tag_4\n      jumpi\n      dup1\n      0xd7dfa0dd\n      eq\n      tag_5\n      jumpi\n      dup1\n      0xf851a440\n      eq\n      tag_6\n      jumpi\n      jump(tag_3)\n    tag_2:\n    tag_3:\n        /* \"P/Pharming/Pharming.sol\":2410:2417  bool ok */\n      0x00\n        /* \"P/Pharming/Pharming.sol\":2423:2428  logic */\n      dup1\n      0x00\n      swap1\n      sload\n      swap1\n      0x0100\n      exp\n      swap1\n      div\n      0xffffffffffffffffffffffffffffffffffffffff\n      and\n        /* \"P/Pharming/Pharming.sol\":2423:2441  logic.delegatecall */\n      0xffffffffffffffffffffffffffffffffffffffff\n      and\n        /* \"P/Pharming/Pharming.sol\":2442:2450  msg.data */\n      0x00\n      calldatasize\n        /* \"P/Pharming/Pharming.sol\":2423:2451  logic.delegatecall(msg.data) */\n      mload(0x40)\n      tag_9\n      swap3\n      swap2\n      swap1\n      tag_10\n      jump\t// in\n    tag_9:\n      0x00\n      mload(0x40)\n      dup1\n      dup4\n      sub\n      dup2\n      dup6\n      gas\n      delegatecall\n      swap2\n      pop\n      pop\n      returndatasize\n      dup1\n      0x00\n      dup2\n      eq\n      tag_13\n      jumpi\n      mload(0x40)\n      swap2\n      pop\n      and(add(returndatasize, 0x3f), not(0x1f))\n      dup3\n      add\n      0x40\n      mstore\n      returndatasize\n      dup3\n      mstore\n      returndatasize\n      0x00\n      0x20\n      dup5\n      add\n      returndatacopy\n      jump(tag_12)\n    tag_13:\n      0x60\n      swap2\n      pop\n    tag_12:\n      pop\n        /* \"P/Pharming/Pharming.sol\":2409:2451  (bool ok, ) = logic.delegatecall(msg.data) */\n      pop\n      swap1\n      pop\n        /* \"P/Pharming/Pharming.sol\":2469:2471  ok */\n      dup1\n        /* \"P/Pharming/Pharming.sol\":2461:2472  require(ok) */\n      tag_14\n      jumpi\n      0x00\n      dup1\n      revert\n    tag_14:\n        /* \"P/Pharming/Pharming.sol\":2399:2479  {... */\n      stop\n        /* \"P/Pharming/Pharming.sol\":2286:2373  function upgrade(address newLogic) external onlyAdmin {... */\n    tag_4:\n      tag_15\n      0x04\n      dup1\n      calldatasize\n      sub\n      dup2\n      add\n      swap1\n      tag_16\n      swap2\n      swap1\n      tag_17\n      jump\t// in\n    tag_16:\n      tag_18\n      jump\t// in\n    tag_15:\n      stop\n        /* \"P/Pharming/Pharming.sol\":2133:2153  address public logic */\n    tag_5:\n      tag_19\n      tag_20\n      jump\t// in\n    tag_19:\n      mload(0x40)\n      tag_21\n      swap2\n      swap1\n      tag_22\n      jump\t// in\n    tag_21:\n      mload(0x40)\n      dup1\n      swap2\n      sub\n      swap1\n      return\n        /* \"P/Pharming/Pharming.sol\":2159:2179  address public admin */\n    tag_6:\n      tag_23\n      tag_24\n      jump\t// in\n    tag_23:\n      mload(0x40)\n      tag_25\n      swap2\n      swap1\n      tag_22\n      jump\t// in\n    tag_25:\n      mload(0x40)\n      dup1\n      swap2\n      sub\n      swap1\n      return\n        /* \"P/Pharming/Pharming.sol\":2286:2373  function upgrade(address newLogic) external onlyAdmin {... */\n    tag_18:\n        /* \"P/Pharming/Pharming.sol\":2239:2244  admin */\n      0x01\n      0x00\n      swap1\n      sload\n      swap1\n      0x0100\n      exp\n      swap1\n      div\n      0xffffffffffffffffffffffffffffffffffffffff\n      and\n        /* \"P/Pharming/Pharming.sol\":2225:2244  msg.sender == admin */\n      0xffffffffffffffffffffffffffffffffffffffff\n      and\n        /* \"P/Pharming/Pharming.sol\":2225:2235  msg.sender */\n      caller\n        /* \"P/Pharming/Pharming.sol\":2225:2244  msg.sender == admin */\n      0xffffffffffffffffffffffffffffffffffffffff\n      and\n      eq\n        /* \"P/Pharming/Pharming.sol\":2217:2262  require(msg.sender == admin, \"Access Denied\") */\n      tag_27\n      jumpi\n      mload(0x40)\n      0x08c379a000000000000000000000000000000000000000000000000000000000\n      dup2\n      mstore\n      0x04\n      add\n      tag_28\n      swap1\n      tag_29\n      jump\t// in\n    tag_28:\n      mload(0x40)\n      dup1\n      swap2\n      sub\n      swap1\n      revert\n    tag_27:\n        /* \"P/Pharming/Pharming.sol\":2358:2366  newLogic */\n      dup1\n        /* \"P/Pharming/Pharming.sol\":2350:2355  logic */\n      0x00\n      dup1\n        /* \"P/Pharming/Pharming.sol\":2350:2366  logic = newLogic */\n      0x0100\n      exp\n      dup2\n      sload\n      dup2\n      0xffffffffffffffffffffffffffffffffffffffff\n      mul\n      not\n      and\n      swap1\n      dup4\n      0xffffffffffffffffffffffffffffffffffffffff\n      and\n      mul\n      or\n      swap1\n      sstore\n      pop\n        /* \"P/Pharming/Pharming.sol\":2286:2373  function upgrade(address newLogic) external onlyAdmin {... */\n      pop\n      jump\t// out\n        /* \"P/Pharming/Pharming.sol\":2133:2153  address public logic */\n    tag_20:\n      0x00\n      dup1\n      sload\n      swap1\n      0x0100\n      exp\n      swap1\n      div\n      0xffffffffffffffffffffffffffffffffffffffff\n      and\n      dup2\n      jump\t// out\n        /* \"P/Pharming/Pharming.sol\":2159:2179  address public admin */\n    tag_24:\n      0x01\n      0x00\n      swap1\n      sload\n      swap1\n      0x0100\n      exp\n      swap1\n      div\n      0xffffffffffffffffffffffffffffffffffffffff\n      and\n      dup2\n      jump\t// out\n        /* \"#utility.yul\":7:154   */\n    tag_31:\n        /* \"#utility.yul\":108:119   */\n      0x00\n        /* \"#utility.yul\":145:148   */\n      dup2\n        /* \"#utility.yul\":130:148   */\n      swap1\n      pop\n        /* \"#utility.yul\":7:154   */\n      swap3\n      swap2\n      pop\n      pop\n      jump\t// out\n        /* \"#utility.yul\":160:308   */\n    tag_32:\n        /* \"#utility.yul\":258:264   */\n      dup3\n        /* \"#utility.yul\":253:256   */\n      dup2\n        /* \"#utility.yul\":248:251   */\n      dup4\n        /* \"#utility.yul\":235:265   */\n      calldatacopy\n        /* \"#utility.yul\":299:300   */\n      0x00\n        /* \"#utility.yul\":290:296   */\n      dup4\n        /* \"#utility.yul\":285:288   */\n      dup4\n        /* \"#utility.yul\":281:297   */\n      add\n        /* \"#utility.yul\":274:301   */\n      mstore\n        /* \"#utility.yul\":160:308   */\n      pop\n      pop\n      pop\n      jump\t// out\n        /* \"#utility.yul\":336:663   */\n    tag_33:\n        /* \"#utility.yul\":450:453   */\n      0x00\n        /* \"#utility.yul\":471:559   */\n      tag_49\n        /* \"#utility.yul\":552:558   */\n      dup4\n        /* \"#utility.yul\":547:550   */\n      dup6\n        /* \"#utility.yul\":471:559   */\n      tag_31\n      jump\t// in\n    tag_49:\n        /* \"#utility.yul\":464:559   */\n      swap4\n      pop\n        /* \"#utility.yul\":569:625   */\n      tag_50\n        /* \"#utility.yul\":618:624   */\n      dup4\n        /* \"#utility.yul\":613:616   */\n      dup6\n        /* \"#utility.yul\":606:611   */\n      dup5\n        /* \"#utility.yul\":569:625   */\n      tag_32\n      jump\t// in\n    tag_50:\n        /* \"#utility.yul\":650:656   */\n      dup3\n        /* \"#utility.yul\":645:648   */\n      dup5\n        /* \"#utility.yul\":641:657   */\n      add\n        /* \"#utility.yul\":634:657   */\n      swap1\n      pop\n        /* \"#utility.yul\":336:663   */\n      swap4\n      swap3\n      pop\n      pop\n      pop\n      jump\t// out\n        /* \"#utility.yul\":669:960   */\n    tag_10:\n        /* \"#utility.yul\":809:812   */\n      0x00\n        /* \"#utility.yul\":831:934   */\n      tag_52\n        /* \"#utility.yul\":930:933   */\n      dup3\n        /* \"#utility.yul\":921:927   */\n      dup5\n        /* \"#utility.yul\":913:919   */\n      dup7\n        /* \"#utility.yul\":831:934   */\n      tag_33\n      jump\t// in\n    tag_52:\n        /* \"#utility.yul\":824:934   */\n      swap2\n      pop\n        /* \"#utility.yul\":951:954   */\n      dup2\n        /* \"#utility.yul\":944:954   */\n      swap1\n      pop\n        /* \"#utility.yul\":669:960   */\n      swap4\n      swap3\n      pop\n      pop\n      pop\n      jump\t// out\n        /* \"#utility.yul\":1047:1164   */\n    tag_35:\n        /* \"#utility.yul\":1156:1157   */\n      0x00\n        /* \"#utility.yul\":1153:1154   */\n      dup1\n        /* \"#utility.yul\":1146:1158   */\n      revert\n        /* \"#utility.yul\":1293:1419   */\n    tag_37:\n        /* \"#utility.yul\":1330:1337   */\n      0x00\n        /* \"#utility.yul\":1370:1412   */\n      0xffffffffffffffffffffffffffffffffffffffff\n        /* \"#utility.yul\":1363:1368   */\n      dup3\n        /* \"#utility.yul\":1359:1413   */\n      and\n        /* \"#utility.yul\":1348:1413   */\n      swap1\n      pop\n        /* \"#utility.yul\":1293:1419   */\n      swap2\n      swap1\n      pop\n      jump\t// out\n        /* \"#utility.yul\":1425:1521   */\n    tag_38:\n        /* \"#utility.yul\":1462:1469   */\n      0x00\n        /* \"#utility.yul\":1491:1515   */\n      tag_58\n        /* \"#utility.yul\":1509:1514   */\n      dup3\n        /* \"#utility.yul\":1491:1515   */\n      tag_37\n      jump\t// in\n    tag_58:\n        /* \"#utility.yul\":1480:1515   */\n      swap1\n      pop\n        /* \"#utility.yul\":1425:1521   */\n      swap2\n      swap1\n      pop\n      jump\t// out\n        /* \"#utility.yul\":1527:1649   */\n    tag_39:\n        /* \"#utility.yul\":1600:1624   */\n      tag_60\n        /* \"#utility.yul\":1618:1623   */\n      dup2\n        /* \"#utility.yul\":1600:1624   */\n      tag_38\n      jump\t// in\n    tag_60:\n        /* \"#utility.yul\":1593:1598   */\n      dup2\n        /* \"#utility.yul\":1590:1625   */\n      eq\n        /* \"#utility.yul\":1580:1643   */\n      tag_61\n      jumpi\n        /* \"#utility.yul\":1639:1640   */\n      0x00\n        /* \"#utility.yul\":1636:1637   */\n      dup1\n        /* \"#utility.yul\":1629:1641   */\n      revert\n        /* \"#utility.yul\":1580:1643   */\n    tag_61:\n        /* \"#utility.yul\":1527:1649   */\n      pop\n      jump\t// out\n        /* \"#utility.yul\":1655:1794   */\n    tag_40:\n        /* \"#utility.yul\":1701:1706   */\n      0x00\n        /* \"#utility.yul\":1739:1745   */\n      dup2\n        /* \"#utility.yul\":1726:1746   */\n      calldataload\n        /* \"#utility.yul\":1717:1746   */\n      swap1\n      pop\n        /* \"#utility.yul\":1755:1788   */\n      tag_63\n        /* \"#utility.yul\":1782:1787   */\n      dup2\n        /* \"#utility.yul\":1755:1788   */\n      tag_39\n      jump\t// in\n    tag_63:\n        /* \"#utility.yul\":1655:1794   */\n      swap3\n      swap2\n      pop\n      pop\n      jump\t// out\n        /* \"#utility.yul\":1800:2129   */\n    tag_17:\n        /* \"#utility.yul\":1859:1865   */\n      0x00\n        /* \"#utility.yul\":1908:1910   */\n      0x20\n        /* \"#utility.yul\":1896:1905   */\n      dup3\n        /* \"#utility.yul\":1887:1894   */\n      dup5\n        /* \"#utility.yul\":1883:1906   */\n      sub\n        /* \"#utility.yul\":1879:1911   */\n      slt\n        /* \"#utility.yul\":1876:1995   */\n      iszero\n      tag_65\n      jumpi\n        /* \"#utility.yul\":1914:1993   */\n      tag_66\n      tag_35\n      jump\t// in\n    tag_66:\n        /* \"#utility.yul\":1876:1995   */\n    tag_65:\n        /* \"#utility.yul\":2034:2035   */\n      0x00\n        /* \"#utility.yul\":2059:2112   */\n      tag_67\n        /* \"#utility.yul\":2104:2111   */\n      dup5\n        /* \"#utility.yul\":2095:2101   */\n      dup3\n        /* \"#utility.yul\":2084:2093   */\n      dup6\n        /* \"#utility.yul\":2080:2102   */\n      add\n        /* \"#utility.yul\":2059:2112   */\n      tag_40\n      jump\t// in\n    tag_67:\n        /* \"#utility.yul\":2049:2112   */\n      swap2\n      pop\n        /* \"#utility.yul\":2005:2122   */\n      pop\n        /* \"#utility.yul\":1800:2129   */\n      swap3\n      swap2\n      pop\n      pop\n      jump\t// out\n        /* \"#utility.yul\":2135:2253   */\n    tag_41:\n        /* \"#utility.yul\":2222:2246   */\n      tag_69\n        /* \"#utility.yul\":2240:2245   */\n      dup2\n        /* \"#utility.yul\":2222:2246   */\n      tag_38\n      jump\t// in\n    tag_69:\n        /* \"#utility.yul\":2217:2220   */\n      dup3\n        /* \"#utility.yul\":2210:2247   */\n      mstore\n        /* \"#utility.yul\":2135:2253   */\n      pop\n      pop\n      jump\t// out\n        /* \"#utility.yul\":2259:2481   */\n    tag_22:\n        /* \"#utility.yul\":2352:2356   */\n      0x00\n        /* \"#utility.yul\":2390:2392   */\n      0x20\n        /* \"#utility.yul\":2379:2388   */\n      dup3\n        /* \"#utility.yul\":2375:2393   */\n      add\n        /* \"#utility.yul\":2367:2393   */\n      swap1\n      pop\n        /* \"#utility.yul\":2403:2474   */\n      tag_71\n        /* \"#utility.yul\":2471:2472   */\n      0x00\n        /* \"#utility.yul\":2460:2469   */\n      dup4\n        /* \"#utility.yul\":2456:2473   */\n      add\n        /* \"#utility.yul\":2447:2453   */\n      dup5\n        /* \"#utility.yul\":2403:2474   */\n      tag_41\n      jump\t// in\n    tag_71:\n        /* \"#utility.yul\":2259:2481   */\n      swap3\n      swap2\n      pop\n      pop\n      jump\t// out\n        /* \"#utility.yul\":2487:2656   */\n    tag_42:\n        /* \"#utility.yul\":2571:2582   */\n      0x00\n        /* \"#utility.yul\":2605:2611   */\n      dup3\n        /* \"#utility.yul\":2600:2603   */\n      dup3\n        /* \"#utility.yul\":2593:2612   */\n      mstore\n        /* \"#utility.yul\":2645:2649   */\n      0x20\n        /* \"#utility.yul\":2640:2643   */\n      dup3\n        /* \"#utility.yul\":2636:2650   */\n      add\n        /* \"#utility.yul\":2621:2650   */\n      swap1\n      pop\n        /* \"#utility.yul\":2487:2656   */\n      swap3\n      swap2\n      pop\n      pop\n      jump\t// out\n        /* \"#utility.yul\":2662:2825   */\n    tag_43:\n        /* \"#utility.yul\":2802:2817   */\n      0x4163636573732044656e69656400000000000000000000000000000000000000\n        /* \"#utility.yul\":2798:2799   */\n      0x00\n        /* \"#utility.yul\":2790:2796   */\n      dup3\n        /* \"#utility.yul\":2786:2800   */\n      add\n        /* \"#utility.yul\":2779:2818   */\n      mstore\n        /* \"#utility.yul\":2662:2825   */\n      pop\n      jump\t// out\n        /* \"#utility.yul\":2831:3197   */\n    tag_44:\n        /* \"#utility.yul\":2973:2976   */\n      0x00\n        /* \"#utility.yul\":2994:3061   */\n      tag_75\n        /* \"#utility.yul\":3058:3060   */\n      0x0d\n        /* \"#utility.yul\":3053:3056   */\n      dup4\n        /* \"#utility.yul\":2994:3061   */\n      tag_42\n      jump\t// in\n    tag_75:\n        /* \"#utility.yul\":2987:3061   */\n      swap2\n      pop\n        /* \"#utility.yul\":3070:3163   */\n      tag_76\n        /* \"#utility.yul\":3159:3162   */\n      dup3\n        /* \"#utility.yul\":3070:3163   */\n      tag_43\n      jump\t// in\n    tag_76:\n        /* \"#utility.yul\":3188:3190   */\n      0x20\n        /* \"#utility.yul\":3183:3186   */\n      dup3\n        /* \"#utility.yul\":3179:3191   */\n      add\n        /* \"#utility.yul\":3172:3191   */\n      swap1\n      pop\n        /* \"#utility.yul\":2831:3197   */\n      swap2\n      swap1\n      pop\n      jump\t// out\n        /* \"#utility.yul\":3203:3622   */\n    tag_29:\n        /* \"#utility.yul\":3369:3373   */\n      0x00\n        /* \"#utility.yul\":3407:3409   */\n      0x20\n        /* \"#utility.yul\":3396:3405   */\n      dup3\n        /* \"#utility.yul\":3392:3410   */\n      add\n        /* \"#utility.yul\":3384:3410   */\n      swap1\n      pop\n        /* \"#utility.yul\":3456:3465   */\n      dup2\n        /* \"#utility.yul\":3450:3454   */\n      dup2\n        /* \"#utility.yul\":3446:3466   */\n      sub\n        /* \"#utility.yul\":3442:3443   */\n      0x00\n        /* \"#utility.yul\":3431:3440   */\n      dup4\n        /* \"#utility.yul\":3427:3444   */\n      add\n        /* \"#utility.yul\":3420:3467   */\n      mstore\n        /* \"#utility.yul\":3484:3615   */\n      tag_78\n        /* \"#utility.yul\":3610:3614   */\n      dup2\n        /* \"#utility.yul\":3484:3615   */\n      tag_44\n      jump\t// in\n    tag_78:\n        /* \"#utility.yul\":3476:3615   */\n      swap1\n      pop\n        /* \"#utility.yul\":3203:3622   */\n      swap2\n      swap1\n      pop\n      jump\t// out\n\n    auxdata: 0xa2646970667358221220ec3100a51d23278e421492b4bba035879364481b4e72faae544df74b2b36f82764736f6c634300081a0033\n}\n",
				"bytecode": {
					"linkReferences": {},
					"object": "6080604052348015600e575f80fd5b506103fc8061001c5f395ff3fe608060405234801561000f575f80fd5b5060043610610043575f3560e01c80630900f010146100d8578063d7dfa0dd146100f4578063f851a4401461011257610044565b5b5f805f9054906101000a900473ffffffffffffffffffffffffffffffffffffffff1673ffffffffffffffffffffffffffffffffffffffff165f3660405161008c929190610285565b5f60405180830381855af49150503d805f81146100c4576040519150601f19603f3d011682016040523d82523d5f602084013e6100c9565b606091505b50509050806100d6575f80fd5b005b6100f260048036038101906100ed91906102fb565b610130565b005b6100fc610201565b6040516101099190610335565b60405180910390f35b61011a610224565b6040516101279190610335565b60405180910390f35b60015f9054906101000a900473ffffffffffffffffffffffffffffffffffffffff1673ffffffffffffffffffffffffffffffffffffffff163373ffffffffffffffffffffffffffffffffffffffff16146101bf576040517f08c379a00000000000000000000000000000000000000000000000000000000081526004016101b6906103a8565b60405180910390fd5b805f806101000a81548173ffffffffffffffffffffffffffffffffffffffff021916908373ffffffffffffffffffffffffffffffffffffffff16021790555050565b5f8054906101000a900473ffffffffffffffffffffffffffffffffffffffff1681565b60015f9054906101000a900473ffffffffffffffffffffffffffffffffffffffff1681565b5f81905092915050565b828183375f83830152505050565b5f61026c8385610249565b9350610279838584610253565b82840190509392505050565b5f610291828486610261565b91508190509392505050565b5f80fd5b5f73ffffffffffffffffffffffffffffffffffffffff82169050919050565b5f6102ca826102a1565b9050919050565b6102da816102c0565b81146102e4575f80fd5b50565b5f813590506102f5816102d1565b92915050565b5f602082840312156103105761030f61029d565b5b5f61031d848285016102e7565b91505092915050565b61032f816102c0565b82525050565b5f6020820190506103485f830184610326565b92915050565b5f82825260208201905092915050565b7f4163636573732044656e696564000000000000000000000000000000000000005f82015250565b5f610392600d8361034e565b915061039d8261035e565b602082019050919050565b5f6020820190508181035f8301526103bf81610386565b905091905056fea2646970667358221220ec3100a51d23278e421492b4bba035879364481b4e72faae544df74b2b36f82764736f6c634300081a0033",
					"opcodes": "PUSH1 0x80 PUSH1 0x40 MSTORE CALLVALUE DUP1 ISZERO PUSH1 0xE JUMPI PUSH0 DUP1 REVERT JUMPDEST POP PUSH2 0x3FC DUP1 PUSH2 0x1C PUSH0 CODECOPY PUSH0 RETURN INVALID PUSH1 0x80 PUSH1 0x40 MSTORE CALLVALUE DUP1 ISZERO PUSH2 0xF JUMPI PUSH0 DUP1 REVERT JUMPDEST POP PUSH1 0x4 CALLDATASIZE LT PUSH2 0x43 JUMPI PUSH0 CALLDATALOAD PUSH1 0xE0 SHR DUP1 PUSH4 0x900F010 EQ PUSH2 0xD8 JUMPI DUP1 PUSH4 0xD7DFA0DD EQ PUSH2 0xF4 JUMPI DUP1 PUSH4 0xF851A440 EQ PUSH2 0x112 JUMPI PUSH2 0x44 JUMP JUMPDEST JUMPDEST PUSH0 DUP1 PUSH0 SWAP1 SLOAD SWAP1 PUSH2 0x100 EXP SWAP1 DIV PUSH20 0xFFFFFFFFFFFFFFFFFFFFFFFFFFFFFFFFFFFFFFFF AND PUSH20 0xFFFFFFFFFFFFFFFFFFFFFFFFFFFFFFFFFFFFFFFF AND PUSH0 CALLDATASIZE PUSH1 0x40 MLOAD PUSH2 0x8C SWAP3 SWAP2 SWAP1 PUSH2 0x285 JUMP JUMPDEST PUSH0 PUSH1 0x40 MLOAD DUP1 DUP4 SUB DUP2 DUP6 GAS DELEGATECALL SWAP2 POP POP RETURNDATASIZE DUP1 PUSH0 DUP2 EQ PUSH2 0xC4 JUMPI PUSH1 0x40 MLOAD SWAP2 POP PUSH1 0x1F NOT PUSH1 0x3F RETURNDATASIZE ADD AND DUP3 ADD PUSH1 0x40 MSTORE RETURNDATASIZE DUP3 MSTORE RETURNDATASIZE PUSH0 PUSH1 0x20 DUP5 ADD RETURNDATACOPY PUSH2 0xC9 JUMP JUMPDEST PUSH1 0x60 SWAP2 POP JUMPDEST POP POP SWAP1 POP DUP1 PUSH2 0xD6 JUMPI PUSH0 DUP1 REVERT JUMPDEST STOP JUMPDEST PUSH2 0xF2 PUSH1 0x4 DUP1 CALLDATASIZE SUB DUP2 ADD SWAP1 PUSH2 0xED SWAP2 SWAP1 PUSH2 0x2FB JUMP JUMPDEST PUSH2 0x130 JUMP JUMPDEST STOP JUMPDEST PUSH2 0xFC PUSH2 0x201 JUMP JUMPDEST PUSH1 0x40 MLOAD PUSH2 0x109 SWAP2 SWAP1 PUSH2 0x335 JUMP JUMPDEST PUSH1 0x40 MLOAD DUP1 SWAP2 SUB SWAP1 RETURN JUMPDEST PUSH2 0x11A PUSH2 0x224 JUMP JUMPDEST PUSH1 0x40 MLOAD PUSH2 0x127 SWAP2 SWAP1 PUSH2 0x335 JUMP JUMPDEST PUSH1 0x40 MLOAD DUP1 SWAP2 SUB SWAP1 RETURN JUMPDEST PUSH1 0x1 PUSH0 SWAP1 SLOAD SWAP1 PUSH2 0x100 EXP SWAP1 DIV PUSH20 0xFFFFFFFFFFFFFFFFFFFFFFFFFFFFFFFFFFFFFFFF AND PUSH20 0xFFFFFFFFFFFFFFFFFFFFFFFFFFFFFFFFFFFFFFFF AND CALLER PUSH20 0xFFFFFFFFFFFFFFFFFFFFFFFFFFFFFFFFFFFFFFFF AND EQ PUSH2 0x1BF JUMPI PUSH1 0x40 MLOAD PUSH32 0x8C379A000000000000000000000000000000000000000000000000000000000 DUP2 MSTORE PUSH1 0x4 ADD PUSH2 0x1B6 SWAP1 PUSH2 0x3A8 JUMP JUMPDEST PUSH1 0x40 MLOAD DUP1 SWAP2 SUB SWAP1 REVERT JUMPDEST DUP1 PUSH0 DUP1 PUSH2 0x100 EXP DUP2 SLOAD DUP2 PUSH20 0xFFFFFFFFFFFFFFFFFFFFFFFFFFFFFFFFFFFFFFFF MUL NOT AND SWAP1 DUP4 PUSH20 0xFFFFFFFFFFFFFFFFFFFFFFFFFFFFFFFFFFFFFFFF AND MUL OR SWAP1 SSTORE POP POP JUMP JUMPDEST PUSH0 DUP1 SLOAD SWAP1 PUSH2 0x100 EXP SWAP1 DIV PUSH20 0xFFFFFFFFFFFFFFFFFFFFFFFFFFFFFFFFFFFFFFFF AND DUP2 JUMP JUMPDEST PUSH1 0x1 PUSH0 SWAP1 SLOAD SWAP1 PUSH2 0x100 EXP SWAP1 DIV PUSH20 0xFFFFFFFFFFFFFFFFFFFFFFFFFFFFFFFFFFFFFFFF AND DUP2 JUMP JUMPDEST PUSH0 DUP2 SWAP1 POP SWAP3 SWAP2 POP POP JUMP JUMPDEST DUP3 DUP2 DUP4 CALLDATACOPY PUSH0 DUP4 DUP4 ADD MSTORE POP POP POP JUMP JUMPDEST PUSH0 PUSH2 0x26C DUP4 DUP6 PUSH2 0x249 JUMP JUMPDEST SWAP4 POP PUSH2 0x279 DUP4 DUP6 DUP5 PUSH2 0x253 JUMP JUMPDEST DUP3 DUP5 ADD SWAP1 POP SWAP4 SWAP3 POP POP POP JUMP JUMPDEST PUSH0 PUSH2 0x291 DUP3 DUP5 DUP7 PUSH2 0x261 JUMP JUMPDEST SWAP2 POP DUP2 SWAP1 POP SWAP4 SWAP3 POP POP POP JUMP JUMPDEST PUSH0 DUP1 REVERT JUMPDEST PUSH0 PUSH20 0xFFFFFFFFFFFFFFFFFFFFFFFFFFFFFFFFFFFFFFFF DUP3 AND SWAP1 POP SWAP2 SWAP1 POP JUMP JUMPDEST PUSH0 PUSH2 0x2CA DUP3 PUSH2 0x2A1 JUMP JUMPDEST SWAP1 POP SWAP2 SWAP1 POP JUMP JUMPDEST PUSH2 0x2DA DUP2 PUSH2 0x2C0 JUMP JUMPDEST DUP2 EQ PUSH2 0x2E4 JUMPI PUSH0 DUP1 REVERT JUMPDEST POP JUMP JUMPDEST PUSH0 DUP2 CALLDATALOAD SWAP1 POP PUSH2 0x2F5 DUP2 PUSH2 0x2D1 JUMP JUMPDEST SWAP3 SWAP2 POP POP JUMP JUMPDEST PUSH0 PUSH1 0x20 DUP3 DUP5 SUB SLT ISZERO PUSH2 0x310 JUMPI PUSH2 0x30F PUSH2 0x29D JUMP JUMPDEST JUMPDEST PUSH0 PUSH2 0x31D DUP5 DUP3 DUP6 ADD PUSH2 0x2E7 JUMP JUMPDEST SWAP2 POP POP SWAP3 SWAP2 POP POP JUMP JUMPDEST PUSH2 0x32F DUP2 PUSH2 0x2C0 JUMP JUMPDEST DUP3 MSTORE POP POP JUMP JUMPDEST PUSH0 PUSH1 0x20 DUP3 ADD SWAP1 POP PUSH2 0x348 PUSH0 DUP4 ADD DUP5 PUSH2 0x326 JUMP JUMPDEST SWAP3 SWAP2 POP POP JUMP JUMPDEST PUSH0 DUP3 DUP3 MSTORE PUSH1 0x20 DUP3 ADD SWAP1 POP SWAP3 SWAP2 POP POP JUMP JUMPDEST PUSH32 0x4163636573732044656E69656400000000000000000000000000000000000000 PUSH0 DUP3 ADD MSTORE POP JUMP JUMPDEST PUSH0 PUSH2 0x392 PUSH1 0xD DUP4 PUSH2 0x34E JUMP JUMPDEST SWAP2 POP PUSH2 0x39D DUP3 PUSH2 0x35E JUMP JUMPDEST PUSH1 0x20 DUP3 ADD SWAP1 POP SWAP2 SWAP1 POP JUMP JUMPDEST PUSH0 PUSH1 0x20 DUP3 ADD SWAP1 POP DUP2 DUP2 SUB PUSH0 DUP4 ADD MSTORE PUSH2 0x3BF DUP2 PUSH2 0x386 JUMP JUMPDEST SWAP1 POP SWAP2 SWAP1 POP JUMP INVALID LOG2 PUSH5 0x6970667358 0x22 SLT KECCAK256 0xEC BALANCE STOP 0xA5 SAR 0x23 0x27 DUP15 TIMESTAMP EQ SWAP3 0xB4 0xBB LOG0 CALLDATALOAD DUP8 SWAP4 PUSH5 0x481B4E72FA 0xAE SLOAD 0x4D 0xF7 0x4B 0x2B CALLDATASIZE 0xF8 0x27 PUSH5 0x736F6C6343 STOP ADDMOD BYTE STOP CALLER "
				},
				"gasEstimates": {
					"creation": {
						"codeDepositCost": "204000",
						"executionCost": "243",
						"totalCost": "204243"
					},
					"external": {
						"": "infinite",
						"admin()": "2530",
						"logic()": "2505",
						"upgrade(address)": "26862"
					}
				},
				"methodIdentifiers": {
					"admin()": "f851a440",
					"logic()": "d7dfa0dd",
					"upgrade(address)": "0900f010"
				}
			},
			"storageLayout": {
				"storage": [
					{
						"astId": 185,
						"contract": "P/Pharming/Pharming.sol:ProxyGuard",
						"label": "logic",
						"offset": 0,
						"slot": "0",
						"type": "t_address"
					},
					{
						"astId": 187,
						"contract": "P/Pharming/Pharming.sol:ProxyGuard",
						"label": "admin",
						"offset": 0,
						"slot": "1",
						"type": "t_address"
					}
				],
				"types": {
					"t_address": {
						"encoding": "inplace",
						"label": "address",
						"numberOfBytes": "20"
					}
				}
			},
			"userdoc": {
				"kind": "user",
				"methods": {},
				"version": 1
			}
		}
	}
}