{
	"P/Pharming/Pharming.sol": {
		"OraclePoison": {
			"abi": [
				{
					"inputs": [],
					"name": "dataSource",
					"outputs": [
						{
							"internalType": "address",
							"name": "",
							"type": "address"
						}
					],
					"stateMutability": "view",
					"type": "function"
				},
				{
					"inputs": [],
					"name": "fetch",
					"outputs": [
						{
							"internalType": "uint256",
							"name": "",
							"type": "uint256"
						}
					],
					"stateMutability": "view",
					"type": "function"
				},
				{
					"inputs": [
						{
							"internalType": "address",
							"name": "o",
							"type": "address"
						}
					],
					"name": "setSource",
					"outputs": [],
					"stateMutability": "nonpayable",
					"type": "function"
				}
			],
			"devdoc": {
				"kind": "dev",
				"methods": {},
				"version": 1
			},
			"evm": {
				"assembly": "    /* \"P/Pharming/Pharming.sol\":1045:1281  contract OraclePoison {... */\n  mstore(0x40, 0x80)\n  callvalue\n  dup1\n  iszero\n  tag_1\n  jumpi\n  0x00\n  dup1\n  revert\ntag_1:\n  pop\n  dataSize(sub_0)\n  dup1\n  dataOffset(sub_0)\n  0x00\n  codecopy\n  0x00\n  return\nstop\n\nsub_0: assembly {\n        /* \"P/Pharming/Pharming.sol\":1045:1281  contract OraclePoison {... */\n      mstore(0x40, 0x80)\n      callvalue\n      dup1\n      iszero\n      tag_1\n      jumpi\n      0x00\n      dup1\n      revert\n    tag_1:\n      pop\n      jumpi(tag_2, lt(calldatasize, 0x04))\n      shr(0xe0, calldataload(0x00))\n      dup1\n      0x1b076edc\n      eq\n      tag_3\n      jumpi\n      dup1\n      0xa8026912\n      eq\n      tag_4\n      jumpi\n      dup1\n      0xa95c372d\n      eq\n      tag_5\n      jumpi\n    tag_2:\n      0x00\n      dup1\n      revert\n        /* \"P/Pharming/Pharming.sol\":1073:1098  address public dataSource */\n    tag_3:\n      tag_6\n      tag_7\n      jump\t// in\n    tag_6:\n      mload(0x40)\n      tag_8\n      swap2\n      swap1\n      tag_9\n      jump\t// in\n    tag_8:\n      mload(0x40)\n      dup1\n      swap2\n      sub\n      swap1\n      return\n        /* \"P/Pharming/Pharming.sol\":1105:1175  function setSource(address o) external {... */\n    tag_4:\n      tag_10\n      0x04\n      dup1\n      calldatasize\n      sub\n      dup2\n      add\n      swap1\n      tag_11\n      swap2\n      swap1\n      tag_12\n      jump\t// in\n    tag_11:\n      tag_13\n      jump\t// in\n    tag_10:\n      stop\n        /* \"P/Pharming/Pharming.sol\":1181:1279  function fetch() external view returns (uint256) {... */\n    tag_5:\n      tag_14\n      tag_15\n      jump\t// in\n    tag_14:\n      mload(0x40)\n      tag_16\n      swap2\n      swap1\n      tag_17\n      jump\t// in\n    tag_16:\n      mload(0x40)\n      dup1\n      swap2\n      sub\n      swap1\n      return\n        /* \"P/Pharming/Pharming.sol\":1073:1098  address public dataSource */\n    tag_7:\n      0x00\n      dup1\n      sload\n      swap1\n      0x0100\n      exp\n      swap1\n      div\n      0xffffffffffffffffffffffffffffffffffffffff\n      and\n      dup2\n      jump\t// out\n        /* \"P/Pharming/Pharming.sol\":1105:1175  function setSource(address o) external {... */\n    tag_13:\n        /* \"P/Pharming/Pharming.sol\":1167:1168  o */\n      dup1\n        /* \"P/Pharming/Pharming.sol\":1154:1164  dataSource */\n      0x00\n      dup1\n        /* \"P/Pharming/Pharming.sol\":1154:1168  dataSource = o */\n      0x0100\n      exp\n      dup2\n      sload\n      dup2\n      0xffffffffffffffffffffffffffffffffffffffff\n      mul\n      not\n      and\n      swap1\n      dup4\n      0xffffffffffffffffffffffffffffffffffffffff\n      and\n      mul\n      or\n      swap1\n      sstore\n      pop\n        /* \"P/Pharming/Pharming.sol\":1105:1175  function setSource(address o) external {... */\n      pop\n      jump\t// out\n        /* \"P/Pharming/Pharming.sol\":1181:1279  function fetch() external view returns (uint256) {... */\n    tag_15:\n        /* \"P/Pharming/Pharming.sol\":1221:1228  uint256 */\n      0x00\n        /* \"P/Pharming/Pharming.sol\":1255:1265  dataSource */\n      dup1\n      0x00\n      swap1\n      sload\n      swap1\n      0x0100\n      exp\n      swap1\n      div\n      0xffffffffffffffffffffffffffffffffffffffff\n      and\n        /* \"P/Pharming/Pharming.sol\":1247:1270  IOracle(dataSource).get */\n      0xffffffffffffffffffffffffffffffffffffffff\n      and\n      0x6d4ce63c\n        /* \"P/Pharming/Pharming.sol\":1247:1272  IOracle(dataSource).get() */\n      mload(0x40)\n      dup2\n      0xffffffff\n      and\n      0xe0\n      shl\n      dup2\n      mstore\n      0x04\n      add\n      0x20\n      mload(0x40)\n      dup1\n      dup4\n      sub\n      dup2\n      dup7\n      gas\n      staticcall\n      iszero\n      dup1\n      iszero\n      tag_21\n      jumpi\n      returndatasize\n      0x00\n      dup1\n      returndatacopy\n      revert(0x00, returndatasize)\n    tag_21:\n      pop\n      pop\n      pop\n      pop\n      mload(0x40)\n      returndatasize\n      not(0x1f)\n      0x1f\n      dup3\n      add\n      and\n      dup3\n      add\n      dup1\n      0x40\n      mstore\n      pop\n      dup2\n      add\n      swap1\n      tag_22\n      swap2\n      swap1\n      tag_23\n      jump\t// in\n    tag_22:\n        /* \"P/Pharming/Pharming.sol\":1240:1272  return IOracle(dataSource).get() */\n      swap1\n      pop\n        /* \"P/Pharming/Pharming.sol\":1181:1279  function fetch() external view returns (uint256) {... */\n      swap1\n      jump\t// out\n        /* \"#utility.yul\":7:133   */\n    tag_24:\n        /* \"#utility.yul\":44:51   */\n      0x00\n        /* \"#utility.yul\":84:126   */\n      0xffffffffffffffffffffffffffffffffffffffff\n        /* \"#utility.yul\":77:82   */\n      dup3\n        /* \"#utility.yul\":73:127   */\n      and\n        /* \"#utility.yul\":62:127   */\n      swap1\n      pop\n        /* \"#utility.yul\":7:133   */\n      swap2\n      swap1\n      pop\n      jump\t// out\n        /* \"#utility.yul\":139:235   */\n    tag_25:\n        /* \"#utility.yul\":176:183   */\n      0x00\n        /* \"#utility.yul\":205:229   */\n      tag_39\n        /* \"#utility.yul\":223:228   */\n      dup3\n        /* \"#utility.yul\":205:229   */\n      tag_24\n      jump\t// in\n    tag_39:\n        /* \"#utility.yul\":194:229   */\n      swap1\n      pop\n        /* \"#utility.yul\":139:235   */\n      swap2\n      swap1\n      pop\n      jump\t// out\n        /* \"#utility.yul\":241:359   */\n    tag_26:\n        /* \"#utility.yul\":328:352   */\n      tag_41\n        /* \"#utility.yul\":346:351   */\n      dup2\n        /* \"#utility.yul\":328:352   */\n      tag_25\n      jump\t// in\n    tag_41:\n        /* \"#utility.yul\":323:326   */\n      dup3\n        /* \"#utility.yul\":316:353   */\n      mstore\n        /* \"#utility.yul\":241:359   */\n      pop\n      pop\n      jump\t// out\n        /* \"#utility.yul\":365:587   */\n    tag_9:\n        /* \"#utility.yul\":458:462   */\n      0x00\n        /* \"#utility.yul\":496:498   */\n      0x20\n        /* \"#utility.yul\":485:494   */\n      dup3\n        /* \"#utility.yul\":481:499   */\n      add\n        /* \"#utility.yul\":473:499   */\n      swap1\n      pop\n        /* \"#utility.yul\":509:580   */\n      tag_43\n        /* \"#utility.yul\":577:578   */\n      0x00\n        /* \"#utility.yul\":566:575   */\n      dup4\n        /* \"#utility.yul\":562:579   */\n      add\n        /* \"#utility.yul\":553:559   */\n      dup5\n        /* \"#utility.yul\":509:580   */\n      tag_26\n      jump\t// in\n    tag_43:\n        /* \"#utility.yul\":365:587   */\n      swap3\n      swap2\n      pop\n      pop\n      jump\t// out\n        /* \"#utility.yul\":674:791   */\n    tag_28:\n        /* \"#utility.yul\":783:784   */\n      0x00\n        /* \"#utility.yul\":780:781   */\n      dup1\n        /* \"#utility.yul\":773:785   */\n      revert\n        /* \"#utility.yul\":920:1042   */\n    tag_30:\n        /* \"#utility.yul\":993:1017   */\n      tag_48\n        /* \"#utility.yul\":1011:1016   */\n      dup2\n        /* \"#utility.yul\":993:1017   */\n      tag_25\n      jump\t// in\n    tag_48:\n        /* \"#utility.yul\":986:991   */\n      dup2\n        /* \"#utility.yul\":983:1018   */\n      eq\n        /* \"#utility.yul\":973:1036   */\n      tag_49\n      jumpi\n        /* \"#utility.yul\":1032:1033   */\n      0x00\n        /* \"#utility.yul\":1029:1030   */\n      dup1\n        /* \"#utility.yul\":1022:1034   */\n      revert\n        /* \"#utility.yul\":973:1036   */\n    tag_49:\n        /* \"#utility.yul\":920:1042   */\n      pop\n      jump\t// out\n        /* \"#utility.yul\":1048:1187   */\n    tag_31:\n        /* \"#utility.yul\":1094:1099   */\n      0x00\n        /* \"#utility.yul\":1132:1138   */\n      dup2\n        /* \"#utility.yul\":1119:1139   */\n      calldataload\n        /* \"#utility.yul\":1110:1139   */\n      swap1\n      pop\n        /* \"#utility.yul\":1148:1181   */\n      tag_51\n        /* \"#utility.yul\":1175:1180   */\n      dup2\n        /* \"#utility.yul\":1148:1181   */\n      tag_30\n      jump\t// in\n    tag_51:\n        /* \"#utility.yul\":1048:1187   */\n      swap3\n      swap2\n      pop\n      pop\n      jump\t// out\n        /* \"#utility.yul\":1193:1522   */\n    tag_12:\n        /* \"#utility.yul\":1252:1258   */\n      0x00\n        /* \"#utility.yul\":1301:1303   */\n      0x20\n        /* \"#utility.yul\":1289:1298   */\n      dup3\n        /* \"#utility.yul\":1280:1287   */\n      dup5\n        /* \"#utility.yul\":1276:1299   */\n      sub\n        /* \"#utility.yul\":1272:1304   */\n      slt\n        /* \"#utility.yul\":1269:1388   */\n      iszero\n      tag_53\n      jumpi\n        /* \"#utility.yul\":1307:1386   */\n      tag_54\n      tag_28\n      jump\t// in\n    tag_54:\n        /* \"#utility.yul\":1269:1388   */\n    tag_53:\n        /* \"#utility.yul\":1427:1428   */\n      0x00\n        /* \"#utility.yul\":1452:1505   */\n      tag_55\n        /* \"#utility.yul\":1497:1504   */\n      dup5\n        /* \"#utility.yul\":1488:1494   */\n      dup3\n        /* \"#utility.yul\":1477:1486   */\n      dup6\n        /* \"#utility.yul\":1473:1495   */\n      add\n        /* \"#utility.yul\":1452:1505   */\n      tag_31\n      jump\t// in\n    tag_55:\n        /* \"#utility.yul\":1442:1505   */\n      swap2\n      pop\n        /* \"#utility.yul\":1398:1515   */\n      pop\n        /* \"#utility.yul\":1193:1522   */\n      swap3\n      swap2\n      pop\n      pop\n      jump\t// out\n        /* \"#utility.yul\":1528:1605   */\n    tag_32:\n        /* \"#utility.yul\":1565:1572   */\n      0x00\n        /* \"#utility.yul\":1594:1599   */\n      dup2\n        /* \"#utility.yul\":1583:1599   */\n      swap1\n      pop\n        /* \"#utility.yul\":1528:1605   */\n      swap2\n      swap1\n      pop\n      jump\t// out\n        /* \"#utility.yul\":1611:1729   */\n    tag_33:\n        /* \"#utility.yul\":1698:1722   */\n      tag_58\n        /* \"#utility.yul\":1716:1721   */\n      dup2\n        /* \"#utility.yul\":1698:1722   */\n      tag_32\n      jump\t// in\n    tag_58:\n        /* \"#utility.yul\":1693:1696   */\n      dup3\n        /* \"#utility.yul\":1686:1723   */\n      mstore\n        /* \"#utility.yul\":1611:1729   */\n      pop\n      pop\n      jump\t// out\n        /* \"#utility.yul\":1735:1957   */\n    tag_17:\n        /* \"#utility.yul\":1828:1832   */\n      0x00\n        /* \"#utility.yul\":1866:1868   */\n      0x20\n        /* \"#utility.yul\":1855:1864   */\n      dup3\n        /* \"#utility.yul\":1851:1869   */\n      add\n        /* \"#utility.yul\":1843:1869   */\n      swap1\n      pop\n        /* \"#utility.yul\":1879:1950   */\n      tag_60\n        /* \"#utility.yul\":1947:1948   */\n      0x00\n        /* \"#utility.yul\":1936:1945   */\n      dup4\n        /* \"#utility.yul\":1932:1949   */\n      add\n        /* \"#utility.yul\":1923:1929   */\n      dup5\n        /* \"#utility.yul\":1879:1950   */\n      tag_33\n      jump\t// in\n    tag_60:\n        /* \"#utility.yul\":1735:1957   */\n      swap3\n      swap2\n      pop\n      pop\n      jump\t// out\n        /* \"#utility.yul\":1963:2085   */\n    tag_34:\n        /* \"#utility.yul\":2036:2060   */\n      tag_62\n        /* \"#utility.yul\":2054:2059   */\n      dup2\n        /* \"#utility.yul\":2036:2060   */\n      tag_32\n      jump\t// in\n    tag_62:\n        /* \"#utility.yul\":2029:2034   */\n      dup2\n        /* \"#utility.yul\":2026:2061   */\n      eq\n        /* \"#utility.yul\":2016:2079   */\n      tag_63\n      jumpi\n        /* \"#utility.yul\":2075:2076   */\n      0x00\n        /* \"#utility.yul\":2072:2073   */\n      dup1\n        /* \"#utility.yul\":2065:2077   */\n      revert\n        /* \"#utility.yul\":2016:2079   */\n    tag_63:\n        /* \"#utility.yul\":1963:2085   */\n      pop\n      jump\t// out\n        /* \"#utility.yul\":2091:2234   */\n    tag_35:\n        /* \"#utility.yul\":2148:2153   */\n      0x00\n        /* \"#utility.yul\":2179:2185   */\n      dup2\n        /* \"#utility.yul\":2173:2186   */\n      mload\n        /* \"#utility.yul\":2164:2186   */\n      swap1\n      pop\n        /* \"#utility.yul\":2195:2228   */\n      tag_65\n        /* \"#utility.yul\":2222:2227   */\n      dup2\n        /* \"#utility.yul\":2195:2228   */\n      tag_34\n      jump\t// in\n    tag_65:\n        /* \"#utility.yul\":2091:2234   */\n      swap3\n      swap2\n      pop\n      pop\n      jump\t// out\n        /* \"#utility.yul\":2240:2591   */\n    tag_23:\n        /* \"#utility.yul\":2310:2316   */\n      0x00\n        /* \"#utility.yul\":2359:2361   */\n      0x20\n        /* \"#utility.yul\":2347:2356   */\n      dup3\n        /* \"#utility.yul\":2338:2345   */\n      dup5\n        /* \"#utility.yul\":2334:2357   */\n      sub\n        /* \"#utility.yul\":2330:2362   */\n      slt\n        /* \"#utility.yul\":2327:2446   */\n      iszero\n      tag_67\n      jumpi\n        /* \"#utility.yul\":2365:2444   */\n      tag_68\n      tag_28\n      jump\t// in\n    tag_68:\n        /* \"#utility.yul\":2327:2446   */\n    tag_67:\n        /* \"#utility.yul\":2485:2486   */\n      0x00\n        /* \"#utility.yul\":2510:2574   */\n      tag_69\n        /* \"#utility.yul\":2566:2573   */\n      dup5\n        /* \"#utility.yul\":2557:2563   */\n      dup3\n        /* \"#utility.yul\":2546:2555   */\n      dup6\n        /* \"#utility.yul\":2542:2564   */\n      add\n        /* \"#utility.yul\":2510:2574   */\n      tag_35\n      jump\t// in\n    tag_69:\n        /* \"#utility.yul\":2500:2574   */\n      swap2\n      pop\n        /* \"#utility.yul\":2456:2584   */\n      pop\n        /* \"#utility.yul\":2240:2591   */\n      swap3\n      swap2\n      pop\n      pop\n      jump\t// out\n\n    auxdata: 0xa2646970667358221220e1c9eaab7b13e4c6c352a32be7adcc80d8559adc9e7dd169241675923ebf715664736f6c634300081a0033\n}\n",
				"bytecode": {
					"linkReferences": {},
					"object": "6080604052348015600e575f80fd5b506103008061001c5f395ff3fe608060405234801561000f575f80fd5b506004361061003f575f3560e01c80631b076edc14610043578063a802691214610061578063a95c372d1461007d575b5f80fd5b61004b61009b565b60405161005891906101d2565b60405180910390f35b61007b60048036038101906100769190610219565b6100be565b005b610085610100565b604051610092919061025c565b60405180910390f35b5f8054906101000a900473ffffffffffffffffffffffffffffffffffffffff1681565b805f806101000a81548173ffffffffffffffffffffffffffffffffffffffff021916908373ffffffffffffffffffffffffffffffffffffffff16021790555050565b5f805f9054906101000a900473ffffffffffffffffffffffffffffffffffffffff1673ffffffffffffffffffffffffffffffffffffffff16636d4ce63c6040518163ffffffff1660e01b8152600401602060405180830381865afa15801561016a573d5f803e3d5ffd5b505050506040513d601f19601f8201168201806040525081019061018e919061029f565b905090565b5f73ffffffffffffffffffffffffffffffffffffffff82169050919050565b5f6101bc82610193565b9050919050565b6101cc816101b2565b82525050565b5f6020820190506101e55f8301846101c3565b92915050565b5f80fd5b6101f8816101b2565b8114610202575f80fd5b50565b5f81359050610213816101ef565b92915050565b5f6020828403121561022e5761022d6101eb565b5b5f61023b84828501610205565b91505092915050565b5f819050919050565b61025681610244565b82525050565b5f60208201905061026f5f83018461024d565b92915050565b61027e81610244565b8114610288575f80fd5b50565b5f8151905061029981610275565b92915050565b5f602082840312156102b4576102b36101eb565b5b5f6102c18482850161028b565b9150509291505056fea2646970667358221220e1c9eaab7b13e4c6c352a32be7adcc80d8559adc9e7dd169241675923ebf715664736f6c634300081a0033",
					"opcodes": "PUSH1 0x80 PUSH1 0x40 MSTORE CALLVALUE DUP1 ISZERO PUSH1 0xE JUMPI PUSH0 DUP1 REVERT JUMPDEST POP PUSH2 0x300 DUP1 PUSH2 0x1C PUSH0 CODECOPY PUSH0 RETURN INVALID PUSH1 0x80 PUSH1 0x40 MSTORE CALLVALUE DUP1 ISZERO PUSH2 0xF JUMPI PUSH0 DUP1 REVERT JUMPDEST POP PUSH1 0x4 CALLDATASIZE LT PUSH2 0x3F JUMPI PUSH0 CALLDATALOAD PUSH1 0xE0 SHR DUP1 PUSH4 0x1B076EDC EQ PUSH2 0x43 JUMPI DUP1 PUSH4 0xA8026912 EQ PUSH2 0x61 JUMPI DUP1 PUSH4 0xA95C372D EQ PUSH2 0x7D JUMPI JUMPDEST PUSH0 DUP1 REVERT JUMPDEST PUSH2 0x4B PUSH2 0x9B JUMP JUMPDEST PUSH1 0x40 MLOAD PUSH2 0x58 SWAP2 SWAP1 PUSH2 0x1D2 JUMP JUMPDEST PUSH1 0x40 MLOAD DUP1 SWAP2 SUB SWAP1 RETURN JUMPDEST PUSH2 0x7B PUSH1 0x4 DUP1 CALLDATASIZE SUB DUP2 ADD SWAP1 PUSH2 0x76 SWAP2 SWAP1 PUSH2 0x219 JUMP JUMPDEST PUSH2 0xBE JUMP JUMPDEST STOP JUMPDEST PUSH2 0x85 PUSH2 0x100 JUMP JUMPDEST PUSH1 0x40 MLOAD PUSH2 0x92 SWAP2 SWAP1 PUSH2 0x25C JUMP JUMPDEST PUSH1 0x40 MLOAD DUP1 SWAP2 SUB SWAP1 RETURN JUMPDEST PUSH0 DUP1 SLOAD SWAP1 PUSH2 0x100 EXP SWAP1 DIV PUSH20 0xFFFFFFFFFFFFFFFFFFFFFFFFFFFFFFFFFFFFFFFF AND DUP2 JUMP JUMPDEST DUP1 PUSH0 DUP1 PUSH2 0x100 EXP DUP2 SLOAD DUP2 PUSH20 0xFFFFFFFFFFFFFFFFFFFFFFFFFFFFFFFFFFFFFFFF MUL NOT AND SWAP1 DUP4 PUSH20 0xFFFFFFFFFFFFFFFFFFFFFFFFFFFFFFFFFFFFFFFF AND MUL OR SWAP1 SSTORE POP POP JUMP JUMPDEST PUSH0 DUP1 PUSH0 SWAP1 SLOAD SWAP1 PUSH2 0x100 EXP SWAP1 DIV PUSH20 0xFFFFFFFFFFFFFFFFFFFFFFFFFFFFFFFFFFFFFFFF AND PUSH20 0xFFFFFFFFFFFFFFFFFFFFFFFFFFFFFFFFFFFFFFFF AND PUSH4 0x6D4CE63C PUSH1 0x40 MLOAD DUP2 PUSH4 0xFFFFFFFF AND PUSH1 0xE0 SHL DUP2 MSTORE PUSH1 0x4 ADD PUSH1 0x20 PUSH1 0x40 MLOAD DUP1 DUP4 SUB DUP2 DUP7 GAS STATICCALL ISZERO DUP1 ISZERO PUSH2 0x16A JUMPI RETURNDATASIZE PUSH0 DUP1 RETURNDATACOPY RETURNDATASIZE PUSH0 REVERT JUMPDEST POP POP POP POP PUSH1 0x40 MLOAD RETURNDATASIZE PUSH1 0x1F NOT PUSH1 0x1F DUP3 ADD AND DUP3 ADD DUP1 PUSH1 0x40 MSTORE POP DUP2 ADD SWAP1 PUSH2 0x18E SWAP2 SWAP1 PUSH2 0x29F JUMP JUMPDEST SWAP1 POP SWAP1 JUMP JUMPDEST PUSH0 PUSH20 0xFFFFFFFFFFFFFFFFFFFFFFFFFFFFFFFFFFFFFFFF DUP3 AND SWAP1 POP SWAP2 SWAP1 POP JUMP JUMPDEST PUSH0 PUSH2 0x1BC DUP3 PUSH2 0x193 JUMP JUMPDEST SWAP1 POP SWAP2 SWAP1 POP JUMP JUMPDEST PUSH2 0x1CC DUP2 PUSH2 0x1B2 JUMP JUMPDEST DUP3 MSTORE POP POP JUMP JUMPDEST PUSH0 PUSH1 0x20 DUP3 ADD SWAP1 POP PUSH2 0x1E5 PUSH0 DUP4 ADD DUP5 PUSH2 0x1C3 JUMP JUMPDEST SWAP3 SWAP2 POP POP JUMP JUMPDEST PUSH0 DUP1 REVERT JUMPDEST PUSH2 0x1F8 DUP2 PUSH2 0x1B2 JUMP JUMPDEST DUP2 EQ PUSH2 0x202 JUMPI PUSH0 DUP1 REVERT JUMPDEST POP JUMP JUMPDEST PUSH0 DUP2 CALLDATALOAD SWAP1 POP PUSH2 0x213 DUP2 PUSH2 0x1EF JUMP JUMPDEST SWAP3 SWAP2 POP POP JUMP JUMPDEST PUSH0 PUSH1 0x20 DUP3 DUP5 SUB SLT ISZERO PUSH2 0x22E JUMPI PUSH2 0x22D PUSH2 0x1EB JUMP JUMPDEST JUMPDEST PUSH0 PUSH2 0x23B DUP5 DUP3 DUP6 ADD PUSH2 0x205 JUMP JUMPDEST SWAP2 POP POP SWAP3 SWAP2 POP POP JUMP JUMPDEST PUSH0 DUP2 SWAP1 POP SWAP2 SWAP1 POP JUMP JUMPDEST PUSH2 0x256 DUP2 PUSH2 0x244 JUMP JUMPDEST DUP3 MSTORE POP POP JUMP JUMPDEST PUSH0 PUSH1 0x20 DUP3 ADD SWAP1 POP PUSH2 0x26F PUSH0 DUP4 ADD DUP5 PUSH2 0x24D JUMP JUMPDEST SWAP3 SWAP2 POP POP JUMP JUMPDEST PUSH2 0x27E DUP2 PUSH2 0x244 JUMP JUMPDEST DUP2 EQ PUSH2 0x288 JUMPI PUSH0 DUP1 REVERT JUMPDEST POP JUMP JUMPDEST PUSH0 DUP2 MLOAD SWAP1 POP PUSH2 0x299 DUP2 PUSH2 0x275 JUMP JUMPDEST SWAP3 SWAP2 POP POP JUMP JUMPDEST PUSH0 PUSH1 0x20 DUP3 DUP5 SUB SLT ISZERO PUSH2 0x2B4 JUMPI PUSH2 0x2B3 PUSH2 0x1EB JUMP JUMPDEST JUMPDEST PUSH0 PUSH2 0x2C1 DUP5 DUP3 DUP6 ADD PUSH2 0x28B JUMP JUMPDEST SWAP2 POP POP SWAP3 SWAP2 POP POP JUMP INVALID LOG2 PUSH5 0x6970667358 0x22 SLT KECCAK256 0xE1 0xC9 0xEA 0xAB PUSH28 0x13E4C6C352A32BE7ADCC80D8559ADC9E7DD169241675923EBF715664 PUSH20 0x6F6C634300081A00330000000000000000000000 "
				},
				"gasEstimates": {
					"creation": {
						"codeDepositCost": "153600",
						"executionCost": "194",
						"totalCost": "153794"
					},
					"external": {
						"dataSource()": "2483",
						"fetch()": "infinite",
						"setSource(address)": "24715"
					}
				},
				"methodIdentifiers": {
					"dataSource()": "1b076edc",
					"fetch()": "a95c372d",
					"setSource(address)": "a8026912"
				}
			},
			"storageLayout": {
				"storage": [
					{
						"astId": 90,
						"contract": "P/Pharming/Pharming.sol:OraclePoison",
						"label": "dataSource",
						"offset": 0,
						"slot": "0",
						"type": "t_address"
					}
				],
				"types": {
					"t_address": {
						"encoding": "inplace",
						"label": "address",
						"numberOfBytes": "20"
					}
				}
			},
			"userdoc": {
				"kind": "user",
				"methods": {},
				"version": 1
			}
		}
	}
}