{
	"P/Pharming/Pharming.sol": {
		"DomainBoundSig": {
			"abi": [
				{
					"inputs": [
						{
							"internalType": "string",
							"name": "name",
							"type": "string"
						},
						{
							"internalType": "string",
							"name": "version",
							"type": "string"
						}
					],
					"stateMutability": "nonpayable",
					"type": "constructor"
				},
				{
					"inputs": [],
					"name": "domainSeparator",
					"outputs": [
						{
							"internalType": "bytes32",
							"name": "",
							"type": "bytes32"
						}
					],
					"stateMutability": "view",
					"type": "function"
				},
				{
					"inputs": [
						{
							"internalType": "bytes32",
							"name": "structHash",
							"type": "bytes32"
						},
						{
							"internalType": "bytes",
							"name": "sig",
							"type": "bytes"
						}
					],
					"name": "recover",
					"outputs": [
						{
							"internalType": "address",
							"name": "",
							"type": "address"
						}
					],
					"stateMutability": "view",
					"type": "function"
				}
			],
			"devdoc": {
				"kind": "dev",
				"methods": {},
				"version": 1
			},
			"evm": {
				"assembly": "    /* \"P/Pharming/Pharming.sol\":2517:3175  contract DomainBoundSig {... */\n  mstore(0x40, 0x80)\n    /* \"P/Pharming/Pharming.sol\":2584:2847  constructor(string memory name, string memory version) {... */\n  callvalue\n  dup1\n  iszero\n  tag_1\n  jumpi\n  0x00\n  dup1\n  revert\ntag_1:\n  pop\n  mload(0x40)\n  sub(codesize, bytecodeSize)\n  dup1\n  bytecodeSize\n  dup4\n  codecopy\n  dup2\n  dup2\n  add\n  0x40\n  mstore\n  dup2\n  add\n  swap1\n  tag_2\n  swap2\n  swap1\n  tag_3\n  jump\t// in\ntag_2:\n    /* \"P/Pharming/Pharming.sol\":2701:2754  keccak256(\"EIP712Domain(string name,string version)\") */\n  0xb03948446334eb9b2196d5eb166f69b9d49403eb4a12f36de8d3f9f3cb8e15c3\n    /* \"P/Pharming/Pharming.sol\":2784:2788  name */\n  dup3\n    /* \"P/Pharming/Pharming.sol\":2768:2790  keccak256(bytes(name)) */\n  dup1\n  mload\n  swap1\n  0x20\n  add\n  keccak256\n    /* \"P/Pharming/Pharming.sol\":2820:2827  version */\n  dup3\n    /* \"P/Pharming/Pharming.sol\":2804:2829  keccak256(bytes(version)) */\n  dup1\n  mload\n  swap1\n  0x20\n  add\n  keccak256\n    /* \"P/Pharming/Pharming.sol\":2677:2839  abi.encode(... */\n  add(0x20, mload(0x40))\n  tag_6\n  swap4\n  swap3\n  swap2\n  swap1\n  tag_7\n  jump\t// in\ntag_6:\n  mload(0x40)\n  0x20\n  dup2\n  dup4\n  sub\n  sub\n  dup2\n  mstore\n  swap1\n  0x40\n  mstore\n    /* \"P/Pharming/Pharming.sol\":2667:2840  keccak256(abi.encode(... */\n  dup1\n  mload\n  swap1\n  0x20\n  add\n  keccak256\n    /* \"P/Pharming/Pharming.sol\":2649:2664  domainSeparator */\n  0x00\n    /* \"P/Pharming/Pharming.sol\":2649:2840  domainSeparator = keccak256(abi.encode(... */\n  dup2\n  swap1\n  sstore\n  pop\n    /* \"P/Pharming/Pharming.sol\":2584:2847  constructor(string memory name, string memory version) {... */\n  pop\n  pop\n    /* \"P/Pharming/Pharming.sol\":2517:3175  contract DomainBoundSig {... */\n  jump(tag_8)\n    /* \"#utility.yul\":7:82   */\ntag_9:\n    /* \"#utility.yul\":40:46   */\n  0x00\n    /* \"#utility.yul\":73:75   */\n  0x40\n    /* \"#utility.yul\":67:76   */\n  mload\n    /* \"#utility.yul\":57:76   */\n  swap1\n  pop\n    /* \"#utility.yul\":7:82   */\n  swap1\n  jump\t// out\n    /* \"#utility.yul\":88:205   */\ntag_10:\n    /* \"#utility.yul\":197:198   */\n  0x00\n    /* \"#utility.yul\":194:195   */\n  dup1\n    /* \"#utility.yul\":187:199   */\n  revert\n    /* \"#utility.yul\":211:328   */\ntag_11:\n    /* \"#utility.yul\":320:321   */\n  0x00\n    /* \"#utility.yul\":317:318   */\n  dup1\n    /* \"#utility.yul\":310:322   */\n  revert\n    /* \"#utility.yul\":334:451   */\ntag_12:\n    /* \"#utility.yul\":443:444   */\n  0x00\n    /* \"#utility.yul\":440:441   */\n  dup1\n    /* \"#utility.yul\":433:445   */\n  revert\n    /* \"#utility.yul\":457:574   */\ntag_13:\n    /* \"#utility.yul\":566:567   */\n  0x00\n    /* \"#utility.yul\":563:564   */\n  dup1\n    /* \"#utility.yul\":556:568   */\n  revert\n    /* \"#utility.yul\":580:682   */\ntag_14:\n    /* \"#utility.yul\":621:627   */\n  0x00\n    /* \"#utility.yul\":672:674   */\n  0x1f\n    /* \"#utility.yul\":668:675   */\n  not\n    /* \"#utility.yul\":663:665   */\n  0x1f\n    /* \"#utility.yul\":656:661   */\n  dup4\n    /* \"#utility.yul\":652:666   */\n  add\n    /* \"#utility.yul\":648:676   */\n  and\n    /* \"#utility.yul\":638:676   */\n  swap1\n  pop\n    /* \"#utility.yul\":580:682   */\n  swap2\n  swap1\n  pop\n  jump\t// out\n    /* \"#utility.yul\":688:868   */\ntag_15:\n    /* \"#utility.yul\":736:813   */\n  0x4e487b7100000000000000000000000000000000000000000000000000000000\n    /* \"#utility.yul\":733:734   */\n  0x00\n    /* \"#utility.yul\":726:814   */\n  mstore\n    /* \"#utility.yul\":833:837   */\n  0x41\n    /* \"#utility.yul\":830:831   */\n  0x04\n    /* \"#utility.yul\":823:838   */\n  mstore\n    /* \"#utility.yul\":857:861   */\n  0x24\n    /* \"#utility.yul\":854:855   */\n  0x00\n    /* \"#utility.yul\":847:862   */\n  revert\n    /* \"#utility.yul\":874:1155   */\ntag_16:\n    /* \"#utility.yul\":957:984   */\n  tag_33\n    /* \"#utility.yul\":979:983   */\n  dup3\n    /* \"#utility.yul\":957:984   */\n  tag_14\n  jump\t// in\ntag_33:\n    /* \"#utility.yul\":949:955   */\n  dup2\n    /* \"#utility.yul\":945:985   */\n  add\n    /* \"#utility.yul\":1087:1093   */\n  dup2\n    /* \"#utility.yul\":1075:1085   */\n  dup2\n    /* \"#utility.yul\":1072:1094   */\n  lt\n    /* \"#utility.yul\":1051:1069   */\n  0xffffffffffffffff\n    /* \"#utility.yul\":1039:1049   */\n  dup3\n    /* \"#utility.yul\":1036:1070   */\n  gt\n    /* \"#utility.yul\":1033:1095   */\n  or\n    /* \"#utility.yul\":1030:1118   */\n  iszero\n  tag_34\n  jumpi\n    /* \"#utility.yul\":1098:1116   */\n  tag_35\n  tag_15\n  jump\t// in\ntag_35:\n    /* \"#utility.yul\":1030:1118   */\ntag_34:\n    /* \"#utility.yul\":1138:1148   */\n  dup1\n    /* \"#utility.yul\":1134:1136   */\n  0x40\n    /* \"#utility.yul\":1127:1149   */\n  mstore\n    /* \"#utility.yul\":917:1155   */\n  pop\n    /* \"#utility.yul\":874:1155   */\n  pop\n  pop\n  jump\t// out\n    /* \"#utility.yul\":1161:1290   */\ntag_17:\n    /* \"#utility.yul\":1195:1201   */\n  0x00\n    /* \"#utility.yul\":1222:1242   */\n  tag_37\n  tag_9\n  jump\t// in\ntag_37:\n    /* \"#utility.yul\":1212:1242   */\n  swap1\n  pop\n    /* \"#utility.yul\":1251:1284   */\n  tag_38\n    /* \"#utility.yul\":1279:1283   */\n  dup3\n    /* \"#utility.yul\":1271:1277   */\n  dup3\n    /* \"#utility.yul\":1251:1284   */\n  tag_16\n  jump\t// in\ntag_38:\n    /* \"#utility.yul\":1161:1290   */\n  swap2\n  swap1\n  pop\n  jump\t// out\n    /* \"#utility.yul\":1296:1604   */\ntag_18:\n    /* \"#utility.yul\":1358:1362   */\n  0x00\n    /* \"#utility.yul\":1448:1466   */\n  0xffffffffffffffff\n    /* \"#utility.yul\":1440:1446   */\n  dup3\n    /* \"#utility.yul\":1437:1467   */\n  gt\n    /* \"#utility.yul\":1434:1490   */\n  iszero\n  tag_40\n  jumpi\n    /* \"#utility.yul\":1470:1488   */\n  tag_41\n  tag_15\n  jump\t// in\ntag_41:\n    /* \"#utility.yul\":1434:1490   */\ntag_40:\n    /* \"#utility.yul\":1508:1537   */\n  tag_42\n    /* \"#utility.yul\":1530:1536   */\n  dup3\n    /* \"#utility.yul\":1508:1537   */\n  tag_14\n  jump\t// in\ntag_42:\n    /* \"#utility.yul\":1500:1537   */\n  swap1\n  pop\n    /* \"#utility.yul\":1592:1596   */\n  0x20\n    /* \"#utility.yul\":1586:1590   */\n  dup2\n    /* \"#utility.yul\":1582:1597   */\n  add\n    /* \"#utility.yul\":1574:1597   */\n  swap1\n  pop\n    /* \"#utility.yul\":1296:1604   */\n  swap2\n  swap1\n  pop\n  jump\t// out\n    /* \"#utility.yul\":1610:1749   */\ntag_19:\n    /* \"#utility.yul\":1699:1705   */\n  dup3\n    /* \"#utility.yul\":1694:1697   */\n  dup2\n    /* \"#utility.yul\":1689:1692   */\n  dup4\n    /* \"#utility.yul\":1683:1706   */\n  mcopy\n    /* \"#utility.yul\":1740:1741   */\n  0x00\n    /* \"#utility.yul\":1731:1737   */\n  dup4\n    /* \"#utility.yul\":1726:1729   */\n  dup4\n    /* \"#utility.yul\":1722:1738   */\n  add\n    /* \"#utility.yul\":1715:1742   */\n  mstore\n    /* \"#utility.yul\":1610:1749   */\n  pop\n  pop\n  pop\n  jump\t// out\n    /* \"#utility.yul\":1755:2189   */\ntag_20:\n    /* \"#utility.yul\":1844:1849   */\n  0x00\n    /* \"#utility.yul\":1869:1935   */\n  tag_45\n    /* \"#utility.yul\":1885:1934   */\n  tag_46\n    /* \"#utility.yul\":1927:1933   */\n  dup5\n    /* \"#utility.yul\":1885:1934   */\n  tag_18\n  jump\t// in\ntag_46:\n    /* \"#utility.yul\":1869:1935   */\n  tag_17\n  jump\t// in\ntag_45:\n    /* \"#utility.yul\":1860:1935   */\n  swap1\n  pop\n    /* \"#utility.yul\":1958:1964   */\n  dup3\n    /* \"#utility.yul\":1951:1956   */\n  dup2\n    /* \"#utility.yul\":1944:1965   */\n  mstore\n    /* \"#utility.yul\":1996:2000   */\n  0x20\n    /* \"#utility.yul\":1989:1994   */\n  dup2\n    /* \"#utility.yul\":1985:2001   */\n  add\n    /* \"#utility.yul\":2034:2037   */\n  dup5\n    /* \"#utility.yul\":2025:2031   */\n  dup5\n    /* \"#utility.yul\":2020:2023   */\n  dup5\n    /* \"#utility.yul\":2016:2032   */\n  add\n    /* \"#utility.yul\":2013:2038   */\n  gt\n    /* \"#utility.yul\":2010:2122   */\n  iszero\n  tag_47\n  jumpi\n    /* \"#utility.yul\":2041:2120   */\n  tag_48\n  tag_13\n  jump\t// in\ntag_48:\n    /* \"#utility.yul\":2010:2122   */\ntag_47:\n    /* \"#utility.yul\":2131:2183   */\n  tag_49\n    /* \"#utility.yul\":2176:2182   */\n  dup5\n    /* \"#utility.yul\":2171:2174   */\n  dup3\n    /* \"#utility.yul\":2166:2169   */\n  dup6\n    /* \"#utility.yul\":2131:2183   */\n  tag_19\n  jump\t// in\ntag_49:\n    /* \"#utility.yul\":1850:2189   */\n  pop\n    /* \"#utility.yul\":1755:2189   */\n  swap4\n  swap3\n  pop\n  pop\n  pop\n  jump\t// out\n    /* \"#utility.yul\":2209:2564   */\ntag_21:\n    /* \"#utility.yul\":2276:2281   */\n  0x00\n    /* \"#utility.yul\":2325:2328   */\n  dup3\n    /* \"#utility.yul\":2318:2322   */\n  0x1f\n    /* \"#utility.yul\":2310:2316   */\n  dup4\n    /* \"#utility.yul\":2306:2323   */\n  add\n    /* \"#utility.yul\":2302:2329   */\n  slt\n    /* \"#utility.yul\":2292:2414   */\n  tag_51\n  jumpi\n    /* \"#utility.yul\":2333:2412   */\n  tag_52\n  tag_12\n  jump\t// in\ntag_52:\n    /* \"#utility.yul\":2292:2414   */\ntag_51:\n    /* \"#utility.yul\":2443:2449   */\n  dup2\n    /* \"#utility.yul\":2437:2450   */\n  mload\n    /* \"#utility.yul\":2468:2558   */\n  tag_53\n    /* \"#utility.yul\":2554:2557   */\n  dup5\n    /* \"#utility.yul\":2546:2552   */\n  dup3\n    /* \"#utility.yul\":2539:2543   */\n  0x20\n    /* \"#utility.yul\":2531:2537   */\n  dup7\n    /* \"#utility.yul\":2527:2544   */\n  add\n    /* \"#utility.yul\":2468:2558   */\n  tag_20\n  jump\t// in\ntag_53:\n    /* \"#utility.yul\":2459:2558   */\n  swap2\n  pop\n    /* \"#utility.yul\":2282:2564   */\n  pop\n    /* \"#utility.yul\":2209:2564   */\n  swap3\n  swap2\n  pop\n  pop\n  jump\t// out\n    /* \"#utility.yul\":2570:3423   */\ntag_3:\n    /* \"#utility.yul\":2669:2675   */\n  0x00\n    /* \"#utility.yul\":2677:2683   */\n  dup1\n    /* \"#utility.yul\":2726:2728   */\n  0x40\n    /* \"#utility.yul\":2714:2723   */\n  dup4\n    /* \"#utility.yul\":2705:2712   */\n  dup6\n    /* \"#utility.yul\":2701:2724   */\n  sub\n    /* \"#utility.yul\":2697:2729   */\n  slt\n    /* \"#utility.yul\":2694:2813   */\n  iszero\n  tag_55\n  jumpi\n    /* \"#utility.yul\":2732:2811   */\n  tag_56\n  tag_10\n  jump\t// in\ntag_56:\n    /* \"#utility.yul\":2694:2813   */\ntag_55:\n    /* \"#utility.yul\":2873:2874   */\n  0x00\n    /* \"#utility.yul\":2862:2871   */\n  dup4\n    /* \"#utility.yul\":2858:2875   */\n  add\n    /* \"#utility.yul\":2852:2876   */\n  mload\n    /* \"#utility.yul\":2903:2921   */\n  0xffffffffffffffff\n    /* \"#utility.yul\":2895:2901   */\n  dup2\n    /* \"#utility.yul\":2892:2922   */\n  gt\n    /* \"#utility.yul\":2889:3006   */\n  iszero\n  tag_57\n  jumpi\n    /* \"#utility.yul\":2925:3004   */\n  tag_58\n  tag_11\n  jump\t// in\ntag_58:\n    /* \"#utility.yul\":2889:3006   */\ntag_57:\n    /* \"#utility.yul\":3030:3104   */\n  tag_59\n    /* \"#utility.yul\":3096:3103   */\n  dup6\n    /* \"#utility.yul\":3087:3093   */\n  dup3\n    /* \"#utility.yul\":3076:3085   */\n  dup7\n    /* \"#utility.yul\":3072:3094   */\n  add\n    /* \"#utility.yul\":3030:3104   */\n  tag_21\n  jump\t// in\ntag_59:\n    /* \"#utility.yul\":3020:3104   */\n  swap3\n  pop\n    /* \"#utility.yul\":2823:3114   */\n  pop\n    /* \"#utility.yul\":3174:3176   */\n  0x20\n    /* \"#utility.yul\":3163:3172   */\n  dup4\n    /* \"#utility.yul\":3159:3177   */\n  add\n    /* \"#utility.yul\":3153:3178   */\n  mload\n    /* \"#utility.yul\":3205:3223   */\n  0xffffffffffffffff\n    /* \"#utility.yul\":3197:3203   */\n  dup2\n    /* \"#utility.yul\":3194:3224   */\n  gt\n    /* \"#utility.yul\":3191:3308   */\n  iszero\n  tag_60\n  jumpi\n    /* \"#utility.yul\":3227:3306   */\n  tag_61\n  tag_11\n  jump\t// in\ntag_61:\n    /* \"#utility.yul\":3191:3308   */\ntag_60:\n    /* \"#utility.yul\":3332:3406   */\n  tag_62\n    /* \"#utility.yul\":3398:3405   */\n  dup6\n    /* \"#utility.yul\":3389:3395   */\n  dup3\n    /* \"#utility.yul\":3378:3387   */\n  dup7\n    /* \"#utility.yul\":3374:3396   */\n  add\n    /* \"#utility.yul\":3332:3406   */\n  tag_21\n  jump\t// in\ntag_62:\n    /* \"#utility.yul\":3322:3406   */\n  swap2\n  pop\n    /* \"#utility.yul\":3124:3416   */\n  pop\n    /* \"#utility.yul\":2570:3423   */\n  swap3\n  pop\n  swap3\n  swap1\n  pop\n  jump\t// out\n    /* \"#utility.yul\":3429:3506   */\ntag_22:\n    /* \"#utility.yul\":3466:3473   */\n  0x00\n    /* \"#utility.yul\":3495:3500   */\n  dup2\n    /* \"#utility.yul\":3484:3500   */\n  swap1\n  pop\n    /* \"#utility.yul\":3429:3506   */\n  swap2\n  swap1\n  pop\n  jump\t// out\n    /* \"#utility.yul\":3512:3630   */\ntag_23:\n    /* \"#utility.yul\":3599:3623   */\n  tag_65\n    /* \"#utility.yul\":3617:3622   */\n  dup2\n    /* \"#utility.yul\":3599:3623   */\n  tag_22\n  jump\t// in\ntag_65:\n    /* \"#utility.yul\":3594:3597   */\n  dup3\n    /* \"#utility.yul\":3587:3624   */\n  mstore\n    /* \"#utility.yul\":3512:3630   */\n  pop\n  pop\n  jump\t// out\n    /* \"#utility.yul\":3636:4078   */\ntag_7:\n    /* \"#utility.yul\":3785:3789   */\n  0x00\n    /* \"#utility.yul\":3823:3825   */\n  0x60\n    /* \"#utility.yul\":3812:3821   */\n  dup3\n    /* \"#utility.yul\":3808:3826   */\n  add\n    /* \"#utility.yul\":3800:3826   */\n  swap1\n  pop\n    /* \"#utility.yul\":3836:3907   */\n  tag_67\n    /* \"#utility.yul\":3904:3905   */\n  0x00\n    /* \"#utility.yul\":3893:3902   */\n  dup4\n    /* \"#utility.yul\":3889:3906   */\n  add\n    /* \"#utility.yul\":3880:3886   */\n  dup7\n    /* \"#utility.yul\":3836:3907   */\n  tag_23\n  jump\t// in\ntag_67:\n    /* \"#utility.yul\":3917:3989   */\n  tag_68\n    /* \"#utility.yul\":3985:3987   */\n  0x20\n    /* \"#utility.yul\":3974:3983   */\n  dup4\n    /* \"#utility.yul\":3970:3988   */\n  add\n    /* \"#utility.yul\":3961:3967   */\n  dup6\n    /* \"#utility.yul\":3917:3989   */\n  tag_23\n  jump\t// in\ntag_68:\n    /* \"#utility.yul\":3999:4071   */\n  tag_69\n    /* \"#utility.yul\":4067:4069   */\n  0x40\n    /* \"#utility.yul\":4056:4065   */\n  dup4\n    /* \"#utility.yul\":4052:4070   */\n  add\n    /* \"#utility.yul\":4043:4049   */\n  dup5\n    /* \"#utility.yul\":3999:4071   */\n  tag_23\n  jump\t// in\ntag_69:\n    /* \"#utility.yul\":3636:4078   */\n  swap5\n  swap4\n  pop\n  pop\n  pop\n  pop\n  jump\t// out\n    /* \"P/Pharming/Pharming.sol\":2517:3175  contract DomainBoundSig {... */\ntag_8:\n  dataSize(sub_0)\n  dup1\n  dataOffset(sub_0)\n  0x00\n  codecopy\n  0x00\n  return\nstop\n\nsub_0: assembly {\n        /* \"P/Pharming/Pharming.sol\":2517:3175  contract DomainBoundSig {... */\n      mstore(0x40, 0x80)\n      callvalue\n      dup1\n      iszero\n      tag_1\n      jumpi\n      0x00\n      dup1\n      revert\n    tag_1:\n      pop\n      jumpi(tag_2, lt(calldatasize, 0x04))\n      shr(0xe0, calldataload(0x00))\n      dup1\n      0x19045a25\n      eq\n      tag_3\n      jumpi\n      dup1\n      0xf698da25\n      eq\n      tag_4\n      jumpi\n    tag_2:\n      0x00\n      dup1\n      revert\n        /* \"P/Pharming/Pharming.sol\":2853:3173  function recover(bytes32 structHash, bytes calldata sig) external view returns (address) {... */\n    tag_3:\n      tag_5\n      0x04\n      dup1\n      calldatasize\n      sub\n      dup2\n      add\n      swap1\n      tag_6\n      swap2\n      swap1\n      tag_7\n      jump\t// in\n    tag_6:\n      tag_8\n      jump\t// in\n    tag_5:\n      mload(0x40)\n      tag_9\n      swap2\n      swap1\n      tag_10\n      jump\t// in\n    tag_9:\n      mload(0x40)\n      dup1\n      swap2\n      sub\n      swap1\n      return\n        /* \"P/Pharming/Pharming.sol\":2547:2577  bytes32 public domainSeparator */\n    tag_4:\n      tag_11\n      tag_12\n      jump\t// in\n    tag_11:\n      mload(0x40)\n      tag_13\n      swap2\n      swap1\n      tag_14\n      jump\t// in\n    tag_13:\n      mload(0x40)\n      dup1\n      swap2\n      sub\n      swap1\n      return\n        /* \"P/Pharming/Pharming.sol\":2853:3173  function recover(bytes32 structHash, bytes calldata sig) external view returns (address) {... */\n    tag_8:\n        /* \"P/Pharming/Pharming.sol\":2933:2940  address */\n      0x00\n        /* \"P/Pharming/Pharming.sol\":2952:2966  bytes32 digest */\n      dup1\n        /* \"P/Pharming/Pharming.sol\":3008:3023  domainSeparator */\n      sload(0x00)\n        /* \"P/Pharming/Pharming.sol\":3025:3035  structHash */\n      dup6\n        /* \"P/Pharming/Pharming.sol\":2979:3036  abi.encodePacked(\"\\x19\\x01\", domainSeparator, structHash) */\n      add(0x20, mload(0x40))\n      tag_16\n      swap3\n      swap2\n      swap1\n      tag_17\n      jump\t// in\n    tag_16:\n      mload(0x40)\n      0x20\n      dup2\n      dup4\n      sub\n      sub\n      dup2\n      mstore\n      swap1\n      0x40\n      mstore\n        /* \"P/Pharming/Pharming.sol\":2969:3037  keccak256(abi.encodePacked(\"\\x19\\x01\", domainSeparator, structHash)) */\n      dup1\n      mload\n      swap1\n      0x20\n      add\n      keccak256\n        /* \"P/Pharming/Pharming.sol\":2952:3037  bytes32 digest = keccak256(abi.encodePacked(\"\\x19\\x01\", domainSeparator, structHash)) */\n      swap1\n      pop\n        /* \"P/Pharming/Pharming.sol\":3048:3057  bytes32 r */\n      0x00\n        /* \"P/Pharming/Pharming.sol\":3059:3068  bytes32 s */\n      dup1\n        /* \"P/Pharming/Pharming.sol\":3070:3077  uint8 v */\n      0x00\n        /* \"P/Pharming/Pharming.sol\":3092:3095  sig */\n      dup7\n      dup7\n        /* \"P/Pharming/Pharming.sol\":3081:3123  abi.decode(sig, (bytes32, bytes32, uint8)) */\n      dup2\n      add\n      swap1\n      tag_18\n      swap2\n      swap1\n      tag_19\n      jump\t// in\n    tag_18:\n        /* \"P/Pharming/Pharming.sol\":3047:3123  (bytes32 r, bytes32 s, uint8 v) = abi.decode(sig, (bytes32, bytes32, uint8)) */\n      swap3\n      pop\n      swap3\n      pop\n      swap3\n      pop\n        /* \"P/Pharming/Pharming.sol\":3140:3166  ecrecover(digest, v, r, s) */\n      0x01\n        /* \"P/Pharming/Pharming.sol\":3150:3156  digest */\n      dup5\n        /* \"P/Pharming/Pharming.sol\":3158:3159  v */\n      dup3\n        /* \"P/Pharming/Pharming.sol\":3161:3162  r */\n      dup6\n        /* \"P/Pharming/Pharming.sol\":3164:3165  s */\n      dup6\n        /* \"P/Pharming/Pharming.sol\":3140:3166  ecrecover(digest, v, r, s) */\n      mload(0x40)\n      0x00\n      dup2\n      mstore\n      0x20\n      add\n      0x40\n      mstore\n      mload(0x40)\n      tag_20\n      swap5\n      swap4\n      swap3\n      swap2\n      swap1\n      tag_21\n      jump\t// in\n    tag_20:\n      0x20\n      mload(0x40)\n      0x20\n      dup2\n      sub\n      swap1\n      dup1\n      dup5\n      sub\n      swap1\n      dup6\n      gas\n      staticcall\n      iszero\n      dup1\n      iszero\n      tag_23\n      jumpi\n      returndatasize\n      0x00\n      dup1\n      returndatacopy\n      revert(0x00, returndatasize)\n    tag_23:\n      pop\n      pop\n      pop\n      mload(sub(mload(0x40), 0x20))\n        /* \"P/Pharming/Pharming.sol\":3133:3166  return ecrecover(digest, v, r, s) */\n      swap5\n      pop\n      pop\n      pop\n      pop\n      pop\n        /* \"P/Pharming/Pharming.sol\":2853:3173  function recover(bytes32 structHash, bytes calldata sig) external view returns (address) {... */\n      swap4\n      swap3\n      pop\n      pop\n      pop\n      jump\t// out\n        /* \"P/Pharming/Pharming.sol\":2547:2577  bytes32 public domainSeparator */\n    tag_12:\n      sload(0x00)\n      dup2\n      jump\t// out\n        /* \"#utility.yul\":88:205   */\n    tag_25:\n        /* \"#utility.yul\":197:198   */\n      0x00\n        /* \"#utility.yul\":194:195   */\n      dup1\n        /* \"#utility.yul\":187:199   */\n      revert\n        /* \"#utility.yul\":211:328   */\n    tag_26:\n        /* \"#utility.yul\":320:321   */\n      0x00\n        /* \"#utility.yul\":317:318   */\n      dup1\n        /* \"#utility.yul\":310:322   */\n      revert\n        /* \"#utility.yul\":334:411   */\n    tag_27:\n        /* \"#utility.yul\":371:378   */\n      0x00\n        /* \"#utility.yul\":400:405   */\n      dup2\n        /* \"#utility.yul\":389:405   */\n      swap1\n      pop\n        /* \"#utility.yul\":334:411   */\n      swap2\n      swap1\n      pop\n      jump\t// out\n        /* \"#utility.yul\":417:539   */\n    tag_28:\n        /* \"#utility.yul\":490:514   */\n      tag_53\n        /* \"#utility.yul\":508:513   */\n      dup2\n        /* \"#utility.yul\":490:514   */\n      tag_27\n      jump\t// in\n    tag_53:\n        /* \"#utility.yul\":483:488   */\n      dup2\n        /* \"#utility.yul\":480:515   */\n      eq\n        /* \"#utility.yul\":470:533   */\n      tag_54\n      jumpi\n        /* \"#utility.yul\":529:530   */\n      0x00\n        /* \"#utility.yul\":526:527   */\n      dup1\n        /* \"#utility.yul\":519:531   */\n      revert\n        /* \"#utility.yul\":470:533   */\n    tag_54:\n        /* \"#utility.yul\":417:539   */\n      pop\n      jump\t// out\n        /* \"#utility.yul\":545:684   */\n    tag_29:\n        /* \"#utility.yul\":591:596   */\n      0x00\n        /* \"#utility.yul\":629:635   */\n      dup2\n        /* \"#utility.yul\":616:636   */\n      calldataload\n        /* \"#utility.yul\":607:636   */\n      swap1\n      pop\n        /* \"#utility.yul\":645:678   */\n      tag_56\n        /* \"#utility.yul\":672:677   */\n      dup2\n        /* \"#utility.yul\":645:678   */\n      tag_28\n      jump\t// in\n    tag_56:\n        /* \"#utility.yul\":545:684   */\n      swap3\n      swap2\n      pop\n      pop\n      jump\t// out\n        /* \"#utility.yul\":690:807   */\n    tag_30:\n        /* \"#utility.yul\":799:800   */\n      0x00\n        /* \"#utility.yul\":796:797   */\n      dup1\n        /* \"#utility.yul\":789:801   */\n      revert\n        /* \"#utility.yul\":813:930   */\n    tag_31:\n        /* \"#utility.yul\":922:923   */\n      0x00\n        /* \"#utility.yul\":919:920   */\n      dup1\n        /* \"#utility.yul\":912:924   */\n      revert\n        /* \"#utility.yul\":936:1053   */\n    tag_32:\n        /* \"#utility.yul\":1045:1046   */\n      0x00\n        /* \"#utility.yul\":1042:1043   */\n      dup1\n        /* \"#utility.yul\":1035:1047   */\n      revert\n        /* \"#utility.yul\":1072:1624   */\n    tag_33:\n        /* \"#utility.yul\":1129:1137   */\n      0x00\n        /* \"#utility.yul\":1139:1145   */\n      dup1\n        /* \"#utility.yul\":1189:1192   */\n      dup4\n        /* \"#utility.yul\":1182:1186   */\n      0x1f\n        /* \"#utility.yul\":1174:1180   */\n      dup5\n        /* \"#utility.yul\":1170:1187   */\n      add\n        /* \"#utility.yul\":1166:1193   */\n      slt\n        /* \"#utility.yul\":1156:1278   */\n      tag_61\n      jumpi\n        /* \"#utility.yul\":1197:1276   */\n      tag_62\n      tag_30\n      jump\t// in\n    tag_62:\n        /* \"#utility.yul\":1156:1278   */\n    tag_61:\n        /* \"#utility.yul\":1310:1316   */\n      dup3\n        /* \"#utility.yul\":1297:1317   */\n      calldataload\n        /* \"#utility.yul\":1287:1317   */\n      swap1\n      pop\n        /* \"#utility.yul\":1340:1358   */\n      0xffffffffffffffff\n        /* \"#utility.yul\":1332:1338   */\n      dup2\n        /* \"#utility.yul\":1329:1359   */\n      gt\n        /* \"#utility.yul\":1326:1443   */\n      iszero\n      tag_63\n      jumpi\n        /* \"#utility.yul\":1362:1441   */\n      tag_64\n      tag_31\n      jump\t// in\n    tag_64:\n        /* \"#utility.yul\":1326:1443   */\n    tag_63:\n        /* \"#utility.yul\":1476:1480   */\n      0x20\n        /* \"#utility.yul\":1468:1474   */\n      dup4\n        /* \"#utility.yul\":1464:1481   */\n      add\n        /* \"#utility.yul\":1452:1481   */\n      swap2\n      pop\n        /* \"#utility.yul\":1530:1533   */\n      dup4\n        /* \"#utility.yul\":1522:1526   */\n      0x01\n        /* \"#utility.yul\":1514:1520   */\n      dup3\n        /* \"#utility.yul\":1510:1527   */\n      mul\n        /* \"#utility.yul\":1500:1508   */\n      dup4\n        /* \"#utility.yul\":1496:1528   */\n      add\n        /* \"#utility.yul\":1493:1534   */\n      gt\n        /* \"#utility.yul\":1490:1618   */\n      iszero\n      tag_65\n      jumpi\n        /* \"#utility.yul\":1537:1616   */\n      tag_66\n      tag_32\n      jump\t// in\n    tag_66:\n        /* \"#utility.yul\":1490:1618   */\n    tag_65:\n        /* \"#utility.yul\":1072:1624   */\n      swap3\n      pop\n      swap3\n      swap1\n      pop\n      jump\t// out\n        /* \"#utility.yul\":1630:2302   */\n    tag_7:\n        /* \"#utility.yul\":1709:1715   */\n      0x00\n        /* \"#utility.yul\":1717:1723   */\n      dup1\n        /* \"#utility.yul\":1725:1731   */\n      0x00\n        /* \"#utility.yul\":1774:1776   */\n      0x40\n        /* \"#utility.yul\":1762:1771   */\n      dup5\n        /* \"#utility.yul\":1753:1760   */\n      dup7\n        /* \"#utility.yul\":1749:1772   */\n      sub\n        /* \"#utility.yul\":1745:1777   */\n      slt\n        /* \"#utility.yul\":1742:1861   */\n      iszero\n      tag_68\n      jumpi\n        /* \"#utility.yul\":1780:1859   */\n      tag_69\n      tag_25\n      jump\t// in\n    tag_69:\n        /* \"#utility.yul\":1742:1861   */\n    tag_68:\n        /* \"#utility.yul\":1900:1901   */\n      0x00\n        /* \"#utility.yul\":1925:1978   */\n      tag_70\n        /* \"#utility.yul\":1970:1977   */\n      dup7\n        /* \"#utility.yul\":1961:1967   */\n      dup3\n        /* \"#utility.yul\":1950:1959   */\n      dup8\n        /* \"#utility.yul\":1946:1968   */\n      add\n        /* \"#utility.yul\":1925:1978   */\n      tag_29\n      jump\t// in\n    tag_70:\n        /* \"#utility.yul\":1915:1978   */\n      swap4\n      pop\n        /* \"#utility.yul\":1871:1988   */\n      pop\n        /* \"#utility.yul\":2055:2057   */\n      0x20\n        /* \"#utility.yul\":2044:2053   */\n      dup5\n        /* \"#utility.yul\":2040:2058   */\n      add\n        /* \"#utility.yul\":2027:2059   */\n      calldataload\n        /* \"#utility.yul\":2086:2104   */\n      0xffffffffffffffff\n        /* \"#utility.yul\":2078:2084   */\n      dup2\n        /* \"#utility.yul\":2075:2105   */\n      gt\n        /* \"#utility.yul\":2072:2189   */\n      iszero\n      tag_71\n      jumpi\n        /* \"#utility.yul\":2108:2187   */\n      tag_72\n      tag_26\n      jump\t// in\n    tag_72:\n        /* \"#utility.yul\":2072:2189   */\n    tag_71:\n        /* \"#utility.yul\":2221:2285   */\n      tag_73\n        /* \"#utility.yul\":2277:2284   */\n      dup7\n        /* \"#utility.yul\":2268:2274   */\n      dup3\n        /* \"#utility.yul\":2257:2266   */\n      dup8\n        /* \"#utility.yul\":2253:2275   */\n      add\n        /* \"#utility.yul\":2221:2285   */\n      tag_33\n      jump\t// in\n    tag_73:\n        /* \"#utility.yul\":2203:2285   */\n      swap3\n      pop\n      swap3\n      pop\n        /* \"#utility.yul\":1998:2295   */\n      pop\n        /* \"#utility.yul\":1630:2302   */\n      swap3\n      pop\n      swap3\n      pop\n      swap3\n      jump\t// out\n        /* \"#utility.yul\":2308:2434   */\n    tag_34:\n        /* \"#utility.yul\":2345:2352   */\n      0x00\n        /* \"#utility.yul\":2385:2427   */\n      0xffffffffffffffffffffffffffffffffffffffff\n        /* \"#utility.yul\":2378:2383   */\n      dup3\n        /* \"#utility.yul\":2374:2428   */\n      and\n        /* \"#utility.yul\":2363:2428   */\n      swap1\n      pop\n        /* \"#utility.yul\":2308:2434   */\n      swap2\n      swap1\n      pop\n      jump\t// out\n        /* \"#utility.yul\":2440:2536   */\n    tag_35:\n        /* \"#utility.yul\":2477:2484   */\n      0x00\n        /* \"#utility.yul\":2506:2530   */\n      tag_76\n        /* \"#utility.yul\":2524:2529   */\n      dup3\n        /* \"#utility.yul\":2506:2530   */\n      tag_34\n      jump\t// in\n    tag_76:\n        /* \"#utility.yul\":2495:2530   */\n      swap1\n      pop\n        /* \"#utility.yul\":2440:2536   */\n      swap2\n      swap1\n      pop\n      jump\t// out\n        /* \"#utility.yul\":2542:2660   */\n    tag_36:\n        /* \"#utility.yul\":2629:2653   */\n      tag_78\n        /* \"#utility.yul\":2647:2652   */\n      dup2\n        /* \"#utility.yul\":2629:2653   */\n      tag_35\n      jump\t// in\n    tag_78:\n        /* \"#utility.yul\":2624:2627   */\n      dup3\n        /* \"#utility.yul\":2617:2654   */\n      mstore\n        /* \"#utility.yul\":2542:2660   */\n      pop\n      pop\n      jump\t// out\n        /* \"#utility.yul\":2666:2888   */\n    tag_10:\n        /* \"#utility.yul\":2759:2763   */\n      0x00\n        /* \"#utility.yul\":2797:2799   */\n      0x20\n        /* \"#utility.yul\":2786:2795   */\n      dup3\n        /* \"#utility.yul\":2782:2800   */\n      add\n        /* \"#utility.yul\":2774:2800   */\n      swap1\n      pop\n        /* \"#utility.yul\":2810:2881   */\n      tag_80\n        /* \"#utility.yul\":2878:2879   */\n      0x00\n        /* \"#utility.yul\":2867:2876   */\n      dup4\n        /* \"#utility.yul\":2863:2880   */\n      add\n        /* \"#utility.yul\":2854:2860   */\n      dup5\n        /* \"#utility.yul\":2810:2881   */\n      tag_36\n      jump\t// in\n    tag_80:\n        /* \"#utility.yul\":2666:2888   */\n      swap3\n      swap2\n      pop\n      pop\n      jump\t// out\n        /* \"#utility.yul\":2894:3012   */\n    tag_37:\n        /* \"#utility.yul\":2981:3005   */\n      tag_82\n        /* \"#utility.yul\":2999:3004   */\n      dup2\n        /* \"#utility.yul\":2981:3005   */\n      tag_27\n      jump\t// in\n    tag_82:\n        /* \"#utility.yul\":2976:2979   */\n      dup3\n        /* \"#utility.yul\":2969:3006   */\n      mstore\n        /* \"#utility.yul\":2894:3012   */\n      pop\n      pop\n      jump\t// out\n        /* \"#utility.yul\":3018:3240   */\n    tag_14:\n        /* \"#utility.yul\":3111:3115   */\n      0x00\n        /* \"#utility.yul\":3149:3151   */\n      0x20\n        /* \"#utility.yul\":3138:3147   */\n      dup3\n        /* \"#utility.yul\":3134:3152   */\n      add\n        /* \"#utility.yul\":3126:3152   */\n      swap1\n      pop\n        /* \"#utility.yul\":3162:3233   */\n      tag_84\n        /* \"#utility.yul\":3230:3231   */\n      0x00\n        /* \"#utility.yul\":3219:3228   */\n      dup4\n        /* \"#utility.yul\":3215:3232   */\n      add\n        /* \"#utility.yul\":3206:3212   */\n      dup5\n        /* \"#utility.yul\":3162:3233   */\n      tag_37\n      jump\t// in\n    tag_84:\n        /* \"#utility.yul\":3018:3240   */\n      swap3\n      swap2\n      pop\n      pop\n      jump\t// out\n        /* \"#utility.yul\":3246:3394   */\n    tag_38:\n        /* \"#utility.yul\":3348:3359   */\n      0x00\n        /* \"#utility.yul\":3385:3388   */\n      dup2\n        /* \"#utility.yul\":3370:3388   */\n      swap1\n      pop\n        /* \"#utility.yul\":3246:3394   */\n      swap3\n      swap2\n      pop\n      pop\n      jump\t// out\n        /* \"#utility.yul\":3400:3614   */\n    tag_39:\n        /* \"#utility.yul\":3540:3606   */\n      0x1901000000000000000000000000000000000000000000000000000000000000\n        /* \"#utility.yul\":3536:3537   */\n      0x00\n        /* \"#utility.yul\":3528:3534   */\n      dup3\n        /* \"#utility.yul\":3524:3538   */\n      add\n        /* \"#utility.yul\":3517:3607   */\n      mstore\n        /* \"#utility.yul\":3400:3614   */\n      pop\n      jump\t// out\n        /* \"#utility.yul\":3620:4020   */\n    tag_40:\n        /* \"#utility.yul\":3780:3783   */\n      0x00\n        /* \"#utility.yul\":3801:3885   */\n      tag_88\n        /* \"#utility.yul\":3883:3884   */\n      0x02\n        /* \"#utility.yul\":3878:3881   */\n      dup4\n        /* \"#utility.yul\":3801:3885   */\n      tag_38\n      jump\t// in\n    tag_88:\n        /* \"#utility.yul\":3794:3885   */\n      swap2\n      pop\n        /* \"#utility.yul\":3894:3987   */\n      tag_89\n        /* \"#utility.yul\":3983:3986   */\n      dup3\n        /* \"#utility.yul\":3894:3987   */\n      tag_39\n      jump\t// in\n    tag_89:\n        /* \"#utility.yul\":4012:4013   */\n      0x02\n        /* \"#utility.yul\":4007:4010   */\n      dup3\n        /* \"#utility.yul\":4003:4014   */\n      add\n        /* \"#utility.yul\":3996:4014   */\n      swap1\n      pop\n        /* \"#utility.yul\":3620:4020   */\n      swap2\n      swap1\n      pop\n      jump\t// out\n        /* \"#utility.yul\":4026:4105   */\n    tag_41:\n        /* \"#utility.yul\":4065:4072   */\n      0x00\n        /* \"#utility.yul\":4094:4099   */\n      dup2\n        /* \"#utility.yul\":4083:4099   */\n      swap1\n      pop\n        /* \"#utility.yul\":4026:4105   */\n      swap2\n      swap1\n      pop\n      jump\t// out\n        /* \"#utility.yul\":4111:4268   */\n    tag_42:\n        /* \"#utility.yul\":4216:4261   */\n      tag_92\n        /* \"#utility.yul\":4236:4260   */\n      tag_93\n        /* \"#utility.yul\":4254:4259   */\n      dup3\n        /* \"#utility.yul\":4236:4260   */\n      tag_27\n      jump\t// in\n    tag_93:\n        /* \"#utility.yul\":4216:4261   */\n      tag_41\n      jump\t// in\n    tag_92:\n        /* \"#utility.yul\":4211:4214   */\n      dup3\n        /* \"#utility.yul\":4204:4262   */\n      mstore\n        /* \"#utility.yul\":4111:4268   */\n      pop\n      pop\n      jump\t// out\n        /* \"#utility.yul\":4274:4937   */\n    tag_17:\n        /* \"#utility.yul\":4515:4518   */\n      0x00\n        /* \"#utility.yul\":4537:4685   */\n      tag_95\n        /* \"#utility.yul\":4681:4684   */\n      dup3\n        /* \"#utility.yul\":4537:4685   */\n      tag_40\n      jump\t// in\n    tag_95:\n        /* \"#utility.yul\":4530:4685   */\n      swap2\n      pop\n        /* \"#utility.yul\":4695:4770   */\n      tag_96\n        /* \"#utility.yul\":4766:4769   */\n      dup3\n        /* \"#utility.yul\":4757:4763   */\n      dup6\n        /* \"#utility.yul\":4695:4770   */\n      tag_42\n      jump\t// in\n    tag_96:\n        /* \"#utility.yul\":4795:4797   */\n      0x20\n        /* \"#utility.yul\":4790:4793   */\n      dup3\n        /* \"#utility.yul\":4786:4798   */\n      add\n        /* \"#utility.yul\":4779:4798   */\n      swap2\n      pop\n        /* \"#utility.yul\":4808:4883   */\n      tag_97\n        /* \"#utility.yul\":4879:4882   */\n      dup3\n        /* \"#utility.yul\":4870:4876   */\n      dup5\n        /* \"#utility.yul\":4808:4883   */\n      tag_42\n      jump\t// in\n    tag_97:\n        /* \"#utility.yul\":4908:4910   */\n      0x20\n        /* \"#utility.yul\":4903:4906   */\n      dup3\n        /* \"#utility.yul\":4899:4911   */\n      add\n        /* \"#utility.yul\":4892:4911   */\n      swap2\n      pop\n        /* \"#utility.yul\":4928:4931   */\n      dup2\n        /* \"#utility.yul\":4921:4931   */\n      swap1\n      pop\n        /* \"#utility.yul\":4274:4937   */\n      swap4\n      swap3\n      pop\n      pop\n      pop\n      jump\t// out\n        /* \"#utility.yul\":4943:5029   */\n    tag_43:\n        /* \"#utility.yul\":4978:4985   */\n      0x00\n        /* \"#utility.yul\":5018:5022   */\n      0xff\n        /* \"#utility.yul\":5011:5016   */\n      dup3\n        /* \"#utility.yul\":5007:5023   */\n      and\n        /* \"#utility.yul\":4996:5023   */\n      swap1\n      pop\n        /* \"#utility.yul\":4943:5029   */\n      swap2\n      swap1\n      pop\n      jump\t// out\n        /* \"#utility.yul\":5035:5153   */\n    tag_44:\n        /* \"#utility.yul\":5106:5128   */\n      tag_100\n        /* \"#utility.yul\":5122:5127   */\n      dup2\n        /* \"#utility.yul\":5106:5128   */\n      tag_43\n      jump\t// in\n    tag_100:\n        /* \"#utility.yul\":5099:5104   */\n      dup2\n        /* \"#utility.yul\":5096:5129   */\n      eq\n        /* \"#utility.yul\":5086:5147   */\n      tag_101\n      jumpi\n        /* \"#utility.yul\":5143:5144   */\n      0x00\n        /* \"#utility.yul\":5140:5141   */\n      dup1\n        /* \"#utility.yul\":5133:5145   */\n      revert\n        /* \"#utility.yul\":5086:5147   */\n    tag_101:\n        /* \"#utility.yul\":5035:5153   */\n      pop\n      jump\t// out\n        /* \"#utility.yul\":5159:5294   */\n    tag_45:\n        /* \"#utility.yul\":5203:5208   */\n      0x00\n        /* \"#utility.yul\":5241:5247   */\n      dup2\n        /* \"#utility.yul\":5228:5248   */\n      calldataload\n        /* \"#utility.yul\":5219:5248   */\n      swap1\n      pop\n        /* \"#utility.yul\":5257:5288   */\n      tag_103\n        /* \"#utility.yul\":5282:5287   */\n      dup2\n        /* \"#utility.yul\":5257:5288   */\n      tag_44\n      jump\t// in\n    tag_103:\n        /* \"#utility.yul\":5159:5294   */\n      swap3\n      swap2\n      pop\n      pop\n      jump\t// out\n        /* \"#utility.yul\":5300:5915   */\n    tag_19:\n        /* \"#utility.yul\":5375:5381   */\n      0x00\n        /* \"#utility.yul\":5383:5389   */\n      dup1\n        /* \"#utility.yul\":5391:5397   */\n      0x00\n        /* \"#utility.yul\":5440:5442   */\n      0x60\n        /* \"#utility.yul\":5428:5437   */\n      dup5\n        /* \"#utility.yul\":5419:5426   */\n      dup7\n        /* \"#utility.yul\":5415:5438   */\n      sub\n        /* \"#utility.yul\":5411:5443   */\n      slt\n        /* \"#utility.yul\":5408:5527   */\n      iszero\n      tag_105\n      jumpi\n        /* \"#utility.yul\":5446:5525   */\n      tag_106\n      tag_25\n      jump\t// in\n    tag_106:\n        /* \"#utility.yul\":5408:5527   */\n    tag_105:\n        /* \"#utility.yul\":5566:5567   */\n      0x00\n        /* \"#utility.yul\":5591:5644   */\n      tag_107\n        /* \"#utility.yul\":5636:5643   */\n      dup7\n        /* \"#utility.yul\":5627:5633   */\n      dup3\n        /* \"#utility.yul\":5616:5625   */\n      dup8\n        /* \"#utility.yul\":5612:5634   */\n      add\n        /* \"#utility.yul\":5591:5644   */\n      tag_29\n      jump\t// in\n    tag_107:\n        /* \"#utility.yul\":5581:5644   */\n      swap4\n      pop\n        /* \"#utility.yul\":5537:5654   */\n      pop\n        /* \"#utility.yul\":5693:5695   */\n      0x20\n        /* \"#utility.yul\":5719:5772   */\n      tag_108\n        /* \"#utility.yul\":5764:5771   */\n      dup7\n        /* \"#utility.yul\":5755:5761   */\n      dup3\n        /* \"#utility.yul\":5744:5753   */\n      dup8\n        /* \"#utility.yul\":5740:5762   */\n      add\n        /* \"#utility.yul\":5719:5772   */\n      tag_29\n      jump\t// in\n    tag_108:\n        /* \"#utility.yul\":5709:5772   */\n      swap3\n      pop\n        /* \"#utility.yul\":5664:5782   */\n      pop\n        /* \"#utility.yul\":5821:5823   */\n      0x40\n        /* \"#utility.yul\":5847:5898   */\n      tag_109\n        /* \"#utility.yul\":5890:5897   */\n      dup7\n        /* \"#utility.yul\":5881:5887   */\n      dup3\n        /* \"#utility.yul\":5870:5879   */\n      dup8\n        /* \"#utility.yul\":5866:5888   */\n      add\n        /* \"#utility.yul\":5847:5898   */\n      tag_45\n      jump\t// in\n    tag_109:\n        /* \"#utility.yul\":5837:5898   */\n      swap2\n      pop\n        /* \"#utility.yul\":5792:5908   */\n      pop\n        /* \"#utility.yul\":5300:5915   */\n      swap3\n      pop\n      swap3\n      pop\n      swap3\n      jump\t// out\n        /* \"#utility.yul\":5921:6033   */\n    tag_46:\n        /* \"#utility.yul\":6004:6026   */\n      tag_111\n        /* \"#utility.yul\":6020:6025   */\n      dup2\n        /* \"#utility.yul\":6004:6026   */\n      tag_43\n      jump\t// in\n    tag_111:\n        /* \"#utility.yul\":5999:6002   */\n      dup3\n        /* \"#utility.yul\":5992:6027   */\n      mstore\n        /* \"#utility.yul\":5921:6033   */\n      pop\n      pop\n      jump\t// out\n        /* \"#utility.yul\":6039:6584   */\n    tag_21:\n        /* \"#utility.yul\":6212:6216   */\n      0x00\n        /* \"#utility.yul\":6250:6253   */\n      0x80\n        /* \"#utility.yul\":6239:6248   */\n      dup3\n        /* \"#utility.yul\":6235:6254   */\n      add\n        /* \"#utility.yul\":6227:6254   */\n      swap1\n      pop\n        /* \"#utility.yul\":6264:6335   */\n      tag_113\n        /* \"#utility.yul\":6332:6333   */\n      0x00\n        /* \"#utility.yul\":6321:6330   */\n      dup4\n        /* \"#utility.yul\":6317:6334   */\n      add\n        /* \"#utility.yul\":6308:6314   */\n      dup8\n        /* \"#utility.yul\":6264:6335   */\n      tag_37\n      jump\t// in\n    tag_113:\n        /* \"#utility.yul\":6345:6413   */\n      tag_114\n        /* \"#utility.yul\":6409:6411   */\n      0x20\n        /* \"#utility.yul\":6398:6407   */\n      dup4\n        /* \"#utility.yul\":6394:6412   */\n      add\n        /* \"#utility.yul\":6385:6391   */\n      dup7\n        /* \"#utility.yul\":6345:6413   */\n      tag_46\n      jump\t// in\n    tag_114:\n        /* \"#utility.yul\":6423:6495   */\n      tag_115\n        /* \"#utility.yul\":6491:6493   */\n      0x40\n        /* \"#utility.yul\":6480:6489   */\n      dup4\n        /* \"#utility.yul\":6476:6494   */\n      add\n        /* \"#utility.yul\":6467:6473   */\n      dup6\n        /* \"#utility.yul\":6423:6495   */\n      tag_37\n      jump\t// in\n    tag_115:\n        /* \"#utility.yul\":6505:6577   */\n      tag_116\n        /* \"#utility.yul\":6573:6575   */\n      0x60\n        /* \"#utility.yul\":6562:6571   */\n      dup4\n        /* \"#utility.yul\":6558:6576   */\n      add\n        /* \"#utility.yul\":6549:6555   */\n      dup5\n        /* \"#utility.yul\":6505:6577   */\n      tag_37\n      jump\t// in\n    tag_116:\n        /* \"#utility.yul\":6039:6584   */\n      swap6\n      swap5\n      pop\n      pop\n      pop\n      pop\n      pop\n      jump\t// out\n\n    auxdata: 0xa26469706673582212205f67d506436862e05e9a0b30212b1a3933fd8b416574bff04e22078b9eb0193564736f6c634300081a0033\n}\n",
				"bytecode": {
					"linkReferences": {},
					"object": "608060405234801561000f575f80fd5b5060405161070e38038061070e833981810160405281019061003191906101e3565b7fb03948446334eb9b2196d5eb166f69b9d49403eb4a12f36de8d3f9f3cb8e15c38280519060200120828051906020012060405160200161007493929190610271565b604051602081830303815290604052805190602001205f8190555050506102a6565b5f604051905090565b5f80fd5b5f80fd5b5f80fd5b5f80fd5b5f601f19601f8301169050919050565b7f4e487b71000000000000000000000000000000000000000000000000000000005f52604160045260245ffd5b6100f5826100af565b810181811067ffffffffffffffff82111715610114576101136100bf565b5b80604052505050565b5f610126610096565b905061013282826100ec565b919050565b5f67ffffffffffffffff821115610151576101506100bf565b5b61015a826100af565b9050602081019050919050565b8281835e5f83830152505050565b5f61018761018284610137565b61011d565b9050828152602081018484840111156101a3576101a26100ab565b5b6101ae848285610167565b509392505050565b5f82601f8301126101ca576101c96100a7565b5b81516101da848260208601610175565b91505092915050565b5f80604083850312156101f9576101f861009f565b5b5f83015167ffffffffffffffff811115610216576102156100a3565b5b610222858286016101b6565b925050602083015167ffffffffffffffff811115610243576102426100a3565b5b61024f858286016101b6565b9150509250929050565b5f819050919050565b61026b81610259565b82525050565b5f6060820190506102845f830186610262565b6102916020830185610262565b61029e6040830184610262565b949350505050565b61045b806102b35f395ff3fe608060405234801561000f575f80fd5b5060043610610034575f3560e01c806319045a2514610038578063f698da2514610068575b5f80fd5b610052600480360381019061004d91906101c6565b610086565b60405161005f9190610262565b60405180910390f35b610070610125565b60405161007d919061028a565b60405180910390f35b5f805f548560405160200161009c929190610317565b6040516020818303038152906040528051906020012090505f805f86868101906100c69190610383565b9250925092506001848285856040515f81526020016040526040516100ee94939291906103e2565b6020604051602081039080840390855afa15801561010e573d5f803e3d5ffd5b505050602060405103519450505050509392505050565b5f5481565b5f80fd5b5f80fd5b5f819050919050565b61014481610132565b811461014e575f80fd5b50565b5f8135905061015f8161013b565b92915050565b5f80fd5b5f80fd5b5f80fd5b5f8083601f84011261018657610185610165565b5b8235905067ffffffffffffffff8111156101a3576101a2610169565b5b6020830191508360018202830111156101bf576101be61016d565b5b9250929050565b5f805f604084860312156101dd576101dc61012a565b5b5f6101ea86828701610151565b935050602084013567ffffffffffffffff81111561020b5761020a61012e565b5b61021786828701610171565b92509250509250925092565b5f73ffffffffffffffffffffffffffffffffffffffff82169050919050565b5f61024c82610223565b9050919050565b61025c81610242565b82525050565b5f6020820190506102755f830184610253565b92915050565b61028481610132565b82525050565b5f60208201905061029d5f83018461027b565b92915050565b5f81905092915050565b7f19010000000000000000000000000000000000000000000000000000000000005f82015250565b5f6102e16002836102a3565b91506102ec826102ad565b600282019050919050565b5f819050919050565b61031161030c82610132565b6102f7565b82525050565b5f610321826102d5565b915061032d8285610300565b60208201915061033d8284610300565b6020820191508190509392505050565b5f60ff82169050919050565b6103628161034d565b811461036c575f80fd5b50565b5f8135905061037d81610359565b92915050565b5f805f6060848603121561039a5761039961012a565b5b5f6103a786828701610151565b93505060206103b886828701610151565b92505060406103c98682870161036f565b9150509250925092565b6103dc8161034d565b82525050565b5f6080820190506103f55f83018761027b565b61040260208301866103d3565b61040f604083018561027b565b61041c606083018461027b565b9594505050505056fea26469706673582212205f67d506436862e05e9a0b30212b1a3933fd8b416574bff04e22078b9eb0193564736f6c634300081a0033",
					"opcodes": "PUSH1 0x80 PUSH1 0x40 MSTORE CALLVALUE DUP1 ISZERO PUSH2 0xF JUMPI PUSH0 DUP1 REVERT JUMPDEST POP PUSH1 0x40 MLOAD PUSH2 0x70E CODESIZE SUB DUP1 PUSH2 0x70E DUP4 CODECOPY DUP2 DUP2 ADD PUSH1 0x40 MSTORE DUP2 ADD SWAP1 PUSH2 0x31 SWAP2 SWAP1 PUSH2 0x1E3 JUMP JUMPDEST PUSH32 0xB03948446334EB9B2196D5EB166F69B9D49403EB4A12F36DE8D3F9F3CB8E15C3 DUP3 DUP1 MLOAD SWAP1 PUSH1 0x20 ADD KECCAK256 DUP3 DUP1 MLOAD SWAP1 PUSH1 0x20 ADD KECCAK256 PUSH1 0x40 MLOAD PUSH1 0x20 ADD PUSH2 0x74 SWAP4 SWAP3 SWAP2 SWAP1 PUSH2 0x271 JUMP JUMPDEST PUSH1 0x40 MLOAD PUSH1 0x20 DUP2 DUP4 SUB SUB DUP2 MSTORE SWAP1 PUSH1 0x40 MSTORE DUP1 MLOAD SWAP1 PUSH1 0x20 ADD KECCAK256 PUSH0 DUP2 SWAP1 SSTORE POP POP POP PUSH2 0x2A6 JUMP JUMPDEST PUSH0 PUSH1 0x40 MLOAD SWAP1 POP SWAP1 JUMP JUMPDEST PUSH0 DUP1 REVERT JUMPDEST PUSH0 DUP1 REVERT JUMPDEST PUSH0 DUP1 REVERT JUMPDEST PUSH0 DUP1 REVERT JUMPDEST PUSH0 PUSH1 0x1F NOT PUSH1 0x1F DUP4 ADD AND SWAP1 POP SWAP2 SWAP1 POP JUMP JUMPDEST PUSH32 0x4E487B7100000000000000000000000000000000000000000000000000000000 PUSH0 MSTORE PUSH1 0x41 PUSH1 0x4 MSTORE PUSH1 0x24 PUSH0 REVERT JUMPDEST PUSH2 0xF5 DUP3 PUSH2 0xAF JUMP JUMPDEST DUP2 ADD DUP2 DUP2 LT PUSH8 0xFFFFFFFFFFFFFFFF DUP3 GT OR ISZERO PUSH2 0x114 JUMPI PUSH2 0x113 PUSH2 0xBF JUMP JUMPDEST JUMPDEST DUP1 PUSH1 0x40 MSTORE POP POP POP JUMP JUMPDEST PUSH0 PUSH2 0x126 PUSH2 0x96 JUMP JUMPDEST SWAP1 POP PUSH2 0x132 DUP3 DUP3 PUSH2 0xEC JUMP JUMPDEST SWAP2 SWAP1 POP JUMP JUMPDEST PUSH0 PUSH8 0xFFFFFFFFFFFFFFFF DUP3 GT ISZERO PUSH2 0x151 JUMPI PUSH2 0x150 PUSH2 0xBF JUMP JUMPDEST JUMPDEST PUSH2 0x15A DUP3 PUSH2 0xAF JUMP JUMPDEST SWAP1 POP PUSH1 0x20 DUP2 ADD SWAP1 POP SWAP2 SWAP1 POP JUMP JUMPDEST DUP3 DUP2 DUP4 MCOPY PUSH0 DUP4 DUP4 ADD MSTORE POP POP POP JUMP JUMPDEST PUSH0 PUSH2 0x187 PUSH2 0x182 DUP5 PUSH2 0x137 JUMP JUMPDEST PUSH2 0x11D JUMP JUMPDEST SWAP1 POP DUP3 DUP2 MSTORE PUSH1 0x20 DUP2 ADD DUP5 DUP5 DUP5 ADD GT ISZERO PUSH2 0x1A3 JUMPI PUSH2 0x1A2 PUSH2 0xAB JUMP JUMPDEST JUMPDEST PUSH2 0x1AE DUP5 DUP3 DUP6 PUSH2 0x167 JUMP JUMPDEST POP SWAP4 SWAP3 POP POP POP JUMP JUMPDEST PUSH0 DUP3 PUSH1 0x1F DUP4 ADD SLT PUSH2 0x1CA JUMPI PUSH2 0x1C9 PUSH2 0xA7 JUMP JUMPDEST JUMPDEST DUP2 MLOAD PUSH2 0x1DA DUP5 DUP3 PUSH1 0x20 DUP7 ADD PUSH2 0x175 JUMP JUMPDEST SWAP2 POP POP SWAP3 SWAP2 POP POP JUMP JUMPDEST PUSH0 DUP1 PUSH1 0x40 DUP4 DUP6 SUB SLT ISZERO PUSH2 0x1F9 JUMPI PUSH2 0x1F8 PUSH2 0x9F JUMP JUMPDEST JUMPDEST PUSH0 DUP4 ADD MLOAD PUSH8 0xFFFFFFFFFFFFFFFF DUP2 GT ISZERO PUSH2 0x216 JUMPI PUSH2 0x215 PUSH2 0xA3 JUMP JUMPDEST JUMPDEST PUSH2 0x222 DUP6 DUP3 DUP7 ADD PUSH2 0x1B6 JUMP JUMPDEST SWAP3 POP POP PUSH1 0x20 DUP4 ADD MLOAD PUSH8 0xFFFFFFFFFFFFFFFF DUP2 GT ISZERO PUSH2 0x243 JUMPI PUSH2 0x242 PUSH2 0xA3 JUMP JUMPDEST JUMPDEST PUSH2 0x24F DUP6 DUP3 DUP7 ADD PUSH2 0x1B6 JUMP JUMPDEST SWAP2 POP POP SWAP3 POP SWAP3 SWAP1 POP JUMP JUMPDEST PUSH0 DUP2 SWAP1 POP SWAP2 SWAP1 POP JUMP JUMPDEST PUSH2 0x26B DUP2 PUSH2 0x259 JUMP JUMPDEST DUP3 MSTORE POP POP JUMP JUMPDEST PUSH0 PUSH1 0x60 DUP3 ADD SWAP1 POP PUSH2 0x284 PUSH0 DUP4 ADD DUP7 PUSH2 0x262 JUMP JUMPDEST PUSH2 0x291 PUSH1 0x20 DUP4 ADD DUP6 PUSH2 0x262 JUMP JUMPDEST PUSH2 0x29E PUSH1 0x40 DUP4 ADD DUP5 PUSH2 0x262 JUMP JUMPDEST SWAP5 SWAP4 POP POP POP POP JUMP JUMPDEST PUSH2 0x45B DUP1 PUSH2 0x2B3 PUSH0 CODECOPY PUSH0 RETURN INVALID PUSH1 0x80 PUSH1 0x40 MSTORE CALLVALUE DUP1 ISZERO PUSH2 0xF JUMPI PUSH0 DUP1 REVERT JUMPDEST POP PUSH1 0x4 CALLDATASIZE LT PUSH2 0x34 JUMPI PUSH0 CALLDATALOAD PUSH1 0xE0 SHR DUP1 PUSH4 0x19045A25 EQ PUSH2 0x38 JUMPI DUP1 PUSH4 0xF698DA25 EQ PUSH2 0x68 JUMPI JUMPDEST PUSH0 DUP1 REVERT JUMPDEST PUSH2 0x52 PUSH1 0x4 DUP1 CALLDATASIZE SUB DUP2 ADD SWAP1 PUSH2 0x4D SWAP2 SWAP1 PUSH2 0x1C6 JUMP JUMPDEST PUSH2 0x86 JUMP JUMPDEST PUSH1 0x40 MLOAD PUSH2 0x5F SWAP2 SWAP1 PUSH2 0x262 JUMP JUMPDEST PUSH1 0x40 MLOAD DUP1 SWAP2 SUB SWAP1 RETURN JUMPDEST PUSH2 0x70 PUSH2 0x125 JUMP JUMPDEST PUSH1 0x40 MLOAD PUSH2 0x7D SWAP2 SWAP1 PUSH2 0x28A JUMP JUMPDEST PUSH1 0x40 MLOAD DUP1 SWAP2 SUB SWAP1 RETURN JUMPDEST PUSH0 DUP1 PUSH0 SLOAD DUP6 PUSH1 0x40 MLOAD PUSH1 0x20 ADD PUSH2 0x9C SWAP3 SWAP2 SWAP1 PUSH2 0x317 JUMP JUMPDEST PUSH1 0x40 MLOAD PUSH1 0x20 DUP2 DUP4 SUB SUB DUP2 MSTORE SWAP1 PUSH1 0x40 MSTORE DUP1 MLOAD SWAP1 PUSH1 0x20 ADD KECCAK256 SWAP1 POP PUSH0 DUP1 PUSH0 DUP7 DUP7 DUP2 ADD SWAP1 PUSH2 0xC6 SWAP2 SWAP1 PUSH2 0x383 JUMP JUMPDEST SWAP3 POP SWAP3 POP SWAP3 POP PUSH1 0x1 DUP5 DUP3 DUP6 DUP6 PUSH1 0x40 MLOAD PUSH0 DUP2 MSTORE PUSH1 0x20 ADD PUSH1 0x40 MSTORE PUSH1 0x40 MLOAD PUSH2 0xEE SWAP5 SWAP4 SWAP3 SWAP2 SWAP1 PUSH2 0x3E2 JUMP JUMPDEST PUSH1 0x20 PUSH1 0x40 MLOAD PUSH1 0x20 DUP2 SUB SWAP1 DUP1 DUP5 SUB SWAP1 DUP6 GAS STATICCALL ISZERO DUP1 ISZERO PUSH2 0x10E JUMPI RETURNDATASIZE PUSH0 DUP1 RETURNDATACOPY RETURNDATASIZE PUSH0 REVERT JUMPDEST POP POP POP PUSH1 0x20 PUSH1 0x40 MLOAD SUB MLOAD SWAP5 POP POP POP POP POP SWAP4 SWAP3 POP POP POP JUMP JUMPDEST PUSH0 SLOAD DUP2 JUMP JUMPDEST PUSH0 DUP1 REVERT JUMPDEST PUSH0 DUP1 REVERT JUMPDEST PUSH0 DUP2 SWAP1 POP SWAP2 SWAP1 POP JUMP JUMPDEST PUSH2 0x144 DUP2 PUSH2 0x132 JUMP JUMPDEST DUP2 EQ PUSH2 0x14E JUMPI PUSH0 DUP1 REVERT JUMPDEST POP JUMP JUMPDEST PUSH0 DUP2 CALLDATALOAD SWAP1 POP PUSH2 0x15F DUP2 PUSH2 0x13B JUMP JUMPDEST SWAP3 SWAP2 POP POP JUMP JUMPDEST PUSH0 DUP1 REVERT JUMPDEST PUSH0 DUP1 REVERT JUMPDEST PUSH0 DUP1 REVERT JUMPDEST PUSH0 DUP1 DUP4 PUSH1 0x1F DUP5 ADD SLT PUSH2 0x186 JUMPI PUSH2 0x185 PUSH2 0x165 JUMP JUMPDEST JUMPDEST DUP3 CALLDATALOAD SWAP1 POP PUSH8 0xFFFFFFFFFFFFFFFF DUP2 GT ISZERO PUSH2 0x1A3 JUMPI PUSH2 0x1A2 PUSH2 0x169 JUMP JUMPDEST JUMPDEST PUSH1 0x20 DUP4 ADD SWAP2 POP DUP4 PUSH1 0x1 DUP3 MUL DUP4 ADD GT ISZERO PUSH2 0x1BF JUMPI PUSH2 0x1BE PUSH2 0x16D JUMP JUMPDEST JUMPDEST SWAP3 POP SWAP3 SWAP1 POP JUMP JUMPDEST PUSH0 DUP1 PUSH0 PUSH1 0x40 DUP5 DUP7 SUB SLT ISZERO PUSH2 0x1DD JUMPI PUSH2 0x1DC PUSH2 0x12A JUMP JUMPDEST JUMPDEST PUSH0 PUSH2 0x1EA DUP7 DUP3 DUP8 ADD PUSH2 0x151 JUMP JUMPDEST SWAP4 POP POP PUSH1 0x20 DUP5 ADD CALLDATALOAD PUSH8 0xFFFFFFFFFFFFFFFF DUP2 GT ISZERO PUSH2 0x20B JUMPI PUSH2 0x20A PUSH2 0x12E JUMP JUMPDEST JUMPDEST PUSH2 0x217 DUP7 DUP3 DUP8 ADD PUSH2 0x171 JUMP JUMPDEST SWAP3 POP SWAP3 POP POP SWAP3 POP SWAP3 POP SWAP3 JUMP JUMPDEST PUSH0 PUSH20 0xFFFFFFFFFFFFFFFFFFFFFFFFFFFFFFFFFFFFFFFF DUP3 AND SWAP1 POP SWAP2 SWAP1 POP JUMP JUMPDEST PUSH0 PUSH2 0x24C DUP3 PUSH2 0x223 JUMP JUMPDEST SWAP1 POP SWAP2 SWAP1 POP JUMP JUMPDEST PUSH2 0x25C DUP2 PUSH2 0x242 JUMP JUMPDEST DUP3 MSTORE POP POP JUMP JUMPDEST PUSH0 PUSH1 0x20 DUP3 ADD SWAP1 POP PUSH2 0x275 PUSH0 DUP4 ADD DUP5 PUSH2 0x253 JUMP JUMPDEST SWAP3 SWAP2 POP POP JUMP JUMPDEST PUSH2 0x284 DUP2 PUSH2 0x132 JUMP JUMPDEST DUP3 MSTORE POP POP JUMP JUMPDEST PUSH0 PUSH1 0x20 DUP3 ADD SWAP1 POP PUSH2 0x29D PUSH0 DUP4 ADD DUP5 PUSH2 0x27B JUMP JUMPDEST SWAP3 SWAP2 POP POP JUMP JUMPDEST PUSH0 DUP2 SWAP1 POP SWAP3 SWAP2 POP POP JUMP JUMPDEST PUSH32 0x1901000000000000000000000000000000000000000000000000000000000000 PUSH0 DUP3 ADD MSTORE POP JUMP JUMPDEST PUSH0 PUSH2 0x2E1 PUSH1 0x2 DUP4 PUSH2 0x2A3 JUMP JUMPDEST SWAP2 POP PUSH2 0x2EC DUP3 PUSH2 0x2AD JUMP JUMPDEST PUSH1 0x2 DUP3 ADD SWAP1 POP SWAP2 SWAP1 POP JUMP JUMPDEST PUSH0 DUP2 SWAP1 POP SWAP2 SWAP1 POP JUMP JUMPDEST PUSH2 0x311 PUSH2 0x30C DUP3 PUSH2 0x132 JUMP JUMPDEST PUSH2 0x2F7 JUMP JUMPDEST DUP3 MSTORE POP POP JUMP JUMPDEST PUSH0 PUSH2 0x321 DUP3 PUSH2 0x2D5 JUMP JUMPDEST SWAP2 POP PUSH2 0x32D DUP3 DUP6 PUSH2 0x300 JUMP JUMPDEST PUSH1 0x20 DUP3 ADD SWAP2 POP PUSH2 0x33D DUP3 DUP5 PUSH2 0x300 JUMP JUMPDEST PUSH1 0x20 DUP3 ADD SWAP2 POP DUP2 SWAP1 POP SWAP4 SWAP3 POP POP POP JUMP JUMPDEST PUSH0 PUSH1 0xFF DUP3 AND SWAP1 POP SWAP2 SWAP1 POP JUMP JUMPDEST PUSH2 0x362 DUP2 PUSH2 0x34D JUMP JUMPDEST DUP2 EQ PUSH2 0x36C JUMPI PUSH0 DUP1 REVERT JUMPDEST POP JUMP JUMPDEST PUSH0 DUP2 CALLDATALOAD SWAP1 POP PUSH2 0x37D DUP2 PUSH2 0x359 JUMP JUMPDEST SWAP3 SWAP2 POP POP JUMP JUMPDEST PUSH0 DUP1 PUSH0 PUSH1 0x60 DUP5 DUP7 SUB SLT ISZERO PUSH2 0x39A JUMPI PUSH2 0x399 PUSH2 0x12A JUMP JUMPDEST JUMPDEST PUSH0 PUSH2 0x3A7 DUP7 DUP3 DUP8 ADD PUSH2 0x151 JUMP JUMPDEST SWAP4 POP POP PUSH1 0x20 PUSH2 0x3B8 DUP7 DUP3 DUP8 ADD PUSH2 0x151 JUMP JUMPDEST SWAP3 POP POP PUSH1 0x40 PUSH2 0x3C9 DUP7 DUP3 DUP8 ADD PUSH2 0x36F JUMP JUMPDEST SWAP2 POP POP SWAP3 POP SWAP3 POP SWAP3 JUMP JUMPDEST PUSH2 0x3DC DUP2 PUSH2 0x34D JUMP JUMPDEST DUP3 MSTORE POP POP JUMP JUMPDEST PUSH0 PUSH1 0x80 DUP3 ADD SWAP1 POP PUSH2 0x3F5 PUSH0 DUP4 ADD DUP8 PUSH2 0x27B JUMP JUMPDEST PUSH2 0x402 PUSH1 0x20 DUP4 ADD DUP7 PUSH2 0x3D3 JUMP JUMPDEST PUSH2 0x40F PUSH1 0x40 DUP4 ADD DUP6 PUSH2 0x27B JUMP JUMPDEST PUSH2 0x41C PUSH1 0x60 DUP4 ADD DUP5 PUSH2 0x27B JUMP JUMPDEST SWAP6 SWAP5 POP POP POP POP POP JUMP INVALID LOG2 PUSH5 0x6970667358 0x22 SLT KECCAK256 PUSH0 PUSH8 0xD506436862E05E9A SIGNEXTEND ADDRESS 0x21 0x2B BYTE CODECOPY CALLER REVERT DUP12 COINBASE PUSH6 0x74BFF04E2207 DUP12 SWAP15 0xB0 NOT CALLDATALOAD PUSH5 0x736F6C6343 STOP ADDMOD BYTE STOP CALLER "
				},
				"gasEstimates": {
					"creation": {
						"codeDepositCost": "223000",
						"executionCost": "infinite",
						"totalCost": "infinite"
					},
					"external": {
						"domainSeparator()": "2424",
						"recover(bytes32,bytes)": "infinite"
					}
				},
				"methodIdentifiers": {
					"domainSeparator()": "f698da25",
					"recover(bytes32,bytes)": "19045a25"
				}
			},
			"storageLayout": {
				"storage": [
					{
						"astId": 230,
						"contract": "P/Pharming/Pharming.sol:DomainBoundSig",
						"label": "domainSeparator",
						"offset": 0,
						"slot": "0",
						"type": "t_bytes32"
					}
				],
				"types": {
					"t_bytes32": {
						"encoding": "inplace",
						"label": "bytes32",
						"numberOfBytes": "32"
					}
				}
			},
			"userdoc": {
				"kind": "user",
				"methods": {},
				"version": 1
			}
		}
	}
}