{
	"P/Pharming/Pharming.sol": {
		"RegistryHashGuard": {
			"abi": [
				{
					"inputs": [
						{
							"internalType": "bytes32",
							"name": "h",
							"type": "bytes32"
						}
					],
					"name": "setTrusted",
					"outputs": [],
					"stateMutability": "nonpayable",
					"type": "function"
				},
				{
					"inputs": [],
					"name": "trustedHash",
					"outputs": [
						{
							"internalType": "bytes32",
							"name": "",
							"type": "bytes32"
						}
					],
					"stateMutability": "view",
					"type": "function"
				},
				{
					"inputs": [
						{
							"internalType": "string",
							"name": "name",
							"type": "string"
						},
						{
							"internalType": "address",
							"name": "resolved",
							"type": "address"
						}
					],
					"name": "verifyName",
					"outputs": [
						{
							"internalType": "bool",
							"name": "",
							"type": "bool"
						}
					],
					"stateMutability": "view",
					"type": "function"
				}
			],
			"devdoc": {
				"kind": "dev",
				"methods": {},
				"version": 1
			},
			"evm": {
				"assembly": "    /* \"P/Pharming/Pharming.sol\":1758:2075  contract RegistryHashGuard {... */\n  mstore(0x40, 0x80)\n  callvalue\n  dup1\n  iszero\n  tag_1\n  jumpi\n  0x00\n  dup1\n  revert\ntag_1:\n  pop\n  dataSize(sub_0)\n  dup1\n  dataOffset(sub_0)\n  0x00\n  codecopy\n  0x00\n  return\nstop\n\nsub_0: assembly {\n        /* \"P/Pharming/Pharming.sol\":1758:2075  contract RegistryHashGuard {... */\n      mstore(0x40, 0x80)\n      callvalue\n      dup1\n      iszero\n      tag_1\n      jumpi\n      0x00\n      dup1\n      revert\n    tag_1:\n      pop\n      jumpi(tag_2, lt(calldatasize, 0x04))\n      shr(0xe0, calldataload(0x00))\n      dup1\n      0x22bb115c\n      eq\n      tag_3\n      jumpi\n      dup1\n      0x938d9827\n      eq\n      tag_4\n      jumpi\n      dup1\n      0xa10c4b2a\n      eq\n      tag_5\n      jumpi\n    tag_2:\n      0x00\n      dup1\n      revert\n        /* \"P/Pharming/Pharming.sol\":1824:1896  function setTrusted(bytes32 h) external {... */\n    tag_3:\n      tag_6\n      0x04\n      dup1\n      calldatasize\n      sub\n      dup2\n      add\n      swap1\n      tag_7\n      swap2\n      swap1\n      tag_8\n      jump\t// in\n    tag_7:\n      tag_9\n      jump\t// in\n    tag_6:\n      stop\n        /* \"P/Pharming/Pharming.sol\":1902:2073  function verifyName(string calldata name, address resolved) external view returns (bool) {... */\n    tag_4:\n      tag_10\n      0x04\n      dup1\n      calldatasize\n      sub\n      dup2\n      add\n      swap1\n      tag_11\n      swap2\n      swap1\n      tag_12\n      jump\t// in\n    tag_11:\n      tag_13\n      jump\t// in\n    tag_10:\n      mload(0x40)\n      tag_14\n      swap2\n      swap1\n      tag_15\n      jump\t// in\n    tag_14:\n      mload(0x40)\n      dup1\n      swap2\n      sub\n      swap1\n      return\n        /* \"P/Pharming/Pharming.sol\":1791:1817  bytes32 public trustedHash */\n    tag_5:\n      tag_16\n      tag_17\n      jump\t// in\n    tag_16:\n      mload(0x40)\n      tag_18\n      swap2\n      swap1\n      tag_19\n      jump\t// in\n    tag_18:\n      mload(0x40)\n      dup1\n      swap2\n      sub\n      swap1\n      return\n        /* \"P/Pharming/Pharming.sol\":1824:1896  function setTrusted(bytes32 h) external {... */\n    tag_9:\n        /* \"P/Pharming/Pharming.sol\":1888:1889  h */\n      dup1\n        /* \"P/Pharming/Pharming.sol\":1874:1885  trustedHash */\n      0x00\n        /* \"P/Pharming/Pharming.sol\":1874:1889  trustedHash = h */\n      dup2\n      swap1\n      sstore\n      pop\n        /* \"P/Pharming/Pharming.sol\":1824:1896  function setTrusted(bytes32 h) external {... */\n      pop\n      jump\t// out\n        /* \"P/Pharming/Pharming.sol\":1902:2073  function verifyName(string calldata name, address resolved) external view returns (bool) {... */\n    tag_13:\n        /* \"P/Pharming/Pharming.sol\":1985:1989  bool */\n      0x00\n        /* \"P/Pharming/Pharming.sol\":2055:2066  trustedHash */\n      dup1\n      sload\n        /* \"P/Pharming/Pharming.sol\":2035:2039  name */\n      dup5\n      dup5\n        /* \"P/Pharming/Pharming.sol\":2041:2049  resolved */\n      dup5\n        /* \"P/Pharming/Pharming.sol\":2018:2050  abi.encodePacked(name, resolved) */\n      add(0x20, mload(0x40))\n      tag_22\n      swap4\n      swap3\n      swap2\n      swap1\n      tag_23\n      jump\t// in\n    tag_22:\n      mload(0x40)\n      0x20\n      dup2\n      dup4\n      sub\n      sub\n      dup2\n      mstore\n      swap1\n      0x40\n      mstore\n        /* \"P/Pharming/Pharming.sol\":2008:2051  keccak256(abi.encodePacked(name, resolved)) */\n      dup1\n      mload\n      swap1\n      0x20\n      add\n      keccak256\n        /* \"P/Pharming/Pharming.sol\":2008:2066  keccak256(abi.encodePacked(name, resolved)) == trustedHash */\n      eq\n        /* \"P/Pharming/Pharming.sol\":2001:2066  return keccak256(abi.encodePacked(name, resolved)) == trustedHash */\n      swap1\n      pop\n        /* \"P/Pharming/Pharming.sol\":1902:2073  function verifyName(string calldata name, address resolved) external view returns (bool) {... */\n      swap4\n      swap3\n      pop\n      pop\n      pop\n      jump\t// out\n        /* \"P/Pharming/Pharming.sol\":1791:1817  bytes32 public trustedHash */\n    tag_17:\n      sload(0x00)\n      dup2\n      jump\t// out\n        /* \"#utility.yul\":88:205   */\n    tag_25:\n        /* \"#utility.yul\":197:198   */\n      0x00\n        /* \"#utility.yul\":194:195   */\n      dup1\n        /* \"#utility.yul\":187:199   */\n      revert\n        /* \"#utility.yul\":211:328   */\n    tag_26:\n        /* \"#utility.yul\":320:321   */\n      0x00\n        /* \"#utility.yul\":317:318   */\n      dup1\n        /* \"#utility.yul\":310:322   */\n      revert\n        /* \"#utility.yul\":334:411   */\n    tag_27:\n        /* \"#utility.yul\":371:378   */\n      0x00\n        /* \"#utility.yul\":400:405   */\n      dup2\n        /* \"#utility.yul\":389:405   */\n      swap1\n      pop\n        /* \"#utility.yul\":334:411   */\n      swap2\n      swap1\n      pop\n      jump\t// out\n        /* \"#utility.yul\":417:539   */\n    tag_28:\n        /* \"#utility.yul\":490:514   */\n      tag_54\n        /* \"#utility.yul\":508:513   */\n      dup2\n        /* \"#utility.yul\":490:514   */\n      tag_27\n      jump\t// in\n    tag_54:\n        /* \"#utility.yul\":483:488   */\n      dup2\n        /* \"#utility.yul\":480:515   */\n      eq\n        /* \"#utility.yul\":470:533   */\n      tag_55\n      jumpi\n        /* \"#utility.yul\":529:530   */\n      0x00\n        /* \"#utility.yul\":526:527   */\n      dup1\n        /* \"#utility.yul\":519:531   */\n      revert\n        /* \"#utility.yul\":470:533   */\n    tag_55:\n        /* \"#utility.yul\":417:539   */\n      pop\n      jump\t// out\n        /* \"#utility.yul\":545:684   */\n    tag_29:\n        /* \"#utility.yul\":591:596   */\n      0x00\n        /* \"#utility.yul\":629:635   */\n      dup2\n        /* \"#utility.yul\":616:636   */\n      calldataload\n        /* \"#utility.yul\":607:636   */\n      swap1\n      pop\n        /* \"#utility.yul\":645:678   */\n      tag_57\n        /* \"#utility.yul\":672:677   */\n      dup2\n        /* \"#utility.yul\":645:678   */\n      tag_28\n      jump\t// in\n    tag_57:\n        /* \"#utility.yul\":545:684   */\n      swap3\n      swap2\n      pop\n      pop\n      jump\t// out\n        /* \"#utility.yul\":690:1019   */\n    tag_8:\n        /* \"#utility.yul\":749:755   */\n      0x00\n        /* \"#utility.yul\":798:800   */\n      0x20\n        /* \"#utility.yul\":786:795   */\n      dup3\n        /* \"#utility.yul\":777:784   */\n      dup5\n        /* \"#utility.yul\":773:796   */\n      sub\n        /* \"#utility.yul\":769:801   */\n      slt\n        /* \"#utility.yul\":766:885   */\n      iszero\n      tag_59\n      jumpi\n        /* \"#utility.yul\":804:883   */\n      tag_60\n      tag_25\n      jump\t// in\n    tag_60:\n        /* \"#utility.yul\":766:885   */\n    tag_59:\n        /* \"#utility.yul\":924:925   */\n      0x00\n        /* \"#utility.yul\":949:1002   */\n      tag_61\n        /* \"#utility.yul\":994:1001   */\n      dup5\n        /* \"#utility.yul\":985:991   */\n      dup3\n        /* \"#utility.yul\":974:983   */\n      dup6\n        /* \"#utility.yul\":970:992   */\n      add\n        /* \"#utility.yul\":949:1002   */\n      tag_29\n      jump\t// in\n    tag_61:\n        /* \"#utility.yul\":939:1002   */\n      swap2\n      pop\n        /* \"#utility.yul\":895:1012   */\n      pop\n        /* \"#utility.yul\":690:1019   */\n      swap3\n      swap2\n      pop\n      pop\n      jump\t// out\n        /* \"#utility.yul\":1025:1142   */\n    tag_30:\n        /* \"#utility.yul\":1134:1135   */\n      0x00\n        /* \"#utility.yul\":1131:1132   */\n      dup1\n        /* \"#utility.yul\":1124:1136   */\n      revert\n        /* \"#utility.yul\":1148:1265   */\n    tag_31:\n        /* \"#utility.yul\":1257:1258   */\n      0x00\n        /* \"#utility.yul\":1254:1255   */\n      dup1\n        /* \"#utility.yul\":1247:1259   */\n      revert\n        /* \"#utility.yul\":1271:1388   */\n    tag_32:\n        /* \"#utility.yul\":1380:1381   */\n      0x00\n        /* \"#utility.yul\":1377:1378   */\n      dup1\n        /* \"#utility.yul\":1370:1382   */\n      revert\n        /* \"#utility.yul\":1408:1961   */\n    tag_33:\n        /* \"#utility.yul\":1466:1474   */\n      0x00\n        /* \"#utility.yul\":1476:1482   */\n      dup1\n        /* \"#utility.yul\":1526:1529   */\n      dup4\n        /* \"#utility.yul\":1519:1523   */\n      0x1f\n        /* \"#utility.yul\":1511:1517   */\n      dup5\n        /* \"#utility.yul\":1507:1524   */\n      add\n        /* \"#utility.yul\":1503:1530   */\n      slt\n        /* \"#utility.yul\":1493:1615   */\n      tag_66\n      jumpi\n        /* \"#utility.yul\":1534:1613   */\n      tag_67\n      tag_30\n      jump\t// in\n    tag_67:\n        /* \"#utility.yul\":1493:1615   */\n    tag_66:\n        /* \"#utility.yul\":1647:1653   */\n      dup3\n        /* \"#utility.yul\":1634:1654   */\n      calldataload\n        /* \"#utility.yul\":1624:1654   */\n      swap1\n      pop\n        /* \"#utility.yul\":1677:1695   */\n      0xffffffffffffffff\n        /* \"#utility.yul\":1669:1675   */\n      dup2\n        /* \"#utility.yul\":1666:1696   */\n      gt\n        /* \"#utility.yul\":1663:1780   */\n      iszero\n      tag_68\n      jumpi\n        /* \"#utility.yul\":1699:1778   */\n      tag_69\n      tag_31\n      jump\t// in\n    tag_69:\n        /* \"#utility.yul\":1663:1780   */\n    tag_68:\n        /* \"#utility.yul\":1813:1817   */\n      0x20\n        /* \"#utility.yul\":1805:1811   */\n      dup4\n        /* \"#utility.yul\":1801:1818   */\n      add\n        /* \"#utility.yul\":1789:1818   */\n      swap2\n      pop\n        /* \"#utility.yul\":1867:1870   */\n      dup4\n        /* \"#utility.yul\":1859:1863   */\n      0x01\n        /* \"#utility.yul\":1851:1857   */\n      dup3\n        /* \"#utility.yul\":1847:1864   */\n      mul\n        /* \"#utility.yul\":1837:1845   */\n      dup4\n        /* \"#utility.yul\":1833:1865   */\n      add\n        /* \"#utility.yul\":1830:1871   */\n      gt\n        /* \"#utility.yul\":1827:1955   */\n      iszero\n      tag_70\n      jumpi\n        /* \"#utility.yul\":1874:1953   */\n      tag_71\n      tag_32\n      jump\t// in\n    tag_71:\n        /* \"#utility.yul\":1827:1955   */\n    tag_70:\n        /* \"#utility.yul\":1408:1961   */\n      swap3\n      pop\n      swap3\n      swap1\n      pop\n      jump\t// out\n        /* \"#utility.yul\":1967:2093   */\n    tag_34:\n        /* \"#utility.yul\":2004:2011   */\n      0x00\n        /* \"#utility.yul\":2044:2086   */\n      0xffffffffffffffffffffffffffffffffffffffff\n        /* \"#utility.yul\":2037:2042   */\n      dup3\n        /* \"#utility.yul\":2033:2087   */\n      and\n        /* \"#utility.yul\":2022:2087   */\n      swap1\n      pop\n        /* \"#utility.yul\":1967:2093   */\n      swap2\n      swap1\n      pop\n      jump\t// out\n        /* \"#utility.yul\":2099:2195   */\n    tag_35:\n        /* \"#utility.yul\":2136:2143   */\n      0x00\n        /* \"#utility.yul\":2165:2189   */\n      tag_74\n        /* \"#utility.yul\":2183:2188   */\n      dup3\n        /* \"#utility.yul\":2165:2189   */\n      tag_34\n      jump\t// in\n    tag_74:\n        /* \"#utility.yul\":2154:2189   */\n      swap1\n      pop\n        /* \"#utility.yul\":2099:2195   */\n      swap2\n      swap1\n      pop\n      jump\t// out\n        /* \"#utility.yul\":2201:2323   */\n    tag_36:\n        /* \"#utility.yul\":2274:2298   */\n      tag_76\n        /* \"#utility.yul\":2292:2297   */\n      dup2\n        /* \"#utility.yul\":2274:2298   */\n      tag_35\n      jump\t// in\n    tag_76:\n        /* \"#utility.yul\":2267:2272   */\n      dup2\n        /* \"#utility.yul\":2264:2299   */\n      eq\n        /* \"#utility.yul\":2254:2317   */\n      tag_77\n      jumpi\n        /* \"#utility.yul\":2313:2314   */\n      0x00\n        /* \"#utility.yul\":2310:2311   */\n      dup1\n        /* \"#utility.yul\":2303:2315   */\n      revert\n        /* \"#utility.yul\":2254:2317   */\n    tag_77:\n        /* \"#utility.yul\":2201:2323   */\n      pop\n      jump\t// out\n        /* \"#utility.yul\":2329:2468   */\n    tag_37:\n        /* \"#utility.yul\":2375:2380   */\n      0x00\n        /* \"#utility.yul\":2413:2419   */\n      dup2\n        /* \"#utility.yul\":2400:2420   */\n      calldataload\n        /* \"#utility.yul\":2391:2420   */\n      swap1\n      pop\n        /* \"#utility.yul\":2429:2462   */\n      tag_79\n        /* \"#utility.yul\":2456:2461   */\n      dup2\n        /* \"#utility.yul\":2429:2462   */\n      tag_36\n      jump\t// in\n    tag_79:\n        /* \"#utility.yul\":2329:2468   */\n      swap3\n      swap2\n      pop\n      pop\n      jump\t// out\n        /* \"#utility.yul\":2474:3148   */\n    tag_12:\n        /* \"#utility.yul\":2554:2560   */\n      0x00\n        /* \"#utility.yul\":2562:2568   */\n      dup1\n        /* \"#utility.yul\":2570:2576   */\n      0x00\n        /* \"#utility.yul\":2619:2621   */\n      0x40\n        /* \"#utility.yul\":2607:2616   */\n      dup5\n        /* \"#utility.yul\":2598:2605   */\n      dup7\n        /* \"#utility.yul\":2594:2617   */\n      sub\n        /* \"#utility.yul\":2590:2622   */\n      slt\n        /* \"#utility.yul\":2587:2706   */\n      iszero\n      tag_81\n      jumpi\n        /* \"#utility.yul\":2625:2704   */\n      tag_82\n      tag_25\n      jump\t// in\n    tag_82:\n        /* \"#utility.yul\":2587:2706   */\n    tag_81:\n        /* \"#utility.yul\":2773:2774   */\n      0x00\n        /* \"#utility.yul\":2762:2771   */\n      dup5\n        /* \"#utility.yul\":2758:2775   */\n      add\n        /* \"#utility.yul\":2745:2776   */\n      calldataload\n        /* \"#utility.yul\":2803:2821   */\n      0xffffffffffffffff\n        /* \"#utility.yul\":2795:2801   */\n      dup2\n        /* \"#utility.yul\":2792:2822   */\n      gt\n        /* \"#utility.yul\":2789:2906   */\n      iszero\n      tag_83\n      jumpi\n        /* \"#utility.yul\":2825:2904   */\n      tag_84\n      tag_26\n      jump\t// in\n    tag_84:\n        /* \"#utility.yul\":2789:2906   */\n    tag_83:\n        /* \"#utility.yul\":2938:3003   */\n      tag_85\n        /* \"#utility.yul\":2995:3002   */\n      dup7\n        /* \"#utility.yul\":2986:2992   */\n      dup3\n        /* \"#utility.yul\":2975:2984   */\n      dup8\n        /* \"#utility.yul\":2971:2993   */\n      add\n        /* \"#utility.yul\":2938:3003   */\n      tag_33\n      jump\t// in\n    tag_85:\n        /* \"#utility.yul\":2920:3003   */\n      swap4\n      pop\n      swap4\n      pop\n        /* \"#utility.yul\":2716:3013   */\n      pop\n        /* \"#utility.yul\":3052:3054   */\n      0x20\n        /* \"#utility.yul\":3078:3131   */\n      tag_86\n        /* \"#utility.yul\":3123:3130   */\n      dup7\n        /* \"#utility.yul\":3114:3120   */\n      dup3\n        /* \"#utility.yul\":3103:3112   */\n      dup8\n        /* \"#utility.yul\":3099:3121   */\n      add\n        /* \"#utility.yul\":3078:3131   */\n      tag_37\n      jump\t// in\n    tag_86:\n        /* \"#utility.yul\":3068:3131   */\n      swap2\n      pop\n        /* \"#utility.yul\":3023:3141   */\n      pop\n        /* \"#utility.yul\":2474:3148   */\n      swap3\n      pop\n      swap3\n      pop\n      swap3\n      jump\t// out\n        /* \"#utility.yul\":3154:3244   */\n    tag_38:\n        /* \"#utility.yul\":3188:3195   */\n      0x00\n        /* \"#utility.yul\":3231:3236   */\n      dup2\n        /* \"#utility.yul\":3224:3237   */\n      iszero\n        /* \"#utility.yul\":3217:3238   */\n      iszero\n        /* \"#utility.yul\":3206:3238   */\n      swap1\n      pop\n        /* \"#utility.yul\":3154:3244   */\n      swap2\n      swap1\n      pop\n      jump\t// out\n        /* \"#utility.yul\":3250:3359   */\n    tag_39:\n        /* \"#utility.yul\":3331:3352   */\n      tag_89\n        /* \"#utility.yul\":3346:3351   */\n      dup2\n        /* \"#utility.yul\":3331:3352   */\n      tag_38\n      jump\t// in\n    tag_89:\n        /* \"#utility.yul\":3326:3329   */\n      dup3\n        /* \"#utility.yul\":3319:3353   */\n      mstore\n        /* \"#utility.yul\":3250:3359   */\n      pop\n      pop\n      jump\t// out\n        /* \"#utility.yul\":3365:3575   */\n    tag_15:\n        /* \"#utility.yul\":3452:3456   */\n      0x00\n        /* \"#utility.yul\":3490:3492   */\n      0x20\n        /* \"#utility.yul\":3479:3488   */\n      dup3\n        /* \"#utility.yul\":3475:3493   */\n      add\n        /* \"#utility.yul\":3467:3493   */\n      swap1\n      pop\n        /* \"#utility.yul\":3503:3568   */\n      tag_91\n        /* \"#utility.yul\":3565:3566   */\n      0x00\n        /* \"#utility.yul\":3554:3563   */\n      dup4\n        /* \"#utility.yul\":3550:3567   */\n      add\n        /* \"#utility.yul\":3541:3547   */\n      dup5\n        /* \"#utility.yul\":3503:3568   */\n      tag_39\n      jump\t// in\n    tag_91:\n        /* \"#utility.yul\":3365:3575   */\n      swap3\n      swap2\n      pop\n      pop\n      jump\t// out\n        /* \"#utility.yul\":3581:3699   */\n    tag_40:\n        /* \"#utility.yul\":3668:3692   */\n      tag_93\n        /* \"#utility.yul\":3686:3691   */\n      dup2\n        /* \"#utility.yul\":3668:3692   */\n      tag_27\n      jump\t// in\n    tag_93:\n        /* \"#utility.yul\":3663:3666   */\n      dup3\n        /* \"#utility.yul\":3656:3693   */\n      mstore\n        /* \"#utility.yul\":3581:3699   */\n      pop\n      pop\n      jump\t// out\n        /* \"#utility.yul\":3705:3927   */\n    tag_19:\n        /* \"#utility.yul\":3798:3802   */\n      0x00\n        /* \"#utility.yul\":3836:3838   */\n      0x20\n        /* \"#utility.yul\":3825:3834   */\n      dup3\n        /* \"#utility.yul\":3821:3839   */\n      add\n        /* \"#utility.yul\":3813:3839   */\n      swap1\n      pop\n        /* \"#utility.yul\":3849:3920   */\n      tag_95\n        /* \"#utility.yul\":3917:3918   */\n      0x00\n        /* \"#utility.yul\":3906:3915   */\n      dup4\n        /* \"#utility.yul\":3902:3919   */\n      add\n        /* \"#utility.yul\":3893:3899   */\n      dup5\n        /* \"#utility.yul\":3849:3920   */\n      tag_40\n      jump\t// in\n    tag_95:\n        /* \"#utility.yul\":3705:3927   */\n      swap3\n      swap2\n      pop\n      pop\n      jump\t// out\n        /* \"#utility.yul\":3933:4081   */\n    tag_41:\n        /* \"#utility.yul\":4035:4046   */\n      0x00\n        /* \"#utility.yul\":4072:4075   */\n      dup2\n        /* \"#utility.yul\":4057:4075   */\n      swap1\n      pop\n        /* \"#utility.yul\":3933:4081   */\n      swap3\n      swap2\n      pop\n      pop\n      jump\t// out\n        /* \"#utility.yul\":4087:4235   */\n    tag_42:\n        /* \"#utility.yul\":4185:4191   */\n      dup3\n        /* \"#utility.yul\":4180:4183   */\n      dup2\n        /* \"#utility.yul\":4175:4178   */\n      dup4\n        /* \"#utility.yul\":4162:4192   */\n      calldatacopy\n        /* \"#utility.yul\":4226:4227   */\n      0x00\n        /* \"#utility.yul\":4217:4223   */\n      dup4\n        /* \"#utility.yul\":4212:4215   */\n      dup4\n        /* \"#utility.yul\":4208:4224   */\n      add\n        /* \"#utility.yul\":4201:4228   */\n      mstore\n        /* \"#utility.yul\":4087:4235   */\n      pop\n      pop\n      pop\n      jump\t// out\n        /* \"#utility.yul\":4265:4595   */\n    tag_43:\n        /* \"#utility.yul\":4381:4384   */\n      0x00\n        /* \"#utility.yul\":4402:4491   */\n      tag_99\n        /* \"#utility.yul\":4484:4490   */\n      dup4\n        /* \"#utility.yul\":4479:4482   */\n      dup6\n        /* \"#utility.yul\":4402:4491   */\n      tag_41\n      jump\t// in\n    tag_99:\n        /* \"#utility.yul\":4395:4491   */\n      swap4\n      pop\n        /* \"#utility.yul\":4501:4557   */\n      tag_100\n        /* \"#utility.yul\":4550:4556   */\n      dup4\n        /* \"#utility.yul\":4545:4548   */\n      dup6\n        /* \"#utility.yul\":4538:4543   */\n      dup5\n        /* \"#utility.yul\":4501:4557   */\n      tag_42\n      jump\t// in\n    tag_100:\n        /* \"#utility.yul\":4582:4588   */\n      dup3\n        /* \"#utility.yul\":4577:4580   */\n      dup5\n        /* \"#utility.yul\":4573:4589   */\n      add\n        /* \"#utility.yul\":4566:4589   */\n      swap1\n      pop\n        /* \"#utility.yul\":4265:4595   */\n      swap4\n      swap3\n      pop\n      pop\n      pop\n      jump\t// out\n        /* \"#utility.yul\":4601:4695   */\n    tag_44:\n        /* \"#utility.yul\":4634:4642   */\n      0x00\n        /* \"#utility.yul\":4682:4687   */\n      dup2\n        /* \"#utility.yul\":4678:4680   */\n      0x60\n        /* \"#utility.yul\":4674:4688   */\n      shl\n        /* \"#utility.yul\":4653:4688   */\n      swap1\n      pop\n        /* \"#utility.yul\":4601:4695   */\n      swap2\n      swap1\n      pop\n      jump\t// out\n        /* \"#utility.yul\":4701:4795   */\n    tag_45:\n        /* \"#utility.yul\":4740:4747   */\n      0x00\n        /* \"#utility.yul\":4769:4789   */\n      tag_103\n        /* \"#utility.yul\":4783:4788   */\n      dup3\n        /* \"#utility.yul\":4769:4789   */\n      tag_44\n      jump\t// in\n    tag_103:\n        /* \"#utility.yul\":4758:4789   */\n      swap1\n      pop\n        /* \"#utility.yul\":4701:4795   */\n      swap2\n      swap1\n      pop\n      jump\t// out\n        /* \"#utility.yul\":4801:4901   */\n    tag_46:\n        /* \"#utility.yul\":4840:4847   */\n      0x00\n        /* \"#utility.yul\":4869:4895   */\n      tag_105\n        /* \"#utility.yul\":4889:4894   */\n      dup3\n        /* \"#utility.yul\":4869:4895   */\n      tag_45\n      jump\t// in\n    tag_105:\n        /* \"#utility.yul\":4858:4895   */\n      swap1\n      pop\n        /* \"#utility.yul\":4801:4901   */\n      swap2\n      swap1\n      pop\n      jump\t// out\n        /* \"#utility.yul\":4907:5064   */\n    tag_47:\n        /* \"#utility.yul\":5012:5057   */\n      tag_107\n        /* \"#utility.yul\":5032:5056   */\n      tag_108\n        /* \"#utility.yul\":5050:5055   */\n      dup3\n        /* \"#utility.yul\":5032:5056   */\n      tag_35\n      jump\t// in\n    tag_108:\n        /* \"#utility.yul\":5012:5057   */\n      tag_46\n      jump\t// in\n    tag_107:\n        /* \"#utility.yul\":5007:5010   */\n      dup3\n        /* \"#utility.yul\":5000:5058   */\n      mstore\n        /* \"#utility.yul\":4907:5064   */\n      pop\n      pop\n      jump\t// out\n        /* \"#utility.yul\":5070:5506   */\n    tag_23:\n        /* \"#utility.yul\":5240:5243   */\n      0x00\n        /* \"#utility.yul\":5262:5367   */\n      tag_110\n        /* \"#utility.yul\":5363:5366   */\n      dup3\n        /* \"#utility.yul\":5354:5360   */\n      dup6\n        /* \"#utility.yul\":5346:5352   */\n      dup8\n        /* \"#utility.yul\":5262:5367   */\n      tag_43\n      jump\t// in\n    tag_110:\n        /* \"#utility.yul\":5255:5367   */\n      swap2\n      pop\n        /* \"#utility.yul\":5377:5452   */\n      tag_111\n        /* \"#utility.yul\":5448:5451   */\n      dup3\n        /* \"#utility.yul\":5439:5445   */\n      dup5\n        /* \"#utility.yul\":5377:5452   */\n      tag_47\n      jump\t// in\n    tag_111:\n        /* \"#utility.yul\":5477:5479   */\n      0x14\n        /* \"#utility.yul\":5472:5475   */\n      dup3\n        /* \"#utility.yul\":5468:5480   */\n      add\n        /* \"#utility.yul\":5461:5480   */\n      swap2\n      pop\n        /* \"#utility.yul\":5497:5500   */\n      dup2\n        /* \"#utility.yul\":5490:5500   */\n      swap1\n      pop\n        /* \"#utility.yul\":5070:5506   */\n      swap5\n      swap4\n      pop\n      pop\n      pop\n      pop\n      jump\t// out\n\n    auxdata: 0xa26469706673582212208480c2118664d63a6946b12c649725a85f480c3b05e0eb52d7e68d934a20f96f64736f6c634300081a0033\n}\n",
				"bytecode": {
					"linkReferences": {},
					"object": "6080604052348015600e575f80fd5b506103ac8061001c5f395ff3fe608060405234801561000f575f80fd5b506004361061003f575f3560e01c806322bb115c14610043578063938d98271461005f578063a10c4b2a1461008f575b5f80fd5b61005d6004803603810190610058919061012e565b6100ad565b005b61007960048036038101906100749190610214565b6100b6565b604051610086919061028b565b60405180910390f35b6100976100ee565b6040516100a491906102b3565b60405180910390f35b805f8190555050565b5f80548484846040516020016100ce9392919061034d565b604051602081830303815290604052805190602001201490509392505050565b5f5481565b5f80fd5b5f80fd5b5f819050919050565b61010d816100fb565b8114610117575f80fd5b50565b5f8135905061012881610104565b92915050565b5f60208284031215610143576101426100f3565b5b5f6101508482850161011a565b91505092915050565b5f80fd5b5f80fd5b5f80fd5b5f8083601f84011261017a57610179610159565b5b8235905067ffffffffffffffff8111156101975761019661015d565b5b6020830191508360018202830111156101b3576101b2610161565b5b9250929050565b5f73ffffffffffffffffffffffffffffffffffffffff82169050919050565b5f6101e3826101ba565b9050919050565b6101f3816101d9565b81146101fd575f80fd5b50565b5f8135905061020e816101ea565b92915050565b5f805f6040848603121561022b5761022a6100f3565b5b5f84013567ffffffffffffffff811115610248576102476100f7565b5b61025486828701610165565b9350935050602061026786828701610200565b9150509250925092565b5f8115159050919050565b61028581610271565b82525050565b5f60208201905061029e5f83018461027c565b92915050565b6102ad816100fb565b82525050565b5f6020820190506102c65f8301846102a4565b92915050565b5f81905092915050565b828183375f83830152505050565b5f6102ef83856102cc565b93506102fc8385846102d6565b82840190509392505050565b5f8160601b9050919050565b5f61031e82610308565b9050919050565b5f61032f82610314565b9050919050565b610347610342826101d9565b610325565b82525050565b5f6103598285876102e4565b91506103658284610336565b60148201915081905094935050505056fea26469706673582212208480c2118664d63a6946b12c649725a85f480c3b05e0eb52d7e68d934a20f96f64736f6c634300081a0033",
					"opcodes": "PUSH1 0x80 PUSH1 0x40 MSTORE CALLVALUE DUP1 ISZERO PUSH1 0xE JUMPI PUSH0 DUP1 REVERT JUMPDEST POP PUSH2 0x3AC DUP1 PUSH2 0x1C PUSH0 CODECOPY PUSH0 RETURN INVALID PUSH1 0x80 PUSH1 0x40 MSTORE CALLVALUE DUP1 ISZERO PUSH2 0xF JUMPI PUSH0 DUP1 REVERT JUMPDEST POP PUSH1 0x4 CALLDATASIZE LT PUSH2 0x3F JUMPI PUSH0 CALLDATALOAD PUSH1 0xE0 SHR DUP1 PUSH4 0x22BB115C EQ PUSH2 0x43 JUMPI DUP1 PUSH4 0x938D9827 EQ PUSH2 0x5F JUMPI DUP1 PUSH4 0xA10C4B2A EQ PUSH2 0x8F JUMPI JUMPDEST PUSH0 DUP1 REVERT JUMPDEST PUSH2 0x5D PUSH1 0x4 DUP1 CALLDATASIZE SUB DUP2 ADD SWAP1 PUSH2 0x58 SWAP2 SWAP1 PUSH2 0x12E JUMP JUMPDEST PUSH2 0xAD JUMP JUMPDEST STOP JUMPDEST PUSH2 0x79 PUSH1 0x4 DUP1 CALLDATASIZE SUB DUP2 ADD SWAP1 PUSH2 0x74 SWAP2 SWAP1 PUSH2 0x214 JUMP JUMPDEST PUSH2 0xB6 JUMP JUMPDEST PUSH1 0x40 MLOAD PUSH2 0x86 SWAP2 SWAP1 PUSH2 0x28B JUMP JUMPDEST PUSH1 0x40 MLOAD DUP1 SWAP2 SUB SWAP1 RETURN JUMPDEST PUSH2 0x97 PUSH2 0xEE JUMP JUMPDEST PUSH1 0x40 MLOAD PUSH2 0xA4 SWAP2 SWAP1 PUSH2 0x2B3 JUMP JUMPDEST PUSH1 0x40 MLOAD DUP1 SWAP2 SUB SWAP1 RETURN JUMPDEST DUP1 PUSH0 DUP2 SWAP1 SSTORE POP POP JUMP JUMPDEST PUSH0 DUP1 SLOAD DUP5 DUP5 DUP5 PUSH1 0x40 MLOAD PUSH1 0x20 ADD PUSH2 0xCE SWAP4 SWAP3 SWAP2 SWAP1 PUSH2 0x34D JUMP JUMPDEST PUSH1 0x40 MLOAD PUSH1 0x20 DUP2 DUP4 SUB SUB DUP2 MSTORE SWAP1 PUSH1 0x40 MSTORE DUP1 MLOAD SWAP1 PUSH1 0x20 ADD KECCAK256 EQ SWAP1 POP SWAP4 SWAP3 POP POP POP JUMP JUMPDEST PUSH0 SLOAD DUP2 JUMP JUMPDEST PUSH0 DUP1 REVERT JUMPDEST PUSH0 DUP1 REVERT JUMPDEST PUSH0 DUP2 SWAP1 POP SWAP2 SWAP1 POP JUMP JUMPDEST PUSH2 0x10D DUP2 PUSH2 0xFB JUMP JUMPDEST DUP2 EQ PUSH2 0x117 JUMPI PUSH0 DUP1 REVERT JUMPDEST POP JUMP JUMPDEST PUSH0 DUP2 CALLDATALOAD SWAP1 POP PUSH2 0x128 DUP2 PUSH2 0x104 JUMP JUMPDEST SWAP3 SWAP2 POP POP JUMP JUMPDEST PUSH0 PUSH1 0x20 DUP3 DUP5 SUB SLT ISZERO PUSH2 0x143 JUMPI PUSH2 0x142 PUSH2 0xF3 JUMP JUMPDEST JUMPDEST PUSH0 PUSH2 0x150 DUP5 DUP3 DUP6 ADD PUSH2 0x11A JUMP JUMPDEST SWAP2 POP POP SWAP3 SWAP2 POP POP JUMP JUMPDEST PUSH0 DUP1 REVERT JUMPDEST PUSH0 DUP1 REVERT JUMPDEST PUSH0 DUP1 REVERT JUMPDEST PUSH0 DUP1 DUP4 PUSH1 0x1F DUP5 ADD SLT PUSH2 0x17A JUMPI PUSH2 0x179 PUSH2 0x159 JUMP JUMPDEST JUMPDEST DUP3 CALLDATALOAD SWAP1 POP PUSH8 0xFFFFFFFFFFFFFFFF DUP2 GT ISZERO PUSH2 0x197 JUMPI PUSH2 0x196 PUSH2 0x15D JUMP JUMPDEST JUMPDEST PUSH1 0x20 DUP4 ADD SWAP2 POP DUP4 PUSH1 0x1 DUP3 MUL DUP4 ADD GT ISZERO PUSH2 0x1B3 JUMPI PUSH2 0x1B2 PUSH2 0x161 JUMP JUMPDEST JUMPDEST SWAP3 POP SWAP3 SWAP1 POP JUMP JUMPDEST PUSH0 PUSH20 0xFFFFFFFFFFFFFFFFFFFFFFFFFFFFFFFFFFFFFFFF DUP3 AND SWAP1 POP SWAP2 SWAP1 POP JUMP JUMPDEST PUSH0 PUSH2 0x1E3 DUP3 PUSH2 0x1BA JUMP JUMPDEST SWAP1 POP SWAP2 SWAP1 POP JUMP JUMPDEST PUSH2 0x1F3 DUP2 PUSH2 0x1D9 JUMP JUMPDEST DUP2 EQ PUSH2 0x1FD JUMPI PUSH0 DUP1 REVERT JUMPDEST POP JUMP JUMPDEST PUSH0 DUP2 CALLDATALOAD SWAP1 POP PUSH2 0x20E DUP2 PUSH2 0x1EA JUMP JUMPDEST SWAP3 SWAP2 POP POP JUMP JUMPDEST PUSH0 DUP1 PUSH0 PUSH1 0x40 DUP5 DUP7 SUB SLT ISZERO PUSH2 0x22B JUMPI PUSH2 0x22A PUSH2 0xF3 JUMP JUMPDEST JUMPDEST PUSH0 DUP5 ADD CALLDATALOAD PUSH8 0xFFFFFFFFFFFFFFFF DUP2 GT ISZERO PUSH2 0x248 JUMPI PUSH2 0x247 PUSH2 0xF7 JUMP JUMPDEST JUMPDEST PUSH2 0x254 DUP7 DUP3 DUP8 ADD PUSH2 0x165 JUMP JUMPDEST SWAP4 POP SWAP4 POP POP PUSH1 0x20 PUSH2 0x267 DUP7 DUP3 DUP8 ADD PUSH2 0x200 JUMP JUMPDEST SWAP2 POP POP SWAP3 POP SWAP3 POP SWAP3 JUMP JUMPDEST PUSH0 DUP2 ISZERO ISZERO SWAP1 POP SWAP2 SWAP1 POP JUMP JUMPDEST PUSH2 0x285 DUP2 PUSH2 0x271 JUMP JUMPDEST DUP3 MSTORE POP POP JUMP JUMPDEST PUSH0 PUSH1 0x20 DUP3 ADD SWAP1 POP PUSH2 0x29E PUSH0 DUP4 ADD DUP5 PUSH2 0x27C JUMP JUMPDEST SWAP3 SWAP2 POP POP JUMP JUMPDEST PUSH2 0x2AD DUP2 PUSH2 0xFB JUMP JUMPDEST DUP3 MSTORE POP POP JUMP JUMPDEST PUSH0 PUSH1 0x20 DUP3 ADD SWAP1 POP PUSH2 0x2C6 PUSH0 DUP4 ADD DUP5 PUSH2 0x2A4 JUMP JUMPDEST SWAP3 SWAP2 POP POP JUMP JUMPDEST PUSH0 DUP2 SWAP1 POP SWAP3 SWAP2 POP POP JUMP JUMPDEST DUP3 DUP2 DUP4 CALLDATACOPY PUSH0 DUP4 DUP4 ADD MSTORE POP POP POP JUMP JUMPDEST PUSH0 PUSH2 0x2EF DUP4 DUP6 PUSH2 0x2CC JUMP JUMPDEST SWAP4 POP PUSH2 0x2FC DUP4 DUP6 DUP5 PUSH2 0x2D6 JUMP JUMPDEST DUP3 DUP5 ADD SWAP1 POP SWAP4 SWAP3 POP POP POP JUMP JUMPDEST PUSH0 DUP2 PUSH1 0x60 SHL SWAP1 POP SWAP2 SWAP1 POP JUMP JUMPDEST PUSH0 PUSH2 0x31E DUP3 PUSH2 0x308 JUMP JUMPDEST SWAP1 POP SWAP2 SWAP1 POP JUMP JUMPDEST PUSH0 PUSH2 0x32F DUP3 PUSH2 0x314 JUMP JUMPDEST SWAP1 POP SWAP2 SWAP1 POP JUMP JUMPDEST PUSH2 0x347 PUSH2 0x342 DUP3 PUSH2 0x1D9 JUMP JUMPDEST PUSH2 0x325 JUMP JUMPDEST DUP3 MSTORE POP POP JUMP JUMPDEST PUSH0 PUSH2 0x359 DUP3 DUP6 DUP8 PUSH2 0x2E4 JUMP JUMPDEST SWAP2 POP PUSH2 0x365 DUP3 DUP5 PUSH2 0x336 JUMP JUMPDEST PUSH1 0x14 DUP3 ADD SWAP2 POP DUP2 SWAP1 POP SWAP5 SWAP4 POP POP POP POP JUMP INVALID LOG2 PUSH5 0x6970667358 0x22 SLT KECCAK256 DUP5 DUP1 0xC2 GT DUP7 PUSH5 0xD63A6946B1 0x2C PUSH5 0x9725A85F48 0xC EXTCODESIZE SDIV 0xE0 0xEB MSTORE 0xD7 0xE6 DUP14 SWAP4 BLOBBASEFEE KECCAK256 0xF9 PUSH16 0x64736F6C634300081A00330000000000 "
				},
				"gasEstimates": {
					"creation": {
						"codeDepositCost": "188000",
						"executionCost": "230",
						"totalCost": "188230"
					},
					"external": {
						"setTrusted(bytes32)": "22492",
						"trustedHash()": "2446",
						"verifyName(string,address)": "infinite"
					}
				},
				"methodIdentifiers": {
					"setTrusted(bytes32)": "22bb115c",
					"trustedHash()": "a10c4b2a",
					"verifyName(string,address)": "938d9827"
				}
			},
			"storageLayout": {
				"storage": [
					{
						"astId": 152,
						"contract": "P/Pharming/Pharming.sol:RegistryHashGuard",
						"label": "trustedHash",
						"offset": 0,
						"slot": "0",
						"type": "t_bytes32"
					}
				],
				"types": {
					"t_bytes32": {
						"encoding": "inplace",
						"label": "bytes32",
						"numberOfBytes": "32"
					}
				}
			},
			"userdoc": {
				"kind": "user",
				"methods": {},
				"version": 1
			}
		}
	}
}