{
	"P/Pharming/Pharming.sol": {
		"FakeENS": {
			"abi": [
				{
					"inputs": [
						{
							"internalType": "string",
							"name": "",
							"type": "string"
						}
					],
					"name": "names",
					"outputs": [
						{
							"internalType": "address",
							"name": "",
							"type": "address"
						}
					],
					"stateMutability": "view",
					"type": "function"
				},
				{
					"inputs": [
						{
							"internalType": "string",
							"name": "name",
							"type": "string"
						},
						{
							"internalType": "address",
							"name": "target",
							"type": "address"
						}
					],
					"name": "register",
					"outputs": [],
					"stateMutability": "nonpayable",
					"type": "function"
				},
				{
					"inputs": [
						{
							"internalType": "string",
							"name": "name",
							"type": "string"
						}
					],
					"name": "resolve",
					"outputs": [
						{
							"internalType": "address",
							"name": "",
							"type": "address"
						}
					],
					"stateMutability": "view",
					"type": "function"
				}
			],
			"devdoc": {
				"kind": "dev",
				"methods": {},
				"version": 1
			},
			"evm": {
				"assembly": "    /* \"P/Pharming/Pharming.sol\":143:450  contract FakeENS {... */\n  mstore(0x40, 0x80)\n  callvalue\n  dup1\n  iszero\n  tag_1\n  jumpi\n  0x00\n  dup1\n  revert\ntag_1:\n  pop\n  dataSize(sub_0)\n  dup1\n  dataOffset(sub_0)\n  0x00\n  codecopy\n  0x00\n  return\nstop\n\nsub_0: assembly {\n        /* \"P/Pharming/Pharming.sol\":143:450  contract FakeENS {... */\n      mstore(0x40, 0x80)\n      callvalue\n      dup1\n      iszero\n      tag_1\n      jumpi\n      0x00\n      dup1\n      revert\n    tag_1:\n      pop\n      jumpi(tag_2, lt(calldatasize, 0x04))\n      shr(0xe0, calldataload(0x00))\n      dup1\n      0x1e59c529\n      eq\n      tag_3\n      jumpi\n      dup1\n      0x461a4478\n      eq\n      tag_4\n      jumpi\n      dup1\n      0x822fbf58\n      eq\n      tag_5\n      jumpi\n    tag_2:\n      0x00\n      dup1\n      revert\n        /* \"P/Pharming/Pharming.sol\":212:314  function register(string calldata name, address target) external {... */\n    tag_3:\n      tag_6\n      0x04\n      dup1\n      calldatasize\n      sub\n      dup2\n      add\n      swap1\n      tag_7\n      swap2\n      swap1\n      tag_8\n      jump\t// in\n    tag_7:\n      tag_9\n      jump\t// in\n    tag_6:\n      stop\n        /* \"P/Pharming/Pharming.sol\":320:448  function resolve(string calldata name) external view returns (address) {... */\n    tag_4:\n      tag_10\n      0x04\n      dup1\n      calldatasize\n      sub\n      dup2\n      add\n      swap1\n      tag_11\n      swap2\n      swap1\n      tag_12\n      jump\t// in\n    tag_11:\n      tag_13\n      jump\t// in\n    tag_10:\n      mload(0x40)\n      tag_14\n      swap2\n      swap1\n      tag_15\n      jump\t// in\n    tag_14:\n      mload(0x40)\n      dup1\n      swap2\n      sub\n      swap1\n      return\n        /* \"P/Pharming/Pharming.sol\":166:205  mapping(string => address) public names */\n    tag_5:\n      tag_16\n      0x04\n      dup1\n      calldatasize\n      sub\n      dup2\n      add\n      swap1\n      tag_17\n      swap2\n      swap1\n      tag_18\n      jump\t// in\n    tag_17:\n      tag_19\n      jump\t// in\n    tag_16:\n      mload(0x40)\n      tag_20\n      swap2\n      swap1\n      tag_15\n      jump\t// in\n    tag_20:\n      mload(0x40)\n      dup1\n      swap2\n      sub\n      swap1\n      return\n        /* \"P/Pharming/Pharming.sol\":212:314  function register(string calldata name, address target) external {... */\n    tag_9:\n        /* \"P/Pharming/Pharming.sol\":301:307  target */\n      dup1\n        /* \"P/Pharming/Pharming.sol\":287:292  names */\n      0x00\n        /* \"P/Pharming/Pharming.sol\":293:297  name */\n      dup5\n      dup5\n        /* \"P/Pharming/Pharming.sol\":287:298  names[name] */\n      mload(0x40)\n      tag_22\n      swap3\n      swap2\n      swap1\n      tag_23\n      jump\t// in\n    tag_22:\n      swap1\n      dup2\n      mstore\n      0x20\n      add\n      mload(0x40)\n      dup1\n      swap2\n      sub\n      swap1\n      keccak256\n      0x00\n        /* \"P/Pharming/Pharming.sol\":287:307  names[name] = target */\n      0x0100\n      exp\n      dup2\n      sload\n      dup2\n      0xffffffffffffffffffffffffffffffffffffffff\n      mul\n      not\n      and\n      swap1\n      dup4\n      0xffffffffffffffffffffffffffffffffffffffff\n      and\n      mul\n      or\n      swap1\n      sstore\n      pop\n        /* \"P/Pharming/Pharming.sol\":212:314  function register(string calldata name, address target) external {... */\n      pop\n      pop\n      pop\n      jump\t// out\n        /* \"P/Pharming/Pharming.sol\":320:448  function resolve(string calldata name) external view returns (address) {... */\n    tag_13:\n        /* \"P/Pharming/Pharming.sol\":382:389  address */\n      0x00\n        /* \"P/Pharming/Pharming.sol\":408:413  names */\n      dup1\n        /* \"P/Pharming/Pharming.sol\":414:418  name */\n      dup4\n      dup4\n        /* \"P/Pharming/Pharming.sol\":408:419  names[name] */\n      mload(0x40)\n      tag_25\n      swap3\n      swap2\n      swap1\n      tag_23\n      jump\t// in\n    tag_25:\n      swap1\n      dup2\n      mstore\n      0x20\n      add\n      mload(0x40)\n      dup1\n      swap2\n      sub\n      swap1\n      keccak256\n      0x00\n      swap1\n      sload\n      swap1\n      0x0100\n      exp\n      swap1\n      div\n      0xffffffffffffffffffffffffffffffffffffffff\n      and\n        /* \"P/Pharming/Pharming.sol\":401:419  return names[name] */\n      swap1\n      pop\n        /* \"P/Pharming/Pharming.sol\":320:448  function resolve(string calldata name) external view returns (address) {... */\n      swap3\n      swap2\n      pop\n      pop\n      jump\t// out\n        /* \"P/Pharming/Pharming.sol\":166:205  mapping(string => address) public names */\n    tag_19:\n      0x00\n      dup2\n      dup1\n      mload\n      0x20\n      dup2\n      add\n      dup3\n      add\n      dup1\n      mload\n      dup5\n      dup3\n      mstore\n      0x20\n      dup4\n      add\n      0x20\n      dup6\n      add\n      keccak256\n      dup2\n      dup4\n      mstore\n      dup1\n      swap6\n      pop\n      pop\n      pop\n      pop\n      pop\n      pop\n      0x00\n      swap2\n      pop\n      sload\n      swap1\n      0x0100\n      exp\n      swap1\n      div\n      0xffffffffffffffffffffffffffffffffffffffff\n      and\n      dup2\n      jump\t// out\n        /* \"#utility.yul\":7:82   */\n    tag_26:\n        /* \"#utility.yul\":40:46   */\n      0x00\n        /* \"#utility.yul\":73:75   */\n      0x40\n        /* \"#utility.yul\":67:76   */\n      mload\n        /* \"#utility.yul\":57:76   */\n      swap1\n      pop\n        /* \"#utility.yul\":7:82   */\n      swap1\n      jump\t// out\n        /* \"#utility.yul\":88:205   */\n    tag_27:\n        /* \"#utility.yul\":197:198   */\n      0x00\n        /* \"#utility.yul\":194:195   */\n      dup1\n        /* \"#utility.yul\":187:199   */\n      revert\n        /* \"#utility.yul\":211:328   */\n    tag_28:\n        /* \"#utility.yul\":320:321   */\n      0x00\n        /* \"#utility.yul\":317:318   */\n      dup1\n        /* \"#utility.yul\":310:322   */\n      revert\n        /* \"#utility.yul\":334:451   */\n    tag_29:\n        /* \"#utility.yul\":443:444   */\n      0x00\n        /* \"#utility.yul\":440:441   */\n      dup1\n        /* \"#utility.yul\":433:445   */\n      revert\n        /* \"#utility.yul\":457:574   */\n    tag_30:\n        /* \"#utility.yul\":566:567   */\n      0x00\n        /* \"#utility.yul\":563:564   */\n      dup1\n        /* \"#utility.yul\":556:568   */\n      revert\n        /* \"#utility.yul\":580:697   */\n    tag_31:\n        /* \"#utility.yul\":689:690   */\n      0x00\n        /* \"#utility.yul\":686:687   */\n      dup1\n        /* \"#utility.yul\":679:691   */\n      revert\n        /* \"#utility.yul\":717:1270   */\n    tag_32:\n        /* \"#utility.yul\":775:783   */\n      0x00\n        /* \"#utility.yul\":785:791   */\n      dup1\n        /* \"#utility.yul\":835:838   */\n      dup4\n        /* \"#utility.yul\":828:832   */\n      0x1f\n        /* \"#utility.yul\":820:826   */\n      dup5\n        /* \"#utility.yul\":816:833   */\n      add\n        /* \"#utility.yul\":812:839   */\n      slt\n        /* \"#utility.yul\":802:924   */\n      tag_57\n      jumpi\n        /* \"#utility.yul\":843:922   */\n      tag_58\n      tag_29\n      jump\t// in\n    tag_58:\n        /* \"#utility.yul\":802:924   */\n    tag_57:\n        /* \"#utility.yul\":956:962   */\n      dup3\n        /* \"#utility.yul\":943:963   */\n      calldataload\n        /* \"#utility.yul\":933:963   */\n      swap1\n      pop\n        /* \"#utility.yul\":986:1004   */\n      0xffffffffffffffff\n        /* \"#utility.yul\":978:984   */\n      dup2\n        /* \"#utility.yul\":975:1005   */\n      gt\n        /* \"#utility.yul\":972:1089   */\n      iszero\n      tag_59\n      jumpi\n        /* \"#utility.yul\":1008:1087   */\n      tag_60\n      tag_30\n      jump\t// in\n    tag_60:\n        /* \"#utility.yul\":972:1089   */\n    tag_59:\n        /* \"#utility.yul\":1122:1126   */\n      0x20\n        /* \"#utility.yul\":1114:1120   */\n      dup4\n        /* \"#utility.yul\":1110:1127   */\n      add\n        /* \"#utility.yul\":1098:1127   */\n      swap2\n      pop\n        /* \"#utility.yul\":1176:1179   */\n      dup4\n        /* \"#utility.yul\":1168:1172   */\n      0x01\n        /* \"#utility.yul\":1160:1166   */\n      dup3\n        /* \"#utility.yul\":1156:1173   */\n      mul\n        /* \"#utility.yul\":1146:1154   */\n      dup4\n        /* \"#utility.yul\":1142:1174   */\n      add\n        /* \"#utility.yul\":1139:1180   */\n      gt\n        /* \"#utility.yul\":1136:1264   */\n      iszero\n      tag_61\n      jumpi\n        /* \"#utility.yul\":1183:1262   */\n      tag_62\n      tag_31\n      jump\t// in\n    tag_62:\n        /* \"#utility.yul\":1136:1264   */\n    tag_61:\n        /* \"#utility.yul\":717:1270   */\n      swap3\n      pop\n      swap3\n      swap1\n      pop\n      jump\t// out\n        /* \"#utility.yul\":1276:1402   */\n    tag_33:\n        /* \"#utility.yul\":1313:1320   */\n      0x00\n        /* \"#utility.yul\":1353:1395   */\n      0xffffffffffffffffffffffffffffffffffffffff\n        /* \"#utility.yul\":1346:1351   */\n      dup3\n        /* \"#utility.yul\":1342:1396   */\n      and\n        /* \"#utility.yul\":1331:1396   */\n      swap1\n      pop\n        /* \"#utility.yul\":1276:1402   */\n      swap2\n      swap1\n      pop\n      jump\t// out\n        /* \"#utility.yul\":1408:1504   */\n    tag_34:\n        /* \"#utility.yul\":1445:1452   */\n      0x00\n        /* \"#utility.yul\":1474:1498   */\n      tag_65\n        /* \"#utility.yul\":1492:1497   */\n      dup3\n        /* \"#utility.yul\":1474:1498   */\n      tag_33\n      jump\t// in\n    tag_65:\n        /* \"#utility.yul\":1463:1498   */\n      swap1\n      pop\n        /* \"#utility.yul\":1408:1504   */\n      swap2\n      swap1\n      pop\n      jump\t// out\n        /* \"#utility.yul\":1510:1632   */\n    tag_35:\n        /* \"#utility.yul\":1583:1607   */\n      tag_67\n        /* \"#utility.yul\":1601:1606   */\n      dup2\n        /* \"#utility.yul\":1583:1607   */\n      tag_34\n      jump\t// in\n    tag_67:\n        /* \"#utility.yul\":1576:1581   */\n      dup2\n        /* \"#utility.yul\":1573:1608   */\n      eq\n        /* \"#utility.yul\":1563:1626   */\n      tag_68\n      jumpi\n        /* \"#utility.yul\":1622:1623   */\n      0x00\n        /* \"#utility.yul\":1619:1620   */\n      dup1\n        /* \"#utility.yul\":1612:1624   */\n      revert\n        /* \"#utility.yul\":1563:1626   */\n    tag_68:\n        /* \"#utility.yul\":1510:1632   */\n      pop\n      jump\t// out\n        /* \"#utility.yul\":1638:1777   */\n    tag_36:\n        /* \"#utility.yul\":1684:1689   */\n      0x00\n        /* \"#utility.yul\":1722:1728   */\n      dup2\n        /* \"#utility.yul\":1709:1729   */\n      calldataload\n        /* \"#utility.yul\":1700:1729   */\n      swap1\n      pop\n        /* \"#utility.yul\":1738:1771   */\n      tag_70\n        /* \"#utility.yul\":1765:1770   */\n      dup2\n        /* \"#utility.yul\":1738:1771   */\n      tag_35\n      jump\t// in\n    tag_70:\n        /* \"#utility.yul\":1638:1777   */\n      swap3\n      swap2\n      pop\n      pop\n      jump\t// out\n        /* \"#utility.yul\":1783:2457   */\n    tag_8:\n        /* \"#utility.yul\":1863:1869   */\n      0x00\n        /* \"#utility.yul\":1871:1877   */\n      dup1\n        /* \"#utility.yul\":1879:1885   */\n      0x00\n        /* \"#utility.yul\":1928:1930   */\n      0x40\n        /* \"#utility.yul\":1916:1925   */\n      dup5\n        /* \"#utility.yul\":1907:1914   */\n      dup7\n        /* \"#utility.yul\":1903:1926   */\n      sub\n        /* \"#utility.yul\":1899:1931   */\n      slt\n        /* \"#utility.yul\":1896:2015   */\n      iszero\n      tag_72\n      jumpi\n        /* \"#utility.yul\":1934:2013   */\n      tag_73\n      tag_27\n      jump\t// in\n    tag_73:\n        /* \"#utility.yul\":1896:2015   */\n    tag_72:\n        /* \"#utility.yul\":2082:2083   */\n      0x00\n        /* \"#utility.yul\":2071:2080   */\n      dup5\n        /* \"#utility.yul\":2067:2084   */\n      add\n        /* \"#utility.yul\":2054:2085   */\n      calldataload\n        /* \"#utility.yul\":2112:2130   */\n      0xffffffffffffffff\n        /* \"#utility.yul\":2104:2110   */\n      dup2\n        /* \"#utility.yul\":2101:2131   */\n      gt\n        /* \"#utility.yul\":2098:2215   */\n      iszero\n      tag_74\n      jumpi\n        /* \"#utility.yul\":2134:2213   */\n      tag_75\n      tag_28\n      jump\t// in\n    tag_75:\n        /* \"#utility.yul\":2098:2215   */\n    tag_74:\n        /* \"#utility.yul\":2247:2312   */\n      tag_76\n        /* \"#utility.yul\":2304:2311   */\n      dup7\n        /* \"#utility.yul\":2295:2301   */\n      dup3\n        /* \"#utility.yul\":2284:2293   */\n      dup8\n        /* \"#utility.yul\":2280:2302   */\n      add\n        /* \"#utility.yul\":2247:2312   */\n      tag_32\n      jump\t// in\n    tag_76:\n        /* \"#utility.yul\":2229:2312   */\n      swap4\n      pop\n      swap4\n      pop\n        /* \"#utility.yul\":2025:2322   */\n      pop\n        /* \"#utility.yul\":2361:2363   */\n      0x20\n        /* \"#utility.yul\":2387:2440   */\n      tag_77\n        /* \"#utility.yul\":2432:2439   */\n      dup7\n        /* \"#utility.yul\":2423:2429   */\n      dup3\n        /* \"#utility.yul\":2412:2421   */\n      dup8\n        /* \"#utility.yul\":2408:2430   */\n      add\n        /* \"#utility.yul\":2387:2440   */\n      tag_36\n      jump\t// in\n    tag_77:\n        /* \"#utility.yul\":2377:2440   */\n      swap2\n      pop\n        /* \"#utility.yul\":2332:2450   */\n      pop\n        /* \"#utility.yul\":1783:2457   */\n      swap3\n      pop\n      swap3\n      pop\n      swap3\n      jump\t// out\n        /* \"#utility.yul\":2463:2992   */\n    tag_12:\n        /* \"#utility.yul\":2534:2540   */\n      0x00\n        /* \"#utility.yul\":2542:2548   */\n      dup1\n        /* \"#utility.yul\":2591:2593   */\n      0x20\n        /* \"#utility.yul\":2579:2588   */\n      dup4\n        /* \"#utility.yul\":2570:2577   */\n      dup6\n        /* \"#utility.yul\":2566:2589   */\n      sub\n        /* \"#utility.yul\":2562:2594   */\n      slt\n        /* \"#utility.yul\":2559:2678   */\n      iszero\n      tag_79\n      jumpi\n        /* \"#utility.yul\":2597:2676   */\n      tag_80\n      tag_27\n      jump\t// in\n    tag_80:\n        /* \"#utility.yul\":2559:2678   */\n    tag_79:\n        /* \"#utility.yul\":2745:2746   */\n      0x00\n        /* \"#utility.yul\":2734:2743   */\n      dup4\n        /* \"#utility.yul\":2730:2747   */\n      add\n        /* \"#utility.yul\":2717:2748   */\n      calldataload\n        /* \"#utility.yul\":2775:2793   */\n      0xffffffffffffffff\n        /* \"#utility.yul\":2767:2773   */\n      dup2\n        /* \"#utility.yul\":2764:2794   */\n      gt\n        /* \"#utility.yul\":2761:2878   */\n      iszero\n      tag_81\n      jumpi\n        /* \"#utility.yul\":2797:2876   */\n      tag_82\n      tag_28\n      jump\t// in\n    tag_82:\n        /* \"#utility.yul\":2761:2878   */\n    tag_81:\n        /* \"#utility.yul\":2910:2975   */\n      tag_83\n        /* \"#utility.yul\":2967:2974   */\n      dup6\n        /* \"#utility.yul\":2958:2964   */\n      dup3\n        /* \"#utility.yul\":2947:2956   */\n      dup7\n        /* \"#utility.yul\":2943:2965   */\n      add\n        /* \"#utility.yul\":2910:2975   */\n      tag_32\n      jump\t// in\n    tag_83:\n        /* \"#utility.yul\":2892:2975   */\n      swap3\n      pop\n      swap3\n      pop\n        /* \"#utility.yul\":2688:2985   */\n      pop\n        /* \"#utility.yul\":2463:2992   */\n      swap3\n      pop\n      swap3\n      swap1\n      pop\n      jump\t// out\n        /* \"#utility.yul\":2998:3116   */\n    tag_37:\n        /* \"#utility.yul\":3085:3109   */\n      tag_85\n        /* \"#utility.yul\":3103:3108   */\n      dup2\n        /* \"#utility.yul\":3085:3109   */\n      tag_34\n      jump\t// in\n    tag_85:\n        /* \"#utility.yul\":3080:3083   */\n      dup3\n        /* \"#utility.yul\":3073:3110   */\n      mstore\n        /* \"#utility.yul\":2998:3116   */\n      pop\n      pop\n      jump\t// out\n        /* \"#utility.yul\":3122:3344   */\n    tag_15:\n        /* \"#utility.yul\":3215:3219   */\n      0x00\n        /* \"#utility.yul\":3253:3255   */\n      0x20\n        /* \"#utility.yul\":3242:3251   */\n      dup3\n        /* \"#utility.yul\":3238:3256   */\n      add\n        /* \"#utility.yul\":3230:3256   */\n      swap1\n      pop\n        /* \"#utility.yul\":3266:3337   */\n      tag_87\n        /* \"#utility.yul\":3334:3335   */\n      0x00\n        /* \"#utility.yul\":3323:3332   */\n      dup4\n        /* \"#utility.yul\":3319:3336   */\n      add\n        /* \"#utility.yul\":3310:3316   */\n      dup5\n        /* \"#utility.yul\":3266:3337   */\n      tag_37\n      jump\t// in\n    tag_87:\n        /* \"#utility.yul\":3122:3344   */\n      swap3\n      swap2\n      pop\n      pop\n      jump\t// out\n        /* \"#utility.yul\":3350:3467   */\n    tag_38:\n        /* \"#utility.yul\":3459:3460   */\n      0x00\n        /* \"#utility.yul\":3456:3457   */\n      dup1\n        /* \"#utility.yul\":3449:3461   */\n      revert\n        /* \"#utility.yul\":3473:3575   */\n    tag_39:\n        /* \"#utility.yul\":3514:3520   */\n      0x00\n        /* \"#utility.yul\":3565:3567   */\n      0x1f\n        /* \"#utility.yul\":3561:3568   */\n      not\n        /* \"#utility.yul\":3556:3558   */\n      0x1f\n        /* \"#utility.yul\":3549:3554   */\n      dup4\n        /* \"#utility.yul\":3545:3559   */\n      add\n        /* \"#utility.yul\":3541:3569   */\n      and\n        /* \"#utility.yul\":3531:3569   */\n      swap1\n      pop\n        /* \"#utility.yul\":3473:3575   */\n      swap2\n      swap1\n      pop\n      jump\t// out\n        /* \"#utility.yul\":3581:3761   */\n    tag_40:\n        /* \"#utility.yul\":3629:3706   */\n      0x4e487b7100000000000000000000000000000000000000000000000000000000\n        /* \"#utility.yul\":3626:3627   */\n      0x00\n        /* \"#utility.yul\":3619:3707   */\n      mstore\n        /* \"#utility.yul\":3726:3730   */\n      0x41\n        /* \"#utility.yul\":3723:3724   */\n      0x04\n        /* \"#utility.yul\":3716:3731   */\n      mstore\n        /* \"#utility.yul\":3750:3754   */\n      0x24\n        /* \"#utility.yul\":3747:3748   */\n      0x00\n        /* \"#utility.yul\":3740:3755   */\n      revert\n        /* \"#utility.yul\":3767:4048   */\n    tag_41:\n        /* \"#utility.yul\":3850:3877   */\n      tag_92\n        /* \"#utility.yul\":3872:3876   */\n      dup3\n        /* \"#utility.yul\":3850:3877   */\n      tag_39\n      jump\t// in\n    tag_92:\n        /* \"#utility.yul\":3842:3848   */\n      dup2\n        /* \"#utility.yul\":3838:3878   */\n      add\n        /* \"#utility.yul\":3980:3986   */\n      dup2\n        /* \"#utility.yul\":3968:3978   */\n      dup2\n        /* \"#utility.yul\":3965:3987   */\n      lt\n        /* \"#utility.yul\":3944:3962   */\n      0xffffffffffffffff\n        /* \"#utility.yul\":3932:3942   */\n      dup3\n        /* \"#utility.yul\":3929:3963   */\n      gt\n        /* \"#utility.yul\":3926:3988   */\n      or\n        /* \"#utility.yul\":3923:4011   */\n      iszero\n      tag_93\n      jumpi\n        /* \"#utility.yul\":3991:4009   */\n      tag_94\n      tag_40\n      jump\t// in\n    tag_94:\n        /* \"#utility.yul\":3923:4011   */\n    tag_93:\n        /* \"#utility.yul\":4031:4041   */\n      dup1\n        /* \"#utility.yul\":4027:4029   */\n      0x40\n        /* \"#utility.yul\":4020:4042   */\n      mstore\n        /* \"#utility.yul\":3810:4048   */\n      pop\n        /* \"#utility.yul\":3767:4048   */\n      pop\n      pop\n      jump\t// out\n        /* \"#utility.yul\":4054:4183   */\n    tag_42:\n        /* \"#utility.yul\":4088:4094   */\n      0x00\n        /* \"#utility.yul\":4115:4135   */\n      tag_96\n      tag_26\n      jump\t// in\n    tag_96:\n        /* \"#utility.yul\":4105:4135   */\n      swap1\n      pop\n        /* \"#utility.yul\":4144:4177   */\n      tag_97\n        /* \"#utility.yul\":4172:4176   */\n      dup3\n        /* \"#utility.yul\":4164:4170   */\n      dup3\n        /* \"#utility.yul\":4144:4177   */\n      tag_41\n      jump\t// in\n    tag_97:\n        /* \"#utility.yul\":4054:4183   */\n      swap2\n      swap1\n      pop\n      jump\t// out\n        /* \"#utility.yul\":4189:4497   */\n    tag_43:\n        /* \"#utility.yul\":4251:4255   */\n      0x00\n        /* \"#utility.yul\":4341:4359   */\n      0xffffffffffffffff\n        /* \"#utility.yul\":4333:4339   */\n      dup3\n        /* \"#utility.yul\":4330:4360   */\n      gt\n        /* \"#utility.yul\":4327:4383   */\n      iszero\n      tag_99\n      jumpi\n        /* \"#utility.yul\":4363:4381   */\n      tag_100\n      tag_40\n      jump\t// in\n    tag_100:\n        /* \"#utility.yul\":4327:4383   */\n    tag_99:\n        /* \"#utility.yul\":4401:4430   */\n      tag_101\n        /* \"#utility.yul\":4423:4429   */\n      dup3\n        /* \"#utility.yul\":4401:4430   */\n      tag_39\n      jump\t// in\n    tag_101:\n        /* \"#utility.yul\":4393:4430   */\n      swap1\n      pop\n        /* \"#utility.yul\":4485:4489   */\n      0x20\n        /* \"#utility.yul\":4479:4483   */\n      dup2\n        /* \"#utility.yul\":4475:4490   */\n      add\n        /* \"#utility.yul\":4467:4490   */\n      swap1\n      pop\n        /* \"#utility.yul\":4189:4497   */\n      swap2\n      swap1\n      pop\n      jump\t// out\n        /* \"#utility.yul\":4503:4651   */\n    tag_44:\n        /* \"#utility.yul\":4601:4607   */\n      dup3\n        /* \"#utility.yul\":4596:4599   */\n      dup2\n        /* \"#utility.yul\":4591:4594   */\n      dup4\n        /* \"#utility.yul\":4578:4608   */\n      calldatacopy\n        /* \"#utility.yul\":4642:4643   */\n      0x00\n        /* \"#utility.yul\":4633:4639   */\n      dup4\n        /* \"#utility.yul\":4628:4631   */\n      dup4\n        /* \"#utility.yul\":4624:4640   */\n      add\n        /* \"#utility.yul\":4617:4644   */\n      mstore\n        /* \"#utility.yul\":4503:4651   */\n      pop\n      pop\n      pop\n      jump\t// out\n        /* \"#utility.yul\":4657:5082   */\n    tag_45:\n        /* \"#utility.yul\":4735:4740   */\n      0x00\n        /* \"#utility.yul\":4760:4826   */\n      tag_104\n        /* \"#utility.yul\":4776:4825   */\n      tag_105\n        /* \"#utility.yul\":4818:4824   */\n      dup5\n        /* \"#utility.yul\":4776:4825   */\n      tag_43\n      jump\t// in\n    tag_105:\n        /* \"#utility.yul\":4760:4826   */\n      tag_42\n      jump\t// in\n    tag_104:\n        /* \"#utility.yul\":4751:4826   */\n      swap1\n      pop\n        /* \"#utility.yul\":4849:4855   */\n      dup3\n        /* \"#utility.yul\":4842:4847   */\n      dup2\n        /* \"#utility.yul\":4835:4856   */\n      mstore\n        /* \"#utility.yul\":4887:4891   */\n      0x20\n        /* \"#utility.yul\":4880:4885   */\n      dup2\n        /* \"#utility.yul\":4876:4892   */\n      add\n        /* \"#utility.yul\":4925:4928   */\n      dup5\n        /* \"#utility.yul\":4916:4922   */\n      dup5\n        /* \"#utility.yul\":4911:4914   */\n      dup5\n        /* \"#utility.yul\":4907:4923   */\n      add\n        /* \"#utility.yul\":4904:4929   */\n      gt\n        /* \"#utility.yul\":4901:5013   */\n      iszero\n      tag_106\n      jumpi\n        /* \"#utility.yul\":4932:5011   */\n      tag_107\n      tag_38\n      jump\t// in\n    tag_107:\n        /* \"#utility.yul\":4901:5013   */\n    tag_106:\n        /* \"#utility.yul\":5022:5076   */\n      tag_108\n        /* \"#utility.yul\":5069:5075   */\n      dup5\n        /* \"#utility.yul\":5064:5067   */\n      dup3\n        /* \"#utility.yul\":5059:5062   */\n      dup6\n        /* \"#utility.yul\":5022:5076   */\n      tag_44\n      jump\t// in\n    tag_108:\n        /* \"#utility.yul\":4741:5082   */\n      pop\n        /* \"#utility.yul\":4657:5082   */\n      swap4\n      swap3\n      pop\n      pop\n      pop\n      jump\t// out\n        /* \"#utility.yul\":5102:5442   */\n    tag_46:\n        /* \"#utility.yul\":5158:5163   */\n      0x00\n        /* \"#utility.yul\":5207:5210   */\n      dup3\n        /* \"#utility.yul\":5200:5204   */\n      0x1f\n        /* \"#utility.yul\":5192:5198   */\n      dup4\n        /* \"#utility.yul\":5188:5205   */\n      add\n        /* \"#utility.yul\":5184:5211   */\n      slt\n        /* \"#utility.yul\":5174:5296   */\n      tag_110\n      jumpi\n        /* \"#utility.yul\":5215:5294   */\n      tag_111\n      tag_29\n      jump\t// in\n    tag_111:\n        /* \"#utility.yul\":5174:5296   */\n    tag_110:\n        /* \"#utility.yul\":5332:5338   */\n      dup2\n        /* \"#utility.yul\":5319:5339   */\n      calldataload\n        /* \"#utility.yul\":5357:5436   */\n      tag_112\n        /* \"#utility.yul\":5432:5435   */\n      dup5\n        /* \"#utility.yul\":5424:5430   */\n      dup3\n        /* \"#utility.yul\":5417:5421   */\n      0x20\n        /* \"#utility.yul\":5409:5415   */\n      dup7\n        /* \"#utility.yul\":5405:5422   */\n      add\n        /* \"#utility.yul\":5357:5436   */\n      tag_45\n      jump\t// in\n    tag_112:\n        /* \"#utility.yul\":5348:5436   */\n      swap2\n      pop\n        /* \"#utility.yul\":5164:5442   */\n      pop\n        /* \"#utility.yul\":5102:5442   */\n      swap3\n      swap2\n      pop\n      pop\n      jump\t// out\n        /* \"#utility.yul\":5448:5957   */\n    tag_18:\n        /* \"#utility.yul\":5517:5523   */\n      0x00\n        /* \"#utility.yul\":5566:5568   */\n      0x20\n        /* \"#utility.yul\":5554:5563   */\n      dup3\n        /* \"#utility.yul\":5545:5552   */\n      dup5\n        /* \"#utility.yul\":5541:5564   */\n      sub\n        /* \"#utility.yul\":5537:5569   */\n      slt\n        /* \"#utility.yul\":5534:5653   */\n      iszero\n      tag_114\n      jumpi\n        /* \"#utility.yul\":5572:5651   */\n      tag_115\n      tag_27\n      jump\t// in\n    tag_115:\n        /* \"#utility.yul\":5534:5653   */\n    tag_114:\n        /* \"#utility.yul\":5720:5721   */\n      0x00\n        /* \"#utility.yul\":5709:5718   */\n      dup3\n        /* \"#utility.yul\":5705:5722   */\n      add\n        /* \"#utility.yul\":5692:5723   */\n      calldataload\n        /* \"#utility.yul\":5750:5768   */\n      0xffffffffffffffff\n        /* \"#utility.yul\":5742:5748   */\n      dup2\n        /* \"#utility.yul\":5739:5769   */\n      gt\n        /* \"#utility.yul\":5736:5853   */\n      iszero\n      tag_116\n      jumpi\n        /* \"#utility.yul\":5772:5851   */\n      tag_117\n      tag_28\n      jump\t// in\n    tag_117:\n        /* \"#utility.yul\":5736:5853   */\n    tag_116:\n        /* \"#utility.yul\":5877:5940   */\n      tag_118\n        /* \"#utility.yul\":5932:5939   */\n      dup5\n        /* \"#utility.yul\":5923:5929   */\n      dup3\n        /* \"#utility.yul\":5912:5921   */\n      dup6\n        /* \"#utility.yul\":5908:5930   */\n      add\n        /* \"#utility.yul\":5877:5940   */\n      tag_46\n      jump\t// in\n    tag_118:\n        /* \"#utility.yul\":5867:5940   */\n      swap2\n      pop\n        /* \"#utility.yul\":5663:5950   */\n      pop\n        /* \"#utility.yul\":5448:5957   */\n      swap3\n      swap2\n      pop\n      pop\n      jump\t// out\n        /* \"#utility.yul\":5963:6111   */\n    tag_47:\n        /* \"#utility.yul\":6065:6076   */\n      0x00\n        /* \"#utility.yul\":6102:6105   */\n      dup2\n        /* \"#utility.yul\":6087:6105   */\n      swap1\n      pop\n        /* \"#utility.yul\":5963:6111   */\n      swap3\n      swap2\n      pop\n      pop\n      jump\t// out\n        /* \"#utility.yul\":6141:6471   */\n    tag_48:\n        /* \"#utility.yul\":6257:6260   */\n      0x00\n        /* \"#utility.yul\":6278:6367   */\n      tag_121\n        /* \"#utility.yul\":6360:6366   */\n      dup4\n        /* \"#utility.yul\":6355:6358   */\n      dup6\n        /* \"#utility.yul\":6278:6367   */\n      tag_47\n      jump\t// in\n    tag_121:\n        /* \"#utility.yul\":6271:6367   */\n      swap4\n      pop\n        /* \"#utility.yul\":6377:6433   */\n      tag_122\n        /* \"#utility.yul\":6426:6432   */\n      dup4\n        /* \"#utility.yul\":6421:6424   */\n      dup6\n        /* \"#utility.yul\":6414:6419   */\n      dup5\n        /* \"#utility.yul\":6377:6433   */\n      tag_44\n      jump\t// in\n    tag_122:\n        /* \"#utility.yul\":6458:6464   */\n      dup3\n        /* \"#utility.yul\":6453:6456   */\n      dup5\n        /* \"#utility.yul\":6449:6465   */\n      add\n        /* \"#utility.yul\":6442:6465   */\n      swap1\n      pop\n        /* \"#utility.yul\":6141:6471   */\n      swap4\n      swap3\n      pop\n      pop\n      pop\n      jump\t// out\n        /* \"#utility.yul\":6477:6772   */\n    tag_23:\n        /* \"#utility.yul\":6619:6622   */\n      0x00\n        /* \"#utility.yul\":6641:6746   */\n      tag_124\n        /* \"#utility.yul\":6742:6745   */\n      dup3\n        /* \"#utility.yul\":6733:6739   */\n      dup5\n        /* \"#utility.yul\":6725:6731   */\n      dup7\n        /* \"#utility.yul\":6641:6746   */\n      tag_48\n      jump\t// in\n    tag_124:\n        /* \"#utility.yul\":6634:6746   */\n      swap2\n      pop\n        /* \"#utility.yul\":6763:6766   */\n      dup2\n        /* \"#utility.yul\":6756:6766   */\n      swap1\n      pop\n        /* \"#utility.yul\":6477:6772   */\n      swap4\n      swap3\n      pop\n      pop\n      pop\n      jump\t// out\n\n    auxdata: 0xa26469706673582212202fce70b20fa73611f50df94895850a32a404356b4248051b79e3a3020ef0d64f64736f6c634300081a0033\n}\n",
				"bytecode": {
					"linkReferences": {},
					"object": "6080604052348015600e575f80fd5b506105478061001c5f395ff3fe608060405234801561000f575f80fd5b506004361061003f575f3560e01c80631e59c52914610043578063461a44781461005f578063822fbf581461008f575b5f80fd5b61005d6004803603810190610058919061027c565b6100bf565b005b610079600480360381019061007491906102d9565b610121565b6040516100869190610333565b60405180910390f35b6100a960048036038101906100a49190610484565b610169565b6040516100b69190610333565b60405180910390f35b805f84846040516100d19291906104f9565b90815260200160405180910390205f6101000a81548173ffffffffffffffffffffffffffffffffffffffff021916908373ffffffffffffffffffffffffffffffffffffffff160217905550505050565b5f8083836040516101339291906104f9565b90815260200160405180910390205f9054906101000a900473ffffffffffffffffffffffffffffffffffffffff16905092915050565b5f818051602081018201805184825260208301602085012081835280955050505050505f915054906101000a900473ffffffffffffffffffffffffffffffffffffffff1681565b5f604051905090565b5f80fd5b5f80fd5b5f80fd5b5f80fd5b5f80fd5b5f8083601f8401126101e2576101e16101c1565b5b8235905067ffffffffffffffff8111156101ff576101fe6101c5565b5b60208301915083600182028301111561021b5761021a6101c9565b5b9250929050565b5f73ffffffffffffffffffffffffffffffffffffffff82169050919050565b5f61024b82610222565b9050919050565b61025b81610241565b8114610265575f80fd5b50565b5f8135905061027681610252565b92915050565b5f805f60408486031215610293576102926101b9565b5b5f84013567ffffffffffffffff8111156102b0576102af6101bd565b5b6102bc868287016101cd565b935093505060206102cf86828701610268565b9150509250925092565b5f80602083850312156102ef576102ee6101b9565b5b5f83013567ffffffffffffffff81111561030c5761030b6101bd565b5b610318858286016101cd565b92509250509250929050565b61032d81610241565b82525050565b5f6020820190506103465f830184610324565b92915050565b5f80fd5b5f601f19601f8301169050919050565b7f4e487b71000000000000000000000000000000000000000000000000000000005f52604160045260245ffd5b61039682610350565b810181811067ffffffffffffffff821117156103b5576103b4610360565b5b80604052505050565b5f6103c76101b0565b90506103d3828261038d565b919050565b5f67ffffffffffffffff8211156103f2576103f1610360565b5b6103fb82610350565b9050602081019050919050565b828183375f83830152505050565b5f610428610423846103d8565b6103be565b9050828152602081018484840111156104445761044361034c565b5b61044f848285610408565b509392505050565b5f82601f83011261046b5761046a6101c1565b5b813561047b848260208601610416565b91505092915050565b5f60208284031215610499576104986101b9565b5b5f82013567ffffffffffffffff8111156104b6576104b56101bd565b5b6104c284828501610457565b91505092915050565b5f81905092915050565b5f6104e083856104cb565b93506104ed838584610408565b82840190509392505050565b5f6105058284866104d5565b9150819050939250505056fea26469706673582212202fce70b20fa73611f50df94895850a32a404356b4248051b79e3a3020ef0d64f64736f6c634300081a0033",
					"opcodes": "PUSH1 0x80 PUSH1 0x40 MSTORE CALLVALUE DUP1 ISZERO PUSH1 0xE JUMPI PUSH0 DUP1 REVERT JUMPDEST POP PUSH2 0x547 DUP1 PUSH2 0x1C PUSH0 CODECOPY PUSH0 RETURN INVALID PUSH1 0x80 PUSH1 0x40 MSTORE CALLVALUE DUP1 ISZERO PUSH2 0xF JUMPI PUSH0 DUP1 REVERT JUMPDEST POP PUSH1 0x4 CALLDATASIZE LT PUSH2 0x3F JUMPI PUSH0 CALLDATALOAD PUSH1 0xE0 SHR DUP1 PUSH4 0x1E59C529 EQ PUSH2 0x43 JUMPI DUP1 PUSH4 0x461A4478 EQ PUSH2 0x5F JUMPI DUP1 PUSH4 0x822FBF58 EQ PUSH2 0x8F JUMPI JUMPDEST PUSH0 DUP1 REVERT JUMPDEST PUSH2 0x5D PUSH1 0x4 DUP1 CALLDATASIZE SUB DUP2 ADD SWAP1 PUSH2 0x58 SWAP2 SWAP1 PUSH2 0x27C JUMP JUMPDEST PUSH2 0xBF JUMP JUMPDEST STOP JUMPDEST PUSH2 0x79 PUSH1 0x4 DUP1 CALLDATASIZE SUB DUP2 ADD SWAP1 PUSH2 0x74 SWAP2 SWAP1 PUSH2 0x2D9 JUMP JUMPDEST PUSH2 0x121 JUMP JUMPDEST PUSH1 0x40 MLOAD PUSH2 0x86 SWAP2 SWAP1 PUSH2 0x333 JUMP JUMPDEST PUSH1 0x40 MLOAD DUP1 SWAP2 SUB SWAP1 RETURN JUMPDEST PUSH2 0xA9 PUSH1 0x4 DUP1 CALLDATASIZE SUB DUP2 ADD SWAP1 PUSH2 0xA4 SWAP2 SWAP1 PUSH2 0x484 JUMP JUMPDEST PUSH2 0x169 JUMP JUMPDEST PUSH1 0x40 MLOAD PUSH2 0xB6 SWAP2 SWAP1 PUSH2 0x333 JUMP JUMPDEST PUSH1 0x40 MLOAD DUP1 SWAP2 SUB SWAP1 RETURN JUMPDEST DUP1 PUSH0 DUP5 DUP5 PUSH1 0x40 MLOAD PUSH2 0xD1 SWAP3 SWAP2 SWAP1 PUSH2 0x4F9 JUMP JUMPDEST SWAP1 DUP2 MSTORE PUSH1 0x20 ADD PUSH1 0x40 MLOAD DUP1 SWAP2 SUB SWAP1 KECCAK256 PUSH0 PUSH2 0x100 EXP DUP2 SLOAD DUP2 PUSH20 0xFFFFFFFFFFFFFFFFFFFFFFFFFFFFFFFFFFFFFFFF MUL NOT AND SWAP1 DUP4 PUSH20 0xFFFFFFFFFFFFFFFFFFFFFFFFFFFFFFFFFFFFFFFF AND MUL OR SWAP1 SSTORE POP POP POP POP JUMP JUMPDEST PUSH0 DUP1 DUP4 DUP4 PUSH1 0x40 MLOAD PUSH2 0x133 SWAP3 SWAP2 SWAP1 PUSH2 0x4F9 JUMP JUMPDEST SWAP1 DUP2 MSTORE PUSH1 0x20 ADD PUSH1 0x40 MLOAD DUP1 SWAP2 SUB SWAP1 KECCAK256 PUSH0 SWAP1 SLOAD SWAP1 PUSH2 0x100 EXP SWAP1 DIV PUSH20 0xFFFFFFFFFFFFFFFFFFFFFFFFFFFFFFFFFFFFFFFF AND SWAP1 POP SWAP3 SWAP2 POP POP JUMP JUMPDEST PUSH0 DUP2 DUP1 MLOAD PUSH1 0x20 DUP2 ADD DUP3 ADD DUP1 MLOAD DUP5 DUP3 MSTORE PUSH1 0x20 DUP4 ADD PUSH1 0x20 DUP6 ADD KECCAK256 DUP2 DUP4 MSTORE DUP1 SWAP6 POP POP POP POP POP POP PUSH0 SWAP2 POP SLOAD SWAP1 PUSH2 0x100 EXP SWAP1 DIV PUSH20 0xFFFFFFFFFFFFFFFFFFFFFFFFFFFFFFFFFFFFFFFF AND DUP2 JUMP JUMPDEST PUSH0 PUSH1 0x40 MLOAD SWAP1 POP SWAP1 JUMP JUMPDEST PUSH0 DUP1 REVERT JUMPDEST PUSH0 DUP1 REVERT JUMPDEST PUSH0 DUP1 REVERT JUMPDEST PUSH0 DUP1 REVERT JUMPDEST PUSH0 DUP1 REVERT JUMPDEST PUSH0 DUP1 DUP4 PUSH1 0x1F DUP5 ADD SLT PUSH2 0x1E2 JUMPI PUSH2 0x1E1 PUSH2 0x1C1 JUMP JUMPDEST JUMPDEST DUP3 CALLDATALOAD SWAP1 POP PUSH8 0xFFFFFFFFFFFFFFFF DUP2 GT ISZERO PUSH2 0x1FF JUMPI PUSH2 0x1FE PUSH2 0x1C5 JUMP JUMPDEST JUMPDEST PUSH1 0x20 DUP4 ADD SWAP2 POP DUP4 PUSH1 0x1 DUP3 MUL DUP4 ADD GT ISZERO PUSH2 0x21B JUMPI PUSH2 0x21A PUSH2 0x1C9 JUMP JUMPDEST JUMPDEST SWAP3 POP SWAP3 SWAP1 POP JUMP JUMPDEST PUSH0 PUSH20 0xFFFFFFFFFFFFFFFFFFFFFFFFFFFFFFFFFFFFFFFF DUP3 AND SWAP1 POP SWAP2 SWAP1 POP JUMP JUMPDEST PUSH0 PUSH2 0x24B DUP3 PUSH2 0x222 JUMP JUMPDEST SWAP1 POP SWAP2 SWAP1 POP JUMP JUMPDEST PUSH2 0x25B DUP2 PUSH2 0x241 JUMP JUMPDEST DUP2 EQ PUSH2 0x265 JUMPI PUSH0 DUP1 REVERT JUMPDEST POP JUMP JUMPDEST PUSH0 DUP2 CALLDATALOAD SWAP1 POP PUSH2 0x276 DUP2 PUSH2 0x252 JUMP JUMPDEST SWAP3 SWAP2 POP POP JUMP JUMPDEST PUSH0 DUP1 PUSH0 PUSH1 0x40 DUP5 DUP7 SUB SLT ISZERO PUSH2 0x293 JUMPI PUSH2 0x292 PUSH2 0x1B9 JUMP JUMPDEST JUMPDEST PUSH0 DUP5 ADD CALLDATALOAD PUSH8 0xFFFFFFFFFFFFFFFF DUP2 GT ISZERO PUSH2 0x2B0 JUMPI PUSH2 0x2AF PUSH2 0x1BD JUMP JUMPDEST JUMPDEST PUSH2 0x2BC DUP7 DUP3 DUP8 ADD PUSH2 0x1CD JUMP JUMPDEST SWAP4 POP SWAP4 POP POP PUSH1 0x20 PUSH2 0x2CF DUP7 DUP3 DUP8 ADD PUSH2 0x268 JUMP JUMPDEST SWAP2 POP POP SWAP3 POP SWAP3 POP SWAP3 JUMP JUMPDEST PUSH0 DUP1 PUSH1 0x20 DUP4 DUP6 SUB SLT ISZERO PUSH2 0x2EF JUMPI PUSH2 0x2EE PUSH2 0x1B9 JUMP JUMPDEST JUMPDEST PUSH0 DUP4 ADD CALLDATALOAD PUSH8 0xFFFFFFFFFFFFFFFF DUP2 GT ISZERO PUSH2 0x30C JUMPI PUSH2 0x30B PUSH2 0x1BD JUMP JUMPDEST JUMPDEST PUSH2 0x318 DUP6 DUP3 DUP7 ADD PUSH2 0x1CD JUMP JUMPDEST SWAP3 POP SWAP3 POP POP SWAP3 POP SWAP3 SWAP1 POP JUMP JUMPDEST PUSH2 0x32D DUP2 PUSH2 0x241 JUMP JUMPDEST DUP3 MSTORE POP POP JUMP JUMPDEST PUSH0 PUSH1 0x20 DUP3 ADD SWAP1 POP PUSH2 0x346 PUSH0 DUP4 ADD DUP5 PUSH2 0x324 JUMP JUMPDEST SWAP3 SWAP2 POP POP JUMP JUMPDEST PUSH0 DUP1 REVERT JUMPDEST PUSH0 PUSH1 0x1F NOT PUSH1 0x1F DUP4 ADD AND SWAP1 POP SWAP2 SWAP1 POP JUMP JUMPDEST PUSH32 0x4E487B7100000000000000000000000000000000000000000000000000000000 PUSH0 MSTORE PUSH1 0x41 PUSH1 0x4 MSTORE PUSH1 0x24 PUSH0 REVERT JUMPDEST PUSH2 0x396 DUP3 PUSH2 0x350 JUMP JUMPDEST DUP2 ADD DUP2 DUP2 LT PUSH8 0xFFFFFFFFFFFFFFFF DUP3 GT OR ISZERO PUSH2 0x3B5 JUMPI PUSH2 0x3B4 PUSH2 0x360 JUMP JUMPDEST JUMPDEST DUP1 PUSH1 0x40 MSTORE POP POP POP JUMP JUMPDEST PUSH0 PUSH2 0x3C7 PUSH2 0x1B0 JUMP JUMPDEST SWAP1 POP PUSH2 0x3D3 DUP3 DUP3 PUSH2 0x38D JUMP JUMPDEST SWAP2 SWAP1 POP JUMP JUMPDEST PUSH0 PUSH8 0xFFFFFFFFFFFFFFFF DUP3 GT ISZERO PUSH2 0x3F2 JUMPI PUSH2 0x3F1 PUSH2 0x360 JUMP JUMPDEST JUMPDEST PUSH2 0x3FB DUP3 PUSH2 0x350 JUMP JUMPDEST SWAP1 POP PUSH1 0x20 DUP2 ADD SWAP1 POP SWAP2 SWAP1 POP JUMP JUMPDEST DUP3 DUP2 DUP4 CALLDATACOPY PUSH0 DUP4 DUP4 ADD MSTORE POP POP POP JUMP JUMPDEST PUSH0 PUSH2 0x428 PUSH2 0x423 DUP5 PUSH2 0x3D8 JUMP JUMPDEST PUSH2 0x3BE JUMP JUMPDEST SWAP1 POP DUP3 DUP2 MSTORE PUSH1 0x20 DUP2 ADD DUP5 DUP5 DUP5 ADD GT ISZERO PUSH2 0x444 JUMPI PUSH2 0x443 PUSH2 0x34C JUMP JUMPDEST JUMPDEST PUSH2 0x44F DUP5 DUP3 DUP6 PUSH2 0x408 JUMP JUMPDEST POP SWAP4 SWAP3 POP POP POP JUMP JUMPDEST PUSH0 DUP3 PUSH1 0x1F DUP4 ADD SLT PUSH2 0x46B JUMPI PUSH2 0x46A PUSH2 0x1C1 JUMP JUMPDEST JUMPDEST DUP2 CALLDATALOAD PUSH2 0x47B DUP5 DUP3 PUSH1 0x20 DUP7 ADD PUSH2 0x416 JUMP JUMPDEST SWAP2 POP POP SWAP3 SWAP2 POP POP JUMP JUMPDEST PUSH0 PUSH1 0x20 DUP3 DUP5 SUB SLT ISZERO PUSH2 0x499 JUMPI PUSH2 0x498 PUSH2 0x1B9 JUMP JUMPDEST JUMPDEST PUSH0 DUP3 ADD CALLDATALOAD PUSH8 0xFFFFFFFFFFFFFFFF DUP2 GT ISZERO PUSH2 0x4B6 JUMPI PUSH2 0x4B5 PUSH2 0x1BD JUMP JUMPDEST JUMPDEST PUSH2 0x4C2 DUP5 DUP3 DUP6 ADD PUSH2 0x457 JUMP JUMPDEST SWAP2 POP POP SWAP3 SWAP2 POP POP JUMP JUMPDEST PUSH0 DUP2 SWAP1 POP SWAP3 SWAP2 POP POP JUMP JUMPDEST PUSH0 PUSH2 0x4E0 DUP4 DUP6 PUSH2 0x4CB JUMP JUMPDEST SWAP4 POP PUSH2 0x4ED DUP4 DUP6 DUP5 PUSH2 0x408 JUMP JUMPDEST DUP3 DUP5 ADD SWAP1 POP SWAP4 SWAP3 POP POP POP JUMP JUMPDEST PUSH0 PUSH2 0x505 DUP3 DUP5 DUP7 PUSH2 0x4D5 JUMP JUMPDEST SWAP2 POP DUP2 SWAP1 POP SWAP4 SWAP3 POP POP POP JUMP INVALID LOG2 PUSH5 0x6970667358 0x22 SLT KECCAK256 0x2F 0xCE PUSH17 0xB20FA73611F50DF94895850A32A404356B TIMESTAMP BASEFEE SDIV SHL PUSH26 0xE3A3020EF0D64F64736F6C634300081A00330000000000000000 "
				},
				"gasEstimates": {
					"creation": {
						"codeDepositCost": "270200",
						"executionCost": "310",
						"totalCost": "270510"
					},
					"external": {
						"names(string)": "infinite",
						"register(string,address)": "infinite",
						"resolve(string)": "infinite"
					}
				},
				"methodIdentifiers": {
					"names(string)": "822fbf58",
					"register(string,address)": "1e59c529",
					"resolve(string)": "461a4478"
				}
			},
			"storageLayout": {
				"storage": [
					{
						"astId": 5,
						"contract": "P/Pharming/Pharming.sol:FakeENS",
						"label": "names",
						"offset": 0,
						"slot": "0",
						"type": "t_mapping(t_string_memory_ptr,t_address)"
					}
				],
				"types": {
					"t_address": {
						"encoding": "inplace",
						"label": "address",
						"numberOfBytes": "20"
					},
					"t_mapping(t_string_memory_ptr,t_address)": {
						"encoding": "mapping",
						"key": "t_string_memory_ptr",
						"label": "mapping(string => address)",
						"numberOfBytes": "32",
						"value": "t_address"
					},
					"t_string_memory_ptr": {
						"encoding": "bytes",
						"label": "string",
						"numberOfBytes": "32"
					}
				}
			},
			"userdoc": {
				"kind": "user",
				"methods": {},
				"version": 1
			}
		}
	}
}