{
	"P/Pharming/Pharming.sol": {
		"SigDriftPharmer": {
			"abi": [
				{
					"inputs": [
						{
							"internalType": "address",
							"name": "target",
							"type": "address"
						},
						{
							"internalType": "bytes32",
							"name": "h",
							"type": "bytes32"
						},
						{
							"internalType": "bytes",
							"name": "sig",
							"type": "bytes"
						}
					],
					"name": "relay",
					"outputs": [],
					"stateMutability": "nonpayable",
					"type": "function"
				}
			],
			"devdoc": {
				"kind": "dev",
				"methods": {},
				"version": 1
			},
			"evm": {
				"assembly": "    /* \"P/Pharming/Pharming.sol\":792:1016  contract SigDriftPharmer {... */\n  mstore(0x40, 0x80)\n  callvalue\n  dup1\n  iszero\n  tag_1\n  jumpi\n  0x00\n  dup1\n  revert\ntag_1:\n  pop\n  dataSize(sub_0)\n  dup1\n  dataOffset(sub_0)\n  0x00\n  codecopy\n  0x00\n  return\nstop\n\nsub_0: assembly {\n        /* \"P/Pharming/Pharming.sol\":792:1016  contract SigDriftPharmer {... */\n      mstore(0x40, 0x80)\n      callvalue\n      dup1\n      iszero\n      tag_1\n      jumpi\n      0x00\n      dup1\n      revert\n    tag_1:\n      pop\n      jumpi(tag_2, lt(calldatasize, 0x04))\n      shr(0xe0, calldataload(0x00))\n      dup1\n      0x93e24148\n      eq\n      tag_3\n      jumpi\n    tag_2:\n      0x00\n      dup1\n      revert\n        /* \"P/Pharming/Pharming.sol\":823:1014  function relay(address target, bytes32 h, bytes calldata sig) external {... */\n    tag_3:\n      tag_4\n      0x04\n      dup1\n      calldatasize\n      sub\n      dup2\n      add\n      swap1\n      tag_5\n      swap2\n      swap1\n      tag_6\n      jump\t// in\n    tag_5:\n      tag_7\n      jump\t// in\n    tag_4:\n      stop\n    tag_7:\n        /* \"P/Pharming/Pharming.sol\":905:912  bool ok */\n      0x00\n        /* \"P/Pharming/Pharming.sol\":918:924  target */\n      dup5\n        /* \"P/Pharming/Pharming.sol\":918:929  target.call */\n      0xffffffffffffffffffffffffffffffffffffffff\n      and\n        /* \"P/Pharming/Pharming.sol\":978:979  h */\n      dup5\n        /* \"P/Pharming/Pharming.sol\":981:984  sig */\n      dup5\n      dup5\n        /* \"P/Pharming/Pharming.sol\":930:985  abi.encodeWithSignature(\"login(bytes32,bytes)\", h, sig) */\n      add(0x24, mload(0x40))\n      tag_9\n      swap4\n      swap3\n      swap2\n      swap1\n      tag_10\n      jump\t// in\n    tag_9:\n      mload(0x40)\n      0x20\n      dup2\n      dup4\n      sub\n      sub\n      dup2\n      mstore\n      swap1\n      0x40\n      mstore\n      and(not(0xffffffffffffffffffffffffffffffffffffffffffffffffffffffff), 0x458fe72900000000000000000000000000000000000000000000000000000000)\n      0x20\n      dup3\n      add\n      dup1\n      mload\n      0xffffffffffffffffffffffffffffffffffffffffffffffffffffffff\n      dup4\n      dup2\n      dup4\n      and\n      or\n      dup4\n      mstore\n      pop\n      pop\n      pop\n      pop\n        /* \"P/Pharming/Pharming.sol\":918:986  target.call(abi.encodeWithSignature(\"login(bytes32,bytes)\", h, sig)) */\n      mload(0x40)\n      tag_11\n      swap2\n      swap1\n      tag_12\n      jump\t// in\n    tag_11:\n      0x00\n      mload(0x40)\n      dup1\n      dup4\n      sub\n      dup2\n      0x00\n      dup7\n      gas\n      call\n      swap2\n      pop\n      pop\n      returndatasize\n      dup1\n      0x00\n      dup2\n      eq\n      tag_15\n      jumpi\n      mload(0x40)\n      swap2\n      pop\n      and(add(returndatasize, 0x3f), not(0x1f))\n      dup3\n      add\n      0x40\n      mstore\n      returndatasize\n      dup3\n      mstore\n      returndatasize\n      0x00\n      0x20\n      dup5\n      add\n      returndatacopy\n      jump(tag_14)\n    tag_15:\n      0x60\n      swap2\n      pop\n    tag_14:\n      pop\n        /* \"P/Pharming/Pharming.sol\":904:986  (bool ok, ) = target.call(abi.encodeWithSignature(\"login(bytes32,bytes)\", h, sig)) */\n      pop\n      swap1\n      pop\n        /* \"P/Pharming/Pharming.sol\":1004:1006  ok */\n      dup1\n        /* \"P/Pharming/Pharming.sol\":996:1007  require(ok) */\n      tag_16\n      jumpi\n      0x00\n      dup1\n      revert\n    tag_16:\n        /* \"P/Pharming/Pharming.sol\":894:1014  {... */\n      pop\n        /* \"P/Pharming/Pharming.sol\":823:1014  function relay(address target, bytes32 h, bytes calldata sig) external {... */\n      pop\n      pop\n      pop\n      pop\n      jump\t// out\n        /* \"#utility.yul\":88:205   */\n    tag_18:\n        /* \"#utility.yul\":197:198   */\n      0x00\n        /* \"#utility.yul\":194:195   */\n      dup1\n        /* \"#utility.yul\":187:199   */\n      revert\n        /* \"#utility.yul\":211:328   */\n    tag_19:\n        /* \"#utility.yul\":320:321   */\n      0x00\n        /* \"#utility.yul\":317:318   */\n      dup1\n        /* \"#utility.yul\":310:322   */\n      revert\n        /* \"#utility.yul\":334:460   */\n    tag_20:\n        /* \"#utility.yul\":371:378   */\n      0x00\n        /* \"#utility.yul\":411:453   */\n      0xffffffffffffffffffffffffffffffffffffffff\n        /* \"#utility.yul\":404:409   */\n      dup3\n        /* \"#utility.yul\":400:454   */\n      and\n        /* \"#utility.yul\":389:454   */\n      swap1\n      pop\n        /* \"#utility.yul\":334:460   */\n      swap2\n      swap1\n      pop\n      jump\t// out\n        /* \"#utility.yul\":466:562   */\n    tag_21:\n        /* \"#utility.yul\":503:510   */\n      0x00\n        /* \"#utility.yul\":532:556   */\n      tag_46\n        /* \"#utility.yul\":550:555   */\n      dup3\n        /* \"#utility.yul\":532:556   */\n      tag_20\n      jump\t// in\n    tag_46:\n        /* \"#utility.yul\":521:556   */\n      swap1\n      pop\n        /* \"#utility.yul\":466:562   */\n      swap2\n      swap1\n      pop\n      jump\t// out\n        /* \"#utility.yul\":568:690   */\n    tag_22:\n        /* \"#utility.yul\":641:665   */\n      tag_48\n        /* \"#utility.yul\":659:664   */\n      dup2\n        /* \"#utility.yul\":641:665   */\n      tag_21\n      jump\t// in\n    tag_48:\n        /* \"#utility.yul\":634:639   */\n      dup2\n        /* \"#utility.yul\":631:666   */\n      eq\n        /* \"#utility.yul\":621:684   */\n      tag_49\n      jumpi\n        /* \"#utility.yul\":680:681   */\n      0x00\n        /* \"#utility.yul\":677:678   */\n      dup1\n        /* \"#utility.yul\":670:682   */\n      revert\n        /* \"#utility.yul\":621:684   */\n    tag_49:\n        /* \"#utility.yul\":568:690   */\n      pop\n      jump\t// out\n        /* \"#utility.yul\":696:835   */\n    tag_23:\n        /* \"#utility.yul\":742:747   */\n      0x00\n        /* \"#utility.yul\":780:786   */\n      dup2\n        /* \"#utility.yul\":767:787   */\n      calldataload\n        /* \"#utility.yul\":758:787   */\n      swap1\n      pop\n        /* \"#utility.yul\":796:829   */\n      tag_51\n        /* \"#utility.yul\":823:828   */\n      dup2\n        /* \"#utility.yul\":796:829   */\n      tag_22\n      jump\t// in\n    tag_51:\n        /* \"#utility.yul\":696:835   */\n      swap3\n      swap2\n      pop\n      pop\n      jump\t// out\n        /* \"#utility.yul\":841:918   */\n    tag_24:\n        /* \"#utility.yul\":878:885   */\n      0x00\n        /* \"#utility.yul\":907:912   */\n      dup2\n        /* \"#utility.yul\":896:912   */\n      swap1\n      pop\n        /* \"#utility.yul\":841:918   */\n      swap2\n      swap1\n      pop\n      jump\t// out\n        /* \"#utility.yul\":924:1046   */\n    tag_25:\n        /* \"#utility.yul\":997:1021   */\n      tag_54\n        /* \"#utility.yul\":1015:1020   */\n      dup2\n        /* \"#utility.yul\":997:1021   */\n      tag_24\n      jump\t// in\n    tag_54:\n        /* \"#utility.yul\":990:995   */\n      dup2\n        /* \"#utility.yul\":987:1022   */\n      eq\n        /* \"#utility.yul\":977:1040   */\n      tag_55\n      jumpi\n        /* \"#utility.yul\":1036:1037   */\n      0x00\n        /* \"#utility.yul\":1033:1034   */\n      dup1\n        /* \"#utility.yul\":1026:1038   */\n      revert\n        /* \"#utility.yul\":977:1040   */\n    tag_55:\n        /* \"#utility.yul\":924:1046   */\n      pop\n      jump\t// out\n        /* \"#utility.yul\":1052:1191   */\n    tag_26:\n        /* \"#utility.yul\":1098:1103   */\n      0x00\n        /* \"#utility.yul\":1136:1142   */\n      dup2\n        /* \"#utility.yul\":1123:1143   */\n      calldataload\n        /* \"#utility.yul\":1114:1143   */\n      swap1\n      pop\n        /* \"#utility.yul\":1152:1185   */\n      tag_57\n        /* \"#utility.yul\":1179:1184   */\n      dup2\n        /* \"#utility.yul\":1152:1185   */\n      tag_25\n      jump\t// in\n    tag_57:\n        /* \"#utility.yul\":1052:1191   */\n      swap3\n      swap2\n      pop\n      pop\n      jump\t// out\n        /* \"#utility.yul\":1197:1314   */\n    tag_27:\n        /* \"#utility.yul\":1306:1307   */\n      0x00\n        /* \"#utility.yul\":1303:1304   */\n      dup1\n        /* \"#utility.yul\":1296:1308   */\n      revert\n        /* \"#utility.yul\":1320:1437   */\n    tag_28:\n        /* \"#utility.yul\":1429:1430   */\n      0x00\n        /* \"#utility.yul\":1426:1427   */\n      dup1\n        /* \"#utility.yul\":1419:1431   */\n      revert\n        /* \"#utility.yul\":1443:1560   */\n    tag_29:\n        /* \"#utility.yul\":1552:1553   */\n      0x00\n        /* \"#utility.yul\":1549:1550   */\n      dup1\n        /* \"#utility.yul\":1542:1554   */\n      revert\n        /* \"#utility.yul\":1579:2131   */\n    tag_30:\n        /* \"#utility.yul\":1636:1644   */\n      0x00\n        /* \"#utility.yul\":1646:1652   */\n      dup1\n        /* \"#utility.yul\":1696:1699   */\n      dup4\n        /* \"#utility.yul\":1689:1693   */\n      0x1f\n        /* \"#utility.yul\":1681:1687   */\n      dup5\n        /* \"#utility.yul\":1677:1694   */\n      add\n        /* \"#utility.yul\":1673:1700   */\n      slt\n        /* \"#utility.yul\":1663:1785   */\n      tag_62\n      jumpi\n        /* \"#utility.yul\":1704:1783   */\n      tag_63\n      tag_27\n      jump\t// in\n    tag_63:\n        /* \"#utility.yul\":1663:1785   */\n    tag_62:\n        /* \"#utility.yul\":1817:1823   */\n      dup3\n        /* \"#utility.yul\":1804:1824   */\n      calldataload\n        /* \"#utility.yul\":1794:1824   */\n      swap1\n      pop\n        /* \"#utility.yul\":1847:1865   */\n      0xffffffffffffffff\n        /* \"#utility.yul\":1839:1845   */\n      dup2\n        /* \"#utility.yul\":1836:1866   */\n      gt\n        /* \"#utility.yul\":1833:1950   */\n      iszero\n      tag_64\n      jumpi\n        /* \"#utility.yul\":1869:1948   */\n      tag_65\n      tag_28\n      jump\t// in\n    tag_65:\n        /* \"#utility.yul\":1833:1950   */\n    tag_64:\n        /* \"#utility.yul\":1983:1987   */\n      0x20\n        /* \"#utility.yul\":1975:1981   */\n      dup4\n        /* \"#utility.yul\":1971:1988   */\n      add\n        /* \"#utility.yul\":1959:1988   */\n      swap2\n      pop\n        /* \"#utility.yul\":2037:2040   */\n      dup4\n        /* \"#utility.yul\":2029:2033   */\n      0x01\n        /* \"#utility.yul\":2021:2027   */\n      dup3\n        /* \"#utility.yul\":2017:2034   */\n      mul\n        /* \"#utility.yul\":2007:2015   */\n      dup4\n        /* \"#utility.yul\":2003:2035   */\n      add\n        /* \"#utility.yul\":2000:2041   */\n      gt\n        /* \"#utility.yul\":1997:2125   */\n      iszero\n      tag_66\n      jumpi\n        /* \"#utility.yul\":2044:2123   */\n      tag_67\n      tag_29\n      jump\t// in\n    tag_67:\n        /* \"#utility.yul\":1997:2125   */\n    tag_66:\n        /* \"#utility.yul\":1579:2131   */\n      swap3\n      pop\n      swap3\n      swap1\n      pop\n      jump\t// out\n        /* \"#utility.yul\":2137:2954   */\n    tag_6:\n        /* \"#utility.yul\":2225:2231   */\n      0x00\n        /* \"#utility.yul\":2233:2239   */\n      dup1\n        /* \"#utility.yul\":2241:2247   */\n      0x00\n        /* \"#utility.yul\":2249:2255   */\n      dup1\n        /* \"#utility.yul\":2298:2300   */\n      0x60\n        /* \"#utility.yul\":2286:2295   */\n      dup6\n        /* \"#utility.yul\":2277:2284   */\n      dup8\n        /* \"#utility.yul\":2273:2296   */\n      sub\n        /* \"#utility.yul\":2269:2301   */\n      slt\n        /* \"#utility.yul\":2266:2385   */\n      iszero\n      tag_69\n      jumpi\n        /* \"#utility.yul\":2304:2383   */\n      tag_70\n      tag_18\n      jump\t// in\n    tag_70:\n        /* \"#utility.yul\":2266:2385   */\n    tag_69:\n        /* \"#utility.yul\":2424:2425   */\n      0x00\n        /* \"#utility.yul\":2449:2502   */\n      tag_71\n        /* \"#utility.yul\":2494:2501   */\n      dup8\n        /* \"#utility.yul\":2485:2491   */\n      dup3\n        /* \"#utility.yul\":2474:2483   */\n      dup9\n        /* \"#utility.yul\":2470:2492   */\n      add\n        /* \"#utility.yul\":2449:2502   */\n      tag_23\n      jump\t// in\n    tag_71:\n        /* \"#utility.yul\":2439:2502   */\n      swap5\n      pop\n        /* \"#utility.yul\":2395:2512   */\n      pop\n        /* \"#utility.yul\":2551:2553   */\n      0x20\n        /* \"#utility.yul\":2577:2630   */\n      tag_72\n        /* \"#utility.yul\":2622:2629   */\n      dup8\n        /* \"#utility.yul\":2613:2619   */\n      dup3\n        /* \"#utility.yul\":2602:2611   */\n      dup9\n        /* \"#utility.yul\":2598:2620   */\n      add\n        /* \"#utility.yul\":2577:2630   */\n      tag_26\n      jump\t// in\n    tag_72:\n        /* \"#utility.yul\":2567:2630   */\n      swap4\n      pop\n        /* \"#utility.yul\":2522:2640   */\n      pop\n        /* \"#utility.yul\":2707:2709   */\n      0x40\n        /* \"#utility.yul\":2696:2705   */\n      dup6\n        /* \"#utility.yul\":2692:2710   */\n      add\n        /* \"#utility.yul\":2679:2711   */\n      calldataload\n        /* \"#utility.yul\":2738:2756   */\n      0xffffffffffffffff\n        /* \"#utility.yul\":2730:2736   */\n      dup2\n        /* \"#utility.yul\":2727:2757   */\n      gt\n        /* \"#utility.yul\":2724:2841   */\n      iszero\n      tag_73\n      jumpi\n        /* \"#utility.yul\":2760:2839   */\n      tag_74\n      tag_19\n      jump\t// in\n    tag_74:\n        /* \"#utility.yul\":2724:2841   */\n    tag_73:\n        /* \"#utility.yul\":2873:2937   */\n      tag_75\n        /* \"#utility.yul\":2929:2936   */\n      dup8\n        /* \"#utility.yul\":2920:2926   */\n      dup3\n        /* \"#utility.yul\":2909:2918   */\n      dup9\n        /* \"#utility.yul\":2905:2927   */\n      add\n        /* \"#utility.yul\":2873:2937   */\n      tag_30\n      jump\t// in\n    tag_75:\n        /* \"#utility.yul\":2855:2937   */\n      swap3\n      pop\n      swap3\n      pop\n        /* \"#utility.yul\":2650:2947   */\n      pop\n        /* \"#utility.yul\":2137:2954   */\n      swap3\n      swap6\n      swap2\n      swap5\n      pop\n      swap3\n      pop\n      jump\t// out\n        /* \"#utility.yul\":2960:3078   */\n    tag_31:\n        /* \"#utility.yul\":3047:3071   */\n      tag_77\n        /* \"#utility.yul\":3065:3070   */\n      dup2\n        /* \"#utility.yul\":3047:3071   */\n      tag_24\n      jump\t// in\n    tag_77:\n        /* \"#utility.yul\":3042:3045   */\n      dup3\n        /* \"#utility.yul\":3035:3072   */\n      mstore\n        /* \"#utility.yul\":2960:3078   */\n      pop\n      pop\n      jump\t// out\n        /* \"#utility.yul\":3084:3252   */\n    tag_32:\n        /* \"#utility.yul\":3167:3178   */\n      0x00\n        /* \"#utility.yul\":3201:3207   */\n      dup3\n        /* \"#utility.yul\":3196:3199   */\n      dup3\n        /* \"#utility.yul\":3189:3208   */\n      mstore\n        /* \"#utility.yul\":3241:3245   */\n      0x20\n        /* \"#utility.yul\":3236:3239   */\n      dup3\n        /* \"#utility.yul\":3232:3246   */\n      add\n        /* \"#utility.yul\":3217:3246   */\n      swap1\n      pop\n        /* \"#utility.yul\":3084:3252   */\n      swap3\n      swap2\n      pop\n      pop\n      jump\t// out\n        /* \"#utility.yul\":3258:3406   */\n    tag_33:\n        /* \"#utility.yul\":3356:3362   */\n      dup3\n        /* \"#utility.yul\":3351:3354   */\n      dup2\n        /* \"#utility.yul\":3346:3349   */\n      dup4\n        /* \"#utility.yul\":3333:3363   */\n      calldatacopy\n        /* \"#utility.yul\":3397:3398   */\n      0x00\n        /* \"#utility.yul\":3388:3394   */\n      dup4\n        /* \"#utility.yul\":3383:3386   */\n      dup4\n        /* \"#utility.yul\":3379:3395   */\n      add\n        /* \"#utility.yul\":3372:3399   */\n      mstore\n        /* \"#utility.yul\":3258:3406   */\n      pop\n      pop\n      pop\n      jump\t// out\n        /* \"#utility.yul\":3412:3514   */\n    tag_34:\n        /* \"#utility.yul\":3453:3459   */\n      0x00\n        /* \"#utility.yul\":3504:3506   */\n      0x1f\n        /* \"#utility.yul\":3500:3507   */\n      not\n        /* \"#utility.yul\":3495:3497   */\n      0x1f\n        /* \"#utility.yul\":3488:3493   */\n      dup4\n        /* \"#utility.yul\":3484:3498   */\n      add\n        /* \"#utility.yul\":3480:3508   */\n      and\n        /* \"#utility.yul\":3470:3508   */\n      swap1\n      pop\n        /* \"#utility.yul\":3412:3514   */\n      swap2\n      swap1\n      pop\n      jump\t// out\n        /* \"#utility.yul\":3542:3856   */\n    tag_35:\n        /* \"#utility.yul\":3638:3641   */\n      0x00\n        /* \"#utility.yul\":3659:3729   */\n      tag_82\n        /* \"#utility.yul\":3722:3728   */\n      dup4\n        /* \"#utility.yul\":3717:3720   */\n      dup6\n        /* \"#utility.yul\":3659:3729   */\n      tag_32\n      jump\t// in\n    tag_82:\n        /* \"#utility.yul\":3652:3729   */\n      swap4\n      pop\n        /* \"#utility.yul\":3739:3795   */\n      tag_83\n        /* \"#utility.yul\":3788:3794   */\n      dup4\n        /* \"#utility.yul\":3783:3786   */\n      dup6\n        /* \"#utility.yul\":3776:3781   */\n      dup5\n        /* \"#utility.yul\":3739:3795   */\n      tag_33\n      jump\t// in\n    tag_83:\n        /* \"#utility.yul\":3820:3849   */\n      tag_84\n        /* \"#utility.yul\":3842:3848   */\n      dup4\n        /* \"#utility.yul\":3820:3849   */\n      tag_34\n      jump\t// in\n    tag_84:\n        /* \"#utility.yul\":3815:3818   */\n      dup5\n        /* \"#utility.yul\":3811:3850   */\n      add\n        /* \"#utility.yul\":3804:3850   */\n      swap1\n      pop\n        /* \"#utility.yul\":3542:3856   */\n      swap4\n      swap3\n      pop\n      pop\n      pop\n      jump\t// out\n        /* \"#utility.yul\":3862:4301   */\n    tag_10:\n        /* \"#utility.yul\":4011:4015   */\n      0x00\n        /* \"#utility.yul\":4049:4051   */\n      0x40\n        /* \"#utility.yul\":4038:4047   */\n      dup3\n        /* \"#utility.yul\":4034:4052   */\n      add\n        /* \"#utility.yul\":4026:4052   */\n      swap1\n      pop\n        /* \"#utility.yul\":4062:4133   */\n      tag_86\n        /* \"#utility.yul\":4130:4131   */\n      0x00\n        /* \"#utility.yul\":4119:4128   */\n      dup4\n        /* \"#utility.yul\":4115:4132   */\n      add\n        /* \"#utility.yul\":4106:4112   */\n      dup7\n        /* \"#utility.yul\":4062:4133   */\n      tag_31\n      jump\t// in\n    tag_86:\n        /* \"#utility.yul\":4180:4189   */\n      dup2\n        /* \"#utility.yul\":4174:4178   */\n      dup2\n        /* \"#utility.yul\":4170:4190   */\n      sub\n        /* \"#utility.yul\":4165:4167   */\n      0x20\n        /* \"#utility.yul\":4154:4163   */\n      dup4\n        /* \"#utility.yul\":4150:4168   */\n      add\n        /* \"#utility.yul\":4143:4191   */\n      mstore\n        /* \"#utility.yul\":4208:4294   */\n      tag_87\n        /* \"#utility.yul\":4289:4293   */\n      dup2\n        /* \"#utility.yul\":4280:4286   */\n      dup5\n        /* \"#utility.yul\":4272:4278   */\n      dup7\n        /* \"#utility.yul\":4208:4294   */\n      tag_35\n      jump\t// in\n    tag_87:\n        /* \"#utility.yul\":4200:4294   */\n      swap1\n      pop\n        /* \"#utility.yul\":3862:4301   */\n      swap5\n      swap4\n      pop\n      pop\n      pop\n      pop\n      jump\t// out\n        /* \"#utility.yul\":4307:4405   */\n    tag_36:\n        /* \"#utility.yul\":4358:4364   */\n      0x00\n        /* \"#utility.yul\":4392:4397   */\n      dup2\n        /* \"#utility.yul\":4386:4398   */\n      mload\n        /* \"#utility.yul\":4376:4398   */\n      swap1\n      pop\n        /* \"#utility.yul\":4307:4405   */\n      swap2\n      swap1\n      pop\n      jump\t// out\n        /* \"#utility.yul\":4411:4558   */\n    tag_37:\n        /* \"#utility.yul\":4512:4523   */\n      0x00\n        /* \"#utility.yul\":4549:4552   */\n      dup2\n        /* \"#utility.yul\":4534:4552   */\n      swap1\n      pop\n        /* \"#utility.yul\":4411:4558   */\n      swap3\n      swap2\n      pop\n      pop\n      jump\t// out\n        /* \"#utility.yul\":4564:4703   */\n    tag_38:\n        /* \"#utility.yul\":4653:4659   */\n      dup3\n        /* \"#utility.yul\":4648:4651   */\n      dup2\n        /* \"#utility.yul\":4643:4646   */\n      dup4\n        /* \"#utility.yul\":4637:4660   */\n      mcopy\n        /* \"#utility.yul\":4694:4695   */\n      0x00\n        /* \"#utility.yul\":4685:4691   */\n      dup4\n        /* \"#utility.yul\":4680:4683   */\n      dup4\n        /* \"#utility.yul\":4676:4692   */\n      add\n        /* \"#utility.yul\":4669:4696   */\n      mstore\n        /* \"#utility.yul\":4564:4703   */\n      pop\n      pop\n      pop\n      jump\t// out\n        /* \"#utility.yul\":4709:5095   */\n    tag_39:\n        /* \"#utility.yul\":4813:4816   */\n      0x00\n        /* \"#utility.yul\":4841:4879   */\n      tag_92\n        /* \"#utility.yul\":4873:4878   */\n      dup3\n        /* \"#utility.yul\":4841:4879   */\n      tag_36\n      jump\t// in\n    tag_92:\n        /* \"#utility.yul\":4895:4983   */\n      tag_93\n        /* \"#utility.yul\":4976:4982   */\n      dup2\n        /* \"#utility.yul\":4971:4974   */\n      dup6\n        /* \"#utility.yul\":4895:4983   */\n      tag_37\n      jump\t// in\n    tag_93:\n        /* \"#utility.yul\":4888:4983   */\n      swap4\n      pop\n        /* \"#utility.yul\":4992:5057   */\n      tag_94\n        /* \"#utility.yul\":5050:5056   */\n      dup2\n        /* \"#utility.yul\":5045:5048   */\n      dup6\n        /* \"#utility.yul\":5038:5042   */\n      0x20\n        /* \"#utility.yul\":5031:5036   */\n      dup7\n        /* \"#utility.yul\":5027:5043   */\n      add\n        /* \"#utility.yul\":4992:5057   */\n      tag_38\n      jump\t// in\n    tag_94:\n        /* \"#utility.yul\":5082:5088   */\n      dup1\n        /* \"#utility.yul\":5077:5080   */\n      dup5\n        /* \"#utility.yul\":5073:5089   */\n      add\n        /* \"#utility.yul\":5066:5089   */\n      swap2\n      pop\n        /* \"#utility.yul\":4817:5095   */\n      pop\n        /* \"#utility.yul\":4709:5095   */\n      swap3\n      swap2\n      pop\n      pop\n      jump\t// out\n        /* \"#utility.yul\":5101:5372   */\n    tag_12:\n        /* \"#utility.yul\":5231:5234   */\n      0x00\n        /* \"#utility.yul\":5253:5346   */\n      tag_96\n        /* \"#utility.yul\":5342:5345   */\n      dup3\n        /* \"#utility.yul\":5333:5339   */\n      dup5\n        /* \"#utility.yul\":5253:5346   */\n      tag_39\n      jump\t// in\n    tag_96:\n        /* \"#utility.yul\":5246:5346   */\n      swap2\n      pop\n        /* \"#utility.yul\":5363:5366   */\n      dup2\n        /* \"#utility.yul\":5356:5366   */\n      swap1\n      pop\n        /* \"#utility.yul\":5101:5372   */\n      swap3\n      swap2\n      pop\n      pop\n      jump\t// out\n\n    auxdata: 0xa2646970667358221220db7722c96233a87c8c65d2ddeb179e2b91c92b77ea4346a5171ac42963df8a7364736f6c634300081a0033\n}\n",
				"bytecode": {
					"linkReferences": {},
					"object": "6080604052348015600e575f80fd5b506103f08061001c5f395ff3fe608060405234801561000f575f80fd5b5060043610610029575f3560e01c806393e241481461002d575b5f80fd5b61004760048036038101906100429190610248565b610049565b005b5f8473ffffffffffffffffffffffffffffffffffffffff1684848460405160240161007693929190610322565b6040516020818303038152906040527f458fe729000000000000000000000000000000000000000000000000000000007bffffffffffffffffffffffffffffffffffffffffffffffffffffffff19166020820180517bffffffffffffffffffffffffffffffffffffffffffffffffffffffff838183161783525050505060405161010091906103a4565b5f604051808303815f865af19150503d805f8114610139576040519150601f19603f3d011682016040523d82523d5f602084013e61013e565b606091505b505090508061014b575f80fd5b5050505050565b5f80fd5b5f80fd5b5f73ffffffffffffffffffffffffffffffffffffffff82169050919050565b5f6101838261015a565b9050919050565b61019381610179565b811461019d575f80fd5b50565b5f813590506101ae8161018a565b92915050565b5f819050919050565b6101c6816101b4565b81146101d0575f80fd5b50565b5f813590506101e1816101bd565b92915050565b5f80fd5b5f80fd5b5f80fd5b5f8083601f840112610208576102076101e7565b5b8235905067ffffffffffffffff811115610225576102246101eb565b5b602083019150836001820283011115610241576102406101ef565b5b9250929050565b5f805f80606085870312156102605761025f610152565b5b5f61026d878288016101a0565b945050602061027e878288016101d3565b935050604085013567ffffffffffffffff81111561029f5761029e610156565b5b6102ab878288016101f3565b925092505092959194509250565b6102c2816101b4565b82525050565b5f82825260208201905092915050565b828183375f83830152505050565b5f601f19601f8301169050919050565b5f61030183856102c8565b935061030e8385846102d8565b610317836102e6565b840190509392505050565b5f6040820190506103355f8301866102b9565b81810360208301526103488184866102f6565b9050949350505050565b5f81519050919050565b5f81905092915050565b8281835e5f83830152505050565b5f61037e82610352565b610388818561035c565b9350610398818560208601610366565b80840191505092915050565b5f6103af8284610374565b91508190509291505056fea2646970667358221220db7722c96233a87c8c65d2ddeb179e2b91c92b77ea4346a5171ac42963df8a7364736f6c634300081a0033",
					"opcodes": "PUSH1 0x80 PUSH1 0x40 MSTORE CALLVALUE DUP1 ISZERO PUSH1 0xE JUMPI PUSH0 DUP1 REVERT JUMPDEST POP PUSH2 0x3F0 DUP1 PUSH2 0x1C PUSH0 CODECOPY PUSH0 RETURN INVALID PUSH1 0x80 PUSH1 0x40 MSTORE CALLVALUE DUP1 ISZERO PUSH2 0xF JUMPI PUSH0 DUP1 REVERT JUMPDEST POP PUSH1 0x4 CALLDATASIZE LT PUSH2 0x29 JUMPI PUSH0 CALLDATALOAD PUSH1 0xE0 SHR DUP1 PUSH4 0x93E24148 EQ PUSH2 0x2D JUMPI JUMPDEST PUSH0 DUP1 REVERT JUMPDEST PUSH2 0x47 PUSH1 0x4 DUP1 CALLDATASIZE SUB DUP2 ADD SWAP1 PUSH2 0x42 SWAP2 SWAP1 PUSH2 0x248 JUMP JUMPDEST PUSH2 0x49 JUMP JUMPDEST STOP JUMPDEST PUSH0 DUP5 PUSH20 0xFFFFFFFFFFFFFFFFFFFFFFFFFFFFFFFFFFFFFFFF AND DUP5 DUP5 DUP5 PUSH1 0x40 MLOAD PUSH1 0x24 ADD PUSH2 0x76 SWAP4 SWAP3 SWAP2 SWAP1 PUSH2 0x322 JUMP JUMPDEST PUSH1 0x40 MLOAD PUSH1 0x20 DUP2 DUP4 SUB SUB DUP2 MSTORE SWAP1 PUSH1 0x40 MSTORE PUSH32 0x458FE72900000000000000000000000000000000000000000000000000000000 PUSH28 0xFFFFFFFFFFFFFFFFFFFFFFFFFFFFFFFFFFFFFFFFFFFFFFFFFFFFFFFF NOT AND PUSH1 0x20 DUP3 ADD DUP1 MLOAD PUSH28 0xFFFFFFFFFFFFFFFFFFFFFFFFFFFFFFFFFFFFFFFFFFFFFFFFFFFFFFFF DUP4 DUP2 DUP4 AND OR DUP4 MSTORE POP POP POP POP PUSH1 0x40 MLOAD PUSH2 0x100 SWAP2 SWAP1 PUSH2 0x3A4 JUMP JUMPDEST PUSH0 PUSH1 0x40 MLOAD DUP1 DUP4 SUB DUP2 PUSH0 DUP7 GAS CALL SWAP2 POP POP RETURNDATASIZE DUP1 PUSH0 DUP2 EQ PUSH2 0x139 JUMPI PUSH1 0x40 MLOAD SWAP2 POP PUSH1 0x1F NOT PUSH1 0x3F RETURNDATASIZE ADD AND DUP3 ADD PUSH1 0x40 MSTORE RETURNDATASIZE DUP3 MSTORE RETURNDATASIZE PUSH0 PUSH1 0x20 DUP5 ADD RETURNDATACOPY PUSH2 0x13E JUMP JUMPDEST PUSH1 0x60 SWAP2 POP JUMPDEST POP POP SWAP1 POP DUP1 PUSH2 0x14B JUMPI PUSH0 DUP1 REVERT JUMPDEST POP POP POP POP POP JUMP JUMPDEST PUSH0 DUP1 REVERT JUMPDEST PUSH0 DUP1 REVERT JUMPDEST PUSH0 PUSH20 0xFFFFFFFFFFFFFFFFFFFFFFFFFFFFFFFFFFFFFFFF DUP3 AND SWAP1 POP SWAP2 SWAP1 POP JUMP JUMPDEST PUSH0 PUSH2 0x183 DUP3 PUSH2 0x15A JUMP JUMPDEST SWAP1 POP SWAP2 SWAP1 POP JUMP JUMPDEST PUSH2 0x193 DUP2 PUSH2 0x179 JUMP JUMPDEST DUP2 EQ PUSH2 0x19D JUMPI PUSH0 DUP1 REVERT JUMPDEST POP JUMP JUMPDEST PUSH0 DUP2 CALLDATALOAD SWAP1 POP PUSH2 0x1AE DUP2 PUSH2 0x18A JUMP JUMPDEST SWAP3 SWAP2 POP POP JUMP JUMPDEST PUSH0 DUP2 SWAP1 POP SWAP2 SWAP1 POP JUMP JUMPDEST PUSH2 0x1C6 DUP2 PUSH2 0x1B4 JUMP JUMPDEST DUP2 EQ PUSH2 0x1D0 JUMPI PUSH0 DUP1 REVERT JUMPDEST POP JUMP JUMPDEST PUSH0 DUP2 CALLDATALOAD SWAP1 POP PUSH2 0x1E1 DUP2 PUSH2 0x1BD JUMP JUMPDEST SWAP3 SWAP2 POP POP JUMP JUMPDEST PUSH0 DUP1 REVERT JUMPDEST PUSH0 DUP1 REVERT JUMPDEST PUSH0 DUP1 REVERT JUMPDEST PUSH0 DUP1 DUP4 PUSH1 0x1F DUP5 ADD SLT PUSH2 0x208 JUMPI PUSH2 0x207 PUSH2 0x1E7 JUMP JUMPDEST JUMPDEST DUP3 CALLDATALOAD SWAP1 POP PUSH8 0xFFFFFFFFFFFFFFFF DUP2 GT ISZERO PUSH2 0x225 JUMPI PUSH2 0x224 PUSH2 0x1EB JUMP JUMPDEST JUMPDEST PUSH1 0x20 DUP4 ADD SWAP2 POP DUP4 PUSH1 0x1 DUP3 MUL DUP4 ADD GT ISZERO PUSH2 0x241 JUMPI PUSH2 0x240 PUSH2 0x1EF JUMP JUMPDEST JUMPDEST SWAP3 POP SWAP3 SWAP1 POP JUMP JUMPDEST PUSH0 DUP1 PUSH0 DUP1 PUSH1 0x60 DUP6 DUP8 SUB SLT ISZERO PUSH2 0x260 JUMPI PUSH2 0x25F PUSH2 0x152 JUMP JUMPDEST JUMPDEST PUSH0 PUSH2 0x26D DUP8 DUP3 DUP9 ADD PUSH2 0x1A0 JUMP JUMPDEST SWAP5 POP POP PUSH1 0x20 PUSH2 0x27E DUP8 DUP3 DUP9 ADD PUSH2 0x1D3 JUMP JUMPDEST SWAP4 POP POP PUSH1 0x40 DUP6 ADD CALLDATALOAD PUSH8 0xFFFFFFFFFFFFFFFF DUP2 GT ISZERO PUSH2 0x29F JUMPI PUSH2 0x29E PUSH2 0x156 JUMP JUMPDEST JUMPDEST PUSH2 0x2AB DUP8 DUP3 DUP9 ADD PUSH2 0x1F3 JUMP JUMPDEST SWAP3 POP SWAP3 POP POP SWAP3 SWAP6 SWAP2 SWAP5 POP SWAP3 POP JUMP JUMPDEST PUSH2 0x2C2 DUP2 PUSH2 0x1B4 JUMP JUMPDEST DUP3 MSTORE POP POP JUMP JUMPDEST PUSH0 DUP3 DUP3 MSTORE PUSH1 0x20 DUP3 ADD SWAP1 POP SWAP3 SWAP2 POP POP JUMP JUMPDEST DUP3 DUP2 DUP4 CALLDATACOPY PUSH0 DUP4 DUP4 ADD MSTORE POP POP POP JUMP JUMPDEST PUSH0 PUSH1 0x1F NOT PUSH1 0x1F DUP4 ADD AND SWAP1 POP SWAP2 SWAP1 POP JUMP JUMPDEST PUSH0 PUSH2 0x301 DUP4 DUP6 PUSH2 0x2C8 JUMP JUMPDEST SWAP4 POP PUSH2 0x30E DUP4 DUP6 DUP5 PUSH2 0x2D8 JUMP JUMPDEST PUSH2 0x317 DUP4 PUSH2 0x2E6 JUMP JUMPDEST DUP5 ADD SWAP1 POP SWAP4 SWAP3 POP POP POP JUMP JUMPDEST PUSH0 PUSH1 0x40 DUP3 ADD SWAP1 POP PUSH2 0x335 PUSH0 DUP4 ADD DUP7 PUSH2 0x2B9 JUMP JUMPDEST DUP2 DUP2 SUB PUSH1 0x20 DUP4 ADD MSTORE PUSH2 0x348 DUP2 DUP5 DUP7 PUSH2 0x2F6 JUMP JUMPDEST SWAP1 POP SWAP5 SWAP4 POP POP POP POP JUMP JUMPDEST PUSH0 DUP2 MLOAD SWAP1 POP SWAP2 SWAP1 POP JUMP JUMPDEST PUSH0 DUP2 SWAP1 POP SWAP3 SWAP2 POP POP JUMP JUMPDEST DUP3 DUP2 DUP4 MCOPY PUSH0 DUP4 DUP4 ADD MSTORE POP POP POP JUMP JUMPDEST PUSH0 PUSH2 0x37E DUP3 PUSH2 0x352 JUMP JUMPDEST PUSH2 0x388 DUP2 DUP6 PUSH2 0x35C JUMP JUMPDEST SWAP4 POP PUSH2 0x398 DUP2 DUP6 PUSH1 0x20 DUP7 ADD PUSH2 0x366 JUMP JUMPDEST DUP1 DUP5 ADD SWAP2 POP POP SWAP3 SWAP2 POP POP JUMP JUMPDEST PUSH0 PUSH2 0x3AF DUP3 DUP5 PUSH2 0x374 JUMP JUMPDEST SWAP2 POP DUP2 SWAP1 POP SWAP3 SWAP2 POP POP JUMP INVALID LOG2 PUSH5 0x6970667358 0x22 SLT KECCAK256 0xDB PUSH24 0x22C96233A87C8C65D2DDEB179E2B91C92B77EA4346A5171A 0xC4 0x29 PUSH4 0xDF8A7364 PUSH20 0x6F6C634300081A00330000000000000000000000 "
				},
				"gasEstimates": {
					"creation": {
						"codeDepositCost": "201600",
						"executionCost": "243",
						"totalCost": "201843"
					},
					"external": {
						"relay(address,bytes32,bytes)": "infinite"
					}
				},
				"methodIdentifiers": {
					"relay(address,bytes32,bytes)": "93e24148"
				}
			},
			"storageLayout": {
				"storage": [],
				"types": null
			},
			"userdoc": {
				"kind": "user",
				"methods": {},
				"version": 1
			}
		}
	}
}