{
	"data": {
		"bytecode": {
			"linkReferences": {},
			"object": "6080604052348015600e575f80fd5b506104288061001c5f395ff3fe608060405234801561000f575f80fd5b5060043610610029575f3560e01c8063df2d7cac1461002d575b5f80fd5b610047600480360381019061004291906101cd565b610049565b005b5f838360405161005a92919061027a565b60405180910390205f1c90508163ffffffff168163ffffffff16146100ab576040517fa95bb13100000000000000000000000000000000000000000000000000000000815260040160405180910390fd5b3373ffffffffffffffffffffffffffffffffffffffff167fa0660d5ca15ffa376da284c02b0792c6e71d1fa20dbe0039b26e6d1a1935d8d4868686855f6040516100f99594939291906103a6565b60405180910390a25050505050565b5f80fd5b5f80fd5b6003811061011c575f80fd5b50565b5f8135905061012d81610110565b92915050565b5f80fd5b5f80fd5b5f80fd5b5f8083601f84011261015457610153610133565b5b8235905067ffffffffffffffff81111561017157610170610137565b5b60208301915083600182028301111561018d5761018c61013b565b5b9250929050565b5f63ffffffff82169050919050565b6101ac81610194565b81146101b6575f80fd5b50565b5f813590506101c7816101a3565b92915050565b5f805f80606085870312156101e5576101e4610108565b5b5f6101f28782880161011f565b945050602085013567ffffffffffffffff8111156102135761021261010c565b5b61021f8782880161013f565b93509350506040610232878288016101b9565b91505092959194509250565b5f81905092915050565b828183375f83830152505050565b5f610261838561023e565b935061026e838584610248565b82840190509392505050565b5f610286828486610256565b91508190509392505050565b7f4e487b71000000000000000000000000000000000000000000000000000000005f52602160045260245ffd5b600381106102d0576102cf610292565b5b50565b5f8190506102e0826102bf565b919050565b5f6102ef826102d3565b9050919050565b6102ff816102e5565b82525050565b5f82825260208201905092915050565b5f601f19601f8301169050919050565b5f6103308385610305565b935061033d838584610248565b61034683610315565b840190509392505050565b61035a81610194565b82525050565b6004811061037157610370610292565b5b50565b5f81905061038182610360565b919050565b5f61039082610374565b9050919050565b6103a081610386565b82525050565b5f6080820190506103b95f8301886102f6565b81810360208301526103cc818688610325565b90506103db6040830185610351565b6103e86060830184610397565b969550505050505056fea2646970667358221220b99f9c3bf25498776a028565665c337a5799e941062b239aeaef6ef2a72f8b2b64736f6c634300081a0033",
			"opcodes": "PUSH1 0x80 PUSH1 0x40 MSTORE CALLVALUE DUP1 ISZERO PUSH1 0xE JUMPI PUSH0 DUP1 REVERT JUMPDEST POP PUSH2 0x428 DUP1 PUSH2 0x1C PUSH0 CODECOPY PUSH0 RETURN INVALID PUSH1 0x80 PUSH1 0x40 MSTORE CALLVALUE DUP1 ISZERO PUSH2 0xF JUMPI PUSH0 DUP1 REVERT JUMPDEST POP PUSH1 0x4 CALLDATASIZE LT PUSH2 0x29 JUMPI PUSH0 CALLDATALOAD PUSH1 0xE0 SHR DUP1 PUSH4 0xDF2D7CAC EQ PUSH2 0x2D JUMPI JUMPDEST PUSH0 DUP1 REVERT JUMPDEST PUSH2 0x47 PUSH1 0x4 DUP1 CALLDATASIZE SUB DUP2 ADD SWAP1 PUSH2 0x42 SWAP2 SWAP1 PUSH2 0x1CD JUMP JUMPDEST PUSH2 0x49 JUMP JUMPDEST STOP JUMPDEST PUSH0 DUP4 DUP4 PUSH1 0x40 MLOAD PUSH2 0x5A SWAP3 SWAP2 SWAP1 PUSH2 0x27A JUMP JUMPDEST PUSH1 0x40 MLOAD DUP1 SWAP2 SUB SWAP1 KECCAK256 PUSH0 SHR SWAP1 POP DUP2 PUSH4 0xFFFFFFFF AND DUP2 PUSH4 0xFFFFFFFF AND EQ PUSH2 0xAB JUMPI PUSH1 0x40 MLOAD PUSH32 0xA95BB13100000000000000000000000000000000000000000000000000000000 DUP2 MSTORE PUSH1 0x4 ADD PUSH1 0x40 MLOAD DUP1 SWAP2 SUB SWAP1 REVERT JUMPDEST CALLER PUSH20 0xFFFFFFFFFFFFFFFFFFFFFFFFFFFFFFFFFFFFFFFF AND PUSH32 0xA0660D5CA15FFA376DA284C02B0792C6E71D1FA20DBE0039B26E6D1A1935D8D4 DUP7 DUP7 DUP7 DUP6 PUSH0 PUSH1 0x40 MLOAD PUSH2 0xF9 SWAP6 SWAP5 SWAP4 SWAP3 SWAP2 SWAP1 PUSH2 0x3A6 JUMP JUMPDEST PUSH1 0x40 MLOAD DUP1 SWAP2 SUB SWAP1 LOG2 POP POP POP POP POP JUMP JUMPDEST PUSH0 DUP1 REVERT JUMPDEST PUSH0 DUP1 REVERT JUMPDEST PUSH1 0x3 DUP2 LT PUSH2 0x11C JUMPI PUSH0 DUP1 REVERT JUMPDEST POP JUMP JUMPDEST PUSH0 DUP2 CALLDATALOAD SWAP1 POP PUSH2 0x12D DUP2 PUSH2 0x110 JUMP JUMPDEST SWAP3 SWAP2 POP POP JUMP JUMPDEST PUSH0 DUP1 REVERT JUMPDEST PUSH0 DUP1 REVERT JUMPDEST PUSH0 DUP1 REVERT JUMPDEST PUSH0 DUP1 DUP4 PUSH1 0x1F DUP5 ADD SLT PUSH2 0x154 JUMPI PUSH2 0x153 PUSH2 0x133 JUMP JUMPDEST JUMPDEST DUP3 CALLDATALOAD SWAP1 POP PUSH8 0xFFFFFFFFFFFFFFFF DUP2 GT ISZERO PUSH2 0x171 JUMPI PUSH2 0x170 PUSH2 0x137 JUMP JUMPDEST JUMPDEST PUSH1 0x20 DUP4 ADD SWAP2 POP DUP4 PUSH1 0x1 DUP3 MUL DUP4 ADD GT ISZERO PUSH2 0x18D JUMPI PUSH2 0x18C PUSH2 0x13B JUMP JUMPDEST JUMPDEST SWAP3 POP SWAP3 SWAP1 POP JUMP JUMPDEST PUSH0 PUSH4 0xFFFFFFFF DUP3 AND SWAP1 POP SWAP2 SWAP1 POP JUMP JUMPDEST PUSH2 0x1AC DUP2 PUSH2 0x194 JUMP JUMPDEST DUP2 EQ PUSH2 0x1B6 JUMPI PUSH0 DUP1 REVERT JUMPDEST POP JUMP JUMPDEST PUSH0 DUP2 CALLDATALOAD SWAP1 POP PUSH2 0x1C7 DUP2 PUSH2 0x1A3 JUMP JUMPDEST SWAP3 SWAP2 POP POP JUMP JUMPDEST PUSH0 DUP1 PUSH0 DUP1 PUSH1 0x60 DUP6 DUP8 SUB SLT ISZERO PUSH2 0x1E5 JUMPI PUSH2 0x1E4 PUSH2 0x108 JUMP JUMPDEST JUMPDEST PUSH0 PUSH2 0x1F2 DUP8 DUP3 DUP9 ADD PUSH2 0x11F JUMP JUMPDEST SWAP5 POP POP PUSH1 0x20 DUP6 ADD CALLDATALOAD PUSH8 0xFFFFFFFFFFFFFFFF DUP2 GT ISZERO PUSH2 0x213 JUMPI PUSH2 0x212 PUSH2 0x10C JUMP JUMPDEST JUMPDEST PUSH2 0x21F DUP8 DUP3 DUP9 ADD PUSH2 0x13F JUMP JUMPDEST SWAP4 POP SWAP4 POP POP PUSH1 0x40 PUSH2 0x232 DUP8 DUP3 DUP9 ADD PUSH2 0x1B9 JUMP JUMPDEST SWAP2 POP POP SWAP3 SWAP6 SWAP2 SWAP5 POP SWAP3 POP JUMP JUMPDEST PUSH0 DUP2 SWAP1 POP SWAP3 SWAP2 POP POP JUMP JUMPDEST DUP3 DUP2 DUP4 CALLDATACOPY PUSH0 DUP4 DUP4 ADD MSTORE POP POP POP JUMP JUMPDEST PUSH0 PUSH2 0x261 DUP4 DUP6 PUSH2 0x23E JUMP JUMPDEST SWAP4 POP PUSH2 0x26E DUP4 DUP6 DUP5 PUSH2 0x248 JUMP JUMPDEST DUP3 DUP5 ADD SWAP1 POP SWAP4 SWAP3 POP POP POP JUMP JUMPDEST PUSH0 PUSH2 0x286 DUP3 DUP5 DUP7 PUSH2 0x256 JUMP JUMPDEST SWAP2 POP DUP2 SWAP1 POP SWAP4 SWAP3 POP POP POP JUMP JUMPDEST PUSH32 0x4E487B7100000000000000000000000000000000000000000000000000000000 PUSH0 MSTORE PUSH1 0x21 PUSH1 0x4 MSTORE PUSH1 0x24 PUSH0 REVERT JUMPDEST PUSH1 0x3 DUP2 LT PUSH2 0x2D0 JUMPI PUSH2 0x2CF PUSH2 0x292 JUMP JUMPDEST JUMPDEST POP JUMP JUMPDEST PUSH0 DUP2 SWAP1 POP PUSH2 0x2E0 DUP3 PUSH2 0x2BF JUMP JUMPDEST SWAP2 SWAP1 POP JUMP JUMPDEST PUSH0 PUSH2 0x2EF DUP3 PUSH2 0x2D3 JUMP JUMPDEST SWAP1 POP SWAP2 SWAP1 POP JUMP JUMPDEST PUSH2 0x2FF DUP2 PUSH2 0x2E5 JUMP JUMPDEST DUP3 MSTORE POP POP JUMP JUMPDEST PUSH0 DUP3 DUP3 MSTORE PUSH1 0x20 DUP3 ADD SWAP1 POP SWAP3 SWAP2 POP POP JUMP JUMPDEST PUSH0 PUSH1 0x1F NOT PUSH1 0x1F DUP4 ADD AND SWAP1 POP SWAP2 SWAP1 POP JUMP JUMPDEST PUSH0 PUSH2 0x330 DUP4 DUP6 PUSH2 0x305 JUMP JUMPDEST SWAP4 POP PUSH2 0x33D DUP4 DUP6 DUP5 PUSH2 0x248 JUMP JUMPDEST PUSH2 0x346 DUP4 PUSH2 0x315 JUMP JUMPDEST DUP5 ADD SWAP1 POP SWAP4 SWAP3 POP POP POP JUMP JUMPDEST PUSH2 0x35A DUP2 PUSH2 0x194 JUMP JUMPDEST DUP3 MSTORE POP POP JUMP JUMPDEST PUSH1 0x4 DUP2 LT PUSH2 0x371 JUMPI PUSH2 0x370 PUSH2 0x292 JUMP JUMPDEST JUMPDEST POP JUMP JUMPDEST PUSH0 DUP2 SWAP1 POP PUSH2 0x381 DUP3 PUSH2 0x360 JUMP JUMPDEST SWAP2 SWAP1 POP JUMP JUMPDEST PUSH0 PUSH2 0x390 DUP3 PUSH2 0x374 JUMP JUMPDEST SWAP1 POP SWAP2 SWAP1 POP JUMP JUMPDEST PUSH2 0x3A0 DUP2 PUSH2 0x386 JUMP JUMPDEST DUP3 MSTORE POP POP JUMP JUMPDEST PUSH0 PUSH1 0x80 DUP3 ADD SWAP1 POP PUSH2 0x3B9 PUSH0 DUP4 ADD DUP9 PUSH2 0x2F6 JUMP JUMPDEST DUP2 DUP2 SUB PUSH1 0x20 DUP4 ADD MSTORE PUSH2 0x3CC DUP2 DUP7 DUP9 PUSH2 0x325 JUMP JUMPDEST SWAP1 POP PUSH2 0x3DB PUSH1 0x40 DUP4 ADD DUP6 PUSH2 0x351 JUMP JUMPDEST PUSH2 0x3E8 PUSH1 0x60 DUP4 ADD DUP5 PUSH2 0x397 JUMP JUMPDEST SWAP7 SWAP6 POP POP POP POP POP POP JUMP INVALID LOG2 PUSH5 0x6970667358 0x22 SLT KECCAK256 0xB9 SWAP16 SWAP13 EXTCODESIZE CALLCODE SLOAD SWAP9 PUSH24 0x6A028565665C337A5799E941062B239AEAEF6EF2A72F8B2B PUSH5 0x736F6C6343 STOP ADDMOD BYTE STOP CALLER "
		},
		"gasEstimates": {
			"creation": {
				"codeDepositCost": "212800",
				"executionCost": "255",
				"totalCost": "213055"
			},
			"external": {
				"computeAndCheck(uint8,bytes,uint32)": "infinite"
			}
		},
		"methodIdentifiers": {
			"computeAndCheck(uint8,bytes,uint32)": "df2d7cac"
		}
	},
	"abi": [
		{
			"inputs": [],
			"name": "CRC__BadChecksum",
			"type": "error"
		},
		{
			"anonymous": false,
			"inputs": [
				{
					"indexed": true,
					"internalType": "address",
					"name": "who",
					"type": "address"
				},
				{
					"indexed": false,
					"internalType": "enum CRCType",
					"name": "kind",
					"type": "uint8"
				},
				{
					"indexed": false,
					"internalType": "bytes",
					"name": "data",
					"type": "bytes"
				},
				{
					"indexed": false,
					"internalType": "uint32",
					"name": "crc",
					"type": "uint32"
				},
				{
					"indexed": false,
					"internalType": "enum CRCDefenseType",
					"name": "defense",
					"type": "uint8"
				}
			],
			"name": "Checked",
			"type": "event"
		},
		{
			"inputs": [
				{
					"internalType": "enum CRCType",
					"name": "kind",
					"type": "uint8"
				},
				{
					"internalType": "bytes",
					"name": "data",
					"type": "bytes"
				},
				{
					"internalType": "uint32",
					"name": "expected",
					"type": "uint32"
				}
			],
			"name": "computeAndCheck",
			"outputs": [],
			"stateMutability": "nonpayable",
			"type": "function"
		}
	]
}