{
	"data": {
		"bytecode": {
			"linkReferences": {},
			"object": "6080604052348015600e575f80fd5b506106468061001c5f395ff3fe608060405234801561000f575f80fd5b506004361061003f575f3560e01c80630f560cd7146100435780636fb2d15c14610061578063f9454f3f14610094575b5f80fd5b61004b6100b0565b6040516100589190610478565b60405180910390f35b61007b600480360381019061007691906104c6565b61018d565b60405161008b949392919061051e565b60405180910390f35b6100ae60048036038101906100a9919061058b565b6101f2565b005b60605f805480602002602001604051908101604052809291908181526020015f905b82821015610184578382905f5260205f2090600402016040518060800160405290815f82015f9054906101000a900473ffffffffffffffffffffffffffffffffffffffff1673ffffffffffffffffffffffffffffffffffffffff1673ffffffffffffffffffffffffffffffffffffffff1681526020016001820154815260200160028201548152602001600382015f9054906101000a900460ff161515151581525050815260200190600101906100d2565b50505050905090565b5f818154811061019b575f80fd5b905f5260205f2090600402015f91509050805f015f9054906101000a900473ffffffffffffffffffffffffffffffffffffffff1690806001015490806002015490806003015f9054906101000a900460ff16905084565b5f60405180608001604052808573ffffffffffffffffffffffffffffffffffffffff16815260200183815260200184815260200160011515815250908060018154018082558091505060019003905f5260205f2090600402015f909190919091505f820151815f015f6101000a81548173ffffffffffffffffffffffffffffffffffffffff021916908373ffffffffffffffffffffffffffffffffffffffff16021790555060208201518160010155604082015181600201556060820151816003015f6101000a81548160ff02191690831515021790555050507fe111259b232a1aada0555d0a2984a438d71d0a9511bcf90316c8a316123a9d538383836040516102ff939291906105db565b60405180910390a1505050565b5f81519050919050565b5f82825260208201905092915050565b5f819050602082019050919050565b5f73ffffffffffffffffffffffffffffffffffffffff82169050919050565b5f61035e82610335565b9050919050565b61036e81610354565b82525050565b5f819050919050565b61038681610374565b82525050565b5f8115159050919050565b6103a08161038c565b82525050565b608082015f8201516103ba5f850182610365565b5060208201516103cd602085018261037d565b5060408201516103e0604085018261037d565b5060608201516103f36060850182610397565b50505050565b5f61040483836103a6565b60808301905092915050565b5f602082019050919050565b5f6104268261030c565b6104308185610316565b935061043b83610326565b805f5b8381101561046b57815161045288826103f9565b975061045d83610410565b92505060018101905061043e565b5085935050505092915050565b5f6020820190508181035f830152610490818461041c565b905092915050565b5f80fd5b6104a581610374565b81146104af575f80fd5b50565b5f813590506104c08161049c565b92915050565b5f602082840312156104db576104da610498565b5b5f6104e8848285016104b2565b91505092915050565b6104fa81610354565b82525050565b61050981610374565b82525050565b6105188161038c565b82525050565b5f6080820190506105315f8301876104f1565b61053e6020830186610500565b61054b6040830185610500565b610558606083018461050f565b95945050505050565b61056a81610354565b8114610574575f80fd5b50565b5f8135905061058581610561565b92915050565b5f805f606084860312156105a2576105a1610498565b5b5f6105af86828701610577565b93505060206105c0868287016104b2565b92505060406105d1868287016104b2565b9150509250925092565b5f6060820190506105ee5f8301866104f1565b6105fb6020830185610500565b6106086040830184610500565b94935050505056fea264697066735822122001072d9d7f0f93069fdce8afc9f5e6e6f81711da89518e66295851a99fc37d4664736f6c634300081a0033",
			"opcodes": "PUSH1 0x80 PUSH1 0x40 MSTORE CALLVALUE DUP1 ISZERO PUSH1 0xE JUMPI PUSH0 DUP1 REVERT JUMPDEST POP PUSH2 0x646 DUP1 PUSH2 0x1C PUSH0 CODECOPY PUSH0 RETURN INVALID PUSH1 0x80 PUSH1 0x40 MSTORE CALLVALUE DUP1 ISZERO PUSH2 0xF JUMPI PUSH0 DUP1 REVERT JUMPDEST POP PUSH1 0x4 CALLDATASIZE LT PUSH2 0x3F JUMPI PUSH0 CALLDATALOAD PUSH1 0xE0 SHR DUP1 PUSH4 0xF560CD7 EQ PUSH2 0x43 JUMPI DUP1 PUSH4 0x6FB2D15C EQ PUSH2 0x61 JUMPI DUP1 PUSH4 0xF9454F3F EQ PUSH2 0x94 JUMPI JUMPDEST PUSH0 DUP1 REVERT JUMPDEST PUSH2 0x4B PUSH2 0xB0 JUMP JUMPDEST PUSH1 0x40 MLOAD PUSH2 0x58 SWAP2 SWAP1 PUSH2 0x478 JUMP JUMPDEST PUSH1 0x40 MLOAD DUP1 SWAP2 SUB SWAP1 RETURN JUMPDEST PUSH2 0x7B PUSH1 0x4 DUP1 CALLDATASIZE SUB DUP2 ADD SWAP1 PUSH2 0x76 SWAP2 SWAP1 PUSH2 0x4C6 JUMP JUMPDEST PUSH2 0x18D JUMP JUMPDEST PUSH1 0x40 MLOAD PUSH2 0x8B SWAP5 SWAP4 SWAP3 SWAP2 SWAP1 PUSH2 0x51E JUMP JUMPDEST PUSH1 0x40 MLOAD DUP1 SWAP2 SUB SWAP1 RETURN JUMPDEST PUSH2 0xAE PUSH1 0x4 DUP1 CALLDATASIZE SUB DUP2 ADD SWAP1 PUSH2 0xA9 SWAP2 SWAP1 PUSH2 0x58B JUMP JUMPDEST PUSH2 0x1F2 JUMP JUMPDEST STOP JUMPDEST PUSH1 0x60 PUSH0 DUP1 SLOAD DUP1 PUSH1 0x20 MUL PUSH1 0x20 ADD PUSH1 0x40 MLOAD SWAP1 DUP2 ADD PUSH1 0x40 MSTORE DUP1 SWAP3 SWAP2 SWAP1 DUP2 DUP2 MSTORE PUSH1 0x20 ADD PUSH0 SWAP1 JUMPDEST DUP3 DUP3 LT ISZERO PUSH2 0x184 JUMPI DUP4 DUP3 SWAP1 PUSH0 MSTORE PUSH1 0x20 PUSH0 KECCAK256 SWAP1 PUSH1 0x4 MUL ADD PUSH1 0x40 MLOAD DUP1 PUSH1 0x80 ADD PUSH1 0x40 MSTORE SWAP1 DUP2 PUSH0 DUP3 ADD PUSH0 SWAP1 SLOAD SWAP1 PUSH2 0x100 EXP SWAP1 DIV PUSH20 0xFFFFFFFFFFFFFFFFFFFFFFFFFFFFFFFFFFFFFFFF AND PUSH20 0xFFFFFFFFFFFFFFFFFFFFFFFFFFFFFFFFFFFFFFFF AND PUSH20 0xFFFFFFFFFFFFFFFFFFFFFFFFFFFFFFFFFFFFFFFF AND DUP2 MSTORE PUSH1 0x20 ADD PUSH1 0x1 DUP3 ADD SLOAD DUP2 MSTORE PUSH1 0x20 ADD PUSH1 0x2 DUP3 ADD SLOAD DUP2 MSTORE PUSH1 0x20 ADD PUSH1 0x3 DUP3 ADD PUSH0 SWAP1 SLOAD SWAP1 PUSH2 0x100 EXP SWAP1 DIV PUSH1 0xFF AND ISZERO ISZERO ISZERO ISZERO DUP2 MSTORE POP POP DUP2 MSTORE PUSH1 0x20 ADD SWAP1 PUSH1 0x1 ADD SWAP1 PUSH2 0xD2 JUMP JUMPDEST POP POP POP POP SWAP1 POP SWAP1 JUMP JUMPDEST PUSH0 DUP2 DUP2 SLOAD DUP2 LT PUSH2 0x19B JUMPI PUSH0 DUP1 REVERT JUMPDEST SWAP1 PUSH0 MSTORE PUSH1 0x20 PUSH0 KECCAK256 SWAP1 PUSH1 0x4 MUL ADD PUSH0 SWAP2 POP SWAP1 POP DUP1 PUSH0 ADD PUSH0 SWAP1 SLOAD SWAP1 PUSH2 0x100 EXP SWAP1 DIV PUSH20 0xFFFFFFFFFFFFFFFFFFFFFFFFFFFFFFFFFFFFFFFF AND SWAP1 DUP1 PUSH1 0x1 ADD SLOAD SWAP1 DUP1 PUSH1 0x2 ADD SLOAD SWAP1 DUP1 PUSH1 0x3 ADD PUSH0 SWAP1 SLOAD SWAP1 PUSH2 0x100 EXP SWAP1 DIV PUSH1 0xFF AND SWAP1 POP DUP5 JUMP JUMPDEST PUSH0 PUSH1 0x40 MLOAD DUP1 PUSH1 0x80 ADD PUSH1 0x40 MSTORE DUP1 DUP6 PUSH20 0xFFFFFFFFFFFFFFFFFFFFFFFFFFFFFFFFFFFFFFFF AND DUP2 MSTORE PUSH1 0x20 ADD DUP4 DUP2 MSTORE PUSH1 0x20 ADD DUP5 DUP2 MSTORE PUSH1 0x20 ADD PUSH1 0x1 ISZERO ISZERO DUP2 MSTORE POP SWAP1 DUP1 PUSH1 0x1 DUP2 SLOAD ADD DUP1 DUP3 SSTORE DUP1 SWAP2 POP POP PUSH1 0x1 SWAP1 SUB SWAP1 PUSH0 MSTORE PUSH1 0x20 PUSH0 KECCAK256 SWAP1 PUSH1 0x4 MUL ADD PUSH0 SWAP1 SWAP2 SWAP1 SWAP2 SWAP1 SWAP2 POP PUSH0 DUP3 ADD MLOAD DUP2 PUSH0 ADD PUSH0 PUSH2 0x100 EXP DUP2 SLOAD DUP2 PUSH20 0xFFFFFFFFFFFFFFFFFFFFFFFFFFFFFFFFFFFFFFFF MUL NOT AND SWAP1 DUP4 PUSH20 0xFFFFFFFFFFFFFFFFFFFFFFFFFFFFFFFFFFFFFFFF AND MUL OR SWAP1 SSTORE POP PUSH1 0x20 DUP3 ADD MLOAD DUP2 PUSH1 0x1 ADD SSTORE PUSH1 0x40 DUP3 ADD MLOAD DUP2 PUSH1 0x2 ADD SSTORE PUSH1 0x60 DUP3 ADD MLOAD DUP2 PUSH1 0x3 ADD PUSH0 PUSH2 0x100 EXP DUP2 SLOAD DUP2 PUSH1 0xFF MUL NOT AND SWAP1 DUP4 ISZERO ISZERO MUL OR SWAP1 SSTORE POP POP POP PUSH32 0xE111259B232A1AADA0555D0A2984A438D71D0A9511BCF90316C8A316123A9D53 DUP4 DUP4 DUP4 PUSH1 0x40 MLOAD PUSH2 0x2FF SWAP4 SWAP3 SWAP2 SWAP1 PUSH2 0x5DB JUMP JUMPDEST PUSH1 0x40 MLOAD DUP1 SWAP2 SUB SWAP1 LOG1 POP POP POP JUMP JUMPDEST PUSH0 DUP2 MLOAD SWAP1 POP SWAP2 SWAP1 POP JUMP JUMPDEST PUSH0 DUP3 DUP3 MSTORE PUSH1 0x20 DUP3 ADD SWAP1 POP SWAP3 SWAP2 POP POP JUMP JUMPDEST PUSH0 DUP2 SWAP1 POP PUSH1 0x20 DUP3 ADD SWAP1 POP SWAP2 SWAP1 POP JUMP JUMPDEST PUSH0 PUSH20 0xFFFFFFFFFFFFFFFFFFFFFFFFFFFFFFFFFFFFFFFF DUP3 AND SWAP1 POP SWAP2 SWAP1 POP JUMP JUMPDEST PUSH0 PUSH2 0x35E DUP3 PUSH2 0x335 JUMP JUMPDEST SWAP1 POP SWAP2 SWAP1 POP JUMP JUMPDEST PUSH2 0x36E DUP2 PUSH2 0x354 JUMP JUMPDEST DUP3 MSTORE POP POP JUMP JUMPDEST PUSH0 DUP2 SWAP1 POP SWAP2 SWAP1 POP JUMP JUMPDEST PUSH2 0x386 DUP2 PUSH2 0x374 JUMP JUMPDEST DUP3 MSTORE POP POP JUMP JUMPDEST PUSH0 DUP2 ISZERO ISZERO SWAP1 POP SWAP2 SWAP1 POP JUMP JUMPDEST PUSH2 0x3A0 DUP2 PUSH2 0x38C JUMP JUMPDEST DUP3 MSTORE POP POP JUMP JUMPDEST PUSH1 0x80 DUP3 ADD PUSH0 DUP3 ADD MLOAD PUSH2 0x3BA PUSH0 DUP6 ADD DUP3 PUSH2 0x365 JUMP JUMPDEST POP PUSH1 0x20 DUP3 ADD MLOAD PUSH2 0x3CD PUSH1 0x20 DUP6 ADD DUP3 PUSH2 0x37D JUMP JUMPDEST POP PUSH1 0x40 DUP3 ADD MLOAD PUSH2 0x3E0 PUSH1 0x40 DUP6 ADD DUP3 PUSH2 0x37D JUMP JUMPDEST POP PUSH1 0x60 DUP3 ADD MLOAD PUSH2 0x3F3 PUSH1 0x60 DUP6 ADD DUP3 PUSH2 0x397 JUMP JUMPDEST POP POP POP POP JUMP JUMPDEST PUSH0 PUSH2 0x404 DUP4 DUP4 PUSH2 0x3A6 JUMP JUMPDEST PUSH1 0x80 DUP4 ADD SWAP1 POP SWAP3 SWAP2 POP POP JUMP JUMPDEST PUSH0 PUSH1 0x20 DUP3 ADD SWAP1 POP SWAP2 SWAP1 POP JUMP JUMPDEST PUSH0 PUSH2 0x426 DUP3 PUSH2 0x30C JUMP JUMPDEST PUSH2 0x430 DUP2 DUP6 PUSH2 0x316 JUMP JUMPDEST SWAP4 POP PUSH2 0x43B DUP4 PUSH2 0x326 JUMP JUMPDEST DUP1 PUSH0 JUMPDEST DUP4 DUP2 LT ISZERO PUSH2 0x46B JUMPI DUP2 MLOAD PUSH2 0x452 DUP9 DUP3 PUSH2 0x3F9 JUMP JUMPDEST SWAP8 POP PUSH2 0x45D DUP4 PUSH2 0x410 JUMP JUMPDEST SWAP3 POP POP PUSH1 0x1 DUP2 ADD SWAP1 POP PUSH2 0x43E JUMP JUMPDEST POP DUP6 SWAP4 POP POP POP POP SWAP3 SWAP2 POP POP JUMP JUMPDEST PUSH0 PUSH1 0x20 DUP3 ADD SWAP1 POP DUP2 DUP2 SUB PUSH0 DUP4 ADD MSTORE PUSH2 0x490 DUP2 DUP5 PUSH2 0x41C JUMP JUMPDEST SWAP1 POP SWAP3 SWAP2 POP POP JUMP JUMPDEST PUSH0 DUP1 REVERT JUMPDEST PUSH2 0x4A5 DUP2 PUSH2 0x374 JUMP JUMPDEST DUP2 EQ PUSH2 0x4AF JUMPI PUSH0 DUP1 REVERT JUMPDEST POP JUMP JUMPDEST PUSH0 DUP2 CALLDATALOAD SWAP1 POP PUSH2 0x4C0 DUP2 PUSH2 0x49C JUMP JUMPDEST SWAP3 SWAP2 POP POP JUMP JUMPDEST PUSH0 PUSH1 0x20 DUP3 DUP5 SUB SLT ISZERO PUSH2 0x4DB JUMPI PUSH2 0x4DA PUSH2 0x498 JUMP JUMPDEST JUMPDEST PUSH0 PUSH2 0x4E8 DUP5 DUP3 DUP6 ADD PUSH2 0x4B2 JUMP JUMPDEST SWAP2 POP POP SWAP3 SWAP2 POP POP JUMP JUMPDEST PUSH2 0x4FA DUP2 PUSH2 0x354 JUMP JUMPDEST DUP3 MSTORE POP POP JUMP JUMPDEST PUSH2 0x509 DUP2 PUSH2 0x374 JUMP JUMPDEST DUP3 MSTORE POP POP JUMP JUMPDEST PUSH2 0x518 DUP2 PUSH2 0x38C JUMP JUMPDEST DUP3 MSTORE POP POP JUMP JUMPDEST PUSH0 PUSH1 0x80 DUP3 ADD SWAP1 POP PUSH2 0x531 PUSH0 DUP4 ADD DUP8 PUSH2 0x4F1 JUMP JUMPDEST PUSH2 0x53E PUSH1 0x20 DUP4 ADD DUP7 PUSH2 0x500 JUMP JUMPDEST PUSH2 0x54B PUSH1 0x40 DUP4 ADD DUP6 PUSH2 0x500 JUMP JUMPDEST PUSH2 0x558 PUSH1 0x60 DUP4 ADD DUP5 PUSH2 0x50F JUMP JUMPDEST SWAP6 SWAP5 POP POP POP POP POP JUMP JUMPDEST PUSH2 0x56A DUP2 PUSH2 0x354 JUMP JUMPDEST DUP2 EQ PUSH2 0x574 JUMPI PUSH0 DUP1 REVERT JUMPDEST POP JUMP JUMPDEST PUSH0 DUP2 CALLDATALOAD SWAP1 POP PUSH2 0x585 DUP2 PUSH2 0x561 JUMP JUMPDEST SWAP3 SWAP2 POP POP JUMP JUMPDEST PUSH0 DUP1 PUSH0 PUSH1 0x60 DUP5 DUP7 SUB SLT ISZERO PUSH2 0x5A2 JUMPI PUSH2 0x5A1 PUSH2 0x498 JUMP JUMPDEST JUMPDEST PUSH0 PUSH2 0x5AF DUP7 DUP3 DUP8 ADD PUSH2 0x577 JUMP JUMPDEST SWAP4 POP POP PUSH1 0x20 PUSH2 0x5C0 DUP7 DUP3 DUP8 ADD PUSH2 0x4B2 JUMP JUMPDEST SWAP3 POP POP PUSH1 0x40 PUSH2 0x5D1 DUP7 DUP3 DUP8 ADD PUSH2 0x4B2 JUMP JUMPDEST SWAP2 POP POP SWAP3 POP SWAP3 POP SWAP3 JUMP JUMPDEST PUSH0 PUSH1 0x60 DUP3 ADD SWAP1 POP PUSH2 0x5EE PUSH0 DUP4 ADD DUP7 PUSH2 0x4F1 JUMP JUMPDEST PUSH2 0x5FB PUSH1 0x20 DUP4 ADD DUP6 PUSH2 0x500 JUMP JUMPDEST PUSH2 0x608 PUSH1 0x40 DUP4 ADD DUP5 PUSH2 0x500 JUMP JUMPDEST SWAP5 SWAP4 POP POP POP POP JUMP INVALID LOG2 PUSH5 0x6970667358 0x22 SLT KECCAK256 ADD SMOD 0x2D SWAP14 PUSH32 0xF93069FDCE8AFC9F5E6E6F81711DA89518E66295851A99FC37D4664736F6C63 NUMBER STOP ADDMOD BYTE STOP CALLER "
		},
		"gasEstimates": {
			"creation": {
				"codeDepositCost": "321200",
				"executionCost": "360",
				"totalCost": "321560"
			},
			"external": {
				"activeRansoms(uint256)": "infinite",
				"list()": "infinite",
				"register(address,uint256,uint256)": "infinite"
			}
		},
		"methodIdentifiers": {
			"activeRansoms(uint256)": "6fb2d15c",
			"list()": "0f560cd7",
			"register(address,uint256,uint256)": "f9454f3f"
		}
	},
	"abi": [
		{
			"anonymous": false,
			"inputs": [
				{
					"indexed": false,
					"internalType": "address",
					"name": "addr",
					"type": "address"
				},
				{
					"indexed": false,
					"internalType": "uint256",
					"name": "ransom",
					"type": "uint256"
				},
				{
					"indexed": false,
					"internalType": "uint256",
					"name": "deadline",
					"type": "uint256"
				}
			],
			"name": "RansomRegistered",
			"type": "event"
		},
		{
			"inputs": [
				{
					"internalType": "uint256",
					"name": "",
					"type": "uint256"
				}
			],
			"name": "activeRansoms",
			"outputs": [
				{
					"internalType": "address",
					"name": "contractAddr",
					"type": "address"
				},
				{
					"internalType": "uint256",
					"name": "deadline",
					"type": "uint256"
				},
				{
					"internalType": "uint256",
					"name": "ransomAmount",
					"type": "uint256"
				},
				{
					"internalType": "bool",
					"name": "active",
					"type": "bool"
				}
			],
			"stateMutability": "view",
			"type": "function"
		},
		{
			"inputs": [],
			"name": "list",
			"outputs": [
				{
					"components": [
						{
							"internalType": "address",
							"name": "contractAddr",
							"type": "address"
						},
						{
							"internalType": "uint256",
							"name": "deadline",
							"type": "uint256"
						},
						{
							"internalType": "uint256",
							"name": "ransomAmount",
							"type": "uint256"
						},
						{
							"internalType": "bool",
							"name": "active",
							"type": "bool"
						}
					],
					"internalType": "struct ActiveRansomRegistry.RansomData[]",
					"name": "",
					"type": "tuple[]"
				}
			],
			"stateMutability": "view",
			"type": "function"
		},
		{
			"inputs": [
				{
					"internalType": "address",
					"name": "addr",
					"type": "address"
				},
				{
					"internalType": "uint256",
					"name": "ransom",
					"type": "uint256"
				},
				{
					"internalType": "uint256",
					"name": "deadline",
					"type": "uint256"
				}
			],
			"name": "register",
			"outputs": [],
			"stateMutability": "nonpayable",
			"type": "function"
		}
	]
}