{
	"data": {
		"bytecode": {
			"linkReferences": {},
			"object": "608060405260015f60146101000a81548160ff021916908315150217905550348015610029575f80fd5b50604051610abe380380610abe833981810160405281019061004b91906101d4565b335f806101000a81548173ffffffffffffffffffffffffffffffffffffffff021916908373ffffffffffffffffffffffffffffffffffffffff160217905550816001819055508260025f6101000a81548173ffffffffffffffffffffffffffffffffffffffff021916908373ffffffffffffffffffffffffffffffffffffffff16021790555080426100dd9190610251565b6003819055507f44427e3003a08f22cf803894075ac0297524e09e521fc1c15bc91741ce3dc15960025f9054906101000a900473ffffffffffffffffffffffffffffffffffffffff166040516101339190610293565b60405180910390a15050506102ac565b5f80fd5b5f73ffffffffffffffffffffffffffffffffffffffff82169050919050565b5f61017082610147565b9050919050565b61018081610166565b811461018a575f80fd5b50565b5f8151905061019b81610177565b92915050565b5f819050919050565b6101b3816101a1565b81146101bd575f80fd5b50565b5f815190506101ce816101aa565b92915050565b5f805f606084860312156101eb576101ea610143565b5b5f6101f88682870161018d565b9350506020610209868287016101c0565b925050604061021a868287016101c0565b9150509250925092565b7f4e487b71000000000000000000000000000000000000000000000000000000005f52601160045260245ffd5b5f61025b826101a1565b9150610266836101a1565b925082820190508082111561027e5761027d610224565b5b92915050565b61028d81610166565b82525050565b5f6020820190506102a65f830184610284565b92915050565b610805806102b95f395ff3fe60806040526004361061007a575f3560e01c80638da5cb5b1161004d5780638da5cb5b146100f2578063b09614d61461011c578063cf30901214610132578063d1d0673d1461015c5761007a565b80631f0d95061461007e5780631f92db451461008857806329dcb0cf146100b25780633ccfd60b146100dc575b5f80fd5b610086610186565b005b348015610093575f80fd5b5061009c6102e9565b6040516100a99190610513565b60405180910390f35b3480156100bd575f80fd5b506100c661030e565b6040516100d39190610544565b60405180910390f35b3480156100e7575f80fd5b506100f0610314565b005b3480156100fd575f80fd5b50610106610406565b6040516101139190610513565b60405180910390f35b348015610127575f80fd5b50610130610429565b005b34801561013d575f80fd5b506101466104bc565b6040516101539190610577565b60405180910390f35b348015610167575f80fd5b506101706104ce565b60405161017d9190610544565b60405180910390f35b5f60149054906101000a900460ff166101d4576040517f08c379a00000000000000000000000000000000000000000000000000000000081526004016101cb906105ea565b60405180910390fd5b600354421115610219576040517f08c379a000000000000000000000000000000000000000000000000000000000815260040161021090610652565b60405180910390fd5b60015434101561025e576040517f08c379a0000000000000000000000000000000000000000000000000000000008152600401610255906106ba565b60405180910390fd5b5f8060146101000a81548160ff0219169083151502179055507fa8e65d273fb2be203d38dbd053b4d2c182619477420a283f2e373a4e5a5bd19f33346040516102a89291906106d8565b60405180910390a17f7e6adfec7e3f286831a0200a754127c171a2da564078722cb97704741bbdb0ea336040516102df9190610513565b60405180910390a1565b60025f9054906101000a900473ffffffffffffffffffffffffffffffffffffffff1681565b60035481565b5f8054906101000a900473ffffffffffffffffffffffffffffffffffffffff1673ffffffffffffffffffffffffffffffffffffffff163373ffffffffffffffffffffffffffffffffffffffff16146103a1576040517f08c379a000000000000000000000000000000000000000000000000000000000815260040161039890610749565b60405180910390fd5b5f8054906101000a900473ffffffffffffffffffffffffffffffffffffffff1673ffffffffffffffffffffffffffffffffffffffff166108fc4790811502906040515f60405180830381858888f19350505050158015610403573d5f803e3d5ffd5b50565b5f8054906101000a900473ffffffffffffffffffffffffffffffffffffffff1681565b6003544211801561044557505f60149054906101000a900460ff165b610484576040517f08c379a000000000000000000000000000000000000000000000000000000000815260040161047b906107b1565b60405180910390fd5b5f8054906101000a900473ffffffffffffffffffffffffffffffffffffffff1673ffffffffffffffffffffffffffffffffffffffff16ff5b5f60149054906101000a900460ff1681565b60015481565b5f73ffffffffffffffffffffffffffffffffffffffff82169050919050565b5f6104fd826104d4565b9050919050565b61050d816104f3565b82525050565b5f6020820190506105265f830184610504565b92915050565b5f819050919050565b61053e8161052c565b82525050565b5f6020820190506105575f830184610535565b92915050565b5f8115159050919050565b6105718161055d565b82525050565b5f60208201905061058a5f830184610568565b92915050565b5f82825260208201905092915050565b7f416c726561647920756e6c6f636b6564000000000000000000000000000000005f82015250565b5f6105d4601083610590565b91506105df826105a0565b602082019050919050565b5f6020820190508181035f830152610601816105c8565b9050919050565b7f446561646c696e652070617373656400000000000000000000000000000000005f82015250565b5f61063c600f83610590565b915061064782610608565b602082019050919050565b5f6020820190508181035f83015261066981610630565b9050919050565b7f496e73756666696369656e742072616e736f6d000000000000000000000000005f82015250565b5f6106a4601383610590565b91506106af82610670565b602082019050919050565b5f6020820190508181035f8301526106d181610698565b9050919050565b5f6040820190506106eb5f830185610504565b6106f86020830184610535565b9392505050565b7f4e6f7420617574686f72697a65640000000000000000000000000000000000005f82015250565b5f610733600e83610590565b915061073e826106ff565b602082019050919050565b5f6020820190508181035f83015261076081610727565b9050919050565b7f4e6f742065787069726564206f72206e6f74206c6f636b6564000000000000005f82015250565b5f61079b601983610590565b91506107a682610767565b602082019050919050565b5f6020820190508181035f8301526107c88161078f565b905091905056fea26469706673582212209ecd307718b8c18f9f6d3e6008a5f7900d59b3236045abec03ae8b068d38b76b64736f6c634300081a0033",
			"opcodes": "PUSH1 0x80 PUSH1 0x40 MSTORE PUSH1 0x1 PUSH0 PUSH1 0x14 PUSH2 0x100 EXP DUP2 SLOAD DUP2 PUSH1 0xFF MUL NOT AND SWAP1 DUP4 ISZERO ISZERO MUL OR SWAP1 SSTORE POP CALLVALUE DUP1 ISZERO PUSH2 0x29 JUMPI PUSH0 DUP1 REVERT JUMPDEST POP PUSH1 0x40 MLOAD PUSH2 0xABE CODESIZE SUB DUP1 PUSH2 0xABE DUP4 CODECOPY DUP2 DUP2 ADD PUSH1 0x40 MSTORE DUP2 ADD SWAP1 PUSH2 0x4B SWAP2 SWAP1 PUSH2 0x1D4 JUMP JUMPDEST CALLER PUSH0 DUP1 PUSH2 0x100 EXP DUP2 SLOAD DUP2 PUSH20 0xFFFFFFFFFFFFFFFFFFFFFFFFFFFFFFFFFFFFFFFF MUL NOT AND SWAP1 DUP4 PUSH20 0xFFFFFFFFFFFFFFFFFFFFFFFFFFFFFFFFFFFFFFFF AND MUL OR SWAP1 SSTORE POP DUP2 PUSH1 0x1 DUP2 SWAP1 SSTORE POP DUP3 PUSH1 0x2 PUSH0 PUSH2 0x100 EXP DUP2 SLOAD DUP2 PUSH20 0xFFFFFFFFFFFFFFFFFFFFFFFFFFFFFFFFFFFFFFFF MUL NOT AND SWAP1 DUP4 PUSH20 0xFFFFFFFFFFFFFFFFFFFFFFFFFFFFFFFFFFFFFFFF AND MUL OR SWAP1 SSTORE POP DUP1 TIMESTAMP PUSH2 0xDD SWAP2 SWAP1 PUSH2 0x251 JUMP JUMPDEST PUSH1 0x3 DUP2 SWAP1 SSTORE POP PUSH32 0x44427E3003A08F22CF803894075AC0297524E09E521FC1C15BC91741CE3DC159 PUSH1 0x2 PUSH0 SWAP1 SLOAD SWAP1 PUSH2 0x100 EXP SWAP1 DIV PUSH20 0xFFFFFFFFFFFFFFFFFFFFFFFFFFFFFFFFFFFFFFFF AND PUSH1 0x40 MLOAD PUSH2 0x133 SWAP2 SWAP1 PUSH2 0x293 JUMP JUMPDEST PUSH1 0x40 MLOAD DUP1 SWAP2 SUB SWAP1 LOG1 POP POP POP PUSH2 0x2AC JUMP JUMPDEST PUSH0 DUP1 REVERT JUMPDEST PUSH0 PUSH20 0xFFFFFFFFFFFFFFFFFFFFFFFFFFFFFFFFFFFFFFFF DUP3 AND SWAP1 POP SWAP2 SWAP1 POP JUMP JUMPDEST PUSH0 PUSH2 0x170 DUP3 PUSH2 0x147 JUMP JUMPDEST SWAP1 POP SWAP2 SWAP1 POP JUMP JUMPDEST PUSH2 0x180 DUP2 PUSH2 0x166 JUMP JUMPDEST DUP2 EQ PUSH2 0x18A JUMPI PUSH0 DUP1 REVERT JUMPDEST POP JUMP JUMPDEST PUSH0 DUP2 MLOAD SWAP1 POP PUSH2 0x19B DUP2 PUSH2 0x177 JUMP JUMPDEST SWAP3 SWAP2 POP POP JUMP JUMPDEST PUSH0 DUP2 SWAP1 POP SWAP2 SWAP1 POP JUMP JUMPDEST PUSH2 0x1B3 DUP2 PUSH2 0x1A1 JUMP JUMPDEST DUP2 EQ PUSH2 0x1BD JUMPI PUSH0 DUP1 REVERT JUMPDEST POP JUMP JUMPDEST PUSH0 DUP2 MLOAD SWAP1 POP PUSH2 0x1CE DUP2 PUSH2 0x1AA JUMP JUMPDEST SWAP3 SWAP2 POP POP JUMP JUMPDEST PUSH0 DUP1 PUSH0 PUSH1 0x60 DUP5 DUP7 SUB SLT ISZERO PUSH2 0x1EB JUMPI PUSH2 0x1EA PUSH2 0x143 JUMP JUMPDEST JUMPDEST PUSH0 PUSH2 0x1F8 DUP7 DUP3 DUP8 ADD PUSH2 0x18D JUMP JUMPDEST SWAP4 POP POP PUSH1 0x20 PUSH2 0x209 DUP7 DUP3 DUP8 ADD PUSH2 0x1C0 JUMP JUMPDEST SWAP3 POP POP PUSH1 0x40 PUSH2 0x21A DUP7 DUP3 DUP8 ADD PUSH2 0x1C0 JUMP JUMPDEST SWAP2 POP POP SWAP3 POP SWAP3 POP SWAP3 JUMP JUMPDEST PUSH32 0x4E487B7100000000000000000000000000000000000000000000000000000000 PUSH0 MSTORE PUSH1 0x11 PUSH1 0x4 MSTORE PUSH1 0x24 PUSH0 REVERT JUMPDEST PUSH0 PUSH2 0x25B DUP3 PUSH2 0x1A1 JUMP JUMPDEST SWAP2 POP PUSH2 0x266 DUP4 PUSH2 0x1A1 JUMP JUMPDEST SWAP3 POP DUP3 DUP3 ADD SWAP1 POP DUP1 DUP3 GT ISZERO PUSH2 0x27E JUMPI PUSH2 0x27D PUSH2 0x224 JUMP JUMPDEST JUMPDEST SWAP3 SWAP2 POP POP JUMP JUMPDEST PUSH2 0x28D DUP2 PUSH2 0x166 JUMP JUMPDEST DUP3 MSTORE POP POP JUMP JUMPDEST PUSH0 PUSH1 0x20 DUP3 ADD SWAP1 POP PUSH2 0x2A6 PUSH0 DUP4 ADD DUP5 PUSH2 0x284 JUMP JUMPDEST SWAP3 SWAP2 POP POP JUMP JUMPDEST PUSH2 0x805 DUP1 PUSH2 0x2B9 PUSH0 CODECOPY PUSH0 RETURN INVALID PUSH1 0x80 PUSH1 0x40 MSTORE PUSH1 0x4 CALLDATASIZE LT PUSH2 0x7A JUMPI PUSH0 CALLDATALOAD PUSH1 0xE0 SHR DUP1 PUSH4 0x8DA5CB5B GT PUSH2 0x4D JUMPI DUP1 PUSH4 0x8DA5CB5B EQ PUSH2 0xF2 JUMPI DUP1 PUSH4 0xB09614D6 EQ PUSH2 0x11C JUMPI DUP1 PUSH4 0xCF309012 EQ PUSH2 0x132 JUMPI DUP1 PUSH4 0xD1D0673D EQ PUSH2 0x15C JUMPI PUSH2 0x7A JUMP JUMPDEST DUP1 PUSH4 0x1F0D9506 EQ PUSH2 0x7E JUMPI DUP1 PUSH4 0x1F92DB45 EQ PUSH2 0x88 JUMPI DUP1 PUSH4 0x29DCB0CF EQ PUSH2 0xB2 JUMPI DUP1 PUSH4 0x3CCFD60B EQ PUSH2 0xDC JUMPI JUMPDEST PUSH0 DUP1 REVERT JUMPDEST PUSH2 0x86 PUSH2 0x186 JUMP JUMPDEST STOP JUMPDEST CALLVALUE DUP1 ISZERO PUSH2 0x93 JUMPI PUSH0 DUP1 REVERT JUMPDEST POP PUSH2 0x9C PUSH2 0x2E9 JUMP JUMPDEST PUSH1 0x40 MLOAD PUSH2 0xA9 SWAP2 SWAP1 PUSH2 0x513 JUMP JUMPDEST PUSH1 0x40 MLOAD DUP1 SWAP2 SUB SWAP1 RETURN JUMPDEST CALLVALUE DUP1 ISZERO PUSH2 0xBD JUMPI PUSH0 DUP1 REVERT JUMPDEST POP PUSH2 0xC6 PUSH2 0x30E JUMP JUMPDEST PUSH1 0x40 MLOAD PUSH2 0xD3 SWAP2 SWAP1 PUSH2 0x544 JUMP JUMPDEST PUSH1 0x40 MLOAD DUP1 SWAP2 SUB SWAP1 RETURN JUMPDEST CALLVALUE DUP1 ISZERO PUSH2 0xE7 JUMPI PUSH0 DUP1 REVERT JUMPDEST POP PUSH2 0xF0 PUSH2 0x314 JUMP JUMPDEST STOP JUMPDEST CALLVALUE DUP1 ISZERO PUSH2 0xFD JUMPI PUSH0 DUP1 REVERT JUMPDEST POP PUSH2 0x106 PUSH2 0x406 JUMP JUMPDEST PUSH1 0x40 MLOAD PUSH2 0x113 SWAP2 SWAP1 PUSH2 0x513 JUMP JUMPDEST PUSH1 0x40 MLOAD DUP1 SWAP2 SUB SWAP1 RETURN JUMPDEST CALLVALUE DUP1 ISZERO PUSH2 0x127 JUMPI PUSH0 DUP1 REVERT JUMPDEST POP PUSH2 0x130 PUSH2 0x429 JUMP JUMPDEST STOP JUMPDEST CALLVALUE DUP1 ISZERO PUSH2 0x13D JUMPI PUSH0 DUP1 REVERT JUMPDEST POP PUSH2 0x146 PUSH2 0x4BC JUMP JUMPDEST PUSH1 0x40 MLOAD PUSH2 0x153 SWAP2 SWAP1 PUSH2 0x577 JUMP JUMPDEST PUSH1 0x40 MLOAD DUP1 SWAP2 SUB SWAP1 RETURN JUMPDEST CALLVALUE DUP1 ISZERO PUSH2 0x167 JUMPI PUSH0 DUP1 REVERT JUMPDEST POP PUSH2 0x170 PUSH2 0x4CE JUMP JUMPDEST PUSH1 0x40 MLOAD PUSH2 0x17D SWAP2 SWAP1 PUSH2 0x544 JUMP JUMPDEST PUSH1 0x40 MLOAD DUP1 SWAP2 SUB SWAP1 RETURN JUMPDEST PUSH0 PUSH1 0x14 SWAP1 SLOAD SWAP1 PUSH2 0x100 EXP SWAP1 DIV PUSH1 0xFF AND PUSH2 0x1D4 JUMPI PUSH1 0x40 MLOAD PUSH32 0x8C379A000000000000000000000000000000000000000000000000000000000 DUP2 MSTORE PUSH1 0x4 ADD PUSH2 0x1CB SWAP1 PUSH2 0x5EA JUMP JUMPDEST PUSH1 0x40 MLOAD DUP1 SWAP2 SUB SWAP1 REVERT JUMPDEST PUSH1 0x3 SLOAD TIMESTAMP GT ISZERO PUSH2 0x219 JUMPI PUSH1 0x40 MLOAD PUSH32 0x8C379A000000000000000000000000000000000000000000000000000000000 DUP2 MSTORE PUSH1 0x4 ADD PUSH2 0x210 SWAP1 PUSH2 0x652 JUMP JUMPDEST PUSH1 0x40 MLOAD DUP1 SWAP2 SUB SWAP1 REVERT JUMPDEST PUSH1 0x1 SLOAD CALLVALUE LT ISZERO PUSH2 0x25E JUMPI PUSH1 0x40 MLOAD PUSH32 0x8C379A000000000000000000000000000000000000000000000000000000000 DUP2 MSTORE PUSH1 0x4 ADD PUSH2 0x255 SWAP1 PUSH2 0x6BA JUMP JUMPDEST PUSH1 0x40 MLOAD DUP1 SWAP2 SUB SWAP1 REVERT JUMPDEST PUSH0 DUP1 PUSH1 0x14 PUSH2 0x100 EXP DUP2 SLOAD DUP2 PUSH1 0xFF MUL NOT AND SWAP1 DUP4 ISZERO ISZERO MUL OR SWAP1 SSTORE POP PUSH32 0xA8E65D273FB2BE203D38DBD053B4D2C182619477420A283F2E373A4E5A5BD19F CALLER CALLVALUE PUSH1 0x40 MLOAD PUSH2 0x2A8 SWAP3 SWAP2 SWAP1 PUSH2 0x6D8 JUMP JUMPDEST PUSH1 0x40 MLOAD DUP1 SWAP2 SUB SWAP1 LOG1 PUSH32 0x7E6ADFEC7E3F286831A0200A754127C171A2DA564078722CB97704741BBDB0EA CALLER PUSH1 0x40 MLOAD PUSH2 0x2DF SWAP2 SWAP1 PUSH2 0x513 JUMP JUMPDEST PUSH1 0x40 MLOAD DUP1 SWAP2 SUB SWAP1 LOG1 JUMP JUMPDEST PUSH1 0x2 PUSH0 SWAP1 SLOAD SWAP1 PUSH2 0x100 EXP SWAP1 DIV PUSH20 0xFFFFFFFFFFFFFFFFFFFFFFFFFFFFFFFFFFFFFFFF AND DUP2 JUMP JUMPDEST PUSH1 0x3 SLOAD DUP2 JUMP JUMPDEST PUSH0 DUP1 SLOAD SWAP1 PUSH2 0x100 EXP SWAP1 DIV PUSH20 0xFFFFFFFFFFFFFFFFFFFFFFFFFFFFFFFFFFFFFFFF AND PUSH20 0xFFFFFFFFFFFFFFFFFFFFFFFFFFFFFFFFFFFFFFFF AND CALLER PUSH20 0xFFFFFFFFFFFFFFFFFFFFFFFFFFFFFFFFFFFFFFFF AND EQ PUSH2 0x3A1 JUMPI PUSH1 0x40 MLOAD PUSH32 0x8C379A000000000000000000000000000000000000000000000000000000000 DUP2 MSTORE PUSH1 0x4 ADD PUSH2 0x398 SWAP1 PUSH2 0x749 JUMP JUMPDEST PUSH1 0x40 MLOAD DUP1 SWAP2 SUB SWAP1 REVERT JUMPDEST PUSH0 DUP1 SLOAD SWAP1 PUSH2 0x100 EXP SWAP1 DIV PUSH20 0xFFFFFFFFFFFFFFFFFFFFFFFFFFFFFFFFFFFFFFFF AND PUSH20 0xFFFFFFFFFFFFFFFFFFFFFFFFFFFFFFFFFFFFFFFF AND PUSH2 0x8FC SELFBALANCE SWAP1 DUP2 ISZERO MUL SWAP1 PUSH1 0x40 MLOAD PUSH0 PUSH1 0x40 MLOAD DUP1 DUP4 SUB DUP2 DUP6 DUP9 DUP9 CALL SWAP4 POP POP POP POP ISZERO DUP1 ISZERO PUSH2 0x403 JUMPI RETURNDATASIZE PUSH0 DUP1 RETURNDATACOPY RETURNDATASIZE PUSH0 REVERT JUMPDEST POP JUMP JUMPDEST PUSH0 DUP1 SLOAD SWAP1 PUSH2 0x100 EXP SWAP1 DIV PUSH20 0xFFFFFFFFFFFFFFFFFFFFFFFFFFFFFFFFFFFFFFFF AND DUP2 JUMP JUMPDEST PUSH1 0x3 SLOAD TIMESTAMP GT DUP1 ISZERO PUSH2 0x445 JUMPI POP PUSH0 PUSH1 0x14 SWAP1 SLOAD SWAP1 PUSH2 0x100 EXP SWAP1 DIV PUSH1 0xFF AND JUMPDEST PUSH2 0x484 JUMPI PUSH1 0x40 MLOAD PUSH32 0x8C379A000000000000000000000000000000000000000000000000000000000 DUP2 MSTORE PUSH1 0x4 ADD PUSH2 0x47B SWAP1 PUSH2 0x7B1 JUMP JUMPDEST PUSH1 0x40 MLOAD DUP1 SWAP2 SUB SWAP1 REVERT JUMPDEST PUSH0 DUP1 SLOAD SWAP1 PUSH2 0x100 EXP SWAP1 DIV PUSH20 0xFFFFFFFFFFFFFFFFFFFFFFFFFFFFFFFFFFFFFFFF AND PUSH20 0xFFFFFFFFFFFFFFFFFFFFFFFFFFFFFFFFFFFFFFFF AND SELFDESTRUCT JUMPDEST PUSH0 PUSH1 0x14 SWAP1 SLOAD SWAP1 PUSH2 0x100 EXP SWAP1 DIV PUSH1 0xFF AND DUP2 JUMP JUMPDEST PUSH1 0x1 SLOAD DUP2 JUMP JUMPDEST PUSH0 PUSH20 0xFFFFFFFFFFFFFFFFFFFFFFFFFFFFFFFFFFFFFFFF DUP3 AND SWAP1 POP SWAP2 SWAP1 POP JUMP JUMPDEST PUSH0 PUSH2 0x4FD DUP3 PUSH2 0x4D4 JUMP JUMPDEST SWAP1 POP SWAP2 SWAP1 POP JUMP JUMPDEST PUSH2 0x50D DUP2 PUSH2 0x4F3 JUMP JUMPDEST DUP3 MSTORE POP POP JUMP JUMPDEST PUSH0 PUSH1 0x20 DUP3 ADD SWAP1 POP PUSH2 0x526 PUSH0 DUP4 ADD DUP5 PUSH2 0x504 JUMP JUMPDEST SWAP3 SWAP2 POP POP JUMP JUMPDEST PUSH0 DUP2 SWAP1 POP SWAP2 SWAP1 POP JUMP JUMPDEST PUSH2 0x53E DUP2 PUSH2 0x52C JUMP JUMPDEST DUP3 MSTORE POP POP JUMP JUMPDEST PUSH0 PUSH1 0x20 DUP3 ADD SWAP1 POP PUSH2 0x557 PUSH0 DUP4 ADD DUP5 PUSH2 0x535 JUMP JUMPDEST SWAP3 SWAP2 POP POP JUMP JUMPDEST PUSH0 DUP2 ISZERO ISZERO SWAP1 POP SWAP2 SWAP1 POP JUMP JUMPDEST PUSH2 0x571 DUP2 PUSH2 0x55D JUMP JUMPDEST DUP3 MSTORE POP POP JUMP JUMPDEST PUSH0 PUSH1 0x20 DUP3 ADD SWAP1 POP PUSH2 0x58A PUSH0 DUP4 ADD DUP5 PUSH2 0x568 JUMP JUMPDEST SWAP3 SWAP2 POP POP JUMP JUMPDEST PUSH0 DUP3 DUP3 MSTORE PUSH1 0x20 DUP3 ADD SWAP1 POP SWAP3 SWAP2 POP POP JUMP JUMPDEST PUSH32 0x416C726561647920756E6C6F636B656400000000000000000000000000000000 PUSH0 DUP3 ADD MSTORE POP JUMP JUMPDEST PUSH0 PUSH2 0x5D4 PUSH1 0x10 DUP4 PUSH2 0x590 JUMP JUMPDEST SWAP2 POP PUSH2 0x5DF DUP3 PUSH2 0x5A0 JUMP JUMPDEST PUSH1 0x20 DUP3 ADD SWAP1 POP SWAP2 SWAP1 POP JUMP JUMPDEST PUSH0 PUSH1 0x20 DUP3 ADD SWAP1 POP DUP2 DUP2 SUB PUSH0 DUP4 ADD MSTORE PUSH2 0x601 DUP2 PUSH2 0x5C8 JUMP JUMPDEST SWAP1 POP SWAP2 SWAP1 POP JUMP JUMPDEST PUSH32 0x446561646C696E65207061737365640000000000000000000000000000000000 PUSH0 DUP3 ADD MSTORE POP JUMP JUMPDEST PUSH0 PUSH2 0x63C PUSH1 0xF DUP4 PUSH2 0x590 JUMP JUMPDEST SWAP2 POP PUSH2 0x647 DUP3 PUSH2 0x608 JUMP JUMPDEST PUSH1 0x20 DUP3 ADD SWAP1 POP SWAP2 SWAP1 POP JUMP JUMPDEST PUSH0 PUSH1 0x20 DUP3 ADD SWAP1 POP DUP2 DUP2 SUB PUSH0 DUP4 ADD MSTORE PUSH2 0x669 DUP2 PUSH2 0x630 JUMP JUMPDEST SWAP1 POP SWAP2 SWAP1 POP JUMP JUMPDEST PUSH32 0x496E73756666696369656E742072616E736F6D00000000000000000000000000 PUSH0 DUP3 ADD MSTORE POP JUMP JUMPDEST PUSH0 PUSH2 0x6A4 PUSH1 0x13 DUP4 PUSH2 0x590 JUMP JUMPDEST SWAP2 POP PUSH2 0x6AF DUP3 PUSH2 0x670 JUMP JUMPDEST PUSH1 0x20 DUP3 ADD SWAP1 POP SWAP2 SWAP1 POP JUMP JUMPDEST PUSH0 PUSH1 0x20 DUP3 ADD SWAP1 POP DUP2 DUP2 SUB PUSH0 DUP4 ADD MSTORE PUSH2 0x6D1 DUP2 PUSH2 0x698 JUMP JUMPDEST SWAP1 POP SWAP2 SWAP1 POP JUMP JUMPDEST PUSH0 PUSH1 0x40 DUP3 ADD SWAP1 POP PUSH2 0x6EB PUSH0 DUP4 ADD DUP6 PUSH2 0x504 JUMP JUMPDEST PUSH2 0x6F8 PUSH1 0x20 DUP4 ADD DUP5 PUSH2 0x535 JUMP JUMPDEST SWAP4 SWAP3 POP POP POP JUMP JUMPDEST PUSH32 0x4E6F7420617574686F72697A6564000000000000000000000000000000000000 PUSH0 DUP3 ADD MSTORE POP JUMP JUMPDEST PUSH0 PUSH2 0x733 PUSH1 0xE DUP4 PUSH2 0x590 JUMP JUMPDEST SWAP2 POP PUSH2 0x73E DUP3 PUSH2 0x6FF JUMP JUMPDEST PUSH1 0x20 DUP3 ADD SWAP1 POP SWAP2 SWAP1 POP JUMP JUMPDEST PUSH0 PUSH1 0x20 DUP3 ADD SWAP1 POP DUP2 DUP2 SUB PUSH0 DUP4 ADD MSTORE PUSH2 0x760 DUP2 PUSH2 0x727 JUMP JUMPDEST SWAP1 POP SWAP2 SWAP1 POP JUMP JUMPDEST PUSH32 0x4E6F742065787069726564206F72206E6F74206C6F636B656400000000000000 PUSH0 DUP3 ADD MSTORE POP JUMP JUMPDEST PUSH0 PUSH2 0x79B PUSH1 0x19 DUP4 PUSH2 0x590 JUMP JUMPDEST SWAP2 POP PUSH2 0x7A6 DUP3 PUSH2 0x767 JUMP JUMPDEST PUSH1 0x20 DUP3 ADD SWAP1 POP SWAP2 SWAP1 POP JUMP JUMPDEST PUSH0 PUSH1 0x20 DUP3 ADD SWAP1 POP DUP2 DUP2 SUB PUSH0 DUP4 ADD MSTORE PUSH2 0x7C8 DUP2 PUSH2 0x78F JUMP JUMPDEST SWAP1 POP SWAP2 SWAP1 POP JUMP INVALID LOG2 PUSH5 0x6970667358 0x22 SLT KECCAK256 SWAP15 0xCD ADDRESS PUSH24 0x18B8C18F9F6D3E6008A5F7900D59B3236045ABEC03AE8B06 DUP14 CODESIZE 0xB7 PUSH12 0x64736F6C634300081A003300 "
		},
		"gasEstimates": {
			"creation": {
				"codeDepositCost": "410600",
				"executionCost": "infinite",
				"totalCost": "infinite"
			},
			"external": {
				"deadline()": "2470",
				"detonate()": "34229",
				"locked()": "2560",
				"owner()": "2505",
				"payRansom()": "infinite",
				"ransomAmount()": "2491",
				"targetVault()": "2531",
				"withdraw()": "infinite"
			}
		},
		"methodIdentifiers": {
			"deadline()": "29dcb0cf",
			"detonate()": "b09614d6",
			"locked()": "cf309012",
			"owner()": "8da5cb5b",
			"payRansom()": "1f0d9506",
			"ransomAmount()": "d1d0673d",
			"targetVault()": "1f92db45",
			"withdraw()": "3ccfd60b"
		}
	},
	"abi": [
		{
			"inputs": [
				{
					"internalType": "address",
					"name": "_targetVault",
					"type": "address"
				},
				{
					"internalType": "uint256",
					"name": "_ransom",
					"type": "uint256"
				},
				{
					"internalType": "uint256",
					"name": "_duration",
					"type": "uint256"
				}
			],
			"stateMutability": "nonpayable",
			"type": "constructor"
		},
		{
			"anonymous": false,
			"inputs": [
				{
					"indexed": false,
					"internalType": "address",
					"name": "vault",
					"type": "address"
				}
			],
			"name": "Locked",
			"type": "event"
		},
		{
			"anonymous": false,
			"inputs": [
				{
					"indexed": false,
					"internalType": "address",
					"name": "victim",
					"type": "address"
				},
				{
					"indexed": false,
					"internalType": "uint256",
					"name": "amount",
					"type": "uint256"
				}
			],
			"name": "RansomPaid",
			"type": "event"
		},
		{
			"anonymous": false,
			"inputs": [
				{
					"indexed": false,
					"internalType": "address",
					"name": "by",
					"type": "address"
				}
			],
			"name": "Unlocked",
			"type": "event"
		},
		{
			"inputs": [],
			"name": "deadline",
			"outputs": [
				{
					"internalType": "uint256",
					"name": "",
					"type": "uint256"
				}
			],
			"stateMutability": "view",
			"type": "function"
		},
		{
			"inputs": [],
			"name": "detonate",
			"outputs": [],
			"stateMutability": "nonpayable",
			"type": "function"
		},
		{
			"inputs": [],
			"name": "locked",
			"outputs": [
				{
					"internalType": "bool",
					"name": "",
					"type": "bool"
				}
			],
			"stateMutability": "view",
			"type": "function"
		},
		{
			"inputs": [],
			"name": "owner",
			"outputs": [
				{
					"internalType": "address",
					"name": "",
					"type": "address"
				}
			],
			"stateMutability": "view",
			"type": "function"
		},
		{
			"inputs": [],
			"name": "payRansom",
			"outputs": [],
			"stateMutability": "payable",
			"type": "function"
		},
		{
			"inputs": [],
			"name": "ransomAmount",
			"outputs": [
				{
					"internalType": "uint256",
					"name": "",
					"type": "uint256"
				}
			],
			"stateMutability": "view",
			"type": "function"
		},
		{
			"inputs": [],
			"name": "targetVault",
			"outputs": [
				{
					"internalType": "address",
					"name": "",
					"type": "address"
				}
			],
			"stateMutability": "view",
			"type": "function"
		},
		{
			"inputs": [],
			"name": "withdraw",
			"outputs": [],
			"stateMutability": "nonpayable",
			"type": "function"
		}
	]
}