{
	"data": {
		"bytecode": {
			"linkReferences": {},
			"object": "6080604052348015600e575f80fd5b506108ec8061001c5f395ff3fe608060405234801561000f575f80fd5b5060043610610034575f3560e01c80637b30de251461003857806396d436c014610054575b5f80fd5b610052600480360381019061004d9190610233565b610084565b005b61006e600480360381019061006991906103e9565b61010f565b60405161007b9190610490565b60405180910390f35b81815f86866040516100979291906104de565b908152602001604051809103902091826100b2929190610703565b503373ffffffffffffffffffffffffffffffffffffffff167f644ace9434188a5f76124851bc6415e611196aa35602f421fe38f77f86e41651858585855f60405161010195949392919061086f565b60405180910390a250505050565b5f818051602081018201805184825260208301602085012081835280955050505050505f9150905080546101429061052d565b80601f016020809104026020016040519081016040528092919081815260200182805461016e9061052d565b80156101b95780601f10610190576101008083540402835291602001916101b9565b820191905f5260205f20905b81548152906001019060200180831161019c57829003601f168201915b505050505081565b5f604051905090565b5f80fd5b5f80fd5b5f80fd5b5f80fd5b5f80fd5b5f8083601f8401126101f3576101f26101d2565b5b8235905067ffffffffffffffff8111156102105761020f6101d6565b5b60208301915083600182028301111561022c5761022b6101da565b5b9250929050565b5f805f806040858703121561024b5761024a6101ca565b5b5f85013567ffffffffffffffff811115610268576102676101ce565b5b610274878288016101de565b9450945050602085013567ffffffffffffffff811115610297576102966101ce565b5b6102a3878288016101de565b925092505092959194509250565b5f80fd5b5f601f19601f8301169050919050565b7f4e487b71000000000000000000000000000000000000000000000000000000005f52604160045260245ffd5b6102fb826102b5565b810181811067ffffffffffffffff8211171561031a576103196102c5565b5b80604052505050565b5f61032c6101c1565b905061033882826102f2565b919050565b5f67ffffffffffffffff821115610357576103566102c5565b5b610360826102b5565b9050602081019050919050565b828183375f83830152505050565b5f61038d6103888461033d565b610323565b9050828152602081018484840111156103a9576103a86102b1565b5b6103b484828561036d565b509392505050565b5f82601f8301126103d0576103cf6101d2565b5b81356103e084826020860161037b565b91505092915050565b5f602082840312156103fe576103fd6101ca565b5b5f82013567ffffffffffffffff81111561041b5761041a6101ce565b5b610427848285016103bc565b91505092915050565b5f81519050919050565b5f82825260208201905092915050565b8281835e5f83830152505050565b5f61046282610430565b61046c818561043a565b935061047c81856020860161044a565b610485816102b5565b840191505092915050565b5f6020820190508181035f8301526104a88184610458565b905092915050565b5f81905092915050565b5f6104c583856104b0565b93506104d283858461036d565b82840190509392505050565b5f6104ea8284866104ba565b91508190509392505050565b5f82905092915050565b7f4e487b71000000000000000000000000000000000000000000000000000000005f52602260045260245ffd5b5f600282049050600182168061054457607f821691505b60208210810361055757610556610500565b5b50919050565b5f819050815f5260205f209050919050565b5f6020601f8301049050919050565b5f82821b905092915050565b5f600883026105b97fffffffffffffffffffffffffffffffffffffffffffffffffffffffffffffffff8261057e565b6105c3868361057e565b95508019841693508086168417925050509392505050565b5f819050919050565b5f819050919050565b5f6106076106026105fd846105db565b6105e4565b6105db565b9050919050565b5f819050919050565b610620836105ed565b61063461062c8261060e565b84845461058a565b825550505050565b5f90565b61064861063c565b610653818484610617565b505050565b5b818110156106765761066b5f82610640565b600181019050610659565b5050565b601f8211156106bb5761068c8161055d565b6106958461056f565b810160208510156106a4578190505b6106b86106b08561056f565b830182610658565b50505b505050565b5f82821c905092915050565b5f6106db5f19846008026106c0565b1980831691505092915050565b5f6106f383836106cc565b9150826002028217905092915050565b61070d83836104f6565b67ffffffffffffffff811115610726576107256102c5565b5b610730825461052d565b61073b82828561067a565b5f601f831160018114610768575f8415610756578287013590505b61076085826106e8565b8655506107c7565b601f1984166107768661055d565b5f5b8281101561079d57848901358255600182019150602085019450602081019050610778565b868310156107ba57848901356107b6601f8916826106cc565b8355505b6001600288020188555050505b50505050505050565b5f6107db838561043a565b93506107e883858461036d565b6107f1836102b5565b840190509392505050565b7f4e487b71000000000000000000000000000000000000000000000000000000005f52602160045260245ffd5b6004811061083a576108396107fc565b5b50565b5f81905061084a82610829565b919050565b5f6108598261083d565b9050919050565b6108698161084f565b82525050565b5f6060820190508181035f8301526108888187896107d0565b9050818103602083015261089d8185876107d0565b90506108ac6040830184610860565b969550505050505056fea26469706673582212209333a983cd026d94163970199a54775f13042fa53786804d363c864531b9c2e164736f6c634300081a0033",
			"opcodes": "PUSH1 0x80 PUSH1 0x40 MSTORE CALLVALUE DUP1 ISZERO PUSH1 0xE JUMPI PUSH0 DUP1 REVERT JUMPDEST POP PUSH2 0x8EC DUP1 PUSH2 0x1C PUSH0 CODECOPY PUSH0 RETURN INVALID PUSH1 0x80 PUSH1 0x40 MSTORE CALLVALUE DUP1 ISZERO PUSH2 0xF JUMPI PUSH0 DUP1 REVERT JUMPDEST POP PUSH1 0x4 CALLDATASIZE LT PUSH2 0x34 JUMPI PUSH0 CALLDATALOAD PUSH1 0xE0 SHR DUP1 PUSH4 0x7B30DE25 EQ PUSH2 0x38 JUMPI DUP1 PUSH4 0x96D436C0 EQ PUSH2 0x54 JUMPI JUMPDEST PUSH0 DUP1 REVERT JUMPDEST PUSH2 0x52 PUSH1 0x4 DUP1 CALLDATASIZE SUB DUP2 ADD SWAP1 PUSH2 0x4D SWAP2 SWAP1 PUSH2 0x233 JUMP JUMPDEST PUSH2 0x84 JUMP JUMPDEST STOP JUMPDEST PUSH2 0x6E PUSH1 0x4 DUP1 CALLDATASIZE SUB DUP2 ADD SWAP1 PUSH2 0x69 SWAP2 SWAP1 PUSH2 0x3E9 JUMP JUMPDEST PUSH2 0x10F JUMP JUMPDEST PUSH1 0x40 MLOAD PUSH2 0x7B SWAP2 SWAP1 PUSH2 0x490 JUMP JUMPDEST PUSH1 0x40 MLOAD DUP1 SWAP2 SUB SWAP1 RETURN JUMPDEST DUP2 DUP2 PUSH0 DUP7 DUP7 PUSH1 0x40 MLOAD PUSH2 0x97 SWAP3 SWAP2 SWAP1 PUSH2 0x4DE JUMP JUMPDEST SWAP1 DUP2 MSTORE PUSH1 0x20 ADD PUSH1 0x40 MLOAD DUP1 SWAP2 SUB SWAP1 KECCAK256 SWAP2 DUP3 PUSH2 0xB2 SWAP3 SWAP2 SWAP1 PUSH2 0x703 JUMP JUMPDEST POP CALLER PUSH20 0xFFFFFFFFFFFFFFFFFFFFFFFFFFFFFFFFFFFFFFFF AND PUSH32 0x644ACE9434188A5F76124851BC6415E611196AA35602F421FE38F77F86E41651 DUP6 DUP6 DUP6 DUP6 PUSH0 PUSH1 0x40 MLOAD PUSH2 0x101 SWAP6 SWAP5 SWAP4 SWAP3 SWAP2 SWAP1 PUSH2 0x86F JUMP JUMPDEST PUSH1 0x40 MLOAD DUP1 SWAP2 SUB SWAP1 LOG2 POP POP POP POP JUMP JUMPDEST PUSH0 DUP2 DUP1 MLOAD PUSH1 0x20 DUP2 ADD DUP3 ADD DUP1 MLOAD DUP5 DUP3 MSTORE PUSH1 0x20 DUP4 ADD PUSH1 0x20 DUP6 ADD KECCAK256 DUP2 DUP4 MSTORE DUP1 SWAP6 POP POP POP POP POP POP PUSH0 SWAP2 POP SWAP1 POP DUP1 SLOAD PUSH2 0x142 SWAP1 PUSH2 0x52D JUMP JUMPDEST DUP1 PUSH1 0x1F ADD PUSH1 0x20 DUP1 SWAP2 DIV MUL PUSH1 0x20 ADD PUSH1 0x40 MLOAD SWAP1 DUP2 ADD PUSH1 0x40 MSTORE DUP1 SWAP3 SWAP2 SWAP1 DUP2 DUP2 MSTORE PUSH1 0x20 ADD DUP3 DUP1 SLOAD PUSH2 0x16E SWAP1 PUSH2 0x52D JUMP JUMPDEST DUP1 ISZERO PUSH2 0x1B9 JUMPI DUP1 PUSH1 0x1F LT PUSH2 0x190 JUMPI PUSH2 0x100 DUP1 DUP4 SLOAD DIV MUL DUP4 MSTORE SWAP2 PUSH1 0x20 ADD SWAP2 PUSH2 0x1B9 JUMP JUMPDEST DUP3 ADD SWAP2 SWAP1 PUSH0 MSTORE PUSH1 0x20 PUSH0 KECCAK256 SWAP1 JUMPDEST DUP2 SLOAD DUP2 MSTORE SWAP1 PUSH1 0x1 ADD SWAP1 PUSH1 0x20 ADD DUP1 DUP4 GT PUSH2 0x19C JUMPI DUP3 SWAP1 SUB PUSH1 0x1F AND DUP3 ADD SWAP2 JUMPDEST POP POP POP POP POP DUP2 JUMP JUMPDEST PUSH0 PUSH1 0x40 MLOAD SWAP1 POP SWAP1 JUMP JUMPDEST PUSH0 DUP1 REVERT JUMPDEST PUSH0 DUP1 REVERT JUMPDEST PUSH0 DUP1 REVERT JUMPDEST PUSH0 DUP1 REVERT JUMPDEST PUSH0 DUP1 REVERT JUMPDEST PUSH0 DUP1 DUP4 PUSH1 0x1F DUP5 ADD SLT PUSH2 0x1F3 JUMPI PUSH2 0x1F2 PUSH2 0x1D2 JUMP JUMPDEST JUMPDEST DUP3 CALLDATALOAD SWAP1 POP PUSH8 0xFFFFFFFFFFFFFFFF DUP2 GT ISZERO PUSH2 0x210 JUMPI PUSH2 0x20F PUSH2 0x1D6 JUMP JUMPDEST JUMPDEST PUSH1 0x20 DUP4 ADD SWAP2 POP DUP4 PUSH1 0x1 DUP3 MUL DUP4 ADD GT ISZERO PUSH2 0x22C JUMPI PUSH2 0x22B PUSH2 0x1DA JUMP JUMPDEST JUMPDEST SWAP3 POP SWAP3 SWAP1 POP JUMP JUMPDEST PUSH0 DUP1 PUSH0 DUP1 PUSH1 0x40 DUP6 DUP8 SUB SLT ISZERO PUSH2 0x24B JUMPI PUSH2 0x24A PUSH2 0x1CA JUMP JUMPDEST JUMPDEST PUSH0 DUP6 ADD CALLDATALOAD PUSH8 0xFFFFFFFFFFFFFFFF DUP2 GT ISZERO PUSH2 0x268 JUMPI PUSH2 0x267 PUSH2 0x1CE JUMP JUMPDEST JUMPDEST PUSH2 0x274 DUP8 DUP3 DUP9 ADD PUSH2 0x1DE JUMP JUMPDEST SWAP5 POP SWAP5 POP POP PUSH1 0x20 DUP6 ADD CALLDATALOAD PUSH8 0xFFFFFFFFFFFFFFFF DUP2 GT ISZERO PUSH2 0x297 JUMPI PUSH2 0x296 PUSH2 0x1CE JUMP JUMPDEST JUMPDEST PUSH2 0x2A3 DUP8 DUP3 DUP9 ADD PUSH2 0x1DE JUMP JUMPDEST SWAP3 POP SWAP3 POP POP SWAP3 SWAP6 SWAP2 SWAP5 POP SWAP3 POP JUMP JUMPDEST PUSH0 DUP1 REVERT JUMPDEST PUSH0 PUSH1 0x1F NOT PUSH1 0x1F DUP4 ADD AND SWAP1 POP SWAP2 SWAP1 POP JUMP JUMPDEST PUSH32 0x4E487B7100000000000000000000000000000000000000000000000000000000 PUSH0 MSTORE PUSH1 0x41 PUSH1 0x4 MSTORE PUSH1 0x24 PUSH0 REVERT JUMPDEST PUSH2 0x2FB DUP3 PUSH2 0x2B5 JUMP JUMPDEST DUP2 ADD DUP2 DUP2 LT PUSH8 0xFFFFFFFFFFFFFFFF DUP3 GT OR ISZERO PUSH2 0x31A JUMPI PUSH2 0x319 PUSH2 0x2C5 JUMP JUMPDEST JUMPDEST DUP1 PUSH1 0x40 MSTORE POP POP POP JUMP JUMPDEST PUSH0 PUSH2 0x32C PUSH2 0x1C1 JUMP JUMPDEST SWAP1 POP PUSH2 0x338 DUP3 DUP3 PUSH2 0x2F2 JUMP JUMPDEST SWAP2 SWAP1 POP JUMP JUMPDEST PUSH0 PUSH8 0xFFFFFFFFFFFFFFFF DUP3 GT ISZERO PUSH2 0x357 JUMPI PUSH2 0x356 PUSH2 0x2C5 JUMP JUMPDEST JUMPDEST PUSH2 0x360 DUP3 PUSH2 0x2B5 JUMP JUMPDEST SWAP1 POP PUSH1 0x20 DUP2 ADD SWAP1 POP SWAP2 SWAP1 POP JUMP JUMPDEST DUP3 DUP2 DUP4 CALLDATACOPY PUSH0 DUP4 DUP4 ADD MSTORE POP POP POP JUMP JUMPDEST PUSH0 PUSH2 0x38D PUSH2 0x388 DUP5 PUSH2 0x33D JUMP JUMPDEST PUSH2 0x323 JUMP JUMPDEST SWAP1 POP DUP3 DUP2 MSTORE PUSH1 0x20 DUP2 ADD DUP5 DUP5 DUP5 ADD GT ISZERO PUSH2 0x3A9 JUMPI PUSH2 0x3A8 PUSH2 0x2B1 JUMP JUMPDEST JUMPDEST PUSH2 0x3B4 DUP5 DUP3 DUP6 PUSH2 0x36D JUMP JUMPDEST POP SWAP4 SWAP3 POP POP POP JUMP JUMPDEST PUSH0 DUP3 PUSH1 0x1F DUP4 ADD SLT PUSH2 0x3D0 JUMPI PUSH2 0x3CF PUSH2 0x1D2 JUMP JUMPDEST JUMPDEST DUP2 CALLDATALOAD PUSH2 0x3E0 DUP5 DUP3 PUSH1 0x20 DUP7 ADD PUSH2 0x37B JUMP JUMPDEST SWAP2 POP POP SWAP3 SWAP2 POP POP JUMP JUMPDEST PUSH0 PUSH1 0x20 DUP3 DUP5 SUB SLT ISZERO PUSH2 0x3FE JUMPI PUSH2 0x3FD PUSH2 0x1CA JUMP JUMPDEST JUMPDEST PUSH0 DUP3 ADD CALLDATALOAD PUSH8 0xFFFFFFFFFFFFFFFF DUP2 GT ISZERO PUSH2 0x41B JUMPI PUSH2 0x41A PUSH2 0x1CE JUMP JUMPDEST JUMPDEST PUSH2 0x427 DUP5 DUP3 DUP6 ADD PUSH2 0x3BC JUMP JUMPDEST SWAP2 POP POP SWAP3 SWAP2 POP POP JUMP JUMPDEST PUSH0 DUP2 MLOAD SWAP1 POP SWAP2 SWAP1 POP JUMP JUMPDEST PUSH0 DUP3 DUP3 MSTORE PUSH1 0x20 DUP3 ADD SWAP1 POP SWAP3 SWAP2 POP POP JUMP JUMPDEST DUP3 DUP2 DUP4 MCOPY PUSH0 DUP4 DUP4 ADD MSTORE POP POP POP JUMP JUMPDEST PUSH0 PUSH2 0x462 DUP3 PUSH2 0x430 JUMP JUMPDEST PUSH2 0x46C DUP2 DUP6 PUSH2 0x43A JUMP JUMPDEST SWAP4 POP PUSH2 0x47C DUP2 DUP6 PUSH1 0x20 DUP7 ADD PUSH2 0x44A JUMP JUMPDEST PUSH2 0x485 DUP2 PUSH2 0x2B5 JUMP JUMPDEST DUP5 ADD SWAP2 POP POP SWAP3 SWAP2 POP POP JUMP JUMPDEST PUSH0 PUSH1 0x20 DUP3 ADD SWAP1 POP DUP2 DUP2 SUB PUSH0 DUP4 ADD MSTORE PUSH2 0x4A8 DUP2 DUP5 PUSH2 0x458 JUMP JUMPDEST SWAP1 POP SWAP3 SWAP2 POP POP JUMP JUMPDEST PUSH0 DUP2 SWAP1 POP SWAP3 SWAP2 POP POP JUMP JUMPDEST PUSH0 PUSH2 0x4C5 DUP4 DUP6 PUSH2 0x4B0 JUMP JUMPDEST SWAP4 POP PUSH2 0x4D2 DUP4 DUP6 DUP5 PUSH2 0x36D JUMP JUMPDEST DUP3 DUP5 ADD SWAP1 POP SWAP4 SWAP3 POP POP POP JUMP JUMPDEST PUSH0 PUSH2 0x4EA DUP3 DUP5 DUP7 PUSH2 0x4BA JUMP JUMPDEST SWAP2 POP DUP2 SWAP1 POP SWAP4 SWAP3 POP POP POP JUMP JUMPDEST PUSH0 DUP3 SWAP1 POP SWAP3 SWAP2 POP POP JUMP JUMPDEST PUSH32 0x4E487B7100000000000000000000000000000000000000000000000000000000 PUSH0 MSTORE PUSH1 0x22 PUSH1 0x4 MSTORE PUSH1 0x24 PUSH0 REVERT JUMPDEST PUSH0 PUSH1 0x2 DUP3 DIV SWAP1 POP PUSH1 0x1 DUP3 AND DUP1 PUSH2 0x544 JUMPI PUSH1 0x7F DUP3 AND SWAP2 POP JUMPDEST PUSH1 0x20 DUP3 LT DUP2 SUB PUSH2 0x557 JUMPI PUSH2 0x556 PUSH2 0x500 JUMP JUMPDEST JUMPDEST POP SWAP2 SWAP1 POP JUMP JUMPDEST PUSH0 DUP2 SWAP1 POP DUP2 PUSH0 MSTORE PUSH1 0x20 PUSH0 KECCAK256 SWAP1 POP SWAP2 SWAP1 POP JUMP JUMPDEST PUSH0 PUSH1 0x20 PUSH1 0x1F DUP4 ADD DIV SWAP1 POP SWAP2 SWAP1 POP JUMP JUMPDEST PUSH0 DUP3 DUP3 SHL SWAP1 POP SWAP3 SWAP2 POP POP JUMP JUMPDEST PUSH0 PUSH1 0x8 DUP4 MUL PUSH2 0x5B9 PUSH32 0xFFFFFFFFFFFFFFFFFFFFFFFFFFFFFFFFFFFFFFFFFFFFFFFFFFFFFFFFFFFFFFFF DUP3 PUSH2 0x57E JUMP JUMPDEST PUSH2 0x5C3 DUP7 DUP4 PUSH2 0x57E JUMP JUMPDEST SWAP6 POP DUP1 NOT DUP5 AND SWAP4 POP DUP1 DUP7 AND DUP5 OR SWAP3 POP POP POP SWAP4 SWAP3 POP POP POP JUMP JUMPDEST PUSH0 DUP2 SWAP1 POP SWAP2 SWAP1 POP JUMP JUMPDEST PUSH0 DUP2 SWAP1 POP SWAP2 SWAP1 POP JUMP JUMPDEST PUSH0 PUSH2 0x607 PUSH2 0x602 PUSH2 0x5FD DUP5 PUSH2 0x5DB JUMP JUMPDEST PUSH2 0x5E4 JUMP JUMPDEST PUSH2 0x5DB JUMP JUMPDEST SWAP1 POP SWAP2 SWAP1 POP JUMP JUMPDEST PUSH0 DUP2 SWAP1 POP SWAP2 SWAP1 POP JUMP JUMPDEST PUSH2 0x620 DUP4 PUSH2 0x5ED JUMP JUMPDEST PUSH2 0x634 PUSH2 0x62C DUP3 PUSH2 0x60E JUMP JUMPDEST DUP5 DUP5 SLOAD PUSH2 0x58A JUMP JUMPDEST DUP3 SSTORE POP POP POP POP JUMP JUMPDEST PUSH0 SWAP1 JUMP JUMPDEST PUSH2 0x648 PUSH2 0x63C JUMP JUMPDEST PUSH2 0x653 DUP2 DUP5 DUP5 PUSH2 0x617 JUMP JUMPDEST POP POP POP JUMP JUMPDEST JUMPDEST DUP2 DUP2 LT ISZERO PUSH2 0x676 JUMPI PUSH2 0x66B PUSH0 DUP3 PUSH2 0x640 JUMP JUMPDEST PUSH1 0x1 DUP2 ADD SWAP1 POP PUSH2 0x659 JUMP JUMPDEST POP POP JUMP JUMPDEST PUSH1 0x1F DUP3 GT ISZERO PUSH2 0x6BB JUMPI PUSH2 0x68C DUP2 PUSH2 0x55D JUMP JUMPDEST PUSH2 0x695 DUP5 PUSH2 0x56F JUMP JUMPDEST DUP2 ADD PUSH1 0x20 DUP6 LT ISZERO PUSH2 0x6A4 JUMPI DUP2 SWAP1 POP JUMPDEST PUSH2 0x6B8 PUSH2 0x6B0 DUP6 PUSH2 0x56F JUMP JUMPDEST DUP4 ADD DUP3 PUSH2 0x658 JUMP JUMPDEST POP POP JUMPDEST POP POP POP JUMP JUMPDEST PUSH0 DUP3 DUP3 SHR SWAP1 POP SWAP3 SWAP2 POP POP JUMP JUMPDEST PUSH0 PUSH2 0x6DB PUSH0 NOT DUP5 PUSH1 0x8 MUL PUSH2 0x6C0 JUMP JUMPDEST NOT DUP1 DUP4 AND SWAP2 POP POP SWAP3 SWAP2 POP POP JUMP JUMPDEST PUSH0 PUSH2 0x6F3 DUP4 DUP4 PUSH2 0x6CC JUMP JUMPDEST SWAP2 POP DUP3 PUSH1 0x2 MUL DUP3 OR SWAP1 POP SWAP3 SWAP2 POP POP JUMP JUMPDEST PUSH2 0x70D DUP4 DUP4 PUSH2 0x4F6 JUMP JUMPDEST PUSH8 0xFFFFFFFFFFFFFFFF DUP2 GT ISZERO PUSH2 0x726 JUMPI PUSH2 0x725 PUSH2 0x2C5 JUMP JUMPDEST JUMPDEST PUSH2 0x730 DUP3 SLOAD PUSH2 0x52D JUMP JUMPDEST PUSH2 0x73B DUP3 DUP3 DUP6 PUSH2 0x67A JUMP JUMPDEST PUSH0 PUSH1 0x1F DUP4 GT PUSH1 0x1 DUP2 EQ PUSH2 0x768 JUMPI PUSH0 DUP5 ISZERO PUSH2 0x756 JUMPI DUP3 DUP8 ADD CALLDATALOAD SWAP1 POP JUMPDEST PUSH2 0x760 DUP6 DUP3 PUSH2 0x6E8 JUMP JUMPDEST DUP7 SSTORE POP PUSH2 0x7C7 JUMP JUMPDEST PUSH1 0x1F NOT DUP5 AND PUSH2 0x776 DUP7 PUSH2 0x55D JUMP JUMPDEST PUSH0 JUMPDEST DUP3 DUP2 LT ISZERO PUSH2 0x79D JUMPI DUP5 DUP10 ADD CALLDATALOAD DUP3 SSTORE PUSH1 0x1 DUP3 ADD SWAP2 POP PUSH1 0x20 DUP6 ADD SWAP5 POP PUSH1 0x20 DUP2 ADD SWAP1 POP PUSH2 0x778 JUMP JUMPDEST DUP7 DUP4 LT ISZERO PUSH2 0x7BA JUMPI DUP5 DUP10 ADD CALLDATALOAD PUSH2 0x7B6 PUSH1 0x1F DUP10 AND DUP3 PUSH2 0x6CC JUMP JUMPDEST DUP4 SSTORE POP JUMPDEST PUSH1 0x1 PUSH1 0x2 DUP9 MUL ADD DUP9 SSTORE POP POP POP JUMPDEST POP POP POP POP POP POP POP JUMP JUMPDEST PUSH0 PUSH2 0x7DB DUP4 DUP6 PUSH2 0x43A JUMP JUMPDEST SWAP4 POP PUSH2 0x7E8 DUP4 DUP6 DUP5 PUSH2 0x36D JUMP JUMPDEST PUSH2 0x7F1 DUP4 PUSH2 0x2B5 JUMP JUMPDEST DUP5 ADD SWAP1 POP SWAP4 SWAP3 POP POP POP JUMP JUMPDEST PUSH32 0x4E487B7100000000000000000000000000000000000000000000000000000000 PUSH0 MSTORE PUSH1 0x21 PUSH1 0x4 MSTORE PUSH1 0x24 PUSH0 REVERT JUMPDEST PUSH1 0x4 DUP2 LT PUSH2 0x83A JUMPI PUSH2 0x839 PUSH2 0x7FC JUMP JUMPDEST JUMPDEST POP JUMP JUMPDEST PUSH0 DUP2 SWAP1 POP PUSH2 0x84A DUP3 PUSH2 0x829 JUMP JUMPDEST SWAP2 SWAP1 POP JUMP JUMPDEST PUSH0 PUSH2 0x859 DUP3 PUSH2 0x83D JUMP JUMPDEST SWAP1 POP SWAP2 SWAP1 POP JUMP JUMPDEST PUSH2 0x869 DUP2 PUSH2 0x84F JUMP JUMPDEST DUP3 MSTORE POP POP JUMP JUMPDEST PUSH0 PUSH1 0x60 DUP3 ADD SWAP1 POP DUP2 DUP2 SUB PUSH0 DUP4 ADD MSTORE PUSH2 0x888 DUP2 DUP8 DUP10 PUSH2 0x7D0 JUMP JUMPDEST SWAP1 POP DUP2 DUP2 SUB PUSH1 0x20 DUP4 ADD MSTORE PUSH2 0x89D DUP2 DUP6 DUP8 PUSH2 0x7D0 JUMP JUMPDEST SWAP1 POP PUSH2 0x8AC PUSH1 0x40 DUP4 ADD DUP5 PUSH2 0x860 JUMP JUMPDEST SWAP7 SWAP6 POP POP POP POP POP POP JUMP INVALID LOG2 PUSH5 0x6970667358 0x22 SLT KECCAK256 SWAP4 CALLER 0xA9 DUP4 0xCD MUL PUSH14 0x94163970199A54775F13042FA537 DUP7 DUP1 0x4D CALLDATASIZE EXTCODECOPY DUP7 GASLIMIT BALANCE 0xB9 0xC2 0xE1 PUSH5 0x736F6C6343 STOP ADDMOD BYTE STOP CALLER "
		},
		"gasEstimates": {
			"creation": {
				"codeDepositCost": "456800",
				"executionCost": "491",
				"totalCost": "457291"
			},
			"external": {
				"config(string)": "infinite",
				"setConfig(string,string)": "infinite"
			}
		},
		"methodIdentifiers": {
			"config(string)": "96d436c0",
			"setConfig(string,string)": "7b30de25"
		}
	},
	"abi": [
		{
			"anonymous": false,
			"inputs": [
				{
					"indexed": true,
					"internalType": "address",
					"name": "who",
					"type": "address"
				},
				{
					"indexed": false,
					"internalType": "string",
					"name": "key",
					"type": "string"
				},
				{
					"indexed": false,
					"internalType": "string",
					"name": "value",
					"type": "string"
				},
				{
					"indexed": false,
					"internalType": "enum AdministrationControlCenterAttackType",
					"name": "attack",
					"type": "uint8"
				}
			],
			"name": "ConfigChanged",
			"type": "event"
		},
		{
			"inputs": [
				{
					"internalType": "string",
					"name": "",
					"type": "string"
				}
			],
			"name": "config",
			"outputs": [
				{
					"internalType": "string",
					"name": "",
					"type": "string"
				}
			],
			"stateMutability": "view",
			"type": "function"
		},
		{
			"inputs": [
				{
					"internalType": "string",
					"name": "key",
					"type": "string"
				},
				{
					"internalType": "string",
					"name": "value",
					"type": "string"
				}
			],
			"name": "setConfig",
			"outputs": [],
			"stateMutability": "nonpayable",
			"type": "function"
		}
	]
}