{
	"E/Eavesdropping/OffChainEncryptionProxy.sol": {
		"OffChainEncryptionProxy": {
			"abi": [
				{
					"inputs": [
						{
							"internalType": "address",
							"name": "",
							"type": "address"
						}
					],
					"name": "encryptedData",
					"outputs": [
						{
							"internalType": "bytes",
							"name": "",
							"type": "bytes"
						}
					],
					"stateMutability": "view",
					"type": "function"
				},
				{
					"inputs": [
						{
							"internalType": "bytes",
							"name": "cipher",
							"type": "bytes"
						}
					],
					"name": "storeEncrypted",
					"outputs": [],
					"stateMutability": "nonpayable",
					"type": "function"
				}
			],
			"devdoc": {
				"kind": "dev",
				"methods": {},
				"version": 1
			},
			"evm": {
				"assembly": "    /* \"E/Eavesdropping/OffChainEncryptionProxy.sol\":227:546  contract OffChainEncryptionProxy {... */\n  mstore(0x40, 0x80)\n  callvalue\n  dup1\n  iszero\n  tag_1\n  jumpi\n  0x00\n  dup1\n  revert\ntag_1:\n  pop\n  dataSize(sub_0)\n  dup1\n  dataOffset(sub_0)\n  0x00\n  codecopy\n  0x00\n  return\nstop\n\nsub_0: assembly {\n        /* \"E/Eavesdropping/OffChainEncryptionProxy.sol\":227:546  contract OffChainEncryptionProxy {... */\n      mstore(0x40, 0x80)\n      callvalue\n      dup1\n      iszero\n      tag_1\n      jumpi\n      0x00\n      dup1\n      revert\n    tag_1:\n      pop\n      jumpi(tag_2, lt(calldatasize, 0x04))\n      shr(0xe0, calldataload(0x00))\n      dup1\n      0x8efea22e\n      eq\n      tag_3\n      jumpi\n      dup1\n      0xfbf74914\n      eq\n      tag_4\n      jumpi\n    tag_2:\n      0x00\n      dup1\n      revert\n        /* \"E/Eavesdropping/OffChainEncryptionProxy.sol\":266:312  mapping(address => bytes) public encryptedData */\n    tag_3:\n      tag_5\n      0x04\n      dup1\n      calldatasize\n      sub\n      dup2\n      add\n      swap1\n      tag_6\n      swap2\n      swap1\n      tag_7\n      jump\t// in\n    tag_6:\n      tag_8\n      jump\t// in\n    tag_5:\n      mload(0x40)\n      tag_9\n      swap2\n      swap1\n      tag_10\n      jump\t// in\n    tag_9:\n      mload(0x40)\n      dup1\n      swap2\n      sub\n      swap1\n      return\n        /* \"E/Eavesdropping/OffChainEncryptionProxy.sol\":319:544  function storeEncrypted(bytes calldata cipher) external {... */\n    tag_4:\n      tag_11\n      0x04\n      dup1\n      calldatasize\n      sub\n      dup2\n      add\n      swap1\n      tag_12\n      swap2\n      swap1\n      tag_13\n      jump\t// in\n    tag_12:\n      tag_14\n      jump\t// in\n    tag_11:\n      stop\n        /* \"E/Eavesdropping/OffChainEncryptionProxy.sol\":266:312  mapping(address => bytes) public encryptedData */\n    tag_8:\n      mstore(0x20, 0x00)\n      dup1\n      0x00\n      mstore\n      keccak256(0x00, 0x40)\n      0x00\n      swap2\n      pop\n      swap1\n      pop\n      dup1\n      sload\n      tag_15\n      swap1\n      tag_16\n      jump\t// in\n    tag_15:\n      dup1\n      0x1f\n      add\n      0x20\n      dup1\n      swap2\n      div\n      mul\n      0x20\n      add\n      mload(0x40)\n      swap1\n      dup2\n      add\n      0x40\n      mstore\n      dup1\n      swap3\n      swap2\n      swap1\n      dup2\n      dup2\n      mstore\n      0x20\n      add\n      dup3\n      dup1\n      sload\n      tag_17\n      swap1\n      tag_16\n      jump\t// in\n    tag_17:\n      dup1\n      iszero\n      tag_18\n      jumpi\n      dup1\n      0x1f\n      lt\n      tag_19\n      jumpi\n      0x0100\n      dup1\n      dup4\n      sload\n      div\n      mul\n      dup4\n      mstore\n      swap2\n      0x20\n      add\n      swap2\n      jump(tag_18)\n    tag_19:\n      dup3\n      add\n      swap2\n      swap1\n      0x00\n      mstore\n      keccak256(0x00, 0x20)\n      swap1\n    tag_20:\n      dup2\n      sload\n      dup2\n      mstore\n      swap1\n      0x01\n      add\n      swap1\n      0x20\n      add\n      dup1\n      dup4\n      gt\n      tag_20\n      jumpi\n      dup3\n      swap1\n      sub\n      0x1f\n      and\n      dup3\n      add\n      swap2\n    tag_18:\n      pop\n      pop\n      pop\n      pop\n      pop\n      dup2\n      jump\t// out\n        /* \"E/Eavesdropping/OffChainEncryptionProxy.sol\":319:544  function storeEncrypted(bytes calldata cipher) external {... */\n    tag_14:\n        /* \"E/Eavesdropping/OffChainEncryptionProxy.sol\":531:537  cipher */\n      dup2\n      dup2\n        /* \"E/Eavesdropping/OffChainEncryptionProxy.sol\":503:516  encryptedData */\n      0x00\n        /* \"E/Eavesdropping/OffChainEncryptionProxy.sol\":503:528  encryptedData[msg.sender] */\n      dup1\n        /* \"E/Eavesdropping/OffChainEncryptionProxy.sol\":517:527  msg.sender */\n      caller\n        /* \"E/Eavesdropping/OffChainEncryptionProxy.sol\":503:528  encryptedData[msg.sender] */\n      0xffffffffffffffffffffffffffffffffffffffff\n      and\n      0xffffffffffffffffffffffffffffffffffffffff\n      and\n      dup2\n      mstore\n      0x20\n      add\n      swap1\n      dup2\n      mstore\n      0x20\n      add\n      0x00\n      keccak256\n        /* \"E/Eavesdropping/OffChainEncryptionProxy.sol\":503:537  encryptedData[msg.sender] = cipher */\n      swap2\n      dup3\n      tag_22\n      swap3\n      swap2\n      swap1\n      tag_23\n      jump\t// in\n    tag_22:\n      pop\n        /* \"E/Eavesdropping/OffChainEncryptionProxy.sol\":319:544  function storeEncrypted(bytes calldata cipher) external {... */\n      pop\n      pop\n      jump\t// out\n        /* \"#utility.yul\":88:205   */\n    tag_25:\n        /* \"#utility.yul\":197:198   */\n      0x00\n        /* \"#utility.yul\":194:195   */\n      dup1\n        /* \"#utility.yul\":187:199   */\n      revert\n        /* \"#utility.yul\":211:328   */\n    tag_26:\n        /* \"#utility.yul\":320:321   */\n      0x00\n        /* \"#utility.yul\":317:318   */\n      dup1\n        /* \"#utility.yul\":310:322   */\n      revert\n        /* \"#utility.yul\":334:460   */\n    tag_27:\n        /* \"#utility.yul\":371:378   */\n      0x00\n        /* \"#utility.yul\":411:453   */\n      0xffffffffffffffffffffffffffffffffffffffff\n        /* \"#utility.yul\":404:409   */\n      dup3\n        /* \"#utility.yul\":400:454   */\n      and\n        /* \"#utility.yul\":389:454   */\n      swap1\n      pop\n        /* \"#utility.yul\":334:460   */\n      swap2\n      swap1\n      pop\n      jump\t// out\n        /* \"#utility.yul\":466:562   */\n    tag_28:\n        /* \"#utility.yul\":503:510   */\n      0x00\n        /* \"#utility.yul\":532:556   */\n      tag_65\n        /* \"#utility.yul\":550:555   */\n      dup3\n        /* \"#utility.yul\":532:556   */\n      tag_27\n      jump\t// in\n    tag_65:\n        /* \"#utility.yul\":521:556   */\n      swap1\n      pop\n        /* \"#utility.yul\":466:562   */\n      swap2\n      swap1\n      pop\n      jump\t// out\n        /* \"#utility.yul\":568:690   */\n    tag_29:\n        /* \"#utility.yul\":641:665   */\n      tag_67\n        /* \"#utility.yul\":659:664   */\n      dup2\n        /* \"#utility.yul\":641:665   */\n      tag_28\n      jump\t// in\n    tag_67:\n        /* \"#utility.yul\":634:639   */\n      dup2\n        /* \"#utility.yul\":631:666   */\n      eq\n        /* \"#utility.yul\":621:684   */\n      tag_68\n      jumpi\n        /* \"#utility.yul\":680:681   */\n      0x00\n        /* \"#utility.yul\":677:678   */\n      dup1\n        /* \"#utility.yul\":670:682   */\n      revert\n        /* \"#utility.yul\":621:684   */\n    tag_68:\n        /* \"#utility.yul\":568:690   */\n      pop\n      jump\t// out\n        /* \"#utility.yul\":696:835   */\n    tag_30:\n        /* \"#utility.yul\":742:747   */\n      0x00\n        /* \"#utility.yul\":780:786   */\n      dup2\n        /* \"#utility.yul\":767:787   */\n      calldataload\n        /* \"#utility.yul\":758:787   */\n      swap1\n      pop\n        /* \"#utility.yul\":796:829   */\n      tag_70\n        /* \"#utility.yul\":823:828   */\n      dup2\n        /* \"#utility.yul\":796:829   */\n      tag_29\n      jump\t// in\n    tag_70:\n        /* \"#utility.yul\":696:835   */\n      swap3\n      swap2\n      pop\n      pop\n      jump\t// out\n        /* \"#utility.yul\":841:1170   */\n    tag_7:\n        /* \"#utility.yul\":900:906   */\n      0x00\n        /* \"#utility.yul\":949:951   */\n      0x20\n        /* \"#utility.yul\":937:946   */\n      dup3\n        /* \"#utility.yul\":928:935   */\n      dup5\n        /* \"#utility.yul\":924:947   */\n      sub\n        /* \"#utility.yul\":920:952   */\n      slt\n        /* \"#utility.yul\":917:1036   */\n      iszero\n      tag_72\n      jumpi\n        /* \"#utility.yul\":955:1034   */\n      tag_73\n      tag_25\n      jump\t// in\n    tag_73:\n        /* \"#utility.yul\":917:1036   */\n    tag_72:\n        /* \"#utility.yul\":1075:1076   */\n      0x00\n        /* \"#utility.yul\":1100:1153   */\n      tag_74\n        /* \"#utility.yul\":1145:1152   */\n      dup5\n        /* \"#utility.yul\":1136:1142   */\n      dup3\n        /* \"#utility.yul\":1125:1134   */\n      dup6\n        /* \"#utility.yul\":1121:1143   */\n      add\n        /* \"#utility.yul\":1100:1153   */\n      tag_30\n      jump\t// in\n    tag_74:\n        /* \"#utility.yul\":1090:1153   */\n      swap2\n      pop\n        /* \"#utility.yul\":1046:1163   */\n      pop\n        /* \"#utility.yul\":841:1170   */\n      swap3\n      swap2\n      pop\n      pop\n      jump\t// out\n        /* \"#utility.yul\":1176:1274   */\n    tag_31:\n        /* \"#utility.yul\":1227:1233   */\n      0x00\n        /* \"#utility.yul\":1261:1266   */\n      dup2\n        /* \"#utility.yul\":1255:1267   */\n      mload\n        /* \"#utility.yul\":1245:1267   */\n      swap1\n      pop\n        /* \"#utility.yul\":1176:1274   */\n      swap2\n      swap1\n      pop\n      jump\t// out\n        /* \"#utility.yul\":1280:1448   */\n    tag_32:\n        /* \"#utility.yul\":1363:1374   */\n      0x00\n        /* \"#utility.yul\":1397:1403   */\n      dup3\n        /* \"#utility.yul\":1392:1395   */\n      dup3\n        /* \"#utility.yul\":1385:1404   */\n      mstore\n        /* \"#utility.yul\":1437:1441   */\n      0x20\n        /* \"#utility.yul\":1432:1435   */\n      dup3\n        /* \"#utility.yul\":1428:1442   */\n      add\n        /* \"#utility.yul\":1413:1442   */\n      swap1\n      pop\n        /* \"#utility.yul\":1280:1448   */\n      swap3\n      swap2\n      pop\n      pop\n      jump\t// out\n        /* \"#utility.yul\":1454:1593   */\n    tag_33:\n        /* \"#utility.yul\":1543:1549   */\n      dup3\n        /* \"#utility.yul\":1538:1541   */\n      dup2\n        /* \"#utility.yul\":1533:1536   */\n      dup4\n        /* \"#utility.yul\":1527:1550   */\n      mcopy\n        /* \"#utility.yul\":1584:1585   */\n      0x00\n        /* \"#utility.yul\":1575:1581   */\n      dup4\n        /* \"#utility.yul\":1570:1573   */\n      dup4\n        /* \"#utility.yul\":1566:1582   */\n      add\n        /* \"#utility.yul\":1559:1586   */\n      mstore\n        /* \"#utility.yul\":1454:1593   */\n      pop\n      pop\n      pop\n      jump\t// out\n        /* \"#utility.yul\":1599:1701   */\n    tag_34:\n        /* \"#utility.yul\":1640:1646   */\n      0x00\n        /* \"#utility.yul\":1691:1693   */\n      0x1f\n        /* \"#utility.yul\":1687:1694   */\n      not\n        /* \"#utility.yul\":1682:1684   */\n      0x1f\n        /* \"#utility.yul\":1675:1680   */\n      dup4\n        /* \"#utility.yul\":1671:1685   */\n      add\n        /* \"#utility.yul\":1667:1695   */\n      and\n        /* \"#utility.yul\":1657:1695   */\n      swap1\n      pop\n        /* \"#utility.yul\":1599:1701   */\n      swap2\n      swap1\n      pop\n      jump\t// out\n        /* \"#utility.yul\":1707:2080   */\n    tag_35:\n        /* \"#utility.yul\":1793:1796   */\n      0x00\n        /* \"#utility.yul\":1821:1859   */\n      tag_80\n        /* \"#utility.yul\":1853:1858   */\n      dup3\n        /* \"#utility.yul\":1821:1859   */\n      tag_31\n      jump\t// in\n    tag_80:\n        /* \"#utility.yul\":1875:1945   */\n      tag_81\n        /* \"#utility.yul\":1938:1944   */\n      dup2\n        /* \"#utility.yul\":1933:1936   */\n      dup6\n        /* \"#utility.yul\":1875:1945   */\n      tag_32\n      jump\t// in\n    tag_81:\n        /* \"#utility.yul\":1868:1945   */\n      swap4\n      pop\n        /* \"#utility.yul\":1954:2019   */\n      tag_82\n        /* \"#utility.yul\":2012:2018   */\n      dup2\n        /* \"#utility.yul\":2007:2010   */\n      dup6\n        /* \"#utility.yul\":2000:2004   */\n      0x20\n        /* \"#utility.yul\":1993:1998   */\n      dup7\n        /* \"#utility.yul\":1989:2005   */\n      add\n        /* \"#utility.yul\":1954:2019   */\n      tag_33\n      jump\t// in\n    tag_82:\n        /* \"#utility.yul\":2044:2073   */\n      tag_83\n        /* \"#utility.yul\":2066:2072   */\n      dup2\n        /* \"#utility.yul\":2044:2073   */\n      tag_34\n      jump\t// in\n    tag_83:\n        /* \"#utility.yul\":2039:2042   */\n      dup5\n        /* \"#utility.yul\":2035:2074   */\n      add\n        /* \"#utility.yul\":2028:2074   */\n      swap2\n      pop\n        /* \"#utility.yul\":1797:2080   */\n      pop\n        /* \"#utility.yul\":1707:2080   */\n      swap3\n      swap2\n      pop\n      pop\n      jump\t// out\n        /* \"#utility.yul\":2086:2395   */\n    tag_10:\n        /* \"#utility.yul\":2197:2201   */\n      0x00\n        /* \"#utility.yul\":2235:2237   */\n      0x20\n        /* \"#utility.yul\":2224:2233   */\n      dup3\n        /* \"#utility.yul\":2220:2238   */\n      add\n        /* \"#utility.yul\":2212:2238   */\n      swap1\n      pop\n        /* \"#utility.yul\":2284:2293   */\n      dup2\n        /* \"#utility.yul\":2278:2282   */\n      dup2\n        /* \"#utility.yul\":2274:2294   */\n      sub\n        /* \"#utility.yul\":2270:2271   */\n      0x00\n        /* \"#utility.yul\":2259:2268   */\n      dup4\n        /* \"#utility.yul\":2255:2272   */\n      add\n        /* \"#utility.yul\":2248:2295   */\n      mstore\n        /* \"#utility.yul\":2312:2388   */\n      tag_85\n        /* \"#utility.yul\":2383:2387   */\n      dup2\n        /* \"#utility.yul\":2374:2380   */\n      dup5\n        /* \"#utility.yul\":2312:2388   */\n      tag_35\n      jump\t// in\n    tag_85:\n        /* \"#utility.yul\":2304:2388   */\n      swap1\n      pop\n        /* \"#utility.yul\":2086:2395   */\n      swap3\n      swap2\n      pop\n      pop\n      jump\t// out\n        /* \"#utility.yul\":2401:2518   */\n    tag_36:\n        /* \"#utility.yul\":2510:2511   */\n      0x00\n        /* \"#utility.yul\":2507:2508   */\n      dup1\n        /* \"#utility.yul\":2500:2512   */\n      revert\n        /* \"#utility.yul\":2524:2641   */\n    tag_37:\n        /* \"#utility.yul\":2633:2634   */\n      0x00\n        /* \"#utility.yul\":2630:2631   */\n      dup1\n        /* \"#utility.yul\":2623:2635   */\n      revert\n        /* \"#utility.yul\":2647:2764   */\n    tag_38:\n        /* \"#utility.yul\":2756:2757   */\n      0x00\n        /* \"#utility.yul\":2753:2754   */\n      dup1\n        /* \"#utility.yul\":2746:2758   */\n      revert\n        /* \"#utility.yul\":2783:3335   */\n    tag_39:\n        /* \"#utility.yul\":2840:2848   */\n      0x00\n        /* \"#utility.yul\":2850:2856   */\n      dup1\n        /* \"#utility.yul\":2900:2903   */\n      dup4\n        /* \"#utility.yul\":2893:2897   */\n      0x1f\n        /* \"#utility.yul\":2885:2891   */\n      dup5\n        /* \"#utility.yul\":2881:2898   */\n      add\n        /* \"#utility.yul\":2877:2904   */\n      slt\n        /* \"#utility.yul\":2867:2989   */\n      tag_90\n      jumpi\n        /* \"#utility.yul\":2908:2987   */\n      tag_91\n      tag_36\n      jump\t// in\n    tag_91:\n        /* \"#utility.yul\":2867:2989   */\n    tag_90:\n        /* \"#utility.yul\":3021:3027   */\n      dup3\n        /* \"#utility.yul\":3008:3028   */\n      calldataload\n        /* \"#utility.yul\":2998:3028   */\n      swap1\n      pop\n        /* \"#utility.yul\":3051:3069   */\n      0xffffffffffffffff\n        /* \"#utility.yul\":3043:3049   */\n      dup2\n        /* \"#utility.yul\":3040:3070   */\n      gt\n        /* \"#utility.yul\":3037:3154   */\n      iszero\n      tag_92\n      jumpi\n        /* \"#utility.yul\":3073:3152   */\n      tag_93\n      tag_37\n      jump\t// in\n    tag_93:\n        /* \"#utility.yul\":3037:3154   */\n    tag_92:\n        /* \"#utility.yul\":3187:3191   */\n      0x20\n        /* \"#utility.yul\":3179:3185   */\n      dup4\n        /* \"#utility.yul\":3175:3192   */\n      add\n        /* \"#utility.yul\":3163:3192   */\n      swap2\n      pop\n        /* \"#utility.yul\":3241:3244   */\n      dup4\n        /* \"#utility.yul\":3233:3237   */\n      0x01\n        /* \"#utility.yul\":3225:3231   */\n      dup3\n        /* \"#utility.yul\":3221:3238   */\n      mul\n        /* \"#utility.yul\":3211:3219   */\n      dup4\n        /* \"#utility.yul\":3207:3239   */\n      add\n        /* \"#utility.yul\":3204:3245   */\n      gt\n        /* \"#utility.yul\":3201:3329   */\n      iszero\n      tag_94\n      jumpi\n        /* \"#utility.yul\":3248:3327   */\n      tag_95\n      tag_38\n      jump\t// in\n    tag_95:\n        /* \"#utility.yul\":3201:3329   */\n    tag_94:\n        /* \"#utility.yul\":2783:3335   */\n      swap3\n      pop\n      swap3\n      swap1\n      pop\n      jump\t// out\n        /* \"#utility.yul\":3341:3868   */\n    tag_13:\n        /* \"#utility.yul\":3411:3417   */\n      0x00\n        /* \"#utility.yul\":3419:3425   */\n      dup1\n        /* \"#utility.yul\":3468:3470   */\n      0x20\n        /* \"#utility.yul\":3456:3465   */\n      dup4\n        /* \"#utility.yul\":3447:3454   */\n      dup6\n        /* \"#utility.yul\":3443:3466   */\n      sub\n        /* \"#utility.yul\":3439:3471   */\n      slt\n        /* \"#utility.yul\":3436:3555   */\n      iszero\n      tag_97\n      jumpi\n        /* \"#utility.yul\":3474:3553   */\n      tag_98\n      tag_25\n      jump\t// in\n    tag_98:\n        /* \"#utility.yul\":3436:3555   */\n    tag_97:\n        /* \"#utility.yul\":3622:3623   */\n      0x00\n        /* \"#utility.yul\":3611:3620   */\n      dup4\n        /* \"#utility.yul\":3607:3624   */\n      add\n        /* \"#utility.yul\":3594:3625   */\n      calldataload\n        /* \"#utility.yul\":3652:3670   */\n      0xffffffffffffffff\n        /* \"#utility.yul\":3644:3650   */\n      dup2\n        /* \"#utility.yul\":3641:3671   */\n      gt\n        /* \"#utility.yul\":3638:3755   */\n      iszero\n      tag_99\n      jumpi\n        /* \"#utility.yul\":3674:3753   */\n      tag_100\n      tag_26\n      jump\t// in\n    tag_100:\n        /* \"#utility.yul\":3638:3755   */\n    tag_99:\n        /* \"#utility.yul\":3787:3851   */\n      tag_101\n        /* \"#utility.yul\":3843:3850   */\n      dup6\n        /* \"#utility.yul\":3834:3840   */\n      dup3\n        /* \"#utility.yul\":3823:3832   */\n      dup7\n        /* \"#utility.yul\":3819:3841   */\n      add\n        /* \"#utility.yul\":3787:3851   */\n      tag_39\n      jump\t// in\n    tag_101:\n        /* \"#utility.yul\":3769:3851   */\n      swap3\n      pop\n      swap3\n      pop\n        /* \"#utility.yul\":3565:3861   */\n      pop\n        /* \"#utility.yul\":3341:3868   */\n      swap3\n      pop\n      swap3\n      swap1\n      pop\n      jump\t// out\n        /* \"#utility.yul\":3874:4054   */\n    tag_40:\n        /* \"#utility.yul\":3922:3999   */\n      0x4e487b7100000000000000000000000000000000000000000000000000000000\n        /* \"#utility.yul\":3919:3920   */\n      0x00\n        /* \"#utility.yul\":3912:4000   */\n      mstore\n        /* \"#utility.yul\":4019:4023   */\n      0x22\n        /* \"#utility.yul\":4016:4017   */\n      0x04\n        /* \"#utility.yul\":4009:4024   */\n      mstore\n        /* \"#utility.yul\":4043:4047   */\n      0x24\n        /* \"#utility.yul\":4040:4041   */\n      0x00\n        /* \"#utility.yul\":4033:4048   */\n      revert\n        /* \"#utility.yul\":4060:4380   */\n    tag_16:\n        /* \"#utility.yul\":4104:4110   */\n      0x00\n        /* \"#utility.yul\":4141:4142   */\n      0x02\n        /* \"#utility.yul\":4135:4139   */\n      dup3\n        /* \"#utility.yul\":4131:4143   */\n      div\n        /* \"#utility.yul\":4121:4143   */\n      swap1\n      pop\n        /* \"#utility.yul\":4188:4189   */\n      0x01\n        /* \"#utility.yul\":4182:4186   */\n      dup3\n        /* \"#utility.yul\":4178:4190   */\n      and\n        /* \"#utility.yul\":4209:4227   */\n      dup1\n        /* \"#utility.yul\":4199:4280   */\n      tag_104\n      jumpi\n        /* \"#utility.yul\":4265:4269   */\n      0x7f\n        /* \"#utility.yul\":4257:4263   */\n      dup3\n        /* \"#utility.yul\":4253:4270   */\n      and\n        /* \"#utility.yul\":4243:4270   */\n      swap2\n      pop\n        /* \"#utility.yul\":4199:4280   */\n    tag_104:\n        /* \"#utility.yul\":4327:4329   */\n      0x20\n        /* \"#utility.yul\":4319:4325   */\n      dup3\n        /* \"#utility.yul\":4316:4330   */\n      lt\n        /* \"#utility.yul\":4296:4314   */\n      dup2\n        /* \"#utility.yul\":4293:4331   */\n      sub\n        /* \"#utility.yul\":4290:4374   */\n      tag_105\n      jumpi\n        /* \"#utility.yul\":4346:4364   */\n      tag_106\n      tag_40\n      jump\t// in\n    tag_106:\n        /* \"#utility.yul\":4290:4374   */\n    tag_105:\n        /* \"#utility.yul\":4111:4380   */\n      pop\n        /* \"#utility.yul\":4060:4380   */\n      swap2\n      swap1\n      pop\n      jump\t// out\n        /* \"#utility.yul\":4386:4482   */\n    tag_41:\n        /* \"#utility.yul\":4444:4450   */\n      0x00\n        /* \"#utility.yul\":4472:4475   */\n      dup3\n        /* \"#utility.yul\":4462:4475   */\n      swap1\n      pop\n        /* \"#utility.yul\":4386:4482   */\n      swap3\n      swap2\n      pop\n      pop\n      jump\t// out\n        /* \"#utility.yul\":4488:4668   */\n    tag_42:\n        /* \"#utility.yul\":4536:4613   */\n      0x4e487b7100000000000000000000000000000000000000000000000000000000\n        /* \"#utility.yul\":4533:4534   */\n      0x00\n        /* \"#utility.yul\":4526:4614   */\n      mstore\n        /* \"#utility.yul\":4633:4637   */\n      0x41\n        /* \"#utility.yul\":4630:4631   */\n      0x04\n        /* \"#utility.yul\":4623:4638   */\n      mstore\n        /* \"#utility.yul\":4657:4661   */\n      0x24\n        /* \"#utility.yul\":4654:4655   */\n      0x00\n        /* \"#utility.yul\":4647:4662   */\n      revert\n        /* \"#utility.yul\":4674:4814   */\n    tag_43:\n        /* \"#utility.yul\":4722:4726   */\n      0x00\n        /* \"#utility.yul\":4745:4748   */\n      dup2\n        /* \"#utility.yul\":4737:4748   */\n      swap1\n      pop\n        /* \"#utility.yul\":4768:4771   */\n      dup2\n        /* \"#utility.yul\":4765:4766   */\n      0x00\n        /* \"#utility.yul\":4758:4772   */\n      mstore\n        /* \"#utility.yul\":4802:4806   */\n      0x20\n        /* \"#utility.yul\":4799:4800   */\n      0x00\n        /* \"#utility.yul\":4789:4807   */\n      keccak256\n        /* \"#utility.yul\":4781:4807   */\n      swap1\n      pop\n        /* \"#utility.yul\":4674:4814   */\n      swap2\n      swap1\n      pop\n      jump\t// out\n        /* \"#utility.yul\":4820:4913   */\n    tag_44:\n        /* \"#utility.yul\":4857:4863   */\n      0x00\n        /* \"#utility.yul\":4904:4906   */\n      0x20\n        /* \"#utility.yul\":4899:4901   */\n      0x1f\n        /* \"#utility.yul\":4892:4897   */\n      dup4\n        /* \"#utility.yul\":4888:4902   */\n      add\n        /* \"#utility.yul\":4884:4907   */\n      div\n        /* \"#utility.yul\":4874:4907   */\n      swap1\n      pop\n        /* \"#utility.yul\":4820:4913   */\n      swap2\n      swap1\n      pop\n      jump\t// out\n        /* \"#utility.yul\":4919:5026   */\n    tag_45:\n        /* \"#utility.yul\":4963:4971   */\n      0x00\n        /* \"#utility.yul\":5013:5018   */\n      dup3\n        /* \"#utility.yul\":5007:5011   */\n      dup3\n        /* \"#utility.yul\":5003:5019   */\n      shl\n        /* \"#utility.yul\":4982:5019   */\n      swap1\n      pop\n        /* \"#utility.yul\":4919:5026   */\n      swap3\n      swap2\n      pop\n      pop\n      jump\t// out\n        /* \"#utility.yul\":5032:5425   */\n    tag_46:\n        /* \"#utility.yul\":5101:5107   */\n      0x00\n        /* \"#utility.yul\":5151:5152   */\n      0x08\n        /* \"#utility.yul\":5139:5149   */\n      dup4\n        /* \"#utility.yul\":5135:5153   */\n      mul\n        /* \"#utility.yul\":5174:5271   */\n      tag_113\n        /* \"#utility.yul\":5204:5270   */\n      0xffffffffffffffffffffffffffffffffffffffffffffffffffffffffffffffff\n        /* \"#utility.yul\":5193:5202   */\n      dup3\n        /* \"#utility.yul\":5174:5271   */\n      tag_45\n      jump\t// in\n    tag_113:\n        /* \"#utility.yul\":5292:5331   */\n      tag_114\n        /* \"#utility.yul\":5322:5330   */\n      dup7\n        /* \"#utility.yul\":5311:5320   */\n      dup4\n        /* \"#utility.yul\":5292:5331   */\n      tag_45\n      jump\t// in\n    tag_114:\n        /* \"#utility.yul\":5280:5331   */\n      swap6\n      pop\n        /* \"#utility.yul\":5364:5368   */\n      dup1\n        /* \"#utility.yul\":5360:5369   */\n      not\n        /* \"#utility.yul\":5353:5358   */\n      dup5\n        /* \"#utility.yul\":5349:5370   */\n      and\n        /* \"#utility.yul\":5340:5370   */\n      swap4\n      pop\n        /* \"#utility.yul\":5413:5417   */\n      dup1\n        /* \"#utility.yul\":5403:5411   */\n      dup7\n        /* \"#utility.yul\":5399:5418   */\n      and\n        /* \"#utility.yul\":5392:5397   */\n      dup5\n        /* \"#utility.yul\":5389:5419   */\n      or\n        /* \"#utility.yul\":5379:5419   */\n      swap3\n      pop\n        /* \"#utility.yul\":5108:5425   */\n      pop\n      pop\n        /* \"#utility.yul\":5032:5425   */\n      swap4\n      swap3\n      pop\n      pop\n      pop\n      jump\t// out\n        /* \"#utility.yul\":5431:5508   */\n    tag_47:\n        /* \"#utility.yul\":5468:5475   */\n      0x00\n        /* \"#utility.yul\":5497:5502   */\n      dup2\n        /* \"#utility.yul\":5486:5502   */\n      swap1\n      pop\n        /* \"#utility.yul\":5431:5508   */\n      swap2\n      swap1\n      pop\n      jump\t// out\n        /* \"#utility.yul\":5514:5574   */\n    tag_48:\n        /* \"#utility.yul\":5542:5545   */\n      0x00\n        /* \"#utility.yul\":5563:5568   */\n      dup2\n        /* \"#utility.yul\":5556:5568   */\n      swap1\n      pop\n        /* \"#utility.yul\":5514:5574   */\n      swap2\n      swap1\n      pop\n      jump\t// out\n        /* \"#utility.yul\":5580:5722   */\n    tag_49:\n        /* \"#utility.yul\":5630:5639   */\n      0x00\n        /* \"#utility.yul\":5663:5716   */\n      tag_118\n        /* \"#utility.yul\":5681:5715   */\n      tag_119\n        /* \"#utility.yul\":5690:5714   */\n      tag_120\n        /* \"#utility.yul\":5708:5713   */\n      dup5\n        /* \"#utility.yul\":5690:5714   */\n      tag_47\n      jump\t// in\n    tag_120:\n        /* \"#utility.yul\":5681:5715   */\n      tag_48\n      jump\t// in\n    tag_119:\n        /* \"#utility.yul\":5663:5716   */\n      tag_47\n      jump\t// in\n    tag_118:\n        /* \"#utility.yul\":5650:5716   */\n      swap1\n      pop\n        /* \"#utility.yul\":5580:5722   */\n      swap2\n      swap1\n      pop\n      jump\t// out\n        /* \"#utility.yul\":5728:5803   */\n    tag_50:\n        /* \"#utility.yul\":5771:5774   */\n      0x00\n        /* \"#utility.yul\":5792:5797   */\n      dup2\n        /* \"#utility.yul\":5785:5797   */\n      swap1\n      pop\n        /* \"#utility.yul\":5728:5803   */\n      swap2\n      swap1\n      pop\n      jump\t// out\n        /* \"#utility.yul\":5809:6078   */\n    tag_51:\n        /* \"#utility.yul\":5919:5958   */\n      tag_123\n        /* \"#utility.yul\":5950:5957   */\n      dup4\n        /* \"#utility.yul\":5919:5958   */\n      tag_49\n      jump\t// in\n    tag_123:\n        /* \"#utility.yul\":5980:6071   */\n      tag_124\n        /* \"#utility.yul\":6029:6070   */\n      tag_125\n        /* \"#utility.yul\":6053:6069   */\n      dup3\n        /* \"#utility.yul\":6029:6070   */\n      tag_50\n      jump\t// in\n    tag_125:\n        /* \"#utility.yul\":6021:6027   */\n      dup5\n        /* \"#utility.yul\":6014:6018   */\n      dup5\n        /* \"#utility.yul\":6008:6019   */\n      sload\n        /* \"#utility.yul\":5980:6071   */\n      tag_46\n      jump\t// in\n    tag_124:\n        /* \"#utility.yul\":5974:5978   */\n      dup3\n        /* \"#utility.yul\":5967:6072   */\n      sstore\n        /* \"#utility.yul\":5885:6078   */\n      pop\n        /* \"#utility.yul\":5809:6078   */\n      pop\n      pop\n      pop\n      jump\t// out\n        /* \"#utility.yul\":6084:6157   */\n    tag_52:\n        /* \"#utility.yul\":6129:6132   */\n      0x00\n        /* \"#utility.yul\":6084:6157   */\n      swap1\n      jump\t// out\n        /* \"#utility.yul\":6163:6352   */\n    tag_53:\n        /* \"#utility.yul\":6240:6272   */\n      tag_128\n      tag_52\n      jump\t// in\n    tag_128:\n        /* \"#utility.yul\":6281:6346   */\n      tag_129\n        /* \"#utility.yul\":6339:6345   */\n      dup2\n        /* \"#utility.yul\":6331:6337   */\n      dup5\n        /* \"#utility.yul\":6325:6329   */\n      dup5\n        /* \"#utility.yul\":6281:6346   */\n      tag_51\n      jump\t// in\n    tag_129:\n        /* \"#utility.yul\":6216:6352   */\n      pop\n        /* \"#utility.yul\":6163:6352   */\n      pop\n      pop\n      jump\t// out\n        /* \"#utility.yul\":6358:6544   */\n    tag_54:\n        /* \"#utility.yul\":6418:6538   */\n    tag_131:\n        /* \"#utility.yul\":6435:6438   */\n      dup2\n        /* \"#utility.yul\":6428:6433   */\n      dup2\n        /* \"#utility.yul\":6425:6439   */\n      lt\n        /* \"#utility.yul\":6418:6538   */\n      iszero\n      tag_133\n      jumpi\n        /* \"#utility.yul\":6489:6528   */\n      tag_134\n        /* \"#utility.yul\":6526:6527   */\n      0x00\n        /* \"#utility.yul\":6519:6524   */\n      dup3\n        /* \"#utility.yul\":6489:6528   */\n      tag_53\n      jump\t// in\n    tag_134:\n        /* \"#utility.yul\":6462:6463   */\n      0x01\n        /* \"#utility.yul\":6455:6460   */\n      dup2\n        /* \"#utility.yul\":6451:6464   */\n      add\n        /* \"#utility.yul\":6442:6464   */\n      swap1\n      pop\n        /* \"#utility.yul\":6418:6538   */\n      jump(tag_131)\n    tag_133:\n        /* \"#utility.yul\":6358:6544   */\n      pop\n      pop\n      jump\t// out\n        /* \"#utility.yul\":6550:7091   */\n    tag_55:\n        /* \"#utility.yul\":6650:6652   */\n      0x1f\n        /* \"#utility.yul\":6645:6648   */\n      dup3\n        /* \"#utility.yul\":6642:6653   */\n      gt\n        /* \"#utility.yul\":6639:7084   */\n      iszero\n      tag_136\n      jumpi\n        /* \"#utility.yul\":6684:6721   */\n      tag_137\n        /* \"#utility.yul\":6715:6720   */\n      dup2\n        /* \"#utility.yul\":6684:6721   */\n      tag_43\n      jump\t// in\n    tag_137:\n        /* \"#utility.yul\":6767:6796   */\n      tag_138\n        /* \"#utility.yul\":6785:6795   */\n      dup5\n        /* \"#utility.yul\":6767:6796   */\n      tag_44\n      jump\t// in\n    tag_138:\n        /* \"#utility.yul\":6757:6765   */\n      dup2\n        /* \"#utility.yul\":6753:6797   */\n      add\n        /* \"#utility.yul\":6950:6952   */\n      0x20\n        /* \"#utility.yul\":6938:6948   */\n      dup6\n        /* \"#utility.yul\":6935:6953   */\n      lt\n        /* \"#utility.yul\":6932:6981   */\n      iszero\n      tag_139\n      jumpi\n        /* \"#utility.yul\":6971:6979   */\n      dup2\n        /* \"#utility.yul\":6956:6979   */\n      swap1\n      pop\n        /* \"#utility.yul\":6932:6981   */\n    tag_139:\n        /* \"#utility.yul\":6994:7074   */\n      tag_140\n        /* \"#utility.yul\":7050:7072   */\n      tag_141\n        /* \"#utility.yul\":7068:7071   */\n      dup6\n        /* \"#utility.yul\":7050:7072   */\n      tag_44\n      jump\t// in\n    tag_141:\n        /* \"#utility.yul\":7040:7048   */\n      dup4\n        /* \"#utility.yul\":7036:7073   */\n      add\n        /* \"#utility.yul\":7023:7034   */\n      dup3\n        /* \"#utility.yul\":6994:7074   */\n      tag_54\n      jump\t// in\n    tag_140:\n        /* \"#utility.yul\":6654:7084   */\n      pop\n      pop\n        /* \"#utility.yul\":6639:7084   */\n    tag_136:\n        /* \"#utility.yul\":6550:7091   */\n      pop\n      pop\n      pop\n      jump\t// out\n        /* \"#utility.yul\":7097:7214   */\n    tag_56:\n        /* \"#utility.yul\":7151:7159   */\n      0x00\n        /* \"#utility.yul\":7201:7206   */\n      dup3\n        /* \"#utility.yul\":7195:7199   */\n      dup3\n        /* \"#utility.yul\":7191:7207   */\n      shr\n        /* \"#utility.yul\":7170:7207   */\n      swap1\n      pop\n        /* \"#utility.yul\":7097:7214   */\n      swap3\n      swap2\n      pop\n      pop\n      jump\t// out\n        /* \"#utility.yul\":7220:7389   */\n    tag_57:\n        /* \"#utility.yul\":7264:7270   */\n      0x00\n        /* \"#utility.yul\":7297:7348   */\n      tag_144\n        /* \"#utility.yul\":7345:7346   */\n      0x00\n        /* \"#utility.yul\":7341:7347   */\n      not\n        /* \"#utility.yul\":7333:7338   */\n      dup5\n        /* \"#utility.yul\":7330:7331   */\n      0x08\n        /* \"#utility.yul\":7326:7339   */\n      mul\n        /* \"#utility.yul\":7297:7348   */\n      tag_56\n      jump\t// in\n    tag_144:\n        /* \"#utility.yul\":7293:7349   */\n      not\n        /* \"#utility.yul\":7378:7382   */\n      dup1\n        /* \"#utility.yul\":7372:7376   */\n      dup4\n        /* \"#utility.yul\":7368:7383   */\n      and\n        /* \"#utility.yul\":7358:7383   */\n      swap2\n      pop\n        /* \"#utility.yul\":7271:7389   */\n      pop\n        /* \"#utility.yul\":7220:7389   */\n      swap3\n      swap2\n      pop\n      pop\n      jump\t// out\n        /* \"#utility.yul\":7394:7689   */\n    tag_58:\n        /* \"#utility.yul\":7470:7474   */\n      0x00\n        /* \"#utility.yul\":7616:7645   */\n      tag_146\n        /* \"#utility.yul\":7641:7644   */\n      dup4\n        /* \"#utility.yul\":7635:7639   */\n      dup4\n        /* \"#utility.yul\":7616:7645   */\n      tag_57\n      jump\t// in\n    tag_146:\n        /* \"#utility.yul\":7608:7645   */\n      swap2\n      pop\n        /* \"#utility.yul\":7678:7681   */\n      dup3\n        /* \"#utility.yul\":7675:7676   */\n      0x02\n        /* \"#utility.yul\":7671:7682   */\n      mul\n        /* \"#utility.yul\":7665:7669   */\n      dup3\n        /* \"#utility.yul\":7662:7683   */\n      or\n        /* \"#utility.yul\":7654:7683   */\n      swap1\n      pop\n        /* \"#utility.yul\":7394:7689   */\n      swap3\n      swap2\n      pop\n      pop\n      jump\t// out\n        /* \"#utility.yul\":7694:9092   */\n    tag_23:\n        /* \"#utility.yul\":7816:7859   */\n      tag_148\n        /* \"#utility.yul\":7855:7858   */\n      dup4\n        /* \"#utility.yul\":7850:7853   */\n      dup4\n        /* \"#utility.yul\":7816:7859   */\n      tag_41\n      jump\t// in\n    tag_148:\n        /* \"#utility.yul\":7924:7942   */\n      0xffffffffffffffff\n        /* \"#utility.yul\":7916:7922   */\n      dup2\n        /* \"#utility.yul\":7913:7943   */\n      gt\n        /* \"#utility.yul\":7910:7966   */\n      iszero\n      tag_149\n      jumpi\n        /* \"#utility.yul\":7946:7964   */\n      tag_150\n      tag_42\n      jump\t// in\n    tag_150:\n        /* \"#utility.yul\":7910:7966   */\n    tag_149:\n        /* \"#utility.yul\":7990:8028   */\n      tag_151\n        /* \"#utility.yul\":8022:8026   */\n      dup3\n        /* \"#utility.yul\":8016:8027   */\n      sload\n        /* \"#utility.yul\":7990:8028   */\n      tag_16\n      jump\t// in\n    tag_151:\n        /* \"#utility.yul\":8075:8141   */\n      tag_152\n        /* \"#utility.yul\":8134:8140   */\n      dup3\n        /* \"#utility.yul\":8126:8132   */\n      dup3\n        /* \"#utility.yul\":8120:8124   */\n      dup6\n        /* \"#utility.yul\":8075:8141   */\n      tag_55\n      jump\t// in\n    tag_152:\n        /* \"#utility.yul\":8168:8169   */\n      0x00\n        /* \"#utility.yul\":8197:8199   */\n      0x1f\n        /* \"#utility.yul\":8189:8195   */\n      dup4\n        /* \"#utility.yul\":8186:8200   */\n      gt\n        /* \"#utility.yul\":8214:8215   */\n      0x01\n        /* \"#utility.yul\":8209:8840   */\n      dup2\n      eq\n      tag_154\n      jumpi\n        /* \"#utility.yul\":8884:8885   */\n      0x00\n        /* \"#utility.yul\":8901:8907   */\n      dup5\n        /* \"#utility.yul\":8898:8982   */\n      iszero\n      tag_155\n      jumpi\n        /* \"#utility.yul\":8957:8966   */\n      dup3\n        /* \"#utility.yul\":8952:8955   */\n      dup8\n        /* \"#utility.yul\":8948:8967   */\n      add\n        /* \"#utility.yul\":8935:8968   */\n      calldataload\n        /* \"#utility.yul\":8926:8968   */\n      swap1\n      pop\n        /* \"#utility.yul\":8898:8982   */\n    tag_155:\n        /* \"#utility.yul\":9008:9075   */\n      tag_156\n        /* \"#utility.yul\":9068:9074   */\n      dup6\n        /* \"#utility.yul\":9061:9066   */\n      dup3\n        /* \"#utility.yul\":9008:9075   */\n      tag_58\n      jump\t// in\n    tag_156:\n        /* \"#utility.yul\":9002:9006   */\n      dup7\n        /* \"#utility.yul\":8995:9076   */\n      sstore\n        /* \"#utility.yul\":8857:9086   */\n      pop\n        /* \"#utility.yul\":8179:9086   */\n      jump(tag_153)\n        /* \"#utility.yul\":8209:8840   */\n    tag_154:\n        /* \"#utility.yul\":8261:8265   */\n      0x1f\n        /* \"#utility.yul\":8257:8266   */\n      not\n        /* \"#utility.yul\":8249:8255   */\n      dup5\n        /* \"#utility.yul\":8245:8267   */\n      and\n        /* \"#utility.yul\":8295:8331   */\n      tag_157\n        /* \"#utility.yul\":8326:8330   */\n      dup7\n        /* \"#utility.yul\":8295:8331   */\n      tag_43\n      jump\t// in\n    tag_157:\n        /* \"#utility.yul\":8353:8354   */\n      0x00\n        /* \"#utility.yul\":8367:8582   */\n    tag_158:\n        /* \"#utility.yul\":8381:8388   */\n      dup3\n        /* \"#utility.yul\":8378:8379   */\n      dup2\n        /* \"#utility.yul\":8375:8389   */\n      lt\n        /* \"#utility.yul\":8367:8582   */\n      iszero\n      tag_160\n      jumpi\n        /* \"#utility.yul\":8467:8476   */\n      dup5\n        /* \"#utility.yul\":8462:8465   */\n      dup10\n        /* \"#utility.yul\":8458:8477   */\n      add\n        /* \"#utility.yul\":8445:8478   */\n      calldataload\n        /* \"#utility.yul\":8437:8443   */\n      dup3\n        /* \"#utility.yul\":8430:8479   */\n      sstore\n        /* \"#utility.yul\":8518:8519   */\n      0x01\n        /* \"#utility.yul\":8510:8516   */\n      dup3\n        /* \"#utility.yul\":8506:8520   */\n      add\n        /* \"#utility.yul\":8496:8520   */\n      swap2\n      pop\n        /* \"#utility.yul\":8565:8567   */\n      0x20\n        /* \"#utility.yul\":8554:8563   */\n      dup6\n        /* \"#utility.yul\":8550:8568   */\n      add\n        /* \"#utility.yul\":8537:8568   */\n      swap5\n      pop\n        /* \"#utility.yul\":8404:8408   */\n      0x20\n        /* \"#utility.yul\":8401:8402   */\n      dup2\n        /* \"#utility.yul\":8397:8409   */\n      add\n        /* \"#utility.yul\":8392:8409   */\n      swap1\n      pop\n        /* \"#utility.yul\":8367:8582   */\n      jump(tag_158)\n    tag_160:\n        /* \"#utility.yul\":8610:8616   */\n      dup7\n        /* \"#utility.yul\":8601:8608   */\n      dup4\n        /* \"#utility.yul\":8598:8617   */\n      lt\n        /* \"#utility.yul\":8595:8781   */\n      iszero\n      tag_161\n      jumpi\n        /* \"#utility.yul\":8675:8684   */\n      dup5\n        /* \"#utility.yul\":8670:8673   */\n      dup10\n        /* \"#utility.yul\":8666:8685   */\n      add\n        /* \"#utility.yul\":8653:8686   */\n      calldataload\n        /* \"#utility.yul\":8718:8766   */\n      tag_162\n        /* \"#utility.yul\":8760:8764   */\n      0x1f\n        /* \"#utility.yul\":8752:8758   */\n      dup10\n        /* \"#utility.yul\":8748:8765   */\n      and\n        /* \"#utility.yul\":8737:8746   */\n      dup3\n        /* \"#utility.yul\":8718:8766   */\n      tag_57\n      jump\t// in\n    tag_162:\n        /* \"#utility.yul\":8710:8716   */\n      dup4\n        /* \"#utility.yul\":8703:8767   */\n      sstore\n        /* \"#utility.yul\":8618:8781   */\n      pop\n        /* \"#utility.yul\":8595:8781   */\n    tag_161:\n        /* \"#utility.yul\":8827:8828   */\n      0x01\n        /* \"#utility.yul\":8823:8824   */\n      0x02\n        /* \"#utility.yul\":8815:8821   */\n      dup9\n        /* \"#utility.yul\":8811:8825   */\n      mul\n        /* \"#utility.yul\":8807:8829   */\n      add\n        /* \"#utility.yul\":8801:8805   */\n      dup9\n        /* \"#utility.yul\":8794:8830   */\n      sstore\n        /* \"#utility.yul\":8216:8840   */\n      pop\n      pop\n      pop\n        /* \"#utility.yul\":8179:9086   */\n    tag_153:\n      pop\n        /* \"#utility.yul\":7791:9092   */\n      pop\n      pop\n      pop\n        /* \"#utility.yul\":7694:9092   */\n      pop\n      pop\n      pop\n      jump\t// out\n\n    auxdata: 0xa2646970667358221220c66b1a1bfcb12b66c4acc86e992c4960c79c9679a13e6ca6b618da18bf6048f664736f6c634300081a0033\n}\n",
				"bytecode": {
					"linkReferences": {},
					"object": "6080604052348015600e575f80fd5b506106748061001c5f395ff3fe608060405234801561000f575f80fd5b5060043610610034575f3560e01c80638efea22e14610038578063fbf7491414610068575b5f80fd5b610052600480360381019061004d91906101d0565b610084565b60405161005f919061026b565b60405180910390f35b610082600480360381019061007d91906102ec565b61011e565b005b5f602052805f5260405f205f91509050805461009f90610364565b80601f01602080910402602001604051908101604052809291908181526020018280546100cb90610364565b80156101165780601f106100ed57610100808354040283529160200191610116565b820191905f5260205f20905b8154815290600101906020018083116100f957829003601f168201915b505050505081565b81815f803373ffffffffffffffffffffffffffffffffffffffff1673ffffffffffffffffffffffffffffffffffffffff1681526020019081526020015f209182610169929190610571565b505050565b5f80fd5b5f80fd5b5f73ffffffffffffffffffffffffffffffffffffffff82169050919050565b5f61019f82610176565b9050919050565b6101af81610195565b81146101b9575f80fd5b50565b5f813590506101ca816101a6565b92915050565b5f602082840312156101e5576101e461016e565b5b5f6101f2848285016101bc565b91505092915050565b5f81519050919050565b5f82825260208201905092915050565b8281835e5f83830152505050565b5f601f19601f8301169050919050565b5f61023d826101fb565b6102478185610205565b9350610257818560208601610215565b61026081610223565b840191505092915050565b5f6020820190508181035f8301526102838184610233565b905092915050565b5f80fd5b5f80fd5b5f80fd5b5f8083601f8401126102ac576102ab61028b565b5b8235905067ffffffffffffffff8111156102c9576102c861028f565b5b6020830191508360018202830111156102e5576102e4610293565b5b9250929050565b5f80602083850312156103025761030161016e565b5b5f83013567ffffffffffffffff81111561031f5761031e610172565b5b61032b85828601610297565b92509250509250929050565b7f4e487b71000000000000000000000000000000000000000000000000000000005f52602260045260245ffd5b5f600282049050600182168061037b57607f821691505b60208210810361038e5761038d610337565b5b50919050565b5f82905092915050565b7f4e487b71000000000000000000000000000000000000000000000000000000005f52604160045260245ffd5b5f819050815f5260205f209050919050565b5f6020601f8301049050919050565b5f82821b905092915050565b5f600883026104277fffffffffffffffffffffffffffffffffffffffffffffffffffffffffffffffff826103ec565b61043186836103ec565b95508019841693508086168417925050509392505050565b5f819050919050565b5f819050919050565b5f61047561047061046b84610449565b610452565b610449565b9050919050565b5f819050919050565b61048e8361045b565b6104a261049a8261047c565b8484546103f8565b825550505050565b5f90565b6104b66104aa565b6104c1818484610485565b505050565b5b818110156104e4576104d95f826104ae565b6001810190506104c7565b5050565b601f821115610529576104fa816103cb565b610503846103dd565b81016020851015610512578190505b61052661051e856103dd565b8301826104c6565b50505b505050565b5f82821c905092915050565b5f6105495f198460080261052e565b1980831691505092915050565b5f610561838361053a565b9150826002028217905092915050565b61057b8383610394565b67ffffffffffffffff8111156105945761059361039e565b5b61059e8254610364565b6105a98282856104e8565b5f601f8311600181146105d6575f84156105c4578287013590505b6105ce8582610556565b865550610635565b601f1984166105e4866103cb565b5f5b8281101561060b578489013582556001820191506020850194506020810190506105e6565b868310156106285784890135610624601f89168261053a565b8355505b6001600288020188555050505b5050505050505056fea2646970667358221220c66b1a1bfcb12b66c4acc86e992c4960c79c9679a13e6ca6b618da18bf6048f664736f6c634300081a0033",
					"opcodes": "PUSH1 0x80 PUSH1 0x40 MSTORE CALLVALUE DUP1 ISZERO PUSH1 0xE JUMPI PUSH0 DUP1 REVERT JUMPDEST POP PUSH2 0x674 DUP1 PUSH2 0x1C PUSH0 CODECOPY PUSH0 RETURN INVALID PUSH1 0x80 PUSH1 0x40 MSTORE CALLVALUE DUP1 ISZERO PUSH2 0xF JUMPI PUSH0 DUP1 REVERT JUMPDEST POP PUSH1 0x4 CALLDATASIZE LT PUSH2 0x34 JUMPI PUSH0 CALLDATALOAD PUSH1 0xE0 SHR DUP1 PUSH4 0x8EFEA22E EQ PUSH2 0x38 JUMPI DUP1 PUSH4 0xFBF74914 EQ PUSH2 0x68 JUMPI JUMPDEST PUSH0 DUP1 REVERT JUMPDEST PUSH2 0x52 PUSH1 0x4 DUP1 CALLDATASIZE SUB DUP2 ADD SWAP1 PUSH2 0x4D SWAP2 SWAP1 PUSH2 0x1D0 JUMP JUMPDEST PUSH2 0x84 JUMP JUMPDEST PUSH1 0x40 MLOAD PUSH2 0x5F SWAP2 SWAP1 PUSH2 0x26B JUMP JUMPDEST PUSH1 0x40 MLOAD DUP1 SWAP2 SUB SWAP1 RETURN JUMPDEST PUSH2 0x82 PUSH1 0x4 DUP1 CALLDATASIZE SUB DUP2 ADD SWAP1 PUSH2 0x7D SWAP2 SWAP1 PUSH2 0x2EC JUMP JUMPDEST PUSH2 0x11E JUMP JUMPDEST STOP JUMPDEST PUSH0 PUSH1 0x20 MSTORE DUP1 PUSH0 MSTORE PUSH1 0x40 PUSH0 KECCAK256 PUSH0 SWAP2 POP SWAP1 POP DUP1 SLOAD PUSH2 0x9F SWAP1 PUSH2 0x364 JUMP JUMPDEST DUP1 PUSH1 0x1F ADD PUSH1 0x20 DUP1 SWAP2 DIV MUL PUSH1 0x20 ADD PUSH1 0x40 MLOAD SWAP1 DUP2 ADD PUSH1 0x40 MSTORE DUP1 SWAP3 SWAP2 SWAP1 DUP2 DUP2 MSTORE PUSH1 0x20 ADD DUP3 DUP1 SLOAD PUSH2 0xCB SWAP1 PUSH2 0x364 JUMP JUMPDEST DUP1 ISZERO PUSH2 0x116 JUMPI DUP1 PUSH1 0x1F LT PUSH2 0xED JUMPI PUSH2 0x100 DUP1 DUP4 SLOAD DIV MUL DUP4 MSTORE SWAP2 PUSH1 0x20 ADD SWAP2 PUSH2 0x116 JUMP JUMPDEST DUP3 ADD SWAP2 SWAP1 PUSH0 MSTORE PUSH1 0x20 PUSH0 KECCAK256 SWAP1 JUMPDEST DUP2 SLOAD DUP2 MSTORE SWAP1 PUSH1 0x1 ADD SWAP1 PUSH1 0x20 ADD DUP1 DUP4 GT PUSH2 0xF9 JUMPI DUP3 SWAP1 SUB PUSH1 0x1F AND DUP3 ADD SWAP2 JUMPDEST POP POP POP POP POP DUP2 JUMP JUMPDEST DUP2 DUP2 PUSH0 DUP1 CALLER PUSH20 0xFFFFFFFFFFFFFFFFFFFFFFFFFFFFFFFFFFFFFFFF AND PUSH20 0xFFFFFFFFFFFFFFFFFFFFFFFFFFFFFFFFFFFFFFFF AND DUP2 MSTORE PUSH1 0x20 ADD SWAP1 DUP2 MSTORE PUSH1 0x20 ADD PUSH0 KECCAK256 SWAP2 DUP3 PUSH2 0x169 SWAP3 SWAP2 SWAP1 PUSH2 0x571 JUMP JUMPDEST POP POP POP JUMP JUMPDEST PUSH0 DUP1 REVERT JUMPDEST PUSH0 DUP1 REVERT JUMPDEST PUSH0 PUSH20 0xFFFFFFFFFFFFFFFFFFFFFFFFFFFFFFFFFFFFFFFF DUP3 AND SWAP1 POP SWAP2 SWAP1 POP JUMP JUMPDEST PUSH0 PUSH2 0x19F DUP3 PUSH2 0x176 JUMP JUMPDEST SWAP1 POP SWAP2 SWAP1 POP JUMP JUMPDEST PUSH2 0x1AF DUP2 PUSH2 0x195 JUMP JUMPDEST DUP2 EQ PUSH2 0x1B9 JUMPI PUSH0 DUP1 REVERT JUMPDEST POP JUMP JUMPDEST PUSH0 DUP2 CALLDATALOAD SWAP1 POP PUSH2 0x1CA DUP2 PUSH2 0x1A6 JUMP JUMPDEST SWAP3 SWAP2 POP POP JUMP JUMPDEST PUSH0 PUSH1 0x20 DUP3 DUP5 SUB SLT ISZERO PUSH2 0x1E5 JUMPI PUSH2 0x1E4 PUSH2 0x16E JUMP JUMPDEST JUMPDEST PUSH0 PUSH2 0x1F2 DUP5 DUP3 DUP6 ADD PUSH2 0x1BC JUMP JUMPDEST SWAP2 POP POP SWAP3 SWAP2 POP POP JUMP JUMPDEST PUSH0 DUP2 MLOAD SWAP1 POP SWAP2 SWAP1 POP JUMP JUMPDEST PUSH0 DUP3 DUP3 MSTORE PUSH1 0x20 DUP3 ADD SWAP1 POP SWAP3 SWAP2 POP POP JUMP JUMPDEST DUP3 DUP2 DUP4 MCOPY PUSH0 DUP4 DUP4 ADD MSTORE POP POP POP JUMP JUMPDEST PUSH0 PUSH1 0x1F NOT PUSH1 0x1F DUP4 ADD AND SWAP1 POP SWAP2 SWAP1 POP JUMP JUMPDEST PUSH0 PUSH2 0x23D DUP3 PUSH2 0x1FB JUMP JUMPDEST PUSH2 0x247 DUP2 DUP6 PUSH2 0x205 JUMP JUMPDEST SWAP4 POP PUSH2 0x257 DUP2 DUP6 PUSH1 0x20 DUP7 ADD PUSH2 0x215 JUMP JUMPDEST PUSH2 0x260 DUP2 PUSH2 0x223 JUMP JUMPDEST DUP5 ADD SWAP2 POP POP SWAP3 SWAP2 POP POP JUMP JUMPDEST PUSH0 PUSH1 0x20 DUP3 ADD SWAP1 POP DUP2 DUP2 SUB PUSH0 DUP4 ADD MSTORE PUSH2 0x283 DUP2 DUP5 PUSH2 0x233 JUMP JUMPDEST SWAP1 POP SWAP3 SWAP2 POP POP JUMP JUMPDEST PUSH0 DUP1 REVERT JUMPDEST PUSH0 DUP1 REVERT JUMPDEST PUSH0 DUP1 REVERT JUMPDEST PUSH0 DUP1 DUP4 PUSH1 0x1F DUP5 ADD SLT PUSH2 0x2AC JUMPI PUSH2 0x2AB PUSH2 0x28B JUMP JUMPDEST JUMPDEST DUP3 CALLDATALOAD SWAP1 POP PUSH8 0xFFFFFFFFFFFFFFFF DUP2 GT ISZERO PUSH2 0x2C9 JUMPI PUSH2 0x2C8 PUSH2 0x28F JUMP JUMPDEST JUMPDEST PUSH1 0x20 DUP4 ADD SWAP2 POP DUP4 PUSH1 0x1 DUP3 MUL DUP4 ADD GT ISZERO PUSH2 0x2E5 JUMPI PUSH2 0x2E4 PUSH2 0x293 JUMP JUMPDEST JUMPDEST SWAP3 POP SWAP3 SWAP1 POP JUMP JUMPDEST PUSH0 DUP1 PUSH1 0x20 DUP4 DUP6 SUB SLT ISZERO PUSH2 0x302 JUMPI PUSH2 0x301 PUSH2 0x16E JUMP JUMPDEST JUMPDEST PUSH0 DUP4 ADD CALLDATALOAD PUSH8 0xFFFFFFFFFFFFFFFF DUP2 GT ISZERO PUSH2 0x31F JUMPI PUSH2 0x31E PUSH2 0x172 JUMP JUMPDEST JUMPDEST PUSH2 0x32B DUP6 DUP3 DUP7 ADD PUSH2 0x297 JUMP JUMPDEST SWAP3 POP SWAP3 POP POP SWAP3 POP SWAP3 SWAP1 POP JUMP JUMPDEST PUSH32 0x4E487B7100000000000000000000000000000000000000000000000000000000 PUSH0 MSTORE PUSH1 0x22 PUSH1 0x4 MSTORE PUSH1 0x24 PUSH0 REVERT JUMPDEST PUSH0 PUSH1 0x2 DUP3 DIV SWAP1 POP PUSH1 0x1 DUP3 AND DUP1 PUSH2 0x37B JUMPI PUSH1 0x7F DUP3 AND SWAP2 POP JUMPDEST PUSH1 0x20 DUP3 LT DUP2 SUB PUSH2 0x38E JUMPI PUSH2 0x38D PUSH2 0x337 JUMP JUMPDEST JUMPDEST POP SWAP2 SWAP1 POP JUMP JUMPDEST PUSH0 DUP3 SWAP1 POP SWAP3 SWAP2 POP POP JUMP JUMPDEST PUSH32 0x4E487B7100000000000000000000000000000000000000000000000000000000 PUSH0 MSTORE PUSH1 0x41 PUSH1 0x4 MSTORE PUSH1 0x24 PUSH0 REVERT JUMPDEST PUSH0 DUP2 SWAP1 POP DUP2 PUSH0 MSTORE PUSH1 0x20 PUSH0 KECCAK256 SWAP1 POP SWAP2 SWAP1 POP JUMP JUMPDEST PUSH0 PUSH1 0x20 PUSH1 0x1F DUP4 ADD DIV SWAP1 POP SWAP2 SWAP1 POP JUMP JUMPDEST PUSH0 DUP3 DUP3 SHL SWAP1 POP SWAP3 SWAP2 POP POP JUMP JUMPDEST PUSH0 PUSH1 0x8 DUP4 MUL PUSH2 0x427 PUSH32 0xFFFFFFFFFFFFFFFFFFFFFFFFFFFFFFFFFFFFFFFFFFFFFFFFFFFFFFFFFFFFFFFF DUP3 PUSH2 0x3EC JUMP JUMPDEST PUSH2 0x431 DUP7 DUP4 PUSH2 0x3EC JUMP JUMPDEST SWAP6 POP DUP1 NOT DUP5 AND SWAP4 POP DUP1 DUP7 AND DUP5 OR SWAP3 POP POP POP SWAP4 SWAP3 POP POP POP JUMP JUMPDEST PUSH0 DUP2 SWAP1 POP SWAP2 SWAP1 POP JUMP JUMPDEST PUSH0 DUP2 SWAP1 POP SWAP2 SWAP1 POP JUMP JUMPDEST PUSH0 PUSH2 0x475 PUSH2 0x470 PUSH2 0x46B DUP5 PUSH2 0x449 JUMP JUMPDEST PUSH2 0x452 JUMP JUMPDEST PUSH2 0x449 JUMP JUMPDEST SWAP1 POP SWAP2 SWAP1 POP JUMP JUMPDEST PUSH0 DUP2 SWAP1 POP SWAP2 SWAP1 POP JUMP JUMPDEST PUSH2 0x48E DUP4 PUSH2 0x45B JUMP JUMPDEST PUSH2 0x4A2 PUSH2 0x49A DUP3 PUSH2 0x47C JUMP JUMPDEST DUP5 DUP5 SLOAD PUSH2 0x3F8 JUMP JUMPDEST DUP3 SSTORE POP POP POP POP JUMP JUMPDEST PUSH0 SWAP1 JUMP JUMPDEST PUSH2 0x4B6 PUSH2 0x4AA JUMP JUMPDEST PUSH2 0x4C1 DUP2 DUP5 DUP5 PUSH2 0x485 JUMP JUMPDEST POP POP POP JUMP JUMPDEST JUMPDEST DUP2 DUP2 LT ISZERO PUSH2 0x4E4 JUMPI PUSH2 0x4D9 PUSH0 DUP3 PUSH2 0x4AE JUMP JUMPDEST PUSH1 0x1 DUP2 ADD SWAP1 POP PUSH2 0x4C7 JUMP JUMPDEST POP POP JUMP JUMPDEST PUSH1 0x1F DUP3 GT ISZERO PUSH2 0x529 JUMPI PUSH2 0x4FA DUP2 PUSH2 0x3CB JUMP JUMPDEST PUSH2 0x503 DUP5 PUSH2 0x3DD JUMP JUMPDEST DUP2 ADD PUSH1 0x20 DUP6 LT ISZERO PUSH2 0x512 JUMPI DUP2 SWAP1 POP JUMPDEST PUSH2 0x526 PUSH2 0x51E DUP6 PUSH2 0x3DD JUMP JUMPDEST DUP4 ADD DUP3 PUSH2 0x4C6 JUMP JUMPDEST POP POP JUMPDEST POP POP POP JUMP JUMPDEST PUSH0 DUP3 DUP3 SHR SWAP1 POP SWAP3 SWAP2 POP POP JUMP JUMPDEST PUSH0 PUSH2 0x549 PUSH0 NOT DUP5 PUSH1 0x8 MUL PUSH2 0x52E JUMP JUMPDEST NOT DUP1 DUP4 AND SWAP2 POP POP SWAP3 SWAP2 POP POP JUMP JUMPDEST PUSH0 PUSH2 0x561 DUP4 DUP4 PUSH2 0x53A JUMP JUMPDEST SWAP2 POP DUP3 PUSH1 0x2 MUL DUP3 OR SWAP1 POP SWAP3 SWAP2 POP POP JUMP JUMPDEST PUSH2 0x57B DUP4 DUP4 PUSH2 0x394 JUMP JUMPDEST PUSH8 0xFFFFFFFFFFFFFFFF DUP2 GT ISZERO PUSH2 0x594 JUMPI PUSH2 0x593 PUSH2 0x39E JUMP JUMPDEST JUMPDEST PUSH2 0x59E DUP3 SLOAD PUSH2 0x364 JUMP JUMPDEST PUSH2 0x5A9 DUP3 DUP3 DUP6 PUSH2 0x4E8 JUMP JUMPDEST PUSH0 PUSH1 0x1F DUP4 GT PUSH1 0x1 DUP2 EQ PUSH2 0x5D6 JUMPI PUSH0 DUP5 ISZERO PUSH2 0x5C4 JUMPI DUP3 DUP8 ADD CALLDATALOAD SWAP1 POP JUMPDEST PUSH2 0x5CE DUP6 DUP3 PUSH2 0x556 JUMP JUMPDEST DUP7 SSTORE POP PUSH2 0x635 JUMP JUMPDEST PUSH1 0x1F NOT DUP5 AND PUSH2 0x5E4 DUP7 PUSH2 0x3CB JUMP JUMPDEST PUSH0 JUMPDEST DUP3 DUP2 LT ISZERO PUSH2 0x60B JUMPI DUP5 DUP10 ADD CALLDATALOAD DUP3 SSTORE PUSH1 0x1 DUP3 ADD SWAP2 POP PUSH1 0x20 DUP6 ADD SWAP5 POP PUSH1 0x20 DUP2 ADD SWAP1 POP PUSH2 0x5E6 JUMP JUMPDEST DUP7 DUP4 LT ISZERO PUSH2 0x628 JUMPI DUP5 DUP10 ADD CALLDATALOAD PUSH2 0x624 PUSH1 0x1F DUP10 AND DUP3 PUSH2 0x53A JUMP JUMPDEST DUP4 SSTORE POP JUMPDEST PUSH1 0x1 PUSH1 0x2 DUP9 MUL ADD DUP9 SSTORE POP POP POP JUMPDEST POP POP POP POP POP POP POP JUMP INVALID LOG2 PUSH5 0x6970667358 0x22 SLT KECCAK256 0xC6 PUSH12 0x1A1BFCB12B66C4ACC86E992C BLOBHASH PUSH1 0xC7 SWAP13 SWAP7 PUSH26 0xA13E6CA6B618DA18BF6048F664736F6C634300081A0033000000 "
				},
				"gasEstimates": {
					"creation": {
						"codeDepositCost": "330400",
						"executionCost": "366",
						"totalCost": "330766"
					},
					"external": {
						"encryptedData(address)": "infinite",
						"storeEncrypted(bytes)": "infinite"
					}
				},
				"methodIdentifiers": {
					"encryptedData(address)": "8efea22e",
					"storeEncrypted(bytes)": "fbf74914"
				}
			},
			"storageLayout": {
				"storage": [
					{
						"astId": 6,
						"contract": "E/Eavesdropping/OffChainEncryptionProxy.sol:OffChainEncryptionProxy",
						"label": "encryptedData",
						"offset": 0,
						"slot": "0",
						"type": "t_mapping(t_address,t_bytes_storage)"
					}
				],
				"types": {
					"t_address": {
						"encoding": "inplace",
						"label": "address",
						"numberOfBytes": "20"
					},
					"t_bytes_storage": {
						"encoding": "bytes",
						"label": "bytes",
						"numberOfBytes": "32"
					},
					"t_mapping(t_address,t_bytes_storage)": {
						"encoding": "mapping",
						"key": "t_address",
						"label": "mapping(address => bytes)",
						"numberOfBytes": "32",
						"value": "t_bytes_storage"
					}
				}
			},
			"userdoc": {
				"kind": "user",
				"methods": {},
				"notice": "Another approach: user encrypts data off-chain,  sends only an encrypted blob or pointer on-chain.  Eavesdroppers see ciphertext, not the actual value.",
				"version": 1
			}
		}
	}
}