{
	"data": {
		"bytecode": {
			"linkReferences": {},
			"object": "6080604052348015600e575f80fd5b5061042e8061001c5f395ff3fe608060405234801561000f575f80fd5b5060043610610029575f3560e01c8063e5c5e9a31461002d575b5f80fd5b610047600480360381019061004291906100ff565b61005d565b60405161005491906101ba565b60405180910390f35b60605f83836004908092610073939291906101e2565b810190610080919061039e565b9150508091505092915050565b5f604051905090565b5f80fd5b5f80fd5b5f80fd5b5f80fd5b5f80fd5b5f8083601f8401126100bf576100be61009e565b5b8235905067ffffffffffffffff8111156100dc576100db6100a2565b5b6020830191508360018202830111156100f8576100f76100a6565b5b9250929050565b5f806020838503121561011557610114610096565b5b5f83013567ffffffffffffffff8111156101325761013161009a565b5b61013e858286016100aa565b92509250509250929050565b5f81519050919050565b5f82825260208201905092915050565b8281835e5f83830152505050565b5f601f19601f8301169050919050565b5f61018c8261014a565b6101968185610154565b93506101a6818560208601610164565b6101af81610172565b840191505092915050565b5f6020820190508181035f8301526101d28184610182565b905092915050565b5f80fd5b5f80fd5b5f80858511156101f5576101f46101da565b5b83861115610206576102056101de565b5b6001850283019150848603905094509492505050565b5f73ffffffffffffffffffffffffffffffffffffffff82169050919050565b5f6102458261021c565b9050919050565b6102558161023b565b811461025f575f80fd5b50565b5f813590506102708161024c565b92915050565b5f80fd5b7f4e487b71000000000000000000000000000000000000000000000000000000005f52604160045260245ffd5b6102b082610172565b810181811067ffffffffffffffff821117156102cf576102ce61027a565b5b80604052505050565b5f6102e161008d565b90506102ed82826102a7565b919050565b5f67ffffffffffffffff82111561030c5761030b61027a565b5b61031582610172565b9050602081019050919050565b828183375f83830152505050565b5f61034261033d846102f2565b6102d8565b90508281526020810184848401111561035e5761035d610276565b5b610369848285610322565b509392505050565b5f82601f8301126103855761038461009e565b5b8135610395848260208601610330565b91505092915050565b5f80604083850312156103b4576103b3610096565b5b5f6103c185828601610262565b925050602083013567ffffffffffffffff8111156103e2576103e161009a565b5b6103ee85828601610371565b915050925092905056fea2646970667358221220bba93e092a59c68d221cc990748f64992ca8ee3d0132417a914a25c5f158fcb164736f6c634300081a0033",
			"opcodes": "PUSH1 0x80 PUSH1 0x40 MSTORE CALLVALUE DUP1 ISZERO PUSH1 0xE JUMPI PUSH0 DUP1 REVERT JUMPDEST POP PUSH2 0x42E DUP1 PUSH2 0x1C PUSH0 CODECOPY PUSH0 RETURN INVALID PUSH1 0x80 PUSH1 0x40 MSTORE CALLVALUE DUP1 ISZERO PUSH2 0xF JUMPI PUSH0 DUP1 REVERT JUMPDEST POP PUSH1 0x4 CALLDATASIZE LT PUSH2 0x29 JUMPI PUSH0 CALLDATALOAD PUSH1 0xE0 SHR DUP1 PUSH4 0xE5C5E9A3 EQ PUSH2 0x2D JUMPI JUMPDEST PUSH0 DUP1 REVERT JUMPDEST PUSH2 0x47 PUSH1 0x4 DUP1 CALLDATASIZE SUB DUP2 ADD SWAP1 PUSH2 0x42 SWAP2 SWAP1 PUSH2 0xFF JUMP JUMPDEST PUSH2 0x5D JUMP JUMPDEST PUSH1 0x40 MLOAD PUSH2 0x54 SWAP2 SWAP1 PUSH2 0x1BA JUMP JUMPDEST PUSH1 0x40 MLOAD DUP1 SWAP2 SUB SWAP1 RETURN JUMPDEST PUSH1 0x60 PUSH0 DUP4 DUP4 PUSH1 0x4 SWAP1 DUP1 SWAP3 PUSH2 0x73 SWAP4 SWAP3 SWAP2 SWAP1 PUSH2 0x1E2 JUMP JUMPDEST DUP2 ADD SWAP1 PUSH2 0x80 SWAP2 SWAP1 PUSH2 0x39E JUMP JUMPDEST SWAP2 POP POP DUP1 SWAP2 POP POP SWAP3 SWAP2 POP POP JUMP JUMPDEST PUSH0 PUSH1 0x40 MLOAD SWAP1 POP SWAP1 JUMP JUMPDEST PUSH0 DUP1 REVERT JUMPDEST PUSH0 DUP1 REVERT JUMPDEST PUSH0 DUP1 REVERT JUMPDEST PUSH0 DUP1 REVERT JUMPDEST PUSH0 DUP1 REVERT JUMPDEST PUSH0 DUP1 DUP4 PUSH1 0x1F DUP5 ADD SLT PUSH2 0xBF JUMPI PUSH2 0xBE PUSH2 0x9E JUMP JUMPDEST JUMPDEST DUP3 CALLDATALOAD SWAP1 POP PUSH8 0xFFFFFFFFFFFFFFFF DUP2 GT ISZERO PUSH2 0xDC JUMPI PUSH2 0xDB PUSH2 0xA2 JUMP JUMPDEST JUMPDEST PUSH1 0x20 DUP4 ADD SWAP2 POP DUP4 PUSH1 0x1 DUP3 MUL DUP4 ADD GT ISZERO PUSH2 0xF8 JUMPI PUSH2 0xF7 PUSH2 0xA6 JUMP JUMPDEST JUMPDEST SWAP3 POP SWAP3 SWAP1 POP JUMP JUMPDEST PUSH0 DUP1 PUSH1 0x20 DUP4 DUP6 SUB SLT ISZERO PUSH2 0x115 JUMPI PUSH2 0x114 PUSH2 0x96 JUMP JUMPDEST JUMPDEST PUSH0 DUP4 ADD CALLDATALOAD PUSH8 0xFFFFFFFFFFFFFFFF DUP2 GT ISZERO PUSH2 0x132 JUMPI PUSH2 0x131 PUSH2 0x9A JUMP JUMPDEST JUMPDEST PUSH2 0x13E DUP6 DUP3 DUP7 ADD PUSH2 0xAA JUMP JUMPDEST SWAP3 POP SWAP3 POP POP SWAP3 POP SWAP3 SWAP1 POP JUMP JUMPDEST PUSH0 DUP2 MLOAD SWAP1 POP SWAP2 SWAP1 POP JUMP JUMPDEST PUSH0 DUP3 DUP3 MSTORE PUSH1 0x20 DUP3 ADD SWAP1 POP SWAP3 SWAP2 POP POP JUMP JUMPDEST DUP3 DUP2 DUP4 MCOPY PUSH0 DUP4 DUP4 ADD MSTORE POP POP POP JUMP JUMPDEST PUSH0 PUSH1 0x1F NOT PUSH1 0x1F DUP4 ADD AND SWAP1 POP SWAP2 SWAP1 POP JUMP JUMPDEST PUSH0 PUSH2 0x18C DUP3 PUSH2 0x14A JUMP JUMPDEST PUSH2 0x196 DUP2 DUP6 PUSH2 0x154 JUMP JUMPDEST SWAP4 POP PUSH2 0x1A6 DUP2 DUP6 PUSH1 0x20 DUP7 ADD PUSH2 0x164 JUMP JUMPDEST PUSH2 0x1AF DUP2 PUSH2 0x172 JUMP JUMPDEST DUP5 ADD SWAP2 POP POP SWAP3 SWAP2 POP POP JUMP JUMPDEST PUSH0 PUSH1 0x20 DUP3 ADD SWAP1 POP DUP2 DUP2 SUB PUSH0 DUP4 ADD MSTORE PUSH2 0x1D2 DUP2 DUP5 PUSH2 0x182 JUMP JUMPDEST SWAP1 POP SWAP3 SWAP2 POP POP JUMP JUMPDEST PUSH0 DUP1 REVERT JUMPDEST PUSH0 DUP1 REVERT JUMPDEST PUSH0 DUP1 DUP6 DUP6 GT ISZERO PUSH2 0x1F5 JUMPI PUSH2 0x1F4 PUSH2 0x1DA JUMP JUMPDEST JUMPDEST DUP4 DUP7 GT ISZERO PUSH2 0x206 JUMPI PUSH2 0x205 PUSH2 0x1DE JUMP JUMPDEST JUMPDEST PUSH1 0x1 DUP6 MUL DUP4 ADD SWAP2 POP DUP5 DUP7 SUB SWAP1 POP SWAP5 POP SWAP5 SWAP3 POP POP POP JUMP JUMPDEST PUSH0 PUSH20 0xFFFFFFFFFFFFFFFFFFFFFFFFFFFFFFFFFFFFFFFF DUP3 AND SWAP1 POP SWAP2 SWAP1 POP JUMP JUMPDEST PUSH0 PUSH2 0x245 DUP3 PUSH2 0x21C JUMP JUMPDEST SWAP1 POP SWAP2 SWAP1 POP JUMP JUMPDEST PUSH2 0x255 DUP2 PUSH2 0x23B JUMP JUMPDEST DUP2 EQ PUSH2 0x25F JUMPI PUSH0 DUP1 REVERT JUMPDEST POP JUMP JUMPDEST PUSH0 DUP2 CALLDATALOAD SWAP1 POP PUSH2 0x270 DUP2 PUSH2 0x24C JUMP JUMPDEST SWAP3 SWAP2 POP POP JUMP JUMPDEST PUSH0 DUP1 REVERT JUMPDEST PUSH32 0x4E487B7100000000000000000000000000000000000000000000000000000000 PUSH0 MSTORE PUSH1 0x41 PUSH1 0x4 MSTORE PUSH1 0x24 PUSH0 REVERT JUMPDEST PUSH2 0x2B0 DUP3 PUSH2 0x172 JUMP JUMPDEST DUP2 ADD DUP2 DUP2 LT PUSH8 0xFFFFFFFFFFFFFFFF DUP3 GT OR ISZERO PUSH2 0x2CF JUMPI PUSH2 0x2CE PUSH2 0x27A JUMP JUMPDEST JUMPDEST DUP1 PUSH1 0x40 MSTORE POP POP POP JUMP JUMPDEST PUSH0 PUSH2 0x2E1 PUSH2 0x8D JUMP JUMPDEST SWAP1 POP PUSH2 0x2ED DUP3 DUP3 PUSH2 0x2A7 JUMP JUMPDEST SWAP2 SWAP1 POP JUMP JUMPDEST PUSH0 PUSH8 0xFFFFFFFFFFFFFFFF DUP3 GT ISZERO PUSH2 0x30C JUMPI PUSH2 0x30B PUSH2 0x27A JUMP JUMPDEST JUMPDEST PUSH2 0x315 DUP3 PUSH2 0x172 JUMP JUMPDEST SWAP1 POP PUSH1 0x20 DUP2 ADD SWAP1 POP SWAP2 SWAP1 POP JUMP JUMPDEST DUP3 DUP2 DUP4 CALLDATACOPY PUSH0 DUP4 DUP4 ADD MSTORE POP POP POP JUMP JUMPDEST PUSH0 PUSH2 0x342 PUSH2 0x33D DUP5 PUSH2 0x2F2 JUMP JUMPDEST PUSH2 0x2D8 JUMP JUMPDEST SWAP1 POP DUP3 DUP2 MSTORE PUSH1 0x20 DUP2 ADD DUP5 DUP5 DUP5 ADD GT ISZERO PUSH2 0x35E JUMPI PUSH2 0x35D PUSH2 0x276 JUMP JUMPDEST JUMPDEST PUSH2 0x369 DUP5 DUP3 DUP6 PUSH2 0x322 JUMP JUMPDEST POP SWAP4 SWAP3 POP POP POP JUMP JUMPDEST PUSH0 DUP3 PUSH1 0x1F DUP4 ADD SLT PUSH2 0x385 JUMPI PUSH2 0x384 PUSH2 0x9E JUMP JUMPDEST JUMPDEST DUP2 CALLDATALOAD PUSH2 0x395 DUP5 DUP3 PUSH1 0x20 DUP7 ADD PUSH2 0x330 JUMP JUMPDEST SWAP2 POP POP SWAP3 SWAP2 POP POP JUMP JUMPDEST PUSH0 DUP1 PUSH1 0x40 DUP4 DUP6 SUB SLT ISZERO PUSH2 0x3B4 JUMPI PUSH2 0x3B3 PUSH2 0x96 JUMP JUMPDEST JUMPDEST PUSH0 PUSH2 0x3C1 DUP6 DUP3 DUP7 ADD PUSH2 0x262 JUMP JUMPDEST SWAP3 POP POP PUSH1 0x20 DUP4 ADD CALLDATALOAD PUSH8 0xFFFFFFFFFFFFFFFF DUP2 GT ISZERO PUSH2 0x3E2 JUMPI PUSH2 0x3E1 PUSH2 0x9A JUMP JUMPDEST JUMPDEST PUSH2 0x3EE DUP6 DUP3 DUP7 ADD PUSH2 0x371 JUMP JUMPDEST SWAP2 POP POP SWAP3 POP SWAP3 SWAP1 POP JUMP INVALID LOG2 PUSH5 0x6970667358 0x22 SLT KECCAK256 0xBB 0xA9 RETURNDATACOPY MULMOD 0x2A MSIZE 0xC6 DUP14 0x22 SHR 0xC9 SWAP1 PUSH21 0x8F64992CA8EE3D0132417A914A25C5F158FCB16473 PUSH16 0x6C634300081A00330000000000000000 "
		},
		"gasEstimates": {
			"creation": {
				"codeDepositCost": "214000",
				"executionCost": "255",
				"totalCost": "214255"
			},
			"external": {
				"decode(bytes)": "infinite"
			}
		},
		"methodIdentifiers": {
			"decode(bytes)": "e5c5e9a3"
		}
	},
	"abi": [
		{
			"inputs": [
				{
					"internalType": "bytes",
					"name": "input",
					"type": "bytes"
				}
			],
			"name": "decode",
			"outputs": [
				{
					"internalType": "string",
					"name": "",
					"type": "string"
				}
			],
			"stateMutability": "pure",
			"type": "function"
		}
	]
}