{
	"B/Bruteforce/Brute Force Resistant Contract (Rate-limiting + attempt cap) defense.sol": {
		"BruteForceDefender": {
			"abi": [
				{
					"inputs": [
						{
							"internalType": "string",
							"name": "_secret",
							"type": "string"
						}
					],
					"stateMutability": "nonpayable",
					"type": "constructor"
				},
				{
					"inputs": [
						{
							"internalType": "address",
							"name": "",
							"type": "address"
						}
					],
					"name": "attempts",
					"outputs": [
						{
							"internalType": "uint256",
							"name": "",
							"type": "uint256"
						}
					],
					"stateMutability": "view",
					"type": "function"
				},
				{
					"inputs": [],
					"name": "cooldown",
					"outputs": [
						{
							"internalType": "uint256",
							"name": "",
							"type": "uint256"
						}
					],
					"stateMutability": "view",
					"type": "function"
				},
				{
					"inputs": [
						{
							"internalType": "string",
							"name": "guessWord",
							"type": "string"
						}
					],
					"name": "guessProtected",
					"outputs": [
						{
							"internalType": "bool",
							"name": "",
							"type": "bool"
						}
					],
					"stateMutability": "view",
					"type": "function"
				},
				{
					"inputs": [
						{
							"internalType": "string",
							"name": "guessWord",
							"type": "string"
						}
					],
					"name": "guessWithLimits",
					"outputs": [
						{
							"internalType": "bool",
							"name": "",
							"type": "bool"
						}
					],
					"stateMutability": "nonpayable",
					"type": "function"
				},
				{
					"inputs": [
						{
							"internalType": "address",
							"name": "",
							"type": "address"
						}
					],
					"name": "lastAttemptTime",
					"outputs": [
						{
							"internalType": "uint256",
							"name": "",
							"type": "uint256"
						}
					],
					"stateMutability": "view",
					"type": "function"
				},
				{
					"inputs": [],
					"name": "maxAttempts",
					"outputs": [
						{
							"internalType": "uint256",
							"name": "",
							"type": "uint256"
						}
					],
					"stateMutability": "view",
					"type": "function"
				},
				{
					"inputs": [
						{
							"internalType": "address",
							"name": "user",
							"type": "address"
						}
					],
					"name": "resetAttempts",
					"outputs": [],
					"stateMutability": "nonpayable",
					"type": "function"
				}
			],
			"devdoc": {
				"kind": "dev",
				"methods": {},
				"version": 1
			},
			"evm": {
				"assembly": "    /* \"B/Bruteforce/Brute Force Resistant Contract (Rate-limiting + attempt cap) defense.sol\":58:1104  contract BruteForceDefender {... */\n  mstore(0x40, 0x80)\n    /* \"B/Bruteforce/Brute Force Resistant Contract (Rate-limiting + attempt cap) defense.sol\":153:154  5 */\n  0x05\n    /* \"B/Bruteforce/Brute Force Resistant Contract (Rate-limiting + attempt cap) defense.sol\":124:154  uint256 public maxAttempts = 5 */\n  0x01\n  sstore\n    /* \"B/Bruteforce/Brute Force Resistant Contract (Rate-limiting + attempt cap) defense.sol\":291:293  60 */\n  0x3c\n    /* \"B/Bruteforce/Brute Force Resistant Contract (Rate-limiting + attempt cap) defense.sol\":265:293  uint256 public cooldown = 60 */\n  0x04\n  sstore\n    /* \"B/Bruteforce/Brute Force Resistant Contract (Rate-limiting + attempt cap) defense.sol\":311:412  constructor(string memory _secret) {... */\n  callvalue\n  dup1\n  iszero\n  tag_1\n  jumpi\n  revert(0x00, 0x00)\ntag_1:\n  pop\n  mload(0x40)\n  sub(codesize, bytecodeSize)\n  dup1\n  bytecodeSize\n  dup4\n  codecopy\n  dup2\n  dup2\n  add\n  0x40\n  mstore\n  dup2\n  add\n  swap1\n  tag_2\n  swap2\n  swap1\n  tag_3\n  jump\t// in\ntag_2:\n    /* \"B/Bruteforce/Brute Force Resistant Contract (Rate-limiting + attempt cap) defense.sol\":396:403  _secret */\n  dup1\n    /* \"B/Bruteforce/Brute Force Resistant Contract (Rate-limiting + attempt cap) defense.sol\":379:404  abi.encodePacked(_secret) */\n  add(0x20, mload(0x40))\n  tag_6\n  swap2\n  swap1\n  tag_7\n  jump\t// in\ntag_6:\n  mload(0x40)\n  0x20\n  dup2\n  dup4\n  sub\n  sub\n  dup2\n  mstore\n  swap1\n  0x40\n  mstore\n    /* \"B/Bruteforce/Brute Force Resistant Contract (Rate-limiting + attempt cap) defense.sol\":369:405  keccak256(abi.encodePacked(_secret)) */\n  dup1\n  mload\n  swap1\n  0x20\n  add\n  keccak256\n    /* \"B/Bruteforce/Brute Force Resistant Contract (Rate-limiting + attempt cap) defense.sol\":356:366  secretHash */\n  0x00\n    /* \"B/Bruteforce/Brute Force Resistant Contract (Rate-limiting + attempt cap) defense.sol\":356:405  secretHash = keccak256(abi.encodePacked(_secret)) */\n  dup2\n  swap1\n  sstore\n  pop\n    /* \"B/Bruteforce/Brute Force Resistant Contract (Rate-limiting + attempt cap) defense.sol\":311:412  constructor(string memory _secret) {... */\n  pop\n    /* \"B/Bruteforce/Brute Force Resistant Contract (Rate-limiting + attempt cap) defense.sol\":58:1104  contract BruteForceDefender {... */\n  jump(tag_8)\n    /* \"#utility.yul\":7:82   */\ntag_9:\n    /* \"#utility.yul\":40:46   */\n  0x00\n    /* \"#utility.yul\":73:75   */\n  0x40\n    /* \"#utility.yul\":67:76   */\n  mload\n    /* \"#utility.yul\":57:76   */\n  swap1\n  pop\n    /* \"#utility.yul\":7:82   */\n  swap1\n  jump\t// out\n    /* \"#utility.yul\":88:205   */\ntag_10:\n    /* \"#utility.yul\":197:198   */\n  0x00\n    /* \"#utility.yul\":194:195   */\n  0x00\n    /* \"#utility.yul\":187:199   */\n  revert\n    /* \"#utility.yul\":211:328   */\ntag_11:\n    /* \"#utility.yul\":320:321   */\n  0x00\n    /* \"#utility.yul\":317:318   */\n  0x00\n    /* \"#utility.yul\":310:322   */\n  revert\n    /* \"#utility.yul\":334:451   */\ntag_12:\n    /* \"#utility.yul\":443:444   */\n  0x00\n    /* \"#utility.yul\":440:441   */\n  0x00\n    /* \"#utility.yul\":433:445   */\n  revert\n    /* \"#utility.yul\":457:574   */\ntag_13:\n    /* \"#utility.yul\":566:567   */\n  0x00\n    /* \"#utility.yul\":563:564   */\n  0x00\n    /* \"#utility.yul\":556:568   */\n  revert\n    /* \"#utility.yul\":580:682   */\ntag_14:\n    /* \"#utility.yul\":621:627   */\n  0x00\n    /* \"#utility.yul\":672:674   */\n  0x1f\n    /* \"#utility.yul\":668:675   */\n  not\n    /* \"#utility.yul\":663:665   */\n  0x1f\n    /* \"#utility.yul\":656:661   */\n  dup4\n    /* \"#utility.yul\":652:666   */\n  add\n    /* \"#utility.yul\":648:676   */\n  and\n    /* \"#utility.yul\":638:676   */\n  swap1\n  pop\n    /* \"#utility.yul\":580:682   */\n  swap2\n  swap1\n  pop\n  jump\t// out\n    /* \"#utility.yul\":688:868   */\ntag_15:\n    /* \"#utility.yul\":736:813   */\n  0x4e487b7100000000000000000000000000000000000000000000000000000000\n    /* \"#utility.yul\":733:734   */\n  0x00\n    /* \"#utility.yul\":726:814   */\n  mstore\n    /* \"#utility.yul\":833:837   */\n  0x41\n    /* \"#utility.yul\":830:831   */\n  0x04\n    /* \"#utility.yul\":823:838   */\n  mstore\n    /* \"#utility.yul\":857:861   */\n  0x24\n    /* \"#utility.yul\":854:855   */\n  0x00\n    /* \"#utility.yul\":847:862   */\n  revert\n    /* \"#utility.yul\":874:1155   */\ntag_16:\n    /* \"#utility.yul\":957:984   */\n  tag_34\n    /* \"#utility.yul\":979:983   */\n  dup3\n    /* \"#utility.yul\":957:984   */\n  tag_14\n  jump\t// in\ntag_34:\n    /* \"#utility.yul\":949:955   */\n  dup2\n    /* \"#utility.yul\":945:985   */\n  add\n    /* \"#utility.yul\":1087:1093   */\n  dup2\n    /* \"#utility.yul\":1075:1085   */\n  dup2\n    /* \"#utility.yul\":1072:1094   */\n  lt\n    /* \"#utility.yul\":1051:1069   */\n  0xffffffffffffffff\n    /* \"#utility.yul\":1039:1049   */\n  dup3\n    /* \"#utility.yul\":1036:1070   */\n  gt\n    /* \"#utility.yul\":1033:1095   */\n  or\n    /* \"#utility.yul\":1030:1118   */\n  iszero\n  tag_35\n  jumpi\n    /* \"#utility.yul\":1098:1116   */\n  tag_36\n  tag_15\n  jump\t// in\ntag_36:\n    /* \"#utility.yul\":1030:1118   */\ntag_35:\n    /* \"#utility.yul\":1138:1148   */\n  dup1\n    /* \"#utility.yul\":1134:1136   */\n  0x40\n    /* \"#utility.yul\":1127:1149   */\n  mstore\n    /* \"#utility.yul\":917:1155   */\n  pop\n    /* \"#utility.yul\":874:1155   */\n  pop\n  pop\n  jump\t// out\n    /* \"#utility.yul\":1161:1290   */\ntag_17:\n    /* \"#utility.yul\":1195:1201   */\n  0x00\n    /* \"#utility.yul\":1222:1242   */\n  tag_38\n  tag_9\n  jump\t// in\ntag_38:\n    /* \"#utility.yul\":1212:1242   */\n  swap1\n  pop\n    /* \"#utility.yul\":1251:1284   */\n  tag_39\n    /* \"#utility.yul\":1279:1283   */\n  dup3\n    /* \"#utility.yul\":1271:1277   */\n  dup3\n    /* \"#utility.yul\":1251:1284   */\n  tag_16\n  jump\t// in\ntag_39:\n    /* \"#utility.yul\":1161:1290   */\n  swap2\n  swap1\n  pop\n  jump\t// out\n    /* \"#utility.yul\":1296:1604   */\ntag_18:\n    /* \"#utility.yul\":1358:1362   */\n  0x00\n    /* \"#utility.yul\":1448:1466   */\n  0xffffffffffffffff\n    /* \"#utility.yul\":1440:1446   */\n  dup3\n    /* \"#utility.yul\":1437:1467   */\n  gt\n    /* \"#utility.yul\":1434:1490   */\n  iszero\n  tag_41\n  jumpi\n    /* \"#utility.yul\":1470:1488   */\n  tag_42\n  tag_15\n  jump\t// in\ntag_42:\n    /* \"#utility.yul\":1434:1490   */\ntag_41:\n    /* \"#utility.yul\":1508:1537   */\n  tag_43\n    /* \"#utility.yul\":1530:1536   */\n  dup3\n    /* \"#utility.yul\":1508:1537   */\n  tag_14\n  jump\t// in\ntag_43:\n    /* \"#utility.yul\":1500:1537   */\n  swap1\n  pop\n    /* \"#utility.yul\":1592:1596   */\n  0x20\n    /* \"#utility.yul\":1586:1590   */\n  dup2\n    /* \"#utility.yul\":1582:1597   */\n  add\n    /* \"#utility.yul\":1574:1597   */\n  swap1\n  pop\n    /* \"#utility.yul\":1296:1604   */\n  swap2\n  swap1\n  pop\n  jump\t// out\n    /* \"#utility.yul\":1610:1749   */\ntag_19:\n    /* \"#utility.yul\":1699:1705   */\n  dup3\n    /* \"#utility.yul\":1694:1697   */\n  dup2\n    /* \"#utility.yul\":1689:1692   */\n  dup4\n    /* \"#utility.yul\":1683:1706   */\n  mcopy\n    /* \"#utility.yul\":1740:1741   */\n  0x00\n    /* \"#utility.yul\":1731:1737   */\n  dup4\n    /* \"#utility.yul\":1726:1729   */\n  dup4\n    /* \"#utility.yul\":1722:1738   */\n  add\n    /* \"#utility.yul\":1715:1742   */\n  mstore\n    /* \"#utility.yul\":1610:1749   */\n  pop\n  pop\n  pop\n  jump\t// out\n    /* \"#utility.yul\":1755:2189   */\ntag_20:\n    /* \"#utility.yul\":1844:1849   */\n  0x00\n    /* \"#utility.yul\":1869:1935   */\n  tag_46\n    /* \"#utility.yul\":1885:1934   */\n  tag_47\n    /* \"#utility.yul\":1927:1933   */\n  dup5\n    /* \"#utility.yul\":1885:1934   */\n  tag_18\n  jump\t// in\ntag_47:\n    /* \"#utility.yul\":1869:1935   */\n  tag_17\n  jump\t// in\ntag_46:\n    /* \"#utility.yul\":1860:1935   */\n  swap1\n  pop\n    /* \"#utility.yul\":1958:1964   */\n  dup3\n    /* \"#utility.yul\":1951:1956   */\n  dup2\n    /* \"#utility.yul\":1944:1965   */\n  mstore\n    /* \"#utility.yul\":1996:2000   */\n  0x20\n    /* \"#utility.yul\":1989:1994   */\n  dup2\n    /* \"#utility.yul\":1985:2001   */\n  add\n    /* \"#utility.yul\":2034:2037   */\n  dup5\n    /* \"#utility.yul\":2025:2031   */\n  dup5\n    /* \"#utility.yul\":2020:2023   */\n  dup5\n    /* \"#utility.yul\":2016:2032   */\n  add\n    /* \"#utility.yul\":2013:2038   */\n  gt\n    /* \"#utility.yul\":2010:2122   */\n  iszero\n  tag_48\n  jumpi\n    /* \"#utility.yul\":2041:2120   */\n  tag_49\n  tag_13\n  jump\t// in\ntag_49:\n    /* \"#utility.yul\":2010:2122   */\ntag_48:\n    /* \"#utility.yul\":2131:2183   */\n  tag_50\n    /* \"#utility.yul\":2176:2182   */\n  dup5\n    /* \"#utility.yul\":2171:2174   */\n  dup3\n    /* \"#utility.yul\":2166:2169   */\n  dup6\n    /* \"#utility.yul\":2131:2183   */\n  tag_19\n  jump\t// in\ntag_50:\n    /* \"#utility.yul\":1850:2189   */\n  pop\n    /* \"#utility.yul\":1755:2189   */\n  swap4\n  swap3\n  pop\n  pop\n  pop\n  jump\t// out\n    /* \"#utility.yul\":2209:2564   */\ntag_21:\n    /* \"#utility.yul\":2276:2281   */\n  0x00\n    /* \"#utility.yul\":2325:2328   */\n  dup3\n    /* \"#utility.yul\":2318:2322   */\n  0x1f\n    /* \"#utility.yul\":2310:2316   */\n  dup4\n    /* \"#utility.yul\":2306:2323   */\n  add\n    /* \"#utility.yul\":2302:2329   */\n  slt\n    /* \"#utility.yul\":2292:2414   */\n  tag_52\n  jumpi\n    /* \"#utility.yul\":2333:2412   */\n  tag_53\n  tag_12\n  jump\t// in\ntag_53:\n    /* \"#utility.yul\":2292:2414   */\ntag_52:\n    /* \"#utility.yul\":2443:2449   */\n  dup2\n    /* \"#utility.yul\":2437:2450   */\n  mload\n    /* \"#utility.yul\":2468:2558   */\n  tag_54\n    /* \"#utility.yul\":2554:2557   */\n  dup5\n    /* \"#utility.yul\":2546:2552   */\n  dup3\n    /* \"#utility.yul\":2539:2543   */\n  0x20\n    /* \"#utility.yul\":2531:2537   */\n  dup7\n    /* \"#utility.yul\":2527:2544   */\n  add\n    /* \"#utility.yul\":2468:2558   */\n  tag_20\n  jump\t// in\ntag_54:\n    /* \"#utility.yul\":2459:2558   */\n  swap2\n  pop\n    /* \"#utility.yul\":2282:2564   */\n  pop\n    /* \"#utility.yul\":2209:2564   */\n  swap3\n  swap2\n  pop\n  pop\n  jump\t// out\n    /* \"#utility.yul\":2570:3094   */\ntag_3:\n    /* \"#utility.yul\":2650:2656   */\n  0x00\n    /* \"#utility.yul\":2699:2701   */\n  0x20\n    /* \"#utility.yul\":2687:2696   */\n  dup3\n    /* \"#utility.yul\":2678:2685   */\n  dup5\n    /* \"#utility.yul\":2674:2697   */\n  sub\n    /* \"#utility.yul\":2670:2702   */\n  slt\n    /* \"#utility.yul\":2667:2786   */\n  iszero\n  tag_56\n  jumpi\n    /* \"#utility.yul\":2705:2784   */\n  tag_57\n  tag_10\n  jump\t// in\ntag_57:\n    /* \"#utility.yul\":2667:2786   */\ntag_56:\n    /* \"#utility.yul\":2846:2847   */\n  0x00\n    /* \"#utility.yul\":2835:2844   */\n  dup3\n    /* \"#utility.yul\":2831:2848   */\n  add\n    /* \"#utility.yul\":2825:2849   */\n  mload\n    /* \"#utility.yul\":2876:2894   */\n  0xffffffffffffffff\n    /* \"#utility.yul\":2868:2874   */\n  dup2\n    /* \"#utility.yul\":2865:2895   */\n  gt\n    /* \"#utility.yul\":2862:2979   */\n  iszero\n  tag_58\n  jumpi\n    /* \"#utility.yul\":2898:2977   */\n  tag_59\n  tag_11\n  jump\t// in\ntag_59:\n    /* \"#utility.yul\":2862:2979   */\ntag_58:\n    /* \"#utility.yul\":3003:3077   */\n  tag_60\n    /* \"#utility.yul\":3069:3076   */\n  dup5\n    /* \"#utility.yul\":3060:3066   */\n  dup3\n    /* \"#utility.yul\":3049:3058   */\n  dup6\n    /* \"#utility.yul\":3045:3067   */\n  add\n    /* \"#utility.yul\":3003:3077   */\n  tag_21\n  jump\t// in\ntag_60:\n    /* \"#utility.yul\":2993:3077   */\n  swap2\n  pop\n    /* \"#utility.yul\":2796:3087   */\n  pop\n    /* \"#utility.yul\":2570:3094   */\n  swap3\n  swap2\n  pop\n  pop\n  jump\t// out\n    /* \"#utility.yul\":3100:3199   */\ntag_22:\n    /* \"#utility.yul\":3152:3158   */\n  0x00\n    /* \"#utility.yul\":3186:3191   */\n  dup2\n    /* \"#utility.yul\":3180:3192   */\n  mload\n    /* \"#utility.yul\":3170:3192   */\n  swap1\n  pop\n    /* \"#utility.yul\":3100:3199   */\n  swap2\n  swap1\n  pop\n  jump\t// out\n    /* \"#utility.yul\":3205:3353   */\ntag_23:\n    /* \"#utility.yul\":3307:3318   */\n  0x00\n    /* \"#utility.yul\":3344:3347   */\n  dup2\n    /* \"#utility.yul\":3329:3347   */\n  swap1\n  pop\n    /* \"#utility.yul\":3205:3353   */\n  swap3\n  swap2\n  pop\n  pop\n  jump\t// out\n    /* \"#utility.yul\":3359:3749   */\ntag_24:\n    /* \"#utility.yul\":3465:3468   */\n  0x00\n    /* \"#utility.yul\":3493:3532   */\n  tag_64\n    /* \"#utility.yul\":3526:3531   */\n  dup3\n    /* \"#utility.yul\":3493:3532   */\n  tag_22\n  jump\t// in\ntag_64:\n    /* \"#utility.yul\":3548:3637   */\n  tag_65\n    /* \"#utility.yul\":3630:3636   */\n  dup2\n    /* \"#utility.yul\":3625:3628   */\n  dup6\n    /* \"#utility.yul\":3548:3637   */\n  tag_23\n  jump\t// in\ntag_65:\n    /* \"#utility.yul\":3541:3637   */\n  swap4\n  pop\n    /* \"#utility.yul\":3646:3711   */\n  tag_66\n    /* \"#utility.yul\":3704:3710   */\n  dup2\n    /* \"#utility.yul\":3699:3702   */\n  dup6\n    /* \"#utility.yul\":3692:3696   */\n  0x20\n    /* \"#utility.yul\":3685:3690   */\n  dup7\n    /* \"#utility.yul\":3681:3697   */\n  add\n    /* \"#utility.yul\":3646:3711   */\n  tag_19\n  jump\t// in\ntag_66:\n    /* \"#utility.yul\":3736:3742   */\n  dup1\n    /* \"#utility.yul\":3731:3734   */\n  dup5\n    /* \"#utility.yul\":3727:3743   */\n  add\n    /* \"#utility.yul\":3720:3743   */\n  swap2\n  pop\n    /* \"#utility.yul\":3469:3749   */\n  pop\n    /* \"#utility.yul\":3359:3749   */\n  swap3\n  swap2\n  pop\n  pop\n  jump\t// out\n    /* \"#utility.yul\":3755:4030   */\ntag_7:\n    /* \"#utility.yul\":3887:3890   */\n  0x00\n    /* \"#utility.yul\":3909:4004   */\n  tag_68\n    /* \"#utility.yul\":4000:4003   */\n  dup3\n    /* \"#utility.yul\":3991:3997   */\n  dup5\n    /* \"#utility.yul\":3909:4004   */\n  tag_24\n  jump\t// in\ntag_68:\n    /* \"#utility.yul\":3902:4004   */\n  swap2\n  pop\n    /* \"#utility.yul\":4021:4024   */\n  dup2\n    /* \"#utility.yul\":4014:4024   */\n  swap1\n  pop\n    /* \"#utility.yul\":3755:4030   */\n  swap3\n  swap2\n  pop\n  pop\n  jump\t// out\n    /* \"B/Bruteforce/Brute Force Resistant Contract (Rate-limiting + attempt cap) defense.sol\":58:1104  contract BruteForceDefender {... */\ntag_8:\n  dataSize(sub_0)\n  dup1\n  dataOffset(sub_0)\n  0x00\n  codecopy\n  0x00\n  return\nstop\n\nsub_0: assembly {\n        /* \"B/Bruteforce/Brute Force Resistant Contract (Rate-limiting + attempt cap) defense.sol\":58:1104  contract BruteForceDefender {... */\n      mstore(0x40, 0x80)\n      callvalue\n      dup1\n      iszero\n      tag_1\n      jumpi\n      revert(0x00, 0x00)\n    tag_1:\n      pop\n      jumpi(tag_2, lt(calldatasize, 0x04))\n      shr(0xe0, calldataload(0x00))\n      dup1\n      0x787a08a6\n      gt\n      tag_10\n      jumpi\n      dup1\n      0x787a08a6\n      eq\n      tag_6\n      jumpi\n      dup1\n      0x7c775ce5\n      eq\n      tag_7\n      jumpi\n      dup1\n      0x86cbc8b6\n      eq\n      tag_8\n      jumpi\n      dup1\n      0x9a41212f\n      eq\n      tag_9\n      jumpi\n      jump(tag_2)\n    tag_10:\n      dup1\n      0x3fa5ef61\n      eq\n      tag_3\n      jumpi\n      dup1\n      0x672657be\n      eq\n      tag_4\n      jumpi\n      dup1\n      0x7241c04a\n      eq\n      tag_5\n      jumpi\n    tag_2:\n      revert(0x00, 0x00)\n        /* \"B/Bruteforce/Brute Force Resistant Contract (Rate-limiting + attempt cap) defense.sol\":124:154  uint256 public maxAttempts = 5 */\n    tag_3:\n      tag_11\n      tag_12\n      jump\t// in\n    tag_11:\n      mload(0x40)\n      tag_13\n      swap2\n      swap1\n      tag_14\n      jump\t// in\n    tag_13:\n      mload(0x40)\n      dup1\n      swap2\n      sub\n      swap1\n      return\n        /* \"B/Bruteforce/Brute Force Resistant Contract (Rate-limiting + attempt cap) defense.sol\":160:203  mapping(address => uint256) public attempts */\n    tag_4:\n      tag_15\n      0x04\n      dup1\n      calldatasize\n      sub\n      dup2\n      add\n      swap1\n      tag_16\n      swap2\n      swap1\n      tag_17\n      jump\t// in\n    tag_16:\n      tag_18\n      jump\t// in\n    tag_15:\n      mload(0x40)\n      tag_19\n      swap2\n      swap1\n      tag_14\n      jump\t// in\n    tag_19:\n      mload(0x40)\n      dup1\n      swap2\n      sub\n      swap1\n      return\n        /* \"B/Bruteforce/Brute Force Resistant Contract (Rate-limiting + attempt cap) defense.sol\":576:954  function guessWithLimits(string memory guessWord) public returns (bool) {... */\n    tag_5:\n      tag_20\n      0x04\n      dup1\n      calldatasize\n      sub\n      dup2\n      add\n      swap1\n      tag_21\n      swap2\n      swap1\n      tag_22\n      jump\t// in\n    tag_21:\n      tag_23\n      jump\t// in\n    tag_20:\n      mload(0x40)\n      tag_24\n      swap2\n      swap1\n      tag_25\n      jump\t// in\n    tag_24:\n      mload(0x40)\n      dup1\n      swap2\n      sub\n      swap1\n      return\n        /* \"B/Bruteforce/Brute Force Resistant Contract (Rate-limiting + attempt cap) defense.sol\":265:293  uint256 public cooldown = 60 */\n    tag_6:\n      tag_26\n      tag_27\n      jump\t// in\n    tag_26:\n      mload(0x40)\n      tag_28\n      swap2\n      swap1\n      tag_14\n      jump\t// in\n    tag_28:\n      mload(0x40)\n      dup1\n      swap2\n      sub\n      swap1\n      return\n        /* \"B/Bruteforce/Brute Force Resistant Contract (Rate-limiting + attempt cap) defense.sol\":209:259  mapping(address => uint256) public lastAttemptTime */\n    tag_7:\n      tag_29\n      0x04\n      dup1\n      calldatasize\n      sub\n      dup2\n      add\n      swap1\n      tag_30\n      swap2\n      swap1\n      tag_17\n      jump\t// in\n    tag_30:\n      tag_31\n      jump\t// in\n    tag_29:\n      mload(0x40)\n      tag_32\n      swap2\n      swap1\n      tag_14\n      jump\t// in\n    tag_32:\n      mload(0x40)\n      dup1\n      swap2\n      sub\n      swap1\n      return\n        /* \"B/Bruteforce/Brute Force Resistant Contract (Rate-limiting + attempt cap) defense.sol\":418:570  function guessProtected(string memory guessWord) public view returns (bool) {... */\n    tag_8:\n      tag_33\n      0x04\n      dup1\n      calldatasize\n      sub\n      dup2\n      add\n      swap1\n      tag_34\n      swap2\n      swap1\n      tag_22\n      jump\t// in\n    tag_34:\n      tag_35\n      jump\t// in\n    tag_33:\n      mload(0x40)\n      tag_36\n      swap2\n      swap1\n      tag_25\n      jump\t// in\n    tag_36:\n      mload(0x40)\n      dup1\n      swap2\n      sub\n      swap1\n      return\n        /* \"B/Bruteforce/Brute Force Resistant Contract (Rate-limiting + attempt cap) defense.sol\":960:1102  function resetAttempts(address user) public {... */\n    tag_9:\n      tag_37\n      0x04\n      dup1\n      calldatasize\n      sub\n      dup2\n      add\n      swap1\n      tag_38\n      swap2\n      swap1\n      tag_17\n      jump\t// in\n    tag_38:\n      tag_39\n      jump\t// in\n    tag_37:\n      stop\n        /* \"B/Bruteforce/Brute Force Resistant Contract (Rate-limiting + attempt cap) defense.sol\":124:154  uint256 public maxAttempts = 5 */\n    tag_12:\n      sload(0x01)\n      dup2\n      jump\t// out\n        /* \"B/Bruteforce/Brute Force Resistant Contract (Rate-limiting + attempt cap) defense.sol\":160:203  mapping(address => uint256) public attempts */\n    tag_18:\n      mstore(0x20, 0x02)\n      dup1\n      0x00\n      mstore\n      keccak256(0x00, 0x40)\n      0x00\n      swap2\n      pop\n      swap1\n      pop\n      sload\n      dup2\n      jump\t// out\n        /* \"B/Bruteforce/Brute Force Resistant Contract (Rate-limiting + attempt cap) defense.sol\":576:954  function guessWithLimits(string memory guessWord) public returns (bool) {... */\n    tag_23:\n        /* \"B/Bruteforce/Brute Force Resistant Contract (Rate-limiting + attempt cap) defense.sol\":642:646  bool */\n      0x00\n        /* \"B/Bruteforce/Brute Force Resistant Contract (Rate-limiting + attempt cap) defense.sol\":714:722  cooldown */\n      sload(0x04)\n        /* \"B/Bruteforce/Brute Force Resistant Contract (Rate-limiting + attempt cap) defense.sol\":684:699  lastAttemptTime */\n      0x03\n        /* \"B/Bruteforce/Brute Force Resistant Contract (Rate-limiting + attempt cap) defense.sol\":684:711  lastAttemptTime[msg.sender] */\n      0x00\n        /* \"B/Bruteforce/Brute Force Resistant Contract (Rate-limiting + attempt cap) defense.sol\":700:710  msg.sender */\n      caller\n        /* \"B/Bruteforce/Brute Force Resistant Contract (Rate-limiting + attempt cap) defense.sol\":684:711  lastAttemptTime[msg.sender] */\n      0xffffffffffffffffffffffffffffffffffffffff\n      and\n      0xffffffffffffffffffffffffffffffffffffffff\n      and\n      dup2\n      mstore\n      0x20\n      add\n      swap1\n      dup2\n      mstore\n      0x20\n      add\n      0x00\n      keccak256\n      sload\n        /* \"B/Bruteforce/Brute Force Resistant Contract (Rate-limiting + attempt cap) defense.sol\":684:722  lastAttemptTime[msg.sender] + cooldown */\n      tag_41\n      swap2\n      swap1\n      tag_42\n      jump\t// in\n    tag_41:\n        /* \"B/Bruteforce/Brute Force Resistant Contract (Rate-limiting + attempt cap) defense.sol\":666:681  block.timestamp */\n      timestamp\n        /* \"B/Bruteforce/Brute Force Resistant Contract (Rate-limiting + attempt cap) defense.sol\":666:722  block.timestamp > lastAttemptTime[msg.sender] + cooldown */\n      gt\n        /* \"B/Bruteforce/Brute Force Resistant Contract (Rate-limiting + attempt cap) defense.sol\":658:742  require(block.timestamp > lastAttemptTime[msg.sender] + cooldown, \"Cooldown active\") */\n      tag_43\n      jumpi\n      mload(0x40)\n      0x08c379a000000000000000000000000000000000000000000000000000000000\n      dup2\n      mstore\n      0x04\n      add\n      tag_44\n      swap1\n      tag_45\n      jump\t// in\n    tag_44:\n      mload(0x40)\n      dup1\n      swap2\n      sub\n      swap1\n      revert\n    tag_43:\n        /* \"B/Bruteforce/Brute Force Resistant Contract (Rate-limiting + attempt cap) defense.sol\":783:794  maxAttempts */\n      sload(0x01)\n        /* \"B/Bruteforce/Brute Force Resistant Contract (Rate-limiting + attempt cap) defense.sol\":760:768  attempts */\n      0x02\n        /* \"B/Bruteforce/Brute Force Resistant Contract (Rate-limiting + attempt cap) defense.sol\":760:780  attempts[msg.sender] */\n      0x00\n        /* \"B/Bruteforce/Brute Force Resistant Contract (Rate-limiting + attempt cap) defense.sol\":769:779  msg.sender */\n      caller\n        /* \"B/Bruteforce/Brute Force Resistant Contract (Rate-limiting + attempt cap) defense.sol\":760:780  attempts[msg.sender] */\n      0xffffffffffffffffffffffffffffffffffffffff\n      and\n      0xffffffffffffffffffffffffffffffffffffffff\n      and\n      dup2\n      mstore\n      0x20\n      add\n      swap1\n      dup2\n      mstore\n      0x20\n      add\n      0x00\n      keccak256\n      sload\n        /* \"B/Bruteforce/Brute Force Resistant Contract (Rate-limiting + attempt cap) defense.sol\":760:794  attempts[msg.sender] < maxAttempts */\n      lt\n        /* \"B/Bruteforce/Brute Force Resistant Contract (Rate-limiting + attempt cap) defense.sol\":752:816  require(attempts[msg.sender] < maxAttempts, \"Too many attempts\") */\n      tag_46\n      jumpi\n      mload(0x40)\n      0x08c379a000000000000000000000000000000000000000000000000000000000\n      dup2\n      mstore\n      0x04\n      add\n      tag_47\n      swap1\n      tag_48\n      jump\t// in\n    tag_47:\n      mload(0x40)\n      dup1\n      swap2\n      sub\n      swap1\n      revert\n    tag_46:\n        /* \"B/Bruteforce/Brute Force Resistant Contract (Rate-limiting + attempt cap) defense.sol\":827:835  attempts */\n      0x02\n        /* \"B/Bruteforce/Brute Force Resistant Contract (Rate-limiting + attempt cap) defense.sol\":827:847  attempts[msg.sender] */\n      0x00\n        /* \"B/Bruteforce/Brute Force Resistant Contract (Rate-limiting + attempt cap) defense.sol\":836:846  msg.sender */\n      caller\n        /* \"B/Bruteforce/Brute Force Resistant Contract (Rate-limiting + attempt cap) defense.sol\":827:847  attempts[msg.sender] */\n      0xffffffffffffffffffffffffffffffffffffffff\n      and\n      0xffffffffffffffffffffffffffffffffffffffff\n      and\n      dup2\n      mstore\n      0x20\n      add\n      swap1\n      dup2\n      mstore\n      0x20\n      add\n      0x00\n      keccak256\n      0x00\n        /* \"B/Bruteforce/Brute Force Resistant Contract (Rate-limiting + attempt cap) defense.sol\":827:849  attempts[msg.sender]++ */\n      dup2\n      sload\n      dup1\n      swap3\n      swap2\n      swap1\n      tag_49\n      swap1\n      tag_50\n      jump\t// in\n    tag_49:\n      swap2\n      swap1\n      pop\n      sstore\n      pop\n        /* \"B/Bruteforce/Brute Force Resistant Contract (Rate-limiting + attempt cap) defense.sol\":889:904  block.timestamp */\n      timestamp\n        /* \"B/Bruteforce/Brute Force Resistant Contract (Rate-limiting + attempt cap) defense.sol\":859:874  lastAttemptTime */\n      0x03\n        /* \"B/Bruteforce/Brute Force Resistant Contract (Rate-limiting + attempt cap) defense.sol\":859:886  lastAttemptTime[msg.sender] */\n      0x00\n        /* \"B/Bruteforce/Brute Force Resistant Contract (Rate-limiting + attempt cap) defense.sol\":875:885  msg.sender */\n      caller\n        /* \"B/Bruteforce/Brute Force Resistant Contract (Rate-limiting + attempt cap) defense.sol\":859:886  lastAttemptTime[msg.sender] */\n      0xffffffffffffffffffffffffffffffffffffffff\n      and\n      0xffffffffffffffffffffffffffffffffffffffff\n      and\n      dup2\n      mstore\n      0x20\n      add\n      swap1\n      dup2\n      mstore\n      0x20\n      add\n      0x00\n      keccak256\n        /* \"B/Bruteforce/Brute Force Resistant Contract (Rate-limiting + attempt cap) defense.sol\":859:904  lastAttemptTime[msg.sender] = block.timestamp */\n      dup2\n      swap1\n      sstore\n      pop\n        /* \"B/Bruteforce/Brute Force Resistant Contract (Rate-limiting + attempt cap) defense.sol\":922:947  guessProtected(guessWord) */\n      tag_51\n        /* \"B/Bruteforce/Brute Force Resistant Contract (Rate-limiting + attempt cap) defense.sol\":937:946  guessWord */\n      dup3\n        /* \"B/Bruteforce/Brute Force Resistant Contract (Rate-limiting + attempt cap) defense.sol\":922:936  guessProtected */\n      tag_35\n        /* \"B/Bruteforce/Brute Force Resistant Contract (Rate-limiting + attempt cap) defense.sol\":922:947  guessProtected(guessWord) */\n      jump\t// in\n    tag_51:\n        /* \"B/Bruteforce/Brute Force Resistant Contract (Rate-limiting + attempt cap) defense.sol\":915:947  return guessProtected(guessWord) */\n      swap1\n      pop\n        /* \"B/Bruteforce/Brute Force Resistant Contract (Rate-limiting + attempt cap) defense.sol\":576:954  function guessWithLimits(string memory guessWord) public returns (bool) {... */\n      swap2\n      swap1\n      pop\n      jump\t// out\n        /* \"B/Bruteforce/Brute Force Resistant Contract (Rate-limiting + attempt cap) defense.sol\":265:293  uint256 public cooldown = 60 */\n    tag_27:\n      sload(0x04)\n      dup2\n      jump\t// out\n        /* \"B/Bruteforce/Brute Force Resistant Contract (Rate-limiting + attempt cap) defense.sol\":209:259  mapping(address => uint256) public lastAttemptTime */\n    tag_31:\n      mstore(0x20, 0x03)\n      dup1\n      0x00\n      mstore\n      keccak256(0x00, 0x40)\n      0x00\n      swap2\n      pop\n      swap1\n      pop\n      sload\n      dup2\n      jump\t// out\n        /* \"B/Bruteforce/Brute Force Resistant Contract (Rate-limiting + attempt cap) defense.sol\":418:570  function guessProtected(string memory guessWord) public view returns (bool) {... */\n    tag_35:\n        /* \"B/Bruteforce/Brute Force Resistant Contract (Rate-limiting + attempt cap) defense.sol\":488:492  bool */\n      0x00\n        /* \"B/Bruteforce/Brute Force Resistant Contract (Rate-limiting + attempt cap) defense.sol\":553:563  secretHash */\n      sload(0x00)\n        /* \"B/Bruteforce/Brute Force Resistant Contract (Rate-limiting + attempt cap) defense.sol\":538:547  guessWord */\n      dup3\n        /* \"B/Bruteforce/Brute Force Resistant Contract (Rate-limiting + attempt cap) defense.sol\":521:548  abi.encodePacked(guessWord) */\n      add(0x20, mload(0x40))\n      tag_53\n      swap2\n      swap1\n      tag_54\n      jump\t// in\n    tag_53:\n      mload(0x40)\n      0x20\n      dup2\n      dup4\n      sub\n      sub\n      dup2\n      mstore\n      swap1\n      0x40\n      mstore\n        /* \"B/Bruteforce/Brute Force Resistant Contract (Rate-limiting + attempt cap) defense.sol\":511:549  keccak256(abi.encodePacked(guessWord)) */\n      dup1\n      mload\n      swap1\n      0x20\n      add\n      keccak256\n        /* \"B/Bruteforce/Brute Force Resistant Contract (Rate-limiting + attempt cap) defense.sol\":511:563  keccak256(abi.encodePacked(guessWord)) == secretHash */\n      eq\n        /* \"B/Bruteforce/Brute Force Resistant Contract (Rate-limiting + attempt cap) defense.sol\":504:563  return keccak256(abi.encodePacked(guessWord)) == secretHash */\n      swap1\n      pop\n        /* \"B/Bruteforce/Brute Force Resistant Contract (Rate-limiting + attempt cap) defense.sol\":418:570  function guessProtected(string memory guessWord) public view returns (bool) {... */\n      swap2\n      swap1\n      pop\n      jump\t// out\n        /* \"B/Bruteforce/Brute Force Resistant Contract (Rate-limiting + attempt cap) defense.sol\":960:1102  function resetAttempts(address user) public {... */\n    tag_39:\n        /* \"B/Bruteforce/Brute Force Resistant Contract (Rate-limiting + attempt cap) defense.sol\":1094:1095  0 */\n      0x00\n        /* \"B/Bruteforce/Brute Force Resistant Contract (Rate-limiting + attempt cap) defense.sol\":1077:1085  attempts */\n      0x02\n        /* \"B/Bruteforce/Brute Force Resistant Contract (Rate-limiting + attempt cap) defense.sol\":1077:1091  attempts[user] */\n      0x00\n        /* \"B/Bruteforce/Brute Force Resistant Contract (Rate-limiting + attempt cap) defense.sol\":1086:1090  user */\n      dup4\n        /* \"B/Bruteforce/Brute Force Resistant Contract (Rate-limiting + attempt cap) defense.sol\":1077:1091  attempts[user] */\n      0xffffffffffffffffffffffffffffffffffffffff\n      and\n      0xffffffffffffffffffffffffffffffffffffffff\n      and\n      dup2\n      mstore\n      0x20\n      add\n      swap1\n      dup2\n      mstore\n      0x20\n      add\n      0x00\n      keccak256\n        /* \"B/Bruteforce/Brute Force Resistant Contract (Rate-limiting + attempt cap) defense.sol\":1077:1095  attempts[user] = 0 */\n      dup2\n      swap1\n      sstore\n      pop\n        /* \"B/Bruteforce/Brute Force Resistant Contract (Rate-limiting + attempt cap) defense.sol\":960:1102  function resetAttempts(address user) public {... */\n      pop\n      jump\t// out\n        /* \"#utility.yul\":7:84   */\n    tag_56:\n        /* \"#utility.yul\":44:51   */\n      0x00\n        /* \"#utility.yul\":73:78   */\n      dup2\n        /* \"#utility.yul\":62:78   */\n      swap1\n      pop\n        /* \"#utility.yul\":7:84   */\n      swap2\n      swap1\n      pop\n      jump\t// out\n        /* \"#utility.yul\":90:208   */\n    tag_57:\n        /* \"#utility.yul\":177:201   */\n      tag_90\n        /* \"#utility.yul\":195:200   */\n      dup2\n        /* \"#utility.yul\":177:201   */\n      tag_56\n      jump\t// in\n    tag_90:\n        /* \"#utility.yul\":172:175   */\n      dup3\n        /* \"#utility.yul\":165:202   */\n      mstore\n        /* \"#utility.yul\":90:208   */\n      pop\n      pop\n      jump\t// out\n        /* \"#utility.yul\":214:436   */\n    tag_14:\n        /* \"#utility.yul\":307:311   */\n      0x00\n        /* \"#utility.yul\":345:347   */\n      0x20\n        /* \"#utility.yul\":334:343   */\n      dup3\n        /* \"#utility.yul\":330:348   */\n      add\n        /* \"#utility.yul\":322:348   */\n      swap1\n      pop\n        /* \"#utility.yul\":358:429   */\n      tag_92\n        /* \"#utility.yul\":426:427   */\n      0x00\n        /* \"#utility.yul\":415:424   */\n      dup4\n        /* \"#utility.yul\":411:428   */\n      add\n        /* \"#utility.yul\":402:408   */\n      dup5\n        /* \"#utility.yul\":358:429   */\n      tag_57\n      jump\t// in\n    tag_92:\n        /* \"#utility.yul\":214:436   */\n      swap3\n      swap2\n      pop\n      pop\n      jump\t// out\n        /* \"#utility.yul\":442:517   */\n    tag_58:\n        /* \"#utility.yul\":475:481   */\n      0x00\n        /* \"#utility.yul\":508:510   */\n      0x40\n        /* \"#utility.yul\":502:511   */\n      mload\n        /* \"#utility.yul\":492:511   */\n      swap1\n      pop\n        /* \"#utility.yul\":442:517   */\n      swap1\n      jump\t// out\n        /* \"#utility.yul\":523:640   */\n    tag_59:\n        /* \"#utility.yul\":632:633   */\n      0x00\n        /* \"#utility.yul\":629:630   */\n      0x00\n        /* \"#utility.yul\":622:634   */\n      revert\n        /* \"#utility.yul\":646:763   */\n    tag_60:\n        /* \"#utility.yul\":755:756   */\n      0x00\n        /* \"#utility.yul\":752:753   */\n      0x00\n        /* \"#utility.yul\":745:757   */\n      revert\n        /* \"#utility.yul\":769:895   */\n    tag_61:\n        /* \"#utility.yul\":806:813   */\n      0x00\n        /* \"#utility.yul\":846:888   */\n      0xffffffffffffffffffffffffffffffffffffffff\n        /* \"#utility.yul\":839:844   */\n      dup3\n        /* \"#utility.yul\":835:889   */\n      and\n        /* \"#utility.yul\":824:889   */\n      swap1\n      pop\n        /* \"#utility.yul\":769:895   */\n      swap2\n      swap1\n      pop\n      jump\t// out\n        /* \"#utility.yul\":901:997   */\n    tag_62:\n        /* \"#utility.yul\":938:945   */\n      0x00\n        /* \"#utility.yul\":967:991   */\n      tag_98\n        /* \"#utility.yul\":985:990   */\n      dup3\n        /* \"#utility.yul\":967:991   */\n      tag_61\n      jump\t// in\n    tag_98:\n        /* \"#utility.yul\":956:991   */\n      swap1\n      pop\n        /* \"#utility.yul\":901:997   */\n      swap2\n      swap1\n      pop\n      jump\t// out\n        /* \"#utility.yul\":1003:1125   */\n    tag_63:\n        /* \"#utility.yul\":1076:1100   */\n      tag_100\n        /* \"#utility.yul\":1094:1099   */\n      dup2\n        /* \"#utility.yul\":1076:1100   */\n      tag_62\n      jump\t// in\n    tag_100:\n        /* \"#utility.yul\":1069:1074   */\n      dup2\n        /* \"#utility.yul\":1066:1101   */\n      eq\n        /* \"#utility.yul\":1056:1119   */\n      tag_101\n      jumpi\n        /* \"#utility.yul\":1115:1116   */\n      0x00\n        /* \"#utility.yul\":1112:1113   */\n      0x00\n        /* \"#utility.yul\":1105:1117   */\n      revert\n        /* \"#utility.yul\":1056:1119   */\n    tag_101:\n        /* \"#utility.yul\":1003:1125   */\n      pop\n      jump\t// out\n        /* \"#utility.yul\":1131:1270   */\n    tag_64:\n        /* \"#utility.yul\":1177:1182   */\n      0x00\n        /* \"#utility.yul\":1215:1221   */\n      dup2\n        /* \"#utility.yul\":1202:1222   */\n      calldataload\n        /* \"#utility.yul\":1193:1222   */\n      swap1\n      pop\n        /* \"#utility.yul\":1231:1264   */\n      tag_103\n        /* \"#utility.yul\":1258:1263   */\n      dup2\n        /* \"#utility.yul\":1231:1264   */\n      tag_63\n      jump\t// in\n    tag_103:\n        /* \"#utility.yul\":1131:1270   */\n      swap3\n      swap2\n      pop\n      pop\n      jump\t// out\n        /* \"#utility.yul\":1276:1605   */\n    tag_17:\n        /* \"#utility.yul\":1335:1341   */\n      0x00\n        /* \"#utility.yul\":1384:1386   */\n      0x20\n        /* \"#utility.yul\":1372:1381   */\n      dup3\n        /* \"#utility.yul\":1363:1370   */\n      dup5\n        /* \"#utility.yul\":1359:1382   */\n      sub\n        /* \"#utility.yul\":1355:1387   */\n      slt\n        /* \"#utility.yul\":1352:1471   */\n      iszero\n      tag_105\n      jumpi\n        /* \"#utility.yul\":1390:1469   */\n      tag_106\n      tag_59\n      jump\t// in\n    tag_106:\n        /* \"#utility.yul\":1352:1471   */\n    tag_105:\n        /* \"#utility.yul\":1510:1511   */\n      0x00\n        /* \"#utility.yul\":1535:1588   */\n      tag_107\n        /* \"#utility.yul\":1580:1587   */\n      dup5\n        /* \"#utility.yul\":1571:1577   */\n      dup3\n        /* \"#utility.yul\":1560:1569   */\n      dup6\n        /* \"#utility.yul\":1556:1578   */\n      add\n        /* \"#utility.yul\":1535:1588   */\n      tag_64\n      jump\t// in\n    tag_107:\n        /* \"#utility.yul\":1525:1588   */\n      swap2\n      pop\n        /* \"#utility.yul\":1481:1598   */\n      pop\n        /* \"#utility.yul\":1276:1605   */\n      swap3\n      swap2\n      pop\n      pop\n      jump\t// out\n        /* \"#utility.yul\":1611:1728   */\n    tag_65:\n        /* \"#utility.yul\":1720:1721   */\n      0x00\n        /* \"#utility.yul\":1717:1718   */\n      0x00\n        /* \"#utility.yul\":1710:1722   */\n      revert\n        /* \"#utility.yul\":1734:1851   */\n    tag_66:\n        /* \"#utility.yul\":1843:1844   */\n      0x00\n        /* \"#utility.yul\":1840:1841   */\n      0x00\n        /* \"#utility.yul\":1833:1845   */\n      revert\n        /* \"#utility.yul\":1857:1959   */\n    tag_67:\n        /* \"#utility.yul\":1898:1904   */\n      0x00\n        /* \"#utility.yul\":1949:1951   */\n      0x1f\n        /* \"#utility.yul\":1945:1952   */\n      not\n        /* \"#utility.yul\":1940:1942   */\n      0x1f\n        /* \"#utility.yul\":1933:1938   */\n      dup4\n        /* \"#utility.yul\":1929:1943   */\n      add\n        /* \"#utility.yul\":1925:1953   */\n      and\n        /* \"#utility.yul\":1915:1953   */\n      swap1\n      pop\n        /* \"#utility.yul\":1857:1959   */\n      swap2\n      swap1\n      pop\n      jump\t// out\n        /* \"#utility.yul\":1965:2145   */\n    tag_68:\n        /* \"#utility.yul\":2013:2090   */\n      0x4e487b7100000000000000000000000000000000000000000000000000000000\n        /* \"#utility.yul\":2010:2011   */\n      0x00\n        /* \"#utility.yul\":2003:2091   */\n      mstore\n        /* \"#utility.yul\":2110:2114   */\n      0x41\n        /* \"#utility.yul\":2107:2108   */\n      0x04\n        /* \"#utility.yul\":2100:2115   */\n      mstore\n        /* \"#utility.yul\":2134:2138   */\n      0x24\n        /* \"#utility.yul\":2131:2132   */\n      0x00\n        /* \"#utility.yul\":2124:2139   */\n      revert\n        /* \"#utility.yul\":2151:2432   */\n    tag_69:\n        /* \"#utility.yul\":2234:2261   */\n      tag_113\n        /* \"#utility.yul\":2256:2260   */\n      dup3\n        /* \"#utility.yul\":2234:2261   */\n      tag_67\n      jump\t// in\n    tag_113:\n        /* \"#utility.yul\":2226:2232   */\n      dup2\n        /* \"#utility.yul\":2222:2262   */\n      add\n        /* \"#utility.yul\":2364:2370   */\n      dup2\n        /* \"#utility.yul\":2352:2362   */\n      dup2\n        /* \"#utility.yul\":2349:2371   */\n      lt\n        /* \"#utility.yul\":2328:2346   */\n      0xffffffffffffffff\n        /* \"#utility.yul\":2316:2326   */\n      dup3\n        /* \"#utility.yul\":2313:2347   */\n      gt\n        /* \"#utility.yul\":2310:2372   */\n      or\n        /* \"#utility.yul\":2307:2395   */\n      iszero\n      tag_114\n      jumpi\n        /* \"#utility.yul\":2375:2393   */\n      tag_115\n      tag_68\n      jump\t// in\n    tag_115:\n        /* \"#utility.yul\":2307:2395   */\n    tag_114:\n        /* \"#utility.yul\":2415:2425   */\n      dup1\n        /* \"#utility.yul\":2411:2413   */\n      0x40\n        /* \"#utility.yul\":2404:2426   */\n      mstore\n        /* \"#utility.yul\":2194:2432   */\n      pop\n        /* \"#utility.yul\":2151:2432   */\n      pop\n      pop\n      jump\t// out\n        /* \"#utility.yul\":2438:2567   */\n    tag_70:\n        /* \"#utility.yul\":2472:2478   */\n      0x00\n        /* \"#utility.yul\":2499:2519   */\n      tag_117\n      tag_58\n      jump\t// in\n    tag_117:\n        /* \"#utility.yul\":2489:2519   */\n      swap1\n      pop\n        /* \"#utility.yul\":2528:2561   */\n      tag_118\n        /* \"#utility.yul\":2556:2560   */\n      dup3\n        /* \"#utility.yul\":2548:2554   */\n      dup3\n        /* \"#utility.yul\":2528:2561   */\n      tag_69\n      jump\t// in\n    tag_118:\n        /* \"#utility.yul\":2438:2567   */\n      swap2\n      swap1\n      pop\n      jump\t// out\n        /* \"#utility.yul\":2573:2881   */\n    tag_71:\n        /* \"#utility.yul\":2635:2639   */\n      0x00\n        /* \"#utility.yul\":2725:2743   */\n      0xffffffffffffffff\n        /* \"#utility.yul\":2717:2723   */\n      dup3\n        /* \"#utility.yul\":2714:2744   */\n      gt\n        /* \"#utility.yul\":2711:2767   */\n      iszero\n      tag_120\n      jumpi\n        /* \"#utility.yul\":2747:2765   */\n      tag_121\n      tag_68\n      jump\t// in\n    tag_121:\n        /* \"#utility.yul\":2711:2767   */\n    tag_120:\n        /* \"#utility.yul\":2785:2814   */\n      tag_122\n        /* \"#utility.yul\":2807:2813   */\n      dup3\n        /* \"#utility.yul\":2785:2814   */\n      tag_67\n      jump\t// in\n    tag_122:\n        /* \"#utility.yul\":2777:2814   */\n      swap1\n      pop\n        /* \"#utility.yul\":2869:2873   */\n      0x20\n        /* \"#utility.yul\":2863:2867   */\n      dup2\n        /* \"#utility.yul\":2859:2874   */\n      add\n        /* \"#utility.yul\":2851:2874   */\n      swap1\n      pop\n        /* \"#utility.yul\":2573:2881   */\n      swap2\n      swap1\n      pop\n      jump\t// out\n        /* \"#utility.yul\":2887:3035   */\n    tag_72:\n        /* \"#utility.yul\":2985:2991   */\n      dup3\n        /* \"#utility.yul\":2980:2983   */\n      dup2\n        /* \"#utility.yul\":2975:2978   */\n      dup4\n        /* \"#utility.yul\":2962:2992   */\n      calldatacopy\n        /* \"#utility.yul\":3026:3027   */\n      0x00\n        /* \"#utility.yul\":3017:3023   */\n      dup4\n        /* \"#utility.yul\":3012:3015   */\n      dup4\n        /* \"#utility.yul\":3008:3024   */\n      add\n        /* \"#utility.yul\":3001:3028   */\n      mstore\n        /* \"#utility.yul\":2887:3035   */\n      pop\n      pop\n      pop\n      jump\t// out\n        /* \"#utility.yul\":3041:3466   */\n    tag_73:\n        /* \"#utility.yul\":3119:3124   */\n      0x00\n        /* \"#utility.yul\":3144:3210   */\n      tag_125\n        /* \"#utility.yul\":3160:3209   */\n      tag_126\n        /* \"#utility.yul\":3202:3208   */\n      dup5\n        /* \"#utility.yul\":3160:3209   */\n      tag_71\n      jump\t// in\n    tag_126:\n        /* \"#utility.yul\":3144:3210   */\n      tag_70\n      jump\t// in\n    tag_125:\n        /* \"#utility.yul\":3135:3210   */\n      swap1\n      pop\n        /* \"#utility.yul\":3233:3239   */\n      dup3\n        /* \"#utility.yul\":3226:3231   */\n      dup2\n        /* \"#utility.yul\":3219:3240   */\n      mstore\n        /* \"#utility.yul\":3271:3275   */\n      0x20\n        /* \"#utility.yul\":3264:3269   */\n      dup2\n        /* \"#utility.yul\":3260:3276   */\n      add\n        /* \"#utility.yul\":3309:3312   */\n      dup5\n        /* \"#utility.yul\":3300:3306   */\n      dup5\n        /* \"#utility.yul\":3295:3298   */\n      dup5\n        /* \"#utility.yul\":3291:3307   */\n      add\n        /* \"#utility.yul\":3288:3313   */\n      gt\n        /* \"#utility.yul\":3285:3397   */\n      iszero\n      tag_127\n      jumpi\n        /* \"#utility.yul\":3316:3395   */\n      tag_128\n      tag_66\n      jump\t// in\n    tag_128:\n        /* \"#utility.yul\":3285:3397   */\n    tag_127:\n        /* \"#utility.yul\":3406:3460   */\n      tag_129\n        /* \"#utility.yul\":3453:3459   */\n      dup5\n        /* \"#utility.yul\":3448:3451   */\n      dup3\n        /* \"#utility.yul\":3443:3446   */\n      dup6\n        /* \"#utility.yul\":3406:3460   */\n      tag_72\n      jump\t// in\n    tag_129:\n        /* \"#utility.yul\":3125:3466   */\n      pop\n        /* \"#utility.yul\":3041:3466   */\n      swap4\n      swap3\n      pop\n      pop\n      pop\n      jump\t// out\n        /* \"#utility.yul\":3486:3826   */\n    tag_74:\n        /* \"#utility.yul\":3542:3547   */\n      0x00\n        /* \"#utility.yul\":3591:3594   */\n      dup3\n        /* \"#utility.yul\":3584:3588   */\n      0x1f\n        /* \"#utility.yul\":3576:3582   */\n      dup4\n        /* \"#utility.yul\":3572:3589   */\n      add\n        /* \"#utility.yul\":3568:3595   */\n      slt\n        /* \"#utility.yul\":3558:3680   */\n      tag_131\n      jumpi\n        /* \"#utility.yul\":3599:3678   */\n      tag_132\n      tag_65\n      jump\t// in\n    tag_132:\n        /* \"#utility.yul\":3558:3680   */\n    tag_131:\n        /* \"#utility.yul\":3716:3722   */\n      dup2\n        /* \"#utility.yul\":3703:3723   */\n      calldataload\n        /* \"#utility.yul\":3741:3820   */\n      tag_133\n        /* \"#utility.yul\":3816:3819   */\n      dup5\n        /* \"#utility.yul\":3808:3814   */\n      dup3\n        /* \"#utility.yul\":3801:3805   */\n      0x20\n        /* \"#utility.yul\":3793:3799   */\n      dup7\n        /* \"#utility.yul\":3789:3806   */\n      add\n        /* \"#utility.yul\":3741:3820   */\n      tag_73\n      jump\t// in\n    tag_133:\n        /* \"#utility.yul\":3732:3820   */\n      swap2\n      pop\n        /* \"#utility.yul\":3548:3826   */\n      pop\n        /* \"#utility.yul\":3486:3826   */\n      swap3\n      swap2\n      pop\n      pop\n      jump\t// out\n        /* \"#utility.yul\":3832:4341   */\n    tag_22:\n        /* \"#utility.yul\":3901:3907   */\n      0x00\n        /* \"#utility.yul\":3950:3952   */\n      0x20\n        /* \"#utility.yul\":3938:3947   */\n      dup3\n        /* \"#utility.yul\":3929:3936   */\n      dup5\n        /* \"#utility.yul\":3925:3948   */\n      sub\n        /* \"#utility.yul\":3921:3953   */\n      slt\n        /* \"#utility.yul\":3918:4037   */\n      iszero\n      tag_135\n      jumpi\n        /* \"#utility.yul\":3956:4035   */\n      tag_136\n      tag_59\n      jump\t// in\n    tag_136:\n        /* \"#utility.yul\":3918:4037   */\n    tag_135:\n        /* \"#utility.yul\":4104:4105   */\n      0x00\n        /* \"#utility.yul\":4093:4102   */\n      dup3\n        /* \"#utility.yul\":4089:4106   */\n      add\n        /* \"#utility.yul\":4076:4107   */\n      calldataload\n        /* \"#utility.yul\":4134:4152   */\n      0xffffffffffffffff\n        /* \"#utility.yul\":4126:4132   */\n      dup2\n        /* \"#utility.yul\":4123:4153   */\n      gt\n        /* \"#utility.yul\":4120:4237   */\n      iszero\n      tag_137\n      jumpi\n        /* \"#utility.yul\":4156:4235   */\n      tag_138\n      tag_60\n      jump\t// in\n    tag_138:\n        /* \"#utility.yul\":4120:4237   */\n    tag_137:\n        /* \"#utility.yul\":4261:4324   */\n      tag_139\n        /* \"#utility.yul\":4316:4323   */\n      dup5\n        /* \"#utility.yul\":4307:4313   */\n      dup3\n        /* \"#utility.yul\":4296:4305   */\n      dup6\n        /* \"#utility.yul\":4292:4314   */\n      add\n        /* \"#utility.yul\":4261:4324   */\n      tag_74\n      jump\t// in\n    tag_139:\n        /* \"#utility.yul\":4251:4324   */\n      swap2\n      pop\n        /* \"#utility.yul\":4047:4334   */\n      pop\n        /* \"#utility.yul\":3832:4341   */\n      swap3\n      swap2\n      pop\n      pop\n      jump\t// out\n        /* \"#utility.yul\":4347:4437   */\n    tag_75:\n        /* \"#utility.yul\":4381:4388   */\n      0x00\n        /* \"#utility.yul\":4424:4429   */\n      dup2\n        /* \"#utility.yul\":4417:4430   */\n      iszero\n        /* \"#utility.yul\":4410:4431   */\n      iszero\n        /* \"#utility.yul\":4399:4431   */\n      swap1\n      pop\n        /* \"#utility.yul\":4347:4437   */\n      swap2\n      swap1\n      pop\n      jump\t// out\n        /* \"#utility.yul\":4443:4552   */\n    tag_76:\n        /* \"#utility.yul\":4524:4545   */\n      tag_142\n        /* \"#utility.yul\":4539:4544   */\n      dup2\n        /* \"#utility.yul\":4524:4545   */\n      tag_75\n      jump\t// in\n    tag_142:\n        /* \"#utility.yul\":4519:4522   */\n      dup3\n        /* \"#utility.yul\":4512:4546   */\n      mstore\n        /* \"#utility.yul\":4443:4552   */\n      pop\n      pop\n      jump\t// out\n        /* \"#utility.yul\":4558:4768   */\n    tag_25:\n        /* \"#utility.yul\":4645:4649   */\n      0x00\n        /* \"#utility.yul\":4683:4685   */\n      0x20\n        /* \"#utility.yul\":4672:4681   */\n      dup3\n        /* \"#utility.yul\":4668:4686   */\n      add\n        /* \"#utility.yul\":4660:4686   */\n      swap1\n      pop\n        /* \"#utility.yul\":4696:4761   */\n      tag_144\n        /* \"#utility.yul\":4758:4759   */\n      0x00\n        /* \"#utility.yul\":4747:4756   */\n      dup4\n        /* \"#utility.yul\":4743:4760   */\n      add\n        /* \"#utility.yul\":4734:4740   */\n      dup5\n        /* \"#utility.yul\":4696:4761   */\n      tag_76\n      jump\t// in\n    tag_144:\n        /* \"#utility.yul\":4558:4768   */\n      swap3\n      swap2\n      pop\n      pop\n      jump\t// out\n        /* \"#utility.yul\":4774:4954   */\n    tag_77:\n        /* \"#utility.yul\":4822:4899   */\n      0x4e487b7100000000000000000000000000000000000000000000000000000000\n        /* \"#utility.yul\":4819:4820   */\n      0x00\n        /* \"#utility.yul\":4812:4900   */\n      mstore\n        /* \"#utility.yul\":4919:4923   */\n      0x11\n        /* \"#utility.yul\":4916:4917   */\n      0x04\n        /* \"#utility.yul\":4909:4924   */\n      mstore\n        /* \"#utility.yul\":4943:4947   */\n      0x24\n        /* \"#utility.yul\":4940:4941   */\n      0x00\n        /* \"#utility.yul\":4933:4948   */\n      revert\n        /* \"#utility.yul\":4960:5151   */\n    tag_42:\n        /* \"#utility.yul\":5000:5003   */\n      0x00\n        /* \"#utility.yul\":5019:5039   */\n      tag_147\n        /* \"#utility.yul\":5037:5038   */\n      dup3\n        /* \"#utility.yul\":5019:5039   */\n      tag_56\n      jump\t// in\n    tag_147:\n        /* \"#utility.yul\":5014:5039   */\n      swap2\n      pop\n        /* \"#utility.yul\":5053:5073   */\n      tag_148\n        /* \"#utility.yul\":5071:5072   */\n      dup4\n        /* \"#utility.yul\":5053:5073   */\n      tag_56\n      jump\t// in\n    tag_148:\n        /* \"#utility.yul\":5048:5073   */\n      swap3\n      pop\n        /* \"#utility.yul\":5096:5097   */\n      dup3\n        /* \"#utility.yul\":5093:5094   */\n      dup3\n        /* \"#utility.yul\":5089:5098   */\n      add\n        /* \"#utility.yul\":5082:5098   */\n      swap1\n      pop\n        /* \"#utility.yul\":5117:5120   */\n      dup1\n        /* \"#utility.yul\":5114:5115   */\n      dup3\n        /* \"#utility.yul\":5111:5121   */\n      gt\n        /* \"#utility.yul\":5108:5144   */\n      iszero\n      tag_149\n      jumpi\n        /* \"#utility.yul\":5124:5142   */\n      tag_150\n      tag_77\n      jump\t// in\n    tag_150:\n        /* \"#utility.yul\":5108:5144   */\n    tag_149:\n        /* \"#utility.yul\":4960:5151   */\n      swap3\n      swap2\n      pop\n      pop\n      jump\t// out\n        /* \"#utility.yul\":5157:5326   */\n    tag_78:\n        /* \"#utility.yul\":5241:5252   */\n      0x00\n        /* \"#utility.yul\":5275:5281   */\n      dup3\n        /* \"#utility.yul\":5270:5273   */\n      dup3\n        /* \"#utility.yul\":5263:5282   */\n      mstore\n        /* \"#utility.yul\":5315:5319   */\n      0x20\n        /* \"#utility.yul\":5310:5313   */\n      dup3\n        /* \"#utility.yul\":5306:5320   */\n      add\n        /* \"#utility.yul\":5291:5320   */\n      swap1\n      pop\n        /* \"#utility.yul\":5157:5326   */\n      swap3\n      swap2\n      pop\n      pop\n      jump\t// out\n        /* \"#utility.yul\":5332:5497   */\n    tag_79:\n        /* \"#utility.yul\":5472:5489   */\n      0x436f6f6c646f776e206163746976650000000000000000000000000000000000\n        /* \"#utility.yul\":5468:5469   */\n      0x00\n        /* \"#utility.yul\":5460:5466   */\n      dup3\n        /* \"#utility.yul\":5456:5470   */\n      add\n        /* \"#utility.yul\":5449:5490   */\n      mstore\n        /* \"#utility.yul\":5332:5497   */\n      pop\n      jump\t// out\n        /* \"#utility.yul\":5503:5869   */\n    tag_80:\n        /* \"#utility.yul\":5645:5648   */\n      0x00\n        /* \"#utility.yul\":5666:5733   */\n      tag_154\n        /* \"#utility.yul\":5730:5732   */\n      0x0f\n        /* \"#utility.yul\":5725:5728   */\n      dup4\n        /* \"#utility.yul\":5666:5733   */\n      tag_78\n      jump\t// in\n    tag_154:\n        /* \"#utility.yul\":5659:5733   */\n      swap2\n      pop\n        /* \"#utility.yul\":5742:5835   */\n      tag_155\n        /* \"#utility.yul\":5831:5834   */\n      dup3\n        /* \"#utility.yul\":5742:5835   */\n      tag_79\n      jump\t// in\n    tag_155:\n        /* \"#utility.yul\":5860:5862   */\n      0x20\n        /* \"#utility.yul\":5855:5858   */\n      dup3\n        /* \"#utility.yul\":5851:5863   */\n      add\n        /* \"#utility.yul\":5844:5863   */\n      swap1\n      pop\n        /* \"#utility.yul\":5503:5869   */\n      swap2\n      swap1\n      pop\n      jump\t// out\n        /* \"#utility.yul\":5875:6294   */\n    tag_45:\n        /* \"#utility.yul\":6041:6045   */\n      0x00\n        /* \"#utility.yul\":6079:6081   */\n      0x20\n        /* \"#utility.yul\":6068:6077   */\n      dup3\n        /* \"#utility.yul\":6064:6082   */\n      add\n        /* \"#utility.yul\":6056:6082   */\n      swap1\n      pop\n        /* \"#utility.yul\":6128:6137   */\n      dup2\n        /* \"#utility.yul\":6122:6126   */\n      dup2\n        /* \"#utility.yul\":6118:6138   */\n      sub\n        /* \"#utility.yul\":6114:6115   */\n      0x00\n        /* \"#utility.yul\":6103:6112   */\n      dup4\n        /* \"#utility.yul\":6099:6116   */\n      add\n        /* \"#utility.yul\":6092:6139   */\n      mstore\n        /* \"#utility.yul\":6156:6287   */\n      tag_157\n        /* \"#utility.yul\":6282:6286   */\n      dup2\n        /* \"#utility.yul\":6156:6287   */\n      tag_80\n      jump\t// in\n    tag_157:\n        /* \"#utility.yul\":6148:6287   */\n      swap1\n      pop\n        /* \"#utility.yul\":5875:6294   */\n      swap2\n      swap1\n      pop\n      jump\t// out\n        /* \"#utility.yul\":6300:6467   */\n    tag_81:\n        /* \"#utility.yul\":6440:6459   */\n      0x546f6f206d616e7920617474656d707473000000000000000000000000000000\n        /* \"#utility.yul\":6436:6437   */\n      0x00\n        /* \"#utility.yul\":6428:6434   */\n      dup3\n        /* \"#utility.yul\":6424:6438   */\n      add\n        /* \"#utility.yul\":6417:6460   */\n      mstore\n        /* \"#utility.yul\":6300:6467   */\n      pop\n      jump\t// out\n        /* \"#utility.yul\":6473:6839   */\n    tag_82:\n        /* \"#utility.yul\":6615:6618   */\n      0x00\n        /* \"#utility.yul\":6636:6703   */\n      tag_160\n        /* \"#utility.yul\":6700:6702   */\n      0x11\n        /* \"#utility.yul\":6695:6698   */\n      dup4\n        /* \"#utility.yul\":6636:6703   */\n      tag_78\n      jump\t// in\n    tag_160:\n        /* \"#utility.yul\":6629:6703   */\n      swap2\n      pop\n        /* \"#utility.yul\":6712:6805   */\n      tag_161\n        /* \"#utility.yul\":6801:6804   */\n      dup3\n        /* \"#utility.yul\":6712:6805   */\n      tag_81\n      jump\t// in\n    tag_161:\n        /* \"#utility.yul\":6830:6832   */\n      0x20\n        /* \"#utility.yul\":6825:6828   */\n      dup3\n        /* \"#utility.yul\":6821:6833   */\n      add\n        /* \"#utility.yul\":6814:6833   */\n      swap1\n      pop\n        /* \"#utility.yul\":6473:6839   */\n      swap2\n      swap1\n      pop\n      jump\t// out\n        /* \"#utility.yul\":6845:7264   */\n    tag_48:\n        /* \"#utility.yul\":7011:7015   */\n      0x00\n        /* \"#utility.yul\":7049:7051   */\n      0x20\n        /* \"#utility.yul\":7038:7047   */\n      dup3\n        /* \"#utility.yul\":7034:7052   */\n      add\n        /* \"#utility.yul\":7026:7052   */\n      swap1\n      pop\n        /* \"#utility.yul\":7098:7107   */\n      dup2\n        /* \"#utility.yul\":7092:7096   */\n      dup2\n        /* \"#utility.yul\":7088:7108   */\n      sub\n        /* \"#utility.yul\":7084:7085   */\n      0x00\n        /* \"#utility.yul\":7073:7082   */\n      dup4\n        /* \"#utility.yul\":7069:7086   */\n      add\n        /* \"#utility.yul\":7062:7109   */\n      mstore\n        /* \"#utility.yul\":7126:7257   */\n      tag_163\n        /* \"#utility.yul\":7252:7256   */\n      dup2\n        /* \"#utility.yul\":7126:7257   */\n      tag_82\n      jump\t// in\n    tag_163:\n        /* \"#utility.yul\":7118:7257   */\n      swap1\n      pop\n        /* \"#utility.yul\":6845:7264   */\n      swap2\n      swap1\n      pop\n      jump\t// out\n        /* \"#utility.yul\":7270:7503   */\n    tag_50:\n        /* \"#utility.yul\":7309:7312   */\n      0x00\n        /* \"#utility.yul\":7332:7356   */\n      tag_165\n        /* \"#utility.yul\":7350:7355   */\n      dup3\n        /* \"#utility.yul\":7332:7356   */\n      tag_56\n      jump\t// in\n    tag_165:\n        /* \"#utility.yul\":7323:7356   */\n      swap2\n      pop\n        /* \"#utility.yul\":7378:7444   */\n      0xffffffffffffffffffffffffffffffffffffffffffffffffffffffffffffffff\n        /* \"#utility.yul\":7371:7376   */\n      dup3\n        /* \"#utility.yul\":7368:7445   */\n      sub\n        /* \"#utility.yul\":7365:7468   */\n      tag_166\n      jumpi\n        /* \"#utility.yul\":7448:7466   */\n      tag_167\n      tag_77\n      jump\t// in\n    tag_167:\n        /* \"#utility.yul\":7365:7468   */\n    tag_166:\n        /* \"#utility.yul\":7495:7496   */\n      0x01\n        /* \"#utility.yul\":7488:7493   */\n      dup3\n        /* \"#utility.yul\":7484:7497   */\n      add\n        /* \"#utility.yul\":7477:7497   */\n      swap1\n      pop\n        /* \"#utility.yul\":7270:7503   */\n      swap2\n      swap1\n      pop\n      jump\t// out\n        /* \"#utility.yul\":7509:7608   */\n    tag_83:\n        /* \"#utility.yul\":7561:7567   */\n      0x00\n        /* \"#utility.yul\":7595:7600   */\n      dup2\n        /* \"#utility.yul\":7589:7601   */\n      mload\n        /* \"#utility.yul\":7579:7601   */\n      swap1\n      pop\n        /* \"#utility.yul\":7509:7608   */\n      swap2\n      swap1\n      pop\n      jump\t// out\n        /* \"#utility.yul\":7614:7762   */\n    tag_84:\n        /* \"#utility.yul\":7716:7727   */\n      0x00\n        /* \"#utility.yul\":7753:7756   */\n      dup2\n        /* \"#utility.yul\":7738:7756   */\n      swap1\n      pop\n        /* \"#utility.yul\":7614:7762   */\n      swap3\n      swap2\n      pop\n      pop\n      jump\t// out\n        /* \"#utility.yul\":7768:7907   */\n    tag_85:\n        /* \"#utility.yul\":7857:7863   */\n      dup3\n        /* \"#utility.yul\":7852:7855   */\n      dup2\n        /* \"#utility.yul\":7847:7850   */\n      dup4\n        /* \"#utility.yul\":7841:7864   */\n      mcopy\n        /* \"#utility.yul\":7898:7899   */\n      0x00\n        /* \"#utility.yul\":7889:7895   */\n      dup4\n        /* \"#utility.yul\":7884:7887   */\n      dup4\n        /* \"#utility.yul\":7880:7896   */\n      add\n        /* \"#utility.yul\":7873:7900   */\n      mstore\n        /* \"#utility.yul\":7768:7907   */\n      pop\n      pop\n      pop\n      jump\t// out\n        /* \"#utility.yul\":7913:8303   */\n    tag_86:\n        /* \"#utility.yul\":8019:8022   */\n      0x00\n        /* \"#utility.yul\":8047:8086   */\n      tag_172\n        /* \"#utility.yul\":8080:8085   */\n      dup3\n        /* \"#utility.yul\":8047:8086   */\n      tag_83\n      jump\t// in\n    tag_172:\n        /* \"#utility.yul\":8102:8191   */\n      tag_173\n        /* \"#utility.yul\":8184:8190   */\n      dup2\n        /* \"#utility.yul\":8179:8182   */\n      dup6\n        /* \"#utility.yul\":8102:8191   */\n      tag_84\n      jump\t// in\n    tag_173:\n        /* \"#utility.yul\":8095:8191   */\n      swap4\n      pop\n        /* \"#utility.yul\":8200:8265   */\n      tag_174\n        /* \"#utility.yul\":8258:8264   */\n      dup2\n        /* \"#utility.yul\":8253:8256   */\n      dup6\n        /* \"#utility.yul\":8246:8250   */\n      0x20\n        /* \"#utility.yul\":8239:8244   */\n      dup7\n        /* \"#utility.yul\":8235:8251   */\n      add\n        /* \"#utility.yul\":8200:8265   */\n      tag_85\n      jump\t// in\n    tag_174:\n        /* \"#utility.yul\":8290:8296   */\n      dup1\n        /* \"#utility.yul\":8285:8288   */\n      dup5\n        /* \"#utility.yul\":8281:8297   */\n      add\n        /* \"#utility.yul\":8274:8297   */\n      swap2\n      pop\n        /* \"#utility.yul\":8023:8303   */\n      pop\n        /* \"#utility.yul\":7913:8303   */\n      swap3\n      swap2\n      pop\n      pop\n      jump\t// out\n        /* \"#utility.yul\":8309:8584   */\n    tag_54:\n        /* \"#utility.yul\":8441:8444   */\n      0x00\n        /* \"#utility.yul\":8463:8558   */\n      tag_176\n        /* \"#utility.yul\":8554:8557   */\n      dup3\n        /* \"#utility.yul\":8545:8551   */\n      dup5\n        /* \"#utility.yul\":8463:8558   */\n      tag_86\n      jump\t// in\n    tag_176:\n        /* \"#utility.yul\":8456:8558   */\n      swap2\n      pop\n        /* \"#utility.yul\":8575:8578   */\n      dup2\n        /* \"#utility.yul\":8568:8578   */\n      swap1\n      pop\n        /* \"#utility.yul\":8309:8584   */\n      swap3\n      swap2\n      pop\n      pop\n      jump\t// out\n\n    auxdata: 0xa2646970667358221220df47113255d7a2a5d2bee7ce331e818fc034e01a499fa6987cc4181e8d88df8764736f6c634300081d0033\n}\n",
				"bytecode": {
					"linkReferences": {},
					"object": "60806040526005600155603c600455348015610019575f5ffd5b50604051610b00380380610b00833981810160405281019061003b91906101ba565b8060405160200161004c9190610245565b604051602081830303815290604052805190602001205f819055505061025b565b5f604051905090565b5f5ffd5b5f5ffd5b5f5ffd5b5f5ffd5b5f601f19601f8301169050919050565b7f4e487b71000000000000000000000000000000000000000000000000000000005f52604160045260245ffd5b6100cc82610086565b810181811067ffffffffffffffff821117156100eb576100ea610096565b5b80604052505050565b5f6100fd61006d565b905061010982826100c3565b919050565b5f67ffffffffffffffff82111561012857610127610096565b5b61013182610086565b9050602081019050919050565b8281835e5f83830152505050565b5f61015e6101598461010e565b6100f4565b90508281526020810184848401111561017a57610179610082565b5b61018584828561013e565b509392505050565b5f82601f8301126101a1576101a061007e565b5b81516101b184826020860161014c565b91505092915050565b5f602082840312156101cf576101ce610076565b5b5f82015167ffffffffffffffff8111156101ec576101eb61007a565b5b6101f88482850161018d565b91505092915050565b5f81519050919050565b5f81905092915050565b5f61021f82610201565b610229818561020b565b935061023981856020860161013e565b80840191505092915050565b5f6102508284610215565b915081905092915050565b610898806102685f395ff3fe608060405234801561000f575f5ffd5b506004361061007b575f3560e01c8063787a08a611610059578063787a08a6146100fd5780637c775ce51461011b57806386cbc8b61461014b5780639a41212f1461017b5761007b565b80633fa5ef611461007f578063672657be1461009d5780637241c04a146100cd575b5f5ffd5b610087610197565b604051610094919061040e565b60405180910390f35b6100b760048036038101906100b29190610492565b61019d565b6040516100c4919061040e565b60405180910390f35b6100e760048036038101906100e291906105f9565b6101b2565b6040516100f4919061065a565b60405180910390f35b610105610364565b604051610112919061040e565b60405180910390f35b61013560048036038101906101309190610492565b61036a565b604051610142919061040e565b60405180910390f35b610165600480360381019061016091906105f9565b61037f565b604051610172919061065a565b60405180910390f35b61019560048036038101906101909190610492565b6103b1565b005b60015481565b6002602052805f5260405f205f915090505481565b5f60045460035f3373ffffffffffffffffffffffffffffffffffffffff1673ffffffffffffffffffffffffffffffffffffffff1681526020019081526020015f20546101fe91906106a0565b421161023f576040517f08c379a00000000000000000000000000000000000000000000000000000000081526004016102369061072d565b60405180910390fd5b60015460025f3373ffffffffffffffffffffffffffffffffffffffff1673ffffffffffffffffffffffffffffffffffffffff1681526020019081526020015f2054106102c0576040517f08c379a00000000000000000000000000000000000000000000000000000000081526004016102b790610795565b60405180910390fd5b60025f3373ffffffffffffffffffffffffffffffffffffffff1673ffffffffffffffffffffffffffffffffffffffff1681526020019081526020015f205f81548092919061030d906107b3565b91905055504260035f3373ffffffffffffffffffffffffffffffffffffffff1673ffffffffffffffffffffffffffffffffffffffff1681526020019081526020015f208190555061035d8261037f565b9050919050565b60045481565b6003602052805f5260405f205f915090505481565b5f5f5482604051602001610393919061084c565b60405160208183030381529060405280519060200120149050919050565b5f60025f8373ffffffffffffffffffffffffffffffffffffffff1673ffffffffffffffffffffffffffffffffffffffff1681526020019081526020015f208190555050565b5f819050919050565b610408816103f6565b82525050565b5f6020820190506104215f8301846103ff565b92915050565b5f604051905090565b5f5ffd5b5f5ffd5b5f73ffffffffffffffffffffffffffffffffffffffff82169050919050565b5f61046182610438565b9050919050565b61047181610457565b811461047b575f5ffd5b50565b5f8135905061048c81610468565b92915050565b5f602082840312156104a7576104a6610430565b5b5f6104b48482850161047e565b91505092915050565b5f5ffd5b5f5ffd5b5f601f19601f8301169050919050565b7f4e487b71000000000000000000000000000000000000000000000000000000005f52604160045260245ffd5b61050b826104c5565b810181811067ffffffffffffffff8211171561052a576105296104d5565b5b80604052505050565b5f61053c610427565b90506105488282610502565b919050565b5f67ffffffffffffffff821115610567576105666104d5565b5b610570826104c5565b9050602081019050919050565b828183375f83830152505050565b5f61059d6105988461054d565b610533565b9050828152602081018484840111156105b9576105b86104c1565b5b6105c484828561057d565b509392505050565b5f82601f8301126105e0576105df6104bd565b5b81356105f084826020860161058b565b91505092915050565b5f6020828403121561060e5761060d610430565b5b5f82013567ffffffffffffffff81111561062b5761062a610434565b5b610637848285016105cc565b91505092915050565b5f8115159050919050565b61065481610640565b82525050565b5f60208201905061066d5f83018461064b565b92915050565b7f4e487b71000000000000000000000000000000000000000000000000000000005f52601160045260245ffd5b5f6106aa826103f6565b91506106b5836103f6565b92508282019050808211156106cd576106cc610673565b5b92915050565b5f82825260208201905092915050565b7f436f6f6c646f776e2061637469766500000000000000000000000000000000005f82015250565b5f610717600f836106d3565b9150610722826106e3565b602082019050919050565b5f6020820190508181035f8301526107448161070b565b9050919050565b7f546f6f206d616e7920617474656d7074730000000000000000000000000000005f82015250565b5f61077f6011836106d3565b915061078a8261074b565b602082019050919050565b5f6020820190508181035f8301526107ac81610773565b9050919050565b5f6107bd826103f6565b91507fffffffffffffffffffffffffffffffffffffffffffffffffffffffffffffffff82036107ef576107ee610673565b5b600182019050919050565b5f81519050919050565b5f81905092915050565b8281835e5f83830152505050565b5f610826826107fa565b6108308185610804565b935061084081856020860161080e565b80840191505092915050565b5f610857828461081c565b91508190509291505056fea2646970667358221220df47113255d7a2a5d2bee7ce331e818fc034e01a499fa6987cc4181e8d88df8764736f6c634300081d0033",
					"opcodes": "PUSH1 0x80 PUSH1 0x40 MSTORE PUSH1 0x5 PUSH1 0x1 SSTORE PUSH1 0x3C PUSH1 0x4 SSTORE CALLVALUE DUP1 ISZERO PUSH2 0x19 JUMPI PUSH0 PUSH0 REVERT JUMPDEST POP PUSH1 0x40 MLOAD PUSH2 0xB00 CODESIZE SUB DUP1 PUSH2 0xB00 DUP4 CODECOPY DUP2 DUP2 ADD PUSH1 0x40 MSTORE DUP2 ADD SWAP1 PUSH2 0x3B SWAP2 SWAP1 PUSH2 0x1BA JUMP JUMPDEST DUP1 PUSH1 0x40 MLOAD PUSH1 0x20 ADD PUSH2 0x4C SWAP2 SWAP1 PUSH2 0x245 JUMP JUMPDEST PUSH1 0x40 MLOAD PUSH1 0x20 DUP2 DUP4 SUB SUB DUP2 MSTORE SWAP1 PUSH1 0x40 MSTORE DUP1 MLOAD SWAP1 PUSH1 0x20 ADD KECCAK256 PUSH0 DUP2 SWAP1 SSTORE POP POP PUSH2 0x25B JUMP JUMPDEST PUSH0 PUSH1 0x40 MLOAD SWAP1 POP SWAP1 JUMP JUMPDEST PUSH0 PUSH0 REVERT JUMPDEST PUSH0 PUSH0 REVERT JUMPDEST PUSH0 PUSH0 REVERT JUMPDEST PUSH0 PUSH0 REVERT JUMPDEST PUSH0 PUSH1 0x1F NOT PUSH1 0x1F DUP4 ADD AND SWAP1 POP SWAP2 SWAP1 POP JUMP JUMPDEST PUSH32 0x4E487B7100000000000000000000000000000000000000000000000000000000 PUSH0 MSTORE PUSH1 0x41 PUSH1 0x4 MSTORE PUSH1 0x24 PUSH0 REVERT JUMPDEST PUSH2 0xCC DUP3 PUSH2 0x86 JUMP JUMPDEST DUP2 ADD DUP2 DUP2 LT PUSH8 0xFFFFFFFFFFFFFFFF DUP3 GT OR ISZERO PUSH2 0xEB JUMPI PUSH2 0xEA PUSH2 0x96 JUMP JUMPDEST JUMPDEST DUP1 PUSH1 0x40 MSTORE POP POP POP JUMP JUMPDEST PUSH0 PUSH2 0xFD PUSH2 0x6D JUMP JUMPDEST SWAP1 POP PUSH2 0x109 DUP3 DUP3 PUSH2 0xC3 JUMP JUMPDEST SWAP2 SWAP1 POP JUMP JUMPDEST PUSH0 PUSH8 0xFFFFFFFFFFFFFFFF DUP3 GT ISZERO PUSH2 0x128 JUMPI PUSH2 0x127 PUSH2 0x96 JUMP JUMPDEST JUMPDEST PUSH2 0x131 DUP3 PUSH2 0x86 JUMP JUMPDEST SWAP1 POP PUSH1 0x20 DUP2 ADD SWAP1 POP SWAP2 SWAP1 POP JUMP JUMPDEST DUP3 DUP2 DUP4 MCOPY PUSH0 DUP4 DUP4 ADD MSTORE POP POP POP JUMP JUMPDEST PUSH0 PUSH2 0x15E PUSH2 0x159 DUP5 PUSH2 0x10E JUMP JUMPDEST PUSH2 0xF4 JUMP JUMPDEST SWAP1 POP DUP3 DUP2 MSTORE PUSH1 0x20 DUP2 ADD DUP5 DUP5 DUP5 ADD GT ISZERO PUSH2 0x17A JUMPI PUSH2 0x179 PUSH2 0x82 JUMP JUMPDEST JUMPDEST PUSH2 0x185 DUP5 DUP3 DUP6 PUSH2 0x13E JUMP JUMPDEST POP SWAP4 SWAP3 POP POP POP JUMP JUMPDEST PUSH0 DUP3 PUSH1 0x1F DUP4 ADD SLT PUSH2 0x1A1 JUMPI PUSH2 0x1A0 PUSH2 0x7E JUMP JUMPDEST JUMPDEST DUP2 MLOAD PUSH2 0x1B1 DUP5 DUP3 PUSH1 0x20 DUP7 ADD PUSH2 0x14C JUMP JUMPDEST SWAP2 POP POP SWAP3 SWAP2 POP POP JUMP JUMPDEST PUSH0 PUSH1 0x20 DUP3 DUP5 SUB SLT ISZERO PUSH2 0x1CF JUMPI PUSH2 0x1CE PUSH2 0x76 JUMP JUMPDEST JUMPDEST PUSH0 DUP3 ADD MLOAD PUSH8 0xFFFFFFFFFFFFFFFF DUP2 GT ISZERO PUSH2 0x1EC JUMPI PUSH2 0x1EB PUSH2 0x7A JUMP JUMPDEST JUMPDEST PUSH2 0x1F8 DUP5 DUP3 DUP6 ADD PUSH2 0x18D JUMP JUMPDEST SWAP2 POP POP SWAP3 SWAP2 POP POP JUMP JUMPDEST PUSH0 DUP2 MLOAD SWAP1 POP SWAP2 SWAP1 POP JUMP JUMPDEST PUSH0 DUP2 SWAP1 POP SWAP3 SWAP2 POP POP JUMP JUMPDEST PUSH0 PUSH2 0x21F DUP3 PUSH2 0x201 JUMP JUMPDEST PUSH2 0x229 DUP2 DUP6 PUSH2 0x20B JUMP JUMPDEST SWAP4 POP PUSH2 0x239 DUP2 DUP6 PUSH1 0x20 DUP7 ADD PUSH2 0x13E JUMP JUMPDEST DUP1 DUP5 ADD SWAP2 POP POP SWAP3 SWAP2 POP POP JUMP JUMPDEST PUSH0 PUSH2 0x250 DUP3 DUP5 PUSH2 0x215 JUMP JUMPDEST SWAP2 POP DUP2 SWAP1 POP SWAP3 SWAP2 POP POP JUMP JUMPDEST PUSH2 0x898 DUP1 PUSH2 0x268 PUSH0 CODECOPY PUSH0 RETURN INVALID PUSH1 0x80 PUSH1 0x40 MSTORE CALLVALUE DUP1 ISZERO PUSH2 0xF JUMPI PUSH0 PUSH0 REVERT JUMPDEST POP PUSH1 0x4 CALLDATASIZE LT PUSH2 0x7B JUMPI PUSH0 CALLDATALOAD PUSH1 0xE0 SHR DUP1 PUSH4 0x787A08A6 GT PUSH2 0x59 JUMPI DUP1 PUSH4 0x787A08A6 EQ PUSH2 0xFD JUMPI DUP1 PUSH4 0x7C775CE5 EQ PUSH2 0x11B JUMPI DUP1 PUSH4 0x86CBC8B6 EQ PUSH2 0x14B JUMPI DUP1 PUSH4 0x9A41212F EQ PUSH2 0x17B JUMPI PUSH2 0x7B JUMP JUMPDEST DUP1 PUSH4 0x3FA5EF61 EQ PUSH2 0x7F JUMPI DUP1 PUSH4 0x672657BE EQ PUSH2 0x9D JUMPI DUP1 PUSH4 0x7241C04A EQ PUSH2 0xCD JUMPI JUMPDEST PUSH0 PUSH0 REVERT JUMPDEST PUSH2 0x87 PUSH2 0x197 JUMP JUMPDEST PUSH1 0x40 MLOAD PUSH2 0x94 SWAP2 SWAP1 PUSH2 0x40E JUMP JUMPDEST PUSH1 0x40 MLOAD DUP1 SWAP2 SUB SWAP1 RETURN JUMPDEST PUSH2 0xB7 PUSH1 0x4 DUP1 CALLDATASIZE SUB DUP2 ADD SWAP1 PUSH2 0xB2 SWAP2 SWAP1 PUSH2 0x492 JUMP JUMPDEST PUSH2 0x19D JUMP JUMPDEST PUSH1 0x40 MLOAD PUSH2 0xC4 SWAP2 SWAP1 PUSH2 0x40E JUMP JUMPDEST PUSH1 0x40 MLOAD DUP1 SWAP2 SUB SWAP1 RETURN JUMPDEST PUSH2 0xE7 PUSH1 0x4 DUP1 CALLDATASIZE SUB DUP2 ADD SWAP1 PUSH2 0xE2 SWAP2 SWAP1 PUSH2 0x5F9 JUMP JUMPDEST PUSH2 0x1B2 JUMP JUMPDEST PUSH1 0x40 MLOAD PUSH2 0xF4 SWAP2 SWAP1 PUSH2 0x65A JUMP JUMPDEST PUSH1 0x40 MLOAD DUP1 SWAP2 SUB SWAP1 RETURN JUMPDEST PUSH2 0x105 PUSH2 0x364 JUMP JUMPDEST PUSH1 0x40 MLOAD PUSH2 0x112 SWAP2 SWAP1 PUSH2 0x40E JUMP JUMPDEST PUSH1 0x40 MLOAD DUP1 SWAP2 SUB SWAP1 RETURN JUMPDEST PUSH2 0x135 PUSH1 0x4 DUP1 CALLDATASIZE SUB DUP2 ADD SWAP1 PUSH2 0x130 SWAP2 SWAP1 PUSH2 0x492 JUMP JUMPDEST PUSH2 0x36A JUMP JUMPDEST PUSH1 0x40 MLOAD PUSH2 0x142 SWAP2 SWAP1 PUSH2 0x40E JUMP JUMPDEST PUSH1 0x40 MLOAD DUP1 SWAP2 SUB SWAP1 RETURN JUMPDEST PUSH2 0x165 PUSH1 0x4 DUP1 CALLDATASIZE SUB DUP2 ADD SWAP1 PUSH2 0x160 SWAP2 SWAP1 PUSH2 0x5F9 JUMP JUMPDEST PUSH2 0x37F JUMP JUMPDEST PUSH1 0x40 MLOAD PUSH2 0x172 SWAP2 SWAP1 PUSH2 0x65A JUMP JUMPDEST PUSH1 0x40 MLOAD DUP1 SWAP2 SUB SWAP1 RETURN JUMPDEST PUSH2 0x195 PUSH1 0x4 DUP1 CALLDATASIZE SUB DUP2 ADD SWAP1 PUSH2 0x190 SWAP2 SWAP1 PUSH2 0x492 JUMP JUMPDEST PUSH2 0x3B1 JUMP JUMPDEST STOP JUMPDEST PUSH1 0x1 SLOAD DUP2 JUMP JUMPDEST PUSH1 0x2 PUSH1 0x20 MSTORE DUP1 PUSH0 MSTORE PUSH1 0x40 PUSH0 KECCAK256 PUSH0 SWAP2 POP SWAP1 POP SLOAD DUP2 JUMP JUMPDEST PUSH0 PUSH1 0x4 SLOAD PUSH1 0x3 PUSH0 CALLER PUSH20 0xFFFFFFFFFFFFFFFFFFFFFFFFFFFFFFFFFFFFFFFF AND PUSH20 0xFFFFFFFFFFFFFFFFFFFFFFFFFFFFFFFFFFFFFFFF AND DUP2 MSTORE PUSH1 0x20 ADD SWAP1 DUP2 MSTORE PUSH1 0x20 ADD PUSH0 KECCAK256 SLOAD PUSH2 0x1FE SWAP2 SWAP1 PUSH2 0x6A0 JUMP JUMPDEST TIMESTAMP GT PUSH2 0x23F JUMPI PUSH1 0x40 MLOAD PUSH32 0x8C379A000000000000000000000000000000000000000000000000000000000 DUP2 MSTORE PUSH1 0x4 ADD PUSH2 0x236 SWAP1 PUSH2 0x72D JUMP JUMPDEST PUSH1 0x40 MLOAD DUP1 SWAP2 SUB SWAP1 REVERT JUMPDEST PUSH1 0x1 SLOAD PUSH1 0x2 PUSH0 CALLER PUSH20 0xFFFFFFFFFFFFFFFFFFFFFFFFFFFFFFFFFFFFFFFF AND PUSH20 0xFFFFFFFFFFFFFFFFFFFFFFFFFFFFFFFFFFFFFFFF AND DUP2 MSTORE PUSH1 0x20 ADD SWAP1 DUP2 MSTORE PUSH1 0x20 ADD PUSH0 KECCAK256 SLOAD LT PUSH2 0x2C0 JUMPI PUSH1 0x40 MLOAD PUSH32 0x8C379A000000000000000000000000000000000000000000000000000000000 DUP2 MSTORE PUSH1 0x4 ADD PUSH2 0x2B7 SWAP1 PUSH2 0x795 JUMP JUMPDEST PUSH1 0x40 MLOAD DUP1 SWAP2 SUB SWAP1 REVERT JUMPDEST PUSH1 0x2 PUSH0 CALLER PUSH20 0xFFFFFFFFFFFFFFFFFFFFFFFFFFFFFFFFFFFFFFFF AND PUSH20 0xFFFFFFFFFFFFFFFFFFFFFFFFFFFFFFFFFFFFFFFF AND DUP2 MSTORE PUSH1 0x20 ADD SWAP1 DUP2 MSTORE PUSH1 0x20 ADD PUSH0 KECCAK256 PUSH0 DUP2 SLOAD DUP1 SWAP3 SWAP2 SWAP1 PUSH2 0x30D SWAP1 PUSH2 0x7B3 JUMP JUMPDEST SWAP2 SWAP1 POP SSTORE POP TIMESTAMP PUSH1 0x3 PUSH0 CALLER PUSH20 0xFFFFFFFFFFFFFFFFFFFFFFFFFFFFFFFFFFFFFFFF AND PUSH20 0xFFFFFFFFFFFFFFFFFFFFFFFFFFFFFFFFFFFFFFFF AND DUP2 MSTORE PUSH1 0x20 ADD SWAP1 DUP2 MSTORE PUSH1 0x20 ADD PUSH0 KECCAK256 DUP2 SWAP1 SSTORE POP PUSH2 0x35D DUP3 PUSH2 0x37F JUMP JUMPDEST SWAP1 POP SWAP2 SWAP1 POP JUMP JUMPDEST PUSH1 0x4 SLOAD DUP2 JUMP JUMPDEST PUSH1 0x3 PUSH1 0x20 MSTORE DUP1 PUSH0 MSTORE PUSH1 0x40 PUSH0 KECCAK256 PUSH0 SWAP2 POP SWAP1 POP SLOAD DUP2 JUMP JUMPDEST PUSH0 PUSH0 SLOAD DUP3 PUSH1 0x40 MLOAD PUSH1 0x20 ADD PUSH2 0x393 SWAP2 SWAP1 PUSH2 0x84C JUMP JUMPDEST PUSH1 0x40 MLOAD PUSH1 0x20 DUP2 DUP4 SUB SUB DUP2 MSTORE SWAP1 PUSH1 0x40 MSTORE DUP1 MLOAD SWAP1 PUSH1 0x20 ADD KECCAK256 EQ SWAP1 POP SWAP2 SWAP1 POP JUMP JUMPDEST PUSH0 PUSH1 0x2 PUSH0 DUP4 PUSH20 0xFFFFFFFFFFFFFFFFFFFFFFFFFFFFFFFFFFFFFFFF AND PUSH20 0xFFFFFFFFFFFFFFFFFFFFFFFFFFFFFFFFFFFFFFFF AND DUP2 MSTORE PUSH1 0x20 ADD SWAP1 DUP2 MSTORE PUSH1 0x20 ADD PUSH0 KECCAK256 DUP2 SWAP1 SSTORE POP POP JUMP JUMPDEST PUSH0 DUP2 SWAP1 POP SWAP2 SWAP1 POP JUMP JUMPDEST PUSH2 0x408 DUP2 PUSH2 0x3F6 JUMP JUMPDEST DUP3 MSTORE POP POP JUMP JUMPDEST PUSH0 PUSH1 0x20 DUP3 ADD SWAP1 POP PUSH2 0x421 PUSH0 DUP4 ADD DUP5 PUSH2 0x3FF JUMP JUMPDEST SWAP3 SWAP2 POP POP JUMP JUMPDEST PUSH0 PUSH1 0x40 MLOAD SWAP1 POP SWAP1 JUMP JUMPDEST PUSH0 PUSH0 REVERT JUMPDEST PUSH0 PUSH0 REVERT JUMPDEST PUSH0 PUSH20 0xFFFFFFFFFFFFFFFFFFFFFFFFFFFFFFFFFFFFFFFF DUP3 AND SWAP1 POP SWAP2 SWAP1 POP JUMP JUMPDEST PUSH0 PUSH2 0x461 DUP3 PUSH2 0x438 JUMP JUMPDEST SWAP1 POP SWAP2 SWAP1 POP JUMP JUMPDEST PUSH2 0x471 DUP2 PUSH2 0x457 JUMP JUMPDEST DUP2 EQ PUSH2 0x47B JUMPI PUSH0 PUSH0 REVERT JUMPDEST POP JUMP JUMPDEST PUSH0 DUP2 CALLDATALOAD SWAP1 POP PUSH2 0x48C DUP2 PUSH2 0x468 JUMP JUMPDEST SWAP3 SWAP2 POP POP JUMP JUMPDEST PUSH0 PUSH1 0x20 DUP3 DUP5 SUB SLT ISZERO PUSH2 0x4A7 JUMPI PUSH2 0x4A6 PUSH2 0x430 JUMP JUMPDEST JUMPDEST PUSH0 PUSH2 0x4B4 DUP5 DUP3 DUP6 ADD PUSH2 0x47E JUMP JUMPDEST SWAP2 POP POP SWAP3 SWAP2 POP POP JUMP JUMPDEST PUSH0 PUSH0 REVERT JUMPDEST PUSH0 PUSH0 REVERT JUMPDEST PUSH0 PUSH1 0x1F NOT PUSH1 0x1F DUP4 ADD AND SWAP1 POP SWAP2 SWAP1 POP JUMP JUMPDEST PUSH32 0x4E487B7100000000000000000000000000000000000000000000000000000000 PUSH0 MSTORE PUSH1 0x41 PUSH1 0x4 MSTORE PUSH1 0x24 PUSH0 REVERT JUMPDEST PUSH2 0x50B DUP3 PUSH2 0x4C5 JUMP JUMPDEST DUP2 ADD DUP2 DUP2 LT PUSH8 0xFFFFFFFFFFFFFFFF DUP3 GT OR ISZERO PUSH2 0x52A JUMPI PUSH2 0x529 PUSH2 0x4D5 JUMP JUMPDEST JUMPDEST DUP1 PUSH1 0x40 MSTORE POP POP POP JUMP JUMPDEST PUSH0 PUSH2 0x53C PUSH2 0x427 JUMP JUMPDEST SWAP1 POP PUSH2 0x548 DUP3 DUP3 PUSH2 0x502 JUMP JUMPDEST SWAP2 SWAP1 POP JUMP JUMPDEST PUSH0 PUSH8 0xFFFFFFFFFFFFFFFF DUP3 GT ISZERO PUSH2 0x567 JUMPI PUSH2 0x566 PUSH2 0x4D5 JUMP JUMPDEST JUMPDEST PUSH2 0x570 DUP3 PUSH2 0x4C5 JUMP JUMPDEST SWAP1 POP PUSH1 0x20 DUP2 ADD SWAP1 POP SWAP2 SWAP1 POP JUMP JUMPDEST DUP3 DUP2 DUP4 CALLDATACOPY PUSH0 DUP4 DUP4 ADD MSTORE POP POP POP JUMP JUMPDEST PUSH0 PUSH2 0x59D PUSH2 0x598 DUP5 PUSH2 0x54D JUMP JUMPDEST PUSH2 0x533 JUMP JUMPDEST SWAP1 POP DUP3 DUP2 MSTORE PUSH1 0x20 DUP2 ADD DUP5 DUP5 DUP5 ADD GT ISZERO PUSH2 0x5B9 JUMPI PUSH2 0x5B8 PUSH2 0x4C1 JUMP JUMPDEST JUMPDEST PUSH2 0x5C4 DUP5 DUP3 DUP6 PUSH2 0x57D JUMP JUMPDEST POP SWAP4 SWAP3 POP POP POP JUMP JUMPDEST PUSH0 DUP3 PUSH1 0x1F DUP4 ADD SLT PUSH2 0x5E0 JUMPI PUSH2 0x5DF PUSH2 0x4BD JUMP JUMPDEST JUMPDEST DUP2 CALLDATALOAD PUSH2 0x5F0 DUP5 DUP3 PUSH1 0x20 DUP7 ADD PUSH2 0x58B JUMP JUMPDEST SWAP2 POP POP SWAP3 SWAP2 POP POP JUMP JUMPDEST PUSH0 PUSH1 0x20 DUP3 DUP5 SUB SLT ISZERO PUSH2 0x60E JUMPI PUSH2 0x60D PUSH2 0x430 JUMP JUMPDEST JUMPDEST PUSH0 DUP3 ADD CALLDATALOAD PUSH8 0xFFFFFFFFFFFFFFFF DUP2 GT ISZERO PUSH2 0x62B JUMPI PUSH2 0x62A PUSH2 0x434 JUMP JUMPDEST JUMPDEST PUSH2 0x637 DUP5 DUP3 DUP6 ADD PUSH2 0x5CC JUMP JUMPDEST SWAP2 POP POP SWAP3 SWAP2 POP POP JUMP JUMPDEST PUSH0 DUP2 ISZERO ISZERO SWAP1 POP SWAP2 SWAP1 POP JUMP JUMPDEST PUSH2 0x654 DUP2 PUSH2 0x640 JUMP JUMPDEST DUP3 MSTORE POP POP JUMP JUMPDEST PUSH0 PUSH1 0x20 DUP3 ADD SWAP1 POP PUSH2 0x66D PUSH0 DUP4 ADD DUP5 PUSH2 0x64B JUMP JUMPDEST SWAP3 SWAP2 POP POP JUMP JUMPDEST PUSH32 0x4E487B7100000000000000000000000000000000000000000000000000000000 PUSH0 MSTORE PUSH1 0x11 PUSH1 0x4 MSTORE PUSH1 0x24 PUSH0 REVERT JUMPDEST PUSH0 PUSH2 0x6AA DUP3 PUSH2 0x3F6 JUMP JUMPDEST SWAP2 POP PUSH2 0x6B5 DUP4 PUSH2 0x3F6 JUMP JUMPDEST SWAP3 POP DUP3 DUP3 ADD SWAP1 POP DUP1 DUP3 GT ISZERO PUSH2 0x6CD JUMPI PUSH2 0x6CC PUSH2 0x673 JUMP JUMPDEST JUMPDEST SWAP3 SWAP2 POP POP JUMP JUMPDEST PUSH0 DUP3 DUP3 MSTORE PUSH1 0x20 DUP3 ADD SWAP1 POP SWAP3 SWAP2 POP POP JUMP JUMPDEST PUSH32 0x436F6F6C646F776E206163746976650000000000000000000000000000000000 PUSH0 DUP3 ADD MSTORE POP JUMP JUMPDEST PUSH0 PUSH2 0x717 PUSH1 0xF DUP4 PUSH2 0x6D3 JUMP JUMPDEST SWAP2 POP PUSH2 0x722 DUP3 PUSH2 0x6E3 JUMP JUMPDEST PUSH1 0x20 DUP3 ADD SWAP1 POP SWAP2 SWAP1 POP JUMP JUMPDEST PUSH0 PUSH1 0x20 DUP3 ADD SWAP1 POP DUP2 DUP2 SUB PUSH0 DUP4 ADD MSTORE PUSH2 0x744 DUP2 PUSH2 0x70B JUMP JUMPDEST SWAP1 POP SWAP2 SWAP1 POP JUMP JUMPDEST PUSH32 0x546F6F206D616E7920617474656D707473000000000000000000000000000000 PUSH0 DUP3 ADD MSTORE POP JUMP JUMPDEST PUSH0 PUSH2 0x77F PUSH1 0x11 DUP4 PUSH2 0x6D3 JUMP JUMPDEST SWAP2 POP PUSH2 0x78A DUP3 PUSH2 0x74B JUMP JUMPDEST PUSH1 0x20 DUP3 ADD SWAP1 POP SWAP2 SWAP1 POP JUMP JUMPDEST PUSH0 PUSH1 0x20 DUP3 ADD SWAP1 POP DUP2 DUP2 SUB PUSH0 DUP4 ADD MSTORE PUSH2 0x7AC DUP2 PUSH2 0x773 JUMP JUMPDEST SWAP1 POP SWAP2 SWAP1 POP JUMP JUMPDEST PUSH0 PUSH2 0x7BD DUP3 PUSH2 0x3F6 JUMP JUMPDEST SWAP2 POP PUSH32 0xFFFFFFFFFFFFFFFFFFFFFFFFFFFFFFFFFFFFFFFFFFFFFFFFFFFFFFFFFFFFFFFF DUP3 SUB PUSH2 0x7EF JUMPI PUSH2 0x7EE PUSH2 0x673 JUMP JUMPDEST JUMPDEST PUSH1 0x1 DUP3 ADD SWAP1 POP SWAP2 SWAP1 POP JUMP JUMPDEST PUSH0 DUP2 MLOAD SWAP1 POP SWAP2 SWAP1 POP JUMP JUMPDEST PUSH0 DUP2 SWAP1 POP SWAP3 SWAP2 POP POP JUMP JUMPDEST DUP3 DUP2 DUP4 MCOPY PUSH0 DUP4 DUP4 ADD MSTORE POP POP POP JUMP JUMPDEST PUSH0 PUSH2 0x826 DUP3 PUSH2 0x7FA JUMP JUMPDEST PUSH2 0x830 DUP2 DUP6 PUSH2 0x804 JUMP JUMPDEST SWAP4 POP PUSH2 0x840 DUP2 DUP6 PUSH1 0x20 DUP7 ADD PUSH2 0x80E JUMP JUMPDEST DUP1 DUP5 ADD SWAP2 POP POP SWAP3 SWAP2 POP POP JUMP JUMPDEST PUSH0 PUSH2 0x857 DUP3 DUP5 PUSH2 0x81C JUMP JUMPDEST SWAP2 POP DUP2 SWAP1 POP SWAP3 SWAP2 POP POP JUMP INVALID LOG2 PUSH5 0x6970667358 0x22 SLT KECCAK256 0xDF SELFBALANCE GT ORIGIN SSTORE 0xD7 LOG2 0xA5 0xD2 0xBE SWAPN 0xCE CALLER 0x1E DUP2 DUP16 0xC0 CALLVALUE RJUMP 0x1A49 SWAP16 0xA6 SWAP9 PUSH29 0xC4181E8D88DF8764736F6C634300081D00330000000000000000000000 "
				},
				"gasEstimates": {
					"creation": {
						"codeDepositCost": "440000",
						"executionCost": "infinite",
						"totalCost": "infinite"
					},
					"external": {
						"attempts(address)": "2825",
						"cooldown()": "2425",
						"guessProtected(string)": "infinite",
						"guessWithLimits(string)": "infinite",
						"lastAttemptTime(address)": "2824",
						"maxAttempts()": "2426",
						"resetAttempts(address)": "5616"
					}
				},
				"methodIdentifiers": {
					"attempts(address)": "672657be",
					"cooldown()": "787a08a6",
					"guessProtected(string)": "86cbc8b6",
					"guessWithLimits(string)": "7241c04a",
					"lastAttemptTime(address)": "7c775ce5",
					"maxAttempts()": "3fa5ef61",
					"resetAttempts(address)": "9a41212f"
				}
			},
			"storageLayout": {
				"storage": [
					{
						"astId": 3,
						"contract": "B/Bruteforce/Brute Force Resistant Contract (Rate-limiting + attempt cap) defense.sol:BruteForceDefender",
						"label": "secretHash",
						"offset": 0,
						"slot": "0",
						"type": "t_bytes32"
					},
					{
						"astId": 6,
						"contract": "B/Bruteforce/Brute Force Resistant Contract (Rate-limiting + attempt cap) defense.sol:BruteForceDefender",
						"label": "maxAttempts",
						"offset": 0,
						"slot": "1",
						"type": "t_uint256"
					},
					{
						"astId": 10,
						"contract": "B/Bruteforce/Brute Force Resistant Contract (Rate-limiting + attempt cap) defense.sol:BruteForceDefender",
						"label": "attempts",
						"offset": 0,
						"slot": "2",
						"type": "t_mapping(t_address,t_uint256)"
					},
					{
						"astId": 14,
						"contract": "B/Bruteforce/Brute Force Resistant Contract (Rate-limiting + attempt cap) defense.sol:BruteForceDefender",
						"label": "lastAttemptTime",
						"offset": 0,
						"slot": "3",
						"type": "t_mapping(t_address,t_uint256)"
					},
					{
						"astId": 17,
						"contract": "B/Bruteforce/Brute Force Resistant Contract (Rate-limiting + attempt cap) defense.sol:BruteForceDefender",
						"label": "cooldown",
						"offset": 0,
						"slot": "4",
						"type": "t_uint256"
					}
				],
				"types": {
					"t_address": {
						"encoding": "inplace",
						"label": "address",
						"numberOfBytes": "20"
					},
					"t_bytes32": {
						"encoding": "inplace",
						"label": "bytes32",
						"numberOfBytes": "32"
					},
					"t_mapping(t_address,t_uint256)": {
						"encoding": "mapping",
						"key": "t_address",
						"label": "mapping(address => uint256)",
						"numberOfBytes": "32",
						"value": "t_uint256"
					},
					"t_uint256": {
						"encoding": "inplace",
						"label": "uint256",
						"numberOfBytes": "32"
					}
				}
			},
			"userdoc": {
				"kind": "user",
				"methods": {},
				"version": 1
			}
		}
	}
}