{
	"N/NAT/Meta-TX NAT-Like Masking.sol": {
		"MetaTxNAT": {
			"abi": [
				{
					"inputs": [
						{
							"internalType": "address",
							"name": "",
							"type": "address"
						}
					],
					"name": "identityMap",
					"outputs": [
						{
							"internalType": "address",
							"name": "",
							"type": "address"
						}
					],
					"stateMutability": "view",
					"type": "function"
				},
				{
					"inputs": [
						{
							"internalType": "address",
							"name": "aliasAddr",
							"type": "address"
						}
					],
					"name": "register",
					"outputs": [],
					"stateMutability": "nonpayable",
					"type": "function"
				},
				{
					"inputs": [
						{
							"internalType": "address",
							"name": "to",
							"type": "address"
						},
						{
							"internalType": "bytes",
							"name": "data",
							"type": "bytes"
						},
						{
							"internalType": "address",
							"name": "aliasAddr",
							"type": "address"
						}
					],
					"name": "relay",
					"outputs": [],
					"stateMutability": "nonpayable",
					"type": "function"
				}
			],
			"devdoc": {
				"kind": "dev",
				"methods": {},
				"version": 1
			},
			"evm": {
				"assembly": "    /* \"N/NAT/Meta-TX NAT-Like Masking.sol\":58:472  contract MetaTxNAT {... */\n  mstore(0x40, 0x80)\n  callvalue\n  dup1\n  iszero\n  tag_1\n  jumpi\n  0x00\n  dup1\n  revert\ntag_1:\n  pop\n  dataSize(sub_0)\n  dup1\n  dataOffset(sub_0)\n  0x00\n  codecopy\n  0x00\n  return\nstop\n\nsub_0: assembly {\n        /* \"N/NAT/Meta-TX NAT-Like Masking.sol\":58:472  contract MetaTxNAT {... */\n      mstore(0x40, 0x80)\n      callvalue\n      dup1\n      iszero\n      tag_1\n      jumpi\n      0x00\n      dup1\n      revert\n    tag_1:\n      pop\n      jumpi(tag_2, lt(calldatasize, 0x04))\n      shr(0xe0, calldataload(0x00))\n      dup1\n      0x4420e486\n      eq\n      tag_3\n      jumpi\n      dup1\n      0xb51f5e92\n      eq\n      tag_4\n      jumpi\n      dup1\n      0xdfccf23f\n      eq\n      tag_5\n      jumpi\n    tag_2:\n      0x00\n      dup1\n      revert\n        /* \"N/NAT/Meta-TX NAT-Like Masking.sol\":136:234  function register(address aliasAddr) external {... */\n    tag_3:\n      tag_6\n      0x04\n      dup1\n      calldatasize\n      sub\n      dup2\n      add\n      swap1\n      tag_7\n      swap2\n      swap1\n      tag_8\n      jump\t// in\n    tag_7:\n      tag_9\n      jump\t// in\n    tag_6:\n      stop\n        /* \"N/NAT/Meta-TX NAT-Like Masking.sol\":240:470  function relay(address to, bytes calldata data, address aliasAddr) external {... */\n    tag_4:\n      tag_10\n      0x04\n      dup1\n      calldatasize\n      sub\n      dup2\n      add\n      swap1\n      tag_11\n      swap2\n      swap1\n      tag_12\n      jump\t// in\n    tag_11:\n      tag_13\n      jump\t// in\n    tag_10:\n      stop\n        /* \"N/NAT/Meta-TX NAT-Like Masking.sol\":83:129  mapping(address => address) public identityMap */\n    tag_5:\n      tag_14\n      0x04\n      dup1\n      calldatasize\n      sub\n      dup2\n      add\n      swap1\n      tag_15\n      swap2\n      swap1\n      tag_8\n      jump\t// in\n    tag_15:\n      tag_16\n      jump\t// in\n    tag_14:\n      mload(0x40)\n      tag_17\n      swap2\n      swap1\n      tag_18\n      jump\t// in\n    tag_17:\n      mload(0x40)\n      dup1\n      swap2\n      sub\n      swap1\n      return\n        /* \"N/NAT/Meta-TX NAT-Like Masking.sol\":136:234  function register(address aliasAddr) external {... */\n    tag_9:\n        /* \"N/NAT/Meta-TX NAT-Like Masking.sol\":217:227  msg.sender */\n      caller\n        /* \"N/NAT/Meta-TX NAT-Like Masking.sol\":192:203  identityMap */\n      0x00\n        /* \"N/NAT/Meta-TX NAT-Like Masking.sol\":192:214  identityMap[aliasAddr] */\n      dup1\n        /* \"N/NAT/Meta-TX NAT-Like Masking.sol\":204:213  aliasAddr */\n      dup4\n        /* \"N/NAT/Meta-TX NAT-Like Masking.sol\":192:214  identityMap[aliasAddr] */\n      0xffffffffffffffffffffffffffffffffffffffff\n      and\n      0xffffffffffffffffffffffffffffffffffffffff\n      and\n      dup2\n      mstore\n      0x20\n      add\n      swap1\n      dup2\n      mstore\n      0x20\n      add\n      0x00\n      keccak256\n      0x00\n        /* \"N/NAT/Meta-TX NAT-Like Masking.sol\":192:227  identityMap[aliasAddr] = msg.sender */\n      0x0100\n      exp\n      dup2\n      sload\n      dup2\n      0xffffffffffffffffffffffffffffffffffffffff\n      mul\n      not\n      and\n      swap1\n      dup4\n      0xffffffffffffffffffffffffffffffffffffffff\n      and\n      mul\n      or\n      swap1\n      sstore\n      pop\n        /* \"N/NAT/Meta-TX NAT-Like Masking.sol\":136:234  function register(address aliasAddr) external {... */\n      pop\n      jump\t// out\n        /* \"N/NAT/Meta-TX NAT-Like Masking.sol\":240:470  function relay(address to, bytes calldata data, address aliasAddr) external {... */\n    tag_13:\n        /* \"N/NAT/Meta-TX NAT-Like Masking.sol\":360:370  msg.sender */\n      caller\n        /* \"N/NAT/Meta-TX NAT-Like Masking.sol\":334:370  identityMap[aliasAddr] == msg.sender */\n      0xffffffffffffffffffffffffffffffffffffffff\n      and\n        /* \"N/NAT/Meta-TX NAT-Like Masking.sol\":334:345  identityMap */\n      0x00\n        /* \"N/NAT/Meta-TX NAT-Like Masking.sol\":334:356  identityMap[aliasAddr] */\n      dup1\n        /* \"N/NAT/Meta-TX NAT-Like Masking.sol\":346:355  aliasAddr */\n      dup4\n        /* \"N/NAT/Meta-TX NAT-Like Masking.sol\":334:356  identityMap[aliasAddr] */\n      0xffffffffffffffffffffffffffffffffffffffff\n      and\n      0xffffffffffffffffffffffffffffffffffffffff\n      and\n      dup2\n      mstore\n      0x20\n      add\n      swap1\n      dup2\n      mstore\n      0x20\n      add\n      0x00\n      keccak256\n      0x00\n      swap1\n      sload\n      swap1\n      0x0100\n      exp\n      swap1\n      div\n      0xffffffffffffffffffffffffffffffffffffffff\n      and\n        /* \"N/NAT/Meta-TX NAT-Like Masking.sol\":334:370  identityMap[aliasAddr] == msg.sender */\n      0xffffffffffffffffffffffffffffffffffffffff\n      and\n      eq\n        /* \"N/NAT/Meta-TX NAT-Like Masking.sol\":326:389  require(identityMap[aliasAddr] == msg.sender, \"Not authorized\") */\n      tag_21\n      jumpi\n      mload(0x40)\n      0x08c379a000000000000000000000000000000000000000000000000000000000\n      dup2\n      mstore\n      0x04\n      add\n      tag_22\n      swap1\n      tag_23\n      jump\t// in\n    tag_22:\n      mload(0x40)\n      dup1\n      swap2\n      sub\n      swap1\n      revert\n    tag_21:\n        /* \"N/NAT/Meta-TX NAT-Like Masking.sol\":400:407  bool ok */\n      0x00\n        /* \"N/NAT/Meta-TX NAT-Like Masking.sol\":413:415  to */\n      dup5\n        /* \"N/NAT/Meta-TX NAT-Like Masking.sol\":413:420  to.call */\n      0xffffffffffffffffffffffffffffffffffffffff\n      and\n        /* \"N/NAT/Meta-TX NAT-Like Masking.sol\":421:425  data */\n      dup5\n      dup5\n        /* \"N/NAT/Meta-TX NAT-Like Masking.sol\":413:426  to.call(data) */\n      mload(0x40)\n      tag_24\n      swap3\n      swap2\n      swap1\n      tag_25\n      jump\t// in\n    tag_24:\n      0x00\n      mload(0x40)\n      dup1\n      dup4\n      sub\n      dup2\n      0x00\n      dup7\n      gas\n      call\n      swap2\n      pop\n      pop\n      returndatasize\n      dup1\n      0x00\n      dup2\n      eq\n      tag_28\n      jumpi\n      mload(0x40)\n      swap2\n      pop\n      and(add(returndatasize, 0x3f), not(0x1f))\n      dup3\n      add\n      0x40\n      mstore\n      returndatasize\n      dup3\n      mstore\n      returndatasize\n      0x00\n      0x20\n      dup5\n      add\n      returndatacopy\n      jump(tag_27)\n    tag_28:\n      0x60\n      swap2\n      pop\n    tag_27:\n      pop\n        /* \"N/NAT/Meta-TX NAT-Like Masking.sol\":399:426  (bool ok, ) = to.call(data) */\n      pop\n      swap1\n      pop\n        /* \"N/NAT/Meta-TX NAT-Like Masking.sol\":444:446  ok */\n      dup1\n        /* \"N/NAT/Meta-TX NAT-Like Masking.sol\":436:463  require(ok, \"Relay failed\") */\n      tag_29\n      jumpi\n      mload(0x40)\n      0x08c379a000000000000000000000000000000000000000000000000000000000\n      dup2\n      mstore\n      0x04\n      add\n      tag_30\n      swap1\n      tag_31\n      jump\t// in\n    tag_30:\n      mload(0x40)\n      dup1\n      swap2\n      sub\n      swap1\n      revert\n    tag_29:\n        /* \"N/NAT/Meta-TX NAT-Like Masking.sol\":316:470  {... */\n      pop\n        /* \"N/NAT/Meta-TX NAT-Like Masking.sol\":240:470  function relay(address to, bytes calldata data, address aliasAddr) external {... */\n      pop\n      pop\n      pop\n      pop\n      jump\t// out\n        /* \"N/NAT/Meta-TX NAT-Like Masking.sol\":83:129  mapping(address => address) public identityMap */\n    tag_16:\n      mstore(0x20, 0x00)\n      dup1\n      0x00\n      mstore\n      keccak256(0x00, 0x40)\n      0x00\n      swap2\n      pop\n      sload\n      swap1\n      0x0100\n      exp\n      swap1\n      div\n      0xffffffffffffffffffffffffffffffffffffffff\n      and\n      dup2\n      jump\t// out\n        /* \"#utility.yul\":88:205   */\n    tag_33:\n        /* \"#utility.yul\":197:198   */\n      0x00\n        /* \"#utility.yul\":194:195   */\n      dup1\n        /* \"#utility.yul\":187:199   */\n      revert\n        /* \"#utility.yul\":211:328   */\n    tag_34:\n        /* \"#utility.yul\":320:321   */\n      0x00\n        /* \"#utility.yul\":317:318   */\n      dup1\n        /* \"#utility.yul\":310:322   */\n      revert\n        /* \"#utility.yul\":334:460   */\n    tag_35:\n        /* \"#utility.yul\":371:378   */\n      0x00\n        /* \"#utility.yul\":411:453   */\n      0xffffffffffffffffffffffffffffffffffffffff\n        /* \"#utility.yul\":404:409   */\n      dup3\n        /* \"#utility.yul\":400:454   */\n      and\n        /* \"#utility.yul\":389:454   */\n      swap1\n      pop\n        /* \"#utility.yul\":334:460   */\n      swap2\n      swap1\n      pop\n      jump\t// out\n        /* \"#utility.yul\":466:562   */\n    tag_36:\n        /* \"#utility.yul\":503:510   */\n      0x00\n        /* \"#utility.yul\":532:556   */\n      tag_58\n        /* \"#utility.yul\":550:555   */\n      dup3\n        /* \"#utility.yul\":532:556   */\n      tag_35\n      jump\t// in\n    tag_58:\n        /* \"#utility.yul\":521:556   */\n      swap1\n      pop\n        /* \"#utility.yul\":466:562   */\n      swap2\n      swap1\n      pop\n      jump\t// out\n        /* \"#utility.yul\":568:690   */\n    tag_37:\n        /* \"#utility.yul\":641:665   */\n      tag_60\n        /* \"#utility.yul\":659:664   */\n      dup2\n        /* \"#utility.yul\":641:665   */\n      tag_36\n      jump\t// in\n    tag_60:\n        /* \"#utility.yul\":634:639   */\n      dup2\n        /* \"#utility.yul\":631:666   */\n      eq\n        /* \"#utility.yul\":621:684   */\n      tag_61\n      jumpi\n        /* \"#utility.yul\":680:681   */\n      0x00\n        /* \"#utility.yul\":677:678   */\n      dup1\n        /* \"#utility.yul\":670:682   */\n      revert\n        /* \"#utility.yul\":621:684   */\n    tag_61:\n        /* \"#utility.yul\":568:690   */\n      pop\n      jump\t// out\n        /* \"#utility.yul\":696:835   */\n    tag_38:\n        /* \"#utility.yul\":742:747   */\n      0x00\n        /* \"#utility.yul\":780:786   */\n      dup2\n        /* \"#utility.yul\":767:787   */\n      calldataload\n        /* \"#utility.yul\":758:787   */\n      swap1\n      pop\n        /* \"#utility.yul\":796:829   */\n      tag_63\n        /* \"#utility.yul\":823:828   */\n      dup2\n        /* \"#utility.yul\":796:829   */\n      tag_37\n      jump\t// in\n    tag_63:\n        /* \"#utility.yul\":696:835   */\n      swap3\n      swap2\n      pop\n      pop\n      jump\t// out\n        /* \"#utility.yul\":841:1170   */\n    tag_8:\n        /* \"#utility.yul\":900:906   */\n      0x00\n        /* \"#utility.yul\":949:951   */\n      0x20\n        /* \"#utility.yul\":937:946   */\n      dup3\n        /* \"#utility.yul\":928:935   */\n      dup5\n        /* \"#utility.yul\":924:947   */\n      sub\n        /* \"#utility.yul\":920:952   */\n      slt\n        /* \"#utility.yul\":917:1036   */\n      iszero\n      tag_65\n      jumpi\n        /* \"#utility.yul\":955:1034   */\n      tag_66\n      tag_33\n      jump\t// in\n    tag_66:\n        /* \"#utility.yul\":917:1036   */\n    tag_65:\n        /* \"#utility.yul\":1075:1076   */\n      0x00\n        /* \"#utility.yul\":1100:1153   */\n      tag_67\n        /* \"#utility.yul\":1145:1152   */\n      dup5\n        /* \"#utility.yul\":1136:1142   */\n      dup3\n        /* \"#utility.yul\":1125:1134   */\n      dup6\n        /* \"#utility.yul\":1121:1143   */\n      add\n        /* \"#utility.yul\":1100:1153   */\n      tag_38\n      jump\t// in\n    tag_67:\n        /* \"#utility.yul\":1090:1153   */\n      swap2\n      pop\n        /* \"#utility.yul\":1046:1163   */\n      pop\n        /* \"#utility.yul\":841:1170   */\n      swap3\n      swap2\n      pop\n      pop\n      jump\t// out\n        /* \"#utility.yul\":1176:1293   */\n    tag_39:\n        /* \"#utility.yul\":1285:1286   */\n      0x00\n        /* \"#utility.yul\":1282:1283   */\n      dup1\n        /* \"#utility.yul\":1275:1287   */\n      revert\n        /* \"#utility.yul\":1299:1416   */\n    tag_40:\n        /* \"#utility.yul\":1408:1409   */\n      0x00\n        /* \"#utility.yul\":1405:1406   */\n      dup1\n        /* \"#utility.yul\":1398:1410   */\n      revert\n        /* \"#utility.yul\":1422:1539   */\n    tag_41:\n        /* \"#utility.yul\":1531:1532   */\n      0x00\n        /* \"#utility.yul\":1528:1529   */\n      dup1\n        /* \"#utility.yul\":1521:1533   */\n      revert\n        /* \"#utility.yul\":1558:2110   */\n    tag_42:\n        /* \"#utility.yul\":1615:1623   */\n      0x00\n        /* \"#utility.yul\":1625:1631   */\n      dup1\n        /* \"#utility.yul\":1675:1678   */\n      dup4\n        /* \"#utility.yul\":1668:1672   */\n      0x1f\n        /* \"#utility.yul\":1660:1666   */\n      dup5\n        /* \"#utility.yul\":1656:1673   */\n      add\n        /* \"#utility.yul\":1652:1679   */\n      slt\n        /* \"#utility.yul\":1642:1764   */\n      tag_72\n      jumpi\n        /* \"#utility.yul\":1683:1762   */\n      tag_73\n      tag_39\n      jump\t// in\n    tag_73:\n        /* \"#utility.yul\":1642:1764   */\n    tag_72:\n        /* \"#utility.yul\":1796:1802   */\n      dup3\n        /* \"#utility.yul\":1783:1803   */\n      calldataload\n        /* \"#utility.yul\":1773:1803   */\n      swap1\n      pop\n        /* \"#utility.yul\":1826:1844   */\n      0xffffffffffffffff\n        /* \"#utility.yul\":1818:1824   */\n      dup2\n        /* \"#utility.yul\":1815:1845   */\n      gt\n        /* \"#utility.yul\":1812:1929   */\n      iszero\n      tag_74\n      jumpi\n        /* \"#utility.yul\":1848:1927   */\n      tag_75\n      tag_40\n      jump\t// in\n    tag_75:\n        /* \"#utility.yul\":1812:1929   */\n    tag_74:\n        /* \"#utility.yul\":1962:1966   */\n      0x20\n        /* \"#utility.yul\":1954:1960   */\n      dup4\n        /* \"#utility.yul\":1950:1967   */\n      add\n        /* \"#utility.yul\":1938:1967   */\n      swap2\n      pop\n        /* \"#utility.yul\":2016:2019   */\n      dup4\n        /* \"#utility.yul\":2008:2012   */\n      0x01\n        /* \"#utility.yul\":2000:2006   */\n      dup3\n        /* \"#utility.yul\":1996:2013   */\n      mul\n        /* \"#utility.yul\":1986:1994   */\n      dup4\n        /* \"#utility.yul\":1982:2014   */\n      add\n        /* \"#utility.yul\":1979:2020   */\n      gt\n        /* \"#utility.yul\":1976:2104   */\n      iszero\n      tag_76\n      jumpi\n        /* \"#utility.yul\":2023:2102   */\n      tag_77\n      tag_41\n      jump\t// in\n    tag_77:\n        /* \"#utility.yul\":1976:2104   */\n    tag_76:\n        /* \"#utility.yul\":1558:2110   */\n      swap3\n      pop\n      swap3\n      swap1\n      pop\n      jump\t// out\n        /* \"#utility.yul\":2116:2933   */\n    tag_12:\n        /* \"#utility.yul\":2204:2210   */\n      0x00\n        /* \"#utility.yul\":2212:2218   */\n      dup1\n        /* \"#utility.yul\":2220:2226   */\n      0x00\n        /* \"#utility.yul\":2228:2234   */\n      dup1\n        /* \"#utility.yul\":2277:2279   */\n      0x60\n        /* \"#utility.yul\":2265:2274   */\n      dup6\n        /* \"#utility.yul\":2256:2263   */\n      dup8\n        /* \"#utility.yul\":2252:2275   */\n      sub\n        /* \"#utility.yul\":2248:2280   */\n      slt\n        /* \"#utility.yul\":2245:2364   */\n      iszero\n      tag_79\n      jumpi\n        /* \"#utility.yul\":2283:2362   */\n      tag_80\n      tag_33\n      jump\t// in\n    tag_80:\n        /* \"#utility.yul\":2245:2364   */\n    tag_79:\n        /* \"#utility.yul\":2403:2404   */\n      0x00\n        /* \"#utility.yul\":2428:2481   */\n      tag_81\n        /* \"#utility.yul\":2473:2480   */\n      dup8\n        /* \"#utility.yul\":2464:2470   */\n      dup3\n        /* \"#utility.yul\":2453:2462   */\n      dup9\n        /* \"#utility.yul\":2449:2471   */\n      add\n        /* \"#utility.yul\":2428:2481   */\n      tag_38\n      jump\t// in\n    tag_81:\n        /* \"#utility.yul\":2418:2481   */\n      swap5\n      pop\n        /* \"#utility.yul\":2374:2491   */\n      pop\n        /* \"#utility.yul\":2558:2560   */\n      0x20\n        /* \"#utility.yul\":2547:2556   */\n      dup6\n        /* \"#utility.yul\":2543:2561   */\n      add\n        /* \"#utility.yul\":2530:2562   */\n      calldataload\n        /* \"#utility.yul\":2589:2607   */\n      0xffffffffffffffff\n        /* \"#utility.yul\":2581:2587   */\n      dup2\n        /* \"#utility.yul\":2578:2608   */\n      gt\n        /* \"#utility.yul\":2575:2692   */\n      iszero\n      tag_82\n      jumpi\n        /* \"#utility.yul\":2611:2690   */\n      tag_83\n      tag_34\n      jump\t// in\n    tag_83:\n        /* \"#utility.yul\":2575:2692   */\n    tag_82:\n        /* \"#utility.yul\":2724:2788   */\n      tag_84\n        /* \"#utility.yul\":2780:2787   */\n      dup8\n        /* \"#utility.yul\":2771:2777   */\n      dup3\n        /* \"#utility.yul\":2760:2769   */\n      dup9\n        /* \"#utility.yul\":2756:2778   */\n      add\n        /* \"#utility.yul\":2724:2788   */\n      tag_42\n      jump\t// in\n    tag_84:\n        /* \"#utility.yul\":2706:2788   */\n      swap4\n      pop\n      swap4\n      pop\n        /* \"#utility.yul\":2501:2798   */\n      pop\n        /* \"#utility.yul\":2837:2839   */\n      0x40\n        /* \"#utility.yul\":2863:2916   */\n      tag_85\n        /* \"#utility.yul\":2908:2915   */\n      dup8\n        /* \"#utility.yul\":2899:2905   */\n      dup3\n        /* \"#utility.yul\":2888:2897   */\n      dup9\n        /* \"#utility.yul\":2884:2906   */\n      add\n        /* \"#utility.yul\":2863:2916   */\n      tag_38\n      jump\t// in\n    tag_85:\n        /* \"#utility.yul\":2853:2916   */\n      swap2\n      pop\n        /* \"#utility.yul\":2808:2926   */\n      pop\n        /* \"#utility.yul\":2116:2933   */\n      swap3\n      swap6\n      swap2\n      swap5\n      pop\n      swap3\n      pop\n      jump\t// out\n        /* \"#utility.yul\":2939:3057   */\n    tag_43:\n        /* \"#utility.yul\":3026:3050   */\n      tag_87\n        /* \"#utility.yul\":3044:3049   */\n      dup2\n        /* \"#utility.yul\":3026:3050   */\n      tag_36\n      jump\t// in\n    tag_87:\n        /* \"#utility.yul\":3021:3024   */\n      dup3\n        /* \"#utility.yul\":3014:3051   */\n      mstore\n        /* \"#utility.yul\":2939:3057   */\n      pop\n      pop\n      jump\t// out\n        /* \"#utility.yul\":3063:3285   */\n    tag_18:\n        /* \"#utility.yul\":3156:3160   */\n      0x00\n        /* \"#utility.yul\":3194:3196   */\n      0x20\n        /* \"#utility.yul\":3183:3192   */\n      dup3\n        /* \"#utility.yul\":3179:3197   */\n      add\n        /* \"#utility.yul\":3171:3197   */\n      swap1\n      pop\n        /* \"#utility.yul\":3207:3278   */\n      tag_89\n        /* \"#utility.yul\":3275:3276   */\n      0x00\n        /* \"#utility.yul\":3264:3273   */\n      dup4\n        /* \"#utility.yul\":3260:3277   */\n      add\n        /* \"#utility.yul\":3251:3257   */\n      dup5\n        /* \"#utility.yul\":3207:3278   */\n      tag_43\n      jump\t// in\n    tag_89:\n        /* \"#utility.yul\":3063:3285   */\n      swap3\n      swap2\n      pop\n      pop\n      jump\t// out\n        /* \"#utility.yul\":3291:3460   */\n    tag_44:\n        /* \"#utility.yul\":3375:3386   */\n      0x00\n        /* \"#utility.yul\":3409:3415   */\n      dup3\n        /* \"#utility.yul\":3404:3407   */\n      dup3\n        /* \"#utility.yul\":3397:3416   */\n      mstore\n        /* \"#utility.yul\":3449:3453   */\n      0x20\n        /* \"#utility.yul\":3444:3447   */\n      dup3\n        /* \"#utility.yul\":3440:3454   */\n      add\n        /* \"#utility.yul\":3425:3454   */\n      swap1\n      pop\n        /* \"#utility.yul\":3291:3460   */\n      swap3\n      swap2\n      pop\n      pop\n      jump\t// out\n        /* \"#utility.yul\":3466:3630   */\n    tag_45:\n        /* \"#utility.yul\":3606:3622   */\n      0x4e6f7420617574686f72697a6564000000000000000000000000000000000000\n        /* \"#utility.yul\":3602:3603   */\n      0x00\n        /* \"#utility.yul\":3594:3600   */\n      dup3\n        /* \"#utility.yul\":3590:3604   */\n      add\n        /* \"#utility.yul\":3583:3623   */\n      mstore\n        /* \"#utility.yul\":3466:3630   */\n      pop\n      jump\t// out\n        /* \"#utility.yul\":3636:4002   */\n    tag_46:\n        /* \"#utility.yul\":3778:3781   */\n      0x00\n        /* \"#utility.yul\":3799:3866   */\n      tag_93\n        /* \"#utility.yul\":3863:3865   */\n      0x0e\n        /* \"#utility.yul\":3858:3861   */\n      dup4\n        /* \"#utility.yul\":3799:3866   */\n      tag_44\n      jump\t// in\n    tag_93:\n        /* \"#utility.yul\":3792:3866   */\n      swap2\n      pop\n        /* \"#utility.yul\":3875:3968   */\n      tag_94\n        /* \"#utility.yul\":3964:3967   */\n      dup3\n        /* \"#utility.yul\":3875:3968   */\n      tag_45\n      jump\t// in\n    tag_94:\n        /* \"#utility.yul\":3993:3995   */\n      0x20\n        /* \"#utility.yul\":3988:3991   */\n      dup3\n        /* \"#utility.yul\":3984:3996   */\n      add\n        /* \"#utility.yul\":3977:3996   */\n      swap1\n      pop\n        /* \"#utility.yul\":3636:4002   */\n      swap2\n      swap1\n      pop\n      jump\t// out\n        /* \"#utility.yul\":4008:4427   */\n    tag_23:\n        /* \"#utility.yul\":4174:4178   */\n      0x00\n        /* \"#utility.yul\":4212:4214   */\n      0x20\n        /* \"#utility.yul\":4201:4210   */\n      dup3\n        /* \"#utility.yul\":4197:4215   */\n      add\n        /* \"#utility.yul\":4189:4215   */\n      swap1\n      pop\n        /* \"#utility.yul\":4261:4270   */\n      dup2\n        /* \"#utility.yul\":4255:4259   */\n      dup2\n        /* \"#utility.yul\":4251:4271   */\n      sub\n        /* \"#utility.yul\":4247:4248   */\n      0x00\n        /* \"#utility.yul\":4236:4245   */\n      dup4\n        /* \"#utility.yul\":4232:4249   */\n      add\n        /* \"#utility.yul\":4225:4272   */\n      mstore\n        /* \"#utility.yul\":4289:4420   */\n      tag_96\n        /* \"#utility.yul\":4415:4419   */\n      dup2\n        /* \"#utility.yul\":4289:4420   */\n      tag_46\n      jump\t// in\n    tag_96:\n        /* \"#utility.yul\":4281:4420   */\n      swap1\n      pop\n        /* \"#utility.yul\":4008:4427   */\n      swap2\n      swap1\n      pop\n      jump\t// out\n        /* \"#utility.yul\":4433:4580   */\n    tag_47:\n        /* \"#utility.yul\":4534:4545   */\n      0x00\n        /* \"#utility.yul\":4571:4574   */\n      dup2\n        /* \"#utility.yul\":4556:4574   */\n      swap1\n      pop\n        /* \"#utility.yul\":4433:4580   */\n      swap3\n      swap2\n      pop\n      pop\n      jump\t// out\n        /* \"#utility.yul\":4586:4734   */\n    tag_48:\n        /* \"#utility.yul\":4684:4690   */\n      dup3\n        /* \"#utility.yul\":4679:4682   */\n      dup2\n        /* \"#utility.yul\":4674:4677   */\n      dup4\n        /* \"#utility.yul\":4661:4691   */\n      calldatacopy\n        /* \"#utility.yul\":4725:4726   */\n      0x00\n        /* \"#utility.yul\":4716:4722   */\n      dup4\n        /* \"#utility.yul\":4711:4714   */\n      dup4\n        /* \"#utility.yul\":4707:4723   */\n      add\n        /* \"#utility.yul\":4700:4727   */\n      mstore\n        /* \"#utility.yul\":4586:4734   */\n      pop\n      pop\n      pop\n      jump\t// out\n        /* \"#utility.yul\":4762:5089   */\n    tag_49:\n        /* \"#utility.yul\":4876:4879   */\n      0x00\n        /* \"#utility.yul\":4897:4985   */\n      tag_100\n        /* \"#utility.yul\":4978:4984   */\n      dup4\n        /* \"#utility.yul\":4973:4976   */\n      dup6\n        /* \"#utility.yul\":4897:4985   */\n      tag_47\n      jump\t// in\n    tag_100:\n        /* \"#utility.yul\":4890:4985   */\n      swap4\n      pop\n        /* \"#utility.yul\":4995:5051   */\n      tag_101\n        /* \"#utility.yul\":5044:5050   */\n      dup4\n        /* \"#utility.yul\":5039:5042   */\n      dup6\n        /* \"#utility.yul\":5032:5037   */\n      dup5\n        /* \"#utility.yul\":4995:5051   */\n      tag_48\n      jump\t// in\n    tag_101:\n        /* \"#utility.yul\":5076:5082   */\n      dup3\n        /* \"#utility.yul\":5071:5074   */\n      dup5\n        /* \"#utility.yul\":5067:5083   */\n      add\n        /* \"#utility.yul\":5060:5083   */\n      swap1\n      pop\n        /* \"#utility.yul\":4762:5089   */\n      swap4\n      swap3\n      pop\n      pop\n      pop\n      jump\t// out\n        /* \"#utility.yul\":5095:5386   */\n    tag_25:\n        /* \"#utility.yul\":5235:5238   */\n      0x00\n        /* \"#utility.yul\":5257:5360   */\n      tag_103\n        /* \"#utility.yul\":5356:5359   */\n      dup3\n        /* \"#utility.yul\":5347:5353   */\n      dup5\n        /* \"#utility.yul\":5339:5345   */\n      dup7\n        /* \"#utility.yul\":5257:5360   */\n      tag_49\n      jump\t// in\n    tag_103:\n        /* \"#utility.yul\":5250:5360   */\n      swap2\n      pop\n        /* \"#utility.yul\":5377:5380   */\n      dup2\n        /* \"#utility.yul\":5370:5380   */\n      swap1\n      pop\n        /* \"#utility.yul\":5095:5386   */\n      swap4\n      swap3\n      pop\n      pop\n      pop\n      jump\t// out\n        /* \"#utility.yul\":5392:5554   */\n    tag_50:\n        /* \"#utility.yul\":5532:5546   */\n      0x52656c6179206661696c65640000000000000000000000000000000000000000\n        /* \"#utility.yul\":5528:5529   */\n      0x00\n        /* \"#utility.yul\":5520:5526   */\n      dup3\n        /* \"#utility.yul\":5516:5530   */\n      add\n        /* \"#utility.yul\":5509:5547   */\n      mstore\n        /* \"#utility.yul\":5392:5554   */\n      pop\n      jump\t// out\n        /* \"#utility.yul\":5560:5926   */\n    tag_51:\n        /* \"#utility.yul\":5702:5705   */\n      0x00\n        /* \"#utility.yul\":5723:5790   */\n      tag_106\n        /* \"#utility.yul\":5787:5789   */\n      0x0c\n        /* \"#utility.yul\":5782:5785   */\n      dup4\n        /* \"#utility.yul\":5723:5790   */\n      tag_44\n      jump\t// in\n    tag_106:\n        /* \"#utility.yul\":5716:5790   */\n      swap2\n      pop\n        /* \"#utility.yul\":5799:5892   */\n      tag_107\n        /* \"#utility.yul\":5888:5891   */\n      dup3\n        /* \"#utility.yul\":5799:5892   */\n      tag_50\n      jump\t// in\n    tag_107:\n        /* \"#utility.yul\":5917:5919   */\n      0x20\n        /* \"#utility.yul\":5912:5915   */\n      dup3\n        /* \"#utility.yul\":5908:5920   */\n      add\n        /* \"#utility.yul\":5901:5920   */\n      swap1\n      pop\n        /* \"#utility.yul\":5560:5926   */\n      swap2\n      swap1\n      pop\n      jump\t// out\n        /* \"#utility.yul\":5932:6351   */\n    tag_31:\n        /* \"#utility.yul\":6098:6102   */\n      0x00\n        /* \"#utility.yul\":6136:6138   */\n      0x20\n        /* \"#utility.yul\":6125:6134   */\n      dup3\n        /* \"#utility.yul\":6121:6139   */\n      add\n        /* \"#utility.yul\":6113:6139   */\n      swap1\n      pop\n        /* \"#utility.yul\":6185:6194   */\n      dup2\n        /* \"#utility.yul\":6179:6183   */\n      dup2\n        /* \"#utility.yul\":6175:6195   */\n      sub\n        /* \"#utility.yul\":6171:6172   */\n      0x00\n        /* \"#utility.yul\":6160:6169   */\n      dup4\n        /* \"#utility.yul\":6156:6173   */\n      add\n        /* \"#utility.yul\":6149:6196   */\n      mstore\n        /* \"#utility.yul\":6213:6344   */\n      tag_109\n        /* \"#utility.yul\":6339:6343   */\n      dup2\n        /* \"#utility.yul\":6213:6344   */\n      tag_51\n      jump\t// in\n    tag_109:\n        /* \"#utility.yul\":6205:6344   */\n      swap1\n      pop\n        /* \"#utility.yul\":5932:6351   */\n      swap2\n      swap1\n      pop\n      jump\t// out\n\n    auxdata: 0xa2646970667358221220ebd6c13a4c103c7ca4da8c5757d43fac2bf632283ce9a4b23cfe46c9d93ffa8064736f6c634300081a0033\n}\n",
				"bytecode": {
					"linkReferences": {},
					"object": "6080604052348015600e575f80fd5b506105c28061001c5f395ff3fe608060405234801561000f575f80fd5b506004361061003f575f3560e01c80634420e48614610043578063b51f5e921461005f578063dfccf23f1461007b575b5f80fd5b61005d60048036038101906100589190610333565b6100ab565b005b610079600480360381019061007491906103bf565b610128565b005b61009560048036038101906100909190610333565b6102a2565b6040516100a2919061043f565b60405180910390f35b335f808373ffffffffffffffffffffffffffffffffffffffff1673ffffffffffffffffffffffffffffffffffffffff1681526020019081526020015f205f6101000a81548173ffffffffffffffffffffffffffffffffffffffff021916908373ffffffffffffffffffffffffffffffffffffffff16021790555050565b3373ffffffffffffffffffffffffffffffffffffffff165f808373ffffffffffffffffffffffffffffffffffffffff1673ffffffffffffffffffffffffffffffffffffffff1681526020019081526020015f205f9054906101000a900473ffffffffffffffffffffffffffffffffffffffff1673ffffffffffffffffffffffffffffffffffffffff16146101f1576040517f08c379a00000000000000000000000000000000000000000000000000000000081526004016101e8906104b2565b60405180910390fd5b5f8473ffffffffffffffffffffffffffffffffffffffff16848460405161021992919061050c565b5f604051808303815f865af19150503d805f8114610252576040519150601f19603f3d011682016040523d82523d5f602084013e610257565b606091505b505090508061029b576040517f08c379a00000000000000000000000000000000000000000000000000000000081526004016102929061056e565b60405180910390fd5b5050505050565b5f602052805f5260405f205f915054906101000a900473ffffffffffffffffffffffffffffffffffffffff1681565b5f80fd5b5f80fd5b5f73ffffffffffffffffffffffffffffffffffffffff82169050919050565b5f610302826102d9565b9050919050565b610312816102f8565b811461031c575f80fd5b50565b5f8135905061032d81610309565b92915050565b5f60208284031215610348576103476102d1565b5b5f6103558482850161031f565b91505092915050565b5f80fd5b5f80fd5b5f80fd5b5f8083601f84011261037f5761037e61035e565b5b8235905067ffffffffffffffff81111561039c5761039b610362565b5b6020830191508360018202830111156103b8576103b7610366565b5b9250929050565b5f805f80606085870312156103d7576103d66102d1565b5b5f6103e48782880161031f565b945050602085013567ffffffffffffffff811115610405576104046102d5565b5b6104118782880161036a565b935093505060406104248782880161031f565b91505092959194509250565b610439816102f8565b82525050565b5f6020820190506104525f830184610430565b92915050565b5f82825260208201905092915050565b7f4e6f7420617574686f72697a65640000000000000000000000000000000000005f82015250565b5f61049c600e83610458565b91506104a782610468565b602082019050919050565b5f6020820190508181035f8301526104c981610490565b9050919050565b5f81905092915050565b828183375f83830152505050565b5f6104f383856104d0565b93506105008385846104da565b82840190509392505050565b5f6105188284866104e8565b91508190509392505050565b7f52656c6179206661696c656400000000000000000000000000000000000000005f82015250565b5f610558600c83610458565b915061056382610524565b602082019050919050565b5f6020820190508181035f8301526105858161054c565b905091905056fea2646970667358221220ebd6c13a4c103c7ca4da8c5757d43fac2bf632283ce9a4b23cfe46c9d93ffa8064736f6c634300081a0033",
					"opcodes": "PUSH1 0x80 PUSH1 0x40 MSTORE CALLVALUE DUP1 ISZERO PUSH1 0xE JUMPI PUSH0 DUP1 REVERT JUMPDEST POP PUSH2 0x5C2 DUP1 PUSH2 0x1C PUSH0 CODECOPY PUSH0 RETURN INVALID PUSH1 0x80 PUSH1 0x40 MSTORE CALLVALUE DUP1 ISZERO PUSH2 0xF JUMPI PUSH0 DUP1 REVERT JUMPDEST POP PUSH1 0x4 CALLDATASIZE LT PUSH2 0x3F JUMPI PUSH0 CALLDATALOAD PUSH1 0xE0 SHR DUP1 PUSH4 0x4420E486 EQ PUSH2 0x43 JUMPI DUP1 PUSH4 0xB51F5E92 EQ PUSH2 0x5F JUMPI DUP1 PUSH4 0xDFCCF23F EQ PUSH2 0x7B JUMPI JUMPDEST PUSH0 DUP1 REVERT JUMPDEST PUSH2 0x5D PUSH1 0x4 DUP1 CALLDATASIZE SUB DUP2 ADD SWAP1 PUSH2 0x58 SWAP2 SWAP1 PUSH2 0x333 JUMP JUMPDEST PUSH2 0xAB JUMP JUMPDEST STOP JUMPDEST PUSH2 0x79 PUSH1 0x4 DUP1 CALLDATASIZE SUB DUP2 ADD SWAP1 PUSH2 0x74 SWAP2 SWAP1 PUSH2 0x3BF JUMP JUMPDEST PUSH2 0x128 JUMP JUMPDEST STOP JUMPDEST PUSH2 0x95 PUSH1 0x4 DUP1 CALLDATASIZE SUB DUP2 ADD SWAP1 PUSH2 0x90 SWAP2 SWAP1 PUSH2 0x333 JUMP JUMPDEST PUSH2 0x2A2 JUMP JUMPDEST PUSH1 0x40 MLOAD PUSH2 0xA2 SWAP2 SWAP1 PUSH2 0x43F JUMP JUMPDEST PUSH1 0x40 MLOAD DUP1 SWAP2 SUB SWAP1 RETURN JUMPDEST CALLER PUSH0 DUP1 DUP4 PUSH20 0xFFFFFFFFFFFFFFFFFFFFFFFFFFFFFFFFFFFFFFFF AND PUSH20 0xFFFFFFFFFFFFFFFFFFFFFFFFFFFFFFFFFFFFFFFF AND DUP2 MSTORE PUSH1 0x20 ADD SWAP1 DUP2 MSTORE PUSH1 0x20 ADD PUSH0 KECCAK256 PUSH0 PUSH2 0x100 EXP DUP2 SLOAD DUP2 PUSH20 0xFFFFFFFFFFFFFFFFFFFFFFFFFFFFFFFFFFFFFFFF MUL NOT AND SWAP1 DUP4 PUSH20 0xFFFFFFFFFFFFFFFFFFFFFFFFFFFFFFFFFFFFFFFF AND MUL OR SWAP1 SSTORE POP POP JUMP JUMPDEST CALLER PUSH20 0xFFFFFFFFFFFFFFFFFFFFFFFFFFFFFFFFFFFFFFFF AND PUSH0 DUP1 DUP4 PUSH20 0xFFFFFFFFFFFFFFFFFFFFFFFFFFFFFFFFFFFFFFFF AND PUSH20 0xFFFFFFFFFFFFFFFFFFFFFFFFFFFFFFFFFFFFFFFF AND DUP2 MSTORE PUSH1 0x20 ADD SWAP1 DUP2 MSTORE PUSH1 0x20 ADD PUSH0 KECCAK256 PUSH0 SWAP1 SLOAD SWAP1 PUSH2 0x100 EXP SWAP1 DIV PUSH20 0xFFFFFFFFFFFFFFFFFFFFFFFFFFFFFFFFFFFFFFFF AND PUSH20 0xFFFFFFFFFFFFFFFFFFFFFFFFFFFFFFFFFFFFFFFF AND EQ PUSH2 0x1F1 JUMPI PUSH1 0x40 MLOAD PUSH32 0x8C379A000000000000000000000000000000000000000000000000000000000 DUP2 MSTORE PUSH1 0x4 ADD PUSH2 0x1E8 SWAP1 PUSH2 0x4B2 JUMP JUMPDEST PUSH1 0x40 MLOAD DUP1 SWAP2 SUB SWAP1 REVERT JUMPDEST PUSH0 DUP5 PUSH20 0xFFFFFFFFFFFFFFFFFFFFFFFFFFFFFFFFFFFFFFFF AND DUP5 DUP5 PUSH1 0x40 MLOAD PUSH2 0x219 SWAP3 SWAP2 SWAP1 PUSH2 0x50C JUMP JUMPDEST PUSH0 PUSH1 0x40 MLOAD DUP1 DUP4 SUB DUP2 PUSH0 DUP7 GAS CALL SWAP2 POP POP RETURNDATASIZE DUP1 PUSH0 DUP2 EQ PUSH2 0x252 JUMPI PUSH1 0x40 MLOAD SWAP2 POP PUSH1 0x1F NOT PUSH1 0x3F RETURNDATASIZE ADD AND DUP3 ADD PUSH1 0x40 MSTORE RETURNDATASIZE DUP3 MSTORE RETURNDATASIZE PUSH0 PUSH1 0x20 DUP5 ADD RETURNDATACOPY PUSH2 0x257 JUMP JUMPDEST PUSH1 0x60 SWAP2 POP JUMPDEST POP POP SWAP1 POP DUP1 PUSH2 0x29B JUMPI PUSH1 0x40 MLOAD PUSH32 0x8C379A000000000000000000000000000000000000000000000000000000000 DUP2 MSTORE PUSH1 0x4 ADD PUSH2 0x292 SWAP1 PUSH2 0x56E JUMP JUMPDEST PUSH1 0x40 MLOAD DUP1 SWAP2 SUB SWAP1 REVERT JUMPDEST POP POP POP POP POP JUMP JUMPDEST PUSH0 PUSH1 0x20 MSTORE DUP1 PUSH0 MSTORE PUSH1 0x40 PUSH0 KECCAK256 PUSH0 SWAP2 POP SLOAD SWAP1 PUSH2 0x100 EXP SWAP1 DIV PUSH20 0xFFFFFFFFFFFFFFFFFFFFFFFFFFFFFFFFFFFFFFFF AND DUP2 JUMP JUMPDEST PUSH0 DUP1 REVERT JUMPDEST PUSH0 DUP1 REVERT JUMPDEST PUSH0 PUSH20 0xFFFFFFFFFFFFFFFFFFFFFFFFFFFFFFFFFFFFFFFF DUP3 AND SWAP1 POP SWAP2 SWAP1 POP JUMP JUMPDEST PUSH0 PUSH2 0x302 DUP3 PUSH2 0x2D9 JUMP JUMPDEST SWAP1 POP SWAP2 SWAP1 POP JUMP JUMPDEST PUSH2 0x312 DUP2 PUSH2 0x2F8 JUMP JUMPDEST DUP2 EQ PUSH2 0x31C JUMPI PUSH0 DUP1 REVERT JUMPDEST POP JUMP JUMPDEST PUSH0 DUP2 CALLDATALOAD SWAP1 POP PUSH2 0x32D DUP2 PUSH2 0x309 JUMP JUMPDEST SWAP3 SWAP2 POP POP JUMP JUMPDEST PUSH0 PUSH1 0x20 DUP3 DUP5 SUB SLT ISZERO PUSH2 0x348 JUMPI PUSH2 0x347 PUSH2 0x2D1 JUMP JUMPDEST JUMPDEST PUSH0 PUSH2 0x355 DUP5 DUP3 DUP6 ADD PUSH2 0x31F JUMP JUMPDEST SWAP2 POP POP SWAP3 SWAP2 POP POP JUMP JUMPDEST PUSH0 DUP1 REVERT JUMPDEST PUSH0 DUP1 REVERT JUMPDEST PUSH0 DUP1 REVERT JUMPDEST PUSH0 DUP1 DUP4 PUSH1 0x1F DUP5 ADD SLT PUSH2 0x37F JUMPI PUSH2 0x37E PUSH2 0x35E JUMP JUMPDEST JUMPDEST DUP3 CALLDATALOAD SWAP1 POP PUSH8 0xFFFFFFFFFFFFFFFF DUP2 GT ISZERO PUSH2 0x39C JUMPI PUSH2 0x39B PUSH2 0x362 JUMP JUMPDEST JUMPDEST PUSH1 0x20 DUP4 ADD SWAP2 POP DUP4 PUSH1 0x1 DUP3 MUL DUP4 ADD GT ISZERO PUSH2 0x3B8 JUMPI PUSH2 0x3B7 PUSH2 0x366 JUMP JUMPDEST JUMPDEST SWAP3 POP SWAP3 SWAP1 POP JUMP JUMPDEST PUSH0 DUP1 PUSH0 DUP1 PUSH1 0x60 DUP6 DUP8 SUB SLT ISZERO PUSH2 0x3D7 JUMPI PUSH2 0x3D6 PUSH2 0x2D1 JUMP JUMPDEST JUMPDEST PUSH0 PUSH2 0x3E4 DUP8 DUP3 DUP9 ADD PUSH2 0x31F JUMP JUMPDEST SWAP5 POP POP PUSH1 0x20 DUP6 ADD CALLDATALOAD PUSH8 0xFFFFFFFFFFFFFFFF DUP2 GT ISZERO PUSH2 0x405 JUMPI PUSH2 0x404 PUSH2 0x2D5 JUMP JUMPDEST JUMPDEST PUSH2 0x411 DUP8 DUP3 DUP9 ADD PUSH2 0x36A JUMP JUMPDEST SWAP4 POP SWAP4 POP POP PUSH1 0x40 PUSH2 0x424 DUP8 DUP3 DUP9 ADD PUSH2 0x31F JUMP JUMPDEST SWAP2 POP POP SWAP3 SWAP6 SWAP2 SWAP5 POP SWAP3 POP JUMP JUMPDEST PUSH2 0x439 DUP2 PUSH2 0x2F8 JUMP JUMPDEST DUP3 MSTORE POP POP JUMP JUMPDEST PUSH0 PUSH1 0x20 DUP3 ADD SWAP1 POP PUSH2 0x452 PUSH0 DUP4 ADD DUP5 PUSH2 0x430 JUMP JUMPDEST SWAP3 SWAP2 POP POP JUMP JUMPDEST PUSH0 DUP3 DUP3 MSTORE PUSH1 0x20 DUP3 ADD SWAP1 POP SWAP3 SWAP2 POP POP JUMP JUMPDEST PUSH32 0x4E6F7420617574686F72697A6564000000000000000000000000000000000000 PUSH0 DUP3 ADD MSTORE POP JUMP JUMPDEST PUSH0 PUSH2 0x49C PUSH1 0xE DUP4 PUSH2 0x458 JUMP JUMPDEST SWAP2 POP PUSH2 0x4A7 DUP3 PUSH2 0x468 JUMP JUMPDEST PUSH1 0x20 DUP3 ADD SWAP1 POP SWAP2 SWAP1 POP JUMP JUMPDEST PUSH0 PUSH1 0x20 DUP3 ADD SWAP1 POP DUP2 DUP2 SUB PUSH0 DUP4 ADD MSTORE PUSH2 0x4C9 DUP2 PUSH2 0x490 JUMP JUMPDEST SWAP1 POP SWAP2 SWAP1 POP JUMP JUMPDEST PUSH0 DUP2 SWAP1 POP SWAP3 SWAP2 POP POP JUMP JUMPDEST DUP3 DUP2 DUP4 CALLDATACOPY PUSH0 DUP4 DUP4 ADD MSTORE POP POP POP JUMP JUMPDEST PUSH0 PUSH2 0x4F3 DUP4 DUP6 PUSH2 0x4D0 JUMP JUMPDEST SWAP4 POP PUSH2 0x500 DUP4 DUP6 DUP5 PUSH2 0x4DA JUMP JUMPDEST DUP3 DUP5 ADD SWAP1 POP SWAP4 SWAP3 POP POP POP JUMP JUMPDEST PUSH0 PUSH2 0x518 DUP3 DUP5 DUP7 PUSH2 0x4E8 JUMP JUMPDEST SWAP2 POP DUP2 SWAP1 POP SWAP4 SWAP3 POP POP POP JUMP JUMPDEST PUSH32 0x52656C6179206661696C65640000000000000000000000000000000000000000 PUSH0 DUP3 ADD MSTORE POP JUMP JUMPDEST PUSH0 PUSH2 0x558 PUSH1 0xC DUP4 PUSH2 0x458 JUMP JUMPDEST SWAP2 POP PUSH2 0x563 DUP3 PUSH2 0x524 JUMP JUMPDEST PUSH1 0x20 DUP3 ADD SWAP1 POP SWAP2 SWAP1 POP JUMP JUMPDEST PUSH0 PUSH1 0x20 DUP3 ADD SWAP1 POP DUP2 DUP2 SUB PUSH0 DUP4 ADD MSTORE PUSH2 0x585 DUP2 PUSH2 0x54C JUMP JUMPDEST SWAP1 POP SWAP2 SWAP1 POP JUMP INVALID LOG2 PUSH5 0x6970667358 0x22 SLT KECCAK256 0xEB 0xD6 0xC1 GASPRICE 0x4C LT EXTCODECOPY PUSH29 0xA4DA8C5757D43FAC2BF632283CE9A4B23CFE46C9D93FFA8064736F6C63 NUMBER STOP ADDMOD BYTE STOP CALLER "
				},
				"gasEstimates": {
					"creation": {
						"codeDepositCost": "294800",
						"executionCost": "335",
						"totalCost": "295135"
					},
					"external": {
						"identityMap(address)": "infinite",
						"register(address)": "24780",
						"relay(address,bytes,address)": "infinite"
					}
				},
				"methodIdentifiers": {
					"identityMap(address)": "dfccf23f",
					"register(address)": "4420e486",
					"relay(address,bytes,address)": "b51f5e92"
				}
			},
			"storageLayout": {
				"storage": [
					{
						"astId": 5,
						"contract": "N/NAT/Meta-TX NAT-Like Masking.sol:MetaTxNAT",
						"label": "identityMap",
						"offset": 0,
						"slot": "0",
						"type": "t_mapping(t_address,t_address)"
					}
				],
				"types": {
					"t_address": {
						"encoding": "inplace",
						"label": "address",
						"numberOfBytes": "20"
					},
					"t_mapping(t_address,t_address)": {
						"encoding": "mapping",
						"key": "t_address",
						"label": "mapping(address => address)",
						"numberOfBytes": "32",
						"value": "t_address"
					}
				}
			},
			"userdoc": {
				"kind": "user",
				"methods": {},
				"version": 1
			}
		}
	}
}