{
	"F/Fragmentation/InsecureFragmentStorage.sol": {
		"InsecureFragmentStorage": {
			"abi": [
				{
					"inputs": [
						{
							"internalType": "uint256",
							"name": "",
							"type": "uint256"
						}
					],
					"name": "fragments",
					"outputs": [
						{
							"internalType": "string",
							"name": "",
							"type": "string"
						}
					],
					"stateMutability": "view",
					"type": "function"
				},
				{
					"inputs": [
						{
							"internalType": "uint256",
							"name": "index",
							"type": "uint256"
						}
					],
					"name": "read",
					"outputs": [
						{
							"internalType": "string",
							"name": "",
							"type": "string"
						}
					],
					"stateMutability": "view",
					"type": "function"
				},
				{
					"inputs": [
						{
							"internalType": "uint256",
							"name": "index",
							"type": "uint256"
						},
						{
							"internalType": "string",
							"name": "data",
							"type": "string"
						}
					],
					"name": "store",
					"outputs": [],
					"stateMutability": "nonpayable",
					"type": "function"
				}
			],
			"devdoc": {
				"kind": "dev",
				"methods": {},
				"version": 1
			},
			"evm": {
				"assembly": "    /* \"F/Fragmentation/InsecureFragmentStorage.sol\":58:386  contract InsecureFragmentStorage {... */\n  mstore(0x40, 0x80)\n  callvalue\n  dup1\n  iszero\n  tag_1\n  jumpi\n  0x00\n  dup1\n  revert\ntag_1:\n  pop\n  dataSize(sub_0)\n  dup1\n  dataOffset(sub_0)\n  0x00\n  codecopy\n  0x00\n  return\nstop\n\nsub_0: assembly {\n        /* \"F/Fragmentation/InsecureFragmentStorage.sol\":58:386  contract InsecureFragmentStorage {... */\n      mstore(0x40, 0x80)\n      callvalue\n      dup1\n      iszero\n      tag_1\n      jumpi\n      0x00\n      dup1\n      revert\n    tag_1:\n      pop\n      jumpi(tag_2, lt(calldatasize, 0x04))\n      shr(0xe0, calldataload(0x00))\n      dup1\n      0xe1ff178a\n      eq\n      tag_3\n      jumpi\n      dup1\n      0xed2e5a97\n      eq\n      tag_4\n      jumpi\n      dup1\n      0xff6e5334\n      eq\n      tag_5\n      jumpi\n    tag_2:\n      0x00\n      dup1\n      revert\n        /* \"F/Fragmentation/InsecureFragmentStorage.sol\":147:271  function store(uint256 index, string calldata data) external {... */\n    tag_3:\n      tag_6\n      0x04\n      dup1\n      calldatasize\n      sub\n      dup2\n      add\n      swap1\n      tag_7\n      swap2\n      swap1\n      tag_8\n      jump\t// in\n    tag_7:\n      tag_9\n      jump\t// in\n    tag_6:\n      stop\n        /* \"F/Fragmentation/InsecureFragmentStorage.sol\":277:384  function read(uint256 index) external view returns (string memory) {... */\n    tag_4:\n      tag_10\n      0x04\n      dup1\n      calldatasize\n      sub\n      dup2\n      add\n      swap1\n      tag_11\n      swap2\n      swap1\n      tag_12\n      jump\t// in\n    tag_11:\n      tag_13\n      jump\t// in\n    tag_10:\n      mload(0x40)\n      tag_14\n      swap2\n      swap1\n      tag_15\n      jump\t// in\n    tag_14:\n      mload(0x40)\n      dup1\n      swap2\n      sub\n      swap1\n      return\n        /* \"F/Fragmentation/InsecureFragmentStorage.sol\":97:140  mapping(uint256 => string) public fragments */\n    tag_5:\n      tag_16\n      0x04\n      dup1\n      calldatasize\n      sub\n      dup2\n      add\n      swap1\n      tag_17\n      swap2\n      swap1\n      tag_12\n      jump\t// in\n    tag_17:\n      tag_18\n      jump\t// in\n    tag_16:\n      mload(0x40)\n      tag_19\n      swap2\n      swap1\n      tag_15\n      jump\t// in\n    tag_19:\n      mload(0x40)\n      dup1\n      swap2\n      sub\n      swap1\n      return\n        /* \"F/Fragmentation/InsecureFragmentStorage.sol\":147:271  function store(uint256 index, string calldata data) external {... */\n    tag_9:\n        /* \"F/Fragmentation/InsecureFragmentStorage.sol\":237:241  data */\n      dup2\n      dup2\n        /* \"F/Fragmentation/InsecureFragmentStorage.sol\":218:227  fragments */\n      0x00\n        /* \"F/Fragmentation/InsecureFragmentStorage.sol\":218:234  fragments[index] */\n      dup1\n        /* \"F/Fragmentation/InsecureFragmentStorage.sol\":228:233  index */\n      dup7\n        /* \"F/Fragmentation/InsecureFragmentStorage.sol\":218:234  fragments[index] */\n      dup2\n      mstore\n      0x20\n      add\n      swap1\n      dup2\n      mstore\n      0x20\n      add\n      0x00\n      keccak256\n        /* \"F/Fragmentation/InsecureFragmentStorage.sol\":218:241  fragments[index] = data */\n      swap2\n      dup3\n      tag_21\n      swap3\n      swap2\n      swap1\n      tag_22\n      jump\t// in\n    tag_21:\n      pop\n        /* \"F/Fragmentation/InsecureFragmentStorage.sol\":147:271  function store(uint256 index, string calldata data) external {... */\n      pop\n      pop\n      pop\n      jump\t// out\n        /* \"F/Fragmentation/InsecureFragmentStorage.sol\":277:384  function read(uint256 index) external view returns (string memory) {... */\n    tag_13:\n        /* \"F/Fragmentation/InsecureFragmentStorage.sol\":329:342  string memory */\n      0x60\n        /* \"F/Fragmentation/InsecureFragmentStorage.sol\":361:370  fragments */\n      0x00\n        /* \"F/Fragmentation/InsecureFragmentStorage.sol\":361:377  fragments[index] */\n      dup1\n        /* \"F/Fragmentation/InsecureFragmentStorage.sol\":371:376  index */\n      dup4\n        /* \"F/Fragmentation/InsecureFragmentStorage.sol\":361:377  fragments[index] */\n      dup2\n      mstore\n      0x20\n      add\n      swap1\n      dup2\n      mstore\n      0x20\n      add\n      0x00\n      keccak256\n        /* \"F/Fragmentation/InsecureFragmentStorage.sol\":354:377  return fragments[index] */\n      dup1\n      sload\n      tag_24\n      swap1\n      tag_25\n      jump\t// in\n    tag_24:\n      dup1\n      0x1f\n      add\n      0x20\n      dup1\n      swap2\n      div\n      mul\n      0x20\n      add\n      mload(0x40)\n      swap1\n      dup2\n      add\n      0x40\n      mstore\n      dup1\n      swap3\n      swap2\n      swap1\n      dup2\n      dup2\n      mstore\n      0x20\n      add\n      dup3\n      dup1\n      sload\n      tag_26\n      swap1\n      tag_25\n      jump\t// in\n    tag_26:\n      dup1\n      iszero\n      tag_27\n      jumpi\n      dup1\n      0x1f\n      lt\n      tag_28\n      jumpi\n      0x0100\n      dup1\n      dup4\n      sload\n      div\n      mul\n      dup4\n      mstore\n      swap2\n      0x20\n      add\n      swap2\n      jump(tag_27)\n    tag_28:\n      dup3\n      add\n      swap2\n      swap1\n      0x00\n      mstore\n      keccak256(0x00, 0x20)\n      swap1\n    tag_29:\n      dup2\n      sload\n      dup2\n      mstore\n      swap1\n      0x01\n      add\n      swap1\n      0x20\n      add\n      dup1\n      dup4\n      gt\n      tag_29\n      jumpi\n      dup3\n      swap1\n      sub\n      0x1f\n      and\n      dup3\n      add\n      swap2\n    tag_27:\n      pop\n      pop\n      pop\n      pop\n      pop\n      swap1\n      pop\n        /* \"F/Fragmentation/InsecureFragmentStorage.sol\":277:384  function read(uint256 index) external view returns (string memory) {... */\n      swap2\n      swap1\n      pop\n      jump\t// out\n        /* \"F/Fragmentation/InsecureFragmentStorage.sol\":97:140  mapping(uint256 => string) public fragments */\n    tag_18:\n      mstore(0x20, 0x00)\n      dup1\n      0x00\n      mstore\n      keccak256(0x00, 0x40)\n      0x00\n      swap2\n      pop\n      swap1\n      pop\n      dup1\n      sload\n      tag_30\n      swap1\n      tag_25\n      jump\t// in\n    tag_30:\n      dup1\n      0x1f\n      add\n      0x20\n      dup1\n      swap2\n      div\n      mul\n      0x20\n      add\n      mload(0x40)\n      swap1\n      dup2\n      add\n      0x40\n      mstore\n      dup1\n      swap3\n      swap2\n      swap1\n      dup2\n      dup2\n      mstore\n      0x20\n      add\n      dup3\n      dup1\n      sload\n      tag_31\n      swap1\n      tag_25\n      jump\t// in\n    tag_31:\n      dup1\n      iszero\n      tag_32\n      jumpi\n      dup1\n      0x1f\n      lt\n      tag_33\n      jumpi\n      0x0100\n      dup1\n      dup4\n      sload\n      div\n      mul\n      dup4\n      mstore\n      swap2\n      0x20\n      add\n      swap2\n      jump(tag_32)\n    tag_33:\n      dup3\n      add\n      swap2\n      swap1\n      0x00\n      mstore\n      keccak256(0x00, 0x20)\n      swap1\n    tag_34:\n      dup2\n      sload\n      dup2\n      mstore\n      swap1\n      0x01\n      add\n      swap1\n      0x20\n      add\n      dup1\n      dup4\n      gt\n      tag_34\n      jumpi\n      dup3\n      swap1\n      sub\n      0x1f\n      and\n      dup3\n      add\n      swap2\n    tag_32:\n      pop\n      pop\n      pop\n      pop\n      pop\n      dup2\n      jump\t// out\n        /* \"#utility.yul\":88:205   */\n    tag_36:\n        /* \"#utility.yul\":197:198   */\n      0x00\n        /* \"#utility.yul\":194:195   */\n      dup1\n        /* \"#utility.yul\":187:199   */\n      revert\n        /* \"#utility.yul\":211:328   */\n    tag_37:\n        /* \"#utility.yul\":320:321   */\n      0x00\n        /* \"#utility.yul\":317:318   */\n      dup1\n        /* \"#utility.yul\":310:322   */\n      revert\n        /* \"#utility.yul\":334:411   */\n    tag_38:\n        /* \"#utility.yul\":371:378   */\n      0x00\n        /* \"#utility.yul\":400:405   */\n      dup2\n        /* \"#utility.yul\":389:405   */\n      swap1\n      pop\n        /* \"#utility.yul\":334:411   */\n      swap2\n      swap1\n      pop\n      jump\t// out\n        /* \"#utility.yul\":417:539   */\n    tag_39:\n        /* \"#utility.yul\":490:514   */\n      tag_74\n        /* \"#utility.yul\":508:513   */\n      dup2\n        /* \"#utility.yul\":490:514   */\n      tag_38\n      jump\t// in\n    tag_74:\n        /* \"#utility.yul\":483:488   */\n      dup2\n        /* \"#utility.yul\":480:515   */\n      eq\n        /* \"#utility.yul\":470:533   */\n      tag_75\n      jumpi\n        /* \"#utility.yul\":529:530   */\n      0x00\n        /* \"#utility.yul\":526:527   */\n      dup1\n        /* \"#utility.yul\":519:531   */\n      revert\n        /* \"#utility.yul\":470:533   */\n    tag_75:\n        /* \"#utility.yul\":417:539   */\n      pop\n      jump\t// out\n        /* \"#utility.yul\":545:684   */\n    tag_40:\n        /* \"#utility.yul\":591:596   */\n      0x00\n        /* \"#utility.yul\":629:635   */\n      dup2\n        /* \"#utility.yul\":616:636   */\n      calldataload\n        /* \"#utility.yul\":607:636   */\n      swap1\n      pop\n        /* \"#utility.yul\":645:678   */\n      tag_77\n        /* \"#utility.yul\":672:677   */\n      dup2\n        /* \"#utility.yul\":645:678   */\n      tag_39\n      jump\t// in\n    tag_77:\n        /* \"#utility.yul\":545:684   */\n      swap3\n      swap2\n      pop\n      pop\n      jump\t// out\n        /* \"#utility.yul\":690:807   */\n    tag_41:\n        /* \"#utility.yul\":799:800   */\n      0x00\n        /* \"#utility.yul\":796:797   */\n      dup1\n        /* \"#utility.yul\":789:801   */\n      revert\n        /* \"#utility.yul\":813:930   */\n    tag_42:\n        /* \"#utility.yul\":922:923   */\n      0x00\n        /* \"#utility.yul\":919:920   */\n      dup1\n        /* \"#utility.yul\":912:924   */\n      revert\n        /* \"#utility.yul\":936:1053   */\n    tag_43:\n        /* \"#utility.yul\":1045:1046   */\n      0x00\n        /* \"#utility.yul\":1042:1043   */\n      dup1\n        /* \"#utility.yul\":1035:1047   */\n      revert\n        /* \"#utility.yul\":1073:1626   */\n    tag_44:\n        /* \"#utility.yul\":1131:1139   */\n      0x00\n        /* \"#utility.yul\":1141:1147   */\n      dup1\n        /* \"#utility.yul\":1191:1194   */\n      dup4\n        /* \"#utility.yul\":1184:1188   */\n      0x1f\n        /* \"#utility.yul\":1176:1182   */\n      dup5\n        /* \"#utility.yul\":1172:1189   */\n      add\n        /* \"#utility.yul\":1168:1195   */\n      slt\n        /* \"#utility.yul\":1158:1280   */\n      tag_82\n      jumpi\n        /* \"#utility.yul\":1199:1278   */\n      tag_83\n      tag_41\n      jump\t// in\n    tag_83:\n        /* \"#utility.yul\":1158:1280   */\n    tag_82:\n        /* \"#utility.yul\":1312:1318   */\n      dup3\n        /* \"#utility.yul\":1299:1319   */\n      calldataload\n        /* \"#utility.yul\":1289:1319   */\n      swap1\n      pop\n        /* \"#utility.yul\":1342:1360   */\n      0xffffffffffffffff\n        /* \"#utility.yul\":1334:1340   */\n      dup2\n        /* \"#utility.yul\":1331:1361   */\n      gt\n        /* \"#utility.yul\":1328:1445   */\n      iszero\n      tag_84\n      jumpi\n        /* \"#utility.yul\":1364:1443   */\n      tag_85\n      tag_42\n      jump\t// in\n    tag_85:\n        /* \"#utility.yul\":1328:1445   */\n    tag_84:\n        /* \"#utility.yul\":1478:1482   */\n      0x20\n        /* \"#utility.yul\":1470:1476   */\n      dup4\n        /* \"#utility.yul\":1466:1483   */\n      add\n        /* \"#utility.yul\":1454:1483   */\n      swap2\n      pop\n        /* \"#utility.yul\":1532:1535   */\n      dup4\n        /* \"#utility.yul\":1524:1528   */\n      0x01\n        /* \"#utility.yul\":1516:1522   */\n      dup3\n        /* \"#utility.yul\":1512:1529   */\n      mul\n        /* \"#utility.yul\":1502:1510   */\n      dup4\n        /* \"#utility.yul\":1498:1530   */\n      add\n        /* \"#utility.yul\":1495:1536   */\n      gt\n        /* \"#utility.yul\":1492:1620   */\n      iszero\n      tag_86\n      jumpi\n        /* \"#utility.yul\":1539:1618   */\n      tag_87\n      tag_43\n      jump\t// in\n    tag_87:\n        /* \"#utility.yul\":1492:1620   */\n    tag_86:\n        /* \"#utility.yul\":1073:1626   */\n      swap3\n      pop\n      swap3\n      swap1\n      pop\n      jump\t// out\n        /* \"#utility.yul\":1632:2306   */\n    tag_8:\n        /* \"#utility.yul\":1712:1718   */\n      0x00\n        /* \"#utility.yul\":1720:1726   */\n      dup1\n        /* \"#utility.yul\":1728:1734   */\n      0x00\n        /* \"#utility.yul\":1777:1779   */\n      0x40\n        /* \"#utility.yul\":1765:1774   */\n      dup5\n        /* \"#utility.yul\":1756:1763   */\n      dup7\n        /* \"#utility.yul\":1752:1775   */\n      sub\n        /* \"#utility.yul\":1748:1780   */\n      slt\n        /* \"#utility.yul\":1745:1864   */\n      iszero\n      tag_89\n      jumpi\n        /* \"#utility.yul\":1783:1862   */\n      tag_90\n      tag_36\n      jump\t// in\n    tag_90:\n        /* \"#utility.yul\":1745:1864   */\n    tag_89:\n        /* \"#utility.yul\":1903:1904   */\n      0x00\n        /* \"#utility.yul\":1928:1981   */\n      tag_91\n        /* \"#utility.yul\":1973:1980   */\n      dup7\n        /* \"#utility.yul\":1964:1970   */\n      dup3\n        /* \"#utility.yul\":1953:1962   */\n      dup8\n        /* \"#utility.yul\":1949:1971   */\n      add\n        /* \"#utility.yul\":1928:1981   */\n      tag_40\n      jump\t// in\n    tag_91:\n        /* \"#utility.yul\":1918:1981   */\n      swap4\n      pop\n        /* \"#utility.yul\":1874:1991   */\n      pop\n        /* \"#utility.yul\":2058:2060   */\n      0x20\n        /* \"#utility.yul\":2047:2056   */\n      dup5\n        /* \"#utility.yul\":2043:2061   */\n      add\n        /* \"#utility.yul\":2030:2062   */\n      calldataload\n        /* \"#utility.yul\":2089:2107   */\n      0xffffffffffffffff\n        /* \"#utility.yul\":2081:2087   */\n      dup2\n        /* \"#utility.yul\":2078:2108   */\n      gt\n        /* \"#utility.yul\":2075:2192   */\n      iszero\n      tag_92\n      jumpi\n        /* \"#utility.yul\":2111:2190   */\n      tag_93\n      tag_37\n      jump\t// in\n    tag_93:\n        /* \"#utility.yul\":2075:2192   */\n    tag_92:\n        /* \"#utility.yul\":2224:2289   */\n      tag_94\n        /* \"#utility.yul\":2281:2288   */\n      dup7\n        /* \"#utility.yul\":2272:2278   */\n      dup3\n        /* \"#utility.yul\":2261:2270   */\n      dup8\n        /* \"#utility.yul\":2257:2279   */\n      add\n        /* \"#utility.yul\":2224:2289   */\n      tag_44\n      jump\t// in\n    tag_94:\n        /* \"#utility.yul\":2206:2289   */\n      swap3\n      pop\n      swap3\n      pop\n        /* \"#utility.yul\":2001:2299   */\n      pop\n        /* \"#utility.yul\":1632:2306   */\n      swap3\n      pop\n      swap3\n      pop\n      swap3\n      jump\t// out\n        /* \"#utility.yul\":2312:2641   */\n    tag_12:\n        /* \"#utility.yul\":2371:2377   */\n      0x00\n        /* \"#utility.yul\":2420:2422   */\n      0x20\n        /* \"#utility.yul\":2408:2417   */\n      dup3\n        /* \"#utility.yul\":2399:2406   */\n      dup5\n        /* \"#utility.yul\":2395:2418   */\n      sub\n        /* \"#utility.yul\":2391:2423   */\n      slt\n        /* \"#utility.yul\":2388:2507   */\n      iszero\n      tag_96\n      jumpi\n        /* \"#utility.yul\":2426:2505   */\n      tag_97\n      tag_36\n      jump\t// in\n    tag_97:\n        /* \"#utility.yul\":2388:2507   */\n    tag_96:\n        /* \"#utility.yul\":2546:2547   */\n      0x00\n        /* \"#utility.yul\":2571:2624   */\n      tag_98\n        /* \"#utility.yul\":2616:2623   */\n      dup5\n        /* \"#utility.yul\":2607:2613   */\n      dup3\n        /* \"#utility.yul\":2596:2605   */\n      dup6\n        /* \"#utility.yul\":2592:2614   */\n      add\n        /* \"#utility.yul\":2571:2624   */\n      tag_40\n      jump\t// in\n    tag_98:\n        /* \"#utility.yul\":2561:2624   */\n      swap2\n      pop\n        /* \"#utility.yul\":2517:2634   */\n      pop\n        /* \"#utility.yul\":2312:2641   */\n      swap3\n      swap2\n      pop\n      pop\n      jump\t// out\n        /* \"#utility.yul\":2647:2746   */\n    tag_45:\n        /* \"#utility.yul\":2699:2705   */\n      0x00\n        /* \"#utility.yul\":2733:2738   */\n      dup2\n        /* \"#utility.yul\":2727:2739   */\n      mload\n        /* \"#utility.yul\":2717:2739   */\n      swap1\n      pop\n        /* \"#utility.yul\":2647:2746   */\n      swap2\n      swap1\n      pop\n      jump\t// out\n        /* \"#utility.yul\":2752:2921   */\n    tag_46:\n        /* \"#utility.yul\":2836:2847   */\n      0x00\n        /* \"#utility.yul\":2870:2876   */\n      dup3\n        /* \"#utility.yul\":2865:2868   */\n      dup3\n        /* \"#utility.yul\":2858:2877   */\n      mstore\n        /* \"#utility.yul\":2910:2914   */\n      0x20\n        /* \"#utility.yul\":2905:2908   */\n      dup3\n        /* \"#utility.yul\":2901:2915   */\n      add\n        /* \"#utility.yul\":2886:2915   */\n      swap1\n      pop\n        /* \"#utility.yul\":2752:2921   */\n      swap3\n      swap2\n      pop\n      pop\n      jump\t// out\n        /* \"#utility.yul\":2927:3066   */\n    tag_47:\n        /* \"#utility.yul\":3016:3022   */\n      dup3\n        /* \"#utility.yul\":3011:3014   */\n      dup2\n        /* \"#utility.yul\":3006:3009   */\n      dup4\n        /* \"#utility.yul\":3000:3023   */\n      mcopy\n        /* \"#utility.yul\":3057:3058   */\n      0x00\n        /* \"#utility.yul\":3048:3054   */\n      dup4\n        /* \"#utility.yul\":3043:3046   */\n      dup4\n        /* \"#utility.yul\":3039:3055   */\n      add\n        /* \"#utility.yul\":3032:3059   */\n      mstore\n        /* \"#utility.yul\":2927:3066   */\n      pop\n      pop\n      pop\n      jump\t// out\n        /* \"#utility.yul\":3072:3174   */\n    tag_48:\n        /* \"#utility.yul\":3113:3119   */\n      0x00\n        /* \"#utility.yul\":3164:3166   */\n      0x1f\n        /* \"#utility.yul\":3160:3167   */\n      not\n        /* \"#utility.yul\":3155:3157   */\n      0x1f\n        /* \"#utility.yul\":3148:3153   */\n      dup4\n        /* \"#utility.yul\":3144:3158   */\n      add\n        /* \"#utility.yul\":3140:3168   */\n      and\n        /* \"#utility.yul\":3130:3168   */\n      swap1\n      pop\n        /* \"#utility.yul\":3072:3174   */\n      swap2\n      swap1\n      pop\n      jump\t// out\n        /* \"#utility.yul\":3180:3557   */\n    tag_49:\n        /* \"#utility.yul\":3268:3271   */\n      0x00\n        /* \"#utility.yul\":3296:3335   */\n      tag_104\n        /* \"#utility.yul\":3329:3334   */\n      dup3\n        /* \"#utility.yul\":3296:3335   */\n      tag_45\n      jump\t// in\n    tag_104:\n        /* \"#utility.yul\":3351:3422   */\n      tag_105\n        /* \"#utility.yul\":3415:3421   */\n      dup2\n        /* \"#utility.yul\":3410:3413   */\n      dup6\n        /* \"#utility.yul\":3351:3422   */\n      tag_46\n      jump\t// in\n    tag_105:\n        /* \"#utility.yul\":3344:3422   */\n      swap4\n      pop\n        /* \"#utility.yul\":3431:3496   */\n      tag_106\n        /* \"#utility.yul\":3489:3495   */\n      dup2\n        /* \"#utility.yul\":3484:3487   */\n      dup6\n        /* \"#utility.yul\":3477:3481   */\n      0x20\n        /* \"#utility.yul\":3470:3475   */\n      dup7\n        /* \"#utility.yul\":3466:3482   */\n      add\n        /* \"#utility.yul\":3431:3496   */\n      tag_47\n      jump\t// in\n    tag_106:\n        /* \"#utility.yul\":3521:3550   */\n      tag_107\n        /* \"#utility.yul\":3543:3549   */\n      dup2\n        /* \"#utility.yul\":3521:3550   */\n      tag_48\n      jump\t// in\n    tag_107:\n        /* \"#utility.yul\":3516:3519   */\n      dup5\n        /* \"#utility.yul\":3512:3551   */\n      add\n        /* \"#utility.yul\":3505:3551   */\n      swap2\n      pop\n        /* \"#utility.yul\":3272:3557   */\n      pop\n        /* \"#utility.yul\":3180:3557   */\n      swap3\n      swap2\n      pop\n      pop\n      jump\t// out\n        /* \"#utility.yul\":3563:3876   */\n    tag_15:\n        /* \"#utility.yul\":3676:3680   */\n      0x00\n        /* \"#utility.yul\":3714:3716   */\n      0x20\n        /* \"#utility.yul\":3703:3712   */\n      dup3\n        /* \"#utility.yul\":3699:3717   */\n      add\n        /* \"#utility.yul\":3691:3717   */\n      swap1\n      pop\n        /* \"#utility.yul\":3763:3772   */\n      dup2\n        /* \"#utility.yul\":3757:3761   */\n      dup2\n        /* \"#utility.yul\":3753:3773   */\n      sub\n        /* \"#utility.yul\":3749:3750   */\n      0x00\n        /* \"#utility.yul\":3738:3747   */\n      dup4\n        /* \"#utility.yul\":3734:3751   */\n      add\n        /* \"#utility.yul\":3727:3774   */\n      mstore\n        /* \"#utility.yul\":3791:3869   */\n      tag_109\n        /* \"#utility.yul\":3864:3868   */\n      dup2\n        /* \"#utility.yul\":3855:3861   */\n      dup5\n        /* \"#utility.yul\":3791:3869   */\n      tag_49\n      jump\t// in\n    tag_109:\n        /* \"#utility.yul\":3783:3869   */\n      swap1\n      pop\n        /* \"#utility.yul\":3563:3876   */\n      swap3\n      swap2\n      pop\n      pop\n      jump\t// out\n        /* \"#utility.yul\":3882:3979   */\n    tag_50:\n        /* \"#utility.yul\":3941:3947   */\n      0x00\n        /* \"#utility.yul\":3969:3972   */\n      dup3\n        /* \"#utility.yul\":3959:3972   */\n      swap1\n      pop\n        /* \"#utility.yul\":3882:3979   */\n      swap3\n      swap2\n      pop\n      pop\n      jump\t// out\n        /* \"#utility.yul\":3985:4165   */\n    tag_51:\n        /* \"#utility.yul\":4033:4110   */\n      0x4e487b7100000000000000000000000000000000000000000000000000000000\n        /* \"#utility.yul\":4030:4031   */\n      0x00\n        /* \"#utility.yul\":4023:4111   */\n      mstore\n        /* \"#utility.yul\":4130:4134   */\n      0x41\n        /* \"#utility.yul\":4127:4128   */\n      0x04\n        /* \"#utility.yul\":4120:4135   */\n      mstore\n        /* \"#utility.yul\":4154:4158   */\n      0x24\n        /* \"#utility.yul\":4151:4152   */\n      0x00\n        /* \"#utility.yul\":4144:4159   */\n      revert\n        /* \"#utility.yul\":4171:4351   */\n    tag_52:\n        /* \"#utility.yul\":4219:4296   */\n      0x4e487b7100000000000000000000000000000000000000000000000000000000\n        /* \"#utility.yul\":4216:4217   */\n      0x00\n        /* \"#utility.yul\":4209:4297   */\n      mstore\n        /* \"#utility.yul\":4316:4320   */\n      0x22\n        /* \"#utility.yul\":4313:4314   */\n      0x04\n        /* \"#utility.yul\":4306:4321   */\n      mstore\n        /* \"#utility.yul\":4340:4344   */\n      0x24\n        /* \"#utility.yul\":4337:4338   */\n      0x00\n        /* \"#utility.yul\":4330:4345   */\n      revert\n        /* \"#utility.yul\":4357:4677   */\n    tag_25:\n        /* \"#utility.yul\":4401:4407   */\n      0x00\n        /* \"#utility.yul\":4438:4439   */\n      0x02\n        /* \"#utility.yul\":4432:4436   */\n      dup3\n        /* \"#utility.yul\":4428:4440   */\n      div\n        /* \"#utility.yul\":4418:4440   */\n      swap1\n      pop\n        /* \"#utility.yul\":4485:4486   */\n      0x01\n        /* \"#utility.yul\":4479:4483   */\n      dup3\n        /* \"#utility.yul\":4475:4487   */\n      and\n        /* \"#utility.yul\":4506:4524   */\n      dup1\n        /* \"#utility.yul\":4496:4577   */\n      tag_114\n      jumpi\n        /* \"#utility.yul\":4562:4566   */\n      0x7f\n        /* \"#utility.yul\":4554:4560   */\n      dup3\n        /* \"#utility.yul\":4550:4567   */\n      and\n        /* \"#utility.yul\":4540:4567   */\n      swap2\n      pop\n        /* \"#utility.yul\":4496:4577   */\n    tag_114:\n        /* \"#utility.yul\":4624:4626   */\n      0x20\n        /* \"#utility.yul\":4616:4622   */\n      dup3\n        /* \"#utility.yul\":4613:4627   */\n      lt\n        /* \"#utility.yul\":4593:4611   */\n      dup2\n        /* \"#utility.yul\":4590:4628   */\n      sub\n        /* \"#utility.yul\":4587:4671   */\n      tag_115\n      jumpi\n        /* \"#utility.yul\":4643:4661   */\n      tag_116\n      tag_52\n      jump\t// in\n    tag_116:\n        /* \"#utility.yul\":4587:4671   */\n    tag_115:\n        /* \"#utility.yul\":4408:4677   */\n      pop\n        /* \"#utility.yul\":4357:4677   */\n      swap2\n      swap1\n      pop\n      jump\t// out\n        /* \"#utility.yul\":4683:4824   */\n    tag_53:\n        /* \"#utility.yul\":4732:4736   */\n      0x00\n        /* \"#utility.yul\":4755:4758   */\n      dup2\n        /* \"#utility.yul\":4747:4758   */\n      swap1\n      pop\n        /* \"#utility.yul\":4778:4781   */\n      dup2\n        /* \"#utility.yul\":4775:4776   */\n      0x00\n        /* \"#utility.yul\":4768:4782   */\n      mstore\n        /* \"#utility.yul\":4812:4816   */\n      0x20\n        /* \"#utility.yul\":4809:4810   */\n      0x00\n        /* \"#utility.yul\":4799:4817   */\n      keccak256\n        /* \"#utility.yul\":4791:4817   */\n      swap1\n      pop\n        /* \"#utility.yul\":4683:4824   */\n      swap2\n      swap1\n      pop\n      jump\t// out\n        /* \"#utility.yul\":4830:4923   */\n    tag_54:\n        /* \"#utility.yul\":4867:4873   */\n      0x00\n        /* \"#utility.yul\":4914:4916   */\n      0x20\n        /* \"#utility.yul\":4909:4911   */\n      0x1f\n        /* \"#utility.yul\":4902:4907   */\n      dup4\n        /* \"#utility.yul\":4898:4912   */\n      add\n        /* \"#utility.yul\":4894:4917   */\n      div\n        /* \"#utility.yul\":4884:4917   */\n      swap1\n      pop\n        /* \"#utility.yul\":4830:4923   */\n      swap2\n      swap1\n      pop\n      jump\t// out\n        /* \"#utility.yul\":4929:5036   */\n    tag_55:\n        /* \"#utility.yul\":4973:4981   */\n      0x00\n        /* \"#utility.yul\":5023:5028   */\n      dup3\n        /* \"#utility.yul\":5017:5021   */\n      dup3\n        /* \"#utility.yul\":5013:5029   */\n      shl\n        /* \"#utility.yul\":4992:5029   */\n      swap1\n      pop\n        /* \"#utility.yul\":4929:5036   */\n      swap3\n      swap2\n      pop\n      pop\n      jump\t// out\n        /* \"#utility.yul\":5042:5435   */\n    tag_56:\n        /* \"#utility.yul\":5111:5117   */\n      0x00\n        /* \"#utility.yul\":5161:5162   */\n      0x08\n        /* \"#utility.yul\":5149:5159   */\n      dup4\n        /* \"#utility.yul\":5145:5163   */\n      mul\n        /* \"#utility.yul\":5184:5281   */\n      tag_121\n        /* \"#utility.yul\":5214:5280   */\n      0xffffffffffffffffffffffffffffffffffffffffffffffffffffffffffffffff\n        /* \"#utility.yul\":5203:5212   */\n      dup3\n        /* \"#utility.yul\":5184:5281   */\n      tag_55\n      jump\t// in\n    tag_121:\n        /* \"#utility.yul\":5302:5341   */\n      tag_122\n        /* \"#utility.yul\":5332:5340   */\n      dup7\n        /* \"#utility.yul\":5321:5330   */\n      dup4\n        /* \"#utility.yul\":5302:5341   */\n      tag_55\n      jump\t// in\n    tag_122:\n        /* \"#utility.yul\":5290:5341   */\n      swap6\n      pop\n        /* \"#utility.yul\":5374:5378   */\n      dup1\n        /* \"#utility.yul\":5370:5379   */\n      not\n        /* \"#utility.yul\":5363:5368   */\n      dup5\n        /* \"#utility.yul\":5359:5380   */\n      and\n        /* \"#utility.yul\":5350:5380   */\n      swap4\n      pop\n        /* \"#utility.yul\":5423:5427   */\n      dup1\n        /* \"#utility.yul\":5413:5421   */\n      dup7\n        /* \"#utility.yul\":5409:5428   */\n      and\n        /* \"#utility.yul\":5402:5407   */\n      dup5\n        /* \"#utility.yul\":5399:5429   */\n      or\n        /* \"#utility.yul\":5389:5429   */\n      swap3\n      pop\n        /* \"#utility.yul\":5118:5435   */\n      pop\n      pop\n        /* \"#utility.yul\":5042:5435   */\n      swap4\n      swap3\n      pop\n      pop\n      pop\n      jump\t// out\n        /* \"#utility.yul\":5441:5501   */\n    tag_57:\n        /* \"#utility.yul\":5469:5472   */\n      0x00\n        /* \"#utility.yul\":5490:5495   */\n      dup2\n        /* \"#utility.yul\":5483:5495   */\n      swap1\n      pop\n        /* \"#utility.yul\":5441:5501   */\n      swap2\n      swap1\n      pop\n      jump\t// out\n        /* \"#utility.yul\":5507:5649   */\n    tag_58:\n        /* \"#utility.yul\":5557:5566   */\n      0x00\n        /* \"#utility.yul\":5590:5643   */\n      tag_125\n        /* \"#utility.yul\":5608:5642   */\n      tag_126\n        /* \"#utility.yul\":5617:5641   */\n      tag_127\n        /* \"#utility.yul\":5635:5640   */\n      dup5\n        /* \"#utility.yul\":5617:5641   */\n      tag_38\n      jump\t// in\n    tag_127:\n        /* \"#utility.yul\":5608:5642   */\n      tag_57\n      jump\t// in\n    tag_126:\n        /* \"#utility.yul\":5590:5643   */\n      tag_38\n      jump\t// in\n    tag_125:\n        /* \"#utility.yul\":5577:5643   */\n      swap1\n      pop\n        /* \"#utility.yul\":5507:5649   */\n      swap2\n      swap1\n      pop\n      jump\t// out\n        /* \"#utility.yul\":5655:5730   */\n    tag_59:\n        /* \"#utility.yul\":5698:5701   */\n      0x00\n        /* \"#utility.yul\":5719:5724   */\n      dup2\n        /* \"#utility.yul\":5712:5724   */\n      swap1\n      pop\n        /* \"#utility.yul\":5655:5730   */\n      swap2\n      swap1\n      pop\n      jump\t// out\n        /* \"#utility.yul\":5736:6005   */\n    tag_60:\n        /* \"#utility.yul\":5846:5885   */\n      tag_130\n        /* \"#utility.yul\":5877:5884   */\n      dup4\n        /* \"#utility.yul\":5846:5885   */\n      tag_58\n      jump\t// in\n    tag_130:\n        /* \"#utility.yul\":5907:5998   */\n      tag_131\n        /* \"#utility.yul\":5956:5997   */\n      tag_132\n        /* \"#utility.yul\":5980:5996   */\n      dup3\n        /* \"#utility.yul\":5956:5997   */\n      tag_59\n      jump\t// in\n    tag_132:\n        /* \"#utility.yul\":5948:5954   */\n      dup5\n        /* \"#utility.yul\":5941:5945   */\n      dup5\n        /* \"#utility.yul\":5935:5946   */\n      sload\n        /* \"#utility.yul\":5907:5998   */\n      tag_56\n      jump\t// in\n    tag_131:\n        /* \"#utility.yul\":5901:5905   */\n      dup3\n        /* \"#utility.yul\":5894:5999   */\n      sstore\n        /* \"#utility.yul\":5812:6005   */\n      pop\n        /* \"#utility.yul\":5736:6005   */\n      pop\n      pop\n      pop\n      jump\t// out\n        /* \"#utility.yul\":6011:6084   */\n    tag_61:\n        /* \"#utility.yul\":6056:6059   */\n      0x00\n        /* \"#utility.yul\":6011:6084   */\n      swap1\n      jump\t// out\n        /* \"#utility.yul\":6090:6279   */\n    tag_62:\n        /* \"#utility.yul\":6167:6199   */\n      tag_135\n      tag_61\n      jump\t// in\n    tag_135:\n        /* \"#utility.yul\":6208:6273   */\n      tag_136\n        /* \"#utility.yul\":6266:6272   */\n      dup2\n        /* \"#utility.yul\":6258:6264   */\n      dup5\n        /* \"#utility.yul\":6252:6256   */\n      dup5\n        /* \"#utility.yul\":6208:6273   */\n      tag_60\n      jump\t// in\n    tag_136:\n        /* \"#utility.yul\":6143:6279   */\n      pop\n        /* \"#utility.yul\":6090:6279   */\n      pop\n      pop\n      jump\t// out\n        /* \"#utility.yul\":6285:6471   */\n    tag_63:\n        /* \"#utility.yul\":6345:6465   */\n    tag_138:\n        /* \"#utility.yul\":6362:6365   */\n      dup2\n        /* \"#utility.yul\":6355:6360   */\n      dup2\n        /* \"#utility.yul\":6352:6366   */\n      lt\n        /* \"#utility.yul\":6345:6465   */\n      iszero\n      tag_140\n      jumpi\n        /* \"#utility.yul\":6416:6455   */\n      tag_141\n        /* \"#utility.yul\":6453:6454   */\n      0x00\n        /* \"#utility.yul\":6446:6451   */\n      dup3\n        /* \"#utility.yul\":6416:6455   */\n      tag_62\n      jump\t// in\n    tag_141:\n        /* \"#utility.yul\":6389:6390   */\n      0x01\n        /* \"#utility.yul\":6382:6387   */\n      dup2\n        /* \"#utility.yul\":6378:6391   */\n      add\n        /* \"#utility.yul\":6369:6391   */\n      swap1\n      pop\n        /* \"#utility.yul\":6345:6465   */\n      jump(tag_138)\n    tag_140:\n        /* \"#utility.yul\":6285:6471   */\n      pop\n      pop\n      jump\t// out\n        /* \"#utility.yul\":6477:7020   */\n    tag_64:\n        /* \"#utility.yul\":6578:6580   */\n      0x1f\n        /* \"#utility.yul\":6573:6576   */\n      dup3\n        /* \"#utility.yul\":6570:6581   */\n      gt\n        /* \"#utility.yul\":6567:7013   */\n      iszero\n      tag_143\n      jumpi\n        /* \"#utility.yul\":6612:6650   */\n      tag_144\n        /* \"#utility.yul\":6644:6649   */\n      dup2\n        /* \"#utility.yul\":6612:6650   */\n      tag_53\n      jump\t// in\n    tag_144:\n        /* \"#utility.yul\":6696:6725   */\n      tag_145\n        /* \"#utility.yul\":6714:6724   */\n      dup5\n        /* \"#utility.yul\":6696:6725   */\n      tag_54\n      jump\t// in\n    tag_145:\n        /* \"#utility.yul\":6686:6694   */\n      dup2\n        /* \"#utility.yul\":6682:6726   */\n      add\n        /* \"#utility.yul\":6879:6881   */\n      0x20\n        /* \"#utility.yul\":6867:6877   */\n      dup6\n        /* \"#utility.yul\":6864:6882   */\n      lt\n        /* \"#utility.yul\":6861:6910   */\n      iszero\n      tag_146\n      jumpi\n        /* \"#utility.yul\":6900:6908   */\n      dup2\n        /* \"#utility.yul\":6885:6908   */\n      swap1\n      pop\n        /* \"#utility.yul\":6861:6910   */\n    tag_146:\n        /* \"#utility.yul\":6923:7003   */\n      tag_147\n        /* \"#utility.yul\":6979:7001   */\n      tag_148\n        /* \"#utility.yul\":6997:7000   */\n      dup6\n        /* \"#utility.yul\":6979:7001   */\n      tag_54\n      jump\t// in\n    tag_148:\n        /* \"#utility.yul\":6969:6977   */\n      dup4\n        /* \"#utility.yul\":6965:7002   */\n      add\n        /* \"#utility.yul\":6952:6963   */\n      dup3\n        /* \"#utility.yul\":6923:7003   */\n      tag_63\n      jump\t// in\n    tag_147:\n        /* \"#utility.yul\":6582:7013   */\n      pop\n      pop\n        /* \"#utility.yul\":6567:7013   */\n    tag_143:\n        /* \"#utility.yul\":6477:7020   */\n      pop\n      pop\n      pop\n      jump\t// out\n        /* \"#utility.yul\":7026:7143   */\n    tag_65:\n        /* \"#utility.yul\":7080:7088   */\n      0x00\n        /* \"#utility.yul\":7130:7135   */\n      dup3\n        /* \"#utility.yul\":7124:7128   */\n      dup3\n        /* \"#utility.yul\":7120:7136   */\n      shr\n        /* \"#utility.yul\":7099:7136   */\n      swap1\n      pop\n        /* \"#utility.yul\":7026:7143   */\n      swap3\n      swap2\n      pop\n      pop\n      jump\t// out\n        /* \"#utility.yul\":7149:7318   */\n    tag_66:\n        /* \"#utility.yul\":7193:7199   */\n      0x00\n        /* \"#utility.yul\":7226:7277   */\n      tag_151\n        /* \"#utility.yul\":7274:7275   */\n      0x00\n        /* \"#utility.yul\":7270:7276   */\n      not\n        /* \"#utility.yul\":7262:7267   */\n      dup5\n        /* \"#utility.yul\":7259:7260   */\n      0x08\n        /* \"#utility.yul\":7255:7268   */\n      mul\n        /* \"#utility.yul\":7226:7277   */\n      tag_65\n      jump\t// in\n    tag_151:\n        /* \"#utility.yul\":7222:7278   */\n      not\n        /* \"#utility.yul\":7307:7311   */\n      dup1\n        /* \"#utility.yul\":7301:7305   */\n      dup4\n        /* \"#utility.yul\":7297:7312   */\n      and\n        /* \"#utility.yul\":7287:7312   */\n      swap2\n      pop\n        /* \"#utility.yul\":7200:7318   */\n      pop\n        /* \"#utility.yul\":7149:7318   */\n      swap3\n      swap2\n      pop\n      pop\n      jump\t// out\n        /* \"#utility.yul\":7323:7618   */\n    tag_67:\n        /* \"#utility.yul\":7399:7403   */\n      0x00\n        /* \"#utility.yul\":7545:7574   */\n      tag_153\n        /* \"#utility.yul\":7570:7573   */\n      dup4\n        /* \"#utility.yul\":7564:7568   */\n      dup4\n        /* \"#utility.yul\":7545:7574   */\n      tag_66\n      jump\t// in\n    tag_153:\n        /* \"#utility.yul\":7537:7574   */\n      swap2\n      pop\n        /* \"#utility.yul\":7607:7610   */\n      dup3\n        /* \"#utility.yul\":7604:7605   */\n      0x02\n        /* \"#utility.yul\":7600:7611   */\n      mul\n        /* \"#utility.yul\":7594:7598   */\n      dup3\n        /* \"#utility.yul\":7591:7612   */\n      or\n        /* \"#utility.yul\":7583:7612   */\n      swap1\n      pop\n        /* \"#utility.yul\":7323:7618   */\n      swap3\n      swap2\n      pop\n      pop\n      jump\t// out\n        /* \"#utility.yul\":7623:9026   */\n    tag_22:\n        /* \"#utility.yul\":7747:7791   */\n      tag_155\n        /* \"#utility.yul\":7787:7790   */\n      dup4\n        /* \"#utility.yul\":7782:7785   */\n      dup4\n        /* \"#utility.yul\":7747:7791   */\n      tag_50\n      jump\t// in\n    tag_155:\n        /* \"#utility.yul\":7856:7874   */\n      0xffffffffffffffff\n        /* \"#utility.yul\":7848:7854   */\n      dup2\n        /* \"#utility.yul\":7845:7875   */\n      gt\n        /* \"#utility.yul\":7842:7898   */\n      iszero\n      tag_156\n      jumpi\n        /* \"#utility.yul\":7878:7896   */\n      tag_157\n      tag_51\n      jump\t// in\n    tag_157:\n        /* \"#utility.yul\":7842:7898   */\n    tag_156:\n        /* \"#utility.yul\":7922:7960   */\n      tag_158\n        /* \"#utility.yul\":7954:7958   */\n      dup3\n        /* \"#utility.yul\":7948:7959   */\n      sload\n        /* \"#utility.yul\":7922:7960   */\n      tag_25\n      jump\t// in\n    tag_158:\n        /* \"#utility.yul\":8007:8074   */\n      tag_159\n        /* \"#utility.yul\":8067:8073   */\n      dup3\n        /* \"#utility.yul\":8059:8065   */\n      dup3\n        /* \"#utility.yul\":8053:8057   */\n      dup6\n        /* \"#utility.yul\":8007:8074   */\n      tag_64\n      jump\t// in\n    tag_159:\n        /* \"#utility.yul\":8101:8102   */\n      0x00\n        /* \"#utility.yul\":8130:8132   */\n      0x1f\n        /* \"#utility.yul\":8122:8128   */\n      dup4\n        /* \"#utility.yul\":8119:8133   */\n      gt\n        /* \"#utility.yul\":8147:8148   */\n      0x01\n        /* \"#utility.yul\":8142:8774   */\n      dup2\n      eq\n      tag_161\n      jumpi\n        /* \"#utility.yul\":8818:8819   */\n      0x00\n        /* \"#utility.yul\":8835:8841   */\n      dup5\n        /* \"#utility.yul\":8832:8916   */\n      iszero\n      tag_162\n      jumpi\n        /* \"#utility.yul\":8891:8900   */\n      dup3\n        /* \"#utility.yul\":8886:8889   */\n      dup8\n        /* \"#utility.yul\":8882:8901   */\n      add\n        /* \"#utility.yul\":8869:8902   */\n      calldataload\n        /* \"#utility.yul\":8860:8902   */\n      swap1\n      pop\n        /* \"#utility.yul\":8832:8916   */\n    tag_162:\n        /* \"#utility.yul\":8942:9009   */\n      tag_163\n        /* \"#utility.yul\":9002:9008   */\n      dup6\n        /* \"#utility.yul\":8995:9000   */\n      dup3\n        /* \"#utility.yul\":8942:9009   */\n      tag_67\n      jump\t// in\n    tag_163:\n        /* \"#utility.yul\":8936:8940   */\n      dup7\n        /* \"#utility.yul\":8929:9010   */\n      sstore\n        /* \"#utility.yul\":8791:9020   */\n      pop\n        /* \"#utility.yul\":8112:9020   */\n      jump(tag_160)\n        /* \"#utility.yul\":8142:8774   */\n    tag_161:\n        /* \"#utility.yul\":8194:8198   */\n      0x1f\n        /* \"#utility.yul\":8190:8199   */\n      not\n        /* \"#utility.yul\":8182:8188   */\n      dup5\n        /* \"#utility.yul\":8178:8200   */\n      and\n        /* \"#utility.yul\":8228:8265   */\n      tag_164\n        /* \"#utility.yul\":8260:8264   */\n      dup7\n        /* \"#utility.yul\":8228:8265   */\n      tag_53\n      jump\t// in\n    tag_164:\n        /* \"#utility.yul\":8287:8288   */\n      0x00\n        /* \"#utility.yul\":8301:8516   */\n    tag_165:\n        /* \"#utility.yul\":8315:8322   */\n      dup3\n        /* \"#utility.yul\":8312:8313   */\n      dup2\n        /* \"#utility.yul\":8309:8323   */\n      lt\n        /* \"#utility.yul\":8301:8516   */\n      iszero\n      tag_167\n      jumpi\n        /* \"#utility.yul\":8401:8410   */\n      dup5\n        /* \"#utility.yul\":8396:8399   */\n      dup10\n        /* \"#utility.yul\":8392:8411   */\n      add\n        /* \"#utility.yul\":8379:8412   */\n      calldataload\n        /* \"#utility.yul\":8371:8377   */\n      dup3\n        /* \"#utility.yul\":8364:8413   */\n      sstore\n        /* \"#utility.yul\":8452:8453   */\n      0x01\n        /* \"#utility.yul\":8444:8450   */\n      dup3\n        /* \"#utility.yul\":8440:8454   */\n      add\n        /* \"#utility.yul\":8430:8454   */\n      swap2\n      pop\n        /* \"#utility.yul\":8499:8501   */\n      0x20\n        /* \"#utility.yul\":8488:8497   */\n      dup6\n        /* \"#utility.yul\":8484:8502   */\n      add\n        /* \"#utility.yul\":8471:8502   */\n      swap5\n      pop\n        /* \"#utility.yul\":8338:8342   */\n      0x20\n        /* \"#utility.yul\":8335:8336   */\n      dup2\n        /* \"#utility.yul\":8331:8343   */\n      add\n        /* \"#utility.yul\":8326:8343   */\n      swap1\n      pop\n        /* \"#utility.yul\":8301:8516   */\n      jump(tag_165)\n    tag_167:\n        /* \"#utility.yul\":8544:8550   */\n      dup7\n        /* \"#utility.yul\":8535:8542   */\n      dup4\n        /* \"#utility.yul\":8532:8551   */\n      lt\n        /* \"#utility.yul\":8529:8715   */\n      iszero\n      tag_168\n      jumpi\n        /* \"#utility.yul\":8609:8618   */\n      dup5\n        /* \"#utility.yul\":8604:8607   */\n      dup10\n        /* \"#utility.yul\":8600:8619   */\n      add\n        /* \"#utility.yul\":8587:8620   */\n      calldataload\n        /* \"#utility.yul\":8652:8700   */\n      tag_169\n        /* \"#utility.yul\":8694:8698   */\n      0x1f\n        /* \"#utility.yul\":8686:8692   */\n      dup10\n        /* \"#utility.yul\":8682:8699   */\n      and\n        /* \"#utility.yul\":8671:8680   */\n      dup3\n        /* \"#utility.yul\":8652:8700   */\n      tag_66\n      jump\t// in\n    tag_169:\n        /* \"#utility.yul\":8644:8650   */\n      dup4\n        /* \"#utility.yul\":8637:8701   */\n      sstore\n        /* \"#utility.yul\":8552:8715   */\n      pop\n        /* \"#utility.yul\":8529:8715   */\n    tag_168:\n        /* \"#utility.yul\":8761:8762   */\n      0x01\n        /* \"#utility.yul\":8757:8758   */\n      0x02\n        /* \"#utility.yul\":8749:8755   */\n      dup9\n        /* \"#utility.yul\":8745:8759   */\n      mul\n        /* \"#utility.yul\":8741:8763   */\n      add\n        /* \"#utility.yul\":8735:8739   */\n      dup9\n        /* \"#utility.yul\":8728:8764   */\n      sstore\n        /* \"#utility.yul\":8149:8774   */\n      pop\n      pop\n      pop\n        /* \"#utility.yul\":8112:9020   */\n    tag_160:\n      pop\n        /* \"#utility.yul\":7722:9026   */\n      pop\n      pop\n      pop\n        /* \"#utility.yul\":7623:9026   */\n      pop\n      pop\n      pop\n      jump\t// out\n\n    auxdata: 0xa2646970667358221220c6147f66a394d0b323e1c307de1008a2d14458027152834be7bc127891b993f264736f6c634300081a0033\n}\n",
				"bytecode": {
					"linkReferences": {},
					"object": "6080604052348015600e575f80fd5b506107068061001c5f395ff3fe608060405234801561000f575f80fd5b506004361061003f575f3560e01c8063e1ff178a14610043578063ed2e5a971461005f578063ff6e53341461008f575b5f80fd5b61005d600480360381019061005891906102ba565b6100bf565b005b61007960048036038101906100749190610317565b6100e4565b60405161008691906103b2565b60405180910390f35b6100a960048036038101906100a49190610317565b610184565b6040516100b691906103b2565b60405180910390f35b81815f808681526020019081526020015f2091826100de929190610603565b50505050565b60605f808381526020019081526020015f20805461010190610436565b80601f016020809104026020016040519081016040528092919081815260200182805461012d90610436565b80156101785780601f1061014f57610100808354040283529160200191610178565b820191905f5260205f20905b81548152906001019060200180831161015b57829003601f168201915b50505050509050919050565b5f602052805f5260405f205f91509050805461019f90610436565b80601f01602080910402602001604051908101604052809291908181526020018280546101cb90610436565b80156102165780601f106101ed57610100808354040283529160200191610216565b820191905f5260205f20905b8154815290600101906020018083116101f957829003601f168201915b505050505081565b5f80fd5b5f80fd5b5f819050919050565b61023881610226565b8114610242575f80fd5b50565b5f813590506102538161022f565b92915050565b5f80fd5b5f80fd5b5f80fd5b5f8083601f84011261027a57610279610259565b5b8235905067ffffffffffffffff8111156102975761029661025d565b5b6020830191508360018202830111156102b3576102b2610261565b5b9250929050565b5f805f604084860312156102d1576102d061021e565b5b5f6102de86828701610245565b935050602084013567ffffffffffffffff8111156102ff576102fe610222565b5b61030b86828701610265565b92509250509250925092565b5f6020828403121561032c5761032b61021e565b5b5f61033984828501610245565b91505092915050565b5f81519050919050565b5f82825260208201905092915050565b8281835e5f83830152505050565b5f601f19601f8301169050919050565b5f61038482610342565b61038e818561034c565b935061039e81856020860161035c565b6103a78161036a565b840191505092915050565b5f6020820190508181035f8301526103ca818461037a565b905092915050565b5f82905092915050565b7f4e487b71000000000000000000000000000000000000000000000000000000005f52604160045260245ffd5b7f4e487b71000000000000000000000000000000000000000000000000000000005f52602260045260245ffd5b5f600282049050600182168061044d57607f821691505b6020821081036104605761045f610409565b5b50919050565b5f819050815f5260205f209050919050565b5f6020601f8301049050919050565b5f82821b905092915050565b5f600883026104c27fffffffffffffffffffffffffffffffffffffffffffffffffffffffffffffffff82610487565b6104cc8683610487565b95508019841693508086168417925050509392505050565b5f819050919050565b5f6105076105026104fd84610226565b6104e4565b610226565b9050919050565b5f819050919050565b610520836104ed565b61053461052c8261050e565b848454610493565b825550505050565b5f90565b61054861053c565b610553818484610517565b505050565b5b818110156105765761056b5f82610540565b600181019050610559565b5050565b601f8211156105bb5761058c81610466565b61059584610478565b810160208510156105a4578190505b6105b86105b085610478565b830182610558565b50505b505050565b5f82821c905092915050565b5f6105db5f19846008026105c0565b1980831691505092915050565b5f6105f383836105cc565b9150826002028217905092915050565b61060d83836103d2565b67ffffffffffffffff811115610626576106256103dc565b5b6106308254610436565b61063b82828561057a565b5f601f831160018114610668575f8415610656578287013590505b61066085826105e8565b8655506106c7565b601f19841661067686610466565b5f5b8281101561069d57848901358255600182019150602085019450602081019050610678565b868310156106ba57848901356106b6601f8916826105cc565b8355505b6001600288020188555050505b5050505050505056fea2646970667358221220c6147f66a394d0b323e1c307de1008a2d14458027152834be7bc127891b993f264736f6c634300081a0033",
					"opcodes": "PUSH1 0x80 PUSH1 0x40 MSTORE CALLVALUE DUP1 ISZERO PUSH1 0xE JUMPI PUSH0 DUP1 REVERT JUMPDEST POP PUSH2 0x706 DUP1 PUSH2 0x1C PUSH0 CODECOPY PUSH0 RETURN INVALID PUSH1 0x80 PUSH1 0x40 MSTORE CALLVALUE DUP1 ISZERO PUSH2 0xF JUMPI PUSH0 DUP1 REVERT JUMPDEST POP PUSH1 0x4 CALLDATASIZE LT PUSH2 0x3F JUMPI PUSH0 CALLDATALOAD PUSH1 0xE0 SHR DUP1 PUSH4 0xE1FF178A EQ PUSH2 0x43 JUMPI DUP1 PUSH4 0xED2E5A97 EQ PUSH2 0x5F JUMPI DUP1 PUSH4 0xFF6E5334 EQ PUSH2 0x8F JUMPI JUMPDEST PUSH0 DUP1 REVERT JUMPDEST PUSH2 0x5D PUSH1 0x4 DUP1 CALLDATASIZE SUB DUP2 ADD SWAP1 PUSH2 0x58 SWAP2 SWAP1 PUSH2 0x2BA JUMP JUMPDEST PUSH2 0xBF JUMP JUMPDEST STOP JUMPDEST PUSH2 0x79 PUSH1 0x4 DUP1 CALLDATASIZE SUB DUP2 ADD SWAP1 PUSH2 0x74 SWAP2 SWAP1 PUSH2 0x317 JUMP JUMPDEST PUSH2 0xE4 JUMP JUMPDEST PUSH1 0x40 MLOAD PUSH2 0x86 SWAP2 SWAP1 PUSH2 0x3B2 JUMP JUMPDEST PUSH1 0x40 MLOAD DUP1 SWAP2 SUB SWAP1 RETURN JUMPDEST PUSH2 0xA9 PUSH1 0x4 DUP1 CALLDATASIZE SUB DUP2 ADD SWAP1 PUSH2 0xA4 SWAP2 SWAP1 PUSH2 0x317 JUMP JUMPDEST PUSH2 0x184 JUMP JUMPDEST PUSH1 0x40 MLOAD PUSH2 0xB6 SWAP2 SWAP1 PUSH2 0x3B2 JUMP JUMPDEST PUSH1 0x40 MLOAD DUP1 SWAP2 SUB SWAP1 RETURN JUMPDEST DUP2 DUP2 PUSH0 DUP1 DUP7 DUP2 MSTORE PUSH1 0x20 ADD SWAP1 DUP2 MSTORE PUSH1 0x20 ADD PUSH0 KECCAK256 SWAP2 DUP3 PUSH2 0xDE SWAP3 SWAP2 SWAP1 PUSH2 0x603 JUMP JUMPDEST POP POP POP POP JUMP JUMPDEST PUSH1 0x60 PUSH0 DUP1 DUP4 DUP2 MSTORE PUSH1 0x20 ADD SWAP1 DUP2 MSTORE PUSH1 0x20 ADD PUSH0 KECCAK256 DUP1 SLOAD PUSH2 0x101 SWAP1 PUSH2 0x436 JUMP JUMPDEST DUP1 PUSH1 0x1F ADD PUSH1 0x20 DUP1 SWAP2 DIV MUL PUSH1 0x20 ADD PUSH1 0x40 MLOAD SWAP1 DUP2 ADD PUSH1 0x40 MSTORE DUP1 SWAP3 SWAP2 SWAP1 DUP2 DUP2 MSTORE PUSH1 0x20 ADD DUP3 DUP1 SLOAD PUSH2 0x12D SWAP1 PUSH2 0x436 JUMP JUMPDEST DUP1 ISZERO PUSH2 0x178 JUMPI DUP1 PUSH1 0x1F LT PUSH2 0x14F JUMPI PUSH2 0x100 DUP1 DUP4 SLOAD DIV MUL DUP4 MSTORE SWAP2 PUSH1 0x20 ADD SWAP2 PUSH2 0x178 JUMP JUMPDEST DUP3 ADD SWAP2 SWAP1 PUSH0 MSTORE PUSH1 0x20 PUSH0 KECCAK256 SWAP1 JUMPDEST DUP2 SLOAD DUP2 MSTORE SWAP1 PUSH1 0x1 ADD SWAP1 PUSH1 0x20 ADD DUP1 DUP4 GT PUSH2 0x15B JUMPI DUP3 SWAP1 SUB PUSH1 0x1F AND DUP3 ADD SWAP2 JUMPDEST POP POP POP POP POP SWAP1 POP SWAP2 SWAP1 POP JUMP JUMPDEST PUSH0 PUSH1 0x20 MSTORE DUP1 PUSH0 MSTORE PUSH1 0x40 PUSH0 KECCAK256 PUSH0 SWAP2 POP SWAP1 POP DUP1 SLOAD PUSH2 0x19F SWAP1 PUSH2 0x436 JUMP JUMPDEST DUP1 PUSH1 0x1F ADD PUSH1 0x20 DUP1 SWAP2 DIV MUL PUSH1 0x20 ADD PUSH1 0x40 MLOAD SWAP1 DUP2 ADD PUSH1 0x40 MSTORE DUP1 SWAP3 SWAP2 SWAP1 DUP2 DUP2 MSTORE PUSH1 0x20 ADD DUP3 DUP1 SLOAD PUSH2 0x1CB SWAP1 PUSH2 0x436 JUMP JUMPDEST DUP1 ISZERO PUSH2 0x216 JUMPI DUP1 PUSH1 0x1F LT PUSH2 0x1ED JUMPI PUSH2 0x100 DUP1 DUP4 SLOAD DIV MUL DUP4 MSTORE SWAP2 PUSH1 0x20 ADD SWAP2 PUSH2 0x216 JUMP JUMPDEST DUP3 ADD SWAP2 SWAP1 PUSH0 MSTORE PUSH1 0x20 PUSH0 KECCAK256 SWAP1 JUMPDEST DUP2 SLOAD DUP2 MSTORE SWAP1 PUSH1 0x1 ADD SWAP1 PUSH1 0x20 ADD DUP1 DUP4 GT PUSH2 0x1F9 JUMPI DUP3 SWAP1 SUB PUSH1 0x1F AND DUP3 ADD SWAP2 JUMPDEST POP POP POP POP POP DUP2 JUMP JUMPDEST PUSH0 DUP1 REVERT JUMPDEST PUSH0 DUP1 REVERT JUMPDEST PUSH0 DUP2 SWAP1 POP SWAP2 SWAP1 POP JUMP JUMPDEST PUSH2 0x238 DUP2 PUSH2 0x226 JUMP JUMPDEST DUP2 EQ PUSH2 0x242 JUMPI PUSH0 DUP1 REVERT JUMPDEST POP JUMP JUMPDEST PUSH0 DUP2 CALLDATALOAD SWAP1 POP PUSH2 0x253 DUP2 PUSH2 0x22F JUMP JUMPDEST SWAP3 SWAP2 POP POP JUMP JUMPDEST PUSH0 DUP1 REVERT JUMPDEST PUSH0 DUP1 REVERT JUMPDEST PUSH0 DUP1 REVERT JUMPDEST PUSH0 DUP1 DUP4 PUSH1 0x1F DUP5 ADD SLT PUSH2 0x27A JUMPI PUSH2 0x279 PUSH2 0x259 JUMP JUMPDEST JUMPDEST DUP3 CALLDATALOAD SWAP1 POP PUSH8 0xFFFFFFFFFFFFFFFF DUP2 GT ISZERO PUSH2 0x297 JUMPI PUSH2 0x296 PUSH2 0x25D JUMP JUMPDEST JUMPDEST PUSH1 0x20 DUP4 ADD SWAP2 POP DUP4 PUSH1 0x1 DUP3 MUL DUP4 ADD GT ISZERO PUSH2 0x2B3 JUMPI PUSH2 0x2B2 PUSH2 0x261 JUMP JUMPDEST JUMPDEST SWAP3 POP SWAP3 SWAP1 POP JUMP JUMPDEST PUSH0 DUP1 PUSH0 PUSH1 0x40 DUP5 DUP7 SUB SLT ISZERO PUSH2 0x2D1 JUMPI PUSH2 0x2D0 PUSH2 0x21E JUMP JUMPDEST JUMPDEST PUSH0 PUSH2 0x2DE DUP7 DUP3 DUP8 ADD PUSH2 0x245 JUMP JUMPDEST SWAP4 POP POP PUSH1 0x20 DUP5 ADD CALLDATALOAD PUSH8 0xFFFFFFFFFFFFFFFF DUP2 GT ISZERO PUSH2 0x2FF JUMPI PUSH2 0x2FE PUSH2 0x222 JUMP JUMPDEST JUMPDEST PUSH2 0x30B DUP7 DUP3 DUP8 ADD PUSH2 0x265 JUMP JUMPDEST SWAP3 POP SWAP3 POP POP SWAP3 POP SWAP3 POP SWAP3 JUMP JUMPDEST PUSH0 PUSH1 0x20 DUP3 DUP5 SUB SLT ISZERO PUSH2 0x32C JUMPI PUSH2 0x32B PUSH2 0x21E JUMP JUMPDEST JUMPDEST PUSH0 PUSH2 0x339 DUP5 DUP3 DUP6 ADD PUSH2 0x245 JUMP JUMPDEST SWAP2 POP POP SWAP3 SWAP2 POP POP JUMP JUMPDEST PUSH0 DUP2 MLOAD SWAP1 POP SWAP2 SWAP1 POP JUMP JUMPDEST PUSH0 DUP3 DUP3 MSTORE PUSH1 0x20 DUP3 ADD SWAP1 POP SWAP3 SWAP2 POP POP JUMP JUMPDEST DUP3 DUP2 DUP4 MCOPY PUSH0 DUP4 DUP4 ADD MSTORE POP POP POP JUMP JUMPDEST PUSH0 PUSH1 0x1F NOT PUSH1 0x1F DUP4 ADD AND SWAP1 POP SWAP2 SWAP1 POP JUMP JUMPDEST PUSH0 PUSH2 0x384 DUP3 PUSH2 0x342 JUMP JUMPDEST PUSH2 0x38E DUP2 DUP6 PUSH2 0x34C JUMP JUMPDEST SWAP4 POP PUSH2 0x39E DUP2 DUP6 PUSH1 0x20 DUP7 ADD PUSH2 0x35C JUMP JUMPDEST PUSH2 0x3A7 DUP2 PUSH2 0x36A JUMP JUMPDEST DUP5 ADD SWAP2 POP POP SWAP3 SWAP2 POP POP JUMP JUMPDEST PUSH0 PUSH1 0x20 DUP3 ADD SWAP1 POP DUP2 DUP2 SUB PUSH0 DUP4 ADD MSTORE PUSH2 0x3CA DUP2 DUP5 PUSH2 0x37A JUMP JUMPDEST SWAP1 POP SWAP3 SWAP2 POP POP JUMP JUMPDEST PUSH0 DUP3 SWAP1 POP SWAP3 SWAP2 POP POP JUMP JUMPDEST PUSH32 0x4E487B7100000000000000000000000000000000000000000000000000000000 PUSH0 MSTORE PUSH1 0x41 PUSH1 0x4 MSTORE PUSH1 0x24 PUSH0 REVERT JUMPDEST PUSH32 0x4E487B7100000000000000000000000000000000000000000000000000000000 PUSH0 MSTORE PUSH1 0x22 PUSH1 0x4 MSTORE PUSH1 0x24 PUSH0 REVERT JUMPDEST PUSH0 PUSH1 0x2 DUP3 DIV SWAP1 POP PUSH1 0x1 DUP3 AND DUP1 PUSH2 0x44D JUMPI PUSH1 0x7F DUP3 AND SWAP2 POP JUMPDEST PUSH1 0x20 DUP3 LT DUP2 SUB PUSH2 0x460 JUMPI PUSH2 0x45F PUSH2 0x409 JUMP JUMPDEST JUMPDEST POP SWAP2 SWAP1 POP JUMP JUMPDEST PUSH0 DUP2 SWAP1 POP DUP2 PUSH0 MSTORE PUSH1 0x20 PUSH0 KECCAK256 SWAP1 POP SWAP2 SWAP1 POP JUMP JUMPDEST PUSH0 PUSH1 0x20 PUSH1 0x1F DUP4 ADD DIV SWAP1 POP SWAP2 SWAP1 POP JUMP JUMPDEST PUSH0 DUP3 DUP3 SHL SWAP1 POP SWAP3 SWAP2 POP POP JUMP JUMPDEST PUSH0 PUSH1 0x8 DUP4 MUL PUSH2 0x4C2 PUSH32 0xFFFFFFFFFFFFFFFFFFFFFFFFFFFFFFFFFFFFFFFFFFFFFFFFFFFFFFFFFFFFFFFF DUP3 PUSH2 0x487 JUMP JUMPDEST PUSH2 0x4CC DUP7 DUP4 PUSH2 0x487 JUMP JUMPDEST SWAP6 POP DUP1 NOT DUP5 AND SWAP4 POP DUP1 DUP7 AND DUP5 OR SWAP3 POP POP POP SWAP4 SWAP3 POP POP POP JUMP JUMPDEST PUSH0 DUP2 SWAP1 POP SWAP2 SWAP1 POP JUMP JUMPDEST PUSH0 PUSH2 0x507 PUSH2 0x502 PUSH2 0x4FD DUP5 PUSH2 0x226 JUMP JUMPDEST PUSH2 0x4E4 JUMP JUMPDEST PUSH2 0x226 JUMP JUMPDEST SWAP1 POP SWAP2 SWAP1 POP JUMP JUMPDEST PUSH0 DUP2 SWAP1 POP SWAP2 SWAP1 POP JUMP JUMPDEST PUSH2 0x520 DUP4 PUSH2 0x4ED JUMP JUMPDEST PUSH2 0x534 PUSH2 0x52C DUP3 PUSH2 0x50E JUMP JUMPDEST DUP5 DUP5 SLOAD PUSH2 0x493 JUMP JUMPDEST DUP3 SSTORE POP POP POP POP JUMP JUMPDEST PUSH0 SWAP1 JUMP JUMPDEST PUSH2 0x548 PUSH2 0x53C JUMP JUMPDEST PUSH2 0x553 DUP2 DUP5 DUP5 PUSH2 0x517 JUMP JUMPDEST POP POP POP JUMP JUMPDEST JUMPDEST DUP2 DUP2 LT ISZERO PUSH2 0x576 JUMPI PUSH2 0x56B PUSH0 DUP3 PUSH2 0x540 JUMP JUMPDEST PUSH1 0x1 DUP2 ADD SWAP1 POP PUSH2 0x559 JUMP JUMPDEST POP POP JUMP JUMPDEST PUSH1 0x1F DUP3 GT ISZERO PUSH2 0x5BB JUMPI PUSH2 0x58C DUP2 PUSH2 0x466 JUMP JUMPDEST PUSH2 0x595 DUP5 PUSH2 0x478 JUMP JUMPDEST DUP2 ADD PUSH1 0x20 DUP6 LT ISZERO PUSH2 0x5A4 JUMPI DUP2 SWAP1 POP JUMPDEST PUSH2 0x5B8 PUSH2 0x5B0 DUP6 PUSH2 0x478 JUMP JUMPDEST DUP4 ADD DUP3 PUSH2 0x558 JUMP JUMPDEST POP POP JUMPDEST POP POP POP JUMP JUMPDEST PUSH0 DUP3 DUP3 SHR SWAP1 POP SWAP3 SWAP2 POP POP JUMP JUMPDEST PUSH0 PUSH2 0x5DB PUSH0 NOT DUP5 PUSH1 0x8 MUL PUSH2 0x5C0 JUMP JUMPDEST NOT DUP1 DUP4 AND SWAP2 POP POP SWAP3 SWAP2 POP POP JUMP JUMPDEST PUSH0 PUSH2 0x5F3 DUP4 DUP4 PUSH2 0x5CC JUMP JUMPDEST SWAP2 POP DUP3 PUSH1 0x2 MUL DUP3 OR SWAP1 POP SWAP3 SWAP2 POP POP JUMP JUMPDEST PUSH2 0x60D DUP4 DUP4 PUSH2 0x3D2 JUMP JUMPDEST PUSH8 0xFFFFFFFFFFFFFFFF DUP2 GT ISZERO PUSH2 0x626 JUMPI PUSH2 0x625 PUSH2 0x3DC JUMP JUMPDEST JUMPDEST PUSH2 0x630 DUP3 SLOAD PUSH2 0x436 JUMP JUMPDEST PUSH2 0x63B DUP3 DUP3 DUP6 PUSH2 0x57A JUMP JUMPDEST PUSH0 PUSH1 0x1F DUP4 GT PUSH1 0x1 DUP2 EQ PUSH2 0x668 JUMPI PUSH0 DUP5 ISZERO PUSH2 0x656 JUMPI DUP3 DUP8 ADD CALLDATALOAD SWAP1 POP JUMPDEST PUSH2 0x660 DUP6 DUP3 PUSH2 0x5E8 JUMP JUMPDEST DUP7 SSTORE POP PUSH2 0x6C7 JUMP JUMPDEST PUSH1 0x1F NOT DUP5 AND PUSH2 0x676 DUP7 PUSH2 0x466 JUMP JUMPDEST PUSH0 JUMPDEST DUP3 DUP2 LT ISZERO PUSH2 0x69D JUMPI DUP5 DUP10 ADD CALLDATALOAD DUP3 SSTORE PUSH1 0x1 DUP3 ADD SWAP2 POP PUSH1 0x20 DUP6 ADD SWAP5 POP PUSH1 0x20 DUP2 ADD SWAP1 POP PUSH2 0x678 JUMP JUMPDEST DUP7 DUP4 LT ISZERO PUSH2 0x6BA JUMPI DUP5 DUP10 ADD CALLDATALOAD PUSH2 0x6B6 PUSH1 0x1F DUP10 AND DUP3 PUSH2 0x5CC JUMP JUMPDEST DUP4 SSTORE POP JUMPDEST PUSH1 0x1 PUSH1 0x2 DUP9 MUL ADD DUP9 SSTORE POP POP POP JUMPDEST POP POP POP POP POP POP POP JUMP INVALID LOG2 PUSH5 0x6970667358 0x22 SLT KECCAK256 0xC6 EQ PUSH32 0x66A394D0B323E1C307DE1008A2D14458027152834BE7BC127891B993F264736F PUSH13 0x634300081A0033000000000000 "
				},
				"gasEstimates": {
					"creation": {
						"codeDepositCost": "359600",
						"executionCost": "397",
						"totalCost": "359997"
					},
					"external": {
						"fragments(uint256)": "infinite",
						"read(uint256)": "infinite",
						"store(uint256,string)": "infinite"
					}
				},
				"methodIdentifiers": {
					"fragments(uint256)": "ff6e5334",
					"read(uint256)": "ed2e5a97",
					"store(uint256,string)": "e1ff178a"
				}
			},
			"storageLayout": {
				"storage": [
					{
						"astId": 5,
						"contract": "F/Fragmentation/InsecureFragmentStorage.sol:InsecureFragmentStorage",
						"label": "fragments",
						"offset": 0,
						"slot": "0",
						"type": "t_mapping(t_uint256,t_string_storage)"
					}
				],
				"types": {
					"t_mapping(t_uint256,t_string_storage)": {
						"encoding": "mapping",
						"key": "t_uint256",
						"label": "mapping(uint256 => string)",
						"numberOfBytes": "32",
						"value": "t_string_storage"
					},
					"t_string_storage": {
						"encoding": "bytes",
						"label": "string",
						"numberOfBytes": "32"
					},
					"t_uint256": {
						"encoding": "inplace",
						"label": "uint256",
						"numberOfBytes": "32"
					}
				}
			},
			"userdoc": {
				"kind": "user",
				"methods": {},
				"version": 1
			}
		}
	}
}