{
	"data": {
		"bytecode": {
			"linkReferences": {},
			"object": "6080604052348015600e575f80fd5b506103968061001c5f395ff3fe608060405234801561000f575f80fd5b5060043610610038575f3560e01c806311496bcf146100f8578063baa1e15e1461012857610039565b5b5f8080357fffffffff00000000000000000000000000000000000000000000000000000000167bffffffffffffffffffffffffffffffffffffffffffffffffffffffff19167bffffffffffffffffffffffffffffffffffffffffffffffffffffffff191681526020019081526020015f205f9054906101000a900460ff166100f6576040517f08c379a00000000000000000000000000000000000000000000000000000000081526004016100ed90610223565b60405180910390fd5b005b610112600480360381019061010d919061029a565b610144565b60405161011f91906102df565b60405180910390f35b610142600480360381019061013d9190610322565b610160565b005b5f602052805f5260405f205f915054906101000a900460ff1681565b805f80847bffffffffffffffffffffffffffffffffffffffffffffffffffffffff19167bffffffffffffffffffffffffffffffffffffffffffffffffffffffff191681526020019081526020015f205f6101000a81548160ff0219169083151502179055505050565b5f82825260208201905092915050565b7f556e6b6e6f776e2073656c6563746f72000000000000000000000000000000005f82015250565b5f61020d6010836101c9565b9150610218826101d9565b602082019050919050565b5f6020820190508181035f83015261023a81610201565b9050919050565b5f80fd5b5f7fffffffff0000000000000000000000000000000000000000000000000000000082169050919050565b61027981610245565b8114610283575f80fd5b50565b5f8135905061029481610270565b92915050565b5f602082840312156102af576102ae610241565b5b5f6102bc84828501610286565b91505092915050565b5f8115159050919050565b6102d9816102c5565b82525050565b5f6020820190506102f25f8301846102d0565b92915050565b610301816102c5565b811461030b575f80fd5b50565b5f8135905061031c816102f8565b92915050565b5f806040838503121561033857610337610241565b5b5f61034585828601610286565b92505060206103568582860161030e565b915050925092905056fea2646970667358221220a530256f7e8776d3749f0310c950af71b7aaa76dec3234c60e3ca3b4c5dc9a1b64736f6c634300081a0033",
			"opcodes": "PUSH1 0x80 PUSH1 0x40 MSTORE CALLVALUE DUP1 ISZERO PUSH1 0xE JUMPI PUSH0 DUP1 REVERT JUMPDEST POP PUSH2 0x396 DUP1 PUSH2 0x1C PUSH0 CODECOPY PUSH0 RETURN INVALID PUSH1 0x80 PUSH1 0x40 MSTORE CALLVALUE DUP1 ISZERO PUSH2 0xF JUMPI PUSH0 DUP1 REVERT JUMPDEST POP PUSH1 0x4 CALLDATASIZE LT PUSH2 0x38 JUMPI PUSH0 CALLDATALOAD PUSH1 0xE0 SHR DUP1 PUSH4 0x11496BCF EQ PUSH2 0xF8 JUMPI DUP1 PUSH4 0xBAA1E15E EQ PUSH2 0x128 JUMPI PUSH2 0x39 JUMP JUMPDEST JUMPDEST PUSH0 DUP1 DUP1 CALLDATALOAD PUSH32 0xFFFFFFFF00000000000000000000000000000000000000000000000000000000 AND PUSH28 0xFFFFFFFFFFFFFFFFFFFFFFFFFFFFFFFFFFFFFFFFFFFFFFFFFFFFFFFF NOT AND PUSH28 0xFFFFFFFFFFFFFFFFFFFFFFFFFFFFFFFFFFFFFFFFFFFFFFFFFFFFFFFF NOT AND DUP2 MSTORE PUSH1 0x20 ADD SWAP1 DUP2 MSTORE PUSH1 0x20 ADD PUSH0 KECCAK256 PUSH0 SWAP1 SLOAD SWAP1 PUSH2 0x100 EXP SWAP1 DIV PUSH1 0xFF AND PUSH2 0xF6 JUMPI PUSH1 0x40 MLOAD PUSH32 0x8C379A000000000000000000000000000000000000000000000000000000000 DUP2 MSTORE PUSH1 0x4 ADD PUSH2 0xED SWAP1 PUSH2 0x223 JUMP JUMPDEST PUSH1 0x40 MLOAD DUP1 SWAP2 SUB SWAP1 REVERT JUMPDEST STOP JUMPDEST PUSH2 0x112 PUSH1 0x4 DUP1 CALLDATASIZE SUB DUP2 ADD SWAP1 PUSH2 0x10D SWAP2 SWAP1 PUSH2 0x29A JUMP JUMPDEST PUSH2 0x144 JUMP JUMPDEST PUSH1 0x40 MLOAD PUSH2 0x11F SWAP2 SWAP1 PUSH2 0x2DF JUMP JUMPDEST PUSH1 0x40 MLOAD DUP1 SWAP2 SUB SWAP1 RETURN JUMPDEST PUSH2 0x142 PUSH1 0x4 DUP1 CALLDATASIZE SUB DUP2 ADD SWAP1 PUSH2 0x13D SWAP2 SWAP1 PUSH2 0x322 JUMP JUMPDEST PUSH2 0x160 JUMP JUMPDEST STOP JUMPDEST PUSH0 PUSH1 0x20 MSTORE DUP1 PUSH0 MSTORE PUSH1 0x40 PUSH0 KECCAK256 PUSH0 SWAP2 POP SLOAD SWAP1 PUSH2 0x100 EXP SWAP1 DIV PUSH1 0xFF AND DUP2 JUMP JUMPDEST DUP1 PUSH0 DUP1 DUP5 PUSH28 0xFFFFFFFFFFFFFFFFFFFFFFFFFFFFFFFFFFFFFFFFFFFFFFFFFFFFFFFF NOT AND PUSH28 0xFFFFFFFFFFFFFFFFFFFFFFFFFFFFFFFFFFFFFFFFFFFFFFFFFFFFFFFF NOT AND DUP2 MSTORE PUSH1 0x20 ADD SWAP1 DUP2 MSTORE PUSH1 0x20 ADD PUSH0 KECCAK256 PUSH0 PUSH2 0x100 EXP DUP2 SLOAD DUP2 PUSH1 0xFF MUL NOT AND SWAP1 DUP4 ISZERO ISZERO MUL OR SWAP1 SSTORE POP POP POP JUMP JUMPDEST PUSH0 DUP3 DUP3 MSTORE PUSH1 0x20 DUP3 ADD SWAP1 POP SWAP3 SWAP2 POP POP JUMP JUMPDEST PUSH32 0x556E6B6E6F776E2073656C6563746F7200000000000000000000000000000000 PUSH0 DUP3 ADD MSTORE POP JUMP JUMPDEST PUSH0 PUSH2 0x20D PUSH1 0x10 DUP4 PUSH2 0x1C9 JUMP JUMPDEST SWAP2 POP PUSH2 0x218 DUP3 PUSH2 0x1D9 JUMP JUMPDEST PUSH1 0x20 DUP3 ADD SWAP1 POP SWAP2 SWAP1 POP JUMP JUMPDEST PUSH0 PUSH1 0x20 DUP3 ADD SWAP1 POP DUP2 DUP2 SUB PUSH0 DUP4 ADD MSTORE PUSH2 0x23A DUP2 PUSH2 0x201 JUMP JUMPDEST SWAP1 POP SWAP2 SWAP1 POP JUMP JUMPDEST PUSH0 DUP1 REVERT JUMPDEST PUSH0 PUSH32 0xFFFFFFFF00000000000000000000000000000000000000000000000000000000 DUP3 AND SWAP1 POP SWAP2 SWAP1 POP JUMP JUMPDEST PUSH2 0x279 DUP2 PUSH2 0x245 JUMP JUMPDEST DUP2 EQ PUSH2 0x283 JUMPI PUSH0 DUP1 REVERT JUMPDEST POP JUMP JUMPDEST PUSH0 DUP2 CALLDATALOAD SWAP1 POP PUSH2 0x294 DUP2 PUSH2 0x270 JUMP JUMPDEST SWAP3 SWAP2 POP POP JUMP JUMPDEST PUSH0 PUSH1 0x20 DUP3 DUP5 SUB SLT ISZERO PUSH2 0x2AF JUMPI PUSH2 0x2AE PUSH2 0x241 JUMP JUMPDEST JUMPDEST PUSH0 PUSH2 0x2BC DUP5 DUP3 DUP6 ADD PUSH2 0x286 JUMP JUMPDEST SWAP2 POP POP SWAP3 SWAP2 POP POP JUMP JUMPDEST PUSH0 DUP2 ISZERO ISZERO SWAP1 POP SWAP2 SWAP1 POP JUMP JUMPDEST PUSH2 0x2D9 DUP2 PUSH2 0x2C5 JUMP JUMPDEST DUP3 MSTORE POP POP JUMP JUMPDEST PUSH0 PUSH1 0x20 DUP3 ADD SWAP1 POP PUSH2 0x2F2 PUSH0 DUP4 ADD DUP5 PUSH2 0x2D0 JUMP JUMPDEST SWAP3 SWAP2 POP POP JUMP JUMPDEST PUSH2 0x301 DUP2 PUSH2 0x2C5 JUMP JUMPDEST DUP2 EQ PUSH2 0x30B JUMPI PUSH0 DUP1 REVERT JUMPDEST POP JUMP JUMPDEST PUSH0 DUP2 CALLDATALOAD SWAP1 POP PUSH2 0x31C DUP2 PUSH2 0x2F8 JUMP JUMPDEST SWAP3 SWAP2 POP POP JUMP JUMPDEST PUSH0 DUP1 PUSH1 0x40 DUP4 DUP6 SUB SLT ISZERO PUSH2 0x338 JUMPI PUSH2 0x337 PUSH2 0x241 JUMP JUMPDEST JUMPDEST PUSH0 PUSH2 0x345 DUP6 DUP3 DUP7 ADD PUSH2 0x286 JUMP JUMPDEST SWAP3 POP POP PUSH1 0x20 PUSH2 0x356 DUP6 DUP3 DUP7 ADD PUSH2 0x30E JUMP JUMPDEST SWAP2 POP POP SWAP3 POP SWAP3 SWAP1 POP JUMP INVALID LOG2 PUSH5 0x6970667358 0x22 SLT KECCAK256 0xA5 ADDRESS 0x25 PUSH16 0x7E8776D3749F0310C950AF71B7AAA76D 0xEC ORIGIN CALLVALUE 0xC6 0xE EXTCODECOPY LOG3 0xB4 0xC5 0xDC SWAP11 SHL PUSH5 0x736F6C6343 STOP ADDMOD BYTE STOP CALLER "
		},
		"gasEstimates": {
			"creation": {
				"codeDepositCost": "183600",
				"executionCost": "224",
				"totalCost": "183824"
			},
			"external": {
				"": "2678",
				"approved(bytes4)": "2768",
				"set(bytes4,bool)": "24944"
			}
		},
		"methodIdentifiers": {
			"approved(bytes4)": "11496bcf",
			"set(bytes4,bool)": "baa1e15e"
		}
	},
	"abi": [
		{
			"stateMutability": "nonpayable",
			"type": "fallback"
		},
		{
			"inputs": [
				{
					"internalType": "bytes4",
					"name": "",
					"type": "bytes4"
				}
			],
			"name": "approved",
			"outputs": [
				{
					"internalType": "bool",
					"name": "",
					"type": "bool"
				}
			],
			"stateMutability": "view",
			"type": "function"
		},
		{
			"inputs": [
				{
					"internalType": "bytes4",
					"name": "s",
					"type": "bytes4"
				},
				{
					"internalType": "bool",
					"name": "ok",
					"type": "bool"
				}
			],
			"name": "set",
			"outputs": [],
			"stateMutability": "nonpayable",
			"type": "function"
		}
	]
}