{
	"R/Risk/TimeNonceDriftRisk.sol": {
		"TimeRiskAnalyzer": {
			"abi": [
				{
					"inputs": [
						{
							"internalType": "address",
							"name": "",
							"type": "address"
						}
					],
					"name": "lastActionBlock",
					"outputs": [
						{
							"internalType": "uint256",
							"name": "",
							"type": "uint256"
						}
					],
					"stateMutability": "view",
					"type": "function"
				},
				{
					"inputs": [],
					"name": "riskyAction",
					"outputs": [],
					"stateMutability": "nonpayable",
					"type": "function"
				}
			],
			"devdoc": {
				"kind": "dev",
				"methods": {},
				"version": 1
			},
			"evm": {
				"assembly": "    /* \"R/Risk/TimeNonceDriftRisk.sol\":0:265  contract TimeRiskAnalyzer {... */\n  mstore(0x40, 0x80)\n  callvalue\n  dup1\n  iszero\n  tag_1\n  jumpi\n  0x00\n  dup1\n  revert\ntag_1:\n  pop\n  dataSize(sub_0)\n  dup1\n  dataOffset(sub_0)\n  0x00\n  codecopy\n  0x00\n  return\nstop\n\nsub_0: assembly {\n        /* \"R/Risk/TimeNonceDriftRisk.sol\":0:265  contract TimeRiskAnalyzer {... */\n      mstore(0x40, 0x80)\n      callvalue\n      dup1\n      iszero\n      tag_1\n      jumpi\n      0x00\n      dup1\n      revert\n    tag_1:\n      pop\n      jumpi(tag_2, lt(calldatasize, 0x04))\n      shr(0xe0, calldataload(0x00))\n      dup1\n      0x24ee5458\n      eq\n      tag_3\n      jumpi\n      dup1\n      0xe5d84527\n      eq\n      tag_4\n      jumpi\n    tag_2:\n      0x00\n      dup1\n      revert\n        /* \"R/Risk/TimeNonceDriftRisk.sol\":89:263  function riskyAction() external {... */\n    tag_3:\n      tag_5\n      tag_6\n      jump\t// in\n    tag_5:\n      stop\n        /* \"R/Risk/TimeNonceDriftRisk.sol\":32:82  mapping(address => uint256) public lastActionBlock */\n    tag_4:\n      tag_7\n      0x04\n      dup1\n      calldatasize\n      sub\n      dup2\n      add\n      swap1\n      tag_8\n      swap2\n      swap1\n      tag_9\n      jump\t// in\n    tag_8:\n      tag_10\n      jump\t// in\n    tag_7:\n      mload(0x40)\n      tag_11\n      swap2\n      swap1\n      tag_12\n      jump\t// in\n    tag_11:\n      mload(0x40)\n      dup1\n      swap2\n      sub\n      swap1\n      return\n        /* \"R/Risk/TimeNonceDriftRisk.sol\":89:263  function riskyAction() external {... */\n    tag_6:\n        /* \"R/Risk/TimeNonceDriftRisk.sol\":154:169  lastActionBlock */\n      0x00\n        /* \"R/Risk/TimeNonceDriftRisk.sol\":154:181  lastActionBlock[msg.sender] */\n      dup1\n        /* \"R/Risk/TimeNonceDriftRisk.sol\":170:180  msg.sender */\n      caller\n        /* \"R/Risk/TimeNonceDriftRisk.sol\":154:181  lastActionBlock[msg.sender] */\n      0xffffffffffffffffffffffffffffffffffffffff\n      and\n      0xffffffffffffffffffffffffffffffffffffffff\n      and\n      dup2\n      mstore\n      0x20\n      add\n      swap1\n      dup2\n      mstore\n      0x20\n      add\n      0x00\n      keccak256\n      sload\n        /* \"R/Risk/TimeNonceDriftRisk.sol\":139:151  block.number */\n      number\n        /* \"R/Risk/TimeNonceDriftRisk.sol\":139:181  block.number > lastActionBlock[msg.sender] */\n      gt\n        /* \"R/Risk/TimeNonceDriftRisk.sol\":131:204  require(block.number > lastActionBlock[msg.sender], \"Drift exploit risk\") */\n      tag_14\n      jumpi\n      mload(0x40)\n      0x08c379a000000000000000000000000000000000000000000000000000000000\n      dup2\n      mstore\n      0x04\n      add\n      tag_15\n      swap1\n      tag_16\n      jump\t// in\n    tag_15:\n      mload(0x40)\n      dup1\n      swap2\n      sub\n      swap1\n      revert\n    tag_14:\n        /* \"R/Risk/TimeNonceDriftRisk.sol\":244:256  block.number */\n      number\n        /* \"R/Risk/TimeNonceDriftRisk.sol\":214:229  lastActionBlock */\n      0x00\n        /* \"R/Risk/TimeNonceDriftRisk.sol\":214:241  lastActionBlock[msg.sender] */\n      dup1\n        /* \"R/Risk/TimeNonceDriftRisk.sol\":230:240  msg.sender */\n      caller\n        /* \"R/Risk/TimeNonceDriftRisk.sol\":214:241  lastActionBlock[msg.sender] */\n      0xffffffffffffffffffffffffffffffffffffffff\n      and\n      0xffffffffffffffffffffffffffffffffffffffff\n      and\n      dup2\n      mstore\n      0x20\n      add\n      swap1\n      dup2\n      mstore\n      0x20\n      add\n      0x00\n      keccak256\n        /* \"R/Risk/TimeNonceDriftRisk.sol\":214:256  lastActionBlock[msg.sender] = block.number */\n      dup2\n      swap1\n      sstore\n      pop\n        /* \"R/Risk/TimeNonceDriftRisk.sol\":89:263  function riskyAction() external {... */\n      jump\t// out\n        /* \"R/Risk/TimeNonceDriftRisk.sol\":32:82  mapping(address => uint256) public lastActionBlock */\n    tag_10:\n      mstore(0x20, 0x00)\n      dup1\n      0x00\n      mstore\n      keccak256(0x00, 0x40)\n      0x00\n      swap2\n      pop\n      swap1\n      pop\n      sload\n      dup2\n      jump\t// out\n        /* \"#utility.yul\":88:205   */\n    tag_18:\n        /* \"#utility.yul\":197:198   */\n      0x00\n        /* \"#utility.yul\":194:195   */\n      dup1\n        /* \"#utility.yul\":187:199   */\n      revert\n        /* \"#utility.yul\":334:460   */\n    tag_20:\n        /* \"#utility.yul\":371:378   */\n      0x00\n        /* \"#utility.yul\":411:453   */\n      0xffffffffffffffffffffffffffffffffffffffff\n        /* \"#utility.yul\":404:409   */\n      dup3\n        /* \"#utility.yul\":400:454   */\n      and\n        /* \"#utility.yul\":389:454   */\n      swap1\n      pop\n        /* \"#utility.yul\":334:460   */\n      swap2\n      swap1\n      pop\n      jump\t// out\n        /* \"#utility.yul\":466:562   */\n    tag_21:\n        /* \"#utility.yul\":503:510   */\n      0x00\n        /* \"#utility.yul\":532:556   */\n      tag_35\n        /* \"#utility.yul\":550:555   */\n      dup3\n        /* \"#utility.yul\":532:556   */\n      tag_20\n      jump\t// in\n    tag_35:\n        /* \"#utility.yul\":521:556   */\n      swap1\n      pop\n        /* \"#utility.yul\":466:562   */\n      swap2\n      swap1\n      pop\n      jump\t// out\n        /* \"#utility.yul\":568:690   */\n    tag_22:\n        /* \"#utility.yul\":641:665   */\n      tag_37\n        /* \"#utility.yul\":659:664   */\n      dup2\n        /* \"#utility.yul\":641:665   */\n      tag_21\n      jump\t// in\n    tag_37:\n        /* \"#utility.yul\":634:639   */\n      dup2\n        /* \"#utility.yul\":631:666   */\n      eq\n        /* \"#utility.yul\":621:684   */\n      tag_38\n      jumpi\n        /* \"#utility.yul\":680:681   */\n      0x00\n        /* \"#utility.yul\":677:678   */\n      dup1\n        /* \"#utility.yul\":670:682   */\n      revert\n        /* \"#utility.yul\":621:684   */\n    tag_38:\n        /* \"#utility.yul\":568:690   */\n      pop\n      jump\t// out\n        /* \"#utility.yul\":696:835   */\n    tag_23:\n        /* \"#utility.yul\":742:747   */\n      0x00\n        /* \"#utility.yul\":780:786   */\n      dup2\n        /* \"#utility.yul\":767:787   */\n      calldataload\n        /* \"#utility.yul\":758:787   */\n      swap1\n      pop\n        /* \"#utility.yul\":796:829   */\n      tag_40\n        /* \"#utility.yul\":823:828   */\n      dup2\n        /* \"#utility.yul\":796:829   */\n      tag_22\n      jump\t// in\n    tag_40:\n        /* \"#utility.yul\":696:835   */\n      swap3\n      swap2\n      pop\n      pop\n      jump\t// out\n        /* \"#utility.yul\":841:1170   */\n    tag_9:\n        /* \"#utility.yul\":900:906   */\n      0x00\n        /* \"#utility.yul\":949:951   */\n      0x20\n        /* \"#utility.yul\":937:946   */\n      dup3\n        /* \"#utility.yul\":928:935   */\n      dup5\n        /* \"#utility.yul\":924:947   */\n      sub\n        /* \"#utility.yul\":920:952   */\n      slt\n        /* \"#utility.yul\":917:1036   */\n      iszero\n      tag_42\n      jumpi\n        /* \"#utility.yul\":955:1034   */\n      tag_43\n      tag_18\n      jump\t// in\n    tag_43:\n        /* \"#utility.yul\":917:1036   */\n    tag_42:\n        /* \"#utility.yul\":1075:1076   */\n      0x00\n        /* \"#utility.yul\":1100:1153   */\n      tag_44\n        /* \"#utility.yul\":1145:1152   */\n      dup5\n        /* \"#utility.yul\":1136:1142   */\n      dup3\n        /* \"#utility.yul\":1125:1134   */\n      dup6\n        /* \"#utility.yul\":1121:1143   */\n      add\n        /* \"#utility.yul\":1100:1153   */\n      tag_23\n      jump\t// in\n    tag_44:\n        /* \"#utility.yul\":1090:1153   */\n      swap2\n      pop\n        /* \"#utility.yul\":1046:1163   */\n      pop\n        /* \"#utility.yul\":841:1170   */\n      swap3\n      swap2\n      pop\n      pop\n      jump\t// out\n        /* \"#utility.yul\":1176:1253   */\n    tag_24:\n        /* \"#utility.yul\":1213:1220   */\n      0x00\n        /* \"#utility.yul\":1242:1247   */\n      dup2\n        /* \"#utility.yul\":1231:1247   */\n      swap1\n      pop\n        /* \"#utility.yul\":1176:1253   */\n      swap2\n      swap1\n      pop\n      jump\t// out\n        /* \"#utility.yul\":1259:1377   */\n    tag_25:\n        /* \"#utility.yul\":1346:1370   */\n      tag_47\n        /* \"#utility.yul\":1364:1369   */\n      dup2\n        /* \"#utility.yul\":1346:1370   */\n      tag_24\n      jump\t// in\n    tag_47:\n        /* \"#utility.yul\":1341:1344   */\n      dup3\n        /* \"#utility.yul\":1334:1371   */\n      mstore\n        /* \"#utility.yul\":1259:1377   */\n      pop\n      pop\n      jump\t// out\n        /* \"#utility.yul\":1383:1605   */\n    tag_12:\n        /* \"#utility.yul\":1476:1480   */\n      0x00\n        /* \"#utility.yul\":1514:1516   */\n      0x20\n        /* \"#utility.yul\":1503:1512   */\n      dup3\n        /* \"#utility.yul\":1499:1517   */\n      add\n        /* \"#utility.yul\":1491:1517   */\n      swap1\n      pop\n        /* \"#utility.yul\":1527:1598   */\n      tag_49\n        /* \"#utility.yul\":1595:1596   */\n      0x00\n        /* \"#utility.yul\":1584:1593   */\n      dup4\n        /* \"#utility.yul\":1580:1597   */\n      add\n        /* \"#utility.yul\":1571:1577   */\n      dup5\n        /* \"#utility.yul\":1527:1598   */\n      tag_25\n      jump\t// in\n    tag_49:\n        /* \"#utility.yul\":1383:1605   */\n      swap3\n      swap2\n      pop\n      pop\n      jump\t// out\n        /* \"#utility.yul\":1611:1780   */\n    tag_26:\n        /* \"#utility.yul\":1695:1706   */\n      0x00\n        /* \"#utility.yul\":1729:1735   */\n      dup3\n        /* \"#utility.yul\":1724:1727   */\n      dup3\n        /* \"#utility.yul\":1717:1736   */\n      mstore\n        /* \"#utility.yul\":1769:1773   */\n      0x20\n        /* \"#utility.yul\":1764:1767   */\n      dup3\n        /* \"#utility.yul\":1760:1774   */\n      add\n        /* \"#utility.yul\":1745:1774   */\n      swap1\n      pop\n        /* \"#utility.yul\":1611:1780   */\n      swap3\n      swap2\n      pop\n      pop\n      jump\t// out\n        /* \"#utility.yul\":1786:1954   */\n    tag_27:\n        /* \"#utility.yul\":1926:1946   */\n      0x4472696674206578706c6f6974207269736b0000000000000000000000000000\n        /* \"#utility.yul\":1922:1923   */\n      0x00\n        /* \"#utility.yul\":1914:1920   */\n      dup3\n        /* \"#utility.yul\":1910:1924   */\n      add\n        /* \"#utility.yul\":1903:1947   */\n      mstore\n        /* \"#utility.yul\":1786:1954   */\n      pop\n      jump\t// out\n        /* \"#utility.yul\":1960:2326   */\n    tag_28:\n        /* \"#utility.yul\":2102:2105   */\n      0x00\n        /* \"#utility.yul\":2123:2190   */\n      tag_53\n        /* \"#utility.yul\":2187:2189   */\n      0x12\n        /* \"#utility.yul\":2182:2185   */\n      dup4\n        /* \"#utility.yul\":2123:2190   */\n      tag_26\n      jump\t// in\n    tag_53:\n        /* \"#utility.yul\":2116:2190   */\n      swap2\n      pop\n        /* \"#utility.yul\":2199:2292   */\n      tag_54\n        /* \"#utility.yul\":2288:2291   */\n      dup3\n        /* \"#utility.yul\":2199:2292   */\n      tag_27\n      jump\t// in\n    tag_54:\n        /* \"#utility.yul\":2317:2319   */\n      0x20\n        /* \"#utility.yul\":2312:2315   */\n      dup3\n        /* \"#utility.yul\":2308:2320   */\n      add\n        /* \"#utility.yul\":2301:2320   */\n      swap1\n      pop\n        /* \"#utility.yul\":1960:2326   */\n      swap2\n      swap1\n      pop\n      jump\t// out\n        /* \"#utility.yul\":2332:2751   */\n    tag_16:\n        /* \"#utility.yul\":2498:2502   */\n      0x00\n        /* \"#utility.yul\":2536:2538   */\n      0x20\n        /* \"#utility.yul\":2525:2534   */\n      dup3\n        /* \"#utility.yul\":2521:2539   */\n      add\n        /* \"#utility.yul\":2513:2539   */\n      swap1\n      pop\n        /* \"#utility.yul\":2585:2594   */\n      dup2\n        /* \"#utility.yul\":2579:2583   */\n      dup2\n        /* \"#utility.yul\":2575:2595   */\n      sub\n        /* \"#utility.yul\":2571:2572   */\n      0x00\n        /* \"#utility.yul\":2560:2569   */\n      dup4\n        /* \"#utility.yul\":2556:2573   */\n      add\n        /* \"#utility.yul\":2549:2596   */\n      mstore\n        /* \"#utility.yul\":2613:2744   */\n      tag_56\n        /* \"#utility.yul\":2739:2743   */\n      dup2\n        /* \"#utility.yul\":2613:2744   */\n      tag_28\n      jump\t// in\n    tag_56:\n        /* \"#utility.yul\":2605:2744   */\n      swap1\n      pop\n        /* \"#utility.yul\":2332:2751   */\n      swap2\n      swap1\n      pop\n      jump\t// out\n\n    auxdata: 0xa26469706673582212208095306741e93e6e761c293cc21d56460492d74c2a7d79f07f533e51edffffc164736f6c634300081a0033\n}\n",
				"bytecode": {
					"linkReferences": {},
					"object": "6080604052348015600e575f80fd5b506102af8061001c5f395ff3fe608060405234801561000f575f80fd5b5060043610610034575f3560e01c806324ee545814610038578063e5d8452714610042575b5f80fd5b610040610072565b005b61005c600480360381019061005791906101a5565b610133565b60405161006991906101e8565b60405180910390f35b5f803373ffffffffffffffffffffffffffffffffffffffff1673ffffffffffffffffffffffffffffffffffffffff1681526020019081526020015f205443116100f0576040517f08c379a00000000000000000000000000000000000000000000000000000000081526004016100e79061025b565b60405180910390fd5b435f803373ffffffffffffffffffffffffffffffffffffffff1673ffffffffffffffffffffffffffffffffffffffff1681526020019081526020015f2081905550565b5f602052805f5260405f205f915090505481565b5f80fd5b5f73ffffffffffffffffffffffffffffffffffffffff82169050919050565b5f6101748261014b565b9050919050565b6101848161016a565b811461018e575f80fd5b50565b5f8135905061019f8161017b565b92915050565b5f602082840312156101ba576101b9610147565b5b5f6101c784828501610191565b91505092915050565b5f819050919050565b6101e2816101d0565b82525050565b5f6020820190506101fb5f8301846101d9565b92915050565b5f82825260208201905092915050565b7f4472696674206578706c6f6974207269736b00000000000000000000000000005f82015250565b5f610245601283610201565b915061025082610211565b602082019050919050565b5f6020820190508181035f83015261027281610239565b905091905056fea26469706673582212208095306741e93e6e761c293cc21d56460492d74c2a7d79f07f533e51edffffc164736f6c634300081a0033",
					"opcodes": "PUSH1 0x80 PUSH1 0x40 MSTORE CALLVALUE DUP1 ISZERO PUSH1 0xE JUMPI PUSH0 DUP1 REVERT JUMPDEST POP PUSH2 0x2AF DUP1 PUSH2 0x1C PUSH0 CODECOPY PUSH0 RETURN INVALID PUSH1 0x80 PUSH1 0x40 MSTORE CALLVALUE DUP1 ISZERO PUSH2 0xF JUMPI PUSH0 DUP1 REVERT JUMPDEST POP PUSH1 0x4 CALLDATASIZE LT PUSH2 0x34 JUMPI PUSH0 CALLDATALOAD PUSH1 0xE0 SHR DUP1 PUSH4 0x24EE5458 EQ PUSH2 0x38 JUMPI DUP1 PUSH4 0xE5D84527 EQ PUSH2 0x42 JUMPI JUMPDEST PUSH0 DUP1 REVERT JUMPDEST PUSH2 0x40 PUSH2 0x72 JUMP JUMPDEST STOP JUMPDEST PUSH2 0x5C PUSH1 0x4 DUP1 CALLDATASIZE SUB DUP2 ADD SWAP1 PUSH2 0x57 SWAP2 SWAP1 PUSH2 0x1A5 JUMP JUMPDEST PUSH2 0x133 JUMP JUMPDEST PUSH1 0x40 MLOAD PUSH2 0x69 SWAP2 SWAP1 PUSH2 0x1E8 JUMP JUMPDEST PUSH1 0x40 MLOAD DUP1 SWAP2 SUB SWAP1 RETURN JUMPDEST PUSH0 DUP1 CALLER PUSH20 0xFFFFFFFFFFFFFFFFFFFFFFFFFFFFFFFFFFFFFFFF AND PUSH20 0xFFFFFFFFFFFFFFFFFFFFFFFFFFFFFFFFFFFFFFFF AND DUP2 MSTORE PUSH1 0x20 ADD SWAP1 DUP2 MSTORE PUSH1 0x20 ADD PUSH0 KECCAK256 SLOAD NUMBER GT PUSH2 0xF0 JUMPI PUSH1 0x40 MLOAD PUSH32 0x8C379A000000000000000000000000000000000000000000000000000000000 DUP2 MSTORE PUSH1 0x4 ADD PUSH2 0xE7 SWAP1 PUSH2 0x25B JUMP JUMPDEST PUSH1 0x40 MLOAD DUP1 SWAP2 SUB SWAP1 REVERT JUMPDEST NUMBER PUSH0 DUP1 CALLER PUSH20 0xFFFFFFFFFFFFFFFFFFFFFFFFFFFFFFFFFFFFFFFF AND PUSH20 0xFFFFFFFFFFFFFFFFFFFFFFFFFFFFFFFFFFFFFFFF AND DUP2 MSTORE PUSH1 0x20 ADD SWAP1 DUP2 MSTORE PUSH1 0x20 ADD PUSH0 KECCAK256 DUP2 SWAP1 SSTORE POP JUMP JUMPDEST PUSH0 PUSH1 0x20 MSTORE DUP1 PUSH0 MSTORE PUSH1 0x40 PUSH0 KECCAK256 PUSH0 SWAP2 POP SWAP1 POP SLOAD DUP2 JUMP JUMPDEST PUSH0 DUP1 REVERT JUMPDEST PUSH0 PUSH20 0xFFFFFFFFFFFFFFFFFFFFFFFFFFFFFFFFFFFFFFFF DUP3 AND SWAP1 POP SWAP2 SWAP1 POP JUMP JUMPDEST PUSH0 PUSH2 0x174 DUP3 PUSH2 0x14B JUMP JUMPDEST SWAP1 POP SWAP2 SWAP1 POP JUMP JUMPDEST PUSH2 0x184 DUP2 PUSH2 0x16A JUMP JUMPDEST DUP2 EQ PUSH2 0x18E JUMPI PUSH0 DUP1 REVERT JUMPDEST POP JUMP JUMPDEST PUSH0 DUP2 CALLDATALOAD SWAP1 POP PUSH2 0x19F DUP2 PUSH2 0x17B JUMP JUMPDEST SWAP3 SWAP2 POP POP JUMP JUMPDEST PUSH0 PUSH1 0x20 DUP3 DUP5 SUB SLT ISZERO PUSH2 0x1BA JUMPI PUSH2 0x1B9 PUSH2 0x147 JUMP JUMPDEST JUMPDEST PUSH0 PUSH2 0x1C7 DUP5 DUP3 DUP6 ADD PUSH2 0x191 JUMP JUMPDEST SWAP2 POP POP SWAP3 SWAP2 POP POP JUMP JUMPDEST PUSH0 DUP2 SWAP1 POP SWAP2 SWAP1 POP JUMP JUMPDEST PUSH2 0x1E2 DUP2 PUSH2 0x1D0 JUMP JUMPDEST DUP3 MSTORE POP POP JUMP JUMPDEST PUSH0 PUSH1 0x20 DUP3 ADD SWAP1 POP PUSH2 0x1FB PUSH0 DUP4 ADD DUP5 PUSH2 0x1D9 JUMP JUMPDEST SWAP3 SWAP2 POP POP JUMP JUMPDEST PUSH0 DUP3 DUP3 MSTORE PUSH1 0x20 DUP3 ADD SWAP1 POP SWAP3 SWAP2 POP POP JUMP JUMPDEST PUSH32 0x4472696674206578706C6F6974207269736B0000000000000000000000000000 PUSH0 DUP3 ADD MSTORE POP JUMP JUMPDEST PUSH0 PUSH2 0x245 PUSH1 0x12 DUP4 PUSH2 0x201 JUMP JUMPDEST SWAP2 POP PUSH2 0x250 DUP3 PUSH2 0x211 JUMP JUMPDEST PUSH1 0x20 DUP3 ADD SWAP1 POP SWAP2 SWAP1 POP JUMP JUMPDEST PUSH0 PUSH1 0x20 DUP3 ADD SWAP1 POP DUP2 DUP2 SUB PUSH0 DUP4 ADD MSTORE PUSH2 0x272 DUP2 PUSH2 0x239 JUMP JUMPDEST SWAP1 POP SWAP2 SWAP1 POP JUMP INVALID LOG2 PUSH5 0x6970667358 0x22 SLT KECCAK256 DUP1 SWAP6 ADDRESS PUSH8 0x41E93E6E761C293C 0xC2 SAR JUMP CHAINID DIV SWAP3 0xD7 0x4C 0x2A PUSH30 0x79F07F533E51EDFFFFC164736F6C634300081A0033000000000000000000 "
				},
				"gasEstimates": {
					"creation": {
						"codeDepositCost": "137400",
						"executionCost": "181",
						"totalCost": "137581"
					},
					"external": {
						"lastActionBlock(address)": "2801",
						"riskyAction()": "24530"
					}
				},
				"methodIdentifiers": {
					"lastActionBlock(address)": "e5d84527",
					"riskyAction()": "24ee5458"
				}
			},
			"storageLayout": {
				"storage": [
					{
						"astId": 4,
						"contract": "R/Risk/TimeNonceDriftRisk.sol:TimeRiskAnalyzer",
						"label": "lastActionBlock",
						"offset": 0,
						"slot": "0",
						"type": "t_mapping(t_address,t_uint256)"
					}
				],
				"types": {
					"t_address": {
						"encoding": "inplace",
						"label": "address",
						"numberOfBytes": "20"
					},
					"t_mapping(t_address,t_uint256)": {
						"encoding": "mapping",
						"key": "t_address",
						"label": "mapping(address => uint256)",
						"numberOfBytes": "32",
						"value": "t_uint256"
					},
					"t_uint256": {
						"encoding": "inplace",
						"label": "uint256",
						"numberOfBytes": "32"
					}
				}
			},
			"userdoc": {
				"kind": "user",
				"methods": {},
				"version": 1
			}
		}
	}
}