{
	"P/Polyinstantiation/Polyinstantiation.sol": {
		"VersionState": {
			"abi": [
				{
					"inputs": [
						{
							"internalType": "string",
							"name": "d",
							"type": "string"
						},
						{
							"internalType": "uint256",
							"name": "blockNumber",
							"type": "uint256"
						}
					],
					"name": "commit",
					"outputs": [],
					"stateMutability": "nonpayable",
					"type": "function"
				},
				{
					"inputs": [
						{
							"internalType": "bytes32",
							"name": "",
							"type": "bytes32"
						}
					],
					"name": "snapshots",
					"outputs": [
						{
							"internalType": "string",
							"name": "",
							"type": "string"
						}
					],
					"stateMutability": "view",
					"type": "function"
				},
				{
					"inputs": [
						{
							"internalType": "uint256",
							"name": "blockNumber",
							"type": "uint256"
						}
					],
					"name": "viewAt",
					"outputs": [
						{
							"internalType": "string",
							"name": "",
							"type": "string"
						}
					],
					"stateMutability": "view",
					"type": "function"
				}
			],
			"devdoc": {
				"kind": "dev",
				"methods": {},
				"version": 1
			},
			"evm": {
				"assembly": "    /* \"P/Polyinstantiation/Polyinstantiation.sol\":1403:1799  contract VersionState {... */\n  mstore(0x40, 0x80)\n  callvalue\n  dup1\n  iszero\n  tag_1\n  jumpi\n  0x00\n  dup1\n  revert\ntag_1:\n  pop\n  dataSize(sub_0)\n  dup1\n  dataOffset(sub_0)\n  0x00\n  codecopy\n  0x00\n  return\nstop\n\nsub_0: assembly {\n        /* \"P/Polyinstantiation/Polyinstantiation.sol\":1403:1799  contract VersionState {... */\n      mstore(0x40, 0x80)\n      callvalue\n      dup1\n      iszero\n      tag_1\n      jumpi\n      0x00\n      dup1\n      revert\n    tag_1:\n      pop\n      jumpi(tag_2, lt(calldatasize, 0x04))\n      shr(0xe0, calldataload(0x00))\n      dup1\n      0xbcdcea\n      eq\n      tag_3\n      jumpi\n      dup1\n      0x44474400\n      eq\n      tag_4\n      jumpi\n      dup1\n      0xbffa7cb9\n      eq\n      tag_5\n      jumpi\n    tag_2:\n      0x00\n      dup1\n      revert\n        /* \"P/Polyinstantiation/Polyinstantiation.sol\":1481:1641  function commit(string calldata d, uint256 blockNumber) external {... */\n    tag_3:\n      tag_6\n      0x04\n      dup1\n      calldatasize\n      sub\n      dup2\n      add\n      swap1\n      tag_7\n      swap2\n      swap1\n      tag_8\n      jump\t// in\n    tag_7:\n      tag_9\n      jump\t// in\n    tag_6:\n      stop\n        /* \"P/Polyinstantiation/Polyinstantiation.sol\":1431:1474  mapping(bytes32 => string) public snapshots */\n    tag_4:\n      tag_10\n      0x04\n      dup1\n      calldatasize\n      sub\n      dup2\n      add\n      swap1\n      tag_11\n      swap2\n      swap1\n      tag_12\n      jump\t// in\n    tag_11:\n      tag_13\n      jump\t// in\n    tag_10:\n      mload(0x40)\n      tag_14\n      swap2\n      swap1\n      tag_15\n      jump\t// in\n    tag_14:\n      mload(0x40)\n      dup1\n      swap2\n      sub\n      swap1\n      return\n        /* \"P/Polyinstantiation/Polyinstantiation.sol\":1647:1797  function viewAt(uint256 blockNumber) external view returns (string memory) {... */\n    tag_5:\n      tag_16\n      0x04\n      dup1\n      calldatasize\n      sub\n      dup2\n      add\n      swap1\n      tag_17\n      swap2\n      swap1\n      tag_18\n      jump\t// in\n    tag_17:\n      tag_19\n      jump\t// in\n    tag_16:\n      mload(0x40)\n      tag_20\n      swap2\n      swap1\n      tag_15\n      jump\t// in\n    tag_20:\n      mload(0x40)\n      dup1\n      swap2\n      sub\n      swap1\n      return\n        /* \"P/Polyinstantiation/Polyinstantiation.sol\":1481:1641  function commit(string calldata d, uint256 blockNumber) external {... */\n    tag_9:\n        /* \"P/Polyinstantiation/Polyinstantiation.sol\":1556:1565  bytes32 h */\n      0x00\n        /* \"P/Polyinstantiation/Polyinstantiation.sol\":1595:1606  blockNumber */\n      dup2\n        /* \"P/Polyinstantiation/Polyinstantiation.sol\":1578:1607  abi.encodePacked(blockNumber) */\n      add(0x20, mload(0x40))\n      tag_22\n      swap2\n      swap1\n      tag_23\n      jump\t// in\n    tag_22:\n      mload(0x40)\n      0x20\n      dup2\n      dup4\n      sub\n      sub\n      dup2\n      mstore\n      swap1\n      0x40\n      mstore\n        /* \"P/Polyinstantiation/Polyinstantiation.sol\":1568:1608  keccak256(abi.encodePacked(blockNumber)) */\n      dup1\n      mload\n      swap1\n      0x20\n      add\n      keccak256\n        /* \"P/Polyinstantiation/Polyinstantiation.sol\":1556:1608  bytes32 h = keccak256(abi.encodePacked(blockNumber)) */\n      swap1\n      pop\n        /* \"P/Polyinstantiation/Polyinstantiation.sol\":1633:1634  d */\n      dup4\n      dup4\n        /* \"P/Polyinstantiation/Polyinstantiation.sol\":1618:1627  snapshots */\n      0x00\n        /* \"P/Polyinstantiation/Polyinstantiation.sol\":1618:1630  snapshots[h] */\n      dup1\n        /* \"P/Polyinstantiation/Polyinstantiation.sol\":1628:1629  h */\n      dup5\n        /* \"P/Polyinstantiation/Polyinstantiation.sol\":1618:1630  snapshots[h] */\n      dup2\n      mstore\n      0x20\n      add\n      swap1\n      dup2\n      mstore\n      0x20\n      add\n      0x00\n      keccak256\n        /* \"P/Polyinstantiation/Polyinstantiation.sol\":1618:1634  snapshots[h] = d */\n      swap2\n      dup3\n      tag_24\n      swap3\n      swap2\n      swap1\n      tag_25\n      jump\t// in\n    tag_24:\n      pop\n        /* \"P/Polyinstantiation/Polyinstantiation.sol\":1546:1641  {... */\n      pop\n        /* \"P/Polyinstantiation/Polyinstantiation.sol\":1481:1641  function commit(string calldata d, uint256 blockNumber) external {... */\n      pop\n      pop\n      pop\n      jump\t// out\n        /* \"P/Polyinstantiation/Polyinstantiation.sol\":1431:1474  mapping(bytes32 => string) public snapshots */\n    tag_13:\n      mstore(0x20, 0x00)\n      dup1\n      0x00\n      mstore\n      keccak256(0x00, 0x40)\n      0x00\n      swap2\n      pop\n      swap1\n      pop\n      dup1\n      sload\n      tag_26\n      swap1\n      tag_27\n      jump\t// in\n    tag_26:\n      dup1\n      0x1f\n      add\n      0x20\n      dup1\n      swap2\n      div\n      mul\n      0x20\n      add\n      mload(0x40)\n      swap1\n      dup2\n      add\n      0x40\n      mstore\n      dup1\n      swap3\n      swap2\n      swap1\n      dup2\n      dup2\n      mstore\n      0x20\n      add\n      dup3\n      dup1\n      sload\n      tag_28\n      swap1\n      tag_27\n      jump\t// in\n    tag_28:\n      dup1\n      iszero\n      tag_29\n      jumpi\n      dup1\n      0x1f\n      lt\n      tag_30\n      jumpi\n      0x0100\n      dup1\n      dup4\n      sload\n      div\n      mul\n      dup4\n      mstore\n      swap2\n      0x20\n      add\n      swap2\n      jump(tag_29)\n    tag_30:\n      dup3\n      add\n      swap2\n      swap1\n      0x00\n      mstore\n      keccak256(0x00, 0x20)\n      swap1\n    tag_31:\n      dup2\n      sload\n      dup2\n      mstore\n      swap1\n      0x01\n      add\n      swap1\n      0x20\n      add\n      dup1\n      dup4\n      gt\n      tag_31\n      jumpi\n      dup3\n      swap1\n      sub\n      0x1f\n      and\n      dup3\n      add\n      swap2\n    tag_29:\n      pop\n      pop\n      pop\n      pop\n      pop\n      dup2\n      jump\t// out\n        /* \"P/Polyinstantiation/Polyinstantiation.sol\":1647:1797  function viewAt(uint256 blockNumber) external view returns (string memory) {... */\n    tag_19:\n        /* \"P/Polyinstantiation/Polyinstantiation.sol\":1707:1720  string memory */\n      0x60\n        /* \"P/Polyinstantiation/Polyinstantiation.sol\":1739:1748  snapshots */\n      0x00\n        /* \"P/Polyinstantiation/Polyinstantiation.sol\":1739:1790  snapshots[keccak256(abi.encodePacked(blockNumber))] */\n      dup1\n        /* \"P/Polyinstantiation/Polyinstantiation.sol\":1776:1787  blockNumber */\n      dup4\n        /* \"P/Polyinstantiation/Polyinstantiation.sol\":1759:1788  abi.encodePacked(blockNumber) */\n      add(0x20, mload(0x40))\n      tag_33\n      swap2\n      swap1\n      tag_23\n      jump\t// in\n    tag_33:\n      mload(0x40)\n      0x20\n      dup2\n      dup4\n      sub\n      sub\n      dup2\n      mstore\n      swap1\n      0x40\n      mstore\n        /* \"P/Polyinstantiation/Polyinstantiation.sol\":1749:1789  keccak256(abi.encodePacked(blockNumber)) */\n      dup1\n      mload\n      swap1\n      0x20\n      add\n      keccak256\n        /* \"P/Polyinstantiation/Polyinstantiation.sol\":1739:1790  snapshots[keccak256(abi.encodePacked(blockNumber))] */\n      dup2\n      mstore\n      0x20\n      add\n      swap1\n      dup2\n      mstore\n      0x20\n      add\n      0x00\n      keccak256\n        /* \"P/Polyinstantiation/Polyinstantiation.sol\":1732:1790  return snapshots[keccak256(abi.encodePacked(blockNumber))] */\n      dup1\n      sload\n      tag_34\n      swap1\n      tag_27\n      jump\t// in\n    tag_34:\n      dup1\n      0x1f\n      add\n      0x20\n      dup1\n      swap2\n      div\n      mul\n      0x20\n      add\n      mload(0x40)\n      swap1\n      dup2\n      add\n      0x40\n      mstore\n      dup1\n      swap3\n      swap2\n      swap1\n      dup2\n      dup2\n      mstore\n      0x20\n      add\n      dup3\n      dup1\n      sload\n      tag_35\n      swap1\n      tag_27\n      jump\t// in\n    tag_35:\n      dup1\n      iszero\n      tag_36\n      jumpi\n      dup1\n      0x1f\n      lt\n      tag_37\n      jumpi\n      0x0100\n      dup1\n      dup4\n      sload\n      div\n      mul\n      dup4\n      mstore\n      swap2\n      0x20\n      add\n      swap2\n      jump(tag_36)\n    tag_37:\n      dup3\n      add\n      swap2\n      swap1\n      0x00\n      mstore\n      keccak256(0x00, 0x20)\n      swap1\n    tag_38:\n      dup2\n      sload\n      dup2\n      mstore\n      swap1\n      0x01\n      add\n      swap1\n      0x20\n      add\n      dup1\n      dup4\n      gt\n      tag_38\n      jumpi\n      dup3\n      swap1\n      sub\n      0x1f\n      and\n      dup3\n      add\n      swap2\n    tag_36:\n      pop\n      pop\n      pop\n      pop\n      pop\n      swap1\n      pop\n        /* \"P/Polyinstantiation/Polyinstantiation.sol\":1647:1797  function viewAt(uint256 blockNumber) external view returns (string memory) {... */\n      swap2\n      swap1\n      pop\n      jump\t// out\n        /* \"#utility.yul\":88:205   */\n    tag_40:\n        /* \"#utility.yul\":197:198   */\n      0x00\n        /* \"#utility.yul\":194:195   */\n      dup1\n        /* \"#utility.yul\":187:199   */\n      revert\n        /* \"#utility.yul\":211:328   */\n    tag_41:\n        /* \"#utility.yul\":320:321   */\n      0x00\n        /* \"#utility.yul\":317:318   */\n      dup1\n        /* \"#utility.yul\":310:322   */\n      revert\n        /* \"#utility.yul\":334:451   */\n    tag_42:\n        /* \"#utility.yul\":443:444   */\n      0x00\n        /* \"#utility.yul\":440:441   */\n      dup1\n        /* \"#utility.yul\":433:445   */\n      revert\n        /* \"#utility.yul\":457:574   */\n    tag_43:\n        /* \"#utility.yul\":566:567   */\n      0x00\n        /* \"#utility.yul\":563:564   */\n      dup1\n        /* \"#utility.yul\":556:568   */\n      revert\n        /* \"#utility.yul\":580:697   */\n    tag_44:\n        /* \"#utility.yul\":689:690   */\n      0x00\n        /* \"#utility.yul\":686:687   */\n      dup1\n        /* \"#utility.yul\":679:691   */\n      revert\n        /* \"#utility.yul\":717:1270   */\n    tag_45:\n        /* \"#utility.yul\":775:783   */\n      0x00\n        /* \"#utility.yul\":785:791   */\n      dup1\n        /* \"#utility.yul\":835:838   */\n      dup4\n        /* \"#utility.yul\":828:832   */\n      0x1f\n        /* \"#utility.yul\":820:826   */\n      dup5\n        /* \"#utility.yul\":816:833   */\n      add\n        /* \"#utility.yul\":812:839   */\n      slt\n        /* \"#utility.yul\":802:924   */\n      tag_85\n      jumpi\n        /* \"#utility.yul\":843:922   */\n      tag_86\n      tag_42\n      jump\t// in\n    tag_86:\n        /* \"#utility.yul\":802:924   */\n    tag_85:\n        /* \"#utility.yul\":956:962   */\n      dup3\n        /* \"#utility.yul\":943:963   */\n      calldataload\n        /* \"#utility.yul\":933:963   */\n      swap1\n      pop\n        /* \"#utility.yul\":986:1004   */\n      0xffffffffffffffff\n        /* \"#utility.yul\":978:984   */\n      dup2\n        /* \"#utility.yul\":975:1005   */\n      gt\n        /* \"#utility.yul\":972:1089   */\n      iszero\n      tag_87\n      jumpi\n        /* \"#utility.yul\":1008:1087   */\n      tag_88\n      tag_43\n      jump\t// in\n    tag_88:\n        /* \"#utility.yul\":972:1089   */\n    tag_87:\n        /* \"#utility.yul\":1122:1126   */\n      0x20\n        /* \"#utility.yul\":1114:1120   */\n      dup4\n        /* \"#utility.yul\":1110:1127   */\n      add\n        /* \"#utility.yul\":1098:1127   */\n      swap2\n      pop\n        /* \"#utility.yul\":1176:1179   */\n      dup4\n        /* \"#utility.yul\":1168:1172   */\n      0x01\n        /* \"#utility.yul\":1160:1166   */\n      dup3\n        /* \"#utility.yul\":1156:1173   */\n      mul\n        /* \"#utility.yul\":1146:1154   */\n      dup4\n        /* \"#utility.yul\":1142:1174   */\n      add\n        /* \"#utility.yul\":1139:1180   */\n      gt\n        /* \"#utility.yul\":1136:1264   */\n      iszero\n      tag_89\n      jumpi\n        /* \"#utility.yul\":1183:1262   */\n      tag_90\n      tag_44\n      jump\t// in\n    tag_90:\n        /* \"#utility.yul\":1136:1264   */\n    tag_89:\n        /* \"#utility.yul\":717:1270   */\n      swap3\n      pop\n      swap3\n      swap1\n      pop\n      jump\t// out\n        /* \"#utility.yul\":1276:1353   */\n    tag_46:\n        /* \"#utility.yul\":1313:1320   */\n      0x00\n        /* \"#utility.yul\":1342:1347   */\n      dup2\n        /* \"#utility.yul\":1331:1347   */\n      swap1\n      pop\n        /* \"#utility.yul\":1276:1353   */\n      swap2\n      swap1\n      pop\n      jump\t// out\n        /* \"#utility.yul\":1359:1481   */\n    tag_47:\n        /* \"#utility.yul\":1432:1456   */\n      tag_93\n        /* \"#utility.yul\":1450:1455   */\n      dup2\n        /* \"#utility.yul\":1432:1456   */\n      tag_46\n      jump\t// in\n    tag_93:\n        /* \"#utility.yul\":1425:1430   */\n      dup2\n        /* \"#utility.yul\":1422:1457   */\n      eq\n        /* \"#utility.yul\":1412:1475   */\n      tag_94\n      jumpi\n        /* \"#utility.yul\":1471:1472   */\n      0x00\n        /* \"#utility.yul\":1468:1469   */\n      dup1\n        /* \"#utility.yul\":1461:1473   */\n      revert\n        /* \"#utility.yul\":1412:1475   */\n    tag_94:\n        /* \"#utility.yul\":1359:1481   */\n      pop\n      jump\t// out\n        /* \"#utility.yul\":1487:1626   */\n    tag_48:\n        /* \"#utility.yul\":1533:1538   */\n      0x00\n        /* \"#utility.yul\":1571:1577   */\n      dup2\n        /* \"#utility.yul\":1558:1578   */\n      calldataload\n        /* \"#utility.yul\":1549:1578   */\n      swap1\n      pop\n        /* \"#utility.yul\":1587:1620   */\n      tag_96\n        /* \"#utility.yul\":1614:1619   */\n      dup2\n        /* \"#utility.yul\":1587:1620   */\n      tag_47\n      jump\t// in\n    tag_96:\n        /* \"#utility.yul\":1487:1626   */\n      swap3\n      swap2\n      pop\n      pop\n      jump\t// out\n        /* \"#utility.yul\":1632:2306   */\n    tag_8:\n        /* \"#utility.yul\":1712:1718   */\n      0x00\n        /* \"#utility.yul\":1720:1726   */\n      dup1\n        /* \"#utility.yul\":1728:1734   */\n      0x00\n        /* \"#utility.yul\":1777:1779   */\n      0x40\n        /* \"#utility.yul\":1765:1774   */\n      dup5\n        /* \"#utility.yul\":1756:1763   */\n      dup7\n        /* \"#utility.yul\":1752:1775   */\n      sub\n        /* \"#utility.yul\":1748:1780   */\n      slt\n        /* \"#utility.yul\":1745:1864   */\n      iszero\n      tag_98\n      jumpi\n        /* \"#utility.yul\":1783:1862   */\n      tag_99\n      tag_40\n      jump\t// in\n    tag_99:\n        /* \"#utility.yul\":1745:1864   */\n    tag_98:\n        /* \"#utility.yul\":1931:1932   */\n      0x00\n        /* \"#utility.yul\":1920:1929   */\n      dup5\n        /* \"#utility.yul\":1916:1933   */\n      add\n        /* \"#utility.yul\":1903:1934   */\n      calldataload\n        /* \"#utility.yul\":1961:1979   */\n      0xffffffffffffffff\n        /* \"#utility.yul\":1953:1959   */\n      dup2\n        /* \"#utility.yul\":1950:1980   */\n      gt\n        /* \"#utility.yul\":1947:2064   */\n      iszero\n      tag_100\n      jumpi\n        /* \"#utility.yul\":1983:2062   */\n      tag_101\n      tag_41\n      jump\t// in\n    tag_101:\n        /* \"#utility.yul\":1947:2064   */\n    tag_100:\n        /* \"#utility.yul\":2096:2161   */\n      tag_102\n        /* \"#utility.yul\":2153:2160   */\n      dup7\n        /* \"#utility.yul\":2144:2150   */\n      dup3\n        /* \"#utility.yul\":2133:2142   */\n      dup8\n        /* \"#utility.yul\":2129:2151   */\n      add\n        /* \"#utility.yul\":2096:2161   */\n      tag_45\n      jump\t// in\n    tag_102:\n        /* \"#utility.yul\":2078:2161   */\n      swap4\n      pop\n      swap4\n      pop\n        /* \"#utility.yul\":1874:2171   */\n      pop\n        /* \"#utility.yul\":2210:2212   */\n      0x20\n        /* \"#utility.yul\":2236:2289   */\n      tag_103\n        /* \"#utility.yul\":2281:2288   */\n      dup7\n        /* \"#utility.yul\":2272:2278   */\n      dup3\n        /* \"#utility.yul\":2261:2270   */\n      dup8\n        /* \"#utility.yul\":2257:2279   */\n      add\n        /* \"#utility.yul\":2236:2289   */\n      tag_48\n      jump\t// in\n    tag_103:\n        /* \"#utility.yul\":2226:2289   */\n      swap2\n      pop\n        /* \"#utility.yul\":2181:2299   */\n      pop\n        /* \"#utility.yul\":1632:2306   */\n      swap3\n      pop\n      swap3\n      pop\n      swap3\n      jump\t// out\n        /* \"#utility.yul\":2312:2389   */\n    tag_49:\n        /* \"#utility.yul\":2349:2356   */\n      0x00\n        /* \"#utility.yul\":2378:2383   */\n      dup2\n        /* \"#utility.yul\":2367:2383   */\n      swap1\n      pop\n        /* \"#utility.yul\":2312:2389   */\n      swap2\n      swap1\n      pop\n      jump\t// out\n        /* \"#utility.yul\":2395:2517   */\n    tag_50:\n        /* \"#utility.yul\":2468:2492   */\n      tag_106\n        /* \"#utility.yul\":2486:2491   */\n      dup2\n        /* \"#utility.yul\":2468:2492   */\n      tag_49\n      jump\t// in\n    tag_106:\n        /* \"#utility.yul\":2461:2466   */\n      dup2\n        /* \"#utility.yul\":2458:2493   */\n      eq\n        /* \"#utility.yul\":2448:2511   */\n      tag_107\n      jumpi\n        /* \"#utility.yul\":2507:2508   */\n      0x00\n        /* \"#utility.yul\":2504:2505   */\n      dup1\n        /* \"#utility.yul\":2497:2509   */\n      revert\n        /* \"#utility.yul\":2448:2511   */\n    tag_107:\n        /* \"#utility.yul\":2395:2517   */\n      pop\n      jump\t// out\n        /* \"#utility.yul\":2523:2662   */\n    tag_51:\n        /* \"#utility.yul\":2569:2574   */\n      0x00\n        /* \"#utility.yul\":2607:2613   */\n      dup2\n        /* \"#utility.yul\":2594:2614   */\n      calldataload\n        /* \"#utility.yul\":2585:2614   */\n      swap1\n      pop\n        /* \"#utility.yul\":2623:2656   */\n      tag_109\n        /* \"#utility.yul\":2650:2655   */\n      dup2\n        /* \"#utility.yul\":2623:2656   */\n      tag_50\n      jump\t// in\n    tag_109:\n        /* \"#utility.yul\":2523:2662   */\n      swap3\n      swap2\n      pop\n      pop\n      jump\t// out\n        /* \"#utility.yul\":2668:2997   */\n    tag_12:\n        /* \"#utility.yul\":2727:2733   */\n      0x00\n        /* \"#utility.yul\":2776:2778   */\n      0x20\n        /* \"#utility.yul\":2764:2773   */\n      dup3\n        /* \"#utility.yul\":2755:2762   */\n      dup5\n        /* \"#utility.yul\":2751:2774   */\n      sub\n        /* \"#utility.yul\":2747:2779   */\n      slt\n        /* \"#utility.yul\":2744:2863   */\n      iszero\n      tag_111\n      jumpi\n        /* \"#utility.yul\":2782:2861   */\n      tag_112\n      tag_40\n      jump\t// in\n    tag_112:\n        /* \"#utility.yul\":2744:2863   */\n    tag_111:\n        /* \"#utility.yul\":2902:2903   */\n      0x00\n        /* \"#utility.yul\":2927:2980   */\n      tag_113\n        /* \"#utility.yul\":2972:2979   */\n      dup5\n        /* \"#utility.yul\":2963:2969   */\n      dup3\n        /* \"#utility.yul\":2952:2961   */\n      dup6\n        /* \"#utility.yul\":2948:2970   */\n      add\n        /* \"#utility.yul\":2927:2980   */\n      tag_51\n      jump\t// in\n    tag_113:\n        /* \"#utility.yul\":2917:2980   */\n      swap2\n      pop\n        /* \"#utility.yul\":2873:2990   */\n      pop\n        /* \"#utility.yul\":2668:2997   */\n      swap3\n      swap2\n      pop\n      pop\n      jump\t// out\n        /* \"#utility.yul\":3003:3102   */\n    tag_52:\n        /* \"#utility.yul\":3055:3061   */\n      0x00\n        /* \"#utility.yul\":3089:3094   */\n      dup2\n        /* \"#utility.yul\":3083:3095   */\n      mload\n        /* \"#utility.yul\":3073:3095   */\n      swap1\n      pop\n        /* \"#utility.yul\":3003:3102   */\n      swap2\n      swap1\n      pop\n      jump\t// out\n        /* \"#utility.yul\":3108:3277   */\n    tag_53:\n        /* \"#utility.yul\":3192:3203   */\n      0x00\n        /* \"#utility.yul\":3226:3232   */\n      dup3\n        /* \"#utility.yul\":3221:3224   */\n      dup3\n        /* \"#utility.yul\":3214:3233   */\n      mstore\n        /* \"#utility.yul\":3266:3270   */\n      0x20\n        /* \"#utility.yul\":3261:3264   */\n      dup3\n        /* \"#utility.yul\":3257:3271   */\n      add\n        /* \"#utility.yul\":3242:3271   */\n      swap1\n      pop\n        /* \"#utility.yul\":3108:3277   */\n      swap3\n      swap2\n      pop\n      pop\n      jump\t// out\n        /* \"#utility.yul\":3283:3422   */\n    tag_54:\n        /* \"#utility.yul\":3372:3378   */\n      dup3\n        /* \"#utility.yul\":3367:3370   */\n      dup2\n        /* \"#utility.yul\":3362:3365   */\n      dup4\n        /* \"#utility.yul\":3356:3379   */\n      mcopy\n        /* \"#utility.yul\":3413:3414   */\n      0x00\n        /* \"#utility.yul\":3404:3410   */\n      dup4\n        /* \"#utility.yul\":3399:3402   */\n      dup4\n        /* \"#utility.yul\":3395:3411   */\n      add\n        /* \"#utility.yul\":3388:3415   */\n      mstore\n        /* \"#utility.yul\":3283:3422   */\n      pop\n      pop\n      pop\n      jump\t// out\n        /* \"#utility.yul\":3428:3530   */\n    tag_55:\n        /* \"#utility.yul\":3469:3475   */\n      0x00\n        /* \"#utility.yul\":3520:3522   */\n      0x1f\n        /* \"#utility.yul\":3516:3523   */\n      not\n        /* \"#utility.yul\":3511:3513   */\n      0x1f\n        /* \"#utility.yul\":3504:3509   */\n      dup4\n        /* \"#utility.yul\":3500:3514   */\n      add\n        /* \"#utility.yul\":3496:3524   */\n      and\n        /* \"#utility.yul\":3486:3524   */\n      swap1\n      pop\n        /* \"#utility.yul\":3428:3530   */\n      swap2\n      swap1\n      pop\n      jump\t// out\n        /* \"#utility.yul\":3536:3913   */\n    tag_56:\n        /* \"#utility.yul\":3624:3627   */\n      0x00\n        /* \"#utility.yul\":3652:3691   */\n      tag_119\n        /* \"#utility.yul\":3685:3690   */\n      dup3\n        /* \"#utility.yul\":3652:3691   */\n      tag_52\n      jump\t// in\n    tag_119:\n        /* \"#utility.yul\":3707:3778   */\n      tag_120\n        /* \"#utility.yul\":3771:3777   */\n      dup2\n        /* \"#utility.yul\":3766:3769   */\n      dup6\n        /* \"#utility.yul\":3707:3778   */\n      tag_53\n      jump\t// in\n    tag_120:\n        /* \"#utility.yul\":3700:3778   */\n      swap4\n      pop\n        /* \"#utility.yul\":3787:3852   */\n      tag_121\n        /* \"#utility.yul\":3845:3851   */\n      dup2\n        /* \"#utility.yul\":3840:3843   */\n      dup6\n        /* \"#utility.yul\":3833:3837   */\n      0x20\n        /* \"#utility.yul\":3826:3831   */\n      dup7\n        /* \"#utility.yul\":3822:3838   */\n      add\n        /* \"#utility.yul\":3787:3852   */\n      tag_54\n      jump\t// in\n    tag_121:\n        /* \"#utility.yul\":3877:3906   */\n      tag_122\n        /* \"#utility.yul\":3899:3905   */\n      dup2\n        /* \"#utility.yul\":3877:3906   */\n      tag_55\n      jump\t// in\n    tag_122:\n        /* \"#utility.yul\":3872:3875   */\n      dup5\n        /* \"#utility.yul\":3868:3907   */\n      add\n        /* \"#utility.yul\":3861:3907   */\n      swap2\n      pop\n        /* \"#utility.yul\":3628:3913   */\n      pop\n        /* \"#utility.yul\":3536:3913   */\n      swap3\n      swap2\n      pop\n      pop\n      jump\t// out\n        /* \"#utility.yul\":3919:4232   */\n    tag_15:\n        /* \"#utility.yul\":4032:4036   */\n      0x00\n        /* \"#utility.yul\":4070:4072   */\n      0x20\n        /* \"#utility.yul\":4059:4068   */\n      dup3\n        /* \"#utility.yul\":4055:4073   */\n      add\n        /* \"#utility.yul\":4047:4073   */\n      swap1\n      pop\n        /* \"#utility.yul\":4119:4128   */\n      dup2\n        /* \"#utility.yul\":4113:4117   */\n      dup2\n        /* \"#utility.yul\":4109:4129   */\n      sub\n        /* \"#utility.yul\":4105:4106   */\n      0x00\n        /* \"#utility.yul\":4094:4103   */\n      dup4\n        /* \"#utility.yul\":4090:4107   */\n      add\n        /* \"#utility.yul\":4083:4130   */\n      mstore\n        /* \"#utility.yul\":4147:4225   */\n      tag_124\n        /* \"#utility.yul\":4220:4224   */\n      dup2\n        /* \"#utility.yul\":4211:4217   */\n      dup5\n        /* \"#utility.yul\":4147:4225   */\n      tag_56\n      jump\t// in\n    tag_124:\n        /* \"#utility.yul\":4139:4225   */\n      swap1\n      pop\n        /* \"#utility.yul\":3919:4232   */\n      swap3\n      swap2\n      pop\n      pop\n      jump\t// out\n        /* \"#utility.yul\":4238:4567   */\n    tag_18:\n        /* \"#utility.yul\":4297:4303   */\n      0x00\n        /* \"#utility.yul\":4346:4348   */\n      0x20\n        /* \"#utility.yul\":4334:4343   */\n      dup3\n        /* \"#utility.yul\":4325:4332   */\n      dup5\n        /* \"#utility.yul\":4321:4344   */\n      sub\n        /* \"#utility.yul\":4317:4349   */\n      slt\n        /* \"#utility.yul\":4314:4433   */\n      iszero\n      tag_126\n      jumpi\n        /* \"#utility.yul\":4352:4431   */\n      tag_127\n      tag_40\n      jump\t// in\n    tag_127:\n        /* \"#utility.yul\":4314:4433   */\n    tag_126:\n        /* \"#utility.yul\":4472:4473   */\n      0x00\n        /* \"#utility.yul\":4497:4550   */\n      tag_128\n        /* \"#utility.yul\":4542:4549   */\n      dup5\n        /* \"#utility.yul\":4533:4539   */\n      dup3\n        /* \"#utility.yul\":4522:4531   */\n      dup6\n        /* \"#utility.yul\":4518:4540   */\n      add\n        /* \"#utility.yul\":4497:4550   */\n      tag_48\n      jump\t// in\n    tag_128:\n        /* \"#utility.yul\":4487:4550   */\n      swap2\n      pop\n        /* \"#utility.yul\":4443:4560   */\n      pop\n        /* \"#utility.yul\":4238:4567   */\n      swap3\n      swap2\n      pop\n      pop\n      jump\t// out\n        /* \"#utility.yul\":4573:4652   */\n    tag_57:\n        /* \"#utility.yul\":4612:4619   */\n      0x00\n        /* \"#utility.yul\":4641:4646   */\n      dup2\n        /* \"#utility.yul\":4630:4646   */\n      swap1\n      pop\n        /* \"#utility.yul\":4573:4652   */\n      swap2\n      swap1\n      pop\n      jump\t// out\n        /* \"#utility.yul\":4658:4815   */\n    tag_58:\n        /* \"#utility.yul\":4763:4808   */\n      tag_131\n        /* \"#utility.yul\":4783:4807   */\n      tag_132\n        /* \"#utility.yul\":4801:4806   */\n      dup3\n        /* \"#utility.yul\":4783:4807   */\n      tag_46\n      jump\t// in\n    tag_132:\n        /* \"#utility.yul\":4763:4808   */\n      tag_57\n      jump\t// in\n    tag_131:\n        /* \"#utility.yul\":4758:4761   */\n      dup3\n        /* \"#utility.yul\":4751:4809   */\n      mstore\n        /* \"#utility.yul\":4658:4815   */\n      pop\n      pop\n      jump\t// out\n        /* \"#utility.yul\":4821:5077   */\n    tag_23:\n        /* \"#utility.yul\":4933:4936   */\n      0x00\n        /* \"#utility.yul\":4948:5023   */\n      tag_134\n        /* \"#utility.yul\":5019:5022   */\n      dup3\n        /* \"#utility.yul\":5010:5016   */\n      dup5\n        /* \"#utility.yul\":4948:5023   */\n      tag_58\n      jump\t// in\n    tag_134:\n        /* \"#utility.yul\":5048:5050   */\n      0x20\n        /* \"#utility.yul\":5043:5046   */\n      dup3\n        /* \"#utility.yul\":5039:5051   */\n      add\n        /* \"#utility.yul\":5032:5051   */\n      swap2\n      pop\n        /* \"#utility.yul\":5068:5071   */\n      dup2\n        /* \"#utility.yul\":5061:5071   */\n      swap1\n      pop\n        /* \"#utility.yul\":4821:5077   */\n      swap3\n      swap2\n      pop\n      pop\n      jump\t// out\n        /* \"#utility.yul\":5083:5180   */\n    tag_59:\n        /* \"#utility.yul\":5142:5148   */\n      0x00\n        /* \"#utility.yul\":5170:5173   */\n      dup3\n        /* \"#utility.yul\":5160:5173   */\n      swap1\n      pop\n        /* \"#utility.yul\":5083:5180   */\n      swap3\n      swap2\n      pop\n      pop\n      jump\t// out\n        /* \"#utility.yul\":5186:5366   */\n    tag_60:\n        /* \"#utility.yul\":5234:5311   */\n      0x4e487b7100000000000000000000000000000000000000000000000000000000\n        /* \"#utility.yul\":5231:5232   */\n      0x00\n        /* \"#utility.yul\":5224:5312   */\n      mstore\n        /* \"#utility.yul\":5331:5335   */\n      0x41\n        /* \"#utility.yul\":5328:5329   */\n      0x04\n        /* \"#utility.yul\":5321:5336   */\n      mstore\n        /* \"#utility.yul\":5355:5359   */\n      0x24\n        /* \"#utility.yul\":5352:5353   */\n      0x00\n        /* \"#utility.yul\":5345:5360   */\n      revert\n        /* \"#utility.yul\":5372:5552   */\n    tag_61:\n        /* \"#utility.yul\":5420:5497   */\n      0x4e487b7100000000000000000000000000000000000000000000000000000000\n        /* \"#utility.yul\":5417:5418   */\n      0x00\n        /* \"#utility.yul\":5410:5498   */\n      mstore\n        /* \"#utility.yul\":5517:5521   */\n      0x22\n        /* \"#utility.yul\":5514:5515   */\n      0x04\n        /* \"#utility.yul\":5507:5522   */\n      mstore\n        /* \"#utility.yul\":5541:5545   */\n      0x24\n        /* \"#utility.yul\":5538:5539   */\n      0x00\n        /* \"#utility.yul\":5531:5546   */\n      revert\n        /* \"#utility.yul\":5558:5878   */\n    tag_27:\n        /* \"#utility.yul\":5602:5608   */\n      0x00\n        /* \"#utility.yul\":5639:5640   */\n      0x02\n        /* \"#utility.yul\":5633:5637   */\n      dup3\n        /* \"#utility.yul\":5629:5641   */\n      div\n        /* \"#utility.yul\":5619:5641   */\n      swap1\n      pop\n        /* \"#utility.yul\":5686:5687   */\n      0x01\n        /* \"#utility.yul\":5680:5684   */\n      dup3\n        /* \"#utility.yul\":5676:5688   */\n      and\n        /* \"#utility.yul\":5707:5725   */\n      dup1\n        /* \"#utility.yul\":5697:5778   */\n      tag_139\n      jumpi\n        /* \"#utility.yul\":5763:5767   */\n      0x7f\n        /* \"#utility.yul\":5755:5761   */\n      dup3\n        /* \"#utility.yul\":5751:5768   */\n      and\n        /* \"#utility.yul\":5741:5768   */\n      swap2\n      pop\n        /* \"#utility.yul\":5697:5778   */\n    tag_139:\n        /* \"#utility.yul\":5825:5827   */\n      0x20\n        /* \"#utility.yul\":5817:5823   */\n      dup3\n        /* \"#utility.yul\":5814:5828   */\n      lt\n        /* \"#utility.yul\":5794:5812   */\n      dup2\n        /* \"#utility.yul\":5791:5829   */\n      sub\n        /* \"#utility.yul\":5788:5872   */\n      tag_140\n      jumpi\n        /* \"#utility.yul\":5844:5862   */\n      tag_141\n      tag_61\n      jump\t// in\n    tag_141:\n        /* \"#utility.yul\":5788:5872   */\n    tag_140:\n        /* \"#utility.yul\":5609:5878   */\n      pop\n        /* \"#utility.yul\":5558:5878   */\n      swap2\n      swap1\n      pop\n      jump\t// out\n        /* \"#utility.yul\":5884:6025   */\n    tag_62:\n        /* \"#utility.yul\":5933:5937   */\n      0x00\n        /* \"#utility.yul\":5956:5959   */\n      dup2\n        /* \"#utility.yul\":5948:5959   */\n      swap1\n      pop\n        /* \"#utility.yul\":5979:5982   */\n      dup2\n        /* \"#utility.yul\":5976:5977   */\n      0x00\n        /* \"#utility.yul\":5969:5983   */\n      mstore\n        /* \"#utility.yul\":6013:6017   */\n      0x20\n        /* \"#utility.yul\":6010:6011   */\n      0x00\n        /* \"#utility.yul\":6000:6018   */\n      keccak256\n        /* \"#utility.yul\":5992:6018   */\n      swap1\n      pop\n        /* \"#utility.yul\":5884:6025   */\n      swap2\n      swap1\n      pop\n      jump\t// out\n        /* \"#utility.yul\":6031:6124   */\n    tag_63:\n        /* \"#utility.yul\":6068:6074   */\n      0x00\n        /* \"#utility.yul\":6115:6117   */\n      0x20\n        /* \"#utility.yul\":6110:6112   */\n      0x1f\n        /* \"#utility.yul\":6103:6108   */\n      dup4\n        /* \"#utility.yul\":6099:6113   */\n      add\n        /* \"#utility.yul\":6095:6118   */\n      div\n        /* \"#utility.yul\":6085:6118   */\n      swap1\n      pop\n        /* \"#utility.yul\":6031:6124   */\n      swap2\n      swap1\n      pop\n      jump\t// out\n        /* \"#utility.yul\":6130:6237   */\n    tag_64:\n        /* \"#utility.yul\":6174:6182   */\n      0x00\n        /* \"#utility.yul\":6224:6229   */\n      dup3\n        /* \"#utility.yul\":6218:6222   */\n      dup3\n        /* \"#utility.yul\":6214:6230   */\n      shl\n        /* \"#utility.yul\":6193:6230   */\n      swap1\n      pop\n        /* \"#utility.yul\":6130:6237   */\n      swap3\n      swap2\n      pop\n      pop\n      jump\t// out\n        /* \"#utility.yul\":6243:6636   */\n    tag_65:\n        /* \"#utility.yul\":6312:6318   */\n      0x00\n        /* \"#utility.yul\":6362:6363   */\n      0x08\n        /* \"#utility.yul\":6350:6360   */\n      dup4\n        /* \"#utility.yul\":6346:6364   */\n      mul\n        /* \"#utility.yul\":6385:6482   */\n      tag_146\n        /* \"#utility.yul\":6415:6481   */\n      0xffffffffffffffffffffffffffffffffffffffffffffffffffffffffffffffff\n        /* \"#utility.yul\":6404:6413   */\n      dup3\n        /* \"#utility.yul\":6385:6482   */\n      tag_64\n      jump\t// in\n    tag_146:\n        /* \"#utility.yul\":6503:6542   */\n      tag_147\n        /* \"#utility.yul\":6533:6541   */\n      dup7\n        /* \"#utility.yul\":6522:6531   */\n      dup4\n        /* \"#utility.yul\":6503:6542   */\n      tag_64\n      jump\t// in\n    tag_147:\n        /* \"#utility.yul\":6491:6542   */\n      swap6\n      pop\n        /* \"#utility.yul\":6575:6579   */\n      dup1\n        /* \"#utility.yul\":6571:6580   */\n      not\n        /* \"#utility.yul\":6564:6569   */\n      dup5\n        /* \"#utility.yul\":6560:6581   */\n      and\n        /* \"#utility.yul\":6551:6581   */\n      swap4\n      pop\n        /* \"#utility.yul\":6624:6628   */\n      dup1\n        /* \"#utility.yul\":6614:6622   */\n      dup7\n        /* \"#utility.yul\":6610:6629   */\n      and\n        /* \"#utility.yul\":6603:6608   */\n      dup5\n        /* \"#utility.yul\":6600:6630   */\n      or\n        /* \"#utility.yul\":6590:6630   */\n      swap3\n      pop\n        /* \"#utility.yul\":6319:6636   */\n      pop\n      pop\n        /* \"#utility.yul\":6243:6636   */\n      swap4\n      swap3\n      pop\n      pop\n      pop\n      jump\t// out\n        /* \"#utility.yul\":6642:6702   */\n    tag_66:\n        /* \"#utility.yul\":6670:6673   */\n      0x00\n        /* \"#utility.yul\":6691:6696   */\n      dup2\n        /* \"#utility.yul\":6684:6696   */\n      swap1\n      pop\n        /* \"#utility.yul\":6642:6702   */\n      swap2\n      swap1\n      pop\n      jump\t// out\n        /* \"#utility.yul\":6708:6850   */\n    tag_67:\n        /* \"#utility.yul\":6758:6767   */\n      0x00\n        /* \"#utility.yul\":6791:6844   */\n      tag_150\n        /* \"#utility.yul\":6809:6843   */\n      tag_151\n        /* \"#utility.yul\":6818:6842   */\n      tag_152\n        /* \"#utility.yul\":6836:6841   */\n      dup5\n        /* \"#utility.yul\":6818:6842   */\n      tag_46\n      jump\t// in\n    tag_152:\n        /* \"#utility.yul\":6809:6843   */\n      tag_66\n      jump\t// in\n    tag_151:\n        /* \"#utility.yul\":6791:6844   */\n      tag_46\n      jump\t// in\n    tag_150:\n        /* \"#utility.yul\":6778:6844   */\n      swap1\n      pop\n        /* \"#utility.yul\":6708:6850   */\n      swap2\n      swap1\n      pop\n      jump\t// out\n        /* \"#utility.yul\":6856:6931   */\n    tag_68:\n        /* \"#utility.yul\":6899:6902   */\n      0x00\n        /* \"#utility.yul\":6920:6925   */\n      dup2\n        /* \"#utility.yul\":6913:6925   */\n      swap1\n      pop\n        /* \"#utility.yul\":6856:6931   */\n      swap2\n      swap1\n      pop\n      jump\t// out\n        /* \"#utility.yul\":6937:7206   */\n    tag_69:\n        /* \"#utility.yul\":7047:7086   */\n      tag_155\n        /* \"#utility.yul\":7078:7085   */\n      dup4\n        /* \"#utility.yul\":7047:7086   */\n      tag_67\n      jump\t// in\n    tag_155:\n        /* \"#utility.yul\":7108:7199   */\n      tag_156\n        /* \"#utility.yul\":7157:7198   */\n      tag_157\n        /* \"#utility.yul\":7181:7197   */\n      dup3\n        /* \"#utility.yul\":7157:7198   */\n      tag_68\n      jump\t// in\n    tag_157:\n        /* \"#utility.yul\":7149:7155   */\n      dup5\n        /* \"#utility.yul\":7142:7146   */\n      dup5\n        /* \"#utility.yul\":7136:7147   */\n      sload\n        /* \"#utility.yul\":7108:7199   */\n      tag_65\n      jump\t// in\n    tag_156:\n        /* \"#utility.yul\":7102:7106   */\n      dup3\n        /* \"#utility.yul\":7095:7200   */\n      sstore\n        /* \"#utility.yul\":7013:7206   */\n      pop\n        /* \"#utility.yul\":6937:7206   */\n      pop\n      pop\n      pop\n      jump\t// out\n        /* \"#utility.yul\":7212:7285   */\n    tag_70:\n        /* \"#utility.yul\":7257:7260   */\n      0x00\n        /* \"#utility.yul\":7212:7285   */\n      swap1\n      jump\t// out\n        /* \"#utility.yul\":7291:7480   */\n    tag_71:\n        /* \"#utility.yul\":7368:7400   */\n      tag_160\n      tag_70\n      jump\t// in\n    tag_160:\n        /* \"#utility.yul\":7409:7474   */\n      tag_161\n        /* \"#utility.yul\":7467:7473   */\n      dup2\n        /* \"#utility.yul\":7459:7465   */\n      dup5\n        /* \"#utility.yul\":7453:7457   */\n      dup5\n        /* \"#utility.yul\":7409:7474   */\n      tag_69\n      jump\t// in\n    tag_161:\n        /* \"#utility.yul\":7344:7480   */\n      pop\n        /* \"#utility.yul\":7291:7480   */\n      pop\n      pop\n      jump\t// out\n        /* \"#utility.yul\":7486:7672   */\n    tag_72:\n        /* \"#utility.yul\":7546:7666   */\n    tag_163:\n        /* \"#utility.yul\":7563:7566   */\n      dup2\n        /* \"#utility.yul\":7556:7561   */\n      dup2\n        /* \"#utility.yul\":7553:7567   */\n      lt\n        /* \"#utility.yul\":7546:7666   */\n      iszero\n      tag_165\n      jumpi\n        /* \"#utility.yul\":7617:7656   */\n      tag_166\n        /* \"#utility.yul\":7654:7655   */\n      0x00\n        /* \"#utility.yul\":7647:7652   */\n      dup3\n        /* \"#utility.yul\":7617:7656   */\n      tag_71\n      jump\t// in\n    tag_166:\n        /* \"#utility.yul\":7590:7591   */\n      0x01\n        /* \"#utility.yul\":7583:7588   */\n      dup2\n        /* \"#utility.yul\":7579:7592   */\n      add\n        /* \"#utility.yul\":7570:7592   */\n      swap1\n      pop\n        /* \"#utility.yul\":7546:7666   */\n      jump(tag_163)\n    tag_165:\n        /* \"#utility.yul\":7486:7672   */\n      pop\n      pop\n      jump\t// out\n        /* \"#utility.yul\":7678:8221   */\n    tag_73:\n        /* \"#utility.yul\":7779:7781   */\n      0x1f\n        /* \"#utility.yul\":7774:7777   */\n      dup3\n        /* \"#utility.yul\":7771:7782   */\n      gt\n        /* \"#utility.yul\":7768:8214   */\n      iszero\n      tag_168\n      jumpi\n        /* \"#utility.yul\":7813:7851   */\n      tag_169\n        /* \"#utility.yul\":7845:7850   */\n      dup2\n        /* \"#utility.yul\":7813:7851   */\n      tag_62\n      jump\t// in\n    tag_169:\n        /* \"#utility.yul\":7897:7926   */\n      tag_170\n        /* \"#utility.yul\":7915:7925   */\n      dup5\n        /* \"#utility.yul\":7897:7926   */\n      tag_63\n      jump\t// in\n    tag_170:\n        /* \"#utility.yul\":7887:7895   */\n      dup2\n        /* \"#utility.yul\":7883:7927   */\n      add\n        /* \"#utility.yul\":8080:8082   */\n      0x20\n        /* \"#utility.yul\":8068:8078   */\n      dup6\n        /* \"#utility.yul\":8065:8083   */\n      lt\n        /* \"#utility.yul\":8062:8111   */\n      iszero\n      tag_171\n      jumpi\n        /* \"#utility.yul\":8101:8109   */\n      dup2\n        /* \"#utility.yul\":8086:8109   */\n      swap1\n      pop\n        /* \"#utility.yul\":8062:8111   */\n    tag_171:\n        /* \"#utility.yul\":8124:8204   */\n      tag_172\n        /* \"#utility.yul\":8180:8202   */\n      tag_173\n        /* \"#utility.yul\":8198:8201   */\n      dup6\n        /* \"#utility.yul\":8180:8202   */\n      tag_63\n      jump\t// in\n    tag_173:\n        /* \"#utility.yul\":8170:8178   */\n      dup4\n        /* \"#utility.yul\":8166:8203   */\n      add\n        /* \"#utility.yul\":8153:8164   */\n      dup3\n        /* \"#utility.yul\":8124:8204   */\n      tag_72\n      jump\t// in\n    tag_172:\n        /* \"#utility.yul\":7783:8214   */\n      pop\n      pop\n        /* \"#utility.yul\":7768:8214   */\n    tag_168:\n        /* \"#utility.yul\":7678:8221   */\n      pop\n      pop\n      pop\n      jump\t// out\n        /* \"#utility.yul\":8227:8344   */\n    tag_74:\n        /* \"#utility.yul\":8281:8289   */\n      0x00\n        /* \"#utility.yul\":8331:8336   */\n      dup3\n        /* \"#utility.yul\":8325:8329   */\n      dup3\n        /* \"#utility.yul\":8321:8337   */\n      shr\n        /* \"#utility.yul\":8300:8337   */\n      swap1\n      pop\n        /* \"#utility.yul\":8227:8344   */\n      swap3\n      swap2\n      pop\n      pop\n      jump\t// out\n        /* \"#utility.yul\":8350:8519   */\n    tag_75:\n        /* \"#utility.yul\":8394:8400   */\n      0x00\n        /* \"#utility.yul\":8427:8478   */\n      tag_176\n        /* \"#utility.yul\":8475:8476   */\n      0x00\n        /* \"#utility.yul\":8471:8477   */\n      not\n        /* \"#utility.yul\":8463:8468   */\n      dup5\n        /* \"#utility.yul\":8460:8461   */\n      0x08\n        /* \"#utility.yul\":8456:8469   */\n      mul\n        /* \"#utility.yul\":8427:8478   */\n      tag_74\n      jump\t// in\n    tag_176:\n        /* \"#utility.yul\":8423:8479   */\n      not\n        /* \"#utility.yul\":8508:8512   */\n      dup1\n        /* \"#utility.yul\":8502:8506   */\n      dup4\n        /* \"#utility.yul\":8498:8513   */\n      and\n        /* \"#utility.yul\":8488:8513   */\n      swap2\n      pop\n        /* \"#utility.yul\":8401:8519   */\n      pop\n        /* \"#utility.yul\":8350:8519   */\n      swap3\n      swap2\n      pop\n      pop\n      jump\t// out\n        /* \"#utility.yul\":8524:8819   */\n    tag_76:\n        /* \"#utility.yul\":8600:8604   */\n      0x00\n        /* \"#utility.yul\":8746:8775   */\n      tag_178\n        /* \"#utility.yul\":8771:8774   */\n      dup4\n        /* \"#utility.yul\":8765:8769   */\n      dup4\n        /* \"#utility.yul\":8746:8775   */\n      tag_75\n      jump\t// in\n    tag_178:\n        /* \"#utility.yul\":8738:8775   */\n      swap2\n      pop\n        /* \"#utility.yul\":8808:8811   */\n      dup3\n        /* \"#utility.yul\":8805:8806   */\n      0x02\n        /* \"#utility.yul\":8801:8812   */\n      mul\n        /* \"#utility.yul\":8795:8799   */\n      dup3\n        /* \"#utility.yul\":8792:8813   */\n      or\n        /* \"#utility.yul\":8784:8813   */\n      swap1\n      pop\n        /* \"#utility.yul\":8524:8819   */\n      swap3\n      swap2\n      pop\n      pop\n      jump\t// out\n        /* \"#utility.yul\":8824:10227   */\n    tag_25:\n        /* \"#utility.yul\":8948:8992   */\n      tag_180\n        /* \"#utility.yul\":8988:8991   */\n      dup4\n        /* \"#utility.yul\":8983:8986   */\n      dup4\n        /* \"#utility.yul\":8948:8992   */\n      tag_59\n      jump\t// in\n    tag_180:\n        /* \"#utility.yul\":9057:9075   */\n      0xffffffffffffffff\n        /* \"#utility.yul\":9049:9055   */\n      dup2\n        /* \"#utility.yul\":9046:9076   */\n      gt\n        /* \"#utility.yul\":9043:9099   */\n      iszero\n      tag_181\n      jumpi\n        /* \"#utility.yul\":9079:9097   */\n      tag_182\n      tag_60\n      jump\t// in\n    tag_182:\n        /* \"#utility.yul\":9043:9099   */\n    tag_181:\n        /* \"#utility.yul\":9123:9161   */\n      tag_183\n        /* \"#utility.yul\":9155:9159   */\n      dup3\n        /* \"#utility.yul\":9149:9160   */\n      sload\n        /* \"#utility.yul\":9123:9161   */\n      tag_27\n      jump\t// in\n    tag_183:\n        /* \"#utility.yul\":9208:9275   */\n      tag_184\n        /* \"#utility.yul\":9268:9274   */\n      dup3\n        /* \"#utility.yul\":9260:9266   */\n      dup3\n        /* \"#utility.yul\":9254:9258   */\n      dup6\n        /* \"#utility.yul\":9208:9275   */\n      tag_73\n      jump\t// in\n    tag_184:\n        /* \"#utility.yul\":9302:9303   */\n      0x00\n        /* \"#utility.yul\":9331:9333   */\n      0x1f\n        /* \"#utility.yul\":9323:9329   */\n      dup4\n        /* \"#utility.yul\":9320:9334   */\n      gt\n        /* \"#utility.yul\":9348:9349   */\n      0x01\n        /* \"#utility.yul\":9343:9975   */\n      dup2\n      eq\n      tag_186\n      jumpi\n        /* \"#utility.yul\":10019:10020   */\n      0x00\n        /* \"#utility.yul\":10036:10042   */\n      dup5\n        /* \"#utility.yul\":10033:10117   */\n      iszero\n      tag_187\n      jumpi\n        /* \"#utility.yul\":10092:10101   */\n      dup3\n        /* \"#utility.yul\":10087:10090   */\n      dup8\n        /* \"#utility.yul\":10083:10102   */\n      add\n        /* \"#utility.yul\":10070:10103   */\n      calldataload\n        /* \"#utility.yul\":10061:10103   */\n      swap1\n      pop\n        /* \"#utility.yul\":10033:10117   */\n    tag_187:\n        /* \"#utility.yul\":10143:10210   */\n      tag_188\n        /* \"#utility.yul\":10203:10209   */\n      dup6\n        /* \"#utility.yul\":10196:10201   */\n      dup3\n        /* \"#utility.yul\":10143:10210   */\n      tag_76\n      jump\t// in\n    tag_188:\n        /* \"#utility.yul\":10137:10141   */\n      dup7\n        /* \"#utility.yul\":10130:10211   */\n      sstore\n        /* \"#utility.yul\":9992:10221   */\n      pop\n        /* \"#utility.yul\":9313:10221   */\n      jump(tag_185)\n        /* \"#utility.yul\":9343:9975   */\n    tag_186:\n        /* \"#utility.yul\":9395:9399   */\n      0x1f\n        /* \"#utility.yul\":9391:9400   */\n      not\n        /* \"#utility.yul\":9383:9389   */\n      dup5\n        /* \"#utility.yul\":9379:9401   */\n      and\n        /* \"#utility.yul\":9429:9466   */\n      tag_189\n        /* \"#utility.yul\":9461:9465   */\n      dup7\n        /* \"#utility.yul\":9429:9466   */\n      tag_62\n      jump\t// in\n    tag_189:\n        /* \"#utility.yul\":9488:9489   */\n      0x00\n        /* \"#utility.yul\":9502:9717   */\n    tag_190:\n        /* \"#utility.yul\":9516:9523   */\n      dup3\n        /* \"#utility.yul\":9513:9514   */\n      dup2\n        /* \"#utility.yul\":9510:9524   */\n      lt\n        /* \"#utility.yul\":9502:9717   */\n      iszero\n      tag_192\n      jumpi\n        /* \"#utility.yul\":9602:9611   */\n      dup5\n        /* \"#utility.yul\":9597:9600   */\n      dup10\n        /* \"#utility.yul\":9593:9612   */\n      add\n        /* \"#utility.yul\":9580:9613   */\n      calldataload\n        /* \"#utility.yul\":9572:9578   */\n      dup3\n        /* \"#utility.yul\":9565:9614   */\n      sstore\n        /* \"#utility.yul\":9653:9654   */\n      0x01\n        /* \"#utility.yul\":9645:9651   */\n      dup3\n        /* \"#utility.yul\":9641:9655   */\n      add\n        /* \"#utility.yul\":9631:9655   */\n      swap2\n      pop\n        /* \"#utility.yul\":9700:9702   */\n      0x20\n        /* \"#utility.yul\":9689:9698   */\n      dup6\n        /* \"#utility.yul\":9685:9703   */\n      add\n        /* \"#utility.yul\":9672:9703   */\n      swap5\n      pop\n        /* \"#utility.yul\":9539:9543   */\n      0x20\n        /* \"#utility.yul\":9536:9537   */\n      dup2\n        /* \"#utility.yul\":9532:9544   */\n      add\n        /* \"#utility.yul\":9527:9544   */\n      swap1\n      pop\n        /* \"#utility.yul\":9502:9717   */\n      jump(tag_190)\n    tag_192:\n        /* \"#utility.yul\":9745:9751   */\n      dup7\n        /* \"#utility.yul\":9736:9743   */\n      dup4\n        /* \"#utility.yul\":9733:9752   */\n      lt\n        /* \"#utility.yul\":9730:9916   */\n      iszero\n      tag_193\n      jumpi\n        /* \"#utility.yul\":9810:9819   */\n      dup5\n        /* \"#utility.yul\":9805:9808   */\n      dup10\n        /* \"#utility.yul\":9801:9820   */\n      add\n        /* \"#utility.yul\":9788:9821   */\n      calldataload\n        /* \"#utility.yul\":9853:9901   */\n      tag_194\n        /* \"#utility.yul\":9895:9899   */\n      0x1f\n        /* \"#utility.yul\":9887:9893   */\n      dup10\n        /* \"#utility.yul\":9883:9900   */\n      and\n        /* \"#utility.yul\":9872:9881   */\n      dup3\n        /* \"#utility.yul\":9853:9901   */\n      tag_75\n      jump\t// in\n    tag_194:\n        /* \"#utility.yul\":9845:9851   */\n      dup4\n        /* \"#utility.yul\":9838:9902   */\n      sstore\n        /* \"#utility.yul\":9753:9916   */\n      pop\n        /* \"#utility.yul\":9730:9916   */\n    tag_193:\n        /* \"#utility.yul\":9962:9963   */\n      0x01\n        /* \"#utility.yul\":9958:9959   */\n      0x02\n        /* \"#utility.yul\":9950:9956   */\n      dup9\n        /* \"#utility.yul\":9946:9960   */\n      mul\n        /* \"#utility.yul\":9942:9964   */\n      add\n        /* \"#utility.yul\":9936:9940   */\n      dup9\n        /* \"#utility.yul\":9929:9965   */\n      sstore\n        /* \"#utility.yul\":9350:9975   */\n      pop\n      pop\n      pop\n        /* \"#utility.yul\":9313:10221   */\n    tag_185:\n      pop\n        /* \"#utility.yul\":8923:10227   */\n      pop\n      pop\n      pop\n        /* \"#utility.yul\":8824:10227   */\n      pop\n      pop\n      pop\n      jump\t// out\n\n    auxdata: 0xa2646970667358221220f603e2d5802f3c0d779a68a234cd2f2aca32f40ee4204e455eb79b71a46360cc64736f6c634300081a0033\n}\n",
				"bytecode": {
					"linkReferences": {},
					"object": "6080604052348015600e575f80fd5b506107ee8061001c5f395ff3fe608060405234801561000f575f80fd5b506004361061003e575f3560e01c8062bcdcea14610042578063444744001461005e578063bffa7cb91461008e575b5f80fd5b61005c6004803603810190610057919061030a565b6100be565b005b6100786004803603810190610073919061039a565b61010e565b6040516100859190610435565b60405180910390f35b6100a860048036038101906100a39190610455565b6101a8565b6040516100b59190610435565b60405180910390f35b5f816040516020016100d091906104a0565b60405160208183030381529060405280519060200120905083835f808481526020019081526020015f2091826101079291906106eb565b5050505050565b5f602052805f5260405f205f9150905080546101299061051e565b80601f01602080910402602001604051908101604052809291908181526020018280546101559061051e565b80156101a05780601f10610177576101008083540402835291602001916101a0565b820191905f5260205f20905b81548152906001019060200180831161018357829003601f168201915b505050505081565b60605f80836040516020016101bd91906104a0565b6040516020818303038152906040528051906020012081526020019081526020015f2080546101eb9061051e565b80601f01602080910402602001604051908101604052809291908181526020018280546102179061051e565b80156102625780601f1061023957610100808354040283529160200191610262565b820191905f5260205f20905b81548152906001019060200180831161024557829003601f168201915b50505050509050919050565b5f80fd5b5f80fd5b5f80fd5b5f80fd5b5f80fd5b5f8083601f84011261029757610296610276565b5b8235905067ffffffffffffffff8111156102b4576102b361027a565b5b6020830191508360018202830111156102d0576102cf61027e565b5b9250929050565b5f819050919050565b6102e9816102d7565b81146102f3575f80fd5b50565b5f81359050610304816102e0565b92915050565b5f805f604084860312156103215761032061026e565b5b5f84013567ffffffffffffffff81111561033e5761033d610272565b5b61034a86828701610282565b9350935050602061035d868287016102f6565b9150509250925092565b5f819050919050565b61037981610367565b8114610383575f80fd5b50565b5f8135905061039481610370565b92915050565b5f602082840312156103af576103ae61026e565b5b5f6103bc84828501610386565b91505092915050565b5f81519050919050565b5f82825260208201905092915050565b8281835e5f83830152505050565b5f601f19601f8301169050919050565b5f610407826103c5565b61041181856103cf565b93506104218185602086016103df565b61042a816103ed565b840191505092915050565b5f6020820190508181035f83015261044d81846103fd565b905092915050565b5f6020828403121561046a5761046961026e565b5b5f610477848285016102f6565b91505092915050565b5f819050919050565b61049a610495826102d7565b610480565b82525050565b5f6104ab8284610489565b60208201915081905092915050565b5f82905092915050565b7f4e487b71000000000000000000000000000000000000000000000000000000005f52604160045260245ffd5b7f4e487b71000000000000000000000000000000000000000000000000000000005f52602260045260245ffd5b5f600282049050600182168061053557607f821691505b602082108103610548576105476104f1565b5b50919050565b5f819050815f5260205f209050919050565b5f6020601f8301049050919050565b5f82821b905092915050565b5f600883026105aa7fffffffffffffffffffffffffffffffffffffffffffffffffffffffffffffffff8261056f565b6105b4868361056f565b95508019841693508086168417925050509392505050565b5f819050919050565b5f6105ef6105ea6105e5846102d7565b6105cc565b6102d7565b9050919050565b5f819050919050565b610608836105d5565b61061c610614826105f6565b84845461057b565b825550505050565b5f90565b610630610624565b61063b8184846105ff565b505050565b5b8181101561065e576106535f82610628565b600181019050610641565b5050565b601f8211156106a3576106748161054e565b61067d84610560565b8101602085101561068c578190505b6106a061069885610560565b830182610640565b50505b505050565b5f82821c905092915050565b5f6106c35f19846008026106a8565b1980831691505092915050565b5f6106db83836106b4565b9150826002028217905092915050565b6106f583836104ba565b67ffffffffffffffff81111561070e5761070d6104c4565b5b610718825461051e565b610723828285610662565b5f601f831160018114610750575f841561073e578287013590505b61074885826106d0565b8655506107af565b601f19841661075e8661054e565b5f5b8281101561078557848901358255600182019150602085019450602081019050610760565b868310156107a2578489013561079e601f8916826106b4565b8355505b6001600288020188555050505b5050505050505056fea2646970667358221220f603e2d5802f3c0d779a68a234cd2f2aca32f40ee4204e455eb79b71a46360cc64736f6c634300081a0033",
					"opcodes": "PUSH1 0x80 PUSH1 0x40 MSTORE CALLVALUE DUP1 ISZERO PUSH1 0xE JUMPI PUSH0 DUP1 REVERT JUMPDEST POP PUSH2 0x7EE DUP1 PUSH2 0x1C PUSH0 CODECOPY PUSH0 RETURN INVALID PUSH1 0x80 PUSH1 0x40 MSTORE CALLVALUE DUP1 ISZERO PUSH2 0xF JUMPI PUSH0 DUP1 REVERT JUMPDEST POP PUSH1 0x4 CALLDATASIZE LT PUSH2 0x3E JUMPI PUSH0 CALLDATALOAD PUSH1 0xE0 SHR DUP1 PUSH3 0xBCDCEA EQ PUSH2 0x42 JUMPI DUP1 PUSH4 0x44474400 EQ PUSH2 0x5E JUMPI DUP1 PUSH4 0xBFFA7CB9 EQ PUSH2 0x8E JUMPI JUMPDEST PUSH0 DUP1 REVERT JUMPDEST PUSH2 0x5C PUSH1 0x4 DUP1 CALLDATASIZE SUB DUP2 ADD SWAP1 PUSH2 0x57 SWAP2 SWAP1 PUSH2 0x30A JUMP JUMPDEST PUSH2 0xBE JUMP JUMPDEST STOP JUMPDEST PUSH2 0x78 PUSH1 0x4 DUP1 CALLDATASIZE SUB DUP2 ADD SWAP1 PUSH2 0x73 SWAP2 SWAP1 PUSH2 0x39A JUMP JUMPDEST PUSH2 0x10E JUMP JUMPDEST PUSH1 0x40 MLOAD PUSH2 0x85 SWAP2 SWAP1 PUSH2 0x435 JUMP JUMPDEST PUSH1 0x40 MLOAD DUP1 SWAP2 SUB SWAP1 RETURN JUMPDEST PUSH2 0xA8 PUSH1 0x4 DUP1 CALLDATASIZE SUB DUP2 ADD SWAP1 PUSH2 0xA3 SWAP2 SWAP1 PUSH2 0x455 JUMP JUMPDEST PUSH2 0x1A8 JUMP JUMPDEST PUSH1 0x40 MLOAD PUSH2 0xB5 SWAP2 SWAP1 PUSH2 0x435 JUMP JUMPDEST PUSH1 0x40 MLOAD DUP1 SWAP2 SUB SWAP1 RETURN JUMPDEST PUSH0 DUP2 PUSH1 0x40 MLOAD PUSH1 0x20 ADD PUSH2 0xD0 SWAP2 SWAP1 PUSH2 0x4A0 JUMP JUMPDEST PUSH1 0x40 MLOAD PUSH1 0x20 DUP2 DUP4 SUB SUB DUP2 MSTORE SWAP1 PUSH1 0x40 MSTORE DUP1 MLOAD SWAP1 PUSH1 0x20 ADD KECCAK256 SWAP1 POP DUP4 DUP4 PUSH0 DUP1 DUP5 DUP2 MSTORE PUSH1 0x20 ADD SWAP1 DUP2 MSTORE PUSH1 0x20 ADD PUSH0 KECCAK256 SWAP2 DUP3 PUSH2 0x107 SWAP3 SWAP2 SWAP1 PUSH2 0x6EB JUMP JUMPDEST POP POP POP POP POP JUMP JUMPDEST PUSH0 PUSH1 0x20 MSTORE DUP1 PUSH0 MSTORE PUSH1 0x40 PUSH0 KECCAK256 PUSH0 SWAP2 POP SWAP1 POP DUP1 SLOAD PUSH2 0x129 SWAP1 PUSH2 0x51E JUMP JUMPDEST DUP1 PUSH1 0x1F ADD PUSH1 0x20 DUP1 SWAP2 DIV MUL PUSH1 0x20 ADD PUSH1 0x40 MLOAD SWAP1 DUP2 ADD PUSH1 0x40 MSTORE DUP1 SWAP3 SWAP2 SWAP1 DUP2 DUP2 MSTORE PUSH1 0x20 ADD DUP3 DUP1 SLOAD PUSH2 0x155 SWAP1 PUSH2 0x51E JUMP JUMPDEST DUP1 ISZERO PUSH2 0x1A0 JUMPI DUP1 PUSH1 0x1F LT PUSH2 0x177 JUMPI PUSH2 0x100 DUP1 DUP4 SLOAD DIV MUL DUP4 MSTORE SWAP2 PUSH1 0x20 ADD SWAP2 PUSH2 0x1A0 JUMP JUMPDEST DUP3 ADD SWAP2 SWAP1 PUSH0 MSTORE PUSH1 0x20 PUSH0 KECCAK256 SWAP1 JUMPDEST DUP2 SLOAD DUP2 MSTORE SWAP1 PUSH1 0x1 ADD SWAP1 PUSH1 0x20 ADD DUP1 DUP4 GT PUSH2 0x183 JUMPI DUP3 SWAP1 SUB PUSH1 0x1F AND DUP3 ADD SWAP2 JUMPDEST POP POP POP POP POP DUP2 JUMP JUMPDEST PUSH1 0x60 PUSH0 DUP1 DUP4 PUSH1 0x40 MLOAD PUSH1 0x20 ADD PUSH2 0x1BD SWAP2 SWAP1 PUSH2 0x4A0 JUMP JUMPDEST PUSH1 0x40 MLOAD PUSH1 0x20 DUP2 DUP4 SUB SUB DUP2 MSTORE SWAP1 PUSH1 0x40 MSTORE DUP1 MLOAD SWAP1 PUSH1 0x20 ADD KECCAK256 DUP2 MSTORE PUSH1 0x20 ADD SWAP1 DUP2 MSTORE PUSH1 0x20 ADD PUSH0 KECCAK256 DUP1 SLOAD PUSH2 0x1EB SWAP1 PUSH2 0x51E JUMP JUMPDEST DUP1 PUSH1 0x1F ADD PUSH1 0x20 DUP1 SWAP2 DIV MUL PUSH1 0x20 ADD PUSH1 0x40 MLOAD SWAP1 DUP2 ADD PUSH1 0x40 MSTORE DUP1 SWAP3 SWAP2 SWAP1 DUP2 DUP2 MSTORE PUSH1 0x20 ADD DUP3 DUP1 SLOAD PUSH2 0x217 SWAP1 PUSH2 0x51E JUMP JUMPDEST DUP1 ISZERO PUSH2 0x262 JUMPI DUP1 PUSH1 0x1F LT PUSH2 0x239 JUMPI PUSH2 0x100 DUP1 DUP4 SLOAD DIV MUL DUP4 MSTORE SWAP2 PUSH1 0x20 ADD SWAP2 PUSH2 0x262 JUMP JUMPDEST DUP3 ADD SWAP2 SWAP1 PUSH0 MSTORE PUSH1 0x20 PUSH0 KECCAK256 SWAP1 JUMPDEST DUP2 SLOAD DUP2 MSTORE SWAP1 PUSH1 0x1 ADD SWAP1 PUSH1 0x20 ADD DUP1 DUP4 GT PUSH2 0x245 JUMPI DUP3 SWAP1 SUB PUSH1 0x1F AND DUP3 ADD SWAP2 JUMPDEST POP POP POP POP POP SWAP1 POP SWAP2 SWAP1 POP JUMP JUMPDEST PUSH0 DUP1 REVERT JUMPDEST PUSH0 DUP1 REVERT JUMPDEST PUSH0 DUP1 REVERT JUMPDEST PUSH0 DUP1 REVERT JUMPDEST PUSH0 DUP1 REVERT JUMPDEST PUSH0 DUP1 DUP4 PUSH1 0x1F DUP5 ADD SLT PUSH2 0x297 JUMPI PUSH2 0x296 PUSH2 0x276 JUMP JUMPDEST JUMPDEST DUP3 CALLDATALOAD SWAP1 POP PUSH8 0xFFFFFFFFFFFFFFFF DUP2 GT ISZERO PUSH2 0x2B4 JUMPI PUSH2 0x2B3 PUSH2 0x27A JUMP JUMPDEST JUMPDEST PUSH1 0x20 DUP4 ADD SWAP2 POP DUP4 PUSH1 0x1 DUP3 MUL DUP4 ADD GT ISZERO PUSH2 0x2D0 JUMPI PUSH2 0x2CF PUSH2 0x27E JUMP JUMPDEST JUMPDEST SWAP3 POP SWAP3 SWAP1 POP JUMP JUMPDEST PUSH0 DUP2 SWAP1 POP SWAP2 SWAP1 POP JUMP JUMPDEST PUSH2 0x2E9 DUP2 PUSH2 0x2D7 JUMP JUMPDEST DUP2 EQ PUSH2 0x2F3 JUMPI PUSH0 DUP1 REVERT JUMPDEST POP JUMP JUMPDEST PUSH0 DUP2 CALLDATALOAD SWAP1 POP PUSH2 0x304 DUP2 PUSH2 0x2E0 JUMP JUMPDEST SWAP3 SWAP2 POP POP JUMP JUMPDEST PUSH0 DUP1 PUSH0 PUSH1 0x40 DUP5 DUP7 SUB SLT ISZERO PUSH2 0x321 JUMPI PUSH2 0x320 PUSH2 0x26E JUMP JUMPDEST JUMPDEST PUSH0 DUP5 ADD CALLDATALOAD PUSH8 0xFFFFFFFFFFFFFFFF DUP2 GT ISZERO PUSH2 0x33E JUMPI PUSH2 0x33D PUSH2 0x272 JUMP JUMPDEST JUMPDEST PUSH2 0x34A DUP7 DUP3 DUP8 ADD PUSH2 0x282 JUMP JUMPDEST SWAP4 POP SWAP4 POP POP PUSH1 0x20 PUSH2 0x35D DUP7 DUP3 DUP8 ADD PUSH2 0x2F6 JUMP JUMPDEST SWAP2 POP POP SWAP3 POP SWAP3 POP SWAP3 JUMP JUMPDEST PUSH0 DUP2 SWAP1 POP SWAP2 SWAP1 POP JUMP JUMPDEST PUSH2 0x379 DUP2 PUSH2 0x367 JUMP JUMPDEST DUP2 EQ PUSH2 0x383 JUMPI PUSH0 DUP1 REVERT JUMPDEST POP JUMP JUMPDEST PUSH0 DUP2 CALLDATALOAD SWAP1 POP PUSH2 0x394 DUP2 PUSH2 0x370 JUMP JUMPDEST SWAP3 SWAP2 POP POP JUMP JUMPDEST PUSH0 PUSH1 0x20 DUP3 DUP5 SUB SLT ISZERO PUSH2 0x3AF JUMPI PUSH2 0x3AE PUSH2 0x26E JUMP JUMPDEST JUMPDEST PUSH0 PUSH2 0x3BC DUP5 DUP3 DUP6 ADD PUSH2 0x386 JUMP JUMPDEST SWAP2 POP POP SWAP3 SWAP2 POP POP JUMP JUMPDEST PUSH0 DUP2 MLOAD SWAP1 POP SWAP2 SWAP1 POP JUMP JUMPDEST PUSH0 DUP3 DUP3 MSTORE PUSH1 0x20 DUP3 ADD SWAP1 POP SWAP3 SWAP2 POP POP JUMP JUMPDEST DUP3 DUP2 DUP4 MCOPY PUSH0 DUP4 DUP4 ADD MSTORE POP POP POP JUMP JUMPDEST PUSH0 PUSH1 0x1F NOT PUSH1 0x1F DUP4 ADD AND SWAP1 POP SWAP2 SWAP1 POP JUMP JUMPDEST PUSH0 PUSH2 0x407 DUP3 PUSH2 0x3C5 JUMP JUMPDEST PUSH2 0x411 DUP2 DUP6 PUSH2 0x3CF JUMP JUMPDEST SWAP4 POP PUSH2 0x421 DUP2 DUP6 PUSH1 0x20 DUP7 ADD PUSH2 0x3DF JUMP JUMPDEST PUSH2 0x42A DUP2 PUSH2 0x3ED JUMP JUMPDEST DUP5 ADD SWAP2 POP POP SWAP3 SWAP2 POP POP JUMP JUMPDEST PUSH0 PUSH1 0x20 DUP3 ADD SWAP1 POP DUP2 DUP2 SUB PUSH0 DUP4 ADD MSTORE PUSH2 0x44D DUP2 DUP5 PUSH2 0x3FD JUMP JUMPDEST SWAP1 POP SWAP3 SWAP2 POP POP JUMP JUMPDEST PUSH0 PUSH1 0x20 DUP3 DUP5 SUB SLT ISZERO PUSH2 0x46A JUMPI PUSH2 0x469 PUSH2 0x26E JUMP JUMPDEST JUMPDEST PUSH0 PUSH2 0x477 DUP5 DUP3 DUP6 ADD PUSH2 0x2F6 JUMP JUMPDEST SWAP2 POP POP SWAP3 SWAP2 POP POP JUMP JUMPDEST PUSH0 DUP2 SWAP1 POP SWAP2 SWAP1 POP JUMP JUMPDEST PUSH2 0x49A PUSH2 0x495 DUP3 PUSH2 0x2D7 JUMP JUMPDEST PUSH2 0x480 JUMP JUMPDEST DUP3 MSTORE POP POP JUMP JUMPDEST PUSH0 PUSH2 0x4AB DUP3 DUP5 PUSH2 0x489 JUMP JUMPDEST PUSH1 0x20 DUP3 ADD SWAP2 POP DUP2 SWAP1 POP SWAP3 SWAP2 POP POP JUMP JUMPDEST PUSH0 DUP3 SWAP1 POP SWAP3 SWAP2 POP POP JUMP JUMPDEST PUSH32 0x4E487B7100000000000000000000000000000000000000000000000000000000 PUSH0 MSTORE PUSH1 0x41 PUSH1 0x4 MSTORE PUSH1 0x24 PUSH0 REVERT JUMPDEST PUSH32 0x4E487B7100000000000000000000000000000000000000000000000000000000 PUSH0 MSTORE PUSH1 0x22 PUSH1 0x4 MSTORE PUSH1 0x24 PUSH0 REVERT JUMPDEST PUSH0 PUSH1 0x2 DUP3 DIV SWAP1 POP PUSH1 0x1 DUP3 AND DUP1 PUSH2 0x535 JUMPI PUSH1 0x7F DUP3 AND SWAP2 POP JUMPDEST PUSH1 0x20 DUP3 LT DUP2 SUB PUSH2 0x548 JUMPI PUSH2 0x547 PUSH2 0x4F1 JUMP JUMPDEST JUMPDEST POP SWAP2 SWAP1 POP JUMP JUMPDEST PUSH0 DUP2 SWAP1 POP DUP2 PUSH0 MSTORE PUSH1 0x20 PUSH0 KECCAK256 SWAP1 POP SWAP2 SWAP1 POP JUMP JUMPDEST PUSH0 PUSH1 0x20 PUSH1 0x1F DUP4 ADD DIV SWAP1 POP SWAP2 SWAP1 POP JUMP JUMPDEST PUSH0 DUP3 DUP3 SHL SWAP1 POP SWAP3 SWAP2 POP POP JUMP JUMPDEST PUSH0 PUSH1 0x8 DUP4 MUL PUSH2 0x5AA PUSH32 0xFFFFFFFFFFFFFFFFFFFFFFFFFFFFFFFFFFFFFFFFFFFFFFFFFFFFFFFFFFFFFFFF DUP3 PUSH2 0x56F JUMP JUMPDEST PUSH2 0x5B4 DUP7 DUP4 PUSH2 0x56F JUMP JUMPDEST SWAP6 POP DUP1 NOT DUP5 AND SWAP4 POP DUP1 DUP7 AND DUP5 OR SWAP3 POP POP POP SWAP4 SWAP3 POP POP POP JUMP JUMPDEST PUSH0 DUP2 SWAP1 POP SWAP2 SWAP1 POP JUMP JUMPDEST PUSH0 PUSH2 0x5EF PUSH2 0x5EA PUSH2 0x5E5 DUP5 PUSH2 0x2D7 JUMP JUMPDEST PUSH2 0x5CC JUMP JUMPDEST PUSH2 0x2D7 JUMP JUMPDEST SWAP1 POP SWAP2 SWAP1 POP JUMP JUMPDEST PUSH0 DUP2 SWAP1 POP SWAP2 SWAP1 POP JUMP JUMPDEST PUSH2 0x608 DUP4 PUSH2 0x5D5 JUMP JUMPDEST PUSH2 0x61C PUSH2 0x614 DUP3 PUSH2 0x5F6 JUMP JUMPDEST DUP5 DUP5 SLOAD PUSH2 0x57B JUMP JUMPDEST DUP3 SSTORE POP POP POP POP JUMP JUMPDEST PUSH0 SWAP1 JUMP JUMPDEST PUSH2 0x630 PUSH2 0x624 JUMP JUMPDEST PUSH2 0x63B DUP2 DUP5 DUP5 PUSH2 0x5FF JUMP JUMPDEST POP POP POP JUMP JUMPDEST JUMPDEST DUP2 DUP2 LT ISZERO PUSH2 0x65E JUMPI PUSH2 0x653 PUSH0 DUP3 PUSH2 0x628 JUMP JUMPDEST PUSH1 0x1 DUP2 ADD SWAP1 POP PUSH2 0x641 JUMP JUMPDEST POP POP JUMP JUMPDEST PUSH1 0x1F DUP3 GT ISZERO PUSH2 0x6A3 JUMPI PUSH2 0x674 DUP2 PUSH2 0x54E JUMP JUMPDEST PUSH2 0x67D DUP5 PUSH2 0x560 JUMP JUMPDEST DUP2 ADD PUSH1 0x20 DUP6 LT ISZERO PUSH2 0x68C JUMPI DUP2 SWAP1 POP JUMPDEST PUSH2 0x6A0 PUSH2 0x698 DUP6 PUSH2 0x560 JUMP JUMPDEST DUP4 ADD DUP3 PUSH2 0x640 JUMP JUMPDEST POP POP JUMPDEST POP POP POP JUMP JUMPDEST PUSH0 DUP3 DUP3 SHR SWAP1 POP SWAP3 SWAP2 POP POP JUMP JUMPDEST PUSH0 PUSH2 0x6C3 PUSH0 NOT DUP5 PUSH1 0x8 MUL PUSH2 0x6A8 JUMP JUMPDEST NOT DUP1 DUP4 AND SWAP2 POP POP SWAP3 SWAP2 POP POP JUMP JUMPDEST PUSH0 PUSH2 0x6DB DUP4 DUP4 PUSH2 0x6B4 JUMP JUMPDEST SWAP2 POP DUP3 PUSH1 0x2 MUL DUP3 OR SWAP1 POP SWAP3 SWAP2 POP POP JUMP JUMPDEST PUSH2 0x6F5 DUP4 DUP4 PUSH2 0x4BA JUMP JUMPDEST PUSH8 0xFFFFFFFFFFFFFFFF DUP2 GT ISZERO PUSH2 0x70E JUMPI PUSH2 0x70D PUSH2 0x4C4 JUMP JUMPDEST JUMPDEST PUSH2 0x718 DUP3 SLOAD PUSH2 0x51E JUMP JUMPDEST PUSH2 0x723 DUP3 DUP3 DUP6 PUSH2 0x662 JUMP JUMPDEST PUSH0 PUSH1 0x1F DUP4 GT PUSH1 0x1 DUP2 EQ PUSH2 0x750 JUMPI PUSH0 DUP5 ISZERO PUSH2 0x73E JUMPI DUP3 DUP8 ADD CALLDATALOAD SWAP1 POP JUMPDEST PUSH2 0x748 DUP6 DUP3 PUSH2 0x6D0 JUMP JUMPDEST DUP7 SSTORE POP PUSH2 0x7AF JUMP JUMPDEST PUSH1 0x1F NOT DUP5 AND PUSH2 0x75E DUP7 PUSH2 0x54E JUMP JUMPDEST PUSH0 JUMPDEST DUP3 DUP2 LT ISZERO PUSH2 0x785 JUMPI DUP5 DUP10 ADD CALLDATALOAD DUP3 SSTORE PUSH1 0x1 DUP3 ADD SWAP2 POP PUSH1 0x20 DUP6 ADD SWAP5 POP PUSH1 0x20 DUP2 ADD SWAP1 POP PUSH2 0x760 JUMP JUMPDEST DUP7 DUP4 LT ISZERO PUSH2 0x7A2 JUMPI DUP5 DUP10 ADD CALLDATALOAD PUSH2 0x79E PUSH1 0x1F DUP10 AND DUP3 PUSH2 0x6B4 JUMP JUMPDEST DUP4 SSTORE POP JUMPDEST PUSH1 0x1 PUSH1 0x2 DUP9 MUL ADD DUP9 SSTORE POP POP POP JUMPDEST POP POP POP POP POP POP POP JUMP INVALID LOG2 PUSH5 0x6970667358 0x22 SLT KECCAK256 0xF6 SUB 0xE2 0xD5 DUP1 0x2F EXTCODECOPY 0xD PUSH24 0x9A68A234CD2F2ACA32F40EE4204E455EB79B71A46360CC64 PUSH20 0x6F6C634300081A00330000000000000000000000 "
				},
				"gasEstimates": {
					"creation": {
						"codeDepositCost": "406000",
						"executionCost": "441",
						"totalCost": "406441"
					},
					"external": {
						"commit(string,uint256)": "infinite",
						"snapshots(bytes32)": "infinite",
						"viewAt(uint256)": "infinite"
					}
				},
				"methodIdentifiers": {
					"commit(string,uint256)": "00bcdcea",
					"snapshots(bytes32)": "44474400",
					"viewAt(uint256)": "bffa7cb9"
				}
			},
			"storageLayout": {
				"storage": [
					{
						"astId": 145,
						"contract": "P/Polyinstantiation/Polyinstantiation.sol:VersionState",
						"label": "snapshots",
						"offset": 0,
						"slot": "0",
						"type": "t_mapping(t_bytes32,t_string_storage)"
					}
				],
				"types": {
					"t_bytes32": {
						"encoding": "inplace",
						"label": "bytes32",
						"numberOfBytes": "32"
					},
					"t_mapping(t_bytes32,t_string_storage)": {
						"encoding": "mapping",
						"key": "t_bytes32",
						"label": "mapping(bytes32 => string)",
						"numberOfBytes": "32",
						"value": "t_string_storage"
					},
					"t_string_storage": {
						"encoding": "bytes",
						"label": "string",
						"numberOfBytes": "32"
					}
				}
			},
			"userdoc": {
				"kind": "user",
				"methods": {},
				"version": 1
			}
		}
	}
}