{
	"P/Polyinstantiation/Polyinstantiation.sol": {
		"RoleBasedData": {
			"abi": [
				{
					"inputs": [
						{
							"internalType": "string",
							"name": "key",
							"type": "string"
						}
					],
					"name": "getView",
					"outputs": [
						{
							"internalType": "string",
							"name": "",
							"type": "string"
						}
					],
					"stateMutability": "view",
					"type": "function"
				},
				{
					"inputs": [
						{
							"internalType": "address",
							"name": "",
							"type": "address"
						}
					],
					"name": "role",
					"outputs": [
						{
							"internalType": "uint8",
							"name": "",
							"type": "uint8"
						}
					],
					"stateMutability": "view",
					"type": "function"
				},
				{
					"inputs": [
						{
							"internalType": "address",
							"name": "user",
							"type": "address"
						},
						{
							"internalType": "uint8",
							"name": "r",
							"type": "uint8"
						}
					],
					"name": "setRole",
					"outputs": [],
					"stateMutability": "nonpayable",
					"type": "function"
				},
				{
					"inputs": [
						{
							"internalType": "string",
							"name": "key",
							"type": "string"
						},
						{
							"internalType": "uint8",
							"name": "r",
							"type": "uint8"
						},
						{
							"internalType": "string",
							"name": "val",
							"type": "string"
						}
					],
					"name": "setView",
					"outputs": [],
					"stateMutability": "nonpayable",
					"type": "function"
				}
			],
			"devdoc": {
				"kind": "dev",
				"methods": {},
				"version": 1
			},
			"evm": {
				"assembly": "    /* \"P/Polyinstantiation/Polyinstantiation.sol\":158:638  contract RoleBasedData {... */\n  mstore(0x40, 0x80)\n  callvalue\n  dup1\n  iszero\n  tag_1\n  jumpi\n  0x00\n  dup1\n  revert\ntag_1:\n  pop\n  dataSize(sub_0)\n  dup1\n  dataOffset(sub_0)\n  0x00\n  codecopy\n  0x00\n  return\nstop\n\nsub_0: assembly {\n        /* \"P/Polyinstantiation/Polyinstantiation.sol\":158:638  contract RoleBasedData {... */\n      mstore(0x40, 0x80)\n      callvalue\n      dup1\n      iszero\n      tag_1\n      jumpi\n      0x00\n      dup1\n      revert\n    tag_1:\n      pop\n      jumpi(tag_2, lt(calldatasize, 0x04))\n      shr(0xe0, calldataload(0x00))\n      dup1\n      0x571c3e60\n      eq\n      tag_3\n      jumpi\n      dup1\n      0x92adb047\n      eq\n      tag_4\n      jumpi\n      dup1\n      0xd590f8c9\n      eq\n      tag_5\n      jumpi\n      dup1\n      0xec7bbdab\n      eq\n      tag_6\n      jumpi\n    tag_2:\n      0x00\n      dup1\n      revert\n        /* \"P/Polyinstantiation/Polyinstantiation.sol\":297:377  function setRole(address user, uint8 r) external {... */\n    tag_3:\n      tag_7\n      0x04\n      dup1\n      calldatasize\n      sub\n      dup2\n      add\n      swap1\n      tag_8\n      swap2\n      swap1\n      tag_9\n      jump\t// in\n    tag_8:\n      tag_10\n      jump\t// in\n    tag_7:\n      stop\n        /* \"P/Polyinstantiation/Polyinstantiation.sol\":505:636  function getView(string calldata key) external view returns (string memory) {... */\n    tag_4:\n      tag_11\n      0x04\n      dup1\n      calldatasize\n      sub\n      dup2\n      add\n      swap1\n      tag_12\n      swap2\n      swap1\n      tag_13\n      jump\t// in\n    tag_12:\n      tag_14\n      jump\t// in\n    tag_11:\n      mload(0x40)\n      tag_15\n      swap2\n      swap1\n      tag_16\n      jump\t// in\n    tag_15:\n      mload(0x40)\n      dup1\n      swap2\n      sub\n      swap1\n      return\n        /* \"P/Polyinstantiation/Polyinstantiation.sol\":187:224  mapping(address => uint8) public role */\n    tag_5:\n      tag_17\n      0x04\n      dup1\n      calldatasize\n      sub\n      dup2\n      add\n      swap1\n      tag_18\n      swap2\n      swap1\n      tag_19\n      jump\t// in\n    tag_18:\n      tag_20\n      jump\t// in\n    tag_17:\n      mload(0x40)\n      tag_21\n      swap2\n      swap1\n      tag_22\n      jump\t// in\n    tag_21:\n      mload(0x40)\n      dup1\n      swap2\n      sub\n      swap1\n      return\n        /* \"P/Polyinstantiation/Polyinstantiation.sol\":383:499  function setView(string calldata key, uint8 r, string calldata val) external {... */\n    tag_6:\n      tag_23\n      0x04\n      dup1\n      calldatasize\n      sub\n      dup2\n      add\n      swap1\n      tag_24\n      swap2\n      swap1\n      tag_25\n      jump\t// in\n    tag_24:\n      tag_26\n      jump\t// in\n    tag_23:\n      stop\n        /* \"P/Polyinstantiation/Polyinstantiation.sol\":297:377  function setRole(address user, uint8 r) external {... */\n    tag_10:\n        /* \"P/Polyinstantiation/Polyinstantiation.sol\":369:370  r */\n      dup1\n        /* \"P/Polyinstantiation/Polyinstantiation.sol\":356:360  role */\n      0x00\n        /* \"P/Polyinstantiation/Polyinstantiation.sol\":356:366  role[user] */\n      dup1\n        /* \"P/Polyinstantiation/Polyinstantiation.sol\":361:365  user */\n      dup5\n        /* \"P/Polyinstantiation/Polyinstantiation.sol\":356:366  role[user] */\n      0xffffffffffffffffffffffffffffffffffffffff\n      and\n      0xffffffffffffffffffffffffffffffffffffffff\n      and\n      dup2\n      mstore\n      0x20\n      add\n      swap1\n      dup2\n      mstore\n      0x20\n      add\n      0x00\n      keccak256\n      0x00\n        /* \"P/Polyinstantiation/Polyinstantiation.sol\":356:370  role[user] = r */\n      0x0100\n      exp\n      dup2\n      sload\n      dup2\n      0xff\n      mul\n      not\n      and\n      swap1\n      dup4\n      0xff\n      and\n      mul\n      or\n      swap1\n      sstore\n      pop\n        /* \"P/Polyinstantiation/Polyinstantiation.sol\":297:377  function setRole(address user, uint8 r) external {... */\n      pop\n      pop\n      jump\t// out\n        /* \"P/Polyinstantiation/Polyinstantiation.sol\":505:636  function getView(string calldata key) external view returns (string memory) {... */\n    tag_14:\n        /* \"P/Polyinstantiation/Polyinstantiation.sol\":566:579  string memory */\n      0x60\n        /* \"P/Polyinstantiation/Polyinstantiation.sol\":598:606  viewData */\n      0x01\n        /* \"P/Polyinstantiation/Polyinstantiation.sol\":607:610  key */\n      dup4\n      dup4\n        /* \"P/Polyinstantiation/Polyinstantiation.sol\":598:611  viewData[key] */\n      mload(0x40)\n      tag_29\n      swap3\n      swap2\n      swap1\n      tag_30\n      jump\t// in\n    tag_29:\n      swap1\n      dup2\n      mstore\n      0x20\n      add\n      mload(0x40)\n      dup1\n      swap2\n      sub\n      swap1\n      keccak256\n        /* \"P/Polyinstantiation/Polyinstantiation.sol\":598:629  viewData[key][role[msg.sender]] */\n      0x00\n        /* \"P/Polyinstantiation/Polyinstantiation.sol\":612:616  role */\n      dup1\n        /* \"P/Polyinstantiation/Polyinstantiation.sol\":612:628  role[msg.sender] */\n      0x00\n        /* \"P/Polyinstantiation/Polyinstantiation.sol\":617:627  msg.sender */\n      caller\n        /* \"P/Polyinstantiation/Polyinstantiation.sol\":612:628  role[msg.sender] */\n      0xffffffffffffffffffffffffffffffffffffffff\n      and\n      0xffffffffffffffffffffffffffffffffffffffff\n      and\n      dup2\n      mstore\n      0x20\n      add\n      swap1\n      dup2\n      mstore\n      0x20\n      add\n      0x00\n      keccak256\n      0x00\n      swap1\n      sload\n      swap1\n      0x0100\n      exp\n      swap1\n      div\n      0xff\n      and\n        /* \"P/Polyinstantiation/Polyinstantiation.sol\":598:629  viewData[key][role[msg.sender]] */\n      0xff\n      and\n      0xff\n      and\n      dup2\n      mstore\n      0x20\n      add\n      swap1\n      dup2\n      mstore\n      0x20\n      add\n      0x00\n      keccak256\n        /* \"P/Polyinstantiation/Polyinstantiation.sol\":591:629  return viewData[key][role[msg.sender]] */\n      dup1\n      sload\n      tag_31\n      swap1\n      tag_32\n      jump\t// in\n    tag_31:\n      dup1\n      0x1f\n      add\n      0x20\n      dup1\n      swap2\n      div\n      mul\n      0x20\n      add\n      mload(0x40)\n      swap1\n      dup2\n      add\n      0x40\n      mstore\n      dup1\n      swap3\n      swap2\n      swap1\n      dup2\n      dup2\n      mstore\n      0x20\n      add\n      dup3\n      dup1\n      sload\n      tag_33\n      swap1\n      tag_32\n      jump\t// in\n    tag_33:\n      dup1\n      iszero\n      tag_34\n      jumpi\n      dup1\n      0x1f\n      lt\n      tag_35\n      jumpi\n      0x0100\n      dup1\n      dup4\n      sload\n      div\n      mul\n      dup4\n      mstore\n      swap2\n      0x20\n      add\n      swap2\n      jump(tag_34)\n    tag_35:\n      dup3\n      add\n      swap2\n      swap1\n      0x00\n      mstore\n      keccak256(0x00, 0x20)\n      swap1\n    tag_36:\n      dup2\n      sload\n      dup2\n      mstore\n      swap1\n      0x01\n      add\n      swap1\n      0x20\n      add\n      dup1\n      dup4\n      gt\n      tag_36\n      jumpi\n      dup3\n      swap1\n      sub\n      0x1f\n      and\n      dup3\n      add\n      swap2\n    tag_34:\n      pop\n      pop\n      pop\n      pop\n      pop\n      swap1\n      pop\n        /* \"P/Polyinstantiation/Polyinstantiation.sol\":505:636  function getView(string calldata key) external view returns (string memory) {... */\n      swap3\n      swap2\n      pop\n      pop\n      jump\t// out\n        /* \"P/Polyinstantiation/Polyinstantiation.sol\":187:224  mapping(address => uint8) public role */\n    tag_20:\n      mstore(0x20, 0x00)\n      dup1\n      0x00\n      mstore\n      keccak256(0x00, 0x40)\n      0x00\n      swap2\n      pop\n      sload\n      swap1\n      0x0100\n      exp\n      swap1\n      div\n      0xff\n      and\n      dup2\n      jump\t// out\n        /* \"P/Polyinstantiation/Polyinstantiation.sol\":383:499  function setView(string calldata key, uint8 r, string calldata val) external {... */\n    tag_26:\n        /* \"P/Polyinstantiation/Polyinstantiation.sol\":489:492  val */\n      dup2\n      dup2\n        /* \"P/Polyinstantiation/Polyinstantiation.sol\":470:478  viewData */\n      0x01\n        /* \"P/Polyinstantiation/Polyinstantiation.sol\":479:482  key */\n      dup8\n      dup8\n        /* \"P/Polyinstantiation/Polyinstantiation.sol\":470:483  viewData[key] */\n      mload(0x40)\n      tag_38\n      swap3\n      swap2\n      swap1\n      tag_30\n      jump\t// in\n    tag_38:\n      swap1\n      dup2\n      mstore\n      0x20\n      add\n      mload(0x40)\n      dup1\n      swap2\n      sub\n      swap1\n      keccak256\n        /* \"P/Polyinstantiation/Polyinstantiation.sol\":470:486  viewData[key][r] */\n      0x00\n        /* \"P/Polyinstantiation/Polyinstantiation.sol\":484:485  r */\n      dup7\n        /* \"P/Polyinstantiation/Polyinstantiation.sol\":470:486  viewData[key][r] */\n      0xff\n      and\n      0xff\n      and\n      dup2\n      mstore\n      0x20\n      add\n      swap1\n      dup2\n      mstore\n      0x20\n      add\n      0x00\n      keccak256\n        /* \"P/Polyinstantiation/Polyinstantiation.sol\":470:492  viewData[key][r] = val */\n      swap2\n      dup3\n      tag_39\n      swap3\n      swap2\n      swap1\n      tag_40\n      jump\t// in\n    tag_39:\n      pop\n        /* \"P/Polyinstantiation/Polyinstantiation.sol\":383:499  function setView(string calldata key, uint8 r, string calldata val) external {... */\n      pop\n      pop\n      pop\n      pop\n      pop\n      jump\t// out\n        /* \"#utility.yul\":88:205   */\n    tag_42:\n        /* \"#utility.yul\":197:198   */\n      0x00\n        /* \"#utility.yul\":194:195   */\n      dup1\n        /* \"#utility.yul\":187:199   */\n      revert\n        /* \"#utility.yul\":211:328   */\n    tag_43:\n        /* \"#utility.yul\":320:321   */\n      0x00\n        /* \"#utility.yul\":317:318   */\n      dup1\n        /* \"#utility.yul\":310:322   */\n      revert\n        /* \"#utility.yul\":334:460   */\n    tag_44:\n        /* \"#utility.yul\":371:378   */\n      0x00\n        /* \"#utility.yul\":411:453   */\n      0xffffffffffffffffffffffffffffffffffffffff\n        /* \"#utility.yul\":404:409   */\n      dup3\n        /* \"#utility.yul\":400:454   */\n      and\n        /* \"#utility.yul\":389:454   */\n      swap1\n      pop\n        /* \"#utility.yul\":334:460   */\n      swap2\n      swap1\n      pop\n      jump\t// out\n        /* \"#utility.yul\":466:562   */\n    tag_45:\n        /* \"#utility.yul\":503:510   */\n      0x00\n        /* \"#utility.yul\":532:556   */\n      tag_89\n        /* \"#utility.yul\":550:555   */\n      dup3\n        /* \"#utility.yul\":532:556   */\n      tag_44\n      jump\t// in\n    tag_89:\n        /* \"#utility.yul\":521:556   */\n      swap1\n      pop\n        /* \"#utility.yul\":466:562   */\n      swap2\n      swap1\n      pop\n      jump\t// out\n        /* \"#utility.yul\":568:690   */\n    tag_46:\n        /* \"#utility.yul\":641:665   */\n      tag_91\n        /* \"#utility.yul\":659:664   */\n      dup2\n        /* \"#utility.yul\":641:665   */\n      tag_45\n      jump\t// in\n    tag_91:\n        /* \"#utility.yul\":634:639   */\n      dup2\n        /* \"#utility.yul\":631:666   */\n      eq\n        /* \"#utility.yul\":621:684   */\n      tag_92\n      jumpi\n        /* \"#utility.yul\":680:681   */\n      0x00\n        /* \"#utility.yul\":677:678   */\n      dup1\n        /* \"#utility.yul\":670:682   */\n      revert\n        /* \"#utility.yul\":621:684   */\n    tag_92:\n        /* \"#utility.yul\":568:690   */\n      pop\n      jump\t// out\n        /* \"#utility.yul\":696:835   */\n    tag_47:\n        /* \"#utility.yul\":742:747   */\n      0x00\n        /* \"#utility.yul\":780:786   */\n      dup2\n        /* \"#utility.yul\":767:787   */\n      calldataload\n        /* \"#utility.yul\":758:787   */\n      swap1\n      pop\n        /* \"#utility.yul\":796:829   */\n      tag_94\n        /* \"#utility.yul\":823:828   */\n      dup2\n        /* \"#utility.yul\":796:829   */\n      tag_46\n      jump\t// in\n    tag_94:\n        /* \"#utility.yul\":696:835   */\n      swap3\n      swap2\n      pop\n      pop\n      jump\t// out\n        /* \"#utility.yul\":841:927   */\n    tag_48:\n        /* \"#utility.yul\":876:883   */\n      0x00\n        /* \"#utility.yul\":916:920   */\n      0xff\n        /* \"#utility.yul\":909:914   */\n      dup3\n        /* \"#utility.yul\":905:921   */\n      and\n        /* \"#utility.yul\":894:921   */\n      swap1\n      pop\n        /* \"#utility.yul\":841:927   */\n      swap2\n      swap1\n      pop\n      jump\t// out\n        /* \"#utility.yul\":933:1051   */\n    tag_49:\n        /* \"#utility.yul\":1004:1026   */\n      tag_97\n        /* \"#utility.yul\":1020:1025   */\n      dup2\n        /* \"#utility.yul\":1004:1026   */\n      tag_48\n      jump\t// in\n    tag_97:\n        /* \"#utility.yul\":997:1002   */\n      dup2\n        /* \"#utility.yul\":994:1027   */\n      eq\n        /* \"#utility.yul\":984:1045   */\n      tag_98\n      jumpi\n        /* \"#utility.yul\":1041:1042   */\n      0x00\n        /* \"#utility.yul\":1038:1039   */\n      dup1\n        /* \"#utility.yul\":1031:1043   */\n      revert\n        /* \"#utility.yul\":984:1045   */\n    tag_98:\n        /* \"#utility.yul\":933:1051   */\n      pop\n      jump\t// out\n        /* \"#utility.yul\":1057:1192   */\n    tag_50:\n        /* \"#utility.yul\":1101:1106   */\n      0x00\n        /* \"#utility.yul\":1139:1145   */\n      dup2\n        /* \"#utility.yul\":1126:1146   */\n      calldataload\n        /* \"#utility.yul\":1117:1146   */\n      swap1\n      pop\n        /* \"#utility.yul\":1155:1186   */\n      tag_100\n        /* \"#utility.yul\":1180:1185   */\n      dup2\n        /* \"#utility.yul\":1155:1186   */\n      tag_49\n      jump\t// in\n    tag_100:\n        /* \"#utility.yul\":1057:1192   */\n      swap3\n      swap2\n      pop\n      pop\n      jump\t// out\n        /* \"#utility.yul\":1198:1668   */\n    tag_9:\n        /* \"#utility.yul\":1264:1270   */\n      0x00\n        /* \"#utility.yul\":1272:1278   */\n      dup1\n        /* \"#utility.yul\":1321:1323   */\n      0x40\n        /* \"#utility.yul\":1309:1318   */\n      dup4\n        /* \"#utility.yul\":1300:1307   */\n      dup6\n        /* \"#utility.yul\":1296:1319   */\n      sub\n        /* \"#utility.yul\":1292:1324   */\n      slt\n        /* \"#utility.yul\":1289:1408   */\n      iszero\n      tag_102\n      jumpi\n        /* \"#utility.yul\":1327:1406   */\n      tag_103\n      tag_42\n      jump\t// in\n    tag_103:\n        /* \"#utility.yul\":1289:1408   */\n    tag_102:\n        /* \"#utility.yul\":1447:1448   */\n      0x00\n        /* \"#utility.yul\":1472:1525   */\n      tag_104\n        /* \"#utility.yul\":1517:1524   */\n      dup6\n        /* \"#utility.yul\":1508:1514   */\n      dup3\n        /* \"#utility.yul\":1497:1506   */\n      dup7\n        /* \"#utility.yul\":1493:1515   */\n      add\n        /* \"#utility.yul\":1472:1525   */\n      tag_47\n      jump\t// in\n    tag_104:\n        /* \"#utility.yul\":1462:1525   */\n      swap3\n      pop\n        /* \"#utility.yul\":1418:1535   */\n      pop\n        /* \"#utility.yul\":1574:1576   */\n      0x20\n        /* \"#utility.yul\":1600:1651   */\n      tag_105\n        /* \"#utility.yul\":1643:1650   */\n      dup6\n        /* \"#utility.yul\":1634:1640   */\n      dup3\n        /* \"#utility.yul\":1623:1632   */\n      dup7\n        /* \"#utility.yul\":1619:1641   */\n      add\n        /* \"#utility.yul\":1600:1651   */\n      tag_50\n      jump\t// in\n    tag_105:\n        /* \"#utility.yul\":1590:1651   */\n      swap2\n      pop\n        /* \"#utility.yul\":1545:1661   */\n      pop\n        /* \"#utility.yul\":1198:1668   */\n      swap3\n      pop\n      swap3\n      swap1\n      pop\n      jump\t// out\n        /* \"#utility.yul\":1674:1791   */\n    tag_51:\n        /* \"#utility.yul\":1783:1784   */\n      0x00\n        /* \"#utility.yul\":1780:1781   */\n      dup1\n        /* \"#utility.yul\":1773:1785   */\n      revert\n        /* \"#utility.yul\":1797:1914   */\n    tag_52:\n        /* \"#utility.yul\":1906:1907   */\n      0x00\n        /* \"#utility.yul\":1903:1904   */\n      dup1\n        /* \"#utility.yul\":1896:1908   */\n      revert\n        /* \"#utility.yul\":1920:2037   */\n    tag_53:\n        /* \"#utility.yul\":2029:2030   */\n      0x00\n        /* \"#utility.yul\":2026:2027   */\n      dup1\n        /* \"#utility.yul\":2019:2031   */\n      revert\n        /* \"#utility.yul\":2057:2610   */\n    tag_54:\n        /* \"#utility.yul\":2115:2123   */\n      0x00\n        /* \"#utility.yul\":2125:2131   */\n      dup1\n        /* \"#utility.yul\":2175:2178   */\n      dup4\n        /* \"#utility.yul\":2168:2172   */\n      0x1f\n        /* \"#utility.yul\":2160:2166   */\n      dup5\n        /* \"#utility.yul\":2156:2173   */\n      add\n        /* \"#utility.yul\":2152:2179   */\n      slt\n        /* \"#utility.yul\":2142:2264   */\n      tag_110\n      jumpi\n        /* \"#utility.yul\":2183:2262   */\n      tag_111\n      tag_51\n      jump\t// in\n    tag_111:\n        /* \"#utility.yul\":2142:2264   */\n    tag_110:\n        /* \"#utility.yul\":2296:2302   */\n      dup3\n        /* \"#utility.yul\":2283:2303   */\n      calldataload\n        /* \"#utility.yul\":2273:2303   */\n      swap1\n      pop\n        /* \"#utility.yul\":2326:2344   */\n      0xffffffffffffffff\n        /* \"#utility.yul\":2318:2324   */\n      dup2\n        /* \"#utility.yul\":2315:2345   */\n      gt\n        /* \"#utility.yul\":2312:2429   */\n      iszero\n      tag_112\n      jumpi\n        /* \"#utility.yul\":2348:2427   */\n      tag_113\n      tag_52\n      jump\t// in\n    tag_113:\n        /* \"#utility.yul\":2312:2429   */\n    tag_112:\n        /* \"#utility.yul\":2462:2466   */\n      0x20\n        /* \"#utility.yul\":2454:2460   */\n      dup4\n        /* \"#utility.yul\":2450:2467   */\n      add\n        /* \"#utility.yul\":2438:2467   */\n      swap2\n      pop\n        /* \"#utility.yul\":2516:2519   */\n      dup4\n        /* \"#utility.yul\":2508:2512   */\n      0x01\n        /* \"#utility.yul\":2500:2506   */\n      dup3\n        /* \"#utility.yul\":2496:2513   */\n      mul\n        /* \"#utility.yul\":2486:2494   */\n      dup4\n        /* \"#utility.yul\":2482:2514   */\n      add\n        /* \"#utility.yul\":2479:2520   */\n      gt\n        /* \"#utility.yul\":2476:2604   */\n      iszero\n      tag_114\n      jumpi\n        /* \"#utility.yul\":2523:2602   */\n      tag_115\n      tag_53\n      jump\t// in\n    tag_115:\n        /* \"#utility.yul\":2476:2604   */\n    tag_114:\n        /* \"#utility.yul\":2057:2610   */\n      swap3\n      pop\n      swap3\n      swap1\n      pop\n      jump\t// out\n        /* \"#utility.yul\":2616:3145   */\n    tag_13:\n        /* \"#utility.yul\":2687:2693   */\n      0x00\n        /* \"#utility.yul\":2695:2701   */\n      dup1\n        /* \"#utility.yul\":2744:2746   */\n      0x20\n        /* \"#utility.yul\":2732:2741   */\n      dup4\n        /* \"#utility.yul\":2723:2730   */\n      dup6\n        /* \"#utility.yul\":2719:2742   */\n      sub\n        /* \"#utility.yul\":2715:2747   */\n      slt\n        /* \"#utility.yul\":2712:2831   */\n      iszero\n      tag_117\n      jumpi\n        /* \"#utility.yul\":2750:2829   */\n      tag_118\n      tag_42\n      jump\t// in\n    tag_118:\n        /* \"#utility.yul\":2712:2831   */\n    tag_117:\n        /* \"#utility.yul\":2898:2899   */\n      0x00\n        /* \"#utility.yul\":2887:2896   */\n      dup4\n        /* \"#utility.yul\":2883:2900   */\n      add\n        /* \"#utility.yul\":2870:2901   */\n      calldataload\n        /* \"#utility.yul\":2928:2946   */\n      0xffffffffffffffff\n        /* \"#utility.yul\":2920:2926   */\n      dup2\n        /* \"#utility.yul\":2917:2947   */\n      gt\n        /* \"#utility.yul\":2914:3031   */\n      iszero\n      tag_119\n      jumpi\n        /* \"#utility.yul\":2950:3029   */\n      tag_120\n      tag_43\n      jump\t// in\n    tag_120:\n        /* \"#utility.yul\":2914:3031   */\n    tag_119:\n        /* \"#utility.yul\":3063:3128   */\n      tag_121\n        /* \"#utility.yul\":3120:3127   */\n      dup6\n        /* \"#utility.yul\":3111:3117   */\n      dup3\n        /* \"#utility.yul\":3100:3109   */\n      dup7\n        /* \"#utility.yul\":3096:3118   */\n      add\n        /* \"#utility.yul\":3063:3128   */\n      tag_54\n      jump\t// in\n    tag_121:\n        /* \"#utility.yul\":3045:3128   */\n      swap3\n      pop\n      swap3\n      pop\n        /* \"#utility.yul\":2841:3138   */\n      pop\n        /* \"#utility.yul\":2616:3145   */\n      swap3\n      pop\n      swap3\n      swap1\n      pop\n      jump\t// out\n        /* \"#utility.yul\":3151:3250   */\n    tag_55:\n        /* \"#utility.yul\":3203:3209   */\n      0x00\n        /* \"#utility.yul\":3237:3242   */\n      dup2\n        /* \"#utility.yul\":3231:3243   */\n      mload\n        /* \"#utility.yul\":3221:3243   */\n      swap1\n      pop\n        /* \"#utility.yul\":3151:3250   */\n      swap2\n      swap1\n      pop\n      jump\t// out\n        /* \"#utility.yul\":3256:3425   */\n    tag_56:\n        /* \"#utility.yul\":3340:3351   */\n      0x00\n        /* \"#utility.yul\":3374:3380   */\n      dup3\n        /* \"#utility.yul\":3369:3372   */\n      dup3\n        /* \"#utility.yul\":3362:3381   */\n      mstore\n        /* \"#utility.yul\":3414:3418   */\n      0x20\n        /* \"#utility.yul\":3409:3412   */\n      dup3\n        /* \"#utility.yul\":3405:3419   */\n      add\n        /* \"#utility.yul\":3390:3419   */\n      swap1\n      pop\n        /* \"#utility.yul\":3256:3425   */\n      swap3\n      swap2\n      pop\n      pop\n      jump\t// out\n        /* \"#utility.yul\":3431:3570   */\n    tag_57:\n        /* \"#utility.yul\":3520:3526   */\n      dup3\n        /* \"#utility.yul\":3515:3518   */\n      dup2\n        /* \"#utility.yul\":3510:3513   */\n      dup4\n        /* \"#utility.yul\":3504:3527   */\n      mcopy\n        /* \"#utility.yul\":3561:3562   */\n      0x00\n        /* \"#utility.yul\":3552:3558   */\n      dup4\n        /* \"#utility.yul\":3547:3550   */\n      dup4\n        /* \"#utility.yul\":3543:3559   */\n      add\n        /* \"#utility.yul\":3536:3563   */\n      mstore\n        /* \"#utility.yul\":3431:3570   */\n      pop\n      pop\n      pop\n      jump\t// out\n        /* \"#utility.yul\":3576:3678   */\n    tag_58:\n        /* \"#utility.yul\":3617:3623   */\n      0x00\n        /* \"#utility.yul\":3668:3670   */\n      0x1f\n        /* \"#utility.yul\":3664:3671   */\n      not\n        /* \"#utility.yul\":3659:3661   */\n      0x1f\n        /* \"#utility.yul\":3652:3657   */\n      dup4\n        /* \"#utility.yul\":3648:3662   */\n      add\n        /* \"#utility.yul\":3644:3672   */\n      and\n        /* \"#utility.yul\":3634:3672   */\n      swap1\n      pop\n        /* \"#utility.yul\":3576:3678   */\n      swap2\n      swap1\n      pop\n      jump\t// out\n        /* \"#utility.yul\":3684:4061   */\n    tag_59:\n        /* \"#utility.yul\":3772:3775   */\n      0x00\n        /* \"#utility.yul\":3800:3839   */\n      tag_127\n        /* \"#utility.yul\":3833:3838   */\n      dup3\n        /* \"#utility.yul\":3800:3839   */\n      tag_55\n      jump\t// in\n    tag_127:\n        /* \"#utility.yul\":3855:3926   */\n      tag_128\n        /* \"#utility.yul\":3919:3925   */\n      dup2\n        /* \"#utility.yul\":3914:3917   */\n      dup6\n        /* \"#utility.yul\":3855:3926   */\n      tag_56\n      jump\t// in\n    tag_128:\n        /* \"#utility.yul\":3848:3926   */\n      swap4\n      pop\n        /* \"#utility.yul\":3935:4000   */\n      tag_129\n        /* \"#utility.yul\":3993:3999   */\n      dup2\n        /* \"#utility.yul\":3988:3991   */\n      dup6\n        /* \"#utility.yul\":3981:3985   */\n      0x20\n        /* \"#utility.yul\":3974:3979   */\n      dup7\n        /* \"#utility.yul\":3970:3986   */\n      add\n        /* \"#utility.yul\":3935:4000   */\n      tag_57\n      jump\t// in\n    tag_129:\n        /* \"#utility.yul\":4025:4054   */\n      tag_130\n        /* \"#utility.yul\":4047:4053   */\n      dup2\n        /* \"#utility.yul\":4025:4054   */\n      tag_58\n      jump\t// in\n    tag_130:\n        /* \"#utility.yul\":4020:4023   */\n      dup5\n        /* \"#utility.yul\":4016:4055   */\n      add\n        /* \"#utility.yul\":4009:4055   */\n      swap2\n      pop\n        /* \"#utility.yul\":3776:4061   */\n      pop\n        /* \"#utility.yul\":3684:4061   */\n      swap3\n      swap2\n      pop\n      pop\n      jump\t// out\n        /* \"#utility.yul\":4067:4380   */\n    tag_16:\n        /* \"#utility.yul\":4180:4184   */\n      0x00\n        /* \"#utility.yul\":4218:4220   */\n      0x20\n        /* \"#utility.yul\":4207:4216   */\n      dup3\n        /* \"#utility.yul\":4203:4221   */\n      add\n        /* \"#utility.yul\":4195:4221   */\n      swap1\n      pop\n        /* \"#utility.yul\":4267:4276   */\n      dup2\n        /* \"#utility.yul\":4261:4265   */\n      dup2\n        /* \"#utility.yul\":4257:4277   */\n      sub\n        /* \"#utility.yul\":4253:4254   */\n      0x00\n        /* \"#utility.yul\":4242:4251   */\n      dup4\n        /* \"#utility.yul\":4238:4255   */\n      add\n        /* \"#utility.yul\":4231:4278   */\n      mstore\n        /* \"#utility.yul\":4295:4373   */\n      tag_132\n        /* \"#utility.yul\":4368:4372   */\n      dup2\n        /* \"#utility.yul\":4359:4365   */\n      dup5\n        /* \"#utility.yul\":4295:4373   */\n      tag_59\n      jump\t// in\n    tag_132:\n        /* \"#utility.yul\":4287:4373   */\n      swap1\n      pop\n        /* \"#utility.yul\":4067:4380   */\n      swap3\n      swap2\n      pop\n      pop\n      jump\t// out\n        /* \"#utility.yul\":4386:4715   */\n    tag_19:\n        /* \"#utility.yul\":4445:4451   */\n      0x00\n        /* \"#utility.yul\":4494:4496   */\n      0x20\n        /* \"#utility.yul\":4482:4491   */\n      dup3\n        /* \"#utility.yul\":4473:4480   */\n      dup5\n        /* \"#utility.yul\":4469:4492   */\n      sub\n        /* \"#utility.yul\":4465:4497   */\n      slt\n        /* \"#utility.yul\":4462:4581   */\n      iszero\n      tag_134\n      jumpi\n        /* \"#utility.yul\":4500:4579   */\n      tag_135\n      tag_42\n      jump\t// in\n    tag_135:\n        /* \"#utility.yul\":4462:4581   */\n    tag_134:\n        /* \"#utility.yul\":4620:4621   */\n      0x00\n        /* \"#utility.yul\":4645:4698   */\n      tag_136\n        /* \"#utility.yul\":4690:4697   */\n      dup5\n        /* \"#utility.yul\":4681:4687   */\n      dup3\n        /* \"#utility.yul\":4670:4679   */\n      dup6\n        /* \"#utility.yul\":4666:4688   */\n      add\n        /* \"#utility.yul\":4645:4698   */\n      tag_47\n      jump\t// in\n    tag_136:\n        /* \"#utility.yul\":4635:4698   */\n      swap2\n      pop\n        /* \"#utility.yul\":4591:4708   */\n      pop\n        /* \"#utility.yul\":4386:4715   */\n      swap3\n      swap2\n      pop\n      pop\n      jump\t// out\n        /* \"#utility.yul\":4721:4833   */\n    tag_60:\n        /* \"#utility.yul\":4804:4826   */\n      tag_138\n        /* \"#utility.yul\":4820:4825   */\n      dup2\n        /* \"#utility.yul\":4804:4826   */\n      tag_48\n      jump\t// in\n    tag_138:\n        /* \"#utility.yul\":4799:4802   */\n      dup3\n        /* \"#utility.yul\":4792:4827   */\n      mstore\n        /* \"#utility.yul\":4721:4833   */\n      pop\n      pop\n      jump\t// out\n        /* \"#utility.yul\":4839:5053   */\n    tag_22:\n        /* \"#utility.yul\":4928:4932   */\n      0x00\n        /* \"#utility.yul\":4966:4968   */\n      0x20\n        /* \"#utility.yul\":4955:4964   */\n      dup3\n        /* \"#utility.yul\":4951:4969   */\n      add\n        /* \"#utility.yul\":4943:4969   */\n      swap1\n      pop\n        /* \"#utility.yul\":4979:5046   */\n      tag_140\n        /* \"#utility.yul\":5043:5044   */\n      0x00\n        /* \"#utility.yul\":5032:5041   */\n      dup4\n        /* \"#utility.yul\":5028:5045   */\n      add\n        /* \"#utility.yul\":5019:5025   */\n      dup5\n        /* \"#utility.yul\":4979:5046   */\n      tag_60\n      jump\t// in\n    tag_140:\n        /* \"#utility.yul\":4839:5053   */\n      swap3\n      swap2\n      pop\n      pop\n      jump\t// out\n        /* \"#utility.yul\":5059:6074   */\n    tag_25:\n        /* \"#utility.yul\":5158:5164   */\n      0x00\n        /* \"#utility.yul\":5166:5172   */\n      dup1\n        /* \"#utility.yul\":5174:5180   */\n      0x00\n        /* \"#utility.yul\":5182:5188   */\n      dup1\n        /* \"#utility.yul\":5190:5196   */\n      0x00\n        /* \"#utility.yul\":5239:5241   */\n      0x60\n        /* \"#utility.yul\":5227:5236   */\n      dup7\n        /* \"#utility.yul\":5218:5225   */\n      dup9\n        /* \"#utility.yul\":5214:5237   */\n      sub\n        /* \"#utility.yul\":5210:5242   */\n      slt\n        /* \"#utility.yul\":5207:5326   */\n      iszero\n      tag_142\n      jumpi\n        /* \"#utility.yul\":5245:5324   */\n      tag_143\n      tag_42\n      jump\t// in\n    tag_143:\n        /* \"#utility.yul\":5207:5326   */\n    tag_142:\n        /* \"#utility.yul\":5393:5394   */\n      0x00\n        /* \"#utility.yul\":5382:5391   */\n      dup7\n        /* \"#utility.yul\":5378:5395   */\n      add\n        /* \"#utility.yul\":5365:5396   */\n      calldataload\n        /* \"#utility.yul\":5423:5441   */\n      0xffffffffffffffff\n        /* \"#utility.yul\":5415:5421   */\n      dup2\n        /* \"#utility.yul\":5412:5442   */\n      gt\n        /* \"#utility.yul\":5409:5526   */\n      iszero\n      tag_144\n      jumpi\n        /* \"#utility.yul\":5445:5524   */\n      tag_145\n      tag_43\n      jump\t// in\n    tag_145:\n        /* \"#utility.yul\":5409:5526   */\n    tag_144:\n        /* \"#utility.yul\":5558:5623   */\n      tag_146\n        /* \"#utility.yul\":5615:5622   */\n      dup9\n        /* \"#utility.yul\":5606:5612   */\n      dup3\n        /* \"#utility.yul\":5595:5604   */\n      dup10\n        /* \"#utility.yul\":5591:5613   */\n      add\n        /* \"#utility.yul\":5558:5623   */\n      tag_54\n      jump\t// in\n    tag_146:\n        /* \"#utility.yul\":5540:5623   */\n      swap6\n      pop\n      swap6\n      pop\n        /* \"#utility.yul\":5336:5633   */\n      pop\n        /* \"#utility.yul\":5672:5674   */\n      0x20\n        /* \"#utility.yul\":5698:5749   */\n      tag_147\n        /* \"#utility.yul\":5741:5748   */\n      dup9\n        /* \"#utility.yul\":5732:5738   */\n      dup3\n        /* \"#utility.yul\":5721:5730   */\n      dup10\n        /* \"#utility.yul\":5717:5739   */\n      add\n        /* \"#utility.yul\":5698:5749   */\n      tag_50\n      jump\t// in\n    tag_147:\n        /* \"#utility.yul\":5688:5749   */\n      swap4\n      pop\n        /* \"#utility.yul\":5643:5759   */\n      pop\n        /* \"#utility.yul\":5826:5828   */\n      0x40\n        /* \"#utility.yul\":5815:5824   */\n      dup7\n        /* \"#utility.yul\":5811:5829   */\n      add\n        /* \"#utility.yul\":5798:5830   */\n      calldataload\n        /* \"#utility.yul\":5857:5875   */\n      0xffffffffffffffff\n        /* \"#utility.yul\":5849:5855   */\n      dup2\n        /* \"#utility.yul\":5846:5876   */\n      gt\n        /* \"#utility.yul\":5843:5960   */\n      iszero\n      tag_148\n      jumpi\n        /* \"#utility.yul\":5879:5958   */\n      tag_149\n      tag_43\n      jump\t// in\n    tag_149:\n        /* \"#utility.yul\":5843:5960   */\n    tag_148:\n        /* \"#utility.yul\":5992:6057   */\n      tag_150\n        /* \"#utility.yul\":6049:6056   */\n      dup9\n        /* \"#utility.yul\":6040:6046   */\n      dup3\n        /* \"#utility.yul\":6029:6038   */\n      dup10\n        /* \"#utility.yul\":6025:6047   */\n      add\n        /* \"#utility.yul\":5992:6057   */\n      tag_54\n      jump\t// in\n    tag_150:\n        /* \"#utility.yul\":5974:6057   */\n      swap3\n      pop\n      swap3\n      pop\n        /* \"#utility.yul\":5769:6067   */\n      pop\n        /* \"#utility.yul\":5059:6074   */\n      swap3\n      swap6\n      pop\n      swap3\n      swap6\n      swap1\n      swap4\n      pop\n      jump\t// out\n        /* \"#utility.yul\":6080:6228   */\n    tag_61:\n        /* \"#utility.yul\":6182:6193   */\n      0x00\n        /* \"#utility.yul\":6219:6222   */\n      dup2\n        /* \"#utility.yul\":6204:6222   */\n      swap1\n      pop\n        /* \"#utility.yul\":6080:6228   */\n      swap3\n      swap2\n      pop\n      pop\n      jump\t// out\n        /* \"#utility.yul\":6234:6382   */\n    tag_62:\n        /* \"#utility.yul\":6332:6338   */\n      dup3\n        /* \"#utility.yul\":6327:6330   */\n      dup2\n        /* \"#utility.yul\":6322:6325   */\n      dup4\n        /* \"#utility.yul\":6309:6339   */\n      calldatacopy\n        /* \"#utility.yul\":6373:6374   */\n      0x00\n        /* \"#utility.yul\":6364:6370   */\n      dup4\n        /* \"#utility.yul\":6359:6362   */\n      dup4\n        /* \"#utility.yul\":6355:6371   */\n      add\n        /* \"#utility.yul\":6348:6375   */\n      mstore\n        /* \"#utility.yul\":6234:6382   */\n      pop\n      pop\n      pop\n      jump\t// out\n        /* \"#utility.yul\":6412:6742   */\n    tag_63:\n        /* \"#utility.yul\":6528:6531   */\n      0x00\n        /* \"#utility.yul\":6549:6638   */\n      tag_154\n        /* \"#utility.yul\":6631:6637   */\n      dup4\n        /* \"#utility.yul\":6626:6629   */\n      dup6\n        /* \"#utility.yul\":6549:6638   */\n      tag_61\n      jump\t// in\n    tag_154:\n        /* \"#utility.yul\":6542:6638   */\n      swap4\n      pop\n        /* \"#utility.yul\":6648:6704   */\n      tag_155\n        /* \"#utility.yul\":6697:6703   */\n      dup4\n        /* \"#utility.yul\":6692:6695   */\n      dup6\n        /* \"#utility.yul\":6685:6690   */\n      dup5\n        /* \"#utility.yul\":6648:6704   */\n      tag_62\n      jump\t// in\n    tag_155:\n        /* \"#utility.yul\":6729:6735   */\n      dup3\n        /* \"#utility.yul\":6724:6727   */\n      dup5\n        /* \"#utility.yul\":6720:6736   */\n      add\n        /* \"#utility.yul\":6713:6736   */\n      swap1\n      pop\n        /* \"#utility.yul\":6412:6742   */\n      swap4\n      swap3\n      pop\n      pop\n      pop\n      jump\t// out\n        /* \"#utility.yul\":6748:7043   */\n    tag_30:\n        /* \"#utility.yul\":6890:6893   */\n      0x00\n        /* \"#utility.yul\":6912:7017   */\n      tag_157\n        /* \"#utility.yul\":7013:7016   */\n      dup3\n        /* \"#utility.yul\":7004:7010   */\n      dup5\n        /* \"#utility.yul\":6996:7002   */\n      dup7\n        /* \"#utility.yul\":6912:7017   */\n      tag_63\n      jump\t// in\n    tag_157:\n        /* \"#utility.yul\":6905:7017   */\n      swap2\n      pop\n        /* \"#utility.yul\":7034:7037   */\n      dup2\n        /* \"#utility.yul\":7027:7037   */\n      swap1\n      pop\n        /* \"#utility.yul\":6748:7043   */\n      swap4\n      swap3\n      pop\n      pop\n      pop\n      jump\t// out\n        /* \"#utility.yul\":7049:7229   */\n    tag_64:\n        /* \"#utility.yul\":7097:7174   */\n      0x4e487b7100000000000000000000000000000000000000000000000000000000\n        /* \"#utility.yul\":7094:7095   */\n      0x00\n        /* \"#utility.yul\":7087:7175   */\n      mstore\n        /* \"#utility.yul\":7194:7198   */\n      0x22\n        /* \"#utility.yul\":7191:7192   */\n      0x04\n        /* \"#utility.yul\":7184:7199   */\n      mstore\n        /* \"#utility.yul\":7218:7222   */\n      0x24\n        /* \"#utility.yul\":7215:7216   */\n      0x00\n        /* \"#utility.yul\":7208:7223   */\n      revert\n        /* \"#utility.yul\":7235:7555   */\n    tag_32:\n        /* \"#utility.yul\":7279:7285   */\n      0x00\n        /* \"#utility.yul\":7316:7317   */\n      0x02\n        /* \"#utility.yul\":7310:7314   */\n      dup3\n        /* \"#utility.yul\":7306:7318   */\n      div\n        /* \"#utility.yul\":7296:7318   */\n      swap1\n      pop\n        /* \"#utility.yul\":7363:7364   */\n      0x01\n        /* \"#utility.yul\":7357:7361   */\n      dup3\n        /* \"#utility.yul\":7353:7365   */\n      and\n        /* \"#utility.yul\":7384:7402   */\n      dup1\n        /* \"#utility.yul\":7374:7455   */\n      tag_160\n      jumpi\n        /* \"#utility.yul\":7440:7444   */\n      0x7f\n        /* \"#utility.yul\":7432:7438   */\n      dup3\n        /* \"#utility.yul\":7428:7445   */\n      and\n        /* \"#utility.yul\":7418:7445   */\n      swap2\n      pop\n        /* \"#utility.yul\":7374:7455   */\n    tag_160:\n        /* \"#utility.yul\":7502:7504   */\n      0x20\n        /* \"#utility.yul\":7494:7500   */\n      dup3\n        /* \"#utility.yul\":7491:7505   */\n      lt\n        /* \"#utility.yul\":7471:7489   */\n      dup2\n        /* \"#utility.yul\":7468:7506   */\n      sub\n        /* \"#utility.yul\":7465:7549   */\n      tag_161\n      jumpi\n        /* \"#utility.yul\":7521:7539   */\n      tag_162\n      tag_64\n      jump\t// in\n    tag_162:\n        /* \"#utility.yul\":7465:7549   */\n    tag_161:\n        /* \"#utility.yul\":7286:7555   */\n      pop\n        /* \"#utility.yul\":7235:7555   */\n      swap2\n      swap1\n      pop\n      jump\t// out\n        /* \"#utility.yul\":7561:7658   */\n    tag_65:\n        /* \"#utility.yul\":7620:7626   */\n      0x00\n        /* \"#utility.yul\":7648:7651   */\n      dup3\n        /* \"#utility.yul\":7638:7651   */\n      swap1\n      pop\n        /* \"#utility.yul\":7561:7658   */\n      swap3\n      swap2\n      pop\n      pop\n      jump\t// out\n        /* \"#utility.yul\":7664:7844   */\n    tag_66:\n        /* \"#utility.yul\":7712:7789   */\n      0x4e487b7100000000000000000000000000000000000000000000000000000000\n        /* \"#utility.yul\":7709:7710   */\n      0x00\n        /* \"#utility.yul\":7702:7790   */\n      mstore\n        /* \"#utility.yul\":7809:7813   */\n      0x41\n        /* \"#utility.yul\":7806:7807   */\n      0x04\n        /* \"#utility.yul\":7799:7814   */\n      mstore\n        /* \"#utility.yul\":7833:7837   */\n      0x24\n        /* \"#utility.yul\":7830:7831   */\n      0x00\n        /* \"#utility.yul\":7823:7838   */\n      revert\n        /* \"#utility.yul\":7850:7991   */\n    tag_67:\n        /* \"#utility.yul\":7899:7903   */\n      0x00\n        /* \"#utility.yul\":7922:7925   */\n      dup2\n        /* \"#utility.yul\":7914:7925   */\n      swap1\n      pop\n        /* \"#utility.yul\":7945:7948   */\n      dup2\n        /* \"#utility.yul\":7942:7943   */\n      0x00\n        /* \"#utility.yul\":7935:7949   */\n      mstore\n        /* \"#utility.yul\":7979:7983   */\n      0x20\n        /* \"#utility.yul\":7976:7977   */\n      0x00\n        /* \"#utility.yul\":7966:7984   */\n      keccak256\n        /* \"#utility.yul\":7958:7984   */\n      swap1\n      pop\n        /* \"#utility.yul\":7850:7991   */\n      swap2\n      swap1\n      pop\n      jump\t// out\n        /* \"#utility.yul\":7997:8090   */\n    tag_68:\n        /* \"#utility.yul\":8034:8040   */\n      0x00\n        /* \"#utility.yul\":8081:8083   */\n      0x20\n        /* \"#utility.yul\":8076:8078   */\n      0x1f\n        /* \"#utility.yul\":8069:8074   */\n      dup4\n        /* \"#utility.yul\":8065:8079   */\n      add\n        /* \"#utility.yul\":8061:8084   */\n      div\n        /* \"#utility.yul\":8051:8084   */\n      swap1\n      pop\n        /* \"#utility.yul\":7997:8090   */\n      swap2\n      swap1\n      pop\n      jump\t// out\n        /* \"#utility.yul\":8096:8203   */\n    tag_69:\n        /* \"#utility.yul\":8140:8148   */\n      0x00\n        /* \"#utility.yul\":8190:8195   */\n      dup3\n        /* \"#utility.yul\":8184:8188   */\n      dup3\n        /* \"#utility.yul\":8180:8196   */\n      shl\n        /* \"#utility.yul\":8159:8196   */\n      swap1\n      pop\n        /* \"#utility.yul\":8096:8203   */\n      swap3\n      swap2\n      pop\n      pop\n      jump\t// out\n        /* \"#utility.yul\":8209:8602   */\n    tag_70:\n        /* \"#utility.yul\":8278:8284   */\n      0x00\n        /* \"#utility.yul\":8328:8329   */\n      0x08\n        /* \"#utility.yul\":8316:8326   */\n      dup4\n        /* \"#utility.yul\":8312:8330   */\n      mul\n        /* \"#utility.yul\":8351:8448   */\n      tag_169\n        /* \"#utility.yul\":8381:8447   */\n      0xffffffffffffffffffffffffffffffffffffffffffffffffffffffffffffffff\n        /* \"#utility.yul\":8370:8379   */\n      dup3\n        /* \"#utility.yul\":8351:8448   */\n      tag_69\n      jump\t// in\n    tag_169:\n        /* \"#utility.yul\":8469:8508   */\n      tag_170\n        /* \"#utility.yul\":8499:8507   */\n      dup7\n        /* \"#utility.yul\":8488:8497   */\n      dup4\n        /* \"#utility.yul\":8469:8508   */\n      tag_69\n      jump\t// in\n    tag_170:\n        /* \"#utility.yul\":8457:8508   */\n      swap6\n      pop\n        /* \"#utility.yul\":8541:8545   */\n      dup1\n        /* \"#utility.yul\":8537:8546   */\n      not\n        /* \"#utility.yul\":8530:8535   */\n      dup5\n        /* \"#utility.yul\":8526:8547   */\n      and\n        /* \"#utility.yul\":8517:8547   */\n      swap4\n      pop\n        /* \"#utility.yul\":8590:8594   */\n      dup1\n        /* \"#utility.yul\":8580:8588   */\n      dup7\n        /* \"#utility.yul\":8576:8595   */\n      and\n        /* \"#utility.yul\":8569:8574   */\n      dup5\n        /* \"#utility.yul\":8566:8596   */\n      or\n        /* \"#utility.yul\":8556:8596   */\n      swap3\n      pop\n        /* \"#utility.yul\":8285:8602   */\n      pop\n      pop\n        /* \"#utility.yul\":8209:8602   */\n      swap4\n      swap3\n      pop\n      pop\n      pop\n      jump\t// out\n        /* \"#utility.yul\":8608:8685   */\n    tag_71:\n        /* \"#utility.yul\":8645:8652   */\n      0x00\n        /* \"#utility.yul\":8674:8679   */\n      dup2\n        /* \"#utility.yul\":8663:8679   */\n      swap1\n      pop\n        /* \"#utility.yul\":8608:8685   */\n      swap2\n      swap1\n      pop\n      jump\t// out\n        /* \"#utility.yul\":8691:8751   */\n    tag_72:\n        /* \"#utility.yul\":8719:8722   */\n      0x00\n        /* \"#utility.yul\":8740:8745   */\n      dup2\n        /* \"#utility.yul\":8733:8745   */\n      swap1\n      pop\n        /* \"#utility.yul\":8691:8751   */\n      swap2\n      swap1\n      pop\n      jump\t// out\n        /* \"#utility.yul\":8757:8899   */\n    tag_73:\n        /* \"#utility.yul\":8807:8816   */\n      0x00\n        /* \"#utility.yul\":8840:8893   */\n      tag_174\n        /* \"#utility.yul\":8858:8892   */\n      tag_175\n        /* \"#utility.yul\":8867:8891   */\n      tag_176\n        /* \"#utility.yul\":8885:8890   */\n      dup5\n        /* \"#utility.yul\":8867:8891   */\n      tag_71\n      jump\t// in\n    tag_176:\n        /* \"#utility.yul\":8858:8892   */\n      tag_72\n      jump\t// in\n    tag_175:\n        /* \"#utility.yul\":8840:8893   */\n      tag_71\n      jump\t// in\n    tag_174:\n        /* \"#utility.yul\":8827:8893   */\n      swap1\n      pop\n        /* \"#utility.yul\":8757:8899   */\n      swap2\n      swap1\n      pop\n      jump\t// out\n        /* \"#utility.yul\":8905:8980   */\n    tag_74:\n        /* \"#utility.yul\":8948:8951   */\n      0x00\n        /* \"#utility.yul\":8969:8974   */\n      dup2\n        /* \"#utility.yul\":8962:8974   */\n      swap1\n      pop\n        /* \"#utility.yul\":8905:8980   */\n      swap2\n      swap1\n      pop\n      jump\t// out\n        /* \"#utility.yul\":8986:9255   */\n    tag_75:\n        /* \"#utility.yul\":9096:9135   */\n      tag_179\n        /* \"#utility.yul\":9127:9134   */\n      dup4\n        /* \"#utility.yul\":9096:9135   */\n      tag_73\n      jump\t// in\n    tag_179:\n        /* \"#utility.yul\":9157:9248   */\n      tag_180\n        /* \"#utility.yul\":9206:9247   */\n      tag_181\n        /* \"#utility.yul\":9230:9246   */\n      dup3\n        /* \"#utility.yul\":9206:9247   */\n      tag_74\n      jump\t// in\n    tag_181:\n        /* \"#utility.yul\":9198:9204   */\n      dup5\n        /* \"#utility.yul\":9191:9195   */\n      dup5\n        /* \"#utility.yul\":9185:9196   */\n      sload\n        /* \"#utility.yul\":9157:9248   */\n      tag_70\n      jump\t// in\n    tag_180:\n        /* \"#utility.yul\":9151:9155   */\n      dup3\n        /* \"#utility.yul\":9144:9249   */\n      sstore\n        /* \"#utility.yul\":9062:9255   */\n      pop\n        /* \"#utility.yul\":8986:9255   */\n      pop\n      pop\n      pop\n      jump\t// out\n        /* \"#utility.yul\":9261:9334   */\n    tag_76:\n        /* \"#utility.yul\":9306:9309   */\n      0x00\n        /* \"#utility.yul\":9261:9334   */\n      swap1\n      jump\t// out\n        /* \"#utility.yul\":9340:9529   */\n    tag_77:\n        /* \"#utility.yul\":9417:9449   */\n      tag_184\n      tag_76\n      jump\t// in\n    tag_184:\n        /* \"#utility.yul\":9458:9523   */\n      tag_185\n        /* \"#utility.yul\":9516:9522   */\n      dup2\n        /* \"#utility.yul\":9508:9514   */\n      dup5\n        /* \"#utility.yul\":9502:9506   */\n      dup5\n        /* \"#utility.yul\":9458:9523   */\n      tag_75\n      jump\t// in\n    tag_185:\n        /* \"#utility.yul\":9393:9529   */\n      pop\n        /* \"#utility.yul\":9340:9529   */\n      pop\n      pop\n      jump\t// out\n        /* \"#utility.yul\":9535:9721   */\n    tag_78:\n        /* \"#utility.yul\":9595:9715   */\n    tag_187:\n        /* \"#utility.yul\":9612:9615   */\n      dup2\n        /* \"#utility.yul\":9605:9610   */\n      dup2\n        /* \"#utility.yul\":9602:9616   */\n      lt\n        /* \"#utility.yul\":9595:9715   */\n      iszero\n      tag_189\n      jumpi\n        /* \"#utility.yul\":9666:9705   */\n      tag_190\n        /* \"#utility.yul\":9703:9704   */\n      0x00\n        /* \"#utility.yul\":9696:9701   */\n      dup3\n        /* \"#utility.yul\":9666:9705   */\n      tag_77\n      jump\t// in\n    tag_190:\n        /* \"#utility.yul\":9639:9640   */\n      0x01\n        /* \"#utility.yul\":9632:9637   */\n      dup2\n        /* \"#utility.yul\":9628:9641   */\n      add\n        /* \"#utility.yul\":9619:9641   */\n      swap1\n      pop\n        /* \"#utility.yul\":9595:9715   */\n      jump(tag_187)\n    tag_189:\n        /* \"#utility.yul\":9535:9721   */\n      pop\n      pop\n      jump\t// out\n        /* \"#utility.yul\":9727:10270   */\n    tag_79:\n        /* \"#utility.yul\":9828:9830   */\n      0x1f\n        /* \"#utility.yul\":9823:9826   */\n      dup3\n        /* \"#utility.yul\":9820:9831   */\n      gt\n        /* \"#utility.yul\":9817:10263   */\n      iszero\n      tag_192\n      jumpi\n        /* \"#utility.yul\":9862:9900   */\n      tag_193\n        /* \"#utility.yul\":9894:9899   */\n      dup2\n        /* \"#utility.yul\":9862:9900   */\n      tag_67\n      jump\t// in\n    tag_193:\n        /* \"#utility.yul\":9946:9975   */\n      tag_194\n        /* \"#utility.yul\":9964:9974   */\n      dup5\n        /* \"#utility.yul\":9946:9975   */\n      tag_68\n      jump\t// in\n    tag_194:\n        /* \"#utility.yul\":9936:9944   */\n      dup2\n        /* \"#utility.yul\":9932:9976   */\n      add\n        /* \"#utility.yul\":10129:10131   */\n      0x20\n        /* \"#utility.yul\":10117:10127   */\n      dup6\n        /* \"#utility.yul\":10114:10132   */\n      lt\n        /* \"#utility.yul\":10111:10160   */\n      iszero\n      tag_195\n      jumpi\n        /* \"#utility.yul\":10150:10158   */\n      dup2\n        /* \"#utility.yul\":10135:10158   */\n      swap1\n      pop\n        /* \"#utility.yul\":10111:10160   */\n    tag_195:\n        /* \"#utility.yul\":10173:10253   */\n      tag_196\n        /* \"#utility.yul\":10229:10251   */\n      tag_197\n        /* \"#utility.yul\":10247:10250   */\n      dup6\n        /* \"#utility.yul\":10229:10251   */\n      tag_68\n      jump\t// in\n    tag_197:\n        /* \"#utility.yul\":10219:10227   */\n      dup4\n        /* \"#utility.yul\":10215:10252   */\n      add\n        /* \"#utility.yul\":10202:10213   */\n      dup3\n        /* \"#utility.yul\":10173:10253   */\n      tag_78\n      jump\t// in\n    tag_196:\n        /* \"#utility.yul\":9832:10263   */\n      pop\n      pop\n        /* \"#utility.yul\":9817:10263   */\n    tag_192:\n        /* \"#utility.yul\":9727:10270   */\n      pop\n      pop\n      pop\n      jump\t// out\n        /* \"#utility.yul\":10276:10393   */\n    tag_80:\n        /* \"#utility.yul\":10330:10338   */\n      0x00\n        /* \"#utility.yul\":10380:10385   */\n      dup3\n        /* \"#utility.yul\":10374:10378   */\n      dup3\n        /* \"#utility.yul\":10370:10386   */\n      shr\n        /* \"#utility.yul\":10349:10386   */\n      swap1\n      pop\n        /* \"#utility.yul\":10276:10393   */\n      swap3\n      swap2\n      pop\n      pop\n      jump\t// out\n        /* \"#utility.yul\":10399:10568   */\n    tag_81:\n        /* \"#utility.yul\":10443:10449   */\n      0x00\n        /* \"#utility.yul\":10476:10527   */\n      tag_200\n        /* \"#utility.yul\":10524:10525   */\n      0x00\n        /* \"#utility.yul\":10520:10526   */\n      not\n        /* \"#utility.yul\":10512:10517   */\n      dup5\n        /* \"#utility.yul\":10509:10510   */\n      0x08\n        /* \"#utility.yul\":10505:10518   */\n      mul\n        /* \"#utility.yul\":10476:10527   */\n      tag_80\n      jump\t// in\n    tag_200:\n        /* \"#utility.yul\":10472:10528   */\n      not\n        /* \"#utility.yul\":10557:10561   */\n      dup1\n        /* \"#utility.yul\":10551:10555   */\n      dup4\n        /* \"#utility.yul\":10547:10562   */\n      and\n        /* \"#utility.yul\":10537:10562   */\n      swap2\n      pop\n        /* \"#utility.yul\":10450:10568   */\n      pop\n        /* \"#utility.yul\":10399:10568   */\n      swap3\n      swap2\n      pop\n      pop\n      jump\t// out\n        /* \"#utility.yul\":10573:10868   */\n    tag_82:\n        /* \"#utility.yul\":10649:10653   */\n      0x00\n        /* \"#utility.yul\":10795:10824   */\n      tag_202\n        /* \"#utility.yul\":10820:10823   */\n      dup4\n        /* \"#utility.yul\":10814:10818   */\n      dup4\n        /* \"#utility.yul\":10795:10824   */\n      tag_81\n      jump\t// in\n    tag_202:\n        /* \"#utility.yul\":10787:10824   */\n      swap2\n      pop\n        /* \"#utility.yul\":10857:10860   */\n      dup3\n        /* \"#utility.yul\":10854:10855   */\n      0x02\n        /* \"#utility.yul\":10850:10861   */\n      mul\n        /* \"#utility.yul\":10844:10848   */\n      dup3\n        /* \"#utility.yul\":10841:10862   */\n      or\n        /* \"#utility.yul\":10833:10862   */\n      swap1\n      pop\n        /* \"#utility.yul\":10573:10868   */\n      swap3\n      swap2\n      pop\n      pop\n      jump\t// out\n        /* \"#utility.yul\":10873:12276   */\n    tag_40:\n        /* \"#utility.yul\":10997:11041   */\n      tag_204\n        /* \"#utility.yul\":11037:11040   */\n      dup4\n        /* \"#utility.yul\":11032:11035   */\n      dup4\n        /* \"#utility.yul\":10997:11041   */\n      tag_65\n      jump\t// in\n    tag_204:\n        /* \"#utility.yul\":11106:11124   */\n      0xffffffffffffffff\n        /* \"#utility.yul\":11098:11104   */\n      dup2\n        /* \"#utility.yul\":11095:11125   */\n      gt\n        /* \"#utility.yul\":11092:11148   */\n      iszero\n      tag_205\n      jumpi\n        /* \"#utility.yul\":11128:11146   */\n      tag_206\n      tag_66\n      jump\t// in\n    tag_206:\n        /* \"#utility.yul\":11092:11148   */\n    tag_205:\n        /* \"#utility.yul\":11172:11210   */\n      tag_207\n        /* \"#utility.yul\":11204:11208   */\n      dup3\n        /* \"#utility.yul\":11198:11209   */\n      sload\n        /* \"#utility.yul\":11172:11210   */\n      tag_32\n      jump\t// in\n    tag_207:\n        /* \"#utility.yul\":11257:11324   */\n      tag_208\n        /* \"#utility.yul\":11317:11323   */\n      dup3\n        /* \"#utility.yul\":11309:11315   */\n      dup3\n        /* \"#utility.yul\":11303:11307   */\n      dup6\n        /* \"#utility.yul\":11257:11324   */\n      tag_79\n      jump\t// in\n    tag_208:\n        /* \"#utility.yul\":11351:11352   */\n      0x00\n        /* \"#utility.yul\":11380:11382   */\n      0x1f\n        /* \"#utility.yul\":11372:11378   */\n      dup4\n        /* \"#utility.yul\":11369:11383   */\n      gt\n        /* \"#utility.yul\":11397:11398   */\n      0x01\n        /* \"#utility.yul\":11392:12024   */\n      dup2\n      eq\n      tag_210\n      jumpi\n        /* \"#utility.yul\":12068:12069   */\n      0x00\n        /* \"#utility.yul\":12085:12091   */\n      dup5\n        /* \"#utility.yul\":12082:12166   */\n      iszero\n      tag_211\n      jumpi\n        /* \"#utility.yul\":12141:12150   */\n      dup3\n        /* \"#utility.yul\":12136:12139   */\n      dup8\n        /* \"#utility.yul\":12132:12151   */\n      add\n        /* \"#utility.yul\":12119:12152   */\n      calldataload\n        /* \"#utility.yul\":12110:12152   */\n      swap1\n      pop\n        /* \"#utility.yul\":12082:12166   */\n    tag_211:\n        /* \"#utility.yul\":12192:12259   */\n      tag_212\n        /* \"#utility.yul\":12252:12258   */\n      dup6\n        /* \"#utility.yul\":12245:12250   */\n      dup3\n        /* \"#utility.yul\":12192:12259   */\n      tag_82\n      jump\t// in\n    tag_212:\n        /* \"#utility.yul\":12186:12190   */\n      dup7\n        /* \"#utility.yul\":12179:12260   */\n      sstore\n        /* \"#utility.yul\":12041:12270   */\n      pop\n        /* \"#utility.yul\":11362:12270   */\n      jump(tag_209)\n        /* \"#utility.yul\":11392:12024   */\n    tag_210:\n        /* \"#utility.yul\":11444:11448   */\n      0x1f\n        /* \"#utility.yul\":11440:11449   */\n      not\n        /* \"#utility.yul\":11432:11438   */\n      dup5\n        /* \"#utility.yul\":11428:11450   */\n      and\n        /* \"#utility.yul\":11478:11515   */\n      tag_213\n        /* \"#utility.yul\":11510:11514   */\n      dup7\n        /* \"#utility.yul\":11478:11515   */\n      tag_67\n      jump\t// in\n    tag_213:\n        /* \"#utility.yul\":11537:11538   */\n      0x00\n        /* \"#utility.yul\":11551:11766   */\n    tag_214:\n        /* \"#utility.yul\":11565:11572   */\n      dup3\n        /* \"#utility.yul\":11562:11563   */\n      dup2\n        /* \"#utility.yul\":11559:11573   */\n      lt\n        /* \"#utility.yul\":11551:11766   */\n      iszero\n      tag_216\n      jumpi\n        /* \"#utility.yul\":11651:11660   */\n      dup5\n        /* \"#utility.yul\":11646:11649   */\n      dup10\n        /* \"#utility.yul\":11642:11661   */\n      add\n        /* \"#utility.yul\":11629:11662   */\n      calldataload\n        /* \"#utility.yul\":11621:11627   */\n      dup3\n        /* \"#utility.yul\":11614:11663   */\n      sstore\n        /* \"#utility.yul\":11702:11703   */\n      0x01\n        /* \"#utility.yul\":11694:11700   */\n      dup3\n        /* \"#utility.yul\":11690:11704   */\n      add\n        /* \"#utility.yul\":11680:11704   */\n      swap2\n      pop\n        /* \"#utility.yul\":11749:11751   */\n      0x20\n        /* \"#utility.yul\":11738:11747   */\n      dup6\n        /* \"#utility.yul\":11734:11752   */\n      add\n        /* \"#utility.yul\":11721:11752   */\n      swap5\n      pop\n        /* \"#utility.yul\":11588:11592   */\n      0x20\n        /* \"#utility.yul\":11585:11586   */\n      dup2\n        /* \"#utility.yul\":11581:11593   */\n      add\n        /* \"#utility.yul\":11576:11593   */\n      swap1\n      pop\n        /* \"#utility.yul\":11551:11766   */\n      jump(tag_214)\n    tag_216:\n        /* \"#utility.yul\":11794:11800   */\n      dup7\n        /* \"#utility.yul\":11785:11792   */\n      dup4\n        /* \"#utility.yul\":11782:11801   */\n      lt\n        /* \"#utility.yul\":11779:11965   */\n      iszero\n      tag_217\n      jumpi\n        /* \"#utility.yul\":11859:11868   */\n      dup5\n        /* \"#utility.yul\":11854:11857   */\n      dup10\n        /* \"#utility.yul\":11850:11869   */\n      add\n        /* \"#utility.yul\":11837:11870   */\n      calldataload\n        /* \"#utility.yul\":11902:11950   */\n      tag_218\n        /* \"#utility.yul\":11944:11948   */\n      0x1f\n        /* \"#utility.yul\":11936:11942   */\n      dup10\n        /* \"#utility.yul\":11932:11949   */\n      and\n        /* \"#utility.yul\":11921:11930   */\n      dup3\n        /* \"#utility.yul\":11902:11950   */\n      tag_81\n      jump\t// in\n    tag_218:\n        /* \"#utility.yul\":11894:11900   */\n      dup4\n        /* \"#utility.yul\":11887:11951   */\n      sstore\n        /* \"#utility.yul\":11802:11965   */\n      pop\n        /* \"#utility.yul\":11779:11965   */\n    tag_217:\n        /* \"#utility.yul\":12011:12012   */\n      0x01\n        /* \"#utility.yul\":12007:12008   */\n      0x02\n        /* \"#utility.yul\":11999:12005   */\n      dup9\n        /* \"#utility.yul\":11995:12009   */\n      mul\n        /* \"#utility.yul\":11991:12013   */\n      add\n        /* \"#utility.yul\":11985:11989   */\n      dup9\n        /* \"#utility.yul\":11978:12014   */\n      sstore\n        /* \"#utility.yul\":11399:12024   */\n      pop\n      pop\n      pop\n        /* \"#utility.yul\":11362:12270   */\n    tag_209:\n      pop\n        /* \"#utility.yul\":10972:12276   */\n      pop\n      pop\n      pop\n        /* \"#utility.yul\":10873:12276   */\n      pop\n      pop\n      pop\n      jump\t// out\n\n    auxdata: 0xa264697066735822122092ccddee85c7139afd7f765e37131e6b8602b6d20f505aa79d39e6da4c39a34264736f6c634300081a0033\n}\n",
				"bytecode": {
					"linkReferences": {},
					"object": "6080604052348015600e575f80fd5b5061093b8061001c5f395ff3fe608060405234801561000f575f80fd5b506004361061004a575f3560e01c8063571c3e601461004e57806392adb0471461006a578063d590f8c91461009a578063ec7bbdab146100ca575b5f80fd5b6100686004803603810190610063919061034c565b6100e6565b005b610084600480360381019061007f91906103eb565b61013e565b60405161009191906104a6565b60405180910390f35b6100b460048036038101906100af91906104c6565b61024c565b6040516100c19190610500565b60405180910390f35b6100e460048036038101906100df9190610519565b610268565b005b805f808473ffffffffffffffffffffffffffffffffffffffff1673ffffffffffffffffffffffffffffffffffffffff1681526020019081526020015f205f6101000a81548160ff021916908360ff1602179055505050565b6060600183836040516101529291906105e6565b90815260200160405180910390205f805f3373ffffffffffffffffffffffffffffffffffffffff1673ffffffffffffffffffffffffffffffffffffffff1681526020019081526020015f205f9054906101000a900460ff1660ff1660ff1681526020019081526020015f2080546101c89061062b565b80601f01602080910402602001604051908101604052809291908181526020018280546101f49061062b565b801561023f5780601f106102165761010080835404028352916020019161023f565b820191905f5260205f20905b81548152906001019060200180831161022257829003601f168201915b5050505050905092915050565b5f602052805f5260405f205f915054906101000a900460ff1681565b81816001878760405161027c9291906105e6565b90815260200160405180910390205f8660ff1660ff1681526020019081526020015f2091826102ac929190610838565b505050505050565b5f80fd5b5f80fd5b5f73ffffffffffffffffffffffffffffffffffffffff82169050919050565b5f6102e5826102bc565b9050919050565b6102f5816102db565b81146102ff575f80fd5b50565b5f81359050610310816102ec565b92915050565b5f60ff82169050919050565b61032b81610316565b8114610335575f80fd5b50565b5f8135905061034681610322565b92915050565b5f8060408385031215610362576103616102b4565b5b5f61036f85828601610302565b925050602061038085828601610338565b9150509250929050565b5f80fd5b5f80fd5b5f80fd5b5f8083601f8401126103ab576103aa61038a565b5b8235905067ffffffffffffffff8111156103c8576103c761038e565b5b6020830191508360018202830111156103e4576103e3610392565b5b9250929050565b5f8060208385031215610401576104006102b4565b5b5f83013567ffffffffffffffff81111561041e5761041d6102b8565b5b61042a85828601610396565b92509250509250929050565b5f81519050919050565b5f82825260208201905092915050565b8281835e5f83830152505050565b5f601f19601f8301169050919050565b5f61047882610436565b6104828185610440565b9350610492818560208601610450565b61049b8161045e565b840191505092915050565b5f6020820190508181035f8301526104be818461046e565b905092915050565b5f602082840312156104db576104da6102b4565b5b5f6104e884828501610302565b91505092915050565b6104fa81610316565b82525050565b5f6020820190506105135f8301846104f1565b92915050565b5f805f805f60608688031215610532576105316102b4565b5b5f86013567ffffffffffffffff81111561054f5761054e6102b8565b5b61055b88828901610396565b9550955050602061056e88828901610338565b935050604086013567ffffffffffffffff81111561058f5761058e6102b8565b5b61059b88828901610396565b92509250509295509295909350565b5f81905092915050565b828183375f83830152505050565b5f6105cd83856105aa565b93506105da8385846105b4565b82840190509392505050565b5f6105f28284866105c2565b91508190509392505050565b7f4e487b71000000000000000000000000000000000000000000000000000000005f52602260045260245ffd5b5f600282049050600182168061064257607f821691505b602082108103610655576106546105fe565b5b50919050565b5f82905092915050565b7f4e487b71000000000000000000000000000000000000000000000000000000005f52604160045260245ffd5b5f819050815f5260205f209050919050565b5f6020601f8301049050919050565b5f82821b905092915050565b5f600883026106ee7fffffffffffffffffffffffffffffffffffffffffffffffffffffffffffffffff826106b3565b6106f886836106b3565b95508019841693508086168417925050509392505050565b5f819050919050565b5f819050919050565b5f61073c61073761073284610710565b610719565b610710565b9050919050565b5f819050919050565b61075583610722565b61076961076182610743565b8484546106bf565b825550505050565b5f90565b61077d610771565b61078881848461074c565b505050565b5b818110156107ab576107a05f82610775565b60018101905061078e565b5050565b601f8211156107f0576107c181610692565b6107ca846106a4565b810160208510156107d9578190505b6107ed6107e5856106a4565b83018261078d565b50505b505050565b5f82821c905092915050565b5f6108105f19846008026107f5565b1980831691505092915050565b5f6108288383610801565b9150826002028217905092915050565b610842838361065b565b67ffffffffffffffff81111561085b5761085a610665565b5b610865825461062b565b6108708282856107af565b5f601f83116001811461089d575f841561088b578287013590505b610895858261081d565b8655506108fc565b601f1984166108ab86610692565b5f5b828110156108d2578489013582556001820191506020850194506020810190506108ad565b868310156108ef57848901356108eb601f891682610801565b8355505b6001600288020188555050505b5050505050505056fea264697066735822122092ccddee85c7139afd7f765e37131e6b8602b6d20f505aa79d39e6da4c39a34264736f6c634300081a0033",
					"opcodes": "PUSH1 0x80 PUSH1 0x40 MSTORE CALLVALUE DUP1 ISZERO PUSH1 0xE JUMPI PUSH0 DUP1 REVERT JUMPDEST POP PUSH2 0x93B DUP1 PUSH2 0x1C PUSH0 CODECOPY PUSH0 RETURN INVALID PUSH1 0x80 PUSH1 0x40 MSTORE CALLVALUE DUP1 ISZERO PUSH2 0xF JUMPI PUSH0 DUP1 REVERT JUMPDEST POP PUSH1 0x4 CALLDATASIZE LT PUSH2 0x4A JUMPI PUSH0 CALLDATALOAD PUSH1 0xE0 SHR DUP1 PUSH4 0x571C3E60 EQ PUSH2 0x4E JUMPI DUP1 PUSH4 0x92ADB047 EQ PUSH2 0x6A JUMPI DUP1 PUSH4 0xD590F8C9 EQ PUSH2 0x9A JUMPI DUP1 PUSH4 0xEC7BBDAB EQ PUSH2 0xCA JUMPI JUMPDEST PUSH0 DUP1 REVERT JUMPDEST PUSH2 0x68 PUSH1 0x4 DUP1 CALLDATASIZE SUB DUP2 ADD SWAP1 PUSH2 0x63 SWAP2 SWAP1 PUSH2 0x34C JUMP JUMPDEST PUSH2 0xE6 JUMP JUMPDEST STOP JUMPDEST PUSH2 0x84 PUSH1 0x4 DUP1 CALLDATASIZE SUB DUP2 ADD SWAP1 PUSH2 0x7F SWAP2 SWAP1 PUSH2 0x3EB JUMP JUMPDEST PUSH2 0x13E JUMP JUMPDEST PUSH1 0x40 MLOAD PUSH2 0x91 SWAP2 SWAP1 PUSH2 0x4A6 JUMP JUMPDEST PUSH1 0x40 MLOAD DUP1 SWAP2 SUB SWAP1 RETURN JUMPDEST PUSH2 0xB4 PUSH1 0x4 DUP1 CALLDATASIZE SUB DUP2 ADD SWAP1 PUSH2 0xAF SWAP2 SWAP1 PUSH2 0x4C6 JUMP JUMPDEST PUSH2 0x24C JUMP JUMPDEST PUSH1 0x40 MLOAD PUSH2 0xC1 SWAP2 SWAP1 PUSH2 0x500 JUMP JUMPDEST PUSH1 0x40 MLOAD DUP1 SWAP2 SUB SWAP1 RETURN JUMPDEST PUSH2 0xE4 PUSH1 0x4 DUP1 CALLDATASIZE SUB DUP2 ADD SWAP1 PUSH2 0xDF SWAP2 SWAP1 PUSH2 0x519 JUMP JUMPDEST PUSH2 0x268 JUMP JUMPDEST STOP JUMPDEST DUP1 PUSH0 DUP1 DUP5 PUSH20 0xFFFFFFFFFFFFFFFFFFFFFFFFFFFFFFFFFFFFFFFF AND PUSH20 0xFFFFFFFFFFFFFFFFFFFFFFFFFFFFFFFFFFFFFFFF AND DUP2 MSTORE PUSH1 0x20 ADD SWAP1 DUP2 MSTORE PUSH1 0x20 ADD PUSH0 KECCAK256 PUSH0 PUSH2 0x100 EXP DUP2 SLOAD DUP2 PUSH1 0xFF MUL NOT AND SWAP1 DUP4 PUSH1 0xFF AND MUL OR SWAP1 SSTORE POP POP POP JUMP JUMPDEST PUSH1 0x60 PUSH1 0x1 DUP4 DUP4 PUSH1 0x40 MLOAD PUSH2 0x152 SWAP3 SWAP2 SWAP1 PUSH2 0x5E6 JUMP JUMPDEST SWAP1 DUP2 MSTORE PUSH1 0x20 ADD PUSH1 0x40 MLOAD DUP1 SWAP2 SUB SWAP1 KECCAK256 PUSH0 DUP1 PUSH0 CALLER PUSH20 0xFFFFFFFFFFFFFFFFFFFFFFFFFFFFFFFFFFFFFFFF AND PUSH20 0xFFFFFFFFFFFFFFFFFFFFFFFFFFFFFFFFFFFFFFFF AND DUP2 MSTORE PUSH1 0x20 ADD SWAP1 DUP2 MSTORE PUSH1 0x20 ADD PUSH0 KECCAK256 PUSH0 SWAP1 SLOAD SWAP1 PUSH2 0x100 EXP SWAP1 DIV PUSH1 0xFF AND PUSH1 0xFF AND PUSH1 0xFF AND DUP2 MSTORE PUSH1 0x20 ADD SWAP1 DUP2 MSTORE PUSH1 0x20 ADD PUSH0 KECCAK256 DUP1 SLOAD PUSH2 0x1C8 SWAP1 PUSH2 0x62B JUMP JUMPDEST DUP1 PUSH1 0x1F ADD PUSH1 0x20 DUP1 SWAP2 DIV MUL PUSH1 0x20 ADD PUSH1 0x40 MLOAD SWAP1 DUP2 ADD PUSH1 0x40 MSTORE DUP1 SWAP3 SWAP2 SWAP1 DUP2 DUP2 MSTORE PUSH1 0x20 ADD DUP3 DUP1 SLOAD PUSH2 0x1F4 SWAP1 PUSH2 0x62B JUMP JUMPDEST DUP1 ISZERO PUSH2 0x23F JUMPI DUP1 PUSH1 0x1F LT PUSH2 0x216 JUMPI PUSH2 0x100 DUP1 DUP4 SLOAD DIV MUL DUP4 MSTORE SWAP2 PUSH1 0x20 ADD SWAP2 PUSH2 0x23F JUMP JUMPDEST DUP3 ADD SWAP2 SWAP1 PUSH0 MSTORE PUSH1 0x20 PUSH0 KECCAK256 SWAP1 JUMPDEST DUP2 SLOAD DUP2 MSTORE SWAP1 PUSH1 0x1 ADD SWAP1 PUSH1 0x20 ADD DUP1 DUP4 GT PUSH2 0x222 JUMPI DUP3 SWAP1 SUB PUSH1 0x1F AND DUP3 ADD SWAP2 JUMPDEST POP POP POP POP POP SWAP1 POP SWAP3 SWAP2 POP POP JUMP JUMPDEST PUSH0 PUSH1 0x20 MSTORE DUP1 PUSH0 MSTORE PUSH1 0x40 PUSH0 KECCAK256 PUSH0 SWAP2 POP SLOAD SWAP1 PUSH2 0x100 EXP SWAP1 DIV PUSH1 0xFF AND DUP2 JUMP JUMPDEST DUP2 DUP2 PUSH1 0x1 DUP8 DUP8 PUSH1 0x40 MLOAD PUSH2 0x27C SWAP3 SWAP2 SWAP1 PUSH2 0x5E6 JUMP JUMPDEST SWAP1 DUP2 MSTORE PUSH1 0x20 ADD PUSH1 0x40 MLOAD DUP1 SWAP2 SUB SWAP1 KECCAK256 PUSH0 DUP7 PUSH1 0xFF AND PUSH1 0xFF AND DUP2 MSTORE PUSH1 0x20 ADD SWAP1 DUP2 MSTORE PUSH1 0x20 ADD PUSH0 KECCAK256 SWAP2 DUP3 PUSH2 0x2AC SWAP3 SWAP2 SWAP1 PUSH2 0x838 JUMP JUMPDEST POP POP POP POP POP POP JUMP JUMPDEST PUSH0 DUP1 REVERT JUMPDEST PUSH0 DUP1 REVERT JUMPDEST PUSH0 PUSH20 0xFFFFFFFFFFFFFFFFFFFFFFFFFFFFFFFFFFFFFFFF DUP3 AND SWAP1 POP SWAP2 SWAP1 POP JUMP JUMPDEST PUSH0 PUSH2 0x2E5 DUP3 PUSH2 0x2BC JUMP JUMPDEST SWAP1 POP SWAP2 SWAP1 POP JUMP JUMPDEST PUSH2 0x2F5 DUP2 PUSH2 0x2DB JUMP JUMPDEST DUP2 EQ PUSH2 0x2FF JUMPI PUSH0 DUP1 REVERT JUMPDEST POP JUMP JUMPDEST PUSH0 DUP2 CALLDATALOAD SWAP1 POP PUSH2 0x310 DUP2 PUSH2 0x2EC JUMP JUMPDEST SWAP3 SWAP2 POP POP JUMP JUMPDEST PUSH0 PUSH1 0xFF DUP3 AND SWAP1 POP SWAP2 SWAP1 POP JUMP JUMPDEST PUSH2 0x32B DUP2 PUSH2 0x316 JUMP JUMPDEST DUP2 EQ PUSH2 0x335 JUMPI PUSH0 DUP1 REVERT JUMPDEST POP JUMP JUMPDEST PUSH0 DUP2 CALLDATALOAD SWAP1 POP PUSH2 0x346 DUP2 PUSH2 0x322 JUMP JUMPDEST SWAP3 SWAP2 POP POP JUMP JUMPDEST PUSH0 DUP1 PUSH1 0x40 DUP4 DUP6 SUB SLT ISZERO PUSH2 0x362 JUMPI PUSH2 0x361 PUSH2 0x2B4 JUMP JUMPDEST JUMPDEST PUSH0 PUSH2 0x36F DUP6 DUP3 DUP7 ADD PUSH2 0x302 JUMP JUMPDEST SWAP3 POP POP PUSH1 0x20 PUSH2 0x380 DUP6 DUP3 DUP7 ADD PUSH2 0x338 JUMP JUMPDEST SWAP2 POP POP SWAP3 POP SWAP3 SWAP1 POP JUMP JUMPDEST PUSH0 DUP1 REVERT JUMPDEST PUSH0 DUP1 REVERT JUMPDEST PUSH0 DUP1 REVERT JUMPDEST PUSH0 DUP1 DUP4 PUSH1 0x1F DUP5 ADD SLT PUSH2 0x3AB JUMPI PUSH2 0x3AA PUSH2 0x38A JUMP JUMPDEST JUMPDEST DUP3 CALLDATALOAD SWAP1 POP PUSH8 0xFFFFFFFFFFFFFFFF DUP2 GT ISZERO PUSH2 0x3C8 JUMPI PUSH2 0x3C7 PUSH2 0x38E JUMP JUMPDEST JUMPDEST PUSH1 0x20 DUP4 ADD SWAP2 POP DUP4 PUSH1 0x1 DUP3 MUL DUP4 ADD GT ISZERO PUSH2 0x3E4 JUMPI PUSH2 0x3E3 PUSH2 0x392 JUMP JUMPDEST JUMPDEST SWAP3 POP SWAP3 SWAP1 POP JUMP JUMPDEST PUSH0 DUP1 PUSH1 0x20 DUP4 DUP6 SUB SLT ISZERO PUSH2 0x401 JUMPI PUSH2 0x400 PUSH2 0x2B4 JUMP JUMPDEST JUMPDEST PUSH0 DUP4 ADD CALLDATALOAD PUSH8 0xFFFFFFFFFFFFFFFF DUP2 GT ISZERO PUSH2 0x41E JUMPI PUSH2 0x41D PUSH2 0x2B8 JUMP JUMPDEST JUMPDEST PUSH2 0x42A DUP6 DUP3 DUP7 ADD PUSH2 0x396 JUMP JUMPDEST SWAP3 POP SWAP3 POP POP SWAP3 POP SWAP3 SWAP1 POP JUMP JUMPDEST PUSH0 DUP2 MLOAD SWAP1 POP SWAP2 SWAP1 POP JUMP JUMPDEST PUSH0 DUP3 DUP3 MSTORE PUSH1 0x20 DUP3 ADD SWAP1 POP SWAP3 SWAP2 POP POP JUMP JUMPDEST DUP3 DUP2 DUP4 MCOPY PUSH0 DUP4 DUP4 ADD MSTORE POP POP POP JUMP JUMPDEST PUSH0 PUSH1 0x1F NOT PUSH1 0x1F DUP4 ADD AND SWAP1 POP SWAP2 SWAP1 POP JUMP JUMPDEST PUSH0 PUSH2 0x478 DUP3 PUSH2 0x436 JUMP JUMPDEST PUSH2 0x482 DUP2 DUP6 PUSH2 0x440 JUMP JUMPDEST SWAP4 POP PUSH2 0x492 DUP2 DUP6 PUSH1 0x20 DUP7 ADD PUSH2 0x450 JUMP JUMPDEST PUSH2 0x49B DUP2 PUSH2 0x45E JUMP JUMPDEST DUP5 ADD SWAP2 POP POP SWAP3 SWAP2 POP POP JUMP JUMPDEST PUSH0 PUSH1 0x20 DUP3 ADD SWAP1 POP DUP2 DUP2 SUB PUSH0 DUP4 ADD MSTORE PUSH2 0x4BE DUP2 DUP5 PUSH2 0x46E JUMP JUMPDEST SWAP1 POP SWAP3 SWAP2 POP POP JUMP JUMPDEST PUSH0 PUSH1 0x20 DUP3 DUP5 SUB SLT ISZERO PUSH2 0x4DB JUMPI PUSH2 0x4DA PUSH2 0x2B4 JUMP JUMPDEST JUMPDEST PUSH0 PUSH2 0x4E8 DUP5 DUP3 DUP6 ADD PUSH2 0x302 JUMP JUMPDEST SWAP2 POP POP SWAP3 SWAP2 POP POP JUMP JUMPDEST PUSH2 0x4FA DUP2 PUSH2 0x316 JUMP JUMPDEST DUP3 MSTORE POP POP JUMP JUMPDEST PUSH0 PUSH1 0x20 DUP3 ADD SWAP1 POP PUSH2 0x513 PUSH0 DUP4 ADD DUP5 PUSH2 0x4F1 JUMP JUMPDEST SWAP3 SWAP2 POP POP JUMP JUMPDEST PUSH0 DUP1 PUSH0 DUP1 PUSH0 PUSH1 0x60 DUP7 DUP9 SUB SLT ISZERO PUSH2 0x532 JUMPI PUSH2 0x531 PUSH2 0x2B4 JUMP JUMPDEST JUMPDEST PUSH0 DUP7 ADD CALLDATALOAD PUSH8 0xFFFFFFFFFFFFFFFF DUP2 GT ISZERO PUSH2 0x54F JUMPI PUSH2 0x54E PUSH2 0x2B8 JUMP JUMPDEST JUMPDEST PUSH2 0x55B DUP9 DUP3 DUP10 ADD PUSH2 0x396 JUMP JUMPDEST SWAP6 POP SWAP6 POP POP PUSH1 0x20 PUSH2 0x56E DUP9 DUP3 DUP10 ADD PUSH2 0x338 JUMP JUMPDEST SWAP4 POP POP PUSH1 0x40 DUP7 ADD CALLDATALOAD PUSH8 0xFFFFFFFFFFFFFFFF DUP2 GT ISZERO PUSH2 0x58F JUMPI PUSH2 0x58E PUSH2 0x2B8 JUMP JUMPDEST JUMPDEST PUSH2 0x59B DUP9 DUP3 DUP10 ADD PUSH2 0x396 JUMP JUMPDEST SWAP3 POP SWAP3 POP POP SWAP3 SWAP6 POP SWAP3 SWAP6 SWAP1 SWAP4 POP JUMP JUMPDEST PUSH0 DUP2 SWAP1 POP SWAP3 SWAP2 POP POP JUMP JUMPDEST DUP3 DUP2 DUP4 CALLDATACOPY PUSH0 DUP4 DUP4 ADD MSTORE POP POP POP JUMP JUMPDEST PUSH0 PUSH2 0x5CD DUP4 DUP6 PUSH2 0x5AA JUMP JUMPDEST SWAP4 POP PUSH2 0x5DA DUP4 DUP6 DUP5 PUSH2 0x5B4 JUMP JUMPDEST DUP3 DUP5 ADD SWAP1 POP SWAP4 SWAP3 POP POP POP JUMP JUMPDEST PUSH0 PUSH2 0x5F2 DUP3 DUP5 DUP7 PUSH2 0x5C2 JUMP JUMPDEST SWAP2 POP DUP2 SWAP1 POP SWAP4 SWAP3 POP POP POP JUMP JUMPDEST PUSH32 0x4E487B7100000000000000000000000000000000000000000000000000000000 PUSH0 MSTORE PUSH1 0x22 PUSH1 0x4 MSTORE PUSH1 0x24 PUSH0 REVERT JUMPDEST PUSH0 PUSH1 0x2 DUP3 DIV SWAP1 POP PUSH1 0x1 DUP3 AND DUP1 PUSH2 0x642 JUMPI PUSH1 0x7F DUP3 AND SWAP2 POP JUMPDEST PUSH1 0x20 DUP3 LT DUP2 SUB PUSH2 0x655 JUMPI PUSH2 0x654 PUSH2 0x5FE JUMP JUMPDEST JUMPDEST POP SWAP2 SWAP1 POP JUMP JUMPDEST PUSH0 DUP3 SWAP1 POP SWAP3 SWAP2 POP POP JUMP JUMPDEST PUSH32 0x4E487B7100000000000000000000000000000000000000000000000000000000 PUSH0 MSTORE PUSH1 0x41 PUSH1 0x4 MSTORE PUSH1 0x24 PUSH0 REVERT JUMPDEST PUSH0 DUP2 SWAP1 POP DUP2 PUSH0 MSTORE PUSH1 0x20 PUSH0 KECCAK256 SWAP1 POP SWAP2 SWAP1 POP JUMP JUMPDEST PUSH0 PUSH1 0x20 PUSH1 0x1F DUP4 ADD DIV SWAP1 POP SWAP2 SWAP1 POP JUMP JUMPDEST PUSH0 DUP3 DUP3 SHL SWAP1 POP SWAP3 SWAP2 POP POP JUMP JUMPDEST PUSH0 PUSH1 0x8 DUP4 MUL PUSH2 0x6EE PUSH32 0xFFFFFFFFFFFFFFFFFFFFFFFFFFFFFFFFFFFFFFFFFFFFFFFFFFFFFFFFFFFFFFFF DUP3 PUSH2 0x6B3 JUMP JUMPDEST PUSH2 0x6F8 DUP7 DUP4 PUSH2 0x6B3 JUMP JUMPDEST SWAP6 POP DUP1 NOT DUP5 AND SWAP4 POP DUP1 DUP7 AND DUP5 OR SWAP3 POP POP POP SWAP4 SWAP3 POP POP POP JUMP JUMPDEST PUSH0 DUP2 SWAP1 POP SWAP2 SWAP1 POP JUMP JUMPDEST PUSH0 DUP2 SWAP1 POP SWAP2 SWAP1 POP JUMP JUMPDEST PUSH0 PUSH2 0x73C PUSH2 0x737 PUSH2 0x732 DUP5 PUSH2 0x710 JUMP JUMPDEST PUSH2 0x719 JUMP JUMPDEST PUSH2 0x710 JUMP JUMPDEST SWAP1 POP SWAP2 SWAP1 POP JUMP JUMPDEST PUSH0 DUP2 SWAP1 POP SWAP2 SWAP1 POP JUMP JUMPDEST PUSH2 0x755 DUP4 PUSH2 0x722 JUMP JUMPDEST PUSH2 0x769 PUSH2 0x761 DUP3 PUSH2 0x743 JUMP JUMPDEST DUP5 DUP5 SLOAD PUSH2 0x6BF JUMP JUMPDEST DUP3 SSTORE POP POP POP POP JUMP JUMPDEST PUSH0 SWAP1 JUMP JUMPDEST PUSH2 0x77D PUSH2 0x771 JUMP JUMPDEST PUSH2 0x788 DUP2 DUP5 DUP5 PUSH2 0x74C JUMP JUMPDEST POP POP POP JUMP JUMPDEST JUMPDEST DUP2 DUP2 LT ISZERO PUSH2 0x7AB JUMPI PUSH2 0x7A0 PUSH0 DUP3 PUSH2 0x775 JUMP JUMPDEST PUSH1 0x1 DUP2 ADD SWAP1 POP PUSH2 0x78E JUMP JUMPDEST POP POP JUMP JUMPDEST PUSH1 0x1F DUP3 GT ISZERO PUSH2 0x7F0 JUMPI PUSH2 0x7C1 DUP2 PUSH2 0x692 JUMP JUMPDEST PUSH2 0x7CA DUP5 PUSH2 0x6A4 JUMP JUMPDEST DUP2 ADD PUSH1 0x20 DUP6 LT ISZERO PUSH2 0x7D9 JUMPI DUP2 SWAP1 POP JUMPDEST PUSH2 0x7ED PUSH2 0x7E5 DUP6 PUSH2 0x6A4 JUMP JUMPDEST DUP4 ADD DUP3 PUSH2 0x78D JUMP JUMPDEST POP POP JUMPDEST POP POP POP JUMP JUMPDEST PUSH0 DUP3 DUP3 SHR SWAP1 POP SWAP3 SWAP2 POP POP JUMP JUMPDEST PUSH0 PUSH2 0x810 PUSH0 NOT DUP5 PUSH1 0x8 MUL PUSH2 0x7F5 JUMP JUMPDEST NOT DUP1 DUP4 AND SWAP2 POP POP SWAP3 SWAP2 POP POP JUMP JUMPDEST PUSH0 PUSH2 0x828 DUP4 DUP4 PUSH2 0x801 JUMP JUMPDEST SWAP2 POP DUP3 PUSH1 0x2 MUL DUP3 OR SWAP1 POP SWAP3 SWAP2 POP POP JUMP JUMPDEST PUSH2 0x842 DUP4 DUP4 PUSH2 0x65B JUMP JUMPDEST PUSH8 0xFFFFFFFFFFFFFFFF DUP2 GT ISZERO PUSH2 0x85B JUMPI PUSH2 0x85A PUSH2 0x665 JUMP JUMPDEST JUMPDEST PUSH2 0x865 DUP3 SLOAD PUSH2 0x62B JUMP JUMPDEST PUSH2 0x870 DUP3 DUP3 DUP6 PUSH2 0x7AF JUMP JUMPDEST PUSH0 PUSH1 0x1F DUP4 GT PUSH1 0x1 DUP2 EQ PUSH2 0x89D JUMPI PUSH0 DUP5 ISZERO PUSH2 0x88B JUMPI DUP3 DUP8 ADD CALLDATALOAD SWAP1 POP JUMPDEST PUSH2 0x895 DUP6 DUP3 PUSH2 0x81D JUMP JUMPDEST DUP7 SSTORE POP PUSH2 0x8FC JUMP JUMPDEST PUSH1 0x1F NOT DUP5 AND PUSH2 0x8AB DUP7 PUSH2 0x692 JUMP JUMPDEST PUSH0 JUMPDEST DUP3 DUP2 LT ISZERO PUSH2 0x8D2 JUMPI DUP5 DUP10 ADD CALLDATALOAD DUP3 SSTORE PUSH1 0x1 DUP3 ADD SWAP2 POP PUSH1 0x20 DUP6 ADD SWAP5 POP PUSH1 0x20 DUP2 ADD SWAP1 POP PUSH2 0x8AD JUMP JUMPDEST DUP7 DUP4 LT ISZERO PUSH2 0x8EF JUMPI DUP5 DUP10 ADD CALLDATALOAD PUSH2 0x8EB PUSH1 0x1F DUP10 AND DUP3 PUSH2 0x801 JUMP JUMPDEST DUP4 SSTORE POP JUMPDEST PUSH1 0x1 PUSH1 0x2 DUP9 MUL ADD DUP9 SSTORE POP POP POP JUMPDEST POP POP POP POP POP POP POP JUMP INVALID LOG2 PUSH5 0x6970667358 0x22 SLT KECCAK256 SWAP3 0xCC 0xDD 0xEE DUP6 0xC7 SGT SWAP11 REVERT PUSH32 0x765E37131E6B8602B6D20F505AA79D39E6DA4C39A34264736F6C634300081A00 CALLER "
				},
				"gasEstimates": {
					"creation": {
						"codeDepositCost": "472600",
						"executionCost": "503",
						"totalCost": "473103"
					},
					"external": {
						"getView(string)": "infinite",
						"role(address)": "2854",
						"setRole(address,uint8)": "24958",
						"setView(string,uint8,string)": "infinite"
					}
				},
				"methodIdentifiers": {
					"getView(string)": "92adb047",
					"role(address)": "d590f8c9",
					"setRole(address,uint8)": "571c3e60",
					"setView(string,uint8,string)": "ec7bbdab"
				}
			},
			"storageLayout": {
				"storage": [
					{
						"astId": 5,
						"contract": "P/Polyinstantiation/Polyinstantiation.sol:RoleBasedData",
						"label": "role",
						"offset": 0,
						"slot": "0",
						"type": "t_mapping(t_address,t_uint8)"
					},
					{
						"astId": 11,
						"contract": "P/Polyinstantiation/Polyinstantiation.sol:RoleBasedData",
						"label": "viewData",
						"offset": 0,
						"slot": "1",
						"type": "t_mapping(t_string_memory_ptr,t_mapping(t_uint8,t_string_storage))"
					}
				],
				"types": {
					"t_address": {
						"encoding": "inplace",
						"label": "address",
						"numberOfBytes": "20"
					},
					"t_mapping(t_address,t_uint8)": {
						"encoding": "mapping",
						"key": "t_address",
						"label": "mapping(address => uint8)",
						"numberOfBytes": "32",
						"value": "t_uint8"
					},
					"t_mapping(t_string_memory_ptr,t_mapping(t_uint8,t_string_storage))": {
						"encoding": "mapping",
						"key": "t_string_memory_ptr",
						"label": "mapping(string => mapping(uint8 => string))",
						"numberOfBytes": "32",
						"value": "t_mapping(t_uint8,t_string_storage)"
					},
					"t_mapping(t_uint8,t_string_storage)": {
						"encoding": "mapping",
						"key": "t_uint8",
						"label": "mapping(uint8 => string)",
						"numberOfBytes": "32",
						"value": "t_string_storage"
					},
					"t_string_memory_ptr": {
						"encoding": "bytes",
						"label": "string",
						"numberOfBytes": "32"
					},
					"t_string_storage": {
						"encoding": "bytes",
						"label": "string",
						"numberOfBytes": "32"
					},
					"t_uint8": {
						"encoding": "inplace",
						"label": "uint8",
						"numberOfBytes": "1"
					}
				}
			},
			"userdoc": {
				"kind": "user",
				"methods": {},
				"version": 1
			}
		}
	}
}