{
	"P/Polyinstantiation/Polyinstantiation.sol": {
		"ForkedMetadata": {
			"abi": [
				{
					"inputs": [
						{
							"internalType": "uint256",
							"name": "",
							"type": "uint256"
						},
						{
							"internalType": "address",
							"name": "",
							"type": "address"
						}
					],
					"name": "meta",
					"outputs": [
						{
							"internalType": "string",
							"name": "",
							"type": "string"
						}
					],
					"stateMutability": "view",
					"type": "function"
				},
				{
					"inputs": [
						{
							"internalType": "uint256",
							"name": "tokenId",
							"type": "uint256"
						},
						{
							"internalType": "string",
							"name": "val",
							"type": "string"
						}
					],
					"name": "set",
					"outputs": [],
					"stateMutability": "nonpayable",
					"type": "function"
				},
				{
					"inputs": [
						{
							"internalType": "uint256",
							"name": "tokenId",
							"type": "uint256"
						}
					],
					"name": "uri",
					"outputs": [
						{
							"internalType": "string",
							"name": "",
							"type": "string"
						}
					],
					"stateMutability": "view",
					"type": "function"
				}
			],
			"devdoc": {
				"kind": "dev",
				"methods": {},
				"version": 1
			},
			"evm": {
				"assembly": "    /* \"P/Polyinstantiation/Polyinstantiation.sol\":1040:1368  contract ForkedMetadata {... */\n  mstore(0x40, 0x80)\n  callvalue\n  dup1\n  iszero\n  tag_1\n  jumpi\n  0x00\n  dup1\n  revert\ntag_1:\n  pop\n  dataSize(sub_0)\n  dup1\n  dataOffset(sub_0)\n  0x00\n  codecopy\n  0x00\n  return\nstop\n\nsub_0: assembly {\n        /* \"P/Polyinstantiation/Polyinstantiation.sol\":1040:1368  contract ForkedMetadata {... */\n      mstore(0x40, 0x80)\n      callvalue\n      dup1\n      iszero\n      tag_1\n      jumpi\n      0x00\n      dup1\n      revert\n    tag_1:\n      pop\n      jumpi(tag_2, lt(calldatasize, 0x04))\n      shr(0xe0, calldataload(0x00))\n      dup1\n      0x0e89341c\n      eq\n      tag_3\n      jumpi\n      dup1\n      0x64371977\n      eq\n      tag_4\n      jumpi\n      dup1\n      0x8afe5ad0\n      eq\n      tag_5\n      jumpi\n    tag_2:\n      0x00\n      dup1\n      revert\n        /* \"P/Polyinstantiation/Polyinstantiation.sol\":1249:1366  function uri(uint256 tokenId) external view returns (string memory) {... */\n    tag_3:\n      tag_6\n      0x04\n      dup1\n      calldatasize\n      sub\n      dup2\n      add\n      swap1\n      tag_7\n      swap2\n      swap1\n      tag_8\n      jump\t// in\n    tag_7:\n      tag_9\n      jump\t// in\n    tag_6:\n      mload(0x40)\n      tag_10\n      swap2\n      swap1\n      tag_11\n      jump\t// in\n    tag_10:\n      mload(0x40)\n      dup1\n      swap2\n      sub\n      swap1\n      return\n        /* \"P/Polyinstantiation/Polyinstantiation.sol\":1135:1243  function set(uint256 tokenId, string calldata val) external {... */\n    tag_4:\n      tag_12\n      0x04\n      dup1\n      calldatasize\n      sub\n      dup2\n      add\n      swap1\n      tag_13\n      swap2\n      swap1\n      tag_14\n      jump\t// in\n    tag_13:\n      tag_15\n      jump\t// in\n    tag_12:\n      stop\n        /* \"P/Polyinstantiation/Polyinstantiation.sol\":1070:1128  mapping(uint256 => mapping(address => string)) public meta */\n    tag_5:\n      tag_16\n      0x04\n      dup1\n      calldatasize\n      sub\n      dup2\n      add\n      swap1\n      tag_17\n      swap2\n      swap1\n      tag_18\n      jump\t// in\n    tag_17:\n      tag_19\n      jump\t// in\n    tag_16:\n      mload(0x40)\n      tag_20\n      swap2\n      swap1\n      tag_11\n      jump\t// in\n    tag_20:\n      mload(0x40)\n      dup1\n      swap2\n      sub\n      swap1\n      return\n        /* \"P/Polyinstantiation/Polyinstantiation.sol\":1249:1366  function uri(uint256 tokenId) external view returns (string memory) {... */\n    tag_9:\n        /* \"P/Polyinstantiation/Polyinstantiation.sol\":1302:1315  string memory */\n      0x60\n        /* \"P/Polyinstantiation/Polyinstantiation.sol\":1334:1338  meta */\n      0x00\n        /* \"P/Polyinstantiation/Polyinstantiation.sol\":1334:1347  meta[tokenId] */\n      dup1\n        /* \"P/Polyinstantiation/Polyinstantiation.sol\":1339:1346  tokenId */\n      dup4\n        /* \"P/Polyinstantiation/Polyinstantiation.sol\":1334:1347  meta[tokenId] */\n      dup2\n      mstore\n      0x20\n      add\n      swap1\n      dup2\n      mstore\n      0x20\n      add\n      0x00\n      keccak256\n        /* \"P/Polyinstantiation/Polyinstantiation.sol\":1334:1359  meta[tokenId][msg.sender] */\n      0x00\n        /* \"P/Polyinstantiation/Polyinstantiation.sol\":1348:1358  msg.sender */\n      caller\n        /* \"P/Polyinstantiation/Polyinstantiation.sol\":1334:1359  meta[tokenId][msg.sender] */\n      0xffffffffffffffffffffffffffffffffffffffff\n      and\n      0xffffffffffffffffffffffffffffffffffffffff\n      and\n      dup2\n      mstore\n      0x20\n      add\n      swap1\n      dup2\n      mstore\n      0x20\n      add\n      0x00\n      keccak256\n        /* \"P/Polyinstantiation/Polyinstantiation.sol\":1327:1359  return meta[tokenId][msg.sender] */\n      dup1\n      sload\n      tag_22\n      swap1\n      tag_23\n      jump\t// in\n    tag_22:\n      dup1\n      0x1f\n      add\n      0x20\n      dup1\n      swap2\n      div\n      mul\n      0x20\n      add\n      mload(0x40)\n      swap1\n      dup2\n      add\n      0x40\n      mstore\n      dup1\n      swap3\n      swap2\n      swap1\n      dup2\n      dup2\n      mstore\n      0x20\n      add\n      dup3\n      dup1\n      sload\n      tag_24\n      swap1\n      tag_23\n      jump\t// in\n    tag_24:\n      dup1\n      iszero\n      tag_25\n      jumpi\n      dup1\n      0x1f\n      lt\n      tag_26\n      jumpi\n      0x0100\n      dup1\n      dup4\n      sload\n      div\n      mul\n      dup4\n      mstore\n      swap2\n      0x20\n      add\n      swap2\n      jump(tag_25)\n    tag_26:\n      dup3\n      add\n      swap2\n      swap1\n      0x00\n      mstore\n      keccak256(0x00, 0x20)\n      swap1\n    tag_27:\n      dup2\n      sload\n      dup2\n      mstore\n      swap1\n      0x01\n      add\n      swap1\n      0x20\n      add\n      dup1\n      dup4\n      gt\n      tag_27\n      jumpi\n      dup3\n      swap1\n      sub\n      0x1f\n      and\n      dup3\n      add\n      swap2\n    tag_25:\n      pop\n      pop\n      pop\n      pop\n      pop\n      swap1\n      pop\n        /* \"P/Polyinstantiation/Polyinstantiation.sol\":1249:1366  function uri(uint256 tokenId) external view returns (string memory) {... */\n      swap2\n      swap1\n      pop\n      jump\t// out\n        /* \"P/Polyinstantiation/Polyinstantiation.sol\":1135:1243  function set(uint256 tokenId, string calldata val) external {... */\n    tag_15:\n        /* \"P/Polyinstantiation/Polyinstantiation.sol\":1233:1236  val */\n      dup2\n      dup2\n        /* \"P/Polyinstantiation/Polyinstantiation.sol\":1205:1209  meta */\n      0x00\n        /* \"P/Polyinstantiation/Polyinstantiation.sol\":1205:1218  meta[tokenId] */\n      dup1\n        /* \"P/Polyinstantiation/Polyinstantiation.sol\":1210:1217  tokenId */\n      dup7\n        /* \"P/Polyinstantiation/Polyinstantiation.sol\":1205:1218  meta[tokenId] */\n      dup2\n      mstore\n      0x20\n      add\n      swap1\n      dup2\n      mstore\n      0x20\n      add\n      0x00\n      keccak256\n        /* \"P/Polyinstantiation/Polyinstantiation.sol\":1205:1230  meta[tokenId][msg.sender] */\n      0x00\n        /* \"P/Polyinstantiation/Polyinstantiation.sol\":1219:1229  msg.sender */\n      caller\n        /* \"P/Polyinstantiation/Polyinstantiation.sol\":1205:1230  meta[tokenId][msg.sender] */\n      0xffffffffffffffffffffffffffffffffffffffff\n      and\n      0xffffffffffffffffffffffffffffffffffffffff\n      and\n      dup2\n      mstore\n      0x20\n      add\n      swap1\n      dup2\n      mstore\n      0x20\n      add\n      0x00\n      keccak256\n        /* \"P/Polyinstantiation/Polyinstantiation.sol\":1205:1236  meta[tokenId][msg.sender] = val */\n      swap2\n      dup3\n      tag_29\n      swap3\n      swap2\n      swap1\n      tag_30\n      jump\t// in\n    tag_29:\n      pop\n        /* \"P/Polyinstantiation/Polyinstantiation.sol\":1135:1243  function set(uint256 tokenId, string calldata val) external {... */\n      pop\n      pop\n      pop\n      jump\t// out\n        /* \"P/Polyinstantiation/Polyinstantiation.sol\":1070:1128  mapping(uint256 => mapping(address => string)) public meta */\n    tag_19:\n      mstore(0x20, 0x00)\n      dup2\n      0x00\n      mstore\n      mstore(0x20, keccak256(0x00, 0x40))\n      dup1\n      0x00\n      mstore\n      keccak256(0x00, 0x40)\n      0x00\n      swap2\n      pop\n      swap2\n      pop\n      pop\n      dup1\n      sload\n      tag_31\n      swap1\n      tag_23\n      jump\t// in\n    tag_31:\n      dup1\n      0x1f\n      add\n      0x20\n      dup1\n      swap2\n      div\n      mul\n      0x20\n      add\n      mload(0x40)\n      swap1\n      dup2\n      add\n      0x40\n      mstore\n      dup1\n      swap3\n      swap2\n      swap1\n      dup2\n      dup2\n      mstore\n      0x20\n      add\n      dup3\n      dup1\n      sload\n      tag_32\n      swap1\n      tag_23\n      jump\t// in\n    tag_32:\n      dup1\n      iszero\n      tag_33\n      jumpi\n      dup1\n      0x1f\n      lt\n      tag_34\n      jumpi\n      0x0100\n      dup1\n      dup4\n      sload\n      div\n      mul\n      dup4\n      mstore\n      swap2\n      0x20\n      add\n      swap2\n      jump(tag_33)\n    tag_34:\n      dup3\n      add\n      swap2\n      swap1\n      0x00\n      mstore\n      keccak256(0x00, 0x20)\n      swap1\n    tag_35:\n      dup2\n      sload\n      dup2\n      mstore\n      swap1\n      0x01\n      add\n      swap1\n      0x20\n      add\n      dup1\n      dup4\n      gt\n      tag_35\n      jumpi\n      dup3\n      swap1\n      sub\n      0x1f\n      and\n      dup3\n      add\n      swap2\n    tag_33:\n      pop\n      pop\n      pop\n      pop\n      pop\n      dup2\n      jump\t// out\n        /* \"#utility.yul\":88:205   */\n    tag_37:\n        /* \"#utility.yul\":197:198   */\n      0x00\n        /* \"#utility.yul\":194:195   */\n      dup1\n        /* \"#utility.yul\":187:199   */\n      revert\n        /* \"#utility.yul\":211:328   */\n    tag_38:\n        /* \"#utility.yul\":320:321   */\n      0x00\n        /* \"#utility.yul\":317:318   */\n      dup1\n        /* \"#utility.yul\":310:322   */\n      revert\n        /* \"#utility.yul\":334:411   */\n    tag_39:\n        /* \"#utility.yul\":371:378   */\n      0x00\n        /* \"#utility.yul\":400:405   */\n      dup2\n        /* \"#utility.yul\":389:405   */\n      swap1\n      pop\n        /* \"#utility.yul\":334:411   */\n      swap2\n      swap1\n      pop\n      jump\t// out\n        /* \"#utility.yul\":417:539   */\n    tag_40:\n        /* \"#utility.yul\":490:514   */\n      tag_79\n        /* \"#utility.yul\":508:513   */\n      dup2\n        /* \"#utility.yul\":490:514   */\n      tag_39\n      jump\t// in\n    tag_79:\n        /* \"#utility.yul\":483:488   */\n      dup2\n        /* \"#utility.yul\":480:515   */\n      eq\n        /* \"#utility.yul\":470:533   */\n      tag_80\n      jumpi\n        /* \"#utility.yul\":529:530   */\n      0x00\n        /* \"#utility.yul\":526:527   */\n      dup1\n        /* \"#utility.yul\":519:531   */\n      revert\n        /* \"#utility.yul\":470:533   */\n    tag_80:\n        /* \"#utility.yul\":417:539   */\n      pop\n      jump\t// out\n        /* \"#utility.yul\":545:684   */\n    tag_41:\n        /* \"#utility.yul\":591:596   */\n      0x00\n        /* \"#utility.yul\":629:635   */\n      dup2\n        /* \"#utility.yul\":616:636   */\n      calldataload\n        /* \"#utility.yul\":607:636   */\n      swap1\n      pop\n        /* \"#utility.yul\":645:678   */\n      tag_82\n        /* \"#utility.yul\":672:677   */\n      dup2\n        /* \"#utility.yul\":645:678   */\n      tag_40\n      jump\t// in\n    tag_82:\n        /* \"#utility.yul\":545:684   */\n      swap3\n      swap2\n      pop\n      pop\n      jump\t// out\n        /* \"#utility.yul\":690:1019   */\n    tag_8:\n        /* \"#utility.yul\":749:755   */\n      0x00\n        /* \"#utility.yul\":798:800   */\n      0x20\n        /* \"#utility.yul\":786:795   */\n      dup3\n        /* \"#utility.yul\":777:784   */\n      dup5\n        /* \"#utility.yul\":773:796   */\n      sub\n        /* \"#utility.yul\":769:801   */\n      slt\n        /* \"#utility.yul\":766:885   */\n      iszero\n      tag_84\n      jumpi\n        /* \"#utility.yul\":804:883   */\n      tag_85\n      tag_37\n      jump\t// in\n    tag_85:\n        /* \"#utility.yul\":766:885   */\n    tag_84:\n        /* \"#utility.yul\":924:925   */\n      0x00\n        /* \"#utility.yul\":949:1002   */\n      tag_86\n        /* \"#utility.yul\":994:1001   */\n      dup5\n        /* \"#utility.yul\":985:991   */\n      dup3\n        /* \"#utility.yul\":974:983   */\n      dup6\n        /* \"#utility.yul\":970:992   */\n      add\n        /* \"#utility.yul\":949:1002   */\n      tag_41\n      jump\t// in\n    tag_86:\n        /* \"#utility.yul\":939:1002   */\n      swap2\n      pop\n        /* \"#utility.yul\":895:1012   */\n      pop\n        /* \"#utility.yul\":690:1019   */\n      swap3\n      swap2\n      pop\n      pop\n      jump\t// out\n        /* \"#utility.yul\":1025:1124   */\n    tag_42:\n        /* \"#utility.yul\":1077:1083   */\n      0x00\n        /* \"#utility.yul\":1111:1116   */\n      dup2\n        /* \"#utility.yul\":1105:1117   */\n      mload\n        /* \"#utility.yul\":1095:1117   */\n      swap1\n      pop\n        /* \"#utility.yul\":1025:1124   */\n      swap2\n      swap1\n      pop\n      jump\t// out\n        /* \"#utility.yul\":1130:1299   */\n    tag_43:\n        /* \"#utility.yul\":1214:1225   */\n      0x00\n        /* \"#utility.yul\":1248:1254   */\n      dup3\n        /* \"#utility.yul\":1243:1246   */\n      dup3\n        /* \"#utility.yul\":1236:1255   */\n      mstore\n        /* \"#utility.yul\":1288:1292   */\n      0x20\n        /* \"#utility.yul\":1283:1286   */\n      dup3\n        /* \"#utility.yul\":1279:1293   */\n      add\n        /* \"#utility.yul\":1264:1293   */\n      swap1\n      pop\n        /* \"#utility.yul\":1130:1299   */\n      swap3\n      swap2\n      pop\n      pop\n      jump\t// out\n        /* \"#utility.yul\":1305:1444   */\n    tag_44:\n        /* \"#utility.yul\":1394:1400   */\n      dup3\n        /* \"#utility.yul\":1389:1392   */\n      dup2\n        /* \"#utility.yul\":1384:1387   */\n      dup4\n        /* \"#utility.yul\":1378:1401   */\n      mcopy\n        /* \"#utility.yul\":1435:1436   */\n      0x00\n        /* \"#utility.yul\":1426:1432   */\n      dup4\n        /* \"#utility.yul\":1421:1424   */\n      dup4\n        /* \"#utility.yul\":1417:1433   */\n      add\n        /* \"#utility.yul\":1410:1437   */\n      mstore\n        /* \"#utility.yul\":1305:1444   */\n      pop\n      pop\n      pop\n      jump\t// out\n        /* \"#utility.yul\":1450:1552   */\n    tag_45:\n        /* \"#utility.yul\":1491:1497   */\n      0x00\n        /* \"#utility.yul\":1542:1544   */\n      0x1f\n        /* \"#utility.yul\":1538:1545   */\n      not\n        /* \"#utility.yul\":1533:1535   */\n      0x1f\n        /* \"#utility.yul\":1526:1531   */\n      dup4\n        /* \"#utility.yul\":1522:1536   */\n      add\n        /* \"#utility.yul\":1518:1546   */\n      and\n        /* \"#utility.yul\":1508:1546   */\n      swap1\n      pop\n        /* \"#utility.yul\":1450:1552   */\n      swap2\n      swap1\n      pop\n      jump\t// out\n        /* \"#utility.yul\":1558:1935   */\n    tag_46:\n        /* \"#utility.yul\":1646:1649   */\n      0x00\n        /* \"#utility.yul\":1674:1713   */\n      tag_92\n        /* \"#utility.yul\":1707:1712   */\n      dup3\n        /* \"#utility.yul\":1674:1713   */\n      tag_42\n      jump\t// in\n    tag_92:\n        /* \"#utility.yul\":1729:1800   */\n      tag_93\n        /* \"#utility.yul\":1793:1799   */\n      dup2\n        /* \"#utility.yul\":1788:1791   */\n      dup6\n        /* \"#utility.yul\":1729:1800   */\n      tag_43\n      jump\t// in\n    tag_93:\n        /* \"#utility.yul\":1722:1800   */\n      swap4\n      pop\n        /* \"#utility.yul\":1809:1874   */\n      tag_94\n        /* \"#utility.yul\":1867:1873   */\n      dup2\n        /* \"#utility.yul\":1862:1865   */\n      dup6\n        /* \"#utility.yul\":1855:1859   */\n      0x20\n        /* \"#utility.yul\":1848:1853   */\n      dup7\n        /* \"#utility.yul\":1844:1860   */\n      add\n        /* \"#utility.yul\":1809:1874   */\n      tag_44\n      jump\t// in\n    tag_94:\n        /* \"#utility.yul\":1899:1928   */\n      tag_95\n        /* \"#utility.yul\":1921:1927   */\n      dup2\n        /* \"#utility.yul\":1899:1928   */\n      tag_45\n      jump\t// in\n    tag_95:\n        /* \"#utility.yul\":1894:1897   */\n      dup5\n        /* \"#utility.yul\":1890:1929   */\n      add\n        /* \"#utility.yul\":1883:1929   */\n      swap2\n      pop\n        /* \"#utility.yul\":1650:1935   */\n      pop\n        /* \"#utility.yul\":1558:1935   */\n      swap3\n      swap2\n      pop\n      pop\n      jump\t// out\n        /* \"#utility.yul\":1941:2254   */\n    tag_11:\n        /* \"#utility.yul\":2054:2058   */\n      0x00\n        /* \"#utility.yul\":2092:2094   */\n      0x20\n        /* \"#utility.yul\":2081:2090   */\n      dup3\n        /* \"#utility.yul\":2077:2095   */\n      add\n        /* \"#utility.yul\":2069:2095   */\n      swap1\n      pop\n        /* \"#utility.yul\":2141:2150   */\n      dup2\n        /* \"#utility.yul\":2135:2139   */\n      dup2\n        /* \"#utility.yul\":2131:2151   */\n      sub\n        /* \"#utility.yul\":2127:2128   */\n      0x00\n        /* \"#utility.yul\":2116:2125   */\n      dup4\n        /* \"#utility.yul\":2112:2129   */\n      add\n        /* \"#utility.yul\":2105:2152   */\n      mstore\n        /* \"#utility.yul\":2169:2247   */\n      tag_97\n        /* \"#utility.yul\":2242:2246   */\n      dup2\n        /* \"#utility.yul\":2233:2239   */\n      dup5\n        /* \"#utility.yul\":2169:2247   */\n      tag_46\n      jump\t// in\n    tag_97:\n        /* \"#utility.yul\":2161:2247   */\n      swap1\n      pop\n        /* \"#utility.yul\":1941:2254   */\n      swap3\n      swap2\n      pop\n      pop\n      jump\t// out\n        /* \"#utility.yul\":2260:2377   */\n    tag_47:\n        /* \"#utility.yul\":2369:2370   */\n      0x00\n        /* \"#utility.yul\":2366:2367   */\n      dup1\n        /* \"#utility.yul\":2359:2371   */\n      revert\n        /* \"#utility.yul\":2383:2500   */\n    tag_48:\n        /* \"#utility.yul\":2492:2493   */\n      0x00\n        /* \"#utility.yul\":2489:2490   */\n      dup1\n        /* \"#utility.yul\":2482:2494   */\n      revert\n        /* \"#utility.yul\":2506:2623   */\n    tag_49:\n        /* \"#utility.yul\":2615:2616   */\n      0x00\n        /* \"#utility.yul\":2612:2613   */\n      dup1\n        /* \"#utility.yul\":2605:2617   */\n      revert\n        /* \"#utility.yul\":2643:3196   */\n    tag_50:\n        /* \"#utility.yul\":2701:2709   */\n      0x00\n        /* \"#utility.yul\":2711:2717   */\n      dup1\n        /* \"#utility.yul\":2761:2764   */\n      dup4\n        /* \"#utility.yul\":2754:2758   */\n      0x1f\n        /* \"#utility.yul\":2746:2752   */\n      dup5\n        /* \"#utility.yul\":2742:2759   */\n      add\n        /* \"#utility.yul\":2738:2765   */\n      slt\n        /* \"#utility.yul\":2728:2850   */\n      tag_102\n      jumpi\n        /* \"#utility.yul\":2769:2848   */\n      tag_103\n      tag_47\n      jump\t// in\n    tag_103:\n        /* \"#utility.yul\":2728:2850   */\n    tag_102:\n        /* \"#utility.yul\":2882:2888   */\n      dup3\n        /* \"#utility.yul\":2869:2889   */\n      calldataload\n        /* \"#utility.yul\":2859:2889   */\n      swap1\n      pop\n        /* \"#utility.yul\":2912:2930   */\n      0xffffffffffffffff\n        /* \"#utility.yul\":2904:2910   */\n      dup2\n        /* \"#utility.yul\":2901:2931   */\n      gt\n        /* \"#utility.yul\":2898:3015   */\n      iszero\n      tag_104\n      jumpi\n        /* \"#utility.yul\":2934:3013   */\n      tag_105\n      tag_48\n      jump\t// in\n    tag_105:\n        /* \"#utility.yul\":2898:3015   */\n    tag_104:\n        /* \"#utility.yul\":3048:3052   */\n      0x20\n        /* \"#utility.yul\":3040:3046   */\n      dup4\n        /* \"#utility.yul\":3036:3053   */\n      add\n        /* \"#utility.yul\":3024:3053   */\n      swap2\n      pop\n        /* \"#utility.yul\":3102:3105   */\n      dup4\n        /* \"#utility.yul\":3094:3098   */\n      0x01\n        /* \"#utility.yul\":3086:3092   */\n      dup3\n        /* \"#utility.yul\":3082:3099   */\n      mul\n        /* \"#utility.yul\":3072:3080   */\n      dup4\n        /* \"#utility.yul\":3068:3100   */\n      add\n        /* \"#utility.yul\":3065:3106   */\n      gt\n        /* \"#utility.yul\":3062:3190   */\n      iszero\n      tag_106\n      jumpi\n        /* \"#utility.yul\":3109:3188   */\n      tag_107\n      tag_49\n      jump\t// in\n    tag_107:\n        /* \"#utility.yul\":3062:3190   */\n    tag_106:\n        /* \"#utility.yul\":2643:3196   */\n      swap3\n      pop\n      swap3\n      swap1\n      pop\n      jump\t// out\n        /* \"#utility.yul\":3202:3876   */\n    tag_14:\n        /* \"#utility.yul\":3282:3288   */\n      0x00\n        /* \"#utility.yul\":3290:3296   */\n      dup1\n        /* \"#utility.yul\":3298:3304   */\n      0x00\n        /* \"#utility.yul\":3347:3349   */\n      0x40\n        /* \"#utility.yul\":3335:3344   */\n      dup5\n        /* \"#utility.yul\":3326:3333   */\n      dup7\n        /* \"#utility.yul\":3322:3345   */\n      sub\n        /* \"#utility.yul\":3318:3350   */\n      slt\n        /* \"#utility.yul\":3315:3434   */\n      iszero\n      tag_109\n      jumpi\n        /* \"#utility.yul\":3353:3432   */\n      tag_110\n      tag_37\n      jump\t// in\n    tag_110:\n        /* \"#utility.yul\":3315:3434   */\n    tag_109:\n        /* \"#utility.yul\":3473:3474   */\n      0x00\n        /* \"#utility.yul\":3498:3551   */\n      tag_111\n        /* \"#utility.yul\":3543:3550   */\n      dup7\n        /* \"#utility.yul\":3534:3540   */\n      dup3\n        /* \"#utility.yul\":3523:3532   */\n      dup8\n        /* \"#utility.yul\":3519:3541   */\n      add\n        /* \"#utility.yul\":3498:3551   */\n      tag_41\n      jump\t// in\n    tag_111:\n        /* \"#utility.yul\":3488:3551   */\n      swap4\n      pop\n        /* \"#utility.yul\":3444:3561   */\n      pop\n        /* \"#utility.yul\":3628:3630   */\n      0x20\n        /* \"#utility.yul\":3617:3626   */\n      dup5\n        /* \"#utility.yul\":3613:3631   */\n      add\n        /* \"#utility.yul\":3600:3632   */\n      calldataload\n        /* \"#utility.yul\":3659:3677   */\n      0xffffffffffffffff\n        /* \"#utility.yul\":3651:3657   */\n      dup2\n        /* \"#utility.yul\":3648:3678   */\n      gt\n        /* \"#utility.yul\":3645:3762   */\n      iszero\n      tag_112\n      jumpi\n        /* \"#utility.yul\":3681:3760   */\n      tag_113\n      tag_38\n      jump\t// in\n    tag_113:\n        /* \"#utility.yul\":3645:3762   */\n    tag_112:\n        /* \"#utility.yul\":3794:3859   */\n      tag_114\n        /* \"#utility.yul\":3851:3858   */\n      dup7\n        /* \"#utility.yul\":3842:3848   */\n      dup3\n        /* \"#utility.yul\":3831:3840   */\n      dup8\n        /* \"#utility.yul\":3827:3849   */\n      add\n        /* \"#utility.yul\":3794:3859   */\n      tag_50\n      jump\t// in\n    tag_114:\n        /* \"#utility.yul\":3776:3859   */\n      swap3\n      pop\n      swap3\n      pop\n        /* \"#utility.yul\":3571:3869   */\n      pop\n        /* \"#utility.yul\":3202:3876   */\n      swap3\n      pop\n      swap3\n      pop\n      swap3\n      jump\t// out\n        /* \"#utility.yul\":3882:4008   */\n    tag_51:\n        /* \"#utility.yul\":3919:3926   */\n      0x00\n        /* \"#utility.yul\":3959:4001   */\n      0xffffffffffffffffffffffffffffffffffffffff\n        /* \"#utility.yul\":3952:3957   */\n      dup3\n        /* \"#utility.yul\":3948:4002   */\n      and\n        /* \"#utility.yul\":3937:4002   */\n      swap1\n      pop\n        /* \"#utility.yul\":3882:4008   */\n      swap2\n      swap1\n      pop\n      jump\t// out\n        /* \"#utility.yul\":4014:4110   */\n    tag_52:\n        /* \"#utility.yul\":4051:4058   */\n      0x00\n        /* \"#utility.yul\":4080:4104   */\n      tag_117\n        /* \"#utility.yul\":4098:4103   */\n      dup3\n        /* \"#utility.yul\":4080:4104   */\n      tag_51\n      jump\t// in\n    tag_117:\n        /* \"#utility.yul\":4069:4104   */\n      swap1\n      pop\n        /* \"#utility.yul\":4014:4110   */\n      swap2\n      swap1\n      pop\n      jump\t// out\n        /* \"#utility.yul\":4116:4238   */\n    tag_53:\n        /* \"#utility.yul\":4189:4213   */\n      tag_119\n        /* \"#utility.yul\":4207:4212   */\n      dup2\n        /* \"#utility.yul\":4189:4213   */\n      tag_52\n      jump\t// in\n    tag_119:\n        /* \"#utility.yul\":4182:4187   */\n      dup2\n        /* \"#utility.yul\":4179:4214   */\n      eq\n        /* \"#utility.yul\":4169:4232   */\n      tag_120\n      jumpi\n        /* \"#utility.yul\":4228:4229   */\n      0x00\n        /* \"#utility.yul\":4225:4226   */\n      dup1\n        /* \"#utility.yul\":4218:4230   */\n      revert\n        /* \"#utility.yul\":4169:4232   */\n    tag_120:\n        /* \"#utility.yul\":4116:4238   */\n      pop\n      jump\t// out\n        /* \"#utility.yul\":4244:4383   */\n    tag_54:\n        /* \"#utility.yul\":4290:4295   */\n      0x00\n        /* \"#utility.yul\":4328:4334   */\n      dup2\n        /* \"#utility.yul\":4315:4335   */\n      calldataload\n        /* \"#utility.yul\":4306:4335   */\n      swap1\n      pop\n        /* \"#utility.yul\":4344:4377   */\n      tag_122\n        /* \"#utility.yul\":4371:4376   */\n      dup2\n        /* \"#utility.yul\":4344:4377   */\n      tag_53\n      jump\t// in\n    tag_122:\n        /* \"#utility.yul\":4244:4383   */\n      swap3\n      swap2\n      pop\n      pop\n      jump\t// out\n        /* \"#utility.yul\":4389:4863   */\n    tag_18:\n        /* \"#utility.yul\":4457:4463   */\n      0x00\n        /* \"#utility.yul\":4465:4471   */\n      dup1\n        /* \"#utility.yul\":4514:4516   */\n      0x40\n        /* \"#utility.yul\":4502:4511   */\n      dup4\n        /* \"#utility.yul\":4493:4500   */\n      dup6\n        /* \"#utility.yul\":4489:4512   */\n      sub\n        /* \"#utility.yul\":4485:4517   */\n      slt\n        /* \"#utility.yul\":4482:4601   */\n      iszero\n      tag_124\n      jumpi\n        /* \"#utility.yul\":4520:4599   */\n      tag_125\n      tag_37\n      jump\t// in\n    tag_125:\n        /* \"#utility.yul\":4482:4601   */\n    tag_124:\n        /* \"#utility.yul\":4640:4641   */\n      0x00\n        /* \"#utility.yul\":4665:4718   */\n      tag_126\n        /* \"#utility.yul\":4710:4717   */\n      dup6\n        /* \"#utility.yul\":4701:4707   */\n      dup3\n        /* \"#utility.yul\":4690:4699   */\n      dup7\n        /* \"#utility.yul\":4686:4708   */\n      add\n        /* \"#utility.yul\":4665:4718   */\n      tag_41\n      jump\t// in\n    tag_126:\n        /* \"#utility.yul\":4655:4718   */\n      swap3\n      pop\n        /* \"#utility.yul\":4611:4728   */\n      pop\n        /* \"#utility.yul\":4767:4769   */\n      0x20\n        /* \"#utility.yul\":4793:4846   */\n      tag_127\n        /* \"#utility.yul\":4838:4845   */\n      dup6\n        /* \"#utility.yul\":4829:4835   */\n      dup3\n        /* \"#utility.yul\":4818:4827   */\n      dup7\n        /* \"#utility.yul\":4814:4836   */\n      add\n        /* \"#utility.yul\":4793:4846   */\n      tag_54\n      jump\t// in\n    tag_127:\n        /* \"#utility.yul\":4783:4846   */\n      swap2\n      pop\n        /* \"#utility.yul\":4738:4856   */\n      pop\n        /* \"#utility.yul\":4389:4863   */\n      swap3\n      pop\n      swap3\n      swap1\n      pop\n      jump\t// out\n        /* \"#utility.yul\":4869:5049   */\n    tag_55:\n        /* \"#utility.yul\":4917:4994   */\n      0x4e487b7100000000000000000000000000000000000000000000000000000000\n        /* \"#utility.yul\":4914:4915   */\n      0x00\n        /* \"#utility.yul\":4907:4995   */\n      mstore\n        /* \"#utility.yul\":5014:5018   */\n      0x22\n        /* \"#utility.yul\":5011:5012   */\n      0x04\n        /* \"#utility.yul\":5004:5019   */\n      mstore\n        /* \"#utility.yul\":5038:5042   */\n      0x24\n        /* \"#utility.yul\":5035:5036   */\n      0x00\n        /* \"#utility.yul\":5028:5043   */\n      revert\n        /* \"#utility.yul\":5055:5375   */\n    tag_23:\n        /* \"#utility.yul\":5099:5105   */\n      0x00\n        /* \"#utility.yul\":5136:5137   */\n      0x02\n        /* \"#utility.yul\":5130:5134   */\n      dup3\n        /* \"#utility.yul\":5126:5138   */\n      div\n        /* \"#utility.yul\":5116:5138   */\n      swap1\n      pop\n        /* \"#utility.yul\":5183:5184   */\n      0x01\n        /* \"#utility.yul\":5177:5181   */\n      dup3\n        /* \"#utility.yul\":5173:5185   */\n      and\n        /* \"#utility.yul\":5204:5222   */\n      dup1\n        /* \"#utility.yul\":5194:5275   */\n      tag_130\n      jumpi\n        /* \"#utility.yul\":5260:5264   */\n      0x7f\n        /* \"#utility.yul\":5252:5258   */\n      dup3\n        /* \"#utility.yul\":5248:5265   */\n      and\n        /* \"#utility.yul\":5238:5265   */\n      swap2\n      pop\n        /* \"#utility.yul\":5194:5275   */\n    tag_130:\n        /* \"#utility.yul\":5322:5324   */\n      0x20\n        /* \"#utility.yul\":5314:5320   */\n      dup3\n        /* \"#utility.yul\":5311:5325   */\n      lt\n        /* \"#utility.yul\":5291:5309   */\n      dup2\n        /* \"#utility.yul\":5288:5326   */\n      sub\n        /* \"#utility.yul\":5285:5369   */\n      tag_131\n      jumpi\n        /* \"#utility.yul\":5341:5359   */\n      tag_132\n      tag_55\n      jump\t// in\n    tag_132:\n        /* \"#utility.yul\":5285:5369   */\n    tag_131:\n        /* \"#utility.yul\":5106:5375   */\n      pop\n        /* \"#utility.yul\":5055:5375   */\n      swap2\n      swap1\n      pop\n      jump\t// out\n        /* \"#utility.yul\":5381:5478   */\n    tag_56:\n        /* \"#utility.yul\":5440:5446   */\n      0x00\n        /* \"#utility.yul\":5468:5471   */\n      dup3\n        /* \"#utility.yul\":5458:5471   */\n      swap1\n      pop\n        /* \"#utility.yul\":5381:5478   */\n      swap3\n      swap2\n      pop\n      pop\n      jump\t// out\n        /* \"#utility.yul\":5484:5664   */\n    tag_57:\n        /* \"#utility.yul\":5532:5609   */\n      0x4e487b7100000000000000000000000000000000000000000000000000000000\n        /* \"#utility.yul\":5529:5530   */\n      0x00\n        /* \"#utility.yul\":5522:5610   */\n      mstore\n        /* \"#utility.yul\":5629:5633   */\n      0x41\n        /* \"#utility.yul\":5626:5627   */\n      0x04\n        /* \"#utility.yul\":5619:5634   */\n      mstore\n        /* \"#utility.yul\":5653:5657   */\n      0x24\n        /* \"#utility.yul\":5650:5651   */\n      0x00\n        /* \"#utility.yul\":5643:5658   */\n      revert\n        /* \"#utility.yul\":5670:5811   */\n    tag_58:\n        /* \"#utility.yul\":5719:5723   */\n      0x00\n        /* \"#utility.yul\":5742:5745   */\n      dup2\n        /* \"#utility.yul\":5734:5745   */\n      swap1\n      pop\n        /* \"#utility.yul\":5765:5768   */\n      dup2\n        /* \"#utility.yul\":5762:5763   */\n      0x00\n        /* \"#utility.yul\":5755:5769   */\n      mstore\n        /* \"#utility.yul\":5799:5803   */\n      0x20\n        /* \"#utility.yul\":5796:5797   */\n      0x00\n        /* \"#utility.yul\":5786:5804   */\n      keccak256\n        /* \"#utility.yul\":5778:5804   */\n      swap1\n      pop\n        /* \"#utility.yul\":5670:5811   */\n      swap2\n      swap1\n      pop\n      jump\t// out\n        /* \"#utility.yul\":5817:5910   */\n    tag_59:\n        /* \"#utility.yul\":5854:5860   */\n      0x00\n        /* \"#utility.yul\":5901:5903   */\n      0x20\n        /* \"#utility.yul\":5896:5898   */\n      0x1f\n        /* \"#utility.yul\":5889:5894   */\n      dup4\n        /* \"#utility.yul\":5885:5899   */\n      add\n        /* \"#utility.yul\":5881:5904   */\n      div\n        /* \"#utility.yul\":5871:5904   */\n      swap1\n      pop\n        /* \"#utility.yul\":5817:5910   */\n      swap2\n      swap1\n      pop\n      jump\t// out\n        /* \"#utility.yul\":5916:6023   */\n    tag_60:\n        /* \"#utility.yul\":5960:5968   */\n      0x00\n        /* \"#utility.yul\":6010:6015   */\n      dup3\n        /* \"#utility.yul\":6004:6008   */\n      dup3\n        /* \"#utility.yul\":6000:6016   */\n      shl\n        /* \"#utility.yul\":5979:6016   */\n      swap1\n      pop\n        /* \"#utility.yul\":5916:6023   */\n      swap3\n      swap2\n      pop\n      pop\n      jump\t// out\n        /* \"#utility.yul\":6029:6422   */\n    tag_61:\n        /* \"#utility.yul\":6098:6104   */\n      0x00\n        /* \"#utility.yul\":6148:6149   */\n      0x08\n        /* \"#utility.yul\":6136:6146   */\n      dup4\n        /* \"#utility.yul\":6132:6150   */\n      mul\n        /* \"#utility.yul\":6171:6268   */\n      tag_139\n        /* \"#utility.yul\":6201:6267   */\n      0xffffffffffffffffffffffffffffffffffffffffffffffffffffffffffffffff\n        /* \"#utility.yul\":6190:6199   */\n      dup3\n        /* \"#utility.yul\":6171:6268   */\n      tag_60\n      jump\t// in\n    tag_139:\n        /* \"#utility.yul\":6289:6328   */\n      tag_140\n        /* \"#utility.yul\":6319:6327   */\n      dup7\n        /* \"#utility.yul\":6308:6317   */\n      dup4\n        /* \"#utility.yul\":6289:6328   */\n      tag_60\n      jump\t// in\n    tag_140:\n        /* \"#utility.yul\":6277:6328   */\n      swap6\n      pop\n        /* \"#utility.yul\":6361:6365   */\n      dup1\n        /* \"#utility.yul\":6357:6366   */\n      not\n        /* \"#utility.yul\":6350:6355   */\n      dup5\n        /* \"#utility.yul\":6346:6367   */\n      and\n        /* \"#utility.yul\":6337:6367   */\n      swap4\n      pop\n        /* \"#utility.yul\":6410:6414   */\n      dup1\n        /* \"#utility.yul\":6400:6408   */\n      dup7\n        /* \"#utility.yul\":6396:6415   */\n      and\n        /* \"#utility.yul\":6389:6394   */\n      dup5\n        /* \"#utility.yul\":6386:6416   */\n      or\n        /* \"#utility.yul\":6376:6416   */\n      swap3\n      pop\n        /* \"#utility.yul\":6105:6422   */\n      pop\n      pop\n        /* \"#utility.yul\":6029:6422   */\n      swap4\n      swap3\n      pop\n      pop\n      pop\n      jump\t// out\n        /* \"#utility.yul\":6428:6488   */\n    tag_62:\n        /* \"#utility.yul\":6456:6459   */\n      0x00\n        /* \"#utility.yul\":6477:6482   */\n      dup2\n        /* \"#utility.yul\":6470:6482   */\n      swap1\n      pop\n        /* \"#utility.yul\":6428:6488   */\n      swap2\n      swap1\n      pop\n      jump\t// out\n        /* \"#utility.yul\":6494:6636   */\n    tag_63:\n        /* \"#utility.yul\":6544:6553   */\n      0x00\n        /* \"#utility.yul\":6577:6630   */\n      tag_143\n        /* \"#utility.yul\":6595:6629   */\n      tag_144\n        /* \"#utility.yul\":6604:6628   */\n      tag_145\n        /* \"#utility.yul\":6622:6627   */\n      dup5\n        /* \"#utility.yul\":6604:6628   */\n      tag_39\n      jump\t// in\n    tag_145:\n        /* \"#utility.yul\":6595:6629   */\n      tag_62\n      jump\t// in\n    tag_144:\n        /* \"#utility.yul\":6577:6630   */\n      tag_39\n      jump\t// in\n    tag_143:\n        /* \"#utility.yul\":6564:6630   */\n      swap1\n      pop\n        /* \"#utility.yul\":6494:6636   */\n      swap2\n      swap1\n      pop\n      jump\t// out\n        /* \"#utility.yul\":6642:6717   */\n    tag_64:\n        /* \"#utility.yul\":6685:6688   */\n      0x00\n        /* \"#utility.yul\":6706:6711   */\n      dup2\n        /* \"#utility.yul\":6699:6711   */\n      swap1\n      pop\n        /* \"#utility.yul\":6642:6717   */\n      swap2\n      swap1\n      pop\n      jump\t// out\n        /* \"#utility.yul\":6723:6992   */\n    tag_65:\n        /* \"#utility.yul\":6833:6872   */\n      tag_148\n        /* \"#utility.yul\":6864:6871   */\n      dup4\n        /* \"#utility.yul\":6833:6872   */\n      tag_63\n      jump\t// in\n    tag_148:\n        /* \"#utility.yul\":6894:6985   */\n      tag_149\n        /* \"#utility.yul\":6943:6984   */\n      tag_150\n        /* \"#utility.yul\":6967:6983   */\n      dup3\n        /* \"#utility.yul\":6943:6984   */\n      tag_64\n      jump\t// in\n    tag_150:\n        /* \"#utility.yul\":6935:6941   */\n      dup5\n        /* \"#utility.yul\":6928:6932   */\n      dup5\n        /* \"#utility.yul\":6922:6933   */\n      sload\n        /* \"#utility.yul\":6894:6985   */\n      tag_61\n      jump\t// in\n    tag_149:\n        /* \"#utility.yul\":6888:6892   */\n      dup3\n        /* \"#utility.yul\":6881:6986   */\n      sstore\n        /* \"#utility.yul\":6799:6992   */\n      pop\n        /* \"#utility.yul\":6723:6992   */\n      pop\n      pop\n      pop\n      jump\t// out\n        /* \"#utility.yul\":6998:7071   */\n    tag_66:\n        /* \"#utility.yul\":7043:7046   */\n      0x00\n        /* \"#utility.yul\":6998:7071   */\n      swap1\n      jump\t// out\n        /* \"#utility.yul\":7077:7266   */\n    tag_67:\n        /* \"#utility.yul\":7154:7186   */\n      tag_153\n      tag_66\n      jump\t// in\n    tag_153:\n        /* \"#utility.yul\":7195:7260   */\n      tag_154\n        /* \"#utility.yul\":7253:7259   */\n      dup2\n        /* \"#utility.yul\":7245:7251   */\n      dup5\n        /* \"#utility.yul\":7239:7243   */\n      dup5\n        /* \"#utility.yul\":7195:7260   */\n      tag_65\n      jump\t// in\n    tag_154:\n        /* \"#utility.yul\":7130:7266   */\n      pop\n        /* \"#utility.yul\":7077:7266   */\n      pop\n      pop\n      jump\t// out\n        /* \"#utility.yul\":7272:7458   */\n    tag_68:\n        /* \"#utility.yul\":7332:7452   */\n    tag_156:\n        /* \"#utility.yul\":7349:7352   */\n      dup2\n        /* \"#utility.yul\":7342:7347   */\n      dup2\n        /* \"#utility.yul\":7339:7353   */\n      lt\n        /* \"#utility.yul\":7332:7452   */\n      iszero\n      tag_158\n      jumpi\n        /* \"#utility.yul\":7403:7442   */\n      tag_159\n        /* \"#utility.yul\":7440:7441   */\n      0x00\n        /* \"#utility.yul\":7433:7438   */\n      dup3\n        /* \"#utility.yul\":7403:7442   */\n      tag_67\n      jump\t// in\n    tag_159:\n        /* \"#utility.yul\":7376:7377   */\n      0x01\n        /* \"#utility.yul\":7369:7374   */\n      dup2\n        /* \"#utility.yul\":7365:7378   */\n      add\n        /* \"#utility.yul\":7356:7378   */\n      swap1\n      pop\n        /* \"#utility.yul\":7332:7452   */\n      jump(tag_156)\n    tag_158:\n        /* \"#utility.yul\":7272:7458   */\n      pop\n      pop\n      jump\t// out\n        /* \"#utility.yul\":7464:8007   */\n    tag_69:\n        /* \"#utility.yul\":7565:7567   */\n      0x1f\n        /* \"#utility.yul\":7560:7563   */\n      dup3\n        /* \"#utility.yul\":7557:7568   */\n      gt\n        /* \"#utility.yul\":7554:8000   */\n      iszero\n      tag_161\n      jumpi\n        /* \"#utility.yul\":7599:7637   */\n      tag_162\n        /* \"#utility.yul\":7631:7636   */\n      dup2\n        /* \"#utility.yul\":7599:7637   */\n      tag_58\n      jump\t// in\n    tag_162:\n        /* \"#utility.yul\":7683:7712   */\n      tag_163\n        /* \"#utility.yul\":7701:7711   */\n      dup5\n        /* \"#utility.yul\":7683:7712   */\n      tag_59\n      jump\t// in\n    tag_163:\n        /* \"#utility.yul\":7673:7681   */\n      dup2\n        /* \"#utility.yul\":7669:7713   */\n      add\n        /* \"#utility.yul\":7866:7868   */\n      0x20\n        /* \"#utility.yul\":7854:7864   */\n      dup6\n        /* \"#utility.yul\":7851:7869   */\n      lt\n        /* \"#utility.yul\":7848:7897   */\n      iszero\n      tag_164\n      jumpi\n        /* \"#utility.yul\":7887:7895   */\n      dup2\n        /* \"#utility.yul\":7872:7895   */\n      swap1\n      pop\n        /* \"#utility.yul\":7848:7897   */\n    tag_164:\n        /* \"#utility.yul\":7910:7990   */\n      tag_165\n        /* \"#utility.yul\":7966:7988   */\n      tag_166\n        /* \"#utility.yul\":7984:7987   */\n      dup6\n        /* \"#utility.yul\":7966:7988   */\n      tag_59\n      jump\t// in\n    tag_166:\n        /* \"#utility.yul\":7956:7964   */\n      dup4\n        /* \"#utility.yul\":7952:7989   */\n      add\n        /* \"#utility.yul\":7939:7950   */\n      dup3\n        /* \"#utility.yul\":7910:7990   */\n      tag_68\n      jump\t// in\n    tag_165:\n        /* \"#utility.yul\":7569:8000   */\n      pop\n      pop\n        /* \"#utility.yul\":7554:8000   */\n    tag_161:\n        /* \"#utility.yul\":7464:8007   */\n      pop\n      pop\n      pop\n      jump\t// out\n        /* \"#utility.yul\":8013:8130   */\n    tag_70:\n        /* \"#utility.yul\":8067:8075   */\n      0x00\n        /* \"#utility.yul\":8117:8122   */\n      dup3\n        /* \"#utility.yul\":8111:8115   */\n      dup3\n        /* \"#utility.yul\":8107:8123   */\n      shr\n        /* \"#utility.yul\":8086:8123   */\n      swap1\n      pop\n        /* \"#utility.yul\":8013:8130   */\n      swap3\n      swap2\n      pop\n      pop\n      jump\t// out\n        /* \"#utility.yul\":8136:8305   */\n    tag_71:\n        /* \"#utility.yul\":8180:8186   */\n      0x00\n        /* \"#utility.yul\":8213:8264   */\n      tag_169\n        /* \"#utility.yul\":8261:8262   */\n      0x00\n        /* \"#utility.yul\":8257:8263   */\n      not\n        /* \"#utility.yul\":8249:8254   */\n      dup5\n        /* \"#utility.yul\":8246:8247   */\n      0x08\n        /* \"#utility.yul\":8242:8255   */\n      mul\n        /* \"#utility.yul\":8213:8264   */\n      tag_70\n      jump\t// in\n    tag_169:\n        /* \"#utility.yul\":8209:8265   */\n      not\n        /* \"#utility.yul\":8294:8298   */\n      dup1\n        /* \"#utility.yul\":8288:8292   */\n      dup4\n        /* \"#utility.yul\":8284:8299   */\n      and\n        /* \"#utility.yul\":8274:8299   */\n      swap2\n      pop\n        /* \"#utility.yul\":8187:8305   */\n      pop\n        /* \"#utility.yul\":8136:8305   */\n      swap3\n      swap2\n      pop\n      pop\n      jump\t// out\n        /* \"#utility.yul\":8310:8605   */\n    tag_72:\n        /* \"#utility.yul\":8386:8390   */\n      0x00\n        /* \"#utility.yul\":8532:8561   */\n      tag_171\n        /* \"#utility.yul\":8557:8560   */\n      dup4\n        /* \"#utility.yul\":8551:8555   */\n      dup4\n        /* \"#utility.yul\":8532:8561   */\n      tag_71\n      jump\t// in\n    tag_171:\n        /* \"#utility.yul\":8524:8561   */\n      swap2\n      pop\n        /* \"#utility.yul\":8594:8597   */\n      dup3\n        /* \"#utility.yul\":8591:8592   */\n      0x02\n        /* \"#utility.yul\":8587:8598   */\n      mul\n        /* \"#utility.yul\":8581:8585   */\n      dup3\n        /* \"#utility.yul\":8578:8599   */\n      or\n        /* \"#utility.yul\":8570:8599   */\n      swap1\n      pop\n        /* \"#utility.yul\":8310:8605   */\n      swap3\n      swap2\n      pop\n      pop\n      jump\t// out\n        /* \"#utility.yul\":8610:10013   */\n    tag_30:\n        /* \"#utility.yul\":8734:8778   */\n      tag_173\n        /* \"#utility.yul\":8774:8777   */\n      dup4\n        /* \"#utility.yul\":8769:8772   */\n      dup4\n        /* \"#utility.yul\":8734:8778   */\n      tag_56\n      jump\t// in\n    tag_173:\n        /* \"#utility.yul\":8843:8861   */\n      0xffffffffffffffff\n        /* \"#utility.yul\":8835:8841   */\n      dup2\n        /* \"#utility.yul\":8832:8862   */\n      gt\n        /* \"#utility.yul\":8829:8885   */\n      iszero\n      tag_174\n      jumpi\n        /* \"#utility.yul\":8865:8883   */\n      tag_175\n      tag_57\n      jump\t// in\n    tag_175:\n        /* \"#utility.yul\":8829:8885   */\n    tag_174:\n        /* \"#utility.yul\":8909:8947   */\n      tag_176\n        /* \"#utility.yul\":8941:8945   */\n      dup3\n        /* \"#utility.yul\":8935:8946   */\n      sload\n        /* \"#utility.yul\":8909:8947   */\n      tag_23\n      jump\t// in\n    tag_176:\n        /* \"#utility.yul\":8994:9061   */\n      tag_177\n        /* \"#utility.yul\":9054:9060   */\n      dup3\n        /* \"#utility.yul\":9046:9052   */\n      dup3\n        /* \"#utility.yul\":9040:9044   */\n      dup6\n        /* \"#utility.yul\":8994:9061   */\n      tag_69\n      jump\t// in\n    tag_177:\n        /* \"#utility.yul\":9088:9089   */\n      0x00\n        /* \"#utility.yul\":9117:9119   */\n      0x1f\n        /* \"#utility.yul\":9109:9115   */\n      dup4\n        /* \"#utility.yul\":9106:9120   */\n      gt\n        /* \"#utility.yul\":9134:9135   */\n      0x01\n        /* \"#utility.yul\":9129:9761   */\n      dup2\n      eq\n      tag_179\n      jumpi\n        /* \"#utility.yul\":9805:9806   */\n      0x00\n        /* \"#utility.yul\":9822:9828   */\n      dup5\n        /* \"#utility.yul\":9819:9903   */\n      iszero\n      tag_180\n      jumpi\n        /* \"#utility.yul\":9878:9887   */\n      dup3\n        /* \"#utility.yul\":9873:9876   */\n      dup8\n        /* \"#utility.yul\":9869:9888   */\n      add\n        /* \"#utility.yul\":9856:9889   */\n      calldataload\n        /* \"#utility.yul\":9847:9889   */\n      swap1\n      pop\n        /* \"#utility.yul\":9819:9903   */\n    tag_180:\n        /* \"#utility.yul\":9929:9996   */\n      tag_181\n        /* \"#utility.yul\":9989:9995   */\n      dup6\n        /* \"#utility.yul\":9982:9987   */\n      dup3\n        /* \"#utility.yul\":9929:9996   */\n      tag_72\n      jump\t// in\n    tag_181:\n        /* \"#utility.yul\":9923:9927   */\n      dup7\n        /* \"#utility.yul\":9916:9997   */\n      sstore\n        /* \"#utility.yul\":9778:10007   */\n      pop\n        /* \"#utility.yul\":9099:10007   */\n      jump(tag_178)\n        /* \"#utility.yul\":9129:9761   */\n    tag_179:\n        /* \"#utility.yul\":9181:9185   */\n      0x1f\n        /* \"#utility.yul\":9177:9186   */\n      not\n        /* \"#utility.yul\":9169:9175   */\n      dup5\n        /* \"#utility.yul\":9165:9187   */\n      and\n        /* \"#utility.yul\":9215:9252   */\n      tag_182\n        /* \"#utility.yul\":9247:9251   */\n      dup7\n        /* \"#utility.yul\":9215:9252   */\n      tag_58\n      jump\t// in\n    tag_182:\n        /* \"#utility.yul\":9274:9275   */\n      0x00\n        /* \"#utility.yul\":9288:9503   */\n    tag_183:\n        /* \"#utility.yul\":9302:9309   */\n      dup3\n        /* \"#utility.yul\":9299:9300   */\n      dup2\n        /* \"#utility.yul\":9296:9310   */\n      lt\n        /* \"#utility.yul\":9288:9503   */\n      iszero\n      tag_185\n      jumpi\n        /* \"#utility.yul\":9388:9397   */\n      dup5\n        /* \"#utility.yul\":9383:9386   */\n      dup10\n        /* \"#utility.yul\":9379:9398   */\n      add\n        /* \"#utility.yul\":9366:9399   */\n      calldataload\n        /* \"#utility.yul\":9358:9364   */\n      dup3\n        /* \"#utility.yul\":9351:9400   */\n      sstore\n        /* \"#utility.yul\":9439:9440   */\n      0x01\n        /* \"#utility.yul\":9431:9437   */\n      dup3\n        /* \"#utility.yul\":9427:9441   */\n      add\n        /* \"#utility.yul\":9417:9441   */\n      swap2\n      pop\n        /* \"#utility.yul\":9486:9488   */\n      0x20\n        /* \"#utility.yul\":9475:9484   */\n      dup6\n        /* \"#utility.yul\":9471:9489   */\n      add\n        /* \"#utility.yul\":9458:9489   */\n      swap5\n      pop\n        /* \"#utility.yul\":9325:9329   */\n      0x20\n        /* \"#utility.yul\":9322:9323   */\n      dup2\n        /* \"#utility.yul\":9318:9330   */\n      add\n        /* \"#utility.yul\":9313:9330   */\n      swap1\n      pop\n        /* \"#utility.yul\":9288:9503   */\n      jump(tag_183)\n    tag_185:\n        /* \"#utility.yul\":9531:9537   */\n      dup7\n        /* \"#utility.yul\":9522:9529   */\n      dup4\n        /* \"#utility.yul\":9519:9538   */\n      lt\n        /* \"#utility.yul\":9516:9702   */\n      iszero\n      tag_186\n      jumpi\n        /* \"#utility.yul\":9596:9605   */\n      dup5\n        /* \"#utility.yul\":9591:9594   */\n      dup10\n        /* \"#utility.yul\":9587:9606   */\n      add\n        /* \"#utility.yul\":9574:9607   */\n      calldataload\n        /* \"#utility.yul\":9639:9687   */\n      tag_187\n        /* \"#utility.yul\":9681:9685   */\n      0x1f\n        /* \"#utility.yul\":9673:9679   */\n      dup10\n        /* \"#utility.yul\":9669:9686   */\n      and\n        /* \"#utility.yul\":9658:9667   */\n      dup3\n        /* \"#utility.yul\":9639:9687   */\n      tag_71\n      jump\t// in\n    tag_187:\n        /* \"#utility.yul\":9631:9637   */\n      dup4\n        /* \"#utility.yul\":9624:9688   */\n      sstore\n        /* \"#utility.yul\":9539:9702   */\n      pop\n        /* \"#utility.yul\":9516:9702   */\n    tag_186:\n        /* \"#utility.yul\":9748:9749   */\n      0x01\n        /* \"#utility.yul\":9744:9745   */\n      0x02\n        /* \"#utility.yul\":9736:9742   */\n      dup9\n        /* \"#utility.yul\":9732:9746   */\n      mul\n        /* \"#utility.yul\":9728:9750   */\n      add\n        /* \"#utility.yul\":9722:9726   */\n      dup9\n        /* \"#utility.yul\":9715:9751   */\n      sstore\n        /* \"#utility.yul\":9136:9761   */\n      pop\n      pop\n      pop\n        /* \"#utility.yul\":9099:10007   */\n    tag_178:\n      pop\n        /* \"#utility.yul\":8709:10013   */\n      pop\n      pop\n      pop\n        /* \"#utility.yul\":8610:10013   */\n      pop\n      pop\n      pop\n      jump\t// out\n\n    auxdata: 0xa2646970667358221220440c698dfd7798dd0956db3005b64084f374016399b92f0f03578eb8d182316164736f6c634300081a0033\n}\n",
				"bytecode": {
					"linkReferences": {},
					"object": "6080604052348015600e575f80fd5b5061081f8061001c5f395ff3fe608060405234801561000f575f80fd5b506004361061003f575f3560e01c80630e89341c1461004357806364371977146100735780638afe5ad01461008f575b5f80fd5b61005d600480360381019061005891906102da565b6100bf565b60405161006a9190610375565b60405180910390f35b61008d600480360381019061008891906103f6565b61019a565b005b6100a960048036038101906100a491906104ad565b6101fa565b6040516100b69190610375565b60405180910390f35b60605f808381526020019081526020015f205f3373ffffffffffffffffffffffffffffffffffffffff1673ffffffffffffffffffffffffffffffffffffffff1681526020019081526020015f20805461011790610518565b80601f016020809104026020016040519081016040528092919081815260200182805461014390610518565b801561018e5780601f106101655761010080835404028352916020019161018e565b820191905f5260205f20905b81548152906001019060200180831161017157829003601f168201915b50505050509050919050565b81815f808681526020019081526020015f205f3373ffffffffffffffffffffffffffffffffffffffff1673ffffffffffffffffffffffffffffffffffffffff1681526020019081526020015f2091826101f492919061071c565b50505050565b5f602052815f5260405f20602052805f5260405f205f9150915050805461022090610518565b80601f016020809104026020016040519081016040528092919081815260200182805461024c90610518565b80156102975780601f1061026e57610100808354040283529160200191610297565b820191905f5260205f20905b81548152906001019060200180831161027a57829003601f168201915b505050505081565b5f80fd5b5f80fd5b5f819050919050565b6102b9816102a7565b81146102c3575f80fd5b50565b5f813590506102d4816102b0565b92915050565b5f602082840312156102ef576102ee61029f565b5b5f6102fc848285016102c6565b91505092915050565b5f81519050919050565b5f82825260208201905092915050565b8281835e5f83830152505050565b5f601f19601f8301169050919050565b5f61034782610305565b610351818561030f565b935061036181856020860161031f565b61036a8161032d565b840191505092915050565b5f6020820190508181035f83015261038d818461033d565b905092915050565b5f80fd5b5f80fd5b5f80fd5b5f8083601f8401126103b6576103b5610395565b5b8235905067ffffffffffffffff8111156103d3576103d2610399565b5b6020830191508360018202830111156103ef576103ee61039d565b5b9250929050565b5f805f6040848603121561040d5761040c61029f565b5b5f61041a868287016102c6565b935050602084013567ffffffffffffffff81111561043b5761043a6102a3565b5b610447868287016103a1565b92509250509250925092565b5f73ffffffffffffffffffffffffffffffffffffffff82169050919050565b5f61047c82610453565b9050919050565b61048c81610472565b8114610496575f80fd5b50565b5f813590506104a781610483565b92915050565b5f80604083850312156104c3576104c261029f565b5b5f6104d0858286016102c6565b92505060206104e185828601610499565b9150509250929050565b7f4e487b71000000000000000000000000000000000000000000000000000000005f52602260045260245ffd5b5f600282049050600182168061052f57607f821691505b602082108103610542576105416104eb565b5b50919050565b5f82905092915050565b7f4e487b71000000000000000000000000000000000000000000000000000000005f52604160045260245ffd5b5f819050815f5260205f209050919050565b5f6020601f8301049050919050565b5f82821b905092915050565b5f600883026105db7fffffffffffffffffffffffffffffffffffffffffffffffffffffffffffffffff826105a0565b6105e586836105a0565b95508019841693508086168417925050509392505050565b5f819050919050565b5f61062061061b610616846102a7565b6105fd565b6102a7565b9050919050565b5f819050919050565b61063983610606565b61064d61064582610627565b8484546105ac565b825550505050565b5f90565b610661610655565b61066c818484610630565b505050565b5b8181101561068f576106845f82610659565b600181019050610672565b5050565b601f8211156106d4576106a58161057f565b6106ae84610591565b810160208510156106bd578190505b6106d16106c985610591565b830182610671565b50505b505050565b5f82821c905092915050565b5f6106f45f19846008026106d9565b1980831691505092915050565b5f61070c83836106e5565b9150826002028217905092915050565b6107268383610548565b67ffffffffffffffff81111561073f5761073e610552565b5b6107498254610518565b610754828285610693565b5f601f831160018114610781575f841561076f578287013590505b6107798582610701565b8655506107e0565b601f19841661078f8661057f565b5f5b828110156107b657848901358255600182019150602085019450602081019050610791565b868310156107d357848901356107cf601f8916826106e5565b8355505b6001600288020188555050505b5050505050505056fea2646970667358221220440c698dfd7798dd0956db3005b64084f374016399b92f0f03578eb8d182316164736f6c634300081a0033",
					"opcodes": "PUSH1 0x80 PUSH1 0x40 MSTORE CALLVALUE DUP1 ISZERO PUSH1 0xE JUMPI PUSH0 DUP1 REVERT JUMPDEST POP PUSH2 0x81F DUP1 PUSH2 0x1C PUSH0 CODECOPY PUSH0 RETURN INVALID PUSH1 0x80 PUSH1 0x40 MSTORE CALLVALUE DUP1 ISZERO PUSH2 0xF JUMPI PUSH0 DUP1 REVERT JUMPDEST POP PUSH1 0x4 CALLDATASIZE LT PUSH2 0x3F JUMPI PUSH0 CALLDATALOAD PUSH1 0xE0 SHR DUP1 PUSH4 0xE89341C EQ PUSH2 0x43 JUMPI DUP1 PUSH4 0x64371977 EQ PUSH2 0x73 JUMPI DUP1 PUSH4 0x8AFE5AD0 EQ PUSH2 0x8F JUMPI JUMPDEST PUSH0 DUP1 REVERT JUMPDEST PUSH2 0x5D PUSH1 0x4 DUP1 CALLDATASIZE SUB DUP2 ADD SWAP1 PUSH2 0x58 SWAP2 SWAP1 PUSH2 0x2DA JUMP JUMPDEST PUSH2 0xBF JUMP JUMPDEST PUSH1 0x40 MLOAD PUSH2 0x6A SWAP2 SWAP1 PUSH2 0x375 JUMP JUMPDEST PUSH1 0x40 MLOAD DUP1 SWAP2 SUB SWAP1 RETURN JUMPDEST PUSH2 0x8D PUSH1 0x4 DUP1 CALLDATASIZE SUB DUP2 ADD SWAP1 PUSH2 0x88 SWAP2 SWAP1 PUSH2 0x3F6 JUMP JUMPDEST PUSH2 0x19A JUMP JUMPDEST STOP JUMPDEST PUSH2 0xA9 PUSH1 0x4 DUP1 CALLDATASIZE SUB DUP2 ADD SWAP1 PUSH2 0xA4 SWAP2 SWAP1 PUSH2 0x4AD JUMP JUMPDEST PUSH2 0x1FA JUMP JUMPDEST PUSH1 0x40 MLOAD PUSH2 0xB6 SWAP2 SWAP1 PUSH2 0x375 JUMP JUMPDEST PUSH1 0x40 MLOAD DUP1 SWAP2 SUB SWAP1 RETURN JUMPDEST PUSH1 0x60 PUSH0 DUP1 DUP4 DUP2 MSTORE PUSH1 0x20 ADD SWAP1 DUP2 MSTORE PUSH1 0x20 ADD PUSH0 KECCAK256 PUSH0 CALLER PUSH20 0xFFFFFFFFFFFFFFFFFFFFFFFFFFFFFFFFFFFFFFFF AND PUSH20 0xFFFFFFFFFFFFFFFFFFFFFFFFFFFFFFFFFFFFFFFF AND DUP2 MSTORE PUSH1 0x20 ADD SWAP1 DUP2 MSTORE PUSH1 0x20 ADD PUSH0 KECCAK256 DUP1 SLOAD PUSH2 0x117 SWAP1 PUSH2 0x518 JUMP JUMPDEST DUP1 PUSH1 0x1F ADD PUSH1 0x20 DUP1 SWAP2 DIV MUL PUSH1 0x20 ADD PUSH1 0x40 MLOAD SWAP1 DUP2 ADD PUSH1 0x40 MSTORE DUP1 SWAP3 SWAP2 SWAP1 DUP2 DUP2 MSTORE PUSH1 0x20 ADD DUP3 DUP1 SLOAD PUSH2 0x143 SWAP1 PUSH2 0x518 JUMP JUMPDEST DUP1 ISZERO PUSH2 0x18E JUMPI DUP1 PUSH1 0x1F LT PUSH2 0x165 JUMPI PUSH2 0x100 DUP1 DUP4 SLOAD DIV MUL DUP4 MSTORE SWAP2 PUSH1 0x20 ADD SWAP2 PUSH2 0x18E JUMP JUMPDEST DUP3 ADD SWAP2 SWAP1 PUSH0 MSTORE PUSH1 0x20 PUSH0 KECCAK256 SWAP1 JUMPDEST DUP2 SLOAD DUP2 MSTORE SWAP1 PUSH1 0x1 ADD SWAP1 PUSH1 0x20 ADD DUP1 DUP4 GT PUSH2 0x171 JUMPI DUP3 SWAP1 SUB PUSH1 0x1F AND DUP3 ADD SWAP2 JUMPDEST POP POP POP POP POP SWAP1 POP SWAP2 SWAP1 POP JUMP JUMPDEST DUP2 DUP2 PUSH0 DUP1 DUP7 DUP2 MSTORE PUSH1 0x20 ADD SWAP1 DUP2 MSTORE PUSH1 0x20 ADD PUSH0 KECCAK256 PUSH0 CALLER PUSH20 0xFFFFFFFFFFFFFFFFFFFFFFFFFFFFFFFFFFFFFFFF AND PUSH20 0xFFFFFFFFFFFFFFFFFFFFFFFFFFFFFFFFFFFFFFFF AND DUP2 MSTORE PUSH1 0x20 ADD SWAP1 DUP2 MSTORE PUSH1 0x20 ADD PUSH0 KECCAK256 SWAP2 DUP3 PUSH2 0x1F4 SWAP3 SWAP2 SWAP1 PUSH2 0x71C JUMP JUMPDEST POP POP POP POP JUMP JUMPDEST PUSH0 PUSH1 0x20 MSTORE DUP2 PUSH0 MSTORE PUSH1 0x40 PUSH0 KECCAK256 PUSH1 0x20 MSTORE DUP1 PUSH0 MSTORE PUSH1 0x40 PUSH0 KECCAK256 PUSH0 SWAP2 POP SWAP2 POP POP DUP1 SLOAD PUSH2 0x220 SWAP1 PUSH2 0x518 JUMP JUMPDEST DUP1 PUSH1 0x1F ADD PUSH1 0x20 DUP1 SWAP2 DIV MUL PUSH1 0x20 ADD PUSH1 0x40 MLOAD SWAP1 DUP2 ADD PUSH1 0x40 MSTORE DUP1 SWAP3 SWAP2 SWAP1 DUP2 DUP2 MSTORE PUSH1 0x20 ADD DUP3 DUP1 SLOAD PUSH2 0x24C SWAP1 PUSH2 0x518 JUMP JUMPDEST DUP1 ISZERO PUSH2 0x297 JUMPI DUP1 PUSH1 0x1F LT PUSH2 0x26E JUMPI PUSH2 0x100 DUP1 DUP4 SLOAD DIV MUL DUP4 MSTORE SWAP2 PUSH1 0x20 ADD SWAP2 PUSH2 0x297 JUMP JUMPDEST DUP3 ADD SWAP2 SWAP1 PUSH0 MSTORE PUSH1 0x20 PUSH0 KECCAK256 SWAP1 JUMPDEST DUP2 SLOAD DUP2 MSTORE SWAP1 PUSH1 0x1 ADD SWAP1 PUSH1 0x20 ADD DUP1 DUP4 GT PUSH2 0x27A JUMPI DUP3 SWAP1 SUB PUSH1 0x1F AND DUP3 ADD SWAP2 JUMPDEST POP POP POP POP POP DUP2 JUMP JUMPDEST PUSH0 DUP1 REVERT JUMPDEST PUSH0 DUP1 REVERT JUMPDEST PUSH0 DUP2 SWAP1 POP SWAP2 SWAP1 POP JUMP JUMPDEST PUSH2 0x2B9 DUP2 PUSH2 0x2A7 JUMP JUMPDEST DUP2 EQ PUSH2 0x2C3 JUMPI PUSH0 DUP1 REVERT JUMPDEST POP JUMP JUMPDEST PUSH0 DUP2 CALLDATALOAD SWAP1 POP PUSH2 0x2D4 DUP2 PUSH2 0x2B0 JUMP JUMPDEST SWAP3 SWAP2 POP POP JUMP JUMPDEST PUSH0 PUSH1 0x20 DUP3 DUP5 SUB SLT ISZERO PUSH2 0x2EF JUMPI PUSH2 0x2EE PUSH2 0x29F JUMP JUMPDEST JUMPDEST PUSH0 PUSH2 0x2FC DUP5 DUP3 DUP6 ADD PUSH2 0x2C6 JUMP JUMPDEST SWAP2 POP POP SWAP3 SWAP2 POP POP JUMP JUMPDEST PUSH0 DUP2 MLOAD SWAP1 POP SWAP2 SWAP1 POP JUMP JUMPDEST PUSH0 DUP3 DUP3 MSTORE PUSH1 0x20 DUP3 ADD SWAP1 POP SWAP3 SWAP2 POP POP JUMP JUMPDEST DUP3 DUP2 DUP4 MCOPY PUSH0 DUP4 DUP4 ADD MSTORE POP POP POP JUMP JUMPDEST PUSH0 PUSH1 0x1F NOT PUSH1 0x1F DUP4 ADD AND SWAP1 POP SWAP2 SWAP1 POP JUMP JUMPDEST PUSH0 PUSH2 0x347 DUP3 PUSH2 0x305 JUMP JUMPDEST PUSH2 0x351 DUP2 DUP6 PUSH2 0x30F JUMP JUMPDEST SWAP4 POP PUSH2 0x361 DUP2 DUP6 PUSH1 0x20 DUP7 ADD PUSH2 0x31F JUMP JUMPDEST PUSH2 0x36A DUP2 PUSH2 0x32D JUMP JUMPDEST DUP5 ADD SWAP2 POP POP SWAP3 SWAP2 POP POP JUMP JUMPDEST PUSH0 PUSH1 0x20 DUP3 ADD SWAP1 POP DUP2 DUP2 SUB PUSH0 DUP4 ADD MSTORE PUSH2 0x38D DUP2 DUP5 PUSH2 0x33D JUMP JUMPDEST SWAP1 POP SWAP3 SWAP2 POP POP JUMP JUMPDEST PUSH0 DUP1 REVERT JUMPDEST PUSH0 DUP1 REVERT JUMPDEST PUSH0 DUP1 REVERT JUMPDEST PUSH0 DUP1 DUP4 PUSH1 0x1F DUP5 ADD SLT PUSH2 0x3B6 JUMPI PUSH2 0x3B5 PUSH2 0x395 JUMP JUMPDEST JUMPDEST DUP3 CALLDATALOAD SWAP1 POP PUSH8 0xFFFFFFFFFFFFFFFF DUP2 GT ISZERO PUSH2 0x3D3 JUMPI PUSH2 0x3D2 PUSH2 0x399 JUMP JUMPDEST JUMPDEST PUSH1 0x20 DUP4 ADD SWAP2 POP DUP4 PUSH1 0x1 DUP3 MUL DUP4 ADD GT ISZERO PUSH2 0x3EF JUMPI PUSH2 0x3EE PUSH2 0x39D JUMP JUMPDEST JUMPDEST SWAP3 POP SWAP3 SWAP1 POP JUMP JUMPDEST PUSH0 DUP1 PUSH0 PUSH1 0x40 DUP5 DUP7 SUB SLT ISZERO PUSH2 0x40D JUMPI PUSH2 0x40C PUSH2 0x29F JUMP JUMPDEST JUMPDEST PUSH0 PUSH2 0x41A DUP7 DUP3 DUP8 ADD PUSH2 0x2C6 JUMP JUMPDEST SWAP4 POP POP PUSH1 0x20 DUP5 ADD CALLDATALOAD PUSH8 0xFFFFFFFFFFFFFFFF DUP2 GT ISZERO PUSH2 0x43B JUMPI PUSH2 0x43A PUSH2 0x2A3 JUMP JUMPDEST JUMPDEST PUSH2 0x447 DUP7 DUP3 DUP8 ADD PUSH2 0x3A1 JUMP JUMPDEST SWAP3 POP SWAP3 POP POP SWAP3 POP SWAP3 POP SWAP3 JUMP JUMPDEST PUSH0 PUSH20 0xFFFFFFFFFFFFFFFFFFFFFFFFFFFFFFFFFFFFFFFF DUP3 AND SWAP1 POP SWAP2 SWAP1 POP JUMP JUMPDEST PUSH0 PUSH2 0x47C DUP3 PUSH2 0x453 JUMP JUMPDEST SWAP1 POP SWAP2 SWAP1 POP JUMP JUMPDEST PUSH2 0x48C DUP2 PUSH2 0x472 JUMP JUMPDEST DUP2 EQ PUSH2 0x496 JUMPI PUSH0 DUP1 REVERT JUMPDEST POP JUMP JUMPDEST PUSH0 DUP2 CALLDATALOAD SWAP1 POP PUSH2 0x4A7 DUP2 PUSH2 0x483 JUMP JUMPDEST SWAP3 SWAP2 POP POP JUMP JUMPDEST PUSH0 DUP1 PUSH1 0x40 DUP4 DUP6 SUB SLT ISZERO PUSH2 0x4C3 JUMPI PUSH2 0x4C2 PUSH2 0x29F JUMP JUMPDEST JUMPDEST PUSH0 PUSH2 0x4D0 DUP6 DUP3 DUP7 ADD PUSH2 0x2C6 JUMP JUMPDEST SWAP3 POP POP PUSH1 0x20 PUSH2 0x4E1 DUP6 DUP3 DUP7 ADD PUSH2 0x499 JUMP JUMPDEST SWAP2 POP POP SWAP3 POP SWAP3 SWAP1 POP JUMP JUMPDEST PUSH32 0x4E487B7100000000000000000000000000000000000000000000000000000000 PUSH0 MSTORE PUSH1 0x22 PUSH1 0x4 MSTORE PUSH1 0x24 PUSH0 REVERT JUMPDEST PUSH0 PUSH1 0x2 DUP3 DIV SWAP1 POP PUSH1 0x1 DUP3 AND DUP1 PUSH2 0x52F JUMPI PUSH1 0x7F DUP3 AND SWAP2 POP JUMPDEST PUSH1 0x20 DUP3 LT DUP2 SUB PUSH2 0x542 JUMPI PUSH2 0x541 PUSH2 0x4EB JUMP JUMPDEST JUMPDEST POP SWAP2 SWAP1 POP JUMP JUMPDEST PUSH0 DUP3 SWAP1 POP SWAP3 SWAP2 POP POP JUMP JUMPDEST PUSH32 0x4E487B7100000000000000000000000000000000000000000000000000000000 PUSH0 MSTORE PUSH1 0x41 PUSH1 0x4 MSTORE PUSH1 0x24 PUSH0 REVERT JUMPDEST PUSH0 DUP2 SWAP1 POP DUP2 PUSH0 MSTORE PUSH1 0x20 PUSH0 KECCAK256 SWAP1 POP SWAP2 SWAP1 POP JUMP JUMPDEST PUSH0 PUSH1 0x20 PUSH1 0x1F DUP4 ADD DIV SWAP1 POP SWAP2 SWAP1 POP JUMP JUMPDEST PUSH0 DUP3 DUP3 SHL SWAP1 POP SWAP3 SWAP2 POP POP JUMP JUMPDEST PUSH0 PUSH1 0x8 DUP4 MUL PUSH2 0x5DB PUSH32 0xFFFFFFFFFFFFFFFFFFFFFFFFFFFFFFFFFFFFFFFFFFFFFFFFFFFFFFFFFFFFFFFF DUP3 PUSH2 0x5A0 JUMP JUMPDEST PUSH2 0x5E5 DUP7 DUP4 PUSH2 0x5A0 JUMP JUMPDEST SWAP6 POP DUP1 NOT DUP5 AND SWAP4 POP DUP1 DUP7 AND DUP5 OR SWAP3 POP POP POP SWAP4 SWAP3 POP POP POP JUMP JUMPDEST PUSH0 DUP2 SWAP1 POP SWAP2 SWAP1 POP JUMP JUMPDEST PUSH0 PUSH2 0x620 PUSH2 0x61B PUSH2 0x616 DUP5 PUSH2 0x2A7 JUMP JUMPDEST PUSH2 0x5FD JUMP JUMPDEST PUSH2 0x2A7 JUMP JUMPDEST SWAP1 POP SWAP2 SWAP1 POP JUMP JUMPDEST PUSH0 DUP2 SWAP1 POP SWAP2 SWAP1 POP JUMP JUMPDEST PUSH2 0x639 DUP4 PUSH2 0x606 JUMP JUMPDEST PUSH2 0x64D PUSH2 0x645 DUP3 PUSH2 0x627 JUMP JUMPDEST DUP5 DUP5 SLOAD PUSH2 0x5AC JUMP JUMPDEST DUP3 SSTORE POP POP POP POP JUMP JUMPDEST PUSH0 SWAP1 JUMP JUMPDEST PUSH2 0x661 PUSH2 0x655 JUMP JUMPDEST PUSH2 0x66C DUP2 DUP5 DUP5 PUSH2 0x630 JUMP JUMPDEST POP POP POP JUMP JUMPDEST JUMPDEST DUP2 DUP2 LT ISZERO PUSH2 0x68F JUMPI PUSH2 0x684 PUSH0 DUP3 PUSH2 0x659 JUMP JUMPDEST PUSH1 0x1 DUP2 ADD SWAP1 POP PUSH2 0x672 JUMP JUMPDEST POP POP JUMP JUMPDEST PUSH1 0x1F DUP3 GT ISZERO PUSH2 0x6D4 JUMPI PUSH2 0x6A5 DUP2 PUSH2 0x57F JUMP JUMPDEST PUSH2 0x6AE DUP5 PUSH2 0x591 JUMP JUMPDEST DUP2 ADD PUSH1 0x20 DUP6 LT ISZERO PUSH2 0x6BD JUMPI DUP2 SWAP1 POP JUMPDEST PUSH2 0x6D1 PUSH2 0x6C9 DUP6 PUSH2 0x591 JUMP JUMPDEST DUP4 ADD DUP3 PUSH2 0x671 JUMP JUMPDEST POP POP JUMPDEST POP POP POP JUMP JUMPDEST PUSH0 DUP3 DUP3 SHR SWAP1 POP SWAP3 SWAP2 POP POP JUMP JUMPDEST PUSH0 PUSH2 0x6F4 PUSH0 NOT DUP5 PUSH1 0x8 MUL PUSH2 0x6D9 JUMP JUMPDEST NOT DUP1 DUP4 AND SWAP2 POP POP SWAP3 SWAP2 POP POP JUMP JUMPDEST PUSH0 PUSH2 0x70C DUP4 DUP4 PUSH2 0x6E5 JUMP JUMPDEST SWAP2 POP DUP3 PUSH1 0x2 MUL DUP3 OR SWAP1 POP SWAP3 SWAP2 POP POP JUMP JUMPDEST PUSH2 0x726 DUP4 DUP4 PUSH2 0x548 JUMP JUMPDEST PUSH8 0xFFFFFFFFFFFFFFFF DUP2 GT ISZERO PUSH2 0x73F JUMPI PUSH2 0x73E PUSH2 0x552 JUMP JUMPDEST JUMPDEST PUSH2 0x749 DUP3 SLOAD PUSH2 0x518 JUMP JUMPDEST PUSH2 0x754 DUP3 DUP3 DUP6 PUSH2 0x693 JUMP JUMPDEST PUSH0 PUSH1 0x1F DUP4 GT PUSH1 0x1 DUP2 EQ PUSH2 0x781 JUMPI PUSH0 DUP5 ISZERO PUSH2 0x76F JUMPI DUP3 DUP8 ADD CALLDATALOAD SWAP1 POP JUMPDEST PUSH2 0x779 DUP6 DUP3 PUSH2 0x701 JUMP JUMPDEST DUP7 SSTORE POP PUSH2 0x7E0 JUMP JUMPDEST PUSH1 0x1F NOT DUP5 AND PUSH2 0x78F DUP7 PUSH2 0x57F JUMP JUMPDEST PUSH0 JUMPDEST DUP3 DUP2 LT ISZERO PUSH2 0x7B6 JUMPI DUP5 DUP10 ADD CALLDATALOAD DUP3 SSTORE PUSH1 0x1 DUP3 ADD SWAP2 POP PUSH1 0x20 DUP6 ADD SWAP5 POP PUSH1 0x20 DUP2 ADD SWAP1 POP PUSH2 0x791 JUMP JUMPDEST DUP7 DUP4 LT ISZERO PUSH2 0x7D3 JUMPI DUP5 DUP10 ADD CALLDATALOAD PUSH2 0x7CF PUSH1 0x1F DUP10 AND DUP3 PUSH2 0x6E5 JUMP JUMPDEST DUP4 SSTORE POP JUMPDEST PUSH1 0x1 PUSH1 0x2 DUP9 MUL ADD DUP9 SSTORE POP POP POP JUMPDEST POP POP POP POP POP POP POP JUMP INVALID LOG2 PUSH5 0x6970667358 0x22 SLT KECCAK256 PREVRANDAO 0xC PUSH10 0x8DFD7798DD0956DB3005 0xB6 BLOCKHASH DUP5 RETURN PUSH21 0x16399B92F0F03578EB8D182316164736F6C634300 ADDMOD BYTE STOP CALLER "
				},
				"gasEstimates": {
					"creation": {
						"codeDepositCost": "415800",
						"executionCost": "447",
						"totalCost": "416247"
					},
					"external": {
						"meta(uint256,address)": "infinite",
						"set(uint256,string)": "infinite",
						"uri(uint256)": "infinite"
					}
				},
				"methodIdentifiers": {
					"meta(uint256,address)": "8afe5ad0",
					"set(uint256,string)": "64371977",
					"uri(uint256)": "0e89341c"
				}
			},
			"storageLayout": {
				"storage": [
					{
						"astId": 108,
						"contract": "P/Polyinstantiation/Polyinstantiation.sol:ForkedMetadata",
						"label": "meta",
						"offset": 0,
						"slot": "0",
						"type": "t_mapping(t_uint256,t_mapping(t_address,t_string_storage))"
					}
				],
				"types": {
					"t_address": {
						"encoding": "inplace",
						"label": "address",
						"numberOfBytes": "20"
					},
					"t_mapping(t_address,t_string_storage)": {
						"encoding": "mapping",
						"key": "t_address",
						"label": "mapping(address => string)",
						"numberOfBytes": "32",
						"value": "t_string_storage"
					},
					"t_mapping(t_uint256,t_mapping(t_address,t_string_storage))": {
						"encoding": "mapping",
						"key": "t_uint256",
						"label": "mapping(uint256 => mapping(address => string))",
						"numberOfBytes": "32",
						"value": "t_mapping(t_address,t_string_storage)"
					},
					"t_string_storage": {
						"encoding": "bytes",
						"label": "string",
						"numberOfBytes": "32"
					},
					"t_uint256": {
						"encoding": "inplace",
						"label": "uint256",
						"numberOfBytes": "32"
					}
				}
			},
			"userdoc": {
				"kind": "user",
				"methods": {},
				"version": 1
			}
		}
	}
}