{
	"P/Polyinstantiation/Polyinstantiation.sol": {
		"ZKInstance": {
			"abi": [
				{
					"inputs": [
						{
							"internalType": "bytes32",
							"name": "zkID",
							"type": "bytes32"
						},
						{
							"internalType": "string",
							"name": "data",
							"type": "string"
						}
					],
					"name": "setZK",
					"outputs": [],
					"stateMutability": "nonpayable",
					"type": "function"
				},
				{
					"inputs": [
						{
							"internalType": "bytes32",
							"name": "zkID",
							"type": "bytes32"
						}
					],
					"name": "viewZK",
					"outputs": [
						{
							"internalType": "string",
							"name": "",
							"type": "string"
						}
					],
					"stateMutability": "view",
					"type": "function"
				},
				{
					"inputs": [
						{
							"internalType": "bytes32",
							"name": "",
							"type": "bytes32"
						}
					],
					"name": "zkData",
					"outputs": [
						{
							"internalType": "string",
							"name": "",
							"type": "string"
						}
					],
					"stateMutability": "view",
					"type": "function"
				}
			],
			"devdoc": {
				"kind": "dev",
				"methods": {},
				"version": 1
			},
			"evm": {
				"assembly": "    /* \"P/Polyinstantiation/Polyinstantiation.sol\":679:1013  contract ZKInstance {... */\n  mstore(0x40, 0x80)\n  callvalue\n  dup1\n  iszero\n  tag_1\n  jumpi\n  0x00\n  dup1\n  revert\ntag_1:\n  pop\n  dataSize(sub_0)\n  dup1\n  dataOffset(sub_0)\n  0x00\n  codecopy\n  0x00\n  return\nstop\n\nsub_0: assembly {\n        /* \"P/Polyinstantiation/Polyinstantiation.sol\":679:1013  contract ZKInstance {... */\n      mstore(0x40, 0x80)\n      callvalue\n      dup1\n      iszero\n      tag_1\n      jumpi\n      0x00\n      dup1\n      revert\n    tag_1:\n      pop\n      jumpi(tag_2, lt(calldatasize, 0x04))\n      shr(0xe0, calldataload(0x00))\n      dup1\n      0xa4cc3978\n      eq\n      tag_3\n      jumpi\n      dup1\n      0xac369337\n      eq\n      tag_4\n      jumpi\n      dup1\n      0xbdab95bc\n      eq\n      tag_5\n      jumpi\n    tag_2:\n      0x00\n      dup1\n      revert\n        /* \"P/Polyinstantiation/Polyinstantiation.sol\":705:745  mapping(bytes32 => string) public zkData */\n    tag_3:\n      tag_6\n      0x04\n      dup1\n      calldatasize\n      sub\n      dup2\n      add\n      swap1\n      tag_7\n      swap2\n      swap1\n      tag_8\n      jump\t// in\n    tag_7:\n      tag_9\n      jump\t// in\n    tag_6:\n      mload(0x40)\n      tag_10\n      swap2\n      swap1\n      tag_11\n      jump\t// in\n    tag_10:\n      mload(0x40)\n      dup1\n      swap2\n      sub\n      swap1\n      return\n        /* \"P/Polyinstantiation/Polyinstantiation.sol\":854:1011  function viewZK(bytes32 zkID) external view returns (string memory) {... */\n    tag_4:\n      tag_12\n      0x04\n      dup1\n      calldatasize\n      sub\n      dup2\n      add\n      swap1\n      tag_13\n      swap2\n      swap1\n      tag_8\n      jump\t// in\n    tag_13:\n      tag_14\n      jump\t// in\n    tag_12:\n      mload(0x40)\n      tag_15\n      swap2\n      swap1\n      tag_11\n      jump\t// in\n    tag_15:\n      mload(0x40)\n      dup1\n      swap2\n      sub\n      swap1\n      return\n        /* \"P/Polyinstantiation/Polyinstantiation.sol\":752:848  function setZK(bytes32 zkID, string calldata data) external {... */\n    tag_5:\n      tag_16\n      0x04\n      dup1\n      calldatasize\n      sub\n      dup2\n      add\n      swap1\n      tag_17\n      swap2\n      swap1\n      tag_18\n      jump\t// in\n    tag_17:\n      tag_19\n      jump\t// in\n    tag_16:\n      stop\n        /* \"P/Polyinstantiation/Polyinstantiation.sol\":705:745  mapping(bytes32 => string) public zkData */\n    tag_9:\n      mstore(0x20, 0x00)\n      dup1\n      0x00\n      mstore\n      keccak256(0x00, 0x40)\n      0x00\n      swap2\n      pop\n      swap1\n      pop\n      dup1\n      sload\n      tag_20\n      swap1\n      tag_21\n      jump\t// in\n    tag_20:\n      dup1\n      0x1f\n      add\n      0x20\n      dup1\n      swap2\n      div\n      mul\n      0x20\n      add\n      mload(0x40)\n      swap1\n      dup2\n      add\n      0x40\n      mstore\n      dup1\n      swap3\n      swap2\n      swap1\n      dup2\n      dup2\n      mstore\n      0x20\n      add\n      dup3\n      dup1\n      sload\n      tag_22\n      swap1\n      tag_21\n      jump\t// in\n    tag_22:\n      dup1\n      iszero\n      tag_23\n      jumpi\n      dup1\n      0x1f\n      lt\n      tag_24\n      jumpi\n      0x0100\n      dup1\n      dup4\n      sload\n      div\n      mul\n      dup4\n      mstore\n      swap2\n      0x20\n      add\n      swap2\n      jump(tag_23)\n    tag_24:\n      dup3\n      add\n      swap2\n      swap1\n      0x00\n      mstore\n      keccak256(0x00, 0x20)\n      swap1\n    tag_25:\n      dup2\n      sload\n      dup2\n      mstore\n      swap1\n      0x01\n      add\n      swap1\n      0x20\n      add\n      dup1\n      dup4\n      gt\n      tag_25\n      jumpi\n      dup3\n      swap1\n      sub\n      0x1f\n      and\n      dup3\n      add\n      swap2\n    tag_23:\n      pop\n      pop\n      pop\n      pop\n      pop\n      dup2\n      jump\t// out\n        /* \"P/Polyinstantiation/Polyinstantiation.sol\":854:1011  function viewZK(bytes32 zkID) external view returns (string memory) {... */\n    tag_14:\n        /* \"P/Polyinstantiation/Polyinstantiation.sol\":907:920  string memory */\n      0x60\n        /* \"P/Polyinstantiation/Polyinstantiation.sol\":956:957  0 */\n      0x00\n        /* \"P/Polyinstantiation/Polyinstantiation.sol\":948:958  bytes32(0) */\n      dup1\n      shl\n        /* \"P/Polyinstantiation/Polyinstantiation.sol\":940:944  zkID */\n      dup3\n        /* \"P/Polyinstantiation/Polyinstantiation.sol\":940:958  zkID != bytes32(0) */\n      sub\n        /* \"P/Polyinstantiation/Polyinstantiation.sol\":932:975  require(zkID != bytes32(0), \"ZK not bound\") */\n      tag_27\n      jumpi\n      mload(0x40)\n      0x08c379a000000000000000000000000000000000000000000000000000000000\n      dup2\n      mstore\n      0x04\n      add\n      tag_28\n      swap1\n      tag_29\n      jump\t// in\n    tag_28:\n      mload(0x40)\n      dup1\n      swap2\n      sub\n      swap1\n      revert\n    tag_27:\n        /* \"P/Polyinstantiation/Polyinstantiation.sol\":992:998  zkData */\n      0x00\n        /* \"P/Polyinstantiation/Polyinstantiation.sol\":992:1004  zkData[zkID] */\n      dup1\n        /* \"P/Polyinstantiation/Polyinstantiation.sol\":999:1003  zkID */\n      dup4\n        /* \"P/Polyinstantiation/Polyinstantiation.sol\":992:1004  zkData[zkID] */\n      dup2\n      mstore\n      0x20\n      add\n      swap1\n      dup2\n      mstore\n      0x20\n      add\n      0x00\n      keccak256\n        /* \"P/Polyinstantiation/Polyinstantiation.sol\":985:1004  return zkData[zkID] */\n      dup1\n      sload\n      tag_30\n      swap1\n      tag_21\n      jump\t// in\n    tag_30:\n      dup1\n      0x1f\n      add\n      0x20\n      dup1\n      swap2\n      div\n      mul\n      0x20\n      add\n      mload(0x40)\n      swap1\n      dup2\n      add\n      0x40\n      mstore\n      dup1\n      swap3\n      swap2\n      swap1\n      dup2\n      dup2\n      mstore\n      0x20\n      add\n      dup3\n      dup1\n      sload\n      tag_31\n      swap1\n      tag_21\n      jump\t// in\n    tag_31:\n      dup1\n      iszero\n      tag_32\n      jumpi\n      dup1\n      0x1f\n      lt\n      tag_33\n      jumpi\n      0x0100\n      dup1\n      dup4\n      sload\n      div\n      mul\n      dup4\n      mstore\n      swap2\n      0x20\n      add\n      swap2\n      jump(tag_32)\n    tag_33:\n      dup3\n      add\n      swap2\n      swap1\n      0x00\n      mstore\n      keccak256(0x00, 0x20)\n      swap1\n    tag_34:\n      dup2\n      sload\n      dup2\n      mstore\n      swap1\n      0x01\n      add\n      swap1\n      0x20\n      add\n      dup1\n      dup4\n      gt\n      tag_34\n      jumpi\n      dup3\n      swap1\n      sub\n      0x1f\n      and\n      dup3\n      add\n      swap2\n    tag_32:\n      pop\n      pop\n      pop\n      pop\n      pop\n      swap1\n      pop\n        /* \"P/Polyinstantiation/Polyinstantiation.sol\":854:1011  function viewZK(bytes32 zkID) external view returns (string memory) {... */\n      swap2\n      swap1\n      pop\n      jump\t// out\n        /* \"P/Polyinstantiation/Polyinstantiation.sol\":752:848  function setZK(bytes32 zkID, string calldata data) external {... */\n    tag_19:\n        /* \"P/Polyinstantiation/Polyinstantiation.sol\":837:841  data */\n      dup2\n      dup2\n        /* \"P/Polyinstantiation/Polyinstantiation.sol\":822:828  zkData */\n      0x00\n        /* \"P/Polyinstantiation/Polyinstantiation.sol\":822:834  zkData[zkID] */\n      dup1\n        /* \"P/Polyinstantiation/Polyinstantiation.sol\":829:833  zkID */\n      dup7\n        /* \"P/Polyinstantiation/Polyinstantiation.sol\":822:834  zkData[zkID] */\n      dup2\n      mstore\n      0x20\n      add\n      swap1\n      dup2\n      mstore\n      0x20\n      add\n      0x00\n      keccak256\n        /* \"P/Polyinstantiation/Polyinstantiation.sol\":822:841  zkData[zkID] = data */\n      swap2\n      dup3\n      tag_36\n      swap3\n      swap2\n      swap1\n      tag_37\n      jump\t// in\n    tag_36:\n      pop\n        /* \"P/Polyinstantiation/Polyinstantiation.sol\":752:848  function setZK(bytes32 zkID, string calldata data) external {... */\n      pop\n      pop\n      pop\n      jump\t// out\n        /* \"#utility.yul\":88:205   */\n    tag_39:\n        /* \"#utility.yul\":197:198   */\n      0x00\n        /* \"#utility.yul\":194:195   */\n      dup1\n        /* \"#utility.yul\":187:199   */\n      revert\n        /* \"#utility.yul\":211:328   */\n    tag_40:\n        /* \"#utility.yul\":320:321   */\n      0x00\n        /* \"#utility.yul\":317:318   */\n      dup1\n        /* \"#utility.yul\":310:322   */\n      revert\n        /* \"#utility.yul\":334:411   */\n    tag_41:\n        /* \"#utility.yul\":371:378   */\n      0x00\n        /* \"#utility.yul\":400:405   */\n      dup2\n        /* \"#utility.yul\":389:405   */\n      swap1\n      pop\n        /* \"#utility.yul\":334:411   */\n      swap2\n      swap1\n      pop\n      jump\t// out\n        /* \"#utility.yul\":417:539   */\n    tag_42:\n        /* \"#utility.yul\":490:514   */\n      tag_80\n        /* \"#utility.yul\":508:513   */\n      dup2\n        /* \"#utility.yul\":490:514   */\n      tag_41\n      jump\t// in\n    tag_80:\n        /* \"#utility.yul\":483:488   */\n      dup2\n        /* \"#utility.yul\":480:515   */\n      eq\n        /* \"#utility.yul\":470:533   */\n      tag_81\n      jumpi\n        /* \"#utility.yul\":529:530   */\n      0x00\n        /* \"#utility.yul\":526:527   */\n      dup1\n        /* \"#utility.yul\":519:531   */\n      revert\n        /* \"#utility.yul\":470:533   */\n    tag_81:\n        /* \"#utility.yul\":417:539   */\n      pop\n      jump\t// out\n        /* \"#utility.yul\":545:684   */\n    tag_43:\n        /* \"#utility.yul\":591:596   */\n      0x00\n        /* \"#utility.yul\":629:635   */\n      dup2\n        /* \"#utility.yul\":616:636   */\n      calldataload\n        /* \"#utility.yul\":607:636   */\n      swap1\n      pop\n        /* \"#utility.yul\":645:678   */\n      tag_83\n        /* \"#utility.yul\":672:677   */\n      dup2\n        /* \"#utility.yul\":645:678   */\n      tag_42\n      jump\t// in\n    tag_83:\n        /* \"#utility.yul\":545:684   */\n      swap3\n      swap2\n      pop\n      pop\n      jump\t// out\n        /* \"#utility.yul\":690:1019   */\n    tag_8:\n        /* \"#utility.yul\":749:755   */\n      0x00\n        /* \"#utility.yul\":798:800   */\n      0x20\n        /* \"#utility.yul\":786:795   */\n      dup3\n        /* \"#utility.yul\":777:784   */\n      dup5\n        /* \"#utility.yul\":773:796   */\n      sub\n        /* \"#utility.yul\":769:801   */\n      slt\n        /* \"#utility.yul\":766:885   */\n      iszero\n      tag_85\n      jumpi\n        /* \"#utility.yul\":804:883   */\n      tag_86\n      tag_39\n      jump\t// in\n    tag_86:\n        /* \"#utility.yul\":766:885   */\n    tag_85:\n        /* \"#utility.yul\":924:925   */\n      0x00\n        /* \"#utility.yul\":949:1002   */\n      tag_87\n        /* \"#utility.yul\":994:1001   */\n      dup5\n        /* \"#utility.yul\":985:991   */\n      dup3\n        /* \"#utility.yul\":974:983   */\n      dup6\n        /* \"#utility.yul\":970:992   */\n      add\n        /* \"#utility.yul\":949:1002   */\n      tag_43\n      jump\t// in\n    tag_87:\n        /* \"#utility.yul\":939:1002   */\n      swap2\n      pop\n        /* \"#utility.yul\":895:1012   */\n      pop\n        /* \"#utility.yul\":690:1019   */\n      swap3\n      swap2\n      pop\n      pop\n      jump\t// out\n        /* \"#utility.yul\":1025:1124   */\n    tag_44:\n        /* \"#utility.yul\":1077:1083   */\n      0x00\n        /* \"#utility.yul\":1111:1116   */\n      dup2\n        /* \"#utility.yul\":1105:1117   */\n      mload\n        /* \"#utility.yul\":1095:1117   */\n      swap1\n      pop\n        /* \"#utility.yul\":1025:1124   */\n      swap2\n      swap1\n      pop\n      jump\t// out\n        /* \"#utility.yul\":1130:1299   */\n    tag_45:\n        /* \"#utility.yul\":1214:1225   */\n      0x00\n        /* \"#utility.yul\":1248:1254   */\n      dup3\n        /* \"#utility.yul\":1243:1246   */\n      dup3\n        /* \"#utility.yul\":1236:1255   */\n      mstore\n        /* \"#utility.yul\":1288:1292   */\n      0x20\n        /* \"#utility.yul\":1283:1286   */\n      dup3\n        /* \"#utility.yul\":1279:1293   */\n      add\n        /* \"#utility.yul\":1264:1293   */\n      swap1\n      pop\n        /* \"#utility.yul\":1130:1299   */\n      swap3\n      swap2\n      pop\n      pop\n      jump\t// out\n        /* \"#utility.yul\":1305:1444   */\n    tag_46:\n        /* \"#utility.yul\":1394:1400   */\n      dup3\n        /* \"#utility.yul\":1389:1392   */\n      dup2\n        /* \"#utility.yul\":1384:1387   */\n      dup4\n        /* \"#utility.yul\":1378:1401   */\n      mcopy\n        /* \"#utility.yul\":1435:1436   */\n      0x00\n        /* \"#utility.yul\":1426:1432   */\n      dup4\n        /* \"#utility.yul\":1421:1424   */\n      dup4\n        /* \"#utility.yul\":1417:1433   */\n      add\n        /* \"#utility.yul\":1410:1437   */\n      mstore\n        /* \"#utility.yul\":1305:1444   */\n      pop\n      pop\n      pop\n      jump\t// out\n        /* \"#utility.yul\":1450:1552   */\n    tag_47:\n        /* \"#utility.yul\":1491:1497   */\n      0x00\n        /* \"#utility.yul\":1542:1544   */\n      0x1f\n        /* \"#utility.yul\":1538:1545   */\n      not\n        /* \"#utility.yul\":1533:1535   */\n      0x1f\n        /* \"#utility.yul\":1526:1531   */\n      dup4\n        /* \"#utility.yul\":1522:1536   */\n      add\n        /* \"#utility.yul\":1518:1546   */\n      and\n        /* \"#utility.yul\":1508:1546   */\n      swap1\n      pop\n        /* \"#utility.yul\":1450:1552   */\n      swap2\n      swap1\n      pop\n      jump\t// out\n        /* \"#utility.yul\":1558:1935   */\n    tag_48:\n        /* \"#utility.yul\":1646:1649   */\n      0x00\n        /* \"#utility.yul\":1674:1713   */\n      tag_93\n        /* \"#utility.yul\":1707:1712   */\n      dup3\n        /* \"#utility.yul\":1674:1713   */\n      tag_44\n      jump\t// in\n    tag_93:\n        /* \"#utility.yul\":1729:1800   */\n      tag_94\n        /* \"#utility.yul\":1793:1799   */\n      dup2\n        /* \"#utility.yul\":1788:1791   */\n      dup6\n        /* \"#utility.yul\":1729:1800   */\n      tag_45\n      jump\t// in\n    tag_94:\n        /* \"#utility.yul\":1722:1800   */\n      swap4\n      pop\n        /* \"#utility.yul\":1809:1874   */\n      tag_95\n        /* \"#utility.yul\":1867:1873   */\n      dup2\n        /* \"#utility.yul\":1862:1865   */\n      dup6\n        /* \"#utility.yul\":1855:1859   */\n      0x20\n        /* \"#utility.yul\":1848:1853   */\n      dup7\n        /* \"#utility.yul\":1844:1860   */\n      add\n        /* \"#utility.yul\":1809:1874   */\n      tag_46\n      jump\t// in\n    tag_95:\n        /* \"#utility.yul\":1899:1928   */\n      tag_96\n        /* \"#utility.yul\":1921:1927   */\n      dup2\n        /* \"#utility.yul\":1899:1928   */\n      tag_47\n      jump\t// in\n    tag_96:\n        /* \"#utility.yul\":1894:1897   */\n      dup5\n        /* \"#utility.yul\":1890:1929   */\n      add\n        /* \"#utility.yul\":1883:1929   */\n      swap2\n      pop\n        /* \"#utility.yul\":1650:1935   */\n      pop\n        /* \"#utility.yul\":1558:1935   */\n      swap3\n      swap2\n      pop\n      pop\n      jump\t// out\n        /* \"#utility.yul\":1941:2254   */\n    tag_11:\n        /* \"#utility.yul\":2054:2058   */\n      0x00\n        /* \"#utility.yul\":2092:2094   */\n      0x20\n        /* \"#utility.yul\":2081:2090   */\n      dup3\n        /* \"#utility.yul\":2077:2095   */\n      add\n        /* \"#utility.yul\":2069:2095   */\n      swap1\n      pop\n        /* \"#utility.yul\":2141:2150   */\n      dup2\n        /* \"#utility.yul\":2135:2139   */\n      dup2\n        /* \"#utility.yul\":2131:2151   */\n      sub\n        /* \"#utility.yul\":2127:2128   */\n      0x00\n        /* \"#utility.yul\":2116:2125   */\n      dup4\n        /* \"#utility.yul\":2112:2129   */\n      add\n        /* \"#utility.yul\":2105:2152   */\n      mstore\n        /* \"#utility.yul\":2169:2247   */\n      tag_98\n        /* \"#utility.yul\":2242:2246   */\n      dup2\n        /* \"#utility.yul\":2233:2239   */\n      dup5\n        /* \"#utility.yul\":2169:2247   */\n      tag_48\n      jump\t// in\n    tag_98:\n        /* \"#utility.yul\":2161:2247   */\n      swap1\n      pop\n        /* \"#utility.yul\":1941:2254   */\n      swap3\n      swap2\n      pop\n      pop\n      jump\t// out\n        /* \"#utility.yul\":2260:2377   */\n    tag_49:\n        /* \"#utility.yul\":2369:2370   */\n      0x00\n        /* \"#utility.yul\":2366:2367   */\n      dup1\n        /* \"#utility.yul\":2359:2371   */\n      revert\n        /* \"#utility.yul\":2383:2500   */\n    tag_50:\n        /* \"#utility.yul\":2492:2493   */\n      0x00\n        /* \"#utility.yul\":2489:2490   */\n      dup1\n        /* \"#utility.yul\":2482:2494   */\n      revert\n        /* \"#utility.yul\":2506:2623   */\n    tag_51:\n        /* \"#utility.yul\":2615:2616   */\n      0x00\n        /* \"#utility.yul\":2612:2613   */\n      dup1\n        /* \"#utility.yul\":2605:2617   */\n      revert\n        /* \"#utility.yul\":2643:3196   */\n    tag_52:\n        /* \"#utility.yul\":2701:2709   */\n      0x00\n        /* \"#utility.yul\":2711:2717   */\n      dup1\n        /* \"#utility.yul\":2761:2764   */\n      dup4\n        /* \"#utility.yul\":2754:2758   */\n      0x1f\n        /* \"#utility.yul\":2746:2752   */\n      dup5\n        /* \"#utility.yul\":2742:2759   */\n      add\n        /* \"#utility.yul\":2738:2765   */\n      slt\n        /* \"#utility.yul\":2728:2850   */\n      tag_103\n      jumpi\n        /* \"#utility.yul\":2769:2848   */\n      tag_104\n      tag_49\n      jump\t// in\n    tag_104:\n        /* \"#utility.yul\":2728:2850   */\n    tag_103:\n        /* \"#utility.yul\":2882:2888   */\n      dup3\n        /* \"#utility.yul\":2869:2889   */\n      calldataload\n        /* \"#utility.yul\":2859:2889   */\n      swap1\n      pop\n        /* \"#utility.yul\":2912:2930   */\n      0xffffffffffffffff\n        /* \"#utility.yul\":2904:2910   */\n      dup2\n        /* \"#utility.yul\":2901:2931   */\n      gt\n        /* \"#utility.yul\":2898:3015   */\n      iszero\n      tag_105\n      jumpi\n        /* \"#utility.yul\":2934:3013   */\n      tag_106\n      tag_50\n      jump\t// in\n    tag_106:\n        /* \"#utility.yul\":2898:3015   */\n    tag_105:\n        /* \"#utility.yul\":3048:3052   */\n      0x20\n        /* \"#utility.yul\":3040:3046   */\n      dup4\n        /* \"#utility.yul\":3036:3053   */\n      add\n        /* \"#utility.yul\":3024:3053   */\n      swap2\n      pop\n        /* \"#utility.yul\":3102:3105   */\n      dup4\n        /* \"#utility.yul\":3094:3098   */\n      0x01\n        /* \"#utility.yul\":3086:3092   */\n      dup3\n        /* \"#utility.yul\":3082:3099   */\n      mul\n        /* \"#utility.yul\":3072:3080   */\n      dup4\n        /* \"#utility.yul\":3068:3100   */\n      add\n        /* \"#utility.yul\":3065:3106   */\n      gt\n        /* \"#utility.yul\":3062:3190   */\n      iszero\n      tag_107\n      jumpi\n        /* \"#utility.yul\":3109:3188   */\n      tag_108\n      tag_51\n      jump\t// in\n    tag_108:\n        /* \"#utility.yul\":3062:3190   */\n    tag_107:\n        /* \"#utility.yul\":2643:3196   */\n      swap3\n      pop\n      swap3\n      swap1\n      pop\n      jump\t// out\n        /* \"#utility.yul\":3202:3876   */\n    tag_18:\n        /* \"#utility.yul\":3282:3288   */\n      0x00\n        /* \"#utility.yul\":3290:3296   */\n      dup1\n        /* \"#utility.yul\":3298:3304   */\n      0x00\n        /* \"#utility.yul\":3347:3349   */\n      0x40\n        /* \"#utility.yul\":3335:3344   */\n      dup5\n        /* \"#utility.yul\":3326:3333   */\n      dup7\n        /* \"#utility.yul\":3322:3345   */\n      sub\n        /* \"#utility.yul\":3318:3350   */\n      slt\n        /* \"#utility.yul\":3315:3434   */\n      iszero\n      tag_110\n      jumpi\n        /* \"#utility.yul\":3353:3432   */\n      tag_111\n      tag_39\n      jump\t// in\n    tag_111:\n        /* \"#utility.yul\":3315:3434   */\n    tag_110:\n        /* \"#utility.yul\":3473:3474   */\n      0x00\n        /* \"#utility.yul\":3498:3551   */\n      tag_112\n        /* \"#utility.yul\":3543:3550   */\n      dup7\n        /* \"#utility.yul\":3534:3540   */\n      dup3\n        /* \"#utility.yul\":3523:3532   */\n      dup8\n        /* \"#utility.yul\":3519:3541   */\n      add\n        /* \"#utility.yul\":3498:3551   */\n      tag_43\n      jump\t// in\n    tag_112:\n        /* \"#utility.yul\":3488:3551   */\n      swap4\n      pop\n        /* \"#utility.yul\":3444:3561   */\n      pop\n        /* \"#utility.yul\":3628:3630   */\n      0x20\n        /* \"#utility.yul\":3617:3626   */\n      dup5\n        /* \"#utility.yul\":3613:3631   */\n      add\n        /* \"#utility.yul\":3600:3632   */\n      calldataload\n        /* \"#utility.yul\":3659:3677   */\n      0xffffffffffffffff\n        /* \"#utility.yul\":3651:3657   */\n      dup2\n        /* \"#utility.yul\":3648:3678   */\n      gt\n        /* \"#utility.yul\":3645:3762   */\n      iszero\n      tag_113\n      jumpi\n        /* \"#utility.yul\":3681:3760   */\n      tag_114\n      tag_40\n      jump\t// in\n    tag_114:\n        /* \"#utility.yul\":3645:3762   */\n    tag_113:\n        /* \"#utility.yul\":3794:3859   */\n      tag_115\n        /* \"#utility.yul\":3851:3858   */\n      dup7\n        /* \"#utility.yul\":3842:3848   */\n      dup3\n        /* \"#utility.yul\":3831:3840   */\n      dup8\n        /* \"#utility.yul\":3827:3849   */\n      add\n        /* \"#utility.yul\":3794:3859   */\n      tag_52\n      jump\t// in\n    tag_115:\n        /* \"#utility.yul\":3776:3859   */\n      swap3\n      pop\n      swap3\n      pop\n        /* \"#utility.yul\":3571:3869   */\n      pop\n        /* \"#utility.yul\":3202:3876   */\n      swap3\n      pop\n      swap3\n      pop\n      swap3\n      jump\t// out\n        /* \"#utility.yul\":3882:4062   */\n    tag_53:\n        /* \"#utility.yul\":3930:4007   */\n      0x4e487b7100000000000000000000000000000000000000000000000000000000\n        /* \"#utility.yul\":3927:3928   */\n      0x00\n        /* \"#utility.yul\":3920:4008   */\n      mstore\n        /* \"#utility.yul\":4027:4031   */\n      0x22\n        /* \"#utility.yul\":4024:4025   */\n      0x04\n        /* \"#utility.yul\":4017:4032   */\n      mstore\n        /* \"#utility.yul\":4051:4055   */\n      0x24\n        /* \"#utility.yul\":4048:4049   */\n      0x00\n        /* \"#utility.yul\":4041:4056   */\n      revert\n        /* \"#utility.yul\":4068:4388   */\n    tag_21:\n        /* \"#utility.yul\":4112:4118   */\n      0x00\n        /* \"#utility.yul\":4149:4150   */\n      0x02\n        /* \"#utility.yul\":4143:4147   */\n      dup3\n        /* \"#utility.yul\":4139:4151   */\n      div\n        /* \"#utility.yul\":4129:4151   */\n      swap1\n      pop\n        /* \"#utility.yul\":4196:4197   */\n      0x01\n        /* \"#utility.yul\":4190:4194   */\n      dup3\n        /* \"#utility.yul\":4186:4198   */\n      and\n        /* \"#utility.yul\":4217:4235   */\n      dup1\n        /* \"#utility.yul\":4207:4288   */\n      tag_118\n      jumpi\n        /* \"#utility.yul\":4273:4277   */\n      0x7f\n        /* \"#utility.yul\":4265:4271   */\n      dup3\n        /* \"#utility.yul\":4261:4278   */\n      and\n        /* \"#utility.yul\":4251:4278   */\n      swap2\n      pop\n        /* \"#utility.yul\":4207:4288   */\n    tag_118:\n        /* \"#utility.yul\":4335:4337   */\n      0x20\n        /* \"#utility.yul\":4327:4333   */\n      dup3\n        /* \"#utility.yul\":4324:4338   */\n      lt\n        /* \"#utility.yul\":4304:4322   */\n      dup2\n        /* \"#utility.yul\":4301:4339   */\n      sub\n        /* \"#utility.yul\":4298:4382   */\n      tag_119\n      jumpi\n        /* \"#utility.yul\":4354:4372   */\n      tag_120\n      tag_53\n      jump\t// in\n    tag_120:\n        /* \"#utility.yul\":4298:4382   */\n    tag_119:\n        /* \"#utility.yul\":4119:4388   */\n      pop\n        /* \"#utility.yul\":4068:4388   */\n      swap2\n      swap1\n      pop\n      jump\t// out\n        /* \"#utility.yul\":4394:4556   */\n    tag_54:\n        /* \"#utility.yul\":4534:4548   */\n      0x5a4b206e6f7420626f756e640000000000000000000000000000000000000000\n        /* \"#utility.yul\":4530:4531   */\n      0x00\n        /* \"#utility.yul\":4522:4528   */\n      dup3\n        /* \"#utility.yul\":4518:4532   */\n      add\n        /* \"#utility.yul\":4511:4549   */\n      mstore\n        /* \"#utility.yul\":4394:4556   */\n      pop\n      jump\t// out\n        /* \"#utility.yul\":4562:4928   */\n    tag_55:\n        /* \"#utility.yul\":4704:4707   */\n      0x00\n        /* \"#utility.yul\":4725:4792   */\n      tag_123\n        /* \"#utility.yul\":4789:4791   */\n      0x0c\n        /* \"#utility.yul\":4784:4787   */\n      dup4\n        /* \"#utility.yul\":4725:4792   */\n      tag_45\n      jump\t// in\n    tag_123:\n        /* \"#utility.yul\":4718:4792   */\n      swap2\n      pop\n        /* \"#utility.yul\":4801:4894   */\n      tag_124\n        /* \"#utility.yul\":4890:4893   */\n      dup3\n        /* \"#utility.yul\":4801:4894   */\n      tag_54\n      jump\t// in\n    tag_124:\n        /* \"#utility.yul\":4919:4921   */\n      0x20\n        /* \"#utility.yul\":4914:4917   */\n      dup3\n        /* \"#utility.yul\":4910:4922   */\n      add\n        /* \"#utility.yul\":4903:4922   */\n      swap1\n      pop\n        /* \"#utility.yul\":4562:4928   */\n      swap2\n      swap1\n      pop\n      jump\t// out\n        /* \"#utility.yul\":4934:5353   */\n    tag_29:\n        /* \"#utility.yul\":5100:5104   */\n      0x00\n        /* \"#utility.yul\":5138:5140   */\n      0x20\n        /* \"#utility.yul\":5127:5136   */\n      dup3\n        /* \"#utility.yul\":5123:5141   */\n      add\n        /* \"#utility.yul\":5115:5141   */\n      swap1\n      pop\n        /* \"#utility.yul\":5187:5196   */\n      dup2\n        /* \"#utility.yul\":5181:5185   */\n      dup2\n        /* \"#utility.yul\":5177:5197   */\n      sub\n        /* \"#utility.yul\":5173:5174   */\n      0x00\n        /* \"#utility.yul\":5162:5171   */\n      dup4\n        /* \"#utility.yul\":5158:5175   */\n      add\n        /* \"#utility.yul\":5151:5198   */\n      mstore\n        /* \"#utility.yul\":5215:5346   */\n      tag_126\n        /* \"#utility.yul\":5341:5345   */\n      dup2\n        /* \"#utility.yul\":5215:5346   */\n      tag_55\n      jump\t// in\n    tag_126:\n        /* \"#utility.yul\":5207:5346   */\n      swap1\n      pop\n        /* \"#utility.yul\":4934:5353   */\n      swap2\n      swap1\n      pop\n      jump\t// out\n        /* \"#utility.yul\":5359:5456   */\n    tag_56:\n        /* \"#utility.yul\":5418:5424   */\n      0x00\n        /* \"#utility.yul\":5446:5449   */\n      dup3\n        /* \"#utility.yul\":5436:5449   */\n      swap1\n      pop\n        /* \"#utility.yul\":5359:5456   */\n      swap3\n      swap2\n      pop\n      pop\n      jump\t// out\n        /* \"#utility.yul\":5462:5642   */\n    tag_57:\n        /* \"#utility.yul\":5510:5587   */\n      0x4e487b7100000000000000000000000000000000000000000000000000000000\n        /* \"#utility.yul\":5507:5508   */\n      0x00\n        /* \"#utility.yul\":5500:5588   */\n      mstore\n        /* \"#utility.yul\":5607:5611   */\n      0x41\n        /* \"#utility.yul\":5604:5605   */\n      0x04\n        /* \"#utility.yul\":5597:5612   */\n      mstore\n        /* \"#utility.yul\":5631:5635   */\n      0x24\n        /* \"#utility.yul\":5628:5629   */\n      0x00\n        /* \"#utility.yul\":5621:5636   */\n      revert\n        /* \"#utility.yul\":5648:5789   */\n    tag_58:\n        /* \"#utility.yul\":5697:5701   */\n      0x00\n        /* \"#utility.yul\":5720:5723   */\n      dup2\n        /* \"#utility.yul\":5712:5723   */\n      swap1\n      pop\n        /* \"#utility.yul\":5743:5746   */\n      dup2\n        /* \"#utility.yul\":5740:5741   */\n      0x00\n        /* \"#utility.yul\":5733:5747   */\n      mstore\n        /* \"#utility.yul\":5777:5781   */\n      0x20\n        /* \"#utility.yul\":5774:5775   */\n      0x00\n        /* \"#utility.yul\":5764:5782   */\n      keccak256\n        /* \"#utility.yul\":5756:5782   */\n      swap1\n      pop\n        /* \"#utility.yul\":5648:5789   */\n      swap2\n      swap1\n      pop\n      jump\t// out\n        /* \"#utility.yul\":5795:5888   */\n    tag_59:\n        /* \"#utility.yul\":5832:5838   */\n      0x00\n        /* \"#utility.yul\":5879:5881   */\n      0x20\n        /* \"#utility.yul\":5874:5876   */\n      0x1f\n        /* \"#utility.yul\":5867:5872   */\n      dup4\n        /* \"#utility.yul\":5863:5877   */\n      add\n        /* \"#utility.yul\":5859:5882   */\n      div\n        /* \"#utility.yul\":5849:5882   */\n      swap1\n      pop\n        /* \"#utility.yul\":5795:5888   */\n      swap2\n      swap1\n      pop\n      jump\t// out\n        /* \"#utility.yul\":5894:6001   */\n    tag_60:\n        /* \"#utility.yul\":5938:5946   */\n      0x00\n        /* \"#utility.yul\":5988:5993   */\n      dup3\n        /* \"#utility.yul\":5982:5986   */\n      dup3\n        /* \"#utility.yul\":5978:5994   */\n      shl\n        /* \"#utility.yul\":5957:5994   */\n      swap1\n      pop\n        /* \"#utility.yul\":5894:6001   */\n      swap3\n      swap2\n      pop\n      pop\n      jump\t// out\n        /* \"#utility.yul\":6007:6400   */\n    tag_61:\n        /* \"#utility.yul\":6076:6082   */\n      0x00\n        /* \"#utility.yul\":6126:6127   */\n      0x08\n        /* \"#utility.yul\":6114:6124   */\n      dup4\n        /* \"#utility.yul\":6110:6128   */\n      mul\n        /* \"#utility.yul\":6149:6246   */\n      tag_133\n        /* \"#utility.yul\":6179:6245   */\n      0xffffffffffffffffffffffffffffffffffffffffffffffffffffffffffffffff\n        /* \"#utility.yul\":6168:6177   */\n      dup3\n        /* \"#utility.yul\":6149:6246   */\n      tag_60\n      jump\t// in\n    tag_133:\n        /* \"#utility.yul\":6267:6306   */\n      tag_134\n        /* \"#utility.yul\":6297:6305   */\n      dup7\n        /* \"#utility.yul\":6286:6295   */\n      dup4\n        /* \"#utility.yul\":6267:6306   */\n      tag_60\n      jump\t// in\n    tag_134:\n        /* \"#utility.yul\":6255:6306   */\n      swap6\n      pop\n        /* \"#utility.yul\":6339:6343   */\n      dup1\n        /* \"#utility.yul\":6335:6344   */\n      not\n        /* \"#utility.yul\":6328:6333   */\n      dup5\n        /* \"#utility.yul\":6324:6345   */\n      and\n        /* \"#utility.yul\":6315:6345   */\n      swap4\n      pop\n        /* \"#utility.yul\":6388:6392   */\n      dup1\n        /* \"#utility.yul\":6378:6386   */\n      dup7\n        /* \"#utility.yul\":6374:6393   */\n      and\n        /* \"#utility.yul\":6367:6372   */\n      dup5\n        /* \"#utility.yul\":6364:6394   */\n      or\n        /* \"#utility.yul\":6354:6394   */\n      swap3\n      pop\n        /* \"#utility.yul\":6083:6400   */\n      pop\n      pop\n        /* \"#utility.yul\":6007:6400   */\n      swap4\n      swap3\n      pop\n      pop\n      pop\n      jump\t// out\n        /* \"#utility.yul\":6406:6483   */\n    tag_62:\n        /* \"#utility.yul\":6443:6450   */\n      0x00\n        /* \"#utility.yul\":6472:6477   */\n      dup2\n        /* \"#utility.yul\":6461:6477   */\n      swap1\n      pop\n        /* \"#utility.yul\":6406:6483   */\n      swap2\n      swap1\n      pop\n      jump\t// out\n        /* \"#utility.yul\":6489:6549   */\n    tag_63:\n        /* \"#utility.yul\":6517:6520   */\n      0x00\n        /* \"#utility.yul\":6538:6543   */\n      dup2\n        /* \"#utility.yul\":6531:6543   */\n      swap1\n      pop\n        /* \"#utility.yul\":6489:6549   */\n      swap2\n      swap1\n      pop\n      jump\t// out\n        /* \"#utility.yul\":6555:6697   */\n    tag_64:\n        /* \"#utility.yul\":6605:6614   */\n      0x00\n        /* \"#utility.yul\":6638:6691   */\n      tag_138\n        /* \"#utility.yul\":6656:6690   */\n      tag_139\n        /* \"#utility.yul\":6665:6689   */\n      tag_140\n        /* \"#utility.yul\":6683:6688   */\n      dup5\n        /* \"#utility.yul\":6665:6689   */\n      tag_62\n      jump\t// in\n    tag_140:\n        /* \"#utility.yul\":6656:6690   */\n      tag_63\n      jump\t// in\n    tag_139:\n        /* \"#utility.yul\":6638:6691   */\n      tag_62\n      jump\t// in\n    tag_138:\n        /* \"#utility.yul\":6625:6691   */\n      swap1\n      pop\n        /* \"#utility.yul\":6555:6697   */\n      swap2\n      swap1\n      pop\n      jump\t// out\n        /* \"#utility.yul\":6703:6778   */\n    tag_65:\n        /* \"#utility.yul\":6746:6749   */\n      0x00\n        /* \"#utility.yul\":6767:6772   */\n      dup2\n        /* \"#utility.yul\":6760:6772   */\n      swap1\n      pop\n        /* \"#utility.yul\":6703:6778   */\n      swap2\n      swap1\n      pop\n      jump\t// out\n        /* \"#utility.yul\":6784:7053   */\n    tag_66:\n        /* \"#utility.yul\":6894:6933   */\n      tag_143\n        /* \"#utility.yul\":6925:6932   */\n      dup4\n        /* \"#utility.yul\":6894:6933   */\n      tag_64\n      jump\t// in\n    tag_143:\n        /* \"#utility.yul\":6955:7046   */\n      tag_144\n        /* \"#utility.yul\":7004:7045   */\n      tag_145\n        /* \"#utility.yul\":7028:7044   */\n      dup3\n        /* \"#utility.yul\":7004:7045   */\n      tag_65\n      jump\t// in\n    tag_145:\n        /* \"#utility.yul\":6996:7002   */\n      dup5\n        /* \"#utility.yul\":6989:6993   */\n      dup5\n        /* \"#utility.yul\":6983:6994   */\n      sload\n        /* \"#utility.yul\":6955:7046   */\n      tag_61\n      jump\t// in\n    tag_144:\n        /* \"#utility.yul\":6949:6953   */\n      dup3\n        /* \"#utility.yul\":6942:7047   */\n      sstore\n        /* \"#utility.yul\":6860:7053   */\n      pop\n        /* \"#utility.yul\":6784:7053   */\n      pop\n      pop\n      pop\n      jump\t// out\n        /* \"#utility.yul\":7059:7132   */\n    tag_67:\n        /* \"#utility.yul\":7104:7107   */\n      0x00\n        /* \"#utility.yul\":7059:7132   */\n      swap1\n      jump\t// out\n        /* \"#utility.yul\":7138:7327   */\n    tag_68:\n        /* \"#utility.yul\":7215:7247   */\n      tag_148\n      tag_67\n      jump\t// in\n    tag_148:\n        /* \"#utility.yul\":7256:7321   */\n      tag_149\n        /* \"#utility.yul\":7314:7320   */\n      dup2\n        /* \"#utility.yul\":7306:7312   */\n      dup5\n        /* \"#utility.yul\":7300:7304   */\n      dup5\n        /* \"#utility.yul\":7256:7321   */\n      tag_66\n      jump\t// in\n    tag_149:\n        /* \"#utility.yul\":7191:7327   */\n      pop\n        /* \"#utility.yul\":7138:7327   */\n      pop\n      pop\n      jump\t// out\n        /* \"#utility.yul\":7333:7519   */\n    tag_69:\n        /* \"#utility.yul\":7393:7513   */\n    tag_151:\n        /* \"#utility.yul\":7410:7413   */\n      dup2\n        /* \"#utility.yul\":7403:7408   */\n      dup2\n        /* \"#utility.yul\":7400:7414   */\n      lt\n        /* \"#utility.yul\":7393:7513   */\n      iszero\n      tag_153\n      jumpi\n        /* \"#utility.yul\":7464:7503   */\n      tag_154\n        /* \"#utility.yul\":7501:7502   */\n      0x00\n        /* \"#utility.yul\":7494:7499   */\n      dup3\n        /* \"#utility.yul\":7464:7503   */\n      tag_68\n      jump\t// in\n    tag_154:\n        /* \"#utility.yul\":7437:7438   */\n      0x01\n        /* \"#utility.yul\":7430:7435   */\n      dup2\n        /* \"#utility.yul\":7426:7439   */\n      add\n        /* \"#utility.yul\":7417:7439   */\n      swap1\n      pop\n        /* \"#utility.yul\":7393:7513   */\n      jump(tag_151)\n    tag_153:\n        /* \"#utility.yul\":7333:7519   */\n      pop\n      pop\n      jump\t// out\n        /* \"#utility.yul\":7525:8068   */\n    tag_70:\n        /* \"#utility.yul\":7626:7628   */\n      0x1f\n        /* \"#utility.yul\":7621:7624   */\n      dup3\n        /* \"#utility.yul\":7618:7629   */\n      gt\n        /* \"#utility.yul\":7615:8061   */\n      iszero\n      tag_156\n      jumpi\n        /* \"#utility.yul\":7660:7698   */\n      tag_157\n        /* \"#utility.yul\":7692:7697   */\n      dup2\n        /* \"#utility.yul\":7660:7698   */\n      tag_58\n      jump\t// in\n    tag_157:\n        /* \"#utility.yul\":7744:7773   */\n      tag_158\n        /* \"#utility.yul\":7762:7772   */\n      dup5\n        /* \"#utility.yul\":7744:7773   */\n      tag_59\n      jump\t// in\n    tag_158:\n        /* \"#utility.yul\":7734:7742   */\n      dup2\n        /* \"#utility.yul\":7730:7774   */\n      add\n        /* \"#utility.yul\":7927:7929   */\n      0x20\n        /* \"#utility.yul\":7915:7925   */\n      dup6\n        /* \"#utility.yul\":7912:7930   */\n      lt\n        /* \"#utility.yul\":7909:7958   */\n      iszero\n      tag_159\n      jumpi\n        /* \"#utility.yul\":7948:7956   */\n      dup2\n        /* \"#utility.yul\":7933:7956   */\n      swap1\n      pop\n        /* \"#utility.yul\":7909:7958   */\n    tag_159:\n        /* \"#utility.yul\":7971:8051   */\n      tag_160\n        /* \"#utility.yul\":8027:8049   */\n      tag_161\n        /* \"#utility.yul\":8045:8048   */\n      dup6\n        /* \"#utility.yul\":8027:8049   */\n      tag_59\n      jump\t// in\n    tag_161:\n        /* \"#utility.yul\":8017:8025   */\n      dup4\n        /* \"#utility.yul\":8013:8050   */\n      add\n        /* \"#utility.yul\":8000:8011   */\n      dup3\n        /* \"#utility.yul\":7971:8051   */\n      tag_69\n      jump\t// in\n    tag_160:\n        /* \"#utility.yul\":7630:8061   */\n      pop\n      pop\n        /* \"#utility.yul\":7615:8061   */\n    tag_156:\n        /* \"#utility.yul\":7525:8068   */\n      pop\n      pop\n      pop\n      jump\t// out\n        /* \"#utility.yul\":8074:8191   */\n    tag_71:\n        /* \"#utility.yul\":8128:8136   */\n      0x00\n        /* \"#utility.yul\":8178:8183   */\n      dup3\n        /* \"#utility.yul\":8172:8176   */\n      dup3\n        /* \"#utility.yul\":8168:8184   */\n      shr\n        /* \"#utility.yul\":8147:8184   */\n      swap1\n      pop\n        /* \"#utility.yul\":8074:8191   */\n      swap3\n      swap2\n      pop\n      pop\n      jump\t// out\n        /* \"#utility.yul\":8197:8366   */\n    tag_72:\n        /* \"#utility.yul\":8241:8247   */\n      0x00\n        /* \"#utility.yul\":8274:8325   */\n      tag_164\n        /* \"#utility.yul\":8322:8323   */\n      0x00\n        /* \"#utility.yul\":8318:8324   */\n      not\n        /* \"#utility.yul\":8310:8315   */\n      dup5\n        /* \"#utility.yul\":8307:8308   */\n      0x08\n        /* \"#utility.yul\":8303:8316   */\n      mul\n        /* \"#utility.yul\":8274:8325   */\n      tag_71\n      jump\t// in\n    tag_164:\n        /* \"#utility.yul\":8270:8326   */\n      not\n        /* \"#utility.yul\":8355:8359   */\n      dup1\n        /* \"#utility.yul\":8349:8353   */\n      dup4\n        /* \"#utility.yul\":8345:8360   */\n      and\n        /* \"#utility.yul\":8335:8360   */\n      swap2\n      pop\n        /* \"#utility.yul\":8248:8366   */\n      pop\n        /* \"#utility.yul\":8197:8366   */\n      swap3\n      swap2\n      pop\n      pop\n      jump\t// out\n        /* \"#utility.yul\":8371:8666   */\n    tag_73:\n        /* \"#utility.yul\":8447:8451   */\n      0x00\n        /* \"#utility.yul\":8593:8622   */\n      tag_166\n        /* \"#utility.yul\":8618:8621   */\n      dup4\n        /* \"#utility.yul\":8612:8616   */\n      dup4\n        /* \"#utility.yul\":8593:8622   */\n      tag_72\n      jump\t// in\n    tag_166:\n        /* \"#utility.yul\":8585:8622   */\n      swap2\n      pop\n        /* \"#utility.yul\":8655:8658   */\n      dup3\n        /* \"#utility.yul\":8652:8653   */\n      0x02\n        /* \"#utility.yul\":8648:8659   */\n      mul\n        /* \"#utility.yul\":8642:8646   */\n      dup3\n        /* \"#utility.yul\":8639:8660   */\n      or\n        /* \"#utility.yul\":8631:8660   */\n      swap1\n      pop\n        /* \"#utility.yul\":8371:8666   */\n      swap3\n      swap2\n      pop\n      pop\n      jump\t// out\n        /* \"#utility.yul\":8671:10074   */\n    tag_37:\n        /* \"#utility.yul\":8795:8839   */\n      tag_168\n        /* \"#utility.yul\":8835:8838   */\n      dup4\n        /* \"#utility.yul\":8830:8833   */\n      dup4\n        /* \"#utility.yul\":8795:8839   */\n      tag_56\n      jump\t// in\n    tag_168:\n        /* \"#utility.yul\":8904:8922   */\n      0xffffffffffffffff\n        /* \"#utility.yul\":8896:8902   */\n      dup2\n        /* \"#utility.yul\":8893:8923   */\n      gt\n        /* \"#utility.yul\":8890:8946   */\n      iszero\n      tag_169\n      jumpi\n        /* \"#utility.yul\":8926:8944   */\n      tag_170\n      tag_57\n      jump\t// in\n    tag_170:\n        /* \"#utility.yul\":8890:8946   */\n    tag_169:\n        /* \"#utility.yul\":8970:9008   */\n      tag_171\n        /* \"#utility.yul\":9002:9006   */\n      dup3\n        /* \"#utility.yul\":8996:9007   */\n      sload\n        /* \"#utility.yul\":8970:9008   */\n      tag_21\n      jump\t// in\n    tag_171:\n        /* \"#utility.yul\":9055:9122   */\n      tag_172\n        /* \"#utility.yul\":9115:9121   */\n      dup3\n        /* \"#utility.yul\":9107:9113   */\n      dup3\n        /* \"#utility.yul\":9101:9105   */\n      dup6\n        /* \"#utility.yul\":9055:9122   */\n      tag_70\n      jump\t// in\n    tag_172:\n        /* \"#utility.yul\":9149:9150   */\n      0x00\n        /* \"#utility.yul\":9178:9180   */\n      0x1f\n        /* \"#utility.yul\":9170:9176   */\n      dup4\n        /* \"#utility.yul\":9167:9181   */\n      gt\n        /* \"#utility.yul\":9195:9196   */\n      0x01\n        /* \"#utility.yul\":9190:9822   */\n      dup2\n      eq\n      tag_174\n      jumpi\n        /* \"#utility.yul\":9866:9867   */\n      0x00\n        /* \"#utility.yul\":9883:9889   */\n      dup5\n        /* \"#utility.yul\":9880:9964   */\n      iszero\n      tag_175\n      jumpi\n        /* \"#utility.yul\":9939:9948   */\n      dup3\n        /* \"#utility.yul\":9934:9937   */\n      dup8\n        /* \"#utility.yul\":9930:9949   */\n      add\n        /* \"#utility.yul\":9917:9950   */\n      calldataload\n        /* \"#utility.yul\":9908:9950   */\n      swap1\n      pop\n        /* \"#utility.yul\":9880:9964   */\n    tag_175:\n        /* \"#utility.yul\":9990:10057   */\n      tag_176\n        /* \"#utility.yul\":10050:10056   */\n      dup6\n        /* \"#utility.yul\":10043:10048   */\n      dup3\n        /* \"#utility.yul\":9990:10057   */\n      tag_73\n      jump\t// in\n    tag_176:\n        /* \"#utility.yul\":9984:9988   */\n      dup7\n        /* \"#utility.yul\":9977:10058   */\n      sstore\n        /* \"#utility.yul\":9839:10068   */\n      pop\n        /* \"#utility.yul\":9160:10068   */\n      jump(tag_173)\n        /* \"#utility.yul\":9190:9822   */\n    tag_174:\n        /* \"#utility.yul\":9242:9246   */\n      0x1f\n        /* \"#utility.yul\":9238:9247   */\n      not\n        /* \"#utility.yul\":9230:9236   */\n      dup5\n        /* \"#utility.yul\":9226:9248   */\n      and\n        /* \"#utility.yul\":9276:9313   */\n      tag_177\n        /* \"#utility.yul\":9308:9312   */\n      dup7\n        /* \"#utility.yul\":9276:9313   */\n      tag_58\n      jump\t// in\n    tag_177:\n        /* \"#utility.yul\":9335:9336   */\n      0x00\n        /* \"#utility.yul\":9349:9564   */\n    tag_178:\n        /* \"#utility.yul\":9363:9370   */\n      dup3\n        /* \"#utility.yul\":9360:9361   */\n      dup2\n        /* \"#utility.yul\":9357:9371   */\n      lt\n        /* \"#utility.yul\":9349:9564   */\n      iszero\n      tag_180\n      jumpi\n        /* \"#utility.yul\":9449:9458   */\n      dup5\n        /* \"#utility.yul\":9444:9447   */\n      dup10\n        /* \"#utility.yul\":9440:9459   */\n      add\n        /* \"#utility.yul\":9427:9460   */\n      calldataload\n        /* \"#utility.yul\":9419:9425   */\n      dup3\n        /* \"#utility.yul\":9412:9461   */\n      sstore\n        /* \"#utility.yul\":9500:9501   */\n      0x01\n        /* \"#utility.yul\":9492:9498   */\n      dup3\n        /* \"#utility.yul\":9488:9502   */\n      add\n        /* \"#utility.yul\":9478:9502   */\n      swap2\n      pop\n        /* \"#utility.yul\":9547:9549   */\n      0x20\n        /* \"#utility.yul\":9536:9545   */\n      dup6\n        /* \"#utility.yul\":9532:9550   */\n      add\n        /* \"#utility.yul\":9519:9550   */\n      swap5\n      pop\n        /* \"#utility.yul\":9386:9390   */\n      0x20\n        /* \"#utility.yul\":9383:9384   */\n      dup2\n        /* \"#utility.yul\":9379:9391   */\n      add\n        /* \"#utility.yul\":9374:9391   */\n      swap1\n      pop\n        /* \"#utility.yul\":9349:9564   */\n      jump(tag_178)\n    tag_180:\n        /* \"#utility.yul\":9592:9598   */\n      dup7\n        /* \"#utility.yul\":9583:9590   */\n      dup4\n        /* \"#utility.yul\":9580:9599   */\n      lt\n        /* \"#utility.yul\":9577:9763   */\n      iszero\n      tag_181\n      jumpi\n        /* \"#utility.yul\":9657:9666   */\n      dup5\n        /* \"#utility.yul\":9652:9655   */\n      dup10\n        /* \"#utility.yul\":9648:9667   */\n      add\n        /* \"#utility.yul\":9635:9668   */\n      calldataload\n        /* \"#utility.yul\":9700:9748   */\n      tag_182\n        /* \"#utility.yul\":9742:9746   */\n      0x1f\n        /* \"#utility.yul\":9734:9740   */\n      dup10\n        /* \"#utility.yul\":9730:9747   */\n      and\n        /* \"#utility.yul\":9719:9728   */\n      dup3\n        /* \"#utility.yul\":9700:9748   */\n      tag_72\n      jump\t// in\n    tag_182:\n        /* \"#utility.yul\":9692:9698   */\n      dup4\n        /* \"#utility.yul\":9685:9749   */\n      sstore\n        /* \"#utility.yul\":9600:9763   */\n      pop\n        /* \"#utility.yul\":9577:9763   */\n    tag_181:\n        /* \"#utility.yul\":9809:9810   */\n      0x01\n        /* \"#utility.yul\":9805:9806   */\n      0x02\n        /* \"#utility.yul\":9797:9803   */\n      dup9\n        /* \"#utility.yul\":9793:9807   */\n      mul\n        /* \"#utility.yul\":9789:9811   */\n      add\n        /* \"#utility.yul\":9783:9787   */\n      dup9\n        /* \"#utility.yul\":9776:9812   */\n      sstore\n        /* \"#utility.yul\":9197:9822   */\n      pop\n      pop\n      pop\n        /* \"#utility.yul\":9160:10068   */\n    tag_173:\n      pop\n        /* \"#utility.yul\":8770:10074   */\n      pop\n      pop\n      pop\n        /* \"#utility.yul\":8671:10074   */\n      pop\n      pop\n      pop\n      jump\t// out\n\n    auxdata: 0xa26469706673582212204895535dc5182d53c63fb4815eff46cc6433bcbe748073fb69203221e0ba496464736f6c634300081a0033\n}\n",
				"bytecode": {
					"linkReferences": {},
					"object": "6080604052348015600e575f80fd5b506107bb8061001c5f395ff3fe608060405234801561000f575f80fd5b506004361061003f575f3560e01c8063a4cc397814610043578063ac36933714610073578063bdab95bc146100a3575b5f80fd5b61005d6004803603810190610058919061029d565b6100bf565b60405161006a9190610338565b60405180910390f35b61008d6004803603810190610088919061029d565b610159565b60405161009a9190610338565b60405180910390f35b6100bd60048036038101906100b891906103b9565b61023d565b005b5f602052805f5260405f205f9150905080546100da90610443565b80601f016020809104026020016040519081016040528092919081815260200182805461010690610443565b80156101515780601f1061012857610100808354040283529160200191610151565b820191905f5260205f20905b81548152906001019060200180831161013457829003601f168201915b505050505081565b60605f801b820361019f576040517f08c379a0000000000000000000000000000000000000000000000000000000008152600401610196906104bd565b60405180910390fd5b5f808381526020019081526020015f2080546101ba90610443565b80601f01602080910402602001604051908101604052809291908181526020018280546101e690610443565b80156102315780601f1061020857610100808354040283529160200191610231565b820191905f5260205f20905b81548152906001019060200180831161021457829003601f168201915b50505050509050919050565b81815f808681526020019081526020015f20918261025c9291906106b8565b50505050565b5f80fd5b5f80fd5b5f819050919050565b61027c8161026a565b8114610286575f80fd5b50565b5f8135905061029781610273565b92915050565b5f602082840312156102b2576102b1610262565b5b5f6102bf84828501610289565b91505092915050565b5f81519050919050565b5f82825260208201905092915050565b8281835e5f83830152505050565b5f601f19601f8301169050919050565b5f61030a826102c8565b61031481856102d2565b93506103248185602086016102e2565b61032d816102f0565b840191505092915050565b5f6020820190508181035f8301526103508184610300565b905092915050565b5f80fd5b5f80fd5b5f80fd5b5f8083601f84011261037957610378610358565b5b8235905067ffffffffffffffff8111156103965761039561035c565b5b6020830191508360018202830111156103b2576103b1610360565b5b9250929050565b5f805f604084860312156103d0576103cf610262565b5b5f6103dd86828701610289565b935050602084013567ffffffffffffffff8111156103fe576103fd610266565b5b61040a86828701610364565b92509250509250925092565b7f4e487b71000000000000000000000000000000000000000000000000000000005f52602260045260245ffd5b5f600282049050600182168061045a57607f821691505b60208210810361046d5761046c610416565b5b50919050565b7f5a4b206e6f7420626f756e6400000000000000000000000000000000000000005f82015250565b5f6104a7600c836102d2565b91506104b282610473565b602082019050919050565b5f6020820190508181035f8301526104d48161049b565b9050919050565b5f82905092915050565b7f4e487b71000000000000000000000000000000000000000000000000000000005f52604160045260245ffd5b5f819050815f5260205f209050919050565b5f6020601f8301049050919050565b5f82821b905092915050565b5f6008830261056e7fffffffffffffffffffffffffffffffffffffffffffffffffffffffffffffffff82610533565b6105788683610533565b95508019841693508086168417925050509392505050565b5f819050919050565b5f819050919050565b5f6105bc6105b76105b284610590565b610599565b610590565b9050919050565b5f819050919050565b6105d5836105a2565b6105e96105e1826105c3565b84845461053f565b825550505050565b5f90565b6105fd6105f1565b6106088184846105cc565b505050565b5b8181101561062b576106205f826105f5565b60018101905061060e565b5050565b601f8211156106705761064181610512565b61064a84610524565b81016020851015610659578190505b61066d61066585610524565b83018261060d565b50505b505050565b5f82821c905092915050565b5f6106905f1984600802610675565b1980831691505092915050565b5f6106a88383610681565b9150826002028217905092915050565b6106c283836104db565b67ffffffffffffffff8111156106db576106da6104e5565b5b6106e58254610443565b6106f082828561062f565b5f601f83116001811461071d575f841561070b578287013590505b610715858261069d565b86555061077c565b601f19841661072b86610512565b5f5b828110156107525784890135825560018201915060208501945060208101905061072d565b8683101561076f578489013561076b601f891682610681565b8355505b6001600288020188555050505b5050505050505056fea26469706673582212204895535dc5182d53c63fb4815eff46cc6433bcbe748073fb69203221e0ba496464736f6c634300081a0033",
					"opcodes": "PUSH1 0x80 PUSH1 0x40 MSTORE CALLVALUE DUP1 ISZERO PUSH1 0xE JUMPI PUSH0 DUP1 REVERT JUMPDEST POP PUSH2 0x7BB DUP1 PUSH2 0x1C PUSH0 CODECOPY PUSH0 RETURN INVALID PUSH1 0x80 PUSH1 0x40 MSTORE CALLVALUE DUP1 ISZERO PUSH2 0xF JUMPI PUSH0 DUP1 REVERT JUMPDEST POP PUSH1 0x4 CALLDATASIZE LT PUSH2 0x3F JUMPI PUSH0 CALLDATALOAD PUSH1 0xE0 SHR DUP1 PUSH4 0xA4CC3978 EQ PUSH2 0x43 JUMPI DUP1 PUSH4 0xAC369337 EQ PUSH2 0x73 JUMPI DUP1 PUSH4 0xBDAB95BC EQ PUSH2 0xA3 JUMPI JUMPDEST PUSH0 DUP1 REVERT JUMPDEST PUSH2 0x5D PUSH1 0x4 DUP1 CALLDATASIZE SUB DUP2 ADD SWAP1 PUSH2 0x58 SWAP2 SWAP1 PUSH2 0x29D JUMP JUMPDEST PUSH2 0xBF JUMP JUMPDEST PUSH1 0x40 MLOAD PUSH2 0x6A SWAP2 SWAP1 PUSH2 0x338 JUMP JUMPDEST PUSH1 0x40 MLOAD DUP1 SWAP2 SUB SWAP1 RETURN JUMPDEST PUSH2 0x8D PUSH1 0x4 DUP1 CALLDATASIZE SUB DUP2 ADD SWAP1 PUSH2 0x88 SWAP2 SWAP1 PUSH2 0x29D JUMP JUMPDEST PUSH2 0x159 JUMP JUMPDEST PUSH1 0x40 MLOAD PUSH2 0x9A SWAP2 SWAP1 PUSH2 0x338 JUMP JUMPDEST PUSH1 0x40 MLOAD DUP1 SWAP2 SUB SWAP1 RETURN JUMPDEST PUSH2 0xBD PUSH1 0x4 DUP1 CALLDATASIZE SUB DUP2 ADD SWAP1 PUSH2 0xB8 SWAP2 SWAP1 PUSH2 0x3B9 JUMP JUMPDEST PUSH2 0x23D JUMP JUMPDEST STOP JUMPDEST PUSH0 PUSH1 0x20 MSTORE DUP1 PUSH0 MSTORE PUSH1 0x40 PUSH0 KECCAK256 PUSH0 SWAP2 POP SWAP1 POP DUP1 SLOAD PUSH2 0xDA SWAP1 PUSH2 0x443 JUMP JUMPDEST DUP1 PUSH1 0x1F ADD PUSH1 0x20 DUP1 SWAP2 DIV MUL PUSH1 0x20 ADD PUSH1 0x40 MLOAD SWAP1 DUP2 ADD PUSH1 0x40 MSTORE DUP1 SWAP3 SWAP2 SWAP1 DUP2 DUP2 MSTORE PUSH1 0x20 ADD DUP3 DUP1 SLOAD PUSH2 0x106 SWAP1 PUSH2 0x443 JUMP JUMPDEST DUP1 ISZERO PUSH2 0x151 JUMPI DUP1 PUSH1 0x1F LT PUSH2 0x128 JUMPI PUSH2 0x100 DUP1 DUP4 SLOAD DIV MUL DUP4 MSTORE SWAP2 PUSH1 0x20 ADD SWAP2 PUSH2 0x151 JUMP JUMPDEST DUP3 ADD SWAP2 SWAP1 PUSH0 MSTORE PUSH1 0x20 PUSH0 KECCAK256 SWAP1 JUMPDEST DUP2 SLOAD DUP2 MSTORE SWAP1 PUSH1 0x1 ADD SWAP1 PUSH1 0x20 ADD DUP1 DUP4 GT PUSH2 0x134 JUMPI DUP3 SWAP1 SUB PUSH1 0x1F AND DUP3 ADD SWAP2 JUMPDEST POP POP POP POP POP DUP2 JUMP JUMPDEST PUSH1 0x60 PUSH0 DUP1 SHL DUP3 SUB PUSH2 0x19F JUMPI PUSH1 0x40 MLOAD PUSH32 0x8C379A000000000000000000000000000000000000000000000000000000000 DUP2 MSTORE PUSH1 0x4 ADD PUSH2 0x196 SWAP1 PUSH2 0x4BD JUMP JUMPDEST PUSH1 0x40 MLOAD DUP1 SWAP2 SUB SWAP1 REVERT JUMPDEST PUSH0 DUP1 DUP4 DUP2 MSTORE PUSH1 0x20 ADD SWAP1 DUP2 MSTORE PUSH1 0x20 ADD PUSH0 KECCAK256 DUP1 SLOAD PUSH2 0x1BA SWAP1 PUSH2 0x443 JUMP JUMPDEST DUP1 PUSH1 0x1F ADD PUSH1 0x20 DUP1 SWAP2 DIV MUL PUSH1 0x20 ADD PUSH1 0x40 MLOAD SWAP1 DUP2 ADD PUSH1 0x40 MSTORE DUP1 SWAP3 SWAP2 SWAP1 DUP2 DUP2 MSTORE PUSH1 0x20 ADD DUP3 DUP1 SLOAD PUSH2 0x1E6 SWAP1 PUSH2 0x443 JUMP JUMPDEST DUP1 ISZERO PUSH2 0x231 JUMPI DUP1 PUSH1 0x1F LT PUSH2 0x208 JUMPI PUSH2 0x100 DUP1 DUP4 SLOAD DIV MUL DUP4 MSTORE SWAP2 PUSH1 0x20 ADD SWAP2 PUSH2 0x231 JUMP JUMPDEST DUP3 ADD SWAP2 SWAP1 PUSH0 MSTORE PUSH1 0x20 PUSH0 KECCAK256 SWAP1 JUMPDEST DUP2 SLOAD DUP2 MSTORE SWAP1 PUSH1 0x1 ADD SWAP1 PUSH1 0x20 ADD DUP1 DUP4 GT PUSH2 0x214 JUMPI DUP3 SWAP1 SUB PUSH1 0x1F AND DUP3 ADD SWAP2 JUMPDEST POP POP POP POP POP SWAP1 POP SWAP2 SWAP1 POP JUMP JUMPDEST DUP2 DUP2 PUSH0 DUP1 DUP7 DUP2 MSTORE PUSH1 0x20 ADD SWAP1 DUP2 MSTORE PUSH1 0x20 ADD PUSH0 KECCAK256 SWAP2 DUP3 PUSH2 0x25C SWAP3 SWAP2 SWAP1 PUSH2 0x6B8 JUMP JUMPDEST POP POP POP POP JUMP JUMPDEST PUSH0 DUP1 REVERT JUMPDEST PUSH0 DUP1 REVERT JUMPDEST PUSH0 DUP2 SWAP1 POP SWAP2 SWAP1 POP JUMP JUMPDEST PUSH2 0x27C DUP2 PUSH2 0x26A JUMP JUMPDEST DUP2 EQ PUSH2 0x286 JUMPI PUSH0 DUP1 REVERT JUMPDEST POP JUMP JUMPDEST PUSH0 DUP2 CALLDATALOAD SWAP1 POP PUSH2 0x297 DUP2 PUSH2 0x273 JUMP JUMPDEST SWAP3 SWAP2 POP POP JUMP JUMPDEST PUSH0 PUSH1 0x20 DUP3 DUP5 SUB SLT ISZERO PUSH2 0x2B2 JUMPI PUSH2 0x2B1 PUSH2 0x262 JUMP JUMPDEST JUMPDEST PUSH0 PUSH2 0x2BF DUP5 DUP3 DUP6 ADD PUSH2 0x289 JUMP JUMPDEST SWAP2 POP POP SWAP3 SWAP2 POP POP JUMP JUMPDEST PUSH0 DUP2 MLOAD SWAP1 POP SWAP2 SWAP1 POP JUMP JUMPDEST PUSH0 DUP3 DUP3 MSTORE PUSH1 0x20 DUP3 ADD SWAP1 POP SWAP3 SWAP2 POP POP JUMP JUMPDEST DUP3 DUP2 DUP4 MCOPY PUSH0 DUP4 DUP4 ADD MSTORE POP POP POP JUMP JUMPDEST PUSH0 PUSH1 0x1F NOT PUSH1 0x1F DUP4 ADD AND SWAP1 POP SWAP2 SWAP1 POP JUMP JUMPDEST PUSH0 PUSH2 0x30A DUP3 PUSH2 0x2C8 JUMP JUMPDEST PUSH2 0x314 DUP2 DUP6 PUSH2 0x2D2 JUMP JUMPDEST SWAP4 POP PUSH2 0x324 DUP2 DUP6 PUSH1 0x20 DUP7 ADD PUSH2 0x2E2 JUMP JUMPDEST PUSH2 0x32D DUP2 PUSH2 0x2F0 JUMP JUMPDEST DUP5 ADD SWAP2 POP POP SWAP3 SWAP2 POP POP JUMP JUMPDEST PUSH0 PUSH1 0x20 DUP3 ADD SWAP1 POP DUP2 DUP2 SUB PUSH0 DUP4 ADD MSTORE PUSH2 0x350 DUP2 DUP5 PUSH2 0x300 JUMP JUMPDEST SWAP1 POP SWAP3 SWAP2 POP POP JUMP JUMPDEST PUSH0 DUP1 REVERT JUMPDEST PUSH0 DUP1 REVERT JUMPDEST PUSH0 DUP1 REVERT JUMPDEST PUSH0 DUP1 DUP4 PUSH1 0x1F DUP5 ADD SLT PUSH2 0x379 JUMPI PUSH2 0x378 PUSH2 0x358 JUMP JUMPDEST JUMPDEST DUP3 CALLDATALOAD SWAP1 POP PUSH8 0xFFFFFFFFFFFFFFFF DUP2 GT ISZERO PUSH2 0x396 JUMPI PUSH2 0x395 PUSH2 0x35C JUMP JUMPDEST JUMPDEST PUSH1 0x20 DUP4 ADD SWAP2 POP DUP4 PUSH1 0x1 DUP3 MUL DUP4 ADD GT ISZERO PUSH2 0x3B2 JUMPI PUSH2 0x3B1 PUSH2 0x360 JUMP JUMPDEST JUMPDEST SWAP3 POP SWAP3 SWAP1 POP JUMP JUMPDEST PUSH0 DUP1 PUSH0 PUSH1 0x40 DUP5 DUP7 SUB SLT ISZERO PUSH2 0x3D0 JUMPI PUSH2 0x3CF PUSH2 0x262 JUMP JUMPDEST JUMPDEST PUSH0 PUSH2 0x3DD DUP7 DUP3 DUP8 ADD PUSH2 0x289 JUMP JUMPDEST SWAP4 POP POP PUSH1 0x20 DUP5 ADD CALLDATALOAD PUSH8 0xFFFFFFFFFFFFFFFF DUP2 GT ISZERO PUSH2 0x3FE JUMPI PUSH2 0x3FD PUSH2 0x266 JUMP JUMPDEST JUMPDEST PUSH2 0x40A DUP7 DUP3 DUP8 ADD PUSH2 0x364 JUMP JUMPDEST SWAP3 POP SWAP3 POP POP SWAP3 POP SWAP3 POP SWAP3 JUMP JUMPDEST PUSH32 0x4E487B7100000000000000000000000000000000000000000000000000000000 PUSH0 MSTORE PUSH1 0x22 PUSH1 0x4 MSTORE PUSH1 0x24 PUSH0 REVERT JUMPDEST PUSH0 PUSH1 0x2 DUP3 DIV SWAP1 POP PUSH1 0x1 DUP3 AND DUP1 PUSH2 0x45A JUMPI PUSH1 0x7F DUP3 AND SWAP2 POP JUMPDEST PUSH1 0x20 DUP3 LT DUP2 SUB PUSH2 0x46D JUMPI PUSH2 0x46C PUSH2 0x416 JUMP JUMPDEST JUMPDEST POP SWAP2 SWAP1 POP JUMP JUMPDEST PUSH32 0x5A4B206E6F7420626F756E640000000000000000000000000000000000000000 PUSH0 DUP3 ADD MSTORE POP JUMP JUMPDEST PUSH0 PUSH2 0x4A7 PUSH1 0xC DUP4 PUSH2 0x2D2 JUMP JUMPDEST SWAP2 POP PUSH2 0x4B2 DUP3 PUSH2 0x473 JUMP JUMPDEST PUSH1 0x20 DUP3 ADD SWAP1 POP SWAP2 SWAP1 POP JUMP JUMPDEST PUSH0 PUSH1 0x20 DUP3 ADD SWAP1 POP DUP2 DUP2 SUB PUSH0 DUP4 ADD MSTORE PUSH2 0x4D4 DUP2 PUSH2 0x49B JUMP JUMPDEST SWAP1 POP SWAP2 SWAP1 POP JUMP JUMPDEST PUSH0 DUP3 SWAP1 POP SWAP3 SWAP2 POP POP JUMP JUMPDEST PUSH32 0x4E487B7100000000000000000000000000000000000000000000000000000000 PUSH0 MSTORE PUSH1 0x41 PUSH1 0x4 MSTORE PUSH1 0x24 PUSH0 REVERT JUMPDEST PUSH0 DUP2 SWAP1 POP DUP2 PUSH0 MSTORE PUSH1 0x20 PUSH0 KECCAK256 SWAP1 POP SWAP2 SWAP1 POP JUMP JUMPDEST PUSH0 PUSH1 0x20 PUSH1 0x1F DUP4 ADD DIV SWAP1 POP SWAP2 SWAP1 POP JUMP JUMPDEST PUSH0 DUP3 DUP3 SHL SWAP1 POP SWAP3 SWAP2 POP POP JUMP JUMPDEST PUSH0 PUSH1 0x8 DUP4 MUL PUSH2 0x56E PUSH32 0xFFFFFFFFFFFFFFFFFFFFFFFFFFFFFFFFFFFFFFFFFFFFFFFFFFFFFFFFFFFFFFFF DUP3 PUSH2 0x533 JUMP JUMPDEST PUSH2 0x578 DUP7 DUP4 PUSH2 0x533 JUMP JUMPDEST SWAP6 POP DUP1 NOT DUP5 AND SWAP4 POP DUP1 DUP7 AND DUP5 OR SWAP3 POP POP POP SWAP4 SWAP3 POP POP POP JUMP JUMPDEST PUSH0 DUP2 SWAP1 POP SWAP2 SWAP1 POP JUMP JUMPDEST PUSH0 DUP2 SWAP1 POP SWAP2 SWAP1 POP JUMP JUMPDEST PUSH0 PUSH2 0x5BC PUSH2 0x5B7 PUSH2 0x5B2 DUP5 PUSH2 0x590 JUMP JUMPDEST PUSH2 0x599 JUMP JUMPDEST PUSH2 0x590 JUMP JUMPDEST SWAP1 POP SWAP2 SWAP1 POP JUMP JUMPDEST PUSH0 DUP2 SWAP1 POP SWAP2 SWAP1 POP JUMP JUMPDEST PUSH2 0x5D5 DUP4 PUSH2 0x5A2 JUMP JUMPDEST PUSH2 0x5E9 PUSH2 0x5E1 DUP3 PUSH2 0x5C3 JUMP JUMPDEST DUP5 DUP5 SLOAD PUSH2 0x53F JUMP JUMPDEST DUP3 SSTORE POP POP POP POP JUMP JUMPDEST PUSH0 SWAP1 JUMP JUMPDEST PUSH2 0x5FD PUSH2 0x5F1 JUMP JUMPDEST PUSH2 0x608 DUP2 DUP5 DUP5 PUSH2 0x5CC JUMP JUMPDEST POP POP POP JUMP JUMPDEST JUMPDEST DUP2 DUP2 LT ISZERO PUSH2 0x62B JUMPI PUSH2 0x620 PUSH0 DUP3 PUSH2 0x5F5 JUMP JUMPDEST PUSH1 0x1 DUP2 ADD SWAP1 POP PUSH2 0x60E JUMP JUMPDEST POP POP JUMP JUMPDEST PUSH1 0x1F DUP3 GT ISZERO PUSH2 0x670 JUMPI PUSH2 0x641 DUP2 PUSH2 0x512 JUMP JUMPDEST PUSH2 0x64A DUP5 PUSH2 0x524 JUMP JUMPDEST DUP2 ADD PUSH1 0x20 DUP6 LT ISZERO PUSH2 0x659 JUMPI DUP2 SWAP1 POP JUMPDEST PUSH2 0x66D PUSH2 0x665 DUP6 PUSH2 0x524 JUMP JUMPDEST DUP4 ADD DUP3 PUSH2 0x60D JUMP JUMPDEST POP POP JUMPDEST POP POP POP JUMP JUMPDEST PUSH0 DUP3 DUP3 SHR SWAP1 POP SWAP3 SWAP2 POP POP JUMP JUMPDEST PUSH0 PUSH2 0x690 PUSH0 NOT DUP5 PUSH1 0x8 MUL PUSH2 0x675 JUMP JUMPDEST NOT DUP1 DUP4 AND SWAP2 POP POP SWAP3 SWAP2 POP POP JUMP JUMPDEST PUSH0 PUSH2 0x6A8 DUP4 DUP4 PUSH2 0x681 JUMP JUMPDEST SWAP2 POP DUP3 PUSH1 0x2 MUL DUP3 OR SWAP1 POP SWAP3 SWAP2 POP POP JUMP JUMPDEST PUSH2 0x6C2 DUP4 DUP4 PUSH2 0x4DB JUMP JUMPDEST PUSH8 0xFFFFFFFFFFFFFFFF DUP2 GT ISZERO PUSH2 0x6DB JUMPI PUSH2 0x6DA PUSH2 0x4E5 JUMP JUMPDEST JUMPDEST PUSH2 0x6E5 DUP3 SLOAD PUSH2 0x443 JUMP JUMPDEST PUSH2 0x6F0 DUP3 DUP3 DUP6 PUSH2 0x62F JUMP JUMPDEST PUSH0 PUSH1 0x1F DUP4 GT PUSH1 0x1 DUP2 EQ PUSH2 0x71D JUMPI PUSH0 DUP5 ISZERO PUSH2 0x70B JUMPI DUP3 DUP8 ADD CALLDATALOAD SWAP1 POP JUMPDEST PUSH2 0x715 DUP6 DUP3 PUSH2 0x69D JUMP JUMPDEST DUP7 SSTORE POP PUSH2 0x77C JUMP JUMPDEST PUSH1 0x1F NOT DUP5 AND PUSH2 0x72B DUP7 PUSH2 0x512 JUMP JUMPDEST PUSH0 JUMPDEST DUP3 DUP2 LT ISZERO PUSH2 0x752 JUMPI DUP5 DUP10 ADD CALLDATALOAD DUP3 SSTORE PUSH1 0x1 DUP3 ADD SWAP2 POP PUSH1 0x20 DUP6 ADD SWAP5 POP PUSH1 0x20 DUP2 ADD SWAP1 POP PUSH2 0x72D JUMP JUMPDEST DUP7 DUP4 LT ISZERO PUSH2 0x76F JUMPI DUP5 DUP10 ADD CALLDATALOAD PUSH2 0x76B PUSH1 0x1F DUP10 AND DUP3 PUSH2 0x681 JUMP JUMPDEST DUP4 SSTORE POP JUMPDEST PUSH1 0x1 PUSH1 0x2 DUP9 MUL ADD DUP9 SSTORE POP POP POP JUMPDEST POP POP POP POP POP POP POP JUMP INVALID LOG2 PUSH5 0x6970667358 0x22 SLT KECCAK256 BASEFEE SWAP6 MSTORE8 TSTORE 0xC5 XOR 0x2D MSTORE8 0xC6 EXTCODEHASH 0xB4 DUP2 MCOPY SELFDESTRUCT CHAINID 0xCC PUSH5 0x33BCBE7480 PUSH20 0xFB69203221E0BA496464736F6C634300081A0033 "
				},
				"gasEstimates": {
					"creation": {
						"codeDepositCost": "395800",
						"executionCost": "428",
						"totalCost": "396228"
					},
					"external": {
						"setZK(bytes32,string)": "infinite",
						"viewZK(bytes32)": "infinite",
						"zkData(bytes32)": "infinite"
					}
				},
				"methodIdentifiers": {
					"setZK(bytes32,string)": "bdab95bc",
					"viewZK(bytes32)": "ac369337",
					"zkData(bytes32)": "a4cc3978"
				}
			},
			"storageLayout": {
				"storage": [
					{
						"astId": 65,
						"contract": "P/Polyinstantiation/Polyinstantiation.sol:ZKInstance",
						"label": "zkData",
						"offset": 0,
						"slot": "0",
						"type": "t_mapping(t_bytes32,t_string_storage)"
					}
				],
				"types": {
					"t_bytes32": {
						"encoding": "inplace",
						"label": "bytes32",
						"numberOfBytes": "32"
					},
					"t_mapping(t_bytes32,t_string_storage)": {
						"encoding": "mapping",
						"key": "t_bytes32",
						"label": "mapping(bytes32 => string)",
						"numberOfBytes": "32",
						"value": "t_string_storage"
					},
					"t_string_storage": {
						"encoding": "bytes",
						"label": "string",
						"numberOfBytes": "32"
					}
				}
			},
			"userdoc": {
				"kind": "user",
				"methods": {},
				"version": 1
			}
		}
	}
}