{
	"P/Polyinstantiation/Polyinstantiation.sol": {
		"PermitView": {
			"abi": [
				{
					"inputs": [
						{
							"internalType": "address",
							"name": "",
							"type": "address"
						}
					],
					"name": "access",
					"outputs": [
						{
							"internalType": "bool",
							"name": "",
							"type": "bool"
						}
					],
					"stateMutability": "view",
					"type": "function"
				},
				{
					"inputs": [
						{
							"internalType": "address",
							"name": "u",
							"type": "address"
						},
						{
							"internalType": "bool",
							"name": "y",
							"type": "bool"
						}
					],
					"name": "grant",
					"outputs": [],
					"stateMutability": "nonpayable",
					"type": "function"
				},
				{
					"inputs": [
						{
							"internalType": "string",
							"name": "d",
							"type": "string"
						}
					],
					"name": "setSecret",
					"outputs": [],
					"stateMutability": "nonpayable",
					"type": "function"
				},
				{
					"inputs": [],
					"name": "viewSecret",
					"outputs": [
						{
							"internalType": "string",
							"name": "",
							"type": "string"
						}
					],
					"stateMutability": "view",
					"type": "function"
				}
			],
			"devdoc": {
				"kind": "dev",
				"methods": {},
				"version": 1
			},
			"evm": {
				"assembly": "    /* \"P/Polyinstantiation/Polyinstantiation.sol\":1829:2240  contract PermitView {... */\n  mstore(0x40, 0x80)\n  callvalue\n  dup1\n  iszero\n  tag_1\n  jumpi\n  0x00\n  dup1\n  revert\ntag_1:\n  pop\n  dataSize(sub_0)\n  dup1\n  dataOffset(sub_0)\n  0x00\n  codecopy\n  0x00\n  return\nstop\n\nsub_0: assembly {\n        /* \"P/Polyinstantiation/Polyinstantiation.sol\":1829:2240  contract PermitView {... */\n      mstore(0x40, 0x80)\n      callvalue\n      dup1\n      iszero\n      tag_1\n      jumpi\n      0x00\n      dup1\n      revert\n    tag_1:\n      pop\n      jumpi(tag_2, lt(calldatasize, 0x04))\n      shr(0xe0, calldataload(0x00))\n      dup1\n      0x243337e8\n      eq\n      tag_3\n      jumpi\n      dup1\n      0x6fae3d76\n      eq\n      tag_4\n      jumpi\n      dup1\n      0x7ed6c926\n      eq\n      tag_5\n      jumpi\n      dup1\n      0x7fd10102\n      eq\n      tag_6\n      jumpi\n    tag_2:\n      0x00\n      dup1\n      revert\n        /* \"P/Polyinstantiation/Polyinstantiation.sol\":2010:2154  function viewSecret() external view returns (string memory) {... */\n    tag_3:\n      tag_7\n      tag_8\n      jump\t// in\n    tag_7:\n      mload(0x40)\n      tag_9\n      swap2\n      swap1\n      tag_10\n      jump\t// in\n    tag_9:\n      mload(0x40)\n      dup1\n      swap2\n      sub\n      swap1\n      return\n        /* \"P/Polyinstantiation/Polyinstantiation.sol\":1855:1893  mapping(address => bool) public access */\n    tag_4:\n      tag_11\n      0x04\n      dup1\n      calldatasize\n      sub\n      dup2\n      add\n      swap1\n      tag_12\n      swap2\n      swap1\n      tag_13\n      jump\t// in\n    tag_12:\n      tag_14\n      jump\t// in\n    tag_11:\n      mload(0x40)\n      tag_15\n      swap2\n      swap1\n      tag_16\n      jump\t// in\n    tag_15:\n      mload(0x40)\n      dup1\n      swap2\n      sub\n      swap1\n      return\n        /* \"P/Polyinstantiation/Polyinstantiation.sol\":2160:2238  function setSecret(string calldata d) external {... */\n    tag_5:\n      tag_17\n      0x04\n      dup1\n      calldatasize\n      sub\n      dup2\n      add\n      swap1\n      tag_18\n      swap2\n      swap1\n      tag_19\n      jump\t// in\n    tag_18:\n      tag_20\n      jump\t// in\n    tag_17:\n      stop\n        /* \"P/Polyinstantiation/Polyinstantiation.sol\":1931:2004  function grant(address u, bool y) external {... */\n    tag_6:\n      tag_21\n      0x04\n      dup1\n      calldatasize\n      sub\n      dup2\n      add\n      swap1\n      tag_22\n      swap2\n      swap1\n      tag_23\n      jump\t// in\n    tag_22:\n      tag_24\n      jump\t// in\n    tag_21:\n      stop\n        /* \"P/Polyinstantiation/Polyinstantiation.sol\":2010:2154  function viewSecret() external view returns (string memory) {... */\n    tag_8:\n        /* \"P/Polyinstantiation/Polyinstantiation.sol\":2055:2068  string memory */\n      0x60\n        /* \"P/Polyinstantiation/Polyinstantiation.sol\":2088:2094  access */\n      0x00\n        /* \"P/Polyinstantiation/Polyinstantiation.sol\":2088:2106  access[msg.sender] */\n      dup1\n        /* \"P/Polyinstantiation/Polyinstantiation.sol\":2095:2105  msg.sender */\n      caller\n        /* \"P/Polyinstantiation/Polyinstantiation.sol\":2088:2106  access[msg.sender] */\n      0xffffffffffffffffffffffffffffffffffffffff\n      and\n      0xffffffffffffffffffffffffffffffffffffffff\n      and\n      dup2\n      mstore\n      0x20\n      add\n      swap1\n      dup2\n      mstore\n      0x20\n      add\n      0x00\n      keccak256\n      0x00\n      swap1\n      sload\n      swap1\n      0x0100\n      exp\n      swap1\n      div\n      0xff\n      and\n        /* \"P/Polyinstantiation/Polyinstantiation.sol\":2080:2120  require(access[msg.sender], \"No access\") */\n      tag_26\n      jumpi\n      mload(0x40)\n      0x08c379a000000000000000000000000000000000000000000000000000000000\n      dup2\n      mstore\n      0x04\n      add\n      tag_27\n      swap1\n      tag_28\n      jump\t// in\n    tag_27:\n      mload(0x40)\n      dup1\n      swap2\n      sub\n      swap1\n      revert\n    tag_26:\n        /* \"P/Polyinstantiation/Polyinstantiation.sol\":2137:2147  secretData */\n      0x01\n        /* \"P/Polyinstantiation/Polyinstantiation.sol\":2130:2147  return secretData */\n      dup1\n      sload\n      tag_29\n      swap1\n      tag_30\n      jump\t// in\n    tag_29:\n      dup1\n      0x1f\n      add\n      0x20\n      dup1\n      swap2\n      div\n      mul\n      0x20\n      add\n      mload(0x40)\n      swap1\n      dup2\n      add\n      0x40\n      mstore\n      dup1\n      swap3\n      swap2\n      swap1\n      dup2\n      dup2\n      mstore\n      0x20\n      add\n      dup3\n      dup1\n      sload\n      tag_31\n      swap1\n      tag_30\n      jump\t// in\n    tag_31:\n      dup1\n      iszero\n      tag_32\n      jumpi\n      dup1\n      0x1f\n      lt\n      tag_33\n      jumpi\n      0x0100\n      dup1\n      dup4\n      sload\n      div\n      mul\n      dup4\n      mstore\n      swap2\n      0x20\n      add\n      swap2\n      jump(tag_32)\n    tag_33:\n      dup3\n      add\n      swap2\n      swap1\n      0x00\n      mstore\n      keccak256(0x00, 0x20)\n      swap1\n    tag_34:\n      dup2\n      sload\n      dup2\n      mstore\n      swap1\n      0x01\n      add\n      swap1\n      0x20\n      add\n      dup1\n      dup4\n      gt\n      tag_34\n      jumpi\n      dup3\n      swap1\n      sub\n      0x1f\n      and\n      dup3\n      add\n      swap2\n    tag_32:\n      pop\n      pop\n      pop\n      pop\n      pop\n      swap1\n      pop\n        /* \"P/Polyinstantiation/Polyinstantiation.sol\":2010:2154  function viewSecret() external view returns (string memory) {... */\n      swap1\n      jump\t// out\n        /* \"P/Polyinstantiation/Polyinstantiation.sol\":1855:1893  mapping(address => bool) public access */\n    tag_14:\n      mstore(0x20, 0x00)\n      dup1\n      0x00\n      mstore\n      keccak256(0x00, 0x40)\n      0x00\n      swap2\n      pop\n      sload\n      swap1\n      0x0100\n      exp\n      swap1\n      div\n      0xff\n      and\n      dup2\n      jump\t// out\n        /* \"P/Polyinstantiation/Polyinstantiation.sol\":2160:2238  function setSecret(string calldata d) external {... */\n    tag_20:\n        /* \"P/Polyinstantiation/Polyinstantiation.sol\":2230:2231  d */\n      dup2\n      dup2\n        /* \"P/Polyinstantiation/Polyinstantiation.sol\":2217:2227  secretData */\n      0x01\n        /* \"P/Polyinstantiation/Polyinstantiation.sol\":2217:2231  secretData = d */\n      swap2\n      dup3\n      tag_36\n      swap3\n      swap2\n      swap1\n      tag_37\n      jump\t// in\n    tag_36:\n      pop\n        /* \"P/Polyinstantiation/Polyinstantiation.sol\":2160:2238  function setSecret(string calldata d) external {... */\n      pop\n      pop\n      jump\t// out\n        /* \"P/Polyinstantiation/Polyinstantiation.sol\":1931:2004  function grant(address u, bool y) external {... */\n    tag_24:\n        /* \"P/Polyinstantiation/Polyinstantiation.sol\":1996:1997  y */\n      dup1\n        /* \"P/Polyinstantiation/Polyinstantiation.sol\":1984:1990  access */\n      0x00\n        /* \"P/Polyinstantiation/Polyinstantiation.sol\":1984:1993  access[u] */\n      dup1\n        /* \"P/Polyinstantiation/Polyinstantiation.sol\":1991:1992  u */\n      dup5\n        /* \"P/Polyinstantiation/Polyinstantiation.sol\":1984:1993  access[u] */\n      0xffffffffffffffffffffffffffffffffffffffff\n      and\n      0xffffffffffffffffffffffffffffffffffffffff\n      and\n      dup2\n      mstore\n      0x20\n      add\n      swap1\n      dup2\n      mstore\n      0x20\n      add\n      0x00\n      keccak256\n      0x00\n        /* \"P/Polyinstantiation/Polyinstantiation.sol\":1984:1997  access[u] = y */\n      0x0100\n      exp\n      dup2\n      sload\n      dup2\n      0xff\n      mul\n      not\n      and\n      swap1\n      dup4\n      iszero\n      iszero\n      mul\n      or\n      swap1\n      sstore\n      pop\n        /* \"P/Polyinstantiation/Polyinstantiation.sol\":1931:2004  function grant(address u, bool y) external {... */\n      pop\n      pop\n      jump\t// out\n        /* \"#utility.yul\":7:106   */\n    tag_39:\n        /* \"#utility.yul\":59:65   */\n      0x00\n        /* \"#utility.yul\":93:98   */\n      dup2\n        /* \"#utility.yul\":87:99   */\n      mload\n        /* \"#utility.yul\":77:99   */\n      swap1\n      pop\n        /* \"#utility.yul\":7:106   */\n      swap2\n      swap1\n      pop\n      jump\t// out\n        /* \"#utility.yul\":112:281   */\n    tag_40:\n        /* \"#utility.yul\":196:207   */\n      0x00\n        /* \"#utility.yul\":230:236   */\n      dup3\n        /* \"#utility.yul\":225:228   */\n      dup3\n        /* \"#utility.yul\":218:237   */\n      mstore\n        /* \"#utility.yul\":270:274   */\n      0x20\n        /* \"#utility.yul\":265:268   */\n      dup3\n        /* \"#utility.yul\":261:275   */\n      add\n        /* \"#utility.yul\":246:275   */\n      swap1\n      pop\n        /* \"#utility.yul\":112:281   */\n      swap3\n      swap2\n      pop\n      pop\n      jump\t// out\n        /* \"#utility.yul\":287:426   */\n    tag_41:\n        /* \"#utility.yul\":376:382   */\n      dup3\n        /* \"#utility.yul\":371:374   */\n      dup2\n        /* \"#utility.yul\":366:369   */\n      dup4\n        /* \"#utility.yul\":360:383   */\n      mcopy\n        /* \"#utility.yul\":417:418   */\n      0x00\n        /* \"#utility.yul\":408:414   */\n      dup4\n        /* \"#utility.yul\":403:406   */\n      dup4\n        /* \"#utility.yul\":399:415   */\n      add\n        /* \"#utility.yul\":392:419   */\n      mstore\n        /* \"#utility.yul\":287:426   */\n      pop\n      pop\n      pop\n      jump\t// out\n        /* \"#utility.yul\":432:534   */\n    tag_42:\n        /* \"#utility.yul\":473:479   */\n      0x00\n        /* \"#utility.yul\":524:526   */\n      0x1f\n        /* \"#utility.yul\":520:527   */\n      not\n        /* \"#utility.yul\":515:517   */\n      0x1f\n        /* \"#utility.yul\":508:513   */\n      dup4\n        /* \"#utility.yul\":504:518   */\n      add\n        /* \"#utility.yul\":500:528   */\n      and\n        /* \"#utility.yul\":490:528   */\n      swap1\n      pop\n        /* \"#utility.yul\":432:534   */\n      swap2\n      swap1\n      pop\n      jump\t// out\n        /* \"#utility.yul\":540:917   */\n    tag_43:\n        /* \"#utility.yul\":628:631   */\n      0x00\n        /* \"#utility.yul\":656:695   */\n      tag_86\n        /* \"#utility.yul\":689:694   */\n      dup3\n        /* \"#utility.yul\":656:695   */\n      tag_39\n      jump\t// in\n    tag_86:\n        /* \"#utility.yul\":711:782   */\n      tag_87\n        /* \"#utility.yul\":775:781   */\n      dup2\n        /* \"#utility.yul\":770:773   */\n      dup6\n        /* \"#utility.yul\":711:782   */\n      tag_40\n      jump\t// in\n    tag_87:\n        /* \"#utility.yul\":704:782   */\n      swap4\n      pop\n        /* \"#utility.yul\":791:856   */\n      tag_88\n        /* \"#utility.yul\":849:855   */\n      dup2\n        /* \"#utility.yul\":844:847   */\n      dup6\n        /* \"#utility.yul\":837:841   */\n      0x20\n        /* \"#utility.yul\":830:835   */\n      dup7\n        /* \"#utility.yul\":826:842   */\n      add\n        /* \"#utility.yul\":791:856   */\n      tag_41\n      jump\t// in\n    tag_88:\n        /* \"#utility.yul\":881:910   */\n      tag_89\n        /* \"#utility.yul\":903:909   */\n      dup2\n        /* \"#utility.yul\":881:910   */\n      tag_42\n      jump\t// in\n    tag_89:\n        /* \"#utility.yul\":876:879   */\n      dup5\n        /* \"#utility.yul\":872:911   */\n      add\n        /* \"#utility.yul\":865:911   */\n      swap2\n      pop\n        /* \"#utility.yul\":632:917   */\n      pop\n        /* \"#utility.yul\":540:917   */\n      swap3\n      swap2\n      pop\n      pop\n      jump\t// out\n        /* \"#utility.yul\":923:1236   */\n    tag_10:\n        /* \"#utility.yul\":1036:1040   */\n      0x00\n        /* \"#utility.yul\":1074:1076   */\n      0x20\n        /* \"#utility.yul\":1063:1072   */\n      dup3\n        /* \"#utility.yul\":1059:1077   */\n      add\n        /* \"#utility.yul\":1051:1077   */\n      swap1\n      pop\n        /* \"#utility.yul\":1123:1132   */\n      dup2\n        /* \"#utility.yul\":1117:1121   */\n      dup2\n        /* \"#utility.yul\":1113:1133   */\n      sub\n        /* \"#utility.yul\":1109:1110   */\n      0x00\n        /* \"#utility.yul\":1098:1107   */\n      dup4\n        /* \"#utility.yul\":1094:1111   */\n      add\n        /* \"#utility.yul\":1087:1134   */\n      mstore\n        /* \"#utility.yul\":1151:1229   */\n      tag_91\n        /* \"#utility.yul\":1224:1228   */\n      dup2\n        /* \"#utility.yul\":1215:1221   */\n      dup5\n        /* \"#utility.yul\":1151:1229   */\n      tag_43\n      jump\t// in\n    tag_91:\n        /* \"#utility.yul\":1143:1229   */\n      swap1\n      pop\n        /* \"#utility.yul\":923:1236   */\n      swap3\n      swap2\n      pop\n      pop\n      jump\t// out\n        /* \"#utility.yul\":1323:1440   */\n    tag_45:\n        /* \"#utility.yul\":1432:1433   */\n      0x00\n        /* \"#utility.yul\":1429:1430   */\n      dup1\n        /* \"#utility.yul\":1422:1434   */\n      revert\n        /* \"#utility.yul\":1446:1563   */\n    tag_46:\n        /* \"#utility.yul\":1555:1556   */\n      0x00\n        /* \"#utility.yul\":1552:1553   */\n      dup1\n        /* \"#utility.yul\":1545:1557   */\n      revert\n        /* \"#utility.yul\":1569:1695   */\n    tag_47:\n        /* \"#utility.yul\":1606:1613   */\n      0x00\n        /* \"#utility.yul\":1646:1688   */\n      0xffffffffffffffffffffffffffffffffffffffff\n        /* \"#utility.yul\":1639:1644   */\n      dup3\n        /* \"#utility.yul\":1635:1689   */\n      and\n        /* \"#utility.yul\":1624:1689   */\n      swap1\n      pop\n        /* \"#utility.yul\":1569:1695   */\n      swap2\n      swap1\n      pop\n      jump\t// out\n        /* \"#utility.yul\":1701:1797   */\n    tag_48:\n        /* \"#utility.yul\":1738:1745   */\n      0x00\n        /* \"#utility.yul\":1767:1791   */\n      tag_97\n        /* \"#utility.yul\":1785:1790   */\n      dup3\n        /* \"#utility.yul\":1767:1791   */\n      tag_47\n      jump\t// in\n    tag_97:\n        /* \"#utility.yul\":1756:1791   */\n      swap1\n      pop\n        /* \"#utility.yul\":1701:1797   */\n      swap2\n      swap1\n      pop\n      jump\t// out\n        /* \"#utility.yul\":1803:1925   */\n    tag_49:\n        /* \"#utility.yul\":1876:1900   */\n      tag_99\n        /* \"#utility.yul\":1894:1899   */\n      dup2\n        /* \"#utility.yul\":1876:1900   */\n      tag_48\n      jump\t// in\n    tag_99:\n        /* \"#utility.yul\":1869:1874   */\n      dup2\n        /* \"#utility.yul\":1866:1901   */\n      eq\n        /* \"#utility.yul\":1856:1919   */\n      tag_100\n      jumpi\n        /* \"#utility.yul\":1915:1916   */\n      0x00\n        /* \"#utility.yul\":1912:1913   */\n      dup1\n        /* \"#utility.yul\":1905:1917   */\n      revert\n        /* \"#utility.yul\":1856:1919   */\n    tag_100:\n        /* \"#utility.yul\":1803:1925   */\n      pop\n      jump\t// out\n        /* \"#utility.yul\":1931:2070   */\n    tag_50:\n        /* \"#utility.yul\":1977:1982   */\n      0x00\n        /* \"#utility.yul\":2015:2021   */\n      dup2\n        /* \"#utility.yul\":2002:2022   */\n      calldataload\n        /* \"#utility.yul\":1993:2022   */\n      swap1\n      pop\n        /* \"#utility.yul\":2031:2064   */\n      tag_102\n        /* \"#utility.yul\":2058:2063   */\n      dup2\n        /* \"#utility.yul\":2031:2064   */\n      tag_49\n      jump\t// in\n    tag_102:\n        /* \"#utility.yul\":1931:2070   */\n      swap3\n      swap2\n      pop\n      pop\n      jump\t// out\n        /* \"#utility.yul\":2076:2405   */\n    tag_13:\n        /* \"#utility.yul\":2135:2141   */\n      0x00\n        /* \"#utility.yul\":2184:2186   */\n      0x20\n        /* \"#utility.yul\":2172:2181   */\n      dup3\n        /* \"#utility.yul\":2163:2170   */\n      dup5\n        /* \"#utility.yul\":2159:2182   */\n      sub\n        /* \"#utility.yul\":2155:2187   */\n      slt\n        /* \"#utility.yul\":2152:2271   */\n      iszero\n      tag_104\n      jumpi\n        /* \"#utility.yul\":2190:2269   */\n      tag_105\n      tag_45\n      jump\t// in\n    tag_105:\n        /* \"#utility.yul\":2152:2271   */\n    tag_104:\n        /* \"#utility.yul\":2310:2311   */\n      0x00\n        /* \"#utility.yul\":2335:2388   */\n      tag_106\n        /* \"#utility.yul\":2380:2387   */\n      dup5\n        /* \"#utility.yul\":2371:2377   */\n      dup3\n        /* \"#utility.yul\":2360:2369   */\n      dup6\n        /* \"#utility.yul\":2356:2378   */\n      add\n        /* \"#utility.yul\":2335:2388   */\n      tag_50\n      jump\t// in\n    tag_106:\n        /* \"#utility.yul\":2325:2388   */\n      swap2\n      pop\n        /* \"#utility.yul\":2281:2398   */\n      pop\n        /* \"#utility.yul\":2076:2405   */\n      swap3\n      swap2\n      pop\n      pop\n      jump\t// out\n        /* \"#utility.yul\":2411:2501   */\n    tag_51:\n        /* \"#utility.yul\":2445:2452   */\n      0x00\n        /* \"#utility.yul\":2488:2493   */\n      dup2\n        /* \"#utility.yul\":2481:2494   */\n      iszero\n        /* \"#utility.yul\":2474:2495   */\n      iszero\n        /* \"#utility.yul\":2463:2495   */\n      swap1\n      pop\n        /* \"#utility.yul\":2411:2501   */\n      swap2\n      swap1\n      pop\n      jump\t// out\n        /* \"#utility.yul\":2507:2616   */\n    tag_52:\n        /* \"#utility.yul\":2588:2609   */\n      tag_109\n        /* \"#utility.yul\":2603:2608   */\n      dup2\n        /* \"#utility.yul\":2588:2609   */\n      tag_51\n      jump\t// in\n    tag_109:\n        /* \"#utility.yul\":2583:2586   */\n      dup3\n        /* \"#utility.yul\":2576:2610   */\n      mstore\n        /* \"#utility.yul\":2507:2616   */\n      pop\n      pop\n      jump\t// out\n        /* \"#utility.yul\":2622:2832   */\n    tag_16:\n        /* \"#utility.yul\":2709:2713   */\n      0x00\n        /* \"#utility.yul\":2747:2749   */\n      0x20\n        /* \"#utility.yul\":2736:2745   */\n      dup3\n        /* \"#utility.yul\":2732:2750   */\n      add\n        /* \"#utility.yul\":2724:2750   */\n      swap1\n      pop\n        /* \"#utility.yul\":2760:2825   */\n      tag_111\n        /* \"#utility.yul\":2822:2823   */\n      0x00\n        /* \"#utility.yul\":2811:2820   */\n      dup4\n        /* \"#utility.yul\":2807:2824   */\n      add\n        /* \"#utility.yul\":2798:2804   */\n      dup5\n        /* \"#utility.yul\":2760:2825   */\n      tag_52\n      jump\t// in\n    tag_111:\n        /* \"#utility.yul\":2622:2832   */\n      swap3\n      swap2\n      pop\n      pop\n      jump\t// out\n        /* \"#utility.yul\":2838:2955   */\n    tag_53:\n        /* \"#utility.yul\":2947:2948   */\n      0x00\n        /* \"#utility.yul\":2944:2945   */\n      dup1\n        /* \"#utility.yul\":2937:2949   */\n      revert\n        /* \"#utility.yul\":2961:3078   */\n    tag_54:\n        /* \"#utility.yul\":3070:3071   */\n      0x00\n        /* \"#utility.yul\":3067:3068   */\n      dup1\n        /* \"#utility.yul\":3060:3072   */\n      revert\n        /* \"#utility.yul\":3084:3201   */\n    tag_55:\n        /* \"#utility.yul\":3193:3194   */\n      0x00\n        /* \"#utility.yul\":3190:3191   */\n      dup1\n        /* \"#utility.yul\":3183:3195   */\n      revert\n        /* \"#utility.yul\":3221:3774   */\n    tag_56:\n        /* \"#utility.yul\":3279:3287   */\n      0x00\n        /* \"#utility.yul\":3289:3295   */\n      dup1\n        /* \"#utility.yul\":3339:3342   */\n      dup4\n        /* \"#utility.yul\":3332:3336   */\n      0x1f\n        /* \"#utility.yul\":3324:3330   */\n      dup5\n        /* \"#utility.yul\":3320:3337   */\n      add\n        /* \"#utility.yul\":3316:3343   */\n      slt\n        /* \"#utility.yul\":3306:3428   */\n      tag_116\n      jumpi\n        /* \"#utility.yul\":3347:3426   */\n      tag_117\n      tag_53\n      jump\t// in\n    tag_117:\n        /* \"#utility.yul\":3306:3428   */\n    tag_116:\n        /* \"#utility.yul\":3460:3466   */\n      dup3\n        /* \"#utility.yul\":3447:3467   */\n      calldataload\n        /* \"#utility.yul\":3437:3467   */\n      swap1\n      pop\n        /* \"#utility.yul\":3490:3508   */\n      0xffffffffffffffff\n        /* \"#utility.yul\":3482:3488   */\n      dup2\n        /* \"#utility.yul\":3479:3509   */\n      gt\n        /* \"#utility.yul\":3476:3593   */\n      iszero\n      tag_118\n      jumpi\n        /* \"#utility.yul\":3512:3591   */\n      tag_119\n      tag_54\n      jump\t// in\n    tag_119:\n        /* \"#utility.yul\":3476:3593   */\n    tag_118:\n        /* \"#utility.yul\":3626:3630   */\n      0x20\n        /* \"#utility.yul\":3618:3624   */\n      dup4\n        /* \"#utility.yul\":3614:3631   */\n      add\n        /* \"#utility.yul\":3602:3631   */\n      swap2\n      pop\n        /* \"#utility.yul\":3680:3683   */\n      dup4\n        /* \"#utility.yul\":3672:3676   */\n      0x01\n        /* \"#utility.yul\":3664:3670   */\n      dup3\n        /* \"#utility.yul\":3660:3677   */\n      mul\n        /* \"#utility.yul\":3650:3658   */\n      dup4\n        /* \"#utility.yul\":3646:3678   */\n      add\n        /* \"#utility.yul\":3643:3684   */\n      gt\n        /* \"#utility.yul\":3640:3768   */\n      iszero\n      tag_120\n      jumpi\n        /* \"#utility.yul\":3687:3766   */\n      tag_121\n      tag_55\n      jump\t// in\n    tag_121:\n        /* \"#utility.yul\":3640:3768   */\n    tag_120:\n        /* \"#utility.yul\":3221:3774   */\n      swap3\n      pop\n      swap3\n      swap1\n      pop\n      jump\t// out\n        /* \"#utility.yul\":3780:4309   */\n    tag_19:\n        /* \"#utility.yul\":3851:3857   */\n      0x00\n        /* \"#utility.yul\":3859:3865   */\n      dup1\n        /* \"#utility.yul\":3908:3910   */\n      0x20\n        /* \"#utility.yul\":3896:3905   */\n      dup4\n        /* \"#utility.yul\":3887:3894   */\n      dup6\n        /* \"#utility.yul\":3883:3906   */\n      sub\n        /* \"#utility.yul\":3879:3911   */\n      slt\n        /* \"#utility.yul\":3876:3995   */\n      iszero\n      tag_123\n      jumpi\n        /* \"#utility.yul\":3914:3993   */\n      tag_124\n      tag_45\n      jump\t// in\n    tag_124:\n        /* \"#utility.yul\":3876:3995   */\n    tag_123:\n        /* \"#utility.yul\":4062:4063   */\n      0x00\n        /* \"#utility.yul\":4051:4060   */\n      dup4\n        /* \"#utility.yul\":4047:4064   */\n      add\n        /* \"#utility.yul\":4034:4065   */\n      calldataload\n        /* \"#utility.yul\":4092:4110   */\n      0xffffffffffffffff\n        /* \"#utility.yul\":4084:4090   */\n      dup2\n        /* \"#utility.yul\":4081:4111   */\n      gt\n        /* \"#utility.yul\":4078:4195   */\n      iszero\n      tag_125\n      jumpi\n        /* \"#utility.yul\":4114:4193   */\n      tag_126\n      tag_46\n      jump\t// in\n    tag_126:\n        /* \"#utility.yul\":4078:4195   */\n    tag_125:\n        /* \"#utility.yul\":4227:4292   */\n      tag_127\n        /* \"#utility.yul\":4284:4291   */\n      dup6\n        /* \"#utility.yul\":4275:4281   */\n      dup3\n        /* \"#utility.yul\":4264:4273   */\n      dup7\n        /* \"#utility.yul\":4260:4282   */\n      add\n        /* \"#utility.yul\":4227:4292   */\n      tag_56\n      jump\t// in\n    tag_127:\n        /* \"#utility.yul\":4209:4292   */\n      swap3\n      pop\n      swap3\n      pop\n        /* \"#utility.yul\":4005:4302   */\n      pop\n        /* \"#utility.yul\":3780:4309   */\n      swap3\n      pop\n      swap3\n      swap1\n      pop\n      jump\t// out\n        /* \"#utility.yul\":4315:4431   */\n    tag_57:\n        /* \"#utility.yul\":4385:4406   */\n      tag_129\n        /* \"#utility.yul\":4400:4405   */\n      dup2\n        /* \"#utility.yul\":4385:4406   */\n      tag_51\n      jump\t// in\n    tag_129:\n        /* \"#utility.yul\":4378:4383   */\n      dup2\n        /* \"#utility.yul\":4375:4407   */\n      eq\n        /* \"#utility.yul\":4365:4425   */\n      tag_130\n      jumpi\n        /* \"#utility.yul\":4421:4422   */\n      0x00\n        /* \"#utility.yul\":4418:4419   */\n      dup1\n        /* \"#utility.yul\":4411:4423   */\n      revert\n        /* \"#utility.yul\":4365:4425   */\n    tag_130:\n        /* \"#utility.yul\":4315:4431   */\n      pop\n      jump\t// out\n        /* \"#utility.yul\":4437:4570   */\n    tag_58:\n        /* \"#utility.yul\":4480:4485   */\n      0x00\n        /* \"#utility.yul\":4518:4524   */\n      dup2\n        /* \"#utility.yul\":4505:4525   */\n      calldataload\n        /* \"#utility.yul\":4496:4525   */\n      swap1\n      pop\n        /* \"#utility.yul\":4534:4564   */\n      tag_132\n        /* \"#utility.yul\":4558:4563   */\n      dup2\n        /* \"#utility.yul\":4534:4564   */\n      tag_57\n      jump\t// in\n    tag_132:\n        /* \"#utility.yul\":4437:4570   */\n      swap3\n      swap2\n      pop\n      pop\n      jump\t// out\n        /* \"#utility.yul\":4576:5044   */\n    tag_23:\n        /* \"#utility.yul\":4641:4647   */\n      0x00\n        /* \"#utility.yul\":4649:4655   */\n      dup1\n        /* \"#utility.yul\":4698:4700   */\n      0x40\n        /* \"#utility.yul\":4686:4695   */\n      dup4\n        /* \"#utility.yul\":4677:4684   */\n      dup6\n        /* \"#utility.yul\":4673:4696   */\n      sub\n        /* \"#utility.yul\":4669:4701   */\n      slt\n        /* \"#utility.yul\":4666:4785   */\n      iszero\n      tag_134\n      jumpi\n        /* \"#utility.yul\":4704:4783   */\n      tag_135\n      tag_45\n      jump\t// in\n    tag_135:\n        /* \"#utility.yul\":4666:4785   */\n    tag_134:\n        /* \"#utility.yul\":4824:4825   */\n      0x00\n        /* \"#utility.yul\":4849:4902   */\n      tag_136\n        /* \"#utility.yul\":4894:4901   */\n      dup6\n        /* \"#utility.yul\":4885:4891   */\n      dup3\n        /* \"#utility.yul\":4874:4883   */\n      dup7\n        /* \"#utility.yul\":4870:4892   */\n      add\n        /* \"#utility.yul\":4849:4902   */\n      tag_50\n      jump\t// in\n    tag_136:\n        /* \"#utility.yul\":4839:4902   */\n      swap3\n      pop\n        /* \"#utility.yul\":4795:4912   */\n      pop\n        /* \"#utility.yul\":4951:4953   */\n      0x20\n        /* \"#utility.yul\":4977:5027   */\n      tag_137\n        /* \"#utility.yul\":5019:5026   */\n      dup6\n        /* \"#utility.yul\":5010:5016   */\n      dup3\n        /* \"#utility.yul\":4999:5008   */\n      dup7\n        /* \"#utility.yul\":4995:5017   */\n      add\n        /* \"#utility.yul\":4977:5027   */\n      tag_58\n      jump\t// in\n    tag_137:\n        /* \"#utility.yul\":4967:5027   */\n      swap2\n      pop\n        /* \"#utility.yul\":4922:5037   */\n      pop\n        /* \"#utility.yul\":4576:5044   */\n      swap3\n      pop\n      swap3\n      swap1\n      pop\n      jump\t// out\n        /* \"#utility.yul\":5050:5209   */\n    tag_59:\n        /* \"#utility.yul\":5190:5201   */\n      0x4e6f206163636573730000000000000000000000000000000000000000000000\n        /* \"#utility.yul\":5186:5187   */\n      0x00\n        /* \"#utility.yul\":5178:5184   */\n      dup3\n        /* \"#utility.yul\":5174:5188   */\n      add\n        /* \"#utility.yul\":5167:5202   */\n      mstore\n        /* \"#utility.yul\":5050:5209   */\n      pop\n      jump\t// out\n        /* \"#utility.yul\":5215:5580   */\n    tag_60:\n        /* \"#utility.yul\":5357:5360   */\n      0x00\n        /* \"#utility.yul\":5378:5444   */\n      tag_140\n        /* \"#utility.yul\":5442:5443   */\n      0x09\n        /* \"#utility.yul\":5437:5440   */\n      dup4\n        /* \"#utility.yul\":5378:5444   */\n      tag_40\n      jump\t// in\n    tag_140:\n        /* \"#utility.yul\":5371:5444   */\n      swap2\n      pop\n        /* \"#utility.yul\":5453:5546   */\n      tag_141\n        /* \"#utility.yul\":5542:5545   */\n      dup3\n        /* \"#utility.yul\":5453:5546   */\n      tag_59\n      jump\t// in\n    tag_141:\n        /* \"#utility.yul\":5571:5573   */\n      0x20\n        /* \"#utility.yul\":5566:5569   */\n      dup3\n        /* \"#utility.yul\":5562:5574   */\n      add\n        /* \"#utility.yul\":5555:5574   */\n      swap1\n      pop\n        /* \"#utility.yul\":5215:5580   */\n      swap2\n      swap1\n      pop\n      jump\t// out\n        /* \"#utility.yul\":5586:6005   */\n    tag_28:\n        /* \"#utility.yul\":5752:5756   */\n      0x00\n        /* \"#utility.yul\":5790:5792   */\n      0x20\n        /* \"#utility.yul\":5779:5788   */\n      dup3\n        /* \"#utility.yul\":5775:5793   */\n      add\n        /* \"#utility.yul\":5767:5793   */\n      swap1\n      pop\n        /* \"#utility.yul\":5839:5848   */\n      dup2\n        /* \"#utility.yul\":5833:5837   */\n      dup2\n        /* \"#utility.yul\":5829:5849   */\n      sub\n        /* \"#utility.yul\":5825:5826   */\n      0x00\n        /* \"#utility.yul\":5814:5823   */\n      dup4\n        /* \"#utility.yul\":5810:5827   */\n      add\n        /* \"#utility.yul\":5803:5850   */\n      mstore\n        /* \"#utility.yul\":5867:5998   */\n      tag_143\n        /* \"#utility.yul\":5993:5997   */\n      dup2\n        /* \"#utility.yul\":5867:5998   */\n      tag_60\n      jump\t// in\n    tag_143:\n        /* \"#utility.yul\":5859:5998   */\n      swap1\n      pop\n        /* \"#utility.yul\":5586:6005   */\n      swap2\n      swap1\n      pop\n      jump\t// out\n        /* \"#utility.yul\":6011:6191   */\n    tag_61:\n        /* \"#utility.yul\":6059:6136   */\n      0x4e487b7100000000000000000000000000000000000000000000000000000000\n        /* \"#utility.yul\":6056:6057   */\n      0x00\n        /* \"#utility.yul\":6049:6137   */\n      mstore\n        /* \"#utility.yul\":6156:6160   */\n      0x22\n        /* \"#utility.yul\":6153:6154   */\n      0x04\n        /* \"#utility.yul\":6146:6161   */\n      mstore\n        /* \"#utility.yul\":6180:6184   */\n      0x24\n        /* \"#utility.yul\":6177:6178   */\n      0x00\n        /* \"#utility.yul\":6170:6185   */\n      revert\n        /* \"#utility.yul\":6197:6517   */\n    tag_30:\n        /* \"#utility.yul\":6241:6247   */\n      0x00\n        /* \"#utility.yul\":6278:6279   */\n      0x02\n        /* \"#utility.yul\":6272:6276   */\n      dup3\n        /* \"#utility.yul\":6268:6280   */\n      div\n        /* \"#utility.yul\":6258:6280   */\n      swap1\n      pop\n        /* \"#utility.yul\":6325:6326   */\n      0x01\n        /* \"#utility.yul\":6319:6323   */\n      dup3\n        /* \"#utility.yul\":6315:6327   */\n      and\n        /* \"#utility.yul\":6346:6364   */\n      dup1\n        /* \"#utility.yul\":6336:6417   */\n      tag_146\n      jumpi\n        /* \"#utility.yul\":6402:6406   */\n      0x7f\n        /* \"#utility.yul\":6394:6400   */\n      dup3\n        /* \"#utility.yul\":6390:6407   */\n      and\n        /* \"#utility.yul\":6380:6407   */\n      swap2\n      pop\n        /* \"#utility.yul\":6336:6417   */\n    tag_146:\n        /* \"#utility.yul\":6464:6466   */\n      0x20\n        /* \"#utility.yul\":6456:6462   */\n      dup3\n        /* \"#utility.yul\":6453:6467   */\n      lt\n        /* \"#utility.yul\":6433:6451   */\n      dup2\n        /* \"#utility.yul\":6430:6468   */\n      sub\n        /* \"#utility.yul\":6427:6511   */\n      tag_147\n      jumpi\n        /* \"#utility.yul\":6483:6501   */\n      tag_148\n      tag_61\n      jump\t// in\n    tag_148:\n        /* \"#utility.yul\":6427:6511   */\n    tag_147:\n        /* \"#utility.yul\":6248:6517   */\n      pop\n        /* \"#utility.yul\":6197:6517   */\n      swap2\n      swap1\n      pop\n      jump\t// out\n        /* \"#utility.yul\":6523:6620   */\n    tag_62:\n        /* \"#utility.yul\":6582:6588   */\n      0x00\n        /* \"#utility.yul\":6610:6613   */\n      dup3\n        /* \"#utility.yul\":6600:6613   */\n      swap1\n      pop\n        /* \"#utility.yul\":6523:6620   */\n      swap3\n      swap2\n      pop\n      pop\n      jump\t// out\n        /* \"#utility.yul\":6626:6806   */\n    tag_63:\n        /* \"#utility.yul\":6674:6751   */\n      0x4e487b7100000000000000000000000000000000000000000000000000000000\n        /* \"#utility.yul\":6671:6672   */\n      0x00\n        /* \"#utility.yul\":6664:6752   */\n      mstore\n        /* \"#utility.yul\":6771:6775   */\n      0x41\n        /* \"#utility.yul\":6768:6769   */\n      0x04\n        /* \"#utility.yul\":6761:6776   */\n      mstore\n        /* \"#utility.yul\":6795:6799   */\n      0x24\n        /* \"#utility.yul\":6792:6793   */\n      0x00\n        /* \"#utility.yul\":6785:6800   */\n      revert\n        /* \"#utility.yul\":6812:6953   */\n    tag_64:\n        /* \"#utility.yul\":6861:6865   */\n      0x00\n        /* \"#utility.yul\":6884:6887   */\n      dup2\n        /* \"#utility.yul\":6876:6887   */\n      swap1\n      pop\n        /* \"#utility.yul\":6907:6910   */\n      dup2\n        /* \"#utility.yul\":6904:6905   */\n      0x00\n        /* \"#utility.yul\":6897:6911   */\n      mstore\n        /* \"#utility.yul\":6941:6945   */\n      0x20\n        /* \"#utility.yul\":6938:6939   */\n      0x00\n        /* \"#utility.yul\":6928:6946   */\n      keccak256\n        /* \"#utility.yul\":6920:6946   */\n      swap1\n      pop\n        /* \"#utility.yul\":6812:6953   */\n      swap2\n      swap1\n      pop\n      jump\t// out\n        /* \"#utility.yul\":6959:7052   */\n    tag_65:\n        /* \"#utility.yul\":6996:7002   */\n      0x00\n        /* \"#utility.yul\":7043:7045   */\n      0x20\n        /* \"#utility.yul\":7038:7040   */\n      0x1f\n        /* \"#utility.yul\":7031:7036   */\n      dup4\n        /* \"#utility.yul\":7027:7041   */\n      add\n        /* \"#utility.yul\":7023:7046   */\n      div\n        /* \"#utility.yul\":7013:7046   */\n      swap1\n      pop\n        /* \"#utility.yul\":6959:7052   */\n      swap2\n      swap1\n      pop\n      jump\t// out\n        /* \"#utility.yul\":7058:7165   */\n    tag_66:\n        /* \"#utility.yul\":7102:7110   */\n      0x00\n        /* \"#utility.yul\":7152:7157   */\n      dup3\n        /* \"#utility.yul\":7146:7150   */\n      dup3\n        /* \"#utility.yul\":7142:7158   */\n      shl\n        /* \"#utility.yul\":7121:7158   */\n      swap1\n      pop\n        /* \"#utility.yul\":7058:7165   */\n      swap3\n      swap2\n      pop\n      pop\n      jump\t// out\n        /* \"#utility.yul\":7171:7564   */\n    tag_67:\n        /* \"#utility.yul\":7240:7246   */\n      0x00\n        /* \"#utility.yul\":7290:7291   */\n      0x08\n        /* \"#utility.yul\":7278:7288   */\n      dup4\n        /* \"#utility.yul\":7274:7292   */\n      mul\n        /* \"#utility.yul\":7313:7410   */\n      tag_155\n        /* \"#utility.yul\":7343:7409   */\n      0xffffffffffffffffffffffffffffffffffffffffffffffffffffffffffffffff\n        /* \"#utility.yul\":7332:7341   */\n      dup3\n        /* \"#utility.yul\":7313:7410   */\n      tag_66\n      jump\t// in\n    tag_155:\n        /* \"#utility.yul\":7431:7470   */\n      tag_156\n        /* \"#utility.yul\":7461:7469   */\n      dup7\n        /* \"#utility.yul\":7450:7459   */\n      dup4\n        /* \"#utility.yul\":7431:7470   */\n      tag_66\n      jump\t// in\n    tag_156:\n        /* \"#utility.yul\":7419:7470   */\n      swap6\n      pop\n        /* \"#utility.yul\":7503:7507   */\n      dup1\n        /* \"#utility.yul\":7499:7508   */\n      not\n        /* \"#utility.yul\":7492:7497   */\n      dup5\n        /* \"#utility.yul\":7488:7509   */\n      and\n        /* \"#utility.yul\":7479:7509   */\n      swap4\n      pop\n        /* \"#utility.yul\":7552:7556   */\n      dup1\n        /* \"#utility.yul\":7542:7550   */\n      dup7\n        /* \"#utility.yul\":7538:7557   */\n      and\n        /* \"#utility.yul\":7531:7536   */\n      dup5\n        /* \"#utility.yul\":7528:7558   */\n      or\n        /* \"#utility.yul\":7518:7558   */\n      swap3\n      pop\n        /* \"#utility.yul\":7247:7564   */\n      pop\n      pop\n        /* \"#utility.yul\":7171:7564   */\n      swap4\n      swap3\n      pop\n      pop\n      pop\n      jump\t// out\n        /* \"#utility.yul\":7570:7647   */\n    tag_68:\n        /* \"#utility.yul\":7607:7614   */\n      0x00\n        /* \"#utility.yul\":7636:7641   */\n      dup2\n        /* \"#utility.yul\":7625:7641   */\n      swap1\n      pop\n        /* \"#utility.yul\":7570:7647   */\n      swap2\n      swap1\n      pop\n      jump\t// out\n        /* \"#utility.yul\":7653:7713   */\n    tag_69:\n        /* \"#utility.yul\":7681:7684   */\n      0x00\n        /* \"#utility.yul\":7702:7707   */\n      dup2\n        /* \"#utility.yul\":7695:7707   */\n      swap1\n      pop\n        /* \"#utility.yul\":7653:7713   */\n      swap2\n      swap1\n      pop\n      jump\t// out\n        /* \"#utility.yul\":7719:7861   */\n    tag_70:\n        /* \"#utility.yul\":7769:7778   */\n      0x00\n        /* \"#utility.yul\":7802:7855   */\n      tag_160\n        /* \"#utility.yul\":7820:7854   */\n      tag_161\n        /* \"#utility.yul\":7829:7853   */\n      tag_162\n        /* \"#utility.yul\":7847:7852   */\n      dup5\n        /* \"#utility.yul\":7829:7853   */\n      tag_68\n      jump\t// in\n    tag_162:\n        /* \"#utility.yul\":7820:7854   */\n      tag_69\n      jump\t// in\n    tag_161:\n        /* \"#utility.yul\":7802:7855   */\n      tag_68\n      jump\t// in\n    tag_160:\n        /* \"#utility.yul\":7789:7855   */\n      swap1\n      pop\n        /* \"#utility.yul\":7719:7861   */\n      swap2\n      swap1\n      pop\n      jump\t// out\n        /* \"#utility.yul\":7867:7942   */\n    tag_71:\n        /* \"#utility.yul\":7910:7913   */\n      0x00\n        /* \"#utility.yul\":7931:7936   */\n      dup2\n        /* \"#utility.yul\":7924:7936   */\n      swap1\n      pop\n        /* \"#utility.yul\":7867:7942   */\n      swap2\n      swap1\n      pop\n      jump\t// out\n        /* \"#utility.yul\":7948:8217   */\n    tag_72:\n        /* \"#utility.yul\":8058:8097   */\n      tag_165\n        /* \"#utility.yul\":8089:8096   */\n      dup4\n        /* \"#utility.yul\":8058:8097   */\n      tag_70\n      jump\t// in\n    tag_165:\n        /* \"#utility.yul\":8119:8210   */\n      tag_166\n        /* \"#utility.yul\":8168:8209   */\n      tag_167\n        /* \"#utility.yul\":8192:8208   */\n      dup3\n        /* \"#utility.yul\":8168:8209   */\n      tag_71\n      jump\t// in\n    tag_167:\n        /* \"#utility.yul\":8160:8166   */\n      dup5\n        /* \"#utility.yul\":8153:8157   */\n      dup5\n        /* \"#utility.yul\":8147:8158   */\n      sload\n        /* \"#utility.yul\":8119:8210   */\n      tag_67\n      jump\t// in\n    tag_166:\n        /* \"#utility.yul\":8113:8117   */\n      dup3\n        /* \"#utility.yul\":8106:8211   */\n      sstore\n        /* \"#utility.yul\":8024:8217   */\n      pop\n        /* \"#utility.yul\":7948:8217   */\n      pop\n      pop\n      pop\n      jump\t// out\n        /* \"#utility.yul\":8223:8296   */\n    tag_73:\n        /* \"#utility.yul\":8268:8271   */\n      0x00\n        /* \"#utility.yul\":8223:8296   */\n      swap1\n      jump\t// out\n        /* \"#utility.yul\":8302:8491   */\n    tag_74:\n        /* \"#utility.yul\":8379:8411   */\n      tag_170\n      tag_73\n      jump\t// in\n    tag_170:\n        /* \"#utility.yul\":8420:8485   */\n      tag_171\n        /* \"#utility.yul\":8478:8484   */\n      dup2\n        /* \"#utility.yul\":8470:8476   */\n      dup5\n        /* \"#utility.yul\":8464:8468   */\n      dup5\n        /* \"#utility.yul\":8420:8485   */\n      tag_72\n      jump\t// in\n    tag_171:\n        /* \"#utility.yul\":8355:8491   */\n      pop\n        /* \"#utility.yul\":8302:8491   */\n      pop\n      pop\n      jump\t// out\n        /* \"#utility.yul\":8497:8683   */\n    tag_75:\n        /* \"#utility.yul\":8557:8677   */\n    tag_173:\n        /* \"#utility.yul\":8574:8577   */\n      dup2\n        /* \"#utility.yul\":8567:8572   */\n      dup2\n        /* \"#utility.yul\":8564:8578   */\n      lt\n        /* \"#utility.yul\":8557:8677   */\n      iszero\n      tag_175\n      jumpi\n        /* \"#utility.yul\":8628:8667   */\n      tag_176\n        /* \"#utility.yul\":8665:8666   */\n      0x00\n        /* \"#utility.yul\":8658:8663   */\n      dup3\n        /* \"#utility.yul\":8628:8667   */\n      tag_74\n      jump\t// in\n    tag_176:\n        /* \"#utility.yul\":8601:8602   */\n      0x01\n        /* \"#utility.yul\":8594:8599   */\n      dup2\n        /* \"#utility.yul\":8590:8603   */\n      add\n        /* \"#utility.yul\":8581:8603   */\n      swap1\n      pop\n        /* \"#utility.yul\":8557:8677   */\n      jump(tag_173)\n    tag_175:\n        /* \"#utility.yul\":8497:8683   */\n      pop\n      pop\n      jump\t// out\n        /* \"#utility.yul\":8689:9232   */\n    tag_76:\n        /* \"#utility.yul\":8790:8792   */\n      0x1f\n        /* \"#utility.yul\":8785:8788   */\n      dup3\n        /* \"#utility.yul\":8782:8793   */\n      gt\n        /* \"#utility.yul\":8779:9225   */\n      iszero\n      tag_178\n      jumpi\n        /* \"#utility.yul\":8824:8862   */\n      tag_179\n        /* \"#utility.yul\":8856:8861   */\n      dup2\n        /* \"#utility.yul\":8824:8862   */\n      tag_64\n      jump\t// in\n    tag_179:\n        /* \"#utility.yul\":8908:8937   */\n      tag_180\n        /* \"#utility.yul\":8926:8936   */\n      dup5\n        /* \"#utility.yul\":8908:8937   */\n      tag_65\n      jump\t// in\n    tag_180:\n        /* \"#utility.yul\":8898:8906   */\n      dup2\n        /* \"#utility.yul\":8894:8938   */\n      add\n        /* \"#utility.yul\":9091:9093   */\n      0x20\n        /* \"#utility.yul\":9079:9089   */\n      dup6\n        /* \"#utility.yul\":9076:9094   */\n      lt\n        /* \"#utility.yul\":9073:9122   */\n      iszero\n      tag_181\n      jumpi\n        /* \"#utility.yul\":9112:9120   */\n      dup2\n        /* \"#utility.yul\":9097:9120   */\n      swap1\n      pop\n        /* \"#utility.yul\":9073:9122   */\n    tag_181:\n        /* \"#utility.yul\":9135:9215   */\n      tag_182\n        /* \"#utility.yul\":9191:9213   */\n      tag_183\n        /* \"#utility.yul\":9209:9212   */\n      dup6\n        /* \"#utility.yul\":9191:9213   */\n      tag_65\n      jump\t// in\n    tag_183:\n        /* \"#utility.yul\":9181:9189   */\n      dup4\n        /* \"#utility.yul\":9177:9214   */\n      add\n        /* \"#utility.yul\":9164:9175   */\n      dup3\n        /* \"#utility.yul\":9135:9215   */\n      tag_75\n      jump\t// in\n    tag_182:\n        /* \"#utility.yul\":8794:9225   */\n      pop\n      pop\n        /* \"#utility.yul\":8779:9225   */\n    tag_178:\n        /* \"#utility.yul\":8689:9232   */\n      pop\n      pop\n      pop\n      jump\t// out\n        /* \"#utility.yul\":9238:9355   */\n    tag_77:\n        /* \"#utility.yul\":9292:9300   */\n      0x00\n        /* \"#utility.yul\":9342:9347   */\n      dup3\n        /* \"#utility.yul\":9336:9340   */\n      dup3\n        /* \"#utility.yul\":9332:9348   */\n      shr\n        /* \"#utility.yul\":9311:9348   */\n      swap1\n      pop\n        /* \"#utility.yul\":9238:9355   */\n      swap3\n      swap2\n      pop\n      pop\n      jump\t// out\n        /* \"#utility.yul\":9361:9530   */\n    tag_78:\n        /* \"#utility.yul\":9405:9411   */\n      0x00\n        /* \"#utility.yul\":9438:9489   */\n      tag_186\n        /* \"#utility.yul\":9486:9487   */\n      0x00\n        /* \"#utility.yul\":9482:9488   */\n      not\n        /* \"#utility.yul\":9474:9479   */\n      dup5\n        /* \"#utility.yul\":9471:9472   */\n      0x08\n        /* \"#utility.yul\":9467:9480   */\n      mul\n        /* \"#utility.yul\":9438:9489   */\n      tag_77\n      jump\t// in\n    tag_186:\n        /* \"#utility.yul\":9434:9490   */\n      not\n        /* \"#utility.yul\":9519:9523   */\n      dup1\n        /* \"#utility.yul\":9513:9517   */\n      dup4\n        /* \"#utility.yul\":9509:9524   */\n      and\n        /* \"#utility.yul\":9499:9524   */\n      swap2\n      pop\n        /* \"#utility.yul\":9412:9530   */\n      pop\n        /* \"#utility.yul\":9361:9530   */\n      swap3\n      swap2\n      pop\n      pop\n      jump\t// out\n        /* \"#utility.yul\":9535:9830   */\n    tag_79:\n        /* \"#utility.yul\":9611:9615   */\n      0x00\n        /* \"#utility.yul\":9757:9786   */\n      tag_188\n        /* \"#utility.yul\":9782:9785   */\n      dup4\n        /* \"#utility.yul\":9776:9780   */\n      dup4\n        /* \"#utility.yul\":9757:9786   */\n      tag_78\n      jump\t// in\n    tag_188:\n        /* \"#utility.yul\":9749:9786   */\n      swap2\n      pop\n        /* \"#utility.yul\":9819:9822   */\n      dup3\n        /* \"#utility.yul\":9816:9817   */\n      0x02\n        /* \"#utility.yul\":9812:9823   */\n      mul\n        /* \"#utility.yul\":9806:9810   */\n      dup3\n        /* \"#utility.yul\":9803:9824   */\n      or\n        /* \"#utility.yul\":9795:9824   */\n      swap1\n      pop\n        /* \"#utility.yul\":9535:9830   */\n      swap3\n      swap2\n      pop\n      pop\n      jump\t// out\n        /* \"#utility.yul\":9835:11238   */\n    tag_37:\n        /* \"#utility.yul\":9959:10003   */\n      tag_190\n        /* \"#utility.yul\":9999:10002   */\n      dup4\n        /* \"#utility.yul\":9994:9997   */\n      dup4\n        /* \"#utility.yul\":9959:10003   */\n      tag_62\n      jump\t// in\n    tag_190:\n        /* \"#utility.yul\":10068:10086   */\n      0xffffffffffffffff\n        /* \"#utility.yul\":10060:10066   */\n      dup2\n        /* \"#utility.yul\":10057:10087   */\n      gt\n        /* \"#utility.yul\":10054:10110   */\n      iszero\n      tag_191\n      jumpi\n        /* \"#utility.yul\":10090:10108   */\n      tag_192\n      tag_63\n      jump\t// in\n    tag_192:\n        /* \"#utility.yul\":10054:10110   */\n    tag_191:\n        /* \"#utility.yul\":10134:10172   */\n      tag_193\n        /* \"#utility.yul\":10166:10170   */\n      dup3\n        /* \"#utility.yul\":10160:10171   */\n      sload\n        /* \"#utility.yul\":10134:10172   */\n      tag_30\n      jump\t// in\n    tag_193:\n        /* \"#utility.yul\":10219:10286   */\n      tag_194\n        /* \"#utility.yul\":10279:10285   */\n      dup3\n        /* \"#utility.yul\":10271:10277   */\n      dup3\n        /* \"#utility.yul\":10265:10269   */\n      dup6\n        /* \"#utility.yul\":10219:10286   */\n      tag_76\n      jump\t// in\n    tag_194:\n        /* \"#utility.yul\":10313:10314   */\n      0x00\n        /* \"#utility.yul\":10342:10344   */\n      0x1f\n        /* \"#utility.yul\":10334:10340   */\n      dup4\n        /* \"#utility.yul\":10331:10345   */\n      gt\n        /* \"#utility.yul\":10359:10360   */\n      0x01\n        /* \"#utility.yul\":10354:10986   */\n      dup2\n      eq\n      tag_196\n      jumpi\n        /* \"#utility.yul\":11030:11031   */\n      0x00\n        /* \"#utility.yul\":11047:11053   */\n      dup5\n        /* \"#utility.yul\":11044:11128   */\n      iszero\n      tag_197\n      jumpi\n        /* \"#utility.yul\":11103:11112   */\n      dup3\n        /* \"#utility.yul\":11098:11101   */\n      dup8\n        /* \"#utility.yul\":11094:11113   */\n      add\n        /* \"#utility.yul\":11081:11114   */\n      calldataload\n        /* \"#utility.yul\":11072:11114   */\n      swap1\n      pop\n        /* \"#utility.yul\":11044:11128   */\n    tag_197:\n        /* \"#utility.yul\":11154:11221   */\n      tag_198\n        /* \"#utility.yul\":11214:11220   */\n      dup6\n        /* \"#utility.yul\":11207:11212   */\n      dup3\n        /* \"#utility.yul\":11154:11221   */\n      tag_79\n      jump\t// in\n    tag_198:\n        /* \"#utility.yul\":11148:11152   */\n      dup7\n        /* \"#utility.yul\":11141:11222   */\n      sstore\n        /* \"#utility.yul\":11003:11232   */\n      pop\n        /* \"#utility.yul\":10324:11232   */\n      jump(tag_195)\n        /* \"#utility.yul\":10354:10986   */\n    tag_196:\n        /* \"#utility.yul\":10406:10410   */\n      0x1f\n        /* \"#utility.yul\":10402:10411   */\n      not\n        /* \"#utility.yul\":10394:10400   */\n      dup5\n        /* \"#utility.yul\":10390:10412   */\n      and\n        /* \"#utility.yul\":10440:10477   */\n      tag_199\n        /* \"#utility.yul\":10472:10476   */\n      dup7\n        /* \"#utility.yul\":10440:10477   */\n      tag_64\n      jump\t// in\n    tag_199:\n        /* \"#utility.yul\":10499:10500   */\n      0x00\n        /* \"#utility.yul\":10513:10728   */\n    tag_200:\n        /* \"#utility.yul\":10527:10534   */\n      dup3\n        /* \"#utility.yul\":10524:10525   */\n      dup2\n        /* \"#utility.yul\":10521:10535   */\n      lt\n        /* \"#utility.yul\":10513:10728   */\n      iszero\n      tag_202\n      jumpi\n        /* \"#utility.yul\":10613:10622   */\n      dup5\n        /* \"#utility.yul\":10608:10611   */\n      dup10\n        /* \"#utility.yul\":10604:10623   */\n      add\n        /* \"#utility.yul\":10591:10624   */\n      calldataload\n        /* \"#utility.yul\":10583:10589   */\n      dup3\n        /* \"#utility.yul\":10576:10625   */\n      sstore\n        /* \"#utility.yul\":10664:10665   */\n      0x01\n        /* \"#utility.yul\":10656:10662   */\n      dup3\n        /* \"#utility.yul\":10652:10666   */\n      add\n        /* \"#utility.yul\":10642:10666   */\n      swap2\n      pop\n        /* \"#utility.yul\":10711:10713   */\n      0x20\n        /* \"#utility.yul\":10700:10709   */\n      dup6\n        /* \"#utility.yul\":10696:10714   */\n      add\n        /* \"#utility.yul\":10683:10714   */\n      swap5\n      pop\n        /* \"#utility.yul\":10550:10554   */\n      0x20\n        /* \"#utility.yul\":10547:10548   */\n      dup2\n        /* \"#utility.yul\":10543:10555   */\n      add\n        /* \"#utility.yul\":10538:10555   */\n      swap1\n      pop\n        /* \"#utility.yul\":10513:10728   */\n      jump(tag_200)\n    tag_202:\n        /* \"#utility.yul\":10756:10762   */\n      dup7\n        /* \"#utility.yul\":10747:10754   */\n      dup4\n        /* \"#utility.yul\":10744:10763   */\n      lt\n        /* \"#utility.yul\":10741:10927   */\n      iszero\n      tag_203\n      jumpi\n        /* \"#utility.yul\":10821:10830   */\n      dup5\n        /* \"#utility.yul\":10816:10819   */\n      dup10\n        /* \"#utility.yul\":10812:10831   */\n      add\n        /* \"#utility.yul\":10799:10832   */\n      calldataload\n        /* \"#utility.yul\":10864:10912   */\n      tag_204\n        /* \"#utility.yul\":10906:10910   */\n      0x1f\n        /* \"#utility.yul\":10898:10904   */\n      dup10\n        /* \"#utility.yul\":10894:10911   */\n      and\n        /* \"#utility.yul\":10883:10892   */\n      dup3\n        /* \"#utility.yul\":10864:10912   */\n      tag_78\n      jump\t// in\n    tag_204:\n        /* \"#utility.yul\":10856:10862   */\n      dup4\n        /* \"#utility.yul\":10849:10913   */\n      sstore\n        /* \"#utility.yul\":10764:10927   */\n      pop\n        /* \"#utility.yul\":10741:10927   */\n    tag_203:\n        /* \"#utility.yul\":10973:10974   */\n      0x01\n        /* \"#utility.yul\":10969:10970   */\n      0x02\n        /* \"#utility.yul\":10961:10967   */\n      dup9\n        /* \"#utility.yul\":10957:10971   */\n      mul\n        /* \"#utility.yul\":10953:10975   */\n      add\n        /* \"#utility.yul\":10947:10951   */\n      dup9\n        /* \"#utility.yul\":10940:10976   */\n      sstore\n        /* \"#utility.yul\":10361:10986   */\n      pop\n      pop\n      pop\n        /* \"#utility.yul\":10324:11232   */\n    tag_195:\n      pop\n        /* \"#utility.yul\":9934:11238   */\n      pop\n      pop\n      pop\n        /* \"#utility.yul\":9835:11238   */\n      pop\n      pop\n      pop\n      jump\t// out\n\n    auxdata: 0xa2646970667358221220e6e8910f377413863a3898d5fc6231c2f4836bd58fbb2cb74c342448d2d05fa564736f6c634300081a0033\n}\n",
				"bytecode": {
					"linkReferences": {},
					"object": "6080604052348015600e575f80fd5b5061087e8061001c5f395ff3fe608060405234801561000f575f80fd5b506004361061004a575f3560e01c8063243337e81461004e5780636fae3d761461006c5780637ed6c9261461009c5780637fd10102146100b8575b5f80fd5b6100566100d4565b60405161006391906102e5565b60405180910390f35b61008660048036038101906100819190610367565b6101ec565b60405161009391906103ac565b60405180910390f35b6100b660048036038101906100b19190610426565b610208565b005b6100d260048036038101906100cd919061049b565b61021e565b005b60605f803373ffffffffffffffffffffffffffffffffffffffff1673ffffffffffffffffffffffffffffffffffffffff1681526020019081526020015f205f9054906101000a900460ff1661015e576040517f08c379a000000000000000000000000000000000000000000000000000000000815260040161015590610523565b60405180910390fd5b6001805461016b9061056e565b80601f01602080910402602001604051908101604052809291908181526020018280546101979061056e565b80156101e25780601f106101b9576101008083540402835291602001916101e2565b820191905f5260205f20905b8154815290600101906020018083116101c557829003601f168201915b5050505050905090565b5f602052805f5260405f205f915054906101000a900460ff1681565b81816001918261021992919061077b565b505050565b805f808473ffffffffffffffffffffffffffffffffffffffff1673ffffffffffffffffffffffffffffffffffffffff1681526020019081526020015f205f6101000a81548160ff0219169083151502179055505050565b5f81519050919050565b5f82825260208201905092915050565b8281835e5f83830152505050565b5f601f19601f8301169050919050565b5f6102b782610275565b6102c1818561027f565b93506102d181856020860161028f565b6102da8161029d565b840191505092915050565b5f6020820190508181035f8301526102fd81846102ad565b905092915050565b5f80fd5b5f80fd5b5f73ffffffffffffffffffffffffffffffffffffffff82169050919050565b5f6103368261030d565b9050919050565b6103468161032c565b8114610350575f80fd5b50565b5f813590506103618161033d565b92915050565b5f6020828403121561037c5761037b610305565b5b5f61038984828501610353565b91505092915050565b5f8115159050919050565b6103a681610392565b82525050565b5f6020820190506103bf5f83018461039d565b92915050565b5f80fd5b5f80fd5b5f80fd5b5f8083601f8401126103e6576103e56103c5565b5b8235905067ffffffffffffffff811115610403576104026103c9565b5b60208301915083600182028301111561041f5761041e6103cd565b5b9250929050565b5f806020838503121561043c5761043b610305565b5b5f83013567ffffffffffffffff81111561045957610458610309565b5b610465858286016103d1565b92509250509250929050565b61047a81610392565b8114610484575f80fd5b50565b5f8135905061049581610471565b92915050565b5f80604083850312156104b1576104b0610305565b5b5f6104be85828601610353565b92505060206104cf85828601610487565b9150509250929050565b7f4e6f2061636365737300000000000000000000000000000000000000000000005f82015250565b5f61050d60098361027f565b9150610518826104d9565b602082019050919050565b5f6020820190508181035f83015261053a81610501565b9050919050565b7f4e487b71000000000000000000000000000000000000000000000000000000005f52602260045260245ffd5b5f600282049050600182168061058557607f821691505b60208210810361059857610597610541565b5b50919050565b5f82905092915050565b7f4e487b71000000000000000000000000000000000000000000000000000000005f52604160045260245ffd5b5f819050815f5260205f209050919050565b5f6020601f8301049050919050565b5f82821b905092915050565b5f600883026106317fffffffffffffffffffffffffffffffffffffffffffffffffffffffffffffffff826105f6565b61063b86836105f6565b95508019841693508086168417925050509392505050565b5f819050919050565b5f819050919050565b5f61067f61067a61067584610653565b61065c565b610653565b9050919050565b5f819050919050565b61069883610665565b6106ac6106a482610686565b848454610602565b825550505050565b5f90565b6106c06106b4565b6106cb81848461068f565b505050565b5b818110156106ee576106e35f826106b8565b6001810190506106d1565b5050565b601f82111561073357610704816105d5565b61070d846105e7565b8101602085101561071c578190505b610730610728856105e7565b8301826106d0565b50505b505050565b5f82821c905092915050565b5f6107535f1984600802610738565b1980831691505092915050565b5f61076b8383610744565b9150826002028217905092915050565b610785838361059e565b67ffffffffffffffff81111561079e5761079d6105a8565b5b6107a8825461056e565b6107b38282856106f2565b5f601f8311600181146107e0575f84156107ce578287013590505b6107d88582610760565b86555061083f565b601f1984166107ee866105d5565b5f5b82811015610815578489013582556001820191506020850194506020810190506107f0565b86831015610832578489013561082e601f891682610744565b8355505b6001600288020188555050505b5050505050505056fea2646970667358221220e6e8910f377413863a3898d5fc6231c2f4836bd58fbb2cb74c342448d2d05fa564736f6c634300081a0033",
					"opcodes": "PUSH1 0x80 PUSH1 0x40 MSTORE CALLVALUE DUP1 ISZERO PUSH1 0xE JUMPI PUSH0 DUP1 REVERT JUMPDEST POP PUSH2 0x87E DUP1 PUSH2 0x1C PUSH0 CODECOPY PUSH0 RETURN INVALID PUSH1 0x80 PUSH1 0x40 MSTORE CALLVALUE DUP1 ISZERO PUSH2 0xF JUMPI PUSH0 DUP1 REVERT JUMPDEST POP PUSH1 0x4 CALLDATASIZE LT PUSH2 0x4A JUMPI PUSH0 CALLDATALOAD PUSH1 0xE0 SHR DUP1 PUSH4 0x243337E8 EQ PUSH2 0x4E JUMPI DUP1 PUSH4 0x6FAE3D76 EQ PUSH2 0x6C JUMPI DUP1 PUSH4 0x7ED6C926 EQ PUSH2 0x9C JUMPI DUP1 PUSH4 0x7FD10102 EQ PUSH2 0xB8 JUMPI JUMPDEST PUSH0 DUP1 REVERT JUMPDEST PUSH2 0x56 PUSH2 0xD4 JUMP JUMPDEST PUSH1 0x40 MLOAD PUSH2 0x63 SWAP2 SWAP1 PUSH2 0x2E5 JUMP JUMPDEST PUSH1 0x40 MLOAD DUP1 SWAP2 SUB SWAP1 RETURN JUMPDEST PUSH2 0x86 PUSH1 0x4 DUP1 CALLDATASIZE SUB DUP2 ADD SWAP1 PUSH2 0x81 SWAP2 SWAP1 PUSH2 0x367 JUMP JUMPDEST PUSH2 0x1EC JUMP JUMPDEST PUSH1 0x40 MLOAD PUSH2 0x93 SWAP2 SWAP1 PUSH2 0x3AC JUMP JUMPDEST PUSH1 0x40 MLOAD DUP1 SWAP2 SUB SWAP1 RETURN JUMPDEST PUSH2 0xB6 PUSH1 0x4 DUP1 CALLDATASIZE SUB DUP2 ADD SWAP1 PUSH2 0xB1 SWAP2 SWAP1 PUSH2 0x426 JUMP JUMPDEST PUSH2 0x208 JUMP JUMPDEST STOP JUMPDEST PUSH2 0xD2 PUSH1 0x4 DUP1 CALLDATASIZE SUB DUP2 ADD SWAP1 PUSH2 0xCD SWAP2 SWAP1 PUSH2 0x49B JUMP JUMPDEST PUSH2 0x21E JUMP JUMPDEST STOP JUMPDEST PUSH1 0x60 PUSH0 DUP1 CALLER PUSH20 0xFFFFFFFFFFFFFFFFFFFFFFFFFFFFFFFFFFFFFFFF AND PUSH20 0xFFFFFFFFFFFFFFFFFFFFFFFFFFFFFFFFFFFFFFFF AND DUP2 MSTORE PUSH1 0x20 ADD SWAP1 DUP2 MSTORE PUSH1 0x20 ADD PUSH0 KECCAK256 PUSH0 SWAP1 SLOAD SWAP1 PUSH2 0x100 EXP SWAP1 DIV PUSH1 0xFF AND PUSH2 0x15E JUMPI PUSH1 0x40 MLOAD PUSH32 0x8C379A000000000000000000000000000000000000000000000000000000000 DUP2 MSTORE PUSH1 0x4 ADD PUSH2 0x155 SWAP1 PUSH2 0x523 JUMP JUMPDEST PUSH1 0x40 MLOAD DUP1 SWAP2 SUB SWAP1 REVERT JUMPDEST PUSH1 0x1 DUP1 SLOAD PUSH2 0x16B SWAP1 PUSH2 0x56E JUMP JUMPDEST DUP1 PUSH1 0x1F ADD PUSH1 0x20 DUP1 SWAP2 DIV MUL PUSH1 0x20 ADD PUSH1 0x40 MLOAD SWAP1 DUP2 ADD PUSH1 0x40 MSTORE DUP1 SWAP3 SWAP2 SWAP1 DUP2 DUP2 MSTORE PUSH1 0x20 ADD DUP3 DUP1 SLOAD PUSH2 0x197 SWAP1 PUSH2 0x56E JUMP JUMPDEST DUP1 ISZERO PUSH2 0x1E2 JUMPI DUP1 PUSH1 0x1F LT PUSH2 0x1B9 JUMPI PUSH2 0x100 DUP1 DUP4 SLOAD DIV MUL DUP4 MSTORE SWAP2 PUSH1 0x20 ADD SWAP2 PUSH2 0x1E2 JUMP JUMPDEST DUP3 ADD SWAP2 SWAP1 PUSH0 MSTORE PUSH1 0x20 PUSH0 KECCAK256 SWAP1 JUMPDEST DUP2 SLOAD DUP2 MSTORE SWAP1 PUSH1 0x1 ADD SWAP1 PUSH1 0x20 ADD DUP1 DUP4 GT PUSH2 0x1C5 JUMPI DUP3 SWAP1 SUB PUSH1 0x1F AND DUP3 ADD SWAP2 JUMPDEST POP POP POP POP POP SWAP1 POP SWAP1 JUMP JUMPDEST PUSH0 PUSH1 0x20 MSTORE DUP1 PUSH0 MSTORE PUSH1 0x40 PUSH0 KECCAK256 PUSH0 SWAP2 POP SLOAD SWAP1 PUSH2 0x100 EXP SWAP1 DIV PUSH1 0xFF AND DUP2 JUMP JUMPDEST DUP2 DUP2 PUSH1 0x1 SWAP2 DUP3 PUSH2 0x219 SWAP3 SWAP2 SWAP1 PUSH2 0x77B JUMP JUMPDEST POP POP POP JUMP JUMPDEST DUP1 PUSH0 DUP1 DUP5 PUSH20 0xFFFFFFFFFFFFFFFFFFFFFFFFFFFFFFFFFFFFFFFF AND PUSH20 0xFFFFFFFFFFFFFFFFFFFFFFFFFFFFFFFFFFFFFFFF AND DUP2 MSTORE PUSH1 0x20 ADD SWAP1 DUP2 MSTORE PUSH1 0x20 ADD PUSH0 KECCAK256 PUSH0 PUSH2 0x100 EXP DUP2 SLOAD DUP2 PUSH1 0xFF MUL NOT AND SWAP1 DUP4 ISZERO ISZERO MUL OR SWAP1 SSTORE POP POP POP JUMP JUMPDEST PUSH0 DUP2 MLOAD SWAP1 POP SWAP2 SWAP1 POP JUMP JUMPDEST PUSH0 DUP3 DUP3 MSTORE PUSH1 0x20 DUP3 ADD SWAP1 POP SWAP3 SWAP2 POP POP JUMP JUMPDEST DUP3 DUP2 DUP4 MCOPY PUSH0 DUP4 DUP4 ADD MSTORE POP POP POP JUMP JUMPDEST PUSH0 PUSH1 0x1F NOT PUSH1 0x1F DUP4 ADD AND SWAP1 POP SWAP2 SWAP1 POP JUMP JUMPDEST PUSH0 PUSH2 0x2B7 DUP3 PUSH2 0x275 JUMP JUMPDEST PUSH2 0x2C1 DUP2 DUP6 PUSH2 0x27F JUMP JUMPDEST SWAP4 POP PUSH2 0x2D1 DUP2 DUP6 PUSH1 0x20 DUP7 ADD PUSH2 0x28F JUMP JUMPDEST PUSH2 0x2DA DUP2 PUSH2 0x29D JUMP JUMPDEST DUP5 ADD SWAP2 POP POP SWAP3 SWAP2 POP POP JUMP JUMPDEST PUSH0 PUSH1 0x20 DUP3 ADD SWAP1 POP DUP2 DUP2 SUB PUSH0 DUP4 ADD MSTORE PUSH2 0x2FD DUP2 DUP5 PUSH2 0x2AD JUMP JUMPDEST SWAP1 POP SWAP3 SWAP2 POP POP JUMP JUMPDEST PUSH0 DUP1 REVERT JUMPDEST PUSH0 DUP1 REVERT JUMPDEST PUSH0 PUSH20 0xFFFFFFFFFFFFFFFFFFFFFFFFFFFFFFFFFFFFFFFF DUP3 AND SWAP1 POP SWAP2 SWAP1 POP JUMP JUMPDEST PUSH0 PUSH2 0x336 DUP3 PUSH2 0x30D JUMP JUMPDEST SWAP1 POP SWAP2 SWAP1 POP JUMP JUMPDEST PUSH2 0x346 DUP2 PUSH2 0x32C JUMP JUMPDEST DUP2 EQ PUSH2 0x350 JUMPI PUSH0 DUP1 REVERT JUMPDEST POP JUMP JUMPDEST PUSH0 DUP2 CALLDATALOAD SWAP1 POP PUSH2 0x361 DUP2 PUSH2 0x33D JUMP JUMPDEST SWAP3 SWAP2 POP POP JUMP JUMPDEST PUSH0 PUSH1 0x20 DUP3 DUP5 SUB SLT ISZERO PUSH2 0x37C JUMPI PUSH2 0x37B PUSH2 0x305 JUMP JUMPDEST JUMPDEST PUSH0 PUSH2 0x389 DUP5 DUP3 DUP6 ADD PUSH2 0x353 JUMP JUMPDEST SWAP2 POP POP SWAP3 SWAP2 POP POP JUMP JUMPDEST PUSH0 DUP2 ISZERO ISZERO SWAP1 POP SWAP2 SWAP1 POP JUMP JUMPDEST PUSH2 0x3A6 DUP2 PUSH2 0x392 JUMP JUMPDEST DUP3 MSTORE POP POP JUMP JUMPDEST PUSH0 PUSH1 0x20 DUP3 ADD SWAP1 POP PUSH2 0x3BF PUSH0 DUP4 ADD DUP5 PUSH2 0x39D JUMP JUMPDEST SWAP3 SWAP2 POP POP JUMP JUMPDEST PUSH0 DUP1 REVERT JUMPDEST PUSH0 DUP1 REVERT JUMPDEST PUSH0 DUP1 REVERT JUMPDEST PUSH0 DUP1 DUP4 PUSH1 0x1F DUP5 ADD SLT PUSH2 0x3E6 JUMPI PUSH2 0x3E5 PUSH2 0x3C5 JUMP JUMPDEST JUMPDEST DUP3 CALLDATALOAD SWAP1 POP PUSH8 0xFFFFFFFFFFFFFFFF DUP2 GT ISZERO PUSH2 0x403 JUMPI PUSH2 0x402 PUSH2 0x3C9 JUMP JUMPDEST JUMPDEST PUSH1 0x20 DUP4 ADD SWAP2 POP DUP4 PUSH1 0x1 DUP3 MUL DUP4 ADD GT ISZERO PUSH2 0x41F JUMPI PUSH2 0x41E PUSH2 0x3CD JUMP JUMPDEST JUMPDEST SWAP3 POP SWAP3 SWAP1 POP JUMP JUMPDEST PUSH0 DUP1 PUSH1 0x20 DUP4 DUP6 SUB SLT ISZERO PUSH2 0x43C JUMPI PUSH2 0x43B PUSH2 0x305 JUMP JUMPDEST JUMPDEST PUSH0 DUP4 ADD CALLDATALOAD PUSH8 0xFFFFFFFFFFFFFFFF DUP2 GT ISZERO PUSH2 0x459 JUMPI PUSH2 0x458 PUSH2 0x309 JUMP JUMPDEST JUMPDEST PUSH2 0x465 DUP6 DUP3 DUP7 ADD PUSH2 0x3D1 JUMP JUMPDEST SWAP3 POP SWAP3 POP POP SWAP3 POP SWAP3 SWAP1 POP JUMP JUMPDEST PUSH2 0x47A DUP2 PUSH2 0x392 JUMP JUMPDEST DUP2 EQ PUSH2 0x484 JUMPI PUSH0 DUP1 REVERT JUMPDEST POP JUMP JUMPDEST PUSH0 DUP2 CALLDATALOAD SWAP1 POP PUSH2 0x495 DUP2 PUSH2 0x471 JUMP JUMPDEST SWAP3 SWAP2 POP POP JUMP JUMPDEST PUSH0 DUP1 PUSH1 0x40 DUP4 DUP6 SUB SLT ISZERO PUSH2 0x4B1 JUMPI PUSH2 0x4B0 PUSH2 0x305 JUMP JUMPDEST JUMPDEST PUSH0 PUSH2 0x4BE DUP6 DUP3 DUP7 ADD PUSH2 0x353 JUMP JUMPDEST SWAP3 POP POP PUSH1 0x20 PUSH2 0x4CF DUP6 DUP3 DUP7 ADD PUSH2 0x487 JUMP JUMPDEST SWAP2 POP POP SWAP3 POP SWAP3 SWAP1 POP JUMP JUMPDEST PUSH32 0x4E6F206163636573730000000000000000000000000000000000000000000000 PUSH0 DUP3 ADD MSTORE POP JUMP JUMPDEST PUSH0 PUSH2 0x50D PUSH1 0x9 DUP4 PUSH2 0x27F JUMP JUMPDEST SWAP2 POP PUSH2 0x518 DUP3 PUSH2 0x4D9 JUMP JUMPDEST PUSH1 0x20 DUP3 ADD SWAP1 POP SWAP2 SWAP1 POP JUMP JUMPDEST PUSH0 PUSH1 0x20 DUP3 ADD SWAP1 POP DUP2 DUP2 SUB PUSH0 DUP4 ADD MSTORE PUSH2 0x53A DUP2 PUSH2 0x501 JUMP JUMPDEST SWAP1 POP SWAP2 SWAP1 POP JUMP JUMPDEST PUSH32 0x4E487B7100000000000000000000000000000000000000000000000000000000 PUSH0 MSTORE PUSH1 0x22 PUSH1 0x4 MSTORE PUSH1 0x24 PUSH0 REVERT JUMPDEST PUSH0 PUSH1 0x2 DUP3 DIV SWAP1 POP PUSH1 0x1 DUP3 AND DUP1 PUSH2 0x585 JUMPI PUSH1 0x7F DUP3 AND SWAP2 POP JUMPDEST PUSH1 0x20 DUP3 LT DUP2 SUB PUSH2 0x598 JUMPI PUSH2 0x597 PUSH2 0x541 JUMP JUMPDEST JUMPDEST POP SWAP2 SWAP1 POP JUMP JUMPDEST PUSH0 DUP3 SWAP1 POP SWAP3 SWAP2 POP POP JUMP JUMPDEST PUSH32 0x4E487B7100000000000000000000000000000000000000000000000000000000 PUSH0 MSTORE PUSH1 0x41 PUSH1 0x4 MSTORE PUSH1 0x24 PUSH0 REVERT JUMPDEST PUSH0 DUP2 SWAP1 POP DUP2 PUSH0 MSTORE PUSH1 0x20 PUSH0 KECCAK256 SWAP1 POP SWAP2 SWAP1 POP JUMP JUMPDEST PUSH0 PUSH1 0x20 PUSH1 0x1F DUP4 ADD DIV SWAP1 POP SWAP2 SWAP1 POP JUMP JUMPDEST PUSH0 DUP3 DUP3 SHL SWAP1 POP SWAP3 SWAP2 POP POP JUMP JUMPDEST PUSH0 PUSH1 0x8 DUP4 MUL PUSH2 0x631 PUSH32 0xFFFFFFFFFFFFFFFFFFFFFFFFFFFFFFFFFFFFFFFFFFFFFFFFFFFFFFFFFFFFFFFF DUP3 PUSH2 0x5F6 JUMP JUMPDEST PUSH2 0x63B DUP7 DUP4 PUSH2 0x5F6 JUMP JUMPDEST SWAP6 POP DUP1 NOT DUP5 AND SWAP4 POP DUP1 DUP7 AND DUP5 OR SWAP3 POP POP POP SWAP4 SWAP3 POP POP POP JUMP JUMPDEST PUSH0 DUP2 SWAP1 POP SWAP2 SWAP1 POP JUMP JUMPDEST PUSH0 DUP2 SWAP1 POP SWAP2 SWAP1 POP JUMP JUMPDEST PUSH0 PUSH2 0x67F PUSH2 0x67A PUSH2 0x675 DUP5 PUSH2 0x653 JUMP JUMPDEST PUSH2 0x65C JUMP JUMPDEST PUSH2 0x653 JUMP JUMPDEST SWAP1 POP SWAP2 SWAP1 POP JUMP JUMPDEST PUSH0 DUP2 SWAP1 POP SWAP2 SWAP1 POP JUMP JUMPDEST PUSH2 0x698 DUP4 PUSH2 0x665 JUMP JUMPDEST PUSH2 0x6AC PUSH2 0x6A4 DUP3 PUSH2 0x686 JUMP JUMPDEST DUP5 DUP5 SLOAD PUSH2 0x602 JUMP JUMPDEST DUP3 SSTORE POP POP POP POP JUMP JUMPDEST PUSH0 SWAP1 JUMP JUMPDEST PUSH2 0x6C0 PUSH2 0x6B4 JUMP JUMPDEST PUSH2 0x6CB DUP2 DUP5 DUP5 PUSH2 0x68F JUMP JUMPDEST POP POP POP JUMP JUMPDEST JUMPDEST DUP2 DUP2 LT ISZERO PUSH2 0x6EE JUMPI PUSH2 0x6E3 PUSH0 DUP3 PUSH2 0x6B8 JUMP JUMPDEST PUSH1 0x1 DUP2 ADD SWAP1 POP PUSH2 0x6D1 JUMP JUMPDEST POP POP JUMP JUMPDEST PUSH1 0x1F DUP3 GT ISZERO PUSH2 0x733 JUMPI PUSH2 0x704 DUP2 PUSH2 0x5D5 JUMP JUMPDEST PUSH2 0x70D DUP5 PUSH2 0x5E7 JUMP JUMPDEST DUP2 ADD PUSH1 0x20 DUP6 LT ISZERO PUSH2 0x71C JUMPI DUP2 SWAP1 POP JUMPDEST PUSH2 0x730 PUSH2 0x728 DUP6 PUSH2 0x5E7 JUMP JUMPDEST DUP4 ADD DUP3 PUSH2 0x6D0 JUMP JUMPDEST POP POP JUMPDEST POP POP POP JUMP JUMPDEST PUSH0 DUP3 DUP3 SHR SWAP1 POP SWAP3 SWAP2 POP POP JUMP JUMPDEST PUSH0 PUSH2 0x753 PUSH0 NOT DUP5 PUSH1 0x8 MUL PUSH2 0x738 JUMP JUMPDEST NOT DUP1 DUP4 AND SWAP2 POP POP SWAP3 SWAP2 POP POP JUMP JUMPDEST PUSH0 PUSH2 0x76B DUP4 DUP4 PUSH2 0x744 JUMP JUMPDEST SWAP2 POP DUP3 PUSH1 0x2 MUL DUP3 OR SWAP1 POP SWAP3 SWAP2 POP POP JUMP JUMPDEST PUSH2 0x785 DUP4 DUP4 PUSH2 0x59E JUMP JUMPDEST PUSH8 0xFFFFFFFFFFFFFFFF DUP2 GT ISZERO PUSH2 0x79E JUMPI PUSH2 0x79D PUSH2 0x5A8 JUMP JUMPDEST JUMPDEST PUSH2 0x7A8 DUP3 SLOAD PUSH2 0x56E JUMP JUMPDEST PUSH2 0x7B3 DUP3 DUP3 DUP6 PUSH2 0x6F2 JUMP JUMPDEST PUSH0 PUSH1 0x1F DUP4 GT PUSH1 0x1 DUP2 EQ PUSH2 0x7E0 JUMPI PUSH0 DUP5 ISZERO PUSH2 0x7CE JUMPI DUP3 DUP8 ADD CALLDATALOAD SWAP1 POP JUMPDEST PUSH2 0x7D8 DUP6 DUP3 PUSH2 0x760 JUMP JUMPDEST DUP7 SSTORE POP PUSH2 0x83F JUMP JUMPDEST PUSH1 0x1F NOT DUP5 AND PUSH2 0x7EE DUP7 PUSH2 0x5D5 JUMP JUMPDEST PUSH0 JUMPDEST DUP3 DUP2 LT ISZERO PUSH2 0x815 JUMPI DUP5 DUP10 ADD CALLDATALOAD DUP3 SSTORE PUSH1 0x1 DUP3 ADD SWAP2 POP PUSH1 0x20 DUP6 ADD SWAP5 POP PUSH1 0x20 DUP2 ADD SWAP1 POP PUSH2 0x7F0 JUMP JUMPDEST DUP7 DUP4 LT ISZERO PUSH2 0x832 JUMPI DUP5 DUP10 ADD CALLDATALOAD PUSH2 0x82E PUSH1 0x1F DUP10 AND DUP3 PUSH2 0x744 JUMP JUMPDEST DUP4 SSTORE POP JUMPDEST PUSH1 0x1 PUSH1 0x2 DUP9 MUL ADD DUP9 SSTORE POP POP POP JUMPDEST POP POP POP POP POP POP POP JUMP INVALID LOG2 PUSH5 0x6970667358 0x22 SLT KECCAK256 0xE6 0xE8 SWAP2 0xF CALLDATACOPY PUSH21 0x13863A3898D5FC6231C2F4836BD58FBB2CB74C3424 BASEFEE 0xD2 0xD0 PUSH0 0xA5 PUSH5 0x736F6C6343 STOP ADDMOD BYTE STOP CALLER "
				},
				"gasEstimates": {
					"creation": {
						"codeDepositCost": "434800",
						"executionCost": "466",
						"totalCost": "435266"
					},
					"external": {
						"access(address)": "2832",
						"grant(address,bool)": "25024",
						"setSecret(string)": "infinite",
						"viewSecret()": "infinite"
					}
				},
				"methodIdentifiers": {
					"access(address)": "6fae3d76",
					"grant(address,bool)": "7fd10102",
					"setSecret(string)": "7ed6c926",
					"viewSecret()": "243337e8"
				}
			},
			"storageLayout": {
				"storage": [
					{
						"astId": 190,
						"contract": "P/Polyinstantiation/Polyinstantiation.sol:PermitView",
						"label": "access",
						"offset": 0,
						"slot": "0",
						"type": "t_mapping(t_address,t_bool)"
					},
					{
						"astId": 192,
						"contract": "P/Polyinstantiation/Polyinstantiation.sol:PermitView",
						"label": "secretData",
						"offset": 0,
						"slot": "1",
						"type": "t_string_storage"
					}
				],
				"types": {
					"t_address": {
						"encoding": "inplace",
						"label": "address",
						"numberOfBytes": "20"
					},
					"t_bool": {
						"encoding": "inplace",
						"label": "bool",
						"numberOfBytes": "1"
					},
					"t_mapping(t_address,t_bool)": {
						"encoding": "mapping",
						"key": "t_address",
						"label": "mapping(address => bool)",
						"numberOfBytes": "32",
						"value": "t_bool"
					},
					"t_string_storage": {
						"encoding": "bytes",
						"label": "string",
						"numberOfBytes": "32"
					}
				}
			},
			"userdoc": {
				"kind": "user",
				"methods": {},
				"version": 1
			}
		}
	}
}