{
	"M/Multi-Cast/MulticastExploitRouter.sol": {
		"MulticastExploitRouter": {
			"abi": [
				{
					"inputs": [
						{
							"internalType": "address",
							"name": "_attacker",
							"type": "address"
						}
					],
					"stateMutability": "nonpayable",
					"type": "constructor"
				},
				{
					"inputs": [],
					"name": "attacker",
					"outputs": [
						{
							"internalType": "address",
							"name": "",
							"type": "address"
						}
					],
					"stateMutability": "view",
					"type": "function"
				},
				{
					"inputs": [
						{
							"internalType": "address[]",
							"name": "targets",
							"type": "address[]"
						},
						{
							"internalType": "bytes",
							"name": "payload",
							"type": "bytes"
						}
					],
					"name": "multicastCall",
					"outputs": [],
					"stateMutability": "nonpayable",
					"type": "function"
				}
			],
			"devdoc": {
				"kind": "dev",
				"methods": {},
				"version": 1
			},
			"evm": {
				"assembly": "    /* \"M/Multi-Cast/MulticastExploitRouter.sol\":58:524  contract MulticastExploitRouter {... */\n  mstore(0x40, 0x80)\n    /* \"M/Multi-Cast/MulticastExploitRouter.sol\":126:194  constructor(address _attacker) {... */\n  callvalue\n  dup1\n  iszero\n  tag_1\n  jumpi\n  0x00\n  dup1\n  revert\ntag_1:\n  pop\n  mload(0x40)\n  sub(codesize, bytecodeSize)\n  dup1\n  bytecodeSize\n  dup4\n  codecopy\n  dup2\n  dup2\n  add\n  0x40\n  mstore\n  dup2\n  add\n  swap1\n  tag_2\n  swap2\n  swap1\n  tag_3\n  jump\t// in\ntag_2:\n    /* \"M/Multi-Cast/MulticastExploitRouter.sol\":178:187  _attacker */\n  dup1\n    /* \"M/Multi-Cast/MulticastExploitRouter.sol\":167:175  attacker */\n  0x00\n  dup1\n    /* \"M/Multi-Cast/MulticastExploitRouter.sol\":167:187  attacker = _attacker */\n  0x0100\n  exp\n  dup2\n  sload\n  dup2\n  0xffffffffffffffffffffffffffffffffffffffff\n  mul\n  not\n  and\n  swap1\n  dup4\n  0xffffffffffffffffffffffffffffffffffffffff\n  and\n  mul\n  or\n  swap1\n  sstore\n  pop\n    /* \"M/Multi-Cast/MulticastExploitRouter.sol\":126:194  constructor(address _attacker) {... */\n  pop\n    /* \"M/Multi-Cast/MulticastExploitRouter.sol\":58:524  contract MulticastExploitRouter {... */\n  jump(tag_6)\n    /* \"#utility.yul\":88:205   */\ntag_8:\n    /* \"#utility.yul\":197:198   */\n  0x00\n    /* \"#utility.yul\":194:195   */\n  dup1\n    /* \"#utility.yul\":187:199   */\n  revert\n    /* \"#utility.yul\":334:460   */\ntag_10:\n    /* \"#utility.yul\":371:378   */\n  0x00\n    /* \"#utility.yul\":411:453   */\n  0xffffffffffffffffffffffffffffffffffffffff\n    /* \"#utility.yul\":404:409   */\n  dup3\n    /* \"#utility.yul\":400:454   */\n  and\n    /* \"#utility.yul\":389:454   */\n  swap1\n  pop\n    /* \"#utility.yul\":334:460   */\n  swap2\n  swap1\n  pop\n  jump\t// out\n    /* \"#utility.yul\":466:562   */\ntag_11:\n    /* \"#utility.yul\":503:510   */\n  0x00\n    /* \"#utility.yul\":532:556   */\n  tag_20\n    /* \"#utility.yul\":550:555   */\n  dup3\n    /* \"#utility.yul\":532:556   */\n  tag_10\n  jump\t// in\ntag_20:\n    /* \"#utility.yul\":521:556   */\n  swap1\n  pop\n    /* \"#utility.yul\":466:562   */\n  swap2\n  swap1\n  pop\n  jump\t// out\n    /* \"#utility.yul\":568:690   */\ntag_12:\n    /* \"#utility.yul\":641:665   */\n  tag_22\n    /* \"#utility.yul\":659:664   */\n  dup2\n    /* \"#utility.yul\":641:665   */\n  tag_11\n  jump\t// in\ntag_22:\n    /* \"#utility.yul\":634:639   */\n  dup2\n    /* \"#utility.yul\":631:666   */\n  eq\n    /* \"#utility.yul\":621:684   */\n  tag_23\n  jumpi\n    /* \"#utility.yul\":680:681   */\n  0x00\n    /* \"#utility.yul\":677:678   */\n  dup1\n    /* \"#utility.yul\":670:682   */\n  revert\n    /* \"#utility.yul\":621:684   */\ntag_23:\n    /* \"#utility.yul\":568:690   */\n  pop\n  jump\t// out\n    /* \"#utility.yul\":696:839   */\ntag_13:\n    /* \"#utility.yul\":753:758   */\n  0x00\n    /* \"#utility.yul\":784:790   */\n  dup2\n    /* \"#utility.yul\":778:791   */\n  mload\n    /* \"#utility.yul\":769:791   */\n  swap1\n  pop\n    /* \"#utility.yul\":800:833   */\n  tag_25\n    /* \"#utility.yul\":827:832   */\n  dup2\n    /* \"#utility.yul\":800:833   */\n  tag_12\n  jump\t// in\ntag_25:\n    /* \"#utility.yul\":696:839   */\n  swap3\n  swap2\n  pop\n  pop\n  jump\t// out\n    /* \"#utility.yul\":845:1196   */\ntag_3:\n    /* \"#utility.yul\":915:921   */\n  0x00\n    /* \"#utility.yul\":964:966   */\n  0x20\n    /* \"#utility.yul\":952:961   */\n  dup3\n    /* \"#utility.yul\":943:950   */\n  dup5\n    /* \"#utility.yul\":939:962   */\n  sub\n    /* \"#utility.yul\":935:967   */\n  slt\n    /* \"#utility.yul\":932:1051   */\n  iszero\n  tag_27\n  jumpi\n    /* \"#utility.yul\":970:1049   */\n  tag_28\n  tag_8\n  jump\t// in\ntag_28:\n    /* \"#utility.yul\":932:1051   */\ntag_27:\n    /* \"#utility.yul\":1090:1091   */\n  0x00\n    /* \"#utility.yul\":1115:1179   */\n  tag_29\n    /* \"#utility.yul\":1171:1178   */\n  dup5\n    /* \"#utility.yul\":1162:1168   */\n  dup3\n    /* \"#utility.yul\":1151:1160   */\n  dup6\n    /* \"#utility.yul\":1147:1169   */\n  add\n    /* \"#utility.yul\":1115:1179   */\n  tag_13\n  jump\t// in\ntag_29:\n    /* \"#utility.yul\":1105:1179   */\n  swap2\n  pop\n    /* \"#utility.yul\":1061:1189   */\n  pop\n    /* \"#utility.yul\":845:1196   */\n  swap3\n  swap2\n  pop\n  pop\n  jump\t// out\n    /* \"M/Multi-Cast/MulticastExploitRouter.sol\":58:524  contract MulticastExploitRouter {... */\ntag_6:\n  dataSize(sub_0)\n  dup1\n  dataOffset(sub_0)\n  0x00\n  codecopy\n  0x00\n  return\nstop\n\nsub_0: assembly {\n        /* \"M/Multi-Cast/MulticastExploitRouter.sol\":58:524  contract MulticastExploitRouter {... */\n      mstore(0x40, 0x80)\n      callvalue\n      dup1\n      iszero\n      tag_1\n      jumpi\n      0x00\n      dup1\n      revert\n    tag_1:\n      pop\n      jumpi(tag_2, lt(calldatasize, 0x04))\n      shr(0xe0, calldataload(0x00))\n      dup1\n      0x48eb76ee\n      eq\n      tag_3\n      jumpi\n      dup1\n      0x8c30b953\n      eq\n      tag_4\n      jumpi\n    tag_2:\n      0x00\n      dup1\n      revert\n        /* \"M/Multi-Cast/MulticastExploitRouter.sol\":96:119  address public attacker */\n    tag_3:\n      tag_5\n      tag_6\n      jump\t// in\n    tag_5:\n      mload(0x40)\n      tag_7\n      swap2\n      swap1\n      tag_8\n      jump\t// in\n    tag_7:\n      mload(0x40)\n      dup1\n      swap2\n      sub\n      swap1\n      return\n        /* \"M/Multi-Cast/MulticastExploitRouter.sol\":200:522  function multicastCall(address[] calldata targets, bytes calldata payload) external {... */\n    tag_4:\n      tag_9\n      0x04\n      dup1\n      calldatasize\n      sub\n      dup2\n      add\n      swap1\n      tag_10\n      swap2\n      swap1\n      tag_11\n      jump\t// in\n    tag_10:\n      tag_12\n      jump\t// in\n    tag_9:\n      stop\n        /* \"M/Multi-Cast/MulticastExploitRouter.sol\":96:119  address public attacker */\n    tag_6:\n      0x00\n      dup1\n      sload\n      swap1\n      0x0100\n      exp\n      swap1\n      div\n      0xffffffffffffffffffffffffffffffffffffffff\n      and\n      dup2\n      jump\t// out\n        /* \"M/Multi-Cast/MulticastExploitRouter.sol\":200:522  function multicastCall(address[] calldata targets, bytes calldata payload) external {... */\n    tag_12:\n        /* \"M/Multi-Cast/MulticastExploitRouter.sol\":316:324  attacker */\n      0x00\n      dup1\n      sload\n      swap1\n      0x0100\n      exp\n      swap1\n      div\n      0xffffffffffffffffffffffffffffffffffffffff\n      and\n        /* \"M/Multi-Cast/MulticastExploitRouter.sol\":302:324  msg.sender == attacker */\n      0xffffffffffffffffffffffffffffffffffffffff\n      and\n        /* \"M/Multi-Cast/MulticastExploitRouter.sol\":302:312  msg.sender */\n      caller\n        /* \"M/Multi-Cast/MulticastExploitRouter.sol\":302:324  msg.sender == attacker */\n      0xffffffffffffffffffffffffffffffffffffffff\n      and\n      eq\n        /* \"M/Multi-Cast/MulticastExploitRouter.sol\":294:342  require(msg.sender == attacker, \"Only attacker\") */\n      tag_14\n      jumpi\n      mload(0x40)\n      0x08c379a000000000000000000000000000000000000000000000000000000000\n      dup2\n      mstore\n      0x04\n      add\n      tag_15\n      swap1\n      tag_16\n      jump\t// in\n    tag_15:\n      mload(0x40)\n      dup1\n      swap2\n      sub\n      swap1\n      revert\n    tag_14:\n        /* \"M/Multi-Cast/MulticastExploitRouter.sol\":358:367  uint256 i */\n      0x00\n        /* \"M/Multi-Cast/MulticastExploitRouter.sol\":353:516  for (uint256 i = 0; i < targets.length; i++) {... */\n    tag_17:\n        /* \"M/Multi-Cast/MulticastExploitRouter.sol\":377:384  targets */\n      dup5\n      dup5\n        /* \"M/Multi-Cast/MulticastExploitRouter.sol\":377:391  targets.length */\n      swap1\n      pop\n        /* \"M/Multi-Cast/MulticastExploitRouter.sol\":373:374  i */\n      dup2\n        /* \"M/Multi-Cast/MulticastExploitRouter.sol\":373:391  i < targets.length */\n      lt\n        /* \"M/Multi-Cast/MulticastExploitRouter.sol\":353:516  for (uint256 i = 0; i < targets.length; i++) {... */\n      iszero\n      tag_18\n      jumpi\n        /* \"M/Multi-Cast/MulticastExploitRouter.sol\":413:425  bool success */\n      0x00\n        /* \"M/Multi-Cast/MulticastExploitRouter.sol\":431:438  targets */\n      dup6\n      dup6\n        /* \"M/Multi-Cast/MulticastExploitRouter.sol\":439:440  i */\n      dup4\n        /* \"M/Multi-Cast/MulticastExploitRouter.sol\":431:441  targets[i] */\n      dup2\n      dup2\n      lt\n      tag_20\n      jumpi\n      tag_21\n      tag_22\n      jump\t// in\n    tag_21:\n    tag_20:\n      swap1\n      pop\n      0x20\n      mul\n      add\n      0x20\n      dup2\n      add\n      swap1\n      tag_23\n      swap2\n      swap1\n      tag_24\n      jump\t// in\n    tag_23:\n        /* \"M/Multi-Cast/MulticastExploitRouter.sol\":431:446  targets[i].call */\n      0xffffffffffffffffffffffffffffffffffffffff\n      and\n        /* \"M/Multi-Cast/MulticastExploitRouter.sol\":447:454  payload */\n      dup5\n      dup5\n        /* \"M/Multi-Cast/MulticastExploitRouter.sol\":431:455  targets[i].call(payload) */\n      mload(0x40)\n      tag_25\n      swap3\n      swap2\n      swap1\n      tag_26\n      jump\t// in\n    tag_25:\n      0x00\n      mload(0x40)\n      dup1\n      dup4\n      sub\n      dup2\n      0x00\n      dup7\n      gas\n      call\n      swap2\n      pop\n      pop\n      returndatasize\n      dup1\n      0x00\n      dup2\n      eq\n      tag_29\n      jumpi\n      mload(0x40)\n      swap2\n      pop\n      and(add(returndatasize, 0x3f), not(0x1f))\n      dup3\n      add\n      0x40\n      mstore\n      returndatasize\n      dup3\n      mstore\n      returndatasize\n      0x00\n      0x20\n      dup5\n      add\n      returndatacopy\n      jump(tag_28)\n    tag_29:\n      0x60\n      swap2\n      pop\n    tag_28:\n      pop\n        /* \"M/Multi-Cast/MulticastExploitRouter.sol\":412:455  (bool success, ) = targets[i].call(payload) */\n      pop\n      swap1\n      pop\n        /* \"M/Multi-Cast/MulticastExploitRouter.sol\":477:484  success */\n      dup1\n        /* \"M/Multi-Cast/MulticastExploitRouter.sol\":469:505  require(success, \"Multicast failed\") */\n      tag_30\n      jumpi\n      mload(0x40)\n      0x08c379a000000000000000000000000000000000000000000000000000000000\n      dup2\n      mstore\n      0x04\n      add\n      tag_31\n      swap1\n      tag_32\n      jump\t// in\n    tag_31:\n      mload(0x40)\n      dup1\n      swap2\n      sub\n      swap1\n      revert\n    tag_30:\n        /* \"M/Multi-Cast/MulticastExploitRouter.sol\":398:516  {... */\n      pop\n        /* \"M/Multi-Cast/MulticastExploitRouter.sol\":393:396  i++ */\n      dup1\n      dup1\n      0x01\n      add\n      swap2\n      pop\n      pop\n        /* \"M/Multi-Cast/MulticastExploitRouter.sol\":353:516  for (uint256 i = 0; i < targets.length; i++) {... */\n      jump(tag_17)\n    tag_18:\n      pop\n        /* \"M/Multi-Cast/MulticastExploitRouter.sol\":200:522  function multicastCall(address[] calldata targets, bytes calldata payload) external {... */\n      pop\n      pop\n      pop\n      pop\n      jump\t// out\n        /* \"#utility.yul\":7:133   */\n    tag_33:\n        /* \"#utility.yul\":44:51   */\n      0x00\n        /* \"#utility.yul\":84:126   */\n      0xffffffffffffffffffffffffffffffffffffffff\n        /* \"#utility.yul\":77:82   */\n      dup3\n        /* \"#utility.yul\":73:127   */\n      and\n        /* \"#utility.yul\":62:127   */\n      swap1\n      pop\n        /* \"#utility.yul\":7:133   */\n      swap2\n      swap1\n      pop\n      jump\t// out\n        /* \"#utility.yul\":139:235   */\n    tag_34:\n        /* \"#utility.yul\":176:183   */\n      0x00\n        /* \"#utility.yul\":205:229   */\n      tag_57\n        /* \"#utility.yul\":223:228   */\n      dup3\n        /* \"#utility.yul\":205:229   */\n      tag_33\n      jump\t// in\n    tag_57:\n        /* \"#utility.yul\":194:229   */\n      swap1\n      pop\n        /* \"#utility.yul\":139:235   */\n      swap2\n      swap1\n      pop\n      jump\t// out\n        /* \"#utility.yul\":241:359   */\n    tag_35:\n        /* \"#utility.yul\":328:352   */\n      tag_59\n        /* \"#utility.yul\":346:351   */\n      dup2\n        /* \"#utility.yul\":328:352   */\n      tag_34\n      jump\t// in\n    tag_59:\n        /* \"#utility.yul\":323:326   */\n      dup3\n        /* \"#utility.yul\":316:353   */\n      mstore\n        /* \"#utility.yul\":241:359   */\n      pop\n      pop\n      jump\t// out\n        /* \"#utility.yul\":365:587   */\n    tag_8:\n        /* \"#utility.yul\":458:462   */\n      0x00\n        /* \"#utility.yul\":496:498   */\n      0x20\n        /* \"#utility.yul\":485:494   */\n      dup3\n        /* \"#utility.yul\":481:499   */\n      add\n        /* \"#utility.yul\":473:499   */\n      swap1\n      pop\n        /* \"#utility.yul\":509:580   */\n      tag_61\n        /* \"#utility.yul\":577:578   */\n      0x00\n        /* \"#utility.yul\":566:575   */\n      dup4\n        /* \"#utility.yul\":562:579   */\n      add\n        /* \"#utility.yul\":553:559   */\n      dup5\n        /* \"#utility.yul\":509:580   */\n      tag_35\n      jump\t// in\n    tag_61:\n        /* \"#utility.yul\":365:587   */\n      swap3\n      swap2\n      pop\n      pop\n      jump\t// out\n        /* \"#utility.yul\":674:791   */\n    tag_37:\n        /* \"#utility.yul\":783:784   */\n      0x00\n        /* \"#utility.yul\":780:781   */\n      dup1\n        /* \"#utility.yul\":773:785   */\n      revert\n        /* \"#utility.yul\":797:914   */\n    tag_38:\n        /* \"#utility.yul\":906:907   */\n      0x00\n        /* \"#utility.yul\":903:904   */\n      dup1\n        /* \"#utility.yul\":896:908   */\n      revert\n        /* \"#utility.yul\":920:1037   */\n    tag_39:\n        /* \"#utility.yul\":1029:1030   */\n      0x00\n        /* \"#utility.yul\":1026:1027   */\n      dup1\n        /* \"#utility.yul\":1019:1031   */\n      revert\n        /* \"#utility.yul\":1043:1160   */\n    tag_40:\n        /* \"#utility.yul\":1152:1153   */\n      0x00\n        /* \"#utility.yul\":1149:1150   */\n      dup1\n        /* \"#utility.yul\":1142:1154   */\n      revert\n        /* \"#utility.yul\":1166:1283   */\n    tag_41:\n        /* \"#utility.yul\":1275:1276   */\n      0x00\n        /* \"#utility.yul\":1272:1273   */\n      dup1\n        /* \"#utility.yul\":1265:1277   */\n      revert\n        /* \"#utility.yul\":1306:1874   */\n    tag_42:\n        /* \"#utility.yul\":1379:1387   */\n      0x00\n        /* \"#utility.yul\":1389:1395   */\n      dup1\n        /* \"#utility.yul\":1439:1442   */\n      dup4\n        /* \"#utility.yul\":1432:1436   */\n      0x1f\n        /* \"#utility.yul\":1424:1430   */\n      dup5\n        /* \"#utility.yul\":1420:1437   */\n      add\n        /* \"#utility.yul\":1416:1443   */\n      slt\n        /* \"#utility.yul\":1406:1528   */\n      tag_69\n      jumpi\n        /* \"#utility.yul\":1447:1526   */\n      tag_70\n      tag_39\n      jump\t// in\n    tag_70:\n        /* \"#utility.yul\":1406:1528   */\n    tag_69:\n        /* \"#utility.yul\":1560:1566   */\n      dup3\n        /* \"#utility.yul\":1547:1567   */\n      calldataload\n        /* \"#utility.yul\":1537:1567   */\n      swap1\n      pop\n        /* \"#utility.yul\":1590:1608   */\n      0xffffffffffffffff\n        /* \"#utility.yul\":1582:1588   */\n      dup2\n        /* \"#utility.yul\":1579:1609   */\n      gt\n        /* \"#utility.yul\":1576:1693   */\n      iszero\n      tag_71\n      jumpi\n        /* \"#utility.yul\":1612:1691   */\n      tag_72\n      tag_40\n      jump\t// in\n    tag_72:\n        /* \"#utility.yul\":1576:1693   */\n    tag_71:\n        /* \"#utility.yul\":1726:1730   */\n      0x20\n        /* \"#utility.yul\":1718:1724   */\n      dup4\n        /* \"#utility.yul\":1714:1731   */\n      add\n        /* \"#utility.yul\":1702:1731   */\n      swap2\n      pop\n        /* \"#utility.yul\":1780:1783   */\n      dup4\n        /* \"#utility.yul\":1772:1776   */\n      0x20\n        /* \"#utility.yul\":1764:1770   */\n      dup3\n        /* \"#utility.yul\":1760:1777   */\n      mul\n        /* \"#utility.yul\":1750:1758   */\n      dup4\n        /* \"#utility.yul\":1746:1778   */\n      add\n        /* \"#utility.yul\":1743:1784   */\n      gt\n        /* \"#utility.yul\":1740:1868   */\n      iszero\n      tag_73\n      jumpi\n        /* \"#utility.yul\":1787:1866   */\n      tag_74\n      tag_41\n      jump\t// in\n    tag_74:\n        /* \"#utility.yul\":1740:1868   */\n    tag_73:\n        /* \"#utility.yul\":1306:1874   */\n      swap3\n      pop\n      swap3\n      swap1\n      pop\n      jump\t// out\n        /* \"#utility.yul\":1893:2445   */\n    tag_43:\n        /* \"#utility.yul\":1950:1958   */\n      0x00\n        /* \"#utility.yul\":1960:1966   */\n      dup1\n        /* \"#utility.yul\":2010:2013   */\n      dup4\n        /* \"#utility.yul\":2003:2007   */\n      0x1f\n        /* \"#utility.yul\":1995:2001   */\n      dup5\n        /* \"#utility.yul\":1991:2008   */\n      add\n        /* \"#utility.yul\":1987:2014   */\n      slt\n        /* \"#utility.yul\":1977:2099   */\n      tag_76\n      jumpi\n        /* \"#utility.yul\":2018:2097   */\n      tag_77\n      tag_39\n      jump\t// in\n    tag_77:\n        /* \"#utility.yul\":1977:2099   */\n    tag_76:\n        /* \"#utility.yul\":2131:2137   */\n      dup3\n        /* \"#utility.yul\":2118:2138   */\n      calldataload\n        /* \"#utility.yul\":2108:2138   */\n      swap1\n      pop\n        /* \"#utility.yul\":2161:2179   */\n      0xffffffffffffffff\n        /* \"#utility.yul\":2153:2159   */\n      dup2\n        /* \"#utility.yul\":2150:2180   */\n      gt\n        /* \"#utility.yul\":2147:2264   */\n      iszero\n      tag_78\n      jumpi\n        /* \"#utility.yul\":2183:2262   */\n      tag_79\n      tag_40\n      jump\t// in\n    tag_79:\n        /* \"#utility.yul\":2147:2264   */\n    tag_78:\n        /* \"#utility.yul\":2297:2301   */\n      0x20\n        /* \"#utility.yul\":2289:2295   */\n      dup4\n        /* \"#utility.yul\":2285:2302   */\n      add\n        /* \"#utility.yul\":2273:2302   */\n      swap2\n      pop\n        /* \"#utility.yul\":2351:2354   */\n      dup4\n        /* \"#utility.yul\":2343:2347   */\n      0x01\n        /* \"#utility.yul\":2335:2341   */\n      dup3\n        /* \"#utility.yul\":2331:2348   */\n      mul\n        /* \"#utility.yul\":2321:2329   */\n      dup4\n        /* \"#utility.yul\":2317:2349   */\n      add\n        /* \"#utility.yul\":2314:2355   */\n      gt\n        /* \"#utility.yul\":2311:2439   */\n      iszero\n      tag_80\n      jumpi\n        /* \"#utility.yul\":2358:2437   */\n      tag_81\n      tag_41\n      jump\t// in\n    tag_81:\n        /* \"#utility.yul\":2311:2439   */\n    tag_80:\n        /* \"#utility.yul\":1893:2445   */\n      swap3\n      pop\n      swap3\n      swap1\n      pop\n      jump\t// out\n        /* \"#utility.yul\":2451:3353   */\n    tag_11:\n        /* \"#utility.yul\":2557:2563   */\n      0x00\n        /* \"#utility.yul\":2565:2571   */\n      dup1\n        /* \"#utility.yul\":2573:2579   */\n      0x00\n        /* \"#utility.yul\":2581:2587   */\n      dup1\n        /* \"#utility.yul\":2630:2632   */\n      0x40\n        /* \"#utility.yul\":2618:2627   */\n      dup6\n        /* \"#utility.yul\":2609:2616   */\n      dup8\n        /* \"#utility.yul\":2605:2628   */\n      sub\n        /* \"#utility.yul\":2601:2633   */\n      slt\n        /* \"#utility.yul\":2598:2717   */\n      iszero\n      tag_83\n      jumpi\n        /* \"#utility.yul\":2636:2715   */\n      tag_84\n      tag_37\n      jump\t// in\n    tag_84:\n        /* \"#utility.yul\":2598:2717   */\n    tag_83:\n        /* \"#utility.yul\":2784:2785   */\n      0x00\n        /* \"#utility.yul\":2773:2782   */\n      dup6\n        /* \"#utility.yul\":2769:2786   */\n      add\n        /* \"#utility.yul\":2756:2787   */\n      calldataload\n        /* \"#utility.yul\":2814:2832   */\n      0xffffffffffffffff\n        /* \"#utility.yul\":2806:2812   */\n      dup2\n        /* \"#utility.yul\":2803:2833   */\n      gt\n        /* \"#utility.yul\":2800:2917   */\n      iszero\n      tag_85\n      jumpi\n        /* \"#utility.yul\":2836:2915   */\n      tag_86\n      tag_38\n      jump\t// in\n    tag_86:\n        /* \"#utility.yul\":2800:2917   */\n    tag_85:\n        /* \"#utility.yul\":2949:3029   */\n      tag_87\n        /* \"#utility.yul\":3021:3028   */\n      dup8\n        /* \"#utility.yul\":3012:3018   */\n      dup3\n        /* \"#utility.yul\":3001:3010   */\n      dup9\n        /* \"#utility.yul\":2997:3019   */\n      add\n        /* \"#utility.yul\":2949:3029   */\n      tag_42\n      jump\t// in\n    tag_87:\n        /* \"#utility.yul\":2931:3029   */\n      swap5\n      pop\n      swap5\n      pop\n        /* \"#utility.yul\":2727:3039   */\n      pop\n        /* \"#utility.yul\":3106:3108   */\n      0x20\n        /* \"#utility.yul\":3095:3104   */\n      dup6\n        /* \"#utility.yul\":3091:3109   */\n      add\n        /* \"#utility.yul\":3078:3110   */\n      calldataload\n        /* \"#utility.yul\":3137:3155   */\n      0xffffffffffffffff\n        /* \"#utility.yul\":3129:3135   */\n      dup2\n        /* \"#utility.yul\":3126:3156   */\n      gt\n        /* \"#utility.yul\":3123:3240   */\n      iszero\n      tag_88\n      jumpi\n        /* \"#utility.yul\":3159:3238   */\n      tag_89\n      tag_38\n      jump\t// in\n    tag_89:\n        /* \"#utility.yul\":3123:3240   */\n    tag_88:\n        /* \"#utility.yul\":3272:3336   */\n      tag_90\n        /* \"#utility.yul\":3328:3335   */\n      dup8\n        /* \"#utility.yul\":3319:3325   */\n      dup3\n        /* \"#utility.yul\":3308:3317   */\n      dup9\n        /* \"#utility.yul\":3304:3326   */\n      add\n        /* \"#utility.yul\":3272:3336   */\n      tag_43\n      jump\t// in\n    tag_90:\n        /* \"#utility.yul\":3254:3336   */\n      swap3\n      pop\n      swap3\n      pop\n        /* \"#utility.yul\":3049:3346   */\n      pop\n        /* \"#utility.yul\":2451:3353   */\n      swap3\n      swap6\n      swap2\n      swap5\n      pop\n      swap3\n      pop\n      jump\t// out\n        /* \"#utility.yul\":3359:3528   */\n    tag_44:\n        /* \"#utility.yul\":3443:3454   */\n      0x00\n        /* \"#utility.yul\":3477:3483   */\n      dup3\n        /* \"#utility.yul\":3472:3475   */\n      dup3\n        /* \"#utility.yul\":3465:3484   */\n      mstore\n        /* \"#utility.yul\":3517:3521   */\n      0x20\n        /* \"#utility.yul\":3512:3515   */\n      dup3\n        /* \"#utility.yul\":3508:3522   */\n      add\n        /* \"#utility.yul\":3493:3522   */\n      swap1\n      pop\n        /* \"#utility.yul\":3359:3528   */\n      swap3\n      swap2\n      pop\n      pop\n      jump\t// out\n        /* \"#utility.yul\":3534:3697   */\n    tag_45:\n        /* \"#utility.yul\":3674:3689   */\n      0x4f6e6c792061747461636b657200000000000000000000000000000000000000\n        /* \"#utility.yul\":3670:3671   */\n      0x00\n        /* \"#utility.yul\":3662:3668   */\n      dup3\n        /* \"#utility.yul\":3658:3672   */\n      add\n        /* \"#utility.yul\":3651:3690   */\n      mstore\n        /* \"#utility.yul\":3534:3697   */\n      pop\n      jump\t// out\n        /* \"#utility.yul\":3703:4069   */\n    tag_46:\n        /* \"#utility.yul\":3845:3848   */\n      0x00\n        /* \"#utility.yul\":3866:3933   */\n      tag_94\n        /* \"#utility.yul\":3930:3932   */\n      0x0d\n        /* \"#utility.yul\":3925:3928   */\n      dup4\n        /* \"#utility.yul\":3866:3933   */\n      tag_44\n      jump\t// in\n    tag_94:\n        /* \"#utility.yul\":3859:3933   */\n      swap2\n      pop\n        /* \"#utility.yul\":3942:4035   */\n      tag_95\n        /* \"#utility.yul\":4031:4034   */\n      dup3\n        /* \"#utility.yul\":3942:4035   */\n      tag_45\n      jump\t// in\n    tag_95:\n        /* \"#utility.yul\":4060:4062   */\n      0x20\n        /* \"#utility.yul\":4055:4058   */\n      dup3\n        /* \"#utility.yul\":4051:4063   */\n      add\n        /* \"#utility.yul\":4044:4063   */\n      swap1\n      pop\n        /* \"#utility.yul\":3703:4069   */\n      swap2\n      swap1\n      pop\n      jump\t// out\n        /* \"#utility.yul\":4075:4494   */\n    tag_16:\n        /* \"#utility.yul\":4241:4245   */\n      0x00\n        /* \"#utility.yul\":4279:4281   */\n      0x20\n        /* \"#utility.yul\":4268:4277   */\n      dup3\n        /* \"#utility.yul\":4264:4282   */\n      add\n        /* \"#utility.yul\":4256:4282   */\n      swap1\n      pop\n        /* \"#utility.yul\":4328:4337   */\n      dup2\n        /* \"#utility.yul\":4322:4326   */\n      dup2\n        /* \"#utility.yul\":4318:4338   */\n      sub\n        /* \"#utility.yul\":4314:4315   */\n      0x00\n        /* \"#utility.yul\":4303:4312   */\n      dup4\n        /* \"#utility.yul\":4299:4316   */\n      add\n        /* \"#utility.yul\":4292:4339   */\n      mstore\n        /* \"#utility.yul\":4356:4487   */\n      tag_97\n        /* \"#utility.yul\":4482:4486   */\n      dup2\n        /* \"#utility.yul\":4356:4487   */\n      tag_46\n      jump\t// in\n    tag_97:\n        /* \"#utility.yul\":4348:4487   */\n      swap1\n      pop\n        /* \"#utility.yul\":4075:4494   */\n      swap2\n      swap1\n      pop\n      jump\t// out\n        /* \"#utility.yul\":4500:4680   */\n    tag_22:\n        /* \"#utility.yul\":4548:4625   */\n      0x4e487b7100000000000000000000000000000000000000000000000000000000\n        /* \"#utility.yul\":4545:4546   */\n      0x00\n        /* \"#utility.yul\":4538:4626   */\n      mstore\n        /* \"#utility.yul\":4645:4649   */\n      0x32\n        /* \"#utility.yul\":4642:4643   */\n      0x04\n        /* \"#utility.yul\":4635:4650   */\n      mstore\n        /* \"#utility.yul\":4669:4673   */\n      0x24\n        /* \"#utility.yul\":4666:4667   */\n      0x00\n        /* \"#utility.yul\":4659:4674   */\n      revert\n        /* \"#utility.yul\":4686:4808   */\n    tag_47:\n        /* \"#utility.yul\":4759:4783   */\n      tag_100\n        /* \"#utility.yul\":4777:4782   */\n      dup2\n        /* \"#utility.yul\":4759:4783   */\n      tag_34\n      jump\t// in\n    tag_100:\n        /* \"#utility.yul\":4752:4757   */\n      dup2\n        /* \"#utility.yul\":4749:4784   */\n      eq\n        /* \"#utility.yul\":4739:4802   */\n      tag_101\n      jumpi\n        /* \"#utility.yul\":4798:4799   */\n      0x00\n        /* \"#utility.yul\":4795:4796   */\n      dup1\n        /* \"#utility.yul\":4788:4800   */\n      revert\n        /* \"#utility.yul\":4739:4802   */\n    tag_101:\n        /* \"#utility.yul\":4686:4808   */\n      pop\n      jump\t// out\n        /* \"#utility.yul\":4814:4953   */\n    tag_48:\n        /* \"#utility.yul\":4860:4865   */\n      0x00\n        /* \"#utility.yul\":4898:4904   */\n      dup2\n        /* \"#utility.yul\":4885:4905   */\n      calldataload\n        /* \"#utility.yul\":4876:4905   */\n      swap1\n      pop\n        /* \"#utility.yul\":4914:4947   */\n      tag_103\n        /* \"#utility.yul\":4941:4946   */\n      dup2\n        /* \"#utility.yul\":4914:4947   */\n      tag_47\n      jump\t// in\n    tag_103:\n        /* \"#utility.yul\":4814:4953   */\n      swap3\n      swap2\n      pop\n      pop\n      jump\t// out\n        /* \"#utility.yul\":4959:5288   */\n    tag_24:\n        /* \"#utility.yul\":5018:5024   */\n      0x00\n        /* \"#utility.yul\":5067:5069   */\n      0x20\n        /* \"#utility.yul\":5055:5064   */\n      dup3\n        /* \"#utility.yul\":5046:5053   */\n      dup5\n        /* \"#utility.yul\":5042:5065   */\n      sub\n        /* \"#utility.yul\":5038:5070   */\n      slt\n        /* \"#utility.yul\":5035:5154   */\n      iszero\n      tag_105\n      jumpi\n        /* \"#utility.yul\":5073:5152   */\n      tag_106\n      tag_37\n      jump\t// in\n    tag_106:\n        /* \"#utility.yul\":5035:5154   */\n    tag_105:\n        /* \"#utility.yul\":5193:5194   */\n      0x00\n        /* \"#utility.yul\":5218:5271   */\n      tag_107\n        /* \"#utility.yul\":5263:5270   */\n      dup5\n        /* \"#utility.yul\":5254:5260   */\n      dup3\n        /* \"#utility.yul\":5243:5252   */\n      dup6\n        /* \"#utility.yul\":5239:5261   */\n      add\n        /* \"#utility.yul\":5218:5271   */\n      tag_48\n      jump\t// in\n    tag_107:\n        /* \"#utility.yul\":5208:5271   */\n      swap2\n      pop\n        /* \"#utility.yul\":5164:5281   */\n      pop\n        /* \"#utility.yul\":4959:5288   */\n      swap3\n      swap2\n      pop\n      pop\n      jump\t// out\n        /* \"#utility.yul\":5294:5441   */\n    tag_49:\n        /* \"#utility.yul\":5395:5406   */\n      0x00\n        /* \"#utility.yul\":5432:5435   */\n      dup2\n        /* \"#utility.yul\":5417:5435   */\n      swap1\n      pop\n        /* \"#utility.yul\":5294:5441   */\n      swap3\n      swap2\n      pop\n      pop\n      jump\t// out\n        /* \"#utility.yul\":5447:5595   */\n    tag_50:\n        /* \"#utility.yul\":5545:5551   */\n      dup3\n        /* \"#utility.yul\":5540:5543   */\n      dup2\n        /* \"#utility.yul\":5535:5538   */\n      dup4\n        /* \"#utility.yul\":5522:5552   */\n      calldatacopy\n        /* \"#utility.yul\":5586:5587   */\n      0x00\n        /* \"#utility.yul\":5577:5583   */\n      dup4\n        /* \"#utility.yul\":5572:5575   */\n      dup4\n        /* \"#utility.yul\":5568:5584   */\n      add\n        /* \"#utility.yul\":5561:5588   */\n      mstore\n        /* \"#utility.yul\":5447:5595   */\n      pop\n      pop\n      pop\n      jump\t// out\n        /* \"#utility.yul\":5623:5950   */\n    tag_51:\n        /* \"#utility.yul\":5737:5740   */\n      0x00\n        /* \"#utility.yul\":5758:5846   */\n      tag_111\n        /* \"#utility.yul\":5839:5845   */\n      dup4\n        /* \"#utility.yul\":5834:5837   */\n      dup6\n        /* \"#utility.yul\":5758:5846   */\n      tag_49\n      jump\t// in\n    tag_111:\n        /* \"#utility.yul\":5751:5846   */\n      swap4\n      pop\n        /* \"#utility.yul\":5856:5912   */\n      tag_112\n        /* \"#utility.yul\":5905:5911   */\n      dup4\n        /* \"#utility.yul\":5900:5903   */\n      dup6\n        /* \"#utility.yul\":5893:5898   */\n      dup5\n        /* \"#utility.yul\":5856:5912   */\n      tag_50\n      jump\t// in\n    tag_112:\n        /* \"#utility.yul\":5937:5943   */\n      dup3\n        /* \"#utility.yul\":5932:5935   */\n      dup5\n        /* \"#utility.yul\":5928:5944   */\n      add\n        /* \"#utility.yul\":5921:5944   */\n      swap1\n      pop\n        /* \"#utility.yul\":5623:5950   */\n      swap4\n      swap3\n      pop\n      pop\n      pop\n      jump\t// out\n        /* \"#utility.yul\":5956:6247   */\n    tag_26:\n        /* \"#utility.yul\":6096:6099   */\n      0x00\n        /* \"#utility.yul\":6118:6221   */\n      tag_114\n        /* \"#utility.yul\":6217:6220   */\n      dup3\n        /* \"#utility.yul\":6208:6214   */\n      dup5\n        /* \"#utility.yul\":6200:6206   */\n      dup7\n        /* \"#utility.yul\":6118:6221   */\n      tag_51\n      jump\t// in\n    tag_114:\n        /* \"#utility.yul\":6111:6221   */\n      swap2\n      pop\n        /* \"#utility.yul\":6238:6241   */\n      dup2\n        /* \"#utility.yul\":6231:6241   */\n      swap1\n      pop\n        /* \"#utility.yul\":5956:6247   */\n      swap4\n      swap3\n      pop\n      pop\n      pop\n      jump\t// out\n        /* \"#utility.yul\":6253:6419   */\n    tag_52:\n        /* \"#utility.yul\":6393:6411   */\n      0x4d756c746963617374206661696c656400000000000000000000000000000000\n        /* \"#utility.yul\":6389:6390   */\n      0x00\n        /* \"#utility.yul\":6381:6387   */\n      dup3\n        /* \"#utility.yul\":6377:6391   */\n      add\n        /* \"#utility.yul\":6370:6412   */\n      mstore\n        /* \"#utility.yul\":6253:6419   */\n      pop\n      jump\t// out\n        /* \"#utility.yul\":6425:6791   */\n    tag_53:\n        /* \"#utility.yul\":6567:6570   */\n      0x00\n        /* \"#utility.yul\":6588:6655   */\n      tag_117\n        /* \"#utility.yul\":6652:6654   */\n      0x10\n        /* \"#utility.yul\":6647:6650   */\n      dup4\n        /* \"#utility.yul\":6588:6655   */\n      tag_44\n      jump\t// in\n    tag_117:\n        /* \"#utility.yul\":6581:6655   */\n      swap2\n      pop\n        /* \"#utility.yul\":6664:6757   */\n      tag_118\n        /* \"#utility.yul\":6753:6756   */\n      dup3\n        /* \"#utility.yul\":6664:6757   */\n      tag_52\n      jump\t// in\n    tag_118:\n        /* \"#utility.yul\":6782:6784   */\n      0x20\n        /* \"#utility.yul\":6777:6780   */\n      dup3\n        /* \"#utility.yul\":6773:6785   */\n      add\n        /* \"#utility.yul\":6766:6785   */\n      swap1\n      pop\n        /* \"#utility.yul\":6425:6791   */\n      swap2\n      swap1\n      pop\n      jump\t// out\n        /* \"#utility.yul\":6797:7216   */\n    tag_32:\n        /* \"#utility.yul\":6963:6967   */\n      0x00\n        /* \"#utility.yul\":7001:7003   */\n      0x20\n        /* \"#utility.yul\":6990:6999   */\n      dup3\n        /* \"#utility.yul\":6986:7004   */\n      add\n        /* \"#utility.yul\":6978:7004   */\n      swap1\n      pop\n        /* \"#utility.yul\":7050:7059   */\n      dup2\n        /* \"#utility.yul\":7044:7048   */\n      dup2\n        /* \"#utility.yul\":7040:7060   */\n      sub\n        /* \"#utility.yul\":7036:7037   */\n      0x00\n        /* \"#utility.yul\":7025:7034   */\n      dup4\n        /* \"#utility.yul\":7021:7038   */\n      add\n        /* \"#utility.yul\":7014:7061   */\n      mstore\n        /* \"#utility.yul\":7078:7209   */\n      tag_120\n        /* \"#utility.yul\":7204:7208   */\n      dup2\n        /* \"#utility.yul\":7078:7209   */\n      tag_53\n      jump\t// in\n    tag_120:\n        /* \"#utility.yul\":7070:7209   */\n      swap1\n      pop\n        /* \"#utility.yul\":6797:7216   */\n      swap2\n      swap1\n      pop\n      jump\t// out\n\n    auxdata: 0xa2646970667358221220af2982b82462a4b877e476a162d35d7964ca326b03e8d6f0f6e15f0635df863e64736f6c634300081a0033\n}\n",
				"bytecode": {
					"linkReferences": {},
					"object": "608060405234801561000f575f80fd5b506040516106a13803806106a1833981810160405281019061003191906100d4565b805f806101000a81548173ffffffffffffffffffffffffffffffffffffffff021916908373ffffffffffffffffffffffffffffffffffffffff160217905550506100ff565b5f80fd5b5f73ffffffffffffffffffffffffffffffffffffffff82169050919050565b5f6100a38261007a565b9050919050565b6100b381610099565b81146100bd575f80fd5b50565b5f815190506100ce816100aa565b92915050565b5f602082840312156100e9576100e8610076565b5b5f6100f6848285016100c0565b91505092915050565b6105958061010c5f395ff3fe608060405234801561000f575f80fd5b5060043610610034575f3560e01c806348eb76ee146100385780638c30b95314610056575b5f80fd5b610040610072565b60405161004d9190610254565b60405180910390f35b610070600480360381019061006b919061032b565b610095565b005b5f8054906101000a900473ffffffffffffffffffffffffffffffffffffffff1681565b5f8054906101000a900473ffffffffffffffffffffffffffffffffffffffff1673ffffffffffffffffffffffffffffffffffffffff163373ffffffffffffffffffffffffffffffffffffffff1614610122576040517f08c379a000000000000000000000000000000000000000000000000000000000815260040161011990610403565b60405180910390fd5b5f5b8484905081101561020e575f85858381811061014357610142610421565b5b90506020020160208101906101589190610478565b73ffffffffffffffffffffffffffffffffffffffff16848460405161017e9291906104df565b5f604051808303815f865af19150503d805f81146101b7576040519150601f19603f3d011682016040523d82523d5f602084013e6101bc565b606091505b5050905080610200576040517f08c379a00000000000000000000000000000000000000000000000000000000081526004016101f790610541565b60405180910390fd5b508080600101915050610124565b5050505050565b5f73ffffffffffffffffffffffffffffffffffffffff82169050919050565b5f61023e82610215565b9050919050565b61024e81610234565b82525050565b5f6020820190506102675f830184610245565b92915050565b5f80fd5b5f80fd5b5f80fd5b5f80fd5b5f80fd5b5f8083601f84011261029657610295610275565b5b8235905067ffffffffffffffff8111156102b3576102b2610279565b5b6020830191508360208202830111156102cf576102ce61027d565b5b9250929050565b5f8083601f8401126102eb576102ea610275565b5b8235905067ffffffffffffffff81111561030857610307610279565b5b6020830191508360018202830111156103245761032361027d565b5b9250929050565b5f805f80604085870312156103435761034261026d565b5b5f85013567ffffffffffffffff8111156103605761035f610271565b5b61036c87828801610281565b9450945050602085013567ffffffffffffffff81111561038f5761038e610271565b5b61039b878288016102d6565b925092505092959194509250565b5f82825260208201905092915050565b7f4f6e6c792061747461636b6572000000000000000000000000000000000000005f82015250565b5f6103ed600d836103a9565b91506103f8826103b9565b602082019050919050565b5f6020820190508181035f83015261041a816103e1565b9050919050565b7f4e487b71000000000000000000000000000000000000000000000000000000005f52603260045260245ffd5b61045781610234565b8114610461575f80fd5b50565b5f813590506104728161044e565b92915050565b5f6020828403121561048d5761048c61026d565b5b5f61049a84828501610464565b91505092915050565b5f81905092915050565b828183375f83830152505050565b5f6104c683856104a3565b93506104d38385846104ad565b82840190509392505050565b5f6104eb8284866104bb565b91508190509392505050565b7f4d756c746963617374206661696c6564000000000000000000000000000000005f82015250565b5f61052b6010836103a9565b9150610536826104f7565b602082019050919050565b5f6020820190508181035f8301526105588161051f565b905091905056fea2646970667358221220af2982b82462a4b877e476a162d35d7964ca326b03e8d6f0f6e15f0635df863e64736f6c634300081a0033",
					"opcodes": "PUSH1 0x80 PUSH1 0x40 MSTORE CALLVALUE DUP1 ISZERO PUSH2 0xF JUMPI PUSH0 DUP1 REVERT JUMPDEST POP PUSH1 0x40 MLOAD PUSH2 0x6A1 CODESIZE SUB DUP1 PUSH2 0x6A1 DUP4 CODECOPY DUP2 DUP2 ADD PUSH1 0x40 MSTORE DUP2 ADD SWAP1 PUSH2 0x31 SWAP2 SWAP1 PUSH2 0xD4 JUMP JUMPDEST DUP1 PUSH0 DUP1 PUSH2 0x100 EXP DUP2 SLOAD DUP2 PUSH20 0xFFFFFFFFFFFFFFFFFFFFFFFFFFFFFFFFFFFFFFFF MUL NOT AND SWAP1 DUP4 PUSH20 0xFFFFFFFFFFFFFFFFFFFFFFFFFFFFFFFFFFFFFFFF AND MUL OR SWAP1 SSTORE POP POP PUSH2 0xFF JUMP JUMPDEST PUSH0 DUP1 REVERT JUMPDEST PUSH0 PUSH20 0xFFFFFFFFFFFFFFFFFFFFFFFFFFFFFFFFFFFFFFFF DUP3 AND SWAP1 POP SWAP2 SWAP1 POP JUMP JUMPDEST PUSH0 PUSH2 0xA3 DUP3 PUSH2 0x7A JUMP JUMPDEST SWAP1 POP SWAP2 SWAP1 POP JUMP JUMPDEST PUSH2 0xB3 DUP2 PUSH2 0x99 JUMP JUMPDEST DUP2 EQ PUSH2 0xBD JUMPI PUSH0 DUP1 REVERT JUMPDEST POP JUMP JUMPDEST PUSH0 DUP2 MLOAD SWAP1 POP PUSH2 0xCE DUP2 PUSH2 0xAA JUMP JUMPDEST SWAP3 SWAP2 POP POP JUMP JUMPDEST PUSH0 PUSH1 0x20 DUP3 DUP5 SUB SLT ISZERO PUSH2 0xE9 JUMPI PUSH2 0xE8 PUSH2 0x76 JUMP JUMPDEST JUMPDEST PUSH0 PUSH2 0xF6 DUP5 DUP3 DUP6 ADD PUSH2 0xC0 JUMP JUMPDEST SWAP2 POP POP SWAP3 SWAP2 POP POP JUMP JUMPDEST PUSH2 0x595 DUP1 PUSH2 0x10C PUSH0 CODECOPY PUSH0 RETURN INVALID PUSH1 0x80 PUSH1 0x40 MSTORE CALLVALUE DUP1 ISZERO PUSH2 0xF JUMPI PUSH0 DUP1 REVERT JUMPDEST POP PUSH1 0x4 CALLDATASIZE LT PUSH2 0x34 JUMPI PUSH0 CALLDATALOAD PUSH1 0xE0 SHR DUP1 PUSH4 0x48EB76EE EQ PUSH2 0x38 JUMPI DUP1 PUSH4 0x8C30B953 EQ PUSH2 0x56 JUMPI JUMPDEST PUSH0 DUP1 REVERT JUMPDEST PUSH2 0x40 PUSH2 0x72 JUMP JUMPDEST PUSH1 0x40 MLOAD PUSH2 0x4D SWAP2 SWAP1 PUSH2 0x254 JUMP JUMPDEST PUSH1 0x40 MLOAD DUP1 SWAP2 SUB SWAP1 RETURN JUMPDEST PUSH2 0x70 PUSH1 0x4 DUP1 CALLDATASIZE SUB DUP2 ADD SWAP1 PUSH2 0x6B SWAP2 SWAP1 PUSH2 0x32B JUMP JUMPDEST PUSH2 0x95 JUMP JUMPDEST STOP JUMPDEST PUSH0 DUP1 SLOAD SWAP1 PUSH2 0x100 EXP SWAP1 DIV PUSH20 0xFFFFFFFFFFFFFFFFFFFFFFFFFFFFFFFFFFFFFFFF AND DUP2 JUMP JUMPDEST PUSH0 DUP1 SLOAD SWAP1 PUSH2 0x100 EXP SWAP1 DIV PUSH20 0xFFFFFFFFFFFFFFFFFFFFFFFFFFFFFFFFFFFFFFFF AND PUSH20 0xFFFFFFFFFFFFFFFFFFFFFFFFFFFFFFFFFFFFFFFF AND CALLER PUSH20 0xFFFFFFFFFFFFFFFFFFFFFFFFFFFFFFFFFFFFFFFF AND EQ PUSH2 0x122 JUMPI PUSH1 0x40 MLOAD PUSH32 0x8C379A000000000000000000000000000000000000000000000000000000000 DUP2 MSTORE PUSH1 0x4 ADD PUSH2 0x119 SWAP1 PUSH2 0x403 JUMP JUMPDEST PUSH1 0x40 MLOAD DUP1 SWAP2 SUB SWAP1 REVERT JUMPDEST PUSH0 JUMPDEST DUP5 DUP5 SWAP1 POP DUP2 LT ISZERO PUSH2 0x20E JUMPI PUSH0 DUP6 DUP6 DUP4 DUP2 DUP2 LT PUSH2 0x143 JUMPI PUSH2 0x142 PUSH2 0x421 JUMP JUMPDEST JUMPDEST SWAP1 POP PUSH1 0x20 MUL ADD PUSH1 0x20 DUP2 ADD SWAP1 PUSH2 0x158 SWAP2 SWAP1 PUSH2 0x478 JUMP JUMPDEST PUSH20 0xFFFFFFFFFFFFFFFFFFFFFFFFFFFFFFFFFFFFFFFF AND DUP5 DUP5 PUSH1 0x40 MLOAD PUSH2 0x17E SWAP3 SWAP2 SWAP1 PUSH2 0x4DF JUMP JUMPDEST PUSH0 PUSH1 0x40 MLOAD DUP1 DUP4 SUB DUP2 PUSH0 DUP7 GAS CALL SWAP2 POP POP RETURNDATASIZE DUP1 PUSH0 DUP2 EQ PUSH2 0x1B7 JUMPI PUSH1 0x40 MLOAD SWAP2 POP PUSH1 0x1F NOT PUSH1 0x3F RETURNDATASIZE ADD AND DUP3 ADD PUSH1 0x40 MSTORE RETURNDATASIZE DUP3 MSTORE RETURNDATASIZE PUSH0 PUSH1 0x20 DUP5 ADD RETURNDATACOPY PUSH2 0x1BC JUMP JUMPDEST PUSH1 0x60 SWAP2 POP JUMPDEST POP POP SWAP1 POP DUP1 PUSH2 0x200 JUMPI PUSH1 0x40 MLOAD PUSH32 0x8C379A000000000000000000000000000000000000000000000000000000000 DUP2 MSTORE PUSH1 0x4 ADD PUSH2 0x1F7 SWAP1 PUSH2 0x541 JUMP JUMPDEST PUSH1 0x40 MLOAD DUP1 SWAP2 SUB SWAP1 REVERT JUMPDEST POP DUP1 DUP1 PUSH1 0x1 ADD SWAP2 POP POP PUSH2 0x124 JUMP JUMPDEST POP POP POP POP POP JUMP JUMPDEST PUSH0 PUSH20 0xFFFFFFFFFFFFFFFFFFFFFFFFFFFFFFFFFFFFFFFF DUP3 AND SWAP1 POP SWAP2 SWAP1 POP JUMP JUMPDEST PUSH0 PUSH2 0x23E DUP3 PUSH2 0x215 JUMP JUMPDEST SWAP1 POP SWAP2 SWAP1 POP JUMP JUMPDEST PUSH2 0x24E DUP2 PUSH2 0x234 JUMP JUMPDEST DUP3 MSTORE POP POP JUMP JUMPDEST PUSH0 PUSH1 0x20 DUP3 ADD SWAP1 POP PUSH2 0x267 PUSH0 DUP4 ADD DUP5 PUSH2 0x245 JUMP JUMPDEST SWAP3 SWAP2 POP POP JUMP JUMPDEST PUSH0 DUP1 REVERT JUMPDEST PUSH0 DUP1 REVERT JUMPDEST PUSH0 DUP1 REVERT JUMPDEST PUSH0 DUP1 REVERT JUMPDEST PUSH0 DUP1 REVERT JUMPDEST PUSH0 DUP1 DUP4 PUSH1 0x1F DUP5 ADD SLT PUSH2 0x296 JUMPI PUSH2 0x295 PUSH2 0x275 JUMP JUMPDEST JUMPDEST DUP3 CALLDATALOAD SWAP1 POP PUSH8 0xFFFFFFFFFFFFFFFF DUP2 GT ISZERO PUSH2 0x2B3 JUMPI PUSH2 0x2B2 PUSH2 0x279 JUMP JUMPDEST JUMPDEST PUSH1 0x20 DUP4 ADD SWAP2 POP DUP4 PUSH1 0x20 DUP3 MUL DUP4 ADD GT ISZERO PUSH2 0x2CF JUMPI PUSH2 0x2CE PUSH2 0x27D JUMP JUMPDEST JUMPDEST SWAP3 POP SWAP3 SWAP1 POP JUMP JUMPDEST PUSH0 DUP1 DUP4 PUSH1 0x1F DUP5 ADD SLT PUSH2 0x2EB JUMPI PUSH2 0x2EA PUSH2 0x275 JUMP JUMPDEST JUMPDEST DUP3 CALLDATALOAD SWAP1 POP PUSH8 0xFFFFFFFFFFFFFFFF DUP2 GT ISZERO PUSH2 0x308 JUMPI PUSH2 0x307 PUSH2 0x279 JUMP JUMPDEST JUMPDEST PUSH1 0x20 DUP4 ADD SWAP2 POP DUP4 PUSH1 0x1 DUP3 MUL DUP4 ADD GT ISZERO PUSH2 0x324 JUMPI PUSH2 0x323 PUSH2 0x27D JUMP JUMPDEST JUMPDEST SWAP3 POP SWAP3 SWAP1 POP JUMP JUMPDEST PUSH0 DUP1 PUSH0 DUP1 PUSH1 0x40 DUP6 DUP8 SUB SLT ISZERO PUSH2 0x343 JUMPI PUSH2 0x342 PUSH2 0x26D JUMP JUMPDEST JUMPDEST PUSH0 DUP6 ADD CALLDATALOAD PUSH8 0xFFFFFFFFFFFFFFFF DUP2 GT ISZERO PUSH2 0x360 JUMPI PUSH2 0x35F PUSH2 0x271 JUMP JUMPDEST JUMPDEST PUSH2 0x36C DUP8 DUP3 DUP9 ADD PUSH2 0x281 JUMP JUMPDEST SWAP5 POP SWAP5 POP POP PUSH1 0x20 DUP6 ADD CALLDATALOAD PUSH8 0xFFFFFFFFFFFFFFFF DUP2 GT ISZERO PUSH2 0x38F JUMPI PUSH2 0x38E PUSH2 0x271 JUMP JUMPDEST JUMPDEST PUSH2 0x39B DUP8 DUP3 DUP9 ADD PUSH2 0x2D6 JUMP JUMPDEST SWAP3 POP SWAP3 POP POP SWAP3 SWAP6 SWAP2 SWAP5 POP SWAP3 POP JUMP JUMPDEST PUSH0 DUP3 DUP3 MSTORE PUSH1 0x20 DUP3 ADD SWAP1 POP SWAP3 SWAP2 POP POP JUMP JUMPDEST PUSH32 0x4F6E6C792061747461636B657200000000000000000000000000000000000000 PUSH0 DUP3 ADD MSTORE POP JUMP JUMPDEST PUSH0 PUSH2 0x3ED PUSH1 0xD DUP4 PUSH2 0x3A9 JUMP JUMPDEST SWAP2 POP PUSH2 0x3F8 DUP3 PUSH2 0x3B9 JUMP JUMPDEST PUSH1 0x20 DUP3 ADD SWAP1 POP SWAP2 SWAP1 POP JUMP JUMPDEST PUSH0 PUSH1 0x20 DUP3 ADD SWAP1 POP DUP2 DUP2 SUB PUSH0 DUP4 ADD MSTORE PUSH2 0x41A DUP2 PUSH2 0x3E1 JUMP JUMPDEST SWAP1 POP SWAP2 SWAP1 POP JUMP JUMPDEST PUSH32 0x4E487B7100000000000000000000000000000000000000000000000000000000 PUSH0 MSTORE PUSH1 0x32 PUSH1 0x4 MSTORE PUSH1 0x24 PUSH0 REVERT JUMPDEST PUSH2 0x457 DUP2 PUSH2 0x234 JUMP JUMPDEST DUP2 EQ PUSH2 0x461 JUMPI PUSH0 DUP1 REVERT JUMPDEST POP JUMP JUMPDEST PUSH0 DUP2 CALLDATALOAD SWAP1 POP PUSH2 0x472 DUP2 PUSH2 0x44E JUMP JUMPDEST SWAP3 SWAP2 POP POP JUMP JUMPDEST PUSH0 PUSH1 0x20 DUP3 DUP5 SUB SLT ISZERO PUSH2 0x48D JUMPI PUSH2 0x48C PUSH2 0x26D JUMP JUMPDEST JUMPDEST PUSH0 PUSH2 0x49A DUP5 DUP3 DUP6 ADD PUSH2 0x464 JUMP JUMPDEST SWAP2 POP POP SWAP3 SWAP2 POP POP JUMP JUMPDEST PUSH0 DUP2 SWAP1 POP SWAP3 SWAP2 POP POP JUMP JUMPDEST DUP3 DUP2 DUP4 CALLDATACOPY PUSH0 DUP4 DUP4 ADD MSTORE POP POP POP JUMP JUMPDEST PUSH0 PUSH2 0x4C6 DUP4 DUP6 PUSH2 0x4A3 JUMP JUMPDEST SWAP4 POP PUSH2 0x4D3 DUP4 DUP6 DUP5 PUSH2 0x4AD JUMP JUMPDEST DUP3 DUP5 ADD SWAP1 POP SWAP4 SWAP3 POP POP POP JUMP JUMPDEST PUSH0 PUSH2 0x4EB DUP3 DUP5 DUP7 PUSH2 0x4BB JUMP JUMPDEST SWAP2 POP DUP2 SWAP1 POP SWAP4 SWAP3 POP POP POP JUMP JUMPDEST PUSH32 0x4D756C746963617374206661696C656400000000000000000000000000000000 PUSH0 DUP3 ADD MSTORE POP JUMP JUMPDEST PUSH0 PUSH2 0x52B PUSH1 0x10 DUP4 PUSH2 0x3A9 JUMP JUMPDEST SWAP2 POP PUSH2 0x536 DUP3 PUSH2 0x4F7 JUMP JUMPDEST PUSH1 0x20 DUP3 ADD SWAP1 POP SWAP2 SWAP1 POP JUMP JUMPDEST PUSH0 PUSH1 0x20 DUP3 ADD SWAP1 POP DUP2 DUP2 SUB PUSH0 DUP4 ADD MSTORE PUSH2 0x558 DUP2 PUSH2 0x51F JUMP JUMPDEST SWAP1 POP SWAP2 SWAP1 POP JUMP INVALID LOG2 PUSH5 0x6970667358 0x22 SLT KECCAK256 0xAF 0x29 DUP3 0xB8 0x24 PUSH3 0xA4B877 0xE4 PUSH23 0xA162D35D7964CA326B03E8D6F0F6E15F0635DF863E6473 PUSH16 0x6C634300081A00330000000000000000 "
				},
				"gasEstimates": {
					"creation": {
						"codeDepositCost": "285800",
						"executionCost": "infinite",
						"totalCost": "infinite"
					},
					"external": {
						"attacker()": "2483",
						"multicastCall(address[],bytes)": "infinite"
					}
				},
				"methodIdentifiers": {
					"attacker()": "48eb76ee",
					"multicastCall(address[],bytes)": "8c30b953"
				}
			},
			"storageLayout": {
				"storage": [
					{
						"astId": 3,
						"contract": "M/Multi-Cast/MulticastExploitRouter.sol:MulticastExploitRouter",
						"label": "attacker",
						"offset": 0,
						"slot": "0",
						"type": "t_address"
					}
				],
				"types": {
					"t_address": {
						"encoding": "inplace",
						"label": "address",
						"numberOfBytes": "20"
					}
				}
			},
			"userdoc": {
				"kind": "user",
				"methods": {},
				"version": 1
			}
		}
	}
}