{
	"I/Issue-Specific Policy/Role-Specific Function Policy.sol": {
		"RolePolicy": {
			"abi": [
				{
					"inputs": [],
					"stateMutability": "nonpayable",
					"type": "constructor"
				},
				{
					"inputs": [],
					"name": "AccessControlBadConfirmation",
					"type": "error"
				},
				{
					"inputs": [
						{
							"internalType": "address",
							"name": "account",
							"type": "address"
						},
						{
							"internalType": "bytes32",
							"name": "neededRole",
							"type": "bytes32"
						}
					],
					"name": "AccessControlUnauthorizedAccount",
					"type": "error"
				},
				{
					"anonymous": false,
					"inputs": [
						{
							"indexed": true,
							"internalType": "bytes32",
							"name": "role",
							"type": "bytes32"
						},
						{
							"indexed": true,
							"internalType": "bytes32",
							"name": "previousAdminRole",
							"type": "bytes32"
						},
						{
							"indexed": true,
							"internalType": "bytes32",
							"name": "newAdminRole",
							"type": "bytes32"
						}
					],
					"name": "RoleAdminChanged",
					"type": "event"
				},
				{
					"anonymous": false,
					"inputs": [
						{
							"indexed": true,
							"internalType": "bytes32",
							"name": "role",
							"type": "bytes32"
						},
						{
							"indexed": true,
							"internalType": "address",
							"name": "account",
							"type": "address"
						},
						{
							"indexed": true,
							"internalType": "address",
							"name": "sender",
							"type": "address"
						}
					],
					"name": "RoleGranted",
					"type": "event"
				},
				{
					"anonymous": false,
					"inputs": [
						{
							"indexed": true,
							"internalType": "bytes32",
							"name": "role",
							"type": "bytes32"
						},
						{
							"indexed": true,
							"internalType": "address",
							"name": "account",
							"type": "address"
						},
						{
							"indexed": true,
							"internalType": "address",
							"name": "sender",
							"type": "address"
						}
					],
					"name": "RoleRevoked",
					"type": "event"
				},
				{
					"inputs": [],
					"name": "AUDITOR_ROLE",
					"outputs": [
						{
							"internalType": "bytes32",
							"name": "",
							"type": "bytes32"
						}
					],
					"stateMutability": "view",
					"type": "function"
				},
				{
					"inputs": [],
					"name": "DEFAULT_ADMIN_ROLE",
					"outputs": [
						{
							"internalType": "bytes32",
							"name": "",
							"type": "bytes32"
						}
					],
					"stateMutability": "view",
					"type": "function"
				},
				{
					"inputs": [],
					"name": "auditLogs",
					"outputs": [
						{
							"internalType": "string",
							"name": "",
							"type": "string"
						}
					],
					"stateMutability": "view",
					"type": "function"
				},
				{
					"inputs": [
						{
							"internalType": "bytes32",
							"name": "role",
							"type": "bytes32"
						}
					],
					"name": "getRoleAdmin",
					"outputs": [
						{
							"internalType": "bytes32",
							"name": "",
							"type": "bytes32"
						}
					],
					"stateMutability": "view",
					"type": "function"
				},
				{
					"inputs": [
						{
							"internalType": "bytes32",
							"name": "role",
							"type": "bytes32"
						},
						{
							"internalType": "address",
							"name": "account",
							"type": "address"
						}
					],
					"name": "grantRole",
					"outputs": [],
					"stateMutability": "nonpayable",
					"type": "function"
				},
				{
					"inputs": [
						{
							"internalType": "bytes32",
							"name": "role",
							"type": "bytes32"
						},
						{
							"internalType": "address",
							"name": "account",
							"type": "address"
						}
					],
					"name": "hasRole",
					"outputs": [
						{
							"internalType": "bool",
							"name": "",
							"type": "bool"
						}
					],
					"stateMutability": "view",
					"type": "function"
				},
				{
					"inputs": [
						{
							"internalType": "bytes32",
							"name": "role",
							"type": "bytes32"
						},
						{
							"internalType": "address",
							"name": "callerConfirmation",
							"type": "address"
						}
					],
					"name": "renounceRole",
					"outputs": [],
					"stateMutability": "nonpayable",
					"type": "function"
				},
				{
					"inputs": [
						{
							"internalType": "bytes32",
							"name": "role",
							"type": "bytes32"
						},
						{
							"internalType": "address",
							"name": "account",
							"type": "address"
						}
					],
					"name": "revokeRole",
					"outputs": [],
					"stateMutability": "nonpayable",
					"type": "function"
				},
				{
					"inputs": [
						{
							"internalType": "bytes4",
							"name": "interfaceId",
							"type": "bytes4"
						}
					],
					"name": "supportsInterface",
					"outputs": [
						{
							"internalType": "bool",
							"name": "",
							"type": "bool"
						}
					],
					"stateMutability": "view",
					"type": "function"
				}
			],
			"devdoc": {
				"errors": {
					"AccessControlBadConfirmation()": [
						{
							"details": "The caller of a function is not the expected one. NOTE: Don't confuse with {AccessControlUnauthorizedAccount}."
						}
					],
					"AccessControlUnauthorizedAccount(address,bytes32)": [
						{
							"details": "The `account` is missing a role."
						}
					]
				},
				"events": {
					"RoleAdminChanged(bytes32,bytes32,bytes32)": {
						"details": "Emitted when `newAdminRole` is set as ``role``'s admin role, replacing `previousAdminRole` `DEFAULT_ADMIN_ROLE` is the starting admin for all roles, despite {RoleAdminChanged} not being emitted to signal this."
					},
					"RoleGranted(bytes32,address,address)": {
						"details": "Emitted when `account` is granted `role`. `sender` is the account that originated the contract call. This account bears the admin role (for the granted role). Expected in cases where the role was granted using the internal {AccessControl-_grantRole}."
					},
					"RoleRevoked(bytes32,address,address)": {
						"details": "Emitted when `account` is revoked `role`. `sender` is the account that originated the contract call:   - if using `revokeRole`, it is the admin role bearer   - if using `renounceRole`, it is the role bearer (i.e. `account`)"
					}
				},
				"kind": "dev",
				"methods": {
					"getRoleAdmin(bytes32)": {
						"details": "Returns the admin role that controls `role`. See {grantRole} and {revokeRole}. To change a role's admin, use {_setRoleAdmin}."
					},
					"grantRole(bytes32,address)": {
						"details": "Grants `role` to `account`. If `account` had not been already granted `role`, emits a {RoleGranted} event. Requirements: - the caller must have ``role``'s admin role. May emit a {RoleGranted} event."
					},
					"hasRole(bytes32,address)": {
						"details": "Returns `true` if `account` has been granted `role`."
					},
					"renounceRole(bytes32,address)": {
						"details": "Revokes `role` from the calling account. Roles are often managed via {grantRole} and {revokeRole}: this function's purpose is to provide a mechanism for accounts to lose their privileges if they are compromised (such as when a trusted device is misplaced). If the calling account had been revoked `role`, emits a {RoleRevoked} event. Requirements: - the caller must be `callerConfirmation`. May emit a {RoleRevoked} event."
					},
					"revokeRole(bytes32,address)": {
						"details": "Revokes `role` from `account`. If `account` had been granted `role`, emits a {RoleRevoked} event. Requirements: - the caller must have ``role``'s admin role. May emit a {RoleRevoked} event."
					},
					"supportsInterface(bytes4)": {
						"details": "See {IERC165-supportsInterface}."
					}
				},
				"version": 1
			},
			"evm": {
				"assembly": "    /* \"I/Issue-Specific Policy/Role-Specific Function Policy.sol\":86:420  contract RolePolicy is AccessControl {... */\n  mstore(0x40, 0x80)\n    /* \"I/Issue-Specific Policy/Role-Specific Function Policy.sol\":200:273  constructor() {... */\n  callvalue\n  dup1\n  iszero\n  tag_1\n  jumpi\n  0x00\n  dup1\n  revert\ntag_1:\n  pop\n    /* \"I/Issue-Specific Policy/Role-Specific Function Policy.sol\":224:266  _grantRole(DEFAULT_ADMIN_ROLE, msg.sender) */\n  tag_4\n    /* \"@openzeppelin/contracts/access/AccessControl.sol\":2232:2236  0x00 */\n  0x00\n    /* \"I/Issue-Specific Policy/Role-Specific Function Policy.sol\":235:253  DEFAULT_ADMIN_ROLE */\n  dup1\n  shl\n    /* \"I/Issue-Specific Policy/Role-Specific Function Policy.sol\":255:265  msg.sender */\n  caller\n    /* \"I/Issue-Specific Policy/Role-Specific Function Policy.sol\":224:234  _grantRole */\n  shl(0x20, tag_5)\n    /* \"I/Issue-Specific Policy/Role-Specific Function Policy.sol\":224:266  _grantRole(DEFAULT_ADMIN_ROLE, msg.sender) */\n  0x20\n  shr\n  jump\t// in\ntag_4:\n  pop\n    /* \"I/Issue-Specific Policy/Role-Specific Function Policy.sol\":86:420  contract RolePolicy is AccessControl {... */\n  jump(tag_6)\n    /* \"@openzeppelin/contracts/access/AccessControl.sol\":6179:6495  function _grantRole(bytes32 role, address account) internal virtual returns (bool) {... */\ntag_5:\n    /* \"@openzeppelin/contracts/access/AccessControl.sol\":6256:6260  bool */\n  0x00\n    /* \"@openzeppelin/contracts/access/AccessControl.sol\":6277:6299  hasRole(role, account) */\n  tag_8\n    /* \"@openzeppelin/contracts/access/AccessControl.sol\":6285:6289  role */\n  dup4\n    /* \"@openzeppelin/contracts/access/AccessControl.sol\":6291:6298  account */\n  dup4\n    /* \"@openzeppelin/contracts/access/AccessControl.sol\":6277:6284  hasRole */\n  shl(0x20, tag_9)\n    /* \"@openzeppelin/contracts/access/AccessControl.sol\":6277:6299  hasRole(role, account) */\n  0x20\n  shr\n  jump\t// in\ntag_8:\n    /* \"@openzeppelin/contracts/access/AccessControl.sol\":6272:6489  if (!hasRole(role, account)) {... */\n  tag_10\n  jumpi\n    /* \"@openzeppelin/contracts/access/AccessControl.sol\":6347:6351  true */\n  0x01\n    /* \"@openzeppelin/contracts/access/AccessControl.sol\":6315:6321  _roles */\n  0x00\n    /* \"@openzeppelin/contracts/access/AccessControl.sol\":6315:6327  _roles[role] */\n  dup1\n    /* \"@openzeppelin/contracts/access/AccessControl.sol\":6322:6326  role */\n  dup6\n    /* \"@openzeppelin/contracts/access/AccessControl.sol\":6315:6327  _roles[role] */\n  dup2\n  mstore\n  0x20\n  add\n  swap1\n  dup2\n  mstore\n  0x20\n  add\n  0x00\n  keccak256\n    /* \"@openzeppelin/contracts/access/AccessControl.sol\":6315:6335  _roles[role].hasRole */\n  0x00\n  add\n    /* \"@openzeppelin/contracts/access/AccessControl.sol\":6315:6344  _roles[role].hasRole[account] */\n  0x00\n    /* \"@openzeppelin/contracts/access/AccessControl.sol\":6336:6343  account */\n  dup5\n    /* \"@openzeppelin/contracts/access/AccessControl.sol\":6315:6344  _roles[role].hasRole[account] */\n  0xffffffffffffffffffffffffffffffffffffffff\n  and\n  0xffffffffffffffffffffffffffffffffffffffff\n  and\n  dup2\n  mstore\n  0x20\n  add\n  swap1\n  dup2\n  mstore\n  0x20\n  add\n  0x00\n  keccak256\n  0x00\n    /* \"@openzeppelin/contracts/access/AccessControl.sol\":6315:6351  _roles[role].hasRole[account] = true */\n  0x0100\n  exp\n  dup2\n  sload\n  dup2\n  0xff\n  mul\n  not\n  and\n  swap1\n  dup4\n  iszero\n  iszero\n  mul\n  or\n  swap1\n  sstore\n  pop\n    /* \"@openzeppelin/contracts/access/AccessControl.sol\":6397:6409  _msgSender() */\n  tag_11\n    /* \"@openzeppelin/contracts/access/AccessControl.sol\":6397:6407  _msgSender */\n  shl(0x20, tag_12)\n    /* \"@openzeppelin/contracts/access/AccessControl.sol\":6397:6409  _msgSender() */\n  0x20\n  shr\n  jump\t// in\ntag_11:\n    /* \"@openzeppelin/contracts/access/AccessControl.sol\":6370:6410  RoleGranted(role, account, _msgSender()) */\n  0xffffffffffffffffffffffffffffffffffffffff\n  and\n    /* \"@openzeppelin/contracts/access/AccessControl.sol\":6388:6395  account */\n  dup3\n    /* \"@openzeppelin/contracts/access/AccessControl.sol\":6370:6410  RoleGranted(role, account, _msgSender()) */\n  0xffffffffffffffffffffffffffffffffffffffff\n  and\n    /* \"@openzeppelin/contracts/access/AccessControl.sol\":6382:6386  role */\n  dup5\n    /* \"@openzeppelin/contracts/access/AccessControl.sol\":6370:6410  RoleGranted(role, account, _msgSender()) */\n  0x2f8788117e7eff1d82e926ec794901d17c78024a50270940304540a733656f0d\n  mload(0x40)\n  mload(0x40)\n  dup1\n  swap2\n  sub\n  swap1\n  log4\n    /* \"@openzeppelin/contracts/access/AccessControl.sol\":6431:6435  true */\n  0x01\n    /* \"@openzeppelin/contracts/access/AccessControl.sol\":6424:6435  return true */\n  swap1\n  pop\n  jump(tag_7)\n    /* \"@openzeppelin/contracts/access/AccessControl.sol\":6272:6489  if (!hasRole(role, account)) {... */\ntag_10:\n    /* \"@openzeppelin/contracts/access/AccessControl.sol\":6473:6478  false */\n  0x00\n    /* \"@openzeppelin/contracts/access/AccessControl.sol\":6466:6478  return false */\n  swap1\n  pop\n    /* \"@openzeppelin/contracts/access/AccessControl.sol\":6179:6495  function _grantRole(bytes32 role, address account) internal virtual returns (bool) {... */\ntag_7:\n  swap3\n  swap2\n  pop\n  pop\n  jump\t// out\n    /* \"@openzeppelin/contracts/access/AccessControl.sol\":2854:2990  function hasRole(bytes32 role, address account) public view virtual returns (bool) {... */\ntag_9:\n    /* \"@openzeppelin/contracts/access/AccessControl.sol\":2931:2935  bool */\n  0x00\n    /* \"@openzeppelin/contracts/access/AccessControl.sol\":2954:2960  _roles */\n  dup1\n    /* \"@openzeppelin/contracts/access/AccessControl.sol\":2954:2966  _roles[role] */\n  0x00\n    /* \"@openzeppelin/contracts/access/AccessControl.sol\":2961:2965  role */\n  dup5\n    /* \"@openzeppelin/contracts/access/AccessControl.sol\":2954:2966  _roles[role] */\n  dup2\n  mstore\n  0x20\n  add\n  swap1\n  dup2\n  mstore\n  0x20\n  add\n  0x00\n  keccak256\n    /* \"@openzeppelin/contracts/access/AccessControl.sol\":2954:2974  _roles[role].hasRole */\n  0x00\n  add\n    /* \"@openzeppelin/contracts/access/AccessControl.sol\":2954:2983  _roles[role].hasRole[account] */\n  0x00\n    /* \"@openzeppelin/contracts/access/AccessControl.sol\":2975:2982  account */\n  dup4\n    /* \"@openzeppelin/contracts/access/AccessControl.sol\":2954:2983  _roles[role].hasRole[account] */\n  0xffffffffffffffffffffffffffffffffffffffff\n  and\n  0xffffffffffffffffffffffffffffffffffffffff\n  and\n  dup2\n  mstore\n  0x20\n  add\n  swap1\n  dup2\n  mstore\n  0x20\n  add\n  0x00\n  keccak256\n  0x00\n  swap1\n  sload\n  swap1\n  0x0100\n  exp\n  swap1\n  div\n  0xff\n  and\n    /* \"@openzeppelin/contracts/access/AccessControl.sol\":2947:2983  return _roles[role].hasRole[account] */\n  swap1\n  pop\n    /* \"@openzeppelin/contracts/access/AccessControl.sol\":2854:2990  function hasRole(bytes32 role, address account) public view virtual returns (bool) {... */\n  swap3\n  swap2\n  pop\n  pop\n  jump\t// out\n    /* \"@openzeppelin/contracts/utils/Context.sol\":656:752  function _msgSender() internal view virtual returns (address) {... */\ntag_12:\n    /* \"@openzeppelin/contracts/utils/Context.sol\":709:716  address */\n  0x00\n    /* \"@openzeppelin/contracts/utils/Context.sol\":735:745  msg.sender */\n  caller\n    /* \"@openzeppelin/contracts/utils/Context.sol\":728:745  return msg.sender */\n  swap1\n  pop\n    /* \"@openzeppelin/contracts/utils/Context.sol\":656:752  function _msgSender() internal view virtual returns (address) {... */\n  swap1\n  jump\t// out\n    /* \"I/Issue-Specific Policy/Role-Specific Function Policy.sol\":86:420  contract RolePolicy is AccessControl {... */\ntag_6:\n  dataSize(sub_0)\n  dup1\n  dataOffset(sub_0)\n  0x00\n  codecopy\n  0x00\n  return\nstop\n\nsub_0: assembly {\n        /* \"I/Issue-Specific Policy/Role-Specific Function Policy.sol\":86:420  contract RolePolicy is AccessControl {... */\n      mstore(0x40, 0x80)\n      callvalue\n      dup1\n      iszero\n      tag_1\n      jumpi\n      0x00\n      dup1\n      revert\n    tag_1:\n      pop\n      jumpi(tag_2, lt(calldatasize, 0x04))\n      shr(0xe0, calldataload(0x00))\n      dup1\n      0x6e1d616e\n      gt\n      tag_12\n      jumpi\n      dup1\n      0x6e1d616e\n      eq\n      tag_7\n      jumpi\n      dup1\n      0x88d1b0ad\n      eq\n      tag_8\n      jumpi\n      dup1\n      0x91d14854\n      eq\n      tag_9\n      jumpi\n      dup1\n      0xa217fddf\n      eq\n      tag_10\n      jumpi\n      dup1\n      0xd547741f\n      eq\n      tag_11\n      jumpi\n      jump(tag_2)\n    tag_12:\n      dup1\n      0x01ffc9a7\n      eq\n      tag_3\n      jumpi\n      dup1\n      0x248a9ca3\n      eq\n      tag_4\n      jumpi\n      dup1\n      0x2f2ff15d\n      eq\n      tag_5\n      jumpi\n      dup1\n      0x36568abe\n      eq\n      tag_6\n      jumpi\n    tag_2:\n      0x00\n      dup1\n      revert\n        /* \"@openzeppelin/contracts/access/AccessControl.sol\":2565:2767  function supportsInterface(bytes4 interfaceId) public view virtual override returns (bool) {... */\n    tag_3:\n      tag_13\n      0x04\n      dup1\n      calldatasize\n      sub\n      dup2\n      add\n      swap1\n      tag_14\n      swap2\n      swap1\n      tag_15\n      jump\t// in\n    tag_14:\n      tag_16\n      jump\t// in\n    tag_13:\n      mload(0x40)\n      tag_17\n      swap2\n      swap1\n      tag_18\n      jump\t// in\n    tag_17:\n      mload(0x40)\n      dup1\n      swap2\n      sub\n      swap1\n      return\n        /* \"@openzeppelin/contracts/access/AccessControl.sol\":3810:3930  function getRoleAdmin(bytes32 role) public view virtual returns (bytes32) {... */\n    tag_4:\n      tag_19\n      0x04\n      dup1\n      calldatasize\n      sub\n      dup2\n      add\n      swap1\n      tag_20\n      swap2\n      swap1\n      tag_21\n      jump\t// in\n    tag_20:\n      tag_22\n      jump\t// in\n    tag_19:\n      mload(0x40)\n      tag_23\n      swap2\n      swap1\n      tag_24\n      jump\t// in\n    tag_23:\n      mload(0x40)\n      dup1\n      swap2\n      sub\n      swap1\n      return\n        /* \"@openzeppelin/contracts/access/AccessControl.sol\":4226:4362  function grantRole(bytes32 role, address account) public virtual onlyRole(getRoleAdmin(role)) {... */\n    tag_5:\n      tag_25\n      0x04\n      dup1\n      calldatasize\n      sub\n      dup2\n      add\n      swap1\n      tag_26\n      swap2\n      swap1\n      tag_27\n      jump\t// in\n    tag_26:\n      tag_28\n      jump\t// in\n    tag_25:\n      stop\n        /* \"@openzeppelin/contracts/access/AccessControl.sol\":5328:5573  function renounceRole(bytes32 role, address callerConfirmation) public virtual {... */\n    tag_6:\n      tag_29\n      0x04\n      dup1\n      calldatasize\n      sub\n      dup2\n      add\n      swap1\n      tag_30\n      swap2\n      swap1\n      tag_27\n      jump\t// in\n    tag_30:\n      tag_31\n      jump\t// in\n    tag_29:\n      stop\n        /* \"I/Issue-Specific Policy/Role-Specific Function Policy.sol\":129:193  bytes32 public constant AUDITOR_ROLE = keccak256(\"AUDITOR_ROLE\") */\n    tag_7:\n      tag_32\n      tag_33\n      jump\t// in\n    tag_32:\n      mload(0x40)\n      tag_34\n      swap2\n      swap1\n      tag_24\n      jump\t// in\n    tag_34:\n      mload(0x40)\n      dup1\n      swap2\n      sub\n      swap1\n      return\n        /* \"I/Issue-Specific Policy/Role-Specific Function Policy.sol\":279:418  function auditLogs() external view onlyRole(AUDITOR_ROLE) returns (string memory) {... */\n    tag_8:\n      tag_35\n      tag_36\n      jump\t// in\n    tag_35:\n      mload(0x40)\n      tag_37\n      swap2\n      swap1\n      tag_38\n      jump\t// in\n    tag_37:\n      mload(0x40)\n      dup1\n      swap2\n      sub\n      swap1\n      return\n        /* \"@openzeppelin/contracts/access/AccessControl.sol\":2854:2990  function hasRole(bytes32 role, address account) public view virtual returns (bool) {... */\n    tag_9:\n      tag_39\n      0x04\n      dup1\n      calldatasize\n      sub\n      dup2\n      add\n      swap1\n      tag_40\n      swap2\n      swap1\n      tag_27\n      jump\t// in\n    tag_40:\n      tag_41\n      jump\t// in\n    tag_39:\n      mload(0x40)\n      tag_42\n      swap2\n      swap1\n      tag_18\n      jump\t// in\n    tag_42:\n      mload(0x40)\n      dup1\n      swap2\n      sub\n      swap1\n      return\n        /* \"@openzeppelin/contracts/access/AccessControl.sol\":2187:2236  bytes32 public constant DEFAULT_ADMIN_ROLE = 0x00 */\n    tag_10:\n      tag_43\n      tag_44\n      jump\t// in\n    tag_43:\n      mload(0x40)\n      tag_45\n      swap2\n      swap1\n      tag_24\n      jump\t// in\n    tag_45:\n      mload(0x40)\n      dup1\n      swap2\n      sub\n      swap1\n      return\n        /* \"@openzeppelin/contracts/access/AccessControl.sol\":4642:4780  function revokeRole(bytes32 role, address account) public virtual onlyRole(getRoleAdmin(role)) {... */\n    tag_11:\n      tag_46\n      0x04\n      dup1\n      calldatasize\n      sub\n      dup2\n      add\n      swap1\n      tag_47\n      swap2\n      swap1\n      tag_27\n      jump\t// in\n    tag_47:\n      tag_48\n      jump\t// in\n    tag_46:\n      stop\n        /* \"@openzeppelin/contracts/access/AccessControl.sol\":2565:2767  function supportsInterface(bytes4 interfaceId) public view virtual override returns (bool) {... */\n    tag_16:\n        /* \"@openzeppelin/contracts/access/AccessControl.sol\":2650:2654  bool */\n      0x00\n        /* \"@openzeppelin/contracts/access/AccessControl.sol\":2688:2720  type(IAccessControl).interfaceId */\n      0x7965db0b00000000000000000000000000000000000000000000000000000000\n        /* \"@openzeppelin/contracts/access/AccessControl.sol\":2673:2720  interfaceId == type(IAccessControl).interfaceId */\n      not(0xffffffffffffffffffffffffffffffffffffffffffffffffffffffff)\n      and\n        /* \"@openzeppelin/contracts/access/AccessControl.sol\":2673:2684  interfaceId */\n      dup3\n        /* \"@openzeppelin/contracts/access/AccessControl.sol\":2673:2720  interfaceId == type(IAccessControl).interfaceId */\n      not(0xffffffffffffffffffffffffffffffffffffffffffffffffffffffff)\n      and\n      eq\n        /* \"@openzeppelin/contracts/access/AccessControl.sol\":2673:2760  interfaceId == type(IAccessControl).interfaceId || super.supportsInterface(interfaceId) */\n      dup1\n      tag_50\n      jumpi\n      pop\n        /* \"@openzeppelin/contracts/access/AccessControl.sol\":2724:2760  super.supportsInterface(interfaceId) */\n      tag_51\n        /* \"@openzeppelin/contracts/access/AccessControl.sol\":2748:2759  interfaceId */\n      dup3\n        /* \"@openzeppelin/contracts/access/AccessControl.sol\":2724:2747  super.supportsInterface */\n      tag_52\n        /* \"@openzeppelin/contracts/access/AccessControl.sol\":2724:2760  super.supportsInterface(interfaceId) */\n      jump\t// in\n    tag_51:\n        /* \"@openzeppelin/contracts/access/AccessControl.sol\":2673:2760  interfaceId == type(IAccessControl).interfaceId || super.supportsInterface(interfaceId) */\n    tag_50:\n        /* \"@openzeppelin/contracts/access/AccessControl.sol\":2666:2760  return interfaceId == type(IAccessControl).interfaceId || super.supportsInterface(interfaceId) */\n      swap1\n      pop\n        /* \"@openzeppelin/contracts/access/AccessControl.sol\":2565:2767  function supportsInterface(bytes4 interfaceId) public view virtual override returns (bool) {... */\n      swap2\n      swap1\n      pop\n      jump\t// out\n        /* \"@openzeppelin/contracts/access/AccessControl.sol\":3810:3930  function getRoleAdmin(bytes32 role) public view virtual returns (bytes32) {... */\n    tag_22:\n        /* \"@openzeppelin/contracts/access/AccessControl.sol\":3875:3882  bytes32 */\n      0x00\n        /* \"@openzeppelin/contracts/access/AccessControl.sol\":3901:3907  _roles */\n      dup1\n        /* \"@openzeppelin/contracts/access/AccessControl.sol\":3901:3913  _roles[role] */\n      0x00\n        /* \"@openzeppelin/contracts/access/AccessControl.sol\":3908:3912  role */\n      dup4\n        /* \"@openzeppelin/contracts/access/AccessControl.sol\":3901:3913  _roles[role] */\n      dup2\n      mstore\n      0x20\n      add\n      swap1\n      dup2\n      mstore\n      0x20\n      add\n      0x00\n      keccak256\n        /* \"@openzeppelin/contracts/access/AccessControl.sol\":3901:3923  _roles[role].adminRole */\n      0x01\n      add\n      sload\n        /* \"@openzeppelin/contracts/access/AccessControl.sol\":3894:3923  return _roles[role].adminRole */\n      swap1\n      pop\n        /* \"@openzeppelin/contracts/access/AccessControl.sol\":3810:3930  function getRoleAdmin(bytes32 role) public view virtual returns (bytes32) {... */\n      swap2\n      swap1\n      pop\n      jump\t// out\n        /* \"@openzeppelin/contracts/access/AccessControl.sol\":4226:4362  function grantRole(bytes32 role, address account) public virtual onlyRole(getRoleAdmin(role)) {... */\n    tag_28:\n        /* \"@openzeppelin/contracts/access/AccessControl.sol\":4300:4318  getRoleAdmin(role) */\n      tag_54\n        /* \"@openzeppelin/contracts/access/AccessControl.sol\":4313:4317  role */\n      dup3\n        /* \"@openzeppelin/contracts/access/AccessControl.sol\":4300:4312  getRoleAdmin */\n      tag_22\n        /* \"@openzeppelin/contracts/access/AccessControl.sol\":4300:4318  getRoleAdmin(role) */\n      jump\t// in\n    tag_54:\n        /* \"@openzeppelin/contracts/access/AccessControl.sol\":2464:2480  _checkRole(role) */\n      tag_56\n        /* \"@openzeppelin/contracts/access/AccessControl.sol\":2475:2479  role */\n      dup2\n        /* \"@openzeppelin/contracts/access/AccessControl.sol\":2464:2474  _checkRole */\n      tag_57\n        /* \"@openzeppelin/contracts/access/AccessControl.sol\":2464:2480  _checkRole(role) */\n      jump\t// in\n    tag_56:\n        /* \"@openzeppelin/contracts/access/AccessControl.sol\":4330:4355  _grantRole(role, account) */\n      tag_59\n        /* \"@openzeppelin/contracts/access/AccessControl.sol\":4341:4345  role */\n      dup4\n        /* \"@openzeppelin/contracts/access/AccessControl.sol\":4347:4354  account */\n      dup4\n        /* \"@openzeppelin/contracts/access/AccessControl.sol\":4330:4340  _grantRole */\n      tag_60\n        /* \"@openzeppelin/contracts/access/AccessControl.sol\":4330:4355  _grantRole(role, account) */\n      jump\t// in\n    tag_59:\n      pop\n        /* \"@openzeppelin/contracts/access/AccessControl.sol\":4226:4362  function grantRole(bytes32 role, address account) public virtual onlyRole(getRoleAdmin(role)) {... */\n      pop\n      pop\n      pop\n      jump\t// out\n        /* \"@openzeppelin/contracts/access/AccessControl.sol\":5328:5573  function renounceRole(bytes32 role, address callerConfirmation) public virtual {... */\n    tag_31:\n        /* \"@openzeppelin/contracts/access/AccessControl.sol\":5443:5455  _msgSender() */\n      tag_62\n        /* \"@openzeppelin/contracts/access/AccessControl.sol\":5443:5453  _msgSender */\n      tag_63\n        /* \"@openzeppelin/contracts/access/AccessControl.sol\":5443:5455  _msgSender() */\n      jump\t// in\n    tag_62:\n        /* \"@openzeppelin/contracts/access/AccessControl.sol\":5421:5455  callerConfirmation != _msgSender() */\n      0xffffffffffffffffffffffffffffffffffffffff\n      and\n        /* \"@openzeppelin/contracts/access/AccessControl.sol\":5421:5439  callerConfirmation */\n      dup2\n        /* \"@openzeppelin/contracts/access/AccessControl.sol\":5421:5455  callerConfirmation != _msgSender() */\n      0xffffffffffffffffffffffffffffffffffffffff\n      and\n      eq\n        /* \"@openzeppelin/contracts/access/AccessControl.sol\":5417:5519  if (callerConfirmation != _msgSender()) {... */\n      tag_64\n      jumpi\n        /* \"@openzeppelin/contracts/access/AccessControl.sol\":5478:5508  AccessControlBadConfirmation() */\n      mload(0x40)\n      0x6697b23200000000000000000000000000000000000000000000000000000000\n      dup2\n      mstore\n      0x04\n      add\n      mload(0x40)\n      dup1\n      swap2\n      sub\n      swap1\n      revert\n        /* \"@openzeppelin/contracts/access/AccessControl.sol\":5417:5519  if (callerConfirmation != _msgSender()) {... */\n    tag_64:\n        /* \"@openzeppelin/contracts/access/AccessControl.sol\":5529:5566  _revokeRole(role, callerConfirmation) */\n      tag_65\n        /* \"@openzeppelin/contracts/access/AccessControl.sol\":5541:5545  role */\n      dup3\n        /* \"@openzeppelin/contracts/access/AccessControl.sol\":5547:5565  callerConfirmation */\n      dup3\n        /* \"@openzeppelin/contracts/access/AccessControl.sol\":5529:5540  _revokeRole */\n      tag_66\n        /* \"@openzeppelin/contracts/access/AccessControl.sol\":5529:5566  _revokeRole(role, callerConfirmation) */\n      jump\t// in\n    tag_65:\n      pop\n        /* \"@openzeppelin/contracts/access/AccessControl.sol\":5328:5573  function renounceRole(bytes32 role, address callerConfirmation) public virtual {... */\n      pop\n      pop\n      jump\t// out\n        /* \"I/Issue-Specific Policy/Role-Specific Function Policy.sol\":129:193  bytes32 public constant AUDITOR_ROLE = keccak256(\"AUDITOR_ROLE\") */\n    tag_33:\n        /* \"I/Issue-Specific Policy/Role-Specific Function Policy.sol\":168:193  keccak256(\"AUDITOR_ROLE\") */\n      0x59a1c48e5837ad7a7f3dcedcbe129bf3249ec4fbf651fd4f5e2600ead39fe2f5\n        /* \"I/Issue-Specific Policy/Role-Specific Function Policy.sol\":129:193  bytes32 public constant AUDITOR_ROLE = keccak256(\"AUDITOR_ROLE\") */\n      dup2\n      jump\t// out\n        /* \"I/Issue-Specific Policy/Role-Specific Function Policy.sol\":279:418  function auditLogs() external view onlyRole(AUDITOR_ROLE) returns (string memory) {... */\n    tag_36:\n        /* \"I/Issue-Specific Policy/Role-Specific Function Policy.sol\":346:359  string memory */\n      0x60\n        /* \"I/Issue-Specific Policy/Role-Specific Function Policy.sol\":168:193  keccak256(\"AUDITOR_ROLE\") */\n      0x59a1c48e5837ad7a7f3dcedcbe129bf3249ec4fbf651fd4f5e2600ead39fe2f5\n        /* \"@openzeppelin/contracts/access/AccessControl.sol\":2464:2480  _checkRole(role) */\n      tag_68\n        /* \"@openzeppelin/contracts/access/AccessControl.sol\":2475:2479  role */\n      dup2\n        /* \"@openzeppelin/contracts/access/AccessControl.sol\":2464:2474  _checkRole */\n      tag_57\n        /* \"@openzeppelin/contracts/access/AccessControl.sol\":2464:2480  _checkRole(role) */\n      jump\t// in\n    tag_68:\n        /* \"I/Issue-Specific Policy/Role-Specific Function Policy.sol\":371:411  return \"Logs available to auditors only\" */\n      mload(0x40)\n      dup1\n      0x40\n      add\n      0x40\n      mstore\n      dup1\n      0x1f\n      dup2\n      mstore\n      0x20\n      add\n      0x4c6f677320617661696c61626c6520746f2061756469746f7273206f6e6c7900\n      dup2\n      mstore\n      pop\n      swap2\n      pop\n        /* \"I/Issue-Specific Policy/Role-Specific Function Policy.sol\":279:418  function auditLogs() external view onlyRole(AUDITOR_ROLE) returns (string memory) {... */\n      pop\n      swap1\n      jump\t// out\n        /* \"@openzeppelin/contracts/access/AccessControl.sol\":2854:2990  function hasRole(bytes32 role, address account) public view virtual returns (bool) {... */\n    tag_41:\n        /* \"@openzeppelin/contracts/access/AccessControl.sol\":2931:2935  bool */\n      0x00\n        /* \"@openzeppelin/contracts/access/AccessControl.sol\":2954:2960  _roles */\n      dup1\n        /* \"@openzeppelin/contracts/access/AccessControl.sol\":2954:2966  _roles[role] */\n      0x00\n        /* \"@openzeppelin/contracts/access/AccessControl.sol\":2961:2965  role */\n      dup5\n        /* \"@openzeppelin/contracts/access/AccessControl.sol\":2954:2966  _roles[role] */\n      dup2\n      mstore\n      0x20\n      add\n      swap1\n      dup2\n      mstore\n      0x20\n      add\n      0x00\n      keccak256\n        /* \"@openzeppelin/contracts/access/AccessControl.sol\":2954:2974  _roles[role].hasRole */\n      0x00\n      add\n        /* \"@openzeppelin/contracts/access/AccessControl.sol\":2954:2983  _roles[role].hasRole[account] */\n      0x00\n        /* \"@openzeppelin/contracts/access/AccessControl.sol\":2975:2982  account */\n      dup4\n        /* \"@openzeppelin/contracts/access/AccessControl.sol\":2954:2983  _roles[role].hasRole[account] */\n      0xffffffffffffffffffffffffffffffffffffffff\n      and\n      0xffffffffffffffffffffffffffffffffffffffff\n      and\n      dup2\n      mstore\n      0x20\n      add\n      swap1\n      dup2\n      mstore\n      0x20\n      add\n      0x00\n      keccak256\n      0x00\n      swap1\n      sload\n      swap1\n      0x0100\n      exp\n      swap1\n      div\n      0xff\n      and\n        /* \"@openzeppelin/contracts/access/AccessControl.sol\":2947:2983  return _roles[role].hasRole[account] */\n      swap1\n      pop\n        /* \"@openzeppelin/contracts/access/AccessControl.sol\":2854:2990  function hasRole(bytes32 role, address account) public view virtual returns (bool) {... */\n      swap3\n      swap2\n      pop\n      pop\n      jump\t// out\n        /* \"@openzeppelin/contracts/access/AccessControl.sol\":2187:2236  bytes32 public constant DEFAULT_ADMIN_ROLE = 0x00 */\n    tag_44:\n        /* \"@openzeppelin/contracts/access/AccessControl.sol\":2232:2236  0x00 */\n      0x00\n        /* \"@openzeppelin/contracts/access/AccessControl.sol\":2187:2236  bytes32 public constant DEFAULT_ADMIN_ROLE = 0x00 */\n      dup1\n      shl\n      dup2\n      jump\t// out\n        /* \"@openzeppelin/contracts/access/AccessControl.sol\":4642:4780  function revokeRole(bytes32 role, address account) public virtual onlyRole(getRoleAdmin(role)) {... */\n    tag_48:\n        /* \"@openzeppelin/contracts/access/AccessControl.sol\":4717:4735  getRoleAdmin(role) */\n      tag_71\n        /* \"@openzeppelin/contracts/access/AccessControl.sol\":4730:4734  role */\n      dup3\n        /* \"@openzeppelin/contracts/access/AccessControl.sol\":4717:4729  getRoleAdmin */\n      tag_22\n        /* \"@openzeppelin/contracts/access/AccessControl.sol\":4717:4735  getRoleAdmin(role) */\n      jump\t// in\n    tag_71:\n        /* \"@openzeppelin/contracts/access/AccessControl.sol\":2464:2480  _checkRole(role) */\n      tag_73\n        /* \"@openzeppelin/contracts/access/AccessControl.sol\":2475:2479  role */\n      dup2\n        /* \"@openzeppelin/contracts/access/AccessControl.sol\":2464:2474  _checkRole */\n      tag_57\n        /* \"@openzeppelin/contracts/access/AccessControl.sol\":2464:2480  _checkRole(role) */\n      jump\t// in\n    tag_73:\n        /* \"@openzeppelin/contracts/access/AccessControl.sol\":4747:4773  _revokeRole(role, account) */\n      tag_75\n        /* \"@openzeppelin/contracts/access/AccessControl.sol\":4759:4763  role */\n      dup4\n        /* \"@openzeppelin/contracts/access/AccessControl.sol\":4765:4772  account */\n      dup4\n        /* \"@openzeppelin/contracts/access/AccessControl.sol\":4747:4758  _revokeRole */\n      tag_66\n        /* \"@openzeppelin/contracts/access/AccessControl.sol\":4747:4773  _revokeRole(role, account) */\n      jump\t// in\n    tag_75:\n      pop\n        /* \"@openzeppelin/contracts/access/AccessControl.sol\":4642:4780  function revokeRole(bytes32 role, address account) public virtual onlyRole(getRoleAdmin(role)) {... */\n      pop\n      pop\n      pop\n      jump\t// out\n        /* \"@openzeppelin/contracts/utils/introspection/ERC165.sol\":763:909  function supportsInterface(bytes4 interfaceId) public view virtual returns (bool) {... */\n    tag_52:\n        /* \"@openzeppelin/contracts/utils/introspection/ERC165.sol\":839:843  bool */\n      0x00\n        /* \"@openzeppelin/contracts/utils/introspection/ERC165.sol\":877:902  type(IERC165).interfaceId */\n      0x01ffc9a700000000000000000000000000000000000000000000000000000000\n        /* \"@openzeppelin/contracts/utils/introspection/ERC165.sol\":862:902  interfaceId == type(IERC165).interfaceId */\n      not(0xffffffffffffffffffffffffffffffffffffffffffffffffffffffff)\n      and\n        /* \"@openzeppelin/contracts/utils/introspection/ERC165.sol\":862:873  interfaceId */\n      dup3\n        /* \"@openzeppelin/contracts/utils/introspection/ERC165.sol\":862:902  interfaceId == type(IERC165).interfaceId */\n      not(0xffffffffffffffffffffffffffffffffffffffffffffffffffffffff)\n      and\n      eq\n        /* \"@openzeppelin/contracts/utils/introspection/ERC165.sol\":855:902  return interfaceId == type(IERC165).interfaceId */\n      swap1\n      pop\n        /* \"@openzeppelin/contracts/utils/introspection/ERC165.sol\":763:909  function supportsInterface(bytes4 interfaceId) public view virtual returns (bool) {... */\n      swap2\n      swap1\n      pop\n      jump\t// out\n        /* \"@openzeppelin/contracts/access/AccessControl.sol\":3199:3302  function _checkRole(bytes32 role) internal view virtual {... */\n    tag_57:\n        /* \"@openzeppelin/contracts/access/AccessControl.sol\":3265:3295  _checkRole(role, _msgSender()) */\n      tag_78\n        /* \"@openzeppelin/contracts/access/AccessControl.sol\":3276:3280  role */\n      dup2\n        /* \"@openzeppelin/contracts/access/AccessControl.sol\":3282:3294  _msgSender() */\n      tag_79\n        /* \"@openzeppelin/contracts/access/AccessControl.sol\":3282:3292  _msgSender */\n      tag_63\n        /* \"@openzeppelin/contracts/access/AccessControl.sol\":3282:3294  _msgSender() */\n      jump\t// in\n    tag_79:\n        /* \"@openzeppelin/contracts/access/AccessControl.sol\":3265:3275  _checkRole */\n      tag_80\n        /* \"@openzeppelin/contracts/access/AccessControl.sol\":3265:3295  _checkRole(role, _msgSender()) */\n      jump\t// in\n    tag_78:\n        /* \"@openzeppelin/contracts/access/AccessControl.sol\":3199:3302  function _checkRole(bytes32 role) internal view virtual {... */\n      pop\n      jump\t// out\n        /* \"@openzeppelin/contracts/access/AccessControl.sol\":6179:6495  function _grantRole(bytes32 role, address account) internal virtual returns (bool) {... */\n    tag_60:\n        /* \"@openzeppelin/contracts/access/AccessControl.sol\":6256:6260  bool */\n      0x00\n        /* \"@openzeppelin/contracts/access/AccessControl.sol\":6277:6299  hasRole(role, account) */\n      tag_82\n        /* \"@openzeppelin/contracts/access/AccessControl.sol\":6285:6289  role */\n      dup4\n        /* \"@openzeppelin/contracts/access/AccessControl.sol\":6291:6298  account */\n      dup4\n        /* \"@openzeppelin/contracts/access/AccessControl.sol\":6277:6284  hasRole */\n      tag_41\n        /* \"@openzeppelin/contracts/access/AccessControl.sol\":6277:6299  hasRole(role, account) */\n      jump\t// in\n    tag_82:\n        /* \"@openzeppelin/contracts/access/AccessControl.sol\":6272:6489  if (!hasRole(role, account)) {... */\n      tag_83\n      jumpi\n        /* \"@openzeppelin/contracts/access/AccessControl.sol\":6347:6351  true */\n      0x01\n        /* \"@openzeppelin/contracts/access/AccessControl.sol\":6315:6321  _roles */\n      0x00\n        /* \"@openzeppelin/contracts/access/AccessControl.sol\":6315:6327  _roles[role] */\n      dup1\n        /* \"@openzeppelin/contracts/access/AccessControl.sol\":6322:6326  role */\n      dup6\n        /* \"@openzeppelin/contracts/access/AccessControl.sol\":6315:6327  _roles[role] */\n      dup2\n      mstore\n      0x20\n      add\n      swap1\n      dup2\n      mstore\n      0x20\n      add\n      0x00\n      keccak256\n        /* \"@openzeppelin/contracts/access/AccessControl.sol\":6315:6335  _roles[role].hasRole */\n      0x00\n      add\n        /* \"@openzeppelin/contracts/access/AccessControl.sol\":6315:6344  _roles[role].hasRole[account] */\n      0x00\n        /* \"@openzeppelin/contracts/access/AccessControl.sol\":6336:6343  account */\n      dup5\n        /* \"@openzeppelin/contracts/access/AccessControl.sol\":6315:6344  _roles[role].hasRole[account] */\n      0xffffffffffffffffffffffffffffffffffffffff\n      and\n      0xffffffffffffffffffffffffffffffffffffffff\n      and\n      dup2\n      mstore\n      0x20\n      add\n      swap1\n      dup2\n      mstore\n      0x20\n      add\n      0x00\n      keccak256\n      0x00\n        /* \"@openzeppelin/contracts/access/AccessControl.sol\":6315:6351  _roles[role].hasRole[account] = true */\n      0x0100\n      exp\n      dup2\n      sload\n      dup2\n      0xff\n      mul\n      not\n      and\n      swap1\n      dup4\n      iszero\n      iszero\n      mul\n      or\n      swap1\n      sstore\n      pop\n        /* \"@openzeppelin/contracts/access/AccessControl.sol\":6397:6409  _msgSender() */\n      tag_84\n        /* \"@openzeppelin/contracts/access/AccessControl.sol\":6397:6407  _msgSender */\n      tag_63\n        /* \"@openzeppelin/contracts/access/AccessControl.sol\":6397:6409  _msgSender() */\n      jump\t// in\n    tag_84:\n        /* \"@openzeppelin/contracts/access/AccessControl.sol\":6370:6410  RoleGranted(role, account, _msgSender()) */\n      0xffffffffffffffffffffffffffffffffffffffff\n      and\n        /* \"@openzeppelin/contracts/access/AccessControl.sol\":6388:6395  account */\n      dup3\n        /* \"@openzeppelin/contracts/access/AccessControl.sol\":6370:6410  RoleGranted(role, account, _msgSender()) */\n      0xffffffffffffffffffffffffffffffffffffffff\n      and\n        /* \"@openzeppelin/contracts/access/AccessControl.sol\":6382:6386  role */\n      dup5\n        /* \"@openzeppelin/contracts/access/AccessControl.sol\":6370:6410  RoleGranted(role, account, _msgSender()) */\n      0x2f8788117e7eff1d82e926ec794901d17c78024a50270940304540a733656f0d\n      mload(0x40)\n      mload(0x40)\n      dup1\n      swap2\n      sub\n      swap1\n      log4\n        /* \"@openzeppelin/contracts/access/AccessControl.sol\":6431:6435  true */\n      0x01\n        /* \"@openzeppelin/contracts/access/AccessControl.sol\":6424:6435  return true */\n      swap1\n      pop\n      jump(tag_81)\n        /* \"@openzeppelin/contracts/access/AccessControl.sol\":6272:6489  if (!hasRole(role, account)) {... */\n    tag_83:\n        /* \"@openzeppelin/contracts/access/AccessControl.sol\":6473:6478  false */\n      0x00\n        /* \"@openzeppelin/contracts/access/AccessControl.sol\":6466:6478  return false */\n      swap1\n      pop\n        /* \"@openzeppelin/contracts/access/AccessControl.sol\":6179:6495  function _grantRole(bytes32 role, address account) internal virtual returns (bool) {... */\n    tag_81:\n      swap3\n      swap2\n      pop\n      pop\n      jump\t// out\n        /* \"@openzeppelin/contracts/utils/Context.sol\":656:752  function _msgSender() internal view virtual returns (address) {... */\n    tag_63:\n        /* \"@openzeppelin/contracts/utils/Context.sol\":709:716  address */\n      0x00\n        /* \"@openzeppelin/contracts/utils/Context.sol\":735:745  msg.sender */\n      caller\n        /* \"@openzeppelin/contracts/utils/Context.sol\":728:745  return msg.sender */\n      swap1\n      pop\n        /* \"@openzeppelin/contracts/utils/Context.sol\":656:752  function _msgSender() internal view virtual returns (address) {... */\n      swap1\n      jump\t// out\n        /* \"@openzeppelin/contracts/access/AccessControl.sol\":6732:7049  function _revokeRole(bytes32 role, address account) internal virtual returns (bool) {... */\n    tag_66:\n        /* \"@openzeppelin/contracts/access/AccessControl.sol\":6810:6814  bool */\n      0x00\n        /* \"@openzeppelin/contracts/access/AccessControl.sol\":6830:6852  hasRole(role, account) */\n      tag_88\n        /* \"@openzeppelin/contracts/access/AccessControl.sol\":6838:6842  role */\n      dup4\n        /* \"@openzeppelin/contracts/access/AccessControl.sol\":6844:6851  account */\n      dup4\n        /* \"@openzeppelin/contracts/access/AccessControl.sol\":6830:6837  hasRole */\n      tag_41\n        /* \"@openzeppelin/contracts/access/AccessControl.sol\":6830:6852  hasRole(role, account) */\n      jump\t// in\n    tag_88:\n        /* \"@openzeppelin/contracts/access/AccessControl.sol\":6826:7043  if (hasRole(role, account)) {... */\n      iszero\n      tag_89\n      jumpi\n        /* \"@openzeppelin/contracts/access/AccessControl.sol\":6900:6905  false */\n      0x00\n        /* \"@openzeppelin/contracts/access/AccessControl.sol\":6868:6874  _roles */\n      dup1\n        /* \"@openzeppelin/contracts/access/AccessControl.sol\":6868:6880  _roles[role] */\n      0x00\n        /* \"@openzeppelin/contracts/access/AccessControl.sol\":6875:6879  role */\n      dup6\n        /* \"@openzeppelin/contracts/access/AccessControl.sol\":6868:6880  _roles[role] */\n      dup2\n      mstore\n      0x20\n      add\n      swap1\n      dup2\n      mstore\n      0x20\n      add\n      0x00\n      keccak256\n        /* \"@openzeppelin/contracts/access/AccessControl.sol\":6868:6888  _roles[role].hasRole */\n      0x00\n      add\n        /* \"@openzeppelin/contracts/access/AccessControl.sol\":6868:6897  _roles[role].hasRole[account] */\n      0x00\n        /* \"@openzeppelin/contracts/access/AccessControl.sol\":6889:6896  account */\n      dup5\n        /* \"@openzeppelin/contracts/access/AccessControl.sol\":6868:6897  _roles[role].hasRole[account] */\n      0xffffffffffffffffffffffffffffffffffffffff\n      and\n      0xffffffffffffffffffffffffffffffffffffffff\n      and\n      dup2\n      mstore\n      0x20\n      add\n      swap1\n      dup2\n      mstore\n      0x20\n      add\n      0x00\n      keccak256\n      0x00\n        /* \"@openzeppelin/contracts/access/AccessControl.sol\":6868:6905  _roles[role].hasRole[account] = false */\n      0x0100\n      exp\n      dup2\n      sload\n      dup2\n      0xff\n      mul\n      not\n      and\n      swap1\n      dup4\n      iszero\n      iszero\n      mul\n      or\n      swap1\n      sstore\n      pop\n        /* \"@openzeppelin/contracts/access/AccessControl.sol\":6951:6963  _msgSender() */\n      tag_90\n        /* \"@openzeppelin/contracts/access/AccessControl.sol\":6951:6961  _msgSender */\n      tag_63\n        /* \"@openzeppelin/contracts/access/AccessControl.sol\":6951:6963  _msgSender() */\n      jump\t// in\n    tag_90:\n        /* \"@openzeppelin/contracts/access/AccessControl.sol\":6924:6964  RoleRevoked(role, account, _msgSender()) */\n      0xffffffffffffffffffffffffffffffffffffffff\n      and\n        /* \"@openzeppelin/contracts/access/AccessControl.sol\":6942:6949  account */\n      dup3\n        /* \"@openzeppelin/contracts/access/AccessControl.sol\":6924:6964  RoleRevoked(role, account, _msgSender()) */\n      0xffffffffffffffffffffffffffffffffffffffff\n      and\n        /* \"@openzeppelin/contracts/access/AccessControl.sol\":6936:6940  role */\n      dup5\n        /* \"@openzeppelin/contracts/access/AccessControl.sol\":6924:6964  RoleRevoked(role, account, _msgSender()) */\n      0xf6391f5c32d9c69d2a47ea670b442974b53935d1edc7fd64eb21e047a839171b\n      mload(0x40)\n      mload(0x40)\n      dup1\n      swap2\n      sub\n      swap1\n      log4\n        /* \"@openzeppelin/contracts/access/AccessControl.sol\":6985:6989  true */\n      0x01\n        /* \"@openzeppelin/contracts/access/AccessControl.sol\":6978:6989  return true */\n      swap1\n      pop\n      jump(tag_87)\n        /* \"@openzeppelin/contracts/access/AccessControl.sol\":6826:7043  if (hasRole(role, account)) {... */\n    tag_89:\n        /* \"@openzeppelin/contracts/access/AccessControl.sol\":7027:7032  false */\n      0x00\n        /* \"@openzeppelin/contracts/access/AccessControl.sol\":7020:7032  return false */\n      swap1\n      pop\n        /* \"@openzeppelin/contracts/access/AccessControl.sol\":6732:7049  function _revokeRole(bytes32 role, address account) internal virtual returns (bool) {... */\n    tag_87:\n      swap3\n      swap2\n      pop\n      pop\n      jump\t// out\n        /* \"@openzeppelin/contracts/access/AccessControl.sol\":3432:3629  function _checkRole(bytes32 role, address account) internal view virtual {... */\n    tag_80:\n        /* \"@openzeppelin/contracts/access/AccessControl.sol\":3520:3542  hasRole(role, account) */\n      tag_93\n        /* \"@openzeppelin/contracts/access/AccessControl.sol\":3528:3532  role */\n      dup3\n        /* \"@openzeppelin/contracts/access/AccessControl.sol\":3534:3541  account */\n      dup3\n        /* \"@openzeppelin/contracts/access/AccessControl.sol\":3520:3527  hasRole */\n      tag_41\n        /* \"@openzeppelin/contracts/access/AccessControl.sol\":3520:3542  hasRole(role, account) */\n      jump\t// in\n    tag_93:\n        /* \"@openzeppelin/contracts/access/AccessControl.sol\":3515:3623  if (!hasRole(role, account)) {... */\n      tag_94\n      jumpi\n        /* \"@openzeppelin/contracts/access/AccessControl.sol\":3598:3605  account */\n      dup1\n        /* \"@openzeppelin/contracts/access/AccessControl.sol\":3607:3611  role */\n      dup3\n        /* \"@openzeppelin/contracts/access/AccessControl.sol\":3565:3612  AccessControlUnauthorizedAccount(account, role) */\n      mload(0x40)\n      0xe2517d3f00000000000000000000000000000000000000000000000000000000\n      dup2\n      mstore\n      0x04\n      add\n      tag_95\n      swap3\n      swap2\n      swap1\n      tag_96\n      jump\t// in\n    tag_95:\n      mload(0x40)\n      dup1\n      swap2\n      sub\n      swap1\n      revert\n        /* \"@openzeppelin/contracts/access/AccessControl.sol\":3515:3623  if (!hasRole(role, account)) {... */\n    tag_94:\n        /* \"@openzeppelin/contracts/access/AccessControl.sol\":3432:3629  function _checkRole(bytes32 role, address account) internal view virtual {... */\n      pop\n      pop\n      jump\t// out\n        /* \"#utility.yul\":88:205   */\n    tag_98:\n        /* \"#utility.yul\":197:198   */\n      0x00\n        /* \"#utility.yul\":194:195   */\n      dup1\n        /* \"#utility.yul\":187:199   */\n      revert\n        /* \"#utility.yul\":334:483   */\n    tag_100:\n        /* \"#utility.yul\":370:377   */\n      0x00\n        /* \"#utility.yul\":410:476   */\n      0xffffffff00000000000000000000000000000000000000000000000000000000\n        /* \"#utility.yul\":403:408   */\n      dup3\n        /* \"#utility.yul\":399:477   */\n      and\n        /* \"#utility.yul\":388:477   */\n      swap1\n      pop\n        /* \"#utility.yul\":334:483   */\n      swap2\n      swap1\n      pop\n      jump\t// out\n        /* \"#utility.yul\":489:609   */\n    tag_101:\n        /* \"#utility.yul\":561:584   */\n      tag_125\n        /* \"#utility.yul\":578:583   */\n      dup2\n        /* \"#utility.yul\":561:584   */\n      tag_100\n      jump\t// in\n    tag_125:\n        /* \"#utility.yul\":554:559   */\n      dup2\n        /* \"#utility.yul\":551:585   */\n      eq\n        /* \"#utility.yul\":541:603   */\n      tag_126\n      jumpi\n        /* \"#utility.yul\":599:600   */\n      0x00\n        /* \"#utility.yul\":596:597   */\n      dup1\n        /* \"#utility.yul\":589:601   */\n      revert\n        /* \"#utility.yul\":541:603   */\n    tag_126:\n        /* \"#utility.yul\":489:609   */\n      pop\n      jump\t// out\n        /* \"#utility.yul\":615:752   */\n    tag_102:\n        /* \"#utility.yul\":660:665   */\n      0x00\n        /* \"#utility.yul\":698:704   */\n      dup2\n        /* \"#utility.yul\":685:705   */\n      calldataload\n        /* \"#utility.yul\":676:705   */\n      swap1\n      pop\n        /* \"#utility.yul\":714:746   */\n      tag_128\n        /* \"#utility.yul\":740:745   */\n      dup2\n        /* \"#utility.yul\":714:746   */\n      tag_101\n      jump\t// in\n    tag_128:\n        /* \"#utility.yul\":615:752   */\n      swap3\n      swap2\n      pop\n      pop\n      jump\t// out\n        /* \"#utility.yul\":758:1085   */\n    tag_15:\n        /* \"#utility.yul\":816:822   */\n      0x00\n        /* \"#utility.yul\":865:867   */\n      0x20\n        /* \"#utility.yul\":853:862   */\n      dup3\n        /* \"#utility.yul\":844:851   */\n      dup5\n        /* \"#utility.yul\":840:863   */\n      sub\n        /* \"#utility.yul\":836:868   */\n      slt\n        /* \"#utility.yul\":833:952   */\n      iszero\n      tag_130\n      jumpi\n        /* \"#utility.yul\":871:950   */\n      tag_131\n      tag_98\n      jump\t// in\n    tag_131:\n        /* \"#utility.yul\":833:952   */\n    tag_130:\n        /* \"#utility.yul\":991:992   */\n      0x00\n        /* \"#utility.yul\":1016:1068   */\n      tag_132\n        /* \"#utility.yul\":1060:1067   */\n      dup5\n        /* \"#utility.yul\":1051:1057   */\n      dup3\n        /* \"#utility.yul\":1040:1049   */\n      dup6\n        /* \"#utility.yul\":1036:1058   */\n      add\n        /* \"#utility.yul\":1016:1068   */\n      tag_102\n      jump\t// in\n    tag_132:\n        /* \"#utility.yul\":1006:1068   */\n      swap2\n      pop\n        /* \"#utility.yul\":962:1078   */\n      pop\n        /* \"#utility.yul\":758:1085   */\n      swap3\n      swap2\n      pop\n      pop\n      jump\t// out\n        /* \"#utility.yul\":1091:1181   */\n    tag_103:\n        /* \"#utility.yul\":1125:1132   */\n      0x00\n        /* \"#utility.yul\":1168:1173   */\n      dup2\n        /* \"#utility.yul\":1161:1174   */\n      iszero\n        /* \"#utility.yul\":1154:1175   */\n      iszero\n        /* \"#utility.yul\":1143:1175   */\n      swap1\n      pop\n        /* \"#utility.yul\":1091:1181   */\n      swap2\n      swap1\n      pop\n      jump\t// out\n        /* \"#utility.yul\":1187:1296   */\n    tag_104:\n        /* \"#utility.yul\":1268:1289   */\n      tag_135\n        /* \"#utility.yul\":1283:1288   */\n      dup2\n        /* \"#utility.yul\":1268:1289   */\n      tag_103\n      jump\t// in\n    tag_135:\n        /* \"#utility.yul\":1263:1266   */\n      dup3\n        /* \"#utility.yul\":1256:1290   */\n      mstore\n        /* \"#utility.yul\":1187:1296   */\n      pop\n      pop\n      jump\t// out\n        /* \"#utility.yul\":1302:1512   */\n    tag_18:\n        /* \"#utility.yul\":1389:1393   */\n      0x00\n        /* \"#utility.yul\":1427:1429   */\n      0x20\n        /* \"#utility.yul\":1416:1425   */\n      dup3\n        /* \"#utility.yul\":1412:1430   */\n      add\n        /* \"#utility.yul\":1404:1430   */\n      swap1\n      pop\n        /* \"#utility.yul\":1440:1505   */\n      tag_137\n        /* \"#utility.yul\":1502:1503   */\n      0x00\n        /* \"#utility.yul\":1491:1500   */\n      dup4\n        /* \"#utility.yul\":1487:1504   */\n      add\n        /* \"#utility.yul\":1478:1484   */\n      dup5\n        /* \"#utility.yul\":1440:1505   */\n      tag_104\n      jump\t// in\n    tag_137:\n        /* \"#utility.yul\":1302:1512   */\n      swap3\n      swap2\n      pop\n      pop\n      jump\t// out\n        /* \"#utility.yul\":1518:1595   */\n    tag_105:\n        /* \"#utility.yul\":1555:1562   */\n      0x00\n        /* \"#utility.yul\":1584:1589   */\n      dup2\n        /* \"#utility.yul\":1573:1589   */\n      swap1\n      pop\n        /* \"#utility.yul\":1518:1595   */\n      swap2\n      swap1\n      pop\n      jump\t// out\n        /* \"#utility.yul\":1601:1723   */\n    tag_106:\n        /* \"#utility.yul\":1674:1698   */\n      tag_140\n        /* \"#utility.yul\":1692:1697   */\n      dup2\n        /* \"#utility.yul\":1674:1698   */\n      tag_105\n      jump\t// in\n    tag_140:\n        /* \"#utility.yul\":1667:1672   */\n      dup2\n        /* \"#utility.yul\":1664:1699   */\n      eq\n        /* \"#utility.yul\":1654:1717   */\n      tag_141\n      jumpi\n        /* \"#utility.yul\":1713:1714   */\n      0x00\n        /* \"#utility.yul\":1710:1711   */\n      dup1\n        /* \"#utility.yul\":1703:1715   */\n      revert\n        /* \"#utility.yul\":1654:1717   */\n    tag_141:\n        /* \"#utility.yul\":1601:1723   */\n      pop\n      jump\t// out\n        /* \"#utility.yul\":1729:1868   */\n    tag_107:\n        /* \"#utility.yul\":1775:1780   */\n      0x00\n        /* \"#utility.yul\":1813:1819   */\n      dup2\n        /* \"#utility.yul\":1800:1820   */\n      calldataload\n        /* \"#utility.yul\":1791:1820   */\n      swap1\n      pop\n        /* \"#utility.yul\":1829:1862   */\n      tag_143\n        /* \"#utility.yul\":1856:1861   */\n      dup2\n        /* \"#utility.yul\":1829:1862   */\n      tag_106\n      jump\t// in\n    tag_143:\n        /* \"#utility.yul\":1729:1868   */\n      swap3\n      swap2\n      pop\n      pop\n      jump\t// out\n        /* \"#utility.yul\":1874:2203   */\n    tag_21:\n        /* \"#utility.yul\":1933:1939   */\n      0x00\n        /* \"#utility.yul\":1982:1984   */\n      0x20\n        /* \"#utility.yul\":1970:1979   */\n      dup3\n        /* \"#utility.yul\":1961:1968   */\n      dup5\n        /* \"#utility.yul\":1957:1980   */\n      sub\n        /* \"#utility.yul\":1953:1985   */\n      slt\n        /* \"#utility.yul\":1950:2069   */\n      iszero\n      tag_145\n      jumpi\n        /* \"#utility.yul\":1988:2067   */\n      tag_146\n      tag_98\n      jump\t// in\n    tag_146:\n        /* \"#utility.yul\":1950:2069   */\n    tag_145:\n        /* \"#utility.yul\":2108:2109   */\n      0x00\n        /* \"#utility.yul\":2133:2186   */\n      tag_147\n        /* \"#utility.yul\":2178:2185   */\n      dup5\n        /* \"#utility.yul\":2169:2175   */\n      dup3\n        /* \"#utility.yul\":2158:2167   */\n      dup6\n        /* \"#utility.yul\":2154:2176   */\n      add\n        /* \"#utility.yul\":2133:2186   */\n      tag_107\n      jump\t// in\n    tag_147:\n        /* \"#utility.yul\":2123:2186   */\n      swap2\n      pop\n        /* \"#utility.yul\":2079:2196   */\n      pop\n        /* \"#utility.yul\":1874:2203   */\n      swap3\n      swap2\n      pop\n      pop\n      jump\t// out\n        /* \"#utility.yul\":2209:2327   */\n    tag_108:\n        /* \"#utility.yul\":2296:2320   */\n      tag_149\n        /* \"#utility.yul\":2314:2319   */\n      dup2\n        /* \"#utility.yul\":2296:2320   */\n      tag_105\n      jump\t// in\n    tag_149:\n        /* \"#utility.yul\":2291:2294   */\n      dup3\n        /* \"#utility.yul\":2284:2321   */\n      mstore\n        /* \"#utility.yul\":2209:2327   */\n      pop\n      pop\n      jump\t// out\n        /* \"#utility.yul\":2333:2555   */\n    tag_24:\n        /* \"#utility.yul\":2426:2430   */\n      0x00\n        /* \"#utility.yul\":2464:2466   */\n      0x20\n        /* \"#utility.yul\":2453:2462   */\n      dup3\n        /* \"#utility.yul\":2449:2467   */\n      add\n        /* \"#utility.yul\":2441:2467   */\n      swap1\n      pop\n        /* \"#utility.yul\":2477:2548   */\n      tag_151\n        /* \"#utility.yul\":2545:2546   */\n      0x00\n        /* \"#utility.yul\":2534:2543   */\n      dup4\n        /* \"#utility.yul\":2530:2547   */\n      add\n        /* \"#utility.yul\":2521:2527   */\n      dup5\n        /* \"#utility.yul\":2477:2548   */\n      tag_108\n      jump\t// in\n    tag_151:\n        /* \"#utility.yul\":2333:2555   */\n      swap3\n      swap2\n      pop\n      pop\n      jump\t// out\n        /* \"#utility.yul\":2561:2687   */\n    tag_109:\n        /* \"#utility.yul\":2598:2605   */\n      0x00\n        /* \"#utility.yul\":2638:2680   */\n      0xffffffffffffffffffffffffffffffffffffffff\n        /* \"#utility.yul\":2631:2636   */\n      dup3\n        /* \"#utility.yul\":2627:2681   */\n      and\n        /* \"#utility.yul\":2616:2681   */\n      swap1\n      pop\n        /* \"#utility.yul\":2561:2687   */\n      swap2\n      swap1\n      pop\n      jump\t// out\n        /* \"#utility.yul\":2693:2789   */\n    tag_110:\n        /* \"#utility.yul\":2730:2737   */\n      0x00\n        /* \"#utility.yul\":2759:2783   */\n      tag_154\n        /* \"#utility.yul\":2777:2782   */\n      dup3\n        /* \"#utility.yul\":2759:2783   */\n      tag_109\n      jump\t// in\n    tag_154:\n        /* \"#utility.yul\":2748:2783   */\n      swap1\n      pop\n        /* \"#utility.yul\":2693:2789   */\n      swap2\n      swap1\n      pop\n      jump\t// out\n        /* \"#utility.yul\":2795:2917   */\n    tag_111:\n        /* \"#utility.yul\":2868:2892   */\n      tag_156\n        /* \"#utility.yul\":2886:2891   */\n      dup2\n        /* \"#utility.yul\":2868:2892   */\n      tag_110\n      jump\t// in\n    tag_156:\n        /* \"#utility.yul\":2861:2866   */\n      dup2\n        /* \"#utility.yul\":2858:2893   */\n      eq\n        /* \"#utility.yul\":2848:2911   */\n      tag_157\n      jumpi\n        /* \"#utility.yul\":2907:2908   */\n      0x00\n        /* \"#utility.yul\":2904:2905   */\n      dup1\n        /* \"#utility.yul\":2897:2909   */\n      revert\n        /* \"#utility.yul\":2848:2911   */\n    tag_157:\n        /* \"#utility.yul\":2795:2917   */\n      pop\n      jump\t// out\n        /* \"#utility.yul\":2923:3062   */\n    tag_112:\n        /* \"#utility.yul\":2969:2974   */\n      0x00\n        /* \"#utility.yul\":3007:3013   */\n      dup2\n        /* \"#utility.yul\":2994:3014   */\n      calldataload\n        /* \"#utility.yul\":2985:3014   */\n      swap1\n      pop\n        /* \"#utility.yul\":3023:3056   */\n      tag_159\n        /* \"#utility.yul\":3050:3055   */\n      dup2\n        /* \"#utility.yul\":3023:3056   */\n      tag_111\n      jump\t// in\n    tag_159:\n        /* \"#utility.yul\":2923:3062   */\n      swap3\n      swap2\n      pop\n      pop\n      jump\t// out\n        /* \"#utility.yul\":3068:3542   */\n    tag_27:\n        /* \"#utility.yul\":3136:3142   */\n      0x00\n        /* \"#utility.yul\":3144:3150   */\n      dup1\n        /* \"#utility.yul\":3193:3195   */\n      0x40\n        /* \"#utility.yul\":3181:3190   */\n      dup4\n        /* \"#utility.yul\":3172:3179   */\n      dup6\n        /* \"#utility.yul\":3168:3191   */\n      sub\n        /* \"#utility.yul\":3164:3196   */\n      slt\n        /* \"#utility.yul\":3161:3280   */\n      iszero\n      tag_161\n      jumpi\n        /* \"#utility.yul\":3199:3278   */\n      tag_162\n      tag_98\n      jump\t// in\n    tag_162:\n        /* \"#utility.yul\":3161:3280   */\n    tag_161:\n        /* \"#utility.yul\":3319:3320   */\n      0x00\n        /* \"#utility.yul\":3344:3397   */\n      tag_163\n        /* \"#utility.yul\":3389:3396   */\n      dup6\n        /* \"#utility.yul\":3380:3386   */\n      dup3\n        /* \"#utility.yul\":3369:3378   */\n      dup7\n        /* \"#utility.yul\":3365:3387   */\n      add\n        /* \"#utility.yul\":3344:3397   */\n      tag_107\n      jump\t// in\n    tag_163:\n        /* \"#utility.yul\":3334:3397   */\n      swap3\n      pop\n        /* \"#utility.yul\":3290:3407   */\n      pop\n        /* \"#utility.yul\":3446:3448   */\n      0x20\n        /* \"#utility.yul\":3472:3525   */\n      tag_164\n        /* \"#utility.yul\":3517:3524   */\n      dup6\n        /* \"#utility.yul\":3508:3514   */\n      dup3\n        /* \"#utility.yul\":3497:3506   */\n      dup7\n        /* \"#utility.yul\":3493:3515   */\n      add\n        /* \"#utility.yul\":3472:3525   */\n      tag_112\n      jump\t// in\n    tag_164:\n        /* \"#utility.yul\":3462:3525   */\n      swap2\n      pop\n        /* \"#utility.yul\":3417:3535   */\n      pop\n        /* \"#utility.yul\":3068:3542   */\n      swap3\n      pop\n      swap3\n      swap1\n      pop\n      jump\t// out\n        /* \"#utility.yul\":3548:3647   */\n    tag_113:\n        /* \"#utility.yul\":3600:3606   */\n      0x00\n        /* \"#utility.yul\":3634:3639   */\n      dup2\n        /* \"#utility.yul\":3628:3640   */\n      mload\n        /* \"#utility.yul\":3618:3640   */\n      swap1\n      pop\n        /* \"#utility.yul\":3548:3647   */\n      swap2\n      swap1\n      pop\n      jump\t// out\n        /* \"#utility.yul\":3653:3822   */\n    tag_114:\n        /* \"#utility.yul\":3737:3748   */\n      0x00\n        /* \"#utility.yul\":3771:3777   */\n      dup3\n        /* \"#utility.yul\":3766:3769   */\n      dup3\n        /* \"#utility.yul\":3759:3778   */\n      mstore\n        /* \"#utility.yul\":3811:3815   */\n      0x20\n        /* \"#utility.yul\":3806:3809   */\n      dup3\n        /* \"#utility.yul\":3802:3816   */\n      add\n        /* \"#utility.yul\":3787:3816   */\n      swap1\n      pop\n        /* \"#utility.yul\":3653:3822   */\n      swap3\n      swap2\n      pop\n      pop\n      jump\t// out\n        /* \"#utility.yul\":3828:3967   */\n    tag_115:\n        /* \"#utility.yul\":3917:3923   */\n      dup3\n        /* \"#utility.yul\":3912:3915   */\n      dup2\n        /* \"#utility.yul\":3907:3910   */\n      dup4\n        /* \"#utility.yul\":3901:3924   */\n      mcopy\n        /* \"#utility.yul\":3958:3959   */\n      0x00\n        /* \"#utility.yul\":3949:3955   */\n      dup4\n        /* \"#utility.yul\":3944:3947   */\n      dup4\n        /* \"#utility.yul\":3940:3956   */\n      add\n        /* \"#utility.yul\":3933:3960   */\n      mstore\n        /* \"#utility.yul\":3828:3967   */\n      pop\n      pop\n      pop\n      jump\t// out\n        /* \"#utility.yul\":3973:4075   */\n    tag_116:\n        /* \"#utility.yul\":4014:4020   */\n      0x00\n        /* \"#utility.yul\":4065:4067   */\n      0x1f\n        /* \"#utility.yul\":4061:4068   */\n      not\n        /* \"#utility.yul\":4056:4058   */\n      0x1f\n        /* \"#utility.yul\":4049:4054   */\n      dup4\n        /* \"#utility.yul\":4045:4059   */\n      add\n        /* \"#utility.yul\":4041:4069   */\n      and\n        /* \"#utility.yul\":4031:4069   */\n      swap1\n      pop\n        /* \"#utility.yul\":3973:4075   */\n      swap2\n      swap1\n      pop\n      jump\t// out\n        /* \"#utility.yul\":4081:4458   */\n    tag_117:\n        /* \"#utility.yul\":4169:4172   */\n      0x00\n        /* \"#utility.yul\":4197:4236   */\n      tag_170\n        /* \"#utility.yul\":4230:4235   */\n      dup3\n        /* \"#utility.yul\":4197:4236   */\n      tag_113\n      jump\t// in\n    tag_170:\n        /* \"#utility.yul\":4252:4323   */\n      tag_171\n        /* \"#utility.yul\":4316:4322   */\n      dup2\n        /* \"#utility.yul\":4311:4314   */\n      dup6\n        /* \"#utility.yul\":4252:4323   */\n      tag_114\n      jump\t// in\n    tag_171:\n        /* \"#utility.yul\":4245:4323   */\n      swap4\n      pop\n        /* \"#utility.yul\":4332:4397   */\n      tag_172\n        /* \"#utility.yul\":4390:4396   */\n      dup2\n        /* \"#utility.yul\":4385:4388   */\n      dup6\n        /* \"#utility.yul\":4378:4382   */\n      0x20\n        /* \"#utility.yul\":4371:4376   */\n      dup7\n        /* \"#utility.yul\":4367:4383   */\n      add\n        /* \"#utility.yul\":4332:4397   */\n      tag_115\n      jump\t// in\n    tag_172:\n        /* \"#utility.yul\":4422:4451   */\n      tag_173\n        /* \"#utility.yul\":4444:4450   */\n      dup2\n        /* \"#utility.yul\":4422:4451   */\n      tag_116\n      jump\t// in\n    tag_173:\n        /* \"#utility.yul\":4417:4420   */\n      dup5\n        /* \"#utility.yul\":4413:4452   */\n      add\n        /* \"#utility.yul\":4406:4452   */\n      swap2\n      pop\n        /* \"#utility.yul\":4173:4458   */\n      pop\n        /* \"#utility.yul\":4081:4458   */\n      swap3\n      swap2\n      pop\n      pop\n      jump\t// out\n        /* \"#utility.yul\":4464:4777   */\n    tag_38:\n        /* \"#utility.yul\":4577:4581   */\n      0x00\n        /* \"#utility.yul\":4615:4617   */\n      0x20\n        /* \"#utility.yul\":4604:4613   */\n      dup3\n        /* \"#utility.yul\":4600:4618   */\n      add\n        /* \"#utility.yul\":4592:4618   */\n      swap1\n      pop\n        /* \"#utility.yul\":4664:4673   */\n      dup2\n        /* \"#utility.yul\":4658:4662   */\n      dup2\n        /* \"#utility.yul\":4654:4674   */\n      sub\n        /* \"#utility.yul\":4650:4651   */\n      0x00\n        /* \"#utility.yul\":4639:4648   */\n      dup4\n        /* \"#utility.yul\":4635:4652   */\n      add\n        /* \"#utility.yul\":4628:4675   */\n      mstore\n        /* \"#utility.yul\":4692:4770   */\n      tag_175\n        /* \"#utility.yul\":4765:4769   */\n      dup2\n        /* \"#utility.yul\":4756:4762   */\n      dup5\n        /* \"#utility.yul\":4692:4770   */\n      tag_117\n      jump\t// in\n    tag_175:\n        /* \"#utility.yul\":4684:4770   */\n      swap1\n      pop\n        /* \"#utility.yul\":4464:4777   */\n      swap3\n      swap2\n      pop\n      pop\n      jump\t// out\n        /* \"#utility.yul\":4783:4901   */\n    tag_118:\n        /* \"#utility.yul\":4870:4894   */\n      tag_177\n        /* \"#utility.yul\":4888:4893   */\n      dup2\n        /* \"#utility.yul\":4870:4894   */\n      tag_110\n      jump\t// in\n    tag_177:\n        /* \"#utility.yul\":4865:4868   */\n      dup3\n        /* \"#utility.yul\":4858:4895   */\n      mstore\n        /* \"#utility.yul\":4783:4901   */\n      pop\n      pop\n      jump\t// out\n        /* \"#utility.yul\":4907:5239   */\n    tag_96:\n        /* \"#utility.yul\":5028:5032   */\n      0x00\n        /* \"#utility.yul\":5066:5068   */\n      0x40\n        /* \"#utility.yul\":5055:5064   */\n      dup3\n        /* \"#utility.yul\":5051:5069   */\n      add\n        /* \"#utility.yul\":5043:5069   */\n      swap1\n      pop\n        /* \"#utility.yul\":5079:5150   */\n      tag_179\n        /* \"#utility.yul\":5147:5148   */\n      0x00\n        /* \"#utility.yul\":5136:5145   */\n      dup4\n        /* \"#utility.yul\":5132:5149   */\n      add\n        /* \"#utility.yul\":5123:5129   */\n      dup6\n        /* \"#utility.yul\":5079:5150   */\n      tag_118\n      jump\t// in\n    tag_179:\n        /* \"#utility.yul\":5160:5232   */\n      tag_180\n        /* \"#utility.yul\":5228:5230   */\n      0x20\n        /* \"#utility.yul\":5217:5226   */\n      dup4\n        /* \"#utility.yul\":5213:5231   */\n      add\n        /* \"#utility.yul\":5204:5210   */\n      dup5\n        /* \"#utility.yul\":5160:5232   */\n      tag_108\n      jump\t// in\n    tag_180:\n        /* \"#utility.yul\":4907:5239   */\n      swap4\n      swap3\n      pop\n      pop\n      pop\n      jump\t// out\n\n    auxdata: 0xa2646970667358221220445a5a74036caecfc7e7fa6806e1b754659413ed82d842b51e20eb6224abf6c864736f6c634300081a0033\n}\n",
				"bytecode": {
					"linkReferences": {},
					"object": "608060405234801561000f575f80fd5b506100225f801b3361002860201b60201c565b50610187565b5f610039838361011d60201b60201c565b6101135760015f808581526020019081526020015f205f015f8473ffffffffffffffffffffffffffffffffffffffff1673ffffffffffffffffffffffffffffffffffffffff1681526020019081526020015f205f6101000a81548160ff0219169083151502179055506100b061018060201b60201c565b73ffffffffffffffffffffffffffffffffffffffff168273ffffffffffffffffffffffffffffffffffffffff16847f2f8788117e7eff1d82e926ec794901d17c78024a50270940304540a733656f0d60405160405180910390a460019050610117565b5f90505b92915050565b5f805f8481526020019081526020015f205f015f8373ffffffffffffffffffffffffffffffffffffffff1673ffffffffffffffffffffffffffffffffffffffff1681526020019081526020015f205f9054906101000a900460ff16905092915050565b5f33905090565b610994806101945f395ff3fe608060405234801561000f575f80fd5b5060043610610091575f3560e01c80636e1d616e116100645780636e1d616e1461012d57806388d1b0ad1461014b57806391d1485414610169578063a217fddf14610199578063d547741f146101b757610091565b806301ffc9a714610095578063248a9ca3146100c55780632f2ff15d146100f557806336568abe14610111575b5f80fd5b6100af60048036038101906100aa919061071c565b6101d3565b6040516100bc9190610761565b60405180910390f35b6100df60048036038101906100da91906107ad565b61024c565b6040516100ec91906107e7565b60405180910390f35b61010f600480360381019061010a919061085a565b610268565b005b61012b6004803603810190610126919061085a565b61028a565b005b610135610305565b60405161014291906107e7565b60405180910390f35b610153610329565b6040516101609190610908565b60405180910390f35b610183600480360381019061017e919061085a565b610391565b6040516101909190610761565b60405180910390f35b6101a16103f4565b6040516101ae91906107e7565b60405180910390f35b6101d160048036038101906101cc919061085a565b6103fa565b005b5f7f7965db0b000000000000000000000000000000000000000000000000000000007bffffffffffffffffffffffffffffffffffffffffffffffffffffffff1916827bffffffffffffffffffffffffffffffffffffffffffffffffffffffff1916148061024557506102448261041c565b5b9050919050565b5f805f8381526020019081526020015f20600101549050919050565b6102718261024c565b61027a81610485565b6102848383610499565b50505050565b610292610582565b73ffffffffffffffffffffffffffffffffffffffff168173ffffffffffffffffffffffffffffffffffffffff16146102f6576040517f6697b23200000000000000000000000000000000000000000000000000000000815260040160405180910390fd5b6103008282610589565b505050565b7f59a1c48e5837ad7a7f3dcedcbe129bf3249ec4fbf651fd4f5e2600ead39fe2f581565b60607f59a1c48e5837ad7a7f3dcedcbe129bf3249ec4fbf651fd4f5e2600ead39fe2f561035581610485565b6040518060400160405280601f81526020017f4c6f677320617661696c61626c6520746f2061756469746f7273206f6e6c790081525091505090565b5f805f8481526020019081526020015f205f015f8373ffffffffffffffffffffffffffffffffffffffff1673ffffffffffffffffffffffffffffffffffffffff1681526020019081526020015f205f9054906101000a900460ff16905092915050565b5f801b81565b6104038261024c565b61040c81610485565b6104168383610589565b50505050565b5f7f01ffc9a7000000000000000000000000000000000000000000000000000000007bffffffffffffffffffffffffffffffffffffffffffffffffffffffff1916827bffffffffffffffffffffffffffffffffffffffffffffffffffffffff1916149050919050565b61049681610491610582565b610672565b50565b5f6104a48383610391565b6105785760015f808581526020019081526020015f205f015f8473ffffffffffffffffffffffffffffffffffffffff1673ffffffffffffffffffffffffffffffffffffffff1681526020019081526020015f205f6101000a81548160ff021916908315150217905550610515610582565b73ffffffffffffffffffffffffffffffffffffffff168273ffffffffffffffffffffffffffffffffffffffff16847f2f8788117e7eff1d82e926ec794901d17c78024a50270940304540a733656f0d60405160405180910390a46001905061057c565b5f90505b92915050565b5f33905090565b5f6105948383610391565b15610668575f805f8581526020019081526020015f205f015f8473ffffffffffffffffffffffffffffffffffffffff1673ffffffffffffffffffffffffffffffffffffffff1681526020019081526020015f205f6101000a81548160ff021916908315150217905550610605610582565b73ffffffffffffffffffffffffffffffffffffffff168273ffffffffffffffffffffffffffffffffffffffff16847ff6391f5c32d9c69d2a47ea670b442974b53935d1edc7fd64eb21e047a839171b60405160405180910390a46001905061066c565b5f90505b92915050565b61067c8282610391565b6106bf5780826040517fe2517d3f0000000000000000000000000000000000000000000000000000000081526004016106b6929190610937565b60405180910390fd5b5050565b5f80fd5b5f7fffffffff0000000000000000000000000000000000000000000000000000000082169050919050565b6106fb816106c7565b8114610705575f80fd5b50565b5f81359050610716816106f2565b92915050565b5f60208284031215610731576107306106c3565b5b5f61073e84828501610708565b91505092915050565b5f8115159050919050565b61075b81610747565b82525050565b5f6020820190506107745f830184610752565b92915050565b5f819050919050565b61078c8161077a565b8114610796575f80fd5b50565b5f813590506107a781610783565b92915050565b5f602082840312156107c2576107c16106c3565b5b5f6107cf84828501610799565b91505092915050565b6107e18161077a565b82525050565b5f6020820190506107fa5f8301846107d8565b92915050565b5f73ffffffffffffffffffffffffffffffffffffffff82169050919050565b5f61082982610800565b9050919050565b6108398161081f565b8114610843575f80fd5b50565b5f8135905061085481610830565b92915050565b5f80604083850312156108705761086f6106c3565b5b5f61087d85828601610799565b925050602061088e85828601610846565b9150509250929050565b5f81519050919050565b5f82825260208201905092915050565b8281835e5f83830152505050565b5f601f19601f8301169050919050565b5f6108da82610898565b6108e481856108a2565b93506108f48185602086016108b2565b6108fd816108c0565b840191505092915050565b5f6020820190508181035f83015261092081846108d0565b905092915050565b6109318161081f565b82525050565b5f60408201905061094a5f830185610928565b61095760208301846107d8565b939250505056fea2646970667358221220445a5a74036caecfc7e7fa6806e1b754659413ed82d842b51e20eb6224abf6c864736f6c634300081a0033",
					"opcodes": "PUSH1 0x80 PUSH1 0x40 MSTORE CALLVALUE DUP1 ISZERO PUSH2 0xF JUMPI PUSH0 DUP1 REVERT JUMPDEST POP PUSH2 0x22 PUSH0 DUP1 SHL CALLER PUSH2 0x28 PUSH1 0x20 SHL PUSH1 0x20 SHR JUMP JUMPDEST POP PUSH2 0x187 JUMP JUMPDEST PUSH0 PUSH2 0x39 DUP4 DUP4 PUSH2 0x11D PUSH1 0x20 SHL PUSH1 0x20 SHR JUMP JUMPDEST PUSH2 0x113 JUMPI PUSH1 0x1 PUSH0 DUP1 DUP6 DUP2 MSTORE PUSH1 0x20 ADD SWAP1 DUP2 MSTORE PUSH1 0x20 ADD PUSH0 KECCAK256 PUSH0 ADD PUSH0 DUP5 PUSH20 0xFFFFFFFFFFFFFFFFFFFFFFFFFFFFFFFFFFFFFFFF AND PUSH20 0xFFFFFFFFFFFFFFFFFFFFFFFFFFFFFFFFFFFFFFFF AND DUP2 MSTORE PUSH1 0x20 ADD SWAP1 DUP2 MSTORE PUSH1 0x20 ADD PUSH0 KECCAK256 PUSH0 PUSH2 0x100 EXP DUP2 SLOAD DUP2 PUSH1 0xFF MUL NOT AND SWAP1 DUP4 ISZERO ISZERO MUL OR SWAP1 SSTORE POP PUSH2 0xB0 PUSH2 0x180 PUSH1 0x20 SHL PUSH1 0x20 SHR JUMP JUMPDEST PUSH20 0xFFFFFFFFFFFFFFFFFFFFFFFFFFFFFFFFFFFFFFFF AND DUP3 PUSH20 0xFFFFFFFFFFFFFFFFFFFFFFFFFFFFFFFFFFFFFFFF AND DUP5 PUSH32 0x2F8788117E7EFF1D82E926EC794901D17C78024A50270940304540A733656F0D PUSH1 0x40 MLOAD PUSH1 0x40 MLOAD DUP1 SWAP2 SUB SWAP1 LOG4 PUSH1 0x1 SWAP1 POP PUSH2 0x117 JUMP JUMPDEST PUSH0 SWAP1 POP JUMPDEST SWAP3 SWAP2 POP POP JUMP JUMPDEST PUSH0 DUP1 PUSH0 DUP5 DUP2 MSTORE PUSH1 0x20 ADD SWAP1 DUP2 MSTORE PUSH1 0x20 ADD PUSH0 KECCAK256 PUSH0 ADD PUSH0 DUP4 PUSH20 0xFFFFFFFFFFFFFFFFFFFFFFFFFFFFFFFFFFFFFFFF AND PUSH20 0xFFFFFFFFFFFFFFFFFFFFFFFFFFFFFFFFFFFFFFFF AND DUP2 MSTORE PUSH1 0x20 ADD SWAP1 DUP2 MSTORE PUSH1 0x20 ADD PUSH0 KECCAK256 PUSH0 SWAP1 SLOAD SWAP1 PUSH2 0x100 EXP SWAP1 DIV PUSH1 0xFF AND SWAP1 POP SWAP3 SWAP2 POP POP JUMP JUMPDEST PUSH0 CALLER SWAP1 POP SWAP1 JUMP JUMPDEST PUSH2 0x994 DUP1 PUSH2 0x194 PUSH0 CODECOPY PUSH0 RETURN INVALID PUSH1 0x80 PUSH1 0x40 MSTORE CALLVALUE DUP1 ISZERO PUSH2 0xF JUMPI PUSH0 DUP1 REVERT JUMPDEST POP PUSH1 0x4 CALLDATASIZE LT PUSH2 0x91 JUMPI PUSH0 CALLDATALOAD PUSH1 0xE0 SHR DUP1 PUSH4 0x6E1D616E GT PUSH2 0x64 JUMPI DUP1 PUSH4 0x6E1D616E EQ PUSH2 0x12D JUMPI DUP1 PUSH4 0x88D1B0AD EQ PUSH2 0x14B JUMPI DUP1 PUSH4 0x91D14854 EQ PUSH2 0x169 JUMPI DUP1 PUSH4 0xA217FDDF EQ PUSH2 0x199 JUMPI DUP1 PUSH4 0xD547741F EQ PUSH2 0x1B7 JUMPI PUSH2 0x91 JUMP JUMPDEST DUP1 PUSH4 0x1FFC9A7 EQ PUSH2 0x95 JUMPI DUP1 PUSH4 0x248A9CA3 EQ PUSH2 0xC5 JUMPI DUP1 PUSH4 0x2F2FF15D EQ PUSH2 0xF5 JUMPI DUP1 PUSH4 0x36568ABE EQ PUSH2 0x111 JUMPI JUMPDEST PUSH0 DUP1 REVERT JUMPDEST PUSH2 0xAF PUSH1 0x4 DUP1 CALLDATASIZE SUB DUP2 ADD SWAP1 PUSH2 0xAA SWAP2 SWAP1 PUSH2 0x71C JUMP JUMPDEST PUSH2 0x1D3 JUMP JUMPDEST PUSH1 0x40 MLOAD PUSH2 0xBC SWAP2 SWAP1 PUSH2 0x761 JUMP JUMPDEST PUSH1 0x40 MLOAD DUP1 SWAP2 SUB SWAP1 RETURN JUMPDEST PUSH2 0xDF PUSH1 0x4 DUP1 CALLDATASIZE SUB DUP2 ADD SWAP1 PUSH2 0xDA SWAP2 SWAP1 PUSH2 0x7AD JUMP JUMPDEST PUSH2 0x24C JUMP JUMPDEST PUSH1 0x40 MLOAD PUSH2 0xEC SWAP2 SWAP1 PUSH2 0x7E7 JUMP JUMPDEST PUSH1 0x40 MLOAD DUP1 SWAP2 SUB SWAP1 RETURN JUMPDEST PUSH2 0x10F PUSH1 0x4 DUP1 CALLDATASIZE SUB DUP2 ADD SWAP1 PUSH2 0x10A SWAP2 SWAP1 PUSH2 0x85A JUMP JUMPDEST PUSH2 0x268 JUMP JUMPDEST STOP JUMPDEST PUSH2 0x12B PUSH1 0x4 DUP1 CALLDATASIZE SUB DUP2 ADD SWAP1 PUSH2 0x126 SWAP2 SWAP1 PUSH2 0x85A JUMP JUMPDEST PUSH2 0x28A JUMP JUMPDEST STOP JUMPDEST PUSH2 0x135 PUSH2 0x305 JUMP JUMPDEST PUSH1 0x40 MLOAD PUSH2 0x142 SWAP2 SWAP1 PUSH2 0x7E7 JUMP JUMPDEST PUSH1 0x40 MLOAD DUP1 SWAP2 SUB SWAP1 RETURN JUMPDEST PUSH2 0x153 PUSH2 0x329 JUMP JUMPDEST PUSH1 0x40 MLOAD PUSH2 0x160 SWAP2 SWAP1 PUSH2 0x908 JUMP JUMPDEST PUSH1 0x40 MLOAD DUP1 SWAP2 SUB SWAP1 RETURN JUMPDEST PUSH2 0x183 PUSH1 0x4 DUP1 CALLDATASIZE SUB DUP2 ADD SWAP1 PUSH2 0x17E SWAP2 SWAP1 PUSH2 0x85A JUMP JUMPDEST PUSH2 0x391 JUMP JUMPDEST PUSH1 0x40 MLOAD PUSH2 0x190 SWAP2 SWAP1 PUSH2 0x761 JUMP JUMPDEST PUSH1 0x40 MLOAD DUP1 SWAP2 SUB SWAP1 RETURN JUMPDEST PUSH2 0x1A1 PUSH2 0x3F4 JUMP JUMPDEST PUSH1 0x40 MLOAD PUSH2 0x1AE SWAP2 SWAP1 PUSH2 0x7E7 JUMP JUMPDEST PUSH1 0x40 MLOAD DUP1 SWAP2 SUB SWAP1 RETURN JUMPDEST PUSH2 0x1D1 PUSH1 0x4 DUP1 CALLDATASIZE SUB DUP2 ADD SWAP1 PUSH2 0x1CC SWAP2 SWAP1 PUSH2 0x85A JUMP JUMPDEST PUSH2 0x3FA JUMP JUMPDEST STOP JUMPDEST PUSH0 PUSH32 0x7965DB0B00000000000000000000000000000000000000000000000000000000 PUSH28 0xFFFFFFFFFFFFFFFFFFFFFFFFFFFFFFFFFFFFFFFFFFFFFFFFFFFFFFFF NOT AND DUP3 PUSH28 0xFFFFFFFFFFFFFFFFFFFFFFFFFFFFFFFFFFFFFFFFFFFFFFFFFFFFFFFF NOT AND EQ DUP1 PUSH2 0x245 JUMPI POP PUSH2 0x244 DUP3 PUSH2 0x41C JUMP JUMPDEST JUMPDEST SWAP1 POP SWAP2 SWAP1 POP JUMP JUMPDEST PUSH0 DUP1 PUSH0 DUP4 DUP2 MSTORE PUSH1 0x20 ADD SWAP1 DUP2 MSTORE PUSH1 0x20 ADD PUSH0 KECCAK256 PUSH1 0x1 ADD SLOAD SWAP1 POP SWAP2 SWAP1 POP JUMP JUMPDEST PUSH2 0x271 DUP3 PUSH2 0x24C JUMP JUMPDEST PUSH2 0x27A DUP2 PUSH2 0x485 JUMP JUMPDEST PUSH2 0x284 DUP4 DUP4 PUSH2 0x499 JUMP JUMPDEST POP POP POP POP JUMP JUMPDEST PUSH2 0x292 PUSH2 0x582 JUMP JUMPDEST PUSH20 0xFFFFFFFFFFFFFFFFFFFFFFFFFFFFFFFFFFFFFFFF AND DUP2 PUSH20 0xFFFFFFFFFFFFFFFFFFFFFFFFFFFFFFFFFFFFFFFF AND EQ PUSH2 0x2F6 JUMPI PUSH1 0x40 MLOAD PUSH32 0x6697B23200000000000000000000000000000000000000000000000000000000 DUP2 MSTORE PUSH1 0x4 ADD PUSH1 0x40 MLOAD DUP1 SWAP2 SUB SWAP1 REVERT JUMPDEST PUSH2 0x300 DUP3 DUP3 PUSH2 0x589 JUMP JUMPDEST POP POP POP JUMP JUMPDEST PUSH32 0x59A1C48E5837AD7A7F3DCEDCBE129BF3249EC4FBF651FD4F5E2600EAD39FE2F5 DUP2 JUMP JUMPDEST PUSH1 0x60 PUSH32 0x59A1C48E5837AD7A7F3DCEDCBE129BF3249EC4FBF651FD4F5E2600EAD39FE2F5 PUSH2 0x355 DUP2 PUSH2 0x485 JUMP JUMPDEST PUSH1 0x40 MLOAD DUP1 PUSH1 0x40 ADD PUSH1 0x40 MSTORE DUP1 PUSH1 0x1F DUP2 MSTORE PUSH1 0x20 ADD PUSH32 0x4C6F677320617661696C61626C6520746F2061756469746F7273206F6E6C7900 DUP2 MSTORE POP SWAP2 POP POP SWAP1 JUMP JUMPDEST PUSH0 DUP1 PUSH0 DUP5 DUP2 MSTORE PUSH1 0x20 ADD SWAP1 DUP2 MSTORE PUSH1 0x20 ADD PUSH0 KECCAK256 PUSH0 ADD PUSH0 DUP4 PUSH20 0xFFFFFFFFFFFFFFFFFFFFFFFFFFFFFFFFFFFFFFFF AND PUSH20 0xFFFFFFFFFFFFFFFFFFFFFFFFFFFFFFFFFFFFFFFF AND DUP2 MSTORE PUSH1 0x20 ADD SWAP1 DUP2 MSTORE PUSH1 0x20 ADD PUSH0 KECCAK256 PUSH0 SWAP1 SLOAD SWAP1 PUSH2 0x100 EXP SWAP1 DIV PUSH1 0xFF AND SWAP1 POP SWAP3 SWAP2 POP POP JUMP JUMPDEST PUSH0 DUP1 SHL DUP2 JUMP JUMPDEST PUSH2 0x403 DUP3 PUSH2 0x24C JUMP JUMPDEST PUSH2 0x40C DUP2 PUSH2 0x485 JUMP JUMPDEST PUSH2 0x416 DUP4 DUP4 PUSH2 0x589 JUMP JUMPDEST POP POP POP POP JUMP JUMPDEST PUSH0 PUSH32 0x1FFC9A700000000000000000000000000000000000000000000000000000000 PUSH28 0xFFFFFFFFFFFFFFFFFFFFFFFFFFFFFFFFFFFFFFFFFFFFFFFFFFFFFFFF NOT AND DUP3 PUSH28 0xFFFFFFFFFFFFFFFFFFFFFFFFFFFFFFFFFFFFFFFFFFFFFFFFFFFFFFFF NOT AND EQ SWAP1 POP SWAP2 SWAP1 POP JUMP JUMPDEST PUSH2 0x496 DUP2 PUSH2 0x491 PUSH2 0x582 JUMP JUMPDEST PUSH2 0x672 JUMP JUMPDEST POP JUMP JUMPDEST PUSH0 PUSH2 0x4A4 DUP4 DUP4 PUSH2 0x391 JUMP JUMPDEST PUSH2 0x578 JUMPI PUSH1 0x1 PUSH0 DUP1 DUP6 DUP2 MSTORE PUSH1 0x20 ADD SWAP1 DUP2 MSTORE PUSH1 0x20 ADD PUSH0 KECCAK256 PUSH0 ADD PUSH0 DUP5 PUSH20 0xFFFFFFFFFFFFFFFFFFFFFFFFFFFFFFFFFFFFFFFF AND PUSH20 0xFFFFFFFFFFFFFFFFFFFFFFFFFFFFFFFFFFFFFFFF AND DUP2 MSTORE PUSH1 0x20 ADD SWAP1 DUP2 MSTORE PUSH1 0x20 ADD PUSH0 KECCAK256 PUSH0 PUSH2 0x100 EXP DUP2 SLOAD DUP2 PUSH1 0xFF MUL NOT AND SWAP1 DUP4 ISZERO ISZERO MUL OR SWAP1 SSTORE POP PUSH2 0x515 PUSH2 0x582 JUMP JUMPDEST PUSH20 0xFFFFFFFFFFFFFFFFFFFFFFFFFFFFFFFFFFFFFFFF AND DUP3 PUSH20 0xFFFFFFFFFFFFFFFFFFFFFFFFFFFFFFFFFFFFFFFF AND DUP5 PUSH32 0x2F8788117E7EFF1D82E926EC794901D17C78024A50270940304540A733656F0D PUSH1 0x40 MLOAD PUSH1 0x40 MLOAD DUP1 SWAP2 SUB SWAP1 LOG4 PUSH1 0x1 SWAP1 POP PUSH2 0x57C JUMP JUMPDEST PUSH0 SWAP1 POP JUMPDEST SWAP3 SWAP2 POP POP JUMP JUMPDEST PUSH0 CALLER SWAP1 POP SWAP1 JUMP JUMPDEST PUSH0 PUSH2 0x594 DUP4 DUP4 PUSH2 0x391 JUMP JUMPDEST ISZERO PUSH2 0x668 JUMPI PUSH0 DUP1 PUSH0 DUP6 DUP2 MSTORE PUSH1 0x20 ADD SWAP1 DUP2 MSTORE PUSH1 0x20 ADD PUSH0 KECCAK256 PUSH0 ADD PUSH0 DUP5 PUSH20 0xFFFFFFFFFFFFFFFFFFFFFFFFFFFFFFFFFFFFFFFF AND PUSH20 0xFFFFFFFFFFFFFFFFFFFFFFFFFFFFFFFFFFFFFFFF AND DUP2 MSTORE PUSH1 0x20 ADD SWAP1 DUP2 MSTORE PUSH1 0x20 ADD PUSH0 KECCAK256 PUSH0 PUSH2 0x100 EXP DUP2 SLOAD DUP2 PUSH1 0xFF MUL NOT AND SWAP1 DUP4 ISZERO ISZERO MUL OR SWAP1 SSTORE POP PUSH2 0x605 PUSH2 0x582 JUMP JUMPDEST PUSH20 0xFFFFFFFFFFFFFFFFFFFFFFFFFFFFFFFFFFFFFFFF AND DUP3 PUSH20 0xFFFFFFFFFFFFFFFFFFFFFFFFFFFFFFFFFFFFFFFF AND DUP5 PUSH32 0xF6391F5C32D9C69D2A47EA670B442974B53935D1EDC7FD64EB21E047A839171B PUSH1 0x40 MLOAD PUSH1 0x40 MLOAD DUP1 SWAP2 SUB SWAP1 LOG4 PUSH1 0x1 SWAP1 POP PUSH2 0x66C JUMP JUMPDEST PUSH0 SWAP1 POP JUMPDEST SWAP3 SWAP2 POP POP JUMP JUMPDEST PUSH2 0x67C DUP3 DUP3 PUSH2 0x391 JUMP JUMPDEST PUSH2 0x6BF JUMPI DUP1 DUP3 PUSH1 0x40 MLOAD PUSH32 0xE2517D3F00000000000000000000000000000000000000000000000000000000 DUP2 MSTORE PUSH1 0x4 ADD PUSH2 0x6B6 SWAP3 SWAP2 SWAP1 PUSH2 0x937 JUMP JUMPDEST PUSH1 0x40 MLOAD DUP1 SWAP2 SUB SWAP1 REVERT JUMPDEST POP POP JUMP JUMPDEST PUSH0 DUP1 REVERT JUMPDEST PUSH0 PUSH32 0xFFFFFFFF00000000000000000000000000000000000000000000000000000000 DUP3 AND SWAP1 POP SWAP2 SWAP1 POP JUMP JUMPDEST PUSH2 0x6FB DUP2 PUSH2 0x6C7 JUMP JUMPDEST DUP2 EQ PUSH2 0x705 JUMPI PUSH0 DUP1 REVERT JUMPDEST POP JUMP JUMPDEST PUSH0 DUP2 CALLDATALOAD SWAP1 POP PUSH2 0x716 DUP2 PUSH2 0x6F2 JUMP JUMPDEST SWAP3 SWAP2 POP POP JUMP JUMPDEST PUSH0 PUSH1 0x20 DUP3 DUP5 SUB SLT ISZERO PUSH2 0x731 JUMPI PUSH2 0x730 PUSH2 0x6C3 JUMP JUMPDEST JUMPDEST PUSH0 PUSH2 0x73E DUP5 DUP3 DUP6 ADD PUSH2 0x708 JUMP JUMPDEST SWAP2 POP POP SWAP3 SWAP2 POP POP JUMP JUMPDEST PUSH0 DUP2 ISZERO ISZERO SWAP1 POP SWAP2 SWAP1 POP JUMP JUMPDEST PUSH2 0x75B DUP2 PUSH2 0x747 JUMP JUMPDEST DUP3 MSTORE POP POP JUMP JUMPDEST PUSH0 PUSH1 0x20 DUP3 ADD SWAP1 POP PUSH2 0x774 PUSH0 DUP4 ADD DUP5 PUSH2 0x752 JUMP JUMPDEST SWAP3 SWAP2 POP POP JUMP JUMPDEST PUSH0 DUP2 SWAP1 POP SWAP2 SWAP1 POP JUMP JUMPDEST PUSH2 0x78C DUP2 PUSH2 0x77A JUMP JUMPDEST DUP2 EQ PUSH2 0x796 JUMPI PUSH0 DUP1 REVERT JUMPDEST POP JUMP JUMPDEST PUSH0 DUP2 CALLDATALOAD SWAP1 POP PUSH2 0x7A7 DUP2 PUSH2 0x783 JUMP JUMPDEST SWAP3 SWAP2 POP POP JUMP JUMPDEST PUSH0 PUSH1 0x20 DUP3 DUP5 SUB SLT ISZERO PUSH2 0x7C2 JUMPI PUSH2 0x7C1 PUSH2 0x6C3 JUMP JUMPDEST JUMPDEST PUSH0 PUSH2 0x7CF DUP5 DUP3 DUP6 ADD PUSH2 0x799 JUMP JUMPDEST SWAP2 POP POP SWAP3 SWAP2 POP POP JUMP JUMPDEST PUSH2 0x7E1 DUP2 PUSH2 0x77A JUMP JUMPDEST DUP3 MSTORE POP POP JUMP JUMPDEST PUSH0 PUSH1 0x20 DUP3 ADD SWAP1 POP PUSH2 0x7FA PUSH0 DUP4 ADD DUP5 PUSH2 0x7D8 JUMP JUMPDEST SWAP3 SWAP2 POP POP JUMP JUMPDEST PUSH0 PUSH20 0xFFFFFFFFFFFFFFFFFFFFFFFFFFFFFFFFFFFFFFFF DUP3 AND SWAP1 POP SWAP2 SWAP1 POP JUMP JUMPDEST PUSH0 PUSH2 0x829 DUP3 PUSH2 0x800 JUMP JUMPDEST SWAP1 POP SWAP2 SWAP1 POP JUMP JUMPDEST PUSH2 0x839 DUP2 PUSH2 0x81F JUMP JUMPDEST DUP2 EQ PUSH2 0x843 JUMPI PUSH0 DUP1 REVERT JUMPDEST POP JUMP JUMPDEST PUSH0 DUP2 CALLDATALOAD SWAP1 POP PUSH2 0x854 DUP2 PUSH2 0x830 JUMP JUMPDEST SWAP3 SWAP2 POP POP JUMP JUMPDEST PUSH0 DUP1 PUSH1 0x40 DUP4 DUP6 SUB SLT ISZERO PUSH2 0x870 JUMPI PUSH2 0x86F PUSH2 0x6C3 JUMP JUMPDEST JUMPDEST PUSH0 PUSH2 0x87D DUP6 DUP3 DUP7 ADD PUSH2 0x799 JUMP JUMPDEST SWAP3 POP POP PUSH1 0x20 PUSH2 0x88E DUP6 DUP3 DUP7 ADD PUSH2 0x846 JUMP JUMPDEST SWAP2 POP POP SWAP3 POP SWAP3 SWAP1 POP JUMP JUMPDEST PUSH0 DUP2 MLOAD SWAP1 POP SWAP2 SWAP1 POP JUMP JUMPDEST PUSH0 DUP3 DUP3 MSTORE PUSH1 0x20 DUP3 ADD SWAP1 POP SWAP3 SWAP2 POP POP JUMP JUMPDEST DUP3 DUP2 DUP4 MCOPY PUSH0 DUP4 DUP4 ADD MSTORE POP POP POP JUMP JUMPDEST PUSH0 PUSH1 0x1F NOT PUSH1 0x1F DUP4 ADD AND SWAP1 POP SWAP2 SWAP1 POP JUMP JUMPDEST PUSH0 PUSH2 0x8DA DUP3 PUSH2 0x898 JUMP JUMPDEST PUSH2 0x8E4 DUP2 DUP6 PUSH2 0x8A2 JUMP JUMPDEST SWAP4 POP PUSH2 0x8F4 DUP2 DUP6 PUSH1 0x20 DUP7 ADD PUSH2 0x8B2 JUMP JUMPDEST PUSH2 0x8FD DUP2 PUSH2 0x8C0 JUMP JUMPDEST DUP5 ADD SWAP2 POP POP SWAP3 SWAP2 POP POP JUMP JUMPDEST PUSH0 PUSH1 0x20 DUP3 ADD SWAP1 POP DUP2 DUP2 SUB PUSH0 DUP4 ADD MSTORE PUSH2 0x920 DUP2 DUP5 PUSH2 0x8D0 JUMP JUMPDEST SWAP1 POP SWAP3 SWAP2 POP POP JUMP JUMPDEST PUSH2 0x931 DUP2 PUSH2 0x81F JUMP JUMPDEST DUP3 MSTORE POP POP JUMP JUMPDEST PUSH0 PUSH1 0x40 DUP3 ADD SWAP1 POP PUSH2 0x94A PUSH0 DUP4 ADD DUP6 PUSH2 0x928 JUMP JUMPDEST PUSH2 0x957 PUSH1 0x20 DUP4 ADD DUP5 PUSH2 0x7D8 JUMP JUMPDEST SWAP4 SWAP3 POP POP POP JUMP INVALID LOG2 PUSH5 0x6970667358 0x22 SLT KECCAK256 PREVRANDAO GAS GAS PUSH21 0x36CAECFC7E7FA6806E1B754659413ED82D842B51E KECCAK256 0xEB PUSH3 0x24ABF6 0xC8 PUSH5 0x736F6C6343 STOP ADDMOD BYTE STOP CALLER "
				},
				"gasEstimates": {
					"creation": {
						"codeDepositCost": "490400",
						"executionCost": "infinite",
						"totalCost": "infinite"
					},
					"external": {
						"AUDITOR_ROLE()": "325",
						"DEFAULT_ADMIN_ROLE()": "396",
						"auditLogs()": "infinite",
						"getRoleAdmin(bytes32)": "infinite",
						"grantRole(bytes32,address)": "infinite",
						"hasRole(bytes32,address)": "3166",
						"renounceRole(bytes32,address)": "infinite",
						"revokeRole(bytes32,address)": "infinite",
						"supportsInterface(bytes4)": "718"
					}
				},
				"methodIdentifiers": {
					"AUDITOR_ROLE()": "6e1d616e",
					"DEFAULT_ADMIN_ROLE()": "a217fddf",
					"auditLogs()": "88d1b0ad",
					"getRoleAdmin(bytes32)": "248a9ca3",
					"grantRole(bytes32,address)": "2f2ff15d",
					"hasRole(bytes32,address)": "91d14854",
					"renounceRole(bytes32,address)": "36568abe",
					"revokeRole(bytes32,address)": "d547741f",
					"supportsInterface(bytes4)": "01ffc9a7"
				}
			},
			"storageLayout": {
				"storage": [
					{
						"astId": 26,
						"contract": "I/Issue-Specific Policy/Role-Specific Function Policy.sol:RolePolicy",
						"label": "_roles",
						"offset": 0,
						"slot": "0",
						"type": "t_mapping(t_bytes32,t_struct(RoleData)21_storage)"
					}
				],
				"types": {
					"t_address": {
						"encoding": "inplace",
						"label": "address",
						"numberOfBytes": "20"
					},
					"t_bool": {
						"encoding": "inplace",
						"label": "bool",
						"numberOfBytes": "1"
					},
					"t_bytes32": {
						"encoding": "inplace",
						"label": "bytes32",
						"numberOfBytes": "32"
					},
					"t_mapping(t_address,t_bool)": {
						"encoding": "mapping",
						"key": "t_address",
						"label": "mapping(address => bool)",
						"numberOfBytes": "32",
						"value": "t_bool"
					},
					"t_mapping(t_bytes32,t_struct(RoleData)21_storage)": {
						"encoding": "mapping",
						"key": "t_bytes32",
						"label": "mapping(bytes32 => struct AccessControl.RoleData)",
						"numberOfBytes": "32",
						"value": "t_struct(RoleData)21_storage"
					},
					"t_struct(RoleData)21_storage": {
						"encoding": "inplace",
						"label": "struct AccessControl.RoleData",
						"members": [
							{
								"astId": 18,
								"contract": "I/Issue-Specific Policy/Role-Specific Function Policy.sol:RolePolicy",
								"label": "hasRole",
								"offset": 0,
								"slot": "0",
								"type": "t_mapping(t_address,t_bool)"
							},
							{
								"astId": 20,
								"contract": "I/Issue-Specific Policy/Role-Specific Function Policy.sol:RolePolicy",
								"label": "adminRole",
								"offset": 0,
								"slot": "1",
								"type": "t_bytes32"
							}
						],
						"numberOfBytes": "64"
					}
				}
			},
			"userdoc": {
				"kind": "user",
				"methods": {},
				"version": 1
			}
		}
	}
}