{
	"I/Issue-Specific Policy/Geofenced Policy (Off-chain tagging).sol": {
		"GeoTaggedPolicy": {
			"abi": [
				{
					"inputs": [],
					"stateMutability": "nonpayable",
					"type": "constructor"
				},
				{
					"inputs": [],
					"name": "admin",
					"outputs": [
						{
							"internalType": "address",
							"name": "",
							"type": "address"
						}
					],
					"stateMutability": "view",
					"type": "function"
				},
				{
					"inputs": [
						{
							"internalType": "string",
							"name": "",
							"type": "string"
						}
					],
					"name": "allowedRegions",
					"outputs": [
						{
							"internalType": "bool",
							"name": "",
							"type": "bool"
						}
					],
					"stateMutability": "view",
					"type": "function"
				},
				{
					"inputs": [],
					"name": "regionRestrictedAction",
					"outputs": [],
					"stateMutability": "nonpayable",
					"type": "function"
				},
				{
					"inputs": [
						{
							"internalType": "address",
							"name": "",
							"type": "address"
						}
					],
					"name": "regionTag",
					"outputs": [
						{
							"internalType": "string",
							"name": "",
							"type": "string"
						}
					],
					"stateMutability": "view",
					"type": "function"
				},
				{
					"inputs": [
						{
							"internalType": "address",
							"name": "user",
							"type": "address"
						},
						{
							"internalType": "string",
							"name": "tag",
							"type": "string"
						}
					],
					"name": "setRegion",
					"outputs": [],
					"stateMutability": "nonpayable",
					"type": "function"
				}
			],
			"devdoc": {
				"kind": "dev",
				"methods": {},
				"version": 1
			},
			"evm": {
				"assembly": "    /* \"I/Issue-Specific Policy/Geofenced Policy (Off-chain tagging).sol\":26:661  contract GeoTaggedPolicy {... */\n  mstore(0x40, 0x80)\n    /* \"I/Issue-Specific Policy/Geofenced Policy (Off-chain tagging).sol\":184:270  constructor() {... */\n  callvalue\n  dup1\n  iszero\n  tag_1\n  jumpi\n  0x00\n  dup1\n  revert\ntag_1:\n  pop\n    /* \"I/Issue-Specific Policy/Geofenced Policy (Off-chain tagging).sol\":216:226  msg.sender */\n  caller\n    /* \"I/Issue-Specific Policy/Geofenced Policy (Off-chain tagging).sol\":208:213  admin */\n  0x02\n  0x00\n    /* \"I/Issue-Specific Policy/Geofenced Policy (Off-chain tagging).sol\":208:226  admin = msg.sender */\n  0x0100\n  exp\n  dup2\n  sload\n  dup2\n  0xffffffffffffffffffffffffffffffffffffffff\n  mul\n  not\n  and\n  swap1\n  dup4\n  0xffffffffffffffffffffffffffffffffffffffff\n  and\n  mul\n  or\n  swap1\n  sstore\n  pop\n    /* \"I/Issue-Specific Policy/Geofenced Policy (Off-chain tagging).sol\":259:263  true */\n  0x01\n    /* \"I/Issue-Specific Policy/Geofenced Policy (Off-chain tagging).sol\":236:250  allowedRegions */\n  dup1\n    /* \"I/Issue-Specific Policy/Geofenced Policy (Off-chain tagging).sol\":236:256  allowedRegions[\"KH\"] */\n  mload(0x40)\n  tag_4\n  swap1\n  tag_5\n  jump\t// in\ntag_4:\n  swap1\n  dup2\n  mstore\n  0x20\n  add\n  mload(0x40)\n  dup1\n  swap2\n  sub\n  swap1\n  keccak256\n  0x00\n    /* \"I/Issue-Specific Policy/Geofenced Policy (Off-chain tagging).sol\":236:263  allowedRegions[\"KH\"] = true */\n  0x0100\n  exp\n  dup2\n  sload\n  dup2\n  0xff\n  mul\n  not\n  and\n  swap1\n  dup4\n  iszero\n  iszero\n  mul\n  or\n  swap1\n  sstore\n  pop\n    /* \"I/Issue-Specific Policy/Geofenced Policy (Off-chain tagging).sol\":26:661  contract GeoTaggedPolicy {... */\n  jump(tag_6)\n    /* \"#utility.yul\":7:155   */\ntag_7:\n    /* \"#utility.yul\":109:120   */\n  0x00\n    /* \"#utility.yul\":146:149   */\n  dup2\n    /* \"#utility.yul\":131:149   */\n  swap1\n  pop\n    /* \"#utility.yul\":7:155   */\n  swap3\n  swap2\n  pop\n  pop\n  jump\t// out\n    /* \"#utility.yul\":161:313   */\ntag_8:\n    /* \"#utility.yul\":301:305   */\n  0x4b48000000000000000000000000000000000000000000000000000000000000\n    /* \"#utility.yul\":297:298   */\n  0x00\n    /* \"#utility.yul\":289:295   */\n  dup3\n    /* \"#utility.yul\":285:299   */\n  add\n    /* \"#utility.yul\":278:306   */\n  mstore\n    /* \"#utility.yul\":161:313   */\n  pop\n  jump\t// out\n    /* \"#utility.yul\":319:719   */\ntag_9:\n    /* \"#utility.yul\":479:482   */\n  0x00\n    /* \"#utility.yul\":500:584   */\n  tag_14\n    /* \"#utility.yul\":582:583   */\n  0x02\n    /* \"#utility.yul\":577:580   */\n  dup4\n    /* \"#utility.yul\":500:584   */\n  tag_7\n  jump\t// in\ntag_14:\n    /* \"#utility.yul\":493:584   */\n  swap2\n  pop\n    /* \"#utility.yul\":593:686   */\n  tag_15\n    /* \"#utility.yul\":682:685   */\n  dup3\n    /* \"#utility.yul\":593:686   */\n  tag_8\n  jump\t// in\ntag_15:\n    /* \"#utility.yul\":711:712   */\n  0x02\n    /* \"#utility.yul\":706:709   */\n  dup3\n    /* \"#utility.yul\":702:713   */\n  add\n    /* \"#utility.yul\":695:713   */\n  swap1\n  pop\n    /* \"#utility.yul\":319:719   */\n  swap2\n  swap1\n  pop\n  jump\t// out\n    /* \"#utility.yul\":725:1106   */\ntag_5:\n    /* \"#utility.yul\":910:913   */\n  0x00\n    /* \"#utility.yul\":932:1080   */\n  tag_17\n    /* \"#utility.yul\":1076:1079   */\n  dup3\n    /* \"#utility.yul\":932:1080   */\n  tag_9\n  jump\t// in\ntag_17:\n    /* \"#utility.yul\":925:1080   */\n  swap2\n  pop\n    /* \"#utility.yul\":1097:1100   */\n  dup2\n    /* \"#utility.yul\":1090:1100   */\n  swap1\n  pop\n    /* \"#utility.yul\":725:1106   */\n  swap2\n  swap1\n  pop\n  jump\t// out\n    /* \"I/Issue-Specific Policy/Geofenced Policy (Off-chain tagging).sol\":26:661  contract GeoTaggedPolicy {... */\ntag_6:\n  dataSize(sub_0)\n  dup1\n  dataOffset(sub_0)\n  0x00\n  codecopy\n  0x00\n  return\nstop\n\nsub_0: assembly {\n        /* \"I/Issue-Specific Policy/Geofenced Policy (Off-chain tagging).sol\":26:661  contract GeoTaggedPolicy {... */\n      mstore(0x40, 0x80)\n      callvalue\n      dup1\n      iszero\n      tag_1\n      jumpi\n      0x00\n      dup1\n      revert\n    tag_1:\n      pop\n      jumpi(tag_2, lt(calldatasize, 0x04))\n      shr(0xe0, calldataload(0x00))\n      dup1\n      0x4a71b760\n      eq\n      tag_3\n      jumpi\n      dup1\n      0x4b3c5e81\n      eq\n      tag_4\n      jumpi\n      dup1\n      0x9454d942\n      eq\n      tag_5\n      jumpi\n      dup1\n      0x947d2420\n      eq\n      tag_6\n      jumpi\n      dup1\n      0xf851a440\n      eq\n      tag_7\n      jumpi\n    tag_2:\n      0x00\n      dup1\n      revert\n        /* \"I/Issue-Specific Policy/Geofenced Policy (Off-chain tagging).sol\":560:659  function regionRestrictedAction() external regionAllowed {... */\n    tag_3:\n      tag_8\n      tag_9\n      jump\t// in\n    tag_8:\n      stop\n        /* \"I/Issue-Specific Policy/Geofenced Policy (Off-chain tagging).sol\":106:151  mapping(string => bool) public allowedRegions */\n    tag_4:\n      tag_10\n      0x04\n      dup1\n      calldatasize\n      sub\n      dup2\n      add\n      swap1\n      tag_11\n      swap2\n      swap1\n      tag_12\n      jump\t// in\n    tag_11:\n      tag_13\n      jump\t// in\n    tag_10:\n      mload(0x40)\n      tag_14\n      swap2\n      swap1\n      tag_15\n      jump\t// in\n    tag_14:\n      mload(0x40)\n      dup1\n      swap2\n      sub\n      swap1\n      return\n        /* \"I/Issue-Specific Policy/Geofenced Policy (Off-chain tagging).sol\":403:554  function setRegion(address user, string memory tag) external {... */\n    tag_5:\n      tag_16\n      0x04\n      dup1\n      calldatasize\n      sub\n      dup2\n      add\n      swap1\n      tag_17\n      swap2\n      swap1\n      tag_18\n      jump\t// in\n    tag_17:\n      tag_19\n      jump\t// in\n    tag_16:\n      stop\n        /* \"I/Issue-Specific Policy/Geofenced Policy (Off-chain tagging).sol\":57:100  mapping(address => string) public regionTag */\n    tag_6:\n      tag_20\n      0x04\n      dup1\n      calldatasize\n      sub\n      dup2\n      add\n      swap1\n      tag_21\n      swap2\n      swap1\n      tag_22\n      jump\t// in\n    tag_21:\n      tag_23\n      jump\t// in\n    tag_20:\n      mload(0x40)\n      tag_24\n      swap2\n      swap1\n      tag_25\n      jump\t// in\n    tag_24:\n      mload(0x40)\n      dup1\n      swap2\n      sub\n      swap1\n      return\n        /* \"I/Issue-Specific Policy/Geofenced Policy (Off-chain tagging).sol\":157:177  address public admin */\n    tag_7:\n      tag_26\n      tag_27\n      jump\t// in\n    tag_26:\n      mload(0x40)\n      tag_28\n      swap2\n      swap1\n      tag_29\n      jump\t// in\n    tag_28:\n      mload(0x40)\n      dup1\n      swap2\n      sub\n      swap1\n      return\n        /* \"I/Issue-Specific Policy/Geofenced Policy (Off-chain tagging).sol\":560:659  function regionRestrictedAction() external regionAllowed {... */\n    tag_9:\n        /* \"I/Issue-Specific Policy/Geofenced Policy (Off-chain tagging).sol\":319:333  allowedRegions */\n      0x01\n        /* \"I/Issue-Specific Policy/Geofenced Policy (Off-chain tagging).sol\":334:343  regionTag */\n      0x00\n        /* \"I/Issue-Specific Policy/Geofenced Policy (Off-chain tagging).sol\":334:355  regionTag[msg.sender] */\n      dup1\n        /* \"I/Issue-Specific Policy/Geofenced Policy (Off-chain tagging).sol\":344:354  msg.sender */\n      caller\n        /* \"I/Issue-Specific Policy/Geofenced Policy (Off-chain tagging).sol\":334:355  regionTag[msg.sender] */\n      0xffffffffffffffffffffffffffffffffffffffff\n      and\n      0xffffffffffffffffffffffffffffffffffffffff\n      and\n      dup2\n      mstore\n      0x20\n      add\n      swap1\n      dup2\n      mstore\n      0x20\n      add\n      0x00\n      keccak256\n        /* \"I/Issue-Specific Policy/Geofenced Policy (Off-chain tagging).sol\":319:356  allowedRegions[regionTag[msg.sender]] */\n      mload(0x40)\n      tag_31\n      swap2\n      swap1\n      tag_32\n      jump\t// in\n    tag_31:\n      swap1\n      dup2\n      mstore\n      0x20\n      add\n      mload(0x40)\n      dup1\n      swap2\n      sub\n      swap1\n      keccak256\n      0x00\n      swap1\n      sload\n      swap1\n      0x0100\n      exp\n      swap1\n      div\n      0xff\n      and\n        /* \"I/Issue-Specific Policy/Geofenced Policy (Off-chain tagging).sol\":311:379  require(allowedRegions[regionTag[msg.sender]], \"Region not allowed\") */\n      tag_33\n      jumpi\n      mload(0x40)\n      0x08c379a000000000000000000000000000000000000000000000000000000000\n      dup2\n      mstore\n      0x04\n      add\n      tag_34\n      swap1\n      tag_35\n      jump\t// in\n    tag_34:\n      mload(0x40)\n      dup1\n      swap2\n      sub\n      swap1\n      revert\n    tag_33:\n        /* \"I/Issue-Specific Policy/Geofenced Policy (Off-chain tagging).sol\":560:659  function regionRestrictedAction() external regionAllowed {... */\n      jump\t// out\n        /* \"I/Issue-Specific Policy/Geofenced Policy (Off-chain tagging).sol\":106:151  mapping(string => bool) public allowedRegions */\n    tag_13:\n      0x01\n      dup2\n      dup1\n      mload\n      0x20\n      dup2\n      add\n      dup3\n      add\n      dup1\n      mload\n      dup5\n      dup3\n      mstore\n      0x20\n      dup4\n      add\n      0x20\n      dup6\n      add\n      keccak256\n      dup2\n      dup4\n      mstore\n      dup1\n      swap6\n      pop\n      pop\n      pop\n      pop\n      pop\n      pop\n      0x00\n      swap2\n      pop\n      sload\n      swap1\n      0x0100\n      exp\n      swap1\n      div\n      0xff\n      and\n      dup2\n      jump\t// out\n        /* \"I/Issue-Specific Policy/Geofenced Policy (Off-chain tagging).sol\":403:554  function setRegion(address user, string memory tag) external {... */\n    tag_19:\n        /* \"I/Issue-Specific Policy/Geofenced Policy (Off-chain tagging).sol\":496:501  admin */\n      0x02\n      0x00\n      swap1\n      sload\n      swap1\n      0x0100\n      exp\n      swap1\n      div\n      0xffffffffffffffffffffffffffffffffffffffff\n      and\n        /* \"I/Issue-Specific Policy/Geofenced Policy (Off-chain tagging).sol\":482:501  msg.sender == admin */\n      0xffffffffffffffffffffffffffffffffffffffff\n      and\n        /* \"I/Issue-Specific Policy/Geofenced Policy (Off-chain tagging).sol\":482:492  msg.sender */\n      caller\n        /* \"I/Issue-Specific Policy/Geofenced Policy (Off-chain tagging).sol\":482:501  msg.sender == admin */\n      0xffffffffffffffffffffffffffffffffffffffff\n      and\n      eq\n        /* \"I/Issue-Specific Policy/Geofenced Policy (Off-chain tagging).sol\":474:516  require(msg.sender == admin, \"Only admin\") */\n      tag_38\n      jumpi\n      mload(0x40)\n      0x08c379a000000000000000000000000000000000000000000000000000000000\n      dup2\n      mstore\n      0x04\n      add\n      tag_39\n      swap1\n      tag_40\n      jump\t// in\n    tag_39:\n      mload(0x40)\n      dup1\n      swap2\n      sub\n      swap1\n      revert\n    tag_38:\n        /* \"I/Issue-Specific Policy/Geofenced Policy (Off-chain tagging).sol\":544:547  tag */\n      dup1\n        /* \"I/Issue-Specific Policy/Geofenced Policy (Off-chain tagging).sol\":526:535  regionTag */\n      0x00\n        /* \"I/Issue-Specific Policy/Geofenced Policy (Off-chain tagging).sol\":526:541  regionTag[user] */\n      dup1\n        /* \"I/Issue-Specific Policy/Geofenced Policy (Off-chain tagging).sol\":536:540  user */\n      dup5\n        /* \"I/Issue-Specific Policy/Geofenced Policy (Off-chain tagging).sol\":526:541  regionTag[user] */\n      0xffffffffffffffffffffffffffffffffffffffff\n      and\n      0xffffffffffffffffffffffffffffffffffffffff\n      and\n      dup2\n      mstore\n      0x20\n      add\n      swap1\n      dup2\n      mstore\n      0x20\n      add\n      0x00\n      keccak256\n        /* \"I/Issue-Specific Policy/Geofenced Policy (Off-chain tagging).sol\":526:547  regionTag[user] = tag */\n      swap1\n      dup2\n      tag_41\n      swap2\n      swap1\n      tag_42\n      jump\t// in\n    tag_41:\n      pop\n        /* \"I/Issue-Specific Policy/Geofenced Policy (Off-chain tagging).sol\":403:554  function setRegion(address user, string memory tag) external {... */\n      pop\n      pop\n      jump\t// out\n        /* \"I/Issue-Specific Policy/Geofenced Policy (Off-chain tagging).sol\":57:100  mapping(address => string) public regionTag */\n    tag_23:\n      mstore(0x20, 0x00)\n      dup1\n      0x00\n      mstore\n      keccak256(0x00, 0x40)\n      0x00\n      swap2\n      pop\n      swap1\n      pop\n      dup1\n      sload\n      tag_43\n      swap1\n      tag_44\n      jump\t// in\n    tag_43:\n      dup1\n      0x1f\n      add\n      0x20\n      dup1\n      swap2\n      div\n      mul\n      0x20\n      add\n      mload(0x40)\n      swap1\n      dup2\n      add\n      0x40\n      mstore\n      dup1\n      swap3\n      swap2\n      swap1\n      dup2\n      dup2\n      mstore\n      0x20\n      add\n      dup3\n      dup1\n      sload\n      tag_45\n      swap1\n      tag_44\n      jump\t// in\n    tag_45:\n      dup1\n      iszero\n      tag_46\n      jumpi\n      dup1\n      0x1f\n      lt\n      tag_47\n      jumpi\n      0x0100\n      dup1\n      dup4\n      sload\n      div\n      mul\n      dup4\n      mstore\n      swap2\n      0x20\n      add\n      swap2\n      jump(tag_46)\n    tag_47:\n      dup3\n      add\n      swap2\n      swap1\n      0x00\n      mstore\n      keccak256(0x00, 0x20)\n      swap1\n    tag_48:\n      dup2\n      sload\n      dup2\n      mstore\n      swap1\n      0x01\n      add\n      swap1\n      0x20\n      add\n      dup1\n      dup4\n      gt\n      tag_48\n      jumpi\n      dup3\n      swap1\n      sub\n      0x1f\n      and\n      dup3\n      add\n      swap2\n    tag_46:\n      pop\n      pop\n      pop\n      pop\n      pop\n      dup2\n      jump\t// out\n        /* \"I/Issue-Specific Policy/Geofenced Policy (Off-chain tagging).sol\":157:177  address public admin */\n    tag_27:\n      0x02\n      0x00\n      swap1\n      sload\n      swap1\n      0x0100\n      exp\n      swap1\n      div\n      0xffffffffffffffffffffffffffffffffffffffff\n      and\n      dup2\n      jump\t// out\n        /* \"#utility.yul\":7:82   */\n    tag_49:\n        /* \"#utility.yul\":40:46   */\n      0x00\n        /* \"#utility.yul\":73:75   */\n      0x40\n        /* \"#utility.yul\":67:76   */\n      mload\n        /* \"#utility.yul\":57:76   */\n      swap1\n      pop\n        /* \"#utility.yul\":7:82   */\n      swap1\n      jump\t// out\n        /* \"#utility.yul\":88:205   */\n    tag_50:\n        /* \"#utility.yul\":197:198   */\n      0x00\n        /* \"#utility.yul\":194:195   */\n      dup1\n        /* \"#utility.yul\":187:199   */\n      revert\n        /* \"#utility.yul\":211:328   */\n    tag_51:\n        /* \"#utility.yul\":320:321   */\n      0x00\n        /* \"#utility.yul\":317:318   */\n      dup1\n        /* \"#utility.yul\":310:322   */\n      revert\n        /* \"#utility.yul\":334:451   */\n    tag_52:\n        /* \"#utility.yul\":443:444   */\n      0x00\n        /* \"#utility.yul\":440:441   */\n      dup1\n        /* \"#utility.yul\":433:445   */\n      revert\n        /* \"#utility.yul\":457:574   */\n    tag_53:\n        /* \"#utility.yul\":566:567   */\n      0x00\n        /* \"#utility.yul\":563:564   */\n      dup1\n        /* \"#utility.yul\":556:568   */\n      revert\n        /* \"#utility.yul\":580:682   */\n    tag_54:\n        /* \"#utility.yul\":621:627   */\n      0x00\n        /* \"#utility.yul\":672:674   */\n      0x1f\n        /* \"#utility.yul\":668:675   */\n      not\n        /* \"#utility.yul\":663:665   */\n      0x1f\n        /* \"#utility.yul\":656:661   */\n      dup4\n        /* \"#utility.yul\":652:666   */\n      add\n        /* \"#utility.yul\":648:676   */\n      and\n        /* \"#utility.yul\":638:676   */\n      swap1\n      pop\n        /* \"#utility.yul\":580:682   */\n      swap2\n      swap1\n      pop\n      jump\t// out\n        /* \"#utility.yul\":688:868   */\n    tag_55:\n        /* \"#utility.yul\":736:813   */\n      0x4e487b7100000000000000000000000000000000000000000000000000000000\n        /* \"#utility.yul\":733:734   */\n      0x00\n        /* \"#utility.yul\":726:814   */\n      mstore\n        /* \"#utility.yul\":833:837   */\n      0x41\n        /* \"#utility.yul\":830:831   */\n      0x04\n        /* \"#utility.yul\":823:838   */\n      mstore\n        /* \"#utility.yul\":857:861   */\n      0x24\n        /* \"#utility.yul\":854:855   */\n      0x00\n        /* \"#utility.yul\":847:862   */\n      revert\n        /* \"#utility.yul\":874:1155   */\n    tag_56:\n        /* \"#utility.yul\":957:984   */\n      tag_105\n        /* \"#utility.yul\":979:983   */\n      dup3\n        /* \"#utility.yul\":957:984   */\n      tag_54\n      jump\t// in\n    tag_105:\n        /* \"#utility.yul\":949:955   */\n      dup2\n        /* \"#utility.yul\":945:985   */\n      add\n        /* \"#utility.yul\":1087:1093   */\n      dup2\n        /* \"#utility.yul\":1075:1085   */\n      dup2\n        /* \"#utility.yul\":1072:1094   */\n      lt\n        /* \"#utility.yul\":1051:1069   */\n      0xffffffffffffffff\n        /* \"#utility.yul\":1039:1049   */\n      dup3\n        /* \"#utility.yul\":1036:1070   */\n      gt\n        /* \"#utility.yul\":1033:1095   */\n      or\n        /* \"#utility.yul\":1030:1118   */\n      iszero\n      tag_106\n      jumpi\n        /* \"#utility.yul\":1098:1116   */\n      tag_107\n      tag_55\n      jump\t// in\n    tag_107:\n        /* \"#utility.yul\":1030:1118   */\n    tag_106:\n        /* \"#utility.yul\":1138:1148   */\n      dup1\n        /* \"#utility.yul\":1134:1136   */\n      0x40\n        /* \"#utility.yul\":1127:1149   */\n      mstore\n        /* \"#utility.yul\":917:1155   */\n      pop\n        /* \"#utility.yul\":874:1155   */\n      pop\n      pop\n      jump\t// out\n        /* \"#utility.yul\":1161:1290   */\n    tag_57:\n        /* \"#utility.yul\":1195:1201   */\n      0x00\n        /* \"#utility.yul\":1222:1242   */\n      tag_109\n      tag_49\n      jump\t// in\n    tag_109:\n        /* \"#utility.yul\":1212:1242   */\n      swap1\n      pop\n        /* \"#utility.yul\":1251:1284   */\n      tag_110\n        /* \"#utility.yul\":1279:1283   */\n      dup3\n        /* \"#utility.yul\":1271:1277   */\n      dup3\n        /* \"#utility.yul\":1251:1284   */\n      tag_56\n      jump\t// in\n    tag_110:\n        /* \"#utility.yul\":1161:1290   */\n      swap2\n      swap1\n      pop\n      jump\t// out\n        /* \"#utility.yul\":1296:1604   */\n    tag_58:\n        /* \"#utility.yul\":1358:1362   */\n      0x00\n        /* \"#utility.yul\":1448:1466   */\n      0xffffffffffffffff\n        /* \"#utility.yul\":1440:1446   */\n      dup3\n        /* \"#utility.yul\":1437:1467   */\n      gt\n        /* \"#utility.yul\":1434:1490   */\n      iszero\n      tag_112\n      jumpi\n        /* \"#utility.yul\":1470:1488   */\n      tag_113\n      tag_55\n      jump\t// in\n    tag_113:\n        /* \"#utility.yul\":1434:1490   */\n    tag_112:\n        /* \"#utility.yul\":1508:1537   */\n      tag_114\n        /* \"#utility.yul\":1530:1536   */\n      dup3\n        /* \"#utility.yul\":1508:1537   */\n      tag_54\n      jump\t// in\n    tag_114:\n        /* \"#utility.yul\":1500:1537   */\n      swap1\n      pop\n        /* \"#utility.yul\":1592:1596   */\n      0x20\n        /* \"#utility.yul\":1586:1590   */\n      dup2\n        /* \"#utility.yul\":1582:1597   */\n      add\n        /* \"#utility.yul\":1574:1597   */\n      swap1\n      pop\n        /* \"#utility.yul\":1296:1604   */\n      swap2\n      swap1\n      pop\n      jump\t// out\n        /* \"#utility.yul\":1610:1758   */\n    tag_59:\n        /* \"#utility.yul\":1708:1714   */\n      dup3\n        /* \"#utility.yul\":1703:1706   */\n      dup2\n        /* \"#utility.yul\":1698:1701   */\n      dup4\n        /* \"#utility.yul\":1685:1715   */\n      calldatacopy\n        /* \"#utility.yul\":1749:1750   */\n      0x00\n        /* \"#utility.yul\":1740:1746   */\n      dup4\n        /* \"#utility.yul\":1735:1738   */\n      dup4\n        /* \"#utility.yul\":1731:1747   */\n      add\n        /* \"#utility.yul\":1724:1751   */\n      mstore\n        /* \"#utility.yul\":1610:1758   */\n      pop\n      pop\n      pop\n      jump\t// out\n        /* \"#utility.yul\":1764:2189   */\n    tag_60:\n        /* \"#utility.yul\":1842:1847   */\n      0x00\n        /* \"#utility.yul\":1867:1933   */\n      tag_117\n        /* \"#utility.yul\":1883:1932   */\n      tag_118\n        /* \"#utility.yul\":1925:1931   */\n      dup5\n        /* \"#utility.yul\":1883:1932   */\n      tag_58\n      jump\t// in\n    tag_118:\n        /* \"#utility.yul\":1867:1933   */\n      tag_57\n      jump\t// in\n    tag_117:\n        /* \"#utility.yul\":1858:1933   */\n      swap1\n      pop\n        /* \"#utility.yul\":1956:1962   */\n      dup3\n        /* \"#utility.yul\":1949:1954   */\n      dup2\n        /* \"#utility.yul\":1942:1963   */\n      mstore\n        /* \"#utility.yul\":1994:1998   */\n      0x20\n        /* \"#utility.yul\":1987:1992   */\n      dup2\n        /* \"#utility.yul\":1983:1999   */\n      add\n        /* \"#utility.yul\":2032:2035   */\n      dup5\n        /* \"#utility.yul\":2023:2029   */\n      dup5\n        /* \"#utility.yul\":2018:2021   */\n      dup5\n        /* \"#utility.yul\":2014:2030   */\n      add\n        /* \"#utility.yul\":2011:2036   */\n      gt\n        /* \"#utility.yul\":2008:2120   */\n      iszero\n      tag_119\n      jumpi\n        /* \"#utility.yul\":2039:2118   */\n      tag_120\n      tag_53\n      jump\t// in\n    tag_120:\n        /* \"#utility.yul\":2008:2120   */\n    tag_119:\n        /* \"#utility.yul\":2129:2183   */\n      tag_121\n        /* \"#utility.yul\":2176:2182   */\n      dup5\n        /* \"#utility.yul\":2171:2174   */\n      dup3\n        /* \"#utility.yul\":2166:2169   */\n      dup6\n        /* \"#utility.yul\":2129:2183   */\n      tag_59\n      jump\t// in\n    tag_121:\n        /* \"#utility.yul\":1848:2189   */\n      pop\n        /* \"#utility.yul\":1764:2189   */\n      swap4\n      swap3\n      pop\n      pop\n      pop\n      jump\t// out\n        /* \"#utility.yul\":2209:2549   */\n    tag_61:\n        /* \"#utility.yul\":2265:2270   */\n      0x00\n        /* \"#utility.yul\":2314:2317   */\n      dup3\n        /* \"#utility.yul\":2307:2311   */\n      0x1f\n        /* \"#utility.yul\":2299:2305   */\n      dup4\n        /* \"#utility.yul\":2295:2312   */\n      add\n        /* \"#utility.yul\":2291:2318   */\n      slt\n        /* \"#utility.yul\":2281:2403   */\n      tag_123\n      jumpi\n        /* \"#utility.yul\":2322:2401   */\n      tag_124\n      tag_52\n      jump\t// in\n    tag_124:\n        /* \"#utility.yul\":2281:2403   */\n    tag_123:\n        /* \"#utility.yul\":2439:2445   */\n      dup2\n        /* \"#utility.yul\":2426:2446   */\n      calldataload\n        /* \"#utility.yul\":2464:2543   */\n      tag_125\n        /* \"#utility.yul\":2539:2542   */\n      dup5\n        /* \"#utility.yul\":2531:2537   */\n      dup3\n        /* \"#utility.yul\":2524:2528   */\n      0x20\n        /* \"#utility.yul\":2516:2522   */\n      dup7\n        /* \"#utility.yul\":2512:2529   */\n      add\n        /* \"#utility.yul\":2464:2543   */\n      tag_60\n      jump\t// in\n    tag_125:\n        /* \"#utility.yul\":2455:2543   */\n      swap2\n      pop\n        /* \"#utility.yul\":2271:2549   */\n      pop\n        /* \"#utility.yul\":2209:2549   */\n      swap3\n      swap2\n      pop\n      pop\n      jump\t// out\n        /* \"#utility.yul\":2555:3064   */\n    tag_12:\n        /* \"#utility.yul\":2624:2630   */\n      0x00\n        /* \"#utility.yul\":2673:2675   */\n      0x20\n        /* \"#utility.yul\":2661:2670   */\n      dup3\n        /* \"#utility.yul\":2652:2659   */\n      dup5\n        /* \"#utility.yul\":2648:2671   */\n      sub\n        /* \"#utility.yul\":2644:2676   */\n      slt\n        /* \"#utility.yul\":2641:2760   */\n      iszero\n      tag_127\n      jumpi\n        /* \"#utility.yul\":2679:2758   */\n      tag_128\n      tag_50\n      jump\t// in\n    tag_128:\n        /* \"#utility.yul\":2641:2760   */\n    tag_127:\n        /* \"#utility.yul\":2827:2828   */\n      0x00\n        /* \"#utility.yul\":2816:2825   */\n      dup3\n        /* \"#utility.yul\":2812:2829   */\n      add\n        /* \"#utility.yul\":2799:2830   */\n      calldataload\n        /* \"#utility.yul\":2857:2875   */\n      0xffffffffffffffff\n        /* \"#utility.yul\":2849:2855   */\n      dup2\n        /* \"#utility.yul\":2846:2876   */\n      gt\n        /* \"#utility.yul\":2843:2960   */\n      iszero\n      tag_129\n      jumpi\n        /* \"#utility.yul\":2879:2958   */\n      tag_130\n      tag_51\n      jump\t// in\n    tag_130:\n        /* \"#utility.yul\":2843:2960   */\n    tag_129:\n        /* \"#utility.yul\":2984:3047   */\n      tag_131\n        /* \"#utility.yul\":3039:3046   */\n      dup5\n        /* \"#utility.yul\":3030:3036   */\n      dup3\n        /* \"#utility.yul\":3019:3028   */\n      dup6\n        /* \"#utility.yul\":3015:3037   */\n      add\n        /* \"#utility.yul\":2984:3047   */\n      tag_61\n      jump\t// in\n    tag_131:\n        /* \"#utility.yul\":2974:3047   */\n      swap2\n      pop\n        /* \"#utility.yul\":2770:3057   */\n      pop\n        /* \"#utility.yul\":2555:3064   */\n      swap3\n      swap2\n      pop\n      pop\n      jump\t// out\n        /* \"#utility.yul\":3070:3160   */\n    tag_62:\n        /* \"#utility.yul\":3104:3111   */\n      0x00\n        /* \"#utility.yul\":3147:3152   */\n      dup2\n        /* \"#utility.yul\":3140:3153   */\n      iszero\n        /* \"#utility.yul\":3133:3154   */\n      iszero\n        /* \"#utility.yul\":3122:3154   */\n      swap1\n      pop\n        /* \"#utility.yul\":3070:3160   */\n      swap2\n      swap1\n      pop\n      jump\t// out\n        /* \"#utility.yul\":3166:3275   */\n    tag_63:\n        /* \"#utility.yul\":3247:3268   */\n      tag_134\n        /* \"#utility.yul\":3262:3267   */\n      dup2\n        /* \"#utility.yul\":3247:3268   */\n      tag_62\n      jump\t// in\n    tag_134:\n        /* \"#utility.yul\":3242:3245   */\n      dup3\n        /* \"#utility.yul\":3235:3269   */\n      mstore\n        /* \"#utility.yul\":3166:3275   */\n      pop\n      pop\n      jump\t// out\n        /* \"#utility.yul\":3281:3491   */\n    tag_15:\n        /* \"#utility.yul\":3368:3372   */\n      0x00\n        /* \"#utility.yul\":3406:3408   */\n      0x20\n        /* \"#utility.yul\":3395:3404   */\n      dup3\n        /* \"#utility.yul\":3391:3409   */\n      add\n        /* \"#utility.yul\":3383:3409   */\n      swap1\n      pop\n        /* \"#utility.yul\":3419:3484   */\n      tag_136\n        /* \"#utility.yul\":3481:3482   */\n      0x00\n        /* \"#utility.yul\":3470:3479   */\n      dup4\n        /* \"#utility.yul\":3466:3483   */\n      add\n        /* \"#utility.yul\":3457:3463   */\n      dup5\n        /* \"#utility.yul\":3419:3484   */\n      tag_63\n      jump\t// in\n    tag_136:\n        /* \"#utility.yul\":3281:3491   */\n      swap3\n      swap2\n      pop\n      pop\n      jump\t// out\n        /* \"#utility.yul\":3497:3623   */\n    tag_64:\n        /* \"#utility.yul\":3534:3541   */\n      0x00\n        /* \"#utility.yul\":3574:3616   */\n      0xffffffffffffffffffffffffffffffffffffffff\n        /* \"#utility.yul\":3567:3572   */\n      dup3\n        /* \"#utility.yul\":3563:3617   */\n      and\n        /* \"#utility.yul\":3552:3617   */\n      swap1\n      pop\n        /* \"#utility.yul\":3497:3623   */\n      swap2\n      swap1\n      pop\n      jump\t// out\n        /* \"#utility.yul\":3629:3725   */\n    tag_65:\n        /* \"#utility.yul\":3666:3673   */\n      0x00\n        /* \"#utility.yul\":3695:3719   */\n      tag_139\n        /* \"#utility.yul\":3713:3718   */\n      dup3\n        /* \"#utility.yul\":3695:3719   */\n      tag_64\n      jump\t// in\n    tag_139:\n        /* \"#utility.yul\":3684:3719   */\n      swap1\n      pop\n        /* \"#utility.yul\":3629:3725   */\n      swap2\n      swap1\n      pop\n      jump\t// out\n        /* \"#utility.yul\":3731:3853   */\n    tag_66:\n        /* \"#utility.yul\":3804:3828   */\n      tag_141\n        /* \"#utility.yul\":3822:3827   */\n      dup2\n        /* \"#utility.yul\":3804:3828   */\n      tag_65\n      jump\t// in\n    tag_141:\n        /* \"#utility.yul\":3797:3802   */\n      dup2\n        /* \"#utility.yul\":3794:3829   */\n      eq\n        /* \"#utility.yul\":3784:3847   */\n      tag_142\n      jumpi\n        /* \"#utility.yul\":3843:3844   */\n      0x00\n        /* \"#utility.yul\":3840:3841   */\n      dup1\n        /* \"#utility.yul\":3833:3845   */\n      revert\n        /* \"#utility.yul\":3784:3847   */\n    tag_142:\n        /* \"#utility.yul\":3731:3853   */\n      pop\n      jump\t// out\n        /* \"#utility.yul\":3859:3998   */\n    tag_67:\n        /* \"#utility.yul\":3905:3910   */\n      0x00\n        /* \"#utility.yul\":3943:3949   */\n      dup2\n        /* \"#utility.yul\":3930:3950   */\n      calldataload\n        /* \"#utility.yul\":3921:3950   */\n      swap1\n      pop\n        /* \"#utility.yul\":3959:3992   */\n      tag_144\n        /* \"#utility.yul\":3986:3991   */\n      dup2\n        /* \"#utility.yul\":3959:3992   */\n      tag_66\n      jump\t// in\n    tag_144:\n        /* \"#utility.yul\":3859:3998   */\n      swap3\n      swap2\n      pop\n      pop\n      jump\t// out\n        /* \"#utility.yul\":4004:4658   */\n    tag_18:\n        /* \"#utility.yul\":4082:4088   */\n      0x00\n        /* \"#utility.yul\":4090:4096   */\n      dup1\n        /* \"#utility.yul\":4139:4141   */\n      0x40\n        /* \"#utility.yul\":4127:4136   */\n      dup4\n        /* \"#utility.yul\":4118:4125   */\n      dup6\n        /* \"#utility.yul\":4114:4137   */\n      sub\n        /* \"#utility.yul\":4110:4142   */\n      slt\n        /* \"#utility.yul\":4107:4226   */\n      iszero\n      tag_146\n      jumpi\n        /* \"#utility.yul\":4145:4224   */\n      tag_147\n      tag_50\n      jump\t// in\n    tag_147:\n        /* \"#utility.yul\":4107:4226   */\n    tag_146:\n        /* \"#utility.yul\":4265:4266   */\n      0x00\n        /* \"#utility.yul\":4290:4343   */\n      tag_148\n        /* \"#utility.yul\":4335:4342   */\n      dup6\n        /* \"#utility.yul\":4326:4332   */\n      dup3\n        /* \"#utility.yul\":4315:4324   */\n      dup7\n        /* \"#utility.yul\":4311:4333   */\n      add\n        /* \"#utility.yul\":4290:4343   */\n      tag_67\n      jump\t// in\n    tag_148:\n        /* \"#utility.yul\":4280:4343   */\n      swap3\n      pop\n        /* \"#utility.yul\":4236:4353   */\n      pop\n        /* \"#utility.yul\":4420:4422   */\n      0x20\n        /* \"#utility.yul\":4409:4418   */\n      dup4\n        /* \"#utility.yul\":4405:4423   */\n      add\n        /* \"#utility.yul\":4392:4424   */\n      calldataload\n        /* \"#utility.yul\":4451:4469   */\n      0xffffffffffffffff\n        /* \"#utility.yul\":4443:4449   */\n      dup2\n        /* \"#utility.yul\":4440:4470   */\n      gt\n        /* \"#utility.yul\":4437:4554   */\n      iszero\n      tag_149\n      jumpi\n        /* \"#utility.yul\":4473:4552   */\n      tag_150\n      tag_51\n      jump\t// in\n    tag_150:\n        /* \"#utility.yul\":4437:4554   */\n    tag_149:\n        /* \"#utility.yul\":4578:4641   */\n      tag_151\n        /* \"#utility.yul\":4633:4640   */\n      dup6\n        /* \"#utility.yul\":4624:4630   */\n      dup3\n        /* \"#utility.yul\":4613:4622   */\n      dup7\n        /* \"#utility.yul\":4609:4631   */\n      add\n        /* \"#utility.yul\":4578:4641   */\n      tag_61\n      jump\t// in\n    tag_151:\n        /* \"#utility.yul\":4568:4641   */\n      swap2\n      pop\n        /* \"#utility.yul\":4363:4651   */\n      pop\n        /* \"#utility.yul\":4004:4658   */\n      swap3\n      pop\n      swap3\n      swap1\n      pop\n      jump\t// out\n        /* \"#utility.yul\":4664:4993   */\n    tag_22:\n        /* \"#utility.yul\":4723:4729   */\n      0x00\n        /* \"#utility.yul\":4772:4774   */\n      0x20\n        /* \"#utility.yul\":4760:4769   */\n      dup3\n        /* \"#utility.yul\":4751:4758   */\n      dup5\n        /* \"#utility.yul\":4747:4770   */\n      sub\n        /* \"#utility.yul\":4743:4775   */\n      slt\n        /* \"#utility.yul\":4740:4859   */\n      iszero\n      tag_153\n      jumpi\n        /* \"#utility.yul\":4778:4857   */\n      tag_154\n      tag_50\n      jump\t// in\n    tag_154:\n        /* \"#utility.yul\":4740:4859   */\n    tag_153:\n        /* \"#utility.yul\":4898:4899   */\n      0x00\n        /* \"#utility.yul\":4923:4976   */\n      tag_155\n        /* \"#utility.yul\":4968:4975   */\n      dup5\n        /* \"#utility.yul\":4959:4965   */\n      dup3\n        /* \"#utility.yul\":4948:4957   */\n      dup6\n        /* \"#utility.yul\":4944:4966   */\n      add\n        /* \"#utility.yul\":4923:4976   */\n      tag_67\n      jump\t// in\n    tag_155:\n        /* \"#utility.yul\":4913:4976   */\n      swap2\n      pop\n        /* \"#utility.yul\":4869:4986   */\n      pop\n        /* \"#utility.yul\":4664:4993   */\n      swap3\n      swap2\n      pop\n      pop\n      jump\t// out\n        /* \"#utility.yul\":4999:5098   */\n    tag_68:\n        /* \"#utility.yul\":5051:5057   */\n      0x00\n        /* \"#utility.yul\":5085:5090   */\n      dup2\n        /* \"#utility.yul\":5079:5091   */\n      mload\n        /* \"#utility.yul\":5069:5091   */\n      swap1\n      pop\n        /* \"#utility.yul\":4999:5098   */\n      swap2\n      swap1\n      pop\n      jump\t// out\n        /* \"#utility.yul\":5104:5273   */\n    tag_69:\n        /* \"#utility.yul\":5188:5199   */\n      0x00\n        /* \"#utility.yul\":5222:5228   */\n      dup3\n        /* \"#utility.yul\":5217:5220   */\n      dup3\n        /* \"#utility.yul\":5210:5229   */\n      mstore\n        /* \"#utility.yul\":5262:5266   */\n      0x20\n        /* \"#utility.yul\":5257:5260   */\n      dup3\n        /* \"#utility.yul\":5253:5267   */\n      add\n        /* \"#utility.yul\":5238:5267   */\n      swap1\n      pop\n        /* \"#utility.yul\":5104:5273   */\n      swap3\n      swap2\n      pop\n      pop\n      jump\t// out\n        /* \"#utility.yul\":5279:5418   */\n    tag_70:\n        /* \"#utility.yul\":5368:5374   */\n      dup3\n        /* \"#utility.yul\":5363:5366   */\n      dup2\n        /* \"#utility.yul\":5358:5361   */\n      dup4\n        /* \"#utility.yul\":5352:5375   */\n      mcopy\n        /* \"#utility.yul\":5409:5410   */\n      0x00\n        /* \"#utility.yul\":5400:5406   */\n      dup4\n        /* \"#utility.yul\":5395:5398   */\n      dup4\n        /* \"#utility.yul\":5391:5407   */\n      add\n        /* \"#utility.yul\":5384:5411   */\n      mstore\n        /* \"#utility.yul\":5279:5418   */\n      pop\n      pop\n      pop\n      jump\t// out\n        /* \"#utility.yul\":5424:5801   */\n    tag_71:\n        /* \"#utility.yul\":5512:5515   */\n      0x00\n        /* \"#utility.yul\":5540:5579   */\n      tag_160\n        /* \"#utility.yul\":5573:5578   */\n      dup3\n        /* \"#utility.yul\":5540:5579   */\n      tag_68\n      jump\t// in\n    tag_160:\n        /* \"#utility.yul\":5595:5666   */\n      tag_161\n        /* \"#utility.yul\":5659:5665   */\n      dup2\n        /* \"#utility.yul\":5654:5657   */\n      dup6\n        /* \"#utility.yul\":5595:5666   */\n      tag_69\n      jump\t// in\n    tag_161:\n        /* \"#utility.yul\":5588:5666   */\n      swap4\n      pop\n        /* \"#utility.yul\":5675:5740   */\n      tag_162\n        /* \"#utility.yul\":5733:5739   */\n      dup2\n        /* \"#utility.yul\":5728:5731   */\n      dup6\n        /* \"#utility.yul\":5721:5725   */\n      0x20\n        /* \"#utility.yul\":5714:5719   */\n      dup7\n        /* \"#utility.yul\":5710:5726   */\n      add\n        /* \"#utility.yul\":5675:5740   */\n      tag_70\n      jump\t// in\n    tag_162:\n        /* \"#utility.yul\":5765:5794   */\n      tag_163\n        /* \"#utility.yul\":5787:5793   */\n      dup2\n        /* \"#utility.yul\":5765:5794   */\n      tag_54\n      jump\t// in\n    tag_163:\n        /* \"#utility.yul\":5760:5763   */\n      dup5\n        /* \"#utility.yul\":5756:5795   */\n      add\n        /* \"#utility.yul\":5749:5795   */\n      swap2\n      pop\n        /* \"#utility.yul\":5516:5801   */\n      pop\n        /* \"#utility.yul\":5424:5801   */\n      swap3\n      swap2\n      pop\n      pop\n      jump\t// out\n        /* \"#utility.yul\":5807:6120   */\n    tag_25:\n        /* \"#utility.yul\":5920:5924   */\n      0x00\n        /* \"#utility.yul\":5958:5960   */\n      0x20\n        /* \"#utility.yul\":5947:5956   */\n      dup3\n        /* \"#utility.yul\":5943:5961   */\n      add\n        /* \"#utility.yul\":5935:5961   */\n      swap1\n      pop\n        /* \"#utility.yul\":6007:6016   */\n      dup2\n        /* \"#utility.yul\":6001:6005   */\n      dup2\n        /* \"#utility.yul\":5997:6017   */\n      sub\n        /* \"#utility.yul\":5993:5994   */\n      0x00\n        /* \"#utility.yul\":5982:5991   */\n      dup4\n        /* \"#utility.yul\":5978:5995   */\n      add\n        /* \"#utility.yul\":5971:6018   */\n      mstore\n        /* \"#utility.yul\":6035:6113   */\n      tag_165\n        /* \"#utility.yul\":6108:6112   */\n      dup2\n        /* \"#utility.yul\":6099:6105   */\n      dup5\n        /* \"#utility.yul\":6035:6113   */\n      tag_71\n      jump\t// in\n    tag_165:\n        /* \"#utility.yul\":6027:6113   */\n      swap1\n      pop\n        /* \"#utility.yul\":5807:6120   */\n      swap3\n      swap2\n      pop\n      pop\n      jump\t// out\n        /* \"#utility.yul\":6126:6244   */\n    tag_72:\n        /* \"#utility.yul\":6213:6237   */\n      tag_167\n        /* \"#utility.yul\":6231:6236   */\n      dup2\n        /* \"#utility.yul\":6213:6237   */\n      tag_65\n      jump\t// in\n    tag_167:\n        /* \"#utility.yul\":6208:6211   */\n      dup3\n        /* \"#utility.yul\":6201:6238   */\n      mstore\n        /* \"#utility.yul\":6126:6244   */\n      pop\n      pop\n      jump\t// out\n        /* \"#utility.yul\":6250:6472   */\n    tag_29:\n        /* \"#utility.yul\":6343:6347   */\n      0x00\n        /* \"#utility.yul\":6381:6383   */\n      0x20\n        /* \"#utility.yul\":6370:6379   */\n      dup3\n        /* \"#utility.yul\":6366:6384   */\n      add\n        /* \"#utility.yul\":6358:6384   */\n      swap1\n      pop\n        /* \"#utility.yul\":6394:6465   */\n      tag_169\n        /* \"#utility.yul\":6462:6463   */\n      0x00\n        /* \"#utility.yul\":6451:6460   */\n      dup4\n        /* \"#utility.yul\":6447:6464   */\n      add\n        /* \"#utility.yul\":6438:6444   */\n      dup5\n        /* \"#utility.yul\":6394:6465   */\n      tag_72\n      jump\t// in\n    tag_169:\n        /* \"#utility.yul\":6250:6472   */\n      swap3\n      swap2\n      pop\n      pop\n      jump\t// out\n        /* \"#utility.yul\":6478:6658   */\n    tag_73:\n        /* \"#utility.yul\":6526:6603   */\n      0x4e487b7100000000000000000000000000000000000000000000000000000000\n        /* \"#utility.yul\":6523:6524   */\n      0x00\n        /* \"#utility.yul\":6516:6604   */\n      mstore\n        /* \"#utility.yul\":6623:6627   */\n      0x22\n        /* \"#utility.yul\":6620:6621   */\n      0x04\n        /* \"#utility.yul\":6613:6628   */\n      mstore\n        /* \"#utility.yul\":6647:6651   */\n      0x24\n        /* \"#utility.yul\":6644:6645   */\n      0x00\n        /* \"#utility.yul\":6637:6652   */\n      revert\n        /* \"#utility.yul\":6664:6984   */\n    tag_44:\n        /* \"#utility.yul\":6708:6714   */\n      0x00\n        /* \"#utility.yul\":6745:6746   */\n      0x02\n        /* \"#utility.yul\":6739:6743   */\n      dup3\n        /* \"#utility.yul\":6735:6747   */\n      div\n        /* \"#utility.yul\":6725:6747   */\n      swap1\n      pop\n        /* \"#utility.yul\":6792:6793   */\n      0x01\n        /* \"#utility.yul\":6786:6790   */\n      dup3\n        /* \"#utility.yul\":6782:6794   */\n      and\n        /* \"#utility.yul\":6813:6831   */\n      dup1\n        /* \"#utility.yul\":6803:6884   */\n      tag_172\n      jumpi\n        /* \"#utility.yul\":6869:6873   */\n      0x7f\n        /* \"#utility.yul\":6861:6867   */\n      dup3\n        /* \"#utility.yul\":6857:6874   */\n      and\n        /* \"#utility.yul\":6847:6874   */\n      swap2\n      pop\n        /* \"#utility.yul\":6803:6884   */\n    tag_172:\n        /* \"#utility.yul\":6931:6933   */\n      0x20\n        /* \"#utility.yul\":6923:6929   */\n      dup3\n        /* \"#utility.yul\":6920:6934   */\n      lt\n        /* \"#utility.yul\":6900:6918   */\n      dup2\n        /* \"#utility.yul\":6897:6935   */\n      sub\n        /* \"#utility.yul\":6894:6978   */\n      tag_173\n      jumpi\n        /* \"#utility.yul\":6950:6968   */\n      tag_174\n      tag_73\n      jump\t// in\n    tag_174:\n        /* \"#utility.yul\":6894:6978   */\n    tag_173:\n        /* \"#utility.yul\":6715:6984   */\n      pop\n        /* \"#utility.yul\":6664:6984   */\n      swap2\n      swap1\n      pop\n      jump\t// out\n        /* \"#utility.yul\":6990:7138   */\n    tag_74:\n        /* \"#utility.yul\":7092:7103   */\n      0x00\n        /* \"#utility.yul\":7129:7132   */\n      dup2\n        /* \"#utility.yul\":7114:7132   */\n      swap1\n      pop\n        /* \"#utility.yul\":6990:7138   */\n      swap3\n      swap2\n      pop\n      pop\n      jump\t// out\n        /* \"#utility.yul\":7144:7285   */\n    tag_75:\n        /* \"#utility.yul\":7193:7197   */\n      0x00\n        /* \"#utility.yul\":7216:7219   */\n      dup2\n        /* \"#utility.yul\":7208:7219   */\n      swap1\n      pop\n        /* \"#utility.yul\":7239:7242   */\n      dup2\n        /* \"#utility.yul\":7236:7237   */\n      0x00\n        /* \"#utility.yul\":7229:7243   */\n      mstore\n        /* \"#utility.yul\":7273:7277   */\n      0x20\n        /* \"#utility.yul\":7270:7271   */\n      0x00\n        /* \"#utility.yul\":7260:7278   */\n      keccak256\n        /* \"#utility.yul\":7252:7278   */\n      swap1\n      pop\n        /* \"#utility.yul\":7144:7285   */\n      swap2\n      swap1\n      pop\n      jump\t// out\n        /* \"#utility.yul\":7315:8189   */\n    tag_76:\n        /* \"#utility.yul\":7418:7421   */\n      0x00\n        /* \"#utility.yul\":7455:7460   */\n      dup2\n        /* \"#utility.yul\":7449:7461   */\n      sload\n        /* \"#utility.yul\":7484:7520   */\n      tag_178\n        /* \"#utility.yul\":7510:7519   */\n      dup2\n        /* \"#utility.yul\":7484:7520   */\n      tag_44\n      jump\t// in\n    tag_178:\n        /* \"#utility.yul\":7536:7625   */\n      tag_179\n        /* \"#utility.yul\":7618:7624   */\n      dup2\n        /* \"#utility.yul\":7613:7616   */\n      dup7\n        /* \"#utility.yul\":7536:7625   */\n      tag_74\n      jump\t// in\n    tag_179:\n        /* \"#utility.yul\":7529:7625   */\n      swap5\n      pop\n        /* \"#utility.yul\":7656:7657   */\n      0x01\n        /* \"#utility.yul\":7645:7654   */\n      dup3\n        /* \"#utility.yul\":7641:7658   */\n      and\n        /* \"#utility.yul\":7672:7673   */\n      0x00\n        /* \"#utility.yul\":7667:7833   */\n      dup2\n      eq\n      tag_181\n      jumpi\n        /* \"#utility.yul\":7847:7848   */\n      0x01\n        /* \"#utility.yul\":7842:8183   */\n      dup2\n      eq\n      tag_182\n      jumpi\n        /* \"#utility.yul\":7634:8183   */\n      jump(tag_180)\n        /* \"#utility.yul\":7667:7833   */\n    tag_181:\n        /* \"#utility.yul\":7751:7755   */\n      0xff\n        /* \"#utility.yul\":7747:7756   */\n      not\n        /* \"#utility.yul\":7736:7745   */\n      dup4\n        /* \"#utility.yul\":7732:7757   */\n      and\n        /* \"#utility.yul\":7727:7730   */\n      dup7\n        /* \"#utility.yul\":7720:7758   */\n      mstore\n        /* \"#utility.yul\":7813:7819   */\n      dup2\n        /* \"#utility.yul\":7806:7820   */\n      iszero\n        /* \"#utility.yul\":7799:7821   */\n      iszero\n        /* \"#utility.yul\":7791:7797   */\n      dup3\n        /* \"#utility.yul\":7787:7822   */\n      mul\n        /* \"#utility.yul\":7782:7785   */\n      dup7\n        /* \"#utility.yul\":7778:7823   */\n      add\n        /* \"#utility.yul\":7771:7823   */\n      swap4\n      pop\n        /* \"#utility.yul\":7667:7833   */\n      jump(tag_180)\n        /* \"#utility.yul\":7842:8183   */\n    tag_182:\n        /* \"#utility.yul\":7909:7947   */\n      tag_183\n        /* \"#utility.yul\":7941:7946   */\n      dup6\n        /* \"#utility.yul\":7909:7947   */\n      tag_75\n      jump\t// in\n    tag_183:\n        /* \"#utility.yul\":7969:7970   */\n      0x00\n        /* \"#utility.yul\":7983:8137   */\n    tag_184:\n        /* \"#utility.yul\":7997:8003   */\n      dup4\n        /* \"#utility.yul\":7994:7995   */\n      dup2\n        /* \"#utility.yul\":7991:8004   */\n      lt\n        /* \"#utility.yul\":7983:8137   */\n      iszero\n      tag_186\n      jumpi\n        /* \"#utility.yul\":8071:8078   */\n      dup2\n        /* \"#utility.yul\":8065:8079   */\n      sload\n        /* \"#utility.yul\":8061:8062   */\n      dup2\n        /* \"#utility.yul\":8056:8059   */\n      dup10\n        /* \"#utility.yul\":8052:8063   */\n      add\n        /* \"#utility.yul\":8045:8080   */\n      mstore\n        /* \"#utility.yul\":8121:8122   */\n      0x01\n        /* \"#utility.yul\":8112:8119   */\n      dup3\n        /* \"#utility.yul\":8108:8123   */\n      add\n        /* \"#utility.yul\":8097:8123   */\n      swap2\n      pop\n        /* \"#utility.yul\":8019:8023   */\n      0x20\n        /* \"#utility.yul\":8016:8017   */\n      dup2\n        /* \"#utility.yul\":8012:8024   */\n      add\n        /* \"#utility.yul\":8007:8024   */\n      swap1\n      pop\n        /* \"#utility.yul\":7983:8137   */\n      jump(tag_184)\n    tag_186:\n        /* \"#utility.yul\":8166:8172   */\n      dup4\n        /* \"#utility.yul\":8161:8164   */\n      dup9\n        /* \"#utility.yul\":8157:8173   */\n      add\n        /* \"#utility.yul\":8150:8173   */\n      swap6\n      pop\n        /* \"#utility.yul\":7849:8183   */\n      pop\n      pop\n        /* \"#utility.yul\":7634:8183   */\n    tag_180:\n      pop\n        /* \"#utility.yul\":7422:8189   */\n      pop\n      pop\n        /* \"#utility.yul\":7315:8189   */\n      swap3\n      swap2\n      pop\n      pop\n      jump\t// out\n        /* \"#utility.yul\":8195:8464   */\n    tag_32:\n        /* \"#utility.yul\":8324:8327   */\n      0x00\n        /* \"#utility.yul\":8346:8438   */\n      tag_188\n        /* \"#utility.yul\":8434:8437   */\n      dup3\n        /* \"#utility.yul\":8425:8431   */\n      dup5\n        /* \"#utility.yul\":8346:8438   */\n      tag_76\n      jump\t// in\n    tag_188:\n        /* \"#utility.yul\":8339:8438   */\n      swap2\n      pop\n        /* \"#utility.yul\":8455:8458   */\n      dup2\n        /* \"#utility.yul\":8448:8458   */\n      swap1\n      pop\n        /* \"#utility.yul\":8195:8464   */\n      swap3\n      swap2\n      pop\n      pop\n      jump\t// out\n        /* \"#utility.yul\":8470:8638   */\n    tag_77:\n        /* \"#utility.yul\":8610:8630   */\n      0x526567696f6e206e6f7420616c6c6f7765640000000000000000000000000000\n        /* \"#utility.yul\":8606:8607   */\n      0x00\n        /* \"#utility.yul\":8598:8604   */\n      dup3\n        /* \"#utility.yul\":8594:8608   */\n      add\n        /* \"#utility.yul\":8587:8631   */\n      mstore\n        /* \"#utility.yul\":8470:8638   */\n      pop\n      jump\t// out\n        /* \"#utility.yul\":8644:9010   */\n    tag_78:\n        /* \"#utility.yul\":8786:8789   */\n      0x00\n        /* \"#utility.yul\":8807:8874   */\n      tag_191\n        /* \"#utility.yul\":8871:8873   */\n      0x12\n        /* \"#utility.yul\":8866:8869   */\n      dup4\n        /* \"#utility.yul\":8807:8874   */\n      tag_69\n      jump\t// in\n    tag_191:\n        /* \"#utility.yul\":8800:8874   */\n      swap2\n      pop\n        /* \"#utility.yul\":8883:8976   */\n      tag_192\n        /* \"#utility.yul\":8972:8975   */\n      dup3\n        /* \"#utility.yul\":8883:8976   */\n      tag_77\n      jump\t// in\n    tag_192:\n        /* \"#utility.yul\":9001:9003   */\n      0x20\n        /* \"#utility.yul\":8996:8999   */\n      dup3\n        /* \"#utility.yul\":8992:9004   */\n      add\n        /* \"#utility.yul\":8985:9004   */\n      swap1\n      pop\n        /* \"#utility.yul\":8644:9010   */\n      swap2\n      swap1\n      pop\n      jump\t// out\n        /* \"#utility.yul\":9016:9435   */\n    tag_35:\n        /* \"#utility.yul\":9182:9186   */\n      0x00\n        /* \"#utility.yul\":9220:9222   */\n      0x20\n        /* \"#utility.yul\":9209:9218   */\n      dup3\n        /* \"#utility.yul\":9205:9223   */\n      add\n        /* \"#utility.yul\":9197:9223   */\n      swap1\n      pop\n        /* \"#utility.yul\":9269:9278   */\n      dup2\n        /* \"#utility.yul\":9263:9267   */\n      dup2\n        /* \"#utility.yul\":9259:9279   */\n      sub\n        /* \"#utility.yul\":9255:9256   */\n      0x00\n        /* \"#utility.yul\":9244:9253   */\n      dup4\n        /* \"#utility.yul\":9240:9257   */\n      add\n        /* \"#utility.yul\":9233:9280   */\n      mstore\n        /* \"#utility.yul\":9297:9428   */\n      tag_194\n        /* \"#utility.yul\":9423:9427   */\n      dup2\n        /* \"#utility.yul\":9297:9428   */\n      tag_78\n      jump\t// in\n    tag_194:\n        /* \"#utility.yul\":9289:9428   */\n      swap1\n      pop\n        /* \"#utility.yul\":9016:9435   */\n      swap2\n      swap1\n      pop\n      jump\t// out\n        /* \"#utility.yul\":9441:9601   */\n    tag_79:\n        /* \"#utility.yul\":9581:9593   */\n      0x4f6e6c792061646d696e00000000000000000000000000000000000000000000\n        /* \"#utility.yul\":9577:9578   */\n      0x00\n        /* \"#utility.yul\":9569:9575   */\n      dup3\n        /* \"#utility.yul\":9565:9579   */\n      add\n        /* \"#utility.yul\":9558:9594   */\n      mstore\n        /* \"#utility.yul\":9441:9601   */\n      pop\n      jump\t// out\n        /* \"#utility.yul\":9607:9973   */\n    tag_80:\n        /* \"#utility.yul\":9749:9752   */\n      0x00\n        /* \"#utility.yul\":9770:9837   */\n      tag_197\n        /* \"#utility.yul\":9834:9836   */\n      0x0a\n        /* \"#utility.yul\":9829:9832   */\n      dup4\n        /* \"#utility.yul\":9770:9837   */\n      tag_69\n      jump\t// in\n    tag_197:\n        /* \"#utility.yul\":9763:9837   */\n      swap2\n      pop\n        /* \"#utility.yul\":9846:9939   */\n      tag_198\n        /* \"#utility.yul\":9935:9938   */\n      dup3\n        /* \"#utility.yul\":9846:9939   */\n      tag_79\n      jump\t// in\n    tag_198:\n        /* \"#utility.yul\":9964:9966   */\n      0x20\n        /* \"#utility.yul\":9959:9962   */\n      dup3\n        /* \"#utility.yul\":9955:9967   */\n      add\n        /* \"#utility.yul\":9948:9967   */\n      swap1\n      pop\n        /* \"#utility.yul\":9607:9973   */\n      swap2\n      swap1\n      pop\n      jump\t// out\n        /* \"#utility.yul\":9979:10398   */\n    tag_40:\n        /* \"#utility.yul\":10145:10149   */\n      0x00\n        /* \"#utility.yul\":10183:10185   */\n      0x20\n        /* \"#utility.yul\":10172:10181   */\n      dup3\n        /* \"#utility.yul\":10168:10186   */\n      add\n        /* \"#utility.yul\":10160:10186   */\n      swap1\n      pop\n        /* \"#utility.yul\":10232:10241   */\n      dup2\n        /* \"#utility.yul\":10226:10230   */\n      dup2\n        /* \"#utility.yul\":10222:10242   */\n      sub\n        /* \"#utility.yul\":10218:10219   */\n      0x00\n        /* \"#utility.yul\":10207:10216   */\n      dup4\n        /* \"#utility.yul\":10203:10220   */\n      add\n        /* \"#utility.yul\":10196:10243   */\n      mstore\n        /* \"#utility.yul\":10260:10391   */\n      tag_200\n        /* \"#utility.yul\":10386:10390   */\n      dup2\n        /* \"#utility.yul\":10260:10391   */\n      tag_80\n      jump\t// in\n    tag_200:\n        /* \"#utility.yul\":10252:10391   */\n      swap1\n      pop\n        /* \"#utility.yul\":9979:10398   */\n      swap2\n      swap1\n      pop\n      jump\t// out\n        /* \"#utility.yul\":10404:10497   */\n    tag_81:\n        /* \"#utility.yul\":10441:10447   */\n      0x00\n        /* \"#utility.yul\":10488:10490   */\n      0x20\n        /* \"#utility.yul\":10483:10485   */\n      0x1f\n        /* \"#utility.yul\":10476:10481   */\n      dup4\n        /* \"#utility.yul\":10472:10486   */\n      add\n        /* \"#utility.yul\":10468:10491   */\n      div\n        /* \"#utility.yul\":10458:10491   */\n      swap1\n      pop\n        /* \"#utility.yul\":10404:10497   */\n      swap2\n      swap1\n      pop\n      jump\t// out\n        /* \"#utility.yul\":10503:10610   */\n    tag_82:\n        /* \"#utility.yul\":10547:10555   */\n      0x00\n        /* \"#utility.yul\":10597:10602   */\n      dup3\n        /* \"#utility.yul\":10591:10595   */\n      dup3\n        /* \"#utility.yul\":10587:10603   */\n      shl\n        /* \"#utility.yul\":10566:10603   */\n      swap1\n      pop\n        /* \"#utility.yul\":10503:10610   */\n      swap3\n      swap2\n      pop\n      pop\n      jump\t// out\n        /* \"#utility.yul\":10616:11009   */\n    tag_83:\n        /* \"#utility.yul\":10685:10691   */\n      0x00\n        /* \"#utility.yul\":10735:10736   */\n      0x08\n        /* \"#utility.yul\":10723:10733   */\n      dup4\n        /* \"#utility.yul\":10719:10737   */\n      mul\n        /* \"#utility.yul\":10758:10855   */\n      tag_204\n        /* \"#utility.yul\":10788:10854   */\n      0xffffffffffffffffffffffffffffffffffffffffffffffffffffffffffffffff\n        /* \"#utility.yul\":10777:10786   */\n      dup3\n        /* \"#utility.yul\":10758:10855   */\n      tag_82\n      jump\t// in\n    tag_204:\n        /* \"#utility.yul\":10876:10915   */\n      tag_205\n        /* \"#utility.yul\":10906:10914   */\n      dup7\n        /* \"#utility.yul\":10895:10904   */\n      dup4\n        /* \"#utility.yul\":10876:10915   */\n      tag_82\n      jump\t// in\n    tag_205:\n        /* \"#utility.yul\":10864:10915   */\n      swap6\n      pop\n        /* \"#utility.yul\":10948:10952   */\n      dup1\n        /* \"#utility.yul\":10944:10953   */\n      not\n        /* \"#utility.yul\":10937:10942   */\n      dup5\n        /* \"#utility.yul\":10933:10954   */\n      and\n        /* \"#utility.yul\":10924:10954   */\n      swap4\n      pop\n        /* \"#utility.yul\":10997:11001   */\n      dup1\n        /* \"#utility.yul\":10987:10995   */\n      dup7\n        /* \"#utility.yul\":10983:11002   */\n      and\n        /* \"#utility.yul\":10976:10981   */\n      dup5\n        /* \"#utility.yul\":10973:11003   */\n      or\n        /* \"#utility.yul\":10963:11003   */\n      swap3\n      pop\n        /* \"#utility.yul\":10692:11009   */\n      pop\n      pop\n        /* \"#utility.yul\":10616:11009   */\n      swap4\n      swap3\n      pop\n      pop\n      pop\n      jump\t// out\n        /* \"#utility.yul\":11015:11092   */\n    tag_84:\n        /* \"#utility.yul\":11052:11059   */\n      0x00\n        /* \"#utility.yul\":11081:11086   */\n      dup2\n        /* \"#utility.yul\":11070:11086   */\n      swap1\n      pop\n        /* \"#utility.yul\":11015:11092   */\n      swap2\n      swap1\n      pop\n      jump\t// out\n        /* \"#utility.yul\":11098:11158   */\n    tag_85:\n        /* \"#utility.yul\":11126:11129   */\n      0x00\n        /* \"#utility.yul\":11147:11152   */\n      dup2\n        /* \"#utility.yul\":11140:11152   */\n      swap1\n      pop\n        /* \"#utility.yul\":11098:11158   */\n      swap2\n      swap1\n      pop\n      jump\t// out\n        /* \"#utility.yul\":11164:11306   */\n    tag_86:\n        /* \"#utility.yul\":11214:11223   */\n      0x00\n        /* \"#utility.yul\":11247:11300   */\n      tag_209\n        /* \"#utility.yul\":11265:11299   */\n      tag_210\n        /* \"#utility.yul\":11274:11298   */\n      tag_211\n        /* \"#utility.yul\":11292:11297   */\n      dup5\n        /* \"#utility.yul\":11274:11298   */\n      tag_84\n      jump\t// in\n    tag_211:\n        /* \"#utility.yul\":11265:11299   */\n      tag_85\n      jump\t// in\n    tag_210:\n        /* \"#utility.yul\":11247:11300   */\n      tag_84\n      jump\t// in\n    tag_209:\n        /* \"#utility.yul\":11234:11300   */\n      swap1\n      pop\n        /* \"#utility.yul\":11164:11306   */\n      swap2\n      swap1\n      pop\n      jump\t// out\n        /* \"#utility.yul\":11312:11387   */\n    tag_87:\n        /* \"#utility.yul\":11355:11358   */\n      0x00\n        /* \"#utility.yul\":11376:11381   */\n      dup2\n        /* \"#utility.yul\":11369:11381   */\n      swap1\n      pop\n        /* \"#utility.yul\":11312:11387   */\n      swap2\n      swap1\n      pop\n      jump\t// out\n        /* \"#utility.yul\":11393:11662   */\n    tag_88:\n        /* \"#utility.yul\":11503:11542   */\n      tag_214\n        /* \"#utility.yul\":11534:11541   */\n      dup4\n        /* \"#utility.yul\":11503:11542   */\n      tag_86\n      jump\t// in\n    tag_214:\n        /* \"#utility.yul\":11564:11655   */\n      tag_215\n        /* \"#utility.yul\":11613:11654   */\n      tag_216\n        /* \"#utility.yul\":11637:11653   */\n      dup3\n        /* \"#utility.yul\":11613:11654   */\n      tag_87\n      jump\t// in\n    tag_216:\n        /* \"#utility.yul\":11605:11611   */\n      dup5\n        /* \"#utility.yul\":11598:11602   */\n      dup5\n        /* \"#utility.yul\":11592:11603   */\n      sload\n        /* \"#utility.yul\":11564:11655   */\n      tag_83\n      jump\t// in\n    tag_215:\n        /* \"#utility.yul\":11558:11562   */\n      dup3\n        /* \"#utility.yul\":11551:11656   */\n      sstore\n        /* \"#utility.yul\":11469:11662   */\n      pop\n        /* \"#utility.yul\":11393:11662   */\n      pop\n      pop\n      pop\n      jump\t// out\n        /* \"#utility.yul\":11668:11741   */\n    tag_89:\n        /* \"#utility.yul\":11713:11716   */\n      0x00\n        /* \"#utility.yul\":11668:11741   */\n      swap1\n      jump\t// out\n        /* \"#utility.yul\":11747:11936   */\n    tag_90:\n        /* \"#utility.yul\":11824:11856   */\n      tag_219\n      tag_89\n      jump\t// in\n    tag_219:\n        /* \"#utility.yul\":11865:11930   */\n      tag_220\n        /* \"#utility.yul\":11923:11929   */\n      dup2\n        /* \"#utility.yul\":11915:11921   */\n      dup5\n        /* \"#utility.yul\":11909:11913   */\n      dup5\n        /* \"#utility.yul\":11865:11930   */\n      tag_88\n      jump\t// in\n    tag_220:\n        /* \"#utility.yul\":11800:11936   */\n      pop\n        /* \"#utility.yul\":11747:11936   */\n      pop\n      pop\n      jump\t// out\n        /* \"#utility.yul\":11942:12128   */\n    tag_91:\n        /* \"#utility.yul\":12002:12122   */\n    tag_222:\n        /* \"#utility.yul\":12019:12022   */\n      dup2\n        /* \"#utility.yul\":12012:12017   */\n      dup2\n        /* \"#utility.yul\":12009:12023   */\n      lt\n        /* \"#utility.yul\":12002:12122   */\n      iszero\n      tag_224\n      jumpi\n        /* \"#utility.yul\":12073:12112   */\n      tag_225\n        /* \"#utility.yul\":12110:12111   */\n      0x00\n        /* \"#utility.yul\":12103:12108   */\n      dup3\n        /* \"#utility.yul\":12073:12112   */\n      tag_90\n      jump\t// in\n    tag_225:\n        /* \"#utility.yul\":12046:12047   */\n      0x01\n        /* \"#utility.yul\":12039:12044   */\n      dup2\n        /* \"#utility.yul\":12035:12048   */\n      add\n        /* \"#utility.yul\":12026:12048   */\n      swap1\n      pop\n        /* \"#utility.yul\":12002:12122   */\n      jump(tag_222)\n    tag_224:\n        /* \"#utility.yul\":11942:12128   */\n      pop\n      pop\n      jump\t// out\n        /* \"#utility.yul\":12134:12677   */\n    tag_92:\n        /* \"#utility.yul\":12235:12237   */\n      0x1f\n        /* \"#utility.yul\":12230:12233   */\n      dup3\n        /* \"#utility.yul\":12227:12238   */\n      gt\n        /* \"#utility.yul\":12224:12670   */\n      iszero\n      tag_227\n      jumpi\n        /* \"#utility.yul\":12269:12307   */\n      tag_228\n        /* \"#utility.yul\":12301:12306   */\n      dup2\n        /* \"#utility.yul\":12269:12307   */\n      tag_75\n      jump\t// in\n    tag_228:\n        /* \"#utility.yul\":12353:12382   */\n      tag_229\n        /* \"#utility.yul\":12371:12381   */\n      dup5\n        /* \"#utility.yul\":12353:12382   */\n      tag_81\n      jump\t// in\n    tag_229:\n        /* \"#utility.yul\":12343:12351   */\n      dup2\n        /* \"#utility.yul\":12339:12383   */\n      add\n        /* \"#utility.yul\":12536:12538   */\n      0x20\n        /* \"#utility.yul\":12524:12534   */\n      dup6\n        /* \"#utility.yul\":12521:12539   */\n      lt\n        /* \"#utility.yul\":12518:12567   */\n      iszero\n      tag_230\n      jumpi\n        /* \"#utility.yul\":12557:12565   */\n      dup2\n        /* \"#utility.yul\":12542:12565   */\n      swap1\n      pop\n        /* \"#utility.yul\":12518:12567   */\n    tag_230:\n        /* \"#utility.yul\":12580:12660   */\n      tag_231\n        /* \"#utility.yul\":12636:12658   */\n      tag_232\n        /* \"#utility.yul\":12654:12657   */\n      dup6\n        /* \"#utility.yul\":12636:12658   */\n      tag_81\n      jump\t// in\n    tag_232:\n        /* \"#utility.yul\":12626:12634   */\n      dup4\n        /* \"#utility.yul\":12622:12659   */\n      add\n        /* \"#utility.yul\":12609:12620   */\n      dup3\n        /* \"#utility.yul\":12580:12660   */\n      tag_91\n      jump\t// in\n    tag_231:\n        /* \"#utility.yul\":12239:12670   */\n      pop\n      pop\n        /* \"#utility.yul\":12224:12670   */\n    tag_227:\n        /* \"#utility.yul\":12134:12677   */\n      pop\n      pop\n      pop\n      jump\t// out\n        /* \"#utility.yul\":12683:12800   */\n    tag_93:\n        /* \"#utility.yul\":12737:12745   */\n      0x00\n        /* \"#utility.yul\":12787:12792   */\n      dup3\n        /* \"#utility.yul\":12781:12785   */\n      dup3\n        /* \"#utility.yul\":12777:12793   */\n      shr\n        /* \"#utility.yul\":12756:12793   */\n      swap1\n      pop\n        /* \"#utility.yul\":12683:12800   */\n      swap3\n      swap2\n      pop\n      pop\n      jump\t// out\n        /* \"#utility.yul\":12806:12975   */\n    tag_94:\n        /* \"#utility.yul\":12850:12856   */\n      0x00\n        /* \"#utility.yul\":12883:12934   */\n      tag_235\n        /* \"#utility.yul\":12931:12932   */\n      0x00\n        /* \"#utility.yul\":12927:12933   */\n      not\n        /* \"#utility.yul\":12919:12924   */\n      dup5\n        /* \"#utility.yul\":12916:12917   */\n      0x08\n        /* \"#utility.yul\":12912:12925   */\n      mul\n        /* \"#utility.yul\":12883:12934   */\n      tag_93\n      jump\t// in\n    tag_235:\n        /* \"#utility.yul\":12879:12935   */\n      not\n        /* \"#utility.yul\":12964:12968   */\n      dup1\n        /* \"#utility.yul\":12958:12962   */\n      dup4\n        /* \"#utility.yul\":12954:12969   */\n      and\n        /* \"#utility.yul\":12944:12969   */\n      swap2\n      pop\n        /* \"#utility.yul\":12857:12975   */\n      pop\n        /* \"#utility.yul\":12806:12975   */\n      swap3\n      swap2\n      pop\n      pop\n      jump\t// out\n        /* \"#utility.yul\":12980:13275   */\n    tag_95:\n        /* \"#utility.yul\":13056:13060   */\n      0x00\n        /* \"#utility.yul\":13202:13231   */\n      tag_237\n        /* \"#utility.yul\":13227:13230   */\n      dup4\n        /* \"#utility.yul\":13221:13225   */\n      dup4\n        /* \"#utility.yul\":13202:13231   */\n      tag_94\n      jump\t// in\n    tag_237:\n        /* \"#utility.yul\":13194:13231   */\n      swap2\n      pop\n        /* \"#utility.yul\":13264:13267   */\n      dup3\n        /* \"#utility.yul\":13261:13262   */\n      0x02\n        /* \"#utility.yul\":13257:13268   */\n      mul\n        /* \"#utility.yul\":13251:13255   */\n      dup3\n        /* \"#utility.yul\":13248:13269   */\n      or\n        /* \"#utility.yul\":13240:13269   */\n      swap1\n      pop\n        /* \"#utility.yul\":12980:13275   */\n      swap3\n      swap2\n      pop\n      pop\n      jump\t// out\n        /* \"#utility.yul\":13280:14675   */\n    tag_42:\n        /* \"#utility.yul\":13397:13434   */\n      tag_239\n        /* \"#utility.yul\":13430:13433   */\n      dup3\n        /* \"#utility.yul\":13397:13434   */\n      tag_68\n      jump\t// in\n    tag_239:\n        /* \"#utility.yul\":13499:13517   */\n      0xffffffffffffffff\n        /* \"#utility.yul\":13491:13497   */\n      dup2\n        /* \"#utility.yul\":13488:13518   */\n      gt\n        /* \"#utility.yul\":13485:13541   */\n      iszero\n      tag_240\n      jumpi\n        /* \"#utility.yul\":13521:13539   */\n      tag_241\n      tag_55\n      jump\t// in\n    tag_241:\n        /* \"#utility.yul\":13485:13541   */\n    tag_240:\n        /* \"#utility.yul\":13565:13603   */\n      tag_242\n        /* \"#utility.yul\":13597:13601   */\n      dup3\n        /* \"#utility.yul\":13591:13602   */\n      sload\n        /* \"#utility.yul\":13565:13603   */\n      tag_44\n      jump\t// in\n    tag_242:\n        /* \"#utility.yul\":13650:13717   */\n      tag_243\n        /* \"#utility.yul\":13710:13716   */\n      dup3\n        /* \"#utility.yul\":13702:13708   */\n      dup3\n        /* \"#utility.yul\":13696:13700   */\n      dup6\n        /* \"#utility.yul\":13650:13717   */\n      tag_92\n      jump\t// in\n    tag_243:\n        /* \"#utility.yul\":13744:13745   */\n      0x00\n        /* \"#utility.yul\":13768:13772   */\n      0x20\n        /* \"#utility.yul\":13755:13772   */\n      swap1\n      pop\n        /* \"#utility.yul\":13800:13802   */\n      0x1f\n        /* \"#utility.yul\":13792:13798   */\n      dup4\n        /* \"#utility.yul\":13789:13803   */\n      gt\n        /* \"#utility.yul\":13817:13818   */\n      0x01\n        /* \"#utility.yul\":13812:14430   */\n      dup2\n      eq\n      tag_245\n      jumpi\n        /* \"#utility.yul\":14474:14475   */\n      0x00\n        /* \"#utility.yul\":14491:14497   */\n      dup5\n        /* \"#utility.yul\":14488:14565   */\n      iszero\n      tag_246\n      jumpi\n        /* \"#utility.yul\":14540:14549   */\n      dup3\n        /* \"#utility.yul\":14535:14538   */\n      dup8\n        /* \"#utility.yul\":14531:14550   */\n      add\n        /* \"#utility.yul\":14525:14551   */\n      mload\n        /* \"#utility.yul\":14516:14551   */\n      swap1\n      pop\n        /* \"#utility.yul\":14488:14565   */\n    tag_246:\n        /* \"#utility.yul\":14591:14658   */\n      tag_247\n        /* \"#utility.yul\":14651:14657   */\n      dup6\n        /* \"#utility.yul\":14644:14649   */\n      dup3\n        /* \"#utility.yul\":14591:14658   */\n      tag_95\n      jump\t// in\n    tag_247:\n        /* \"#utility.yul\":14585:14589   */\n      dup7\n        /* \"#utility.yul\":14578:14659   */\n      sstore\n        /* \"#utility.yul\":14447:14669   */\n      pop\n        /* \"#utility.yul\":13782:14669   */\n      jump(tag_244)\n        /* \"#utility.yul\":13812:14430   */\n    tag_245:\n        /* \"#utility.yul\":13864:13868   */\n      0x1f\n        /* \"#utility.yul\":13860:13869   */\n      not\n        /* \"#utility.yul\":13852:13858   */\n      dup5\n        /* \"#utility.yul\":13848:13870   */\n      and\n        /* \"#utility.yul\":13898:13935   */\n      tag_248\n        /* \"#utility.yul\":13930:13934   */\n      dup7\n        /* \"#utility.yul\":13898:13935   */\n      tag_75\n      jump\t// in\n    tag_248:\n        /* \"#utility.yul\":13957:13958   */\n      0x00\n        /* \"#utility.yul\":13971:14179   */\n    tag_249:\n        /* \"#utility.yul\":13985:13992   */\n      dup3\n        /* \"#utility.yul\":13982:13983   */\n      dup2\n        /* \"#utility.yul\":13979:13993   */\n      lt\n        /* \"#utility.yul\":13971:14179   */\n      iszero\n      tag_251\n      jumpi\n        /* \"#utility.yul\":14064:14073   */\n      dup5\n        /* \"#utility.yul\":14059:14062   */\n      dup10\n        /* \"#utility.yul\":14055:14074   */\n      add\n        /* \"#utility.yul\":14049:14075   */\n      mload\n        /* \"#utility.yul\":14041:14047   */\n      dup3\n        /* \"#utility.yul\":14034:14076   */\n      sstore\n        /* \"#utility.yul\":14115:14116   */\n      0x01\n        /* \"#utility.yul\":14107:14113   */\n      dup3\n        /* \"#utility.yul\":14103:14117   */\n      add\n        /* \"#utility.yul\":14093:14117   */\n      swap2\n      pop\n        /* \"#utility.yul\":14162:14164   */\n      0x20\n        /* \"#utility.yul\":14151:14160   */\n      dup6\n        /* \"#utility.yul\":14147:14165   */\n      add\n        /* \"#utility.yul\":14134:14165   */\n      swap5\n      pop\n        /* \"#utility.yul\":14008:14012   */\n      0x20\n        /* \"#utility.yul\":14005:14006   */\n      dup2\n        /* \"#utility.yul\":14001:14013   */\n      add\n        /* \"#utility.yul\":13996:14013   */\n      swap1\n      pop\n        /* \"#utility.yul\":13971:14179   */\n      jump(tag_249)\n    tag_251:\n        /* \"#utility.yul\":14207:14213   */\n      dup7\n        /* \"#utility.yul\":14198:14205   */\n      dup4\n        /* \"#utility.yul\":14195:14214   */\n      lt\n        /* \"#utility.yul\":14192:14371   */\n      iszero\n      tag_252\n      jumpi\n        /* \"#utility.yul\":14265:14274   */\n      dup5\n        /* \"#utility.yul\":14260:14263   */\n      dup10\n        /* \"#utility.yul\":14256:14275   */\n      add\n        /* \"#utility.yul\":14250:14276   */\n      mload\n        /* \"#utility.yul\":14308:14356   */\n      tag_253\n        /* \"#utility.yul\":14350:14354   */\n      0x1f\n        /* \"#utility.yul\":14342:14348   */\n      dup10\n        /* \"#utility.yul\":14338:14355   */\n      and\n        /* \"#utility.yul\":14327:14336   */\n      dup3\n        /* \"#utility.yul\":14308:14356   */\n      tag_94\n      jump\t// in\n    tag_253:\n        /* \"#utility.yul\":14300:14306   */\n      dup4\n        /* \"#utility.yul\":14293:14357   */\n      sstore\n        /* \"#utility.yul\":14215:14371   */\n      pop\n        /* \"#utility.yul\":14192:14371   */\n    tag_252:\n        /* \"#utility.yul\":14417:14418   */\n      0x01\n        /* \"#utility.yul\":14413:14414   */\n      0x02\n        /* \"#utility.yul\":14405:14411   */\n      dup9\n        /* \"#utility.yul\":14401:14415   */\n      mul\n        /* \"#utility.yul\":14397:14419   */\n      add\n        /* \"#utility.yul\":14391:14395   */\n      dup9\n        /* \"#utility.yul\":14384:14420   */\n      sstore\n        /* \"#utility.yul\":13819:14430   */\n      pop\n      pop\n      pop\n        /* \"#utility.yul\":13782:14669   */\n    tag_244:\n      pop\n        /* \"#utility.yul\":13372:14675   */\n      pop\n      pop\n      pop\n        /* \"#utility.yul\":13280:14675   */\n      pop\n      pop\n      jump\t// out\n\n    auxdata: 0xa2646970667358221220c9fae693fd17f707b939a76fe7b88e07e9a0d05badfd7001e1bd7b6ceed8e1f864736f6c634300081a0033\n}\n",
				"bytecode": {
					"linkReferences": {},
					"object": "608060405234801561000f575f80fd5b503360025f6101000a81548173ffffffffffffffffffffffffffffffffffffffff021916908373ffffffffffffffffffffffffffffffffffffffff16021790555060018060405161005f906100dc565b90815260200160405180910390205f6101000a81548160ff0219169083151502179055506100f0565b5f81905092915050565b7f4b480000000000000000000000000000000000000000000000000000000000005f82015250565b5f6100c6600283610088565b91506100d182610092565b600282019050919050565b5f6100e6826100ba565b9150819050919050565b610b3b806100fd5f395ff3fe608060405234801561000f575f80fd5b5060043610610055575f3560e01c80634a71b760146100595780634b3c5e81146100635780639454d94214610093578063947d2420146100af578063f851a440146100df575b5f80fd5b6100616100fd565b005b61007d600480360381019061007891906104c2565b6101a4565b60405161008a9190610523565b60405180910390f35b6100ad60048036038101906100a89190610596565b6101d9565b005b6100c960048036038101906100c491906105f0565b6102b6565b6040516100d6919061067b565b60405180910390f35b6100e7610350565b6040516100f491906106aa565b60405180910390f35b60015f803373ffffffffffffffffffffffffffffffffffffffff1673ffffffffffffffffffffffffffffffffffffffff1681526020019081526020015f2060405161014891906107bc565b90815260200160405180910390205f9054906101000a900460ff166101a2576040517f08c379a00000000000000000000000000000000000000000000000000000000081526004016101999061081c565b60405180910390fd5b565b6001818051602081018201805184825260208301602085012081835280955050505050505f915054906101000a900460ff1681565b60025f9054906101000a900473ffffffffffffffffffffffffffffffffffffffff1673ffffffffffffffffffffffffffffffffffffffff163373ffffffffffffffffffffffffffffffffffffffff1614610268576040517f08c379a000000000000000000000000000000000000000000000000000000000815260040161025f90610884565b60405180910390fd5b805f808473ffffffffffffffffffffffffffffffffffffffff1673ffffffffffffffffffffffffffffffffffffffff1681526020019081526020015f2090816102b19190610a36565b505050565b5f602052805f5260405f205f9150905080546102d1906106f0565b80601f01602080910402602001604051908101604052809291908181526020018280546102fd906106f0565b80156103485780601f1061031f57610100808354040283529160200191610348565b820191905f5260205f20905b81548152906001019060200180831161032b57829003601f168201915b505050505081565b60025f9054906101000a900473ffffffffffffffffffffffffffffffffffffffff1681565b5f604051905090565b5f80fd5b5f80fd5b5f80fd5b5f80fd5b5f601f19601f8301169050919050565b7f4e487b71000000000000000000000000000000000000000000000000000000005f52604160045260245ffd5b6103d48261038e565b810181811067ffffffffffffffff821117156103f3576103f261039e565b5b80604052505050565b5f610405610375565b905061041182826103cb565b919050565b5f67ffffffffffffffff8211156104305761042f61039e565b5b6104398261038e565b9050602081019050919050565b828183375f83830152505050565b5f61046661046184610416565b6103fc565b9050828152602081018484840111156104825761048161038a565b5b61048d848285610446565b509392505050565b5f82601f8301126104a9576104a8610386565b5b81356104b9848260208601610454565b91505092915050565b5f602082840312156104d7576104d661037e565b5b5f82013567ffffffffffffffff8111156104f4576104f3610382565b5b61050084828501610495565b91505092915050565b5f8115159050919050565b61051d81610509565b82525050565b5f6020820190506105365f830184610514565b92915050565b5f73ffffffffffffffffffffffffffffffffffffffff82169050919050565b5f6105658261053c565b9050919050565b6105758161055b565b811461057f575f80fd5b50565b5f813590506105908161056c565b92915050565b5f80604083850312156105ac576105ab61037e565b5b5f6105b985828601610582565b925050602083013567ffffffffffffffff8111156105da576105d9610382565b5b6105e685828601610495565b9150509250929050565b5f602082840312156106055761060461037e565b5b5f61061284828501610582565b91505092915050565b5f81519050919050565b5f82825260208201905092915050565b8281835e5f83830152505050565b5f61064d8261061b565b6106578185610625565b9350610667818560208601610635565b6106708161038e565b840191505092915050565b5f6020820190508181035f8301526106938184610643565b905092915050565b6106a48161055b565b82525050565b5f6020820190506106bd5f83018461069b565b92915050565b7f4e487b71000000000000000000000000000000000000000000000000000000005f52602260045260245ffd5b5f600282049050600182168061070757607f821691505b60208210810361071a576107196106c3565b5b50919050565b5f81905092915050565b5f819050815f5260205f209050919050565b5f8154610748816106f0565b6107528186610720565b9450600182165f811461076c5760018114610781576107b3565b60ff19831686528115158202860193506107b3565b61078a8561072a565b5f5b838110156107ab5781548189015260018201915060208101905061078c565b838801955050505b50505092915050565b5f6107c7828461073c565b915081905092915050565b7f526567696f6e206e6f7420616c6c6f77656400000000000000000000000000005f82015250565b5f610806601283610625565b9150610811826107d2565b602082019050919050565b5f6020820190508181035f830152610833816107fa565b9050919050565b7f4f6e6c792061646d696e000000000000000000000000000000000000000000005f82015250565b5f61086e600a83610625565b91506108798261083a565b602082019050919050565b5f6020820190508181035f83015261089b81610862565b9050919050565b5f6020601f8301049050919050565b5f82821b905092915050565b5f600883026108ec7fffffffffffffffffffffffffffffffffffffffffffffffffffffffffffffffff826108b1565b6108f686836108b1565b95508019841693508086168417925050509392505050565b5f819050919050565b5f819050919050565b5f61093a6109356109308461090e565b610917565b61090e565b9050919050565b5f819050919050565b61095383610920565b61096761095f82610941565b8484546108bd565b825550505050565b5f90565b61097b61096f565b61098681848461094a565b505050565b5b818110156109a95761099e5f82610973565b60018101905061098c565b5050565b601f8211156109ee576109bf8161072a565b6109c8846108a2565b810160208510156109d7578190505b6109eb6109e3856108a2565b83018261098b565b50505b505050565b5f82821c905092915050565b5f610a0e5f19846008026109f3565b1980831691505092915050565b5f610a2683836109ff565b9150826002028217905092915050565b610a3f8261061b565b67ffffffffffffffff811115610a5857610a5761039e565b5b610a6282546106f0565b610a6d8282856109ad565b5f60209050601f831160018114610a9e575f8415610a8c578287015190505b610a968582610a1b565b865550610afd565b601f198416610aac8661072a565b5f5b82811015610ad357848901518255600182019150602085019450602081019050610aae565b86831015610af05784890151610aec601f8916826109ff565b8355505b6001600288020188555050505b50505050505056fea2646970667358221220c9fae693fd17f707b939a76fe7b88e07e9a0d05badfd7001e1bd7b6ceed8e1f864736f6c634300081a0033",
					"opcodes": "PUSH1 0x80 PUSH1 0x40 MSTORE CALLVALUE DUP1 ISZERO PUSH2 0xF JUMPI PUSH0 DUP1 REVERT JUMPDEST POP CALLER PUSH1 0x2 PUSH0 PUSH2 0x100 EXP DUP2 SLOAD DUP2 PUSH20 0xFFFFFFFFFFFFFFFFFFFFFFFFFFFFFFFFFFFFFFFF MUL NOT AND SWAP1 DUP4 PUSH20 0xFFFFFFFFFFFFFFFFFFFFFFFFFFFFFFFFFFFFFFFF AND MUL OR SWAP1 SSTORE POP PUSH1 0x1 DUP1 PUSH1 0x40 MLOAD PUSH2 0x5F SWAP1 PUSH2 0xDC JUMP JUMPDEST SWAP1 DUP2 MSTORE PUSH1 0x20 ADD PUSH1 0x40 MLOAD DUP1 SWAP2 SUB SWAP1 KECCAK256 PUSH0 PUSH2 0x100 EXP DUP2 SLOAD DUP2 PUSH1 0xFF MUL NOT AND SWAP1 DUP4 ISZERO ISZERO MUL OR SWAP1 SSTORE POP PUSH2 0xF0 JUMP JUMPDEST PUSH0 DUP2 SWAP1 POP SWAP3 SWAP2 POP POP JUMP JUMPDEST PUSH32 0x4B48000000000000000000000000000000000000000000000000000000000000 PUSH0 DUP3 ADD MSTORE POP JUMP JUMPDEST PUSH0 PUSH2 0xC6 PUSH1 0x2 DUP4 PUSH2 0x88 JUMP JUMPDEST SWAP2 POP PUSH2 0xD1 DUP3 PUSH2 0x92 JUMP JUMPDEST PUSH1 0x2 DUP3 ADD SWAP1 POP SWAP2 SWAP1 POP JUMP JUMPDEST PUSH0 PUSH2 0xE6 DUP3 PUSH2 0xBA JUMP JUMPDEST SWAP2 POP DUP2 SWAP1 POP SWAP2 SWAP1 POP JUMP JUMPDEST PUSH2 0xB3B DUP1 PUSH2 0xFD PUSH0 CODECOPY PUSH0 RETURN INVALID PUSH1 0x80 PUSH1 0x40 MSTORE CALLVALUE DUP1 ISZERO PUSH2 0xF JUMPI PUSH0 DUP1 REVERT JUMPDEST POP PUSH1 0x4 CALLDATASIZE LT PUSH2 0x55 JUMPI PUSH0 CALLDATALOAD PUSH1 0xE0 SHR DUP1 PUSH4 0x4A71B760 EQ PUSH2 0x59 JUMPI DUP1 PUSH4 0x4B3C5E81 EQ PUSH2 0x63 JUMPI DUP1 PUSH4 0x9454D942 EQ PUSH2 0x93 JUMPI DUP1 PUSH4 0x947D2420 EQ PUSH2 0xAF JUMPI DUP1 PUSH4 0xF851A440 EQ PUSH2 0xDF JUMPI JUMPDEST PUSH0 DUP1 REVERT JUMPDEST PUSH2 0x61 PUSH2 0xFD JUMP JUMPDEST STOP JUMPDEST PUSH2 0x7D PUSH1 0x4 DUP1 CALLDATASIZE SUB DUP2 ADD SWAP1 PUSH2 0x78 SWAP2 SWAP1 PUSH2 0x4C2 JUMP JUMPDEST PUSH2 0x1A4 JUMP JUMPDEST PUSH1 0x40 MLOAD PUSH2 0x8A SWAP2 SWAP1 PUSH2 0x523 JUMP JUMPDEST PUSH1 0x40 MLOAD DUP1 SWAP2 SUB SWAP1 RETURN JUMPDEST PUSH2 0xAD PUSH1 0x4 DUP1 CALLDATASIZE SUB DUP2 ADD SWAP1 PUSH2 0xA8 SWAP2 SWAP1 PUSH2 0x596 JUMP JUMPDEST PUSH2 0x1D9 JUMP JUMPDEST STOP JUMPDEST PUSH2 0xC9 PUSH1 0x4 DUP1 CALLDATASIZE SUB DUP2 ADD SWAP1 PUSH2 0xC4 SWAP2 SWAP1 PUSH2 0x5F0 JUMP JUMPDEST PUSH2 0x2B6 JUMP JUMPDEST PUSH1 0x40 MLOAD PUSH2 0xD6 SWAP2 SWAP1 PUSH2 0x67B JUMP JUMPDEST PUSH1 0x40 MLOAD DUP1 SWAP2 SUB SWAP1 RETURN JUMPDEST PUSH2 0xE7 PUSH2 0x350 JUMP JUMPDEST PUSH1 0x40 MLOAD PUSH2 0xF4 SWAP2 SWAP1 PUSH2 0x6AA JUMP JUMPDEST PUSH1 0x40 MLOAD DUP1 SWAP2 SUB SWAP1 RETURN JUMPDEST PUSH1 0x1 PUSH0 DUP1 CALLER PUSH20 0xFFFFFFFFFFFFFFFFFFFFFFFFFFFFFFFFFFFFFFFF AND PUSH20 0xFFFFFFFFFFFFFFFFFFFFFFFFFFFFFFFFFFFFFFFF AND DUP2 MSTORE PUSH1 0x20 ADD SWAP1 DUP2 MSTORE PUSH1 0x20 ADD PUSH0 KECCAK256 PUSH1 0x40 MLOAD PUSH2 0x148 SWAP2 SWAP1 PUSH2 0x7BC JUMP JUMPDEST SWAP1 DUP2 MSTORE PUSH1 0x20 ADD PUSH1 0x40 MLOAD DUP1 SWAP2 SUB SWAP1 KECCAK256 PUSH0 SWAP1 SLOAD SWAP1 PUSH2 0x100 EXP SWAP1 DIV PUSH1 0xFF AND PUSH2 0x1A2 JUMPI PUSH1 0x40 MLOAD PUSH32 0x8C379A000000000000000000000000000000000000000000000000000000000 DUP2 MSTORE PUSH1 0x4 ADD PUSH2 0x199 SWAP1 PUSH2 0x81C JUMP JUMPDEST PUSH1 0x40 MLOAD DUP1 SWAP2 SUB SWAP1 REVERT JUMPDEST JUMP JUMPDEST PUSH1 0x1 DUP2 DUP1 MLOAD PUSH1 0x20 DUP2 ADD DUP3 ADD DUP1 MLOAD DUP5 DUP3 MSTORE PUSH1 0x20 DUP4 ADD PUSH1 0x20 DUP6 ADD KECCAK256 DUP2 DUP4 MSTORE DUP1 SWAP6 POP POP POP POP POP POP PUSH0 SWAP2 POP SLOAD SWAP1 PUSH2 0x100 EXP SWAP1 DIV PUSH1 0xFF AND DUP2 JUMP JUMPDEST PUSH1 0x2 PUSH0 SWAP1 SLOAD SWAP1 PUSH2 0x100 EXP SWAP1 DIV PUSH20 0xFFFFFFFFFFFFFFFFFFFFFFFFFFFFFFFFFFFFFFFF AND PUSH20 0xFFFFFFFFFFFFFFFFFFFFFFFFFFFFFFFFFFFFFFFF AND CALLER PUSH20 0xFFFFFFFFFFFFFFFFFFFFFFFFFFFFFFFFFFFFFFFF AND EQ PUSH2 0x268 JUMPI PUSH1 0x40 MLOAD PUSH32 0x8C379A000000000000000000000000000000000000000000000000000000000 DUP2 MSTORE PUSH1 0x4 ADD PUSH2 0x25F SWAP1 PUSH2 0x884 JUMP JUMPDEST PUSH1 0x40 MLOAD DUP1 SWAP2 SUB SWAP1 REVERT JUMPDEST DUP1 PUSH0 DUP1 DUP5 PUSH20 0xFFFFFFFFFFFFFFFFFFFFFFFFFFFFFFFFFFFFFFFF AND PUSH20 0xFFFFFFFFFFFFFFFFFFFFFFFFFFFFFFFFFFFFFFFF AND DUP2 MSTORE PUSH1 0x20 ADD SWAP1 DUP2 MSTORE PUSH1 0x20 ADD PUSH0 KECCAK256 SWAP1 DUP2 PUSH2 0x2B1 SWAP2 SWAP1 PUSH2 0xA36 JUMP JUMPDEST POP POP POP JUMP JUMPDEST PUSH0 PUSH1 0x20 MSTORE DUP1 PUSH0 MSTORE PUSH1 0x40 PUSH0 KECCAK256 PUSH0 SWAP2 POP SWAP1 POP DUP1 SLOAD PUSH2 0x2D1 SWAP1 PUSH2 0x6F0 JUMP JUMPDEST DUP1 PUSH1 0x1F ADD PUSH1 0x20 DUP1 SWAP2 DIV MUL PUSH1 0x20 ADD PUSH1 0x40 MLOAD SWAP1 DUP2 ADD PUSH1 0x40 MSTORE DUP1 SWAP3 SWAP2 SWAP1 DUP2 DUP2 MSTORE PUSH1 0x20 ADD DUP3 DUP1 SLOAD PUSH2 0x2FD SWAP1 PUSH2 0x6F0 JUMP JUMPDEST DUP1 ISZERO PUSH2 0x348 JUMPI DUP1 PUSH1 0x1F LT PUSH2 0x31F JUMPI PUSH2 0x100 DUP1 DUP4 SLOAD DIV MUL DUP4 MSTORE SWAP2 PUSH1 0x20 ADD SWAP2 PUSH2 0x348 JUMP JUMPDEST DUP3 ADD SWAP2 SWAP1 PUSH0 MSTORE PUSH1 0x20 PUSH0 KECCAK256 SWAP1 JUMPDEST DUP2 SLOAD DUP2 MSTORE SWAP1 PUSH1 0x1 ADD SWAP1 PUSH1 0x20 ADD DUP1 DUP4 GT PUSH2 0x32B JUMPI DUP3 SWAP1 SUB PUSH1 0x1F AND DUP3 ADD SWAP2 JUMPDEST POP POP POP POP POP DUP2 JUMP JUMPDEST PUSH1 0x2 PUSH0 SWAP1 SLOAD SWAP1 PUSH2 0x100 EXP SWAP1 DIV PUSH20 0xFFFFFFFFFFFFFFFFFFFFFFFFFFFFFFFFFFFFFFFF AND DUP2 JUMP JUMPDEST PUSH0 PUSH1 0x40 MLOAD SWAP1 POP SWAP1 JUMP JUMPDEST PUSH0 DUP1 REVERT JUMPDEST PUSH0 DUP1 REVERT JUMPDEST PUSH0 DUP1 REVERT JUMPDEST PUSH0 DUP1 REVERT JUMPDEST PUSH0 PUSH1 0x1F NOT PUSH1 0x1F DUP4 ADD AND SWAP1 POP SWAP2 SWAP1 POP JUMP JUMPDEST PUSH32 0x4E487B7100000000000000000000000000000000000000000000000000000000 PUSH0 MSTORE PUSH1 0x41 PUSH1 0x4 MSTORE PUSH1 0x24 PUSH0 REVERT JUMPDEST PUSH2 0x3D4 DUP3 PUSH2 0x38E JUMP JUMPDEST DUP2 ADD DUP2 DUP2 LT PUSH8 0xFFFFFFFFFFFFFFFF DUP3 GT OR ISZERO PUSH2 0x3F3 JUMPI PUSH2 0x3F2 PUSH2 0x39E JUMP JUMPDEST JUMPDEST DUP1 PUSH1 0x40 MSTORE POP POP POP JUMP JUMPDEST PUSH0 PUSH2 0x405 PUSH2 0x375 JUMP JUMPDEST SWAP1 POP PUSH2 0x411 DUP3 DUP3 PUSH2 0x3CB JUMP JUMPDEST SWAP2 SWAP1 POP JUMP JUMPDEST PUSH0 PUSH8 0xFFFFFFFFFFFFFFFF DUP3 GT ISZERO PUSH2 0x430 JUMPI PUSH2 0x42F PUSH2 0x39E JUMP JUMPDEST JUMPDEST PUSH2 0x439 DUP3 PUSH2 0x38E JUMP JUMPDEST SWAP1 POP PUSH1 0x20 DUP2 ADD SWAP1 POP SWAP2 SWAP1 POP JUMP JUMPDEST DUP3 DUP2 DUP4 CALLDATACOPY PUSH0 DUP4 DUP4 ADD MSTORE POP POP POP JUMP JUMPDEST PUSH0 PUSH2 0x466 PUSH2 0x461 DUP5 PUSH2 0x416 JUMP JUMPDEST PUSH2 0x3FC JUMP JUMPDEST SWAP1 POP DUP3 DUP2 MSTORE PUSH1 0x20 DUP2 ADD DUP5 DUP5 DUP5 ADD GT ISZERO PUSH2 0x482 JUMPI PUSH2 0x481 PUSH2 0x38A JUMP JUMPDEST JUMPDEST PUSH2 0x48D DUP5 DUP3 DUP6 PUSH2 0x446 JUMP JUMPDEST POP SWAP4 SWAP3 POP POP POP JUMP JUMPDEST PUSH0 DUP3 PUSH1 0x1F DUP4 ADD SLT PUSH2 0x4A9 JUMPI PUSH2 0x4A8 PUSH2 0x386 JUMP JUMPDEST JUMPDEST DUP2 CALLDATALOAD PUSH2 0x4B9 DUP5 DUP3 PUSH1 0x20 DUP7 ADD PUSH2 0x454 JUMP JUMPDEST SWAP2 POP POP SWAP3 SWAP2 POP POP JUMP JUMPDEST PUSH0 PUSH1 0x20 DUP3 DUP5 SUB SLT ISZERO PUSH2 0x4D7 JUMPI PUSH2 0x4D6 PUSH2 0x37E JUMP JUMPDEST JUMPDEST PUSH0 DUP3 ADD CALLDATALOAD PUSH8 0xFFFFFFFFFFFFFFFF DUP2 GT ISZERO PUSH2 0x4F4 JUMPI PUSH2 0x4F3 PUSH2 0x382 JUMP JUMPDEST JUMPDEST PUSH2 0x500 DUP5 DUP3 DUP6 ADD PUSH2 0x495 JUMP JUMPDEST SWAP2 POP POP SWAP3 SWAP2 POP POP JUMP JUMPDEST PUSH0 DUP2 ISZERO ISZERO SWAP1 POP SWAP2 SWAP1 POP JUMP JUMPDEST PUSH2 0x51D DUP2 PUSH2 0x509 JUMP JUMPDEST DUP3 MSTORE POP POP JUMP JUMPDEST PUSH0 PUSH1 0x20 DUP3 ADD SWAP1 POP PUSH2 0x536 PUSH0 DUP4 ADD DUP5 PUSH2 0x514 JUMP JUMPDEST SWAP3 SWAP2 POP POP JUMP JUMPDEST PUSH0 PUSH20 0xFFFFFFFFFFFFFFFFFFFFFFFFFFFFFFFFFFFFFFFF DUP3 AND SWAP1 POP SWAP2 SWAP1 POP JUMP JUMPDEST PUSH0 PUSH2 0x565 DUP3 PUSH2 0x53C JUMP JUMPDEST SWAP1 POP SWAP2 SWAP1 POP JUMP JUMPDEST PUSH2 0x575 DUP2 PUSH2 0x55B JUMP JUMPDEST DUP2 EQ PUSH2 0x57F JUMPI PUSH0 DUP1 REVERT JUMPDEST POP JUMP JUMPDEST PUSH0 DUP2 CALLDATALOAD SWAP1 POP PUSH2 0x590 DUP2 PUSH2 0x56C JUMP JUMPDEST SWAP3 SWAP2 POP POP JUMP JUMPDEST PUSH0 DUP1 PUSH1 0x40 DUP4 DUP6 SUB SLT ISZERO PUSH2 0x5AC JUMPI PUSH2 0x5AB PUSH2 0x37E JUMP JUMPDEST JUMPDEST PUSH0 PUSH2 0x5B9 DUP6 DUP3 DUP7 ADD PUSH2 0x582 JUMP JUMPDEST SWAP3 POP POP PUSH1 0x20 DUP4 ADD CALLDATALOAD PUSH8 0xFFFFFFFFFFFFFFFF DUP2 GT ISZERO PUSH2 0x5DA JUMPI PUSH2 0x5D9 PUSH2 0x382 JUMP JUMPDEST JUMPDEST PUSH2 0x5E6 DUP6 DUP3 DUP7 ADD PUSH2 0x495 JUMP JUMPDEST SWAP2 POP POP SWAP3 POP SWAP3 SWAP1 POP JUMP JUMPDEST PUSH0 PUSH1 0x20 DUP3 DUP5 SUB SLT ISZERO PUSH2 0x605 JUMPI PUSH2 0x604 PUSH2 0x37E JUMP JUMPDEST JUMPDEST PUSH0 PUSH2 0x612 DUP5 DUP3 DUP6 ADD PUSH2 0x582 JUMP JUMPDEST SWAP2 POP POP SWAP3 SWAP2 POP POP JUMP JUMPDEST PUSH0 DUP2 MLOAD SWAP1 POP SWAP2 SWAP1 POP JUMP JUMPDEST PUSH0 DUP3 DUP3 MSTORE PUSH1 0x20 DUP3 ADD SWAP1 POP SWAP3 SWAP2 POP POP JUMP JUMPDEST DUP3 DUP2 DUP4 MCOPY PUSH0 DUP4 DUP4 ADD MSTORE POP POP POP JUMP JUMPDEST PUSH0 PUSH2 0x64D DUP3 PUSH2 0x61B JUMP JUMPDEST PUSH2 0x657 DUP2 DUP6 PUSH2 0x625 JUMP JUMPDEST SWAP4 POP PUSH2 0x667 DUP2 DUP6 PUSH1 0x20 DUP7 ADD PUSH2 0x635 JUMP JUMPDEST PUSH2 0x670 DUP2 PUSH2 0x38E JUMP JUMPDEST DUP5 ADD SWAP2 POP POP SWAP3 SWAP2 POP POP JUMP JUMPDEST PUSH0 PUSH1 0x20 DUP3 ADD SWAP1 POP DUP2 DUP2 SUB PUSH0 DUP4 ADD MSTORE PUSH2 0x693 DUP2 DUP5 PUSH2 0x643 JUMP JUMPDEST SWAP1 POP SWAP3 SWAP2 POP POP JUMP JUMPDEST PUSH2 0x6A4 DUP2 PUSH2 0x55B JUMP JUMPDEST DUP3 MSTORE POP POP JUMP JUMPDEST PUSH0 PUSH1 0x20 DUP3 ADD SWAP1 POP PUSH2 0x6BD PUSH0 DUP4 ADD DUP5 PUSH2 0x69B JUMP JUMPDEST SWAP3 SWAP2 POP POP JUMP JUMPDEST PUSH32 0x4E487B7100000000000000000000000000000000000000000000000000000000 PUSH0 MSTORE PUSH1 0x22 PUSH1 0x4 MSTORE PUSH1 0x24 PUSH0 REVERT JUMPDEST PUSH0 PUSH1 0x2 DUP3 DIV SWAP1 POP PUSH1 0x1 DUP3 AND DUP1 PUSH2 0x707 JUMPI PUSH1 0x7F DUP3 AND SWAP2 POP JUMPDEST PUSH1 0x20 DUP3 LT DUP2 SUB PUSH2 0x71A JUMPI PUSH2 0x719 PUSH2 0x6C3 JUMP JUMPDEST JUMPDEST POP SWAP2 SWAP1 POP JUMP JUMPDEST PUSH0 DUP2 SWAP1 POP SWAP3 SWAP2 POP POP JUMP JUMPDEST PUSH0 DUP2 SWAP1 POP DUP2 PUSH0 MSTORE PUSH1 0x20 PUSH0 KECCAK256 SWAP1 POP SWAP2 SWAP1 POP JUMP JUMPDEST PUSH0 DUP2 SLOAD PUSH2 0x748 DUP2 PUSH2 0x6F0 JUMP JUMPDEST PUSH2 0x752 DUP2 DUP7 PUSH2 0x720 JUMP JUMPDEST SWAP5 POP PUSH1 0x1 DUP3 AND PUSH0 DUP2 EQ PUSH2 0x76C JUMPI PUSH1 0x1 DUP2 EQ PUSH2 0x781 JUMPI PUSH2 0x7B3 JUMP JUMPDEST PUSH1 0xFF NOT DUP4 AND DUP7 MSTORE DUP2 ISZERO ISZERO DUP3 MUL DUP7 ADD SWAP4 POP PUSH2 0x7B3 JUMP JUMPDEST PUSH2 0x78A DUP6 PUSH2 0x72A JUMP JUMPDEST PUSH0 JUMPDEST DUP4 DUP2 LT ISZERO PUSH2 0x7AB JUMPI DUP2 SLOAD DUP2 DUP10 ADD MSTORE PUSH1 0x1 DUP3 ADD SWAP2 POP PUSH1 0x20 DUP2 ADD SWAP1 POP PUSH2 0x78C JUMP JUMPDEST DUP4 DUP9 ADD SWAP6 POP POP POP JUMPDEST POP POP POP SWAP3 SWAP2 POP POP JUMP JUMPDEST PUSH0 PUSH2 0x7C7 DUP3 DUP5 PUSH2 0x73C JUMP JUMPDEST SWAP2 POP DUP2 SWAP1 POP SWAP3 SWAP2 POP POP JUMP JUMPDEST PUSH32 0x526567696F6E206E6F7420616C6C6F7765640000000000000000000000000000 PUSH0 DUP3 ADD MSTORE POP JUMP JUMPDEST PUSH0 PUSH2 0x806 PUSH1 0x12 DUP4 PUSH2 0x625 JUMP JUMPDEST SWAP2 POP PUSH2 0x811 DUP3 PUSH2 0x7D2 JUMP JUMPDEST PUSH1 0x20 DUP3 ADD SWAP1 POP SWAP2 SWAP1 POP JUMP JUMPDEST PUSH0 PUSH1 0x20 DUP3 ADD SWAP1 POP DUP2 DUP2 SUB PUSH0 DUP4 ADD MSTORE PUSH2 0x833 DUP2 PUSH2 0x7FA JUMP JUMPDEST SWAP1 POP SWAP2 SWAP1 POP JUMP JUMPDEST PUSH32 0x4F6E6C792061646D696E00000000000000000000000000000000000000000000 PUSH0 DUP3 ADD MSTORE POP JUMP JUMPDEST PUSH0 PUSH2 0x86E PUSH1 0xA DUP4 PUSH2 0x625 JUMP JUMPDEST SWAP2 POP PUSH2 0x879 DUP3 PUSH2 0x83A JUMP JUMPDEST PUSH1 0x20 DUP3 ADD SWAP1 POP SWAP2 SWAP1 POP JUMP JUMPDEST PUSH0 PUSH1 0x20 DUP3 ADD SWAP1 POP DUP2 DUP2 SUB PUSH0 DUP4 ADD MSTORE PUSH2 0x89B DUP2 PUSH2 0x862 JUMP JUMPDEST SWAP1 POP SWAP2 SWAP1 POP JUMP JUMPDEST PUSH0 PUSH1 0x20 PUSH1 0x1F DUP4 ADD DIV SWAP1 POP SWAP2 SWAP1 POP JUMP JUMPDEST PUSH0 DUP3 DUP3 SHL SWAP1 POP SWAP3 SWAP2 POP POP JUMP JUMPDEST PUSH0 PUSH1 0x8 DUP4 MUL PUSH2 0x8EC PUSH32 0xFFFFFFFFFFFFFFFFFFFFFFFFFFFFFFFFFFFFFFFFFFFFFFFFFFFFFFFFFFFFFFFF DUP3 PUSH2 0x8B1 JUMP JUMPDEST PUSH2 0x8F6 DUP7 DUP4 PUSH2 0x8B1 JUMP JUMPDEST SWAP6 POP DUP1 NOT DUP5 AND SWAP4 POP DUP1 DUP7 AND DUP5 OR SWAP3 POP POP POP SWAP4 SWAP3 POP POP POP JUMP JUMPDEST PUSH0 DUP2 SWAP1 POP SWAP2 SWAP1 POP JUMP JUMPDEST PUSH0 DUP2 SWAP1 POP SWAP2 SWAP1 POP JUMP JUMPDEST PUSH0 PUSH2 0x93A PUSH2 0x935 PUSH2 0x930 DUP5 PUSH2 0x90E JUMP JUMPDEST PUSH2 0x917 JUMP JUMPDEST PUSH2 0x90E JUMP JUMPDEST SWAP1 POP SWAP2 SWAP1 POP JUMP JUMPDEST PUSH0 DUP2 SWAP1 POP SWAP2 SWAP1 POP JUMP JUMPDEST PUSH2 0x953 DUP4 PUSH2 0x920 JUMP JUMPDEST PUSH2 0x967 PUSH2 0x95F DUP3 PUSH2 0x941 JUMP JUMPDEST DUP5 DUP5 SLOAD PUSH2 0x8BD JUMP JUMPDEST DUP3 SSTORE POP POP POP POP JUMP JUMPDEST PUSH0 SWAP1 JUMP JUMPDEST PUSH2 0x97B PUSH2 0x96F JUMP JUMPDEST PUSH2 0x986 DUP2 DUP5 DUP5 PUSH2 0x94A JUMP JUMPDEST POP POP POP JUMP JUMPDEST JUMPDEST DUP2 DUP2 LT ISZERO PUSH2 0x9A9 JUMPI PUSH2 0x99E PUSH0 DUP3 PUSH2 0x973 JUMP JUMPDEST PUSH1 0x1 DUP2 ADD SWAP1 POP PUSH2 0x98C JUMP JUMPDEST POP POP JUMP JUMPDEST PUSH1 0x1F DUP3 GT ISZERO PUSH2 0x9EE JUMPI PUSH2 0x9BF DUP2 PUSH2 0x72A JUMP JUMPDEST PUSH2 0x9C8 DUP5 PUSH2 0x8A2 JUMP JUMPDEST DUP2 ADD PUSH1 0x20 DUP6 LT ISZERO PUSH2 0x9D7 JUMPI DUP2 SWAP1 POP JUMPDEST PUSH2 0x9EB PUSH2 0x9E3 DUP6 PUSH2 0x8A2 JUMP JUMPDEST DUP4 ADD DUP3 PUSH2 0x98B JUMP JUMPDEST POP POP JUMPDEST POP POP POP JUMP JUMPDEST PUSH0 DUP3 DUP3 SHR SWAP1 POP SWAP3 SWAP2 POP POP JUMP JUMPDEST PUSH0 PUSH2 0xA0E PUSH0 NOT DUP5 PUSH1 0x8 MUL PUSH2 0x9F3 JUMP JUMPDEST NOT DUP1 DUP4 AND SWAP2 POP POP SWAP3 SWAP2 POP POP JUMP JUMPDEST PUSH0 PUSH2 0xA26 DUP4 DUP4 PUSH2 0x9FF JUMP JUMPDEST SWAP2 POP DUP3 PUSH1 0x2 MUL DUP3 OR SWAP1 POP SWAP3 SWAP2 POP POP JUMP JUMPDEST PUSH2 0xA3F DUP3 PUSH2 0x61B JUMP JUMPDEST PUSH8 0xFFFFFFFFFFFFFFFF DUP2 GT ISZERO PUSH2 0xA58 JUMPI PUSH2 0xA57 PUSH2 0x39E JUMP JUMPDEST JUMPDEST PUSH2 0xA62 DUP3 SLOAD PUSH2 0x6F0 JUMP JUMPDEST PUSH2 0xA6D DUP3 DUP3 DUP6 PUSH2 0x9AD JUMP JUMPDEST PUSH0 PUSH1 0x20 SWAP1 POP PUSH1 0x1F DUP4 GT PUSH1 0x1 DUP2 EQ PUSH2 0xA9E JUMPI PUSH0 DUP5 ISZERO PUSH2 0xA8C JUMPI DUP3 DUP8 ADD MLOAD SWAP1 POP JUMPDEST PUSH2 0xA96 DUP6 DUP3 PUSH2 0xA1B JUMP JUMPDEST DUP7 SSTORE POP PUSH2 0xAFD JUMP JUMPDEST PUSH1 0x1F NOT DUP5 AND PUSH2 0xAAC DUP7 PUSH2 0x72A JUMP JUMPDEST PUSH0 JUMPDEST DUP3 DUP2 LT ISZERO PUSH2 0xAD3 JUMPI DUP5 DUP10 ADD MLOAD DUP3 SSTORE PUSH1 0x1 DUP3 ADD SWAP2 POP PUSH1 0x20 DUP6 ADD SWAP5 POP PUSH1 0x20 DUP2 ADD SWAP1 POP PUSH2 0xAAE JUMP JUMPDEST DUP7 DUP4 LT ISZERO PUSH2 0xAF0 JUMPI DUP5 DUP10 ADD MLOAD PUSH2 0xAEC PUSH1 0x1F DUP10 AND DUP3 PUSH2 0x9FF JUMP JUMPDEST DUP4 SSTORE POP JUMPDEST PUSH1 0x1 PUSH1 0x2 DUP9 MUL ADD DUP9 SSTORE POP POP POP JUMPDEST POP POP POP POP POP POP JUMP INVALID LOG2 PUSH5 0x6970667358 0x22 SLT KECCAK256 0xC9 STATICCALL 0xE6 SWAP4 REVERT OR 0xF7 SMOD 0xB9 CODECOPY 0xA7 PUSH16 0xE7B88E07E9A0D05BADFD7001E1BD7B6C 0xEE 0xD8 0xE1 0xF8 PUSH5 0x736F6C6343 STOP ADDMOD BYTE STOP CALLER "
				},
				"gasEstimates": {
					"creation": {
						"codeDepositCost": "575000",
						"executionCost": "49427",
						"totalCost": "624427"
					},
					"external": {
						"admin()": "2574",
						"allowedRegions(string)": "infinite",
						"regionRestrictedAction()": "infinite",
						"regionTag(address)": "infinite",
						"setRegion(address,string)": "infinite"
					}
				},
				"methodIdentifiers": {
					"admin()": "f851a440",
					"allowedRegions(string)": "4b3c5e81",
					"regionRestrictedAction()": "4a71b760",
					"regionTag(address)": "947d2420",
					"setRegion(address,string)": "9454d942"
				}
			},
			"storageLayout": {
				"storage": [
					{
						"astId": 5,
						"contract": "I/Issue-Specific Policy/Geofenced Policy (Off-chain tagging).sol:GeoTaggedPolicy",
						"label": "regionTag",
						"offset": 0,
						"slot": "0",
						"type": "t_mapping(t_address,t_string_storage)"
					},
					{
						"astId": 9,
						"contract": "I/Issue-Specific Policy/Geofenced Policy (Off-chain tagging).sol:GeoTaggedPolicy",
						"label": "allowedRegions",
						"offset": 0,
						"slot": "1",
						"type": "t_mapping(t_string_memory_ptr,t_bool)"
					},
					{
						"astId": 11,
						"contract": "I/Issue-Specific Policy/Geofenced Policy (Off-chain tagging).sol:GeoTaggedPolicy",
						"label": "admin",
						"offset": 0,
						"slot": "2",
						"type": "t_address"
					}
				],
				"types": {
					"t_address": {
						"encoding": "inplace",
						"label": "address",
						"numberOfBytes": "20"
					},
					"t_bool": {
						"encoding": "inplace",
						"label": "bool",
						"numberOfBytes": "1"
					},
					"t_mapping(t_address,t_string_storage)": {
						"encoding": "mapping",
						"key": "t_address",
						"label": "mapping(address => string)",
						"numberOfBytes": "32",
						"value": "t_string_storage"
					},
					"t_mapping(t_string_memory_ptr,t_bool)": {
						"encoding": "mapping",
						"key": "t_string_memory_ptr",
						"label": "mapping(string => bool)",
						"numberOfBytes": "32",
						"value": "t_bool"
					},
					"t_string_memory_ptr": {
						"encoding": "bytes",
						"label": "string",
						"numberOfBytes": "32"
					},
					"t_string_storage": {
						"encoding": "bytes",
						"label": "string",
						"numberOfBytes": "32"
					}
				}
			},
			"userdoc": {
				"kind": "user",
				"methods": {},
				"version": 1
			}
		}
	}
}