{
	"E/Exposure/Off-Chain or Hashed References.sol": {
		"HashedSecretReference": {
			"abi": [
				{
					"inputs": [
						{
							"internalType": "bytes32",
							"name": "_hash",
							"type": "bytes32"
						}
					],
					"stateMutability": "nonpayable",
					"type": "constructor"
				},
				{
					"inputs": [
						{
							"internalType": "string",
							"name": "attempt",
							"type": "string"
						},
						{
							"internalType": "bytes32",
							"name": "salt",
							"type": "bytes32"
						}
					],
					"name": "checkSecret",
					"outputs": [
						{
							"internalType": "bool",
							"name": "",
							"type": "bool"
						}
					],
					"stateMutability": "view",
					"type": "function"
				},
				{
					"inputs": [],
					"name": "hashedSecret",
					"outputs": [
						{
							"internalType": "bytes32",
							"name": "",
							"type": "bytes32"
						}
					],
					"stateMutability": "view",
					"type": "function"
				}
			],
			"devdoc": {
				"kind": "dev",
				"methods": {},
				"version": 1
			},
			"evm": {
				"assembly": "    /* \"E/Exposure/Off-Chain or Hashed References.sol\":286:767  contract HashedSecretReference {... */\n  mstore(0x40, 0x80)\n    /* \"E/Exposure/Off-Chain or Hashed References.sol\":388:452  constructor(bytes32 _hash) {... */\n  callvalue\n  dup1\n  iszero\n  tag_1\n  jumpi\n  0x00\n  dup1\n  revert\ntag_1:\n  pop\n  mload(0x40)\n  sub(codesize, bytecodeSize)\n  dup1\n  bytecodeSize\n  dup4\n  codecopy\n  dup2\n  dup2\n  add\n  0x40\n  mstore\n  dup2\n  add\n  swap1\n  tag_2\n  swap2\n  swap1\n  tag_3\n  jump\t// in\ntag_2:\n    /* \"E/Exposure/Off-Chain or Hashed References.sol\":440:445  _hash */\n  dup1\n    /* \"E/Exposure/Off-Chain or Hashed References.sol\":425:437  hashedSecret */\n  0x00\n    /* \"E/Exposure/Off-Chain or Hashed References.sol\":425:445  hashedSecret = _hash */\n  dup2\n  swap1\n  sstore\n  pop\n    /* \"E/Exposure/Off-Chain or Hashed References.sol\":388:452  constructor(bytes32 _hash) {... */\n  pop\n    /* \"E/Exposure/Off-Chain or Hashed References.sol\":286:767  contract HashedSecretReference {... */\n  jump(tag_6)\n    /* \"#utility.yul\":88:205   */\ntag_8:\n    /* \"#utility.yul\":197:198   */\n  0x00\n    /* \"#utility.yul\":194:195   */\n  dup1\n    /* \"#utility.yul\":187:199   */\n  revert\n    /* \"#utility.yul\":334:411   */\ntag_10:\n    /* \"#utility.yul\":371:378   */\n  0x00\n    /* \"#utility.yul\":400:405   */\n  dup2\n    /* \"#utility.yul\":389:405   */\n  swap1\n  pop\n    /* \"#utility.yul\":334:411   */\n  swap2\n  swap1\n  pop\n  jump\t// out\n    /* \"#utility.yul\":417:539   */\ntag_11:\n    /* \"#utility.yul\":490:514   */\n  tag_19\n    /* \"#utility.yul\":508:513   */\n  dup2\n    /* \"#utility.yul\":490:514   */\n  tag_10\n  jump\t// in\ntag_19:\n    /* \"#utility.yul\":483:488   */\n  dup2\n    /* \"#utility.yul\":480:515   */\n  eq\n    /* \"#utility.yul\":470:533   */\n  tag_20\n  jumpi\n    /* \"#utility.yul\":529:530   */\n  0x00\n    /* \"#utility.yul\":526:527   */\n  dup1\n    /* \"#utility.yul\":519:531   */\n  revert\n    /* \"#utility.yul\":470:533   */\ntag_20:\n    /* \"#utility.yul\":417:539   */\n  pop\n  jump\t// out\n    /* \"#utility.yul\":545:688   */\ntag_12:\n    /* \"#utility.yul\":602:607   */\n  0x00\n    /* \"#utility.yul\":633:639   */\n  dup2\n    /* \"#utility.yul\":627:640   */\n  mload\n    /* \"#utility.yul\":618:640   */\n  swap1\n  pop\n    /* \"#utility.yul\":649:682   */\n  tag_22\n    /* \"#utility.yul\":676:681   */\n  dup2\n    /* \"#utility.yul\":649:682   */\n  tag_11\n  jump\t// in\ntag_22:\n    /* \"#utility.yul\":545:688   */\n  swap3\n  swap2\n  pop\n  pop\n  jump\t// out\n    /* \"#utility.yul\":694:1045   */\ntag_3:\n    /* \"#utility.yul\":764:770   */\n  0x00\n    /* \"#utility.yul\":813:815   */\n  0x20\n    /* \"#utility.yul\":801:810   */\n  dup3\n    /* \"#utility.yul\":792:799   */\n  dup5\n    /* \"#utility.yul\":788:811   */\n  sub\n    /* \"#utility.yul\":784:816   */\n  slt\n    /* \"#utility.yul\":781:900   */\n  iszero\n  tag_24\n  jumpi\n    /* \"#utility.yul\":819:898   */\n  tag_25\n  tag_8\n  jump\t// in\ntag_25:\n    /* \"#utility.yul\":781:900   */\ntag_24:\n    /* \"#utility.yul\":939:940   */\n  0x00\n    /* \"#utility.yul\":964:1028   */\n  tag_26\n    /* \"#utility.yul\":1020:1027   */\n  dup5\n    /* \"#utility.yul\":1011:1017   */\n  dup3\n    /* \"#utility.yul\":1000:1009   */\n  dup6\n    /* \"#utility.yul\":996:1018   */\n  add\n    /* \"#utility.yul\":964:1028   */\n  tag_12\n  jump\t// in\ntag_26:\n    /* \"#utility.yul\":954:1028   */\n  swap2\n  pop\n    /* \"#utility.yul\":910:1038   */\n  pop\n    /* \"#utility.yul\":694:1045   */\n  swap3\n  swap2\n  pop\n  pop\n  jump\t// out\n    /* \"E/Exposure/Off-Chain or Hashed References.sol\":286:767  contract HashedSecretReference {... */\ntag_6:\n  dataSize(sub_0)\n  dup1\n  dataOffset(sub_0)\n  0x00\n  codecopy\n  0x00\n  return\nstop\n\nsub_0: assembly {\n        /* \"E/Exposure/Off-Chain or Hashed References.sol\":286:767  contract HashedSecretReference {... */\n      mstore(0x40, 0x80)\n      callvalue\n      dup1\n      iszero\n      tag_1\n      jumpi\n      0x00\n      dup1\n      revert\n    tag_1:\n      pop\n      jumpi(tag_2, lt(calldatasize, 0x04))\n      shr(0xe0, calldataload(0x00))\n      dup1\n      0x428bbf09\n      eq\n      tag_3\n      jumpi\n      dup1\n      0x5752c910\n      eq\n      tag_4\n      jumpi\n    tag_2:\n      0x00\n      dup1\n      revert\n        /* \"E/Exposure/Off-Chain or Hashed References.sol\":458:765  function checkSecret(string calldata attempt, bytes32 salt) external view returns (bool) {... */\n    tag_3:\n      tag_5\n      0x04\n      dup1\n      calldatasize\n      sub\n      dup2\n      add\n      swap1\n      tag_6\n      swap2\n      swap1\n      tag_7\n      jump\t// in\n    tag_6:\n      tag_8\n      jump\t// in\n    tag_5:\n      mload(0x40)\n      tag_9\n      swap2\n      swap1\n      tag_10\n      jump\t// in\n    tag_9:\n      mload(0x40)\n      dup1\n      swap2\n      sub\n      swap1\n      return\n        /* \"E/Exposure/Off-Chain or Hashed References.sol\":323:350  bytes32 public hashedSecret */\n    tag_4:\n      tag_11\n      tag_12\n      jump\t// in\n    tag_11:\n      mload(0x40)\n      tag_13\n      swap2\n      swap1\n      tag_14\n      jump\t// in\n    tag_13:\n      mload(0x40)\n      dup1\n      swap2\n      sub\n      swap1\n      return\n        /* \"E/Exposure/Off-Chain or Hashed References.sol\":458:765  function checkSecret(string calldata attempt, bytes32 salt) external view returns (bool) {... */\n    tag_8:\n        /* \"E/Exposure/Off-Chain or Hashed References.sol\":541:545  bool */\n      0x00\n        /* \"E/Exposure/Off-Chain or Hashed References.sol\":660:673  bytes32 check */\n      dup1\n        /* \"E/Exposure/Off-Chain or Hashed References.sol\":703:710  attempt */\n      dup5\n      dup5\n        /* \"E/Exposure/Off-Chain or Hashed References.sol\":712:716  salt */\n      dup5\n        /* \"E/Exposure/Off-Chain or Hashed References.sol\":686:717  abi.encodePacked(attempt, salt) */\n      add(0x20, mload(0x40))\n      tag_16\n      swap4\n      swap3\n      swap2\n      swap1\n      tag_17\n      jump\t// in\n    tag_16:\n      mload(0x40)\n      0x20\n      dup2\n      dup4\n      sub\n      sub\n      dup2\n      mstore\n      swap1\n      0x40\n      mstore\n        /* \"E/Exposure/Off-Chain or Hashed References.sol\":676:718  keccak256(abi.encodePacked(attempt, salt)) */\n      dup1\n      mload\n      swap1\n      0x20\n      add\n      keccak256\n        /* \"E/Exposure/Off-Chain or Hashed References.sol\":660:718  bytes32 check = keccak256(abi.encodePacked(attempt, salt)) */\n      swap1\n      pop\n        /* \"E/Exposure/Off-Chain or Hashed References.sol\":745:757  hashedSecret */\n      sload(0x00)\n        /* \"E/Exposure/Off-Chain or Hashed References.sol\":736:741  check */\n      dup2\n        /* \"E/Exposure/Off-Chain or Hashed References.sol\":736:757  check == hashedSecret */\n      eq\n        /* \"E/Exposure/Off-Chain or Hashed References.sol\":728:758  return (check == hashedSecret) */\n      swap2\n      pop\n      pop\n        /* \"E/Exposure/Off-Chain or Hashed References.sol\":458:765  function checkSecret(string calldata attempt, bytes32 salt) external view returns (bool) {... */\n      swap4\n      swap3\n      pop\n      pop\n      pop\n      jump\t// out\n        /* \"E/Exposure/Off-Chain or Hashed References.sol\":323:350  bytes32 public hashedSecret */\n    tag_12:\n      sload(0x00)\n      dup2\n      jump\t// out\n        /* \"#utility.yul\":88:205   */\n    tag_19:\n        /* \"#utility.yul\":197:198   */\n      0x00\n        /* \"#utility.yul\":194:195   */\n      dup1\n        /* \"#utility.yul\":187:199   */\n      revert\n        /* \"#utility.yul\":211:328   */\n    tag_20:\n        /* \"#utility.yul\":320:321   */\n      0x00\n        /* \"#utility.yul\":317:318   */\n      dup1\n        /* \"#utility.yul\":310:322   */\n      revert\n        /* \"#utility.yul\":334:451   */\n    tag_21:\n        /* \"#utility.yul\":443:444   */\n      0x00\n        /* \"#utility.yul\":440:441   */\n      dup1\n        /* \"#utility.yul\":433:445   */\n      revert\n        /* \"#utility.yul\":457:574   */\n    tag_22:\n        /* \"#utility.yul\":566:567   */\n      0x00\n        /* \"#utility.yul\":563:564   */\n      dup1\n        /* \"#utility.yul\":556:568   */\n      revert\n        /* \"#utility.yul\":580:697   */\n    tag_23:\n        /* \"#utility.yul\":689:690   */\n      0x00\n        /* \"#utility.yul\":686:687   */\n      dup1\n        /* \"#utility.yul\":679:691   */\n      revert\n        /* \"#utility.yul\":717:1270   */\n    tag_24:\n        /* \"#utility.yul\":775:783   */\n      0x00\n        /* \"#utility.yul\":785:791   */\n      dup1\n        /* \"#utility.yul\":835:838   */\n      dup4\n        /* \"#utility.yul\":828:832   */\n      0x1f\n        /* \"#utility.yul\":820:826   */\n      dup5\n        /* \"#utility.yul\":816:833   */\n      add\n        /* \"#utility.yul\":812:839   */\n      slt\n        /* \"#utility.yul\":802:924   */\n      tag_44\n      jumpi\n        /* \"#utility.yul\":843:922   */\n      tag_45\n      tag_21\n      jump\t// in\n    tag_45:\n        /* \"#utility.yul\":802:924   */\n    tag_44:\n        /* \"#utility.yul\":956:962   */\n      dup3\n        /* \"#utility.yul\":943:963   */\n      calldataload\n        /* \"#utility.yul\":933:963   */\n      swap1\n      pop\n        /* \"#utility.yul\":986:1004   */\n      0xffffffffffffffff\n        /* \"#utility.yul\":978:984   */\n      dup2\n        /* \"#utility.yul\":975:1005   */\n      gt\n        /* \"#utility.yul\":972:1089   */\n      iszero\n      tag_46\n      jumpi\n        /* \"#utility.yul\":1008:1087   */\n      tag_47\n      tag_22\n      jump\t// in\n    tag_47:\n        /* \"#utility.yul\":972:1089   */\n    tag_46:\n        /* \"#utility.yul\":1122:1126   */\n      0x20\n        /* \"#utility.yul\":1114:1120   */\n      dup4\n        /* \"#utility.yul\":1110:1127   */\n      add\n        /* \"#utility.yul\":1098:1127   */\n      swap2\n      pop\n        /* \"#utility.yul\":1176:1179   */\n      dup4\n        /* \"#utility.yul\":1168:1172   */\n      0x01\n        /* \"#utility.yul\":1160:1166   */\n      dup3\n        /* \"#utility.yul\":1156:1173   */\n      mul\n        /* \"#utility.yul\":1146:1154   */\n      dup4\n        /* \"#utility.yul\":1142:1174   */\n      add\n        /* \"#utility.yul\":1139:1180   */\n      gt\n        /* \"#utility.yul\":1136:1264   */\n      iszero\n      tag_48\n      jumpi\n        /* \"#utility.yul\":1183:1262   */\n      tag_49\n      tag_23\n      jump\t// in\n    tag_49:\n        /* \"#utility.yul\":1136:1264   */\n    tag_48:\n        /* \"#utility.yul\":717:1270   */\n      swap3\n      pop\n      swap3\n      swap1\n      pop\n      jump\t// out\n        /* \"#utility.yul\":1276:1353   */\n    tag_25:\n        /* \"#utility.yul\":1313:1320   */\n      0x00\n        /* \"#utility.yul\":1342:1347   */\n      dup2\n        /* \"#utility.yul\":1331:1347   */\n      swap1\n      pop\n        /* \"#utility.yul\":1276:1353   */\n      swap2\n      swap1\n      pop\n      jump\t// out\n        /* \"#utility.yul\":1359:1481   */\n    tag_26:\n        /* \"#utility.yul\":1432:1456   */\n      tag_52\n        /* \"#utility.yul\":1450:1455   */\n      dup2\n        /* \"#utility.yul\":1432:1456   */\n      tag_25\n      jump\t// in\n    tag_52:\n        /* \"#utility.yul\":1425:1430   */\n      dup2\n        /* \"#utility.yul\":1422:1457   */\n      eq\n        /* \"#utility.yul\":1412:1475   */\n      tag_53\n      jumpi\n        /* \"#utility.yul\":1471:1472   */\n      0x00\n        /* \"#utility.yul\":1468:1469   */\n      dup1\n        /* \"#utility.yul\":1461:1473   */\n      revert\n        /* \"#utility.yul\":1412:1475   */\n    tag_53:\n        /* \"#utility.yul\":1359:1481   */\n      pop\n      jump\t// out\n        /* \"#utility.yul\":1487:1626   */\n    tag_27:\n        /* \"#utility.yul\":1533:1538   */\n      0x00\n        /* \"#utility.yul\":1571:1577   */\n      dup2\n        /* \"#utility.yul\":1558:1578   */\n      calldataload\n        /* \"#utility.yul\":1549:1578   */\n      swap1\n      pop\n        /* \"#utility.yul\":1587:1620   */\n      tag_55\n        /* \"#utility.yul\":1614:1619   */\n      dup2\n        /* \"#utility.yul\":1587:1620   */\n      tag_26\n      jump\t// in\n    tag_55:\n        /* \"#utility.yul\":1487:1626   */\n      swap3\n      swap2\n      pop\n      pop\n      jump\t// out\n        /* \"#utility.yul\":1632:2306   */\n    tag_7:\n        /* \"#utility.yul\":1712:1718   */\n      0x00\n        /* \"#utility.yul\":1720:1726   */\n      dup1\n        /* \"#utility.yul\":1728:1734   */\n      0x00\n        /* \"#utility.yul\":1777:1779   */\n      0x40\n        /* \"#utility.yul\":1765:1774   */\n      dup5\n        /* \"#utility.yul\":1756:1763   */\n      dup7\n        /* \"#utility.yul\":1752:1775   */\n      sub\n        /* \"#utility.yul\":1748:1780   */\n      slt\n        /* \"#utility.yul\":1745:1864   */\n      iszero\n      tag_57\n      jumpi\n        /* \"#utility.yul\":1783:1862   */\n      tag_58\n      tag_19\n      jump\t// in\n    tag_58:\n        /* \"#utility.yul\":1745:1864   */\n    tag_57:\n        /* \"#utility.yul\":1931:1932   */\n      0x00\n        /* \"#utility.yul\":1920:1929   */\n      dup5\n        /* \"#utility.yul\":1916:1933   */\n      add\n        /* \"#utility.yul\":1903:1934   */\n      calldataload\n        /* \"#utility.yul\":1961:1979   */\n      0xffffffffffffffff\n        /* \"#utility.yul\":1953:1959   */\n      dup2\n        /* \"#utility.yul\":1950:1980   */\n      gt\n        /* \"#utility.yul\":1947:2064   */\n      iszero\n      tag_59\n      jumpi\n        /* \"#utility.yul\":1983:2062   */\n      tag_60\n      tag_20\n      jump\t// in\n    tag_60:\n        /* \"#utility.yul\":1947:2064   */\n    tag_59:\n        /* \"#utility.yul\":2096:2161   */\n      tag_61\n        /* \"#utility.yul\":2153:2160   */\n      dup7\n        /* \"#utility.yul\":2144:2150   */\n      dup3\n        /* \"#utility.yul\":2133:2142   */\n      dup8\n        /* \"#utility.yul\":2129:2151   */\n      add\n        /* \"#utility.yul\":2096:2161   */\n      tag_24\n      jump\t// in\n    tag_61:\n        /* \"#utility.yul\":2078:2161   */\n      swap4\n      pop\n      swap4\n      pop\n        /* \"#utility.yul\":1874:2171   */\n      pop\n        /* \"#utility.yul\":2210:2212   */\n      0x20\n        /* \"#utility.yul\":2236:2289   */\n      tag_62\n        /* \"#utility.yul\":2281:2288   */\n      dup7\n        /* \"#utility.yul\":2272:2278   */\n      dup3\n        /* \"#utility.yul\":2261:2270   */\n      dup8\n        /* \"#utility.yul\":2257:2279   */\n      add\n        /* \"#utility.yul\":2236:2289   */\n      tag_27\n      jump\t// in\n    tag_62:\n        /* \"#utility.yul\":2226:2289   */\n      swap2\n      pop\n        /* \"#utility.yul\":2181:2299   */\n      pop\n        /* \"#utility.yul\":1632:2306   */\n      swap3\n      pop\n      swap3\n      pop\n      swap3\n      jump\t// out\n        /* \"#utility.yul\":2312:2402   */\n    tag_28:\n        /* \"#utility.yul\":2346:2353   */\n      0x00\n        /* \"#utility.yul\":2389:2394   */\n      dup2\n        /* \"#utility.yul\":2382:2395   */\n      iszero\n        /* \"#utility.yul\":2375:2396   */\n      iszero\n        /* \"#utility.yul\":2364:2396   */\n      swap1\n      pop\n        /* \"#utility.yul\":2312:2402   */\n      swap2\n      swap1\n      pop\n      jump\t// out\n        /* \"#utility.yul\":2408:2517   */\n    tag_29:\n        /* \"#utility.yul\":2489:2510   */\n      tag_65\n        /* \"#utility.yul\":2504:2509   */\n      dup2\n        /* \"#utility.yul\":2489:2510   */\n      tag_28\n      jump\t// in\n    tag_65:\n        /* \"#utility.yul\":2484:2487   */\n      dup3\n        /* \"#utility.yul\":2477:2511   */\n      mstore\n        /* \"#utility.yul\":2408:2517   */\n      pop\n      pop\n      jump\t// out\n        /* \"#utility.yul\":2523:2733   */\n    tag_10:\n        /* \"#utility.yul\":2610:2614   */\n      0x00\n        /* \"#utility.yul\":2648:2650   */\n      0x20\n        /* \"#utility.yul\":2637:2646   */\n      dup3\n        /* \"#utility.yul\":2633:2651   */\n      add\n        /* \"#utility.yul\":2625:2651   */\n      swap1\n      pop\n        /* \"#utility.yul\":2661:2726   */\n      tag_67\n        /* \"#utility.yul\":2723:2724   */\n      0x00\n        /* \"#utility.yul\":2712:2721   */\n      dup4\n        /* \"#utility.yul\":2708:2725   */\n      add\n        /* \"#utility.yul\":2699:2705   */\n      dup5\n        /* \"#utility.yul\":2661:2726   */\n      tag_29\n      jump\t// in\n    tag_67:\n        /* \"#utility.yul\":2523:2733   */\n      swap3\n      swap2\n      pop\n      pop\n      jump\t// out\n        /* \"#utility.yul\":2739:2857   */\n    tag_30:\n        /* \"#utility.yul\":2826:2850   */\n      tag_69\n        /* \"#utility.yul\":2844:2849   */\n      dup2\n        /* \"#utility.yul\":2826:2850   */\n      tag_25\n      jump\t// in\n    tag_69:\n        /* \"#utility.yul\":2821:2824   */\n      dup3\n        /* \"#utility.yul\":2814:2851   */\n      mstore\n        /* \"#utility.yul\":2739:2857   */\n      pop\n      pop\n      jump\t// out\n        /* \"#utility.yul\":2863:3085   */\n    tag_14:\n        /* \"#utility.yul\":2956:2960   */\n      0x00\n        /* \"#utility.yul\":2994:2996   */\n      0x20\n        /* \"#utility.yul\":2983:2992   */\n      dup3\n        /* \"#utility.yul\":2979:2997   */\n      add\n        /* \"#utility.yul\":2971:2997   */\n      swap1\n      pop\n        /* \"#utility.yul\":3007:3078   */\n      tag_71\n        /* \"#utility.yul\":3075:3076   */\n      0x00\n        /* \"#utility.yul\":3064:3073   */\n      dup4\n        /* \"#utility.yul\":3060:3077   */\n      add\n        /* \"#utility.yul\":3051:3057   */\n      dup5\n        /* \"#utility.yul\":3007:3078   */\n      tag_30\n      jump\t// in\n    tag_71:\n        /* \"#utility.yul\":2863:3085   */\n      swap3\n      swap2\n      pop\n      pop\n      jump\t// out\n        /* \"#utility.yul\":3091:3239   */\n    tag_31:\n        /* \"#utility.yul\":3193:3204   */\n      0x00\n        /* \"#utility.yul\":3230:3233   */\n      dup2\n        /* \"#utility.yul\":3215:3233   */\n      swap1\n      pop\n        /* \"#utility.yul\":3091:3239   */\n      swap3\n      swap2\n      pop\n      pop\n      jump\t// out\n        /* \"#utility.yul\":3245:3393   */\n    tag_32:\n        /* \"#utility.yul\":3343:3349   */\n      dup3\n        /* \"#utility.yul\":3338:3341   */\n      dup2\n        /* \"#utility.yul\":3333:3336   */\n      dup4\n        /* \"#utility.yul\":3320:3350   */\n      calldatacopy\n        /* \"#utility.yul\":3384:3385   */\n      0x00\n        /* \"#utility.yul\":3375:3381   */\n      dup4\n        /* \"#utility.yul\":3370:3373   */\n      dup4\n        /* \"#utility.yul\":3366:3382   */\n      add\n        /* \"#utility.yul\":3359:3386   */\n      mstore\n        /* \"#utility.yul\":3245:3393   */\n      pop\n      pop\n      pop\n      jump\t// out\n        /* \"#utility.yul\":3423:3753   */\n    tag_33:\n        /* \"#utility.yul\":3539:3542   */\n      0x00\n        /* \"#utility.yul\":3560:3649   */\n      tag_75\n        /* \"#utility.yul\":3642:3648   */\n      dup4\n        /* \"#utility.yul\":3637:3640   */\n      dup6\n        /* \"#utility.yul\":3560:3649   */\n      tag_31\n      jump\t// in\n    tag_75:\n        /* \"#utility.yul\":3553:3649   */\n      swap4\n      pop\n        /* \"#utility.yul\":3659:3715   */\n      tag_76\n        /* \"#utility.yul\":3708:3714   */\n      dup4\n        /* \"#utility.yul\":3703:3706   */\n      dup6\n        /* \"#utility.yul\":3696:3701   */\n      dup5\n        /* \"#utility.yul\":3659:3715   */\n      tag_32\n      jump\t// in\n    tag_76:\n        /* \"#utility.yul\":3740:3746   */\n      dup3\n        /* \"#utility.yul\":3735:3738   */\n      dup5\n        /* \"#utility.yul\":3731:3747   */\n      add\n        /* \"#utility.yul\":3724:3747   */\n      swap1\n      pop\n        /* \"#utility.yul\":3423:3753   */\n      swap4\n      swap3\n      pop\n      pop\n      pop\n      jump\t// out\n        /* \"#utility.yul\":3759:3838   */\n    tag_34:\n        /* \"#utility.yul\":3798:3805   */\n      0x00\n        /* \"#utility.yul\":3827:3832   */\n      dup2\n        /* \"#utility.yul\":3816:3832   */\n      swap1\n      pop\n        /* \"#utility.yul\":3759:3838   */\n      swap2\n      swap1\n      pop\n      jump\t// out\n        /* \"#utility.yul\":3844:4001   */\n    tag_35:\n        /* \"#utility.yul\":3949:3994   */\n      tag_79\n        /* \"#utility.yul\":3969:3993   */\n      tag_80\n        /* \"#utility.yul\":3987:3992   */\n      dup3\n        /* \"#utility.yul\":3969:3993   */\n      tag_25\n      jump\t// in\n    tag_80:\n        /* \"#utility.yul\":3949:3994   */\n      tag_34\n      jump\t// in\n    tag_79:\n        /* \"#utility.yul\":3944:3947   */\n      dup3\n        /* \"#utility.yul\":3937:3995   */\n      mstore\n        /* \"#utility.yul\":3844:4001   */\n      pop\n      pop\n      jump\t// out\n        /* \"#utility.yul\":4007:4443   */\n    tag_17:\n        /* \"#utility.yul\":4177:4180   */\n      0x00\n        /* \"#utility.yul\":4199:4304   */\n      tag_82\n        /* \"#utility.yul\":4300:4303   */\n      dup3\n        /* \"#utility.yul\":4291:4297   */\n      dup6\n        /* \"#utility.yul\":4283:4289   */\n      dup8\n        /* \"#utility.yul\":4199:4304   */\n      tag_33\n      jump\t// in\n    tag_82:\n        /* \"#utility.yul\":4192:4304   */\n      swap2\n      pop\n        /* \"#utility.yul\":4314:4389   */\n      tag_83\n        /* \"#utility.yul\":4385:4388   */\n      dup3\n        /* \"#utility.yul\":4376:4382   */\n      dup5\n        /* \"#utility.yul\":4314:4389   */\n      tag_35\n      jump\t// in\n    tag_83:\n        /* \"#utility.yul\":4414:4416   */\n      0x20\n        /* \"#utility.yul\":4409:4412   */\n      dup3\n        /* \"#utility.yul\":4405:4417   */\n      add\n        /* \"#utility.yul\":4398:4417   */\n      swap2\n      pop\n        /* \"#utility.yul\":4434:4437   */\n      dup2\n        /* \"#utility.yul\":4427:4437   */\n      swap1\n      pop\n        /* \"#utility.yul\":4007:4443   */\n      swap5\n      swap4\n      pop\n      pop\n      pop\n      pop\n      jump\t// out\n\n    auxdata: 0xa2646970667358221220ab65f4bf76914924f76f6fda3f0d5684e59b733c0c0ad12e5175a17a2935515764736f6c634300081a0033\n}\n",
				"bytecode": {
					"linkReferences": {},
					"object": "6080604052348015600e575f80fd5b506040516103753803806103758339818101604052810190602e9190606b565b805f81905550506091565b5f80fd5b5f819050919050565b604d81603d565b81146056575f80fd5b50565b5f815190506065816046565b92915050565b5f60208284031215607d57607c6039565b5b5f6088848285016059565b91505092915050565b6102d78061009e5f395ff3fe608060405234801561000f575f80fd5b5060043610610034575f3560e01c8063428bbf09146100385780635752c91014610068575b5f80fd5b610052600480360381019061004d9190610164565b610086565b60405161005f91906101db565b60405180910390f35b6100706100c3565b60405161007d9190610203565b60405180910390f35b5f8084848460405160200161009d93929190610278565b6040516020818303038152906040528051906020012090505f5481149150509392505050565b5f5481565b5f80fd5b5f80fd5b5f80fd5b5f80fd5b5f80fd5b5f8083601f8401126100f1576100f06100d0565b5b8235905067ffffffffffffffff81111561010e5761010d6100d4565b5b60208301915083600182028301111561012a576101296100d8565b5b9250929050565b5f819050919050565b61014381610131565b811461014d575f80fd5b50565b5f8135905061015e8161013a565b92915050565b5f805f6040848603121561017b5761017a6100c8565b5b5f84013567ffffffffffffffff811115610198576101976100cc565b5b6101a4868287016100dc565b935093505060206101b786828701610150565b9150509250925092565b5f8115159050919050565b6101d5816101c1565b82525050565b5f6020820190506101ee5f8301846101cc565b92915050565b6101fd81610131565b82525050565b5f6020820190506102165f8301846101f4565b92915050565b5f81905092915050565b828183375f83830152505050565b5f61023f838561021c565b935061024c838584610226565b82840190509392505050565b5f819050919050565b61027261026d82610131565b610258565b82525050565b5f610284828587610234565b91506102908284610261565b60208201915081905094935050505056fea2646970667358221220ab65f4bf76914924f76f6fda3f0d5684e59b733c0c0ad12e5175a17a2935515764736f6c634300081a0033",
					"opcodes": "PUSH1 0x80 PUSH1 0x40 MSTORE CALLVALUE DUP1 ISZERO PUSH1 0xE JUMPI PUSH0 DUP1 REVERT JUMPDEST POP PUSH1 0x40 MLOAD PUSH2 0x375 CODESIZE SUB DUP1 PUSH2 0x375 DUP4 CODECOPY DUP2 DUP2 ADD PUSH1 0x40 MSTORE DUP2 ADD SWAP1 PUSH1 0x2E SWAP2 SWAP1 PUSH1 0x6B JUMP JUMPDEST DUP1 PUSH0 DUP2 SWAP1 SSTORE POP POP PUSH1 0x91 JUMP JUMPDEST PUSH0 DUP1 REVERT JUMPDEST PUSH0 DUP2 SWAP1 POP SWAP2 SWAP1 POP JUMP JUMPDEST PUSH1 0x4D DUP2 PUSH1 0x3D JUMP JUMPDEST DUP2 EQ PUSH1 0x56 JUMPI PUSH0 DUP1 REVERT JUMPDEST POP JUMP JUMPDEST PUSH0 DUP2 MLOAD SWAP1 POP PUSH1 0x65 DUP2 PUSH1 0x46 JUMP JUMPDEST SWAP3 SWAP2 POP POP JUMP JUMPDEST PUSH0 PUSH1 0x20 DUP3 DUP5 SUB SLT ISZERO PUSH1 0x7D JUMPI PUSH1 0x7C PUSH1 0x39 JUMP JUMPDEST JUMPDEST PUSH0 PUSH1 0x88 DUP5 DUP3 DUP6 ADD PUSH1 0x59 JUMP JUMPDEST SWAP2 POP POP SWAP3 SWAP2 POP POP JUMP JUMPDEST PUSH2 0x2D7 DUP1 PUSH2 0x9E PUSH0 CODECOPY PUSH0 RETURN INVALID PUSH1 0x80 PUSH1 0x40 MSTORE CALLVALUE DUP1 ISZERO PUSH2 0xF JUMPI PUSH0 DUP1 REVERT JUMPDEST POP PUSH1 0x4 CALLDATASIZE LT PUSH2 0x34 JUMPI PUSH0 CALLDATALOAD PUSH1 0xE0 SHR DUP1 PUSH4 0x428BBF09 EQ PUSH2 0x38 JUMPI DUP1 PUSH4 0x5752C910 EQ PUSH2 0x68 JUMPI JUMPDEST PUSH0 DUP1 REVERT JUMPDEST PUSH2 0x52 PUSH1 0x4 DUP1 CALLDATASIZE SUB DUP2 ADD SWAP1 PUSH2 0x4D SWAP2 SWAP1 PUSH2 0x164 JUMP JUMPDEST PUSH2 0x86 JUMP JUMPDEST PUSH1 0x40 MLOAD PUSH2 0x5F SWAP2 SWAP1 PUSH2 0x1DB JUMP JUMPDEST PUSH1 0x40 MLOAD DUP1 SWAP2 SUB SWAP1 RETURN JUMPDEST PUSH2 0x70 PUSH2 0xC3 JUMP JUMPDEST PUSH1 0x40 MLOAD PUSH2 0x7D SWAP2 SWAP1 PUSH2 0x203 JUMP JUMPDEST PUSH1 0x40 MLOAD DUP1 SWAP2 SUB SWAP1 RETURN JUMPDEST PUSH0 DUP1 DUP5 DUP5 DUP5 PUSH1 0x40 MLOAD PUSH1 0x20 ADD PUSH2 0x9D SWAP4 SWAP3 SWAP2 SWAP1 PUSH2 0x278 JUMP JUMPDEST PUSH1 0x40 MLOAD PUSH1 0x20 DUP2 DUP4 SUB SUB DUP2 MSTORE SWAP1 PUSH1 0x40 MSTORE DUP1 MLOAD SWAP1 PUSH1 0x20 ADD KECCAK256 SWAP1 POP PUSH0 SLOAD DUP2 EQ SWAP2 POP POP SWAP4 SWAP3 POP POP POP JUMP JUMPDEST PUSH0 SLOAD DUP2 JUMP JUMPDEST PUSH0 DUP1 REVERT JUMPDEST PUSH0 DUP1 REVERT JUMPDEST PUSH0 DUP1 REVERT JUMPDEST PUSH0 DUP1 REVERT JUMPDEST PUSH0 DUP1 REVERT JUMPDEST PUSH0 DUP1 DUP4 PUSH1 0x1F DUP5 ADD SLT PUSH2 0xF1 JUMPI PUSH2 0xF0 PUSH2 0xD0 JUMP JUMPDEST JUMPDEST DUP3 CALLDATALOAD SWAP1 POP PUSH8 0xFFFFFFFFFFFFFFFF DUP2 GT ISZERO PUSH2 0x10E JUMPI PUSH2 0x10D PUSH2 0xD4 JUMP JUMPDEST JUMPDEST PUSH1 0x20 DUP4 ADD SWAP2 POP DUP4 PUSH1 0x1 DUP3 MUL DUP4 ADD GT ISZERO PUSH2 0x12A JUMPI PUSH2 0x129 PUSH2 0xD8 JUMP JUMPDEST JUMPDEST SWAP3 POP SWAP3 SWAP1 POP JUMP JUMPDEST PUSH0 DUP2 SWAP1 POP SWAP2 SWAP1 POP JUMP JUMPDEST PUSH2 0x143 DUP2 PUSH2 0x131 JUMP JUMPDEST DUP2 EQ PUSH2 0x14D JUMPI PUSH0 DUP1 REVERT JUMPDEST POP JUMP JUMPDEST PUSH0 DUP2 CALLDATALOAD SWAP1 POP PUSH2 0x15E DUP2 PUSH2 0x13A JUMP JUMPDEST SWAP3 SWAP2 POP POP JUMP JUMPDEST PUSH0 DUP1 PUSH0 PUSH1 0x40 DUP5 DUP7 SUB SLT ISZERO PUSH2 0x17B JUMPI PUSH2 0x17A PUSH2 0xC8 JUMP JUMPDEST JUMPDEST PUSH0 DUP5 ADD CALLDATALOAD PUSH8 0xFFFFFFFFFFFFFFFF DUP2 GT ISZERO PUSH2 0x198 JUMPI PUSH2 0x197 PUSH2 0xCC JUMP JUMPDEST JUMPDEST PUSH2 0x1A4 DUP7 DUP3 DUP8 ADD PUSH2 0xDC JUMP JUMPDEST SWAP4 POP SWAP4 POP POP PUSH1 0x20 PUSH2 0x1B7 DUP7 DUP3 DUP8 ADD PUSH2 0x150 JUMP JUMPDEST SWAP2 POP POP SWAP3 POP SWAP3 POP SWAP3 JUMP JUMPDEST PUSH0 DUP2 ISZERO ISZERO SWAP1 POP SWAP2 SWAP1 POP JUMP JUMPDEST PUSH2 0x1D5 DUP2 PUSH2 0x1C1 JUMP JUMPDEST DUP3 MSTORE POP POP JUMP JUMPDEST PUSH0 PUSH1 0x20 DUP3 ADD SWAP1 POP PUSH2 0x1EE PUSH0 DUP4 ADD DUP5 PUSH2 0x1CC JUMP JUMPDEST SWAP3 SWAP2 POP POP JUMP JUMPDEST PUSH2 0x1FD DUP2 PUSH2 0x131 JUMP JUMPDEST DUP3 MSTORE POP POP JUMP JUMPDEST PUSH0 PUSH1 0x20 DUP3 ADD SWAP1 POP PUSH2 0x216 PUSH0 DUP4 ADD DUP5 PUSH2 0x1F4 JUMP JUMPDEST SWAP3 SWAP2 POP POP JUMP JUMPDEST PUSH0 DUP2 SWAP1 POP SWAP3 SWAP2 POP POP JUMP JUMPDEST DUP3 DUP2 DUP4 CALLDATACOPY PUSH0 DUP4 DUP4 ADD MSTORE POP POP POP JUMP JUMPDEST PUSH0 PUSH2 0x23F DUP4 DUP6 PUSH2 0x21C JUMP JUMPDEST SWAP4 POP PUSH2 0x24C DUP4 DUP6 DUP5 PUSH2 0x226 JUMP JUMPDEST DUP3 DUP5 ADD SWAP1 POP SWAP4 SWAP3 POP POP POP JUMP JUMPDEST PUSH0 DUP2 SWAP1 POP SWAP2 SWAP1 POP JUMP JUMPDEST PUSH2 0x272 PUSH2 0x26D DUP3 PUSH2 0x131 JUMP JUMPDEST PUSH2 0x258 JUMP JUMPDEST DUP3 MSTORE POP POP JUMP JUMPDEST PUSH0 PUSH2 0x284 DUP3 DUP6 DUP8 PUSH2 0x234 JUMP JUMPDEST SWAP2 POP PUSH2 0x290 DUP3 DUP5 PUSH2 0x261 JUMP JUMPDEST PUSH1 0x20 DUP3 ADD SWAP2 POP DUP2 SWAP1 POP SWAP5 SWAP4 POP POP POP POP JUMP INVALID LOG2 PUSH5 0x6970667358 0x22 SLT KECCAK256 0xAB PUSH6 0xF4BF76914924 0xF7 PUSH16 0x6FDA3F0D5684E59B733C0C0AD12E5175 LOG1 PUSH27 0x2935515764736F6C634300081A0033000000000000000000000000 "
				},
				"gasEstimates": {
					"creation": {
						"codeDepositCost": "145400",
						"executionCost": "infinite",
						"totalCost": "infinite"
					},
					"external": {
						"checkSecret(string,bytes32)": "infinite",
						"hashedSecret()": "2424"
					}
				},
				"methodIdentifiers": {
					"checkSecret(string,bytes32)": "428bbf09",
					"hashedSecret()": "5752c910"
				}
			},
			"storageLayout": {
				"storage": [
					{
						"astId": 4,
						"contract": "E/Exposure/Off-Chain or Hashed References.sol:HashedSecretReference",
						"label": "hashedSecret",
						"offset": 0,
						"slot": "0",
						"type": "t_bytes32"
					}
				],
				"types": {
					"t_bytes32": {
						"encoding": "inplace",
						"label": "bytes32",
						"numberOfBytes": "32"
					}
				}
			},
			"userdoc": {
				"kind": "user",
				"methods": {},
				"notice": "DEFENSE TYPE: Rather than storing a plaintext secret or key,  we store only a hashed reference (like a commit). Real usage of the secret or key is done off-chain or only revealed selectively via reveal step.",
				"version": 1
			}
		}
	}
}