{
	"D/Data Custodian/Data Custodian.sol": {
		"DataCustodianVuln": {
			"abi": [
				{
					"anonymous": false,
					"inputs": [
						{
							"indexed": true,
							"internalType": "uint256",
							"name": "id",
							"type": "uint256"
						},
						{
							"indexed": false,
							"internalType": "enum DataCustodianAttackType",
							"name": "attack",
							"type": "uint8"
						}
					],
					"name": "RecordDeleted",
					"type": "event"
				},
				{
					"anonymous": false,
					"inputs": [
						{
							"indexed": true,
							"internalType": "uint256",
							"name": "id",
							"type": "uint256"
						},
						{
							"indexed": false,
							"internalType": "enum DataCustodianType",
							"name": "ctype",
							"type": "uint8"
						},
						{
							"indexed": false,
							"internalType": "enum DataCustodianAttackType",
							"name": "attack",
							"type": "uint8"
						}
					],
					"name": "RecordStored",
					"type": "event"
				},
				{
					"inputs": [
						{
							"internalType": "uint256",
							"name": "",
							"type": "uint256"
						}
					],
					"name": "records",
					"outputs": [
						{
							"internalType": "bytes",
							"name": "",
							"type": "bytes"
						}
					],
					"stateMutability": "view",
					"type": "function"
				},
				{
					"inputs": [
						{
							"internalType": "uint256",
							"name": "id",
							"type": "uint256"
						}
					],
					"name": "remove",
					"outputs": [],
					"stateMutability": "nonpayable",
					"type": "function"
				},
				{
					"inputs": [
						{
							"internalType": "uint256",
							"name": "id",
							"type": "uint256"
						},
						{
							"internalType": "bytes",
							"name": "data",
							"type": "bytes"
						}
					],
					"name": "store",
					"outputs": [],
					"stateMutability": "nonpayable",
					"type": "function"
				}
			],
			"devdoc": {
				"kind": "dev",
				"methods": {},
				"version": 1
			},
			"evm": {
				"assembly": "    /* \"D/Data Custodian/Data Custodian.sol\":1331:2077  contract DataCustodianVuln {... */\n  mstore(0x40, 0x80)\n  callvalue\n  dup1\n  iszero\n  tag_1\n  jumpi\n  0x00\n  dup1\n  revert\ntag_1:\n  pop\n  dataSize(sub_0)\n  dup1\n  dataOffset(sub_0)\n  0x00\n  codecopy\n  0x00\n  return\nstop\n\nsub_0: assembly {\n        /* \"D/Data Custodian/Data Custodian.sol\":1331:2077  contract DataCustodianVuln {... */\n      mstore(0x40, 0x80)\n      callvalue\n      dup1\n      iszero\n      tag_1\n      jumpi\n      0x00\n      dup1\n      revert\n    tag_1:\n      pop\n      jumpi(tag_2, lt(calldatasize, 0x04))\n      shr(0xe0, calldataload(0x00))\n      dup1\n      0x34461067\n      eq\n      tag_3\n      jumpi\n      dup1\n      0x4cc82215\n      eq\n      tag_4\n      jumpi\n      dup1\n      0xfededdb5\n      eq\n      tag_5\n      jumpi\n    tag_2:\n      0x00\n      dup1\n      revert\n        /* \"D/Data Custodian/Data Custodian.sol\":1364:1404  mapping(uint256 => bytes) public records */\n    tag_3:\n      tag_6\n      0x04\n      dup1\n      calldatasize\n      sub\n      dup2\n      add\n      swap1\n      tag_7\n      swap2\n      swap1\n      tag_8\n      jump\t// in\n    tag_7:\n      tag_9\n      jump\t// in\n    tag_6:\n      mload(0x40)\n      tag_10\n      swap2\n      swap1\n      tag_11\n      jump\t// in\n    tag_10:\n      mload(0x40)\n      dup1\n      swap2\n      sub\n      swap1\n      return\n        /* \"D/Data Custodian/Data Custodian.sol\":1937:2075  function remove(uint256 id) external {... */\n    tag_4:\n      tag_12\n      0x04\n      dup1\n      calldatasize\n      sub\n      dup2\n      add\n      swap1\n      tag_13\n      swap2\n      swap1\n      tag_8\n      jump\t// in\n    tag_13:\n      tag_14\n      jump\t// in\n    tag_12:\n      stop\n        /* \"D/Data Custodian/Data Custodian.sol\":1704:1889  function store(uint256 id, bytes calldata data) external {... */\n    tag_5:\n      tag_15\n      0x04\n      dup1\n      calldatasize\n      sub\n      dup2\n      add\n      swap1\n      tag_16\n      swap2\n      swap1\n      tag_17\n      jump\t// in\n    tag_16:\n      tag_18\n      jump\t// in\n    tag_15:\n      stop\n        /* \"D/Data Custodian/Data Custodian.sol\":1364:1404  mapping(uint256 => bytes) public records */\n    tag_9:\n      mstore(0x20, 0x00)\n      dup1\n      0x00\n      mstore\n      keccak256(0x00, 0x40)\n      0x00\n      swap2\n      pop\n      swap1\n      pop\n      dup1\n      sload\n      tag_19\n      swap1\n      tag_20\n      jump\t// in\n    tag_19:\n      dup1\n      0x1f\n      add\n      0x20\n      dup1\n      swap2\n      div\n      mul\n      0x20\n      add\n      mload(0x40)\n      swap1\n      dup2\n      add\n      0x40\n      mstore\n      dup1\n      swap3\n      swap2\n      swap1\n      dup2\n      dup2\n      mstore\n      0x20\n      add\n      dup3\n      dup1\n      sload\n      tag_21\n      swap1\n      tag_20\n      jump\t// in\n    tag_21:\n      dup1\n      iszero\n      tag_22\n      jumpi\n      dup1\n      0x1f\n      lt\n      tag_23\n      jumpi\n      0x0100\n      dup1\n      dup4\n      sload\n      div\n      mul\n      dup4\n      mstore\n      swap2\n      0x20\n      add\n      swap2\n      jump(tag_22)\n    tag_23:\n      dup3\n      add\n      swap2\n      swap1\n      0x00\n      mstore\n      keccak256(0x00, 0x20)\n      swap1\n    tag_24:\n      dup2\n      sload\n      dup2\n      mstore\n      swap1\n      0x01\n      add\n      swap1\n      0x20\n      add\n      dup1\n      dup4\n      gt\n      tag_24\n      jumpi\n      dup3\n      swap1\n      sub\n      0x1f\n      and\n      dup3\n      add\n      swap2\n    tag_22:\n      pop\n      pop\n      pop\n      pop\n      pop\n      dup2\n      jump\t// out\n        /* \"D/Data Custodian/Data Custodian.sol\":1937:2075  function remove(uint256 id) external {... */\n    tag_14:\n        /* \"D/Data Custodian/Data Custodian.sol\":1991:1998  records */\n      0x00\n        /* \"D/Data Custodian/Data Custodian.sol\":1991:2002  records[id] */\n      dup1\n        /* \"D/Data Custodian/Data Custodian.sol\":1999:2001  id */\n      dup3\n        /* \"D/Data Custodian/Data Custodian.sol\":1991:2002  records[id] */\n      dup2\n      mstore\n      0x20\n      add\n      swap1\n      dup2\n      mstore\n      0x20\n      add\n      0x00\n      keccak256\n      0x00\n        /* \"D/Data Custodian/Data Custodian.sol\":1984:2002  delete records[id] */\n      tag_26\n      swap2\n      swap1\n      tag_27\n      jump\t// in\n    tag_26:\n        /* \"D/Data Custodian/Data Custodian.sol\":2031:2033  id */\n      dup1\n        /* \"D/Data Custodian/Data Custodian.sol\":2017:2068  RecordDeleted(id, DataCustodianAttackType.Deletion) */\n      0xb25e66b219888ad5f33517fc7929056c03d9e111d04d0ee24f9b8f3ca4385eba\n        /* \"D/Data Custodian/Data Custodian.sol\":2035:2067  DataCustodianAttackType.Deletion */\n      0x02\n        /* \"D/Data Custodian/Data Custodian.sol\":2017:2068  RecordDeleted(id, DataCustodianAttackType.Deletion) */\n      mload(0x40)\n      tag_28\n      swap2\n      swap1\n      tag_29\n      jump\t// in\n    tag_28:\n      mload(0x40)\n      dup1\n      swap2\n      sub\n      swap1\n      log2\n        /* \"D/Data Custodian/Data Custodian.sol\":1937:2075  function remove(uint256 id) external {... */\n      pop\n      jump\t// out\n        /* \"D/Data Custodian/Data Custodian.sol\":1704:1889  function store(uint256 id, bytes calldata data) external {... */\n    tag_18:\n        /* \"D/Data Custodian/Data Custodian.sol\":1785:1789  data */\n      dup2\n      dup2\n        /* \"D/Data Custodian/Data Custodian.sol\":1771:1778  records */\n      0x00\n        /* \"D/Data Custodian/Data Custodian.sol\":1771:1782  records[id] */\n      dup1\n        /* \"D/Data Custodian/Data Custodian.sol\":1779:1781  id */\n      dup7\n        /* \"D/Data Custodian/Data Custodian.sol\":1771:1782  records[id] */\n      dup2\n      mstore\n      0x20\n      add\n      swap1\n      dup2\n      mstore\n      0x20\n      add\n      0x00\n      keccak256\n        /* \"D/Data Custodian/Data Custodian.sol\":1771:1789  records[id] = data */\n      swap2\n      dup3\n      tag_31\n      swap3\n      swap2\n      swap1\n      tag_32\n      jump\t// in\n    tag_31:\n      pop\n        /* \"D/Data Custodian/Data Custodian.sol\":1817:1819  id */\n      dup3\n        /* \"D/Data Custodian/Data Custodian.sol\":1804:1882  RecordStored(id, DataCustodianType.Primary, DataCustodianAttackType.Tampering) */\n      0xf4e9e7049a0e433fe405606d32d51dac4395ff440f2e622dbe0b5f7312b8e7f5\n        /* \"D/Data Custodian/Data Custodian.sol\":1821:1846  DataCustodianType.Primary */\n      0x00\n        /* \"D/Data Custodian/Data Custodian.sol\":1848:1881  DataCustodianAttackType.Tampering */\n      0x01\n        /* \"D/Data Custodian/Data Custodian.sol\":1804:1882  RecordStored(id, DataCustodianType.Primary, DataCustodianAttackType.Tampering) */\n      mload(0x40)\n      tag_33\n      swap3\n      swap2\n      swap1\n      tag_34\n      jump\t// in\n    tag_33:\n      mload(0x40)\n      dup1\n      swap2\n      sub\n      swap1\n      log2\n        /* \"D/Data Custodian/Data Custodian.sol\":1704:1889  function store(uint256 id, bytes calldata data) external {... */\n      pop\n      pop\n      pop\n      jump\t// out\n    tag_27:\n      pop\n      dup1\n      sload\n      tag_35\n      swap1\n      tag_20\n      jump\t// in\n    tag_35:\n      0x00\n      dup3\n      sstore\n      dup1\n      0x1f\n      lt\n      tag_37\n      jumpi\n      pop\n      jump(tag_36)\n    tag_37:\n      0x1f\n      add\n      0x20\n      swap1\n      div\n      swap1\n      0x00\n      mstore\n      keccak256(0x00, 0x20)\n      swap1\n      dup2\n      add\n      swap1\n      tag_38\n      swap2\n      swap1\n      tag_39\n      jump\t// in\n    tag_38:\n    tag_36:\n      pop\n      jump\t// out\n    tag_39:\n    tag_40:\n      dup1\n      dup3\n      gt\n      iszero\n      tag_41\n      jumpi\n      0x00\n      dup2\n      0x00\n      swap1\n      sstore\n      pop\n      0x01\n      add\n      jump(tag_40)\n    tag_41:\n      pop\n      swap1\n      jump\t// out\n        /* \"#utility.yul\":88:205   */\n    tag_43:\n        /* \"#utility.yul\":197:198   */\n      0x00\n        /* \"#utility.yul\":194:195   */\n      dup1\n        /* \"#utility.yul\":187:199   */\n      revert\n        /* \"#utility.yul\":211:328   */\n    tag_44:\n        /* \"#utility.yul\":320:321   */\n      0x00\n        /* \"#utility.yul\":317:318   */\n      dup1\n        /* \"#utility.yul\":310:322   */\n      revert\n        /* \"#utility.yul\":334:411   */\n    tag_45:\n        /* \"#utility.yul\":371:378   */\n      0x00\n        /* \"#utility.yul\":400:405   */\n      dup2\n        /* \"#utility.yul\":389:405   */\n      swap1\n      pop\n        /* \"#utility.yul\":334:411   */\n      swap2\n      swap1\n      pop\n      jump\t// out\n        /* \"#utility.yul\":417:539   */\n    tag_46:\n        /* \"#utility.yul\":490:514   */\n      tag_90\n        /* \"#utility.yul\":508:513   */\n      dup2\n        /* \"#utility.yul\":490:514   */\n      tag_45\n      jump\t// in\n    tag_90:\n        /* \"#utility.yul\":483:488   */\n      dup2\n        /* \"#utility.yul\":480:515   */\n      eq\n        /* \"#utility.yul\":470:533   */\n      tag_91\n      jumpi\n        /* \"#utility.yul\":529:530   */\n      0x00\n        /* \"#utility.yul\":526:527   */\n      dup1\n        /* \"#utility.yul\":519:531   */\n      revert\n        /* \"#utility.yul\":470:533   */\n    tag_91:\n        /* \"#utility.yul\":417:539   */\n      pop\n      jump\t// out\n        /* \"#utility.yul\":545:684   */\n    tag_47:\n        /* \"#utility.yul\":591:596   */\n      0x00\n        /* \"#utility.yul\":629:635   */\n      dup2\n        /* \"#utility.yul\":616:636   */\n      calldataload\n        /* \"#utility.yul\":607:636   */\n      swap1\n      pop\n        /* \"#utility.yul\":645:678   */\n      tag_93\n        /* \"#utility.yul\":672:677   */\n      dup2\n        /* \"#utility.yul\":645:678   */\n      tag_46\n      jump\t// in\n    tag_93:\n        /* \"#utility.yul\":545:684   */\n      swap3\n      swap2\n      pop\n      pop\n      jump\t// out\n        /* \"#utility.yul\":690:1019   */\n    tag_8:\n        /* \"#utility.yul\":749:755   */\n      0x00\n        /* \"#utility.yul\":798:800   */\n      0x20\n        /* \"#utility.yul\":786:795   */\n      dup3\n        /* \"#utility.yul\":777:784   */\n      dup5\n        /* \"#utility.yul\":773:796   */\n      sub\n        /* \"#utility.yul\":769:801   */\n      slt\n        /* \"#utility.yul\":766:885   */\n      iszero\n      tag_95\n      jumpi\n        /* \"#utility.yul\":804:883   */\n      tag_96\n      tag_43\n      jump\t// in\n    tag_96:\n        /* \"#utility.yul\":766:885   */\n    tag_95:\n        /* \"#utility.yul\":924:925   */\n      0x00\n        /* \"#utility.yul\":949:1002   */\n      tag_97\n        /* \"#utility.yul\":994:1001   */\n      dup5\n        /* \"#utility.yul\":985:991   */\n      dup3\n        /* \"#utility.yul\":974:983   */\n      dup6\n        /* \"#utility.yul\":970:992   */\n      add\n        /* \"#utility.yul\":949:1002   */\n      tag_47\n      jump\t// in\n    tag_97:\n        /* \"#utility.yul\":939:1002   */\n      swap2\n      pop\n        /* \"#utility.yul\":895:1012   */\n      pop\n        /* \"#utility.yul\":690:1019   */\n      swap3\n      swap2\n      pop\n      pop\n      jump\t// out\n        /* \"#utility.yul\":1025:1123   */\n    tag_48:\n        /* \"#utility.yul\":1076:1082   */\n      0x00\n        /* \"#utility.yul\":1110:1115   */\n      dup2\n        /* \"#utility.yul\":1104:1116   */\n      mload\n        /* \"#utility.yul\":1094:1116   */\n      swap1\n      pop\n        /* \"#utility.yul\":1025:1123   */\n      swap2\n      swap1\n      pop\n      jump\t// out\n        /* \"#utility.yul\":1129:1297   */\n    tag_49:\n        /* \"#utility.yul\":1212:1223   */\n      0x00\n        /* \"#utility.yul\":1246:1252   */\n      dup3\n        /* \"#utility.yul\":1241:1244   */\n      dup3\n        /* \"#utility.yul\":1234:1253   */\n      mstore\n        /* \"#utility.yul\":1286:1290   */\n      0x20\n        /* \"#utility.yul\":1281:1284   */\n      dup3\n        /* \"#utility.yul\":1277:1291   */\n      add\n        /* \"#utility.yul\":1262:1291   */\n      swap1\n      pop\n        /* \"#utility.yul\":1129:1297   */\n      swap3\n      swap2\n      pop\n      pop\n      jump\t// out\n        /* \"#utility.yul\":1303:1442   */\n    tag_50:\n        /* \"#utility.yul\":1392:1398   */\n      dup3\n        /* \"#utility.yul\":1387:1390   */\n      dup2\n        /* \"#utility.yul\":1382:1385   */\n      dup4\n        /* \"#utility.yul\":1376:1399   */\n      mcopy\n        /* \"#utility.yul\":1433:1434   */\n      0x00\n        /* \"#utility.yul\":1424:1430   */\n      dup4\n        /* \"#utility.yul\":1419:1422   */\n      dup4\n        /* \"#utility.yul\":1415:1431   */\n      add\n        /* \"#utility.yul\":1408:1435   */\n      mstore\n        /* \"#utility.yul\":1303:1442   */\n      pop\n      pop\n      pop\n      jump\t// out\n        /* \"#utility.yul\":1448:1550   */\n    tag_51:\n        /* \"#utility.yul\":1489:1495   */\n      0x00\n        /* \"#utility.yul\":1540:1542   */\n      0x1f\n        /* \"#utility.yul\":1536:1543   */\n      not\n        /* \"#utility.yul\":1531:1533   */\n      0x1f\n        /* \"#utility.yul\":1524:1529   */\n      dup4\n        /* \"#utility.yul\":1520:1534   */\n      add\n        /* \"#utility.yul\":1516:1544   */\n      and\n        /* \"#utility.yul\":1506:1544   */\n      swap1\n      pop\n        /* \"#utility.yul\":1448:1550   */\n      swap2\n      swap1\n      pop\n      jump\t// out\n        /* \"#utility.yul\":1556:1929   */\n    tag_52:\n        /* \"#utility.yul\":1642:1645   */\n      0x00\n        /* \"#utility.yul\":1670:1708   */\n      tag_103\n        /* \"#utility.yul\":1702:1707   */\n      dup3\n        /* \"#utility.yul\":1670:1708   */\n      tag_48\n      jump\t// in\n    tag_103:\n        /* \"#utility.yul\":1724:1794   */\n      tag_104\n        /* \"#utility.yul\":1787:1793   */\n      dup2\n        /* \"#utility.yul\":1782:1785   */\n      dup6\n        /* \"#utility.yul\":1724:1794   */\n      tag_49\n      jump\t// in\n    tag_104:\n        /* \"#utility.yul\":1717:1794   */\n      swap4\n      pop\n        /* \"#utility.yul\":1803:1868   */\n      tag_105\n        /* \"#utility.yul\":1861:1867   */\n      dup2\n        /* \"#utility.yul\":1856:1859   */\n      dup6\n        /* \"#utility.yul\":1849:1853   */\n      0x20\n        /* \"#utility.yul\":1842:1847   */\n      dup7\n        /* \"#utility.yul\":1838:1854   */\n      add\n        /* \"#utility.yul\":1803:1868   */\n      tag_50\n      jump\t// in\n    tag_105:\n        /* \"#utility.yul\":1893:1922   */\n      tag_106\n        /* \"#utility.yul\":1915:1921   */\n      dup2\n        /* \"#utility.yul\":1893:1922   */\n      tag_51\n      jump\t// in\n    tag_106:\n        /* \"#utility.yul\":1888:1891   */\n      dup5\n        /* \"#utility.yul\":1884:1923   */\n      add\n        /* \"#utility.yul\":1877:1923   */\n      swap2\n      pop\n        /* \"#utility.yul\":1646:1929   */\n      pop\n        /* \"#utility.yul\":1556:1929   */\n      swap3\n      swap2\n      pop\n      pop\n      jump\t// out\n        /* \"#utility.yul\":1935:2244   */\n    tag_11:\n        /* \"#utility.yul\":2046:2050   */\n      0x00\n        /* \"#utility.yul\":2084:2086   */\n      0x20\n        /* \"#utility.yul\":2073:2082   */\n      dup3\n        /* \"#utility.yul\":2069:2087   */\n      add\n        /* \"#utility.yul\":2061:2087   */\n      swap1\n      pop\n        /* \"#utility.yul\":2133:2142   */\n      dup2\n        /* \"#utility.yul\":2127:2131   */\n      dup2\n        /* \"#utility.yul\":2123:2143   */\n      sub\n        /* \"#utility.yul\":2119:2120   */\n      0x00\n        /* \"#utility.yul\":2108:2117   */\n      dup4\n        /* \"#utility.yul\":2104:2121   */\n      add\n        /* \"#utility.yul\":2097:2144   */\n      mstore\n        /* \"#utility.yul\":2161:2237   */\n      tag_108\n        /* \"#utility.yul\":2232:2236   */\n      dup2\n        /* \"#utility.yul\":2223:2229   */\n      dup5\n        /* \"#utility.yul\":2161:2237   */\n      tag_52\n      jump\t// in\n    tag_108:\n        /* \"#utility.yul\":2153:2237   */\n      swap1\n      pop\n        /* \"#utility.yul\":1935:2244   */\n      swap3\n      swap2\n      pop\n      pop\n      jump\t// out\n        /* \"#utility.yul\":2250:2367   */\n    tag_53:\n        /* \"#utility.yul\":2359:2360   */\n      0x00\n        /* \"#utility.yul\":2356:2357   */\n      dup1\n        /* \"#utility.yul\":2349:2361   */\n      revert\n        /* \"#utility.yul\":2373:2490   */\n    tag_54:\n        /* \"#utility.yul\":2482:2483   */\n      0x00\n        /* \"#utility.yul\":2479:2480   */\n      dup1\n        /* \"#utility.yul\":2472:2484   */\n      revert\n        /* \"#utility.yul\":2496:2613   */\n    tag_55:\n        /* \"#utility.yul\":2605:2606   */\n      0x00\n        /* \"#utility.yul\":2602:2603   */\n      dup1\n        /* \"#utility.yul\":2595:2607   */\n      revert\n        /* \"#utility.yul\":2632:3184   */\n    tag_56:\n        /* \"#utility.yul\":2689:2697   */\n      0x00\n        /* \"#utility.yul\":2699:2705   */\n      dup1\n        /* \"#utility.yul\":2749:2752   */\n      dup4\n        /* \"#utility.yul\":2742:2746   */\n      0x1f\n        /* \"#utility.yul\":2734:2740   */\n      dup5\n        /* \"#utility.yul\":2730:2747   */\n      add\n        /* \"#utility.yul\":2726:2753   */\n      slt\n        /* \"#utility.yul\":2716:2838   */\n      tag_113\n      jumpi\n        /* \"#utility.yul\":2757:2836   */\n      tag_114\n      tag_53\n      jump\t// in\n    tag_114:\n        /* \"#utility.yul\":2716:2838   */\n    tag_113:\n        /* \"#utility.yul\":2870:2876   */\n      dup3\n        /* \"#utility.yul\":2857:2877   */\n      calldataload\n        /* \"#utility.yul\":2847:2877   */\n      swap1\n      pop\n        /* \"#utility.yul\":2900:2918   */\n      0xffffffffffffffff\n        /* \"#utility.yul\":2892:2898   */\n      dup2\n        /* \"#utility.yul\":2889:2919   */\n      gt\n        /* \"#utility.yul\":2886:3003   */\n      iszero\n      tag_115\n      jumpi\n        /* \"#utility.yul\":2922:3001   */\n      tag_116\n      tag_54\n      jump\t// in\n    tag_116:\n        /* \"#utility.yul\":2886:3003   */\n    tag_115:\n        /* \"#utility.yul\":3036:3040   */\n      0x20\n        /* \"#utility.yul\":3028:3034   */\n      dup4\n        /* \"#utility.yul\":3024:3041   */\n      add\n        /* \"#utility.yul\":3012:3041   */\n      swap2\n      pop\n        /* \"#utility.yul\":3090:3093   */\n      dup4\n        /* \"#utility.yul\":3082:3086   */\n      0x01\n        /* \"#utility.yul\":3074:3080   */\n      dup3\n        /* \"#utility.yul\":3070:3087   */\n      mul\n        /* \"#utility.yul\":3060:3068   */\n      dup4\n        /* \"#utility.yul\":3056:3088   */\n      add\n        /* \"#utility.yul\":3053:3094   */\n      gt\n        /* \"#utility.yul\":3050:3178   */\n      iszero\n      tag_117\n      jumpi\n        /* \"#utility.yul\":3097:3176   */\n      tag_118\n      tag_55\n      jump\t// in\n    tag_118:\n        /* \"#utility.yul\":3050:3178   */\n    tag_117:\n        /* \"#utility.yul\":2632:3184   */\n      swap3\n      pop\n      swap3\n      swap1\n      pop\n      jump\t// out\n        /* \"#utility.yul\":3190:3862   */\n    tag_17:\n        /* \"#utility.yul\":3269:3275   */\n      0x00\n        /* \"#utility.yul\":3277:3283   */\n      dup1\n        /* \"#utility.yul\":3285:3291   */\n      0x00\n        /* \"#utility.yul\":3334:3336   */\n      0x40\n        /* \"#utility.yul\":3322:3331   */\n      dup5\n        /* \"#utility.yul\":3313:3320   */\n      dup7\n        /* \"#utility.yul\":3309:3332   */\n      sub\n        /* \"#utility.yul\":3305:3337   */\n      slt\n        /* \"#utility.yul\":3302:3421   */\n      iszero\n      tag_120\n      jumpi\n        /* \"#utility.yul\":3340:3419   */\n      tag_121\n      tag_43\n      jump\t// in\n    tag_121:\n        /* \"#utility.yul\":3302:3421   */\n    tag_120:\n        /* \"#utility.yul\":3460:3461   */\n      0x00\n        /* \"#utility.yul\":3485:3538   */\n      tag_122\n        /* \"#utility.yul\":3530:3537   */\n      dup7\n        /* \"#utility.yul\":3521:3527   */\n      dup3\n        /* \"#utility.yul\":3510:3519   */\n      dup8\n        /* \"#utility.yul\":3506:3528   */\n      add\n        /* \"#utility.yul\":3485:3538   */\n      tag_47\n      jump\t// in\n    tag_122:\n        /* \"#utility.yul\":3475:3538   */\n      swap4\n      pop\n        /* \"#utility.yul\":3431:3548   */\n      pop\n        /* \"#utility.yul\":3615:3617   */\n      0x20\n        /* \"#utility.yul\":3604:3613   */\n      dup5\n        /* \"#utility.yul\":3600:3618   */\n      add\n        /* \"#utility.yul\":3587:3619   */\n      calldataload\n        /* \"#utility.yul\":3646:3664   */\n      0xffffffffffffffff\n        /* \"#utility.yul\":3638:3644   */\n      dup2\n        /* \"#utility.yul\":3635:3665   */\n      gt\n        /* \"#utility.yul\":3632:3749   */\n      iszero\n      tag_123\n      jumpi\n        /* \"#utility.yul\":3668:3747   */\n      tag_124\n      tag_44\n      jump\t// in\n    tag_124:\n        /* \"#utility.yul\":3632:3749   */\n    tag_123:\n        /* \"#utility.yul\":3781:3845   */\n      tag_125\n        /* \"#utility.yul\":3837:3844   */\n      dup7\n        /* \"#utility.yul\":3828:3834   */\n      dup3\n        /* \"#utility.yul\":3817:3826   */\n      dup8\n        /* \"#utility.yul\":3813:3835   */\n      add\n        /* \"#utility.yul\":3781:3845   */\n      tag_56\n      jump\t// in\n    tag_125:\n        /* \"#utility.yul\":3763:3845   */\n      swap3\n      pop\n      swap3\n      pop\n        /* \"#utility.yul\":3558:3855   */\n      pop\n        /* \"#utility.yul\":3190:3862   */\n      swap3\n      pop\n      swap3\n      pop\n      swap3\n      jump\t// out\n        /* \"#utility.yul\":3868:4048   */\n    tag_57:\n        /* \"#utility.yul\":3916:3993   */\n      0x4e487b7100000000000000000000000000000000000000000000000000000000\n        /* \"#utility.yul\":3913:3914   */\n      0x00\n        /* \"#utility.yul\":3906:3994   */\n      mstore\n        /* \"#utility.yul\":4013:4017   */\n      0x22\n        /* \"#utility.yul\":4010:4011   */\n      0x04\n        /* \"#utility.yul\":4003:4018   */\n      mstore\n        /* \"#utility.yul\":4037:4041   */\n      0x24\n        /* \"#utility.yul\":4034:4035   */\n      0x00\n        /* \"#utility.yul\":4027:4042   */\n      revert\n        /* \"#utility.yul\":4054:4374   */\n    tag_20:\n        /* \"#utility.yul\":4098:4104   */\n      0x00\n        /* \"#utility.yul\":4135:4136   */\n      0x02\n        /* \"#utility.yul\":4129:4133   */\n      dup3\n        /* \"#utility.yul\":4125:4137   */\n      div\n        /* \"#utility.yul\":4115:4137   */\n      swap1\n      pop\n        /* \"#utility.yul\":4182:4183   */\n      0x01\n        /* \"#utility.yul\":4176:4180   */\n      dup3\n        /* \"#utility.yul\":4172:4184   */\n      and\n        /* \"#utility.yul\":4203:4221   */\n      dup1\n        /* \"#utility.yul\":4193:4274   */\n      tag_128\n      jumpi\n        /* \"#utility.yul\":4259:4263   */\n      0x7f\n        /* \"#utility.yul\":4251:4257   */\n      dup3\n        /* \"#utility.yul\":4247:4264   */\n      and\n        /* \"#utility.yul\":4237:4264   */\n      swap2\n      pop\n        /* \"#utility.yul\":4193:4274   */\n    tag_128:\n        /* \"#utility.yul\":4321:4323   */\n      0x20\n        /* \"#utility.yul\":4313:4319   */\n      dup3\n        /* \"#utility.yul\":4310:4324   */\n      lt\n        /* \"#utility.yul\":4290:4308   */\n      dup2\n        /* \"#utility.yul\":4287:4325   */\n      sub\n        /* \"#utility.yul\":4284:4368   */\n      tag_129\n      jumpi\n        /* \"#utility.yul\":4340:4358   */\n      tag_130\n      tag_57\n      jump\t// in\n    tag_130:\n        /* \"#utility.yul\":4284:4368   */\n    tag_129:\n        /* \"#utility.yul\":4105:4374   */\n      pop\n        /* \"#utility.yul\":4054:4374   */\n      swap2\n      swap1\n      pop\n      jump\t// out\n        /* \"#utility.yul\":4380:4560   */\n    tag_58:\n        /* \"#utility.yul\":4428:4505   */\n      0x4e487b7100000000000000000000000000000000000000000000000000000000\n        /* \"#utility.yul\":4425:4426   */\n      0x00\n        /* \"#utility.yul\":4418:4506   */\n      mstore\n        /* \"#utility.yul\":4525:4529   */\n      0x21\n        /* \"#utility.yul\":4522:4523   */\n      0x04\n        /* \"#utility.yul\":4515:4530   */\n      mstore\n        /* \"#utility.yul\":4549:4553   */\n      0x24\n        /* \"#utility.yul\":4546:4547   */\n      0x00\n        /* \"#utility.yul\":4539:4554   */\n      revert\n        /* \"#utility.yul\":4566:4697   */\n    tag_59:\n        /* \"#utility.yul\":4665:4666   */\n      0x04\n        /* \"#utility.yul\":4658:4663   */\n      dup2\n        /* \"#utility.yul\":4655:4667   */\n      lt\n        /* \"#utility.yul\":4645:4691   */\n      tag_133\n      jumpi\n        /* \"#utility.yul\":4671:4689   */\n      tag_134\n      tag_58\n      jump\t// in\n    tag_134:\n        /* \"#utility.yul\":4645:4691   */\n    tag_133:\n        /* \"#utility.yul\":4566:4697   */\n      pop\n      jump\t// out\n        /* \"#utility.yul\":4703:4866   */\n    tag_60:\n        /* \"#utility.yul\":4766:4773   */\n      0x00\n        /* \"#utility.yul\":4795:4800   */\n      dup2\n        /* \"#utility.yul\":4784:4800   */\n      swap1\n      pop\n        /* \"#utility.yul\":4801:4860   */\n      tag_136\n        /* \"#utility.yul\":4854:4859   */\n      dup3\n        /* \"#utility.yul\":4801:4860   */\n      tag_59\n      jump\t// in\n    tag_136:\n        /* \"#utility.yul\":4703:4866   */\n      swap2\n      swap1\n      pop\n      jump\t// out\n        /* \"#utility.yul\":4872:5035   */\n    tag_61:\n        /* \"#utility.yul\":4946:4955   */\n      0x00\n        /* \"#utility.yul\":4979:5029   */\n      tag_138\n        /* \"#utility.yul\":5023:5028   */\n      dup3\n        /* \"#utility.yul\":4979:5029   */\n      tag_60\n      jump\t// in\n    tag_138:\n        /* \"#utility.yul\":4966:5029   */\n      swap1\n      pop\n        /* \"#utility.yul\":4872:5035   */\n      swap2\n      swap1\n      pop\n      jump\t// out\n        /* \"#utility.yul\":5041:5220   */\n    tag_62:\n        /* \"#utility.yul\":5152:5213   */\n      tag_140\n        /* \"#utility.yul\":5207:5212   */\n      dup2\n        /* \"#utility.yul\":5152:5213   */\n      tag_61\n      jump\t// in\n    tag_140:\n        /* \"#utility.yul\":5147:5150   */\n      dup3\n        /* \"#utility.yul\":5140:5214   */\n      mstore\n        /* \"#utility.yul\":5041:5220   */\n      pop\n      pop\n      jump\t// out\n        /* \"#utility.yul\":5226:5496   */\n    tag_29:\n        /* \"#utility.yul\":5343:5347   */\n      0x00\n        /* \"#utility.yul\":5381:5383   */\n      0x20\n        /* \"#utility.yul\":5370:5379   */\n      dup3\n        /* \"#utility.yul\":5366:5384   */\n      add\n        /* \"#utility.yul\":5358:5384   */\n      swap1\n      pop\n        /* \"#utility.yul\":5394:5489   */\n      tag_142\n        /* \"#utility.yul\":5486:5487   */\n      0x00\n        /* \"#utility.yul\":5475:5484   */\n      dup4\n        /* \"#utility.yul\":5471:5488   */\n      add\n        /* \"#utility.yul\":5462:5468   */\n      dup5\n        /* \"#utility.yul\":5394:5489   */\n      tag_62\n      jump\t// in\n    tag_142:\n        /* \"#utility.yul\":5226:5496   */\n      swap3\n      swap2\n      pop\n      pop\n      jump\t// out\n        /* \"#utility.yul\":5502:5598   */\n    tag_63:\n        /* \"#utility.yul\":5560:5566   */\n      0x00\n        /* \"#utility.yul\":5588:5591   */\n      dup3\n        /* \"#utility.yul\":5578:5591   */\n      swap1\n      pop\n        /* \"#utility.yul\":5502:5598   */\n      swap3\n      swap2\n      pop\n      pop\n      jump\t// out\n        /* \"#utility.yul\":5604:5784   */\n    tag_64:\n        /* \"#utility.yul\":5652:5729   */\n      0x4e487b7100000000000000000000000000000000000000000000000000000000\n        /* \"#utility.yul\":5649:5650   */\n      0x00\n        /* \"#utility.yul\":5642:5730   */\n      mstore\n        /* \"#utility.yul\":5749:5753   */\n      0x41\n        /* \"#utility.yul\":5746:5747   */\n      0x04\n        /* \"#utility.yul\":5739:5754   */\n      mstore\n        /* \"#utility.yul\":5773:5777   */\n      0x24\n        /* \"#utility.yul\":5770:5771   */\n      0x00\n        /* \"#utility.yul\":5763:5778   */\n      revert\n        /* \"#utility.yul\":5790:5930   */\n    tag_65:\n        /* \"#utility.yul\":5838:5842   */\n      0x00\n        /* \"#utility.yul\":5861:5864   */\n      dup2\n        /* \"#utility.yul\":5853:5864   */\n      swap1\n      pop\n        /* \"#utility.yul\":5884:5887   */\n      dup2\n        /* \"#utility.yul\":5881:5882   */\n      0x00\n        /* \"#utility.yul\":5874:5888   */\n      mstore\n        /* \"#utility.yul\":5918:5922   */\n      0x20\n        /* \"#utility.yul\":5915:5916   */\n      0x00\n        /* \"#utility.yul\":5905:5923   */\n      keccak256\n        /* \"#utility.yul\":5897:5923   */\n      swap1\n      pop\n        /* \"#utility.yul\":5790:5930   */\n      swap2\n      swap1\n      pop\n      jump\t// out\n        /* \"#utility.yul\":5936:6029   */\n    tag_66:\n        /* \"#utility.yul\":5973:5979   */\n      0x00\n        /* \"#utility.yul\":6020:6022   */\n      0x20\n        /* \"#utility.yul\":6015:6017   */\n      0x1f\n        /* \"#utility.yul\":6008:6013   */\n      dup4\n        /* \"#utility.yul\":6004:6018   */\n      add\n        /* \"#utility.yul\":6000:6023   */\n      div\n        /* \"#utility.yul\":5990:6023   */\n      swap1\n      pop\n        /* \"#utility.yul\":5936:6029   */\n      swap2\n      swap1\n      pop\n      jump\t// out\n        /* \"#utility.yul\":6035:6142   */\n    tag_67:\n        /* \"#utility.yul\":6079:6087   */\n      0x00\n        /* \"#utility.yul\":6129:6134   */\n      dup3\n        /* \"#utility.yul\":6123:6127   */\n      dup3\n        /* \"#utility.yul\":6119:6135   */\n      shl\n        /* \"#utility.yul\":6098:6135   */\n      swap1\n      pop\n        /* \"#utility.yul\":6035:6142   */\n      swap3\n      swap2\n      pop\n      pop\n      jump\t// out\n        /* \"#utility.yul\":6148:6541   */\n    tag_68:\n        /* \"#utility.yul\":6217:6223   */\n      0x00\n        /* \"#utility.yul\":6267:6268   */\n      0x08\n        /* \"#utility.yul\":6255:6265   */\n      dup4\n        /* \"#utility.yul\":6251:6269   */\n      mul\n        /* \"#utility.yul\":6290:6387   */\n      tag_149\n        /* \"#utility.yul\":6320:6386   */\n      0xffffffffffffffffffffffffffffffffffffffffffffffffffffffffffffffff\n        /* \"#utility.yul\":6309:6318   */\n      dup3\n        /* \"#utility.yul\":6290:6387   */\n      tag_67\n      jump\t// in\n    tag_149:\n        /* \"#utility.yul\":6408:6447   */\n      tag_150\n        /* \"#utility.yul\":6438:6446   */\n      dup7\n        /* \"#utility.yul\":6427:6436   */\n      dup4\n        /* \"#utility.yul\":6408:6447   */\n      tag_67\n      jump\t// in\n    tag_150:\n        /* \"#utility.yul\":6396:6447   */\n      swap6\n      pop\n        /* \"#utility.yul\":6480:6484   */\n      dup1\n        /* \"#utility.yul\":6476:6485   */\n      not\n        /* \"#utility.yul\":6469:6474   */\n      dup5\n        /* \"#utility.yul\":6465:6486   */\n      and\n        /* \"#utility.yul\":6456:6486   */\n      swap4\n      pop\n        /* \"#utility.yul\":6529:6533   */\n      dup1\n        /* \"#utility.yul\":6519:6527   */\n      dup7\n        /* \"#utility.yul\":6515:6534   */\n      and\n        /* \"#utility.yul\":6508:6513   */\n      dup5\n        /* \"#utility.yul\":6505:6535   */\n      or\n        /* \"#utility.yul\":6495:6535   */\n      swap3\n      pop\n        /* \"#utility.yul\":6224:6541   */\n      pop\n      pop\n        /* \"#utility.yul\":6148:6541   */\n      swap4\n      swap3\n      pop\n      pop\n      pop\n      jump\t// out\n        /* \"#utility.yul\":6547:6607   */\n    tag_69:\n        /* \"#utility.yul\":6575:6578   */\n      0x00\n        /* \"#utility.yul\":6596:6601   */\n      dup2\n        /* \"#utility.yul\":6589:6601   */\n      swap1\n      pop\n        /* \"#utility.yul\":6547:6607   */\n      swap2\n      swap1\n      pop\n      jump\t// out\n        /* \"#utility.yul\":6613:6755   */\n    tag_70:\n        /* \"#utility.yul\":6663:6672   */\n      0x00\n        /* \"#utility.yul\":6696:6749   */\n      tag_153\n        /* \"#utility.yul\":6714:6748   */\n      tag_154\n        /* \"#utility.yul\":6723:6747   */\n      tag_155\n        /* \"#utility.yul\":6741:6746   */\n      dup5\n        /* \"#utility.yul\":6723:6747   */\n      tag_45\n      jump\t// in\n    tag_155:\n        /* \"#utility.yul\":6714:6748   */\n      tag_69\n      jump\t// in\n    tag_154:\n        /* \"#utility.yul\":6696:6749   */\n      tag_45\n      jump\t// in\n    tag_153:\n        /* \"#utility.yul\":6683:6749   */\n      swap1\n      pop\n        /* \"#utility.yul\":6613:6755   */\n      swap2\n      swap1\n      pop\n      jump\t// out\n        /* \"#utility.yul\":6761:6836   */\n    tag_71:\n        /* \"#utility.yul\":6804:6807   */\n      0x00\n        /* \"#utility.yul\":6825:6830   */\n      dup2\n        /* \"#utility.yul\":6818:6830   */\n      swap1\n      pop\n        /* \"#utility.yul\":6761:6836   */\n      swap2\n      swap1\n      pop\n      jump\t// out\n        /* \"#utility.yul\":6842:7111   */\n    tag_72:\n        /* \"#utility.yul\":6952:6991   */\n      tag_158\n        /* \"#utility.yul\":6983:6990   */\n      dup4\n        /* \"#utility.yul\":6952:6991   */\n      tag_70\n      jump\t// in\n    tag_158:\n        /* \"#utility.yul\":7013:7104   */\n      tag_159\n        /* \"#utility.yul\":7062:7103   */\n      tag_160\n        /* \"#utility.yul\":7086:7102   */\n      dup3\n        /* \"#utility.yul\":7062:7103   */\n      tag_71\n      jump\t// in\n    tag_160:\n        /* \"#utility.yul\":7054:7060   */\n      dup5\n        /* \"#utility.yul\":7047:7051   */\n      dup5\n        /* \"#utility.yul\":7041:7052   */\n      sload\n        /* \"#utility.yul\":7013:7104   */\n      tag_68\n      jump\t// in\n    tag_159:\n        /* \"#utility.yul\":7007:7011   */\n      dup3\n        /* \"#utility.yul\":7000:7105   */\n      sstore\n        /* \"#utility.yul\":6918:7111   */\n      pop\n        /* \"#utility.yul\":6842:7111   */\n      pop\n      pop\n      pop\n      jump\t// out\n        /* \"#utility.yul\":7117:7190   */\n    tag_73:\n        /* \"#utility.yul\":7162:7165   */\n      0x00\n        /* \"#utility.yul\":7117:7190   */\n      swap1\n      jump\t// out\n        /* \"#utility.yul\":7196:7385   */\n    tag_74:\n        /* \"#utility.yul\":7273:7305   */\n      tag_163\n      tag_73\n      jump\t// in\n    tag_163:\n        /* \"#utility.yul\":7314:7379   */\n      tag_164\n        /* \"#utility.yul\":7372:7378   */\n      dup2\n        /* \"#utility.yul\":7364:7370   */\n      dup5\n        /* \"#utility.yul\":7358:7362   */\n      dup5\n        /* \"#utility.yul\":7314:7379   */\n      tag_72\n      jump\t// in\n    tag_164:\n        /* \"#utility.yul\":7249:7385   */\n      pop\n        /* \"#utility.yul\":7196:7385   */\n      pop\n      pop\n      jump\t// out\n        /* \"#utility.yul\":7391:7577   */\n    tag_75:\n        /* \"#utility.yul\":7451:7571   */\n    tag_166:\n        /* \"#utility.yul\":7468:7471   */\n      dup2\n        /* \"#utility.yul\":7461:7466   */\n      dup2\n        /* \"#utility.yul\":7458:7472   */\n      lt\n        /* \"#utility.yul\":7451:7571   */\n      iszero\n      tag_168\n      jumpi\n        /* \"#utility.yul\":7522:7561   */\n      tag_169\n        /* \"#utility.yul\":7559:7560   */\n      0x00\n        /* \"#utility.yul\":7552:7557   */\n      dup3\n        /* \"#utility.yul\":7522:7561   */\n      tag_74\n      jump\t// in\n    tag_169:\n        /* \"#utility.yul\":7495:7496   */\n      0x01\n        /* \"#utility.yul\":7488:7493   */\n      dup2\n        /* \"#utility.yul\":7484:7497   */\n      add\n        /* \"#utility.yul\":7475:7497   */\n      swap1\n      pop\n        /* \"#utility.yul\":7451:7571   */\n      jump(tag_166)\n    tag_168:\n        /* \"#utility.yul\":7391:7577   */\n      pop\n      pop\n      jump\t// out\n        /* \"#utility.yul\":7583:8124   */\n    tag_76:\n        /* \"#utility.yul\":7683:7685   */\n      0x1f\n        /* \"#utility.yul\":7678:7681   */\n      dup3\n        /* \"#utility.yul\":7675:7686   */\n      gt\n        /* \"#utility.yul\":7672:8117   */\n      iszero\n      tag_171\n      jumpi\n        /* \"#utility.yul\":7717:7754   */\n      tag_172\n        /* \"#utility.yul\":7748:7753   */\n      dup2\n        /* \"#utility.yul\":7717:7754   */\n      tag_65\n      jump\t// in\n    tag_172:\n        /* \"#utility.yul\":7800:7829   */\n      tag_173\n        /* \"#utility.yul\":7818:7828   */\n      dup5\n        /* \"#utility.yul\":7800:7829   */\n      tag_66\n      jump\t// in\n    tag_173:\n        /* \"#utility.yul\":7790:7798   */\n      dup2\n        /* \"#utility.yul\":7786:7830   */\n      add\n        /* \"#utility.yul\":7983:7985   */\n      0x20\n        /* \"#utility.yul\":7971:7981   */\n      dup6\n        /* \"#utility.yul\":7968:7986   */\n      lt\n        /* \"#utility.yul\":7965:8014   */\n      iszero\n      tag_174\n      jumpi\n        /* \"#utility.yul\":8004:8012   */\n      dup2\n        /* \"#utility.yul\":7989:8012   */\n      swap1\n      pop\n        /* \"#utility.yul\":7965:8014   */\n    tag_174:\n        /* \"#utility.yul\":8027:8107   */\n      tag_175\n        /* \"#utility.yul\":8083:8105   */\n      tag_176\n        /* \"#utility.yul\":8101:8104   */\n      dup6\n        /* \"#utility.yul\":8083:8105   */\n      tag_66\n      jump\t// in\n    tag_176:\n        /* \"#utility.yul\":8073:8081   */\n      dup4\n        /* \"#utility.yul\":8069:8106   */\n      add\n        /* \"#utility.yul\":8056:8067   */\n      dup3\n        /* \"#utility.yul\":8027:8107   */\n      tag_75\n      jump\t// in\n    tag_175:\n        /* \"#utility.yul\":7687:8117   */\n      pop\n      pop\n        /* \"#utility.yul\":7672:8117   */\n    tag_171:\n        /* \"#utility.yul\":7583:8124   */\n      pop\n      pop\n      pop\n      jump\t// out\n        /* \"#utility.yul\":8130:8247   */\n    tag_77:\n        /* \"#utility.yul\":8184:8192   */\n      0x00\n        /* \"#utility.yul\":8234:8239   */\n      dup3\n        /* \"#utility.yul\":8228:8232   */\n      dup3\n        /* \"#utility.yul\":8224:8240   */\n      shr\n        /* \"#utility.yul\":8203:8240   */\n      swap1\n      pop\n        /* \"#utility.yul\":8130:8247   */\n      swap3\n      swap2\n      pop\n      pop\n      jump\t// out\n        /* \"#utility.yul\":8253:8422   */\n    tag_78:\n        /* \"#utility.yul\":8297:8303   */\n      0x00\n        /* \"#utility.yul\":8330:8381   */\n      tag_179\n        /* \"#utility.yul\":8378:8379   */\n      0x00\n        /* \"#utility.yul\":8374:8380   */\n      not\n        /* \"#utility.yul\":8366:8371   */\n      dup5\n        /* \"#utility.yul\":8363:8364   */\n      0x08\n        /* \"#utility.yul\":8359:8372   */\n      mul\n        /* \"#utility.yul\":8330:8381   */\n      tag_77\n      jump\t// in\n    tag_179:\n        /* \"#utility.yul\":8326:8382   */\n      not\n        /* \"#utility.yul\":8411:8415   */\n      dup1\n        /* \"#utility.yul\":8405:8409   */\n      dup4\n        /* \"#utility.yul\":8401:8416   */\n      and\n        /* \"#utility.yul\":8391:8416   */\n      swap2\n      pop\n        /* \"#utility.yul\":8304:8422   */\n      pop\n        /* \"#utility.yul\":8253:8422   */\n      swap3\n      swap2\n      pop\n      pop\n      jump\t// out\n        /* \"#utility.yul\":8427:8722   */\n    tag_79:\n        /* \"#utility.yul\":8503:8507   */\n      0x00\n        /* \"#utility.yul\":8649:8678   */\n      tag_181\n        /* \"#utility.yul\":8674:8677   */\n      dup4\n        /* \"#utility.yul\":8668:8672   */\n      dup4\n        /* \"#utility.yul\":8649:8678   */\n      tag_78\n      jump\t// in\n    tag_181:\n        /* \"#utility.yul\":8641:8678   */\n      swap2\n      pop\n        /* \"#utility.yul\":8711:8714   */\n      dup3\n        /* \"#utility.yul\":8708:8709   */\n      0x02\n        /* \"#utility.yul\":8704:8715   */\n      mul\n        /* \"#utility.yul\":8698:8702   */\n      dup3\n        /* \"#utility.yul\":8695:8716   */\n      or\n        /* \"#utility.yul\":8687:8716   */\n      swap1\n      pop\n        /* \"#utility.yul\":8427:8722   */\n      swap3\n      swap2\n      pop\n      pop\n      jump\t// out\n        /* \"#utility.yul\":8727:10125   */\n    tag_32:\n        /* \"#utility.yul\":8849:8892   */\n      tag_183\n        /* \"#utility.yul\":8888:8891   */\n      dup4\n        /* \"#utility.yul\":8883:8886   */\n      dup4\n        /* \"#utility.yul\":8849:8892   */\n      tag_63\n      jump\t// in\n    tag_183:\n        /* \"#utility.yul\":8957:8975   */\n      0xffffffffffffffff\n        /* \"#utility.yul\":8949:8955   */\n      dup2\n        /* \"#utility.yul\":8946:8976   */\n      gt\n        /* \"#utility.yul\":8943:8999   */\n      iszero\n      tag_184\n      jumpi\n        /* \"#utility.yul\":8979:8997   */\n      tag_185\n      tag_64\n      jump\t// in\n    tag_185:\n        /* \"#utility.yul\":8943:8999   */\n    tag_184:\n        /* \"#utility.yul\":9023:9061   */\n      tag_186\n        /* \"#utility.yul\":9055:9059   */\n      dup3\n        /* \"#utility.yul\":9049:9060   */\n      sload\n        /* \"#utility.yul\":9023:9061   */\n      tag_20\n      jump\t// in\n    tag_186:\n        /* \"#utility.yul\":9108:9174   */\n      tag_187\n        /* \"#utility.yul\":9167:9173   */\n      dup3\n        /* \"#utility.yul\":9159:9165   */\n      dup3\n        /* \"#utility.yul\":9153:9157   */\n      dup6\n        /* \"#utility.yul\":9108:9174   */\n      tag_76\n      jump\t// in\n    tag_187:\n        /* \"#utility.yul\":9201:9202   */\n      0x00\n        /* \"#utility.yul\":9230:9232   */\n      0x1f\n        /* \"#utility.yul\":9222:9228   */\n      dup4\n        /* \"#utility.yul\":9219:9233   */\n      gt\n        /* \"#utility.yul\":9247:9248   */\n      0x01\n        /* \"#utility.yul\":9242:9873   */\n      dup2\n      eq\n      tag_189\n      jumpi\n        /* \"#utility.yul\":9917:9918   */\n      0x00\n        /* \"#utility.yul\":9934:9940   */\n      dup5\n        /* \"#utility.yul\":9931:10015   */\n      iszero\n      tag_190\n      jumpi\n        /* \"#utility.yul\":9990:9999   */\n      dup3\n        /* \"#utility.yul\":9985:9988   */\n      dup8\n        /* \"#utility.yul\":9981:10000   */\n      add\n        /* \"#utility.yul\":9968:10001   */\n      calldataload\n        /* \"#utility.yul\":9959:10001   */\n      swap1\n      pop\n        /* \"#utility.yul\":9931:10015   */\n    tag_190:\n        /* \"#utility.yul\":10041:10108   */\n      tag_191\n        /* \"#utility.yul\":10101:10107   */\n      dup6\n        /* \"#utility.yul\":10094:10099   */\n      dup3\n        /* \"#utility.yul\":10041:10108   */\n      tag_79\n      jump\t// in\n    tag_191:\n        /* \"#utility.yul\":10035:10039   */\n      dup7\n        /* \"#utility.yul\":10028:10109   */\n      sstore\n        /* \"#utility.yul\":9890:10119   */\n      pop\n        /* \"#utility.yul\":9212:10119   */\n      jump(tag_188)\n        /* \"#utility.yul\":9242:9873   */\n    tag_189:\n        /* \"#utility.yul\":9294:9298   */\n      0x1f\n        /* \"#utility.yul\":9290:9299   */\n      not\n        /* \"#utility.yul\":9282:9288   */\n      dup5\n        /* \"#utility.yul\":9278:9300   */\n      and\n        /* \"#utility.yul\":9328:9364   */\n      tag_192\n        /* \"#utility.yul\":9359:9363   */\n      dup7\n        /* \"#utility.yul\":9328:9364   */\n      tag_65\n      jump\t// in\n    tag_192:\n        /* \"#utility.yul\":9386:9387   */\n      0x00\n        /* \"#utility.yul\":9400:9615   */\n    tag_193:\n        /* \"#utility.yul\":9414:9421   */\n      dup3\n        /* \"#utility.yul\":9411:9412   */\n      dup2\n        /* \"#utility.yul\":9408:9422   */\n      lt\n        /* \"#utility.yul\":9400:9615   */\n      iszero\n      tag_195\n      jumpi\n        /* \"#utility.yul\":9500:9509   */\n      dup5\n        /* \"#utility.yul\":9495:9498   */\n      dup10\n        /* \"#utility.yul\":9491:9510   */\n      add\n        /* \"#utility.yul\":9478:9511   */\n      calldataload\n        /* \"#utility.yul\":9470:9476   */\n      dup3\n        /* \"#utility.yul\":9463:9512   */\n      sstore\n        /* \"#utility.yul\":9551:9552   */\n      0x01\n        /* \"#utility.yul\":9543:9549   */\n      dup3\n        /* \"#utility.yul\":9539:9553   */\n      add\n        /* \"#utility.yul\":9529:9553   */\n      swap2\n      pop\n        /* \"#utility.yul\":9598:9600   */\n      0x20\n        /* \"#utility.yul\":9587:9596   */\n      dup6\n        /* \"#utility.yul\":9583:9601   */\n      add\n        /* \"#utility.yul\":9570:9601   */\n      swap5\n      pop\n        /* \"#utility.yul\":9437:9441   */\n      0x20\n        /* \"#utility.yul\":9434:9435   */\n      dup2\n        /* \"#utility.yul\":9430:9442   */\n      add\n        /* \"#utility.yul\":9425:9442   */\n      swap1\n      pop\n        /* \"#utility.yul\":9400:9615   */\n      jump(tag_193)\n    tag_195:\n        /* \"#utility.yul\":9643:9649   */\n      dup7\n        /* \"#utility.yul\":9634:9641   */\n      dup4\n        /* \"#utility.yul\":9631:9650   */\n      lt\n        /* \"#utility.yul\":9628:9814   */\n      iszero\n      tag_196\n      jumpi\n        /* \"#utility.yul\":9708:9717   */\n      dup5\n        /* \"#utility.yul\":9703:9706   */\n      dup10\n        /* \"#utility.yul\":9699:9718   */\n      add\n        /* \"#utility.yul\":9686:9719   */\n      calldataload\n        /* \"#utility.yul\":9751:9799   */\n      tag_197\n        /* \"#utility.yul\":9793:9797   */\n      0x1f\n        /* \"#utility.yul\":9785:9791   */\n      dup10\n        /* \"#utility.yul\":9781:9798   */\n      and\n        /* \"#utility.yul\":9770:9779   */\n      dup3\n        /* \"#utility.yul\":9751:9799   */\n      tag_78\n      jump\t// in\n    tag_197:\n        /* \"#utility.yul\":9743:9749   */\n      dup4\n        /* \"#utility.yul\":9736:9800   */\n      sstore\n        /* \"#utility.yul\":9651:9814   */\n      pop\n        /* \"#utility.yul\":9628:9814   */\n    tag_196:\n        /* \"#utility.yul\":9860:9861   */\n      0x01\n        /* \"#utility.yul\":9856:9857   */\n      0x02\n        /* \"#utility.yul\":9848:9854   */\n      dup9\n        /* \"#utility.yul\":9844:9858   */\n      mul\n        /* \"#utility.yul\":9840:9862   */\n      add\n        /* \"#utility.yul\":9834:9838   */\n      dup9\n        /* \"#utility.yul\":9827:9863   */\n      sstore\n        /* \"#utility.yul\":9249:9873   */\n      pop\n      pop\n      pop\n        /* \"#utility.yul\":9212:10119   */\n    tag_188:\n      pop\n        /* \"#utility.yul\":8824:10125   */\n      pop\n      pop\n      pop\n        /* \"#utility.yul\":8727:10125   */\n      pop\n      pop\n      pop\n      jump\t// out\n        /* \"#utility.yul\":10131:10255   */\n    tag_80:\n        /* \"#utility.yul\":10223:10224   */\n      0x04\n        /* \"#utility.yul\":10216:10221   */\n      dup2\n        /* \"#utility.yul\":10213:10225   */\n      lt\n        /* \"#utility.yul\":10203:10249   */\n      tag_199\n      jumpi\n        /* \"#utility.yul\":10229:10247   */\n      tag_200\n      tag_58\n      jump\t// in\n    tag_200:\n        /* \"#utility.yul\":10203:10249   */\n    tag_199:\n        /* \"#utility.yul\":10131:10255   */\n      pop\n      jump\t// out\n        /* \"#utility.yul\":10261:10410   */\n    tag_81:\n        /* \"#utility.yul\":10317:10324   */\n      0x00\n        /* \"#utility.yul\":10346:10351   */\n      dup2\n        /* \"#utility.yul\":10335:10351   */\n      swap1\n      pop\n        /* \"#utility.yul\":10352:10404   */\n      tag_202\n        /* \"#utility.yul\":10398:10403   */\n      dup3\n        /* \"#utility.yul\":10352:10404   */\n      tag_80\n      jump\t// in\n    tag_202:\n        /* \"#utility.yul\":10261:10410   */\n      swap2\n      swap1\n      pop\n      jump\t// out\n        /* \"#utility.yul\":10416:10565   */\n    tag_82:\n        /* \"#utility.yul\":10483:10492   */\n      0x00\n        /* \"#utility.yul\":10516:10559   */\n      tag_204\n        /* \"#utility.yul\":10553:10558   */\n      dup3\n        /* \"#utility.yul\":10516:10559   */\n      tag_81\n      jump\t// in\n    tag_204:\n        /* \"#utility.yul\":10503:10559   */\n      swap1\n      pop\n        /* \"#utility.yul\":10416:10565   */\n      swap2\n      swap1\n      pop\n      jump\t// out\n        /* \"#utility.yul\":10571:10736   */\n    tag_83:\n        /* \"#utility.yul\":10675:10729   */\n      tag_206\n        /* \"#utility.yul\":10723:10728   */\n      dup2\n        /* \"#utility.yul\":10675:10729   */\n      tag_82\n      jump\t// in\n    tag_206:\n        /* \"#utility.yul\":10670:10673   */\n      dup3\n        /* \"#utility.yul\":10663:10730   */\n      mstore\n        /* \"#utility.yul\":10571:10736   */\n      pop\n      pop\n      jump\t// out\n        /* \"#utility.yul\":10742:11156   */\n    tag_34:\n        /* \"#utility.yul\":10904:10908   */\n      0x00\n        /* \"#utility.yul\":10942:10944   */\n      0x40\n        /* \"#utility.yul\":10931:10940   */\n      dup3\n        /* \"#utility.yul\":10927:10945   */\n      add\n        /* \"#utility.yul\":10919:10945   */\n      swap1\n      pop\n        /* \"#utility.yul\":10955:11043   */\n      tag_208\n        /* \"#utility.yul\":11040:11041   */\n      0x00\n        /* \"#utility.yul\":11029:11038   */\n      dup4\n        /* \"#utility.yul\":11025:11042   */\n      add\n        /* \"#utility.yul\":11016:11022   */\n      dup6\n        /* \"#utility.yul\":10955:11043   */\n      tag_83\n      jump\t// in\n    tag_208:\n        /* \"#utility.yul\":11053:11149   */\n      tag_209\n        /* \"#utility.yul\":11145:11147   */\n      0x20\n        /* \"#utility.yul\":11134:11143   */\n      dup4\n        /* \"#utility.yul\":11130:11148   */\n      add\n        /* \"#utility.yul\":11121:11127   */\n      dup5\n        /* \"#utility.yul\":11053:11149   */\n      tag_62\n      jump\t// in\n    tag_209:\n        /* \"#utility.yul\":10742:11156   */\n      swap4\n      swap3\n      pop\n      pop\n      pop\n      jump\t// out\n\n    auxdata: 0xa26469706673582212204a1c714dcda287b05d2c10575c2a4d993163a3c7288b2bad34c1390908b286fb64736f6c634300081a0033\n}\n",
				"bytecode": {
					"linkReferences": {},
					"object": "6080604052348015600e575f80fd5b506108358061001c5f395ff3fe608060405234801561000f575f80fd5b506004361061003f575f3560e01c806334461067146100435780634cc8221514610073578063fededdb51461008f575b5f80fd5b61005d6004803603810190610058919061028f565b6100ab565b60405161006a919061032a565b60405180910390f35b61008d6004803603810190610088919061028f565b610145565b005b6100a960048036038101906100a491906103ab565b61019c565b005b5f602052805f5260405f205f9150905080546100c690610435565b80601f01602080910402602001604051908101604052809291908181526020018280546100f290610435565b801561013d5780601f106101145761010080835404028352916020019161013d565b820191905f5260205f20905b81548152906001019060200180831161012057829003601f168201915b505050505081565b5f808281526020019081526020015f205f61016091906101fc565b807fb25e66b219888ad5f33517fc7929056c03d9e111d04d0ee24f9b8f3ca4385eba600260405161019191906104d8565b60405180910390a250565b81815f808681526020019081526020015f2091826101bb9291906106c5565b50827ff4e9e7049a0e433fe405606d32d51dac4395ff440f2e622dbe0b5f7312b8e7f55f60016040516101ef9291906107d8565b60405180910390a2505050565b50805461020890610435565b5f825580601f106102195750610236565b601f0160209004905f5260205f20908101906102359190610239565b5b50565b5b80821115610250575f815f90555060010161023a565b5090565b5f80fd5b5f80fd5b5f819050919050565b61026e8161025c565b8114610278575f80fd5b50565b5f8135905061028981610265565b92915050565b5f602082840312156102a4576102a3610254565b5b5f6102b18482850161027b565b91505092915050565b5f81519050919050565b5f82825260208201905092915050565b8281835e5f83830152505050565b5f601f19601f8301169050919050565b5f6102fc826102ba565b61030681856102c4565b93506103168185602086016102d4565b61031f816102e2565b840191505092915050565b5f6020820190508181035f83015261034281846102f2565b905092915050565b5f80fd5b5f80fd5b5f80fd5b5f8083601f84011261036b5761036a61034a565b5b8235905067ffffffffffffffff8111156103885761038761034e565b5b6020830191508360018202830111156103a4576103a3610352565b5b9250929050565b5f805f604084860312156103c2576103c1610254565b5b5f6103cf8682870161027b565b935050602084013567ffffffffffffffff8111156103f0576103ef610258565b5b6103fc86828701610356565b92509250509250925092565b7f4e487b71000000000000000000000000000000000000000000000000000000005f52602260045260245ffd5b5f600282049050600182168061044c57607f821691505b60208210810361045f5761045e610408565b5b50919050565b7f4e487b71000000000000000000000000000000000000000000000000000000005f52602160045260245ffd5b600481106104a3576104a2610465565b5b50565b5f8190506104b382610492565b919050565b5f6104c2826104a6565b9050919050565b6104d2816104b8565b82525050565b5f6020820190506104eb5f8301846104c9565b92915050565b5f82905092915050565b7f4e487b71000000000000000000000000000000000000000000000000000000005f52604160045260245ffd5b5f819050815f5260205f209050919050565b5f6020601f8301049050919050565b5f82821b905092915050565b5f600883026105847fffffffffffffffffffffffffffffffffffffffffffffffffffffffffffffffff82610549565b61058e8683610549565b95508019841693508086168417925050509392505050565b5f819050919050565b5f6105c96105c46105bf8461025c565b6105a6565b61025c565b9050919050565b5f819050919050565b6105e2836105af565b6105f66105ee826105d0565b848454610555565b825550505050565b5f90565b61060a6105fe565b6106158184846105d9565b505050565b5b818110156106385761062d5f82610602565b60018101905061061b565b5050565b601f82111561067d5761064e81610528565b6106578461053a565b81016020851015610666578190505b61067a6106728561053a565b83018261061a565b50505b505050565b5f82821c905092915050565b5f61069d5f1984600802610682565b1980831691505092915050565b5f6106b5838361068e565b9150826002028217905092915050565b6106cf83836104f1565b67ffffffffffffffff8111156106e8576106e76104fb565b5b6106f28254610435565b6106fd82828561063c565b5f601f83116001811461072a575f8415610718578287013590505b61072285826106aa565b865550610789565b601f19841661073886610528565b5f5b8281101561075f5784890135825560018201915060208501945060208101905061073a565b8683101561077c5784890135610778601f89168261068e565b8355505b6001600288020188555050505b50505050505050565b600481106107a3576107a2610465565b5b50565b5f8190506107b382610792565b919050565b5f6107c2826107a6565b9050919050565b6107d2816107b8565b82525050565b5f6040820190506107eb5f8301856107c9565b6107f860208301846104c9565b939250505056fea26469706673582212204a1c714dcda287b05d2c10575c2a4d993163a3c7288b2bad34c1390908b286fb64736f6c634300081a0033",
					"opcodes": "PUSH1 0x80 PUSH1 0x40 MSTORE CALLVALUE DUP1 ISZERO PUSH1 0xE JUMPI PUSH0 DUP1 REVERT JUMPDEST POP PUSH2 0x835 DUP1 PUSH2 0x1C PUSH0 CODECOPY PUSH0 RETURN INVALID PUSH1 0x80 PUSH1 0x40 MSTORE CALLVALUE DUP1 ISZERO PUSH2 0xF JUMPI PUSH0 DUP1 REVERT JUMPDEST POP PUSH1 0x4 CALLDATASIZE LT PUSH2 0x3F JUMPI PUSH0 CALLDATALOAD PUSH1 0xE0 SHR DUP1 PUSH4 0x34461067 EQ PUSH2 0x43 JUMPI DUP1 PUSH4 0x4CC82215 EQ PUSH2 0x73 JUMPI DUP1 PUSH4 0xFEDEDDB5 EQ PUSH2 0x8F JUMPI JUMPDEST PUSH0 DUP1 REVERT JUMPDEST PUSH2 0x5D PUSH1 0x4 DUP1 CALLDATASIZE SUB DUP2 ADD SWAP1 PUSH2 0x58 SWAP2 SWAP1 PUSH2 0x28F JUMP JUMPDEST PUSH2 0xAB JUMP JUMPDEST PUSH1 0x40 MLOAD PUSH2 0x6A SWAP2 SWAP1 PUSH2 0x32A JUMP JUMPDEST PUSH1 0x40 MLOAD DUP1 SWAP2 SUB SWAP1 RETURN JUMPDEST PUSH2 0x8D PUSH1 0x4 DUP1 CALLDATASIZE SUB DUP2 ADD SWAP1 PUSH2 0x88 SWAP2 SWAP1 PUSH2 0x28F JUMP JUMPDEST PUSH2 0x145 JUMP JUMPDEST STOP JUMPDEST PUSH2 0xA9 PUSH1 0x4 DUP1 CALLDATASIZE SUB DUP2 ADD SWAP1 PUSH2 0xA4 SWAP2 SWAP1 PUSH2 0x3AB JUMP JUMPDEST PUSH2 0x19C JUMP JUMPDEST STOP JUMPDEST PUSH0 PUSH1 0x20 MSTORE DUP1 PUSH0 MSTORE PUSH1 0x40 PUSH0 KECCAK256 PUSH0 SWAP2 POP SWAP1 POP DUP1 SLOAD PUSH2 0xC6 SWAP1 PUSH2 0x435 JUMP JUMPDEST DUP1 PUSH1 0x1F ADD PUSH1 0x20 DUP1 SWAP2 DIV MUL PUSH1 0x20 ADD PUSH1 0x40 MLOAD SWAP1 DUP2 ADD PUSH1 0x40 MSTORE DUP1 SWAP3 SWAP2 SWAP1 DUP2 DUP2 MSTORE PUSH1 0x20 ADD DUP3 DUP1 SLOAD PUSH2 0xF2 SWAP1 PUSH2 0x435 JUMP JUMPDEST DUP1 ISZERO PUSH2 0x13D JUMPI DUP1 PUSH1 0x1F LT PUSH2 0x114 JUMPI PUSH2 0x100 DUP1 DUP4 SLOAD DIV MUL DUP4 MSTORE SWAP2 PUSH1 0x20 ADD SWAP2 PUSH2 0x13D JUMP JUMPDEST DUP3 ADD SWAP2 SWAP1 PUSH0 MSTORE PUSH1 0x20 PUSH0 KECCAK256 SWAP1 JUMPDEST DUP2 SLOAD DUP2 MSTORE SWAP1 PUSH1 0x1 ADD SWAP1 PUSH1 0x20 ADD DUP1 DUP4 GT PUSH2 0x120 JUMPI DUP3 SWAP1 SUB PUSH1 0x1F AND DUP3 ADD SWAP2 JUMPDEST POP POP POP POP POP DUP2 JUMP JUMPDEST PUSH0 DUP1 DUP3 DUP2 MSTORE PUSH1 0x20 ADD SWAP1 DUP2 MSTORE PUSH1 0x20 ADD PUSH0 KECCAK256 PUSH0 PUSH2 0x160 SWAP2 SWAP1 PUSH2 0x1FC JUMP JUMPDEST DUP1 PUSH32 0xB25E66B219888AD5F33517FC7929056C03D9E111D04D0EE24F9B8F3CA4385EBA PUSH1 0x2 PUSH1 0x40 MLOAD PUSH2 0x191 SWAP2 SWAP1 PUSH2 0x4D8 JUMP JUMPDEST PUSH1 0x40 MLOAD DUP1 SWAP2 SUB SWAP1 LOG2 POP JUMP JUMPDEST DUP2 DUP2 PUSH0 DUP1 DUP7 DUP2 MSTORE PUSH1 0x20 ADD SWAP1 DUP2 MSTORE PUSH1 0x20 ADD PUSH0 KECCAK256 SWAP2 DUP3 PUSH2 0x1BB SWAP3 SWAP2 SWAP1 PUSH2 0x6C5 JUMP JUMPDEST POP DUP3 PUSH32 0xF4E9E7049A0E433FE405606D32D51DAC4395FF440F2E622DBE0B5F7312B8E7F5 PUSH0 PUSH1 0x1 PUSH1 0x40 MLOAD PUSH2 0x1EF SWAP3 SWAP2 SWAP1 PUSH2 0x7D8 JUMP JUMPDEST PUSH1 0x40 MLOAD DUP1 SWAP2 SUB SWAP1 LOG2 POP POP POP JUMP JUMPDEST POP DUP1 SLOAD PUSH2 0x208 SWAP1 PUSH2 0x435 JUMP JUMPDEST PUSH0 DUP3 SSTORE DUP1 PUSH1 0x1F LT PUSH2 0x219 JUMPI POP PUSH2 0x236 JUMP JUMPDEST PUSH1 0x1F ADD PUSH1 0x20 SWAP1 DIV SWAP1 PUSH0 MSTORE PUSH1 0x20 PUSH0 KECCAK256 SWAP1 DUP2 ADD SWAP1 PUSH2 0x235 SWAP2 SWAP1 PUSH2 0x239 JUMP JUMPDEST JUMPDEST POP JUMP JUMPDEST JUMPDEST DUP1 DUP3 GT ISZERO PUSH2 0x250 JUMPI PUSH0 DUP2 PUSH0 SWAP1 SSTORE POP PUSH1 0x1 ADD PUSH2 0x23A JUMP JUMPDEST POP SWAP1 JUMP JUMPDEST PUSH0 DUP1 REVERT JUMPDEST PUSH0 DUP1 REVERT JUMPDEST PUSH0 DUP2 SWAP1 POP SWAP2 SWAP1 POP JUMP JUMPDEST PUSH2 0x26E DUP2 PUSH2 0x25C JUMP JUMPDEST DUP2 EQ PUSH2 0x278 JUMPI PUSH0 DUP1 REVERT JUMPDEST POP JUMP JUMPDEST PUSH0 DUP2 CALLDATALOAD SWAP1 POP PUSH2 0x289 DUP2 PUSH2 0x265 JUMP JUMPDEST SWAP3 SWAP2 POP POP JUMP JUMPDEST PUSH0 PUSH1 0x20 DUP3 DUP5 SUB SLT ISZERO PUSH2 0x2A4 JUMPI PUSH2 0x2A3 PUSH2 0x254 JUMP JUMPDEST JUMPDEST PUSH0 PUSH2 0x2B1 DUP5 DUP3 DUP6 ADD PUSH2 0x27B JUMP JUMPDEST SWAP2 POP POP SWAP3 SWAP2 POP POP JUMP JUMPDEST PUSH0 DUP2 MLOAD SWAP1 POP SWAP2 SWAP1 POP JUMP JUMPDEST PUSH0 DUP3 DUP3 MSTORE PUSH1 0x20 DUP3 ADD SWAP1 POP SWAP3 SWAP2 POP POP JUMP JUMPDEST DUP3 DUP2 DUP4 MCOPY PUSH0 DUP4 DUP4 ADD MSTORE POP POP POP JUMP JUMPDEST PUSH0 PUSH1 0x1F NOT PUSH1 0x1F DUP4 ADD AND SWAP1 POP SWAP2 SWAP1 POP JUMP JUMPDEST PUSH0 PUSH2 0x2FC DUP3 PUSH2 0x2BA JUMP JUMPDEST PUSH2 0x306 DUP2 DUP6 PUSH2 0x2C4 JUMP JUMPDEST SWAP4 POP PUSH2 0x316 DUP2 DUP6 PUSH1 0x20 DUP7 ADD PUSH2 0x2D4 JUMP JUMPDEST PUSH2 0x31F DUP2 PUSH2 0x2E2 JUMP JUMPDEST DUP5 ADD SWAP2 POP POP SWAP3 SWAP2 POP POP JUMP JUMPDEST PUSH0 PUSH1 0x20 DUP3 ADD SWAP1 POP DUP2 DUP2 SUB PUSH0 DUP4 ADD MSTORE PUSH2 0x342 DUP2 DUP5 PUSH2 0x2F2 JUMP JUMPDEST SWAP1 POP SWAP3 SWAP2 POP POP JUMP JUMPDEST PUSH0 DUP1 REVERT JUMPDEST PUSH0 DUP1 REVERT JUMPDEST PUSH0 DUP1 REVERT JUMPDEST PUSH0 DUP1 DUP4 PUSH1 0x1F DUP5 ADD SLT PUSH2 0x36B JUMPI PUSH2 0x36A PUSH2 0x34A JUMP JUMPDEST JUMPDEST DUP3 CALLDATALOAD SWAP1 POP PUSH8 0xFFFFFFFFFFFFFFFF DUP2 GT ISZERO PUSH2 0x388 JUMPI PUSH2 0x387 PUSH2 0x34E JUMP JUMPDEST JUMPDEST PUSH1 0x20 DUP4 ADD SWAP2 POP DUP4 PUSH1 0x1 DUP3 MUL DUP4 ADD GT ISZERO PUSH2 0x3A4 JUMPI PUSH2 0x3A3 PUSH2 0x352 JUMP JUMPDEST JUMPDEST SWAP3 POP SWAP3 SWAP1 POP JUMP JUMPDEST PUSH0 DUP1 PUSH0 PUSH1 0x40 DUP5 DUP7 SUB SLT ISZERO PUSH2 0x3C2 JUMPI PUSH2 0x3C1 PUSH2 0x254 JUMP JUMPDEST JUMPDEST PUSH0 PUSH2 0x3CF DUP7 DUP3 DUP8 ADD PUSH2 0x27B JUMP JUMPDEST SWAP4 POP POP PUSH1 0x20 DUP5 ADD CALLDATALOAD PUSH8 0xFFFFFFFFFFFFFFFF DUP2 GT ISZERO PUSH2 0x3F0 JUMPI PUSH2 0x3EF PUSH2 0x258 JUMP JUMPDEST JUMPDEST PUSH2 0x3FC DUP7 DUP3 DUP8 ADD PUSH2 0x356 JUMP JUMPDEST SWAP3 POP SWAP3 POP POP SWAP3 POP SWAP3 POP SWAP3 JUMP JUMPDEST PUSH32 0x4E487B7100000000000000000000000000000000000000000000000000000000 PUSH0 MSTORE PUSH1 0x22 PUSH1 0x4 MSTORE PUSH1 0x24 PUSH0 REVERT JUMPDEST PUSH0 PUSH1 0x2 DUP3 DIV SWAP1 POP PUSH1 0x1 DUP3 AND DUP1 PUSH2 0x44C JUMPI PUSH1 0x7F DUP3 AND SWAP2 POP JUMPDEST PUSH1 0x20 DUP3 LT DUP2 SUB PUSH2 0x45F JUMPI PUSH2 0x45E PUSH2 0x408 JUMP JUMPDEST JUMPDEST POP SWAP2 SWAP1 POP JUMP JUMPDEST PUSH32 0x4E487B7100000000000000000000000000000000000000000000000000000000 PUSH0 MSTORE PUSH1 0x21 PUSH1 0x4 MSTORE PUSH1 0x24 PUSH0 REVERT JUMPDEST PUSH1 0x4 DUP2 LT PUSH2 0x4A3 JUMPI PUSH2 0x4A2 PUSH2 0x465 JUMP JUMPDEST JUMPDEST POP JUMP JUMPDEST PUSH0 DUP2 SWAP1 POP PUSH2 0x4B3 DUP3 PUSH2 0x492 JUMP JUMPDEST SWAP2 SWAP1 POP JUMP JUMPDEST PUSH0 PUSH2 0x4C2 DUP3 PUSH2 0x4A6 JUMP JUMPDEST SWAP1 POP SWAP2 SWAP1 POP JUMP JUMPDEST PUSH2 0x4D2 DUP2 PUSH2 0x4B8 JUMP JUMPDEST DUP3 MSTORE POP POP JUMP JUMPDEST PUSH0 PUSH1 0x20 DUP3 ADD SWAP1 POP PUSH2 0x4EB PUSH0 DUP4 ADD DUP5 PUSH2 0x4C9 JUMP JUMPDEST SWAP3 SWAP2 POP POP JUMP JUMPDEST PUSH0 DUP3 SWAP1 POP SWAP3 SWAP2 POP POP JUMP JUMPDEST PUSH32 0x4E487B7100000000000000000000000000000000000000000000000000000000 PUSH0 MSTORE PUSH1 0x41 PUSH1 0x4 MSTORE PUSH1 0x24 PUSH0 REVERT JUMPDEST PUSH0 DUP2 SWAP1 POP DUP2 PUSH0 MSTORE PUSH1 0x20 PUSH0 KECCAK256 SWAP1 POP SWAP2 SWAP1 POP JUMP JUMPDEST PUSH0 PUSH1 0x20 PUSH1 0x1F DUP4 ADD DIV SWAP1 POP SWAP2 SWAP1 POP JUMP JUMPDEST PUSH0 DUP3 DUP3 SHL SWAP1 POP SWAP3 SWAP2 POP POP JUMP JUMPDEST PUSH0 PUSH1 0x8 DUP4 MUL PUSH2 0x584 PUSH32 0xFFFFFFFFFFFFFFFFFFFFFFFFFFFFFFFFFFFFFFFFFFFFFFFFFFFFFFFFFFFFFFFF DUP3 PUSH2 0x549 JUMP JUMPDEST PUSH2 0x58E DUP7 DUP4 PUSH2 0x549 JUMP JUMPDEST SWAP6 POP DUP1 NOT DUP5 AND SWAP4 POP DUP1 DUP7 AND DUP5 OR SWAP3 POP POP POP SWAP4 SWAP3 POP POP POP JUMP JUMPDEST PUSH0 DUP2 SWAP1 POP SWAP2 SWAP1 POP JUMP JUMPDEST PUSH0 PUSH2 0x5C9 PUSH2 0x5C4 PUSH2 0x5BF DUP5 PUSH2 0x25C JUMP JUMPDEST PUSH2 0x5A6 JUMP JUMPDEST PUSH2 0x25C JUMP JUMPDEST SWAP1 POP SWAP2 SWAP1 POP JUMP JUMPDEST PUSH0 DUP2 SWAP1 POP SWAP2 SWAP1 POP JUMP JUMPDEST PUSH2 0x5E2 DUP4 PUSH2 0x5AF JUMP JUMPDEST PUSH2 0x5F6 PUSH2 0x5EE DUP3 PUSH2 0x5D0 JUMP JUMPDEST DUP5 DUP5 SLOAD PUSH2 0x555 JUMP JUMPDEST DUP3 SSTORE POP POP POP POP JUMP JUMPDEST PUSH0 SWAP1 JUMP JUMPDEST PUSH2 0x60A PUSH2 0x5FE JUMP JUMPDEST PUSH2 0x615 DUP2 DUP5 DUP5 PUSH2 0x5D9 JUMP JUMPDEST POP POP POP JUMP JUMPDEST JUMPDEST DUP2 DUP2 LT ISZERO PUSH2 0x638 JUMPI PUSH2 0x62D PUSH0 DUP3 PUSH2 0x602 JUMP JUMPDEST PUSH1 0x1 DUP2 ADD SWAP1 POP PUSH2 0x61B JUMP JUMPDEST POP POP JUMP JUMPDEST PUSH1 0x1F DUP3 GT ISZERO PUSH2 0x67D JUMPI PUSH2 0x64E DUP2 PUSH2 0x528 JUMP JUMPDEST PUSH2 0x657 DUP5 PUSH2 0x53A JUMP JUMPDEST DUP2 ADD PUSH1 0x20 DUP6 LT ISZERO PUSH2 0x666 JUMPI DUP2 SWAP1 POP JUMPDEST PUSH2 0x67A PUSH2 0x672 DUP6 PUSH2 0x53A JUMP JUMPDEST DUP4 ADD DUP3 PUSH2 0x61A JUMP JUMPDEST POP POP JUMPDEST POP POP POP JUMP JUMPDEST PUSH0 DUP3 DUP3 SHR SWAP1 POP SWAP3 SWAP2 POP POP JUMP JUMPDEST PUSH0 PUSH2 0x69D PUSH0 NOT DUP5 PUSH1 0x8 MUL PUSH2 0x682 JUMP JUMPDEST NOT DUP1 DUP4 AND SWAP2 POP POP SWAP3 SWAP2 POP POP JUMP JUMPDEST PUSH0 PUSH2 0x6B5 DUP4 DUP4 PUSH2 0x68E JUMP JUMPDEST SWAP2 POP DUP3 PUSH1 0x2 MUL DUP3 OR SWAP1 POP SWAP3 SWAP2 POP POP JUMP JUMPDEST PUSH2 0x6CF DUP4 DUP4 PUSH2 0x4F1 JUMP JUMPDEST PUSH8 0xFFFFFFFFFFFFFFFF DUP2 GT ISZERO PUSH2 0x6E8 JUMPI PUSH2 0x6E7 PUSH2 0x4FB JUMP JUMPDEST JUMPDEST PUSH2 0x6F2 DUP3 SLOAD PUSH2 0x435 JUMP JUMPDEST PUSH2 0x6FD DUP3 DUP3 DUP6 PUSH2 0x63C JUMP JUMPDEST PUSH0 PUSH1 0x1F DUP4 GT PUSH1 0x1 DUP2 EQ PUSH2 0x72A JUMPI PUSH0 DUP5 ISZERO PUSH2 0x718 JUMPI DUP3 DUP8 ADD CALLDATALOAD SWAP1 POP JUMPDEST PUSH2 0x722 DUP6 DUP3 PUSH2 0x6AA JUMP JUMPDEST DUP7 SSTORE POP PUSH2 0x789 JUMP JUMPDEST PUSH1 0x1F NOT DUP5 AND PUSH2 0x738 DUP7 PUSH2 0x528 JUMP JUMPDEST PUSH0 JUMPDEST DUP3 DUP2 LT ISZERO PUSH2 0x75F JUMPI DUP5 DUP10 ADD CALLDATALOAD DUP3 SSTORE PUSH1 0x1 DUP3 ADD SWAP2 POP PUSH1 0x20 DUP6 ADD SWAP5 POP PUSH1 0x20 DUP2 ADD SWAP1 POP PUSH2 0x73A JUMP JUMPDEST DUP7 DUP4 LT ISZERO PUSH2 0x77C JUMPI DUP5 DUP10 ADD CALLDATALOAD PUSH2 0x778 PUSH1 0x1F DUP10 AND DUP3 PUSH2 0x68E JUMP JUMPDEST DUP4 SSTORE POP JUMPDEST PUSH1 0x1 PUSH1 0x2 DUP9 MUL ADD DUP9 SSTORE POP POP POP JUMPDEST POP POP POP POP POP POP POP JUMP JUMPDEST PUSH1 0x4 DUP2 LT PUSH2 0x7A3 JUMPI PUSH2 0x7A2 PUSH2 0x465 JUMP JUMPDEST JUMPDEST POP JUMP JUMPDEST PUSH0 DUP2 SWAP1 POP PUSH2 0x7B3 DUP3 PUSH2 0x792 JUMP JUMPDEST SWAP2 SWAP1 POP JUMP JUMPDEST PUSH0 PUSH2 0x7C2 DUP3 PUSH2 0x7A6 JUMP JUMPDEST SWAP1 POP SWAP2 SWAP1 POP JUMP JUMPDEST PUSH2 0x7D2 DUP2 PUSH2 0x7B8 JUMP JUMPDEST DUP3 MSTORE POP POP JUMP JUMPDEST PUSH0 PUSH1 0x40 DUP3 ADD SWAP1 POP PUSH2 0x7EB PUSH0 DUP4 ADD DUP6 PUSH2 0x7C9 JUMP JUMPDEST PUSH2 0x7F8 PUSH1 0x20 DUP4 ADD DUP5 PUSH2 0x4C9 JUMP JUMPDEST SWAP4 SWAP3 POP POP POP JUMP INVALID LOG2 PUSH5 0x6970667358 0x22 SLT KECCAK256 BLOBBASEFEE SHR PUSH18 0x4DCDA287B05D2C10575C2A4D993163A3C728 DUP12 0x2B 0xAD CALLVALUE 0xC1 CODECOPY MULMOD ADDMOD 0xB2 DUP7 0xFB PUSH5 0x736F6C6343 STOP ADDMOD BYTE STOP CALLER "
				},
				"gasEstimates": {
					"creation": {
						"codeDepositCost": "420200",
						"executionCost": "453",
						"totalCost": "420653"
					},
					"external": {
						"records(uint256)": "infinite",
						"remove(uint256)": "infinite",
						"store(uint256,bytes)": "infinite"
					}
				},
				"methodIdentifiers": {
					"records(uint256)": "34461067",
					"remove(uint256)": "4cc82215",
					"store(uint256,bytes)": "fededdb5"
				}
			},
			"storageLayout": {
				"storage": [
					{
						"astId": 32,
						"contract": "D/Data Custodian/Data Custodian.sol:DataCustodianVuln",
						"label": "records",
						"offset": 0,
						"slot": "0",
						"type": "t_mapping(t_uint256,t_bytes_storage)"
					}
				],
				"types": {
					"t_bytes_storage": {
						"encoding": "bytes",
						"label": "bytes",
						"numberOfBytes": "32"
					},
					"t_mapping(t_uint256,t_bytes_storage)": {
						"encoding": "mapping",
						"key": "t_uint256",
						"label": "mapping(uint256 => bytes)",
						"numberOfBytes": "32",
						"value": "t_bytes_storage"
					},
					"t_uint256": {
						"encoding": "inplace",
						"label": "uint256",
						"numberOfBytes": "32"
					}
				}
			},
			"userdoc": {
				"kind": "user",
				"methods": {
					"remove(uint256)": {
						"notice": "❌ anybody can delete any record"
					},
					"store(uint256,bytes)": {
						"notice": "❌ anybody can store or overwrite any record"
					}
				},
				"notice": "───────────────────────────────────────────────────────────────────────────── 1) VULNERABLE CUSTODIAN    • no access control, mutable, no limits    • Attack: anyone may overwrite, delete or read data ─────────────────────────────────────────────────────────────────────────────",
				"version": 1
			}
		}
	}
}