{
	"D/Data Custodian/Data Custodian.sol": {
		"DataCustodianSafe": {
			"abi": [
				{
					"inputs": [],
					"stateMutability": "nonpayable",
					"type": "constructor"
				},
				{
					"inputs": [],
					"name": "DC__AlreadySet",
					"type": "error"
				},
				{
					"inputs": [],
					"name": "DC__NoData",
					"type": "error"
				},
				{
					"inputs": [],
					"name": "DC__NotOwner",
					"type": "error"
				},
				{
					"anonymous": false,
					"inputs": [
						{
							"indexed": true,
							"internalType": "uint256",
							"name": "id",
							"type": "uint256"
						},
						{
							"indexed": false,
							"internalType": "enum DataCustodianType",
							"name": "ctype",
							"type": "uint8"
						},
						{
							"indexed": false,
							"internalType": "enum DataCustodianDefenseType",
							"name": "defense",
							"type": "uint8"
						}
					],
					"name": "RecordStored",
					"type": "event"
				},
				{
					"inputs": [],
					"name": "owner",
					"outputs": [
						{
							"internalType": "address",
							"name": "",
							"type": "address"
						}
					],
					"stateMutability": "view",
					"type": "function"
				},
				{
					"inputs": [
						{
							"internalType": "uint256",
							"name": "id",
							"type": "uint256"
						}
					],
					"name": "retrieve",
					"outputs": [
						{
							"internalType": "bytes",
							"name": "",
							"type": "bytes"
						}
					],
					"stateMutability": "view",
					"type": "function"
				},
				{
					"inputs": [
						{
							"internalType": "uint256",
							"name": "id",
							"type": "uint256"
						},
						{
							"internalType": "bytes",
							"name": "data",
							"type": "bytes"
						}
					],
					"name": "store",
					"outputs": [],
					"stateMutability": "nonpayable",
					"type": "function"
				}
			],
			"devdoc": {
				"kind": "dev",
				"methods": {},
				"version": 1
			},
			"evm": {
				"assembly": "    /* \"D/Data Custodian/Data Custodian.sol\":3567:4475  contract DataCustodianSafe {... */\n  mstore(0x40, 0x80)\n    /* \"D/Data Custodian/Data Custodian.sol\":3864:3913  constructor() {... */\n  callvalue\n  dup1\n  iszero\n  tag_1\n  jumpi\n  0x00\n  dup1\n  revert\ntag_1:\n  pop\n    /* \"D/Data Custodian/Data Custodian.sol\":3896:3906  msg.sender */\n  caller\n    /* \"D/Data Custodian/Data Custodian.sol\":3888:3893  owner */\n  0x02\n  0x00\n    /* \"D/Data Custodian/Data Custodian.sol\":3888:3906  owner = msg.sender */\n  0x0100\n  exp\n  dup2\n  sload\n  dup2\n  0xffffffffffffffffffffffffffffffffffffffff\n  mul\n  not\n  and\n  swap1\n  dup4\n  0xffffffffffffffffffffffffffffffffffffffff\n  and\n  mul\n  or\n  swap1\n  sstore\n  pop\n    /* \"D/Data Custodian/Data Custodian.sol\":3567:4475  contract DataCustodianSafe {... */\n  dataSize(sub_0)\n  dup1\n  dataOffset(sub_0)\n  0x00\n  codecopy\n  0x00\n  return\nstop\n\nsub_0: assembly {\n        /* \"D/Data Custodian/Data Custodian.sol\":3567:4475  contract DataCustodianSafe {... */\n      mstore(0x40, 0x80)\n      callvalue\n      dup1\n      iszero\n      tag_1\n      jumpi\n      0x00\n      dup1\n      revert\n    tag_1:\n      pop\n      jumpi(tag_2, lt(calldatasize, 0x04))\n      shr(0xe0, calldataload(0x00))\n      dup1\n      0x8da5cb5b\n      eq\n      tag_3\n      jumpi\n      dup1\n      0x8f88708b\n      eq\n      tag_4\n      jumpi\n      dup1\n      0xfededdb5\n      eq\n      tag_5\n      jumpi\n    tag_2:\n      0x00\n      dup1\n      revert\n        /* \"D/Data Custodian/Data Custodian.sol\":3697:3717  address public owner */\n    tag_3:\n      tag_6\n      tag_7\n      jump\t// in\n    tag_6:\n      mload(0x40)\n      tag_8\n      swap2\n      swap1\n      tag_9\n      jump\t// in\n    tag_8:\n      mload(0x40)\n      dup1\n      swap2\n      sub\n      swap1\n      return\n        /* \"D/Data Custodian/Data Custodian.sol\":4327:4473  function retrieve(uint256 id) external view returns (bytes memory) {... */\n    tag_4:\n      tag_10\n      0x04\n      dup1\n      calldatasize\n      sub\n      dup2\n      add\n      swap1\n      tag_11\n      swap2\n      swap1\n      tag_12\n      jump\t// in\n    tag_11:\n      tag_13\n      jump\t// in\n    tag_10:\n      mload(0x40)\n      tag_14\n      swap2\n      swap1\n      tag_15\n      jump\t// in\n    tag_14:\n      mload(0x40)\n      dup1\n      swap2\n      sub\n      swap1\n      return\n        /* \"D/Data Custodian/Data Custodian.sol\":3974:4321  function store(uint256 id, bytes calldata data) external {... */\n    tag_5:\n      tag_16\n      0x04\n      dup1\n      calldatasize\n      sub\n      dup2\n      add\n      swap1\n      tag_17\n      swap2\n      swap1\n      tag_18\n      jump\t// in\n    tag_17:\n      tag_19\n      jump\t// in\n    tag_16:\n      stop\n        /* \"D/Data Custodian/Data Custodian.sol\":3697:3717  address public owner */\n    tag_7:\n      0x02\n      0x00\n      swap1\n      sload\n      swap1\n      0x0100\n      exp\n      swap1\n      div\n      0xffffffffffffffffffffffffffffffffffffffff\n      and\n      dup2\n      jump\t// out\n        /* \"D/Data Custodian/Data Custodian.sol\":4327:4473  function retrieve(uint256 id) external view returns (bytes memory) {... */\n    tag_13:\n        /* \"D/Data Custodian/Data Custodian.sol\":4380:4392  bytes memory */\n      0x60\n        /* \"D/Data Custodian/Data Custodian.sol\":4409:4413  _set */\n      0x01\n        /* \"D/Data Custodian/Data Custodian.sol\":4409:4417  _set[id] */\n      0x00\n        /* \"D/Data Custodian/Data Custodian.sol\":4414:4416  id */\n      dup4\n        /* \"D/Data Custodian/Data Custodian.sol\":4409:4417  _set[id] */\n      dup2\n      mstore\n      0x20\n      add\n      swap1\n      dup2\n      mstore\n      0x20\n      add\n      0x00\n      keccak256\n      0x00\n      swap1\n      sload\n      swap1\n      0x0100\n      exp\n      swap1\n      div\n      0xff\n      and\n        /* \"D/Data Custodian/Data Custodian.sol\":4404:4438  if (!_set[id]) revert DC__NoData() */\n      tag_21\n      jumpi\n        /* \"D/Data Custodian/Data Custodian.sol\":4426:4438  DC__NoData() */\n      mload(0x40)\n      0xf37a9b7200000000000000000000000000000000000000000000000000000000\n      dup2\n      mstore\n      0x04\n      add\n      mload(0x40)\n      dup1\n      swap2\n      sub\n      swap1\n      revert\n        /* \"D/Data Custodian/Data Custodian.sol\":4404:4438  if (!_set[id]) revert DC__NoData() */\n    tag_21:\n        /* \"D/Data Custodian/Data Custodian.sol\":4455:4462  records */\n      0x00\n        /* \"D/Data Custodian/Data Custodian.sol\":4455:4466  records[id] */\n      dup1\n        /* \"D/Data Custodian/Data Custodian.sol\":4463:4465  id */\n      dup4\n        /* \"D/Data Custodian/Data Custodian.sol\":4455:4466  records[id] */\n      dup2\n      mstore\n      0x20\n      add\n      swap1\n      dup2\n      mstore\n      0x20\n      add\n      0x00\n      keccak256\n        /* \"D/Data Custodian/Data Custodian.sol\":4448:4466  return records[id] */\n      dup1\n      sload\n      tag_22\n      swap1\n      tag_23\n      jump\t// in\n    tag_22:\n      dup1\n      0x1f\n      add\n      0x20\n      dup1\n      swap2\n      div\n      mul\n      0x20\n      add\n      mload(0x40)\n      swap1\n      dup2\n      add\n      0x40\n      mstore\n      dup1\n      swap3\n      swap2\n      swap1\n      dup2\n      dup2\n      mstore\n      0x20\n      add\n      dup3\n      dup1\n      sload\n      tag_24\n      swap1\n      tag_23\n      jump\t// in\n    tag_24:\n      dup1\n      iszero\n      tag_25\n      jumpi\n      dup1\n      0x1f\n      lt\n      tag_26\n      jumpi\n      0x0100\n      dup1\n      dup4\n      sload\n      div\n      mul\n      dup4\n      mstore\n      swap2\n      0x20\n      add\n      swap2\n      jump(tag_25)\n    tag_26:\n      dup3\n      add\n      swap2\n      swap1\n      0x00\n      mstore\n      keccak256(0x00, 0x20)\n      swap1\n    tag_27:\n      dup2\n      sload\n      dup2\n      mstore\n      swap1\n      0x01\n      add\n      swap1\n      0x20\n      add\n      dup1\n      dup4\n      gt\n      tag_27\n      jumpi\n      dup3\n      swap1\n      sub\n      0x1f\n      and\n      dup3\n      add\n      swap2\n    tag_25:\n      pop\n      pop\n      pop\n      pop\n      pop\n      swap1\n      pop\n        /* \"D/Data Custodian/Data Custodian.sol\":4327:4473  function retrieve(uint256 id) external view returns (bytes memory) {... */\n      swap2\n      swap1\n      pop\n      jump\t// out\n        /* \"D/Data Custodian/Data Custodian.sol\":3974:4321  function store(uint256 id, bytes calldata data) external {... */\n    tag_19:\n        /* \"D/Data Custodian/Data Custodian.sol\":4059:4064  owner */\n      0x02\n      0x00\n      swap1\n      sload\n      swap1\n      0x0100\n      exp\n      swap1\n      div\n      0xffffffffffffffffffffffffffffffffffffffff\n      and\n        /* \"D/Data Custodian/Data Custodian.sol\":4045:4064  msg.sender != owner */\n      0xffffffffffffffffffffffffffffffffffffffff\n      and\n        /* \"D/Data Custodian/Data Custodian.sol\":4045:4055  msg.sender */\n      caller\n        /* \"D/Data Custodian/Data Custodian.sol\":4045:4064  msg.sender != owner */\n      0xffffffffffffffffffffffffffffffffffffffff\n      and\n      eq\n        /* \"D/Data Custodian/Data Custodian.sol\":4041:4095  if (msg.sender != owner)         revert DC__NotOwner() */\n      tag_29\n      jumpi\n        /* \"D/Data Custodian/Data Custodian.sol\":4081:4095  DC__NotOwner() */\n      mload(0x40)\n      0x0d6fba1400000000000000000000000000000000000000000000000000000000\n      dup2\n      mstore\n      0x04\n      add\n      mload(0x40)\n      dup1\n      swap2\n      sub\n      swap1\n      revert\n        /* \"D/Data Custodian/Data Custodian.sol\":4041:4095  if (msg.sender != owner)         revert DC__NotOwner() */\n    tag_29:\n        /* \"D/Data Custodian/Data Custodian.sol\":4109:4113  _set */\n      0x01\n        /* \"D/Data Custodian/Data Custodian.sol\":4109:4117  _set[id] */\n      0x00\n        /* \"D/Data Custodian/Data Custodian.sol\":4114:4116  id */\n      dup5\n        /* \"D/Data Custodian/Data Custodian.sol\":4109:4117  _set[id] */\n      dup2\n      mstore\n      0x20\n      add\n      swap1\n      dup2\n      mstore\n      0x20\n      add\n      0x00\n      keccak256\n      0x00\n      swap1\n      sload\n      swap1\n      0x0100\n      exp\n      swap1\n      div\n      0xff\n      and\n        /* \"D/Data Custodian/Data Custodian.sol\":4105:4161  if (_set[id])                    revert DC__AlreadySet() */\n      iszero\n      tag_30\n      jumpi\n        /* \"D/Data Custodian/Data Custodian.sol\":4145:4161  DC__AlreadySet() */\n      mload(0x40)\n      0x5343f1ce00000000000000000000000000000000000000000000000000000000\n      dup2\n      mstore\n      0x04\n      add\n      mload(0x40)\n      dup1\n      swap2\n      sub\n      swap1\n      revert\n        /* \"D/Data Custodian/Data Custodian.sol\":4105:4161  if (_set[id])                    revert DC__AlreadySet() */\n    tag_30:\n        /* \"D/Data Custodian/Data Custodian.sol\":4182:4186  true */\n      0x01\n        /* \"D/Data Custodian/Data Custodian.sol\":4171:4175  _set */\n      dup1\n        /* \"D/Data Custodian/Data Custodian.sol\":4171:4179  _set[id] */\n      0x00\n        /* \"D/Data Custodian/Data Custodian.sol\":4176:4178  id */\n      dup6\n        /* \"D/Data Custodian/Data Custodian.sol\":4171:4179  _set[id] */\n      dup2\n      mstore\n      0x20\n      add\n      swap1\n      dup2\n      mstore\n      0x20\n      add\n      0x00\n      keccak256\n      0x00\n        /* \"D/Data Custodian/Data Custodian.sol\":4171:4186  _set[id] = true */\n      0x0100\n      exp\n      dup2\n      sload\n      dup2\n      0xff\n      mul\n      not\n      and\n      swap1\n      dup4\n      iszero\n      iszero\n      mul\n      or\n      swap1\n      sstore\n      pop\n        /* \"D/Data Custodian/Data Custodian.sol\":4210:4214  data */\n      dup2\n      dup2\n        /* \"D/Data Custodian/Data Custodian.sol\":4196:4203  records */\n      0x00\n        /* \"D/Data Custodian/Data Custodian.sol\":4196:4207  records[id] */\n      dup1\n        /* \"D/Data Custodian/Data Custodian.sol\":4204:4206  id */\n      dup7\n        /* \"D/Data Custodian/Data Custodian.sol\":4196:4207  records[id] */\n      dup2\n      mstore\n      0x20\n      add\n      swap1\n      dup2\n      mstore\n      0x20\n      add\n      0x00\n      keccak256\n        /* \"D/Data Custodian/Data Custodian.sol\":4196:4214  records[id] = data */\n      swap2\n      dup3\n      tag_31\n      swap3\n      swap2\n      swap1\n      tag_32\n      jump\t// in\n    tag_31:\n      pop\n        /* \"D/Data Custodian/Data Custodian.sol\":4242:4244  id */\n      dup3\n        /* \"D/Data Custodian/Data Custodian.sol\":4229:4314  RecordStored(id, DataCustodianType.Primary, DataCustodianDefenseType.ImmutableRecord) */\n      0xf4e9e7049a0e433fe405606d32d51dac4395ff440f2e622dbe0b5f7312b8e7f5\n        /* \"D/Data Custodian/Data Custodian.sol\":4246:4271  DataCustodianType.Primary */\n      0x00\n        /* \"D/Data Custodian/Data Custodian.sol\":4273:4313  DataCustodianDefenseType.ImmutableRecord */\n      0x01\n        /* \"D/Data Custodian/Data Custodian.sol\":4229:4314  RecordStored(id, DataCustodianType.Primary, DataCustodianDefenseType.ImmutableRecord) */\n      mload(0x40)\n      tag_33\n      swap3\n      swap2\n      swap1\n      tag_34\n      jump\t// in\n    tag_33:\n      mload(0x40)\n      dup1\n      swap2\n      sub\n      swap1\n      log2\n        /* \"D/Data Custodian/Data Custodian.sol\":3974:4321  function store(uint256 id, bytes calldata data) external {... */\n      pop\n      pop\n      pop\n      jump\t// out\n        /* \"#utility.yul\":7:133   */\n    tag_35:\n        /* \"#utility.yul\":44:51   */\n      0x00\n        /* \"#utility.yul\":84:126   */\n      0xffffffffffffffffffffffffffffffffffffffff\n        /* \"#utility.yul\":77:82   */\n      dup3\n        /* \"#utility.yul\":73:127   */\n      and\n        /* \"#utility.yul\":62:127   */\n      swap1\n      pop\n        /* \"#utility.yul\":7:133   */\n      swap2\n      swap1\n      pop\n      jump\t// out\n        /* \"#utility.yul\":139:235   */\n    tag_36:\n        /* \"#utility.yul\":176:183   */\n      0x00\n        /* \"#utility.yul\":205:229   */\n      tag_83\n        /* \"#utility.yul\":223:228   */\n      dup3\n        /* \"#utility.yul\":205:229   */\n      tag_35\n      jump\t// in\n    tag_83:\n        /* \"#utility.yul\":194:229   */\n      swap1\n      pop\n        /* \"#utility.yul\":139:235   */\n      swap2\n      swap1\n      pop\n      jump\t// out\n        /* \"#utility.yul\":241:359   */\n    tag_37:\n        /* \"#utility.yul\":328:352   */\n      tag_85\n        /* \"#utility.yul\":346:351   */\n      dup2\n        /* \"#utility.yul\":328:352   */\n      tag_36\n      jump\t// in\n    tag_85:\n        /* \"#utility.yul\":323:326   */\n      dup3\n        /* \"#utility.yul\":316:353   */\n      mstore\n        /* \"#utility.yul\":241:359   */\n      pop\n      pop\n      jump\t// out\n        /* \"#utility.yul\":365:587   */\n    tag_9:\n        /* \"#utility.yul\":458:462   */\n      0x00\n        /* \"#utility.yul\":496:498   */\n      0x20\n        /* \"#utility.yul\":485:494   */\n      dup3\n        /* \"#utility.yul\":481:499   */\n      add\n        /* \"#utility.yul\":473:499   */\n      swap1\n      pop\n        /* \"#utility.yul\":509:580   */\n      tag_87\n        /* \"#utility.yul\":577:578   */\n      0x00\n        /* \"#utility.yul\":566:575   */\n      dup4\n        /* \"#utility.yul\":562:579   */\n      add\n        /* \"#utility.yul\":553:559   */\n      dup5\n        /* \"#utility.yul\":509:580   */\n      tag_37\n      jump\t// in\n    tag_87:\n        /* \"#utility.yul\":365:587   */\n      swap3\n      swap2\n      pop\n      pop\n      jump\t// out\n        /* \"#utility.yul\":674:791   */\n    tag_39:\n        /* \"#utility.yul\":783:784   */\n      0x00\n        /* \"#utility.yul\":780:781   */\n      dup1\n        /* \"#utility.yul\":773:785   */\n      revert\n        /* \"#utility.yul\":797:914   */\n    tag_40:\n        /* \"#utility.yul\":906:907   */\n      0x00\n        /* \"#utility.yul\":903:904   */\n      dup1\n        /* \"#utility.yul\":896:908   */\n      revert\n        /* \"#utility.yul\":920:997   */\n    tag_41:\n        /* \"#utility.yul\":957:964   */\n      0x00\n        /* \"#utility.yul\":986:991   */\n      dup2\n        /* \"#utility.yul\":975:991   */\n      swap1\n      pop\n        /* \"#utility.yul\":920:997   */\n      swap2\n      swap1\n      pop\n      jump\t// out\n        /* \"#utility.yul\":1003:1125   */\n    tag_42:\n        /* \"#utility.yul\":1076:1100   */\n      tag_93\n        /* \"#utility.yul\":1094:1099   */\n      dup2\n        /* \"#utility.yul\":1076:1100   */\n      tag_41\n      jump\t// in\n    tag_93:\n        /* \"#utility.yul\":1069:1074   */\n      dup2\n        /* \"#utility.yul\":1066:1101   */\n      eq\n        /* \"#utility.yul\":1056:1119   */\n      tag_94\n      jumpi\n        /* \"#utility.yul\":1115:1116   */\n      0x00\n        /* \"#utility.yul\":1112:1113   */\n      dup1\n        /* \"#utility.yul\":1105:1117   */\n      revert\n        /* \"#utility.yul\":1056:1119   */\n    tag_94:\n        /* \"#utility.yul\":1003:1125   */\n      pop\n      jump\t// out\n        /* \"#utility.yul\":1131:1270   */\n    tag_43:\n        /* \"#utility.yul\":1177:1182   */\n      0x00\n        /* \"#utility.yul\":1215:1221   */\n      dup2\n        /* \"#utility.yul\":1202:1222   */\n      calldataload\n        /* \"#utility.yul\":1193:1222   */\n      swap1\n      pop\n        /* \"#utility.yul\":1231:1264   */\n      tag_96\n        /* \"#utility.yul\":1258:1263   */\n      dup2\n        /* \"#utility.yul\":1231:1264   */\n      tag_42\n      jump\t// in\n    tag_96:\n        /* \"#utility.yul\":1131:1270   */\n      swap3\n      swap2\n      pop\n      pop\n      jump\t// out\n        /* \"#utility.yul\":1276:1605   */\n    tag_12:\n        /* \"#utility.yul\":1335:1341   */\n      0x00\n        /* \"#utility.yul\":1384:1386   */\n      0x20\n        /* \"#utility.yul\":1372:1381   */\n      dup3\n        /* \"#utility.yul\":1363:1370   */\n      dup5\n        /* \"#utility.yul\":1359:1382   */\n      sub\n        /* \"#utility.yul\":1355:1387   */\n      slt\n        /* \"#utility.yul\":1352:1471   */\n      iszero\n      tag_98\n      jumpi\n        /* \"#utility.yul\":1390:1469   */\n      tag_99\n      tag_39\n      jump\t// in\n    tag_99:\n        /* \"#utility.yul\":1352:1471   */\n    tag_98:\n        /* \"#utility.yul\":1510:1511   */\n      0x00\n        /* \"#utility.yul\":1535:1588   */\n      tag_100\n        /* \"#utility.yul\":1580:1587   */\n      dup5\n        /* \"#utility.yul\":1571:1577   */\n      dup3\n        /* \"#utility.yul\":1560:1569   */\n      dup6\n        /* \"#utility.yul\":1556:1578   */\n      add\n        /* \"#utility.yul\":1535:1588   */\n      tag_43\n      jump\t// in\n    tag_100:\n        /* \"#utility.yul\":1525:1588   */\n      swap2\n      pop\n        /* \"#utility.yul\":1481:1598   */\n      pop\n        /* \"#utility.yul\":1276:1605   */\n      swap3\n      swap2\n      pop\n      pop\n      jump\t// out\n        /* \"#utility.yul\":1611:1709   */\n    tag_44:\n        /* \"#utility.yul\":1662:1668   */\n      0x00\n        /* \"#utility.yul\":1696:1701   */\n      dup2\n        /* \"#utility.yul\":1690:1702   */\n      mload\n        /* \"#utility.yul\":1680:1702   */\n      swap1\n      pop\n        /* \"#utility.yul\":1611:1709   */\n      swap2\n      swap1\n      pop\n      jump\t// out\n        /* \"#utility.yul\":1715:1883   */\n    tag_45:\n        /* \"#utility.yul\":1798:1809   */\n      0x00\n        /* \"#utility.yul\":1832:1838   */\n      dup3\n        /* \"#utility.yul\":1827:1830   */\n      dup3\n        /* \"#utility.yul\":1820:1839   */\n      mstore\n        /* \"#utility.yul\":1872:1876   */\n      0x20\n        /* \"#utility.yul\":1867:1870   */\n      dup3\n        /* \"#utility.yul\":1863:1877   */\n      add\n        /* \"#utility.yul\":1848:1877   */\n      swap1\n      pop\n        /* \"#utility.yul\":1715:1883   */\n      swap3\n      swap2\n      pop\n      pop\n      jump\t// out\n        /* \"#utility.yul\":1889:2028   */\n    tag_46:\n        /* \"#utility.yul\":1978:1984   */\n      dup3\n        /* \"#utility.yul\":1973:1976   */\n      dup2\n        /* \"#utility.yul\":1968:1971   */\n      dup4\n        /* \"#utility.yul\":1962:1985   */\n      mcopy\n        /* \"#utility.yul\":2019:2020   */\n      0x00\n        /* \"#utility.yul\":2010:2016   */\n      dup4\n        /* \"#utility.yul\":2005:2008   */\n      dup4\n        /* \"#utility.yul\":2001:2017   */\n      add\n        /* \"#utility.yul\":1994:2021   */\n      mstore\n        /* \"#utility.yul\":1889:2028   */\n      pop\n      pop\n      pop\n      jump\t// out\n        /* \"#utility.yul\":2034:2136   */\n    tag_47:\n        /* \"#utility.yul\":2075:2081   */\n      0x00\n        /* \"#utility.yul\":2126:2128   */\n      0x1f\n        /* \"#utility.yul\":2122:2129   */\n      not\n        /* \"#utility.yul\":2117:2119   */\n      0x1f\n        /* \"#utility.yul\":2110:2115   */\n      dup4\n        /* \"#utility.yul\":2106:2120   */\n      add\n        /* \"#utility.yul\":2102:2130   */\n      and\n        /* \"#utility.yul\":2092:2130   */\n      swap1\n      pop\n        /* \"#utility.yul\":2034:2136   */\n      swap2\n      swap1\n      pop\n      jump\t// out\n        /* \"#utility.yul\":2142:2515   */\n    tag_48:\n        /* \"#utility.yul\":2228:2231   */\n      0x00\n        /* \"#utility.yul\":2256:2294   */\n      tag_106\n        /* \"#utility.yul\":2288:2293   */\n      dup3\n        /* \"#utility.yul\":2256:2294   */\n      tag_44\n      jump\t// in\n    tag_106:\n        /* \"#utility.yul\":2310:2380   */\n      tag_107\n        /* \"#utility.yul\":2373:2379   */\n      dup2\n        /* \"#utility.yul\":2368:2371   */\n      dup6\n        /* \"#utility.yul\":2310:2380   */\n      tag_45\n      jump\t// in\n    tag_107:\n        /* \"#utility.yul\":2303:2380   */\n      swap4\n      pop\n        /* \"#utility.yul\":2389:2454   */\n      tag_108\n        /* \"#utility.yul\":2447:2453   */\n      dup2\n        /* \"#utility.yul\":2442:2445   */\n      dup6\n        /* \"#utility.yul\":2435:2439   */\n      0x20\n        /* \"#utility.yul\":2428:2433   */\n      dup7\n        /* \"#utility.yul\":2424:2440   */\n      add\n        /* \"#utility.yul\":2389:2454   */\n      tag_46\n      jump\t// in\n    tag_108:\n        /* \"#utility.yul\":2479:2508   */\n      tag_109\n        /* \"#utility.yul\":2501:2507   */\n      dup2\n        /* \"#utility.yul\":2479:2508   */\n      tag_47\n      jump\t// in\n    tag_109:\n        /* \"#utility.yul\":2474:2477   */\n      dup5\n        /* \"#utility.yul\":2470:2509   */\n      add\n        /* \"#utility.yul\":2463:2509   */\n      swap2\n      pop\n        /* \"#utility.yul\":2232:2515   */\n      pop\n        /* \"#utility.yul\":2142:2515   */\n      swap3\n      swap2\n      pop\n      pop\n      jump\t// out\n        /* \"#utility.yul\":2521:2830   */\n    tag_15:\n        /* \"#utility.yul\":2632:2636   */\n      0x00\n        /* \"#utility.yul\":2670:2672   */\n      0x20\n        /* \"#utility.yul\":2659:2668   */\n      dup3\n        /* \"#utility.yul\":2655:2673   */\n      add\n        /* \"#utility.yul\":2647:2673   */\n      swap1\n      pop\n        /* \"#utility.yul\":2719:2728   */\n      dup2\n        /* \"#utility.yul\":2713:2717   */\n      dup2\n        /* \"#utility.yul\":2709:2729   */\n      sub\n        /* \"#utility.yul\":2705:2706   */\n      0x00\n        /* \"#utility.yul\":2694:2703   */\n      dup4\n        /* \"#utility.yul\":2690:2707   */\n      add\n        /* \"#utility.yul\":2683:2730   */\n      mstore\n        /* \"#utility.yul\":2747:2823   */\n      tag_111\n        /* \"#utility.yul\":2818:2822   */\n      dup2\n        /* \"#utility.yul\":2809:2815   */\n      dup5\n        /* \"#utility.yul\":2747:2823   */\n      tag_48\n      jump\t// in\n    tag_111:\n        /* \"#utility.yul\":2739:2823   */\n      swap1\n      pop\n        /* \"#utility.yul\":2521:2830   */\n      swap3\n      swap2\n      pop\n      pop\n      jump\t// out\n        /* \"#utility.yul\":2836:2953   */\n    tag_49:\n        /* \"#utility.yul\":2945:2946   */\n      0x00\n        /* \"#utility.yul\":2942:2943   */\n      dup1\n        /* \"#utility.yul\":2935:2947   */\n      revert\n        /* \"#utility.yul\":2959:3076   */\n    tag_50:\n        /* \"#utility.yul\":3068:3069   */\n      0x00\n        /* \"#utility.yul\":3065:3066   */\n      dup1\n        /* \"#utility.yul\":3058:3070   */\n      revert\n        /* \"#utility.yul\":3082:3199   */\n    tag_51:\n        /* \"#utility.yul\":3191:3192   */\n      0x00\n        /* \"#utility.yul\":3188:3189   */\n      dup1\n        /* \"#utility.yul\":3181:3193   */\n      revert\n        /* \"#utility.yul\":3218:3770   */\n    tag_52:\n        /* \"#utility.yul\":3275:3283   */\n      0x00\n        /* \"#utility.yul\":3285:3291   */\n      dup1\n        /* \"#utility.yul\":3335:3338   */\n      dup4\n        /* \"#utility.yul\":3328:3332   */\n      0x1f\n        /* \"#utility.yul\":3320:3326   */\n      dup5\n        /* \"#utility.yul\":3316:3333   */\n      add\n        /* \"#utility.yul\":3312:3339   */\n      slt\n        /* \"#utility.yul\":3302:3424   */\n      tag_116\n      jumpi\n        /* \"#utility.yul\":3343:3422   */\n      tag_117\n      tag_49\n      jump\t// in\n    tag_117:\n        /* \"#utility.yul\":3302:3424   */\n    tag_116:\n        /* \"#utility.yul\":3456:3462   */\n      dup3\n        /* \"#utility.yul\":3443:3463   */\n      calldataload\n        /* \"#utility.yul\":3433:3463   */\n      swap1\n      pop\n        /* \"#utility.yul\":3486:3504   */\n      0xffffffffffffffff\n        /* \"#utility.yul\":3478:3484   */\n      dup2\n        /* \"#utility.yul\":3475:3505   */\n      gt\n        /* \"#utility.yul\":3472:3589   */\n      iszero\n      tag_118\n      jumpi\n        /* \"#utility.yul\":3508:3587   */\n      tag_119\n      tag_50\n      jump\t// in\n    tag_119:\n        /* \"#utility.yul\":3472:3589   */\n    tag_118:\n        /* \"#utility.yul\":3622:3626   */\n      0x20\n        /* \"#utility.yul\":3614:3620   */\n      dup4\n        /* \"#utility.yul\":3610:3627   */\n      add\n        /* \"#utility.yul\":3598:3627   */\n      swap2\n      pop\n        /* \"#utility.yul\":3676:3679   */\n      dup4\n        /* \"#utility.yul\":3668:3672   */\n      0x01\n        /* \"#utility.yul\":3660:3666   */\n      dup3\n        /* \"#utility.yul\":3656:3673   */\n      mul\n        /* \"#utility.yul\":3646:3654   */\n      dup4\n        /* \"#utility.yul\":3642:3674   */\n      add\n        /* \"#utility.yul\":3639:3680   */\n      gt\n        /* \"#utility.yul\":3636:3764   */\n      iszero\n      tag_120\n      jumpi\n        /* \"#utility.yul\":3683:3762   */\n      tag_121\n      tag_51\n      jump\t// in\n    tag_121:\n        /* \"#utility.yul\":3636:3764   */\n    tag_120:\n        /* \"#utility.yul\":3218:3770   */\n      swap3\n      pop\n      swap3\n      swap1\n      pop\n      jump\t// out\n        /* \"#utility.yul\":3776:4448   */\n    tag_18:\n        /* \"#utility.yul\":3855:3861   */\n      0x00\n        /* \"#utility.yul\":3863:3869   */\n      dup1\n        /* \"#utility.yul\":3871:3877   */\n      0x00\n        /* \"#utility.yul\":3920:3922   */\n      0x40\n        /* \"#utility.yul\":3908:3917   */\n      dup5\n        /* \"#utility.yul\":3899:3906   */\n      dup7\n        /* \"#utility.yul\":3895:3918   */\n      sub\n        /* \"#utility.yul\":3891:3923   */\n      slt\n        /* \"#utility.yul\":3888:4007   */\n      iszero\n      tag_123\n      jumpi\n        /* \"#utility.yul\":3926:4005   */\n      tag_124\n      tag_39\n      jump\t// in\n    tag_124:\n        /* \"#utility.yul\":3888:4007   */\n    tag_123:\n        /* \"#utility.yul\":4046:4047   */\n      0x00\n        /* \"#utility.yul\":4071:4124   */\n      tag_125\n        /* \"#utility.yul\":4116:4123   */\n      dup7\n        /* \"#utility.yul\":4107:4113   */\n      dup3\n        /* \"#utility.yul\":4096:4105   */\n      dup8\n        /* \"#utility.yul\":4092:4114   */\n      add\n        /* \"#utility.yul\":4071:4124   */\n      tag_43\n      jump\t// in\n    tag_125:\n        /* \"#utility.yul\":4061:4124   */\n      swap4\n      pop\n        /* \"#utility.yul\":4017:4134   */\n      pop\n        /* \"#utility.yul\":4201:4203   */\n      0x20\n        /* \"#utility.yul\":4190:4199   */\n      dup5\n        /* \"#utility.yul\":4186:4204   */\n      add\n        /* \"#utility.yul\":4173:4205   */\n      calldataload\n        /* \"#utility.yul\":4232:4250   */\n      0xffffffffffffffff\n        /* \"#utility.yul\":4224:4230   */\n      dup2\n        /* \"#utility.yul\":4221:4251   */\n      gt\n        /* \"#utility.yul\":4218:4335   */\n      iszero\n      tag_126\n      jumpi\n        /* \"#utility.yul\":4254:4333   */\n      tag_127\n      tag_40\n      jump\t// in\n    tag_127:\n        /* \"#utility.yul\":4218:4335   */\n    tag_126:\n        /* \"#utility.yul\":4367:4431   */\n      tag_128\n        /* \"#utility.yul\":4423:4430   */\n      dup7\n        /* \"#utility.yul\":4414:4420   */\n      dup3\n        /* \"#utility.yul\":4403:4412   */\n      dup8\n        /* \"#utility.yul\":4399:4421   */\n      add\n        /* \"#utility.yul\":4367:4431   */\n      tag_52\n      jump\t// in\n    tag_128:\n        /* \"#utility.yul\":4349:4431   */\n      swap3\n      pop\n      swap3\n      pop\n        /* \"#utility.yul\":4144:4441   */\n      pop\n        /* \"#utility.yul\":3776:4448   */\n      swap3\n      pop\n      swap3\n      pop\n      swap3\n      jump\t// out\n        /* \"#utility.yul\":4454:4634   */\n    tag_53:\n        /* \"#utility.yul\":4502:4579   */\n      0x4e487b7100000000000000000000000000000000000000000000000000000000\n        /* \"#utility.yul\":4499:4500   */\n      0x00\n        /* \"#utility.yul\":4492:4580   */\n      mstore\n        /* \"#utility.yul\":4599:4603   */\n      0x22\n        /* \"#utility.yul\":4596:4597   */\n      0x04\n        /* \"#utility.yul\":4589:4604   */\n      mstore\n        /* \"#utility.yul\":4623:4627   */\n      0x24\n        /* \"#utility.yul\":4620:4621   */\n      0x00\n        /* \"#utility.yul\":4613:4628   */\n      revert\n        /* \"#utility.yul\":4640:4960   */\n    tag_23:\n        /* \"#utility.yul\":4684:4690   */\n      0x00\n        /* \"#utility.yul\":4721:4722   */\n      0x02\n        /* \"#utility.yul\":4715:4719   */\n      dup3\n        /* \"#utility.yul\":4711:4723   */\n      div\n        /* \"#utility.yul\":4701:4723   */\n      swap1\n      pop\n        /* \"#utility.yul\":4768:4769   */\n      0x01\n        /* \"#utility.yul\":4762:4766   */\n      dup3\n        /* \"#utility.yul\":4758:4770   */\n      and\n        /* \"#utility.yul\":4789:4807   */\n      dup1\n        /* \"#utility.yul\":4779:4860   */\n      tag_131\n      jumpi\n        /* \"#utility.yul\":4845:4849   */\n      0x7f\n        /* \"#utility.yul\":4837:4843   */\n      dup3\n        /* \"#utility.yul\":4833:4850   */\n      and\n        /* \"#utility.yul\":4823:4850   */\n      swap2\n      pop\n        /* \"#utility.yul\":4779:4860   */\n    tag_131:\n        /* \"#utility.yul\":4907:4909   */\n      0x20\n        /* \"#utility.yul\":4899:4905   */\n      dup3\n        /* \"#utility.yul\":4896:4910   */\n      lt\n        /* \"#utility.yul\":4876:4894   */\n      dup2\n        /* \"#utility.yul\":4873:4911   */\n      sub\n        /* \"#utility.yul\":4870:4954   */\n      tag_132\n      jumpi\n        /* \"#utility.yul\":4926:4944   */\n      tag_133\n      tag_53\n      jump\t// in\n    tag_133:\n        /* \"#utility.yul\":4870:4954   */\n    tag_132:\n        /* \"#utility.yul\":4691:4960   */\n      pop\n        /* \"#utility.yul\":4640:4960   */\n      swap2\n      swap1\n      pop\n      jump\t// out\n        /* \"#utility.yul\":4966:5062   */\n    tag_54:\n        /* \"#utility.yul\":5024:5030   */\n      0x00\n        /* \"#utility.yul\":5052:5055   */\n      dup3\n        /* \"#utility.yul\":5042:5055   */\n      swap1\n      pop\n        /* \"#utility.yul\":4966:5062   */\n      swap3\n      swap2\n      pop\n      pop\n      jump\t// out\n        /* \"#utility.yul\":5068:5248   */\n    tag_55:\n        /* \"#utility.yul\":5116:5193   */\n      0x4e487b7100000000000000000000000000000000000000000000000000000000\n        /* \"#utility.yul\":5113:5114   */\n      0x00\n        /* \"#utility.yul\":5106:5194   */\n      mstore\n        /* \"#utility.yul\":5213:5217   */\n      0x41\n        /* \"#utility.yul\":5210:5211   */\n      0x04\n        /* \"#utility.yul\":5203:5218   */\n      mstore\n        /* \"#utility.yul\":5237:5241   */\n      0x24\n        /* \"#utility.yul\":5234:5235   */\n      0x00\n        /* \"#utility.yul\":5227:5242   */\n      revert\n        /* \"#utility.yul\":5254:5394   */\n    tag_56:\n        /* \"#utility.yul\":5302:5306   */\n      0x00\n        /* \"#utility.yul\":5325:5328   */\n      dup2\n        /* \"#utility.yul\":5317:5328   */\n      swap1\n      pop\n        /* \"#utility.yul\":5348:5351   */\n      dup2\n        /* \"#utility.yul\":5345:5346   */\n      0x00\n        /* \"#utility.yul\":5338:5352   */\n      mstore\n        /* \"#utility.yul\":5382:5386   */\n      0x20\n        /* \"#utility.yul\":5379:5380   */\n      0x00\n        /* \"#utility.yul\":5369:5387   */\n      keccak256\n        /* \"#utility.yul\":5361:5387   */\n      swap1\n      pop\n        /* \"#utility.yul\":5254:5394   */\n      swap2\n      swap1\n      pop\n      jump\t// out\n        /* \"#utility.yul\":5400:5493   */\n    tag_57:\n        /* \"#utility.yul\":5437:5443   */\n      0x00\n        /* \"#utility.yul\":5484:5486   */\n      0x20\n        /* \"#utility.yul\":5479:5481   */\n      0x1f\n        /* \"#utility.yul\":5472:5477   */\n      dup4\n        /* \"#utility.yul\":5468:5482   */\n      add\n        /* \"#utility.yul\":5464:5487   */\n      div\n        /* \"#utility.yul\":5454:5487   */\n      swap1\n      pop\n        /* \"#utility.yul\":5400:5493   */\n      swap2\n      swap1\n      pop\n      jump\t// out\n        /* \"#utility.yul\":5499:5606   */\n    tag_58:\n        /* \"#utility.yul\":5543:5551   */\n      0x00\n        /* \"#utility.yul\":5593:5598   */\n      dup3\n        /* \"#utility.yul\":5587:5591   */\n      dup3\n        /* \"#utility.yul\":5583:5599   */\n      shl\n        /* \"#utility.yul\":5562:5599   */\n      swap1\n      pop\n        /* \"#utility.yul\":5499:5606   */\n      swap3\n      swap2\n      pop\n      pop\n      jump\t// out\n        /* \"#utility.yul\":5612:6005   */\n    tag_59:\n        /* \"#utility.yul\":5681:5687   */\n      0x00\n        /* \"#utility.yul\":5731:5732   */\n      0x08\n        /* \"#utility.yul\":5719:5729   */\n      dup4\n        /* \"#utility.yul\":5715:5733   */\n      mul\n        /* \"#utility.yul\":5754:5851   */\n      tag_140\n        /* \"#utility.yul\":5784:5850   */\n      0xffffffffffffffffffffffffffffffffffffffffffffffffffffffffffffffff\n        /* \"#utility.yul\":5773:5782   */\n      dup3\n        /* \"#utility.yul\":5754:5851   */\n      tag_58\n      jump\t// in\n    tag_140:\n        /* \"#utility.yul\":5872:5911   */\n      tag_141\n        /* \"#utility.yul\":5902:5910   */\n      dup7\n        /* \"#utility.yul\":5891:5900   */\n      dup4\n        /* \"#utility.yul\":5872:5911   */\n      tag_58\n      jump\t// in\n    tag_141:\n        /* \"#utility.yul\":5860:5911   */\n      swap6\n      pop\n        /* \"#utility.yul\":5944:5948   */\n      dup1\n        /* \"#utility.yul\":5940:5949   */\n      not\n        /* \"#utility.yul\":5933:5938   */\n      dup5\n        /* \"#utility.yul\":5929:5950   */\n      and\n        /* \"#utility.yul\":5920:5950   */\n      swap4\n      pop\n        /* \"#utility.yul\":5993:5997   */\n      dup1\n        /* \"#utility.yul\":5983:5991   */\n      dup7\n        /* \"#utility.yul\":5979:5998   */\n      and\n        /* \"#utility.yul\":5972:5977   */\n      dup5\n        /* \"#utility.yul\":5969:5999   */\n      or\n        /* \"#utility.yul\":5959:5999   */\n      swap3\n      pop\n        /* \"#utility.yul\":5688:6005   */\n      pop\n      pop\n        /* \"#utility.yul\":5612:6005   */\n      swap4\n      swap3\n      pop\n      pop\n      pop\n      jump\t// out\n        /* \"#utility.yul\":6011:6071   */\n    tag_60:\n        /* \"#utility.yul\":6039:6042   */\n      0x00\n        /* \"#utility.yul\":6060:6065   */\n      dup2\n        /* \"#utility.yul\":6053:6065   */\n      swap1\n      pop\n        /* \"#utility.yul\":6011:6071   */\n      swap2\n      swap1\n      pop\n      jump\t// out\n        /* \"#utility.yul\":6077:6219   */\n    tag_61:\n        /* \"#utility.yul\":6127:6136   */\n      0x00\n        /* \"#utility.yul\":6160:6213   */\n      tag_144\n        /* \"#utility.yul\":6178:6212   */\n      tag_145\n        /* \"#utility.yul\":6187:6211   */\n      tag_146\n        /* \"#utility.yul\":6205:6210   */\n      dup5\n        /* \"#utility.yul\":6187:6211   */\n      tag_41\n      jump\t// in\n    tag_146:\n        /* \"#utility.yul\":6178:6212   */\n      tag_60\n      jump\t// in\n    tag_145:\n        /* \"#utility.yul\":6160:6213   */\n      tag_41\n      jump\t// in\n    tag_144:\n        /* \"#utility.yul\":6147:6213   */\n      swap1\n      pop\n        /* \"#utility.yul\":6077:6219   */\n      swap2\n      swap1\n      pop\n      jump\t// out\n        /* \"#utility.yul\":6225:6300   */\n    tag_62:\n        /* \"#utility.yul\":6268:6271   */\n      0x00\n        /* \"#utility.yul\":6289:6294   */\n      dup2\n        /* \"#utility.yul\":6282:6294   */\n      swap1\n      pop\n        /* \"#utility.yul\":6225:6300   */\n      swap2\n      swap1\n      pop\n      jump\t// out\n        /* \"#utility.yul\":6306:6575   */\n    tag_63:\n        /* \"#utility.yul\":6416:6455   */\n      tag_149\n        /* \"#utility.yul\":6447:6454   */\n      dup4\n        /* \"#utility.yul\":6416:6455   */\n      tag_61\n      jump\t// in\n    tag_149:\n        /* \"#utility.yul\":6477:6568   */\n      tag_150\n        /* \"#utility.yul\":6526:6567   */\n      tag_151\n        /* \"#utility.yul\":6550:6566   */\n      dup3\n        /* \"#utility.yul\":6526:6567   */\n      tag_62\n      jump\t// in\n    tag_151:\n        /* \"#utility.yul\":6518:6524   */\n      dup5\n        /* \"#utility.yul\":6511:6515   */\n      dup5\n        /* \"#utility.yul\":6505:6516   */\n      sload\n        /* \"#utility.yul\":6477:6568   */\n      tag_59\n      jump\t// in\n    tag_150:\n        /* \"#utility.yul\":6471:6475   */\n      dup3\n        /* \"#utility.yul\":6464:6569   */\n      sstore\n        /* \"#utility.yul\":6382:6575   */\n      pop\n        /* \"#utility.yul\":6306:6575   */\n      pop\n      pop\n      pop\n      jump\t// out\n        /* \"#utility.yul\":6581:6654   */\n    tag_64:\n        /* \"#utility.yul\":6626:6629   */\n      0x00\n        /* \"#utility.yul\":6581:6654   */\n      swap1\n      jump\t// out\n        /* \"#utility.yul\":6660:6849   */\n    tag_65:\n        /* \"#utility.yul\":6737:6769   */\n      tag_154\n      tag_64\n      jump\t// in\n    tag_154:\n        /* \"#utility.yul\":6778:6843   */\n      tag_155\n        /* \"#utility.yul\":6836:6842   */\n      dup2\n        /* \"#utility.yul\":6828:6834   */\n      dup5\n        /* \"#utility.yul\":6822:6826   */\n      dup5\n        /* \"#utility.yul\":6778:6843   */\n      tag_63\n      jump\t// in\n    tag_155:\n        /* \"#utility.yul\":6713:6849   */\n      pop\n        /* \"#utility.yul\":6660:6849   */\n      pop\n      pop\n      jump\t// out\n        /* \"#utility.yul\":6855:7041   */\n    tag_66:\n        /* \"#utility.yul\":6915:7035   */\n    tag_157:\n        /* \"#utility.yul\":6932:6935   */\n      dup2\n        /* \"#utility.yul\":6925:6930   */\n      dup2\n        /* \"#utility.yul\":6922:6936   */\n      lt\n        /* \"#utility.yul\":6915:7035   */\n      iszero\n      tag_159\n      jumpi\n        /* \"#utility.yul\":6986:7025   */\n      tag_160\n        /* \"#utility.yul\":7023:7024   */\n      0x00\n        /* \"#utility.yul\":7016:7021   */\n      dup3\n        /* \"#utility.yul\":6986:7025   */\n      tag_65\n      jump\t// in\n    tag_160:\n        /* \"#utility.yul\":6959:6960   */\n      0x01\n        /* \"#utility.yul\":6952:6957   */\n      dup2\n        /* \"#utility.yul\":6948:6961   */\n      add\n        /* \"#utility.yul\":6939:6961   */\n      swap1\n      pop\n        /* \"#utility.yul\":6915:7035   */\n      jump(tag_157)\n    tag_159:\n        /* \"#utility.yul\":6855:7041   */\n      pop\n      pop\n      jump\t// out\n        /* \"#utility.yul\":7047:7588   */\n    tag_67:\n        /* \"#utility.yul\":7147:7149   */\n      0x1f\n        /* \"#utility.yul\":7142:7145   */\n      dup3\n        /* \"#utility.yul\":7139:7150   */\n      gt\n        /* \"#utility.yul\":7136:7581   */\n      iszero\n      tag_162\n      jumpi\n        /* \"#utility.yul\":7181:7218   */\n      tag_163\n        /* \"#utility.yul\":7212:7217   */\n      dup2\n        /* \"#utility.yul\":7181:7218   */\n      tag_56\n      jump\t// in\n    tag_163:\n        /* \"#utility.yul\":7264:7293   */\n      tag_164\n        /* \"#utility.yul\":7282:7292   */\n      dup5\n        /* \"#utility.yul\":7264:7293   */\n      tag_57\n      jump\t// in\n    tag_164:\n        /* \"#utility.yul\":7254:7262   */\n      dup2\n        /* \"#utility.yul\":7250:7294   */\n      add\n        /* \"#utility.yul\":7447:7449   */\n      0x20\n        /* \"#utility.yul\":7435:7445   */\n      dup6\n        /* \"#utility.yul\":7432:7450   */\n      lt\n        /* \"#utility.yul\":7429:7478   */\n      iszero\n      tag_165\n      jumpi\n        /* \"#utility.yul\":7468:7476   */\n      dup2\n        /* \"#utility.yul\":7453:7476   */\n      swap1\n      pop\n        /* \"#utility.yul\":7429:7478   */\n    tag_165:\n        /* \"#utility.yul\":7491:7571   */\n      tag_166\n        /* \"#utility.yul\":7547:7569   */\n      tag_167\n        /* \"#utility.yul\":7565:7568   */\n      dup6\n        /* \"#utility.yul\":7547:7569   */\n      tag_57\n      jump\t// in\n    tag_167:\n        /* \"#utility.yul\":7537:7545   */\n      dup4\n        /* \"#utility.yul\":7533:7570   */\n      add\n        /* \"#utility.yul\":7520:7531   */\n      dup3\n        /* \"#utility.yul\":7491:7571   */\n      tag_66\n      jump\t// in\n    tag_166:\n        /* \"#utility.yul\":7151:7581   */\n      pop\n      pop\n        /* \"#utility.yul\":7136:7581   */\n    tag_162:\n        /* \"#utility.yul\":7047:7588   */\n      pop\n      pop\n      pop\n      jump\t// out\n        /* \"#utility.yul\":7594:7711   */\n    tag_68:\n        /* \"#utility.yul\":7648:7656   */\n      0x00\n        /* \"#utility.yul\":7698:7703   */\n      dup3\n        /* \"#utility.yul\":7692:7696   */\n      dup3\n        /* \"#utility.yul\":7688:7704   */\n      shr\n        /* \"#utility.yul\":7667:7704   */\n      swap1\n      pop\n        /* \"#utility.yul\":7594:7711   */\n      swap3\n      swap2\n      pop\n      pop\n      jump\t// out\n        /* \"#utility.yul\":7717:7886   */\n    tag_69:\n        /* \"#utility.yul\":7761:7767   */\n      0x00\n        /* \"#utility.yul\":7794:7845   */\n      tag_170\n        /* \"#utility.yul\":7842:7843   */\n      0x00\n        /* \"#utility.yul\":7838:7844   */\n      not\n        /* \"#utility.yul\":7830:7835   */\n      dup5\n        /* \"#utility.yul\":7827:7828   */\n      0x08\n        /* \"#utility.yul\":7823:7836   */\n      mul\n        /* \"#utility.yul\":7794:7845   */\n      tag_68\n      jump\t// in\n    tag_170:\n        /* \"#utility.yul\":7790:7846   */\n      not\n        /* \"#utility.yul\":7875:7879   */\n      dup1\n        /* \"#utility.yul\":7869:7873   */\n      dup4\n        /* \"#utility.yul\":7865:7880   */\n      and\n        /* \"#utility.yul\":7855:7880   */\n      swap2\n      pop\n        /* \"#utility.yul\":7768:7886   */\n      pop\n        /* \"#utility.yul\":7717:7886   */\n      swap3\n      swap2\n      pop\n      pop\n      jump\t// out\n        /* \"#utility.yul\":7891:8186   */\n    tag_70:\n        /* \"#utility.yul\":7967:7971   */\n      0x00\n        /* \"#utility.yul\":8113:8142   */\n      tag_172\n        /* \"#utility.yul\":8138:8141   */\n      dup4\n        /* \"#utility.yul\":8132:8136   */\n      dup4\n        /* \"#utility.yul\":8113:8142   */\n      tag_69\n      jump\t// in\n    tag_172:\n        /* \"#utility.yul\":8105:8142   */\n      swap2\n      pop\n        /* \"#utility.yul\":8175:8178   */\n      dup3\n        /* \"#utility.yul\":8172:8173   */\n      0x02\n        /* \"#utility.yul\":8168:8179   */\n      mul\n        /* \"#utility.yul\":8162:8166   */\n      dup3\n        /* \"#utility.yul\":8159:8180   */\n      or\n        /* \"#utility.yul\":8151:8180   */\n      swap1\n      pop\n        /* \"#utility.yul\":7891:8186   */\n      swap3\n      swap2\n      pop\n      pop\n      jump\t// out\n        /* \"#utility.yul\":8191:9589   */\n    tag_32:\n        /* \"#utility.yul\":8313:8356   */\n      tag_174\n        /* \"#utility.yul\":8352:8355   */\n      dup4\n        /* \"#utility.yul\":8347:8350   */\n      dup4\n        /* \"#utility.yul\":8313:8356   */\n      tag_54\n      jump\t// in\n    tag_174:\n        /* \"#utility.yul\":8421:8439   */\n      0xffffffffffffffff\n        /* \"#utility.yul\":8413:8419   */\n      dup2\n        /* \"#utility.yul\":8410:8440   */\n      gt\n        /* \"#utility.yul\":8407:8463   */\n      iszero\n      tag_175\n      jumpi\n        /* \"#utility.yul\":8443:8461   */\n      tag_176\n      tag_55\n      jump\t// in\n    tag_176:\n        /* \"#utility.yul\":8407:8463   */\n    tag_175:\n        /* \"#utility.yul\":8487:8525   */\n      tag_177\n        /* \"#utility.yul\":8519:8523   */\n      dup3\n        /* \"#utility.yul\":8513:8524   */\n      sload\n        /* \"#utility.yul\":8487:8525   */\n      tag_23\n      jump\t// in\n    tag_177:\n        /* \"#utility.yul\":8572:8638   */\n      tag_178\n        /* \"#utility.yul\":8631:8637   */\n      dup3\n        /* \"#utility.yul\":8623:8629   */\n      dup3\n        /* \"#utility.yul\":8617:8621   */\n      dup6\n        /* \"#utility.yul\":8572:8638   */\n      tag_67\n      jump\t// in\n    tag_178:\n        /* \"#utility.yul\":8665:8666   */\n      0x00\n        /* \"#utility.yul\":8694:8696   */\n      0x1f\n        /* \"#utility.yul\":8686:8692   */\n      dup4\n        /* \"#utility.yul\":8683:8697   */\n      gt\n        /* \"#utility.yul\":8711:8712   */\n      0x01\n        /* \"#utility.yul\":8706:9337   */\n      dup2\n      eq\n      tag_180\n      jumpi\n        /* \"#utility.yul\":9381:9382   */\n      0x00\n        /* \"#utility.yul\":9398:9404   */\n      dup5\n        /* \"#utility.yul\":9395:9479   */\n      iszero\n      tag_181\n      jumpi\n        /* \"#utility.yul\":9454:9463   */\n      dup3\n        /* \"#utility.yul\":9449:9452   */\n      dup8\n        /* \"#utility.yul\":9445:9464   */\n      add\n        /* \"#utility.yul\":9432:9465   */\n      calldataload\n        /* \"#utility.yul\":9423:9465   */\n      swap1\n      pop\n        /* \"#utility.yul\":9395:9479   */\n    tag_181:\n        /* \"#utility.yul\":9505:9572   */\n      tag_182\n        /* \"#utility.yul\":9565:9571   */\n      dup6\n        /* \"#utility.yul\":9558:9563   */\n      dup3\n        /* \"#utility.yul\":9505:9572   */\n      tag_70\n      jump\t// in\n    tag_182:\n        /* \"#utility.yul\":9499:9503   */\n      dup7\n        /* \"#utility.yul\":9492:9573   */\n      sstore\n        /* \"#utility.yul\":9354:9583   */\n      pop\n        /* \"#utility.yul\":8676:9583   */\n      jump(tag_179)\n        /* \"#utility.yul\":8706:9337   */\n    tag_180:\n        /* \"#utility.yul\":8758:8762   */\n      0x1f\n        /* \"#utility.yul\":8754:8763   */\n      not\n        /* \"#utility.yul\":8746:8752   */\n      dup5\n        /* \"#utility.yul\":8742:8764   */\n      and\n        /* \"#utility.yul\":8792:8828   */\n      tag_183\n        /* \"#utility.yul\":8823:8827   */\n      dup7\n        /* \"#utility.yul\":8792:8828   */\n      tag_56\n      jump\t// in\n    tag_183:\n        /* \"#utility.yul\":8850:8851   */\n      0x00\n        /* \"#utility.yul\":8864:9079   */\n    tag_184:\n        /* \"#utility.yul\":8878:8885   */\n      dup3\n        /* \"#utility.yul\":8875:8876   */\n      dup2\n        /* \"#utility.yul\":8872:8886   */\n      lt\n        /* \"#utility.yul\":8864:9079   */\n      iszero\n      tag_186\n      jumpi\n        /* \"#utility.yul\":8964:8973   */\n      dup5\n        /* \"#utility.yul\":8959:8962   */\n      dup10\n        /* \"#utility.yul\":8955:8974   */\n      add\n        /* \"#utility.yul\":8942:8975   */\n      calldataload\n        /* \"#utility.yul\":8934:8940   */\n      dup3\n        /* \"#utility.yul\":8927:8976   */\n      sstore\n        /* \"#utility.yul\":9015:9016   */\n      0x01\n        /* \"#utility.yul\":9007:9013   */\n      dup3\n        /* \"#utility.yul\":9003:9017   */\n      add\n        /* \"#utility.yul\":8993:9017   */\n      swap2\n      pop\n        /* \"#utility.yul\":9062:9064   */\n      0x20\n        /* \"#utility.yul\":9051:9060   */\n      dup6\n        /* \"#utility.yul\":9047:9065   */\n      add\n        /* \"#utility.yul\":9034:9065   */\n      swap5\n      pop\n        /* \"#utility.yul\":8901:8905   */\n      0x20\n        /* \"#utility.yul\":8898:8899   */\n      dup2\n        /* \"#utility.yul\":8894:8906   */\n      add\n        /* \"#utility.yul\":8889:8906   */\n      swap1\n      pop\n        /* \"#utility.yul\":8864:9079   */\n      jump(tag_184)\n    tag_186:\n        /* \"#utility.yul\":9107:9113   */\n      dup7\n        /* \"#utility.yul\":9098:9105   */\n      dup4\n        /* \"#utility.yul\":9095:9114   */\n      lt\n        /* \"#utility.yul\":9092:9278   */\n      iszero\n      tag_187\n      jumpi\n        /* \"#utility.yul\":9172:9181   */\n      dup5\n        /* \"#utility.yul\":9167:9170   */\n      dup10\n        /* \"#utility.yul\":9163:9182   */\n      add\n        /* \"#utility.yul\":9150:9183   */\n      calldataload\n        /* \"#utility.yul\":9215:9263   */\n      tag_188\n        /* \"#utility.yul\":9257:9261   */\n      0x1f\n        /* \"#utility.yul\":9249:9255   */\n      dup10\n        /* \"#utility.yul\":9245:9262   */\n      and\n        /* \"#utility.yul\":9234:9243   */\n      dup3\n        /* \"#utility.yul\":9215:9263   */\n      tag_69\n      jump\t// in\n    tag_188:\n        /* \"#utility.yul\":9207:9213   */\n      dup4\n        /* \"#utility.yul\":9200:9264   */\n      sstore\n        /* \"#utility.yul\":9115:9278   */\n      pop\n        /* \"#utility.yul\":9092:9278   */\n    tag_187:\n        /* \"#utility.yul\":9324:9325   */\n      0x01\n        /* \"#utility.yul\":9320:9321   */\n      0x02\n        /* \"#utility.yul\":9312:9318   */\n      dup9\n        /* \"#utility.yul\":9308:9322   */\n      mul\n        /* \"#utility.yul\":9304:9326   */\n      add\n        /* \"#utility.yul\":9298:9302   */\n      dup9\n        /* \"#utility.yul\":9291:9327   */\n      sstore\n        /* \"#utility.yul\":8713:9337   */\n      pop\n      pop\n      pop\n        /* \"#utility.yul\":8676:9583   */\n    tag_179:\n      pop\n        /* \"#utility.yul\":8288:9589   */\n      pop\n      pop\n      pop\n        /* \"#utility.yul\":8191:9589   */\n      pop\n      pop\n      pop\n      jump\t// out\n        /* \"#utility.yul\":9595:9775   */\n    tag_71:\n        /* \"#utility.yul\":9643:9720   */\n      0x4e487b7100000000000000000000000000000000000000000000000000000000\n        /* \"#utility.yul\":9640:9641   */\n      0x00\n        /* \"#utility.yul\":9633:9721   */\n      mstore\n        /* \"#utility.yul\":9740:9744   */\n      0x21\n        /* \"#utility.yul\":9737:9738   */\n      0x04\n        /* \"#utility.yul\":9730:9745   */\n      mstore\n        /* \"#utility.yul\":9764:9768   */\n      0x24\n        /* \"#utility.yul\":9761:9762   */\n      0x00\n        /* \"#utility.yul\":9754:9769   */\n      revert\n        /* \"#utility.yul\":9781:9905   */\n    tag_72:\n        /* \"#utility.yul\":9873:9874   */\n      0x04\n        /* \"#utility.yul\":9866:9871   */\n      dup2\n        /* \"#utility.yul\":9863:9875   */\n      lt\n        /* \"#utility.yul\":9853:9899   */\n      tag_191\n      jumpi\n        /* \"#utility.yul\":9879:9897   */\n      tag_192\n      tag_71\n      jump\t// in\n    tag_192:\n        /* \"#utility.yul\":9853:9899   */\n    tag_191:\n        /* \"#utility.yul\":9781:9905   */\n      pop\n      jump\t// out\n        /* \"#utility.yul\":9911:10060   */\n    tag_73:\n        /* \"#utility.yul\":9967:9974   */\n      0x00\n        /* \"#utility.yul\":9996:10001   */\n      dup2\n        /* \"#utility.yul\":9985:10001   */\n      swap1\n      pop\n        /* \"#utility.yul\":10002:10054   */\n      tag_194\n        /* \"#utility.yul\":10048:10053   */\n      dup3\n        /* \"#utility.yul\":10002:10054   */\n      tag_72\n      jump\t// in\n    tag_194:\n        /* \"#utility.yul\":9911:10060   */\n      swap2\n      swap1\n      pop\n      jump\t// out\n        /* \"#utility.yul\":10066:10215   */\n    tag_74:\n        /* \"#utility.yul\":10133:10142   */\n      0x00\n        /* \"#utility.yul\":10166:10209   */\n      tag_196\n        /* \"#utility.yul\":10203:10208   */\n      dup3\n        /* \"#utility.yul\":10166:10209   */\n      tag_73\n      jump\t// in\n    tag_196:\n        /* \"#utility.yul\":10153:10209   */\n      swap1\n      pop\n        /* \"#utility.yul\":10066:10215   */\n      swap2\n      swap1\n      pop\n      jump\t// out\n        /* \"#utility.yul\":10221:10386   */\n    tag_75:\n        /* \"#utility.yul\":10325:10379   */\n      tag_198\n        /* \"#utility.yul\":10373:10378   */\n      dup2\n        /* \"#utility.yul\":10325:10379   */\n      tag_74\n      jump\t// in\n    tag_198:\n        /* \"#utility.yul\":10320:10323   */\n      dup3\n        /* \"#utility.yul\":10313:10380   */\n      mstore\n        /* \"#utility.yul\":10221:10386   */\n      pop\n      pop\n      jump\t// out\n        /* \"#utility.yul\":10392:10524   */\n    tag_76:\n        /* \"#utility.yul\":10492:10493   */\n      0x04\n        /* \"#utility.yul\":10485:10490   */\n      dup2\n        /* \"#utility.yul\":10482:10494   */\n      lt\n        /* \"#utility.yul\":10472:10518   */\n      tag_200\n      jumpi\n        /* \"#utility.yul\":10498:10516   */\n      tag_201\n      tag_71\n      jump\t// in\n    tag_201:\n        /* \"#utility.yul\":10472:10518   */\n    tag_200:\n        /* \"#utility.yul\":10392:10524   */\n      pop\n      jump\t// out\n        /* \"#utility.yul\":10530:10695   */\n    tag_77:\n        /* \"#utility.yul\":10594:10601   */\n      0x00\n        /* \"#utility.yul\":10623:10628   */\n      dup2\n        /* \"#utility.yul\":10612:10628   */\n      swap1\n      pop\n        /* \"#utility.yul\":10629:10689   */\n      tag_203\n        /* \"#utility.yul\":10683:10688   */\n      dup3\n        /* \"#utility.yul\":10629:10689   */\n      tag_76\n      jump\t// in\n    tag_203:\n        /* \"#utility.yul\":10530:10695   */\n      swap2\n      swap1\n      pop\n      jump\t// out\n        /* \"#utility.yul\":10701:10866   */\n    tag_78:\n        /* \"#utility.yul\":10776:10785   */\n      0x00\n        /* \"#utility.yul\":10809:10860   */\n      tag_205\n        /* \"#utility.yul\":10854:10859   */\n      dup3\n        /* \"#utility.yul\":10809:10860   */\n      tag_77\n      jump\t// in\n    tag_205:\n        /* \"#utility.yul\":10796:10860   */\n      swap1\n      pop\n        /* \"#utility.yul\":10701:10866   */\n      swap2\n      swap1\n      pop\n      jump\t// out\n        /* \"#utility.yul\":10872:11053   */\n    tag_79:\n        /* \"#utility.yul\":10984:11046   */\n      tag_207\n        /* \"#utility.yul\":11040:11045   */\n      dup2\n        /* \"#utility.yul\":10984:11046   */\n      tag_78\n      jump\t// in\n    tag_207:\n        /* \"#utility.yul\":10979:10982   */\n      dup3\n        /* \"#utility.yul\":10972:11047   */\n      mstore\n        /* \"#utility.yul\":10872:11053   */\n      pop\n      pop\n      jump\t// out\n        /* \"#utility.yul\":11059:11475   */\n    tag_34:\n        /* \"#utility.yul\":11222:11226   */\n      0x00\n        /* \"#utility.yul\":11260:11262   */\n      0x40\n        /* \"#utility.yul\":11249:11258   */\n      dup3\n        /* \"#utility.yul\":11245:11263   */\n      add\n        /* \"#utility.yul\":11237:11263   */\n      swap1\n      pop\n        /* \"#utility.yul\":11273:11361   */\n      tag_209\n        /* \"#utility.yul\":11358:11359   */\n      0x00\n        /* \"#utility.yul\":11347:11356   */\n      dup4\n        /* \"#utility.yul\":11343:11360   */\n      add\n        /* \"#utility.yul\":11334:11340   */\n      dup6\n        /* \"#utility.yul\":11273:11361   */\n      tag_75\n      jump\t// in\n    tag_209:\n        /* \"#utility.yul\":11371:11468   */\n      tag_210\n        /* \"#utility.yul\":11464:11466   */\n      0x20\n        /* \"#utility.yul\":11453:11462   */\n      dup4\n        /* \"#utility.yul\":11449:11467   */\n      add\n        /* \"#utility.yul\":11440:11446   */\n      dup5\n        /* \"#utility.yul\":11371:11468   */\n      tag_79\n      jump\t// in\n    tag_210:\n        /* \"#utility.yul\":11059:11475   */\n      swap4\n      swap3\n      pop\n      pop\n      pop\n      jump\t// out\n\n    auxdata: 0xa264697066735822122003f7d386d92b322fcf575b33abfd12168e51fd82e872ee8f6ad3f769605e386464736f6c634300081a0033\n}\n",
				"bytecode": {
					"linkReferences": {},
					"object": "6080604052348015600e575f80fd5b503360025f6101000a81548173ffffffffffffffffffffffffffffffffffffffff021916908373ffffffffffffffffffffffffffffffffffffffff1602179055506109498061005c5f395ff3fe608060405234801561000f575f80fd5b506004361061003f575f3560e01c80638da5cb5b146100435780638f88708b14610061578063fededdb514610091575b5f80fd5b61004b6100ad565b6040516100589190610368565b60405180910390f35b61007b600480360381019061007691906103bc565b6100d2565b6040516100889190610457565b60405180910390f35b6100ab60048036038101906100a691906104d8565b6101c6565b005b60025f9054906101000a900473ffffffffffffffffffffffffffffffffffffffff1681565b606060015f8381526020019081526020015f205f9054906101000a900460ff16610128576040517ff37a9b7200000000000000000000000000000000000000000000000000000000815260040160405180910390fd5b5f808381526020019081526020015f20805461014390610562565b80601f016020809104026020016040519081016040528092919081815260200182805461016f90610562565b80156101ba5780601f10610191576101008083540402835291602001916101ba565b820191905f5260205f20905b81548152906001019060200180831161019d57829003601f168201915b50505050509050919050565b60025f9054906101000a900473ffffffffffffffffffffffffffffffffffffffff1673ffffffffffffffffffffffffffffffffffffffff163373ffffffffffffffffffffffffffffffffffffffff161461024c576040517f0d6fba1400000000000000000000000000000000000000000000000000000000815260040160405180910390fd5b60015f8481526020019081526020015f205f9054906101000a900460ff16156102a1576040517f5343f1ce00000000000000000000000000000000000000000000000000000000815260040160405180910390fd5b6001805f8581526020019081526020015f205f6101000a81548160ff02191690831515021790555081815f808681526020019081526020015f2091826102e8929190610766565b50827ff4e9e7049a0e433fe405606d32d51dac4395ff440f2e622dbe0b5f7312b8e7f55f600160405161031c9291906108ec565b60405180910390a2505050565b5f73ffffffffffffffffffffffffffffffffffffffff82169050919050565b5f61035282610329565b9050919050565b61036281610348565b82525050565b5f60208201905061037b5f830184610359565b92915050565b5f80fd5b5f80fd5b5f819050919050565b61039b81610389565b81146103a5575f80fd5b50565b5f813590506103b681610392565b92915050565b5f602082840312156103d1576103d0610381565b5b5f6103de848285016103a8565b91505092915050565b5f81519050919050565b5f82825260208201905092915050565b8281835e5f83830152505050565b5f601f19601f8301169050919050565b5f610429826103e7565b61043381856103f1565b9350610443818560208601610401565b61044c8161040f565b840191505092915050565b5f6020820190508181035f83015261046f818461041f565b905092915050565b5f80fd5b5f80fd5b5f80fd5b5f8083601f84011261049857610497610477565b5b8235905067ffffffffffffffff8111156104b5576104b461047b565b5b6020830191508360018202830111156104d1576104d061047f565b5b9250929050565b5f805f604084860312156104ef576104ee610381565b5b5f6104fc868287016103a8565b935050602084013567ffffffffffffffff81111561051d5761051c610385565b5b61052986828701610483565b92509250509250925092565b7f4e487b71000000000000000000000000000000000000000000000000000000005f52602260045260245ffd5b5f600282049050600182168061057957607f821691505b60208210810361058c5761058b610535565b5b50919050565b5f82905092915050565b7f4e487b71000000000000000000000000000000000000000000000000000000005f52604160045260245ffd5b5f819050815f5260205f209050919050565b5f6020601f8301049050919050565b5f82821b905092915050565b5f600883026106257fffffffffffffffffffffffffffffffffffffffffffffffffffffffffffffffff826105ea565b61062f86836105ea565b95508019841693508086168417925050509392505050565b5f819050919050565b5f61066a61066561066084610389565b610647565b610389565b9050919050565b5f819050919050565b61068383610650565b61069761068f82610671565b8484546105f6565b825550505050565b5f90565b6106ab61069f565b6106b681848461067a565b505050565b5b818110156106d9576106ce5f826106a3565b6001810190506106bc565b5050565b601f82111561071e576106ef816105c9565b6106f8846105db565b81016020851015610707578190505b61071b610713856105db565b8301826106bb565b50505b505050565b5f82821c905092915050565b5f61073e5f1984600802610723565b1980831691505092915050565b5f610756838361072f565b9150826002028217905092915050565b6107708383610592565b67ffffffffffffffff8111156107895761078861059c565b5b6107938254610562565b61079e8282856106dd565b5f601f8311600181146107cb575f84156107b9578287013590505b6107c3858261074b565b86555061082a565b601f1984166107d9866105c9565b5f5b82811015610800578489013582556001820191506020850194506020810190506107db565b8683101561081d5784890135610819601f89168261072f565b8355505b6001600288020188555050505b50505050505050565b7f4e487b71000000000000000000000000000000000000000000000000000000005f52602160045260245ffd5b6004811061087157610870610833565b5b50565b5f81905061088182610860565b919050565b5f61089082610874565b9050919050565b6108a081610886565b82525050565b600481106108b7576108b6610833565b5b50565b5f8190506108c7826108a6565b919050565b5f6108d6826108ba565b9050919050565b6108e6816108cc565b82525050565b5f6040820190506108ff5f830185610897565b61090c60208301846108dd565b939250505056fea264697066735822122003f7d386d92b322fcf575b33abfd12168e51fd82e872ee8f6ad3f769605e386464736f6c634300081a0033",
					"opcodes": "PUSH1 0x80 PUSH1 0x40 MSTORE CALLVALUE DUP1 ISZERO PUSH1 0xE JUMPI PUSH0 DUP1 REVERT JUMPDEST POP CALLER PUSH1 0x2 PUSH0 PUSH2 0x100 EXP DUP2 SLOAD DUP2 PUSH20 0xFFFFFFFFFFFFFFFFFFFFFFFFFFFFFFFFFFFFFFFF MUL NOT AND SWAP1 DUP4 PUSH20 0xFFFFFFFFFFFFFFFFFFFFFFFFFFFFFFFFFFFFFFFF AND MUL OR SWAP1 SSTORE POP PUSH2 0x949 DUP1 PUSH2 0x5C PUSH0 CODECOPY PUSH0 RETURN INVALID PUSH1 0x80 PUSH1 0x40 MSTORE CALLVALUE DUP1 ISZERO PUSH2 0xF JUMPI PUSH0 DUP1 REVERT JUMPDEST POP PUSH1 0x4 CALLDATASIZE LT PUSH2 0x3F JUMPI PUSH0 CALLDATALOAD PUSH1 0xE0 SHR DUP1 PUSH4 0x8DA5CB5B EQ PUSH2 0x43 JUMPI DUP1 PUSH4 0x8F88708B EQ PUSH2 0x61 JUMPI DUP1 PUSH4 0xFEDEDDB5 EQ PUSH2 0x91 JUMPI JUMPDEST PUSH0 DUP1 REVERT JUMPDEST PUSH2 0x4B PUSH2 0xAD JUMP JUMPDEST PUSH1 0x40 MLOAD PUSH2 0x58 SWAP2 SWAP1 PUSH2 0x368 JUMP JUMPDEST PUSH1 0x40 MLOAD DUP1 SWAP2 SUB SWAP1 RETURN JUMPDEST PUSH2 0x7B PUSH1 0x4 DUP1 CALLDATASIZE SUB DUP2 ADD SWAP1 PUSH2 0x76 SWAP2 SWAP1 PUSH2 0x3BC JUMP JUMPDEST PUSH2 0xD2 JUMP JUMPDEST PUSH1 0x40 MLOAD PUSH2 0x88 SWAP2 SWAP1 PUSH2 0x457 JUMP JUMPDEST PUSH1 0x40 MLOAD DUP1 SWAP2 SUB SWAP1 RETURN JUMPDEST PUSH2 0xAB PUSH1 0x4 DUP1 CALLDATASIZE SUB DUP2 ADD SWAP1 PUSH2 0xA6 SWAP2 SWAP1 PUSH2 0x4D8 JUMP JUMPDEST PUSH2 0x1C6 JUMP JUMPDEST STOP JUMPDEST PUSH1 0x2 PUSH0 SWAP1 SLOAD SWAP1 PUSH2 0x100 EXP SWAP1 DIV PUSH20 0xFFFFFFFFFFFFFFFFFFFFFFFFFFFFFFFFFFFFFFFF AND DUP2 JUMP JUMPDEST PUSH1 0x60 PUSH1 0x1 PUSH0 DUP4 DUP2 MSTORE PUSH1 0x20 ADD SWAP1 DUP2 MSTORE PUSH1 0x20 ADD PUSH0 KECCAK256 PUSH0 SWAP1 SLOAD SWAP1 PUSH2 0x100 EXP SWAP1 DIV PUSH1 0xFF AND PUSH2 0x128 JUMPI PUSH1 0x40 MLOAD PUSH32 0xF37A9B7200000000000000000000000000000000000000000000000000000000 DUP2 MSTORE PUSH1 0x4 ADD PUSH1 0x40 MLOAD DUP1 SWAP2 SUB SWAP1 REVERT JUMPDEST PUSH0 DUP1 DUP4 DUP2 MSTORE PUSH1 0x20 ADD SWAP1 DUP2 MSTORE PUSH1 0x20 ADD PUSH0 KECCAK256 DUP1 SLOAD PUSH2 0x143 SWAP1 PUSH2 0x562 JUMP JUMPDEST DUP1 PUSH1 0x1F ADD PUSH1 0x20 DUP1 SWAP2 DIV MUL PUSH1 0x20 ADD PUSH1 0x40 MLOAD SWAP1 DUP2 ADD PUSH1 0x40 MSTORE DUP1 SWAP3 SWAP2 SWAP1 DUP2 DUP2 MSTORE PUSH1 0x20 ADD DUP3 DUP1 SLOAD PUSH2 0x16F SWAP1 PUSH2 0x562 JUMP JUMPDEST DUP1 ISZERO PUSH2 0x1BA JUMPI DUP1 PUSH1 0x1F LT PUSH2 0x191 JUMPI PUSH2 0x100 DUP1 DUP4 SLOAD DIV MUL DUP4 MSTORE SWAP2 PUSH1 0x20 ADD SWAP2 PUSH2 0x1BA JUMP JUMPDEST DUP3 ADD SWAP2 SWAP1 PUSH0 MSTORE PUSH1 0x20 PUSH0 KECCAK256 SWAP1 JUMPDEST DUP2 SLOAD DUP2 MSTORE SWAP1 PUSH1 0x1 ADD SWAP1 PUSH1 0x20 ADD DUP1 DUP4 GT PUSH2 0x19D JUMPI DUP3 SWAP1 SUB PUSH1 0x1F AND DUP3 ADD SWAP2 JUMPDEST POP POP POP POP POP SWAP1 POP SWAP2 SWAP1 POP JUMP JUMPDEST PUSH1 0x2 PUSH0 SWAP1 SLOAD SWAP1 PUSH2 0x100 EXP SWAP1 DIV PUSH20 0xFFFFFFFFFFFFFFFFFFFFFFFFFFFFFFFFFFFFFFFF AND PUSH20 0xFFFFFFFFFFFFFFFFFFFFFFFFFFFFFFFFFFFFFFFF AND CALLER PUSH20 0xFFFFFFFFFFFFFFFFFFFFFFFFFFFFFFFFFFFFFFFF AND EQ PUSH2 0x24C JUMPI PUSH1 0x40 MLOAD PUSH32 0xD6FBA1400000000000000000000000000000000000000000000000000000000 DUP2 MSTORE PUSH1 0x4 ADD PUSH1 0x40 MLOAD DUP1 SWAP2 SUB SWAP1 REVERT JUMPDEST PUSH1 0x1 PUSH0 DUP5 DUP2 MSTORE PUSH1 0x20 ADD SWAP1 DUP2 MSTORE PUSH1 0x20 ADD PUSH0 KECCAK256 PUSH0 SWAP1 SLOAD SWAP1 PUSH2 0x100 EXP SWAP1 DIV PUSH1 0xFF AND ISZERO PUSH2 0x2A1 JUMPI PUSH1 0x40 MLOAD PUSH32 0x5343F1CE00000000000000000000000000000000000000000000000000000000 DUP2 MSTORE PUSH1 0x4 ADD PUSH1 0x40 MLOAD DUP1 SWAP2 SUB SWAP1 REVERT JUMPDEST PUSH1 0x1 DUP1 PUSH0 DUP6 DUP2 MSTORE PUSH1 0x20 ADD SWAP1 DUP2 MSTORE PUSH1 0x20 ADD PUSH0 KECCAK256 PUSH0 PUSH2 0x100 EXP DUP2 SLOAD DUP2 PUSH1 0xFF MUL NOT AND SWAP1 DUP4 ISZERO ISZERO MUL OR SWAP1 SSTORE POP DUP2 DUP2 PUSH0 DUP1 DUP7 DUP2 MSTORE PUSH1 0x20 ADD SWAP1 DUP2 MSTORE PUSH1 0x20 ADD PUSH0 KECCAK256 SWAP2 DUP3 PUSH2 0x2E8 SWAP3 SWAP2 SWAP1 PUSH2 0x766 JUMP JUMPDEST POP DUP3 PUSH32 0xF4E9E7049A0E433FE405606D32D51DAC4395FF440F2E622DBE0B5F7312B8E7F5 PUSH0 PUSH1 0x1 PUSH1 0x40 MLOAD PUSH2 0x31C SWAP3 SWAP2 SWAP1 PUSH2 0x8EC JUMP JUMPDEST PUSH1 0x40 MLOAD DUP1 SWAP2 SUB SWAP1 LOG2 POP POP POP JUMP JUMPDEST PUSH0 PUSH20 0xFFFFFFFFFFFFFFFFFFFFFFFFFFFFFFFFFFFFFFFF DUP3 AND SWAP1 POP SWAP2 SWAP1 POP JUMP JUMPDEST PUSH0 PUSH2 0x352 DUP3 PUSH2 0x329 JUMP JUMPDEST SWAP1 POP SWAP2 SWAP1 POP JUMP JUMPDEST PUSH2 0x362 DUP2 PUSH2 0x348 JUMP JUMPDEST DUP3 MSTORE POP POP JUMP JUMPDEST PUSH0 PUSH1 0x20 DUP3 ADD SWAP1 POP PUSH2 0x37B PUSH0 DUP4 ADD DUP5 PUSH2 0x359 JUMP JUMPDEST SWAP3 SWAP2 POP POP JUMP JUMPDEST PUSH0 DUP1 REVERT JUMPDEST PUSH0 DUP1 REVERT JUMPDEST PUSH0 DUP2 SWAP1 POP SWAP2 SWAP1 POP JUMP JUMPDEST PUSH2 0x39B DUP2 PUSH2 0x389 JUMP JUMPDEST DUP2 EQ PUSH2 0x3A5 JUMPI PUSH0 DUP1 REVERT JUMPDEST POP JUMP JUMPDEST PUSH0 DUP2 CALLDATALOAD SWAP1 POP PUSH2 0x3B6 DUP2 PUSH2 0x392 JUMP JUMPDEST SWAP3 SWAP2 POP POP JUMP JUMPDEST PUSH0 PUSH1 0x20 DUP3 DUP5 SUB SLT ISZERO PUSH2 0x3D1 JUMPI PUSH2 0x3D0 PUSH2 0x381 JUMP JUMPDEST JUMPDEST PUSH0 PUSH2 0x3DE DUP5 DUP3 DUP6 ADD PUSH2 0x3A8 JUMP JUMPDEST SWAP2 POP POP SWAP3 SWAP2 POP POP JUMP JUMPDEST PUSH0 DUP2 MLOAD SWAP1 POP SWAP2 SWAP1 POP JUMP JUMPDEST PUSH0 DUP3 DUP3 MSTORE PUSH1 0x20 DUP3 ADD SWAP1 POP SWAP3 SWAP2 POP POP JUMP JUMPDEST DUP3 DUP2 DUP4 MCOPY PUSH0 DUP4 DUP4 ADD MSTORE POP POP POP JUMP JUMPDEST PUSH0 PUSH1 0x1F NOT PUSH1 0x1F DUP4 ADD AND SWAP1 POP SWAP2 SWAP1 POP JUMP JUMPDEST PUSH0 PUSH2 0x429 DUP3 PUSH2 0x3E7 JUMP JUMPDEST PUSH2 0x433 DUP2 DUP6 PUSH2 0x3F1 JUMP JUMPDEST SWAP4 POP PUSH2 0x443 DUP2 DUP6 PUSH1 0x20 DUP7 ADD PUSH2 0x401 JUMP JUMPDEST PUSH2 0x44C DUP2 PUSH2 0x40F JUMP JUMPDEST DUP5 ADD SWAP2 POP POP SWAP3 SWAP2 POP POP JUMP JUMPDEST PUSH0 PUSH1 0x20 DUP3 ADD SWAP1 POP DUP2 DUP2 SUB PUSH0 DUP4 ADD MSTORE PUSH2 0x46F DUP2 DUP5 PUSH2 0x41F JUMP JUMPDEST SWAP1 POP SWAP3 SWAP2 POP POP JUMP JUMPDEST PUSH0 DUP1 REVERT JUMPDEST PUSH0 DUP1 REVERT JUMPDEST PUSH0 DUP1 REVERT JUMPDEST PUSH0 DUP1 DUP4 PUSH1 0x1F DUP5 ADD SLT PUSH2 0x498 JUMPI PUSH2 0x497 PUSH2 0x477 JUMP JUMPDEST JUMPDEST DUP3 CALLDATALOAD SWAP1 POP PUSH8 0xFFFFFFFFFFFFFFFF DUP2 GT ISZERO PUSH2 0x4B5 JUMPI PUSH2 0x4B4 PUSH2 0x47B JUMP JUMPDEST JUMPDEST PUSH1 0x20 DUP4 ADD SWAP2 POP DUP4 PUSH1 0x1 DUP3 MUL DUP4 ADD GT ISZERO PUSH2 0x4D1 JUMPI PUSH2 0x4D0 PUSH2 0x47F JUMP JUMPDEST JUMPDEST SWAP3 POP SWAP3 SWAP1 POP JUMP JUMPDEST PUSH0 DUP1 PUSH0 PUSH1 0x40 DUP5 DUP7 SUB SLT ISZERO PUSH2 0x4EF JUMPI PUSH2 0x4EE PUSH2 0x381 JUMP JUMPDEST JUMPDEST PUSH0 PUSH2 0x4FC DUP7 DUP3 DUP8 ADD PUSH2 0x3A8 JUMP JUMPDEST SWAP4 POP POP PUSH1 0x20 DUP5 ADD CALLDATALOAD PUSH8 0xFFFFFFFFFFFFFFFF DUP2 GT ISZERO PUSH2 0x51D JUMPI PUSH2 0x51C PUSH2 0x385 JUMP JUMPDEST JUMPDEST PUSH2 0x529 DUP7 DUP3 DUP8 ADD PUSH2 0x483 JUMP JUMPDEST SWAP3 POP SWAP3 POP POP SWAP3 POP SWAP3 POP SWAP3 JUMP JUMPDEST PUSH32 0x4E487B7100000000000000000000000000000000000000000000000000000000 PUSH0 MSTORE PUSH1 0x22 PUSH1 0x4 MSTORE PUSH1 0x24 PUSH0 REVERT JUMPDEST PUSH0 PUSH1 0x2 DUP3 DIV SWAP1 POP PUSH1 0x1 DUP3 AND DUP1 PUSH2 0x579 JUMPI PUSH1 0x7F DUP3 AND SWAP2 POP JUMPDEST PUSH1 0x20 DUP3 LT DUP2 SUB PUSH2 0x58C JUMPI PUSH2 0x58B PUSH2 0x535 JUMP JUMPDEST JUMPDEST POP SWAP2 SWAP1 POP JUMP JUMPDEST PUSH0 DUP3 SWAP1 POP SWAP3 SWAP2 POP POP JUMP JUMPDEST PUSH32 0x4E487B7100000000000000000000000000000000000000000000000000000000 PUSH0 MSTORE PUSH1 0x41 PUSH1 0x4 MSTORE PUSH1 0x24 PUSH0 REVERT JUMPDEST PUSH0 DUP2 SWAP1 POP DUP2 PUSH0 MSTORE PUSH1 0x20 PUSH0 KECCAK256 SWAP1 POP SWAP2 SWAP1 POP JUMP JUMPDEST PUSH0 PUSH1 0x20 PUSH1 0x1F DUP4 ADD DIV SWAP1 POP SWAP2 SWAP1 POP JUMP JUMPDEST PUSH0 DUP3 DUP3 SHL SWAP1 POP SWAP3 SWAP2 POP POP JUMP JUMPDEST PUSH0 PUSH1 0x8 DUP4 MUL PUSH2 0x625 PUSH32 0xFFFFFFFFFFFFFFFFFFFFFFFFFFFFFFFFFFFFFFFFFFFFFFFFFFFFFFFFFFFFFFFF DUP3 PUSH2 0x5EA JUMP JUMPDEST PUSH2 0x62F DUP7 DUP4 PUSH2 0x5EA JUMP JUMPDEST SWAP6 POP DUP1 NOT DUP5 AND SWAP4 POP DUP1 DUP7 AND DUP5 OR SWAP3 POP POP POP SWAP4 SWAP3 POP POP POP JUMP JUMPDEST PUSH0 DUP2 SWAP1 POP SWAP2 SWAP1 POP JUMP JUMPDEST PUSH0 PUSH2 0x66A PUSH2 0x665 PUSH2 0x660 DUP5 PUSH2 0x389 JUMP JUMPDEST PUSH2 0x647 JUMP JUMPDEST PUSH2 0x389 JUMP JUMPDEST SWAP1 POP SWAP2 SWAP1 POP JUMP JUMPDEST PUSH0 DUP2 SWAP1 POP SWAP2 SWAP1 POP JUMP JUMPDEST PUSH2 0x683 DUP4 PUSH2 0x650 JUMP JUMPDEST PUSH2 0x697 PUSH2 0x68F DUP3 PUSH2 0x671 JUMP JUMPDEST DUP5 DUP5 SLOAD PUSH2 0x5F6 JUMP JUMPDEST DUP3 SSTORE POP POP POP POP JUMP JUMPDEST PUSH0 SWAP1 JUMP JUMPDEST PUSH2 0x6AB PUSH2 0x69F JUMP JUMPDEST PUSH2 0x6B6 DUP2 DUP5 DUP5 PUSH2 0x67A JUMP JUMPDEST POP POP POP JUMP JUMPDEST JUMPDEST DUP2 DUP2 LT ISZERO PUSH2 0x6D9 JUMPI PUSH2 0x6CE PUSH0 DUP3 PUSH2 0x6A3 JUMP JUMPDEST PUSH1 0x1 DUP2 ADD SWAP1 POP PUSH2 0x6BC JUMP JUMPDEST POP POP JUMP JUMPDEST PUSH1 0x1F DUP3 GT ISZERO PUSH2 0x71E JUMPI PUSH2 0x6EF DUP2 PUSH2 0x5C9 JUMP JUMPDEST PUSH2 0x6F8 DUP5 PUSH2 0x5DB JUMP JUMPDEST DUP2 ADD PUSH1 0x20 DUP6 LT ISZERO PUSH2 0x707 JUMPI DUP2 SWAP1 POP JUMPDEST PUSH2 0x71B PUSH2 0x713 DUP6 PUSH2 0x5DB JUMP JUMPDEST DUP4 ADD DUP3 PUSH2 0x6BB JUMP JUMPDEST POP POP JUMPDEST POP POP POP JUMP JUMPDEST PUSH0 DUP3 DUP3 SHR SWAP1 POP SWAP3 SWAP2 POP POP JUMP JUMPDEST PUSH0 PUSH2 0x73E PUSH0 NOT DUP5 PUSH1 0x8 MUL PUSH2 0x723 JUMP JUMPDEST NOT DUP1 DUP4 AND SWAP2 POP POP SWAP3 SWAP2 POP POP JUMP JUMPDEST PUSH0 PUSH2 0x756 DUP4 DUP4 PUSH2 0x72F JUMP JUMPDEST SWAP2 POP DUP3 PUSH1 0x2 MUL DUP3 OR SWAP1 POP SWAP3 SWAP2 POP POP JUMP JUMPDEST PUSH2 0x770 DUP4 DUP4 PUSH2 0x592 JUMP JUMPDEST PUSH8 0xFFFFFFFFFFFFFFFF DUP2 GT ISZERO PUSH2 0x789 JUMPI PUSH2 0x788 PUSH2 0x59C JUMP JUMPDEST JUMPDEST PUSH2 0x793 DUP3 SLOAD PUSH2 0x562 JUMP JUMPDEST PUSH2 0x79E DUP3 DUP3 DUP6 PUSH2 0x6DD JUMP JUMPDEST PUSH0 PUSH1 0x1F DUP4 GT PUSH1 0x1 DUP2 EQ PUSH2 0x7CB JUMPI PUSH0 DUP5 ISZERO PUSH2 0x7B9 JUMPI DUP3 DUP8 ADD CALLDATALOAD SWAP1 POP JUMPDEST PUSH2 0x7C3 DUP6 DUP3 PUSH2 0x74B JUMP JUMPDEST DUP7 SSTORE POP PUSH2 0x82A JUMP JUMPDEST PUSH1 0x1F NOT DUP5 AND PUSH2 0x7D9 DUP7 PUSH2 0x5C9 JUMP JUMPDEST PUSH0 JUMPDEST DUP3 DUP2 LT ISZERO PUSH2 0x800 JUMPI DUP5 DUP10 ADD CALLDATALOAD DUP3 SSTORE PUSH1 0x1 DUP3 ADD SWAP2 POP PUSH1 0x20 DUP6 ADD SWAP5 POP PUSH1 0x20 DUP2 ADD SWAP1 POP PUSH2 0x7DB JUMP JUMPDEST DUP7 DUP4 LT ISZERO PUSH2 0x81D JUMPI DUP5 DUP10 ADD CALLDATALOAD PUSH2 0x819 PUSH1 0x1F DUP10 AND DUP3 PUSH2 0x72F JUMP JUMPDEST DUP4 SSTORE POP JUMPDEST PUSH1 0x1 PUSH1 0x2 DUP9 MUL ADD DUP9 SSTORE POP POP POP JUMPDEST POP POP POP POP POP POP POP JUMP JUMPDEST PUSH32 0x4E487B7100000000000000000000000000000000000000000000000000000000 PUSH0 MSTORE PUSH1 0x21 PUSH1 0x4 MSTORE PUSH1 0x24 PUSH0 REVERT JUMPDEST PUSH1 0x4 DUP2 LT PUSH2 0x871 JUMPI PUSH2 0x870 PUSH2 0x833 JUMP JUMPDEST JUMPDEST POP JUMP JUMPDEST PUSH0 DUP2 SWAP1 POP PUSH2 0x881 DUP3 PUSH2 0x860 JUMP JUMPDEST SWAP2 SWAP1 POP JUMP JUMPDEST PUSH0 PUSH2 0x890 DUP3 PUSH2 0x874 JUMP JUMPDEST SWAP1 POP SWAP2 SWAP1 POP JUMP JUMPDEST PUSH2 0x8A0 DUP2 PUSH2 0x886 JUMP JUMPDEST DUP3 MSTORE POP POP JUMP JUMPDEST PUSH1 0x4 DUP2 LT PUSH2 0x8B7 JUMPI PUSH2 0x8B6 PUSH2 0x833 JUMP JUMPDEST JUMPDEST POP JUMP JUMPDEST PUSH0 DUP2 SWAP1 POP PUSH2 0x8C7 DUP3 PUSH2 0x8A6 JUMP JUMPDEST SWAP2 SWAP1 POP JUMP JUMPDEST PUSH0 PUSH2 0x8D6 DUP3 PUSH2 0x8BA JUMP JUMPDEST SWAP1 POP SWAP2 SWAP1 POP JUMP JUMPDEST PUSH2 0x8E6 DUP2 PUSH2 0x8CC JUMP JUMPDEST DUP3 MSTORE POP POP JUMP JUMPDEST PUSH0 PUSH1 0x40 DUP3 ADD SWAP1 POP PUSH2 0x8FF PUSH0 DUP4 ADD DUP6 PUSH2 0x897 JUMP JUMPDEST PUSH2 0x90C PUSH1 0x20 DUP4 ADD DUP5 PUSH2 0x8DD JUMP JUMPDEST SWAP4 SWAP3 POP POP POP JUMP INVALID LOG2 PUSH5 0x6970667358 0x22 SLT KECCAK256 SUB 0xF7 0xD3 DUP7 0xD9 0x2B ORIGIN 0x2F 0xCF JUMPI JUMPDEST CALLER 0xAB REVERT SLT AND DUP15 MLOAD REVERT DUP3 0xE8 PUSH19 0xEE8F6AD3F769605E386464736F6C634300081A STOP CALLER "
				},
				"gasEstimates": {
					"creation": {
						"codeDepositCost": "475400",
						"executionCost": "24774",
						"totalCost": "500174"
					},
					"external": {
						"owner()": "2486",
						"retrieve(uint256)": "infinite",
						"store(uint256,bytes)": "infinite"
					}
				},
				"methodIdentifiers": {
					"owner()": "8da5cb5b",
					"retrieve(uint256)": "8f88708b",
					"store(uint256,bytes)": "fededdb5"
				}
			},
			"storageLayout": {
				"storage": [
					{
						"astId": 141,
						"contract": "D/Data Custodian/Data Custodian.sol:DataCustodianSafe",
						"label": "records",
						"offset": 0,
						"slot": "0",
						"type": "t_mapping(t_uint256,t_bytes_storage)"
					},
					{
						"astId": 145,
						"contract": "D/Data Custodian/Data Custodian.sol:DataCustodianSafe",
						"label": "_set",
						"offset": 0,
						"slot": "1",
						"type": "t_mapping(t_uint256,t_bool)"
					},
					{
						"astId": 147,
						"contract": "D/Data Custodian/Data Custodian.sol:DataCustodianSafe",
						"label": "owner",
						"offset": 0,
						"slot": "2",
						"type": "t_address"
					}
				],
				"types": {
					"t_address": {
						"encoding": "inplace",
						"label": "address",
						"numberOfBytes": "20"
					},
					"t_bool": {
						"encoding": "inplace",
						"label": "bool",
						"numberOfBytes": "1"
					},
					"t_bytes_storage": {
						"encoding": "bytes",
						"label": "bytes",
						"numberOfBytes": "32"
					},
					"t_mapping(t_uint256,t_bool)": {
						"encoding": "mapping",
						"key": "t_uint256",
						"label": "mapping(uint256 => bool)",
						"numberOfBytes": "32",
						"value": "t_bool"
					},
					"t_mapping(t_uint256,t_bytes_storage)": {
						"encoding": "mapping",
						"key": "t_uint256",
						"label": "mapping(uint256 => bytes)",
						"numberOfBytes": "32",
						"value": "t_bytes_storage"
					},
					"t_uint256": {
						"encoding": "inplace",
						"label": "uint256",
						"numberOfBytes": "32"
					}
				}
			},
			"userdoc": {
				"kind": "user",
				"methods": {
					"store(uint256,bytes)": {
						"notice": "✅ only owner may store, and only once per id"
					}
				},
				"notice": "───────────────────────────────────────────────────────────────────────────── 3) SAFE CUSTODIAN (OWNER‑ONLY, IMMUTABLE ONCE)    • Defense: AccessControl + ImmutableRecord ─────────────────────────────────────────────────────────────────────────────",
				"version": 1
			}
		}
	}
}