{
	"H/Host-Based ID/Host Spoofing Attack.sol": {
		"FakeHostID": {
			"abi": [
				{
					"inputs": [],
					"name": "getOrigin",
					"outputs": [
						{
							"internalType": "string",
							"name": "",
							"type": "string"
						}
					],
					"stateMutability": "pure",
					"type": "function"
				},
				{
					"inputs": [],
					"name": "isTrusted",
					"outputs": [
						{
							"internalType": "bool",
							"name": "",
							"type": "bool"
						}
					],
					"stateMutability": "pure",
					"type": "function"
				}
			],
			"devdoc": {
				"kind": "dev",
				"methods": {},
				"version": 1
			},
			"evm": {
				"assembly": "    /* \"H/Host-Based ID/Host Spoofing Attack.sol\":0:228  contract FakeHostID {... */\n  mstore(0x40, 0x80)\n  callvalue\n  dup1\n  iszero\n  tag_1\n  jumpi\n  0x00\n  dup1\n  revert\ntag_1:\n  pop\n  dataSize(sub_0)\n  dup1\n  dataOffset(sub_0)\n  0x00\n  codecopy\n  0x00\n  return\nstop\n\nsub_0: assembly {\n        /* \"H/Host-Based ID/Host Spoofing Attack.sol\":0:228  contract FakeHostID {... */\n      mstore(0x40, 0x80)\n      callvalue\n      dup1\n      iszero\n      tag_1\n      jumpi\n      0x00\n      dup1\n      revert\n    tag_1:\n      pop\n      jumpi(tag_2, lt(calldatasize, 0x04))\n      shr(0xe0, calldataload(0x00))\n      dup1\n      0x0d01bde8\n      eq\n      tag_3\n      jumpi\n      dup1\n      0xdf1f29ee\n      eq\n      tag_4\n      jumpi\n    tag_2:\n      0x00\n      dup1\n      revert\n        /* \"H/Host-Based ID/Host Spoofing Attack.sol\":148:226  function isTrusted() external pure returns (bool) {... */\n    tag_3:\n      tag_5\n      tag_6\n      jump\t// in\n    tag_5:\n      mload(0x40)\n      tag_7\n      swap2\n      swap1\n      tag_8\n      jump\t// in\n    tag_7:\n      mload(0x40)\n      dup1\n      swap2\n      sub\n      swap1\n      return\n        /* \"H/Host-Based ID/Host Spoofing Attack.sol\":26:142  function getOrigin() external pure returns (string memory) {... */\n    tag_4:\n      tag_9\n      tag_10\n      jump\t// in\n    tag_9:\n      mload(0x40)\n      tag_11\n      swap2\n      swap1\n      tag_12\n      jump\t// in\n    tag_11:\n      mload(0x40)\n      dup1\n      swap2\n      sub\n      swap1\n      return\n        /* \"H/Host-Based ID/Host Spoofing Attack.sol\":148:226  function isTrusted() external pure returns (bool) {... */\n    tag_6:\n        /* \"H/Host-Based ID/Host Spoofing Attack.sol\":192:196  bool */\n      0x00\n        /* \"H/Host-Based ID/Host Spoofing Attack.sol\":215:219  true */\n      0x01\n        /* \"H/Host-Based ID/Host Spoofing Attack.sol\":208:219  return true */\n      swap1\n      pop\n        /* \"H/Host-Based ID/Host Spoofing Attack.sol\":148:226  function isTrusted() external pure returns (bool) {... */\n      swap1\n      jump\t// out\n        /* \"H/Host-Based ID/Host Spoofing Attack.sol\":26:142  function getOrigin() external pure returns (string memory) {... */\n    tag_10:\n        /* \"H/Host-Based ID/Host Spoofing Attack.sol\":70:83  string memory */\n      0x60\n        /* \"H/Host-Based ID/Host Spoofing Attack.sol\":95:118  return \"valid.host.eth\" */\n      mload(0x40)\n      dup1\n      0x40\n      add\n      0x40\n      mstore\n      dup1\n      0x0e\n      dup2\n      mstore\n      0x20\n      add\n      0x76616c69642e686f73742e657468000000000000000000000000000000000000\n      dup2\n      mstore\n      pop\n      swap1\n      pop\n        /* \"H/Host-Based ID/Host Spoofing Attack.sol\":26:142  function getOrigin() external pure returns (string memory) {... */\n      swap1\n      jump\t// out\n        /* \"#utility.yul\":7:97   */\n    tag_15:\n        /* \"#utility.yul\":41:48   */\n      0x00\n        /* \"#utility.yul\":84:89   */\n      dup2\n        /* \"#utility.yul\":77:90   */\n      iszero\n        /* \"#utility.yul\":70:91   */\n      iszero\n        /* \"#utility.yul\":59:91   */\n      swap1\n      pop\n        /* \"#utility.yul\":7:97   */\n      swap2\n      swap1\n      pop\n      jump\t// out\n        /* \"#utility.yul\":103:212   */\n    tag_16:\n        /* \"#utility.yul\":184:205   */\n      tag_25\n        /* \"#utility.yul\":199:204   */\n      dup2\n        /* \"#utility.yul\":184:205   */\n      tag_15\n      jump\t// in\n    tag_25:\n        /* \"#utility.yul\":179:182   */\n      dup3\n        /* \"#utility.yul\":172:206   */\n      mstore\n        /* \"#utility.yul\":103:212   */\n      pop\n      pop\n      jump\t// out\n        /* \"#utility.yul\":218:428   */\n    tag_8:\n        /* \"#utility.yul\":305:309   */\n      0x00\n        /* \"#utility.yul\":343:345   */\n      0x20\n        /* \"#utility.yul\":332:341   */\n      dup3\n        /* \"#utility.yul\":328:346   */\n      add\n        /* \"#utility.yul\":320:346   */\n      swap1\n      pop\n        /* \"#utility.yul\":356:421   */\n      tag_27\n        /* \"#utility.yul\":418:419   */\n      0x00\n        /* \"#utility.yul\":407:416   */\n      dup4\n        /* \"#utility.yul\":403:420   */\n      add\n        /* \"#utility.yul\":394:400   */\n      dup5\n        /* \"#utility.yul\":356:421   */\n      tag_16\n      jump\t// in\n    tag_27:\n        /* \"#utility.yul\":218:428   */\n      swap3\n      swap2\n      pop\n      pop\n      jump\t// out\n        /* \"#utility.yul\":434:533   */\n    tag_17:\n        /* \"#utility.yul\":486:492   */\n      0x00\n        /* \"#utility.yul\":520:525   */\n      dup2\n        /* \"#utility.yul\":514:526   */\n      mload\n        /* \"#utility.yul\":504:526   */\n      swap1\n      pop\n        /* \"#utility.yul\":434:533   */\n      swap2\n      swap1\n      pop\n      jump\t// out\n        /* \"#utility.yul\":539:708   */\n    tag_18:\n        /* \"#utility.yul\":623:634   */\n      0x00\n        /* \"#utility.yul\":657:663   */\n      dup3\n        /* \"#utility.yul\":652:655   */\n      dup3\n        /* \"#utility.yul\":645:664   */\n      mstore\n        /* \"#utility.yul\":697:701   */\n      0x20\n        /* \"#utility.yul\":692:695   */\n      dup3\n        /* \"#utility.yul\":688:702   */\n      add\n        /* \"#utility.yul\":673:702   */\n      swap1\n      pop\n        /* \"#utility.yul\":539:708   */\n      swap3\n      swap2\n      pop\n      pop\n      jump\t// out\n        /* \"#utility.yul\":714:853   */\n    tag_19:\n        /* \"#utility.yul\":803:809   */\n      dup3\n        /* \"#utility.yul\":798:801   */\n      dup2\n        /* \"#utility.yul\":793:796   */\n      dup4\n        /* \"#utility.yul\":787:810   */\n      mcopy\n        /* \"#utility.yul\":844:845   */\n      0x00\n        /* \"#utility.yul\":835:841   */\n      dup4\n        /* \"#utility.yul\":830:833   */\n      dup4\n        /* \"#utility.yul\":826:842   */\n      add\n        /* \"#utility.yul\":819:846   */\n      mstore\n        /* \"#utility.yul\":714:853   */\n      pop\n      pop\n      pop\n      jump\t// out\n        /* \"#utility.yul\":859:961   */\n    tag_20:\n        /* \"#utility.yul\":900:906   */\n      0x00\n        /* \"#utility.yul\":951:953   */\n      0x1f\n        /* \"#utility.yul\":947:954   */\n      not\n        /* \"#utility.yul\":942:944   */\n      0x1f\n        /* \"#utility.yul\":935:940   */\n      dup4\n        /* \"#utility.yul\":931:945   */\n      add\n        /* \"#utility.yul\":927:955   */\n      and\n        /* \"#utility.yul\":917:955   */\n      swap1\n      pop\n        /* \"#utility.yul\":859:961   */\n      swap2\n      swap1\n      pop\n      jump\t// out\n        /* \"#utility.yul\":967:1344   */\n    tag_21:\n        /* \"#utility.yul\":1055:1058   */\n      0x00\n        /* \"#utility.yul\":1083:1122   */\n      tag_33\n        /* \"#utility.yul\":1116:1121   */\n      dup3\n        /* \"#utility.yul\":1083:1122   */\n      tag_17\n      jump\t// in\n    tag_33:\n        /* \"#utility.yul\":1138:1209   */\n      tag_34\n        /* \"#utility.yul\":1202:1208   */\n      dup2\n        /* \"#utility.yul\":1197:1200   */\n      dup6\n        /* \"#utility.yul\":1138:1209   */\n      tag_18\n      jump\t// in\n    tag_34:\n        /* \"#utility.yul\":1131:1209   */\n      swap4\n      pop\n        /* \"#utility.yul\":1218:1283   */\n      tag_35\n        /* \"#utility.yul\":1276:1282   */\n      dup2\n        /* \"#utility.yul\":1271:1274   */\n      dup6\n        /* \"#utility.yul\":1264:1268   */\n      0x20\n        /* \"#utility.yul\":1257:1262   */\n      dup7\n        /* \"#utility.yul\":1253:1269   */\n      add\n        /* \"#utility.yul\":1218:1283   */\n      tag_19\n      jump\t// in\n    tag_35:\n        /* \"#utility.yul\":1308:1337   */\n      tag_36\n        /* \"#utility.yul\":1330:1336   */\n      dup2\n        /* \"#utility.yul\":1308:1337   */\n      tag_20\n      jump\t// in\n    tag_36:\n        /* \"#utility.yul\":1303:1306   */\n      dup5\n        /* \"#utility.yul\":1299:1338   */\n      add\n        /* \"#utility.yul\":1292:1338   */\n      swap2\n      pop\n        /* \"#utility.yul\":1059:1344   */\n      pop\n        /* \"#utility.yul\":967:1344   */\n      swap3\n      swap2\n      pop\n      pop\n      jump\t// out\n        /* \"#utility.yul\":1350:1663   */\n    tag_12:\n        /* \"#utility.yul\":1463:1467   */\n      0x00\n        /* \"#utility.yul\":1501:1503   */\n      0x20\n        /* \"#utility.yul\":1490:1499   */\n      dup3\n        /* \"#utility.yul\":1486:1504   */\n      add\n        /* \"#utility.yul\":1478:1504   */\n      swap1\n      pop\n        /* \"#utility.yul\":1550:1559   */\n      dup2\n        /* \"#utility.yul\":1544:1548   */\n      dup2\n        /* \"#utility.yul\":1540:1560   */\n      sub\n        /* \"#utility.yul\":1536:1537   */\n      0x00\n        /* \"#utility.yul\":1525:1534   */\n      dup4\n        /* \"#utility.yul\":1521:1538   */\n      add\n        /* \"#utility.yul\":1514:1561   */\n      mstore\n        /* \"#utility.yul\":1578:1656   */\n      tag_38\n        /* \"#utility.yul\":1651:1655   */\n      dup2\n        /* \"#utility.yul\":1642:1648   */\n      dup5\n        /* \"#utility.yul\":1578:1656   */\n      tag_21\n      jump\t// in\n    tag_38:\n        /* \"#utility.yul\":1570:1656   */\n      swap1\n      pop\n        /* \"#utility.yul\":1350:1663   */\n      swap3\n      swap2\n      pop\n      pop\n      jump\t// out\n\n    auxdata: 0xa26469706673582212204795808e9c06751e7319a368fa62ce3d19a128b424960e9342dce28f8f5464b964736f6c634300081a0033\n}\n",
				"bytecode": {
					"linkReferences": {},
					"object": "6080604052348015600e575f80fd5b506101b28061001c5f395ff3fe608060405234801561000f575f80fd5b5060043610610034575f3560e01c80630d01bde814610038578063df1f29ee14610056575b5f80fd5b610040610074565b60405161004d91906100d3565b60405180910390f35b61005e61007c565b60405161006b919061015c565b60405180910390f35b5f6001905090565b60606040518060400160405280600e81526020017f76616c69642e686f73742e657468000000000000000000000000000000000000815250905090565b5f8115159050919050565b6100cd816100b9565b82525050565b5f6020820190506100e65f8301846100c4565b92915050565b5f81519050919050565b5f82825260208201905092915050565b8281835e5f83830152505050565b5f601f19601f8301169050919050565b5f61012e826100ec565b61013881856100f6565b9350610148818560208601610106565b61015181610114565b840191505092915050565b5f6020820190508181035f8301526101748184610124565b90509291505056fea26469706673582212204795808e9c06751e7319a368fa62ce3d19a128b424960e9342dce28f8f5464b964736f6c634300081a0033",
					"opcodes": "PUSH1 0x80 PUSH1 0x40 MSTORE CALLVALUE DUP1 ISZERO PUSH1 0xE JUMPI PUSH0 DUP1 REVERT JUMPDEST POP PUSH2 0x1B2 DUP1 PUSH2 0x1C PUSH0 CODECOPY PUSH0 RETURN INVALID PUSH1 0x80 PUSH1 0x40 MSTORE CALLVALUE DUP1 ISZERO PUSH2 0xF JUMPI PUSH0 DUP1 REVERT JUMPDEST POP PUSH1 0x4 CALLDATASIZE LT PUSH2 0x34 JUMPI PUSH0 CALLDATALOAD PUSH1 0xE0 SHR DUP1 PUSH4 0xD01BDE8 EQ PUSH2 0x38 JUMPI DUP1 PUSH4 0xDF1F29EE EQ PUSH2 0x56 JUMPI JUMPDEST PUSH0 DUP1 REVERT JUMPDEST PUSH2 0x40 PUSH2 0x74 JUMP JUMPDEST PUSH1 0x40 MLOAD PUSH2 0x4D SWAP2 SWAP1 PUSH2 0xD3 JUMP JUMPDEST PUSH1 0x40 MLOAD DUP1 SWAP2 SUB SWAP1 RETURN JUMPDEST PUSH2 0x5E PUSH2 0x7C JUMP JUMPDEST PUSH1 0x40 MLOAD PUSH2 0x6B SWAP2 SWAP1 PUSH2 0x15C JUMP JUMPDEST PUSH1 0x40 MLOAD DUP1 SWAP2 SUB SWAP1 RETURN JUMPDEST PUSH0 PUSH1 0x1 SWAP1 POP SWAP1 JUMP JUMPDEST PUSH1 0x60 PUSH1 0x40 MLOAD DUP1 PUSH1 0x40 ADD PUSH1 0x40 MSTORE DUP1 PUSH1 0xE DUP2 MSTORE PUSH1 0x20 ADD PUSH32 0x76616C69642E686F73742E657468000000000000000000000000000000000000 DUP2 MSTORE POP SWAP1 POP SWAP1 JUMP JUMPDEST PUSH0 DUP2 ISZERO ISZERO SWAP1 POP SWAP2 SWAP1 POP JUMP JUMPDEST PUSH2 0xCD DUP2 PUSH2 0xB9 JUMP JUMPDEST DUP3 MSTORE POP POP JUMP JUMPDEST PUSH0 PUSH1 0x20 DUP3 ADD SWAP1 POP PUSH2 0xE6 PUSH0 DUP4 ADD DUP5 PUSH2 0xC4 JUMP JUMPDEST SWAP3 SWAP2 POP POP JUMP JUMPDEST PUSH0 DUP2 MLOAD SWAP1 POP SWAP2 SWAP1 POP JUMP JUMPDEST PUSH0 DUP3 DUP3 MSTORE PUSH1 0x20 DUP3 ADD SWAP1 POP SWAP3 SWAP2 POP POP JUMP JUMPDEST DUP3 DUP2 DUP4 MCOPY PUSH0 DUP4 DUP4 ADD MSTORE POP POP POP JUMP JUMPDEST PUSH0 PUSH1 0x1F NOT PUSH1 0x1F DUP4 ADD AND SWAP1 POP SWAP2 SWAP1 POP JUMP JUMPDEST PUSH0 PUSH2 0x12E DUP3 PUSH2 0xEC JUMP JUMPDEST PUSH2 0x138 DUP2 DUP6 PUSH2 0xF6 JUMP JUMPDEST SWAP4 POP PUSH2 0x148 DUP2 DUP6 PUSH1 0x20 DUP7 ADD PUSH2 0x106 JUMP JUMPDEST PUSH2 0x151 DUP2 PUSH2 0x114 JUMP JUMPDEST DUP5 ADD SWAP2 POP POP SWAP3 SWAP2 POP POP JUMP JUMPDEST PUSH0 PUSH1 0x20 DUP3 ADD SWAP1 POP DUP2 DUP2 SUB PUSH0 DUP4 ADD MSTORE PUSH2 0x174 DUP2 DUP5 PUSH2 0x124 JUMP JUMPDEST SWAP1 POP SWAP3 SWAP2 POP POP JUMP INVALID LOG2 PUSH5 0x6970667358 0x22 SLT KECCAK256 SELFBALANCE SWAP6 DUP1 DUP15 SWAP13 MOD PUSH22 0x1E7319A368FA62CE3D19A128B424960E9342DCE28F8F SLOAD PUSH5 0xB964736F6C PUSH4 0x4300081A STOP CALLER "
				},
				"gasEstimates": {
					"creation": {
						"codeDepositCost": "86800",
						"executionCost": "133",
						"totalCost": "86933"
					},
					"external": {
						"getOrigin()": "infinite",
						"isTrusted()": "316"
					}
				},
				"methodIdentifiers": {
					"getOrigin()": "df1f29ee",
					"isTrusted()": "0d01bde8"
				}
			},
			"storageLayout": {
				"storage": [],
				"types": null
			},
			"userdoc": {
				"kind": "user",
				"methods": {},
				"version": 1
			}
		}
	}
}