{
	"C/Challenge-Handshake Authentication Protocol (CHAP )/attack Replayed Challenge.sol": {
		"NaiveCHAP": {
			"abi": [
				{
					"inputs": [],
					"name": "challenge",
					"outputs": [
						{
							"internalType": "bytes32",
							"name": "",
							"type": "bytes32"
						}
					],
					"stateMutability": "view",
					"type": "function"
				},
				{
					"inputs": [
						{
							"internalType": "address",
							"name": "",
							"type": "address"
						}
					],
					"name": "isAuthenticated",
					"outputs": [
						{
							"internalType": "bool",
							"name": "",
							"type": "bool"
						}
					],
					"stateMutability": "view",
					"type": "function"
				},
				{
					"inputs": [
						{
							"internalType": "bytes32",
							"name": "response",
							"type": "bytes32"
						}
					],
					"name": "respond",
					"outputs": [],
					"stateMutability": "nonpayable",
					"type": "function"
				}
			],
			"devdoc": {
				"kind": "dev",
				"methods": {},
				"version": 1
			},
			"evm": {
				"assembly": "    /* \"C/Challenge-Handshake Authentication Protocol (CHAP )/attack Replayed Challenge.sol\":178:584  contract NaiveCHAP {... */\n  mstore(0x40, 0x80)\n    /* \"C/Challenge-Handshake Authentication Protocol (CHAP )/attack Replayed Challenge.sol\":230:259  keccak256(\"static-challenge\") */\n  0x49c97b6f8aca92cbed4c87fa69cd11f7cd68c63ea623eb3d1de465b04b89f97f\n    /* \"C/Challenge-Handshake Authentication Protocol (CHAP )/attack Replayed Challenge.sol\":203:259  bytes32 public challenge = keccak256(\"static-challenge\") */\n  0x00\n  sstore\n    /* \"C/Challenge-Handshake Authentication Protocol (CHAP )/attack Replayed Challenge.sol\":178:584  contract NaiveCHAP {... */\n  callvalue\n  dup1\n  iszero\n  tag_1\n  jumpi\n  0x00\n  dup1\n  revert\ntag_1:\n  pop\n  dataSize(sub_0)\n  dup1\n  dataOffset(sub_0)\n  0x00\n  codecopy\n  0x00\n  return\nstop\n\nsub_0: assembly {\n        /* \"C/Challenge-Handshake Authentication Protocol (CHAP )/attack Replayed Challenge.sol\":178:584  contract NaiveCHAP {... */\n      mstore(0x40, 0x80)\n      callvalue\n      dup1\n      iszero\n      tag_1\n      jumpi\n      0x00\n      dup1\n      revert\n    tag_1:\n      pop\n      jumpi(tag_2, lt(calldatasize, 0x04))\n      shr(0xe0, calldataload(0x00))\n      dup1\n      0x1982f1d3\n      eq\n      tag_3\n      jumpi\n      dup1\n      0xd15d4150\n      eq\n      tag_4\n      jumpi\n      dup1\n      0xd2ef7398\n      eq\n      tag_5\n      jumpi\n    tag_2:\n      0x00\n      dup1\n      revert\n        /* \"C/Challenge-Handshake Authentication Protocol (CHAP )/attack Replayed Challenge.sol\":319:582  function respond(bytes32 response) external {... */\n    tag_3:\n      tag_6\n      0x04\n      dup1\n      calldatasize\n      sub\n      dup2\n      add\n      swap1\n      tag_7\n      swap2\n      swap1\n      tag_8\n      jump\t// in\n    tag_7:\n      tag_9\n      jump\t// in\n    tag_6:\n      stop\n        /* \"C/Challenge-Handshake Authentication Protocol (CHAP )/attack Replayed Challenge.sol\":265:312  mapping(address => bool) public isAuthenticated */\n    tag_4:\n      tag_10\n      0x04\n      dup1\n      calldatasize\n      sub\n      dup2\n      add\n      swap1\n      tag_11\n      swap2\n      swap1\n      tag_12\n      jump\t// in\n    tag_11:\n      tag_13\n      jump\t// in\n    tag_10:\n      mload(0x40)\n      tag_14\n      swap2\n      swap1\n      tag_15\n      jump\t// in\n    tag_14:\n      mload(0x40)\n      dup1\n      swap2\n      sub\n      swap1\n      return\n        /* \"C/Challenge-Handshake Authentication Protocol (CHAP )/attack Replayed Challenge.sol\":203:259  bytes32 public challenge = keccak256(\"static-challenge\") */\n    tag_5:\n      tag_16\n      tag_17\n      jump\t// in\n    tag_16:\n      mload(0x40)\n      tag_18\n      swap2\n      swap1\n      tag_19\n      jump\t// in\n    tag_18:\n      mload(0x40)\n      dup1\n      swap2\n      sub\n      swap1\n      return\n        /* \"C/Challenge-Handshake Authentication Protocol (CHAP )/attack Replayed Challenge.sol\":319:582  function respond(bytes32 response) external {... */\n    tag_9:\n        /* \"C/Challenge-Handshake Authentication Protocol (CHAP )/attack Replayed Challenge.sol\":492:502  msg.sender */\n      caller\n        /* \"C/Challenge-Handshake Authentication Protocol (CHAP )/attack Replayed Challenge.sol\":504:513  challenge */\n      sload(0x00)\n        /* \"C/Challenge-Handshake Authentication Protocol (CHAP )/attack Replayed Challenge.sol\":475:514  abi.encodePacked(msg.sender, challenge) */\n      add(0x20, mload(0x40))\n      tag_21\n      swap3\n      swap2\n      swap1\n      tag_22\n      jump\t// in\n    tag_21:\n      mload(0x40)\n      0x20\n      dup2\n      dup4\n      sub\n      sub\n      dup2\n      mstore\n      swap1\n      0x40\n      mstore\n        /* \"C/Challenge-Handshake Authentication Protocol (CHAP )/attack Replayed Challenge.sol\":465:515  keccak256(abi.encodePacked(msg.sender, challenge)) */\n      dup1\n      mload\n      swap1\n      0x20\n      add\n      keccak256\n        /* \"C/Challenge-Handshake Authentication Protocol (CHAP )/attack Replayed Challenge.sol\":453:461  response */\n      dup2\n        /* \"C/Challenge-Handshake Authentication Protocol (CHAP )/attack Replayed Challenge.sol\":453:515  response == keccak256(abi.encodePacked(msg.sender, challenge)) */\n      sub\n        /* \"C/Challenge-Handshake Authentication Protocol (CHAP )/attack Replayed Challenge.sol\":449:576  if (response == keccak256(abi.encodePacked(msg.sender, challenge))) {... */\n      tag_23\n      jumpi\n        /* \"C/Challenge-Handshake Authentication Protocol (CHAP )/attack Replayed Challenge.sol\":561:565  true */\n      0x01\n        /* \"C/Challenge-Handshake Authentication Protocol (CHAP )/attack Replayed Challenge.sol\":531:546  isAuthenticated */\n      dup1\n        /* \"C/Challenge-Handshake Authentication Protocol (CHAP )/attack Replayed Challenge.sol\":531:558  isAuthenticated[msg.sender] */\n      0x00\n        /* \"C/Challenge-Handshake Authentication Protocol (CHAP )/attack Replayed Challenge.sol\":547:557  msg.sender */\n      caller\n        /* \"C/Challenge-Handshake Authentication Protocol (CHAP )/attack Replayed Challenge.sol\":531:558  isAuthenticated[msg.sender] */\n      0xffffffffffffffffffffffffffffffffffffffff\n      and\n      0xffffffffffffffffffffffffffffffffffffffff\n      and\n      dup2\n      mstore\n      0x20\n      add\n      swap1\n      dup2\n      mstore\n      0x20\n      add\n      0x00\n      keccak256\n      0x00\n        /* \"C/Challenge-Handshake Authentication Protocol (CHAP )/attack Replayed Challenge.sol\":531:565  isAuthenticated[msg.sender] = true */\n      0x0100\n      exp\n      dup2\n      sload\n      dup2\n      0xff\n      mul\n      not\n      and\n      swap1\n      dup4\n      iszero\n      iszero\n      mul\n      or\n      swap1\n      sstore\n      pop\n        /* \"C/Challenge-Handshake Authentication Protocol (CHAP )/attack Replayed Challenge.sol\":449:576  if (response == keccak256(abi.encodePacked(msg.sender, challenge))) {... */\n    tag_23:\n        /* \"C/Challenge-Handshake Authentication Protocol (CHAP )/attack Replayed Challenge.sol\":319:582  function respond(bytes32 response) external {... */\n      pop\n      jump\t// out\n        /* \"C/Challenge-Handshake Authentication Protocol (CHAP )/attack Replayed Challenge.sol\":265:312  mapping(address => bool) public isAuthenticated */\n    tag_13:\n      mstore(0x20, 0x01)\n      dup1\n      0x00\n      mstore\n      keccak256(0x00, 0x40)\n      0x00\n      swap2\n      pop\n      sload\n      swap1\n      0x0100\n      exp\n      swap1\n      div\n      0xff\n      and\n      dup2\n      jump\t// out\n        /* \"C/Challenge-Handshake Authentication Protocol (CHAP )/attack Replayed Challenge.sol\":203:259  bytes32 public challenge = keccak256(\"static-challenge\") */\n    tag_17:\n      sload(0x00)\n      dup2\n      jump\t// out\n        /* \"#utility.yul\":88:205   */\n    tag_25:\n        /* \"#utility.yul\":197:198   */\n      0x00\n        /* \"#utility.yul\":194:195   */\n      dup1\n        /* \"#utility.yul\":187:199   */\n      revert\n        /* \"#utility.yul\":334:411   */\n    tag_27:\n        /* \"#utility.yul\":371:378   */\n      0x00\n        /* \"#utility.yul\":400:405   */\n      dup2\n        /* \"#utility.yul\":389:405   */\n      swap1\n      pop\n        /* \"#utility.yul\":334:411   */\n      swap2\n      swap1\n      pop\n      jump\t// out\n        /* \"#utility.yul\":417:539   */\n    tag_28:\n        /* \"#utility.yul\":490:514   */\n      tag_49\n        /* \"#utility.yul\":508:513   */\n      dup2\n        /* \"#utility.yul\":490:514   */\n      tag_27\n      jump\t// in\n    tag_49:\n        /* \"#utility.yul\":483:488   */\n      dup2\n        /* \"#utility.yul\":480:515   */\n      eq\n        /* \"#utility.yul\":470:533   */\n      tag_50\n      jumpi\n        /* \"#utility.yul\":529:530   */\n      0x00\n        /* \"#utility.yul\":526:527   */\n      dup1\n        /* \"#utility.yul\":519:531   */\n      revert\n        /* \"#utility.yul\":470:533   */\n    tag_50:\n        /* \"#utility.yul\":417:539   */\n      pop\n      jump\t// out\n        /* \"#utility.yul\":545:684   */\n    tag_29:\n        /* \"#utility.yul\":591:596   */\n      0x00\n        /* \"#utility.yul\":629:635   */\n      dup2\n        /* \"#utility.yul\":616:636   */\n      calldataload\n        /* \"#utility.yul\":607:636   */\n      swap1\n      pop\n        /* \"#utility.yul\":645:678   */\n      tag_52\n        /* \"#utility.yul\":672:677   */\n      dup2\n        /* \"#utility.yul\":645:678   */\n      tag_28\n      jump\t// in\n    tag_52:\n        /* \"#utility.yul\":545:684   */\n      swap3\n      swap2\n      pop\n      pop\n      jump\t// out\n        /* \"#utility.yul\":690:1019   */\n    tag_8:\n        /* \"#utility.yul\":749:755   */\n      0x00\n        /* \"#utility.yul\":798:800   */\n      0x20\n        /* \"#utility.yul\":786:795   */\n      dup3\n        /* \"#utility.yul\":777:784   */\n      dup5\n        /* \"#utility.yul\":773:796   */\n      sub\n        /* \"#utility.yul\":769:801   */\n      slt\n        /* \"#utility.yul\":766:885   */\n      iszero\n      tag_54\n      jumpi\n        /* \"#utility.yul\":804:883   */\n      tag_55\n      tag_25\n      jump\t// in\n    tag_55:\n        /* \"#utility.yul\":766:885   */\n    tag_54:\n        /* \"#utility.yul\":924:925   */\n      0x00\n        /* \"#utility.yul\":949:1002   */\n      tag_56\n        /* \"#utility.yul\":994:1001   */\n      dup5\n        /* \"#utility.yul\":985:991   */\n      dup3\n        /* \"#utility.yul\":974:983   */\n      dup6\n        /* \"#utility.yul\":970:992   */\n      add\n        /* \"#utility.yul\":949:1002   */\n      tag_29\n      jump\t// in\n    tag_56:\n        /* \"#utility.yul\":939:1002   */\n      swap2\n      pop\n        /* \"#utility.yul\":895:1012   */\n      pop\n        /* \"#utility.yul\":690:1019   */\n      swap3\n      swap2\n      pop\n      pop\n      jump\t// out\n        /* \"#utility.yul\":1025:1151   */\n    tag_30:\n        /* \"#utility.yul\":1062:1069   */\n      0x00\n        /* \"#utility.yul\":1102:1144   */\n      0xffffffffffffffffffffffffffffffffffffffff\n        /* \"#utility.yul\":1095:1100   */\n      dup3\n        /* \"#utility.yul\":1091:1145   */\n      and\n        /* \"#utility.yul\":1080:1145   */\n      swap1\n      pop\n        /* \"#utility.yul\":1025:1151   */\n      swap2\n      swap1\n      pop\n      jump\t// out\n        /* \"#utility.yul\":1157:1253   */\n    tag_31:\n        /* \"#utility.yul\":1194:1201   */\n      0x00\n        /* \"#utility.yul\":1223:1247   */\n      tag_59\n        /* \"#utility.yul\":1241:1246   */\n      dup3\n        /* \"#utility.yul\":1223:1247   */\n      tag_30\n      jump\t// in\n    tag_59:\n        /* \"#utility.yul\":1212:1247   */\n      swap1\n      pop\n        /* \"#utility.yul\":1157:1253   */\n      swap2\n      swap1\n      pop\n      jump\t// out\n        /* \"#utility.yul\":1259:1381   */\n    tag_32:\n        /* \"#utility.yul\":1332:1356   */\n      tag_61\n        /* \"#utility.yul\":1350:1355   */\n      dup2\n        /* \"#utility.yul\":1332:1356   */\n      tag_31\n      jump\t// in\n    tag_61:\n        /* \"#utility.yul\":1325:1330   */\n      dup2\n        /* \"#utility.yul\":1322:1357   */\n      eq\n        /* \"#utility.yul\":1312:1375   */\n      tag_62\n      jumpi\n        /* \"#utility.yul\":1371:1372   */\n      0x00\n        /* \"#utility.yul\":1368:1369   */\n      dup1\n        /* \"#utility.yul\":1361:1373   */\n      revert\n        /* \"#utility.yul\":1312:1375   */\n    tag_62:\n        /* \"#utility.yul\":1259:1381   */\n      pop\n      jump\t// out\n        /* \"#utility.yul\":1387:1526   */\n    tag_33:\n        /* \"#utility.yul\":1433:1438   */\n      0x00\n        /* \"#utility.yul\":1471:1477   */\n      dup2\n        /* \"#utility.yul\":1458:1478   */\n      calldataload\n        /* \"#utility.yul\":1449:1478   */\n      swap1\n      pop\n        /* \"#utility.yul\":1487:1520   */\n      tag_64\n        /* \"#utility.yul\":1514:1519   */\n      dup2\n        /* \"#utility.yul\":1487:1520   */\n      tag_32\n      jump\t// in\n    tag_64:\n        /* \"#utility.yul\":1387:1526   */\n      swap3\n      swap2\n      pop\n      pop\n      jump\t// out\n        /* \"#utility.yul\":1532:1861   */\n    tag_12:\n        /* \"#utility.yul\":1591:1597   */\n      0x00\n        /* \"#utility.yul\":1640:1642   */\n      0x20\n        /* \"#utility.yul\":1628:1637   */\n      dup3\n        /* \"#utility.yul\":1619:1626   */\n      dup5\n        /* \"#utility.yul\":1615:1638   */\n      sub\n        /* \"#utility.yul\":1611:1643   */\n      slt\n        /* \"#utility.yul\":1608:1727   */\n      iszero\n      tag_66\n      jumpi\n        /* \"#utility.yul\":1646:1725   */\n      tag_67\n      tag_25\n      jump\t// in\n    tag_67:\n        /* \"#utility.yul\":1608:1727   */\n    tag_66:\n        /* \"#utility.yul\":1766:1767   */\n      0x00\n        /* \"#utility.yul\":1791:1844   */\n      tag_68\n        /* \"#utility.yul\":1836:1843   */\n      dup5\n        /* \"#utility.yul\":1827:1833   */\n      dup3\n        /* \"#utility.yul\":1816:1825   */\n      dup6\n        /* \"#utility.yul\":1812:1834   */\n      add\n        /* \"#utility.yul\":1791:1844   */\n      tag_33\n      jump\t// in\n    tag_68:\n        /* \"#utility.yul\":1781:1844   */\n      swap2\n      pop\n        /* \"#utility.yul\":1737:1854   */\n      pop\n        /* \"#utility.yul\":1532:1861   */\n      swap3\n      swap2\n      pop\n      pop\n      jump\t// out\n        /* \"#utility.yul\":1867:1957   */\n    tag_34:\n        /* \"#utility.yul\":1901:1908   */\n      0x00\n        /* \"#utility.yul\":1944:1949   */\n      dup2\n        /* \"#utility.yul\":1937:1950   */\n      iszero\n        /* \"#utility.yul\":1930:1951   */\n      iszero\n        /* \"#utility.yul\":1919:1951   */\n      swap1\n      pop\n        /* \"#utility.yul\":1867:1957   */\n      swap2\n      swap1\n      pop\n      jump\t// out\n        /* \"#utility.yul\":1963:2072   */\n    tag_35:\n        /* \"#utility.yul\":2044:2065   */\n      tag_71\n        /* \"#utility.yul\":2059:2064   */\n      dup2\n        /* \"#utility.yul\":2044:2065   */\n      tag_34\n      jump\t// in\n    tag_71:\n        /* \"#utility.yul\":2039:2042   */\n      dup3\n        /* \"#utility.yul\":2032:2066   */\n      mstore\n        /* \"#utility.yul\":1963:2072   */\n      pop\n      pop\n      jump\t// out\n        /* \"#utility.yul\":2078:2288   */\n    tag_15:\n        /* \"#utility.yul\":2165:2169   */\n      0x00\n        /* \"#utility.yul\":2203:2205   */\n      0x20\n        /* \"#utility.yul\":2192:2201   */\n      dup3\n        /* \"#utility.yul\":2188:2206   */\n      add\n        /* \"#utility.yul\":2180:2206   */\n      swap1\n      pop\n        /* \"#utility.yul\":2216:2281   */\n      tag_73\n        /* \"#utility.yul\":2278:2279   */\n      0x00\n        /* \"#utility.yul\":2267:2276   */\n      dup4\n        /* \"#utility.yul\":2263:2280   */\n      add\n        /* \"#utility.yul\":2254:2260   */\n      dup5\n        /* \"#utility.yul\":2216:2281   */\n      tag_35\n      jump\t// in\n    tag_73:\n        /* \"#utility.yul\":2078:2288   */\n      swap3\n      swap2\n      pop\n      pop\n      jump\t// out\n        /* \"#utility.yul\":2294:2412   */\n    tag_36:\n        /* \"#utility.yul\":2381:2405   */\n      tag_75\n        /* \"#utility.yul\":2399:2404   */\n      dup2\n        /* \"#utility.yul\":2381:2405   */\n      tag_27\n      jump\t// in\n    tag_75:\n        /* \"#utility.yul\":2376:2379   */\n      dup3\n        /* \"#utility.yul\":2369:2406   */\n      mstore\n        /* \"#utility.yul\":2294:2412   */\n      pop\n      pop\n      jump\t// out\n        /* \"#utility.yul\":2418:2640   */\n    tag_19:\n        /* \"#utility.yul\":2511:2515   */\n      0x00\n        /* \"#utility.yul\":2549:2551   */\n      0x20\n        /* \"#utility.yul\":2538:2547   */\n      dup3\n        /* \"#utility.yul\":2534:2552   */\n      add\n        /* \"#utility.yul\":2526:2552   */\n      swap1\n      pop\n        /* \"#utility.yul\":2562:2633   */\n      tag_77\n        /* \"#utility.yul\":2630:2631   */\n      0x00\n        /* \"#utility.yul\":2619:2628   */\n      dup4\n        /* \"#utility.yul\":2615:2632   */\n      add\n        /* \"#utility.yul\":2606:2612   */\n      dup5\n        /* \"#utility.yul\":2562:2633   */\n      tag_36\n      jump\t// in\n    tag_77:\n        /* \"#utility.yul\":2418:2640   */\n      swap3\n      swap2\n      pop\n      pop\n      jump\t// out\n        /* \"#utility.yul\":2646:2740   */\n    tag_37:\n        /* \"#utility.yul\":2679:2687   */\n      0x00\n        /* \"#utility.yul\":2727:2732   */\n      dup2\n        /* \"#utility.yul\":2723:2725   */\n      0x60\n        /* \"#utility.yul\":2719:2733   */\n      shl\n        /* \"#utility.yul\":2698:2733   */\n      swap1\n      pop\n        /* \"#utility.yul\":2646:2740   */\n      swap2\n      swap1\n      pop\n      jump\t// out\n        /* \"#utility.yul\":2746:2840   */\n    tag_38:\n        /* \"#utility.yul\":2785:2792   */\n      0x00\n        /* \"#utility.yul\":2814:2834   */\n      tag_80\n        /* \"#utility.yul\":2828:2833   */\n      dup3\n        /* \"#utility.yul\":2814:2834   */\n      tag_37\n      jump\t// in\n    tag_80:\n        /* \"#utility.yul\":2803:2834   */\n      swap1\n      pop\n        /* \"#utility.yul\":2746:2840   */\n      swap2\n      swap1\n      pop\n      jump\t// out\n        /* \"#utility.yul\":2846:2946   */\n    tag_39:\n        /* \"#utility.yul\":2885:2892   */\n      0x00\n        /* \"#utility.yul\":2914:2940   */\n      tag_82\n        /* \"#utility.yul\":2934:2939   */\n      dup3\n        /* \"#utility.yul\":2914:2940   */\n      tag_38\n      jump\t// in\n    tag_82:\n        /* \"#utility.yul\":2903:2940   */\n      swap1\n      pop\n        /* \"#utility.yul\":2846:2946   */\n      swap2\n      swap1\n      pop\n      jump\t// out\n        /* \"#utility.yul\":2952:3109   */\n    tag_40:\n        /* \"#utility.yul\":3057:3102   */\n      tag_84\n        /* \"#utility.yul\":3077:3101   */\n      tag_85\n        /* \"#utility.yul\":3095:3100   */\n      dup3\n        /* \"#utility.yul\":3077:3101   */\n      tag_31\n      jump\t// in\n    tag_85:\n        /* \"#utility.yul\":3057:3102   */\n      tag_39\n      jump\t// in\n    tag_84:\n        /* \"#utility.yul\":3052:3055   */\n      dup3\n        /* \"#utility.yul\":3045:3103   */\n      mstore\n        /* \"#utility.yul\":2952:3109   */\n      pop\n      pop\n      jump\t// out\n        /* \"#utility.yul\":3115:3194   */\n    tag_41:\n        /* \"#utility.yul\":3154:3161   */\n      0x00\n        /* \"#utility.yul\":3183:3188   */\n      dup2\n        /* \"#utility.yul\":3172:3188   */\n      swap1\n      pop\n        /* \"#utility.yul\":3115:3194   */\n      swap2\n      swap1\n      pop\n      jump\t// out\n        /* \"#utility.yul\":3200:3357   */\n    tag_42:\n        /* \"#utility.yul\":3305:3350   */\n      tag_88\n        /* \"#utility.yul\":3325:3349   */\n      tag_89\n        /* \"#utility.yul\":3343:3348   */\n      dup3\n        /* \"#utility.yul\":3325:3349   */\n      tag_27\n      jump\t// in\n    tag_89:\n        /* \"#utility.yul\":3305:3350   */\n      tag_41\n      jump\t// in\n    tag_88:\n        /* \"#utility.yul\":3300:3303   */\n      dup3\n        /* \"#utility.yul\":3293:3351   */\n      mstore\n        /* \"#utility.yul\":3200:3357   */\n      pop\n      pop\n      jump\t// out\n        /* \"#utility.yul\":3363:3760   */\n    tag_22:\n        /* \"#utility.yul\":3503:3506   */\n      0x00\n        /* \"#utility.yul\":3518:3593   */\n      tag_91\n        /* \"#utility.yul\":3589:3592   */\n      dup3\n        /* \"#utility.yul\":3580:3586   */\n      dup6\n        /* \"#utility.yul\":3518:3593   */\n      tag_40\n      jump\t// in\n    tag_91:\n        /* \"#utility.yul\":3618:3620   */\n      0x14\n        /* \"#utility.yul\":3613:3616   */\n      dup3\n        /* \"#utility.yul\":3609:3621   */\n      add\n        /* \"#utility.yul\":3602:3621   */\n      swap2\n      pop\n        /* \"#utility.yul\":3631:3706   */\n      tag_92\n        /* \"#utility.yul\":3702:3705   */\n      dup3\n        /* \"#utility.yul\":3693:3699   */\n      dup5\n        /* \"#utility.yul\":3631:3706   */\n      tag_42\n      jump\t// in\n    tag_92:\n        /* \"#utility.yul\":3731:3733   */\n      0x20\n        /* \"#utility.yul\":3726:3729   */\n      dup3\n        /* \"#utility.yul\":3722:3734   */\n      add\n        /* \"#utility.yul\":3715:3734   */\n      swap2\n      pop\n        /* \"#utility.yul\":3751:3754   */\n      dup2\n        /* \"#utility.yul\":3744:3754   */\n      swap1\n      pop\n        /* \"#utility.yul\":3363:3760   */\n      swap4\n      swap3\n      pop\n      pop\n      pop\n      jump\t// out\n\n    auxdata: 0xa26469706673582212205395cebb6905519e37bcd84e016970e14cff5e23ffac085ecc95ca38a3d8564364736f6c634300081a0033\n}\n",
				"bytecode": {
					"linkReferences": {},
					"object": "60806040527f49c97b6f8aca92cbed4c87fa69cd11f7cd68c63ea623eb3d1de465b04b89f97f5f553480156031575f80fd5b5061035f8061003f5f395ff3fe608060405234801561000f575f80fd5b506004361061003f575f3560e01c80631982f1d314610043578063d15d41501461005f578063d2ef73981461008f575b5f80fd5b61005d6004803603810190610058919061018e565b6100ad565b005b61007960048036038101906100749190610213565b610135565b6040516100869190610258565b60405180910390f35b610097610152565b6040516100a49190610280565b60405180910390f35b335f546040516020016100c19291906102fe565b604051602081830303815290604052805190602001208103610132576001805f3373ffffffffffffffffffffffffffffffffffffffff1673ffffffffffffffffffffffffffffffffffffffff1681526020019081526020015f205f6101000a81548160ff0219169083151502179055505b50565b6001602052805f5260405f205f915054906101000a900460ff1681565b5f5481565b5f80fd5b5f819050919050565b61016d8161015b565b8114610177575f80fd5b50565b5f8135905061018881610164565b92915050565b5f602082840312156101a3576101a2610157565b5b5f6101b08482850161017a565b91505092915050565b5f73ffffffffffffffffffffffffffffffffffffffff82169050919050565b5f6101e2826101b9565b9050919050565b6101f2816101d8565b81146101fc575f80fd5b50565b5f8135905061020d816101e9565b92915050565b5f6020828403121561022857610227610157565b5b5f610235848285016101ff565b91505092915050565b5f8115159050919050565b6102528161023e565b82525050565b5f60208201905061026b5f830184610249565b92915050565b61027a8161015b565b82525050565b5f6020820190506102935f830184610271565b92915050565b5f8160601b9050919050565b5f6102af82610299565b9050919050565b5f6102c0826102a5565b9050919050565b6102d86102d3826101d8565b6102b6565b82525050565b5f819050919050565b6102f86102f38261015b565b6102de565b82525050565b5f61030982856102c7565b60148201915061031982846102e7565b602082019150819050939250505056fea26469706673582212205395cebb6905519e37bcd84e016970e14cff5e23ffac085ecc95ca38a3d8564364736f6c634300081a0033",
					"opcodes": "PUSH1 0x80 PUSH1 0x40 MSTORE PUSH32 0x49C97B6F8ACA92CBED4C87FA69CD11F7CD68C63EA623EB3D1DE465B04B89F97F PUSH0 SSTORE CALLVALUE DUP1 ISZERO PUSH1 0x31 JUMPI PUSH0 DUP1 REVERT JUMPDEST POP PUSH2 0x35F DUP1 PUSH2 0x3F PUSH0 CODECOPY PUSH0 RETURN INVALID PUSH1 0x80 PUSH1 0x40 MSTORE CALLVALUE DUP1 ISZERO PUSH2 0xF JUMPI PUSH0 DUP1 REVERT JUMPDEST POP PUSH1 0x4 CALLDATASIZE LT PUSH2 0x3F JUMPI PUSH0 CALLDATALOAD PUSH1 0xE0 SHR DUP1 PUSH4 0x1982F1D3 EQ PUSH2 0x43 JUMPI DUP1 PUSH4 0xD15D4150 EQ PUSH2 0x5F JUMPI DUP1 PUSH4 0xD2EF7398 EQ PUSH2 0x8F JUMPI JUMPDEST PUSH0 DUP1 REVERT JUMPDEST PUSH2 0x5D PUSH1 0x4 DUP1 CALLDATASIZE SUB DUP2 ADD SWAP1 PUSH2 0x58 SWAP2 SWAP1 PUSH2 0x18E JUMP JUMPDEST PUSH2 0xAD JUMP JUMPDEST STOP JUMPDEST PUSH2 0x79 PUSH1 0x4 DUP1 CALLDATASIZE SUB DUP2 ADD SWAP1 PUSH2 0x74 SWAP2 SWAP1 PUSH2 0x213 JUMP JUMPDEST PUSH2 0x135 JUMP JUMPDEST PUSH1 0x40 MLOAD PUSH2 0x86 SWAP2 SWAP1 PUSH2 0x258 JUMP JUMPDEST PUSH1 0x40 MLOAD DUP1 SWAP2 SUB SWAP1 RETURN JUMPDEST PUSH2 0x97 PUSH2 0x152 JUMP JUMPDEST PUSH1 0x40 MLOAD PUSH2 0xA4 SWAP2 SWAP1 PUSH2 0x280 JUMP JUMPDEST PUSH1 0x40 MLOAD DUP1 SWAP2 SUB SWAP1 RETURN JUMPDEST CALLER PUSH0 SLOAD PUSH1 0x40 MLOAD PUSH1 0x20 ADD PUSH2 0xC1 SWAP3 SWAP2 SWAP1 PUSH2 0x2FE JUMP JUMPDEST PUSH1 0x40 MLOAD PUSH1 0x20 DUP2 DUP4 SUB SUB DUP2 MSTORE SWAP1 PUSH1 0x40 MSTORE DUP1 MLOAD SWAP1 PUSH1 0x20 ADD KECCAK256 DUP2 SUB PUSH2 0x132 JUMPI PUSH1 0x1 DUP1 PUSH0 CALLER PUSH20 0xFFFFFFFFFFFFFFFFFFFFFFFFFFFFFFFFFFFFFFFF AND PUSH20 0xFFFFFFFFFFFFFFFFFFFFFFFFFFFFFFFFFFFFFFFF AND DUP2 MSTORE PUSH1 0x20 ADD SWAP1 DUP2 MSTORE PUSH1 0x20 ADD PUSH0 KECCAK256 PUSH0 PUSH2 0x100 EXP DUP2 SLOAD DUP2 PUSH1 0xFF MUL NOT AND SWAP1 DUP4 ISZERO ISZERO MUL OR SWAP1 SSTORE POP JUMPDEST POP JUMP JUMPDEST PUSH1 0x1 PUSH1 0x20 MSTORE DUP1 PUSH0 MSTORE PUSH1 0x40 PUSH0 KECCAK256 PUSH0 SWAP2 POP SLOAD SWAP1 PUSH2 0x100 EXP SWAP1 DIV PUSH1 0xFF AND DUP2 JUMP JUMPDEST PUSH0 SLOAD DUP2 JUMP JUMPDEST PUSH0 DUP1 REVERT JUMPDEST PUSH0 DUP2 SWAP1 POP SWAP2 SWAP1 POP JUMP JUMPDEST PUSH2 0x16D DUP2 PUSH2 0x15B JUMP JUMPDEST DUP2 EQ PUSH2 0x177 JUMPI PUSH0 DUP1 REVERT JUMPDEST POP JUMP JUMPDEST PUSH0 DUP2 CALLDATALOAD SWAP1 POP PUSH2 0x188 DUP2 PUSH2 0x164 JUMP JUMPDEST SWAP3 SWAP2 POP POP JUMP JUMPDEST PUSH0 PUSH1 0x20 DUP3 DUP5 SUB SLT ISZERO PUSH2 0x1A3 JUMPI PUSH2 0x1A2 PUSH2 0x157 JUMP JUMPDEST JUMPDEST PUSH0 PUSH2 0x1B0 DUP5 DUP3 DUP6 ADD PUSH2 0x17A JUMP JUMPDEST SWAP2 POP POP SWAP3 SWAP2 POP POP JUMP JUMPDEST PUSH0 PUSH20 0xFFFFFFFFFFFFFFFFFFFFFFFFFFFFFFFFFFFFFFFF DUP3 AND SWAP1 POP SWAP2 SWAP1 POP JUMP JUMPDEST PUSH0 PUSH2 0x1E2 DUP3 PUSH2 0x1B9 JUMP JUMPDEST SWAP1 POP SWAP2 SWAP1 POP JUMP JUMPDEST PUSH2 0x1F2 DUP2 PUSH2 0x1D8 JUMP JUMPDEST DUP2 EQ PUSH2 0x1FC JUMPI PUSH0 DUP1 REVERT JUMPDEST POP JUMP JUMPDEST PUSH0 DUP2 CALLDATALOAD SWAP1 POP PUSH2 0x20D DUP2 PUSH2 0x1E9 JUMP JUMPDEST SWAP3 SWAP2 POP POP JUMP JUMPDEST PUSH0 PUSH1 0x20 DUP3 DUP5 SUB SLT ISZERO PUSH2 0x228 JUMPI PUSH2 0x227 PUSH2 0x157 JUMP JUMPDEST JUMPDEST PUSH0 PUSH2 0x235 DUP5 DUP3 DUP6 ADD PUSH2 0x1FF JUMP JUMPDEST SWAP2 POP POP SWAP3 SWAP2 POP POP JUMP JUMPDEST PUSH0 DUP2 ISZERO ISZERO SWAP1 POP SWAP2 SWAP1 POP JUMP JUMPDEST PUSH2 0x252 DUP2 PUSH2 0x23E JUMP JUMPDEST DUP3 MSTORE POP POP JUMP JUMPDEST PUSH0 PUSH1 0x20 DUP3 ADD SWAP1 POP PUSH2 0x26B PUSH0 DUP4 ADD DUP5 PUSH2 0x249 JUMP JUMPDEST SWAP3 SWAP2 POP POP JUMP JUMPDEST PUSH2 0x27A DUP2 PUSH2 0x15B JUMP JUMPDEST DUP3 MSTORE POP POP JUMP JUMPDEST PUSH0 PUSH1 0x20 DUP3 ADD SWAP1 POP PUSH2 0x293 PUSH0 DUP4 ADD DUP5 PUSH2 0x271 JUMP JUMPDEST SWAP3 SWAP2 POP POP JUMP JUMPDEST PUSH0 DUP2 PUSH1 0x60 SHL SWAP1 POP SWAP2 SWAP1 POP JUMP JUMPDEST PUSH0 PUSH2 0x2AF DUP3 PUSH2 0x299 JUMP JUMPDEST SWAP1 POP SWAP2 SWAP1 POP JUMP JUMPDEST PUSH0 PUSH2 0x2C0 DUP3 PUSH2 0x2A5 JUMP JUMPDEST SWAP1 POP SWAP2 SWAP1 POP JUMP JUMPDEST PUSH2 0x2D8 PUSH2 0x2D3 DUP3 PUSH2 0x1D8 JUMP JUMPDEST PUSH2 0x2B6 JUMP JUMPDEST DUP3 MSTORE POP POP JUMP JUMPDEST PUSH0 DUP2 SWAP1 POP SWAP2 SWAP1 POP JUMP JUMPDEST PUSH2 0x2F8 PUSH2 0x2F3 DUP3 PUSH2 0x15B JUMP JUMPDEST PUSH2 0x2DE JUMP JUMPDEST DUP3 MSTORE POP POP JUMP JUMPDEST PUSH0 PUSH2 0x309 DUP3 DUP6 PUSH2 0x2C7 JUMP JUMPDEST PUSH1 0x14 DUP3 ADD SWAP2 POP PUSH2 0x319 DUP3 DUP5 PUSH2 0x2E7 JUMP JUMPDEST PUSH1 0x20 DUP3 ADD SWAP2 POP DUP2 SWAP1 POP SWAP4 SWAP3 POP POP POP JUMP INVALID LOG2 PUSH5 0x6970667358 0x22 SLT KECCAK256 MSTORE8 SWAP6 0xCE 0xBB PUSH10 0x5519E37BCD84E016970 0xE1 0x4C SELFDESTRUCT MCOPY 0x23 SELFDESTRUCT 0xAC ADDMOD MCOPY 0xCC SWAP6 0xCA CODESIZE LOG3 0xD8 JUMP NUMBER PUSH5 0x736F6C6343 STOP ADDMOD BYTE STOP CALLER "
				},
				"gasEstimates": {
					"creation": {
						"codeDepositCost": "172600",
						"executionCost": "22317",
						"totalCost": "194917"
					},
					"external": {
						"challenge()": "2446",
						"isAuthenticated(address)": "2833",
						"respond(bytes32)": "infinite"
					}
				},
				"methodIdentifiers": {
					"challenge()": "d2ef7398",
					"isAuthenticated(address)": "d15d4150",
					"respond(bytes32)": "1982f1d3"
				}
			},
			"storageLayout": {
				"storage": [
					{
						"astId": 7,
						"contract": "C/Challenge-Handshake Authentication Protocol (CHAP )/attack Replayed Challenge.sol:NaiveCHAP",
						"label": "challenge",
						"offset": 0,
						"slot": "0",
						"type": "t_bytes32"
					},
					{
						"astId": 11,
						"contract": "C/Challenge-Handshake Authentication Protocol (CHAP )/attack Replayed Challenge.sol:NaiveCHAP",
						"label": "isAuthenticated",
						"offset": 0,
						"slot": "1",
						"type": "t_mapping(t_address,t_bool)"
					}
				],
				"types": {
					"t_address": {
						"encoding": "inplace",
						"label": "address",
						"numberOfBytes": "20"
					},
					"t_bool": {
						"encoding": "inplace",
						"label": "bool",
						"numberOfBytes": "1"
					},
					"t_bytes32": {
						"encoding": "inplace",
						"label": "bytes32",
						"numberOfBytes": "32"
					},
					"t_mapping(t_address,t_bool)": {
						"encoding": "mapping",
						"key": "t_address",
						"label": "mapping(address => bool)",
						"numberOfBytes": "32",
						"value": "t_bool"
					}
				}
			},
			"userdoc": {
				"kind": "user",
				"methods": {},
				"notice": "A naive CHAP-like approach.  Attack: The challenge never changes => attacker replays old valid responses.",
				"version": 1
			}
		}
	}
}