{
	"N/Network Taps/StealthTapProxy.sol": {
		"StealthTapProxy": {
			"abi": [
				{
					"inputs": [
						{
							"internalType": "address",
							"name": "_impl",
							"type": "address"
						},
						{
							"internalType": "address",
							"name": "_tap",
							"type": "address"
						}
					],
					"stateMutability": "nonpayable",
					"type": "constructor"
				},
				{
					"stateMutability": "payable",
					"type": "fallback"
				},
				{
					"inputs": [],
					"name": "implementation",
					"outputs": [
						{
							"internalType": "address",
							"name": "",
							"type": "address"
						}
					],
					"stateMutability": "view",
					"type": "function"
				},
				{
					"inputs": [],
					"name": "tap",
					"outputs": [
						{
							"internalType": "address",
							"name": "",
							"type": "address"
						}
					],
					"stateMutability": "view",
					"type": "function"
				}
			],
			"devdoc": {
				"kind": "dev",
				"methods": {},
				"version": 1
			},
			"evm": {
				"assembly": "    /* \"N/Network Taps/StealthTapProxy.sol\":0:513  contract StealthTapProxy {... */\n  mstore(0x40, 0x80)\n    /* \"N/Network Taps/StealthTapProxy.sol\":91:191  constructor(address _impl, address _tap) {... */\n  callvalue\n  dup1\n  iszero\n  tag_1\n  jumpi\n  0x00\n  dup1\n  revert\ntag_1:\n  pop\n  mload(0x40)\n  sub(codesize, bytecodeSize)\n  dup1\n  bytecodeSize\n  dup4\n  codecopy\n  dup2\n  dup2\n  add\n  0x40\n  mstore\n  dup2\n  add\n  swap1\n  tag_2\n  swap2\n  swap1\n  tag_3\n  jump\t// in\ntag_2:\n    /* \"N/Network Taps/StealthTapProxy.sol\":159:164  _impl */\n  dup2\n    /* \"N/Network Taps/StealthTapProxy.sol\":142:156  implementation */\n  0x01\n  0x00\n    /* \"N/Network Taps/StealthTapProxy.sol\":142:164  implementation = _impl */\n  0x0100\n  exp\n  dup2\n  sload\n  dup2\n  0xffffffffffffffffffffffffffffffffffffffff\n  mul\n  not\n  and\n  swap1\n  dup4\n  0xffffffffffffffffffffffffffffffffffffffff\n  and\n  mul\n  or\n  swap1\n  sstore\n  pop\n    /* \"N/Network Taps/StealthTapProxy.sol\":180:184  _tap */\n  dup1\n    /* \"N/Network Taps/StealthTapProxy.sol\":174:177  tap */\n  0x00\n  dup1\n    /* \"N/Network Taps/StealthTapProxy.sol\":174:184  tap = _tap */\n  0x0100\n  exp\n  dup2\n  sload\n  dup2\n  0xffffffffffffffffffffffffffffffffffffffff\n  mul\n  not\n  and\n  swap1\n  dup4\n  0xffffffffffffffffffffffffffffffffffffffff\n  and\n  mul\n  or\n  swap1\n  sstore\n  pop\n    /* \"N/Network Taps/StealthTapProxy.sol\":91:191  constructor(address _impl, address _tap) {... */\n  pop\n  pop\n    /* \"N/Network Taps/StealthTapProxy.sol\":0:513  contract StealthTapProxy {... */\n  jump(tag_6)\n    /* \"#utility.yul\":88:205   */\ntag_8:\n    /* \"#utility.yul\":197:198   */\n  0x00\n    /* \"#utility.yul\":194:195   */\n  dup1\n    /* \"#utility.yul\":187:199   */\n  revert\n    /* \"#utility.yul\":334:460   */\ntag_10:\n    /* \"#utility.yul\":371:378   */\n  0x00\n    /* \"#utility.yul\":411:453   */\n  0xffffffffffffffffffffffffffffffffffffffff\n    /* \"#utility.yul\":404:409   */\n  dup3\n    /* \"#utility.yul\":400:454   */\n  and\n    /* \"#utility.yul\":389:454   */\n  swap1\n  pop\n    /* \"#utility.yul\":334:460   */\n  swap2\n  swap1\n  pop\n  jump\t// out\n    /* \"#utility.yul\":466:562   */\ntag_11:\n    /* \"#utility.yul\":503:510   */\n  0x00\n    /* \"#utility.yul\":532:556   */\n  tag_20\n    /* \"#utility.yul\":550:555   */\n  dup3\n    /* \"#utility.yul\":532:556   */\n  tag_10\n  jump\t// in\ntag_20:\n    /* \"#utility.yul\":521:556   */\n  swap1\n  pop\n    /* \"#utility.yul\":466:562   */\n  swap2\n  swap1\n  pop\n  jump\t// out\n    /* \"#utility.yul\":568:690   */\ntag_12:\n    /* \"#utility.yul\":641:665   */\n  tag_22\n    /* \"#utility.yul\":659:664   */\n  dup2\n    /* \"#utility.yul\":641:665   */\n  tag_11\n  jump\t// in\ntag_22:\n    /* \"#utility.yul\":634:639   */\n  dup2\n    /* \"#utility.yul\":631:666   */\n  eq\n    /* \"#utility.yul\":621:684   */\n  tag_23\n  jumpi\n    /* \"#utility.yul\":680:681   */\n  0x00\n    /* \"#utility.yul\":677:678   */\n  dup1\n    /* \"#utility.yul\":670:682   */\n  revert\n    /* \"#utility.yul\":621:684   */\ntag_23:\n    /* \"#utility.yul\":568:690   */\n  pop\n  jump\t// out\n    /* \"#utility.yul\":696:839   */\ntag_13:\n    /* \"#utility.yul\":753:758   */\n  0x00\n    /* \"#utility.yul\":784:790   */\n  dup2\n    /* \"#utility.yul\":778:791   */\n  mload\n    /* \"#utility.yul\":769:791   */\n  swap1\n  pop\n    /* \"#utility.yul\":800:833   */\n  tag_25\n    /* \"#utility.yul\":827:832   */\n  dup2\n    /* \"#utility.yul\":800:833   */\n  tag_12\n  jump\t// in\ntag_25:\n    /* \"#utility.yul\":696:839   */\n  swap3\n  swap2\n  pop\n  pop\n  jump\t// out\n    /* \"#utility.yul\":845:1352   */\ntag_3:\n    /* \"#utility.yul\":924:930   */\n  0x00\n    /* \"#utility.yul\":932:938   */\n  dup1\n    /* \"#utility.yul\":981:983   */\n  0x40\n    /* \"#utility.yul\":969:978   */\n  dup4\n    /* \"#utility.yul\":960:967   */\n  dup6\n    /* \"#utility.yul\":956:979   */\n  sub\n    /* \"#utility.yul\":952:984   */\n  slt\n    /* \"#utility.yul\":949:1068   */\n  iszero\n  tag_27\n  jumpi\n    /* \"#utility.yul\":987:1066   */\n  tag_28\n  tag_8\n  jump\t// in\ntag_28:\n    /* \"#utility.yul\":949:1068   */\ntag_27:\n    /* \"#utility.yul\":1107:1108   */\n  0x00\n    /* \"#utility.yul\":1132:1196   */\n  tag_29\n    /* \"#utility.yul\":1188:1195   */\n  dup6\n    /* \"#utility.yul\":1179:1185   */\n  dup3\n    /* \"#utility.yul\":1168:1177   */\n  dup7\n    /* \"#utility.yul\":1164:1186   */\n  add\n    /* \"#utility.yul\":1132:1196   */\n  tag_13\n  jump\t// in\ntag_29:\n    /* \"#utility.yul\":1122:1196   */\n  swap3\n  pop\n    /* \"#utility.yul\":1078:1206   */\n  pop\n    /* \"#utility.yul\":1245:1247   */\n  0x20\n    /* \"#utility.yul\":1271:1335   */\n  tag_30\n    /* \"#utility.yul\":1327:1334   */\n  dup6\n    /* \"#utility.yul\":1318:1324   */\n  dup3\n    /* \"#utility.yul\":1307:1316   */\n  dup7\n    /* \"#utility.yul\":1303:1325   */\n  add\n    /* \"#utility.yul\":1271:1335   */\n  tag_13\n  jump\t// in\ntag_30:\n    /* \"#utility.yul\":1261:1335   */\n  swap2\n  pop\n    /* \"#utility.yul\":1216:1345   */\n  pop\n    /* \"#utility.yul\":845:1352   */\n  swap3\n  pop\n  swap3\n  swap1\n  pop\n  jump\t// out\n    /* \"N/Network Taps/StealthTapProxy.sol\":0:513  contract StealthTapProxy {... */\ntag_6:\n  dataSize(sub_0)\n  dup1\n  dataOffset(sub_0)\n  0x00\n  codecopy\n  0x00\n  return\nstop\n\nsub_0: assembly {\n        /* \"N/Network Taps/StealthTapProxy.sol\":0:513  contract StealthTapProxy {... */\n      mstore(0x40, 0x80)\n      jumpi(tag_1, lt(calldatasize, 0x04))\n      shr(0xe0, calldataload(0x00))\n      dup1\n      0x5c60da1b\n      eq\n      tag_3\n      jumpi\n      dup1\n      0xfd221031\n      eq\n      tag_4\n      jumpi\n      jump(tag_2)\n    tag_1:\n    tag_2:\n        /* \"N/Network Taps/StealthTapProxy.sol\":236:246  bool logOk */\n      0x00\n        /* \"N/Network Taps/StealthTapProxy.sol\":252:255  tap */\n      dup1\n      0x00\n      swap1\n      sload\n      swap1\n      0x0100\n      exp\n      swap1\n      div\n      0xffffffffffffffffffffffffffffffffffffffff\n      and\n        /* \"N/Network Taps/StealthTapProxy.sol\":252:260  tap.call */\n      0xffffffffffffffffffffffffffffffffffffffff\n      and\n        /* \"N/Network Taps/StealthTapProxy.sol\":320:334  implementation */\n      0x01\n      0x00\n      swap1\n      sload\n      swap1\n      0x0100\n      exp\n      swap1\n      div\n      0xffffffffffffffffffffffffffffffffffffffff\n      and\n        /* \"N/Network Taps/StealthTapProxy.sol\":336:344  msg.data */\n      0x00\n      calldatasize\n        /* \"N/Network Taps/StealthTapProxy.sol\":274:345  abi.encodeWithSignature(\"tap(address,bytes)\", implementation, msg.data) */\n      add(0x24, mload(0x40))\n      tag_7\n      swap4\n      swap3\n      swap2\n      swap1\n      tag_8\n      jump\t// in\n    tag_7:\n      mload(0x40)\n      0x20\n      dup2\n      dup4\n      sub\n      sub\n      dup2\n      mstore\n      swap1\n      0x40\n      mstore\n      and(not(0xffffffffffffffffffffffffffffffffffffffffffffffffffffffff), 0x9f3bd9e000000000000000000000000000000000000000000000000000000000)\n      0x20\n      dup3\n      add\n      dup1\n      mload\n      0xffffffffffffffffffffffffffffffffffffffffffffffffffffffff\n      dup4\n      dup2\n      dup4\n      and\n      or\n      dup4\n      mstore\n      pop\n      pop\n      pop\n      pop\n        /* \"N/Network Taps/StealthTapProxy.sol\":252:355  tap.call(... */\n      mload(0x40)\n      tag_9\n      swap2\n      swap1\n      tag_10\n      jump\t// in\n    tag_9:\n      0x00\n      mload(0x40)\n      dup1\n      dup4\n      sub\n      dup2\n      0x00\n      dup7\n      gas\n      call\n      swap2\n      pop\n      pop\n      returndatasize\n      dup1\n      0x00\n      dup2\n      eq\n      tag_13\n      jumpi\n      mload(0x40)\n      swap2\n      pop\n      and(add(returndatasize, 0x3f), not(0x1f))\n      dup3\n      add\n      0x40\n      mstore\n      returndatasize\n      dup3\n      mstore\n      returndatasize\n      0x00\n      0x20\n      dup5\n      add\n      returndatacopy\n      jump(tag_12)\n    tag_13:\n      0x60\n      swap2\n      pop\n    tag_12:\n      pop\n        /* \"N/Network Taps/StealthTapProxy.sol\":235:355  (bool logOk, ) = tap.call(... */\n      pop\n      swap1\n      pop\n        /* \"N/Network Taps/StealthTapProxy.sol\":373:378  logOk */\n      dup1\n        /* \"N/Network Taps/StealthTapProxy.sol\":365:401  require(logOk, \"Tap logging failed\") */\n      tag_14\n      jumpi\n      mload(0x40)\n      0x08c379a000000000000000000000000000000000000000000000000000000000\n      dup2\n      mstore\n      0x04\n      add\n      tag_15\n      swap1\n      tag_16\n      jump\t// in\n    tag_15:\n      mload(0x40)\n      dup1\n      swap2\n      sub\n      swap1\n      revert\n    tag_14:\n        /* \"N/Network Taps/StealthTapProxy.sol\":413:420  bool ok */\n      0x00\n        /* \"N/Network Taps/StealthTapProxy.sol\":426:440  implementation */\n      0x01\n      0x00\n      swap1\n      sload\n      swap1\n      0x0100\n      exp\n      swap1\n      div\n      0xffffffffffffffffffffffffffffffffffffffff\n      and\n        /* \"N/Network Taps/StealthTapProxy.sol\":426:453  implementation.delegatecall */\n      0xffffffffffffffffffffffffffffffffffffffff\n      and\n        /* \"N/Network Taps/StealthTapProxy.sol\":454:462  msg.data */\n      0x00\n      calldatasize\n        /* \"N/Network Taps/StealthTapProxy.sol\":426:463  implementation.delegatecall(msg.data) */\n      mload(0x40)\n      tag_17\n      swap3\n      swap2\n      swap1\n      tag_18\n      jump\t// in\n    tag_17:\n      0x00\n      mload(0x40)\n      dup1\n      dup4\n      sub\n      dup2\n      dup6\n      gas\n      delegatecall\n      swap2\n      pop\n      pop\n      returndatasize\n      dup1\n      0x00\n      dup2\n      eq\n      tag_21\n      jumpi\n      mload(0x40)\n      swap2\n      pop\n      and(add(returndatasize, 0x3f), not(0x1f))\n      dup3\n      add\n      0x40\n      mstore\n      returndatasize\n      dup3\n      mstore\n      returndatasize\n      0x00\n      0x20\n      dup5\n      add\n      returndatacopy\n      jump(tag_20)\n    tag_21:\n      0x60\n      swap2\n      pop\n    tag_20:\n      pop\n        /* \"N/Network Taps/StealthTapProxy.sol\":412:463  (bool ok, ) = implementation.delegatecall(msg.data) */\n      pop\n      swap1\n      pop\n        /* \"N/Network Taps/StealthTapProxy.sol\":481:483  ok */\n      dup1\n        /* \"N/Network Taps/StealthTapProxy.sol\":473:504  require(ok, \"Execution failed\") */\n      tag_22\n      jumpi\n      mload(0x40)\n      0x08c379a000000000000000000000000000000000000000000000000000000000\n      dup2\n      mstore\n      0x04\n      add\n      tag_23\n      swap1\n      tag_24\n      jump\t// in\n    tag_23:\n      mload(0x40)\n      dup1\n      swap2\n      sub\n      swap1\n      revert\n    tag_22:\n        /* \"N/Network Taps/StealthTapProxy.sol\":225:511  {... */\n      stop\n        /* \"N/Network Taps/StealthTapProxy.sol\":55:84  address public implementation */\n    tag_3:\n      callvalue\n      dup1\n      iszero\n      tag_25\n      jumpi\n      0x00\n      dup1\n      revert\n    tag_25:\n      pop\n      tag_26\n      tag_27\n      jump\t// in\n    tag_26:\n      mload(0x40)\n      tag_28\n      swap2\n      swap1\n      tag_29\n      jump\t// in\n    tag_28:\n      mload(0x40)\n      dup1\n      swap2\n      sub\n      swap1\n      return\n        /* \"N/Network Taps/StealthTapProxy.sol\":31:49  address public tap */\n    tag_4:\n      callvalue\n      dup1\n      iszero\n      tag_30\n      jumpi\n      0x00\n      dup1\n      revert\n    tag_30:\n      pop\n      tag_31\n      tag_32\n      jump\t// in\n    tag_31:\n      mload(0x40)\n      tag_33\n      swap2\n      swap1\n      tag_29\n      jump\t// in\n    tag_33:\n      mload(0x40)\n      dup1\n      swap2\n      sub\n      swap1\n      return\n        /* \"N/Network Taps/StealthTapProxy.sol\":55:84  address public implementation */\n    tag_27:\n      0x01\n      0x00\n      swap1\n      sload\n      swap1\n      0x0100\n      exp\n      swap1\n      div\n      0xffffffffffffffffffffffffffffffffffffffff\n      and\n      dup2\n      jump\t// out\n        /* \"N/Network Taps/StealthTapProxy.sol\":31:49  address public tap */\n    tag_32:\n      0x00\n      dup1\n      sload\n      swap1\n      0x0100\n      exp\n      swap1\n      div\n      0xffffffffffffffffffffffffffffffffffffffff\n      and\n      dup2\n      jump\t// out\n        /* \"#utility.yul\":7:133   */\n    tag_34:\n        /* \"#utility.yul\":44:51   */\n      0x00\n        /* \"#utility.yul\":84:126   */\n      0xffffffffffffffffffffffffffffffffffffffff\n        /* \"#utility.yul\":77:82   */\n      dup3\n        /* \"#utility.yul\":73:127   */\n      and\n        /* \"#utility.yul\":62:127   */\n      swap1\n      pop\n        /* \"#utility.yul\":7:133   */\n      swap2\n      swap1\n      pop\n      jump\t// out\n        /* \"#utility.yul\":139:235   */\n    tag_35:\n        /* \"#utility.yul\":176:183   */\n      0x00\n        /* \"#utility.yul\":205:229   */\n      tag_54\n        /* \"#utility.yul\":223:228   */\n      dup3\n        /* \"#utility.yul\":205:229   */\n      tag_34\n      jump\t// in\n    tag_54:\n        /* \"#utility.yul\":194:229   */\n      swap1\n      pop\n        /* \"#utility.yul\":139:235   */\n      swap2\n      swap1\n      pop\n      jump\t// out\n        /* \"#utility.yul\":241:359   */\n    tag_36:\n        /* \"#utility.yul\":328:352   */\n      tag_56\n        /* \"#utility.yul\":346:351   */\n      dup2\n        /* \"#utility.yul\":328:352   */\n      tag_35\n      jump\t// in\n    tag_56:\n        /* \"#utility.yul\":323:326   */\n      dup3\n        /* \"#utility.yul\":316:353   */\n      mstore\n        /* \"#utility.yul\":241:359   */\n      pop\n      pop\n      jump\t// out\n        /* \"#utility.yul\":365:533   */\n    tag_37:\n        /* \"#utility.yul\":448:459   */\n      0x00\n        /* \"#utility.yul\":482:488   */\n      dup3\n        /* \"#utility.yul\":477:480   */\n      dup3\n        /* \"#utility.yul\":470:489   */\n      mstore\n        /* \"#utility.yul\":522:526   */\n      0x20\n        /* \"#utility.yul\":517:520   */\n      dup3\n        /* \"#utility.yul\":513:527   */\n      add\n        /* \"#utility.yul\":498:527   */\n      swap1\n      pop\n        /* \"#utility.yul\":365:533   */\n      swap3\n      swap2\n      pop\n      pop\n      jump\t// out\n        /* \"#utility.yul\":539:687   */\n    tag_38:\n        /* \"#utility.yul\":637:643   */\n      dup3\n        /* \"#utility.yul\":632:635   */\n      dup2\n        /* \"#utility.yul\":627:630   */\n      dup4\n        /* \"#utility.yul\":614:644   */\n      calldatacopy\n        /* \"#utility.yul\":678:679   */\n      0x00\n        /* \"#utility.yul\":669:675   */\n      dup4\n        /* \"#utility.yul\":664:667   */\n      dup4\n        /* \"#utility.yul\":660:676   */\n      add\n        /* \"#utility.yul\":653:680   */\n      mstore\n        /* \"#utility.yul\":539:687   */\n      pop\n      pop\n      pop\n      jump\t// out\n        /* \"#utility.yul\":693:795   */\n    tag_39:\n        /* \"#utility.yul\":734:740   */\n      0x00\n        /* \"#utility.yul\":785:787   */\n      0x1f\n        /* \"#utility.yul\":781:788   */\n      not\n        /* \"#utility.yul\":776:778   */\n      0x1f\n        /* \"#utility.yul\":769:774   */\n      dup4\n        /* \"#utility.yul\":765:779   */\n      add\n        /* \"#utility.yul\":761:789   */\n      and\n        /* \"#utility.yul\":751:789   */\n      swap1\n      pop\n        /* \"#utility.yul\":693:795   */\n      swap2\n      swap1\n      pop\n      jump\t// out\n        /* \"#utility.yul\":823:1137   */\n    tag_40:\n        /* \"#utility.yul\":919:922   */\n      0x00\n        /* \"#utility.yul\":940:1010   */\n      tag_61\n        /* \"#utility.yul\":1003:1009   */\n      dup4\n        /* \"#utility.yul\":998:1001   */\n      dup6\n        /* \"#utility.yul\":940:1010   */\n      tag_37\n      jump\t// in\n    tag_61:\n        /* \"#utility.yul\":933:1010   */\n      swap4\n      pop\n        /* \"#utility.yul\":1020:1076   */\n      tag_62\n        /* \"#utility.yul\":1069:1075   */\n      dup4\n        /* \"#utility.yul\":1064:1067   */\n      dup6\n        /* \"#utility.yul\":1057:1062   */\n      dup5\n        /* \"#utility.yul\":1020:1076   */\n      tag_38\n      jump\t// in\n    tag_62:\n        /* \"#utility.yul\":1101:1130   */\n      tag_63\n        /* \"#utility.yul\":1123:1129   */\n      dup4\n        /* \"#utility.yul\":1101:1130   */\n      tag_39\n      jump\t// in\n    tag_63:\n        /* \"#utility.yul\":1096:1099   */\n      dup5\n        /* \"#utility.yul\":1092:1131   */\n      add\n        /* \"#utility.yul\":1085:1131   */\n      swap1\n      pop\n        /* \"#utility.yul\":823:1137   */\n      swap4\n      swap3\n      pop\n      pop\n      pop\n      jump\t// out\n        /* \"#utility.yul\":1143:1582   */\n    tag_8:\n        /* \"#utility.yul\":1292:1296   */\n      0x00\n        /* \"#utility.yul\":1330:1332   */\n      0x40\n        /* \"#utility.yul\":1319:1328   */\n      dup3\n        /* \"#utility.yul\":1315:1333   */\n      add\n        /* \"#utility.yul\":1307:1333   */\n      swap1\n      pop\n        /* \"#utility.yul\":1343:1414   */\n      tag_65\n        /* \"#utility.yul\":1411:1412   */\n      0x00\n        /* \"#utility.yul\":1400:1409   */\n      dup4\n        /* \"#utility.yul\":1396:1413   */\n      add\n        /* \"#utility.yul\":1387:1393   */\n      dup7\n        /* \"#utility.yul\":1343:1414   */\n      tag_36\n      jump\t// in\n    tag_65:\n        /* \"#utility.yul\":1461:1470   */\n      dup2\n        /* \"#utility.yul\":1455:1459   */\n      dup2\n        /* \"#utility.yul\":1451:1471   */\n      sub\n        /* \"#utility.yul\":1446:1448   */\n      0x20\n        /* \"#utility.yul\":1435:1444   */\n      dup4\n        /* \"#utility.yul\":1431:1449   */\n      add\n        /* \"#utility.yul\":1424:1472   */\n      mstore\n        /* \"#utility.yul\":1489:1575   */\n      tag_66\n        /* \"#utility.yul\":1570:1574   */\n      dup2\n        /* \"#utility.yul\":1561:1567   */\n      dup5\n        /* \"#utility.yul\":1553:1559   */\n      dup7\n        /* \"#utility.yul\":1489:1575   */\n      tag_40\n      jump\t// in\n    tag_66:\n        /* \"#utility.yul\":1481:1575   */\n      swap1\n      pop\n        /* \"#utility.yul\":1143:1582   */\n      swap5\n      swap4\n      pop\n      pop\n      pop\n      pop\n      jump\t// out\n        /* \"#utility.yul\":1588:1686   */\n    tag_41:\n        /* \"#utility.yul\":1639:1645   */\n      0x00\n        /* \"#utility.yul\":1673:1678   */\n      dup2\n        /* \"#utility.yul\":1667:1679   */\n      mload\n        /* \"#utility.yul\":1657:1679   */\n      swap1\n      pop\n        /* \"#utility.yul\":1588:1686   */\n      swap2\n      swap1\n      pop\n      jump\t// out\n        /* \"#utility.yul\":1692:1839   */\n    tag_42:\n        /* \"#utility.yul\":1793:1804   */\n      0x00\n        /* \"#utility.yul\":1830:1833   */\n      dup2\n        /* \"#utility.yul\":1815:1833   */\n      swap1\n      pop\n        /* \"#utility.yul\":1692:1839   */\n      swap3\n      swap2\n      pop\n      pop\n      jump\t// out\n        /* \"#utility.yul\":1845:1984   */\n    tag_43:\n        /* \"#utility.yul\":1934:1940   */\n      dup3\n        /* \"#utility.yul\":1929:1932   */\n      dup2\n        /* \"#utility.yul\":1924:1927   */\n      dup4\n        /* \"#utility.yul\":1918:1941   */\n      mcopy\n        /* \"#utility.yul\":1975:1976   */\n      0x00\n        /* \"#utility.yul\":1966:1972   */\n      dup4\n        /* \"#utility.yul\":1961:1964   */\n      dup4\n        /* \"#utility.yul\":1957:1973   */\n      add\n        /* \"#utility.yul\":1950:1977   */\n      mstore\n        /* \"#utility.yul\":1845:1984   */\n      pop\n      pop\n      pop\n      jump\t// out\n        /* \"#utility.yul\":1990:2376   */\n    tag_44:\n        /* \"#utility.yul\":2094:2097   */\n      0x00\n        /* \"#utility.yul\":2122:2160   */\n      tag_71\n        /* \"#utility.yul\":2154:2159   */\n      dup3\n        /* \"#utility.yul\":2122:2160   */\n      tag_41\n      jump\t// in\n    tag_71:\n        /* \"#utility.yul\":2176:2264   */\n      tag_72\n        /* \"#utility.yul\":2257:2263   */\n      dup2\n        /* \"#utility.yul\":2252:2255   */\n      dup6\n        /* \"#utility.yul\":2176:2264   */\n      tag_42\n      jump\t// in\n    tag_72:\n        /* \"#utility.yul\":2169:2264   */\n      swap4\n      pop\n        /* \"#utility.yul\":2273:2338   */\n      tag_73\n        /* \"#utility.yul\":2331:2337   */\n      dup2\n        /* \"#utility.yul\":2326:2329   */\n      dup6\n        /* \"#utility.yul\":2319:2323   */\n      0x20\n        /* \"#utility.yul\":2312:2317   */\n      dup7\n        /* \"#utility.yul\":2308:2324   */\n      add\n        /* \"#utility.yul\":2273:2338   */\n      tag_43\n      jump\t// in\n    tag_73:\n        /* \"#utility.yul\":2363:2369   */\n      dup1\n        /* \"#utility.yul\":2358:2361   */\n      dup5\n        /* \"#utility.yul\":2354:2370   */\n      add\n        /* \"#utility.yul\":2347:2370   */\n      swap2\n      pop\n        /* \"#utility.yul\":2098:2376   */\n      pop\n        /* \"#utility.yul\":1990:2376   */\n      swap3\n      swap2\n      pop\n      pop\n      jump\t// out\n        /* \"#utility.yul\":2382:2653   */\n    tag_10:\n        /* \"#utility.yul\":2512:2515   */\n      0x00\n        /* \"#utility.yul\":2534:2627   */\n      tag_75\n        /* \"#utility.yul\":2623:2626   */\n      dup3\n        /* \"#utility.yul\":2614:2620   */\n      dup5\n        /* \"#utility.yul\":2534:2627   */\n      tag_44\n      jump\t// in\n    tag_75:\n        /* \"#utility.yul\":2527:2627   */\n      swap2\n      pop\n        /* \"#utility.yul\":2644:2647   */\n      dup2\n        /* \"#utility.yul\":2637:2647   */\n      swap1\n      pop\n        /* \"#utility.yul\":2382:2653   */\n      swap3\n      swap2\n      pop\n      pop\n      jump\t// out\n        /* \"#utility.yul\":2659:2828   */\n    tag_45:\n        /* \"#utility.yul\":2743:2754   */\n      0x00\n        /* \"#utility.yul\":2777:2783   */\n      dup3\n        /* \"#utility.yul\":2772:2775   */\n      dup3\n        /* \"#utility.yul\":2765:2784   */\n      mstore\n        /* \"#utility.yul\":2817:2821   */\n      0x20\n        /* \"#utility.yul\":2812:2815   */\n      dup3\n        /* \"#utility.yul\":2808:2822   */\n      add\n        /* \"#utility.yul\":2793:2822   */\n      swap1\n      pop\n        /* \"#utility.yul\":2659:2828   */\n      swap3\n      swap2\n      pop\n      pop\n      jump\t// out\n        /* \"#utility.yul\":2834:3002   */\n    tag_46:\n        /* \"#utility.yul\":2974:2994   */\n      0x546170206c6f6767696e67206661696c65640000000000000000000000000000\n        /* \"#utility.yul\":2970:2971   */\n      0x00\n        /* \"#utility.yul\":2962:2968   */\n      dup3\n        /* \"#utility.yul\":2958:2972   */\n      add\n        /* \"#utility.yul\":2951:2995   */\n      mstore\n        /* \"#utility.yul\":2834:3002   */\n      pop\n      jump\t// out\n        /* \"#utility.yul\":3008:3374   */\n    tag_47:\n        /* \"#utility.yul\":3150:3153   */\n      0x00\n        /* \"#utility.yul\":3171:3238   */\n      tag_79\n        /* \"#utility.yul\":3235:3237   */\n      0x12\n        /* \"#utility.yul\":3230:3233   */\n      dup4\n        /* \"#utility.yul\":3171:3238   */\n      tag_45\n      jump\t// in\n    tag_79:\n        /* \"#utility.yul\":3164:3238   */\n      swap2\n      pop\n        /* \"#utility.yul\":3247:3340   */\n      tag_80\n        /* \"#utility.yul\":3336:3339   */\n      dup3\n        /* \"#utility.yul\":3247:3340   */\n      tag_46\n      jump\t// in\n    tag_80:\n        /* \"#utility.yul\":3365:3367   */\n      0x20\n        /* \"#utility.yul\":3360:3363   */\n      dup3\n        /* \"#utility.yul\":3356:3368   */\n      add\n        /* \"#utility.yul\":3349:3368   */\n      swap1\n      pop\n        /* \"#utility.yul\":3008:3374   */\n      swap2\n      swap1\n      pop\n      jump\t// out\n        /* \"#utility.yul\":3380:3799   */\n    tag_16:\n        /* \"#utility.yul\":3546:3550   */\n      0x00\n        /* \"#utility.yul\":3584:3586   */\n      0x20\n        /* \"#utility.yul\":3573:3582   */\n      dup3\n        /* \"#utility.yul\":3569:3587   */\n      add\n        /* \"#utility.yul\":3561:3587   */\n      swap1\n      pop\n        /* \"#utility.yul\":3633:3642   */\n      dup2\n        /* \"#utility.yul\":3627:3631   */\n      dup2\n        /* \"#utility.yul\":3623:3643   */\n      sub\n        /* \"#utility.yul\":3619:3620   */\n      0x00\n        /* \"#utility.yul\":3608:3617   */\n      dup4\n        /* \"#utility.yul\":3604:3621   */\n      add\n        /* \"#utility.yul\":3597:3644   */\n      mstore\n        /* \"#utility.yul\":3661:3792   */\n      tag_82\n        /* \"#utility.yul\":3787:3791   */\n      dup2\n        /* \"#utility.yul\":3661:3792   */\n      tag_47\n      jump\t// in\n    tag_82:\n        /* \"#utility.yul\":3653:3792   */\n      swap1\n      pop\n        /* \"#utility.yul\":3380:3799   */\n      swap2\n      swap1\n      pop\n      jump\t// out\n        /* \"#utility.yul\":3827:4154   */\n    tag_48:\n        /* \"#utility.yul\":3941:3944   */\n      0x00\n        /* \"#utility.yul\":3962:4050   */\n      tag_84\n        /* \"#utility.yul\":4043:4049   */\n      dup4\n        /* \"#utility.yul\":4038:4041   */\n      dup6\n        /* \"#utility.yul\":3962:4050   */\n      tag_42\n      jump\t// in\n    tag_84:\n        /* \"#utility.yul\":3955:4050   */\n      swap4\n      pop\n        /* \"#utility.yul\":4060:4116   */\n      tag_85\n        /* \"#utility.yul\":4109:4115   */\n      dup4\n        /* \"#utility.yul\":4104:4107   */\n      dup6\n        /* \"#utility.yul\":4097:4102   */\n      dup5\n        /* \"#utility.yul\":4060:4116   */\n      tag_38\n      jump\t// in\n    tag_85:\n        /* \"#utility.yul\":4141:4147   */\n      dup3\n        /* \"#utility.yul\":4136:4139   */\n      dup5\n        /* \"#utility.yul\":4132:4148   */\n      add\n        /* \"#utility.yul\":4125:4148   */\n      swap1\n      pop\n        /* \"#utility.yul\":3827:4154   */\n      swap4\n      swap3\n      pop\n      pop\n      pop\n      jump\t// out\n        /* \"#utility.yul\":4160:4451   */\n    tag_18:\n        /* \"#utility.yul\":4300:4303   */\n      0x00\n        /* \"#utility.yul\":4322:4425   */\n      tag_87\n        /* \"#utility.yul\":4421:4424   */\n      dup3\n        /* \"#utility.yul\":4412:4418   */\n      dup5\n        /* \"#utility.yul\":4404:4410   */\n      dup7\n        /* \"#utility.yul\":4322:4425   */\n      tag_48\n      jump\t// in\n    tag_87:\n        /* \"#utility.yul\":4315:4425   */\n      swap2\n      pop\n        /* \"#utility.yul\":4442:4445   */\n      dup2\n        /* \"#utility.yul\":4435:4445   */\n      swap1\n      pop\n        /* \"#utility.yul\":4160:4451   */\n      swap4\n      swap3\n      pop\n      pop\n      pop\n      jump\t// out\n        /* \"#utility.yul\":4457:4623   */\n    tag_49:\n        /* \"#utility.yul\":4597:4615   */\n      0x457865637574696f6e206661696c656400000000000000000000000000000000\n        /* \"#utility.yul\":4593:4594   */\n      0x00\n        /* \"#utility.yul\":4585:4591   */\n      dup3\n        /* \"#utility.yul\":4581:4595   */\n      add\n        /* \"#utility.yul\":4574:4616   */\n      mstore\n        /* \"#utility.yul\":4457:4623   */\n      pop\n      jump\t// out\n        /* \"#utility.yul\":4629:4995   */\n    tag_50:\n        /* \"#utility.yul\":4771:4774   */\n      0x00\n        /* \"#utility.yul\":4792:4859   */\n      tag_90\n        /* \"#utility.yul\":4856:4858   */\n      0x10\n        /* \"#utility.yul\":4851:4854   */\n      dup4\n        /* \"#utility.yul\":4792:4859   */\n      tag_45\n      jump\t// in\n    tag_90:\n        /* \"#utility.yul\":4785:4859   */\n      swap2\n      pop\n        /* \"#utility.yul\":4868:4961   */\n      tag_91\n        /* \"#utility.yul\":4957:4960   */\n      dup3\n        /* \"#utility.yul\":4868:4961   */\n      tag_49\n      jump\t// in\n    tag_91:\n        /* \"#utility.yul\":4986:4988   */\n      0x20\n        /* \"#utility.yul\":4981:4984   */\n      dup3\n        /* \"#utility.yul\":4977:4989   */\n      add\n        /* \"#utility.yul\":4970:4989   */\n      swap1\n      pop\n        /* \"#utility.yul\":4629:4995   */\n      swap2\n      swap1\n      pop\n      jump\t// out\n        /* \"#utility.yul\":5001:5420   */\n    tag_24:\n        /* \"#utility.yul\":5167:5171   */\n      0x00\n        /* \"#utility.yul\":5205:5207   */\n      0x20\n        /* \"#utility.yul\":5194:5203   */\n      dup3\n        /* \"#utility.yul\":5190:5208   */\n      add\n        /* \"#utility.yul\":5182:5208   */\n      swap1\n      pop\n        /* \"#utility.yul\":5254:5263   */\n      dup2\n        /* \"#utility.yul\":5248:5252   */\n      dup2\n        /* \"#utility.yul\":5244:5264   */\n      sub\n        /* \"#utility.yul\":5240:5241   */\n      0x00\n        /* \"#utility.yul\":5229:5238   */\n      dup4\n        /* \"#utility.yul\":5225:5242   */\n      add\n        /* \"#utility.yul\":5218:5265   */\n      mstore\n        /* \"#utility.yul\":5282:5413   */\n      tag_93\n        /* \"#utility.yul\":5408:5412   */\n      dup2\n        /* \"#utility.yul\":5282:5413   */\n      tag_50\n      jump\t// in\n    tag_93:\n        /* \"#utility.yul\":5274:5413   */\n      swap1\n      pop\n        /* \"#utility.yul\":5001:5420   */\n      swap2\n      swap1\n      pop\n      jump\t// out\n        /* \"#utility.yul\":5426:5648   */\n    tag_29:\n        /* \"#utility.yul\":5519:5523   */\n      0x00\n        /* \"#utility.yul\":5557:5559   */\n      0x20\n        /* \"#utility.yul\":5546:5555   */\n      dup3\n        /* \"#utility.yul\":5542:5560   */\n      add\n        /* \"#utility.yul\":5534:5560   */\n      swap1\n      pop\n        /* \"#utility.yul\":5570:5641   */\n      tag_95\n        /* \"#utility.yul\":5638:5639   */\n      0x00\n        /* \"#utility.yul\":5627:5636   */\n      dup4\n        /* \"#utility.yul\":5623:5640   */\n      add\n        /* \"#utility.yul\":5614:5620   */\n      dup5\n        /* \"#utility.yul\":5570:5641   */\n      tag_36\n      jump\t// in\n    tag_95:\n        /* \"#utility.yul\":5426:5648   */\n      swap3\n      swap2\n      pop\n      pop\n      jump\t// out\n\n    auxdata: 0xa2646970667358221220c524c613897364bc1208e0bce110b63db15819067c2de9bbd997534b6f4dd4b664736f6c634300081a0033\n}\n",
				"bytecode": {
					"linkReferences": {},
					"object": "608060405234801561000f575f80fd5b5060405161070b38038061070b83398181016040528101906100319190610115565b8160015f6101000a81548173ffffffffffffffffffffffffffffffffffffffff021916908373ffffffffffffffffffffffffffffffffffffffff160217905550805f806101000a81548173ffffffffffffffffffffffffffffffffffffffff021916908373ffffffffffffffffffffffffffffffffffffffff1602179055505050610153565b5f80fd5b5f73ffffffffffffffffffffffffffffffffffffffff82169050919050565b5f6100e4826100bb565b9050919050565b6100f4816100da565b81146100fe575f80fd5b50565b5f8151905061010f816100eb565b92915050565b5f806040838503121561012b5761012a6100b7565b5b5f61013885828601610101565b925050602061014985828601610101565b9150509250929050565b6105ab806101605f395ff3fe60806040526004361061002c575f3560e01c80635c60da1b14610273578063fd2210311461029d5761002d565b5b5f805f9054906101000a900473ffffffffffffffffffffffffffffffffffffffff1673ffffffffffffffffffffffffffffffffffffffff1660015f9054906101000a900473ffffffffffffffffffffffffffffffffffffffff165f3660405160240161009b939291906103a8565b6040516020818303038152906040527f9f3bd9e0000000000000000000000000000000000000000000000000000000007bffffffffffffffffffffffffffffffffffffffffffffffffffffffff19166020820180517bffffffffffffffffffffffffffffffffffffffffffffffffffffffff8381831617835250505050604051610125919061042a565b5f604051808303815f865af19150503d805f811461015e576040519150601f19603f3d011682016040523d82523d5f602084013e610163565b606091505b50509050806101a7576040517f08c379a000000000000000000000000000000000000000000000000000000000815260040161019e9061049a565b60405180910390fd5b5f60015f9054906101000a900473ffffffffffffffffffffffffffffffffffffffff1673ffffffffffffffffffffffffffffffffffffffff165f366040516101f09291906104dc565b5f60405180830381855af49150503d805f8114610228576040519150601f19603f3d011682016040523d82523d5f602084013e61022d565b606091505b5050905080610271576040517f08c379a00000000000000000000000000000000000000000000000000000000081526004016102689061053e565b60405180910390fd5b005b34801561027e575f80fd5b506102876102c7565b604051610294919061055c565b60405180910390f35b3480156102a8575f80fd5b506102b16102ec565b6040516102be919061055c565b60405180910390f35b60015f9054906101000a900473ffffffffffffffffffffffffffffffffffffffff1681565b5f8054906101000a900473ffffffffffffffffffffffffffffffffffffffff1681565b5f73ffffffffffffffffffffffffffffffffffffffff82169050919050565b5f6103388261030f565b9050919050565b6103488161032e565b82525050565b5f82825260208201905092915050565b828183375f83830152505050565b5f601f19601f8301169050919050565b5f610387838561034e565b935061039483858461035e565b61039d8361036c565b840190509392505050565b5f6040820190506103bb5f83018661033f565b81810360208301526103ce81848661037c565b9050949350505050565b5f81519050919050565b5f81905092915050565b8281835e5f83830152505050565b5f610404826103d8565b61040e81856103e2565b935061041e8185602086016103ec565b80840191505092915050565b5f61043582846103fa565b915081905092915050565b5f82825260208201905092915050565b7f546170206c6f6767696e67206661696c656400000000000000000000000000005f82015250565b5f610484601283610440565b915061048f82610450565b602082019050919050565b5f6020820190508181035f8301526104b181610478565b9050919050565b5f6104c383856103e2565b93506104d083858461035e565b82840190509392505050565b5f6104e88284866104b8565b91508190509392505050565b7f457865637574696f6e206661696c6564000000000000000000000000000000005f82015250565b5f610528601083610440565b9150610533826104f4565b602082019050919050565b5f6020820190508181035f8301526105558161051c565b9050919050565b5f60208201905061056f5f83018461033f565b9291505056fea2646970667358221220c524c613897364bc1208e0bce110b63db15819067c2de9bbd997534b6f4dd4b664736f6c634300081a0033",
					"opcodes": "PUSH1 0x80 PUSH1 0x40 MSTORE CALLVALUE DUP1 ISZERO PUSH2 0xF JUMPI PUSH0 DUP1 REVERT JUMPDEST POP PUSH1 0x40 MLOAD PUSH2 0x70B CODESIZE SUB DUP1 PUSH2 0x70B DUP4 CODECOPY DUP2 DUP2 ADD PUSH1 0x40 MSTORE DUP2 ADD SWAP1 PUSH2 0x31 SWAP2 SWAP1 PUSH2 0x115 JUMP JUMPDEST DUP2 PUSH1 0x1 PUSH0 PUSH2 0x100 EXP DUP2 SLOAD DUP2 PUSH20 0xFFFFFFFFFFFFFFFFFFFFFFFFFFFFFFFFFFFFFFFF MUL NOT AND SWAP1 DUP4 PUSH20 0xFFFFFFFFFFFFFFFFFFFFFFFFFFFFFFFFFFFFFFFF AND MUL OR SWAP1 SSTORE POP DUP1 PUSH0 DUP1 PUSH2 0x100 EXP DUP2 SLOAD DUP2 PUSH20 0xFFFFFFFFFFFFFFFFFFFFFFFFFFFFFFFFFFFFFFFF MUL NOT AND SWAP1 DUP4 PUSH20 0xFFFFFFFFFFFFFFFFFFFFFFFFFFFFFFFFFFFFFFFF AND MUL OR SWAP1 SSTORE POP POP POP PUSH2 0x153 JUMP JUMPDEST PUSH0 DUP1 REVERT JUMPDEST PUSH0 PUSH20 0xFFFFFFFFFFFFFFFFFFFFFFFFFFFFFFFFFFFFFFFF DUP3 AND SWAP1 POP SWAP2 SWAP1 POP JUMP JUMPDEST PUSH0 PUSH2 0xE4 DUP3 PUSH2 0xBB JUMP JUMPDEST SWAP1 POP SWAP2 SWAP1 POP JUMP JUMPDEST PUSH2 0xF4 DUP2 PUSH2 0xDA JUMP JUMPDEST DUP2 EQ PUSH2 0xFE JUMPI PUSH0 DUP1 REVERT JUMPDEST POP JUMP JUMPDEST PUSH0 DUP2 MLOAD SWAP1 POP PUSH2 0x10F DUP2 PUSH2 0xEB JUMP JUMPDEST SWAP3 SWAP2 POP POP JUMP JUMPDEST PUSH0 DUP1 PUSH1 0x40 DUP4 DUP6 SUB SLT ISZERO PUSH2 0x12B JUMPI PUSH2 0x12A PUSH2 0xB7 JUMP JUMPDEST JUMPDEST PUSH0 PUSH2 0x138 DUP6 DUP3 DUP7 ADD PUSH2 0x101 JUMP JUMPDEST SWAP3 POP POP PUSH1 0x20 PUSH2 0x149 DUP6 DUP3 DUP7 ADD PUSH2 0x101 JUMP JUMPDEST SWAP2 POP POP SWAP3 POP SWAP3 SWAP1 POP JUMP JUMPDEST PUSH2 0x5AB DUP1 PUSH2 0x160 PUSH0 CODECOPY PUSH0 RETURN INVALID PUSH1 0x80 PUSH1 0x40 MSTORE PUSH1 0x4 CALLDATASIZE LT PUSH2 0x2C JUMPI PUSH0 CALLDATALOAD PUSH1 0xE0 SHR DUP1 PUSH4 0x5C60DA1B EQ PUSH2 0x273 JUMPI DUP1 PUSH4 0xFD221031 EQ PUSH2 0x29D JUMPI PUSH2 0x2D JUMP JUMPDEST JUMPDEST PUSH0 DUP1 PUSH0 SWAP1 SLOAD SWAP1 PUSH2 0x100 EXP SWAP1 DIV PUSH20 0xFFFFFFFFFFFFFFFFFFFFFFFFFFFFFFFFFFFFFFFF AND PUSH20 0xFFFFFFFFFFFFFFFFFFFFFFFFFFFFFFFFFFFFFFFF AND PUSH1 0x1 PUSH0 SWAP1 SLOAD SWAP1 PUSH2 0x100 EXP SWAP1 DIV PUSH20 0xFFFFFFFFFFFFFFFFFFFFFFFFFFFFFFFFFFFFFFFF AND PUSH0 CALLDATASIZE PUSH1 0x40 MLOAD PUSH1 0x24 ADD PUSH2 0x9B SWAP4 SWAP3 SWAP2 SWAP1 PUSH2 0x3A8 JUMP JUMPDEST PUSH1 0x40 MLOAD PUSH1 0x20 DUP2 DUP4 SUB SUB DUP2 MSTORE SWAP1 PUSH1 0x40 MSTORE PUSH32 0x9F3BD9E000000000000000000000000000000000000000000000000000000000 PUSH28 0xFFFFFFFFFFFFFFFFFFFFFFFFFFFFFFFFFFFFFFFFFFFFFFFFFFFFFFFF NOT AND PUSH1 0x20 DUP3 ADD DUP1 MLOAD PUSH28 0xFFFFFFFFFFFFFFFFFFFFFFFFFFFFFFFFFFFFFFFFFFFFFFFFFFFFFFFF DUP4 DUP2 DUP4 AND OR DUP4 MSTORE POP POP POP POP PUSH1 0x40 MLOAD PUSH2 0x125 SWAP2 SWAP1 PUSH2 0x42A JUMP JUMPDEST PUSH0 PUSH1 0x40 MLOAD DUP1 DUP4 SUB DUP2 PUSH0 DUP7 GAS CALL SWAP2 POP POP RETURNDATASIZE DUP1 PUSH0 DUP2 EQ PUSH2 0x15E JUMPI PUSH1 0x40 MLOAD SWAP2 POP PUSH1 0x1F NOT PUSH1 0x3F RETURNDATASIZE ADD AND DUP3 ADD PUSH1 0x40 MSTORE RETURNDATASIZE DUP3 MSTORE RETURNDATASIZE PUSH0 PUSH1 0x20 DUP5 ADD RETURNDATACOPY PUSH2 0x163 JUMP JUMPDEST PUSH1 0x60 SWAP2 POP JUMPDEST POP POP SWAP1 POP DUP1 PUSH2 0x1A7 JUMPI PUSH1 0x40 MLOAD PUSH32 0x8C379A000000000000000000000000000000000000000000000000000000000 DUP2 MSTORE PUSH1 0x4 ADD PUSH2 0x19E SWAP1 PUSH2 0x49A JUMP JUMPDEST PUSH1 0x40 MLOAD DUP1 SWAP2 SUB SWAP1 REVERT JUMPDEST PUSH0 PUSH1 0x1 PUSH0 SWAP1 SLOAD SWAP1 PUSH2 0x100 EXP SWAP1 DIV PUSH20 0xFFFFFFFFFFFFFFFFFFFFFFFFFFFFFFFFFFFFFFFF AND PUSH20 0xFFFFFFFFFFFFFFFFFFFFFFFFFFFFFFFFFFFFFFFF AND PUSH0 CALLDATASIZE PUSH1 0x40 MLOAD PUSH2 0x1F0 SWAP3 SWAP2 SWAP1 PUSH2 0x4DC JUMP JUMPDEST PUSH0 PUSH1 0x40 MLOAD DUP1 DUP4 SUB DUP2 DUP6 GAS DELEGATECALL SWAP2 POP POP RETURNDATASIZE DUP1 PUSH0 DUP2 EQ PUSH2 0x228 JUMPI PUSH1 0x40 MLOAD SWAP2 POP PUSH1 0x1F NOT PUSH1 0x3F RETURNDATASIZE ADD AND DUP3 ADD PUSH1 0x40 MSTORE RETURNDATASIZE DUP3 MSTORE RETURNDATASIZE PUSH0 PUSH1 0x20 DUP5 ADD RETURNDATACOPY PUSH2 0x22D JUMP JUMPDEST PUSH1 0x60 SWAP2 POP JUMPDEST POP POP SWAP1 POP DUP1 PUSH2 0x271 JUMPI PUSH1 0x40 MLOAD PUSH32 0x8C379A000000000000000000000000000000000000000000000000000000000 DUP2 MSTORE PUSH1 0x4 ADD PUSH2 0x268 SWAP1 PUSH2 0x53E JUMP JUMPDEST PUSH1 0x40 MLOAD DUP1 SWAP2 SUB SWAP1 REVERT JUMPDEST STOP JUMPDEST CALLVALUE DUP1 ISZERO PUSH2 0x27E JUMPI PUSH0 DUP1 REVERT JUMPDEST POP PUSH2 0x287 PUSH2 0x2C7 JUMP JUMPDEST PUSH1 0x40 MLOAD PUSH2 0x294 SWAP2 SWAP1 PUSH2 0x55C JUMP JUMPDEST PUSH1 0x40 MLOAD DUP1 SWAP2 SUB SWAP1 RETURN JUMPDEST CALLVALUE DUP1 ISZERO PUSH2 0x2A8 JUMPI PUSH0 DUP1 REVERT JUMPDEST POP PUSH2 0x2B1 PUSH2 0x2EC JUMP JUMPDEST PUSH1 0x40 MLOAD PUSH2 0x2BE SWAP2 SWAP1 PUSH2 0x55C JUMP JUMPDEST PUSH1 0x40 MLOAD DUP1 SWAP2 SUB SWAP1 RETURN JUMPDEST PUSH1 0x1 PUSH0 SWAP1 SLOAD SWAP1 PUSH2 0x100 EXP SWAP1 DIV PUSH20 0xFFFFFFFFFFFFFFFFFFFFFFFFFFFFFFFFFFFFFFFF AND DUP2 JUMP JUMPDEST PUSH0 DUP1 SLOAD SWAP1 PUSH2 0x100 EXP SWAP1 DIV PUSH20 0xFFFFFFFFFFFFFFFFFFFFFFFFFFFFFFFFFFFFFFFF AND DUP2 JUMP JUMPDEST PUSH0 PUSH20 0xFFFFFFFFFFFFFFFFFFFFFFFFFFFFFFFFFFFFFFFF DUP3 AND SWAP1 POP SWAP2 SWAP1 POP JUMP JUMPDEST PUSH0 PUSH2 0x338 DUP3 PUSH2 0x30F JUMP JUMPDEST SWAP1 POP SWAP2 SWAP1 POP JUMP JUMPDEST PUSH2 0x348 DUP2 PUSH2 0x32E JUMP JUMPDEST DUP3 MSTORE POP POP JUMP JUMPDEST PUSH0 DUP3 DUP3 MSTORE PUSH1 0x20 DUP3 ADD SWAP1 POP SWAP3 SWAP2 POP POP JUMP JUMPDEST DUP3 DUP2 DUP4 CALLDATACOPY PUSH0 DUP4 DUP4 ADD MSTORE POP POP POP JUMP JUMPDEST PUSH0 PUSH1 0x1F NOT PUSH1 0x1F DUP4 ADD AND SWAP1 POP SWAP2 SWAP1 POP JUMP JUMPDEST PUSH0 PUSH2 0x387 DUP4 DUP6 PUSH2 0x34E JUMP JUMPDEST SWAP4 POP PUSH2 0x394 DUP4 DUP6 DUP5 PUSH2 0x35E JUMP JUMPDEST PUSH2 0x39D DUP4 PUSH2 0x36C JUMP JUMPDEST DUP5 ADD SWAP1 POP SWAP4 SWAP3 POP POP POP JUMP JUMPDEST PUSH0 PUSH1 0x40 DUP3 ADD SWAP1 POP PUSH2 0x3BB PUSH0 DUP4 ADD DUP7 PUSH2 0x33F JUMP JUMPDEST DUP2 DUP2 SUB PUSH1 0x20 DUP4 ADD MSTORE PUSH2 0x3CE DUP2 DUP5 DUP7 PUSH2 0x37C JUMP JUMPDEST SWAP1 POP SWAP5 SWAP4 POP POP POP POP JUMP JUMPDEST PUSH0 DUP2 MLOAD SWAP1 POP SWAP2 SWAP1 POP JUMP JUMPDEST PUSH0 DUP2 SWAP1 POP SWAP3 SWAP2 POP POP JUMP JUMPDEST DUP3 DUP2 DUP4 MCOPY PUSH0 DUP4 DUP4 ADD MSTORE POP POP POP JUMP JUMPDEST PUSH0 PUSH2 0x404 DUP3 PUSH2 0x3D8 JUMP JUMPDEST PUSH2 0x40E DUP2 DUP6 PUSH2 0x3E2 JUMP JUMPDEST SWAP4 POP PUSH2 0x41E DUP2 DUP6 PUSH1 0x20 DUP7 ADD PUSH2 0x3EC JUMP JUMPDEST DUP1 DUP5 ADD SWAP2 POP POP SWAP3 SWAP2 POP POP JUMP JUMPDEST PUSH0 PUSH2 0x435 DUP3 DUP5 PUSH2 0x3FA JUMP JUMPDEST SWAP2 POP DUP2 SWAP1 POP SWAP3 SWAP2 POP POP JUMP JUMPDEST PUSH0 DUP3 DUP3 MSTORE PUSH1 0x20 DUP3 ADD SWAP1 POP SWAP3 SWAP2 POP POP JUMP JUMPDEST PUSH32 0x546170206C6F6767696E67206661696C65640000000000000000000000000000 PUSH0 DUP3 ADD MSTORE POP JUMP JUMPDEST PUSH0 PUSH2 0x484 PUSH1 0x12 DUP4 PUSH2 0x440 JUMP JUMPDEST SWAP2 POP PUSH2 0x48F DUP3 PUSH2 0x450 JUMP JUMPDEST PUSH1 0x20 DUP3 ADD SWAP1 POP SWAP2 SWAP1 POP JUMP JUMPDEST PUSH0 PUSH1 0x20 DUP3 ADD SWAP1 POP DUP2 DUP2 SUB PUSH0 DUP4 ADD MSTORE PUSH2 0x4B1 DUP2 PUSH2 0x478 JUMP JUMPDEST SWAP1 POP SWAP2 SWAP1 POP JUMP JUMPDEST PUSH0 PUSH2 0x4C3 DUP4 DUP6 PUSH2 0x3E2 JUMP JUMPDEST SWAP4 POP PUSH2 0x4D0 DUP4 DUP6 DUP5 PUSH2 0x35E JUMP JUMPDEST DUP3 DUP5 ADD SWAP1 POP SWAP4 SWAP3 POP POP POP JUMP JUMPDEST PUSH0 PUSH2 0x4E8 DUP3 DUP5 DUP7 PUSH2 0x4B8 JUMP JUMPDEST SWAP2 POP DUP2 SWAP1 POP SWAP4 SWAP3 POP POP POP JUMP JUMPDEST PUSH32 0x457865637574696F6E206661696C656400000000000000000000000000000000 PUSH0 DUP3 ADD MSTORE POP JUMP JUMPDEST PUSH0 PUSH2 0x528 PUSH1 0x10 DUP4 PUSH2 0x440 JUMP JUMPDEST SWAP2 POP PUSH2 0x533 DUP3 PUSH2 0x4F4 JUMP JUMPDEST PUSH1 0x20 DUP3 ADD SWAP1 POP SWAP2 SWAP1 POP JUMP JUMPDEST PUSH0 PUSH1 0x20 DUP3 ADD SWAP1 POP DUP2 DUP2 SUB PUSH0 DUP4 ADD MSTORE PUSH2 0x555 DUP2 PUSH2 0x51C JUMP JUMPDEST SWAP1 POP SWAP2 SWAP1 POP JUMP JUMPDEST PUSH0 PUSH1 0x20 DUP3 ADD SWAP1 POP PUSH2 0x56F PUSH0 DUP4 ADD DUP5 PUSH2 0x33F JUMP JUMPDEST SWAP3 SWAP2 POP POP JUMP INVALID LOG2 PUSH5 0x6970667358 0x22 SLT KECCAK256 0xC5 0x24 0xC6 SGT DUP10 PUSH20 0x64BC1208E0BCE110B63DB15819067C2DE9BBD997 MSTORE8 0x4B PUSH16 0x4DD4B664736F6C634300081A00330000 "
				},
				"gasEstimates": {
					"creation": {
						"codeDepositCost": "290200",
						"executionCost": "infinite",
						"totalCost": "infinite"
					},
					"external": {
						"": "infinite",
						"implementation()": "2486",
						"tap()": "2505"
					}
				},
				"methodIdentifiers": {
					"implementation()": "5c60da1b",
					"tap()": "fd221031"
				}
			},
			"storageLayout": {
				"storage": [
					{
						"astId": 2,
						"contract": "N/Network Taps/StealthTapProxy.sol:StealthTapProxy",
						"label": "tap",
						"offset": 0,
						"slot": "0",
						"type": "t_address"
					},
					{
						"astId": 4,
						"contract": "N/Network Taps/StealthTapProxy.sol:StealthTapProxy",
						"label": "implementation",
						"offset": 0,
						"slot": "1",
						"type": "t_address"
					}
				],
				"types": {
					"t_address": {
						"encoding": "inplace",
						"label": "address",
						"numberOfBytes": "20"
					}
				}
			},
			"userdoc": {
				"kind": "user",
				"methods": {},
				"version": 1
			}
		}
	}
}