{
	"N/Non-Repudiation/Extension to test reused or fake signer payloads.sol": {
		"AutoSimWithReplayCheck": {
			"abi": [
				{
					"inputs": [
						{
							"internalType": "address",
							"name": "_verifier",
							"type": "address"
						}
					],
					"stateMutability": "nonpayable",
					"type": "constructor"
				},
				{
					"inputs": [
						{
							"internalType": "bytes32",
							"name": "hash",
							"type": "bytes32"
						},
						{
							"internalType": "bytes",
							"name": "sig",
							"type": "bytes"
						},
						{
							"internalType": "address",
							"name": "expectedSigner",
							"type": "address"
						}
					],
					"name": "simulateAction",
					"outputs": [],
					"stateMutability": "nonpayable",
					"type": "function"
				},
				{
					"inputs": [
						{
							"internalType": "bytes32",
							"name": "",
							"type": "bytes32"
						}
					],
					"name": "usedHashes",
					"outputs": [
						{
							"internalType": "bool",
							"name": "",
							"type": "bool"
						}
					],
					"stateMutability": "view",
					"type": "function"
				},
				{
					"inputs": [],
					"name": "verifier",
					"outputs": [
						{
							"internalType": "contract ISignatureVerifier",
							"name": "",
							"type": "address"
						}
					],
					"stateMutability": "view",
					"type": "function"
				}
			],
			"devdoc": {
				"kind": "dev",
				"methods": {},
				"version": 1
			},
			"evm": {
				"assembly": "    /* \"N/Non-Repudiation/Extension to test reused or fake signer payloads.sol\":142:655  contract AutoSimWithReplayCheck {... */\n  mstore(0x40, 0x80)\n    /* \"N/Non-Repudiation/Extension to test reused or fake signer payloads.sol\":269:357  constructor(address _verifier) {... */\n  callvalue\n  dup1\n  iszero\n  tag_1\n  jumpi\n  0x00\n  dup1\n  revert\ntag_1:\n  pop\n  mload(0x40)\n  sub(codesize, bytecodeSize)\n  dup1\n  bytecodeSize\n  dup4\n  codecopy\n  dup2\n  dup2\n  add\n  0x40\n  mstore\n  dup2\n  add\n  swap1\n  tag_2\n  swap2\n  swap1\n  tag_3\n  jump\t// in\ntag_2:\n    /* \"N/Non-Repudiation/Extension to test reused or fake signer payloads.sol\":340:349  _verifier */\n  dup1\n    /* \"N/Non-Repudiation/Extension to test reused or fake signer payloads.sol\":310:318  verifier */\n  0x00\n  dup1\n    /* \"N/Non-Repudiation/Extension to test reused or fake signer payloads.sol\":310:350  verifier = ISignatureVerifier(_verifier) */\n  0x0100\n  exp\n  dup2\n  sload\n  dup2\n  0xffffffffffffffffffffffffffffffffffffffff\n  mul\n  not\n  and\n  swap1\n  dup4\n  0xffffffffffffffffffffffffffffffffffffffff\n  and\n  mul\n  or\n  swap1\n  sstore\n  pop\n    /* \"N/Non-Repudiation/Extension to test reused or fake signer payloads.sol\":269:357  constructor(address _verifier) {... */\n  pop\n    /* \"N/Non-Repudiation/Extension to test reused or fake signer payloads.sol\":142:655  contract AutoSimWithReplayCheck {... */\n  jump(tag_6)\n    /* \"#utility.yul\":88:205   */\ntag_8:\n    /* \"#utility.yul\":197:198   */\n  0x00\n    /* \"#utility.yul\":194:195   */\n  dup1\n    /* \"#utility.yul\":187:199   */\n  revert\n    /* \"#utility.yul\":334:460   */\ntag_10:\n    /* \"#utility.yul\":371:378   */\n  0x00\n    /* \"#utility.yul\":411:453   */\n  0xffffffffffffffffffffffffffffffffffffffff\n    /* \"#utility.yul\":404:409   */\n  dup3\n    /* \"#utility.yul\":400:454   */\n  and\n    /* \"#utility.yul\":389:454   */\n  swap1\n  pop\n    /* \"#utility.yul\":334:460   */\n  swap2\n  swap1\n  pop\n  jump\t// out\n    /* \"#utility.yul\":466:562   */\ntag_11:\n    /* \"#utility.yul\":503:510   */\n  0x00\n    /* \"#utility.yul\":532:556   */\n  tag_20\n    /* \"#utility.yul\":550:555   */\n  dup3\n    /* \"#utility.yul\":532:556   */\n  tag_10\n  jump\t// in\ntag_20:\n    /* \"#utility.yul\":521:556   */\n  swap1\n  pop\n    /* \"#utility.yul\":466:562   */\n  swap2\n  swap1\n  pop\n  jump\t// out\n    /* \"#utility.yul\":568:690   */\ntag_12:\n    /* \"#utility.yul\":641:665   */\n  tag_22\n    /* \"#utility.yul\":659:664   */\n  dup2\n    /* \"#utility.yul\":641:665   */\n  tag_11\n  jump\t// in\ntag_22:\n    /* \"#utility.yul\":634:639   */\n  dup2\n    /* \"#utility.yul\":631:666   */\n  eq\n    /* \"#utility.yul\":621:684   */\n  tag_23\n  jumpi\n    /* \"#utility.yul\":680:681   */\n  0x00\n    /* \"#utility.yul\":677:678   */\n  dup1\n    /* \"#utility.yul\":670:682   */\n  revert\n    /* \"#utility.yul\":621:684   */\ntag_23:\n    /* \"#utility.yul\":568:690   */\n  pop\n  jump\t// out\n    /* \"#utility.yul\":696:839   */\ntag_13:\n    /* \"#utility.yul\":753:758   */\n  0x00\n    /* \"#utility.yul\":784:790   */\n  dup2\n    /* \"#utility.yul\":778:791   */\n  mload\n    /* \"#utility.yul\":769:791   */\n  swap1\n  pop\n    /* \"#utility.yul\":800:833   */\n  tag_25\n    /* \"#utility.yul\":827:832   */\n  dup2\n    /* \"#utility.yul\":800:833   */\n  tag_12\n  jump\t// in\ntag_25:\n    /* \"#utility.yul\":696:839   */\n  swap3\n  swap2\n  pop\n  pop\n  jump\t// out\n    /* \"#utility.yul\":845:1196   */\ntag_3:\n    /* \"#utility.yul\":915:921   */\n  0x00\n    /* \"#utility.yul\":964:966   */\n  0x20\n    /* \"#utility.yul\":952:961   */\n  dup3\n    /* \"#utility.yul\":943:950   */\n  dup5\n    /* \"#utility.yul\":939:962   */\n  sub\n    /* \"#utility.yul\":935:967   */\n  slt\n    /* \"#utility.yul\":932:1051   */\n  iszero\n  tag_27\n  jumpi\n    /* \"#utility.yul\":970:1049   */\n  tag_28\n  tag_8\n  jump\t// in\ntag_28:\n    /* \"#utility.yul\":932:1051   */\ntag_27:\n    /* \"#utility.yul\":1090:1091   */\n  0x00\n    /* \"#utility.yul\":1115:1179   */\n  tag_29\n    /* \"#utility.yul\":1171:1178   */\n  dup5\n    /* \"#utility.yul\":1162:1168   */\n  dup3\n    /* \"#utility.yul\":1151:1160   */\n  dup6\n    /* \"#utility.yul\":1147:1169   */\n  add\n    /* \"#utility.yul\":1115:1179   */\n  tag_13\n  jump\t// in\ntag_29:\n    /* \"#utility.yul\":1105:1179   */\n  swap2\n  pop\n    /* \"#utility.yul\":1061:1189   */\n  pop\n    /* \"#utility.yul\":845:1196   */\n  swap3\n  swap2\n  pop\n  pop\n  jump\t// out\n    /* \"N/Non-Repudiation/Extension to test reused or fake signer payloads.sol\":142:655  contract AutoSimWithReplayCheck {... */\ntag_6:\n  dataSize(sub_0)\n  dup1\n  dataOffset(sub_0)\n  0x00\n  codecopy\n  0x00\n  return\nstop\n\nsub_0: assembly {\n        /* \"N/Non-Repudiation/Extension to test reused or fake signer payloads.sol\":142:655  contract AutoSimWithReplayCheck {... */\n      mstore(0x40, 0x80)\n      callvalue\n      dup1\n      iszero\n      tag_1\n      jumpi\n      0x00\n      dup1\n      revert\n    tag_1:\n      pop\n      jumpi(tag_2, lt(calldatasize, 0x04))\n      shr(0xe0, calldataload(0x00))\n      dup1\n      0x2b7ac3f3\n      eq\n      tag_3\n      jumpi\n      dup1\n      0x731c23e3\n      eq\n      tag_4\n      jumpi\n      dup1\n      0xaef18bf7\n      eq\n      tag_5\n      jumpi\n    tag_2:\n      0x00\n      dup1\n      revert\n        /* \"N/Non-Repudiation/Extension to test reused or fake signer payloads.sol\":180:214  ISignatureVerifier public verifier */\n    tag_3:\n      tag_6\n      tag_7\n      jump\t// in\n    tag_6:\n      mload(0x40)\n      tag_8\n      swap2\n      swap1\n      tag_9\n      jump\t// in\n    tag_8:\n      mload(0x40)\n      dup1\n      swap2\n      sub\n      swap1\n      return\n        /* \"N/Non-Repudiation/Extension to test reused or fake signer payloads.sol\":363:653  function simulateAction(bytes32 hash, bytes calldata sig, address expectedSigner) external {... */\n    tag_4:\n      tag_10\n      0x04\n      dup1\n      calldatasize\n      sub\n      dup2\n      add\n      swap1\n      tag_11\n      swap2\n      swap1\n      tag_12\n      jump\t// in\n    tag_11:\n      tag_13\n      jump\t// in\n    tag_10:\n      stop\n        /* \"N/Non-Repudiation/Extension to test reused or fake signer payloads.sol\":220:262  mapping(bytes32 => bool) public usedHashes */\n    tag_5:\n      tag_14\n      0x04\n      dup1\n      calldatasize\n      sub\n      dup2\n      add\n      swap1\n      tag_15\n      swap2\n      swap1\n      tag_16\n      jump\t// in\n    tag_15:\n      tag_17\n      jump\t// in\n    tag_14:\n      mload(0x40)\n      tag_18\n      swap2\n      swap1\n      tag_19\n      jump\t// in\n    tag_18:\n      mload(0x40)\n      dup1\n      swap2\n      sub\n      swap1\n      return\n        /* \"N/Non-Repudiation/Extension to test reused or fake signer payloads.sol\":180:214  ISignatureVerifier public verifier */\n    tag_7:\n      0x00\n      dup1\n      sload\n      swap1\n      0x0100\n      exp\n      swap1\n      div\n      0xffffffffffffffffffffffffffffffffffffffff\n      and\n      dup2\n      jump\t// out\n        /* \"N/Non-Repudiation/Extension to test reused or fake signer payloads.sol\":363:653  function simulateAction(bytes32 hash, bytes calldata sig, address expectedSigner) external {... */\n    tag_13:\n        /* \"N/Non-Repudiation/Extension to test reused or fake signer payloads.sol\":473:483  usedHashes */\n      0x01\n        /* \"N/Non-Repudiation/Extension to test reused or fake signer payloads.sol\":473:489  usedHashes[hash] */\n      0x00\n        /* \"N/Non-Repudiation/Extension to test reused or fake signer payloads.sol\":484:488  hash */\n      dup6\n        /* \"N/Non-Repudiation/Extension to test reused or fake signer payloads.sol\":473:489  usedHashes[hash] */\n      dup2\n      mstore\n      0x20\n      add\n      swap1\n      dup2\n      mstore\n      0x20\n      add\n      0x00\n      keccak256\n      0x00\n      swap1\n      sload\n      swap1\n      0x0100\n      exp\n      swap1\n      div\n      0xff\n      and\n        /* \"N/Non-Repudiation/Extension to test reused or fake signer payloads.sol\":472:489  !usedHashes[hash] */\n      iszero\n        /* \"N/Non-Repudiation/Extension to test reused or fake signer payloads.sol\":464:509  require(!usedHashes[hash], \"Replay detected\") */\n      tag_21\n      jumpi\n      mload(0x40)\n      0x08c379a000000000000000000000000000000000000000000000000000000000\n      dup2\n      mstore\n      0x04\n      add\n      tag_22\n      swap1\n      tag_23\n      jump\t// in\n    tag_22:\n      mload(0x40)\n      dup1\n      swap2\n      sub\n      swap1\n      revert\n    tag_21:\n        /* \"N/Non-Repudiation/Extension to test reused or fake signer payloads.sol\":519:526  bool ok */\n      0x00\n        /* \"N/Non-Repudiation/Extension to test reused or fake signer payloads.sol\":529:537  verifier */\n      dup1\n      0x00\n      swap1\n      sload\n      swap1\n      0x0100\n      exp\n      swap1\n      div\n      0xffffffffffffffffffffffffffffffffffffffff\n      and\n        /* \"N/Non-Repudiation/Extension to test reused or fake signer payloads.sol\":529:544  verifier.verify */\n      0xffffffffffffffffffffffffffffffffffffffff\n      and\n      0x1a86b550\n        /* \"N/Non-Repudiation/Extension to test reused or fake signer payloads.sol\":545:559  expectedSigner */\n      dup4\n        /* \"N/Non-Repudiation/Extension to test reused or fake signer payloads.sol\":561:565  hash */\n      dup8\n        /* \"N/Non-Repudiation/Extension to test reused or fake signer payloads.sol\":567:570  sig */\n      dup8\n      dup8\n        /* \"N/Non-Repudiation/Extension to test reused or fake signer payloads.sol\":529:571  verifier.verify(expectedSigner, hash, sig) */\n      mload(0x40)\n      dup6\n      0xffffffff\n      and\n      0xe0\n      shl\n      dup2\n      mstore\n      0x04\n      add\n      tag_24\n      swap5\n      swap4\n      swap3\n      swap2\n      swap1\n      tag_25\n      jump\t// in\n    tag_24:\n      0x20\n      mload(0x40)\n      dup1\n      dup4\n      sub\n      dup2\n      dup7\n      gas\n      staticcall\n      iszero\n      dup1\n      iszero\n      tag_27\n      jumpi\n      returndatasize\n      0x00\n      dup1\n      returndatacopy\n      revert(0x00, returndatasize)\n    tag_27:\n      pop\n      pop\n      pop\n      pop\n      mload(0x40)\n      returndatasize\n      not(0x1f)\n      0x1f\n      dup3\n      add\n      and\n      dup3\n      add\n      dup1\n      0x40\n      mstore\n      pop\n      dup2\n      add\n      swap1\n      tag_28\n      swap2\n      swap1\n      tag_29\n      jump\t// in\n    tag_28:\n        /* \"N/Non-Repudiation/Extension to test reused or fake signer payloads.sol\":519:571  bool ok = verifier.verify(expectedSigner, hash, sig) */\n      swap1\n      pop\n        /* \"N/Non-Repudiation/Extension to test reused or fake signer payloads.sol\":589:591  ok */\n      dup1\n        /* \"N/Non-Repudiation/Extension to test reused or fake signer payloads.sol\":581:613  require(ok, \"Invalid signature\") */\n      tag_30\n      jumpi\n      mload(0x40)\n      0x08c379a000000000000000000000000000000000000000000000000000000000\n      dup2\n      mstore\n      0x04\n      add\n      tag_31\n      swap1\n      tag_32\n      jump\t// in\n    tag_31:\n      mload(0x40)\n      dup1\n      swap2\n      sub\n      swap1\n      revert\n    tag_30:\n        /* \"N/Non-Repudiation/Extension to test reused or fake signer payloads.sol\":642:646  true */\n      0x01\n        /* \"N/Non-Repudiation/Extension to test reused or fake signer payloads.sol\":623:633  usedHashes */\n      dup1\n        /* \"N/Non-Repudiation/Extension to test reused or fake signer payloads.sol\":623:639  usedHashes[hash] */\n      0x00\n        /* \"N/Non-Repudiation/Extension to test reused or fake signer payloads.sol\":634:638  hash */\n      dup8\n        /* \"N/Non-Repudiation/Extension to test reused or fake signer payloads.sol\":623:639  usedHashes[hash] */\n      dup2\n      mstore\n      0x20\n      add\n      swap1\n      dup2\n      mstore\n      0x20\n      add\n      0x00\n      keccak256\n      0x00\n        /* \"N/Non-Repudiation/Extension to test reused or fake signer payloads.sol\":623:646  usedHashes[hash] = true */\n      0x0100\n      exp\n      dup2\n      sload\n      dup2\n      0xff\n      mul\n      not\n      and\n      swap1\n      dup4\n      iszero\n      iszero\n      mul\n      or\n      swap1\n      sstore\n      pop\n        /* \"N/Non-Repudiation/Extension to test reused or fake signer payloads.sol\":454:653  {... */\n      pop\n        /* \"N/Non-Repudiation/Extension to test reused or fake signer payloads.sol\":363:653  function simulateAction(bytes32 hash, bytes calldata sig, address expectedSigner) external {... */\n      pop\n      pop\n      pop\n      pop\n      jump\t// out\n        /* \"N/Non-Repudiation/Extension to test reused or fake signer payloads.sol\":220:262  mapping(bytes32 => bool) public usedHashes */\n    tag_17:\n      mstore(0x20, 0x01)\n      dup1\n      0x00\n      mstore\n      keccak256(0x00, 0x40)\n      0x00\n      swap2\n      pop\n      sload\n      swap1\n      0x0100\n      exp\n      swap1\n      div\n      0xff\n      and\n      dup2\n      jump\t// out\n        /* \"#utility.yul\":7:133   */\n    tag_33:\n        /* \"#utility.yul\":44:51   */\n      0x00\n        /* \"#utility.yul\":84:126   */\n      0xffffffffffffffffffffffffffffffffffffffff\n        /* \"#utility.yul\":77:82   */\n      dup3\n        /* \"#utility.yul\":73:127   */\n      and\n        /* \"#utility.yul\":62:127   */\n      swap1\n      pop\n        /* \"#utility.yul\":7:133   */\n      swap2\n      swap1\n      pop\n      jump\t// out\n        /* \"#utility.yul\":139:199   */\n    tag_34:\n        /* \"#utility.yul\":167:170   */\n      0x00\n        /* \"#utility.yul\":188:193   */\n      dup2\n        /* \"#utility.yul\":181:193   */\n      swap1\n      pop\n        /* \"#utility.yul\":139:199   */\n      swap2\n      swap1\n      pop\n      jump\t// out\n        /* \"#utility.yul\":205:347   */\n    tag_35:\n        /* \"#utility.yul\":255:264   */\n      0x00\n        /* \"#utility.yul\":288:341   */\n      tag_71\n        /* \"#utility.yul\":306:340   */\n      tag_72\n        /* \"#utility.yul\":315:339   */\n      tag_73\n        /* \"#utility.yul\":333:338   */\n      dup5\n        /* \"#utility.yul\":315:339   */\n      tag_33\n      jump\t// in\n    tag_73:\n        /* \"#utility.yul\":306:340   */\n      tag_34\n      jump\t// in\n    tag_72:\n        /* \"#utility.yul\":288:341   */\n      tag_33\n      jump\t// in\n    tag_71:\n        /* \"#utility.yul\":275:341   */\n      swap1\n      pop\n        /* \"#utility.yul\":205:347   */\n      swap2\n      swap1\n      pop\n      jump\t// out\n        /* \"#utility.yul\":353:479   */\n    tag_36:\n        /* \"#utility.yul\":403:412   */\n      0x00\n        /* \"#utility.yul\":436:473   */\n      tag_75\n        /* \"#utility.yul\":467:472   */\n      dup3\n        /* \"#utility.yul\":436:473   */\n      tag_35\n      jump\t// in\n    tag_75:\n        /* \"#utility.yul\":423:473   */\n      swap1\n      pop\n        /* \"#utility.yul\":353:479   */\n      swap2\n      swap1\n      pop\n      jump\t// out\n        /* \"#utility.yul\":485:636   */\n    tag_37:\n        /* \"#utility.yul\":560:569   */\n      0x00\n        /* \"#utility.yul\":593:630   */\n      tag_77\n        /* \"#utility.yul\":624:629   */\n      dup3\n        /* \"#utility.yul\":593:630   */\n      tag_36\n      jump\t// in\n    tag_77:\n        /* \"#utility.yul\":580:630   */\n      swap1\n      pop\n        /* \"#utility.yul\":485:636   */\n      swap2\n      swap1\n      pop\n      jump\t// out\n        /* \"#utility.yul\":642:823   */\n    tag_38:\n        /* \"#utility.yul\":754:816   */\n      tag_79\n        /* \"#utility.yul\":810:815   */\n      dup2\n        /* \"#utility.yul\":754:816   */\n      tag_37\n      jump\t// in\n    tag_79:\n        /* \"#utility.yul\":749:752   */\n      dup3\n        /* \"#utility.yul\":742:817   */\n      mstore\n        /* \"#utility.yul\":642:823   */\n      pop\n      pop\n      jump\t// out\n        /* \"#utility.yul\":829:1101   */\n    tag_9:\n        /* \"#utility.yul\":947:951   */\n      0x00\n        /* \"#utility.yul\":985:987   */\n      0x20\n        /* \"#utility.yul\":974:983   */\n      dup3\n        /* \"#utility.yul\":970:988   */\n      add\n        /* \"#utility.yul\":962:988   */\n      swap1\n      pop\n        /* \"#utility.yul\":998:1094   */\n      tag_81\n        /* \"#utility.yul\":1091:1092   */\n      0x00\n        /* \"#utility.yul\":1080:1089   */\n      dup4\n        /* \"#utility.yul\":1076:1093   */\n      add\n        /* \"#utility.yul\":1067:1073   */\n      dup5\n        /* \"#utility.yul\":998:1094   */\n      tag_38\n      jump\t// in\n    tag_81:\n        /* \"#utility.yul\":829:1101   */\n      swap3\n      swap2\n      pop\n      pop\n      jump\t// out\n        /* \"#utility.yul\":1188:1305   */\n    tag_40:\n        /* \"#utility.yul\":1297:1298   */\n      0x00\n        /* \"#utility.yul\":1294:1295   */\n      dup1\n        /* \"#utility.yul\":1287:1299   */\n      revert\n        /* \"#utility.yul\":1311:1428   */\n    tag_41:\n        /* \"#utility.yul\":1420:1421   */\n      0x00\n        /* \"#utility.yul\":1417:1418   */\n      dup1\n        /* \"#utility.yul\":1410:1422   */\n      revert\n        /* \"#utility.yul\":1434:1511   */\n    tag_42:\n        /* \"#utility.yul\":1471:1478   */\n      0x00\n        /* \"#utility.yul\":1500:1505   */\n      dup2\n        /* \"#utility.yul\":1489:1505   */\n      swap1\n      pop\n        /* \"#utility.yul\":1434:1511   */\n      swap2\n      swap1\n      pop\n      jump\t// out\n        /* \"#utility.yul\":1517:1639   */\n    tag_43:\n        /* \"#utility.yul\":1590:1614   */\n      tag_87\n        /* \"#utility.yul\":1608:1613   */\n      dup2\n        /* \"#utility.yul\":1590:1614   */\n      tag_42\n      jump\t// in\n    tag_87:\n        /* \"#utility.yul\":1583:1588   */\n      dup2\n        /* \"#utility.yul\":1580:1615   */\n      eq\n        /* \"#utility.yul\":1570:1633   */\n      tag_88\n      jumpi\n        /* \"#utility.yul\":1629:1630   */\n      0x00\n        /* \"#utility.yul\":1626:1627   */\n      dup1\n        /* \"#utility.yul\":1619:1631   */\n      revert\n        /* \"#utility.yul\":1570:1633   */\n    tag_88:\n        /* \"#utility.yul\":1517:1639   */\n      pop\n      jump\t// out\n        /* \"#utility.yul\":1645:1784   */\n    tag_44:\n        /* \"#utility.yul\":1691:1696   */\n      0x00\n        /* \"#utility.yul\":1729:1735   */\n      dup2\n        /* \"#utility.yul\":1716:1736   */\n      calldataload\n        /* \"#utility.yul\":1707:1736   */\n      swap1\n      pop\n        /* \"#utility.yul\":1745:1778   */\n      tag_90\n        /* \"#utility.yul\":1772:1777   */\n      dup2\n        /* \"#utility.yul\":1745:1778   */\n      tag_43\n      jump\t// in\n    tag_90:\n        /* \"#utility.yul\":1645:1784   */\n      swap3\n      swap2\n      pop\n      pop\n      jump\t// out\n        /* \"#utility.yul\":1790:1907   */\n    tag_45:\n        /* \"#utility.yul\":1899:1900   */\n      0x00\n        /* \"#utility.yul\":1896:1897   */\n      dup1\n        /* \"#utility.yul\":1889:1901   */\n      revert\n        /* \"#utility.yul\":1913:2030   */\n    tag_46:\n        /* \"#utility.yul\":2022:2023   */\n      0x00\n        /* \"#utility.yul\":2019:2020   */\n      dup1\n        /* \"#utility.yul\":2012:2024   */\n      revert\n        /* \"#utility.yul\":2036:2153   */\n    tag_47:\n        /* \"#utility.yul\":2145:2146   */\n      0x00\n        /* \"#utility.yul\":2142:2143   */\n      dup1\n        /* \"#utility.yul\":2135:2147   */\n      revert\n        /* \"#utility.yul\":2172:2724   */\n    tag_48:\n        /* \"#utility.yul\":2229:2237   */\n      0x00\n        /* \"#utility.yul\":2239:2245   */\n      dup1\n        /* \"#utility.yul\":2289:2292   */\n      dup4\n        /* \"#utility.yul\":2282:2286   */\n      0x1f\n        /* \"#utility.yul\":2274:2280   */\n      dup5\n        /* \"#utility.yul\":2270:2287   */\n      add\n        /* \"#utility.yul\":2266:2293   */\n      slt\n        /* \"#utility.yul\":2256:2378   */\n      tag_95\n      jumpi\n        /* \"#utility.yul\":2297:2376   */\n      tag_96\n      tag_45\n      jump\t// in\n    tag_96:\n        /* \"#utility.yul\":2256:2378   */\n    tag_95:\n        /* \"#utility.yul\":2410:2416   */\n      dup3\n        /* \"#utility.yul\":2397:2417   */\n      calldataload\n        /* \"#utility.yul\":2387:2417   */\n      swap1\n      pop\n        /* \"#utility.yul\":2440:2458   */\n      0xffffffffffffffff\n        /* \"#utility.yul\":2432:2438   */\n      dup2\n        /* \"#utility.yul\":2429:2459   */\n      gt\n        /* \"#utility.yul\":2426:2543   */\n      iszero\n      tag_97\n      jumpi\n        /* \"#utility.yul\":2462:2541   */\n      tag_98\n      tag_46\n      jump\t// in\n    tag_98:\n        /* \"#utility.yul\":2426:2543   */\n    tag_97:\n        /* \"#utility.yul\":2576:2580   */\n      0x20\n        /* \"#utility.yul\":2568:2574   */\n      dup4\n        /* \"#utility.yul\":2564:2581   */\n      add\n        /* \"#utility.yul\":2552:2581   */\n      swap2\n      pop\n        /* \"#utility.yul\":2630:2633   */\n      dup4\n        /* \"#utility.yul\":2622:2626   */\n      0x01\n        /* \"#utility.yul\":2614:2620   */\n      dup3\n        /* \"#utility.yul\":2610:2627   */\n      mul\n        /* \"#utility.yul\":2600:2608   */\n      dup4\n        /* \"#utility.yul\":2596:2628   */\n      add\n        /* \"#utility.yul\":2593:2634   */\n      gt\n        /* \"#utility.yul\":2590:2718   */\n      iszero\n      tag_99\n      jumpi\n        /* \"#utility.yul\":2637:2716   */\n      tag_100\n      tag_47\n      jump\t// in\n    tag_100:\n        /* \"#utility.yul\":2590:2718   */\n    tag_99:\n        /* \"#utility.yul\":2172:2724   */\n      swap3\n      pop\n      swap3\n      swap1\n      pop\n      jump\t// out\n        /* \"#utility.yul\":2730:2826   */\n    tag_49:\n        /* \"#utility.yul\":2767:2774   */\n      0x00\n        /* \"#utility.yul\":2796:2820   */\n      tag_102\n        /* \"#utility.yul\":2814:2819   */\n      dup3\n        /* \"#utility.yul\":2796:2820   */\n      tag_33\n      jump\t// in\n    tag_102:\n        /* \"#utility.yul\":2785:2820   */\n      swap1\n      pop\n        /* \"#utility.yul\":2730:2826   */\n      swap2\n      swap1\n      pop\n      jump\t// out\n        /* \"#utility.yul\":2832:2954   */\n    tag_50:\n        /* \"#utility.yul\":2905:2929   */\n      tag_104\n        /* \"#utility.yul\":2923:2928   */\n      dup2\n        /* \"#utility.yul\":2905:2929   */\n      tag_49\n      jump\t// in\n    tag_104:\n        /* \"#utility.yul\":2898:2903   */\n      dup2\n        /* \"#utility.yul\":2895:2930   */\n      eq\n        /* \"#utility.yul\":2885:2948   */\n      tag_105\n      jumpi\n        /* \"#utility.yul\":2944:2945   */\n      0x00\n        /* \"#utility.yul\":2941:2942   */\n      dup1\n        /* \"#utility.yul\":2934:2946   */\n      revert\n        /* \"#utility.yul\":2885:2948   */\n    tag_105:\n        /* \"#utility.yul\":2832:2954   */\n      pop\n      jump\t// out\n        /* \"#utility.yul\":2960:3099   */\n    tag_51:\n        /* \"#utility.yul\":3006:3011   */\n      0x00\n        /* \"#utility.yul\":3044:3050   */\n      dup2\n        /* \"#utility.yul\":3031:3051   */\n      calldataload\n        /* \"#utility.yul\":3022:3051   */\n      swap1\n      pop\n        /* \"#utility.yul\":3060:3093   */\n      tag_107\n        /* \"#utility.yul\":3087:3092   */\n      dup2\n        /* \"#utility.yul\":3060:3093   */\n      tag_50\n      jump\t// in\n    tag_107:\n        /* \"#utility.yul\":2960:3099   */\n      swap3\n      swap2\n      pop\n      pop\n      jump\t// out\n        /* \"#utility.yul\":3105:3922   */\n    tag_12:\n        /* \"#utility.yul\":3193:3199   */\n      0x00\n        /* \"#utility.yul\":3201:3207   */\n      dup1\n        /* \"#utility.yul\":3209:3215   */\n      0x00\n        /* \"#utility.yul\":3217:3223   */\n      dup1\n        /* \"#utility.yul\":3266:3268   */\n      0x60\n        /* \"#utility.yul\":3254:3263   */\n      dup6\n        /* \"#utility.yul\":3245:3252   */\n      dup8\n        /* \"#utility.yul\":3241:3264   */\n      sub\n        /* \"#utility.yul\":3237:3269   */\n      slt\n        /* \"#utility.yul\":3234:3353   */\n      iszero\n      tag_109\n      jumpi\n        /* \"#utility.yul\":3272:3351   */\n      tag_110\n      tag_40\n      jump\t// in\n    tag_110:\n        /* \"#utility.yul\":3234:3353   */\n    tag_109:\n        /* \"#utility.yul\":3392:3393   */\n      0x00\n        /* \"#utility.yul\":3417:3470   */\n      tag_111\n        /* \"#utility.yul\":3462:3469   */\n      dup8\n        /* \"#utility.yul\":3453:3459   */\n      dup3\n        /* \"#utility.yul\":3442:3451   */\n      dup9\n        /* \"#utility.yul\":3438:3460   */\n      add\n        /* \"#utility.yul\":3417:3470   */\n      tag_44\n      jump\t// in\n    tag_111:\n        /* \"#utility.yul\":3407:3470   */\n      swap5\n      pop\n        /* \"#utility.yul\":3363:3480   */\n      pop\n        /* \"#utility.yul\":3547:3549   */\n      0x20\n        /* \"#utility.yul\":3536:3545   */\n      dup6\n        /* \"#utility.yul\":3532:3550   */\n      add\n        /* \"#utility.yul\":3519:3551   */\n      calldataload\n        /* \"#utility.yul\":3578:3596   */\n      0xffffffffffffffff\n        /* \"#utility.yul\":3570:3576   */\n      dup2\n        /* \"#utility.yul\":3567:3597   */\n      gt\n        /* \"#utility.yul\":3564:3681   */\n      iszero\n      tag_112\n      jumpi\n        /* \"#utility.yul\":3600:3679   */\n      tag_113\n      tag_41\n      jump\t// in\n    tag_113:\n        /* \"#utility.yul\":3564:3681   */\n    tag_112:\n        /* \"#utility.yul\":3713:3777   */\n      tag_114\n        /* \"#utility.yul\":3769:3776   */\n      dup8\n        /* \"#utility.yul\":3760:3766   */\n      dup3\n        /* \"#utility.yul\":3749:3758   */\n      dup9\n        /* \"#utility.yul\":3745:3767   */\n      add\n        /* \"#utility.yul\":3713:3777   */\n      tag_48\n      jump\t// in\n    tag_114:\n        /* \"#utility.yul\":3695:3777   */\n      swap4\n      pop\n      swap4\n      pop\n        /* \"#utility.yul\":3490:3787   */\n      pop\n        /* \"#utility.yul\":3826:3828   */\n      0x40\n        /* \"#utility.yul\":3852:3905   */\n      tag_115\n        /* \"#utility.yul\":3897:3904   */\n      dup8\n        /* \"#utility.yul\":3888:3894   */\n      dup3\n        /* \"#utility.yul\":3877:3886   */\n      dup9\n        /* \"#utility.yul\":3873:3895   */\n      add\n        /* \"#utility.yul\":3852:3905   */\n      tag_51\n      jump\t// in\n    tag_115:\n        /* \"#utility.yul\":3842:3905   */\n      swap2\n      pop\n        /* \"#utility.yul\":3797:3915   */\n      pop\n        /* \"#utility.yul\":3105:3922   */\n      swap3\n      swap6\n      swap2\n      swap5\n      pop\n      swap3\n      pop\n      jump\t// out\n        /* \"#utility.yul\":3928:4257   */\n    tag_16:\n        /* \"#utility.yul\":3987:3993   */\n      0x00\n        /* \"#utility.yul\":4036:4038   */\n      0x20\n        /* \"#utility.yul\":4024:4033   */\n      dup3\n        /* \"#utility.yul\":4015:4022   */\n      dup5\n        /* \"#utility.yul\":4011:4034   */\n      sub\n        /* \"#utility.yul\":4007:4039   */\n      slt\n        /* \"#utility.yul\":4004:4123   */\n      iszero\n      tag_117\n      jumpi\n        /* \"#utility.yul\":4042:4121   */\n      tag_118\n      tag_40\n      jump\t// in\n    tag_118:\n        /* \"#utility.yul\":4004:4123   */\n    tag_117:\n        /* \"#utility.yul\":4162:4163   */\n      0x00\n        /* \"#utility.yul\":4187:4240   */\n      tag_119\n        /* \"#utility.yul\":4232:4239   */\n      dup5\n        /* \"#utility.yul\":4223:4229   */\n      dup3\n        /* \"#utility.yul\":4212:4221   */\n      dup6\n        /* \"#utility.yul\":4208:4230   */\n      add\n        /* \"#utility.yul\":4187:4240   */\n      tag_44\n      jump\t// in\n    tag_119:\n        /* \"#utility.yul\":4177:4240   */\n      swap2\n      pop\n        /* \"#utility.yul\":4133:4250   */\n      pop\n        /* \"#utility.yul\":3928:4257   */\n      swap3\n      swap2\n      pop\n      pop\n      jump\t// out\n        /* \"#utility.yul\":4263:4353   */\n    tag_52:\n        /* \"#utility.yul\":4297:4304   */\n      0x00\n        /* \"#utility.yul\":4340:4345   */\n      dup2\n        /* \"#utility.yul\":4333:4346   */\n      iszero\n        /* \"#utility.yul\":4326:4347   */\n      iszero\n        /* \"#utility.yul\":4315:4347   */\n      swap1\n      pop\n        /* \"#utility.yul\":4263:4353   */\n      swap2\n      swap1\n      pop\n      jump\t// out\n        /* \"#utility.yul\":4359:4468   */\n    tag_53:\n        /* \"#utility.yul\":4440:4461   */\n      tag_122\n        /* \"#utility.yul\":4455:4460   */\n      dup2\n        /* \"#utility.yul\":4440:4461   */\n      tag_52\n      jump\t// in\n    tag_122:\n        /* \"#utility.yul\":4435:4438   */\n      dup3\n        /* \"#utility.yul\":4428:4462   */\n      mstore\n        /* \"#utility.yul\":4359:4468   */\n      pop\n      pop\n      jump\t// out\n        /* \"#utility.yul\":4474:4684   */\n    tag_19:\n        /* \"#utility.yul\":4561:4565   */\n      0x00\n        /* \"#utility.yul\":4599:4601   */\n      0x20\n        /* \"#utility.yul\":4588:4597   */\n      dup3\n        /* \"#utility.yul\":4584:4602   */\n      add\n        /* \"#utility.yul\":4576:4602   */\n      swap1\n      pop\n        /* \"#utility.yul\":4612:4677   */\n      tag_124\n        /* \"#utility.yul\":4674:4675   */\n      0x00\n        /* \"#utility.yul\":4663:4672   */\n      dup4\n        /* \"#utility.yul\":4659:4676   */\n      add\n        /* \"#utility.yul\":4650:4656   */\n      dup5\n        /* \"#utility.yul\":4612:4677   */\n      tag_53\n      jump\t// in\n    tag_124:\n        /* \"#utility.yul\":4474:4684   */\n      swap3\n      swap2\n      pop\n      pop\n      jump\t// out\n        /* \"#utility.yul\":4690:4859   */\n    tag_54:\n        /* \"#utility.yul\":4774:4785   */\n      0x00\n        /* \"#utility.yul\":4808:4814   */\n      dup3\n        /* \"#utility.yul\":4803:4806   */\n      dup3\n        /* \"#utility.yul\":4796:4815   */\n      mstore\n        /* \"#utility.yul\":4848:4852   */\n      0x20\n        /* \"#utility.yul\":4843:4846   */\n      dup3\n        /* \"#utility.yul\":4839:4853   */\n      add\n        /* \"#utility.yul\":4824:4853   */\n      swap1\n      pop\n        /* \"#utility.yul\":4690:4859   */\n      swap3\n      swap2\n      pop\n      pop\n      jump\t// out\n        /* \"#utility.yul\":4865:5030   */\n    tag_55:\n        /* \"#utility.yul\":5005:5022   */\n      0x5265706c61792064657465637465640000000000000000000000000000000000\n        /* \"#utility.yul\":5001:5002   */\n      0x00\n        /* \"#utility.yul\":4993:4999   */\n      dup3\n        /* \"#utility.yul\":4989:5003   */\n      add\n        /* \"#utility.yul\":4982:5023   */\n      mstore\n        /* \"#utility.yul\":4865:5030   */\n      pop\n      jump\t// out\n        /* \"#utility.yul\":5036:5402   */\n    tag_56:\n        /* \"#utility.yul\":5178:5181   */\n      0x00\n        /* \"#utility.yul\":5199:5266   */\n      tag_128\n        /* \"#utility.yul\":5263:5265   */\n      0x0f\n        /* \"#utility.yul\":5258:5261   */\n      dup4\n        /* \"#utility.yul\":5199:5266   */\n      tag_54\n      jump\t// in\n    tag_128:\n        /* \"#utility.yul\":5192:5266   */\n      swap2\n      pop\n        /* \"#utility.yul\":5275:5368   */\n      tag_129\n        /* \"#utility.yul\":5364:5367   */\n      dup3\n        /* \"#utility.yul\":5275:5368   */\n      tag_55\n      jump\t// in\n    tag_129:\n        /* \"#utility.yul\":5393:5395   */\n      0x20\n        /* \"#utility.yul\":5388:5391   */\n      dup3\n        /* \"#utility.yul\":5384:5396   */\n      add\n        /* \"#utility.yul\":5377:5396   */\n      swap1\n      pop\n        /* \"#utility.yul\":5036:5402   */\n      swap2\n      swap1\n      pop\n      jump\t// out\n        /* \"#utility.yul\":5408:5827   */\n    tag_23:\n        /* \"#utility.yul\":5574:5578   */\n      0x00\n        /* \"#utility.yul\":5612:5614   */\n      0x20\n        /* \"#utility.yul\":5601:5610   */\n      dup3\n        /* \"#utility.yul\":5597:5615   */\n      add\n        /* \"#utility.yul\":5589:5615   */\n      swap1\n      pop\n        /* \"#utility.yul\":5661:5670   */\n      dup2\n        /* \"#utility.yul\":5655:5659   */\n      dup2\n        /* \"#utility.yul\":5651:5671   */\n      sub\n        /* \"#utility.yul\":5647:5648   */\n      0x00\n        /* \"#utility.yul\":5636:5645   */\n      dup4\n        /* \"#utility.yul\":5632:5649   */\n      add\n        /* \"#utility.yul\":5625:5672   */\n      mstore\n        /* \"#utility.yul\":5689:5820   */\n      tag_131\n        /* \"#utility.yul\":5815:5819   */\n      dup2\n        /* \"#utility.yul\":5689:5820   */\n      tag_56\n      jump\t// in\n    tag_131:\n        /* \"#utility.yul\":5681:5820   */\n      swap1\n      pop\n        /* \"#utility.yul\":5408:5827   */\n      swap2\n      swap1\n      pop\n      jump\t// out\n        /* \"#utility.yul\":5833:5951   */\n    tag_57:\n        /* \"#utility.yul\":5920:5944   */\n      tag_133\n        /* \"#utility.yul\":5938:5943   */\n      dup2\n        /* \"#utility.yul\":5920:5944   */\n      tag_49\n      jump\t// in\n    tag_133:\n        /* \"#utility.yul\":5915:5918   */\n      dup3\n        /* \"#utility.yul\":5908:5945   */\n      mstore\n        /* \"#utility.yul\":5833:5951   */\n      pop\n      pop\n      jump\t// out\n        /* \"#utility.yul\":5957:6075   */\n    tag_58:\n        /* \"#utility.yul\":6044:6068   */\n      tag_135\n        /* \"#utility.yul\":6062:6067   */\n      dup2\n        /* \"#utility.yul\":6044:6068   */\n      tag_42\n      jump\t// in\n    tag_135:\n        /* \"#utility.yul\":6039:6042   */\n      dup3\n        /* \"#utility.yul\":6032:6069   */\n      mstore\n        /* \"#utility.yul\":5957:6075   */\n      pop\n      pop\n      jump\t// out\n        /* \"#utility.yul\":6081:6249   */\n    tag_59:\n        /* \"#utility.yul\":6164:6175   */\n      0x00\n        /* \"#utility.yul\":6198:6204   */\n      dup3\n        /* \"#utility.yul\":6193:6196   */\n      dup3\n        /* \"#utility.yul\":6186:6205   */\n      mstore\n        /* \"#utility.yul\":6238:6242   */\n      0x20\n        /* \"#utility.yul\":6233:6236   */\n      dup3\n        /* \"#utility.yul\":6229:6243   */\n      add\n        /* \"#utility.yul\":6214:6243   */\n      swap1\n      pop\n        /* \"#utility.yul\":6081:6249   */\n      swap3\n      swap2\n      pop\n      pop\n      jump\t// out\n        /* \"#utility.yul\":6255:6403   */\n    tag_60:\n        /* \"#utility.yul\":6353:6359   */\n      dup3\n        /* \"#utility.yul\":6348:6351   */\n      dup2\n        /* \"#utility.yul\":6343:6346   */\n      dup4\n        /* \"#utility.yul\":6330:6360   */\n      calldatacopy\n        /* \"#utility.yul\":6394:6395   */\n      0x00\n        /* \"#utility.yul\":6385:6391   */\n      dup4\n        /* \"#utility.yul\":6380:6383   */\n      dup4\n        /* \"#utility.yul\":6376:6392   */\n      add\n        /* \"#utility.yul\":6369:6396   */\n      mstore\n        /* \"#utility.yul\":6255:6403   */\n      pop\n      pop\n      pop\n      jump\t// out\n        /* \"#utility.yul\":6409:6511   */\n    tag_61:\n        /* \"#utility.yul\":6450:6456   */\n      0x00\n        /* \"#utility.yul\":6501:6503   */\n      0x1f\n        /* \"#utility.yul\":6497:6504   */\n      not\n        /* \"#utility.yul\":6492:6494   */\n      0x1f\n        /* \"#utility.yul\":6485:6490   */\n      dup4\n        /* \"#utility.yul\":6481:6495   */\n      add\n        /* \"#utility.yul\":6477:6505   */\n      and\n        /* \"#utility.yul\":6467:6505   */\n      swap1\n      pop\n        /* \"#utility.yul\":6409:6511   */\n      swap2\n      swap1\n      pop\n      jump\t// out\n        /* \"#utility.yul\":6539:6853   */\n    tag_62:\n        /* \"#utility.yul\":6635:6638   */\n      0x00\n        /* \"#utility.yul\":6656:6726   */\n      tag_140\n        /* \"#utility.yul\":6719:6725   */\n      dup4\n        /* \"#utility.yul\":6714:6717   */\n      dup6\n        /* \"#utility.yul\":6656:6726   */\n      tag_59\n      jump\t// in\n    tag_140:\n        /* \"#utility.yul\":6649:6726   */\n      swap4\n      pop\n        /* \"#utility.yul\":6736:6792   */\n      tag_141\n        /* \"#utility.yul\":6785:6791   */\n      dup4\n        /* \"#utility.yul\":6780:6783   */\n      dup6\n        /* \"#utility.yul\":6773:6778   */\n      dup5\n        /* \"#utility.yul\":6736:6792   */\n      tag_60\n      jump\t// in\n    tag_141:\n        /* \"#utility.yul\":6817:6846   */\n      tag_142\n        /* \"#utility.yul\":6839:6845   */\n      dup4\n        /* \"#utility.yul\":6817:6846   */\n      tag_61\n      jump\t// in\n    tag_142:\n        /* \"#utility.yul\":6812:6815   */\n      dup5\n        /* \"#utility.yul\":6808:6847   */\n      add\n        /* \"#utility.yul\":6801:6847   */\n      swap1\n      pop\n        /* \"#utility.yul\":6539:6853   */\n      swap4\n      swap3\n      pop\n      pop\n      pop\n      jump\t// out\n        /* \"#utility.yul\":6859:7408   */\n    tag_25:\n        /* \"#utility.yul\":7036:7040   */\n      0x00\n        /* \"#utility.yul\":7074:7076   */\n      0x60\n        /* \"#utility.yul\":7063:7072   */\n      dup3\n        /* \"#utility.yul\":7059:7077   */\n      add\n        /* \"#utility.yul\":7051:7077   */\n      swap1\n      pop\n        /* \"#utility.yul\":7087:7158   */\n      tag_144\n        /* \"#utility.yul\":7155:7156   */\n      0x00\n        /* \"#utility.yul\":7144:7153   */\n      dup4\n        /* \"#utility.yul\":7140:7157   */\n      add\n        /* \"#utility.yul\":7131:7137   */\n      dup8\n        /* \"#utility.yul\":7087:7158   */\n      tag_57\n      jump\t// in\n    tag_144:\n        /* \"#utility.yul\":7168:7240   */\n      tag_145\n        /* \"#utility.yul\":7236:7238   */\n      0x20\n        /* \"#utility.yul\":7225:7234   */\n      dup4\n        /* \"#utility.yul\":7221:7239   */\n      add\n        /* \"#utility.yul\":7212:7218   */\n      dup7\n        /* \"#utility.yul\":7168:7240   */\n      tag_58\n      jump\t// in\n    tag_145:\n        /* \"#utility.yul\":7287:7296   */\n      dup2\n        /* \"#utility.yul\":7281:7285   */\n      dup2\n        /* \"#utility.yul\":7277:7297   */\n      sub\n        /* \"#utility.yul\":7272:7274   */\n      0x40\n        /* \"#utility.yul\":7261:7270   */\n      dup4\n        /* \"#utility.yul\":7257:7275   */\n      add\n        /* \"#utility.yul\":7250:7298   */\n      mstore\n        /* \"#utility.yul\":7315:7401   */\n      tag_146\n        /* \"#utility.yul\":7396:7400   */\n      dup2\n        /* \"#utility.yul\":7387:7393   */\n      dup5\n        /* \"#utility.yul\":7379:7385   */\n      dup7\n        /* \"#utility.yul\":7315:7401   */\n      tag_62\n      jump\t// in\n    tag_146:\n        /* \"#utility.yul\":7307:7401   */\n      swap1\n      pop\n        /* \"#utility.yul\":6859:7408   */\n      swap6\n      swap5\n      pop\n      pop\n      pop\n      pop\n      pop\n      jump\t// out\n        /* \"#utility.yul\":7414:7530   */\n    tag_63:\n        /* \"#utility.yul\":7484:7505   */\n      tag_148\n        /* \"#utility.yul\":7499:7504   */\n      dup2\n        /* \"#utility.yul\":7484:7505   */\n      tag_52\n      jump\t// in\n    tag_148:\n        /* \"#utility.yul\":7477:7482   */\n      dup2\n        /* \"#utility.yul\":7474:7506   */\n      eq\n        /* \"#utility.yul\":7464:7524   */\n      tag_149\n      jumpi\n        /* \"#utility.yul\":7520:7521   */\n      0x00\n        /* \"#utility.yul\":7517:7518   */\n      dup1\n        /* \"#utility.yul\":7510:7522   */\n      revert\n        /* \"#utility.yul\":7464:7524   */\n    tag_149:\n        /* \"#utility.yul\":7414:7530   */\n      pop\n      jump\t// out\n        /* \"#utility.yul\":7536:7673   */\n    tag_64:\n        /* \"#utility.yul\":7590:7595   */\n      0x00\n        /* \"#utility.yul\":7621:7627   */\n      dup2\n        /* \"#utility.yul\":7615:7628   */\n      mload\n        /* \"#utility.yul\":7606:7628   */\n      swap1\n      pop\n        /* \"#utility.yul\":7637:7667   */\n      tag_151\n        /* \"#utility.yul\":7661:7666   */\n      dup2\n        /* \"#utility.yul\":7637:7667   */\n      tag_63\n      jump\t// in\n    tag_151:\n        /* \"#utility.yul\":7536:7673   */\n      swap3\n      swap2\n      pop\n      pop\n      jump\t// out\n        /* \"#utility.yul\":7679:8024   */\n    tag_29:\n        /* \"#utility.yul\":7746:7752   */\n      0x00\n        /* \"#utility.yul\":7795:7797   */\n      0x20\n        /* \"#utility.yul\":7783:7792   */\n      dup3\n        /* \"#utility.yul\":7774:7781   */\n      dup5\n        /* \"#utility.yul\":7770:7793   */\n      sub\n        /* \"#utility.yul\":7766:7798   */\n      slt\n        /* \"#utility.yul\":7763:7882   */\n      iszero\n      tag_153\n      jumpi\n        /* \"#utility.yul\":7801:7880   */\n      tag_154\n      tag_40\n      jump\t// in\n    tag_154:\n        /* \"#utility.yul\":7763:7882   */\n    tag_153:\n        /* \"#utility.yul\":7921:7922   */\n      0x00\n        /* \"#utility.yul\":7946:8007   */\n      tag_155\n        /* \"#utility.yul\":7999:8006   */\n      dup5\n        /* \"#utility.yul\":7990:7996   */\n      dup3\n        /* \"#utility.yul\":7979:7988   */\n      dup6\n        /* \"#utility.yul\":7975:7997   */\n      add\n        /* \"#utility.yul\":7946:8007   */\n      tag_64\n      jump\t// in\n    tag_155:\n        /* \"#utility.yul\":7936:8007   */\n      swap2\n      pop\n        /* \"#utility.yul\":7892:8017   */\n      pop\n        /* \"#utility.yul\":7679:8024   */\n      swap3\n      swap2\n      pop\n      pop\n      jump\t// out\n        /* \"#utility.yul\":8030:8197   */\n    tag_65:\n        /* \"#utility.yul\":8170:8189   */\n      0x496e76616c6964207369676e6174757265000000000000000000000000000000\n        /* \"#utility.yul\":8166:8167   */\n      0x00\n        /* \"#utility.yul\":8158:8164   */\n      dup3\n        /* \"#utility.yul\":8154:8168   */\n      add\n        /* \"#utility.yul\":8147:8190   */\n      mstore\n        /* \"#utility.yul\":8030:8197   */\n      pop\n      jump\t// out\n        /* \"#utility.yul\":8203:8569   */\n    tag_66:\n        /* \"#utility.yul\":8345:8348   */\n      0x00\n        /* \"#utility.yul\":8366:8433   */\n      tag_158\n        /* \"#utility.yul\":8430:8432   */\n      0x11\n        /* \"#utility.yul\":8425:8428   */\n      dup4\n        /* \"#utility.yul\":8366:8433   */\n      tag_54\n      jump\t// in\n    tag_158:\n        /* \"#utility.yul\":8359:8433   */\n      swap2\n      pop\n        /* \"#utility.yul\":8442:8535   */\n      tag_159\n        /* \"#utility.yul\":8531:8534   */\n      dup3\n        /* \"#utility.yul\":8442:8535   */\n      tag_65\n      jump\t// in\n    tag_159:\n        /* \"#utility.yul\":8560:8562   */\n      0x20\n        /* \"#utility.yul\":8555:8558   */\n      dup3\n        /* \"#utility.yul\":8551:8563   */\n      add\n        /* \"#utility.yul\":8544:8563   */\n      swap1\n      pop\n        /* \"#utility.yul\":8203:8569   */\n      swap2\n      swap1\n      pop\n      jump\t// out\n        /* \"#utility.yul\":8575:8994   */\n    tag_32:\n        /* \"#utility.yul\":8741:8745   */\n      0x00\n        /* \"#utility.yul\":8779:8781   */\n      0x20\n        /* \"#utility.yul\":8768:8777   */\n      dup3\n        /* \"#utility.yul\":8764:8782   */\n      add\n        /* \"#utility.yul\":8756:8782   */\n      swap1\n      pop\n        /* \"#utility.yul\":8828:8837   */\n      dup2\n        /* \"#utility.yul\":8822:8826   */\n      dup2\n        /* \"#utility.yul\":8818:8838   */\n      sub\n        /* \"#utility.yul\":8814:8815   */\n      0x00\n        /* \"#utility.yul\":8803:8812   */\n      dup4\n        /* \"#utility.yul\":8799:8816   */\n      add\n        /* \"#utility.yul\":8792:8839   */\n      mstore\n        /* \"#utility.yul\":8856:8987   */\n      tag_161\n        /* \"#utility.yul\":8982:8986   */\n      dup2\n        /* \"#utility.yul\":8856:8987   */\n      tag_66\n      jump\t// in\n    tag_161:\n        /* \"#utility.yul\":8848:8987   */\n      swap1\n      pop\n        /* \"#utility.yul\":8575:8994   */\n      swap2\n      swap1\n      pop\n      jump\t// out\n\n    auxdata: 0xa2646970667358221220bdd861595c0ca8ba7c1deb29182272648be2fb59888a6c1ee6ea934aa0c8f78364736f6c634300081a0033\n}\n",
				"bytecode": {
					"linkReferences": {},
					"object": "608060405234801561000f575f80fd5b506040516107c13803806107c1833981810160405281019061003191906100d4565b805f806101000a81548173ffffffffffffffffffffffffffffffffffffffff021916908373ffffffffffffffffffffffffffffffffffffffff160217905550506100ff565b5f80fd5b5f73ffffffffffffffffffffffffffffffffffffffff82169050919050565b5f6100a38261007a565b9050919050565b6100b381610099565b81146100bd575f80fd5b50565b5f815190506100ce816100aa565b92915050565b5f602082840312156100e9576100e8610076565b5b5f6100f6848285016100c0565b91505092915050565b6106b58061010c5f395ff3fe608060405234801561000f575f80fd5b506004361061003f575f3560e01c80632b7ac3f314610043578063731c23e314610061578063aef18bf71461007d575b5f80fd5b61004b6100ad565b60405161005891906102d5565b60405180910390f35b61007b600480360381019061007691906103c5565b6100d0565b005b61009760048036038101906100929190610436565b61023e565b6040516100a4919061047b565b60405180910390f35b5f8054906101000a900473ffffffffffffffffffffffffffffffffffffffff1681565b60015f8581526020019081526020015f205f9054906101000a900460ff161561012e576040517f08c379a0000000000000000000000000000000000000000000000000000000008152600401610125906104ee565b60405180910390fd5b5f805f9054906101000a900473ffffffffffffffffffffffffffffffffffffffff1673ffffffffffffffffffffffffffffffffffffffff16631a86b550838787876040518563ffffffff1660e01b815260040161018e9493929190610584565b602060405180830381865afa1580156101a9573d5f803e3d5ffd5b505050506040513d601f19601f820116820180604052508101906101cd91906105ec565b90508061020f576040517f08c379a000000000000000000000000000000000000000000000000000000000815260040161020690610661565b60405180910390fd5b6001805f8781526020019081526020015f205f6101000a81548160ff0219169083151502179055505050505050565b6001602052805f5260405f205f915054906101000a900460ff1681565b5f73ffffffffffffffffffffffffffffffffffffffff82169050919050565b5f819050919050565b5f61029d6102986102938461025b565b61027a565b61025b565b9050919050565b5f6102ae82610283565b9050919050565b5f6102bf826102a4565b9050919050565b6102cf816102b5565b82525050565b5f6020820190506102e85f8301846102c6565b92915050565b5f80fd5b5f80fd5b5f819050919050565b610308816102f6565b8114610312575f80fd5b50565b5f81359050610323816102ff565b92915050565b5f80fd5b5f80fd5b5f80fd5b5f8083601f84011261034a57610349610329565b5b8235905067ffffffffffffffff8111156103675761036661032d565b5b60208301915083600182028301111561038357610382610331565b5b9250929050565b5f6103948261025b565b9050919050565b6103a48161038a565b81146103ae575f80fd5b50565b5f813590506103bf8161039b565b92915050565b5f805f80606085870312156103dd576103dc6102ee565b5b5f6103ea87828801610315565b945050602085013567ffffffffffffffff81111561040b5761040a6102f2565b5b61041787828801610335565b9350935050604061042a878288016103b1565b91505092959194509250565b5f6020828403121561044b5761044a6102ee565b5b5f61045884828501610315565b91505092915050565b5f8115159050919050565b61047581610461565b82525050565b5f60208201905061048e5f83018461046c565b92915050565b5f82825260208201905092915050565b7f5265706c617920646574656374656400000000000000000000000000000000005f82015250565b5f6104d8600f83610494565b91506104e3826104a4565b602082019050919050565b5f6020820190508181035f830152610505816104cc565b9050919050565b6105158161038a565b82525050565b610524816102f6565b82525050565b5f82825260208201905092915050565b828183375f83830152505050565b5f601f19601f8301169050919050565b5f610563838561052a565b935061057083858461053a565b61057983610548565b840190509392505050565b5f6060820190506105975f83018761050c565b6105a4602083018661051b565b81810360408301526105b7818486610558565b905095945050505050565b6105cb81610461565b81146105d5575f80fd5b50565b5f815190506105e6816105c2565b92915050565b5f60208284031215610601576106006102ee565b5b5f61060e848285016105d8565b91505092915050565b7f496e76616c6964207369676e61747572650000000000000000000000000000005f82015250565b5f61064b601183610494565b915061065682610617565b602082019050919050565b5f6020820190508181035f8301526106788161063f565b905091905056fea2646970667358221220bdd861595c0ca8ba7c1deb29182272648be2fb59888a6c1ee6ea934aa0c8f78364736f6c634300081a0033",
					"opcodes": "PUSH1 0x80 PUSH1 0x40 MSTORE CALLVALUE DUP1 ISZERO PUSH2 0xF JUMPI PUSH0 DUP1 REVERT JUMPDEST POP PUSH1 0x40 MLOAD PUSH2 0x7C1 CODESIZE SUB DUP1 PUSH2 0x7C1 DUP4 CODECOPY DUP2 DUP2 ADD PUSH1 0x40 MSTORE DUP2 ADD SWAP1 PUSH2 0x31 SWAP2 SWAP1 PUSH2 0xD4 JUMP JUMPDEST DUP1 PUSH0 DUP1 PUSH2 0x100 EXP DUP2 SLOAD DUP2 PUSH20 0xFFFFFFFFFFFFFFFFFFFFFFFFFFFFFFFFFFFFFFFF MUL NOT AND SWAP1 DUP4 PUSH20 0xFFFFFFFFFFFFFFFFFFFFFFFFFFFFFFFFFFFFFFFF AND MUL OR SWAP1 SSTORE POP POP PUSH2 0xFF JUMP JUMPDEST PUSH0 DUP1 REVERT JUMPDEST PUSH0 PUSH20 0xFFFFFFFFFFFFFFFFFFFFFFFFFFFFFFFFFFFFFFFF DUP3 AND SWAP1 POP SWAP2 SWAP1 POP JUMP JUMPDEST PUSH0 PUSH2 0xA3 DUP3 PUSH2 0x7A JUMP JUMPDEST SWAP1 POP SWAP2 SWAP1 POP JUMP JUMPDEST PUSH2 0xB3 DUP2 PUSH2 0x99 JUMP JUMPDEST DUP2 EQ PUSH2 0xBD JUMPI PUSH0 DUP1 REVERT JUMPDEST POP JUMP JUMPDEST PUSH0 DUP2 MLOAD SWAP1 POP PUSH2 0xCE DUP2 PUSH2 0xAA JUMP JUMPDEST SWAP3 SWAP2 POP POP JUMP JUMPDEST PUSH0 PUSH1 0x20 DUP3 DUP5 SUB SLT ISZERO PUSH2 0xE9 JUMPI PUSH2 0xE8 PUSH2 0x76 JUMP JUMPDEST JUMPDEST PUSH0 PUSH2 0xF6 DUP5 DUP3 DUP6 ADD PUSH2 0xC0 JUMP JUMPDEST SWAP2 POP POP SWAP3 SWAP2 POP POP JUMP JUMPDEST PUSH2 0x6B5 DUP1 PUSH2 0x10C PUSH0 CODECOPY PUSH0 RETURN INVALID PUSH1 0x80 PUSH1 0x40 MSTORE CALLVALUE DUP1 ISZERO PUSH2 0xF JUMPI PUSH0 DUP1 REVERT JUMPDEST POP PUSH1 0x4 CALLDATASIZE LT PUSH2 0x3F JUMPI PUSH0 CALLDATALOAD PUSH1 0xE0 SHR DUP1 PUSH4 0x2B7AC3F3 EQ PUSH2 0x43 JUMPI DUP1 PUSH4 0x731C23E3 EQ PUSH2 0x61 JUMPI DUP1 PUSH4 0xAEF18BF7 EQ PUSH2 0x7D JUMPI JUMPDEST PUSH0 DUP1 REVERT JUMPDEST PUSH2 0x4B PUSH2 0xAD JUMP JUMPDEST PUSH1 0x40 MLOAD PUSH2 0x58 SWAP2 SWAP1 PUSH2 0x2D5 JUMP JUMPDEST PUSH1 0x40 MLOAD DUP1 SWAP2 SUB SWAP1 RETURN JUMPDEST PUSH2 0x7B PUSH1 0x4 DUP1 CALLDATASIZE SUB DUP2 ADD SWAP1 PUSH2 0x76 SWAP2 SWAP1 PUSH2 0x3C5 JUMP JUMPDEST PUSH2 0xD0 JUMP JUMPDEST STOP JUMPDEST PUSH2 0x97 PUSH1 0x4 DUP1 CALLDATASIZE SUB DUP2 ADD SWAP1 PUSH2 0x92 SWAP2 SWAP1 PUSH2 0x436 JUMP JUMPDEST PUSH2 0x23E JUMP JUMPDEST PUSH1 0x40 MLOAD PUSH2 0xA4 SWAP2 SWAP1 PUSH2 0x47B JUMP JUMPDEST PUSH1 0x40 MLOAD DUP1 SWAP2 SUB SWAP1 RETURN JUMPDEST PUSH0 DUP1 SLOAD SWAP1 PUSH2 0x100 EXP SWAP1 DIV PUSH20 0xFFFFFFFFFFFFFFFFFFFFFFFFFFFFFFFFFFFFFFFF AND DUP2 JUMP JUMPDEST PUSH1 0x1 PUSH0 DUP6 DUP2 MSTORE PUSH1 0x20 ADD SWAP1 DUP2 MSTORE PUSH1 0x20 ADD PUSH0 KECCAK256 PUSH0 SWAP1 SLOAD SWAP1 PUSH2 0x100 EXP SWAP1 DIV PUSH1 0xFF AND ISZERO PUSH2 0x12E JUMPI PUSH1 0x40 MLOAD PUSH32 0x8C379A000000000000000000000000000000000000000000000000000000000 DUP2 MSTORE PUSH1 0x4 ADD PUSH2 0x125 SWAP1 PUSH2 0x4EE JUMP JUMPDEST PUSH1 0x40 MLOAD DUP1 SWAP2 SUB SWAP1 REVERT JUMPDEST PUSH0 DUP1 PUSH0 SWAP1 SLOAD SWAP1 PUSH2 0x100 EXP SWAP1 DIV PUSH20 0xFFFFFFFFFFFFFFFFFFFFFFFFFFFFFFFFFFFFFFFF AND PUSH20 0xFFFFFFFFFFFFFFFFFFFFFFFFFFFFFFFFFFFFFFFF AND PUSH4 0x1A86B550 DUP4 DUP8 DUP8 DUP8 PUSH1 0x40 MLOAD DUP6 PUSH4 0xFFFFFFFF AND PUSH1 0xE0 SHL DUP2 MSTORE PUSH1 0x4 ADD PUSH2 0x18E SWAP5 SWAP4 SWAP3 SWAP2 SWAP1 PUSH2 0x584 JUMP JUMPDEST PUSH1 0x20 PUSH1 0x40 MLOAD DUP1 DUP4 SUB DUP2 DUP7 GAS STATICCALL ISZERO DUP1 ISZERO PUSH2 0x1A9 JUMPI RETURNDATASIZE PUSH0 DUP1 RETURNDATACOPY RETURNDATASIZE PUSH0 REVERT JUMPDEST POP POP POP POP PUSH1 0x40 MLOAD RETURNDATASIZE PUSH1 0x1F NOT PUSH1 0x1F DUP3 ADD AND DUP3 ADD DUP1 PUSH1 0x40 MSTORE POP DUP2 ADD SWAP1 PUSH2 0x1CD SWAP2 SWAP1 PUSH2 0x5EC JUMP JUMPDEST SWAP1 POP DUP1 PUSH2 0x20F JUMPI PUSH1 0x40 MLOAD PUSH32 0x8C379A000000000000000000000000000000000000000000000000000000000 DUP2 MSTORE PUSH1 0x4 ADD PUSH2 0x206 SWAP1 PUSH2 0x661 JUMP JUMPDEST PUSH1 0x40 MLOAD DUP1 SWAP2 SUB SWAP1 REVERT JUMPDEST PUSH1 0x1 DUP1 PUSH0 DUP8 DUP2 MSTORE PUSH1 0x20 ADD SWAP1 DUP2 MSTORE PUSH1 0x20 ADD PUSH0 KECCAK256 PUSH0 PUSH2 0x100 EXP DUP2 SLOAD DUP2 PUSH1 0xFF MUL NOT AND SWAP1 DUP4 ISZERO ISZERO MUL OR SWAP1 SSTORE POP POP POP POP POP POP JUMP JUMPDEST PUSH1 0x1 PUSH1 0x20 MSTORE DUP1 PUSH0 MSTORE PUSH1 0x40 PUSH0 KECCAK256 PUSH0 SWAP2 POP SLOAD SWAP1 PUSH2 0x100 EXP SWAP1 DIV PUSH1 0xFF AND DUP2 JUMP JUMPDEST PUSH0 PUSH20 0xFFFFFFFFFFFFFFFFFFFFFFFFFFFFFFFFFFFFFFFF DUP3 AND SWAP1 POP SWAP2 SWAP1 POP JUMP JUMPDEST PUSH0 DUP2 SWAP1 POP SWAP2 SWAP1 POP JUMP JUMPDEST PUSH0 PUSH2 0x29D PUSH2 0x298 PUSH2 0x293 DUP5 PUSH2 0x25B JUMP JUMPDEST PUSH2 0x27A JUMP JUMPDEST PUSH2 0x25B JUMP JUMPDEST SWAP1 POP SWAP2 SWAP1 POP JUMP JUMPDEST PUSH0 PUSH2 0x2AE DUP3 PUSH2 0x283 JUMP JUMPDEST SWAP1 POP SWAP2 SWAP1 POP JUMP JUMPDEST PUSH0 PUSH2 0x2BF DUP3 PUSH2 0x2A4 JUMP JUMPDEST SWAP1 POP SWAP2 SWAP1 POP JUMP JUMPDEST PUSH2 0x2CF DUP2 PUSH2 0x2B5 JUMP JUMPDEST DUP3 MSTORE POP POP JUMP JUMPDEST PUSH0 PUSH1 0x20 DUP3 ADD SWAP1 POP PUSH2 0x2E8 PUSH0 DUP4 ADD DUP5 PUSH2 0x2C6 JUMP JUMPDEST SWAP3 SWAP2 POP POP JUMP JUMPDEST PUSH0 DUP1 REVERT JUMPDEST PUSH0 DUP1 REVERT JUMPDEST PUSH0 DUP2 SWAP1 POP SWAP2 SWAP1 POP JUMP JUMPDEST PUSH2 0x308 DUP2 PUSH2 0x2F6 JUMP JUMPDEST DUP2 EQ PUSH2 0x312 JUMPI PUSH0 DUP1 REVERT JUMPDEST POP JUMP JUMPDEST PUSH0 DUP2 CALLDATALOAD SWAP1 POP PUSH2 0x323 DUP2 PUSH2 0x2FF JUMP JUMPDEST SWAP3 SWAP2 POP POP JUMP JUMPDEST PUSH0 DUP1 REVERT JUMPDEST PUSH0 DUP1 REVERT JUMPDEST PUSH0 DUP1 REVERT JUMPDEST PUSH0 DUP1 DUP4 PUSH1 0x1F DUP5 ADD SLT PUSH2 0x34A JUMPI PUSH2 0x349 PUSH2 0x329 JUMP JUMPDEST JUMPDEST DUP3 CALLDATALOAD SWAP1 POP PUSH8 0xFFFFFFFFFFFFFFFF DUP2 GT ISZERO PUSH2 0x367 JUMPI PUSH2 0x366 PUSH2 0x32D JUMP JUMPDEST JUMPDEST PUSH1 0x20 DUP4 ADD SWAP2 POP DUP4 PUSH1 0x1 DUP3 MUL DUP4 ADD GT ISZERO PUSH2 0x383 JUMPI PUSH2 0x382 PUSH2 0x331 JUMP JUMPDEST JUMPDEST SWAP3 POP SWAP3 SWAP1 POP JUMP JUMPDEST PUSH0 PUSH2 0x394 DUP3 PUSH2 0x25B JUMP JUMPDEST SWAP1 POP SWAP2 SWAP1 POP JUMP JUMPDEST PUSH2 0x3A4 DUP2 PUSH2 0x38A JUMP JUMPDEST DUP2 EQ PUSH2 0x3AE JUMPI PUSH0 DUP1 REVERT JUMPDEST POP JUMP JUMPDEST PUSH0 DUP2 CALLDATALOAD SWAP1 POP PUSH2 0x3BF DUP2 PUSH2 0x39B JUMP JUMPDEST SWAP3 SWAP2 POP POP JUMP JUMPDEST PUSH0 DUP1 PUSH0 DUP1 PUSH1 0x60 DUP6 DUP8 SUB SLT ISZERO PUSH2 0x3DD JUMPI PUSH2 0x3DC PUSH2 0x2EE JUMP JUMPDEST JUMPDEST PUSH0 PUSH2 0x3EA DUP8 DUP3 DUP9 ADD PUSH2 0x315 JUMP JUMPDEST SWAP5 POP POP PUSH1 0x20 DUP6 ADD CALLDATALOAD PUSH8 0xFFFFFFFFFFFFFFFF DUP2 GT ISZERO PUSH2 0x40B JUMPI PUSH2 0x40A PUSH2 0x2F2 JUMP JUMPDEST JUMPDEST PUSH2 0x417 DUP8 DUP3 DUP9 ADD PUSH2 0x335 JUMP JUMPDEST SWAP4 POP SWAP4 POP POP PUSH1 0x40 PUSH2 0x42A DUP8 DUP3 DUP9 ADD PUSH2 0x3B1 JUMP JUMPDEST SWAP2 POP POP SWAP3 SWAP6 SWAP2 SWAP5 POP SWAP3 POP JUMP JUMPDEST PUSH0 PUSH1 0x20 DUP3 DUP5 SUB SLT ISZERO PUSH2 0x44B JUMPI PUSH2 0x44A PUSH2 0x2EE JUMP JUMPDEST JUMPDEST PUSH0 PUSH2 0x458 DUP5 DUP3 DUP6 ADD PUSH2 0x315 JUMP JUMPDEST SWAP2 POP POP SWAP3 SWAP2 POP POP JUMP JUMPDEST PUSH0 DUP2 ISZERO ISZERO SWAP1 POP SWAP2 SWAP1 POP JUMP JUMPDEST PUSH2 0x475 DUP2 PUSH2 0x461 JUMP JUMPDEST DUP3 MSTORE POP POP JUMP JUMPDEST PUSH0 PUSH1 0x20 DUP3 ADD SWAP1 POP PUSH2 0x48E PUSH0 DUP4 ADD DUP5 PUSH2 0x46C JUMP JUMPDEST SWAP3 SWAP2 POP POP JUMP JUMPDEST PUSH0 DUP3 DUP3 MSTORE PUSH1 0x20 DUP3 ADD SWAP1 POP SWAP3 SWAP2 POP POP JUMP JUMPDEST PUSH32 0x5265706C61792064657465637465640000000000000000000000000000000000 PUSH0 DUP3 ADD MSTORE POP JUMP JUMPDEST PUSH0 PUSH2 0x4D8 PUSH1 0xF DUP4 PUSH2 0x494 JUMP JUMPDEST SWAP2 POP PUSH2 0x4E3 DUP3 PUSH2 0x4A4 JUMP JUMPDEST PUSH1 0x20 DUP3 ADD SWAP1 POP SWAP2 SWAP1 POP JUMP JUMPDEST PUSH0 PUSH1 0x20 DUP3 ADD SWAP1 POP DUP2 DUP2 SUB PUSH0 DUP4 ADD MSTORE PUSH2 0x505 DUP2 PUSH2 0x4CC JUMP JUMPDEST SWAP1 POP SWAP2 SWAP1 POP JUMP JUMPDEST PUSH2 0x515 DUP2 PUSH2 0x38A JUMP JUMPDEST DUP3 MSTORE POP POP JUMP JUMPDEST PUSH2 0x524 DUP2 PUSH2 0x2F6 JUMP JUMPDEST DUP3 MSTORE POP POP JUMP JUMPDEST PUSH0 DUP3 DUP3 MSTORE PUSH1 0x20 DUP3 ADD SWAP1 POP SWAP3 SWAP2 POP POP JUMP JUMPDEST DUP3 DUP2 DUP4 CALLDATACOPY PUSH0 DUP4 DUP4 ADD MSTORE POP POP POP JUMP JUMPDEST PUSH0 PUSH1 0x1F NOT PUSH1 0x1F DUP4 ADD AND SWAP1 POP SWAP2 SWAP1 POP JUMP JUMPDEST PUSH0 PUSH2 0x563 DUP4 DUP6 PUSH2 0x52A JUMP JUMPDEST SWAP4 POP PUSH2 0x570 DUP4 DUP6 DUP5 PUSH2 0x53A JUMP JUMPDEST PUSH2 0x579 DUP4 PUSH2 0x548 JUMP JUMPDEST DUP5 ADD SWAP1 POP SWAP4 SWAP3 POP POP POP JUMP JUMPDEST PUSH0 PUSH1 0x60 DUP3 ADD SWAP1 POP PUSH2 0x597 PUSH0 DUP4 ADD DUP8 PUSH2 0x50C JUMP JUMPDEST PUSH2 0x5A4 PUSH1 0x20 DUP4 ADD DUP7 PUSH2 0x51B JUMP JUMPDEST DUP2 DUP2 SUB PUSH1 0x40 DUP4 ADD MSTORE PUSH2 0x5B7 DUP2 DUP5 DUP7 PUSH2 0x558 JUMP JUMPDEST SWAP1 POP SWAP6 SWAP5 POP POP POP POP POP JUMP JUMPDEST PUSH2 0x5CB DUP2 PUSH2 0x461 JUMP JUMPDEST DUP2 EQ PUSH2 0x5D5 JUMPI PUSH0 DUP1 REVERT JUMPDEST POP JUMP JUMPDEST PUSH0 DUP2 MLOAD SWAP1 POP PUSH2 0x5E6 DUP2 PUSH2 0x5C2 JUMP JUMPDEST SWAP3 SWAP2 POP POP JUMP JUMPDEST PUSH0 PUSH1 0x20 DUP3 DUP5 SUB SLT ISZERO PUSH2 0x601 JUMPI PUSH2 0x600 PUSH2 0x2EE JUMP JUMPDEST JUMPDEST PUSH0 PUSH2 0x60E DUP5 DUP3 DUP6 ADD PUSH2 0x5D8 JUMP JUMPDEST SWAP2 POP POP SWAP3 SWAP2 POP POP JUMP JUMPDEST PUSH32 0x496E76616C6964207369676E6174757265000000000000000000000000000000 PUSH0 DUP3 ADD MSTORE POP JUMP JUMPDEST PUSH0 PUSH2 0x64B PUSH1 0x11 DUP4 PUSH2 0x494 JUMP JUMPDEST SWAP2 POP PUSH2 0x656 DUP3 PUSH2 0x617 JUMP JUMPDEST PUSH1 0x20 DUP3 ADD SWAP1 POP SWAP2 SWAP1 POP JUMP JUMPDEST PUSH0 PUSH1 0x20 DUP3 ADD SWAP1 POP DUP2 DUP2 SUB PUSH0 DUP4 ADD MSTORE PUSH2 0x678 DUP2 PUSH2 0x63F JUMP JUMPDEST SWAP1 POP SWAP2 SWAP1 POP JUMP INVALID LOG2 PUSH5 0x6970667358 0x22 SLT KECCAK256 0xBD 0xD8 PUSH2 0x595C 0xC 0xA8 0xBA PUSH29 0x1DEB29182272648BE2FB59888A6C1EE6EA934AA0C8F78364736F6C6343 STOP ADDMOD BYTE STOP CALLER "
				},
				"gasEstimates": {
					"creation": {
						"codeDepositCost": "343400",
						"executionCost": "infinite",
						"totalCost": "infinite"
					},
					"external": {
						"simulateAction(bytes32,bytes,address)": "infinite",
						"usedHashes(bytes32)": "2807",
						"verifier()": "infinite"
					}
				},
				"methodIdentifiers": {
					"simulateAction(bytes32,bytes,address)": "731c23e3",
					"usedHashes(bytes32)": "aef18bf7",
					"verifier()": "2b7ac3f3"
				}
			},
			"storageLayout": {
				"storage": [
					{
						"astId": 15,
						"contract": "N/Non-Repudiation/Extension to test reused or fake signer payloads.sol:AutoSimWithReplayCheck",
						"label": "verifier",
						"offset": 0,
						"slot": "0",
						"type": "t_contract(ISignatureVerifier)12"
					},
					{
						"astId": 19,
						"contract": "N/Non-Repudiation/Extension to test reused or fake signer payloads.sol:AutoSimWithReplayCheck",
						"label": "usedHashes",
						"offset": 0,
						"slot": "1",
						"type": "t_mapping(t_bytes32,t_bool)"
					}
				],
				"types": {
					"t_bool": {
						"encoding": "inplace",
						"label": "bool",
						"numberOfBytes": "1"
					},
					"t_bytes32": {
						"encoding": "inplace",
						"label": "bytes32",
						"numberOfBytes": "32"
					},
					"t_contract(ISignatureVerifier)12": {
						"encoding": "inplace",
						"label": "contract ISignatureVerifier",
						"numberOfBytes": "20"
					},
					"t_mapping(t_bytes32,t_bool)": {
						"encoding": "mapping",
						"key": "t_bytes32",
						"label": "mapping(bytes32 => bool)",
						"numberOfBytes": "32",
						"value": "t_bool"
					}
				}
			},
			"userdoc": {
				"kind": "user",
				"methods": {},
				"version": 1
			}
		}
	}
}