{
	"W/War Chalking/War Chalking.sol": {
		"Attack_WarChalking": {
			"abi": [
				{
					"inputs": [
						{
							"internalType": "contract WarChalkingVuln",
							"name": "_t",
							"type": "address"
						}
					],
					"stateMutability": "nonpayable",
					"type": "constructor"
				},
				{
					"inputs": [
						{
							"internalType": "string[]",
							"name": "locations",
							"type": "string[]"
						}
					],
					"name": "floodMarks",
					"outputs": [],
					"stateMutability": "nonpayable",
					"type": "function"
				},
				{
					"inputs": [
						{
							"internalType": "string",
							"name": "location",
							"type": "string"
						}
					],
					"name": "spoofMark",
					"outputs": [],
					"stateMutability": "nonpayable",
					"type": "function"
				},
				{
					"inputs": [],
					"name": "target",
					"outputs": [
						{
							"internalType": "contract WarChalkingVuln",
							"name": "",
							"type": "address"
						}
					],
					"stateMutability": "view",
					"type": "function"
				}
			],
			"devdoc": {
				"kind": "dev",
				"methods": {},
				"version": 1
			},
			"evm": {
				"assembly": "    /* \"W/War Chalking/War Chalking.sol\":2333:2725  contract Attack_WarChalking {... */\n  mstore(0x40, 0x80)\n    /* \"W/War Chalking/War Chalking.sol\":2403:2451  constructor(WarChalkingVuln _t) { target = _t; } */\n  callvalue\n  dup1\n  iszero\n  tag_1\n  jumpi\n  0x00\n  dup1\n  revert\ntag_1:\n  pop\n  mload(0x40)\n  sub(codesize, bytecodeSize)\n  dup1\n  bytecodeSize\n  dup4\n  codecopy\n  dup2\n  dup2\n  add\n  0x40\n  mstore\n  dup2\n  add\n  swap1\n  tag_2\n  swap2\n  swap1\n  tag_3\n  jump\t// in\ntag_2:\n    /* \"W/War Chalking/War Chalking.sol\":2446:2448  _t */\n  dup1\n    /* \"W/War Chalking/War Chalking.sol\":2437:2443  target */\n  0x00\n  dup1\n    /* \"W/War Chalking/War Chalking.sol\":2437:2448  target = _t */\n  0x0100\n  exp\n  dup2\n  sload\n  dup2\n  0xffffffffffffffffffffffffffffffffffffffff\n  mul\n  not\n  and\n  swap1\n  dup4\n  0xffffffffffffffffffffffffffffffffffffffff\n  and\n  mul\n  or\n  swap1\n  sstore\n  pop\n    /* \"W/War Chalking/War Chalking.sol\":2403:2451  constructor(WarChalkingVuln _t) { target = _t; } */\n  pop\n    /* \"W/War Chalking/War Chalking.sol\":2333:2725  contract Attack_WarChalking {... */\n  jump(tag_6)\n    /* \"#utility.yul\":88:205   */\ntag_8:\n    /* \"#utility.yul\":197:198   */\n  0x00\n    /* \"#utility.yul\":194:195   */\n  dup1\n    /* \"#utility.yul\":187:199   */\n  revert\n    /* \"#utility.yul\":334:460   */\ntag_10:\n    /* \"#utility.yul\":371:378   */\n  0x00\n    /* \"#utility.yul\":411:453   */\n  0xffffffffffffffffffffffffffffffffffffffff\n    /* \"#utility.yul\":404:409   */\n  dup3\n    /* \"#utility.yul\":400:454   */\n  and\n    /* \"#utility.yul\":389:454   */\n  swap1\n  pop\n    /* \"#utility.yul\":334:460   */\n  swap2\n  swap1\n  pop\n  jump\t// out\n    /* \"#utility.yul\":466:562   */\ntag_11:\n    /* \"#utility.yul\":503:510   */\n  0x00\n    /* \"#utility.yul\":532:556   */\n  tag_21\n    /* \"#utility.yul\":550:555   */\n  dup3\n    /* \"#utility.yul\":532:556   */\n  tag_10\n  jump\t// in\ntag_21:\n    /* \"#utility.yul\":521:556   */\n  swap1\n  pop\n    /* \"#utility.yul\":466:562   */\n  swap2\n  swap1\n  pop\n  jump\t// out\n    /* \"#utility.yul\":568:686   */\ntag_12:\n    /* \"#utility.yul\":627:634   */\n  0x00\n    /* \"#utility.yul\":656:680   */\n  tag_23\n    /* \"#utility.yul\":674:679   */\n  dup3\n    /* \"#utility.yul\":656:680   */\n  tag_11\n  jump\t// in\ntag_23:\n    /* \"#utility.yul\":645:680   */\n  swap1\n  pop\n    /* \"#utility.yul\":568:686   */\n  swap2\n  swap1\n  pop\n  jump\t// out\n    /* \"#utility.yul\":692:858   */\ntag_13:\n    /* \"#utility.yul\":787:833   */\n  tag_25\n    /* \"#utility.yul\":827:832   */\n  dup2\n    /* \"#utility.yul\":787:833   */\n  tag_12\n  jump\t// in\ntag_25:\n    /* \"#utility.yul\":780:785   */\n  dup2\n    /* \"#utility.yul\":777:834   */\n  eq\n    /* \"#utility.yul\":767:852   */\n  tag_26\n  jumpi\n    /* \"#utility.yul\":848:849   */\n  0x00\n    /* \"#utility.yul\":845:846   */\n  dup1\n    /* \"#utility.yul\":838:850   */\n  revert\n    /* \"#utility.yul\":767:852   */\ntag_26:\n    /* \"#utility.yul\":692:858   */\n  pop\n  jump\t// out\n    /* \"#utility.yul\":864:1051   */\ntag_14:\n    /* \"#utility.yul\":943:948   */\n  0x00\n    /* \"#utility.yul\":974:980   */\n  dup2\n    /* \"#utility.yul\":968:981   */\n  mload\n    /* \"#utility.yul\":959:981   */\n  swap1\n  pop\n    /* \"#utility.yul\":990:1045   */\n  tag_28\n    /* \"#utility.yul\":1039:1044   */\n  dup2\n    /* \"#utility.yul\":990:1045   */\n  tag_13\n  jump\t// in\ntag_28:\n    /* \"#utility.yul\":864:1051   */\n  swap3\n  swap2\n  pop\n  pop\n  jump\t// out\n    /* \"#utility.yul\":1057:1452   */\ntag_3:\n    /* \"#utility.yul\":1149:1155   */\n  0x00\n    /* \"#utility.yul\":1198:1200   */\n  0x20\n    /* \"#utility.yul\":1186:1195   */\n  dup3\n    /* \"#utility.yul\":1177:1184   */\n  dup5\n    /* \"#utility.yul\":1173:1196   */\n  sub\n    /* \"#utility.yul\":1169:1201   */\n  slt\n    /* \"#utility.yul\":1166:1285   */\n  iszero\n  tag_30\n  jumpi\n    /* \"#utility.yul\":1204:1283   */\n  tag_31\n  tag_8\n  jump\t// in\ntag_31:\n    /* \"#utility.yul\":1166:1285   */\ntag_30:\n    /* \"#utility.yul\":1324:1325   */\n  0x00\n    /* \"#utility.yul\":1349:1435   */\n  tag_32\n    /* \"#utility.yul\":1427:1434   */\n  dup5\n    /* \"#utility.yul\":1418:1424   */\n  dup3\n    /* \"#utility.yul\":1407:1416   */\n  dup6\n    /* \"#utility.yul\":1403:1425   */\n  add\n    /* \"#utility.yul\":1349:1435   */\n  tag_14\n  jump\t// in\ntag_32:\n    /* \"#utility.yul\":1339:1435   */\n  swap2\n  pop\n    /* \"#utility.yul\":1295:1445   */\n  pop\n    /* \"#utility.yul\":1057:1452   */\n  swap3\n  swap2\n  pop\n  pop\n  jump\t// out\n    /* \"W/War Chalking/War Chalking.sol\":2333:2725  contract Attack_WarChalking {... */\ntag_6:\n  dataSize(sub_0)\n  dup1\n  dataOffset(sub_0)\n  0x00\n  codecopy\n  0x00\n  return\nstop\n\nsub_0: assembly {\n        /* \"W/War Chalking/War Chalking.sol\":2333:2725  contract Attack_WarChalking {... */\n      mstore(0x40, 0x80)\n      callvalue\n      dup1\n      iszero\n      tag_1\n      jumpi\n      0x00\n      dup1\n      revert\n    tag_1:\n      pop\n      jumpi(tag_2, lt(calldatasize, 0x04))\n      shr(0xe0, calldataload(0x00))\n      dup1\n      0x41e7d49f\n      eq\n      tag_3\n      jumpi\n      dup1\n      0x4e2395b3\n      eq\n      tag_4\n      jumpi\n      dup1\n      0xd4b83992\n      eq\n      tag_5\n      jumpi\n    tag_2:\n      0x00\n      dup1\n      revert\n        /* \"W/War Chalking/War Chalking.sol\":2555:2723  function floodMarks(string[] calldata locations) external {... */\n    tag_3:\n      tag_6\n      0x04\n      dup1\n      calldatasize\n      sub\n      dup2\n      add\n      swap1\n      tag_7\n      swap2\n      swap1\n      tag_8\n      jump\t// in\n    tag_7:\n      tag_9\n      jump\t// in\n    tag_6:\n      stop\n        /* \"W/War Chalking/War Chalking.sol\":2457:2549  function spoofMark(string calldata location) external {... */\n    tag_4:\n      tag_10\n      0x04\n      dup1\n      calldatasize\n      sub\n      dup2\n      add\n      swap1\n      tag_11\n      swap2\n      swap1\n      tag_12\n      jump\t// in\n    tag_11:\n      tag_13\n      jump\t// in\n    tag_10:\n      stop\n        /* \"W/War Chalking/War Chalking.sol\":2367:2396  WarChalkingVuln public target */\n    tag_5:\n      tag_14\n      tag_15\n      jump\t// in\n    tag_14:\n      mload(0x40)\n      tag_16\n      swap2\n      swap1\n      tag_17\n      jump\t// in\n    tag_16:\n      mload(0x40)\n      dup1\n      swap2\n      sub\n      swap1\n      return\n        /* \"W/War Chalking/War Chalking.sol\":2555:2723  function floodMarks(string[] calldata locations) external {... */\n    tag_9:\n        /* \"W/War Chalking/War Chalking.sol\":2628:2634  uint i */\n      0x00\n        /* \"W/War Chalking/War Chalking.sol\":2623:2717  for (uint i = 0; i < locations.length; i++) {... */\n    tag_19:\n        /* \"W/War Chalking/War Chalking.sol\":2644:2653  locations */\n      dup3\n      dup3\n        /* \"W/War Chalking/War Chalking.sol\":2644:2660  locations.length */\n      swap1\n      pop\n        /* \"W/War Chalking/War Chalking.sol\":2640:2641  i */\n      dup2\n        /* \"W/War Chalking/War Chalking.sol\":2640:2660  i < locations.length */\n      lt\n        /* \"W/War Chalking/War Chalking.sol\":2623:2717  for (uint i = 0; i < locations.length; i++) {... */\n      iszero\n      tag_20\n      jumpi\n        /* \"W/War Chalking/War Chalking.sol\":2681:2687  target */\n      0x00\n      dup1\n      sload\n      swap1\n      0x0100\n      exp\n      swap1\n      div\n      0xffffffffffffffffffffffffffffffffffffffff\n      and\n        /* \"W/War Chalking/War Chalking.sol\":2681:2692  target.mark */\n      0xffffffffffffffffffffffffffffffffffffffff\n      and\n      0x07ba86a3\n        /* \"W/War Chalking/War Chalking.sol\":2693:2702  locations */\n      dup5\n      dup5\n        /* \"W/War Chalking/War Chalking.sol\":2703:2704  i */\n      dup5\n        /* \"W/War Chalking/War Chalking.sol\":2693:2705  locations[i] */\n      dup2\n      dup2\n      lt\n      tag_22\n      jumpi\n      tag_23\n      tag_24\n      jump\t// in\n    tag_23:\n    tag_22:\n      swap1\n      pop\n      0x20\n      mul\n      dup2\n      add\n      swap1\n      tag_25\n      swap2\n      swap1\n      tag_26\n      jump\t// in\n    tag_25:\n        /* \"W/War Chalking/War Chalking.sol\":2681:2706  target.mark(locations[i]) */\n      mload(0x40)\n      dup4\n      0xffffffff\n      and\n      0xe0\n      shl\n      dup2\n      mstore\n      0x04\n      add\n      tag_27\n      swap3\n      swap2\n      swap1\n      tag_28\n      jump\t// in\n    tag_27:\n      0x00\n      mload(0x40)\n      dup1\n      dup4\n      sub\n      dup2\n      0x00\n      dup8\n      dup1\n      extcodesize\n      iszero\n      dup1\n      iszero\n      tag_29\n      jumpi\n      0x00\n      dup1\n      revert\n    tag_29:\n      pop\n      gas\n      call\n      iszero\n      dup1\n      iszero\n      tag_31\n      jumpi\n      returndatasize\n      0x00\n      dup1\n      returndatacopy\n      revert(0x00, returndatasize)\n    tag_31:\n      pop\n      pop\n      pop\n      pop\n        /* \"W/War Chalking/War Chalking.sol\":2662:2665  i++ */\n      dup1\n      dup1\n      0x01\n      add\n      swap2\n      pop\n      pop\n        /* \"W/War Chalking/War Chalking.sol\":2623:2717  for (uint i = 0; i < locations.length; i++) {... */\n      jump(tag_19)\n    tag_20:\n      pop\n        /* \"W/War Chalking/War Chalking.sol\":2555:2723  function floodMarks(string[] calldata locations) external {... */\n      pop\n      pop\n      jump\t// out\n        /* \"W/War Chalking/War Chalking.sol\":2457:2549  function spoofMark(string calldata location) external {... */\n    tag_13:\n        /* \"W/War Chalking/War Chalking.sol\":2521:2527  target */\n      0x00\n      dup1\n      sload\n      swap1\n      0x0100\n      exp\n      swap1\n      div\n      0xffffffffffffffffffffffffffffffffffffffff\n      and\n        /* \"W/War Chalking/War Chalking.sol\":2521:2532  target.mark */\n      0xffffffffffffffffffffffffffffffffffffffff\n      and\n      0x07ba86a3\n        /* \"W/War Chalking/War Chalking.sol\":2533:2541  location */\n      dup4\n      dup4\n        /* \"W/War Chalking/War Chalking.sol\":2521:2542  target.mark(location) */\n      mload(0x40)\n      dup4\n      0xffffffff\n      and\n      0xe0\n      shl\n      dup2\n      mstore\n      0x04\n      add\n      tag_33\n      swap3\n      swap2\n      swap1\n      tag_28\n      jump\t// in\n    tag_33:\n      0x00\n      mload(0x40)\n      dup1\n      dup4\n      sub\n      dup2\n      0x00\n      dup8\n      dup1\n      extcodesize\n      iszero\n      dup1\n      iszero\n      tag_34\n      jumpi\n      0x00\n      dup1\n      revert\n    tag_34:\n      pop\n      gas\n      call\n      iszero\n      dup1\n      iszero\n      tag_36\n      jumpi\n      returndatasize\n      0x00\n      dup1\n      returndatacopy\n      revert(0x00, returndatasize)\n    tag_36:\n      pop\n      pop\n      pop\n      pop\n        /* \"W/War Chalking/War Chalking.sol\":2457:2549  function spoofMark(string calldata location) external {... */\n      pop\n      pop\n      jump\t// out\n        /* \"W/War Chalking/War Chalking.sol\":2367:2396  WarChalkingVuln public target */\n    tag_15:\n      0x00\n      dup1\n      sload\n      swap1\n      0x0100\n      exp\n      swap1\n      div\n      0xffffffffffffffffffffffffffffffffffffffff\n      and\n      dup2\n      jump\t// out\n        /* \"#utility.yul\":88:205   */\n    tag_38:\n        /* \"#utility.yul\":197:198   */\n      0x00\n        /* \"#utility.yul\":194:195   */\n      dup1\n        /* \"#utility.yul\":187:199   */\n      revert\n        /* \"#utility.yul\":211:328   */\n    tag_39:\n        /* \"#utility.yul\":320:321   */\n      0x00\n        /* \"#utility.yul\":317:318   */\n      dup1\n        /* \"#utility.yul\":310:322   */\n      revert\n        /* \"#utility.yul\":334:451   */\n    tag_40:\n        /* \"#utility.yul\":443:444   */\n      0x00\n        /* \"#utility.yul\":440:441   */\n      dup1\n        /* \"#utility.yul\":433:445   */\n      revert\n        /* \"#utility.yul\":457:574   */\n    tag_41:\n        /* \"#utility.yul\":566:567   */\n      0x00\n        /* \"#utility.yul\":563:564   */\n      dup1\n        /* \"#utility.yul\":556:568   */\n      revert\n        /* \"#utility.yul\":580:697   */\n    tag_42:\n        /* \"#utility.yul\":689:690   */\n      0x00\n        /* \"#utility.yul\":686:687   */\n      dup1\n        /* \"#utility.yul\":679:691   */\n      revert\n        /* \"#utility.yul\":719:1299   */\n    tag_43:\n        /* \"#utility.yul\":804:812   */\n      0x00\n        /* \"#utility.yul\":814:820   */\n      dup1\n        /* \"#utility.yul\":864:867   */\n      dup4\n        /* \"#utility.yul\":857:861   */\n      0x1f\n        /* \"#utility.yul\":849:855   */\n      dup5\n        /* \"#utility.yul\":845:862   */\n      add\n        /* \"#utility.yul\":841:868   */\n      slt\n        /* \"#utility.yul\":831:953   */\n      tag_66\n      jumpi\n        /* \"#utility.yul\":872:951   */\n      tag_67\n      tag_40\n      jump\t// in\n    tag_67:\n        /* \"#utility.yul\":831:953   */\n    tag_66:\n        /* \"#utility.yul\":985:991   */\n      dup3\n        /* \"#utility.yul\":972:992   */\n      calldataload\n        /* \"#utility.yul\":962:992   */\n      swap1\n      pop\n        /* \"#utility.yul\":1015:1033   */\n      0xffffffffffffffff\n        /* \"#utility.yul\":1007:1013   */\n      dup2\n        /* \"#utility.yul\":1004:1034   */\n      gt\n        /* \"#utility.yul\":1001:1118   */\n      iszero\n      tag_68\n      jumpi\n        /* \"#utility.yul\":1037:1116   */\n      tag_69\n      tag_41\n      jump\t// in\n    tag_69:\n        /* \"#utility.yul\":1001:1118   */\n    tag_68:\n        /* \"#utility.yul\":1151:1155   */\n      0x20\n        /* \"#utility.yul\":1143:1149   */\n      dup4\n        /* \"#utility.yul\":1139:1156   */\n      add\n        /* \"#utility.yul\":1127:1156   */\n      swap2\n      pop\n        /* \"#utility.yul\":1205:1208   */\n      dup4\n        /* \"#utility.yul\":1197:1201   */\n      0x20\n        /* \"#utility.yul\":1189:1195   */\n      dup3\n        /* \"#utility.yul\":1185:1202   */\n      mul\n        /* \"#utility.yul\":1175:1183   */\n      dup4\n        /* \"#utility.yul\":1171:1203   */\n      add\n        /* \"#utility.yul\":1168:1209   */\n      gt\n        /* \"#utility.yul\":1165:1293   */\n      iszero\n      tag_70\n      jumpi\n        /* \"#utility.yul\":1212:1291   */\n      tag_71\n      tag_42\n      jump\t// in\n    tag_71:\n        /* \"#utility.yul\":1165:1293   */\n    tag_70:\n        /* \"#utility.yul\":719:1299   */\n      swap3\n      pop\n      swap3\n      swap1\n      pop\n      jump\t// out\n        /* \"#utility.yul\":1305:1888   */\n    tag_8:\n        /* \"#utility.yul\":1403:1409   */\n      0x00\n        /* \"#utility.yul\":1411:1417   */\n      dup1\n        /* \"#utility.yul\":1460:1462   */\n      0x20\n        /* \"#utility.yul\":1448:1457   */\n      dup4\n        /* \"#utility.yul\":1439:1446   */\n      dup6\n        /* \"#utility.yul\":1435:1458   */\n      sub\n        /* \"#utility.yul\":1431:1463   */\n      slt\n        /* \"#utility.yul\":1428:1547   */\n      iszero\n      tag_73\n      jumpi\n        /* \"#utility.yul\":1466:1545   */\n      tag_74\n      tag_38\n      jump\t// in\n    tag_74:\n        /* \"#utility.yul\":1428:1547   */\n    tag_73:\n        /* \"#utility.yul\":1614:1615   */\n      0x00\n        /* \"#utility.yul\":1603:1612   */\n      dup4\n        /* \"#utility.yul\":1599:1616   */\n      add\n        /* \"#utility.yul\":1586:1617   */\n      calldataload\n        /* \"#utility.yul\":1644:1662   */\n      0xffffffffffffffff\n        /* \"#utility.yul\":1636:1642   */\n      dup2\n        /* \"#utility.yul\":1633:1663   */\n      gt\n        /* \"#utility.yul\":1630:1747   */\n      iszero\n      tag_75\n      jumpi\n        /* \"#utility.yul\":1666:1745   */\n      tag_76\n      tag_39\n      jump\t// in\n    tag_76:\n        /* \"#utility.yul\":1630:1747   */\n    tag_75:\n        /* \"#utility.yul\":1779:1871   */\n      tag_77\n        /* \"#utility.yul\":1863:1870   */\n      dup6\n        /* \"#utility.yul\":1854:1860   */\n      dup3\n        /* \"#utility.yul\":1843:1852   */\n      dup7\n        /* \"#utility.yul\":1839:1861   */\n      add\n        /* \"#utility.yul\":1779:1871   */\n      tag_43\n      jump\t// in\n    tag_77:\n        /* \"#utility.yul\":1761:1871   */\n      swap3\n      pop\n      swap3\n      pop\n        /* \"#utility.yul\":1557:1881   */\n      pop\n        /* \"#utility.yul\":1305:1888   */\n      swap3\n      pop\n      swap3\n      swap1\n      pop\n      jump\t// out\n        /* \"#utility.yul\":1908:2461   */\n    tag_44:\n        /* \"#utility.yul\":1966:1974   */\n      0x00\n        /* \"#utility.yul\":1976:1982   */\n      dup1\n        /* \"#utility.yul\":2026:2029   */\n      dup4\n        /* \"#utility.yul\":2019:2023   */\n      0x1f\n        /* \"#utility.yul\":2011:2017   */\n      dup5\n        /* \"#utility.yul\":2007:2024   */\n      add\n        /* \"#utility.yul\":2003:2030   */\n      slt\n        /* \"#utility.yul\":1993:2115   */\n      tag_79\n      jumpi\n        /* \"#utility.yul\":2034:2113   */\n      tag_80\n      tag_40\n      jump\t// in\n    tag_80:\n        /* \"#utility.yul\":1993:2115   */\n    tag_79:\n        /* \"#utility.yul\":2147:2153   */\n      dup3\n        /* \"#utility.yul\":2134:2154   */\n      calldataload\n        /* \"#utility.yul\":2124:2154   */\n      swap1\n      pop\n        /* \"#utility.yul\":2177:2195   */\n      0xffffffffffffffff\n        /* \"#utility.yul\":2169:2175   */\n      dup2\n        /* \"#utility.yul\":2166:2196   */\n      gt\n        /* \"#utility.yul\":2163:2280   */\n      iszero\n      tag_81\n      jumpi\n        /* \"#utility.yul\":2199:2278   */\n      tag_82\n      tag_41\n      jump\t// in\n    tag_82:\n        /* \"#utility.yul\":2163:2280   */\n    tag_81:\n        /* \"#utility.yul\":2313:2317   */\n      0x20\n        /* \"#utility.yul\":2305:2311   */\n      dup4\n        /* \"#utility.yul\":2301:2318   */\n      add\n        /* \"#utility.yul\":2289:2318   */\n      swap2\n      pop\n        /* \"#utility.yul\":2367:2370   */\n      dup4\n        /* \"#utility.yul\":2359:2363   */\n      0x01\n        /* \"#utility.yul\":2351:2357   */\n      dup3\n        /* \"#utility.yul\":2347:2364   */\n      mul\n        /* \"#utility.yul\":2337:2345   */\n      dup4\n        /* \"#utility.yul\":2333:2365   */\n      add\n        /* \"#utility.yul\":2330:2371   */\n      gt\n        /* \"#utility.yul\":2327:2455   */\n      iszero\n      tag_83\n      jumpi\n        /* \"#utility.yul\":2374:2453   */\n      tag_84\n      tag_42\n      jump\t// in\n    tag_84:\n        /* \"#utility.yul\":2327:2455   */\n    tag_83:\n        /* \"#utility.yul\":1908:2461   */\n      swap3\n      pop\n      swap3\n      swap1\n      pop\n      jump\t// out\n        /* \"#utility.yul\":2467:2996   */\n    tag_12:\n        /* \"#utility.yul\":2538:2544   */\n      0x00\n        /* \"#utility.yul\":2546:2552   */\n      dup1\n        /* \"#utility.yul\":2595:2597   */\n      0x20\n        /* \"#utility.yul\":2583:2592   */\n      dup4\n        /* \"#utility.yul\":2574:2581   */\n      dup6\n        /* \"#utility.yul\":2570:2593   */\n      sub\n        /* \"#utility.yul\":2566:2598   */\n      slt\n        /* \"#utility.yul\":2563:2682   */\n      iszero\n      tag_86\n      jumpi\n        /* \"#utility.yul\":2601:2680   */\n      tag_87\n      tag_38\n      jump\t// in\n    tag_87:\n        /* \"#utility.yul\":2563:2682   */\n    tag_86:\n        /* \"#utility.yul\":2749:2750   */\n      0x00\n        /* \"#utility.yul\":2738:2747   */\n      dup4\n        /* \"#utility.yul\":2734:2751   */\n      add\n        /* \"#utility.yul\":2721:2752   */\n      calldataload\n        /* \"#utility.yul\":2779:2797   */\n      0xffffffffffffffff\n        /* \"#utility.yul\":2771:2777   */\n      dup2\n        /* \"#utility.yul\":2768:2798   */\n      gt\n        /* \"#utility.yul\":2765:2882   */\n      iszero\n      tag_88\n      jumpi\n        /* \"#utility.yul\":2801:2880   */\n      tag_89\n      tag_39\n      jump\t// in\n    tag_89:\n        /* \"#utility.yul\":2765:2882   */\n    tag_88:\n        /* \"#utility.yul\":2914:2979   */\n      tag_90\n        /* \"#utility.yul\":2971:2978   */\n      dup6\n        /* \"#utility.yul\":2962:2968   */\n      dup3\n        /* \"#utility.yul\":2951:2960   */\n      dup7\n        /* \"#utility.yul\":2947:2969   */\n      add\n        /* \"#utility.yul\":2914:2979   */\n      tag_44\n      jump\t// in\n    tag_90:\n        /* \"#utility.yul\":2896:2979   */\n      swap3\n      pop\n      swap3\n      pop\n        /* \"#utility.yul\":2692:2989   */\n      pop\n        /* \"#utility.yul\":2467:2996   */\n      swap3\n      pop\n      swap3\n      swap1\n      pop\n      jump\t// out\n        /* \"#utility.yul\":3002:3128   */\n    tag_45:\n        /* \"#utility.yul\":3039:3046   */\n      0x00\n        /* \"#utility.yul\":3079:3121   */\n      0xffffffffffffffffffffffffffffffffffffffff\n        /* \"#utility.yul\":3072:3077   */\n      dup3\n        /* \"#utility.yul\":3068:3122   */\n      and\n        /* \"#utility.yul\":3057:3122   */\n      swap1\n      pop\n        /* \"#utility.yul\":3002:3128   */\n      swap2\n      swap1\n      pop\n      jump\t// out\n        /* \"#utility.yul\":3134:3194   */\n    tag_46:\n        /* \"#utility.yul\":3162:3165   */\n      0x00\n        /* \"#utility.yul\":3183:3188   */\n      dup2\n        /* \"#utility.yul\":3176:3188   */\n      swap1\n      pop\n        /* \"#utility.yul\":3134:3194   */\n      swap2\n      swap1\n      pop\n      jump\t// out\n        /* \"#utility.yul\":3200:3342   */\n    tag_47:\n        /* \"#utility.yul\":3250:3259   */\n      0x00\n        /* \"#utility.yul\":3283:3336   */\n      tag_94\n        /* \"#utility.yul\":3301:3335   */\n      tag_95\n        /* \"#utility.yul\":3310:3334   */\n      tag_96\n        /* \"#utility.yul\":3328:3333   */\n      dup5\n        /* \"#utility.yul\":3310:3334   */\n      tag_45\n      jump\t// in\n    tag_96:\n        /* \"#utility.yul\":3301:3335   */\n      tag_46\n      jump\t// in\n    tag_95:\n        /* \"#utility.yul\":3283:3336   */\n      tag_45\n      jump\t// in\n    tag_94:\n        /* \"#utility.yul\":3270:3336   */\n      swap1\n      pop\n        /* \"#utility.yul\":3200:3342   */\n      swap2\n      swap1\n      pop\n      jump\t// out\n        /* \"#utility.yul\":3348:3474   */\n    tag_48:\n        /* \"#utility.yul\":3398:3407   */\n      0x00\n        /* \"#utility.yul\":3431:3468   */\n      tag_98\n        /* \"#utility.yul\":3462:3467   */\n      dup3\n        /* \"#utility.yul\":3431:3468   */\n      tag_47\n      jump\t// in\n    tag_98:\n        /* \"#utility.yul\":3418:3468   */\n      swap1\n      pop\n        /* \"#utility.yul\":3348:3474   */\n      swap2\n      swap1\n      pop\n      jump\t// out\n        /* \"#utility.yul\":3480:3628   */\n    tag_49:\n        /* \"#utility.yul\":3552:3561   */\n      0x00\n        /* \"#utility.yul\":3585:3622   */\n      tag_100\n        /* \"#utility.yul\":3616:3621   */\n      dup3\n        /* \"#utility.yul\":3585:3622   */\n      tag_48\n      jump\t// in\n    tag_100:\n        /* \"#utility.yul\":3572:3622   */\n      swap1\n      pop\n        /* \"#utility.yul\":3480:3628   */\n      swap2\n      swap1\n      pop\n      jump\t// out\n        /* \"#utility.yul\":3634:3809   */\n    tag_50:\n        /* \"#utility.yul\":3743:3802   */\n      tag_102\n        /* \"#utility.yul\":3796:3801   */\n      dup2\n        /* \"#utility.yul\":3743:3802   */\n      tag_49\n      jump\t// in\n    tag_102:\n        /* \"#utility.yul\":3738:3741   */\n      dup3\n        /* \"#utility.yul\":3731:3803   */\n      mstore\n        /* \"#utility.yul\":3634:3809   */\n      pop\n      pop\n      jump\t// out\n        /* \"#utility.yul\":3815:4081   */\n    tag_17:\n        /* \"#utility.yul\":3930:3934   */\n      0x00\n        /* \"#utility.yul\":3968:3970   */\n      0x20\n        /* \"#utility.yul\":3957:3966   */\n      dup3\n        /* \"#utility.yul\":3953:3971   */\n      add\n        /* \"#utility.yul\":3945:3971   */\n      swap1\n      pop\n        /* \"#utility.yul\":3981:4074   */\n      tag_104\n        /* \"#utility.yul\":4071:4072   */\n      0x00\n        /* \"#utility.yul\":4060:4069   */\n      dup4\n        /* \"#utility.yul\":4056:4073   */\n      add\n        /* \"#utility.yul\":4047:4053   */\n      dup5\n        /* \"#utility.yul\":3981:4074   */\n      tag_50\n      jump\t// in\n    tag_104:\n        /* \"#utility.yul\":3815:4081   */\n      swap3\n      swap2\n      pop\n      pop\n      jump\t// out\n        /* \"#utility.yul\":4087:4267   */\n    tag_24:\n        /* \"#utility.yul\":4135:4212   */\n      0x4e487b7100000000000000000000000000000000000000000000000000000000\n        /* \"#utility.yul\":4132:4133   */\n      0x00\n        /* \"#utility.yul\":4125:4213   */\n      mstore\n        /* \"#utility.yul\":4232:4236   */\n      0x32\n        /* \"#utility.yul\":4229:4230   */\n      0x04\n        /* \"#utility.yul\":4222:4237   */\n      mstore\n        /* \"#utility.yul\":4256:4260   */\n      0x24\n        /* \"#utility.yul\":4253:4254   */\n      0x00\n        /* \"#utility.yul\":4246:4261   */\n      revert\n        /* \"#utility.yul\":4273:4390   */\n    tag_51:\n        /* \"#utility.yul\":4382:4383   */\n      0x00\n        /* \"#utility.yul\":4379:4380   */\n      dup1\n        /* \"#utility.yul\":4372:4384   */\n      revert\n        /* \"#utility.yul\":4396:4513   */\n    tag_52:\n        /* \"#utility.yul\":4505:4506   */\n      0x00\n        /* \"#utility.yul\":4502:4503   */\n      dup1\n        /* \"#utility.yul\":4495:4507   */\n      revert\n        /* \"#utility.yul\":4519:4636   */\n    tag_53:\n        /* \"#utility.yul\":4628:4629   */\n      0x00\n        /* \"#utility.yul\":4625:4626   */\n      dup1\n        /* \"#utility.yul\":4618:4630   */\n      revert\n        /* \"#utility.yul\":4642:5367   */\n    tag_26:\n        /* \"#utility.yul\":4720:4724   */\n      0x00\n        /* \"#utility.yul\":4726:4732   */\n      dup1\n        /* \"#utility.yul\":4782:4793   */\n      dup4\n        /* \"#utility.yul\":4769:4794   */\n      calldataload\n        /* \"#utility.yul\":4882:4883   */\n      0x01\n        /* \"#utility.yul\":4876:4880   */\n      0x20\n        /* \"#utility.yul\":4872:4884   */\n      sub\n        /* \"#utility.yul\":4861:4869   */\n      dup5\n        /* \"#utility.yul\":4845:4859   */\n      calldatasize\n        /* \"#utility.yul\":4841:4870   */\n      sub\n        /* \"#utility.yul\":4837:4885   */\n      sub\n        /* \"#utility.yul\":4817:4835   */\n      dup2\n        /* \"#utility.yul\":4813:4886   */\n      slt\n        /* \"#utility.yul\":4803:4971   */\n      tag_110\n      jumpi\n        /* \"#utility.yul\":4890:4969   */\n      tag_111\n      tag_51\n      jump\t// in\n    tag_111:\n        /* \"#utility.yul\":4803:4971   */\n    tag_110:\n        /* \"#utility.yul\":5002:5020   */\n      dup1\n        /* \"#utility.yul\":4992:5000   */\n      dup5\n        /* \"#utility.yul\":4988:5021   */\n      add\n        /* \"#utility.yul\":4980:5021   */\n      swap3\n      pop\n        /* \"#utility.yul\":5054:5058   */\n      dup3\n        /* \"#utility.yul\":5041:5059   */\n      calldataload\n        /* \"#utility.yul\":5031:5059   */\n      swap2\n      pop\n        /* \"#utility.yul\":5082:5100   */\n      0xffffffffffffffff\n        /* \"#utility.yul\":5074:5080   */\n      dup3\n        /* \"#utility.yul\":5071:5101   */\n      gt\n        /* \"#utility.yul\":5068:5185   */\n      iszero\n      tag_112\n      jumpi\n        /* \"#utility.yul\":5104:5183   */\n      tag_113\n      tag_52\n      jump\t// in\n    tag_113:\n        /* \"#utility.yul\":5068:5185   */\n    tag_112:\n        /* \"#utility.yul\":5212:5214   */\n      0x20\n        /* \"#utility.yul\":5206:5210   */\n      dup4\n        /* \"#utility.yul\":5202:5215   */\n      add\n        /* \"#utility.yul\":5194:5215   */\n      swap3\n      pop\n        /* \"#utility.yul\":5269:5273   */\n      0x01\n        /* \"#utility.yul\":5261:5267   */\n      dup3\n        /* \"#utility.yul\":5257:5274   */\n      mul\n        /* \"#utility.yul\":5241:5255   */\n      calldatasize\n        /* \"#utility.yul\":5237:5275   */\n      sub\n        /* \"#utility.yul\":5231:5235   */\n      dup4\n        /* \"#utility.yul\":5227:5276   */\n      sgt\n        /* \"#utility.yul\":5224:5360   */\n      iszero\n      tag_114\n      jumpi\n        /* \"#utility.yul\":5279:5358   */\n      tag_115\n      tag_53\n      jump\t// in\n    tag_115:\n        /* \"#utility.yul\":5224:5360   */\n    tag_114:\n        /* \"#utility.yul\":4733:5367   */\n      pop\n        /* \"#utility.yul\":4642:5367   */\n      swap3\n      pop\n      swap3\n      swap1\n      pop\n      jump\t// out\n        /* \"#utility.yul\":5373:5542   */\n    tag_54:\n        /* \"#utility.yul\":5457:5468   */\n      0x00\n        /* \"#utility.yul\":5491:5497   */\n      dup3\n        /* \"#utility.yul\":5486:5489   */\n      dup3\n        /* \"#utility.yul\":5479:5498   */\n      mstore\n        /* \"#utility.yul\":5531:5535   */\n      0x20\n        /* \"#utility.yul\":5526:5529   */\n      dup3\n        /* \"#utility.yul\":5522:5536   */\n      add\n        /* \"#utility.yul\":5507:5536   */\n      swap1\n      pop\n        /* \"#utility.yul\":5373:5542   */\n      swap3\n      swap2\n      pop\n      pop\n      jump\t// out\n        /* \"#utility.yul\":5548:5696   */\n    tag_55:\n        /* \"#utility.yul\":5646:5652   */\n      dup3\n        /* \"#utility.yul\":5641:5644   */\n      dup2\n        /* \"#utility.yul\":5636:5639   */\n      dup4\n        /* \"#utility.yul\":5623:5653   */\n      calldatacopy\n        /* \"#utility.yul\":5687:5688   */\n      0x00\n        /* \"#utility.yul\":5678:5684   */\n      dup4\n        /* \"#utility.yul\":5673:5676   */\n      dup4\n        /* \"#utility.yul\":5669:5685   */\n      add\n        /* \"#utility.yul\":5662:5689   */\n      mstore\n        /* \"#utility.yul\":5548:5696   */\n      pop\n      pop\n      pop\n      jump\t// out\n        /* \"#utility.yul\":5702:5804   */\n    tag_56:\n        /* \"#utility.yul\":5743:5749   */\n      0x00\n        /* \"#utility.yul\":5794:5796   */\n      0x1f\n        /* \"#utility.yul\":5790:5797   */\n      not\n        /* \"#utility.yul\":5785:5787   */\n      0x1f\n        /* \"#utility.yul\":5778:5783   */\n      dup4\n        /* \"#utility.yul\":5774:5788   */\n      add\n        /* \"#utility.yul\":5770:5798   */\n      and\n        /* \"#utility.yul\":5760:5798   */\n      swap1\n      pop\n        /* \"#utility.yul\":5702:5804   */\n      swap2\n      swap1\n      pop\n      jump\t// out\n        /* \"#utility.yul\":5834:6151   */\n    tag_57:\n        /* \"#utility.yul\":5932:5935   */\n      0x00\n        /* \"#utility.yul\":5953:6024   */\n      tag_120\n        /* \"#utility.yul\":6017:6023   */\n      dup4\n        /* \"#utility.yul\":6012:6015   */\n      dup6\n        /* \"#utility.yul\":5953:6024   */\n      tag_54\n      jump\t// in\n    tag_120:\n        /* \"#utility.yul\":5946:6024   */\n      swap4\n      pop\n        /* \"#utility.yul\":6034:6090   */\n      tag_121\n        /* \"#utility.yul\":6083:6089   */\n      dup4\n        /* \"#utility.yul\":6078:6081   */\n      dup6\n        /* \"#utility.yul\":6071:6076   */\n      dup5\n        /* \"#utility.yul\":6034:6090   */\n      tag_55\n      jump\t// in\n    tag_121:\n        /* \"#utility.yul\":6115:6144   */\n      tag_122\n        /* \"#utility.yul\":6137:6143   */\n      dup4\n        /* \"#utility.yul\":6115:6144   */\n      tag_56\n      jump\t// in\n    tag_122:\n        /* \"#utility.yul\":6110:6113   */\n      dup5\n        /* \"#utility.yul\":6106:6145   */\n      add\n        /* \"#utility.yul\":6099:6145   */\n      swap1\n      pop\n        /* \"#utility.yul\":5834:6151   */\n      swap4\n      swap3\n      pop\n      pop\n      pop\n      jump\t// out\n        /* \"#utility.yul\":6157:6490   */\n    tag_28:\n        /* \"#utility.yul\":6280:6284   */\n      0x00\n        /* \"#utility.yul\":6318:6320   */\n      0x20\n        /* \"#utility.yul\":6307:6316   */\n      dup3\n        /* \"#utility.yul\":6303:6321   */\n      add\n        /* \"#utility.yul\":6295:6321   */\n      swap1\n      pop\n        /* \"#utility.yul\":6367:6376   */\n      dup2\n        /* \"#utility.yul\":6361:6365   */\n      dup2\n        /* \"#utility.yul\":6357:6377   */\n      sub\n        /* \"#utility.yul\":6353:6354   */\n      0x00\n        /* \"#utility.yul\":6342:6351   */\n      dup4\n        /* \"#utility.yul\":6338:6355   */\n      add\n        /* \"#utility.yul\":6331:6378   */\n      mstore\n        /* \"#utility.yul\":6395:6483   */\n      tag_124\n        /* \"#utility.yul\":6478:6482   */\n      dup2\n        /* \"#utility.yul\":6469:6475   */\n      dup5\n        /* \"#utility.yul\":6461:6467   */\n      dup7\n        /* \"#utility.yul\":6395:6483   */\n      tag_57\n      jump\t// in\n    tag_124:\n        /* \"#utility.yul\":6387:6483   */\n      swap1\n      pop\n        /* \"#utility.yul\":6157:6490   */\n      swap4\n      swap3\n      pop\n      pop\n      pop\n      jump\t// out\n\n    auxdata: 0xa264697066735822122003b965f0ad179d173dd49ce5508e2eb41dd3ea3d61cbe41a06604e31e6c3aabc64736f6c634300081a0033\n}\n",
				"bytecode": {
					"linkReferences": {},
					"object": "608060405234801561000f575f80fd5b50604051610661380380610661833981810160405281019061003191906100e5565b805f806101000a81548173ffffffffffffffffffffffffffffffffffffffff021916908373ffffffffffffffffffffffffffffffffffffffff16021790555050610110565b5f80fd5b5f73ffffffffffffffffffffffffffffffffffffffff82169050919050565b5f6100a38261007a565b9050919050565b5f6100b482610099565b9050919050565b6100c4816100aa565b81146100ce575f80fd5b50565b5f815190506100df816100bb565b92915050565b5f602082840312156100fa576100f9610076565b5b5f610107848285016100d1565b91505092915050565b6105448061011d5f395ff3fe608060405234801561000f575f80fd5b506004361061003f575f3560e01c806341e7d49f146100435780634e2395b31461005f578063d4b839921461007b575b5f80fd5b61005d60048036038101906100589190610279565b610099565b005b61007960048036038101906100749190610319565b610162565b005b6100836101ed565b60405161009091906103de565b60405180910390f35b5f5b8282905081101561015d575f8054906101000a900473ffffffffffffffffffffffffffffffffffffffff1673ffffffffffffffffffffffffffffffffffffffff166307ba86a38484848181106100f4576100f36103f7565b5b90506020028101906101069190610430565b6040518363ffffffff1660e01b81526004016101239291906104ec565b5f604051808303815f87803b15801561013a575f80fd5b505af115801561014c573d5f803e3d5ffd5b50505050808060010191505061009b565b505050565b5f8054906101000a900473ffffffffffffffffffffffffffffffffffffffff1673ffffffffffffffffffffffffffffffffffffffff166307ba86a383836040518363ffffffff1660e01b81526004016101bc9291906104ec565b5f604051808303815f87803b1580156101d3575f80fd5b505af11580156101e5573d5f803e3d5ffd5b505050505050565b5f8054906101000a900473ffffffffffffffffffffffffffffffffffffffff1681565b5f80fd5b5f80fd5b5f80fd5b5f80fd5b5f80fd5b5f8083601f84011261023957610238610218565b5b8235905067ffffffffffffffff8111156102565761025561021c565b5b60208301915083602082028301111561027257610271610220565b5b9250929050565b5f806020838503121561028f5761028e610210565b5b5f83013567ffffffffffffffff8111156102ac576102ab610214565b5b6102b885828601610224565b92509250509250929050565b5f8083601f8401126102d9576102d8610218565b5b8235905067ffffffffffffffff8111156102f6576102f561021c565b5b60208301915083600182028301111561031257610311610220565b5b9250929050565b5f806020838503121561032f5761032e610210565b5b5f83013567ffffffffffffffff81111561034c5761034b610214565b5b610358858286016102c4565b92509250509250929050565b5f73ffffffffffffffffffffffffffffffffffffffff82169050919050565b5f819050919050565b5f6103a66103a161039c84610364565b610383565b610364565b9050919050565b5f6103b78261038c565b9050919050565b5f6103c8826103ad565b9050919050565b6103d8816103be565b82525050565b5f6020820190506103f15f8301846103cf565b92915050565b7f4e487b71000000000000000000000000000000000000000000000000000000005f52603260045260245ffd5b5f80fd5b5f80fd5b5f80fd5b5f808335600160200384360303811261044c5761044b610424565b5b80840192508235915067ffffffffffffffff82111561046e5761046d610428565b5b60208301925060018202360383131561048a5761048961042c565b5b509250929050565b5f82825260208201905092915050565b828183375f83830152505050565b5f601f19601f8301169050919050565b5f6104cb8385610492565b93506104d88385846104a2565b6104e1836104b0565b840190509392505050565b5f6020820190508181035f8301526105058184866104c0565b9050939250505056fea264697066735822122003b965f0ad179d173dd49ce5508e2eb41dd3ea3d61cbe41a06604e31e6c3aabc64736f6c634300081a0033",
					"opcodes": "PUSH1 0x80 PUSH1 0x40 MSTORE CALLVALUE DUP1 ISZERO PUSH2 0xF JUMPI PUSH0 DUP1 REVERT JUMPDEST POP PUSH1 0x40 MLOAD PUSH2 0x661 CODESIZE SUB DUP1 PUSH2 0x661 DUP4 CODECOPY DUP2 DUP2 ADD PUSH1 0x40 MSTORE DUP2 ADD SWAP1 PUSH2 0x31 SWAP2 SWAP1 PUSH2 0xE5 JUMP JUMPDEST DUP1 PUSH0 DUP1 PUSH2 0x100 EXP DUP2 SLOAD DUP2 PUSH20 0xFFFFFFFFFFFFFFFFFFFFFFFFFFFFFFFFFFFFFFFF MUL NOT AND SWAP1 DUP4 PUSH20 0xFFFFFFFFFFFFFFFFFFFFFFFFFFFFFFFFFFFFFFFF AND MUL OR SWAP1 SSTORE POP POP PUSH2 0x110 JUMP JUMPDEST PUSH0 DUP1 REVERT JUMPDEST PUSH0 PUSH20 0xFFFFFFFFFFFFFFFFFFFFFFFFFFFFFFFFFFFFFFFF DUP3 AND SWAP1 POP SWAP2 SWAP1 POP JUMP JUMPDEST PUSH0 PUSH2 0xA3 DUP3 PUSH2 0x7A JUMP JUMPDEST SWAP1 POP SWAP2 SWAP1 POP JUMP JUMPDEST PUSH0 PUSH2 0xB4 DUP3 PUSH2 0x99 JUMP JUMPDEST SWAP1 POP SWAP2 SWAP1 POP JUMP JUMPDEST PUSH2 0xC4 DUP2 PUSH2 0xAA JUMP JUMPDEST DUP2 EQ PUSH2 0xCE JUMPI PUSH0 DUP1 REVERT JUMPDEST POP JUMP JUMPDEST PUSH0 DUP2 MLOAD SWAP1 POP PUSH2 0xDF DUP2 PUSH2 0xBB JUMP JUMPDEST SWAP3 SWAP2 POP POP JUMP JUMPDEST PUSH0 PUSH1 0x20 DUP3 DUP5 SUB SLT ISZERO PUSH2 0xFA JUMPI PUSH2 0xF9 PUSH2 0x76 JUMP JUMPDEST JUMPDEST PUSH0 PUSH2 0x107 DUP5 DUP3 DUP6 ADD PUSH2 0xD1 JUMP JUMPDEST SWAP2 POP POP SWAP3 SWAP2 POP POP JUMP JUMPDEST PUSH2 0x544 DUP1 PUSH2 0x11D PUSH0 CODECOPY PUSH0 RETURN INVALID PUSH1 0x80 PUSH1 0x40 MSTORE CALLVALUE DUP1 ISZERO PUSH2 0xF JUMPI PUSH0 DUP1 REVERT JUMPDEST POP PUSH1 0x4 CALLDATASIZE LT PUSH2 0x3F JUMPI PUSH0 CALLDATALOAD PUSH1 0xE0 SHR DUP1 PUSH4 0x41E7D49F EQ PUSH2 0x43 JUMPI DUP1 PUSH4 0x4E2395B3 EQ PUSH2 0x5F JUMPI DUP1 PUSH4 0xD4B83992 EQ PUSH2 0x7B JUMPI JUMPDEST PUSH0 DUP1 REVERT JUMPDEST PUSH2 0x5D PUSH1 0x4 DUP1 CALLDATASIZE SUB DUP2 ADD SWAP1 PUSH2 0x58 SWAP2 SWAP1 PUSH2 0x279 JUMP JUMPDEST PUSH2 0x99 JUMP JUMPDEST STOP JUMPDEST PUSH2 0x79 PUSH1 0x4 DUP1 CALLDATASIZE SUB DUP2 ADD SWAP1 PUSH2 0x74 SWAP2 SWAP1 PUSH2 0x319 JUMP JUMPDEST PUSH2 0x162 JUMP JUMPDEST STOP JUMPDEST PUSH2 0x83 PUSH2 0x1ED JUMP JUMPDEST PUSH1 0x40 MLOAD PUSH2 0x90 SWAP2 SWAP1 PUSH2 0x3DE JUMP JUMPDEST PUSH1 0x40 MLOAD DUP1 SWAP2 SUB SWAP1 RETURN JUMPDEST PUSH0 JUMPDEST DUP3 DUP3 SWAP1 POP DUP2 LT ISZERO PUSH2 0x15D JUMPI PUSH0 DUP1 SLOAD SWAP1 PUSH2 0x100 EXP SWAP1 DIV PUSH20 0xFFFFFFFFFFFFFFFFFFFFFFFFFFFFFFFFFFFFFFFF AND PUSH20 0xFFFFFFFFFFFFFFFFFFFFFFFFFFFFFFFFFFFFFFFF AND PUSH4 0x7BA86A3 DUP5 DUP5 DUP5 DUP2 DUP2 LT PUSH2 0xF4 JUMPI PUSH2 0xF3 PUSH2 0x3F7 JUMP JUMPDEST JUMPDEST SWAP1 POP PUSH1 0x20 MUL DUP2 ADD SWAP1 PUSH2 0x106 SWAP2 SWAP1 PUSH2 0x430 JUMP JUMPDEST PUSH1 0x40 MLOAD DUP4 PUSH4 0xFFFFFFFF AND PUSH1 0xE0 SHL DUP2 MSTORE PUSH1 0x4 ADD PUSH2 0x123 SWAP3 SWAP2 SWAP1 PUSH2 0x4EC JUMP JUMPDEST PUSH0 PUSH1 0x40 MLOAD DUP1 DUP4 SUB DUP2 PUSH0 DUP8 DUP1 EXTCODESIZE ISZERO DUP1 ISZERO PUSH2 0x13A JUMPI PUSH0 DUP1 REVERT JUMPDEST POP GAS CALL ISZERO DUP1 ISZERO PUSH2 0x14C JUMPI RETURNDATASIZE PUSH0 DUP1 RETURNDATACOPY RETURNDATASIZE PUSH0 REVERT JUMPDEST POP POP POP POP DUP1 DUP1 PUSH1 0x1 ADD SWAP2 POP POP PUSH2 0x9B JUMP JUMPDEST POP POP POP JUMP JUMPDEST PUSH0 DUP1 SLOAD SWAP1 PUSH2 0x100 EXP SWAP1 DIV PUSH20 0xFFFFFFFFFFFFFFFFFFFFFFFFFFFFFFFFFFFFFFFF AND PUSH20 0xFFFFFFFFFFFFFFFFFFFFFFFFFFFFFFFFFFFFFFFF AND PUSH4 0x7BA86A3 DUP4 DUP4 PUSH1 0x40 MLOAD DUP4 PUSH4 0xFFFFFFFF AND PUSH1 0xE0 SHL DUP2 MSTORE PUSH1 0x4 ADD PUSH2 0x1BC SWAP3 SWAP2 SWAP1 PUSH2 0x4EC JUMP JUMPDEST PUSH0 PUSH1 0x40 MLOAD DUP1 DUP4 SUB DUP2 PUSH0 DUP8 DUP1 EXTCODESIZE ISZERO DUP1 ISZERO PUSH2 0x1D3 JUMPI PUSH0 DUP1 REVERT JUMPDEST POP GAS CALL ISZERO DUP1 ISZERO PUSH2 0x1E5 JUMPI RETURNDATASIZE PUSH0 DUP1 RETURNDATACOPY RETURNDATASIZE PUSH0 REVERT JUMPDEST POP POP POP POP POP POP JUMP JUMPDEST PUSH0 DUP1 SLOAD SWAP1 PUSH2 0x100 EXP SWAP1 DIV PUSH20 0xFFFFFFFFFFFFFFFFFFFFFFFFFFFFFFFFFFFFFFFF AND DUP2 JUMP JUMPDEST PUSH0 DUP1 REVERT JUMPDEST PUSH0 DUP1 REVERT JUMPDEST PUSH0 DUP1 REVERT JUMPDEST PUSH0 DUP1 REVERT JUMPDEST PUSH0 DUP1 REVERT JUMPDEST PUSH0 DUP1 DUP4 PUSH1 0x1F DUP5 ADD SLT PUSH2 0x239 JUMPI PUSH2 0x238 PUSH2 0x218 JUMP JUMPDEST JUMPDEST DUP3 CALLDATALOAD SWAP1 POP PUSH8 0xFFFFFFFFFFFFFFFF DUP2 GT ISZERO PUSH2 0x256 JUMPI PUSH2 0x255 PUSH2 0x21C JUMP JUMPDEST JUMPDEST PUSH1 0x20 DUP4 ADD SWAP2 POP DUP4 PUSH1 0x20 DUP3 MUL DUP4 ADD GT ISZERO PUSH2 0x272 JUMPI PUSH2 0x271 PUSH2 0x220 JUMP JUMPDEST JUMPDEST SWAP3 POP SWAP3 SWAP1 POP JUMP JUMPDEST PUSH0 DUP1 PUSH1 0x20 DUP4 DUP6 SUB SLT ISZERO PUSH2 0x28F JUMPI PUSH2 0x28E PUSH2 0x210 JUMP JUMPDEST JUMPDEST PUSH0 DUP4 ADD CALLDATALOAD PUSH8 0xFFFFFFFFFFFFFFFF DUP2 GT ISZERO PUSH2 0x2AC JUMPI PUSH2 0x2AB PUSH2 0x214 JUMP JUMPDEST JUMPDEST PUSH2 0x2B8 DUP6 DUP3 DUP7 ADD PUSH2 0x224 JUMP JUMPDEST SWAP3 POP SWAP3 POP POP SWAP3 POP SWAP3 SWAP1 POP JUMP JUMPDEST PUSH0 DUP1 DUP4 PUSH1 0x1F DUP5 ADD SLT PUSH2 0x2D9 JUMPI PUSH2 0x2D8 PUSH2 0x218 JUMP JUMPDEST JUMPDEST DUP3 CALLDATALOAD SWAP1 POP PUSH8 0xFFFFFFFFFFFFFFFF DUP2 GT ISZERO PUSH2 0x2F6 JUMPI PUSH2 0x2F5 PUSH2 0x21C JUMP JUMPDEST JUMPDEST PUSH1 0x20 DUP4 ADD SWAP2 POP DUP4 PUSH1 0x1 DUP3 MUL DUP4 ADD GT ISZERO PUSH2 0x312 JUMPI PUSH2 0x311 PUSH2 0x220 JUMP JUMPDEST JUMPDEST SWAP3 POP SWAP3 SWAP1 POP JUMP JUMPDEST PUSH0 DUP1 PUSH1 0x20 DUP4 DUP6 SUB SLT ISZERO PUSH2 0x32F JUMPI PUSH2 0x32E PUSH2 0x210 JUMP JUMPDEST JUMPDEST PUSH0 DUP4 ADD CALLDATALOAD PUSH8 0xFFFFFFFFFFFFFFFF DUP2 GT ISZERO PUSH2 0x34C JUMPI PUSH2 0x34B PUSH2 0x214 JUMP JUMPDEST JUMPDEST PUSH2 0x358 DUP6 DUP3 DUP7 ADD PUSH2 0x2C4 JUMP JUMPDEST SWAP3 POP SWAP3 POP POP SWAP3 POP SWAP3 SWAP1 POP JUMP JUMPDEST PUSH0 PUSH20 0xFFFFFFFFFFFFFFFFFFFFFFFFFFFFFFFFFFFFFFFF DUP3 AND SWAP1 POP SWAP2 SWAP1 POP JUMP JUMPDEST PUSH0 DUP2 SWAP1 POP SWAP2 SWAP1 POP JUMP JUMPDEST PUSH0 PUSH2 0x3A6 PUSH2 0x3A1 PUSH2 0x39C DUP5 PUSH2 0x364 JUMP JUMPDEST PUSH2 0x383 JUMP JUMPDEST PUSH2 0x364 JUMP JUMPDEST SWAP1 POP SWAP2 SWAP1 POP JUMP JUMPDEST PUSH0 PUSH2 0x3B7 DUP3 PUSH2 0x38C JUMP JUMPDEST SWAP1 POP SWAP2 SWAP1 POP JUMP JUMPDEST PUSH0 PUSH2 0x3C8 DUP3 PUSH2 0x3AD JUMP JUMPDEST SWAP1 POP SWAP2 SWAP1 POP JUMP JUMPDEST PUSH2 0x3D8 DUP2 PUSH2 0x3BE JUMP JUMPDEST DUP3 MSTORE POP POP JUMP JUMPDEST PUSH0 PUSH1 0x20 DUP3 ADD SWAP1 POP PUSH2 0x3F1 PUSH0 DUP4 ADD DUP5 PUSH2 0x3CF JUMP JUMPDEST SWAP3 SWAP2 POP POP JUMP JUMPDEST PUSH32 0x4E487B7100000000000000000000000000000000000000000000000000000000 PUSH0 MSTORE PUSH1 0x32 PUSH1 0x4 MSTORE PUSH1 0x24 PUSH0 REVERT JUMPDEST PUSH0 DUP1 REVERT JUMPDEST PUSH0 DUP1 REVERT JUMPDEST PUSH0 DUP1 REVERT JUMPDEST PUSH0 DUP1 DUP4 CALLDATALOAD PUSH1 0x1 PUSH1 0x20 SUB DUP5 CALLDATASIZE SUB SUB DUP2 SLT PUSH2 0x44C JUMPI PUSH2 0x44B PUSH2 0x424 JUMP JUMPDEST JUMPDEST DUP1 DUP5 ADD SWAP3 POP DUP3 CALLDATALOAD SWAP2 POP PUSH8 0xFFFFFFFFFFFFFFFF DUP3 GT ISZERO PUSH2 0x46E JUMPI PUSH2 0x46D PUSH2 0x428 JUMP JUMPDEST JUMPDEST PUSH1 0x20 DUP4 ADD SWAP3 POP PUSH1 0x1 DUP3 MUL CALLDATASIZE SUB DUP4 SGT ISZERO PUSH2 0x48A JUMPI PUSH2 0x489 PUSH2 0x42C JUMP JUMPDEST JUMPDEST POP SWAP3 POP SWAP3 SWAP1 POP JUMP JUMPDEST PUSH0 DUP3 DUP3 MSTORE PUSH1 0x20 DUP3 ADD SWAP1 POP SWAP3 SWAP2 POP POP JUMP JUMPDEST DUP3 DUP2 DUP4 CALLDATACOPY PUSH0 DUP4 DUP4 ADD MSTORE POP POP POP JUMP JUMPDEST PUSH0 PUSH1 0x1F NOT PUSH1 0x1F DUP4 ADD AND SWAP1 POP SWAP2 SWAP1 POP JUMP JUMPDEST PUSH0 PUSH2 0x4CB DUP4 DUP6 PUSH2 0x492 JUMP JUMPDEST SWAP4 POP PUSH2 0x4D8 DUP4 DUP6 DUP5 PUSH2 0x4A2 JUMP JUMPDEST PUSH2 0x4E1 DUP4 PUSH2 0x4B0 JUMP JUMPDEST DUP5 ADD SWAP1 POP SWAP4 SWAP3 POP POP POP JUMP JUMPDEST PUSH0 PUSH1 0x20 DUP3 ADD SWAP1 POP DUP2 DUP2 SUB PUSH0 DUP4 ADD MSTORE PUSH2 0x505 DUP2 DUP5 DUP7 PUSH2 0x4C0 JUMP JUMPDEST SWAP1 POP SWAP4 SWAP3 POP POP POP JUMP INVALID LOG2 PUSH5 0x6970667358 0x22 SLT KECCAK256 SUB 0xB9 PUSH6 0xF0AD179D173D 0xD4 SWAP13 0xE5 POP DUP15 0x2E 0xB4 SAR 0xD3 0xEA RETURNDATASIZE PUSH2 0xCBE4 BYTE MOD PUSH1 0x4E BALANCE 0xE6 0xC3 0xAA 0xBC PUSH5 0x736F6C6343 STOP ADDMOD BYTE STOP CALLER "
				},
				"gasEstimates": {
					"creation": {
						"codeDepositCost": "269600",
						"executionCost": "infinite",
						"totalCost": "infinite"
					},
					"external": {
						"floodMarks(string[])": "infinite",
						"spoofMark(string)": "infinite",
						"target()": "infinite"
					}
				},
				"methodIdentifiers": {
					"floodMarks(string[])": "41e7d49f",
					"spoofMark(string)": "4e2395b3",
					"target()": "d4b83992"
				}
			},
			"storageLayout": {
				"storage": [
					{
						"astId": 65,
						"contract": "W/War Chalking/War Chalking.sol:Attack_WarChalking",
						"label": "target",
						"offset": 0,
						"slot": "0",
						"type": "t_contract(WarChalkingVuln)61"
					}
				],
				"types": {
					"t_contract(WarChalkingVuln)61": {
						"encoding": "inplace",
						"label": "contract WarChalkingVuln",
						"numberOfBytes": "20"
					}
				}
			},
			"userdoc": {
				"kind": "user",
				"methods": {},
				"notice": "───────────────────────────────────────────────────────────────────────────── 2) ATTACK STUB    • UnauthorizedMark: attacker marks victim’s location      • FloodMark: attacker floods many marks   ─────────────────────────────────────────────────────────────────────────────",
				"version": 1
			}
		}
	}
}