{
	"W/War Chalking/War Chalking.sol": {
		"WarChalkingSafeTTL": {
			"abi": [
				{
					"inputs": [],
					"name": "WC__MarkExpired",
					"type": "error"
				},
				{
					"anonymous": false,
					"inputs": [
						{
							"indexed": true,
							"internalType": "string",
							"name": "location",
							"type": "string"
						},
						{
							"indexed": true,
							"internalType": "address",
							"name": "by",
							"type": "address"
						},
						{
							"indexed": false,
							"internalType": "enum WarChalkingDefenseType",
							"name": "defense",
							"type": "uint8"
						}
					],
					"name": "Chalked",
					"type": "event"
				},
				{
					"inputs": [
						{
							"internalType": "string",
							"name": "",
							"type": "string"
						}
					],
					"name": "chalks",
					"outputs": [
						{
							"internalType": "address",
							"name": "who",
							"type": "address"
						},
						{
							"internalType": "uint256",
							"name": "expiry",
							"type": "uint256"
						}
					],
					"stateMutability": "view",
					"type": "function"
				},
				{
					"inputs": [
						{
							"internalType": "string",
							"name": "location",
							"type": "string"
						},
						{
							"internalType": "uint256",
							"name": "ttl",
							"type": "uint256"
						}
					],
					"name": "mark",
					"outputs": [],
					"stateMutability": "nonpayable",
					"type": "function"
				},
				{
					"inputs": [
						{
							"internalType": "string",
							"name": "location",
							"type": "string"
						}
					],
					"name": "query",
					"outputs": [
						{
							"internalType": "address",
							"name": "",
							"type": "address"
						}
					],
					"stateMutability": "view",
					"type": "function"
				}
			],
			"devdoc": {
				"kind": "dev",
				"methods": {},
				"version": 1
			},
			"evm": {
				"assembly": "    /* \"W/War Chalking/War Chalking.sol\":5963:6666  contract WarChalkingSafeTTL {... */\n  mstore(0x40, 0x80)\n  callvalue\n  dup1\n  iszero\n  tag_1\n  jumpi\n  0x00\n  dup1\n  revert\ntag_1:\n  pop\n  dataSize(sub_0)\n  dup1\n  dataOffset(sub_0)\n  0x00\n  codecopy\n  0x00\n  return\nstop\n\nsub_0: assembly {\n        /* \"W/War Chalking/War Chalking.sol\":5963:6666  contract WarChalkingSafeTTL {... */\n      mstore(0x40, 0x80)\n      callvalue\n      dup1\n      iszero\n      tag_1\n      jumpi\n      0x00\n      dup1\n      revert\n    tag_1:\n      pop\n      jumpi(tag_2, lt(calldatasize, 0x04))\n      shr(0xe0, calldataload(0x00))\n      dup1\n      0x23b07bff\n      eq\n      tag_3\n      jumpi\n      dup1\n      0x7c261929\n      eq\n      tag_4\n      jumpi\n      dup1\n      0x94ac1739\n      eq\n      tag_5\n      jumpi\n    tag_2:\n      0x00\n      dup1\n      revert\n        /* \"W/War Chalking/War Chalking.sol\":6216:6448  function mark(string calldata location, uint256 ttl) external {... */\n    tag_3:\n      tag_6\n      0x04\n      dup1\n      calldatasize\n      sub\n      dup2\n      add\n      swap1\n      tag_7\n      swap2\n      swap1\n      tag_8\n      jump\t// in\n    tag_7:\n      tag_9\n      jump\t// in\n    tag_6:\n      stop\n        /* \"W/War Chalking/War Chalking.sol\":6454:6664  function query(string calldata location) external view returns (address) {... */\n    tag_4:\n      tag_10\n      0x04\n      dup1\n      calldatasize\n      sub\n      dup2\n      add\n      swap1\n      tag_11\n      swap2\n      swap1\n      tag_12\n      jump\t// in\n    tag_11:\n      tag_13\n      jump\t// in\n    tag_10:\n      mload(0x40)\n      tag_14\n      swap2\n      swap1\n      tag_15\n      jump\t// in\n    tag_14:\n      mload(0x40)\n      dup1\n      swap2\n      sub\n      swap1\n      return\n        /* \"W/War Chalking/War Chalking.sol\":6046:6083  mapping(string => Mark) public chalks */\n    tag_5:\n      tag_16\n      0x04\n      dup1\n      calldatasize\n      sub\n      dup2\n      add\n      swap1\n      tag_17\n      swap2\n      swap1\n      tag_18\n      jump\t// in\n    tag_17:\n      tag_19\n      jump\t// in\n    tag_16:\n      mload(0x40)\n      tag_20\n      swap3\n      swap2\n      swap1\n      tag_21\n      jump\t// in\n    tag_20:\n      mload(0x40)\n      dup1\n      swap2\n      sub\n      swap1\n      return\n        /* \"W/War Chalking/War Chalking.sol\":6216:6448  function mark(string calldata location, uint256 ttl) external {... */\n    tag_9:\n        /* \"W/War Chalking/War Chalking.sol\":6307:6363  Mark({ who: msg.sender, expiry: block.timestamp + ttl }) */\n      mload(0x40)\n      dup1\n      0x40\n      add\n      0x40\n      mstore\n      dup1\n        /* \"W/War Chalking/War Chalking.sol\":6319:6329  msg.sender */\n      caller\n        /* \"W/War Chalking/War Chalking.sol\":6307:6363  Mark({ who: msg.sender, expiry: block.timestamp + ttl }) */\n      0xffffffffffffffffffffffffffffffffffffffff\n      and\n      dup2\n      mstore\n      0x20\n      add\n        /* \"W/War Chalking/War Chalking.sol\":6357:6360  ttl */\n      dup3\n        /* \"W/War Chalking/War Chalking.sol\":6339:6354  block.timestamp */\n      timestamp\n        /* \"W/War Chalking/War Chalking.sol\":6339:6360  block.timestamp + ttl */\n      tag_23\n      swap2\n      swap1\n      tag_24\n      jump\t// in\n    tag_23:\n        /* \"W/War Chalking/War Chalking.sol\":6307:6363  Mark({ who: msg.sender, expiry: block.timestamp + ttl }) */\n      dup2\n      mstore\n      pop\n        /* \"W/War Chalking/War Chalking.sol\":6288:6294  chalks */\n      0x00\n        /* \"W/War Chalking/War Chalking.sol\":6295:6303  location */\n      dup5\n      dup5\n        /* \"W/War Chalking/War Chalking.sol\":6288:6304  chalks[location] */\n      mload(0x40)\n      tag_25\n      swap3\n      swap2\n      swap1\n      tag_26\n      jump\t// in\n    tag_25:\n      swap1\n      dup2\n      mstore\n      0x20\n      add\n      mload(0x40)\n      dup1\n      swap2\n      sub\n      swap1\n      keccak256\n        /* \"W/War Chalking/War Chalking.sol\":6288:6363  chalks[location] = Mark({ who: msg.sender, expiry: block.timestamp + ttl }) */\n      0x00\n      dup3\n      add\n      mload\n      dup2\n      0x00\n      add\n      exp(0x0100, 0x00)\n      dup2\n      sload\n      dup2\n      0xffffffffffffffffffffffffffffffffffffffff\n      mul\n      not\n      and\n      swap1\n      dup4\n      0xffffffffffffffffffffffffffffffffffffffff\n      and\n      mul\n      or\n      swap1\n      sstore\n      pop\n      0x20\n      dup3\n      add\n      mload\n      dup2\n      0x01\n      add\n      sstore\n      swap1\n      pop\n      pop\n        /* \"W/War Chalking/War Chalking.sol\":6396:6406  msg.sender */\n      caller\n        /* \"W/War Chalking/War Chalking.sol\":6378:6441  Chalked(location, msg.sender, WarChalkingDefenseType.TTLExpire) */\n      0xffffffffffffffffffffffffffffffffffffffff\n      and\n        /* \"W/War Chalking/War Chalking.sol\":6386:6394  location */\n      dup4\n      dup4\n        /* \"W/War Chalking/War Chalking.sol\":6378:6441  Chalked(location, msg.sender, WarChalkingDefenseType.TTLExpire) */\n      mload(0x40)\n      tag_27\n      swap3\n      swap2\n      swap1\n      tag_26\n      jump\t// in\n    tag_27:\n      mload(0x40)\n      dup1\n      swap2\n      sub\n      swap1\n      keccak256\n      0x4d6becea700c444e6bf1369d20e2a71ad2bf2cd21e911486b32e7d4af98d332f\n        /* \"W/War Chalking/War Chalking.sol\":6408:6440  WarChalkingDefenseType.TTLExpire */\n      0x03\n        /* \"W/War Chalking/War Chalking.sol\":6378:6441  Chalked(location, msg.sender, WarChalkingDefenseType.TTLExpire) */\n      mload(0x40)\n      tag_28\n      swap2\n      swap1\n      tag_29\n      jump\t// in\n    tag_28:\n      mload(0x40)\n      dup1\n      swap2\n      sub\n      swap1\n      log3\n        /* \"W/War Chalking/War Chalking.sol\":6216:6448  function mark(string calldata location, uint256 ttl) external {... */\n      pop\n      pop\n      pop\n      jump\t// out\n        /* \"W/War Chalking/War Chalking.sol\":6454:6664  function query(string calldata location) external view returns (address) {... */\n    tag_13:\n        /* \"W/War Chalking/War Chalking.sol\":6518:6525  address */\n      0x00\n        /* \"W/War Chalking/War Chalking.sol\":6537:6550  Mark memory m */\n      dup1\n        /* \"W/War Chalking/War Chalking.sol\":6553:6559  chalks */\n      0x00\n        /* \"W/War Chalking/War Chalking.sol\":6560:6568  location */\n      dup5\n      dup5\n        /* \"W/War Chalking/War Chalking.sol\":6553:6569  chalks[location] */\n      mload(0x40)\n      tag_31\n      swap3\n      swap2\n      swap1\n      tag_26\n      jump\t// in\n    tag_31:\n      swap1\n      dup2\n      mstore\n      0x20\n      add\n      mload(0x40)\n      dup1\n      swap2\n      sub\n      swap1\n      keccak256\n        /* \"W/War Chalking/War Chalking.sol\":6537:6569  Mark memory m = chalks[location] */\n      mload(0x40)\n      dup1\n      0x40\n      add\n      0x40\n      mstore\n      swap1\n      dup2\n      0x00\n      dup3\n      add\n      0x00\n      swap1\n      sload\n      swap1\n      0x0100\n      exp\n      swap1\n      div\n      0xffffffffffffffffffffffffffffffffffffffff\n      and\n      0xffffffffffffffffffffffffffffffffffffffff\n      and\n      0xffffffffffffffffffffffffffffffffffffffff\n      and\n      dup2\n      mstore\n      0x20\n      add\n      0x01\n      dup3\n      add\n      sload\n      dup2\n      mstore\n      pop\n      pop\n      swap1\n      pop\n        /* \"W/War Chalking/War Chalking.sol\":6601:6602  m */\n      dup1\n        /* \"W/War Chalking/War Chalking.sol\":6601:6609  m.expiry */\n      0x20\n      add\n      mload\n        /* \"W/War Chalking/War Chalking.sol\":6583:6598  block.timestamp */\n      timestamp\n        /* \"W/War Chalking/War Chalking.sol\":6583:6609  block.timestamp > m.expiry */\n      gt\n        /* \"W/War Chalking/War Chalking.sol\":6579:6635  if (block.timestamp > m.expiry) revert WC__MarkExpired() */\n      iszero\n      tag_32\n      jumpi\n        /* \"W/War Chalking/War Chalking.sol\":6618:6635  WC__MarkExpired() */\n      mload(0x40)\n      0x56f901d500000000000000000000000000000000000000000000000000000000\n      dup2\n      mstore\n      0x04\n      add\n      mload(0x40)\n      dup1\n      swap2\n      sub\n      swap1\n      revert\n        /* \"W/War Chalking/War Chalking.sol\":6579:6635  if (block.timestamp > m.expiry) revert WC__MarkExpired() */\n    tag_32:\n        /* \"W/War Chalking/War Chalking.sol\":6652:6653  m */\n      dup1\n        /* \"W/War Chalking/War Chalking.sol\":6652:6657  m.who */\n      0x00\n      add\n      mload\n        /* \"W/War Chalking/War Chalking.sol\":6645:6657  return m.who */\n      swap2\n      pop\n      pop\n        /* \"W/War Chalking/War Chalking.sol\":6454:6664  function query(string calldata location) external view returns (address) {... */\n      swap3\n      swap2\n      pop\n      pop\n      jump\t// out\n        /* \"W/War Chalking/War Chalking.sol\":6046:6083  mapping(string => Mark) public chalks */\n    tag_19:\n      0x00\n      dup2\n      dup1\n      mload\n      0x20\n      dup2\n      add\n      dup3\n      add\n      dup1\n      mload\n      dup5\n      dup3\n      mstore\n      0x20\n      dup4\n      add\n      0x20\n      dup6\n      add\n      keccak256\n      dup2\n      dup4\n      mstore\n      dup1\n      swap6\n      pop\n      pop\n      pop\n      pop\n      pop\n      pop\n      0x00\n      swap2\n      pop\n      swap1\n      pop\n      dup1\n      0x00\n      add\n      0x00\n      swap1\n      sload\n      swap1\n      0x0100\n      exp\n      swap1\n      div\n      0xffffffffffffffffffffffffffffffffffffffff\n      and\n      swap1\n      dup1\n      0x01\n      add\n      sload\n      swap1\n      pop\n      dup3\n      jump\t// out\n        /* \"#utility.yul\":7:82   */\n    tag_33:\n        /* \"#utility.yul\":40:46   */\n      0x00\n        /* \"#utility.yul\":73:75   */\n      0x40\n        /* \"#utility.yul\":67:76   */\n      mload\n        /* \"#utility.yul\":57:76   */\n      swap1\n      pop\n        /* \"#utility.yul\":7:82   */\n      swap1\n      jump\t// out\n        /* \"#utility.yul\":88:205   */\n    tag_34:\n        /* \"#utility.yul\":197:198   */\n      0x00\n        /* \"#utility.yul\":194:195   */\n      dup1\n        /* \"#utility.yul\":187:199   */\n      revert\n        /* \"#utility.yul\":211:328   */\n    tag_35:\n        /* \"#utility.yul\":320:321   */\n      0x00\n        /* \"#utility.yul\":317:318   */\n      dup1\n        /* \"#utility.yul\":310:322   */\n      revert\n        /* \"#utility.yul\":334:451   */\n    tag_36:\n        /* \"#utility.yul\":443:444   */\n      0x00\n        /* \"#utility.yul\":440:441   */\n      dup1\n        /* \"#utility.yul\":433:445   */\n      revert\n        /* \"#utility.yul\":457:574   */\n    tag_37:\n        /* \"#utility.yul\":566:567   */\n      0x00\n        /* \"#utility.yul\":563:564   */\n      dup1\n        /* \"#utility.yul\":556:568   */\n      revert\n        /* \"#utility.yul\":580:697   */\n    tag_38:\n        /* \"#utility.yul\":689:690   */\n      0x00\n        /* \"#utility.yul\":686:687   */\n      dup1\n        /* \"#utility.yul\":679:691   */\n      revert\n        /* \"#utility.yul\":717:1270   */\n    tag_39:\n        /* \"#utility.yul\":775:783   */\n      0x00\n        /* \"#utility.yul\":785:791   */\n      dup1\n        /* \"#utility.yul\":835:838   */\n      dup4\n        /* \"#utility.yul\":828:832   */\n      0x1f\n        /* \"#utility.yul\":820:826   */\n      dup5\n        /* \"#utility.yul\":816:833   */\n      add\n        /* \"#utility.yul\":812:839   */\n      slt\n        /* \"#utility.yul\":802:924   */\n      tag_72\n      jumpi\n        /* \"#utility.yul\":843:922   */\n      tag_73\n      tag_36\n      jump\t// in\n    tag_73:\n        /* \"#utility.yul\":802:924   */\n    tag_72:\n        /* \"#utility.yul\":956:962   */\n      dup3\n        /* \"#utility.yul\":943:963   */\n      calldataload\n        /* \"#utility.yul\":933:963   */\n      swap1\n      pop\n        /* \"#utility.yul\":986:1004   */\n      0xffffffffffffffff\n        /* \"#utility.yul\":978:984   */\n      dup2\n        /* \"#utility.yul\":975:1005   */\n      gt\n        /* \"#utility.yul\":972:1089   */\n      iszero\n      tag_74\n      jumpi\n        /* \"#utility.yul\":1008:1087   */\n      tag_75\n      tag_37\n      jump\t// in\n    tag_75:\n        /* \"#utility.yul\":972:1089   */\n    tag_74:\n        /* \"#utility.yul\":1122:1126   */\n      0x20\n        /* \"#utility.yul\":1114:1120   */\n      dup4\n        /* \"#utility.yul\":1110:1127   */\n      add\n        /* \"#utility.yul\":1098:1127   */\n      swap2\n      pop\n        /* \"#utility.yul\":1176:1179   */\n      dup4\n        /* \"#utility.yul\":1168:1172   */\n      0x01\n        /* \"#utility.yul\":1160:1166   */\n      dup3\n        /* \"#utility.yul\":1156:1173   */\n      mul\n        /* \"#utility.yul\":1146:1154   */\n      dup4\n        /* \"#utility.yul\":1142:1174   */\n      add\n        /* \"#utility.yul\":1139:1180   */\n      gt\n        /* \"#utility.yul\":1136:1264   */\n      iszero\n      tag_76\n      jumpi\n        /* \"#utility.yul\":1183:1262   */\n      tag_77\n      tag_38\n      jump\t// in\n    tag_77:\n        /* \"#utility.yul\":1136:1264   */\n    tag_76:\n        /* \"#utility.yul\":717:1270   */\n      swap3\n      pop\n      swap3\n      swap1\n      pop\n      jump\t// out\n        /* \"#utility.yul\":1276:1353   */\n    tag_40:\n        /* \"#utility.yul\":1313:1320   */\n      0x00\n        /* \"#utility.yul\":1342:1347   */\n      dup2\n        /* \"#utility.yul\":1331:1347   */\n      swap1\n      pop\n        /* \"#utility.yul\":1276:1353   */\n      swap2\n      swap1\n      pop\n      jump\t// out\n        /* \"#utility.yul\":1359:1481   */\n    tag_41:\n        /* \"#utility.yul\":1432:1456   */\n      tag_80\n        /* \"#utility.yul\":1450:1455   */\n      dup2\n        /* \"#utility.yul\":1432:1456   */\n      tag_40\n      jump\t// in\n    tag_80:\n        /* \"#utility.yul\":1425:1430   */\n      dup2\n        /* \"#utility.yul\":1422:1457   */\n      eq\n        /* \"#utility.yul\":1412:1475   */\n      tag_81\n      jumpi\n        /* \"#utility.yul\":1471:1472   */\n      0x00\n        /* \"#utility.yul\":1468:1469   */\n      dup1\n        /* \"#utility.yul\":1461:1473   */\n      revert\n        /* \"#utility.yul\":1412:1475   */\n    tag_81:\n        /* \"#utility.yul\":1359:1481   */\n      pop\n      jump\t// out\n        /* \"#utility.yul\":1487:1626   */\n    tag_42:\n        /* \"#utility.yul\":1533:1538   */\n      0x00\n        /* \"#utility.yul\":1571:1577   */\n      dup2\n        /* \"#utility.yul\":1558:1578   */\n      calldataload\n        /* \"#utility.yul\":1549:1578   */\n      swap1\n      pop\n        /* \"#utility.yul\":1587:1620   */\n      tag_83\n        /* \"#utility.yul\":1614:1619   */\n      dup2\n        /* \"#utility.yul\":1587:1620   */\n      tag_41\n      jump\t// in\n    tag_83:\n        /* \"#utility.yul\":1487:1626   */\n      swap3\n      swap2\n      pop\n      pop\n      jump\t// out\n        /* \"#utility.yul\":1632:2306   */\n    tag_8:\n        /* \"#utility.yul\":1712:1718   */\n      0x00\n        /* \"#utility.yul\":1720:1726   */\n      dup1\n        /* \"#utility.yul\":1728:1734   */\n      0x00\n        /* \"#utility.yul\":1777:1779   */\n      0x40\n        /* \"#utility.yul\":1765:1774   */\n      dup5\n        /* \"#utility.yul\":1756:1763   */\n      dup7\n        /* \"#utility.yul\":1752:1775   */\n      sub\n        /* \"#utility.yul\":1748:1780   */\n      slt\n        /* \"#utility.yul\":1745:1864   */\n      iszero\n      tag_85\n      jumpi\n        /* \"#utility.yul\":1783:1862   */\n      tag_86\n      tag_34\n      jump\t// in\n    tag_86:\n        /* \"#utility.yul\":1745:1864   */\n    tag_85:\n        /* \"#utility.yul\":1931:1932   */\n      0x00\n        /* \"#utility.yul\":1920:1929   */\n      dup5\n        /* \"#utility.yul\":1916:1933   */\n      add\n        /* \"#utility.yul\":1903:1934   */\n      calldataload\n        /* \"#utility.yul\":1961:1979   */\n      0xffffffffffffffff\n        /* \"#utility.yul\":1953:1959   */\n      dup2\n        /* \"#utility.yul\":1950:1980   */\n      gt\n        /* \"#utility.yul\":1947:2064   */\n      iszero\n      tag_87\n      jumpi\n        /* \"#utility.yul\":1983:2062   */\n      tag_88\n      tag_35\n      jump\t// in\n    tag_88:\n        /* \"#utility.yul\":1947:2064   */\n    tag_87:\n        /* \"#utility.yul\":2096:2161   */\n      tag_89\n        /* \"#utility.yul\":2153:2160   */\n      dup7\n        /* \"#utility.yul\":2144:2150   */\n      dup3\n        /* \"#utility.yul\":2133:2142   */\n      dup8\n        /* \"#utility.yul\":2129:2151   */\n      add\n        /* \"#utility.yul\":2096:2161   */\n      tag_39\n      jump\t// in\n    tag_89:\n        /* \"#utility.yul\":2078:2161   */\n      swap4\n      pop\n      swap4\n      pop\n        /* \"#utility.yul\":1874:2171   */\n      pop\n        /* \"#utility.yul\":2210:2212   */\n      0x20\n        /* \"#utility.yul\":2236:2289   */\n      tag_90\n        /* \"#utility.yul\":2281:2288   */\n      dup7\n        /* \"#utility.yul\":2272:2278   */\n      dup3\n        /* \"#utility.yul\":2261:2270   */\n      dup8\n        /* \"#utility.yul\":2257:2279   */\n      add\n        /* \"#utility.yul\":2236:2289   */\n      tag_42\n      jump\t// in\n    tag_90:\n        /* \"#utility.yul\":2226:2289   */\n      swap2\n      pop\n        /* \"#utility.yul\":2181:2299   */\n      pop\n        /* \"#utility.yul\":1632:2306   */\n      swap3\n      pop\n      swap3\n      pop\n      swap3\n      jump\t// out\n        /* \"#utility.yul\":2312:2841   */\n    tag_12:\n        /* \"#utility.yul\":2383:2389   */\n      0x00\n        /* \"#utility.yul\":2391:2397   */\n      dup1\n        /* \"#utility.yul\":2440:2442   */\n      0x20\n        /* \"#utility.yul\":2428:2437   */\n      dup4\n        /* \"#utility.yul\":2419:2426   */\n      dup6\n        /* \"#utility.yul\":2415:2438   */\n      sub\n        /* \"#utility.yul\":2411:2443   */\n      slt\n        /* \"#utility.yul\":2408:2527   */\n      iszero\n      tag_92\n      jumpi\n        /* \"#utility.yul\":2446:2525   */\n      tag_93\n      tag_34\n      jump\t// in\n    tag_93:\n        /* \"#utility.yul\":2408:2527   */\n    tag_92:\n        /* \"#utility.yul\":2594:2595   */\n      0x00\n        /* \"#utility.yul\":2583:2592   */\n      dup4\n        /* \"#utility.yul\":2579:2596   */\n      add\n        /* \"#utility.yul\":2566:2597   */\n      calldataload\n        /* \"#utility.yul\":2624:2642   */\n      0xffffffffffffffff\n        /* \"#utility.yul\":2616:2622   */\n      dup2\n        /* \"#utility.yul\":2613:2643   */\n      gt\n        /* \"#utility.yul\":2610:2727   */\n      iszero\n      tag_94\n      jumpi\n        /* \"#utility.yul\":2646:2725   */\n      tag_95\n      tag_35\n      jump\t// in\n    tag_95:\n        /* \"#utility.yul\":2610:2727   */\n    tag_94:\n        /* \"#utility.yul\":2759:2824   */\n      tag_96\n        /* \"#utility.yul\":2816:2823   */\n      dup6\n        /* \"#utility.yul\":2807:2813   */\n      dup3\n        /* \"#utility.yul\":2796:2805   */\n      dup7\n        /* \"#utility.yul\":2792:2814   */\n      add\n        /* \"#utility.yul\":2759:2824   */\n      tag_39\n      jump\t// in\n    tag_96:\n        /* \"#utility.yul\":2741:2824   */\n      swap3\n      pop\n      swap3\n      pop\n        /* \"#utility.yul\":2537:2834   */\n      pop\n        /* \"#utility.yul\":2312:2841   */\n      swap3\n      pop\n      swap3\n      swap1\n      pop\n      jump\t// out\n        /* \"#utility.yul\":2847:2973   */\n    tag_43:\n        /* \"#utility.yul\":2884:2891   */\n      0x00\n        /* \"#utility.yul\":2924:2966   */\n      0xffffffffffffffffffffffffffffffffffffffff\n        /* \"#utility.yul\":2917:2922   */\n      dup3\n        /* \"#utility.yul\":2913:2967   */\n      and\n        /* \"#utility.yul\":2902:2967   */\n      swap1\n      pop\n        /* \"#utility.yul\":2847:2973   */\n      swap2\n      swap1\n      pop\n      jump\t// out\n        /* \"#utility.yul\":2979:3075   */\n    tag_44:\n        /* \"#utility.yul\":3016:3023   */\n      0x00\n        /* \"#utility.yul\":3045:3069   */\n      tag_99\n        /* \"#utility.yul\":3063:3068   */\n      dup3\n        /* \"#utility.yul\":3045:3069   */\n      tag_43\n      jump\t// in\n    tag_99:\n        /* \"#utility.yul\":3034:3069   */\n      swap1\n      pop\n        /* \"#utility.yul\":2979:3075   */\n      swap2\n      swap1\n      pop\n      jump\t// out\n        /* \"#utility.yul\":3081:3199   */\n    tag_45:\n        /* \"#utility.yul\":3168:3192   */\n      tag_101\n        /* \"#utility.yul\":3186:3191   */\n      dup2\n        /* \"#utility.yul\":3168:3192   */\n      tag_44\n      jump\t// in\n    tag_101:\n        /* \"#utility.yul\":3163:3166   */\n      dup3\n        /* \"#utility.yul\":3156:3193   */\n      mstore\n        /* \"#utility.yul\":3081:3199   */\n      pop\n      pop\n      jump\t// out\n        /* \"#utility.yul\":3205:3427   */\n    tag_15:\n        /* \"#utility.yul\":3298:3302   */\n      0x00\n        /* \"#utility.yul\":3336:3338   */\n      0x20\n        /* \"#utility.yul\":3325:3334   */\n      dup3\n        /* \"#utility.yul\":3321:3339   */\n      add\n        /* \"#utility.yul\":3313:3339   */\n      swap1\n      pop\n        /* \"#utility.yul\":3349:3420   */\n      tag_103\n        /* \"#utility.yul\":3417:3418   */\n      0x00\n        /* \"#utility.yul\":3406:3415   */\n      dup4\n        /* \"#utility.yul\":3402:3419   */\n      add\n        /* \"#utility.yul\":3393:3399   */\n      dup5\n        /* \"#utility.yul\":3349:3420   */\n      tag_45\n      jump\t// in\n    tag_103:\n        /* \"#utility.yul\":3205:3427   */\n      swap3\n      swap2\n      pop\n      pop\n      jump\t// out\n        /* \"#utility.yul\":3433:3550   */\n    tag_46:\n        /* \"#utility.yul\":3542:3543   */\n      0x00\n        /* \"#utility.yul\":3539:3540   */\n      dup1\n        /* \"#utility.yul\":3532:3544   */\n      revert\n        /* \"#utility.yul\":3556:3658   */\n    tag_47:\n        /* \"#utility.yul\":3597:3603   */\n      0x00\n        /* \"#utility.yul\":3648:3650   */\n      0x1f\n        /* \"#utility.yul\":3644:3651   */\n      not\n        /* \"#utility.yul\":3639:3641   */\n      0x1f\n        /* \"#utility.yul\":3632:3637   */\n      dup4\n        /* \"#utility.yul\":3628:3642   */\n      add\n        /* \"#utility.yul\":3624:3652   */\n      and\n        /* \"#utility.yul\":3614:3652   */\n      swap1\n      pop\n        /* \"#utility.yul\":3556:3658   */\n      swap2\n      swap1\n      pop\n      jump\t// out\n        /* \"#utility.yul\":3664:3844   */\n    tag_48:\n        /* \"#utility.yul\":3712:3789   */\n      0x4e487b7100000000000000000000000000000000000000000000000000000000\n        /* \"#utility.yul\":3709:3710   */\n      0x00\n        /* \"#utility.yul\":3702:3790   */\n      mstore\n        /* \"#utility.yul\":3809:3813   */\n      0x41\n        /* \"#utility.yul\":3806:3807   */\n      0x04\n        /* \"#utility.yul\":3799:3814   */\n      mstore\n        /* \"#utility.yul\":3833:3837   */\n      0x24\n        /* \"#utility.yul\":3830:3831   */\n      0x00\n        /* \"#utility.yul\":3823:3838   */\n      revert\n        /* \"#utility.yul\":3850:4131   */\n    tag_49:\n        /* \"#utility.yul\":3933:3960   */\n      tag_108\n        /* \"#utility.yul\":3955:3959   */\n      dup3\n        /* \"#utility.yul\":3933:3960   */\n      tag_47\n      jump\t// in\n    tag_108:\n        /* \"#utility.yul\":3925:3931   */\n      dup2\n        /* \"#utility.yul\":3921:3961   */\n      add\n        /* \"#utility.yul\":4063:4069   */\n      dup2\n        /* \"#utility.yul\":4051:4061   */\n      dup2\n        /* \"#utility.yul\":4048:4070   */\n      lt\n        /* \"#utility.yul\":4027:4045   */\n      0xffffffffffffffff\n        /* \"#utility.yul\":4015:4025   */\n      dup3\n        /* \"#utility.yul\":4012:4046   */\n      gt\n        /* \"#utility.yul\":4009:4071   */\n      or\n        /* \"#utility.yul\":4006:4094   */\n      iszero\n      tag_109\n      jumpi\n        /* \"#utility.yul\":4074:4092   */\n      tag_110\n      tag_48\n      jump\t// in\n    tag_110:\n        /* \"#utility.yul\":4006:4094   */\n    tag_109:\n        /* \"#utility.yul\":4114:4124   */\n      dup1\n        /* \"#utility.yul\":4110:4112   */\n      0x40\n        /* \"#utility.yul\":4103:4125   */\n      mstore\n        /* \"#utility.yul\":3893:4131   */\n      pop\n        /* \"#utility.yul\":3850:4131   */\n      pop\n      pop\n      jump\t// out\n        /* \"#utility.yul\":4137:4266   */\n    tag_50:\n        /* \"#utility.yul\":4171:4177   */\n      0x00\n        /* \"#utility.yul\":4198:4218   */\n      tag_112\n      tag_33\n      jump\t// in\n    tag_112:\n        /* \"#utility.yul\":4188:4218   */\n      swap1\n      pop\n        /* \"#utility.yul\":4227:4260   */\n      tag_113\n        /* \"#utility.yul\":4255:4259   */\n      dup3\n        /* \"#utility.yul\":4247:4253   */\n      dup3\n        /* \"#utility.yul\":4227:4260   */\n      tag_49\n      jump\t// in\n    tag_113:\n        /* \"#utility.yul\":4137:4266   */\n      swap2\n      swap1\n      pop\n      jump\t// out\n        /* \"#utility.yul\":4272:4580   */\n    tag_51:\n        /* \"#utility.yul\":4334:4338   */\n      0x00\n        /* \"#utility.yul\":4424:4442   */\n      0xffffffffffffffff\n        /* \"#utility.yul\":4416:4422   */\n      dup3\n        /* \"#utility.yul\":4413:4443   */\n      gt\n        /* \"#utility.yul\":4410:4466   */\n      iszero\n      tag_115\n      jumpi\n        /* \"#utility.yul\":4446:4464   */\n      tag_116\n      tag_48\n      jump\t// in\n    tag_116:\n        /* \"#utility.yul\":4410:4466   */\n    tag_115:\n        /* \"#utility.yul\":4484:4513   */\n      tag_117\n        /* \"#utility.yul\":4506:4512   */\n      dup3\n        /* \"#utility.yul\":4484:4513   */\n      tag_47\n      jump\t// in\n    tag_117:\n        /* \"#utility.yul\":4476:4513   */\n      swap1\n      pop\n        /* \"#utility.yul\":4568:4572   */\n      0x20\n        /* \"#utility.yul\":4562:4566   */\n      dup2\n        /* \"#utility.yul\":4558:4573   */\n      add\n        /* \"#utility.yul\":4550:4573   */\n      swap1\n      pop\n        /* \"#utility.yul\":4272:4580   */\n      swap2\n      swap1\n      pop\n      jump\t// out\n        /* \"#utility.yul\":4586:4734   */\n    tag_52:\n        /* \"#utility.yul\":4684:4690   */\n      dup3\n        /* \"#utility.yul\":4679:4682   */\n      dup2\n        /* \"#utility.yul\":4674:4677   */\n      dup4\n        /* \"#utility.yul\":4661:4691   */\n      calldatacopy\n        /* \"#utility.yul\":4725:4726   */\n      0x00\n        /* \"#utility.yul\":4716:4722   */\n      dup4\n        /* \"#utility.yul\":4711:4714   */\n      dup4\n        /* \"#utility.yul\":4707:4723   */\n      add\n        /* \"#utility.yul\":4700:4727   */\n      mstore\n        /* \"#utility.yul\":4586:4734   */\n      pop\n      pop\n      pop\n      jump\t// out\n        /* \"#utility.yul\":4740:5165   */\n    tag_53:\n        /* \"#utility.yul\":4818:4823   */\n      0x00\n        /* \"#utility.yul\":4843:4909   */\n      tag_120\n        /* \"#utility.yul\":4859:4908   */\n      tag_121\n        /* \"#utility.yul\":4901:4907   */\n      dup5\n        /* \"#utility.yul\":4859:4908   */\n      tag_51\n      jump\t// in\n    tag_121:\n        /* \"#utility.yul\":4843:4909   */\n      tag_50\n      jump\t// in\n    tag_120:\n        /* \"#utility.yul\":4834:4909   */\n      swap1\n      pop\n        /* \"#utility.yul\":4932:4938   */\n      dup3\n        /* \"#utility.yul\":4925:4930   */\n      dup2\n        /* \"#utility.yul\":4918:4939   */\n      mstore\n        /* \"#utility.yul\":4970:4974   */\n      0x20\n        /* \"#utility.yul\":4963:4968   */\n      dup2\n        /* \"#utility.yul\":4959:4975   */\n      add\n        /* \"#utility.yul\":5008:5011   */\n      dup5\n        /* \"#utility.yul\":4999:5005   */\n      dup5\n        /* \"#utility.yul\":4994:4997   */\n      dup5\n        /* \"#utility.yul\":4990:5006   */\n      add\n        /* \"#utility.yul\":4987:5012   */\n      gt\n        /* \"#utility.yul\":4984:5096   */\n      iszero\n      tag_122\n      jumpi\n        /* \"#utility.yul\":5015:5094   */\n      tag_123\n      tag_46\n      jump\t// in\n    tag_123:\n        /* \"#utility.yul\":4984:5096   */\n    tag_122:\n        /* \"#utility.yul\":5105:5159   */\n      tag_124\n        /* \"#utility.yul\":5152:5158   */\n      dup5\n        /* \"#utility.yul\":5147:5150   */\n      dup3\n        /* \"#utility.yul\":5142:5145   */\n      dup6\n        /* \"#utility.yul\":5105:5159   */\n      tag_52\n      jump\t// in\n    tag_124:\n        /* \"#utility.yul\":4824:5165   */\n      pop\n        /* \"#utility.yul\":4740:5165   */\n      swap4\n      swap3\n      pop\n      pop\n      pop\n      jump\t// out\n        /* \"#utility.yul\":5185:5525   */\n    tag_54:\n        /* \"#utility.yul\":5241:5246   */\n      0x00\n        /* \"#utility.yul\":5290:5293   */\n      dup3\n        /* \"#utility.yul\":5283:5287   */\n      0x1f\n        /* \"#utility.yul\":5275:5281   */\n      dup4\n        /* \"#utility.yul\":5271:5288   */\n      add\n        /* \"#utility.yul\":5267:5294   */\n      slt\n        /* \"#utility.yul\":5257:5379   */\n      tag_126\n      jumpi\n        /* \"#utility.yul\":5298:5377   */\n      tag_127\n      tag_36\n      jump\t// in\n    tag_127:\n        /* \"#utility.yul\":5257:5379   */\n    tag_126:\n        /* \"#utility.yul\":5415:5421   */\n      dup2\n        /* \"#utility.yul\":5402:5422   */\n      calldataload\n        /* \"#utility.yul\":5440:5519   */\n      tag_128\n        /* \"#utility.yul\":5515:5518   */\n      dup5\n        /* \"#utility.yul\":5507:5513   */\n      dup3\n        /* \"#utility.yul\":5500:5504   */\n      0x20\n        /* \"#utility.yul\":5492:5498   */\n      dup7\n        /* \"#utility.yul\":5488:5505   */\n      add\n        /* \"#utility.yul\":5440:5519   */\n      tag_53\n      jump\t// in\n    tag_128:\n        /* \"#utility.yul\":5431:5519   */\n      swap2\n      pop\n        /* \"#utility.yul\":5247:5525   */\n      pop\n        /* \"#utility.yul\":5185:5525   */\n      swap3\n      swap2\n      pop\n      pop\n      jump\t// out\n        /* \"#utility.yul\":5531:6040   */\n    tag_18:\n        /* \"#utility.yul\":5600:5606   */\n      0x00\n        /* \"#utility.yul\":5649:5651   */\n      0x20\n        /* \"#utility.yul\":5637:5646   */\n      dup3\n        /* \"#utility.yul\":5628:5635   */\n      dup5\n        /* \"#utility.yul\":5624:5647   */\n      sub\n        /* \"#utility.yul\":5620:5652   */\n      slt\n        /* \"#utility.yul\":5617:5736   */\n      iszero\n      tag_130\n      jumpi\n        /* \"#utility.yul\":5655:5734   */\n      tag_131\n      tag_34\n      jump\t// in\n    tag_131:\n        /* \"#utility.yul\":5617:5736   */\n    tag_130:\n        /* \"#utility.yul\":5803:5804   */\n      0x00\n        /* \"#utility.yul\":5792:5801   */\n      dup3\n        /* \"#utility.yul\":5788:5805   */\n      add\n        /* \"#utility.yul\":5775:5806   */\n      calldataload\n        /* \"#utility.yul\":5833:5851   */\n      0xffffffffffffffff\n        /* \"#utility.yul\":5825:5831   */\n      dup2\n        /* \"#utility.yul\":5822:5852   */\n      gt\n        /* \"#utility.yul\":5819:5936   */\n      iszero\n      tag_132\n      jumpi\n        /* \"#utility.yul\":5855:5934   */\n      tag_133\n      tag_35\n      jump\t// in\n    tag_133:\n        /* \"#utility.yul\":5819:5936   */\n    tag_132:\n        /* \"#utility.yul\":5960:6023   */\n      tag_134\n        /* \"#utility.yul\":6015:6022   */\n      dup5\n        /* \"#utility.yul\":6006:6012   */\n      dup3\n        /* \"#utility.yul\":5995:6004   */\n      dup6\n        /* \"#utility.yul\":5991:6013   */\n      add\n        /* \"#utility.yul\":5960:6023   */\n      tag_54\n      jump\t// in\n    tag_134:\n        /* \"#utility.yul\":5950:6023   */\n      swap2\n      pop\n        /* \"#utility.yul\":5746:6033   */\n      pop\n        /* \"#utility.yul\":5531:6040   */\n      swap3\n      swap2\n      pop\n      pop\n      jump\t// out\n        /* \"#utility.yul\":6046:6164   */\n    tag_55:\n        /* \"#utility.yul\":6133:6157   */\n      tag_136\n        /* \"#utility.yul\":6151:6156   */\n      dup2\n        /* \"#utility.yul\":6133:6157   */\n      tag_40\n      jump\t// in\n    tag_136:\n        /* \"#utility.yul\":6128:6131   */\n      dup3\n        /* \"#utility.yul\":6121:6158   */\n      mstore\n        /* \"#utility.yul\":6046:6164   */\n      pop\n      pop\n      jump\t// out\n        /* \"#utility.yul\":6170:6502   */\n    tag_21:\n        /* \"#utility.yul\":6291:6295   */\n      0x00\n        /* \"#utility.yul\":6329:6331   */\n      0x40\n        /* \"#utility.yul\":6318:6327   */\n      dup3\n        /* \"#utility.yul\":6314:6332   */\n      add\n        /* \"#utility.yul\":6306:6332   */\n      swap1\n      pop\n        /* \"#utility.yul\":6342:6413   */\n      tag_138\n        /* \"#utility.yul\":6410:6411   */\n      0x00\n        /* \"#utility.yul\":6399:6408   */\n      dup4\n        /* \"#utility.yul\":6395:6412   */\n      add\n        /* \"#utility.yul\":6386:6392   */\n      dup6\n        /* \"#utility.yul\":6342:6413   */\n      tag_45\n      jump\t// in\n    tag_138:\n        /* \"#utility.yul\":6423:6495   */\n      tag_139\n        /* \"#utility.yul\":6491:6493   */\n      0x20\n        /* \"#utility.yul\":6480:6489   */\n      dup4\n        /* \"#utility.yul\":6476:6494   */\n      add\n        /* \"#utility.yul\":6467:6473   */\n      dup5\n        /* \"#utility.yul\":6423:6495   */\n      tag_55\n      jump\t// in\n    tag_139:\n        /* \"#utility.yul\":6170:6502   */\n      swap4\n      swap3\n      pop\n      pop\n      pop\n      jump\t// out\n        /* \"#utility.yul\":6508:6688   */\n    tag_56:\n        /* \"#utility.yul\":6556:6633   */\n      0x4e487b7100000000000000000000000000000000000000000000000000000000\n        /* \"#utility.yul\":6553:6554   */\n      0x00\n        /* \"#utility.yul\":6546:6634   */\n      mstore\n        /* \"#utility.yul\":6653:6657   */\n      0x11\n        /* \"#utility.yul\":6650:6651   */\n      0x04\n        /* \"#utility.yul\":6643:6658   */\n      mstore\n        /* \"#utility.yul\":6677:6681   */\n      0x24\n        /* \"#utility.yul\":6674:6675   */\n      0x00\n        /* \"#utility.yul\":6667:6682   */\n      revert\n        /* \"#utility.yul\":6694:6885   */\n    tag_24:\n        /* \"#utility.yul\":6734:6737   */\n      0x00\n        /* \"#utility.yul\":6753:6773   */\n      tag_142\n        /* \"#utility.yul\":6771:6772   */\n      dup3\n        /* \"#utility.yul\":6753:6773   */\n      tag_40\n      jump\t// in\n    tag_142:\n        /* \"#utility.yul\":6748:6773   */\n      swap2\n      pop\n        /* \"#utility.yul\":6787:6807   */\n      tag_143\n        /* \"#utility.yul\":6805:6806   */\n      dup4\n        /* \"#utility.yul\":6787:6807   */\n      tag_40\n      jump\t// in\n    tag_143:\n        /* \"#utility.yul\":6782:6807   */\n      swap3\n      pop\n        /* \"#utility.yul\":6830:6831   */\n      dup3\n        /* \"#utility.yul\":6827:6828   */\n      dup3\n        /* \"#utility.yul\":6823:6832   */\n      add\n        /* \"#utility.yul\":6816:6832   */\n      swap1\n      pop\n        /* \"#utility.yul\":6851:6854   */\n      dup1\n        /* \"#utility.yul\":6848:6849   */\n      dup3\n        /* \"#utility.yul\":6845:6855   */\n      gt\n        /* \"#utility.yul\":6842:6878   */\n      iszero\n      tag_144\n      jumpi\n        /* \"#utility.yul\":6858:6876   */\n      tag_145\n      tag_56\n      jump\t// in\n    tag_145:\n        /* \"#utility.yul\":6842:6878   */\n    tag_144:\n        /* \"#utility.yul\":6694:6885   */\n      swap3\n      swap2\n      pop\n      pop\n      jump\t// out\n        /* \"#utility.yul\":6891:7039   */\n    tag_57:\n        /* \"#utility.yul\":6993:7004   */\n      0x00\n        /* \"#utility.yul\":7030:7033   */\n      dup2\n        /* \"#utility.yul\":7015:7033   */\n      swap1\n      pop\n        /* \"#utility.yul\":6891:7039   */\n      swap3\n      swap2\n      pop\n      pop\n      jump\t// out\n        /* \"#utility.yul\":7069:7399   */\n    tag_58:\n        /* \"#utility.yul\":7185:7188   */\n      0x00\n        /* \"#utility.yul\":7206:7295   */\n      tag_148\n        /* \"#utility.yul\":7288:7294   */\n      dup4\n        /* \"#utility.yul\":7283:7286   */\n      dup6\n        /* \"#utility.yul\":7206:7295   */\n      tag_57\n      jump\t// in\n    tag_148:\n        /* \"#utility.yul\":7199:7295   */\n      swap4\n      pop\n        /* \"#utility.yul\":7305:7361   */\n      tag_149\n        /* \"#utility.yul\":7354:7360   */\n      dup4\n        /* \"#utility.yul\":7349:7352   */\n      dup6\n        /* \"#utility.yul\":7342:7347   */\n      dup5\n        /* \"#utility.yul\":7305:7361   */\n      tag_52\n      jump\t// in\n    tag_149:\n        /* \"#utility.yul\":7386:7392   */\n      dup3\n        /* \"#utility.yul\":7381:7384   */\n      dup5\n        /* \"#utility.yul\":7377:7393   */\n      add\n        /* \"#utility.yul\":7370:7393   */\n      swap1\n      pop\n        /* \"#utility.yul\":7069:7399   */\n      swap4\n      swap3\n      pop\n      pop\n      pop\n      jump\t// out\n        /* \"#utility.yul\":7405:7700   */\n    tag_26:\n        /* \"#utility.yul\":7547:7550   */\n      0x00\n        /* \"#utility.yul\":7569:7674   */\n      tag_151\n        /* \"#utility.yul\":7670:7673   */\n      dup3\n        /* \"#utility.yul\":7661:7667   */\n      dup5\n        /* \"#utility.yul\":7653:7659   */\n      dup7\n        /* \"#utility.yul\":7569:7674   */\n      tag_58\n      jump\t// in\n    tag_151:\n        /* \"#utility.yul\":7562:7674   */\n      swap2\n      pop\n        /* \"#utility.yul\":7691:7694   */\n      dup2\n        /* \"#utility.yul\":7684:7694   */\n      swap1\n      pop\n        /* \"#utility.yul\":7405:7700   */\n      swap4\n      swap3\n      pop\n      pop\n      pop\n      jump\t// out\n        /* \"#utility.yul\":7706:7886   */\n    tag_59:\n        /* \"#utility.yul\":7754:7831   */\n      0x4e487b7100000000000000000000000000000000000000000000000000000000\n        /* \"#utility.yul\":7751:7752   */\n      0x00\n        /* \"#utility.yul\":7744:7832   */\n      mstore\n        /* \"#utility.yul\":7851:7855   */\n      0x21\n        /* \"#utility.yul\":7848:7849   */\n      0x04\n        /* \"#utility.yul\":7841:7856   */\n      mstore\n        /* \"#utility.yul\":7875:7879   */\n      0x24\n        /* \"#utility.yul\":7872:7873   */\n      0x00\n        /* \"#utility.yul\":7865:7880   */\n      revert\n        /* \"#utility.yul\":7892:8022   */\n    tag_60:\n        /* \"#utility.yul\":7990:7991   */\n      0x04\n        /* \"#utility.yul\":7983:7988   */\n      dup2\n        /* \"#utility.yul\":7980:7992   */\n      lt\n        /* \"#utility.yul\":7970:8016   */\n      tag_154\n      jumpi\n        /* \"#utility.yul\":7996:8014   */\n      tag_155\n      tag_59\n      jump\t// in\n    tag_155:\n        /* \"#utility.yul\":7970:8016   */\n    tag_154:\n        /* \"#utility.yul\":7892:8022   */\n      pop\n      jump\t// out\n        /* \"#utility.yul\":8028:8189   */\n    tag_61:\n        /* \"#utility.yul\":8090:8097   */\n      0x00\n        /* \"#utility.yul\":8119:8124   */\n      dup2\n        /* \"#utility.yul\":8108:8124   */\n      swap1\n      pop\n        /* \"#utility.yul\":8125:8183   */\n      tag_157\n        /* \"#utility.yul\":8177:8182   */\n      dup3\n        /* \"#utility.yul\":8125:8183   */\n      tag_60\n      jump\t// in\n    tag_157:\n        /* \"#utility.yul\":8028:8189   */\n      swap2\n      swap1\n      pop\n      jump\t// out\n        /* \"#utility.yul\":8195:8356   */\n    tag_62:\n        /* \"#utility.yul\":8268:8277   */\n      0x00\n        /* \"#utility.yul\":8301:8350   */\n      tag_159\n        /* \"#utility.yul\":8344:8349   */\n      dup3\n        /* \"#utility.yul\":8301:8350   */\n      tag_61\n      jump\t// in\n    tag_159:\n        /* \"#utility.yul\":8288:8350   */\n      swap1\n      pop\n        /* \"#utility.yul\":8195:8356   */\n      swap2\n      swap1\n      pop\n      jump\t// out\n        /* \"#utility.yul\":8362:8539   */\n    tag_63:\n        /* \"#utility.yul\":8472:8532   */\n      tag_161\n        /* \"#utility.yul\":8526:8531   */\n      dup2\n        /* \"#utility.yul\":8472:8532   */\n      tag_62\n      jump\t// in\n    tag_161:\n        /* \"#utility.yul\":8467:8470   */\n      dup3\n        /* \"#utility.yul\":8460:8533   */\n      mstore\n        /* \"#utility.yul\":8362:8539   */\n      pop\n      pop\n      jump\t// out\n        /* \"#utility.yul\":8545:8813   */\n    tag_29:\n        /* \"#utility.yul\":8661:8665   */\n      0x00\n        /* \"#utility.yul\":8699:8701   */\n      0x20\n        /* \"#utility.yul\":8688:8697   */\n      dup3\n        /* \"#utility.yul\":8684:8702   */\n      add\n        /* \"#utility.yul\":8676:8702   */\n      swap1\n      pop\n        /* \"#utility.yul\":8712:8806   */\n      tag_163\n        /* \"#utility.yul\":8803:8804   */\n      0x00\n        /* \"#utility.yul\":8792:8801   */\n      dup4\n        /* \"#utility.yul\":8788:8805   */\n      add\n        /* \"#utility.yul\":8779:8785   */\n      dup5\n        /* \"#utility.yul\":8712:8806   */\n      tag_63\n      jump\t// in\n    tag_163:\n        /* \"#utility.yul\":8545:8813   */\n      swap3\n      swap2\n      pop\n      pop\n      jump\t// out\n\n    auxdata: 0xa26469706673582212209c4300bf49bda44f58e5f4f7e6ad287c151b1a6c1e080048b675fdc66bad1a5764736f6c634300081a0033\n}\n",
				"bytecode": {
					"linkReferences": {},
					"object": "6080604052348015600e575f80fd5b506107c18061001c5f395ff3fe608060405234801561000f575f80fd5b506004361061003f575f3560e01c806323b07bff146100435780637c2619291461005f57806394ac17391461008f575b5f80fd5b61005d600480360381019061005891906103a4565b6100c0565b005b61007960048036038101906100749190610401565b6101d2565b604051610086919061048b565b60405180910390f35b6100a960048036038101906100a491906105dc565b6102a9565b6040516100b7929190610632565b60405180910390f35b60405180604001604052803373ffffffffffffffffffffffffffffffffffffffff16815260200182426100f39190610686565b8152505f84846040516101079291906106e7565b90815260200160405180910390205f820151815f015f6101000a81548173ffffffffffffffffffffffffffffffffffffffff021916908373ffffffffffffffffffffffffffffffffffffffff160217905550602082015181600101559050503373ffffffffffffffffffffffffffffffffffffffff16838360405161018d9291906106e7565b60405180910390207f4d6becea700c444e6bf1369d20e2a71ad2bf2cd21e911486b32e7d4af98d332f60036040516101c59190610772565b60405180910390a3505050565b5f805f84846040516101e59291906106e7565b90815260200160405180910390206040518060400160405290815f82015f9054906101000a900473ffffffffffffffffffffffffffffffffffffffff1673ffffffffffffffffffffffffffffffffffffffff1673ffffffffffffffffffffffffffffffffffffffff1681526020016001820154815250509050806020015142111561029c576040517f56f901d500000000000000000000000000000000000000000000000000000000815260040160405180910390fd5b805f015191505092915050565b5f818051602081018201805184825260208301602085012081835280955050505050505f91509050805f015f9054906101000a900473ffffffffffffffffffffffffffffffffffffffff16908060010154905082565b5f604051905090565b5f80fd5b5f80fd5b5f80fd5b5f80fd5b5f80fd5b5f8083601f84011261033157610330610310565b5b8235905067ffffffffffffffff81111561034e5761034d610314565b5b60208301915083600182028301111561036a57610369610318565b5b9250929050565b5f819050919050565b61038381610371565b811461038d575f80fd5b50565b5f8135905061039e8161037a565b92915050565b5f805f604084860312156103bb576103ba610308565b5b5f84013567ffffffffffffffff8111156103d8576103d761030c565b5b6103e48682870161031c565b935093505060206103f786828701610390565b9150509250925092565b5f806020838503121561041757610416610308565b5b5f83013567ffffffffffffffff8111156104345761043361030c565b5b6104408582860161031c565b92509250509250929050565b5f73ffffffffffffffffffffffffffffffffffffffff82169050919050565b5f6104758261044c565b9050919050565b6104858161046b565b82525050565b5f60208201905061049e5f83018461047c565b92915050565b5f80fd5b5f601f19601f8301169050919050565b7f4e487b71000000000000000000000000000000000000000000000000000000005f52604160045260245ffd5b6104ee826104a8565b810181811067ffffffffffffffff8211171561050d5761050c6104b8565b5b80604052505050565b5f61051f6102ff565b905061052b82826104e5565b919050565b5f67ffffffffffffffff82111561054a576105496104b8565b5b610553826104a8565b9050602081019050919050565b828183375f83830152505050565b5f61058061057b84610530565b610516565b90508281526020810184848401111561059c5761059b6104a4565b5b6105a7848285610560565b509392505050565b5f82601f8301126105c3576105c2610310565b5b81356105d384826020860161056e565b91505092915050565b5f602082840312156105f1576105f0610308565b5b5f82013567ffffffffffffffff81111561060e5761060d61030c565b5b61061a848285016105af565b91505092915050565b61062c81610371565b82525050565b5f6040820190506106455f83018561047c565b6106526020830184610623565b9392505050565b7f4e487b71000000000000000000000000000000000000000000000000000000005f52601160045260245ffd5b5f61069082610371565b915061069b83610371565b92508282019050808211156106b3576106b2610659565b5b92915050565b5f81905092915050565b5f6106ce83856106b9565b93506106db838584610560565b82840190509392505050565b5f6106f38284866106c3565b91508190509392505050565b7f4e487b71000000000000000000000000000000000000000000000000000000005f52602160045260245ffd5b6004811061073d5761073c6106ff565b5b50565b5f81905061074d8261072c565b919050565b5f61075c82610740565b9050919050565b61076c81610752565b82525050565b5f6020820190506107855f830184610763565b9291505056fea26469706673582212209c4300bf49bda44f58e5f4f7e6ad287c151b1a6c1e080048b675fdc66bad1a5764736f6c634300081a0033",
					"opcodes": "PUSH1 0x80 PUSH1 0x40 MSTORE CALLVALUE DUP1 ISZERO PUSH1 0xE JUMPI PUSH0 DUP1 REVERT JUMPDEST POP PUSH2 0x7C1 DUP1 PUSH2 0x1C PUSH0 CODECOPY PUSH0 RETURN INVALID PUSH1 0x80 PUSH1 0x40 MSTORE CALLVALUE DUP1 ISZERO PUSH2 0xF JUMPI PUSH0 DUP1 REVERT JUMPDEST POP PUSH1 0x4 CALLDATASIZE LT PUSH2 0x3F JUMPI PUSH0 CALLDATALOAD PUSH1 0xE0 SHR DUP1 PUSH4 0x23B07BFF EQ PUSH2 0x43 JUMPI DUP1 PUSH4 0x7C261929 EQ PUSH2 0x5F JUMPI DUP1 PUSH4 0x94AC1739 EQ PUSH2 0x8F JUMPI JUMPDEST PUSH0 DUP1 REVERT JUMPDEST PUSH2 0x5D PUSH1 0x4 DUP1 CALLDATASIZE SUB DUP2 ADD SWAP1 PUSH2 0x58 SWAP2 SWAP1 PUSH2 0x3A4 JUMP JUMPDEST PUSH2 0xC0 JUMP JUMPDEST STOP JUMPDEST PUSH2 0x79 PUSH1 0x4 DUP1 CALLDATASIZE SUB DUP2 ADD SWAP1 PUSH2 0x74 SWAP2 SWAP1 PUSH2 0x401 JUMP JUMPDEST PUSH2 0x1D2 JUMP JUMPDEST PUSH1 0x40 MLOAD PUSH2 0x86 SWAP2 SWAP1 PUSH2 0x48B JUMP JUMPDEST PUSH1 0x40 MLOAD DUP1 SWAP2 SUB SWAP1 RETURN JUMPDEST PUSH2 0xA9 PUSH1 0x4 DUP1 CALLDATASIZE SUB DUP2 ADD SWAP1 PUSH2 0xA4 SWAP2 SWAP1 PUSH2 0x5DC JUMP JUMPDEST PUSH2 0x2A9 JUMP JUMPDEST PUSH1 0x40 MLOAD PUSH2 0xB7 SWAP3 SWAP2 SWAP1 PUSH2 0x632 JUMP JUMPDEST PUSH1 0x40 MLOAD DUP1 SWAP2 SUB SWAP1 RETURN JUMPDEST PUSH1 0x40 MLOAD DUP1 PUSH1 0x40 ADD PUSH1 0x40 MSTORE DUP1 CALLER PUSH20 0xFFFFFFFFFFFFFFFFFFFFFFFFFFFFFFFFFFFFFFFF AND DUP2 MSTORE PUSH1 0x20 ADD DUP3 TIMESTAMP PUSH2 0xF3 SWAP2 SWAP1 PUSH2 0x686 JUMP JUMPDEST DUP2 MSTORE POP PUSH0 DUP5 DUP5 PUSH1 0x40 MLOAD PUSH2 0x107 SWAP3 SWAP2 SWAP1 PUSH2 0x6E7 JUMP JUMPDEST SWAP1 DUP2 MSTORE PUSH1 0x20 ADD PUSH1 0x40 MLOAD DUP1 SWAP2 SUB SWAP1 KECCAK256 PUSH0 DUP3 ADD MLOAD DUP2 PUSH0 ADD PUSH0 PUSH2 0x100 EXP DUP2 SLOAD DUP2 PUSH20 0xFFFFFFFFFFFFFFFFFFFFFFFFFFFFFFFFFFFFFFFF MUL NOT AND SWAP1 DUP4 PUSH20 0xFFFFFFFFFFFFFFFFFFFFFFFFFFFFFFFFFFFFFFFF AND MUL OR SWAP1 SSTORE POP PUSH1 0x20 DUP3 ADD MLOAD DUP2 PUSH1 0x1 ADD SSTORE SWAP1 POP POP CALLER PUSH20 0xFFFFFFFFFFFFFFFFFFFFFFFFFFFFFFFFFFFFFFFF AND DUP4 DUP4 PUSH1 0x40 MLOAD PUSH2 0x18D SWAP3 SWAP2 SWAP1 PUSH2 0x6E7 JUMP JUMPDEST PUSH1 0x40 MLOAD DUP1 SWAP2 SUB SWAP1 KECCAK256 PUSH32 0x4D6BECEA700C444E6BF1369D20E2A71AD2BF2CD21E911486B32E7D4AF98D332F PUSH1 0x3 PUSH1 0x40 MLOAD PUSH2 0x1C5 SWAP2 SWAP1 PUSH2 0x772 JUMP JUMPDEST PUSH1 0x40 MLOAD DUP1 SWAP2 SUB SWAP1 LOG3 POP POP POP JUMP JUMPDEST PUSH0 DUP1 PUSH0 DUP5 DUP5 PUSH1 0x40 MLOAD PUSH2 0x1E5 SWAP3 SWAP2 SWAP1 PUSH2 0x6E7 JUMP JUMPDEST SWAP1 DUP2 MSTORE PUSH1 0x20 ADD PUSH1 0x40 MLOAD DUP1 SWAP2 SUB SWAP1 KECCAK256 PUSH1 0x40 MLOAD DUP1 PUSH1 0x40 ADD PUSH1 0x40 MSTORE SWAP1 DUP2 PUSH0 DUP3 ADD PUSH0 SWAP1 SLOAD SWAP1 PUSH2 0x100 EXP SWAP1 DIV PUSH20 0xFFFFFFFFFFFFFFFFFFFFFFFFFFFFFFFFFFFFFFFF AND PUSH20 0xFFFFFFFFFFFFFFFFFFFFFFFFFFFFFFFFFFFFFFFF AND PUSH20 0xFFFFFFFFFFFFFFFFFFFFFFFFFFFFFFFFFFFFFFFF AND DUP2 MSTORE PUSH1 0x20 ADD PUSH1 0x1 DUP3 ADD SLOAD DUP2 MSTORE POP POP SWAP1 POP DUP1 PUSH1 0x20 ADD MLOAD TIMESTAMP GT ISZERO PUSH2 0x29C JUMPI PUSH1 0x40 MLOAD PUSH32 0x56F901D500000000000000000000000000000000000000000000000000000000 DUP2 MSTORE PUSH1 0x4 ADD PUSH1 0x40 MLOAD DUP1 SWAP2 SUB SWAP1 REVERT JUMPDEST DUP1 PUSH0 ADD MLOAD SWAP2 POP POP SWAP3 SWAP2 POP POP JUMP JUMPDEST PUSH0 DUP2 DUP1 MLOAD PUSH1 0x20 DUP2 ADD DUP3 ADD DUP1 MLOAD DUP5 DUP3 MSTORE PUSH1 0x20 DUP4 ADD PUSH1 0x20 DUP6 ADD KECCAK256 DUP2 DUP4 MSTORE DUP1 SWAP6 POP POP POP POP POP POP PUSH0 SWAP2 POP SWAP1 POP DUP1 PUSH0 ADD PUSH0 SWAP1 SLOAD SWAP1 PUSH2 0x100 EXP SWAP1 DIV PUSH20 0xFFFFFFFFFFFFFFFFFFFFFFFFFFFFFFFFFFFFFFFF AND SWAP1 DUP1 PUSH1 0x1 ADD SLOAD SWAP1 POP DUP3 JUMP JUMPDEST PUSH0 PUSH1 0x40 MLOAD SWAP1 POP SWAP1 JUMP JUMPDEST PUSH0 DUP1 REVERT JUMPDEST PUSH0 DUP1 REVERT JUMPDEST PUSH0 DUP1 REVERT JUMPDEST PUSH0 DUP1 REVERT JUMPDEST PUSH0 DUP1 REVERT JUMPDEST PUSH0 DUP1 DUP4 PUSH1 0x1F DUP5 ADD SLT PUSH2 0x331 JUMPI PUSH2 0x330 PUSH2 0x310 JUMP JUMPDEST JUMPDEST DUP3 CALLDATALOAD SWAP1 POP PUSH8 0xFFFFFFFFFFFFFFFF DUP2 GT ISZERO PUSH2 0x34E JUMPI PUSH2 0x34D PUSH2 0x314 JUMP JUMPDEST JUMPDEST PUSH1 0x20 DUP4 ADD SWAP2 POP DUP4 PUSH1 0x1 DUP3 MUL DUP4 ADD GT ISZERO PUSH2 0x36A JUMPI PUSH2 0x369 PUSH2 0x318 JUMP JUMPDEST JUMPDEST SWAP3 POP SWAP3 SWAP1 POP JUMP JUMPDEST PUSH0 DUP2 SWAP1 POP SWAP2 SWAP1 POP JUMP JUMPDEST PUSH2 0x383 DUP2 PUSH2 0x371 JUMP JUMPDEST DUP2 EQ PUSH2 0x38D JUMPI PUSH0 DUP1 REVERT JUMPDEST POP JUMP JUMPDEST PUSH0 DUP2 CALLDATALOAD SWAP1 POP PUSH2 0x39E DUP2 PUSH2 0x37A JUMP JUMPDEST SWAP3 SWAP2 POP POP JUMP JUMPDEST PUSH0 DUP1 PUSH0 PUSH1 0x40 DUP5 DUP7 SUB SLT ISZERO PUSH2 0x3BB JUMPI PUSH2 0x3BA PUSH2 0x308 JUMP JUMPDEST JUMPDEST PUSH0 DUP5 ADD CALLDATALOAD PUSH8 0xFFFFFFFFFFFFFFFF DUP2 GT ISZERO PUSH2 0x3D8 JUMPI PUSH2 0x3D7 PUSH2 0x30C JUMP JUMPDEST JUMPDEST PUSH2 0x3E4 DUP7 DUP3 DUP8 ADD PUSH2 0x31C JUMP JUMPDEST SWAP4 POP SWAP4 POP POP PUSH1 0x20 PUSH2 0x3F7 DUP7 DUP3 DUP8 ADD PUSH2 0x390 JUMP JUMPDEST SWAP2 POP POP SWAP3 POP SWAP3 POP SWAP3 JUMP JUMPDEST PUSH0 DUP1 PUSH1 0x20 DUP4 DUP6 SUB SLT ISZERO PUSH2 0x417 JUMPI PUSH2 0x416 PUSH2 0x308 JUMP JUMPDEST JUMPDEST PUSH0 DUP4 ADD CALLDATALOAD PUSH8 0xFFFFFFFFFFFFFFFF DUP2 GT ISZERO PUSH2 0x434 JUMPI PUSH2 0x433 PUSH2 0x30C JUMP JUMPDEST JUMPDEST PUSH2 0x440 DUP6 DUP3 DUP7 ADD PUSH2 0x31C JUMP JUMPDEST SWAP3 POP SWAP3 POP POP SWAP3 POP SWAP3 SWAP1 POP JUMP JUMPDEST PUSH0 PUSH20 0xFFFFFFFFFFFFFFFFFFFFFFFFFFFFFFFFFFFFFFFF DUP3 AND SWAP1 POP SWAP2 SWAP1 POP JUMP JUMPDEST PUSH0 PUSH2 0x475 DUP3 PUSH2 0x44C JUMP JUMPDEST SWAP1 POP SWAP2 SWAP1 POP JUMP JUMPDEST PUSH2 0x485 DUP2 PUSH2 0x46B JUMP JUMPDEST DUP3 MSTORE POP POP JUMP JUMPDEST PUSH0 PUSH1 0x20 DUP3 ADD SWAP1 POP PUSH2 0x49E PUSH0 DUP4 ADD DUP5 PUSH2 0x47C JUMP JUMPDEST SWAP3 SWAP2 POP POP JUMP JUMPDEST PUSH0 DUP1 REVERT JUMPDEST PUSH0 PUSH1 0x1F NOT PUSH1 0x1F DUP4 ADD AND SWAP1 POP SWAP2 SWAP1 POP JUMP JUMPDEST PUSH32 0x4E487B7100000000000000000000000000000000000000000000000000000000 PUSH0 MSTORE PUSH1 0x41 PUSH1 0x4 MSTORE PUSH1 0x24 PUSH0 REVERT JUMPDEST PUSH2 0x4EE DUP3 PUSH2 0x4A8 JUMP JUMPDEST DUP2 ADD DUP2 DUP2 LT PUSH8 0xFFFFFFFFFFFFFFFF DUP3 GT OR ISZERO PUSH2 0x50D JUMPI PUSH2 0x50C PUSH2 0x4B8 JUMP JUMPDEST JUMPDEST DUP1 PUSH1 0x40 MSTORE POP POP POP JUMP JUMPDEST PUSH0 PUSH2 0x51F PUSH2 0x2FF JUMP JUMPDEST SWAP1 POP PUSH2 0x52B DUP3 DUP3 PUSH2 0x4E5 JUMP JUMPDEST SWAP2 SWAP1 POP JUMP JUMPDEST PUSH0 PUSH8 0xFFFFFFFFFFFFFFFF DUP3 GT ISZERO PUSH2 0x54A JUMPI PUSH2 0x549 PUSH2 0x4B8 JUMP JUMPDEST JUMPDEST PUSH2 0x553 DUP3 PUSH2 0x4A8 JUMP JUMPDEST SWAP1 POP PUSH1 0x20 DUP2 ADD SWAP1 POP SWAP2 SWAP1 POP JUMP JUMPDEST DUP3 DUP2 DUP4 CALLDATACOPY PUSH0 DUP4 DUP4 ADD MSTORE POP POP POP JUMP JUMPDEST PUSH0 PUSH2 0x580 PUSH2 0x57B DUP5 PUSH2 0x530 JUMP JUMPDEST PUSH2 0x516 JUMP JUMPDEST SWAP1 POP DUP3 DUP2 MSTORE PUSH1 0x20 DUP2 ADD DUP5 DUP5 DUP5 ADD GT ISZERO PUSH2 0x59C JUMPI PUSH2 0x59B PUSH2 0x4A4 JUMP JUMPDEST JUMPDEST PUSH2 0x5A7 DUP5 DUP3 DUP6 PUSH2 0x560 JUMP JUMPDEST POP SWAP4 SWAP3 POP POP POP JUMP JUMPDEST PUSH0 DUP3 PUSH1 0x1F DUP4 ADD SLT PUSH2 0x5C3 JUMPI PUSH2 0x5C2 PUSH2 0x310 JUMP JUMPDEST JUMPDEST DUP2 CALLDATALOAD PUSH2 0x5D3 DUP5 DUP3 PUSH1 0x20 DUP7 ADD PUSH2 0x56E JUMP JUMPDEST SWAP2 POP POP SWAP3 SWAP2 POP POP JUMP JUMPDEST PUSH0 PUSH1 0x20 DUP3 DUP5 SUB SLT ISZERO PUSH2 0x5F1 JUMPI PUSH2 0x5F0 PUSH2 0x308 JUMP JUMPDEST JUMPDEST PUSH0 DUP3 ADD CALLDATALOAD PUSH8 0xFFFFFFFFFFFFFFFF DUP2 GT ISZERO PUSH2 0x60E JUMPI PUSH2 0x60D PUSH2 0x30C JUMP JUMPDEST JUMPDEST PUSH2 0x61A DUP5 DUP3 DUP6 ADD PUSH2 0x5AF JUMP JUMPDEST SWAP2 POP POP SWAP3 SWAP2 POP POP JUMP JUMPDEST PUSH2 0x62C DUP2 PUSH2 0x371 JUMP JUMPDEST DUP3 MSTORE POP POP JUMP JUMPDEST PUSH0 PUSH1 0x40 DUP3 ADD SWAP1 POP PUSH2 0x645 PUSH0 DUP4 ADD DUP6 PUSH2 0x47C JUMP JUMPDEST PUSH2 0x652 PUSH1 0x20 DUP4 ADD DUP5 PUSH2 0x623 JUMP JUMPDEST SWAP4 SWAP3 POP POP POP JUMP JUMPDEST PUSH32 0x4E487B7100000000000000000000000000000000000000000000000000000000 PUSH0 MSTORE PUSH1 0x11 PUSH1 0x4 MSTORE PUSH1 0x24 PUSH0 REVERT JUMPDEST PUSH0 PUSH2 0x690 DUP3 PUSH2 0x371 JUMP JUMPDEST SWAP2 POP PUSH2 0x69B DUP4 PUSH2 0x371 JUMP JUMPDEST SWAP3 POP DUP3 DUP3 ADD SWAP1 POP DUP1 DUP3 GT ISZERO PUSH2 0x6B3 JUMPI PUSH2 0x6B2 PUSH2 0x659 JUMP JUMPDEST JUMPDEST SWAP3 SWAP2 POP POP JUMP JUMPDEST PUSH0 DUP2 SWAP1 POP SWAP3 SWAP2 POP POP JUMP JUMPDEST PUSH0 PUSH2 0x6CE DUP4 DUP6 PUSH2 0x6B9 JUMP JUMPDEST SWAP4 POP PUSH2 0x6DB DUP4 DUP6 DUP5 PUSH2 0x560 JUMP JUMPDEST DUP3 DUP5 ADD SWAP1 POP SWAP4 SWAP3 POP POP POP JUMP JUMPDEST PUSH0 PUSH2 0x6F3 DUP3 DUP5 DUP7 PUSH2 0x6C3 JUMP JUMPDEST SWAP2 POP DUP2 SWAP1 POP SWAP4 SWAP3 POP POP POP JUMP JUMPDEST PUSH32 0x4E487B7100000000000000000000000000000000000000000000000000000000 PUSH0 MSTORE PUSH1 0x21 PUSH1 0x4 MSTORE PUSH1 0x24 PUSH0 REVERT JUMPDEST PUSH1 0x4 DUP2 LT PUSH2 0x73D JUMPI PUSH2 0x73C PUSH2 0x6FF JUMP JUMPDEST JUMPDEST POP JUMP JUMPDEST PUSH0 DUP2 SWAP1 POP PUSH2 0x74D DUP3 PUSH2 0x72C JUMP JUMPDEST SWAP2 SWAP1 POP JUMP JUMPDEST PUSH0 PUSH2 0x75C DUP3 PUSH2 0x740 JUMP JUMPDEST SWAP1 POP SWAP2 SWAP1 POP JUMP JUMPDEST PUSH2 0x76C DUP2 PUSH2 0x752 JUMP JUMPDEST DUP3 MSTORE POP POP JUMP JUMPDEST PUSH0 PUSH1 0x20 DUP3 ADD SWAP1 POP PUSH2 0x785 PUSH0 DUP4 ADD DUP5 PUSH2 0x763 JUMP JUMPDEST SWAP3 SWAP2 POP POP JUMP INVALID LOG2 PUSH5 0x6970667358 0x22 SLT KECCAK256 SWAP13 NUMBER STOP 0xBF BLOBHASH 0xBD LOG4 0x4F PC 0xE5 DELEGATECALL 0xF7 0xE6 0xAD 0x28 PUSH29 0x151B1A6C1E080048B675FDC66BAD1A5764736F6C634300081A00330000 "
				},
				"gasEstimates": {
					"creation": {
						"codeDepositCost": "397000",
						"executionCost": "434",
						"totalCost": "397434"
					},
					"external": {
						"chalks(string)": "infinite",
						"mark(string,uint256)": "infinite",
						"query(string)": "infinite"
					}
				},
				"methodIdentifiers": {
					"chalks(string)": "94ac1739",
					"mark(string,uint256)": "23b07bff",
					"query(string)": "7c261929"
				}
			},
			"storageLayout": {
				"storage": [
					{
						"astId": 284,
						"contract": "W/War Chalking/War Chalking.sol:WarChalkingSafeTTL",
						"label": "chalks",
						"offset": 0,
						"slot": "0",
						"type": "t_mapping(t_string_memory_ptr,t_struct(Mark)279_storage)"
					}
				],
				"types": {
					"t_address": {
						"encoding": "inplace",
						"label": "address",
						"numberOfBytes": "20"
					},
					"t_mapping(t_string_memory_ptr,t_struct(Mark)279_storage)": {
						"encoding": "mapping",
						"key": "t_string_memory_ptr",
						"label": "mapping(string => struct WarChalkingSafeTTL.Mark)",
						"numberOfBytes": "32",
						"value": "t_struct(Mark)279_storage"
					},
					"t_string_memory_ptr": {
						"encoding": "bytes",
						"label": "string",
						"numberOfBytes": "32"
					},
					"t_struct(Mark)279_storage": {
						"encoding": "inplace",
						"label": "struct WarChalkingSafeTTL.Mark",
						"members": [
							{
								"astId": 276,
								"contract": "W/War Chalking/War Chalking.sol:WarChalkingSafeTTL",
								"label": "who",
								"offset": 0,
								"slot": "0",
								"type": "t_address"
							},
							{
								"astId": 278,
								"contract": "W/War Chalking/War Chalking.sol:WarChalkingSafeTTL",
								"label": "expiry",
								"offset": 0,
								"slot": "1",
								"type": "t_uint256"
							}
						],
						"numberOfBytes": "64"
					},
					"t_uint256": {
						"encoding": "inplace",
						"label": "uint256",
						"numberOfBytes": "32"
					}
				}
			},
			"userdoc": {
				"kind": "user",
				"methods": {},
				"notice": "───────────────────────────────────────────────────────────────────────────── 5) SAFE EXPIRING MARKS    • Defense: TTLExpire – marks expire after a TTL   ─────────────────────────────────────────────────────────────────────────────",
				"version": 1
			}
		}
	}
}