{
	"W/War Chalking/War Chalking.sol": {
		"WarChalkingSafeAdvanced": {
			"abi": [
				{
					"inputs": [],
					"name": "WC__AlreadyMarked",
					"type": "error"
				},
				{
					"inputs": [],
					"name": "WC__TooManyMarks",
					"type": "error"
				},
				{
					"anonymous": false,
					"inputs": [
						{
							"indexed": true,
							"internalType": "string",
							"name": "location",
							"type": "string"
						},
						{
							"indexed": true,
							"internalType": "address",
							"name": "by",
							"type": "address"
						},
						{
							"indexed": false,
							"internalType": "enum WarChalkingDefenseType",
							"name": "defense",
							"type": "uint8"
						}
					],
					"name": "Chalked",
					"type": "event"
				},
				{
					"inputs": [],
					"name": "MAX_MARKS_PER_BLOCK",
					"outputs": [
						{
							"internalType": "uint256",
							"name": "",
							"type": "uint256"
						}
					],
					"stateMutability": "view",
					"type": "function"
				},
				{
					"inputs": [
						{
							"internalType": "string",
							"name": "",
							"type": "string"
						}
					],
					"name": "chalks",
					"outputs": [
						{
							"internalType": "address",
							"name": "",
							"type": "address"
						}
					],
					"stateMutability": "view",
					"type": "function"
				},
				{
					"inputs": [
						{
							"internalType": "address",
							"name": "",
							"type": "address"
						}
					],
					"name": "countInBlock",
					"outputs": [
						{
							"internalType": "uint256",
							"name": "",
							"type": "uint256"
						}
					],
					"stateMutability": "view",
					"type": "function"
				},
				{
					"inputs": [
						{
							"internalType": "address",
							"name": "",
							"type": "address"
						}
					],
					"name": "lastBlock",
					"outputs": [
						{
							"internalType": "uint256",
							"name": "",
							"type": "uint256"
						}
					],
					"stateMutability": "view",
					"type": "function"
				},
				{
					"inputs": [
						{
							"internalType": "string",
							"name": "location",
							"type": "string"
						}
					],
					"name": "mark",
					"outputs": [],
					"stateMutability": "nonpayable",
					"type": "function"
				}
			],
			"devdoc": {
				"kind": "dev",
				"methods": {},
				"version": 1
			},
			"evm": {
				"assembly": "    /* \"W/War Chalking/War Chalking.sol\":4433:5399  contract WarChalkingSafeAdvanced {... */\n  mstore(0x40, 0x80)\n  callvalue\n  dup1\n  iszero\n  tag_1\n  jumpi\n  0x00\n  dup1\n  revert\ntag_1:\n  pop\n  dataSize(sub_0)\n  dup1\n  dataOffset(sub_0)\n  0x00\n  codecopy\n  0x00\n  return\nstop\n\nsub_0: assembly {\n        /* \"W/War Chalking/War Chalking.sol\":4433:5399  contract WarChalkingSafeAdvanced {... */\n      mstore(0x40, 0x80)\n      callvalue\n      dup1\n      iszero\n      tag_1\n      jumpi\n      0x00\n      dup1\n      revert\n    tag_1:\n      pop\n      jumpi(tag_2, lt(calldatasize, 0x04))\n      shr(0xe0, calldataload(0x00))\n      dup1\n      0x07ba86a3\n      eq\n      tag_3\n      jumpi\n      dup1\n      0x3e9893a6\n      eq\n      tag_4\n      jumpi\n      dup1\n      0x74ef7c01\n      eq\n      tag_5\n      jumpi\n      dup1\n      0x94ac1739\n      eq\n      tag_6\n      jumpi\n      dup1\n      0x952ca92c\n      eq\n      tag_7\n      jumpi\n    tag_2:\n      0x00\n      dup1\n      revert\n        /* \"W/War Chalking/War Chalking.sol\":4803:5397  function mark(string calldata location) external {... */\n    tag_3:\n      tag_8\n      0x04\n      dup1\n      calldatasize\n      sub\n      dup2\n      add\n      swap1\n      tag_9\n      swap2\n      swap1\n      tag_10\n      jump\t// in\n    tag_9:\n      tag_11\n      jump\t// in\n    tag_8:\n      stop\n        /* \"W/War Chalking/War Chalking.sol\":4568:4615  mapping(address => uint256) public countInBlock */\n    tag_4:\n      tag_12\n      0x04\n      dup1\n      calldatasize\n      sub\n      dup2\n      add\n      swap1\n      tag_13\n      swap2\n      swap1\n      tag_14\n      jump\t// in\n    tag_13:\n      tag_15\n      jump\t// in\n    tag_12:\n      mload(0x40)\n      tag_16\n      swap2\n      swap1\n      tag_17\n      jump\t// in\n    tag_16:\n      mload(0x40)\n      dup1\n      swap2\n      sub\n      swap1\n      return\n        /* \"W/War Chalking/War Chalking.sol\":4621:4668  uint256 public constant MAX_MARKS_PER_BLOCK = 5 */\n    tag_5:\n      tag_18\n      tag_19\n      jump\t// in\n    tag_18:\n      mload(0x40)\n      tag_20\n      swap2\n      swap1\n      tag_17\n      jump\t// in\n    tag_20:\n      mload(0x40)\n      dup1\n      swap2\n      sub\n      swap1\n      return\n        /* \"W/War Chalking/War Chalking.sol\":4472:4512  mapping(string => address) public chalks */\n    tag_6:\n      tag_21\n      0x04\n      dup1\n      calldatasize\n      sub\n      dup2\n      add\n      swap1\n      tag_22\n      swap2\n      swap1\n      tag_23\n      jump\t// in\n    tag_22:\n      tag_24\n      jump\t// in\n    tag_21:\n      mload(0x40)\n      tag_25\n      swap2\n      swap1\n      tag_26\n      jump\t// in\n    tag_25:\n      mload(0x40)\n      dup1\n      swap2\n      sub\n      swap1\n      return\n        /* \"W/War Chalking/War Chalking.sol\":4518:4562  mapping(address => uint256) public lastBlock */\n    tag_7:\n      tag_27\n      0x04\n      dup1\n      calldatasize\n      sub\n      dup2\n      add\n      swap1\n      tag_28\n      swap2\n      swap1\n      tag_14\n      jump\t// in\n    tag_28:\n      tag_29\n      jump\t// in\n    tag_27:\n      mload(0x40)\n      tag_30\n      swap2\n      swap1\n      tag_17\n      jump\t// in\n    tag_30:\n      mload(0x40)\n      dup1\n      swap2\n      sub\n      swap1\n      return\n        /* \"W/War Chalking/War Chalking.sol\":4803:5397  function mark(string calldata location) external {... */\n    tag_11:\n        /* \"W/War Chalking/War Chalking.sol\":4920:4921  0 */\n      0x00\n        /* \"W/War Chalking/War Chalking.sol\":4892:4922  chalks[location] != address(0) */\n      0xffffffffffffffffffffffffffffffffffffffff\n      and\n        /* \"W/War Chalking/War Chalking.sol\":4892:4898  chalks */\n      0x00\n        /* \"W/War Chalking/War Chalking.sol\":4899:4907  location */\n      dup4\n      dup4\n        /* \"W/War Chalking/War Chalking.sol\":4892:4908  chalks[location] */\n      mload(0x40)\n      tag_32\n      swap3\n      swap2\n      swap1\n      tag_33\n      jump\t// in\n    tag_32:\n      swap1\n      dup2\n      mstore\n      0x20\n      add\n      mload(0x40)\n      dup1\n      swap2\n      sub\n      swap1\n      keccak256\n      0x00\n      swap1\n      sload\n      swap1\n      0x0100\n      exp\n      swap1\n      div\n      0xffffffffffffffffffffffffffffffffffffffff\n      and\n        /* \"W/War Chalking/War Chalking.sol\":4892:4922  chalks[location] != address(0) */\n      0xffffffffffffffffffffffffffffffffffffffff\n      and\n      eq\n        /* \"W/War Chalking/War Chalking.sol\":4888:4950  if (chalks[location] != address(0)) revert WC__AlreadyMarked() */\n      tag_34\n      jumpi\n        /* \"W/War Chalking/War Chalking.sol\":4931:4950  WC__AlreadyMarked() */\n      mload(0x40)\n      0xbee442f600000000000000000000000000000000000000000000000000000000\n      dup2\n      mstore\n      0x04\n      add\n      mload(0x40)\n      dup1\n      swap2\n      sub\n      swap1\n      revert\n        /* \"W/War Chalking/War Chalking.sol\":4888:4950  if (chalks[location] != address(0)) revert WC__AlreadyMarked() */\n    tag_34:\n        /* \"W/War Chalking/War Chalking.sol\":5024:5033  lastBlock */\n      0x01\n        /* \"W/War Chalking/War Chalking.sol\":5024:5045  lastBlock[msg.sender] */\n      0x00\n        /* \"W/War Chalking/War Chalking.sol\":5034:5044  msg.sender */\n      caller\n        /* \"W/War Chalking/War Chalking.sol\":5024:5045  lastBlock[msg.sender] */\n      0xffffffffffffffffffffffffffffffffffffffff\n      and\n      0xffffffffffffffffffffffffffffffffffffffff\n      and\n      dup2\n      mstore\n      0x20\n      add\n      swap1\n      dup2\n      mstore\n      0x20\n      add\n      0x00\n      keccak256\n      sload\n        /* \"W/War Chalking/War Chalking.sol\":5008:5020  block.number */\n      number\n        /* \"W/War Chalking/War Chalking.sol\":5008:5045  block.number != lastBlock[msg.sender] */\n      eq\n        /* \"W/War Chalking/War Chalking.sol\":5004:5150  if (block.number != lastBlock[msg.sender]) {... */\n      tag_35\n      jumpi\n        /* \"W/War Chalking/War Chalking.sol\":5085:5097  block.number */\n      number\n        /* \"W/War Chalking/War Chalking.sol\":5061:5070  lastBlock */\n      0x01\n        /* \"W/War Chalking/War Chalking.sol\":5061:5082  lastBlock[msg.sender] */\n      0x00\n        /* \"W/War Chalking/War Chalking.sol\":5071:5081  msg.sender */\n      caller\n        /* \"W/War Chalking/War Chalking.sol\":5061:5082  lastBlock[msg.sender] */\n      0xffffffffffffffffffffffffffffffffffffffff\n      and\n      0xffffffffffffffffffffffffffffffffffffffff\n      and\n      dup2\n      mstore\n      0x20\n      add\n      swap1\n      dup2\n      mstore\n      0x20\n      add\n      0x00\n      keccak256\n        /* \"W/War Chalking/War Chalking.sol\":5061:5097  lastBlock[msg.sender] = block.number */\n      dup2\n      swap1\n      sstore\n      pop\n        /* \"W/War Chalking/War Chalking.sol\":5138:5139  0 */\n      0x00\n        /* \"W/War Chalking/War Chalking.sol\":5111:5123  countInBlock */\n      0x02\n        /* \"W/War Chalking/War Chalking.sol\":5111:5135  countInBlock[msg.sender] */\n      0x00\n        /* \"W/War Chalking/War Chalking.sol\":5124:5134  msg.sender */\n      caller\n        /* \"W/War Chalking/War Chalking.sol\":5111:5135  countInBlock[msg.sender] */\n      0xffffffffffffffffffffffffffffffffffffffff\n      and\n      0xffffffffffffffffffffffffffffffffffffffff\n      and\n      dup2\n      mstore\n      0x20\n      add\n      swap1\n      dup2\n      mstore\n      0x20\n      add\n      0x00\n      keccak256\n        /* \"W/War Chalking/War Chalking.sol\":5111:5139  countInBlock[msg.sender] = 0 */\n      dup2\n      swap1\n      sstore\n      pop\n        /* \"W/War Chalking/War Chalking.sol\":5004:5150  if (block.number != lastBlock[msg.sender]) {... */\n    tag_35:\n        /* \"W/War Chalking/War Chalking.sol\":5159:5171  countInBlock */\n      0x02\n        /* \"W/War Chalking/War Chalking.sol\":5159:5183  countInBlock[msg.sender] */\n      0x00\n        /* \"W/War Chalking/War Chalking.sol\":5172:5182  msg.sender */\n      caller\n        /* \"W/War Chalking/War Chalking.sol\":5159:5183  countInBlock[msg.sender] */\n      0xffffffffffffffffffffffffffffffffffffffff\n      and\n      0xffffffffffffffffffffffffffffffffffffffff\n      and\n      dup2\n      mstore\n      0x20\n      add\n      swap1\n      dup2\n      mstore\n      0x20\n      add\n      0x00\n      keccak256\n      0x00\n        /* \"W/War Chalking/War Chalking.sol\":5159:5185  countInBlock[msg.sender]++ */\n      dup2\n      sload\n      dup1\n      swap3\n      swap2\n      swap1\n      tag_36\n      swap1\n      tag_37\n      jump\t// in\n    tag_36:\n      swap2\n      swap1\n      pop\n      sstore\n      pop\n        /* \"W/War Chalking/War Chalking.sol\":4667:4668  5 */\n      0x05\n        /* \"W/War Chalking/War Chalking.sol\":5199:5211  countInBlock */\n      0x02\n        /* \"W/War Chalking/War Chalking.sol\":5199:5223  countInBlock[msg.sender] */\n      0x00\n        /* \"W/War Chalking/War Chalking.sol\":5212:5222  msg.sender */\n      caller\n        /* \"W/War Chalking/War Chalking.sol\":5199:5223  countInBlock[msg.sender] */\n      0xffffffffffffffffffffffffffffffffffffffff\n      and\n      0xffffffffffffffffffffffffffffffffffffffff\n      and\n      dup2\n      mstore\n      0x20\n      add\n      swap1\n      dup2\n      mstore\n      0x20\n      add\n      0x00\n      keccak256\n      sload\n        /* \"W/War Chalking/War Chalking.sol\":5199:5245  countInBlock[msg.sender] > MAX_MARKS_PER_BLOCK */\n      gt\n        /* \"W/War Chalking/War Chalking.sol\":5195:5272  if (countInBlock[msg.sender] > MAX_MARKS_PER_BLOCK) revert WC__TooManyMarks() */\n      iszero\n      tag_38\n      jumpi\n        /* \"W/War Chalking/War Chalking.sol\":5254:5272  WC__TooManyMarks() */\n      mload(0x40)\n      0xe696360c00000000000000000000000000000000000000000000000000000000\n      dup2\n      mstore\n      0x04\n      add\n      mload(0x40)\n      dup1\n      swap2\n      sub\n      swap1\n      revert\n        /* \"W/War Chalking/War Chalking.sol\":5195:5272  if (countInBlock[msg.sender] > MAX_MARKS_PER_BLOCK) revert WC__TooManyMarks() */\n    tag_38:\n        /* \"W/War Chalking/War Chalking.sol\":5302:5312  msg.sender */\n      caller\n        /* \"W/War Chalking/War Chalking.sol\":5283:5289  chalks */\n      0x00\n        /* \"W/War Chalking/War Chalking.sol\":5290:5298  location */\n      dup4\n      dup4\n        /* \"W/War Chalking/War Chalking.sol\":5283:5299  chalks[location] */\n      mload(0x40)\n      tag_39\n      swap3\n      swap2\n      swap1\n      tag_33\n      jump\t// in\n    tag_39:\n      swap1\n      dup2\n      mstore\n      0x20\n      add\n      mload(0x40)\n      dup1\n      swap2\n      sub\n      swap1\n      keccak256\n      0x00\n        /* \"W/War Chalking/War Chalking.sol\":5283:5312  chalks[location] = msg.sender */\n      0x0100\n      exp\n      dup2\n      sload\n      dup2\n      0xffffffffffffffffffffffffffffffffffffffff\n      mul\n      not\n      and\n      swap1\n      dup4\n      0xffffffffffffffffffffffffffffffffffffffff\n      and\n      mul\n      or\n      swap1\n      sstore\n      pop\n        /* \"W/War Chalking/War Chalking.sol\":5345:5355  msg.sender */\n      caller\n        /* \"W/War Chalking/War Chalking.sol\":5327:5390  Chalked(location, msg.sender, WarChalkingDefenseType.RateLimit) */\n      0xffffffffffffffffffffffffffffffffffffffff\n      and\n        /* \"W/War Chalking/War Chalking.sol\":5335:5343  location */\n      dup3\n      dup3\n        /* \"W/War Chalking/War Chalking.sol\":5327:5390  Chalked(location, msg.sender, WarChalkingDefenseType.RateLimit) */\n      mload(0x40)\n      tag_40\n      swap3\n      swap2\n      swap1\n      tag_33\n      jump\t// in\n    tag_40:\n      mload(0x40)\n      dup1\n      swap2\n      sub\n      swap1\n      keccak256\n      0x4d6becea700c444e6bf1369d20e2a71ad2bf2cd21e911486b32e7d4af98d332f\n        /* \"W/War Chalking/War Chalking.sol\":5357:5389  WarChalkingDefenseType.RateLimit */\n      0x02\n        /* \"W/War Chalking/War Chalking.sol\":5327:5390  Chalked(location, msg.sender, WarChalkingDefenseType.RateLimit) */\n      mload(0x40)\n      tag_41\n      swap2\n      swap1\n      tag_42\n      jump\t// in\n    tag_41:\n      mload(0x40)\n      dup1\n      swap2\n      sub\n      swap1\n      log3\n        /* \"W/War Chalking/War Chalking.sol\":4803:5397  function mark(string calldata location) external {... */\n      pop\n      pop\n      jump\t// out\n        /* \"W/War Chalking/War Chalking.sol\":4568:4615  mapping(address => uint256) public countInBlock */\n    tag_15:\n      mstore(0x20, 0x02)\n      dup1\n      0x00\n      mstore\n      keccak256(0x00, 0x40)\n      0x00\n      swap2\n      pop\n      swap1\n      pop\n      sload\n      dup2\n      jump\t// out\n        /* \"W/War Chalking/War Chalking.sol\":4621:4668  uint256 public constant MAX_MARKS_PER_BLOCK = 5 */\n    tag_19:\n        /* \"W/War Chalking/War Chalking.sol\":4667:4668  5 */\n      0x05\n        /* \"W/War Chalking/War Chalking.sol\":4621:4668  uint256 public constant MAX_MARKS_PER_BLOCK = 5 */\n      dup2\n      jump\t// out\n        /* \"W/War Chalking/War Chalking.sol\":4472:4512  mapping(string => address) public chalks */\n    tag_24:\n      0x00\n      dup2\n      dup1\n      mload\n      0x20\n      dup2\n      add\n      dup3\n      add\n      dup1\n      mload\n      dup5\n      dup3\n      mstore\n      0x20\n      dup4\n      add\n      0x20\n      dup6\n      add\n      keccak256\n      dup2\n      dup4\n      mstore\n      dup1\n      swap6\n      pop\n      pop\n      pop\n      pop\n      pop\n      pop\n      0x00\n      swap2\n      pop\n      sload\n      swap1\n      0x0100\n      exp\n      swap1\n      div\n      0xffffffffffffffffffffffffffffffffffffffff\n      and\n      dup2\n      jump\t// out\n        /* \"W/War Chalking/War Chalking.sol\":4518:4562  mapping(address => uint256) public lastBlock */\n    tag_29:\n      mstore(0x20, 0x01)\n      dup1\n      0x00\n      mstore\n      keccak256(0x00, 0x40)\n      0x00\n      swap2\n      pop\n      swap1\n      pop\n      sload\n      dup2\n      jump\t// out\n        /* \"#utility.yul\":7:82   */\n    tag_43:\n        /* \"#utility.yul\":40:46   */\n      0x00\n        /* \"#utility.yul\":73:75   */\n      0x40\n        /* \"#utility.yul\":67:76   */\n      mload\n        /* \"#utility.yul\":57:76   */\n      swap1\n      pop\n        /* \"#utility.yul\":7:82   */\n      swap1\n      jump\t// out\n        /* \"#utility.yul\":88:205   */\n    tag_44:\n        /* \"#utility.yul\":197:198   */\n      0x00\n        /* \"#utility.yul\":194:195   */\n      dup1\n        /* \"#utility.yul\":187:199   */\n      revert\n        /* \"#utility.yul\":211:328   */\n    tag_45:\n        /* \"#utility.yul\":320:321   */\n      0x00\n        /* \"#utility.yul\":317:318   */\n      dup1\n        /* \"#utility.yul\":310:322   */\n      revert\n        /* \"#utility.yul\":334:451   */\n    tag_46:\n        /* \"#utility.yul\":443:444   */\n      0x00\n        /* \"#utility.yul\":440:441   */\n      dup1\n        /* \"#utility.yul\":433:445   */\n      revert\n        /* \"#utility.yul\":457:574   */\n    tag_47:\n        /* \"#utility.yul\":566:567   */\n      0x00\n        /* \"#utility.yul\":563:564   */\n      dup1\n        /* \"#utility.yul\":556:568   */\n      revert\n        /* \"#utility.yul\":580:697   */\n    tag_48:\n        /* \"#utility.yul\":689:690   */\n      0x00\n        /* \"#utility.yul\":686:687   */\n      dup1\n        /* \"#utility.yul\":679:691   */\n      revert\n        /* \"#utility.yul\":717:1270   */\n    tag_49:\n        /* \"#utility.yul\":775:783   */\n      0x00\n        /* \"#utility.yul\":785:791   */\n      dup1\n        /* \"#utility.yul\":835:838   */\n      dup4\n        /* \"#utility.yul\":828:832   */\n      0x1f\n        /* \"#utility.yul\":820:826   */\n      dup5\n        /* \"#utility.yul\":816:833   */\n      add\n        /* \"#utility.yul\":812:839   */\n      slt\n        /* \"#utility.yul\":802:924   */\n      tag_82\n      jumpi\n        /* \"#utility.yul\":843:922   */\n      tag_83\n      tag_46\n      jump\t// in\n    tag_83:\n        /* \"#utility.yul\":802:924   */\n    tag_82:\n        /* \"#utility.yul\":956:962   */\n      dup3\n        /* \"#utility.yul\":943:963   */\n      calldataload\n        /* \"#utility.yul\":933:963   */\n      swap1\n      pop\n        /* \"#utility.yul\":986:1004   */\n      0xffffffffffffffff\n        /* \"#utility.yul\":978:984   */\n      dup2\n        /* \"#utility.yul\":975:1005   */\n      gt\n        /* \"#utility.yul\":972:1089   */\n      iszero\n      tag_84\n      jumpi\n        /* \"#utility.yul\":1008:1087   */\n      tag_85\n      tag_47\n      jump\t// in\n    tag_85:\n        /* \"#utility.yul\":972:1089   */\n    tag_84:\n        /* \"#utility.yul\":1122:1126   */\n      0x20\n        /* \"#utility.yul\":1114:1120   */\n      dup4\n        /* \"#utility.yul\":1110:1127   */\n      add\n        /* \"#utility.yul\":1098:1127   */\n      swap2\n      pop\n        /* \"#utility.yul\":1176:1179   */\n      dup4\n        /* \"#utility.yul\":1168:1172   */\n      0x01\n        /* \"#utility.yul\":1160:1166   */\n      dup3\n        /* \"#utility.yul\":1156:1173   */\n      mul\n        /* \"#utility.yul\":1146:1154   */\n      dup4\n        /* \"#utility.yul\":1142:1174   */\n      add\n        /* \"#utility.yul\":1139:1180   */\n      gt\n        /* \"#utility.yul\":1136:1264   */\n      iszero\n      tag_86\n      jumpi\n        /* \"#utility.yul\":1183:1262   */\n      tag_87\n      tag_48\n      jump\t// in\n    tag_87:\n        /* \"#utility.yul\":1136:1264   */\n    tag_86:\n        /* \"#utility.yul\":717:1270   */\n      swap3\n      pop\n      swap3\n      swap1\n      pop\n      jump\t// out\n        /* \"#utility.yul\":1276:1805   */\n    tag_10:\n        /* \"#utility.yul\":1347:1353   */\n      0x00\n        /* \"#utility.yul\":1355:1361   */\n      dup1\n        /* \"#utility.yul\":1404:1406   */\n      0x20\n        /* \"#utility.yul\":1392:1401   */\n      dup4\n        /* \"#utility.yul\":1383:1390   */\n      dup6\n        /* \"#utility.yul\":1379:1402   */\n      sub\n        /* \"#utility.yul\":1375:1407   */\n      slt\n        /* \"#utility.yul\":1372:1491   */\n      iszero\n      tag_89\n      jumpi\n        /* \"#utility.yul\":1410:1489   */\n      tag_90\n      tag_44\n      jump\t// in\n    tag_90:\n        /* \"#utility.yul\":1372:1491   */\n    tag_89:\n        /* \"#utility.yul\":1558:1559   */\n      0x00\n        /* \"#utility.yul\":1547:1556   */\n      dup4\n        /* \"#utility.yul\":1543:1560   */\n      add\n        /* \"#utility.yul\":1530:1561   */\n      calldataload\n        /* \"#utility.yul\":1588:1606   */\n      0xffffffffffffffff\n        /* \"#utility.yul\":1580:1586   */\n      dup2\n        /* \"#utility.yul\":1577:1607   */\n      gt\n        /* \"#utility.yul\":1574:1691   */\n      iszero\n      tag_91\n      jumpi\n        /* \"#utility.yul\":1610:1689   */\n      tag_92\n      tag_45\n      jump\t// in\n    tag_92:\n        /* \"#utility.yul\":1574:1691   */\n    tag_91:\n        /* \"#utility.yul\":1723:1788   */\n      tag_93\n        /* \"#utility.yul\":1780:1787   */\n      dup6\n        /* \"#utility.yul\":1771:1777   */\n      dup3\n        /* \"#utility.yul\":1760:1769   */\n      dup7\n        /* \"#utility.yul\":1756:1778   */\n      add\n        /* \"#utility.yul\":1723:1788   */\n      tag_49\n      jump\t// in\n    tag_93:\n        /* \"#utility.yul\":1705:1788   */\n      swap3\n      pop\n      swap3\n      pop\n        /* \"#utility.yul\":1501:1798   */\n      pop\n        /* \"#utility.yul\":1276:1805   */\n      swap3\n      pop\n      swap3\n      swap1\n      pop\n      jump\t// out\n        /* \"#utility.yul\":1811:1937   */\n    tag_50:\n        /* \"#utility.yul\":1848:1855   */\n      0x00\n        /* \"#utility.yul\":1888:1930   */\n      0xffffffffffffffffffffffffffffffffffffffff\n        /* \"#utility.yul\":1881:1886   */\n      dup3\n        /* \"#utility.yul\":1877:1931   */\n      and\n        /* \"#utility.yul\":1866:1931   */\n      swap1\n      pop\n        /* \"#utility.yul\":1811:1937   */\n      swap2\n      swap1\n      pop\n      jump\t// out\n        /* \"#utility.yul\":1943:2039   */\n    tag_51:\n        /* \"#utility.yul\":1980:1987   */\n      0x00\n        /* \"#utility.yul\":2009:2033   */\n      tag_96\n        /* \"#utility.yul\":2027:2032   */\n      dup3\n        /* \"#utility.yul\":2009:2033   */\n      tag_50\n      jump\t// in\n    tag_96:\n        /* \"#utility.yul\":1998:2033   */\n      swap1\n      pop\n        /* \"#utility.yul\":1943:2039   */\n      swap2\n      swap1\n      pop\n      jump\t// out\n        /* \"#utility.yul\":2045:2167   */\n    tag_52:\n        /* \"#utility.yul\":2118:2142   */\n      tag_98\n        /* \"#utility.yul\":2136:2141   */\n      dup2\n        /* \"#utility.yul\":2118:2142   */\n      tag_51\n      jump\t// in\n    tag_98:\n        /* \"#utility.yul\":2111:2116   */\n      dup2\n        /* \"#utility.yul\":2108:2143   */\n      eq\n        /* \"#utility.yul\":2098:2161   */\n      tag_99\n      jumpi\n        /* \"#utility.yul\":2157:2158   */\n      0x00\n        /* \"#utility.yul\":2154:2155   */\n      dup1\n        /* \"#utility.yul\":2147:2159   */\n      revert\n        /* \"#utility.yul\":2098:2161   */\n    tag_99:\n        /* \"#utility.yul\":2045:2167   */\n      pop\n      jump\t// out\n        /* \"#utility.yul\":2173:2312   */\n    tag_53:\n        /* \"#utility.yul\":2219:2224   */\n      0x00\n        /* \"#utility.yul\":2257:2263   */\n      dup2\n        /* \"#utility.yul\":2244:2264   */\n      calldataload\n        /* \"#utility.yul\":2235:2264   */\n      swap1\n      pop\n        /* \"#utility.yul\":2273:2306   */\n      tag_101\n        /* \"#utility.yul\":2300:2305   */\n      dup2\n        /* \"#utility.yul\":2273:2306   */\n      tag_52\n      jump\t// in\n    tag_101:\n        /* \"#utility.yul\":2173:2312   */\n      swap3\n      swap2\n      pop\n      pop\n      jump\t// out\n        /* \"#utility.yul\":2318:2647   */\n    tag_14:\n        /* \"#utility.yul\":2377:2383   */\n      0x00\n        /* \"#utility.yul\":2426:2428   */\n      0x20\n        /* \"#utility.yul\":2414:2423   */\n      dup3\n        /* \"#utility.yul\":2405:2412   */\n      dup5\n        /* \"#utility.yul\":2401:2424   */\n      sub\n        /* \"#utility.yul\":2397:2429   */\n      slt\n        /* \"#utility.yul\":2394:2513   */\n      iszero\n      tag_103\n      jumpi\n        /* \"#utility.yul\":2432:2511   */\n      tag_104\n      tag_44\n      jump\t// in\n    tag_104:\n        /* \"#utility.yul\":2394:2513   */\n    tag_103:\n        /* \"#utility.yul\":2552:2553   */\n      0x00\n        /* \"#utility.yul\":2577:2630   */\n      tag_105\n        /* \"#utility.yul\":2622:2629   */\n      dup5\n        /* \"#utility.yul\":2613:2619   */\n      dup3\n        /* \"#utility.yul\":2602:2611   */\n      dup6\n        /* \"#utility.yul\":2598:2620   */\n      add\n        /* \"#utility.yul\":2577:2630   */\n      tag_53\n      jump\t// in\n    tag_105:\n        /* \"#utility.yul\":2567:2630   */\n      swap2\n      pop\n        /* \"#utility.yul\":2523:2640   */\n      pop\n        /* \"#utility.yul\":2318:2647   */\n      swap3\n      swap2\n      pop\n      pop\n      jump\t// out\n        /* \"#utility.yul\":2653:2730   */\n    tag_54:\n        /* \"#utility.yul\":2690:2697   */\n      0x00\n        /* \"#utility.yul\":2719:2724   */\n      dup2\n        /* \"#utility.yul\":2708:2724   */\n      swap1\n      pop\n        /* \"#utility.yul\":2653:2730   */\n      swap2\n      swap1\n      pop\n      jump\t// out\n        /* \"#utility.yul\":2736:2854   */\n    tag_55:\n        /* \"#utility.yul\":2823:2847   */\n      tag_108\n        /* \"#utility.yul\":2841:2846   */\n      dup2\n        /* \"#utility.yul\":2823:2847   */\n      tag_54\n      jump\t// in\n    tag_108:\n        /* \"#utility.yul\":2818:2821   */\n      dup3\n        /* \"#utility.yul\":2811:2848   */\n      mstore\n        /* \"#utility.yul\":2736:2854   */\n      pop\n      pop\n      jump\t// out\n        /* \"#utility.yul\":2860:3082   */\n    tag_17:\n        /* \"#utility.yul\":2953:2957   */\n      0x00\n        /* \"#utility.yul\":2991:2993   */\n      0x20\n        /* \"#utility.yul\":2980:2989   */\n      dup3\n        /* \"#utility.yul\":2976:2994   */\n      add\n        /* \"#utility.yul\":2968:2994   */\n      swap1\n      pop\n        /* \"#utility.yul\":3004:3075   */\n      tag_110\n        /* \"#utility.yul\":3072:3073   */\n      0x00\n        /* \"#utility.yul\":3061:3070   */\n      dup4\n        /* \"#utility.yul\":3057:3074   */\n      add\n        /* \"#utility.yul\":3048:3054   */\n      dup5\n        /* \"#utility.yul\":3004:3075   */\n      tag_55\n      jump\t// in\n    tag_110:\n        /* \"#utility.yul\":2860:3082   */\n      swap3\n      swap2\n      pop\n      pop\n      jump\t// out\n        /* \"#utility.yul\":3088:3205   */\n    tag_56:\n        /* \"#utility.yul\":3197:3198   */\n      0x00\n        /* \"#utility.yul\":3194:3195   */\n      dup1\n        /* \"#utility.yul\":3187:3199   */\n      revert\n        /* \"#utility.yul\":3211:3313   */\n    tag_57:\n        /* \"#utility.yul\":3252:3258   */\n      0x00\n        /* \"#utility.yul\":3303:3305   */\n      0x1f\n        /* \"#utility.yul\":3299:3306   */\n      not\n        /* \"#utility.yul\":3294:3296   */\n      0x1f\n        /* \"#utility.yul\":3287:3292   */\n      dup4\n        /* \"#utility.yul\":3283:3297   */\n      add\n        /* \"#utility.yul\":3279:3307   */\n      and\n        /* \"#utility.yul\":3269:3307   */\n      swap1\n      pop\n        /* \"#utility.yul\":3211:3313   */\n      swap2\n      swap1\n      pop\n      jump\t// out\n        /* \"#utility.yul\":3319:3499   */\n    tag_58:\n        /* \"#utility.yul\":3367:3444   */\n      0x4e487b7100000000000000000000000000000000000000000000000000000000\n        /* \"#utility.yul\":3364:3365   */\n      0x00\n        /* \"#utility.yul\":3357:3445   */\n      mstore\n        /* \"#utility.yul\":3464:3468   */\n      0x41\n        /* \"#utility.yul\":3461:3462   */\n      0x04\n        /* \"#utility.yul\":3454:3469   */\n      mstore\n        /* \"#utility.yul\":3488:3492   */\n      0x24\n        /* \"#utility.yul\":3485:3486   */\n      0x00\n        /* \"#utility.yul\":3478:3493   */\n      revert\n        /* \"#utility.yul\":3505:3786   */\n    tag_59:\n        /* \"#utility.yul\":3588:3615   */\n      tag_115\n        /* \"#utility.yul\":3610:3614   */\n      dup3\n        /* \"#utility.yul\":3588:3615   */\n      tag_57\n      jump\t// in\n    tag_115:\n        /* \"#utility.yul\":3580:3586   */\n      dup2\n        /* \"#utility.yul\":3576:3616   */\n      add\n        /* \"#utility.yul\":3718:3724   */\n      dup2\n        /* \"#utility.yul\":3706:3716   */\n      dup2\n        /* \"#utility.yul\":3703:3725   */\n      lt\n        /* \"#utility.yul\":3682:3700   */\n      0xffffffffffffffff\n        /* \"#utility.yul\":3670:3680   */\n      dup3\n        /* \"#utility.yul\":3667:3701   */\n      gt\n        /* \"#utility.yul\":3664:3726   */\n      or\n        /* \"#utility.yul\":3661:3749   */\n      iszero\n      tag_116\n      jumpi\n        /* \"#utility.yul\":3729:3747   */\n      tag_117\n      tag_58\n      jump\t// in\n    tag_117:\n        /* \"#utility.yul\":3661:3749   */\n    tag_116:\n        /* \"#utility.yul\":3769:3779   */\n      dup1\n        /* \"#utility.yul\":3765:3767   */\n      0x40\n        /* \"#utility.yul\":3758:3780   */\n      mstore\n        /* \"#utility.yul\":3548:3786   */\n      pop\n        /* \"#utility.yul\":3505:3786   */\n      pop\n      pop\n      jump\t// out\n        /* \"#utility.yul\":3792:3921   */\n    tag_60:\n        /* \"#utility.yul\":3826:3832   */\n      0x00\n        /* \"#utility.yul\":3853:3873   */\n      tag_119\n      tag_43\n      jump\t// in\n    tag_119:\n        /* \"#utility.yul\":3843:3873   */\n      swap1\n      pop\n        /* \"#utility.yul\":3882:3915   */\n      tag_120\n        /* \"#utility.yul\":3910:3914   */\n      dup3\n        /* \"#utility.yul\":3902:3908   */\n      dup3\n        /* \"#utility.yul\":3882:3915   */\n      tag_59\n      jump\t// in\n    tag_120:\n        /* \"#utility.yul\":3792:3921   */\n      swap2\n      swap1\n      pop\n      jump\t// out\n        /* \"#utility.yul\":3927:4235   */\n    tag_61:\n        /* \"#utility.yul\":3989:3993   */\n      0x00\n        /* \"#utility.yul\":4079:4097   */\n      0xffffffffffffffff\n        /* \"#utility.yul\":4071:4077   */\n      dup3\n        /* \"#utility.yul\":4068:4098   */\n      gt\n        /* \"#utility.yul\":4065:4121   */\n      iszero\n      tag_122\n      jumpi\n        /* \"#utility.yul\":4101:4119   */\n      tag_123\n      tag_58\n      jump\t// in\n    tag_123:\n        /* \"#utility.yul\":4065:4121   */\n    tag_122:\n        /* \"#utility.yul\":4139:4168   */\n      tag_124\n        /* \"#utility.yul\":4161:4167   */\n      dup3\n        /* \"#utility.yul\":4139:4168   */\n      tag_57\n      jump\t// in\n    tag_124:\n        /* \"#utility.yul\":4131:4168   */\n      swap1\n      pop\n        /* \"#utility.yul\":4223:4227   */\n      0x20\n        /* \"#utility.yul\":4217:4221   */\n      dup2\n        /* \"#utility.yul\":4213:4228   */\n      add\n        /* \"#utility.yul\":4205:4228   */\n      swap1\n      pop\n        /* \"#utility.yul\":3927:4235   */\n      swap2\n      swap1\n      pop\n      jump\t// out\n        /* \"#utility.yul\":4241:4389   */\n    tag_62:\n        /* \"#utility.yul\":4339:4345   */\n      dup3\n        /* \"#utility.yul\":4334:4337   */\n      dup2\n        /* \"#utility.yul\":4329:4332   */\n      dup4\n        /* \"#utility.yul\":4316:4346   */\n      calldatacopy\n        /* \"#utility.yul\":4380:4381   */\n      0x00\n        /* \"#utility.yul\":4371:4377   */\n      dup4\n        /* \"#utility.yul\":4366:4369   */\n      dup4\n        /* \"#utility.yul\":4362:4378   */\n      add\n        /* \"#utility.yul\":4355:4382   */\n      mstore\n        /* \"#utility.yul\":4241:4389   */\n      pop\n      pop\n      pop\n      jump\t// out\n        /* \"#utility.yul\":4395:4820   */\n    tag_63:\n        /* \"#utility.yul\":4473:4478   */\n      0x00\n        /* \"#utility.yul\":4498:4564   */\n      tag_127\n        /* \"#utility.yul\":4514:4563   */\n      tag_128\n        /* \"#utility.yul\":4556:4562   */\n      dup5\n        /* \"#utility.yul\":4514:4563   */\n      tag_61\n      jump\t// in\n    tag_128:\n        /* \"#utility.yul\":4498:4564   */\n      tag_60\n      jump\t// in\n    tag_127:\n        /* \"#utility.yul\":4489:4564   */\n      swap1\n      pop\n        /* \"#utility.yul\":4587:4593   */\n      dup3\n        /* \"#utility.yul\":4580:4585   */\n      dup2\n        /* \"#utility.yul\":4573:4594   */\n      mstore\n        /* \"#utility.yul\":4625:4629   */\n      0x20\n        /* \"#utility.yul\":4618:4623   */\n      dup2\n        /* \"#utility.yul\":4614:4630   */\n      add\n        /* \"#utility.yul\":4663:4666   */\n      dup5\n        /* \"#utility.yul\":4654:4660   */\n      dup5\n        /* \"#utility.yul\":4649:4652   */\n      dup5\n        /* \"#utility.yul\":4645:4661   */\n      add\n        /* \"#utility.yul\":4642:4667   */\n      gt\n        /* \"#utility.yul\":4639:4751   */\n      iszero\n      tag_129\n      jumpi\n        /* \"#utility.yul\":4670:4749   */\n      tag_130\n      tag_56\n      jump\t// in\n    tag_130:\n        /* \"#utility.yul\":4639:4751   */\n    tag_129:\n        /* \"#utility.yul\":4760:4814   */\n      tag_131\n        /* \"#utility.yul\":4807:4813   */\n      dup5\n        /* \"#utility.yul\":4802:4805   */\n      dup3\n        /* \"#utility.yul\":4797:4800   */\n      dup6\n        /* \"#utility.yul\":4760:4814   */\n      tag_62\n      jump\t// in\n    tag_131:\n        /* \"#utility.yul\":4479:4820   */\n      pop\n        /* \"#utility.yul\":4395:4820   */\n      swap4\n      swap3\n      pop\n      pop\n      pop\n      jump\t// out\n        /* \"#utility.yul\":4840:5180   */\n    tag_64:\n        /* \"#utility.yul\":4896:4901   */\n      0x00\n        /* \"#utility.yul\":4945:4948   */\n      dup3\n        /* \"#utility.yul\":4938:4942   */\n      0x1f\n        /* \"#utility.yul\":4930:4936   */\n      dup4\n        /* \"#utility.yul\":4926:4943   */\n      add\n        /* \"#utility.yul\":4922:4949   */\n      slt\n        /* \"#utility.yul\":4912:5034   */\n      tag_133\n      jumpi\n        /* \"#utility.yul\":4953:5032   */\n      tag_134\n      tag_46\n      jump\t// in\n    tag_134:\n        /* \"#utility.yul\":4912:5034   */\n    tag_133:\n        /* \"#utility.yul\":5070:5076   */\n      dup2\n        /* \"#utility.yul\":5057:5077   */\n      calldataload\n        /* \"#utility.yul\":5095:5174   */\n      tag_135\n        /* \"#utility.yul\":5170:5173   */\n      dup5\n        /* \"#utility.yul\":5162:5168   */\n      dup3\n        /* \"#utility.yul\":5155:5159   */\n      0x20\n        /* \"#utility.yul\":5147:5153   */\n      dup7\n        /* \"#utility.yul\":5143:5160   */\n      add\n        /* \"#utility.yul\":5095:5174   */\n      tag_63\n      jump\t// in\n    tag_135:\n        /* \"#utility.yul\":5086:5174   */\n      swap2\n      pop\n        /* \"#utility.yul\":4902:5180   */\n      pop\n        /* \"#utility.yul\":4840:5180   */\n      swap3\n      swap2\n      pop\n      pop\n      jump\t// out\n        /* \"#utility.yul\":5186:5695   */\n    tag_23:\n        /* \"#utility.yul\":5255:5261   */\n      0x00\n        /* \"#utility.yul\":5304:5306   */\n      0x20\n        /* \"#utility.yul\":5292:5301   */\n      dup3\n        /* \"#utility.yul\":5283:5290   */\n      dup5\n        /* \"#utility.yul\":5279:5302   */\n      sub\n        /* \"#utility.yul\":5275:5307   */\n      slt\n        /* \"#utility.yul\":5272:5391   */\n      iszero\n      tag_137\n      jumpi\n        /* \"#utility.yul\":5310:5389   */\n      tag_138\n      tag_44\n      jump\t// in\n    tag_138:\n        /* \"#utility.yul\":5272:5391   */\n    tag_137:\n        /* \"#utility.yul\":5458:5459   */\n      0x00\n        /* \"#utility.yul\":5447:5456   */\n      dup3\n        /* \"#utility.yul\":5443:5460   */\n      add\n        /* \"#utility.yul\":5430:5461   */\n      calldataload\n        /* \"#utility.yul\":5488:5506   */\n      0xffffffffffffffff\n        /* \"#utility.yul\":5480:5486   */\n      dup2\n        /* \"#utility.yul\":5477:5507   */\n      gt\n        /* \"#utility.yul\":5474:5591   */\n      iszero\n      tag_139\n      jumpi\n        /* \"#utility.yul\":5510:5589   */\n      tag_140\n      tag_45\n      jump\t// in\n    tag_140:\n        /* \"#utility.yul\":5474:5591   */\n    tag_139:\n        /* \"#utility.yul\":5615:5678   */\n      tag_141\n        /* \"#utility.yul\":5670:5677   */\n      dup5\n        /* \"#utility.yul\":5661:5667   */\n      dup3\n        /* \"#utility.yul\":5650:5659   */\n      dup6\n        /* \"#utility.yul\":5646:5668   */\n      add\n        /* \"#utility.yul\":5615:5678   */\n      tag_64\n      jump\t// in\n    tag_141:\n        /* \"#utility.yul\":5605:5678   */\n      swap2\n      pop\n        /* \"#utility.yul\":5401:5688   */\n      pop\n        /* \"#utility.yul\":5186:5695   */\n      swap3\n      swap2\n      pop\n      pop\n      jump\t// out\n        /* \"#utility.yul\":5701:5819   */\n    tag_65:\n        /* \"#utility.yul\":5788:5812   */\n      tag_143\n        /* \"#utility.yul\":5806:5811   */\n      dup2\n        /* \"#utility.yul\":5788:5812   */\n      tag_51\n      jump\t// in\n    tag_143:\n        /* \"#utility.yul\":5783:5786   */\n      dup3\n        /* \"#utility.yul\":5776:5813   */\n      mstore\n        /* \"#utility.yul\":5701:5819   */\n      pop\n      pop\n      jump\t// out\n        /* \"#utility.yul\":5825:6047   */\n    tag_26:\n        /* \"#utility.yul\":5918:5922   */\n      0x00\n        /* \"#utility.yul\":5956:5958   */\n      0x20\n        /* \"#utility.yul\":5945:5954   */\n      dup3\n        /* \"#utility.yul\":5941:5959   */\n      add\n        /* \"#utility.yul\":5933:5959   */\n      swap1\n      pop\n        /* \"#utility.yul\":5969:6040   */\n      tag_145\n        /* \"#utility.yul\":6037:6038   */\n      0x00\n        /* \"#utility.yul\":6026:6035   */\n      dup4\n        /* \"#utility.yul\":6022:6039   */\n      add\n        /* \"#utility.yul\":6013:6019   */\n      dup5\n        /* \"#utility.yul\":5969:6040   */\n      tag_65\n      jump\t// in\n    tag_145:\n        /* \"#utility.yul\":5825:6047   */\n      swap3\n      swap2\n      pop\n      pop\n      jump\t// out\n        /* \"#utility.yul\":6053:6201   */\n    tag_66:\n        /* \"#utility.yul\":6155:6166   */\n      0x00\n        /* \"#utility.yul\":6192:6195   */\n      dup2\n        /* \"#utility.yul\":6177:6195   */\n      swap1\n      pop\n        /* \"#utility.yul\":6053:6201   */\n      swap3\n      swap2\n      pop\n      pop\n      jump\t// out\n        /* \"#utility.yul\":6231:6561   */\n    tag_67:\n        /* \"#utility.yul\":6347:6350   */\n      0x00\n        /* \"#utility.yul\":6368:6457   */\n      tag_148\n        /* \"#utility.yul\":6450:6456   */\n      dup4\n        /* \"#utility.yul\":6445:6448   */\n      dup6\n        /* \"#utility.yul\":6368:6457   */\n      tag_66\n      jump\t// in\n    tag_148:\n        /* \"#utility.yul\":6361:6457   */\n      swap4\n      pop\n        /* \"#utility.yul\":6467:6523   */\n      tag_149\n        /* \"#utility.yul\":6516:6522   */\n      dup4\n        /* \"#utility.yul\":6511:6514   */\n      dup6\n        /* \"#utility.yul\":6504:6509   */\n      dup5\n        /* \"#utility.yul\":6467:6523   */\n      tag_62\n      jump\t// in\n    tag_149:\n        /* \"#utility.yul\":6548:6554   */\n      dup3\n        /* \"#utility.yul\":6543:6546   */\n      dup5\n        /* \"#utility.yul\":6539:6555   */\n      add\n        /* \"#utility.yul\":6532:6555   */\n      swap1\n      pop\n        /* \"#utility.yul\":6231:6561   */\n      swap4\n      swap3\n      pop\n      pop\n      pop\n      jump\t// out\n        /* \"#utility.yul\":6567:6862   */\n    tag_33:\n        /* \"#utility.yul\":6709:6712   */\n      0x00\n        /* \"#utility.yul\":6731:6836   */\n      tag_151\n        /* \"#utility.yul\":6832:6835   */\n      dup3\n        /* \"#utility.yul\":6823:6829   */\n      dup5\n        /* \"#utility.yul\":6815:6821   */\n      dup7\n        /* \"#utility.yul\":6731:6836   */\n      tag_67\n      jump\t// in\n    tag_151:\n        /* \"#utility.yul\":6724:6836   */\n      swap2\n      pop\n        /* \"#utility.yul\":6853:6856   */\n      dup2\n        /* \"#utility.yul\":6846:6856   */\n      swap1\n      pop\n        /* \"#utility.yul\":6567:6862   */\n      swap4\n      swap3\n      pop\n      pop\n      pop\n      jump\t// out\n        /* \"#utility.yul\":6868:7048   */\n    tag_68:\n        /* \"#utility.yul\":6916:6993   */\n      0x4e487b7100000000000000000000000000000000000000000000000000000000\n        /* \"#utility.yul\":6913:6914   */\n      0x00\n        /* \"#utility.yul\":6906:6994   */\n      mstore\n        /* \"#utility.yul\":7013:7017   */\n      0x11\n        /* \"#utility.yul\":7010:7011   */\n      0x04\n        /* \"#utility.yul\":7003:7018   */\n      mstore\n        /* \"#utility.yul\":7037:7041   */\n      0x24\n        /* \"#utility.yul\":7034:7035   */\n      0x00\n        /* \"#utility.yul\":7027:7042   */\n      revert\n        /* \"#utility.yul\":7054:7287   */\n    tag_37:\n        /* \"#utility.yul\":7093:7096   */\n      0x00\n        /* \"#utility.yul\":7116:7140   */\n      tag_154\n        /* \"#utility.yul\":7134:7139   */\n      dup3\n        /* \"#utility.yul\":7116:7140   */\n      tag_54\n      jump\t// in\n    tag_154:\n        /* \"#utility.yul\":7107:7140   */\n      swap2\n      pop\n        /* \"#utility.yul\":7162:7228   */\n      0xffffffffffffffffffffffffffffffffffffffffffffffffffffffffffffffff\n        /* \"#utility.yul\":7155:7160   */\n      dup3\n        /* \"#utility.yul\":7152:7229   */\n      sub\n        /* \"#utility.yul\":7149:7252   */\n      tag_155\n      jumpi\n        /* \"#utility.yul\":7232:7250   */\n      tag_156\n      tag_68\n      jump\t// in\n    tag_156:\n        /* \"#utility.yul\":7149:7252   */\n    tag_155:\n        /* \"#utility.yul\":7279:7280   */\n      0x01\n        /* \"#utility.yul\":7272:7277   */\n      dup3\n        /* \"#utility.yul\":7268:7281   */\n      add\n        /* \"#utility.yul\":7261:7281   */\n      swap1\n      pop\n        /* \"#utility.yul\":7054:7287   */\n      swap2\n      swap1\n      pop\n      jump\t// out\n        /* \"#utility.yul\":7293:7473   */\n    tag_69:\n        /* \"#utility.yul\":7341:7418   */\n      0x4e487b7100000000000000000000000000000000000000000000000000000000\n        /* \"#utility.yul\":7338:7339   */\n      0x00\n        /* \"#utility.yul\":7331:7419   */\n      mstore\n        /* \"#utility.yul\":7438:7442   */\n      0x21\n        /* \"#utility.yul\":7435:7436   */\n      0x04\n        /* \"#utility.yul\":7428:7443   */\n      mstore\n        /* \"#utility.yul\":7462:7466   */\n      0x24\n        /* \"#utility.yul\":7459:7460   */\n      0x00\n        /* \"#utility.yul\":7452:7467   */\n      revert\n        /* \"#utility.yul\":7479:7609   */\n    tag_70:\n        /* \"#utility.yul\":7577:7578   */\n      0x04\n        /* \"#utility.yul\":7570:7575   */\n      dup2\n        /* \"#utility.yul\":7567:7579   */\n      lt\n        /* \"#utility.yul\":7557:7603   */\n      tag_159\n      jumpi\n        /* \"#utility.yul\":7583:7601   */\n      tag_160\n      tag_69\n      jump\t// in\n    tag_160:\n        /* \"#utility.yul\":7557:7603   */\n    tag_159:\n        /* \"#utility.yul\":7479:7609   */\n      pop\n      jump\t// out\n        /* \"#utility.yul\":7615:7776   */\n    tag_71:\n        /* \"#utility.yul\":7677:7684   */\n      0x00\n        /* \"#utility.yul\":7706:7711   */\n      dup2\n        /* \"#utility.yul\":7695:7711   */\n      swap1\n      pop\n        /* \"#utility.yul\":7712:7770   */\n      tag_162\n        /* \"#utility.yul\":7764:7769   */\n      dup3\n        /* \"#utility.yul\":7712:7770   */\n      tag_70\n      jump\t// in\n    tag_162:\n        /* \"#utility.yul\":7615:7776   */\n      swap2\n      swap1\n      pop\n      jump\t// out\n        /* \"#utility.yul\":7782:7943   */\n    tag_72:\n        /* \"#utility.yul\":7855:7864   */\n      0x00\n        /* \"#utility.yul\":7888:7937   */\n      tag_164\n        /* \"#utility.yul\":7931:7936   */\n      dup3\n        /* \"#utility.yul\":7888:7937   */\n      tag_71\n      jump\t// in\n    tag_164:\n        /* \"#utility.yul\":7875:7937   */\n      swap1\n      pop\n        /* \"#utility.yul\":7782:7943   */\n      swap2\n      swap1\n      pop\n      jump\t// out\n        /* \"#utility.yul\":7949:8126   */\n    tag_73:\n        /* \"#utility.yul\":8059:8119   */\n      tag_166\n        /* \"#utility.yul\":8113:8118   */\n      dup2\n        /* \"#utility.yul\":8059:8119   */\n      tag_72\n      jump\t// in\n    tag_166:\n        /* \"#utility.yul\":8054:8057   */\n      dup3\n        /* \"#utility.yul\":8047:8120   */\n      mstore\n        /* \"#utility.yul\":7949:8126   */\n      pop\n      pop\n      jump\t// out\n        /* \"#utility.yul\":8132:8400   */\n    tag_42:\n        /* \"#utility.yul\":8248:8252   */\n      0x00\n        /* \"#utility.yul\":8286:8288   */\n      0x20\n        /* \"#utility.yul\":8275:8284   */\n      dup3\n        /* \"#utility.yul\":8271:8289   */\n      add\n        /* \"#utility.yul\":8263:8289   */\n      swap1\n      pop\n        /* \"#utility.yul\":8299:8393   */\n      tag_168\n        /* \"#utility.yul\":8390:8391   */\n      0x00\n        /* \"#utility.yul\":8379:8388   */\n      dup4\n        /* \"#utility.yul\":8375:8392   */\n      add\n        /* \"#utility.yul\":8366:8372   */\n      dup5\n        /* \"#utility.yul\":8299:8393   */\n      tag_73\n      jump\t// in\n    tag_168:\n        /* \"#utility.yul\":8132:8400   */\n      swap3\n      swap2\n      pop\n      pop\n      jump\t// out\n\n    auxdata: 0xa2646970667358221220cf06cfe018ef58468fbb3051204a2331540a666870667927513e9c71dc141e7c64736f6c634300081a0033\n}\n",
				"bytecode": {
					"linkReferences": {},
					"object": "6080604052348015600e575f80fd5b5061092d8061001c5f395ff3fe608060405234801561000f575f80fd5b5060043610610055575f3560e01c806307ba86a3146100595780633e9893a61461007557806374ef7c01146100a557806394ac1739146100c3578063952ca92c146100f3575b5f80fd5b610073600480360381019061006e9190610509565b610123565b005b61008f600480360381019061008a91906105ae565b610421565b60405161009c91906105f1565b60405180910390f35b6100ad610436565b6040516100ba91906105f1565b60405180910390f35b6100dd60048036038101906100d89190610742565b61043b565b6040516100ea9190610798565b60405180910390f35b61010d600480360381019061010891906105ae565b610482565b60405161011a91906105f1565b60405180910390f35b5f73ffffffffffffffffffffffffffffffffffffffff165f838360405161014b9291906107df565b90815260200160405180910390205f9054906101000a900473ffffffffffffffffffffffffffffffffffffffff1673ffffffffffffffffffffffffffffffffffffffff16146101c6576040517fbee442f600000000000000000000000000000000000000000000000000000000815260040160405180910390fd5b60015f3373ffffffffffffffffffffffffffffffffffffffff1673ffffffffffffffffffffffffffffffffffffffff1681526020019081526020015f2054431461028f574360015f3373ffffffffffffffffffffffffffffffffffffffff1673ffffffffffffffffffffffffffffffffffffffff1681526020019081526020015f20819055505f60025f3373ffffffffffffffffffffffffffffffffffffffff1673ffffffffffffffffffffffffffffffffffffffff1681526020019081526020015f20819055505b60025f3373ffffffffffffffffffffffffffffffffffffffff1673ffffffffffffffffffffffffffffffffffffffff1681526020019081526020015f205f8154809291906102dc90610824565b9190505550600560025f3373ffffffffffffffffffffffffffffffffffffffff1673ffffffffffffffffffffffffffffffffffffffff1681526020019081526020015f20541115610359576040517fe696360c00000000000000000000000000000000000000000000000000000000815260040160405180910390fd5b335f838360405161036b9291906107df565b90815260200160405180910390205f6101000a81548173ffffffffffffffffffffffffffffffffffffffff021916908373ffffffffffffffffffffffffffffffffffffffff1602179055503373ffffffffffffffffffffffffffffffffffffffff1682826040516103dd9291906107df565b60405180910390207f4d6becea700c444e6bf1369d20e2a71ad2bf2cd21e911486b32e7d4af98d332f600260405161041591906108de565b60405180910390a35050565b6002602052805f5260405f205f915090505481565b600581565b5f818051602081018201805184825260208301602085012081835280955050505050505f915054906101000a900473ffffffffffffffffffffffffffffffffffffffff1681565b6001602052805f5260405f205f915090505481565b5f604051905090565b5f80fd5b5f80fd5b5f80fd5b5f80fd5b5f80fd5b5f8083601f8401126104c9576104c86104a8565b5b8235905067ffffffffffffffff8111156104e6576104e56104ac565b5b602083019150836001820283011115610502576105016104b0565b5b9250929050565b5f806020838503121561051f5761051e6104a0565b5b5f83013567ffffffffffffffff81111561053c5761053b6104a4565b5b610548858286016104b4565b92509250509250929050565b5f73ffffffffffffffffffffffffffffffffffffffff82169050919050565b5f61057d82610554565b9050919050565b61058d81610573565b8114610597575f80fd5b50565b5f813590506105a881610584565b92915050565b5f602082840312156105c3576105c26104a0565b5b5f6105d08482850161059a565b91505092915050565b5f819050919050565b6105eb816105d9565b82525050565b5f6020820190506106045f8301846105e2565b92915050565b5f80fd5b5f601f19601f8301169050919050565b7f4e487b71000000000000000000000000000000000000000000000000000000005f52604160045260245ffd5b6106548261060e565b810181811067ffffffffffffffff821117156106735761067261061e565b5b80604052505050565b5f610685610497565b9050610691828261064b565b919050565b5f67ffffffffffffffff8211156106b0576106af61061e565b5b6106b98261060e565b9050602081019050919050565b828183375f83830152505050565b5f6106e66106e184610696565b61067c565b9050828152602081018484840111156107025761070161060a565b5b61070d8482856106c6565b509392505050565b5f82601f830112610729576107286104a8565b5b81356107398482602086016106d4565b91505092915050565b5f60208284031215610757576107566104a0565b5b5f82013567ffffffffffffffff811115610774576107736104a4565b5b61078084828501610715565b91505092915050565b61079281610573565b82525050565b5f6020820190506107ab5f830184610789565b92915050565b5f81905092915050565b5f6107c683856107b1565b93506107d38385846106c6565b82840190509392505050565b5f6107eb8284866107bb565b91508190509392505050565b7f4e487b71000000000000000000000000000000000000000000000000000000005f52601160045260245ffd5b5f61082e826105d9565b91507fffffffffffffffffffffffffffffffffffffffffffffffffffffffffffffffff82036108605761085f6107f7565b5b600182019050919050565b7f4e487b71000000000000000000000000000000000000000000000000000000005f52602160045260245ffd5b600481106108a9576108a861086b565b5b50565b5f8190506108b982610898565b919050565b5f6108c8826108ac565b9050919050565b6108d8816108be565b82525050565b5f6020820190506108f15f8301846108cf565b9291505056fea2646970667358221220cf06cfe018ef58468fbb3051204a2331540a666870667927513e9c71dc141e7c64736f6c634300081a0033",
					"opcodes": "PUSH1 0x80 PUSH1 0x40 MSTORE CALLVALUE DUP1 ISZERO PUSH1 0xE JUMPI PUSH0 DUP1 REVERT JUMPDEST POP PUSH2 0x92D DUP1 PUSH2 0x1C PUSH0 CODECOPY PUSH0 RETURN INVALID PUSH1 0x80 PUSH1 0x40 MSTORE CALLVALUE DUP1 ISZERO PUSH2 0xF JUMPI PUSH0 DUP1 REVERT JUMPDEST POP PUSH1 0x4 CALLDATASIZE LT PUSH2 0x55 JUMPI PUSH0 CALLDATALOAD PUSH1 0xE0 SHR DUP1 PUSH4 0x7BA86A3 EQ PUSH2 0x59 JUMPI DUP1 PUSH4 0x3E9893A6 EQ PUSH2 0x75 JUMPI DUP1 PUSH4 0x74EF7C01 EQ PUSH2 0xA5 JUMPI DUP1 PUSH4 0x94AC1739 EQ PUSH2 0xC3 JUMPI DUP1 PUSH4 0x952CA92C EQ PUSH2 0xF3 JUMPI JUMPDEST PUSH0 DUP1 REVERT JUMPDEST PUSH2 0x73 PUSH1 0x4 DUP1 CALLDATASIZE SUB DUP2 ADD SWAP1 PUSH2 0x6E SWAP2 SWAP1 PUSH2 0x509 JUMP JUMPDEST PUSH2 0x123 JUMP JUMPDEST STOP JUMPDEST PUSH2 0x8F PUSH1 0x4 DUP1 CALLDATASIZE SUB DUP2 ADD SWAP1 PUSH2 0x8A SWAP2 SWAP1 PUSH2 0x5AE JUMP JUMPDEST PUSH2 0x421 JUMP JUMPDEST PUSH1 0x40 MLOAD PUSH2 0x9C SWAP2 SWAP1 PUSH2 0x5F1 JUMP JUMPDEST PUSH1 0x40 MLOAD DUP1 SWAP2 SUB SWAP1 RETURN JUMPDEST PUSH2 0xAD PUSH2 0x436 JUMP JUMPDEST PUSH1 0x40 MLOAD PUSH2 0xBA SWAP2 SWAP1 PUSH2 0x5F1 JUMP JUMPDEST PUSH1 0x40 MLOAD DUP1 SWAP2 SUB SWAP1 RETURN JUMPDEST PUSH2 0xDD PUSH1 0x4 DUP1 CALLDATASIZE SUB DUP2 ADD SWAP1 PUSH2 0xD8 SWAP2 SWAP1 PUSH2 0x742 JUMP JUMPDEST PUSH2 0x43B JUMP JUMPDEST PUSH1 0x40 MLOAD PUSH2 0xEA SWAP2 SWAP1 PUSH2 0x798 JUMP JUMPDEST PUSH1 0x40 MLOAD DUP1 SWAP2 SUB SWAP1 RETURN JUMPDEST PUSH2 0x10D PUSH1 0x4 DUP1 CALLDATASIZE SUB DUP2 ADD SWAP1 PUSH2 0x108 SWAP2 SWAP1 PUSH2 0x5AE JUMP JUMPDEST PUSH2 0x482 JUMP JUMPDEST PUSH1 0x40 MLOAD PUSH2 0x11A SWAP2 SWAP1 PUSH2 0x5F1 JUMP JUMPDEST PUSH1 0x40 MLOAD DUP1 SWAP2 SUB SWAP1 RETURN JUMPDEST PUSH0 PUSH20 0xFFFFFFFFFFFFFFFFFFFFFFFFFFFFFFFFFFFFFFFF AND PUSH0 DUP4 DUP4 PUSH1 0x40 MLOAD PUSH2 0x14B SWAP3 SWAP2 SWAP1 PUSH2 0x7DF JUMP JUMPDEST SWAP1 DUP2 MSTORE PUSH1 0x20 ADD PUSH1 0x40 MLOAD DUP1 SWAP2 SUB SWAP1 KECCAK256 PUSH0 SWAP1 SLOAD SWAP1 PUSH2 0x100 EXP SWAP1 DIV PUSH20 0xFFFFFFFFFFFFFFFFFFFFFFFFFFFFFFFFFFFFFFFF AND PUSH20 0xFFFFFFFFFFFFFFFFFFFFFFFFFFFFFFFFFFFFFFFF AND EQ PUSH2 0x1C6 JUMPI PUSH1 0x40 MLOAD PUSH32 0xBEE442F600000000000000000000000000000000000000000000000000000000 DUP2 MSTORE PUSH1 0x4 ADD PUSH1 0x40 MLOAD DUP1 SWAP2 SUB SWAP1 REVERT JUMPDEST PUSH1 0x1 PUSH0 CALLER PUSH20 0xFFFFFFFFFFFFFFFFFFFFFFFFFFFFFFFFFFFFFFFF AND PUSH20 0xFFFFFFFFFFFFFFFFFFFFFFFFFFFFFFFFFFFFFFFF AND DUP2 MSTORE PUSH1 0x20 ADD SWAP1 DUP2 MSTORE PUSH1 0x20 ADD PUSH0 KECCAK256 SLOAD NUMBER EQ PUSH2 0x28F JUMPI NUMBER PUSH1 0x1 PUSH0 CALLER PUSH20 0xFFFFFFFFFFFFFFFFFFFFFFFFFFFFFFFFFFFFFFFF AND PUSH20 0xFFFFFFFFFFFFFFFFFFFFFFFFFFFFFFFFFFFFFFFF AND DUP2 MSTORE PUSH1 0x20 ADD SWAP1 DUP2 MSTORE PUSH1 0x20 ADD PUSH0 KECCAK256 DUP2 SWAP1 SSTORE POP PUSH0 PUSH1 0x2 PUSH0 CALLER PUSH20 0xFFFFFFFFFFFFFFFFFFFFFFFFFFFFFFFFFFFFFFFF AND PUSH20 0xFFFFFFFFFFFFFFFFFFFFFFFFFFFFFFFFFFFFFFFF AND DUP2 MSTORE PUSH1 0x20 ADD SWAP1 DUP2 MSTORE PUSH1 0x20 ADD PUSH0 KECCAK256 DUP2 SWAP1 SSTORE POP JUMPDEST PUSH1 0x2 PUSH0 CALLER PUSH20 0xFFFFFFFFFFFFFFFFFFFFFFFFFFFFFFFFFFFFFFFF AND PUSH20 0xFFFFFFFFFFFFFFFFFFFFFFFFFFFFFFFFFFFFFFFF AND DUP2 MSTORE PUSH1 0x20 ADD SWAP1 DUP2 MSTORE PUSH1 0x20 ADD PUSH0 KECCAK256 PUSH0 DUP2 SLOAD DUP1 SWAP3 SWAP2 SWAP1 PUSH2 0x2DC SWAP1 PUSH2 0x824 JUMP JUMPDEST SWAP2 SWAP1 POP SSTORE POP PUSH1 0x5 PUSH1 0x2 PUSH0 CALLER PUSH20 0xFFFFFFFFFFFFFFFFFFFFFFFFFFFFFFFFFFFFFFFF AND PUSH20 0xFFFFFFFFFFFFFFFFFFFFFFFFFFFFFFFFFFFFFFFF AND DUP2 MSTORE PUSH1 0x20 ADD SWAP1 DUP2 MSTORE PUSH1 0x20 ADD PUSH0 KECCAK256 SLOAD GT ISZERO PUSH2 0x359 JUMPI PUSH1 0x40 MLOAD PUSH32 0xE696360C00000000000000000000000000000000000000000000000000000000 DUP2 MSTORE PUSH1 0x4 ADD PUSH1 0x40 MLOAD DUP1 SWAP2 SUB SWAP1 REVERT JUMPDEST CALLER PUSH0 DUP4 DUP4 PUSH1 0x40 MLOAD PUSH2 0x36B SWAP3 SWAP2 SWAP1 PUSH2 0x7DF JUMP JUMPDEST SWAP1 DUP2 MSTORE PUSH1 0x20 ADD PUSH1 0x40 MLOAD DUP1 SWAP2 SUB SWAP1 KECCAK256 PUSH0 PUSH2 0x100 EXP DUP2 SLOAD DUP2 PUSH20 0xFFFFFFFFFFFFFFFFFFFFFFFFFFFFFFFFFFFFFFFF MUL NOT AND SWAP1 DUP4 PUSH20 0xFFFFFFFFFFFFFFFFFFFFFFFFFFFFFFFFFFFFFFFF AND MUL OR SWAP1 SSTORE POP CALLER PUSH20 0xFFFFFFFFFFFFFFFFFFFFFFFFFFFFFFFFFFFFFFFF AND DUP3 DUP3 PUSH1 0x40 MLOAD PUSH2 0x3DD SWAP3 SWAP2 SWAP1 PUSH2 0x7DF JUMP JUMPDEST PUSH1 0x40 MLOAD DUP1 SWAP2 SUB SWAP1 KECCAK256 PUSH32 0x4D6BECEA700C444E6BF1369D20E2A71AD2BF2CD21E911486B32E7D4AF98D332F PUSH1 0x2 PUSH1 0x40 MLOAD PUSH2 0x415 SWAP2 SWAP1 PUSH2 0x8DE JUMP JUMPDEST PUSH1 0x40 MLOAD DUP1 SWAP2 SUB SWAP1 LOG3 POP POP JUMP JUMPDEST PUSH1 0x2 PUSH1 0x20 MSTORE DUP1 PUSH0 MSTORE PUSH1 0x40 PUSH0 KECCAK256 PUSH0 SWAP2 POP SWAP1 POP SLOAD DUP2 JUMP JUMPDEST PUSH1 0x5 DUP2 JUMP JUMPDEST PUSH0 DUP2 DUP1 MLOAD PUSH1 0x20 DUP2 ADD DUP3 ADD DUP1 MLOAD DUP5 DUP3 MSTORE PUSH1 0x20 DUP4 ADD PUSH1 0x20 DUP6 ADD KECCAK256 DUP2 DUP4 MSTORE DUP1 SWAP6 POP POP POP POP POP POP PUSH0 SWAP2 POP SLOAD SWAP1 PUSH2 0x100 EXP SWAP1 DIV PUSH20 0xFFFFFFFFFFFFFFFFFFFFFFFFFFFFFFFFFFFFFFFF AND DUP2 JUMP JUMPDEST PUSH1 0x1 PUSH1 0x20 MSTORE DUP1 PUSH0 MSTORE PUSH1 0x40 PUSH0 KECCAK256 PUSH0 SWAP2 POP SWAP1 POP SLOAD DUP2 JUMP JUMPDEST PUSH0 PUSH1 0x40 MLOAD SWAP1 POP SWAP1 JUMP JUMPDEST PUSH0 DUP1 REVERT JUMPDEST PUSH0 DUP1 REVERT JUMPDEST PUSH0 DUP1 REVERT JUMPDEST PUSH0 DUP1 REVERT JUMPDEST PUSH0 DUP1 REVERT JUMPDEST PUSH0 DUP1 DUP4 PUSH1 0x1F DUP5 ADD SLT PUSH2 0x4C9 JUMPI PUSH2 0x4C8 PUSH2 0x4A8 JUMP JUMPDEST JUMPDEST DUP3 CALLDATALOAD SWAP1 POP PUSH8 0xFFFFFFFFFFFFFFFF DUP2 GT ISZERO PUSH2 0x4E6 JUMPI PUSH2 0x4E5 PUSH2 0x4AC JUMP JUMPDEST JUMPDEST PUSH1 0x20 DUP4 ADD SWAP2 POP DUP4 PUSH1 0x1 DUP3 MUL DUP4 ADD GT ISZERO PUSH2 0x502 JUMPI PUSH2 0x501 PUSH2 0x4B0 JUMP JUMPDEST JUMPDEST SWAP3 POP SWAP3 SWAP1 POP JUMP JUMPDEST PUSH0 DUP1 PUSH1 0x20 DUP4 DUP6 SUB SLT ISZERO PUSH2 0x51F JUMPI PUSH2 0x51E PUSH2 0x4A0 JUMP JUMPDEST JUMPDEST PUSH0 DUP4 ADD CALLDATALOAD PUSH8 0xFFFFFFFFFFFFFFFF DUP2 GT ISZERO PUSH2 0x53C JUMPI PUSH2 0x53B PUSH2 0x4A4 JUMP JUMPDEST JUMPDEST PUSH2 0x548 DUP6 DUP3 DUP7 ADD PUSH2 0x4B4 JUMP JUMPDEST SWAP3 POP SWAP3 POP POP SWAP3 POP SWAP3 SWAP1 POP JUMP JUMPDEST PUSH0 PUSH20 0xFFFFFFFFFFFFFFFFFFFFFFFFFFFFFFFFFFFFFFFF DUP3 AND SWAP1 POP SWAP2 SWAP1 POP JUMP JUMPDEST PUSH0 PUSH2 0x57D DUP3 PUSH2 0x554 JUMP JUMPDEST SWAP1 POP SWAP2 SWAP1 POP JUMP JUMPDEST PUSH2 0x58D DUP2 PUSH2 0x573 JUMP JUMPDEST DUP2 EQ PUSH2 0x597 JUMPI PUSH0 DUP1 REVERT JUMPDEST POP JUMP JUMPDEST PUSH0 DUP2 CALLDATALOAD SWAP1 POP PUSH2 0x5A8 DUP2 PUSH2 0x584 JUMP JUMPDEST SWAP3 SWAP2 POP POP JUMP JUMPDEST PUSH0 PUSH1 0x20 DUP3 DUP5 SUB SLT ISZERO PUSH2 0x5C3 JUMPI PUSH2 0x5C2 PUSH2 0x4A0 JUMP JUMPDEST JUMPDEST PUSH0 PUSH2 0x5D0 DUP5 DUP3 DUP6 ADD PUSH2 0x59A JUMP JUMPDEST SWAP2 POP POP SWAP3 SWAP2 POP POP JUMP JUMPDEST PUSH0 DUP2 SWAP1 POP SWAP2 SWAP1 POP JUMP JUMPDEST PUSH2 0x5EB DUP2 PUSH2 0x5D9 JUMP JUMPDEST DUP3 MSTORE POP POP JUMP JUMPDEST PUSH0 PUSH1 0x20 DUP3 ADD SWAP1 POP PUSH2 0x604 PUSH0 DUP4 ADD DUP5 PUSH2 0x5E2 JUMP JUMPDEST SWAP3 SWAP2 POP POP JUMP JUMPDEST PUSH0 DUP1 REVERT JUMPDEST PUSH0 PUSH1 0x1F NOT PUSH1 0x1F DUP4 ADD AND SWAP1 POP SWAP2 SWAP1 POP JUMP JUMPDEST PUSH32 0x4E487B7100000000000000000000000000000000000000000000000000000000 PUSH0 MSTORE PUSH1 0x41 PUSH1 0x4 MSTORE PUSH1 0x24 PUSH0 REVERT JUMPDEST PUSH2 0x654 DUP3 PUSH2 0x60E JUMP JUMPDEST DUP2 ADD DUP2 DUP2 LT PUSH8 0xFFFFFFFFFFFFFFFF DUP3 GT OR ISZERO PUSH2 0x673 JUMPI PUSH2 0x672 PUSH2 0x61E JUMP JUMPDEST JUMPDEST DUP1 PUSH1 0x40 MSTORE POP POP POP JUMP JUMPDEST PUSH0 PUSH2 0x685 PUSH2 0x497 JUMP JUMPDEST SWAP1 POP PUSH2 0x691 DUP3 DUP3 PUSH2 0x64B JUMP JUMPDEST SWAP2 SWAP1 POP JUMP JUMPDEST PUSH0 PUSH8 0xFFFFFFFFFFFFFFFF DUP3 GT ISZERO PUSH2 0x6B0 JUMPI PUSH2 0x6AF PUSH2 0x61E JUMP JUMPDEST JUMPDEST PUSH2 0x6B9 DUP3 PUSH2 0x60E JUMP JUMPDEST SWAP1 POP PUSH1 0x20 DUP2 ADD SWAP1 POP SWAP2 SWAP1 POP JUMP JUMPDEST DUP3 DUP2 DUP4 CALLDATACOPY PUSH0 DUP4 DUP4 ADD MSTORE POP POP POP JUMP JUMPDEST PUSH0 PUSH2 0x6E6 PUSH2 0x6E1 DUP5 PUSH2 0x696 JUMP JUMPDEST PUSH2 0x67C JUMP JUMPDEST SWAP1 POP DUP3 DUP2 MSTORE PUSH1 0x20 DUP2 ADD DUP5 DUP5 DUP5 ADD GT ISZERO PUSH2 0x702 JUMPI PUSH2 0x701 PUSH2 0x60A JUMP JUMPDEST JUMPDEST PUSH2 0x70D DUP5 DUP3 DUP6 PUSH2 0x6C6 JUMP JUMPDEST POP SWAP4 SWAP3 POP POP POP JUMP JUMPDEST PUSH0 DUP3 PUSH1 0x1F DUP4 ADD SLT PUSH2 0x729 JUMPI PUSH2 0x728 PUSH2 0x4A8 JUMP JUMPDEST JUMPDEST DUP2 CALLDATALOAD PUSH2 0x739 DUP5 DUP3 PUSH1 0x20 DUP7 ADD PUSH2 0x6D4 JUMP JUMPDEST SWAP2 POP POP SWAP3 SWAP2 POP POP JUMP JUMPDEST PUSH0 PUSH1 0x20 DUP3 DUP5 SUB SLT ISZERO PUSH2 0x757 JUMPI PUSH2 0x756 PUSH2 0x4A0 JUMP JUMPDEST JUMPDEST PUSH0 DUP3 ADD CALLDATALOAD PUSH8 0xFFFFFFFFFFFFFFFF DUP2 GT ISZERO PUSH2 0x774 JUMPI PUSH2 0x773 PUSH2 0x4A4 JUMP JUMPDEST JUMPDEST PUSH2 0x780 DUP5 DUP3 DUP6 ADD PUSH2 0x715 JUMP JUMPDEST SWAP2 POP POP SWAP3 SWAP2 POP POP JUMP JUMPDEST PUSH2 0x792 DUP2 PUSH2 0x573 JUMP JUMPDEST DUP3 MSTORE POP POP JUMP JUMPDEST PUSH0 PUSH1 0x20 DUP3 ADD SWAP1 POP PUSH2 0x7AB PUSH0 DUP4 ADD DUP5 PUSH2 0x789 JUMP JUMPDEST SWAP3 SWAP2 POP POP JUMP JUMPDEST PUSH0 DUP2 SWAP1 POP SWAP3 SWAP2 POP POP JUMP JUMPDEST PUSH0 PUSH2 0x7C6 DUP4 DUP6 PUSH2 0x7B1 JUMP JUMPDEST SWAP4 POP PUSH2 0x7D3 DUP4 DUP6 DUP5 PUSH2 0x6C6 JUMP JUMPDEST DUP3 DUP5 ADD SWAP1 POP SWAP4 SWAP3 POP POP POP JUMP JUMPDEST PUSH0 PUSH2 0x7EB DUP3 DUP5 DUP7 PUSH2 0x7BB JUMP JUMPDEST SWAP2 POP DUP2 SWAP1 POP SWAP4 SWAP3 POP POP POP JUMP JUMPDEST PUSH32 0x4E487B7100000000000000000000000000000000000000000000000000000000 PUSH0 MSTORE PUSH1 0x11 PUSH1 0x4 MSTORE PUSH1 0x24 PUSH0 REVERT JUMPDEST PUSH0 PUSH2 0x82E DUP3 PUSH2 0x5D9 JUMP JUMPDEST SWAP2 POP PUSH32 0xFFFFFFFFFFFFFFFFFFFFFFFFFFFFFFFFFFFFFFFFFFFFFFFFFFFFFFFFFFFFFFFF DUP3 SUB PUSH2 0x860 JUMPI PUSH2 0x85F PUSH2 0x7F7 JUMP JUMPDEST JUMPDEST PUSH1 0x1 DUP3 ADD SWAP1 POP SWAP2 SWAP1 POP JUMP JUMPDEST PUSH32 0x4E487B7100000000000000000000000000000000000000000000000000000000 PUSH0 MSTORE PUSH1 0x21 PUSH1 0x4 MSTORE PUSH1 0x24 PUSH0 REVERT JUMPDEST PUSH1 0x4 DUP2 LT PUSH2 0x8A9 JUMPI PUSH2 0x8A8 PUSH2 0x86B JUMP JUMPDEST JUMPDEST POP JUMP JUMPDEST PUSH0 DUP2 SWAP1 POP PUSH2 0x8B9 DUP3 PUSH2 0x898 JUMP JUMPDEST SWAP2 SWAP1 POP JUMP JUMPDEST PUSH0 PUSH2 0x8C8 DUP3 PUSH2 0x8AC JUMP JUMPDEST SWAP1 POP SWAP2 SWAP1 POP JUMP JUMPDEST PUSH2 0x8D8 DUP2 PUSH2 0x8BE JUMP JUMPDEST DUP3 MSTORE POP POP JUMP JUMPDEST PUSH0 PUSH1 0x20 DUP3 ADD SWAP1 POP PUSH2 0x8F1 PUSH0 DUP4 ADD DUP5 PUSH2 0x8CF JUMP JUMPDEST SWAP3 SWAP2 POP POP JUMP INVALID LOG2 PUSH5 0x6970667358 0x22 SLT KECCAK256 0xCF MOD 0xCF 0xE0 XOR 0xEF PC CHAINID DUP16 0xBB ADDRESS MLOAD KECCAK256 BLOBBASEFEE 0x23 BALANCE SLOAD EXP PUSH7 0x6870667927513E SWAP13 PUSH18 0xDC141E7C64736F6C634300081A0033000000 "
				},
				"gasEstimates": {
					"creation": {
						"codeDepositCost": "469800",
						"executionCost": "503",
						"totalCost": "470303"
					},
					"external": {
						"MAX_MARKS_PER_BLOCK()": "347",
						"chalks(string)": "infinite",
						"countInBlock(address)": "2802",
						"lastBlock(address)": "2868",
						"mark(string)": "infinite"
					}
				},
				"methodIdentifiers": {
					"MAX_MARKS_PER_BLOCK()": "74ef7c01",
					"chalks(string)": "94ac1739",
					"countInBlock(address)": "3e9893a6",
					"lastBlock(address)": "952ca92c",
					"mark(string)": "07ba86a3"
				}
			},
			"storageLayout": {
				"storage": [
					{
						"astId": 177,
						"contract": "W/War Chalking/War Chalking.sol:WarChalkingSafeAdvanced",
						"label": "chalks",
						"offset": 0,
						"slot": "0",
						"type": "t_mapping(t_string_memory_ptr,t_address)"
					},
					{
						"astId": 181,
						"contract": "W/War Chalking/War Chalking.sol:WarChalkingSafeAdvanced",
						"label": "lastBlock",
						"offset": 0,
						"slot": "1",
						"type": "t_mapping(t_address,t_uint256)"
					},
					{
						"astId": 185,
						"contract": "W/War Chalking/War Chalking.sol:WarChalkingSafeAdvanced",
						"label": "countInBlock",
						"offset": 0,
						"slot": "2",
						"type": "t_mapping(t_address,t_uint256)"
					}
				],
				"types": {
					"t_address": {
						"encoding": "inplace",
						"label": "address",
						"numberOfBytes": "20"
					},
					"t_mapping(t_address,t_uint256)": {
						"encoding": "mapping",
						"key": "t_address",
						"label": "mapping(address => uint256)",
						"numberOfBytes": "32",
						"value": "t_uint256"
					},
					"t_mapping(t_string_memory_ptr,t_address)": {
						"encoding": "mapping",
						"key": "t_string_memory_ptr",
						"label": "mapping(string => address)",
						"numberOfBytes": "32",
						"value": "t_address"
					},
					"t_string_memory_ptr": {
						"encoding": "bytes",
						"label": "string",
						"numberOfBytes": "32"
					},
					"t_uint256": {
						"encoding": "inplace",
						"label": "uint256",
						"numberOfBytes": "32"
					}
				}
			},
			"userdoc": {
				"kind": "user",
				"methods": {},
				"notice": "───────────────────────────────────────────────────────────────────────────── 4) SAFE IMMUTABLE & RATE‑LIMITED MARKING    • Defense: ImmutableOnce – first mark wins                 RateLimit – cap marks per block per user   ─────────────────────────────────────────────────────────────────────────────",
				"version": 1
			}
		}
	}
}