{
	"W/War Chalking/War Chalking.sol": {
		"WarChalkingVuln": {
			"abi": [
				{
					"anonymous": false,
					"inputs": [
						{
							"indexed": true,
							"internalType": "string",
							"name": "location",
							"type": "string"
						},
						{
							"indexed": true,
							"internalType": "address",
							"name": "by",
							"type": "address"
						},
						{
							"indexed": false,
							"internalType": "enum WarChalkingAttackType",
							"name": "attack",
							"type": "uint8"
						}
					],
					"name": "Chalked",
					"type": "event"
				},
				{
					"inputs": [
						{
							"internalType": "string",
							"name": "",
							"type": "string"
						}
					],
					"name": "chalks",
					"outputs": [
						{
							"internalType": "address",
							"name": "",
							"type": "address"
						}
					],
					"stateMutability": "view",
					"type": "function"
				},
				{
					"inputs": [
						{
							"internalType": "string",
							"name": "location",
							"type": "string"
						}
					],
					"name": "mark",
					"outputs": [],
					"stateMutability": "nonpayable",
					"type": "function"
				}
			],
			"devdoc": {
				"kind": "dev",
				"methods": {},
				"version": 1
			},
			"evm": {
				"assembly": "    /* \"W/War Chalking/War Chalking.sol\":1347:1721  contract WarChalkingVuln {... */\n  mstore(0x40, 0x80)\n  callvalue\n  dup1\n  iszero\n  tag_1\n  jumpi\n  0x00\n  dup1\n  revert\ntag_1:\n  pop\n  dataSize(sub_0)\n  dup1\n  dataOffset(sub_0)\n  0x00\n  codecopy\n  0x00\n  return\nstop\n\nsub_0: assembly {\n        /* \"W/War Chalking/War Chalking.sol\":1347:1721  contract WarChalkingVuln {... */\n      mstore(0x40, 0x80)\n      callvalue\n      dup1\n      iszero\n      tag_1\n      jumpi\n      0x00\n      dup1\n      revert\n    tag_1:\n      pop\n      jumpi(tag_2, lt(calldatasize, 0x04))\n      shr(0xe0, calldataload(0x00))\n      dup1\n      0x07ba86a3\n      eq\n      tag_3\n      jumpi\n      dup1\n      0x94ac1739\n      eq\n      tag_4\n      jumpi\n    tag_2:\n      0x00\n      dup1\n      revert\n        /* \"W/War Chalking/War Chalking.sol\":1543:1719  function mark(string calldata location) external {... */\n    tag_3:\n      tag_5\n      0x04\n      dup1\n      calldatasize\n      sub\n      dup2\n      add\n      swap1\n      tag_6\n      swap2\n      swap1\n      tag_7\n      jump\t// in\n    tag_6:\n      tag_8\n      jump\t// in\n    tag_5:\n      stop\n        /* \"W/War Chalking/War Chalking.sol\":1378:1418  mapping(string => address) public chalks */\n    tag_4:\n      tag_9\n      0x04\n      dup1\n      calldatasize\n      sub\n      dup2\n      add\n      swap1\n      tag_10\n      swap2\n      swap1\n      tag_11\n      jump\t// in\n    tag_10:\n      tag_12\n      jump\t// in\n    tag_9:\n      mload(0x40)\n      tag_13\n      swap2\n      swap1\n      tag_14\n      jump\t// in\n    tag_13:\n      mload(0x40)\n      dup1\n      swap2\n      sub\n      swap1\n      return\n        /* \"W/War Chalking/War Chalking.sol\":1543:1719  function mark(string calldata location) external {... */\n    tag_8:\n        /* \"W/War Chalking/War Chalking.sol\":1621:1631  msg.sender */\n      caller\n        /* \"W/War Chalking/War Chalking.sol\":1602:1608  chalks */\n      0x00\n        /* \"W/War Chalking/War Chalking.sol\":1609:1617  location */\n      dup4\n      dup4\n        /* \"W/War Chalking/War Chalking.sol\":1602:1618  chalks[location] */\n      mload(0x40)\n      tag_16\n      swap3\n      swap2\n      swap1\n      tag_17\n      jump\t// in\n    tag_16:\n      swap1\n      dup2\n      mstore\n      0x20\n      add\n      mload(0x40)\n      dup1\n      swap2\n      sub\n      swap1\n      keccak256\n      0x00\n        /* \"W/War Chalking/War Chalking.sol\":1602:1631  chalks[location] = msg.sender */\n      0x0100\n      exp\n      dup2\n      sload\n      dup2\n      0xffffffffffffffffffffffffffffffffffffffff\n      mul\n      not\n      and\n      swap1\n      dup4\n      0xffffffffffffffffffffffffffffffffffffffff\n      and\n      mul\n      or\n      swap1\n      sstore\n      pop\n        /* \"W/War Chalking/War Chalking.sol\":1664:1674  msg.sender */\n      caller\n        /* \"W/War Chalking/War Chalking.sol\":1646:1712  Chalked(location, msg.sender, WarChalkingAttackType.OverwriteMark) */\n      0xffffffffffffffffffffffffffffffffffffffff\n      and\n        /* \"W/War Chalking/War Chalking.sol\":1654:1662  location */\n      dup3\n      dup3\n        /* \"W/War Chalking/War Chalking.sol\":1646:1712  Chalked(location, msg.sender, WarChalkingAttackType.OverwriteMark) */\n      mload(0x40)\n      tag_18\n      swap3\n      swap2\n      swap1\n      tag_17\n      jump\t// in\n    tag_18:\n      mload(0x40)\n      dup1\n      swap2\n      sub\n      swap1\n      keccak256\n      0x4d6becea700c444e6bf1369d20e2a71ad2bf2cd21e911486b32e7d4af98d332f\n        /* \"W/War Chalking/War Chalking.sol\":1676:1711  WarChalkingAttackType.OverwriteMark */\n      0x01\n        /* \"W/War Chalking/War Chalking.sol\":1646:1712  Chalked(location, msg.sender, WarChalkingAttackType.OverwriteMark) */\n      mload(0x40)\n      tag_19\n      swap2\n      swap1\n      tag_20\n      jump\t// in\n    tag_19:\n      mload(0x40)\n      dup1\n      swap2\n      sub\n      swap1\n      log3\n        /* \"W/War Chalking/War Chalking.sol\":1543:1719  function mark(string calldata location) external {... */\n      pop\n      pop\n      jump\t// out\n        /* \"W/War Chalking/War Chalking.sol\":1378:1418  mapping(string => address) public chalks */\n    tag_12:\n      0x00\n      dup2\n      dup1\n      mload\n      0x20\n      dup2\n      add\n      dup3\n      add\n      dup1\n      mload\n      dup5\n      dup3\n      mstore\n      0x20\n      dup4\n      add\n      0x20\n      dup6\n      add\n      keccak256\n      dup2\n      dup4\n      mstore\n      dup1\n      swap6\n      pop\n      pop\n      pop\n      pop\n      pop\n      pop\n      0x00\n      swap2\n      pop\n      sload\n      swap1\n      0x0100\n      exp\n      swap1\n      div\n      0xffffffffffffffffffffffffffffffffffffffff\n      and\n      dup2\n      jump\t// out\n        /* \"#utility.yul\":7:82   */\n    tag_21:\n        /* \"#utility.yul\":40:46   */\n      0x00\n        /* \"#utility.yul\":73:75   */\n      0x40\n        /* \"#utility.yul\":67:76   */\n      mload\n        /* \"#utility.yul\":57:76   */\n      swap1\n      pop\n        /* \"#utility.yul\":7:82   */\n      swap1\n      jump\t// out\n        /* \"#utility.yul\":88:205   */\n    tag_22:\n        /* \"#utility.yul\":197:198   */\n      0x00\n        /* \"#utility.yul\":194:195   */\n      dup1\n        /* \"#utility.yul\":187:199   */\n      revert\n        /* \"#utility.yul\":211:328   */\n    tag_23:\n        /* \"#utility.yul\":320:321   */\n      0x00\n        /* \"#utility.yul\":317:318   */\n      dup1\n        /* \"#utility.yul\":310:322   */\n      revert\n        /* \"#utility.yul\":334:451   */\n    tag_24:\n        /* \"#utility.yul\":443:444   */\n      0x00\n        /* \"#utility.yul\":440:441   */\n      dup1\n        /* \"#utility.yul\":433:445   */\n      revert\n        /* \"#utility.yul\":457:574   */\n    tag_25:\n        /* \"#utility.yul\":566:567   */\n      0x00\n        /* \"#utility.yul\":563:564   */\n      dup1\n        /* \"#utility.yul\":556:568   */\n      revert\n        /* \"#utility.yul\":580:697   */\n    tag_26:\n        /* \"#utility.yul\":689:690   */\n      0x00\n        /* \"#utility.yul\":686:687   */\n      dup1\n        /* \"#utility.yul\":679:691   */\n      revert\n        /* \"#utility.yul\":717:1270   */\n    tag_27:\n        /* \"#utility.yul\":775:783   */\n      0x00\n        /* \"#utility.yul\":785:791   */\n      dup1\n        /* \"#utility.yul\":835:838   */\n      dup4\n        /* \"#utility.yul\":828:832   */\n      0x1f\n        /* \"#utility.yul\":820:826   */\n      dup5\n        /* \"#utility.yul\":816:833   */\n      add\n        /* \"#utility.yul\":812:839   */\n      slt\n        /* \"#utility.yul\":802:924   */\n      tag_55\n      jumpi\n        /* \"#utility.yul\":843:922   */\n      tag_56\n      tag_24\n      jump\t// in\n    tag_56:\n        /* \"#utility.yul\":802:924   */\n    tag_55:\n        /* \"#utility.yul\":956:962   */\n      dup3\n        /* \"#utility.yul\":943:963   */\n      calldataload\n        /* \"#utility.yul\":933:963   */\n      swap1\n      pop\n        /* \"#utility.yul\":986:1004   */\n      0xffffffffffffffff\n        /* \"#utility.yul\":978:984   */\n      dup2\n        /* \"#utility.yul\":975:1005   */\n      gt\n        /* \"#utility.yul\":972:1089   */\n      iszero\n      tag_57\n      jumpi\n        /* \"#utility.yul\":1008:1087   */\n      tag_58\n      tag_25\n      jump\t// in\n    tag_58:\n        /* \"#utility.yul\":972:1089   */\n    tag_57:\n        /* \"#utility.yul\":1122:1126   */\n      0x20\n        /* \"#utility.yul\":1114:1120   */\n      dup4\n        /* \"#utility.yul\":1110:1127   */\n      add\n        /* \"#utility.yul\":1098:1127   */\n      swap2\n      pop\n        /* \"#utility.yul\":1176:1179   */\n      dup4\n        /* \"#utility.yul\":1168:1172   */\n      0x01\n        /* \"#utility.yul\":1160:1166   */\n      dup3\n        /* \"#utility.yul\":1156:1173   */\n      mul\n        /* \"#utility.yul\":1146:1154   */\n      dup4\n        /* \"#utility.yul\":1142:1174   */\n      add\n        /* \"#utility.yul\":1139:1180   */\n      gt\n        /* \"#utility.yul\":1136:1264   */\n      iszero\n      tag_59\n      jumpi\n        /* \"#utility.yul\":1183:1262   */\n      tag_60\n      tag_26\n      jump\t// in\n    tag_60:\n        /* \"#utility.yul\":1136:1264   */\n    tag_59:\n        /* \"#utility.yul\":717:1270   */\n      swap3\n      pop\n      swap3\n      swap1\n      pop\n      jump\t// out\n        /* \"#utility.yul\":1276:1805   */\n    tag_7:\n        /* \"#utility.yul\":1347:1353   */\n      0x00\n        /* \"#utility.yul\":1355:1361   */\n      dup1\n        /* \"#utility.yul\":1404:1406   */\n      0x20\n        /* \"#utility.yul\":1392:1401   */\n      dup4\n        /* \"#utility.yul\":1383:1390   */\n      dup6\n        /* \"#utility.yul\":1379:1402   */\n      sub\n        /* \"#utility.yul\":1375:1407   */\n      slt\n        /* \"#utility.yul\":1372:1491   */\n      iszero\n      tag_62\n      jumpi\n        /* \"#utility.yul\":1410:1489   */\n      tag_63\n      tag_22\n      jump\t// in\n    tag_63:\n        /* \"#utility.yul\":1372:1491   */\n    tag_62:\n        /* \"#utility.yul\":1558:1559   */\n      0x00\n        /* \"#utility.yul\":1547:1556   */\n      dup4\n        /* \"#utility.yul\":1543:1560   */\n      add\n        /* \"#utility.yul\":1530:1561   */\n      calldataload\n        /* \"#utility.yul\":1588:1606   */\n      0xffffffffffffffff\n        /* \"#utility.yul\":1580:1586   */\n      dup2\n        /* \"#utility.yul\":1577:1607   */\n      gt\n        /* \"#utility.yul\":1574:1691   */\n      iszero\n      tag_64\n      jumpi\n        /* \"#utility.yul\":1610:1689   */\n      tag_65\n      tag_23\n      jump\t// in\n    tag_65:\n        /* \"#utility.yul\":1574:1691   */\n    tag_64:\n        /* \"#utility.yul\":1723:1788   */\n      tag_66\n        /* \"#utility.yul\":1780:1787   */\n      dup6\n        /* \"#utility.yul\":1771:1777   */\n      dup3\n        /* \"#utility.yul\":1760:1769   */\n      dup7\n        /* \"#utility.yul\":1756:1778   */\n      add\n        /* \"#utility.yul\":1723:1788   */\n      tag_27\n      jump\t// in\n    tag_66:\n        /* \"#utility.yul\":1705:1788   */\n      swap3\n      pop\n      swap3\n      pop\n        /* \"#utility.yul\":1501:1798   */\n      pop\n        /* \"#utility.yul\":1276:1805   */\n      swap3\n      pop\n      swap3\n      swap1\n      pop\n      jump\t// out\n        /* \"#utility.yul\":1811:1928   */\n    tag_28:\n        /* \"#utility.yul\":1920:1921   */\n      0x00\n        /* \"#utility.yul\":1917:1918   */\n      dup1\n        /* \"#utility.yul\":1910:1922   */\n      revert\n        /* \"#utility.yul\":1934:2036   */\n    tag_29:\n        /* \"#utility.yul\":1975:1981   */\n      0x00\n        /* \"#utility.yul\":2026:2028   */\n      0x1f\n        /* \"#utility.yul\":2022:2029   */\n      not\n        /* \"#utility.yul\":2017:2019   */\n      0x1f\n        /* \"#utility.yul\":2010:2015   */\n      dup4\n        /* \"#utility.yul\":2006:2020   */\n      add\n        /* \"#utility.yul\":2002:2030   */\n      and\n        /* \"#utility.yul\":1992:2030   */\n      swap1\n      pop\n        /* \"#utility.yul\":1934:2036   */\n      swap2\n      swap1\n      pop\n      jump\t// out\n        /* \"#utility.yul\":2042:2222   */\n    tag_30:\n        /* \"#utility.yul\":2090:2167   */\n      0x4e487b7100000000000000000000000000000000000000000000000000000000\n        /* \"#utility.yul\":2087:2088   */\n      0x00\n        /* \"#utility.yul\":2080:2168   */\n      mstore\n        /* \"#utility.yul\":2187:2191   */\n      0x41\n        /* \"#utility.yul\":2184:2185   */\n      0x04\n        /* \"#utility.yul\":2177:2192   */\n      mstore\n        /* \"#utility.yul\":2211:2215   */\n      0x24\n        /* \"#utility.yul\":2208:2209   */\n      0x00\n        /* \"#utility.yul\":2201:2216   */\n      revert\n        /* \"#utility.yul\":2228:2509   */\n    tag_31:\n        /* \"#utility.yul\":2311:2338   */\n      tag_71\n        /* \"#utility.yul\":2333:2337   */\n      dup3\n        /* \"#utility.yul\":2311:2338   */\n      tag_29\n      jump\t// in\n    tag_71:\n        /* \"#utility.yul\":2303:2309   */\n      dup2\n        /* \"#utility.yul\":2299:2339   */\n      add\n        /* \"#utility.yul\":2441:2447   */\n      dup2\n        /* \"#utility.yul\":2429:2439   */\n      dup2\n        /* \"#utility.yul\":2426:2448   */\n      lt\n        /* \"#utility.yul\":2405:2423   */\n      0xffffffffffffffff\n        /* \"#utility.yul\":2393:2403   */\n      dup3\n        /* \"#utility.yul\":2390:2424   */\n      gt\n        /* \"#utility.yul\":2387:2449   */\n      or\n        /* \"#utility.yul\":2384:2472   */\n      iszero\n      tag_72\n      jumpi\n        /* \"#utility.yul\":2452:2470   */\n      tag_73\n      tag_30\n      jump\t// in\n    tag_73:\n        /* \"#utility.yul\":2384:2472   */\n    tag_72:\n        /* \"#utility.yul\":2492:2502   */\n      dup1\n        /* \"#utility.yul\":2488:2490   */\n      0x40\n        /* \"#utility.yul\":2481:2503   */\n      mstore\n        /* \"#utility.yul\":2271:2509   */\n      pop\n        /* \"#utility.yul\":2228:2509   */\n      pop\n      pop\n      jump\t// out\n        /* \"#utility.yul\":2515:2644   */\n    tag_32:\n        /* \"#utility.yul\":2549:2555   */\n      0x00\n        /* \"#utility.yul\":2576:2596   */\n      tag_75\n      tag_21\n      jump\t// in\n    tag_75:\n        /* \"#utility.yul\":2566:2596   */\n      swap1\n      pop\n        /* \"#utility.yul\":2605:2638   */\n      tag_76\n        /* \"#utility.yul\":2633:2637   */\n      dup3\n        /* \"#utility.yul\":2625:2631   */\n      dup3\n        /* \"#utility.yul\":2605:2638   */\n      tag_31\n      jump\t// in\n    tag_76:\n        /* \"#utility.yul\":2515:2644   */\n      swap2\n      swap1\n      pop\n      jump\t// out\n        /* \"#utility.yul\":2650:2958   */\n    tag_33:\n        /* \"#utility.yul\":2712:2716   */\n      0x00\n        /* \"#utility.yul\":2802:2820   */\n      0xffffffffffffffff\n        /* \"#utility.yul\":2794:2800   */\n      dup3\n        /* \"#utility.yul\":2791:2821   */\n      gt\n        /* \"#utility.yul\":2788:2844   */\n      iszero\n      tag_78\n      jumpi\n        /* \"#utility.yul\":2824:2842   */\n      tag_79\n      tag_30\n      jump\t// in\n    tag_79:\n        /* \"#utility.yul\":2788:2844   */\n    tag_78:\n        /* \"#utility.yul\":2862:2891   */\n      tag_80\n        /* \"#utility.yul\":2884:2890   */\n      dup3\n        /* \"#utility.yul\":2862:2891   */\n      tag_29\n      jump\t// in\n    tag_80:\n        /* \"#utility.yul\":2854:2891   */\n      swap1\n      pop\n        /* \"#utility.yul\":2946:2950   */\n      0x20\n        /* \"#utility.yul\":2940:2944   */\n      dup2\n        /* \"#utility.yul\":2936:2951   */\n      add\n        /* \"#utility.yul\":2928:2951   */\n      swap1\n      pop\n        /* \"#utility.yul\":2650:2958   */\n      swap2\n      swap1\n      pop\n      jump\t// out\n        /* \"#utility.yul\":2964:3112   */\n    tag_34:\n        /* \"#utility.yul\":3062:3068   */\n      dup3\n        /* \"#utility.yul\":3057:3060   */\n      dup2\n        /* \"#utility.yul\":3052:3055   */\n      dup4\n        /* \"#utility.yul\":3039:3069   */\n      calldatacopy\n        /* \"#utility.yul\":3103:3104   */\n      0x00\n        /* \"#utility.yul\":3094:3100   */\n      dup4\n        /* \"#utility.yul\":3089:3092   */\n      dup4\n        /* \"#utility.yul\":3085:3101   */\n      add\n        /* \"#utility.yul\":3078:3105   */\n      mstore\n        /* \"#utility.yul\":2964:3112   */\n      pop\n      pop\n      pop\n      jump\t// out\n        /* \"#utility.yul\":3118:3543   */\n    tag_35:\n        /* \"#utility.yul\":3196:3201   */\n      0x00\n        /* \"#utility.yul\":3221:3287   */\n      tag_83\n        /* \"#utility.yul\":3237:3286   */\n      tag_84\n        /* \"#utility.yul\":3279:3285   */\n      dup5\n        /* \"#utility.yul\":3237:3286   */\n      tag_33\n      jump\t// in\n    tag_84:\n        /* \"#utility.yul\":3221:3287   */\n      tag_32\n      jump\t// in\n    tag_83:\n        /* \"#utility.yul\":3212:3287   */\n      swap1\n      pop\n        /* \"#utility.yul\":3310:3316   */\n      dup3\n        /* \"#utility.yul\":3303:3308   */\n      dup2\n        /* \"#utility.yul\":3296:3317   */\n      mstore\n        /* \"#utility.yul\":3348:3352   */\n      0x20\n        /* \"#utility.yul\":3341:3346   */\n      dup2\n        /* \"#utility.yul\":3337:3353   */\n      add\n        /* \"#utility.yul\":3386:3389   */\n      dup5\n        /* \"#utility.yul\":3377:3383   */\n      dup5\n        /* \"#utility.yul\":3372:3375   */\n      dup5\n        /* \"#utility.yul\":3368:3384   */\n      add\n        /* \"#utility.yul\":3365:3390   */\n      gt\n        /* \"#utility.yul\":3362:3474   */\n      iszero\n      tag_85\n      jumpi\n        /* \"#utility.yul\":3393:3472   */\n      tag_86\n      tag_28\n      jump\t// in\n    tag_86:\n        /* \"#utility.yul\":3362:3474   */\n    tag_85:\n        /* \"#utility.yul\":3483:3537   */\n      tag_87\n        /* \"#utility.yul\":3530:3536   */\n      dup5\n        /* \"#utility.yul\":3525:3528   */\n      dup3\n        /* \"#utility.yul\":3520:3523   */\n      dup6\n        /* \"#utility.yul\":3483:3537   */\n      tag_34\n      jump\t// in\n    tag_87:\n        /* \"#utility.yul\":3202:3543   */\n      pop\n        /* \"#utility.yul\":3118:3543   */\n      swap4\n      swap3\n      pop\n      pop\n      pop\n      jump\t// out\n        /* \"#utility.yul\":3563:3903   */\n    tag_36:\n        /* \"#utility.yul\":3619:3624   */\n      0x00\n        /* \"#utility.yul\":3668:3671   */\n      dup3\n        /* \"#utility.yul\":3661:3665   */\n      0x1f\n        /* \"#utility.yul\":3653:3659   */\n      dup4\n        /* \"#utility.yul\":3649:3666   */\n      add\n        /* \"#utility.yul\":3645:3672   */\n      slt\n        /* \"#utility.yul\":3635:3757   */\n      tag_89\n      jumpi\n        /* \"#utility.yul\":3676:3755   */\n      tag_90\n      tag_24\n      jump\t// in\n    tag_90:\n        /* \"#utility.yul\":3635:3757   */\n    tag_89:\n        /* \"#utility.yul\":3793:3799   */\n      dup2\n        /* \"#utility.yul\":3780:3800   */\n      calldataload\n        /* \"#utility.yul\":3818:3897   */\n      tag_91\n        /* \"#utility.yul\":3893:3896   */\n      dup5\n        /* \"#utility.yul\":3885:3891   */\n      dup3\n        /* \"#utility.yul\":3878:3882   */\n      0x20\n        /* \"#utility.yul\":3870:3876   */\n      dup7\n        /* \"#utility.yul\":3866:3883   */\n      add\n        /* \"#utility.yul\":3818:3897   */\n      tag_35\n      jump\t// in\n    tag_91:\n        /* \"#utility.yul\":3809:3897   */\n      swap2\n      pop\n        /* \"#utility.yul\":3625:3903   */\n      pop\n        /* \"#utility.yul\":3563:3903   */\n      swap3\n      swap2\n      pop\n      pop\n      jump\t// out\n        /* \"#utility.yul\":3909:4418   */\n    tag_11:\n        /* \"#utility.yul\":3978:3984   */\n      0x00\n        /* \"#utility.yul\":4027:4029   */\n      0x20\n        /* \"#utility.yul\":4015:4024   */\n      dup3\n        /* \"#utility.yul\":4006:4013   */\n      dup5\n        /* \"#utility.yul\":4002:4025   */\n      sub\n        /* \"#utility.yul\":3998:4030   */\n      slt\n        /* \"#utility.yul\":3995:4114   */\n      iszero\n      tag_93\n      jumpi\n        /* \"#utility.yul\":4033:4112   */\n      tag_94\n      tag_22\n      jump\t// in\n    tag_94:\n        /* \"#utility.yul\":3995:4114   */\n    tag_93:\n        /* \"#utility.yul\":4181:4182   */\n      0x00\n        /* \"#utility.yul\":4170:4179   */\n      dup3\n        /* \"#utility.yul\":4166:4183   */\n      add\n        /* \"#utility.yul\":4153:4184   */\n      calldataload\n        /* \"#utility.yul\":4211:4229   */\n      0xffffffffffffffff\n        /* \"#utility.yul\":4203:4209   */\n      dup2\n        /* \"#utility.yul\":4200:4230   */\n      gt\n        /* \"#utility.yul\":4197:4314   */\n      iszero\n      tag_95\n      jumpi\n        /* \"#utility.yul\":4233:4312   */\n      tag_96\n      tag_23\n      jump\t// in\n    tag_96:\n        /* \"#utility.yul\":4197:4314   */\n    tag_95:\n        /* \"#utility.yul\":4338:4401   */\n      tag_97\n        /* \"#utility.yul\":4393:4400   */\n      dup5\n        /* \"#utility.yul\":4384:4390   */\n      dup3\n        /* \"#utility.yul\":4373:4382   */\n      dup6\n        /* \"#utility.yul\":4369:4391   */\n      add\n        /* \"#utility.yul\":4338:4401   */\n      tag_36\n      jump\t// in\n    tag_97:\n        /* \"#utility.yul\":4328:4401   */\n      swap2\n      pop\n        /* \"#utility.yul\":4124:4411   */\n      pop\n        /* \"#utility.yul\":3909:4418   */\n      swap3\n      swap2\n      pop\n      pop\n      jump\t// out\n        /* \"#utility.yul\":4424:4550   */\n    tag_37:\n        /* \"#utility.yul\":4461:4468   */\n      0x00\n        /* \"#utility.yul\":4501:4543   */\n      0xffffffffffffffffffffffffffffffffffffffff\n        /* \"#utility.yul\":4494:4499   */\n      dup3\n        /* \"#utility.yul\":4490:4544   */\n      and\n        /* \"#utility.yul\":4479:4544   */\n      swap1\n      pop\n        /* \"#utility.yul\":4424:4550   */\n      swap2\n      swap1\n      pop\n      jump\t// out\n        /* \"#utility.yul\":4556:4652   */\n    tag_38:\n        /* \"#utility.yul\":4593:4600   */\n      0x00\n        /* \"#utility.yul\":4622:4646   */\n      tag_100\n        /* \"#utility.yul\":4640:4645   */\n      dup3\n        /* \"#utility.yul\":4622:4646   */\n      tag_37\n      jump\t// in\n    tag_100:\n        /* \"#utility.yul\":4611:4646   */\n      swap1\n      pop\n        /* \"#utility.yul\":4556:4652   */\n      swap2\n      swap1\n      pop\n      jump\t// out\n        /* \"#utility.yul\":4658:4776   */\n    tag_39:\n        /* \"#utility.yul\":4745:4769   */\n      tag_102\n        /* \"#utility.yul\":4763:4768   */\n      dup2\n        /* \"#utility.yul\":4745:4769   */\n      tag_38\n      jump\t// in\n    tag_102:\n        /* \"#utility.yul\":4740:4743   */\n      dup3\n        /* \"#utility.yul\":4733:4770   */\n      mstore\n        /* \"#utility.yul\":4658:4776   */\n      pop\n      pop\n      jump\t// out\n        /* \"#utility.yul\":4782:5004   */\n    tag_14:\n        /* \"#utility.yul\":4875:4879   */\n      0x00\n        /* \"#utility.yul\":4913:4915   */\n      0x20\n        /* \"#utility.yul\":4902:4911   */\n      dup3\n        /* \"#utility.yul\":4898:4916   */\n      add\n        /* \"#utility.yul\":4890:4916   */\n      swap1\n      pop\n        /* \"#utility.yul\":4926:4997   */\n      tag_104\n        /* \"#utility.yul\":4994:4995   */\n      0x00\n        /* \"#utility.yul\":4983:4992   */\n      dup4\n        /* \"#utility.yul\":4979:4996   */\n      add\n        /* \"#utility.yul\":4970:4976   */\n      dup5\n        /* \"#utility.yul\":4926:4997   */\n      tag_39\n      jump\t// in\n    tag_104:\n        /* \"#utility.yul\":4782:5004   */\n      swap3\n      swap2\n      pop\n      pop\n      jump\t// out\n        /* \"#utility.yul\":5010:5158   */\n    tag_40:\n        /* \"#utility.yul\":5112:5123   */\n      0x00\n        /* \"#utility.yul\":5149:5152   */\n      dup2\n        /* \"#utility.yul\":5134:5152   */\n      swap1\n      pop\n        /* \"#utility.yul\":5010:5158   */\n      swap3\n      swap2\n      pop\n      pop\n      jump\t// out\n        /* \"#utility.yul\":5188:5518   */\n    tag_41:\n        /* \"#utility.yul\":5304:5307   */\n      0x00\n        /* \"#utility.yul\":5325:5414   */\n      tag_107\n        /* \"#utility.yul\":5407:5413   */\n      dup4\n        /* \"#utility.yul\":5402:5405   */\n      dup6\n        /* \"#utility.yul\":5325:5414   */\n      tag_40\n      jump\t// in\n    tag_107:\n        /* \"#utility.yul\":5318:5414   */\n      swap4\n      pop\n        /* \"#utility.yul\":5424:5480   */\n      tag_108\n        /* \"#utility.yul\":5473:5479   */\n      dup4\n        /* \"#utility.yul\":5468:5471   */\n      dup6\n        /* \"#utility.yul\":5461:5466   */\n      dup5\n        /* \"#utility.yul\":5424:5480   */\n      tag_34\n      jump\t// in\n    tag_108:\n        /* \"#utility.yul\":5505:5511   */\n      dup3\n        /* \"#utility.yul\":5500:5503   */\n      dup5\n        /* \"#utility.yul\":5496:5512   */\n      add\n        /* \"#utility.yul\":5489:5512   */\n      swap1\n      pop\n        /* \"#utility.yul\":5188:5518   */\n      swap4\n      swap3\n      pop\n      pop\n      pop\n      jump\t// out\n        /* \"#utility.yul\":5524:5819   */\n    tag_17:\n        /* \"#utility.yul\":5666:5669   */\n      0x00\n        /* \"#utility.yul\":5688:5793   */\n      tag_110\n        /* \"#utility.yul\":5789:5792   */\n      dup3\n        /* \"#utility.yul\":5780:5786   */\n      dup5\n        /* \"#utility.yul\":5772:5778   */\n      dup7\n        /* \"#utility.yul\":5688:5793   */\n      tag_41\n      jump\t// in\n    tag_110:\n        /* \"#utility.yul\":5681:5793   */\n      swap2\n      pop\n        /* \"#utility.yul\":5810:5813   */\n      dup2\n        /* \"#utility.yul\":5803:5813   */\n      swap1\n      pop\n        /* \"#utility.yul\":5524:5819   */\n      swap4\n      swap3\n      pop\n      pop\n      pop\n      jump\t// out\n        /* \"#utility.yul\":5825:6005   */\n    tag_42:\n        /* \"#utility.yul\":5873:5950   */\n      0x4e487b7100000000000000000000000000000000000000000000000000000000\n        /* \"#utility.yul\":5870:5871   */\n      0x00\n        /* \"#utility.yul\":5863:5951   */\n      mstore\n        /* \"#utility.yul\":5970:5974   */\n      0x21\n        /* \"#utility.yul\":5967:5968   */\n      0x04\n        /* \"#utility.yul\":5960:5975   */\n      mstore\n        /* \"#utility.yul\":5994:5998   */\n      0x24\n        /* \"#utility.yul\":5991:5992   */\n      0x00\n        /* \"#utility.yul\":5984:5999   */\n      revert\n        /* \"#utility.yul\":6011:6140   */\n    tag_43:\n        /* \"#utility.yul\":6108:6109   */\n      0x04\n        /* \"#utility.yul\":6101:6106   */\n      dup2\n        /* \"#utility.yul\":6098:6110   */\n      lt\n        /* \"#utility.yul\":6088:6134   */\n      tag_113\n      jumpi\n        /* \"#utility.yul\":6114:6132   */\n      tag_114\n      tag_42\n      jump\t// in\n    tag_114:\n        /* \"#utility.yul\":6088:6134   */\n    tag_113:\n        /* \"#utility.yul\":6011:6140   */\n      pop\n      jump\t// out\n        /* \"#utility.yul\":6146:6305   */\n    tag_44:\n        /* \"#utility.yul\":6207:6214   */\n      0x00\n        /* \"#utility.yul\":6236:6241   */\n      dup2\n        /* \"#utility.yul\":6225:6241   */\n      swap1\n      pop\n        /* \"#utility.yul\":6242:6299   */\n      tag_116\n        /* \"#utility.yul\":6293:6298   */\n      dup3\n        /* \"#utility.yul\":6242:6299   */\n      tag_43\n      jump\t// in\n    tag_116:\n        /* \"#utility.yul\":6146:6305   */\n      swap2\n      swap1\n      pop\n      jump\t// out\n        /* \"#utility.yul\":6311:6470   */\n    tag_45:\n        /* \"#utility.yul\":6383:6392   */\n      0x00\n        /* \"#utility.yul\":6416:6464   */\n      tag_118\n        /* \"#utility.yul\":6458:6463   */\n      dup3\n        /* \"#utility.yul\":6416:6464   */\n      tag_44\n      jump\t// in\n    tag_118:\n        /* \"#utility.yul\":6403:6464   */\n      swap1\n      pop\n        /* \"#utility.yul\":6311:6470   */\n      swap2\n      swap1\n      pop\n      jump\t// out\n        /* \"#utility.yul\":6476:6651   */\n    tag_46:\n        /* \"#utility.yul\":6585:6644   */\n      tag_120\n        /* \"#utility.yul\":6638:6643   */\n      dup2\n        /* \"#utility.yul\":6585:6644   */\n      tag_45\n      jump\t// in\n    tag_120:\n        /* \"#utility.yul\":6580:6583   */\n      dup3\n        /* \"#utility.yul\":6573:6645   */\n      mstore\n        /* \"#utility.yul\":6476:6651   */\n      pop\n      pop\n      jump\t// out\n        /* \"#utility.yul\":6657:6923   */\n    tag_20:\n        /* \"#utility.yul\":6772:6776   */\n      0x00\n        /* \"#utility.yul\":6810:6812   */\n      0x20\n        /* \"#utility.yul\":6799:6808   */\n      dup3\n        /* \"#utility.yul\":6795:6813   */\n      add\n        /* \"#utility.yul\":6787:6813   */\n      swap1\n      pop\n        /* \"#utility.yul\":6823:6916   */\n      tag_122\n        /* \"#utility.yul\":6913:6914   */\n      0x00\n        /* \"#utility.yul\":6902:6911   */\n      dup4\n        /* \"#utility.yul\":6898:6915   */\n      add\n        /* \"#utility.yul\":6889:6895   */\n      dup5\n        /* \"#utility.yul\":6823:6916   */\n      tag_46\n      jump\t// in\n    tag_122:\n        /* \"#utility.yul\":6657:6923   */\n      swap3\n      swap2\n      pop\n      pop\n      jump\t// out\n\n    auxdata: 0xa26469706673582212201a0a30f2f06c0ff88ddc5c9a3d4ee5fcb016a69db138e9a62b8d5b46520e684864736f6c634300081a0033\n}\n",
				"bytecode": {
					"linkReferences": {},
					"object": "6080604052348015600e575f80fd5b5061052f8061001c5f395ff3fe608060405234801561000f575f80fd5b5060043610610034575f3560e01c806307ba86a31461003857806394ac173914610054575b5f80fd5b610052600480360381019061004d9190610205565b610084565b005b61006e60048036038101906100699190610388565b61014c565b60405161007b919061040e565b60405180910390f35b335f8383604051610096929190610455565b90815260200160405180910390205f6101000a81548173ffffffffffffffffffffffffffffffffffffffff021916908373ffffffffffffffffffffffffffffffffffffffff1602179055503373ffffffffffffffffffffffffffffffffffffffff168282604051610108929190610455565b60405180910390207f4d6becea700c444e6bf1369d20e2a71ad2bf2cd21e911486b32e7d4af98d332f600160405161014091906104e0565b60405180910390a35050565b5f818051602081018201805184825260208301602085012081835280955050505050505f915054906101000a900473ffffffffffffffffffffffffffffffffffffffff1681565b5f604051905090565b5f80fd5b5f80fd5b5f80fd5b5f80fd5b5f80fd5b5f8083601f8401126101c5576101c46101a4565b5b8235905067ffffffffffffffff8111156101e2576101e16101a8565b5b6020830191508360018202830111156101fe576101fd6101ac565b5b9250929050565b5f806020838503121561021b5761021a61019c565b5b5f83013567ffffffffffffffff811115610238576102376101a0565b5b610244858286016101b0565b92509250509250929050565b5f80fd5b5f601f19601f8301169050919050565b7f4e487b71000000000000000000000000000000000000000000000000000000005f52604160045260245ffd5b61029a82610254565b810181811067ffffffffffffffff821117156102b9576102b8610264565b5b80604052505050565b5f6102cb610193565b90506102d78282610291565b919050565b5f67ffffffffffffffff8211156102f6576102f5610264565b5b6102ff82610254565b9050602081019050919050565b828183375f83830152505050565b5f61032c610327846102dc565b6102c2565b90508281526020810184848401111561034857610347610250565b5b61035384828561030c565b509392505050565b5f82601f83011261036f5761036e6101a4565b5b813561037f84826020860161031a565b91505092915050565b5f6020828403121561039d5761039c61019c565b5b5f82013567ffffffffffffffff8111156103ba576103b96101a0565b5b6103c68482850161035b565b91505092915050565b5f73ffffffffffffffffffffffffffffffffffffffff82169050919050565b5f6103f8826103cf565b9050919050565b610408816103ee565b82525050565b5f6020820190506104215f8301846103ff565b92915050565b5f81905092915050565b5f61043c8385610427565b935061044983858461030c565b82840190509392505050565b5f610461828486610431565b91508190509392505050565b7f4e487b71000000000000000000000000000000000000000000000000000000005f52602160045260245ffd5b600481106104ab576104aa61046d565b5b50565b5f8190506104bb8261049a565b919050565b5f6104ca826104ae565b9050919050565b6104da816104c0565b82525050565b5f6020820190506104f35f8301846104d1565b9291505056fea26469706673582212201a0a30f2f06c0ff88ddc5c9a3d4ee5fcb016a69db138e9a62b8d5b46520e684864736f6c634300081a0033",
					"opcodes": "PUSH1 0x80 PUSH1 0x40 MSTORE CALLVALUE DUP1 ISZERO PUSH1 0xE JUMPI PUSH0 DUP1 REVERT JUMPDEST POP PUSH2 0x52F DUP1 PUSH2 0x1C PUSH0 CODECOPY PUSH0 RETURN INVALID PUSH1 0x80 PUSH1 0x40 MSTORE CALLVALUE DUP1 ISZERO PUSH2 0xF JUMPI PUSH0 DUP1 REVERT JUMPDEST POP PUSH1 0x4 CALLDATASIZE LT PUSH2 0x34 JUMPI PUSH0 CALLDATALOAD PUSH1 0xE0 SHR DUP1 PUSH4 0x7BA86A3 EQ PUSH2 0x38 JUMPI DUP1 PUSH4 0x94AC1739 EQ PUSH2 0x54 JUMPI JUMPDEST PUSH0 DUP1 REVERT JUMPDEST PUSH2 0x52 PUSH1 0x4 DUP1 CALLDATASIZE SUB DUP2 ADD SWAP1 PUSH2 0x4D SWAP2 SWAP1 PUSH2 0x205 JUMP JUMPDEST PUSH2 0x84 JUMP JUMPDEST STOP JUMPDEST PUSH2 0x6E PUSH1 0x4 DUP1 CALLDATASIZE SUB DUP2 ADD SWAP1 PUSH2 0x69 SWAP2 SWAP1 PUSH2 0x388 JUMP JUMPDEST PUSH2 0x14C JUMP JUMPDEST PUSH1 0x40 MLOAD PUSH2 0x7B SWAP2 SWAP1 PUSH2 0x40E JUMP JUMPDEST PUSH1 0x40 MLOAD DUP1 SWAP2 SUB SWAP1 RETURN JUMPDEST CALLER PUSH0 DUP4 DUP4 PUSH1 0x40 MLOAD PUSH2 0x96 SWAP3 SWAP2 SWAP1 PUSH2 0x455 JUMP JUMPDEST SWAP1 DUP2 MSTORE PUSH1 0x20 ADD PUSH1 0x40 MLOAD DUP1 SWAP2 SUB SWAP1 KECCAK256 PUSH0 PUSH2 0x100 EXP DUP2 SLOAD DUP2 PUSH20 0xFFFFFFFFFFFFFFFFFFFFFFFFFFFFFFFFFFFFFFFF MUL NOT AND SWAP1 DUP4 PUSH20 0xFFFFFFFFFFFFFFFFFFFFFFFFFFFFFFFFFFFFFFFF AND MUL OR SWAP1 SSTORE POP CALLER PUSH20 0xFFFFFFFFFFFFFFFFFFFFFFFFFFFFFFFFFFFFFFFF AND DUP3 DUP3 PUSH1 0x40 MLOAD PUSH2 0x108 SWAP3 SWAP2 SWAP1 PUSH2 0x455 JUMP JUMPDEST PUSH1 0x40 MLOAD DUP1 SWAP2 SUB SWAP1 KECCAK256 PUSH32 0x4D6BECEA700C444E6BF1369D20E2A71AD2BF2CD21E911486B32E7D4AF98D332F PUSH1 0x1 PUSH1 0x40 MLOAD PUSH2 0x140 SWAP2 SWAP1 PUSH2 0x4E0 JUMP JUMPDEST PUSH1 0x40 MLOAD DUP1 SWAP2 SUB SWAP1 LOG3 POP POP JUMP JUMPDEST PUSH0 DUP2 DUP1 MLOAD PUSH1 0x20 DUP2 ADD DUP3 ADD DUP1 MLOAD DUP5 DUP3 MSTORE PUSH1 0x20 DUP4 ADD PUSH1 0x20 DUP6 ADD KECCAK256 DUP2 DUP4 MSTORE DUP1 SWAP6 POP POP POP POP POP POP PUSH0 SWAP2 POP SLOAD SWAP1 PUSH2 0x100 EXP SWAP1 DIV PUSH20 0xFFFFFFFFFFFFFFFFFFFFFFFFFFFFFFFFFFFFFFFF AND DUP2 JUMP JUMPDEST PUSH0 PUSH1 0x40 MLOAD SWAP1 POP SWAP1 JUMP JUMPDEST PUSH0 DUP1 REVERT JUMPDEST PUSH0 DUP1 REVERT JUMPDEST PUSH0 DUP1 REVERT JUMPDEST PUSH0 DUP1 REVERT JUMPDEST PUSH0 DUP1 REVERT JUMPDEST PUSH0 DUP1 DUP4 PUSH1 0x1F DUP5 ADD SLT PUSH2 0x1C5 JUMPI PUSH2 0x1C4 PUSH2 0x1A4 JUMP JUMPDEST JUMPDEST DUP3 CALLDATALOAD SWAP1 POP PUSH8 0xFFFFFFFFFFFFFFFF DUP2 GT ISZERO PUSH2 0x1E2 JUMPI PUSH2 0x1E1 PUSH2 0x1A8 JUMP JUMPDEST JUMPDEST PUSH1 0x20 DUP4 ADD SWAP2 POP DUP4 PUSH1 0x1 DUP3 MUL DUP4 ADD GT ISZERO PUSH2 0x1FE JUMPI PUSH2 0x1FD PUSH2 0x1AC JUMP JUMPDEST JUMPDEST SWAP3 POP SWAP3 SWAP1 POP JUMP JUMPDEST PUSH0 DUP1 PUSH1 0x20 DUP4 DUP6 SUB SLT ISZERO PUSH2 0x21B JUMPI PUSH2 0x21A PUSH2 0x19C JUMP JUMPDEST JUMPDEST PUSH0 DUP4 ADD CALLDATALOAD PUSH8 0xFFFFFFFFFFFFFFFF DUP2 GT ISZERO PUSH2 0x238 JUMPI PUSH2 0x237 PUSH2 0x1A0 JUMP JUMPDEST JUMPDEST PUSH2 0x244 DUP6 DUP3 DUP7 ADD PUSH2 0x1B0 JUMP JUMPDEST SWAP3 POP SWAP3 POP POP SWAP3 POP SWAP3 SWAP1 POP JUMP JUMPDEST PUSH0 DUP1 REVERT JUMPDEST PUSH0 PUSH1 0x1F NOT PUSH1 0x1F DUP4 ADD AND SWAP1 POP SWAP2 SWAP1 POP JUMP JUMPDEST PUSH32 0x4E487B7100000000000000000000000000000000000000000000000000000000 PUSH0 MSTORE PUSH1 0x41 PUSH1 0x4 MSTORE PUSH1 0x24 PUSH0 REVERT JUMPDEST PUSH2 0x29A DUP3 PUSH2 0x254 JUMP JUMPDEST DUP2 ADD DUP2 DUP2 LT PUSH8 0xFFFFFFFFFFFFFFFF DUP3 GT OR ISZERO PUSH2 0x2B9 JUMPI PUSH2 0x2B8 PUSH2 0x264 JUMP JUMPDEST JUMPDEST DUP1 PUSH1 0x40 MSTORE POP POP POP JUMP JUMPDEST PUSH0 PUSH2 0x2CB PUSH2 0x193 JUMP JUMPDEST SWAP1 POP PUSH2 0x2D7 DUP3 DUP3 PUSH2 0x291 JUMP JUMPDEST SWAP2 SWAP1 POP JUMP JUMPDEST PUSH0 PUSH8 0xFFFFFFFFFFFFFFFF DUP3 GT ISZERO PUSH2 0x2F6 JUMPI PUSH2 0x2F5 PUSH2 0x264 JUMP JUMPDEST JUMPDEST PUSH2 0x2FF DUP3 PUSH2 0x254 JUMP JUMPDEST SWAP1 POP PUSH1 0x20 DUP2 ADD SWAP1 POP SWAP2 SWAP1 POP JUMP JUMPDEST DUP3 DUP2 DUP4 CALLDATACOPY PUSH0 DUP4 DUP4 ADD MSTORE POP POP POP JUMP JUMPDEST PUSH0 PUSH2 0x32C PUSH2 0x327 DUP5 PUSH2 0x2DC JUMP JUMPDEST PUSH2 0x2C2 JUMP JUMPDEST SWAP1 POP DUP3 DUP2 MSTORE PUSH1 0x20 DUP2 ADD DUP5 DUP5 DUP5 ADD GT ISZERO PUSH2 0x348 JUMPI PUSH2 0x347 PUSH2 0x250 JUMP JUMPDEST JUMPDEST PUSH2 0x353 DUP5 DUP3 DUP6 PUSH2 0x30C JUMP JUMPDEST POP SWAP4 SWAP3 POP POP POP JUMP JUMPDEST PUSH0 DUP3 PUSH1 0x1F DUP4 ADD SLT PUSH2 0x36F JUMPI PUSH2 0x36E PUSH2 0x1A4 JUMP JUMPDEST JUMPDEST DUP2 CALLDATALOAD PUSH2 0x37F DUP5 DUP3 PUSH1 0x20 DUP7 ADD PUSH2 0x31A JUMP JUMPDEST SWAP2 POP POP SWAP3 SWAP2 POP POP JUMP JUMPDEST PUSH0 PUSH1 0x20 DUP3 DUP5 SUB SLT ISZERO PUSH2 0x39D JUMPI PUSH2 0x39C PUSH2 0x19C JUMP JUMPDEST JUMPDEST PUSH0 DUP3 ADD CALLDATALOAD PUSH8 0xFFFFFFFFFFFFFFFF DUP2 GT ISZERO PUSH2 0x3BA JUMPI PUSH2 0x3B9 PUSH2 0x1A0 JUMP JUMPDEST JUMPDEST PUSH2 0x3C6 DUP5 DUP3 DUP6 ADD PUSH2 0x35B JUMP JUMPDEST SWAP2 POP POP SWAP3 SWAP2 POP POP JUMP JUMPDEST PUSH0 PUSH20 0xFFFFFFFFFFFFFFFFFFFFFFFFFFFFFFFFFFFFFFFF DUP3 AND SWAP1 POP SWAP2 SWAP1 POP JUMP JUMPDEST PUSH0 PUSH2 0x3F8 DUP3 PUSH2 0x3CF JUMP JUMPDEST SWAP1 POP SWAP2 SWAP1 POP JUMP JUMPDEST PUSH2 0x408 DUP2 PUSH2 0x3EE JUMP JUMPDEST DUP3 MSTORE POP POP JUMP JUMPDEST PUSH0 PUSH1 0x20 DUP3 ADD SWAP1 POP PUSH2 0x421 PUSH0 DUP4 ADD DUP5 PUSH2 0x3FF JUMP JUMPDEST SWAP3 SWAP2 POP POP JUMP JUMPDEST PUSH0 DUP2 SWAP1 POP SWAP3 SWAP2 POP POP JUMP JUMPDEST PUSH0 PUSH2 0x43C DUP4 DUP6 PUSH2 0x427 JUMP JUMPDEST SWAP4 POP PUSH2 0x449 DUP4 DUP6 DUP5 PUSH2 0x30C JUMP JUMPDEST DUP3 DUP5 ADD SWAP1 POP SWAP4 SWAP3 POP POP POP JUMP JUMPDEST PUSH0 PUSH2 0x461 DUP3 DUP5 DUP7 PUSH2 0x431 JUMP JUMPDEST SWAP2 POP DUP2 SWAP1 POP SWAP4 SWAP3 POP POP POP JUMP JUMPDEST PUSH32 0x4E487B7100000000000000000000000000000000000000000000000000000000 PUSH0 MSTORE PUSH1 0x21 PUSH1 0x4 MSTORE PUSH1 0x24 PUSH0 REVERT JUMPDEST PUSH1 0x4 DUP2 LT PUSH2 0x4AB JUMPI PUSH2 0x4AA PUSH2 0x46D JUMP JUMPDEST JUMPDEST POP JUMP JUMPDEST PUSH0 DUP2 SWAP1 POP PUSH2 0x4BB DUP3 PUSH2 0x49A JUMP JUMPDEST SWAP2 SWAP1 POP JUMP JUMPDEST PUSH0 PUSH2 0x4CA DUP3 PUSH2 0x4AE JUMP JUMPDEST SWAP1 POP SWAP2 SWAP1 POP JUMP JUMPDEST PUSH2 0x4DA DUP2 PUSH2 0x4C0 JUMP JUMPDEST DUP3 MSTORE POP POP JUMP JUMPDEST PUSH0 PUSH1 0x20 DUP3 ADD SWAP1 POP PUSH2 0x4F3 PUSH0 DUP4 ADD DUP5 PUSH2 0x4D1 JUMP JUMPDEST SWAP3 SWAP2 POP POP JUMP INVALID LOG2 PUSH5 0x6970667358 0x22 SLT KECCAK256 BYTE EXP ADDRESS CALLCODE CREATE PUSH13 0xFF88DDC5C9A3D4EE5FCB016A6 SWAP14 0xB1 CODESIZE 0xE9 0xA6 0x2B DUP14 JUMPDEST CHAINID MSTORE 0xE PUSH9 0x4864736F6C63430008 BYTE STOP CALLER "
				},
				"gasEstimates": {
					"creation": {
						"codeDepositCost": "265400",
						"executionCost": "304",
						"totalCost": "265704"
					},
					"external": {
						"chalks(string)": "infinite",
						"mark(string)": "infinite"
					}
				},
				"methodIdentifiers": {
					"chalks(string)": "94ac1739",
					"mark(string)": "07ba86a3"
				}
			},
			"storageLayout": {
				"storage": [
					{
						"astId": 30,
						"contract": "W/War Chalking/War Chalking.sol:WarChalkingVuln",
						"label": "chalks",
						"offset": 0,
						"slot": "0",
						"type": "t_mapping(t_string_memory_ptr,t_address)"
					}
				],
				"types": {
					"t_address": {
						"encoding": "inplace",
						"label": "address",
						"numberOfBytes": "20"
					},
					"t_mapping(t_string_memory_ptr,t_address)": {
						"encoding": "mapping",
						"key": "t_string_memory_ptr",
						"label": "mapping(string => address)",
						"numberOfBytes": "32",
						"value": "t_address"
					},
					"t_string_memory_ptr": {
						"encoding": "bytes",
						"label": "string",
						"numberOfBytes": "32"
					}
				}
			},
			"userdoc": {
				"kind": "user",
				"methods": {},
				"notice": "───────────────────────────────────────────────────────────────────────────── 1) VULNERABLE MARK REGISTRY    • anyone may mark or overwrite any location      • Attack: UnauthorizedMark, OverwriteMark   ─────────────────────────────────────────────────────────────────────────────",
				"version": 1
			}
		}
	}
}