{
	"F/Firewall/Address-BasedFirewall.sol": {
		"AddressFirewall": {
			"abi": [
				{
					"inputs": [],
					"stateMutability": "nonpayable",
					"type": "constructor"
				},
				{
					"inputs": [
						{
							"internalType": "address",
							"name": "",
							"type": "address"
						}
					],
					"name": "allowed",
					"outputs": [
						{
							"internalType": "bool",
							"name": "",
							"type": "bool"
						}
					],
					"stateMutability": "view",
					"type": "function"
				},
				{
					"inputs": [],
					"name": "owner",
					"outputs": [
						{
							"internalType": "address",
							"name": "",
							"type": "address"
						}
					],
					"stateMutability": "view",
					"type": "function"
				},
				{
					"inputs": [],
					"name": "secret",
					"outputs": [
						{
							"internalType": "uint256",
							"name": "",
							"type": "uint256"
						}
					],
					"stateMutability": "view",
					"type": "function"
				},
				{
					"inputs": [
						{
							"internalType": "uint256",
							"name": "_value",
							"type": "uint256"
						}
					],
					"name": "setSecret",
					"outputs": [],
					"stateMutability": "nonpayable",
					"type": "function"
				},
				{
					"inputs": [
						{
							"internalType": "address",
							"name": "user",
							"type": "address"
						},
						{
							"internalType": "bool",
							"name": "status",
							"type": "bool"
						}
					],
					"name": "toggleAccess",
					"outputs": [],
					"stateMutability": "nonpayable",
					"type": "function"
				}
			],
			"devdoc": {
				"kind": "dev",
				"methods": {},
				"version": 1
			},
			"evm": {
				"assembly": "    /* \"F/Firewall/Address-BasedFirewall.sol\":58:626  contract AddressFirewall {... */\n  mstore(0x40, 0x80)\n    /* \"F/Firewall/Address-BasedFirewall.sol\":296:376  constructor() {... */\n  callvalue\n  dup1\n  iszero\n  tag_1\n  jumpi\n  0x00\n  dup1\n  revert\ntag_1:\n  pop\n    /* \"F/Firewall/Address-BasedFirewall.sol\":328:338  msg.sender */\n  caller\n    /* \"F/Firewall/Address-BasedFirewall.sol\":320:325  owner */\n  0x01\n  0x00\n    /* \"F/Firewall/Address-BasedFirewall.sol\":320:338  owner = msg.sender */\n  0x0100\n  exp\n  dup2\n  sload\n  dup2\n  0xffffffffffffffffffffffffffffffffffffffff\n  mul\n  not\n  and\n  swap1\n  dup4\n  0xffffffffffffffffffffffffffffffffffffffff\n  and\n  mul\n  or\n  swap1\n  sstore\n  pop\n    /* \"F/Firewall/Address-BasedFirewall.sol\":365:369  true */\n  0x01\n    /* \"F/Firewall/Address-BasedFirewall.sol\":348:355  allowed */\n  0x00\n    /* \"F/Firewall/Address-BasedFirewall.sol\":348:362  allowed[owner] */\n  dup1\n    /* \"F/Firewall/Address-BasedFirewall.sol\":356:361  owner */\n  0x01\n  0x00\n  swap1\n  sload\n  swap1\n  0x0100\n  exp\n  swap1\n  div\n  0xffffffffffffffffffffffffffffffffffffffff\n  and\n    /* \"F/Firewall/Address-BasedFirewall.sol\":348:362  allowed[owner] */\n  0xffffffffffffffffffffffffffffffffffffffff\n  and\n  0xffffffffffffffffffffffffffffffffffffffff\n  and\n  dup2\n  mstore\n  0x20\n  add\n  swap1\n  dup2\n  mstore\n  0x20\n  add\n  0x00\n  keccak256\n  0x00\n    /* \"F/Firewall/Address-BasedFirewall.sol\":348:369  allowed[owner] = true */\n  0x0100\n  exp\n  dup2\n  sload\n  dup2\n  0xff\n  mul\n  not\n  and\n  swap1\n  dup4\n  iszero\n  iszero\n  mul\n  or\n  swap1\n  sstore\n  pop\n    /* \"F/Firewall/Address-BasedFirewall.sol\":58:626  contract AddressFirewall {... */\n  dataSize(sub_0)\n  dup1\n  dataOffset(sub_0)\n  0x00\n  codecopy\n  0x00\n  return\nstop\n\nsub_0: assembly {\n        /* \"F/Firewall/Address-BasedFirewall.sol\":58:626  contract AddressFirewall {... */\n      mstore(0x40, 0x80)\n      callvalue\n      dup1\n      iszero\n      tag_1\n      jumpi\n      0x00\n      dup1\n      revert\n    tag_1:\n      pop\n      jumpi(tag_2, lt(calldatasize, 0x04))\n      shr(0xe0, calldataload(0x00))\n      dup1\n      0x3b4dbf8b\n      eq\n      tag_3\n      jumpi\n      dup1\n      0x835e1eda\n      eq\n      tag_4\n      jumpi\n      dup1\n      0x8da5cb5b\n      eq\n      tag_5\n      jumpi\n      dup1\n      0xd1efd30d\n      eq\n      tag_6\n      jumpi\n      dup1\n      0xd63a8e11\n      eq\n      tag_7\n      jumpi\n    tag_2:\n      0x00\n      dup1\n      revert\n        /* \"F/Firewall/Address-BasedFirewall.sol\":536:624  function setSecret(uint256 _value) external onlyAllowed {... */\n    tag_3:\n      tag_8\n      0x04\n      dup1\n      calldatasize\n      sub\n      dup2\n      add\n      swap1\n      tag_9\n      swap2\n      swap1\n      tag_10\n      jump\t// in\n    tag_9:\n      tag_11\n      jump\t// in\n    tag_8:\n      stop\n        /* \"F/Firewall/Address-BasedFirewall.sol\":382:530  function toggleAccess(address user, bool status) external {... */\n    tag_4:\n      tag_12\n      0x04\n      dup1\n      calldatasize\n      sub\n      dup2\n      add\n      swap1\n      tag_13\n      swap2\n      swap1\n      tag_14\n      jump\t// in\n    tag_13:\n      tag_15\n      jump\t// in\n    tag_12:\n      stop\n        /* \"F/Firewall/Address-BasedFirewall.sol\":134:154  address public owner */\n    tag_5:\n      tag_16\n      tag_17\n      jump\t// in\n    tag_16:\n      mload(0x40)\n      tag_18\n      swap2\n      swap1\n      tag_19\n      jump\t// in\n    tag_18:\n      mload(0x40)\n      dup1\n      swap2\n      sub\n      swap1\n      return\n        /* \"F/Firewall/Address-BasedFirewall.sol\":160:181  uint256 public secret */\n    tag_6:\n      tag_20\n      tag_21\n      jump\t// in\n    tag_20:\n      mload(0x40)\n      tag_22\n      swap2\n      swap1\n      tag_23\n      jump\t// in\n    tag_22:\n      mload(0x40)\n      dup1\n      swap2\n      sub\n      swap1\n      return\n        /* \"F/Firewall/Address-BasedFirewall.sol\":89:128  mapping(address => bool) public allowed */\n    tag_7:\n      tag_24\n      0x04\n      dup1\n      calldatasize\n      sub\n      dup2\n      add\n      swap1\n      tag_25\n      swap2\n      swap1\n      tag_26\n      jump\t// in\n    tag_25:\n      tag_27\n      jump\t// in\n    tag_24:\n      mload(0x40)\n      tag_28\n      swap2\n      swap1\n      tag_29\n      jump\t// in\n    tag_28:\n      mload(0x40)\n      dup1\n      swap2\n      sub\n      swap1\n      return\n        /* \"F/Firewall/Address-BasedFirewall.sol\":536:624  function setSecret(uint256 _value) external onlyAllowed {... */\n    tag_11:\n        /* \"F/Firewall/Address-BasedFirewall.sol\":229:236  allowed */\n      0x00\n        /* \"F/Firewall/Address-BasedFirewall.sol\":229:248  allowed[msg.sender] */\n      dup1\n        /* \"F/Firewall/Address-BasedFirewall.sol\":237:247  msg.sender */\n      caller\n        /* \"F/Firewall/Address-BasedFirewall.sol\":229:248  allowed[msg.sender] */\n      0xffffffffffffffffffffffffffffffffffffffff\n      and\n      0xffffffffffffffffffffffffffffffffffffffff\n      and\n      dup2\n      mstore\n      0x20\n      add\n      swap1\n      dup2\n      mstore\n      0x20\n      add\n      0x00\n      keccak256\n      0x00\n      swap1\n      sload\n      swap1\n      0x0100\n      exp\n      swap1\n      div\n      0xff\n      and\n        /* \"F/Firewall/Address-BasedFirewall.sol\":221:272  require(allowed[msg.sender], \"Blocked by firewall\") */\n      tag_31\n      jumpi\n      mload(0x40)\n      0x08c379a000000000000000000000000000000000000000000000000000000000\n      dup2\n      mstore\n      0x04\n      add\n      tag_32\n      swap1\n      tag_33\n      jump\t// in\n    tag_32:\n      mload(0x40)\n      dup1\n      swap2\n      sub\n      swap1\n      revert\n    tag_31:\n        /* \"F/Firewall/Address-BasedFirewall.sol\":611:617  _value */\n      dup1\n        /* \"F/Firewall/Address-BasedFirewall.sol\":602:608  secret */\n      0x02\n        /* \"F/Firewall/Address-BasedFirewall.sol\":602:617  secret = _value */\n      dup2\n      swap1\n      sstore\n      pop\n        /* \"F/Firewall/Address-BasedFirewall.sol\":536:624  function setSecret(uint256 _value) external onlyAllowed {... */\n      pop\n      jump\t// out\n        /* \"F/Firewall/Address-BasedFirewall.sol\":382:530  function toggleAccess(address user, bool status) external {... */\n    tag_15:\n        /* \"F/Firewall/Address-BasedFirewall.sol\":472:477  owner */\n      0x01\n      0x00\n      swap1\n      sload\n      swap1\n      0x0100\n      exp\n      swap1\n      div\n      0xffffffffffffffffffffffffffffffffffffffff\n      and\n        /* \"F/Firewall/Address-BasedFirewall.sol\":458:477  msg.sender == owner */\n      0xffffffffffffffffffffffffffffffffffffffff\n      and\n        /* \"F/Firewall/Address-BasedFirewall.sol\":458:468  msg.sender */\n      caller\n        /* \"F/Firewall/Address-BasedFirewall.sol\":458:477  msg.sender == owner */\n      0xffffffffffffffffffffffffffffffffffffffff\n      and\n      eq\n        /* \"F/Firewall/Address-BasedFirewall.sol\":450:491  require(msg.sender == owner, \"Not owner\") */\n      tag_36\n      jumpi\n      mload(0x40)\n      0x08c379a000000000000000000000000000000000000000000000000000000000\n      dup2\n      mstore\n      0x04\n      add\n      tag_37\n      swap1\n      tag_38\n      jump\t// in\n    tag_37:\n      mload(0x40)\n      dup1\n      swap2\n      sub\n      swap1\n      revert\n    tag_36:\n        /* \"F/Firewall/Address-BasedFirewall.sol\":517:523  status */\n      dup1\n        /* \"F/Firewall/Address-BasedFirewall.sol\":501:508  allowed */\n      0x00\n        /* \"F/Firewall/Address-BasedFirewall.sol\":501:514  allowed[user] */\n      dup1\n        /* \"F/Firewall/Address-BasedFirewall.sol\":509:513  user */\n      dup5\n        /* \"F/Firewall/Address-BasedFirewall.sol\":501:514  allowed[user] */\n      0xffffffffffffffffffffffffffffffffffffffff\n      and\n      0xffffffffffffffffffffffffffffffffffffffff\n      and\n      dup2\n      mstore\n      0x20\n      add\n      swap1\n      dup2\n      mstore\n      0x20\n      add\n      0x00\n      keccak256\n      0x00\n        /* \"F/Firewall/Address-BasedFirewall.sol\":501:523  allowed[user] = status */\n      0x0100\n      exp\n      dup2\n      sload\n      dup2\n      0xff\n      mul\n      not\n      and\n      swap1\n      dup4\n      iszero\n      iszero\n      mul\n      or\n      swap1\n      sstore\n      pop\n        /* \"F/Firewall/Address-BasedFirewall.sol\":382:530  function toggleAccess(address user, bool status) external {... */\n      pop\n      pop\n      jump\t// out\n        /* \"F/Firewall/Address-BasedFirewall.sol\":134:154  address public owner */\n    tag_17:\n      0x01\n      0x00\n      swap1\n      sload\n      swap1\n      0x0100\n      exp\n      swap1\n      div\n      0xffffffffffffffffffffffffffffffffffffffff\n      and\n      dup2\n      jump\t// out\n        /* \"F/Firewall/Address-BasedFirewall.sol\":160:181  uint256 public secret */\n    tag_21:\n      sload(0x02)\n      dup2\n      jump\t// out\n        /* \"F/Firewall/Address-BasedFirewall.sol\":89:128  mapping(address => bool) public allowed */\n    tag_27:\n      mstore(0x20, 0x00)\n      dup1\n      0x00\n      mstore\n      keccak256(0x00, 0x40)\n      0x00\n      swap2\n      pop\n      sload\n      swap1\n      0x0100\n      exp\n      swap1\n      div\n      0xff\n      and\n      dup2\n      jump\t// out\n        /* \"#utility.yul\":88:205   */\n    tag_40:\n        /* \"#utility.yul\":197:198   */\n      0x00\n        /* \"#utility.yul\":194:195   */\n      dup1\n        /* \"#utility.yul\":187:199   */\n      revert\n        /* \"#utility.yul\":334:411   */\n    tag_42:\n        /* \"#utility.yul\":371:378   */\n      0x00\n        /* \"#utility.yul\":400:405   */\n      dup2\n        /* \"#utility.yul\":389:405   */\n      swap1\n      pop\n        /* \"#utility.yul\":334:411   */\n      swap2\n      swap1\n      pop\n      jump\t// out\n        /* \"#utility.yul\":417:539   */\n    tag_43:\n        /* \"#utility.yul\":490:514   */\n      tag_66\n        /* \"#utility.yul\":508:513   */\n      dup2\n        /* \"#utility.yul\":490:514   */\n      tag_42\n      jump\t// in\n    tag_66:\n        /* \"#utility.yul\":483:488   */\n      dup2\n        /* \"#utility.yul\":480:515   */\n      eq\n        /* \"#utility.yul\":470:533   */\n      tag_67\n      jumpi\n        /* \"#utility.yul\":529:530   */\n      0x00\n        /* \"#utility.yul\":526:527   */\n      dup1\n        /* \"#utility.yul\":519:531   */\n      revert\n        /* \"#utility.yul\":470:533   */\n    tag_67:\n        /* \"#utility.yul\":417:539   */\n      pop\n      jump\t// out\n        /* \"#utility.yul\":545:684   */\n    tag_44:\n        /* \"#utility.yul\":591:596   */\n      0x00\n        /* \"#utility.yul\":629:635   */\n      dup2\n        /* \"#utility.yul\":616:636   */\n      calldataload\n        /* \"#utility.yul\":607:636   */\n      swap1\n      pop\n        /* \"#utility.yul\":645:678   */\n      tag_69\n        /* \"#utility.yul\":672:677   */\n      dup2\n        /* \"#utility.yul\":645:678   */\n      tag_43\n      jump\t// in\n    tag_69:\n        /* \"#utility.yul\":545:684   */\n      swap3\n      swap2\n      pop\n      pop\n      jump\t// out\n        /* \"#utility.yul\":690:1019   */\n    tag_10:\n        /* \"#utility.yul\":749:755   */\n      0x00\n        /* \"#utility.yul\":798:800   */\n      0x20\n        /* \"#utility.yul\":786:795   */\n      dup3\n        /* \"#utility.yul\":777:784   */\n      dup5\n        /* \"#utility.yul\":773:796   */\n      sub\n        /* \"#utility.yul\":769:801   */\n      slt\n        /* \"#utility.yul\":766:885   */\n      iszero\n      tag_71\n      jumpi\n        /* \"#utility.yul\":804:883   */\n      tag_72\n      tag_40\n      jump\t// in\n    tag_72:\n        /* \"#utility.yul\":766:885   */\n    tag_71:\n        /* \"#utility.yul\":924:925   */\n      0x00\n        /* \"#utility.yul\":949:1002   */\n      tag_73\n        /* \"#utility.yul\":994:1001   */\n      dup5\n        /* \"#utility.yul\":985:991   */\n      dup3\n        /* \"#utility.yul\":974:983   */\n      dup6\n        /* \"#utility.yul\":970:992   */\n      add\n        /* \"#utility.yul\":949:1002   */\n      tag_44\n      jump\t// in\n    tag_73:\n        /* \"#utility.yul\":939:1002   */\n      swap2\n      pop\n        /* \"#utility.yul\":895:1012   */\n      pop\n        /* \"#utility.yul\":690:1019   */\n      swap3\n      swap2\n      pop\n      pop\n      jump\t// out\n        /* \"#utility.yul\":1025:1151   */\n    tag_45:\n        /* \"#utility.yul\":1062:1069   */\n      0x00\n        /* \"#utility.yul\":1102:1144   */\n      0xffffffffffffffffffffffffffffffffffffffff\n        /* \"#utility.yul\":1095:1100   */\n      dup3\n        /* \"#utility.yul\":1091:1145   */\n      and\n        /* \"#utility.yul\":1080:1145   */\n      swap1\n      pop\n        /* \"#utility.yul\":1025:1151   */\n      swap2\n      swap1\n      pop\n      jump\t// out\n        /* \"#utility.yul\":1157:1253   */\n    tag_46:\n        /* \"#utility.yul\":1194:1201   */\n      0x00\n        /* \"#utility.yul\":1223:1247   */\n      tag_76\n        /* \"#utility.yul\":1241:1246   */\n      dup3\n        /* \"#utility.yul\":1223:1247   */\n      tag_45\n      jump\t// in\n    tag_76:\n        /* \"#utility.yul\":1212:1247   */\n      swap1\n      pop\n        /* \"#utility.yul\":1157:1253   */\n      swap2\n      swap1\n      pop\n      jump\t// out\n        /* \"#utility.yul\":1259:1381   */\n    tag_47:\n        /* \"#utility.yul\":1332:1356   */\n      tag_78\n        /* \"#utility.yul\":1350:1355   */\n      dup2\n        /* \"#utility.yul\":1332:1356   */\n      tag_46\n      jump\t// in\n    tag_78:\n        /* \"#utility.yul\":1325:1330   */\n      dup2\n        /* \"#utility.yul\":1322:1357   */\n      eq\n        /* \"#utility.yul\":1312:1375   */\n      tag_79\n      jumpi\n        /* \"#utility.yul\":1371:1372   */\n      0x00\n        /* \"#utility.yul\":1368:1369   */\n      dup1\n        /* \"#utility.yul\":1361:1373   */\n      revert\n        /* \"#utility.yul\":1312:1375   */\n    tag_79:\n        /* \"#utility.yul\":1259:1381   */\n      pop\n      jump\t// out\n        /* \"#utility.yul\":1387:1526   */\n    tag_48:\n        /* \"#utility.yul\":1433:1438   */\n      0x00\n        /* \"#utility.yul\":1471:1477   */\n      dup2\n        /* \"#utility.yul\":1458:1478   */\n      calldataload\n        /* \"#utility.yul\":1449:1478   */\n      swap1\n      pop\n        /* \"#utility.yul\":1487:1520   */\n      tag_81\n        /* \"#utility.yul\":1514:1519   */\n      dup2\n        /* \"#utility.yul\":1487:1520   */\n      tag_47\n      jump\t// in\n    tag_81:\n        /* \"#utility.yul\":1387:1526   */\n      swap3\n      swap2\n      pop\n      pop\n      jump\t// out\n        /* \"#utility.yul\":1532:1622   */\n    tag_49:\n        /* \"#utility.yul\":1566:1573   */\n      0x00\n        /* \"#utility.yul\":1609:1614   */\n      dup2\n        /* \"#utility.yul\":1602:1615   */\n      iszero\n        /* \"#utility.yul\":1595:1616   */\n      iszero\n        /* \"#utility.yul\":1584:1616   */\n      swap1\n      pop\n        /* \"#utility.yul\":1532:1622   */\n      swap2\n      swap1\n      pop\n      jump\t// out\n        /* \"#utility.yul\":1628:1744   */\n    tag_50:\n        /* \"#utility.yul\":1698:1719   */\n      tag_84\n        /* \"#utility.yul\":1713:1718   */\n      dup2\n        /* \"#utility.yul\":1698:1719   */\n      tag_49\n      jump\t// in\n    tag_84:\n        /* \"#utility.yul\":1691:1696   */\n      dup2\n        /* \"#utility.yul\":1688:1720   */\n      eq\n        /* \"#utility.yul\":1678:1738   */\n      tag_85\n      jumpi\n        /* \"#utility.yul\":1734:1735   */\n      0x00\n        /* \"#utility.yul\":1731:1732   */\n      dup1\n        /* \"#utility.yul\":1724:1736   */\n      revert\n        /* \"#utility.yul\":1678:1738   */\n    tag_85:\n        /* \"#utility.yul\":1628:1744   */\n      pop\n      jump\t// out\n        /* \"#utility.yul\":1750:1883   */\n    tag_51:\n        /* \"#utility.yul\":1793:1798   */\n      0x00\n        /* \"#utility.yul\":1831:1837   */\n      dup2\n        /* \"#utility.yul\":1818:1838   */\n      calldataload\n        /* \"#utility.yul\":1809:1838   */\n      swap1\n      pop\n        /* \"#utility.yul\":1847:1877   */\n      tag_87\n        /* \"#utility.yul\":1871:1876   */\n      dup2\n        /* \"#utility.yul\":1847:1877   */\n      tag_50\n      jump\t// in\n    tag_87:\n        /* \"#utility.yul\":1750:1883   */\n      swap3\n      swap2\n      pop\n      pop\n      jump\t// out\n        /* \"#utility.yul\":1889:2357   */\n    tag_14:\n        /* \"#utility.yul\":1954:1960   */\n      0x00\n        /* \"#utility.yul\":1962:1968   */\n      dup1\n        /* \"#utility.yul\":2011:2013   */\n      0x40\n        /* \"#utility.yul\":1999:2008   */\n      dup4\n        /* \"#utility.yul\":1990:1997   */\n      dup6\n        /* \"#utility.yul\":1986:2009   */\n      sub\n        /* \"#utility.yul\":1982:2014   */\n      slt\n        /* \"#utility.yul\":1979:2098   */\n      iszero\n      tag_89\n      jumpi\n        /* \"#utility.yul\":2017:2096   */\n      tag_90\n      tag_40\n      jump\t// in\n    tag_90:\n        /* \"#utility.yul\":1979:2098   */\n    tag_89:\n        /* \"#utility.yul\":2137:2138   */\n      0x00\n        /* \"#utility.yul\":2162:2215   */\n      tag_91\n        /* \"#utility.yul\":2207:2214   */\n      dup6\n        /* \"#utility.yul\":2198:2204   */\n      dup3\n        /* \"#utility.yul\":2187:2196   */\n      dup7\n        /* \"#utility.yul\":2183:2205   */\n      add\n        /* \"#utility.yul\":2162:2215   */\n      tag_48\n      jump\t// in\n    tag_91:\n        /* \"#utility.yul\":2152:2215   */\n      swap3\n      pop\n        /* \"#utility.yul\":2108:2225   */\n      pop\n        /* \"#utility.yul\":2264:2266   */\n      0x20\n        /* \"#utility.yul\":2290:2340   */\n      tag_92\n        /* \"#utility.yul\":2332:2339   */\n      dup6\n        /* \"#utility.yul\":2323:2329   */\n      dup3\n        /* \"#utility.yul\":2312:2321   */\n      dup7\n        /* \"#utility.yul\":2308:2330   */\n      add\n        /* \"#utility.yul\":2290:2340   */\n      tag_51\n      jump\t// in\n    tag_92:\n        /* \"#utility.yul\":2280:2340   */\n      swap2\n      pop\n        /* \"#utility.yul\":2235:2350   */\n      pop\n        /* \"#utility.yul\":1889:2357   */\n      swap3\n      pop\n      swap3\n      swap1\n      pop\n      jump\t// out\n        /* \"#utility.yul\":2363:2481   */\n    tag_52:\n        /* \"#utility.yul\":2450:2474   */\n      tag_94\n        /* \"#utility.yul\":2468:2473   */\n      dup2\n        /* \"#utility.yul\":2450:2474   */\n      tag_46\n      jump\t// in\n    tag_94:\n        /* \"#utility.yul\":2445:2448   */\n      dup3\n        /* \"#utility.yul\":2438:2475   */\n      mstore\n        /* \"#utility.yul\":2363:2481   */\n      pop\n      pop\n      jump\t// out\n        /* \"#utility.yul\":2487:2709   */\n    tag_19:\n        /* \"#utility.yul\":2580:2584   */\n      0x00\n        /* \"#utility.yul\":2618:2620   */\n      0x20\n        /* \"#utility.yul\":2607:2616   */\n      dup3\n        /* \"#utility.yul\":2603:2621   */\n      add\n        /* \"#utility.yul\":2595:2621   */\n      swap1\n      pop\n        /* \"#utility.yul\":2631:2702   */\n      tag_96\n        /* \"#utility.yul\":2699:2700   */\n      0x00\n        /* \"#utility.yul\":2688:2697   */\n      dup4\n        /* \"#utility.yul\":2684:2701   */\n      add\n        /* \"#utility.yul\":2675:2681   */\n      dup5\n        /* \"#utility.yul\":2631:2702   */\n      tag_52\n      jump\t// in\n    tag_96:\n        /* \"#utility.yul\":2487:2709   */\n      swap3\n      swap2\n      pop\n      pop\n      jump\t// out\n        /* \"#utility.yul\":2715:2833   */\n    tag_53:\n        /* \"#utility.yul\":2802:2826   */\n      tag_98\n        /* \"#utility.yul\":2820:2825   */\n      dup2\n        /* \"#utility.yul\":2802:2826   */\n      tag_42\n      jump\t// in\n    tag_98:\n        /* \"#utility.yul\":2797:2800   */\n      dup3\n        /* \"#utility.yul\":2790:2827   */\n      mstore\n        /* \"#utility.yul\":2715:2833   */\n      pop\n      pop\n      jump\t// out\n        /* \"#utility.yul\":2839:3061   */\n    tag_23:\n        /* \"#utility.yul\":2932:2936   */\n      0x00\n        /* \"#utility.yul\":2970:2972   */\n      0x20\n        /* \"#utility.yul\":2959:2968   */\n      dup3\n        /* \"#utility.yul\":2955:2973   */\n      add\n        /* \"#utility.yul\":2947:2973   */\n      swap1\n      pop\n        /* \"#utility.yul\":2983:3054   */\n      tag_100\n        /* \"#utility.yul\":3051:3052   */\n      0x00\n        /* \"#utility.yul\":3040:3049   */\n      dup4\n        /* \"#utility.yul\":3036:3053   */\n      add\n        /* \"#utility.yul\":3027:3033   */\n      dup5\n        /* \"#utility.yul\":2983:3054   */\n      tag_53\n      jump\t// in\n    tag_100:\n        /* \"#utility.yul\":2839:3061   */\n      swap3\n      swap2\n      pop\n      pop\n      jump\t// out\n        /* \"#utility.yul\":3067:3396   */\n    tag_26:\n        /* \"#utility.yul\":3126:3132   */\n      0x00\n        /* \"#utility.yul\":3175:3177   */\n      0x20\n        /* \"#utility.yul\":3163:3172   */\n      dup3\n        /* \"#utility.yul\":3154:3161   */\n      dup5\n        /* \"#utility.yul\":3150:3173   */\n      sub\n        /* \"#utility.yul\":3146:3178   */\n      slt\n        /* \"#utility.yul\":3143:3262   */\n      iszero\n      tag_102\n      jumpi\n        /* \"#utility.yul\":3181:3260   */\n      tag_103\n      tag_40\n      jump\t// in\n    tag_103:\n        /* \"#utility.yul\":3143:3262   */\n    tag_102:\n        /* \"#utility.yul\":3301:3302   */\n      0x00\n        /* \"#utility.yul\":3326:3379   */\n      tag_104\n        /* \"#utility.yul\":3371:3378   */\n      dup5\n        /* \"#utility.yul\":3362:3368   */\n      dup3\n        /* \"#utility.yul\":3351:3360   */\n      dup6\n        /* \"#utility.yul\":3347:3369   */\n      add\n        /* \"#utility.yul\":3326:3379   */\n      tag_48\n      jump\t// in\n    tag_104:\n        /* \"#utility.yul\":3316:3379   */\n      swap2\n      pop\n        /* \"#utility.yul\":3272:3389   */\n      pop\n        /* \"#utility.yul\":3067:3396   */\n      swap3\n      swap2\n      pop\n      pop\n      jump\t// out\n        /* \"#utility.yul\":3402:3511   */\n    tag_54:\n        /* \"#utility.yul\":3483:3504   */\n      tag_106\n        /* \"#utility.yul\":3498:3503   */\n      dup2\n        /* \"#utility.yul\":3483:3504   */\n      tag_49\n      jump\t// in\n    tag_106:\n        /* \"#utility.yul\":3478:3481   */\n      dup3\n        /* \"#utility.yul\":3471:3505   */\n      mstore\n        /* \"#utility.yul\":3402:3511   */\n      pop\n      pop\n      jump\t// out\n        /* \"#utility.yul\":3517:3727   */\n    tag_29:\n        /* \"#utility.yul\":3604:3608   */\n      0x00\n        /* \"#utility.yul\":3642:3644   */\n      0x20\n        /* \"#utility.yul\":3631:3640   */\n      dup3\n        /* \"#utility.yul\":3627:3645   */\n      add\n        /* \"#utility.yul\":3619:3645   */\n      swap1\n      pop\n        /* \"#utility.yul\":3655:3720   */\n      tag_108\n        /* \"#utility.yul\":3717:3718   */\n      0x00\n        /* \"#utility.yul\":3706:3715   */\n      dup4\n        /* \"#utility.yul\":3702:3719   */\n      add\n        /* \"#utility.yul\":3693:3699   */\n      dup5\n        /* \"#utility.yul\":3655:3720   */\n      tag_54\n      jump\t// in\n    tag_108:\n        /* \"#utility.yul\":3517:3727   */\n      swap3\n      swap2\n      pop\n      pop\n      jump\t// out\n        /* \"#utility.yul\":3733:3902   */\n    tag_55:\n        /* \"#utility.yul\":3817:3828   */\n      0x00\n        /* \"#utility.yul\":3851:3857   */\n      dup3\n        /* \"#utility.yul\":3846:3849   */\n      dup3\n        /* \"#utility.yul\":3839:3858   */\n      mstore\n        /* \"#utility.yul\":3891:3895   */\n      0x20\n        /* \"#utility.yul\":3886:3889   */\n      dup3\n        /* \"#utility.yul\":3882:3896   */\n      add\n        /* \"#utility.yul\":3867:3896   */\n      swap1\n      pop\n        /* \"#utility.yul\":3733:3902   */\n      swap3\n      swap2\n      pop\n      pop\n      jump\t// out\n        /* \"#utility.yul\":3908:4077   */\n    tag_56:\n        /* \"#utility.yul\":4048:4069   */\n      0x426c6f636b6564206279206669726577616c6c00000000000000000000000000\n        /* \"#utility.yul\":4044:4045   */\n      0x00\n        /* \"#utility.yul\":4036:4042   */\n      dup3\n        /* \"#utility.yul\":4032:4046   */\n      add\n        /* \"#utility.yul\":4025:4070   */\n      mstore\n        /* \"#utility.yul\":3908:4077   */\n      pop\n      jump\t// out\n        /* \"#utility.yul\":4083:4449   */\n    tag_57:\n        /* \"#utility.yul\":4225:4228   */\n      0x00\n        /* \"#utility.yul\":4246:4313   */\n      tag_112\n        /* \"#utility.yul\":4310:4312   */\n      0x13\n        /* \"#utility.yul\":4305:4308   */\n      dup4\n        /* \"#utility.yul\":4246:4313   */\n      tag_55\n      jump\t// in\n    tag_112:\n        /* \"#utility.yul\":4239:4313   */\n      swap2\n      pop\n        /* \"#utility.yul\":4322:4415   */\n      tag_113\n        /* \"#utility.yul\":4411:4414   */\n      dup3\n        /* \"#utility.yul\":4322:4415   */\n      tag_56\n      jump\t// in\n    tag_113:\n        /* \"#utility.yul\":4440:4442   */\n      0x20\n        /* \"#utility.yul\":4435:4438   */\n      dup3\n        /* \"#utility.yul\":4431:4443   */\n      add\n        /* \"#utility.yul\":4424:4443   */\n      swap1\n      pop\n        /* \"#utility.yul\":4083:4449   */\n      swap2\n      swap1\n      pop\n      jump\t// out\n        /* \"#utility.yul\":4455:4874   */\n    tag_33:\n        /* \"#utility.yul\":4621:4625   */\n      0x00\n        /* \"#utility.yul\":4659:4661   */\n      0x20\n        /* \"#utility.yul\":4648:4657   */\n      dup3\n        /* \"#utility.yul\":4644:4662   */\n      add\n        /* \"#utility.yul\":4636:4662   */\n      swap1\n      pop\n        /* \"#utility.yul\":4708:4717   */\n      dup2\n        /* \"#utility.yul\":4702:4706   */\n      dup2\n        /* \"#utility.yul\":4698:4718   */\n      sub\n        /* \"#utility.yul\":4694:4695   */\n      0x00\n        /* \"#utility.yul\":4683:4692   */\n      dup4\n        /* \"#utility.yul\":4679:4696   */\n      add\n        /* \"#utility.yul\":4672:4719   */\n      mstore\n        /* \"#utility.yul\":4736:4867   */\n      tag_115\n        /* \"#utility.yul\":4862:4866   */\n      dup2\n        /* \"#utility.yul\":4736:4867   */\n      tag_57\n      jump\t// in\n    tag_115:\n        /* \"#utility.yul\":4728:4867   */\n      swap1\n      pop\n        /* \"#utility.yul\":4455:4874   */\n      swap2\n      swap1\n      pop\n      jump\t// out\n        /* \"#utility.yul\":4880:5039   */\n    tag_58:\n        /* \"#utility.yul\":5020:5031   */\n      0x4e6f74206f776e65720000000000000000000000000000000000000000000000\n        /* \"#utility.yul\":5016:5017   */\n      0x00\n        /* \"#utility.yul\":5008:5014   */\n      dup3\n        /* \"#utility.yul\":5004:5018   */\n      add\n        /* \"#utility.yul\":4997:5032   */\n      mstore\n        /* \"#utility.yul\":4880:5039   */\n      pop\n      jump\t// out\n        /* \"#utility.yul\":5045:5410   */\n    tag_59:\n        /* \"#utility.yul\":5187:5190   */\n      0x00\n        /* \"#utility.yul\":5208:5274   */\n      tag_118\n        /* \"#utility.yul\":5272:5273   */\n      0x09\n        /* \"#utility.yul\":5267:5270   */\n      dup4\n        /* \"#utility.yul\":5208:5274   */\n      tag_55\n      jump\t// in\n    tag_118:\n        /* \"#utility.yul\":5201:5274   */\n      swap2\n      pop\n        /* \"#utility.yul\":5283:5376   */\n      tag_119\n        /* \"#utility.yul\":5372:5375   */\n      dup3\n        /* \"#utility.yul\":5283:5376   */\n      tag_58\n      jump\t// in\n    tag_119:\n        /* \"#utility.yul\":5401:5403   */\n      0x20\n        /* \"#utility.yul\":5396:5399   */\n      dup3\n        /* \"#utility.yul\":5392:5404   */\n      add\n        /* \"#utility.yul\":5385:5404   */\n      swap1\n      pop\n        /* \"#utility.yul\":5045:5410   */\n      swap2\n      swap1\n      pop\n      jump\t// out\n        /* \"#utility.yul\":5416:5835   */\n    tag_38:\n        /* \"#utility.yul\":5582:5586   */\n      0x00\n        /* \"#utility.yul\":5620:5622   */\n      0x20\n        /* \"#utility.yul\":5609:5618   */\n      dup3\n        /* \"#utility.yul\":5605:5623   */\n      add\n        /* \"#utility.yul\":5597:5623   */\n      swap1\n      pop\n        /* \"#utility.yul\":5669:5678   */\n      dup2\n        /* \"#utility.yul\":5663:5667   */\n      dup2\n        /* \"#utility.yul\":5659:5679   */\n      sub\n        /* \"#utility.yul\":5655:5656   */\n      0x00\n        /* \"#utility.yul\":5644:5653   */\n      dup4\n        /* \"#utility.yul\":5640:5657   */\n      add\n        /* \"#utility.yul\":5633:5680   */\n      mstore\n        /* \"#utility.yul\":5697:5828   */\n      tag_121\n        /* \"#utility.yul\":5823:5827   */\n      dup2\n        /* \"#utility.yul\":5697:5828   */\n      tag_59\n      jump\t// in\n    tag_121:\n        /* \"#utility.yul\":5689:5828   */\n      swap1\n      pop\n        /* \"#utility.yul\":5416:5835   */\n      swap2\n      swap1\n      pop\n      jump\t// out\n\n    auxdata: 0xa2646970667358221220d91c809cc1bd0df8daef14c42adf264be9d6eb4e222c65c36146307eb0a5a57064736f6c634300081a0033\n}\n",
				"bytecode": {
					"linkReferences": {},
					"object": "6080604052348015600e575f80fd5b503360015f6101000a81548173ffffffffffffffffffffffffffffffffffffffff021916908373ffffffffffffffffffffffffffffffffffffffff16021790555060015f8060015f9054906101000a900473ffffffffffffffffffffffffffffffffffffffff1673ffffffffffffffffffffffffffffffffffffffff1673ffffffffffffffffffffffffffffffffffffffff1681526020019081526020015f205f6101000a81548160ff0219169083151502179055506105a4806100d15f395ff3fe608060405234801561000f575f80fd5b5060043610610055575f3560e01c80633b4dbf8b14610059578063835e1eda146100755780638da5cb5b14610091578063d1efd30d146100af578063d63a8e11146100cd575b5f80fd5b610073600480360381019061006e91906102f3565b6100fd565b005b61008f600480360381019061008a91906103ad565b61018f565b005b610099610275565b6040516100a691906103fa565b60405180910390f35b6100b761029a565b6040516100c49190610422565b60405180910390f35b6100e760048036038101906100e2919061043b565b6102a0565b6040516100f49190610475565b60405180910390f35b5f803373ffffffffffffffffffffffffffffffffffffffff1673ffffffffffffffffffffffffffffffffffffffff1681526020019081526020015f205f9054906101000a900460ff16610185576040517f08c379a000000000000000000000000000000000000000000000000000000000815260040161017c906104e8565b60405180910390fd5b8060028190555050565b60015f9054906101000a900473ffffffffffffffffffffffffffffffffffffffff1673ffffffffffffffffffffffffffffffffffffffff163373ffffffffffffffffffffffffffffffffffffffff161461021e576040517f08c379a000000000000000000000000000000000000000000000000000000000815260040161021590610550565b60405180910390fd5b805f808473ffffffffffffffffffffffffffffffffffffffff1673ffffffffffffffffffffffffffffffffffffffff1681526020019081526020015f205f6101000a81548160ff0219169083151502179055505050565b60015f9054906101000a900473ffffffffffffffffffffffffffffffffffffffff1681565b60025481565b5f602052805f5260405f205f915054906101000a900460ff1681565b5f80fd5b5f819050919050565b6102d2816102c0565b81146102dc575f80fd5b50565b5f813590506102ed816102c9565b92915050565b5f60208284031215610308576103076102bc565b5b5f610315848285016102df565b91505092915050565b5f73ffffffffffffffffffffffffffffffffffffffff82169050919050565b5f6103478261031e565b9050919050565b6103578161033d565b8114610361575f80fd5b50565b5f813590506103728161034e565b92915050565b5f8115159050919050565b61038c81610378565b8114610396575f80fd5b50565b5f813590506103a781610383565b92915050565b5f80604083850312156103c3576103c26102bc565b5b5f6103d085828601610364565b92505060206103e185828601610399565b9150509250929050565b6103f48161033d565b82525050565b5f60208201905061040d5f8301846103eb565b92915050565b61041c816102c0565b82525050565b5f6020820190506104355f830184610413565b92915050565b5f602082840312156104505761044f6102bc565b5b5f61045d84828501610364565b91505092915050565b61046f81610378565b82525050565b5f6020820190506104885f830184610466565b92915050565b5f82825260208201905092915050565b7f426c6f636b6564206279206669726577616c6c000000000000000000000000005f82015250565b5f6104d260138361048e565b91506104dd8261049e565b602082019050919050565b5f6020820190508181035f8301526104ff816104c6565b9050919050565b7f4e6f74206f776e657200000000000000000000000000000000000000000000005f82015250565b5f61053a60098361048e565b915061054582610506565b602082019050919050565b5f6020820190508181035f8301526105678161052e565b905091905056fea2646970667358221220d91c809cc1bd0df8daef14c42adf264be9d6eb4e222c65c36146307eb0a5a57064736f6c634300081a0033",
					"opcodes": "PUSH1 0x80 PUSH1 0x40 MSTORE CALLVALUE DUP1 ISZERO PUSH1 0xE JUMPI PUSH0 DUP1 REVERT JUMPDEST POP CALLER PUSH1 0x1 PUSH0 PUSH2 0x100 EXP DUP2 SLOAD DUP2 PUSH20 0xFFFFFFFFFFFFFFFFFFFFFFFFFFFFFFFFFFFFFFFF MUL NOT AND SWAP1 DUP4 PUSH20 0xFFFFFFFFFFFFFFFFFFFFFFFFFFFFFFFFFFFFFFFF AND MUL OR SWAP1 SSTORE POP PUSH1 0x1 PUSH0 DUP1 PUSH1 0x1 PUSH0 SWAP1 SLOAD SWAP1 PUSH2 0x100 EXP SWAP1 DIV PUSH20 0xFFFFFFFFFFFFFFFFFFFFFFFFFFFFFFFFFFFFFFFF AND PUSH20 0xFFFFFFFFFFFFFFFFFFFFFFFFFFFFFFFFFFFFFFFF AND PUSH20 0xFFFFFFFFFFFFFFFFFFFFFFFFFFFFFFFFFFFFFFFF AND DUP2 MSTORE PUSH1 0x20 ADD SWAP1 DUP2 MSTORE PUSH1 0x20 ADD PUSH0 KECCAK256 PUSH0 PUSH2 0x100 EXP DUP2 SLOAD DUP2 PUSH1 0xFF MUL NOT AND SWAP1 DUP4 ISZERO ISZERO MUL OR SWAP1 SSTORE POP PUSH2 0x5A4 DUP1 PUSH2 0xD1 PUSH0 CODECOPY PUSH0 RETURN INVALID PUSH1 0x80 PUSH1 0x40 MSTORE CALLVALUE DUP1 ISZERO PUSH2 0xF JUMPI PUSH0 DUP1 REVERT JUMPDEST POP PUSH1 0x4 CALLDATASIZE LT PUSH2 0x55 JUMPI PUSH0 CALLDATALOAD PUSH1 0xE0 SHR DUP1 PUSH4 0x3B4DBF8B EQ PUSH2 0x59 JUMPI DUP1 PUSH4 0x835E1EDA EQ PUSH2 0x75 JUMPI DUP1 PUSH4 0x8DA5CB5B EQ PUSH2 0x91 JUMPI DUP1 PUSH4 0xD1EFD30D EQ PUSH2 0xAF JUMPI DUP1 PUSH4 0xD63A8E11 EQ PUSH2 0xCD JUMPI JUMPDEST PUSH0 DUP1 REVERT JUMPDEST PUSH2 0x73 PUSH1 0x4 DUP1 CALLDATASIZE SUB DUP2 ADD SWAP1 PUSH2 0x6E SWAP2 SWAP1 PUSH2 0x2F3 JUMP JUMPDEST PUSH2 0xFD JUMP JUMPDEST STOP JUMPDEST PUSH2 0x8F PUSH1 0x4 DUP1 CALLDATASIZE SUB DUP2 ADD SWAP1 PUSH2 0x8A SWAP2 SWAP1 PUSH2 0x3AD JUMP JUMPDEST PUSH2 0x18F JUMP JUMPDEST STOP JUMPDEST PUSH2 0x99 PUSH2 0x275 JUMP JUMPDEST PUSH1 0x40 MLOAD PUSH2 0xA6 SWAP2 SWAP1 PUSH2 0x3FA JUMP JUMPDEST PUSH1 0x40 MLOAD DUP1 SWAP2 SUB SWAP1 RETURN JUMPDEST PUSH2 0xB7 PUSH2 0x29A JUMP JUMPDEST PUSH1 0x40 MLOAD PUSH2 0xC4 SWAP2 SWAP1 PUSH2 0x422 JUMP JUMPDEST PUSH1 0x40 MLOAD DUP1 SWAP2 SUB SWAP1 RETURN JUMPDEST PUSH2 0xE7 PUSH1 0x4 DUP1 CALLDATASIZE SUB DUP2 ADD SWAP1 PUSH2 0xE2 SWAP2 SWAP1 PUSH2 0x43B JUMP JUMPDEST PUSH2 0x2A0 JUMP JUMPDEST PUSH1 0x40 MLOAD PUSH2 0xF4 SWAP2 SWAP1 PUSH2 0x475 JUMP JUMPDEST PUSH1 0x40 MLOAD DUP1 SWAP2 SUB SWAP1 RETURN JUMPDEST PUSH0 DUP1 CALLER PUSH20 0xFFFFFFFFFFFFFFFFFFFFFFFFFFFFFFFFFFFFFFFF AND PUSH20 0xFFFFFFFFFFFFFFFFFFFFFFFFFFFFFFFFFFFFFFFF AND DUP2 MSTORE PUSH1 0x20 ADD SWAP1 DUP2 MSTORE PUSH1 0x20 ADD PUSH0 KECCAK256 PUSH0 SWAP1 SLOAD SWAP1 PUSH2 0x100 EXP SWAP1 DIV PUSH1 0xFF AND PUSH2 0x185 JUMPI PUSH1 0x40 MLOAD PUSH32 0x8C379A000000000000000000000000000000000000000000000000000000000 DUP2 MSTORE PUSH1 0x4 ADD PUSH2 0x17C SWAP1 PUSH2 0x4E8 JUMP JUMPDEST PUSH1 0x40 MLOAD DUP1 SWAP2 SUB SWAP1 REVERT JUMPDEST DUP1 PUSH1 0x2 DUP2 SWAP1 SSTORE POP POP JUMP JUMPDEST PUSH1 0x1 PUSH0 SWAP1 SLOAD SWAP1 PUSH2 0x100 EXP SWAP1 DIV PUSH20 0xFFFFFFFFFFFFFFFFFFFFFFFFFFFFFFFFFFFFFFFF AND PUSH20 0xFFFFFFFFFFFFFFFFFFFFFFFFFFFFFFFFFFFFFFFF AND CALLER PUSH20 0xFFFFFFFFFFFFFFFFFFFFFFFFFFFFFFFFFFFFFFFF AND EQ PUSH2 0x21E JUMPI PUSH1 0x40 MLOAD PUSH32 0x8C379A000000000000000000000000000000000000000000000000000000000 DUP2 MSTORE PUSH1 0x4 ADD PUSH2 0x215 SWAP1 PUSH2 0x550 JUMP JUMPDEST PUSH1 0x40 MLOAD DUP1 SWAP2 SUB SWAP1 REVERT JUMPDEST DUP1 PUSH0 DUP1 DUP5 PUSH20 0xFFFFFFFFFFFFFFFFFFFFFFFFFFFFFFFFFFFFFFFF AND PUSH20 0xFFFFFFFFFFFFFFFFFFFFFFFFFFFFFFFFFFFFFFFF AND DUP2 MSTORE PUSH1 0x20 ADD SWAP1 DUP2 MSTORE PUSH1 0x20 ADD PUSH0 KECCAK256 PUSH0 PUSH2 0x100 EXP DUP2 SLOAD DUP2 PUSH1 0xFF MUL NOT AND SWAP1 DUP4 ISZERO ISZERO MUL OR SWAP1 SSTORE POP POP POP JUMP JUMPDEST PUSH1 0x1 PUSH0 SWAP1 SLOAD SWAP1 PUSH2 0x100 EXP SWAP1 DIV PUSH20 0xFFFFFFFFFFFFFFFFFFFFFFFFFFFFFFFFFFFFFFFF AND DUP2 JUMP JUMPDEST PUSH1 0x2 SLOAD DUP2 JUMP JUMPDEST PUSH0 PUSH1 0x20 MSTORE DUP1 PUSH0 MSTORE PUSH1 0x40 PUSH0 KECCAK256 PUSH0 SWAP2 POP SLOAD SWAP1 PUSH2 0x100 EXP SWAP1 DIV PUSH1 0xFF AND DUP2 JUMP JUMPDEST PUSH0 DUP1 REVERT JUMPDEST PUSH0 DUP2 SWAP1 POP SWAP2 SWAP1 POP JUMP JUMPDEST PUSH2 0x2D2 DUP2 PUSH2 0x2C0 JUMP JUMPDEST DUP2 EQ PUSH2 0x2DC JUMPI PUSH0 DUP1 REVERT JUMPDEST POP JUMP JUMPDEST PUSH0 DUP2 CALLDATALOAD SWAP1 POP PUSH2 0x2ED DUP2 PUSH2 0x2C9 JUMP JUMPDEST SWAP3 SWAP2 POP POP JUMP JUMPDEST PUSH0 PUSH1 0x20 DUP3 DUP5 SUB SLT ISZERO PUSH2 0x308 JUMPI PUSH2 0x307 PUSH2 0x2BC JUMP JUMPDEST JUMPDEST PUSH0 PUSH2 0x315 DUP5 DUP3 DUP6 ADD PUSH2 0x2DF JUMP JUMPDEST SWAP2 POP POP SWAP3 SWAP2 POP POP JUMP JUMPDEST PUSH0 PUSH20 0xFFFFFFFFFFFFFFFFFFFFFFFFFFFFFFFFFFFFFFFF DUP3 AND SWAP1 POP SWAP2 SWAP1 POP JUMP JUMPDEST PUSH0 PUSH2 0x347 DUP3 PUSH2 0x31E JUMP JUMPDEST SWAP1 POP SWAP2 SWAP1 POP JUMP JUMPDEST PUSH2 0x357 DUP2 PUSH2 0x33D JUMP JUMPDEST DUP2 EQ PUSH2 0x361 JUMPI PUSH0 DUP1 REVERT JUMPDEST POP JUMP JUMPDEST PUSH0 DUP2 CALLDATALOAD SWAP1 POP PUSH2 0x372 DUP2 PUSH2 0x34E JUMP JUMPDEST SWAP3 SWAP2 POP POP JUMP JUMPDEST PUSH0 DUP2 ISZERO ISZERO SWAP1 POP SWAP2 SWAP1 POP JUMP JUMPDEST PUSH2 0x38C DUP2 PUSH2 0x378 JUMP JUMPDEST DUP2 EQ PUSH2 0x396 JUMPI PUSH0 DUP1 REVERT JUMPDEST POP JUMP JUMPDEST PUSH0 DUP2 CALLDATALOAD SWAP1 POP PUSH2 0x3A7 DUP2 PUSH2 0x383 JUMP JUMPDEST SWAP3 SWAP2 POP POP JUMP JUMPDEST PUSH0 DUP1 PUSH1 0x40 DUP4 DUP6 SUB SLT ISZERO PUSH2 0x3C3 JUMPI PUSH2 0x3C2 PUSH2 0x2BC JUMP JUMPDEST JUMPDEST PUSH0 PUSH2 0x3D0 DUP6 DUP3 DUP7 ADD PUSH2 0x364 JUMP JUMPDEST SWAP3 POP POP PUSH1 0x20 PUSH2 0x3E1 DUP6 DUP3 DUP7 ADD PUSH2 0x399 JUMP JUMPDEST SWAP2 POP POP SWAP3 POP SWAP3 SWAP1 POP JUMP JUMPDEST PUSH2 0x3F4 DUP2 PUSH2 0x33D JUMP JUMPDEST DUP3 MSTORE POP POP JUMP JUMPDEST PUSH0 PUSH1 0x20 DUP3 ADD SWAP1 POP PUSH2 0x40D PUSH0 DUP4 ADD DUP5 PUSH2 0x3EB JUMP JUMPDEST SWAP3 SWAP2 POP POP JUMP JUMPDEST PUSH2 0x41C DUP2 PUSH2 0x2C0 JUMP JUMPDEST DUP3 MSTORE POP POP JUMP JUMPDEST PUSH0 PUSH1 0x20 DUP3 ADD SWAP1 POP PUSH2 0x435 PUSH0 DUP4 ADD DUP5 PUSH2 0x413 JUMP JUMPDEST SWAP3 SWAP2 POP POP JUMP JUMPDEST PUSH0 PUSH1 0x20 DUP3 DUP5 SUB SLT ISZERO PUSH2 0x450 JUMPI PUSH2 0x44F PUSH2 0x2BC JUMP JUMPDEST JUMPDEST PUSH0 PUSH2 0x45D DUP5 DUP3 DUP6 ADD PUSH2 0x364 JUMP JUMPDEST SWAP2 POP POP SWAP3 SWAP2 POP POP JUMP JUMPDEST PUSH2 0x46F DUP2 PUSH2 0x378 JUMP JUMPDEST DUP3 MSTORE POP POP JUMP JUMPDEST PUSH0 PUSH1 0x20 DUP3 ADD SWAP1 POP PUSH2 0x488 PUSH0 DUP4 ADD DUP5 PUSH2 0x466 JUMP JUMPDEST SWAP3 SWAP2 POP POP JUMP JUMPDEST PUSH0 DUP3 DUP3 MSTORE PUSH1 0x20 DUP3 ADD SWAP1 POP SWAP3 SWAP2 POP POP JUMP JUMPDEST PUSH32 0x426C6F636B6564206279206669726577616C6C00000000000000000000000000 PUSH0 DUP3 ADD MSTORE POP JUMP JUMPDEST PUSH0 PUSH2 0x4D2 PUSH1 0x13 DUP4 PUSH2 0x48E JUMP JUMPDEST SWAP2 POP PUSH2 0x4DD DUP3 PUSH2 0x49E JUMP JUMPDEST PUSH1 0x20 DUP3 ADD SWAP1 POP SWAP2 SWAP1 POP JUMP JUMPDEST PUSH0 PUSH1 0x20 DUP3 ADD SWAP1 POP DUP2 DUP2 SUB PUSH0 DUP4 ADD MSTORE PUSH2 0x4FF DUP2 PUSH2 0x4C6 JUMP JUMPDEST SWAP1 POP SWAP2 SWAP1 POP JUMP JUMPDEST PUSH32 0x4E6F74206F776E65720000000000000000000000000000000000000000000000 PUSH0 DUP3 ADD MSTORE POP JUMP JUMPDEST PUSH0 PUSH2 0x53A PUSH1 0x9 DUP4 PUSH2 0x48E JUMP JUMPDEST SWAP2 POP PUSH2 0x545 DUP3 PUSH2 0x506 JUMP JUMPDEST PUSH1 0x20 DUP3 ADD SWAP1 POP SWAP2 SWAP1 POP JUMP JUMPDEST PUSH0 PUSH1 0x20 DUP3 ADD SWAP1 POP DUP2 DUP2 SUB PUSH0 DUP4 ADD MSTORE PUSH2 0x567 DUP2 PUSH2 0x52E JUMP JUMPDEST SWAP1 POP SWAP2 SWAP1 POP JUMP INVALID LOG2 PUSH5 0x6970667358 0x22 SLT KECCAK256 0xD9 SHR DUP1 SWAP13 0xC1 0xBD 0xD 0xF8 0xDA 0xEF EQ 0xC4 0x2A 0xDF 0x26 0x4B 0xE9 0xD6 0xEB 0x4E 0x22 0x2C PUSH6 0xC36146307EB0 0xA5 0xA5 PUSH17 0x64736F6C634300081A0033000000000000 "
				},
				"gasEstimates": {
					"creation": {
						"codeDepositCost": "288800",
						"executionCost": "51083",
						"totalCost": "339883"
					},
					"external": {
						"allowed(address)": "2898",
						"owner()": "2530",
						"secret()": "2469",
						"setSecret(uint256)": "24732",
						"toggleAccess(address,bool)": "27149"
					}
				},
				"methodIdentifiers": {
					"allowed(address)": "d63a8e11",
					"owner()": "8da5cb5b",
					"secret()": "d1efd30d",
					"setSecret(uint256)": "3b4dbf8b",
					"toggleAccess(address,bool)": "835e1eda"
				}
			},
			"storageLayout": {
				"storage": [
					{
						"astId": 5,
						"contract": "F/Firewall/Address-BasedFirewall.sol:AddressFirewall",
						"label": "allowed",
						"offset": 0,
						"slot": "0",
						"type": "t_mapping(t_address,t_bool)"
					},
					{
						"astId": 7,
						"contract": "F/Firewall/Address-BasedFirewall.sol:AddressFirewall",
						"label": "owner",
						"offset": 0,
						"slot": "1",
						"type": "t_address"
					},
					{
						"astId": 9,
						"contract": "F/Firewall/Address-BasedFirewall.sol:AddressFirewall",
						"label": "secret",
						"offset": 0,
						"slot": "2",
						"type": "t_uint256"
					}
				],
				"types": {
					"t_address": {
						"encoding": "inplace",
						"label": "address",
						"numberOfBytes": "20"
					},
					"t_bool": {
						"encoding": "inplace",
						"label": "bool",
						"numberOfBytes": "1"
					},
					"t_mapping(t_address,t_bool)": {
						"encoding": "mapping",
						"key": "t_address",
						"label": "mapping(address => bool)",
						"numberOfBytes": "32",
						"value": "t_bool"
					},
					"t_uint256": {
						"encoding": "inplace",
						"label": "uint256",
						"numberOfBytes": "32"
					}
				}
			},
			"userdoc": {
				"kind": "user",
				"methods": {},
				"version": 1
			}
		}
	}
}