{
	"R/Reverse Engineering/ReverseResolver.sol": {
		"ReverseResolver": {
			"abi": [
				{
					"inputs": [
						{
							"internalType": "address",
							"name": "who",
							"type": "address"
						},
						{
							"internalType": "string",
							"name": "label",
							"type": "string"
						},
						{
							"internalType": "string",
							"name": "role",
							"type": "string"
						},
						{
							"internalType": "string",
							"name": "tag",
							"type": "string"
						}
					],
					"name": "label",
					"outputs": [],
					"stateMutability": "nonpayable",
					"type": "function"
				},
				{
					"inputs": [
						{
							"internalType": "address",
							"name": "",
							"type": "address"
						}
					],
					"name": "metadata",
					"outputs": [
						{
							"internalType": "string",
							"name": "label",
							"type": "string"
						},
						{
							"internalType": "string",
							"name": "role",
							"type": "string"
						},
						{
							"internalType": "string",
							"name": "tag",
							"type": "string"
						}
					],
					"stateMutability": "view",
					"type": "function"
				},
				{
					"inputs": [
						{
							"internalType": "address",
							"name": "who",
							"type": "address"
						}
					],
					"name": "resolve",
					"outputs": [
						{
							"components": [
								{
									"internalType": "string",
									"name": "label",
									"type": "string"
								},
								{
									"internalType": "string",
									"name": "role",
									"type": "string"
								},
								{
									"internalType": "string",
									"name": "tag",
									"type": "string"
								}
							],
							"internalType": "struct ReverseResolver.Meta",
							"name": "",
							"type": "tuple"
						}
					],
					"stateMutability": "view",
					"type": "function"
				}
			],
			"devdoc": {
				"kind": "dev",
				"methods": {},
				"version": 1
			},
			"evm": {
				"assembly": "    /* \"R/Reverse Engineering/ReverseResolver.sol\":0:435  contract ReverseResolver {... */\n  mstore(0x40, 0x80)\n  callvalue\n  dup1\n  iszero\n  tag_1\n  jumpi\n  0x00\n  dup1\n  revert\ntag_1:\n  pop\n  dataSize(sub_0)\n  dup1\n  dataOffset(sub_0)\n  0x00\n  codecopy\n  0x00\n  return\nstop\n\nsub_0: assembly {\n        /* \"R/Reverse Engineering/ReverseResolver.sol\":0:435  contract ReverseResolver {... */\n      mstore(0x40, 0x80)\n      callvalue\n      dup1\n      iszero\n      tag_1\n      jumpi\n      0x00\n      dup1\n      revert\n    tag_1:\n      pop\n      jumpi(tag_2, lt(calldatasize, 0x04))\n      shr(0xe0, calldataload(0x00))\n      dup1\n      0x2ba21572\n      eq\n      tag_3\n      jumpi\n      dup1\n      0x55ea6c47\n      eq\n      tag_4\n      jumpi\n      dup1\n      0xf9cf9c74\n      eq\n      tag_5\n      jumpi\n    tag_2:\n      0x00\n      dup1\n      revert\n        /* \"R/Reverse Engineering/ReverseResolver.sol\":119:159  mapping(address => Meta) public metadata */\n    tag_3:\n      tag_6\n      0x04\n      dup1\n      calldatasize\n      sub\n      dup2\n      add\n      swap1\n      tag_7\n      swap2\n      swap1\n      tag_8\n      jump\t// in\n    tag_7:\n      tag_9\n      jump\t// in\n    tag_6:\n      mload(0x40)\n      tag_10\n      swap4\n      swap3\n      swap2\n      swap1\n      tag_11\n      jump\t// in\n    tag_10:\n      mload(0x40)\n      dup1\n      swap2\n      sub\n      swap1\n      return\n        /* \"R/Reverse Engineering/ReverseResolver.sol\":330:433  function resolve(address who) external view returns (Meta memory) {... */\n    tag_4:\n      tag_12\n      0x04\n      dup1\n      calldatasize\n      sub\n      dup2\n      add\n      swap1\n      tag_13\n      swap2\n      swap1\n      tag_8\n      jump\t// in\n    tag_13:\n      tag_14\n      jump\t// in\n    tag_12:\n      mload(0x40)\n      tag_15\n      swap2\n      swap1\n      tag_16\n      jump\t// in\n    tag_15:\n      mload(0x40)\n      dup1\n      swap2\n      sub\n      swap1\n      return\n        /* \"R/Reverse Engineering/ReverseResolver.sol\":166:324  function label(address who, string calldata label, string calldata role, string calldata tag) external {... */\n    tag_5:\n      tag_17\n      0x04\n      dup1\n      calldatasize\n      sub\n      dup2\n      add\n      swap1\n      tag_18\n      swap2\n      swap1\n      tag_19\n      jump\t// in\n    tag_18:\n      tag_20\n      jump\t// in\n    tag_17:\n      stop\n        /* \"R/Reverse Engineering/ReverseResolver.sol\":119:159  mapping(address => Meta) public metadata */\n    tag_9:\n      mstore(0x20, 0x00)\n      dup1\n      0x00\n      mstore\n      keccak256(0x00, 0x40)\n      0x00\n      swap2\n      pop\n      swap1\n      pop\n      dup1\n      0x00\n      add\n      dup1\n      sload\n      tag_21\n      swap1\n      tag_22\n      jump\t// in\n    tag_21:\n      dup1\n      0x1f\n      add\n      0x20\n      dup1\n      swap2\n      div\n      mul\n      0x20\n      add\n      mload(0x40)\n      swap1\n      dup2\n      add\n      0x40\n      mstore\n      dup1\n      swap3\n      swap2\n      swap1\n      dup2\n      dup2\n      mstore\n      0x20\n      add\n      dup3\n      dup1\n      sload\n      tag_23\n      swap1\n      tag_22\n      jump\t// in\n    tag_23:\n      dup1\n      iszero\n      tag_24\n      jumpi\n      dup1\n      0x1f\n      lt\n      tag_25\n      jumpi\n      0x0100\n      dup1\n      dup4\n      sload\n      div\n      mul\n      dup4\n      mstore\n      swap2\n      0x20\n      add\n      swap2\n      jump(tag_24)\n    tag_25:\n      dup3\n      add\n      swap2\n      swap1\n      0x00\n      mstore\n      keccak256(0x00, 0x20)\n      swap1\n    tag_26:\n      dup2\n      sload\n      dup2\n      mstore\n      swap1\n      0x01\n      add\n      swap1\n      0x20\n      add\n      dup1\n      dup4\n      gt\n      tag_26\n      jumpi\n      dup3\n      swap1\n      sub\n      0x1f\n      and\n      dup3\n      add\n      swap2\n    tag_24:\n      pop\n      pop\n      pop\n      pop\n      pop\n      swap1\n      dup1\n      0x01\n      add\n      dup1\n      sload\n      tag_27\n      swap1\n      tag_22\n      jump\t// in\n    tag_27:\n      dup1\n      0x1f\n      add\n      0x20\n      dup1\n      swap2\n      div\n      mul\n      0x20\n      add\n      mload(0x40)\n      swap1\n      dup2\n      add\n      0x40\n      mstore\n      dup1\n      swap3\n      swap2\n      swap1\n      dup2\n      dup2\n      mstore\n      0x20\n      add\n      dup3\n      dup1\n      sload\n      tag_28\n      swap1\n      tag_22\n      jump\t// in\n    tag_28:\n      dup1\n      iszero\n      tag_29\n      jumpi\n      dup1\n      0x1f\n      lt\n      tag_30\n      jumpi\n      0x0100\n      dup1\n      dup4\n      sload\n      div\n      mul\n      dup4\n      mstore\n      swap2\n      0x20\n      add\n      swap2\n      jump(tag_29)\n    tag_30:\n      dup3\n      add\n      swap2\n      swap1\n      0x00\n      mstore\n      keccak256(0x00, 0x20)\n      swap1\n    tag_31:\n      dup2\n      sload\n      dup2\n      mstore\n      swap1\n      0x01\n      add\n      swap1\n      0x20\n      add\n      dup1\n      dup4\n      gt\n      tag_31\n      jumpi\n      dup3\n      swap1\n      sub\n      0x1f\n      and\n      dup3\n      add\n      swap2\n    tag_29:\n      pop\n      pop\n      pop\n      pop\n      pop\n      swap1\n      dup1\n      0x02\n      add\n      dup1\n      sload\n      tag_32\n      swap1\n      tag_22\n      jump\t// in\n    tag_32:\n      dup1\n      0x1f\n      add\n      0x20\n      dup1\n      swap2\n      div\n      mul\n      0x20\n      add\n      mload(0x40)\n      swap1\n      dup2\n      add\n      0x40\n      mstore\n      dup1\n      swap3\n      swap2\n      swap1\n      dup2\n      dup2\n      mstore\n      0x20\n      add\n      dup3\n      dup1\n      sload\n      tag_33\n      swap1\n      tag_22\n      jump\t// in\n    tag_33:\n      dup1\n      iszero\n      tag_34\n      jumpi\n      dup1\n      0x1f\n      lt\n      tag_35\n      jumpi\n      0x0100\n      dup1\n      dup4\n      sload\n      div\n      mul\n      dup4\n      mstore\n      swap2\n      0x20\n      add\n      swap2\n      jump(tag_34)\n    tag_35:\n      dup3\n      add\n      swap2\n      swap1\n      0x00\n      mstore\n      keccak256(0x00, 0x20)\n      swap1\n    tag_36:\n      dup2\n      sload\n      dup2\n      mstore\n      swap1\n      0x01\n      add\n      swap1\n      0x20\n      add\n      dup1\n      dup4\n      gt\n      tag_36\n      jumpi\n      dup3\n      swap1\n      sub\n      0x1f\n      and\n      dup3\n      add\n      swap2\n    tag_34:\n      pop\n      pop\n      pop\n      pop\n      pop\n      swap1\n      pop\n      dup4\n      jump\t// out\n        /* \"R/Reverse Engineering/ReverseResolver.sol\":330:433  function resolve(address who) external view returns (Meta memory) {... */\n    tag_14:\n        /* \"R/Reverse Engineering/ReverseResolver.sol\":383:394  Meta memory */\n      tag_37\n      tag_38\n      jump\t// in\n    tag_37:\n        /* \"R/Reverse Engineering/ReverseResolver.sol\":413:421  metadata */\n      0x00\n        /* \"R/Reverse Engineering/ReverseResolver.sol\":413:426  metadata[who] */\n      dup1\n        /* \"R/Reverse Engineering/ReverseResolver.sol\":422:425  who */\n      dup4\n        /* \"R/Reverse Engineering/ReverseResolver.sol\":413:426  metadata[who] */\n      0xffffffffffffffffffffffffffffffffffffffff\n      and\n      0xffffffffffffffffffffffffffffffffffffffff\n      and\n      dup2\n      mstore\n      0x20\n      add\n      swap1\n      dup2\n      mstore\n      0x20\n      add\n      0x00\n      keccak256\n        /* \"R/Reverse Engineering/ReverseResolver.sol\":406:426  return metadata[who] */\n      mload(0x40)\n      dup1\n      0x60\n      add\n      0x40\n      mstore\n      swap1\n      dup2\n      0x00\n      dup3\n      add\n      dup1\n      sload\n      tag_40\n      swap1\n      tag_22\n      jump\t// in\n    tag_40:\n      dup1\n      0x1f\n      add\n      0x20\n      dup1\n      swap2\n      div\n      mul\n      0x20\n      add\n      mload(0x40)\n      swap1\n      dup2\n      add\n      0x40\n      mstore\n      dup1\n      swap3\n      swap2\n      swap1\n      dup2\n      dup2\n      mstore\n      0x20\n      add\n      dup3\n      dup1\n      sload\n      tag_41\n      swap1\n      tag_22\n      jump\t// in\n    tag_41:\n      dup1\n      iszero\n      tag_42\n      jumpi\n      dup1\n      0x1f\n      lt\n      tag_43\n      jumpi\n      0x0100\n      dup1\n      dup4\n      sload\n      div\n      mul\n      dup4\n      mstore\n      swap2\n      0x20\n      add\n      swap2\n      jump(tag_42)\n    tag_43:\n      dup3\n      add\n      swap2\n      swap1\n      0x00\n      mstore\n      keccak256(0x00, 0x20)\n      swap1\n    tag_44:\n      dup2\n      sload\n      dup2\n      mstore\n      swap1\n      0x01\n      add\n      swap1\n      0x20\n      add\n      dup1\n      dup4\n      gt\n      tag_44\n      jumpi\n      dup3\n      swap1\n      sub\n      0x1f\n      and\n      dup3\n      add\n      swap2\n    tag_42:\n      pop\n      pop\n      pop\n      pop\n      pop\n      dup2\n      mstore\n      0x20\n      add\n      0x01\n      dup3\n      add\n      dup1\n      sload\n      tag_45\n      swap1\n      tag_22\n      jump\t// in\n    tag_45:\n      dup1\n      0x1f\n      add\n      0x20\n      dup1\n      swap2\n      div\n      mul\n      0x20\n      add\n      mload(0x40)\n      swap1\n      dup2\n      add\n      0x40\n      mstore\n      dup1\n      swap3\n      swap2\n      swap1\n      dup2\n      dup2\n      mstore\n      0x20\n      add\n      dup3\n      dup1\n      sload\n      tag_46\n      swap1\n      tag_22\n      jump\t// in\n    tag_46:\n      dup1\n      iszero\n      tag_47\n      jumpi\n      dup1\n      0x1f\n      lt\n      tag_48\n      jumpi\n      0x0100\n      dup1\n      dup4\n      sload\n      div\n      mul\n      dup4\n      mstore\n      swap2\n      0x20\n      add\n      swap2\n      jump(tag_47)\n    tag_48:\n      dup3\n      add\n      swap2\n      swap1\n      0x00\n      mstore\n      keccak256(0x00, 0x20)\n      swap1\n    tag_49:\n      dup2\n      sload\n      dup2\n      mstore\n      swap1\n      0x01\n      add\n      swap1\n      0x20\n      add\n      dup1\n      dup4\n      gt\n      tag_49\n      jumpi\n      dup3\n      swap1\n      sub\n      0x1f\n      and\n      dup3\n      add\n      swap2\n    tag_47:\n      pop\n      pop\n      pop\n      pop\n      pop\n      dup2\n      mstore\n      0x20\n      add\n      0x02\n      dup3\n      add\n      dup1\n      sload\n      tag_50\n      swap1\n      tag_22\n      jump\t// in\n    tag_50:\n      dup1\n      0x1f\n      add\n      0x20\n      dup1\n      swap2\n      div\n      mul\n      0x20\n      add\n      mload(0x40)\n      swap1\n      dup2\n      add\n      0x40\n      mstore\n      dup1\n      swap3\n      swap2\n      swap1\n      dup2\n      dup2\n      mstore\n      0x20\n      add\n      dup3\n      dup1\n      sload\n      tag_51\n      swap1\n      tag_22\n      jump\t// in\n    tag_51:\n      dup1\n      iszero\n      tag_52\n      jumpi\n      dup1\n      0x1f\n      lt\n      tag_53\n      jumpi\n      0x0100\n      dup1\n      dup4\n      sload\n      div\n      mul\n      dup4\n      mstore\n      swap2\n      0x20\n      add\n      swap2\n      jump(tag_52)\n    tag_53:\n      dup3\n      add\n      swap2\n      swap1\n      0x00\n      mstore\n      keccak256(0x00, 0x20)\n      swap1\n    tag_54:\n      dup2\n      sload\n      dup2\n      mstore\n      swap1\n      0x01\n      add\n      swap1\n      0x20\n      add\n      dup1\n      dup4\n      gt\n      tag_54\n      jumpi\n      dup3\n      swap1\n      sub\n      0x1f\n      and\n      dup3\n      add\n      swap2\n    tag_52:\n      pop\n      pop\n      pop\n      pop\n      pop\n      dup2\n      mstore\n      pop\n      pop\n      swap1\n      pop\n        /* \"R/Reverse Engineering/ReverseResolver.sol\":330:433  function resolve(address who) external view returns (Meta memory) {... */\n      swap2\n      swap1\n      pop\n      jump\t// out\n        /* \"R/Reverse Engineering/ReverseResolver.sol\":166:324  function label(address who, string calldata label, string calldata role, string calldata tag) external {... */\n    tag_20:\n        /* \"R/Reverse Engineering/ReverseResolver.sol\":295:317  Meta(label, role, tag) */\n      mload(0x40)\n      dup1\n      0x60\n      add\n      0x40\n      mstore\n      dup1\n        /* \"R/Reverse Engineering/ReverseResolver.sol\":300:305  label */\n      dup8\n      dup8\n        /* \"R/Reverse Engineering/ReverseResolver.sol\":295:317  Meta(label, role, tag) */\n      dup1\n      dup1\n      0x1f\n      add\n      0x20\n      dup1\n      swap2\n      div\n      mul\n      0x20\n      add\n      mload(0x40)\n      swap1\n      dup2\n      add\n      0x40\n      mstore\n      dup1\n      swap4\n      swap3\n      swap2\n      swap1\n      dup2\n      dup2\n      mstore\n      0x20\n      add\n      dup4\n      dup4\n      dup1\n      dup3\n      dup5\n      calldatacopy\n      0x00\n      dup2\n      dup5\n      add\n      mstore\n      not(0x1f)\n      0x1f\n      dup3\n      add\n      and\n      swap1\n      pop\n      dup1\n      dup4\n      add\n      swap3\n      pop\n      pop\n      pop\n      pop\n      pop\n      pop\n      pop\n      dup2\n      mstore\n      0x20\n      add\n        /* \"R/Reverse Engineering/ReverseResolver.sol\":307:311  role */\n      dup6\n      dup6\n        /* \"R/Reverse Engineering/ReverseResolver.sol\":295:317  Meta(label, role, tag) */\n      dup1\n      dup1\n      0x1f\n      add\n      0x20\n      dup1\n      swap2\n      div\n      mul\n      0x20\n      add\n      mload(0x40)\n      swap1\n      dup2\n      add\n      0x40\n      mstore\n      dup1\n      swap4\n      swap3\n      swap2\n      swap1\n      dup2\n      dup2\n      mstore\n      0x20\n      add\n      dup4\n      dup4\n      dup1\n      dup3\n      dup5\n      calldatacopy\n      0x00\n      dup2\n      dup5\n      add\n      mstore\n      not(0x1f)\n      0x1f\n      dup3\n      add\n      and\n      swap1\n      pop\n      dup1\n      dup4\n      add\n      swap3\n      pop\n      pop\n      pop\n      pop\n      pop\n      pop\n      pop\n      dup2\n      mstore\n      0x20\n      add\n        /* \"R/Reverse Engineering/ReverseResolver.sol\":313:316  tag */\n      dup4\n      dup4\n        /* \"R/Reverse Engineering/ReverseResolver.sol\":295:317  Meta(label, role, tag) */\n      dup1\n      dup1\n      0x1f\n      add\n      0x20\n      dup1\n      swap2\n      div\n      mul\n      0x20\n      add\n      mload(0x40)\n      swap1\n      dup2\n      add\n      0x40\n      mstore\n      dup1\n      swap4\n      swap3\n      swap2\n      swap1\n      dup2\n      dup2\n      mstore\n      0x20\n      add\n      dup4\n      dup4\n      dup1\n      dup3\n      dup5\n      calldatacopy\n      0x00\n      dup2\n      dup5\n      add\n      mstore\n      not(0x1f)\n      0x1f\n      dup3\n      add\n      and\n      swap1\n      pop\n      dup1\n      dup4\n      add\n      swap3\n      pop\n      pop\n      pop\n      pop\n      pop\n      pop\n      pop\n      dup2\n      mstore\n      pop\n        /* \"R/Reverse Engineering/ReverseResolver.sol\":279:287  metadata */\n      0x00\n        /* \"R/Reverse Engineering/ReverseResolver.sol\":279:292  metadata[who] */\n      dup1\n        /* \"R/Reverse Engineering/ReverseResolver.sol\":288:291  who */\n      dup10\n        /* \"R/Reverse Engineering/ReverseResolver.sol\":279:292  metadata[who] */\n      0xffffffffffffffffffffffffffffffffffffffff\n      and\n      0xffffffffffffffffffffffffffffffffffffffff\n      and\n      dup2\n      mstore\n      0x20\n      add\n      swap1\n      dup2\n      mstore\n      0x20\n      add\n      0x00\n      keccak256\n        /* \"R/Reverse Engineering/ReverseResolver.sol\":279:317  metadata[who] = Meta(label, role, tag) */\n      0x00\n      dup3\n      add\n      mload\n      dup2\n      0x00\n      add\n      swap1\n      dup2\n      tag_56\n      swap2\n      swap1\n      tag_57\n      jump\t// in\n    tag_56:\n      pop\n      0x20\n      dup3\n      add\n      mload\n      dup2\n      0x01\n      add\n      swap1\n      dup2\n      tag_58\n      swap2\n      swap1\n      tag_57\n      jump\t// in\n    tag_58:\n      pop\n      0x40\n      dup3\n      add\n      mload\n      dup2\n      0x02\n      add\n      swap1\n      dup2\n      tag_59\n      swap2\n      swap1\n      tag_57\n      jump\t// in\n    tag_59:\n      pop\n      swap1\n      pop\n      pop\n        /* \"R/Reverse Engineering/ReverseResolver.sol\":166:324  function label(address who, string calldata label, string calldata role, string calldata tag) external {... */\n      pop\n      pop\n      pop\n      pop\n      pop\n      pop\n      pop\n      jump\t// out\n    tag_38:\n      mload(0x40)\n      dup1\n      0x60\n      add\n      0x40\n      mstore\n      dup1\n      0x60\n      dup2\n      mstore\n      0x20\n      add\n      0x60\n      dup2\n      mstore\n      0x20\n      add\n      0x60\n      dup2\n      mstore\n      pop\n      swap1\n      jump\t// out\n        /* \"#utility.yul\":88:205   */\n    tag_61:\n        /* \"#utility.yul\":197:198   */\n      0x00\n        /* \"#utility.yul\":194:195   */\n      dup1\n        /* \"#utility.yul\":187:199   */\n      revert\n        /* \"#utility.yul\":211:328   */\n    tag_62:\n        /* \"#utility.yul\":320:321   */\n      0x00\n        /* \"#utility.yul\":317:318   */\n      dup1\n        /* \"#utility.yul\":310:322   */\n      revert\n        /* \"#utility.yul\":334:460   */\n    tag_63:\n        /* \"#utility.yul\":371:378   */\n      0x00\n        /* \"#utility.yul\":411:453   */\n      0xffffffffffffffffffffffffffffffffffffffff\n        /* \"#utility.yul\":404:409   */\n      dup3\n        /* \"#utility.yul\":400:454   */\n      and\n        /* \"#utility.yul\":389:454   */\n      swap1\n      pop\n        /* \"#utility.yul\":334:460   */\n      swap2\n      swap1\n      pop\n      jump\t// out\n        /* \"#utility.yul\":466:562   */\n    tag_64:\n        /* \"#utility.yul\":503:510   */\n      0x00\n        /* \"#utility.yul\":532:556   */\n      tag_103\n        /* \"#utility.yul\":550:555   */\n      dup3\n        /* \"#utility.yul\":532:556   */\n      tag_63\n      jump\t// in\n    tag_103:\n        /* \"#utility.yul\":521:556   */\n      swap1\n      pop\n        /* \"#utility.yul\":466:562   */\n      swap2\n      swap1\n      pop\n      jump\t// out\n        /* \"#utility.yul\":568:690   */\n    tag_65:\n        /* \"#utility.yul\":641:665   */\n      tag_105\n        /* \"#utility.yul\":659:664   */\n      dup2\n        /* \"#utility.yul\":641:665   */\n      tag_64\n      jump\t// in\n    tag_105:\n        /* \"#utility.yul\":634:639   */\n      dup2\n        /* \"#utility.yul\":631:666   */\n      eq\n        /* \"#utility.yul\":621:684   */\n      tag_106\n      jumpi\n        /* \"#utility.yul\":680:681   */\n      0x00\n        /* \"#utility.yul\":677:678   */\n      dup1\n        /* \"#utility.yul\":670:682   */\n      revert\n        /* \"#utility.yul\":621:684   */\n    tag_106:\n        /* \"#utility.yul\":568:690   */\n      pop\n      jump\t// out\n        /* \"#utility.yul\":696:835   */\n    tag_66:\n        /* \"#utility.yul\":742:747   */\n      0x00\n        /* \"#utility.yul\":780:786   */\n      dup2\n        /* \"#utility.yul\":767:787   */\n      calldataload\n        /* \"#utility.yul\":758:787   */\n      swap1\n      pop\n        /* \"#utility.yul\":796:829   */\n      tag_108\n        /* \"#utility.yul\":823:828   */\n      dup2\n        /* \"#utility.yul\":796:829   */\n      tag_65\n      jump\t// in\n    tag_108:\n        /* \"#utility.yul\":696:835   */\n      swap3\n      swap2\n      pop\n      pop\n      jump\t// out\n        /* \"#utility.yul\":841:1170   */\n    tag_8:\n        /* \"#utility.yul\":900:906   */\n      0x00\n        /* \"#utility.yul\":949:951   */\n      0x20\n        /* \"#utility.yul\":937:946   */\n      dup3\n        /* \"#utility.yul\":928:935   */\n      dup5\n        /* \"#utility.yul\":924:947   */\n      sub\n        /* \"#utility.yul\":920:952   */\n      slt\n        /* \"#utility.yul\":917:1036   */\n      iszero\n      tag_110\n      jumpi\n        /* \"#utility.yul\":955:1034   */\n      tag_111\n      tag_61\n      jump\t// in\n    tag_111:\n        /* \"#utility.yul\":917:1036   */\n    tag_110:\n        /* \"#utility.yul\":1075:1076   */\n      0x00\n        /* \"#utility.yul\":1100:1153   */\n      tag_112\n        /* \"#utility.yul\":1145:1152   */\n      dup5\n        /* \"#utility.yul\":1136:1142   */\n      dup3\n        /* \"#utility.yul\":1125:1134   */\n      dup6\n        /* \"#utility.yul\":1121:1143   */\n      add\n        /* \"#utility.yul\":1100:1153   */\n      tag_66\n      jump\t// in\n    tag_112:\n        /* \"#utility.yul\":1090:1153   */\n      swap2\n      pop\n        /* \"#utility.yul\":1046:1163   */\n      pop\n        /* \"#utility.yul\":841:1170   */\n      swap3\n      swap2\n      pop\n      pop\n      jump\t// out\n        /* \"#utility.yul\":1176:1275   */\n    tag_67:\n        /* \"#utility.yul\":1228:1234   */\n      0x00\n        /* \"#utility.yul\":1262:1267   */\n      dup2\n        /* \"#utility.yul\":1256:1268   */\n      mload\n        /* \"#utility.yul\":1246:1268   */\n      swap1\n      pop\n        /* \"#utility.yul\":1176:1275   */\n      swap2\n      swap1\n      pop\n      jump\t// out\n        /* \"#utility.yul\":1281:1450   */\n    tag_68:\n        /* \"#utility.yul\":1365:1376   */\n      0x00\n        /* \"#utility.yul\":1399:1405   */\n      dup3\n        /* \"#utility.yul\":1394:1397   */\n      dup3\n        /* \"#utility.yul\":1387:1406   */\n      mstore\n        /* \"#utility.yul\":1439:1443   */\n      0x20\n        /* \"#utility.yul\":1434:1437   */\n      dup3\n        /* \"#utility.yul\":1430:1444   */\n      add\n        /* \"#utility.yul\":1415:1444   */\n      swap1\n      pop\n        /* \"#utility.yul\":1281:1450   */\n      swap3\n      swap2\n      pop\n      pop\n      jump\t// out\n        /* \"#utility.yul\":1456:1595   */\n    tag_69:\n        /* \"#utility.yul\":1545:1551   */\n      dup3\n        /* \"#utility.yul\":1540:1543   */\n      dup2\n        /* \"#utility.yul\":1535:1538   */\n      dup4\n        /* \"#utility.yul\":1529:1552   */\n      mcopy\n        /* \"#utility.yul\":1586:1587   */\n      0x00\n        /* \"#utility.yul\":1577:1583   */\n      dup4\n        /* \"#utility.yul\":1572:1575   */\n      dup4\n        /* \"#utility.yul\":1568:1584   */\n      add\n        /* \"#utility.yul\":1561:1588   */\n      mstore\n        /* \"#utility.yul\":1456:1595   */\n      pop\n      pop\n      pop\n      jump\t// out\n        /* \"#utility.yul\":1601:1703   */\n    tag_70:\n        /* \"#utility.yul\":1642:1648   */\n      0x00\n        /* \"#utility.yul\":1693:1695   */\n      0x1f\n        /* \"#utility.yul\":1689:1696   */\n      not\n        /* \"#utility.yul\":1684:1686   */\n      0x1f\n        /* \"#utility.yul\":1677:1682   */\n      dup4\n        /* \"#utility.yul\":1673:1687   */\n      add\n        /* \"#utility.yul\":1669:1697   */\n      and\n        /* \"#utility.yul\":1659:1697   */\n      swap1\n      pop\n        /* \"#utility.yul\":1601:1703   */\n      swap2\n      swap1\n      pop\n      jump\t// out\n        /* \"#utility.yul\":1709:2086   */\n    tag_71:\n        /* \"#utility.yul\":1797:1800   */\n      0x00\n        /* \"#utility.yul\":1825:1864   */\n      tag_118\n        /* \"#utility.yul\":1858:1863   */\n      dup3\n        /* \"#utility.yul\":1825:1864   */\n      tag_67\n      jump\t// in\n    tag_118:\n        /* \"#utility.yul\":1880:1951   */\n      tag_119\n        /* \"#utility.yul\":1944:1950   */\n      dup2\n        /* \"#utility.yul\":1939:1942   */\n      dup6\n        /* \"#utility.yul\":1880:1951   */\n      tag_68\n      jump\t// in\n    tag_119:\n        /* \"#utility.yul\":1873:1951   */\n      swap4\n      pop\n        /* \"#utility.yul\":1960:2025   */\n      tag_120\n        /* \"#utility.yul\":2018:2024   */\n      dup2\n        /* \"#utility.yul\":2013:2016   */\n      dup6\n        /* \"#utility.yul\":2006:2010   */\n      0x20\n        /* \"#utility.yul\":1999:2004   */\n      dup7\n        /* \"#utility.yul\":1995:2011   */\n      add\n        /* \"#utility.yul\":1960:2025   */\n      tag_69\n      jump\t// in\n    tag_120:\n        /* \"#utility.yul\":2050:2079   */\n      tag_121\n        /* \"#utility.yul\":2072:2078   */\n      dup2\n        /* \"#utility.yul\":2050:2079   */\n      tag_70\n      jump\t// in\n    tag_121:\n        /* \"#utility.yul\":2045:2048   */\n      dup5\n        /* \"#utility.yul\":2041:2080   */\n      add\n        /* \"#utility.yul\":2034:2080   */\n      swap2\n      pop\n        /* \"#utility.yul\":1801:2086   */\n      pop\n        /* \"#utility.yul\":1709:2086   */\n      swap3\n      swap2\n      pop\n      pop\n      jump\t// out\n        /* \"#utility.yul\":2092:2807   */\n    tag_11:\n        /* \"#utility.yul\":2301:2305   */\n      0x00\n        /* \"#utility.yul\":2339:2341   */\n      0x60\n        /* \"#utility.yul\":2328:2337   */\n      dup3\n        /* \"#utility.yul\":2324:2342   */\n      add\n        /* \"#utility.yul\":2316:2342   */\n      swap1\n      pop\n        /* \"#utility.yul\":2388:2397   */\n      dup2\n        /* \"#utility.yul\":2382:2386   */\n      dup2\n        /* \"#utility.yul\":2378:2398   */\n      sub\n        /* \"#utility.yul\":2374:2375   */\n      0x00\n        /* \"#utility.yul\":2363:2372   */\n      dup4\n        /* \"#utility.yul\":2359:2376   */\n      add\n        /* \"#utility.yul\":2352:2399   */\n      mstore\n        /* \"#utility.yul\":2416:2494   */\n      tag_123\n        /* \"#utility.yul\":2489:2493   */\n      dup2\n        /* \"#utility.yul\":2480:2486   */\n      dup7\n        /* \"#utility.yul\":2416:2494   */\n      tag_71\n      jump\t// in\n    tag_123:\n        /* \"#utility.yul\":2408:2494   */\n      swap1\n      pop\n        /* \"#utility.yul\":2541:2550   */\n      dup2\n        /* \"#utility.yul\":2535:2539   */\n      dup2\n        /* \"#utility.yul\":2531:2551   */\n      sub\n        /* \"#utility.yul\":2526:2528   */\n      0x20\n        /* \"#utility.yul\":2515:2524   */\n      dup4\n        /* \"#utility.yul\":2511:2529   */\n      add\n        /* \"#utility.yul\":2504:2552   */\n      mstore\n        /* \"#utility.yul\":2569:2647   */\n      tag_124\n        /* \"#utility.yul\":2642:2646   */\n      dup2\n        /* \"#utility.yul\":2633:2639   */\n      dup6\n        /* \"#utility.yul\":2569:2647   */\n      tag_71\n      jump\t// in\n    tag_124:\n        /* \"#utility.yul\":2561:2647   */\n      swap1\n      pop\n        /* \"#utility.yul\":2694:2703   */\n      dup2\n        /* \"#utility.yul\":2688:2692   */\n      dup2\n        /* \"#utility.yul\":2684:2704   */\n      sub\n        /* \"#utility.yul\":2679:2681   */\n      0x40\n        /* \"#utility.yul\":2668:2677   */\n      dup4\n        /* \"#utility.yul\":2664:2682   */\n      add\n        /* \"#utility.yul\":2657:2705   */\n      mstore\n        /* \"#utility.yul\":2722:2800   */\n      tag_125\n        /* \"#utility.yul\":2795:2799   */\n      dup2\n        /* \"#utility.yul\":2786:2792   */\n      dup5\n        /* \"#utility.yul\":2722:2800   */\n      tag_71\n      jump\t// in\n    tag_125:\n        /* \"#utility.yul\":2714:2800   */\n      swap1\n      pop\n        /* \"#utility.yul\":2092:2807   */\n      swap5\n      swap4\n      pop\n      pop\n      pop\n      pop\n      jump\t// out\n        /* \"#utility.yul\":2813:2972   */\n    tag_72:\n        /* \"#utility.yul\":2887:2898   */\n      0x00\n        /* \"#utility.yul\":2921:2927   */\n      dup3\n        /* \"#utility.yul\":2916:2919   */\n      dup3\n        /* \"#utility.yul\":2909:2928   */\n      mstore\n        /* \"#utility.yul\":2961:2965   */\n      0x20\n        /* \"#utility.yul\":2956:2959   */\n      dup3\n        /* \"#utility.yul\":2952:2966   */\n      add\n        /* \"#utility.yul\":2937:2966   */\n      swap1\n      pop\n        /* \"#utility.yul\":2813:2972   */\n      swap3\n      swap2\n      pop\n      pop\n      jump\t// out\n        /* \"#utility.yul\":2978:3335   */\n    tag_73:\n        /* \"#utility.yul\":3056:3059   */\n      0x00\n        /* \"#utility.yul\":3084:3123   */\n      tag_128\n        /* \"#utility.yul\":3117:3122   */\n      dup3\n        /* \"#utility.yul\":3084:3123   */\n      tag_67\n      jump\t// in\n    tag_128:\n        /* \"#utility.yul\":3139:3200   */\n      tag_129\n        /* \"#utility.yul\":3193:3199   */\n      dup2\n        /* \"#utility.yul\":3188:3191   */\n      dup6\n        /* \"#utility.yul\":3139:3200   */\n      tag_72\n      jump\t// in\n    tag_129:\n        /* \"#utility.yul\":3132:3200   */\n      swap4\n      pop\n        /* \"#utility.yul\":3209:3274   */\n      tag_130\n        /* \"#utility.yul\":3267:3273   */\n      dup2\n        /* \"#utility.yul\":3262:3265   */\n      dup6\n        /* \"#utility.yul\":3255:3259   */\n      0x20\n        /* \"#utility.yul\":3248:3253   */\n      dup7\n        /* \"#utility.yul\":3244:3260   */\n      add\n        /* \"#utility.yul\":3209:3274   */\n      tag_69\n      jump\t// in\n    tag_130:\n        /* \"#utility.yul\":3299:3328   */\n      tag_131\n        /* \"#utility.yul\":3321:3327   */\n      dup2\n        /* \"#utility.yul\":3299:3328   */\n      tag_70\n      jump\t// in\n    tag_131:\n        /* \"#utility.yul\":3294:3297   */\n      dup5\n        /* \"#utility.yul\":3290:3329   */\n      add\n        /* \"#utility.yul\":3283:3329   */\n      swap2\n      pop\n        /* \"#utility.yul\":3060:3335   */\n      pop\n        /* \"#utility.yul\":2978:3335   */\n      swap3\n      swap2\n      pop\n      pop\n      jump\t// out\n        /* \"#utility.yul\":3407:4317   */\n    tag_74:\n        /* \"#utility.yul\":3514:3517   */\n      0x00\n        /* \"#utility.yul\":3550:3554   */\n      0x60\n        /* \"#utility.yul\":3545:3548   */\n      dup4\n        /* \"#utility.yul\":3541:3555   */\n      add\n        /* \"#utility.yul\":3638:3642   */\n      0x00\n        /* \"#utility.yul\":3631:3636   */\n      dup4\n        /* \"#utility.yul\":3627:3643   */\n      add\n        /* \"#utility.yul\":3621:3644   */\n      mload\n        /* \"#utility.yul\":3691:3694   */\n      dup5\n        /* \"#utility.yul\":3685:3689   */\n      dup3\n        /* \"#utility.yul\":3681:3695   */\n      sub\n        /* \"#utility.yul\":3674:3678   */\n      0x00\n        /* \"#utility.yul\":3669:3672   */\n      dup7\n        /* \"#utility.yul\":3665:3679   */\n      add\n        /* \"#utility.yul\":3658:3696   */\n      mstore\n        /* \"#utility.yul\":3717:3790   */\n      tag_133\n        /* \"#utility.yul\":3785:3789   */\n      dup3\n        /* \"#utility.yul\":3771:3783   */\n      dup3\n        /* \"#utility.yul\":3717:3790   */\n      tag_73\n      jump\t// in\n    tag_133:\n        /* \"#utility.yul\":3709:3790   */\n      swap2\n      pop\n        /* \"#utility.yul\":3565:3801   */\n      pop\n        /* \"#utility.yul\":3883:3887   */\n      0x20\n        /* \"#utility.yul\":3876:3881   */\n      dup4\n        /* \"#utility.yul\":3872:3888   */\n      add\n        /* \"#utility.yul\":3866:3889   */\n      mload\n        /* \"#utility.yul\":3936:3939   */\n      dup5\n        /* \"#utility.yul\":3930:3934   */\n      dup3\n        /* \"#utility.yul\":3926:3940   */\n      sub\n        /* \"#utility.yul\":3919:3923   */\n      0x20\n        /* \"#utility.yul\":3914:3917   */\n      dup7\n        /* \"#utility.yul\":3910:3924   */\n      add\n        /* \"#utility.yul\":3903:3941   */\n      mstore\n        /* \"#utility.yul\":3962:4035   */\n      tag_134\n        /* \"#utility.yul\":4030:4034   */\n      dup3\n        /* \"#utility.yul\":4016:4028   */\n      dup3\n        /* \"#utility.yul\":3962:4035   */\n      tag_73\n      jump\t// in\n    tag_134:\n        /* \"#utility.yul\":3954:4035   */\n      swap2\n      pop\n        /* \"#utility.yul\":3811:4046   */\n      pop\n        /* \"#utility.yul\":4127:4131   */\n      0x40\n        /* \"#utility.yul\":4120:4125   */\n      dup4\n        /* \"#utility.yul\":4116:4132   */\n      add\n        /* \"#utility.yul\":4110:4133   */\n      mload\n        /* \"#utility.yul\":4180:4183   */\n      dup5\n        /* \"#utility.yul\":4174:4178   */\n      dup3\n        /* \"#utility.yul\":4170:4184   */\n      sub\n        /* \"#utility.yul\":4163:4167   */\n      0x40\n        /* \"#utility.yul\":4158:4161   */\n      dup7\n        /* \"#utility.yul\":4154:4168   */\n      add\n        /* \"#utility.yul\":4147:4185   */\n      mstore\n        /* \"#utility.yul\":4206:4279   */\n      tag_135\n        /* \"#utility.yul\":4274:4278   */\n      dup3\n        /* \"#utility.yul\":4260:4272   */\n      dup3\n        /* \"#utility.yul\":4206:4279   */\n      tag_73\n      jump\t// in\n    tag_135:\n        /* \"#utility.yul\":4198:4279   */\n      swap2\n      pop\n        /* \"#utility.yul\":4056:4290   */\n      pop\n        /* \"#utility.yul\":4307:4311   */\n      dup1\n        /* \"#utility.yul\":4300:4311   */\n      swap2\n      pop\n        /* \"#utility.yul\":3519:4317   */\n      pop\n        /* \"#utility.yul\":3407:4317   */\n      swap3\n      swap2\n      pop\n      pop\n      jump\t// out\n        /* \"#utility.yul\":4323:4672   */\n    tag_16:\n        /* \"#utility.yul\":4454:4458   */\n      0x00\n        /* \"#utility.yul\":4492:4494   */\n      0x20\n        /* \"#utility.yul\":4481:4490   */\n      dup3\n        /* \"#utility.yul\":4477:4495   */\n      add\n        /* \"#utility.yul\":4469:4495   */\n      swap1\n      pop\n        /* \"#utility.yul\":4541:4550   */\n      dup2\n        /* \"#utility.yul\":4535:4539   */\n      dup2\n        /* \"#utility.yul\":4531:4551   */\n      sub\n        /* \"#utility.yul\":4527:4528   */\n      0x00\n        /* \"#utility.yul\":4516:4525   */\n      dup4\n        /* \"#utility.yul\":4512:4529   */\n      add\n        /* \"#utility.yul\":4505:4552   */\n      mstore\n        /* \"#utility.yul\":4569:4665   */\n      tag_137\n        /* \"#utility.yul\":4660:4664   */\n      dup2\n        /* \"#utility.yul\":4651:4657   */\n      dup5\n        /* \"#utility.yul\":4569:4665   */\n      tag_74\n      jump\t// in\n    tag_137:\n        /* \"#utility.yul\":4561:4665   */\n      swap1\n      pop\n        /* \"#utility.yul\":4323:4672   */\n      swap3\n      swap2\n      pop\n      pop\n      jump\t// out\n        /* \"#utility.yul\":4678:4795   */\n    tag_75:\n        /* \"#utility.yul\":4787:4788   */\n      0x00\n        /* \"#utility.yul\":4784:4785   */\n      dup1\n        /* \"#utility.yul\":4777:4789   */\n      revert\n        /* \"#utility.yul\":4801:4918   */\n    tag_76:\n        /* \"#utility.yul\":4910:4911   */\n      0x00\n        /* \"#utility.yul\":4907:4908   */\n      dup1\n        /* \"#utility.yul\":4900:4912   */\n      revert\n        /* \"#utility.yul\":4924:5041   */\n    tag_77:\n        /* \"#utility.yul\":5033:5034   */\n      0x00\n        /* \"#utility.yul\":5030:5031   */\n      dup1\n        /* \"#utility.yul\":5023:5035   */\n      revert\n        /* \"#utility.yul\":5061:5614   */\n    tag_78:\n        /* \"#utility.yul\":5119:5127   */\n      0x00\n        /* \"#utility.yul\":5129:5135   */\n      dup1\n        /* \"#utility.yul\":5179:5182   */\n      dup4\n        /* \"#utility.yul\":5172:5176   */\n      0x1f\n        /* \"#utility.yul\":5164:5170   */\n      dup5\n        /* \"#utility.yul\":5160:5177   */\n      add\n        /* \"#utility.yul\":5156:5183   */\n      slt\n        /* \"#utility.yul\":5146:5268   */\n      tag_142\n      jumpi\n        /* \"#utility.yul\":5187:5266   */\n      tag_143\n      tag_75\n      jump\t// in\n    tag_143:\n        /* \"#utility.yul\":5146:5268   */\n    tag_142:\n        /* \"#utility.yul\":5300:5306   */\n      dup3\n        /* \"#utility.yul\":5287:5307   */\n      calldataload\n        /* \"#utility.yul\":5277:5307   */\n      swap1\n      pop\n        /* \"#utility.yul\":5330:5348   */\n      0xffffffffffffffff\n        /* \"#utility.yul\":5322:5328   */\n      dup2\n        /* \"#utility.yul\":5319:5349   */\n      gt\n        /* \"#utility.yul\":5316:5433   */\n      iszero\n      tag_144\n      jumpi\n        /* \"#utility.yul\":5352:5431   */\n      tag_145\n      tag_76\n      jump\t// in\n    tag_145:\n        /* \"#utility.yul\":5316:5433   */\n    tag_144:\n        /* \"#utility.yul\":5466:5470   */\n      0x20\n        /* \"#utility.yul\":5458:5464   */\n      dup4\n        /* \"#utility.yul\":5454:5471   */\n      add\n        /* \"#utility.yul\":5442:5471   */\n      swap2\n      pop\n        /* \"#utility.yul\":5520:5523   */\n      dup4\n        /* \"#utility.yul\":5512:5516   */\n      0x01\n        /* \"#utility.yul\":5504:5510   */\n      dup3\n        /* \"#utility.yul\":5500:5517   */\n      mul\n        /* \"#utility.yul\":5490:5498   */\n      dup4\n        /* \"#utility.yul\":5486:5518   */\n      add\n        /* \"#utility.yul\":5483:5524   */\n      gt\n        /* \"#utility.yul\":5480:5608   */\n      iszero\n      tag_146\n      jumpi\n        /* \"#utility.yul\":5527:5606   */\n      tag_147\n      tag_77\n      jump\t// in\n    tag_147:\n        /* \"#utility.yul\":5480:5608   */\n    tag_146:\n        /* \"#utility.yul\":5061:5614   */\n      swap3\n      pop\n      swap3\n      swap1\n      pop\n      jump\t// out\n        /* \"#utility.yul\":5620:6985   */\n    tag_19:\n        /* \"#utility.yul\":5742:5748   */\n      0x00\n        /* \"#utility.yul\":5750:5756   */\n      dup1\n        /* \"#utility.yul\":5758:5764   */\n      0x00\n        /* \"#utility.yul\":5766:5772   */\n      dup1\n        /* \"#utility.yul\":5774:5780   */\n      0x00\n        /* \"#utility.yul\":5782:5788   */\n      dup1\n        /* \"#utility.yul\":5790:5796   */\n      0x00\n        /* \"#utility.yul\":5839:5842   */\n      0x80\n        /* \"#utility.yul\":5827:5836   */\n      dup9\n        /* \"#utility.yul\":5818:5825   */\n      dup11\n        /* \"#utility.yul\":5814:5837   */\n      sub\n        /* \"#utility.yul\":5810:5843   */\n      slt\n        /* \"#utility.yul\":5807:5927   */\n      iszero\n      tag_149\n      jumpi\n        /* \"#utility.yul\":5846:5925   */\n      tag_150\n      tag_61\n      jump\t// in\n    tag_150:\n        /* \"#utility.yul\":5807:5927   */\n    tag_149:\n        /* \"#utility.yul\":5966:5967   */\n      0x00\n        /* \"#utility.yul\":5991:6044   */\n      tag_151\n        /* \"#utility.yul\":6036:6043   */\n      dup11\n        /* \"#utility.yul\":6027:6033   */\n      dup3\n        /* \"#utility.yul\":6016:6025   */\n      dup12\n        /* \"#utility.yul\":6012:6034   */\n      add\n        /* \"#utility.yul\":5991:6044   */\n      tag_66\n      jump\t// in\n    tag_151:\n        /* \"#utility.yul\":5981:6044   */\n      swap8\n      pop\n        /* \"#utility.yul\":5937:6054   */\n      pop\n        /* \"#utility.yul\":6121:6123   */\n      0x20\n        /* \"#utility.yul\":6110:6119   */\n      dup9\n        /* \"#utility.yul\":6106:6124   */\n      add\n        /* \"#utility.yul\":6093:6125   */\n      calldataload\n        /* \"#utility.yul\":6152:6170   */\n      0xffffffffffffffff\n        /* \"#utility.yul\":6144:6150   */\n      dup2\n        /* \"#utility.yul\":6141:6171   */\n      gt\n        /* \"#utility.yul\":6138:6255   */\n      iszero\n      tag_152\n      jumpi\n        /* \"#utility.yul\":6174:6253   */\n      tag_153\n      tag_62\n      jump\t// in\n    tag_153:\n        /* \"#utility.yul\":6138:6255   */\n    tag_152:\n        /* \"#utility.yul\":6287:6352   */\n      tag_154\n        /* \"#utility.yul\":6344:6351   */\n      dup11\n        /* \"#utility.yul\":6335:6341   */\n      dup3\n        /* \"#utility.yul\":6324:6333   */\n      dup12\n        /* \"#utility.yul\":6320:6342   */\n      add\n        /* \"#utility.yul\":6287:6352   */\n      tag_78\n      jump\t// in\n    tag_154:\n        /* \"#utility.yul\":6269:6352   */\n      swap7\n      pop\n      swap7\n      pop\n        /* \"#utility.yul\":6064:6362   */\n      pop\n        /* \"#utility.yul\":6429:6431   */\n      0x40\n        /* \"#utility.yul\":6418:6427   */\n      dup9\n        /* \"#utility.yul\":6414:6432   */\n      add\n        /* \"#utility.yul\":6401:6433   */\n      calldataload\n        /* \"#utility.yul\":6460:6478   */\n      0xffffffffffffffff\n        /* \"#utility.yul\":6452:6458   */\n      dup2\n        /* \"#utility.yul\":6449:6479   */\n      gt\n        /* \"#utility.yul\":6446:6563   */\n      iszero\n      tag_155\n      jumpi\n        /* \"#utility.yul\":6482:6561   */\n      tag_156\n      tag_62\n      jump\t// in\n    tag_156:\n        /* \"#utility.yul\":6446:6563   */\n    tag_155:\n        /* \"#utility.yul\":6595:6660   */\n      tag_157\n        /* \"#utility.yul\":6652:6659   */\n      dup11\n        /* \"#utility.yul\":6643:6649   */\n      dup3\n        /* \"#utility.yul\":6632:6641   */\n      dup12\n        /* \"#utility.yul\":6628:6650   */\n      add\n        /* \"#utility.yul\":6595:6660   */\n      tag_78\n      jump\t// in\n    tag_157:\n        /* \"#utility.yul\":6577:6660   */\n      swap5\n      pop\n      swap5\n      pop\n        /* \"#utility.yul\":6372:6670   */\n      pop\n        /* \"#utility.yul\":6737:6739   */\n      0x60\n        /* \"#utility.yul\":6726:6735   */\n      dup9\n        /* \"#utility.yul\":6722:6740   */\n      add\n        /* \"#utility.yul\":6709:6741   */\n      calldataload\n        /* \"#utility.yul\":6768:6786   */\n      0xffffffffffffffff\n        /* \"#utility.yul\":6760:6766   */\n      dup2\n        /* \"#utility.yul\":6757:6787   */\n      gt\n        /* \"#utility.yul\":6754:6871   */\n      iszero\n      tag_158\n      jumpi\n        /* \"#utility.yul\":6790:6869   */\n      tag_159\n      tag_62\n      jump\t// in\n    tag_159:\n        /* \"#utility.yul\":6754:6871   */\n    tag_158:\n        /* \"#utility.yul\":6903:6968   */\n      tag_160\n        /* \"#utility.yul\":6960:6967   */\n      dup11\n        /* \"#utility.yul\":6951:6957   */\n      dup3\n        /* \"#utility.yul\":6940:6949   */\n      dup12\n        /* \"#utility.yul\":6936:6958   */\n      add\n        /* \"#utility.yul\":6903:6968   */\n      tag_78\n      jump\t// in\n    tag_160:\n        /* \"#utility.yul\":6885:6968   */\n      swap3\n      pop\n      swap3\n      pop\n        /* \"#utility.yul\":6680:6978   */\n      pop\n        /* \"#utility.yul\":5620:6985   */\n      swap3\n      swap6\n      swap9\n      swap2\n      swap5\n      swap8\n      pop\n      swap3\n      swap6\n      pop\n      jump\t// out\n        /* \"#utility.yul\":6991:7171   */\n    tag_79:\n        /* \"#utility.yul\":7039:7116   */\n      0x4e487b7100000000000000000000000000000000000000000000000000000000\n        /* \"#utility.yul\":7036:7037   */\n      0x00\n        /* \"#utility.yul\":7029:7117   */\n      mstore\n        /* \"#utility.yul\":7136:7140   */\n      0x22\n        /* \"#utility.yul\":7133:7134   */\n      0x04\n        /* \"#utility.yul\":7126:7141   */\n      mstore\n        /* \"#utility.yul\":7160:7164   */\n      0x24\n        /* \"#utility.yul\":7157:7158   */\n      0x00\n        /* \"#utility.yul\":7150:7165   */\n      revert\n        /* \"#utility.yul\":7177:7497   */\n    tag_22:\n        /* \"#utility.yul\":7221:7227   */\n      0x00\n        /* \"#utility.yul\":7258:7259   */\n      0x02\n        /* \"#utility.yul\":7252:7256   */\n      dup3\n        /* \"#utility.yul\":7248:7260   */\n      div\n        /* \"#utility.yul\":7238:7260   */\n      swap1\n      pop\n        /* \"#utility.yul\":7305:7306   */\n      0x01\n        /* \"#utility.yul\":7299:7303   */\n      dup3\n        /* \"#utility.yul\":7295:7307   */\n      and\n        /* \"#utility.yul\":7326:7344   */\n      dup1\n        /* \"#utility.yul\":7316:7397   */\n      tag_163\n      jumpi\n        /* \"#utility.yul\":7382:7386   */\n      0x7f\n        /* \"#utility.yul\":7374:7380   */\n      dup3\n        /* \"#utility.yul\":7370:7387   */\n      and\n        /* \"#utility.yul\":7360:7387   */\n      swap2\n      pop\n        /* \"#utility.yul\":7316:7397   */\n    tag_163:\n        /* \"#utility.yul\":7444:7446   */\n      0x20\n        /* \"#utility.yul\":7436:7442   */\n      dup3\n        /* \"#utility.yul\":7433:7447   */\n      lt\n        /* \"#utility.yul\":7413:7431   */\n      dup2\n        /* \"#utility.yul\":7410:7448   */\n      sub\n        /* \"#utility.yul\":7407:7491   */\n      tag_164\n      jumpi\n        /* \"#utility.yul\":7463:7481   */\n      tag_165\n      tag_79\n      jump\t// in\n    tag_165:\n        /* \"#utility.yul\":7407:7491   */\n    tag_164:\n        /* \"#utility.yul\":7228:7497   */\n      pop\n        /* \"#utility.yul\":7177:7497   */\n      swap2\n      swap1\n      pop\n      jump\t// out\n        /* \"#utility.yul\":7503:7683   */\n    tag_80:\n        /* \"#utility.yul\":7551:7628   */\n      0x4e487b7100000000000000000000000000000000000000000000000000000000\n        /* \"#utility.yul\":7548:7549   */\n      0x00\n        /* \"#utility.yul\":7541:7629   */\n      mstore\n        /* \"#utility.yul\":7648:7652   */\n      0x41\n        /* \"#utility.yul\":7645:7646   */\n      0x04\n        /* \"#utility.yul\":7638:7653   */\n      mstore\n        /* \"#utility.yul\":7672:7676   */\n      0x24\n        /* \"#utility.yul\":7669:7670   */\n      0x00\n        /* \"#utility.yul\":7662:7677   */\n      revert\n        /* \"#utility.yul\":7689:7830   */\n    tag_81:\n        /* \"#utility.yul\":7738:7742   */\n      0x00\n        /* \"#utility.yul\":7761:7764   */\n      dup2\n        /* \"#utility.yul\":7753:7764   */\n      swap1\n      pop\n        /* \"#utility.yul\":7784:7787   */\n      dup2\n        /* \"#utility.yul\":7781:7782   */\n      0x00\n        /* \"#utility.yul\":7774:7788   */\n      mstore\n        /* \"#utility.yul\":7818:7822   */\n      0x20\n        /* \"#utility.yul\":7815:7816   */\n      0x00\n        /* \"#utility.yul\":7805:7823   */\n      keccak256\n        /* \"#utility.yul\":7797:7823   */\n      swap1\n      pop\n        /* \"#utility.yul\":7689:7830   */\n      swap2\n      swap1\n      pop\n      jump\t// out\n        /* \"#utility.yul\":7836:7929   */\n    tag_82:\n        /* \"#utility.yul\":7873:7879   */\n      0x00\n        /* \"#utility.yul\":7920:7922   */\n      0x20\n        /* \"#utility.yul\":7915:7917   */\n      0x1f\n        /* \"#utility.yul\":7908:7913   */\n      dup4\n        /* \"#utility.yul\":7904:7918   */\n      add\n        /* \"#utility.yul\":7900:7923   */\n      div\n        /* \"#utility.yul\":7890:7923   */\n      swap1\n      pop\n        /* \"#utility.yul\":7836:7929   */\n      swap2\n      swap1\n      pop\n      jump\t// out\n        /* \"#utility.yul\":7935:8042   */\n    tag_83:\n        /* \"#utility.yul\":7979:7987   */\n      0x00\n        /* \"#utility.yul\":8029:8034   */\n      dup3\n        /* \"#utility.yul\":8023:8027   */\n      dup3\n        /* \"#utility.yul\":8019:8035   */\n      shl\n        /* \"#utility.yul\":7998:8035   */\n      swap1\n      pop\n        /* \"#utility.yul\":7935:8042   */\n      swap3\n      swap2\n      pop\n      pop\n      jump\t// out\n        /* \"#utility.yul\":8048:8441   */\n    tag_84:\n        /* \"#utility.yul\":8117:8123   */\n      0x00\n        /* \"#utility.yul\":8167:8168   */\n      0x08\n        /* \"#utility.yul\":8155:8165   */\n      dup4\n        /* \"#utility.yul\":8151:8169   */\n      mul\n        /* \"#utility.yul\":8190:8287   */\n      tag_171\n        /* \"#utility.yul\":8220:8286   */\n      0xffffffffffffffffffffffffffffffffffffffffffffffffffffffffffffffff\n        /* \"#utility.yul\":8209:8218   */\n      dup3\n        /* \"#utility.yul\":8190:8287   */\n      tag_83\n      jump\t// in\n    tag_171:\n        /* \"#utility.yul\":8308:8347   */\n      tag_172\n        /* \"#utility.yul\":8338:8346   */\n      dup7\n        /* \"#utility.yul\":8327:8336   */\n      dup4\n        /* \"#utility.yul\":8308:8347   */\n      tag_83\n      jump\t// in\n    tag_172:\n        /* \"#utility.yul\":8296:8347   */\n      swap6\n      pop\n        /* \"#utility.yul\":8380:8384   */\n      dup1\n        /* \"#utility.yul\":8376:8385   */\n      not\n        /* \"#utility.yul\":8369:8374   */\n      dup5\n        /* \"#utility.yul\":8365:8386   */\n      and\n        /* \"#utility.yul\":8356:8386   */\n      swap4\n      pop\n        /* \"#utility.yul\":8429:8433   */\n      dup1\n        /* \"#utility.yul\":8419:8427   */\n      dup7\n        /* \"#utility.yul\":8415:8434   */\n      and\n        /* \"#utility.yul\":8408:8413   */\n      dup5\n        /* \"#utility.yul\":8405:8435   */\n      or\n        /* \"#utility.yul\":8395:8435   */\n      swap3\n      pop\n        /* \"#utility.yul\":8124:8441   */\n      pop\n      pop\n        /* \"#utility.yul\":8048:8441   */\n      swap4\n      swap3\n      pop\n      pop\n      pop\n      jump\t// out\n        /* \"#utility.yul\":8447:8524   */\n    tag_85:\n        /* \"#utility.yul\":8484:8491   */\n      0x00\n        /* \"#utility.yul\":8513:8518   */\n      dup2\n        /* \"#utility.yul\":8502:8518   */\n      swap1\n      pop\n        /* \"#utility.yul\":8447:8524   */\n      swap2\n      swap1\n      pop\n      jump\t// out\n        /* \"#utility.yul\":8530:8590   */\n    tag_86:\n        /* \"#utility.yul\":8558:8561   */\n      0x00\n        /* \"#utility.yul\":8579:8584   */\n      dup2\n        /* \"#utility.yul\":8572:8584   */\n      swap1\n      pop\n        /* \"#utility.yul\":8530:8590   */\n      swap2\n      swap1\n      pop\n      jump\t// out\n        /* \"#utility.yul\":8596:8738   */\n    tag_87:\n        /* \"#utility.yul\":8646:8655   */\n      0x00\n        /* \"#utility.yul\":8679:8732   */\n      tag_176\n        /* \"#utility.yul\":8697:8731   */\n      tag_177\n        /* \"#utility.yul\":8706:8730   */\n      tag_178\n        /* \"#utility.yul\":8724:8729   */\n      dup5\n        /* \"#utility.yul\":8706:8730   */\n      tag_85\n      jump\t// in\n    tag_178:\n        /* \"#utility.yul\":8697:8731   */\n      tag_86\n      jump\t// in\n    tag_177:\n        /* \"#utility.yul\":8679:8732   */\n      tag_85\n      jump\t// in\n    tag_176:\n        /* \"#utility.yul\":8666:8732   */\n      swap1\n      pop\n        /* \"#utility.yul\":8596:8738   */\n      swap2\n      swap1\n      pop\n      jump\t// out\n        /* \"#utility.yul\":8744:8819   */\n    tag_88:\n        /* \"#utility.yul\":8787:8790   */\n      0x00\n        /* \"#utility.yul\":8808:8813   */\n      dup2\n        /* \"#utility.yul\":8801:8813   */\n      swap1\n      pop\n        /* \"#utility.yul\":8744:8819   */\n      swap2\n      swap1\n      pop\n      jump\t// out\n        /* \"#utility.yul\":8825:9094   */\n    tag_89:\n        /* \"#utility.yul\":8935:8974   */\n      tag_181\n        /* \"#utility.yul\":8966:8973   */\n      dup4\n        /* \"#utility.yul\":8935:8974   */\n      tag_87\n      jump\t// in\n    tag_181:\n        /* \"#utility.yul\":8996:9087   */\n      tag_182\n        /* \"#utility.yul\":9045:9086   */\n      tag_183\n        /* \"#utility.yul\":9069:9085   */\n      dup3\n        /* \"#utility.yul\":9045:9086   */\n      tag_88\n      jump\t// in\n    tag_183:\n        /* \"#utility.yul\":9037:9043   */\n      dup5\n        /* \"#utility.yul\":9030:9034   */\n      dup5\n        /* \"#utility.yul\":9024:9035   */\n      sload\n        /* \"#utility.yul\":8996:9087   */\n      tag_84\n      jump\t// in\n    tag_182:\n        /* \"#utility.yul\":8990:8994   */\n      dup3\n        /* \"#utility.yul\":8983:9088   */\n      sstore\n        /* \"#utility.yul\":8901:9094   */\n      pop\n        /* \"#utility.yul\":8825:9094   */\n      pop\n      pop\n      pop\n      jump\t// out\n        /* \"#utility.yul\":9100:9173   */\n    tag_90:\n        /* \"#utility.yul\":9145:9148   */\n      0x00\n        /* \"#utility.yul\":9100:9173   */\n      swap1\n      jump\t// out\n        /* \"#utility.yul\":9179:9368   */\n    tag_91:\n        /* \"#utility.yul\":9256:9288   */\n      tag_186\n      tag_90\n      jump\t// in\n    tag_186:\n        /* \"#utility.yul\":9297:9362   */\n      tag_187\n        /* \"#utility.yul\":9355:9361   */\n      dup2\n        /* \"#utility.yul\":9347:9353   */\n      dup5\n        /* \"#utility.yul\":9341:9345   */\n      dup5\n        /* \"#utility.yul\":9297:9362   */\n      tag_89\n      jump\t// in\n    tag_187:\n        /* \"#utility.yul\":9232:9368   */\n      pop\n        /* \"#utility.yul\":9179:9368   */\n      pop\n      pop\n      jump\t// out\n        /* \"#utility.yul\":9374:9560   */\n    tag_92:\n        /* \"#utility.yul\":9434:9554   */\n    tag_189:\n        /* \"#utility.yul\":9451:9454   */\n      dup2\n        /* \"#utility.yul\":9444:9449   */\n      dup2\n        /* \"#utility.yul\":9441:9455   */\n      lt\n        /* \"#utility.yul\":9434:9554   */\n      iszero\n      tag_191\n      jumpi\n        /* \"#utility.yul\":9505:9544   */\n      tag_192\n        /* \"#utility.yul\":9542:9543   */\n      0x00\n        /* \"#utility.yul\":9535:9540   */\n      dup3\n        /* \"#utility.yul\":9505:9544   */\n      tag_91\n      jump\t// in\n    tag_192:\n        /* \"#utility.yul\":9478:9479   */\n      0x01\n        /* \"#utility.yul\":9471:9476   */\n      dup2\n        /* \"#utility.yul\":9467:9480   */\n      add\n        /* \"#utility.yul\":9458:9480   */\n      swap1\n      pop\n        /* \"#utility.yul\":9434:9554   */\n      jump(tag_189)\n    tag_191:\n        /* \"#utility.yul\":9374:9560   */\n      pop\n      pop\n      jump\t// out\n        /* \"#utility.yul\":9566:10109   */\n    tag_93:\n        /* \"#utility.yul\":9667:9669   */\n      0x1f\n        /* \"#utility.yul\":9662:9665   */\n      dup3\n        /* \"#utility.yul\":9659:9670   */\n      gt\n        /* \"#utility.yul\":9656:10102   */\n      iszero\n      tag_194\n      jumpi\n        /* \"#utility.yul\":9701:9739   */\n      tag_195\n        /* \"#utility.yul\":9733:9738   */\n      dup2\n        /* \"#utility.yul\":9701:9739   */\n      tag_81\n      jump\t// in\n    tag_195:\n        /* \"#utility.yul\":9785:9814   */\n      tag_196\n        /* \"#utility.yul\":9803:9813   */\n      dup5\n        /* \"#utility.yul\":9785:9814   */\n      tag_82\n      jump\t// in\n    tag_196:\n        /* \"#utility.yul\":9775:9783   */\n      dup2\n        /* \"#utility.yul\":9771:9815   */\n      add\n        /* \"#utility.yul\":9968:9970   */\n      0x20\n        /* \"#utility.yul\":9956:9966   */\n      dup6\n        /* \"#utility.yul\":9953:9971   */\n      lt\n        /* \"#utility.yul\":9950:9999   */\n      iszero\n      tag_197\n      jumpi\n        /* \"#utility.yul\":9989:9997   */\n      dup2\n        /* \"#utility.yul\":9974:9997   */\n      swap1\n      pop\n        /* \"#utility.yul\":9950:9999   */\n    tag_197:\n        /* \"#utility.yul\":10012:10092   */\n      tag_198\n        /* \"#utility.yul\":10068:10090   */\n      tag_199\n        /* \"#utility.yul\":10086:10089   */\n      dup6\n        /* \"#utility.yul\":10068:10090   */\n      tag_82\n      jump\t// in\n    tag_199:\n        /* \"#utility.yul\":10058:10066   */\n      dup4\n        /* \"#utility.yul\":10054:10091   */\n      add\n        /* \"#utility.yul\":10041:10052   */\n      dup3\n        /* \"#utility.yul\":10012:10092   */\n      tag_92\n      jump\t// in\n    tag_198:\n        /* \"#utility.yul\":9671:10102   */\n      pop\n      pop\n        /* \"#utility.yul\":9656:10102   */\n    tag_194:\n        /* \"#utility.yul\":9566:10109   */\n      pop\n      pop\n      pop\n      jump\t// out\n        /* \"#utility.yul\":10115:10232   */\n    tag_94:\n        /* \"#utility.yul\":10169:10177   */\n      0x00\n        /* \"#utility.yul\":10219:10224   */\n      dup3\n        /* \"#utility.yul\":10213:10217   */\n      dup3\n        /* \"#utility.yul\":10209:10225   */\n      shr\n        /* \"#utility.yul\":10188:10225   */\n      swap1\n      pop\n        /* \"#utility.yul\":10115:10232   */\n      swap3\n      swap2\n      pop\n      pop\n      jump\t// out\n        /* \"#utility.yul\":10238:10407   */\n    tag_95:\n        /* \"#utility.yul\":10282:10288   */\n      0x00\n        /* \"#utility.yul\":10315:10366   */\n      tag_202\n        /* \"#utility.yul\":10363:10364   */\n      0x00\n        /* \"#utility.yul\":10359:10365   */\n      not\n        /* \"#utility.yul\":10351:10356   */\n      dup5\n        /* \"#utility.yul\":10348:10349   */\n      0x08\n        /* \"#utility.yul\":10344:10357   */\n      mul\n        /* \"#utility.yul\":10315:10366   */\n      tag_94\n      jump\t// in\n    tag_202:\n        /* \"#utility.yul\":10311:10367   */\n      not\n        /* \"#utility.yul\":10396:10400   */\n      dup1\n        /* \"#utility.yul\":10390:10394   */\n      dup4\n        /* \"#utility.yul\":10386:10401   */\n      and\n        /* \"#utility.yul\":10376:10401   */\n      swap2\n      pop\n        /* \"#utility.yul\":10289:10407   */\n      pop\n        /* \"#utility.yul\":10238:10407   */\n      swap3\n      swap2\n      pop\n      pop\n      jump\t// out\n        /* \"#utility.yul\":10412:10707   */\n    tag_96:\n        /* \"#utility.yul\":10488:10492   */\n      0x00\n        /* \"#utility.yul\":10634:10663   */\n      tag_204\n        /* \"#utility.yul\":10659:10662   */\n      dup4\n        /* \"#utility.yul\":10653:10657   */\n      dup4\n        /* \"#utility.yul\":10634:10663   */\n      tag_95\n      jump\t// in\n    tag_204:\n        /* \"#utility.yul\":10626:10663   */\n      swap2\n      pop\n        /* \"#utility.yul\":10696:10699   */\n      dup3\n        /* \"#utility.yul\":10693:10694   */\n      0x02\n        /* \"#utility.yul\":10689:10700   */\n      mul\n        /* \"#utility.yul\":10683:10687   */\n      dup3\n        /* \"#utility.yul\":10680:10701   */\n      or\n        /* \"#utility.yul\":10672:10701   */\n      swap1\n      pop\n        /* \"#utility.yul\":10412:10707   */\n      swap3\n      swap2\n      pop\n      pop\n      jump\t// out\n        /* \"#utility.yul\":10712:12107   */\n    tag_57:\n        /* \"#utility.yul\":10829:10866   */\n      tag_206\n        /* \"#utility.yul\":10862:10865   */\n      dup3\n        /* \"#utility.yul\":10829:10866   */\n      tag_67\n      jump\t// in\n    tag_206:\n        /* \"#utility.yul\":10931:10949   */\n      0xffffffffffffffff\n        /* \"#utility.yul\":10923:10929   */\n      dup2\n        /* \"#utility.yul\":10920:10950   */\n      gt\n        /* \"#utility.yul\":10917:10973   */\n      iszero\n      tag_207\n      jumpi\n        /* \"#utility.yul\":10953:10971   */\n      tag_208\n      tag_80\n      jump\t// in\n    tag_208:\n        /* \"#utility.yul\":10917:10973   */\n    tag_207:\n        /* \"#utility.yul\":10997:11035   */\n      tag_209\n        /* \"#utility.yul\":11029:11033   */\n      dup3\n        /* \"#utility.yul\":11023:11034   */\n      sload\n        /* \"#utility.yul\":10997:11035   */\n      tag_22\n      jump\t// in\n    tag_209:\n        /* \"#utility.yul\":11082:11149   */\n      tag_210\n        /* \"#utility.yul\":11142:11148   */\n      dup3\n        /* \"#utility.yul\":11134:11140   */\n      dup3\n        /* \"#utility.yul\":11128:11132   */\n      dup6\n        /* \"#utility.yul\":11082:11149   */\n      tag_93\n      jump\t// in\n    tag_210:\n        /* \"#utility.yul\":11176:11177   */\n      0x00\n        /* \"#utility.yul\":11200:11204   */\n      0x20\n        /* \"#utility.yul\":11187:11204   */\n      swap1\n      pop\n        /* \"#utility.yul\":11232:11234   */\n      0x1f\n        /* \"#utility.yul\":11224:11230   */\n      dup4\n        /* \"#utility.yul\":11221:11235   */\n      gt\n        /* \"#utility.yul\":11249:11250   */\n      0x01\n        /* \"#utility.yul\":11244:11862   */\n      dup2\n      eq\n      tag_212\n      jumpi\n        /* \"#utility.yul\":11906:11907   */\n      0x00\n        /* \"#utility.yul\":11923:11929   */\n      dup5\n        /* \"#utility.yul\":11920:11997   */\n      iszero\n      tag_213\n      jumpi\n        /* \"#utility.yul\":11972:11981   */\n      dup3\n        /* \"#utility.yul\":11967:11970   */\n      dup8\n        /* \"#utility.yul\":11963:11982   */\n      add\n        /* \"#utility.yul\":11957:11983   */\n      mload\n        /* \"#utility.yul\":11948:11983   */\n      swap1\n      pop\n        /* \"#utility.yul\":11920:11997   */\n    tag_213:\n        /* \"#utility.yul\":12023:12090   */\n      tag_214\n        /* \"#utility.yul\":12083:12089   */\n      dup6\n        /* \"#utility.yul\":12076:12081   */\n      dup3\n        /* \"#utility.yul\":12023:12090   */\n      tag_96\n      jump\t// in\n    tag_214:\n        /* \"#utility.yul\":12017:12021   */\n      dup7\n        /* \"#utility.yul\":12010:12091   */\n      sstore\n        /* \"#utility.yul\":11879:12101   */\n      pop\n        /* \"#utility.yul\":11214:12101   */\n      jump(tag_211)\n        /* \"#utility.yul\":11244:11862   */\n    tag_212:\n        /* \"#utility.yul\":11296:11300   */\n      0x1f\n        /* \"#utility.yul\":11292:11301   */\n      not\n        /* \"#utility.yul\":11284:11290   */\n      dup5\n        /* \"#utility.yul\":11280:11302   */\n      and\n        /* \"#utility.yul\":11330:11367   */\n      tag_215\n        /* \"#utility.yul\":11362:11366   */\n      dup7\n        /* \"#utility.yul\":11330:11367   */\n      tag_81\n      jump\t// in\n    tag_215:\n        /* \"#utility.yul\":11389:11390   */\n      0x00\n        /* \"#utility.yul\":11403:11611   */\n    tag_216:\n        /* \"#utility.yul\":11417:11424   */\n      dup3\n        /* \"#utility.yul\":11414:11415   */\n      dup2\n        /* \"#utility.yul\":11411:11425   */\n      lt\n        /* \"#utility.yul\":11403:11611   */\n      iszero\n      tag_218\n      jumpi\n        /* \"#utility.yul\":11496:11505   */\n      dup5\n        /* \"#utility.yul\":11491:11494   */\n      dup10\n        /* \"#utility.yul\":11487:11506   */\n      add\n        /* \"#utility.yul\":11481:11507   */\n      mload\n        /* \"#utility.yul\":11473:11479   */\n      dup3\n        /* \"#utility.yul\":11466:11508   */\n      sstore\n        /* \"#utility.yul\":11547:11548   */\n      0x01\n        /* \"#utility.yul\":11539:11545   */\n      dup3\n        /* \"#utility.yul\":11535:11549   */\n      add\n        /* \"#utility.yul\":11525:11549   */\n      swap2\n      pop\n        /* \"#utility.yul\":11594:11596   */\n      0x20\n        /* \"#utility.yul\":11583:11592   */\n      dup6\n        /* \"#utility.yul\":11579:11597   */\n      add\n        /* \"#utility.yul\":11566:11597   */\n      swap5\n      pop\n        /* \"#utility.yul\":11440:11444   */\n      0x20\n        /* \"#utility.yul\":11437:11438   */\n      dup2\n        /* \"#utility.yul\":11433:11445   */\n      add\n        /* \"#utility.yul\":11428:11445   */\n      swap1\n      pop\n        /* \"#utility.yul\":11403:11611   */\n      jump(tag_216)\n    tag_218:\n        /* \"#utility.yul\":11639:11645   */\n      dup7\n        /* \"#utility.yul\":11630:11637   */\n      dup4\n        /* \"#utility.yul\":11627:11646   */\n      lt\n        /* \"#utility.yul\":11624:11803   */\n      iszero\n      tag_219\n      jumpi\n        /* \"#utility.yul\":11697:11706   */\n      dup5\n        /* \"#utility.yul\":11692:11695   */\n      dup10\n        /* \"#utility.yul\":11688:11707   */\n      add\n        /* \"#utility.yul\":11682:11708   */\n      mload\n        /* \"#utility.yul\":11740:11788   */\n      tag_220\n        /* \"#utility.yul\":11782:11786   */\n      0x1f\n        /* \"#utility.yul\":11774:11780   */\n      dup10\n        /* \"#utility.yul\":11770:11787   */\n      and\n        /* \"#utility.yul\":11759:11768   */\n      dup3\n        /* \"#utility.yul\":11740:11788   */\n      tag_95\n      jump\t// in\n    tag_220:\n        /* \"#utility.yul\":11732:11738   */\n      dup4\n        /* \"#utility.yul\":11725:11789   */\n      sstore\n        /* \"#utility.yul\":11647:11803   */\n      pop\n        /* \"#utility.yul\":11624:11803   */\n    tag_219:\n        /* \"#utility.yul\":11849:11850   */\n      0x01\n        /* \"#utility.yul\":11845:11846   */\n      0x02\n        /* \"#utility.yul\":11837:11843   */\n      dup9\n        /* \"#utility.yul\":11833:11847   */\n      mul\n        /* \"#utility.yul\":11829:11851   */\n      add\n        /* \"#utility.yul\":11823:11827   */\n      dup9\n        /* \"#utility.yul\":11816:11852   */\n      sstore\n        /* \"#utility.yul\":11251:11862   */\n      pop\n      pop\n      pop\n        /* \"#utility.yul\":11214:12101   */\n    tag_211:\n      pop\n        /* \"#utility.yul\":10804:12107   */\n      pop\n      pop\n      pop\n        /* \"#utility.yul\":10712:12107   */\n      pop\n      pop\n      jump\t// out\n\n    auxdata: 0xa2646970667358221220d1000ce33d0f21fc7f064317fd8e90ea29f9dbc4d3e47fca28fda54eafd6bf3064736f6c634300081a0033\n}\n",
				"bytecode": {
					"linkReferences": {},
					"object": "6080604052348015600e575f80fd5b50610c6e8061001c5f395ff3fe608060405234801561000f575f80fd5b506004361061003f575f3560e01c80632ba215721461004357806355ea6c4714610075578063f9cf9c74146100a5575b5f80fd5b61005d6004803603810190610058919061066c565b6100c1565b60405161006c93929190610707565b60405180910390f35b61008f600480360381019061008a919061066c565b610278565b60405161009c91906107f4565b60405180910390f35b6100bf60048036038101906100ba9190610875565b61047d565b005b5f602052805f5260405f205f91509050805f0180546100df90610966565b80601f016020809104026020016040519081016040528092919081815260200182805461010b90610966565b80156101565780601f1061012d57610100808354040283529160200191610156565b820191905f5260205f20905b81548152906001019060200180831161013957829003601f168201915b50505050509080600101805461016b90610966565b80601f016020809104026020016040519081016040528092919081815260200182805461019790610966565b80156101e25780601f106101b9576101008083540402835291602001916101e2565b820191905f5260205f20905b8154815290600101906020018083116101c557829003601f168201915b5050505050908060020180546101f790610966565b80601f016020809104026020016040519081016040528092919081815260200182805461022390610966565b801561026e5780601f106102455761010080835404028352916020019161026e565b820191905f5260205f20905b81548152906001019060200180831161025157829003601f168201915b5050505050905083565b6102806105e9565b5f808373ffffffffffffffffffffffffffffffffffffffff1673ffffffffffffffffffffffffffffffffffffffff1681526020019081526020015f206040518060600160405290815f820180546102d690610966565b80601f016020809104026020016040519081016040528092919081815260200182805461030290610966565b801561034d5780601f106103245761010080835404028352916020019161034d565b820191905f5260205f20905b81548152906001019060200180831161033057829003601f168201915b5050505050815260200160018201805461036690610966565b80601f016020809104026020016040519081016040528092919081815260200182805461039290610966565b80156103dd5780601f106103b4576101008083540402835291602001916103dd565b820191905f5260205f20905b8154815290600101906020018083116103c057829003601f168201915b505050505081526020016002820180546103f690610966565b80601f016020809104026020016040519081016040528092919081815260200182805461042290610966565b801561046d5780601f106104445761010080835404028352916020019161046d565b820191905f5260205f20905b81548152906001019060200180831161045057829003601f168201915b5050505050815250509050919050565b604051806060016040528087878080601f0160208091040260200160405190810160405280939291908181526020018383808284375f81840152601f19601f82011690508083019250505050505050815260200185858080601f0160208091040260200160405190810160405280939291908181526020018383808284375f81840152601f19601f82011690508083019250505050505050815260200183838080601f0160208091040260200160405190810160405280939291908181526020018383808284375f81840152601f19601f820116905080830192505050505050508152505f808973ffffffffffffffffffffffffffffffffffffffff1673ffffffffffffffffffffffffffffffffffffffff1681526020019081526020015f205f820151815f0190816105b09190610b69565b5060208201518160010190816105c69190610b69565b5060408201518160020190816105dc9190610b69565b5090505050505050505050565b60405180606001604052806060815260200160608152602001606081525090565b5f80fd5b5f80fd5b5f73ffffffffffffffffffffffffffffffffffffffff82169050919050565b5f61063b82610612565b9050919050565b61064b81610631565b8114610655575f80fd5b50565b5f8135905061066681610642565b92915050565b5f602082840312156106815761068061060a565b5b5f61068e84828501610658565b91505092915050565b5f81519050919050565b5f82825260208201905092915050565b8281835e5f83830152505050565b5f601f19601f8301169050919050565b5f6106d982610697565b6106e381856106a1565b93506106f38185602086016106b1565b6106fc816106bf565b840191505092915050565b5f6060820190508181035f83015261071f81866106cf565b9050818103602083015261073381856106cf565b9050818103604083015261074781846106cf565b9050949350505050565b5f82825260208201905092915050565b5f61076b82610697565b6107758185610751565b93506107858185602086016106b1565b61078e816106bf565b840191505092915050565b5f606083015f8301518482035f8601526107b38282610761565b915050602083015184820360208601526107cd8282610761565b915050604083015184820360408601526107e78282610761565b9150508091505092915050565b5f6020820190508181035f83015261080c8184610799565b905092915050565b5f80fd5b5f80fd5b5f80fd5b5f8083601f84011261083557610834610814565b5b8235905067ffffffffffffffff81111561085257610851610818565b5b60208301915083600182028301111561086e5761086d61081c565b5b9250929050565b5f805f805f805f6080888a0312156108905761088f61060a565b5b5f61089d8a828b01610658565b975050602088013567ffffffffffffffff8111156108be576108bd61060e565b5b6108ca8a828b01610820565b9650965050604088013567ffffffffffffffff8111156108ed576108ec61060e565b5b6108f98a828b01610820565b9450945050606088013567ffffffffffffffff81111561091c5761091b61060e565b5b6109288a828b01610820565b925092505092959891949750929550565b7f4e487b71000000000000000000000000000000000000000000000000000000005f52602260045260245ffd5b5f600282049050600182168061097d57607f821691505b6020821081036109905761098f610939565b5b50919050565b7f4e487b71000000000000000000000000000000000000000000000000000000005f52604160045260245ffd5b5f819050815f5260205f209050919050565b5f6020601f8301049050919050565b5f82821b905092915050565b5f60088302610a1f7fffffffffffffffffffffffffffffffffffffffffffffffffffffffffffffffff826109e4565b610a2986836109e4565b95508019841693508086168417925050509392505050565b5f819050919050565b5f819050919050565b5f610a6d610a68610a6384610a41565b610a4a565b610a41565b9050919050565b5f819050919050565b610a8683610a53565b610a9a610a9282610a74565b8484546109f0565b825550505050565b5f90565b610aae610aa2565b610ab9818484610a7d565b505050565b5b81811015610adc57610ad15f82610aa6565b600181019050610abf565b5050565b601f821115610b2157610af2816109c3565b610afb846109d5565b81016020851015610b0a578190505b610b1e610b16856109d5565b830182610abe565b50505b505050565b5f82821c905092915050565b5f610b415f1984600802610b26565b1980831691505092915050565b5f610b598383610b32565b9150826002028217905092915050565b610b7282610697565b67ffffffffffffffff811115610b8b57610b8a610996565b5b610b958254610966565b610ba0828285610ae0565b5f60209050601f831160018114610bd1575f8415610bbf578287015190505b610bc98582610b4e565b865550610c30565b601f198416610bdf866109c3565b5f5b82811015610c0657848901518255600182019150602085019450602081019050610be1565b86831015610c235784890151610c1f601f891682610b32565b8355505b6001600288020188555050505b50505050505056fea2646970667358221220d1000ce33d0f21fc7f064317fd8e90ea29f9dbc4d3e47fca28fda54eafd6bf3064736f6c634300081a0033",
					"opcodes": "PUSH1 0x80 PUSH1 0x40 MSTORE CALLVALUE DUP1 ISZERO PUSH1 0xE JUMPI PUSH0 DUP1 REVERT JUMPDEST POP PUSH2 0xC6E DUP1 PUSH2 0x1C PUSH0 CODECOPY PUSH0 RETURN INVALID PUSH1 0x80 PUSH1 0x40 MSTORE CALLVALUE DUP1 ISZERO PUSH2 0xF JUMPI PUSH0 DUP1 REVERT JUMPDEST POP PUSH1 0x4 CALLDATASIZE LT PUSH2 0x3F JUMPI PUSH0 CALLDATALOAD PUSH1 0xE0 SHR DUP1 PUSH4 0x2BA21572 EQ PUSH2 0x43 JUMPI DUP1 PUSH4 0x55EA6C47 EQ PUSH2 0x75 JUMPI DUP1 PUSH4 0xF9CF9C74 EQ PUSH2 0xA5 JUMPI JUMPDEST PUSH0 DUP1 REVERT JUMPDEST PUSH2 0x5D PUSH1 0x4 DUP1 CALLDATASIZE SUB DUP2 ADD SWAP1 PUSH2 0x58 SWAP2 SWAP1 PUSH2 0x66C JUMP JUMPDEST PUSH2 0xC1 JUMP JUMPDEST PUSH1 0x40 MLOAD PUSH2 0x6C SWAP4 SWAP3 SWAP2 SWAP1 PUSH2 0x707 JUMP JUMPDEST PUSH1 0x40 MLOAD DUP1 SWAP2 SUB SWAP1 RETURN JUMPDEST PUSH2 0x8F PUSH1 0x4 DUP1 CALLDATASIZE SUB DUP2 ADD SWAP1 PUSH2 0x8A SWAP2 SWAP1 PUSH2 0x66C JUMP JUMPDEST PUSH2 0x278 JUMP JUMPDEST PUSH1 0x40 MLOAD PUSH2 0x9C SWAP2 SWAP1 PUSH2 0x7F4 JUMP JUMPDEST PUSH1 0x40 MLOAD DUP1 SWAP2 SUB SWAP1 RETURN JUMPDEST PUSH2 0xBF PUSH1 0x4 DUP1 CALLDATASIZE SUB DUP2 ADD SWAP1 PUSH2 0xBA SWAP2 SWAP1 PUSH2 0x875 JUMP JUMPDEST PUSH2 0x47D JUMP JUMPDEST STOP JUMPDEST PUSH0 PUSH1 0x20 MSTORE DUP1 PUSH0 MSTORE PUSH1 0x40 PUSH0 KECCAK256 PUSH0 SWAP2 POP SWAP1 POP DUP1 PUSH0 ADD DUP1 SLOAD PUSH2 0xDF SWAP1 PUSH2 0x966 JUMP JUMPDEST DUP1 PUSH1 0x1F ADD PUSH1 0x20 DUP1 SWAP2 DIV MUL PUSH1 0x20 ADD PUSH1 0x40 MLOAD SWAP1 DUP2 ADD PUSH1 0x40 MSTORE DUP1 SWAP3 SWAP2 SWAP1 DUP2 DUP2 MSTORE PUSH1 0x20 ADD DUP3 DUP1 SLOAD PUSH2 0x10B SWAP1 PUSH2 0x966 JUMP JUMPDEST DUP1 ISZERO PUSH2 0x156 JUMPI DUP1 PUSH1 0x1F LT PUSH2 0x12D JUMPI PUSH2 0x100 DUP1 DUP4 SLOAD DIV MUL DUP4 MSTORE SWAP2 PUSH1 0x20 ADD SWAP2 PUSH2 0x156 JUMP JUMPDEST DUP3 ADD SWAP2 SWAP1 PUSH0 MSTORE PUSH1 0x20 PUSH0 KECCAK256 SWAP1 JUMPDEST DUP2 SLOAD DUP2 MSTORE SWAP1 PUSH1 0x1 ADD SWAP1 PUSH1 0x20 ADD DUP1 DUP4 GT PUSH2 0x139 JUMPI DUP3 SWAP1 SUB PUSH1 0x1F AND DUP3 ADD SWAP2 JUMPDEST POP POP POP POP POP SWAP1 DUP1 PUSH1 0x1 ADD DUP1 SLOAD PUSH2 0x16B SWAP1 PUSH2 0x966 JUMP JUMPDEST DUP1 PUSH1 0x1F ADD PUSH1 0x20 DUP1 SWAP2 DIV MUL PUSH1 0x20 ADD PUSH1 0x40 MLOAD SWAP1 DUP2 ADD PUSH1 0x40 MSTORE DUP1 SWAP3 SWAP2 SWAP1 DUP2 DUP2 MSTORE PUSH1 0x20 ADD DUP3 DUP1 SLOAD PUSH2 0x197 SWAP1 PUSH2 0x966 JUMP JUMPDEST DUP1 ISZERO PUSH2 0x1E2 JUMPI DUP1 PUSH1 0x1F LT PUSH2 0x1B9 JUMPI PUSH2 0x100 DUP1 DUP4 SLOAD DIV MUL DUP4 MSTORE SWAP2 PUSH1 0x20 ADD SWAP2 PUSH2 0x1E2 JUMP JUMPDEST DUP3 ADD SWAP2 SWAP1 PUSH0 MSTORE PUSH1 0x20 PUSH0 KECCAK256 SWAP1 JUMPDEST DUP2 SLOAD DUP2 MSTORE SWAP1 PUSH1 0x1 ADD SWAP1 PUSH1 0x20 ADD DUP1 DUP4 GT PUSH2 0x1C5 JUMPI DUP3 SWAP1 SUB PUSH1 0x1F AND DUP3 ADD SWAP2 JUMPDEST POP POP POP POP POP SWAP1 DUP1 PUSH1 0x2 ADD DUP1 SLOAD PUSH2 0x1F7 SWAP1 PUSH2 0x966 JUMP JUMPDEST DUP1 PUSH1 0x1F ADD PUSH1 0x20 DUP1 SWAP2 DIV MUL PUSH1 0x20 ADD PUSH1 0x40 MLOAD SWAP1 DUP2 ADD PUSH1 0x40 MSTORE DUP1 SWAP3 SWAP2 SWAP1 DUP2 DUP2 MSTORE PUSH1 0x20 ADD DUP3 DUP1 SLOAD PUSH2 0x223 SWAP1 PUSH2 0x966 JUMP JUMPDEST DUP1 ISZERO PUSH2 0x26E JUMPI DUP1 PUSH1 0x1F LT PUSH2 0x245 JUMPI PUSH2 0x100 DUP1 DUP4 SLOAD DIV MUL DUP4 MSTORE SWAP2 PUSH1 0x20 ADD SWAP2 PUSH2 0x26E JUMP JUMPDEST DUP3 ADD SWAP2 SWAP1 PUSH0 MSTORE PUSH1 0x20 PUSH0 KECCAK256 SWAP1 JUMPDEST DUP2 SLOAD DUP2 MSTORE SWAP1 PUSH1 0x1 ADD SWAP1 PUSH1 0x20 ADD DUP1 DUP4 GT PUSH2 0x251 JUMPI DUP3 SWAP1 SUB PUSH1 0x1F AND DUP3 ADD SWAP2 JUMPDEST POP POP POP POP POP SWAP1 POP DUP4 JUMP JUMPDEST PUSH2 0x280 PUSH2 0x5E9 JUMP JUMPDEST PUSH0 DUP1 DUP4 PUSH20 0xFFFFFFFFFFFFFFFFFFFFFFFFFFFFFFFFFFFFFFFF AND PUSH20 0xFFFFFFFFFFFFFFFFFFFFFFFFFFFFFFFFFFFFFFFF AND DUP2 MSTORE PUSH1 0x20 ADD SWAP1 DUP2 MSTORE PUSH1 0x20 ADD PUSH0 KECCAK256 PUSH1 0x40 MLOAD DUP1 PUSH1 0x60 ADD PUSH1 0x40 MSTORE SWAP1 DUP2 PUSH0 DUP3 ADD DUP1 SLOAD PUSH2 0x2D6 SWAP1 PUSH2 0x966 JUMP JUMPDEST DUP1 PUSH1 0x1F ADD PUSH1 0x20 DUP1 SWAP2 DIV MUL PUSH1 0x20 ADD PUSH1 0x40 MLOAD SWAP1 DUP2 ADD PUSH1 0x40 MSTORE DUP1 SWAP3 SWAP2 SWAP1 DUP2 DUP2 MSTORE PUSH1 0x20 ADD DUP3 DUP1 SLOAD PUSH2 0x302 SWAP1 PUSH2 0x966 JUMP JUMPDEST DUP1 ISZERO PUSH2 0x34D JUMPI DUP1 PUSH1 0x1F LT PUSH2 0x324 JUMPI PUSH2 0x100 DUP1 DUP4 SLOAD DIV MUL DUP4 MSTORE SWAP2 PUSH1 0x20 ADD SWAP2 PUSH2 0x34D JUMP JUMPDEST DUP3 ADD SWAP2 SWAP1 PUSH0 MSTORE PUSH1 0x20 PUSH0 KECCAK256 SWAP1 JUMPDEST DUP2 SLOAD DUP2 MSTORE SWAP1 PUSH1 0x1 ADD SWAP1 PUSH1 0x20 ADD DUP1 DUP4 GT PUSH2 0x330 JUMPI DUP3 SWAP1 SUB PUSH1 0x1F AND DUP3 ADD SWAP2 JUMPDEST POP POP POP POP POP DUP2 MSTORE PUSH1 0x20 ADD PUSH1 0x1 DUP3 ADD DUP1 SLOAD PUSH2 0x366 SWAP1 PUSH2 0x966 JUMP JUMPDEST DUP1 PUSH1 0x1F ADD PUSH1 0x20 DUP1 SWAP2 DIV MUL PUSH1 0x20 ADD PUSH1 0x40 MLOAD SWAP1 DUP2 ADD PUSH1 0x40 MSTORE DUP1 SWAP3 SWAP2 SWAP1 DUP2 DUP2 MSTORE PUSH1 0x20 ADD DUP3 DUP1 SLOAD PUSH2 0x392 SWAP1 PUSH2 0x966 JUMP JUMPDEST DUP1 ISZERO PUSH2 0x3DD JUMPI DUP1 PUSH1 0x1F LT PUSH2 0x3B4 JUMPI PUSH2 0x100 DUP1 DUP4 SLOAD DIV MUL DUP4 MSTORE SWAP2 PUSH1 0x20 ADD SWAP2 PUSH2 0x3DD JUMP JUMPDEST DUP3 ADD SWAP2 SWAP1 PUSH0 MSTORE PUSH1 0x20 PUSH0 KECCAK256 SWAP1 JUMPDEST DUP2 SLOAD DUP2 MSTORE SWAP1 PUSH1 0x1 ADD SWAP1 PUSH1 0x20 ADD DUP1 DUP4 GT PUSH2 0x3C0 JUMPI DUP3 SWAP1 SUB PUSH1 0x1F AND DUP3 ADD SWAP2 JUMPDEST POP POP POP POP POP DUP2 MSTORE PUSH1 0x20 ADD PUSH1 0x2 DUP3 ADD DUP1 SLOAD PUSH2 0x3F6 SWAP1 PUSH2 0x966 JUMP JUMPDEST DUP1 PUSH1 0x1F ADD PUSH1 0x20 DUP1 SWAP2 DIV MUL PUSH1 0x20 ADD PUSH1 0x40 MLOAD SWAP1 DUP2 ADD PUSH1 0x40 MSTORE DUP1 SWAP3 SWAP2 SWAP1 DUP2 DUP2 MSTORE PUSH1 0x20 ADD DUP3 DUP1 SLOAD PUSH2 0x422 SWAP1 PUSH2 0x966 JUMP JUMPDEST DUP1 ISZERO PUSH2 0x46D JUMPI DUP1 PUSH1 0x1F LT PUSH2 0x444 JUMPI PUSH2 0x100 DUP1 DUP4 SLOAD DIV MUL DUP4 MSTORE SWAP2 PUSH1 0x20 ADD SWAP2 PUSH2 0x46D JUMP JUMPDEST DUP3 ADD SWAP2 SWAP1 PUSH0 MSTORE PUSH1 0x20 PUSH0 KECCAK256 SWAP1 JUMPDEST DUP2 SLOAD DUP2 MSTORE SWAP1 PUSH1 0x1 ADD SWAP1 PUSH1 0x20 ADD DUP1 DUP4 GT PUSH2 0x450 JUMPI DUP3 SWAP1 SUB PUSH1 0x1F AND DUP3 ADD SWAP2 JUMPDEST POP POP POP POP POP DUP2 MSTORE POP POP SWAP1 POP SWAP2 SWAP1 POP JUMP JUMPDEST PUSH1 0x40 MLOAD DUP1 PUSH1 0x60 ADD PUSH1 0x40 MSTORE DUP1 DUP8 DUP8 DUP1 DUP1 PUSH1 0x1F ADD PUSH1 0x20 DUP1 SWAP2 DIV MUL PUSH1 0x20 ADD PUSH1 0x40 MLOAD SWAP1 DUP2 ADD PUSH1 0x40 MSTORE DUP1 SWAP4 SWAP3 SWAP2 SWAP1 DUP2 DUP2 MSTORE PUSH1 0x20 ADD DUP4 DUP4 DUP1 DUP3 DUP5 CALLDATACOPY PUSH0 DUP2 DUP5 ADD MSTORE PUSH1 0x1F NOT PUSH1 0x1F DUP3 ADD AND SWAP1 POP DUP1 DUP4 ADD SWAP3 POP POP POP POP POP POP POP DUP2 MSTORE PUSH1 0x20 ADD DUP6 DUP6 DUP1 DUP1 PUSH1 0x1F ADD PUSH1 0x20 DUP1 SWAP2 DIV MUL PUSH1 0x20 ADD PUSH1 0x40 MLOAD SWAP1 DUP2 ADD PUSH1 0x40 MSTORE DUP1 SWAP4 SWAP3 SWAP2 SWAP1 DUP2 DUP2 MSTORE PUSH1 0x20 ADD DUP4 DUP4 DUP1 DUP3 DUP5 CALLDATACOPY PUSH0 DUP2 DUP5 ADD MSTORE PUSH1 0x1F NOT PUSH1 0x1F DUP3 ADD AND SWAP1 POP DUP1 DUP4 ADD SWAP3 POP POP POP POP POP POP POP DUP2 MSTORE PUSH1 0x20 ADD DUP4 DUP4 DUP1 DUP1 PUSH1 0x1F ADD PUSH1 0x20 DUP1 SWAP2 DIV MUL PUSH1 0x20 ADD PUSH1 0x40 MLOAD SWAP1 DUP2 ADD PUSH1 0x40 MSTORE DUP1 SWAP4 SWAP3 SWAP2 SWAP1 DUP2 DUP2 MSTORE PUSH1 0x20 ADD DUP4 DUP4 DUP1 DUP3 DUP5 CALLDATACOPY PUSH0 DUP2 DUP5 ADD MSTORE PUSH1 0x1F NOT PUSH1 0x1F DUP3 ADD AND SWAP1 POP DUP1 DUP4 ADD SWAP3 POP POP POP POP POP POP POP DUP2 MSTORE POP PUSH0 DUP1 DUP10 PUSH20 0xFFFFFFFFFFFFFFFFFFFFFFFFFFFFFFFFFFFFFFFF AND PUSH20 0xFFFFFFFFFFFFFFFFFFFFFFFFFFFFFFFFFFFFFFFF AND DUP2 MSTORE PUSH1 0x20 ADD SWAP1 DUP2 MSTORE PUSH1 0x20 ADD PUSH0 KECCAK256 PUSH0 DUP3 ADD MLOAD DUP2 PUSH0 ADD SWAP1 DUP2 PUSH2 0x5B0 SWAP2 SWAP1 PUSH2 0xB69 JUMP JUMPDEST POP PUSH1 0x20 DUP3 ADD MLOAD DUP2 PUSH1 0x1 ADD SWAP1 DUP2 PUSH2 0x5C6 SWAP2 SWAP1 PUSH2 0xB69 JUMP JUMPDEST POP PUSH1 0x40 DUP3 ADD MLOAD DUP2 PUSH1 0x2 ADD SWAP1 DUP2 PUSH2 0x5DC SWAP2 SWAP1 PUSH2 0xB69 JUMP JUMPDEST POP SWAP1 POP POP POP POP POP POP POP POP POP JUMP JUMPDEST PUSH1 0x40 MLOAD DUP1 PUSH1 0x60 ADD PUSH1 0x40 MSTORE DUP1 PUSH1 0x60 DUP2 MSTORE PUSH1 0x20 ADD PUSH1 0x60 DUP2 MSTORE PUSH1 0x20 ADD PUSH1 0x60 DUP2 MSTORE POP SWAP1 JUMP JUMPDEST PUSH0 DUP1 REVERT JUMPDEST PUSH0 DUP1 REVERT JUMPDEST PUSH0 PUSH20 0xFFFFFFFFFFFFFFFFFFFFFFFFFFFFFFFFFFFFFFFF DUP3 AND SWAP1 POP SWAP2 SWAP1 POP JUMP JUMPDEST PUSH0 PUSH2 0x63B DUP3 PUSH2 0x612 JUMP JUMPDEST SWAP1 POP SWAP2 SWAP1 POP JUMP JUMPDEST PUSH2 0x64B DUP2 PUSH2 0x631 JUMP JUMPDEST DUP2 EQ PUSH2 0x655 JUMPI PUSH0 DUP1 REVERT JUMPDEST POP JUMP JUMPDEST PUSH0 DUP2 CALLDATALOAD SWAP1 POP PUSH2 0x666 DUP2 PUSH2 0x642 JUMP JUMPDEST SWAP3 SWAP2 POP POP JUMP JUMPDEST PUSH0 PUSH1 0x20 DUP3 DUP5 SUB SLT ISZERO PUSH2 0x681 JUMPI PUSH2 0x680 PUSH2 0x60A JUMP JUMPDEST JUMPDEST PUSH0 PUSH2 0x68E DUP5 DUP3 DUP6 ADD PUSH2 0x658 JUMP JUMPDEST SWAP2 POP POP SWAP3 SWAP2 POP POP JUMP JUMPDEST PUSH0 DUP2 MLOAD SWAP1 POP SWAP2 SWAP1 POP JUMP JUMPDEST PUSH0 DUP3 DUP3 MSTORE PUSH1 0x20 DUP3 ADD SWAP1 POP SWAP3 SWAP2 POP POP JUMP JUMPDEST DUP3 DUP2 DUP4 MCOPY PUSH0 DUP4 DUP4 ADD MSTORE POP POP POP JUMP JUMPDEST PUSH0 PUSH1 0x1F NOT PUSH1 0x1F DUP4 ADD AND SWAP1 POP SWAP2 SWAP1 POP JUMP JUMPDEST PUSH0 PUSH2 0x6D9 DUP3 PUSH2 0x697 JUMP JUMPDEST PUSH2 0x6E3 DUP2 DUP6 PUSH2 0x6A1 JUMP JUMPDEST SWAP4 POP PUSH2 0x6F3 DUP2 DUP6 PUSH1 0x20 DUP7 ADD PUSH2 0x6B1 JUMP JUMPDEST PUSH2 0x6FC DUP2 PUSH2 0x6BF JUMP JUMPDEST DUP5 ADD SWAP2 POP POP SWAP3 SWAP2 POP POP JUMP JUMPDEST PUSH0 PUSH1 0x60 DUP3 ADD SWAP1 POP DUP2 DUP2 SUB PUSH0 DUP4 ADD MSTORE PUSH2 0x71F DUP2 DUP7 PUSH2 0x6CF JUMP JUMPDEST SWAP1 POP DUP2 DUP2 SUB PUSH1 0x20 DUP4 ADD MSTORE PUSH2 0x733 DUP2 DUP6 PUSH2 0x6CF JUMP JUMPDEST SWAP1 POP DUP2 DUP2 SUB PUSH1 0x40 DUP4 ADD MSTORE PUSH2 0x747 DUP2 DUP5 PUSH2 0x6CF JUMP JUMPDEST SWAP1 POP SWAP5 SWAP4 POP POP POP POP JUMP JUMPDEST PUSH0 DUP3 DUP3 MSTORE PUSH1 0x20 DUP3 ADD SWAP1 POP SWAP3 SWAP2 POP POP JUMP JUMPDEST PUSH0 PUSH2 0x76B DUP3 PUSH2 0x697 JUMP JUMPDEST PUSH2 0x775 DUP2 DUP6 PUSH2 0x751 JUMP JUMPDEST SWAP4 POP PUSH2 0x785 DUP2 DUP6 PUSH1 0x20 DUP7 ADD PUSH2 0x6B1 JUMP JUMPDEST PUSH2 0x78E DUP2 PUSH2 0x6BF JUMP JUMPDEST DUP5 ADD SWAP2 POP POP SWAP3 SWAP2 POP POP JUMP JUMPDEST PUSH0 PUSH1 0x60 DUP4 ADD PUSH0 DUP4 ADD MLOAD DUP5 DUP3 SUB PUSH0 DUP7 ADD MSTORE PUSH2 0x7B3 DUP3 DUP3 PUSH2 0x761 JUMP JUMPDEST SWAP2 POP POP PUSH1 0x20 DUP4 ADD MLOAD DUP5 DUP3 SUB PUSH1 0x20 DUP7 ADD MSTORE PUSH2 0x7CD DUP3 DUP3 PUSH2 0x761 JUMP JUMPDEST SWAP2 POP POP PUSH1 0x40 DUP4 ADD MLOAD DUP5 DUP3 SUB PUSH1 0x40 DUP7 ADD MSTORE PUSH2 0x7E7 DUP3 DUP3 PUSH2 0x761 JUMP JUMPDEST SWAP2 POP POP DUP1 SWAP2 POP POP SWAP3 SWAP2 POP POP JUMP JUMPDEST PUSH0 PUSH1 0x20 DUP3 ADD SWAP1 POP DUP2 DUP2 SUB PUSH0 DUP4 ADD MSTORE PUSH2 0x80C DUP2 DUP5 PUSH2 0x799 JUMP JUMPDEST SWAP1 POP SWAP3 SWAP2 POP POP JUMP JUMPDEST PUSH0 DUP1 REVERT JUMPDEST PUSH0 DUP1 REVERT JUMPDEST PUSH0 DUP1 REVERT JUMPDEST PUSH0 DUP1 DUP4 PUSH1 0x1F DUP5 ADD SLT PUSH2 0x835 JUMPI PUSH2 0x834 PUSH2 0x814 JUMP JUMPDEST JUMPDEST DUP3 CALLDATALOAD SWAP1 POP PUSH8 0xFFFFFFFFFFFFFFFF DUP2 GT ISZERO PUSH2 0x852 JUMPI PUSH2 0x851 PUSH2 0x818 JUMP JUMPDEST JUMPDEST PUSH1 0x20 DUP4 ADD SWAP2 POP DUP4 PUSH1 0x1 DUP3 MUL DUP4 ADD GT ISZERO PUSH2 0x86E JUMPI PUSH2 0x86D PUSH2 0x81C JUMP JUMPDEST JUMPDEST SWAP3 POP SWAP3 SWAP1 POP JUMP JUMPDEST PUSH0 DUP1 PUSH0 DUP1 PUSH0 DUP1 PUSH0 PUSH1 0x80 DUP9 DUP11 SUB SLT ISZERO PUSH2 0x890 JUMPI PUSH2 0x88F PUSH2 0x60A JUMP JUMPDEST JUMPDEST PUSH0 PUSH2 0x89D DUP11 DUP3 DUP12 ADD PUSH2 0x658 JUMP JUMPDEST SWAP8 POP POP PUSH1 0x20 DUP9 ADD CALLDATALOAD PUSH8 0xFFFFFFFFFFFFFFFF DUP2 GT ISZERO PUSH2 0x8BE JUMPI PUSH2 0x8BD PUSH2 0x60E JUMP JUMPDEST JUMPDEST PUSH2 0x8CA DUP11 DUP3 DUP12 ADD PUSH2 0x820 JUMP JUMPDEST SWAP7 POP SWAP7 POP POP PUSH1 0x40 DUP9 ADD CALLDATALOAD PUSH8 0xFFFFFFFFFFFFFFFF DUP2 GT ISZERO PUSH2 0x8ED JUMPI PUSH2 0x8EC PUSH2 0x60E JUMP JUMPDEST JUMPDEST PUSH2 0x8F9 DUP11 DUP3 DUP12 ADD PUSH2 0x820 JUMP JUMPDEST SWAP5 POP SWAP5 POP POP PUSH1 0x60 DUP9 ADD CALLDATALOAD PUSH8 0xFFFFFFFFFFFFFFFF DUP2 GT ISZERO PUSH2 0x91C JUMPI PUSH2 0x91B PUSH2 0x60E JUMP JUMPDEST JUMPDEST PUSH2 0x928 DUP11 DUP3 DUP12 ADD PUSH2 0x820 JUMP JUMPDEST SWAP3 POP SWAP3 POP POP SWAP3 SWAP6 SWAP9 SWAP2 SWAP5 SWAP8 POP SWAP3 SWAP6 POP JUMP JUMPDEST PUSH32 0x4E487B7100000000000000000000000000000000000000000000000000000000 PUSH0 MSTORE PUSH1 0x22 PUSH1 0x4 MSTORE PUSH1 0x24 PUSH0 REVERT JUMPDEST PUSH0 PUSH1 0x2 DUP3 DIV SWAP1 POP PUSH1 0x1 DUP3 AND DUP1 PUSH2 0x97D JUMPI PUSH1 0x7F DUP3 AND SWAP2 POP JUMPDEST PUSH1 0x20 DUP3 LT DUP2 SUB PUSH2 0x990 JUMPI PUSH2 0x98F PUSH2 0x939 JUMP JUMPDEST JUMPDEST POP SWAP2 SWAP1 POP JUMP JUMPDEST PUSH32 0x4E487B7100000000000000000000000000000000000000000000000000000000 PUSH0 MSTORE PUSH1 0x41 PUSH1 0x4 MSTORE PUSH1 0x24 PUSH0 REVERT JUMPDEST PUSH0 DUP2 SWAP1 POP DUP2 PUSH0 MSTORE PUSH1 0x20 PUSH0 KECCAK256 SWAP1 POP SWAP2 SWAP1 POP JUMP JUMPDEST PUSH0 PUSH1 0x20 PUSH1 0x1F DUP4 ADD DIV SWAP1 POP SWAP2 SWAP1 POP JUMP JUMPDEST PUSH0 DUP3 DUP3 SHL SWAP1 POP SWAP3 SWAP2 POP POP JUMP JUMPDEST PUSH0 PUSH1 0x8 DUP4 MUL PUSH2 0xA1F PUSH32 0xFFFFFFFFFFFFFFFFFFFFFFFFFFFFFFFFFFFFFFFFFFFFFFFFFFFFFFFFFFFFFFFF DUP3 PUSH2 0x9E4 JUMP JUMPDEST PUSH2 0xA29 DUP7 DUP4 PUSH2 0x9E4 JUMP JUMPDEST SWAP6 POP DUP1 NOT DUP5 AND SWAP4 POP DUP1 DUP7 AND DUP5 OR SWAP3 POP POP POP SWAP4 SWAP3 POP POP POP JUMP JUMPDEST PUSH0 DUP2 SWAP1 POP SWAP2 SWAP1 POP JUMP JUMPDEST PUSH0 DUP2 SWAP1 POP SWAP2 SWAP1 POP JUMP JUMPDEST PUSH0 PUSH2 0xA6D PUSH2 0xA68 PUSH2 0xA63 DUP5 PUSH2 0xA41 JUMP JUMPDEST PUSH2 0xA4A JUMP JUMPDEST PUSH2 0xA41 JUMP JUMPDEST SWAP1 POP SWAP2 SWAP1 POP JUMP JUMPDEST PUSH0 DUP2 SWAP1 POP SWAP2 SWAP1 POP JUMP JUMPDEST PUSH2 0xA86 DUP4 PUSH2 0xA53 JUMP JUMPDEST PUSH2 0xA9A PUSH2 0xA92 DUP3 PUSH2 0xA74 JUMP JUMPDEST DUP5 DUP5 SLOAD PUSH2 0x9F0 JUMP JUMPDEST DUP3 SSTORE POP POP POP POP JUMP JUMPDEST PUSH0 SWAP1 JUMP JUMPDEST PUSH2 0xAAE PUSH2 0xAA2 JUMP JUMPDEST PUSH2 0xAB9 DUP2 DUP5 DUP5 PUSH2 0xA7D JUMP JUMPDEST POP POP POP JUMP JUMPDEST JUMPDEST DUP2 DUP2 LT ISZERO PUSH2 0xADC JUMPI PUSH2 0xAD1 PUSH0 DUP3 PUSH2 0xAA6 JUMP JUMPDEST PUSH1 0x1 DUP2 ADD SWAP1 POP PUSH2 0xABF JUMP JUMPDEST POP POP JUMP JUMPDEST PUSH1 0x1F DUP3 GT ISZERO PUSH2 0xB21 JUMPI PUSH2 0xAF2 DUP2 PUSH2 0x9C3 JUMP JUMPDEST PUSH2 0xAFB DUP5 PUSH2 0x9D5 JUMP JUMPDEST DUP2 ADD PUSH1 0x20 DUP6 LT ISZERO PUSH2 0xB0A JUMPI DUP2 SWAP1 POP JUMPDEST PUSH2 0xB1E PUSH2 0xB16 DUP6 PUSH2 0x9D5 JUMP JUMPDEST DUP4 ADD DUP3 PUSH2 0xABE JUMP JUMPDEST POP POP JUMPDEST POP POP POP JUMP JUMPDEST PUSH0 DUP3 DUP3 SHR SWAP1 POP SWAP3 SWAP2 POP POP JUMP JUMPDEST PUSH0 PUSH2 0xB41 PUSH0 NOT DUP5 PUSH1 0x8 MUL PUSH2 0xB26 JUMP JUMPDEST NOT DUP1 DUP4 AND SWAP2 POP POP SWAP3 SWAP2 POP POP JUMP JUMPDEST PUSH0 PUSH2 0xB59 DUP4 DUP4 PUSH2 0xB32 JUMP JUMPDEST SWAP2 POP DUP3 PUSH1 0x2 MUL DUP3 OR SWAP1 POP SWAP3 SWAP2 POP POP JUMP JUMPDEST PUSH2 0xB72 DUP3 PUSH2 0x697 JUMP JUMPDEST PUSH8 0xFFFFFFFFFFFFFFFF DUP2 GT ISZERO PUSH2 0xB8B JUMPI PUSH2 0xB8A PUSH2 0x996 JUMP JUMPDEST JUMPDEST PUSH2 0xB95 DUP3 SLOAD PUSH2 0x966 JUMP JUMPDEST PUSH2 0xBA0 DUP3 DUP3 DUP6 PUSH2 0xAE0 JUMP JUMPDEST PUSH0 PUSH1 0x20 SWAP1 POP PUSH1 0x1F DUP4 GT PUSH1 0x1 DUP2 EQ PUSH2 0xBD1 JUMPI PUSH0 DUP5 ISZERO PUSH2 0xBBF JUMPI DUP3 DUP8 ADD MLOAD SWAP1 POP JUMPDEST PUSH2 0xBC9 DUP6 DUP3 PUSH2 0xB4E JUMP JUMPDEST DUP7 SSTORE POP PUSH2 0xC30 JUMP JUMPDEST PUSH1 0x1F NOT DUP5 AND PUSH2 0xBDF DUP7 PUSH2 0x9C3 JUMP JUMPDEST PUSH0 JUMPDEST DUP3 DUP2 LT ISZERO PUSH2 0xC06 JUMPI DUP5 DUP10 ADD MLOAD DUP3 SSTORE PUSH1 0x1 DUP3 ADD SWAP2 POP PUSH1 0x20 DUP6 ADD SWAP5 POP PUSH1 0x20 DUP2 ADD SWAP1 POP PUSH2 0xBE1 JUMP JUMPDEST DUP7 DUP4 LT ISZERO PUSH2 0xC23 JUMPI DUP5 DUP10 ADD MLOAD PUSH2 0xC1F PUSH1 0x1F DUP10 AND DUP3 PUSH2 0xB32 JUMP JUMPDEST DUP4 SSTORE POP JUMPDEST PUSH1 0x1 PUSH1 0x2 DUP9 MUL ADD DUP9 SSTORE POP POP POP JUMPDEST POP POP POP POP POP POP JUMP INVALID LOG2 PUSH5 0x6970667358 0x22 SLT KECCAK256 0xD1 STOP 0xC 0xE3 RETURNDATASIZE 0xF 0x21 0xFC PUSH32 0x64317FD8E90EA29F9DBC4D3E47FCA28FDA54EAFD6BF3064736F6C634300081A STOP CALLER "
				},
				"gasEstimates": {
					"creation": {
						"codeDepositCost": "636400",
						"executionCost": "668",
						"totalCost": "637068"
					},
					"external": {
						"label(address,string,string,string)": "infinite",
						"metadata(address)": "infinite",
						"resolve(address)": "infinite"
					}
				},
				"methodIdentifiers": {
					"label(address,string,string,string)": "f9cf9c74",
					"metadata(address)": "2ba21572",
					"resolve(address)": "55ea6c47"
				}
			},
			"storageLayout": {
				"storage": [
					{
						"astId": 12,
						"contract": "R/Reverse Engineering/ReverseResolver.sol:ReverseResolver",
						"label": "metadata",
						"offset": 0,
						"slot": "0",
						"type": "t_mapping(t_address,t_struct(Meta)7_storage)"
					}
				],
				"types": {
					"t_address": {
						"encoding": "inplace",
						"label": "address",
						"numberOfBytes": "20"
					},
					"t_mapping(t_address,t_struct(Meta)7_storage)": {
						"encoding": "mapping",
						"key": "t_address",
						"label": "mapping(address => struct ReverseResolver.Meta)",
						"numberOfBytes": "32",
						"value": "t_struct(Meta)7_storage"
					},
					"t_string_storage": {
						"encoding": "bytes",
						"label": "string",
						"numberOfBytes": "32"
					},
					"t_struct(Meta)7_storage": {
						"encoding": "inplace",
						"label": "struct ReverseResolver.Meta",
						"members": [
							{
								"astId": 2,
								"contract": "R/Reverse Engineering/ReverseResolver.sol:ReverseResolver",
								"label": "label",
								"offset": 0,
								"slot": "0",
								"type": "t_string_storage"
							},
							{
								"astId": 4,
								"contract": "R/Reverse Engineering/ReverseResolver.sol:ReverseResolver",
								"label": "role",
								"offset": 0,
								"slot": "1",
								"type": "t_string_storage"
							},
							{
								"astId": 6,
								"contract": "R/Reverse Engineering/ReverseResolver.sol:ReverseResolver",
								"label": "tag",
								"offset": 0,
								"slot": "2",
								"type": "t_string_storage"
							}
						],
						"numberOfBytes": "96"
					}
				}
			},
			"userdoc": {
				"kind": "user",
				"methods": {},
				"version": 1
			}
		}
	}
}