{
	"R/Reverse Engineering/ABIReconMutator1.sol": {
		"ABIReconMutator": {
			"abi": [
				{
					"anonymous": false,
					"inputs": [
						{
							"indexed": true,
							"internalType": "bytes4",
							"name": "selector",
							"type": "bytes4"
						},
						{
							"indexed": false,
							"internalType": "string",
							"name": "name",
							"type": "string"
						}
					],
					"name": "SelectorGuessed",
					"type": "event"
				},
				{
					"inputs": [
						{
							"internalType": "bytes4",
							"name": "selector",
							"type": "bytes4"
						},
						{
							"internalType": "string",
							"name": "name",
							"type": "string"
						}
					],
					"name": "guess",
					"outputs": [],
					"stateMutability": "nonpayable",
					"type": "function"
				},
				{
					"inputs": [
						{
							"internalType": "bytes4",
							"name": "",
							"type": "bytes4"
						}
					],
					"name": "guesses",
					"outputs": [
						{
							"internalType": "string",
							"name": "",
							"type": "string"
						}
					],
					"stateMutability": "view",
					"type": "function"
				}
			],
			"devdoc": {
				"kind": "dev",
				"methods": {},
				"version": 1
			},
			"evm": {
				"assembly": "    /* \"R/Reverse Engineering/ABIReconMutator1.sol\":0:296  contract ABIReconMutator {... */\n  mstore(0x40, 0x80)\n  callvalue\n  dup1\n  iszero\n  tag_1\n  jumpi\n  0x00\n  dup1\n  revert\ntag_1:\n  pop\n  dataSize(sub_0)\n  dup1\n  dataOffset(sub_0)\n  0x00\n  codecopy\n  0x00\n  return\nstop\n\nsub_0: assembly {\n        /* \"R/Reverse Engineering/ABIReconMutator1.sol\":0:296  contract ABIReconMutator {... */\n      mstore(0x40, 0x80)\n      callvalue\n      dup1\n      iszero\n      tag_1\n      jumpi\n      0x00\n      dup1\n      revert\n    tag_1:\n      pop\n      jumpi(tag_2, lt(calldatasize, 0x04))\n      shr(0xe0, calldataload(0x00))\n      dup1\n      0xa08475e4\n      eq\n      tag_3\n      jumpi\n      dup1\n      0xa6027ed8\n      eq\n      tag_4\n      jumpi\n    tag_2:\n      0x00\n      dup1\n      revert\n        /* \"R/Reverse Engineering/ABIReconMutator1.sol\":144:294  function guess(bytes4 selector, string calldata name) external {... */\n    tag_3:\n      tag_5\n      0x04\n      dup1\n      calldatasize\n      sub\n      dup2\n      add\n      swap1\n      tag_6\n      swap2\n      swap1\n      tag_7\n      jump\t// in\n    tag_6:\n      tag_8\n      jump\t// in\n    tag_5:\n      stop\n        /* \"R/Reverse Engineering/ABIReconMutator1.sol\":31:71  mapping(bytes4 => string) public guesses */\n    tag_4:\n      tag_9\n      0x04\n      dup1\n      calldatasize\n      sub\n      dup2\n      add\n      swap1\n      tag_10\n      swap2\n      swap1\n      tag_11\n      jump\t// in\n    tag_10:\n      tag_12\n      jump\t// in\n    tag_9:\n      mload(0x40)\n      tag_13\n      swap2\n      swap1\n      tag_14\n      jump\t// in\n    tag_13:\n      mload(0x40)\n      dup1\n      swap2\n      sub\n      swap1\n      return\n        /* \"R/Reverse Engineering/ABIReconMutator1.sol\":144:294  function guess(bytes4 selector, string calldata name) external {... */\n    tag_8:\n        /* \"R/Reverse Engineering/ABIReconMutator1.sol\":237:241  name */\n      dup2\n      dup2\n        /* \"R/Reverse Engineering/ABIReconMutator1.sol\":217:224  guesses */\n      0x00\n        /* \"R/Reverse Engineering/ABIReconMutator1.sol\":217:234  guesses[selector] */\n      dup1\n        /* \"R/Reverse Engineering/ABIReconMutator1.sol\":225:233  selector */\n      dup7\n        /* \"R/Reverse Engineering/ABIReconMutator1.sol\":217:234  guesses[selector] */\n      not(0xffffffffffffffffffffffffffffffffffffffffffffffffffffffff)\n      and\n      not(0xffffffffffffffffffffffffffffffffffffffffffffffffffffffff)\n      and\n      dup2\n      mstore\n      0x20\n      add\n      swap1\n      dup2\n      mstore\n      0x20\n      add\n      0x00\n      keccak256\n        /* \"R/Reverse Engineering/ABIReconMutator1.sol\":217:241  guesses[selector] = name */\n      swap2\n      dup3\n      tag_16\n      swap3\n      swap2\n      swap1\n      tag_17\n      jump\t// in\n    tag_16:\n      pop\n        /* \"R/Reverse Engineering/ABIReconMutator1.sol\":272:280  selector */\n      dup3\n        /* \"R/Reverse Engineering/ABIReconMutator1.sol\":256:287  SelectorGuessed(selector, name) */\n      not(0xffffffffffffffffffffffffffffffffffffffffffffffffffffffff)\n      and\n      0x6ddc412b2ab94334271203de03dae6a9042d0d45072b4ff5684c6ae023749c07\n        /* \"R/Reverse Engineering/ABIReconMutator1.sol\":282:286  name */\n      dup4\n      dup4\n        /* \"R/Reverse Engineering/ABIReconMutator1.sol\":256:287  SelectorGuessed(selector, name) */\n      mload(0x40)\n      tag_18\n      swap3\n      swap2\n      swap1\n      tag_19\n      jump\t// in\n    tag_18:\n      mload(0x40)\n      dup1\n      swap2\n      sub\n      swap1\n      log2\n        /* \"R/Reverse Engineering/ABIReconMutator1.sol\":144:294  function guess(bytes4 selector, string calldata name) external {... */\n      pop\n      pop\n      pop\n      jump\t// out\n        /* \"R/Reverse Engineering/ABIReconMutator1.sol\":31:71  mapping(bytes4 => string) public guesses */\n    tag_12:\n      mstore(0x20, 0x00)\n      dup1\n      0x00\n      mstore\n      keccak256(0x00, 0x40)\n      0x00\n      swap2\n      pop\n      swap1\n      pop\n      dup1\n      sload\n      tag_20\n      swap1\n      tag_21\n      jump\t// in\n    tag_20:\n      dup1\n      0x1f\n      add\n      0x20\n      dup1\n      swap2\n      div\n      mul\n      0x20\n      add\n      mload(0x40)\n      swap1\n      dup2\n      add\n      0x40\n      mstore\n      dup1\n      swap3\n      swap2\n      swap1\n      dup2\n      dup2\n      mstore\n      0x20\n      add\n      dup3\n      dup1\n      sload\n      tag_22\n      swap1\n      tag_21\n      jump\t// in\n    tag_22:\n      dup1\n      iszero\n      tag_23\n      jumpi\n      dup1\n      0x1f\n      lt\n      tag_24\n      jumpi\n      0x0100\n      dup1\n      dup4\n      sload\n      div\n      mul\n      dup4\n      mstore\n      swap2\n      0x20\n      add\n      swap2\n      jump(tag_23)\n    tag_24:\n      dup3\n      add\n      swap2\n      swap1\n      0x00\n      mstore\n      keccak256(0x00, 0x20)\n      swap1\n    tag_25:\n      dup2\n      sload\n      dup2\n      mstore\n      swap1\n      0x01\n      add\n      swap1\n      0x20\n      add\n      dup1\n      dup4\n      gt\n      tag_25\n      jumpi\n      dup3\n      swap1\n      sub\n      0x1f\n      and\n      dup3\n      add\n      swap2\n    tag_23:\n      pop\n      pop\n      pop\n      pop\n      pop\n      dup2\n      jump\t// out\n        /* \"#utility.yul\":88:205   */\n    tag_27:\n        /* \"#utility.yul\":197:198   */\n      0x00\n        /* \"#utility.yul\":194:195   */\n      dup1\n        /* \"#utility.yul\":187:199   */\n      revert\n        /* \"#utility.yul\":211:328   */\n    tag_28:\n        /* \"#utility.yul\":320:321   */\n      0x00\n        /* \"#utility.yul\":317:318   */\n      dup1\n        /* \"#utility.yul\":310:322   */\n      revert\n        /* \"#utility.yul\":334:483   */\n    tag_29:\n        /* \"#utility.yul\":370:377   */\n      0x00\n        /* \"#utility.yul\":410:476   */\n      0xffffffff00000000000000000000000000000000000000000000000000000000\n        /* \"#utility.yul\":403:408   */\n      dup3\n        /* \"#utility.yul\":399:477   */\n      and\n        /* \"#utility.yul\":388:477   */\n      swap1\n      pop\n        /* \"#utility.yul\":334:483   */\n      swap2\n      swap1\n      pop\n      jump\t// out\n        /* \"#utility.yul\":489:609   */\n    tag_30:\n        /* \"#utility.yul\":561:584   */\n      tag_68\n        /* \"#utility.yul\":578:583   */\n      dup2\n        /* \"#utility.yul\":561:584   */\n      tag_29\n      jump\t// in\n    tag_68:\n        /* \"#utility.yul\":554:559   */\n      dup2\n        /* \"#utility.yul\":551:585   */\n      eq\n        /* \"#utility.yul\":541:603   */\n      tag_69\n      jumpi\n        /* \"#utility.yul\":599:600   */\n      0x00\n        /* \"#utility.yul\":596:597   */\n      dup1\n        /* \"#utility.yul\":589:601   */\n      revert\n        /* \"#utility.yul\":541:603   */\n    tag_69:\n        /* \"#utility.yul\":489:609   */\n      pop\n      jump\t// out\n        /* \"#utility.yul\":615:752   */\n    tag_31:\n        /* \"#utility.yul\":660:665   */\n      0x00\n        /* \"#utility.yul\":698:704   */\n      dup2\n        /* \"#utility.yul\":685:705   */\n      calldataload\n        /* \"#utility.yul\":676:705   */\n      swap1\n      pop\n        /* \"#utility.yul\":714:746   */\n      tag_71\n        /* \"#utility.yul\":740:745   */\n      dup2\n        /* \"#utility.yul\":714:746   */\n      tag_30\n      jump\t// in\n    tag_71:\n        /* \"#utility.yul\":615:752   */\n      swap3\n      swap2\n      pop\n      pop\n      jump\t// out\n        /* \"#utility.yul\":758:875   */\n    tag_32:\n        /* \"#utility.yul\":867:868   */\n      0x00\n        /* \"#utility.yul\":864:865   */\n      dup1\n        /* \"#utility.yul\":857:869   */\n      revert\n        /* \"#utility.yul\":881:998   */\n    tag_33:\n        /* \"#utility.yul\":990:991   */\n      0x00\n        /* \"#utility.yul\":987:988   */\n      dup1\n        /* \"#utility.yul\":980:992   */\n      revert\n        /* \"#utility.yul\":1004:1121   */\n    tag_34:\n        /* \"#utility.yul\":1113:1114   */\n      0x00\n        /* \"#utility.yul\":1110:1111   */\n      dup1\n        /* \"#utility.yul\":1103:1115   */\n      revert\n        /* \"#utility.yul\":1141:1694   */\n    tag_35:\n        /* \"#utility.yul\":1199:1207   */\n      0x00\n        /* \"#utility.yul\":1209:1215   */\n      dup1\n        /* \"#utility.yul\":1259:1262   */\n      dup4\n        /* \"#utility.yul\":1252:1256   */\n      0x1f\n        /* \"#utility.yul\":1244:1250   */\n      dup5\n        /* \"#utility.yul\":1240:1257   */\n      add\n        /* \"#utility.yul\":1236:1263   */\n      slt\n        /* \"#utility.yul\":1226:1348   */\n      tag_76\n      jumpi\n        /* \"#utility.yul\":1267:1346   */\n      tag_77\n      tag_32\n      jump\t// in\n    tag_77:\n        /* \"#utility.yul\":1226:1348   */\n    tag_76:\n        /* \"#utility.yul\":1380:1386   */\n      dup3\n        /* \"#utility.yul\":1367:1387   */\n      calldataload\n        /* \"#utility.yul\":1357:1387   */\n      swap1\n      pop\n        /* \"#utility.yul\":1410:1428   */\n      0xffffffffffffffff\n        /* \"#utility.yul\":1402:1408   */\n      dup2\n        /* \"#utility.yul\":1399:1429   */\n      gt\n        /* \"#utility.yul\":1396:1513   */\n      iszero\n      tag_78\n      jumpi\n        /* \"#utility.yul\":1432:1511   */\n      tag_79\n      tag_33\n      jump\t// in\n    tag_79:\n        /* \"#utility.yul\":1396:1513   */\n    tag_78:\n        /* \"#utility.yul\":1546:1550   */\n      0x20\n        /* \"#utility.yul\":1538:1544   */\n      dup4\n        /* \"#utility.yul\":1534:1551   */\n      add\n        /* \"#utility.yul\":1522:1551   */\n      swap2\n      pop\n        /* \"#utility.yul\":1600:1603   */\n      dup4\n        /* \"#utility.yul\":1592:1596   */\n      0x01\n        /* \"#utility.yul\":1584:1590   */\n      dup3\n        /* \"#utility.yul\":1580:1597   */\n      mul\n        /* \"#utility.yul\":1570:1578   */\n      dup4\n        /* \"#utility.yul\":1566:1598   */\n      add\n        /* \"#utility.yul\":1563:1604   */\n      gt\n        /* \"#utility.yul\":1560:1688   */\n      iszero\n      tag_80\n      jumpi\n        /* \"#utility.yul\":1607:1686   */\n      tag_81\n      tag_34\n      jump\t// in\n    tag_81:\n        /* \"#utility.yul\":1560:1688   */\n    tag_80:\n        /* \"#utility.yul\":1141:1694   */\n      swap3\n      pop\n      swap3\n      swap1\n      pop\n      jump\t// out\n        /* \"#utility.yul\":1700:2372   */\n    tag_7:\n        /* \"#utility.yul\":1779:1785   */\n      0x00\n        /* \"#utility.yul\":1787:1793   */\n      dup1\n        /* \"#utility.yul\":1795:1801   */\n      0x00\n        /* \"#utility.yul\":1844:1846   */\n      0x40\n        /* \"#utility.yul\":1832:1841   */\n      dup5\n        /* \"#utility.yul\":1823:1830   */\n      dup7\n        /* \"#utility.yul\":1819:1842   */\n      sub\n        /* \"#utility.yul\":1815:1847   */\n      slt\n        /* \"#utility.yul\":1812:1931   */\n      iszero\n      tag_83\n      jumpi\n        /* \"#utility.yul\":1850:1929   */\n      tag_84\n      tag_27\n      jump\t// in\n    tag_84:\n        /* \"#utility.yul\":1812:1931   */\n    tag_83:\n        /* \"#utility.yul\":1970:1971   */\n      0x00\n        /* \"#utility.yul\":1995:2047   */\n      tag_85\n        /* \"#utility.yul\":2039:2046   */\n      dup7\n        /* \"#utility.yul\":2030:2036   */\n      dup3\n        /* \"#utility.yul\":2019:2028   */\n      dup8\n        /* \"#utility.yul\":2015:2037   */\n      add\n        /* \"#utility.yul\":1995:2047   */\n      tag_31\n      jump\t// in\n    tag_85:\n        /* \"#utility.yul\":1985:2047   */\n      swap4\n      pop\n        /* \"#utility.yul\":1941:2057   */\n      pop\n        /* \"#utility.yul\":2124:2126   */\n      0x20\n        /* \"#utility.yul\":2113:2122   */\n      dup5\n        /* \"#utility.yul\":2109:2127   */\n      add\n        /* \"#utility.yul\":2096:2128   */\n      calldataload\n        /* \"#utility.yul\":2155:2173   */\n      0xffffffffffffffff\n        /* \"#utility.yul\":2147:2153   */\n      dup2\n        /* \"#utility.yul\":2144:2174   */\n      gt\n        /* \"#utility.yul\":2141:2258   */\n      iszero\n      tag_86\n      jumpi\n        /* \"#utility.yul\":2177:2256   */\n      tag_87\n      tag_28\n      jump\t// in\n    tag_87:\n        /* \"#utility.yul\":2141:2258   */\n    tag_86:\n        /* \"#utility.yul\":2290:2355   */\n      tag_88\n        /* \"#utility.yul\":2347:2354   */\n      dup7\n        /* \"#utility.yul\":2338:2344   */\n      dup3\n        /* \"#utility.yul\":2327:2336   */\n      dup8\n        /* \"#utility.yul\":2323:2345   */\n      add\n        /* \"#utility.yul\":2290:2355   */\n      tag_35\n      jump\t// in\n    tag_88:\n        /* \"#utility.yul\":2272:2355   */\n      swap3\n      pop\n      swap3\n      pop\n        /* \"#utility.yul\":2067:2365   */\n      pop\n        /* \"#utility.yul\":1700:2372   */\n      swap3\n      pop\n      swap3\n      pop\n      swap3\n      jump\t// out\n        /* \"#utility.yul\":2378:2705   */\n    tag_11:\n        /* \"#utility.yul\":2436:2442   */\n      0x00\n        /* \"#utility.yul\":2485:2487   */\n      0x20\n        /* \"#utility.yul\":2473:2482   */\n      dup3\n        /* \"#utility.yul\":2464:2471   */\n      dup5\n        /* \"#utility.yul\":2460:2483   */\n      sub\n        /* \"#utility.yul\":2456:2488   */\n      slt\n        /* \"#utility.yul\":2453:2572   */\n      iszero\n      tag_90\n      jumpi\n        /* \"#utility.yul\":2491:2570   */\n      tag_91\n      tag_27\n      jump\t// in\n    tag_91:\n        /* \"#utility.yul\":2453:2572   */\n    tag_90:\n        /* \"#utility.yul\":2611:2612   */\n      0x00\n        /* \"#utility.yul\":2636:2688   */\n      tag_92\n        /* \"#utility.yul\":2680:2687   */\n      dup5\n        /* \"#utility.yul\":2671:2677   */\n      dup3\n        /* \"#utility.yul\":2660:2669   */\n      dup6\n        /* \"#utility.yul\":2656:2678   */\n      add\n        /* \"#utility.yul\":2636:2688   */\n      tag_31\n      jump\t// in\n    tag_92:\n        /* \"#utility.yul\":2626:2688   */\n      swap2\n      pop\n        /* \"#utility.yul\":2582:2698   */\n      pop\n        /* \"#utility.yul\":2378:2705   */\n      swap3\n      swap2\n      pop\n      pop\n      jump\t// out\n        /* \"#utility.yul\":2711:2810   */\n    tag_36:\n        /* \"#utility.yul\":2763:2769   */\n      0x00\n        /* \"#utility.yul\":2797:2802   */\n      dup2\n        /* \"#utility.yul\":2791:2803   */\n      mload\n        /* \"#utility.yul\":2781:2803   */\n      swap1\n      pop\n        /* \"#utility.yul\":2711:2810   */\n      swap2\n      swap1\n      pop\n      jump\t// out\n        /* \"#utility.yul\":2816:2985   */\n    tag_37:\n        /* \"#utility.yul\":2900:2911   */\n      0x00\n        /* \"#utility.yul\":2934:2940   */\n      dup3\n        /* \"#utility.yul\":2929:2932   */\n      dup3\n        /* \"#utility.yul\":2922:2941   */\n      mstore\n        /* \"#utility.yul\":2974:2978   */\n      0x20\n        /* \"#utility.yul\":2969:2972   */\n      dup3\n        /* \"#utility.yul\":2965:2979   */\n      add\n        /* \"#utility.yul\":2950:2979   */\n      swap1\n      pop\n        /* \"#utility.yul\":2816:2985   */\n      swap3\n      swap2\n      pop\n      pop\n      jump\t// out\n        /* \"#utility.yul\":2991:3130   */\n    tag_38:\n        /* \"#utility.yul\":3080:3086   */\n      dup3\n        /* \"#utility.yul\":3075:3078   */\n      dup2\n        /* \"#utility.yul\":3070:3073   */\n      dup4\n        /* \"#utility.yul\":3064:3087   */\n      mcopy\n        /* \"#utility.yul\":3121:3122   */\n      0x00\n        /* \"#utility.yul\":3112:3118   */\n      dup4\n        /* \"#utility.yul\":3107:3110   */\n      dup4\n        /* \"#utility.yul\":3103:3119   */\n      add\n        /* \"#utility.yul\":3096:3123   */\n      mstore\n        /* \"#utility.yul\":2991:3130   */\n      pop\n      pop\n      pop\n      jump\t// out\n        /* \"#utility.yul\":3136:3238   */\n    tag_39:\n        /* \"#utility.yul\":3177:3183   */\n      0x00\n        /* \"#utility.yul\":3228:3230   */\n      0x1f\n        /* \"#utility.yul\":3224:3231   */\n      not\n        /* \"#utility.yul\":3219:3221   */\n      0x1f\n        /* \"#utility.yul\":3212:3217   */\n      dup4\n        /* \"#utility.yul\":3208:3222   */\n      add\n        /* \"#utility.yul\":3204:3232   */\n      and\n        /* \"#utility.yul\":3194:3232   */\n      swap1\n      pop\n        /* \"#utility.yul\":3136:3238   */\n      swap2\n      swap1\n      pop\n      jump\t// out\n        /* \"#utility.yul\":3244:3621   */\n    tag_40:\n        /* \"#utility.yul\":3332:3335   */\n      0x00\n        /* \"#utility.yul\":3360:3399   */\n      tag_98\n        /* \"#utility.yul\":3393:3398   */\n      dup3\n        /* \"#utility.yul\":3360:3399   */\n      tag_36\n      jump\t// in\n    tag_98:\n        /* \"#utility.yul\":3415:3486   */\n      tag_99\n        /* \"#utility.yul\":3479:3485   */\n      dup2\n        /* \"#utility.yul\":3474:3477   */\n      dup6\n        /* \"#utility.yul\":3415:3486   */\n      tag_37\n      jump\t// in\n    tag_99:\n        /* \"#utility.yul\":3408:3486   */\n      swap4\n      pop\n        /* \"#utility.yul\":3495:3560   */\n      tag_100\n        /* \"#utility.yul\":3553:3559   */\n      dup2\n        /* \"#utility.yul\":3548:3551   */\n      dup6\n        /* \"#utility.yul\":3541:3545   */\n      0x20\n        /* \"#utility.yul\":3534:3539   */\n      dup7\n        /* \"#utility.yul\":3530:3546   */\n      add\n        /* \"#utility.yul\":3495:3560   */\n      tag_38\n      jump\t// in\n    tag_100:\n        /* \"#utility.yul\":3585:3614   */\n      tag_101\n        /* \"#utility.yul\":3607:3613   */\n      dup2\n        /* \"#utility.yul\":3585:3614   */\n      tag_39\n      jump\t// in\n    tag_101:\n        /* \"#utility.yul\":3580:3583   */\n      dup5\n        /* \"#utility.yul\":3576:3615   */\n      add\n        /* \"#utility.yul\":3569:3615   */\n      swap2\n      pop\n        /* \"#utility.yul\":3336:3621   */\n      pop\n        /* \"#utility.yul\":3244:3621   */\n      swap3\n      swap2\n      pop\n      pop\n      jump\t// out\n        /* \"#utility.yul\":3627:3940   */\n    tag_14:\n        /* \"#utility.yul\":3740:3744   */\n      0x00\n        /* \"#utility.yul\":3778:3780   */\n      0x20\n        /* \"#utility.yul\":3767:3776   */\n      dup3\n        /* \"#utility.yul\":3763:3781   */\n      add\n        /* \"#utility.yul\":3755:3781   */\n      swap1\n      pop\n        /* \"#utility.yul\":3827:3836   */\n      dup2\n        /* \"#utility.yul\":3821:3825   */\n      dup2\n        /* \"#utility.yul\":3817:3837   */\n      sub\n        /* \"#utility.yul\":3813:3814   */\n      0x00\n        /* \"#utility.yul\":3802:3811   */\n      dup4\n        /* \"#utility.yul\":3798:3815   */\n      add\n        /* \"#utility.yul\":3791:3838   */\n      mstore\n        /* \"#utility.yul\":3855:3933   */\n      tag_103\n        /* \"#utility.yul\":3928:3932   */\n      dup2\n        /* \"#utility.yul\":3919:3925   */\n      dup5\n        /* \"#utility.yul\":3855:3933   */\n      tag_40\n      jump\t// in\n    tag_103:\n        /* \"#utility.yul\":3847:3933   */\n      swap1\n      pop\n        /* \"#utility.yul\":3627:3940   */\n      swap3\n      swap2\n      pop\n      pop\n      jump\t// out\n        /* \"#utility.yul\":3946:4043   */\n    tag_41:\n        /* \"#utility.yul\":4005:4011   */\n      0x00\n        /* \"#utility.yul\":4033:4036   */\n      dup3\n        /* \"#utility.yul\":4023:4036   */\n      swap1\n      pop\n        /* \"#utility.yul\":3946:4043   */\n      swap3\n      swap2\n      pop\n      pop\n      jump\t// out\n        /* \"#utility.yul\":4049:4229   */\n    tag_42:\n        /* \"#utility.yul\":4097:4174   */\n      0x4e487b7100000000000000000000000000000000000000000000000000000000\n        /* \"#utility.yul\":4094:4095   */\n      0x00\n        /* \"#utility.yul\":4087:4175   */\n      mstore\n        /* \"#utility.yul\":4194:4198   */\n      0x41\n        /* \"#utility.yul\":4191:4192   */\n      0x04\n        /* \"#utility.yul\":4184:4199   */\n      mstore\n        /* \"#utility.yul\":4218:4222   */\n      0x24\n        /* \"#utility.yul\":4215:4216   */\n      0x00\n        /* \"#utility.yul\":4208:4223   */\n      revert\n        /* \"#utility.yul\":4235:4415   */\n    tag_43:\n        /* \"#utility.yul\":4283:4360   */\n      0x4e487b7100000000000000000000000000000000000000000000000000000000\n        /* \"#utility.yul\":4280:4281   */\n      0x00\n        /* \"#utility.yul\":4273:4361   */\n      mstore\n        /* \"#utility.yul\":4380:4384   */\n      0x22\n        /* \"#utility.yul\":4377:4378   */\n      0x04\n        /* \"#utility.yul\":4370:4385   */\n      mstore\n        /* \"#utility.yul\":4404:4408   */\n      0x24\n        /* \"#utility.yul\":4401:4402   */\n      0x00\n        /* \"#utility.yul\":4394:4409   */\n      revert\n        /* \"#utility.yul\":4421:4741   */\n    tag_21:\n        /* \"#utility.yul\":4465:4471   */\n      0x00\n        /* \"#utility.yul\":4502:4503   */\n      0x02\n        /* \"#utility.yul\":4496:4500   */\n      dup3\n        /* \"#utility.yul\":4492:4504   */\n      div\n        /* \"#utility.yul\":4482:4504   */\n      swap1\n      pop\n        /* \"#utility.yul\":4549:4550   */\n      0x01\n        /* \"#utility.yul\":4543:4547   */\n      dup3\n        /* \"#utility.yul\":4539:4551   */\n      and\n        /* \"#utility.yul\":4570:4588   */\n      dup1\n        /* \"#utility.yul\":4560:4641   */\n      tag_108\n      jumpi\n        /* \"#utility.yul\":4626:4630   */\n      0x7f\n        /* \"#utility.yul\":4618:4624   */\n      dup3\n        /* \"#utility.yul\":4614:4631   */\n      and\n        /* \"#utility.yul\":4604:4631   */\n      swap2\n      pop\n        /* \"#utility.yul\":4560:4641   */\n    tag_108:\n        /* \"#utility.yul\":4688:4690   */\n      0x20\n        /* \"#utility.yul\":4680:4686   */\n      dup3\n        /* \"#utility.yul\":4677:4691   */\n      lt\n        /* \"#utility.yul\":4657:4675   */\n      dup2\n        /* \"#utility.yul\":4654:4692   */\n      sub\n        /* \"#utility.yul\":4651:4735   */\n      tag_109\n      jumpi\n        /* \"#utility.yul\":4707:4725   */\n      tag_110\n      tag_43\n      jump\t// in\n    tag_110:\n        /* \"#utility.yul\":4651:4735   */\n    tag_109:\n        /* \"#utility.yul\":4472:4741   */\n      pop\n        /* \"#utility.yul\":4421:4741   */\n      swap2\n      swap1\n      pop\n      jump\t// out\n        /* \"#utility.yul\":4747:4888   */\n    tag_44:\n        /* \"#utility.yul\":4796:4800   */\n      0x00\n        /* \"#utility.yul\":4819:4822   */\n      dup2\n        /* \"#utility.yul\":4811:4822   */\n      swap1\n      pop\n        /* \"#utility.yul\":4842:4845   */\n      dup2\n        /* \"#utility.yul\":4839:4840   */\n      0x00\n        /* \"#utility.yul\":4832:4846   */\n      mstore\n        /* \"#utility.yul\":4876:4880   */\n      0x20\n        /* \"#utility.yul\":4873:4874   */\n      0x00\n        /* \"#utility.yul\":4863:4881   */\n      keccak256\n        /* \"#utility.yul\":4855:4881   */\n      swap1\n      pop\n        /* \"#utility.yul\":4747:4888   */\n      swap2\n      swap1\n      pop\n      jump\t// out\n        /* \"#utility.yul\":4894:4987   */\n    tag_45:\n        /* \"#utility.yul\":4931:4937   */\n      0x00\n        /* \"#utility.yul\":4978:4980   */\n      0x20\n        /* \"#utility.yul\":4973:4975   */\n      0x1f\n        /* \"#utility.yul\":4966:4971   */\n      dup4\n        /* \"#utility.yul\":4962:4976   */\n      add\n        /* \"#utility.yul\":4958:4981   */\n      div\n        /* \"#utility.yul\":4948:4981   */\n      swap1\n      pop\n        /* \"#utility.yul\":4894:4987   */\n      swap2\n      swap1\n      pop\n      jump\t// out\n        /* \"#utility.yul\":4993:5100   */\n    tag_46:\n        /* \"#utility.yul\":5037:5045   */\n      0x00\n        /* \"#utility.yul\":5087:5092   */\n      dup3\n        /* \"#utility.yul\":5081:5085   */\n      dup3\n        /* \"#utility.yul\":5077:5093   */\n      shl\n        /* \"#utility.yul\":5056:5093   */\n      swap1\n      pop\n        /* \"#utility.yul\":4993:5100   */\n      swap3\n      swap2\n      pop\n      pop\n      jump\t// out\n        /* \"#utility.yul\":5106:5499   */\n    tag_47:\n        /* \"#utility.yul\":5175:5181   */\n      0x00\n        /* \"#utility.yul\":5225:5226   */\n      0x08\n        /* \"#utility.yul\":5213:5223   */\n      dup4\n        /* \"#utility.yul\":5209:5227   */\n      mul\n        /* \"#utility.yul\":5248:5345   */\n      tag_115\n        /* \"#utility.yul\":5278:5344   */\n      0xffffffffffffffffffffffffffffffffffffffffffffffffffffffffffffffff\n        /* \"#utility.yul\":5267:5276   */\n      dup3\n        /* \"#utility.yul\":5248:5345   */\n      tag_46\n      jump\t// in\n    tag_115:\n        /* \"#utility.yul\":5366:5405   */\n      tag_116\n        /* \"#utility.yul\":5396:5404   */\n      dup7\n        /* \"#utility.yul\":5385:5394   */\n      dup4\n        /* \"#utility.yul\":5366:5405   */\n      tag_46\n      jump\t// in\n    tag_116:\n        /* \"#utility.yul\":5354:5405   */\n      swap6\n      pop\n        /* \"#utility.yul\":5438:5442   */\n      dup1\n        /* \"#utility.yul\":5434:5443   */\n      not\n        /* \"#utility.yul\":5427:5432   */\n      dup5\n        /* \"#utility.yul\":5423:5444   */\n      and\n        /* \"#utility.yul\":5414:5444   */\n      swap4\n      pop\n        /* \"#utility.yul\":5487:5491   */\n      dup1\n        /* \"#utility.yul\":5477:5485   */\n      dup7\n        /* \"#utility.yul\":5473:5492   */\n      and\n        /* \"#utility.yul\":5466:5471   */\n      dup5\n        /* \"#utility.yul\":5463:5493   */\n      or\n        /* \"#utility.yul\":5453:5493   */\n      swap3\n      pop\n        /* \"#utility.yul\":5182:5499   */\n      pop\n      pop\n        /* \"#utility.yul\":5106:5499   */\n      swap4\n      swap3\n      pop\n      pop\n      pop\n      jump\t// out\n        /* \"#utility.yul\":5505:5582   */\n    tag_48:\n        /* \"#utility.yul\":5542:5549   */\n      0x00\n        /* \"#utility.yul\":5571:5576   */\n      dup2\n        /* \"#utility.yul\":5560:5576   */\n      swap1\n      pop\n        /* \"#utility.yul\":5505:5582   */\n      swap2\n      swap1\n      pop\n      jump\t// out\n        /* \"#utility.yul\":5588:5648   */\n    tag_49:\n        /* \"#utility.yul\":5616:5619   */\n      0x00\n        /* \"#utility.yul\":5637:5642   */\n      dup2\n        /* \"#utility.yul\":5630:5642   */\n      swap1\n      pop\n        /* \"#utility.yul\":5588:5648   */\n      swap2\n      swap1\n      pop\n      jump\t// out\n        /* \"#utility.yul\":5654:5796   */\n    tag_50:\n        /* \"#utility.yul\":5704:5713   */\n      0x00\n        /* \"#utility.yul\":5737:5790   */\n      tag_120\n        /* \"#utility.yul\":5755:5789   */\n      tag_121\n        /* \"#utility.yul\":5764:5788   */\n      tag_122\n        /* \"#utility.yul\":5782:5787   */\n      dup5\n        /* \"#utility.yul\":5764:5788   */\n      tag_48\n      jump\t// in\n    tag_122:\n        /* \"#utility.yul\":5755:5789   */\n      tag_49\n      jump\t// in\n    tag_121:\n        /* \"#utility.yul\":5737:5790   */\n      tag_48\n      jump\t// in\n    tag_120:\n        /* \"#utility.yul\":5724:5790   */\n      swap1\n      pop\n        /* \"#utility.yul\":5654:5796   */\n      swap2\n      swap1\n      pop\n      jump\t// out\n        /* \"#utility.yul\":5802:5877   */\n    tag_51:\n        /* \"#utility.yul\":5845:5848   */\n      0x00\n        /* \"#utility.yul\":5866:5871   */\n      dup2\n        /* \"#utility.yul\":5859:5871   */\n      swap1\n      pop\n        /* \"#utility.yul\":5802:5877   */\n      swap2\n      swap1\n      pop\n      jump\t// out\n        /* \"#utility.yul\":5883:6152   */\n    tag_52:\n        /* \"#utility.yul\":5993:6032   */\n      tag_125\n        /* \"#utility.yul\":6024:6031   */\n      dup4\n        /* \"#utility.yul\":5993:6032   */\n      tag_50\n      jump\t// in\n    tag_125:\n        /* \"#utility.yul\":6054:6145   */\n      tag_126\n        /* \"#utility.yul\":6103:6144   */\n      tag_127\n        /* \"#utility.yul\":6127:6143   */\n      dup3\n        /* \"#utility.yul\":6103:6144   */\n      tag_51\n      jump\t// in\n    tag_127:\n        /* \"#utility.yul\":6095:6101   */\n      dup5\n        /* \"#utility.yul\":6088:6092   */\n      dup5\n        /* \"#utility.yul\":6082:6093   */\n      sload\n        /* \"#utility.yul\":6054:6145   */\n      tag_47\n      jump\t// in\n    tag_126:\n        /* \"#utility.yul\":6048:6052   */\n      dup3\n        /* \"#utility.yul\":6041:6146   */\n      sstore\n        /* \"#utility.yul\":5959:6152   */\n      pop\n        /* \"#utility.yul\":5883:6152   */\n      pop\n      pop\n      pop\n      jump\t// out\n        /* \"#utility.yul\":6158:6231   */\n    tag_53:\n        /* \"#utility.yul\":6203:6206   */\n      0x00\n        /* \"#utility.yul\":6158:6231   */\n      swap1\n      jump\t// out\n        /* \"#utility.yul\":6237:6426   */\n    tag_54:\n        /* \"#utility.yul\":6314:6346   */\n      tag_130\n      tag_53\n      jump\t// in\n    tag_130:\n        /* \"#utility.yul\":6355:6420   */\n      tag_131\n        /* \"#utility.yul\":6413:6419   */\n      dup2\n        /* \"#utility.yul\":6405:6411   */\n      dup5\n        /* \"#utility.yul\":6399:6403   */\n      dup5\n        /* \"#utility.yul\":6355:6420   */\n      tag_52\n      jump\t// in\n    tag_131:\n        /* \"#utility.yul\":6290:6426   */\n      pop\n        /* \"#utility.yul\":6237:6426   */\n      pop\n      pop\n      jump\t// out\n        /* \"#utility.yul\":6432:6618   */\n    tag_55:\n        /* \"#utility.yul\":6492:6612   */\n    tag_133:\n        /* \"#utility.yul\":6509:6512   */\n      dup2\n        /* \"#utility.yul\":6502:6507   */\n      dup2\n        /* \"#utility.yul\":6499:6513   */\n      lt\n        /* \"#utility.yul\":6492:6612   */\n      iszero\n      tag_135\n      jumpi\n        /* \"#utility.yul\":6563:6602   */\n      tag_136\n        /* \"#utility.yul\":6600:6601   */\n      0x00\n        /* \"#utility.yul\":6593:6598   */\n      dup3\n        /* \"#utility.yul\":6563:6602   */\n      tag_54\n      jump\t// in\n    tag_136:\n        /* \"#utility.yul\":6536:6537   */\n      0x01\n        /* \"#utility.yul\":6529:6534   */\n      dup2\n        /* \"#utility.yul\":6525:6538   */\n      add\n        /* \"#utility.yul\":6516:6538   */\n      swap1\n      pop\n        /* \"#utility.yul\":6492:6612   */\n      jump(tag_133)\n    tag_135:\n        /* \"#utility.yul\":6432:6618   */\n      pop\n      pop\n      jump\t// out\n        /* \"#utility.yul\":6624:7167   */\n    tag_56:\n        /* \"#utility.yul\":6725:6727   */\n      0x1f\n        /* \"#utility.yul\":6720:6723   */\n      dup3\n        /* \"#utility.yul\":6717:6728   */\n      gt\n        /* \"#utility.yul\":6714:7160   */\n      iszero\n      tag_138\n      jumpi\n        /* \"#utility.yul\":6759:6797   */\n      tag_139\n        /* \"#utility.yul\":6791:6796   */\n      dup2\n        /* \"#utility.yul\":6759:6797   */\n      tag_44\n      jump\t// in\n    tag_139:\n        /* \"#utility.yul\":6843:6872   */\n      tag_140\n        /* \"#utility.yul\":6861:6871   */\n      dup5\n        /* \"#utility.yul\":6843:6872   */\n      tag_45\n      jump\t// in\n    tag_140:\n        /* \"#utility.yul\":6833:6841   */\n      dup2\n        /* \"#utility.yul\":6829:6873   */\n      add\n        /* \"#utility.yul\":7026:7028   */\n      0x20\n        /* \"#utility.yul\":7014:7024   */\n      dup6\n        /* \"#utility.yul\":7011:7029   */\n      lt\n        /* \"#utility.yul\":7008:7057   */\n      iszero\n      tag_141\n      jumpi\n        /* \"#utility.yul\":7047:7055   */\n      dup2\n        /* \"#utility.yul\":7032:7055   */\n      swap1\n      pop\n        /* \"#utility.yul\":7008:7057   */\n    tag_141:\n        /* \"#utility.yul\":7070:7150   */\n      tag_142\n        /* \"#utility.yul\":7126:7148   */\n      tag_143\n        /* \"#utility.yul\":7144:7147   */\n      dup6\n        /* \"#utility.yul\":7126:7148   */\n      tag_45\n      jump\t// in\n    tag_143:\n        /* \"#utility.yul\":7116:7124   */\n      dup4\n        /* \"#utility.yul\":7112:7149   */\n      add\n        /* \"#utility.yul\":7099:7110   */\n      dup3\n        /* \"#utility.yul\":7070:7150   */\n      tag_55\n      jump\t// in\n    tag_142:\n        /* \"#utility.yul\":6729:7160   */\n      pop\n      pop\n        /* \"#utility.yul\":6714:7160   */\n    tag_138:\n        /* \"#utility.yul\":6624:7167   */\n      pop\n      pop\n      pop\n      jump\t// out\n        /* \"#utility.yul\":7173:7290   */\n    tag_57:\n        /* \"#utility.yul\":7227:7235   */\n      0x00\n        /* \"#utility.yul\":7277:7282   */\n      dup3\n        /* \"#utility.yul\":7271:7275   */\n      dup3\n        /* \"#utility.yul\":7267:7283   */\n      shr\n        /* \"#utility.yul\":7246:7283   */\n      swap1\n      pop\n        /* \"#utility.yul\":7173:7290   */\n      swap3\n      swap2\n      pop\n      pop\n      jump\t// out\n        /* \"#utility.yul\":7296:7465   */\n    tag_58:\n        /* \"#utility.yul\":7340:7346   */\n      0x00\n        /* \"#utility.yul\":7373:7424   */\n      tag_146\n        /* \"#utility.yul\":7421:7422   */\n      0x00\n        /* \"#utility.yul\":7417:7423   */\n      not\n        /* \"#utility.yul\":7409:7414   */\n      dup5\n        /* \"#utility.yul\":7406:7407   */\n      0x08\n        /* \"#utility.yul\":7402:7415   */\n      mul\n        /* \"#utility.yul\":7373:7424   */\n      tag_57\n      jump\t// in\n    tag_146:\n        /* \"#utility.yul\":7369:7425   */\n      not\n        /* \"#utility.yul\":7454:7458   */\n      dup1\n        /* \"#utility.yul\":7448:7452   */\n      dup4\n        /* \"#utility.yul\":7444:7459   */\n      and\n        /* \"#utility.yul\":7434:7459   */\n      swap2\n      pop\n        /* \"#utility.yul\":7347:7465   */\n      pop\n        /* \"#utility.yul\":7296:7465   */\n      swap3\n      swap2\n      pop\n      pop\n      jump\t// out\n        /* \"#utility.yul\":7470:7765   */\n    tag_59:\n        /* \"#utility.yul\":7546:7550   */\n      0x00\n        /* \"#utility.yul\":7692:7721   */\n      tag_148\n        /* \"#utility.yul\":7717:7720   */\n      dup4\n        /* \"#utility.yul\":7711:7715   */\n      dup4\n        /* \"#utility.yul\":7692:7721   */\n      tag_58\n      jump\t// in\n    tag_148:\n        /* \"#utility.yul\":7684:7721   */\n      swap2\n      pop\n        /* \"#utility.yul\":7754:7757   */\n      dup3\n        /* \"#utility.yul\":7751:7752   */\n      0x02\n        /* \"#utility.yul\":7747:7758   */\n      mul\n        /* \"#utility.yul\":7741:7745   */\n      dup3\n        /* \"#utility.yul\":7738:7759   */\n      or\n        /* \"#utility.yul\":7730:7759   */\n      swap1\n      pop\n        /* \"#utility.yul\":7470:7765   */\n      swap3\n      swap2\n      pop\n      pop\n      jump\t// out\n        /* \"#utility.yul\":7770:9173   */\n    tag_17:\n        /* \"#utility.yul\":7894:7938   */\n      tag_150\n        /* \"#utility.yul\":7934:7937   */\n      dup4\n        /* \"#utility.yul\":7929:7932   */\n      dup4\n        /* \"#utility.yul\":7894:7938   */\n      tag_41\n      jump\t// in\n    tag_150:\n        /* \"#utility.yul\":8003:8021   */\n      0xffffffffffffffff\n        /* \"#utility.yul\":7995:8001   */\n      dup2\n        /* \"#utility.yul\":7992:8022   */\n      gt\n        /* \"#utility.yul\":7989:8045   */\n      iszero\n      tag_151\n      jumpi\n        /* \"#utility.yul\":8025:8043   */\n      tag_152\n      tag_42\n      jump\t// in\n    tag_152:\n        /* \"#utility.yul\":7989:8045   */\n    tag_151:\n        /* \"#utility.yul\":8069:8107   */\n      tag_153\n        /* \"#utility.yul\":8101:8105   */\n      dup3\n        /* \"#utility.yul\":8095:8106   */\n      sload\n        /* \"#utility.yul\":8069:8107   */\n      tag_21\n      jump\t// in\n    tag_153:\n        /* \"#utility.yul\":8154:8221   */\n      tag_154\n        /* \"#utility.yul\":8214:8220   */\n      dup3\n        /* \"#utility.yul\":8206:8212   */\n      dup3\n        /* \"#utility.yul\":8200:8204   */\n      dup6\n        /* \"#utility.yul\":8154:8221   */\n      tag_56\n      jump\t// in\n    tag_154:\n        /* \"#utility.yul\":8248:8249   */\n      0x00\n        /* \"#utility.yul\":8277:8279   */\n      0x1f\n        /* \"#utility.yul\":8269:8275   */\n      dup4\n        /* \"#utility.yul\":8266:8280   */\n      gt\n        /* \"#utility.yul\":8294:8295   */\n      0x01\n        /* \"#utility.yul\":8289:8921   */\n      dup2\n      eq\n      tag_156\n      jumpi\n        /* \"#utility.yul\":8965:8966   */\n      0x00\n        /* \"#utility.yul\":8982:8988   */\n      dup5\n        /* \"#utility.yul\":8979:9063   */\n      iszero\n      tag_157\n      jumpi\n        /* \"#utility.yul\":9038:9047   */\n      dup3\n        /* \"#utility.yul\":9033:9036   */\n      dup8\n        /* \"#utility.yul\":9029:9048   */\n      add\n        /* \"#utility.yul\":9016:9049   */\n      calldataload\n        /* \"#utility.yul\":9007:9049   */\n      swap1\n      pop\n        /* \"#utility.yul\":8979:9063   */\n    tag_157:\n        /* \"#utility.yul\":9089:9156   */\n      tag_158\n        /* \"#utility.yul\":9149:9155   */\n      dup6\n        /* \"#utility.yul\":9142:9147   */\n      dup3\n        /* \"#utility.yul\":9089:9156   */\n      tag_59\n      jump\t// in\n    tag_158:\n        /* \"#utility.yul\":9083:9087   */\n      dup7\n        /* \"#utility.yul\":9076:9157   */\n      sstore\n        /* \"#utility.yul\":8938:9167   */\n      pop\n        /* \"#utility.yul\":8259:9167   */\n      jump(tag_155)\n        /* \"#utility.yul\":8289:8921   */\n    tag_156:\n        /* \"#utility.yul\":8341:8345   */\n      0x1f\n        /* \"#utility.yul\":8337:8346   */\n      not\n        /* \"#utility.yul\":8329:8335   */\n      dup5\n        /* \"#utility.yul\":8325:8347   */\n      and\n        /* \"#utility.yul\":8375:8412   */\n      tag_159\n        /* \"#utility.yul\":8407:8411   */\n      dup7\n        /* \"#utility.yul\":8375:8412   */\n      tag_44\n      jump\t// in\n    tag_159:\n        /* \"#utility.yul\":8434:8435   */\n      0x00\n        /* \"#utility.yul\":8448:8663   */\n    tag_160:\n        /* \"#utility.yul\":8462:8469   */\n      dup3\n        /* \"#utility.yul\":8459:8460   */\n      dup2\n        /* \"#utility.yul\":8456:8470   */\n      lt\n        /* \"#utility.yul\":8448:8663   */\n      iszero\n      tag_162\n      jumpi\n        /* \"#utility.yul\":8548:8557   */\n      dup5\n        /* \"#utility.yul\":8543:8546   */\n      dup10\n        /* \"#utility.yul\":8539:8558   */\n      add\n        /* \"#utility.yul\":8526:8559   */\n      calldataload\n        /* \"#utility.yul\":8518:8524   */\n      dup3\n        /* \"#utility.yul\":8511:8560   */\n      sstore\n        /* \"#utility.yul\":8599:8600   */\n      0x01\n        /* \"#utility.yul\":8591:8597   */\n      dup3\n        /* \"#utility.yul\":8587:8601   */\n      add\n        /* \"#utility.yul\":8577:8601   */\n      swap2\n      pop\n        /* \"#utility.yul\":8646:8648   */\n      0x20\n        /* \"#utility.yul\":8635:8644   */\n      dup6\n        /* \"#utility.yul\":8631:8649   */\n      add\n        /* \"#utility.yul\":8618:8649   */\n      swap5\n      pop\n        /* \"#utility.yul\":8485:8489   */\n      0x20\n        /* \"#utility.yul\":8482:8483   */\n      dup2\n        /* \"#utility.yul\":8478:8490   */\n      add\n        /* \"#utility.yul\":8473:8490   */\n      swap1\n      pop\n        /* \"#utility.yul\":8448:8663   */\n      jump(tag_160)\n    tag_162:\n        /* \"#utility.yul\":8691:8697   */\n      dup7\n        /* \"#utility.yul\":8682:8689   */\n      dup4\n        /* \"#utility.yul\":8679:8698   */\n      lt\n        /* \"#utility.yul\":8676:8862   */\n      iszero\n      tag_163\n      jumpi\n        /* \"#utility.yul\":8756:8765   */\n      dup5\n        /* \"#utility.yul\":8751:8754   */\n      dup10\n        /* \"#utility.yul\":8747:8766   */\n      add\n        /* \"#utility.yul\":8734:8767   */\n      calldataload\n        /* \"#utility.yul\":8799:8847   */\n      tag_164\n        /* \"#utility.yul\":8841:8845   */\n      0x1f\n        /* \"#utility.yul\":8833:8839   */\n      dup10\n        /* \"#utility.yul\":8829:8846   */\n      and\n        /* \"#utility.yul\":8818:8827   */\n      dup3\n        /* \"#utility.yul\":8799:8847   */\n      tag_58\n      jump\t// in\n    tag_164:\n        /* \"#utility.yul\":8791:8797   */\n      dup4\n        /* \"#utility.yul\":8784:8848   */\n      sstore\n        /* \"#utility.yul\":8699:8862   */\n      pop\n        /* \"#utility.yul\":8676:8862   */\n    tag_163:\n        /* \"#utility.yul\":8908:8909   */\n      0x01\n        /* \"#utility.yul\":8904:8905   */\n      0x02\n        /* \"#utility.yul\":8896:8902   */\n      dup9\n        /* \"#utility.yul\":8892:8906   */\n      mul\n        /* \"#utility.yul\":8888:8910   */\n      add\n        /* \"#utility.yul\":8882:8886   */\n      dup9\n        /* \"#utility.yul\":8875:8911   */\n      sstore\n        /* \"#utility.yul\":8296:8921   */\n      pop\n      pop\n      pop\n        /* \"#utility.yul\":8259:9167   */\n    tag_155:\n      pop\n        /* \"#utility.yul\":7869:9173   */\n      pop\n      pop\n      pop\n        /* \"#utility.yul\":7770:9173   */\n      pop\n      pop\n      pop\n      jump\t// out\n        /* \"#utility.yul\":9179:9327   */\n    tag_60:\n        /* \"#utility.yul\":9277:9283   */\n      dup3\n        /* \"#utility.yul\":9272:9275   */\n      dup2\n        /* \"#utility.yul\":9267:9270   */\n      dup4\n        /* \"#utility.yul\":9254:9284   */\n      calldatacopy\n        /* \"#utility.yul\":9318:9319   */\n      0x00\n        /* \"#utility.yul\":9309:9315   */\n      dup4\n        /* \"#utility.yul\":9304:9307   */\n      dup4\n        /* \"#utility.yul\":9300:9316   */\n      add\n        /* \"#utility.yul\":9293:9320   */\n      mstore\n        /* \"#utility.yul\":9179:9327   */\n      pop\n      pop\n      pop\n      jump\t// out\n        /* \"#utility.yul\":9357:9674   */\n    tag_61:\n        /* \"#utility.yul\":9455:9458   */\n      0x00\n        /* \"#utility.yul\":9476:9547   */\n      tag_167\n        /* \"#utility.yul\":9540:9546   */\n      dup4\n        /* \"#utility.yul\":9535:9538   */\n      dup6\n        /* \"#utility.yul\":9476:9547   */\n      tag_37\n      jump\t// in\n    tag_167:\n        /* \"#utility.yul\":9469:9547   */\n      swap4\n      pop\n        /* \"#utility.yul\":9557:9613   */\n      tag_168\n        /* \"#utility.yul\":9606:9612   */\n      dup4\n        /* \"#utility.yul\":9601:9604   */\n      dup6\n        /* \"#utility.yul\":9594:9599   */\n      dup5\n        /* \"#utility.yul\":9557:9613   */\n      tag_60\n      jump\t// in\n    tag_168:\n        /* \"#utility.yul\":9638:9667   */\n      tag_169\n        /* \"#utility.yul\":9660:9666   */\n      dup4\n        /* \"#utility.yul\":9638:9667   */\n      tag_39\n      jump\t// in\n    tag_169:\n        /* \"#utility.yul\":9633:9636   */\n      dup5\n        /* \"#utility.yul\":9629:9668   */\n      add\n        /* \"#utility.yul\":9622:9668   */\n      swap1\n      pop\n        /* \"#utility.yul\":9357:9674   */\n      swap4\n      swap3\n      pop\n      pop\n      pop\n      jump\t// out\n        /* \"#utility.yul\":9680:10013   */\n    tag_19:\n        /* \"#utility.yul\":9803:9807   */\n      0x00\n        /* \"#utility.yul\":9841:9843   */\n      0x20\n        /* \"#utility.yul\":9830:9839   */\n      dup3\n        /* \"#utility.yul\":9826:9844   */\n      add\n        /* \"#utility.yul\":9818:9844   */\n      swap1\n      pop\n        /* \"#utility.yul\":9890:9899   */\n      dup2\n        /* \"#utility.yul\":9884:9888   */\n      dup2\n        /* \"#utility.yul\":9880:9900   */\n      sub\n        /* \"#utility.yul\":9876:9877   */\n      0x00\n        /* \"#utility.yul\":9865:9874   */\n      dup4\n        /* \"#utility.yul\":9861:9878   */\n      add\n        /* \"#utility.yul\":9854:9901   */\n      mstore\n        /* \"#utility.yul\":9918:10006   */\n      tag_171\n        /* \"#utility.yul\":10001:10005   */\n      dup2\n        /* \"#utility.yul\":9992:9998   */\n      dup5\n        /* \"#utility.yul\":9984:9990   */\n      dup7\n        /* \"#utility.yul\":9918:10006   */\n      tag_61\n      jump\t// in\n    tag_171:\n        /* \"#utility.yul\":9910:10006   */\n      swap1\n      pop\n        /* \"#utility.yul\":9680:10013   */\n      swap4\n      swap3\n      pop\n      pop\n      pop\n      jump\t// out\n\n    auxdata: 0xa2646970667358221220528622ef513b95d336ad7fbd812701e28f5e2145daecd1d6332393f04c653b4764736f6c634300081a0033\n}\n",
				"bytecode": {
					"linkReferences": {},
					"object": "6080604052348015600e575f80fd5b506107498061001c5f395ff3fe608060405234801561000f575f80fd5b5060043610610034575f3560e01c8063a08475e414610038578063a6027ed814610054575b5f80fd5b610052600480360381019061004d9190610298565b610084565b005b61006e600480360381019061006991906102f5565b610140565b60405161007b9190610390565b60405180910390f35b81815f80867bffffffffffffffffffffffffffffffffffffffffffffffffffffffff19167bffffffffffffffffffffffffffffffffffffffffffffffffffffffff191681526020019081526020015f2091826100e19291906105ea565b50827bffffffffffffffffffffffffffffffffffffffffffffffffffffffff19167f6ddc412b2ab94334271203de03dae6a9042d0d45072b4ff5684c6ae023749c0783836040516101339291906106f1565b60405180910390a2505050565b5f602052805f5260405f205f91509050805461015b90610414565b80601f016020809104026020016040519081016040528092919081815260200182805461018790610414565b80156101d25780601f106101a9576101008083540402835291602001916101d2565b820191905f5260205f20905b8154815290600101906020018083116101b557829003601f168201915b505050505081565b5f80fd5b5f80fd5b5f7fffffffff0000000000000000000000000000000000000000000000000000000082169050919050565b610216816101e2565b8114610220575f80fd5b50565b5f813590506102318161020d565b92915050565b5f80fd5b5f80fd5b5f80fd5b5f8083601f84011261025857610257610237565b5b8235905067ffffffffffffffff8111156102755761027461023b565b5b6020830191508360018202830111156102915761029061023f565b5b9250929050565b5f805f604084860312156102af576102ae6101da565b5b5f6102bc86828701610223565b935050602084013567ffffffffffffffff8111156102dd576102dc6101de565b5b6102e986828701610243565b92509250509250925092565b5f6020828403121561030a576103096101da565b5b5f61031784828501610223565b91505092915050565b5f81519050919050565b5f82825260208201905092915050565b8281835e5f83830152505050565b5f601f19601f8301169050919050565b5f61036282610320565b61036c818561032a565b935061037c81856020860161033a565b61038581610348565b840191505092915050565b5f6020820190508181035f8301526103a88184610358565b905092915050565b5f82905092915050565b7f4e487b71000000000000000000000000000000000000000000000000000000005f52604160045260245ffd5b7f4e487b71000000000000000000000000000000000000000000000000000000005f52602260045260245ffd5b5f600282049050600182168061042b57607f821691505b60208210810361043e5761043d6103e7565b5b50919050565b5f819050815f5260205f209050919050565b5f6020601f8301049050919050565b5f82821b905092915050565b5f600883026104a07fffffffffffffffffffffffffffffffffffffffffffffffffffffffffffffffff82610465565b6104aa8683610465565b95508019841693508086168417925050509392505050565b5f819050919050565b5f819050919050565b5f6104ee6104e96104e4846104c2565b6104cb565b6104c2565b9050919050565b5f819050919050565b610507836104d4565b61051b610513826104f5565b848454610471565b825550505050565b5f90565b61052f610523565b61053a8184846104fe565b505050565b5b8181101561055d576105525f82610527565b600181019050610540565b5050565b601f8211156105a25761057381610444565b61057c84610456565b8101602085101561058b578190505b61059f61059785610456565b83018261053f565b50505b505050565b5f82821c905092915050565b5f6105c25f19846008026105a7565b1980831691505092915050565b5f6105da83836105b3565b9150826002028217905092915050565b6105f483836103b0565b67ffffffffffffffff81111561060d5761060c6103ba565b5b6106178254610414565b610622828285610561565b5f601f83116001811461064f575f841561063d578287013590505b61064785826105cf565b8655506106ae565b601f19841661065d86610444565b5f5b828110156106845784890135825560018201915060208501945060208101905061065f565b868310156106a1578489013561069d601f8916826105b3565b8355505b6001600288020188555050505b50505050505050565b828183375f83830152505050565b5f6106d0838561032a565b93506106dd8385846106b7565b6106e683610348565b840190509392505050565b5f6020820190508181035f83015261070a8184866106c5565b9050939250505056fea2646970667358221220528622ef513b95d336ad7fbd812701e28f5e2145daecd1d6332393f04c653b4764736f6c634300081a0033",
					"opcodes": "PUSH1 0x80 PUSH1 0x40 MSTORE CALLVALUE DUP1 ISZERO PUSH1 0xE JUMPI PUSH0 DUP1 REVERT JUMPDEST POP PUSH2 0x749 DUP1 PUSH2 0x1C PUSH0 CODECOPY PUSH0 RETURN INVALID PUSH1 0x80 PUSH1 0x40 MSTORE CALLVALUE DUP1 ISZERO PUSH2 0xF JUMPI PUSH0 DUP1 REVERT JUMPDEST POP PUSH1 0x4 CALLDATASIZE LT PUSH2 0x34 JUMPI PUSH0 CALLDATALOAD PUSH1 0xE0 SHR DUP1 PUSH4 0xA08475E4 EQ PUSH2 0x38 JUMPI DUP1 PUSH4 0xA6027ED8 EQ PUSH2 0x54 JUMPI JUMPDEST PUSH0 DUP1 REVERT JUMPDEST PUSH2 0x52 PUSH1 0x4 DUP1 CALLDATASIZE SUB DUP2 ADD SWAP1 PUSH2 0x4D SWAP2 SWAP1 PUSH2 0x298 JUMP JUMPDEST PUSH2 0x84 JUMP JUMPDEST STOP JUMPDEST PUSH2 0x6E PUSH1 0x4 DUP1 CALLDATASIZE SUB DUP2 ADD SWAP1 PUSH2 0x69 SWAP2 SWAP1 PUSH2 0x2F5 JUMP JUMPDEST PUSH2 0x140 JUMP JUMPDEST PUSH1 0x40 MLOAD PUSH2 0x7B SWAP2 SWAP1 PUSH2 0x390 JUMP JUMPDEST PUSH1 0x40 MLOAD DUP1 SWAP2 SUB SWAP1 RETURN JUMPDEST DUP2 DUP2 PUSH0 DUP1 DUP7 PUSH28 0xFFFFFFFFFFFFFFFFFFFFFFFFFFFFFFFFFFFFFFFFFFFFFFFFFFFFFFFF NOT AND PUSH28 0xFFFFFFFFFFFFFFFFFFFFFFFFFFFFFFFFFFFFFFFFFFFFFFFFFFFFFFFF NOT AND DUP2 MSTORE PUSH1 0x20 ADD SWAP1 DUP2 MSTORE PUSH1 0x20 ADD PUSH0 KECCAK256 SWAP2 DUP3 PUSH2 0xE1 SWAP3 SWAP2 SWAP1 PUSH2 0x5EA JUMP JUMPDEST POP DUP3 PUSH28 0xFFFFFFFFFFFFFFFFFFFFFFFFFFFFFFFFFFFFFFFFFFFFFFFFFFFFFFFF NOT AND PUSH32 0x6DDC412B2AB94334271203DE03DAE6A9042D0D45072B4FF5684C6AE023749C07 DUP4 DUP4 PUSH1 0x40 MLOAD PUSH2 0x133 SWAP3 SWAP2 SWAP1 PUSH2 0x6F1 JUMP JUMPDEST PUSH1 0x40 MLOAD DUP1 SWAP2 SUB SWAP1 LOG2 POP POP POP JUMP JUMPDEST PUSH0 PUSH1 0x20 MSTORE DUP1 PUSH0 MSTORE PUSH1 0x40 PUSH0 KECCAK256 PUSH0 SWAP2 POP SWAP1 POP DUP1 SLOAD PUSH2 0x15B SWAP1 PUSH2 0x414 JUMP JUMPDEST DUP1 PUSH1 0x1F ADD PUSH1 0x20 DUP1 SWAP2 DIV MUL PUSH1 0x20 ADD PUSH1 0x40 MLOAD SWAP1 DUP2 ADD PUSH1 0x40 MSTORE DUP1 SWAP3 SWAP2 SWAP1 DUP2 DUP2 MSTORE PUSH1 0x20 ADD DUP3 DUP1 SLOAD PUSH2 0x187 SWAP1 PUSH2 0x414 JUMP JUMPDEST DUP1 ISZERO PUSH2 0x1D2 JUMPI DUP1 PUSH1 0x1F LT PUSH2 0x1A9 JUMPI PUSH2 0x100 DUP1 DUP4 SLOAD DIV MUL DUP4 MSTORE SWAP2 PUSH1 0x20 ADD SWAP2 PUSH2 0x1D2 JUMP JUMPDEST DUP3 ADD SWAP2 SWAP1 PUSH0 MSTORE PUSH1 0x20 PUSH0 KECCAK256 SWAP1 JUMPDEST DUP2 SLOAD DUP2 MSTORE SWAP1 PUSH1 0x1 ADD SWAP1 PUSH1 0x20 ADD DUP1 DUP4 GT PUSH2 0x1B5 JUMPI DUP3 SWAP1 SUB PUSH1 0x1F AND DUP3 ADD SWAP2 JUMPDEST POP POP POP POP POP DUP2 JUMP JUMPDEST PUSH0 DUP1 REVERT JUMPDEST PUSH0 DUP1 REVERT JUMPDEST PUSH0 PUSH32 0xFFFFFFFF00000000000000000000000000000000000000000000000000000000 DUP3 AND SWAP1 POP SWAP2 SWAP1 POP JUMP JUMPDEST PUSH2 0x216 DUP2 PUSH2 0x1E2 JUMP JUMPDEST DUP2 EQ PUSH2 0x220 JUMPI PUSH0 DUP1 REVERT JUMPDEST POP JUMP JUMPDEST PUSH0 DUP2 CALLDATALOAD SWAP1 POP PUSH2 0x231 DUP2 PUSH2 0x20D JUMP JUMPDEST SWAP3 SWAP2 POP POP JUMP JUMPDEST PUSH0 DUP1 REVERT JUMPDEST PUSH0 DUP1 REVERT JUMPDEST PUSH0 DUP1 REVERT JUMPDEST PUSH0 DUP1 DUP4 PUSH1 0x1F DUP5 ADD SLT PUSH2 0x258 JUMPI PUSH2 0x257 PUSH2 0x237 JUMP JUMPDEST JUMPDEST DUP3 CALLDATALOAD SWAP1 POP PUSH8 0xFFFFFFFFFFFFFFFF DUP2 GT ISZERO PUSH2 0x275 JUMPI PUSH2 0x274 PUSH2 0x23B JUMP JUMPDEST JUMPDEST PUSH1 0x20 DUP4 ADD SWAP2 POP DUP4 PUSH1 0x1 DUP3 MUL DUP4 ADD GT ISZERO PUSH2 0x291 JUMPI PUSH2 0x290 PUSH2 0x23F JUMP JUMPDEST JUMPDEST SWAP3 POP SWAP3 SWAP1 POP JUMP JUMPDEST PUSH0 DUP1 PUSH0 PUSH1 0x40 DUP5 DUP7 SUB SLT ISZERO PUSH2 0x2AF JUMPI PUSH2 0x2AE PUSH2 0x1DA JUMP JUMPDEST JUMPDEST PUSH0 PUSH2 0x2BC DUP7 DUP3 DUP8 ADD PUSH2 0x223 JUMP JUMPDEST SWAP4 POP POP PUSH1 0x20 DUP5 ADD CALLDATALOAD PUSH8 0xFFFFFFFFFFFFFFFF DUP2 GT ISZERO PUSH2 0x2DD JUMPI PUSH2 0x2DC PUSH2 0x1DE JUMP JUMPDEST JUMPDEST PUSH2 0x2E9 DUP7 DUP3 DUP8 ADD PUSH2 0x243 JUMP JUMPDEST SWAP3 POP SWAP3 POP POP SWAP3 POP SWAP3 POP SWAP3 JUMP JUMPDEST PUSH0 PUSH1 0x20 DUP3 DUP5 SUB SLT ISZERO PUSH2 0x30A JUMPI PUSH2 0x309 PUSH2 0x1DA JUMP JUMPDEST JUMPDEST PUSH0 PUSH2 0x317 DUP5 DUP3 DUP6 ADD PUSH2 0x223 JUMP JUMPDEST SWAP2 POP POP SWAP3 SWAP2 POP POP JUMP JUMPDEST PUSH0 DUP2 MLOAD SWAP1 POP SWAP2 SWAP1 POP JUMP JUMPDEST PUSH0 DUP3 DUP3 MSTORE PUSH1 0x20 DUP3 ADD SWAP1 POP SWAP3 SWAP2 POP POP JUMP JUMPDEST DUP3 DUP2 DUP4 MCOPY PUSH0 DUP4 DUP4 ADD MSTORE POP POP POP JUMP JUMPDEST PUSH0 PUSH1 0x1F NOT PUSH1 0x1F DUP4 ADD AND SWAP1 POP SWAP2 SWAP1 POP JUMP JUMPDEST PUSH0 PUSH2 0x362 DUP3 PUSH2 0x320 JUMP JUMPDEST PUSH2 0x36C DUP2 DUP6 PUSH2 0x32A JUMP JUMPDEST SWAP4 POP PUSH2 0x37C DUP2 DUP6 PUSH1 0x20 DUP7 ADD PUSH2 0x33A JUMP JUMPDEST PUSH2 0x385 DUP2 PUSH2 0x348 JUMP JUMPDEST DUP5 ADD SWAP2 POP POP SWAP3 SWAP2 POP POP JUMP JUMPDEST PUSH0 PUSH1 0x20 DUP3 ADD SWAP1 POP DUP2 DUP2 SUB PUSH0 DUP4 ADD MSTORE PUSH2 0x3A8 DUP2 DUP5 PUSH2 0x358 JUMP JUMPDEST SWAP1 POP SWAP3 SWAP2 POP POP JUMP JUMPDEST PUSH0 DUP3 SWAP1 POP SWAP3 SWAP2 POP POP JUMP JUMPDEST PUSH32 0x4E487B7100000000000000000000000000000000000000000000000000000000 PUSH0 MSTORE PUSH1 0x41 PUSH1 0x4 MSTORE PUSH1 0x24 PUSH0 REVERT JUMPDEST PUSH32 0x4E487B7100000000000000000000000000000000000000000000000000000000 PUSH0 MSTORE PUSH1 0x22 PUSH1 0x4 MSTORE PUSH1 0x24 PUSH0 REVERT JUMPDEST PUSH0 PUSH1 0x2 DUP3 DIV SWAP1 POP PUSH1 0x1 DUP3 AND DUP1 PUSH2 0x42B JUMPI PUSH1 0x7F DUP3 AND SWAP2 POP JUMPDEST PUSH1 0x20 DUP3 LT DUP2 SUB PUSH2 0x43E JUMPI PUSH2 0x43D PUSH2 0x3E7 JUMP JUMPDEST JUMPDEST POP SWAP2 SWAP1 POP JUMP JUMPDEST PUSH0 DUP2 SWAP1 POP DUP2 PUSH0 MSTORE PUSH1 0x20 PUSH0 KECCAK256 SWAP1 POP SWAP2 SWAP1 POP JUMP JUMPDEST PUSH0 PUSH1 0x20 PUSH1 0x1F DUP4 ADD DIV SWAP1 POP SWAP2 SWAP1 POP JUMP JUMPDEST PUSH0 DUP3 DUP3 SHL SWAP1 POP SWAP3 SWAP2 POP POP JUMP JUMPDEST PUSH0 PUSH1 0x8 DUP4 MUL PUSH2 0x4A0 PUSH32 0xFFFFFFFFFFFFFFFFFFFFFFFFFFFFFFFFFFFFFFFFFFFFFFFFFFFFFFFFFFFFFFFF DUP3 PUSH2 0x465 JUMP JUMPDEST PUSH2 0x4AA DUP7 DUP4 PUSH2 0x465 JUMP JUMPDEST SWAP6 POP DUP1 NOT DUP5 AND SWAP4 POP DUP1 DUP7 AND DUP5 OR SWAP3 POP POP POP SWAP4 SWAP3 POP POP POP JUMP JUMPDEST PUSH0 DUP2 SWAP1 POP SWAP2 SWAP1 POP JUMP JUMPDEST PUSH0 DUP2 SWAP1 POP SWAP2 SWAP1 POP JUMP JUMPDEST PUSH0 PUSH2 0x4EE PUSH2 0x4E9 PUSH2 0x4E4 DUP5 PUSH2 0x4C2 JUMP JUMPDEST PUSH2 0x4CB JUMP JUMPDEST PUSH2 0x4C2 JUMP JUMPDEST SWAP1 POP SWAP2 SWAP1 POP JUMP JUMPDEST PUSH0 DUP2 SWAP1 POP SWAP2 SWAP1 POP JUMP JUMPDEST PUSH2 0x507 DUP4 PUSH2 0x4D4 JUMP JUMPDEST PUSH2 0x51B PUSH2 0x513 DUP3 PUSH2 0x4F5 JUMP JUMPDEST DUP5 DUP5 SLOAD PUSH2 0x471 JUMP JUMPDEST DUP3 SSTORE POP POP POP POP JUMP JUMPDEST PUSH0 SWAP1 JUMP JUMPDEST PUSH2 0x52F PUSH2 0x523 JUMP JUMPDEST PUSH2 0x53A DUP2 DUP5 DUP5 PUSH2 0x4FE JUMP JUMPDEST POP POP POP JUMP JUMPDEST JUMPDEST DUP2 DUP2 LT ISZERO PUSH2 0x55D JUMPI PUSH2 0x552 PUSH0 DUP3 PUSH2 0x527 JUMP JUMPDEST PUSH1 0x1 DUP2 ADD SWAP1 POP PUSH2 0x540 JUMP JUMPDEST POP POP JUMP JUMPDEST PUSH1 0x1F DUP3 GT ISZERO PUSH2 0x5A2 JUMPI PUSH2 0x573 DUP2 PUSH2 0x444 JUMP JUMPDEST PUSH2 0x57C DUP5 PUSH2 0x456 JUMP JUMPDEST DUP2 ADD PUSH1 0x20 DUP6 LT ISZERO PUSH2 0x58B JUMPI DUP2 SWAP1 POP JUMPDEST PUSH2 0x59F PUSH2 0x597 DUP6 PUSH2 0x456 JUMP JUMPDEST DUP4 ADD DUP3 PUSH2 0x53F JUMP JUMPDEST POP POP JUMPDEST POP POP POP JUMP JUMPDEST PUSH0 DUP3 DUP3 SHR SWAP1 POP SWAP3 SWAP2 POP POP JUMP JUMPDEST PUSH0 PUSH2 0x5C2 PUSH0 NOT DUP5 PUSH1 0x8 MUL PUSH2 0x5A7 JUMP JUMPDEST NOT DUP1 DUP4 AND SWAP2 POP POP SWAP3 SWAP2 POP POP JUMP JUMPDEST PUSH0 PUSH2 0x5DA DUP4 DUP4 PUSH2 0x5B3 JUMP JUMPDEST SWAP2 POP DUP3 PUSH1 0x2 MUL DUP3 OR SWAP1 POP SWAP3 SWAP2 POP POP JUMP JUMPDEST PUSH2 0x5F4 DUP4 DUP4 PUSH2 0x3B0 JUMP JUMPDEST PUSH8 0xFFFFFFFFFFFFFFFF DUP2 GT ISZERO PUSH2 0x60D JUMPI PUSH2 0x60C PUSH2 0x3BA JUMP JUMPDEST JUMPDEST PUSH2 0x617 DUP3 SLOAD PUSH2 0x414 JUMP JUMPDEST PUSH2 0x622 DUP3 DUP3 DUP6 PUSH2 0x561 JUMP JUMPDEST PUSH0 PUSH1 0x1F DUP4 GT PUSH1 0x1 DUP2 EQ PUSH2 0x64F JUMPI PUSH0 DUP5 ISZERO PUSH2 0x63D JUMPI DUP3 DUP8 ADD CALLDATALOAD SWAP1 POP JUMPDEST PUSH2 0x647 DUP6 DUP3 PUSH2 0x5CF JUMP JUMPDEST DUP7 SSTORE POP PUSH2 0x6AE JUMP JUMPDEST PUSH1 0x1F NOT DUP5 AND PUSH2 0x65D DUP7 PUSH2 0x444 JUMP JUMPDEST PUSH0 JUMPDEST DUP3 DUP2 LT ISZERO PUSH2 0x684 JUMPI DUP5 DUP10 ADD CALLDATALOAD DUP3 SSTORE PUSH1 0x1 DUP3 ADD SWAP2 POP PUSH1 0x20 DUP6 ADD SWAP5 POP PUSH1 0x20 DUP2 ADD SWAP1 POP PUSH2 0x65F JUMP JUMPDEST DUP7 DUP4 LT ISZERO PUSH2 0x6A1 JUMPI DUP5 DUP10 ADD CALLDATALOAD PUSH2 0x69D PUSH1 0x1F DUP10 AND DUP3 PUSH2 0x5B3 JUMP JUMPDEST DUP4 SSTORE POP JUMPDEST PUSH1 0x1 PUSH1 0x2 DUP9 MUL ADD DUP9 SSTORE POP POP POP JUMPDEST POP POP POP POP POP POP POP JUMP JUMPDEST DUP3 DUP2 DUP4 CALLDATACOPY PUSH0 DUP4 DUP4 ADD MSTORE POP POP POP JUMP JUMPDEST PUSH0 PUSH2 0x6D0 DUP4 DUP6 PUSH2 0x32A JUMP JUMPDEST SWAP4 POP PUSH2 0x6DD DUP4 DUP6 DUP5 PUSH2 0x6B7 JUMP JUMPDEST PUSH2 0x6E6 DUP4 PUSH2 0x348 JUMP JUMPDEST DUP5 ADD SWAP1 POP SWAP4 SWAP3 POP POP POP JUMP JUMPDEST PUSH0 PUSH1 0x20 DUP3 ADD SWAP1 POP DUP2 DUP2 SUB PUSH0 DUP4 ADD MSTORE PUSH2 0x70A DUP2 DUP5 DUP7 PUSH2 0x6C5 JUMP JUMPDEST SWAP1 POP SWAP4 SWAP3 POP POP POP JUMP INVALID LOG2 PUSH5 0x6970667358 0x22 SLT KECCAK256 MSTORE DUP7 0x22 0xEF MLOAD EXTCODESIZE SWAP6 0xD3 CALLDATASIZE 0xAD PUSH32 0xBD812701E28F5E2145DAECD1D6332393F04C653B4764736F6C634300081A0033 "
				},
				"gasEstimates": {
					"creation": {
						"codeDepositCost": "373000",
						"executionCost": "409",
						"totalCost": "373409"
					},
					"external": {
						"guess(bytes4,string)": "infinite",
						"guesses(bytes4)": "infinite"
					}
				},
				"methodIdentifiers": {
					"guess(bytes4,string)": "a08475e4",
					"guesses(bytes4)": "a6027ed8"
				}
			},
			"storageLayout": {
				"storage": [
					{
						"astId": 4,
						"contract": "R/Reverse Engineering/ABIReconMutator1.sol:ABIReconMutator",
						"label": "guesses",
						"offset": 0,
						"slot": "0",
						"type": "t_mapping(t_bytes4,t_string_storage)"
					}
				],
				"types": {
					"t_bytes4": {
						"encoding": "inplace",
						"label": "bytes4",
						"numberOfBytes": "4"
					},
					"t_mapping(t_bytes4,t_string_storage)": {
						"encoding": "mapping",
						"key": "t_bytes4",
						"label": "mapping(bytes4 => string)",
						"numberOfBytes": "32",
						"value": "t_string_storage"
					},
					"t_string_storage": {
						"encoding": "bytes",
						"label": "string",
						"numberOfBytes": "32"
					}
				}
			},
			"userdoc": {
				"kind": "user",
				"methods": {},
				"version": 1
			}
		}
	}
}