{
	"data": {
		"bytecode": {
			"linkReferences": {},
			"object": "608060405234801561000f575f80fd5b50604051610941380380610941833981810160405281019061003191906101bd565b60015f808573ffffffffffffffffffffffffffffffffffffffff1673ffffffffffffffffffffffffffffffffffffffff1681526020019081526020015f205f6101000a81548160ff0219169083151502179055506001805f8473ffffffffffffffffffffffffffffffffffffffff1673ffffffffffffffffffffffffffffffffffffffff1681526020019081526020015f205f6101000a81548160ff021916908315150217905550600160025f8373ffffffffffffffffffffffffffffffffffffffff1673ffffffffffffffffffffffffffffffffffffffff1681526020019081526020015f205f6101000a81548160ff0219169083151502179055505f60035f6101000a81548160ff021916908360038111156101525761015161020d565b5b021790555050505061023a565b5f80fd5b5f73ffffffffffffffffffffffffffffffffffffffff82169050919050565b5f61018c82610163565b9050919050565b61019c81610182565b81146101a6575f80fd5b50565b5f815190506101b781610193565b92915050565b5f805f606084860312156101d4576101d361015f565b5b5f6101e1868287016101a9565b93505060206101f2868287016101a9565b9250506040610203868287016101a9565b9150509250925092565b7f4e487b71000000000000000000000000000000000000000000000000000000005f52602160045260245ffd5b6106fa806102475f395ff3fe608060405234801561000f575f80fd5b506004361061007b575f3560e01c8063c19d93fb11610059578063c19d93fb146100c3578063debfda30146100e1578063efc81a8c14610111578063efd460651461011b5761007b565b806312424e3f1461007f57806361461954146100895780636d218e4814610093575b5f80fd5b61008761014b565b005b61009161028f565b005b6100ad60048036038101906100a891906105da565b6103d2565b6040516100ba919061061f565b60405180910390f35b6100cb6103ef565b6040516100d891906106ab565b60405180910390f35b6100fb60048036038101906100f691906105da565b610401565b604051610108919061061f565b60405180910390f35b61011961041e565b005b610135600480360381019061013091906105da565b610560565b604051610142919061061f565b60405180910390f35b60015f3373ffffffffffffffffffffffffffffffffffffffff1673ffffffffffffffffffffffffffffffffffffffff1681526020019081526020015f205f9054906101000a900460ff166101cb576040517f82b4290000000000000000000000000000000000000000000000000000000000815260040160405180910390fd5b600160038111156101df576101de610638565b5b60035f9054906101000a900460ff166003811115610200576101ff610638565b5b14610237576040517fde4168ba00000000000000000000000000000000000000000000000000000000815260040160405180910390fd5b600260035f6101000a81548160ff0219169083600381111561025c5761025b610638565b5b02179055507f5de8e1faddeb54f5a59778c514254ea03868310d878ada71ed5118bfc800ea0d60405160405180910390a1565b60025f3373ffffffffffffffffffffffffffffffffffffffff1673ffffffffffffffffffffffffffffffffffffffff1681526020019081526020015f205f9054906101000a900460ff1661030f576040517f82b4290000000000000000000000000000000000000000000000000000000000815260040160405180910390fd5b6002600381111561032357610322610638565b5b60035f9054906101000a900460ff16600381111561034457610343610638565b5b1461037b576040517fde4168ba00000000000000000000000000000000000000000000000000000000815260040160405180910390fd5b6003805f6101000a81548160ff0219169083600381111561039f5761039e610638565b5b02179055507f68f46c45a243a0e9065a97649faf9a5afe1692f2679e650c2f853b9cd734cc0e60405160405180910390a1565b6001602052805f5260405f205f915054906101000a900460ff1681565b60035f9054906101000a900460ff1681565b6002602052805f5260405f205f915054906101000a900460ff1681565b5f803373ffffffffffffffffffffffffffffffffffffffff1673ffffffffffffffffffffffffffffffffffffffff1681526020019081526020015f205f9054906101000a900460ff1661049d576040517f82b4290000000000000000000000000000000000000000000000000000000000815260040160405180910390fd5b5f60038111156104b0576104af610638565b5b60035f9054906101000a900460ff1660038111156104d1576104d0610638565b5b14610508576040517fde4168ba00000000000000000000000000000000000000000000000000000000815260040160405180910390fd5b600160035f6101000a81548160ff0219169083600381111561052d5761052c610638565b5b02179055507f9adeddf84386b336eb7b3e18e7a6099be08fd81ea5d5142f4d2b630f8d20cf0160405160405180910390a1565b5f602052805f5260405f205f915054906101000a900460ff1681565b5f80fd5b5f73ffffffffffffffffffffffffffffffffffffffff82169050919050565b5f6105a982610580565b9050919050565b6105b98161059f565b81146105c3575f80fd5b50565b5f813590506105d4816105b0565b92915050565b5f602082840312156105ef576105ee61057c565b5b5f6105fc848285016105c6565b91505092915050565b5f8115159050919050565b61061981610605565b82525050565b5f6020820190506106325f830184610610565b92915050565b7f4e487b71000000000000000000000000000000000000000000000000000000005f52602160045260245ffd5b6004811061067657610675610638565b5b50565b5f81905061068682610665565b919050565b5f61069582610679565b9050919050565b6106a58161068b565b82525050565b5f6020820190506106be5f83018461069c565b9291505056fea2646970667358221220566d349b7fb98d9d7fe816baf18c7cd0079d87b32ae507154e9126ba9ca3715064736f6c634300081a0033",
			"opcodes": "PUSH1 0x80 PUSH1 0x40 MSTORE CALLVALUE DUP1 ISZERO PUSH2 0xF JUMPI PUSH0 DUP1 REVERT JUMPDEST POP PUSH1 0x40 MLOAD PUSH2 0x941 CODESIZE SUB DUP1 PUSH2 0x941 DUP4 CODECOPY DUP2 DUP2 ADD PUSH1 0x40 MSTORE DUP2 ADD SWAP1 PUSH2 0x31 SWAP2 SWAP1 PUSH2 0x1BD JUMP JUMPDEST PUSH1 0x1 PUSH0 DUP1 DUP6 PUSH20 0xFFFFFFFFFFFFFFFFFFFFFFFFFFFFFFFFFFFFFFFF AND PUSH20 0xFFFFFFFFFFFFFFFFFFFFFFFFFFFFFFFFFFFFFFFF AND DUP2 MSTORE PUSH1 0x20 ADD SWAP1 DUP2 MSTORE PUSH1 0x20 ADD PUSH0 KECCAK256 PUSH0 PUSH2 0x100 EXP DUP2 SLOAD DUP2 PUSH1 0xFF MUL NOT AND SWAP1 DUP4 ISZERO ISZERO MUL OR SWAP1 SSTORE POP PUSH1 0x1 DUP1 PUSH0 DUP5 PUSH20 0xFFFFFFFFFFFFFFFFFFFFFFFFFFFFFFFFFFFFFFFF AND PUSH20 0xFFFFFFFFFFFFFFFFFFFFFFFFFFFFFFFFFFFFFFFF AND DUP2 MSTORE PUSH1 0x20 ADD SWAP1 DUP2 MSTORE PUSH1 0x20 ADD PUSH0 KECCAK256 PUSH0 PUSH2 0x100 EXP DUP2 SLOAD DUP2 PUSH1 0xFF MUL NOT AND SWAP1 DUP4 ISZERO ISZERO MUL OR SWAP1 SSTORE POP PUSH1 0x1 PUSH1 0x2 PUSH0 DUP4 PUSH20 0xFFFFFFFFFFFFFFFFFFFFFFFFFFFFFFFFFFFFFFFF AND PUSH20 0xFFFFFFFFFFFFFFFFFFFFFFFFFFFFFFFFFFFFFFFF AND DUP2 MSTORE PUSH1 0x20 ADD SWAP1 DUP2 MSTORE PUSH1 0x20 ADD PUSH0 KECCAK256 PUSH0 PUSH2 0x100 EXP DUP2 SLOAD DUP2 PUSH1 0xFF MUL NOT AND SWAP1 DUP4 ISZERO ISZERO MUL OR SWAP1 SSTORE POP PUSH0 PUSH1 0x3 PUSH0 PUSH2 0x100 EXP DUP2 SLOAD DUP2 PUSH1 0xFF MUL NOT AND SWAP1 DUP4 PUSH1 0x3 DUP2 GT ISZERO PUSH2 0x152 JUMPI PUSH2 0x151 PUSH2 0x20D JUMP JUMPDEST JUMPDEST MUL OR SWAP1 SSTORE POP POP POP POP PUSH2 0x23A JUMP JUMPDEST PUSH0 DUP1 REVERT JUMPDEST PUSH0 PUSH20 0xFFFFFFFFFFFFFFFFFFFFFFFFFFFFFFFFFFFFFFFF DUP3 AND SWAP1 POP SWAP2 SWAP1 POP JUMP JUMPDEST PUSH0 PUSH2 0x18C DUP3 PUSH2 0x163 JUMP JUMPDEST SWAP1 POP SWAP2 SWAP1 POP JUMP JUMPDEST PUSH2 0x19C DUP2 PUSH2 0x182 JUMP JUMPDEST DUP2 EQ PUSH2 0x1A6 JUMPI PUSH0 DUP1 REVERT JUMPDEST POP JUMP JUMPDEST PUSH0 DUP2 MLOAD SWAP1 POP PUSH2 0x1B7 DUP2 PUSH2 0x193 JUMP JUMPDEST SWAP3 SWAP2 POP POP JUMP JUMPDEST PUSH0 DUP1 PUSH0 PUSH1 0x60 DUP5 DUP7 SUB SLT ISZERO PUSH2 0x1D4 JUMPI PUSH2 0x1D3 PUSH2 0x15F JUMP JUMPDEST JUMPDEST PUSH0 PUSH2 0x1E1 DUP7 DUP3 DUP8 ADD PUSH2 0x1A9 JUMP JUMPDEST SWAP4 POP POP PUSH1 0x20 PUSH2 0x1F2 DUP7 DUP3 DUP8 ADD PUSH2 0x1A9 JUMP JUMPDEST SWAP3 POP POP PUSH1 0x40 PUSH2 0x203 DUP7 DUP3 DUP8 ADD PUSH2 0x1A9 JUMP JUMPDEST SWAP2 POP POP SWAP3 POP SWAP3 POP SWAP3 JUMP JUMPDEST PUSH32 0x4E487B7100000000000000000000000000000000000000000000000000000000 PUSH0 MSTORE PUSH1 0x21 PUSH1 0x4 MSTORE PUSH1 0x24 PUSH0 REVERT JUMPDEST PUSH2 0x6FA DUP1 PUSH2 0x247 PUSH0 CODECOPY PUSH0 RETURN INVALID PUSH1 0x80 PUSH1 0x40 MSTORE CALLVALUE DUP1 ISZERO PUSH2 0xF JUMPI PUSH0 DUP1 REVERT JUMPDEST POP PUSH1 0x4 CALLDATASIZE LT PUSH2 0x7B JUMPI PUSH0 CALLDATALOAD PUSH1 0xE0 SHR DUP1 PUSH4 0xC19D93FB GT PUSH2 0x59 JUMPI DUP1 PUSH4 0xC19D93FB EQ PUSH2 0xC3 JUMPI DUP1 PUSH4 0xDEBFDA30 EQ PUSH2 0xE1 JUMPI DUP1 PUSH4 0xEFC81A8C EQ PUSH2 0x111 JUMPI DUP1 PUSH4 0xEFD46065 EQ PUSH2 0x11B JUMPI PUSH2 0x7B JUMP JUMPDEST DUP1 PUSH4 0x12424E3F EQ PUSH2 0x7F JUMPI DUP1 PUSH4 0x61461954 EQ PUSH2 0x89 JUMPI DUP1 PUSH4 0x6D218E48 EQ PUSH2 0x93 JUMPI JUMPDEST PUSH0 DUP1 REVERT JUMPDEST PUSH2 0x87 PUSH2 0x14B JUMP JUMPDEST STOP JUMPDEST PUSH2 0x91 PUSH2 0x28F JUMP JUMPDEST STOP JUMPDEST PUSH2 0xAD PUSH1 0x4 DUP1 CALLDATASIZE SUB DUP2 ADD SWAP1 PUSH2 0xA8 SWAP2 SWAP1 PUSH2 0x5DA JUMP JUMPDEST PUSH2 0x3D2 JUMP JUMPDEST PUSH1 0x40 MLOAD PUSH2 0xBA SWAP2 SWAP1 PUSH2 0x61F JUMP JUMPDEST PUSH1 0x40 MLOAD DUP1 SWAP2 SUB SWAP1 RETURN JUMPDEST PUSH2 0xCB PUSH2 0x3EF JUMP JUMPDEST PUSH1 0x40 MLOAD PUSH2 0xD8 SWAP2 SWAP1 PUSH2 0x6AB JUMP JUMPDEST PUSH1 0x40 MLOAD DUP1 SWAP2 SUB SWAP1 RETURN JUMPDEST PUSH2 0xFB PUSH1 0x4 DUP1 CALLDATASIZE SUB DUP2 ADD SWAP1 PUSH2 0xF6 SWAP2 SWAP1 PUSH2 0x5DA JUMP JUMPDEST PUSH2 0x401 JUMP JUMPDEST PUSH1 0x40 MLOAD PUSH2 0x108 SWAP2 SWAP1 PUSH2 0x61F JUMP JUMPDEST PUSH1 0x40 MLOAD DUP1 SWAP2 SUB SWAP1 RETURN JUMPDEST PUSH2 0x119 PUSH2 0x41E JUMP JUMPDEST STOP JUMPDEST PUSH2 0x135 PUSH1 0x4 DUP1 CALLDATASIZE SUB DUP2 ADD SWAP1 PUSH2 0x130 SWAP2 SWAP1 PUSH2 0x5DA JUMP JUMPDEST PUSH2 0x560 JUMP JUMPDEST PUSH1 0x40 MLOAD PUSH2 0x142 SWAP2 SWAP1 PUSH2 0x61F JUMP JUMPDEST PUSH1 0x40 MLOAD DUP1 SWAP2 SUB SWAP1 RETURN JUMPDEST PUSH1 0x1 PUSH0 CALLER PUSH20 0xFFFFFFFFFFFFFFFFFFFFFFFFFFFFFFFFFFFFFFFF AND PUSH20 0xFFFFFFFFFFFFFFFFFFFFFFFFFFFFFFFFFFFFFFFF AND DUP2 MSTORE PUSH1 0x20 ADD SWAP1 DUP2 MSTORE PUSH1 0x20 ADD PUSH0 KECCAK256 PUSH0 SWAP1 SLOAD SWAP1 PUSH2 0x100 EXP SWAP1 DIV PUSH1 0xFF AND PUSH2 0x1CB JUMPI PUSH1 0x40 MLOAD PUSH32 0x82B4290000000000000000000000000000000000000000000000000000000000 DUP2 MSTORE PUSH1 0x4 ADD PUSH1 0x40 MLOAD DUP1 SWAP2 SUB SWAP1 REVERT JUMPDEST PUSH1 0x1 PUSH1 0x3 DUP2 GT ISZERO PUSH2 0x1DF JUMPI PUSH2 0x1DE PUSH2 0x638 JUMP JUMPDEST JUMPDEST PUSH1 0x3 PUSH0 SWAP1 SLOAD SWAP1 PUSH2 0x100 EXP SWAP1 DIV PUSH1 0xFF AND PUSH1 0x3 DUP2 GT ISZERO PUSH2 0x200 JUMPI PUSH2 0x1FF PUSH2 0x638 JUMP JUMPDEST JUMPDEST EQ PUSH2 0x237 JUMPI PUSH1 0x40 MLOAD PUSH32 0xDE4168BA00000000000000000000000000000000000000000000000000000000 DUP2 MSTORE PUSH1 0x4 ADD PUSH1 0x40 MLOAD DUP1 SWAP2 SUB SWAP1 REVERT JUMPDEST PUSH1 0x2 PUSH1 0x3 PUSH0 PUSH2 0x100 EXP DUP2 SLOAD DUP2 PUSH1 0xFF MUL NOT AND SWAP1 DUP4 PUSH1 0x3 DUP2 GT ISZERO PUSH2 0x25C JUMPI PUSH2 0x25B PUSH2 0x638 JUMP JUMPDEST JUMPDEST MUL OR SWAP1 SSTORE POP PUSH32 0x5DE8E1FADDEB54F5A59778C514254EA03868310D878ADA71ED5118BFC800EA0D PUSH1 0x40 MLOAD PUSH1 0x40 MLOAD DUP1 SWAP2 SUB SWAP1 LOG1 JUMP JUMPDEST PUSH1 0x2 PUSH0 CALLER PUSH20 0xFFFFFFFFFFFFFFFFFFFFFFFFFFFFFFFFFFFFFFFF AND PUSH20 0xFFFFFFFFFFFFFFFFFFFFFFFFFFFFFFFFFFFFFFFF AND DUP2 MSTORE PUSH1 0x20 ADD SWAP1 DUP2 MSTORE PUSH1 0x20 ADD PUSH0 KECCAK256 PUSH0 SWAP1 SLOAD SWAP1 PUSH2 0x100 EXP SWAP1 DIV PUSH1 0xFF AND PUSH2 0x30F JUMPI PUSH1 0x40 MLOAD PUSH32 0x82B4290000000000000000000000000000000000000000000000000000000000 DUP2 MSTORE PUSH1 0x4 ADD PUSH1 0x40 MLOAD DUP1 SWAP2 SUB SWAP1 REVERT JUMPDEST PUSH1 0x2 PUSH1 0x3 DUP2 GT ISZERO PUSH2 0x323 JUMPI PUSH2 0x322 PUSH2 0x638 JUMP JUMPDEST JUMPDEST PUSH1 0x3 PUSH0 SWAP1 SLOAD SWAP1 PUSH2 0x100 EXP SWAP1 DIV PUSH1 0xFF AND PUSH1 0x3 DUP2 GT ISZERO PUSH2 0x344 JUMPI PUSH2 0x343 PUSH2 0x638 JUMP JUMPDEST JUMPDEST EQ PUSH2 0x37B JUMPI PUSH1 0x40 MLOAD PUSH32 0xDE4168BA00000000000000000000000000000000000000000000000000000000 DUP2 MSTORE PUSH1 0x4 ADD PUSH1 0x40 MLOAD DUP1 SWAP2 SUB SWAP1 REVERT JUMPDEST PUSH1 0x3 DUP1 PUSH0 PUSH2 0x100 EXP DUP2 SLOAD DUP2 PUSH1 0xFF MUL NOT AND SWAP1 DUP4 PUSH1 0x3 DUP2 GT ISZERO PUSH2 0x39F JUMPI PUSH2 0x39E PUSH2 0x638 JUMP JUMPDEST JUMPDEST MUL OR SWAP1 SSTORE POP PUSH32 0x68F46C45A243A0E9065A97649FAF9A5AFE1692F2679E650C2F853B9CD734CC0E PUSH1 0x40 MLOAD PUSH1 0x40 MLOAD DUP1 SWAP2 SUB SWAP1 LOG1 JUMP JUMPDEST PUSH1 0x1 PUSH1 0x20 MSTORE DUP1 PUSH0 MSTORE PUSH1 0x40 PUSH0 KECCAK256 PUSH0 SWAP2 POP SLOAD SWAP1 PUSH2 0x100 EXP SWAP1 DIV PUSH1 0xFF AND DUP2 JUMP JUMPDEST PUSH1 0x3 PUSH0 SWAP1 SLOAD SWAP1 PUSH2 0x100 EXP SWAP1 DIV PUSH1 0xFF AND DUP2 JUMP JUMPDEST PUSH1 0x2 PUSH1 0x20 MSTORE DUP1 PUSH0 MSTORE PUSH1 0x40 PUSH0 KECCAK256 PUSH0 SWAP2 POP SLOAD SWAP1 PUSH2 0x100 EXP SWAP1 DIV PUSH1 0xFF AND DUP2 JUMP JUMPDEST PUSH0 DUP1 CALLER PUSH20 0xFFFFFFFFFFFFFFFFFFFFFFFFFFFFFFFFFFFFFFFF AND PUSH20 0xFFFFFFFFFFFFFFFFFFFFFFFFFFFFFFFFFFFFFFFF AND DUP2 MSTORE PUSH1 0x20 ADD SWAP1 DUP2 MSTORE PUSH1 0x20 ADD PUSH0 KECCAK256 PUSH0 SWAP1 SLOAD SWAP1 PUSH2 0x100 EXP SWAP1 DIV PUSH1 0xFF AND PUSH2 0x49D JUMPI PUSH1 0x40 MLOAD PUSH32 0x82B4290000000000000000000000000000000000000000000000000000000000 DUP2 MSTORE PUSH1 0x4 ADD PUSH1 0x40 MLOAD DUP1 SWAP2 SUB SWAP1 REVERT JUMPDEST PUSH0 PUSH1 0x3 DUP2 GT ISZERO PUSH2 0x4B0 JUMPI PUSH2 0x4AF PUSH2 0x638 JUMP JUMPDEST JUMPDEST PUSH1 0x3 PUSH0 SWAP1 SLOAD SWAP1 PUSH2 0x100 EXP SWAP1 DIV PUSH1 0xFF AND PUSH1 0x3 DUP2 GT ISZERO PUSH2 0x4D1 JUMPI PUSH2 0x4D0 PUSH2 0x638 JUMP JUMPDEST JUMPDEST EQ PUSH2 0x508 JUMPI PUSH1 0x40 MLOAD PUSH32 0xDE4168BA00000000000000000000000000000000000000000000000000000000 DUP2 MSTORE PUSH1 0x4 ADD PUSH1 0x40 MLOAD DUP1 SWAP2 SUB SWAP1 REVERT JUMPDEST PUSH1 0x1 PUSH1 0x3 PUSH0 PUSH2 0x100 EXP DUP2 SLOAD DUP2 PUSH1 0xFF MUL NOT AND SWAP1 DUP4 PUSH1 0x3 DUP2 GT ISZERO PUSH2 0x52D JUMPI PUSH2 0x52C PUSH2 0x638 JUMP JUMPDEST JUMPDEST MUL OR SWAP1 SSTORE POP PUSH32 0x9ADEDDF84386B336EB7B3E18E7A6099BE08FD81EA5D5142F4D2B630F8D20CF01 PUSH1 0x40 MLOAD PUSH1 0x40 MLOAD DUP1 SWAP2 SUB SWAP1 LOG1 JUMP JUMPDEST PUSH0 PUSH1 0x20 MSTORE DUP1 PUSH0 MSTORE PUSH1 0x40 PUSH0 KECCAK256 PUSH0 SWAP2 POP SLOAD SWAP1 PUSH2 0x100 EXP SWAP1 DIV PUSH1 0xFF AND DUP2 JUMP JUMPDEST PUSH0 DUP1 REVERT JUMPDEST PUSH0 PUSH20 0xFFFFFFFFFFFFFFFFFFFFFFFFFFFFFFFFFFFFFFFF DUP3 AND SWAP1 POP SWAP2 SWAP1 POP JUMP JUMPDEST PUSH0 PUSH2 0x5A9 DUP3 PUSH2 0x580 JUMP JUMPDEST SWAP1 POP SWAP2 SWAP1 POP JUMP JUMPDEST PUSH2 0x5B9 DUP2 PUSH2 0x59F JUMP JUMPDEST DUP2 EQ PUSH2 0x5C3 JUMPI PUSH0 DUP1 REVERT JUMPDEST POP JUMP JUMPDEST PUSH0 DUP2 CALLDATALOAD SWAP1 POP PUSH2 0x5D4 DUP2 PUSH2 0x5B0 JUMP JUMPDEST SWAP3 SWAP2 POP POP JUMP JUMPDEST PUSH0 PUSH1 0x20 DUP3 DUP5 SUB SLT ISZERO PUSH2 0x5EF JUMPI PUSH2 0x5EE PUSH2 0x57C JUMP JUMPDEST JUMPDEST PUSH0 PUSH2 0x5FC DUP5 DUP3 DUP6 ADD PUSH2 0x5C6 JUMP JUMPDEST SWAP2 POP POP SWAP3 SWAP2 POP POP JUMP JUMPDEST PUSH0 DUP2 ISZERO ISZERO SWAP1 POP SWAP2 SWAP1 POP JUMP JUMPDEST PUSH2 0x619 DUP2 PUSH2 0x605 JUMP JUMPDEST DUP3 MSTORE POP POP JUMP JUMPDEST PUSH0 PUSH1 0x20 DUP3 ADD SWAP1 POP PUSH2 0x632 PUSH0 DUP4 ADD DUP5 PUSH2 0x610 JUMP JUMPDEST SWAP3 SWAP2 POP POP JUMP JUMPDEST PUSH32 0x4E487B7100000000000000000000000000000000000000000000000000000000 PUSH0 MSTORE PUSH1 0x21 PUSH1 0x4 MSTORE PUSH1 0x24 PUSH0 REVERT JUMPDEST PUSH1 0x4 DUP2 LT PUSH2 0x676 JUMPI PUSH2 0x675 PUSH2 0x638 JUMP JUMPDEST JUMPDEST POP JUMP JUMPDEST PUSH0 DUP2 SWAP1 POP PUSH2 0x686 DUP3 PUSH2 0x665 JUMP JUMPDEST SWAP2 SWAP1 POP JUMP JUMPDEST PUSH0 PUSH2 0x695 DUP3 PUSH2 0x679 JUMP JUMPDEST SWAP1 POP SWAP2 SWAP1 POP JUMP JUMPDEST PUSH2 0x6A5 DUP2 PUSH2 0x68B JUMP JUMPDEST DUP3 MSTORE POP POP JUMP JUMPDEST PUSH0 PUSH1 0x20 DUP3 ADD SWAP1 POP PUSH2 0x6BE PUSH0 DUP4 ADD DUP5 PUSH2 0x69C JUMP JUMPDEST SWAP3 SWAP2 POP POP JUMP INVALID LOG2 PUSH5 0x6970667358 0x22 SLT KECCAK256 JUMP PUSH14 0x349B7FB98D9D7FE816BAF18C7CD0 SMOD SWAP14 DUP8 0xB3 0x2A 0xE5 SMOD ISZERO 0x4E SWAP2 0x26 0xBA SWAP13 LOG3 PUSH18 0x5064736F6C634300081A0033000000000000 "
		},
		"gasEstimates": {
			"creation": {
				"codeDepositCost": "357200",
				"executionCost": "infinite",
				"totalCost": "infinite"
			},
			"external": {
				"approve()": "29656",
				"create()": "29698",
				"execute()": "29678",
				"isApprover(address)": "2878",
				"isCreator(address)": "2898",
				"isExecutor(address)": "2855",
				"state()": "2554"
			}
		},
		"methodIdentifiers": {
			"approve()": "12424e3f",
			"create()": "efc81a8c",
			"execute()": "61461954",
			"isApprover(address)": "6d218e48",
			"isCreator(address)": "efd46065",
			"isExecutor(address)": "debfda30",
			"state()": "c19d93fb"
		}
	},
	"abi": [
		{
			"inputs": [
				{
					"internalType": "address",
					"name": "creator",
					"type": "address"
				},
				{
					"internalType": "address",
					"name": "approver",
					"type": "address"
				},
				{
					"internalType": "address",
					"name": "executor",
					"type": "address"
				}
			],
			"stateMutability": "nonpayable",
			"type": "constructor"
		},
		{
			"inputs": [],
			"name": "Unauthorized",
			"type": "error"
		},
		{
			"inputs": [],
			"name": "WrongState",
			"type": "error"
		},
		{
			"anonymous": false,
			"inputs": [],
			"name": "Approved",
			"type": "event"
		},
		{
			"anonymous": false,
			"inputs": [],
			"name": "Created",
			"type": "event"
		},
		{
			"anonymous": false,
			"inputs": [],
			"name": "Executed",
			"type": "event"
		},
		{
			"inputs": [],
			"name": "approve",
			"outputs": [],
			"stateMutability": "nonpayable",
			"type": "function"
		},
		{
			"inputs": [],
			"name": "create",
			"outputs": [],
			"stateMutability": "nonpayable",
			"type": "function"
		},
		{
			"inputs": [],
			"name": "execute",
			"outputs": [],
			"stateMutability": "nonpayable",
			"type": "function"
		},
		{
			"inputs": [
				{
					"internalType": "address",
					"name": "",
					"type": "address"
				}
			],
			"name": "isApprover",
			"outputs": [
				{
					"internalType": "bool",
					"name": "",
					"type": "bool"
				}
			],
			"stateMutability": "view",
			"type": "function"
		},
		{
			"inputs": [
				{
					"internalType": "address",
					"name": "",
					"type": "address"
				}
			],
			"name": "isCreator",
			"outputs": [
				{
					"internalType": "bool",
					"name": "",
					"type": "bool"
				}
			],
			"stateMutability": "view",
			"type": "function"
		},
		{
			"inputs": [
				{
					"internalType": "address",
					"name": "",
					"type": "address"
				}
			],
			"name": "isExecutor",
			"outputs": [
				{
					"internalType": "bool",
					"name": "",
					"type": "bool"
				}
			],
			"stateMutability": "view",
			"type": "function"
		},
		{
			"inputs": [],
			"name": "state",
			"outputs": [
				{
					"internalType": "enum WorkflowSafe.State",
					"name": "",
					"type": "uint8"
				}
			],
			"stateMutability": "view",
			"type": "function"
		}
	]
}