{
	"B/Bandwidth/Contract Throughput Cap (Global).sol": {
		"ContractThroughputCap": {
			"abi": [
				{
					"inputs": [],
					"stateMutability": "nonpayable",
					"type": "constructor"
				},
				{
					"anonymous": false,
					"inputs": [
						{
							"indexed": false,
							"internalType": "uint256",
							"name": "newDayStart",
							"type": "uint256"
						}
					],
					"name": "DailyLimitReset",
					"type": "event"
				},
				{
					"anonymous": false,
					"inputs": [
						{
							"indexed": true,
							"internalType": "address",
							"name": "user",
							"type": "address"
						},
						{
							"indexed": false,
							"internalType": "uint256",
							"name": "timestamp",
							"type": "uint256"
						}
					],
					"name": "RequestAccepted",
					"type": "event"
				},
				{
					"inputs": [],
					"name": "DAILY_LIMIT",
					"outputs": [
						{
							"internalType": "uint256",
							"name": "",
							"type": "uint256"
						}
					],
					"stateMutability": "view",
					"type": "function"
				},
				{
					"inputs": [],
					"name": "getRemainingRequests",
					"outputs": [
						{
							"internalType": "uint256",
							"name": "remaining",
							"type": "uint256"
						}
					],
					"stateMutability": "view",
					"type": "function"
				},
				{
					"inputs": [],
					"name": "lastReset",
					"outputs": [
						{
							"internalType": "uint256",
							"name": "",
							"type": "uint256"
						}
					],
					"stateMutability": "view",
					"type": "function"
				},
				{
					"inputs": [],
					"name": "recordRequest",
					"outputs": [],
					"stateMutability": "nonpayable",
					"type": "function"
				},
				{
					"inputs": [],
					"name": "requestsToday",
					"outputs": [
						{
							"internalType": "uint256",
							"name": "",
							"type": "uint256"
						}
					],
					"stateMutability": "view",
					"type": "function"
				}
			],
			"devdoc": {
				"kind": "dev",
				"methods": {},
				"version": 1
			},
			"evm": {
				"assembly": "    /* \"B/Bandwidth/Contract Throughput Cap (Global).sol\":58:1119  contract ContractThroughputCap {... */\n  mstore(0x40, 0x80)\n    /* \"B/Bandwidth/Contract Throughput Cap (Global).sol\":324:382  constructor() {... */\n  callvalue\n  dup1\n  iszero\n  tag_1\n  jumpi\n  revert(0x00, 0x00)\ntag_1:\n  pop\n    /* \"B/Bandwidth/Contract Throughput Cap (Global).sol\":360:375  block.timestamp */\n  timestamp\n    /* \"B/Bandwidth/Contract Throughput Cap (Global).sol\":348:357  lastReset */\n  0x01\n    /* \"B/Bandwidth/Contract Throughput Cap (Global).sol\":348:375  lastReset = block.timestamp */\n  dup2\n  swap1\n  sstore\n  pop\n    /* \"B/Bandwidth/Contract Throughput Cap (Global).sol\":58:1119  contract ContractThroughputCap {... */\n  dataSize(sub_0)\n  dup1\n  dataOffset(sub_0)\n  0x00\n  codecopy\n  0x00\n  return\nstop\n\nsub_0: assembly {\n        /* \"B/Bandwidth/Contract Throughput Cap (Global).sol\":58:1119  contract ContractThroughputCap {... */\n      mstore(0x40, 0x80)\n      callvalue\n      dup1\n      iszero\n      tag_1\n      jumpi\n      revert(0x00, 0x00)\n    tag_1:\n      pop\n      jumpi(tag_2, lt(calldatasize, 0x04))\n      shr(0xe0, calldataload(0x00))\n      dup1\n      0x248ec326\n      eq\n      tag_3\n      jumpi\n      dup1\n      0x8d60ed39\n      eq\n      tag_4\n      jumpi\n      dup1\n      0xc9a1e7b2\n      eq\n      tag_5\n      jumpi\n      dup1\n      0xdf491cba\n      eq\n      tag_6\n      jumpi\n      dup1\n      0xe3645787\n      eq\n      tag_7\n      jumpi\n    tag_2:\n      revert(0x00, 0x00)\n        /* \"B/Bandwidth/Contract Throughput Cap (Global).sol\":159:200  uint256 public constant DAILY_LIMIT = 100 */\n    tag_3:\n      tag_8\n      tag_9\n      jump\t// in\n    tag_8:\n      mload(0x40)\n      tag_10\n      swap2\n      swap1\n      tag_11\n      jump\t// in\n    tag_10:\n      mload(0x40)\n      dup1\n      swap2\n      sub\n      swap1\n      return\n        /* \"B/Bandwidth/Contract Throughput Cap (Global).sol\":879:1117  function getRemainingRequests() public view returns (uint256 remaining) {... */\n    tag_4:\n      tag_12\n      tag_13\n      jump\t// in\n    tag_12:\n      mload(0x40)\n      tag_14\n      swap2\n      swap1\n      tag_11\n      jump\t// in\n    tag_14:\n      mload(0x40)\n      dup1\n      swap2\n      sub\n      swap1\n      return\n        /* \"B/Bandwidth/Contract Throughput Cap (Global).sol\":129:153  uint256 public lastReset */\n    tag_5:\n      tag_15\n      tag_16\n      jump\t// in\n    tag_15:\n      mload(0x40)\n      tag_17\n      swap2\n      swap1\n      tag_11\n      jump\t// in\n    tag_17:\n      mload(0x40)\n      dup1\n      swap2\n      sub\n      swap1\n      return\n        /* \"B/Bandwidth/Contract Throughput Cap (Global).sol\":95:123  uint256 public requestsToday */\n    tag_6:\n      tag_18\n      tag_19\n      jump\t// in\n    tag_18:\n      mload(0x40)\n      tag_20\n      swap2\n      swap1\n      tag_11\n      jump\t// in\n    tag_20:\n      mload(0x40)\n      dup1\n      swap2\n      sub\n      swap1\n      return\n        /* \"B/Bandwidth/Contract Throughput Cap (Global).sol\":388:873  function recordRequest() public {... */\n    tag_7:\n      tag_21\n      tag_22\n      jump\t// in\n    tag_21:\n      stop\n        /* \"B/Bandwidth/Contract Throughput Cap (Global).sol\":159:200  uint256 public constant DAILY_LIMIT = 100 */\n    tag_9:\n        /* \"B/Bandwidth/Contract Throughput Cap (Global).sol\":197:200  100 */\n      0x64\n        /* \"B/Bandwidth/Contract Throughput Cap (Global).sol\":159:200  uint256 public constant DAILY_LIMIT = 100 */\n      dup2\n      jump\t// out\n        /* \"B/Bandwidth/Contract Throughput Cap (Global).sol\":879:1117  function getRemainingRequests() public view returns (uint256 remaining) {... */\n    tag_13:\n        /* \"B/Bandwidth/Contract Throughput Cap (Global).sol\":932:949  uint256 remaining */\n      0x00\n        /* \"B/Bandwidth/Contract Throughput Cap (Global).sol\":995:1001  1 days */\n      0x015180\n        /* \"B/Bandwidth/Contract Throughput Cap (Global).sol\":983:992  lastReset */\n      sload(0x01)\n        /* \"B/Bandwidth/Contract Throughput Cap (Global).sol\":983:1001  lastReset + 1 days */\n      tag_24\n      swap2\n      swap1\n      tag_25\n      jump\t// in\n    tag_24:\n        /* \"B/Bandwidth/Contract Throughput Cap (Global).sol\":965:980  block.timestamp */\n      timestamp\n        /* \"B/Bandwidth/Contract Throughput Cap (Global).sol\":965:1001  block.timestamp > lastReset + 1 days */\n      gt\n        /* \"B/Bandwidth/Contract Throughput Cap (Global).sol\":961:1111  if (block.timestamp > lastReset + 1 days) {... */\n      iszero\n      tag_26\n      jumpi\n        /* \"B/Bandwidth/Contract Throughput Cap (Global).sol\":197:200  100 */\n      0x64\n        /* \"B/Bandwidth/Contract Throughput Cap (Global).sol\":1017:1035  return DAILY_LIMIT */\n      swap1\n      pop\n      jump(tag_23)\n        /* \"B/Bandwidth/Contract Throughput Cap (Global).sol\":961:1111  if (block.timestamp > lastReset + 1 days) {... */\n    tag_26:\n        /* \"B/Bandwidth/Contract Throughput Cap (Global).sol\":1087:1100  requestsToday */\n      sload(0x00)\n        /* \"B/Bandwidth/Contract Throughput Cap (Global).sol\":197:200  100 */\n      0x64\n        /* \"B/Bandwidth/Contract Throughput Cap (Global).sol\":1073:1100  DAILY_LIMIT - requestsToday */\n      tag_28\n      swap2\n      swap1\n      tag_29\n      jump\t// in\n    tag_28:\n        /* \"B/Bandwidth/Contract Throughput Cap (Global).sol\":1066:1100  return DAILY_LIMIT - requestsToday */\n      swap1\n      pop\n        /* \"B/Bandwidth/Contract Throughput Cap (Global).sol\":879:1117  function getRemainingRequests() public view returns (uint256 remaining) {... */\n    tag_23:\n      swap1\n      jump\t// out\n        /* \"B/Bandwidth/Contract Throughput Cap (Global).sol\":129:153  uint256 public lastReset */\n    tag_16:\n      sload(0x01)\n      dup2\n      jump\t// out\n        /* \"B/Bandwidth/Contract Throughput Cap (Global).sol\":95:123  uint256 public requestsToday */\n    tag_19:\n      sload(0x00)\n      dup2\n      jump\t// out\n        /* \"B/Bandwidth/Contract Throughput Cap (Global).sol\":388:873  function recordRequest() public {... */\n    tag_22:\n        /* \"B/Bandwidth/Contract Throughput Cap (Global).sol\":506:512  1 days */\n      0x015180\n        /* \"B/Bandwidth/Contract Throughput Cap (Global).sol\":494:503  lastReset */\n      sload(0x01)\n        /* \"B/Bandwidth/Contract Throughput Cap (Global).sol\":494:512  lastReset + 1 days */\n      tag_31\n      swap2\n      swap1\n      tag_25\n      jump\t// in\n    tag_31:\n        /* \"B/Bandwidth/Contract Throughput Cap (Global).sol\":476:491  block.timestamp */\n      timestamp\n        /* \"B/Bandwidth/Contract Throughput Cap (Global).sol\":476:512  block.timestamp > lastReset + 1 days */\n      gt\n        /* \"B/Bandwidth/Contract Throughput Cap (Global).sol\":472:642  if (block.timestamp > lastReset + 1 days) {... */\n      iszero\n      tag_32\n      jumpi\n        /* \"B/Bandwidth/Contract Throughput Cap (Global).sol\":544:545  0 */\n      0x00\n        /* \"B/Bandwidth/Contract Throughput Cap (Global).sol\":528:541  requestsToday */\n      0x00\n        /* \"B/Bandwidth/Contract Throughput Cap (Global).sol\":528:545  requestsToday = 0 */\n      dup2\n      swap1\n      sstore\n      pop\n        /* \"B/Bandwidth/Contract Throughput Cap (Global).sol\":571:586  block.timestamp */\n      timestamp\n        /* \"B/Bandwidth/Contract Throughput Cap (Global).sol\":559:568  lastReset */\n      0x01\n        /* \"B/Bandwidth/Contract Throughput Cap (Global).sol\":559:586  lastReset = block.timestamp */\n      dup2\n      swap1\n      sstore\n      pop\n        /* \"B/Bandwidth/Contract Throughput Cap (Global).sol\":605:631  DailyLimitReset(lastReset) */\n      0x450d69a307fe727c4d16c9aa74048123badcca4d9a3070218b80892e26ee3a16\n        /* \"B/Bandwidth/Contract Throughput Cap (Global).sol\":621:630  lastReset */\n      sload(0x01)\n        /* \"B/Bandwidth/Contract Throughput Cap (Global).sol\":605:631  DailyLimitReset(lastReset) */\n      mload(0x40)\n      tag_33\n      swap2\n      swap1\n      tag_11\n      jump\t// in\n    tag_33:\n      mload(0x40)\n      dup1\n      swap2\n      sub\n      swap1\n      log1\n        /* \"B/Bandwidth/Contract Throughput Cap (Global).sol\":472:642  if (block.timestamp > lastReset + 1 days) {... */\n    tag_32:\n        /* \"B/Bandwidth/Contract Throughput Cap (Global).sol\":197:200  100 */\n      0x64\n        /* \"B/Bandwidth/Contract Throughput Cap (Global).sol\":660:673  requestsToday */\n      sload(0x00)\n        /* \"B/Bandwidth/Contract Throughput Cap (Global).sol\":660:687  requestsToday < DAILY_LIMIT */\n      lt\n        /* \"B/Bandwidth/Contract Throughput Cap (Global).sol\":652:711  require(requestsToday < DAILY_LIMIT, \"Daily limit reached\") */\n      tag_34\n      jumpi\n      mload(0x40)\n      0x08c379a000000000000000000000000000000000000000000000000000000000\n      dup2\n      mstore\n      0x04\n      add\n      tag_35\n      swap1\n      tag_36\n      jump\t// in\n    tag_35:\n      mload(0x40)\n      dup1\n      swap2\n      sub\n      swap1\n      revert\n    tag_34:\n        /* \"B/Bandwidth/Contract Throughput Cap (Global).sol\":739:740  1 */\n      0x01\n        /* \"B/Bandwidth/Contract Throughput Cap (Global).sol\":722:735  requestsToday */\n      0x00\n      0x00\n        /* \"B/Bandwidth/Contract Throughput Cap (Global).sol\":722:740  requestsToday += 1 */\n      dup3\n      dup3\n      sload\n      tag_37\n      swap2\n      swap1\n      tag_25\n      jump\t// in\n    tag_37:\n      swap3\n      pop\n      pop\n      dup2\n      swap1\n      sstore\n      pop\n        /* \"B/Bandwidth/Contract Throughput Cap (Global).sol\":771:781  msg.sender */\n      caller\n        /* \"B/Bandwidth/Contract Throughput Cap (Global).sol\":755:799  RequestAccepted(msg.sender, block.timestamp) */\n      0xffffffffffffffffffffffffffffffffffffffff\n      and\n      0xd15c62656fdef5691874d8c5576446ca90f57120a5a41e75d1cb4fb28c37cef5\n        /* \"B/Bandwidth/Contract Throughput Cap (Global).sol\":783:798  block.timestamp */\n      timestamp\n        /* \"B/Bandwidth/Contract Throughput Cap (Global).sol\":755:799  RequestAccepted(msg.sender, block.timestamp) */\n      mload(0x40)\n      tag_38\n      swap2\n      swap1\n      tag_11\n      jump\t// in\n    tag_38:\n      mload(0x40)\n      dup1\n      swap2\n      sub\n      swap1\n      log2\n        /* \"B/Bandwidth/Contract Throughput Cap (Global).sol\":388:873  function recordRequest() public {... */\n      jump\t// out\n        /* \"#utility.yul\":7:84   */\n    tag_39:\n        /* \"#utility.yul\":44:51   */\n      0x00\n        /* \"#utility.yul\":73:78   */\n      dup2\n        /* \"#utility.yul\":62:78   */\n      swap1\n      pop\n        /* \"#utility.yul\":7:84   */\n      swap2\n      swap1\n      pop\n      jump\t// out\n        /* \"#utility.yul\":90:208   */\n    tag_40:\n        /* \"#utility.yul\":177:201   */\n      tag_48\n        /* \"#utility.yul\":195:200   */\n      dup2\n        /* \"#utility.yul\":177:201   */\n      tag_39\n      jump\t// in\n    tag_48:\n        /* \"#utility.yul\":172:175   */\n      dup3\n        /* \"#utility.yul\":165:202   */\n      mstore\n        /* \"#utility.yul\":90:208   */\n      pop\n      pop\n      jump\t// out\n        /* \"#utility.yul\":214:436   */\n    tag_11:\n        /* \"#utility.yul\":307:311   */\n      0x00\n        /* \"#utility.yul\":345:347   */\n      0x20\n        /* \"#utility.yul\":334:343   */\n      dup3\n        /* \"#utility.yul\":330:348   */\n      add\n        /* \"#utility.yul\":322:348   */\n      swap1\n      pop\n        /* \"#utility.yul\":358:429   */\n      tag_50\n        /* \"#utility.yul\":426:427   */\n      0x00\n        /* \"#utility.yul\":415:424   */\n      dup4\n        /* \"#utility.yul\":411:428   */\n      add\n        /* \"#utility.yul\":402:408   */\n      dup5\n        /* \"#utility.yul\":358:429   */\n      tag_40\n      jump\t// in\n    tag_50:\n        /* \"#utility.yul\":214:436   */\n      swap3\n      swap2\n      pop\n      pop\n      jump\t// out\n        /* \"#utility.yul\":442:622   */\n    tag_41:\n        /* \"#utility.yul\":490:567   */\n      0x4e487b7100000000000000000000000000000000000000000000000000000000\n        /* \"#utility.yul\":487:488   */\n      0x00\n        /* \"#utility.yul\":480:568   */\n      mstore\n        /* \"#utility.yul\":587:591   */\n      0x11\n        /* \"#utility.yul\":584:585   */\n      0x04\n        /* \"#utility.yul\":577:592   */\n      mstore\n        /* \"#utility.yul\":611:615   */\n      0x24\n        /* \"#utility.yul\":608:609   */\n      0x00\n        /* \"#utility.yul\":601:616   */\n      revert\n        /* \"#utility.yul\":628:819   */\n    tag_25:\n        /* \"#utility.yul\":668:671   */\n      0x00\n        /* \"#utility.yul\":687:707   */\n      tag_53\n        /* \"#utility.yul\":705:706   */\n      dup3\n        /* \"#utility.yul\":687:707   */\n      tag_39\n      jump\t// in\n    tag_53:\n        /* \"#utility.yul\":682:707   */\n      swap2\n      pop\n        /* \"#utility.yul\":721:741   */\n      tag_54\n        /* \"#utility.yul\":739:740   */\n      dup4\n        /* \"#utility.yul\":721:741   */\n      tag_39\n      jump\t// in\n    tag_54:\n        /* \"#utility.yul\":716:741   */\n      swap3\n      pop\n        /* \"#utility.yul\":764:765   */\n      dup3\n        /* \"#utility.yul\":761:762   */\n      dup3\n        /* \"#utility.yul\":757:766   */\n      add\n        /* \"#utility.yul\":750:766   */\n      swap1\n      pop\n        /* \"#utility.yul\":785:788   */\n      dup1\n        /* \"#utility.yul\":782:783   */\n      dup3\n        /* \"#utility.yul\":779:789   */\n      gt\n        /* \"#utility.yul\":776:812   */\n      iszero\n      tag_55\n      jumpi\n        /* \"#utility.yul\":792:810   */\n      tag_56\n      tag_41\n      jump\t// in\n    tag_56:\n        /* \"#utility.yul\":776:812   */\n    tag_55:\n        /* \"#utility.yul\":628:819   */\n      swap3\n      swap2\n      pop\n      pop\n      jump\t// out\n        /* \"#utility.yul\":825:1019   */\n    tag_29:\n        /* \"#utility.yul\":865:869   */\n      0x00\n        /* \"#utility.yul\":885:905   */\n      tag_58\n        /* \"#utility.yul\":903:904   */\n      dup3\n        /* \"#utility.yul\":885:905   */\n      tag_39\n      jump\t// in\n    tag_58:\n        /* \"#utility.yul\":880:905   */\n      swap2\n      pop\n        /* \"#utility.yul\":919:939   */\n      tag_59\n        /* \"#utility.yul\":937:938   */\n      dup4\n        /* \"#utility.yul\":919:939   */\n      tag_39\n      jump\t// in\n    tag_59:\n        /* \"#utility.yul\":914:939   */\n      swap3\n      pop\n        /* \"#utility.yul\":963:964   */\n      dup3\n        /* \"#utility.yul\":960:961   */\n      dup3\n        /* \"#utility.yul\":956:965   */\n      sub\n        /* \"#utility.yul\":948:965   */\n      swap1\n      pop\n        /* \"#utility.yul\":987:988   */\n      dup2\n        /* \"#utility.yul\":981:985   */\n      dup2\n        /* \"#utility.yul\":978:989   */\n      gt\n        /* \"#utility.yul\":975:1012   */\n      iszero\n      tag_60\n      jumpi\n        /* \"#utility.yul\":992:1010   */\n      tag_61\n      tag_41\n      jump\t// in\n    tag_61:\n        /* \"#utility.yul\":975:1012   */\n    tag_60:\n        /* \"#utility.yul\":825:1019   */\n      swap3\n      swap2\n      pop\n      pop\n      jump\t// out\n        /* \"#utility.yul\":1025:1194   */\n    tag_42:\n        /* \"#utility.yul\":1109:1120   */\n      0x00\n        /* \"#utility.yul\":1143:1149   */\n      dup3\n        /* \"#utility.yul\":1138:1141   */\n      dup3\n        /* \"#utility.yul\":1131:1150   */\n      mstore\n        /* \"#utility.yul\":1183:1187   */\n      0x20\n        /* \"#utility.yul\":1178:1181   */\n      dup3\n        /* \"#utility.yul\":1174:1188   */\n      add\n        /* \"#utility.yul\":1159:1188   */\n      swap1\n      pop\n        /* \"#utility.yul\":1025:1194   */\n      swap3\n      swap2\n      pop\n      pop\n      jump\t// out\n        /* \"#utility.yul\":1200:1369   */\n    tag_43:\n        /* \"#utility.yul\":1340:1361   */\n      0x4461696c79206c696d6974207265616368656400000000000000000000000000\n        /* \"#utility.yul\":1336:1337   */\n      0x00\n        /* \"#utility.yul\":1328:1334   */\n      dup3\n        /* \"#utility.yul\":1324:1338   */\n      add\n        /* \"#utility.yul\":1317:1362   */\n      mstore\n        /* \"#utility.yul\":1200:1369   */\n      pop\n      jump\t// out\n        /* \"#utility.yul\":1375:1741   */\n    tag_44:\n        /* \"#utility.yul\":1517:1520   */\n      0x00\n        /* \"#utility.yul\":1538:1605   */\n      tag_65\n        /* \"#utility.yul\":1602:1604   */\n      0x13\n        /* \"#utility.yul\":1597:1600   */\n      dup4\n        /* \"#utility.yul\":1538:1605   */\n      tag_42\n      jump\t// in\n    tag_65:\n        /* \"#utility.yul\":1531:1605   */\n      swap2\n      pop\n        /* \"#utility.yul\":1614:1707   */\n      tag_66\n        /* \"#utility.yul\":1703:1706   */\n      dup3\n        /* \"#utility.yul\":1614:1707   */\n      tag_43\n      jump\t// in\n    tag_66:\n        /* \"#utility.yul\":1732:1734   */\n      0x20\n        /* \"#utility.yul\":1727:1730   */\n      dup3\n        /* \"#utility.yul\":1723:1735   */\n      add\n        /* \"#utility.yul\":1716:1735   */\n      swap1\n      pop\n        /* \"#utility.yul\":1375:1741   */\n      swap2\n      swap1\n      pop\n      jump\t// out\n        /* \"#utility.yul\":1747:2166   */\n    tag_36:\n        /* \"#utility.yul\":1913:1917   */\n      0x00\n        /* \"#utility.yul\":1951:1953   */\n      0x20\n        /* \"#utility.yul\":1940:1949   */\n      dup3\n        /* \"#utility.yul\":1936:1954   */\n      add\n        /* \"#utility.yul\":1928:1954   */\n      swap1\n      pop\n        /* \"#utility.yul\":2000:2009   */\n      dup2\n        /* \"#utility.yul\":1994:1998   */\n      dup2\n        /* \"#utility.yul\":1990:2010   */\n      sub\n        /* \"#utility.yul\":1986:1987   */\n      0x00\n        /* \"#utility.yul\":1975:1984   */\n      dup4\n        /* \"#utility.yul\":1971:1988   */\n      add\n        /* \"#utility.yul\":1964:2011   */\n      mstore\n        /* \"#utility.yul\":2028:2159   */\n      tag_68\n        /* \"#utility.yul\":2154:2158   */\n      dup2\n        /* \"#utility.yul\":2028:2159   */\n      tag_44\n      jump\t// in\n    tag_68:\n        /* \"#utility.yul\":2020:2159   */\n      swap1\n      pop\n        /* \"#utility.yul\":1747:2166   */\n      swap2\n      swap1\n      pop\n      jump\t// out\n\n    auxdata: 0xa2646970667358221220034c6c0b7b6c9259695c1346ffa3c7b1e0ffe4ef9b856d7bdb73267c69c4e65b64736f6c634300081d0033\n}\n",
				"bytecode": {
					"linkReferences": {},
					"object": "6080604052348015600e575f5ffd5b504260018190555061039e806100235f395ff3fe608060405234801561000f575f5ffd5b5060043610610055575f3560e01c8063248ec326146100595780638d60ed3914610077578063c9a1e7b214610095578063df491cba146100b3578063e3645787146100d1575b5f5ffd5b6100616100db565b60405161006e9190610244565b60405180910390f35b61007f6100e0565b60405161008c9190610244565b60405180910390f35b61009d610116565b6040516100aa9190610244565b60405180910390f35b6100bb61011c565b6040516100c89190610244565b60405180910390f35b6100d9610121565b005b606481565b5f620151806001546100f2919061028a565b4211156101025760649050610113565b5f54606461011091906102bd565b90505b90565b60015481565b5f5481565b62015180600154610132919061028a565b421115610180575f5f81905550426001819055507f450d69a307fe727c4d16c9aa74048123badcca4d9a3070218b80892e26ee3a166001546040516101779190610244565b60405180910390a15b60645f54106101c4576040517f08c379a00000000000000000000000000000000000000000000000000000000081526004016101bb9061034a565b60405180910390fd5b60015f5f8282546101d5919061028a565b925050819055503373ffffffffffffffffffffffffffffffffffffffff167fd15c62656fdef5691874d8c5576446ca90f57120a5a41e75d1cb4fb28c37cef5426040516102229190610244565b60405180910390a2565b5f819050919050565b61023e8161022c565b82525050565b5f6020820190506102575f830184610235565b92915050565b7f4e487b71000000000000000000000000000000000000000000000000000000005f52601160045260245ffd5b5f6102948261022c565b915061029f8361022c565b92508282019050808211156102b7576102b661025d565b5b92915050565b5f6102c78261022c565b91506102d28361022c565b92508282039050818111156102ea576102e961025d565b5b92915050565b5f82825260208201905092915050565b7f4461696c79206c696d69742072656163686564000000000000000000000000005f82015250565b5f6103346013836102f0565b915061033f82610300565b602082019050919050565b5f6020820190508181035f83015261036181610328565b905091905056fea2646970667358221220034c6c0b7b6c9259695c1346ffa3c7b1e0ffe4ef9b856d7bdb73267c69c4e65b64736f6c634300081d0033",
					"opcodes": "PUSH1 0x80 PUSH1 0x40 MSTORE CALLVALUE DUP1 ISZERO PUSH1 0xE JUMPI PUSH0 PUSH0 REVERT JUMPDEST POP TIMESTAMP PUSH1 0x1 DUP2 SWAP1 SSTORE POP PUSH2 0x39E DUP1 PUSH2 0x23 PUSH0 CODECOPY PUSH0 RETURN INVALID PUSH1 0x80 PUSH1 0x40 MSTORE CALLVALUE DUP1 ISZERO PUSH2 0xF JUMPI PUSH0 PUSH0 REVERT JUMPDEST POP PUSH1 0x4 CALLDATASIZE LT PUSH2 0x55 JUMPI PUSH0 CALLDATALOAD PUSH1 0xE0 SHR DUP1 PUSH4 0x248EC326 EQ PUSH2 0x59 JUMPI DUP1 PUSH4 0x8D60ED39 EQ PUSH2 0x77 JUMPI DUP1 PUSH4 0xC9A1E7B2 EQ PUSH2 0x95 JUMPI DUP1 PUSH4 0xDF491CBA EQ PUSH2 0xB3 JUMPI DUP1 PUSH4 0xE3645787 EQ PUSH2 0xD1 JUMPI JUMPDEST PUSH0 PUSH0 REVERT JUMPDEST PUSH2 0x61 PUSH2 0xDB JUMP JUMPDEST PUSH1 0x40 MLOAD PUSH2 0x6E SWAP2 SWAP1 PUSH2 0x244 JUMP JUMPDEST PUSH1 0x40 MLOAD DUP1 SWAP2 SUB SWAP1 RETURN JUMPDEST PUSH2 0x7F PUSH2 0xE0 JUMP JUMPDEST PUSH1 0x40 MLOAD PUSH2 0x8C SWAP2 SWAP1 PUSH2 0x244 JUMP JUMPDEST PUSH1 0x40 MLOAD DUP1 SWAP2 SUB SWAP1 RETURN JUMPDEST PUSH2 0x9D PUSH2 0x116 JUMP JUMPDEST PUSH1 0x40 MLOAD PUSH2 0xAA SWAP2 SWAP1 PUSH2 0x244 JUMP JUMPDEST PUSH1 0x40 MLOAD DUP1 SWAP2 SUB SWAP1 RETURN JUMPDEST PUSH2 0xBB PUSH2 0x11C JUMP JUMPDEST PUSH1 0x40 MLOAD PUSH2 0xC8 SWAP2 SWAP1 PUSH2 0x244 JUMP JUMPDEST PUSH1 0x40 MLOAD DUP1 SWAP2 SUB SWAP1 RETURN JUMPDEST PUSH2 0xD9 PUSH2 0x121 JUMP JUMPDEST STOP JUMPDEST PUSH1 0x64 DUP2 JUMP JUMPDEST PUSH0 PUSH3 0x15180 PUSH1 0x1 SLOAD PUSH2 0xF2 SWAP2 SWAP1 PUSH2 0x28A JUMP JUMPDEST TIMESTAMP GT ISZERO PUSH2 0x102 JUMPI PUSH1 0x64 SWAP1 POP PUSH2 0x113 JUMP JUMPDEST PUSH0 SLOAD PUSH1 0x64 PUSH2 0x110 SWAP2 SWAP1 PUSH2 0x2BD JUMP JUMPDEST SWAP1 POP JUMPDEST SWAP1 JUMP JUMPDEST PUSH1 0x1 SLOAD DUP2 JUMP JUMPDEST PUSH0 SLOAD DUP2 JUMP JUMPDEST PUSH3 0x15180 PUSH1 0x1 SLOAD PUSH2 0x132 SWAP2 SWAP1 PUSH2 0x28A JUMP JUMPDEST TIMESTAMP GT ISZERO PUSH2 0x180 JUMPI PUSH0 PUSH0 DUP2 SWAP1 SSTORE POP TIMESTAMP PUSH1 0x1 DUP2 SWAP1 SSTORE POP PUSH32 0x450D69A307FE727C4D16C9AA74048123BADCCA4D9A3070218B80892E26EE3A16 PUSH1 0x1 SLOAD PUSH1 0x40 MLOAD PUSH2 0x177 SWAP2 SWAP1 PUSH2 0x244 JUMP JUMPDEST PUSH1 0x40 MLOAD DUP1 SWAP2 SUB SWAP1 LOG1 JUMPDEST PUSH1 0x64 PUSH0 SLOAD LT PUSH2 0x1C4 JUMPI PUSH1 0x40 MLOAD PUSH32 0x8C379A000000000000000000000000000000000000000000000000000000000 DUP2 MSTORE PUSH1 0x4 ADD PUSH2 0x1BB SWAP1 PUSH2 0x34A JUMP JUMPDEST PUSH1 0x40 MLOAD DUP1 SWAP2 SUB SWAP1 REVERT JUMPDEST PUSH1 0x1 PUSH0 PUSH0 DUP3 DUP3 SLOAD PUSH2 0x1D5 SWAP2 SWAP1 PUSH2 0x28A JUMP JUMPDEST SWAP3 POP POP DUP2 SWAP1 SSTORE POP CALLER PUSH20 0xFFFFFFFFFFFFFFFFFFFFFFFFFFFFFFFFFFFFFFFF AND PUSH32 0xD15C62656FDEF5691874D8C5576446CA90F57120A5A41E75D1CB4FB28C37CEF5 TIMESTAMP PUSH1 0x40 MLOAD PUSH2 0x222 SWAP2 SWAP1 PUSH2 0x244 JUMP JUMPDEST PUSH1 0x40 MLOAD DUP1 SWAP2 SUB SWAP1 LOG2 JUMP JUMPDEST PUSH0 DUP2 SWAP1 POP SWAP2 SWAP1 POP JUMP JUMPDEST PUSH2 0x23E DUP2 PUSH2 0x22C JUMP JUMPDEST DUP3 MSTORE POP POP JUMP JUMPDEST PUSH0 PUSH1 0x20 DUP3 ADD SWAP1 POP PUSH2 0x257 PUSH0 DUP4 ADD DUP5 PUSH2 0x235 JUMP JUMPDEST SWAP3 SWAP2 POP POP JUMP JUMPDEST PUSH32 0x4E487B7100000000000000000000000000000000000000000000000000000000 PUSH0 MSTORE PUSH1 0x11 PUSH1 0x4 MSTORE PUSH1 0x24 PUSH0 REVERT JUMPDEST PUSH0 PUSH2 0x294 DUP3 PUSH2 0x22C JUMP JUMPDEST SWAP2 POP PUSH2 0x29F DUP4 PUSH2 0x22C JUMP JUMPDEST SWAP3 POP DUP3 DUP3 ADD SWAP1 POP DUP1 DUP3 GT ISZERO PUSH2 0x2B7 JUMPI PUSH2 0x2B6 PUSH2 0x25D JUMP JUMPDEST JUMPDEST SWAP3 SWAP2 POP POP JUMP JUMPDEST PUSH0 PUSH2 0x2C7 DUP3 PUSH2 0x22C JUMP JUMPDEST SWAP2 POP PUSH2 0x2D2 DUP4 PUSH2 0x22C JUMP JUMPDEST SWAP3 POP DUP3 DUP3 SUB SWAP1 POP DUP2 DUP2 GT ISZERO PUSH2 0x2EA JUMPI PUSH2 0x2E9 PUSH2 0x25D JUMP JUMPDEST JUMPDEST SWAP3 SWAP2 POP POP JUMP JUMPDEST PUSH0 DUP3 DUP3 MSTORE PUSH1 0x20 DUP3 ADD SWAP1 POP SWAP3 SWAP2 POP POP JUMP JUMPDEST PUSH32 0x4461696C79206C696D6974207265616368656400000000000000000000000000 PUSH0 DUP3 ADD MSTORE POP JUMP JUMPDEST PUSH0 PUSH2 0x334 PUSH1 0x13 DUP4 PUSH2 0x2F0 JUMP JUMPDEST SWAP2 POP PUSH2 0x33F DUP3 PUSH2 0x300 JUMP JUMPDEST PUSH1 0x20 DUP3 ADD SWAP1 POP SWAP2 SWAP1 POP JUMP JUMPDEST PUSH0 PUSH1 0x20 DUP3 ADD SWAP1 POP DUP2 DUP2 SUB PUSH0 DUP4 ADD MSTORE PUSH2 0x361 DUP2 PUSH2 0x328 JUMP JUMPDEST SWAP1 POP SWAP2 SWAP1 POP JUMP INVALID LOG2 PUSH5 0x6970667358 0x22 SLT KECCAK256 SUB 0x4C PUSH13 0xB7B6C9259695C1346FFA3C7B1 RJUMP 0xFFE4 0xEF SWAP12 DUP6 PUSH14 0x7BDB73267C69C4E65B64736F6C63 NUMBER STOP ADDMOD SAR STOP CALLER "
				},
				"gasEstimates": {
					"creation": {
						"codeDepositCost": "185200",
						"executionCost": "22337",
						"totalCost": "207537"
					},
					"external": {
						"DAILY_LIMIT()": "303",
						"getRemainingRequests()": "infinite",
						"lastReset()": "2447",
						"recordRequest()": "infinite",
						"requestsToday()": "2468"
					}
				},
				"methodIdentifiers": {
					"DAILY_LIMIT()": "248ec326",
					"getRemainingRequests()": "8d60ed39",
					"lastReset()": "c9a1e7b2",
					"recordRequest()": "e3645787",
					"requestsToday()": "df491cba"
				}
			},
			"storageLayout": {
				"storage": [
					{
						"astId": 3,
						"contract": "B/Bandwidth/Contract Throughput Cap (Global).sol:ContractThroughputCap",
						"label": "requestsToday",
						"offset": 0,
						"slot": "0",
						"type": "t_uint256"
					},
					{
						"astId": 5,
						"contract": "B/Bandwidth/Contract Throughput Cap (Global).sol:ContractThroughputCap",
						"label": "lastReset",
						"offset": 0,
						"slot": "1",
						"type": "t_uint256"
					}
				],
				"types": {
					"t_uint256": {
						"encoding": "inplace",
						"label": "uint256",
						"numberOfBytes": "32"
					}
				}
			},
			"userdoc": {
				"kind": "user",
				"methods": {},
				"version": 1
			}
		}
	}
}