{
	"H/HTTPS/HttpsStypeEIP712Verifier.sol": {
		"EIP712HTTPS": {
			"abi": [
				{
					"inputs": [],
					"name": "ECDSAInvalidSignature",
					"type": "error"
				},
				{
					"inputs": [
						{
							"internalType": "uint256",
							"name": "length",
							"type": "uint256"
						}
					],
					"name": "ECDSAInvalidSignatureLength",
					"type": "error"
				},
				{
					"inputs": [
						{
							"internalType": "bytes32",
							"name": "s",
							"type": "bytes32"
						}
					],
					"name": "ECDSAInvalidSignatureS",
					"type": "error"
				},
				{
					"inputs": [],
					"name": "DOMAIN",
					"outputs": [
						{
							"internalType": "bytes32",
							"name": "",
							"type": "bytes32"
						}
					],
					"stateMutability": "view",
					"type": "function"
				},
				{
					"inputs": [
						{
							"internalType": "address",
							"name": "signer",
							"type": "address"
						},
						{
							"internalType": "string",
							"name": "data",
							"type": "string"
						},
						{
							"internalType": "bytes",
							"name": "sig",
							"type": "bytes"
						}
					],
					"name": "verify",
					"outputs": [
						{
							"internalType": "bool",
							"name": "",
							"type": "bool"
						}
					],
					"stateMutability": "pure",
					"type": "function"
				}
			],
			"devdoc": {
				"errors": {
					"ECDSAInvalidSignature()": [
						{
							"details": "The signature derives the `address(0)`."
						}
					],
					"ECDSAInvalidSignatureLength(uint256)": [
						{
							"details": "The signature has an invalid length."
						}
					],
					"ECDSAInvalidSignatureS(bytes32)": [
						{
							"details": "The signature has an S value that is in the upper half order."
						}
					]
				},
				"kind": "dev",
				"methods": {},
				"version": 1
			},
			"evm": {
				"assembly": "    /* \"H/HTTPS/HttpsStypeEIP712Verifier.sol\":122:556  contract EIP712HTTPS {... */\n  mstore(0x40, 0x80)\n  callvalue\n  dup1\n  iszero\n  tag_1\n  jumpi\n  0x00\n  dup1\n  revert\ntag_1:\n  pop\n  dataSize(sub_0)\n  dup1\n  dataOffset(sub_0)\n  0x00\n  codecopy\n  0x00\n  return\nstop\n\nsub_0: assembly {\n        /* \"H/HTTPS/HttpsStypeEIP712Verifier.sol\":122:556  contract EIP712HTTPS {... */\n      mstore(0x40, 0x80)\n      callvalue\n      dup1\n      iszero\n      tag_1\n      jumpi\n      0x00\n      dup1\n      revert\n    tag_1:\n      pop\n      jumpi(tag_2, lt(calldatasize, 0x04))\n      shr(0xe0, calldataload(0x00))\n      dup1\n      0x2dd34f0f\n      eq\n      tag_3\n      jumpi\n      dup1\n      0x52a9674b\n      eq\n      tag_4\n      jumpi\n    tag_2:\n      0x00\n      dup1\n      revert\n        /* \"H/HTTPS/HttpsStypeEIP712Verifier.sol\":254:554  function verify(address signer, string calldata data, bytes calldata sig) external pure returns (bool) {... */\n    tag_3:\n      tag_5\n      0x04\n      dup1\n      calldatasize\n      sub\n      dup2\n      add\n      swap1\n      tag_6\n      swap2\n      swap1\n      tag_7\n      jump\t// in\n    tag_6:\n      tag_8\n      jump\t// in\n    tag_5:\n      mload(0x40)\n      tag_9\n      swap2\n      swap1\n      tag_10\n      jump\t// in\n    tag_9:\n      mload(0x40)\n      dup1\n      swap2\n      sub\n      swap1\n      return\n        /* \"H/HTTPS/HttpsStypeEIP712Verifier.sol\":179:247  bytes32 public constant DOMAIN = keccak256(\"https://api.secure.com\") */\n    tag_4:\n      tag_11\n      tag_12\n      jump\t// in\n    tag_11:\n      mload(0x40)\n      tag_13\n      swap2\n      swap1\n      tag_14\n      jump\t// in\n    tag_13:\n      mload(0x40)\n      dup1\n      swap2\n      sub\n      swap1\n      return\n        /* \"H/HTTPS/HttpsStypeEIP712Verifier.sol\":254:554  function verify(address signer, string calldata data, bytes calldata sig) external pure returns (bool) {... */\n    tag_8:\n        /* \"H/HTTPS/HttpsStypeEIP712Verifier.sol\":351:355  bool */\n      0x00\n        /* \"H/HTTPS/HttpsStypeEIP712Verifier.sol\":367:382  bytes32 msgHash */\n      dup1\n        /* \"H/HTTPS/HttpsStypeEIP712Verifier.sol\":412:416  data */\n      dup6\n      dup6\n        /* \"H/HTTPS/HttpsStypeEIP712Verifier.sol\":395:417  abi.encodePacked(data) */\n      add(0x20, mload(0x40))\n      tag_16\n      swap3\n      swap2\n      swap1\n      tag_17\n      jump\t// in\n    tag_16:\n      mload(0x40)\n      0x20\n      dup2\n      dup4\n      sub\n      sub\n      dup2\n      mstore\n      swap1\n      0x40\n      mstore\n        /* \"H/HTTPS/HttpsStypeEIP712Verifier.sol\":385:418  keccak256(abi.encodePacked(data)) */\n      dup1\n      mload\n      swap1\n      0x20\n      add\n      keccak256\n        /* \"H/HTTPS/HttpsStypeEIP712Verifier.sol\":367:418  bytes32 msgHash = keccak256(abi.encodePacked(data)) */\n      swap1\n      pop\n        /* \"H/HTTPS/HttpsStypeEIP712Verifier.sol\":428:442  bytes32 digest */\n      0x00\n        /* \"H/HTTPS/HttpsStypeEIP712Verifier.sol\":212:247  keccak256(\"https://api.secure.com\") */\n      0x2738c67eb18604479d5d7f3b0994730495e03eac49d89f8918b5d7e18987f9a6\n        /* \"H/HTTPS/HttpsStypeEIP712Verifier.sol\":492:499  msgHash */\n      dup3\n        /* \"H/HTTPS/HttpsStypeEIP712Verifier.sol\":455:500  abi.encodePacked(\"\\x19\\x01\", DOMAIN, msgHash) */\n      add(0x20, mload(0x40))\n      tag_18\n      swap3\n      swap2\n      swap1\n      tag_19\n      jump\t// in\n    tag_18:\n      mload(0x40)\n      0x20\n      dup2\n      dup4\n      sub\n      sub\n      dup2\n      mstore\n      swap1\n      0x40\n      mstore\n        /* \"H/HTTPS/HttpsStypeEIP712Verifier.sol\":445:501  keccak256(abi.encodePacked(\"\\x19\\x01\", DOMAIN, msgHash)) */\n      dup1\n      mload\n      swap1\n      0x20\n      add\n      keccak256\n        /* \"H/HTTPS/HttpsStypeEIP712Verifier.sol\":428:501  bytes32 digest = keccak256(abi.encodePacked(\"\\x19\\x01\", DOMAIN, msgHash)) */\n      swap1\n      pop\n        /* \"H/HTTPS/HttpsStypeEIP712Verifier.sol\":541:547  signer */\n      dup8\n        /* \"H/HTTPS/HttpsStypeEIP712Verifier.sol\":518:547  digest.recover(sig) == signer */\n      0xffffffffffffffffffffffffffffffffffffffff\n      and\n        /* \"H/HTTPS/HttpsStypeEIP712Verifier.sol\":518:537  digest.recover(sig) */\n      tag_20\n        /* \"H/HTTPS/HttpsStypeEIP712Verifier.sol\":533:536  sig */\n      dup7\n      dup7\n        /* \"H/HTTPS/HttpsStypeEIP712Verifier.sol\":518:537  digest.recover(sig) */\n      dup1\n      dup1\n      0x1f\n      add\n      0x20\n      dup1\n      swap2\n      div\n      mul\n      0x20\n      add\n      mload(0x40)\n      swap1\n      dup2\n      add\n      0x40\n      mstore\n      dup1\n      swap4\n      swap3\n      swap2\n      swap1\n      dup2\n      dup2\n      mstore\n      0x20\n      add\n      dup4\n      dup4\n      dup1\n      dup3\n      dup5\n      calldatacopy\n      0x00\n      dup2\n      dup5\n      add\n      mstore\n      not(0x1f)\n      0x1f\n      dup3\n      add\n      and\n      swap1\n      pop\n      dup1\n      dup4\n      add\n      swap3\n      pop\n      pop\n      pop\n      pop\n      pop\n      pop\n      pop\n        /* \"H/HTTPS/HttpsStypeEIP712Verifier.sol\":518:524  digest */\n      dup4\n        /* \"H/HTTPS/HttpsStypeEIP712Verifier.sol\":518:532  digest.recover */\n      tag_21\n      swap1\n        /* \"H/HTTPS/HttpsStypeEIP712Verifier.sol\":518:537  digest.recover(sig) */\n      swap2\n      swap1\n      0xffffffff\n      and\n      jump\t// in\n    tag_20:\n        /* \"H/HTTPS/HttpsStypeEIP712Verifier.sol\":518:547  digest.recover(sig) == signer */\n      0xffffffffffffffffffffffffffffffffffffffff\n      and\n      eq\n        /* \"H/HTTPS/HttpsStypeEIP712Verifier.sol\":511:547  return digest.recover(sig) == signer */\n      swap3\n      pop\n      pop\n      pop\n        /* \"H/HTTPS/HttpsStypeEIP712Verifier.sol\":254:554  function verify(address signer, string calldata data, bytes calldata sig) external pure returns (bool) {... */\n      swap6\n      swap5\n      pop\n      pop\n      pop\n      pop\n      pop\n      jump\t// out\n        /* \"H/HTTPS/HttpsStypeEIP712Verifier.sol\":179:247  bytes32 public constant DOMAIN = keccak256(\"https://api.secure.com\") */\n    tag_12:\n        /* \"H/HTTPS/HttpsStypeEIP712Verifier.sol\":212:247  keccak256(\"https://api.secure.com\") */\n      0x2738c67eb18604479d5d7f3b0994730495e03eac49d89f8918b5d7e18987f9a6\n        /* \"H/HTTPS/HttpsStypeEIP712Verifier.sol\":179:247  bytes32 public constant DOMAIN = keccak256(\"https://api.secure.com\") */\n      dup2\n      jump\t// out\n        /* \"@openzeppelin/contracts/utils/cryptography/ECDSA.sol\":3714:3969  function recover(bytes32 hash, bytes memory signature) internal pure returns (address) {... */\n    tag_21:\n        /* \"@openzeppelin/contracts/utils/cryptography/ECDSA.sol\":3792:3799  address */\n      0x00\n        /* \"@openzeppelin/contracts/utils/cryptography/ECDSA.sol\":3812:3829  address recovered */\n      dup1\n        /* \"@openzeppelin/contracts/utils/cryptography/ECDSA.sol\":3831:3849  RecoverError error */\n      0x00\n        /* \"@openzeppelin/contracts/utils/cryptography/ECDSA.sol\":3851:3867  bytes32 errorArg */\n      dup1\n        /* \"@openzeppelin/contracts/utils/cryptography/ECDSA.sol\":3871:3898  tryRecover(hash, signature) */\n      tag_23\n        /* \"@openzeppelin/contracts/utils/cryptography/ECDSA.sol\":3882:3886  hash */\n      dup7\n        /* \"@openzeppelin/contracts/utils/cryptography/ECDSA.sol\":3888:3897  signature */\n      dup7\n        /* \"@openzeppelin/contracts/utils/cryptography/ECDSA.sol\":3871:3881  tryRecover */\n      tag_24\n        /* \"@openzeppelin/contracts/utils/cryptography/ECDSA.sol\":3871:3898  tryRecover(hash, signature) */\n      jump\t// in\n    tag_23:\n        /* \"@openzeppelin/contracts/utils/cryptography/ECDSA.sol\":3811:3898  (address recovered, RecoverError error, bytes32 errorArg) = tryRecover(hash, signature) */\n      swap3\n      pop\n      swap3\n      pop\n      swap3\n      pop\n        /* \"@openzeppelin/contracts/utils/cryptography/ECDSA.sol\":3908:3936  _throwError(error, errorArg) */\n      tag_25\n        /* \"@openzeppelin/contracts/utils/cryptography/ECDSA.sol\":3920:3925  error */\n      dup3\n        /* \"@openzeppelin/contracts/utils/cryptography/ECDSA.sol\":3927:3935  errorArg */\n      dup3\n        /* \"@openzeppelin/contracts/utils/cryptography/ECDSA.sol\":3908:3919  _throwError */\n      tag_26\n        /* \"@openzeppelin/contracts/utils/cryptography/ECDSA.sol\":3908:3936  _throwError(error, errorArg) */\n      jump\t// in\n    tag_25:\n        /* \"@openzeppelin/contracts/utils/cryptography/ECDSA.sol\":3953:3962  recovered */\n      dup3\n        /* \"@openzeppelin/contracts/utils/cryptography/ECDSA.sol\":3946:3962  return recovered */\n      swap4\n      pop\n      pop\n      pop\n      pop\n        /* \"@openzeppelin/contracts/utils/cryptography/ECDSA.sol\":3714:3969  function recover(bytes32 hash, bytes memory signature) internal pure returns (address) {... */\n      swap3\n      swap2\n      pop\n      pop\n      jump\t// out\n        /* \"@openzeppelin/contracts/utils/cryptography/ECDSA.sol\":2129:2907  function tryRecover(... */\n    tag_24:\n        /* \"@openzeppelin/contracts/utils/cryptography/ECDSA.sol\":2232:2249  address recovered */\n      0x00\n        /* \"@openzeppelin/contracts/utils/cryptography/ECDSA.sol\":2251:2267  RecoverError err */\n      dup1\n        /* \"@openzeppelin/contracts/utils/cryptography/ECDSA.sol\":2269:2283  bytes32 errArg */\n      0x00\n        /* \"@openzeppelin/contracts/utils/cryptography/ECDSA.sol\":2319:2321  65 */\n      0x41\n        /* \"@openzeppelin/contracts/utils/cryptography/ECDSA.sol\":2299:2308  signature */\n      dup5\n        /* \"@openzeppelin/contracts/utils/cryptography/ECDSA.sol\":2299:2315  signature.length */\n      mload\n        /* \"@openzeppelin/contracts/utils/cryptography/ECDSA.sol\":2299:2321  signature.length == 65 */\n      sub\n        /* \"@openzeppelin/contracts/utils/cryptography/ECDSA.sol\":2295:2901  if (signature.length == 65) {... */\n      tag_28\n      jumpi\n        /* \"@openzeppelin/contracts/utils/cryptography/ECDSA.sol\":2337:2346  bytes32 r */\n      0x00\n        /* \"@openzeppelin/contracts/utils/cryptography/ECDSA.sol\":2360:2369  bytes32 s */\n      dup1\n        /* \"@openzeppelin/contracts/utils/cryptography/ECDSA.sol\":2383:2390  uint8 v */\n      0x00\n        /* \"@openzeppelin/contracts/utils/cryptography/ECDSA.sol\":2604:2608  0x20 */\n      0x20\n        /* \"@openzeppelin/contracts/utils/cryptography/ECDSA.sol\":2593:2602  signature */\n      dup8\n        /* \"@openzeppelin/contracts/utils/cryptography/ECDSA.sol\":2589:2609  add(signature, 0x20) */\n      add\n        /* \"@openzeppelin/contracts/utils/cryptography/ECDSA.sol\":2583:2610  mload(add(signature, 0x20)) */\n      mload\n        /* \"@openzeppelin/contracts/utils/cryptography/ECDSA.sol\":2578:2610  r := mload(add(signature, 0x20)) */\n      swap3\n      pop\n        /* \"@openzeppelin/contracts/utils/cryptography/ECDSA.sol\":2653:2657  0x40 */\n      0x40\n        /* \"@openzeppelin/contracts/utils/cryptography/ECDSA.sol\":2642:2651  signature */\n      dup8\n        /* \"@openzeppelin/contracts/utils/cryptography/ECDSA.sol\":2638:2658  add(signature, 0x40) */\n      add\n        /* \"@openzeppelin/contracts/utils/cryptography/ECDSA.sol\":2632:2659  mload(add(signature, 0x40)) */\n      mload\n        /* \"@openzeppelin/contracts/utils/cryptography/ECDSA.sol\":2627:2659  s := mload(add(signature, 0x40)) */\n      swap2\n      pop\n        /* \"@openzeppelin/contracts/utils/cryptography/ECDSA.sol\":2710:2714  0x60 */\n      0x60\n        /* \"@openzeppelin/contracts/utils/cryptography/ECDSA.sol\":2699:2708  signature */\n      dup8\n        /* \"@openzeppelin/contracts/utils/cryptography/ECDSA.sol\":2695:2715  add(signature, 0x60) */\n      add\n        /* \"@openzeppelin/contracts/utils/cryptography/ECDSA.sol\":2689:2716  mload(add(signature, 0x60)) */\n      mload\n        /* \"@openzeppelin/contracts/utils/cryptography/ECDSA.sol\":2686:2687  0 */\n      0x00\n        /* \"@openzeppelin/contracts/utils/cryptography/ECDSA.sol\":2681:2717  byte(0, mload(add(signature, 0x60))) */\n      byte\n        /* \"@openzeppelin/contracts/utils/cryptography/ECDSA.sol\":2676:2717  v := byte(0, mload(add(signature, 0x60))) */\n      swap1\n      pop\n        /* \"@openzeppelin/contracts/utils/cryptography/ECDSA.sol\":2751:2776  tryRecover(hash, v, r, s) */\n      tag_29\n        /* \"@openzeppelin/contracts/utils/cryptography/ECDSA.sol\":2762:2766  hash */\n      dup9\n        /* \"@openzeppelin/contracts/utils/cryptography/ECDSA.sol\":2768:2769  v */\n      dup3\n        /* \"@openzeppelin/contracts/utils/cryptography/ECDSA.sol\":2771:2772  r */\n      dup6\n        /* \"@openzeppelin/contracts/utils/cryptography/ECDSA.sol\":2774:2775  s */\n      dup6\n        /* \"@openzeppelin/contracts/utils/cryptography/ECDSA.sol\":2751:2761  tryRecover */\n      tag_30\n        /* \"@openzeppelin/contracts/utils/cryptography/ECDSA.sol\":2751:2776  tryRecover(hash, v, r, s) */\n      jump\t// in\n    tag_29:\n        /* \"@openzeppelin/contracts/utils/cryptography/ECDSA.sol\":2744:2776  return tryRecover(hash, v, r, s) */\n      swap6\n      pop\n      swap6\n      pop\n      swap6\n      pop\n      pop\n      pop\n      pop\n      jump(tag_27)\n        /* \"@openzeppelin/contracts/utils/cryptography/ECDSA.sol\":2295:2901  if (signature.length == 65) {... */\n    tag_28:\n        /* \"@openzeppelin/contracts/utils/cryptography/ECDSA.sol\":2823:2824  0 */\n      0x00\n        /* \"@openzeppelin/contracts/utils/cryptography/ECDSA.sol\":2827:2862  RecoverError.InvalidSignatureLength */\n      0x02\n        /* \"@openzeppelin/contracts/utils/cryptography/ECDSA.sol\":2872:2881  signature */\n      dup6\n        /* \"@openzeppelin/contracts/utils/cryptography/ECDSA.sol\":2872:2888  signature.length */\n      mload\n        /* \"@openzeppelin/contracts/utils/cryptography/ECDSA.sol\":2864:2889  bytes32(signature.length) */\n      0x00\n      shl\n        /* \"@openzeppelin/contracts/utils/cryptography/ECDSA.sol\":2807:2890  return (address(0), RecoverError.InvalidSignatureLength, bytes32(signature.length)) */\n      swap3\n      pop\n      swap3\n      pop\n      swap3\n      pop\n        /* \"@openzeppelin/contracts/utils/cryptography/ECDSA.sol\":2129:2907  function tryRecover(... */\n    tag_27:\n      swap3\n      pop\n      swap3\n      pop\n      swap3\n      jump\t// out\n        /* \"@openzeppelin/contracts/utils/cryptography/ECDSA.sol\":7280:7812  function _throwError(RecoverError error, bytes32 errorArg) private pure {... */\n    tag_26:\n        /* \"@openzeppelin/contracts/utils/cryptography/ECDSA.sol\":7375:7395  RecoverError.NoError */\n      0x00\n        /* \"@openzeppelin/contracts/utils/cryptography/ECDSA.sol\":7366:7395  error == RecoverError.NoError */\n      0x03\n      dup2\n      gt\n      iszero\n      tag_33\n      jumpi\n      tag_34\n      tag_35\n      jump\t// in\n    tag_34:\n    tag_33:\n        /* \"@openzeppelin/contracts/utils/cryptography/ECDSA.sol\":7366:7371  error */\n      dup3\n        /* \"@openzeppelin/contracts/utils/cryptography/ECDSA.sol\":7366:7395  error == RecoverError.NoError */\n      0x03\n      dup2\n      gt\n      iszero\n      tag_36\n      jumpi\n      tag_37\n      tag_35\n      jump\t// in\n    tag_37:\n    tag_36:\n      sub\n        /* \"@openzeppelin/contracts/utils/cryptography/ECDSA.sol\":7362:7806  if (error == RecoverError.NoError) {... */\n      iszero\n        /* \"@openzeppelin/contracts/utils/cryptography/ECDSA.sol\":7411:7418  return; */\n      tag_32\n        /* \"@openzeppelin/contracts/utils/cryptography/ECDSA.sol\":7362:7806  if (error == RecoverError.NoError) {... */\n      jumpi\n        /* \"@openzeppelin/contracts/utils/cryptography/ECDSA.sol\":7471:7500  RecoverError.InvalidSignature */\n      0x01\n        /* \"@openzeppelin/contracts/utils/cryptography/ECDSA.sol\":7462:7500  error == RecoverError.InvalidSignature */\n      0x03\n      dup2\n      gt\n      iszero\n      tag_40\n      jumpi\n      tag_41\n      tag_35\n      jump\t// in\n    tag_41:\n    tag_40:\n        /* \"@openzeppelin/contracts/utils/cryptography/ECDSA.sol\":7462:7467  error */\n      dup3\n        /* \"@openzeppelin/contracts/utils/cryptography/ECDSA.sol\":7462:7500  error == RecoverError.InvalidSignature */\n      0x03\n      dup2\n      gt\n      iszero\n      tag_42\n      jumpi\n      tag_43\n      tag_35\n      jump\t// in\n    tag_43:\n    tag_42:\n      sub\n        /* \"@openzeppelin/contracts/utils/cryptography/ECDSA.sol\":7458:7806  if (error == RecoverError.InvalidSignature) {... */\n      tag_44\n      jumpi\n        /* \"@openzeppelin/contracts/utils/cryptography/ECDSA.sol\":7523:7546  ECDSAInvalidSignature() */\n      mload(0x40)\n      0xf645eedf00000000000000000000000000000000000000000000000000000000\n      dup2\n      mstore\n      0x04\n      add\n      mload(0x40)\n      dup1\n      swap2\n      sub\n      swap1\n      revert\n        /* \"@openzeppelin/contracts/utils/cryptography/ECDSA.sol\":7458:7806  if (error == RecoverError.InvalidSignature) {... */\n    tag_44:\n        /* \"@openzeppelin/contracts/utils/cryptography/ECDSA.sol\":7576:7611  RecoverError.InvalidSignatureLength */\n      0x02\n        /* \"@openzeppelin/contracts/utils/cryptography/ECDSA.sol\":7567:7611  error == RecoverError.InvalidSignatureLength */\n      0x03\n      dup2\n      gt\n      iszero\n      tag_46\n      jumpi\n      tag_47\n      tag_35\n      jump\t// in\n    tag_47:\n    tag_46:\n        /* \"@openzeppelin/contracts/utils/cryptography/ECDSA.sol\":7567:7572  error */\n      dup3\n        /* \"@openzeppelin/contracts/utils/cryptography/ECDSA.sol\":7567:7611  error == RecoverError.InvalidSignatureLength */\n      0x03\n      dup2\n      gt\n      iszero\n      tag_48\n      jumpi\n      tag_49\n      tag_35\n      jump\t// in\n    tag_49:\n    tag_48:\n      sub\n        /* \"@openzeppelin/contracts/utils/cryptography/ECDSA.sol\":7563:7806  if (error == RecoverError.InvalidSignatureLength) {... */\n      tag_50\n      jumpi\n        /* \"@openzeppelin/contracts/utils/cryptography/ECDSA.sol\":7670:7678  errorArg */\n      dup1\n        /* \"@openzeppelin/contracts/utils/cryptography/ECDSA.sol\":7662:7679  uint256(errorArg) */\n      0x00\n      shr\n        /* \"@openzeppelin/contracts/utils/cryptography/ECDSA.sol\":7634:7680  ECDSAInvalidSignatureLength(uint256(errorArg)) */\n      mload(0x40)\n      0xfce698f700000000000000000000000000000000000000000000000000000000\n      dup2\n      mstore\n      0x04\n      add\n      tag_51\n      swap2\n      swap1\n      tag_52\n      jump\t// in\n    tag_51:\n      mload(0x40)\n      dup1\n      swap2\n      sub\n      swap1\n      revert\n        /* \"@openzeppelin/contracts/utils/cryptography/ECDSA.sol\":7563:7806  if (error == RecoverError.InvalidSignatureLength) {... */\n    tag_50:\n        /* \"@openzeppelin/contracts/utils/cryptography/ECDSA.sol\":7710:7740  RecoverError.InvalidSignatureS */\n      0x03\n        /* \"@openzeppelin/contracts/utils/cryptography/ECDSA.sol\":7701:7740  error == RecoverError.InvalidSignatureS */\n      dup1\n      dup2\n      gt\n      iszero\n      tag_54\n      jumpi\n      tag_55\n      tag_35\n      jump\t// in\n    tag_55:\n    tag_54:\n        /* \"@openzeppelin/contracts/utils/cryptography/ECDSA.sol\":7701:7706  error */\n      dup3\n        /* \"@openzeppelin/contracts/utils/cryptography/ECDSA.sol\":7701:7740  error == RecoverError.InvalidSignatureS */\n      0x03\n      dup2\n      gt\n      iszero\n      tag_56\n      jumpi\n      tag_57\n      tag_35\n      jump\t// in\n    tag_57:\n    tag_56:\n      sub\n        /* \"@openzeppelin/contracts/utils/cryptography/ECDSA.sol\":7697:7806  if (error == RecoverError.InvalidSignatureS) {... */\n      tag_58\n      jumpi\n        /* \"@openzeppelin/contracts/utils/cryptography/ECDSA.sol\":7786:7794  errorArg */\n      dup1\n        /* \"@openzeppelin/contracts/utils/cryptography/ECDSA.sol\":7763:7795  ECDSAInvalidSignatureS(errorArg) */\n      mload(0x40)\n      0xd78bce0c00000000000000000000000000000000000000000000000000000000\n      dup2\n      mstore\n      0x04\n      add\n      tag_59\n      swap2\n      swap1\n      tag_14\n      jump\t// in\n    tag_59:\n      mload(0x40)\n      dup1\n      swap2\n      sub\n      swap1\n      revert\n        /* \"@openzeppelin/contracts/utils/cryptography/ECDSA.sol\":7697:7806  if (error == RecoverError.InvalidSignatureS) {... */\n    tag_58:\n        /* \"@openzeppelin/contracts/utils/cryptography/ECDSA.sol\":7280:7812  function _throwError(RecoverError error, bytes32 errorArg) private pure {... */\n    tag_32:\n      pop\n      pop\n      jump\t// out\n        /* \"@openzeppelin/contracts/utils/cryptography/ECDSA.sol\":5203:6754  function tryRecover(... */\n    tag_30:\n        /* \"@openzeppelin/contracts/utils/cryptography/ECDSA.sol\":5329:5346  address recovered */\n      0x00\n        /* \"@openzeppelin/contracts/utils/cryptography/ECDSA.sol\":5348:5364  RecoverError err */\n      dup1\n        /* \"@openzeppelin/contracts/utils/cryptography/ECDSA.sol\":5366:5380  bytes32 errArg */\n      0x00\n        /* \"@openzeppelin/contracts/utils/cryptography/ECDSA.sol\":6283:6349  0x7FFFFFFFFFFFFFFFFFFFFFFFFFFFFFFF5D576E7357A4501DDFE92F46681B20A0 */\n      0x7fffffffffffffffffffffffffffffff5d576e7357a4501ddfe92f46681b20a0\n        /* \"@openzeppelin/contracts/utils/cryptography/ECDSA.sol\":6278:6279  s */\n      dup5\n        /* \"@openzeppelin/contracts/utils/cryptography/ECDSA.sol\":6270:6280  uint256(s) */\n      0x00\n      shr\n        /* \"@openzeppelin/contracts/utils/cryptography/ECDSA.sol\":6270:6349  uint256(s) > 0x7FFFFFFFFFFFFFFFFFFFFFFFFFFFFFFF5D576E7357A4501DDFE92F46681B20A0 */\n      gt\n        /* \"@openzeppelin/contracts/utils/cryptography/ECDSA.sol\":6266:6430  if (uint256(s) > 0x7FFFFFFFFFFFFFFFFFFFFFFFFFFFFFFF5D576E7357A4501DDFE92F46681B20A0) {... */\n      iszero\n      tag_61\n      jumpi\n        /* \"@openzeppelin/contracts/utils/cryptography/ECDSA.sol\":6381:6382  0 */\n      0x00\n        /* \"@openzeppelin/contracts/utils/cryptography/ECDSA.sol\":6385:6415  RecoverError.InvalidSignatureS */\n      0x03\n        /* \"@openzeppelin/contracts/utils/cryptography/ECDSA.sol\":6417:6418  s */\n      dup6\n        /* \"@openzeppelin/contracts/utils/cryptography/ECDSA.sol\":6365:6419  return (address(0), RecoverError.InvalidSignatureS, s) */\n      swap3\n      pop\n      swap3\n      pop\n      swap3\n      pop\n      jump(tag_60)\n        /* \"@openzeppelin/contracts/utils/cryptography/ECDSA.sol\":6266:6430  if (uint256(s) > 0x7FFFFFFFFFFFFFFFFFFFFFFFFFFFFFFF5D576E7357A4501DDFE92F46681B20A0) {... */\n    tag_61:\n        /* \"@openzeppelin/contracts/utils/cryptography/ECDSA.sol\":6524:6538  address signer */\n      0x00\n        /* \"@openzeppelin/contracts/utils/cryptography/ECDSA.sol\":6541:6565  ecrecover(hash, v, r, s) */\n      0x01\n        /* \"@openzeppelin/contracts/utils/cryptography/ECDSA.sol\":6551:6555  hash */\n      dup9\n        /* \"@openzeppelin/contracts/utils/cryptography/ECDSA.sol\":6557:6558  v */\n      dup9\n        /* \"@openzeppelin/contracts/utils/cryptography/ECDSA.sol\":6560:6561  r */\n      dup9\n        /* \"@openzeppelin/contracts/utils/cryptography/ECDSA.sol\":6563:6564  s */\n      dup9\n        /* \"@openzeppelin/contracts/utils/cryptography/ECDSA.sol\":6541:6565  ecrecover(hash, v, r, s) */\n      mload(0x40)\n      0x00\n      dup2\n      mstore\n      0x20\n      add\n      0x40\n      mstore\n      mload(0x40)\n      tag_62\n      swap5\n      swap4\n      swap3\n      swap2\n      swap1\n      tag_63\n      jump\t// in\n    tag_62:\n      0x20\n      mload(0x40)\n      0x20\n      dup2\n      sub\n      swap1\n      dup1\n      dup5\n      sub\n      swap1\n      dup6\n      gas\n      staticcall\n      iszero\n      dup1\n      iszero\n      tag_65\n      jumpi\n      returndatasize\n      0x00\n      dup1\n      returndatacopy\n      revert(0x00, returndatasize)\n    tag_65:\n      pop\n      pop\n      pop\n      mload(sub(mload(0x40), 0x20))\n        /* \"@openzeppelin/contracts/utils/cryptography/ECDSA.sol\":6524:6565  address signer = ecrecover(hash, v, r, s) */\n      swap1\n      pop\n        /* \"@openzeppelin/contracts/utils/cryptography/ECDSA.sol\":6597:6598  0 */\n      0x00\n        /* \"@openzeppelin/contracts/utils/cryptography/ECDSA.sol\":6579:6599  signer == address(0) */\n      0xffffffffffffffffffffffffffffffffffffffff\n      and\n        /* \"@openzeppelin/contracts/utils/cryptography/ECDSA.sol\":6579:6585  signer */\n      dup2\n        /* \"@openzeppelin/contracts/utils/cryptography/ECDSA.sol\":6579:6599  signer == address(0) */\n      0xffffffffffffffffffffffffffffffffffffffff\n      and\n      sub\n        /* \"@openzeppelin/contracts/utils/cryptography/ECDSA.sol\":6575:6688  if (signer == address(0)) {... */\n      tag_66\n      jumpi\n        /* \"@openzeppelin/contracts/utils/cryptography/ECDSA.sol\":6631:6632  0 */\n      0x00\n        /* \"@openzeppelin/contracts/utils/cryptography/ECDSA.sol\":6635:6664  RecoverError.InvalidSignature */\n      0x01\n        /* \"@openzeppelin/contracts/utils/cryptography/ECDSA.sol\":6674:6675  0 */\n      0x00\n        /* \"@openzeppelin/contracts/utils/cryptography/ECDSA.sol\":6666:6676  bytes32(0) */\n      dup1\n      shl\n        /* \"@openzeppelin/contracts/utils/cryptography/ECDSA.sol\":6615:6677  return (address(0), RecoverError.InvalidSignature, bytes32(0)) */\n      swap4\n      pop\n      swap4\n      pop\n      swap4\n      pop\n      pop\n      jump(tag_60)\n        /* \"@openzeppelin/contracts/utils/cryptography/ECDSA.sol\":6575:6688  if (signer == address(0)) {... */\n    tag_66:\n        /* \"@openzeppelin/contracts/utils/cryptography/ECDSA.sol\":6706:6712  signer */\n      dup1\n        /* \"@openzeppelin/contracts/utils/cryptography/ECDSA.sol\":6714:6734  RecoverError.NoError */\n      0x00\n        /* \"@openzeppelin/contracts/utils/cryptography/ECDSA.sol\":6744:6745  0 */\n      dup1\n        /* \"@openzeppelin/contracts/utils/cryptography/ECDSA.sol\":6736:6746  bytes32(0) */\n      0x00\n      shl\n        /* \"@openzeppelin/contracts/utils/cryptography/ECDSA.sol\":6698:6747  return (signer, RecoverError.NoError, bytes32(0)) */\n      swap4\n      pop\n      swap4\n      pop\n      swap4\n      pop\n      pop\n        /* \"@openzeppelin/contracts/utils/cryptography/ECDSA.sol\":5203:6754  function tryRecover(... */\n    tag_60:\n      swap5\n      pop\n      swap5\n      pop\n      swap5\n      swap2\n      pop\n      pop\n      jump\t// out\n        /* \"#utility.yul\":88:205   */\n    tag_68:\n        /* \"#utility.yul\":197:198   */\n      0x00\n        /* \"#utility.yul\":194:195   */\n      dup1\n        /* \"#utility.yul\":187:199   */\n      revert\n        /* \"#utility.yul\":211:328   */\n    tag_69:\n        /* \"#utility.yul\":320:321   */\n      0x00\n        /* \"#utility.yul\":317:318   */\n      dup1\n        /* \"#utility.yul\":310:322   */\n      revert\n        /* \"#utility.yul\":334:460   */\n    tag_70:\n        /* \"#utility.yul\":371:378   */\n      0x00\n        /* \"#utility.yul\":411:453   */\n      0xffffffffffffffffffffffffffffffffffffffff\n        /* \"#utility.yul\":404:409   */\n      dup3\n        /* \"#utility.yul\":400:454   */\n      and\n        /* \"#utility.yul\":389:454   */\n      swap1\n      pop\n        /* \"#utility.yul\":334:460   */\n      swap2\n      swap1\n      pop\n      jump\t// out\n        /* \"#utility.yul\":466:562   */\n    tag_71:\n        /* \"#utility.yul\":503:510   */\n      0x00\n        /* \"#utility.yul\":532:556   */\n      tag_100\n        /* \"#utility.yul\":550:555   */\n      dup3\n        /* \"#utility.yul\":532:556   */\n      tag_70\n      jump\t// in\n    tag_100:\n        /* \"#utility.yul\":521:556   */\n      swap1\n      pop\n        /* \"#utility.yul\":466:562   */\n      swap2\n      swap1\n      pop\n      jump\t// out\n        /* \"#utility.yul\":568:690   */\n    tag_72:\n        /* \"#utility.yul\":641:665   */\n      tag_102\n        /* \"#utility.yul\":659:664   */\n      dup2\n        /* \"#utility.yul\":641:665   */\n      tag_71\n      jump\t// in\n    tag_102:\n        /* \"#utility.yul\":634:639   */\n      dup2\n        /* \"#utility.yul\":631:666   */\n      eq\n        /* \"#utility.yul\":621:684   */\n      tag_103\n      jumpi\n        /* \"#utility.yul\":680:681   */\n      0x00\n        /* \"#utility.yul\":677:678   */\n      dup1\n        /* \"#utility.yul\":670:682   */\n      revert\n        /* \"#utility.yul\":621:684   */\n    tag_103:\n        /* \"#utility.yul\":568:690   */\n      pop\n      jump\t// out\n        /* \"#utility.yul\":696:835   */\n    tag_73:\n        /* \"#utility.yul\":742:747   */\n      0x00\n        /* \"#utility.yul\":780:786   */\n      dup2\n        /* \"#utility.yul\":767:787   */\n      calldataload\n        /* \"#utility.yul\":758:787   */\n      swap1\n      pop\n        /* \"#utility.yul\":796:829   */\n      tag_105\n        /* \"#utility.yul\":823:828   */\n      dup2\n        /* \"#utility.yul\":796:829   */\n      tag_72\n      jump\t// in\n    tag_105:\n        /* \"#utility.yul\":696:835   */\n      swap3\n      swap2\n      pop\n      pop\n      jump\t// out\n        /* \"#utility.yul\":841:958   */\n    tag_74:\n        /* \"#utility.yul\":950:951   */\n      0x00\n        /* \"#utility.yul\":947:948   */\n      dup1\n        /* \"#utility.yul\":940:952   */\n      revert\n        /* \"#utility.yul\":964:1081   */\n    tag_75:\n        /* \"#utility.yul\":1073:1074   */\n      0x00\n        /* \"#utility.yul\":1070:1071   */\n      dup1\n        /* \"#utility.yul\":1063:1075   */\n      revert\n        /* \"#utility.yul\":1087:1204   */\n    tag_76:\n        /* \"#utility.yul\":1196:1197   */\n      0x00\n        /* \"#utility.yul\":1193:1194   */\n      dup1\n        /* \"#utility.yul\":1186:1198   */\n      revert\n        /* \"#utility.yul\":1224:1777   */\n    tag_77:\n        /* \"#utility.yul\":1282:1290   */\n      0x00\n        /* \"#utility.yul\":1292:1298   */\n      dup1\n        /* \"#utility.yul\":1342:1345   */\n      dup4\n        /* \"#utility.yul\":1335:1339   */\n      0x1f\n        /* \"#utility.yul\":1327:1333   */\n      dup5\n        /* \"#utility.yul\":1323:1340   */\n      add\n        /* \"#utility.yul\":1319:1346   */\n      slt\n        /* \"#utility.yul\":1309:1431   */\n      tag_110\n      jumpi\n        /* \"#utility.yul\":1350:1429   */\n      tag_111\n      tag_74\n      jump\t// in\n    tag_111:\n        /* \"#utility.yul\":1309:1431   */\n    tag_110:\n        /* \"#utility.yul\":1463:1469   */\n      dup3\n        /* \"#utility.yul\":1450:1470   */\n      calldataload\n        /* \"#utility.yul\":1440:1470   */\n      swap1\n      pop\n        /* \"#utility.yul\":1493:1511   */\n      0xffffffffffffffff\n        /* \"#utility.yul\":1485:1491   */\n      dup2\n        /* \"#utility.yul\":1482:1512   */\n      gt\n        /* \"#utility.yul\":1479:1596   */\n      iszero\n      tag_112\n      jumpi\n        /* \"#utility.yul\":1515:1594   */\n      tag_113\n      tag_75\n      jump\t// in\n    tag_113:\n        /* \"#utility.yul\":1479:1596   */\n    tag_112:\n        /* \"#utility.yul\":1629:1633   */\n      0x20\n        /* \"#utility.yul\":1621:1627   */\n      dup4\n        /* \"#utility.yul\":1617:1634   */\n      add\n        /* \"#utility.yul\":1605:1634   */\n      swap2\n      pop\n        /* \"#utility.yul\":1683:1686   */\n      dup4\n        /* \"#utility.yul\":1675:1679   */\n      0x01\n        /* \"#utility.yul\":1667:1673   */\n      dup3\n        /* \"#utility.yul\":1663:1680   */\n      mul\n        /* \"#utility.yul\":1653:1661   */\n      dup4\n        /* \"#utility.yul\":1649:1681   */\n      add\n        /* \"#utility.yul\":1646:1687   */\n      gt\n        /* \"#utility.yul\":1643:1771   */\n      iszero\n      tag_114\n      jumpi\n        /* \"#utility.yul\":1690:1769   */\n      tag_115\n      tag_76\n      jump\t// in\n    tag_115:\n        /* \"#utility.yul\":1643:1771   */\n    tag_114:\n        /* \"#utility.yul\":1224:1777   */\n      swap3\n      pop\n      swap3\n      swap1\n      pop\n      jump\t// out\n        /* \"#utility.yul\":1796:2348   */\n    tag_78:\n        /* \"#utility.yul\":1853:1861   */\n      0x00\n        /* \"#utility.yul\":1863:1869   */\n      dup1\n        /* \"#utility.yul\":1913:1916   */\n      dup4\n        /* \"#utility.yul\":1906:1910   */\n      0x1f\n        /* \"#utility.yul\":1898:1904   */\n      dup5\n        /* \"#utility.yul\":1894:1911   */\n      add\n        /* \"#utility.yul\":1890:1917   */\n      slt\n        /* \"#utility.yul\":1880:2002   */\n      tag_117\n      jumpi\n        /* \"#utility.yul\":1921:2000   */\n      tag_118\n      tag_74\n      jump\t// in\n    tag_118:\n        /* \"#utility.yul\":1880:2002   */\n    tag_117:\n        /* \"#utility.yul\":2034:2040   */\n      dup3\n        /* \"#utility.yul\":2021:2041   */\n      calldataload\n        /* \"#utility.yul\":2011:2041   */\n      swap1\n      pop\n        /* \"#utility.yul\":2064:2082   */\n      0xffffffffffffffff\n        /* \"#utility.yul\":2056:2062   */\n      dup2\n        /* \"#utility.yul\":2053:2083   */\n      gt\n        /* \"#utility.yul\":2050:2167   */\n      iszero\n      tag_119\n      jumpi\n        /* \"#utility.yul\":2086:2165   */\n      tag_120\n      tag_75\n      jump\t// in\n    tag_120:\n        /* \"#utility.yul\":2050:2167   */\n    tag_119:\n        /* \"#utility.yul\":2200:2204   */\n      0x20\n        /* \"#utility.yul\":2192:2198   */\n      dup4\n        /* \"#utility.yul\":2188:2205   */\n      add\n        /* \"#utility.yul\":2176:2205   */\n      swap2\n      pop\n        /* \"#utility.yul\":2254:2257   */\n      dup4\n        /* \"#utility.yul\":2246:2250   */\n      0x01\n        /* \"#utility.yul\":2238:2244   */\n      dup3\n        /* \"#utility.yul\":2234:2251   */\n      mul\n        /* \"#utility.yul\":2224:2232   */\n      dup4\n        /* \"#utility.yul\":2220:2252   */\n      add\n        /* \"#utility.yul\":2217:2258   */\n      gt\n        /* \"#utility.yul\":2214:2342   */\n      iszero\n      tag_121\n      jumpi\n        /* \"#utility.yul\":2261:2340   */\n      tag_122\n      tag_76\n      jump\t// in\n    tag_122:\n        /* \"#utility.yul\":2214:2342   */\n    tag_121:\n        /* \"#utility.yul\":1796:2348   */\n      swap3\n      pop\n      swap3\n      swap1\n      pop\n      jump\t// out\n        /* \"#utility.yul\":2354:3371   */\n    tag_7:\n        /* \"#utility.yul\":2454:2460   */\n      0x00\n        /* \"#utility.yul\":2462:2468   */\n      dup1\n        /* \"#utility.yul\":2470:2476   */\n      0x00\n        /* \"#utility.yul\":2478:2484   */\n      dup1\n        /* \"#utility.yul\":2486:2492   */\n      0x00\n        /* \"#utility.yul\":2535:2537   */\n      0x60\n        /* \"#utility.yul\":2523:2532   */\n      dup7\n        /* \"#utility.yul\":2514:2521   */\n      dup9\n        /* \"#utility.yul\":2510:2533   */\n      sub\n        /* \"#utility.yul\":2506:2538   */\n      slt\n        /* \"#utility.yul\":2503:2622   */\n      iszero\n      tag_124\n      jumpi\n        /* \"#utility.yul\":2541:2620   */\n      tag_125\n      tag_68\n      jump\t// in\n    tag_125:\n        /* \"#utility.yul\":2503:2622   */\n    tag_124:\n        /* \"#utility.yul\":2661:2662   */\n      0x00\n        /* \"#utility.yul\":2686:2739   */\n      tag_126\n        /* \"#utility.yul\":2731:2738   */\n      dup9\n        /* \"#utility.yul\":2722:2728   */\n      dup3\n        /* \"#utility.yul\":2711:2720   */\n      dup10\n        /* \"#utility.yul\":2707:2729   */\n      add\n        /* \"#utility.yul\":2686:2739   */\n      tag_73\n      jump\t// in\n    tag_126:\n        /* \"#utility.yul\":2676:2739   */\n      swap6\n      pop\n        /* \"#utility.yul\":2632:2749   */\n      pop\n        /* \"#utility.yul\":2816:2818   */\n      0x20\n        /* \"#utility.yul\":2805:2814   */\n      dup7\n        /* \"#utility.yul\":2801:2819   */\n      add\n        /* \"#utility.yul\":2788:2820   */\n      calldataload\n        /* \"#utility.yul\":2847:2865   */\n      0xffffffffffffffff\n        /* \"#utility.yul\":2839:2845   */\n      dup2\n        /* \"#utility.yul\":2836:2866   */\n      gt\n        /* \"#utility.yul\":2833:2950   */\n      iszero\n      tag_127\n      jumpi\n        /* \"#utility.yul\":2869:2948   */\n      tag_128\n      tag_69\n      jump\t// in\n    tag_128:\n        /* \"#utility.yul\":2833:2950   */\n    tag_127:\n        /* \"#utility.yul\":2982:3047   */\n      tag_129\n        /* \"#utility.yul\":3039:3046   */\n      dup9\n        /* \"#utility.yul\":3030:3036   */\n      dup3\n        /* \"#utility.yul\":3019:3028   */\n      dup10\n        /* \"#utility.yul\":3015:3037   */\n      add\n        /* \"#utility.yul\":2982:3047   */\n      tag_77\n      jump\t// in\n    tag_129:\n        /* \"#utility.yul\":2964:3047   */\n      swap5\n      pop\n      swap5\n      pop\n        /* \"#utility.yul\":2759:3057   */\n      pop\n        /* \"#utility.yul\":3124:3126   */\n      0x40\n        /* \"#utility.yul\":3113:3122   */\n      dup7\n        /* \"#utility.yul\":3109:3127   */\n      add\n        /* \"#utility.yul\":3096:3128   */\n      calldataload\n        /* \"#utility.yul\":3155:3173   */\n      0xffffffffffffffff\n        /* \"#utility.yul\":3147:3153   */\n      dup2\n        /* \"#utility.yul\":3144:3174   */\n      gt\n        /* \"#utility.yul\":3141:3258   */\n      iszero\n      tag_130\n      jumpi\n        /* \"#utility.yul\":3177:3256   */\n      tag_131\n      tag_69\n      jump\t// in\n    tag_131:\n        /* \"#utility.yul\":3141:3258   */\n    tag_130:\n        /* \"#utility.yul\":3290:3354   */\n      tag_132\n        /* \"#utility.yul\":3346:3353   */\n      dup9\n        /* \"#utility.yul\":3337:3343   */\n      dup3\n        /* \"#utility.yul\":3326:3335   */\n      dup10\n        /* \"#utility.yul\":3322:3344   */\n      add\n        /* \"#utility.yul\":3290:3354   */\n      tag_78\n      jump\t// in\n    tag_132:\n        /* \"#utility.yul\":3272:3354   */\n      swap3\n      pop\n      swap3\n      pop\n        /* \"#utility.yul\":3067:3364   */\n      pop\n        /* \"#utility.yul\":2354:3371   */\n      swap3\n      swap6\n      pop\n      swap3\n      swap6\n      swap1\n      swap4\n      pop\n      jump\t// out\n        /* \"#utility.yul\":3377:3467   */\n    tag_79:\n        /* \"#utility.yul\":3411:3418   */\n      0x00\n        /* \"#utility.yul\":3454:3459   */\n      dup2\n        /* \"#utility.yul\":3447:3460   */\n      iszero\n        /* \"#utility.yul\":3440:3461   */\n      iszero\n        /* \"#utility.yul\":3429:3461   */\n      swap1\n      pop\n        /* \"#utility.yul\":3377:3467   */\n      swap2\n      swap1\n      pop\n      jump\t// out\n        /* \"#utility.yul\":3473:3582   */\n    tag_80:\n        /* \"#utility.yul\":3554:3575   */\n      tag_135\n        /* \"#utility.yul\":3569:3574   */\n      dup2\n        /* \"#utility.yul\":3554:3575   */\n      tag_79\n      jump\t// in\n    tag_135:\n        /* \"#utility.yul\":3549:3552   */\n      dup3\n        /* \"#utility.yul\":3542:3576   */\n      mstore\n        /* \"#utility.yul\":3473:3582   */\n      pop\n      pop\n      jump\t// out\n        /* \"#utility.yul\":3588:3798   */\n    tag_10:\n        /* \"#utility.yul\":3675:3679   */\n      0x00\n        /* \"#utility.yul\":3713:3715   */\n      0x20\n        /* \"#utility.yul\":3702:3711   */\n      dup3\n        /* \"#utility.yul\":3698:3716   */\n      add\n        /* \"#utility.yul\":3690:3716   */\n      swap1\n      pop\n        /* \"#utility.yul\":3726:3791   */\n      tag_137\n        /* \"#utility.yul\":3788:3789   */\n      0x00\n        /* \"#utility.yul\":3777:3786   */\n      dup4\n        /* \"#utility.yul\":3773:3790   */\n      add\n        /* \"#utility.yul\":3764:3770   */\n      dup5\n        /* \"#utility.yul\":3726:3791   */\n      tag_80\n      jump\t// in\n    tag_137:\n        /* \"#utility.yul\":3588:3798   */\n      swap3\n      swap2\n      pop\n      pop\n      jump\t// out\n        /* \"#utility.yul\":3804:3881   */\n    tag_81:\n        /* \"#utility.yul\":3841:3848   */\n      0x00\n        /* \"#utility.yul\":3870:3875   */\n      dup2\n        /* \"#utility.yul\":3859:3875   */\n      swap1\n      pop\n        /* \"#utility.yul\":3804:3881   */\n      swap2\n      swap1\n      pop\n      jump\t// out\n        /* \"#utility.yul\":3887:4005   */\n    tag_82:\n        /* \"#utility.yul\":3974:3998   */\n      tag_140\n        /* \"#utility.yul\":3992:3997   */\n      dup2\n        /* \"#utility.yul\":3974:3998   */\n      tag_81\n      jump\t// in\n    tag_140:\n        /* \"#utility.yul\":3969:3972   */\n      dup3\n        /* \"#utility.yul\":3962:3999   */\n      mstore\n        /* \"#utility.yul\":3887:4005   */\n      pop\n      pop\n      jump\t// out\n        /* \"#utility.yul\":4011:4233   */\n    tag_14:\n        /* \"#utility.yul\":4104:4108   */\n      0x00\n        /* \"#utility.yul\":4142:4144   */\n      0x20\n        /* \"#utility.yul\":4131:4140   */\n      dup3\n        /* \"#utility.yul\":4127:4145   */\n      add\n        /* \"#utility.yul\":4119:4145   */\n      swap1\n      pop\n        /* \"#utility.yul\":4155:4226   */\n      tag_142\n        /* \"#utility.yul\":4223:4224   */\n      0x00\n        /* \"#utility.yul\":4212:4221   */\n      dup4\n        /* \"#utility.yul\":4208:4225   */\n      add\n        /* \"#utility.yul\":4199:4205   */\n      dup5\n        /* \"#utility.yul\":4155:4226   */\n      tag_82\n      jump\t// in\n    tag_142:\n        /* \"#utility.yul\":4011:4233   */\n      swap3\n      swap2\n      pop\n      pop\n      jump\t// out\n        /* \"#utility.yul\":4239:4387   */\n    tag_83:\n        /* \"#utility.yul\":4341:4352   */\n      0x00\n        /* \"#utility.yul\":4378:4381   */\n      dup2\n        /* \"#utility.yul\":4363:4381   */\n      swap1\n      pop\n        /* \"#utility.yul\":4239:4387   */\n      swap3\n      swap2\n      pop\n      pop\n      jump\t// out\n        /* \"#utility.yul\":4393:4541   */\n    tag_84:\n        /* \"#utility.yul\":4491:4497   */\n      dup3\n        /* \"#utility.yul\":4486:4489   */\n      dup2\n        /* \"#utility.yul\":4481:4484   */\n      dup4\n        /* \"#utility.yul\":4468:4498   */\n      calldatacopy\n        /* \"#utility.yul\":4532:4533   */\n      0x00\n        /* \"#utility.yul\":4523:4529   */\n      dup4\n        /* \"#utility.yul\":4518:4521   */\n      dup4\n        /* \"#utility.yul\":4514:4530   */\n      add\n        /* \"#utility.yul\":4507:4534   */\n      mstore\n        /* \"#utility.yul\":4393:4541   */\n      pop\n      pop\n      pop\n      jump\t// out\n        /* \"#utility.yul\":4571:4901   */\n    tag_85:\n        /* \"#utility.yul\":4687:4690   */\n      0x00\n        /* \"#utility.yul\":4708:4797   */\n      tag_146\n        /* \"#utility.yul\":4790:4796   */\n      dup4\n        /* \"#utility.yul\":4785:4788   */\n      dup6\n        /* \"#utility.yul\":4708:4797   */\n      tag_83\n      jump\t// in\n    tag_146:\n        /* \"#utility.yul\":4701:4797   */\n      swap4\n      pop\n        /* \"#utility.yul\":4807:4863   */\n      tag_147\n        /* \"#utility.yul\":4856:4862   */\n      dup4\n        /* \"#utility.yul\":4851:4854   */\n      dup6\n        /* \"#utility.yul\":4844:4849   */\n      dup5\n        /* \"#utility.yul\":4807:4863   */\n      tag_84\n      jump\t// in\n    tag_147:\n        /* \"#utility.yul\":4888:4894   */\n      dup3\n        /* \"#utility.yul\":4883:4886   */\n      dup5\n        /* \"#utility.yul\":4879:4895   */\n      add\n        /* \"#utility.yul\":4872:4895   */\n      swap1\n      pop\n        /* \"#utility.yul\":4571:4901   */\n      swap4\n      swap3\n      pop\n      pop\n      pop\n      jump\t// out\n        /* \"#utility.yul\":4907:5202   */\n    tag_17:\n        /* \"#utility.yul\":5049:5052   */\n      0x00\n        /* \"#utility.yul\":5071:5176   */\n      tag_149\n        /* \"#utility.yul\":5172:5175   */\n      dup3\n        /* \"#utility.yul\":5163:5169   */\n      dup5\n        /* \"#utility.yul\":5155:5161   */\n      dup7\n        /* \"#utility.yul\":5071:5176   */\n      tag_85\n      jump\t// in\n    tag_149:\n        /* \"#utility.yul\":5064:5176   */\n      swap2\n      pop\n        /* \"#utility.yul\":5193:5196   */\n      dup2\n        /* \"#utility.yul\":5186:5196   */\n      swap1\n      pop\n        /* \"#utility.yul\":4907:5202   */\n      swap4\n      swap3\n      pop\n      pop\n      pop\n      jump\t// out\n        /* \"#utility.yul\":5208:5422   */\n    tag_86:\n        /* \"#utility.yul\":5348:5414   */\n      0x1901000000000000000000000000000000000000000000000000000000000000\n        /* \"#utility.yul\":5344:5345   */\n      0x00\n        /* \"#utility.yul\":5336:5342   */\n      dup3\n        /* \"#utility.yul\":5332:5346   */\n      add\n        /* \"#utility.yul\":5325:5415   */\n      mstore\n        /* \"#utility.yul\":5208:5422   */\n      pop\n      jump\t// out\n        /* \"#utility.yul\":5428:5828   */\n    tag_87:\n        /* \"#utility.yul\":5588:5591   */\n      0x00\n        /* \"#utility.yul\":5609:5693   */\n      tag_152\n        /* \"#utility.yul\":5691:5692   */\n      0x02\n        /* \"#utility.yul\":5686:5689   */\n      dup4\n        /* \"#utility.yul\":5609:5693   */\n      tag_83\n      jump\t// in\n    tag_152:\n        /* \"#utility.yul\":5602:5693   */\n      swap2\n      pop\n        /* \"#utility.yul\":5702:5795   */\n      tag_153\n        /* \"#utility.yul\":5791:5794   */\n      dup3\n        /* \"#utility.yul\":5702:5795   */\n      tag_86\n      jump\t// in\n    tag_153:\n        /* \"#utility.yul\":5820:5821   */\n      0x02\n        /* \"#utility.yul\":5815:5818   */\n      dup3\n        /* \"#utility.yul\":5811:5822   */\n      add\n        /* \"#utility.yul\":5804:5822   */\n      swap1\n      pop\n        /* \"#utility.yul\":5428:5828   */\n      swap2\n      swap1\n      pop\n      jump\t// out\n        /* \"#utility.yul\":5834:5913   */\n    tag_88:\n        /* \"#utility.yul\":5873:5880   */\n      0x00\n        /* \"#utility.yul\":5902:5907   */\n      dup2\n        /* \"#utility.yul\":5891:5907   */\n      swap1\n      pop\n        /* \"#utility.yul\":5834:5913   */\n      swap2\n      swap1\n      pop\n      jump\t// out\n        /* \"#utility.yul\":5919:6076   */\n    tag_89:\n        /* \"#utility.yul\":6024:6069   */\n      tag_156\n        /* \"#utility.yul\":6044:6068   */\n      tag_157\n        /* \"#utility.yul\":6062:6067   */\n      dup3\n        /* \"#utility.yul\":6044:6068   */\n      tag_81\n      jump\t// in\n    tag_157:\n        /* \"#utility.yul\":6024:6069   */\n      tag_88\n      jump\t// in\n    tag_156:\n        /* \"#utility.yul\":6019:6022   */\n      dup3\n        /* \"#utility.yul\":6012:6070   */\n      mstore\n        /* \"#utility.yul\":5919:6076   */\n      pop\n      pop\n      jump\t// out\n        /* \"#utility.yul\":6082:6745   */\n    tag_19:\n        /* \"#utility.yul\":6323:6326   */\n      0x00\n        /* \"#utility.yul\":6345:6493   */\n      tag_159\n        /* \"#utility.yul\":6489:6492   */\n      dup3\n        /* \"#utility.yul\":6345:6493   */\n      tag_87\n      jump\t// in\n    tag_159:\n        /* \"#utility.yul\":6338:6493   */\n      swap2\n      pop\n        /* \"#utility.yul\":6503:6578   */\n      tag_160\n        /* \"#utility.yul\":6574:6577   */\n      dup3\n        /* \"#utility.yul\":6565:6571   */\n      dup6\n        /* \"#utility.yul\":6503:6578   */\n      tag_89\n      jump\t// in\n    tag_160:\n        /* \"#utility.yul\":6603:6605   */\n      0x20\n        /* \"#utility.yul\":6598:6601   */\n      dup3\n        /* \"#utility.yul\":6594:6606   */\n      add\n        /* \"#utility.yul\":6587:6606   */\n      swap2\n      pop\n        /* \"#utility.yul\":6616:6691   */\n      tag_161\n        /* \"#utility.yul\":6687:6690   */\n      dup3\n        /* \"#utility.yul\":6678:6684   */\n      dup5\n        /* \"#utility.yul\":6616:6691   */\n      tag_89\n      jump\t// in\n    tag_161:\n        /* \"#utility.yul\":6716:6718   */\n      0x20\n        /* \"#utility.yul\":6711:6714   */\n      dup3\n        /* \"#utility.yul\":6707:6719   */\n      add\n        /* \"#utility.yul\":6700:6719   */\n      swap2\n      pop\n        /* \"#utility.yul\":6736:6739   */\n      dup2\n        /* \"#utility.yul\":6729:6739   */\n      swap1\n      pop\n        /* \"#utility.yul\":6082:6745   */\n      swap4\n      swap3\n      pop\n      pop\n      pop\n      jump\t// out\n        /* \"#utility.yul\":6751:6931   */\n    tag_35:\n        /* \"#utility.yul\":6799:6876   */\n      0x4e487b7100000000000000000000000000000000000000000000000000000000\n        /* \"#utility.yul\":6796:6797   */\n      0x00\n        /* \"#utility.yul\":6789:6877   */\n      mstore\n        /* \"#utility.yul\":6896:6900   */\n      0x21\n        /* \"#utility.yul\":6893:6894   */\n      0x04\n        /* \"#utility.yul\":6886:6901   */\n      mstore\n        /* \"#utility.yul\":6920:6924   */\n      0x24\n        /* \"#utility.yul\":6917:6918   */\n      0x00\n        /* \"#utility.yul\":6910:6925   */\n      revert\n        /* \"#utility.yul\":6937:7014   */\n    tag_90:\n        /* \"#utility.yul\":6974:6981   */\n      0x00\n        /* \"#utility.yul\":7003:7008   */\n      dup2\n        /* \"#utility.yul\":6992:7008   */\n      swap1\n      pop\n        /* \"#utility.yul\":6937:7014   */\n      swap2\n      swap1\n      pop\n      jump\t// out\n        /* \"#utility.yul\":7020:7138   */\n    tag_91:\n        /* \"#utility.yul\":7107:7131   */\n      tag_165\n        /* \"#utility.yul\":7125:7130   */\n      dup2\n        /* \"#utility.yul\":7107:7131   */\n      tag_90\n      jump\t// in\n    tag_165:\n        /* \"#utility.yul\":7102:7105   */\n      dup3\n        /* \"#utility.yul\":7095:7132   */\n      mstore\n        /* \"#utility.yul\":7020:7138   */\n      pop\n      pop\n      jump\t// out\n        /* \"#utility.yul\":7144:7366   */\n    tag_52:\n        /* \"#utility.yul\":7237:7241   */\n      0x00\n        /* \"#utility.yul\":7275:7277   */\n      0x20\n        /* \"#utility.yul\":7264:7273   */\n      dup3\n        /* \"#utility.yul\":7260:7278   */\n      add\n        /* \"#utility.yul\":7252:7278   */\n      swap1\n      pop\n        /* \"#utility.yul\":7288:7359   */\n      tag_167\n        /* \"#utility.yul\":7356:7357   */\n      0x00\n        /* \"#utility.yul\":7345:7354   */\n      dup4\n        /* \"#utility.yul\":7341:7358   */\n      add\n        /* \"#utility.yul\":7332:7338   */\n      dup5\n        /* \"#utility.yul\":7288:7359   */\n      tag_91\n      jump\t// in\n    tag_167:\n        /* \"#utility.yul\":7144:7366   */\n      swap3\n      swap2\n      pop\n      pop\n      jump\t// out\n        /* \"#utility.yul\":7372:7458   */\n    tag_92:\n        /* \"#utility.yul\":7407:7414   */\n      0x00\n        /* \"#utility.yul\":7447:7451   */\n      0xff\n        /* \"#utility.yul\":7440:7445   */\n      dup3\n        /* \"#utility.yul\":7436:7452   */\n      and\n        /* \"#utility.yul\":7425:7452   */\n      swap1\n      pop\n        /* \"#utility.yul\":7372:7458   */\n      swap2\n      swap1\n      pop\n      jump\t// out\n        /* \"#utility.yul\":7464:7576   */\n    tag_93:\n        /* \"#utility.yul\":7547:7569   */\n      tag_170\n        /* \"#utility.yul\":7563:7568   */\n      dup2\n        /* \"#utility.yul\":7547:7569   */\n      tag_92\n      jump\t// in\n    tag_170:\n        /* \"#utility.yul\":7542:7545   */\n      dup3\n        /* \"#utility.yul\":7535:7570   */\n      mstore\n        /* \"#utility.yul\":7464:7576   */\n      pop\n      pop\n      jump\t// out\n        /* \"#utility.yul\":7582:8127   */\n    tag_63:\n        /* \"#utility.yul\":7755:7759   */\n      0x00\n        /* \"#utility.yul\":7793:7796   */\n      0x80\n        /* \"#utility.yul\":7782:7791   */\n      dup3\n        /* \"#utility.yul\":7778:7797   */\n      add\n        /* \"#utility.yul\":7770:7797   */\n      swap1\n      pop\n        /* \"#utility.yul\":7807:7878   */\n      tag_172\n        /* \"#utility.yul\":7875:7876   */\n      0x00\n        /* \"#utility.yul\":7864:7873   */\n      dup4\n        /* \"#utility.yul\":7860:7877   */\n      add\n        /* \"#utility.yul\":7851:7857   */\n      dup8\n        /* \"#utility.yul\":7807:7878   */\n      tag_82\n      jump\t// in\n    tag_172:\n        /* \"#utility.yul\":7888:7956   */\n      tag_173\n        /* \"#utility.yul\":7952:7954   */\n      0x20\n        /* \"#utility.yul\":7941:7950   */\n      dup4\n        /* \"#utility.yul\":7937:7955   */\n      add\n        /* \"#utility.yul\":7928:7934   */\n      dup7\n        /* \"#utility.yul\":7888:7956   */\n      tag_93\n      jump\t// in\n    tag_173:\n        /* \"#utility.yul\":7966:8038   */\n      tag_174\n        /* \"#utility.yul\":8034:8036   */\n      0x40\n        /* \"#utility.yul\":8023:8032   */\n      dup4\n        /* \"#utility.yul\":8019:8037   */\n      add\n        /* \"#utility.yul\":8010:8016   */\n      dup6\n        /* \"#utility.yul\":7966:8038   */\n      tag_82\n      jump\t// in\n    tag_174:\n        /* \"#utility.yul\":8048:8120   */\n      tag_175\n        /* \"#utility.yul\":8116:8118   */\n      0x60\n        /* \"#utility.yul\":8105:8114   */\n      dup4\n        /* \"#utility.yul\":8101:8119   */\n      add\n        /* \"#utility.yul\":8092:8098   */\n      dup5\n        /* \"#utility.yul\":8048:8120   */\n      tag_82\n      jump\t// in\n    tag_175:\n        /* \"#utility.yul\":7582:8127   */\n      swap6\n      swap5\n      pop\n      pop\n      pop\n      pop\n      pop\n      jump\t// out\n\n    auxdata: 0xa2646970667358221220f80abf3109f8cc778293dfddc444ed31f862ae21592ddf82c57d3d0a6173b5d364736f6c634300081a0033\n}\n",
				"bytecode": {
					"linkReferences": {},
					"object": "6080604052348015600e575f80fd5b5061086f8061001c5f395ff3fe608060405234801561000f575f80fd5b5060043610610034575f3560e01c80632dd34f0f1461003857806352a9674b14610068575b5f80fd5b610052600480360381019061004d9190610594565b610086565b60405161005f919061063f565b60405180910390f35b610070610190565b60405161007d9190610670565b60405180910390f35b5f80858560405160200161009b9291906106c5565b6040516020818303038152906040528051906020012090505f7f2738c67eb18604479d5d7f3b0994730495e03eac49d89f8918b5d7e18987f9a6826040516020016100e7929190610747565b6040516020818303038152906040528051906020012090508773ffffffffffffffffffffffffffffffffffffffff1661016c86868080601f0160208091040260200160405190810160405280939291908181526020018383808284375f81840152601f19601f82011690508083019250505050505050836101b490919063ffffffff16565b73ffffffffffffffffffffffffffffffffffffffff16149250505095945050505050565b7f2738c67eb18604479d5d7f3b0994730495e03eac49d89f8918b5d7e18987f9a681565b5f805f806101c286866101de565b9250925092506101d28282610233565b82935050505092915050565b5f805f604184510361021e575f805f602087015192506040870151915060608701515f1a905061021088828585610395565b95509550955050505061022c565b5f600285515f1b9250925092505b9250925092565b5f60038111156102465761024561077d565b5b8260038111156102595761025861077d565b5b031561039157600160038111156102735761027261077d565b5b8260038111156102865761028561077d565b5b036102bd576040517ff645eedf00000000000000000000000000000000000000000000000000000000815260040160405180910390fd5b600260038111156102d1576102d061077d565b5b8260038111156102e4576102e361077d565b5b0361032857805f1c6040517ffce698f700000000000000000000000000000000000000000000000000000000815260040161031f91906107c2565b60405180910390fd5b60038081111561033b5761033a61077d565b5b82600381111561034e5761034d61077d565b5b0361039057806040517fd78bce0c0000000000000000000000000000000000000000000000000000000081526004016103879190610670565b60405180910390fd5b5b5050565b5f805f7f7fffffffffffffffffffffffffffffff5d576e7357a4501ddfe92f46681b20a0845f1c11156103d1575f600385925092509250610472565b5f6001888888886040515f81526020016040526040516103f494939291906107f6565b6020604051602081039080840390855afa158015610414573d5f803e3d5ffd5b5050506020604051035190505f73ffffffffffffffffffffffffffffffffffffffff168173ffffffffffffffffffffffffffffffffffffffff1603610465575f60015f801b93509350935050610472565b805f805f1b935093509350505b9450945094915050565b5f80fd5b5f80fd5b5f73ffffffffffffffffffffffffffffffffffffffff82169050919050565b5f6104ad82610484565b9050919050565b6104bd816104a3565b81146104c7575f80fd5b50565b5f813590506104d8816104b4565b92915050565b5f80fd5b5f80fd5b5f80fd5b5f8083601f8401126104ff576104fe6104de565b5b8235905067ffffffffffffffff81111561051c5761051b6104e2565b5b602083019150836001820283011115610538576105376104e6565b5b9250929050565b5f8083601f840112610554576105536104de565b5b8235905067ffffffffffffffff811115610571576105706104e2565b5b60208301915083600182028301111561058d5761058c6104e6565b5b9250929050565b5f805f805f606086880312156105ad576105ac61047c565b5b5f6105ba888289016104ca565b955050602086013567ffffffffffffffff8111156105db576105da610480565b5b6105e7888289016104ea565b9450945050604086013567ffffffffffffffff81111561060a57610609610480565b5b6106168882890161053f565b92509250509295509295909350565b5f8115159050919050565b61063981610625565b82525050565b5f6020820190506106525f830184610630565b92915050565b5f819050919050565b61066a81610658565b82525050565b5f6020820190506106835f830184610661565b92915050565b5f81905092915050565b828183375f83830152505050565b5f6106ac8385610689565b93506106b9838584610693565b82840190509392505050565b5f6106d18284866106a1565b91508190509392505050565b7f19010000000000000000000000000000000000000000000000000000000000005f82015250565b5f610711600283610689565b915061071c826106dd565b600282019050919050565b5f819050919050565b61074161073c82610658565b610727565b82525050565b5f61075182610705565b915061075d8285610730565b60208201915061076d8284610730565b6020820191508190509392505050565b7f4e487b71000000000000000000000000000000000000000000000000000000005f52602160045260245ffd5b5f819050919050565b6107bc816107aa565b82525050565b5f6020820190506107d55f8301846107b3565b92915050565b5f60ff82169050919050565b6107f0816107db565b82525050565b5f6080820190506108095f830187610661565b61081660208301866107e7565b6108236040830185610661565b6108306060830184610661565b9594505050505056fea2646970667358221220f80abf3109f8cc778293dfddc444ed31f862ae21592ddf82c57d3d0a6173b5d364736f6c634300081a0033",
					"opcodes": "PUSH1 0x80 PUSH1 0x40 MSTORE CALLVALUE DUP1 ISZERO PUSH1 0xE JUMPI PUSH0 DUP1 REVERT JUMPDEST POP PUSH2 0x86F DUP1 PUSH2 0x1C PUSH0 CODECOPY PUSH0 RETURN INVALID PUSH1 0x80 PUSH1 0x40 MSTORE CALLVALUE DUP1 ISZERO PUSH2 0xF JUMPI PUSH0 DUP1 REVERT JUMPDEST POP PUSH1 0x4 CALLDATASIZE LT PUSH2 0x34 JUMPI PUSH0 CALLDATALOAD PUSH1 0xE0 SHR DUP1 PUSH4 0x2DD34F0F EQ PUSH2 0x38 JUMPI DUP1 PUSH4 0x52A9674B EQ PUSH2 0x68 JUMPI JUMPDEST PUSH0 DUP1 REVERT JUMPDEST PUSH2 0x52 PUSH1 0x4 DUP1 CALLDATASIZE SUB DUP2 ADD SWAP1 PUSH2 0x4D SWAP2 SWAP1 PUSH2 0x594 JUMP JUMPDEST PUSH2 0x86 JUMP JUMPDEST PUSH1 0x40 MLOAD PUSH2 0x5F SWAP2 SWAP1 PUSH2 0x63F JUMP JUMPDEST PUSH1 0x40 MLOAD DUP1 SWAP2 SUB SWAP1 RETURN JUMPDEST PUSH2 0x70 PUSH2 0x190 JUMP JUMPDEST PUSH1 0x40 MLOAD PUSH2 0x7D SWAP2 SWAP1 PUSH2 0x670 JUMP JUMPDEST PUSH1 0x40 MLOAD DUP1 SWAP2 SUB SWAP1 RETURN JUMPDEST PUSH0 DUP1 DUP6 DUP6 PUSH1 0x40 MLOAD PUSH1 0x20 ADD PUSH2 0x9B SWAP3 SWAP2 SWAP1 PUSH2 0x6C5 JUMP JUMPDEST PUSH1 0x40 MLOAD PUSH1 0x20 DUP2 DUP4 SUB SUB DUP2 MSTORE SWAP1 PUSH1 0x40 MSTORE DUP1 MLOAD SWAP1 PUSH1 0x20 ADD KECCAK256 SWAP1 POP PUSH0 PUSH32 0x2738C67EB18604479D5D7F3B0994730495E03EAC49D89F8918B5D7E18987F9A6 DUP3 PUSH1 0x40 MLOAD PUSH1 0x20 ADD PUSH2 0xE7 SWAP3 SWAP2 SWAP1 PUSH2 0x747 JUMP JUMPDEST PUSH1 0x40 MLOAD PUSH1 0x20 DUP2 DUP4 SUB SUB DUP2 MSTORE SWAP1 PUSH1 0x40 MSTORE DUP1 MLOAD SWAP1 PUSH1 0x20 ADD KECCAK256 SWAP1 POP DUP8 PUSH20 0xFFFFFFFFFFFFFFFFFFFFFFFFFFFFFFFFFFFFFFFF AND PUSH2 0x16C DUP7 DUP7 DUP1 DUP1 PUSH1 0x1F ADD PUSH1 0x20 DUP1 SWAP2 DIV MUL PUSH1 0x20 ADD PUSH1 0x40 MLOAD SWAP1 DUP2 ADD PUSH1 0x40 MSTORE DUP1 SWAP4 SWAP3 SWAP2 SWAP1 DUP2 DUP2 MSTORE PUSH1 0x20 ADD DUP4 DUP4 DUP1 DUP3 DUP5 CALLDATACOPY PUSH0 DUP2 DUP5 ADD MSTORE PUSH1 0x1F NOT PUSH1 0x1F DUP3 ADD AND SWAP1 POP DUP1 DUP4 ADD SWAP3 POP POP POP POP POP POP POP DUP4 PUSH2 0x1B4 SWAP1 SWAP2 SWAP1 PUSH4 0xFFFFFFFF AND JUMP JUMPDEST PUSH20 0xFFFFFFFFFFFFFFFFFFFFFFFFFFFFFFFFFFFFFFFF AND EQ SWAP3 POP POP POP SWAP6 SWAP5 POP POP POP POP POP JUMP JUMPDEST PUSH32 0x2738C67EB18604479D5D7F3B0994730495E03EAC49D89F8918B5D7E18987F9A6 DUP2 JUMP JUMPDEST PUSH0 DUP1 PUSH0 DUP1 PUSH2 0x1C2 DUP7 DUP7 PUSH2 0x1DE JUMP JUMPDEST SWAP3 POP SWAP3 POP SWAP3 POP PUSH2 0x1D2 DUP3 DUP3 PUSH2 0x233 JUMP JUMPDEST DUP3 SWAP4 POP POP POP POP SWAP3 SWAP2 POP POP JUMP JUMPDEST PUSH0 DUP1 PUSH0 PUSH1 0x41 DUP5 MLOAD SUB PUSH2 0x21E JUMPI PUSH0 DUP1 PUSH0 PUSH1 0x20 DUP8 ADD MLOAD SWAP3 POP PUSH1 0x40 DUP8 ADD MLOAD SWAP2 POP PUSH1 0x60 DUP8 ADD MLOAD PUSH0 BYTE SWAP1 POP PUSH2 0x210 DUP9 DUP3 DUP6 DUP6 PUSH2 0x395 JUMP JUMPDEST SWAP6 POP SWAP6 POP SWAP6 POP POP POP POP PUSH2 0x22C JUMP JUMPDEST PUSH0 PUSH1 0x2 DUP6 MLOAD PUSH0 SHL SWAP3 POP SWAP3 POP SWAP3 POP JUMPDEST SWAP3 POP SWAP3 POP SWAP3 JUMP JUMPDEST PUSH0 PUSH1 0x3 DUP2 GT ISZERO PUSH2 0x246 JUMPI PUSH2 0x245 PUSH2 0x77D JUMP JUMPDEST JUMPDEST DUP3 PUSH1 0x3 DUP2 GT ISZERO PUSH2 0x259 JUMPI PUSH2 0x258 PUSH2 0x77D JUMP JUMPDEST JUMPDEST SUB ISZERO PUSH2 0x391 JUMPI PUSH1 0x1 PUSH1 0x3 DUP2 GT ISZERO PUSH2 0x273 JUMPI PUSH2 0x272 PUSH2 0x77D JUMP JUMPDEST JUMPDEST DUP3 PUSH1 0x3 DUP2 GT ISZERO PUSH2 0x286 JUMPI PUSH2 0x285 PUSH2 0x77D JUMP JUMPDEST JUMPDEST SUB PUSH2 0x2BD JUMPI PUSH1 0x40 MLOAD PUSH32 0xF645EEDF00000000000000000000000000000000000000000000000000000000 DUP2 MSTORE PUSH1 0x4 ADD PUSH1 0x40 MLOAD DUP1 SWAP2 SUB SWAP1 REVERT JUMPDEST PUSH1 0x2 PUSH1 0x3 DUP2 GT ISZERO PUSH2 0x2D1 JUMPI PUSH2 0x2D0 PUSH2 0x77D JUMP JUMPDEST JUMPDEST DUP3 PUSH1 0x3 DUP2 GT ISZERO PUSH2 0x2E4 JUMPI PUSH2 0x2E3 PUSH2 0x77D JUMP JUMPDEST JUMPDEST SUB PUSH2 0x328 JUMPI DUP1 PUSH0 SHR PUSH1 0x40 MLOAD PUSH32 0xFCE698F700000000000000000000000000000000000000000000000000000000 DUP2 MSTORE PUSH1 0x4 ADD PUSH2 0x31F SWAP2 SWAP1 PUSH2 0x7C2 JUMP JUMPDEST PUSH1 0x40 MLOAD DUP1 SWAP2 SUB SWAP1 REVERT JUMPDEST PUSH1 0x3 DUP1 DUP2 GT ISZERO PUSH2 0x33B JUMPI PUSH2 0x33A PUSH2 0x77D JUMP JUMPDEST JUMPDEST DUP3 PUSH1 0x3 DUP2 GT ISZERO PUSH2 0x34E JUMPI PUSH2 0x34D PUSH2 0x77D JUMP JUMPDEST JUMPDEST SUB PUSH2 0x390 JUMPI DUP1 PUSH1 0x40 MLOAD PUSH32 0xD78BCE0C00000000000000000000000000000000000000000000000000000000 DUP2 MSTORE PUSH1 0x4 ADD PUSH2 0x387 SWAP2 SWAP1 PUSH2 0x670 JUMP JUMPDEST PUSH1 0x40 MLOAD DUP1 SWAP2 SUB SWAP1 REVERT JUMPDEST JUMPDEST POP POP JUMP JUMPDEST PUSH0 DUP1 PUSH0 PUSH32 0x7FFFFFFFFFFFFFFFFFFFFFFFFFFFFFFF5D576E7357A4501DDFE92F46681B20A0 DUP5 PUSH0 SHR GT ISZERO PUSH2 0x3D1 JUMPI PUSH0 PUSH1 0x3 DUP6 SWAP3 POP SWAP3 POP SWAP3 POP PUSH2 0x472 JUMP JUMPDEST PUSH0 PUSH1 0x1 DUP9 DUP9 DUP9 DUP9 PUSH1 0x40 MLOAD PUSH0 DUP2 MSTORE PUSH1 0x20 ADD PUSH1 0x40 MSTORE PUSH1 0x40 MLOAD PUSH2 0x3F4 SWAP5 SWAP4 SWAP3 SWAP2 SWAP1 PUSH2 0x7F6 JUMP JUMPDEST PUSH1 0x20 PUSH1 0x40 MLOAD PUSH1 0x20 DUP2 SUB SWAP1 DUP1 DUP5 SUB SWAP1 DUP6 GAS STATICCALL ISZERO DUP1 ISZERO PUSH2 0x414 JUMPI RETURNDATASIZE PUSH0 DUP1 RETURNDATACOPY RETURNDATASIZE PUSH0 REVERT JUMPDEST POP POP POP PUSH1 0x20 PUSH1 0x40 MLOAD SUB MLOAD SWAP1 POP PUSH0 PUSH20 0xFFFFFFFFFFFFFFFFFFFFFFFFFFFFFFFFFFFFFFFF AND DUP2 PUSH20 0xFFFFFFFFFFFFFFFFFFFFFFFFFFFFFFFFFFFFFFFF AND SUB PUSH2 0x465 JUMPI PUSH0 PUSH1 0x1 PUSH0 DUP1 SHL SWAP4 POP SWAP4 POP SWAP4 POP POP PUSH2 0x472 JUMP JUMPDEST DUP1 PUSH0 DUP1 PUSH0 SHL SWAP4 POP SWAP4 POP SWAP4 POP POP JUMPDEST SWAP5 POP SWAP5 POP SWAP5 SWAP2 POP POP JUMP JUMPDEST PUSH0 DUP1 REVERT JUMPDEST PUSH0 DUP1 REVERT JUMPDEST PUSH0 PUSH20 0xFFFFFFFFFFFFFFFFFFFFFFFFFFFFFFFFFFFFFFFF DUP3 AND SWAP1 POP SWAP2 SWAP1 POP JUMP JUMPDEST PUSH0 PUSH2 0x4AD DUP3 PUSH2 0x484 JUMP JUMPDEST SWAP1 POP SWAP2 SWAP1 POP JUMP JUMPDEST PUSH2 0x4BD DUP2 PUSH2 0x4A3 JUMP JUMPDEST DUP2 EQ PUSH2 0x4C7 JUMPI PUSH0 DUP1 REVERT JUMPDEST POP JUMP JUMPDEST PUSH0 DUP2 CALLDATALOAD SWAP1 POP PUSH2 0x4D8 DUP2 PUSH2 0x4B4 JUMP JUMPDEST SWAP3 SWAP2 POP POP JUMP JUMPDEST PUSH0 DUP1 REVERT JUMPDEST PUSH0 DUP1 REVERT JUMPDEST PUSH0 DUP1 REVERT JUMPDEST PUSH0 DUP1 DUP4 PUSH1 0x1F DUP5 ADD SLT PUSH2 0x4FF JUMPI PUSH2 0x4FE PUSH2 0x4DE JUMP JUMPDEST JUMPDEST DUP3 CALLDATALOAD SWAP1 POP PUSH8 0xFFFFFFFFFFFFFFFF DUP2 GT ISZERO PUSH2 0x51C JUMPI PUSH2 0x51B PUSH2 0x4E2 JUMP JUMPDEST JUMPDEST PUSH1 0x20 DUP4 ADD SWAP2 POP DUP4 PUSH1 0x1 DUP3 MUL DUP4 ADD GT ISZERO PUSH2 0x538 JUMPI PUSH2 0x537 PUSH2 0x4E6 JUMP JUMPDEST JUMPDEST SWAP3 POP SWAP3 SWAP1 POP JUMP JUMPDEST PUSH0 DUP1 DUP4 PUSH1 0x1F DUP5 ADD SLT PUSH2 0x554 JUMPI PUSH2 0x553 PUSH2 0x4DE JUMP JUMPDEST JUMPDEST DUP3 CALLDATALOAD SWAP1 POP PUSH8 0xFFFFFFFFFFFFFFFF DUP2 GT ISZERO PUSH2 0x571 JUMPI PUSH2 0x570 PUSH2 0x4E2 JUMP JUMPDEST JUMPDEST PUSH1 0x20 DUP4 ADD SWAP2 POP DUP4 PUSH1 0x1 DUP3 MUL DUP4 ADD GT ISZERO PUSH2 0x58D JUMPI PUSH2 0x58C PUSH2 0x4E6 JUMP JUMPDEST JUMPDEST SWAP3 POP SWAP3 SWAP1 POP JUMP JUMPDEST PUSH0 DUP1 PUSH0 DUP1 PUSH0 PUSH1 0x60 DUP7 DUP9 SUB SLT ISZERO PUSH2 0x5AD JUMPI PUSH2 0x5AC PUSH2 0x47C JUMP JUMPDEST JUMPDEST PUSH0 PUSH2 0x5BA DUP9 DUP3 DUP10 ADD PUSH2 0x4CA JUMP JUMPDEST SWAP6 POP POP PUSH1 0x20 DUP7 ADD CALLDATALOAD PUSH8 0xFFFFFFFFFFFFFFFF DUP2 GT ISZERO PUSH2 0x5DB JUMPI PUSH2 0x5DA PUSH2 0x480 JUMP JUMPDEST JUMPDEST PUSH2 0x5E7 DUP9 DUP3 DUP10 ADD PUSH2 0x4EA JUMP JUMPDEST SWAP5 POP SWAP5 POP POP PUSH1 0x40 DUP7 ADD CALLDATALOAD PUSH8 0xFFFFFFFFFFFFFFFF DUP2 GT ISZERO PUSH2 0x60A JUMPI PUSH2 0x609 PUSH2 0x480 JUMP JUMPDEST JUMPDEST PUSH2 0x616 DUP9 DUP3 DUP10 ADD PUSH2 0x53F JUMP JUMPDEST SWAP3 POP SWAP3 POP POP SWAP3 SWAP6 POP SWAP3 SWAP6 SWAP1 SWAP4 POP JUMP JUMPDEST PUSH0 DUP2 ISZERO ISZERO SWAP1 POP SWAP2 SWAP1 POP JUMP JUMPDEST PUSH2 0x639 DUP2 PUSH2 0x625 JUMP JUMPDEST DUP3 MSTORE POP POP JUMP JUMPDEST PUSH0 PUSH1 0x20 DUP3 ADD SWAP1 POP PUSH2 0x652 PUSH0 DUP4 ADD DUP5 PUSH2 0x630 JUMP JUMPDEST SWAP3 SWAP2 POP POP JUMP JUMPDEST PUSH0 DUP2 SWAP1 POP SWAP2 SWAP1 POP JUMP JUMPDEST PUSH2 0x66A DUP2 PUSH2 0x658 JUMP JUMPDEST DUP3 MSTORE POP POP JUMP JUMPDEST PUSH0 PUSH1 0x20 DUP3 ADD SWAP1 POP PUSH2 0x683 PUSH0 DUP4 ADD DUP5 PUSH2 0x661 JUMP JUMPDEST SWAP3 SWAP2 POP POP JUMP JUMPDEST PUSH0 DUP2 SWAP1 POP SWAP3 SWAP2 POP POP JUMP JUMPDEST DUP3 DUP2 DUP4 CALLDATACOPY PUSH0 DUP4 DUP4 ADD MSTORE POP POP POP JUMP JUMPDEST PUSH0 PUSH2 0x6AC DUP4 DUP6 PUSH2 0x689 JUMP JUMPDEST SWAP4 POP PUSH2 0x6B9 DUP4 DUP6 DUP5 PUSH2 0x693 JUMP JUMPDEST DUP3 DUP5 ADD SWAP1 POP SWAP4 SWAP3 POP POP POP JUMP JUMPDEST PUSH0 PUSH2 0x6D1 DUP3 DUP5 DUP7 PUSH2 0x6A1 JUMP JUMPDEST SWAP2 POP DUP2 SWAP1 POP SWAP4 SWAP3 POP POP POP JUMP JUMPDEST PUSH32 0x1901000000000000000000000000000000000000000000000000000000000000 PUSH0 DUP3 ADD MSTORE POP JUMP JUMPDEST PUSH0 PUSH2 0x711 PUSH1 0x2 DUP4 PUSH2 0x689 JUMP JUMPDEST SWAP2 POP PUSH2 0x71C DUP3 PUSH2 0x6DD JUMP JUMPDEST PUSH1 0x2 DUP3 ADD SWAP1 POP SWAP2 SWAP1 POP JUMP JUMPDEST PUSH0 DUP2 SWAP1 POP SWAP2 SWAP1 POP JUMP JUMPDEST PUSH2 0x741 PUSH2 0x73C DUP3 PUSH2 0x658 JUMP JUMPDEST PUSH2 0x727 JUMP JUMPDEST DUP3 MSTORE POP POP JUMP JUMPDEST PUSH0 PUSH2 0x751 DUP3 PUSH2 0x705 JUMP JUMPDEST SWAP2 POP PUSH2 0x75D DUP3 DUP6 PUSH2 0x730 JUMP JUMPDEST PUSH1 0x20 DUP3 ADD SWAP2 POP PUSH2 0x76D DUP3 DUP5 PUSH2 0x730 JUMP JUMPDEST PUSH1 0x20 DUP3 ADD SWAP2 POP DUP2 SWAP1 POP SWAP4 SWAP3 POP POP POP JUMP JUMPDEST PUSH32 0x4E487B7100000000000000000000000000000000000000000000000000000000 PUSH0 MSTORE PUSH1 0x21 PUSH1 0x4 MSTORE PUSH1 0x24 PUSH0 REVERT JUMPDEST PUSH0 DUP2 SWAP1 POP SWAP2 SWAP1 POP JUMP JUMPDEST PUSH2 0x7BC DUP2 PUSH2 0x7AA JUMP JUMPDEST DUP3 MSTORE POP POP JUMP JUMPDEST PUSH0 PUSH1 0x20 DUP3 ADD SWAP1 POP PUSH2 0x7D5 PUSH0 DUP4 ADD DUP5 PUSH2 0x7B3 JUMP JUMPDEST SWAP3 SWAP2 POP POP JUMP JUMPDEST PUSH0 PUSH1 0xFF DUP3 AND SWAP1 POP SWAP2 SWAP1 POP JUMP JUMPDEST PUSH2 0x7F0 DUP2 PUSH2 0x7DB JUMP JUMPDEST DUP3 MSTORE POP POP JUMP JUMPDEST PUSH0 PUSH1 0x80 DUP3 ADD SWAP1 POP PUSH2 0x809 PUSH0 DUP4 ADD DUP8 PUSH2 0x661 JUMP JUMPDEST PUSH2 0x816 PUSH1 0x20 DUP4 ADD DUP7 PUSH2 0x7E7 JUMP JUMPDEST PUSH2 0x823 PUSH1 0x40 DUP4 ADD DUP6 PUSH2 0x661 JUMP JUMPDEST PUSH2 0x830 PUSH1 0x60 DUP4 ADD DUP5 PUSH2 0x661 JUMP JUMPDEST SWAP6 SWAP5 POP POP POP POP POP JUMP INVALID LOG2 PUSH5 0x6970667358 0x22 SLT KECCAK256 0xF8 EXP 0xBF BALANCE MULMOD 0xF8 0xCC PUSH24 0x8293DFDDC444ED31F862AE21592DDF82C57D3D0A6173B5D3 PUSH5 0x736F6C6343 STOP ADDMOD BYTE STOP CALLER "
				},
				"gasEstimates": {
					"creation": {
						"codeDepositCost": "431800",
						"executionCost": "466",
						"totalCost": "432266"
					},
					"external": {
						"DOMAIN()": "325",
						"verify(address,string,bytes)": "infinite"
					}
				},
				"methodIdentifiers": {
					"DOMAIN()": "52a9674b",
					"verify(address,string,bytes)": "2dd34f0f"
				}
			},
			"storageLayout": {
				"storage": [],
				"types": null
			},
			"userdoc": {
				"kind": "user",
				"methods": {},
				"version": 1
			}
		}
	}
}