{
	"R/Role Based Access Control/RoleRegistry.sol": {
		"RoleRegistry": {
			"abi": [
				{
					"inputs": [
						{
							"internalType": "address",
							"name": "user",
							"type": "address"
						},
						{
							"internalType": "string",
							"name": "r",
							"type": "string"
						}
					],
					"name": "assign",
					"outputs": [],
					"stateMutability": "nonpayable",
					"type": "function"
				},
				{
					"inputs": [
						{
							"internalType": "address",
							"name": "user",
							"type": "address"
						},
						{
							"internalType": "string",
							"name": "r",
							"type": "string"
						}
					],
					"name": "check",
					"outputs": [
						{
							"internalType": "bool",
							"name": "",
							"type": "bool"
						}
					],
					"stateMutability": "view",
					"type": "function"
				},
				{
					"inputs": [
						{
							"internalType": "address",
							"name": "",
							"type": "address"
						}
					],
					"name": "role",
					"outputs": [
						{
							"internalType": "string",
							"name": "",
							"type": "string"
						}
					],
					"stateMutability": "view",
					"type": "function"
				}
			],
			"devdoc": {
				"kind": "dev",
				"methods": {},
				"version": 1
			},
			"evm": {
				"assembly": "    /* \"R/Role Based Access Control/RoleRegistry.sol\":0:322  contract RoleRegistry {... */\n  mstore(0x40, 0x80)\n  callvalue\n  dup1\n  iszero\n  tag_1\n  jumpi\n  0x00\n  dup1\n  revert\ntag_1:\n  pop\n  dataSize(sub_0)\n  dup1\n  dataOffset(sub_0)\n  0x00\n  codecopy\n  0x00\n  return\nstop\n\nsub_0: assembly {\n        /* \"R/Role Based Access Control/RoleRegistry.sol\":0:322  contract RoleRegistry {... */\n      mstore(0x40, 0x80)\n      callvalue\n      dup1\n      iszero\n      tag_1\n      jumpi\n      0x00\n      dup1\n      revert\n    tag_1:\n      pop\n      jumpi(tag_2, lt(calldatasize, 0x04))\n      shr(0xe0, calldataload(0x00))\n      dup1\n      0x20fa484b\n      eq\n      tag_3\n      jumpi\n      dup1\n      0x3543b23c\n      eq\n      tag_4\n      jumpi\n      dup1\n      0xd590f8c9\n      eq\n      tag_5\n      jumpi\n    tag_2:\n      0x00\n      dup1\n      revert\n        /* \"R/Role Based Access Control/RoleRegistry.sol\":168:320  function check(address user, string calldata r) external view returns (bool) {... */\n    tag_3:\n      tag_6\n      0x04\n      dup1\n      calldatasize\n      sub\n      dup2\n      add\n      swap1\n      tag_7\n      swap2\n      swap1\n      tag_8\n      jump\t// in\n    tag_7:\n      tag_9\n      jump\t// in\n    tag_6:\n      mload(0x40)\n      tag_10\n      swap2\n      swap1\n      tag_11\n      jump\t// in\n    tag_10:\n      mload(0x40)\n      dup1\n      swap2\n      sub\n      swap1\n      return\n        /* \"R/Role Based Access Control/RoleRegistry.sol\":73:162  function assign(address user, string calldata r) external {... */\n    tag_4:\n      tag_12\n      0x04\n      dup1\n      calldatasize\n      sub\n      dup2\n      add\n      swap1\n      tag_13\n      swap2\n      swap1\n      tag_8\n      jump\t// in\n    tag_13:\n      tag_14\n      jump\t// in\n    tag_12:\n      stop\n        /* \"R/Role Based Access Control/RoleRegistry.sol\":28:66  mapping(address => string) public role */\n    tag_5:\n      tag_15\n      0x04\n      dup1\n      calldatasize\n      sub\n      dup2\n      add\n      swap1\n      tag_16\n      swap2\n      swap1\n      tag_17\n      jump\t// in\n    tag_16:\n      tag_18\n      jump\t// in\n    tag_15:\n      mload(0x40)\n      tag_19\n      swap2\n      swap1\n      tag_20\n      jump\t// in\n    tag_19:\n      mload(0x40)\n      dup1\n      swap2\n      sub\n      swap1\n      return\n        /* \"R/Role Based Access Control/RoleRegistry.sol\":168:320  function check(address user, string calldata r) external view returns (bool) {... */\n    tag_9:\n        /* \"R/Role Based Access Control/RoleRegistry.sol\":239:243  bool */\n      0x00\n        /* \"R/Role Based Access Control/RoleRegistry.sol\":310:311  r */\n      dup3\n      dup3\n        /* \"R/Role Based Access Control/RoleRegistry.sol\":294:313  keccak256(bytes(r)) */\n      mload(0x40)\n      tag_22\n      swap3\n      swap2\n      swap1\n      tag_23\n      jump\t// in\n    tag_22:\n      mload(0x40)\n      dup1\n      swap2\n      sub\n      swap1\n      keccak256\n        /* \"R/Role Based Access Control/RoleRegistry.sol\":278:282  role */\n      0x00\n        /* \"R/Role Based Access Control/RoleRegistry.sol\":278:288  role[user] */\n      dup1\n        /* \"R/Role Based Access Control/RoleRegistry.sol\":283:287  user */\n      dup7\n        /* \"R/Role Based Access Control/RoleRegistry.sol\":278:288  role[user] */\n      0xffffffffffffffffffffffffffffffffffffffff\n      and\n      0xffffffffffffffffffffffffffffffffffffffff\n      and\n      dup2\n      mstore\n      0x20\n      add\n      swap1\n      dup2\n      mstore\n      0x20\n      add\n      0x00\n      keccak256\n        /* \"R/Role Based Access Control/RoleRegistry.sol\":262:290  keccak256(bytes(role[user])) */\n      mload(0x40)\n      tag_24\n      swap2\n      swap1\n      tag_25\n      jump\t// in\n    tag_24:\n      mload(0x40)\n      dup1\n      swap2\n      sub\n      swap1\n      keccak256\n        /* \"R/Role Based Access Control/RoleRegistry.sol\":262:313  keccak256(bytes(role[user])) == keccak256(bytes(r)) */\n      eq\n        /* \"R/Role Based Access Control/RoleRegistry.sol\":255:313  return keccak256(bytes(role[user])) == keccak256(bytes(r)) */\n      swap1\n      pop\n        /* \"R/Role Based Access Control/RoleRegistry.sol\":168:320  function check(address user, string calldata r) external view returns (bool) {... */\n      swap4\n      swap3\n      pop\n      pop\n      pop\n      jump\t// out\n        /* \"R/Role Based Access Control/RoleRegistry.sol\":73:162  function assign(address user, string calldata r) external {... */\n    tag_14:\n        /* \"R/Role Based Access Control/RoleRegistry.sol\":154:155  r */\n      dup2\n      dup2\n        /* \"R/Role Based Access Control/RoleRegistry.sol\":141:145  role */\n      0x00\n        /* \"R/Role Based Access Control/RoleRegistry.sol\":141:151  role[user] */\n      dup1\n        /* \"R/Role Based Access Control/RoleRegistry.sol\":146:150  user */\n      dup7\n        /* \"R/Role Based Access Control/RoleRegistry.sol\":141:151  role[user] */\n      0xffffffffffffffffffffffffffffffffffffffff\n      and\n      0xffffffffffffffffffffffffffffffffffffffff\n      and\n      dup2\n      mstore\n      0x20\n      add\n      swap1\n      dup2\n      mstore\n      0x20\n      add\n      0x00\n      keccak256\n        /* \"R/Role Based Access Control/RoleRegistry.sol\":141:155  role[user] = r */\n      swap2\n      dup3\n      tag_27\n      swap3\n      swap2\n      swap1\n      tag_28\n      jump\t// in\n    tag_27:\n      pop\n        /* \"R/Role Based Access Control/RoleRegistry.sol\":73:162  function assign(address user, string calldata r) external {... */\n      pop\n      pop\n      pop\n      jump\t// out\n        /* \"R/Role Based Access Control/RoleRegistry.sol\":28:66  mapping(address => string) public role */\n    tag_18:\n      mstore(0x20, 0x00)\n      dup1\n      0x00\n      mstore\n      keccak256(0x00, 0x40)\n      0x00\n      swap2\n      pop\n      swap1\n      pop\n      dup1\n      sload\n      tag_29\n      swap1\n      tag_30\n      jump\t// in\n    tag_29:\n      dup1\n      0x1f\n      add\n      0x20\n      dup1\n      swap2\n      div\n      mul\n      0x20\n      add\n      mload(0x40)\n      swap1\n      dup2\n      add\n      0x40\n      mstore\n      dup1\n      swap3\n      swap2\n      swap1\n      dup2\n      dup2\n      mstore\n      0x20\n      add\n      dup3\n      dup1\n      sload\n      tag_31\n      swap1\n      tag_30\n      jump\t// in\n    tag_31:\n      dup1\n      iszero\n      tag_32\n      jumpi\n      dup1\n      0x1f\n      lt\n      tag_33\n      jumpi\n      0x0100\n      dup1\n      dup4\n      sload\n      div\n      mul\n      dup4\n      mstore\n      swap2\n      0x20\n      add\n      swap2\n      jump(tag_32)\n    tag_33:\n      dup3\n      add\n      swap2\n      swap1\n      0x00\n      mstore\n      keccak256(0x00, 0x20)\n      swap1\n    tag_34:\n      dup2\n      sload\n      dup2\n      mstore\n      swap1\n      0x01\n      add\n      swap1\n      0x20\n      add\n      dup1\n      dup4\n      gt\n      tag_34\n      jumpi\n      dup3\n      swap1\n      sub\n      0x1f\n      and\n      dup3\n      add\n      swap2\n    tag_32:\n      pop\n      pop\n      pop\n      pop\n      pop\n      dup2\n      jump\t// out\n        /* \"#utility.yul\":88:205   */\n    tag_36:\n        /* \"#utility.yul\":197:198   */\n      0x00\n        /* \"#utility.yul\":194:195   */\n      dup1\n        /* \"#utility.yul\":187:199   */\n      revert\n        /* \"#utility.yul\":211:328   */\n    tag_37:\n        /* \"#utility.yul\":320:321   */\n      0x00\n        /* \"#utility.yul\":317:318   */\n      dup1\n        /* \"#utility.yul\":310:322   */\n      revert\n        /* \"#utility.yul\":334:460   */\n    tag_38:\n        /* \"#utility.yul\":371:378   */\n      0x00\n        /* \"#utility.yul\":411:453   */\n      0xffffffffffffffffffffffffffffffffffffffff\n        /* \"#utility.yul\":404:409   */\n      dup3\n        /* \"#utility.yul\":400:454   */\n      and\n        /* \"#utility.yul\":389:454   */\n      swap1\n      pop\n        /* \"#utility.yul\":334:460   */\n      swap2\n      swap1\n      pop\n      jump\t// out\n        /* \"#utility.yul\":466:562   */\n    tag_39:\n        /* \"#utility.yul\":503:510   */\n      0x00\n        /* \"#utility.yul\":532:556   */\n      tag_83\n        /* \"#utility.yul\":550:555   */\n      dup3\n        /* \"#utility.yul\":532:556   */\n      tag_38\n      jump\t// in\n    tag_83:\n        /* \"#utility.yul\":521:556   */\n      swap1\n      pop\n        /* \"#utility.yul\":466:562   */\n      swap2\n      swap1\n      pop\n      jump\t// out\n        /* \"#utility.yul\":568:690   */\n    tag_40:\n        /* \"#utility.yul\":641:665   */\n      tag_85\n        /* \"#utility.yul\":659:664   */\n      dup2\n        /* \"#utility.yul\":641:665   */\n      tag_39\n      jump\t// in\n    tag_85:\n        /* \"#utility.yul\":634:639   */\n      dup2\n        /* \"#utility.yul\":631:666   */\n      eq\n        /* \"#utility.yul\":621:684   */\n      tag_86\n      jumpi\n        /* \"#utility.yul\":680:681   */\n      0x00\n        /* \"#utility.yul\":677:678   */\n      dup1\n        /* \"#utility.yul\":670:682   */\n      revert\n        /* \"#utility.yul\":621:684   */\n    tag_86:\n        /* \"#utility.yul\":568:690   */\n      pop\n      jump\t// out\n        /* \"#utility.yul\":696:835   */\n    tag_41:\n        /* \"#utility.yul\":742:747   */\n      0x00\n        /* \"#utility.yul\":780:786   */\n      dup2\n        /* \"#utility.yul\":767:787   */\n      calldataload\n        /* \"#utility.yul\":758:787   */\n      swap1\n      pop\n        /* \"#utility.yul\":796:829   */\n      tag_88\n        /* \"#utility.yul\":823:828   */\n      dup2\n        /* \"#utility.yul\":796:829   */\n      tag_40\n      jump\t// in\n    tag_88:\n        /* \"#utility.yul\":696:835   */\n      swap3\n      swap2\n      pop\n      pop\n      jump\t// out\n        /* \"#utility.yul\":841:958   */\n    tag_42:\n        /* \"#utility.yul\":950:951   */\n      0x00\n        /* \"#utility.yul\":947:948   */\n      dup1\n        /* \"#utility.yul\":940:952   */\n      revert\n        /* \"#utility.yul\":964:1081   */\n    tag_43:\n        /* \"#utility.yul\":1073:1074   */\n      0x00\n        /* \"#utility.yul\":1070:1071   */\n      dup1\n        /* \"#utility.yul\":1063:1075   */\n      revert\n        /* \"#utility.yul\":1087:1204   */\n    tag_44:\n        /* \"#utility.yul\":1196:1197   */\n      0x00\n        /* \"#utility.yul\":1193:1194   */\n      dup1\n        /* \"#utility.yul\":1186:1198   */\n      revert\n        /* \"#utility.yul\":1224:1777   */\n    tag_45:\n        /* \"#utility.yul\":1282:1290   */\n      0x00\n        /* \"#utility.yul\":1292:1298   */\n      dup1\n        /* \"#utility.yul\":1342:1345   */\n      dup4\n        /* \"#utility.yul\":1335:1339   */\n      0x1f\n        /* \"#utility.yul\":1327:1333   */\n      dup5\n        /* \"#utility.yul\":1323:1340   */\n      add\n        /* \"#utility.yul\":1319:1346   */\n      slt\n        /* \"#utility.yul\":1309:1431   */\n      tag_93\n      jumpi\n        /* \"#utility.yul\":1350:1429   */\n      tag_94\n      tag_42\n      jump\t// in\n    tag_94:\n        /* \"#utility.yul\":1309:1431   */\n    tag_93:\n        /* \"#utility.yul\":1463:1469   */\n      dup3\n        /* \"#utility.yul\":1450:1470   */\n      calldataload\n        /* \"#utility.yul\":1440:1470   */\n      swap1\n      pop\n        /* \"#utility.yul\":1493:1511   */\n      0xffffffffffffffff\n        /* \"#utility.yul\":1485:1491   */\n      dup2\n        /* \"#utility.yul\":1482:1512   */\n      gt\n        /* \"#utility.yul\":1479:1596   */\n      iszero\n      tag_95\n      jumpi\n        /* \"#utility.yul\":1515:1594   */\n      tag_96\n      tag_43\n      jump\t// in\n    tag_96:\n        /* \"#utility.yul\":1479:1596   */\n    tag_95:\n        /* \"#utility.yul\":1629:1633   */\n      0x20\n        /* \"#utility.yul\":1621:1627   */\n      dup4\n        /* \"#utility.yul\":1617:1634   */\n      add\n        /* \"#utility.yul\":1605:1634   */\n      swap2\n      pop\n        /* \"#utility.yul\":1683:1686   */\n      dup4\n        /* \"#utility.yul\":1675:1679   */\n      0x01\n        /* \"#utility.yul\":1667:1673   */\n      dup3\n        /* \"#utility.yul\":1663:1680   */\n      mul\n        /* \"#utility.yul\":1653:1661   */\n      dup4\n        /* \"#utility.yul\":1649:1681   */\n      add\n        /* \"#utility.yul\":1646:1687   */\n      gt\n        /* \"#utility.yul\":1643:1771   */\n      iszero\n      tag_97\n      jumpi\n        /* \"#utility.yul\":1690:1769   */\n      tag_98\n      tag_44\n      jump\t// in\n    tag_98:\n        /* \"#utility.yul\":1643:1771   */\n    tag_97:\n        /* \"#utility.yul\":1224:1777   */\n      swap3\n      pop\n      swap3\n      swap1\n      pop\n      jump\t// out\n        /* \"#utility.yul\":1783:2457   */\n    tag_8:\n        /* \"#utility.yul\":1863:1869   */\n      0x00\n        /* \"#utility.yul\":1871:1877   */\n      dup1\n        /* \"#utility.yul\":1879:1885   */\n      0x00\n        /* \"#utility.yul\":1928:1930   */\n      0x40\n        /* \"#utility.yul\":1916:1925   */\n      dup5\n        /* \"#utility.yul\":1907:1914   */\n      dup7\n        /* \"#utility.yul\":1903:1926   */\n      sub\n        /* \"#utility.yul\":1899:1931   */\n      slt\n        /* \"#utility.yul\":1896:2015   */\n      iszero\n      tag_100\n      jumpi\n        /* \"#utility.yul\":1934:2013   */\n      tag_101\n      tag_36\n      jump\t// in\n    tag_101:\n        /* \"#utility.yul\":1896:2015   */\n    tag_100:\n        /* \"#utility.yul\":2054:2055   */\n      0x00\n        /* \"#utility.yul\":2079:2132   */\n      tag_102\n        /* \"#utility.yul\":2124:2131   */\n      dup7\n        /* \"#utility.yul\":2115:2121   */\n      dup3\n        /* \"#utility.yul\":2104:2113   */\n      dup8\n        /* \"#utility.yul\":2100:2122   */\n      add\n        /* \"#utility.yul\":2079:2132   */\n      tag_41\n      jump\t// in\n    tag_102:\n        /* \"#utility.yul\":2069:2132   */\n      swap4\n      pop\n        /* \"#utility.yul\":2025:2142   */\n      pop\n        /* \"#utility.yul\":2209:2211   */\n      0x20\n        /* \"#utility.yul\":2198:2207   */\n      dup5\n        /* \"#utility.yul\":2194:2212   */\n      add\n        /* \"#utility.yul\":2181:2213   */\n      calldataload\n        /* \"#utility.yul\":2240:2258   */\n      0xffffffffffffffff\n        /* \"#utility.yul\":2232:2238   */\n      dup2\n        /* \"#utility.yul\":2229:2259   */\n      gt\n        /* \"#utility.yul\":2226:2343   */\n      iszero\n      tag_103\n      jumpi\n        /* \"#utility.yul\":2262:2341   */\n      tag_104\n      tag_37\n      jump\t// in\n    tag_104:\n        /* \"#utility.yul\":2226:2343   */\n    tag_103:\n        /* \"#utility.yul\":2375:2440   */\n      tag_105\n        /* \"#utility.yul\":2432:2439   */\n      dup7\n        /* \"#utility.yul\":2423:2429   */\n      dup3\n        /* \"#utility.yul\":2412:2421   */\n      dup8\n        /* \"#utility.yul\":2408:2430   */\n      add\n        /* \"#utility.yul\":2375:2440   */\n      tag_45\n      jump\t// in\n    tag_105:\n        /* \"#utility.yul\":2357:2440   */\n      swap3\n      pop\n      swap3\n      pop\n        /* \"#utility.yul\":2152:2450   */\n      pop\n        /* \"#utility.yul\":1783:2457   */\n      swap3\n      pop\n      swap3\n      pop\n      swap3\n      jump\t// out\n        /* \"#utility.yul\":2463:2553   */\n    tag_46:\n        /* \"#utility.yul\":2497:2504   */\n      0x00\n        /* \"#utility.yul\":2540:2545   */\n      dup2\n        /* \"#utility.yul\":2533:2546   */\n      iszero\n        /* \"#utility.yul\":2526:2547   */\n      iszero\n        /* \"#utility.yul\":2515:2547   */\n      swap1\n      pop\n        /* \"#utility.yul\":2463:2553   */\n      swap2\n      swap1\n      pop\n      jump\t// out\n        /* \"#utility.yul\":2559:2668   */\n    tag_47:\n        /* \"#utility.yul\":2640:2661   */\n      tag_108\n        /* \"#utility.yul\":2655:2660   */\n      dup2\n        /* \"#utility.yul\":2640:2661   */\n      tag_46\n      jump\t// in\n    tag_108:\n        /* \"#utility.yul\":2635:2638   */\n      dup3\n        /* \"#utility.yul\":2628:2662   */\n      mstore\n        /* \"#utility.yul\":2559:2668   */\n      pop\n      pop\n      jump\t// out\n        /* \"#utility.yul\":2674:2884   */\n    tag_11:\n        /* \"#utility.yul\":2761:2765   */\n      0x00\n        /* \"#utility.yul\":2799:2801   */\n      0x20\n        /* \"#utility.yul\":2788:2797   */\n      dup3\n        /* \"#utility.yul\":2784:2802   */\n      add\n        /* \"#utility.yul\":2776:2802   */\n      swap1\n      pop\n        /* \"#utility.yul\":2812:2877   */\n      tag_110\n        /* \"#utility.yul\":2874:2875   */\n      0x00\n        /* \"#utility.yul\":2863:2872   */\n      dup4\n        /* \"#utility.yul\":2859:2876   */\n      add\n        /* \"#utility.yul\":2850:2856   */\n      dup5\n        /* \"#utility.yul\":2812:2877   */\n      tag_47\n      jump\t// in\n    tag_110:\n        /* \"#utility.yul\":2674:2884   */\n      swap3\n      swap2\n      pop\n      pop\n      jump\t// out\n        /* \"#utility.yul\":2890:3219   */\n    tag_17:\n        /* \"#utility.yul\":2949:2955   */\n      0x00\n        /* \"#utility.yul\":2998:3000   */\n      0x20\n        /* \"#utility.yul\":2986:2995   */\n      dup3\n        /* \"#utility.yul\":2977:2984   */\n      dup5\n        /* \"#utility.yul\":2973:2996   */\n      sub\n        /* \"#utility.yul\":2969:3001   */\n      slt\n        /* \"#utility.yul\":2966:3085   */\n      iszero\n      tag_112\n      jumpi\n        /* \"#utility.yul\":3004:3083   */\n      tag_113\n      tag_36\n      jump\t// in\n    tag_113:\n        /* \"#utility.yul\":2966:3085   */\n    tag_112:\n        /* \"#utility.yul\":3124:3125   */\n      0x00\n        /* \"#utility.yul\":3149:3202   */\n      tag_114\n        /* \"#utility.yul\":3194:3201   */\n      dup5\n        /* \"#utility.yul\":3185:3191   */\n      dup3\n        /* \"#utility.yul\":3174:3183   */\n      dup6\n        /* \"#utility.yul\":3170:3192   */\n      add\n        /* \"#utility.yul\":3149:3202   */\n      tag_41\n      jump\t// in\n    tag_114:\n        /* \"#utility.yul\":3139:3202   */\n      swap2\n      pop\n        /* \"#utility.yul\":3095:3212   */\n      pop\n        /* \"#utility.yul\":2890:3219   */\n      swap3\n      swap2\n      pop\n      pop\n      jump\t// out\n        /* \"#utility.yul\":3225:3324   */\n    tag_48:\n        /* \"#utility.yul\":3277:3283   */\n      0x00\n        /* \"#utility.yul\":3311:3316   */\n      dup2\n        /* \"#utility.yul\":3305:3317   */\n      mload\n        /* \"#utility.yul\":3295:3317   */\n      swap1\n      pop\n        /* \"#utility.yul\":3225:3324   */\n      swap2\n      swap1\n      pop\n      jump\t// out\n        /* \"#utility.yul\":3330:3499   */\n    tag_49:\n        /* \"#utility.yul\":3414:3425   */\n      0x00\n        /* \"#utility.yul\":3448:3454   */\n      dup3\n        /* \"#utility.yul\":3443:3446   */\n      dup3\n        /* \"#utility.yul\":3436:3455   */\n      mstore\n        /* \"#utility.yul\":3488:3492   */\n      0x20\n        /* \"#utility.yul\":3483:3486   */\n      dup3\n        /* \"#utility.yul\":3479:3493   */\n      add\n        /* \"#utility.yul\":3464:3493   */\n      swap1\n      pop\n        /* \"#utility.yul\":3330:3499   */\n      swap3\n      swap2\n      pop\n      pop\n      jump\t// out\n        /* \"#utility.yul\":3505:3644   */\n    tag_50:\n        /* \"#utility.yul\":3594:3600   */\n      dup3\n        /* \"#utility.yul\":3589:3592   */\n      dup2\n        /* \"#utility.yul\":3584:3587   */\n      dup4\n        /* \"#utility.yul\":3578:3601   */\n      mcopy\n        /* \"#utility.yul\":3635:3636   */\n      0x00\n        /* \"#utility.yul\":3626:3632   */\n      dup4\n        /* \"#utility.yul\":3621:3624   */\n      dup4\n        /* \"#utility.yul\":3617:3633   */\n      add\n        /* \"#utility.yul\":3610:3637   */\n      mstore\n        /* \"#utility.yul\":3505:3644   */\n      pop\n      pop\n      pop\n      jump\t// out\n        /* \"#utility.yul\":3650:3752   */\n    tag_51:\n        /* \"#utility.yul\":3691:3697   */\n      0x00\n        /* \"#utility.yul\":3742:3744   */\n      0x1f\n        /* \"#utility.yul\":3738:3745   */\n      not\n        /* \"#utility.yul\":3733:3735   */\n      0x1f\n        /* \"#utility.yul\":3726:3731   */\n      dup4\n        /* \"#utility.yul\":3722:3736   */\n      add\n        /* \"#utility.yul\":3718:3746   */\n      and\n        /* \"#utility.yul\":3708:3746   */\n      swap1\n      pop\n        /* \"#utility.yul\":3650:3752   */\n      swap2\n      swap1\n      pop\n      jump\t// out\n        /* \"#utility.yul\":3758:4135   */\n    tag_52:\n        /* \"#utility.yul\":3846:3849   */\n      0x00\n        /* \"#utility.yul\":3874:3913   */\n      tag_120\n        /* \"#utility.yul\":3907:3912   */\n      dup3\n        /* \"#utility.yul\":3874:3913   */\n      tag_48\n      jump\t// in\n    tag_120:\n        /* \"#utility.yul\":3929:4000   */\n      tag_121\n        /* \"#utility.yul\":3993:3999   */\n      dup2\n        /* \"#utility.yul\":3988:3991   */\n      dup6\n        /* \"#utility.yul\":3929:4000   */\n      tag_49\n      jump\t// in\n    tag_121:\n        /* \"#utility.yul\":3922:4000   */\n      swap4\n      pop\n        /* \"#utility.yul\":4009:4074   */\n      tag_122\n        /* \"#utility.yul\":4067:4073   */\n      dup2\n        /* \"#utility.yul\":4062:4065   */\n      dup6\n        /* \"#utility.yul\":4055:4059   */\n      0x20\n        /* \"#utility.yul\":4048:4053   */\n      dup7\n        /* \"#utility.yul\":4044:4060   */\n      add\n        /* \"#utility.yul\":4009:4074   */\n      tag_50\n      jump\t// in\n    tag_122:\n        /* \"#utility.yul\":4099:4128   */\n      tag_123\n        /* \"#utility.yul\":4121:4127   */\n      dup2\n        /* \"#utility.yul\":4099:4128   */\n      tag_51\n      jump\t// in\n    tag_123:\n        /* \"#utility.yul\":4094:4097   */\n      dup5\n        /* \"#utility.yul\":4090:4129   */\n      add\n        /* \"#utility.yul\":4083:4129   */\n      swap2\n      pop\n        /* \"#utility.yul\":3850:4135   */\n      pop\n        /* \"#utility.yul\":3758:4135   */\n      swap3\n      swap2\n      pop\n      pop\n      jump\t// out\n        /* \"#utility.yul\":4141:4454   */\n    tag_20:\n        /* \"#utility.yul\":4254:4258   */\n      0x00\n        /* \"#utility.yul\":4292:4294   */\n      0x20\n        /* \"#utility.yul\":4281:4290   */\n      dup3\n        /* \"#utility.yul\":4277:4295   */\n      add\n        /* \"#utility.yul\":4269:4295   */\n      swap1\n      pop\n        /* \"#utility.yul\":4341:4350   */\n      dup2\n        /* \"#utility.yul\":4335:4339   */\n      dup2\n        /* \"#utility.yul\":4331:4351   */\n      sub\n        /* \"#utility.yul\":4327:4328   */\n      0x00\n        /* \"#utility.yul\":4316:4325   */\n      dup4\n        /* \"#utility.yul\":4312:4329   */\n      add\n        /* \"#utility.yul\":4305:4352   */\n      mstore\n        /* \"#utility.yul\":4369:4447   */\n      tag_125\n        /* \"#utility.yul\":4442:4446   */\n      dup2\n        /* \"#utility.yul\":4433:4439   */\n      dup5\n        /* \"#utility.yul\":4369:4447   */\n      tag_52\n      jump\t// in\n    tag_125:\n        /* \"#utility.yul\":4361:4447   */\n      swap1\n      pop\n        /* \"#utility.yul\":4141:4454   */\n      swap3\n      swap2\n      pop\n      pop\n      jump\t// out\n        /* \"#utility.yul\":4460:4607   */\n    tag_53:\n        /* \"#utility.yul\":4561:4572   */\n      0x00\n        /* \"#utility.yul\":4598:4601   */\n      dup2\n        /* \"#utility.yul\":4583:4601   */\n      swap1\n      pop\n        /* \"#utility.yul\":4460:4607   */\n      swap3\n      swap2\n      pop\n      pop\n      jump\t// out\n        /* \"#utility.yul\":4613:4761   */\n    tag_54:\n        /* \"#utility.yul\":4711:4717   */\n      dup3\n        /* \"#utility.yul\":4706:4709   */\n      dup2\n        /* \"#utility.yul\":4701:4704   */\n      dup4\n        /* \"#utility.yul\":4688:4718   */\n      calldatacopy\n        /* \"#utility.yul\":4752:4753   */\n      0x00\n        /* \"#utility.yul\":4743:4749   */\n      dup4\n        /* \"#utility.yul\":4738:4741   */\n      dup4\n        /* \"#utility.yul\":4734:4750   */\n      add\n        /* \"#utility.yul\":4727:4754   */\n      mstore\n        /* \"#utility.yul\":4613:4761   */\n      pop\n      pop\n      pop\n      jump\t// out\n        /* \"#utility.yul\":4789:5116   */\n    tag_55:\n        /* \"#utility.yul\":4903:4906   */\n      0x00\n        /* \"#utility.yul\":4924:5012   */\n      tag_129\n        /* \"#utility.yul\":5005:5011   */\n      dup4\n        /* \"#utility.yul\":5000:5003   */\n      dup6\n        /* \"#utility.yul\":4924:5012   */\n      tag_53\n      jump\t// in\n    tag_129:\n        /* \"#utility.yul\":4917:5012   */\n      swap4\n      pop\n        /* \"#utility.yul\":5022:5078   */\n      tag_130\n        /* \"#utility.yul\":5071:5077   */\n      dup4\n        /* \"#utility.yul\":5066:5069   */\n      dup6\n        /* \"#utility.yul\":5059:5064   */\n      dup5\n        /* \"#utility.yul\":5022:5078   */\n      tag_54\n      jump\t// in\n    tag_130:\n        /* \"#utility.yul\":5103:5109   */\n      dup3\n        /* \"#utility.yul\":5098:5101   */\n      dup5\n        /* \"#utility.yul\":5094:5110   */\n      add\n        /* \"#utility.yul\":5087:5110   */\n      swap1\n      pop\n        /* \"#utility.yul\":4789:5116   */\n      swap4\n      swap3\n      pop\n      pop\n      pop\n      jump\t// out\n        /* \"#utility.yul\":5122:5413   */\n    tag_23:\n        /* \"#utility.yul\":5262:5265   */\n      0x00\n        /* \"#utility.yul\":5284:5387   */\n      tag_132\n        /* \"#utility.yul\":5383:5386   */\n      dup3\n        /* \"#utility.yul\":5374:5380   */\n      dup5\n        /* \"#utility.yul\":5366:5372   */\n      dup7\n        /* \"#utility.yul\":5284:5387   */\n      tag_55\n      jump\t// in\n    tag_132:\n        /* \"#utility.yul\":5277:5387   */\n      swap2\n      pop\n        /* \"#utility.yul\":5404:5407   */\n      dup2\n        /* \"#utility.yul\":5397:5407   */\n      swap1\n      pop\n        /* \"#utility.yul\":5122:5413   */\n      swap4\n      swap3\n      pop\n      pop\n      pop\n      jump\t// out\n        /* \"#utility.yul\":5419:5599   */\n    tag_56:\n        /* \"#utility.yul\":5467:5544   */\n      0x4e487b7100000000000000000000000000000000000000000000000000000000\n        /* \"#utility.yul\":5464:5465   */\n      0x00\n        /* \"#utility.yul\":5457:5545   */\n      mstore\n        /* \"#utility.yul\":5564:5568   */\n      0x22\n        /* \"#utility.yul\":5561:5562   */\n      0x04\n        /* \"#utility.yul\":5554:5569   */\n      mstore\n        /* \"#utility.yul\":5588:5592   */\n      0x24\n        /* \"#utility.yul\":5585:5586   */\n      0x00\n        /* \"#utility.yul\":5578:5593   */\n      revert\n        /* \"#utility.yul\":5605:5925   */\n    tag_30:\n        /* \"#utility.yul\":5649:5655   */\n      0x00\n        /* \"#utility.yul\":5686:5687   */\n      0x02\n        /* \"#utility.yul\":5680:5684   */\n      dup3\n        /* \"#utility.yul\":5676:5688   */\n      div\n        /* \"#utility.yul\":5666:5688   */\n      swap1\n      pop\n        /* \"#utility.yul\":5733:5734   */\n      0x01\n        /* \"#utility.yul\":5727:5731   */\n      dup3\n        /* \"#utility.yul\":5723:5735   */\n      and\n        /* \"#utility.yul\":5754:5772   */\n      dup1\n        /* \"#utility.yul\":5744:5825   */\n      tag_135\n      jumpi\n        /* \"#utility.yul\":5810:5814   */\n      0x7f\n        /* \"#utility.yul\":5802:5808   */\n      dup3\n        /* \"#utility.yul\":5798:5815   */\n      and\n        /* \"#utility.yul\":5788:5815   */\n      swap2\n      pop\n        /* \"#utility.yul\":5744:5825   */\n    tag_135:\n        /* \"#utility.yul\":5872:5874   */\n      0x20\n        /* \"#utility.yul\":5864:5870   */\n      dup3\n        /* \"#utility.yul\":5861:5875   */\n      lt\n        /* \"#utility.yul\":5841:5859   */\n      dup2\n        /* \"#utility.yul\":5838:5876   */\n      sub\n        /* \"#utility.yul\":5835:5919   */\n      tag_136\n      jumpi\n        /* \"#utility.yul\":5891:5909   */\n      tag_137\n      tag_56\n      jump\t// in\n    tag_137:\n        /* \"#utility.yul\":5835:5919   */\n    tag_136:\n        /* \"#utility.yul\":5656:5925   */\n      pop\n        /* \"#utility.yul\":5605:5925   */\n      swap2\n      swap1\n      pop\n      jump\t// out\n        /* \"#utility.yul\":5931:6075   */\n    tag_57:\n        /* \"#utility.yul\":5983:5987   */\n      0x00\n        /* \"#utility.yul\":6006:6009   */\n      dup2\n        /* \"#utility.yul\":5998:6009   */\n      swap1\n      pop\n        /* \"#utility.yul\":6029:6032   */\n      dup2\n        /* \"#utility.yul\":6026:6027   */\n      0x00\n        /* \"#utility.yul\":6019:6033   */\n      mstore\n        /* \"#utility.yul\":6063:6067   */\n      0x20\n        /* \"#utility.yul\":6060:6061   */\n      0x00\n        /* \"#utility.yul\":6050:6068   */\n      keccak256\n        /* \"#utility.yul\":6042:6068   */\n      swap1\n      pop\n        /* \"#utility.yul\":5931:6075   */\n      swap2\n      swap1\n      pop\n      jump\t// out\n        /* \"#utility.yul\":6103:6981   */\n    tag_58:\n        /* \"#utility.yul\":6208:6211   */\n      0x00\n        /* \"#utility.yul\":6245:6250   */\n      dup2\n        /* \"#utility.yul\":6239:6251   */\n      sload\n        /* \"#utility.yul\":6274:6310   */\n      tag_140\n        /* \"#utility.yul\":6300:6309   */\n      dup2\n        /* \"#utility.yul\":6274:6310   */\n      tag_30\n      jump\t// in\n    tag_140:\n        /* \"#utility.yul\":6326:6414   */\n      tag_141\n        /* \"#utility.yul\":6407:6413   */\n      dup2\n        /* \"#utility.yul\":6402:6405   */\n      dup7\n        /* \"#utility.yul\":6326:6414   */\n      tag_53\n      jump\t// in\n    tag_141:\n        /* \"#utility.yul\":6319:6414   */\n      swap5\n      pop\n        /* \"#utility.yul\":6445:6446   */\n      0x01\n        /* \"#utility.yul\":6434:6443   */\n      dup3\n        /* \"#utility.yul\":6430:6447   */\n      and\n        /* \"#utility.yul\":6461:6462   */\n      0x00\n        /* \"#utility.yul\":6456:6622   */\n      dup2\n      eq\n      tag_143\n      jumpi\n        /* \"#utility.yul\":6636:6637   */\n      0x01\n        /* \"#utility.yul\":6631:6975   */\n      dup2\n      eq\n      tag_144\n      jumpi\n        /* \"#utility.yul\":6423:6975   */\n      jump(tag_142)\n        /* \"#utility.yul\":6456:6622   */\n    tag_143:\n        /* \"#utility.yul\":6540:6544   */\n      0xff\n        /* \"#utility.yul\":6536:6545   */\n      not\n        /* \"#utility.yul\":6525:6534   */\n      dup4\n        /* \"#utility.yul\":6521:6546   */\n      and\n        /* \"#utility.yul\":6516:6519   */\n      dup7\n        /* \"#utility.yul\":6509:6547   */\n      mstore\n        /* \"#utility.yul\":6602:6608   */\n      dup2\n        /* \"#utility.yul\":6595:6609   */\n      iszero\n        /* \"#utility.yul\":6588:6610   */\n      iszero\n        /* \"#utility.yul\":6580:6586   */\n      dup3\n        /* \"#utility.yul\":6576:6611   */\n      mul\n        /* \"#utility.yul\":6571:6574   */\n      dup7\n        /* \"#utility.yul\":6567:6612   */\n      add\n        /* \"#utility.yul\":6560:6612   */\n      swap4\n      pop\n        /* \"#utility.yul\":6456:6622   */\n      jump(tag_142)\n        /* \"#utility.yul\":6631:6975   */\n    tag_144:\n        /* \"#utility.yul\":6698:6739   */\n      tag_145\n        /* \"#utility.yul\":6733:6738   */\n      dup6\n        /* \"#utility.yul\":6698:6739   */\n      tag_57\n      jump\t// in\n    tag_145:\n        /* \"#utility.yul\":6761:6762   */\n      0x00\n        /* \"#utility.yul\":6775:6929   */\n    tag_146:\n        /* \"#utility.yul\":6789:6795   */\n      dup4\n        /* \"#utility.yul\":6786:6787   */\n      dup2\n        /* \"#utility.yul\":6783:6796   */\n      lt\n        /* \"#utility.yul\":6775:6929   */\n      iszero\n      tag_148\n      jumpi\n        /* \"#utility.yul\":6863:6870   */\n      dup2\n        /* \"#utility.yul\":6857:6871   */\n      sload\n        /* \"#utility.yul\":6853:6854   */\n      dup2\n        /* \"#utility.yul\":6848:6851   */\n      dup10\n        /* \"#utility.yul\":6844:6855   */\n      add\n        /* \"#utility.yul\":6837:6872   */\n      mstore\n        /* \"#utility.yul\":6913:6914   */\n      0x01\n        /* \"#utility.yul\":6904:6911   */\n      dup3\n        /* \"#utility.yul\":6900:6915   */\n      add\n        /* \"#utility.yul\":6889:6915   */\n      swap2\n      pop\n        /* \"#utility.yul\":6811:6815   */\n      0x20\n        /* \"#utility.yul\":6808:6809   */\n      dup2\n        /* \"#utility.yul\":6804:6816   */\n      add\n        /* \"#utility.yul\":6799:6816   */\n      swap1\n      pop\n        /* \"#utility.yul\":6775:6929   */\n      jump(tag_146)\n    tag_148:\n        /* \"#utility.yul\":6958:6964   */\n      dup4\n        /* \"#utility.yul\":6953:6956   */\n      dup9\n        /* \"#utility.yul\":6949:6965   */\n      add\n        /* \"#utility.yul\":6942:6965   */\n      swap6\n      pop\n        /* \"#utility.yul\":6638:6975   */\n      pop\n      pop\n        /* \"#utility.yul\":6423:6975   */\n    tag_142:\n      pop\n        /* \"#utility.yul\":6212:6981   */\n      pop\n      pop\n        /* \"#utility.yul\":6103:6981   */\n      swap3\n      swap2\n      pop\n      pop\n      jump\t// out\n        /* \"#utility.yul\":6987:7260   */\n    tag_25:\n        /* \"#utility.yul\":7118:7121   */\n      0x00\n        /* \"#utility.yul\":7140:7234   */\n      tag_150\n        /* \"#utility.yul\":7230:7233   */\n      dup3\n        /* \"#utility.yul\":7221:7227   */\n      dup5\n        /* \"#utility.yul\":7140:7234   */\n      tag_58\n      jump\t// in\n    tag_150:\n        /* \"#utility.yul\":7133:7234   */\n      swap2\n      pop\n        /* \"#utility.yul\":7251:7254   */\n      dup2\n        /* \"#utility.yul\":7244:7254   */\n      swap1\n      pop\n        /* \"#utility.yul\":6987:7260   */\n      swap3\n      swap2\n      pop\n      pop\n      jump\t// out\n        /* \"#utility.yul\":7266:7363   */\n    tag_59:\n        /* \"#utility.yul\":7325:7331   */\n      0x00\n        /* \"#utility.yul\":7353:7356   */\n      dup3\n        /* \"#utility.yul\":7343:7356   */\n      swap1\n      pop\n        /* \"#utility.yul\":7266:7363   */\n      swap3\n      swap2\n      pop\n      pop\n      jump\t// out\n        /* \"#utility.yul\":7369:7549   */\n    tag_60:\n        /* \"#utility.yul\":7417:7494   */\n      0x4e487b7100000000000000000000000000000000000000000000000000000000\n        /* \"#utility.yul\":7414:7415   */\n      0x00\n        /* \"#utility.yul\":7407:7495   */\n      mstore\n        /* \"#utility.yul\":7514:7518   */\n      0x41\n        /* \"#utility.yul\":7511:7512   */\n      0x04\n        /* \"#utility.yul\":7504:7519   */\n      mstore\n        /* \"#utility.yul\":7538:7542   */\n      0x24\n        /* \"#utility.yul\":7535:7536   */\n      0x00\n        /* \"#utility.yul\":7528:7543   */\n      revert\n        /* \"#utility.yul\":7555:7696   */\n    tag_61:\n        /* \"#utility.yul\":7604:7608   */\n      0x00\n        /* \"#utility.yul\":7627:7630   */\n      dup2\n        /* \"#utility.yul\":7619:7630   */\n      swap1\n      pop\n        /* \"#utility.yul\":7650:7653   */\n      dup2\n        /* \"#utility.yul\":7647:7648   */\n      0x00\n        /* \"#utility.yul\":7640:7654   */\n      mstore\n        /* \"#utility.yul\":7684:7688   */\n      0x20\n        /* \"#utility.yul\":7681:7682   */\n      0x00\n        /* \"#utility.yul\":7671:7689   */\n      keccak256\n        /* \"#utility.yul\":7663:7689   */\n      swap1\n      pop\n        /* \"#utility.yul\":7555:7696   */\n      swap2\n      swap1\n      pop\n      jump\t// out\n        /* \"#utility.yul\":7702:7795   */\n    tag_62:\n        /* \"#utility.yul\":7739:7745   */\n      0x00\n        /* \"#utility.yul\":7786:7788   */\n      0x20\n        /* \"#utility.yul\":7781:7783   */\n      0x1f\n        /* \"#utility.yul\":7774:7779   */\n      dup4\n        /* \"#utility.yul\":7770:7784   */\n      add\n        /* \"#utility.yul\":7766:7789   */\n      div\n        /* \"#utility.yul\":7756:7789   */\n      swap1\n      pop\n        /* \"#utility.yul\":7702:7795   */\n      swap2\n      swap1\n      pop\n      jump\t// out\n        /* \"#utility.yul\":7801:7908   */\n    tag_63:\n        /* \"#utility.yul\":7845:7853   */\n      0x00\n        /* \"#utility.yul\":7895:7900   */\n      dup3\n        /* \"#utility.yul\":7889:7893   */\n      dup3\n        /* \"#utility.yul\":7885:7901   */\n      shl\n        /* \"#utility.yul\":7864:7901   */\n      swap1\n      pop\n        /* \"#utility.yul\":7801:7908   */\n      swap3\n      swap2\n      pop\n      pop\n      jump\t// out\n        /* \"#utility.yul\":7914:8307   */\n    tag_64:\n        /* \"#utility.yul\":7983:7989   */\n      0x00\n        /* \"#utility.yul\":8033:8034   */\n      0x08\n        /* \"#utility.yul\":8021:8031   */\n      dup4\n        /* \"#utility.yul\":8017:8035   */\n      mul\n        /* \"#utility.yul\":8056:8153   */\n      tag_157\n        /* \"#utility.yul\":8086:8152   */\n      0xffffffffffffffffffffffffffffffffffffffffffffffffffffffffffffffff\n        /* \"#utility.yul\":8075:8084   */\n      dup3\n        /* \"#utility.yul\":8056:8153   */\n      tag_63\n      jump\t// in\n    tag_157:\n        /* \"#utility.yul\":8174:8213   */\n      tag_158\n        /* \"#utility.yul\":8204:8212   */\n      dup7\n        /* \"#utility.yul\":8193:8202   */\n      dup4\n        /* \"#utility.yul\":8174:8213   */\n      tag_63\n      jump\t// in\n    tag_158:\n        /* \"#utility.yul\":8162:8213   */\n      swap6\n      pop\n        /* \"#utility.yul\":8246:8250   */\n      dup1\n        /* \"#utility.yul\":8242:8251   */\n      not\n        /* \"#utility.yul\":8235:8240   */\n      dup5\n        /* \"#utility.yul\":8231:8252   */\n      and\n        /* \"#utility.yul\":8222:8252   */\n      swap4\n      pop\n        /* \"#utility.yul\":8295:8299   */\n      dup1\n        /* \"#utility.yul\":8285:8293   */\n      dup7\n        /* \"#utility.yul\":8281:8300   */\n      and\n        /* \"#utility.yul\":8274:8279   */\n      dup5\n        /* \"#utility.yul\":8271:8301   */\n      or\n        /* \"#utility.yul\":8261:8301   */\n      swap3\n      pop\n        /* \"#utility.yul\":7990:8307   */\n      pop\n      pop\n        /* \"#utility.yul\":7914:8307   */\n      swap4\n      swap3\n      pop\n      pop\n      pop\n      jump\t// out\n        /* \"#utility.yul\":8313:8390   */\n    tag_65:\n        /* \"#utility.yul\":8350:8357   */\n      0x00\n        /* \"#utility.yul\":8379:8384   */\n      dup2\n        /* \"#utility.yul\":8368:8384   */\n      swap1\n      pop\n        /* \"#utility.yul\":8313:8390   */\n      swap2\n      swap1\n      pop\n      jump\t// out\n        /* \"#utility.yul\":8396:8456   */\n    tag_66:\n        /* \"#utility.yul\":8424:8427   */\n      0x00\n        /* \"#utility.yul\":8445:8450   */\n      dup2\n        /* \"#utility.yul\":8438:8450   */\n      swap1\n      pop\n        /* \"#utility.yul\":8396:8456   */\n      swap2\n      swap1\n      pop\n      jump\t// out\n        /* \"#utility.yul\":8462:8604   */\n    tag_67:\n        /* \"#utility.yul\":8512:8521   */\n      0x00\n        /* \"#utility.yul\":8545:8598   */\n      tag_162\n        /* \"#utility.yul\":8563:8597   */\n      tag_163\n        /* \"#utility.yul\":8572:8596   */\n      tag_164\n        /* \"#utility.yul\":8590:8595   */\n      dup5\n        /* \"#utility.yul\":8572:8596   */\n      tag_65\n      jump\t// in\n    tag_164:\n        /* \"#utility.yul\":8563:8597   */\n      tag_66\n      jump\t// in\n    tag_163:\n        /* \"#utility.yul\":8545:8598   */\n      tag_65\n      jump\t// in\n    tag_162:\n        /* \"#utility.yul\":8532:8598   */\n      swap1\n      pop\n        /* \"#utility.yul\":8462:8604   */\n      swap2\n      swap1\n      pop\n      jump\t// out\n        /* \"#utility.yul\":8610:8685   */\n    tag_68:\n        /* \"#utility.yul\":8653:8656   */\n      0x00\n        /* \"#utility.yul\":8674:8679   */\n      dup2\n        /* \"#utility.yul\":8667:8679   */\n      swap1\n      pop\n        /* \"#utility.yul\":8610:8685   */\n      swap2\n      swap1\n      pop\n      jump\t// out\n        /* \"#utility.yul\":8691:8960   */\n    tag_69:\n        /* \"#utility.yul\":8801:8840   */\n      tag_167\n        /* \"#utility.yul\":8832:8839   */\n      dup4\n        /* \"#utility.yul\":8801:8840   */\n      tag_67\n      jump\t// in\n    tag_167:\n        /* \"#utility.yul\":8862:8953   */\n      tag_168\n        /* \"#utility.yul\":8911:8952   */\n      tag_169\n        /* \"#utility.yul\":8935:8951   */\n      dup3\n        /* \"#utility.yul\":8911:8952   */\n      tag_68\n      jump\t// in\n    tag_169:\n        /* \"#utility.yul\":8903:8909   */\n      dup5\n        /* \"#utility.yul\":8896:8900   */\n      dup5\n        /* \"#utility.yul\":8890:8901   */\n      sload\n        /* \"#utility.yul\":8862:8953   */\n      tag_64\n      jump\t// in\n    tag_168:\n        /* \"#utility.yul\":8856:8860   */\n      dup3\n        /* \"#utility.yul\":8849:8954   */\n      sstore\n        /* \"#utility.yul\":8767:8960   */\n      pop\n        /* \"#utility.yul\":8691:8960   */\n      pop\n      pop\n      pop\n      jump\t// out\n        /* \"#utility.yul\":8966:9039   */\n    tag_70:\n        /* \"#utility.yul\":9011:9014   */\n      0x00\n        /* \"#utility.yul\":8966:9039   */\n      swap1\n      jump\t// out\n        /* \"#utility.yul\":9045:9234   */\n    tag_71:\n        /* \"#utility.yul\":9122:9154   */\n      tag_172\n      tag_70\n      jump\t// in\n    tag_172:\n        /* \"#utility.yul\":9163:9228   */\n      tag_173\n        /* \"#utility.yul\":9221:9227   */\n      dup2\n        /* \"#utility.yul\":9213:9219   */\n      dup5\n        /* \"#utility.yul\":9207:9211   */\n      dup5\n        /* \"#utility.yul\":9163:9228   */\n      tag_69\n      jump\t// in\n    tag_173:\n        /* \"#utility.yul\":9098:9234   */\n      pop\n        /* \"#utility.yul\":9045:9234   */\n      pop\n      pop\n      jump\t// out\n        /* \"#utility.yul\":9240:9426   */\n    tag_72:\n        /* \"#utility.yul\":9300:9420   */\n    tag_175:\n        /* \"#utility.yul\":9317:9320   */\n      dup2\n        /* \"#utility.yul\":9310:9315   */\n      dup2\n        /* \"#utility.yul\":9307:9321   */\n      lt\n        /* \"#utility.yul\":9300:9420   */\n      iszero\n      tag_177\n      jumpi\n        /* \"#utility.yul\":9371:9410   */\n      tag_178\n        /* \"#utility.yul\":9408:9409   */\n      0x00\n        /* \"#utility.yul\":9401:9406   */\n      dup3\n        /* \"#utility.yul\":9371:9410   */\n      tag_71\n      jump\t// in\n    tag_178:\n        /* \"#utility.yul\":9344:9345   */\n      0x01\n        /* \"#utility.yul\":9337:9342   */\n      dup2\n        /* \"#utility.yul\":9333:9346   */\n      add\n        /* \"#utility.yul\":9324:9346   */\n      swap1\n      pop\n        /* \"#utility.yul\":9300:9420   */\n      jump(tag_175)\n    tag_177:\n        /* \"#utility.yul\":9240:9426   */\n      pop\n      pop\n      jump\t// out\n        /* \"#utility.yul\":9432:9975   */\n    tag_73:\n        /* \"#utility.yul\":9533:9535   */\n      0x1f\n        /* \"#utility.yul\":9528:9531   */\n      dup3\n        /* \"#utility.yul\":9525:9536   */\n      gt\n        /* \"#utility.yul\":9522:9968   */\n      iszero\n      tag_180\n      jumpi\n        /* \"#utility.yul\":9567:9605   */\n      tag_181\n        /* \"#utility.yul\":9599:9604   */\n      dup2\n        /* \"#utility.yul\":9567:9605   */\n      tag_61\n      jump\t// in\n    tag_181:\n        /* \"#utility.yul\":9651:9680   */\n      tag_182\n        /* \"#utility.yul\":9669:9679   */\n      dup5\n        /* \"#utility.yul\":9651:9680   */\n      tag_62\n      jump\t// in\n    tag_182:\n        /* \"#utility.yul\":9641:9649   */\n      dup2\n        /* \"#utility.yul\":9637:9681   */\n      add\n        /* \"#utility.yul\":9834:9836   */\n      0x20\n        /* \"#utility.yul\":9822:9832   */\n      dup6\n        /* \"#utility.yul\":9819:9837   */\n      lt\n        /* \"#utility.yul\":9816:9865   */\n      iszero\n      tag_183\n      jumpi\n        /* \"#utility.yul\":9855:9863   */\n      dup2\n        /* \"#utility.yul\":9840:9863   */\n      swap1\n      pop\n        /* \"#utility.yul\":9816:9865   */\n    tag_183:\n        /* \"#utility.yul\":9878:9958   */\n      tag_184\n        /* \"#utility.yul\":9934:9956   */\n      tag_185\n        /* \"#utility.yul\":9952:9955   */\n      dup6\n        /* \"#utility.yul\":9934:9956   */\n      tag_62\n      jump\t// in\n    tag_185:\n        /* \"#utility.yul\":9924:9932   */\n      dup4\n        /* \"#utility.yul\":9920:9957   */\n      add\n        /* \"#utility.yul\":9907:9918   */\n      dup3\n        /* \"#utility.yul\":9878:9958   */\n      tag_72\n      jump\t// in\n    tag_184:\n        /* \"#utility.yul\":9537:9968   */\n      pop\n      pop\n        /* \"#utility.yul\":9522:9968   */\n    tag_180:\n        /* \"#utility.yul\":9432:9975   */\n      pop\n      pop\n      pop\n      jump\t// out\n        /* \"#utility.yul\":9981:10098   */\n    tag_74:\n        /* \"#utility.yul\":10035:10043   */\n      0x00\n        /* \"#utility.yul\":10085:10090   */\n      dup3\n        /* \"#utility.yul\":10079:10083   */\n      dup3\n        /* \"#utility.yul\":10075:10091   */\n      shr\n        /* \"#utility.yul\":10054:10091   */\n      swap1\n      pop\n        /* \"#utility.yul\":9981:10098   */\n      swap3\n      swap2\n      pop\n      pop\n      jump\t// out\n        /* \"#utility.yul\":10104:10273   */\n    tag_75:\n        /* \"#utility.yul\":10148:10154   */\n      0x00\n        /* \"#utility.yul\":10181:10232   */\n      tag_188\n        /* \"#utility.yul\":10229:10230   */\n      0x00\n        /* \"#utility.yul\":10225:10231   */\n      not\n        /* \"#utility.yul\":10217:10222   */\n      dup5\n        /* \"#utility.yul\":10214:10215   */\n      0x08\n        /* \"#utility.yul\":10210:10223   */\n      mul\n        /* \"#utility.yul\":10181:10232   */\n      tag_74\n      jump\t// in\n    tag_188:\n        /* \"#utility.yul\":10177:10233   */\n      not\n        /* \"#utility.yul\":10262:10266   */\n      dup1\n        /* \"#utility.yul\":10256:10260   */\n      dup4\n        /* \"#utility.yul\":10252:10267   */\n      and\n        /* \"#utility.yul\":10242:10267   */\n      swap2\n      pop\n        /* \"#utility.yul\":10155:10273   */\n      pop\n        /* \"#utility.yul\":10104:10273   */\n      swap3\n      swap2\n      pop\n      pop\n      jump\t// out\n        /* \"#utility.yul\":10278:10573   */\n    tag_76:\n        /* \"#utility.yul\":10354:10358   */\n      0x00\n        /* \"#utility.yul\":10500:10529   */\n      tag_190\n        /* \"#utility.yul\":10525:10528   */\n      dup4\n        /* \"#utility.yul\":10519:10523   */\n      dup4\n        /* \"#utility.yul\":10500:10529   */\n      tag_75\n      jump\t// in\n    tag_190:\n        /* \"#utility.yul\":10492:10529   */\n      swap2\n      pop\n        /* \"#utility.yul\":10562:10565   */\n      dup3\n        /* \"#utility.yul\":10559:10560   */\n      0x02\n        /* \"#utility.yul\":10555:10566   */\n      mul\n        /* \"#utility.yul\":10549:10553   */\n      dup3\n        /* \"#utility.yul\":10546:10567   */\n      or\n        /* \"#utility.yul\":10538:10567   */\n      swap1\n      pop\n        /* \"#utility.yul\":10278:10573   */\n      swap3\n      swap2\n      pop\n      pop\n      jump\t// out\n        /* \"#utility.yul\":10578:11981   */\n    tag_28:\n        /* \"#utility.yul\":10702:10746   */\n      tag_192\n        /* \"#utility.yul\":10742:10745   */\n      dup4\n        /* \"#utility.yul\":10737:10740   */\n      dup4\n        /* \"#utility.yul\":10702:10746   */\n      tag_59\n      jump\t// in\n    tag_192:\n        /* \"#utility.yul\":10811:10829   */\n      0xffffffffffffffff\n        /* \"#utility.yul\":10803:10809   */\n      dup2\n        /* \"#utility.yul\":10800:10830   */\n      gt\n        /* \"#utility.yul\":10797:10853   */\n      iszero\n      tag_193\n      jumpi\n        /* \"#utility.yul\":10833:10851   */\n      tag_194\n      tag_60\n      jump\t// in\n    tag_194:\n        /* \"#utility.yul\":10797:10853   */\n    tag_193:\n        /* \"#utility.yul\":10877:10915   */\n      tag_195\n        /* \"#utility.yul\":10909:10913   */\n      dup3\n        /* \"#utility.yul\":10903:10914   */\n      sload\n        /* \"#utility.yul\":10877:10915   */\n      tag_30\n      jump\t// in\n    tag_195:\n        /* \"#utility.yul\":10962:11029   */\n      tag_196\n        /* \"#utility.yul\":11022:11028   */\n      dup3\n        /* \"#utility.yul\":11014:11020   */\n      dup3\n        /* \"#utility.yul\":11008:11012   */\n      dup6\n        /* \"#utility.yul\":10962:11029   */\n      tag_73\n      jump\t// in\n    tag_196:\n        /* \"#utility.yul\":11056:11057   */\n      0x00\n        /* \"#utility.yul\":11085:11087   */\n      0x1f\n        /* \"#utility.yul\":11077:11083   */\n      dup4\n        /* \"#utility.yul\":11074:11088   */\n      gt\n        /* \"#utility.yul\":11102:11103   */\n      0x01\n        /* \"#utility.yul\":11097:11729   */\n      dup2\n      eq\n      tag_198\n      jumpi\n        /* \"#utility.yul\":11773:11774   */\n      0x00\n        /* \"#utility.yul\":11790:11796   */\n      dup5\n        /* \"#utility.yul\":11787:11871   */\n      iszero\n      tag_199\n      jumpi\n        /* \"#utility.yul\":11846:11855   */\n      dup3\n        /* \"#utility.yul\":11841:11844   */\n      dup8\n        /* \"#utility.yul\":11837:11856   */\n      add\n        /* \"#utility.yul\":11824:11857   */\n      calldataload\n        /* \"#utility.yul\":11815:11857   */\n      swap1\n      pop\n        /* \"#utility.yul\":11787:11871   */\n    tag_199:\n        /* \"#utility.yul\":11897:11964   */\n      tag_200\n        /* \"#utility.yul\":11957:11963   */\n      dup6\n        /* \"#utility.yul\":11950:11955   */\n      dup3\n        /* \"#utility.yul\":11897:11964   */\n      tag_76\n      jump\t// in\n    tag_200:\n        /* \"#utility.yul\":11891:11895   */\n      dup7\n        /* \"#utility.yul\":11884:11965   */\n      sstore\n        /* \"#utility.yul\":11746:11975   */\n      pop\n        /* \"#utility.yul\":11067:11975   */\n      jump(tag_197)\n        /* \"#utility.yul\":11097:11729   */\n    tag_198:\n        /* \"#utility.yul\":11149:11153   */\n      0x1f\n        /* \"#utility.yul\":11145:11154   */\n      not\n        /* \"#utility.yul\":11137:11143   */\n      dup5\n        /* \"#utility.yul\":11133:11155   */\n      and\n        /* \"#utility.yul\":11183:11220   */\n      tag_201\n        /* \"#utility.yul\":11215:11219   */\n      dup7\n        /* \"#utility.yul\":11183:11220   */\n      tag_61\n      jump\t// in\n    tag_201:\n        /* \"#utility.yul\":11242:11243   */\n      0x00\n        /* \"#utility.yul\":11256:11471   */\n    tag_202:\n        /* \"#utility.yul\":11270:11277   */\n      dup3\n        /* \"#utility.yul\":11267:11268   */\n      dup2\n        /* \"#utility.yul\":11264:11278   */\n      lt\n        /* \"#utility.yul\":11256:11471   */\n      iszero\n      tag_204\n      jumpi\n        /* \"#utility.yul\":11356:11365   */\n      dup5\n        /* \"#utility.yul\":11351:11354   */\n      dup10\n        /* \"#utility.yul\":11347:11366   */\n      add\n        /* \"#utility.yul\":11334:11367   */\n      calldataload\n        /* \"#utility.yul\":11326:11332   */\n      dup3\n        /* \"#utility.yul\":11319:11368   */\n      sstore\n        /* \"#utility.yul\":11407:11408   */\n      0x01\n        /* \"#utility.yul\":11399:11405   */\n      dup3\n        /* \"#utility.yul\":11395:11409   */\n      add\n        /* \"#utility.yul\":11385:11409   */\n      swap2\n      pop\n        /* \"#utility.yul\":11454:11456   */\n      0x20\n        /* \"#utility.yul\":11443:11452   */\n      dup6\n        /* \"#utility.yul\":11439:11457   */\n      add\n        /* \"#utility.yul\":11426:11457   */\n      swap5\n      pop\n        /* \"#utility.yul\":11293:11297   */\n      0x20\n        /* \"#utility.yul\":11290:11291   */\n      dup2\n        /* \"#utility.yul\":11286:11298   */\n      add\n        /* \"#utility.yul\":11281:11298   */\n      swap1\n      pop\n        /* \"#utility.yul\":11256:11471   */\n      jump(tag_202)\n    tag_204:\n        /* \"#utility.yul\":11499:11505   */\n      dup7\n        /* \"#utility.yul\":11490:11497   */\n      dup4\n        /* \"#utility.yul\":11487:11506   */\n      lt\n        /* \"#utility.yul\":11484:11670   */\n      iszero\n      tag_205\n      jumpi\n        /* \"#utility.yul\":11564:11573   */\n      dup5\n        /* \"#utility.yul\":11559:11562   */\n      dup10\n        /* \"#utility.yul\":11555:11574   */\n      add\n        /* \"#utility.yul\":11542:11575   */\n      calldataload\n        /* \"#utility.yul\":11607:11655   */\n      tag_206\n        /* \"#utility.yul\":11649:11653   */\n      0x1f\n        /* \"#utility.yul\":11641:11647   */\n      dup10\n        /* \"#utility.yul\":11637:11654   */\n      and\n        /* \"#utility.yul\":11626:11635   */\n      dup3\n        /* \"#utility.yul\":11607:11655   */\n      tag_75\n      jump\t// in\n    tag_206:\n        /* \"#utility.yul\":11599:11605   */\n      dup4\n        /* \"#utility.yul\":11592:11656   */\n      sstore\n        /* \"#utility.yul\":11507:11670   */\n      pop\n        /* \"#utility.yul\":11484:11670   */\n    tag_205:\n        /* \"#utility.yul\":11716:11717   */\n      0x01\n        /* \"#utility.yul\":11712:11713   */\n      0x02\n        /* \"#utility.yul\":11704:11710   */\n      dup9\n        /* \"#utility.yul\":11700:11714   */\n      mul\n        /* \"#utility.yul\":11696:11718   */\n      add\n        /* \"#utility.yul\":11690:11694   */\n      dup9\n        /* \"#utility.yul\":11683:11719   */\n      sstore\n        /* \"#utility.yul\":11104:11729   */\n      pop\n      pop\n      pop\n        /* \"#utility.yul\":11067:11975   */\n    tag_197:\n      pop\n        /* \"#utility.yul\":10677:11981   */\n      pop\n      pop\n      pop\n        /* \"#utility.yul\":10578:11981   */\n      pop\n      pop\n      pop\n      jump\t// out\n\n    auxdata: 0xa26469706673582212204668f3712e51e1600e5d2c6e7974590f9b829195947f82e902e8f54f5e48e68264736f6c634300081a0033\n}\n",
				"bytecode": {
					"linkReferences": {},
					"object": "6080604052348015600e575f80fd5b506108658061001c5f395ff3fe608060405234801561000f575f80fd5b506004361061003f575f3560e01c806320fa484b146100435780633543b23c14610073578063d590f8c91461008f575b5f80fd5b61005d600480360381019061005891906102e1565b6100bf565b60405161006a9190610358565b60405180910390f35b61008d600480360381019061008891906102e1565b610133565b005b6100a960048036038101906100a49190610371565b610184565b6040516100b6919061040c565b60405180910390f35b5f82826040516100d0929190610468565b60405180910390205f808673ffffffffffffffffffffffffffffffffffffffff1673ffffffffffffffffffffffffffffffffffffffff1681526020019081526020015f20604051610121919061056f565b60405180910390201490509392505050565b81815f808673ffffffffffffffffffffffffffffffffffffffff1673ffffffffffffffffffffffffffffffffffffffff1681526020019081526020015f20918261017e929190610762565b50505050565b5f602052805f5260405f205f91509050805461019f906104ad565b80601f01602080910402602001604051908101604052809291908181526020018280546101cb906104ad565b80156102165780601f106101ed57610100808354040283529160200191610216565b820191905f5260205f20905b8154815290600101906020018083116101f957829003601f168201915b505050505081565b5f80fd5b5f80fd5b5f73ffffffffffffffffffffffffffffffffffffffff82169050919050565b5f61024f82610226565b9050919050565b61025f81610245565b8114610269575f80fd5b50565b5f8135905061027a81610256565b92915050565b5f80fd5b5f80fd5b5f80fd5b5f8083601f8401126102a1576102a0610280565b5b8235905067ffffffffffffffff8111156102be576102bd610284565b5b6020830191508360018202830111156102da576102d9610288565b5b9250929050565b5f805f604084860312156102f8576102f761021e565b5b5f6103058682870161026c565b935050602084013567ffffffffffffffff81111561032657610325610222565b5b6103328682870161028c565b92509250509250925092565b5f8115159050919050565b6103528161033e565b82525050565b5f60208201905061036b5f830184610349565b92915050565b5f602082840312156103865761038561021e565b5b5f6103938482850161026c565b91505092915050565b5f81519050919050565b5f82825260208201905092915050565b8281835e5f83830152505050565b5f601f19601f8301169050919050565b5f6103de8261039c565b6103e881856103a6565b93506103f88185602086016103b6565b610401816103c4565b840191505092915050565b5f6020820190508181035f83015261042481846103d4565b905092915050565b5f81905092915050565b828183375f83830152505050565b5f61044f838561042c565b935061045c838584610436565b82840190509392505050565b5f610474828486610444565b91508190509392505050565b7f4e487b71000000000000000000000000000000000000000000000000000000005f52602260045260245ffd5b5f60028204905060018216806104c457607f821691505b6020821081036104d7576104d6610480565b5b50919050565b5f819050815f5260205f209050919050565b5f81546104fb816104ad565b610505818661042c565b9450600182165f811461051f576001811461053457610566565b60ff1983168652811515820286019350610566565b61053d856104dd565b5f5b8381101561055e5781548189015260018201915060208101905061053f565b838801955050505b50505092915050565b5f61057a82846104ef565b915081905092915050565b5f82905092915050565b7f4e487b71000000000000000000000000000000000000000000000000000000005f52604160045260245ffd5b5f819050815f5260205f209050919050565b5f6020601f8301049050919050565b5f82821b905092915050565b5f600883026106187fffffffffffffffffffffffffffffffffffffffffffffffffffffffffffffffff826105dd565b61062286836105dd565b95508019841693508086168417925050509392505050565b5f819050919050565b5f819050919050565b5f61066661066161065c8461063a565b610643565b61063a565b9050919050565b5f819050919050565b61067f8361064c565b61069361068b8261066d565b8484546105e9565b825550505050565b5f90565b6106a761069b565b6106b2818484610676565b505050565b5b818110156106d5576106ca5f8261069f565b6001810190506106b8565b5050565b601f82111561071a576106eb816105bc565b6106f4846105ce565b81016020851015610703578190505b61071761070f856105ce565b8301826106b7565b50505b505050565b5f82821c905092915050565b5f61073a5f198460080261071f565b1980831691505092915050565b5f610752838361072b565b9150826002028217905092915050565b61076c8383610585565b67ffffffffffffffff8111156107855761078461058f565b5b61078f82546104ad565b61079a8282856106d9565b5f601f8311600181146107c7575f84156107b5578287013590505b6107bf8582610747565b865550610826565b601f1984166107d5866105bc565b5f5b828110156107fc578489013582556001820191506020850194506020810190506107d7565b868310156108195784890135610815601f89168261072b565b8355505b6001600288020188555050505b5050505050505056fea26469706673582212204668f3712e51e1600e5d2c6e7974590f9b829195947f82e902e8f54f5e48e68264736f6c634300081a0033",
					"opcodes": "PUSH1 0x80 PUSH1 0x40 MSTORE CALLVALUE DUP1 ISZERO PUSH1 0xE JUMPI PUSH0 DUP1 REVERT JUMPDEST POP PUSH2 0x865 DUP1 PUSH2 0x1C PUSH0 CODECOPY PUSH0 RETURN INVALID PUSH1 0x80 PUSH1 0x40 MSTORE CALLVALUE DUP1 ISZERO PUSH2 0xF JUMPI PUSH0 DUP1 REVERT JUMPDEST POP PUSH1 0x4 CALLDATASIZE LT PUSH2 0x3F JUMPI PUSH0 CALLDATALOAD PUSH1 0xE0 SHR DUP1 PUSH4 0x20FA484B EQ PUSH2 0x43 JUMPI DUP1 PUSH4 0x3543B23C EQ PUSH2 0x73 JUMPI DUP1 PUSH4 0xD590F8C9 EQ PUSH2 0x8F JUMPI JUMPDEST PUSH0 DUP1 REVERT JUMPDEST PUSH2 0x5D PUSH1 0x4 DUP1 CALLDATASIZE SUB DUP2 ADD SWAP1 PUSH2 0x58 SWAP2 SWAP1 PUSH2 0x2E1 JUMP JUMPDEST PUSH2 0xBF JUMP JUMPDEST PUSH1 0x40 MLOAD PUSH2 0x6A SWAP2 SWAP1 PUSH2 0x358 JUMP JUMPDEST PUSH1 0x40 MLOAD DUP1 SWAP2 SUB SWAP1 RETURN JUMPDEST PUSH2 0x8D PUSH1 0x4 DUP1 CALLDATASIZE SUB DUP2 ADD SWAP1 PUSH2 0x88 SWAP2 SWAP1 PUSH2 0x2E1 JUMP JUMPDEST PUSH2 0x133 JUMP JUMPDEST STOP JUMPDEST PUSH2 0xA9 PUSH1 0x4 DUP1 CALLDATASIZE SUB DUP2 ADD SWAP1 PUSH2 0xA4 SWAP2 SWAP1 PUSH2 0x371 JUMP JUMPDEST PUSH2 0x184 JUMP JUMPDEST PUSH1 0x40 MLOAD PUSH2 0xB6 SWAP2 SWAP1 PUSH2 0x40C JUMP JUMPDEST PUSH1 0x40 MLOAD DUP1 SWAP2 SUB SWAP1 RETURN JUMPDEST PUSH0 DUP3 DUP3 PUSH1 0x40 MLOAD PUSH2 0xD0 SWAP3 SWAP2 SWAP1 PUSH2 0x468 JUMP JUMPDEST PUSH1 0x40 MLOAD DUP1 SWAP2 SUB SWAP1 KECCAK256 PUSH0 DUP1 DUP7 PUSH20 0xFFFFFFFFFFFFFFFFFFFFFFFFFFFFFFFFFFFFFFFF AND PUSH20 0xFFFFFFFFFFFFFFFFFFFFFFFFFFFFFFFFFFFFFFFF AND DUP2 MSTORE PUSH1 0x20 ADD SWAP1 DUP2 MSTORE PUSH1 0x20 ADD PUSH0 KECCAK256 PUSH1 0x40 MLOAD PUSH2 0x121 SWAP2 SWAP1 PUSH2 0x56F JUMP JUMPDEST PUSH1 0x40 MLOAD DUP1 SWAP2 SUB SWAP1 KECCAK256 EQ SWAP1 POP SWAP4 SWAP3 POP POP POP JUMP JUMPDEST DUP2 DUP2 PUSH0 DUP1 DUP7 PUSH20 0xFFFFFFFFFFFFFFFFFFFFFFFFFFFFFFFFFFFFFFFF AND PUSH20 0xFFFFFFFFFFFFFFFFFFFFFFFFFFFFFFFFFFFFFFFF AND DUP2 MSTORE PUSH1 0x20 ADD SWAP1 DUP2 MSTORE PUSH1 0x20 ADD PUSH0 KECCAK256 SWAP2 DUP3 PUSH2 0x17E SWAP3 SWAP2 SWAP1 PUSH2 0x762 JUMP JUMPDEST POP POP POP POP JUMP JUMPDEST PUSH0 PUSH1 0x20 MSTORE DUP1 PUSH0 MSTORE PUSH1 0x40 PUSH0 KECCAK256 PUSH0 SWAP2 POP SWAP1 POP DUP1 SLOAD PUSH2 0x19F SWAP1 PUSH2 0x4AD JUMP JUMPDEST DUP1 PUSH1 0x1F ADD PUSH1 0x20 DUP1 SWAP2 DIV MUL PUSH1 0x20 ADD PUSH1 0x40 MLOAD SWAP1 DUP2 ADD PUSH1 0x40 MSTORE DUP1 SWAP3 SWAP2 SWAP1 DUP2 DUP2 MSTORE PUSH1 0x20 ADD DUP3 DUP1 SLOAD PUSH2 0x1CB SWAP1 PUSH2 0x4AD JUMP JUMPDEST DUP1 ISZERO PUSH2 0x216 JUMPI DUP1 PUSH1 0x1F LT PUSH2 0x1ED JUMPI PUSH2 0x100 DUP1 DUP4 SLOAD DIV MUL DUP4 MSTORE SWAP2 PUSH1 0x20 ADD SWAP2 PUSH2 0x216 JUMP JUMPDEST DUP3 ADD SWAP2 SWAP1 PUSH0 MSTORE PUSH1 0x20 PUSH0 KECCAK256 SWAP1 JUMPDEST DUP2 SLOAD DUP2 MSTORE SWAP1 PUSH1 0x1 ADD SWAP1 PUSH1 0x20 ADD DUP1 DUP4 GT PUSH2 0x1F9 JUMPI DUP3 SWAP1 SUB PUSH1 0x1F AND DUP3 ADD SWAP2 JUMPDEST POP POP POP POP POP DUP2 JUMP JUMPDEST PUSH0 DUP1 REVERT JUMPDEST PUSH0 DUP1 REVERT JUMPDEST PUSH0 PUSH20 0xFFFFFFFFFFFFFFFFFFFFFFFFFFFFFFFFFFFFFFFF DUP3 AND SWAP1 POP SWAP2 SWAP1 POP JUMP JUMPDEST PUSH0 PUSH2 0x24F DUP3 PUSH2 0x226 JUMP JUMPDEST SWAP1 POP SWAP2 SWAP1 POP JUMP JUMPDEST PUSH2 0x25F DUP2 PUSH2 0x245 JUMP JUMPDEST DUP2 EQ PUSH2 0x269 JUMPI PUSH0 DUP1 REVERT JUMPDEST POP JUMP JUMPDEST PUSH0 DUP2 CALLDATALOAD SWAP1 POP PUSH2 0x27A DUP2 PUSH2 0x256 JUMP JUMPDEST SWAP3 SWAP2 POP POP JUMP JUMPDEST PUSH0 DUP1 REVERT JUMPDEST PUSH0 DUP1 REVERT JUMPDEST PUSH0 DUP1 REVERT JUMPDEST PUSH0 DUP1 DUP4 PUSH1 0x1F DUP5 ADD SLT PUSH2 0x2A1 JUMPI PUSH2 0x2A0 PUSH2 0x280 JUMP JUMPDEST JUMPDEST DUP3 CALLDATALOAD SWAP1 POP PUSH8 0xFFFFFFFFFFFFFFFF DUP2 GT ISZERO PUSH2 0x2BE JUMPI PUSH2 0x2BD PUSH2 0x284 JUMP JUMPDEST JUMPDEST PUSH1 0x20 DUP4 ADD SWAP2 POP DUP4 PUSH1 0x1 DUP3 MUL DUP4 ADD GT ISZERO PUSH2 0x2DA JUMPI PUSH2 0x2D9 PUSH2 0x288 JUMP JUMPDEST JUMPDEST SWAP3 POP SWAP3 SWAP1 POP JUMP JUMPDEST PUSH0 DUP1 PUSH0 PUSH1 0x40 DUP5 DUP7 SUB SLT ISZERO PUSH2 0x2F8 JUMPI PUSH2 0x2F7 PUSH2 0x21E JUMP JUMPDEST JUMPDEST PUSH0 PUSH2 0x305 DUP7 DUP3 DUP8 ADD PUSH2 0x26C JUMP JUMPDEST SWAP4 POP POP PUSH1 0x20 DUP5 ADD CALLDATALOAD PUSH8 0xFFFFFFFFFFFFFFFF DUP2 GT ISZERO PUSH2 0x326 JUMPI PUSH2 0x325 PUSH2 0x222 JUMP JUMPDEST JUMPDEST PUSH2 0x332 DUP7 DUP3 DUP8 ADD PUSH2 0x28C JUMP JUMPDEST SWAP3 POP SWAP3 POP POP SWAP3 POP SWAP3 POP SWAP3 JUMP JUMPDEST PUSH0 DUP2 ISZERO ISZERO SWAP1 POP SWAP2 SWAP1 POP JUMP JUMPDEST PUSH2 0x352 DUP2 PUSH2 0x33E JUMP JUMPDEST DUP3 MSTORE POP POP JUMP JUMPDEST PUSH0 PUSH1 0x20 DUP3 ADD SWAP1 POP PUSH2 0x36B PUSH0 DUP4 ADD DUP5 PUSH2 0x349 JUMP JUMPDEST SWAP3 SWAP2 POP POP JUMP JUMPDEST PUSH0 PUSH1 0x20 DUP3 DUP5 SUB SLT ISZERO PUSH2 0x386 JUMPI PUSH2 0x385 PUSH2 0x21E JUMP JUMPDEST JUMPDEST PUSH0 PUSH2 0x393 DUP5 DUP3 DUP6 ADD PUSH2 0x26C JUMP JUMPDEST SWAP2 POP POP SWAP3 SWAP2 POP POP JUMP JUMPDEST PUSH0 DUP2 MLOAD SWAP1 POP SWAP2 SWAP1 POP JUMP JUMPDEST PUSH0 DUP3 DUP3 MSTORE PUSH1 0x20 DUP3 ADD SWAP1 POP SWAP3 SWAP2 POP POP JUMP JUMPDEST DUP3 DUP2 DUP4 MCOPY PUSH0 DUP4 DUP4 ADD MSTORE POP POP POP JUMP JUMPDEST PUSH0 PUSH1 0x1F NOT PUSH1 0x1F DUP4 ADD AND SWAP1 POP SWAP2 SWAP1 POP JUMP JUMPDEST PUSH0 PUSH2 0x3DE DUP3 PUSH2 0x39C JUMP JUMPDEST PUSH2 0x3E8 DUP2 DUP6 PUSH2 0x3A6 JUMP JUMPDEST SWAP4 POP PUSH2 0x3F8 DUP2 DUP6 PUSH1 0x20 DUP7 ADD PUSH2 0x3B6 JUMP JUMPDEST PUSH2 0x401 DUP2 PUSH2 0x3C4 JUMP JUMPDEST DUP5 ADD SWAP2 POP POP SWAP3 SWAP2 POP POP JUMP JUMPDEST PUSH0 PUSH1 0x20 DUP3 ADD SWAP1 POP DUP2 DUP2 SUB PUSH0 DUP4 ADD MSTORE PUSH2 0x424 DUP2 DUP5 PUSH2 0x3D4 JUMP JUMPDEST SWAP1 POP SWAP3 SWAP2 POP POP JUMP JUMPDEST PUSH0 DUP2 SWAP1 POP SWAP3 SWAP2 POP POP JUMP JUMPDEST DUP3 DUP2 DUP4 CALLDATACOPY PUSH0 DUP4 DUP4 ADD MSTORE POP POP POP JUMP JUMPDEST PUSH0 PUSH2 0x44F DUP4 DUP6 PUSH2 0x42C JUMP JUMPDEST SWAP4 POP PUSH2 0x45C DUP4 DUP6 DUP5 PUSH2 0x436 JUMP JUMPDEST DUP3 DUP5 ADD SWAP1 POP SWAP4 SWAP3 POP POP POP JUMP JUMPDEST PUSH0 PUSH2 0x474 DUP3 DUP5 DUP7 PUSH2 0x444 JUMP JUMPDEST SWAP2 POP DUP2 SWAP1 POP SWAP4 SWAP3 POP POP POP JUMP JUMPDEST PUSH32 0x4E487B7100000000000000000000000000000000000000000000000000000000 PUSH0 MSTORE PUSH1 0x22 PUSH1 0x4 MSTORE PUSH1 0x24 PUSH0 REVERT JUMPDEST PUSH0 PUSH1 0x2 DUP3 DIV SWAP1 POP PUSH1 0x1 DUP3 AND DUP1 PUSH2 0x4C4 JUMPI PUSH1 0x7F DUP3 AND SWAP2 POP JUMPDEST PUSH1 0x20 DUP3 LT DUP2 SUB PUSH2 0x4D7 JUMPI PUSH2 0x4D6 PUSH2 0x480 JUMP JUMPDEST JUMPDEST POP SWAP2 SWAP1 POP JUMP JUMPDEST PUSH0 DUP2 SWAP1 POP DUP2 PUSH0 MSTORE PUSH1 0x20 PUSH0 KECCAK256 SWAP1 POP SWAP2 SWAP1 POP JUMP JUMPDEST PUSH0 DUP2 SLOAD PUSH2 0x4FB DUP2 PUSH2 0x4AD JUMP JUMPDEST PUSH2 0x505 DUP2 DUP7 PUSH2 0x42C JUMP JUMPDEST SWAP5 POP PUSH1 0x1 DUP3 AND PUSH0 DUP2 EQ PUSH2 0x51F JUMPI PUSH1 0x1 DUP2 EQ PUSH2 0x534 JUMPI PUSH2 0x566 JUMP JUMPDEST PUSH1 0xFF NOT DUP4 AND DUP7 MSTORE DUP2 ISZERO ISZERO DUP3 MUL DUP7 ADD SWAP4 POP PUSH2 0x566 JUMP JUMPDEST PUSH2 0x53D DUP6 PUSH2 0x4DD JUMP JUMPDEST PUSH0 JUMPDEST DUP4 DUP2 LT ISZERO PUSH2 0x55E JUMPI DUP2 SLOAD DUP2 DUP10 ADD MSTORE PUSH1 0x1 DUP3 ADD SWAP2 POP PUSH1 0x20 DUP2 ADD SWAP1 POP PUSH2 0x53F JUMP JUMPDEST DUP4 DUP9 ADD SWAP6 POP POP POP JUMPDEST POP POP POP SWAP3 SWAP2 POP POP JUMP JUMPDEST PUSH0 PUSH2 0x57A DUP3 DUP5 PUSH2 0x4EF JUMP JUMPDEST SWAP2 POP DUP2 SWAP1 POP SWAP3 SWAP2 POP POP JUMP JUMPDEST PUSH0 DUP3 SWAP1 POP SWAP3 SWAP2 POP POP JUMP JUMPDEST PUSH32 0x4E487B7100000000000000000000000000000000000000000000000000000000 PUSH0 MSTORE PUSH1 0x41 PUSH1 0x4 MSTORE PUSH1 0x24 PUSH0 REVERT JUMPDEST PUSH0 DUP2 SWAP1 POP DUP2 PUSH0 MSTORE PUSH1 0x20 PUSH0 KECCAK256 SWAP1 POP SWAP2 SWAP1 POP JUMP JUMPDEST PUSH0 PUSH1 0x20 PUSH1 0x1F DUP4 ADD DIV SWAP1 POP SWAP2 SWAP1 POP JUMP JUMPDEST PUSH0 DUP3 DUP3 SHL SWAP1 POP SWAP3 SWAP2 POP POP JUMP JUMPDEST PUSH0 PUSH1 0x8 DUP4 MUL PUSH2 0x618 PUSH32 0xFFFFFFFFFFFFFFFFFFFFFFFFFFFFFFFFFFFFFFFFFFFFFFFFFFFFFFFFFFFFFFFF DUP3 PUSH2 0x5DD JUMP JUMPDEST PUSH2 0x622 DUP7 DUP4 PUSH2 0x5DD JUMP JUMPDEST SWAP6 POP DUP1 NOT DUP5 AND SWAP4 POP DUP1 DUP7 AND DUP5 OR SWAP3 POP POP POP SWAP4 SWAP3 POP POP POP JUMP JUMPDEST PUSH0 DUP2 SWAP1 POP SWAP2 SWAP1 POP JUMP JUMPDEST PUSH0 DUP2 SWAP1 POP SWAP2 SWAP1 POP JUMP JUMPDEST PUSH0 PUSH2 0x666 PUSH2 0x661 PUSH2 0x65C DUP5 PUSH2 0x63A JUMP JUMPDEST PUSH2 0x643 JUMP JUMPDEST PUSH2 0x63A JUMP JUMPDEST SWAP1 POP SWAP2 SWAP1 POP JUMP JUMPDEST PUSH0 DUP2 SWAP1 POP SWAP2 SWAP1 POP JUMP JUMPDEST PUSH2 0x67F DUP4 PUSH2 0x64C JUMP JUMPDEST PUSH2 0x693 PUSH2 0x68B DUP3 PUSH2 0x66D JUMP JUMPDEST DUP5 DUP5 SLOAD PUSH2 0x5E9 JUMP JUMPDEST DUP3 SSTORE POP POP POP POP JUMP JUMPDEST PUSH0 SWAP1 JUMP JUMPDEST PUSH2 0x6A7 PUSH2 0x69B JUMP JUMPDEST PUSH2 0x6B2 DUP2 DUP5 DUP5 PUSH2 0x676 JUMP JUMPDEST POP POP POP JUMP JUMPDEST JUMPDEST DUP2 DUP2 LT ISZERO PUSH2 0x6D5 JUMPI PUSH2 0x6CA PUSH0 DUP3 PUSH2 0x69F JUMP JUMPDEST PUSH1 0x1 DUP2 ADD SWAP1 POP PUSH2 0x6B8 JUMP JUMPDEST POP POP JUMP JUMPDEST PUSH1 0x1F DUP3 GT ISZERO PUSH2 0x71A JUMPI PUSH2 0x6EB DUP2 PUSH2 0x5BC JUMP JUMPDEST PUSH2 0x6F4 DUP5 PUSH2 0x5CE JUMP JUMPDEST DUP2 ADD PUSH1 0x20 DUP6 LT ISZERO PUSH2 0x703 JUMPI DUP2 SWAP1 POP JUMPDEST PUSH2 0x717 PUSH2 0x70F DUP6 PUSH2 0x5CE JUMP JUMPDEST DUP4 ADD DUP3 PUSH2 0x6B7 JUMP JUMPDEST POP POP JUMPDEST POP POP POP JUMP JUMPDEST PUSH0 DUP3 DUP3 SHR SWAP1 POP SWAP3 SWAP2 POP POP JUMP JUMPDEST PUSH0 PUSH2 0x73A PUSH0 NOT DUP5 PUSH1 0x8 MUL PUSH2 0x71F JUMP JUMPDEST NOT DUP1 DUP4 AND SWAP2 POP POP SWAP3 SWAP2 POP POP JUMP JUMPDEST PUSH0 PUSH2 0x752 DUP4 DUP4 PUSH2 0x72B JUMP JUMPDEST SWAP2 POP DUP3 PUSH1 0x2 MUL DUP3 OR SWAP1 POP SWAP3 SWAP2 POP POP JUMP JUMPDEST PUSH2 0x76C DUP4 DUP4 PUSH2 0x585 JUMP JUMPDEST PUSH8 0xFFFFFFFFFFFFFFFF DUP2 GT ISZERO PUSH2 0x785 JUMPI PUSH2 0x784 PUSH2 0x58F JUMP JUMPDEST JUMPDEST PUSH2 0x78F DUP3 SLOAD PUSH2 0x4AD JUMP JUMPDEST PUSH2 0x79A DUP3 DUP3 DUP6 PUSH2 0x6D9 JUMP JUMPDEST PUSH0 PUSH1 0x1F DUP4 GT PUSH1 0x1 DUP2 EQ PUSH2 0x7C7 JUMPI PUSH0 DUP5 ISZERO PUSH2 0x7B5 JUMPI DUP3 DUP8 ADD CALLDATALOAD SWAP1 POP JUMPDEST PUSH2 0x7BF DUP6 DUP3 PUSH2 0x747 JUMP JUMPDEST DUP7 SSTORE POP PUSH2 0x826 JUMP JUMPDEST PUSH1 0x1F NOT DUP5 AND PUSH2 0x7D5 DUP7 PUSH2 0x5BC JUMP JUMPDEST PUSH0 JUMPDEST DUP3 DUP2 LT ISZERO PUSH2 0x7FC JUMPI DUP5 DUP10 ADD CALLDATALOAD DUP3 SSTORE PUSH1 0x1 DUP3 ADD SWAP2 POP PUSH1 0x20 DUP6 ADD SWAP5 POP PUSH1 0x20 DUP2 ADD SWAP1 POP PUSH2 0x7D7 JUMP JUMPDEST DUP7 DUP4 LT ISZERO PUSH2 0x819 JUMPI DUP5 DUP10 ADD CALLDATALOAD PUSH2 0x815 PUSH1 0x1F DUP10 AND DUP3 PUSH2 0x72B JUMP JUMPDEST DUP4 SSTORE POP JUMPDEST PUSH1 0x1 PUSH1 0x2 DUP9 MUL ADD DUP9 SSTORE POP POP POP JUMPDEST POP POP POP POP POP POP POP JUMP INVALID LOG2 PUSH5 0x6970667358 0x22 SLT KECCAK256 CHAINID PUSH9 0xF3712E51E1600E5D2C PUSH15 0x7974590F9B829195947F82E902E8F5 0x4F MCOPY BASEFEE 0xE6 DUP3 PUSH5 0x736F6C6343 STOP ADDMOD BYTE STOP CALLER "
				},
				"gasEstimates": {
					"creation": {
						"codeDepositCost": "429800",
						"executionCost": "466",
						"totalCost": "430266"
					},
					"external": {
						"assign(address,string)": "infinite",
						"check(address,string)": "infinite",
						"role(address)": "infinite"
					}
				},
				"methodIdentifiers": {
					"assign(address,string)": "3543b23c",
					"check(address,string)": "20fa484b",
					"role(address)": "d590f8c9"
				}
			},
			"storageLayout": {
				"storage": [
					{
						"astId": 4,
						"contract": "R/Role Based Access Control/RoleRegistry.sol:RoleRegistry",
						"label": "role",
						"offset": 0,
						"slot": "0",
						"type": "t_mapping(t_address,t_string_storage)"
					}
				],
				"types": {
					"t_address": {
						"encoding": "inplace",
						"label": "address",
						"numberOfBytes": "20"
					},
					"t_mapping(t_address,t_string_storage)": {
						"encoding": "mapping",
						"key": "t_address",
						"label": "mapping(address => string)",
						"numberOfBytes": "32",
						"value": "t_string_storage"
					},
					"t_string_storage": {
						"encoding": "bytes",
						"label": "string",
						"numberOfBytes": "32"
					}
				}
			},
			"userdoc": {
				"kind": "user",
				"methods": {},
				"version": 1
			}
		}
	}
}