{
	"data": {
		"bytecode": {
			"linkReferences": {},
			"object": "6080604052348015600e575f80fd5b506106db8061001c5f395ff3fe608060405234801561000f575f80fd5b506004361061003f575f3560e01c806309c5eabe14610043578063be8788261461005f578063f707f8881461007b575b5f80fd5b61005d60048036038101906100589190610372565b6100ab565b005b6100796004803603810190610074919061046c565b61024a565b005b610095600480360381019061009091906104aa565b6102da565b6040516100a291906104e4565b60405180910390f35b5f8282906100b99190610513565b90505f805f837bffffffffffffffffffffffffffffffffffffffffffffffffffffffff19167bffffffffffffffffffffffffffffffffffffffffffffffffffffffff191681526020019081526020015f205f9054906101000a900473ffffffffffffffffffffffffffffffffffffffff1690505f73ffffffffffffffffffffffffffffffffffffffff168173ffffffffffffffffffffffffffffffffffffffff160361019a576040517f08c379a0000000000000000000000000000000000000000000000000000000008152600401610191906105cb565b60405180910390fd5b5f8173ffffffffffffffffffffffffffffffffffffffff1685856040516101c2929190610625565b5f60405180830381855af49150503d805f81146101fa576040519150601f19603f3d011682016040523d82523d5f602084013e6101ff565b606091505b5050905080610243576040517f08c379a000000000000000000000000000000000000000000000000000000000815260040161023a90610687565b60405180910390fd5b5050505050565b805f80847bffffffffffffffffffffffffffffffffffffffffffffffffffffffff19167bffffffffffffffffffffffffffffffffffffffffffffffffffffffff191681526020019081526020015f205f6101000a81548173ffffffffffffffffffffffffffffffffffffffff021916908373ffffffffffffffffffffffffffffffffffffffff1602179055505050565b5f602052805f5260405f205f915054906101000a900473ffffffffffffffffffffffffffffffffffffffff1681565b5f80fd5b5f80fd5b5f80fd5b5f80fd5b5f80fd5b5f8083601f84011261033257610331610311565b5b8235905067ffffffffffffffff81111561034f5761034e610315565b5b60208301915083600182028301111561036b5761036a610319565b5b9250929050565b5f806020838503121561038857610387610309565b5b5f83013567ffffffffffffffff8111156103a5576103a461030d565b5b6103b18582860161031d565b92509250509250929050565b5f7fffffffff0000000000000000000000000000000000000000000000000000000082169050919050565b6103f1816103bd565b81146103fb575f80fd5b50565b5f8135905061040c816103e8565b92915050565b5f73ffffffffffffffffffffffffffffffffffffffff82169050919050565b5f61043b82610412565b9050919050565b61044b81610431565b8114610455575f80fd5b50565b5f8135905061046681610442565b92915050565b5f806040838503121561048257610481610309565b5b5f61048f858286016103fe565b92505060206104a085828601610458565b9150509250929050565b5f602082840312156104bf576104be610309565b5b5f6104cc848285016103fe565b91505092915050565b6104de81610431565b82525050565b5f6020820190506104f75f8301846104d5565b92915050565b5f82905092915050565b5f82821b905092915050565b5f61051e83836104fd565b8261052981356103bd565b92506004821015610569576105647fffffffff0000000000000000000000000000000000000000000000000000000083600403600802610507565b831692505b505092915050565b5f82825260208201905092915050565b7f4d697373696e67206c6f676963000000000000000000000000000000000000005f82015250565b5f6105b5600d83610571565b91506105c082610581565b602082019050919050565b5f6020820190508181035f8301526105e2816105a9565b9050919050565b5f81905092915050565b828183375f83830152505050565b5f61060c83856105e9565b93506106198385846105f3565b82840190509392505050565b5f610631828486610601565b91508190509392505050565b7f44656c656761746563616c6c206661696c6564000000000000000000000000005f82015250565b5f610671601383610571565b915061067c8261063d565b602082019050919050565b5f6020820190508181035f83015261069e81610665565b905091905056fea26469706673582212200987c0dd7bb65b4b67a5e9ecad9a7a4e2a98ac8ba4b8b772732c67655807872464736f6c634300081a0033",
			"opcodes": "PUSH1 0x80 PUSH1 0x40 MSTORE CALLVALUE DUP1 ISZERO PUSH1 0xE JUMPI PUSH0 DUP1 REVERT JUMPDEST POP PUSH2 0x6DB DUP1 PUSH2 0x1C PUSH0 CODECOPY PUSH0 RETURN INVALID PUSH1 0x80 PUSH1 0x40 MSTORE CALLVALUE DUP1 ISZERO PUSH2 0xF JUMPI PUSH0 DUP1 REVERT JUMPDEST POP PUSH1 0x4 CALLDATASIZE LT PUSH2 0x3F JUMPI PUSH0 CALLDATALOAD PUSH1 0xE0 SHR DUP1 PUSH4 0x9C5EABE EQ PUSH2 0x43 JUMPI DUP1 PUSH4 0xBE878826 EQ PUSH2 0x5F JUMPI DUP1 PUSH4 0xF707F888 EQ PUSH2 0x7B JUMPI JUMPDEST PUSH0 DUP1 REVERT JUMPDEST PUSH2 0x5D PUSH1 0x4 DUP1 CALLDATASIZE SUB DUP2 ADD SWAP1 PUSH2 0x58 SWAP2 SWAP1 PUSH2 0x372 JUMP JUMPDEST PUSH2 0xAB JUMP JUMPDEST STOP JUMPDEST PUSH2 0x79 PUSH1 0x4 DUP1 CALLDATASIZE SUB DUP2 ADD SWAP1 PUSH2 0x74 SWAP2 SWAP1 PUSH2 0x46C JUMP JUMPDEST PUSH2 0x24A JUMP JUMPDEST STOP JUMPDEST PUSH2 0x95 PUSH1 0x4 DUP1 CALLDATASIZE SUB DUP2 ADD SWAP1 PUSH2 0x90 SWAP2 SWAP1 PUSH2 0x4AA JUMP JUMPDEST PUSH2 0x2DA JUMP JUMPDEST PUSH1 0x40 MLOAD PUSH2 0xA2 SWAP2 SWAP1 PUSH2 0x4E4 JUMP JUMPDEST PUSH1 0x40 MLOAD DUP1 SWAP2 SUB SWAP1 RETURN JUMPDEST PUSH0 DUP3 DUP3 SWAP1 PUSH2 0xB9 SWAP2 SWAP1 PUSH2 0x513 JUMP JUMPDEST SWAP1 POP PUSH0 DUP1 PUSH0 DUP4 PUSH28 0xFFFFFFFFFFFFFFFFFFFFFFFFFFFFFFFFFFFFFFFFFFFFFFFFFFFFFFFF NOT AND PUSH28 0xFFFFFFFFFFFFFFFFFFFFFFFFFFFFFFFFFFFFFFFFFFFFFFFFFFFFFFFF NOT AND DUP2 MSTORE PUSH1 0x20 ADD SWAP1 DUP2 MSTORE PUSH1 0x20 ADD PUSH0 KECCAK256 PUSH0 SWAP1 SLOAD SWAP1 PUSH2 0x100 EXP SWAP1 DIV PUSH20 0xFFFFFFFFFFFFFFFFFFFFFFFFFFFFFFFFFFFFFFFF AND SWAP1 POP PUSH0 PUSH20 0xFFFFFFFFFFFFFFFFFFFFFFFFFFFFFFFFFFFFFFFF AND DUP2 PUSH20 0xFFFFFFFFFFFFFFFFFFFFFFFFFFFFFFFFFFFFFFFF AND SUB PUSH2 0x19A JUMPI PUSH1 0x40 MLOAD PUSH32 0x8C379A000000000000000000000000000000000000000000000000000000000 DUP2 MSTORE PUSH1 0x4 ADD PUSH2 0x191 SWAP1 PUSH2 0x5CB JUMP JUMPDEST PUSH1 0x40 MLOAD DUP1 SWAP2 SUB SWAP1 REVERT JUMPDEST PUSH0 DUP2 PUSH20 0xFFFFFFFFFFFFFFFFFFFFFFFFFFFFFFFFFFFFFFFF AND DUP6 DUP6 PUSH1 0x40 MLOAD PUSH2 0x1C2 SWAP3 SWAP2 SWAP1 PUSH2 0x625 JUMP JUMPDEST PUSH0 PUSH1 0x40 MLOAD DUP1 DUP4 SUB DUP2 DUP6 GAS DELEGATECALL SWAP2 POP POP RETURNDATASIZE DUP1 PUSH0 DUP2 EQ PUSH2 0x1FA JUMPI PUSH1 0x40 MLOAD SWAP2 POP PUSH1 0x1F NOT PUSH1 0x3F RETURNDATASIZE ADD AND DUP3 ADD PUSH1 0x40 MSTORE RETURNDATASIZE DUP3 MSTORE RETURNDATASIZE PUSH0 PUSH1 0x20 DUP5 ADD RETURNDATACOPY PUSH2 0x1FF JUMP JUMPDEST PUSH1 0x60 SWAP2 POP JUMPDEST POP POP SWAP1 POP DUP1 PUSH2 0x243 JUMPI PUSH1 0x40 MLOAD PUSH32 0x8C379A000000000000000000000000000000000000000000000000000000000 DUP2 MSTORE PUSH1 0x4 ADD PUSH2 0x23A SWAP1 PUSH2 0x687 JUMP JUMPDEST PUSH1 0x40 MLOAD DUP1 SWAP2 SUB SWAP1 REVERT JUMPDEST POP POP POP POP POP JUMP JUMPDEST DUP1 PUSH0 DUP1 DUP5 PUSH28 0xFFFFFFFFFFFFFFFFFFFFFFFFFFFFFFFFFFFFFFFFFFFFFFFFFFFFFFFF NOT AND PUSH28 0xFFFFFFFFFFFFFFFFFFFFFFFFFFFFFFFFFFFFFFFFFFFFFFFFFFFFFFFF NOT AND DUP2 MSTORE PUSH1 0x20 ADD SWAP1 DUP2 MSTORE PUSH1 0x20 ADD PUSH0 KECCAK256 PUSH0 PUSH2 0x100 EXP DUP2 SLOAD DUP2 PUSH20 0xFFFFFFFFFFFFFFFFFFFFFFFFFFFFFFFFFFFFFFFF MUL NOT AND SWAP1 DUP4 PUSH20 0xFFFFFFFFFFFFFFFFFFFFFFFFFFFFFFFFFFFFFFFF AND MUL OR SWAP1 SSTORE POP POP POP JUMP JUMPDEST PUSH0 PUSH1 0x20 MSTORE DUP1 PUSH0 MSTORE PUSH1 0x40 PUSH0 KECCAK256 PUSH0 SWAP2 POP SLOAD SWAP1 PUSH2 0x100 EXP SWAP1 DIV PUSH20 0xFFFFFFFFFFFFFFFFFFFFFFFFFFFFFFFFFFFFFFFF AND DUP2 JUMP JUMPDEST PUSH0 DUP1 REVERT JUMPDEST PUSH0 DUP1 REVERT JUMPDEST PUSH0 DUP1 REVERT JUMPDEST PUSH0 DUP1 REVERT JUMPDEST PUSH0 DUP1 REVERT JUMPDEST PUSH0 DUP1 DUP4 PUSH1 0x1F DUP5 ADD SLT PUSH2 0x332 JUMPI PUSH2 0x331 PUSH2 0x311 JUMP JUMPDEST JUMPDEST DUP3 CALLDATALOAD SWAP1 POP PUSH8 0xFFFFFFFFFFFFFFFF DUP2 GT ISZERO PUSH2 0x34F JUMPI PUSH2 0x34E PUSH2 0x315 JUMP JUMPDEST JUMPDEST PUSH1 0x20 DUP4 ADD SWAP2 POP DUP4 PUSH1 0x1 DUP3 MUL DUP4 ADD GT ISZERO PUSH2 0x36B JUMPI PUSH2 0x36A PUSH2 0x319 JUMP JUMPDEST JUMPDEST SWAP3 POP SWAP3 SWAP1 POP JUMP JUMPDEST PUSH0 DUP1 PUSH1 0x20 DUP4 DUP6 SUB SLT ISZERO PUSH2 0x388 JUMPI PUSH2 0x387 PUSH2 0x309 JUMP JUMPDEST JUMPDEST PUSH0 DUP4 ADD CALLDATALOAD PUSH8 0xFFFFFFFFFFFFFFFF DUP2 GT ISZERO PUSH2 0x3A5 JUMPI PUSH2 0x3A4 PUSH2 0x30D JUMP JUMPDEST JUMPDEST PUSH2 0x3B1 DUP6 DUP3 DUP7 ADD PUSH2 0x31D JUMP JUMPDEST SWAP3 POP SWAP3 POP POP SWAP3 POP SWAP3 SWAP1 POP JUMP JUMPDEST PUSH0 PUSH32 0xFFFFFFFF00000000000000000000000000000000000000000000000000000000 DUP3 AND SWAP1 POP SWAP2 SWAP1 POP JUMP JUMPDEST PUSH2 0x3F1 DUP2 PUSH2 0x3BD JUMP JUMPDEST DUP2 EQ PUSH2 0x3FB JUMPI PUSH0 DUP1 REVERT JUMPDEST POP JUMP JUMPDEST PUSH0 DUP2 CALLDATALOAD SWAP1 POP PUSH2 0x40C DUP2 PUSH2 0x3E8 JUMP JUMPDEST SWAP3 SWAP2 POP POP JUMP JUMPDEST PUSH0 PUSH20 0xFFFFFFFFFFFFFFFFFFFFFFFFFFFFFFFFFFFFFFFF DUP3 AND SWAP1 POP SWAP2 SWAP1 POP JUMP JUMPDEST PUSH0 PUSH2 0x43B DUP3 PUSH2 0x412 JUMP JUMPDEST SWAP1 POP SWAP2 SWAP1 POP JUMP JUMPDEST PUSH2 0x44B DUP2 PUSH2 0x431 JUMP JUMPDEST DUP2 EQ PUSH2 0x455 JUMPI PUSH0 DUP1 REVERT JUMPDEST POP JUMP JUMPDEST PUSH0 DUP2 CALLDATALOAD SWAP1 POP PUSH2 0x466 DUP2 PUSH2 0x442 JUMP JUMPDEST SWAP3 SWAP2 POP POP JUMP JUMPDEST PUSH0 DUP1 PUSH1 0x40 DUP4 DUP6 SUB SLT ISZERO PUSH2 0x482 JUMPI PUSH2 0x481 PUSH2 0x309 JUMP JUMPDEST JUMPDEST PUSH0 PUSH2 0x48F DUP6 DUP3 DUP7 ADD PUSH2 0x3FE JUMP JUMPDEST SWAP3 POP POP PUSH1 0x20 PUSH2 0x4A0 DUP6 DUP3 DUP7 ADD PUSH2 0x458 JUMP JUMPDEST SWAP2 POP POP SWAP3 POP SWAP3 SWAP1 POP JUMP JUMPDEST PUSH0 PUSH1 0x20 DUP3 DUP5 SUB SLT ISZERO PUSH2 0x4BF JUMPI PUSH2 0x4BE PUSH2 0x309 JUMP JUMPDEST JUMPDEST PUSH0 PUSH2 0x4CC DUP5 DUP3 DUP6 ADD PUSH2 0x3FE JUMP JUMPDEST SWAP2 POP POP SWAP3 SWAP2 POP POP JUMP JUMPDEST PUSH2 0x4DE DUP2 PUSH2 0x431 JUMP JUMPDEST DUP3 MSTORE POP POP JUMP JUMPDEST PUSH0 PUSH1 0x20 DUP3 ADD SWAP1 POP PUSH2 0x4F7 PUSH0 DUP4 ADD DUP5 PUSH2 0x4D5 JUMP JUMPDEST SWAP3 SWAP2 POP POP JUMP JUMPDEST PUSH0 DUP3 SWAP1 POP SWAP3 SWAP2 POP POP JUMP JUMPDEST PUSH0 DUP3 DUP3 SHL SWAP1 POP SWAP3 SWAP2 POP POP JUMP JUMPDEST PUSH0 PUSH2 0x51E DUP4 DUP4 PUSH2 0x4FD JUMP JUMPDEST DUP3 PUSH2 0x529 DUP2 CALLDATALOAD PUSH2 0x3BD JUMP JUMPDEST SWAP3 POP PUSH1 0x4 DUP3 LT ISZERO PUSH2 0x569 JUMPI PUSH2 0x564 PUSH32 0xFFFFFFFF00000000000000000000000000000000000000000000000000000000 DUP4 PUSH1 0x4 SUB PUSH1 0x8 MUL PUSH2 0x507 JUMP JUMPDEST DUP4 AND SWAP3 POP JUMPDEST POP POP SWAP3 SWAP2 POP POP JUMP JUMPDEST PUSH0 DUP3 DUP3 MSTORE PUSH1 0x20 DUP3 ADD SWAP1 POP SWAP3 SWAP2 POP POP JUMP JUMPDEST PUSH32 0x4D697373696E67206C6F67696300000000000000000000000000000000000000 PUSH0 DUP3 ADD MSTORE POP JUMP JUMPDEST PUSH0 PUSH2 0x5B5 PUSH1 0xD DUP4 PUSH2 0x571 JUMP JUMPDEST SWAP2 POP PUSH2 0x5C0 DUP3 PUSH2 0x581 JUMP JUMPDEST PUSH1 0x20 DUP3 ADD SWAP1 POP SWAP2 SWAP1 POP JUMP JUMPDEST PUSH0 PUSH1 0x20 DUP3 ADD SWAP1 POP DUP2 DUP2 SUB PUSH0 DUP4 ADD MSTORE PUSH2 0x5E2 DUP2 PUSH2 0x5A9 JUMP JUMPDEST SWAP1 POP SWAP2 SWAP1 POP JUMP JUMPDEST PUSH0 DUP2 SWAP1 POP SWAP3 SWAP2 POP POP JUMP JUMPDEST DUP3 DUP2 DUP4 CALLDATACOPY PUSH0 DUP4 DUP4 ADD MSTORE POP POP POP JUMP JUMPDEST PUSH0 PUSH2 0x60C DUP4 DUP6 PUSH2 0x5E9 JUMP JUMPDEST SWAP4 POP PUSH2 0x619 DUP4 DUP6 DUP5 PUSH2 0x5F3 JUMP JUMPDEST DUP3 DUP5 ADD SWAP1 POP SWAP4 SWAP3 POP POP POP JUMP JUMPDEST PUSH0 PUSH2 0x631 DUP3 DUP5 DUP7 PUSH2 0x601 JUMP JUMPDEST SWAP2 POP DUP2 SWAP1 POP SWAP4 SWAP3 POP POP POP JUMP JUMPDEST PUSH32 0x44656C656761746563616C6C206661696C656400000000000000000000000000 PUSH0 DUP3 ADD MSTORE POP JUMP JUMPDEST PUSH0 PUSH2 0x671 PUSH1 0x13 DUP4 PUSH2 0x571 JUMP JUMPDEST SWAP2 POP PUSH2 0x67C DUP3 PUSH2 0x63D JUMP JUMPDEST PUSH1 0x20 DUP3 ADD SWAP1 POP SWAP2 SWAP1 POP JUMP JUMPDEST PUSH0 PUSH1 0x20 DUP3 ADD SWAP1 POP DUP2 DUP2 SUB PUSH0 DUP4 ADD MSTORE PUSH2 0x69E DUP2 PUSH2 0x665 JUMP JUMPDEST SWAP1 POP SWAP2 SWAP1 POP JUMP INVALID LOG2 PUSH5 0x6970667358 0x22 SLT KECCAK256 MULMOD DUP8 0xC0 0xDD PUSH28 0xB65B4B67A5E9ECAD9A7A4E2A98AC8BA4B8B772732C67655807872464 PUSH20 0x6F6C634300081A00330000000000000000000000 "
		},
		"gasEstimates": {
			"creation": {
				"codeDepositCost": "351000",
				"executionCost": "384",
				"totalCost": "351384"
			},
			"external": {
				"execute(bytes)": "infinite",
				"logicMap(bytes4)": "2854",
				"setLogic(bytes4,address)": "24986"
			}
		},
		"methodIdentifiers": {
			"execute(bytes)": "09c5eabe",
			"logicMap(bytes4)": "f707f888",
			"setLogic(bytes4,address)": "be878826"
		}
	},
	"abi": [
		{
			"inputs": [
				{
					"internalType": "bytes",
					"name": "data",
					"type": "bytes"
				}
			],
			"name": "execute",
			"outputs": [],
			"stateMutability": "nonpayable",
			"type": "function"
		},
		{
			"inputs": [
				{
					"internalType": "bytes4",
					"name": "",
					"type": "bytes4"
				}
			],
			"name": "logicMap",
			"outputs": [
				{
					"internalType": "address",
					"name": "",
					"type": "address"
				}
			],
			"stateMutability": "view",
			"type": "function"
		},
		{
			"inputs": [
				{
					"internalType": "bytes4",
					"name": "selector",
					"type": "bytes4"
				},
				{
					"internalType": "address",
					"name": "logic",
					"type": "address"
				}
			],
			"name": "setLogic",
			"outputs": [],
			"stateMutability": "nonpayable",
			"type": "function"
		}
	]
}