{
	"F/Form-Based Authentication/Plaintext FormAuth (do NOT do this).sol": {
		"InsecureFormAuth": {
			"abi": [
				{
					"inputs": [
						{
							"internalType": "string",
							"name": "passwordAttempt",
							"type": "string"
						}
					],
					"name": "login",
					"outputs": [
						{
							"internalType": "bool",
							"name": "",
							"type": "bool"
						}
					],
					"stateMutability": "view",
					"type": "function"
				},
				{
					"inputs": [
						{
							"internalType": "address",
							"name": "",
							"type": "address"
						}
					],
					"name": "passwords",
					"outputs": [
						{
							"internalType": "string",
							"name": "",
							"type": "string"
						}
					],
					"stateMutability": "view",
					"type": "function"
				},
				{
					"inputs": [
						{
							"internalType": "string",
							"name": "username",
							"type": "string"
						},
						{
							"internalType": "string",
							"name": "password",
							"type": "string"
						}
					],
					"name": "register",
					"outputs": [],
					"stateMutability": "nonpayable",
					"type": "function"
				},
				{
					"inputs": [
						{
							"internalType": "address",
							"name": "",
							"type": "address"
						}
					],
					"name": "usernames",
					"outputs": [
						{
							"internalType": "string",
							"name": "",
							"type": "string"
						}
					],
					"stateMutability": "view",
					"type": "function"
				}
			],
			"devdoc": {
				"kind": "dev",
				"methods": {},
				"version": 1
			},
			"evm": {
				"assembly": "    /* \"F/Form-Based Authentication/Plaintext FormAuth (do NOT do this).sol\":186:672  contract InsecureFormAuth {... */\n  mstore(0x40, 0x80)\n  callvalue\n  dup1\n  iszero\n  tag_1\n  jumpi\n  0x00\n  dup1\n  revert\ntag_1:\n  pop\n  dataSize(sub_0)\n  dup1\n  dataOffset(sub_0)\n  0x00\n  codecopy\n  0x00\n  return\nstop\n\nsub_0: assembly {\n        /* \"F/Form-Based Authentication/Plaintext FormAuth (do NOT do this).sol\":186:672  contract InsecureFormAuth {... */\n      mstore(0x40, 0x80)\n      callvalue\n      dup1\n      iszero\n      tag_1\n      jumpi\n      0x00\n      dup1\n      revert\n    tag_1:\n      pop\n      jumpi(tag_2, lt(calldatasize, 0x04))\n      shr(0xe0, calldataload(0x00))\n      dup1\n      0x3a7d280c\n      eq\n      tag_3\n      jumpi\n      dup1\n      0x3ffbd47f\n      eq\n      tag_4\n      jumpi\n      dup1\n      0xda0d37e6\n      eq\n      tag_5\n      jumpi\n      dup1\n      0xee91877c\n      eq\n      tag_6\n      jumpi\n    tag_2:\n      0x00\n      dup1\n      revert\n        /* \"F/Form-Based Authentication/Plaintext FormAuth (do NOT do this).sol\":493:670  function login(string calldata passwordAttempt) external view returns (bool) {... */\n    tag_3:\n      tag_7\n      0x04\n      dup1\n      calldatasize\n      sub\n      dup2\n      add\n      swap1\n      tag_8\n      swap2\n      swap1\n      tag_9\n      jump\t// in\n    tag_8:\n      tag_10\n      jump\t// in\n    tag_7:\n      mload(0x40)\n      tag_11\n      swap2\n      swap1\n      tag_12\n      jump\t// in\n    tag_11:\n      mload(0x40)\n      dup1\n      swap2\n      sub\n      swap1\n      return\n        /* \"F/Form-Based Authentication/Plaintext FormAuth (do NOT do this).sol\":317:487  function register(string calldata username, string calldata password) external {... */\n    tag_4:\n      tag_13\n      0x04\n      dup1\n      calldatasize\n      sub\n      dup2\n      add\n      swap1\n      tag_14\n      swap2\n      swap1\n      tag_15\n      jump\t// in\n    tag_14:\n      tag_16\n      jump\t// in\n    tag_13:\n      stop\n        /* \"F/Form-Based Authentication/Plaintext FormAuth (do NOT do this).sol\":267:310  mapping(address => string) public passwords */\n    tag_5:\n      tag_17\n      0x04\n      dup1\n      calldatasize\n      sub\n      dup2\n      add\n      swap1\n      tag_18\n      swap2\n      swap1\n      tag_19\n      jump\t// in\n    tag_18:\n      tag_20\n      jump\t// in\n    tag_17:\n      mload(0x40)\n      tag_21\n      swap2\n      swap1\n      tag_22\n      jump\t// in\n    tag_21:\n      mload(0x40)\n      dup1\n      swap2\n      sub\n      swap1\n      return\n        /* \"F/Form-Based Authentication/Plaintext FormAuth (do NOT do this).sol\":218:261  mapping(address => string) public usernames */\n    tag_6:\n      tag_23\n      0x04\n      dup1\n      calldatasize\n      sub\n      dup2\n      add\n      swap1\n      tag_24\n      swap2\n      swap1\n      tag_19\n      jump\t// in\n    tag_24:\n      tag_25\n      jump\t// in\n    tag_23:\n      mload(0x40)\n      tag_26\n      swap2\n      swap1\n      tag_22\n      jump\t// in\n    tag_26:\n      mload(0x40)\n      dup1\n      swap2\n      sub\n      swap1\n      return\n        /* \"F/Form-Based Authentication/Plaintext FormAuth (do NOT do this).sol\":493:670  function login(string calldata passwordAttempt) external view returns (bool) {... */\n    tag_10:\n        /* \"F/Form-Based Authentication/Plaintext FormAuth (do NOT do this).sol\":564:568  bool */\n      0x00\n        /* \"F/Form-Based Authentication/Plaintext FormAuth (do NOT do this).sol\":646:661  passwordAttempt */\n      dup3\n      dup3\n        /* \"F/Form-Based Authentication/Plaintext FormAuth (do NOT do this).sol\":630:663  keccak256(bytes(passwordAttempt)) */\n      mload(0x40)\n      tag_28\n      swap3\n      swap2\n      swap1\n      tag_29\n      jump\t// in\n    tag_28:\n      mload(0x40)\n      dup1\n      swap2\n      sub\n      swap1\n      keccak256\n        /* \"F/Form-Based Authentication/Plaintext FormAuth (do NOT do this).sol\":603:612  passwords */\n      0x01\n        /* \"F/Form-Based Authentication/Plaintext FormAuth (do NOT do this).sol\":603:624  passwords[msg.sender] */\n      0x00\n        /* \"F/Form-Based Authentication/Plaintext FormAuth (do NOT do this).sol\":613:623  msg.sender */\n      caller\n        /* \"F/Form-Based Authentication/Plaintext FormAuth (do NOT do this).sol\":603:624  passwords[msg.sender] */\n      0xffffffffffffffffffffffffffffffffffffffff\n      and\n      0xffffffffffffffffffffffffffffffffffffffff\n      and\n      dup2\n      mstore\n      0x20\n      add\n      swap1\n      dup2\n      mstore\n      0x20\n      add\n      0x00\n      keccak256\n        /* \"F/Form-Based Authentication/Plaintext FormAuth (do NOT do this).sol\":587:626  keccak256(bytes(passwords[msg.sender])) */\n      mload(0x40)\n      tag_30\n      swap2\n      swap1\n      tag_31\n      jump\t// in\n    tag_30:\n      mload(0x40)\n      dup1\n      swap2\n      sub\n      swap1\n      keccak256\n        /* \"F/Form-Based Authentication/Plaintext FormAuth (do NOT do this).sol\":587:663  keccak256(bytes(passwords[msg.sender])) == keccak256(bytes(passwordAttempt)) */\n      eq\n        /* \"F/Form-Based Authentication/Plaintext FormAuth (do NOT do this).sol\":580:663  return keccak256(bytes(passwords[msg.sender])) == keccak256(bytes(passwordAttempt)) */\n      swap1\n      pop\n        /* \"F/Form-Based Authentication/Plaintext FormAuth (do NOT do this).sol\":493:670  function login(string calldata passwordAttempt) external view returns (bool) {... */\n      swap3\n      swap2\n      pop\n      pop\n      jump\t// out\n        /* \"F/Form-Based Authentication/Plaintext FormAuth (do NOT do this).sol\":317:487  function register(string calldata username, string calldata password) external {... */\n    tag_16:\n        /* \"F/Form-Based Authentication/Plaintext FormAuth (do NOT do this).sol\":430:438  username */\n      dup4\n      dup4\n        /* \"F/Form-Based Authentication/Plaintext FormAuth (do NOT do this).sol\":406:415  usernames */\n      0x00\n        /* \"F/Form-Based Authentication/Plaintext FormAuth (do NOT do this).sol\":406:427  usernames[msg.sender] */\n      dup1\n        /* \"F/Form-Based Authentication/Plaintext FormAuth (do NOT do this).sol\":416:426  msg.sender */\n      caller\n        /* \"F/Form-Based Authentication/Plaintext FormAuth (do NOT do this).sol\":406:427  usernames[msg.sender] */\n      0xffffffffffffffffffffffffffffffffffffffff\n      and\n      0xffffffffffffffffffffffffffffffffffffffff\n      and\n      dup2\n      mstore\n      0x20\n      add\n      swap1\n      dup2\n      mstore\n      0x20\n      add\n      0x00\n      keccak256\n        /* \"F/Form-Based Authentication/Plaintext FormAuth (do NOT do this).sol\":406:438  usernames[msg.sender] = username */\n      swap2\n      dup3\n      tag_33\n      swap3\n      swap2\n      swap1\n      tag_34\n      jump\t// in\n    tag_33:\n      pop\n        /* \"F/Form-Based Authentication/Plaintext FormAuth (do NOT do this).sol\":472:480  password */\n      dup2\n      dup2\n        /* \"F/Form-Based Authentication/Plaintext FormAuth (do NOT do this).sol\":448:457  passwords */\n      0x01\n        /* \"F/Form-Based Authentication/Plaintext FormAuth (do NOT do this).sol\":448:469  passwords[msg.sender] */\n      0x00\n        /* \"F/Form-Based Authentication/Plaintext FormAuth (do NOT do this).sol\":458:468  msg.sender */\n      caller\n        /* \"F/Form-Based Authentication/Plaintext FormAuth (do NOT do this).sol\":448:469  passwords[msg.sender] */\n      0xffffffffffffffffffffffffffffffffffffffff\n      and\n      0xffffffffffffffffffffffffffffffffffffffff\n      and\n      dup2\n      mstore\n      0x20\n      add\n      swap1\n      dup2\n      mstore\n      0x20\n      add\n      0x00\n      keccak256\n        /* \"F/Form-Based Authentication/Plaintext FormAuth (do NOT do this).sol\":448:480  passwords[msg.sender] = password */\n      swap2\n      dup3\n      tag_35\n      swap3\n      swap2\n      swap1\n      tag_34\n      jump\t// in\n    tag_35:\n      pop\n        /* \"F/Form-Based Authentication/Plaintext FormAuth (do NOT do this).sol\":317:487  function register(string calldata username, string calldata password) external {... */\n      pop\n      pop\n      pop\n      pop\n      jump\t// out\n        /* \"F/Form-Based Authentication/Plaintext FormAuth (do NOT do this).sol\":267:310  mapping(address => string) public passwords */\n    tag_20:\n      mstore(0x20, 0x01)\n      dup1\n      0x00\n      mstore\n      keccak256(0x00, 0x40)\n      0x00\n      swap2\n      pop\n      swap1\n      pop\n      dup1\n      sload\n      tag_36\n      swap1\n      tag_37\n      jump\t// in\n    tag_36:\n      dup1\n      0x1f\n      add\n      0x20\n      dup1\n      swap2\n      div\n      mul\n      0x20\n      add\n      mload(0x40)\n      swap1\n      dup2\n      add\n      0x40\n      mstore\n      dup1\n      swap3\n      swap2\n      swap1\n      dup2\n      dup2\n      mstore\n      0x20\n      add\n      dup3\n      dup1\n      sload\n      tag_38\n      swap1\n      tag_37\n      jump\t// in\n    tag_38:\n      dup1\n      iszero\n      tag_39\n      jumpi\n      dup1\n      0x1f\n      lt\n      tag_40\n      jumpi\n      0x0100\n      dup1\n      dup4\n      sload\n      div\n      mul\n      dup4\n      mstore\n      swap2\n      0x20\n      add\n      swap2\n      jump(tag_39)\n    tag_40:\n      dup3\n      add\n      swap2\n      swap1\n      0x00\n      mstore\n      keccak256(0x00, 0x20)\n      swap1\n    tag_41:\n      dup2\n      sload\n      dup2\n      mstore\n      swap1\n      0x01\n      add\n      swap1\n      0x20\n      add\n      dup1\n      dup4\n      gt\n      tag_41\n      jumpi\n      dup3\n      swap1\n      sub\n      0x1f\n      and\n      dup3\n      add\n      swap2\n    tag_39:\n      pop\n      pop\n      pop\n      pop\n      pop\n      dup2\n      jump\t// out\n        /* \"F/Form-Based Authentication/Plaintext FormAuth (do NOT do this).sol\":218:261  mapping(address => string) public usernames */\n    tag_25:\n      mstore(0x20, 0x00)\n      dup1\n      0x00\n      mstore\n      keccak256(0x00, 0x40)\n      0x00\n      swap2\n      pop\n      swap1\n      pop\n      dup1\n      sload\n      tag_42\n      swap1\n      tag_37\n      jump\t// in\n    tag_42:\n      dup1\n      0x1f\n      add\n      0x20\n      dup1\n      swap2\n      div\n      mul\n      0x20\n      add\n      mload(0x40)\n      swap1\n      dup2\n      add\n      0x40\n      mstore\n      dup1\n      swap3\n      swap2\n      swap1\n      dup2\n      dup2\n      mstore\n      0x20\n      add\n      dup3\n      dup1\n      sload\n      tag_43\n      swap1\n      tag_37\n      jump\t// in\n    tag_43:\n      dup1\n      iszero\n      tag_44\n      jumpi\n      dup1\n      0x1f\n      lt\n      tag_45\n      jumpi\n      0x0100\n      dup1\n      dup4\n      sload\n      div\n      mul\n      dup4\n      mstore\n      swap2\n      0x20\n      add\n      swap2\n      jump(tag_44)\n    tag_45:\n      dup3\n      add\n      swap2\n      swap1\n      0x00\n      mstore\n      keccak256(0x00, 0x20)\n      swap1\n    tag_46:\n      dup2\n      sload\n      dup2\n      mstore\n      swap1\n      0x01\n      add\n      swap1\n      0x20\n      add\n      dup1\n      dup4\n      gt\n      tag_46\n      jumpi\n      dup3\n      swap1\n      sub\n      0x1f\n      and\n      dup3\n      add\n      swap2\n    tag_44:\n      pop\n      pop\n      pop\n      pop\n      pop\n      dup2\n      jump\t// out\n        /* \"#utility.yul\":88:205   */\n    tag_48:\n        /* \"#utility.yul\":197:198   */\n      0x00\n        /* \"#utility.yul\":194:195   */\n      dup1\n        /* \"#utility.yul\":187:199   */\n      revert\n        /* \"#utility.yul\":211:328   */\n    tag_49:\n        /* \"#utility.yul\":320:321   */\n      0x00\n        /* \"#utility.yul\":317:318   */\n      dup1\n        /* \"#utility.yul\":310:322   */\n      revert\n        /* \"#utility.yul\":334:451   */\n    tag_50:\n        /* \"#utility.yul\":443:444   */\n      0x00\n        /* \"#utility.yul\":440:441   */\n      dup1\n        /* \"#utility.yul\":433:445   */\n      revert\n        /* \"#utility.yul\":457:574   */\n    tag_51:\n        /* \"#utility.yul\":566:567   */\n      0x00\n        /* \"#utility.yul\":563:564   */\n      dup1\n        /* \"#utility.yul\":556:568   */\n      revert\n        /* \"#utility.yul\":580:697   */\n    tag_52:\n        /* \"#utility.yul\":689:690   */\n      0x00\n        /* \"#utility.yul\":686:687   */\n      dup1\n        /* \"#utility.yul\":679:691   */\n      revert\n        /* \"#utility.yul\":717:1270   */\n    tag_53:\n        /* \"#utility.yul\":775:783   */\n      0x00\n        /* \"#utility.yul\":785:791   */\n      dup1\n        /* \"#utility.yul\":835:838   */\n      dup4\n        /* \"#utility.yul\":828:832   */\n      0x1f\n        /* \"#utility.yul\":820:826   */\n      dup5\n        /* \"#utility.yul\":816:833   */\n      add\n        /* \"#utility.yul\":812:839   */\n      slt\n        /* \"#utility.yul\":802:924   */\n      tag_97\n      jumpi\n        /* \"#utility.yul\":843:922   */\n      tag_98\n      tag_50\n      jump\t// in\n    tag_98:\n        /* \"#utility.yul\":802:924   */\n    tag_97:\n        /* \"#utility.yul\":956:962   */\n      dup3\n        /* \"#utility.yul\":943:963   */\n      calldataload\n        /* \"#utility.yul\":933:963   */\n      swap1\n      pop\n        /* \"#utility.yul\":986:1004   */\n      0xffffffffffffffff\n        /* \"#utility.yul\":978:984   */\n      dup2\n        /* \"#utility.yul\":975:1005   */\n      gt\n        /* \"#utility.yul\":972:1089   */\n      iszero\n      tag_99\n      jumpi\n        /* \"#utility.yul\":1008:1087   */\n      tag_100\n      tag_51\n      jump\t// in\n    tag_100:\n        /* \"#utility.yul\":972:1089   */\n    tag_99:\n        /* \"#utility.yul\":1122:1126   */\n      0x20\n        /* \"#utility.yul\":1114:1120   */\n      dup4\n        /* \"#utility.yul\":1110:1127   */\n      add\n        /* \"#utility.yul\":1098:1127   */\n      swap2\n      pop\n        /* \"#utility.yul\":1176:1179   */\n      dup4\n        /* \"#utility.yul\":1168:1172   */\n      0x01\n        /* \"#utility.yul\":1160:1166   */\n      dup3\n        /* \"#utility.yul\":1156:1173   */\n      mul\n        /* \"#utility.yul\":1146:1154   */\n      dup4\n        /* \"#utility.yul\":1142:1174   */\n      add\n        /* \"#utility.yul\":1139:1180   */\n      gt\n        /* \"#utility.yul\":1136:1264   */\n      iszero\n      tag_101\n      jumpi\n        /* \"#utility.yul\":1183:1262   */\n      tag_102\n      tag_52\n      jump\t// in\n    tag_102:\n        /* \"#utility.yul\":1136:1264   */\n    tag_101:\n        /* \"#utility.yul\":717:1270   */\n      swap3\n      pop\n      swap3\n      swap1\n      pop\n      jump\t// out\n        /* \"#utility.yul\":1276:1805   */\n    tag_9:\n        /* \"#utility.yul\":1347:1353   */\n      0x00\n        /* \"#utility.yul\":1355:1361   */\n      dup1\n        /* \"#utility.yul\":1404:1406   */\n      0x20\n        /* \"#utility.yul\":1392:1401   */\n      dup4\n        /* \"#utility.yul\":1383:1390   */\n      dup6\n        /* \"#utility.yul\":1379:1402   */\n      sub\n        /* \"#utility.yul\":1375:1407   */\n      slt\n        /* \"#utility.yul\":1372:1491   */\n      iszero\n      tag_104\n      jumpi\n        /* \"#utility.yul\":1410:1489   */\n      tag_105\n      tag_48\n      jump\t// in\n    tag_105:\n        /* \"#utility.yul\":1372:1491   */\n    tag_104:\n        /* \"#utility.yul\":1558:1559   */\n      0x00\n        /* \"#utility.yul\":1547:1556   */\n      dup4\n        /* \"#utility.yul\":1543:1560   */\n      add\n        /* \"#utility.yul\":1530:1561   */\n      calldataload\n        /* \"#utility.yul\":1588:1606   */\n      0xffffffffffffffff\n        /* \"#utility.yul\":1580:1586   */\n      dup2\n        /* \"#utility.yul\":1577:1607   */\n      gt\n        /* \"#utility.yul\":1574:1691   */\n      iszero\n      tag_106\n      jumpi\n        /* \"#utility.yul\":1610:1689   */\n      tag_107\n      tag_49\n      jump\t// in\n    tag_107:\n        /* \"#utility.yul\":1574:1691   */\n    tag_106:\n        /* \"#utility.yul\":1723:1788   */\n      tag_108\n        /* \"#utility.yul\":1780:1787   */\n      dup6\n        /* \"#utility.yul\":1771:1777   */\n      dup3\n        /* \"#utility.yul\":1760:1769   */\n      dup7\n        /* \"#utility.yul\":1756:1778   */\n      add\n        /* \"#utility.yul\":1723:1788   */\n      tag_53\n      jump\t// in\n    tag_108:\n        /* \"#utility.yul\":1705:1788   */\n      swap3\n      pop\n      swap3\n      pop\n        /* \"#utility.yul\":1501:1798   */\n      pop\n        /* \"#utility.yul\":1276:1805   */\n      swap3\n      pop\n      swap3\n      swap1\n      pop\n      jump\t// out\n        /* \"#utility.yul\":1811:1901   */\n    tag_54:\n        /* \"#utility.yul\":1845:1852   */\n      0x00\n        /* \"#utility.yul\":1888:1893   */\n      dup2\n        /* \"#utility.yul\":1881:1894   */\n      iszero\n        /* \"#utility.yul\":1874:1895   */\n      iszero\n        /* \"#utility.yul\":1863:1895   */\n      swap1\n      pop\n        /* \"#utility.yul\":1811:1901   */\n      swap2\n      swap1\n      pop\n      jump\t// out\n        /* \"#utility.yul\":1907:2016   */\n    tag_55:\n        /* \"#utility.yul\":1988:2009   */\n      tag_111\n        /* \"#utility.yul\":2003:2008   */\n      dup2\n        /* \"#utility.yul\":1988:2009   */\n      tag_54\n      jump\t// in\n    tag_111:\n        /* \"#utility.yul\":1983:1986   */\n      dup3\n        /* \"#utility.yul\":1976:2010   */\n      mstore\n        /* \"#utility.yul\":1907:2016   */\n      pop\n      pop\n      jump\t// out\n        /* \"#utility.yul\":2022:2232   */\n    tag_12:\n        /* \"#utility.yul\":2109:2113   */\n      0x00\n        /* \"#utility.yul\":2147:2149   */\n      0x20\n        /* \"#utility.yul\":2136:2145   */\n      dup3\n        /* \"#utility.yul\":2132:2150   */\n      add\n        /* \"#utility.yul\":2124:2150   */\n      swap1\n      pop\n        /* \"#utility.yul\":2160:2225   */\n      tag_113\n        /* \"#utility.yul\":2222:2223   */\n      0x00\n        /* \"#utility.yul\":2211:2220   */\n      dup4\n        /* \"#utility.yul\":2207:2224   */\n      add\n        /* \"#utility.yul\":2198:2204   */\n      dup5\n        /* \"#utility.yul\":2160:2225   */\n      tag_55\n      jump\t// in\n    tag_113:\n        /* \"#utility.yul\":2022:2232   */\n      swap3\n      swap2\n      pop\n      pop\n      jump\t// out\n        /* \"#utility.yul\":2238:3112   */\n    tag_15:\n        /* \"#utility.yul\":2330:2336   */\n      0x00\n        /* \"#utility.yul\":2338:2344   */\n      dup1\n        /* \"#utility.yul\":2346:2352   */\n      0x00\n        /* \"#utility.yul\":2354:2360   */\n      dup1\n        /* \"#utility.yul\":2403:2405   */\n      0x40\n        /* \"#utility.yul\":2391:2400   */\n      dup6\n        /* \"#utility.yul\":2382:2389   */\n      dup8\n        /* \"#utility.yul\":2378:2401   */\n      sub\n        /* \"#utility.yul\":2374:2406   */\n      slt\n        /* \"#utility.yul\":2371:2490   */\n      iszero\n      tag_115\n      jumpi\n        /* \"#utility.yul\":2409:2488   */\n      tag_116\n      tag_48\n      jump\t// in\n    tag_116:\n        /* \"#utility.yul\":2371:2490   */\n    tag_115:\n        /* \"#utility.yul\":2557:2558   */\n      0x00\n        /* \"#utility.yul\":2546:2555   */\n      dup6\n        /* \"#utility.yul\":2542:2559   */\n      add\n        /* \"#utility.yul\":2529:2560   */\n      calldataload\n        /* \"#utility.yul\":2587:2605   */\n      0xffffffffffffffff\n        /* \"#utility.yul\":2579:2585   */\n      dup2\n        /* \"#utility.yul\":2576:2606   */\n      gt\n        /* \"#utility.yul\":2573:2690   */\n      iszero\n      tag_117\n      jumpi\n        /* \"#utility.yul\":2609:2688   */\n      tag_118\n      tag_49\n      jump\t// in\n    tag_118:\n        /* \"#utility.yul\":2573:2690   */\n    tag_117:\n        /* \"#utility.yul\":2722:2787   */\n      tag_119\n        /* \"#utility.yul\":2779:2786   */\n      dup8\n        /* \"#utility.yul\":2770:2776   */\n      dup3\n        /* \"#utility.yul\":2759:2768   */\n      dup9\n        /* \"#utility.yul\":2755:2777   */\n      add\n        /* \"#utility.yul\":2722:2787   */\n      tag_53\n      jump\t// in\n    tag_119:\n        /* \"#utility.yul\":2704:2787   */\n      swap5\n      pop\n      swap5\n      pop\n        /* \"#utility.yul\":2500:2797   */\n      pop\n        /* \"#utility.yul\":2864:2866   */\n      0x20\n        /* \"#utility.yul\":2853:2862   */\n      dup6\n        /* \"#utility.yul\":2849:2867   */\n      add\n        /* \"#utility.yul\":2836:2868   */\n      calldataload\n        /* \"#utility.yul\":2895:2913   */\n      0xffffffffffffffff\n        /* \"#utility.yul\":2887:2893   */\n      dup2\n        /* \"#utility.yul\":2884:2914   */\n      gt\n        /* \"#utility.yul\":2881:2998   */\n      iszero\n      tag_120\n      jumpi\n        /* \"#utility.yul\":2917:2996   */\n      tag_121\n      tag_49\n      jump\t// in\n    tag_121:\n        /* \"#utility.yul\":2881:2998   */\n    tag_120:\n        /* \"#utility.yul\":3030:3095   */\n      tag_122\n        /* \"#utility.yul\":3087:3094   */\n      dup8\n        /* \"#utility.yul\":3078:3084   */\n      dup3\n        /* \"#utility.yul\":3067:3076   */\n      dup9\n        /* \"#utility.yul\":3063:3085   */\n      add\n        /* \"#utility.yul\":3030:3095   */\n      tag_53\n      jump\t// in\n    tag_122:\n        /* \"#utility.yul\":3012:3095   */\n      swap3\n      pop\n      swap3\n      pop\n        /* \"#utility.yul\":2807:3105   */\n      pop\n        /* \"#utility.yul\":2238:3112   */\n      swap3\n      swap6\n      swap2\n      swap5\n      pop\n      swap3\n      pop\n      jump\t// out\n        /* \"#utility.yul\":3118:3244   */\n    tag_56:\n        /* \"#utility.yul\":3155:3162   */\n      0x00\n        /* \"#utility.yul\":3195:3237   */\n      0xffffffffffffffffffffffffffffffffffffffff\n        /* \"#utility.yul\":3188:3193   */\n      dup3\n        /* \"#utility.yul\":3184:3238   */\n      and\n        /* \"#utility.yul\":3173:3238   */\n      swap1\n      pop\n        /* \"#utility.yul\":3118:3244   */\n      swap2\n      swap1\n      pop\n      jump\t// out\n        /* \"#utility.yul\":3250:3346   */\n    tag_57:\n        /* \"#utility.yul\":3287:3294   */\n      0x00\n        /* \"#utility.yul\":3316:3340   */\n      tag_125\n        /* \"#utility.yul\":3334:3339   */\n      dup3\n        /* \"#utility.yul\":3316:3340   */\n      tag_56\n      jump\t// in\n    tag_125:\n        /* \"#utility.yul\":3305:3340   */\n      swap1\n      pop\n        /* \"#utility.yul\":3250:3346   */\n      swap2\n      swap1\n      pop\n      jump\t// out\n        /* \"#utility.yul\":3352:3474   */\n    tag_58:\n        /* \"#utility.yul\":3425:3449   */\n      tag_127\n        /* \"#utility.yul\":3443:3448   */\n      dup2\n        /* \"#utility.yul\":3425:3449   */\n      tag_57\n      jump\t// in\n    tag_127:\n        /* \"#utility.yul\":3418:3423   */\n      dup2\n        /* \"#utility.yul\":3415:3450   */\n      eq\n        /* \"#utility.yul\":3405:3468   */\n      tag_128\n      jumpi\n        /* \"#utility.yul\":3464:3465   */\n      0x00\n        /* \"#utility.yul\":3461:3462   */\n      dup1\n        /* \"#utility.yul\":3454:3466   */\n      revert\n        /* \"#utility.yul\":3405:3468   */\n    tag_128:\n        /* \"#utility.yul\":3352:3474   */\n      pop\n      jump\t// out\n        /* \"#utility.yul\":3480:3619   */\n    tag_59:\n        /* \"#utility.yul\":3526:3531   */\n      0x00\n        /* \"#utility.yul\":3564:3570   */\n      dup2\n        /* \"#utility.yul\":3551:3571   */\n      calldataload\n        /* \"#utility.yul\":3542:3571   */\n      swap1\n      pop\n        /* \"#utility.yul\":3580:3613   */\n      tag_130\n        /* \"#utility.yul\":3607:3612   */\n      dup2\n        /* \"#utility.yul\":3580:3613   */\n      tag_58\n      jump\t// in\n    tag_130:\n        /* \"#utility.yul\":3480:3619   */\n      swap3\n      swap2\n      pop\n      pop\n      jump\t// out\n        /* \"#utility.yul\":3625:3954   */\n    tag_19:\n        /* \"#utility.yul\":3684:3690   */\n      0x00\n        /* \"#utility.yul\":3733:3735   */\n      0x20\n        /* \"#utility.yul\":3721:3730   */\n      dup3\n        /* \"#utility.yul\":3712:3719   */\n      dup5\n        /* \"#utility.yul\":3708:3731   */\n      sub\n        /* \"#utility.yul\":3704:3736   */\n      slt\n        /* \"#utility.yul\":3701:3820   */\n      iszero\n      tag_132\n      jumpi\n        /* \"#utility.yul\":3739:3818   */\n      tag_133\n      tag_48\n      jump\t// in\n    tag_133:\n        /* \"#utility.yul\":3701:3820   */\n    tag_132:\n        /* \"#utility.yul\":3859:3860   */\n      0x00\n        /* \"#utility.yul\":3884:3937   */\n      tag_134\n        /* \"#utility.yul\":3929:3936   */\n      dup5\n        /* \"#utility.yul\":3920:3926   */\n      dup3\n        /* \"#utility.yul\":3909:3918   */\n      dup6\n        /* \"#utility.yul\":3905:3927   */\n      add\n        /* \"#utility.yul\":3884:3937   */\n      tag_59\n      jump\t// in\n    tag_134:\n        /* \"#utility.yul\":3874:3937   */\n      swap2\n      pop\n        /* \"#utility.yul\":3830:3947   */\n      pop\n        /* \"#utility.yul\":3625:3954   */\n      swap3\n      swap2\n      pop\n      pop\n      jump\t// out\n        /* \"#utility.yul\":3960:4059   */\n    tag_60:\n        /* \"#utility.yul\":4012:4018   */\n      0x00\n        /* \"#utility.yul\":4046:4051   */\n      dup2\n        /* \"#utility.yul\":4040:4052   */\n      mload\n        /* \"#utility.yul\":4030:4052   */\n      swap1\n      pop\n        /* \"#utility.yul\":3960:4059   */\n      swap2\n      swap1\n      pop\n      jump\t// out\n        /* \"#utility.yul\":4065:4234   */\n    tag_61:\n        /* \"#utility.yul\":4149:4160   */\n      0x00\n        /* \"#utility.yul\":4183:4189   */\n      dup3\n        /* \"#utility.yul\":4178:4181   */\n      dup3\n        /* \"#utility.yul\":4171:4190   */\n      mstore\n        /* \"#utility.yul\":4223:4227   */\n      0x20\n        /* \"#utility.yul\":4218:4221   */\n      dup3\n        /* \"#utility.yul\":4214:4228   */\n      add\n        /* \"#utility.yul\":4199:4228   */\n      swap1\n      pop\n        /* \"#utility.yul\":4065:4234   */\n      swap3\n      swap2\n      pop\n      pop\n      jump\t// out\n        /* \"#utility.yul\":4240:4379   */\n    tag_62:\n        /* \"#utility.yul\":4329:4335   */\n      dup3\n        /* \"#utility.yul\":4324:4327   */\n      dup2\n        /* \"#utility.yul\":4319:4322   */\n      dup4\n        /* \"#utility.yul\":4313:4336   */\n      mcopy\n        /* \"#utility.yul\":4370:4371   */\n      0x00\n        /* \"#utility.yul\":4361:4367   */\n      dup4\n        /* \"#utility.yul\":4356:4359   */\n      dup4\n        /* \"#utility.yul\":4352:4368   */\n      add\n        /* \"#utility.yul\":4345:4372   */\n      mstore\n        /* \"#utility.yul\":4240:4379   */\n      pop\n      pop\n      pop\n      jump\t// out\n        /* \"#utility.yul\":4385:4487   */\n    tag_63:\n        /* \"#utility.yul\":4426:4432   */\n      0x00\n        /* \"#utility.yul\":4477:4479   */\n      0x1f\n        /* \"#utility.yul\":4473:4480   */\n      not\n        /* \"#utility.yul\":4468:4470   */\n      0x1f\n        /* \"#utility.yul\":4461:4466   */\n      dup4\n        /* \"#utility.yul\":4457:4471   */\n      add\n        /* \"#utility.yul\":4453:4481   */\n      and\n        /* \"#utility.yul\":4443:4481   */\n      swap1\n      pop\n        /* \"#utility.yul\":4385:4487   */\n      swap2\n      swap1\n      pop\n      jump\t// out\n        /* \"#utility.yul\":4493:4870   */\n    tag_64:\n        /* \"#utility.yul\":4581:4584   */\n      0x00\n        /* \"#utility.yul\":4609:4648   */\n      tag_140\n        /* \"#utility.yul\":4642:4647   */\n      dup3\n        /* \"#utility.yul\":4609:4648   */\n      tag_60\n      jump\t// in\n    tag_140:\n        /* \"#utility.yul\":4664:4735   */\n      tag_141\n        /* \"#utility.yul\":4728:4734   */\n      dup2\n        /* \"#utility.yul\":4723:4726   */\n      dup6\n        /* \"#utility.yul\":4664:4735   */\n      tag_61\n      jump\t// in\n    tag_141:\n        /* \"#utility.yul\":4657:4735   */\n      swap4\n      pop\n        /* \"#utility.yul\":4744:4809   */\n      tag_142\n        /* \"#utility.yul\":4802:4808   */\n      dup2\n        /* \"#utility.yul\":4797:4800   */\n      dup6\n        /* \"#utility.yul\":4790:4794   */\n      0x20\n        /* \"#utility.yul\":4783:4788   */\n      dup7\n        /* \"#utility.yul\":4779:4795   */\n      add\n        /* \"#utility.yul\":4744:4809   */\n      tag_62\n      jump\t// in\n    tag_142:\n        /* \"#utility.yul\":4834:4863   */\n      tag_143\n        /* \"#utility.yul\":4856:4862   */\n      dup2\n        /* \"#utility.yul\":4834:4863   */\n      tag_63\n      jump\t// in\n    tag_143:\n        /* \"#utility.yul\":4829:4832   */\n      dup5\n        /* \"#utility.yul\":4825:4864   */\n      add\n        /* \"#utility.yul\":4818:4864   */\n      swap2\n      pop\n        /* \"#utility.yul\":4585:4870   */\n      pop\n        /* \"#utility.yul\":4493:4870   */\n      swap3\n      swap2\n      pop\n      pop\n      jump\t// out\n        /* \"#utility.yul\":4876:5189   */\n    tag_22:\n        /* \"#utility.yul\":4989:4993   */\n      0x00\n        /* \"#utility.yul\":5027:5029   */\n      0x20\n        /* \"#utility.yul\":5016:5025   */\n      dup3\n        /* \"#utility.yul\":5012:5030   */\n      add\n        /* \"#utility.yul\":5004:5030   */\n      swap1\n      pop\n        /* \"#utility.yul\":5076:5085   */\n      dup2\n        /* \"#utility.yul\":5070:5074   */\n      dup2\n        /* \"#utility.yul\":5066:5086   */\n      sub\n        /* \"#utility.yul\":5062:5063   */\n      0x00\n        /* \"#utility.yul\":5051:5060   */\n      dup4\n        /* \"#utility.yul\":5047:5064   */\n      add\n        /* \"#utility.yul\":5040:5087   */\n      mstore\n        /* \"#utility.yul\":5104:5182   */\n      tag_145\n        /* \"#utility.yul\":5177:5181   */\n      dup2\n        /* \"#utility.yul\":5168:5174   */\n      dup5\n        /* \"#utility.yul\":5104:5182   */\n      tag_64\n      jump\t// in\n    tag_145:\n        /* \"#utility.yul\":5096:5182   */\n      swap1\n      pop\n        /* \"#utility.yul\":4876:5189   */\n      swap3\n      swap2\n      pop\n      pop\n      jump\t// out\n        /* \"#utility.yul\":5195:5342   */\n    tag_65:\n        /* \"#utility.yul\":5296:5307   */\n      0x00\n        /* \"#utility.yul\":5333:5336   */\n      dup2\n        /* \"#utility.yul\":5318:5336   */\n      swap1\n      pop\n        /* \"#utility.yul\":5195:5342   */\n      swap3\n      swap2\n      pop\n      pop\n      jump\t// out\n        /* \"#utility.yul\":5348:5496   */\n    tag_66:\n        /* \"#utility.yul\":5446:5452   */\n      dup3\n        /* \"#utility.yul\":5441:5444   */\n      dup2\n        /* \"#utility.yul\":5436:5439   */\n      dup4\n        /* \"#utility.yul\":5423:5453   */\n      calldatacopy\n        /* \"#utility.yul\":5487:5488   */\n      0x00\n        /* \"#utility.yul\":5478:5484   */\n      dup4\n        /* \"#utility.yul\":5473:5476   */\n      dup4\n        /* \"#utility.yul\":5469:5485   */\n      add\n        /* \"#utility.yul\":5462:5489   */\n      mstore\n        /* \"#utility.yul\":5348:5496   */\n      pop\n      pop\n      pop\n      jump\t// out\n        /* \"#utility.yul\":5524:5851   */\n    tag_67:\n        /* \"#utility.yul\":5638:5641   */\n      0x00\n        /* \"#utility.yul\":5659:5747   */\n      tag_149\n        /* \"#utility.yul\":5740:5746   */\n      dup4\n        /* \"#utility.yul\":5735:5738   */\n      dup6\n        /* \"#utility.yul\":5659:5747   */\n      tag_65\n      jump\t// in\n    tag_149:\n        /* \"#utility.yul\":5652:5747   */\n      swap4\n      pop\n        /* \"#utility.yul\":5757:5813   */\n      tag_150\n        /* \"#utility.yul\":5806:5812   */\n      dup4\n        /* \"#utility.yul\":5801:5804   */\n      dup6\n        /* \"#utility.yul\":5794:5799   */\n      dup5\n        /* \"#utility.yul\":5757:5813   */\n      tag_66\n      jump\t// in\n    tag_150:\n        /* \"#utility.yul\":5838:5844   */\n      dup3\n        /* \"#utility.yul\":5833:5836   */\n      dup5\n        /* \"#utility.yul\":5829:5845   */\n      add\n        /* \"#utility.yul\":5822:5845   */\n      swap1\n      pop\n        /* \"#utility.yul\":5524:5851   */\n      swap4\n      swap3\n      pop\n      pop\n      pop\n      jump\t// out\n        /* \"#utility.yul\":5857:6148   */\n    tag_29:\n        /* \"#utility.yul\":5997:6000   */\n      0x00\n        /* \"#utility.yul\":6019:6122   */\n      tag_152\n        /* \"#utility.yul\":6118:6121   */\n      dup3\n        /* \"#utility.yul\":6109:6115   */\n      dup5\n        /* \"#utility.yul\":6101:6107   */\n      dup7\n        /* \"#utility.yul\":6019:6122   */\n      tag_67\n      jump\t// in\n    tag_152:\n        /* \"#utility.yul\":6012:6122   */\n      swap2\n      pop\n        /* \"#utility.yul\":6139:6142   */\n      dup2\n        /* \"#utility.yul\":6132:6142   */\n      swap1\n      pop\n        /* \"#utility.yul\":5857:6148   */\n      swap4\n      swap3\n      pop\n      pop\n      pop\n      jump\t// out\n        /* \"#utility.yul\":6154:6334   */\n    tag_68:\n        /* \"#utility.yul\":6202:6279   */\n      0x4e487b7100000000000000000000000000000000000000000000000000000000\n        /* \"#utility.yul\":6199:6200   */\n      0x00\n        /* \"#utility.yul\":6192:6280   */\n      mstore\n        /* \"#utility.yul\":6299:6303   */\n      0x22\n        /* \"#utility.yul\":6296:6297   */\n      0x04\n        /* \"#utility.yul\":6289:6304   */\n      mstore\n        /* \"#utility.yul\":6323:6327   */\n      0x24\n        /* \"#utility.yul\":6320:6321   */\n      0x00\n        /* \"#utility.yul\":6313:6328   */\n      revert\n        /* \"#utility.yul\":6340:6660   */\n    tag_37:\n        /* \"#utility.yul\":6384:6390   */\n      0x00\n        /* \"#utility.yul\":6421:6422   */\n      0x02\n        /* \"#utility.yul\":6415:6419   */\n      dup3\n        /* \"#utility.yul\":6411:6423   */\n      div\n        /* \"#utility.yul\":6401:6423   */\n      swap1\n      pop\n        /* \"#utility.yul\":6468:6469   */\n      0x01\n        /* \"#utility.yul\":6462:6466   */\n      dup3\n        /* \"#utility.yul\":6458:6470   */\n      and\n        /* \"#utility.yul\":6489:6507   */\n      dup1\n        /* \"#utility.yul\":6479:6560   */\n      tag_155\n      jumpi\n        /* \"#utility.yul\":6545:6549   */\n      0x7f\n        /* \"#utility.yul\":6537:6543   */\n      dup3\n        /* \"#utility.yul\":6533:6550   */\n      and\n        /* \"#utility.yul\":6523:6550   */\n      swap2\n      pop\n        /* \"#utility.yul\":6479:6560   */\n    tag_155:\n        /* \"#utility.yul\":6607:6609   */\n      0x20\n        /* \"#utility.yul\":6599:6605   */\n      dup3\n        /* \"#utility.yul\":6596:6610   */\n      lt\n        /* \"#utility.yul\":6576:6594   */\n      dup2\n        /* \"#utility.yul\":6573:6611   */\n      sub\n        /* \"#utility.yul\":6570:6654   */\n      tag_156\n      jumpi\n        /* \"#utility.yul\":6626:6644   */\n      tag_157\n      tag_68\n      jump\t// in\n    tag_157:\n        /* \"#utility.yul\":6570:6654   */\n    tag_156:\n        /* \"#utility.yul\":6391:6660   */\n      pop\n        /* \"#utility.yul\":6340:6660   */\n      swap2\n      swap1\n      pop\n      jump\t// out\n        /* \"#utility.yul\":6666:6810   */\n    tag_69:\n        /* \"#utility.yul\":6718:6722   */\n      0x00\n        /* \"#utility.yul\":6741:6744   */\n      dup2\n        /* \"#utility.yul\":6733:6744   */\n      swap1\n      pop\n        /* \"#utility.yul\":6764:6767   */\n      dup2\n        /* \"#utility.yul\":6761:6762   */\n      0x00\n        /* \"#utility.yul\":6754:6768   */\n      mstore\n        /* \"#utility.yul\":6798:6802   */\n      0x20\n        /* \"#utility.yul\":6795:6796   */\n      0x00\n        /* \"#utility.yul\":6785:6803   */\n      keccak256\n        /* \"#utility.yul\":6777:6803   */\n      swap1\n      pop\n        /* \"#utility.yul\":6666:6810   */\n      swap2\n      swap1\n      pop\n      jump\t// out\n        /* \"#utility.yul\":6838:7716   */\n    tag_70:\n        /* \"#utility.yul\":6943:6946   */\n      0x00\n        /* \"#utility.yul\":6980:6985   */\n      dup2\n        /* \"#utility.yul\":6974:6986   */\n      sload\n        /* \"#utility.yul\":7009:7045   */\n      tag_160\n        /* \"#utility.yul\":7035:7044   */\n      dup2\n        /* \"#utility.yul\":7009:7045   */\n      tag_37\n      jump\t// in\n    tag_160:\n        /* \"#utility.yul\":7061:7149   */\n      tag_161\n        /* \"#utility.yul\":7142:7148   */\n      dup2\n        /* \"#utility.yul\":7137:7140   */\n      dup7\n        /* \"#utility.yul\":7061:7149   */\n      tag_65\n      jump\t// in\n    tag_161:\n        /* \"#utility.yul\":7054:7149   */\n      swap5\n      pop\n        /* \"#utility.yul\":7180:7181   */\n      0x01\n        /* \"#utility.yul\":7169:7178   */\n      dup3\n        /* \"#utility.yul\":7165:7182   */\n      and\n        /* \"#utility.yul\":7196:7197   */\n      0x00\n        /* \"#utility.yul\":7191:7357   */\n      dup2\n      eq\n      tag_163\n      jumpi\n        /* \"#utility.yul\":7371:7372   */\n      0x01\n        /* \"#utility.yul\":7366:7710   */\n      dup2\n      eq\n      tag_164\n      jumpi\n        /* \"#utility.yul\":7158:7710   */\n      jump(tag_162)\n        /* \"#utility.yul\":7191:7357   */\n    tag_163:\n        /* \"#utility.yul\":7275:7279   */\n      0xff\n        /* \"#utility.yul\":7271:7280   */\n      not\n        /* \"#utility.yul\":7260:7269   */\n      dup4\n        /* \"#utility.yul\":7256:7281   */\n      and\n        /* \"#utility.yul\":7251:7254   */\n      dup7\n        /* \"#utility.yul\":7244:7282   */\n      mstore\n        /* \"#utility.yul\":7337:7343   */\n      dup2\n        /* \"#utility.yul\":7330:7344   */\n      iszero\n        /* \"#utility.yul\":7323:7345   */\n      iszero\n        /* \"#utility.yul\":7315:7321   */\n      dup3\n        /* \"#utility.yul\":7311:7346   */\n      mul\n        /* \"#utility.yul\":7306:7309   */\n      dup7\n        /* \"#utility.yul\":7302:7347   */\n      add\n        /* \"#utility.yul\":7295:7347   */\n      swap4\n      pop\n        /* \"#utility.yul\":7191:7357   */\n      jump(tag_162)\n        /* \"#utility.yul\":7366:7710   */\n    tag_164:\n        /* \"#utility.yul\":7433:7474   */\n      tag_165\n        /* \"#utility.yul\":7468:7473   */\n      dup6\n        /* \"#utility.yul\":7433:7474   */\n      tag_69\n      jump\t// in\n    tag_165:\n        /* \"#utility.yul\":7496:7497   */\n      0x00\n        /* \"#utility.yul\":7510:7664   */\n    tag_166:\n        /* \"#utility.yul\":7524:7530   */\n      dup4\n        /* \"#utility.yul\":7521:7522   */\n      dup2\n        /* \"#utility.yul\":7518:7531   */\n      lt\n        /* \"#utility.yul\":7510:7664   */\n      iszero\n      tag_168\n      jumpi\n        /* \"#utility.yul\":7598:7605   */\n      dup2\n        /* \"#utility.yul\":7592:7606   */\n      sload\n        /* \"#utility.yul\":7588:7589   */\n      dup2\n        /* \"#utility.yul\":7583:7586   */\n      dup10\n        /* \"#utility.yul\":7579:7590   */\n      add\n        /* \"#utility.yul\":7572:7607   */\n      mstore\n        /* \"#utility.yul\":7648:7649   */\n      0x01\n        /* \"#utility.yul\":7639:7646   */\n      dup3\n        /* \"#utility.yul\":7635:7650   */\n      add\n        /* \"#utility.yul\":7624:7650   */\n      swap2\n      pop\n        /* \"#utility.yul\":7546:7550   */\n      0x20\n        /* \"#utility.yul\":7543:7544   */\n      dup2\n        /* \"#utility.yul\":7539:7551   */\n      add\n        /* \"#utility.yul\":7534:7551   */\n      swap1\n      pop\n        /* \"#utility.yul\":7510:7664   */\n      jump(tag_166)\n    tag_168:\n        /* \"#utility.yul\":7693:7699   */\n      dup4\n        /* \"#utility.yul\":7688:7691   */\n      dup9\n        /* \"#utility.yul\":7684:7700   */\n      add\n        /* \"#utility.yul\":7677:7700   */\n      swap6\n      pop\n        /* \"#utility.yul\":7373:7710   */\n      pop\n      pop\n        /* \"#utility.yul\":7158:7710   */\n    tag_162:\n      pop\n        /* \"#utility.yul\":6947:7716   */\n      pop\n      pop\n        /* \"#utility.yul\":6838:7716   */\n      swap3\n      swap2\n      pop\n      pop\n      jump\t// out\n        /* \"#utility.yul\":7722:7995   */\n    tag_31:\n        /* \"#utility.yul\":7853:7856   */\n      0x00\n        /* \"#utility.yul\":7875:7969   */\n      tag_170\n        /* \"#utility.yul\":7965:7968   */\n      dup3\n        /* \"#utility.yul\":7956:7962   */\n      dup5\n        /* \"#utility.yul\":7875:7969   */\n      tag_70\n      jump\t// in\n    tag_170:\n        /* \"#utility.yul\":7868:7969   */\n      swap2\n      pop\n        /* \"#utility.yul\":7986:7989   */\n      dup2\n        /* \"#utility.yul\":7979:7989   */\n      swap1\n      pop\n        /* \"#utility.yul\":7722:7995   */\n      swap3\n      swap2\n      pop\n      pop\n      jump\t// out\n        /* \"#utility.yul\":8001:8098   */\n    tag_71:\n        /* \"#utility.yul\":8060:8066   */\n      0x00\n        /* \"#utility.yul\":8088:8091   */\n      dup3\n        /* \"#utility.yul\":8078:8091   */\n      swap1\n      pop\n        /* \"#utility.yul\":8001:8098   */\n      swap3\n      swap2\n      pop\n      pop\n      jump\t// out\n        /* \"#utility.yul\":8104:8284   */\n    tag_72:\n        /* \"#utility.yul\":8152:8229   */\n      0x4e487b7100000000000000000000000000000000000000000000000000000000\n        /* \"#utility.yul\":8149:8150   */\n      0x00\n        /* \"#utility.yul\":8142:8230   */\n      mstore\n        /* \"#utility.yul\":8249:8253   */\n      0x41\n        /* \"#utility.yul\":8246:8247   */\n      0x04\n        /* \"#utility.yul\":8239:8254   */\n      mstore\n        /* \"#utility.yul\":8273:8277   */\n      0x24\n        /* \"#utility.yul\":8270:8271   */\n      0x00\n        /* \"#utility.yul\":8263:8278   */\n      revert\n        /* \"#utility.yul\":8290:8431   */\n    tag_73:\n        /* \"#utility.yul\":8339:8343   */\n      0x00\n        /* \"#utility.yul\":8362:8365   */\n      dup2\n        /* \"#utility.yul\":8354:8365   */\n      swap1\n      pop\n        /* \"#utility.yul\":8385:8388   */\n      dup2\n        /* \"#utility.yul\":8382:8383   */\n      0x00\n        /* \"#utility.yul\":8375:8389   */\n      mstore\n        /* \"#utility.yul\":8419:8423   */\n      0x20\n        /* \"#utility.yul\":8416:8417   */\n      0x00\n        /* \"#utility.yul\":8406:8424   */\n      keccak256\n        /* \"#utility.yul\":8398:8424   */\n      swap1\n      pop\n        /* \"#utility.yul\":8290:8431   */\n      swap2\n      swap1\n      pop\n      jump\t// out\n        /* \"#utility.yul\":8437:8530   */\n    tag_74:\n        /* \"#utility.yul\":8474:8480   */\n      0x00\n        /* \"#utility.yul\":8521:8523   */\n      0x20\n        /* \"#utility.yul\":8516:8518   */\n      0x1f\n        /* \"#utility.yul\":8509:8514   */\n      dup4\n        /* \"#utility.yul\":8505:8519   */\n      add\n        /* \"#utility.yul\":8501:8524   */\n      div\n        /* \"#utility.yul\":8491:8524   */\n      swap1\n      pop\n        /* \"#utility.yul\":8437:8530   */\n      swap2\n      swap1\n      pop\n      jump\t// out\n        /* \"#utility.yul\":8536:8643   */\n    tag_75:\n        /* \"#utility.yul\":8580:8588   */\n      0x00\n        /* \"#utility.yul\":8630:8635   */\n      dup3\n        /* \"#utility.yul\":8624:8628   */\n      dup3\n        /* \"#utility.yul\":8620:8636   */\n      shl\n        /* \"#utility.yul\":8599:8636   */\n      swap1\n      pop\n        /* \"#utility.yul\":8536:8643   */\n      swap3\n      swap2\n      pop\n      pop\n      jump\t// out\n        /* \"#utility.yul\":8649:9042   */\n    tag_76:\n        /* \"#utility.yul\":8718:8724   */\n      0x00\n        /* \"#utility.yul\":8768:8769   */\n      0x08\n        /* \"#utility.yul\":8756:8766   */\n      dup4\n        /* \"#utility.yul\":8752:8770   */\n      mul\n        /* \"#utility.yul\":8791:8888   */\n      tag_177\n        /* \"#utility.yul\":8821:8887   */\n      0xffffffffffffffffffffffffffffffffffffffffffffffffffffffffffffffff\n        /* \"#utility.yul\":8810:8819   */\n      dup3\n        /* \"#utility.yul\":8791:8888   */\n      tag_75\n      jump\t// in\n    tag_177:\n        /* \"#utility.yul\":8909:8948   */\n      tag_178\n        /* \"#utility.yul\":8939:8947   */\n      dup7\n        /* \"#utility.yul\":8928:8937   */\n      dup4\n        /* \"#utility.yul\":8909:8948   */\n      tag_75\n      jump\t// in\n    tag_178:\n        /* \"#utility.yul\":8897:8948   */\n      swap6\n      pop\n        /* \"#utility.yul\":8981:8985   */\n      dup1\n        /* \"#utility.yul\":8977:8986   */\n      not\n        /* \"#utility.yul\":8970:8975   */\n      dup5\n        /* \"#utility.yul\":8966:8987   */\n      and\n        /* \"#utility.yul\":8957:8987   */\n      swap4\n      pop\n        /* \"#utility.yul\":9030:9034   */\n      dup1\n        /* \"#utility.yul\":9020:9028   */\n      dup7\n        /* \"#utility.yul\":9016:9035   */\n      and\n        /* \"#utility.yul\":9009:9014   */\n      dup5\n        /* \"#utility.yul\":9006:9036   */\n      or\n        /* \"#utility.yul\":8996:9036   */\n      swap3\n      pop\n        /* \"#utility.yul\":8725:9042   */\n      pop\n      pop\n        /* \"#utility.yul\":8649:9042   */\n      swap4\n      swap3\n      pop\n      pop\n      pop\n      jump\t// out\n        /* \"#utility.yul\":9048:9125   */\n    tag_77:\n        /* \"#utility.yul\":9085:9092   */\n      0x00\n        /* \"#utility.yul\":9114:9119   */\n      dup2\n        /* \"#utility.yul\":9103:9119   */\n      swap1\n      pop\n        /* \"#utility.yul\":9048:9125   */\n      swap2\n      swap1\n      pop\n      jump\t// out\n        /* \"#utility.yul\":9131:9191   */\n    tag_78:\n        /* \"#utility.yul\":9159:9162   */\n      0x00\n        /* \"#utility.yul\":9180:9185   */\n      dup2\n        /* \"#utility.yul\":9173:9185   */\n      swap1\n      pop\n        /* \"#utility.yul\":9131:9191   */\n      swap2\n      swap1\n      pop\n      jump\t// out\n        /* \"#utility.yul\":9197:9339   */\n    tag_79:\n        /* \"#utility.yul\":9247:9256   */\n      0x00\n        /* \"#utility.yul\":9280:9333   */\n      tag_182\n        /* \"#utility.yul\":9298:9332   */\n      tag_183\n        /* \"#utility.yul\":9307:9331   */\n      tag_184\n        /* \"#utility.yul\":9325:9330   */\n      dup5\n        /* \"#utility.yul\":9307:9331   */\n      tag_77\n      jump\t// in\n    tag_184:\n        /* \"#utility.yul\":9298:9332   */\n      tag_78\n      jump\t// in\n    tag_183:\n        /* \"#utility.yul\":9280:9333   */\n      tag_77\n      jump\t// in\n    tag_182:\n        /* \"#utility.yul\":9267:9333   */\n      swap1\n      pop\n        /* \"#utility.yul\":9197:9339   */\n      swap2\n      swap1\n      pop\n      jump\t// out\n        /* \"#utility.yul\":9345:9420   */\n    tag_80:\n        /* \"#utility.yul\":9388:9391   */\n      0x00\n        /* \"#utility.yul\":9409:9414   */\n      dup2\n        /* \"#utility.yul\":9402:9414   */\n      swap1\n      pop\n        /* \"#utility.yul\":9345:9420   */\n      swap2\n      swap1\n      pop\n      jump\t// out\n        /* \"#utility.yul\":9426:9695   */\n    tag_81:\n        /* \"#utility.yul\":9536:9575   */\n      tag_187\n        /* \"#utility.yul\":9567:9574   */\n      dup4\n        /* \"#utility.yul\":9536:9575   */\n      tag_79\n      jump\t// in\n    tag_187:\n        /* \"#utility.yul\":9597:9688   */\n      tag_188\n        /* \"#utility.yul\":9646:9687   */\n      tag_189\n        /* \"#utility.yul\":9670:9686   */\n      dup3\n        /* \"#utility.yul\":9646:9687   */\n      tag_80\n      jump\t// in\n    tag_189:\n        /* \"#utility.yul\":9638:9644   */\n      dup5\n        /* \"#utility.yul\":9631:9635   */\n      dup5\n        /* \"#utility.yul\":9625:9636   */\n      sload\n        /* \"#utility.yul\":9597:9688   */\n      tag_76\n      jump\t// in\n    tag_188:\n        /* \"#utility.yul\":9591:9595   */\n      dup3\n        /* \"#utility.yul\":9584:9689   */\n      sstore\n        /* \"#utility.yul\":9502:9695   */\n      pop\n        /* \"#utility.yul\":9426:9695   */\n      pop\n      pop\n      pop\n      jump\t// out\n        /* \"#utility.yul\":9701:9774   */\n    tag_82:\n        /* \"#utility.yul\":9746:9749   */\n      0x00\n        /* \"#utility.yul\":9701:9774   */\n      swap1\n      jump\t// out\n        /* \"#utility.yul\":9780:9969   */\n    tag_83:\n        /* \"#utility.yul\":9857:9889   */\n      tag_192\n      tag_82\n      jump\t// in\n    tag_192:\n        /* \"#utility.yul\":9898:9963   */\n      tag_193\n        /* \"#utility.yul\":9956:9962   */\n      dup2\n        /* \"#utility.yul\":9948:9954   */\n      dup5\n        /* \"#utility.yul\":9942:9946   */\n      dup5\n        /* \"#utility.yul\":9898:9963   */\n      tag_81\n      jump\t// in\n    tag_193:\n        /* \"#utility.yul\":9833:9969   */\n      pop\n        /* \"#utility.yul\":9780:9969   */\n      pop\n      pop\n      jump\t// out\n        /* \"#utility.yul\":9975:10161   */\n    tag_84:\n        /* \"#utility.yul\":10035:10155   */\n    tag_195:\n        /* \"#utility.yul\":10052:10055   */\n      dup2\n        /* \"#utility.yul\":10045:10050   */\n      dup2\n        /* \"#utility.yul\":10042:10056   */\n      lt\n        /* \"#utility.yul\":10035:10155   */\n      iszero\n      tag_197\n      jumpi\n        /* \"#utility.yul\":10106:10145   */\n      tag_198\n        /* \"#utility.yul\":10143:10144   */\n      0x00\n        /* \"#utility.yul\":10136:10141   */\n      dup3\n        /* \"#utility.yul\":10106:10145   */\n      tag_83\n      jump\t// in\n    tag_198:\n        /* \"#utility.yul\":10079:10080   */\n      0x01\n        /* \"#utility.yul\":10072:10077   */\n      dup2\n        /* \"#utility.yul\":10068:10081   */\n      add\n        /* \"#utility.yul\":10059:10081   */\n      swap1\n      pop\n        /* \"#utility.yul\":10035:10155   */\n      jump(tag_195)\n    tag_197:\n        /* \"#utility.yul\":9975:10161   */\n      pop\n      pop\n      jump\t// out\n        /* \"#utility.yul\":10167:10710   */\n    tag_85:\n        /* \"#utility.yul\":10268:10270   */\n      0x1f\n        /* \"#utility.yul\":10263:10266   */\n      dup3\n        /* \"#utility.yul\":10260:10271   */\n      gt\n        /* \"#utility.yul\":10257:10703   */\n      iszero\n      tag_200\n      jumpi\n        /* \"#utility.yul\":10302:10340   */\n      tag_201\n        /* \"#utility.yul\":10334:10339   */\n      dup2\n        /* \"#utility.yul\":10302:10340   */\n      tag_73\n      jump\t// in\n    tag_201:\n        /* \"#utility.yul\":10386:10415   */\n      tag_202\n        /* \"#utility.yul\":10404:10414   */\n      dup5\n        /* \"#utility.yul\":10386:10415   */\n      tag_74\n      jump\t// in\n    tag_202:\n        /* \"#utility.yul\":10376:10384   */\n      dup2\n        /* \"#utility.yul\":10372:10416   */\n      add\n        /* \"#utility.yul\":10569:10571   */\n      0x20\n        /* \"#utility.yul\":10557:10567   */\n      dup6\n        /* \"#utility.yul\":10554:10572   */\n      lt\n        /* \"#utility.yul\":10551:10600   */\n      iszero\n      tag_203\n      jumpi\n        /* \"#utility.yul\":10590:10598   */\n      dup2\n        /* \"#utility.yul\":10575:10598   */\n      swap1\n      pop\n        /* \"#utility.yul\":10551:10600   */\n    tag_203:\n        /* \"#utility.yul\":10613:10693   */\n      tag_204\n        /* \"#utility.yul\":10669:10691   */\n      tag_205\n        /* \"#utility.yul\":10687:10690   */\n      dup6\n        /* \"#utility.yul\":10669:10691   */\n      tag_74\n      jump\t// in\n    tag_205:\n        /* \"#utility.yul\":10659:10667   */\n      dup4\n        /* \"#utility.yul\":10655:10692   */\n      add\n        /* \"#utility.yul\":10642:10653   */\n      dup3\n        /* \"#utility.yul\":10613:10693   */\n      tag_84\n      jump\t// in\n    tag_204:\n        /* \"#utility.yul\":10272:10703   */\n      pop\n      pop\n        /* \"#utility.yul\":10257:10703   */\n    tag_200:\n        /* \"#utility.yul\":10167:10710   */\n      pop\n      pop\n      pop\n      jump\t// out\n        /* \"#utility.yul\":10716:10833   */\n    tag_86:\n        /* \"#utility.yul\":10770:10778   */\n      0x00\n        /* \"#utility.yul\":10820:10825   */\n      dup3\n        /* \"#utility.yul\":10814:10818   */\n      dup3\n        /* \"#utility.yul\":10810:10826   */\n      shr\n        /* \"#utility.yul\":10789:10826   */\n      swap1\n      pop\n        /* \"#utility.yul\":10716:10833   */\n      swap3\n      swap2\n      pop\n      pop\n      jump\t// out\n        /* \"#utility.yul\":10839:11008   */\n    tag_87:\n        /* \"#utility.yul\":10883:10889   */\n      0x00\n        /* \"#utility.yul\":10916:10967   */\n      tag_208\n        /* \"#utility.yul\":10964:10965   */\n      0x00\n        /* \"#utility.yul\":10960:10966   */\n      not\n        /* \"#utility.yul\":10952:10957   */\n      dup5\n        /* \"#utility.yul\":10949:10950   */\n      0x08\n        /* \"#utility.yul\":10945:10958   */\n      mul\n        /* \"#utility.yul\":10916:10967   */\n      tag_86\n      jump\t// in\n    tag_208:\n        /* \"#utility.yul\":10912:10968   */\n      not\n        /* \"#utility.yul\":10997:11001   */\n      dup1\n        /* \"#utility.yul\":10991:10995   */\n      dup4\n        /* \"#utility.yul\":10987:11002   */\n      and\n        /* \"#utility.yul\":10977:11002   */\n      swap2\n      pop\n        /* \"#utility.yul\":10890:11008   */\n      pop\n        /* \"#utility.yul\":10839:11008   */\n      swap3\n      swap2\n      pop\n      pop\n      jump\t// out\n        /* \"#utility.yul\":11013:11308   */\n    tag_88:\n        /* \"#utility.yul\":11089:11093   */\n      0x00\n        /* \"#utility.yul\":11235:11264   */\n      tag_210\n        /* \"#utility.yul\":11260:11263   */\n      dup4\n        /* \"#utility.yul\":11254:11258   */\n      dup4\n        /* \"#utility.yul\":11235:11264   */\n      tag_87\n      jump\t// in\n    tag_210:\n        /* \"#utility.yul\":11227:11264   */\n      swap2\n      pop\n        /* \"#utility.yul\":11297:11300   */\n      dup3\n        /* \"#utility.yul\":11294:11295   */\n      0x02\n        /* \"#utility.yul\":11290:11301   */\n      mul\n        /* \"#utility.yul\":11284:11288   */\n      dup3\n        /* \"#utility.yul\":11281:11302   */\n      or\n        /* \"#utility.yul\":11273:11302   */\n      swap1\n      pop\n        /* \"#utility.yul\":11013:11308   */\n      swap3\n      swap2\n      pop\n      pop\n      jump\t// out\n        /* \"#utility.yul\":11313:12716   */\n    tag_34:\n        /* \"#utility.yul\":11437:11481   */\n      tag_212\n        /* \"#utility.yul\":11477:11480   */\n      dup4\n        /* \"#utility.yul\":11472:11475   */\n      dup4\n        /* \"#utility.yul\":11437:11481   */\n      tag_71\n      jump\t// in\n    tag_212:\n        /* \"#utility.yul\":11546:11564   */\n      0xffffffffffffffff\n        /* \"#utility.yul\":11538:11544   */\n      dup2\n        /* \"#utility.yul\":11535:11565   */\n      gt\n        /* \"#utility.yul\":11532:11588   */\n      iszero\n      tag_213\n      jumpi\n        /* \"#utility.yul\":11568:11586   */\n      tag_214\n      tag_72\n      jump\t// in\n    tag_214:\n        /* \"#utility.yul\":11532:11588   */\n    tag_213:\n        /* \"#utility.yul\":11612:11650   */\n      tag_215\n        /* \"#utility.yul\":11644:11648   */\n      dup3\n        /* \"#utility.yul\":11638:11649   */\n      sload\n        /* \"#utility.yul\":11612:11650   */\n      tag_37\n      jump\t// in\n    tag_215:\n        /* \"#utility.yul\":11697:11764   */\n      tag_216\n        /* \"#utility.yul\":11757:11763   */\n      dup3\n        /* \"#utility.yul\":11749:11755   */\n      dup3\n        /* \"#utility.yul\":11743:11747   */\n      dup6\n        /* \"#utility.yul\":11697:11764   */\n      tag_85\n      jump\t// in\n    tag_216:\n        /* \"#utility.yul\":11791:11792   */\n      0x00\n        /* \"#utility.yul\":11820:11822   */\n      0x1f\n        /* \"#utility.yul\":11812:11818   */\n      dup4\n        /* \"#utility.yul\":11809:11823   */\n      gt\n        /* \"#utility.yul\":11837:11838   */\n      0x01\n        /* \"#utility.yul\":11832:12464   */\n      dup2\n      eq\n      tag_218\n      jumpi\n        /* \"#utility.yul\":12508:12509   */\n      0x00\n        /* \"#utility.yul\":12525:12531   */\n      dup5\n        /* \"#utility.yul\":12522:12606   */\n      iszero\n      tag_219\n      jumpi\n        /* \"#utility.yul\":12581:12590   */\n      dup3\n        /* \"#utility.yul\":12576:12579   */\n      dup8\n        /* \"#utility.yul\":12572:12591   */\n      add\n        /* \"#utility.yul\":12559:12592   */\n      calldataload\n        /* \"#utility.yul\":12550:12592   */\n      swap1\n      pop\n        /* \"#utility.yul\":12522:12606   */\n    tag_219:\n        /* \"#utility.yul\":12632:12699   */\n      tag_220\n        /* \"#utility.yul\":12692:12698   */\n      dup6\n        /* \"#utility.yul\":12685:12690   */\n      dup3\n        /* \"#utility.yul\":12632:12699   */\n      tag_88\n      jump\t// in\n    tag_220:\n        /* \"#utility.yul\":12626:12630   */\n      dup7\n        /* \"#utility.yul\":12619:12700   */\n      sstore\n        /* \"#utility.yul\":12481:12710   */\n      pop\n        /* \"#utility.yul\":11802:12710   */\n      jump(tag_217)\n        /* \"#utility.yul\":11832:12464   */\n    tag_218:\n        /* \"#utility.yul\":11884:11888   */\n      0x1f\n        /* \"#utility.yul\":11880:11889   */\n      not\n        /* \"#utility.yul\":11872:11878   */\n      dup5\n        /* \"#utility.yul\":11868:11890   */\n      and\n        /* \"#utility.yul\":11918:11955   */\n      tag_221\n        /* \"#utility.yul\":11950:11954   */\n      dup7\n        /* \"#utility.yul\":11918:11955   */\n      tag_73\n      jump\t// in\n    tag_221:\n        /* \"#utility.yul\":11977:11978   */\n      0x00\n        /* \"#utility.yul\":11991:12206   */\n    tag_222:\n        /* \"#utility.yul\":12005:12012   */\n      dup3\n        /* \"#utility.yul\":12002:12003   */\n      dup2\n        /* \"#utility.yul\":11999:12013   */\n      lt\n        /* \"#utility.yul\":11991:12206   */\n      iszero\n      tag_224\n      jumpi\n        /* \"#utility.yul\":12091:12100   */\n      dup5\n        /* \"#utility.yul\":12086:12089   */\n      dup10\n        /* \"#utility.yul\":12082:12101   */\n      add\n        /* \"#utility.yul\":12069:12102   */\n      calldataload\n        /* \"#utility.yul\":12061:12067   */\n      dup3\n        /* \"#utility.yul\":12054:12103   */\n      sstore\n        /* \"#utility.yul\":12142:12143   */\n      0x01\n        /* \"#utility.yul\":12134:12140   */\n      dup3\n        /* \"#utility.yul\":12130:12144   */\n      add\n        /* \"#utility.yul\":12120:12144   */\n      swap2\n      pop\n        /* \"#utility.yul\":12189:12191   */\n      0x20\n        /* \"#utility.yul\":12178:12187   */\n      dup6\n        /* \"#utility.yul\":12174:12192   */\n      add\n        /* \"#utility.yul\":12161:12192   */\n      swap5\n      pop\n        /* \"#utility.yul\":12028:12032   */\n      0x20\n        /* \"#utility.yul\":12025:12026   */\n      dup2\n        /* \"#utility.yul\":12021:12033   */\n      add\n        /* \"#utility.yul\":12016:12033   */\n      swap1\n      pop\n        /* \"#utility.yul\":11991:12206   */\n      jump(tag_222)\n    tag_224:\n        /* \"#utility.yul\":12234:12240   */\n      dup7\n        /* \"#utility.yul\":12225:12232   */\n      dup4\n        /* \"#utility.yul\":12222:12241   */\n      lt\n        /* \"#utility.yul\":12219:12405   */\n      iszero\n      tag_225\n      jumpi\n        /* \"#utility.yul\":12299:12308   */\n      dup5\n        /* \"#utility.yul\":12294:12297   */\n      dup10\n        /* \"#utility.yul\":12290:12309   */\n      add\n        /* \"#utility.yul\":12277:12310   */\n      calldataload\n        /* \"#utility.yul\":12342:12390   */\n      tag_226\n        /* \"#utility.yul\":12384:12388   */\n      0x1f\n        /* \"#utility.yul\":12376:12382   */\n      dup10\n        /* \"#utility.yul\":12372:12389   */\n      and\n        /* \"#utility.yul\":12361:12370   */\n      dup3\n        /* \"#utility.yul\":12342:12390   */\n      tag_87\n      jump\t// in\n    tag_226:\n        /* \"#utility.yul\":12334:12340   */\n      dup4\n        /* \"#utility.yul\":12327:12391   */\n      sstore\n        /* \"#utility.yul\":12242:12405   */\n      pop\n        /* \"#utility.yul\":12219:12405   */\n    tag_225:\n        /* \"#utility.yul\":12451:12452   */\n      0x01\n        /* \"#utility.yul\":12447:12448   */\n      0x02\n        /* \"#utility.yul\":12439:12445   */\n      dup9\n        /* \"#utility.yul\":12435:12449   */\n      mul\n        /* \"#utility.yul\":12431:12453   */\n      add\n        /* \"#utility.yul\":12425:12429   */\n      dup9\n        /* \"#utility.yul\":12418:12454   */\n      sstore\n        /* \"#utility.yul\":11839:12464   */\n      pop\n      pop\n      pop\n        /* \"#utility.yul\":11802:12710   */\n    tag_217:\n      pop\n        /* \"#utility.yul\":11412:12716   */\n      pop\n      pop\n      pop\n        /* \"#utility.yul\":11313:12716   */\n      pop\n      pop\n      pop\n      jump\t// out\n\n    auxdata: 0xa2646970667358221220c92b3b835c618bd81d049c41784ac156507184229f550c4ff886318d7d38631a64736f6c634300081a0033\n}\n",
				"bytecode": {
					"linkReferences": {},
					"object": "6080604052348015600e575f80fd5b506109f58061001c5f395ff3fe608060405234801561000f575f80fd5b506004361061004a575f3560e01c80633a7d280c1461004e5780633ffbd47f1461007e578063da0d37e61461009a578063ee91877c146100ca575b5f80fd5b610068600480360381019061006391906103ab565b6100fa565b6040516100759190610410565b60405180910390f35b61009860048036038101906100939190610429565b61016e565b005b6100b460048036038101906100af9190610501565b61020d565b6040516100c1919061059c565b60405180910390f35b6100e460048036038101906100df9190610501565b6102a8565b6040516100f1919061059c565b60405180910390f35b5f828260405161010b9291906105f8565b604051809103902060015f3373ffffffffffffffffffffffffffffffffffffffff1673ffffffffffffffffffffffffffffffffffffffff1681526020019081526020015f2060405161015d91906106ff565b604051809103902014905092915050565b83835f803373ffffffffffffffffffffffffffffffffffffffff1673ffffffffffffffffffffffffffffffffffffffff1681526020019081526020015f2091826101b99291906108f2565b50818160015f3373ffffffffffffffffffffffffffffffffffffffff1673ffffffffffffffffffffffffffffffffffffffff1681526020019081526020015f2091826102069291906108f2565b5050505050565b6001602052805f5260405f205f9150905080546102299061063d565b80601f01602080910402602001604051908101604052809291908181526020018280546102559061063d565b80156102a05780601f10610277576101008083540402835291602001916102a0565b820191905f5260205f20905b81548152906001019060200180831161028357829003601f168201915b505050505081565b5f602052805f5260405f205f9150905080546102c39061063d565b80601f01602080910402602001604051908101604052809291908181526020018280546102ef9061063d565b801561033a5780601f106103115761010080835404028352916020019161033a565b820191905f5260205f20905b81548152906001019060200180831161031d57829003601f168201915b505050505081565b5f80fd5b5f80fd5b5f80fd5b5f80fd5b5f80fd5b5f8083601f84011261036b5761036a61034a565b5b8235905067ffffffffffffffff8111156103885761038761034e565b5b6020830191508360018202830111156103a4576103a3610352565b5b9250929050565b5f80602083850312156103c1576103c0610342565b5b5f83013567ffffffffffffffff8111156103de576103dd610346565b5b6103ea85828601610356565b92509250509250929050565b5f8115159050919050565b61040a816103f6565b82525050565b5f6020820190506104235f830184610401565b92915050565b5f805f806040858703121561044157610440610342565b5b5f85013567ffffffffffffffff81111561045e5761045d610346565b5b61046a87828801610356565b9450945050602085013567ffffffffffffffff81111561048d5761048c610346565b5b61049987828801610356565b925092505092959194509250565b5f73ffffffffffffffffffffffffffffffffffffffff82169050919050565b5f6104d0826104a7565b9050919050565b6104e0816104c6565b81146104ea575f80fd5b50565b5f813590506104fb816104d7565b92915050565b5f6020828403121561051657610515610342565b5b5f610523848285016104ed565b91505092915050565b5f81519050919050565b5f82825260208201905092915050565b8281835e5f83830152505050565b5f601f19601f8301169050919050565b5f61056e8261052c565b6105788185610536565b9350610588818560208601610546565b61059181610554565b840191505092915050565b5f6020820190508181035f8301526105b48184610564565b905092915050565b5f81905092915050565b828183375f83830152505050565b5f6105df83856105bc565b93506105ec8385846105c6565b82840190509392505050565b5f6106048284866105d4565b91508190509392505050565b7f4e487b71000000000000000000000000000000000000000000000000000000005f52602260045260245ffd5b5f600282049050600182168061065457607f821691505b60208210810361066757610666610610565b5b50919050565b5f819050815f5260205f209050919050565b5f815461068b8161063d565b61069581866105bc565b9450600182165f81146106af57600181146106c4576106f6565b60ff19831686528115158202860193506106f6565b6106cd8561066d565b5f5b838110156106ee578154818901526001820191506020810190506106cf565b838801955050505b50505092915050565b5f61070a828461067f565b915081905092915050565b5f82905092915050565b7f4e487b71000000000000000000000000000000000000000000000000000000005f52604160045260245ffd5b5f819050815f5260205f209050919050565b5f6020601f8301049050919050565b5f82821b905092915050565b5f600883026107a87fffffffffffffffffffffffffffffffffffffffffffffffffffffffffffffffff8261076d565b6107b2868361076d565b95508019841693508086168417925050509392505050565b5f819050919050565b5f819050919050565b5f6107f66107f16107ec846107ca565b6107d3565b6107ca565b9050919050565b5f819050919050565b61080f836107dc565b61082361081b826107fd565b848454610779565b825550505050565b5f90565b61083761082b565b610842818484610806565b505050565b5b818110156108655761085a5f8261082f565b600181019050610848565b5050565b601f8211156108aa5761087b8161074c565b6108848461075e565b81016020851015610893578190505b6108a761089f8561075e565b830182610847565b50505b505050565b5f82821c905092915050565b5f6108ca5f19846008026108af565b1980831691505092915050565b5f6108e283836108bb565b9150826002028217905092915050565b6108fc8383610715565b67ffffffffffffffff8111156109155761091461071f565b5b61091f825461063d565b61092a828285610869565b5f601f831160018114610957575f8415610945578287013590505b61094f85826108d7565b8655506109b6565b601f1984166109658661074c565b5f5b8281101561098c57848901358255600182019150602085019450602081019050610967565b868310156109a957848901356109a5601f8916826108bb565b8355505b6001600288020188555050505b5050505050505056fea2646970667358221220c92b3b835c618bd81d049c41784ac156507184229f550c4ff886318d7d38631a64736f6c634300081a0033",
					"opcodes": "PUSH1 0x80 PUSH1 0x40 MSTORE CALLVALUE DUP1 ISZERO PUSH1 0xE JUMPI PUSH0 DUP1 REVERT JUMPDEST POP PUSH2 0x9F5 DUP1 PUSH2 0x1C PUSH0 CODECOPY PUSH0 RETURN INVALID PUSH1 0x80 PUSH1 0x40 MSTORE CALLVALUE DUP1 ISZERO PUSH2 0xF JUMPI PUSH0 DUP1 REVERT JUMPDEST POP PUSH1 0x4 CALLDATASIZE LT PUSH2 0x4A JUMPI PUSH0 CALLDATALOAD PUSH1 0xE0 SHR DUP1 PUSH4 0x3A7D280C EQ PUSH2 0x4E JUMPI DUP1 PUSH4 0x3FFBD47F EQ PUSH2 0x7E JUMPI DUP1 PUSH4 0xDA0D37E6 EQ PUSH2 0x9A JUMPI DUP1 PUSH4 0xEE91877C EQ PUSH2 0xCA JUMPI JUMPDEST PUSH0 DUP1 REVERT JUMPDEST PUSH2 0x68 PUSH1 0x4 DUP1 CALLDATASIZE SUB DUP2 ADD SWAP1 PUSH2 0x63 SWAP2 SWAP1 PUSH2 0x3AB JUMP JUMPDEST PUSH2 0xFA JUMP JUMPDEST PUSH1 0x40 MLOAD PUSH2 0x75 SWAP2 SWAP1 PUSH2 0x410 JUMP JUMPDEST PUSH1 0x40 MLOAD DUP1 SWAP2 SUB SWAP1 RETURN JUMPDEST PUSH2 0x98 PUSH1 0x4 DUP1 CALLDATASIZE SUB DUP2 ADD SWAP1 PUSH2 0x93 SWAP2 SWAP1 PUSH2 0x429 JUMP JUMPDEST PUSH2 0x16E JUMP JUMPDEST STOP JUMPDEST PUSH2 0xB4 PUSH1 0x4 DUP1 CALLDATASIZE SUB DUP2 ADD SWAP1 PUSH2 0xAF SWAP2 SWAP1 PUSH2 0x501 JUMP JUMPDEST PUSH2 0x20D JUMP JUMPDEST PUSH1 0x40 MLOAD PUSH2 0xC1 SWAP2 SWAP1 PUSH2 0x59C JUMP JUMPDEST PUSH1 0x40 MLOAD DUP1 SWAP2 SUB SWAP1 RETURN JUMPDEST PUSH2 0xE4 PUSH1 0x4 DUP1 CALLDATASIZE SUB DUP2 ADD SWAP1 PUSH2 0xDF SWAP2 SWAP1 PUSH2 0x501 JUMP JUMPDEST PUSH2 0x2A8 JUMP JUMPDEST PUSH1 0x40 MLOAD PUSH2 0xF1 SWAP2 SWAP1 PUSH2 0x59C JUMP JUMPDEST PUSH1 0x40 MLOAD DUP1 SWAP2 SUB SWAP1 RETURN JUMPDEST PUSH0 DUP3 DUP3 PUSH1 0x40 MLOAD PUSH2 0x10B SWAP3 SWAP2 SWAP1 PUSH2 0x5F8 JUMP JUMPDEST PUSH1 0x40 MLOAD DUP1 SWAP2 SUB SWAP1 KECCAK256 PUSH1 0x1 PUSH0 CALLER PUSH20 0xFFFFFFFFFFFFFFFFFFFFFFFFFFFFFFFFFFFFFFFF AND PUSH20 0xFFFFFFFFFFFFFFFFFFFFFFFFFFFFFFFFFFFFFFFF AND DUP2 MSTORE PUSH1 0x20 ADD SWAP1 DUP2 MSTORE PUSH1 0x20 ADD PUSH0 KECCAK256 PUSH1 0x40 MLOAD PUSH2 0x15D SWAP2 SWAP1 PUSH2 0x6FF JUMP JUMPDEST PUSH1 0x40 MLOAD DUP1 SWAP2 SUB SWAP1 KECCAK256 EQ SWAP1 POP SWAP3 SWAP2 POP POP JUMP JUMPDEST DUP4 DUP4 PUSH0 DUP1 CALLER PUSH20 0xFFFFFFFFFFFFFFFFFFFFFFFFFFFFFFFFFFFFFFFF AND PUSH20 0xFFFFFFFFFFFFFFFFFFFFFFFFFFFFFFFFFFFFFFFF AND DUP2 MSTORE PUSH1 0x20 ADD SWAP1 DUP2 MSTORE PUSH1 0x20 ADD PUSH0 KECCAK256 SWAP2 DUP3 PUSH2 0x1B9 SWAP3 SWAP2 SWAP1 PUSH2 0x8F2 JUMP JUMPDEST POP DUP2 DUP2 PUSH1 0x1 PUSH0 CALLER PUSH20 0xFFFFFFFFFFFFFFFFFFFFFFFFFFFFFFFFFFFFFFFF AND PUSH20 0xFFFFFFFFFFFFFFFFFFFFFFFFFFFFFFFFFFFFFFFF AND DUP2 MSTORE PUSH1 0x20 ADD SWAP1 DUP2 MSTORE PUSH1 0x20 ADD PUSH0 KECCAK256 SWAP2 DUP3 PUSH2 0x206 SWAP3 SWAP2 SWAP1 PUSH2 0x8F2 JUMP JUMPDEST POP POP POP POP POP JUMP JUMPDEST PUSH1 0x1 PUSH1 0x20 MSTORE DUP1 PUSH0 MSTORE PUSH1 0x40 PUSH0 KECCAK256 PUSH0 SWAP2 POP SWAP1 POP DUP1 SLOAD PUSH2 0x229 SWAP1 PUSH2 0x63D JUMP JUMPDEST DUP1 PUSH1 0x1F ADD PUSH1 0x20 DUP1 SWAP2 DIV MUL PUSH1 0x20 ADD PUSH1 0x40 MLOAD SWAP1 DUP2 ADD PUSH1 0x40 MSTORE DUP1 SWAP3 SWAP2 SWAP1 DUP2 DUP2 MSTORE PUSH1 0x20 ADD DUP3 DUP1 SLOAD PUSH2 0x255 SWAP1 PUSH2 0x63D JUMP JUMPDEST DUP1 ISZERO PUSH2 0x2A0 JUMPI DUP1 PUSH1 0x1F LT PUSH2 0x277 JUMPI PUSH2 0x100 DUP1 DUP4 SLOAD DIV MUL DUP4 MSTORE SWAP2 PUSH1 0x20 ADD SWAP2 PUSH2 0x2A0 JUMP JUMPDEST DUP3 ADD SWAP2 SWAP1 PUSH0 MSTORE PUSH1 0x20 PUSH0 KECCAK256 SWAP1 JUMPDEST DUP2 SLOAD DUP2 MSTORE SWAP1 PUSH1 0x1 ADD SWAP1 PUSH1 0x20 ADD DUP1 DUP4 GT PUSH2 0x283 JUMPI DUP3 SWAP1 SUB PUSH1 0x1F AND DUP3 ADD SWAP2 JUMPDEST POP POP POP POP POP DUP2 JUMP JUMPDEST PUSH0 PUSH1 0x20 MSTORE DUP1 PUSH0 MSTORE PUSH1 0x40 PUSH0 KECCAK256 PUSH0 SWAP2 POP SWAP1 POP DUP1 SLOAD PUSH2 0x2C3 SWAP1 PUSH2 0x63D JUMP JUMPDEST DUP1 PUSH1 0x1F ADD PUSH1 0x20 DUP1 SWAP2 DIV MUL PUSH1 0x20 ADD PUSH1 0x40 MLOAD SWAP1 DUP2 ADD PUSH1 0x40 MSTORE DUP1 SWAP3 SWAP2 SWAP1 DUP2 DUP2 MSTORE PUSH1 0x20 ADD DUP3 DUP1 SLOAD PUSH2 0x2EF SWAP1 PUSH2 0x63D JUMP JUMPDEST DUP1 ISZERO PUSH2 0x33A JUMPI DUP1 PUSH1 0x1F LT PUSH2 0x311 JUMPI PUSH2 0x100 DUP1 DUP4 SLOAD DIV MUL DUP4 MSTORE SWAP2 PUSH1 0x20 ADD SWAP2 PUSH2 0x33A JUMP JUMPDEST DUP3 ADD SWAP2 SWAP1 PUSH0 MSTORE PUSH1 0x20 PUSH0 KECCAK256 SWAP1 JUMPDEST DUP2 SLOAD DUP2 MSTORE SWAP1 PUSH1 0x1 ADD SWAP1 PUSH1 0x20 ADD DUP1 DUP4 GT PUSH2 0x31D JUMPI DUP3 SWAP1 SUB PUSH1 0x1F AND DUP3 ADD SWAP2 JUMPDEST POP POP POP POP POP DUP2 JUMP JUMPDEST PUSH0 DUP1 REVERT JUMPDEST PUSH0 DUP1 REVERT JUMPDEST PUSH0 DUP1 REVERT JUMPDEST PUSH0 DUP1 REVERT JUMPDEST PUSH0 DUP1 REVERT JUMPDEST PUSH0 DUP1 DUP4 PUSH1 0x1F DUP5 ADD SLT PUSH2 0x36B JUMPI PUSH2 0x36A PUSH2 0x34A JUMP JUMPDEST JUMPDEST DUP3 CALLDATALOAD SWAP1 POP PUSH8 0xFFFFFFFFFFFFFFFF DUP2 GT ISZERO PUSH2 0x388 JUMPI PUSH2 0x387 PUSH2 0x34E JUMP JUMPDEST JUMPDEST PUSH1 0x20 DUP4 ADD SWAP2 POP DUP4 PUSH1 0x1 DUP3 MUL DUP4 ADD GT ISZERO PUSH2 0x3A4 JUMPI PUSH2 0x3A3 PUSH2 0x352 JUMP JUMPDEST JUMPDEST SWAP3 POP SWAP3 SWAP1 POP JUMP JUMPDEST PUSH0 DUP1 PUSH1 0x20 DUP4 DUP6 SUB SLT ISZERO PUSH2 0x3C1 JUMPI PUSH2 0x3C0 PUSH2 0x342 JUMP JUMPDEST JUMPDEST PUSH0 DUP4 ADD CALLDATALOAD PUSH8 0xFFFFFFFFFFFFFFFF DUP2 GT ISZERO PUSH2 0x3DE JUMPI PUSH2 0x3DD PUSH2 0x346 JUMP JUMPDEST JUMPDEST PUSH2 0x3EA DUP6 DUP3 DUP7 ADD PUSH2 0x356 JUMP JUMPDEST SWAP3 POP SWAP3 POP POP SWAP3 POP SWAP3 SWAP1 POP JUMP JUMPDEST PUSH0 DUP2 ISZERO ISZERO SWAP1 POP SWAP2 SWAP1 POP JUMP JUMPDEST PUSH2 0x40A DUP2 PUSH2 0x3F6 JUMP JUMPDEST DUP3 MSTORE POP POP JUMP JUMPDEST PUSH0 PUSH1 0x20 DUP3 ADD SWAP1 POP PUSH2 0x423 PUSH0 DUP4 ADD DUP5 PUSH2 0x401 JUMP JUMPDEST SWAP3 SWAP2 POP POP JUMP JUMPDEST PUSH0 DUP1 PUSH0 DUP1 PUSH1 0x40 DUP6 DUP8 SUB SLT ISZERO PUSH2 0x441 JUMPI PUSH2 0x440 PUSH2 0x342 JUMP JUMPDEST JUMPDEST PUSH0 DUP6 ADD CALLDATALOAD PUSH8 0xFFFFFFFFFFFFFFFF DUP2 GT ISZERO PUSH2 0x45E JUMPI PUSH2 0x45D PUSH2 0x346 JUMP JUMPDEST JUMPDEST PUSH2 0x46A DUP8 DUP3 DUP9 ADD PUSH2 0x356 JUMP JUMPDEST SWAP5 POP SWAP5 POP POP PUSH1 0x20 DUP6 ADD CALLDATALOAD PUSH8 0xFFFFFFFFFFFFFFFF DUP2 GT ISZERO PUSH2 0x48D JUMPI PUSH2 0x48C PUSH2 0x346 JUMP JUMPDEST JUMPDEST PUSH2 0x499 DUP8 DUP3 DUP9 ADD PUSH2 0x356 JUMP JUMPDEST SWAP3 POP SWAP3 POP POP SWAP3 SWAP6 SWAP2 SWAP5 POP SWAP3 POP JUMP JUMPDEST PUSH0 PUSH20 0xFFFFFFFFFFFFFFFFFFFFFFFFFFFFFFFFFFFFFFFF DUP3 AND SWAP1 POP SWAP2 SWAP1 POP JUMP JUMPDEST PUSH0 PUSH2 0x4D0 DUP3 PUSH2 0x4A7 JUMP JUMPDEST SWAP1 POP SWAP2 SWAP1 POP JUMP JUMPDEST PUSH2 0x4E0 DUP2 PUSH2 0x4C6 JUMP JUMPDEST DUP2 EQ PUSH2 0x4EA JUMPI PUSH0 DUP1 REVERT JUMPDEST POP JUMP JUMPDEST PUSH0 DUP2 CALLDATALOAD SWAP1 POP PUSH2 0x4FB DUP2 PUSH2 0x4D7 JUMP JUMPDEST SWAP3 SWAP2 POP POP JUMP JUMPDEST PUSH0 PUSH1 0x20 DUP3 DUP5 SUB SLT ISZERO PUSH2 0x516 JUMPI PUSH2 0x515 PUSH2 0x342 JUMP JUMPDEST JUMPDEST PUSH0 PUSH2 0x523 DUP5 DUP3 DUP6 ADD PUSH2 0x4ED JUMP JUMPDEST SWAP2 POP POP SWAP3 SWAP2 POP POP JUMP JUMPDEST PUSH0 DUP2 MLOAD SWAP1 POP SWAP2 SWAP1 POP JUMP JUMPDEST PUSH0 DUP3 DUP3 MSTORE PUSH1 0x20 DUP3 ADD SWAP1 POP SWAP3 SWAP2 POP POP JUMP JUMPDEST DUP3 DUP2 DUP4 MCOPY PUSH0 DUP4 DUP4 ADD MSTORE POP POP POP JUMP JUMPDEST PUSH0 PUSH1 0x1F NOT PUSH1 0x1F DUP4 ADD AND SWAP1 POP SWAP2 SWAP1 POP JUMP JUMPDEST PUSH0 PUSH2 0x56E DUP3 PUSH2 0x52C JUMP JUMPDEST PUSH2 0x578 DUP2 DUP6 PUSH2 0x536 JUMP JUMPDEST SWAP4 POP PUSH2 0x588 DUP2 DUP6 PUSH1 0x20 DUP7 ADD PUSH2 0x546 JUMP JUMPDEST PUSH2 0x591 DUP2 PUSH2 0x554 JUMP JUMPDEST DUP5 ADD SWAP2 POP POP SWAP3 SWAP2 POP POP JUMP JUMPDEST PUSH0 PUSH1 0x20 DUP3 ADD SWAP1 POP DUP2 DUP2 SUB PUSH0 DUP4 ADD MSTORE PUSH2 0x5B4 DUP2 DUP5 PUSH2 0x564 JUMP JUMPDEST SWAP1 POP SWAP3 SWAP2 POP POP JUMP JUMPDEST PUSH0 DUP2 SWAP1 POP SWAP3 SWAP2 POP POP JUMP JUMPDEST DUP3 DUP2 DUP4 CALLDATACOPY PUSH0 DUP4 DUP4 ADD MSTORE POP POP POP JUMP JUMPDEST PUSH0 PUSH2 0x5DF DUP4 DUP6 PUSH2 0x5BC JUMP JUMPDEST SWAP4 POP PUSH2 0x5EC DUP4 DUP6 DUP5 PUSH2 0x5C6 JUMP JUMPDEST DUP3 DUP5 ADD SWAP1 POP SWAP4 SWAP3 POP POP POP JUMP JUMPDEST PUSH0 PUSH2 0x604 DUP3 DUP5 DUP7 PUSH2 0x5D4 JUMP JUMPDEST SWAP2 POP DUP2 SWAP1 POP SWAP4 SWAP3 POP POP POP JUMP JUMPDEST PUSH32 0x4E487B7100000000000000000000000000000000000000000000000000000000 PUSH0 MSTORE PUSH1 0x22 PUSH1 0x4 MSTORE PUSH1 0x24 PUSH0 REVERT JUMPDEST PUSH0 PUSH1 0x2 DUP3 DIV SWAP1 POP PUSH1 0x1 DUP3 AND DUP1 PUSH2 0x654 JUMPI PUSH1 0x7F DUP3 AND SWAP2 POP JUMPDEST PUSH1 0x20 DUP3 LT DUP2 SUB PUSH2 0x667 JUMPI PUSH2 0x666 PUSH2 0x610 JUMP JUMPDEST JUMPDEST POP SWAP2 SWAP1 POP JUMP JUMPDEST PUSH0 DUP2 SWAP1 POP DUP2 PUSH0 MSTORE PUSH1 0x20 PUSH0 KECCAK256 SWAP1 POP SWAP2 SWAP1 POP JUMP JUMPDEST PUSH0 DUP2 SLOAD PUSH2 0x68B DUP2 PUSH2 0x63D JUMP JUMPDEST PUSH2 0x695 DUP2 DUP7 PUSH2 0x5BC JUMP JUMPDEST SWAP5 POP PUSH1 0x1 DUP3 AND PUSH0 DUP2 EQ PUSH2 0x6AF JUMPI PUSH1 0x1 DUP2 EQ PUSH2 0x6C4 JUMPI PUSH2 0x6F6 JUMP JUMPDEST PUSH1 0xFF NOT DUP4 AND DUP7 MSTORE DUP2 ISZERO ISZERO DUP3 MUL DUP7 ADD SWAP4 POP PUSH2 0x6F6 JUMP JUMPDEST PUSH2 0x6CD DUP6 PUSH2 0x66D JUMP JUMPDEST PUSH0 JUMPDEST DUP4 DUP2 LT ISZERO PUSH2 0x6EE JUMPI DUP2 SLOAD DUP2 DUP10 ADD MSTORE PUSH1 0x1 DUP3 ADD SWAP2 POP PUSH1 0x20 DUP2 ADD SWAP1 POP PUSH2 0x6CF JUMP JUMPDEST DUP4 DUP9 ADD SWAP6 POP POP POP JUMPDEST POP POP POP SWAP3 SWAP2 POP POP JUMP JUMPDEST PUSH0 PUSH2 0x70A DUP3 DUP5 PUSH2 0x67F JUMP JUMPDEST SWAP2 POP DUP2 SWAP1 POP SWAP3 SWAP2 POP POP JUMP JUMPDEST PUSH0 DUP3 SWAP1 POP SWAP3 SWAP2 POP POP JUMP JUMPDEST PUSH32 0x4E487B7100000000000000000000000000000000000000000000000000000000 PUSH0 MSTORE PUSH1 0x41 PUSH1 0x4 MSTORE PUSH1 0x24 PUSH0 REVERT JUMPDEST PUSH0 DUP2 SWAP1 POP DUP2 PUSH0 MSTORE PUSH1 0x20 PUSH0 KECCAK256 SWAP1 POP SWAP2 SWAP1 POP JUMP JUMPDEST PUSH0 PUSH1 0x20 PUSH1 0x1F DUP4 ADD DIV SWAP1 POP SWAP2 SWAP1 POP JUMP JUMPDEST PUSH0 DUP3 DUP3 SHL SWAP1 POP SWAP3 SWAP2 POP POP JUMP JUMPDEST PUSH0 PUSH1 0x8 DUP4 MUL PUSH2 0x7A8 PUSH32 0xFFFFFFFFFFFFFFFFFFFFFFFFFFFFFFFFFFFFFFFFFFFFFFFFFFFFFFFFFFFFFFFF DUP3 PUSH2 0x76D JUMP JUMPDEST PUSH2 0x7B2 DUP7 DUP4 PUSH2 0x76D JUMP JUMPDEST SWAP6 POP DUP1 NOT DUP5 AND SWAP4 POP DUP1 DUP7 AND DUP5 OR SWAP3 POP POP POP SWAP4 SWAP3 POP POP POP JUMP JUMPDEST PUSH0 DUP2 SWAP1 POP SWAP2 SWAP1 POP JUMP JUMPDEST PUSH0 DUP2 SWAP1 POP SWAP2 SWAP1 POP JUMP JUMPDEST PUSH0 PUSH2 0x7F6 PUSH2 0x7F1 PUSH2 0x7EC DUP5 PUSH2 0x7CA JUMP JUMPDEST PUSH2 0x7D3 JUMP JUMPDEST PUSH2 0x7CA JUMP JUMPDEST SWAP1 POP SWAP2 SWAP1 POP JUMP JUMPDEST PUSH0 DUP2 SWAP1 POP SWAP2 SWAP1 POP JUMP JUMPDEST PUSH2 0x80F DUP4 PUSH2 0x7DC JUMP JUMPDEST PUSH2 0x823 PUSH2 0x81B DUP3 PUSH2 0x7FD JUMP JUMPDEST DUP5 DUP5 SLOAD PUSH2 0x779 JUMP JUMPDEST DUP3 SSTORE POP POP POP POP JUMP JUMPDEST PUSH0 SWAP1 JUMP JUMPDEST PUSH2 0x837 PUSH2 0x82B JUMP JUMPDEST PUSH2 0x842 DUP2 DUP5 DUP5 PUSH2 0x806 JUMP JUMPDEST POP POP POP JUMP JUMPDEST JUMPDEST DUP2 DUP2 LT ISZERO PUSH2 0x865 JUMPI PUSH2 0x85A PUSH0 DUP3 PUSH2 0x82F JUMP JUMPDEST PUSH1 0x1 DUP2 ADD SWAP1 POP PUSH2 0x848 JUMP JUMPDEST POP POP JUMP JUMPDEST PUSH1 0x1F DUP3 GT ISZERO PUSH2 0x8AA JUMPI PUSH2 0x87B DUP2 PUSH2 0x74C JUMP JUMPDEST PUSH2 0x884 DUP5 PUSH2 0x75E JUMP JUMPDEST DUP2 ADD PUSH1 0x20 DUP6 LT ISZERO PUSH2 0x893 JUMPI DUP2 SWAP1 POP JUMPDEST PUSH2 0x8A7 PUSH2 0x89F DUP6 PUSH2 0x75E JUMP JUMPDEST DUP4 ADD DUP3 PUSH2 0x847 JUMP JUMPDEST POP POP JUMPDEST POP POP POP JUMP JUMPDEST PUSH0 DUP3 DUP3 SHR SWAP1 POP SWAP3 SWAP2 POP POP JUMP JUMPDEST PUSH0 PUSH2 0x8CA PUSH0 NOT DUP5 PUSH1 0x8 MUL PUSH2 0x8AF JUMP JUMPDEST NOT DUP1 DUP4 AND SWAP2 POP POP SWAP3 SWAP2 POP POP JUMP JUMPDEST PUSH0 PUSH2 0x8E2 DUP4 DUP4 PUSH2 0x8BB JUMP JUMPDEST SWAP2 POP DUP3 PUSH1 0x2 MUL DUP3 OR SWAP1 POP SWAP3 SWAP2 POP POP JUMP JUMPDEST PUSH2 0x8FC DUP4 DUP4 PUSH2 0x715 JUMP JUMPDEST PUSH8 0xFFFFFFFFFFFFFFFF DUP2 GT ISZERO PUSH2 0x915 JUMPI PUSH2 0x914 PUSH2 0x71F JUMP JUMPDEST JUMPDEST PUSH2 0x91F DUP3 SLOAD PUSH2 0x63D JUMP JUMPDEST PUSH2 0x92A DUP3 DUP3 DUP6 PUSH2 0x869 JUMP JUMPDEST PUSH0 PUSH1 0x1F DUP4 GT PUSH1 0x1 DUP2 EQ PUSH2 0x957 JUMPI PUSH0 DUP5 ISZERO PUSH2 0x945 JUMPI DUP3 DUP8 ADD CALLDATALOAD SWAP1 POP JUMPDEST PUSH2 0x94F DUP6 DUP3 PUSH2 0x8D7 JUMP JUMPDEST DUP7 SSTORE POP PUSH2 0x9B6 JUMP JUMPDEST PUSH1 0x1F NOT DUP5 AND PUSH2 0x965 DUP7 PUSH2 0x74C JUMP JUMPDEST PUSH0 JUMPDEST DUP3 DUP2 LT ISZERO PUSH2 0x98C JUMPI DUP5 DUP10 ADD CALLDATALOAD DUP3 SSTORE PUSH1 0x1 DUP3 ADD SWAP2 POP PUSH1 0x20 DUP6 ADD SWAP5 POP PUSH1 0x20 DUP2 ADD SWAP1 POP PUSH2 0x967 JUMP JUMPDEST DUP7 DUP4 LT ISZERO PUSH2 0x9A9 JUMPI DUP5 DUP10 ADD CALLDATALOAD PUSH2 0x9A5 PUSH1 0x1F DUP10 AND DUP3 PUSH2 0x8BB JUMP JUMPDEST DUP4 SSTORE POP JUMPDEST PUSH1 0x1 PUSH1 0x2 DUP9 MUL ADD DUP9 SSTORE POP POP POP JUMPDEST POP POP POP POP POP POP POP JUMP INVALID LOG2 PUSH5 0x6970667358 0x22 SLT KECCAK256 0xC9 0x2B EXTCODESIZE DUP4 TLOAD PUSH2 0x8BD8 SAR DIV SWAP13 COINBASE PUSH25 0x4AC156507184229F550C4FF886318D7D38631A64736F6C6343 STOP ADDMOD BYTE STOP CALLER "
				},
				"gasEstimates": {
					"creation": {
						"codeDepositCost": "509800",
						"executionCost": "541",
						"totalCost": "510341"
					},
					"external": {
						"login(string)": "infinite",
						"passwords(address)": "infinite",
						"register(string,string)": "infinite",
						"usernames(address)": "infinite"
					}
				},
				"methodIdentifiers": {
					"login(string)": "3a7d280c",
					"passwords(address)": "da0d37e6",
					"register(string,string)": "3ffbd47f",
					"usernames(address)": "ee91877c"
				}
			},
			"storageLayout": {
				"storage": [
					{
						"astId": 6,
						"contract": "F/Form-Based Authentication/Plaintext FormAuth (do NOT do this).sol:InsecureFormAuth",
						"label": "usernames",
						"offset": 0,
						"slot": "0",
						"type": "t_mapping(t_address,t_string_storage)"
					},
					{
						"astId": 10,
						"contract": "F/Form-Based Authentication/Plaintext FormAuth (do NOT do this).sol:InsecureFormAuth",
						"label": "passwords",
						"offset": 0,
						"slot": "1",
						"type": "t_mapping(t_address,t_string_storage)"
					}
				],
				"types": {
					"t_address": {
						"encoding": "inplace",
						"label": "address",
						"numberOfBytes": "20"
					},
					"t_mapping(t_address,t_string_storage)": {
						"encoding": "mapping",
						"key": "t_address",
						"label": "mapping(address => string)",
						"numberOfBytes": "32",
						"value": "t_string_storage"
					},
					"t_string_storage": {
						"encoding": "bytes",
						"label": "string",
						"numberOfBytes": "32"
					}
				}
			},
			"userdoc": {
				"kind": "user",
				"methods": {},
				"notice": "Simulates a login form with username/password stored on-chain ❌ DANGEROUS — never store credentials like this",
				"version": 1
			}
		}
	}
}