{
	"I/Ingress Filtering/Cross-Chain Filtering by Origin Proof.sol": {
		"CrossChainIngress": {
			"abi": [
				{
					"inputs": [
						{
							"internalType": "address",
							"name": "relayer",
							"type": "address"
						}
					],
					"stateMutability": "nonpayable",
					"type": "constructor"
				},
				{
					"inputs": [
						{
							"internalType": "bytes",
							"name": "data",
							"type": "bytes"
						}
					],
					"name": "processMessage",
					"outputs": [],
					"stateMutability": "nonpayable",
					"type": "function"
				},
				{
					"inputs": [],
					"name": "trustedRelayer",
					"outputs": [
						{
							"internalType": "address",
							"name": "",
							"type": "address"
						}
					],
					"stateMutability": "view",
					"type": "function"
				}
			],
			"devdoc": {
				"kind": "dev",
				"methods": {},
				"version": 1
			},
			"evm": {
				"assembly": "    /* \"I/Ingress Filtering/Cross-Chain Filtering by Origin Proof.sol\":0:386  contract CrossChainIngress {... */\n  mstore(0x40, 0x80)\n    /* \"I/Ingress Filtering/Cross-Chain Filtering by Origin Proof.sol\":69:139  constructor(address relayer) {... */\n  callvalue\n  dup1\n  iszero\n  tag_1\n  jumpi\n  0x00\n  dup1\n  revert\ntag_1:\n  pop\n  mload(0x40)\n  sub(codesize, bytecodeSize)\n  dup1\n  bytecodeSize\n  dup4\n  codecopy\n  dup2\n  dup2\n  add\n  0x40\n  mstore\n  dup2\n  add\n  swap1\n  tag_2\n  swap2\n  swap1\n  tag_3\n  jump\t// in\ntag_2:\n    /* \"I/Ingress Filtering/Cross-Chain Filtering by Origin Proof.sol\":125:132  relayer */\n  dup1\n    /* \"I/Ingress Filtering/Cross-Chain Filtering by Origin Proof.sol\":108:122  trustedRelayer */\n  0x00\n  dup1\n    /* \"I/Ingress Filtering/Cross-Chain Filtering by Origin Proof.sol\":108:132  trustedRelayer = relayer */\n  0x0100\n  exp\n  dup2\n  sload\n  dup2\n  0xffffffffffffffffffffffffffffffffffffffff\n  mul\n  not\n  and\n  swap1\n  dup4\n  0xffffffffffffffffffffffffffffffffffffffff\n  and\n  mul\n  or\n  swap1\n  sstore\n  pop\n    /* \"I/Ingress Filtering/Cross-Chain Filtering by Origin Proof.sol\":69:139  constructor(address relayer) {... */\n  pop\n    /* \"I/Ingress Filtering/Cross-Chain Filtering by Origin Proof.sol\":0:386  contract CrossChainIngress {... */\n  jump(tag_6)\n    /* \"#utility.yul\":88:205   */\ntag_8:\n    /* \"#utility.yul\":197:198   */\n  0x00\n    /* \"#utility.yul\":194:195   */\n  dup1\n    /* \"#utility.yul\":187:199   */\n  revert\n    /* \"#utility.yul\":334:460   */\ntag_10:\n    /* \"#utility.yul\":371:378   */\n  0x00\n    /* \"#utility.yul\":411:453   */\n  0xffffffffffffffffffffffffffffffffffffffff\n    /* \"#utility.yul\":404:409   */\n  dup3\n    /* \"#utility.yul\":400:454   */\n  and\n    /* \"#utility.yul\":389:454   */\n  swap1\n  pop\n    /* \"#utility.yul\":334:460   */\n  swap2\n  swap1\n  pop\n  jump\t// out\n    /* \"#utility.yul\":466:562   */\ntag_11:\n    /* \"#utility.yul\":503:510   */\n  0x00\n    /* \"#utility.yul\":532:556   */\n  tag_20\n    /* \"#utility.yul\":550:555   */\n  dup3\n    /* \"#utility.yul\":532:556   */\n  tag_10\n  jump\t// in\ntag_20:\n    /* \"#utility.yul\":521:556   */\n  swap1\n  pop\n    /* \"#utility.yul\":466:562   */\n  swap2\n  swap1\n  pop\n  jump\t// out\n    /* \"#utility.yul\":568:690   */\ntag_12:\n    /* \"#utility.yul\":641:665   */\n  tag_22\n    /* \"#utility.yul\":659:664   */\n  dup2\n    /* \"#utility.yul\":641:665   */\n  tag_11\n  jump\t// in\ntag_22:\n    /* \"#utility.yul\":634:639   */\n  dup2\n    /* \"#utility.yul\":631:666   */\n  eq\n    /* \"#utility.yul\":621:684   */\n  tag_23\n  jumpi\n    /* \"#utility.yul\":680:681   */\n  0x00\n    /* \"#utility.yul\":677:678   */\n  dup1\n    /* \"#utility.yul\":670:682   */\n  revert\n    /* \"#utility.yul\":621:684   */\ntag_23:\n    /* \"#utility.yul\":568:690   */\n  pop\n  jump\t// out\n    /* \"#utility.yul\":696:839   */\ntag_13:\n    /* \"#utility.yul\":753:758   */\n  0x00\n    /* \"#utility.yul\":784:790   */\n  dup2\n    /* \"#utility.yul\":778:791   */\n  mload\n    /* \"#utility.yul\":769:791   */\n  swap1\n  pop\n    /* \"#utility.yul\":800:833   */\n  tag_25\n    /* \"#utility.yul\":827:832   */\n  dup2\n    /* \"#utility.yul\":800:833   */\n  tag_12\n  jump\t// in\ntag_25:\n    /* \"#utility.yul\":696:839   */\n  swap3\n  swap2\n  pop\n  pop\n  jump\t// out\n    /* \"#utility.yul\":845:1196   */\ntag_3:\n    /* \"#utility.yul\":915:921   */\n  0x00\n    /* \"#utility.yul\":964:966   */\n  0x20\n    /* \"#utility.yul\":952:961   */\n  dup3\n    /* \"#utility.yul\":943:950   */\n  dup5\n    /* \"#utility.yul\":939:962   */\n  sub\n    /* \"#utility.yul\":935:967   */\n  slt\n    /* \"#utility.yul\":932:1051   */\n  iszero\n  tag_27\n  jumpi\n    /* \"#utility.yul\":970:1049   */\n  tag_28\n  tag_8\n  jump\t// in\ntag_28:\n    /* \"#utility.yul\":932:1051   */\ntag_27:\n    /* \"#utility.yul\":1090:1091   */\n  0x00\n    /* \"#utility.yul\":1115:1179   */\n  tag_29\n    /* \"#utility.yul\":1171:1178   */\n  dup5\n    /* \"#utility.yul\":1162:1168   */\n  dup3\n    /* \"#utility.yul\":1151:1160   */\n  dup6\n    /* \"#utility.yul\":1147:1169   */\n  add\n    /* \"#utility.yul\":1115:1179   */\n  tag_13\n  jump\t// in\ntag_29:\n    /* \"#utility.yul\":1105:1179   */\n  swap2\n  pop\n    /* \"#utility.yul\":1061:1189   */\n  pop\n    /* \"#utility.yul\":845:1196   */\n  swap3\n  swap2\n  pop\n  pop\n  jump\t// out\n    /* \"I/Ingress Filtering/Cross-Chain Filtering by Origin Proof.sol\":0:386  contract CrossChainIngress {... */\ntag_6:\n  dataSize(sub_0)\n  dup1\n  dataOffset(sub_0)\n  0x00\n  codecopy\n  0x00\n  return\nstop\n\nsub_0: assembly {\n        /* \"I/Ingress Filtering/Cross-Chain Filtering by Origin Proof.sol\":0:386  contract CrossChainIngress {... */\n      mstore(0x40, 0x80)\n      callvalue\n      dup1\n      iszero\n      tag_1\n      jumpi\n      0x00\n      dup1\n      revert\n    tag_1:\n      pop\n      jumpi(tag_2, lt(calldatasize, 0x04))\n      shr(0xe0, calldataload(0x00))\n      dup1\n      0x4ff746f6\n      eq\n      tag_3\n      jumpi\n      dup1\n      0x8596c226\n      eq\n      tag_4\n      jumpi\n    tag_2:\n      0x00\n      dup1\n      revert\n        /* \"I/Ingress Filtering/Cross-Chain Filtering by Origin Proof.sol\":258:384  function processMessage(bytes calldata data) external onlyRelayer {... */\n    tag_3:\n      tag_5\n      0x04\n      dup1\n      calldatasize\n      sub\n      dup2\n      add\n      swap1\n      tag_6\n      swap2\n      swap1\n      tag_7\n      jump\t// in\n    tag_6:\n      tag_8\n      jump\t// in\n    tag_5:\n      stop\n        /* \"I/Ingress Filtering/Cross-Chain Filtering by Origin Proof.sol\":33:62  address public trustedRelayer */\n    tag_4:\n      tag_9\n      tag_10\n      jump\t// in\n    tag_9:\n      mload(0x40)\n      tag_11\n      swap2\n      swap1\n      tag_12\n      jump\t// in\n    tag_11:\n      mload(0x40)\n      dup1\n      swap2\n      sub\n      swap1\n      return\n        /* \"I/Ingress Filtering/Cross-Chain Filtering by Origin Proof.sol\":258:384  function processMessage(bytes calldata data) external onlyRelayer {... */\n    tag_8:\n        /* \"I/Ingress Filtering/Cross-Chain Filtering by Origin Proof.sol\":200:214  trustedRelayer */\n      0x00\n      dup1\n      sload\n      swap1\n      0x0100\n      exp\n      swap1\n      div\n      0xffffffffffffffffffffffffffffffffffffffff\n      and\n        /* \"I/Ingress Filtering/Cross-Chain Filtering by Origin Proof.sol\":186:214  msg.sender == trustedRelayer */\n      0xffffffffffffffffffffffffffffffffffffffff\n      and\n        /* \"I/Ingress Filtering/Cross-Chain Filtering by Origin Proof.sol\":186:196  msg.sender */\n      caller\n        /* \"I/Ingress Filtering/Cross-Chain Filtering by Origin Proof.sol\":186:214  msg.sender == trustedRelayer */\n      0xffffffffffffffffffffffffffffffffffffffff\n      and\n      eq\n        /* \"I/Ingress Filtering/Cross-Chain Filtering by Origin Proof.sol\":178:234  require(msg.sender == trustedRelayer, \"Invalid relayer\") */\n      tag_14\n      jumpi\n      mload(0x40)\n      0x08c379a000000000000000000000000000000000000000000000000000000000\n      dup2\n      mstore\n      0x04\n      add\n      tag_15\n      swap1\n      tag_16\n      jump\t// in\n    tag_15:\n      mload(0x40)\n      dup1\n      swap2\n      sub\n      swap1\n      revert\n    tag_14:\n        /* \"I/Ingress Filtering/Cross-Chain Filtering by Origin Proof.sol\":258:384  function processMessage(bytes calldata data) external onlyRelayer {... */\n      pop\n      pop\n      jump\t// out\n        /* \"I/Ingress Filtering/Cross-Chain Filtering by Origin Proof.sol\":33:62  address public trustedRelayer */\n    tag_10:\n      0x00\n      dup1\n      sload\n      swap1\n      0x0100\n      exp\n      swap1\n      div\n      0xffffffffffffffffffffffffffffffffffffffff\n      and\n      dup2\n      jump\t// out\n        /* \"#utility.yul\":88:205   */\n    tag_19:\n        /* \"#utility.yul\":197:198   */\n      0x00\n        /* \"#utility.yul\":194:195   */\n      dup1\n        /* \"#utility.yul\":187:199   */\n      revert\n        /* \"#utility.yul\":211:328   */\n    tag_20:\n        /* \"#utility.yul\":320:321   */\n      0x00\n        /* \"#utility.yul\":317:318   */\n      dup1\n        /* \"#utility.yul\":310:322   */\n      revert\n        /* \"#utility.yul\":334:451   */\n    tag_21:\n        /* \"#utility.yul\":443:444   */\n      0x00\n        /* \"#utility.yul\":440:441   */\n      dup1\n        /* \"#utility.yul\":433:445   */\n      revert\n        /* \"#utility.yul\":457:574   */\n    tag_22:\n        /* \"#utility.yul\":566:567   */\n      0x00\n        /* \"#utility.yul\":563:564   */\n      dup1\n        /* \"#utility.yul\":556:568   */\n      revert\n        /* \"#utility.yul\":580:697   */\n    tag_23:\n        /* \"#utility.yul\":689:690   */\n      0x00\n        /* \"#utility.yul\":686:687   */\n      dup1\n        /* \"#utility.yul\":679:691   */\n      revert\n        /* \"#utility.yul\":716:1268   */\n    tag_24:\n        /* \"#utility.yul\":773:781   */\n      0x00\n        /* \"#utility.yul\":783:789   */\n      dup1\n        /* \"#utility.yul\":833:836   */\n      dup4\n        /* \"#utility.yul\":826:830   */\n      0x1f\n        /* \"#utility.yul\":818:824   */\n      dup5\n        /* \"#utility.yul\":814:831   */\n      add\n        /* \"#utility.yul\":810:837   */\n      slt\n        /* \"#utility.yul\":800:922   */\n      tag_39\n      jumpi\n        /* \"#utility.yul\":841:920   */\n      tag_40\n      tag_21\n      jump\t// in\n    tag_40:\n        /* \"#utility.yul\":800:922   */\n    tag_39:\n        /* \"#utility.yul\":954:960   */\n      dup3\n        /* \"#utility.yul\":941:961   */\n      calldataload\n        /* \"#utility.yul\":931:961   */\n      swap1\n      pop\n        /* \"#utility.yul\":984:1002   */\n      0xffffffffffffffff\n        /* \"#utility.yul\":976:982   */\n      dup2\n        /* \"#utility.yul\":973:1003   */\n      gt\n        /* \"#utility.yul\":970:1087   */\n      iszero\n      tag_41\n      jumpi\n        /* \"#utility.yul\":1006:1085   */\n      tag_42\n      tag_22\n      jump\t// in\n    tag_42:\n        /* \"#utility.yul\":970:1087   */\n    tag_41:\n        /* \"#utility.yul\":1120:1124   */\n      0x20\n        /* \"#utility.yul\":1112:1118   */\n      dup4\n        /* \"#utility.yul\":1108:1125   */\n      add\n        /* \"#utility.yul\":1096:1125   */\n      swap2\n      pop\n        /* \"#utility.yul\":1174:1177   */\n      dup4\n        /* \"#utility.yul\":1166:1170   */\n      0x01\n        /* \"#utility.yul\":1158:1164   */\n      dup3\n        /* \"#utility.yul\":1154:1171   */\n      mul\n        /* \"#utility.yul\":1144:1152   */\n      dup4\n        /* \"#utility.yul\":1140:1172   */\n      add\n        /* \"#utility.yul\":1137:1178   */\n      gt\n        /* \"#utility.yul\":1134:1262   */\n      iszero\n      tag_43\n      jumpi\n        /* \"#utility.yul\":1181:1260   */\n      tag_44\n      tag_23\n      jump\t// in\n    tag_44:\n        /* \"#utility.yul\":1134:1262   */\n    tag_43:\n        /* \"#utility.yul\":716:1268   */\n      swap3\n      pop\n      swap3\n      swap1\n      pop\n      jump\t// out\n        /* \"#utility.yul\":1274:1801   */\n    tag_7:\n        /* \"#utility.yul\":1344:1350   */\n      0x00\n        /* \"#utility.yul\":1352:1358   */\n      dup1\n        /* \"#utility.yul\":1401:1403   */\n      0x20\n        /* \"#utility.yul\":1389:1398   */\n      dup4\n        /* \"#utility.yul\":1380:1387   */\n      dup6\n        /* \"#utility.yul\":1376:1399   */\n      sub\n        /* \"#utility.yul\":1372:1404   */\n      slt\n        /* \"#utility.yul\":1369:1488   */\n      iszero\n      tag_46\n      jumpi\n        /* \"#utility.yul\":1407:1486   */\n      tag_47\n      tag_19\n      jump\t// in\n    tag_47:\n        /* \"#utility.yul\":1369:1488   */\n    tag_46:\n        /* \"#utility.yul\":1555:1556   */\n      0x00\n        /* \"#utility.yul\":1544:1553   */\n      dup4\n        /* \"#utility.yul\":1540:1557   */\n      add\n        /* \"#utility.yul\":1527:1558   */\n      calldataload\n        /* \"#utility.yul\":1585:1603   */\n      0xffffffffffffffff\n        /* \"#utility.yul\":1577:1583   */\n      dup2\n        /* \"#utility.yul\":1574:1604   */\n      gt\n        /* \"#utility.yul\":1571:1688   */\n      iszero\n      tag_48\n      jumpi\n        /* \"#utility.yul\":1607:1686   */\n      tag_49\n      tag_20\n      jump\t// in\n    tag_49:\n        /* \"#utility.yul\":1571:1688   */\n    tag_48:\n        /* \"#utility.yul\":1720:1784   */\n      tag_50\n        /* \"#utility.yul\":1776:1783   */\n      dup6\n        /* \"#utility.yul\":1767:1773   */\n      dup3\n        /* \"#utility.yul\":1756:1765   */\n      dup7\n        /* \"#utility.yul\":1752:1774   */\n      add\n        /* \"#utility.yul\":1720:1784   */\n      tag_24\n      jump\t// in\n    tag_50:\n        /* \"#utility.yul\":1702:1784   */\n      swap3\n      pop\n      swap3\n      pop\n        /* \"#utility.yul\":1498:1794   */\n      pop\n        /* \"#utility.yul\":1274:1801   */\n      swap3\n      pop\n      swap3\n      swap1\n      pop\n      jump\t// out\n        /* \"#utility.yul\":1807:1933   */\n    tag_25:\n        /* \"#utility.yul\":1844:1851   */\n      0x00\n        /* \"#utility.yul\":1884:1926   */\n      0xffffffffffffffffffffffffffffffffffffffff\n        /* \"#utility.yul\":1877:1882   */\n      dup3\n        /* \"#utility.yul\":1873:1927   */\n      and\n        /* \"#utility.yul\":1862:1927   */\n      swap1\n      pop\n        /* \"#utility.yul\":1807:1933   */\n      swap2\n      swap1\n      pop\n      jump\t// out\n        /* \"#utility.yul\":1939:2035   */\n    tag_26:\n        /* \"#utility.yul\":1976:1983   */\n      0x00\n        /* \"#utility.yul\":2005:2029   */\n      tag_53\n        /* \"#utility.yul\":2023:2028   */\n      dup3\n        /* \"#utility.yul\":2005:2029   */\n      tag_25\n      jump\t// in\n    tag_53:\n        /* \"#utility.yul\":1994:2029   */\n      swap1\n      pop\n        /* \"#utility.yul\":1939:2035   */\n      swap2\n      swap1\n      pop\n      jump\t// out\n        /* \"#utility.yul\":2041:2159   */\n    tag_27:\n        /* \"#utility.yul\":2128:2152   */\n      tag_55\n        /* \"#utility.yul\":2146:2151   */\n      dup2\n        /* \"#utility.yul\":2128:2152   */\n      tag_26\n      jump\t// in\n    tag_55:\n        /* \"#utility.yul\":2123:2126   */\n      dup3\n        /* \"#utility.yul\":2116:2153   */\n      mstore\n        /* \"#utility.yul\":2041:2159   */\n      pop\n      pop\n      jump\t// out\n        /* \"#utility.yul\":2165:2387   */\n    tag_12:\n        /* \"#utility.yul\":2258:2262   */\n      0x00\n        /* \"#utility.yul\":2296:2298   */\n      0x20\n        /* \"#utility.yul\":2285:2294   */\n      dup3\n        /* \"#utility.yul\":2281:2299   */\n      add\n        /* \"#utility.yul\":2273:2299   */\n      swap1\n      pop\n        /* \"#utility.yul\":2309:2380   */\n      tag_57\n        /* \"#utility.yul\":2377:2378   */\n      0x00\n        /* \"#utility.yul\":2366:2375   */\n      dup4\n        /* \"#utility.yul\":2362:2379   */\n      add\n        /* \"#utility.yul\":2353:2359   */\n      dup5\n        /* \"#utility.yul\":2309:2380   */\n      tag_27\n      jump\t// in\n    tag_57:\n        /* \"#utility.yul\":2165:2387   */\n      swap3\n      swap2\n      pop\n      pop\n      jump\t// out\n        /* \"#utility.yul\":2393:2562   */\n    tag_28:\n        /* \"#utility.yul\":2477:2488   */\n      0x00\n        /* \"#utility.yul\":2511:2517   */\n      dup3\n        /* \"#utility.yul\":2506:2509   */\n      dup3\n        /* \"#utility.yul\":2499:2518   */\n      mstore\n        /* \"#utility.yul\":2551:2555   */\n      0x20\n        /* \"#utility.yul\":2546:2549   */\n      dup3\n        /* \"#utility.yul\":2542:2556   */\n      add\n        /* \"#utility.yul\":2527:2556   */\n      swap1\n      pop\n        /* \"#utility.yul\":2393:2562   */\n      swap3\n      swap2\n      pop\n      pop\n      jump\t// out\n        /* \"#utility.yul\":2568:2733   */\n    tag_29:\n        /* \"#utility.yul\":2708:2725   */\n      0x496e76616c69642072656c617965720000000000000000000000000000000000\n        /* \"#utility.yul\":2704:2705   */\n      0x00\n        /* \"#utility.yul\":2696:2702   */\n      dup3\n        /* \"#utility.yul\":2692:2706   */\n      add\n        /* \"#utility.yul\":2685:2726   */\n      mstore\n        /* \"#utility.yul\":2568:2733   */\n      pop\n      jump\t// out\n        /* \"#utility.yul\":2739:3105   */\n    tag_30:\n        /* \"#utility.yul\":2881:2884   */\n      0x00\n        /* \"#utility.yul\":2902:2969   */\n      tag_61\n        /* \"#utility.yul\":2966:2968   */\n      0x0f\n        /* \"#utility.yul\":2961:2964   */\n      dup4\n        /* \"#utility.yul\":2902:2969   */\n      tag_28\n      jump\t// in\n    tag_61:\n        /* \"#utility.yul\":2895:2969   */\n      swap2\n      pop\n        /* \"#utility.yul\":2978:3071   */\n      tag_62\n        /* \"#utility.yul\":3067:3070   */\n      dup3\n        /* \"#utility.yul\":2978:3071   */\n      tag_29\n      jump\t// in\n    tag_62:\n        /* \"#utility.yul\":3096:3098   */\n      0x20\n        /* \"#utility.yul\":3091:3094   */\n      dup3\n        /* \"#utility.yul\":3087:3099   */\n      add\n        /* \"#utility.yul\":3080:3099   */\n      swap1\n      pop\n        /* \"#utility.yul\":2739:3105   */\n      swap2\n      swap1\n      pop\n      jump\t// out\n        /* \"#utility.yul\":3111:3530   */\n    tag_16:\n        /* \"#utility.yul\":3277:3281   */\n      0x00\n        /* \"#utility.yul\":3315:3317   */\n      0x20\n        /* \"#utility.yul\":3304:3313   */\n      dup3\n        /* \"#utility.yul\":3300:3318   */\n      add\n        /* \"#utility.yul\":3292:3318   */\n      swap1\n      pop\n        /* \"#utility.yul\":3364:3373   */\n      dup2\n        /* \"#utility.yul\":3358:3362   */\n      dup2\n        /* \"#utility.yul\":3354:3374   */\n      sub\n        /* \"#utility.yul\":3350:3351   */\n      0x00\n        /* \"#utility.yul\":3339:3348   */\n      dup4\n        /* \"#utility.yul\":3335:3352   */\n      add\n        /* \"#utility.yul\":3328:3375   */\n      mstore\n        /* \"#utility.yul\":3392:3523   */\n      tag_64\n        /* \"#utility.yul\":3518:3522   */\n      dup2\n        /* \"#utility.yul\":3392:3523   */\n      tag_30\n      jump\t// in\n    tag_64:\n        /* \"#utility.yul\":3384:3523   */\n      swap1\n      pop\n        /* \"#utility.yul\":3111:3530   */\n      swap2\n      swap1\n      pop\n      jump\t// out\n\n    auxdata: 0xa2646970667358221220e9a8c56659359a0de1763ca66640c220c21f237cb7c0106d6154d65c8d3bd13064736f6c634300081a0033\n}\n",
				"bytecode": {
					"linkReferences": {},
					"object": "608060405234801561000f575f80fd5b506040516103ec3803806103ec833981810160405281019061003191906100d4565b805f806101000a81548173ffffffffffffffffffffffffffffffffffffffff021916908373ffffffffffffffffffffffffffffffffffffffff160217905550506100ff565b5f80fd5b5f73ffffffffffffffffffffffffffffffffffffffff82169050919050565b5f6100a38261007a565b9050919050565b6100b381610099565b81146100bd575f80fd5b50565b5f815190506100ce816100aa565b92915050565b5f602082840312156100e9576100e8610076565b5b5f6100f6848285016100c0565b91505092915050565b6102e08061010c5f395ff3fe608060405234801561000f575f80fd5b5060043610610034575f3560e01c80634ff746f6146100385780638596c22614610054575b5f80fd5b610052600480360381019061004d919061018f565b610072565b005b61005c610103565b6040516100699190610219565b60405180910390f35b5f8054906101000a900473ffffffffffffffffffffffffffffffffffffffff1673ffffffffffffffffffffffffffffffffffffffff163373ffffffffffffffffffffffffffffffffffffffff16146100ff576040517f08c379a00000000000000000000000000000000000000000000000000000000081526004016100f69061028c565b60405180910390fd5b5050565b5f8054906101000a900473ffffffffffffffffffffffffffffffffffffffff1681565b5f80fd5b5f80fd5b5f80fd5b5f80fd5b5f80fd5b5f8083601f84011261014f5761014e61012e565b5b8235905067ffffffffffffffff81111561016c5761016b610132565b5b60208301915083600182028301111561018857610187610136565b5b9250929050565b5f80602083850312156101a5576101a4610126565b5b5f83013567ffffffffffffffff8111156101c2576101c161012a565b5b6101ce8582860161013a565b92509250509250929050565b5f73ffffffffffffffffffffffffffffffffffffffff82169050919050565b5f610203826101da565b9050919050565b610213816101f9565b82525050565b5f60208201905061022c5f83018461020a565b92915050565b5f82825260208201905092915050565b7f496e76616c69642072656c6179657200000000000000000000000000000000005f82015250565b5f610276600f83610232565b915061028182610242565b602082019050919050565b5f6020820190508181035f8301526102a38161026a565b905091905056fea2646970667358221220e9a8c56659359a0de1763ca66640c220c21f237cb7c0106d6154d65c8d3bd13064736f6c634300081a0033",
					"opcodes": "PUSH1 0x80 PUSH1 0x40 MSTORE CALLVALUE DUP1 ISZERO PUSH2 0xF JUMPI PUSH0 DUP1 REVERT JUMPDEST POP PUSH1 0x40 MLOAD PUSH2 0x3EC CODESIZE SUB DUP1 PUSH2 0x3EC DUP4 CODECOPY DUP2 DUP2 ADD PUSH1 0x40 MSTORE DUP2 ADD SWAP1 PUSH2 0x31 SWAP2 SWAP1 PUSH2 0xD4 JUMP JUMPDEST DUP1 PUSH0 DUP1 PUSH2 0x100 EXP DUP2 SLOAD DUP2 PUSH20 0xFFFFFFFFFFFFFFFFFFFFFFFFFFFFFFFFFFFFFFFF MUL NOT AND SWAP1 DUP4 PUSH20 0xFFFFFFFFFFFFFFFFFFFFFFFFFFFFFFFFFFFFFFFF AND MUL OR SWAP1 SSTORE POP POP PUSH2 0xFF JUMP JUMPDEST PUSH0 DUP1 REVERT JUMPDEST PUSH0 PUSH20 0xFFFFFFFFFFFFFFFFFFFFFFFFFFFFFFFFFFFFFFFF DUP3 AND SWAP1 POP SWAP2 SWAP1 POP JUMP JUMPDEST PUSH0 PUSH2 0xA3 DUP3 PUSH2 0x7A JUMP JUMPDEST SWAP1 POP SWAP2 SWAP1 POP JUMP JUMPDEST PUSH2 0xB3 DUP2 PUSH2 0x99 JUMP JUMPDEST DUP2 EQ PUSH2 0xBD JUMPI PUSH0 DUP1 REVERT JUMPDEST POP JUMP JUMPDEST PUSH0 DUP2 MLOAD SWAP1 POP PUSH2 0xCE DUP2 PUSH2 0xAA JUMP JUMPDEST SWAP3 SWAP2 POP POP JUMP JUMPDEST PUSH0 PUSH1 0x20 DUP3 DUP5 SUB SLT ISZERO PUSH2 0xE9 JUMPI PUSH2 0xE8 PUSH2 0x76 JUMP JUMPDEST JUMPDEST PUSH0 PUSH2 0xF6 DUP5 DUP3 DUP6 ADD PUSH2 0xC0 JUMP JUMPDEST SWAP2 POP POP SWAP3 SWAP2 POP POP JUMP JUMPDEST PUSH2 0x2E0 DUP1 PUSH2 0x10C PUSH0 CODECOPY PUSH0 RETURN INVALID PUSH1 0x80 PUSH1 0x40 MSTORE CALLVALUE DUP1 ISZERO PUSH2 0xF JUMPI PUSH0 DUP1 REVERT JUMPDEST POP PUSH1 0x4 CALLDATASIZE LT PUSH2 0x34 JUMPI PUSH0 CALLDATALOAD PUSH1 0xE0 SHR DUP1 PUSH4 0x4FF746F6 EQ PUSH2 0x38 JUMPI DUP1 PUSH4 0x8596C226 EQ PUSH2 0x54 JUMPI JUMPDEST PUSH0 DUP1 REVERT JUMPDEST PUSH2 0x52 PUSH1 0x4 DUP1 CALLDATASIZE SUB DUP2 ADD SWAP1 PUSH2 0x4D SWAP2 SWAP1 PUSH2 0x18F JUMP JUMPDEST PUSH2 0x72 JUMP JUMPDEST STOP JUMPDEST PUSH2 0x5C PUSH2 0x103 JUMP JUMPDEST PUSH1 0x40 MLOAD PUSH2 0x69 SWAP2 SWAP1 PUSH2 0x219 JUMP JUMPDEST PUSH1 0x40 MLOAD DUP1 SWAP2 SUB SWAP1 RETURN JUMPDEST PUSH0 DUP1 SLOAD SWAP1 PUSH2 0x100 EXP SWAP1 DIV PUSH20 0xFFFFFFFFFFFFFFFFFFFFFFFFFFFFFFFFFFFFFFFF AND PUSH20 0xFFFFFFFFFFFFFFFFFFFFFFFFFFFFFFFFFFFFFFFF AND CALLER PUSH20 0xFFFFFFFFFFFFFFFFFFFFFFFFFFFFFFFFFFFFFFFF AND EQ PUSH2 0xFF JUMPI PUSH1 0x40 MLOAD PUSH32 0x8C379A000000000000000000000000000000000000000000000000000000000 DUP2 MSTORE PUSH1 0x4 ADD PUSH2 0xF6 SWAP1 PUSH2 0x28C JUMP JUMPDEST PUSH1 0x40 MLOAD DUP1 SWAP2 SUB SWAP1 REVERT JUMPDEST POP POP JUMP JUMPDEST PUSH0 DUP1 SLOAD SWAP1 PUSH2 0x100 EXP SWAP1 DIV PUSH20 0xFFFFFFFFFFFFFFFFFFFFFFFFFFFFFFFFFFFFFFFF AND DUP2 JUMP JUMPDEST PUSH0 DUP1 REVERT JUMPDEST PUSH0 DUP1 REVERT JUMPDEST PUSH0 DUP1 REVERT JUMPDEST PUSH0 DUP1 REVERT JUMPDEST PUSH0 DUP1 REVERT JUMPDEST PUSH0 DUP1 DUP4 PUSH1 0x1F DUP5 ADD SLT PUSH2 0x14F JUMPI PUSH2 0x14E PUSH2 0x12E JUMP JUMPDEST JUMPDEST DUP3 CALLDATALOAD SWAP1 POP PUSH8 0xFFFFFFFFFFFFFFFF DUP2 GT ISZERO PUSH2 0x16C JUMPI PUSH2 0x16B PUSH2 0x132 JUMP JUMPDEST JUMPDEST PUSH1 0x20 DUP4 ADD SWAP2 POP DUP4 PUSH1 0x1 DUP3 MUL DUP4 ADD GT ISZERO PUSH2 0x188 JUMPI PUSH2 0x187 PUSH2 0x136 JUMP JUMPDEST JUMPDEST SWAP3 POP SWAP3 SWAP1 POP JUMP JUMPDEST PUSH0 DUP1 PUSH1 0x20 DUP4 DUP6 SUB SLT ISZERO PUSH2 0x1A5 JUMPI PUSH2 0x1A4 PUSH2 0x126 JUMP JUMPDEST JUMPDEST PUSH0 DUP4 ADD CALLDATALOAD PUSH8 0xFFFFFFFFFFFFFFFF DUP2 GT ISZERO PUSH2 0x1C2 JUMPI PUSH2 0x1C1 PUSH2 0x12A JUMP JUMPDEST JUMPDEST PUSH2 0x1CE DUP6 DUP3 DUP7 ADD PUSH2 0x13A JUMP JUMPDEST SWAP3 POP SWAP3 POP POP SWAP3 POP SWAP3 SWAP1 POP JUMP JUMPDEST PUSH0 PUSH20 0xFFFFFFFFFFFFFFFFFFFFFFFFFFFFFFFFFFFFFFFF DUP3 AND SWAP1 POP SWAP2 SWAP1 POP JUMP JUMPDEST PUSH0 PUSH2 0x203 DUP3 PUSH2 0x1DA JUMP JUMPDEST SWAP1 POP SWAP2 SWAP1 POP JUMP JUMPDEST PUSH2 0x213 DUP2 PUSH2 0x1F9 JUMP JUMPDEST DUP3 MSTORE POP POP JUMP JUMPDEST PUSH0 PUSH1 0x20 DUP3 ADD SWAP1 POP PUSH2 0x22C PUSH0 DUP4 ADD DUP5 PUSH2 0x20A JUMP JUMPDEST SWAP3 SWAP2 POP POP JUMP JUMPDEST PUSH0 DUP3 DUP3 MSTORE PUSH1 0x20 DUP3 ADD SWAP1 POP SWAP3 SWAP2 POP POP JUMP JUMPDEST PUSH32 0x496E76616C69642072656C617965720000000000000000000000000000000000 PUSH0 DUP3 ADD MSTORE POP JUMP JUMPDEST PUSH0 PUSH2 0x276 PUSH1 0xF DUP4 PUSH2 0x232 JUMP JUMPDEST SWAP2 POP PUSH2 0x281 DUP3 PUSH2 0x242 JUMP JUMPDEST PUSH1 0x20 DUP3 ADD SWAP1 POP SWAP2 SWAP1 POP JUMP JUMPDEST PUSH0 PUSH1 0x20 DUP3 ADD SWAP1 POP DUP2 DUP2 SUB PUSH0 DUP4 ADD MSTORE PUSH2 0x2A3 DUP2 PUSH2 0x26A JUMP JUMPDEST SWAP1 POP SWAP2 SWAP1 POP JUMP INVALID LOG2 PUSH5 0x6970667358 0x22 SLT KECCAK256 0xE9 0xA8 0xC5 PUSH7 0x59359A0DE1763C 0xA6 PUSH7 0x40C220C21F237C 0xB7 0xC0 LT PUSH14 0x6154D65C8D3BD13064736F6C6343 STOP ADDMOD BYTE STOP CALLER "
				},
				"gasEstimates": {
					"creation": {
						"codeDepositCost": "147200",
						"executionCost": "infinite",
						"totalCost": "infinite"
					},
					"external": {
						"processMessage(bytes)": "2894",
						"trustedRelayer()": "2505"
					}
				},
				"methodIdentifiers": {
					"processMessage(bytes)": "4ff746f6",
					"trustedRelayer()": "8596c226"
				}
			},
			"storageLayout": {
				"storage": [
					{
						"astId": 2,
						"contract": "I/Ingress Filtering/Cross-Chain Filtering by Origin Proof.sol:CrossChainIngress",
						"label": "trustedRelayer",
						"offset": 0,
						"slot": "0",
						"type": "t_address"
					}
				],
				"types": {
					"t_address": {
						"encoding": "inplace",
						"label": "address",
						"numberOfBytes": "20"
					}
				}
			},
			"userdoc": {
				"kind": "user",
				"methods": {},
				"version": 1
			}
		}
	}
}