{
	"K/Kernel/Governance Kernel (DAO Core Layer).sol": {
		"GovernanceKernel": {
			"abi": [
				{
					"inputs": [
						{
							"internalType": "uint256",
							"name": "id",
							"type": "uint256"
						}
					],
					"name": "execute",
					"outputs": [],
					"stateMutability": "nonpayable",
					"type": "function"
				},
				{
					"inputs": [],
					"name": "proposalId",
					"outputs": [
						{
							"internalType": "uint256",
							"name": "",
							"type": "uint256"
						}
					],
					"stateMutability": "view",
					"type": "function"
				},
				{
					"inputs": [
						{
							"internalType": "uint256",
							"name": "",
							"type": "uint256"
						}
					],
					"name": "proposals",
					"outputs": [
						{
							"internalType": "string",
							"name": "description",
							"type": "string"
						},
						{
							"internalType": "uint256",
							"name": "voteCount",
							"type": "uint256"
						},
						{
							"internalType": "bool",
							"name": "executed",
							"type": "bool"
						}
					],
					"stateMutability": "view",
					"type": "function"
				},
				{
					"inputs": [
						{
							"internalType": "string",
							"name": "description",
							"type": "string"
						}
					],
					"name": "propose",
					"outputs": [],
					"stateMutability": "nonpayable",
					"type": "function"
				},
				{
					"inputs": [
						{
							"internalType": "uint256",
							"name": "id",
							"type": "uint256"
						}
					],
					"name": "vote",
					"outputs": [],
					"stateMutability": "nonpayable",
					"type": "function"
				}
			],
			"devdoc": {
				"kind": "dev",
				"methods": {},
				"version": 1
			},
			"evm": {
				"assembly": "    /* \"K/Kernel/Governance Kernel (DAO Core Layer).sol\":26:676  contract GovernanceKernel {... */\n  mstore(0x40, 0x80)\n  callvalue\n  dup1\n  iszero\n  tag_1\n  jumpi\n  0x00\n  dup1\n  revert\ntag_1:\n  pop\n  dataSize(sub_0)\n  dup1\n  dataOffset(sub_0)\n  0x00\n  codecopy\n  0x00\n  return\nstop\n\nsub_0: assembly {\n        /* \"K/Kernel/Governance Kernel (DAO Core Layer).sol\":26:676  contract GovernanceKernel {... */\n      mstore(0x40, 0x80)\n      callvalue\n      dup1\n      iszero\n      tag_1\n      jumpi\n      0x00\n      dup1\n      revert\n    tag_1:\n      pop\n      jumpi(tag_2, lt(calldatasize, 0x04))\n      shr(0xe0, calldataload(0x00))\n      dup1\n      0x0121b93f\n      eq\n      tag_3\n      jumpi\n      dup1\n      0x013cf08b\n      eq\n      tag_4\n      jumpi\n      dup1\n      0x2dfca445\n      eq\n      tag_5\n      jumpi\n      dup1\n      0xaa98df39\n      eq\n      tag_6\n      jumpi\n      dup1\n      0xfe0d94c1\n      eq\n      tag_7\n      jumpi\n    tag_2:\n      0x00\n      dup1\n      revert\n        /* \"K/Kernel/Governance Kernel (DAO Core Layer).sol\":381:458  function vote(uint256 id) external {... */\n    tag_3:\n      tag_8\n      0x04\n      dup1\n      calldatasize\n      sub\n      dup2\n      add\n      swap1\n      tag_9\n      swap2\n      swap1\n      tag_10\n      jump\t// in\n    tag_9:\n      tag_11\n      jump\t// in\n    tag_8:\n      stop\n        /* \"K/Kernel/Governance Kernel (DAO Core Layer).sol\":165:210  mapping(uint256 => Proposal) public proposals */\n    tag_4:\n      tag_12\n      0x04\n      dup1\n      calldatasize\n      sub\n      dup2\n      add\n      swap1\n      tag_13\n      swap2\n      swap1\n      tag_10\n      jump\t// in\n    tag_13:\n      tag_14\n      jump\t// in\n    tag_12:\n      mload(0x40)\n      tag_15\n      swap4\n      swap3\n      swap2\n      swap1\n      tag_16\n      jump\t// in\n    tag_15:\n      mload(0x40)\n      dup1\n      swap2\n      sub\n      swap1\n      return\n        /* \"K/Kernel/Governance Kernel (DAO Core Layer).sol\":216:241  uint256 public proposalId */\n    tag_5:\n      tag_17\n      tag_18\n      jump\t// in\n    tag_17:\n      mload(0x40)\n      tag_19\n      swap2\n      swap1\n      tag_20\n      jump\t// in\n    tag_19:\n      mload(0x40)\n      dup1\n      swap2\n      sub\n      swap1\n      return\n        /* \"K/Kernel/Governance Kernel (DAO Core Layer).sol\":248:375  function propose(string memory description) external {... */\n    tag_6:\n      tag_21\n      0x04\n      dup1\n      calldatasize\n      sub\n      dup2\n      add\n      swap1\n      tag_22\n      swap2\n      swap1\n      tag_23\n      jump\t// in\n    tag_22:\n      tag_24\n      jump\t// in\n    tag_21:\n      stop\n        /* \"K/Kernel/Governance Kernel (DAO Core Layer).sol\":464:674  function execute(uint256 id) external {... */\n    tag_7:\n      tag_25\n      0x04\n      dup1\n      calldatasize\n      sub\n      dup2\n      add\n      swap1\n      tag_26\n      swap2\n      swap1\n      tag_10\n      jump\t// in\n    tag_26:\n      tag_27\n      jump\t// in\n    tag_25:\n      stop\n        /* \"K/Kernel/Governance Kernel (DAO Core Layer).sol\":381:458  function vote(uint256 id) external {... */\n    tag_11:\n        /* \"K/Kernel/Governance Kernel (DAO Core Layer).sol\":426:435  proposals */\n      0x00\n        /* \"K/Kernel/Governance Kernel (DAO Core Layer).sol\":426:439  proposals[id] */\n      dup1\n        /* \"K/Kernel/Governance Kernel (DAO Core Layer).sol\":436:438  id */\n      dup3\n        /* \"K/Kernel/Governance Kernel (DAO Core Layer).sol\":426:439  proposals[id] */\n      dup2\n      mstore\n      0x20\n      add\n      swap1\n      dup2\n      mstore\n      0x20\n      add\n      0x00\n      keccak256\n        /* \"K/Kernel/Governance Kernel (DAO Core Layer).sol\":426:449  proposals[id].voteCount */\n      0x01\n      add\n      0x00\n        /* \"K/Kernel/Governance Kernel (DAO Core Layer).sol\":426:451  proposals[id].voteCount++ */\n      dup2\n      sload\n      dup1\n      swap3\n      swap2\n      swap1\n      tag_29\n      swap1\n      tag_30\n      jump\t// in\n    tag_29:\n      swap2\n      swap1\n      pop\n      sstore\n      pop\n        /* \"K/Kernel/Governance Kernel (DAO Core Layer).sol\":381:458  function vote(uint256 id) external {... */\n      pop\n      jump\t// out\n        /* \"K/Kernel/Governance Kernel (DAO Core Layer).sol\":165:210  mapping(uint256 => Proposal) public proposals */\n    tag_14:\n      mstore(0x20, 0x00)\n      dup1\n      0x00\n      mstore\n      keccak256(0x00, 0x40)\n      0x00\n      swap2\n      pop\n      swap1\n      pop\n      dup1\n      0x00\n      add\n      dup1\n      sload\n      tag_31\n      swap1\n      tag_32\n      jump\t// in\n    tag_31:\n      dup1\n      0x1f\n      add\n      0x20\n      dup1\n      swap2\n      div\n      mul\n      0x20\n      add\n      mload(0x40)\n      swap1\n      dup2\n      add\n      0x40\n      mstore\n      dup1\n      swap3\n      swap2\n      swap1\n      dup2\n      dup2\n      mstore\n      0x20\n      add\n      dup3\n      dup1\n      sload\n      tag_33\n      swap1\n      tag_32\n      jump\t// in\n    tag_33:\n      dup1\n      iszero\n      tag_34\n      jumpi\n      dup1\n      0x1f\n      lt\n      tag_35\n      jumpi\n      0x0100\n      dup1\n      dup4\n      sload\n      div\n      mul\n      dup4\n      mstore\n      swap2\n      0x20\n      add\n      swap2\n      jump(tag_34)\n    tag_35:\n      dup3\n      add\n      swap2\n      swap1\n      0x00\n      mstore\n      keccak256(0x00, 0x20)\n      swap1\n    tag_36:\n      dup2\n      sload\n      dup2\n      mstore\n      swap1\n      0x01\n      add\n      swap1\n      0x20\n      add\n      dup1\n      dup4\n      gt\n      tag_36\n      jumpi\n      dup3\n      swap1\n      sub\n      0x1f\n      and\n      dup3\n      add\n      swap2\n    tag_34:\n      pop\n      pop\n      pop\n      pop\n      pop\n      swap1\n      dup1\n      0x01\n      add\n      sload\n      swap1\n      dup1\n      0x02\n      add\n      0x00\n      swap1\n      sload\n      swap1\n      0x0100\n      exp\n      swap1\n      div\n      0xff\n      and\n      swap1\n      pop\n      dup4\n      jump\t// out\n        /* \"K/Kernel/Governance Kernel (DAO Core Layer).sol\":216:241  uint256 public proposalId */\n    tag_18:\n      sload(0x01)\n      dup2\n      jump\t// out\n        /* \"K/Kernel/Governance Kernel (DAO Core Layer).sol\":248:375  function propose(string memory description) external {... */\n    tag_24:\n        /* \"K/Kernel/Governance Kernel (DAO Core Layer).sol\":337:368  Proposal(description, 0, false) */\n      mload(0x40)\n      dup1\n      0x60\n      add\n      0x40\n      mstore\n      dup1\n        /* \"K/Kernel/Governance Kernel (DAO Core Layer).sol\":346:357  description */\n      dup3\n        /* \"K/Kernel/Governance Kernel (DAO Core Layer).sol\":337:368  Proposal(description, 0, false) */\n      dup2\n      mstore\n      0x20\n      add\n        /* \"K/Kernel/Governance Kernel (DAO Core Layer).sol\":359:360  0 */\n      0x00\n        /* \"K/Kernel/Governance Kernel (DAO Core Layer).sol\":337:368  Proposal(description, 0, false) */\n      dup2\n      mstore\n      0x20\n      add\n        /* \"K/Kernel/Governance Kernel (DAO Core Layer).sol\":362:367  false */\n      0x00\n        /* \"K/Kernel/Governance Kernel (DAO Core Layer).sol\":337:368  Proposal(description, 0, false) */\n      iszero\n      iszero\n      dup2\n      mstore\n      pop\n        /* \"K/Kernel/Governance Kernel (DAO Core Layer).sol\":311:320  proposals */\n      0x00\n        /* \"K/Kernel/Governance Kernel (DAO Core Layer).sol\":311:334  proposals[proposalId++] */\n      dup1\n        /* \"K/Kernel/Governance Kernel (DAO Core Layer).sol\":321:331  proposalId */\n      0x01\n      0x00\n        /* \"K/Kernel/Governance Kernel (DAO Core Layer).sol\":321:333  proposalId++ */\n      dup2\n      sload\n      dup1\n      swap3\n      swap2\n      swap1\n      tag_38\n      swap1\n      tag_30\n      jump\t// in\n    tag_38:\n      swap2\n      swap1\n      pop\n      sstore\n        /* \"K/Kernel/Governance Kernel (DAO Core Layer).sol\":311:334  proposals[proposalId++] */\n      dup2\n      mstore\n      0x20\n      add\n      swap1\n      dup2\n      mstore\n      0x20\n      add\n      0x00\n      keccak256\n        /* \"K/Kernel/Governance Kernel (DAO Core Layer).sol\":311:368  proposals[proposalId++] = Proposal(description, 0, false) */\n      0x00\n      dup3\n      add\n      mload\n      dup2\n      0x00\n      add\n      swap1\n      dup2\n      tag_39\n      swap2\n      swap1\n      tag_40\n      jump\t// in\n    tag_39:\n      pop\n      0x20\n      dup3\n      add\n      mload\n      dup2\n      0x01\n      add\n      sstore\n      0x40\n      dup3\n      add\n      mload\n      dup2\n      0x02\n      add\n      exp(0x0100, 0x00)\n      dup2\n      sload\n      dup2\n      0xff\n      mul\n      not\n      and\n      swap1\n      dup4\n      iszero\n      iszero\n      mul\n      or\n      swap1\n      sstore\n      pop\n      swap1\n      pop\n      pop\n        /* \"K/Kernel/Governance Kernel (DAO Core Layer).sol\":248:375  function propose(string memory description) external {... */\n      pop\n      jump\t// out\n        /* \"K/Kernel/Governance Kernel (DAO Core Layer).sol\":464:674  function execute(uint256 id) external {... */\n    tag_27:\n        /* \"K/Kernel/Governance Kernel (DAO Core Layer).sol\":512:530  Proposal storage p */\n      0x00\n        /* \"K/Kernel/Governance Kernel (DAO Core Layer).sol\":533:542  proposals */\n      dup1\n        /* \"K/Kernel/Governance Kernel (DAO Core Layer).sol\":533:546  proposals[id] */\n      0x00\n        /* \"K/Kernel/Governance Kernel (DAO Core Layer).sol\":543:545  id */\n      dup4\n        /* \"K/Kernel/Governance Kernel (DAO Core Layer).sol\":533:546  proposals[id] */\n      dup2\n      mstore\n      0x20\n      add\n      swap1\n      dup2\n      mstore\n      0x20\n      add\n      0x00\n      keccak256\n        /* \"K/Kernel/Governance Kernel (DAO Core Layer).sol\":512:546  Proposal storage p = proposals[id] */\n      swap1\n      pop\n        /* \"K/Kernel/Governance Kernel (DAO Core Layer).sol\":565:566  p */\n      dup1\n        /* \"K/Kernel/Governance Kernel (DAO Core Layer).sol\":565:575  p.executed */\n      0x02\n      add\n      0x00\n      swap1\n      sload\n      swap1\n      0x0100\n      exp\n      swap1\n      div\n      0xff\n      and\n        /* \"K/Kernel/Governance Kernel (DAO Core Layer).sol\":564:575  !p.executed */\n      iszero\n        /* \"K/Kernel/Governance Kernel (DAO Core Layer).sol\":564:595  !p.executed && p.voteCount >= 3 */\n      dup1\n      iszero\n      tag_42\n      jumpi\n      pop\n        /* \"K/Kernel/Governance Kernel (DAO Core Layer).sol\":594:595  3 */\n      0x03\n        /* \"K/Kernel/Governance Kernel (DAO Core Layer).sol\":579:580  p */\n      dup2\n        /* \"K/Kernel/Governance Kernel (DAO Core Layer).sol\":579:590  p.voteCount */\n      0x01\n      add\n      sload\n        /* \"K/Kernel/Governance Kernel (DAO Core Layer).sol\":579:595  p.voteCount >= 3 */\n      lt\n      iszero\n        /* \"K/Kernel/Governance Kernel (DAO Core Layer).sol\":564:595  !p.executed && p.voteCount >= 3 */\n    tag_42:\n        /* \"K/Kernel/Governance Kernel (DAO Core Layer).sol\":556:609  require(!p.executed && p.voteCount >= 3, \"Not ready\") */\n      tag_43\n      jumpi\n      mload(0x40)\n      0x08c379a000000000000000000000000000000000000000000000000000000000\n      dup2\n      mstore\n      0x04\n      add\n      tag_44\n      swap1\n      tag_45\n      jump\t// in\n    tag_44:\n      mload(0x40)\n      dup1\n      swap2\n      sub\n      swap1\n      revert\n    tag_43:\n        /* \"K/Kernel/Governance Kernel (DAO Core Layer).sol\":632:636  true */\n      0x01\n        /* \"K/Kernel/Governance Kernel (DAO Core Layer).sol\":619:620  p */\n      dup2\n        /* \"K/Kernel/Governance Kernel (DAO Core Layer).sol\":619:629  p.executed */\n      0x02\n      add\n      0x00\n        /* \"K/Kernel/Governance Kernel (DAO Core Layer).sol\":619:636  p.executed = true */\n      0x0100\n      exp\n      dup2\n      sload\n      dup2\n      0xff\n      mul\n      not\n      and\n      swap1\n      dup4\n      iszero\n      iszero\n      mul\n      or\n      swap1\n      sstore\n      pop\n        /* \"K/Kernel/Governance Kernel (DAO Core Layer).sol\":502:674  {... */\n      pop\n        /* \"K/Kernel/Governance Kernel (DAO Core Layer).sol\":464:674  function execute(uint256 id) external {... */\n      pop\n      jump\t// out\n        /* \"#utility.yul\":7:82   */\n    tag_46:\n        /* \"#utility.yul\":40:46   */\n      0x00\n        /* \"#utility.yul\":73:75   */\n      0x40\n        /* \"#utility.yul\":67:76   */\n      mload\n        /* \"#utility.yul\":57:76   */\n      swap1\n      pop\n        /* \"#utility.yul\":7:82   */\n      swap1\n      jump\t// out\n        /* \"#utility.yul\":88:205   */\n    tag_47:\n        /* \"#utility.yul\":197:198   */\n      0x00\n        /* \"#utility.yul\":194:195   */\n      dup1\n        /* \"#utility.yul\":187:199   */\n      revert\n        /* \"#utility.yul\":211:328   */\n    tag_48:\n        /* \"#utility.yul\":320:321   */\n      0x00\n        /* \"#utility.yul\":317:318   */\n      dup1\n        /* \"#utility.yul\":310:322   */\n      revert\n        /* \"#utility.yul\":334:411   */\n    tag_49:\n        /* \"#utility.yul\":371:378   */\n      0x00\n        /* \"#utility.yul\":400:405   */\n      dup2\n        /* \"#utility.yul\":389:405   */\n      swap1\n      pop\n        /* \"#utility.yul\":334:411   */\n      swap2\n      swap1\n      pop\n      jump\t// out\n        /* \"#utility.yul\":417:539   */\n    tag_50:\n        /* \"#utility.yul\":490:514   */\n      tag_94\n        /* \"#utility.yul\":508:513   */\n      dup2\n        /* \"#utility.yul\":490:514   */\n      tag_49\n      jump\t// in\n    tag_94:\n        /* \"#utility.yul\":483:488   */\n      dup2\n        /* \"#utility.yul\":480:515   */\n      eq\n        /* \"#utility.yul\":470:533   */\n      tag_95\n      jumpi\n        /* \"#utility.yul\":529:530   */\n      0x00\n        /* \"#utility.yul\":526:527   */\n      dup1\n        /* \"#utility.yul\":519:531   */\n      revert\n        /* \"#utility.yul\":470:533   */\n    tag_95:\n        /* \"#utility.yul\":417:539   */\n      pop\n      jump\t// out\n        /* \"#utility.yul\":545:684   */\n    tag_51:\n        /* \"#utility.yul\":591:596   */\n      0x00\n        /* \"#utility.yul\":629:635   */\n      dup2\n        /* \"#utility.yul\":616:636   */\n      calldataload\n        /* \"#utility.yul\":607:636   */\n      swap1\n      pop\n        /* \"#utility.yul\":645:678   */\n      tag_97\n        /* \"#utility.yul\":672:677   */\n      dup2\n        /* \"#utility.yul\":645:678   */\n      tag_50\n      jump\t// in\n    tag_97:\n        /* \"#utility.yul\":545:684   */\n      swap3\n      swap2\n      pop\n      pop\n      jump\t// out\n        /* \"#utility.yul\":690:1019   */\n    tag_10:\n        /* \"#utility.yul\":749:755   */\n      0x00\n        /* \"#utility.yul\":798:800   */\n      0x20\n        /* \"#utility.yul\":786:795   */\n      dup3\n        /* \"#utility.yul\":777:784   */\n      dup5\n        /* \"#utility.yul\":773:796   */\n      sub\n        /* \"#utility.yul\":769:801   */\n      slt\n        /* \"#utility.yul\":766:885   */\n      iszero\n      tag_99\n      jumpi\n        /* \"#utility.yul\":804:883   */\n      tag_100\n      tag_47\n      jump\t// in\n    tag_100:\n        /* \"#utility.yul\":766:885   */\n    tag_99:\n        /* \"#utility.yul\":924:925   */\n      0x00\n        /* \"#utility.yul\":949:1002   */\n      tag_101\n        /* \"#utility.yul\":994:1001   */\n      dup5\n        /* \"#utility.yul\":985:991   */\n      dup3\n        /* \"#utility.yul\":974:983   */\n      dup6\n        /* \"#utility.yul\":970:992   */\n      add\n        /* \"#utility.yul\":949:1002   */\n      tag_51\n      jump\t// in\n    tag_101:\n        /* \"#utility.yul\":939:1002   */\n      swap2\n      pop\n        /* \"#utility.yul\":895:1012   */\n      pop\n        /* \"#utility.yul\":690:1019   */\n      swap3\n      swap2\n      pop\n      pop\n      jump\t// out\n        /* \"#utility.yul\":1025:1124   */\n    tag_52:\n        /* \"#utility.yul\":1077:1083   */\n      0x00\n        /* \"#utility.yul\":1111:1116   */\n      dup2\n        /* \"#utility.yul\":1105:1117   */\n      mload\n        /* \"#utility.yul\":1095:1117   */\n      swap1\n      pop\n        /* \"#utility.yul\":1025:1124   */\n      swap2\n      swap1\n      pop\n      jump\t// out\n        /* \"#utility.yul\":1130:1299   */\n    tag_53:\n        /* \"#utility.yul\":1214:1225   */\n      0x00\n        /* \"#utility.yul\":1248:1254   */\n      dup3\n        /* \"#utility.yul\":1243:1246   */\n      dup3\n        /* \"#utility.yul\":1236:1255   */\n      mstore\n        /* \"#utility.yul\":1288:1292   */\n      0x20\n        /* \"#utility.yul\":1283:1286   */\n      dup3\n        /* \"#utility.yul\":1279:1293   */\n      add\n        /* \"#utility.yul\":1264:1293   */\n      swap1\n      pop\n        /* \"#utility.yul\":1130:1299   */\n      swap3\n      swap2\n      pop\n      pop\n      jump\t// out\n        /* \"#utility.yul\":1305:1444   */\n    tag_54:\n        /* \"#utility.yul\":1394:1400   */\n      dup3\n        /* \"#utility.yul\":1389:1392   */\n      dup2\n        /* \"#utility.yul\":1384:1387   */\n      dup4\n        /* \"#utility.yul\":1378:1401   */\n      mcopy\n        /* \"#utility.yul\":1435:1436   */\n      0x00\n        /* \"#utility.yul\":1426:1432   */\n      dup4\n        /* \"#utility.yul\":1421:1424   */\n      dup4\n        /* \"#utility.yul\":1417:1433   */\n      add\n        /* \"#utility.yul\":1410:1437   */\n      mstore\n        /* \"#utility.yul\":1305:1444   */\n      pop\n      pop\n      pop\n      jump\t// out\n        /* \"#utility.yul\":1450:1552   */\n    tag_55:\n        /* \"#utility.yul\":1491:1497   */\n      0x00\n        /* \"#utility.yul\":1542:1544   */\n      0x1f\n        /* \"#utility.yul\":1538:1545   */\n      not\n        /* \"#utility.yul\":1533:1535   */\n      0x1f\n        /* \"#utility.yul\":1526:1531   */\n      dup4\n        /* \"#utility.yul\":1522:1536   */\n      add\n        /* \"#utility.yul\":1518:1546   */\n      and\n        /* \"#utility.yul\":1508:1546   */\n      swap1\n      pop\n        /* \"#utility.yul\":1450:1552   */\n      swap2\n      swap1\n      pop\n      jump\t// out\n        /* \"#utility.yul\":1558:1935   */\n    tag_56:\n        /* \"#utility.yul\":1646:1649   */\n      0x00\n        /* \"#utility.yul\":1674:1713   */\n      tag_107\n        /* \"#utility.yul\":1707:1712   */\n      dup3\n        /* \"#utility.yul\":1674:1713   */\n      tag_52\n      jump\t// in\n    tag_107:\n        /* \"#utility.yul\":1729:1800   */\n      tag_108\n        /* \"#utility.yul\":1793:1799   */\n      dup2\n        /* \"#utility.yul\":1788:1791   */\n      dup6\n        /* \"#utility.yul\":1729:1800   */\n      tag_53\n      jump\t// in\n    tag_108:\n        /* \"#utility.yul\":1722:1800   */\n      swap4\n      pop\n        /* \"#utility.yul\":1809:1874   */\n      tag_109\n        /* \"#utility.yul\":1867:1873   */\n      dup2\n        /* \"#utility.yul\":1862:1865   */\n      dup6\n        /* \"#utility.yul\":1855:1859   */\n      0x20\n        /* \"#utility.yul\":1848:1853   */\n      dup7\n        /* \"#utility.yul\":1844:1860   */\n      add\n        /* \"#utility.yul\":1809:1874   */\n      tag_54\n      jump\t// in\n    tag_109:\n        /* \"#utility.yul\":1899:1928   */\n      tag_110\n        /* \"#utility.yul\":1921:1927   */\n      dup2\n        /* \"#utility.yul\":1899:1928   */\n      tag_55\n      jump\t// in\n    tag_110:\n        /* \"#utility.yul\":1894:1897   */\n      dup5\n        /* \"#utility.yul\":1890:1929   */\n      add\n        /* \"#utility.yul\":1883:1929   */\n      swap2\n      pop\n        /* \"#utility.yul\":1650:1935   */\n      pop\n        /* \"#utility.yul\":1558:1935   */\n      swap3\n      swap2\n      pop\n      pop\n      jump\t// out\n        /* \"#utility.yul\":1941:2059   */\n    tag_57:\n        /* \"#utility.yul\":2028:2052   */\n      tag_112\n        /* \"#utility.yul\":2046:2051   */\n      dup2\n        /* \"#utility.yul\":2028:2052   */\n      tag_49\n      jump\t// in\n    tag_112:\n        /* \"#utility.yul\":2023:2026   */\n      dup3\n        /* \"#utility.yul\":2016:2053   */\n      mstore\n        /* \"#utility.yul\":1941:2059   */\n      pop\n      pop\n      jump\t// out\n        /* \"#utility.yul\":2065:2155   */\n    tag_58:\n        /* \"#utility.yul\":2099:2106   */\n      0x00\n        /* \"#utility.yul\":2142:2147   */\n      dup2\n        /* \"#utility.yul\":2135:2148   */\n      iszero\n        /* \"#utility.yul\":2128:2149   */\n      iszero\n        /* \"#utility.yul\":2117:2149   */\n      swap1\n      pop\n        /* \"#utility.yul\":2065:2155   */\n      swap2\n      swap1\n      pop\n      jump\t// out\n        /* \"#utility.yul\":2161:2270   */\n    tag_59:\n        /* \"#utility.yul\":2242:2263   */\n      tag_115\n        /* \"#utility.yul\":2257:2262   */\n      dup2\n        /* \"#utility.yul\":2242:2263   */\n      tag_58\n      jump\t// in\n    tag_115:\n        /* \"#utility.yul\":2237:2240   */\n      dup3\n        /* \"#utility.yul\":2230:2264   */\n      mstore\n        /* \"#utility.yul\":2161:2270   */\n      pop\n      pop\n      jump\t// out\n        /* \"#utility.yul\":2276:2797   */\n    tag_16:\n        /* \"#utility.yul\":2439:2443   */\n      0x00\n        /* \"#utility.yul\":2477:2479   */\n      0x60\n        /* \"#utility.yul\":2466:2475   */\n      dup3\n        /* \"#utility.yul\":2462:2480   */\n      add\n        /* \"#utility.yul\":2454:2480   */\n      swap1\n      pop\n        /* \"#utility.yul\":2526:2535   */\n      dup2\n        /* \"#utility.yul\":2520:2524   */\n      dup2\n        /* \"#utility.yul\":2516:2536   */\n      sub\n        /* \"#utility.yul\":2512:2513   */\n      0x00\n        /* \"#utility.yul\":2501:2510   */\n      dup4\n        /* \"#utility.yul\":2497:2514   */\n      add\n        /* \"#utility.yul\":2490:2537   */\n      mstore\n        /* \"#utility.yul\":2554:2632   */\n      tag_117\n        /* \"#utility.yul\":2627:2631   */\n      dup2\n        /* \"#utility.yul\":2618:2624   */\n      dup7\n        /* \"#utility.yul\":2554:2632   */\n      tag_56\n      jump\t// in\n    tag_117:\n        /* \"#utility.yul\":2546:2632   */\n      swap1\n      pop\n        /* \"#utility.yul\":2642:2714   */\n      tag_118\n        /* \"#utility.yul\":2710:2712   */\n      0x20\n        /* \"#utility.yul\":2699:2708   */\n      dup4\n        /* \"#utility.yul\":2695:2713   */\n      add\n        /* \"#utility.yul\":2686:2692   */\n      dup6\n        /* \"#utility.yul\":2642:2714   */\n      tag_57\n      jump\t// in\n    tag_118:\n        /* \"#utility.yul\":2724:2790   */\n      tag_119\n        /* \"#utility.yul\":2786:2788   */\n      0x40\n        /* \"#utility.yul\":2775:2784   */\n      dup4\n        /* \"#utility.yul\":2771:2789   */\n      add\n        /* \"#utility.yul\":2762:2768   */\n      dup5\n        /* \"#utility.yul\":2724:2790   */\n      tag_59\n      jump\t// in\n    tag_119:\n        /* \"#utility.yul\":2276:2797   */\n      swap5\n      swap4\n      pop\n      pop\n      pop\n      pop\n      jump\t// out\n        /* \"#utility.yul\":2803:3025   */\n    tag_20:\n        /* \"#utility.yul\":2896:2900   */\n      0x00\n        /* \"#utility.yul\":2934:2936   */\n      0x20\n        /* \"#utility.yul\":2923:2932   */\n      dup3\n        /* \"#utility.yul\":2919:2937   */\n      add\n        /* \"#utility.yul\":2911:2937   */\n      swap1\n      pop\n        /* \"#utility.yul\":2947:3018   */\n      tag_121\n        /* \"#utility.yul\":3015:3016   */\n      0x00\n        /* \"#utility.yul\":3004:3013   */\n      dup4\n        /* \"#utility.yul\":3000:3017   */\n      add\n        /* \"#utility.yul\":2991:2997   */\n      dup5\n        /* \"#utility.yul\":2947:3018   */\n      tag_57\n      jump\t// in\n    tag_121:\n        /* \"#utility.yul\":2803:3025   */\n      swap3\n      swap2\n      pop\n      pop\n      jump\t// out\n        /* \"#utility.yul\":3031:3148   */\n    tag_60:\n        /* \"#utility.yul\":3140:3141   */\n      0x00\n        /* \"#utility.yul\":3137:3138   */\n      dup1\n        /* \"#utility.yul\":3130:3142   */\n      revert\n        /* \"#utility.yul\":3154:3271   */\n    tag_61:\n        /* \"#utility.yul\":3263:3264   */\n      0x00\n        /* \"#utility.yul\":3260:3261   */\n      dup1\n        /* \"#utility.yul\":3253:3265   */\n      revert\n        /* \"#utility.yul\":3277:3457   */\n    tag_62:\n        /* \"#utility.yul\":3325:3402   */\n      0x4e487b7100000000000000000000000000000000000000000000000000000000\n        /* \"#utility.yul\":3322:3323   */\n      0x00\n        /* \"#utility.yul\":3315:3403   */\n      mstore\n        /* \"#utility.yul\":3422:3426   */\n      0x41\n        /* \"#utility.yul\":3419:3420   */\n      0x04\n        /* \"#utility.yul\":3412:3427   */\n      mstore\n        /* \"#utility.yul\":3446:3450   */\n      0x24\n        /* \"#utility.yul\":3443:3444   */\n      0x00\n        /* \"#utility.yul\":3436:3451   */\n      revert\n        /* \"#utility.yul\":3463:3744   */\n    tag_63:\n        /* \"#utility.yul\":3546:3573   */\n      tag_126\n        /* \"#utility.yul\":3568:3572   */\n      dup3\n        /* \"#utility.yul\":3546:3573   */\n      tag_55\n      jump\t// in\n    tag_126:\n        /* \"#utility.yul\":3538:3544   */\n      dup2\n        /* \"#utility.yul\":3534:3574   */\n      add\n        /* \"#utility.yul\":3676:3682   */\n      dup2\n        /* \"#utility.yul\":3664:3674   */\n      dup2\n        /* \"#utility.yul\":3661:3683   */\n      lt\n        /* \"#utility.yul\":3640:3658   */\n      0xffffffffffffffff\n        /* \"#utility.yul\":3628:3638   */\n      dup3\n        /* \"#utility.yul\":3625:3659   */\n      gt\n        /* \"#utility.yul\":3622:3684   */\n      or\n        /* \"#utility.yul\":3619:3707   */\n      iszero\n      tag_127\n      jumpi\n        /* \"#utility.yul\":3687:3705   */\n      tag_128\n      tag_62\n      jump\t// in\n    tag_128:\n        /* \"#utility.yul\":3619:3707   */\n    tag_127:\n        /* \"#utility.yul\":3727:3737   */\n      dup1\n        /* \"#utility.yul\":3723:3725   */\n      0x40\n        /* \"#utility.yul\":3716:3738   */\n      mstore\n        /* \"#utility.yul\":3506:3744   */\n      pop\n        /* \"#utility.yul\":3463:3744   */\n      pop\n      pop\n      jump\t// out\n        /* \"#utility.yul\":3750:3879   */\n    tag_64:\n        /* \"#utility.yul\":3784:3790   */\n      0x00\n        /* \"#utility.yul\":3811:3831   */\n      tag_130\n      tag_46\n      jump\t// in\n    tag_130:\n        /* \"#utility.yul\":3801:3831   */\n      swap1\n      pop\n        /* \"#utility.yul\":3840:3873   */\n      tag_131\n        /* \"#utility.yul\":3868:3872   */\n      dup3\n        /* \"#utility.yul\":3860:3866   */\n      dup3\n        /* \"#utility.yul\":3840:3873   */\n      tag_63\n      jump\t// in\n    tag_131:\n        /* \"#utility.yul\":3750:3879   */\n      swap2\n      swap1\n      pop\n      jump\t// out\n        /* \"#utility.yul\":3885:4193   */\n    tag_65:\n        /* \"#utility.yul\":3947:3951   */\n      0x00\n        /* \"#utility.yul\":4037:4055   */\n      0xffffffffffffffff\n        /* \"#utility.yul\":4029:4035   */\n      dup3\n        /* \"#utility.yul\":4026:4056   */\n      gt\n        /* \"#utility.yul\":4023:4079   */\n      iszero\n      tag_133\n      jumpi\n        /* \"#utility.yul\":4059:4077   */\n      tag_134\n      tag_62\n      jump\t// in\n    tag_134:\n        /* \"#utility.yul\":4023:4079   */\n    tag_133:\n        /* \"#utility.yul\":4097:4126   */\n      tag_135\n        /* \"#utility.yul\":4119:4125   */\n      dup3\n        /* \"#utility.yul\":4097:4126   */\n      tag_55\n      jump\t// in\n    tag_135:\n        /* \"#utility.yul\":4089:4126   */\n      swap1\n      pop\n        /* \"#utility.yul\":4181:4185   */\n      0x20\n        /* \"#utility.yul\":4175:4179   */\n      dup2\n        /* \"#utility.yul\":4171:4186   */\n      add\n        /* \"#utility.yul\":4163:4186   */\n      swap1\n      pop\n        /* \"#utility.yul\":3885:4193   */\n      swap2\n      swap1\n      pop\n      jump\t// out\n        /* \"#utility.yul\":4199:4347   */\n    tag_66:\n        /* \"#utility.yul\":4297:4303   */\n      dup3\n        /* \"#utility.yul\":4292:4295   */\n      dup2\n        /* \"#utility.yul\":4287:4290   */\n      dup4\n        /* \"#utility.yul\":4274:4304   */\n      calldatacopy\n        /* \"#utility.yul\":4338:4339   */\n      0x00\n        /* \"#utility.yul\":4329:4335   */\n      dup4\n        /* \"#utility.yul\":4324:4327   */\n      dup4\n        /* \"#utility.yul\":4320:4336   */\n      add\n        /* \"#utility.yul\":4313:4340   */\n      mstore\n        /* \"#utility.yul\":4199:4347   */\n      pop\n      pop\n      pop\n      jump\t// out\n        /* \"#utility.yul\":4353:4778   */\n    tag_67:\n        /* \"#utility.yul\":4431:4436   */\n      0x00\n        /* \"#utility.yul\":4456:4522   */\n      tag_138\n        /* \"#utility.yul\":4472:4521   */\n      tag_139\n        /* \"#utility.yul\":4514:4520   */\n      dup5\n        /* \"#utility.yul\":4472:4521   */\n      tag_65\n      jump\t// in\n    tag_139:\n        /* \"#utility.yul\":4456:4522   */\n      tag_64\n      jump\t// in\n    tag_138:\n        /* \"#utility.yul\":4447:4522   */\n      swap1\n      pop\n        /* \"#utility.yul\":4545:4551   */\n      dup3\n        /* \"#utility.yul\":4538:4543   */\n      dup2\n        /* \"#utility.yul\":4531:4552   */\n      mstore\n        /* \"#utility.yul\":4583:4587   */\n      0x20\n        /* \"#utility.yul\":4576:4581   */\n      dup2\n        /* \"#utility.yul\":4572:4588   */\n      add\n        /* \"#utility.yul\":4621:4624   */\n      dup5\n        /* \"#utility.yul\":4612:4618   */\n      dup5\n        /* \"#utility.yul\":4607:4610   */\n      dup5\n        /* \"#utility.yul\":4603:4619   */\n      add\n        /* \"#utility.yul\":4600:4625   */\n      gt\n        /* \"#utility.yul\":4597:4709   */\n      iszero\n      tag_140\n      jumpi\n        /* \"#utility.yul\":4628:4707   */\n      tag_141\n      tag_61\n      jump\t// in\n    tag_141:\n        /* \"#utility.yul\":4597:4709   */\n    tag_140:\n        /* \"#utility.yul\":4718:4772   */\n      tag_142\n        /* \"#utility.yul\":4765:4771   */\n      dup5\n        /* \"#utility.yul\":4760:4763   */\n      dup3\n        /* \"#utility.yul\":4755:4758   */\n      dup6\n        /* \"#utility.yul\":4718:4772   */\n      tag_66\n      jump\t// in\n    tag_142:\n        /* \"#utility.yul\":4437:4778   */\n      pop\n        /* \"#utility.yul\":4353:4778   */\n      swap4\n      swap3\n      pop\n      pop\n      pop\n      jump\t// out\n        /* \"#utility.yul\":4798:5138   */\n    tag_68:\n        /* \"#utility.yul\":4854:4859   */\n      0x00\n        /* \"#utility.yul\":4903:4906   */\n      dup3\n        /* \"#utility.yul\":4896:4900   */\n      0x1f\n        /* \"#utility.yul\":4888:4894   */\n      dup4\n        /* \"#utility.yul\":4884:4901   */\n      add\n        /* \"#utility.yul\":4880:4907   */\n      slt\n        /* \"#utility.yul\":4870:4992   */\n      tag_144\n      jumpi\n        /* \"#utility.yul\":4911:4990   */\n      tag_145\n      tag_60\n      jump\t// in\n    tag_145:\n        /* \"#utility.yul\":4870:4992   */\n    tag_144:\n        /* \"#utility.yul\":5028:5034   */\n      dup2\n        /* \"#utility.yul\":5015:5035   */\n      calldataload\n        /* \"#utility.yul\":5053:5132   */\n      tag_146\n        /* \"#utility.yul\":5128:5131   */\n      dup5\n        /* \"#utility.yul\":5120:5126   */\n      dup3\n        /* \"#utility.yul\":5113:5117   */\n      0x20\n        /* \"#utility.yul\":5105:5111   */\n      dup7\n        /* \"#utility.yul\":5101:5118   */\n      add\n        /* \"#utility.yul\":5053:5132   */\n      tag_67\n      jump\t// in\n    tag_146:\n        /* \"#utility.yul\":5044:5132   */\n      swap2\n      pop\n        /* \"#utility.yul\":4860:5138   */\n      pop\n        /* \"#utility.yul\":4798:5138   */\n      swap3\n      swap2\n      pop\n      pop\n      jump\t// out\n        /* \"#utility.yul\":5144:5653   */\n    tag_23:\n        /* \"#utility.yul\":5213:5219   */\n      0x00\n        /* \"#utility.yul\":5262:5264   */\n      0x20\n        /* \"#utility.yul\":5250:5259   */\n      dup3\n        /* \"#utility.yul\":5241:5248   */\n      dup5\n        /* \"#utility.yul\":5237:5260   */\n      sub\n        /* \"#utility.yul\":5233:5265   */\n      slt\n        /* \"#utility.yul\":5230:5349   */\n      iszero\n      tag_148\n      jumpi\n        /* \"#utility.yul\":5268:5347   */\n      tag_149\n      tag_47\n      jump\t// in\n    tag_149:\n        /* \"#utility.yul\":5230:5349   */\n    tag_148:\n        /* \"#utility.yul\":5416:5417   */\n      0x00\n        /* \"#utility.yul\":5405:5414   */\n      dup3\n        /* \"#utility.yul\":5401:5418   */\n      add\n        /* \"#utility.yul\":5388:5419   */\n      calldataload\n        /* \"#utility.yul\":5446:5464   */\n      0xffffffffffffffff\n        /* \"#utility.yul\":5438:5444   */\n      dup2\n        /* \"#utility.yul\":5435:5465   */\n      gt\n        /* \"#utility.yul\":5432:5549   */\n      iszero\n      tag_150\n      jumpi\n        /* \"#utility.yul\":5468:5547   */\n      tag_151\n      tag_48\n      jump\t// in\n    tag_151:\n        /* \"#utility.yul\":5432:5549   */\n    tag_150:\n        /* \"#utility.yul\":5573:5636   */\n      tag_152\n        /* \"#utility.yul\":5628:5635   */\n      dup5\n        /* \"#utility.yul\":5619:5625   */\n      dup3\n        /* \"#utility.yul\":5608:5617   */\n      dup6\n        /* \"#utility.yul\":5604:5626   */\n      add\n        /* \"#utility.yul\":5573:5636   */\n      tag_68\n      jump\t// in\n    tag_152:\n        /* \"#utility.yul\":5563:5636   */\n      swap2\n      pop\n        /* \"#utility.yul\":5359:5646   */\n      pop\n        /* \"#utility.yul\":5144:5653   */\n      swap3\n      swap2\n      pop\n      pop\n      jump\t// out\n        /* \"#utility.yul\":5659:5839   */\n    tag_69:\n        /* \"#utility.yul\":5707:5784   */\n      0x4e487b7100000000000000000000000000000000000000000000000000000000\n        /* \"#utility.yul\":5704:5705   */\n      0x00\n        /* \"#utility.yul\":5697:5785   */\n      mstore\n        /* \"#utility.yul\":5804:5808   */\n      0x11\n        /* \"#utility.yul\":5801:5802   */\n      0x04\n        /* \"#utility.yul\":5794:5809   */\n      mstore\n        /* \"#utility.yul\":5828:5832   */\n      0x24\n        /* \"#utility.yul\":5825:5826   */\n      0x00\n        /* \"#utility.yul\":5818:5833   */\n      revert\n        /* \"#utility.yul\":5845:6078   */\n    tag_30:\n        /* \"#utility.yul\":5884:5887   */\n      0x00\n        /* \"#utility.yul\":5907:5931   */\n      tag_155\n        /* \"#utility.yul\":5925:5930   */\n      dup3\n        /* \"#utility.yul\":5907:5931   */\n      tag_49\n      jump\t// in\n    tag_155:\n        /* \"#utility.yul\":5898:5931   */\n      swap2\n      pop\n        /* \"#utility.yul\":5953:6019   */\n      0xffffffffffffffffffffffffffffffffffffffffffffffffffffffffffffffff\n        /* \"#utility.yul\":5946:5951   */\n      dup3\n        /* \"#utility.yul\":5943:6020   */\n      sub\n        /* \"#utility.yul\":5940:6043   */\n      tag_156\n      jumpi\n        /* \"#utility.yul\":6023:6041   */\n      tag_157\n      tag_69\n      jump\t// in\n    tag_157:\n        /* \"#utility.yul\":5940:6043   */\n    tag_156:\n        /* \"#utility.yul\":6070:6071   */\n      0x01\n        /* \"#utility.yul\":6063:6068   */\n      dup3\n        /* \"#utility.yul\":6059:6072   */\n      add\n        /* \"#utility.yul\":6052:6072   */\n      swap1\n      pop\n        /* \"#utility.yul\":5845:6078   */\n      swap2\n      swap1\n      pop\n      jump\t// out\n        /* \"#utility.yul\":6084:6264   */\n    tag_70:\n        /* \"#utility.yul\":6132:6209   */\n      0x4e487b7100000000000000000000000000000000000000000000000000000000\n        /* \"#utility.yul\":6129:6130   */\n      0x00\n        /* \"#utility.yul\":6122:6210   */\n      mstore\n        /* \"#utility.yul\":6229:6233   */\n      0x22\n        /* \"#utility.yul\":6226:6227   */\n      0x04\n        /* \"#utility.yul\":6219:6234   */\n      mstore\n        /* \"#utility.yul\":6253:6257   */\n      0x24\n        /* \"#utility.yul\":6250:6251   */\n      0x00\n        /* \"#utility.yul\":6243:6258   */\n      revert\n        /* \"#utility.yul\":6270:6590   */\n    tag_32:\n        /* \"#utility.yul\":6314:6320   */\n      0x00\n        /* \"#utility.yul\":6351:6352   */\n      0x02\n        /* \"#utility.yul\":6345:6349   */\n      dup3\n        /* \"#utility.yul\":6341:6353   */\n      div\n        /* \"#utility.yul\":6331:6353   */\n      swap1\n      pop\n        /* \"#utility.yul\":6398:6399   */\n      0x01\n        /* \"#utility.yul\":6392:6396   */\n      dup3\n        /* \"#utility.yul\":6388:6400   */\n      and\n        /* \"#utility.yul\":6419:6437   */\n      dup1\n        /* \"#utility.yul\":6409:6490   */\n      tag_160\n      jumpi\n        /* \"#utility.yul\":6475:6479   */\n      0x7f\n        /* \"#utility.yul\":6467:6473   */\n      dup3\n        /* \"#utility.yul\":6463:6480   */\n      and\n        /* \"#utility.yul\":6453:6480   */\n      swap2\n      pop\n        /* \"#utility.yul\":6409:6490   */\n    tag_160:\n        /* \"#utility.yul\":6537:6539   */\n      0x20\n        /* \"#utility.yul\":6529:6535   */\n      dup3\n        /* \"#utility.yul\":6526:6540   */\n      lt\n        /* \"#utility.yul\":6506:6524   */\n      dup2\n        /* \"#utility.yul\":6503:6541   */\n      sub\n        /* \"#utility.yul\":6500:6584   */\n      tag_161\n      jumpi\n        /* \"#utility.yul\":6556:6574   */\n      tag_162\n      tag_70\n      jump\t// in\n    tag_162:\n        /* \"#utility.yul\":6500:6584   */\n    tag_161:\n        /* \"#utility.yul\":6321:6590   */\n      pop\n        /* \"#utility.yul\":6270:6590   */\n      swap2\n      swap1\n      pop\n      jump\t// out\n        /* \"#utility.yul\":6596:6737   */\n    tag_71:\n        /* \"#utility.yul\":6645:6649   */\n      0x00\n        /* \"#utility.yul\":6668:6671   */\n      dup2\n        /* \"#utility.yul\":6660:6671   */\n      swap1\n      pop\n        /* \"#utility.yul\":6691:6694   */\n      dup2\n        /* \"#utility.yul\":6688:6689   */\n      0x00\n        /* \"#utility.yul\":6681:6695   */\n      mstore\n        /* \"#utility.yul\":6725:6729   */\n      0x20\n        /* \"#utility.yul\":6722:6723   */\n      0x00\n        /* \"#utility.yul\":6712:6730   */\n      keccak256\n        /* \"#utility.yul\":6704:6730   */\n      swap1\n      pop\n        /* \"#utility.yul\":6596:6737   */\n      swap2\n      swap1\n      pop\n      jump\t// out\n        /* \"#utility.yul\":6743:6836   */\n    tag_72:\n        /* \"#utility.yul\":6780:6786   */\n      0x00\n        /* \"#utility.yul\":6827:6829   */\n      0x20\n        /* \"#utility.yul\":6822:6824   */\n      0x1f\n        /* \"#utility.yul\":6815:6820   */\n      dup4\n        /* \"#utility.yul\":6811:6825   */\n      add\n        /* \"#utility.yul\":6807:6830   */\n      div\n        /* \"#utility.yul\":6797:6830   */\n      swap1\n      pop\n        /* \"#utility.yul\":6743:6836   */\n      swap2\n      swap1\n      pop\n      jump\t// out\n        /* \"#utility.yul\":6842:6949   */\n    tag_73:\n        /* \"#utility.yul\":6886:6894   */\n      0x00\n        /* \"#utility.yul\":6936:6941   */\n      dup3\n        /* \"#utility.yul\":6930:6934   */\n      dup3\n        /* \"#utility.yul\":6926:6942   */\n      shl\n        /* \"#utility.yul\":6905:6942   */\n      swap1\n      pop\n        /* \"#utility.yul\":6842:6949   */\n      swap3\n      swap2\n      pop\n      pop\n      jump\t// out\n        /* \"#utility.yul\":6955:7348   */\n    tag_74:\n        /* \"#utility.yul\":7024:7030   */\n      0x00\n        /* \"#utility.yul\":7074:7075   */\n      0x08\n        /* \"#utility.yul\":7062:7072   */\n      dup4\n        /* \"#utility.yul\":7058:7076   */\n      mul\n        /* \"#utility.yul\":7097:7194   */\n      tag_167\n        /* \"#utility.yul\":7127:7193   */\n      0xffffffffffffffffffffffffffffffffffffffffffffffffffffffffffffffff\n        /* \"#utility.yul\":7116:7125   */\n      dup3\n        /* \"#utility.yul\":7097:7194   */\n      tag_73\n      jump\t// in\n    tag_167:\n        /* \"#utility.yul\":7215:7254   */\n      tag_168\n        /* \"#utility.yul\":7245:7253   */\n      dup7\n        /* \"#utility.yul\":7234:7243   */\n      dup4\n        /* \"#utility.yul\":7215:7254   */\n      tag_73\n      jump\t// in\n    tag_168:\n        /* \"#utility.yul\":7203:7254   */\n      swap6\n      pop\n        /* \"#utility.yul\":7287:7291   */\n      dup1\n        /* \"#utility.yul\":7283:7292   */\n      not\n        /* \"#utility.yul\":7276:7281   */\n      dup5\n        /* \"#utility.yul\":7272:7293   */\n      and\n        /* \"#utility.yul\":7263:7293   */\n      swap4\n      pop\n        /* \"#utility.yul\":7336:7340   */\n      dup1\n        /* \"#utility.yul\":7326:7334   */\n      dup7\n        /* \"#utility.yul\":7322:7341   */\n      and\n        /* \"#utility.yul\":7315:7320   */\n      dup5\n        /* \"#utility.yul\":7312:7342   */\n      or\n        /* \"#utility.yul\":7302:7342   */\n      swap3\n      pop\n        /* \"#utility.yul\":7031:7348   */\n      pop\n      pop\n        /* \"#utility.yul\":6955:7348   */\n      swap4\n      swap3\n      pop\n      pop\n      pop\n      jump\t// out\n        /* \"#utility.yul\":7354:7414   */\n    tag_75:\n        /* \"#utility.yul\":7382:7385   */\n      0x00\n        /* \"#utility.yul\":7403:7408   */\n      dup2\n        /* \"#utility.yul\":7396:7408   */\n      swap1\n      pop\n        /* \"#utility.yul\":7354:7414   */\n      swap2\n      swap1\n      pop\n      jump\t// out\n        /* \"#utility.yul\":7420:7562   */\n    tag_76:\n        /* \"#utility.yul\":7470:7479   */\n      0x00\n        /* \"#utility.yul\":7503:7556   */\n      tag_171\n        /* \"#utility.yul\":7521:7555   */\n      tag_172\n        /* \"#utility.yul\":7530:7554   */\n      tag_173\n        /* \"#utility.yul\":7548:7553   */\n      dup5\n        /* \"#utility.yul\":7530:7554   */\n      tag_49\n      jump\t// in\n    tag_173:\n        /* \"#utility.yul\":7521:7555   */\n      tag_75\n      jump\t// in\n    tag_172:\n        /* \"#utility.yul\":7503:7556   */\n      tag_49\n      jump\t// in\n    tag_171:\n        /* \"#utility.yul\":7490:7556   */\n      swap1\n      pop\n        /* \"#utility.yul\":7420:7562   */\n      swap2\n      swap1\n      pop\n      jump\t// out\n        /* \"#utility.yul\":7568:7643   */\n    tag_77:\n        /* \"#utility.yul\":7611:7614   */\n      0x00\n        /* \"#utility.yul\":7632:7637   */\n      dup2\n        /* \"#utility.yul\":7625:7637   */\n      swap1\n      pop\n        /* \"#utility.yul\":7568:7643   */\n      swap2\n      swap1\n      pop\n      jump\t// out\n        /* \"#utility.yul\":7649:7918   */\n    tag_78:\n        /* \"#utility.yul\":7759:7798   */\n      tag_176\n        /* \"#utility.yul\":7790:7797   */\n      dup4\n        /* \"#utility.yul\":7759:7798   */\n      tag_76\n      jump\t// in\n    tag_176:\n        /* \"#utility.yul\":7820:7911   */\n      tag_177\n        /* \"#utility.yul\":7869:7910   */\n      tag_178\n        /* \"#utility.yul\":7893:7909   */\n      dup3\n        /* \"#utility.yul\":7869:7910   */\n      tag_77\n      jump\t// in\n    tag_178:\n        /* \"#utility.yul\":7861:7867   */\n      dup5\n        /* \"#utility.yul\":7854:7858   */\n      dup5\n        /* \"#utility.yul\":7848:7859   */\n      sload\n        /* \"#utility.yul\":7820:7911   */\n      tag_74\n      jump\t// in\n    tag_177:\n        /* \"#utility.yul\":7814:7818   */\n      dup3\n        /* \"#utility.yul\":7807:7912   */\n      sstore\n        /* \"#utility.yul\":7725:7918   */\n      pop\n        /* \"#utility.yul\":7649:7918   */\n      pop\n      pop\n      pop\n      jump\t// out\n        /* \"#utility.yul\":7924:7997   */\n    tag_79:\n        /* \"#utility.yul\":7969:7972   */\n      0x00\n        /* \"#utility.yul\":7924:7997   */\n      swap1\n      jump\t// out\n        /* \"#utility.yul\":8003:8192   */\n    tag_80:\n        /* \"#utility.yul\":8080:8112   */\n      tag_181\n      tag_79\n      jump\t// in\n    tag_181:\n        /* \"#utility.yul\":8121:8186   */\n      tag_182\n        /* \"#utility.yul\":8179:8185   */\n      dup2\n        /* \"#utility.yul\":8171:8177   */\n      dup5\n        /* \"#utility.yul\":8165:8169   */\n      dup5\n        /* \"#utility.yul\":8121:8186   */\n      tag_78\n      jump\t// in\n    tag_182:\n        /* \"#utility.yul\":8056:8192   */\n      pop\n        /* \"#utility.yul\":8003:8192   */\n      pop\n      pop\n      jump\t// out\n        /* \"#utility.yul\":8198:8384   */\n    tag_81:\n        /* \"#utility.yul\":8258:8378   */\n    tag_184:\n        /* \"#utility.yul\":8275:8278   */\n      dup2\n        /* \"#utility.yul\":8268:8273   */\n      dup2\n        /* \"#utility.yul\":8265:8279   */\n      lt\n        /* \"#utility.yul\":8258:8378   */\n      iszero\n      tag_186\n      jumpi\n        /* \"#utility.yul\":8329:8368   */\n      tag_187\n        /* \"#utility.yul\":8366:8367   */\n      0x00\n        /* \"#utility.yul\":8359:8364   */\n      dup3\n        /* \"#utility.yul\":8329:8368   */\n      tag_80\n      jump\t// in\n    tag_187:\n        /* \"#utility.yul\":8302:8303   */\n      0x01\n        /* \"#utility.yul\":8295:8300   */\n      dup2\n        /* \"#utility.yul\":8291:8304   */\n      add\n        /* \"#utility.yul\":8282:8304   */\n      swap1\n      pop\n        /* \"#utility.yul\":8258:8378   */\n      jump(tag_184)\n    tag_186:\n        /* \"#utility.yul\":8198:8384   */\n      pop\n      pop\n      jump\t// out\n        /* \"#utility.yul\":8390:8933   */\n    tag_82:\n        /* \"#utility.yul\":8491:8493   */\n      0x1f\n        /* \"#utility.yul\":8486:8489   */\n      dup3\n        /* \"#utility.yul\":8483:8494   */\n      gt\n        /* \"#utility.yul\":8480:8926   */\n      iszero\n      tag_189\n      jumpi\n        /* \"#utility.yul\":8525:8563   */\n      tag_190\n        /* \"#utility.yul\":8557:8562   */\n      dup2\n        /* \"#utility.yul\":8525:8563   */\n      tag_71\n      jump\t// in\n    tag_190:\n        /* \"#utility.yul\":8609:8638   */\n      tag_191\n        /* \"#utility.yul\":8627:8637   */\n      dup5\n        /* \"#utility.yul\":8609:8638   */\n      tag_72\n      jump\t// in\n    tag_191:\n        /* \"#utility.yul\":8599:8607   */\n      dup2\n        /* \"#utility.yul\":8595:8639   */\n      add\n        /* \"#utility.yul\":8792:8794   */\n      0x20\n        /* \"#utility.yul\":8780:8790   */\n      dup6\n        /* \"#utility.yul\":8777:8795   */\n      lt\n        /* \"#utility.yul\":8774:8823   */\n      iszero\n      tag_192\n      jumpi\n        /* \"#utility.yul\":8813:8821   */\n      dup2\n        /* \"#utility.yul\":8798:8821   */\n      swap1\n      pop\n        /* \"#utility.yul\":8774:8823   */\n    tag_192:\n        /* \"#utility.yul\":8836:8916   */\n      tag_193\n        /* \"#utility.yul\":8892:8914   */\n      tag_194\n        /* \"#utility.yul\":8910:8913   */\n      dup6\n        /* \"#utility.yul\":8892:8914   */\n      tag_72\n      jump\t// in\n    tag_194:\n        /* \"#utility.yul\":8882:8890   */\n      dup4\n        /* \"#utility.yul\":8878:8915   */\n      add\n        /* \"#utility.yul\":8865:8876   */\n      dup3\n        /* \"#utility.yul\":8836:8916   */\n      tag_81\n      jump\t// in\n    tag_193:\n        /* \"#utility.yul\":8495:8926   */\n      pop\n      pop\n        /* \"#utility.yul\":8480:8926   */\n    tag_189:\n        /* \"#utility.yul\":8390:8933   */\n      pop\n      pop\n      pop\n      jump\t// out\n        /* \"#utility.yul\":8939:9056   */\n    tag_83:\n        /* \"#utility.yul\":8993:9001   */\n      0x00\n        /* \"#utility.yul\":9043:9048   */\n      dup3\n        /* \"#utility.yul\":9037:9041   */\n      dup3\n        /* \"#utility.yul\":9033:9049   */\n      shr\n        /* \"#utility.yul\":9012:9049   */\n      swap1\n      pop\n        /* \"#utility.yul\":8939:9056   */\n      swap3\n      swap2\n      pop\n      pop\n      jump\t// out\n        /* \"#utility.yul\":9062:9231   */\n    tag_84:\n        /* \"#utility.yul\":9106:9112   */\n      0x00\n        /* \"#utility.yul\":9139:9190   */\n      tag_197\n        /* \"#utility.yul\":9187:9188   */\n      0x00\n        /* \"#utility.yul\":9183:9189   */\n      not\n        /* \"#utility.yul\":9175:9180   */\n      dup5\n        /* \"#utility.yul\":9172:9173   */\n      0x08\n        /* \"#utility.yul\":9168:9181   */\n      mul\n        /* \"#utility.yul\":9139:9190   */\n      tag_83\n      jump\t// in\n    tag_197:\n        /* \"#utility.yul\":9135:9191   */\n      not\n        /* \"#utility.yul\":9220:9224   */\n      dup1\n        /* \"#utility.yul\":9214:9218   */\n      dup4\n        /* \"#utility.yul\":9210:9225   */\n      and\n        /* \"#utility.yul\":9200:9225   */\n      swap2\n      pop\n        /* \"#utility.yul\":9113:9231   */\n      pop\n        /* \"#utility.yul\":9062:9231   */\n      swap3\n      swap2\n      pop\n      pop\n      jump\t// out\n        /* \"#utility.yul\":9236:9531   */\n    tag_85:\n        /* \"#utility.yul\":9312:9316   */\n      0x00\n        /* \"#utility.yul\":9458:9487   */\n      tag_199\n        /* \"#utility.yul\":9483:9486   */\n      dup4\n        /* \"#utility.yul\":9477:9481   */\n      dup4\n        /* \"#utility.yul\":9458:9487   */\n      tag_84\n      jump\t// in\n    tag_199:\n        /* \"#utility.yul\":9450:9487   */\n      swap2\n      pop\n        /* \"#utility.yul\":9520:9523   */\n      dup3\n        /* \"#utility.yul\":9517:9518   */\n      0x02\n        /* \"#utility.yul\":9513:9524   */\n      mul\n        /* \"#utility.yul\":9507:9511   */\n      dup3\n        /* \"#utility.yul\":9504:9525   */\n      or\n        /* \"#utility.yul\":9496:9525   */\n      swap1\n      pop\n        /* \"#utility.yul\":9236:9531   */\n      swap3\n      swap2\n      pop\n      pop\n      jump\t// out\n        /* \"#utility.yul\":9536:10931   */\n    tag_40:\n        /* \"#utility.yul\":9653:9690   */\n      tag_201\n        /* \"#utility.yul\":9686:9689   */\n      dup3\n        /* \"#utility.yul\":9653:9690   */\n      tag_52\n      jump\t// in\n    tag_201:\n        /* \"#utility.yul\":9755:9773   */\n      0xffffffffffffffff\n        /* \"#utility.yul\":9747:9753   */\n      dup2\n        /* \"#utility.yul\":9744:9774   */\n      gt\n        /* \"#utility.yul\":9741:9797   */\n      iszero\n      tag_202\n      jumpi\n        /* \"#utility.yul\":9777:9795   */\n      tag_203\n      tag_62\n      jump\t// in\n    tag_203:\n        /* \"#utility.yul\":9741:9797   */\n    tag_202:\n        /* \"#utility.yul\":9821:9859   */\n      tag_204\n        /* \"#utility.yul\":9853:9857   */\n      dup3\n        /* \"#utility.yul\":9847:9858   */\n      sload\n        /* \"#utility.yul\":9821:9859   */\n      tag_32\n      jump\t// in\n    tag_204:\n        /* \"#utility.yul\":9906:9973   */\n      tag_205\n        /* \"#utility.yul\":9966:9972   */\n      dup3\n        /* \"#utility.yul\":9958:9964   */\n      dup3\n        /* \"#utility.yul\":9952:9956   */\n      dup6\n        /* \"#utility.yul\":9906:9973   */\n      tag_82\n      jump\t// in\n    tag_205:\n        /* \"#utility.yul\":10000:10001   */\n      0x00\n        /* \"#utility.yul\":10024:10028   */\n      0x20\n        /* \"#utility.yul\":10011:10028   */\n      swap1\n      pop\n        /* \"#utility.yul\":10056:10058   */\n      0x1f\n        /* \"#utility.yul\":10048:10054   */\n      dup4\n        /* \"#utility.yul\":10045:10059   */\n      gt\n        /* \"#utility.yul\":10073:10074   */\n      0x01\n        /* \"#utility.yul\":10068:10686   */\n      dup2\n      eq\n      tag_207\n      jumpi\n        /* \"#utility.yul\":10730:10731   */\n      0x00\n        /* \"#utility.yul\":10747:10753   */\n      dup5\n        /* \"#utility.yul\":10744:10821   */\n      iszero\n      tag_208\n      jumpi\n        /* \"#utility.yul\":10796:10805   */\n      dup3\n        /* \"#utility.yul\":10791:10794   */\n      dup8\n        /* \"#utility.yul\":10787:10806   */\n      add\n        /* \"#utility.yul\":10781:10807   */\n      mload\n        /* \"#utility.yul\":10772:10807   */\n      swap1\n      pop\n        /* \"#utility.yul\":10744:10821   */\n    tag_208:\n        /* \"#utility.yul\":10847:10914   */\n      tag_209\n        /* \"#utility.yul\":10907:10913   */\n      dup6\n        /* \"#utility.yul\":10900:10905   */\n      dup3\n        /* \"#utility.yul\":10847:10914   */\n      tag_85\n      jump\t// in\n    tag_209:\n        /* \"#utility.yul\":10841:10845   */\n      dup7\n        /* \"#utility.yul\":10834:10915   */\n      sstore\n        /* \"#utility.yul\":10703:10925   */\n      pop\n        /* \"#utility.yul\":10038:10925   */\n      jump(tag_206)\n        /* \"#utility.yul\":10068:10686   */\n    tag_207:\n        /* \"#utility.yul\":10120:10124   */\n      0x1f\n        /* \"#utility.yul\":10116:10125   */\n      not\n        /* \"#utility.yul\":10108:10114   */\n      dup5\n        /* \"#utility.yul\":10104:10126   */\n      and\n        /* \"#utility.yul\":10154:10191   */\n      tag_210\n        /* \"#utility.yul\":10186:10190   */\n      dup7\n        /* \"#utility.yul\":10154:10191   */\n      tag_71\n      jump\t// in\n    tag_210:\n        /* \"#utility.yul\":10213:10214   */\n      0x00\n        /* \"#utility.yul\":10227:10435   */\n    tag_211:\n        /* \"#utility.yul\":10241:10248   */\n      dup3\n        /* \"#utility.yul\":10238:10239   */\n      dup2\n        /* \"#utility.yul\":10235:10249   */\n      lt\n        /* \"#utility.yul\":10227:10435   */\n      iszero\n      tag_213\n      jumpi\n        /* \"#utility.yul\":10320:10329   */\n      dup5\n        /* \"#utility.yul\":10315:10318   */\n      dup10\n        /* \"#utility.yul\":10311:10330   */\n      add\n        /* \"#utility.yul\":10305:10331   */\n      mload\n        /* \"#utility.yul\":10297:10303   */\n      dup3\n        /* \"#utility.yul\":10290:10332   */\n      sstore\n        /* \"#utility.yul\":10371:10372   */\n      0x01\n        /* \"#utility.yul\":10363:10369   */\n      dup3\n        /* \"#utility.yul\":10359:10373   */\n      add\n        /* \"#utility.yul\":10349:10373   */\n      swap2\n      pop\n        /* \"#utility.yul\":10418:10420   */\n      0x20\n        /* \"#utility.yul\":10407:10416   */\n      dup6\n        /* \"#utility.yul\":10403:10421   */\n      add\n        /* \"#utility.yul\":10390:10421   */\n      swap5\n      pop\n        /* \"#utility.yul\":10264:10268   */\n      0x20\n        /* \"#utility.yul\":10261:10262   */\n      dup2\n        /* \"#utility.yul\":10257:10269   */\n      add\n        /* \"#utility.yul\":10252:10269   */\n      swap1\n      pop\n        /* \"#utility.yul\":10227:10435   */\n      jump(tag_211)\n    tag_213:\n        /* \"#utility.yul\":10463:10469   */\n      dup7\n        /* \"#utility.yul\":10454:10461   */\n      dup4\n        /* \"#utility.yul\":10451:10470   */\n      lt\n        /* \"#utility.yul\":10448:10627   */\n      iszero\n      tag_214\n      jumpi\n        /* \"#utility.yul\":10521:10530   */\n      dup5\n        /* \"#utility.yul\":10516:10519   */\n      dup10\n        /* \"#utility.yul\":10512:10531   */\n      add\n        /* \"#utility.yul\":10506:10532   */\n      mload\n        /* \"#utility.yul\":10564:10612   */\n      tag_215\n        /* \"#utility.yul\":10606:10610   */\n      0x1f\n        /* \"#utility.yul\":10598:10604   */\n      dup10\n        /* \"#utility.yul\":10594:10611   */\n      and\n        /* \"#utility.yul\":10583:10592   */\n      dup3\n        /* \"#utility.yul\":10564:10612   */\n      tag_84\n      jump\t// in\n    tag_215:\n        /* \"#utility.yul\":10556:10562   */\n      dup4\n        /* \"#utility.yul\":10549:10613   */\n      sstore\n        /* \"#utility.yul\":10471:10627   */\n      pop\n        /* \"#utility.yul\":10448:10627   */\n    tag_214:\n        /* \"#utility.yul\":10673:10674   */\n      0x01\n        /* \"#utility.yul\":10669:10670   */\n      0x02\n        /* \"#utility.yul\":10661:10667   */\n      dup9\n        /* \"#utility.yul\":10657:10671   */\n      mul\n        /* \"#utility.yul\":10653:10675   */\n      add\n        /* \"#utility.yul\":10647:10651   */\n      dup9\n        /* \"#utility.yul\":10640:10676   */\n      sstore\n        /* \"#utility.yul\":10075:10686   */\n      pop\n      pop\n      pop\n        /* \"#utility.yul\":10038:10925   */\n    tag_206:\n      pop\n        /* \"#utility.yul\":9628:10931   */\n      pop\n      pop\n      pop\n        /* \"#utility.yul\":9536:10931   */\n      pop\n      pop\n      jump\t// out\n        /* \"#utility.yul\":10937:11096   */\n    tag_86:\n        /* \"#utility.yul\":11077:11088   */\n      0x4e6f742072656164790000000000000000000000000000000000000000000000\n        /* \"#utility.yul\":11073:11074   */\n      0x00\n        /* \"#utility.yul\":11065:11071   */\n      dup3\n        /* \"#utility.yul\":11061:11075   */\n      add\n        /* \"#utility.yul\":11054:11089   */\n      mstore\n        /* \"#utility.yul\":10937:11096   */\n      pop\n      jump\t// out\n        /* \"#utility.yul\":11102:11467   */\n    tag_87:\n        /* \"#utility.yul\":11244:11247   */\n      0x00\n        /* \"#utility.yul\":11265:11331   */\n      tag_218\n        /* \"#utility.yul\":11329:11330   */\n      0x09\n        /* \"#utility.yul\":11324:11327   */\n      dup4\n        /* \"#utility.yul\":11265:11331   */\n      tag_53\n      jump\t// in\n    tag_218:\n        /* \"#utility.yul\":11258:11331   */\n      swap2\n      pop\n        /* \"#utility.yul\":11340:11433   */\n      tag_219\n        /* \"#utility.yul\":11429:11432   */\n      dup3\n        /* \"#utility.yul\":11340:11433   */\n      tag_86\n      jump\t// in\n    tag_219:\n        /* \"#utility.yul\":11458:11460   */\n      0x20\n        /* \"#utility.yul\":11453:11456   */\n      dup3\n        /* \"#utility.yul\":11449:11461   */\n      add\n        /* \"#utility.yul\":11442:11461   */\n      swap1\n      pop\n        /* \"#utility.yul\":11102:11467   */\n      swap2\n      swap1\n      pop\n      jump\t// out\n        /* \"#utility.yul\":11473:11892   */\n    tag_45:\n        /* \"#utility.yul\":11639:11643   */\n      0x00\n        /* \"#utility.yul\":11677:11679   */\n      0x20\n        /* \"#utility.yul\":11666:11675   */\n      dup3\n        /* \"#utility.yul\":11662:11680   */\n      add\n        /* \"#utility.yul\":11654:11680   */\n      swap1\n      pop\n        /* \"#utility.yul\":11726:11735   */\n      dup2\n        /* \"#utility.yul\":11720:11724   */\n      dup2\n        /* \"#utility.yul\":11716:11736   */\n      sub\n        /* \"#utility.yul\":11712:11713   */\n      0x00\n        /* \"#utility.yul\":11701:11710   */\n      dup4\n        /* \"#utility.yul\":11697:11714   */\n      add\n        /* \"#utility.yul\":11690:11737   */\n      mstore\n        /* \"#utility.yul\":11754:11885   */\n      tag_221\n        /* \"#utility.yul\":11880:11884   */\n      dup2\n        /* \"#utility.yul\":11754:11885   */\n      tag_87\n      jump\t// in\n    tag_221:\n        /* \"#utility.yul\":11746:11885   */\n      swap1\n      pop\n        /* \"#utility.yul\":11473:11892   */\n      swap2\n      swap1\n      pop\n      jump\t// out\n\n    auxdata: 0xa2646970667358221220bef00aff4e981148b5d29aa41511a87d3c0749d6a4f397bd9834edf3d111d22b64736f6c634300081a0033\n}\n",
				"bytecode": {
					"linkReferences": {},
					"object": "6080604052348015600e575f80fd5b506109aa8061001c5f395ff3fe608060405234801561000f575f80fd5b5060043610610055575f3560e01c80630121b93f14610059578063013cf08b146100755780632dfca445146100a7578063aa98df39146100c5578063fe0d94c1146100e1575b5f80fd5b610073600480360381019061006e9190610343565b6100fd565b005b61008f600480360381019061008a9190610343565b610128565b60405161009e93929190610407565b60405180910390f35b6100af6101df565b6040516100bc9190610443565b60405180910390f35b6100df60048036038101906100da9190610588565b6101e5565b005b6100fb60048036038101906100f69190610343565b61026a565b005b5f808281526020019081526020015f206001015f815480929190610120906105fc565b919050555050565b5f602052805f5260405f205f91509050805f01805461014690610670565b80601f016020809104026020016040519081016040528092919081815260200182805461017290610670565b80156101bd5780601f10610194576101008083540402835291602001916101bd565b820191905f5260205f20905b8154815290600101906020018083116101a057829003601f168201915b505050505090806001015490806002015f9054906101000a900460ff16905083565b60015481565b60405180606001604052808281526020015f81526020015f15158152505f8060015f815480929190610216906105fc565b9190505581526020019081526020015f205f820151815f01908161023a919061083d565b50602082015181600101556040820151816002015f6101000a81548160ff02191690831515021790555090505050565b5f805f8381526020019081526020015f209050806002015f9054906101000a900460ff161580156102a057506003816001015410155b6102df576040517f08c379a00000000000000000000000000000000000000000000000000000000081526004016102d690610956565b60405180910390fd5b6001816002015f6101000a81548160ff0219169083151502179055505050565b5f604051905090565b5f80fd5b5f80fd5b5f819050919050565b61032281610310565b811461032c575f80fd5b50565b5f8135905061033d81610319565b92915050565b5f6020828403121561035857610357610308565b5b5f6103658482850161032f565b91505092915050565b5f81519050919050565b5f82825260208201905092915050565b8281835e5f83830152505050565b5f601f19601f8301169050919050565b5f6103b08261036e565b6103ba8185610378565b93506103ca818560208601610388565b6103d381610396565b840191505092915050565b6103e781610310565b82525050565b5f8115159050919050565b610401816103ed565b82525050565b5f6060820190508181035f83015261041f81866103a6565b905061042e60208301856103de565b61043b60408301846103f8565b949350505050565b5f6020820190506104565f8301846103de565b92915050565b5f80fd5b5f80fd5b7f4e487b71000000000000000000000000000000000000000000000000000000005f52604160045260245ffd5b61049a82610396565b810181811067ffffffffffffffff821117156104b9576104b8610464565b5b80604052505050565b5f6104cb6102ff565b90506104d78282610491565b919050565b5f67ffffffffffffffff8211156104f6576104f5610464565b5b6104ff82610396565b9050602081019050919050565b828183375f83830152505050565b5f61052c610527846104dc565b6104c2565b90508281526020810184848401111561054857610547610460565b5b61055384828561050c565b509392505050565b5f82601f83011261056f5761056e61045c565b5b813561057f84826020860161051a565b91505092915050565b5f6020828403121561059d5761059c610308565b5b5f82013567ffffffffffffffff8111156105ba576105b961030c565b5b6105c68482850161055b565b91505092915050565b7f4e487b71000000000000000000000000000000000000000000000000000000005f52601160045260245ffd5b5f61060682610310565b91507fffffffffffffffffffffffffffffffffffffffffffffffffffffffffffffffff8203610638576106376105cf565b5b600182019050919050565b7f4e487b71000000000000000000000000000000000000000000000000000000005f52602260045260245ffd5b5f600282049050600182168061068757607f821691505b60208210810361069a57610699610643565b5b50919050565b5f819050815f5260205f209050919050565b5f6020601f8301049050919050565b5f82821b905092915050565b5f600883026106fc7fffffffffffffffffffffffffffffffffffffffffffffffffffffffffffffffff826106c1565b61070686836106c1565b95508019841693508086168417925050509392505050565b5f819050919050565b5f61074161073c61073784610310565b61071e565b610310565b9050919050565b5f819050919050565b61075a83610727565b61076e61076682610748565b8484546106cd565b825550505050565b5f90565b610782610776565b61078d818484610751565b505050565b5b818110156107b0576107a55f8261077a565b600181019050610793565b5050565b601f8211156107f5576107c6816106a0565b6107cf846106b2565b810160208510156107de578190505b6107f26107ea856106b2565b830182610792565b50505b505050565b5f82821c905092915050565b5f6108155f19846008026107fa565b1980831691505092915050565b5f61082d8383610806565b9150826002028217905092915050565b6108468261036e565b67ffffffffffffffff81111561085f5761085e610464565b5b6108698254610670565b6108748282856107b4565b5f60209050601f8311600181146108a5575f8415610893578287015190505b61089d8582610822565b865550610904565b601f1984166108b3866106a0565b5f5b828110156108da578489015182556001820191506020850194506020810190506108b5565b868310156108f757848901516108f3601f891682610806565b8355505b6001600288020188555050505b505050505050565b7f4e6f7420726561647900000000000000000000000000000000000000000000005f82015250565b5f610940600983610378565b915061094b8261090c565b602082019050919050565b5f6020820190508181035f83015261096d81610934565b905091905056fea2646970667358221220bef00aff4e981148b5d29aa41511a87d3c0749d6a4f397bd9834edf3d111d22b64736f6c634300081a0033",
					"opcodes": "PUSH1 0x80 PUSH1 0x40 MSTORE CALLVALUE DUP1 ISZERO PUSH1 0xE JUMPI PUSH0 DUP1 REVERT JUMPDEST POP PUSH2 0x9AA DUP1 PUSH2 0x1C PUSH0 CODECOPY PUSH0 RETURN INVALID PUSH1 0x80 PUSH1 0x40 MSTORE CALLVALUE DUP1 ISZERO PUSH2 0xF JUMPI PUSH0 DUP1 REVERT JUMPDEST POP PUSH1 0x4 CALLDATASIZE LT PUSH2 0x55 JUMPI PUSH0 CALLDATALOAD PUSH1 0xE0 SHR DUP1 PUSH4 0x121B93F EQ PUSH2 0x59 JUMPI DUP1 PUSH4 0x13CF08B EQ PUSH2 0x75 JUMPI DUP1 PUSH4 0x2DFCA445 EQ PUSH2 0xA7 JUMPI DUP1 PUSH4 0xAA98DF39 EQ PUSH2 0xC5 JUMPI DUP1 PUSH4 0xFE0D94C1 EQ PUSH2 0xE1 JUMPI JUMPDEST PUSH0 DUP1 REVERT JUMPDEST PUSH2 0x73 PUSH1 0x4 DUP1 CALLDATASIZE SUB DUP2 ADD SWAP1 PUSH2 0x6E SWAP2 SWAP1 PUSH2 0x343 JUMP JUMPDEST PUSH2 0xFD JUMP JUMPDEST STOP JUMPDEST PUSH2 0x8F PUSH1 0x4 DUP1 CALLDATASIZE SUB DUP2 ADD SWAP1 PUSH2 0x8A SWAP2 SWAP1 PUSH2 0x343 JUMP JUMPDEST PUSH2 0x128 JUMP JUMPDEST PUSH1 0x40 MLOAD PUSH2 0x9E SWAP4 SWAP3 SWAP2 SWAP1 PUSH2 0x407 JUMP JUMPDEST PUSH1 0x40 MLOAD DUP1 SWAP2 SUB SWAP1 RETURN JUMPDEST PUSH2 0xAF PUSH2 0x1DF JUMP JUMPDEST PUSH1 0x40 MLOAD PUSH2 0xBC SWAP2 SWAP1 PUSH2 0x443 JUMP JUMPDEST PUSH1 0x40 MLOAD DUP1 SWAP2 SUB SWAP1 RETURN JUMPDEST PUSH2 0xDF PUSH1 0x4 DUP1 CALLDATASIZE SUB DUP2 ADD SWAP1 PUSH2 0xDA SWAP2 SWAP1 PUSH2 0x588 JUMP JUMPDEST PUSH2 0x1E5 JUMP JUMPDEST STOP JUMPDEST PUSH2 0xFB PUSH1 0x4 DUP1 CALLDATASIZE SUB DUP2 ADD SWAP1 PUSH2 0xF6 SWAP2 SWAP1 PUSH2 0x343 JUMP JUMPDEST PUSH2 0x26A JUMP JUMPDEST STOP JUMPDEST PUSH0 DUP1 DUP3 DUP2 MSTORE PUSH1 0x20 ADD SWAP1 DUP2 MSTORE PUSH1 0x20 ADD PUSH0 KECCAK256 PUSH1 0x1 ADD PUSH0 DUP2 SLOAD DUP1 SWAP3 SWAP2 SWAP1 PUSH2 0x120 SWAP1 PUSH2 0x5FC JUMP JUMPDEST SWAP2 SWAP1 POP SSTORE POP POP JUMP JUMPDEST PUSH0 PUSH1 0x20 MSTORE DUP1 PUSH0 MSTORE PUSH1 0x40 PUSH0 KECCAK256 PUSH0 SWAP2 POP SWAP1 POP DUP1 PUSH0 ADD DUP1 SLOAD PUSH2 0x146 SWAP1 PUSH2 0x670 JUMP JUMPDEST DUP1 PUSH1 0x1F ADD PUSH1 0x20 DUP1 SWAP2 DIV MUL PUSH1 0x20 ADD PUSH1 0x40 MLOAD SWAP1 DUP2 ADD PUSH1 0x40 MSTORE DUP1 SWAP3 SWAP2 SWAP1 DUP2 DUP2 MSTORE PUSH1 0x20 ADD DUP3 DUP1 SLOAD PUSH2 0x172 SWAP1 PUSH2 0x670 JUMP JUMPDEST DUP1 ISZERO PUSH2 0x1BD JUMPI DUP1 PUSH1 0x1F LT PUSH2 0x194 JUMPI PUSH2 0x100 DUP1 DUP4 SLOAD DIV MUL DUP4 MSTORE SWAP2 PUSH1 0x20 ADD SWAP2 PUSH2 0x1BD JUMP JUMPDEST DUP3 ADD SWAP2 SWAP1 PUSH0 MSTORE PUSH1 0x20 PUSH0 KECCAK256 SWAP1 JUMPDEST DUP2 SLOAD DUP2 MSTORE SWAP1 PUSH1 0x1 ADD SWAP1 PUSH1 0x20 ADD DUP1 DUP4 GT PUSH2 0x1A0 JUMPI DUP3 SWAP1 SUB PUSH1 0x1F AND DUP3 ADD SWAP2 JUMPDEST POP POP POP POP POP SWAP1 DUP1 PUSH1 0x1 ADD SLOAD SWAP1 DUP1 PUSH1 0x2 ADD PUSH0 SWAP1 SLOAD SWAP1 PUSH2 0x100 EXP SWAP1 DIV PUSH1 0xFF AND SWAP1 POP DUP4 JUMP JUMPDEST PUSH1 0x1 SLOAD DUP2 JUMP JUMPDEST PUSH1 0x40 MLOAD DUP1 PUSH1 0x60 ADD PUSH1 0x40 MSTORE DUP1 DUP3 DUP2 MSTORE PUSH1 0x20 ADD PUSH0 DUP2 MSTORE PUSH1 0x20 ADD PUSH0 ISZERO ISZERO DUP2 MSTORE POP PUSH0 DUP1 PUSH1 0x1 PUSH0 DUP2 SLOAD DUP1 SWAP3 SWAP2 SWAP1 PUSH2 0x216 SWAP1 PUSH2 0x5FC JUMP JUMPDEST SWAP2 SWAP1 POP SSTORE DUP2 MSTORE PUSH1 0x20 ADD SWAP1 DUP2 MSTORE PUSH1 0x20 ADD PUSH0 KECCAK256 PUSH0 DUP3 ADD MLOAD DUP2 PUSH0 ADD SWAP1 DUP2 PUSH2 0x23A SWAP2 SWAP1 PUSH2 0x83D JUMP JUMPDEST POP PUSH1 0x20 DUP3 ADD MLOAD DUP2 PUSH1 0x1 ADD SSTORE PUSH1 0x40 DUP3 ADD MLOAD DUP2 PUSH1 0x2 ADD PUSH0 PUSH2 0x100 EXP DUP2 SLOAD DUP2 PUSH1 0xFF MUL NOT AND SWAP1 DUP4 ISZERO ISZERO MUL OR SWAP1 SSTORE POP SWAP1 POP POP POP JUMP JUMPDEST PUSH0 DUP1 PUSH0 DUP4 DUP2 MSTORE PUSH1 0x20 ADD SWAP1 DUP2 MSTORE PUSH1 0x20 ADD PUSH0 KECCAK256 SWAP1 POP DUP1 PUSH1 0x2 ADD PUSH0 SWAP1 SLOAD SWAP1 PUSH2 0x100 EXP SWAP1 DIV PUSH1 0xFF AND ISZERO DUP1 ISZERO PUSH2 0x2A0 JUMPI POP PUSH1 0x3 DUP2 PUSH1 0x1 ADD SLOAD LT ISZERO JUMPDEST PUSH2 0x2DF JUMPI PUSH1 0x40 MLOAD PUSH32 0x8C379A000000000000000000000000000000000000000000000000000000000 DUP2 MSTORE PUSH1 0x4 ADD PUSH2 0x2D6 SWAP1 PUSH2 0x956 JUMP JUMPDEST PUSH1 0x40 MLOAD DUP1 SWAP2 SUB SWAP1 REVERT JUMPDEST PUSH1 0x1 DUP2 PUSH1 0x2 ADD PUSH0 PUSH2 0x100 EXP DUP2 SLOAD DUP2 PUSH1 0xFF MUL NOT AND SWAP1 DUP4 ISZERO ISZERO MUL OR SWAP1 SSTORE POP POP POP JUMP JUMPDEST PUSH0 PUSH1 0x40 MLOAD SWAP1 POP SWAP1 JUMP JUMPDEST PUSH0 DUP1 REVERT JUMPDEST PUSH0 DUP1 REVERT JUMPDEST PUSH0 DUP2 SWAP1 POP SWAP2 SWAP1 POP JUMP JUMPDEST PUSH2 0x322 DUP2 PUSH2 0x310 JUMP JUMPDEST DUP2 EQ PUSH2 0x32C JUMPI PUSH0 DUP1 REVERT JUMPDEST POP JUMP JUMPDEST PUSH0 DUP2 CALLDATALOAD SWAP1 POP PUSH2 0x33D DUP2 PUSH2 0x319 JUMP JUMPDEST SWAP3 SWAP2 POP POP JUMP JUMPDEST PUSH0 PUSH1 0x20 DUP3 DUP5 SUB SLT ISZERO PUSH2 0x358 JUMPI PUSH2 0x357 PUSH2 0x308 JUMP JUMPDEST JUMPDEST PUSH0 PUSH2 0x365 DUP5 DUP3 DUP6 ADD PUSH2 0x32F JUMP JUMPDEST SWAP2 POP POP SWAP3 SWAP2 POP POP JUMP JUMPDEST PUSH0 DUP2 MLOAD SWAP1 POP SWAP2 SWAP1 POP JUMP JUMPDEST PUSH0 DUP3 DUP3 MSTORE PUSH1 0x20 DUP3 ADD SWAP1 POP SWAP3 SWAP2 POP POP JUMP JUMPDEST DUP3 DUP2 DUP4 MCOPY PUSH0 DUP4 DUP4 ADD MSTORE POP POP POP JUMP JUMPDEST PUSH0 PUSH1 0x1F NOT PUSH1 0x1F DUP4 ADD AND SWAP1 POP SWAP2 SWAP1 POP JUMP JUMPDEST PUSH0 PUSH2 0x3B0 DUP3 PUSH2 0x36E JUMP JUMPDEST PUSH2 0x3BA DUP2 DUP6 PUSH2 0x378 JUMP JUMPDEST SWAP4 POP PUSH2 0x3CA DUP2 DUP6 PUSH1 0x20 DUP7 ADD PUSH2 0x388 JUMP JUMPDEST PUSH2 0x3D3 DUP2 PUSH2 0x396 JUMP JUMPDEST DUP5 ADD SWAP2 POP POP SWAP3 SWAP2 POP POP JUMP JUMPDEST PUSH2 0x3E7 DUP2 PUSH2 0x310 JUMP JUMPDEST DUP3 MSTORE POP POP JUMP JUMPDEST PUSH0 DUP2 ISZERO ISZERO SWAP1 POP SWAP2 SWAP1 POP JUMP JUMPDEST PUSH2 0x401 DUP2 PUSH2 0x3ED JUMP JUMPDEST DUP3 MSTORE POP POP JUMP JUMPDEST PUSH0 PUSH1 0x60 DUP3 ADD SWAP1 POP DUP2 DUP2 SUB PUSH0 DUP4 ADD MSTORE PUSH2 0x41F DUP2 DUP7 PUSH2 0x3A6 JUMP JUMPDEST SWAP1 POP PUSH2 0x42E PUSH1 0x20 DUP4 ADD DUP6 PUSH2 0x3DE JUMP JUMPDEST PUSH2 0x43B PUSH1 0x40 DUP4 ADD DUP5 PUSH2 0x3F8 JUMP JUMPDEST SWAP5 SWAP4 POP POP POP POP JUMP JUMPDEST PUSH0 PUSH1 0x20 DUP3 ADD SWAP1 POP PUSH2 0x456 PUSH0 DUP4 ADD DUP5 PUSH2 0x3DE JUMP JUMPDEST SWAP3 SWAP2 POP POP JUMP JUMPDEST PUSH0 DUP1 REVERT JUMPDEST PUSH0 DUP1 REVERT JUMPDEST PUSH32 0x4E487B7100000000000000000000000000000000000000000000000000000000 PUSH0 MSTORE PUSH1 0x41 PUSH1 0x4 MSTORE PUSH1 0x24 PUSH0 REVERT JUMPDEST PUSH2 0x49A DUP3 PUSH2 0x396 JUMP JUMPDEST DUP2 ADD DUP2 DUP2 LT PUSH8 0xFFFFFFFFFFFFFFFF DUP3 GT OR ISZERO PUSH2 0x4B9 JUMPI PUSH2 0x4B8 PUSH2 0x464 JUMP JUMPDEST JUMPDEST DUP1 PUSH1 0x40 MSTORE POP POP POP JUMP JUMPDEST PUSH0 PUSH2 0x4CB PUSH2 0x2FF JUMP JUMPDEST SWAP1 POP PUSH2 0x4D7 DUP3 DUP3 PUSH2 0x491 JUMP JUMPDEST SWAP2 SWAP1 POP JUMP JUMPDEST PUSH0 PUSH8 0xFFFFFFFFFFFFFFFF DUP3 GT ISZERO PUSH2 0x4F6 JUMPI PUSH2 0x4F5 PUSH2 0x464 JUMP JUMPDEST JUMPDEST PUSH2 0x4FF DUP3 PUSH2 0x396 JUMP JUMPDEST SWAP1 POP PUSH1 0x20 DUP2 ADD SWAP1 POP SWAP2 SWAP1 POP JUMP JUMPDEST DUP3 DUP2 DUP4 CALLDATACOPY PUSH0 DUP4 DUP4 ADD MSTORE POP POP POP JUMP JUMPDEST PUSH0 PUSH2 0x52C PUSH2 0x527 DUP5 PUSH2 0x4DC JUMP JUMPDEST PUSH2 0x4C2 JUMP JUMPDEST SWAP1 POP DUP3 DUP2 MSTORE PUSH1 0x20 DUP2 ADD DUP5 DUP5 DUP5 ADD GT ISZERO PUSH2 0x548 JUMPI PUSH2 0x547 PUSH2 0x460 JUMP JUMPDEST JUMPDEST PUSH2 0x553 DUP5 DUP3 DUP6 PUSH2 0x50C JUMP JUMPDEST POP SWAP4 SWAP3 POP POP POP JUMP JUMPDEST PUSH0 DUP3 PUSH1 0x1F DUP4 ADD SLT PUSH2 0x56F JUMPI PUSH2 0x56E PUSH2 0x45C JUMP JUMPDEST JUMPDEST DUP2 CALLDATALOAD PUSH2 0x57F DUP5 DUP3 PUSH1 0x20 DUP7 ADD PUSH2 0x51A JUMP JUMPDEST SWAP2 POP POP SWAP3 SWAP2 POP POP JUMP JUMPDEST PUSH0 PUSH1 0x20 DUP3 DUP5 SUB SLT ISZERO PUSH2 0x59D JUMPI PUSH2 0x59C PUSH2 0x308 JUMP JUMPDEST JUMPDEST PUSH0 DUP3 ADD CALLDATALOAD PUSH8 0xFFFFFFFFFFFFFFFF DUP2 GT ISZERO PUSH2 0x5BA JUMPI PUSH2 0x5B9 PUSH2 0x30C JUMP JUMPDEST JUMPDEST PUSH2 0x5C6 DUP5 DUP3 DUP6 ADD PUSH2 0x55B JUMP JUMPDEST SWAP2 POP POP SWAP3 SWAP2 POP POP JUMP JUMPDEST PUSH32 0x4E487B7100000000000000000000000000000000000000000000000000000000 PUSH0 MSTORE PUSH1 0x11 PUSH1 0x4 MSTORE PUSH1 0x24 PUSH0 REVERT JUMPDEST PUSH0 PUSH2 0x606 DUP3 PUSH2 0x310 JUMP JUMPDEST SWAP2 POP PUSH32 0xFFFFFFFFFFFFFFFFFFFFFFFFFFFFFFFFFFFFFFFFFFFFFFFFFFFFFFFFFFFFFFFF DUP3 SUB PUSH2 0x638 JUMPI PUSH2 0x637 PUSH2 0x5CF JUMP JUMPDEST JUMPDEST PUSH1 0x1 DUP3 ADD SWAP1 POP SWAP2 SWAP1 POP JUMP JUMPDEST PUSH32 0x4E487B7100000000000000000000000000000000000000000000000000000000 PUSH0 MSTORE PUSH1 0x22 PUSH1 0x4 MSTORE PUSH1 0x24 PUSH0 REVERT JUMPDEST PUSH0 PUSH1 0x2 DUP3 DIV SWAP1 POP PUSH1 0x1 DUP3 AND DUP1 PUSH2 0x687 JUMPI PUSH1 0x7F DUP3 AND SWAP2 POP JUMPDEST PUSH1 0x20 DUP3 LT DUP2 SUB PUSH2 0x69A JUMPI PUSH2 0x699 PUSH2 0x643 JUMP JUMPDEST JUMPDEST POP SWAP2 SWAP1 POP JUMP JUMPDEST PUSH0 DUP2 SWAP1 POP DUP2 PUSH0 MSTORE PUSH1 0x20 PUSH0 KECCAK256 SWAP1 POP SWAP2 SWAP1 POP JUMP JUMPDEST PUSH0 PUSH1 0x20 PUSH1 0x1F DUP4 ADD DIV SWAP1 POP SWAP2 SWAP1 POP JUMP JUMPDEST PUSH0 DUP3 DUP3 SHL SWAP1 POP SWAP3 SWAP2 POP POP JUMP JUMPDEST PUSH0 PUSH1 0x8 DUP4 MUL PUSH2 0x6FC PUSH32 0xFFFFFFFFFFFFFFFFFFFFFFFFFFFFFFFFFFFFFFFFFFFFFFFFFFFFFFFFFFFFFFFF DUP3 PUSH2 0x6C1 JUMP JUMPDEST PUSH2 0x706 DUP7 DUP4 PUSH2 0x6C1 JUMP JUMPDEST SWAP6 POP DUP1 NOT DUP5 AND SWAP4 POP DUP1 DUP7 AND DUP5 OR SWAP3 POP POP POP SWAP4 SWAP3 POP POP POP JUMP JUMPDEST PUSH0 DUP2 SWAP1 POP SWAP2 SWAP1 POP JUMP JUMPDEST PUSH0 PUSH2 0x741 PUSH2 0x73C PUSH2 0x737 DUP5 PUSH2 0x310 JUMP JUMPDEST PUSH2 0x71E JUMP JUMPDEST PUSH2 0x310 JUMP JUMPDEST SWAP1 POP SWAP2 SWAP1 POP JUMP JUMPDEST PUSH0 DUP2 SWAP1 POP SWAP2 SWAP1 POP JUMP JUMPDEST PUSH2 0x75A DUP4 PUSH2 0x727 JUMP JUMPDEST PUSH2 0x76E PUSH2 0x766 DUP3 PUSH2 0x748 JUMP JUMPDEST DUP5 DUP5 SLOAD PUSH2 0x6CD JUMP JUMPDEST DUP3 SSTORE POP POP POP POP JUMP JUMPDEST PUSH0 SWAP1 JUMP JUMPDEST PUSH2 0x782 PUSH2 0x776 JUMP JUMPDEST PUSH2 0x78D DUP2 DUP5 DUP5 PUSH2 0x751 JUMP JUMPDEST POP POP POP JUMP JUMPDEST JUMPDEST DUP2 DUP2 LT ISZERO PUSH2 0x7B0 JUMPI PUSH2 0x7A5 PUSH0 DUP3 PUSH2 0x77A JUMP JUMPDEST PUSH1 0x1 DUP2 ADD SWAP1 POP PUSH2 0x793 JUMP JUMPDEST POP POP JUMP JUMPDEST PUSH1 0x1F DUP3 GT ISZERO PUSH2 0x7F5 JUMPI PUSH2 0x7C6 DUP2 PUSH2 0x6A0 JUMP JUMPDEST PUSH2 0x7CF DUP5 PUSH2 0x6B2 JUMP JUMPDEST DUP2 ADD PUSH1 0x20 DUP6 LT ISZERO PUSH2 0x7DE JUMPI DUP2 SWAP1 POP JUMPDEST PUSH2 0x7F2 PUSH2 0x7EA DUP6 PUSH2 0x6B2 JUMP JUMPDEST DUP4 ADD DUP3 PUSH2 0x792 JUMP JUMPDEST POP POP JUMPDEST POP POP POP JUMP JUMPDEST PUSH0 DUP3 DUP3 SHR SWAP1 POP SWAP3 SWAP2 POP POP JUMP JUMPDEST PUSH0 PUSH2 0x815 PUSH0 NOT DUP5 PUSH1 0x8 MUL PUSH2 0x7FA JUMP JUMPDEST NOT DUP1 DUP4 AND SWAP2 POP POP SWAP3 SWAP2 POP POP JUMP JUMPDEST PUSH0 PUSH2 0x82D DUP4 DUP4 PUSH2 0x806 JUMP JUMPDEST SWAP2 POP DUP3 PUSH1 0x2 MUL DUP3 OR SWAP1 POP SWAP3 SWAP2 POP POP JUMP JUMPDEST PUSH2 0x846 DUP3 PUSH2 0x36E JUMP JUMPDEST PUSH8 0xFFFFFFFFFFFFFFFF DUP2 GT ISZERO PUSH2 0x85F JUMPI PUSH2 0x85E PUSH2 0x464 JUMP JUMPDEST JUMPDEST PUSH2 0x869 DUP3 SLOAD PUSH2 0x670 JUMP JUMPDEST PUSH2 0x874 DUP3 DUP3 DUP6 PUSH2 0x7B4 JUMP JUMPDEST PUSH0 PUSH1 0x20 SWAP1 POP PUSH1 0x1F DUP4 GT PUSH1 0x1 DUP2 EQ PUSH2 0x8A5 JUMPI PUSH0 DUP5 ISZERO PUSH2 0x893 JUMPI DUP3 DUP8 ADD MLOAD SWAP1 POP JUMPDEST PUSH2 0x89D DUP6 DUP3 PUSH2 0x822 JUMP JUMPDEST DUP7 SSTORE POP PUSH2 0x904 JUMP JUMPDEST PUSH1 0x1F NOT DUP5 AND PUSH2 0x8B3 DUP7 PUSH2 0x6A0 JUMP JUMPDEST PUSH0 JUMPDEST DUP3 DUP2 LT ISZERO PUSH2 0x8DA JUMPI DUP5 DUP10 ADD MLOAD DUP3 SSTORE PUSH1 0x1 DUP3 ADD SWAP2 POP PUSH1 0x20 DUP6 ADD SWAP5 POP PUSH1 0x20 DUP2 ADD SWAP1 POP PUSH2 0x8B5 JUMP JUMPDEST DUP7 DUP4 LT ISZERO PUSH2 0x8F7 JUMPI DUP5 DUP10 ADD MLOAD PUSH2 0x8F3 PUSH1 0x1F DUP10 AND DUP3 PUSH2 0x806 JUMP JUMPDEST DUP4 SSTORE POP JUMPDEST PUSH1 0x1 PUSH1 0x2 DUP9 MUL ADD DUP9 SSTORE POP POP POP JUMPDEST POP POP POP POP POP POP JUMP JUMPDEST PUSH32 0x4E6F742072656164790000000000000000000000000000000000000000000000 PUSH0 DUP3 ADD MSTORE POP JUMP JUMPDEST PUSH0 PUSH2 0x940 PUSH1 0x9 DUP4 PUSH2 0x378 JUMP JUMPDEST SWAP2 POP PUSH2 0x94B DUP3 PUSH2 0x90C JUMP JUMPDEST PUSH1 0x20 DUP3 ADD SWAP1 POP SWAP2 SWAP1 POP JUMP JUMPDEST PUSH0 PUSH1 0x20 DUP3 ADD SWAP1 POP DUP2 DUP2 SUB PUSH0 DUP4 ADD MSTORE PUSH2 0x96D DUP2 PUSH2 0x934 JUMP JUMPDEST SWAP1 POP SWAP2 SWAP1 POP JUMP INVALID LOG2 PUSH5 0x6970667358 0x22 SLT KECCAK256 0xBE CREATE EXP SELFDESTRUCT 0x4E SWAP9 GT BASEFEE 0xB5 0xD2 SWAP11 LOG4 ISZERO GT 0xA8 PUSH30 0x3C0749D6A4F397BD9834EDF3D111D22B64736F6C634300081A0033000000 "
				},
				"gasEstimates": {
					"creation": {
						"codeDepositCost": "494800",
						"executionCost": "528",
						"totalCost": "495328"
					},
					"external": {
						"execute(uint256)": "29128",
						"proposalId()": "2447",
						"proposals(uint256)": "infinite",
						"propose(string)": "infinite",
						"vote(uint256)": "infinite"
					}
				},
				"methodIdentifiers": {
					"execute(uint256)": "fe0d94c1",
					"proposalId()": "2dfca445",
					"proposals(uint256)": "013cf08b",
					"propose(string)": "aa98df39",
					"vote(uint256)": "0121b93f"
				}
			},
			"storageLayout": {
				"storage": [
					{
						"astId": 13,
						"contract": "K/Kernel/Governance Kernel (DAO Core Layer).sol:GovernanceKernel",
						"label": "proposals",
						"offset": 0,
						"slot": "0",
						"type": "t_mapping(t_uint256,t_struct(Proposal)8_storage)"
					},
					{
						"astId": 15,
						"contract": "K/Kernel/Governance Kernel (DAO Core Layer).sol:GovernanceKernel",
						"label": "proposalId",
						"offset": 0,
						"slot": "1",
						"type": "t_uint256"
					}
				],
				"types": {
					"t_bool": {
						"encoding": "inplace",
						"label": "bool",
						"numberOfBytes": "1"
					},
					"t_mapping(t_uint256,t_struct(Proposal)8_storage)": {
						"encoding": "mapping",
						"key": "t_uint256",
						"label": "mapping(uint256 => struct GovernanceKernel.Proposal)",
						"numberOfBytes": "32",
						"value": "t_struct(Proposal)8_storage"
					},
					"t_string_storage": {
						"encoding": "bytes",
						"label": "string",
						"numberOfBytes": "32"
					},
					"t_struct(Proposal)8_storage": {
						"encoding": "inplace",
						"label": "struct GovernanceKernel.Proposal",
						"members": [
							{
								"astId": 3,
								"contract": "K/Kernel/Governance Kernel (DAO Core Layer).sol:GovernanceKernel",
								"label": "description",
								"offset": 0,
								"slot": "0",
								"type": "t_string_storage"
							},
							{
								"astId": 5,
								"contract": "K/Kernel/Governance Kernel (DAO Core Layer).sol:GovernanceKernel",
								"label": "voteCount",
								"offset": 0,
								"slot": "1",
								"type": "t_uint256"
							},
							{
								"astId": 7,
								"contract": "K/Kernel/Governance Kernel (DAO Core Layer).sol:GovernanceKernel",
								"label": "executed",
								"offset": 0,
								"slot": "2",
								"type": "t_bool"
							}
						],
						"numberOfBytes": "96"
					},
					"t_uint256": {
						"encoding": "inplace",
						"label": "uint256",
						"numberOfBytes": "32"
					}
				}
			},
			"userdoc": {
				"kind": "user",
				"methods": {},
				"version": 1
			}
		}
	}
}