{
	"K/Kernel/Modular Kernel Pattern.sol": {
		"ModularKernel": {
			"abi": [
				{
					"inputs": [],
					"stateMutability": "nonpayable",
					"type": "constructor"
				},
				{
					"inputs": [],
					"name": "admin",
					"outputs": [
						{
							"internalType": "address",
							"name": "",
							"type": "address"
						}
					],
					"stateMutability": "view",
					"type": "function"
				},
				{
					"inputs": [
						{
							"internalType": "string",
							"name": "",
							"type": "string"
						}
					],
					"name": "modules",
					"outputs": [
						{
							"internalType": "address",
							"name": "",
							"type": "address"
						}
					],
					"stateMutability": "view",
					"type": "function"
				},
				{
					"inputs": [
						{
							"internalType": "string",
							"name": "name",
							"type": "string"
						},
						{
							"internalType": "address",
							"name": "moduleAddr",
							"type": "address"
						}
					],
					"name": "registerModule",
					"outputs": [],
					"stateMutability": "nonpayable",
					"type": "function"
				},
				{
					"inputs": [
						{
							"internalType": "string",
							"name": "name",
							"type": "string"
						},
						{
							"internalType": "bytes",
							"name": "input",
							"type": "bytes"
						}
					],
					"name": "runModule",
					"outputs": [
						{
							"internalType": "bool",
							"name": "",
							"type": "bool"
						}
					],
					"stateMutability": "nonpayable",
					"type": "function"
				}
			],
			"devdoc": {
				"kind": "dev",
				"methods": {},
				"version": 1
			},
			"evm": {
				"assembly": "    /* \"K/Kernel/Modular Kernel Pattern.sol\":117:668  contract ModularKernel {... */\n  mstore(0x40, 0x80)\n    /* \"K/Kernel/Modular Kernel Pattern.sol\":220:269  constructor() {... */\n  callvalue\n  dup1\n  iszero\n  tag_1\n  jumpi\n  0x00\n  dup1\n  revert\ntag_1:\n  pop\n    /* \"K/Kernel/Modular Kernel Pattern.sol\":252:262  msg.sender */\n  caller\n    /* \"K/Kernel/Modular Kernel Pattern.sol\":244:249  admin */\n  0x01\n  0x00\n    /* \"K/Kernel/Modular Kernel Pattern.sol\":244:262  admin = msg.sender */\n  0x0100\n  exp\n  dup2\n  sload\n  dup2\n  0xffffffffffffffffffffffffffffffffffffffff\n  mul\n  not\n  and\n  swap1\n  dup4\n  0xffffffffffffffffffffffffffffffffffffffff\n  and\n  mul\n  or\n  swap1\n  sstore\n  pop\n    /* \"K/Kernel/Modular Kernel Pattern.sol\":117:668  contract ModularKernel {... */\n  dataSize(sub_0)\n  dup1\n  dataOffset(sub_0)\n  0x00\n  codecopy\n  0x00\n  return\nstop\n\nsub_0: assembly {\n        /* \"K/Kernel/Modular Kernel Pattern.sol\":117:668  contract ModularKernel {... */\n      mstore(0x40, 0x80)\n      callvalue\n      dup1\n      iszero\n      tag_1\n      jumpi\n      0x00\n      dup1\n      revert\n    tag_1:\n      pop\n      jumpi(tag_2, lt(calldatasize, 0x04))\n      shr(0xe0, calldataload(0x00))\n      dup1\n      0x0b7e4c61\n      eq\n      tag_3\n      jumpi\n      dup1\n      0x639cc67d\n      eq\n      tag_4\n      jumpi\n      dup1\n      0x99b0d6d0\n      eq\n      tag_5\n      jumpi\n      dup1\n      0xf851a440\n      eq\n      tag_6\n      jumpi\n    tag_2:\n      0x00\n      dup1\n      revert\n        /* \"K/Kernel/Modular Kernel Pattern.sol\":449:666  function runModule(string memory name, bytes calldata input) external returns (bool) {... */\n    tag_3:\n      tag_7\n      0x04\n      dup1\n      calldatasize\n      sub\n      dup2\n      add\n      swap1\n      tag_8\n      swap2\n      swap1\n      tag_9\n      jump\t// in\n    tag_8:\n      tag_10\n      jump\t// in\n    tag_7:\n      mload(0x40)\n      tag_11\n      swap2\n      swap1\n      tag_12\n      jump\t// in\n    tag_11:\n      mload(0x40)\n      dup1\n      swap2\n      sub\n      swap1\n      return\n        /* \"K/Kernel/Modular Kernel Pattern.sol\":275:443  function registerModule(string memory name, address moduleAddr) external {... */\n    tag_4:\n      tag_13\n      0x04\n      dup1\n      calldatasize\n      sub\n      dup2\n      add\n      swap1\n      tag_14\n      swap2\n      swap1\n      tag_15\n      jump\t// in\n    tag_14:\n      tag_16\n      jump\t// in\n    tag_13:\n      stop\n        /* \"K/Kernel/Modular Kernel Pattern.sol\":146:187  mapping(string => address) public modules */\n    tag_5:\n      tag_17\n      0x04\n      dup1\n      calldatasize\n      sub\n      dup2\n      add\n      swap1\n      tag_18\n      swap2\n      swap1\n      tag_19\n      jump\t// in\n    tag_18:\n      tag_20\n      jump\t// in\n    tag_17:\n      mload(0x40)\n      tag_21\n      swap2\n      swap1\n      tag_22\n      jump\t// in\n    tag_21:\n      mload(0x40)\n      dup1\n      swap2\n      sub\n      swap1\n      return\n        /* \"K/Kernel/Modular Kernel Pattern.sol\":193:213  address public admin */\n    tag_6:\n      tag_23\n      tag_24\n      jump\t// in\n    tag_23:\n      mload(0x40)\n      tag_25\n      swap2\n      swap1\n      tag_22\n      jump\t// in\n    tag_25:\n      mload(0x40)\n      dup1\n      swap2\n      sub\n      swap1\n      return\n        /* \"K/Kernel/Modular Kernel Pattern.sol\":449:666  function runModule(string memory name, bytes calldata input) external returns (bool) {... */\n    tag_10:\n        /* \"K/Kernel/Modular Kernel Pattern.sol\":528:532  bool */\n      0x00\n        /* \"K/Kernel/Modular Kernel Pattern.sol\":577:578  0 */\n      dup1\n        /* \"K/Kernel/Modular Kernel Pattern.sol\":552:579  modules[name] != address(0) */\n      0xffffffffffffffffffffffffffffffffffffffff\n      and\n        /* \"K/Kernel/Modular Kernel Pattern.sol\":552:559  modules */\n      0x00\n        /* \"K/Kernel/Modular Kernel Pattern.sol\":560:564  name */\n      dup6\n        /* \"K/Kernel/Modular Kernel Pattern.sol\":552:565  modules[name] */\n      mload(0x40)\n      tag_27\n      swap2\n      swap1\n      tag_28\n      jump\t// in\n    tag_27:\n      swap1\n      dup2\n      mstore\n      0x20\n      add\n      mload(0x40)\n      dup1\n      swap2\n      sub\n      swap1\n      keccak256\n      0x00\n      swap1\n      sload\n      swap1\n      0x0100\n      exp\n      swap1\n      div\n      0xffffffffffffffffffffffffffffffffffffffff\n      and\n        /* \"K/Kernel/Modular Kernel Pattern.sol\":552:579  modules[name] != address(0) */\n      0xffffffffffffffffffffffffffffffffffffffff\n      and\n      sub\n        /* \"K/Kernel/Modular Kernel Pattern.sol\":544:605  require(modules[name] != address(0), \"Module not registered\") */\n      tag_29\n      jumpi\n      mload(0x40)\n      0x08c379a000000000000000000000000000000000000000000000000000000000\n      dup2\n      mstore\n      0x04\n      add\n      tag_30\n      swap1\n      tag_31\n      jump\t// in\n    tag_30:\n      mload(0x40)\n      dup1\n      swap2\n      sub\n      swap1\n      revert\n    tag_29:\n        /* \"K/Kernel/Modular Kernel Pattern.sol\":630:637  modules */\n      0x00\n        /* \"K/Kernel/Modular Kernel Pattern.sol\":638:642  name */\n      dup5\n        /* \"K/Kernel/Modular Kernel Pattern.sol\":630:643  modules[name] */\n      mload(0x40)\n      tag_32\n      swap2\n      swap1\n      tag_28\n      jump\t// in\n    tag_32:\n      swap1\n      dup2\n      mstore\n      0x20\n      add\n      mload(0x40)\n      dup1\n      swap2\n      sub\n      swap1\n      keccak256\n      0x00\n      swap1\n      sload\n      swap1\n      0x0100\n      exp\n      swap1\n      div\n      0xffffffffffffffffffffffffffffffffffffffff\n      and\n        /* \"K/Kernel/Modular Kernel Pattern.sol\":622:652  IModule(modules[name]).execute */\n      0xffffffffffffffffffffffffffffffffffffffff\n      and\n      0x09c5eabe\n        /* \"K/Kernel/Modular Kernel Pattern.sol\":653:658  input */\n      dup5\n      dup5\n        /* \"K/Kernel/Modular Kernel Pattern.sol\":622:659  IModule(modules[name]).execute(input) */\n      mload(0x40)\n      dup4\n      0xffffffff\n      and\n      0xe0\n      shl\n      dup2\n      mstore\n      0x04\n      add\n      tag_33\n      swap3\n      swap2\n      swap1\n      tag_34\n      jump\t// in\n    tag_33:\n      0x20\n      mload(0x40)\n      dup1\n      dup4\n      sub\n      dup2\n      0x00\n      dup8\n      gas\n      call\n      iszero\n      dup1\n      iszero\n      tag_36\n      jumpi\n      returndatasize\n      0x00\n      dup1\n      returndatacopy\n      revert(0x00, returndatasize)\n    tag_36:\n      pop\n      pop\n      pop\n      pop\n      mload(0x40)\n      returndatasize\n      not(0x1f)\n      0x1f\n      dup3\n      add\n      and\n      dup3\n      add\n      dup1\n      0x40\n      mstore\n      pop\n      dup2\n      add\n      swap1\n      tag_37\n      swap2\n      swap1\n      tag_38\n      jump\t// in\n    tag_37:\n        /* \"K/Kernel/Modular Kernel Pattern.sol\":615:659  return IModule(modules[name]).execute(input) */\n      swap1\n      pop\n        /* \"K/Kernel/Modular Kernel Pattern.sol\":449:666  function runModule(string memory name, bytes calldata input) external returns (bool) {... */\n      swap4\n      swap3\n      pop\n      pop\n      pop\n      jump\t// out\n        /* \"K/Kernel/Modular Kernel Pattern.sol\":275:443  function registerModule(string memory name, address moduleAddr) external {... */\n    tag_16:\n        /* \"K/Kernel/Modular Kernel Pattern.sol\":380:385  admin */\n      0x01\n      0x00\n      swap1\n      sload\n      swap1\n      0x0100\n      exp\n      swap1\n      div\n      0xffffffffffffffffffffffffffffffffffffffff\n      and\n        /* \"K/Kernel/Modular Kernel Pattern.sol\":366:385  msg.sender == admin */\n      0xffffffffffffffffffffffffffffffffffffffff\n      and\n        /* \"K/Kernel/Modular Kernel Pattern.sol\":366:376  msg.sender */\n      caller\n        /* \"K/Kernel/Modular Kernel Pattern.sol\":366:385  msg.sender == admin */\n      0xffffffffffffffffffffffffffffffffffffffff\n      and\n      eq\n        /* \"K/Kernel/Modular Kernel Pattern.sol\":358:400  require(msg.sender == admin, \"Only admin\") */\n      tag_40\n      jumpi\n      mload(0x40)\n      0x08c379a000000000000000000000000000000000000000000000000000000000\n      dup2\n      mstore\n      0x04\n      add\n      tag_41\n      swap1\n      tag_42\n      jump\t// in\n    tag_41:\n      mload(0x40)\n      dup1\n      swap2\n      sub\n      swap1\n      revert\n    tag_40:\n        /* \"K/Kernel/Modular Kernel Pattern.sol\":426:436  moduleAddr */\n      dup1\n        /* \"K/Kernel/Modular Kernel Pattern.sol\":410:417  modules */\n      0x00\n        /* \"K/Kernel/Modular Kernel Pattern.sol\":418:422  name */\n      dup4\n        /* \"K/Kernel/Modular Kernel Pattern.sol\":410:423  modules[name] */\n      mload(0x40)\n      tag_43\n      swap2\n      swap1\n      tag_28\n      jump\t// in\n    tag_43:\n      swap1\n      dup2\n      mstore\n      0x20\n      add\n      mload(0x40)\n      dup1\n      swap2\n      sub\n      swap1\n      keccak256\n      0x00\n        /* \"K/Kernel/Modular Kernel Pattern.sol\":410:436  modules[name] = moduleAddr */\n      0x0100\n      exp\n      dup2\n      sload\n      dup2\n      0xffffffffffffffffffffffffffffffffffffffff\n      mul\n      not\n      and\n      swap1\n      dup4\n      0xffffffffffffffffffffffffffffffffffffffff\n      and\n      mul\n      or\n      swap1\n      sstore\n      pop\n        /* \"K/Kernel/Modular Kernel Pattern.sol\":275:443  function registerModule(string memory name, address moduleAddr) external {... */\n      pop\n      pop\n      jump\t// out\n        /* \"K/Kernel/Modular Kernel Pattern.sol\":146:187  mapping(string => address) public modules */\n    tag_20:\n      0x00\n      dup2\n      dup1\n      mload\n      0x20\n      dup2\n      add\n      dup3\n      add\n      dup1\n      mload\n      dup5\n      dup3\n      mstore\n      0x20\n      dup4\n      add\n      0x20\n      dup6\n      add\n      keccak256\n      dup2\n      dup4\n      mstore\n      dup1\n      swap6\n      pop\n      pop\n      pop\n      pop\n      pop\n      pop\n      0x00\n      swap2\n      pop\n      sload\n      swap1\n      0x0100\n      exp\n      swap1\n      div\n      0xffffffffffffffffffffffffffffffffffffffff\n      and\n      dup2\n      jump\t// out\n        /* \"K/Kernel/Modular Kernel Pattern.sol\":193:213  address public admin */\n    tag_24:\n      0x01\n      0x00\n      swap1\n      sload\n      swap1\n      0x0100\n      exp\n      swap1\n      div\n      0xffffffffffffffffffffffffffffffffffffffff\n      and\n      dup2\n      jump\t// out\n        /* \"#utility.yul\":7:82   */\n    tag_44:\n        /* \"#utility.yul\":40:46   */\n      0x00\n        /* \"#utility.yul\":73:75   */\n      0x40\n        /* \"#utility.yul\":67:76   */\n      mload\n        /* \"#utility.yul\":57:76   */\n      swap1\n      pop\n        /* \"#utility.yul\":7:82   */\n      swap1\n      jump\t// out\n        /* \"#utility.yul\":88:205   */\n    tag_45:\n        /* \"#utility.yul\":197:198   */\n      0x00\n        /* \"#utility.yul\":194:195   */\n      dup1\n        /* \"#utility.yul\":187:199   */\n      revert\n        /* \"#utility.yul\":211:328   */\n    tag_46:\n        /* \"#utility.yul\":320:321   */\n      0x00\n        /* \"#utility.yul\":317:318   */\n      dup1\n        /* \"#utility.yul\":310:322   */\n      revert\n        /* \"#utility.yul\":334:451   */\n    tag_47:\n        /* \"#utility.yul\":443:444   */\n      0x00\n        /* \"#utility.yul\":440:441   */\n      dup1\n        /* \"#utility.yul\":433:445   */\n      revert\n        /* \"#utility.yul\":457:574   */\n    tag_48:\n        /* \"#utility.yul\":566:567   */\n      0x00\n        /* \"#utility.yul\":563:564   */\n      dup1\n        /* \"#utility.yul\":556:568   */\n      revert\n        /* \"#utility.yul\":580:682   */\n    tag_49:\n        /* \"#utility.yul\":621:627   */\n      0x00\n        /* \"#utility.yul\":672:674   */\n      0x1f\n        /* \"#utility.yul\":668:675   */\n      not\n        /* \"#utility.yul\":663:665   */\n      0x1f\n        /* \"#utility.yul\":656:661   */\n      dup4\n        /* \"#utility.yul\":652:666   */\n      add\n        /* \"#utility.yul\":648:676   */\n      and\n        /* \"#utility.yul\":638:676   */\n      swap1\n      pop\n        /* \"#utility.yul\":580:682   */\n      swap2\n      swap1\n      pop\n      jump\t// out\n        /* \"#utility.yul\":688:868   */\n    tag_50:\n        /* \"#utility.yul\":736:813   */\n      0x4e487b7100000000000000000000000000000000000000000000000000000000\n        /* \"#utility.yul\":733:734   */\n      0x00\n        /* \"#utility.yul\":726:814   */\n      mstore\n        /* \"#utility.yul\":833:837   */\n      0x41\n        /* \"#utility.yul\":830:831   */\n      0x04\n        /* \"#utility.yul\":823:838   */\n      mstore\n        /* \"#utility.yul\":857:861   */\n      0x24\n        /* \"#utility.yul\":854:855   */\n      0x00\n        /* \"#utility.yul\":847:862   */\n      revert\n        /* \"#utility.yul\":874:1155   */\n    tag_51:\n        /* \"#utility.yul\":957:984   */\n      tag_89\n        /* \"#utility.yul\":979:983   */\n      dup3\n        /* \"#utility.yul\":957:984   */\n      tag_49\n      jump\t// in\n    tag_89:\n        /* \"#utility.yul\":949:955   */\n      dup2\n        /* \"#utility.yul\":945:985   */\n      add\n        /* \"#utility.yul\":1087:1093   */\n      dup2\n        /* \"#utility.yul\":1075:1085   */\n      dup2\n        /* \"#utility.yul\":1072:1094   */\n      lt\n        /* \"#utility.yul\":1051:1069   */\n      0xffffffffffffffff\n        /* \"#utility.yul\":1039:1049   */\n      dup3\n        /* \"#utility.yul\":1036:1070   */\n      gt\n        /* \"#utility.yul\":1033:1095   */\n      or\n        /* \"#utility.yul\":1030:1118   */\n      iszero\n      tag_90\n      jumpi\n        /* \"#utility.yul\":1098:1116   */\n      tag_91\n      tag_50\n      jump\t// in\n    tag_91:\n        /* \"#utility.yul\":1030:1118   */\n    tag_90:\n        /* \"#utility.yul\":1138:1148   */\n      dup1\n        /* \"#utility.yul\":1134:1136   */\n      0x40\n        /* \"#utility.yul\":1127:1149   */\n      mstore\n        /* \"#utility.yul\":917:1155   */\n      pop\n        /* \"#utility.yul\":874:1155   */\n      pop\n      pop\n      jump\t// out\n        /* \"#utility.yul\":1161:1290   */\n    tag_52:\n        /* \"#utility.yul\":1195:1201   */\n      0x00\n        /* \"#utility.yul\":1222:1242   */\n      tag_93\n      tag_44\n      jump\t// in\n    tag_93:\n        /* \"#utility.yul\":1212:1242   */\n      swap1\n      pop\n        /* \"#utility.yul\":1251:1284   */\n      tag_94\n        /* \"#utility.yul\":1279:1283   */\n      dup3\n        /* \"#utility.yul\":1271:1277   */\n      dup3\n        /* \"#utility.yul\":1251:1284   */\n      tag_51\n      jump\t// in\n    tag_94:\n        /* \"#utility.yul\":1161:1290   */\n      swap2\n      swap1\n      pop\n      jump\t// out\n        /* \"#utility.yul\":1296:1604   */\n    tag_53:\n        /* \"#utility.yul\":1358:1362   */\n      0x00\n        /* \"#utility.yul\":1448:1466   */\n      0xffffffffffffffff\n        /* \"#utility.yul\":1440:1446   */\n      dup3\n        /* \"#utility.yul\":1437:1467   */\n      gt\n        /* \"#utility.yul\":1434:1490   */\n      iszero\n      tag_96\n      jumpi\n        /* \"#utility.yul\":1470:1488   */\n      tag_97\n      tag_50\n      jump\t// in\n    tag_97:\n        /* \"#utility.yul\":1434:1490   */\n    tag_96:\n        /* \"#utility.yul\":1508:1537   */\n      tag_98\n        /* \"#utility.yul\":1530:1536   */\n      dup3\n        /* \"#utility.yul\":1508:1537   */\n      tag_49\n      jump\t// in\n    tag_98:\n        /* \"#utility.yul\":1500:1537   */\n      swap1\n      pop\n        /* \"#utility.yul\":1592:1596   */\n      0x20\n        /* \"#utility.yul\":1586:1590   */\n      dup2\n        /* \"#utility.yul\":1582:1597   */\n      add\n        /* \"#utility.yul\":1574:1597   */\n      swap1\n      pop\n        /* \"#utility.yul\":1296:1604   */\n      swap2\n      swap1\n      pop\n      jump\t// out\n        /* \"#utility.yul\":1610:1758   */\n    tag_54:\n        /* \"#utility.yul\":1708:1714   */\n      dup3\n        /* \"#utility.yul\":1703:1706   */\n      dup2\n        /* \"#utility.yul\":1698:1701   */\n      dup4\n        /* \"#utility.yul\":1685:1715   */\n      calldatacopy\n        /* \"#utility.yul\":1749:1750   */\n      0x00\n        /* \"#utility.yul\":1740:1746   */\n      dup4\n        /* \"#utility.yul\":1735:1738   */\n      dup4\n        /* \"#utility.yul\":1731:1747   */\n      add\n        /* \"#utility.yul\":1724:1751   */\n      mstore\n        /* \"#utility.yul\":1610:1758   */\n      pop\n      pop\n      pop\n      jump\t// out\n        /* \"#utility.yul\":1764:2189   */\n    tag_55:\n        /* \"#utility.yul\":1842:1847   */\n      0x00\n        /* \"#utility.yul\":1867:1933   */\n      tag_101\n        /* \"#utility.yul\":1883:1932   */\n      tag_102\n        /* \"#utility.yul\":1925:1931   */\n      dup5\n        /* \"#utility.yul\":1883:1932   */\n      tag_53\n      jump\t// in\n    tag_102:\n        /* \"#utility.yul\":1867:1933   */\n      tag_52\n      jump\t// in\n    tag_101:\n        /* \"#utility.yul\":1858:1933   */\n      swap1\n      pop\n        /* \"#utility.yul\":1956:1962   */\n      dup3\n        /* \"#utility.yul\":1949:1954   */\n      dup2\n        /* \"#utility.yul\":1942:1963   */\n      mstore\n        /* \"#utility.yul\":1994:1998   */\n      0x20\n        /* \"#utility.yul\":1987:1992   */\n      dup2\n        /* \"#utility.yul\":1983:1999   */\n      add\n        /* \"#utility.yul\":2032:2035   */\n      dup5\n        /* \"#utility.yul\":2023:2029   */\n      dup5\n        /* \"#utility.yul\":2018:2021   */\n      dup5\n        /* \"#utility.yul\":2014:2030   */\n      add\n        /* \"#utility.yul\":2011:2036   */\n      gt\n        /* \"#utility.yul\":2008:2120   */\n      iszero\n      tag_103\n      jumpi\n        /* \"#utility.yul\":2039:2118   */\n      tag_104\n      tag_48\n      jump\t// in\n    tag_104:\n        /* \"#utility.yul\":2008:2120   */\n    tag_103:\n        /* \"#utility.yul\":2129:2183   */\n      tag_105\n        /* \"#utility.yul\":2176:2182   */\n      dup5\n        /* \"#utility.yul\":2171:2174   */\n      dup3\n        /* \"#utility.yul\":2166:2169   */\n      dup6\n        /* \"#utility.yul\":2129:2183   */\n      tag_54\n      jump\t// in\n    tag_105:\n        /* \"#utility.yul\":1848:2189   */\n      pop\n        /* \"#utility.yul\":1764:2189   */\n      swap4\n      swap3\n      pop\n      pop\n      pop\n      jump\t// out\n        /* \"#utility.yul\":2209:2549   */\n    tag_56:\n        /* \"#utility.yul\":2265:2270   */\n      0x00\n        /* \"#utility.yul\":2314:2317   */\n      dup3\n        /* \"#utility.yul\":2307:2311   */\n      0x1f\n        /* \"#utility.yul\":2299:2305   */\n      dup4\n        /* \"#utility.yul\":2295:2312   */\n      add\n        /* \"#utility.yul\":2291:2318   */\n      slt\n        /* \"#utility.yul\":2281:2403   */\n      tag_107\n      jumpi\n        /* \"#utility.yul\":2322:2401   */\n      tag_108\n      tag_47\n      jump\t// in\n    tag_108:\n        /* \"#utility.yul\":2281:2403   */\n    tag_107:\n        /* \"#utility.yul\":2439:2445   */\n      dup2\n        /* \"#utility.yul\":2426:2446   */\n      calldataload\n        /* \"#utility.yul\":2464:2543   */\n      tag_109\n        /* \"#utility.yul\":2539:2542   */\n      dup5\n        /* \"#utility.yul\":2531:2537   */\n      dup3\n        /* \"#utility.yul\":2524:2528   */\n      0x20\n        /* \"#utility.yul\":2516:2522   */\n      dup7\n        /* \"#utility.yul\":2512:2529   */\n      add\n        /* \"#utility.yul\":2464:2543   */\n      tag_55\n      jump\t// in\n    tag_109:\n        /* \"#utility.yul\":2455:2543   */\n      swap2\n      pop\n        /* \"#utility.yul\":2271:2549   */\n      pop\n        /* \"#utility.yul\":2209:2549   */\n      swap3\n      swap2\n      pop\n      pop\n      jump\t// out\n        /* \"#utility.yul\":2555:2672   */\n    tag_57:\n        /* \"#utility.yul\":2664:2665   */\n      0x00\n        /* \"#utility.yul\":2661:2662   */\n      dup1\n        /* \"#utility.yul\":2654:2666   */\n      revert\n        /* \"#utility.yul\":2678:2795   */\n    tag_58:\n        /* \"#utility.yul\":2787:2788   */\n      0x00\n        /* \"#utility.yul\":2784:2785   */\n      dup1\n        /* \"#utility.yul\":2777:2789   */\n      revert\n        /* \"#utility.yul\":2814:3366   */\n    tag_59:\n        /* \"#utility.yul\":2871:2879   */\n      0x00\n        /* \"#utility.yul\":2881:2887   */\n      dup1\n        /* \"#utility.yul\":2931:2934   */\n      dup4\n        /* \"#utility.yul\":2924:2928   */\n      0x1f\n        /* \"#utility.yul\":2916:2922   */\n      dup5\n        /* \"#utility.yul\":2912:2929   */\n      add\n        /* \"#utility.yul\":2908:2935   */\n      slt\n        /* \"#utility.yul\":2898:3020   */\n      tag_113\n      jumpi\n        /* \"#utility.yul\":2939:3018   */\n      tag_114\n      tag_47\n      jump\t// in\n    tag_114:\n        /* \"#utility.yul\":2898:3020   */\n    tag_113:\n        /* \"#utility.yul\":3052:3058   */\n      dup3\n        /* \"#utility.yul\":3039:3059   */\n      calldataload\n        /* \"#utility.yul\":3029:3059   */\n      swap1\n      pop\n        /* \"#utility.yul\":3082:3100   */\n      0xffffffffffffffff\n        /* \"#utility.yul\":3074:3080   */\n      dup2\n        /* \"#utility.yul\":3071:3101   */\n      gt\n        /* \"#utility.yul\":3068:3185   */\n      iszero\n      tag_115\n      jumpi\n        /* \"#utility.yul\":3104:3183   */\n      tag_116\n      tag_57\n      jump\t// in\n    tag_116:\n        /* \"#utility.yul\":3068:3185   */\n    tag_115:\n        /* \"#utility.yul\":3218:3222   */\n      0x20\n        /* \"#utility.yul\":3210:3216   */\n      dup4\n        /* \"#utility.yul\":3206:3223   */\n      add\n        /* \"#utility.yul\":3194:3223   */\n      swap2\n      pop\n        /* \"#utility.yul\":3272:3275   */\n      dup4\n        /* \"#utility.yul\":3264:3268   */\n      0x01\n        /* \"#utility.yul\":3256:3262   */\n      dup3\n        /* \"#utility.yul\":3252:3269   */\n      mul\n        /* \"#utility.yul\":3242:3250   */\n      dup4\n        /* \"#utility.yul\":3238:3270   */\n      add\n        /* \"#utility.yul\":3235:3276   */\n      gt\n        /* \"#utility.yul\":3232:3360   */\n      iszero\n      tag_117\n      jumpi\n        /* \"#utility.yul\":3279:3358   */\n      tag_118\n      tag_58\n      jump\t// in\n    tag_118:\n        /* \"#utility.yul\":3232:3360   */\n    tag_117:\n        /* \"#utility.yul\":2814:3366   */\n      swap3\n      pop\n      swap3\n      swap1\n      pop\n      jump\t// out\n        /* \"#utility.yul\":3372:4224   */\n    tag_9:\n        /* \"#utility.yul\":3461:3467   */\n      0x00\n        /* \"#utility.yul\":3469:3475   */\n      dup1\n        /* \"#utility.yul\":3477:3483   */\n      0x00\n        /* \"#utility.yul\":3526:3528   */\n      0x40\n        /* \"#utility.yul\":3514:3523   */\n      dup5\n        /* \"#utility.yul\":3505:3512   */\n      dup7\n        /* \"#utility.yul\":3501:3524   */\n      sub\n        /* \"#utility.yul\":3497:3529   */\n      slt\n        /* \"#utility.yul\":3494:3613   */\n      iszero\n      tag_120\n      jumpi\n        /* \"#utility.yul\":3532:3611   */\n      tag_121\n      tag_45\n      jump\t// in\n    tag_121:\n        /* \"#utility.yul\":3494:3613   */\n    tag_120:\n        /* \"#utility.yul\":3680:3681   */\n      0x00\n        /* \"#utility.yul\":3669:3678   */\n      dup5\n        /* \"#utility.yul\":3665:3682   */\n      add\n        /* \"#utility.yul\":3652:3683   */\n      calldataload\n        /* \"#utility.yul\":3710:3728   */\n      0xffffffffffffffff\n        /* \"#utility.yul\":3702:3708   */\n      dup2\n        /* \"#utility.yul\":3699:3729   */\n      gt\n        /* \"#utility.yul\":3696:3813   */\n      iszero\n      tag_122\n      jumpi\n        /* \"#utility.yul\":3732:3811   */\n      tag_123\n      tag_46\n      jump\t// in\n    tag_123:\n        /* \"#utility.yul\":3696:3813   */\n    tag_122:\n        /* \"#utility.yul\":3837:3900   */\n      tag_124\n        /* \"#utility.yul\":3892:3899   */\n      dup7\n        /* \"#utility.yul\":3883:3889   */\n      dup3\n        /* \"#utility.yul\":3872:3881   */\n      dup8\n        /* \"#utility.yul\":3868:3890   */\n      add\n        /* \"#utility.yul\":3837:3900   */\n      tag_56\n      jump\t// in\n    tag_124:\n        /* \"#utility.yul\":3827:3900   */\n      swap4\n      pop\n        /* \"#utility.yul\":3623:3910   */\n      pop\n        /* \"#utility.yul\":3977:3979   */\n      0x20\n        /* \"#utility.yul\":3966:3975   */\n      dup5\n        /* \"#utility.yul\":3962:3980   */\n      add\n        /* \"#utility.yul\":3949:3981   */\n      calldataload\n        /* \"#utility.yul\":4008:4026   */\n      0xffffffffffffffff\n        /* \"#utility.yul\":4000:4006   */\n      dup2\n        /* \"#utility.yul\":3997:4027   */\n      gt\n        /* \"#utility.yul\":3994:4111   */\n      iszero\n      tag_125\n      jumpi\n        /* \"#utility.yul\":4030:4109   */\n      tag_126\n      tag_46\n      jump\t// in\n    tag_126:\n        /* \"#utility.yul\":3994:4111   */\n    tag_125:\n        /* \"#utility.yul\":4143:4207   */\n      tag_127\n        /* \"#utility.yul\":4199:4206   */\n      dup7\n        /* \"#utility.yul\":4190:4196   */\n      dup3\n        /* \"#utility.yul\":4179:4188   */\n      dup8\n        /* \"#utility.yul\":4175:4197   */\n      add\n        /* \"#utility.yul\":4143:4207   */\n      tag_59\n      jump\t// in\n    tag_127:\n        /* \"#utility.yul\":4125:4207   */\n      swap3\n      pop\n      swap3\n      pop\n        /* \"#utility.yul\":3920:4217   */\n      pop\n        /* \"#utility.yul\":3372:4224   */\n      swap3\n      pop\n      swap3\n      pop\n      swap3\n      jump\t// out\n        /* \"#utility.yul\":4230:4320   */\n    tag_60:\n        /* \"#utility.yul\":4264:4271   */\n      0x00\n        /* \"#utility.yul\":4307:4312   */\n      dup2\n        /* \"#utility.yul\":4300:4313   */\n      iszero\n        /* \"#utility.yul\":4293:4314   */\n      iszero\n        /* \"#utility.yul\":4282:4314   */\n      swap1\n      pop\n        /* \"#utility.yul\":4230:4320   */\n      swap2\n      swap1\n      pop\n      jump\t// out\n        /* \"#utility.yul\":4326:4435   */\n    tag_61:\n        /* \"#utility.yul\":4407:4428   */\n      tag_130\n        /* \"#utility.yul\":4422:4427   */\n      dup2\n        /* \"#utility.yul\":4407:4428   */\n      tag_60\n      jump\t// in\n    tag_130:\n        /* \"#utility.yul\":4402:4405   */\n      dup3\n        /* \"#utility.yul\":4395:4429   */\n      mstore\n        /* \"#utility.yul\":4326:4435   */\n      pop\n      pop\n      jump\t// out\n        /* \"#utility.yul\":4441:4651   */\n    tag_12:\n        /* \"#utility.yul\":4528:4532   */\n      0x00\n        /* \"#utility.yul\":4566:4568   */\n      0x20\n        /* \"#utility.yul\":4555:4564   */\n      dup3\n        /* \"#utility.yul\":4551:4569   */\n      add\n        /* \"#utility.yul\":4543:4569   */\n      swap1\n      pop\n        /* \"#utility.yul\":4579:4644   */\n      tag_132\n        /* \"#utility.yul\":4641:4642   */\n      0x00\n        /* \"#utility.yul\":4630:4639   */\n      dup4\n        /* \"#utility.yul\":4626:4643   */\n      add\n        /* \"#utility.yul\":4617:4623   */\n      dup5\n        /* \"#utility.yul\":4579:4644   */\n      tag_61\n      jump\t// in\n    tag_132:\n        /* \"#utility.yul\":4441:4651   */\n      swap3\n      swap2\n      pop\n      pop\n      jump\t// out\n        /* \"#utility.yul\":4657:4783   */\n    tag_62:\n        /* \"#utility.yul\":4694:4701   */\n      0x00\n        /* \"#utility.yul\":4734:4776   */\n      0xffffffffffffffffffffffffffffffffffffffff\n        /* \"#utility.yul\":4727:4732   */\n      dup3\n        /* \"#utility.yul\":4723:4777   */\n      and\n        /* \"#utility.yul\":4712:4777   */\n      swap1\n      pop\n        /* \"#utility.yul\":4657:4783   */\n      swap2\n      swap1\n      pop\n      jump\t// out\n        /* \"#utility.yul\":4789:4885   */\n    tag_63:\n        /* \"#utility.yul\":4826:4833   */\n      0x00\n        /* \"#utility.yul\":4855:4879   */\n      tag_135\n        /* \"#utility.yul\":4873:4878   */\n      dup3\n        /* \"#utility.yul\":4855:4879   */\n      tag_62\n      jump\t// in\n    tag_135:\n        /* \"#utility.yul\":4844:4879   */\n      swap1\n      pop\n        /* \"#utility.yul\":4789:4885   */\n      swap2\n      swap1\n      pop\n      jump\t// out\n        /* \"#utility.yul\":4891:5013   */\n    tag_64:\n        /* \"#utility.yul\":4964:4988   */\n      tag_137\n        /* \"#utility.yul\":4982:4987   */\n      dup2\n        /* \"#utility.yul\":4964:4988   */\n      tag_63\n      jump\t// in\n    tag_137:\n        /* \"#utility.yul\":4957:4962   */\n      dup2\n        /* \"#utility.yul\":4954:4989   */\n      eq\n        /* \"#utility.yul\":4944:5007   */\n      tag_138\n      jumpi\n        /* \"#utility.yul\":5003:5004   */\n      0x00\n        /* \"#utility.yul\":5000:5001   */\n      dup1\n        /* \"#utility.yul\":4993:5005   */\n      revert\n        /* \"#utility.yul\":4944:5007   */\n    tag_138:\n        /* \"#utility.yul\":4891:5013   */\n      pop\n      jump\t// out\n        /* \"#utility.yul\":5019:5158   */\n    tag_65:\n        /* \"#utility.yul\":5065:5070   */\n      0x00\n        /* \"#utility.yul\":5103:5109   */\n      dup2\n        /* \"#utility.yul\":5090:5110   */\n      calldataload\n        /* \"#utility.yul\":5081:5110   */\n      swap1\n      pop\n        /* \"#utility.yul\":5119:5152   */\n      tag_140\n        /* \"#utility.yul\":5146:5151   */\n      dup2\n        /* \"#utility.yul\":5119:5152   */\n      tag_64\n      jump\t// in\n    tag_140:\n        /* \"#utility.yul\":5019:5158   */\n      swap3\n      swap2\n      pop\n      pop\n      jump\t// out\n        /* \"#utility.yul\":5164:5818   */\n    tag_15:\n        /* \"#utility.yul\":5242:5248   */\n      0x00\n        /* \"#utility.yul\":5250:5256   */\n      dup1\n        /* \"#utility.yul\":5299:5301   */\n      0x40\n        /* \"#utility.yul\":5287:5296   */\n      dup4\n        /* \"#utility.yul\":5278:5285   */\n      dup6\n        /* \"#utility.yul\":5274:5297   */\n      sub\n        /* \"#utility.yul\":5270:5302   */\n      slt\n        /* \"#utility.yul\":5267:5386   */\n      iszero\n      tag_142\n      jumpi\n        /* \"#utility.yul\":5305:5384   */\n      tag_143\n      tag_45\n      jump\t// in\n    tag_143:\n        /* \"#utility.yul\":5267:5386   */\n    tag_142:\n        /* \"#utility.yul\":5453:5454   */\n      0x00\n        /* \"#utility.yul\":5442:5451   */\n      dup4\n        /* \"#utility.yul\":5438:5455   */\n      add\n        /* \"#utility.yul\":5425:5456   */\n      calldataload\n        /* \"#utility.yul\":5483:5501   */\n      0xffffffffffffffff\n        /* \"#utility.yul\":5475:5481   */\n      dup2\n        /* \"#utility.yul\":5472:5502   */\n      gt\n        /* \"#utility.yul\":5469:5586   */\n      iszero\n      tag_144\n      jumpi\n        /* \"#utility.yul\":5505:5584   */\n      tag_145\n      tag_46\n      jump\t// in\n    tag_145:\n        /* \"#utility.yul\":5469:5586   */\n    tag_144:\n        /* \"#utility.yul\":5610:5673   */\n      tag_146\n        /* \"#utility.yul\":5665:5672   */\n      dup6\n        /* \"#utility.yul\":5656:5662   */\n      dup3\n        /* \"#utility.yul\":5645:5654   */\n      dup7\n        /* \"#utility.yul\":5641:5663   */\n      add\n        /* \"#utility.yul\":5610:5673   */\n      tag_56\n      jump\t// in\n    tag_146:\n        /* \"#utility.yul\":5600:5673   */\n      swap3\n      pop\n        /* \"#utility.yul\":5396:5683   */\n      pop\n        /* \"#utility.yul\":5722:5724   */\n      0x20\n        /* \"#utility.yul\":5748:5801   */\n      tag_147\n        /* \"#utility.yul\":5793:5800   */\n      dup6\n        /* \"#utility.yul\":5784:5790   */\n      dup3\n        /* \"#utility.yul\":5773:5782   */\n      dup7\n        /* \"#utility.yul\":5769:5791   */\n      add\n        /* \"#utility.yul\":5748:5801   */\n      tag_65\n      jump\t// in\n    tag_147:\n        /* \"#utility.yul\":5738:5801   */\n      swap2\n      pop\n        /* \"#utility.yul\":5693:5811   */\n      pop\n        /* \"#utility.yul\":5164:5818   */\n      swap3\n      pop\n      swap3\n      swap1\n      pop\n      jump\t// out\n        /* \"#utility.yul\":5824:6333   */\n    tag_19:\n        /* \"#utility.yul\":5893:5899   */\n      0x00\n        /* \"#utility.yul\":5942:5944   */\n      0x20\n        /* \"#utility.yul\":5930:5939   */\n      dup3\n        /* \"#utility.yul\":5921:5928   */\n      dup5\n        /* \"#utility.yul\":5917:5940   */\n      sub\n        /* \"#utility.yul\":5913:5945   */\n      slt\n        /* \"#utility.yul\":5910:6029   */\n      iszero\n      tag_149\n      jumpi\n        /* \"#utility.yul\":5948:6027   */\n      tag_150\n      tag_45\n      jump\t// in\n    tag_150:\n        /* \"#utility.yul\":5910:6029   */\n    tag_149:\n        /* \"#utility.yul\":6096:6097   */\n      0x00\n        /* \"#utility.yul\":6085:6094   */\n      dup3\n        /* \"#utility.yul\":6081:6098   */\n      add\n        /* \"#utility.yul\":6068:6099   */\n      calldataload\n        /* \"#utility.yul\":6126:6144   */\n      0xffffffffffffffff\n        /* \"#utility.yul\":6118:6124   */\n      dup2\n        /* \"#utility.yul\":6115:6145   */\n      gt\n        /* \"#utility.yul\":6112:6229   */\n      iszero\n      tag_151\n      jumpi\n        /* \"#utility.yul\":6148:6227   */\n      tag_152\n      tag_46\n      jump\t// in\n    tag_152:\n        /* \"#utility.yul\":6112:6229   */\n    tag_151:\n        /* \"#utility.yul\":6253:6316   */\n      tag_153\n        /* \"#utility.yul\":6308:6315   */\n      dup5\n        /* \"#utility.yul\":6299:6305   */\n      dup3\n        /* \"#utility.yul\":6288:6297   */\n      dup6\n        /* \"#utility.yul\":6284:6306   */\n      add\n        /* \"#utility.yul\":6253:6316   */\n      tag_56\n      jump\t// in\n    tag_153:\n        /* \"#utility.yul\":6243:6316   */\n      swap2\n      pop\n        /* \"#utility.yul\":6039:6326   */\n      pop\n        /* \"#utility.yul\":5824:6333   */\n      swap3\n      swap2\n      pop\n      pop\n      jump\t// out\n        /* \"#utility.yul\":6339:6457   */\n    tag_66:\n        /* \"#utility.yul\":6426:6450   */\n      tag_155\n        /* \"#utility.yul\":6444:6449   */\n      dup2\n        /* \"#utility.yul\":6426:6450   */\n      tag_63\n      jump\t// in\n    tag_155:\n        /* \"#utility.yul\":6421:6424   */\n      dup3\n        /* \"#utility.yul\":6414:6451   */\n      mstore\n        /* \"#utility.yul\":6339:6457   */\n      pop\n      pop\n      jump\t// out\n        /* \"#utility.yul\":6463:6685   */\n    tag_22:\n        /* \"#utility.yul\":6556:6560   */\n      0x00\n        /* \"#utility.yul\":6594:6596   */\n      0x20\n        /* \"#utility.yul\":6583:6592   */\n      dup3\n        /* \"#utility.yul\":6579:6597   */\n      add\n        /* \"#utility.yul\":6571:6597   */\n      swap1\n      pop\n        /* \"#utility.yul\":6607:6678   */\n      tag_157\n        /* \"#utility.yul\":6675:6676   */\n      0x00\n        /* \"#utility.yul\":6664:6673   */\n      dup4\n        /* \"#utility.yul\":6660:6677   */\n      add\n        /* \"#utility.yul\":6651:6657   */\n      dup5\n        /* \"#utility.yul\":6607:6678   */\n      tag_66\n      jump\t// in\n    tag_157:\n        /* \"#utility.yul\":6463:6685   */\n      swap3\n      swap2\n      pop\n      pop\n      jump\t// out\n        /* \"#utility.yul\":6691:6790   */\n    tag_67:\n        /* \"#utility.yul\":6743:6749   */\n      0x00\n        /* \"#utility.yul\":6777:6782   */\n      dup2\n        /* \"#utility.yul\":6771:6783   */\n      mload\n        /* \"#utility.yul\":6761:6783   */\n      swap1\n      pop\n        /* \"#utility.yul\":6691:6790   */\n      swap2\n      swap1\n      pop\n      jump\t// out\n        /* \"#utility.yul\":6796:6944   */\n    tag_68:\n        /* \"#utility.yul\":6898:6909   */\n      0x00\n        /* \"#utility.yul\":6935:6938   */\n      dup2\n        /* \"#utility.yul\":6920:6938   */\n      swap1\n      pop\n        /* \"#utility.yul\":6796:6944   */\n      swap3\n      swap2\n      pop\n      pop\n      jump\t// out\n        /* \"#utility.yul\":6950:7089   */\n    tag_69:\n        /* \"#utility.yul\":7039:7045   */\n      dup3\n        /* \"#utility.yul\":7034:7037   */\n      dup2\n        /* \"#utility.yul\":7029:7032   */\n      dup4\n        /* \"#utility.yul\":7023:7046   */\n      mcopy\n        /* \"#utility.yul\":7080:7081   */\n      0x00\n        /* \"#utility.yul\":7071:7077   */\n      dup4\n        /* \"#utility.yul\":7066:7069   */\n      dup4\n        /* \"#utility.yul\":7062:7078   */\n      add\n        /* \"#utility.yul\":7055:7082   */\n      mstore\n        /* \"#utility.yul\":6950:7089   */\n      pop\n      pop\n      pop\n      jump\t// out\n        /* \"#utility.yul\":7095:7485   */\n    tag_70:\n        /* \"#utility.yul\":7201:7204   */\n      0x00\n        /* \"#utility.yul\":7229:7268   */\n      tag_162\n        /* \"#utility.yul\":7262:7267   */\n      dup3\n        /* \"#utility.yul\":7229:7268   */\n      tag_67\n      jump\t// in\n    tag_162:\n        /* \"#utility.yul\":7284:7373   */\n      tag_163\n        /* \"#utility.yul\":7366:7372   */\n      dup2\n        /* \"#utility.yul\":7361:7364   */\n      dup6\n        /* \"#utility.yul\":7284:7373   */\n      tag_68\n      jump\t// in\n    tag_163:\n        /* \"#utility.yul\":7277:7373   */\n      swap4\n      pop\n        /* \"#utility.yul\":7382:7447   */\n      tag_164\n        /* \"#utility.yul\":7440:7446   */\n      dup2\n        /* \"#utility.yul\":7435:7438   */\n      dup6\n        /* \"#utility.yul\":7428:7432   */\n      0x20\n        /* \"#utility.yul\":7421:7426   */\n      dup7\n        /* \"#utility.yul\":7417:7433   */\n      add\n        /* \"#utility.yul\":7382:7447   */\n      tag_69\n      jump\t// in\n    tag_164:\n        /* \"#utility.yul\":7472:7478   */\n      dup1\n        /* \"#utility.yul\":7467:7470   */\n      dup5\n        /* \"#utility.yul\":7463:7479   */\n      add\n        /* \"#utility.yul\":7456:7479   */\n      swap2\n      pop\n        /* \"#utility.yul\":7205:7485   */\n      pop\n        /* \"#utility.yul\":7095:7485   */\n      swap3\n      swap2\n      pop\n      pop\n      jump\t// out\n        /* \"#utility.yul\":7491:7766   */\n    tag_28:\n        /* \"#utility.yul\":7623:7626   */\n      0x00\n        /* \"#utility.yul\":7645:7740   */\n      tag_166\n        /* \"#utility.yul\":7736:7739   */\n      dup3\n        /* \"#utility.yul\":7727:7733   */\n      dup5\n        /* \"#utility.yul\":7645:7740   */\n      tag_70\n      jump\t// in\n    tag_166:\n        /* \"#utility.yul\":7638:7740   */\n      swap2\n      pop\n        /* \"#utility.yul\":7757:7760   */\n      dup2\n        /* \"#utility.yul\":7750:7760   */\n      swap1\n      pop\n        /* \"#utility.yul\":7491:7766   */\n      swap3\n      swap2\n      pop\n      pop\n      jump\t// out\n        /* \"#utility.yul\":7772:7941   */\n    tag_71:\n        /* \"#utility.yul\":7856:7867   */\n      0x00\n        /* \"#utility.yul\":7890:7896   */\n      dup3\n        /* \"#utility.yul\":7885:7888   */\n      dup3\n        /* \"#utility.yul\":7878:7897   */\n      mstore\n        /* \"#utility.yul\":7930:7934   */\n      0x20\n        /* \"#utility.yul\":7925:7928   */\n      dup3\n        /* \"#utility.yul\":7921:7935   */\n      add\n        /* \"#utility.yul\":7906:7935   */\n      swap1\n      pop\n        /* \"#utility.yul\":7772:7941   */\n      swap3\n      swap2\n      pop\n      pop\n      jump\t// out\n        /* \"#utility.yul\":7947:8118   */\n    tag_72:\n        /* \"#utility.yul\":8087:8110   */\n      0x4d6f64756c65206e6f7420726567697374657265640000000000000000000000\n        /* \"#utility.yul\":8083:8084   */\n      0x00\n        /* \"#utility.yul\":8075:8081   */\n      dup3\n        /* \"#utility.yul\":8071:8085   */\n      add\n        /* \"#utility.yul\":8064:8111   */\n      mstore\n        /* \"#utility.yul\":7947:8118   */\n      pop\n      jump\t// out\n        /* \"#utility.yul\":8124:8490   */\n    tag_73:\n        /* \"#utility.yul\":8266:8269   */\n      0x00\n        /* \"#utility.yul\":8287:8354   */\n      tag_170\n        /* \"#utility.yul\":8351:8353   */\n      0x15\n        /* \"#utility.yul\":8346:8349   */\n      dup4\n        /* \"#utility.yul\":8287:8354   */\n      tag_71\n      jump\t// in\n    tag_170:\n        /* \"#utility.yul\":8280:8354   */\n      swap2\n      pop\n        /* \"#utility.yul\":8363:8456   */\n      tag_171\n        /* \"#utility.yul\":8452:8455   */\n      dup3\n        /* \"#utility.yul\":8363:8456   */\n      tag_72\n      jump\t// in\n    tag_171:\n        /* \"#utility.yul\":8481:8483   */\n      0x20\n        /* \"#utility.yul\":8476:8479   */\n      dup3\n        /* \"#utility.yul\":8472:8484   */\n      add\n        /* \"#utility.yul\":8465:8484   */\n      swap1\n      pop\n        /* \"#utility.yul\":8124:8490   */\n      swap2\n      swap1\n      pop\n      jump\t// out\n        /* \"#utility.yul\":8496:8915   */\n    tag_31:\n        /* \"#utility.yul\":8662:8666   */\n      0x00\n        /* \"#utility.yul\":8700:8702   */\n      0x20\n        /* \"#utility.yul\":8689:8698   */\n      dup3\n        /* \"#utility.yul\":8685:8703   */\n      add\n        /* \"#utility.yul\":8677:8703   */\n      swap1\n      pop\n        /* \"#utility.yul\":8749:8758   */\n      dup2\n        /* \"#utility.yul\":8743:8747   */\n      dup2\n        /* \"#utility.yul\":8739:8759   */\n      sub\n        /* \"#utility.yul\":8735:8736   */\n      0x00\n        /* \"#utility.yul\":8724:8733   */\n      dup4\n        /* \"#utility.yul\":8720:8737   */\n      add\n        /* \"#utility.yul\":8713:8760   */\n      mstore\n        /* \"#utility.yul\":8777:8908   */\n      tag_173\n        /* \"#utility.yul\":8903:8907   */\n      dup2\n        /* \"#utility.yul\":8777:8908   */\n      tag_73\n      jump\t// in\n    tag_173:\n        /* \"#utility.yul\":8769:8908   */\n      swap1\n      pop\n        /* \"#utility.yul\":8496:8915   */\n      swap2\n      swap1\n      pop\n      jump\t// out\n        /* \"#utility.yul\":8921:9089   */\n    tag_74:\n        /* \"#utility.yul\":9004:9015   */\n      0x00\n        /* \"#utility.yul\":9038:9044   */\n      dup3\n        /* \"#utility.yul\":9033:9036   */\n      dup3\n        /* \"#utility.yul\":9026:9045   */\n      mstore\n        /* \"#utility.yul\":9078:9082   */\n      0x20\n        /* \"#utility.yul\":9073:9076   */\n      dup3\n        /* \"#utility.yul\":9069:9083   */\n      add\n        /* \"#utility.yul\":9054:9083   */\n      swap1\n      pop\n        /* \"#utility.yul\":8921:9089   */\n      swap3\n      swap2\n      pop\n      pop\n      jump\t// out\n        /* \"#utility.yul\":9117:9431   */\n    tag_75:\n        /* \"#utility.yul\":9213:9216   */\n      0x00\n        /* \"#utility.yul\":9234:9304   */\n      tag_176\n        /* \"#utility.yul\":9297:9303   */\n      dup4\n        /* \"#utility.yul\":9292:9295   */\n      dup6\n        /* \"#utility.yul\":9234:9304   */\n      tag_74\n      jump\t// in\n    tag_176:\n        /* \"#utility.yul\":9227:9304   */\n      swap4\n      pop\n        /* \"#utility.yul\":9314:9370   */\n      tag_177\n        /* \"#utility.yul\":9363:9369   */\n      dup4\n        /* \"#utility.yul\":9358:9361   */\n      dup6\n        /* \"#utility.yul\":9351:9356   */\n      dup5\n        /* \"#utility.yul\":9314:9370   */\n      tag_54\n      jump\t// in\n    tag_177:\n        /* \"#utility.yul\":9395:9424   */\n      tag_178\n        /* \"#utility.yul\":9417:9423   */\n      dup4\n        /* \"#utility.yul\":9395:9424   */\n      tag_49\n      jump\t// in\n    tag_178:\n        /* \"#utility.yul\":9390:9393   */\n      dup5\n        /* \"#utility.yul\":9386:9425   */\n      add\n        /* \"#utility.yul\":9379:9425   */\n      swap1\n      pop\n        /* \"#utility.yul\":9117:9431   */\n      swap4\n      swap3\n      pop\n      pop\n      pop\n      jump\t// out\n        /* \"#utility.yul\":9437:9766   */\n    tag_34:\n        /* \"#utility.yul\":9558:9562   */\n      0x00\n        /* \"#utility.yul\":9596:9598   */\n      0x20\n        /* \"#utility.yul\":9585:9594   */\n      dup3\n        /* \"#utility.yul\":9581:9599   */\n      add\n        /* \"#utility.yul\":9573:9599   */\n      swap1\n      pop\n        /* \"#utility.yul\":9645:9654   */\n      dup2\n        /* \"#utility.yul\":9639:9643   */\n      dup2\n        /* \"#utility.yul\":9635:9655   */\n      sub\n        /* \"#utility.yul\":9631:9632   */\n      0x00\n        /* \"#utility.yul\":9620:9629   */\n      dup4\n        /* \"#utility.yul\":9616:9633   */\n      add\n        /* \"#utility.yul\":9609:9656   */\n      mstore\n        /* \"#utility.yul\":9673:9759   */\n      tag_180\n        /* \"#utility.yul\":9754:9758   */\n      dup2\n        /* \"#utility.yul\":9745:9751   */\n      dup5\n        /* \"#utility.yul\":9737:9743   */\n      dup7\n        /* \"#utility.yul\":9673:9759   */\n      tag_75\n      jump\t// in\n    tag_180:\n        /* \"#utility.yul\":9665:9759   */\n      swap1\n      pop\n        /* \"#utility.yul\":9437:9766   */\n      swap4\n      swap3\n      pop\n      pop\n      pop\n      jump\t// out\n        /* \"#utility.yul\":9772:9888   */\n    tag_76:\n        /* \"#utility.yul\":9842:9863   */\n      tag_182\n        /* \"#utility.yul\":9857:9862   */\n      dup2\n        /* \"#utility.yul\":9842:9863   */\n      tag_60\n      jump\t// in\n    tag_182:\n        /* \"#utility.yul\":9835:9840   */\n      dup2\n        /* \"#utility.yul\":9832:9864   */\n      eq\n        /* \"#utility.yul\":9822:9882   */\n      tag_183\n      jumpi\n        /* \"#utility.yul\":9878:9879   */\n      0x00\n        /* \"#utility.yul\":9875:9876   */\n      dup1\n        /* \"#utility.yul\":9868:9880   */\n      revert\n        /* \"#utility.yul\":9822:9882   */\n    tag_183:\n        /* \"#utility.yul\":9772:9888   */\n      pop\n      jump\t// out\n        /* \"#utility.yul\":9894:10031   */\n    tag_77:\n        /* \"#utility.yul\":9948:9953   */\n      0x00\n        /* \"#utility.yul\":9979:9985   */\n      dup2\n        /* \"#utility.yul\":9973:9986   */\n      mload\n        /* \"#utility.yul\":9964:9986   */\n      swap1\n      pop\n        /* \"#utility.yul\":9995:10025   */\n      tag_185\n        /* \"#utility.yul\":10019:10024   */\n      dup2\n        /* \"#utility.yul\":9995:10025   */\n      tag_76\n      jump\t// in\n    tag_185:\n        /* \"#utility.yul\":9894:10031   */\n      swap3\n      swap2\n      pop\n      pop\n      jump\t// out\n        /* \"#utility.yul\":10037:10382   */\n    tag_38:\n        /* \"#utility.yul\":10104:10110   */\n      0x00\n        /* \"#utility.yul\":10153:10155   */\n      0x20\n        /* \"#utility.yul\":10141:10150   */\n      dup3\n        /* \"#utility.yul\":10132:10139   */\n      dup5\n        /* \"#utility.yul\":10128:10151   */\n      sub\n        /* \"#utility.yul\":10124:10156   */\n      slt\n        /* \"#utility.yul\":10121:10240   */\n      iszero\n      tag_187\n      jumpi\n        /* \"#utility.yul\":10159:10238   */\n      tag_188\n      tag_45\n      jump\t// in\n    tag_188:\n        /* \"#utility.yul\":10121:10240   */\n    tag_187:\n        /* \"#utility.yul\":10279:10280   */\n      0x00\n        /* \"#utility.yul\":10304:10365   */\n      tag_189\n        /* \"#utility.yul\":10357:10364   */\n      dup5\n        /* \"#utility.yul\":10348:10354   */\n      dup3\n        /* \"#utility.yul\":10337:10346   */\n      dup6\n        /* \"#utility.yul\":10333:10355   */\n      add\n        /* \"#utility.yul\":10304:10365   */\n      tag_77\n      jump\t// in\n    tag_189:\n        /* \"#utility.yul\":10294:10365   */\n      swap2\n      pop\n        /* \"#utility.yul\":10250:10375   */\n      pop\n        /* \"#utility.yul\":10037:10382   */\n      swap3\n      swap2\n      pop\n      pop\n      jump\t// out\n        /* \"#utility.yul\":10388:10548   */\n    tag_78:\n        /* \"#utility.yul\":10528:10540   */\n      0x4f6e6c792061646d696e00000000000000000000000000000000000000000000\n        /* \"#utility.yul\":10524:10525   */\n      0x00\n        /* \"#utility.yul\":10516:10522   */\n      dup3\n        /* \"#utility.yul\":10512:10526   */\n      add\n        /* \"#utility.yul\":10505:10541   */\n      mstore\n        /* \"#utility.yul\":10388:10548   */\n      pop\n      jump\t// out\n        /* \"#utility.yul\":10554:10920   */\n    tag_79:\n        /* \"#utility.yul\":10696:10699   */\n      0x00\n        /* \"#utility.yul\":10717:10784   */\n      tag_192\n        /* \"#utility.yul\":10781:10783   */\n      0x0a\n        /* \"#utility.yul\":10776:10779   */\n      dup4\n        /* \"#utility.yul\":10717:10784   */\n      tag_71\n      jump\t// in\n    tag_192:\n        /* \"#utility.yul\":10710:10784   */\n      swap2\n      pop\n        /* \"#utility.yul\":10793:10886   */\n      tag_193\n        /* \"#utility.yul\":10882:10885   */\n      dup3\n        /* \"#utility.yul\":10793:10886   */\n      tag_78\n      jump\t// in\n    tag_193:\n        /* \"#utility.yul\":10911:10913   */\n      0x20\n        /* \"#utility.yul\":10906:10909   */\n      dup3\n        /* \"#utility.yul\":10902:10914   */\n      add\n        /* \"#utility.yul\":10895:10914   */\n      swap1\n      pop\n        /* \"#utility.yul\":10554:10920   */\n      swap2\n      swap1\n      pop\n      jump\t// out\n        /* \"#utility.yul\":10926:11345   */\n    tag_42:\n        /* \"#utility.yul\":11092:11096   */\n      0x00\n        /* \"#utility.yul\":11130:11132   */\n      0x20\n        /* \"#utility.yul\":11119:11128   */\n      dup3\n        /* \"#utility.yul\":11115:11133   */\n      add\n        /* \"#utility.yul\":11107:11133   */\n      swap1\n      pop\n        /* \"#utility.yul\":11179:11188   */\n      dup2\n        /* \"#utility.yul\":11173:11177   */\n      dup2\n        /* \"#utility.yul\":11169:11189   */\n      sub\n        /* \"#utility.yul\":11165:11166   */\n      0x00\n        /* \"#utility.yul\":11154:11163   */\n      dup4\n        /* \"#utility.yul\":11150:11167   */\n      add\n        /* \"#utility.yul\":11143:11190   */\n      mstore\n        /* \"#utility.yul\":11207:11338   */\n      tag_195\n        /* \"#utility.yul\":11333:11337   */\n      dup2\n        /* \"#utility.yul\":11207:11338   */\n      tag_79\n      jump\t// in\n    tag_195:\n        /* \"#utility.yul\":11199:11338   */\n      swap1\n      pop\n        /* \"#utility.yul\":10926:11345   */\n      swap2\n      swap1\n      pop\n      jump\t// out\n\n    auxdata: 0xa2646970667358221220fe5464fa08f72b535a5051933aaa30da288970707689a6e1c47508256e0822d964736f6c634300081a0033\n}\n",
				"bytecode": {
					"linkReferences": {},
					"object": "6080604052348015600e575f80fd5b503360015f6101000a81548173ffffffffffffffffffffffffffffffffffffffff021916908373ffffffffffffffffffffffffffffffffffffffff1602179055506109578061005c5f395ff3fe608060405234801561000f575f80fd5b506004361061004a575f3560e01c80630b7e4c611461004e578063639cc67d1461007e57806399b0d6d01461009a578063f851a440146100ca575b5f80fd5b61006860048036038101906100639190610557565b6100e8565b60405161007591906105ea565b60405180910390f35b6100986004803603810190610093919061065d565b610253565b005b6100b460048036038101906100af91906106b7565b610341565b6040516100c1919061070d565b60405180910390f35b6100d2610388565b6040516100df919061070d565b60405180910390f35b5f8073ffffffffffffffffffffffffffffffffffffffff165f8560405161010f9190610778565b90815260200160405180910390205f9054906101000a900473ffffffffffffffffffffffffffffffffffffffff1673ffffffffffffffffffffffffffffffffffffffff1603610193576040517f08c379a000000000000000000000000000000000000000000000000000000000815260040161018a906107e8565b60405180910390fd5b5f846040516101a29190610778565b90815260200160405180910390205f9054906101000a900473ffffffffffffffffffffffffffffffffffffffff1673ffffffffffffffffffffffffffffffffffffffff166309c5eabe84846040518363ffffffff1660e01b815260040161020a929190610842565b6020604051808303815f875af1158015610226573d5f803e3d5ffd5b505050506040513d601f19601f8201168201806040525081019061024a919061088e565b90509392505050565b60015f9054906101000a900473ffffffffffffffffffffffffffffffffffffffff1673ffffffffffffffffffffffffffffffffffffffff163373ffffffffffffffffffffffffffffffffffffffff16146102e2576040517f08c379a00000000000000000000000000000000000000000000000000000000081526004016102d990610903565b60405180910390fd5b805f836040516102f29190610778565b90815260200160405180910390205f6101000a81548173ffffffffffffffffffffffffffffffffffffffff021916908373ffffffffffffffffffffffffffffffffffffffff1602179055505050565b5f818051602081018201805184825260208301602085012081835280955050505050505f915054906101000a900473ffffffffffffffffffffffffffffffffffffffff1681565b60015f9054906101000a900473ffffffffffffffffffffffffffffffffffffffff1681565b5f604051905090565b5f80fd5b5f80fd5b5f80fd5b5f80fd5b5f601f19601f8301169050919050565b7f4e487b71000000000000000000000000000000000000000000000000000000005f52604160045260245ffd5b61040c826103c6565b810181811067ffffffffffffffff8211171561042b5761042a6103d6565b5b80604052505050565b5f61043d6103ad565b90506104498282610403565b919050565b5f67ffffffffffffffff821115610468576104676103d6565b5b610471826103c6565b9050602081019050919050565b828183375f83830152505050565b5f61049e6104998461044e565b610434565b9050828152602081018484840111156104ba576104b96103c2565b5b6104c584828561047e565b509392505050565b5f82601f8301126104e1576104e06103be565b5b81356104f184826020860161048c565b91505092915050565b5f80fd5b5f80fd5b5f8083601f840112610517576105166103be565b5b8235905067ffffffffffffffff811115610534576105336104fa565b5b6020830191508360018202830111156105505761054f6104fe565b5b9250929050565b5f805f6040848603121561056e5761056d6103b6565b5b5f84013567ffffffffffffffff81111561058b5761058a6103ba565b5b610597868287016104cd565b935050602084013567ffffffffffffffff8111156105b8576105b76103ba565b5b6105c486828701610502565b92509250509250925092565b5f8115159050919050565b6105e4816105d0565b82525050565b5f6020820190506105fd5f8301846105db565b92915050565b5f73ffffffffffffffffffffffffffffffffffffffff82169050919050565b5f61062c82610603565b9050919050565b61063c81610622565b8114610646575f80fd5b50565b5f8135905061065781610633565b92915050565b5f8060408385031215610673576106726103b6565b5b5f83013567ffffffffffffffff8111156106905761068f6103ba565b5b61069c858286016104cd565b92505060206106ad85828601610649565b9150509250929050565b5f602082840312156106cc576106cb6103b6565b5b5f82013567ffffffffffffffff8111156106e9576106e86103ba565b5b6106f5848285016104cd565b91505092915050565b61070781610622565b82525050565b5f6020820190506107205f8301846106fe565b92915050565b5f81519050919050565b5f81905092915050565b8281835e5f83830152505050565b5f61075282610726565b61075c8185610730565b935061076c81856020860161073a565b80840191505092915050565b5f6107838284610748565b915081905092915050565b5f82825260208201905092915050565b7f4d6f64756c65206e6f74207265676973746572656400000000000000000000005f82015250565b5f6107d260158361078e565b91506107dd8261079e565b602082019050919050565b5f6020820190508181035f8301526107ff816107c6565b9050919050565b5f82825260208201905092915050565b5f6108218385610806565b935061082e83858461047e565b610837836103c6565b840190509392505050565b5f6020820190508181035f83015261085b818486610816565b90509392505050565b61086d816105d0565b8114610877575f80fd5b50565b5f8151905061088881610864565b92915050565b5f602082840312156108a3576108a26103b6565b5b5f6108b08482850161087a565b91505092915050565b7f4f6e6c792061646d696e000000000000000000000000000000000000000000005f82015250565b5f6108ed600a8361078e565b91506108f8826108b9565b602082019050919050565b5f6020820190508181035f83015261091a816108e1565b905091905056fea2646970667358221220fe5464fa08f72b535a5051933aaa30da288970707689a6e1c47508256e0822d964736f6c634300081a0033",
					"opcodes": "PUSH1 0x80 PUSH1 0x40 MSTORE CALLVALUE DUP1 ISZERO PUSH1 0xE JUMPI PUSH0 DUP1 REVERT JUMPDEST POP CALLER PUSH1 0x1 PUSH0 PUSH2 0x100 EXP DUP2 SLOAD DUP2 PUSH20 0xFFFFFFFFFFFFFFFFFFFFFFFFFFFFFFFFFFFFFFFF MUL NOT AND SWAP1 DUP4 PUSH20 0xFFFFFFFFFFFFFFFFFFFFFFFFFFFFFFFFFFFFFFFF AND MUL OR SWAP1 SSTORE POP PUSH2 0x957 DUP1 PUSH2 0x5C PUSH0 CODECOPY PUSH0 RETURN INVALID PUSH1 0x80 PUSH1 0x40 MSTORE CALLVALUE DUP1 ISZERO PUSH2 0xF JUMPI PUSH0 DUP1 REVERT JUMPDEST POP PUSH1 0x4 CALLDATASIZE LT PUSH2 0x4A JUMPI PUSH0 CALLDATALOAD PUSH1 0xE0 SHR DUP1 PUSH4 0xB7E4C61 EQ PUSH2 0x4E JUMPI DUP1 PUSH4 0x639CC67D EQ PUSH2 0x7E JUMPI DUP1 PUSH4 0x99B0D6D0 EQ PUSH2 0x9A JUMPI DUP1 PUSH4 0xF851A440 EQ PUSH2 0xCA JUMPI JUMPDEST PUSH0 DUP1 REVERT JUMPDEST PUSH2 0x68 PUSH1 0x4 DUP1 CALLDATASIZE SUB DUP2 ADD SWAP1 PUSH2 0x63 SWAP2 SWAP1 PUSH2 0x557 JUMP JUMPDEST PUSH2 0xE8 JUMP JUMPDEST PUSH1 0x40 MLOAD PUSH2 0x75 SWAP2 SWAP1 PUSH2 0x5EA JUMP JUMPDEST PUSH1 0x40 MLOAD DUP1 SWAP2 SUB SWAP1 RETURN JUMPDEST PUSH2 0x98 PUSH1 0x4 DUP1 CALLDATASIZE SUB DUP2 ADD SWAP1 PUSH2 0x93 SWAP2 SWAP1 PUSH2 0x65D JUMP JUMPDEST PUSH2 0x253 JUMP JUMPDEST STOP JUMPDEST PUSH2 0xB4 PUSH1 0x4 DUP1 CALLDATASIZE SUB DUP2 ADD SWAP1 PUSH2 0xAF SWAP2 SWAP1 PUSH2 0x6B7 JUMP JUMPDEST PUSH2 0x341 JUMP JUMPDEST PUSH1 0x40 MLOAD PUSH2 0xC1 SWAP2 SWAP1 PUSH2 0x70D JUMP JUMPDEST PUSH1 0x40 MLOAD DUP1 SWAP2 SUB SWAP1 RETURN JUMPDEST PUSH2 0xD2 PUSH2 0x388 JUMP JUMPDEST PUSH1 0x40 MLOAD PUSH2 0xDF SWAP2 SWAP1 PUSH2 0x70D JUMP JUMPDEST PUSH1 0x40 MLOAD DUP1 SWAP2 SUB SWAP1 RETURN JUMPDEST PUSH0 DUP1 PUSH20 0xFFFFFFFFFFFFFFFFFFFFFFFFFFFFFFFFFFFFFFFF AND PUSH0 DUP6 PUSH1 0x40 MLOAD PUSH2 0x10F SWAP2 SWAP1 PUSH2 0x778 JUMP JUMPDEST SWAP1 DUP2 MSTORE PUSH1 0x20 ADD PUSH1 0x40 MLOAD DUP1 SWAP2 SUB SWAP1 KECCAK256 PUSH0 SWAP1 SLOAD SWAP1 PUSH2 0x100 EXP SWAP1 DIV PUSH20 0xFFFFFFFFFFFFFFFFFFFFFFFFFFFFFFFFFFFFFFFF AND PUSH20 0xFFFFFFFFFFFFFFFFFFFFFFFFFFFFFFFFFFFFFFFF AND SUB PUSH2 0x193 JUMPI PUSH1 0x40 MLOAD PUSH32 0x8C379A000000000000000000000000000000000000000000000000000000000 DUP2 MSTORE PUSH1 0x4 ADD PUSH2 0x18A SWAP1 PUSH2 0x7E8 JUMP JUMPDEST PUSH1 0x40 MLOAD DUP1 SWAP2 SUB SWAP1 REVERT JUMPDEST PUSH0 DUP5 PUSH1 0x40 MLOAD PUSH2 0x1A2 SWAP2 SWAP1 PUSH2 0x778 JUMP JUMPDEST SWAP1 DUP2 MSTORE PUSH1 0x20 ADD PUSH1 0x40 MLOAD DUP1 SWAP2 SUB SWAP1 KECCAK256 PUSH0 SWAP1 SLOAD SWAP1 PUSH2 0x100 EXP SWAP1 DIV PUSH20 0xFFFFFFFFFFFFFFFFFFFFFFFFFFFFFFFFFFFFFFFF AND PUSH20 0xFFFFFFFFFFFFFFFFFFFFFFFFFFFFFFFFFFFFFFFF AND PUSH4 0x9C5EABE DUP5 DUP5 PUSH1 0x40 MLOAD DUP4 PUSH4 0xFFFFFFFF AND PUSH1 0xE0 SHL DUP2 MSTORE PUSH1 0x4 ADD PUSH2 0x20A SWAP3 SWAP2 SWAP1 PUSH2 0x842 JUMP JUMPDEST PUSH1 0x20 PUSH1 0x40 MLOAD DUP1 DUP4 SUB DUP2 PUSH0 DUP8 GAS CALL ISZERO DUP1 ISZERO PUSH2 0x226 JUMPI RETURNDATASIZE PUSH0 DUP1 RETURNDATACOPY RETURNDATASIZE PUSH0 REVERT JUMPDEST POP POP POP POP PUSH1 0x40 MLOAD RETURNDATASIZE PUSH1 0x1F NOT PUSH1 0x1F DUP3 ADD AND DUP3 ADD DUP1 PUSH1 0x40 MSTORE POP DUP2 ADD SWAP1 PUSH2 0x24A SWAP2 SWAP1 PUSH2 0x88E JUMP JUMPDEST SWAP1 POP SWAP4 SWAP3 POP POP POP JUMP JUMPDEST PUSH1 0x1 PUSH0 SWAP1 SLOAD SWAP1 PUSH2 0x100 EXP SWAP1 DIV PUSH20 0xFFFFFFFFFFFFFFFFFFFFFFFFFFFFFFFFFFFFFFFF AND PUSH20 0xFFFFFFFFFFFFFFFFFFFFFFFFFFFFFFFFFFFFFFFF AND CALLER PUSH20 0xFFFFFFFFFFFFFFFFFFFFFFFFFFFFFFFFFFFFFFFF AND EQ PUSH2 0x2E2 JUMPI PUSH1 0x40 MLOAD PUSH32 0x8C379A000000000000000000000000000000000000000000000000000000000 DUP2 MSTORE PUSH1 0x4 ADD PUSH2 0x2D9 SWAP1 PUSH2 0x903 JUMP JUMPDEST PUSH1 0x40 MLOAD DUP1 SWAP2 SUB SWAP1 REVERT JUMPDEST DUP1 PUSH0 DUP4 PUSH1 0x40 MLOAD PUSH2 0x2F2 SWAP2 SWAP1 PUSH2 0x778 JUMP JUMPDEST SWAP1 DUP2 MSTORE PUSH1 0x20 ADD PUSH1 0x40 MLOAD DUP1 SWAP2 SUB SWAP1 KECCAK256 PUSH0 PUSH2 0x100 EXP DUP2 SLOAD DUP2 PUSH20 0xFFFFFFFFFFFFFFFFFFFFFFFFFFFFFFFFFFFFFFFF MUL NOT AND SWAP1 DUP4 PUSH20 0xFFFFFFFFFFFFFFFFFFFFFFFFFFFFFFFFFFFFFFFF AND MUL OR SWAP1 SSTORE POP POP POP JUMP JUMPDEST PUSH0 DUP2 DUP1 MLOAD PUSH1 0x20 DUP2 ADD DUP3 ADD DUP1 MLOAD DUP5 DUP3 MSTORE PUSH1 0x20 DUP4 ADD PUSH1 0x20 DUP6 ADD KECCAK256 DUP2 DUP4 MSTORE DUP1 SWAP6 POP POP POP POP POP POP PUSH0 SWAP2 POP SLOAD SWAP1 PUSH2 0x100 EXP SWAP1 DIV PUSH20 0xFFFFFFFFFFFFFFFFFFFFFFFFFFFFFFFFFFFFFFFF AND DUP2 JUMP JUMPDEST PUSH1 0x1 PUSH0 SWAP1 SLOAD SWAP1 PUSH2 0x100 EXP SWAP1 DIV PUSH20 0xFFFFFFFFFFFFFFFFFFFFFFFFFFFFFFFFFFFFFFFF AND DUP2 JUMP JUMPDEST PUSH0 PUSH1 0x40 MLOAD SWAP1 POP SWAP1 JUMP JUMPDEST PUSH0 DUP1 REVERT JUMPDEST PUSH0 DUP1 REVERT JUMPDEST PUSH0 DUP1 REVERT JUMPDEST PUSH0 DUP1 REVERT JUMPDEST PUSH0 PUSH1 0x1F NOT PUSH1 0x1F DUP4 ADD AND SWAP1 POP SWAP2 SWAP1 POP JUMP JUMPDEST PUSH32 0x4E487B7100000000000000000000000000000000000000000000000000000000 PUSH0 MSTORE PUSH1 0x41 PUSH1 0x4 MSTORE PUSH1 0x24 PUSH0 REVERT JUMPDEST PUSH2 0x40C DUP3 PUSH2 0x3C6 JUMP JUMPDEST DUP2 ADD DUP2 DUP2 LT PUSH8 0xFFFFFFFFFFFFFFFF DUP3 GT OR ISZERO PUSH2 0x42B JUMPI PUSH2 0x42A PUSH2 0x3D6 JUMP JUMPDEST JUMPDEST DUP1 PUSH1 0x40 MSTORE POP POP POP JUMP JUMPDEST PUSH0 PUSH2 0x43D PUSH2 0x3AD JUMP JUMPDEST SWAP1 POP PUSH2 0x449 DUP3 DUP3 PUSH2 0x403 JUMP JUMPDEST SWAP2 SWAP1 POP JUMP JUMPDEST PUSH0 PUSH8 0xFFFFFFFFFFFFFFFF DUP3 GT ISZERO PUSH2 0x468 JUMPI PUSH2 0x467 PUSH2 0x3D6 JUMP JUMPDEST JUMPDEST PUSH2 0x471 DUP3 PUSH2 0x3C6 JUMP JUMPDEST SWAP1 POP PUSH1 0x20 DUP2 ADD SWAP1 POP SWAP2 SWAP1 POP JUMP JUMPDEST DUP3 DUP2 DUP4 CALLDATACOPY PUSH0 DUP4 DUP4 ADD MSTORE POP POP POP JUMP JUMPDEST PUSH0 PUSH2 0x49E PUSH2 0x499 DUP5 PUSH2 0x44E JUMP JUMPDEST PUSH2 0x434 JUMP JUMPDEST SWAP1 POP DUP3 DUP2 MSTORE PUSH1 0x20 DUP2 ADD DUP5 DUP5 DUP5 ADD GT ISZERO PUSH2 0x4BA JUMPI PUSH2 0x4B9 PUSH2 0x3C2 JUMP JUMPDEST JUMPDEST PUSH2 0x4C5 DUP5 DUP3 DUP6 PUSH2 0x47E JUMP JUMPDEST POP SWAP4 SWAP3 POP POP POP JUMP JUMPDEST PUSH0 DUP3 PUSH1 0x1F DUP4 ADD SLT PUSH2 0x4E1 JUMPI PUSH2 0x4E0 PUSH2 0x3BE JUMP JUMPDEST JUMPDEST DUP2 CALLDATALOAD PUSH2 0x4F1 DUP5 DUP3 PUSH1 0x20 DUP7 ADD PUSH2 0x48C JUMP JUMPDEST SWAP2 POP POP SWAP3 SWAP2 POP POP JUMP JUMPDEST PUSH0 DUP1 REVERT JUMPDEST PUSH0 DUP1 REVERT JUMPDEST PUSH0 DUP1 DUP4 PUSH1 0x1F DUP5 ADD SLT PUSH2 0x517 JUMPI PUSH2 0x516 PUSH2 0x3BE JUMP JUMPDEST JUMPDEST DUP3 CALLDATALOAD SWAP1 POP PUSH8 0xFFFFFFFFFFFFFFFF DUP2 GT ISZERO PUSH2 0x534 JUMPI PUSH2 0x533 PUSH2 0x4FA JUMP JUMPDEST JUMPDEST PUSH1 0x20 DUP4 ADD SWAP2 POP DUP4 PUSH1 0x1 DUP3 MUL DUP4 ADD GT ISZERO PUSH2 0x550 JUMPI PUSH2 0x54F PUSH2 0x4FE JUMP JUMPDEST JUMPDEST SWAP3 POP SWAP3 SWAP1 POP JUMP JUMPDEST PUSH0 DUP1 PUSH0 PUSH1 0x40 DUP5 DUP7 SUB SLT ISZERO PUSH2 0x56E JUMPI PUSH2 0x56D PUSH2 0x3B6 JUMP JUMPDEST JUMPDEST PUSH0 DUP5 ADD CALLDATALOAD PUSH8 0xFFFFFFFFFFFFFFFF DUP2 GT ISZERO PUSH2 0x58B JUMPI PUSH2 0x58A PUSH2 0x3BA JUMP JUMPDEST JUMPDEST PUSH2 0x597 DUP7 DUP3 DUP8 ADD PUSH2 0x4CD JUMP JUMPDEST SWAP4 POP POP PUSH1 0x20 DUP5 ADD CALLDATALOAD PUSH8 0xFFFFFFFFFFFFFFFF DUP2 GT ISZERO PUSH2 0x5B8 JUMPI PUSH2 0x5B7 PUSH2 0x3BA JUMP JUMPDEST JUMPDEST PUSH2 0x5C4 DUP7 DUP3 DUP8 ADD PUSH2 0x502 JUMP JUMPDEST SWAP3 POP SWAP3 POP POP SWAP3 POP SWAP3 POP SWAP3 JUMP JUMPDEST PUSH0 DUP2 ISZERO ISZERO SWAP1 POP SWAP2 SWAP1 POP JUMP JUMPDEST PUSH2 0x5E4 DUP2 PUSH2 0x5D0 JUMP JUMPDEST DUP3 MSTORE POP POP JUMP JUMPDEST PUSH0 PUSH1 0x20 DUP3 ADD SWAP1 POP PUSH2 0x5FD PUSH0 DUP4 ADD DUP5 PUSH2 0x5DB JUMP JUMPDEST SWAP3 SWAP2 POP POP JUMP JUMPDEST PUSH0 PUSH20 0xFFFFFFFFFFFFFFFFFFFFFFFFFFFFFFFFFFFFFFFF DUP3 AND SWAP1 POP SWAP2 SWAP1 POP JUMP JUMPDEST PUSH0 PUSH2 0x62C DUP3 PUSH2 0x603 JUMP JUMPDEST SWAP1 POP SWAP2 SWAP1 POP JUMP JUMPDEST PUSH2 0x63C DUP2 PUSH2 0x622 JUMP JUMPDEST DUP2 EQ PUSH2 0x646 JUMPI PUSH0 DUP1 REVERT JUMPDEST POP JUMP JUMPDEST PUSH0 DUP2 CALLDATALOAD SWAP1 POP PUSH2 0x657 DUP2 PUSH2 0x633 JUMP JUMPDEST SWAP3 SWAP2 POP POP JUMP JUMPDEST PUSH0 DUP1 PUSH1 0x40 DUP4 DUP6 SUB SLT ISZERO PUSH2 0x673 JUMPI PUSH2 0x672 PUSH2 0x3B6 JUMP JUMPDEST JUMPDEST PUSH0 DUP4 ADD CALLDATALOAD PUSH8 0xFFFFFFFFFFFFFFFF DUP2 GT ISZERO PUSH2 0x690 JUMPI PUSH2 0x68F PUSH2 0x3BA JUMP JUMPDEST JUMPDEST PUSH2 0x69C DUP6 DUP3 DUP7 ADD PUSH2 0x4CD JUMP JUMPDEST SWAP3 POP POP PUSH1 0x20 PUSH2 0x6AD DUP6 DUP3 DUP7 ADD PUSH2 0x649 JUMP JUMPDEST SWAP2 POP POP SWAP3 POP SWAP3 SWAP1 POP JUMP JUMPDEST PUSH0 PUSH1 0x20 DUP3 DUP5 SUB SLT ISZERO PUSH2 0x6CC JUMPI PUSH2 0x6CB PUSH2 0x3B6 JUMP JUMPDEST JUMPDEST PUSH0 DUP3 ADD CALLDATALOAD PUSH8 0xFFFFFFFFFFFFFFFF DUP2 GT ISZERO PUSH2 0x6E9 JUMPI PUSH2 0x6E8 PUSH2 0x3BA JUMP JUMPDEST JUMPDEST PUSH2 0x6F5 DUP5 DUP3 DUP6 ADD PUSH2 0x4CD JUMP JUMPDEST SWAP2 POP POP SWAP3 SWAP2 POP POP JUMP JUMPDEST PUSH2 0x707 DUP2 PUSH2 0x622 JUMP JUMPDEST DUP3 MSTORE POP POP JUMP JUMPDEST PUSH0 PUSH1 0x20 DUP3 ADD SWAP1 POP PUSH2 0x720 PUSH0 DUP4 ADD DUP5 PUSH2 0x6FE JUMP JUMPDEST SWAP3 SWAP2 POP POP JUMP JUMPDEST PUSH0 DUP2 MLOAD SWAP1 POP SWAP2 SWAP1 POP JUMP JUMPDEST PUSH0 DUP2 SWAP1 POP SWAP3 SWAP2 POP POP JUMP JUMPDEST DUP3 DUP2 DUP4 MCOPY PUSH0 DUP4 DUP4 ADD MSTORE POP POP POP JUMP JUMPDEST PUSH0 PUSH2 0x752 DUP3 PUSH2 0x726 JUMP JUMPDEST PUSH2 0x75C DUP2 DUP6 PUSH2 0x730 JUMP JUMPDEST SWAP4 POP PUSH2 0x76C DUP2 DUP6 PUSH1 0x20 DUP7 ADD PUSH2 0x73A JUMP JUMPDEST DUP1 DUP5 ADD SWAP2 POP POP SWAP3 SWAP2 POP POP JUMP JUMPDEST PUSH0 PUSH2 0x783 DUP3 DUP5 PUSH2 0x748 JUMP JUMPDEST SWAP2 POP DUP2 SWAP1 POP SWAP3 SWAP2 POP POP JUMP JUMPDEST PUSH0 DUP3 DUP3 MSTORE PUSH1 0x20 DUP3 ADD SWAP1 POP SWAP3 SWAP2 POP POP JUMP JUMPDEST PUSH32 0x4D6F64756C65206E6F7420726567697374657265640000000000000000000000 PUSH0 DUP3 ADD MSTORE POP JUMP JUMPDEST PUSH0 PUSH2 0x7D2 PUSH1 0x15 DUP4 PUSH2 0x78E JUMP JUMPDEST SWAP2 POP PUSH2 0x7DD DUP3 PUSH2 0x79E JUMP JUMPDEST PUSH1 0x20 DUP3 ADD SWAP1 POP SWAP2 SWAP1 POP JUMP JUMPDEST PUSH0 PUSH1 0x20 DUP3 ADD SWAP1 POP DUP2 DUP2 SUB PUSH0 DUP4 ADD MSTORE PUSH2 0x7FF DUP2 PUSH2 0x7C6 JUMP JUMPDEST SWAP1 POP SWAP2 SWAP1 POP JUMP JUMPDEST PUSH0 DUP3 DUP3 MSTORE PUSH1 0x20 DUP3 ADD SWAP1 POP SWAP3 SWAP2 POP POP JUMP JUMPDEST PUSH0 PUSH2 0x821 DUP4 DUP6 PUSH2 0x806 JUMP JUMPDEST SWAP4 POP PUSH2 0x82E DUP4 DUP6 DUP5 PUSH2 0x47E JUMP JUMPDEST PUSH2 0x837 DUP4 PUSH2 0x3C6 JUMP JUMPDEST DUP5 ADD SWAP1 POP SWAP4 SWAP3 POP POP POP JUMP JUMPDEST PUSH0 PUSH1 0x20 DUP3 ADD SWAP1 POP DUP2 DUP2 SUB PUSH0 DUP4 ADD MSTORE PUSH2 0x85B DUP2 DUP5 DUP7 PUSH2 0x816 JUMP JUMPDEST SWAP1 POP SWAP4 SWAP3 POP POP POP JUMP JUMPDEST PUSH2 0x86D DUP2 PUSH2 0x5D0 JUMP JUMPDEST DUP2 EQ PUSH2 0x877 JUMPI PUSH0 DUP1 REVERT JUMPDEST POP JUMP JUMPDEST PUSH0 DUP2 MLOAD SWAP1 POP PUSH2 0x888 DUP2 PUSH2 0x864 JUMP JUMPDEST SWAP3 SWAP2 POP POP JUMP JUMPDEST PUSH0 PUSH1 0x20 DUP3 DUP5 SUB SLT ISZERO PUSH2 0x8A3 JUMPI PUSH2 0x8A2 PUSH2 0x3B6 JUMP JUMPDEST JUMPDEST PUSH0 PUSH2 0x8B0 DUP5 DUP3 DUP6 ADD PUSH2 0x87A JUMP JUMPDEST SWAP2 POP POP SWAP3 SWAP2 POP POP JUMP JUMPDEST PUSH32 0x4F6E6C792061646D696E00000000000000000000000000000000000000000000 PUSH0 DUP3 ADD MSTORE POP JUMP JUMPDEST PUSH0 PUSH2 0x8ED PUSH1 0xA DUP4 PUSH2 0x78E JUMP JUMPDEST SWAP2 POP PUSH2 0x8F8 DUP3 PUSH2 0x8B9 JUMP JUMPDEST PUSH1 0x20 DUP3 ADD SWAP1 POP SWAP2 SWAP1 POP JUMP JUMPDEST PUSH0 PUSH1 0x20 DUP3 ADD SWAP1 POP DUP2 DUP2 SUB PUSH0 DUP4 ADD MSTORE PUSH2 0x91A DUP2 PUSH2 0x8E1 JUMP JUMPDEST SWAP1 POP SWAP2 SWAP1 POP JUMP INVALID LOG2 PUSH5 0x6970667358 0x22 SLT KECCAK256 INVALID SLOAD PUSH5 0xFA08F72B53 GAS POP MLOAD SWAP4 GASPRICE 0xAA ADDRESS 0xDA 0x28 DUP10 PUSH17 0x707689A6E1C47508256E0822D964736F6C PUSH4 0x4300081A STOP CALLER "
				},
				"gasEstimates": {
					"creation": {
						"codeDepositCost": "478200",
						"executionCost": "24774",
						"totalCost": "502974"
					},
					"external": {
						"admin()": "2552",
						"modules(string)": "infinite",
						"registerModule(string,address)": "infinite",
						"runModule(string,bytes)": "infinite"
					}
				},
				"methodIdentifiers": {
					"admin()": "f851a440",
					"modules(string)": "99b0d6d0",
					"registerModule(string,address)": "639cc67d",
					"runModule(string,bytes)": "0b7e4c61"
				}
			},
			"storageLayout": {
				"storage": [
					{
						"astId": 13,
						"contract": "K/Kernel/Modular Kernel Pattern.sol:ModularKernel",
						"label": "modules",
						"offset": 0,
						"slot": "0",
						"type": "t_mapping(t_string_memory_ptr,t_address)"
					},
					{
						"astId": 15,
						"contract": "K/Kernel/Modular Kernel Pattern.sol:ModularKernel",
						"label": "admin",
						"offset": 0,
						"slot": "1",
						"type": "t_address"
					}
				],
				"types": {
					"t_address": {
						"encoding": "inplace",
						"label": "address",
						"numberOfBytes": "20"
					},
					"t_mapping(t_string_memory_ptr,t_address)": {
						"encoding": "mapping",
						"key": "t_string_memory_ptr",
						"label": "mapping(string => address)",
						"numberOfBytes": "32",
						"value": "t_address"
					},
					"t_string_memory_ptr": {
						"encoding": "bytes",
						"label": "string",
						"numberOfBytes": "32"
					}
				}
			},
			"userdoc": {
				"kind": "user",
				"methods": {},
				"version": 1
			}
		}
	}
}