{
	"data": {
		"bytecode": {
			"linkReferences": {},
			"object": "6080604052348015600e575f80fd5b506107ac8061001c5f395ff3fe608060405234801561000f575f80fd5b5060043610610055575f3560e01c80630f560cd7146100595780632052465e1461007757806391c657e8146100a7578063a6871bc3146100d7578063e053ea31146100f3575b5f80fd5b61006161010f565b60405161006e9190610564565b60405180910390f35b610091600480360381019061008c91906105bb565b61019a565b60405161009e91906105f5565b60405180910390f35b6100c160048036038101906100bc9190610638565b6101d5565b6040516100ce919061067d565b60405180910390f35b6100f160048036038101906100ec9190610638565b6101f1565b005b61010d60048036038101906101089190610638565b610306565b005b6060600180548060200260200160405190810160405280929190818152602001828054801561019057602002820191905f5260205f20905b815f9054906101000a900473ffffffffffffffffffffffffffffffffffffffff1673ffffffffffffffffffffffffffffffffffffffff1681526020019060010190808311610147575b5050505050905090565b600181815481106101a9575f80fd5b905f5260205f20015f915054906101000a900473ffffffffffffffffffffffffffffffffffffffff1681565b5f602052805f5260405f205f915054906101000a900460ff1681565b5f808273ffffffffffffffffffffffffffffffffffffffff1673ffffffffffffffffffffffffffffffffffffffff1681526020019081526020015f205f9054906101000a900460ff16610279576040517f08c379a0000000000000000000000000000000000000000000000000000000008152600401610270906106f0565b60405180910390fd5b5f805f8373ffffffffffffffffffffffffffffffffffffffff1673ffffffffffffffffffffffffffffffffffffffff1681526020019081526020015f205f6101000a81548160ff0219169083151502179055507f1a26d4589cfd8afad711f28859e2a462164ea0080b8b0a30c919251484d3827e816040516102fb91906105f5565b60405180910390a150565b5f808273ffffffffffffffffffffffffffffffffffffffff1673ffffffffffffffffffffffffffffffffffffffff1681526020019081526020015f205f9054906101000a900460ff161561038f576040517f08c379a000000000000000000000000000000000000000000000000000000000815260040161038690610758565b60405180910390fd5b60015f808373ffffffffffffffffffffffffffffffffffffffff1673ffffffffffffffffffffffffffffffffffffffff1681526020019081526020015f205f6101000a81548160ff021916908315150217905550600181908060018154018082558091505060019003905f5260205f20015f9091909190916101000a81548173ffffffffffffffffffffffffffffffffffffffff021916908373ffffffffffffffffffffffffffffffffffffffff1602179055507f55a0fd211917d20d4116eae41bf9f95382ecec51aff32469d64de73c1ed180a78160405161047291906105f5565b60405180910390a150565b5f81519050919050565b5f82825260208201905092915050565b5f819050602082019050919050565b5f73ffffffffffffffffffffffffffffffffffffffff82169050919050565b5f6104cf826104a6565b9050919050565b6104df816104c5565b82525050565b5f6104f083836104d6565b60208301905092915050565b5f602082019050919050565b5f6105128261047d565b61051c8185610487565b935061052783610497565b805f5b8381101561055757815161053e88826104e5565b9750610549836104fc565b92505060018101905061052a565b5085935050505092915050565b5f6020820190508181035f83015261057c8184610508565b905092915050565b5f80fd5b5f819050919050565b61059a81610588565b81146105a4575f80fd5b50565b5f813590506105b581610591565b92915050565b5f602082840312156105d0576105cf610584565b5b5f6105dd848285016105a7565b91505092915050565b6105ef816104c5565b82525050565b5f6020820190506106085f8301846105e6565b92915050565b610617816104c5565b8114610621575f80fd5b50565b5f813590506106328161060e565b92915050565b5f6020828403121561064d5761064c610584565b5b5f61065a84828501610624565b91505092915050565b5f8115159050919050565b61067781610663565b82525050565b5f6020820190506106905f83018461066e565b92915050565b5f82825260208201905092915050565b7f4e6f7420747261636b65640000000000000000000000000000000000000000005f82015250565b5f6106da600b83610696565b91506106e5826106a6565b602082019050919050565b5f6020820190508181035f830152610707816106ce565b9050919050565b7f416c726561647920747261636b656400000000000000000000000000000000005f82015250565b5f610742600f83610696565b915061074d8261070e565b602082019050919050565b5f6020820190508181035f83015261076f81610736565b905091905056fea2646970667358221220c78af4d1eff6af28c0af6d42d98e04fd05b998a4613f70def6af0adefb096ab864736f6c634300081a0033",
			"opcodes": "PUSH1 0x80 PUSH1 0x40 MSTORE CALLVALUE DUP1 ISZERO PUSH1 0xE JUMPI PUSH0 DUP1 REVERT JUMPDEST POP PUSH2 0x7AC DUP1 PUSH2 0x1C PUSH0 CODECOPY PUSH0 RETURN INVALID PUSH1 0x80 PUSH1 0x40 MSTORE CALLVALUE DUP1 ISZERO PUSH2 0xF JUMPI PUSH0 DUP1 REVERT JUMPDEST POP PUSH1 0x4 CALLDATASIZE LT PUSH2 0x55 JUMPI PUSH0 CALLDATALOAD PUSH1 0xE0 SHR DUP1 PUSH4 0xF560CD7 EQ PUSH2 0x59 JUMPI DUP1 PUSH4 0x2052465E EQ PUSH2 0x77 JUMPI DUP1 PUSH4 0x91C657E8 EQ PUSH2 0xA7 JUMPI DUP1 PUSH4 0xA6871BC3 EQ PUSH2 0xD7 JUMPI DUP1 PUSH4 0xE053EA31 EQ PUSH2 0xF3 JUMPI JUMPDEST PUSH0 DUP1 REVERT JUMPDEST PUSH2 0x61 PUSH2 0x10F JUMP JUMPDEST PUSH1 0x40 MLOAD PUSH2 0x6E SWAP2 SWAP1 PUSH2 0x564 JUMP JUMPDEST PUSH1 0x40 MLOAD DUP1 SWAP2 SUB SWAP1 RETURN JUMPDEST PUSH2 0x91 PUSH1 0x4 DUP1 CALLDATASIZE SUB DUP2 ADD SWAP1 PUSH2 0x8C SWAP2 SWAP1 PUSH2 0x5BB JUMP JUMPDEST PUSH2 0x19A JUMP JUMPDEST PUSH1 0x40 MLOAD PUSH2 0x9E SWAP2 SWAP1 PUSH2 0x5F5 JUMP JUMPDEST PUSH1 0x40 MLOAD DUP1 SWAP2 SUB SWAP1 RETURN JUMPDEST PUSH2 0xC1 PUSH1 0x4 DUP1 CALLDATASIZE SUB DUP2 ADD SWAP1 PUSH2 0xBC SWAP2 SWAP1 PUSH2 0x638 JUMP JUMPDEST PUSH2 0x1D5 JUMP JUMPDEST PUSH1 0x40 MLOAD PUSH2 0xCE SWAP2 SWAP1 PUSH2 0x67D JUMP JUMPDEST PUSH1 0x40 MLOAD DUP1 SWAP2 SUB SWAP1 RETURN JUMPDEST PUSH2 0xF1 PUSH1 0x4 DUP1 CALLDATASIZE SUB DUP2 ADD SWAP1 PUSH2 0xEC SWAP2 SWAP1 PUSH2 0x638 JUMP JUMPDEST PUSH2 0x1F1 JUMP JUMPDEST STOP JUMPDEST PUSH2 0x10D PUSH1 0x4 DUP1 CALLDATASIZE SUB DUP2 ADD SWAP1 PUSH2 0x108 SWAP2 SWAP1 PUSH2 0x638 JUMP JUMPDEST PUSH2 0x306 JUMP JUMPDEST STOP JUMPDEST PUSH1 0x60 PUSH1 0x1 DUP1 SLOAD DUP1 PUSH1 0x20 MUL PUSH1 0x20 ADD PUSH1 0x40 MLOAD SWAP1 DUP2 ADD PUSH1 0x40 MSTORE DUP1 SWAP3 SWAP2 SWAP1 DUP2 DUP2 MSTORE PUSH1 0x20 ADD DUP3 DUP1 SLOAD DUP1 ISZERO PUSH2 0x190 JUMPI PUSH1 0x20 MUL DUP3 ADD SWAP2 SWAP1 PUSH0 MSTORE PUSH1 0x20 PUSH0 KECCAK256 SWAP1 JUMPDEST DUP2 PUSH0 SWAP1 SLOAD SWAP1 PUSH2 0x100 EXP SWAP1 DIV PUSH20 0xFFFFFFFFFFFFFFFFFFFFFFFFFFFFFFFFFFFFFFFF AND PUSH20 0xFFFFFFFFFFFFFFFFFFFFFFFFFFFFFFFFFFFFFFFF AND DUP2 MSTORE PUSH1 0x20 ADD SWAP1 PUSH1 0x1 ADD SWAP1 DUP1 DUP4 GT PUSH2 0x147 JUMPI JUMPDEST POP POP POP POP POP SWAP1 POP SWAP1 JUMP JUMPDEST PUSH1 0x1 DUP2 DUP2 SLOAD DUP2 LT PUSH2 0x1A9 JUMPI PUSH0 DUP1 REVERT JUMPDEST SWAP1 PUSH0 MSTORE PUSH1 0x20 PUSH0 KECCAK256 ADD PUSH0 SWAP2 POP SLOAD SWAP1 PUSH2 0x100 EXP SWAP1 DIV PUSH20 0xFFFFFFFFFFFFFFFFFFFFFFFFFFFFFFFFFFFFFFFF AND DUP2 JUMP JUMPDEST PUSH0 PUSH1 0x20 MSTORE DUP1 PUSH0 MSTORE PUSH1 0x40 PUSH0 KECCAK256 PUSH0 SWAP2 POP SLOAD SWAP1 PUSH2 0x100 EXP SWAP1 DIV PUSH1 0xFF AND DUP2 JUMP JUMPDEST PUSH0 DUP1 DUP3 PUSH20 0xFFFFFFFFFFFFFFFFFFFFFFFFFFFFFFFFFFFFFFFF AND PUSH20 0xFFFFFFFFFFFFFFFFFFFFFFFFFFFFFFFFFFFFFFFF AND DUP2 MSTORE PUSH1 0x20 ADD SWAP1 DUP2 MSTORE PUSH1 0x20 ADD PUSH0 KECCAK256 PUSH0 SWAP1 SLOAD SWAP1 PUSH2 0x100 EXP SWAP1 DIV PUSH1 0xFF AND PUSH2 0x279 JUMPI PUSH1 0x40 MLOAD PUSH32 0x8C379A000000000000000000000000000000000000000000000000000000000 DUP2 MSTORE PUSH1 0x4 ADD PUSH2 0x270 SWAP1 PUSH2 0x6F0 JUMP JUMPDEST PUSH1 0x40 MLOAD DUP1 SWAP2 SUB SWAP1 REVERT JUMPDEST PUSH0 DUP1 PUSH0 DUP4 PUSH20 0xFFFFFFFFFFFFFFFFFFFFFFFFFFFFFFFFFFFFFFFF AND PUSH20 0xFFFFFFFFFFFFFFFFFFFFFFFFFFFFFFFFFFFFFFFF AND DUP2 MSTORE PUSH1 0x20 ADD SWAP1 DUP2 MSTORE PUSH1 0x20 ADD PUSH0 KECCAK256 PUSH0 PUSH2 0x100 EXP DUP2 SLOAD DUP2 PUSH1 0xFF MUL NOT AND SWAP1 DUP4 ISZERO ISZERO MUL OR SWAP1 SSTORE POP PUSH32 0x1A26D4589CFD8AFAD711F28859E2A462164EA0080B8B0A30C919251484D3827E DUP2 PUSH1 0x40 MLOAD PUSH2 0x2FB SWAP2 SWAP1 PUSH2 0x5F5 JUMP JUMPDEST PUSH1 0x40 MLOAD DUP1 SWAP2 SUB SWAP1 LOG1 POP JUMP JUMPDEST PUSH0 DUP1 DUP3 PUSH20 0xFFFFFFFFFFFFFFFFFFFFFFFFFFFFFFFFFFFFFFFF AND PUSH20 0xFFFFFFFFFFFFFFFFFFFFFFFFFFFFFFFFFFFFFFFF AND DUP2 MSTORE PUSH1 0x20 ADD SWAP1 DUP2 MSTORE PUSH1 0x20 ADD PUSH0 KECCAK256 PUSH0 SWAP1 SLOAD SWAP1 PUSH2 0x100 EXP SWAP1 DIV PUSH1 0xFF AND ISZERO PUSH2 0x38F JUMPI PUSH1 0x40 MLOAD PUSH32 0x8C379A000000000000000000000000000000000000000000000000000000000 DUP2 MSTORE PUSH1 0x4 ADD PUSH2 0x386 SWAP1 PUSH2 0x758 JUMP JUMPDEST PUSH1 0x40 MLOAD DUP1 SWAP2 SUB SWAP1 REVERT JUMPDEST PUSH1 0x1 PUSH0 DUP1 DUP4 PUSH20 0xFFFFFFFFFFFFFFFFFFFFFFFFFFFFFFFFFFFFFFFF AND PUSH20 0xFFFFFFFFFFFFFFFFFFFFFFFFFFFFFFFFFFFFFFFF AND DUP2 MSTORE PUSH1 0x20 ADD SWAP1 DUP2 MSTORE PUSH1 0x20 ADD PUSH0 KECCAK256 PUSH0 PUSH2 0x100 EXP DUP2 SLOAD DUP2 PUSH1 0xFF MUL NOT AND SWAP1 DUP4 ISZERO ISZERO MUL OR SWAP1 SSTORE POP PUSH1 0x1 DUP2 SWAP1 DUP1 PUSH1 0x1 DUP2 SLOAD ADD DUP1 DUP3 SSTORE DUP1 SWAP2 POP POP PUSH1 0x1 SWAP1 SUB SWAP1 PUSH0 MSTORE PUSH1 0x20 PUSH0 KECCAK256 ADD PUSH0 SWAP1 SWAP2 SWAP1 SWAP2 SWAP1 SWAP2 PUSH2 0x100 EXP DUP2 SLOAD DUP2 PUSH20 0xFFFFFFFFFFFFFFFFFFFFFFFFFFFFFFFFFFFFFFFF MUL NOT AND SWAP1 DUP4 PUSH20 0xFFFFFFFFFFFFFFFFFFFFFFFFFFFFFFFFFFFFFFFF AND MUL OR SWAP1 SSTORE POP PUSH32 0x55A0FD211917D20D4116EAE41BF9F95382ECEC51AFF32469D64DE73C1ED180A7 DUP2 PUSH1 0x40 MLOAD PUSH2 0x472 SWAP2 SWAP1 PUSH2 0x5F5 JUMP JUMPDEST PUSH1 0x40 MLOAD DUP1 SWAP2 SUB SWAP1 LOG1 POP JUMP JUMPDEST PUSH0 DUP2 MLOAD SWAP1 POP SWAP2 SWAP1 POP JUMP JUMPDEST PUSH0 DUP3 DUP3 MSTORE PUSH1 0x20 DUP3 ADD SWAP1 POP SWAP3 SWAP2 POP POP JUMP JUMPDEST PUSH0 DUP2 SWAP1 POP PUSH1 0x20 DUP3 ADD SWAP1 POP SWAP2 SWAP1 POP JUMP JUMPDEST PUSH0 PUSH20 0xFFFFFFFFFFFFFFFFFFFFFFFFFFFFFFFFFFFFFFFF DUP3 AND SWAP1 POP SWAP2 SWAP1 POP JUMP JUMPDEST PUSH0 PUSH2 0x4CF DUP3 PUSH2 0x4A6 JUMP JUMPDEST SWAP1 POP SWAP2 SWAP1 POP JUMP JUMPDEST PUSH2 0x4DF DUP2 PUSH2 0x4C5 JUMP JUMPDEST DUP3 MSTORE POP POP JUMP JUMPDEST PUSH0 PUSH2 0x4F0 DUP4 DUP4 PUSH2 0x4D6 JUMP JUMPDEST PUSH1 0x20 DUP4 ADD SWAP1 POP SWAP3 SWAP2 POP POP JUMP JUMPDEST PUSH0 PUSH1 0x20 DUP3 ADD SWAP1 POP SWAP2 SWAP1 POP JUMP JUMPDEST PUSH0 PUSH2 0x512 DUP3 PUSH2 0x47D JUMP JUMPDEST PUSH2 0x51C DUP2 DUP6 PUSH2 0x487 JUMP JUMPDEST SWAP4 POP PUSH2 0x527 DUP4 PUSH2 0x497 JUMP JUMPDEST DUP1 PUSH0 JUMPDEST DUP4 DUP2 LT ISZERO PUSH2 0x557 JUMPI DUP2 MLOAD PUSH2 0x53E DUP9 DUP3 PUSH2 0x4E5 JUMP JUMPDEST SWAP8 POP PUSH2 0x549 DUP4 PUSH2 0x4FC JUMP JUMPDEST SWAP3 POP POP PUSH1 0x1 DUP2 ADD SWAP1 POP PUSH2 0x52A JUMP JUMPDEST POP DUP6 SWAP4 POP POP POP POP SWAP3 SWAP2 POP POP JUMP JUMPDEST PUSH0 PUSH1 0x20 DUP3 ADD SWAP1 POP DUP2 DUP2 SUB PUSH0 DUP4 ADD MSTORE PUSH2 0x57C DUP2 DUP5 PUSH2 0x508 JUMP JUMPDEST SWAP1 POP SWAP3 SWAP2 POP POP JUMP JUMPDEST PUSH0 DUP1 REVERT JUMPDEST PUSH0 DUP2 SWAP1 POP SWAP2 SWAP1 POP JUMP JUMPDEST PUSH2 0x59A DUP2 PUSH2 0x588 JUMP JUMPDEST DUP2 EQ PUSH2 0x5A4 JUMPI PUSH0 DUP1 REVERT JUMPDEST POP JUMP JUMPDEST PUSH0 DUP2 CALLDATALOAD SWAP1 POP PUSH2 0x5B5 DUP2 PUSH2 0x591 JUMP JUMPDEST SWAP3 SWAP2 POP POP JUMP JUMPDEST PUSH0 PUSH1 0x20 DUP3 DUP5 SUB SLT ISZERO PUSH2 0x5D0 JUMPI PUSH2 0x5CF PUSH2 0x584 JUMP JUMPDEST JUMPDEST PUSH0 PUSH2 0x5DD DUP5 DUP3 DUP6 ADD PUSH2 0x5A7 JUMP JUMPDEST SWAP2 POP POP SWAP3 SWAP2 POP POP JUMP JUMPDEST PUSH2 0x5EF DUP2 PUSH2 0x4C5 JUMP JUMPDEST DUP3 MSTORE POP POP JUMP JUMPDEST PUSH0 PUSH1 0x20 DUP3 ADD SWAP1 POP PUSH2 0x608 PUSH0 DUP4 ADD DUP5 PUSH2 0x5E6 JUMP JUMPDEST SWAP3 SWAP2 POP POP JUMP JUMPDEST PUSH2 0x617 DUP2 PUSH2 0x4C5 JUMP JUMPDEST DUP2 EQ PUSH2 0x621 JUMPI PUSH0 DUP1 REVERT JUMPDEST POP JUMP JUMPDEST PUSH0 DUP2 CALLDATALOAD SWAP1 POP PUSH2 0x632 DUP2 PUSH2 0x60E JUMP JUMPDEST SWAP3 SWAP2 POP POP JUMP JUMPDEST PUSH0 PUSH1 0x20 DUP3 DUP5 SUB SLT ISZERO PUSH2 0x64D JUMPI PUSH2 0x64C PUSH2 0x584 JUMP JUMPDEST JUMPDEST PUSH0 PUSH2 0x65A DUP5 DUP3 DUP6 ADD PUSH2 0x624 JUMP JUMPDEST SWAP2 POP POP SWAP3 SWAP2 POP POP JUMP JUMPDEST PUSH0 DUP2 ISZERO ISZERO SWAP1 POP SWAP2 SWAP1 POP JUMP JUMPDEST PUSH2 0x677 DUP2 PUSH2 0x663 JUMP JUMPDEST DUP3 MSTORE POP POP JUMP JUMPDEST PUSH0 PUSH1 0x20 DUP3 ADD SWAP1 POP PUSH2 0x690 PUSH0 DUP4 ADD DUP5 PUSH2 0x66E JUMP JUMPDEST SWAP3 SWAP2 POP POP JUMP JUMPDEST PUSH0 DUP3 DUP3 MSTORE PUSH1 0x20 DUP3 ADD SWAP1 POP SWAP3 SWAP2 POP POP JUMP JUMPDEST PUSH32 0x4E6F7420747261636B6564000000000000000000000000000000000000000000 PUSH0 DUP3 ADD MSTORE POP JUMP JUMPDEST PUSH0 PUSH2 0x6DA PUSH1 0xB DUP4 PUSH2 0x696 JUMP JUMPDEST SWAP2 POP PUSH2 0x6E5 DUP3 PUSH2 0x6A6 JUMP JUMPDEST PUSH1 0x20 DUP3 ADD SWAP1 POP SWAP2 SWAP1 POP JUMP JUMPDEST PUSH0 PUSH1 0x20 DUP3 ADD SWAP1 POP DUP2 DUP2 SUB PUSH0 DUP4 ADD MSTORE PUSH2 0x707 DUP2 PUSH2 0x6CE JUMP JUMPDEST SWAP1 POP SWAP2 SWAP1 POP JUMP JUMPDEST PUSH32 0x416C726561647920747261636B65640000000000000000000000000000000000 PUSH0 DUP3 ADD MSTORE POP JUMP JUMPDEST PUSH0 PUSH2 0x742 PUSH1 0xF DUP4 PUSH2 0x696 JUMP JUMPDEST SWAP2 POP PUSH2 0x74D DUP3 PUSH2 0x70E JUMP JUMPDEST PUSH1 0x20 DUP3 ADD SWAP1 POP SWAP2 SWAP1 POP JUMP JUMPDEST PUSH0 PUSH1 0x20 DUP3 ADD SWAP1 POP DUP2 DUP2 SUB PUSH0 DUP4 ADD MSTORE PUSH2 0x76F DUP2 PUSH2 0x736 JUMP JUMPDEST SWAP1 POP SWAP2 SWAP1 POP JUMP INVALID LOG2 PUSH5 0x6970667358 0x22 SLT KECCAK256 0xC7 DUP11 DELEGATECALL 0xD1 0xEF 0xF6 0xAF 0x28 0xC0 0xAF PUSH14 0x42D98E04FD05B998A4613F70DEF6 0xAF EXP 0xDE 0xFB MULMOD PUSH11 0xB864736F6C634300081A00 CALLER "
		},
		"gasEstimates": {
			"creation": {
				"codeDepositCost": "392800",
				"executionCost": "428",
				"totalCost": "393228"
			},
			"external": {
				"isZombie(address)": "2854",
				"list()": "infinite",
				"purge(address)": "infinite",
				"report(address)": "infinite",
				"zombies(uint256)": "4944"
			}
		},
		"methodIdentifiers": {
			"isZombie(address)": "91c657e8",
			"list()": "0f560cd7",
			"purge(address)": "a6871bc3",
			"report(address)": "e053ea31",
			"zombies(uint256)": "2052465e"
		}
	},
	"abi": [
		{
			"anonymous": false,
			"inputs": [
				{
					"indexed": false,
					"internalType": "address",
					"name": "zombie",
					"type": "address"
				}
			],
			"name": "ZombieFound",
			"type": "event"
		},
		{
			"anonymous": false,
			"inputs": [
				{
					"indexed": false,
					"internalType": "address",
					"name": "target",
					"type": "address"
				}
			],
			"name": "ZombieRemoved",
			"type": "event"
		},
		{
			"inputs": [
				{
					"internalType": "address",
					"name": "",
					"type": "address"
				}
			],
			"name": "isZombie",
			"outputs": [
				{
					"internalType": "bool",
					"name": "",
					"type": "bool"
				}
			],
			"stateMutability": "view",
			"type": "function"
		},
		{
			"inputs": [],
			"name": "list",
			"outputs": [
				{
					"internalType": "address[]",
					"name": "",
					"type": "address[]"
				}
			],
			"stateMutability": "view",
			"type": "function"
		},
		{
			"inputs": [
				{
					"internalType": "address",
					"name": "target",
					"type": "address"
				}
			],
			"name": "purge",
			"outputs": [],
			"stateMutability": "nonpayable",
			"type": "function"
		},
		{
			"inputs": [
				{
					"internalType": "address",
					"name": "target",
					"type": "address"
				}
			],
			"name": "report",
			"outputs": [],
			"stateMutability": "nonpayable",
			"type": "function"
		},
		{
			"inputs": [
				{
					"internalType": "uint256",
					"name": "",
					"type": "uint256"
				}
			],
			"name": "zombies",
			"outputs": [
				{
					"internalType": "address",
					"name": "",
					"type": "address"
				}
			],
			"stateMutability": "view",
			"type": "function"
		}
	]
}