{
	"data": {
		"bytecode": {
			"linkReferences": {},
			"object": "6080604052348015600e575f80fd5b506102498061001c5f395ff3fe608060405234801561000f575f80fd5b5060043610610029575f3560e01c806302f56e101461002d575b5f80fd5b6100476004803603810190610042919061010f565b610049565b005b3373ffffffffffffffffffffffffffffffffffffffff167f7fb42fad6b94f142ed17582a9036c33af1837c098318c9347fe59b2faaf0868c83836003604051610094939291906101de565b60405180910390a25050565b5f80fd5b5f815f0b9050919050565b6100b8816100a4565b81146100c2575f80fd5b50565b5f813590506100d3816100af565b92915050565b5f60ff82169050919050565b6100ee816100d9565b81146100f8575f80fd5b50565b5f81359050610109816100e5565b92915050565b5f8060408385031215610125576101246100a0565b5b5f610132858286016100c5565b9250506020610143858286016100fb565b9150509250929050565b610156816100a4565b82525050565b610165816100d9565b82525050565b7f4e487b71000000000000000000000000000000000000000000000000000000005f52602160045260245ffd5b600481106101a9576101a861016b565b5b50565b5f8190506101b982610198565b919050565b5f6101c8826101ac565b9050919050565b6101d8816101be565b82525050565b5f6060820190506101f15f83018661014d565b6101fe602083018561015c565b61020b60408301846101cf565b94935050505056fea26469706673582212204e0b39762362409c3832c2a8f1ffb08db54736c7e5a4fc802422ae8777a07f1464736f6c634300081a0033",
			"opcodes": "PUSH1 0x80 PUSH1 0x40 MSTORE CALLVALUE DUP1 ISZERO PUSH1 0xE JUMPI PUSH0 DUP1 REVERT JUMPDEST POP PUSH2 0x249 DUP1 PUSH2 0x1C PUSH0 CODECOPY PUSH0 RETURN INVALID PUSH1 0x80 PUSH1 0x40 MSTORE CALLVALUE DUP1 ISZERO PUSH2 0xF JUMPI PUSH0 DUP1 REVERT JUMPDEST POP PUSH1 0x4 CALLDATASIZE LT PUSH2 0x29 JUMPI PUSH0 CALLDATALOAD PUSH1 0xE0 SHR DUP1 PUSH4 0x2F56E10 EQ PUSH2 0x2D JUMPI JUMPDEST PUSH0 DUP1 REVERT JUMPDEST PUSH2 0x47 PUSH1 0x4 DUP1 CALLDATASIZE SUB DUP2 ADD SWAP1 PUSH2 0x42 SWAP2 SWAP1 PUSH2 0x10F JUMP JUMPDEST PUSH2 0x49 JUMP JUMPDEST STOP JUMPDEST CALLER PUSH20 0xFFFFFFFFFFFFFFFFFFFFFFFFFFFFFFFFFFFFFFFF AND PUSH32 0x7FB42FAD6B94F142ED17582A9036C33AF1837C098318C9347FE59B2FAAF0868C DUP4 DUP4 PUSH1 0x3 PUSH1 0x40 MLOAD PUSH2 0x94 SWAP4 SWAP3 SWAP2 SWAP1 PUSH2 0x1DE JUMP JUMPDEST PUSH1 0x40 MLOAD DUP1 SWAP2 SUB SWAP1 LOG2 POP POP JUMP JUMPDEST PUSH0 DUP1 REVERT JUMPDEST PUSH0 DUP2 PUSH0 SIGNEXTEND SWAP1 POP SWAP2 SWAP1 POP JUMP JUMPDEST PUSH2 0xB8 DUP2 PUSH2 0xA4 JUMP JUMPDEST DUP2 EQ PUSH2 0xC2 JUMPI PUSH0 DUP1 REVERT JUMPDEST POP JUMP JUMPDEST PUSH0 DUP2 CALLDATALOAD SWAP1 POP PUSH2 0xD3 DUP2 PUSH2 0xAF JUMP JUMPDEST SWAP3 SWAP2 POP POP JUMP JUMPDEST PUSH0 PUSH1 0xFF DUP3 AND SWAP1 POP SWAP2 SWAP1 POP JUMP JUMPDEST PUSH2 0xEE DUP2 PUSH2 0xD9 JUMP JUMPDEST DUP2 EQ PUSH2 0xF8 JUMPI PUSH0 DUP1 REVERT JUMPDEST POP JUMP JUMPDEST PUSH0 DUP2 CALLDATALOAD SWAP1 POP PUSH2 0x109 DUP2 PUSH2 0xE5 JUMP JUMPDEST SWAP3 SWAP2 POP POP JUMP JUMPDEST PUSH0 DUP1 PUSH1 0x40 DUP4 DUP6 SUB SLT ISZERO PUSH2 0x125 JUMPI PUSH2 0x124 PUSH2 0xA0 JUMP JUMPDEST JUMPDEST PUSH0 PUSH2 0x132 DUP6 DUP3 DUP7 ADD PUSH2 0xC5 JUMP JUMPDEST SWAP3 POP POP PUSH1 0x20 PUSH2 0x143 DUP6 DUP3 DUP7 ADD PUSH2 0xFB JUMP JUMPDEST SWAP2 POP POP SWAP3 POP SWAP3 SWAP1 POP JUMP JUMPDEST PUSH2 0x156 DUP2 PUSH2 0xA4 JUMP JUMPDEST DUP3 MSTORE POP POP JUMP JUMPDEST PUSH2 0x165 DUP2 PUSH2 0xD9 JUMP JUMPDEST DUP3 MSTORE POP POP JUMP JUMPDEST PUSH32 0x4E487B7100000000000000000000000000000000000000000000000000000000 PUSH0 MSTORE PUSH1 0x21 PUSH1 0x4 MSTORE PUSH1 0x24 PUSH0 REVERT JUMPDEST PUSH1 0x4 DUP2 LT PUSH2 0x1A9 JUMPI PUSH2 0x1A8 PUSH2 0x16B JUMP JUMPDEST JUMPDEST POP JUMP JUMPDEST PUSH0 DUP2 SWAP1 POP PUSH2 0x1B9 DUP3 PUSH2 0x198 JUMP JUMPDEST SWAP2 SWAP1 POP JUMP JUMPDEST PUSH0 PUSH2 0x1C8 DUP3 PUSH2 0x1AC JUMP JUMPDEST SWAP1 POP SWAP2 SWAP1 POP JUMP JUMPDEST PUSH2 0x1D8 DUP2 PUSH2 0x1BE JUMP JUMPDEST DUP3 MSTORE POP POP JUMP JUMPDEST PUSH0 PUSH1 0x60 DUP3 ADD SWAP1 POP PUSH2 0x1F1 PUSH0 DUP4 ADD DUP7 PUSH2 0x14D JUMP JUMPDEST PUSH2 0x1FE PUSH1 0x20 DUP4 ADD DUP6 PUSH2 0x15C JUMP JUMPDEST PUSH2 0x20B PUSH1 0x40 DUP4 ADD DUP5 PUSH2 0x1CF JUMP JUMPDEST SWAP5 SWAP4 POP POP POP POP JUMP INVALID LOG2 PUSH5 0x6970667358 0x22 SLT KECCAK256 0x4E SIGNEXTEND CODECOPY PUSH23 0x2362409C3832C2A8F1FFB08DB54736C7E5A4FC802422AE DUP8 PUSH24 0xA07F1464736F6C634300081A003300000000000000000000 "
		},
		"gasEstimates": {
			"creation": {
				"codeDepositCost": "117000",
				"executionCost": "163",
				"totalCost": "117163"
			},
			"external": {
				"logSignal(int8,uint8)": "infinite"
			}
		},
		"methodIdentifiers": {
			"logSignal(int8,uint8)": "02f56e10"
		}
	},
	"abi": [
		{
			"anonymous": false,
			"inputs": [
				{
					"indexed": true,
					"internalType": "address",
					"name": "mapper",
					"type": "address"
				},
				{
					"indexed": false,
					"internalType": "int8",
					"name": "rssi",
					"type": "int8"
				},
				{
					"indexed": false,
					"internalType": "uint8",
					"name": "channel",
					"type": "uint8"
				},
				{
					"indexed": false,
					"internalType": "enum WarDrivingAttackType",
					"name": "attack",
					"type": "uint8"
				}
			],
			"name": "MapData",
			"type": "event"
		},
		{
			"inputs": [
				{
					"internalType": "int8",
					"name": "rssi",
					"type": "int8"
				},
				{
					"internalType": "uint8",
					"name": "channel",
					"type": "uint8"
				}
			],
			"name": "logSignal",
			"outputs": [],
			"stateMutability": "nonpayable",
			"type": "function"
		}
	]
}