{
	"D/Distance Vector/Distance Vector.sol": {
		"Attack_DistanceVector": {
			"abi": [
				{
					"inputs": [
						{
							"internalType": "contract DistanceVectorVuln",
							"name": "_t",
							"type": "address"
						}
					],
					"stateMutability": "nonpayable",
					"type": "constructor"
				},
				{
					"inputs": [
						{
							"internalType": "address",
							"name": "dest",
							"type": "address"
						},
						{
							"internalType": "address",
							"name": "a",
							"type": "address"
						},
						{
							"internalType": "address",
							"name": "b",
							"type": "address"
						}
					],
					"name": "causeLoop",
					"outputs": [],
					"stateMutability": "nonpayable",
					"type": "function"
				},
				{
					"inputs": [
						{
							"internalType": "address",
							"name": "dest",
							"type": "address"
						},
						{
							"internalType": "address",
							"name": "nextHop",
							"type": "address"
						},
						{
							"internalType": "uint256",
							"name": "startMetric",
							"type": "uint256"
						},
						{
							"internalType": "uint256",
							"name": "count",
							"type": "uint256"
						}
					],
					"name": "floodPoison",
					"outputs": [],
					"stateMutability": "nonpayable",
					"type": "function"
				},
				{
					"inputs": [],
					"name": "target",
					"outputs": [
						{
							"internalType": "contract DistanceVectorVuln",
							"name": "",
							"type": "address"
						}
					],
					"stateMutability": "view",
					"type": "function"
				}
			],
			"devdoc": {
				"kind": "dev",
				"methods": {},
				"version": 1
			},
			"evm": {
				"assembly": "    /* \"D/Distance Vector/Distance Vector.sol\":2521:3239  contract Attack_DistanceVector {... */\n  mstore(0x40, 0x80)\n    /* \"D/Distance Vector/Distance Vector.sol\":2596:2647  constructor(DistanceVectorVuln _t) { target = _t; } */\n  callvalue\n  dup1\n  iszero\n  tag_1\n  jumpi\n  0x00\n  dup1\n  revert\ntag_1:\n  pop\n  mload(0x40)\n  sub(codesize, bytecodeSize)\n  dup1\n  bytecodeSize\n  dup4\n  codecopy\n  dup2\n  dup2\n  add\n  0x40\n  mstore\n  dup2\n  add\n  swap1\n  tag_2\n  swap2\n  swap1\n  tag_3\n  jump\t// in\ntag_2:\n    /* \"D/Distance Vector/Distance Vector.sol\":2642:2644  _t */\n  dup1\n    /* \"D/Distance Vector/Distance Vector.sol\":2633:2639  target */\n  0x00\n  dup1\n    /* \"D/Distance Vector/Distance Vector.sol\":2633:2644  target = _t */\n  0x0100\n  exp\n  dup2\n  sload\n  dup2\n  0xffffffffffffffffffffffffffffffffffffffff\n  mul\n  not\n  and\n  swap1\n  dup4\n  0xffffffffffffffffffffffffffffffffffffffff\n  and\n  mul\n  or\n  swap1\n  sstore\n  pop\n    /* \"D/Distance Vector/Distance Vector.sol\":2596:2647  constructor(DistanceVectorVuln _t) { target = _t; } */\n  pop\n    /* \"D/Distance Vector/Distance Vector.sol\":2521:3239  contract Attack_DistanceVector {... */\n  jump(tag_6)\n    /* \"#utility.yul\":88:205   */\ntag_8:\n    /* \"#utility.yul\":197:198   */\n  0x00\n    /* \"#utility.yul\":194:195   */\n  dup1\n    /* \"#utility.yul\":187:199   */\n  revert\n    /* \"#utility.yul\":334:460   */\ntag_10:\n    /* \"#utility.yul\":371:378   */\n  0x00\n    /* \"#utility.yul\":411:453   */\n  0xffffffffffffffffffffffffffffffffffffffff\n    /* \"#utility.yul\":404:409   */\n  dup3\n    /* \"#utility.yul\":400:454   */\n  and\n    /* \"#utility.yul\":389:454   */\n  swap1\n  pop\n    /* \"#utility.yul\":334:460   */\n  swap2\n  swap1\n  pop\n  jump\t// out\n    /* \"#utility.yul\":466:562   */\ntag_11:\n    /* \"#utility.yul\":503:510   */\n  0x00\n    /* \"#utility.yul\":532:556   */\n  tag_21\n    /* \"#utility.yul\":550:555   */\n  dup3\n    /* \"#utility.yul\":532:556   */\n  tag_10\n  jump\t// in\ntag_21:\n    /* \"#utility.yul\":521:556   */\n  swap1\n  pop\n    /* \"#utility.yul\":466:562   */\n  swap2\n  swap1\n  pop\n  jump\t// out\n    /* \"#utility.yul\":568:689   */\ntag_12:\n    /* \"#utility.yul\":630:637   */\n  0x00\n    /* \"#utility.yul\":659:683   */\n  tag_23\n    /* \"#utility.yul\":677:682   */\n  dup3\n    /* \"#utility.yul\":659:683   */\n  tag_11\n  jump\t// in\ntag_23:\n    /* \"#utility.yul\":648:683   */\n  swap1\n  pop\n    /* \"#utility.yul\":568:689   */\n  swap2\n  swap1\n  pop\n  jump\t// out\n    /* \"#utility.yul\":695:867   */\ntag_13:\n    /* \"#utility.yul\":793:842   */\n  tag_25\n    /* \"#utility.yul\":836:841   */\n  dup2\n    /* \"#utility.yul\":793:842   */\n  tag_12\n  jump\t// in\ntag_25:\n    /* \"#utility.yul\":786:791   */\n  dup2\n    /* \"#utility.yul\":783:843   */\n  eq\n    /* \"#utility.yul\":773:861   */\n  tag_26\n  jumpi\n    /* \"#utility.yul\":857:858   */\n  0x00\n    /* \"#utility.yul\":854:855   */\n  dup1\n    /* \"#utility.yul\":847:859   */\n  revert\n    /* \"#utility.yul\":773:861   */\ntag_26:\n    /* \"#utility.yul\":695:867   */\n  pop\n  jump\t// out\n    /* \"#utility.yul\":873:1066   */\ntag_14:\n    /* \"#utility.yul\":955:960   */\n  0x00\n    /* \"#utility.yul\":986:992   */\n  dup2\n    /* \"#utility.yul\":980:993   */\n  mload\n    /* \"#utility.yul\":971:993   */\n  swap1\n  pop\n    /* \"#utility.yul\":1002:1060   */\n  tag_28\n    /* \"#utility.yul\":1054:1059   */\n  dup2\n    /* \"#utility.yul\":1002:1060   */\n  tag_13\n  jump\t// in\ntag_28:\n    /* \"#utility.yul\":873:1066   */\n  swap3\n  swap2\n  pop\n  pop\n  jump\t// out\n    /* \"#utility.yul\":1072:1473   */\ntag_3:\n    /* \"#utility.yul\":1167:1173   */\n  0x00\n    /* \"#utility.yul\":1216:1218   */\n  0x20\n    /* \"#utility.yul\":1204:1213   */\n  dup3\n    /* \"#utility.yul\":1195:1202   */\n  dup5\n    /* \"#utility.yul\":1191:1214   */\n  sub\n    /* \"#utility.yul\":1187:1219   */\n  slt\n    /* \"#utility.yul\":1184:1303   */\n  iszero\n  tag_30\n  jumpi\n    /* \"#utility.yul\":1222:1301   */\n  tag_31\n  tag_8\n  jump\t// in\ntag_31:\n    /* \"#utility.yul\":1184:1303   */\ntag_30:\n    /* \"#utility.yul\":1342:1343   */\n  0x00\n    /* \"#utility.yul\":1367:1456   */\n  tag_32\n    /* \"#utility.yul\":1448:1455   */\n  dup5\n    /* \"#utility.yul\":1439:1445   */\n  dup3\n    /* \"#utility.yul\":1428:1437   */\n  dup6\n    /* \"#utility.yul\":1424:1446   */\n  add\n    /* \"#utility.yul\":1367:1456   */\n  tag_14\n  jump\t// in\ntag_32:\n    /* \"#utility.yul\":1357:1456   */\n  swap2\n  pop\n    /* \"#utility.yul\":1313:1466   */\n  pop\n    /* \"#utility.yul\":1072:1473   */\n  swap3\n  swap2\n  pop\n  pop\n  jump\t// out\n    /* \"D/Distance Vector/Distance Vector.sol\":2521:3239  contract Attack_DistanceVector {... */\ntag_6:\n  dataSize(sub_0)\n  dup1\n  dataOffset(sub_0)\n  0x00\n  codecopy\n  0x00\n  return\nstop\n\nsub_0: assembly {\n        /* \"D/Distance Vector/Distance Vector.sol\":2521:3239  contract Attack_DistanceVector {... */\n      mstore(0x40, 0x80)\n      callvalue\n      dup1\n      iszero\n      tag_1\n      jumpi\n      0x00\n      dup1\n      revert\n    tag_1:\n      pop\n      jumpi(tag_2, lt(calldatasize, 0x04))\n      shr(0xe0, calldataload(0x00))\n      dup1\n      0x3ae28705\n      eq\n      tag_3\n      jumpi\n      dup1\n      0xa750083f\n      eq\n      tag_4\n      jumpi\n      dup1\n      0xd4b83992\n      eq\n      tag_5\n      jumpi\n    tag_2:\n      0x00\n      dup1\n      revert\n        /* \"D/Distance Vector/Distance Vector.sol\":2716:2940  function floodPoison(address dest, address nextHop, uint256 startMetric, uint256 count) external {... */\n    tag_3:\n      tag_6\n      0x04\n      dup1\n      calldatasize\n      sub\n      dup2\n      add\n      swap1\n      tag_7\n      swap2\n      swap1\n      tag_8\n      jump\t// in\n    tag_7:\n      tag_9\n      jump\t// in\n    tag_6:\n      stop\n        /* \"D/Distance Vector/Distance Vector.sol\":2996:3237  function causeLoop(address dest, address a, address b) external {... */\n    tag_4:\n      tag_10\n      0x04\n      dup1\n      calldatasize\n      sub\n      dup2\n      add\n      swap1\n      tag_11\n      swap2\n      swap1\n      tag_12\n      jump\t// in\n    tag_11:\n      tag_13\n      jump\t// in\n    tag_10:\n      stop\n        /* \"D/Distance Vector/Distance Vector.sol\":2558:2590  DistanceVectorVuln public target */\n    tag_5:\n      tag_14\n      tag_15\n      jump\t// in\n    tag_14:\n      mload(0x40)\n      tag_16\n      swap2\n      swap1\n      tag_17\n      jump\t// in\n    tag_16:\n      mload(0x40)\n      dup1\n      swap2\n      sub\n      swap1\n      return\n        /* \"D/Distance Vector/Distance Vector.sol\":2716:2940  function floodPoison(address dest, address nextHop, uint256 startMetric, uint256 count) external {... */\n    tag_9:\n        /* \"D/Distance Vector/Distance Vector.sol\":2828:2837  uint256 i */\n      0x00\n        /* \"D/Distance Vector/Distance Vector.sol\":2823:2934  for (uint256 i = 0; i < count; i++) {... */\n    tag_19:\n        /* \"D/Distance Vector/Distance Vector.sol\":2847:2852  count */\n      dup2\n        /* \"D/Distance Vector/Distance Vector.sol\":2843:2844  i */\n      dup2\n        /* \"D/Distance Vector/Distance Vector.sol\":2843:2852  i < count */\n      lt\n        /* \"D/Distance Vector/Distance Vector.sol\":2823:2934  for (uint256 i = 0; i < count; i++) {... */\n      iszero\n      tag_20\n      jumpi\n        /* \"D/Distance Vector/Distance Vector.sol\":2873:2879  target */\n      0x00\n      dup1\n      sload\n      swap1\n      0x0100\n      exp\n      swap1\n      div\n      0xffffffffffffffffffffffffffffffffffffffff\n      and\n        /* \"D/Distance Vector/Distance Vector.sol\":2873:2891  target.updateRoute */\n      0xffffffffffffffffffffffffffffffffffffffff\n      and\n      0x52b65ad0\n        /* \"D/Distance Vector/Distance Vector.sol\":2892:2896  dest */\n      dup7\n        /* \"D/Distance Vector/Distance Vector.sol\":2898:2905  nextHop */\n      dup7\n        /* \"D/Distance Vector/Distance Vector.sol\":2921:2922  i */\n      dup5\n        /* \"D/Distance Vector/Distance Vector.sol\":2907:2918  startMetric */\n      dup8\n        /* \"D/Distance Vector/Distance Vector.sol\":2907:2922  startMetric + i */\n      tag_22\n      swap2\n      swap1\n      tag_23\n      jump\t// in\n    tag_22:\n        /* \"D/Distance Vector/Distance Vector.sol\":2873:2923  target.updateRoute(dest, nextHop, startMetric + i) */\n      mload(0x40)\n      dup5\n      0xffffffff\n      and\n      0xe0\n      shl\n      dup2\n      mstore\n      0x04\n      add\n      tag_24\n      swap4\n      swap3\n      swap2\n      swap1\n      tag_25\n      jump\t// in\n    tag_24:\n      0x00\n      mload(0x40)\n      dup1\n      dup4\n      sub\n      dup2\n      0x00\n      dup8\n      dup1\n      extcodesize\n      iszero\n      dup1\n      iszero\n      tag_26\n      jumpi\n      0x00\n      dup1\n      revert\n    tag_26:\n      pop\n      gas\n      call\n      iszero\n      dup1\n      iszero\n      tag_28\n      jumpi\n      returndatasize\n      0x00\n      dup1\n      returndatacopy\n      revert(0x00, returndatasize)\n    tag_28:\n      pop\n      pop\n      pop\n      pop\n        /* \"D/Distance Vector/Distance Vector.sol\":2854:2857  i++ */\n      dup1\n      dup1\n      0x01\n      add\n      swap2\n      pop\n      pop\n        /* \"D/Distance Vector/Distance Vector.sol\":2823:2934  for (uint256 i = 0; i < count; i++) {... */\n      jump(tag_19)\n    tag_20:\n      pop\n        /* \"D/Distance Vector/Distance Vector.sol\":2716:2940  function floodPoison(address dest, address nextHop, uint256 startMetric, uint256 count) external {... */\n      pop\n      pop\n      pop\n      pop\n      jump\t// out\n        /* \"D/Distance Vector/Distance Vector.sol\":2996:3237  function causeLoop(address dest, address a, address b) external {... */\n    tag_13:\n        /* \"D/Distance Vector/Distance Vector.sol\":3070:3076  target */\n      0x00\n      dup1\n      sload\n      swap1\n      0x0100\n      exp\n      swap1\n      div\n      0xffffffffffffffffffffffffffffffffffffffff\n      and\n        /* \"D/Distance Vector/Distance Vector.sol\":3070:3088  target.updateRoute */\n      0xffffffffffffffffffffffffffffffffffffffff\n      and\n      0x52b65ad0\n        /* \"D/Distance Vector/Distance Vector.sol\":3089:3093  dest */\n      dup5\n        /* \"D/Distance Vector/Distance Vector.sol\":3095:3096  a */\n      dup5\n        /* \"D/Distance Vector/Distance Vector.sol\":3098:3099  1 */\n      0x01\n        /* \"D/Distance Vector/Distance Vector.sol\":3070:3100  target.updateRoute(dest, a, 1) */\n      mload(0x40)\n      dup5\n      0xffffffff\n      and\n      0xe0\n      shl\n      dup2\n      mstore\n      0x04\n      add\n      tag_30\n      swap4\n      swap3\n      swap2\n      swap1\n      tag_31\n      jump\t// in\n    tag_30:\n      0x00\n      mload(0x40)\n      dup1\n      dup4\n      sub\n      dup2\n      0x00\n      dup8\n      dup1\n      extcodesize\n      iszero\n      dup1\n      iszero\n      tag_32\n      jumpi\n      0x00\n      dup1\n      revert\n    tag_32:\n      pop\n      gas\n      call\n      iszero\n      dup1\n      iszero\n      tag_34\n      jumpi\n      returndatasize\n      0x00\n      dup1\n      returndatacopy\n      revert(0x00, returndatasize)\n    tag_34:\n      pop\n      pop\n      pop\n      pop\n        /* \"D/Distance Vector/Distance Vector.sol\":3110:3116  target */\n      0x00\n      dup1\n      sload\n      swap1\n      0x0100\n      exp\n      swap1\n      div\n      0xffffffffffffffffffffffffffffffffffffffff\n      and\n        /* \"D/Distance Vector/Distance Vector.sol\":3110:3128  target.updateRoute */\n      0xffffffffffffffffffffffffffffffffffffffff\n      and\n      0x52b65ad0\n        /* \"D/Distance Vector/Distance Vector.sol\":3129:3133  dest */\n      dup5\n        /* \"D/Distance Vector/Distance Vector.sol\":3135:3136  b */\n      dup4\n        /* \"D/Distance Vector/Distance Vector.sol\":3138:3139  1 */\n      0x01\n        /* \"D/Distance Vector/Distance Vector.sol\":3110:3140  target.updateRoute(dest, b, 1) */\n      mload(0x40)\n      dup5\n      0xffffffff\n      and\n      0xe0\n      shl\n      dup2\n      mstore\n      0x04\n      add\n      tag_35\n      swap4\n      swap3\n      swap2\n      swap1\n      tag_31\n      jump\t// in\n    tag_35:\n      0x00\n      mload(0x40)\n      dup1\n      dup4\n      sub\n      dup2\n      0x00\n      dup8\n      dup1\n      extcodesize\n      iszero\n      dup1\n      iszero\n      tag_36\n      jumpi\n      0x00\n      dup1\n      revert\n    tag_36:\n      pop\n      gas\n      call\n      iszero\n      dup1\n      iszero\n      tag_38\n      jumpi\n      returndatasize\n      0x00\n      dup1\n      returndatacopy\n      revert(0x00, returndatasize)\n    tag_38:\n      pop\n      pop\n      pop\n      pop\n        /* \"D/Distance Vector/Distance Vector.sol\":3200:3206  target */\n      0x00\n      dup1\n      sload\n      swap1\n      0x0100\n      exp\n      swap1\n      div\n      0xffffffffffffffffffffffffffffffffffffffff\n      and\n        /* \"D/Distance Vector/Distance Vector.sol\":3200:3218  target.updateRoute */\n      0xffffffffffffffffffffffffffffffffffffffff\n      and\n      0x52b65ad0\n        /* \"D/Distance Vector/Distance Vector.sol\":3219:3223  dest */\n      dup5\n        /* \"D/Distance Vector/Distance Vector.sol\":3225:3226  b */\n      dup4\n        /* \"D/Distance Vector/Distance Vector.sol\":3228:3229  2 */\n      0x02\n        /* \"D/Distance Vector/Distance Vector.sol\":3200:3230  target.updateRoute(dest, b, 2) */\n      mload(0x40)\n      dup5\n      0xffffffff\n      and\n      0xe0\n      shl\n      dup2\n      mstore\n      0x04\n      add\n      tag_39\n      swap4\n      swap3\n      swap2\n      swap1\n      tag_40\n      jump\t// in\n    tag_39:\n      0x00\n      mload(0x40)\n      dup1\n      dup4\n      sub\n      dup2\n      0x00\n      dup8\n      dup1\n      extcodesize\n      iszero\n      dup1\n      iszero\n      tag_41\n      jumpi\n      0x00\n      dup1\n      revert\n    tag_41:\n      pop\n      gas\n      call\n      iszero\n      dup1\n      iszero\n      tag_43\n      jumpi\n      returndatasize\n      0x00\n      dup1\n      returndatacopy\n      revert(0x00, returndatasize)\n    tag_43:\n      pop\n      pop\n      pop\n      pop\n        /* \"D/Distance Vector/Distance Vector.sol\":2996:3237  function causeLoop(address dest, address a, address b) external {... */\n      pop\n      pop\n      pop\n      jump\t// out\n        /* \"D/Distance Vector/Distance Vector.sol\":2558:2590  DistanceVectorVuln public target */\n    tag_15:\n      0x00\n      dup1\n      sload\n      swap1\n      0x0100\n      exp\n      swap1\n      div\n      0xffffffffffffffffffffffffffffffffffffffff\n      and\n      dup2\n      jump\t// out\n        /* \"#utility.yul\":88:205   */\n    tag_45:\n        /* \"#utility.yul\":197:198   */\n      0x00\n        /* \"#utility.yul\":194:195   */\n      dup1\n        /* \"#utility.yul\":187:199   */\n      revert\n        /* \"#utility.yul\":334:460   */\n    tag_47:\n        /* \"#utility.yul\":371:378   */\n      0x00\n        /* \"#utility.yul\":411:453   */\n      0xffffffffffffffffffffffffffffffffffffffff\n        /* \"#utility.yul\":404:409   */\n      dup3\n        /* \"#utility.yul\":400:454   */\n      and\n        /* \"#utility.yul\":389:454   */\n      swap1\n      pop\n        /* \"#utility.yul\":334:460   */\n      swap2\n      swap1\n      pop\n      jump\t// out\n        /* \"#utility.yul\":466:562   */\n    tag_48:\n        /* \"#utility.yul\":503:510   */\n      0x00\n        /* \"#utility.yul\":532:556   */\n      tag_74\n        /* \"#utility.yul\":550:555   */\n      dup3\n        /* \"#utility.yul\":532:556   */\n      tag_47\n      jump\t// in\n    tag_74:\n        /* \"#utility.yul\":521:556   */\n      swap1\n      pop\n        /* \"#utility.yul\":466:562   */\n      swap2\n      swap1\n      pop\n      jump\t// out\n        /* \"#utility.yul\":568:690   */\n    tag_49:\n        /* \"#utility.yul\":641:665   */\n      tag_76\n        /* \"#utility.yul\":659:664   */\n      dup2\n        /* \"#utility.yul\":641:665   */\n      tag_48\n      jump\t// in\n    tag_76:\n        /* \"#utility.yul\":634:639   */\n      dup2\n        /* \"#utility.yul\":631:666   */\n      eq\n        /* \"#utility.yul\":621:684   */\n      tag_77\n      jumpi\n        /* \"#utility.yul\":680:681   */\n      0x00\n        /* \"#utility.yul\":677:678   */\n      dup1\n        /* \"#utility.yul\":670:682   */\n      revert\n        /* \"#utility.yul\":621:684   */\n    tag_77:\n        /* \"#utility.yul\":568:690   */\n      pop\n      jump\t// out\n        /* \"#utility.yul\":696:835   */\n    tag_50:\n        /* \"#utility.yul\":742:747   */\n      0x00\n        /* \"#utility.yul\":780:786   */\n      dup2\n        /* \"#utility.yul\":767:787   */\n      calldataload\n        /* \"#utility.yul\":758:787   */\n      swap1\n      pop\n        /* \"#utility.yul\":796:829   */\n      tag_79\n        /* \"#utility.yul\":823:828   */\n      dup2\n        /* \"#utility.yul\":796:829   */\n      tag_49\n      jump\t// in\n    tag_79:\n        /* \"#utility.yul\":696:835   */\n      swap3\n      swap2\n      pop\n      pop\n      jump\t// out\n        /* \"#utility.yul\":841:918   */\n    tag_51:\n        /* \"#utility.yul\":878:885   */\n      0x00\n        /* \"#utility.yul\":907:912   */\n      dup2\n        /* \"#utility.yul\":896:912   */\n      swap1\n      pop\n        /* \"#utility.yul\":841:918   */\n      swap2\n      swap1\n      pop\n      jump\t// out\n        /* \"#utility.yul\":924:1046   */\n    tag_52:\n        /* \"#utility.yul\":997:1021   */\n      tag_82\n        /* \"#utility.yul\":1015:1020   */\n      dup2\n        /* \"#utility.yul\":997:1021   */\n      tag_51\n      jump\t// in\n    tag_82:\n        /* \"#utility.yul\":990:995   */\n      dup2\n        /* \"#utility.yul\":987:1022   */\n      eq\n        /* \"#utility.yul\":977:1040   */\n      tag_83\n      jumpi\n        /* \"#utility.yul\":1036:1037   */\n      0x00\n        /* \"#utility.yul\":1033:1034   */\n      dup1\n        /* \"#utility.yul\":1026:1038   */\n      revert\n        /* \"#utility.yul\":977:1040   */\n    tag_83:\n        /* \"#utility.yul\":924:1046   */\n      pop\n      jump\t// out\n        /* \"#utility.yul\":1052:1191   */\n    tag_53:\n        /* \"#utility.yul\":1098:1103   */\n      0x00\n        /* \"#utility.yul\":1136:1142   */\n      dup2\n        /* \"#utility.yul\":1123:1143   */\n      calldataload\n        /* \"#utility.yul\":1114:1143   */\n      swap1\n      pop\n        /* \"#utility.yul\":1152:1185   */\n      tag_85\n        /* \"#utility.yul\":1179:1184   */\n      dup2\n        /* \"#utility.yul\":1152:1185   */\n      tag_52\n      jump\t// in\n    tag_85:\n        /* \"#utility.yul\":1052:1191   */\n      swap3\n      swap2\n      pop\n      pop\n      jump\t// out\n        /* \"#utility.yul\":1197:1962   */\n    tag_8:\n        /* \"#utility.yul\":1283:1289   */\n      0x00\n        /* \"#utility.yul\":1291:1297   */\n      dup1\n        /* \"#utility.yul\":1299:1305   */\n      0x00\n        /* \"#utility.yul\":1307:1313   */\n      dup1\n        /* \"#utility.yul\":1356:1359   */\n      0x80\n        /* \"#utility.yul\":1344:1353   */\n      dup6\n        /* \"#utility.yul\":1335:1342   */\n      dup8\n        /* \"#utility.yul\":1331:1354   */\n      sub\n        /* \"#utility.yul\":1327:1360   */\n      slt\n        /* \"#utility.yul\":1324:1444   */\n      iszero\n      tag_87\n      jumpi\n        /* \"#utility.yul\":1363:1442   */\n      tag_88\n      tag_45\n      jump\t// in\n    tag_88:\n        /* \"#utility.yul\":1324:1444   */\n    tag_87:\n        /* \"#utility.yul\":1483:1484   */\n      0x00\n        /* \"#utility.yul\":1508:1561   */\n      tag_89\n        /* \"#utility.yul\":1553:1560   */\n      dup8\n        /* \"#utility.yul\":1544:1550   */\n      dup3\n        /* \"#utility.yul\":1533:1542   */\n      dup9\n        /* \"#utility.yul\":1529:1551   */\n      add\n        /* \"#utility.yul\":1508:1561   */\n      tag_50\n      jump\t// in\n    tag_89:\n        /* \"#utility.yul\":1498:1561   */\n      swap5\n      pop\n        /* \"#utility.yul\":1454:1571   */\n      pop\n        /* \"#utility.yul\":1610:1612   */\n      0x20\n        /* \"#utility.yul\":1636:1689   */\n      tag_90\n        /* \"#utility.yul\":1681:1688   */\n      dup8\n        /* \"#utility.yul\":1672:1678   */\n      dup3\n        /* \"#utility.yul\":1661:1670   */\n      dup9\n        /* \"#utility.yul\":1657:1679   */\n      add\n        /* \"#utility.yul\":1636:1689   */\n      tag_50\n      jump\t// in\n    tag_90:\n        /* \"#utility.yul\":1626:1689   */\n      swap4\n      pop\n        /* \"#utility.yul\":1581:1699   */\n      pop\n        /* \"#utility.yul\":1738:1740   */\n      0x40\n        /* \"#utility.yul\":1764:1817   */\n      tag_91\n        /* \"#utility.yul\":1809:1816   */\n      dup8\n        /* \"#utility.yul\":1800:1806   */\n      dup3\n        /* \"#utility.yul\":1789:1798   */\n      dup9\n        /* \"#utility.yul\":1785:1807   */\n      add\n        /* \"#utility.yul\":1764:1817   */\n      tag_53\n      jump\t// in\n    tag_91:\n        /* \"#utility.yul\":1754:1817   */\n      swap3\n      pop\n        /* \"#utility.yul\":1709:1827   */\n      pop\n        /* \"#utility.yul\":1866:1868   */\n      0x60\n        /* \"#utility.yul\":1892:1945   */\n      tag_92\n        /* \"#utility.yul\":1937:1944   */\n      dup8\n        /* \"#utility.yul\":1928:1934   */\n      dup3\n        /* \"#utility.yul\":1917:1926   */\n      dup9\n        /* \"#utility.yul\":1913:1935   */\n      add\n        /* \"#utility.yul\":1892:1945   */\n      tag_53\n      jump\t// in\n    tag_92:\n        /* \"#utility.yul\":1882:1945   */\n      swap2\n      pop\n        /* \"#utility.yul\":1837:1955   */\n      pop\n        /* \"#utility.yul\":1197:1962   */\n      swap3\n      swap6\n      swap2\n      swap5\n      pop\n      swap3\n      pop\n      jump\t// out\n        /* \"#utility.yul\":1968:2587   */\n    tag_12:\n        /* \"#utility.yul\":2045:2051   */\n      0x00\n        /* \"#utility.yul\":2053:2059   */\n      dup1\n        /* \"#utility.yul\":2061:2067   */\n      0x00\n        /* \"#utility.yul\":2110:2112   */\n      0x60\n        /* \"#utility.yul\":2098:2107   */\n      dup5\n        /* \"#utility.yul\":2089:2096   */\n      dup7\n        /* \"#utility.yul\":2085:2108   */\n      sub\n        /* \"#utility.yul\":2081:2113   */\n      slt\n        /* \"#utility.yul\":2078:2197   */\n      iszero\n      tag_94\n      jumpi\n        /* \"#utility.yul\":2116:2195   */\n      tag_95\n      tag_45\n      jump\t// in\n    tag_95:\n        /* \"#utility.yul\":2078:2197   */\n    tag_94:\n        /* \"#utility.yul\":2236:2237   */\n      0x00\n        /* \"#utility.yul\":2261:2314   */\n      tag_96\n        /* \"#utility.yul\":2306:2313   */\n      dup7\n        /* \"#utility.yul\":2297:2303   */\n      dup3\n        /* \"#utility.yul\":2286:2295   */\n      dup8\n        /* \"#utility.yul\":2282:2304   */\n      add\n        /* \"#utility.yul\":2261:2314   */\n      tag_50\n      jump\t// in\n    tag_96:\n        /* \"#utility.yul\":2251:2314   */\n      swap4\n      pop\n        /* \"#utility.yul\":2207:2324   */\n      pop\n        /* \"#utility.yul\":2363:2365   */\n      0x20\n        /* \"#utility.yul\":2389:2442   */\n      tag_97\n        /* \"#utility.yul\":2434:2441   */\n      dup7\n        /* \"#utility.yul\":2425:2431   */\n      dup3\n        /* \"#utility.yul\":2414:2423   */\n      dup8\n        /* \"#utility.yul\":2410:2432   */\n      add\n        /* \"#utility.yul\":2389:2442   */\n      tag_50\n      jump\t// in\n    tag_97:\n        /* \"#utility.yul\":2379:2442   */\n      swap3\n      pop\n        /* \"#utility.yul\":2334:2452   */\n      pop\n        /* \"#utility.yul\":2491:2493   */\n      0x40\n        /* \"#utility.yul\":2517:2570   */\n      tag_98\n        /* \"#utility.yul\":2562:2569   */\n      dup7\n        /* \"#utility.yul\":2553:2559   */\n      dup3\n        /* \"#utility.yul\":2542:2551   */\n      dup8\n        /* \"#utility.yul\":2538:2560   */\n      add\n        /* \"#utility.yul\":2517:2570   */\n      tag_50\n      jump\t// in\n    tag_98:\n        /* \"#utility.yul\":2507:2570   */\n      swap2\n      pop\n        /* \"#utility.yul\":2462:2580   */\n      pop\n        /* \"#utility.yul\":1968:2587   */\n      swap3\n      pop\n      swap3\n      pop\n      swap3\n      jump\t// out\n        /* \"#utility.yul\":2593:2653   */\n    tag_54:\n        /* \"#utility.yul\":2621:2624   */\n      0x00\n        /* \"#utility.yul\":2642:2647   */\n      dup2\n        /* \"#utility.yul\":2635:2647   */\n      swap1\n      pop\n        /* \"#utility.yul\":2593:2653   */\n      swap2\n      swap1\n      pop\n      jump\t// out\n        /* \"#utility.yul\":2659:2801   */\n    tag_55:\n        /* \"#utility.yul\":2709:2718   */\n      0x00\n        /* \"#utility.yul\":2742:2795   */\n      tag_101\n        /* \"#utility.yul\":2760:2794   */\n      tag_102\n        /* \"#utility.yul\":2769:2793   */\n      tag_103\n        /* \"#utility.yul\":2787:2792   */\n      dup5\n        /* \"#utility.yul\":2769:2793   */\n      tag_47\n      jump\t// in\n    tag_103:\n        /* \"#utility.yul\":2760:2794   */\n      tag_54\n      jump\t// in\n    tag_102:\n        /* \"#utility.yul\":2742:2795   */\n      tag_47\n      jump\t// in\n    tag_101:\n        /* \"#utility.yul\":2729:2795   */\n      swap1\n      pop\n        /* \"#utility.yul\":2659:2801   */\n      swap2\n      swap1\n      pop\n      jump\t// out\n        /* \"#utility.yul\":2807:2933   */\n    tag_56:\n        /* \"#utility.yul\":2857:2866   */\n      0x00\n        /* \"#utility.yul\":2890:2927   */\n      tag_105\n        /* \"#utility.yul\":2921:2926   */\n      dup3\n        /* \"#utility.yul\":2890:2927   */\n      tag_55\n      jump\t// in\n    tag_105:\n        /* \"#utility.yul\":2877:2927   */\n      swap1\n      pop\n        /* \"#utility.yul\":2807:2933   */\n      swap2\n      swap1\n      pop\n      jump\t// out\n        /* \"#utility.yul\":2939:3090   */\n    tag_57:\n        /* \"#utility.yul\":3014:3023   */\n      0x00\n        /* \"#utility.yul\":3047:3084   */\n      tag_107\n        /* \"#utility.yul\":3078:3083   */\n      dup3\n        /* \"#utility.yul\":3047:3084   */\n      tag_56\n      jump\t// in\n    tag_107:\n        /* \"#utility.yul\":3034:3084   */\n      swap1\n      pop\n        /* \"#utility.yul\":2939:3090   */\n      swap2\n      swap1\n      pop\n      jump\t// out\n        /* \"#utility.yul\":3096:3277   */\n    tag_58:\n        /* \"#utility.yul\":3208:3270   */\n      tag_109\n        /* \"#utility.yul\":3264:3269   */\n      dup2\n        /* \"#utility.yul\":3208:3270   */\n      tag_57\n      jump\t// in\n    tag_109:\n        /* \"#utility.yul\":3203:3206   */\n      dup3\n        /* \"#utility.yul\":3196:3271   */\n      mstore\n        /* \"#utility.yul\":3096:3277   */\n      pop\n      pop\n      jump\t// out\n        /* \"#utility.yul\":3283:3555   */\n    tag_17:\n        /* \"#utility.yul\":3401:3405   */\n      0x00\n        /* \"#utility.yul\":3439:3441   */\n      0x20\n        /* \"#utility.yul\":3428:3437   */\n      dup3\n        /* \"#utility.yul\":3424:3442   */\n      add\n        /* \"#utility.yul\":3416:3442   */\n      swap1\n      pop\n        /* \"#utility.yul\":3452:3548   */\n      tag_111\n        /* \"#utility.yul\":3545:3546   */\n      0x00\n        /* \"#utility.yul\":3534:3543   */\n      dup4\n        /* \"#utility.yul\":3530:3547   */\n      add\n        /* \"#utility.yul\":3521:3527   */\n      dup5\n        /* \"#utility.yul\":3452:3548   */\n      tag_58\n      jump\t// in\n    tag_111:\n        /* \"#utility.yul\":3283:3555   */\n      swap3\n      swap2\n      pop\n      pop\n      jump\t// out\n        /* \"#utility.yul\":3561:3741   */\n    tag_59:\n        /* \"#utility.yul\":3609:3686   */\n      0x4e487b7100000000000000000000000000000000000000000000000000000000\n        /* \"#utility.yul\":3606:3607   */\n      0x00\n        /* \"#utility.yul\":3599:3687   */\n      mstore\n        /* \"#utility.yul\":3706:3710   */\n      0x11\n        /* \"#utility.yul\":3703:3704   */\n      0x04\n        /* \"#utility.yul\":3696:3711   */\n      mstore\n        /* \"#utility.yul\":3730:3734   */\n      0x24\n        /* \"#utility.yul\":3727:3728   */\n      0x00\n        /* \"#utility.yul\":3720:3735   */\n      revert\n        /* \"#utility.yul\":3747:3938   */\n    tag_23:\n        /* \"#utility.yul\":3787:3790   */\n      0x00\n        /* \"#utility.yul\":3806:3826   */\n      tag_114\n        /* \"#utility.yul\":3824:3825   */\n      dup3\n        /* \"#utility.yul\":3806:3826   */\n      tag_51\n      jump\t// in\n    tag_114:\n        /* \"#utility.yul\":3801:3826   */\n      swap2\n      pop\n        /* \"#utility.yul\":3840:3860   */\n      tag_115\n        /* \"#utility.yul\":3858:3859   */\n      dup4\n        /* \"#utility.yul\":3840:3860   */\n      tag_51\n      jump\t// in\n    tag_115:\n        /* \"#utility.yul\":3835:3860   */\n      swap3\n      pop\n        /* \"#utility.yul\":3883:3884   */\n      dup3\n        /* \"#utility.yul\":3880:3881   */\n      dup3\n        /* \"#utility.yul\":3876:3885   */\n      add\n        /* \"#utility.yul\":3869:3885   */\n      swap1\n      pop\n        /* \"#utility.yul\":3904:3907   */\n      dup1\n        /* \"#utility.yul\":3901:3902   */\n      dup3\n        /* \"#utility.yul\":3898:3908   */\n      gt\n        /* \"#utility.yul\":3895:3931   */\n      iszero\n      tag_116\n      jumpi\n        /* \"#utility.yul\":3911:3929   */\n      tag_117\n      tag_59\n      jump\t// in\n    tag_117:\n        /* \"#utility.yul\":3895:3931   */\n    tag_116:\n        /* \"#utility.yul\":3747:3938   */\n      swap3\n      swap2\n      pop\n      pop\n      jump\t// out\n        /* \"#utility.yul\":3944:4062   */\n    tag_60:\n        /* \"#utility.yul\":4031:4055   */\n      tag_119\n        /* \"#utility.yul\":4049:4054   */\n      dup2\n        /* \"#utility.yul\":4031:4055   */\n      tag_48\n      jump\t// in\n    tag_119:\n        /* \"#utility.yul\":4026:4029   */\n      dup3\n        /* \"#utility.yul\":4019:4056   */\n      mstore\n        /* \"#utility.yul\":3944:4062   */\n      pop\n      pop\n      jump\t// out\n        /* \"#utility.yul\":4068:4186   */\n    tag_61:\n        /* \"#utility.yul\":4155:4179   */\n      tag_121\n        /* \"#utility.yul\":4173:4178   */\n      dup2\n        /* \"#utility.yul\":4155:4179   */\n      tag_51\n      jump\t// in\n    tag_121:\n        /* \"#utility.yul\":4150:4153   */\n      dup3\n        /* \"#utility.yul\":4143:4180   */\n      mstore\n        /* \"#utility.yul\":4068:4186   */\n      pop\n      pop\n      jump\t// out\n        /* \"#utility.yul\":4192:4634   */\n    tag_25:\n        /* \"#utility.yul\":4341:4345   */\n      0x00\n        /* \"#utility.yul\":4379:4381   */\n      0x60\n        /* \"#utility.yul\":4368:4377   */\n      dup3\n        /* \"#utility.yul\":4364:4382   */\n      add\n        /* \"#utility.yul\":4356:4382   */\n      swap1\n      pop\n        /* \"#utility.yul\":4392:4463   */\n      tag_123\n        /* \"#utility.yul\":4460:4461   */\n      0x00\n        /* \"#utility.yul\":4449:4458   */\n      dup4\n        /* \"#utility.yul\":4445:4462   */\n      add\n        /* \"#utility.yul\":4436:4442   */\n      dup7\n        /* \"#utility.yul\":4392:4463   */\n      tag_60\n      jump\t// in\n    tag_123:\n        /* \"#utility.yul\":4473:4545   */\n      tag_124\n        /* \"#utility.yul\":4541:4543   */\n      0x20\n        /* \"#utility.yul\":4530:4539   */\n      dup4\n        /* \"#utility.yul\":4526:4544   */\n      add\n        /* \"#utility.yul\":4517:4523   */\n      dup6\n        /* \"#utility.yul\":4473:4545   */\n      tag_60\n      jump\t// in\n    tag_124:\n        /* \"#utility.yul\":4555:4627   */\n      tag_125\n        /* \"#utility.yul\":4623:4625   */\n      0x40\n        /* \"#utility.yul\":4612:4621   */\n      dup4\n        /* \"#utility.yul\":4608:4626   */\n      add\n        /* \"#utility.yul\":4599:4605   */\n      dup5\n        /* \"#utility.yul\":4555:4627   */\n      tag_61\n      jump\t// in\n    tag_125:\n        /* \"#utility.yul\":4192:4634   */\n      swap5\n      swap4\n      pop\n      pop\n      pop\n      pop\n      jump\t// out\n        /* \"#utility.yul\":4640:4725   */\n    tag_62:\n        /* \"#utility.yul\":4685:4692   */\n      0x00\n        /* \"#utility.yul\":4714:4719   */\n      dup2\n        /* \"#utility.yul\":4703:4719   */\n      swap1\n      pop\n        /* \"#utility.yul\":4640:4725   */\n      swap2\n      swap1\n      pop\n      jump\t// out\n        /* \"#utility.yul\":4731:4889   */\n    tag_63:\n        /* \"#utility.yul\":4789:4798   */\n      0x00\n        /* \"#utility.yul\":4822:4883   */\n      tag_128\n        /* \"#utility.yul\":4840:4882   */\n      tag_129\n        /* \"#utility.yul\":4849:4881   */\n      tag_130\n        /* \"#utility.yul\":4875:4880   */\n      dup5\n        /* \"#utility.yul\":4849:4881   */\n      tag_62\n      jump\t// in\n    tag_130:\n        /* \"#utility.yul\":4840:4882   */\n      tag_54\n      jump\t// in\n    tag_129:\n        /* \"#utility.yul\":4822:4883   */\n      tag_51\n      jump\t// in\n    tag_128:\n        /* \"#utility.yul\":4809:4883   */\n      swap1\n      pop\n        /* \"#utility.yul\":4731:4889   */\n      swap2\n      swap1\n      pop\n      jump\t// out\n        /* \"#utility.yul\":4895:5042   */\n    tag_64:\n        /* \"#utility.yul\":4990:5035   */\n      tag_132\n        /* \"#utility.yul\":5029:5034   */\n      dup2\n        /* \"#utility.yul\":4990:5035   */\n      tag_63\n      jump\t// in\n    tag_132:\n        /* \"#utility.yul\":4985:4988   */\n      dup3\n        /* \"#utility.yul\":4978:5036   */\n      mstore\n        /* \"#utility.yul\":4895:5042   */\n      pop\n      pop\n      jump\t// out\n        /* \"#utility.yul\":5048:5506   */\n    tag_31:\n        /* \"#utility.yul\":5205:5209   */\n      0x00\n        /* \"#utility.yul\":5243:5245   */\n      0x60\n        /* \"#utility.yul\":5232:5241   */\n      dup3\n        /* \"#utility.yul\":5228:5246   */\n      add\n        /* \"#utility.yul\":5220:5246   */\n      swap1\n      pop\n        /* \"#utility.yul\":5256:5327   */\n      tag_134\n        /* \"#utility.yul\":5324:5325   */\n      0x00\n        /* \"#utility.yul\":5313:5322   */\n      dup4\n        /* \"#utility.yul\":5309:5326   */\n      add\n        /* \"#utility.yul\":5300:5306   */\n      dup7\n        /* \"#utility.yul\":5256:5327   */\n      tag_60\n      jump\t// in\n    tag_134:\n        /* \"#utility.yul\":5337:5409   */\n      tag_135\n        /* \"#utility.yul\":5405:5407   */\n      0x20\n        /* \"#utility.yul\":5394:5403   */\n      dup4\n        /* \"#utility.yul\":5390:5408   */\n      add\n        /* \"#utility.yul\":5381:5387   */\n      dup6\n        /* \"#utility.yul\":5337:5409   */\n      tag_60\n      jump\t// in\n    tag_135:\n        /* \"#utility.yul\":5419:5499   */\n      tag_136\n        /* \"#utility.yul\":5495:5497   */\n      0x40\n        /* \"#utility.yul\":5484:5493   */\n      dup4\n        /* \"#utility.yul\":5480:5498   */\n      add\n        /* \"#utility.yul\":5471:5477   */\n      dup5\n        /* \"#utility.yul\":5419:5499   */\n      tag_64\n      jump\t// in\n    tag_136:\n        /* \"#utility.yul\":5048:5506   */\n      swap5\n      swap4\n      pop\n      pop\n      pop\n      pop\n      jump\t// out\n        /* \"#utility.yul\":5512:5597   */\n    tag_65:\n        /* \"#utility.yul\":5557:5564   */\n      0x00\n        /* \"#utility.yul\":5586:5591   */\n      dup2\n        /* \"#utility.yul\":5575:5591   */\n      swap1\n      pop\n        /* \"#utility.yul\":5512:5597   */\n      swap2\n      swap1\n      pop\n      jump\t// out\n        /* \"#utility.yul\":5603:5761   */\n    tag_66:\n        /* \"#utility.yul\":5661:5670   */\n      0x00\n        /* \"#utility.yul\":5694:5755   */\n      tag_139\n        /* \"#utility.yul\":5712:5754   */\n      tag_140\n        /* \"#utility.yul\":5721:5753   */\n      tag_141\n        /* \"#utility.yul\":5747:5752   */\n      dup5\n        /* \"#utility.yul\":5721:5753   */\n      tag_65\n      jump\t// in\n    tag_141:\n        /* \"#utility.yul\":5712:5754   */\n      tag_54\n      jump\t// in\n    tag_140:\n        /* \"#utility.yul\":5694:5755   */\n      tag_51\n      jump\t// in\n    tag_139:\n        /* \"#utility.yul\":5681:5755   */\n      swap1\n      pop\n        /* \"#utility.yul\":5603:5761   */\n      swap2\n      swap1\n      pop\n      jump\t// out\n        /* \"#utility.yul\":5767:5914   */\n    tag_67:\n        /* \"#utility.yul\":5862:5907   */\n      tag_143\n        /* \"#utility.yul\":5901:5906   */\n      dup2\n        /* \"#utility.yul\":5862:5907   */\n      tag_66\n      jump\t// in\n    tag_143:\n        /* \"#utility.yul\":5857:5860   */\n      dup3\n        /* \"#utility.yul\":5850:5908   */\n      mstore\n        /* \"#utility.yul\":5767:5914   */\n      pop\n      pop\n      jump\t// out\n        /* \"#utility.yul\":5920:6378   */\n    tag_40:\n        /* \"#utility.yul\":6077:6081   */\n      0x00\n        /* \"#utility.yul\":6115:6117   */\n      0x60\n        /* \"#utility.yul\":6104:6113   */\n      dup3\n        /* \"#utility.yul\":6100:6118   */\n      add\n        /* \"#utility.yul\":6092:6118   */\n      swap1\n      pop\n        /* \"#utility.yul\":6128:6199   */\n      tag_145\n        /* \"#utility.yul\":6196:6197   */\n      0x00\n        /* \"#utility.yul\":6185:6194   */\n      dup4\n        /* \"#utility.yul\":6181:6198   */\n      add\n        /* \"#utility.yul\":6172:6178   */\n      dup7\n        /* \"#utility.yul\":6128:6199   */\n      tag_60\n      jump\t// in\n    tag_145:\n        /* \"#utility.yul\":6209:6281   */\n      tag_146\n        /* \"#utility.yul\":6277:6279   */\n      0x20\n        /* \"#utility.yul\":6266:6275   */\n      dup4\n        /* \"#utility.yul\":6262:6280   */\n      add\n        /* \"#utility.yul\":6253:6259   */\n      dup6\n        /* \"#utility.yul\":6209:6281   */\n      tag_60\n      jump\t// in\n    tag_146:\n        /* \"#utility.yul\":6291:6371   */\n      tag_147\n        /* \"#utility.yul\":6367:6369   */\n      0x40\n        /* \"#utility.yul\":6356:6365   */\n      dup4\n        /* \"#utility.yul\":6352:6370   */\n      add\n        /* \"#utility.yul\":6343:6349   */\n      dup5\n        /* \"#utility.yul\":6291:6371   */\n      tag_67\n      jump\t// in\n    tag_147:\n        /* \"#utility.yul\":5920:6378   */\n      swap5\n      swap4\n      pop\n      pop\n      pop\n      pop\n      jump\t// out\n\n    auxdata: 0xa264697066735822122068fe39bb2f98b9267f1bf6a6baf060f9036cb1416886a89e81441f5dc00afd7764736f6c634300081a0033\n}\n",
				"bytecode": {
					"linkReferences": {},
					"object": "608060405234801561000f575f80fd5b506040516107ac3803806107ac833981810160405281019061003191906100e5565b805f806101000a81548173ffffffffffffffffffffffffffffffffffffffff021916908373ffffffffffffffffffffffffffffffffffffffff16021790555050610110565b5f80fd5b5f73ffffffffffffffffffffffffffffffffffffffff82169050919050565b5f6100a38261007a565b9050919050565b5f6100b482610099565b9050919050565b6100c4816100aa565b81146100ce575f80fd5b50565b5f815190506100df816100bb565b92915050565b5f602082840312156100fa576100f9610076565b5b5f610107848285016100d1565b91505092915050565b61068f8061011d5f395ff3fe608060405234801561000f575f80fd5b506004361061003f575f3560e01c80633ae2870514610043578063a750083f1461005f578063d4b839921461007b575b5f80fd5b61005d600480360381019061005891906103a2565b610099565b005b61007960048036038101906100749190610406565b61014b565b005b6100836102ee565b60405161009091906104b1565b60405180910390f35b5f5b81811015610144575f8054906101000a900473ffffffffffffffffffffffffffffffffffffffff1673ffffffffffffffffffffffffffffffffffffffff166352b65ad0868684876100ec91906104f7565b6040518463ffffffff1660e01b815260040161010a93929190610548565b5f604051808303815f87803b158015610121575f80fd5b505af1158015610133573d5f803e3d5ffd5b50505050808060010191505061009b565b5050505050565b5f8054906101000a900473ffffffffffffffffffffffffffffffffffffffff1673ffffffffffffffffffffffffffffffffffffffff166352b65ad0848460016040518463ffffffff1660e01b81526004016101a8939291906105b6565b5f604051808303815f87803b1580156101bf575f80fd5b505af11580156101d1573d5f803e3d5ffd5b505050505f8054906101000a900473ffffffffffffffffffffffffffffffffffffffff1673ffffffffffffffffffffffffffffffffffffffff166352b65ad0848360016040518463ffffffff1660e01b8152600401610232939291906105b6565b5f604051808303815f87803b158015610249575f80fd5b505af115801561025b573d5f803e3d5ffd5b505050505f8054906101000a900473ffffffffffffffffffffffffffffffffffffffff1673ffffffffffffffffffffffffffffffffffffffff166352b65ad0848360026040518463ffffffff1660e01b81526004016102bc93929190610624565b5f604051808303815f87803b1580156102d3575f80fd5b505af11580156102e5573d5f803e3d5ffd5b50505050505050565b5f8054906101000a900473ffffffffffffffffffffffffffffffffffffffff1681565b5f80fd5b5f73ffffffffffffffffffffffffffffffffffffffff82169050919050565b5f61033e82610315565b9050919050565b61034e81610334565b8114610358575f80fd5b50565b5f8135905061036981610345565b92915050565b5f819050919050565b6103818161036f565b811461038b575f80fd5b50565b5f8135905061039c81610378565b92915050565b5f805f80608085870312156103ba576103b9610311565b5b5f6103c78782880161035b565b94505060206103d88782880161035b565b93505060406103e98782880161038e565b92505060606103fa8782880161038e565b91505092959194509250565b5f805f6060848603121561041d5761041c610311565b5b5f61042a8682870161035b565b935050602061043b8682870161035b565b925050604061044c8682870161035b565b9150509250925092565b5f819050919050565b5f61047961047461046f84610315565b610456565b610315565b9050919050565b5f61048a8261045f565b9050919050565b5f61049b82610480565b9050919050565b6104ab81610491565b82525050565b5f6020820190506104c45f8301846104a2565b92915050565b7f4e487b71000000000000000000000000000000000000000000000000000000005f52601160045260245ffd5b5f6105018261036f565b915061050c8361036f565b9250828201905080821115610524576105236104ca565b5b92915050565b61053381610334565b82525050565b6105428161036f565b82525050565b5f60608201905061055b5f83018661052a565b610568602083018561052a565b6105756040830184610539565b949350505050565b5f819050919050565b5f6105a061059b6105968461057d565b610456565b61036f565b9050919050565b6105b081610586565b82525050565b5f6060820190506105c95f83018661052a565b6105d6602083018561052a565b6105e360408301846105a7565b949350505050565b5f819050919050565b5f61060e610609610604846105eb565b610456565b61036f565b9050919050565b61061e816105f4565b82525050565b5f6060820190506106375f83018661052a565b610644602083018561052a565b6106516040830184610615565b94935050505056fea264697066735822122068fe39bb2f98b9267f1bf6a6baf060f9036cb1416886a89e81441f5dc00afd7764736f6c634300081a0033",
					"opcodes": "PUSH1 0x80 PUSH1 0x40 MSTORE CALLVALUE DUP1 ISZERO PUSH2 0xF JUMPI PUSH0 DUP1 REVERT JUMPDEST POP PUSH1 0x40 MLOAD PUSH2 0x7AC CODESIZE SUB DUP1 PUSH2 0x7AC DUP4 CODECOPY DUP2 DUP2 ADD PUSH1 0x40 MSTORE DUP2 ADD SWAP1 PUSH2 0x31 SWAP2 SWAP1 PUSH2 0xE5 JUMP JUMPDEST DUP1 PUSH0 DUP1 PUSH2 0x100 EXP DUP2 SLOAD DUP2 PUSH20 0xFFFFFFFFFFFFFFFFFFFFFFFFFFFFFFFFFFFFFFFF MUL NOT AND SWAP1 DUP4 PUSH20 0xFFFFFFFFFFFFFFFFFFFFFFFFFFFFFFFFFFFFFFFF AND MUL OR SWAP1 SSTORE POP POP PUSH2 0x110 JUMP JUMPDEST PUSH0 DUP1 REVERT JUMPDEST PUSH0 PUSH20 0xFFFFFFFFFFFFFFFFFFFFFFFFFFFFFFFFFFFFFFFF DUP3 AND SWAP1 POP SWAP2 SWAP1 POP JUMP JUMPDEST PUSH0 PUSH2 0xA3 DUP3 PUSH2 0x7A JUMP JUMPDEST SWAP1 POP SWAP2 SWAP1 POP JUMP JUMPDEST PUSH0 PUSH2 0xB4 DUP3 PUSH2 0x99 JUMP JUMPDEST SWAP1 POP SWAP2 SWAP1 POP JUMP JUMPDEST PUSH2 0xC4 DUP2 PUSH2 0xAA JUMP JUMPDEST DUP2 EQ PUSH2 0xCE JUMPI PUSH0 DUP1 REVERT JUMPDEST POP JUMP JUMPDEST PUSH0 DUP2 MLOAD SWAP1 POP PUSH2 0xDF DUP2 PUSH2 0xBB JUMP JUMPDEST SWAP3 SWAP2 POP POP JUMP JUMPDEST PUSH0 PUSH1 0x20 DUP3 DUP5 SUB SLT ISZERO PUSH2 0xFA JUMPI PUSH2 0xF9 PUSH2 0x76 JUMP JUMPDEST JUMPDEST PUSH0 PUSH2 0x107 DUP5 DUP3 DUP6 ADD PUSH2 0xD1 JUMP JUMPDEST SWAP2 POP POP SWAP3 SWAP2 POP POP JUMP JUMPDEST PUSH2 0x68F DUP1 PUSH2 0x11D PUSH0 CODECOPY PUSH0 RETURN INVALID PUSH1 0x80 PUSH1 0x40 MSTORE CALLVALUE DUP1 ISZERO PUSH2 0xF JUMPI PUSH0 DUP1 REVERT JUMPDEST POP PUSH1 0x4 CALLDATASIZE LT PUSH2 0x3F JUMPI PUSH0 CALLDATALOAD PUSH1 0xE0 SHR DUP1 PUSH4 0x3AE28705 EQ PUSH2 0x43 JUMPI DUP1 PUSH4 0xA750083F EQ PUSH2 0x5F JUMPI DUP1 PUSH4 0xD4B83992 EQ PUSH2 0x7B JUMPI JUMPDEST PUSH0 DUP1 REVERT JUMPDEST PUSH2 0x5D PUSH1 0x4 DUP1 CALLDATASIZE SUB DUP2 ADD SWAP1 PUSH2 0x58 SWAP2 SWAP1 PUSH2 0x3A2 JUMP JUMPDEST PUSH2 0x99 JUMP JUMPDEST STOP JUMPDEST PUSH2 0x79 PUSH1 0x4 DUP1 CALLDATASIZE SUB DUP2 ADD SWAP1 PUSH2 0x74 SWAP2 SWAP1 PUSH2 0x406 JUMP JUMPDEST PUSH2 0x14B JUMP JUMPDEST STOP JUMPDEST PUSH2 0x83 PUSH2 0x2EE JUMP JUMPDEST PUSH1 0x40 MLOAD PUSH2 0x90 SWAP2 SWAP1 PUSH2 0x4B1 JUMP JUMPDEST PUSH1 0x40 MLOAD DUP1 SWAP2 SUB SWAP1 RETURN JUMPDEST PUSH0 JUMPDEST DUP2 DUP2 LT ISZERO PUSH2 0x144 JUMPI PUSH0 DUP1 SLOAD SWAP1 PUSH2 0x100 EXP SWAP1 DIV PUSH20 0xFFFFFFFFFFFFFFFFFFFFFFFFFFFFFFFFFFFFFFFF AND PUSH20 0xFFFFFFFFFFFFFFFFFFFFFFFFFFFFFFFFFFFFFFFF AND PUSH4 0x52B65AD0 DUP7 DUP7 DUP5 DUP8 PUSH2 0xEC SWAP2 SWAP1 PUSH2 0x4F7 JUMP JUMPDEST PUSH1 0x40 MLOAD DUP5 PUSH4 0xFFFFFFFF AND PUSH1 0xE0 SHL DUP2 MSTORE PUSH1 0x4 ADD PUSH2 0x10A SWAP4 SWAP3 SWAP2 SWAP1 PUSH2 0x548 JUMP JUMPDEST PUSH0 PUSH1 0x40 MLOAD DUP1 DUP4 SUB DUP2 PUSH0 DUP8 DUP1 EXTCODESIZE ISZERO DUP1 ISZERO PUSH2 0x121 JUMPI PUSH0 DUP1 REVERT JUMPDEST POP GAS CALL ISZERO DUP1 ISZERO PUSH2 0x133 JUMPI RETURNDATASIZE PUSH0 DUP1 RETURNDATACOPY RETURNDATASIZE PUSH0 REVERT JUMPDEST POP POP POP POP DUP1 DUP1 PUSH1 0x1 ADD SWAP2 POP POP PUSH2 0x9B JUMP JUMPDEST POP POP POP POP POP JUMP JUMPDEST PUSH0 DUP1 SLOAD SWAP1 PUSH2 0x100 EXP SWAP1 DIV PUSH20 0xFFFFFFFFFFFFFFFFFFFFFFFFFFFFFFFFFFFFFFFF AND PUSH20 0xFFFFFFFFFFFFFFFFFFFFFFFFFFFFFFFFFFFFFFFF AND PUSH4 0x52B65AD0 DUP5 DUP5 PUSH1 0x1 PUSH1 0x40 MLOAD DUP5 PUSH4 0xFFFFFFFF AND PUSH1 0xE0 SHL DUP2 MSTORE PUSH1 0x4 ADD PUSH2 0x1A8 SWAP4 SWAP3 SWAP2 SWAP1 PUSH2 0x5B6 JUMP JUMPDEST PUSH0 PUSH1 0x40 MLOAD DUP1 DUP4 SUB DUP2 PUSH0 DUP8 DUP1 EXTCODESIZE ISZERO DUP1 ISZERO PUSH2 0x1BF JUMPI PUSH0 DUP1 REVERT JUMPDEST POP GAS CALL ISZERO DUP1 ISZERO PUSH2 0x1D1 JUMPI RETURNDATASIZE PUSH0 DUP1 RETURNDATACOPY RETURNDATASIZE PUSH0 REVERT JUMPDEST POP POP POP POP PUSH0 DUP1 SLOAD SWAP1 PUSH2 0x100 EXP SWAP1 DIV PUSH20 0xFFFFFFFFFFFFFFFFFFFFFFFFFFFFFFFFFFFFFFFF AND PUSH20 0xFFFFFFFFFFFFFFFFFFFFFFFFFFFFFFFFFFFFFFFF AND PUSH4 0x52B65AD0 DUP5 DUP4 PUSH1 0x1 PUSH1 0x40 MLOAD DUP5 PUSH4 0xFFFFFFFF AND PUSH1 0xE0 SHL DUP2 MSTORE PUSH1 0x4 ADD PUSH2 0x232 SWAP4 SWAP3 SWAP2 SWAP1 PUSH2 0x5B6 JUMP JUMPDEST PUSH0 PUSH1 0x40 MLOAD DUP1 DUP4 SUB DUP2 PUSH0 DUP8 DUP1 EXTCODESIZE ISZERO DUP1 ISZERO PUSH2 0x249 JUMPI PUSH0 DUP1 REVERT JUMPDEST POP GAS CALL ISZERO DUP1 ISZERO PUSH2 0x25B JUMPI RETURNDATASIZE PUSH0 DUP1 RETURNDATACOPY RETURNDATASIZE PUSH0 REVERT JUMPDEST POP POP POP POP PUSH0 DUP1 SLOAD SWAP1 PUSH2 0x100 EXP SWAP1 DIV PUSH20 0xFFFFFFFFFFFFFFFFFFFFFFFFFFFFFFFFFFFFFFFF AND PUSH20 0xFFFFFFFFFFFFFFFFFFFFFFFFFFFFFFFFFFFFFFFF AND PUSH4 0x52B65AD0 DUP5 DUP4 PUSH1 0x2 PUSH1 0x40 MLOAD DUP5 PUSH4 0xFFFFFFFF AND PUSH1 0xE0 SHL DUP2 MSTORE PUSH1 0x4 ADD PUSH2 0x2BC SWAP4 SWAP3 SWAP2 SWAP1 PUSH2 0x624 JUMP JUMPDEST PUSH0 PUSH1 0x40 MLOAD DUP1 DUP4 SUB DUP2 PUSH0 DUP8 DUP1 EXTCODESIZE ISZERO DUP1 ISZERO PUSH2 0x2D3 JUMPI PUSH0 DUP1 REVERT JUMPDEST POP GAS CALL ISZERO DUP1 ISZERO PUSH2 0x2E5 JUMPI RETURNDATASIZE PUSH0 DUP1 RETURNDATACOPY RETURNDATASIZE PUSH0 REVERT JUMPDEST POP POP POP POP POP POP POP JUMP JUMPDEST PUSH0 DUP1 SLOAD SWAP1 PUSH2 0x100 EXP SWAP1 DIV PUSH20 0xFFFFFFFFFFFFFFFFFFFFFFFFFFFFFFFFFFFFFFFF AND DUP2 JUMP JUMPDEST PUSH0 DUP1 REVERT JUMPDEST PUSH0 PUSH20 0xFFFFFFFFFFFFFFFFFFFFFFFFFFFFFFFFFFFFFFFF DUP3 AND SWAP1 POP SWAP2 SWAP1 POP JUMP JUMPDEST PUSH0 PUSH2 0x33E DUP3 PUSH2 0x315 JUMP JUMPDEST SWAP1 POP SWAP2 SWAP1 POP JUMP JUMPDEST PUSH2 0x34E DUP2 PUSH2 0x334 JUMP JUMPDEST DUP2 EQ PUSH2 0x358 JUMPI PUSH0 DUP1 REVERT JUMPDEST POP JUMP JUMPDEST PUSH0 DUP2 CALLDATALOAD SWAP1 POP PUSH2 0x369 DUP2 PUSH2 0x345 JUMP JUMPDEST SWAP3 SWAP2 POP POP JUMP JUMPDEST PUSH0 DUP2 SWAP1 POP SWAP2 SWAP1 POP JUMP JUMPDEST PUSH2 0x381 DUP2 PUSH2 0x36F JUMP JUMPDEST DUP2 EQ PUSH2 0x38B JUMPI PUSH0 DUP1 REVERT JUMPDEST POP JUMP JUMPDEST PUSH0 DUP2 CALLDATALOAD SWAP1 POP PUSH2 0x39C DUP2 PUSH2 0x378 JUMP JUMPDEST SWAP3 SWAP2 POP POP JUMP JUMPDEST PUSH0 DUP1 PUSH0 DUP1 PUSH1 0x80 DUP6 DUP8 SUB SLT ISZERO PUSH2 0x3BA JUMPI PUSH2 0x3B9 PUSH2 0x311 JUMP JUMPDEST JUMPDEST PUSH0 PUSH2 0x3C7 DUP8 DUP3 DUP9 ADD PUSH2 0x35B JUMP JUMPDEST SWAP5 POP POP PUSH1 0x20 PUSH2 0x3D8 DUP8 DUP3 DUP9 ADD PUSH2 0x35B JUMP JUMPDEST SWAP4 POP POP PUSH1 0x40 PUSH2 0x3E9 DUP8 DUP3 DUP9 ADD PUSH2 0x38E JUMP JUMPDEST SWAP3 POP POP PUSH1 0x60 PUSH2 0x3FA DUP8 DUP3 DUP9 ADD PUSH2 0x38E JUMP JUMPDEST SWAP2 POP POP SWAP3 SWAP6 SWAP2 SWAP5 POP SWAP3 POP JUMP JUMPDEST PUSH0 DUP1 PUSH0 PUSH1 0x60 DUP5 DUP7 SUB SLT ISZERO PUSH2 0x41D JUMPI PUSH2 0x41C PUSH2 0x311 JUMP JUMPDEST JUMPDEST PUSH0 PUSH2 0x42A DUP7 DUP3 DUP8 ADD PUSH2 0x35B JUMP JUMPDEST SWAP4 POP POP PUSH1 0x20 PUSH2 0x43B DUP7 DUP3 DUP8 ADD PUSH2 0x35B JUMP JUMPDEST SWAP3 POP POP PUSH1 0x40 PUSH2 0x44C DUP7 DUP3 DUP8 ADD PUSH2 0x35B JUMP JUMPDEST SWAP2 POP POP SWAP3 POP SWAP3 POP SWAP3 JUMP JUMPDEST PUSH0 DUP2 SWAP1 POP SWAP2 SWAP1 POP JUMP JUMPDEST PUSH0 PUSH2 0x479 PUSH2 0x474 PUSH2 0x46F DUP5 PUSH2 0x315 JUMP JUMPDEST PUSH2 0x456 JUMP JUMPDEST PUSH2 0x315 JUMP JUMPDEST SWAP1 POP SWAP2 SWAP1 POP JUMP JUMPDEST PUSH0 PUSH2 0x48A DUP3 PUSH2 0x45F JUMP JUMPDEST SWAP1 POP SWAP2 SWAP1 POP JUMP JUMPDEST PUSH0 PUSH2 0x49B DUP3 PUSH2 0x480 JUMP JUMPDEST SWAP1 POP SWAP2 SWAP1 POP JUMP JUMPDEST PUSH2 0x4AB DUP2 PUSH2 0x491 JUMP JUMPDEST DUP3 MSTORE POP POP JUMP JUMPDEST PUSH0 PUSH1 0x20 DUP3 ADD SWAP1 POP PUSH2 0x4C4 PUSH0 DUP4 ADD DUP5 PUSH2 0x4A2 JUMP JUMPDEST SWAP3 SWAP2 POP POP JUMP JUMPDEST PUSH32 0x4E487B7100000000000000000000000000000000000000000000000000000000 PUSH0 MSTORE PUSH1 0x11 PUSH1 0x4 MSTORE PUSH1 0x24 PUSH0 REVERT JUMPDEST PUSH0 PUSH2 0x501 DUP3 PUSH2 0x36F JUMP JUMPDEST SWAP2 POP PUSH2 0x50C DUP4 PUSH2 0x36F JUMP JUMPDEST SWAP3 POP DUP3 DUP3 ADD SWAP1 POP DUP1 DUP3 GT ISZERO PUSH2 0x524 JUMPI PUSH2 0x523 PUSH2 0x4CA JUMP JUMPDEST JUMPDEST SWAP3 SWAP2 POP POP JUMP JUMPDEST PUSH2 0x533 DUP2 PUSH2 0x334 JUMP JUMPDEST DUP3 MSTORE POP POP JUMP JUMPDEST PUSH2 0x542 DUP2 PUSH2 0x36F JUMP JUMPDEST DUP3 MSTORE POP POP JUMP JUMPDEST PUSH0 PUSH1 0x60 DUP3 ADD SWAP1 POP PUSH2 0x55B PUSH0 DUP4 ADD DUP7 PUSH2 0x52A JUMP JUMPDEST PUSH2 0x568 PUSH1 0x20 DUP4 ADD DUP6 PUSH2 0x52A JUMP JUMPDEST PUSH2 0x575 PUSH1 0x40 DUP4 ADD DUP5 PUSH2 0x539 JUMP JUMPDEST SWAP5 SWAP4 POP POP POP POP JUMP JUMPDEST PUSH0 DUP2 SWAP1 POP SWAP2 SWAP1 POP JUMP JUMPDEST PUSH0 PUSH2 0x5A0 PUSH2 0x59B PUSH2 0x596 DUP5 PUSH2 0x57D JUMP JUMPDEST PUSH2 0x456 JUMP JUMPDEST PUSH2 0x36F JUMP JUMPDEST SWAP1 POP SWAP2 SWAP1 POP JUMP JUMPDEST PUSH2 0x5B0 DUP2 PUSH2 0x586 JUMP JUMPDEST DUP3 MSTORE POP POP JUMP JUMPDEST PUSH0 PUSH1 0x60 DUP3 ADD SWAP1 POP PUSH2 0x5C9 PUSH0 DUP4 ADD DUP7 PUSH2 0x52A JUMP JUMPDEST PUSH2 0x5D6 PUSH1 0x20 DUP4 ADD DUP6 PUSH2 0x52A JUMP JUMPDEST PUSH2 0x5E3 PUSH1 0x40 DUP4 ADD DUP5 PUSH2 0x5A7 JUMP JUMPDEST SWAP5 SWAP4 POP POP POP POP JUMP JUMPDEST PUSH0 DUP2 SWAP1 POP SWAP2 SWAP1 POP JUMP JUMPDEST PUSH0 PUSH2 0x60E PUSH2 0x609 PUSH2 0x604 DUP5 PUSH2 0x5EB JUMP JUMPDEST PUSH2 0x456 JUMP JUMPDEST PUSH2 0x36F JUMP JUMPDEST SWAP1 POP SWAP2 SWAP1 POP JUMP JUMPDEST PUSH2 0x61E DUP2 PUSH2 0x5F4 JUMP JUMPDEST DUP3 MSTORE POP POP JUMP JUMPDEST PUSH0 PUSH1 0x60 DUP3 ADD SWAP1 POP PUSH2 0x637 PUSH0 DUP4 ADD DUP7 PUSH2 0x52A JUMP JUMPDEST PUSH2 0x644 PUSH1 0x20 DUP4 ADD DUP6 PUSH2 0x52A JUMP JUMPDEST PUSH2 0x651 PUSH1 0x40 DUP4 ADD DUP5 PUSH2 0x615 JUMP JUMPDEST SWAP5 SWAP4 POP POP POP POP JUMP INVALID LOG2 PUSH5 0x6970667358 0x22 SLT KECCAK256 PUSH9 0xFE39BB2F98B9267F1B 0xF6 0xA6 0xBA CREATE PUSH1 0xF9 SUB PUSH13 0xB1416886A89E81441F5DC00AFD PUSH24 0x64736F6C634300081A003300000000000000000000000000 "
				},
				"gasEstimates": {
					"creation": {
						"codeDepositCost": "335800",
						"executionCost": "infinite",
						"totalCost": "infinite"
					},
					"external": {
						"causeLoop(address,address,address)": "infinite",
						"floodPoison(address,address,uint256,uint256)": "infinite",
						"target()": "infinite"
					}
				},
				"methodIdentifiers": {
					"causeLoop(address,address,address)": "a750083f",
					"floodPoison(address,address,uint256,uint256)": "3ae28705",
					"target()": "d4b83992"
				}
			},
			"storageLayout": {
				"storage": [
					{
						"astId": 77,
						"contract": "D/Distance Vector/Distance Vector.sol:Attack_DistanceVector",
						"label": "target",
						"offset": 0,
						"slot": "0",
						"type": "t_contract(DistanceVectorVuln)73"
					}
				],
				"types": {
					"t_contract(DistanceVectorVuln)73": {
						"encoding": "inplace",
						"label": "contract DistanceVectorVuln",
						"numberOfBytes": "20"
					}
				}
			},
			"userdoc": {
				"kind": "user",
				"methods": {
					"causeLoop(address,address,address)": {
						"notice": "create a simple loop by swapping nextHops"
					},
					"floodPoison(address,address,uint256,uint256)": {
						"notice": "flood with ever‑increasing metrics for a victim dest"
					}
				},
				"notice": "───────────────────────────────────────────────────────────────────────────── 2) ATTACK STUB    • floods bad routes causing count‑to‑infinity or loops ─────────────────────────────────────────────────────────────────────────────",
				"version": 1
			}
		}
	}
}