{
	"D/Distance Vector/Distance Vector.sol": {
		"DistanceVectorSafe": {
			"abi": [
				{
					"anonymous": false,
					"inputs": [
						{
							"indexed": true,
							"internalType": "address",
							"name": "from",
							"type": "address"
						},
						{
							"indexed": true,
							"internalType": "address",
							"name": "dest",
							"type": "address"
						},
						{
							"indexed": false,
							"internalType": "address",
							"name": "nextHop",
							"type": "address"
						},
						{
							"indexed": false,
							"internalType": "uint256",
							"name": "metric",
							"type": "uint256"
						},
						{
							"indexed": false,
							"internalType": "enum DistanceVectorDefenseType",
							"name": "defense",
							"type": "uint8"
						}
					],
					"name": "RouteUpdated",
					"type": "event"
				},
				{
					"inputs": [
						{
							"internalType": "address",
							"name": "",
							"type": "address"
						}
					],
					"name": "bestHop",
					"outputs": [
						{
							"internalType": "address",
							"name": "",
							"type": "address"
						}
					],
					"stateMutability": "view",
					"type": "function"
				},
				{
					"inputs": [
						{
							"internalType": "address",
							"name": "",
							"type": "address"
						},
						{
							"internalType": "address",
							"name": "",
							"type": "address"
						}
					],
					"name": "table",
					"outputs": [
						{
							"internalType": "uint256",
							"name": "",
							"type": "uint256"
						}
					],
					"stateMutability": "view",
					"type": "function"
				},
				{
					"inputs": [
						{
							"internalType": "address",
							"name": "dest",
							"type": "address"
						},
						{
							"internalType": "address",
							"name": "nextHop",
							"type": "address"
						},
						{
							"internalType": "uint256",
							"name": "metric",
							"type": "uint256"
						}
					],
					"name": "updateRoute",
					"outputs": [],
					"stateMutability": "nonpayable",
					"type": "function"
				}
			],
			"devdoc": {
				"kind": "dev",
				"methods": {},
				"version": 1
			},
			"evm": {
				"assembly": "    /* \"D/Distance Vector/Distance Vector.sol\":3950:5156  contract DistanceVectorSafe {... */\n  mstore(0x40, 0x80)\n  callvalue\n  dup1\n  iszero\n  tag_1\n  jumpi\n  0x00\n  dup1\n  revert\ntag_1:\n  pop\n  dataSize(sub_0)\n  dup1\n  dataOffset(sub_0)\n  0x00\n  codecopy\n  0x00\n  return\nstop\n\nsub_0: assembly {\n        /* \"D/Distance Vector/Distance Vector.sol\":3950:5156  contract DistanceVectorSafe {... */\n      mstore(0x40, 0x80)\n      callvalue\n      dup1\n      iszero\n      tag_1\n      jumpi\n      0x00\n      dup1\n      revert\n    tag_1:\n      pop\n      jumpi(tag_2, lt(calldatasize, 0x04))\n      shr(0xe0, calldataload(0x00))\n      dup1\n      0x1d8d4176\n      eq\n      tag_3\n      jumpi\n      dup1\n      0x52b65ad0\n      eq\n      tag_4\n      jumpi\n      dup1\n      0x605b5f4e\n      eq\n      tag_5\n      jumpi\n    tag_2:\n      0x00\n      dup1\n      revert\n        /* \"D/Distance Vector/Distance Vector.sol\":3984:4044  mapping(address => mapping(address => uint256)) public table */\n    tag_3:\n      tag_6\n      0x04\n      dup1\n      calldatasize\n      sub\n      dup2\n      add\n      swap1\n      tag_7\n      swap2\n      swap1\n      tag_8\n      jump\t// in\n    tag_7:\n      tag_9\n      jump\t// in\n    tag_6:\n      mload(0x40)\n      tag_10\n      swap2\n      swap1\n      tag_11\n      jump\t// in\n    tag_10:\n      mload(0x40)\n      dup1\n      swap2\n      sub\n      swap1\n      return\n        /* \"D/Distance Vector/Distance Vector.sol\":4359:5154  function updateRoute(address dest, address nextHop, uint256 metric) external {... */\n    tag_4:\n      tag_12\n      0x04\n      dup1\n      calldatasize\n      sub\n      dup2\n      add\n      swap1\n      tag_13\n      swap2\n      swap1\n      tag_14\n      jump\t// in\n    tag_13:\n      tag_15\n      jump\t// in\n    tag_12:\n      stop\n        /* \"D/Distance Vector/Distance Vector.sol\":4087:4129  mapping(address => address) public bestHop */\n    tag_5:\n      tag_16\n      0x04\n      dup1\n      calldatasize\n      sub\n      dup2\n      add\n      swap1\n      tag_17\n      swap2\n      swap1\n      tag_18\n      jump\t// in\n    tag_17:\n      tag_19\n      jump\t// in\n    tag_16:\n      mload(0x40)\n      tag_20\n      swap2\n      swap1\n      tag_21\n      jump\t// in\n    tag_20:\n      mload(0x40)\n      dup1\n      swap2\n      sub\n      swap1\n      return\n        /* \"D/Distance Vector/Distance Vector.sol\":3984:4044  mapping(address => mapping(address => uint256)) public table */\n    tag_9:\n      mstore(0x20, 0x00)\n      dup2\n      0x00\n      mstore\n      mstore(0x20, keccak256(0x00, 0x40))\n      dup1\n      0x00\n      mstore\n      keccak256(0x00, 0x40)\n      0x00\n      swap2\n      pop\n      swap2\n      pop\n      pop\n      sload\n      dup2\n      jump\t// out\n        /* \"D/Distance Vector/Distance Vector.sol\":4359:5154  function updateRoute(address dest, address nextHop, uint256 metric) external {... */\n    tag_15:\n        /* \"D/Distance Vector/Distance Vector.sol\":4535:4545  msg.sender */\n      caller\n        /* \"D/Distance Vector/Distance Vector.sol\":4518:4545  bestHop[dest] == msg.sender */\n      0xffffffffffffffffffffffffffffffffffffffff\n      and\n        /* \"D/Distance Vector/Distance Vector.sol\":4518:4525  bestHop */\n      0x01\n        /* \"D/Distance Vector/Distance Vector.sol\":4518:4531  bestHop[dest] */\n      0x00\n        /* \"D/Distance Vector/Distance Vector.sol\":4526:4530  dest */\n      dup6\n        /* \"D/Distance Vector/Distance Vector.sol\":4518:4531  bestHop[dest] */\n      0xffffffffffffffffffffffffffffffffffffffff\n      and\n      0xffffffffffffffffffffffffffffffffffffffff\n      and\n      dup2\n      mstore\n      0x20\n      add\n      swap1\n      dup2\n      mstore\n      0x20\n      add\n      0x00\n      keccak256\n      0x00\n      swap1\n      sload\n      swap1\n      0x0100\n      exp\n      swap1\n      div\n      0xffffffffffffffffffffffffffffffffffffffff\n      and\n        /* \"D/Distance Vector/Distance Vector.sol\":4518:4545  bestHop[dest] == msg.sender */\n      0xffffffffffffffffffffffffffffffffffffffff\n      and\n      sub\n        /* \"D/Distance Vector/Distance Vector.sol\":4514:4817  if (bestHop[dest] == msg.sender) {... */\n      tag_23\n      jumpi\n        /* \"D/Distance Vector/Distance Vector.sol\":4648:4665  type(uint256).max */\n      0xffffffffffffffffffffffffffffffffffffffffffffffffffffffffffffffff\n        /* \"D/Distance Vector/Distance Vector.sol\":4622:4627  table */\n      0x00\n        /* \"D/Distance Vector/Distance Vector.sol\":4622:4633  table[dest] */\n      dup1\n        /* \"D/Distance Vector/Distance Vector.sol\":4628:4632  dest */\n      dup6\n        /* \"D/Distance Vector/Distance Vector.sol\":4622:4633  table[dest] */\n      0xffffffffffffffffffffffffffffffffffffffff\n      and\n      0xffffffffffffffffffffffffffffffffffffffff\n      and\n      dup2\n      mstore\n      0x20\n      add\n      swap1\n      dup2\n      mstore\n      0x20\n      add\n      0x00\n      keccak256\n        /* \"D/Distance Vector/Distance Vector.sol\":4622:4645  table[dest][msg.sender] */\n      0x00\n        /* \"D/Distance Vector/Distance Vector.sol\":4634:4644  msg.sender */\n      caller\n        /* \"D/Distance Vector/Distance Vector.sol\":4622:4645  table[dest][msg.sender] */\n      0xffffffffffffffffffffffffffffffffffffffff\n      and\n      0xffffffffffffffffffffffffffffffffffffffff\n      and\n      dup2\n      mstore\n      0x20\n      add\n      swap1\n      dup2\n      mstore\n      0x20\n      add\n      0x00\n      keccak256\n        /* \"D/Distance Vector/Distance Vector.sol\":4622:4665  table[dest][msg.sender] = type(uint256).max */\n      dup2\n      swap1\n      sstore\n      pop\n        /* \"D/Distance Vector/Distance Vector.sol\":4709:4713  dest */\n      dup3\n        /* \"D/Distance Vector/Distance Vector.sol\":4684:4786  RouteUpdated(msg.sender, dest, msg.sender, type(uint256).max, DistanceVectorDefenseType.PoisonReverse) */\n      0xffffffffffffffffffffffffffffffffffffffff\n      and\n        /* \"D/Distance Vector/Distance Vector.sol\":4697:4707  msg.sender */\n      caller\n        /* \"D/Distance Vector/Distance Vector.sol\":4684:4786  RouteUpdated(msg.sender, dest, msg.sender, type(uint256).max, DistanceVectorDefenseType.PoisonReverse) */\n      0xffffffffffffffffffffffffffffffffffffffff\n      and\n      0x2ca21b65e3ccc37dd743b538848ca36739e5a8e5d8cfb36c08ccf9bff7f89577\n        /* \"D/Distance Vector/Distance Vector.sol\":4715:4725  msg.sender */\n      caller\n        /* \"D/Distance Vector/Distance Vector.sol\":4727:4744  type(uint256).max */\n      0xffffffffffffffffffffffffffffffffffffffffffffffffffffffffffffffff\n        /* \"D/Distance Vector/Distance Vector.sol\":4746:4785  DistanceVectorDefenseType.PoisonReverse */\n      0x01\n        /* \"D/Distance Vector/Distance Vector.sol\":4684:4786  RouteUpdated(msg.sender, dest, msg.sender, type(uint256).max, DistanceVectorDefenseType.PoisonReverse) */\n      mload(0x40)\n      tag_24\n      swap4\n      swap3\n      swap2\n      swap1\n      tag_25\n      jump\t// in\n    tag_24:\n      mload(0x40)\n      dup1\n      swap2\n      sub\n      swap1\n      log3\n        /* \"D/Distance Vector/Distance Vector.sol\":4800:4807  return; */\n      jump(tag_22)\n        /* \"D/Distance Vector/Distance Vector.sol\":4514:4817  if (bestHop[dest] == msg.sender) {... */\n    tag_23:\n        /* \"D/Distance Vector/Distance Vector.sol\":4881:4887  metric */\n      dup1\n        /* \"D/Distance Vector/Distance Vector.sol\":4855:4860  table */\n      0x00\n        /* \"D/Distance Vector/Distance Vector.sol\":4855:4866  table[dest] */\n      dup1\n        /* \"D/Distance Vector/Distance Vector.sol\":4861:4865  dest */\n      dup6\n        /* \"D/Distance Vector/Distance Vector.sol\":4855:4866  table[dest] */\n      0xffffffffffffffffffffffffffffffffffffffff\n      and\n      0xffffffffffffffffffffffffffffffffffffffff\n      and\n      dup2\n      mstore\n      0x20\n      add\n      swap1\n      dup2\n      mstore\n      0x20\n      add\n      0x00\n      keccak256\n        /* \"D/Distance Vector/Distance Vector.sol\":4855:4878  table[dest][msg.sender] */\n      0x00\n        /* \"D/Distance Vector/Distance Vector.sol\":4867:4877  msg.sender */\n      caller\n        /* \"D/Distance Vector/Distance Vector.sol\":4855:4878  table[dest][msg.sender] */\n      0xffffffffffffffffffffffffffffffffffffffff\n      and\n      0xffffffffffffffffffffffffffffffffffffffff\n      and\n      dup2\n      mstore\n      0x20\n      add\n      swap1\n      dup2\n      mstore\n      0x20\n      add\n      0x00\n      keccak256\n        /* \"D/Distance Vector/Distance Vector.sol\":4855:4887  table[dest][msg.sender] = metric */\n      dup2\n      swap1\n      sstore\n      pop\n        /* \"D/Distance Vector/Distance Vector.sol\":4949:4950  0 */\n      0x00\n        /* \"D/Distance Vector/Distance Vector.sol\":4924:4951  bestHop[dest] == address(0) */\n      0xffffffffffffffffffffffffffffffffffffffff\n      and\n        /* \"D/Distance Vector/Distance Vector.sol\":4924:4931  bestHop */\n      0x01\n        /* \"D/Distance Vector/Distance Vector.sol\":4924:4937  bestHop[dest] */\n      0x00\n        /* \"D/Distance Vector/Distance Vector.sol\":4932:4936  dest */\n      dup6\n        /* \"D/Distance Vector/Distance Vector.sol\":4924:4937  bestHop[dest] */\n      0xffffffffffffffffffffffffffffffffffffffff\n      and\n      0xffffffffffffffffffffffffffffffffffffffff\n      and\n      dup2\n      mstore\n      0x20\n      add\n      swap1\n      dup2\n      mstore\n      0x20\n      add\n      0x00\n      keccak256\n      0x00\n      swap1\n      sload\n      swap1\n      0x0100\n      exp\n      swap1\n      div\n      0xffffffffffffffffffffffffffffffffffffffff\n      and\n        /* \"D/Distance Vector/Distance Vector.sol\":4924:4951  bestHop[dest] == address(0) */\n      0xffffffffffffffffffffffffffffffffffffffff\n      and\n      eq\n        /* \"D/Distance Vector/Distance Vector.sol\":4924:4990  bestHop[dest] == address(0) || metric < table[dest][bestHop[dest]] */\n      dup1\n      tag_26\n      jumpi\n      pop\n        /* \"D/Distance Vector/Distance Vector.sol\":4964:4969  table */\n      0x00\n        /* \"D/Distance Vector/Distance Vector.sol\":4964:4975  table[dest] */\n      dup1\n        /* \"D/Distance Vector/Distance Vector.sol\":4970:4974  dest */\n      dup5\n        /* \"D/Distance Vector/Distance Vector.sol\":4964:4975  table[dest] */\n      0xffffffffffffffffffffffffffffffffffffffff\n      and\n      0xffffffffffffffffffffffffffffffffffffffff\n      and\n      dup2\n      mstore\n      0x20\n      add\n      swap1\n      dup2\n      mstore\n      0x20\n      add\n      0x00\n      keccak256\n        /* \"D/Distance Vector/Distance Vector.sol\":4964:4990  table[dest][bestHop[dest]] */\n      0x00\n        /* \"D/Distance Vector/Distance Vector.sol\":4976:4983  bestHop */\n      0x01\n        /* \"D/Distance Vector/Distance Vector.sol\":4976:4989  bestHop[dest] */\n      0x00\n        /* \"D/Distance Vector/Distance Vector.sol\":4984:4988  dest */\n      dup7\n        /* \"D/Distance Vector/Distance Vector.sol\":4976:4989  bestHop[dest] */\n      0xffffffffffffffffffffffffffffffffffffffff\n      and\n      0xffffffffffffffffffffffffffffffffffffffff\n      and\n      dup2\n      mstore\n      0x20\n      add\n      swap1\n      dup2\n      mstore\n      0x20\n      add\n      0x00\n      keccak256\n      0x00\n      swap1\n      sload\n      swap1\n      0x0100\n      exp\n      swap1\n      div\n      0xffffffffffffffffffffffffffffffffffffffff\n      and\n        /* \"D/Distance Vector/Distance Vector.sol\":4964:4990  table[dest][bestHop[dest]] */\n      0xffffffffffffffffffffffffffffffffffffffff\n      and\n      0xffffffffffffffffffffffffffffffffffffffff\n      and\n      dup2\n      mstore\n      0x20\n      add\n      swap1\n      dup2\n      mstore\n      0x20\n      add\n      0x00\n      keccak256\n      sload\n        /* \"D/Distance Vector/Distance Vector.sol\":4955:4961  metric */\n      dup2\n        /* \"D/Distance Vector/Distance Vector.sol\":4955:4990  metric < table[dest][bestHop[dest]] */\n      lt\n        /* \"D/Distance Vector/Distance Vector.sol\":4924:4990  bestHop[dest] == address(0) || metric < table[dest][bestHop[dest]] */\n    tag_26:\n        /* \"D/Distance Vector/Distance Vector.sol\":4920:5043  if (bestHop[dest] == address(0) || metric < table[dest][bestHop[dest]]) {... */\n      iszero\n      tag_27\n      jumpi\n        /* \"D/Distance Vector/Distance Vector.sol\":5022:5032  msg.sender */\n      caller\n        /* \"D/Distance Vector/Distance Vector.sol\":5006:5013  bestHop */\n      0x01\n        /* \"D/Distance Vector/Distance Vector.sol\":5006:5019  bestHop[dest] */\n      0x00\n        /* \"D/Distance Vector/Distance Vector.sol\":5014:5018  dest */\n      dup6\n        /* \"D/Distance Vector/Distance Vector.sol\":5006:5019  bestHop[dest] */\n      0xffffffffffffffffffffffffffffffffffffffff\n      and\n      0xffffffffffffffffffffffffffffffffffffffff\n      and\n      dup2\n      mstore\n      0x20\n      add\n      swap1\n      dup2\n      mstore\n      0x20\n      add\n      0x00\n      keccak256\n      0x00\n        /* \"D/Distance Vector/Distance Vector.sol\":5006:5032  bestHop[dest] = msg.sender */\n      0x0100\n      exp\n      dup2\n      sload\n      dup2\n      0xffffffffffffffffffffffffffffffffffffffff\n      mul\n      not\n      and\n      swap1\n      dup4\n      0xffffffffffffffffffffffffffffffffffffffff\n      and\n      mul\n      or\n      swap1\n      sstore\n      pop\n        /* \"D/Distance Vector/Distance Vector.sol\":4920:5043  if (bestHop[dest] == address(0) || metric < table[dest][bestHop[dest]]) {... */\n    tag_27:\n        /* \"D/Distance Vector/Distance Vector.sol\":5082:5086  dest */\n      dup3\n        /* \"D/Distance Vector/Distance Vector.sol\":5057:5147  RouteUpdated(msg.sender, dest, msg.sender, metric, DistanceVectorDefenseType.SplitHorizon) */\n      0xffffffffffffffffffffffffffffffffffffffff\n      and\n        /* \"D/Distance Vector/Distance Vector.sol\":5070:5080  msg.sender */\n      caller\n        /* \"D/Distance Vector/Distance Vector.sol\":5057:5147  RouteUpdated(msg.sender, dest, msg.sender, metric, DistanceVectorDefenseType.SplitHorizon) */\n      0xffffffffffffffffffffffffffffffffffffffff\n      and\n      0x2ca21b65e3ccc37dd743b538848ca36739e5a8e5d8cfb36c08ccf9bff7f89577\n        /* \"D/Distance Vector/Distance Vector.sol\":5088:5098  msg.sender */\n      caller\n        /* \"D/Distance Vector/Distance Vector.sol\":5100:5106  metric */\n      dup5\n        /* \"D/Distance Vector/Distance Vector.sol\":5108:5146  DistanceVectorDefenseType.SplitHorizon */\n      0x00\n        /* \"D/Distance Vector/Distance Vector.sol\":5057:5147  RouteUpdated(msg.sender, dest, msg.sender, metric, DistanceVectorDefenseType.SplitHorizon) */\n      mload(0x40)\n      tag_28\n      swap4\n      swap3\n      swap2\n      swap1\n      tag_25\n      jump\t// in\n    tag_28:\n      mload(0x40)\n      dup1\n      swap2\n      sub\n      swap1\n      log3\n        /* \"D/Distance Vector/Distance Vector.sol\":4359:5154  function updateRoute(address dest, address nextHop, uint256 metric) external {... */\n    tag_22:\n      pop\n      pop\n      pop\n      jump\t// out\n        /* \"D/Distance Vector/Distance Vector.sol\":4087:4129  mapping(address => address) public bestHop */\n    tag_19:\n      mstore(0x20, 0x01)\n      dup1\n      0x00\n      mstore\n      keccak256(0x00, 0x40)\n      0x00\n      swap2\n      pop\n      sload\n      swap1\n      0x0100\n      exp\n      swap1\n      div\n      0xffffffffffffffffffffffffffffffffffffffff\n      and\n      dup2\n      jump\t// out\n        /* \"#utility.yul\":88:205   */\n    tag_30:\n        /* \"#utility.yul\":197:198   */\n      0x00\n        /* \"#utility.yul\":194:195   */\n      dup1\n        /* \"#utility.yul\":187:199   */\n      revert\n        /* \"#utility.yul\":334:460   */\n    tag_32:\n        /* \"#utility.yul\":371:378   */\n      0x00\n        /* \"#utility.yul\":411:453   */\n      0xffffffffffffffffffffffffffffffffffffffff\n        /* \"#utility.yul\":404:409   */\n      dup3\n        /* \"#utility.yul\":400:454   */\n      and\n        /* \"#utility.yul\":389:454   */\n      swap1\n      pop\n        /* \"#utility.yul\":334:460   */\n      swap2\n      swap1\n      pop\n      jump\t// out\n        /* \"#utility.yul\":466:562   */\n    tag_33:\n        /* \"#utility.yul\":503:510   */\n      0x00\n        /* \"#utility.yul\":532:556   */\n      tag_52\n        /* \"#utility.yul\":550:555   */\n      dup3\n        /* \"#utility.yul\":532:556   */\n      tag_32\n      jump\t// in\n    tag_52:\n        /* \"#utility.yul\":521:556   */\n      swap1\n      pop\n        /* \"#utility.yul\":466:562   */\n      swap2\n      swap1\n      pop\n      jump\t// out\n        /* \"#utility.yul\":568:690   */\n    tag_34:\n        /* \"#utility.yul\":641:665   */\n      tag_54\n        /* \"#utility.yul\":659:664   */\n      dup2\n        /* \"#utility.yul\":641:665   */\n      tag_33\n      jump\t// in\n    tag_54:\n        /* \"#utility.yul\":634:639   */\n      dup2\n        /* \"#utility.yul\":631:666   */\n      eq\n        /* \"#utility.yul\":621:684   */\n      tag_55\n      jumpi\n        /* \"#utility.yul\":680:681   */\n      0x00\n        /* \"#utility.yul\":677:678   */\n      dup1\n        /* \"#utility.yul\":670:682   */\n      revert\n        /* \"#utility.yul\":621:684   */\n    tag_55:\n        /* \"#utility.yul\":568:690   */\n      pop\n      jump\t// out\n        /* \"#utility.yul\":696:835   */\n    tag_35:\n        /* \"#utility.yul\":742:747   */\n      0x00\n        /* \"#utility.yul\":780:786   */\n      dup2\n        /* \"#utility.yul\":767:787   */\n      calldataload\n        /* \"#utility.yul\":758:787   */\n      swap1\n      pop\n        /* \"#utility.yul\":796:829   */\n      tag_57\n        /* \"#utility.yul\":823:828   */\n      dup2\n        /* \"#utility.yul\":796:829   */\n      tag_34\n      jump\t// in\n    tag_57:\n        /* \"#utility.yul\":696:835   */\n      swap3\n      swap2\n      pop\n      pop\n      jump\t// out\n        /* \"#utility.yul\":841:1315   */\n    tag_8:\n        /* \"#utility.yul\":909:915   */\n      0x00\n        /* \"#utility.yul\":917:923   */\n      dup1\n        /* \"#utility.yul\":966:968   */\n      0x40\n        /* \"#utility.yul\":954:963   */\n      dup4\n        /* \"#utility.yul\":945:952   */\n      dup6\n        /* \"#utility.yul\":941:964   */\n      sub\n        /* \"#utility.yul\":937:969   */\n      slt\n        /* \"#utility.yul\":934:1053   */\n      iszero\n      tag_59\n      jumpi\n        /* \"#utility.yul\":972:1051   */\n      tag_60\n      tag_30\n      jump\t// in\n    tag_60:\n        /* \"#utility.yul\":934:1053   */\n    tag_59:\n        /* \"#utility.yul\":1092:1093   */\n      0x00\n        /* \"#utility.yul\":1117:1170   */\n      tag_61\n        /* \"#utility.yul\":1162:1169   */\n      dup6\n        /* \"#utility.yul\":1153:1159   */\n      dup3\n        /* \"#utility.yul\":1142:1151   */\n      dup7\n        /* \"#utility.yul\":1138:1160   */\n      add\n        /* \"#utility.yul\":1117:1170   */\n      tag_35\n      jump\t// in\n    tag_61:\n        /* \"#utility.yul\":1107:1170   */\n      swap3\n      pop\n        /* \"#utility.yul\":1063:1180   */\n      pop\n        /* \"#utility.yul\":1219:1221   */\n      0x20\n        /* \"#utility.yul\":1245:1298   */\n      tag_62\n        /* \"#utility.yul\":1290:1297   */\n      dup6\n        /* \"#utility.yul\":1281:1287   */\n      dup3\n        /* \"#utility.yul\":1270:1279   */\n      dup7\n        /* \"#utility.yul\":1266:1288   */\n      add\n        /* \"#utility.yul\":1245:1298   */\n      tag_35\n      jump\t// in\n    tag_62:\n        /* \"#utility.yul\":1235:1298   */\n      swap2\n      pop\n        /* \"#utility.yul\":1190:1308   */\n      pop\n        /* \"#utility.yul\":841:1315   */\n      swap3\n      pop\n      swap3\n      swap1\n      pop\n      jump\t// out\n        /* \"#utility.yul\":1321:1398   */\n    tag_36:\n        /* \"#utility.yul\":1358:1365   */\n      0x00\n        /* \"#utility.yul\":1387:1392   */\n      dup2\n        /* \"#utility.yul\":1376:1392   */\n      swap1\n      pop\n        /* \"#utility.yul\":1321:1398   */\n      swap2\n      swap1\n      pop\n      jump\t// out\n        /* \"#utility.yul\":1404:1522   */\n    tag_37:\n        /* \"#utility.yul\":1491:1515   */\n      tag_65\n        /* \"#utility.yul\":1509:1514   */\n      dup2\n        /* \"#utility.yul\":1491:1515   */\n      tag_36\n      jump\t// in\n    tag_65:\n        /* \"#utility.yul\":1486:1489   */\n      dup3\n        /* \"#utility.yul\":1479:1516   */\n      mstore\n        /* \"#utility.yul\":1404:1522   */\n      pop\n      pop\n      jump\t// out\n        /* \"#utility.yul\":1528:1750   */\n    tag_11:\n        /* \"#utility.yul\":1621:1625   */\n      0x00\n        /* \"#utility.yul\":1659:1661   */\n      0x20\n        /* \"#utility.yul\":1648:1657   */\n      dup3\n        /* \"#utility.yul\":1644:1662   */\n      add\n        /* \"#utility.yul\":1636:1662   */\n      swap1\n      pop\n        /* \"#utility.yul\":1672:1743   */\n      tag_67\n        /* \"#utility.yul\":1740:1741   */\n      0x00\n        /* \"#utility.yul\":1729:1738   */\n      dup4\n        /* \"#utility.yul\":1725:1742   */\n      add\n        /* \"#utility.yul\":1716:1722   */\n      dup5\n        /* \"#utility.yul\":1672:1743   */\n      tag_37\n      jump\t// in\n    tag_67:\n        /* \"#utility.yul\":1528:1750   */\n      swap3\n      swap2\n      pop\n      pop\n      jump\t// out\n        /* \"#utility.yul\":1756:1878   */\n    tag_38:\n        /* \"#utility.yul\":1829:1853   */\n      tag_69\n        /* \"#utility.yul\":1847:1852   */\n      dup2\n        /* \"#utility.yul\":1829:1853   */\n      tag_36\n      jump\t// in\n    tag_69:\n        /* \"#utility.yul\":1822:1827   */\n      dup2\n        /* \"#utility.yul\":1819:1854   */\n      eq\n        /* \"#utility.yul\":1809:1872   */\n      tag_70\n      jumpi\n        /* \"#utility.yul\":1868:1869   */\n      0x00\n        /* \"#utility.yul\":1865:1866   */\n      dup1\n        /* \"#utility.yul\":1858:1870   */\n      revert\n        /* \"#utility.yul\":1809:1872   */\n    tag_70:\n        /* \"#utility.yul\":1756:1878   */\n      pop\n      jump\t// out\n        /* \"#utility.yul\":1884:2023   */\n    tag_39:\n        /* \"#utility.yul\":1930:1935   */\n      0x00\n        /* \"#utility.yul\":1968:1974   */\n      dup2\n        /* \"#utility.yul\":1955:1975   */\n      calldataload\n        /* \"#utility.yul\":1946:1975   */\n      swap1\n      pop\n        /* \"#utility.yul\":1984:2017   */\n      tag_72\n        /* \"#utility.yul\":2011:2016   */\n      dup2\n        /* \"#utility.yul\":1984:2017   */\n      tag_38\n      jump\t// in\n    tag_72:\n        /* \"#utility.yul\":1884:2023   */\n      swap3\n      swap2\n      pop\n      pop\n      jump\t// out\n        /* \"#utility.yul\":2029:2648   */\n    tag_14:\n        /* \"#utility.yul\":2106:2112   */\n      0x00\n        /* \"#utility.yul\":2114:2120   */\n      dup1\n        /* \"#utility.yul\":2122:2128   */\n      0x00\n        /* \"#utility.yul\":2171:2173   */\n      0x60\n        /* \"#utility.yul\":2159:2168   */\n      dup5\n        /* \"#utility.yul\":2150:2157   */\n      dup7\n        /* \"#utility.yul\":2146:2169   */\n      sub\n        /* \"#utility.yul\":2142:2174   */\n      slt\n        /* \"#utility.yul\":2139:2258   */\n      iszero\n      tag_74\n      jumpi\n        /* \"#utility.yul\":2177:2256   */\n      tag_75\n      tag_30\n      jump\t// in\n    tag_75:\n        /* \"#utility.yul\":2139:2258   */\n    tag_74:\n        /* \"#utility.yul\":2297:2298   */\n      0x00\n        /* \"#utility.yul\":2322:2375   */\n      tag_76\n        /* \"#utility.yul\":2367:2374   */\n      dup7\n        /* \"#utility.yul\":2358:2364   */\n      dup3\n        /* \"#utility.yul\":2347:2356   */\n      dup8\n        /* \"#utility.yul\":2343:2365   */\n      add\n        /* \"#utility.yul\":2322:2375   */\n      tag_35\n      jump\t// in\n    tag_76:\n        /* \"#utility.yul\":2312:2375   */\n      swap4\n      pop\n        /* \"#utility.yul\":2268:2385   */\n      pop\n        /* \"#utility.yul\":2424:2426   */\n      0x20\n        /* \"#utility.yul\":2450:2503   */\n      tag_77\n        /* \"#utility.yul\":2495:2502   */\n      dup7\n        /* \"#utility.yul\":2486:2492   */\n      dup3\n        /* \"#utility.yul\":2475:2484   */\n      dup8\n        /* \"#utility.yul\":2471:2493   */\n      add\n        /* \"#utility.yul\":2450:2503   */\n      tag_35\n      jump\t// in\n    tag_77:\n        /* \"#utility.yul\":2440:2503   */\n      swap3\n      pop\n        /* \"#utility.yul\":2395:2513   */\n      pop\n        /* \"#utility.yul\":2552:2554   */\n      0x40\n        /* \"#utility.yul\":2578:2631   */\n      tag_78\n        /* \"#utility.yul\":2623:2630   */\n      dup7\n        /* \"#utility.yul\":2614:2620   */\n      dup3\n        /* \"#utility.yul\":2603:2612   */\n      dup8\n        /* \"#utility.yul\":2599:2621   */\n      add\n        /* \"#utility.yul\":2578:2631   */\n      tag_39\n      jump\t// in\n    tag_78:\n        /* \"#utility.yul\":2568:2631   */\n      swap2\n      pop\n        /* \"#utility.yul\":2523:2641   */\n      pop\n        /* \"#utility.yul\":2029:2648   */\n      swap3\n      pop\n      swap3\n      pop\n      swap3\n      jump\t// out\n        /* \"#utility.yul\":2654:2983   */\n    tag_18:\n        /* \"#utility.yul\":2713:2719   */\n      0x00\n        /* \"#utility.yul\":2762:2764   */\n      0x20\n        /* \"#utility.yul\":2750:2759   */\n      dup3\n        /* \"#utility.yul\":2741:2748   */\n      dup5\n        /* \"#utility.yul\":2737:2760   */\n      sub\n        /* \"#utility.yul\":2733:2765   */\n      slt\n        /* \"#utility.yul\":2730:2849   */\n      iszero\n      tag_80\n      jumpi\n        /* \"#utility.yul\":2768:2847   */\n      tag_81\n      tag_30\n      jump\t// in\n    tag_81:\n        /* \"#utility.yul\":2730:2849   */\n    tag_80:\n        /* \"#utility.yul\":2888:2889   */\n      0x00\n        /* \"#utility.yul\":2913:2966   */\n      tag_82\n        /* \"#utility.yul\":2958:2965   */\n      dup5\n        /* \"#utility.yul\":2949:2955   */\n      dup3\n        /* \"#utility.yul\":2938:2947   */\n      dup6\n        /* \"#utility.yul\":2934:2956   */\n      add\n        /* \"#utility.yul\":2913:2966   */\n      tag_35\n      jump\t// in\n    tag_82:\n        /* \"#utility.yul\":2903:2966   */\n      swap2\n      pop\n        /* \"#utility.yul\":2859:2976   */\n      pop\n        /* \"#utility.yul\":2654:2983   */\n      swap3\n      swap2\n      pop\n      pop\n      jump\t// out\n        /* \"#utility.yul\":2989:3107   */\n    tag_40:\n        /* \"#utility.yul\":3076:3100   */\n      tag_84\n        /* \"#utility.yul\":3094:3099   */\n      dup2\n        /* \"#utility.yul\":3076:3100   */\n      tag_33\n      jump\t// in\n    tag_84:\n        /* \"#utility.yul\":3071:3074   */\n      dup3\n        /* \"#utility.yul\":3064:3101   */\n      mstore\n        /* \"#utility.yul\":2989:3107   */\n      pop\n      pop\n      jump\t// out\n        /* \"#utility.yul\":3113:3335   */\n    tag_21:\n        /* \"#utility.yul\":3206:3210   */\n      0x00\n        /* \"#utility.yul\":3244:3246   */\n      0x20\n        /* \"#utility.yul\":3233:3242   */\n      dup3\n        /* \"#utility.yul\":3229:3247   */\n      add\n        /* \"#utility.yul\":3221:3247   */\n      swap1\n      pop\n        /* \"#utility.yul\":3257:3328   */\n      tag_86\n        /* \"#utility.yul\":3325:3326   */\n      0x00\n        /* \"#utility.yul\":3314:3323   */\n      dup4\n        /* \"#utility.yul\":3310:3327   */\n      add\n        /* \"#utility.yul\":3301:3307   */\n      dup5\n        /* \"#utility.yul\":3257:3328   */\n      tag_40\n      jump\t// in\n    tag_86:\n        /* \"#utility.yul\":3113:3335   */\n      swap3\n      swap2\n      pop\n      pop\n      jump\t// out\n        /* \"#utility.yul\":3341:3521   */\n    tag_41:\n        /* \"#utility.yul\":3389:3466   */\n      0x4e487b7100000000000000000000000000000000000000000000000000000000\n        /* \"#utility.yul\":3386:3387   */\n      0x00\n        /* \"#utility.yul\":3379:3467   */\n      mstore\n        /* \"#utility.yul\":3486:3490   */\n      0x21\n        /* \"#utility.yul\":3483:3484   */\n      0x04\n        /* \"#utility.yul\":3476:3491   */\n      mstore\n        /* \"#utility.yul\":3510:3514   */\n      0x24\n        /* \"#utility.yul\":3507:3508   */\n      0x00\n        /* \"#utility.yul\":3500:3515   */\n      revert\n        /* \"#utility.yul\":3527:3660   */\n    tag_42:\n        /* \"#utility.yul\":3628:3629   */\n      0x04\n        /* \"#utility.yul\":3621:3626   */\n      dup2\n        /* \"#utility.yul\":3618:3630   */\n      lt\n        /* \"#utility.yul\":3608:3654   */\n      tag_89\n      jumpi\n        /* \"#utility.yul\":3634:3652   */\n      tag_90\n      tag_41\n      jump\t// in\n    tag_90:\n        /* \"#utility.yul\":3608:3654   */\n    tag_89:\n        /* \"#utility.yul\":3527:3660   */\n      pop\n      jump\t// out\n        /* \"#utility.yul\":3666:3833   */\n    tag_43:\n        /* \"#utility.yul\":3731:3738   */\n      0x00\n        /* \"#utility.yul\":3760:3765   */\n      dup2\n        /* \"#utility.yul\":3749:3765   */\n      swap1\n      pop\n        /* \"#utility.yul\":3766:3827   */\n      tag_92\n        /* \"#utility.yul\":3821:3826   */\n      dup3\n        /* \"#utility.yul\":3766:3827   */\n      tag_42\n      jump\t// in\n    tag_92:\n        /* \"#utility.yul\":3666:3833   */\n      swap2\n      swap1\n      pop\n      jump\t// out\n        /* \"#utility.yul\":3839:4006   */\n    tag_44:\n        /* \"#utility.yul\":3915:3924   */\n      0x00\n        /* \"#utility.yul\":3948:4000   */\n      tag_94\n        /* \"#utility.yul\":3994:3999   */\n      dup3\n        /* \"#utility.yul\":3948:4000   */\n      tag_43\n      jump\t// in\n    tag_94:\n        /* \"#utility.yul\":3935:4000   */\n      swap1\n      pop\n        /* \"#utility.yul\":3839:4006   */\n      swap2\n      swap1\n      pop\n      jump\t// out\n        /* \"#utility.yul\":4012:4195   */\n    tag_45:\n        /* \"#utility.yul\":4125:4188   */\n      tag_96\n        /* \"#utility.yul\":4182:4187   */\n      dup2\n        /* \"#utility.yul\":4125:4188   */\n      tag_44\n      jump\t// in\n    tag_96:\n        /* \"#utility.yul\":4120:4123   */\n      dup3\n        /* \"#utility.yul\":4113:4189   */\n      mstore\n        /* \"#utility.yul\":4012:4195   */\n      pop\n      pop\n      jump\t// out\n        /* \"#utility.yul\":4201:4695   */\n    tag_25:\n        /* \"#utility.yul\":4376:4380   */\n      0x00\n        /* \"#utility.yul\":4414:4416   */\n      0x60\n        /* \"#utility.yul\":4403:4412   */\n      dup3\n        /* \"#utility.yul\":4399:4417   */\n      add\n        /* \"#utility.yul\":4391:4417   */\n      swap1\n      pop\n        /* \"#utility.yul\":4427:4498   */\n      tag_98\n        /* \"#utility.yul\":4495:4496   */\n      0x00\n        /* \"#utility.yul\":4484:4493   */\n      dup4\n        /* \"#utility.yul\":4480:4497   */\n      add\n        /* \"#utility.yul\":4471:4477   */\n      dup7\n        /* \"#utility.yul\":4427:4498   */\n      tag_40\n      jump\t// in\n    tag_98:\n        /* \"#utility.yul\":4508:4580   */\n      tag_99\n        /* \"#utility.yul\":4576:4578   */\n      0x20\n        /* \"#utility.yul\":4565:4574   */\n      dup4\n        /* \"#utility.yul\":4561:4579   */\n      add\n        /* \"#utility.yul\":4552:4558   */\n      dup6\n        /* \"#utility.yul\":4508:4580   */\n      tag_37\n      jump\t// in\n    tag_99:\n        /* \"#utility.yul\":4590:4688   */\n      tag_100\n        /* \"#utility.yul\":4684:4686   */\n      0x40\n        /* \"#utility.yul\":4673:4682   */\n      dup4\n        /* \"#utility.yul\":4669:4687   */\n      add\n        /* \"#utility.yul\":4660:4666   */\n      dup5\n        /* \"#utility.yul\":4590:4688   */\n      tag_45\n      jump\t// in\n    tag_100:\n        /* \"#utility.yul\":4201:4695   */\n      swap5\n      swap4\n      pop\n      pop\n      pop\n      pop\n      jump\t// out\n\n    auxdata: 0xa2646970667358221220b238714edc3dbeaf008be12b3aca1685de2ffe8bd104d8f4a8a2022d8f90eecd64736f6c634300081a0033\n}\n",
				"bytecode": {
					"linkReferences": {},
					"object": "6080604052348015600e575f80fd5b506108148061001c5f395ff3fe608060405234801561000f575f80fd5b506004361061003f575f3560e01c80631d8d41761461004357806352b65ad014610073578063605b5f4e1461008f575b5f80fd5b61005d600480360381019061005891906105fa565b6100bf565b60405161006a9190610650565b60405180910390f35b61008d60048036038101906100889190610693565b6100de565b005b6100a960048036038101906100a491906106e3565b61056c565b6040516100b6919061071d565b60405180910390f35b5f602052815f5260405f20602052805f5260405f205f91509150505481565b3373ffffffffffffffffffffffffffffffffffffffff1660015f8573ffffffffffffffffffffffffffffffffffffffff1673ffffffffffffffffffffffffffffffffffffffff1681526020019081526020015f205f9054906101000a900473ffffffffffffffffffffffffffffffffffffffff1673ffffffffffffffffffffffffffffffffffffffff1603610298577fffffffffffffffffffffffffffffffffffffffffffffffffffffffffffffffff5f808573ffffffffffffffffffffffffffffffffffffffff1673ffffffffffffffffffffffffffffffffffffffff1681526020019081526020015f205f3373ffffffffffffffffffffffffffffffffffffffff1673ffffffffffffffffffffffffffffffffffffffff1681526020019081526020015f20819055508273ffffffffffffffffffffffffffffffffffffffff163373ffffffffffffffffffffffffffffffffffffffff167f2ca21b65e3ccc37dd743b538848ca36739e5a8e5d8cfb36c08ccf9bff7f89577337fffffffffffffffffffffffffffffffffffffffffffffffffffffffffffffffff600160405161028b939291906107a9565b60405180910390a3610567565b805f808573ffffffffffffffffffffffffffffffffffffffff1673ffffffffffffffffffffffffffffffffffffffff1681526020019081526020015f205f3373ffffffffffffffffffffffffffffffffffffffff1673ffffffffffffffffffffffffffffffffffffffff1681526020019081526020015f20819055505f73ffffffffffffffffffffffffffffffffffffffff1660015f8573ffffffffffffffffffffffffffffffffffffffff1673ffffffffffffffffffffffffffffffffffffffff1681526020019081526020015f205f9054906101000a900473ffffffffffffffffffffffffffffffffffffffff1673ffffffffffffffffffffffffffffffffffffffff16148061047c57505f808473ffffffffffffffffffffffffffffffffffffffff1673ffffffffffffffffffffffffffffffffffffffff1681526020019081526020015f205f60015f8673ffffffffffffffffffffffffffffffffffffffff1673ffffffffffffffffffffffffffffffffffffffff1681526020019081526020015f205f9054906101000a900473ffffffffffffffffffffffffffffffffffffffff1673ffffffffffffffffffffffffffffffffffffffff1673ffffffffffffffffffffffffffffffffffffffff1681526020019081526020015f205481105b156104fd573360015f8573ffffffffffffffffffffffffffffffffffffffff1673ffffffffffffffffffffffffffffffffffffffff1681526020019081526020015f205f6101000a81548173ffffffffffffffffffffffffffffffffffffffff021916908373ffffffffffffffffffffffffffffffffffffffff1602179055505b8273ffffffffffffffffffffffffffffffffffffffff163373ffffffffffffffffffffffffffffffffffffffff167f2ca21b65e3ccc37dd743b538848ca36739e5a8e5d8cfb36c08ccf9bff7f8957733845f60405161055e939291906107a9565b60405180910390a35b505050565b6001602052805f5260405f205f915054906101000a900473ffffffffffffffffffffffffffffffffffffffff1681565b5f80fd5b5f73ffffffffffffffffffffffffffffffffffffffff82169050919050565b5f6105c9826105a0565b9050919050565b6105d9816105bf565b81146105e3575f80fd5b50565b5f813590506105f4816105d0565b92915050565b5f80604083850312156106105761060f61059c565b5b5f61061d858286016105e6565b925050602061062e858286016105e6565b9150509250929050565b5f819050919050565b61064a81610638565b82525050565b5f6020820190506106635f830184610641565b92915050565b61067281610638565b811461067c575f80fd5b50565b5f8135905061068d81610669565b92915050565b5f805f606084860312156106aa576106a961059c565b5b5f6106b7868287016105e6565b93505060206106c8868287016105e6565b92505060406106d98682870161067f565b9150509250925092565b5f602082840312156106f8576106f761059c565b5b5f610705848285016105e6565b91505092915050565b610717816105bf565b82525050565b5f6020820190506107305f83018461070e565b92915050565b7f4e487b71000000000000000000000000000000000000000000000000000000005f52602160045260245ffd5b6004811061077457610773610736565b5b50565b5f81905061078482610763565b919050565b5f61079382610777565b9050919050565b6107a381610789565b82525050565b5f6060820190506107bc5f83018661070e565b6107c96020830185610641565b6107d6604083018461079a565b94935050505056fea2646970667358221220b238714edc3dbeaf008be12b3aca1685de2ffe8bd104d8f4a8a2022d8f90eecd64736f6c634300081a0033",
					"opcodes": "PUSH1 0x80 PUSH1 0x40 MSTORE CALLVALUE DUP1 ISZERO PUSH1 0xE JUMPI PUSH0 DUP1 REVERT JUMPDEST POP PUSH2 0x814 DUP1 PUSH2 0x1C PUSH0 CODECOPY PUSH0 RETURN INVALID PUSH1 0x80 PUSH1 0x40 MSTORE CALLVALUE DUP1 ISZERO PUSH2 0xF JUMPI PUSH0 DUP1 REVERT JUMPDEST POP PUSH1 0x4 CALLDATASIZE LT PUSH2 0x3F JUMPI PUSH0 CALLDATALOAD PUSH1 0xE0 SHR DUP1 PUSH4 0x1D8D4176 EQ PUSH2 0x43 JUMPI DUP1 PUSH4 0x52B65AD0 EQ PUSH2 0x73 JUMPI DUP1 PUSH4 0x605B5F4E EQ PUSH2 0x8F JUMPI JUMPDEST PUSH0 DUP1 REVERT JUMPDEST PUSH2 0x5D PUSH1 0x4 DUP1 CALLDATASIZE SUB DUP2 ADD SWAP1 PUSH2 0x58 SWAP2 SWAP1 PUSH2 0x5FA JUMP JUMPDEST PUSH2 0xBF JUMP JUMPDEST PUSH1 0x40 MLOAD PUSH2 0x6A SWAP2 SWAP1 PUSH2 0x650 JUMP JUMPDEST PUSH1 0x40 MLOAD DUP1 SWAP2 SUB SWAP1 RETURN JUMPDEST PUSH2 0x8D PUSH1 0x4 DUP1 CALLDATASIZE SUB DUP2 ADD SWAP1 PUSH2 0x88 SWAP2 SWAP1 PUSH2 0x693 JUMP JUMPDEST PUSH2 0xDE JUMP JUMPDEST STOP JUMPDEST PUSH2 0xA9 PUSH1 0x4 DUP1 CALLDATASIZE SUB DUP2 ADD SWAP1 PUSH2 0xA4 SWAP2 SWAP1 PUSH2 0x6E3 JUMP JUMPDEST PUSH2 0x56C JUMP JUMPDEST PUSH1 0x40 MLOAD PUSH2 0xB6 SWAP2 SWAP1 PUSH2 0x71D JUMP JUMPDEST PUSH1 0x40 MLOAD DUP1 SWAP2 SUB SWAP1 RETURN JUMPDEST PUSH0 PUSH1 0x20 MSTORE DUP2 PUSH0 MSTORE PUSH1 0x40 PUSH0 KECCAK256 PUSH1 0x20 MSTORE DUP1 PUSH0 MSTORE PUSH1 0x40 PUSH0 KECCAK256 PUSH0 SWAP2 POP SWAP2 POP POP SLOAD DUP2 JUMP JUMPDEST CALLER PUSH20 0xFFFFFFFFFFFFFFFFFFFFFFFFFFFFFFFFFFFFFFFF AND PUSH1 0x1 PUSH0 DUP6 PUSH20 0xFFFFFFFFFFFFFFFFFFFFFFFFFFFFFFFFFFFFFFFF AND PUSH20 0xFFFFFFFFFFFFFFFFFFFFFFFFFFFFFFFFFFFFFFFF AND DUP2 MSTORE PUSH1 0x20 ADD SWAP1 DUP2 MSTORE PUSH1 0x20 ADD PUSH0 KECCAK256 PUSH0 SWAP1 SLOAD SWAP1 PUSH2 0x100 EXP SWAP1 DIV PUSH20 0xFFFFFFFFFFFFFFFFFFFFFFFFFFFFFFFFFFFFFFFF AND PUSH20 0xFFFFFFFFFFFFFFFFFFFFFFFFFFFFFFFFFFFFFFFF AND SUB PUSH2 0x298 JUMPI PUSH32 0xFFFFFFFFFFFFFFFFFFFFFFFFFFFFFFFFFFFFFFFFFFFFFFFFFFFFFFFFFFFFFFFF PUSH0 DUP1 DUP6 PUSH20 0xFFFFFFFFFFFFFFFFFFFFFFFFFFFFFFFFFFFFFFFF AND PUSH20 0xFFFFFFFFFFFFFFFFFFFFFFFFFFFFFFFFFFFFFFFF AND DUP2 MSTORE PUSH1 0x20 ADD SWAP1 DUP2 MSTORE PUSH1 0x20 ADD PUSH0 KECCAK256 PUSH0 CALLER PUSH20 0xFFFFFFFFFFFFFFFFFFFFFFFFFFFFFFFFFFFFFFFF AND PUSH20 0xFFFFFFFFFFFFFFFFFFFFFFFFFFFFFFFFFFFFFFFF AND DUP2 MSTORE PUSH1 0x20 ADD SWAP1 DUP2 MSTORE PUSH1 0x20 ADD PUSH0 KECCAK256 DUP2 SWAP1 SSTORE POP DUP3 PUSH20 0xFFFFFFFFFFFFFFFFFFFFFFFFFFFFFFFFFFFFFFFF AND CALLER PUSH20 0xFFFFFFFFFFFFFFFFFFFFFFFFFFFFFFFFFFFFFFFF AND PUSH32 0x2CA21B65E3CCC37DD743B538848CA36739E5A8E5D8CFB36C08CCF9BFF7F89577 CALLER PUSH32 0xFFFFFFFFFFFFFFFFFFFFFFFFFFFFFFFFFFFFFFFFFFFFFFFFFFFFFFFFFFFFFFFF PUSH1 0x1 PUSH1 0x40 MLOAD PUSH2 0x28B SWAP4 SWAP3 SWAP2 SWAP1 PUSH2 0x7A9 JUMP JUMPDEST PUSH1 0x40 MLOAD DUP1 SWAP2 SUB SWAP1 LOG3 PUSH2 0x567 JUMP JUMPDEST DUP1 PUSH0 DUP1 DUP6 PUSH20 0xFFFFFFFFFFFFFFFFFFFFFFFFFFFFFFFFFFFFFFFF AND PUSH20 0xFFFFFFFFFFFFFFFFFFFFFFFFFFFFFFFFFFFFFFFF AND DUP2 MSTORE PUSH1 0x20 ADD SWAP1 DUP2 MSTORE PUSH1 0x20 ADD PUSH0 KECCAK256 PUSH0 CALLER PUSH20 0xFFFFFFFFFFFFFFFFFFFFFFFFFFFFFFFFFFFFFFFF AND PUSH20 0xFFFFFFFFFFFFFFFFFFFFFFFFFFFFFFFFFFFFFFFF AND DUP2 MSTORE PUSH1 0x20 ADD SWAP1 DUP2 MSTORE PUSH1 0x20 ADD PUSH0 KECCAK256 DUP2 SWAP1 SSTORE POP PUSH0 PUSH20 0xFFFFFFFFFFFFFFFFFFFFFFFFFFFFFFFFFFFFFFFF AND PUSH1 0x1 PUSH0 DUP6 PUSH20 0xFFFFFFFFFFFFFFFFFFFFFFFFFFFFFFFFFFFFFFFF AND PUSH20 0xFFFFFFFFFFFFFFFFFFFFFFFFFFFFFFFFFFFFFFFF AND DUP2 MSTORE PUSH1 0x20 ADD SWAP1 DUP2 MSTORE PUSH1 0x20 ADD PUSH0 KECCAK256 PUSH0 SWAP1 SLOAD SWAP1 PUSH2 0x100 EXP SWAP1 DIV PUSH20 0xFFFFFFFFFFFFFFFFFFFFFFFFFFFFFFFFFFFFFFFF AND PUSH20 0xFFFFFFFFFFFFFFFFFFFFFFFFFFFFFFFFFFFFFFFF AND EQ DUP1 PUSH2 0x47C JUMPI POP PUSH0 DUP1 DUP5 PUSH20 0xFFFFFFFFFFFFFFFFFFFFFFFFFFFFFFFFFFFFFFFF AND PUSH20 0xFFFFFFFFFFFFFFFFFFFFFFFFFFFFFFFFFFFFFFFF AND DUP2 MSTORE PUSH1 0x20 ADD SWAP1 DUP2 MSTORE PUSH1 0x20 ADD PUSH0 KECCAK256 PUSH0 PUSH1 0x1 PUSH0 DUP7 PUSH20 0xFFFFFFFFFFFFFFFFFFFFFFFFFFFFFFFFFFFFFFFF AND PUSH20 0xFFFFFFFFFFFFFFFFFFFFFFFFFFFFFFFFFFFFFFFF AND DUP2 MSTORE PUSH1 0x20 ADD SWAP1 DUP2 MSTORE PUSH1 0x20 ADD PUSH0 KECCAK256 PUSH0 SWAP1 SLOAD SWAP1 PUSH2 0x100 EXP SWAP1 DIV PUSH20 0xFFFFFFFFFFFFFFFFFFFFFFFFFFFFFFFFFFFFFFFF AND PUSH20 0xFFFFFFFFFFFFFFFFFFFFFFFFFFFFFFFFFFFFFFFF AND PUSH20 0xFFFFFFFFFFFFFFFFFFFFFFFFFFFFFFFFFFFFFFFF AND DUP2 MSTORE PUSH1 0x20 ADD SWAP1 DUP2 MSTORE PUSH1 0x20 ADD PUSH0 KECCAK256 SLOAD DUP2 LT JUMPDEST ISZERO PUSH2 0x4FD JUMPI CALLER PUSH1 0x1 PUSH0 DUP6 PUSH20 0xFFFFFFFFFFFFFFFFFFFFFFFFFFFFFFFFFFFFFFFF AND PUSH20 0xFFFFFFFFFFFFFFFFFFFFFFFFFFFFFFFFFFFFFFFF AND DUP2 MSTORE PUSH1 0x20 ADD SWAP1 DUP2 MSTORE PUSH1 0x20 ADD PUSH0 KECCAK256 PUSH0 PUSH2 0x100 EXP DUP2 SLOAD DUP2 PUSH20 0xFFFFFFFFFFFFFFFFFFFFFFFFFFFFFFFFFFFFFFFF MUL NOT AND SWAP1 DUP4 PUSH20 0xFFFFFFFFFFFFFFFFFFFFFFFFFFFFFFFFFFFFFFFF AND MUL OR SWAP1 SSTORE POP JUMPDEST DUP3 PUSH20 0xFFFFFFFFFFFFFFFFFFFFFFFFFFFFFFFFFFFFFFFF AND CALLER PUSH20 0xFFFFFFFFFFFFFFFFFFFFFFFFFFFFFFFFFFFFFFFF AND PUSH32 0x2CA21B65E3CCC37DD743B538848CA36739E5A8E5D8CFB36C08CCF9BFF7F89577 CALLER DUP5 PUSH0 PUSH1 0x40 MLOAD PUSH2 0x55E SWAP4 SWAP3 SWAP2 SWAP1 PUSH2 0x7A9 JUMP JUMPDEST PUSH1 0x40 MLOAD DUP1 SWAP2 SUB SWAP1 LOG3 JUMPDEST POP POP POP JUMP JUMPDEST PUSH1 0x1 PUSH1 0x20 MSTORE DUP1 PUSH0 MSTORE PUSH1 0x40 PUSH0 KECCAK256 PUSH0 SWAP2 POP SLOAD SWAP1 PUSH2 0x100 EXP SWAP1 DIV PUSH20 0xFFFFFFFFFFFFFFFFFFFFFFFFFFFFFFFFFFFFFFFF AND DUP2 JUMP JUMPDEST PUSH0 DUP1 REVERT JUMPDEST PUSH0 PUSH20 0xFFFFFFFFFFFFFFFFFFFFFFFFFFFFFFFFFFFFFFFF DUP3 AND SWAP1 POP SWAP2 SWAP1 POP JUMP JUMPDEST PUSH0 PUSH2 0x5C9 DUP3 PUSH2 0x5A0 JUMP JUMPDEST SWAP1 POP SWAP2 SWAP1 POP JUMP JUMPDEST PUSH2 0x5D9 DUP2 PUSH2 0x5BF JUMP JUMPDEST DUP2 EQ PUSH2 0x5E3 JUMPI PUSH0 DUP1 REVERT JUMPDEST POP JUMP JUMPDEST PUSH0 DUP2 CALLDATALOAD SWAP1 POP PUSH2 0x5F4 DUP2 PUSH2 0x5D0 JUMP JUMPDEST SWAP3 SWAP2 POP POP JUMP JUMPDEST PUSH0 DUP1 PUSH1 0x40 DUP4 DUP6 SUB SLT ISZERO PUSH2 0x610 JUMPI PUSH2 0x60F PUSH2 0x59C JUMP JUMPDEST JUMPDEST PUSH0 PUSH2 0x61D DUP6 DUP3 DUP7 ADD PUSH2 0x5E6 JUMP JUMPDEST SWAP3 POP POP PUSH1 0x20 PUSH2 0x62E DUP6 DUP3 DUP7 ADD PUSH2 0x5E6 JUMP JUMPDEST SWAP2 POP POP SWAP3 POP SWAP3 SWAP1 POP JUMP JUMPDEST PUSH0 DUP2 SWAP1 POP SWAP2 SWAP1 POP JUMP JUMPDEST PUSH2 0x64A DUP2 PUSH2 0x638 JUMP JUMPDEST DUP3 MSTORE POP POP JUMP JUMPDEST PUSH0 PUSH1 0x20 DUP3 ADD SWAP1 POP PUSH2 0x663 PUSH0 DUP4 ADD DUP5 PUSH2 0x641 JUMP JUMPDEST SWAP3 SWAP2 POP POP JUMP JUMPDEST PUSH2 0x672 DUP2 PUSH2 0x638 JUMP JUMPDEST DUP2 EQ PUSH2 0x67C JUMPI PUSH0 DUP1 REVERT JUMPDEST POP JUMP JUMPDEST PUSH0 DUP2 CALLDATALOAD SWAP1 POP PUSH2 0x68D DUP2 PUSH2 0x669 JUMP JUMPDEST SWAP3 SWAP2 POP POP JUMP JUMPDEST PUSH0 DUP1 PUSH0 PUSH1 0x60 DUP5 DUP7 SUB SLT ISZERO PUSH2 0x6AA JUMPI PUSH2 0x6A9 PUSH2 0x59C JUMP JUMPDEST JUMPDEST PUSH0 PUSH2 0x6B7 DUP7 DUP3 DUP8 ADD PUSH2 0x5E6 JUMP JUMPDEST SWAP4 POP POP PUSH1 0x20 PUSH2 0x6C8 DUP7 DUP3 DUP8 ADD PUSH2 0x5E6 JUMP JUMPDEST SWAP3 POP POP PUSH1 0x40 PUSH2 0x6D9 DUP7 DUP3 DUP8 ADD PUSH2 0x67F JUMP JUMPDEST SWAP2 POP POP SWAP3 POP SWAP3 POP SWAP3 JUMP JUMPDEST PUSH0 PUSH1 0x20 DUP3 DUP5 SUB SLT ISZERO PUSH2 0x6F8 JUMPI PUSH2 0x6F7 PUSH2 0x59C JUMP JUMPDEST JUMPDEST PUSH0 PUSH2 0x705 DUP5 DUP3 DUP6 ADD PUSH2 0x5E6 JUMP JUMPDEST SWAP2 POP POP SWAP3 SWAP2 POP POP JUMP JUMPDEST PUSH2 0x717 DUP2 PUSH2 0x5BF JUMP JUMPDEST DUP3 MSTORE POP POP JUMP JUMPDEST PUSH0 PUSH1 0x20 DUP3 ADD SWAP1 POP PUSH2 0x730 PUSH0 DUP4 ADD DUP5 PUSH2 0x70E JUMP JUMPDEST SWAP3 SWAP2 POP POP JUMP JUMPDEST PUSH32 0x4E487B7100000000000000000000000000000000000000000000000000000000 PUSH0 MSTORE PUSH1 0x21 PUSH1 0x4 MSTORE PUSH1 0x24 PUSH0 REVERT JUMPDEST PUSH1 0x4 DUP2 LT PUSH2 0x774 JUMPI PUSH2 0x773 PUSH2 0x736 JUMP JUMPDEST JUMPDEST POP JUMP JUMPDEST PUSH0 DUP2 SWAP1 POP PUSH2 0x784 DUP3 PUSH2 0x763 JUMP JUMPDEST SWAP2 SWAP1 POP JUMP JUMPDEST PUSH0 PUSH2 0x793 DUP3 PUSH2 0x777 JUMP JUMPDEST SWAP1 POP SWAP2 SWAP1 POP JUMP JUMPDEST PUSH2 0x7A3 DUP2 PUSH2 0x789 JUMP JUMPDEST DUP3 MSTORE POP POP JUMP JUMPDEST PUSH0 PUSH1 0x60 DUP3 ADD SWAP1 POP PUSH2 0x7BC PUSH0 DUP4 ADD DUP7 PUSH2 0x70E JUMP JUMPDEST PUSH2 0x7C9 PUSH1 0x20 DUP4 ADD DUP6 PUSH2 0x641 JUMP JUMPDEST PUSH2 0x7D6 PUSH1 0x40 DUP4 ADD DUP5 PUSH2 0x79A JUMP JUMPDEST SWAP5 SWAP4 POP POP POP POP JUMP INVALID LOG2 PUSH5 0x6970667358 0x22 SLT KECCAK256 0xB2 CODESIZE PUSH18 0x4EDC3DBEAF008BE12B3ACA1685DE2FFE8BD1 DIV 0xD8 DELEGATECALL 0xA8 LOG2 MUL 0x2D DUP16 SWAP1 0xEE 0xCD PUSH5 0x736F6C6343 STOP ADDMOD BYTE STOP CALLER "
				},
				"gasEstimates": {
					"creation": {
						"codeDepositCost": "413600",
						"executionCost": "447",
						"totalCost": "414047"
					},
					"external": {
						"bestHop(address)": "infinite",
						"table(address,address)": "infinite",
						"updateRoute(address,address,uint256)": "infinite"
					}
				},
				"methodIdentifiers": {
					"bestHop(address)": "605b5f4e",
					"table(address,address)": "1d8d4176",
					"updateRoute(address,address,uint256)": "52b65ad0"
				}
			},
			"storageLayout": {
				"storage": [
					{
						"astId": 166,
						"contract": "D/Distance Vector/Distance Vector.sol:DistanceVectorSafe",
						"label": "table",
						"offset": 0,
						"slot": "0",
						"type": "t_mapping(t_address,t_mapping(t_address,t_uint256))"
					},
					{
						"astId": 170,
						"contract": "D/Distance Vector/Distance Vector.sol:DistanceVectorSafe",
						"label": "bestHop",
						"offset": 0,
						"slot": "1",
						"type": "t_mapping(t_address,t_address)"
					}
				],
				"types": {
					"t_address": {
						"encoding": "inplace",
						"label": "address",
						"numberOfBytes": "20"
					},
					"t_mapping(t_address,t_address)": {
						"encoding": "mapping",
						"key": "t_address",
						"label": "mapping(address => address)",
						"numberOfBytes": "32",
						"value": "t_address"
					},
					"t_mapping(t_address,t_mapping(t_address,t_uint256))": {
						"encoding": "mapping",
						"key": "t_address",
						"label": "mapping(address => mapping(address => uint256))",
						"numberOfBytes": "32",
						"value": "t_mapping(t_address,t_uint256)"
					},
					"t_mapping(t_address,t_uint256)": {
						"encoding": "mapping",
						"key": "t_address",
						"label": "mapping(address => uint256)",
						"numberOfBytes": "32",
						"value": "t_uint256"
					},
					"t_uint256": {
						"encoding": "inplace",
						"label": "uint256",
						"numberOfBytes": "32"
					}
				}
			},
			"userdoc": {
				"kind": "user",
				"methods": {
					"updateRoute(address,address,uint256)": {
						"notice": "✅ SplitHorizon + PoisonReverse"
					}
				},
				"notice": "───────────────────────────────────────────────────────────────────────────── 3) SAFE DISTANCE VECTOR WITH SPLIT‑HORIZON + POISON‑REVERSE    • Defense: SplitHorizon – ignore updates for routes learned via the sender                 PoisonReverse – advertise infinite metric back to neighbor ─────────────────────────────────────────────────────────────────────────────",
				"version": 1
			}
		}
	}
}