{
	"D/Distance Vector/Distance Vector.sol": {
		"DistanceVectorSafeAdvanced": {
			"abi": [
				{
					"inputs": [],
					"stateMutability": "nonpayable",
					"type": "constructor"
				},
				{
					"inputs": [],
					"name": "DV__NotNeighbor",
					"type": "error"
				},
				{
					"inputs": [],
					"name": "DV__TooFrequent",
					"type": "error"
				},
				{
					"anonymous": false,
					"inputs": [
						{
							"indexed": true,
							"internalType": "address",
							"name": "from",
							"type": "address"
						},
						{
							"indexed": true,
							"internalType": "address",
							"name": "dest",
							"type": "address"
						},
						{
							"indexed": false,
							"internalType": "address",
							"name": "nextHop",
							"type": "address"
						},
						{
							"indexed": false,
							"internalType": "uint256",
							"name": "metric",
							"type": "uint256"
						},
						{
							"indexed": false,
							"internalType": "enum DistanceVectorDefenseType",
							"name": "defense",
							"type": "uint8"
						}
					],
					"name": "RouteUpdated",
					"type": "event"
				},
				{
					"inputs": [],
					"name": "HOLD_DOWN_BLOCKS",
					"outputs": [
						{
							"internalType": "uint256",
							"name": "",
							"type": "uint256"
						}
					],
					"stateMutability": "view",
					"type": "function"
				},
				{
					"inputs": [
						{
							"internalType": "address",
							"name": "",
							"type": "address"
						}
					],
					"name": "bestHop",
					"outputs": [
						{
							"internalType": "address",
							"name": "",
							"type": "address"
						}
					],
					"stateMutability": "view",
					"type": "function"
				},
				{
					"inputs": [
						{
							"internalType": "address",
							"name": "dest",
							"type": "address"
						}
					],
					"name": "getRoute",
					"outputs": [
						{
							"internalType": "address",
							"name": "nextHop",
							"type": "address"
						},
						{
							"internalType": "uint256",
							"name": "metric",
							"type": "uint256"
						}
					],
					"stateMutability": "view",
					"type": "function"
				},
				{
					"inputs": [
						{
							"internalType": "address",
							"name": "",
							"type": "address"
						}
					],
					"name": "lastUpdateBlock",
					"outputs": [
						{
							"internalType": "uint256",
							"name": "",
							"type": "uint256"
						}
					],
					"stateMutability": "view",
					"type": "function"
				},
				{
					"inputs": [
						{
							"internalType": "address",
							"name": "",
							"type": "address"
						}
					],
					"name": "neighbors",
					"outputs": [
						{
							"internalType": "bool",
							"name": "",
							"type": "bool"
						}
					],
					"stateMutability": "view",
					"type": "function"
				},
				{
					"inputs": [],
					"name": "owner",
					"outputs": [
						{
							"internalType": "address",
							"name": "",
							"type": "address"
						}
					],
					"stateMutability": "view",
					"type": "function"
				},
				{
					"inputs": [
						{
							"internalType": "address",
							"name": "who",
							"type": "address"
						},
						{
							"internalType": "bool",
							"name": "ok",
							"type": "bool"
						}
					],
					"name": "setNeighbor",
					"outputs": [],
					"stateMutability": "nonpayable",
					"type": "function"
				},
				{
					"inputs": [
						{
							"internalType": "address",
							"name": "",
							"type": "address"
						},
						{
							"internalType": "address",
							"name": "",
							"type": "address"
						}
					],
					"name": "table",
					"outputs": [
						{
							"internalType": "uint256",
							"name": "",
							"type": "uint256"
						}
					],
					"stateMutability": "view",
					"type": "function"
				},
				{
					"inputs": [
						{
							"internalType": "address",
							"name": "dest",
							"type": "address"
						},
						{
							"internalType": "uint256",
							"name": "metric",
							"type": "uint256"
						}
					],
					"name": "updateRoute",
					"outputs": [],
					"stateMutability": "nonpayable",
					"type": "function"
				}
			],
			"devdoc": {
				"kind": "dev",
				"methods": {},
				"version": 1
			},
			"evm": {
				"assembly": "    /* \"D/Distance Vector/Distance Vector.sol\":5849:7572  contract DistanceVectorSafeAdvanced {... */\n  mstore(0x40, 0x80)\n    /* \"D/Distance Vector/Distance Vector.sol\":6445:6494  constructor() {... */\n  callvalue\n  dup1\n  iszero\n  tag_1\n  jumpi\n  0x00\n  dup1\n  revert\ntag_1:\n  pop\n    /* \"D/Distance Vector/Distance Vector.sol\":6477:6487  msg.sender */\n  caller\n    /* \"D/Distance Vector/Distance Vector.sol\":6469:6474  owner */\n  0x00\n  dup1\n    /* \"D/Distance Vector/Distance Vector.sol\":6469:6487  owner = msg.sender */\n  0x0100\n  exp\n  dup2\n  sload\n  dup2\n  0xffffffffffffffffffffffffffffffffffffffff\n  mul\n  not\n  and\n  swap1\n  dup4\n  0xffffffffffffffffffffffffffffffffffffffff\n  and\n  mul\n  or\n  swap1\n  sstore\n  pop\n    /* \"D/Distance Vector/Distance Vector.sol\":5849:7572  contract DistanceVectorSafeAdvanced {... */\n  dataSize(sub_0)\n  dup1\n  dataOffset(sub_0)\n  0x00\n  codecopy\n  0x00\n  return\nstop\n\nsub_0: assembly {\n        /* \"D/Distance Vector/Distance Vector.sol\":5849:7572  contract DistanceVectorSafeAdvanced {... */\n      mstore(0x40, 0x80)\n      callvalue\n      dup1\n      iszero\n      tag_1\n      jumpi\n      0x00\n      dup1\n      revert\n    tag_1:\n      pop\n      jumpi(tag_2, lt(calldatasize, 0x04))\n      shr(0xe0, calldataload(0x00))\n      dup1\n      0x481fd65c\n      gt\n      tag_12\n      jumpi\n      dup1\n      0x481fd65c\n      eq\n      tag_7\n      jumpi\n      dup1\n      0x605b5f4e\n      eq\n      tag_8\n      jumpi\n      dup1\n      0x8c5a110f\n      eq\n      tag_9\n      jumpi\n      dup1\n      0x8da5cb5b\n      eq\n      tag_10\n      jumpi\n      dup1\n      0xd5621bff\n      eq\n      tag_11\n      jumpi\n      jump(tag_2)\n    tag_12:\n      dup1\n      0x1d8d4176\n      eq\n      tag_3\n      jumpi\n      dup1\n      0x2f499378\n      eq\n      tag_4\n      jumpi\n      dup1\n      0x32a8aa67\n      eq\n      tag_5\n      jumpi\n      dup1\n      0x3a182a9d\n      eq\n      tag_6\n      jumpi\n    tag_2:\n      0x00\n      dup1\n      revert\n        /* \"D/Distance Vector/Distance Vector.sol\":6033:6093  mapping(address => mapping(address => uint256)) public table */\n    tag_3:\n      tag_13\n      0x04\n      dup1\n      calldatasize\n      sub\n      dup2\n      add\n      swap1\n      tag_14\n      swap2\n      swap1\n      tag_15\n      jump\t// in\n    tag_14:\n      tag_16\n      jump\t// in\n    tag_13:\n      mload(0x40)\n      tag_17\n      swap2\n      swap1\n      tag_18\n      jump\t// in\n    tag_17:\n      mload(0x40)\n      dup1\n      swap2\n      sub\n      swap1\n      return\n        /* \"D/Distance Vector/Distance Vector.sol\":6540:6680  function setNeighbor(address who, bool ok) external {... */\n    tag_4:\n      tag_19\n      0x04\n      dup1\n      calldatasize\n      sub\n      dup2\n      add\n      swap1\n      tag_20\n      swap2\n      swap1\n      tag_21\n      jump\t// in\n    tag_20:\n      tag_22\n      jump\t// in\n    tag_19:\n      stop\n        /* \"D/Distance Vector/Distance Vector.sol\":5972:6027  mapping(address => uint256)      public lastUpdateBlock */\n    tag_5:\n      tag_23\n      0x04\n      dup1\n      calldatasize\n      sub\n      dup2\n      add\n      swap1\n      tag_24\n      swap2\n      swap1\n      tag_25\n      jump\t// in\n    tag_24:\n      tag_26\n      jump\t// in\n    tag_23:\n      mload(0x40)\n      tag_27\n      swap2\n      swap1\n      tag_18\n      jump\t// in\n    tag_27:\n      mload(0x40)\n      dup1\n      swap2\n      sub\n      swap1\n      return\n        /* \"D/Distance Vector/Distance Vector.sol\":5917:5966  mapping(address => bool)         public neighbors */\n    tag_6:\n      tag_28\n      0x04\n      dup1\n      calldatasize\n      sub\n      dup2\n      add\n      swap1\n      tag_29\n      swap2\n      swap1\n      tag_25\n      jump\t// in\n    tag_29:\n      tag_30\n      jump\t// in\n    tag_28:\n      mload(0x40)\n      tag_31\n      swap2\n      swap1\n      tag_32\n      jump\t// in\n    tag_31:\n      mload(0x40)\n      dup1\n      swap2\n      sub\n      swap1\n      return\n        /* \"D/Distance Vector/Distance Vector.sol\":7403:7570  function getRoute(address dest) external view returns (address nextHop, uint256 metric) {... */\n    tag_7:\n      tag_33\n      0x04\n      dup1\n      calldatasize\n      sub\n      dup2\n      add\n      swap1\n      tag_34\n      swap2\n      swap1\n      tag_25\n      jump\t// in\n    tag_34:\n      tag_35\n      jump\t// in\n    tag_33:\n      mload(0x40)\n      tag_36\n      swap3\n      swap2\n      swap1\n      tag_37\n      jump\t// in\n    tag_36:\n      mload(0x40)\n      dup1\n      swap2\n      sub\n      swap1\n      return\n        /* \"D/Distance Vector/Distance Vector.sol\":6099:6146  mapping(address => address)      public bestHop */\n    tag_8:\n      tag_38\n      0x04\n      dup1\n      calldatasize\n      sub\n      dup2\n      add\n      swap1\n      tag_39\n      swap2\n      swap1\n      tag_25\n      jump\t// in\n    tag_39:\n      tag_40\n      jump\t// in\n    tag_38:\n      mload(0x40)\n      tag_41\n      swap2\n      swap1\n      tag_42\n      jump\t// in\n    tag_41:\n      mload(0x40)\n      dup1\n      swap2\n      sub\n      swap1\n      return\n        /* \"D/Distance Vector/Distance Vector.sol\":6152:6196  uint256 public constant HOLD_DOWN_BLOCKS = 5 */\n    tag_9:\n      tag_43\n      tag_44\n      jump\t// in\n    tag_43:\n      mload(0x40)\n      tag_45\n      swap2\n      swap1\n      tag_18\n      jump\t// in\n    tag_45:\n      mload(0x40)\n      dup1\n      swap2\n      sub\n      swap1\n      return\n        /* \"D/Distance Vector/Distance Vector.sol\":5891:5911  address public owner */\n    tag_10:\n      tag_46\n      tag_47\n      jump\t// in\n    tag_46:\n      mload(0x40)\n      tag_48\n      swap2\n      swap1\n      tag_42\n      jump\t// in\n    tag_48:\n      mload(0x40)\n      dup1\n      swap2\n      sub\n      swap1\n      return\n        /* \"D/Distance Vector/Distance Vector.sol\":6747:7340  function updateRoute(address dest, uint256 metric) external {... */\n    tag_11:\n      tag_49\n      0x04\n      dup1\n      calldatasize\n      sub\n      dup2\n      add\n      swap1\n      tag_50\n      swap2\n      swap1\n      tag_51\n      jump\t// in\n    tag_50:\n      tag_52\n      jump\t// in\n    tag_49:\n      stop\n        /* \"D/Distance Vector/Distance Vector.sol\":6033:6093  mapping(address => mapping(address => uint256)) public table */\n    tag_16:\n      mstore(0x20, 0x03)\n      dup2\n      0x00\n      mstore\n      mstore(0x20, keccak256(0x00, 0x40))\n      dup1\n      0x00\n      mstore\n      keccak256(0x00, 0x40)\n      0x00\n      swap2\n      pop\n      swap2\n      pop\n      pop\n      sload\n      dup2\n      jump\t// out\n        /* \"D/Distance Vector/Distance Vector.sol\":6540:6680  function setNeighbor(address who, bool ok) external {... */\n    tag_22:\n        /* \"D/Distance Vector/Distance Vector.sol\":6624:6629  owner */\n      0x00\n      dup1\n      sload\n      swap1\n      0x0100\n      exp\n      swap1\n      div\n      0xffffffffffffffffffffffffffffffffffffffff\n      and\n        /* \"D/Distance Vector/Distance Vector.sol\":6610:6629  msg.sender == owner */\n      0xffffffffffffffffffffffffffffffffffffffff\n      and\n        /* \"D/Distance Vector/Distance Vector.sol\":6610:6620  msg.sender */\n      caller\n        /* \"D/Distance Vector/Distance Vector.sol\":6610:6629  msg.sender == owner */\n      0xffffffffffffffffffffffffffffffffffffffff\n      and\n      eq\n        /* \"D/Distance Vector/Distance Vector.sol\":6602:6644  require(msg.sender == owner, \"only owner\") */\n      tag_54\n      jumpi\n      mload(0x40)\n      0x08c379a000000000000000000000000000000000000000000000000000000000\n      dup2\n      mstore\n      0x04\n      add\n      tag_55\n      swap1\n      tag_56\n      jump\t// in\n    tag_55:\n      mload(0x40)\n      dup1\n      swap2\n      sub\n      swap1\n      revert\n    tag_54:\n        /* \"D/Distance Vector/Distance Vector.sol\":6671:6673  ok */\n      dup1\n        /* \"D/Distance Vector/Distance Vector.sol\":6654:6663  neighbors */\n      0x01\n        /* \"D/Distance Vector/Distance Vector.sol\":6654:6668  neighbors[who] */\n      0x00\n        /* \"D/Distance Vector/Distance Vector.sol\":6664:6667  who */\n      dup5\n        /* \"D/Distance Vector/Distance Vector.sol\":6654:6668  neighbors[who] */\n      0xffffffffffffffffffffffffffffffffffffffff\n      and\n      0xffffffffffffffffffffffffffffffffffffffff\n      and\n      dup2\n      mstore\n      0x20\n      add\n      swap1\n      dup2\n      mstore\n      0x20\n      add\n      0x00\n      keccak256\n      0x00\n        /* \"D/Distance Vector/Distance Vector.sol\":6654:6673  neighbors[who] = ok */\n      0x0100\n      exp\n      dup2\n      sload\n      dup2\n      0xff\n      mul\n      not\n      and\n      swap1\n      dup4\n      iszero\n      iszero\n      mul\n      or\n      swap1\n      sstore\n      pop\n        /* \"D/Distance Vector/Distance Vector.sol\":6540:6680  function setNeighbor(address who, bool ok) external {... */\n      pop\n      pop\n      jump\t// out\n        /* \"D/Distance Vector/Distance Vector.sol\":5972:6027  mapping(address => uint256)      public lastUpdateBlock */\n    tag_26:\n      mstore(0x20, 0x02)\n      dup1\n      0x00\n      mstore\n      keccak256(0x00, 0x40)\n      0x00\n      swap2\n      pop\n      swap1\n      pop\n      sload\n      dup2\n      jump\t// out\n        /* \"D/Distance Vector/Distance Vector.sol\":5917:5966  mapping(address => bool)         public neighbors */\n    tag_30:\n      mstore(0x20, 0x01)\n      dup1\n      0x00\n      mstore\n      keccak256(0x00, 0x40)\n      0x00\n      swap2\n      pop\n      sload\n      swap1\n      0x0100\n      exp\n      swap1\n      div\n      0xff\n      and\n      dup2\n      jump\t// out\n        /* \"D/Distance Vector/Distance Vector.sol\":7403:7570  function getRoute(address dest) external view returns (address nextHop, uint256 metric) {... */\n    tag_35:\n        /* \"D/Distance Vector/Distance Vector.sol\":7458:7473  address nextHop */\n      0x00\n        /* \"D/Distance Vector/Distance Vector.sol\":7475:7489  uint256 metric */\n      dup1\n        /* \"D/Distance Vector/Distance Vector.sol\":7511:7518  bestHop */\n      0x04\n        /* \"D/Distance Vector/Distance Vector.sol\":7511:7524  bestHop[dest] */\n      0x00\n        /* \"D/Distance Vector/Distance Vector.sol\":7519:7523  dest */\n      dup5\n        /* \"D/Distance Vector/Distance Vector.sol\":7511:7524  bestHop[dest] */\n      0xffffffffffffffffffffffffffffffffffffffff\n      and\n      0xffffffffffffffffffffffffffffffffffffffff\n      and\n      dup2\n      mstore\n      0x20\n      add\n      swap1\n      dup2\n      mstore\n      0x20\n      add\n      0x00\n      keccak256\n      0x00\n      swap1\n      sload\n      swap1\n      0x0100\n      exp\n      swap1\n      div\n      0xffffffffffffffffffffffffffffffffffffffff\n      and\n        /* \"D/Distance Vector/Distance Vector.sol\":7501:7524  nextHop = bestHop[dest] */\n      swap2\n      pop\n        /* \"D/Distance Vector/Distance Vector.sol\":7543:7548  table */\n      0x03\n        /* \"D/Distance Vector/Distance Vector.sol\":7543:7554  table[dest] */\n      0x00\n        /* \"D/Distance Vector/Distance Vector.sol\":7549:7553  dest */\n      dup5\n        /* \"D/Distance Vector/Distance Vector.sol\":7543:7554  table[dest] */\n      0xffffffffffffffffffffffffffffffffffffffff\n      and\n      0xffffffffffffffffffffffffffffffffffffffff\n      and\n      dup2\n      mstore\n      0x20\n      add\n      swap1\n      dup2\n      mstore\n      0x20\n      add\n      0x00\n      keccak256\n        /* \"D/Distance Vector/Distance Vector.sol\":7543:7563  table[dest][nextHop] */\n      0x00\n        /* \"D/Distance Vector/Distance Vector.sol\":7555:7562  nextHop */\n      dup4\n        /* \"D/Distance Vector/Distance Vector.sol\":7543:7563  table[dest][nextHop] */\n      0xffffffffffffffffffffffffffffffffffffffff\n      and\n      0xffffffffffffffffffffffffffffffffffffffff\n      and\n      dup2\n      mstore\n      0x20\n      add\n      swap1\n      dup2\n      mstore\n      0x20\n      add\n      0x00\n      keccak256\n      sload\n        /* \"D/Distance Vector/Distance Vector.sol\":7534:7563  metric = table[dest][nextHop] */\n      swap1\n      pop\n        /* \"D/Distance Vector/Distance Vector.sol\":7403:7570  function getRoute(address dest) external view returns (address nextHop, uint256 metric) {... */\n      swap2\n      pop\n      swap2\n      jump\t// out\n        /* \"D/Distance Vector/Distance Vector.sol\":6099:6146  mapping(address => address)      public bestHop */\n    tag_40:\n      mstore(0x20, 0x04)\n      dup1\n      0x00\n      mstore\n      keccak256(0x00, 0x40)\n      0x00\n      swap2\n      pop\n      sload\n      swap1\n      0x0100\n      exp\n      swap1\n      div\n      0xffffffffffffffffffffffffffffffffffffffff\n      and\n      dup2\n      jump\t// out\n        /* \"D/Distance Vector/Distance Vector.sol\":6152:6196  uint256 public constant HOLD_DOWN_BLOCKS = 5 */\n    tag_44:\n        /* \"D/Distance Vector/Distance Vector.sol\":6195:6196  5 */\n      0x05\n        /* \"D/Distance Vector/Distance Vector.sol\":6152:6196  uint256 public constant HOLD_DOWN_BLOCKS = 5 */\n      dup2\n      jump\t// out\n        /* \"D/Distance Vector/Distance Vector.sol\":5891:5911  address public owner */\n    tag_47:\n      0x00\n      dup1\n      sload\n      swap1\n      0x0100\n      exp\n      swap1\n      div\n      0xffffffffffffffffffffffffffffffffffffffff\n      and\n      dup2\n      jump\t// out\n        /* \"D/Distance Vector/Distance Vector.sol\":6747:7340  function updateRoute(address dest, uint256 metric) external {... */\n    tag_52:\n        /* \"D/Distance Vector/Distance Vector.sol\":6822:6831  neighbors */\n      0x01\n        /* \"D/Distance Vector/Distance Vector.sol\":6822:6843  neighbors[msg.sender] */\n      0x00\n        /* \"D/Distance Vector/Distance Vector.sol\":6832:6842  msg.sender */\n      caller\n        /* \"D/Distance Vector/Distance Vector.sol\":6822:6843  neighbors[msg.sender] */\n      0xffffffffffffffffffffffffffffffffffffffff\n      and\n      0xffffffffffffffffffffffffffffffffffffffff\n      and\n      dup2\n      mstore\n      0x20\n      add\n      swap1\n      dup2\n      mstore\n      0x20\n      add\n      0x00\n      keccak256\n      0x00\n      swap1\n      sload\n      swap1\n      0x0100\n      exp\n      swap1\n      div\n      0xff\n      and\n        /* \"D/Distance Vector/Distance Vector.sol\":6817:6869  if (!neighbors[msg.sender]) revert DV__NotNeighbor() */\n      tag_59\n      jumpi\n        /* \"D/Distance Vector/Distance Vector.sol\":6852:6869  DV__NotNeighbor() */\n      mload(0x40)\n      0x61eb319100000000000000000000000000000000000000000000000000000000\n      dup2\n      mstore\n      0x04\n      add\n      mload(0x40)\n      dup1\n      swap2\n      sub\n      swap1\n      revert\n        /* \"D/Distance Vector/Distance Vector.sol\":6817:6869  if (!neighbors[msg.sender]) revert DV__NotNeighbor() */\n    tag_59:\n        /* \"D/Distance Vector/Distance Vector.sol\":6195:6196  5 */\n      0x05\n        /* \"D/Distance Vector/Distance Vector.sol\":6898:6913  lastUpdateBlock */\n      0x02\n        /* \"D/Distance Vector/Distance Vector.sol\":6898:6925  lastUpdateBlock[msg.sender] */\n      0x00\n        /* \"D/Distance Vector/Distance Vector.sol\":6914:6924  msg.sender */\n      caller\n        /* \"D/Distance Vector/Distance Vector.sol\":6898:6925  lastUpdateBlock[msg.sender] */\n      0xffffffffffffffffffffffffffffffffffffffff\n      and\n      0xffffffffffffffffffffffffffffffffffffffff\n      and\n      dup2\n      mstore\n      0x20\n      add\n      swap1\n      dup2\n      mstore\n      0x20\n      add\n      0x00\n      keccak256\n      sload\n        /* \"D/Distance Vector/Distance Vector.sol\":6898:6944  lastUpdateBlock[msg.sender] + HOLD_DOWN_BLOCKS */\n      tag_60\n      swap2\n      swap1\n      tag_61\n      jump\t// in\n    tag_60:\n        /* \"D/Distance Vector/Distance Vector.sol\":6883:6895  block.number */\n      number\n        /* \"D/Distance Vector/Distance Vector.sol\":6883:6944  block.number < lastUpdateBlock[msg.sender] + HOLD_DOWN_BLOCKS */\n      lt\n        /* \"D/Distance Vector/Distance Vector.sol\":6879:6970  if (block.number < lastUpdateBlock[msg.sender] + HOLD_DOWN_BLOCKS) revert DV__TooFrequent() */\n      iszero\n      tag_62\n      jumpi\n        /* \"D/Distance Vector/Distance Vector.sol\":6953:6970  DV__TooFrequent() */\n      mload(0x40)\n      0x2a1c97f400000000000000000000000000000000000000000000000000000000\n      dup2\n      mstore\n      0x04\n      add\n      mload(0x40)\n      dup1\n      swap2\n      sub\n      swap1\n      revert\n        /* \"D/Distance Vector/Distance Vector.sol\":6879:6970  if (block.number < lastUpdateBlock[msg.sender] + HOLD_DOWN_BLOCKS) revert DV__TooFrequent() */\n    tag_62:\n        /* \"D/Distance Vector/Distance Vector.sol\":7007:7013  metric */\n      dup1\n        /* \"D/Distance Vector/Distance Vector.sol\":6981:6986  table */\n      0x03\n        /* \"D/Distance Vector/Distance Vector.sol\":6981:6992  table[dest] */\n      0x00\n        /* \"D/Distance Vector/Distance Vector.sol\":6987:6991  dest */\n      dup5\n        /* \"D/Distance Vector/Distance Vector.sol\":6981:6992  table[dest] */\n      0xffffffffffffffffffffffffffffffffffffffff\n      and\n      0xffffffffffffffffffffffffffffffffffffffff\n      and\n      dup2\n      mstore\n      0x20\n      add\n      swap1\n      dup2\n      mstore\n      0x20\n      add\n      0x00\n      keccak256\n        /* \"D/Distance Vector/Distance Vector.sol\":6981:7004  table[dest][msg.sender] */\n      0x00\n        /* \"D/Distance Vector/Distance Vector.sol\":6993:7003  msg.sender */\n      caller\n        /* \"D/Distance Vector/Distance Vector.sol\":6981:7004  table[dest][msg.sender] */\n      0xffffffffffffffffffffffffffffffffffffffff\n      and\n      0xffffffffffffffffffffffffffffffffffffffff\n      and\n      dup2\n      mstore\n      0x20\n      add\n      swap1\n      dup2\n      mstore\n      0x20\n      add\n      0x00\n      keccak256\n        /* \"D/Distance Vector/Distance Vector.sol\":6981:7013  table[dest][msg.sender] = metric */\n      dup2\n      swap1\n      sstore\n      pop\n        /* \"D/Distance Vector/Distance Vector.sol\":7075:7076  0 */\n      0x00\n        /* \"D/Distance Vector/Distance Vector.sol\":7050:7077  bestHop[dest] == address(0) */\n      0xffffffffffffffffffffffffffffffffffffffff\n      and\n        /* \"D/Distance Vector/Distance Vector.sol\":7050:7057  bestHop */\n      0x04\n        /* \"D/Distance Vector/Distance Vector.sol\":7050:7063  bestHop[dest] */\n      0x00\n        /* \"D/Distance Vector/Distance Vector.sol\":7058:7062  dest */\n      dup5\n        /* \"D/Distance Vector/Distance Vector.sol\":7050:7063  bestHop[dest] */\n      0xffffffffffffffffffffffffffffffffffffffff\n      and\n      0xffffffffffffffffffffffffffffffffffffffff\n      and\n      dup2\n      mstore\n      0x20\n      add\n      swap1\n      dup2\n      mstore\n      0x20\n      add\n      0x00\n      keccak256\n      0x00\n      swap1\n      sload\n      swap1\n      0x0100\n      exp\n      swap1\n      div\n      0xffffffffffffffffffffffffffffffffffffffff\n      and\n        /* \"D/Distance Vector/Distance Vector.sol\":7050:7077  bestHop[dest] == address(0) */\n      0xffffffffffffffffffffffffffffffffffffffff\n      and\n      eq\n        /* \"D/Distance Vector/Distance Vector.sol\":7050:7116  bestHop[dest] == address(0) || metric < table[dest][bestHop[dest]] */\n      dup1\n      tag_63\n      jumpi\n      pop\n        /* \"D/Distance Vector/Distance Vector.sol\":7090:7095  table */\n      0x03\n        /* \"D/Distance Vector/Distance Vector.sol\":7090:7101  table[dest] */\n      0x00\n        /* \"D/Distance Vector/Distance Vector.sol\":7096:7100  dest */\n      dup4\n        /* \"D/Distance Vector/Distance Vector.sol\":7090:7101  table[dest] */\n      0xffffffffffffffffffffffffffffffffffffffff\n      and\n      0xffffffffffffffffffffffffffffffffffffffff\n      and\n      dup2\n      mstore\n      0x20\n      add\n      swap1\n      dup2\n      mstore\n      0x20\n      add\n      0x00\n      keccak256\n        /* \"D/Distance Vector/Distance Vector.sol\":7090:7116  table[dest][bestHop[dest]] */\n      0x00\n        /* \"D/Distance Vector/Distance Vector.sol\":7102:7109  bestHop */\n      0x04\n        /* \"D/Distance Vector/Distance Vector.sol\":7102:7115  bestHop[dest] */\n      0x00\n        /* \"D/Distance Vector/Distance Vector.sol\":7110:7114  dest */\n      dup6\n        /* \"D/Distance Vector/Distance Vector.sol\":7102:7115  bestHop[dest] */\n      0xffffffffffffffffffffffffffffffffffffffff\n      and\n      0xffffffffffffffffffffffffffffffffffffffff\n      and\n      dup2\n      mstore\n      0x20\n      add\n      swap1\n      dup2\n      mstore\n      0x20\n      add\n      0x00\n      keccak256\n      0x00\n      swap1\n      sload\n      swap1\n      0x0100\n      exp\n      swap1\n      div\n      0xffffffffffffffffffffffffffffffffffffffff\n      and\n        /* \"D/Distance Vector/Distance Vector.sol\":7090:7116  table[dest][bestHop[dest]] */\n      0xffffffffffffffffffffffffffffffffffffffff\n      and\n      0xffffffffffffffffffffffffffffffffffffffff\n      and\n      dup2\n      mstore\n      0x20\n      add\n      swap1\n      dup2\n      mstore\n      0x20\n      add\n      0x00\n      keccak256\n      sload\n        /* \"D/Distance Vector/Distance Vector.sol\":7081:7087  metric */\n      dup2\n        /* \"D/Distance Vector/Distance Vector.sol\":7081:7116  metric < table[dest][bestHop[dest]] */\n      lt\n        /* \"D/Distance Vector/Distance Vector.sol\":7050:7116  bestHop[dest] == address(0) || metric < table[dest][bestHop[dest]] */\n    tag_63:\n        /* \"D/Distance Vector/Distance Vector.sol\":7046:7169  if (bestHop[dest] == address(0) || metric < table[dest][bestHop[dest]]) {... */\n      iszero\n      tag_64\n      jumpi\n        /* \"D/Distance Vector/Distance Vector.sol\":7148:7158  msg.sender */\n      caller\n        /* \"D/Distance Vector/Distance Vector.sol\":7132:7139  bestHop */\n      0x04\n        /* \"D/Distance Vector/Distance Vector.sol\":7132:7145  bestHop[dest] */\n      0x00\n        /* \"D/Distance Vector/Distance Vector.sol\":7140:7144  dest */\n      dup5\n        /* \"D/Distance Vector/Distance Vector.sol\":7132:7145  bestHop[dest] */\n      0xffffffffffffffffffffffffffffffffffffffff\n      and\n      0xffffffffffffffffffffffffffffffffffffffff\n      and\n      dup2\n      mstore\n      0x20\n      add\n      swap1\n      dup2\n      mstore\n      0x20\n      add\n      0x00\n      keccak256\n      0x00\n        /* \"D/Distance Vector/Distance Vector.sol\":7132:7158  bestHop[dest] = msg.sender */\n      0x0100\n      exp\n      dup2\n      sload\n      dup2\n      0xffffffffffffffffffffffffffffffffffffffff\n      mul\n      not\n      and\n      swap1\n      dup4\n      0xffffffffffffffffffffffffffffffffffffffff\n      and\n      mul\n      or\n      swap1\n      sstore\n      pop\n        /* \"D/Distance Vector/Distance Vector.sol\":7046:7169  if (bestHop[dest] == address(0) || metric < table[dest][bestHop[dest]]) {... */\n    tag_64:\n        /* \"D/Distance Vector/Distance Vector.sol\":7209:7221  block.number */\n      number\n        /* \"D/Distance Vector/Distance Vector.sol\":7179:7194  lastUpdateBlock */\n      0x02\n        /* \"D/Distance Vector/Distance Vector.sol\":7179:7206  lastUpdateBlock[msg.sender] */\n      0x00\n        /* \"D/Distance Vector/Distance Vector.sol\":7195:7205  msg.sender */\n      caller\n        /* \"D/Distance Vector/Distance Vector.sol\":7179:7206  lastUpdateBlock[msg.sender] */\n      0xffffffffffffffffffffffffffffffffffffffff\n      and\n      0xffffffffffffffffffffffffffffffffffffffff\n      and\n      dup2\n      mstore\n      0x20\n      add\n      swap1\n      dup2\n      mstore\n      0x20\n      add\n      0x00\n      keccak256\n        /* \"D/Distance Vector/Distance Vector.sol\":7179:7221  lastUpdateBlock[msg.sender] = block.number */\n      dup2\n      swap1\n      sstore\n      pop\n        /* \"D/Distance Vector/Distance Vector.sol\":7261:7265  dest */\n      dup2\n        /* \"D/Distance Vector/Distance Vector.sol\":7236:7333  RouteUpdated(msg.sender, dest, msg.sender, metric, DistanceVectorDefenseType.AuthenticatedUpdate) */\n      0xffffffffffffffffffffffffffffffffffffffff\n      and\n        /* \"D/Distance Vector/Distance Vector.sol\":7249:7259  msg.sender */\n      caller\n        /* \"D/Distance Vector/Distance Vector.sol\":7236:7333  RouteUpdated(msg.sender, dest, msg.sender, metric, DistanceVectorDefenseType.AuthenticatedUpdate) */\n      0xffffffffffffffffffffffffffffffffffffffff\n      and\n      0x2ca21b65e3ccc37dd743b538848ca36739e5a8e5d8cfb36c08ccf9bff7f89577\n        /* \"D/Distance Vector/Distance Vector.sol\":7267:7277  msg.sender */\n      caller\n        /* \"D/Distance Vector/Distance Vector.sol\":7279:7285  metric */\n      dup5\n        /* \"D/Distance Vector/Distance Vector.sol\":7287:7332  DistanceVectorDefenseType.AuthenticatedUpdate */\n      0x03\n        /* \"D/Distance Vector/Distance Vector.sol\":7236:7333  RouteUpdated(msg.sender, dest, msg.sender, metric, DistanceVectorDefenseType.AuthenticatedUpdate) */\n      mload(0x40)\n      tag_65\n      swap4\n      swap3\n      swap2\n      swap1\n      tag_66\n      jump\t// in\n    tag_65:\n      mload(0x40)\n      dup1\n      swap2\n      sub\n      swap1\n      log3\n        /* \"D/Distance Vector/Distance Vector.sol\":6747:7340  function updateRoute(address dest, uint256 metric) external {... */\n      pop\n      pop\n      jump\t// out\n        /* \"#utility.yul\":88:205   */\n    tag_68:\n        /* \"#utility.yul\":197:198   */\n      0x00\n        /* \"#utility.yul\":194:195   */\n      dup1\n        /* \"#utility.yul\":187:199   */\n      revert\n        /* \"#utility.yul\":334:460   */\n    tag_70:\n        /* \"#utility.yul\":371:378   */\n      0x00\n        /* \"#utility.yul\":411:453   */\n      0xffffffffffffffffffffffffffffffffffffffff\n        /* \"#utility.yul\":404:409   */\n      dup3\n        /* \"#utility.yul\":400:454   */\n      and\n        /* \"#utility.yul\":389:454   */\n      swap1\n      pop\n        /* \"#utility.yul\":334:460   */\n      swap2\n      swap1\n      pop\n      jump\t// out\n        /* \"#utility.yul\":466:562   */\n    tag_71:\n        /* \"#utility.yul\":503:510   */\n      0x00\n        /* \"#utility.yul\":532:556   */\n      tag_98\n        /* \"#utility.yul\":550:555   */\n      dup3\n        /* \"#utility.yul\":532:556   */\n      tag_70\n      jump\t// in\n    tag_98:\n        /* \"#utility.yul\":521:556   */\n      swap1\n      pop\n        /* \"#utility.yul\":466:562   */\n      swap2\n      swap1\n      pop\n      jump\t// out\n        /* \"#utility.yul\":568:690   */\n    tag_72:\n        /* \"#utility.yul\":641:665   */\n      tag_100\n        /* \"#utility.yul\":659:664   */\n      dup2\n        /* \"#utility.yul\":641:665   */\n      tag_71\n      jump\t// in\n    tag_100:\n        /* \"#utility.yul\":634:639   */\n      dup2\n        /* \"#utility.yul\":631:666   */\n      eq\n        /* \"#utility.yul\":621:684   */\n      tag_101\n      jumpi\n        /* \"#utility.yul\":680:681   */\n      0x00\n        /* \"#utility.yul\":677:678   */\n      dup1\n        /* \"#utility.yul\":670:682   */\n      revert\n        /* \"#utility.yul\":621:684   */\n    tag_101:\n        /* \"#utility.yul\":568:690   */\n      pop\n      jump\t// out\n        /* \"#utility.yul\":696:835   */\n    tag_73:\n        /* \"#utility.yul\":742:747   */\n      0x00\n        /* \"#utility.yul\":780:786   */\n      dup2\n        /* \"#utility.yul\":767:787   */\n      calldataload\n        /* \"#utility.yul\":758:787   */\n      swap1\n      pop\n        /* \"#utility.yul\":796:829   */\n      tag_103\n        /* \"#utility.yul\":823:828   */\n      dup2\n        /* \"#utility.yul\":796:829   */\n      tag_72\n      jump\t// in\n    tag_103:\n        /* \"#utility.yul\":696:835   */\n      swap3\n      swap2\n      pop\n      pop\n      jump\t// out\n        /* \"#utility.yul\":841:1315   */\n    tag_15:\n        /* \"#utility.yul\":909:915   */\n      0x00\n        /* \"#utility.yul\":917:923   */\n      dup1\n        /* \"#utility.yul\":966:968   */\n      0x40\n        /* \"#utility.yul\":954:963   */\n      dup4\n        /* \"#utility.yul\":945:952   */\n      dup6\n        /* \"#utility.yul\":941:964   */\n      sub\n        /* \"#utility.yul\":937:969   */\n      slt\n        /* \"#utility.yul\":934:1053   */\n      iszero\n      tag_105\n      jumpi\n        /* \"#utility.yul\":972:1051   */\n      tag_106\n      tag_68\n      jump\t// in\n    tag_106:\n        /* \"#utility.yul\":934:1053   */\n    tag_105:\n        /* \"#utility.yul\":1092:1093   */\n      0x00\n        /* \"#utility.yul\":1117:1170   */\n      tag_107\n        /* \"#utility.yul\":1162:1169   */\n      dup6\n        /* \"#utility.yul\":1153:1159   */\n      dup3\n        /* \"#utility.yul\":1142:1151   */\n      dup7\n        /* \"#utility.yul\":1138:1160   */\n      add\n        /* \"#utility.yul\":1117:1170   */\n      tag_73\n      jump\t// in\n    tag_107:\n        /* \"#utility.yul\":1107:1170   */\n      swap3\n      pop\n        /* \"#utility.yul\":1063:1180   */\n      pop\n        /* \"#utility.yul\":1219:1221   */\n      0x20\n        /* \"#utility.yul\":1245:1298   */\n      tag_108\n        /* \"#utility.yul\":1290:1297   */\n      dup6\n        /* \"#utility.yul\":1281:1287   */\n      dup3\n        /* \"#utility.yul\":1270:1279   */\n      dup7\n        /* \"#utility.yul\":1266:1288   */\n      add\n        /* \"#utility.yul\":1245:1298   */\n      tag_73\n      jump\t// in\n    tag_108:\n        /* \"#utility.yul\":1235:1298   */\n      swap2\n      pop\n        /* \"#utility.yul\":1190:1308   */\n      pop\n        /* \"#utility.yul\":841:1315   */\n      swap3\n      pop\n      swap3\n      swap1\n      pop\n      jump\t// out\n        /* \"#utility.yul\":1321:1398   */\n    tag_74:\n        /* \"#utility.yul\":1358:1365   */\n      0x00\n        /* \"#utility.yul\":1387:1392   */\n      dup2\n        /* \"#utility.yul\":1376:1392   */\n      swap1\n      pop\n        /* \"#utility.yul\":1321:1398   */\n      swap2\n      swap1\n      pop\n      jump\t// out\n        /* \"#utility.yul\":1404:1522   */\n    tag_75:\n        /* \"#utility.yul\":1491:1515   */\n      tag_111\n        /* \"#utility.yul\":1509:1514   */\n      dup2\n        /* \"#utility.yul\":1491:1515   */\n      tag_74\n      jump\t// in\n    tag_111:\n        /* \"#utility.yul\":1486:1489   */\n      dup3\n        /* \"#utility.yul\":1479:1516   */\n      mstore\n        /* \"#utility.yul\":1404:1522   */\n      pop\n      pop\n      jump\t// out\n        /* \"#utility.yul\":1528:1750   */\n    tag_18:\n        /* \"#utility.yul\":1621:1625   */\n      0x00\n        /* \"#utility.yul\":1659:1661   */\n      0x20\n        /* \"#utility.yul\":1648:1657   */\n      dup3\n        /* \"#utility.yul\":1644:1662   */\n      add\n        /* \"#utility.yul\":1636:1662   */\n      swap1\n      pop\n        /* \"#utility.yul\":1672:1743   */\n      tag_113\n        /* \"#utility.yul\":1740:1741   */\n      0x00\n        /* \"#utility.yul\":1729:1738   */\n      dup4\n        /* \"#utility.yul\":1725:1742   */\n      add\n        /* \"#utility.yul\":1716:1722   */\n      dup5\n        /* \"#utility.yul\":1672:1743   */\n      tag_75\n      jump\t// in\n    tag_113:\n        /* \"#utility.yul\":1528:1750   */\n      swap3\n      swap2\n      pop\n      pop\n      jump\t// out\n        /* \"#utility.yul\":1756:1846   */\n    tag_76:\n        /* \"#utility.yul\":1790:1797   */\n      0x00\n        /* \"#utility.yul\":1833:1838   */\n      dup2\n        /* \"#utility.yul\":1826:1839   */\n      iszero\n        /* \"#utility.yul\":1819:1840   */\n      iszero\n        /* \"#utility.yul\":1808:1840   */\n      swap1\n      pop\n        /* \"#utility.yul\":1756:1846   */\n      swap2\n      swap1\n      pop\n      jump\t// out\n        /* \"#utility.yul\":1852:1968   */\n    tag_77:\n        /* \"#utility.yul\":1922:1943   */\n      tag_116\n        /* \"#utility.yul\":1937:1942   */\n      dup2\n        /* \"#utility.yul\":1922:1943   */\n      tag_76\n      jump\t// in\n    tag_116:\n        /* \"#utility.yul\":1915:1920   */\n      dup2\n        /* \"#utility.yul\":1912:1944   */\n      eq\n        /* \"#utility.yul\":1902:1962   */\n      tag_117\n      jumpi\n        /* \"#utility.yul\":1958:1959   */\n      0x00\n        /* \"#utility.yul\":1955:1956   */\n      dup1\n        /* \"#utility.yul\":1948:1960   */\n      revert\n        /* \"#utility.yul\":1902:1962   */\n    tag_117:\n        /* \"#utility.yul\":1852:1968   */\n      pop\n      jump\t// out\n        /* \"#utility.yul\":1974:2107   */\n    tag_78:\n        /* \"#utility.yul\":2017:2022   */\n      0x00\n        /* \"#utility.yul\":2055:2061   */\n      dup2\n        /* \"#utility.yul\":2042:2062   */\n      calldataload\n        /* \"#utility.yul\":2033:2062   */\n      swap1\n      pop\n        /* \"#utility.yul\":2071:2101   */\n      tag_119\n        /* \"#utility.yul\":2095:2100   */\n      dup2\n        /* \"#utility.yul\":2071:2101   */\n      tag_77\n      jump\t// in\n    tag_119:\n        /* \"#utility.yul\":1974:2107   */\n      swap3\n      swap2\n      pop\n      pop\n      jump\t// out\n        /* \"#utility.yul\":2113:2581   */\n    tag_21:\n        /* \"#utility.yul\":2178:2184   */\n      0x00\n        /* \"#utility.yul\":2186:2192   */\n      dup1\n        /* \"#utility.yul\":2235:2237   */\n      0x40\n        /* \"#utility.yul\":2223:2232   */\n      dup4\n        /* \"#utility.yul\":2214:2221   */\n      dup6\n        /* \"#utility.yul\":2210:2233   */\n      sub\n        /* \"#utility.yul\":2206:2238   */\n      slt\n        /* \"#utility.yul\":2203:2322   */\n      iszero\n      tag_121\n      jumpi\n        /* \"#utility.yul\":2241:2320   */\n      tag_122\n      tag_68\n      jump\t// in\n    tag_122:\n        /* \"#utility.yul\":2203:2322   */\n    tag_121:\n        /* \"#utility.yul\":2361:2362   */\n      0x00\n        /* \"#utility.yul\":2386:2439   */\n      tag_123\n        /* \"#utility.yul\":2431:2438   */\n      dup6\n        /* \"#utility.yul\":2422:2428   */\n      dup3\n        /* \"#utility.yul\":2411:2420   */\n      dup7\n        /* \"#utility.yul\":2407:2429   */\n      add\n        /* \"#utility.yul\":2386:2439   */\n      tag_73\n      jump\t// in\n    tag_123:\n        /* \"#utility.yul\":2376:2439   */\n      swap3\n      pop\n        /* \"#utility.yul\":2332:2449   */\n      pop\n        /* \"#utility.yul\":2488:2490   */\n      0x20\n        /* \"#utility.yul\":2514:2564   */\n      tag_124\n        /* \"#utility.yul\":2556:2563   */\n      dup6\n        /* \"#utility.yul\":2547:2553   */\n      dup3\n        /* \"#utility.yul\":2536:2545   */\n      dup7\n        /* \"#utility.yul\":2532:2554   */\n      add\n        /* \"#utility.yul\":2514:2564   */\n      tag_78\n      jump\t// in\n    tag_124:\n        /* \"#utility.yul\":2504:2564   */\n      swap2\n      pop\n        /* \"#utility.yul\":2459:2574   */\n      pop\n        /* \"#utility.yul\":2113:2581   */\n      swap3\n      pop\n      swap3\n      swap1\n      pop\n      jump\t// out\n        /* \"#utility.yul\":2587:2916   */\n    tag_25:\n        /* \"#utility.yul\":2646:2652   */\n      0x00\n        /* \"#utility.yul\":2695:2697   */\n      0x20\n        /* \"#utility.yul\":2683:2692   */\n      dup3\n        /* \"#utility.yul\":2674:2681   */\n      dup5\n        /* \"#utility.yul\":2670:2693   */\n      sub\n        /* \"#utility.yul\":2666:2698   */\n      slt\n        /* \"#utility.yul\":2663:2782   */\n      iszero\n      tag_126\n      jumpi\n        /* \"#utility.yul\":2701:2780   */\n      tag_127\n      tag_68\n      jump\t// in\n    tag_127:\n        /* \"#utility.yul\":2663:2782   */\n    tag_126:\n        /* \"#utility.yul\":2821:2822   */\n      0x00\n        /* \"#utility.yul\":2846:2899   */\n      tag_128\n        /* \"#utility.yul\":2891:2898   */\n      dup5\n        /* \"#utility.yul\":2882:2888   */\n      dup3\n        /* \"#utility.yul\":2871:2880   */\n      dup6\n        /* \"#utility.yul\":2867:2889   */\n      add\n        /* \"#utility.yul\":2846:2899   */\n      tag_73\n      jump\t// in\n    tag_128:\n        /* \"#utility.yul\":2836:2899   */\n      swap2\n      pop\n        /* \"#utility.yul\":2792:2909   */\n      pop\n        /* \"#utility.yul\":2587:2916   */\n      swap3\n      swap2\n      pop\n      pop\n      jump\t// out\n        /* \"#utility.yul\":2922:3031   */\n    tag_79:\n        /* \"#utility.yul\":3003:3024   */\n      tag_130\n        /* \"#utility.yul\":3018:3023   */\n      dup2\n        /* \"#utility.yul\":3003:3024   */\n      tag_76\n      jump\t// in\n    tag_130:\n        /* \"#utility.yul\":2998:3001   */\n      dup3\n        /* \"#utility.yul\":2991:3025   */\n      mstore\n        /* \"#utility.yul\":2922:3031   */\n      pop\n      pop\n      jump\t// out\n        /* \"#utility.yul\":3037:3247   */\n    tag_32:\n        /* \"#utility.yul\":3124:3128   */\n      0x00\n        /* \"#utility.yul\":3162:3164   */\n      0x20\n        /* \"#utility.yul\":3151:3160   */\n      dup3\n        /* \"#utility.yul\":3147:3165   */\n      add\n        /* \"#utility.yul\":3139:3165   */\n      swap1\n      pop\n        /* \"#utility.yul\":3175:3240   */\n      tag_132\n        /* \"#utility.yul\":3237:3238   */\n      0x00\n        /* \"#utility.yul\":3226:3235   */\n      dup4\n        /* \"#utility.yul\":3222:3239   */\n      add\n        /* \"#utility.yul\":3213:3219   */\n      dup5\n        /* \"#utility.yul\":3175:3240   */\n      tag_79\n      jump\t// in\n    tag_132:\n        /* \"#utility.yul\":3037:3247   */\n      swap3\n      swap2\n      pop\n      pop\n      jump\t// out\n        /* \"#utility.yul\":3253:3371   */\n    tag_80:\n        /* \"#utility.yul\":3340:3364   */\n      tag_134\n        /* \"#utility.yul\":3358:3363   */\n      dup2\n        /* \"#utility.yul\":3340:3364   */\n      tag_71\n      jump\t// in\n    tag_134:\n        /* \"#utility.yul\":3335:3338   */\n      dup3\n        /* \"#utility.yul\":3328:3365   */\n      mstore\n        /* \"#utility.yul\":3253:3371   */\n      pop\n      pop\n      jump\t// out\n        /* \"#utility.yul\":3377:3709   */\n    tag_37:\n        /* \"#utility.yul\":3498:3502   */\n      0x00\n        /* \"#utility.yul\":3536:3538   */\n      0x40\n        /* \"#utility.yul\":3525:3534   */\n      dup3\n        /* \"#utility.yul\":3521:3539   */\n      add\n        /* \"#utility.yul\":3513:3539   */\n      swap1\n      pop\n        /* \"#utility.yul\":3549:3620   */\n      tag_136\n        /* \"#utility.yul\":3617:3618   */\n      0x00\n        /* \"#utility.yul\":3606:3615   */\n      dup4\n        /* \"#utility.yul\":3602:3619   */\n      add\n        /* \"#utility.yul\":3593:3599   */\n      dup6\n        /* \"#utility.yul\":3549:3620   */\n      tag_80\n      jump\t// in\n    tag_136:\n        /* \"#utility.yul\":3630:3702   */\n      tag_137\n        /* \"#utility.yul\":3698:3700   */\n      0x20\n        /* \"#utility.yul\":3687:3696   */\n      dup4\n        /* \"#utility.yul\":3683:3701   */\n      add\n        /* \"#utility.yul\":3674:3680   */\n      dup5\n        /* \"#utility.yul\":3630:3702   */\n      tag_75\n      jump\t// in\n    tag_137:\n        /* \"#utility.yul\":3377:3709   */\n      swap4\n      swap3\n      pop\n      pop\n      pop\n      jump\t// out\n        /* \"#utility.yul\":3715:3937   */\n    tag_42:\n        /* \"#utility.yul\":3808:3812   */\n      0x00\n        /* \"#utility.yul\":3846:3848   */\n      0x20\n        /* \"#utility.yul\":3835:3844   */\n      dup3\n        /* \"#utility.yul\":3831:3849   */\n      add\n        /* \"#utility.yul\":3823:3849   */\n      swap1\n      pop\n        /* \"#utility.yul\":3859:3930   */\n      tag_139\n        /* \"#utility.yul\":3927:3928   */\n      0x00\n        /* \"#utility.yul\":3916:3925   */\n      dup4\n        /* \"#utility.yul\":3912:3929   */\n      add\n        /* \"#utility.yul\":3903:3909   */\n      dup5\n        /* \"#utility.yul\":3859:3930   */\n      tag_80\n      jump\t// in\n    tag_139:\n        /* \"#utility.yul\":3715:3937   */\n      swap3\n      swap2\n      pop\n      pop\n      jump\t// out\n        /* \"#utility.yul\":3943:4065   */\n    tag_81:\n        /* \"#utility.yul\":4016:4040   */\n      tag_141\n        /* \"#utility.yul\":4034:4039   */\n      dup2\n        /* \"#utility.yul\":4016:4040   */\n      tag_74\n      jump\t// in\n    tag_141:\n        /* \"#utility.yul\":4009:4014   */\n      dup2\n        /* \"#utility.yul\":4006:4041   */\n      eq\n        /* \"#utility.yul\":3996:4059   */\n      tag_142\n      jumpi\n        /* \"#utility.yul\":4055:4056   */\n      0x00\n        /* \"#utility.yul\":4052:4053   */\n      dup1\n        /* \"#utility.yul\":4045:4057   */\n      revert\n        /* \"#utility.yul\":3996:4059   */\n    tag_142:\n        /* \"#utility.yul\":3943:4065   */\n      pop\n      jump\t// out\n        /* \"#utility.yul\":4071:4210   */\n    tag_82:\n        /* \"#utility.yul\":4117:4122   */\n      0x00\n        /* \"#utility.yul\":4155:4161   */\n      dup2\n        /* \"#utility.yul\":4142:4162   */\n      calldataload\n        /* \"#utility.yul\":4133:4162   */\n      swap1\n      pop\n        /* \"#utility.yul\":4171:4204   */\n      tag_144\n        /* \"#utility.yul\":4198:4203   */\n      dup2\n        /* \"#utility.yul\":4171:4204   */\n      tag_81\n      jump\t// in\n    tag_144:\n        /* \"#utility.yul\":4071:4210   */\n      swap3\n      swap2\n      pop\n      pop\n      jump\t// out\n        /* \"#utility.yul\":4216:4690   */\n    tag_51:\n        /* \"#utility.yul\":4284:4290   */\n      0x00\n        /* \"#utility.yul\":4292:4298   */\n      dup1\n        /* \"#utility.yul\":4341:4343   */\n      0x40\n        /* \"#utility.yul\":4329:4338   */\n      dup4\n        /* \"#utility.yul\":4320:4327   */\n      dup6\n        /* \"#utility.yul\":4316:4339   */\n      sub\n        /* \"#utility.yul\":4312:4344   */\n      slt\n        /* \"#utility.yul\":4309:4428   */\n      iszero\n      tag_146\n      jumpi\n        /* \"#utility.yul\":4347:4426   */\n      tag_147\n      tag_68\n      jump\t// in\n    tag_147:\n        /* \"#utility.yul\":4309:4428   */\n    tag_146:\n        /* \"#utility.yul\":4467:4468   */\n      0x00\n        /* \"#utility.yul\":4492:4545   */\n      tag_148\n        /* \"#utility.yul\":4537:4544   */\n      dup6\n        /* \"#utility.yul\":4528:4534   */\n      dup3\n        /* \"#utility.yul\":4517:4526   */\n      dup7\n        /* \"#utility.yul\":4513:4535   */\n      add\n        /* \"#utility.yul\":4492:4545   */\n      tag_73\n      jump\t// in\n    tag_148:\n        /* \"#utility.yul\":4482:4545   */\n      swap3\n      pop\n        /* \"#utility.yul\":4438:4555   */\n      pop\n        /* \"#utility.yul\":4594:4596   */\n      0x20\n        /* \"#utility.yul\":4620:4673   */\n      tag_149\n        /* \"#utility.yul\":4665:4672   */\n      dup6\n        /* \"#utility.yul\":4656:4662   */\n      dup3\n        /* \"#utility.yul\":4645:4654   */\n      dup7\n        /* \"#utility.yul\":4641:4663   */\n      add\n        /* \"#utility.yul\":4620:4673   */\n      tag_82\n      jump\t// in\n    tag_149:\n        /* \"#utility.yul\":4610:4673   */\n      swap2\n      pop\n        /* \"#utility.yul\":4565:4683   */\n      pop\n        /* \"#utility.yul\":4216:4690   */\n      swap3\n      pop\n      swap3\n      swap1\n      pop\n      jump\t// out\n        /* \"#utility.yul\":4696:4865   */\n    tag_83:\n        /* \"#utility.yul\":4780:4791   */\n      0x00\n        /* \"#utility.yul\":4814:4820   */\n      dup3\n        /* \"#utility.yul\":4809:4812   */\n      dup3\n        /* \"#utility.yul\":4802:4821   */\n      mstore\n        /* \"#utility.yul\":4854:4858   */\n      0x20\n        /* \"#utility.yul\":4849:4852   */\n      dup3\n        /* \"#utility.yul\":4845:4859   */\n      add\n        /* \"#utility.yul\":4830:4859   */\n      swap1\n      pop\n        /* \"#utility.yul\":4696:4865   */\n      swap3\n      swap2\n      pop\n      pop\n      jump\t// out\n        /* \"#utility.yul\":4871:5031   */\n    tag_84:\n        /* \"#utility.yul\":5011:5023   */\n      0x6f6e6c79206f776e657200000000000000000000000000000000000000000000\n        /* \"#utility.yul\":5007:5008   */\n      0x00\n        /* \"#utility.yul\":4999:5005   */\n      dup3\n        /* \"#utility.yul\":4995:5009   */\n      add\n        /* \"#utility.yul\":4988:5024   */\n      mstore\n        /* \"#utility.yul\":4871:5031   */\n      pop\n      jump\t// out\n        /* \"#utility.yul\":5037:5403   */\n    tag_85:\n        /* \"#utility.yul\":5179:5182   */\n      0x00\n        /* \"#utility.yul\":5200:5267   */\n      tag_153\n        /* \"#utility.yul\":5264:5266   */\n      0x0a\n        /* \"#utility.yul\":5259:5262   */\n      dup4\n        /* \"#utility.yul\":5200:5267   */\n      tag_83\n      jump\t// in\n    tag_153:\n        /* \"#utility.yul\":5193:5267   */\n      swap2\n      pop\n        /* \"#utility.yul\":5276:5369   */\n      tag_154\n        /* \"#utility.yul\":5365:5368   */\n      dup3\n        /* \"#utility.yul\":5276:5369   */\n      tag_84\n      jump\t// in\n    tag_154:\n        /* \"#utility.yul\":5394:5396   */\n      0x20\n        /* \"#utility.yul\":5389:5392   */\n      dup3\n        /* \"#utility.yul\":5385:5397   */\n      add\n        /* \"#utility.yul\":5378:5397   */\n      swap1\n      pop\n        /* \"#utility.yul\":5037:5403   */\n      swap2\n      swap1\n      pop\n      jump\t// out\n        /* \"#utility.yul\":5409:5828   */\n    tag_56:\n        /* \"#utility.yul\":5575:5579   */\n      0x00\n        /* \"#utility.yul\":5613:5615   */\n      0x20\n        /* \"#utility.yul\":5602:5611   */\n      dup3\n        /* \"#utility.yul\":5598:5616   */\n      add\n        /* \"#utility.yul\":5590:5616   */\n      swap1\n      pop\n        /* \"#utility.yul\":5662:5671   */\n      dup2\n        /* \"#utility.yul\":5656:5660   */\n      dup2\n        /* \"#utility.yul\":5652:5672   */\n      sub\n        /* \"#utility.yul\":5648:5649   */\n      0x00\n        /* \"#utility.yul\":5637:5646   */\n      dup4\n        /* \"#utility.yul\":5633:5650   */\n      add\n        /* \"#utility.yul\":5626:5673   */\n      mstore\n        /* \"#utility.yul\":5690:5821   */\n      tag_156\n        /* \"#utility.yul\":5816:5820   */\n      dup2\n        /* \"#utility.yul\":5690:5821   */\n      tag_85\n      jump\t// in\n    tag_156:\n        /* \"#utility.yul\":5682:5821   */\n      swap1\n      pop\n        /* \"#utility.yul\":5409:5828   */\n      swap2\n      swap1\n      pop\n      jump\t// out\n        /* \"#utility.yul\":5834:6014   */\n    tag_86:\n        /* \"#utility.yul\":5882:5959   */\n      0x4e487b7100000000000000000000000000000000000000000000000000000000\n        /* \"#utility.yul\":5879:5880   */\n      0x00\n        /* \"#utility.yul\":5872:5960   */\n      mstore\n        /* \"#utility.yul\":5979:5983   */\n      0x11\n        /* \"#utility.yul\":5976:5977   */\n      0x04\n        /* \"#utility.yul\":5969:5984   */\n      mstore\n        /* \"#utility.yul\":6003:6007   */\n      0x24\n        /* \"#utility.yul\":6000:6001   */\n      0x00\n        /* \"#utility.yul\":5993:6008   */\n      revert\n        /* \"#utility.yul\":6020:6211   */\n    tag_61:\n        /* \"#utility.yul\":6060:6063   */\n      0x00\n        /* \"#utility.yul\":6079:6099   */\n      tag_159\n        /* \"#utility.yul\":6097:6098   */\n      dup3\n        /* \"#utility.yul\":6079:6099   */\n      tag_74\n      jump\t// in\n    tag_159:\n        /* \"#utility.yul\":6074:6099   */\n      swap2\n      pop\n        /* \"#utility.yul\":6113:6133   */\n      tag_160\n        /* \"#utility.yul\":6131:6132   */\n      dup4\n        /* \"#utility.yul\":6113:6133   */\n      tag_74\n      jump\t// in\n    tag_160:\n        /* \"#utility.yul\":6108:6133   */\n      swap3\n      pop\n        /* \"#utility.yul\":6156:6157   */\n      dup3\n        /* \"#utility.yul\":6153:6154   */\n      dup3\n        /* \"#utility.yul\":6149:6158   */\n      add\n        /* \"#utility.yul\":6142:6158   */\n      swap1\n      pop\n        /* \"#utility.yul\":6177:6180   */\n      dup1\n        /* \"#utility.yul\":6174:6175   */\n      dup3\n        /* \"#utility.yul\":6171:6181   */\n      gt\n        /* \"#utility.yul\":6168:6204   */\n      iszero\n      tag_161\n      jumpi\n        /* \"#utility.yul\":6184:6202   */\n      tag_162\n      tag_86\n      jump\t// in\n    tag_162:\n        /* \"#utility.yul\":6168:6204   */\n    tag_161:\n        /* \"#utility.yul\":6020:6211   */\n      swap3\n      swap2\n      pop\n      pop\n      jump\t// out\n        /* \"#utility.yul\":6217:6397   */\n    tag_87:\n        /* \"#utility.yul\":6265:6342   */\n      0x4e487b7100000000000000000000000000000000000000000000000000000000\n        /* \"#utility.yul\":6262:6263   */\n      0x00\n        /* \"#utility.yul\":6255:6343   */\n      mstore\n        /* \"#utility.yul\":6362:6366   */\n      0x21\n        /* \"#utility.yul\":6359:6360   */\n      0x04\n        /* \"#utility.yul\":6352:6367   */\n      mstore\n        /* \"#utility.yul\":6386:6390   */\n      0x24\n        /* \"#utility.yul\":6383:6384   */\n      0x00\n        /* \"#utility.yul\":6376:6391   */\n      revert\n        /* \"#utility.yul\":6403:6536   */\n    tag_88:\n        /* \"#utility.yul\":6504:6505   */\n      0x04\n        /* \"#utility.yul\":6497:6502   */\n      dup2\n        /* \"#utility.yul\":6494:6506   */\n      lt\n        /* \"#utility.yul\":6484:6530   */\n      tag_165\n      jumpi\n        /* \"#utility.yul\":6510:6528   */\n      tag_166\n      tag_87\n      jump\t// in\n    tag_166:\n        /* \"#utility.yul\":6484:6530   */\n    tag_165:\n        /* \"#utility.yul\":6403:6536   */\n      pop\n      jump\t// out\n        /* \"#utility.yul\":6542:6709   */\n    tag_89:\n        /* \"#utility.yul\":6607:6614   */\n      0x00\n        /* \"#utility.yul\":6636:6641   */\n      dup2\n        /* \"#utility.yul\":6625:6641   */\n      swap1\n      pop\n        /* \"#utility.yul\":6642:6703   */\n      tag_168\n        /* \"#utility.yul\":6697:6702   */\n      dup3\n        /* \"#utility.yul\":6642:6703   */\n      tag_88\n      jump\t// in\n    tag_168:\n        /* \"#utility.yul\":6542:6709   */\n      swap2\n      swap1\n      pop\n      jump\t// out\n        /* \"#utility.yul\":6715:6882   */\n    tag_90:\n        /* \"#utility.yul\":6791:6800   */\n      0x00\n        /* \"#utility.yul\":6824:6876   */\n      tag_170\n        /* \"#utility.yul\":6870:6875   */\n      dup3\n        /* \"#utility.yul\":6824:6876   */\n      tag_89\n      jump\t// in\n    tag_170:\n        /* \"#utility.yul\":6811:6876   */\n      swap1\n      pop\n        /* \"#utility.yul\":6715:6882   */\n      swap2\n      swap1\n      pop\n      jump\t// out\n        /* \"#utility.yul\":6888:7071   */\n    tag_91:\n        /* \"#utility.yul\":7001:7064   */\n      tag_172\n        /* \"#utility.yul\":7058:7063   */\n      dup2\n        /* \"#utility.yul\":7001:7064   */\n      tag_90\n      jump\t// in\n    tag_172:\n        /* \"#utility.yul\":6996:6999   */\n      dup3\n        /* \"#utility.yul\":6989:7065   */\n      mstore\n        /* \"#utility.yul\":6888:7071   */\n      pop\n      pop\n      jump\t// out\n        /* \"#utility.yul\":7077:7571   */\n    tag_66:\n        /* \"#utility.yul\":7252:7256   */\n      0x00\n        /* \"#utility.yul\":7290:7292   */\n      0x60\n        /* \"#utility.yul\":7279:7288   */\n      dup3\n        /* \"#utility.yul\":7275:7293   */\n      add\n        /* \"#utility.yul\":7267:7293   */\n      swap1\n      pop\n        /* \"#utility.yul\":7303:7374   */\n      tag_174\n        /* \"#utility.yul\":7371:7372   */\n      0x00\n        /* \"#utility.yul\":7360:7369   */\n      dup4\n        /* \"#utility.yul\":7356:7373   */\n      add\n        /* \"#utility.yul\":7347:7353   */\n      dup7\n        /* \"#utility.yul\":7303:7374   */\n      tag_80\n      jump\t// in\n    tag_174:\n        /* \"#utility.yul\":7384:7456   */\n      tag_175\n        /* \"#utility.yul\":7452:7454   */\n      0x20\n        /* \"#utility.yul\":7441:7450   */\n      dup4\n        /* \"#utility.yul\":7437:7455   */\n      add\n        /* \"#utility.yul\":7428:7434   */\n      dup6\n        /* \"#utility.yul\":7384:7456   */\n      tag_75\n      jump\t// in\n    tag_175:\n        /* \"#utility.yul\":7466:7564   */\n      tag_176\n        /* \"#utility.yul\":7560:7562   */\n      0x40\n        /* \"#utility.yul\":7549:7558   */\n      dup4\n        /* \"#utility.yul\":7545:7563   */\n      add\n        /* \"#utility.yul\":7536:7542   */\n      dup5\n        /* \"#utility.yul\":7466:7564   */\n      tag_91\n      jump\t// in\n    tag_176:\n        /* \"#utility.yul\":7077:7571   */\n      swap5\n      swap4\n      pop\n      pop\n      pop\n      pop\n      jump\t// out\n\n    auxdata: 0xa2646970667358221220dc0ea43d9eee89675a505edc79822470739413fe641a4838ce06e9372da392a364736f6c634300081a0033\n}\n",
				"bytecode": {
					"linkReferences": {},
					"object": "6080604052348015600e575f80fd5b50335f806101000a81548173ffffffffffffffffffffffffffffffffffffffff021916908373ffffffffffffffffffffffffffffffffffffffff160217905550610c848061005b5f395ff3fe608060405234801561000f575f80fd5b5060043610610091575f3560e01c8063481fd65c11610064578063481fd65c14610141578063605b5f4e146101725780638c5a110f146101a25780638da5cb5b146101c0578063d5621bff146101de57610091565b80631d8d4176146100955780632f499378146100c557806332a8aa67146100e15780633a182a9d14610111575b5f80fd5b6100af60048036038101906100aa91906108e2565b6101fa565b6040516100bc9190610938565b60405180910390f35b6100df60048036038101906100da9190610986565b61021a565b005b6100fb60048036038101906100f691906109c4565b6102ff565b6040516101089190610938565b60405180910390f35b61012b600480360381019061012691906109c4565b610314565b60405161013891906109fe565b60405180910390f35b61015b600480360381019061015691906109c4565b610331565b604051610169929190610a26565b60405180910390f35b61018c600480360381019061018791906109c4565b610412565b6040516101999190610a4d565b60405180910390f35b6101aa610442565b6040516101b79190610938565b60405180910390f35b6101c8610447565b6040516101d59190610a4d565b60405180910390f35b6101f860048036038101906101f39190610a90565b61046a565b005b6003602052815f5260405f20602052805f5260405f205f91509150505481565b5f8054906101000a900473ffffffffffffffffffffffffffffffffffffffff1673ffffffffffffffffffffffffffffffffffffffff163373ffffffffffffffffffffffffffffffffffffffff16146102a7576040517f08c379a000000000000000000000000000000000000000000000000000000000815260040161029e90610b28565b60405180910390fd5b8060015f8473ffffffffffffffffffffffffffffffffffffffff1673ffffffffffffffffffffffffffffffffffffffff1681526020019081526020015f205f6101000a81548160ff0219169083151502179055505050565b6002602052805f5260405f205f915090505481565b6001602052805f5260405f205f915054906101000a900460ff1681565b5f8060045f8473ffffffffffffffffffffffffffffffffffffffff1673ffffffffffffffffffffffffffffffffffffffff1681526020019081526020015f205f9054906101000a900473ffffffffffffffffffffffffffffffffffffffff16915060035f8473ffffffffffffffffffffffffffffffffffffffff1673ffffffffffffffffffffffffffffffffffffffff1681526020019081526020015f205f8373ffffffffffffffffffffffffffffffffffffffff1673ffffffffffffffffffffffffffffffffffffffff1681526020019081526020015f20549050915091565b6004602052805f5260405f205f915054906101000a900473ffffffffffffffffffffffffffffffffffffffff1681565b600581565b5f8054906101000a900473ffffffffffffffffffffffffffffffffffffffff1681565b60015f3373ffffffffffffffffffffffffffffffffffffffff1673ffffffffffffffffffffffffffffffffffffffff1681526020019081526020015f205f9054906101000a900460ff166104ea576040517f61eb319100000000000000000000000000000000000000000000000000000000815260040160405180910390fd5b600560025f3373ffffffffffffffffffffffffffffffffffffffff1673ffffffffffffffffffffffffffffffffffffffff1681526020019081526020015f20546105349190610b73565b43101561056d576040517f2a1c97f400000000000000000000000000000000000000000000000000000000815260040160405180910390fd5b8060035f8473ffffffffffffffffffffffffffffffffffffffff1673ffffffffffffffffffffffffffffffffffffffff1681526020019081526020015f205f3373ffffffffffffffffffffffffffffffffffffffff1673ffffffffffffffffffffffffffffffffffffffff1681526020019081526020015f20819055505f73ffffffffffffffffffffffffffffffffffffffff1660045f8473ffffffffffffffffffffffffffffffffffffffff1673ffffffffffffffffffffffffffffffffffffffff1681526020019081526020015f205f9054906101000a900473ffffffffffffffffffffffffffffffffffffffff1673ffffffffffffffffffffffffffffffffffffffff161480610753575060035f8373ffffffffffffffffffffffffffffffffffffffff1673ffffffffffffffffffffffffffffffffffffffff1681526020019081526020015f205f60045f8573ffffffffffffffffffffffffffffffffffffffff1673ffffffffffffffffffffffffffffffffffffffff1681526020019081526020015f205f9054906101000a900473ffffffffffffffffffffffffffffffffffffffff1673ffffffffffffffffffffffffffffffffffffffff1673ffffffffffffffffffffffffffffffffffffffff1681526020019081526020015f205481105b156107d4573360045f8473ffffffffffffffffffffffffffffffffffffffff1673ffffffffffffffffffffffffffffffffffffffff1681526020019081526020015f205f6101000a81548173ffffffffffffffffffffffffffffffffffffffff021916908373ffffffffffffffffffffffffffffffffffffffff1602179055505b4360025f3373ffffffffffffffffffffffffffffffffffffffff1673ffffffffffffffffffffffffffffffffffffffff1681526020019081526020015f20819055508173ffffffffffffffffffffffffffffffffffffffff163373ffffffffffffffffffffffffffffffffffffffff167f2ca21b65e3ccc37dd743b538848ca36739e5a8e5d8cfb36c08ccf9bff7f895773384600360405161087893929190610c19565b60405180910390a35050565b5f80fd5b5f73ffffffffffffffffffffffffffffffffffffffff82169050919050565b5f6108b182610888565b9050919050565b6108c1816108a7565b81146108cb575f80fd5b50565b5f813590506108dc816108b8565b92915050565b5f80604083850312156108f8576108f7610884565b5b5f610905858286016108ce565b9250506020610916858286016108ce565b9150509250929050565b5f819050919050565b61093281610920565b82525050565b5f60208201905061094b5f830184610929565b92915050565b5f8115159050919050565b61096581610951565b811461096f575f80fd5b50565b5f813590506109808161095c565b92915050565b5f806040838503121561099c5761099b610884565b5b5f6109a9858286016108ce565b92505060206109ba85828601610972565b9150509250929050565b5f602082840312156109d9576109d8610884565b5b5f6109e6848285016108ce565b91505092915050565b6109f881610951565b82525050565b5f602082019050610a115f8301846109ef565b92915050565b610a20816108a7565b82525050565b5f604082019050610a395f830185610a17565b610a466020830184610929565b9392505050565b5f602082019050610a605f830184610a17565b92915050565b610a6f81610920565b8114610a79575f80fd5b50565b5f81359050610a8a81610a66565b92915050565b5f8060408385031215610aa657610aa5610884565b5b5f610ab3858286016108ce565b9250506020610ac485828601610a7c565b9150509250929050565b5f82825260208201905092915050565b7f6f6e6c79206f776e6572000000000000000000000000000000000000000000005f82015250565b5f610b12600a83610ace565b9150610b1d82610ade565b602082019050919050565b5f6020820190508181035f830152610b3f81610b06565b9050919050565b7f4e487b71000000000000000000000000000000000000000000000000000000005f52601160045260245ffd5b5f610b7d82610920565b9150610b8883610920565b9250828201905080821115610ba057610b9f610b46565b5b92915050565b7f4e487b71000000000000000000000000000000000000000000000000000000005f52602160045260245ffd5b60048110610be457610be3610ba6565b5b50565b5f819050610bf482610bd3565b919050565b5f610c0382610be7565b9050919050565b610c1381610bf9565b82525050565b5f606082019050610c2c5f830186610a17565b610c396020830185610929565b610c466040830184610c0a565b94935050505056fea2646970667358221220dc0ea43d9eee89675a505edc79822470739413fe641a4838ce06e9372da392a364736f6c634300081a0033",
					"opcodes": "PUSH1 0x80 PUSH1 0x40 MSTORE CALLVALUE DUP1 ISZERO PUSH1 0xE JUMPI PUSH0 DUP1 REVERT JUMPDEST POP CALLER PUSH0 DUP1 PUSH2 0x100 EXP DUP2 SLOAD DUP2 PUSH20 0xFFFFFFFFFFFFFFFFFFFFFFFFFFFFFFFFFFFFFFFF MUL NOT AND SWAP1 DUP4 PUSH20 0xFFFFFFFFFFFFFFFFFFFFFFFFFFFFFFFFFFFFFFFF AND MUL OR SWAP1 SSTORE POP PUSH2 0xC84 DUP1 PUSH2 0x5B PUSH0 CODECOPY PUSH0 RETURN INVALID PUSH1 0x80 PUSH1 0x40 MSTORE CALLVALUE DUP1 ISZERO PUSH2 0xF JUMPI PUSH0 DUP1 REVERT JUMPDEST POP PUSH1 0x4 CALLDATASIZE LT PUSH2 0x91 JUMPI PUSH0 CALLDATALOAD PUSH1 0xE0 SHR DUP1 PUSH4 0x481FD65C GT PUSH2 0x64 JUMPI DUP1 PUSH4 0x481FD65C EQ PUSH2 0x141 JUMPI DUP1 PUSH4 0x605B5F4E EQ PUSH2 0x172 JUMPI DUP1 PUSH4 0x8C5A110F EQ PUSH2 0x1A2 JUMPI DUP1 PUSH4 0x8DA5CB5B EQ PUSH2 0x1C0 JUMPI DUP1 PUSH4 0xD5621BFF EQ PUSH2 0x1DE JUMPI PUSH2 0x91 JUMP JUMPDEST DUP1 PUSH4 0x1D8D4176 EQ PUSH2 0x95 JUMPI DUP1 PUSH4 0x2F499378 EQ PUSH2 0xC5 JUMPI DUP1 PUSH4 0x32A8AA67 EQ PUSH2 0xE1 JUMPI DUP1 PUSH4 0x3A182A9D EQ PUSH2 0x111 JUMPI JUMPDEST PUSH0 DUP1 REVERT JUMPDEST PUSH2 0xAF PUSH1 0x4 DUP1 CALLDATASIZE SUB DUP2 ADD SWAP1 PUSH2 0xAA SWAP2 SWAP1 PUSH2 0x8E2 JUMP JUMPDEST PUSH2 0x1FA JUMP JUMPDEST PUSH1 0x40 MLOAD PUSH2 0xBC SWAP2 SWAP1 PUSH2 0x938 JUMP JUMPDEST PUSH1 0x40 MLOAD DUP1 SWAP2 SUB SWAP1 RETURN JUMPDEST PUSH2 0xDF PUSH1 0x4 DUP1 CALLDATASIZE SUB DUP2 ADD SWAP1 PUSH2 0xDA SWAP2 SWAP1 PUSH2 0x986 JUMP JUMPDEST PUSH2 0x21A JUMP JUMPDEST STOP JUMPDEST PUSH2 0xFB PUSH1 0x4 DUP1 CALLDATASIZE SUB DUP2 ADD SWAP1 PUSH2 0xF6 SWAP2 SWAP1 PUSH2 0x9C4 JUMP JUMPDEST PUSH2 0x2FF JUMP JUMPDEST PUSH1 0x40 MLOAD PUSH2 0x108 SWAP2 SWAP1 PUSH2 0x938 JUMP JUMPDEST PUSH1 0x40 MLOAD DUP1 SWAP2 SUB SWAP1 RETURN JUMPDEST PUSH2 0x12B PUSH1 0x4 DUP1 CALLDATASIZE SUB DUP2 ADD SWAP1 PUSH2 0x126 SWAP2 SWAP1 PUSH2 0x9C4 JUMP JUMPDEST PUSH2 0x314 JUMP JUMPDEST PUSH1 0x40 MLOAD PUSH2 0x138 SWAP2 SWAP1 PUSH2 0x9FE JUMP JUMPDEST PUSH1 0x40 MLOAD DUP1 SWAP2 SUB SWAP1 RETURN JUMPDEST PUSH2 0x15B PUSH1 0x4 DUP1 CALLDATASIZE SUB DUP2 ADD SWAP1 PUSH2 0x156 SWAP2 SWAP1 PUSH2 0x9C4 JUMP JUMPDEST PUSH2 0x331 JUMP JUMPDEST PUSH1 0x40 MLOAD PUSH2 0x169 SWAP3 SWAP2 SWAP1 PUSH2 0xA26 JUMP JUMPDEST PUSH1 0x40 MLOAD DUP1 SWAP2 SUB SWAP1 RETURN JUMPDEST PUSH2 0x18C PUSH1 0x4 DUP1 CALLDATASIZE SUB DUP2 ADD SWAP1 PUSH2 0x187 SWAP2 SWAP1 PUSH2 0x9C4 JUMP JUMPDEST PUSH2 0x412 JUMP JUMPDEST PUSH1 0x40 MLOAD PUSH2 0x199 SWAP2 SWAP1 PUSH2 0xA4D JUMP JUMPDEST PUSH1 0x40 MLOAD DUP1 SWAP2 SUB SWAP1 RETURN JUMPDEST PUSH2 0x1AA PUSH2 0x442 JUMP JUMPDEST PUSH1 0x40 MLOAD PUSH2 0x1B7 SWAP2 SWAP1 PUSH2 0x938 JUMP JUMPDEST PUSH1 0x40 MLOAD DUP1 SWAP2 SUB SWAP1 RETURN JUMPDEST PUSH2 0x1C8 PUSH2 0x447 JUMP JUMPDEST PUSH1 0x40 MLOAD PUSH2 0x1D5 SWAP2 SWAP1 PUSH2 0xA4D JUMP JUMPDEST PUSH1 0x40 MLOAD DUP1 SWAP2 SUB SWAP1 RETURN JUMPDEST PUSH2 0x1F8 PUSH1 0x4 DUP1 CALLDATASIZE SUB DUP2 ADD SWAP1 PUSH2 0x1F3 SWAP2 SWAP1 PUSH2 0xA90 JUMP JUMPDEST PUSH2 0x46A JUMP JUMPDEST STOP JUMPDEST PUSH1 0x3 PUSH1 0x20 MSTORE DUP2 PUSH0 MSTORE PUSH1 0x40 PUSH0 KECCAK256 PUSH1 0x20 MSTORE DUP1 PUSH0 MSTORE PUSH1 0x40 PUSH0 KECCAK256 PUSH0 SWAP2 POP SWAP2 POP POP SLOAD DUP2 JUMP JUMPDEST PUSH0 DUP1 SLOAD SWAP1 PUSH2 0x100 EXP SWAP1 DIV PUSH20 0xFFFFFFFFFFFFFFFFFFFFFFFFFFFFFFFFFFFFFFFF AND PUSH20 0xFFFFFFFFFFFFFFFFFFFFFFFFFFFFFFFFFFFFFFFF AND CALLER PUSH20 0xFFFFFFFFFFFFFFFFFFFFFFFFFFFFFFFFFFFFFFFF AND EQ PUSH2 0x2A7 JUMPI PUSH1 0x40 MLOAD PUSH32 0x8C379A000000000000000000000000000000000000000000000000000000000 DUP2 MSTORE PUSH1 0x4 ADD PUSH2 0x29E SWAP1 PUSH2 0xB28 JUMP JUMPDEST PUSH1 0x40 MLOAD DUP1 SWAP2 SUB SWAP1 REVERT JUMPDEST DUP1 PUSH1 0x1 PUSH0 DUP5 PUSH20 0xFFFFFFFFFFFFFFFFFFFFFFFFFFFFFFFFFFFFFFFF AND PUSH20 0xFFFFFFFFFFFFFFFFFFFFFFFFFFFFFFFFFFFFFFFF AND DUP2 MSTORE PUSH1 0x20 ADD SWAP1 DUP2 MSTORE PUSH1 0x20 ADD PUSH0 KECCAK256 PUSH0 PUSH2 0x100 EXP DUP2 SLOAD DUP2 PUSH1 0xFF MUL NOT AND SWAP1 DUP4 ISZERO ISZERO MUL OR SWAP1 SSTORE POP POP POP JUMP JUMPDEST PUSH1 0x2 PUSH1 0x20 MSTORE DUP1 PUSH0 MSTORE PUSH1 0x40 PUSH0 KECCAK256 PUSH0 SWAP2 POP SWAP1 POP SLOAD DUP2 JUMP JUMPDEST PUSH1 0x1 PUSH1 0x20 MSTORE DUP1 PUSH0 MSTORE PUSH1 0x40 PUSH0 KECCAK256 PUSH0 SWAP2 POP SLOAD SWAP1 PUSH2 0x100 EXP SWAP1 DIV PUSH1 0xFF AND DUP2 JUMP JUMPDEST PUSH0 DUP1 PUSH1 0x4 PUSH0 DUP5 PUSH20 0xFFFFFFFFFFFFFFFFFFFFFFFFFFFFFFFFFFFFFFFF AND PUSH20 0xFFFFFFFFFFFFFFFFFFFFFFFFFFFFFFFFFFFFFFFF AND DUP2 MSTORE PUSH1 0x20 ADD SWAP1 DUP2 MSTORE PUSH1 0x20 ADD PUSH0 KECCAK256 PUSH0 SWAP1 SLOAD SWAP1 PUSH2 0x100 EXP SWAP1 DIV PUSH20 0xFFFFFFFFFFFFFFFFFFFFFFFFFFFFFFFFFFFFFFFF AND SWAP2 POP PUSH1 0x3 PUSH0 DUP5 PUSH20 0xFFFFFFFFFFFFFFFFFFFFFFFFFFFFFFFFFFFFFFFF AND PUSH20 0xFFFFFFFFFFFFFFFFFFFFFFFFFFFFFFFFFFFFFFFF AND DUP2 MSTORE PUSH1 0x20 ADD SWAP1 DUP2 MSTORE PUSH1 0x20 ADD PUSH0 KECCAK256 PUSH0 DUP4 PUSH20 0xFFFFFFFFFFFFFFFFFFFFFFFFFFFFFFFFFFFFFFFF AND PUSH20 0xFFFFFFFFFFFFFFFFFFFFFFFFFFFFFFFFFFFFFFFF AND DUP2 MSTORE PUSH1 0x20 ADD SWAP1 DUP2 MSTORE PUSH1 0x20 ADD PUSH0 KECCAK256 SLOAD SWAP1 POP SWAP2 POP SWAP2 JUMP JUMPDEST PUSH1 0x4 PUSH1 0x20 MSTORE DUP1 PUSH0 MSTORE PUSH1 0x40 PUSH0 KECCAK256 PUSH0 SWAP2 POP SLOAD SWAP1 PUSH2 0x100 EXP SWAP1 DIV PUSH20 0xFFFFFFFFFFFFFFFFFFFFFFFFFFFFFFFFFFFFFFFF AND DUP2 JUMP JUMPDEST PUSH1 0x5 DUP2 JUMP JUMPDEST PUSH0 DUP1 SLOAD SWAP1 PUSH2 0x100 EXP SWAP1 DIV PUSH20 0xFFFFFFFFFFFFFFFFFFFFFFFFFFFFFFFFFFFFFFFF AND DUP2 JUMP JUMPDEST PUSH1 0x1 PUSH0 CALLER PUSH20 0xFFFFFFFFFFFFFFFFFFFFFFFFFFFFFFFFFFFFFFFF AND PUSH20 0xFFFFFFFFFFFFFFFFFFFFFFFFFFFFFFFFFFFFFFFF AND DUP2 MSTORE PUSH1 0x20 ADD SWAP1 DUP2 MSTORE PUSH1 0x20 ADD PUSH0 KECCAK256 PUSH0 SWAP1 SLOAD SWAP1 PUSH2 0x100 EXP SWAP1 DIV PUSH1 0xFF AND PUSH2 0x4EA JUMPI PUSH1 0x40 MLOAD PUSH32 0x61EB319100000000000000000000000000000000000000000000000000000000 DUP2 MSTORE PUSH1 0x4 ADD PUSH1 0x40 MLOAD DUP1 SWAP2 SUB SWAP1 REVERT JUMPDEST PUSH1 0x5 PUSH1 0x2 PUSH0 CALLER PUSH20 0xFFFFFFFFFFFFFFFFFFFFFFFFFFFFFFFFFFFFFFFF AND PUSH20 0xFFFFFFFFFFFFFFFFFFFFFFFFFFFFFFFFFFFFFFFF AND DUP2 MSTORE PUSH1 0x20 ADD SWAP1 DUP2 MSTORE PUSH1 0x20 ADD PUSH0 KECCAK256 SLOAD PUSH2 0x534 SWAP2 SWAP1 PUSH2 0xB73 JUMP JUMPDEST NUMBER LT ISZERO PUSH2 0x56D JUMPI PUSH1 0x40 MLOAD PUSH32 0x2A1C97F400000000000000000000000000000000000000000000000000000000 DUP2 MSTORE PUSH1 0x4 ADD PUSH1 0x40 MLOAD DUP1 SWAP2 SUB SWAP1 REVERT JUMPDEST DUP1 PUSH1 0x3 PUSH0 DUP5 PUSH20 0xFFFFFFFFFFFFFFFFFFFFFFFFFFFFFFFFFFFFFFFF AND PUSH20 0xFFFFFFFFFFFFFFFFFFFFFFFFFFFFFFFFFFFFFFFF AND DUP2 MSTORE PUSH1 0x20 ADD SWAP1 DUP2 MSTORE PUSH1 0x20 ADD PUSH0 KECCAK256 PUSH0 CALLER PUSH20 0xFFFFFFFFFFFFFFFFFFFFFFFFFFFFFFFFFFFFFFFF AND PUSH20 0xFFFFFFFFFFFFFFFFFFFFFFFFFFFFFFFFFFFFFFFF AND DUP2 MSTORE PUSH1 0x20 ADD SWAP1 DUP2 MSTORE PUSH1 0x20 ADD PUSH0 KECCAK256 DUP2 SWAP1 SSTORE POP PUSH0 PUSH20 0xFFFFFFFFFFFFFFFFFFFFFFFFFFFFFFFFFFFFFFFF AND PUSH1 0x4 PUSH0 DUP5 PUSH20 0xFFFFFFFFFFFFFFFFFFFFFFFFFFFFFFFFFFFFFFFF AND PUSH20 0xFFFFFFFFFFFFFFFFFFFFFFFFFFFFFFFFFFFFFFFF AND DUP2 MSTORE PUSH1 0x20 ADD SWAP1 DUP2 MSTORE PUSH1 0x20 ADD PUSH0 KECCAK256 PUSH0 SWAP1 SLOAD SWAP1 PUSH2 0x100 EXP SWAP1 DIV PUSH20 0xFFFFFFFFFFFFFFFFFFFFFFFFFFFFFFFFFFFFFFFF AND PUSH20 0xFFFFFFFFFFFFFFFFFFFFFFFFFFFFFFFFFFFFFFFF AND EQ DUP1 PUSH2 0x753 JUMPI POP PUSH1 0x3 PUSH0 DUP4 PUSH20 0xFFFFFFFFFFFFFFFFFFFFFFFFFFFFFFFFFFFFFFFF AND PUSH20 0xFFFFFFFFFFFFFFFFFFFFFFFFFFFFFFFFFFFFFFFF AND DUP2 MSTORE PUSH1 0x20 ADD SWAP1 DUP2 MSTORE PUSH1 0x20 ADD PUSH0 KECCAK256 PUSH0 PUSH1 0x4 PUSH0 DUP6 PUSH20 0xFFFFFFFFFFFFFFFFFFFFFFFFFFFFFFFFFFFFFFFF AND PUSH20 0xFFFFFFFFFFFFFFFFFFFFFFFFFFFFFFFFFFFFFFFF AND DUP2 MSTORE PUSH1 0x20 ADD SWAP1 DUP2 MSTORE PUSH1 0x20 ADD PUSH0 KECCAK256 PUSH0 SWAP1 SLOAD SWAP1 PUSH2 0x100 EXP SWAP1 DIV PUSH20 0xFFFFFFFFFFFFFFFFFFFFFFFFFFFFFFFFFFFFFFFF AND PUSH20 0xFFFFFFFFFFFFFFFFFFFFFFFFFFFFFFFFFFFFFFFF AND PUSH20 0xFFFFFFFFFFFFFFFFFFFFFFFFFFFFFFFFFFFFFFFF AND DUP2 MSTORE PUSH1 0x20 ADD SWAP1 DUP2 MSTORE PUSH1 0x20 ADD PUSH0 KECCAK256 SLOAD DUP2 LT JUMPDEST ISZERO PUSH2 0x7D4 JUMPI CALLER PUSH1 0x4 PUSH0 DUP5 PUSH20 0xFFFFFFFFFFFFFFFFFFFFFFFFFFFFFFFFFFFFFFFF AND PUSH20 0xFFFFFFFFFFFFFFFFFFFFFFFFFFFFFFFFFFFFFFFF AND DUP2 MSTORE PUSH1 0x20 ADD SWAP1 DUP2 MSTORE PUSH1 0x20 ADD PUSH0 KECCAK256 PUSH0 PUSH2 0x100 EXP DUP2 SLOAD DUP2 PUSH20 0xFFFFFFFFFFFFFFFFFFFFFFFFFFFFFFFFFFFFFFFF MUL NOT AND SWAP1 DUP4 PUSH20 0xFFFFFFFFFFFFFFFFFFFFFFFFFFFFFFFFFFFFFFFF AND MUL OR SWAP1 SSTORE POP JUMPDEST NUMBER PUSH1 0x2 PUSH0 CALLER PUSH20 0xFFFFFFFFFFFFFFFFFFFFFFFFFFFFFFFFFFFFFFFF AND PUSH20 0xFFFFFFFFFFFFFFFFFFFFFFFFFFFFFFFFFFFFFFFF AND DUP2 MSTORE PUSH1 0x20 ADD SWAP1 DUP2 MSTORE PUSH1 0x20 ADD PUSH0 KECCAK256 DUP2 SWAP1 SSTORE POP DUP2 PUSH20 0xFFFFFFFFFFFFFFFFFFFFFFFFFFFFFFFFFFFFFFFF AND CALLER PUSH20 0xFFFFFFFFFFFFFFFFFFFFFFFFFFFFFFFFFFFFFFFF AND PUSH32 0x2CA21B65E3CCC37DD743B538848CA36739E5A8E5D8CFB36C08CCF9BFF7F89577 CALLER DUP5 PUSH1 0x3 PUSH1 0x40 MLOAD PUSH2 0x878 SWAP4 SWAP3 SWAP2 SWAP1 PUSH2 0xC19 JUMP JUMPDEST PUSH1 0x40 MLOAD DUP1 SWAP2 SUB SWAP1 LOG3 POP POP JUMP JUMPDEST PUSH0 DUP1 REVERT JUMPDEST PUSH0 PUSH20 0xFFFFFFFFFFFFFFFFFFFFFFFFFFFFFFFFFFFFFFFF DUP3 AND SWAP1 POP SWAP2 SWAP1 POP JUMP JUMPDEST PUSH0 PUSH2 0x8B1 DUP3 PUSH2 0x888 JUMP JUMPDEST SWAP1 POP SWAP2 SWAP1 POP JUMP JUMPDEST PUSH2 0x8C1 DUP2 PUSH2 0x8A7 JUMP JUMPDEST DUP2 EQ PUSH2 0x8CB JUMPI PUSH0 DUP1 REVERT JUMPDEST POP JUMP JUMPDEST PUSH0 DUP2 CALLDATALOAD SWAP1 POP PUSH2 0x8DC DUP2 PUSH2 0x8B8 JUMP JUMPDEST SWAP3 SWAP2 POP POP JUMP JUMPDEST PUSH0 DUP1 PUSH1 0x40 DUP4 DUP6 SUB SLT ISZERO PUSH2 0x8F8 JUMPI PUSH2 0x8F7 PUSH2 0x884 JUMP JUMPDEST JUMPDEST PUSH0 PUSH2 0x905 DUP6 DUP3 DUP7 ADD PUSH2 0x8CE JUMP JUMPDEST SWAP3 POP POP PUSH1 0x20 PUSH2 0x916 DUP6 DUP3 DUP7 ADD PUSH2 0x8CE JUMP JUMPDEST SWAP2 POP POP SWAP3 POP SWAP3 SWAP1 POP JUMP JUMPDEST PUSH0 DUP2 SWAP1 POP SWAP2 SWAP1 POP JUMP JUMPDEST PUSH2 0x932 DUP2 PUSH2 0x920 JUMP JUMPDEST DUP3 MSTORE POP POP JUMP JUMPDEST PUSH0 PUSH1 0x20 DUP3 ADD SWAP1 POP PUSH2 0x94B PUSH0 DUP4 ADD DUP5 PUSH2 0x929 JUMP JUMPDEST SWAP3 SWAP2 POP POP JUMP JUMPDEST PUSH0 DUP2 ISZERO ISZERO SWAP1 POP SWAP2 SWAP1 POP JUMP JUMPDEST PUSH2 0x965 DUP2 PUSH2 0x951 JUMP JUMPDEST DUP2 EQ PUSH2 0x96F JUMPI PUSH0 DUP1 REVERT JUMPDEST POP JUMP JUMPDEST PUSH0 DUP2 CALLDATALOAD SWAP1 POP PUSH2 0x980 DUP2 PUSH2 0x95C JUMP JUMPDEST SWAP3 SWAP2 POP POP JUMP JUMPDEST PUSH0 DUP1 PUSH1 0x40 DUP4 DUP6 SUB SLT ISZERO PUSH2 0x99C JUMPI PUSH2 0x99B PUSH2 0x884 JUMP JUMPDEST JUMPDEST PUSH0 PUSH2 0x9A9 DUP6 DUP3 DUP7 ADD PUSH2 0x8CE JUMP JUMPDEST SWAP3 POP POP PUSH1 0x20 PUSH2 0x9BA DUP6 DUP3 DUP7 ADD PUSH2 0x972 JUMP JUMPDEST SWAP2 POP POP SWAP3 POP SWAP3 SWAP1 POP JUMP JUMPDEST PUSH0 PUSH1 0x20 DUP3 DUP5 SUB SLT ISZERO PUSH2 0x9D9 JUMPI PUSH2 0x9D8 PUSH2 0x884 JUMP JUMPDEST JUMPDEST PUSH0 PUSH2 0x9E6 DUP5 DUP3 DUP6 ADD PUSH2 0x8CE JUMP JUMPDEST SWAP2 POP POP SWAP3 SWAP2 POP POP JUMP JUMPDEST PUSH2 0x9F8 DUP2 PUSH2 0x951 JUMP JUMPDEST DUP3 MSTORE POP POP JUMP JUMPDEST PUSH0 PUSH1 0x20 DUP3 ADD SWAP1 POP PUSH2 0xA11 PUSH0 DUP4 ADD DUP5 PUSH2 0x9EF JUMP JUMPDEST SWAP3 SWAP2 POP POP JUMP JUMPDEST PUSH2 0xA20 DUP2 PUSH2 0x8A7 JUMP JUMPDEST DUP3 MSTORE POP POP JUMP JUMPDEST PUSH0 PUSH1 0x40 DUP3 ADD SWAP1 POP PUSH2 0xA39 PUSH0 DUP4 ADD DUP6 PUSH2 0xA17 JUMP JUMPDEST PUSH2 0xA46 PUSH1 0x20 DUP4 ADD DUP5 PUSH2 0x929 JUMP JUMPDEST SWAP4 SWAP3 POP POP POP JUMP JUMPDEST PUSH0 PUSH1 0x20 DUP3 ADD SWAP1 POP PUSH2 0xA60 PUSH0 DUP4 ADD DUP5 PUSH2 0xA17 JUMP JUMPDEST SWAP3 SWAP2 POP POP JUMP JUMPDEST PUSH2 0xA6F DUP2 PUSH2 0x920 JUMP JUMPDEST DUP2 EQ PUSH2 0xA79 JUMPI PUSH0 DUP1 REVERT JUMPDEST POP JUMP JUMPDEST PUSH0 DUP2 CALLDATALOAD SWAP1 POP PUSH2 0xA8A DUP2 PUSH2 0xA66 JUMP JUMPDEST SWAP3 SWAP2 POP POP JUMP JUMPDEST PUSH0 DUP1 PUSH1 0x40 DUP4 DUP6 SUB SLT ISZERO PUSH2 0xAA6 JUMPI PUSH2 0xAA5 PUSH2 0x884 JUMP JUMPDEST JUMPDEST PUSH0 PUSH2 0xAB3 DUP6 DUP3 DUP7 ADD PUSH2 0x8CE JUMP JUMPDEST SWAP3 POP POP PUSH1 0x20 PUSH2 0xAC4 DUP6 DUP3 DUP7 ADD PUSH2 0xA7C JUMP JUMPDEST SWAP2 POP POP SWAP3 POP SWAP3 SWAP1 POP JUMP JUMPDEST PUSH0 DUP3 DUP3 MSTORE PUSH1 0x20 DUP3 ADD SWAP1 POP SWAP3 SWAP2 POP POP JUMP JUMPDEST PUSH32 0x6F6E6C79206F776E657200000000000000000000000000000000000000000000 PUSH0 DUP3 ADD MSTORE POP JUMP JUMPDEST PUSH0 PUSH2 0xB12 PUSH1 0xA DUP4 PUSH2 0xACE JUMP JUMPDEST SWAP2 POP PUSH2 0xB1D DUP3 PUSH2 0xADE JUMP JUMPDEST PUSH1 0x20 DUP3 ADD SWAP1 POP SWAP2 SWAP1 POP JUMP JUMPDEST PUSH0 PUSH1 0x20 DUP3 ADD SWAP1 POP DUP2 DUP2 SUB PUSH0 DUP4 ADD MSTORE PUSH2 0xB3F DUP2 PUSH2 0xB06 JUMP JUMPDEST SWAP1 POP SWAP2 SWAP1 POP JUMP JUMPDEST PUSH32 0x4E487B7100000000000000000000000000000000000000000000000000000000 PUSH0 MSTORE PUSH1 0x11 PUSH1 0x4 MSTORE PUSH1 0x24 PUSH0 REVERT JUMPDEST PUSH0 PUSH2 0xB7D DUP3 PUSH2 0x920 JUMP JUMPDEST SWAP2 POP PUSH2 0xB88 DUP4 PUSH2 0x920 JUMP JUMPDEST SWAP3 POP DUP3 DUP3 ADD SWAP1 POP DUP1 DUP3 GT ISZERO PUSH2 0xBA0 JUMPI PUSH2 0xB9F PUSH2 0xB46 JUMP JUMPDEST JUMPDEST SWAP3 SWAP2 POP POP JUMP JUMPDEST PUSH32 0x4E487B7100000000000000000000000000000000000000000000000000000000 PUSH0 MSTORE PUSH1 0x21 PUSH1 0x4 MSTORE PUSH1 0x24 PUSH0 REVERT JUMPDEST PUSH1 0x4 DUP2 LT PUSH2 0xBE4 JUMPI PUSH2 0xBE3 PUSH2 0xBA6 JUMP JUMPDEST JUMPDEST POP JUMP JUMPDEST PUSH0 DUP2 SWAP1 POP PUSH2 0xBF4 DUP3 PUSH2 0xBD3 JUMP JUMPDEST SWAP2 SWAP1 POP JUMP JUMPDEST PUSH0 PUSH2 0xC03 DUP3 PUSH2 0xBE7 JUMP JUMPDEST SWAP1 POP SWAP2 SWAP1 POP JUMP JUMPDEST PUSH2 0xC13 DUP2 PUSH2 0xBF9 JUMP JUMPDEST DUP3 MSTORE POP POP JUMP JUMPDEST PUSH0 PUSH1 0x60 DUP3 ADD SWAP1 POP PUSH2 0xC2C PUSH0 DUP4 ADD DUP7 PUSH2 0xA17 JUMP JUMPDEST PUSH2 0xC39 PUSH1 0x20 DUP4 ADD DUP6 PUSH2 0x929 JUMP JUMPDEST PUSH2 0xC46 PUSH1 0x40 DUP4 ADD DUP5 PUSH2 0xC0A JUMP JUMPDEST SWAP5 SWAP4 POP POP POP POP JUMP INVALID LOG2 PUSH5 0x6970667358 0x22 SLT KECCAK256 0xDC 0xE LOG4 RETURNDATASIZE SWAP15 0xEE DUP10 PUSH8 0x5A505EDC79822470 PUSH20 0x9413FE641A4838CE06E9372DA392A364736F6C63 NUMBER STOP ADDMOD BYTE STOP CALLER "
				},
				"gasEstimates": {
					"creation": {
						"codeDepositCost": "640800",
						"executionCost": "24939",
						"totalCost": "665739"
					},
					"external": {
						"HOLD_DOWN_BLOCKS()": "369",
						"bestHop(address)": "infinite",
						"getRoute(address)": "infinite",
						"lastUpdateBlock(address)": "2847",
						"neighbors(address)": "2900",
						"owner()": "2571",
						"setNeighbor(address,bool)": "27169",
						"table(address,address)": "infinite",
						"updateRoute(address,uint256)": "infinite"
					}
				},
				"methodIdentifiers": {
					"HOLD_DOWN_BLOCKS()": "8c5a110f",
					"bestHop(address)": "605b5f4e",
					"getRoute(address)": "481fd65c",
					"lastUpdateBlock(address)": "32a8aa67",
					"neighbors(address)": "3a182a9d",
					"owner()": "8da5cb5b",
					"setNeighbor(address,bool)": "2f499378",
					"table(address,address)": "1d8d4176",
					"updateRoute(address,uint256)": "d5621bff"
				}
			},
			"storageLayout": {
				"storage": [
					{
						"astId": 282,
						"contract": "D/Distance Vector/Distance Vector.sol:DistanceVectorSafeAdvanced",
						"label": "owner",
						"offset": 0,
						"slot": "0",
						"type": "t_address"
					},
					{
						"astId": 286,
						"contract": "D/Distance Vector/Distance Vector.sol:DistanceVectorSafeAdvanced",
						"label": "neighbors",
						"offset": 0,
						"slot": "1",
						"type": "t_mapping(t_address,t_bool)"
					},
					{
						"astId": 290,
						"contract": "D/Distance Vector/Distance Vector.sol:DistanceVectorSafeAdvanced",
						"label": "lastUpdateBlock",
						"offset": 0,
						"slot": "2",
						"type": "t_mapping(t_address,t_uint256)"
					},
					{
						"astId": 296,
						"contract": "D/Distance Vector/Distance Vector.sol:DistanceVectorSafeAdvanced",
						"label": "table",
						"offset": 0,
						"slot": "3",
						"type": "t_mapping(t_address,t_mapping(t_address,t_uint256))"
					},
					{
						"astId": 300,
						"contract": "D/Distance Vector/Distance Vector.sol:DistanceVectorSafeAdvanced",
						"label": "bestHop",
						"offset": 0,
						"slot": "4",
						"type": "t_mapping(t_address,t_address)"
					}
				],
				"types": {
					"t_address": {
						"encoding": "inplace",
						"label": "address",
						"numberOfBytes": "20"
					},
					"t_bool": {
						"encoding": "inplace",
						"label": "bool",
						"numberOfBytes": "1"
					},
					"t_mapping(t_address,t_address)": {
						"encoding": "mapping",
						"key": "t_address",
						"label": "mapping(address => address)",
						"numberOfBytes": "32",
						"value": "t_address"
					},
					"t_mapping(t_address,t_bool)": {
						"encoding": "mapping",
						"key": "t_address",
						"label": "mapping(address => bool)",
						"numberOfBytes": "32",
						"value": "t_bool"
					},
					"t_mapping(t_address,t_mapping(t_address,t_uint256))": {
						"encoding": "mapping",
						"key": "t_address",
						"label": "mapping(address => mapping(address => uint256))",
						"numberOfBytes": "32",
						"value": "t_mapping(t_address,t_uint256)"
					},
					"t_mapping(t_address,t_uint256)": {
						"encoding": "mapping",
						"key": "t_address",
						"label": "mapping(address => uint256)",
						"numberOfBytes": "32",
						"value": "t_uint256"
					},
					"t_uint256": {
						"encoding": "inplace",
						"label": "uint256",
						"numberOfBytes": "32"
					}
				}
			},
			"userdoc": {
				"kind": "user",
				"methods": {
					"getRoute(address)": {
						"notice": "view current best metric and next hop for a dest"
					},
					"setNeighbor(address,bool)": {
						"notice": "owner manages trusted neighbors"
					},
					"updateRoute(address,uint256)": {
						"notice": "✅ only authenticated neighbors + hold‑down timer"
					}
				},
				"notice": "───────────────────────────────────────────────────────────────────────────── 4) ADVANCED SAFE WITH AUTHENTICATED UPDATES + HOLD‑DOWN TIMERS    • Defense: AuthenticatedUpdate – only whitelisted neighbors                 HoldDownTimer – reject flapping updates too frequently ─────────────────────────────────────────────────────────────────────────────",
				"version": 1
			}
		}
	}
}