{
	"O/Octet/OctetMaskAccess.sol": {
		"OctetMaskAccess": {
			"abi": [
				{
					"inputs": [
						{
							"internalType": "address",
							"name": "",
							"type": "address"
						}
					],
					"name": "accessLevel",
					"outputs": [
						{
							"internalType": "uint8",
							"name": "",
							"type": "uint8"
						}
					],
					"stateMutability": "view",
					"type": "function"
				},
				{
					"inputs": [
						{
							"internalType": "address",
							"name": "user",
							"type": "address"
						}
					],
					"name": "isAdmin",
					"outputs": [
						{
							"internalType": "bool",
							"name": "",
							"type": "bool"
						}
					],
					"stateMutability": "view",
					"type": "function"
				},
				{
					"inputs": [
						{
							"internalType": "address",
							"name": "user",
							"type": "address"
						}
					],
					"name": "isUser",
					"outputs": [
						{
							"internalType": "bool",
							"name": "",
							"type": "bool"
						}
					],
					"stateMutability": "view",
					"type": "function"
				},
				{
					"inputs": [
						{
							"internalType": "address",
							"name": "user",
							"type": "address"
						},
						{
							"internalType": "uint8",
							"name": "octet",
							"type": "uint8"
						}
					],
					"name": "setAccess",
					"outputs": [],
					"stateMutability": "nonpayable",
					"type": "function"
				}
			],
			"devdoc": {
				"kind": "dev",
				"methods": {},
				"version": 1
			},
			"evm": {
				"assembly": "    /* \"O/Octet/OctetMaskAccess.sol\":58:664  contract OctetMaskAccess {... */\n  mstore(0x40, 0x80)\n  callvalue\n  dup1\n  iszero\n  tag_1\n  jumpi\n  0x00\n  dup1\n  revert\ntag_1:\n  pop\n  dataSize(sub_0)\n  dup1\n  dataOffset(sub_0)\n  0x00\n  codecopy\n  0x00\n  return\nstop\n\nsub_0: assembly {\n        /* \"O/Octet/OctetMaskAccess.sol\":58:664  contract OctetMaskAccess {... */\n      mstore(0x40, 0x80)\n      callvalue\n      dup1\n      iszero\n      tag_1\n      jumpi\n      0x00\n      dup1\n      revert\n    tag_1:\n      pop\n      jumpi(tag_2, lt(calldatasize, 0x04))\n      shr(0xe0, calldataload(0x00))\n      dup1\n      0x1560ad10\n      eq\n      tag_3\n      jumpi\n      dup1\n      0x24d7806c\n      eq\n      tag_4\n      jumpi\n      dup1\n      0x2f259a00\n      eq\n      tag_5\n      jumpi\n      dup1\n      0x4209fff1\n      eq\n      tag_6\n      jumpi\n    tag_2:\n      0x00\n      dup1\n      revert\n        /* \"O/Octet/OctetMaskAccess.sol\":249:416  function setAccess(address user, uint8 octet) external {... */\n    tag_3:\n      tag_7\n      0x04\n      dup1\n      calldatasize\n      sub\n      dup2\n      add\n      swap1\n      tag_8\n      swap2\n      swap1\n      tag_9\n      jump\t// in\n    tag_8:\n      tag_10\n      jump\t// in\n    tag_7:\n      stop\n        /* \"O/Octet/OctetMaskAccess.sol\":422:540  function isAdmin(address user) public view returns (bool) {... */\n    tag_4:\n      tag_11\n      0x04\n      dup1\n      calldatasize\n      sub\n      dup2\n      add\n      swap1\n      tag_12\n      swap2\n      swap1\n      tag_13\n      jump\t// in\n    tag_12:\n      tag_14\n      jump\t// in\n    tag_11:\n      mload(0x40)\n      tag_15\n      swap2\n      swap1\n      tag_16\n      jump\t// in\n    tag_15:\n      mload(0x40)\n      dup1\n      swap2\n      sub\n      swap1\n      return\n        /* \"O/Octet/OctetMaskAccess.sol\":198:242  mapping(address => uint8) public accessLevel */\n    tag_5:\n      tag_17\n      0x04\n      dup1\n      calldatasize\n      sub\n      dup2\n      add\n      swap1\n      tag_18\n      swap2\n      swap1\n      tag_13\n      jump\t// in\n    tag_18:\n      tag_19\n      jump\t// in\n    tag_17:\n      mload(0x40)\n      tag_20\n      swap2\n      swap1\n      tag_21\n      jump\t// in\n    tag_20:\n      mload(0x40)\n      dup1\n      swap2\n      sub\n      swap1\n      return\n        /* \"O/Octet/OctetMaskAccess.sol\":546:662  function isUser(address user) public view returns (bool) {... */\n    tag_6:\n      tag_22\n      0x04\n      dup1\n      calldatasize\n      sub\n      dup2\n      add\n      swap1\n      tag_23\n      swap2\n      swap1\n      tag_13\n      jump\t// in\n    tag_23:\n      tag_24\n      jump\t// in\n    tag_22:\n      mload(0x40)\n      tag_25\n      swap2\n      swap1\n      tag_16\n      jump\t// in\n    tag_25:\n      mload(0x40)\n      dup1\n      swap2\n      sub\n      swap1\n      return\n        /* \"O/Octet/OctetMaskAccess.sol\":249:416  function setAccess(address user, uint8 octet) external {... */\n    tag_10:\n        /* \"O/Octet/OctetMaskAccess.sol\":331:335  0xFF */\n      0xff\n        /* \"O/Octet/OctetMaskAccess.sol\":322:327  octet */\n      dup2\n        /* \"O/Octet/OctetMaskAccess.sol\":322:335  octet <= 0xFF */\n      0xff\n      and\n      gt\n      iszero\n        /* \"O/Octet/OctetMaskAccess.sol\":314:353  require(octet <= 0xFF, \"Invalid octet\") */\n      tag_27\n      jumpi\n      mload(0x40)\n      0x08c379a000000000000000000000000000000000000000000000000000000000\n      dup2\n      mstore\n      0x04\n      add\n      tag_28\n      swap1\n      tag_29\n      jump\t// in\n    tag_28:\n      mload(0x40)\n      dup1\n      swap2\n      sub\n      swap1\n      revert\n    tag_27:\n        /* \"O/Octet/OctetMaskAccess.sol\":404:409  octet */\n      dup1\n        /* \"O/Octet/OctetMaskAccess.sol\":384:395  accessLevel */\n      0x00\n        /* \"O/Octet/OctetMaskAccess.sol\":384:401  accessLevel[user] */\n      dup1\n        /* \"O/Octet/OctetMaskAccess.sol\":396:400  user */\n      dup5\n        /* \"O/Octet/OctetMaskAccess.sol\":384:401  accessLevel[user] */\n      0xffffffffffffffffffffffffffffffffffffffff\n      and\n      0xffffffffffffffffffffffffffffffffffffffff\n      and\n      dup2\n      mstore\n      0x20\n      add\n      swap1\n      dup2\n      mstore\n      0x20\n      add\n      0x00\n      keccak256\n      0x00\n        /* \"O/Octet/OctetMaskAccess.sol\":384:409  accessLevel[user] = octet */\n      0x0100\n      exp\n      dup2\n      sload\n      dup2\n      0xff\n      mul\n      not\n      and\n      swap1\n      dup4\n      0xff\n      and\n      mul\n      or\n      swap1\n      sstore\n      pop\n        /* \"O/Octet/OctetMaskAccess.sol\":249:416  function setAccess(address user, uint8 octet) external {... */\n      pop\n      pop\n      jump\t// out\n        /* \"O/Octet/OctetMaskAccess.sol\":422:540  function isAdmin(address user) public view returns (bool) {... */\n    tag_14:\n        /* \"O/Octet/OctetMaskAccess.sol\":474:478  bool */\n      0x00\n        /* \"O/Octet/OctetMaskAccess.sol\":532:533  0 */\n      dup1\n        /* \"O/Octet/OctetMaskAccess.sol\":117:121  0xF0 */\n      0xf0\n        /* \"O/Octet/OctetMaskAccess.sol\":498:509  accessLevel */\n      0x00\n        /* \"O/Octet/OctetMaskAccess.sol\":498:515  accessLevel[user] */\n      dup1\n        /* \"O/Octet/OctetMaskAccess.sol\":510:514  user */\n      dup6\n        /* \"O/Octet/OctetMaskAccess.sol\":498:515  accessLevel[user] */\n      0xffffffffffffffffffffffffffffffffffffffff\n      and\n      0xffffffffffffffffffffffffffffffffffffffff\n      and\n      dup2\n      mstore\n      0x20\n      add\n      swap1\n      dup2\n      mstore\n      0x20\n      add\n      0x00\n      keccak256\n      0x00\n      swap1\n      sload\n      swap1\n      0x0100\n      exp\n      swap1\n      div\n      0xff\n      and\n        /* \"O/Octet/OctetMaskAccess.sol\":498:528  accessLevel[user] & ADMIN_MASK */\n      and\n        /* \"O/Octet/OctetMaskAccess.sol\":497:533  (accessLevel[user] & ADMIN_MASK) > 0 */\n      0xff\n      and\n      gt\n        /* \"O/Octet/OctetMaskAccess.sol\":490:533  return (accessLevel[user] & ADMIN_MASK) > 0 */\n      swap1\n      pop\n        /* \"O/Octet/OctetMaskAccess.sol\":422:540  function isAdmin(address user) public view returns (bool) {... */\n      swap2\n      swap1\n      pop\n      jump\t// out\n        /* \"O/Octet/OctetMaskAccess.sol\":198:242  mapping(address => uint8) public accessLevel */\n    tag_19:\n      mstore(0x20, 0x00)\n      dup1\n      0x00\n      mstore\n      keccak256(0x00, 0x40)\n      0x00\n      swap2\n      pop\n      sload\n      swap1\n      0x0100\n      exp\n      swap1\n      div\n      0xff\n      and\n      dup2\n      jump\t// out\n        /* \"O/Octet/OctetMaskAccess.sol\":546:662  function isUser(address user) public view returns (bool) {... */\n    tag_24:\n        /* \"O/Octet/OctetMaskAccess.sol\":597:601  bool */\n      0x00\n        /* \"O/Octet/OctetMaskAccess.sol\":654:655  0 */\n      dup1\n        /* \"O/Octet/OctetMaskAccess.sol\":171:175  0x0F */\n      0x0f\n        /* \"O/Octet/OctetMaskAccess.sol\":621:632  accessLevel */\n      0x00\n        /* \"O/Octet/OctetMaskAccess.sol\":621:638  accessLevel[user] */\n      dup1\n        /* \"O/Octet/OctetMaskAccess.sol\":633:637  user */\n      dup6\n        /* \"O/Octet/OctetMaskAccess.sol\":621:638  accessLevel[user] */\n      0xffffffffffffffffffffffffffffffffffffffff\n      and\n      0xffffffffffffffffffffffffffffffffffffffff\n      and\n      dup2\n      mstore\n      0x20\n      add\n      swap1\n      dup2\n      mstore\n      0x20\n      add\n      0x00\n      keccak256\n      0x00\n      swap1\n      sload\n      swap1\n      0x0100\n      exp\n      swap1\n      div\n      0xff\n      and\n        /* \"O/Octet/OctetMaskAccess.sol\":621:650  accessLevel[user] & USER_MASK */\n      and\n        /* \"O/Octet/OctetMaskAccess.sol\":620:655  (accessLevel[user] & USER_MASK) > 0 */\n      0xff\n      and\n      gt\n        /* \"O/Octet/OctetMaskAccess.sol\":613:655  return (accessLevel[user] & USER_MASK) > 0 */\n      swap1\n      pop\n        /* \"O/Octet/OctetMaskAccess.sol\":546:662  function isUser(address user) public view returns (bool) {... */\n      swap2\n      swap1\n      pop\n      jump\t// out\n        /* \"#utility.yul\":88:205   */\n    tag_33:\n        /* \"#utility.yul\":197:198   */\n      0x00\n        /* \"#utility.yul\":194:195   */\n      dup1\n        /* \"#utility.yul\":187:199   */\n      revert\n        /* \"#utility.yul\":334:460   */\n    tag_35:\n        /* \"#utility.yul\":371:378   */\n      0x00\n        /* \"#utility.yul\":411:453   */\n      0xffffffffffffffffffffffffffffffffffffffff\n        /* \"#utility.yul\":404:409   */\n      dup3\n        /* \"#utility.yul\":400:454   */\n      and\n        /* \"#utility.yul\":389:454   */\n      swap1\n      pop\n        /* \"#utility.yul\":334:460   */\n      swap2\n      swap1\n      pop\n      jump\t// out\n        /* \"#utility.yul\":466:562   */\n    tag_36:\n        /* \"#utility.yul\":503:510   */\n      0x00\n        /* \"#utility.yul\":532:556   */\n      tag_54\n        /* \"#utility.yul\":550:555   */\n      dup3\n        /* \"#utility.yul\":532:556   */\n      tag_35\n      jump\t// in\n    tag_54:\n        /* \"#utility.yul\":521:556   */\n      swap1\n      pop\n        /* \"#utility.yul\":466:562   */\n      swap2\n      swap1\n      pop\n      jump\t// out\n        /* \"#utility.yul\":568:690   */\n    tag_37:\n        /* \"#utility.yul\":641:665   */\n      tag_56\n        /* \"#utility.yul\":659:664   */\n      dup2\n        /* \"#utility.yul\":641:665   */\n      tag_36\n      jump\t// in\n    tag_56:\n        /* \"#utility.yul\":634:639   */\n      dup2\n        /* \"#utility.yul\":631:666   */\n      eq\n        /* \"#utility.yul\":621:684   */\n      tag_57\n      jumpi\n        /* \"#utility.yul\":680:681   */\n      0x00\n        /* \"#utility.yul\":677:678   */\n      dup1\n        /* \"#utility.yul\":670:682   */\n      revert\n        /* \"#utility.yul\":621:684   */\n    tag_57:\n        /* \"#utility.yul\":568:690   */\n      pop\n      jump\t// out\n        /* \"#utility.yul\":696:835   */\n    tag_38:\n        /* \"#utility.yul\":742:747   */\n      0x00\n        /* \"#utility.yul\":780:786   */\n      dup2\n        /* \"#utility.yul\":767:787   */\n      calldataload\n        /* \"#utility.yul\":758:787   */\n      swap1\n      pop\n        /* \"#utility.yul\":796:829   */\n      tag_59\n        /* \"#utility.yul\":823:828   */\n      dup2\n        /* \"#utility.yul\":796:829   */\n      tag_37\n      jump\t// in\n    tag_59:\n        /* \"#utility.yul\":696:835   */\n      swap3\n      swap2\n      pop\n      pop\n      jump\t// out\n        /* \"#utility.yul\":841:927   */\n    tag_39:\n        /* \"#utility.yul\":876:883   */\n      0x00\n        /* \"#utility.yul\":916:920   */\n      0xff\n        /* \"#utility.yul\":909:914   */\n      dup3\n        /* \"#utility.yul\":905:921   */\n      and\n        /* \"#utility.yul\":894:921   */\n      swap1\n      pop\n        /* \"#utility.yul\":841:927   */\n      swap2\n      swap1\n      pop\n      jump\t// out\n        /* \"#utility.yul\":933:1051   */\n    tag_40:\n        /* \"#utility.yul\":1004:1026   */\n      tag_62\n        /* \"#utility.yul\":1020:1025   */\n      dup2\n        /* \"#utility.yul\":1004:1026   */\n      tag_39\n      jump\t// in\n    tag_62:\n        /* \"#utility.yul\":997:1002   */\n      dup2\n        /* \"#utility.yul\":994:1027   */\n      eq\n        /* \"#utility.yul\":984:1045   */\n      tag_63\n      jumpi\n        /* \"#utility.yul\":1041:1042   */\n      0x00\n        /* \"#utility.yul\":1038:1039   */\n      dup1\n        /* \"#utility.yul\":1031:1043   */\n      revert\n        /* \"#utility.yul\":984:1045   */\n    tag_63:\n        /* \"#utility.yul\":933:1051   */\n      pop\n      jump\t// out\n        /* \"#utility.yul\":1057:1192   */\n    tag_41:\n        /* \"#utility.yul\":1101:1106   */\n      0x00\n        /* \"#utility.yul\":1139:1145   */\n      dup2\n        /* \"#utility.yul\":1126:1146   */\n      calldataload\n        /* \"#utility.yul\":1117:1146   */\n      swap1\n      pop\n        /* \"#utility.yul\":1155:1186   */\n      tag_65\n        /* \"#utility.yul\":1180:1185   */\n      dup2\n        /* \"#utility.yul\":1155:1186   */\n      tag_40\n      jump\t// in\n    tag_65:\n        /* \"#utility.yul\":1057:1192   */\n      swap3\n      swap2\n      pop\n      pop\n      jump\t// out\n        /* \"#utility.yul\":1198:1668   */\n    tag_9:\n        /* \"#utility.yul\":1264:1270   */\n      0x00\n        /* \"#utility.yul\":1272:1278   */\n      dup1\n        /* \"#utility.yul\":1321:1323   */\n      0x40\n        /* \"#utility.yul\":1309:1318   */\n      dup4\n        /* \"#utility.yul\":1300:1307   */\n      dup6\n        /* \"#utility.yul\":1296:1319   */\n      sub\n        /* \"#utility.yul\":1292:1324   */\n      slt\n        /* \"#utility.yul\":1289:1408   */\n      iszero\n      tag_67\n      jumpi\n        /* \"#utility.yul\":1327:1406   */\n      tag_68\n      tag_33\n      jump\t// in\n    tag_68:\n        /* \"#utility.yul\":1289:1408   */\n    tag_67:\n        /* \"#utility.yul\":1447:1448   */\n      0x00\n        /* \"#utility.yul\":1472:1525   */\n      tag_69\n        /* \"#utility.yul\":1517:1524   */\n      dup6\n        /* \"#utility.yul\":1508:1514   */\n      dup3\n        /* \"#utility.yul\":1497:1506   */\n      dup7\n        /* \"#utility.yul\":1493:1515   */\n      add\n        /* \"#utility.yul\":1472:1525   */\n      tag_38\n      jump\t// in\n    tag_69:\n        /* \"#utility.yul\":1462:1525   */\n      swap3\n      pop\n        /* \"#utility.yul\":1418:1535   */\n      pop\n        /* \"#utility.yul\":1574:1576   */\n      0x20\n        /* \"#utility.yul\":1600:1651   */\n      tag_70\n        /* \"#utility.yul\":1643:1650   */\n      dup6\n        /* \"#utility.yul\":1634:1640   */\n      dup3\n        /* \"#utility.yul\":1623:1632   */\n      dup7\n        /* \"#utility.yul\":1619:1641   */\n      add\n        /* \"#utility.yul\":1600:1651   */\n      tag_41\n      jump\t// in\n    tag_70:\n        /* \"#utility.yul\":1590:1651   */\n      swap2\n      pop\n        /* \"#utility.yul\":1545:1661   */\n      pop\n        /* \"#utility.yul\":1198:1668   */\n      swap3\n      pop\n      swap3\n      swap1\n      pop\n      jump\t// out\n        /* \"#utility.yul\":1674:2003   */\n    tag_13:\n        /* \"#utility.yul\":1733:1739   */\n      0x00\n        /* \"#utility.yul\":1782:1784   */\n      0x20\n        /* \"#utility.yul\":1770:1779   */\n      dup3\n        /* \"#utility.yul\":1761:1768   */\n      dup5\n        /* \"#utility.yul\":1757:1780   */\n      sub\n        /* \"#utility.yul\":1753:1785   */\n      slt\n        /* \"#utility.yul\":1750:1869   */\n      iszero\n      tag_72\n      jumpi\n        /* \"#utility.yul\":1788:1867   */\n      tag_73\n      tag_33\n      jump\t// in\n    tag_73:\n        /* \"#utility.yul\":1750:1869   */\n    tag_72:\n        /* \"#utility.yul\":1908:1909   */\n      0x00\n        /* \"#utility.yul\":1933:1986   */\n      tag_74\n        /* \"#utility.yul\":1978:1985   */\n      dup5\n        /* \"#utility.yul\":1969:1975   */\n      dup3\n        /* \"#utility.yul\":1958:1967   */\n      dup6\n        /* \"#utility.yul\":1954:1976   */\n      add\n        /* \"#utility.yul\":1933:1986   */\n      tag_38\n      jump\t// in\n    tag_74:\n        /* \"#utility.yul\":1923:1986   */\n      swap2\n      pop\n        /* \"#utility.yul\":1879:1996   */\n      pop\n        /* \"#utility.yul\":1674:2003   */\n      swap3\n      swap2\n      pop\n      pop\n      jump\t// out\n        /* \"#utility.yul\":2009:2099   */\n    tag_42:\n        /* \"#utility.yul\":2043:2050   */\n      0x00\n        /* \"#utility.yul\":2086:2091   */\n      dup2\n        /* \"#utility.yul\":2079:2092   */\n      iszero\n        /* \"#utility.yul\":2072:2093   */\n      iszero\n        /* \"#utility.yul\":2061:2093   */\n      swap1\n      pop\n        /* \"#utility.yul\":2009:2099   */\n      swap2\n      swap1\n      pop\n      jump\t// out\n        /* \"#utility.yul\":2105:2214   */\n    tag_43:\n        /* \"#utility.yul\":2186:2207   */\n      tag_77\n        /* \"#utility.yul\":2201:2206   */\n      dup2\n        /* \"#utility.yul\":2186:2207   */\n      tag_42\n      jump\t// in\n    tag_77:\n        /* \"#utility.yul\":2181:2184   */\n      dup3\n        /* \"#utility.yul\":2174:2208   */\n      mstore\n        /* \"#utility.yul\":2105:2214   */\n      pop\n      pop\n      jump\t// out\n        /* \"#utility.yul\":2220:2430   */\n    tag_16:\n        /* \"#utility.yul\":2307:2311   */\n      0x00\n        /* \"#utility.yul\":2345:2347   */\n      0x20\n        /* \"#utility.yul\":2334:2343   */\n      dup3\n        /* \"#utility.yul\":2330:2348   */\n      add\n        /* \"#utility.yul\":2322:2348   */\n      swap1\n      pop\n        /* \"#utility.yul\":2358:2423   */\n      tag_79\n        /* \"#utility.yul\":2420:2421   */\n      0x00\n        /* \"#utility.yul\":2409:2418   */\n      dup4\n        /* \"#utility.yul\":2405:2422   */\n      add\n        /* \"#utility.yul\":2396:2402   */\n      dup5\n        /* \"#utility.yul\":2358:2423   */\n      tag_43\n      jump\t// in\n    tag_79:\n        /* \"#utility.yul\":2220:2430   */\n      swap3\n      swap2\n      pop\n      pop\n      jump\t// out\n        /* \"#utility.yul\":2436:2548   */\n    tag_44:\n        /* \"#utility.yul\":2519:2541   */\n      tag_81\n        /* \"#utility.yul\":2535:2540   */\n      dup2\n        /* \"#utility.yul\":2519:2541   */\n      tag_39\n      jump\t// in\n    tag_81:\n        /* \"#utility.yul\":2514:2517   */\n      dup3\n        /* \"#utility.yul\":2507:2542   */\n      mstore\n        /* \"#utility.yul\":2436:2548   */\n      pop\n      pop\n      jump\t// out\n        /* \"#utility.yul\":2554:2768   */\n    tag_21:\n        /* \"#utility.yul\":2643:2647   */\n      0x00\n        /* \"#utility.yul\":2681:2683   */\n      0x20\n        /* \"#utility.yul\":2670:2679   */\n      dup3\n        /* \"#utility.yul\":2666:2684   */\n      add\n        /* \"#utility.yul\":2658:2684   */\n      swap1\n      pop\n        /* \"#utility.yul\":2694:2761   */\n      tag_83\n        /* \"#utility.yul\":2758:2759   */\n      0x00\n        /* \"#utility.yul\":2747:2756   */\n      dup4\n        /* \"#utility.yul\":2743:2760   */\n      add\n        /* \"#utility.yul\":2734:2740   */\n      dup5\n        /* \"#utility.yul\":2694:2761   */\n      tag_44\n      jump\t// in\n    tag_83:\n        /* \"#utility.yul\":2554:2768   */\n      swap3\n      swap2\n      pop\n      pop\n      jump\t// out\n        /* \"#utility.yul\":2774:2943   */\n    tag_45:\n        /* \"#utility.yul\":2858:2869   */\n      0x00\n        /* \"#utility.yul\":2892:2898   */\n      dup3\n        /* \"#utility.yul\":2887:2890   */\n      dup3\n        /* \"#utility.yul\":2880:2899   */\n      mstore\n        /* \"#utility.yul\":2932:2936   */\n      0x20\n        /* \"#utility.yul\":2927:2930   */\n      dup3\n        /* \"#utility.yul\":2923:2937   */\n      add\n        /* \"#utility.yul\":2908:2937   */\n      swap1\n      pop\n        /* \"#utility.yul\":2774:2943   */\n      swap3\n      swap2\n      pop\n      pop\n      jump\t// out\n        /* \"#utility.yul\":2949:3112   */\n    tag_46:\n        /* \"#utility.yul\":3089:3104   */\n      0x496e76616c6964206f6374657400000000000000000000000000000000000000\n        /* \"#utility.yul\":3085:3086   */\n      0x00\n        /* \"#utility.yul\":3077:3083   */\n      dup3\n        /* \"#utility.yul\":3073:3087   */\n      add\n        /* \"#utility.yul\":3066:3105   */\n      mstore\n        /* \"#utility.yul\":2949:3112   */\n      pop\n      jump\t// out\n        /* \"#utility.yul\":3118:3484   */\n    tag_47:\n        /* \"#utility.yul\":3260:3263   */\n      0x00\n        /* \"#utility.yul\":3281:3348   */\n      tag_87\n        /* \"#utility.yul\":3345:3347   */\n      0x0d\n        /* \"#utility.yul\":3340:3343   */\n      dup4\n        /* \"#utility.yul\":3281:3348   */\n      tag_45\n      jump\t// in\n    tag_87:\n        /* \"#utility.yul\":3274:3348   */\n      swap2\n      pop\n        /* \"#utility.yul\":3357:3450   */\n      tag_88\n        /* \"#utility.yul\":3446:3449   */\n      dup3\n        /* \"#utility.yul\":3357:3450   */\n      tag_46\n      jump\t// in\n    tag_88:\n        /* \"#utility.yul\":3475:3477   */\n      0x20\n        /* \"#utility.yul\":3470:3473   */\n      dup3\n        /* \"#utility.yul\":3466:3478   */\n      add\n        /* \"#utility.yul\":3459:3478   */\n      swap1\n      pop\n        /* \"#utility.yul\":3118:3484   */\n      swap2\n      swap1\n      pop\n      jump\t// out\n        /* \"#utility.yul\":3490:3909   */\n    tag_29:\n        /* \"#utility.yul\":3656:3660   */\n      0x00\n        /* \"#utility.yul\":3694:3696   */\n      0x20\n        /* \"#utility.yul\":3683:3692   */\n      dup3\n        /* \"#utility.yul\":3679:3697   */\n      add\n        /* \"#utility.yul\":3671:3697   */\n      swap1\n      pop\n        /* \"#utility.yul\":3743:3752   */\n      dup2\n        /* \"#utility.yul\":3737:3741   */\n      dup2\n        /* \"#utility.yul\":3733:3753   */\n      sub\n        /* \"#utility.yul\":3729:3730   */\n      0x00\n        /* \"#utility.yul\":3718:3727   */\n      dup4\n        /* \"#utility.yul\":3714:3731   */\n      add\n        /* \"#utility.yul\":3707:3754   */\n      mstore\n        /* \"#utility.yul\":3771:3902   */\n      tag_90\n        /* \"#utility.yul\":3897:3901   */\n      dup2\n        /* \"#utility.yul\":3771:3902   */\n      tag_47\n      jump\t// in\n    tag_90:\n        /* \"#utility.yul\":3763:3902   */\n      swap1\n      pop\n        /* \"#utility.yul\":3490:3909   */\n      swap2\n      swap1\n      pop\n      jump\t// out\n\n    auxdata: 0xa2646970667358221220478cf09772ff1ec4a6bc8940360720278487e19e1d9a44732455eef5d41e91d664736f6c634300081a0033\n}\n",
				"bytecode": {
					"linkReferences": {},
					"object": "6080604052348015600e575f80fd5b5061046d8061001c5f395ff3fe608060405234801561000f575f80fd5b506004361061004a575f3560e01c80631560ad101461004e57806324d7806c1461006a5780632f259a001461009a5780634209fff1146100ca575b5f80fd5b610068600480360381019061006391906102fb565b6100fa565b005b610084600480360381019061007f9190610339565b610199565b604051610091919061037e565b60405180910390f35b6100b460048036038101906100af9190610339565b6101f2565b6040516100c191906103a6565b60405180910390f35b6100e460048036038101906100df9190610339565b61020e565b6040516100f1919061037e565b60405180910390f35b60ff8160ff161115610141576040517f08c379a000000000000000000000000000000000000000000000000000000000815260040161013890610419565b60405180910390fd5b805f808473ffffffffffffffffffffffffffffffffffffffff1673ffffffffffffffffffffffffffffffffffffffff1681526020019081526020015f205f6101000a81548160ff021916908360ff1602179055505050565b5f8060f05f808573ffffffffffffffffffffffffffffffffffffffff1673ffffffffffffffffffffffffffffffffffffffff1681526020019081526020015f205f9054906101000a900460ff161660ff16119050919050565b5f602052805f5260405f205f915054906101000a900460ff1681565b5f80600f5f808573ffffffffffffffffffffffffffffffffffffffff1673ffffffffffffffffffffffffffffffffffffffff1681526020019081526020015f205f9054906101000a900460ff161660ff16119050919050565b5f80fd5b5f73ffffffffffffffffffffffffffffffffffffffff82169050919050565b5f6102948261026b565b9050919050565b6102a48161028a565b81146102ae575f80fd5b50565b5f813590506102bf8161029b565b92915050565b5f60ff82169050919050565b6102da816102c5565b81146102e4575f80fd5b50565b5f813590506102f5816102d1565b92915050565b5f806040838503121561031157610310610267565b5b5f61031e858286016102b1565b925050602061032f858286016102e7565b9150509250929050565b5f6020828403121561034e5761034d610267565b5b5f61035b848285016102b1565b91505092915050565b5f8115159050919050565b61037881610364565b82525050565b5f6020820190506103915f83018461036f565b92915050565b6103a0816102c5565b82525050565b5f6020820190506103b95f830184610397565b92915050565b5f82825260208201905092915050565b7f496e76616c6964206f63746574000000000000000000000000000000000000005f82015250565b5f610403600d836103bf565b915061040e826103cf565b602082019050919050565b5f6020820190508181035f830152610430816103f7565b905091905056fea2646970667358221220478cf09772ff1ec4a6bc8940360720278487e19e1d9a44732455eef5d41e91d664736f6c634300081a0033",
					"opcodes": "PUSH1 0x80 PUSH1 0x40 MSTORE CALLVALUE DUP1 ISZERO PUSH1 0xE JUMPI PUSH0 DUP1 REVERT JUMPDEST POP PUSH2 0x46D DUP1 PUSH2 0x1C PUSH0 CODECOPY PUSH0 RETURN INVALID PUSH1 0x80 PUSH1 0x40 MSTORE CALLVALUE DUP1 ISZERO PUSH2 0xF JUMPI PUSH0 DUP1 REVERT JUMPDEST POP PUSH1 0x4 CALLDATASIZE LT PUSH2 0x4A JUMPI PUSH0 CALLDATALOAD PUSH1 0xE0 SHR DUP1 PUSH4 0x1560AD10 EQ PUSH2 0x4E JUMPI DUP1 PUSH4 0x24D7806C EQ PUSH2 0x6A JUMPI DUP1 PUSH4 0x2F259A00 EQ PUSH2 0x9A JUMPI DUP1 PUSH4 0x4209FFF1 EQ PUSH2 0xCA JUMPI JUMPDEST PUSH0 DUP1 REVERT JUMPDEST PUSH2 0x68 PUSH1 0x4 DUP1 CALLDATASIZE SUB DUP2 ADD SWAP1 PUSH2 0x63 SWAP2 SWAP1 PUSH2 0x2FB JUMP JUMPDEST PUSH2 0xFA JUMP JUMPDEST STOP JUMPDEST PUSH2 0x84 PUSH1 0x4 DUP1 CALLDATASIZE SUB DUP2 ADD SWAP1 PUSH2 0x7F SWAP2 SWAP1 PUSH2 0x339 JUMP JUMPDEST PUSH2 0x199 JUMP JUMPDEST PUSH1 0x40 MLOAD PUSH2 0x91 SWAP2 SWAP1 PUSH2 0x37E JUMP JUMPDEST PUSH1 0x40 MLOAD DUP1 SWAP2 SUB SWAP1 RETURN JUMPDEST PUSH2 0xB4 PUSH1 0x4 DUP1 CALLDATASIZE SUB DUP2 ADD SWAP1 PUSH2 0xAF SWAP2 SWAP1 PUSH2 0x339 JUMP JUMPDEST PUSH2 0x1F2 JUMP JUMPDEST PUSH1 0x40 MLOAD PUSH2 0xC1 SWAP2 SWAP1 PUSH2 0x3A6 JUMP JUMPDEST PUSH1 0x40 MLOAD DUP1 SWAP2 SUB SWAP1 RETURN JUMPDEST PUSH2 0xE4 PUSH1 0x4 DUP1 CALLDATASIZE SUB DUP2 ADD SWAP1 PUSH2 0xDF SWAP2 SWAP1 PUSH2 0x339 JUMP JUMPDEST PUSH2 0x20E JUMP JUMPDEST PUSH1 0x40 MLOAD PUSH2 0xF1 SWAP2 SWAP1 PUSH2 0x37E JUMP JUMPDEST PUSH1 0x40 MLOAD DUP1 SWAP2 SUB SWAP1 RETURN JUMPDEST PUSH1 0xFF DUP2 PUSH1 0xFF AND GT ISZERO PUSH2 0x141 JUMPI PUSH1 0x40 MLOAD PUSH32 0x8C379A000000000000000000000000000000000000000000000000000000000 DUP2 MSTORE PUSH1 0x4 ADD PUSH2 0x138 SWAP1 PUSH2 0x419 JUMP JUMPDEST PUSH1 0x40 MLOAD DUP1 SWAP2 SUB SWAP1 REVERT JUMPDEST DUP1 PUSH0 DUP1 DUP5 PUSH20 0xFFFFFFFFFFFFFFFFFFFFFFFFFFFFFFFFFFFFFFFF AND PUSH20 0xFFFFFFFFFFFFFFFFFFFFFFFFFFFFFFFFFFFFFFFF AND DUP2 MSTORE PUSH1 0x20 ADD SWAP1 DUP2 MSTORE PUSH1 0x20 ADD PUSH0 KECCAK256 PUSH0 PUSH2 0x100 EXP DUP2 SLOAD DUP2 PUSH1 0xFF MUL NOT AND SWAP1 DUP4 PUSH1 0xFF AND MUL OR SWAP1 SSTORE POP POP POP JUMP JUMPDEST PUSH0 DUP1 PUSH1 0xF0 PUSH0 DUP1 DUP6 PUSH20 0xFFFFFFFFFFFFFFFFFFFFFFFFFFFFFFFFFFFFFFFF AND PUSH20 0xFFFFFFFFFFFFFFFFFFFFFFFFFFFFFFFFFFFFFFFF AND DUP2 MSTORE PUSH1 0x20 ADD SWAP1 DUP2 MSTORE PUSH1 0x20 ADD PUSH0 KECCAK256 PUSH0 SWAP1 SLOAD SWAP1 PUSH2 0x100 EXP SWAP1 DIV PUSH1 0xFF AND AND PUSH1 0xFF AND GT SWAP1 POP SWAP2 SWAP1 POP JUMP JUMPDEST PUSH0 PUSH1 0x20 MSTORE DUP1 PUSH0 MSTORE PUSH1 0x40 PUSH0 KECCAK256 PUSH0 SWAP2 POP SLOAD SWAP1 PUSH2 0x100 EXP SWAP1 DIV PUSH1 0xFF AND DUP2 JUMP JUMPDEST PUSH0 DUP1 PUSH1 0xF PUSH0 DUP1 DUP6 PUSH20 0xFFFFFFFFFFFFFFFFFFFFFFFFFFFFFFFFFFFFFFFF AND PUSH20 0xFFFFFFFFFFFFFFFFFFFFFFFFFFFFFFFFFFFFFFFF AND DUP2 MSTORE PUSH1 0x20 ADD SWAP1 DUP2 MSTORE PUSH1 0x20 ADD PUSH0 KECCAK256 PUSH0 SWAP1 SLOAD SWAP1 PUSH2 0x100 EXP SWAP1 DIV PUSH1 0xFF AND AND PUSH1 0xFF AND GT SWAP1 POP SWAP2 SWAP1 POP JUMP JUMPDEST PUSH0 DUP1 REVERT JUMPDEST PUSH0 PUSH20 0xFFFFFFFFFFFFFFFFFFFFFFFFFFFFFFFFFFFFFFFF DUP3 AND SWAP1 POP SWAP2 SWAP1 POP JUMP JUMPDEST PUSH0 PUSH2 0x294 DUP3 PUSH2 0x26B JUMP JUMPDEST SWAP1 POP SWAP2 SWAP1 POP JUMP JUMPDEST PUSH2 0x2A4 DUP2 PUSH2 0x28A JUMP JUMPDEST DUP2 EQ PUSH2 0x2AE JUMPI PUSH0 DUP1 REVERT JUMPDEST POP JUMP JUMPDEST PUSH0 DUP2 CALLDATALOAD SWAP1 POP PUSH2 0x2BF DUP2 PUSH2 0x29B JUMP JUMPDEST SWAP3 SWAP2 POP POP JUMP JUMPDEST PUSH0 PUSH1 0xFF DUP3 AND SWAP1 POP SWAP2 SWAP1 POP JUMP JUMPDEST PUSH2 0x2DA DUP2 PUSH2 0x2C5 JUMP JUMPDEST DUP2 EQ PUSH2 0x2E4 JUMPI PUSH0 DUP1 REVERT JUMPDEST POP JUMP JUMPDEST PUSH0 DUP2 CALLDATALOAD SWAP1 POP PUSH2 0x2F5 DUP2 PUSH2 0x2D1 JUMP JUMPDEST SWAP3 SWAP2 POP POP JUMP JUMPDEST PUSH0 DUP1 PUSH1 0x40 DUP4 DUP6 SUB SLT ISZERO PUSH2 0x311 JUMPI PUSH2 0x310 PUSH2 0x267 JUMP JUMPDEST JUMPDEST PUSH0 PUSH2 0x31E DUP6 DUP3 DUP7 ADD PUSH2 0x2B1 JUMP JUMPDEST SWAP3 POP POP PUSH1 0x20 PUSH2 0x32F DUP6 DUP3 DUP7 ADD PUSH2 0x2E7 JUMP JUMPDEST SWAP2 POP POP SWAP3 POP SWAP3 SWAP1 POP JUMP JUMPDEST PUSH0 PUSH1 0x20 DUP3 DUP5 SUB SLT ISZERO PUSH2 0x34E JUMPI PUSH2 0x34D PUSH2 0x267 JUMP JUMPDEST JUMPDEST PUSH0 PUSH2 0x35B DUP5 DUP3 DUP6 ADD PUSH2 0x2B1 JUMP JUMPDEST SWAP2 POP POP SWAP3 SWAP2 POP POP JUMP JUMPDEST PUSH0 DUP2 ISZERO ISZERO SWAP1 POP SWAP2 SWAP1 POP JUMP JUMPDEST PUSH2 0x378 DUP2 PUSH2 0x364 JUMP JUMPDEST DUP3 MSTORE POP POP JUMP JUMPDEST PUSH0 PUSH1 0x20 DUP3 ADD SWAP1 POP PUSH2 0x391 PUSH0 DUP4 ADD DUP5 PUSH2 0x36F JUMP JUMPDEST SWAP3 SWAP2 POP POP JUMP JUMPDEST PUSH2 0x3A0 DUP2 PUSH2 0x2C5 JUMP JUMPDEST DUP3 MSTORE POP POP JUMP JUMPDEST PUSH0 PUSH1 0x20 DUP3 ADD SWAP1 POP PUSH2 0x3B9 PUSH0 DUP4 ADD DUP5 PUSH2 0x397 JUMP JUMPDEST SWAP3 SWAP2 POP POP JUMP JUMPDEST PUSH0 DUP3 DUP3 MSTORE PUSH1 0x20 DUP3 ADD SWAP1 POP SWAP3 SWAP2 POP POP JUMP JUMPDEST PUSH32 0x496E76616C6964206F6374657400000000000000000000000000000000000000 PUSH0 DUP3 ADD MSTORE POP JUMP JUMPDEST PUSH0 PUSH2 0x403 PUSH1 0xD DUP4 PUSH2 0x3BF JUMP JUMPDEST SWAP2 POP PUSH2 0x40E DUP3 PUSH2 0x3CF JUMP JUMPDEST PUSH1 0x20 DUP3 ADD SWAP1 POP SWAP2 SWAP1 POP JUMP JUMPDEST PUSH0 PUSH1 0x20 DUP3 ADD SWAP1 POP DUP2 DUP2 SUB PUSH0 DUP4 ADD MSTORE PUSH2 0x430 DUP2 PUSH2 0x3F7 JUMP JUMPDEST SWAP1 POP SWAP2 SWAP1 POP JUMP INVALID LOG2 PUSH5 0x6970667358 0x22 SLT KECCAK256 SELFBALANCE DUP13 CREATE SWAP8 PUSH19 0xFF1EC4A6BC8940360720278487E19E1D9A4473 0x24 SSTORE 0xEE CREATE2 0xD4 0x1E SWAP2 0xD6 PUSH5 0x736F6C6343 STOP ADDMOD BYTE STOP CALLER "
				},
				"gasEstimates": {
					"creation": {
						"codeDepositCost": "226600",
						"executionCost": "267",
						"totalCost": "226867"
					},
					"external": {
						"accessLevel(address)": "2854",
						"isAdmin(address)": "2888",
						"isUser(address)": "2932",
						"setAccess(address,uint8)": "24990"
					}
				},
				"methodIdentifiers": {
					"accessLevel(address)": "2f259a00",
					"isAdmin(address)": "24d7806c",
					"isUser(address)": "4209fff1",
					"setAccess(address,uint8)": "1560ad10"
				}
			},
			"storageLayout": {
				"storage": [
					{
						"astId": 11,
						"contract": "O/Octet/OctetMaskAccess.sol:OctetMaskAccess",
						"label": "accessLevel",
						"offset": 0,
						"slot": "0",
						"type": "t_mapping(t_address,t_uint8)"
					}
				],
				"types": {
					"t_address": {
						"encoding": "inplace",
						"label": "address",
						"numberOfBytes": "20"
					},
					"t_mapping(t_address,t_uint8)": {
						"encoding": "mapping",
						"key": "t_address",
						"label": "mapping(address => uint8)",
						"numberOfBytes": "32",
						"value": "t_uint8"
					},
					"t_uint8": {
						"encoding": "inplace",
						"label": "uint8",
						"numberOfBytes": "1"
					}
				}
			},
			"userdoc": {
				"kind": "user",
				"methods": {},
				"version": 1
			}
		}
	}
}