{
	"data": {
		"bytecode": {
			"linkReferences": {},
			"object": "6080604052348015600e575f5ffd5b506104078061001c5f395ff3fe608060405234801561000f575f5ffd5b5060043610610034575f3560e01c80630813456714610038578063cbf9fe5f14610054575b5f5ffd5b610052600480360381019061004d91906101dd565b610084565b005b61006e60048036038101906100699190610294565b61012d565b60405161007b91906102ce565b60405180910390f35b825f5f3373ffffffffffffffffffffffffffffffffffffffff1673ffffffffffffffffffffffffffffffffffffffff1681526020019081526020015f205f8282546100cf9190610314565b925050819055503373ffffffffffffffffffffffffffffffffffffffff167fcf1beb84ea2ee32337ff222d517f966acdb44e14778bebda3a6a182e0daf5eb5848484604051610120939291906103a1565b60405180910390a2505050565b5f602052805f5260405f205f915090505481565b5f5ffd5b5f5ffd5b5f819050919050565b61015b81610149565b8114610165575f5ffd5b50565b5f8135905061017681610152565b92915050565b5f5ffd5b5f5ffd5b5f5ffd5b5f5f83601f84011261019d5761019c61017c565b5b8235905067ffffffffffffffff8111156101ba576101b9610180565b5b6020830191508360018202830111156101d6576101d5610184565b5b9250929050565b5f5f5f604084860312156101f4576101f3610141565b5b5f61020186828701610168565b935050602084013567ffffffffffffffff81111561022257610221610145565b5b61022e86828701610188565b92509250509250925092565b5f73ffffffffffffffffffffffffffffffffffffffff82169050919050565b5f6102638261023a565b9050919050565b61027381610259565b811461027d575f5ffd5b50565b5f8135905061028e8161026a565b92915050565b5f602082840312156102a9576102a8610141565b5b5f6102b684828501610280565b91505092915050565b6102c881610149565b82525050565b5f6020820190506102e15f8301846102bf565b92915050565b7f4e487b71000000000000000000000000000000000000000000000000000000005f52601160045260245ffd5b5f61031e82610149565b915061032983610149565b9250828201905080821115610341576103406102e7565b5b92915050565b5f82825260208201905092915050565b828183375f83830152505050565b5f601f19601f8301169050919050565b5f6103808385610347565b935061038d838584610357565b61039683610365565b840190509392505050565b5f6040820190506103b45f8301866102bf565b81810360208301526103c7818486610375565b905094935050505056fea2646970667358221220503f7a90d6376a96770560992d668a86705c0102b867bd7bd3a820050ec3dfcb64736f6c634300081d0033",
			"opcodes": "PUSH1 0x80 PUSH1 0x40 MSTORE CALLVALUE DUP1 ISZERO PUSH1 0xE JUMPI PUSH0 PUSH0 REVERT JUMPDEST POP PUSH2 0x407 DUP1 PUSH2 0x1C PUSH0 CODECOPY PUSH0 RETURN INVALID PUSH1 0x80 PUSH1 0x40 MSTORE CALLVALUE DUP1 ISZERO PUSH2 0xF JUMPI PUSH0 PUSH0 REVERT JUMPDEST POP PUSH1 0x4 CALLDATASIZE LT PUSH2 0x34 JUMPI PUSH0 CALLDATALOAD PUSH1 0xE0 SHR DUP1 PUSH4 0x8134567 EQ PUSH2 0x38 JUMPI DUP1 PUSH4 0xCBF9FE5F EQ PUSH2 0x54 JUMPI JUMPDEST PUSH0 PUSH0 REVERT JUMPDEST PUSH2 0x52 PUSH1 0x4 DUP1 CALLDATASIZE SUB DUP2 ADD SWAP1 PUSH2 0x4D SWAP2 SWAP1 PUSH2 0x1DD JUMP JUMPDEST PUSH2 0x84 JUMP JUMPDEST STOP JUMPDEST PUSH2 0x6E PUSH1 0x4 DUP1 CALLDATASIZE SUB DUP2 ADD SWAP1 PUSH2 0x69 SWAP2 SWAP1 PUSH2 0x294 JUMP JUMPDEST PUSH2 0x12D JUMP JUMPDEST PUSH1 0x40 MLOAD PUSH2 0x7B SWAP2 SWAP1 PUSH2 0x2CE JUMP JUMPDEST PUSH1 0x40 MLOAD DUP1 SWAP2 SUB SWAP1 RETURN JUMPDEST DUP3 PUSH0 PUSH0 CALLER PUSH20 0xFFFFFFFFFFFFFFFFFFFFFFFFFFFFFFFFFFFFFFFF AND PUSH20 0xFFFFFFFFFFFFFFFFFFFFFFFFFFFFFFFFFFFFFFFF AND DUP2 MSTORE PUSH1 0x20 ADD SWAP1 DUP2 MSTORE PUSH1 0x20 ADD PUSH0 KECCAK256 PUSH0 DUP3 DUP3 SLOAD PUSH2 0xCF SWAP2 SWAP1 PUSH2 0x314 JUMP JUMPDEST SWAP3 POP POP DUP2 SWAP1 SSTORE POP CALLER PUSH20 0xFFFFFFFFFFFFFFFFFFFFFFFFFFFFFFFFFFFFFFFF AND PUSH32 0xCF1BEB84EA2EE32337FF222D517F966ACDB44E14778BEBDA3A6A182E0DAF5EB5 DUP5 DUP5 DUP5 PUSH1 0x40 MLOAD PUSH2 0x120 SWAP4 SWAP3 SWAP2 SWAP1 PUSH2 0x3A1 JUMP JUMPDEST PUSH1 0x40 MLOAD DUP1 SWAP2 SUB SWAP1 LOG2 POP POP POP JUMP JUMPDEST PUSH0 PUSH1 0x20 MSTORE DUP1 PUSH0 MSTORE PUSH1 0x40 PUSH0 KECCAK256 PUSH0 SWAP2 POP SWAP1 POP SLOAD DUP2 JUMP JUMPDEST PUSH0 PUSH0 REVERT JUMPDEST PUSH0 PUSH0 REVERT JUMPDEST PUSH0 DUP2 SWAP1 POP SWAP2 SWAP1 POP JUMP JUMPDEST PUSH2 0x15B DUP2 PUSH2 0x149 JUMP JUMPDEST DUP2 EQ PUSH2 0x165 JUMPI PUSH0 PUSH0 REVERT JUMPDEST POP JUMP JUMPDEST PUSH0 DUP2 CALLDATALOAD SWAP1 POP PUSH2 0x176 DUP2 PUSH2 0x152 JUMP JUMPDEST SWAP3 SWAP2 POP POP JUMP JUMPDEST PUSH0 PUSH0 REVERT JUMPDEST PUSH0 PUSH0 REVERT JUMPDEST PUSH0 PUSH0 REVERT JUMPDEST PUSH0 PUSH0 DUP4 PUSH1 0x1F DUP5 ADD SLT PUSH2 0x19D JUMPI PUSH2 0x19C PUSH2 0x17C JUMP JUMPDEST JUMPDEST DUP3 CALLDATALOAD SWAP1 POP PUSH8 0xFFFFFFFFFFFFFFFF DUP2 GT ISZERO PUSH2 0x1BA JUMPI PUSH2 0x1B9 PUSH2 0x180 JUMP JUMPDEST JUMPDEST PUSH1 0x20 DUP4 ADD SWAP2 POP DUP4 PUSH1 0x1 DUP3 MUL DUP4 ADD GT ISZERO PUSH2 0x1D6 JUMPI PUSH2 0x1D5 PUSH2 0x184 JUMP JUMPDEST JUMPDEST SWAP3 POP SWAP3 SWAP1 POP JUMP JUMPDEST PUSH0 PUSH0 PUSH0 PUSH1 0x40 DUP5 DUP7 SUB SLT ISZERO PUSH2 0x1F4 JUMPI PUSH2 0x1F3 PUSH2 0x141 JUMP JUMPDEST JUMPDEST PUSH0 PUSH2 0x201 DUP7 DUP3 DUP8 ADD PUSH2 0x168 JUMP JUMPDEST SWAP4 POP POP PUSH1 0x20 DUP5 ADD CALLDATALOAD PUSH8 0xFFFFFFFFFFFFFFFF DUP2 GT ISZERO PUSH2 0x222 JUMPI PUSH2 0x221 PUSH2 0x145 JUMP JUMPDEST JUMPDEST PUSH2 0x22E DUP7 DUP3 DUP8 ADD PUSH2 0x188 JUMP JUMPDEST SWAP3 POP SWAP3 POP POP SWAP3 POP SWAP3 POP SWAP3 JUMP JUMPDEST PUSH0 PUSH20 0xFFFFFFFFFFFFFFFFFFFFFFFFFFFFFFFFFFFFFFFF DUP3 AND SWAP1 POP SWAP2 SWAP1 POP JUMP JUMPDEST PUSH0 PUSH2 0x263 DUP3 PUSH2 0x23A JUMP JUMPDEST SWAP1 POP SWAP2 SWAP1 POP JUMP JUMPDEST PUSH2 0x273 DUP2 PUSH2 0x259 JUMP JUMPDEST DUP2 EQ PUSH2 0x27D JUMPI PUSH0 PUSH0 REVERT JUMPDEST POP JUMP JUMPDEST PUSH0 DUP2 CALLDATALOAD SWAP1 POP PUSH2 0x28E DUP2 PUSH2 0x26A JUMP JUMPDEST SWAP3 SWAP2 POP POP JUMP JUMPDEST PUSH0 PUSH1 0x20 DUP3 DUP5 SUB SLT ISZERO PUSH2 0x2A9 JUMPI PUSH2 0x2A8 PUSH2 0x141 JUMP JUMPDEST JUMPDEST PUSH0 PUSH2 0x2B6 DUP5 DUP3 DUP6 ADD PUSH2 0x280 JUMP JUMPDEST SWAP2 POP POP SWAP3 SWAP2 POP POP JUMP JUMPDEST PUSH2 0x2C8 DUP2 PUSH2 0x149 JUMP JUMPDEST DUP3 MSTORE POP POP JUMP JUMPDEST PUSH0 PUSH1 0x20 DUP3 ADD SWAP1 POP PUSH2 0x2E1 PUSH0 DUP4 ADD DUP5 PUSH2 0x2BF JUMP JUMPDEST SWAP3 SWAP2 POP POP JUMP JUMPDEST PUSH32 0x4E487B7100000000000000000000000000000000000000000000000000000000 PUSH0 MSTORE PUSH1 0x11 PUSH1 0x4 MSTORE PUSH1 0x24 PUSH0 REVERT JUMPDEST PUSH0 PUSH2 0x31E DUP3 PUSH2 0x149 JUMP JUMPDEST SWAP2 POP PUSH2 0x329 DUP4 PUSH2 0x149 JUMP JUMPDEST SWAP3 POP DUP3 DUP3 ADD SWAP1 POP DUP1 DUP3 GT ISZERO PUSH2 0x341 JUMPI PUSH2 0x340 PUSH2 0x2E7 JUMP JUMPDEST JUMPDEST SWAP3 SWAP2 POP POP JUMP JUMPDEST PUSH0 DUP3 DUP3 MSTORE PUSH1 0x20 DUP3 ADD SWAP1 POP SWAP3 SWAP2 POP POP JUMP JUMPDEST DUP3 DUP2 DUP4 CALLDATACOPY PUSH0 DUP4 DUP4 ADD MSTORE POP POP POP JUMP JUMPDEST PUSH0 PUSH1 0x1F NOT PUSH1 0x1F DUP4 ADD AND SWAP1 POP SWAP2 SWAP1 POP JUMP JUMPDEST PUSH0 PUSH2 0x380 DUP4 DUP6 PUSH2 0x347 JUMP JUMPDEST SWAP4 POP PUSH2 0x38D DUP4 DUP6 DUP5 PUSH2 0x357 JUMP JUMPDEST PUSH2 0x396 DUP4 PUSH2 0x365 JUMP JUMPDEST DUP5 ADD SWAP1 POP SWAP4 SWAP3 POP POP POP JUMP JUMPDEST PUSH0 PUSH1 0x40 DUP3 ADD SWAP1 POP PUSH2 0x3B4 PUSH0 DUP4 ADD DUP7 PUSH2 0x2BF JUMP JUMPDEST DUP2 DUP2 SUB PUSH1 0x20 DUP4 ADD MSTORE PUSH2 0x3C7 DUP2 DUP5 DUP7 PUSH2 0x375 JUMP JUMPDEST SWAP1 POP SWAP5 SWAP4 POP POP POP POP JUMP INVALID LOG2 PUSH5 0x6970667358 0x22 SLT KECCAK256 POP EXTCODEHASH PUSH27 0x90D6376A96770560992D668A86705C0102B867BD7BD3A820050EC3 0xDF 0xCB PUSH5 0x736F6C6343 STOP ADDMOD SAR STOP CALLER "
		},
		"gasEstimates": {
			"creation": {
				"codeDepositCost": "206200",
				"executionCost": "249",
				"totalCost": "206449"
			},
			"external": {
				"lockTokens(uint256,string)": "infinite",
				"locked(address)": "2801"
			}
		},
		"methodIdentifiers": {
			"lockTokens(uint256,string)": "08134567",
			"locked(address)": "cbf9fe5f"
		}
	},
	"abi": [
		{
			"anonymous": false,
			"inputs": [
				{
					"indexed": true,
					"internalType": "address",
					"name": "user",
					"type": "address"
				},
				{
					"indexed": false,
					"internalType": "uint256",
					"name": "amount",
					"type": "uint256"
				},
				{
					"indexed": false,
					"internalType": "string",
					"name": "targetChain",
					"type": "string"
				}
			],
			"name": "TokenLocked",
			"type": "event"
		},
		{
			"inputs": [
				{
					"internalType": "uint256",
					"name": "amount",
					"type": "uint256"
				},
				{
					"internalType": "string",
					"name": "targetChain",
					"type": "string"
				}
			],
			"name": "lockTokens",
			"outputs": [],
			"stateMutability": "nonpayable",
			"type": "function"
		},
		{
			"inputs": [
				{
					"internalType": "address",
					"name": "",
					"type": "address"
				}
			],
			"name": "locked",
			"outputs": [
				{
					"internalType": "uint256",
					"name": "",
					"type": "uint256"
				}
			],
			"stateMutability": "view",
			"type": "function"
		}
	]
}