{
	"F/Forward Proxy/OpenForwardProxy.sol": {
		"OpenForwardProxy": {
			"abi": [
				{
					"inputs": [
						{
							"internalType": "address",
							"name": "target",
							"type": "address"
						},
						{
							"internalType": "bytes",
							"name": "data",
							"type": "bytes"
						}
					],
					"name": "forward",
					"outputs": [
						{
							"internalType": "bytes",
							"name": "",
							"type": "bytes"
						}
					],
					"stateMutability": "nonpayable",
					"type": "function"
				}
			],
			"devdoc": {
				"kind": "dev",
				"methods": {},
				"title": "OpenForwardProxy",
				"version": 1
			},
			"evm": {
				"assembly": "    /* \"F/Forward Proxy/OpenForwardProxy.sol\":160:419  contract OpenForwardProxy {... */\n  mstore(0x40, 0x80)\n  callvalue\n  dup1\n  iszero\n  tag_1\n  jumpi\n  0x00\n  dup1\n  revert\ntag_1:\n  pop\n  dataSize(sub_0)\n  dup1\n  dataOffset(sub_0)\n  0x00\n  codecopy\n  0x00\n  return\nstop\n\nsub_0: assembly {\n        /* \"F/Forward Proxy/OpenForwardProxy.sol\":160:419  contract OpenForwardProxy {... */\n      mstore(0x40, 0x80)\n      callvalue\n      dup1\n      iszero\n      tag_1\n      jumpi\n      0x00\n      dup1\n      revert\n    tag_1:\n      pop\n      jumpi(tag_2, lt(calldatasize, 0x04))\n      shr(0xe0, calldataload(0x00))\n      dup1\n      0x6fadcf72\n      eq\n      tag_3\n      jumpi\n    tag_2:\n      0x00\n      dup1\n      revert\n        /* \"F/Forward Proxy/OpenForwardProxy.sol\":192:417  function forward(address target, bytes calldata data) external returns (bytes memory) {... */\n    tag_3:\n      tag_4\n      0x04\n      dup1\n      calldatasize\n      sub\n      dup2\n      add\n      swap1\n      tag_5\n      swap2\n      swap1\n      tag_6\n      jump\t// in\n    tag_5:\n      tag_7\n      jump\t// in\n    tag_4:\n      mload(0x40)\n      tag_8\n      swap2\n      swap1\n      tag_9\n      jump\t// in\n    tag_8:\n      mload(0x40)\n      dup1\n      swap2\n      sub\n      swap1\n      return\n    tag_7:\n        /* \"F/Forward Proxy/OpenForwardProxy.sol\":264:276  bytes memory */\n      0x60\n        /* \"F/Forward Proxy/OpenForwardProxy.sol\":289:301  bool success */\n      0x00\n        /* \"F/Forward Proxy/OpenForwardProxy.sol\":303:322  bytes memory result */\n      dup1\n        /* \"F/Forward Proxy/OpenForwardProxy.sol\":326:332  target */\n      dup6\n        /* \"F/Forward Proxy/OpenForwardProxy.sol\":326:337  target.call */\n      0xffffffffffffffffffffffffffffffffffffffff\n      and\n        /* \"F/Forward Proxy/OpenForwardProxy.sol\":338:342  data */\n      dup6\n      dup6\n        /* \"F/Forward Proxy/OpenForwardProxy.sol\":326:343  target.call(data) */\n      mload(0x40)\n      tag_11\n      swap3\n      swap2\n      swap1\n      tag_12\n      jump\t// in\n    tag_11:\n      0x00\n      mload(0x40)\n      dup1\n      dup4\n      sub\n      dup2\n      0x00\n      dup7\n      gas\n      call\n      swap2\n      pop\n      pop\n      returndatasize\n      dup1\n      0x00\n      dup2\n      eq\n      tag_15\n      jumpi\n      mload(0x40)\n      swap2\n      pop\n      and(add(returndatasize, 0x3f), not(0x1f))\n      dup3\n      add\n      0x40\n      mstore\n      returndatasize\n      dup3\n      mstore\n      returndatasize\n      0x00\n      0x20\n      dup5\n      add\n      returndatacopy\n      jump(tag_14)\n    tag_15:\n      0x60\n      swap2\n      pop\n    tag_14:\n      pop\n        /* \"F/Forward Proxy/OpenForwardProxy.sol\":288:343  (bool success, bytes memory result) = target.call(data) */\n      swap2\n      pop\n      swap2\n      pop\n        /* \"F/Forward Proxy/OpenForwardProxy.sol\":361:368  success */\n      dup2\n        /* \"F/Forward Proxy/OpenForwardProxy.sol\":353:387  require(success, \"Forward failed\") */\n      tag_16\n      jumpi\n      mload(0x40)\n      0x08c379a000000000000000000000000000000000000000000000000000000000\n      dup2\n      mstore\n      0x04\n      add\n      tag_17\n      swap1\n      tag_18\n      jump\t// in\n    tag_17:\n      mload(0x40)\n      dup1\n      swap2\n      sub\n      swap1\n      revert\n    tag_16:\n        /* \"F/Forward Proxy/OpenForwardProxy.sol\":404:410  result */\n      dup1\n        /* \"F/Forward Proxy/OpenForwardProxy.sol\":397:410  return result */\n      swap3\n      pop\n      pop\n      pop\n        /* \"F/Forward Proxy/OpenForwardProxy.sol\":192:417  function forward(address target, bytes calldata data) external returns (bytes memory) {... */\n      swap4\n      swap3\n      pop\n      pop\n      pop\n      jump\t// out\n        /* \"#utility.yul\":88:205   */\n    tag_20:\n        /* \"#utility.yul\":197:198   */\n      0x00\n        /* \"#utility.yul\":194:195   */\n      dup1\n        /* \"#utility.yul\":187:199   */\n      revert\n        /* \"#utility.yul\":211:328   */\n    tag_21:\n        /* \"#utility.yul\":320:321   */\n      0x00\n        /* \"#utility.yul\":317:318   */\n      dup1\n        /* \"#utility.yul\":310:322   */\n      revert\n        /* \"#utility.yul\":334:460   */\n    tag_22:\n        /* \"#utility.yul\":371:378   */\n      0x00\n        /* \"#utility.yul\":411:453   */\n      0xffffffffffffffffffffffffffffffffffffffff\n        /* \"#utility.yul\":404:409   */\n      dup3\n        /* \"#utility.yul\":400:454   */\n      and\n        /* \"#utility.yul\":389:454   */\n      swap1\n      pop\n        /* \"#utility.yul\":334:460   */\n      swap2\n      swap1\n      pop\n      jump\t// out\n        /* \"#utility.yul\":466:562   */\n    tag_23:\n        /* \"#utility.yul\":503:510   */\n      0x00\n        /* \"#utility.yul\":532:556   */\n      tag_47\n        /* \"#utility.yul\":550:555   */\n      dup3\n        /* \"#utility.yul\":532:556   */\n      tag_22\n      jump\t// in\n    tag_47:\n        /* \"#utility.yul\":521:556   */\n      swap1\n      pop\n        /* \"#utility.yul\":466:562   */\n      swap2\n      swap1\n      pop\n      jump\t// out\n        /* \"#utility.yul\":568:690   */\n    tag_24:\n        /* \"#utility.yul\":641:665   */\n      tag_49\n        /* \"#utility.yul\":659:664   */\n      dup2\n        /* \"#utility.yul\":641:665   */\n      tag_23\n      jump\t// in\n    tag_49:\n        /* \"#utility.yul\":634:639   */\n      dup2\n        /* \"#utility.yul\":631:666   */\n      eq\n        /* \"#utility.yul\":621:684   */\n      tag_50\n      jumpi\n        /* \"#utility.yul\":680:681   */\n      0x00\n        /* \"#utility.yul\":677:678   */\n      dup1\n        /* \"#utility.yul\":670:682   */\n      revert\n        /* \"#utility.yul\":621:684   */\n    tag_50:\n        /* \"#utility.yul\":568:690   */\n      pop\n      jump\t// out\n        /* \"#utility.yul\":696:835   */\n    tag_25:\n        /* \"#utility.yul\":742:747   */\n      0x00\n        /* \"#utility.yul\":780:786   */\n      dup2\n        /* \"#utility.yul\":767:787   */\n      calldataload\n        /* \"#utility.yul\":758:787   */\n      swap1\n      pop\n        /* \"#utility.yul\":796:829   */\n      tag_52\n        /* \"#utility.yul\":823:828   */\n      dup2\n        /* \"#utility.yul\":796:829   */\n      tag_24\n      jump\t// in\n    tag_52:\n        /* \"#utility.yul\":696:835   */\n      swap3\n      swap2\n      pop\n      pop\n      jump\t// out\n        /* \"#utility.yul\":841:958   */\n    tag_26:\n        /* \"#utility.yul\":950:951   */\n      0x00\n        /* \"#utility.yul\":947:948   */\n      dup1\n        /* \"#utility.yul\":940:952   */\n      revert\n        /* \"#utility.yul\":964:1081   */\n    tag_27:\n        /* \"#utility.yul\":1073:1074   */\n      0x00\n        /* \"#utility.yul\":1070:1071   */\n      dup1\n        /* \"#utility.yul\":1063:1075   */\n      revert\n        /* \"#utility.yul\":1087:1204   */\n    tag_28:\n        /* \"#utility.yul\":1196:1197   */\n      0x00\n        /* \"#utility.yul\":1193:1194   */\n      dup1\n        /* \"#utility.yul\":1186:1198   */\n      revert\n        /* \"#utility.yul\":1223:1775   */\n    tag_29:\n        /* \"#utility.yul\":1280:1288   */\n      0x00\n        /* \"#utility.yul\":1290:1296   */\n      dup1\n        /* \"#utility.yul\":1340:1343   */\n      dup4\n        /* \"#utility.yul\":1333:1337   */\n      0x1f\n        /* \"#utility.yul\":1325:1331   */\n      dup5\n        /* \"#utility.yul\":1321:1338   */\n      add\n        /* \"#utility.yul\":1317:1344   */\n      slt\n        /* \"#utility.yul\":1307:1429   */\n      tag_57\n      jumpi\n        /* \"#utility.yul\":1348:1427   */\n      tag_58\n      tag_26\n      jump\t// in\n    tag_58:\n        /* \"#utility.yul\":1307:1429   */\n    tag_57:\n        /* \"#utility.yul\":1461:1467   */\n      dup3\n        /* \"#utility.yul\":1448:1468   */\n      calldataload\n        /* \"#utility.yul\":1438:1468   */\n      swap1\n      pop\n        /* \"#utility.yul\":1491:1509   */\n      0xffffffffffffffff\n        /* \"#utility.yul\":1483:1489   */\n      dup2\n        /* \"#utility.yul\":1480:1510   */\n      gt\n        /* \"#utility.yul\":1477:1594   */\n      iszero\n      tag_59\n      jumpi\n        /* \"#utility.yul\":1513:1592   */\n      tag_60\n      tag_27\n      jump\t// in\n    tag_60:\n        /* \"#utility.yul\":1477:1594   */\n    tag_59:\n        /* \"#utility.yul\":1627:1631   */\n      0x20\n        /* \"#utility.yul\":1619:1625   */\n      dup4\n        /* \"#utility.yul\":1615:1632   */\n      add\n        /* \"#utility.yul\":1603:1632   */\n      swap2\n      pop\n        /* \"#utility.yul\":1681:1684   */\n      dup4\n        /* \"#utility.yul\":1673:1677   */\n      0x01\n        /* \"#utility.yul\":1665:1671   */\n      dup3\n        /* \"#utility.yul\":1661:1678   */\n      mul\n        /* \"#utility.yul\":1651:1659   */\n      dup4\n        /* \"#utility.yul\":1647:1679   */\n      add\n        /* \"#utility.yul\":1644:1685   */\n      gt\n        /* \"#utility.yul\":1641:1769   */\n      iszero\n      tag_61\n      jumpi\n        /* \"#utility.yul\":1688:1767   */\n      tag_62\n      tag_28\n      jump\t// in\n    tag_62:\n        /* \"#utility.yul\":1641:1769   */\n    tag_61:\n        /* \"#utility.yul\":1223:1775   */\n      swap3\n      pop\n      swap3\n      swap1\n      pop\n      jump\t// out\n        /* \"#utility.yul\":1781:2453   */\n    tag_6:\n        /* \"#utility.yul\":1860:1866   */\n      0x00\n        /* \"#utility.yul\":1868:1874   */\n      dup1\n        /* \"#utility.yul\":1876:1882   */\n      0x00\n        /* \"#utility.yul\":1925:1927   */\n      0x40\n        /* \"#utility.yul\":1913:1922   */\n      dup5\n        /* \"#utility.yul\":1904:1911   */\n      dup7\n        /* \"#utility.yul\":1900:1923   */\n      sub\n        /* \"#utility.yul\":1896:1928   */\n      slt\n        /* \"#utility.yul\":1893:2012   */\n      iszero\n      tag_64\n      jumpi\n        /* \"#utility.yul\":1931:2010   */\n      tag_65\n      tag_20\n      jump\t// in\n    tag_65:\n        /* \"#utility.yul\":1893:2012   */\n    tag_64:\n        /* \"#utility.yul\":2051:2052   */\n      0x00\n        /* \"#utility.yul\":2076:2129   */\n      tag_66\n        /* \"#utility.yul\":2121:2128   */\n      dup7\n        /* \"#utility.yul\":2112:2118   */\n      dup3\n        /* \"#utility.yul\":2101:2110   */\n      dup8\n        /* \"#utility.yul\":2097:2119   */\n      add\n        /* \"#utility.yul\":2076:2129   */\n      tag_25\n      jump\t// in\n    tag_66:\n        /* \"#utility.yul\":2066:2129   */\n      swap4\n      pop\n        /* \"#utility.yul\":2022:2139   */\n      pop\n        /* \"#utility.yul\":2206:2208   */\n      0x20\n        /* \"#utility.yul\":2195:2204   */\n      dup5\n        /* \"#utility.yul\":2191:2209   */\n      add\n        /* \"#utility.yul\":2178:2210   */\n      calldataload\n        /* \"#utility.yul\":2237:2255   */\n      0xffffffffffffffff\n        /* \"#utility.yul\":2229:2235   */\n      dup2\n        /* \"#utility.yul\":2226:2256   */\n      gt\n        /* \"#utility.yul\":2223:2340   */\n      iszero\n      tag_67\n      jumpi\n        /* \"#utility.yul\":2259:2338   */\n      tag_68\n      tag_21\n      jump\t// in\n    tag_68:\n        /* \"#utility.yul\":2223:2340   */\n    tag_67:\n        /* \"#utility.yul\":2372:2436   */\n      tag_69\n        /* \"#utility.yul\":2428:2435   */\n      dup7\n        /* \"#utility.yul\":2419:2425   */\n      dup3\n        /* \"#utility.yul\":2408:2417   */\n      dup8\n        /* \"#utility.yul\":2404:2426   */\n      add\n        /* \"#utility.yul\":2372:2436   */\n      tag_29\n      jump\t// in\n    tag_69:\n        /* \"#utility.yul\":2354:2436   */\n      swap3\n      pop\n      swap3\n      pop\n        /* \"#utility.yul\":2149:2446   */\n      pop\n        /* \"#utility.yul\":1781:2453   */\n      swap3\n      pop\n      swap3\n      pop\n      swap3\n      jump\t// out\n        /* \"#utility.yul\":2459:2557   */\n    tag_30:\n        /* \"#utility.yul\":2510:2516   */\n      0x00\n        /* \"#utility.yul\":2544:2549   */\n      dup2\n        /* \"#utility.yul\":2538:2550   */\n      mload\n        /* \"#utility.yul\":2528:2550   */\n      swap1\n      pop\n        /* \"#utility.yul\":2459:2557   */\n      swap2\n      swap1\n      pop\n      jump\t// out\n        /* \"#utility.yul\":2563:2731   */\n    tag_31:\n        /* \"#utility.yul\":2646:2657   */\n      0x00\n        /* \"#utility.yul\":2680:2686   */\n      dup3\n        /* \"#utility.yul\":2675:2678   */\n      dup3\n        /* \"#utility.yul\":2668:2687   */\n      mstore\n        /* \"#utility.yul\":2720:2724   */\n      0x20\n        /* \"#utility.yul\":2715:2718   */\n      dup3\n        /* \"#utility.yul\":2711:2725   */\n      add\n        /* \"#utility.yul\":2696:2725   */\n      swap1\n      pop\n        /* \"#utility.yul\":2563:2731   */\n      swap3\n      swap2\n      pop\n      pop\n      jump\t// out\n        /* \"#utility.yul\":2737:2876   */\n    tag_32:\n        /* \"#utility.yul\":2826:2832   */\n      dup3\n        /* \"#utility.yul\":2821:2824   */\n      dup2\n        /* \"#utility.yul\":2816:2819   */\n      dup4\n        /* \"#utility.yul\":2810:2833   */\n      mcopy\n        /* \"#utility.yul\":2867:2868   */\n      0x00\n        /* \"#utility.yul\":2858:2864   */\n      dup4\n        /* \"#utility.yul\":2853:2856   */\n      dup4\n        /* \"#utility.yul\":2849:2865   */\n      add\n        /* \"#utility.yul\":2842:2869   */\n      mstore\n        /* \"#utility.yul\":2737:2876   */\n      pop\n      pop\n      pop\n      jump\t// out\n        /* \"#utility.yul\":2882:2984   */\n    tag_33:\n        /* \"#utility.yul\":2923:2929   */\n      0x00\n        /* \"#utility.yul\":2974:2976   */\n      0x1f\n        /* \"#utility.yul\":2970:2977   */\n      not\n        /* \"#utility.yul\":2965:2967   */\n      0x1f\n        /* \"#utility.yul\":2958:2963   */\n      dup4\n        /* \"#utility.yul\":2954:2968   */\n      add\n        /* \"#utility.yul\":2950:2978   */\n      and\n        /* \"#utility.yul\":2940:2978   */\n      swap1\n      pop\n        /* \"#utility.yul\":2882:2984   */\n      swap2\n      swap1\n      pop\n      jump\t// out\n        /* \"#utility.yul\":2990:3363   */\n    tag_34:\n        /* \"#utility.yul\":3076:3079   */\n      0x00\n        /* \"#utility.yul\":3104:3142   */\n      tag_75\n        /* \"#utility.yul\":3136:3141   */\n      dup3\n        /* \"#utility.yul\":3104:3142   */\n      tag_30\n      jump\t// in\n    tag_75:\n        /* \"#utility.yul\":3158:3228   */\n      tag_76\n        /* \"#utility.yul\":3221:3227   */\n      dup2\n        /* \"#utility.yul\":3216:3219   */\n      dup6\n        /* \"#utility.yul\":3158:3228   */\n      tag_31\n      jump\t// in\n    tag_76:\n        /* \"#utility.yul\":3151:3228   */\n      swap4\n      pop\n        /* \"#utility.yul\":3237:3302   */\n      tag_77\n        /* \"#utility.yul\":3295:3301   */\n      dup2\n        /* \"#utility.yul\":3290:3293   */\n      dup6\n        /* \"#utility.yul\":3283:3287   */\n      0x20\n        /* \"#utility.yul\":3276:3281   */\n      dup7\n        /* \"#utility.yul\":3272:3288   */\n      add\n        /* \"#utility.yul\":3237:3302   */\n      tag_32\n      jump\t// in\n    tag_77:\n        /* \"#utility.yul\":3327:3356   */\n      tag_78\n        /* \"#utility.yul\":3349:3355   */\n      dup2\n        /* \"#utility.yul\":3327:3356   */\n      tag_33\n      jump\t// in\n    tag_78:\n        /* \"#utility.yul\":3322:3325   */\n      dup5\n        /* \"#utility.yul\":3318:3357   */\n      add\n        /* \"#utility.yul\":3311:3357   */\n      swap2\n      pop\n        /* \"#utility.yul\":3080:3363   */\n      pop\n        /* \"#utility.yul\":2990:3363   */\n      swap3\n      swap2\n      pop\n      pop\n      jump\t// out\n        /* \"#utility.yul\":3369:3678   */\n    tag_9:\n        /* \"#utility.yul\":3480:3484   */\n      0x00\n        /* \"#utility.yul\":3518:3520   */\n      0x20\n        /* \"#utility.yul\":3507:3516   */\n      dup3\n        /* \"#utility.yul\":3503:3521   */\n      add\n        /* \"#utility.yul\":3495:3521   */\n      swap1\n      pop\n        /* \"#utility.yul\":3567:3576   */\n      dup2\n        /* \"#utility.yul\":3561:3565   */\n      dup2\n        /* \"#utility.yul\":3557:3577   */\n      sub\n        /* \"#utility.yul\":3553:3554   */\n      0x00\n        /* \"#utility.yul\":3542:3551   */\n      dup4\n        /* \"#utility.yul\":3538:3555   */\n      add\n        /* \"#utility.yul\":3531:3578   */\n      mstore\n        /* \"#utility.yul\":3595:3671   */\n      tag_80\n        /* \"#utility.yul\":3666:3670   */\n      dup2\n        /* \"#utility.yul\":3657:3663   */\n      dup5\n        /* \"#utility.yul\":3595:3671   */\n      tag_34\n      jump\t// in\n    tag_80:\n        /* \"#utility.yul\":3587:3671   */\n      swap1\n      pop\n        /* \"#utility.yul\":3369:3678   */\n      swap3\n      swap2\n      pop\n      pop\n      jump\t// out\n        /* \"#utility.yul\":3684:3831   */\n    tag_35:\n        /* \"#utility.yul\":3785:3796   */\n      0x00\n        /* \"#utility.yul\":3822:3825   */\n      dup2\n        /* \"#utility.yul\":3807:3825   */\n      swap1\n      pop\n        /* \"#utility.yul\":3684:3831   */\n      swap3\n      swap2\n      pop\n      pop\n      jump\t// out\n        /* \"#utility.yul\":3837:3985   */\n    tag_36:\n        /* \"#utility.yul\":3935:3941   */\n      dup3\n        /* \"#utility.yul\":3930:3933   */\n      dup2\n        /* \"#utility.yul\":3925:3928   */\n      dup4\n        /* \"#utility.yul\":3912:3942   */\n      calldatacopy\n        /* \"#utility.yul\":3976:3977   */\n      0x00\n        /* \"#utility.yul\":3967:3973   */\n      dup4\n        /* \"#utility.yul\":3962:3965   */\n      dup4\n        /* \"#utility.yul\":3958:3974   */\n      add\n        /* \"#utility.yul\":3951:3978   */\n      mstore\n        /* \"#utility.yul\":3837:3985   */\n      pop\n      pop\n      pop\n      jump\t// out\n        /* \"#utility.yul\":4013:4340   */\n    tag_37:\n        /* \"#utility.yul\":4127:4130   */\n      0x00\n        /* \"#utility.yul\":4148:4236   */\n      tag_84\n        /* \"#utility.yul\":4229:4235   */\n      dup4\n        /* \"#utility.yul\":4224:4227   */\n      dup6\n        /* \"#utility.yul\":4148:4236   */\n      tag_35\n      jump\t// in\n    tag_84:\n        /* \"#utility.yul\":4141:4236   */\n      swap4\n      pop\n        /* \"#utility.yul\":4246:4302   */\n      tag_85\n        /* \"#utility.yul\":4295:4301   */\n      dup4\n        /* \"#utility.yul\":4290:4293   */\n      dup6\n        /* \"#utility.yul\":4283:4288   */\n      dup5\n        /* \"#utility.yul\":4246:4302   */\n      tag_36\n      jump\t// in\n    tag_85:\n        /* \"#utility.yul\":4327:4333   */\n      dup3\n        /* \"#utility.yul\":4322:4325   */\n      dup5\n        /* \"#utility.yul\":4318:4334   */\n      add\n        /* \"#utility.yul\":4311:4334   */\n      swap1\n      pop\n        /* \"#utility.yul\":4013:4340   */\n      swap4\n      swap3\n      pop\n      pop\n      pop\n      jump\t// out\n        /* \"#utility.yul\":4346:4637   */\n    tag_12:\n        /* \"#utility.yul\":4486:4489   */\n      0x00\n        /* \"#utility.yul\":4508:4611   */\n      tag_87\n        /* \"#utility.yul\":4607:4610   */\n      dup3\n        /* \"#utility.yul\":4598:4604   */\n      dup5\n        /* \"#utility.yul\":4590:4596   */\n      dup7\n        /* \"#utility.yul\":4508:4611   */\n      tag_37\n      jump\t// in\n    tag_87:\n        /* \"#utility.yul\":4501:4611   */\n      swap2\n      pop\n        /* \"#utility.yul\":4628:4631   */\n      dup2\n        /* \"#utility.yul\":4621:4631   */\n      swap1\n      pop\n        /* \"#utility.yul\":4346:4637   */\n      swap4\n      swap3\n      pop\n      pop\n      pop\n      jump\t// out\n        /* \"#utility.yul\":4643:4812   */\n    tag_38:\n        /* \"#utility.yul\":4727:4738   */\n      0x00\n        /* \"#utility.yul\":4761:4767   */\n      dup3\n        /* \"#utility.yul\":4756:4759   */\n      dup3\n        /* \"#utility.yul\":4749:4768   */\n      mstore\n        /* \"#utility.yul\":4801:4805   */\n      0x20\n        /* \"#utility.yul\":4796:4799   */\n      dup3\n        /* \"#utility.yul\":4792:4806   */\n      add\n        /* \"#utility.yul\":4777:4806   */\n      swap1\n      pop\n        /* \"#utility.yul\":4643:4812   */\n      swap3\n      swap2\n      pop\n      pop\n      jump\t// out\n        /* \"#utility.yul\":4818:4982   */\n    tag_39:\n        /* \"#utility.yul\":4958:4974   */\n      0x466f7277617264206661696c6564000000000000000000000000000000000000\n        /* \"#utility.yul\":4954:4955   */\n      0x00\n        /* \"#utility.yul\":4946:4952   */\n      dup3\n        /* \"#utility.yul\":4942:4956   */\n      add\n        /* \"#utility.yul\":4935:4975   */\n      mstore\n        /* \"#utility.yul\":4818:4982   */\n      pop\n      jump\t// out\n        /* \"#utility.yul\":4988:5354   */\n    tag_40:\n        /* \"#utility.yul\":5130:5133   */\n      0x00\n        /* \"#utility.yul\":5151:5218   */\n      tag_91\n        /* \"#utility.yul\":5215:5217   */\n      0x0e\n        /* \"#utility.yul\":5210:5213   */\n      dup4\n        /* \"#utility.yul\":5151:5218   */\n      tag_38\n      jump\t// in\n    tag_91:\n        /* \"#utility.yul\":5144:5218   */\n      swap2\n      pop\n        /* \"#utility.yul\":5227:5320   */\n      tag_92\n        /* \"#utility.yul\":5316:5319   */\n      dup3\n        /* \"#utility.yul\":5227:5320   */\n      tag_39\n      jump\t// in\n    tag_92:\n        /* \"#utility.yul\":5345:5347   */\n      0x20\n        /* \"#utility.yul\":5340:5343   */\n      dup3\n        /* \"#utility.yul\":5336:5348   */\n      add\n        /* \"#utility.yul\":5329:5348   */\n      swap1\n      pop\n        /* \"#utility.yul\":4988:5354   */\n      swap2\n      swap1\n      pop\n      jump\t// out\n        /* \"#utility.yul\":5360:5779   */\n    tag_18:\n        /* \"#utility.yul\":5526:5530   */\n      0x00\n        /* \"#utility.yul\":5564:5566   */\n      0x20\n        /* \"#utility.yul\":5553:5562   */\n      dup3\n        /* \"#utility.yul\":5549:5567   */\n      add\n        /* \"#utility.yul\":5541:5567   */\n      swap1\n      pop\n        /* \"#utility.yul\":5613:5622   */\n      dup2\n        /* \"#utility.yul\":5607:5611   */\n      dup2\n        /* \"#utility.yul\":5603:5623   */\n      sub\n        /* \"#utility.yul\":5599:5600   */\n      0x00\n        /* \"#utility.yul\":5588:5597   */\n      dup4\n        /* \"#utility.yul\":5584:5601   */\n      add\n        /* \"#utility.yul\":5577:5624   */\n      mstore\n        /* \"#utility.yul\":5641:5772   */\n      tag_94\n        /* \"#utility.yul\":5767:5771   */\n      dup2\n        /* \"#utility.yul\":5641:5772   */\n      tag_40\n      jump\t// in\n    tag_94:\n        /* \"#utility.yul\":5633:5772   */\n      swap1\n      pop\n        /* \"#utility.yul\":5360:5779   */\n      swap2\n      swap1\n      pop\n      jump\t// out\n\n    auxdata: 0xa26469706673582212208eef4d7e3b089d76a6ec45e9e8085555b752195cf4587737a0c8a5ac4dd0f07064736f6c634300081a0033\n}\n",
				"bytecode": {
					"linkReferences": {},
					"object": "6080604052348015600e575f80fd5b506103c98061001c5f395ff3fe608060405234801561000f575f80fd5b5060043610610029575f3560e01c80636fadcf721461002d575b5f80fd5b610047600480360381019061004291906101da565b61005d565b60405161005491906102a7565b60405180910390f35b60605f808573ffffffffffffffffffffffffffffffffffffffff168585604051610088929190610303565b5f604051808303815f865af19150503d805f81146100c1576040519150601f19603f3d011682016040523d82523d5f602084013e6100c6565b606091505b50915091508161010b576040517f08c379a000000000000000000000000000000000000000000000000000000000815260040161010290610375565b60405180910390fd5b80925050509392505050565b5f80fd5b5f80fd5b5f73ffffffffffffffffffffffffffffffffffffffff82169050919050565b5f6101488261011f565b9050919050565b6101588161013e565b8114610162575f80fd5b50565b5f813590506101738161014f565b92915050565b5f80fd5b5f80fd5b5f80fd5b5f8083601f84011261019a57610199610179565b5b8235905067ffffffffffffffff8111156101b7576101b661017d565b5b6020830191508360018202830111156101d3576101d2610181565b5b9250929050565b5f805f604084860312156101f1576101f0610117565b5b5f6101fe86828701610165565b935050602084013567ffffffffffffffff81111561021f5761021e61011b565b5b61022b86828701610185565b92509250509250925092565b5f81519050919050565b5f82825260208201905092915050565b8281835e5f83830152505050565b5f601f19601f8301169050919050565b5f61027982610237565b6102838185610241565b9350610293818560208601610251565b61029c8161025f565b840191505092915050565b5f6020820190508181035f8301526102bf818461026f565b905092915050565b5f81905092915050565b828183375f83830152505050565b5f6102ea83856102c7565b93506102f78385846102d1565b82840190509392505050565b5f61030f8284866102df565b91508190509392505050565b5f82825260208201905092915050565b7f466f7277617264206661696c65640000000000000000000000000000000000005f82015250565b5f61035f600e8361031b565b915061036a8261032b565b602082019050919050565b5f6020820190508181035f83015261038c81610353565b905091905056fea26469706673582212208eef4d7e3b089d76a6ec45e9e8085555b752195cf4587737a0c8a5ac4dd0f07064736f6c634300081a0033",
					"opcodes": "PUSH1 0x80 PUSH1 0x40 MSTORE CALLVALUE DUP1 ISZERO PUSH1 0xE JUMPI PUSH0 DUP1 REVERT JUMPDEST POP PUSH2 0x3C9 DUP1 PUSH2 0x1C PUSH0 CODECOPY PUSH0 RETURN INVALID PUSH1 0x80 PUSH1 0x40 MSTORE CALLVALUE DUP1 ISZERO PUSH2 0xF JUMPI PUSH0 DUP1 REVERT JUMPDEST POP PUSH1 0x4 CALLDATASIZE LT PUSH2 0x29 JUMPI PUSH0 CALLDATALOAD PUSH1 0xE0 SHR DUP1 PUSH4 0x6FADCF72 EQ PUSH2 0x2D JUMPI JUMPDEST PUSH0 DUP1 REVERT JUMPDEST PUSH2 0x47 PUSH1 0x4 DUP1 CALLDATASIZE SUB DUP2 ADD SWAP1 PUSH2 0x42 SWAP2 SWAP1 PUSH2 0x1DA JUMP JUMPDEST PUSH2 0x5D JUMP JUMPDEST PUSH1 0x40 MLOAD PUSH2 0x54 SWAP2 SWAP1 PUSH2 0x2A7 JUMP JUMPDEST PUSH1 0x40 MLOAD DUP1 SWAP2 SUB SWAP1 RETURN JUMPDEST PUSH1 0x60 PUSH0 DUP1 DUP6 PUSH20 0xFFFFFFFFFFFFFFFFFFFFFFFFFFFFFFFFFFFFFFFF AND DUP6 DUP6 PUSH1 0x40 MLOAD PUSH2 0x88 SWAP3 SWAP2 SWAP1 PUSH2 0x303 JUMP JUMPDEST PUSH0 PUSH1 0x40 MLOAD DUP1 DUP4 SUB DUP2 PUSH0 DUP7 GAS CALL SWAP2 POP POP RETURNDATASIZE DUP1 PUSH0 DUP2 EQ PUSH2 0xC1 JUMPI PUSH1 0x40 MLOAD SWAP2 POP PUSH1 0x1F NOT PUSH1 0x3F RETURNDATASIZE ADD AND DUP3 ADD PUSH1 0x40 MSTORE RETURNDATASIZE DUP3 MSTORE RETURNDATASIZE PUSH0 PUSH1 0x20 DUP5 ADD RETURNDATACOPY PUSH2 0xC6 JUMP JUMPDEST PUSH1 0x60 SWAP2 POP JUMPDEST POP SWAP2 POP SWAP2 POP DUP2 PUSH2 0x10B JUMPI PUSH1 0x40 MLOAD PUSH32 0x8C379A000000000000000000000000000000000000000000000000000000000 DUP2 MSTORE PUSH1 0x4 ADD PUSH2 0x102 SWAP1 PUSH2 0x375 JUMP JUMPDEST PUSH1 0x40 MLOAD DUP1 SWAP2 SUB SWAP1 REVERT JUMPDEST DUP1 SWAP3 POP POP POP SWAP4 SWAP3 POP POP POP JUMP JUMPDEST PUSH0 DUP1 REVERT JUMPDEST PUSH0 DUP1 REVERT JUMPDEST PUSH0 PUSH20 0xFFFFFFFFFFFFFFFFFFFFFFFFFFFFFFFFFFFFFFFF DUP3 AND SWAP1 POP SWAP2 SWAP1 POP JUMP JUMPDEST PUSH0 PUSH2 0x148 DUP3 PUSH2 0x11F JUMP JUMPDEST SWAP1 POP SWAP2 SWAP1 POP JUMP JUMPDEST PUSH2 0x158 DUP2 PUSH2 0x13E JUMP JUMPDEST DUP2 EQ PUSH2 0x162 JUMPI PUSH0 DUP1 REVERT JUMPDEST POP JUMP JUMPDEST PUSH0 DUP2 CALLDATALOAD SWAP1 POP PUSH2 0x173 DUP2 PUSH2 0x14F JUMP JUMPDEST SWAP3 SWAP2 POP POP JUMP JUMPDEST PUSH0 DUP1 REVERT JUMPDEST PUSH0 DUP1 REVERT JUMPDEST PUSH0 DUP1 REVERT JUMPDEST PUSH0 DUP1 DUP4 PUSH1 0x1F DUP5 ADD SLT PUSH2 0x19A JUMPI PUSH2 0x199 PUSH2 0x179 JUMP JUMPDEST JUMPDEST DUP3 CALLDATALOAD SWAP1 POP PUSH8 0xFFFFFFFFFFFFFFFF DUP2 GT ISZERO PUSH2 0x1B7 JUMPI PUSH2 0x1B6 PUSH2 0x17D JUMP JUMPDEST JUMPDEST PUSH1 0x20 DUP4 ADD SWAP2 POP DUP4 PUSH1 0x1 DUP3 MUL DUP4 ADD GT ISZERO PUSH2 0x1D3 JUMPI PUSH2 0x1D2 PUSH2 0x181 JUMP JUMPDEST JUMPDEST SWAP3 POP SWAP3 SWAP1 POP JUMP JUMPDEST PUSH0 DUP1 PUSH0 PUSH1 0x40 DUP5 DUP7 SUB SLT ISZERO PUSH2 0x1F1 JUMPI PUSH2 0x1F0 PUSH2 0x117 JUMP JUMPDEST JUMPDEST PUSH0 PUSH2 0x1FE DUP7 DUP3 DUP8 ADD PUSH2 0x165 JUMP JUMPDEST SWAP4 POP POP PUSH1 0x20 DUP5 ADD CALLDATALOAD PUSH8 0xFFFFFFFFFFFFFFFF DUP2 GT ISZERO PUSH2 0x21F JUMPI PUSH2 0x21E PUSH2 0x11B JUMP JUMPDEST JUMPDEST PUSH2 0x22B DUP7 DUP3 DUP8 ADD PUSH2 0x185 JUMP JUMPDEST SWAP3 POP SWAP3 POP POP SWAP3 POP SWAP3 POP SWAP3 JUMP JUMPDEST PUSH0 DUP2 MLOAD SWAP1 POP SWAP2 SWAP1 POP JUMP JUMPDEST PUSH0 DUP3 DUP3 MSTORE PUSH1 0x20 DUP3 ADD SWAP1 POP SWAP3 SWAP2 POP POP JUMP JUMPDEST DUP3 DUP2 DUP4 MCOPY PUSH0 DUP4 DUP4 ADD MSTORE POP POP POP JUMP JUMPDEST PUSH0 PUSH1 0x1F NOT PUSH1 0x1F DUP4 ADD AND SWAP1 POP SWAP2 SWAP1 POP JUMP JUMPDEST PUSH0 PUSH2 0x279 DUP3 PUSH2 0x237 JUMP JUMPDEST PUSH2 0x283 DUP2 DUP6 PUSH2 0x241 JUMP JUMPDEST SWAP4 POP PUSH2 0x293 DUP2 DUP6 PUSH1 0x20 DUP7 ADD PUSH2 0x251 JUMP JUMPDEST PUSH2 0x29C DUP2 PUSH2 0x25F JUMP JUMPDEST DUP5 ADD SWAP2 POP POP SWAP3 SWAP2 POP POP JUMP JUMPDEST PUSH0 PUSH1 0x20 DUP3 ADD SWAP1 POP DUP2 DUP2 SUB PUSH0 DUP4 ADD MSTORE PUSH2 0x2BF DUP2 DUP5 PUSH2 0x26F JUMP JUMPDEST SWAP1 POP SWAP3 SWAP2 POP POP JUMP JUMPDEST PUSH0 DUP2 SWAP1 POP SWAP3 SWAP2 POP POP JUMP JUMPDEST DUP3 DUP2 DUP4 CALLDATACOPY PUSH0 DUP4 DUP4 ADD MSTORE POP POP POP JUMP JUMPDEST PUSH0 PUSH2 0x2EA DUP4 DUP6 PUSH2 0x2C7 JUMP JUMPDEST SWAP4 POP PUSH2 0x2F7 DUP4 DUP6 DUP5 PUSH2 0x2D1 JUMP JUMPDEST DUP3 DUP5 ADD SWAP1 POP SWAP4 SWAP3 POP POP POP JUMP JUMPDEST PUSH0 PUSH2 0x30F DUP3 DUP5 DUP7 PUSH2 0x2DF JUMP JUMPDEST SWAP2 POP DUP2 SWAP1 POP SWAP4 SWAP3 POP POP POP JUMP JUMPDEST PUSH0 DUP3 DUP3 MSTORE PUSH1 0x20 DUP3 ADD SWAP1 POP SWAP3 SWAP2 POP POP JUMP JUMPDEST PUSH32 0x466F7277617264206661696C6564000000000000000000000000000000000000 PUSH0 DUP3 ADD MSTORE POP JUMP JUMPDEST PUSH0 PUSH2 0x35F PUSH1 0xE DUP4 PUSH2 0x31B JUMP JUMPDEST SWAP2 POP PUSH2 0x36A DUP3 PUSH2 0x32B JUMP JUMPDEST PUSH1 0x20 DUP3 ADD SWAP1 POP SWAP2 SWAP1 POP JUMP JUMPDEST PUSH0 PUSH1 0x20 DUP3 ADD SWAP1 POP DUP2 DUP2 SUB PUSH0 DUP4 ADD MSTORE PUSH2 0x38C DUP2 PUSH2 0x353 JUMP JUMPDEST SWAP1 POP SWAP2 SWAP1 POP JUMP INVALID LOG2 PUSH5 0x6970667358 0x22 SLT KECCAK256 DUP15 0xEF 0x4D PUSH31 0x3B089D76A6EC45E9E8085555B752195CF4587737A0C8A5AC4DD0F07064736F PUSH13 0x634300081A0033000000000000 "
				},
				"gasEstimates": {
					"creation": {
						"codeDepositCost": "193800",
						"executionCost": "236",
						"totalCost": "194036"
					},
					"external": {
						"forward(address,bytes)": "infinite"
					}
				},
				"methodIdentifiers": {
					"forward(address,bytes)": "6fadcf72"
				}
			},
			"storageLayout": {
				"storage": [],
				"types": null
			},
			"userdoc": {
				"kind": "user",
				"methods": {},
				"notice": "Forwards any user call to any target. ⚠️ Dangerous.",
				"version": 1
			}
		}
	}
}