{
	"R/Radiation Monitoring/SelectorEntropyMonitor.sol": {
		"SelectorEntropyMonitor": {
			"abi": [
				{
					"anonymous": false,
					"inputs": [
						{
							"indexed": false,
							"internalType": "bytes4",
							"name": "selector",
							"type": "bytes4"
						},
						{
							"indexed": false,
							"internalType": "uint8",
							"name": "entropy",
							"type": "uint8"
						}
					],
					"name": "Radiation",
					"type": "event"
				},
				{
					"inputs": [
						{
							"internalType": "bytes4",
							"name": "sel",
							"type": "bytes4"
						}
					],
					"name": "entropy",
					"outputs": [
						{
							"internalType": "uint8",
							"name": "score",
							"type": "uint8"
						}
					],
					"stateMutability": "pure",
					"type": "function"
				},
				{
					"inputs": [
						{
							"internalType": "bytes4",
							"name": "",
							"type": "bytes4"
						}
					],
					"name": "hits",
					"outputs": [
						{
							"internalType": "uint256",
							"name": "",
							"type": "uint256"
						}
					],
					"stateMutability": "view",
					"type": "function"
				},
				{
					"inputs": [
						{
							"internalType": "bytes4",
							"name": "sel",
							"type": "bytes4"
						}
					],
					"name": "logSelector",
					"outputs": [],
					"stateMutability": "nonpayable",
					"type": "function"
				}
			],
			"devdoc": {
				"kind": "dev",
				"methods": {},
				"version": 1
			},
			"evm": {
				"assembly": "    /* \"R/Radiation Monitoring/SelectorEntropyMonitor.sol\":0:437  contract SelectorEntropyMonitor {... */\n  mstore(0x40, 0x80)\n  callvalue\n  dup1\n  iszero\n  tag_1\n  jumpi\n  0x00\n  dup1\n  revert\ntag_1:\n  pop\n  dataSize(sub_0)\n  dup1\n  dataOffset(sub_0)\n  0x00\n  codecopy\n  0x00\n  return\nstop\n\nsub_0: assembly {\n        /* \"R/Radiation Monitoring/SelectorEntropyMonitor.sol\":0:437  contract SelectorEntropyMonitor {... */\n      mstore(0x40, 0x80)\n      callvalue\n      dup1\n      iszero\n      tag_1\n      jumpi\n      0x00\n      dup1\n      revert\n    tag_1:\n      pop\n      jumpi(tag_2, lt(calldatasize, 0x04))\n      shr(0xe0, calldataload(0x00))\n      dup1\n      0x3f9cdbf7\n      eq\n      tag_3\n      jumpi\n      dup1\n      0x7ecb3b4f\n      eq\n      tag_4\n      jumpi\n      dup1\n      0x94b45f14\n      eq\n      tag_5\n      jumpi\n    tag_2:\n      0x00\n      dup1\n      revert\n        /* \"R/Radiation Monitoring/SelectorEntropyMonitor.sol\":38:76  mapping(bytes4 => uint256) public hits */\n    tag_3:\n      tag_6\n      0x04\n      dup1\n      calldatasize\n      sub\n      dup2\n      add\n      swap1\n      tag_7\n      swap2\n      swap1\n      tag_8\n      jump\t// in\n    tag_7:\n      tag_9\n      jump\t// in\n    tag_6:\n      mload(0x40)\n      tag_10\n      swap2\n      swap1\n      tag_11\n      jump\t// in\n    tag_10:\n      mload(0x40)\n      dup1\n      swap2\n      sub\n      swap1\n      return\n        /* \"R/Radiation Monitoring/SelectorEntropyMonitor.sol\":253:435  function entropy(bytes4 sel) public pure returns (uint8 score) {... */\n    tag_4:\n      tag_12\n      0x04\n      dup1\n      calldatasize\n      sub\n      dup2\n      add\n      swap1\n      tag_13\n      swap2\n      swap1\n      tag_8\n      jump\t// in\n    tag_13:\n      tag_14\n      jump\t// in\n    tag_12:\n      mload(0x40)\n      tag_15\n      swap2\n      swap1\n      tag_16\n      jump\t// in\n    tag_15:\n      mload(0x40)\n      dup1\n      swap2\n      sub\n      swap1\n      return\n        /* \"R/Radiation Monitoring/SelectorEntropyMonitor.sol\":136:247  function logSelector(bytes4 sel) public {... */\n    tag_5:\n      tag_17\n      0x04\n      dup1\n      calldatasize\n      sub\n      dup2\n      add\n      swap1\n      tag_18\n      swap2\n      swap1\n      tag_8\n      jump\t// in\n    tag_18:\n      tag_19\n      jump\t// in\n    tag_17:\n      stop\n        /* \"R/Radiation Monitoring/SelectorEntropyMonitor.sol\":38:76  mapping(bytes4 => uint256) public hits */\n    tag_9:\n      mstore(0x20, 0x00)\n      dup1\n      0x00\n      mstore\n      keccak256(0x00, 0x40)\n      0x00\n      swap2\n      pop\n      swap1\n      pop\n      sload\n      dup2\n      jump\t// out\n        /* \"R/Radiation Monitoring/SelectorEntropyMonitor.sol\":253:435  function entropy(bytes4 sel) public pure returns (uint8 score) {... */\n    tag_14:\n        /* \"R/Radiation Monitoring/SelectorEntropyMonitor.sol\":303:314  uint8 score */\n      0x00\n        /* \"R/Radiation Monitoring/SelectorEntropyMonitor.sol\":326:334  uint32 x */\n      dup1\n        /* \"R/Radiation Monitoring/SelectorEntropyMonitor.sol\":344:347  sel */\n      dup3\n        /* \"R/Radiation Monitoring/SelectorEntropyMonitor.sol\":337:348  uint32(sel) */\n      0xe0\n      shr\n        /* \"R/Radiation Monitoring/SelectorEntropyMonitor.sol\":326:348  uint32 x = uint32(sel) */\n      swap1\n      pop\n        /* \"R/Radiation Monitoring/SelectorEntropyMonitor.sol\":358:429  while (x != 0) {... */\n    tag_21:\n        /* \"R/Radiation Monitoring/SelectorEntropyMonitor.sol\":370:371  0 */\n      0x00\n        /* \"R/Radiation Monitoring/SelectorEntropyMonitor.sol\":365:366  x */\n      dup2\n        /* \"R/Radiation Monitoring/SelectorEntropyMonitor.sol\":365:371  x != 0 */\n      0xffffffff\n      and\n      eq\n        /* \"R/Radiation Monitoring/SelectorEntropyMonitor.sol\":358:429  while (x != 0) {... */\n      tag_22\n      jumpi\n        /* \"R/Radiation Monitoring/SelectorEntropyMonitor.sol\":387:394  score++ */\n      dup2\n      dup1\n      tag_23\n      swap1\n      tag_24\n      jump\t// in\n    tag_23:\n      swap3\n      pop\n      pop\n        /* \"R/Radiation Monitoring/SelectorEntropyMonitor.sol\":417:418  1 */\n      0x01\n        /* \"R/Radiation Monitoring/SelectorEntropyMonitor.sol\":413:414  x */\n      dup2\n        /* \"R/Radiation Monitoring/SelectorEntropyMonitor.sol\":413:418  x - 1 */\n      tag_25\n      swap2\n      swap1\n      tag_26\n      jump\t// in\n    tag_25:\n        /* \"R/Radiation Monitoring/SelectorEntropyMonitor.sol\":408:418  x &= x - 1 */\n      dup2\n      and\n      swap1\n      pop\n        /* \"R/Radiation Monitoring/SelectorEntropyMonitor.sol\":358:429  while (x != 0) {... */\n      jump(tag_21)\n    tag_22:\n        /* \"R/Radiation Monitoring/SelectorEntropyMonitor.sol\":316:435  {... */\n      pop\n        /* \"R/Radiation Monitoring/SelectorEntropyMonitor.sol\":253:435  function entropy(bytes4 sel) public pure returns (uint8 score) {... */\n      swap2\n      swap1\n      pop\n      jump\t// out\n        /* \"R/Radiation Monitoring/SelectorEntropyMonitor.sol\":136:247  function logSelector(bytes4 sel) public {... */\n    tag_19:\n        /* \"R/Radiation Monitoring/SelectorEntropyMonitor.sol\":186:190  hits */\n      0x00\n        /* \"R/Radiation Monitoring/SelectorEntropyMonitor.sol\":186:195  hits[sel] */\n      dup1\n        /* \"R/Radiation Monitoring/SelectorEntropyMonitor.sol\":191:194  sel */\n      dup3\n        /* \"R/Radiation Monitoring/SelectorEntropyMonitor.sol\":186:195  hits[sel] */\n      not(0xffffffffffffffffffffffffffffffffffffffffffffffffffffffff)\n      and\n      not(0xffffffffffffffffffffffffffffffffffffffffffffffffffffffff)\n      and\n      dup2\n      mstore\n      0x20\n      add\n      swap1\n      dup2\n      mstore\n      0x20\n      add\n      0x00\n      keccak256\n      0x00\n        /* \"R/Radiation Monitoring/SelectorEntropyMonitor.sol\":186:197  hits[sel]++ */\n      dup2\n      sload\n      dup1\n      swap3\n      swap2\n      swap1\n      tag_28\n      swap1\n      tag_29\n      jump\t// in\n    tag_28:\n      swap2\n      swap1\n      pop\n      sstore\n      pop\n        /* \"R/Radiation Monitoring/SelectorEntropyMonitor.sol\":212:240  Radiation(sel, entropy(sel)) */\n      0x3e2d01adbe6fb527857c6380bf2f82457a0645a3c0ddb1d7939bccd13e58a059\n        /* \"R/Radiation Monitoring/SelectorEntropyMonitor.sol\":222:225  sel */\n      dup2\n        /* \"R/Radiation Monitoring/SelectorEntropyMonitor.sol\":227:239  entropy(sel) */\n      tag_30\n        /* \"R/Radiation Monitoring/SelectorEntropyMonitor.sol\":235:238  sel */\n      dup4\n        /* \"R/Radiation Monitoring/SelectorEntropyMonitor.sol\":227:234  entropy */\n      tag_14\n        /* \"R/Radiation Monitoring/SelectorEntropyMonitor.sol\":227:239  entropy(sel) */\n      jump\t// in\n    tag_30:\n        /* \"R/Radiation Monitoring/SelectorEntropyMonitor.sol\":212:240  Radiation(sel, entropy(sel)) */\n      mload(0x40)\n      tag_31\n      swap3\n      swap2\n      swap1\n      tag_32\n      jump\t// in\n    tag_31:\n      mload(0x40)\n      dup1\n      swap2\n      sub\n      swap1\n      log1\n        /* \"R/Radiation Monitoring/SelectorEntropyMonitor.sol\":136:247  function logSelector(bytes4 sel) public {... */\n      pop\n      jump\t// out\n        /* \"#utility.yul\":88:205   */\n    tag_34:\n        /* \"#utility.yul\":197:198   */\n      0x00\n        /* \"#utility.yul\":194:195   */\n      dup1\n        /* \"#utility.yul\":187:199   */\n      revert\n        /* \"#utility.yul\":334:483   */\n    tag_36:\n        /* \"#utility.yul\":370:377   */\n      0x00\n        /* \"#utility.yul\":410:476   */\n      0xffffffff00000000000000000000000000000000000000000000000000000000\n        /* \"#utility.yul\":403:408   */\n      dup3\n        /* \"#utility.yul\":399:477   */\n      and\n        /* \"#utility.yul\":388:477   */\n      swap1\n      pop\n        /* \"#utility.yul\":334:483   */\n      swap2\n      swap1\n      pop\n      jump\t// out\n        /* \"#utility.yul\":489:609   */\n    tag_37:\n        /* \"#utility.yul\":561:584   */\n      tag_52\n        /* \"#utility.yul\":578:583   */\n      dup2\n        /* \"#utility.yul\":561:584   */\n      tag_36\n      jump\t// in\n    tag_52:\n        /* \"#utility.yul\":554:559   */\n      dup2\n        /* \"#utility.yul\":551:585   */\n      eq\n        /* \"#utility.yul\":541:603   */\n      tag_53\n      jumpi\n        /* \"#utility.yul\":599:600   */\n      0x00\n        /* \"#utility.yul\":596:597   */\n      dup1\n        /* \"#utility.yul\":589:601   */\n      revert\n        /* \"#utility.yul\":541:603   */\n    tag_53:\n        /* \"#utility.yul\":489:609   */\n      pop\n      jump\t// out\n        /* \"#utility.yul\":615:752   */\n    tag_38:\n        /* \"#utility.yul\":660:665   */\n      0x00\n        /* \"#utility.yul\":698:704   */\n      dup2\n        /* \"#utility.yul\":685:705   */\n      calldataload\n        /* \"#utility.yul\":676:705   */\n      swap1\n      pop\n        /* \"#utility.yul\":714:746   */\n      tag_55\n        /* \"#utility.yul\":740:745   */\n      dup2\n        /* \"#utility.yul\":714:746   */\n      tag_37\n      jump\t// in\n    tag_55:\n        /* \"#utility.yul\":615:752   */\n      swap3\n      swap2\n      pop\n      pop\n      jump\t// out\n        /* \"#utility.yul\":758:1085   */\n    tag_8:\n        /* \"#utility.yul\":816:822   */\n      0x00\n        /* \"#utility.yul\":865:867   */\n      0x20\n        /* \"#utility.yul\":853:862   */\n      dup3\n        /* \"#utility.yul\":844:851   */\n      dup5\n        /* \"#utility.yul\":840:863   */\n      sub\n        /* \"#utility.yul\":836:868   */\n      slt\n        /* \"#utility.yul\":833:952   */\n      iszero\n      tag_57\n      jumpi\n        /* \"#utility.yul\":871:950   */\n      tag_58\n      tag_34\n      jump\t// in\n    tag_58:\n        /* \"#utility.yul\":833:952   */\n    tag_57:\n        /* \"#utility.yul\":991:992   */\n      0x00\n        /* \"#utility.yul\":1016:1068   */\n      tag_59\n        /* \"#utility.yul\":1060:1067   */\n      dup5\n        /* \"#utility.yul\":1051:1057   */\n      dup3\n        /* \"#utility.yul\":1040:1049   */\n      dup6\n        /* \"#utility.yul\":1036:1058   */\n      add\n        /* \"#utility.yul\":1016:1068   */\n      tag_38\n      jump\t// in\n    tag_59:\n        /* \"#utility.yul\":1006:1068   */\n      swap2\n      pop\n        /* \"#utility.yul\":962:1078   */\n      pop\n        /* \"#utility.yul\":758:1085   */\n      swap3\n      swap2\n      pop\n      pop\n      jump\t// out\n        /* \"#utility.yul\":1091:1168   */\n    tag_39:\n        /* \"#utility.yul\":1128:1135   */\n      0x00\n        /* \"#utility.yul\":1157:1162   */\n      dup2\n        /* \"#utility.yul\":1146:1162   */\n      swap1\n      pop\n        /* \"#utility.yul\":1091:1168   */\n      swap2\n      swap1\n      pop\n      jump\t// out\n        /* \"#utility.yul\":1174:1292   */\n    tag_40:\n        /* \"#utility.yul\":1261:1285   */\n      tag_62\n        /* \"#utility.yul\":1279:1284   */\n      dup2\n        /* \"#utility.yul\":1261:1285   */\n      tag_39\n      jump\t// in\n    tag_62:\n        /* \"#utility.yul\":1256:1259   */\n      dup3\n        /* \"#utility.yul\":1249:1286   */\n      mstore\n        /* \"#utility.yul\":1174:1292   */\n      pop\n      pop\n      jump\t// out\n        /* \"#utility.yul\":1298:1520   */\n    tag_11:\n        /* \"#utility.yul\":1391:1395   */\n      0x00\n        /* \"#utility.yul\":1429:1431   */\n      0x20\n        /* \"#utility.yul\":1418:1427   */\n      dup3\n        /* \"#utility.yul\":1414:1432   */\n      add\n        /* \"#utility.yul\":1406:1432   */\n      swap1\n      pop\n        /* \"#utility.yul\":1442:1513   */\n      tag_64\n        /* \"#utility.yul\":1510:1511   */\n      0x00\n        /* \"#utility.yul\":1499:1508   */\n      dup4\n        /* \"#utility.yul\":1495:1512   */\n      add\n        /* \"#utility.yul\":1486:1492   */\n      dup5\n        /* \"#utility.yul\":1442:1513   */\n      tag_40\n      jump\t// in\n    tag_64:\n        /* \"#utility.yul\":1298:1520   */\n      swap3\n      swap2\n      pop\n      pop\n      jump\t// out\n        /* \"#utility.yul\":1526:1612   */\n    tag_41:\n        /* \"#utility.yul\":1561:1568   */\n      0x00\n        /* \"#utility.yul\":1601:1605   */\n      0xff\n        /* \"#utility.yul\":1594:1599   */\n      dup3\n        /* \"#utility.yul\":1590:1606   */\n      and\n        /* \"#utility.yul\":1579:1606   */\n      swap1\n      pop\n        /* \"#utility.yul\":1526:1612   */\n      swap2\n      swap1\n      pop\n      jump\t// out\n        /* \"#utility.yul\":1618:1730   */\n    tag_42:\n        /* \"#utility.yul\":1701:1723   */\n      tag_67\n        /* \"#utility.yul\":1717:1722   */\n      dup2\n        /* \"#utility.yul\":1701:1723   */\n      tag_41\n      jump\t// in\n    tag_67:\n        /* \"#utility.yul\":1696:1699   */\n      dup3\n        /* \"#utility.yul\":1689:1724   */\n      mstore\n        /* \"#utility.yul\":1618:1730   */\n      pop\n      pop\n      jump\t// out\n        /* \"#utility.yul\":1736:1950   */\n    tag_16:\n        /* \"#utility.yul\":1825:1829   */\n      0x00\n        /* \"#utility.yul\":1863:1865   */\n      0x20\n        /* \"#utility.yul\":1852:1861   */\n      dup3\n        /* \"#utility.yul\":1848:1866   */\n      add\n        /* \"#utility.yul\":1840:1866   */\n      swap1\n      pop\n        /* \"#utility.yul\":1876:1943   */\n      tag_69\n        /* \"#utility.yul\":1940:1941   */\n      0x00\n        /* \"#utility.yul\":1929:1938   */\n      dup4\n        /* \"#utility.yul\":1925:1942   */\n      add\n        /* \"#utility.yul\":1916:1922   */\n      dup5\n        /* \"#utility.yul\":1876:1943   */\n      tag_42\n      jump\t// in\n    tag_69:\n        /* \"#utility.yul\":1736:1950   */\n      swap3\n      swap2\n      pop\n      pop\n      jump\t// out\n        /* \"#utility.yul\":1956:2136   */\n    tag_43:\n        /* \"#utility.yul\":2004:2081   */\n      0x4e487b7100000000000000000000000000000000000000000000000000000000\n        /* \"#utility.yul\":2001:2002   */\n      0x00\n        /* \"#utility.yul\":1994:2082   */\n      mstore\n        /* \"#utility.yul\":2101:2105   */\n      0x11\n        /* \"#utility.yul\":2098:2099   */\n      0x04\n        /* \"#utility.yul\":2091:2106   */\n      mstore\n        /* \"#utility.yul\":2125:2129   */\n      0x24\n        /* \"#utility.yul\":2122:2123   */\n      0x00\n        /* \"#utility.yul\":2115:2130   */\n      revert\n        /* \"#utility.yul\":2142:2309   */\n    tag_24:\n        /* \"#utility.yul\":2179:2182   */\n      0x00\n        /* \"#utility.yul\":2202:2224   */\n      tag_72\n        /* \"#utility.yul\":2218:2223   */\n      dup3\n        /* \"#utility.yul\":2202:2224   */\n      tag_41\n      jump\t// in\n    tag_72:\n        /* \"#utility.yul\":2193:2224   */\n      swap2\n      pop\n        /* \"#utility.yul\":2246:2250   */\n      0xff\n        /* \"#utility.yul\":2239:2244   */\n      dup3\n        /* \"#utility.yul\":2236:2251   */\n      sub\n        /* \"#utility.yul\":2233:2274   */\n      tag_73\n      jumpi\n        /* \"#utility.yul\":2254:2272   */\n      tag_74\n      tag_43\n      jump\t// in\n    tag_74:\n        /* \"#utility.yul\":2233:2274   */\n    tag_73:\n        /* \"#utility.yul\":2301:2302   */\n      0x01\n        /* \"#utility.yul\":2294:2299   */\n      dup3\n        /* \"#utility.yul\":2290:2303   */\n      add\n        /* \"#utility.yul\":2283:2303   */\n      swap1\n      pop\n        /* \"#utility.yul\":2142:2309   */\n      swap2\n      swap1\n      pop\n      jump\t// out\n        /* \"#utility.yul\":2315:2408   */\n    tag_44:\n        /* \"#utility.yul\":2351:2358   */\n      0x00\n        /* \"#utility.yul\":2391:2401   */\n      0xffffffff\n        /* \"#utility.yul\":2384:2389   */\n      dup3\n        /* \"#utility.yul\":2380:2402   */\n      and\n        /* \"#utility.yul\":2369:2402   */\n      swap1\n      pop\n        /* \"#utility.yul\":2315:2408   */\n      swap2\n      swap1\n      pop\n      jump\t// out\n        /* \"#utility.yul\":2414:2614   */\n    tag_26:\n        /* \"#utility.yul\":2453:2457   */\n      0x00\n        /* \"#utility.yul\":2473:2492   */\n      tag_77\n        /* \"#utility.yul\":2490:2491   */\n      dup3\n        /* \"#utility.yul\":2473:2492   */\n      tag_44\n      jump\t// in\n    tag_77:\n        /* \"#utility.yul\":2468:2492   */\n      swap2\n      pop\n        /* \"#utility.yul\":2506:2525   */\n      tag_78\n        /* \"#utility.yul\":2523:2524   */\n      dup4\n        /* \"#utility.yul\":2506:2525   */\n      tag_44\n      jump\t// in\n    tag_78:\n        /* \"#utility.yul\":2501:2525   */\n      swap3\n      pop\n        /* \"#utility.yul\":2549:2550   */\n      dup3\n        /* \"#utility.yul\":2546:2547   */\n      dup3\n        /* \"#utility.yul\":2542:2551   */\n      sub\n        /* \"#utility.yul\":2534:2551   */\n      swap1\n      pop\n        /* \"#utility.yul\":2573:2583   */\n      0xffffffff\n        /* \"#utility.yul\":2567:2571   */\n      dup2\n        /* \"#utility.yul\":2564:2584   */\n      gt\n        /* \"#utility.yul\":2561:2607   */\n      iszero\n      tag_79\n      jumpi\n        /* \"#utility.yul\":2587:2605   */\n      tag_80\n      tag_43\n      jump\t// in\n    tag_80:\n        /* \"#utility.yul\":2561:2607   */\n    tag_79:\n        /* \"#utility.yul\":2414:2614   */\n      swap3\n      swap2\n      pop\n      pop\n      jump\t// out\n        /* \"#utility.yul\":2620:2853   */\n    tag_29:\n        /* \"#utility.yul\":2659:2662   */\n      0x00\n        /* \"#utility.yul\":2682:2706   */\n      tag_82\n        /* \"#utility.yul\":2700:2705   */\n      dup3\n        /* \"#utility.yul\":2682:2706   */\n      tag_39\n      jump\t// in\n    tag_82:\n        /* \"#utility.yul\":2673:2706   */\n      swap2\n      pop\n        /* \"#utility.yul\":2728:2794   */\n      0xffffffffffffffffffffffffffffffffffffffffffffffffffffffffffffffff\n        /* \"#utility.yul\":2721:2726   */\n      dup3\n        /* \"#utility.yul\":2718:2795   */\n      sub\n        /* \"#utility.yul\":2715:2818   */\n      tag_83\n      jumpi\n        /* \"#utility.yul\":2798:2816   */\n      tag_84\n      tag_43\n      jump\t// in\n    tag_84:\n        /* \"#utility.yul\":2715:2818   */\n    tag_83:\n        /* \"#utility.yul\":2845:2846   */\n      0x01\n        /* \"#utility.yul\":2838:2843   */\n      dup3\n        /* \"#utility.yul\":2834:2847   */\n      add\n        /* \"#utility.yul\":2827:2847   */\n      swap1\n      pop\n        /* \"#utility.yul\":2620:2853   */\n      swap2\n      swap1\n      pop\n      jump\t// out\n        /* \"#utility.yul\":2859:2974   */\n    tag_45:\n        /* \"#utility.yul\":2944:2967   */\n      tag_86\n        /* \"#utility.yul\":2961:2966   */\n      dup2\n        /* \"#utility.yul\":2944:2967   */\n      tag_36\n      jump\t// in\n    tag_86:\n        /* \"#utility.yul\":2939:2942   */\n      dup3\n        /* \"#utility.yul\":2932:2968   */\n      mstore\n        /* \"#utility.yul\":2859:2974   */\n      pop\n      pop\n      jump\t// out\n        /* \"#utility.yul\":2980:3300   */\n    tag_32:\n        /* \"#utility.yul\":3095:3099   */\n      0x00\n        /* \"#utility.yul\":3133:3135   */\n      0x40\n        /* \"#utility.yul\":3122:3131   */\n      dup3\n        /* \"#utility.yul\":3118:3136   */\n      add\n        /* \"#utility.yul\":3110:3136   */\n      swap1\n      pop\n        /* \"#utility.yul\":3146:3215   */\n      tag_88\n        /* \"#utility.yul\":3212:3213   */\n      0x00\n        /* \"#utility.yul\":3201:3210   */\n      dup4\n        /* \"#utility.yul\":3197:3214   */\n      add\n        /* \"#utility.yul\":3188:3194   */\n      dup6\n        /* \"#utility.yul\":3146:3215   */\n      tag_45\n      jump\t// in\n    tag_88:\n        /* \"#utility.yul\":3225:3293   */\n      tag_89\n        /* \"#utility.yul\":3289:3291   */\n      0x20\n        /* \"#utility.yul\":3278:3287   */\n      dup4\n        /* \"#utility.yul\":3274:3292   */\n      add\n        /* \"#utility.yul\":3265:3271   */\n      dup5\n        /* \"#utility.yul\":3225:3293   */\n      tag_42\n      jump\t// in\n    tag_89:\n        /* \"#utility.yul\":2980:3300   */\n      swap4\n      swap3\n      pop\n      pop\n      pop\n      jump\t// out\n\n    auxdata: 0xa264697066735822122055b5910139186b09ec97fc40fd832999eec7ea6751800089b197cab9238f889764736f6c634300081a0033\n}\n",
				"bytecode": {
					"linkReferences": {},
					"object": "6080604052348015600e575f80fd5b506103f18061001c5f395ff3fe608060405234801561000f575f80fd5b506004361061003f575f3560e01c80633f9cdbf7146100435780637ecb3b4f1461007357806394b45f14146100a3575b5f80fd5b61005d60048036038101906100589190610213565b6100bf565b60405161006a9190610256565b60405180910390f35b61008d60048036038101906100889190610213565b6100d3565b60405161009a919061028a565b60405180910390f35b6100bd60048036038101906100b89190610213565b610113565b005b5f602052805f5260405f205f915090505481565b5f808260e01c90505b5f8163ffffffff161461010d5781806100f4906102d0565b9250506001816101049190610307565b811690506100dc565b50919050565b5f80827bffffffffffffffffffffffffffffffffffffffffffffffffffffffff19167bffffffffffffffffffffffffffffffffffffffffffffffffffffffff191681526020019081526020015f205f8154809291906101719061033e565b91905055507f3e2d01adbe6fb527857c6380bf2f82457a0645a3c0ddb1d7939bccd13e58a059816101a1836100d3565b6040516101af929190610394565b60405180910390a150565b5f80fd5b5f7fffffffff0000000000000000000000000000000000000000000000000000000082169050919050565b6101f2816101be565b81146101fc575f80fd5b50565b5f8135905061020d816101e9565b92915050565b5f60208284031215610228576102276101ba565b5b5f610235848285016101ff565b91505092915050565b5f819050919050565b6102508161023e565b82525050565b5f6020820190506102695f830184610247565b92915050565b5f60ff82169050919050565b6102848161026f565b82525050565b5f60208201905061029d5f83018461027b565b92915050565b7f4e487b71000000000000000000000000000000000000000000000000000000005f52601160045260245ffd5b5f6102da8261026f565b915060ff82036102ed576102ec6102a3565b5b600182019050919050565b5f63ffffffff82169050919050565b5f610311826102f8565b915061031c836102f8565b9250828203905063ffffffff811115610338576103376102a3565b5b92915050565b5f6103488261023e565b91507fffffffffffffffffffffffffffffffffffffffffffffffffffffffffffffffff820361037a576103796102a3565b5b600182019050919050565b61038e816101be565b82525050565b5f6040820190506103a75f830185610385565b6103b4602083018461027b565b939250505056fea264697066735822122055b5910139186b09ec97fc40fd832999eec7ea6751800089b197cab9238f889764736f6c634300081a0033",
					"opcodes": "PUSH1 0x80 PUSH1 0x40 MSTORE CALLVALUE DUP1 ISZERO PUSH1 0xE JUMPI PUSH0 DUP1 REVERT JUMPDEST POP PUSH2 0x3F1 DUP1 PUSH2 0x1C PUSH0 CODECOPY PUSH0 RETURN INVALID PUSH1 0x80 PUSH1 0x40 MSTORE CALLVALUE DUP1 ISZERO PUSH2 0xF JUMPI PUSH0 DUP1 REVERT JUMPDEST POP PUSH1 0x4 CALLDATASIZE LT PUSH2 0x3F JUMPI PUSH0 CALLDATALOAD PUSH1 0xE0 SHR DUP1 PUSH4 0x3F9CDBF7 EQ PUSH2 0x43 JUMPI DUP1 PUSH4 0x7ECB3B4F EQ PUSH2 0x73 JUMPI DUP1 PUSH4 0x94B45F14 EQ PUSH2 0xA3 JUMPI JUMPDEST PUSH0 DUP1 REVERT JUMPDEST PUSH2 0x5D PUSH1 0x4 DUP1 CALLDATASIZE SUB DUP2 ADD SWAP1 PUSH2 0x58 SWAP2 SWAP1 PUSH2 0x213 JUMP JUMPDEST PUSH2 0xBF JUMP JUMPDEST PUSH1 0x40 MLOAD PUSH2 0x6A SWAP2 SWAP1 PUSH2 0x256 JUMP JUMPDEST PUSH1 0x40 MLOAD DUP1 SWAP2 SUB SWAP1 RETURN JUMPDEST PUSH2 0x8D PUSH1 0x4 DUP1 CALLDATASIZE SUB DUP2 ADD SWAP1 PUSH2 0x88 SWAP2 SWAP1 PUSH2 0x213 JUMP JUMPDEST PUSH2 0xD3 JUMP JUMPDEST PUSH1 0x40 MLOAD PUSH2 0x9A SWAP2 SWAP1 PUSH2 0x28A JUMP JUMPDEST PUSH1 0x40 MLOAD DUP1 SWAP2 SUB SWAP1 RETURN JUMPDEST PUSH2 0xBD PUSH1 0x4 DUP1 CALLDATASIZE SUB DUP2 ADD SWAP1 PUSH2 0xB8 SWAP2 SWAP1 PUSH2 0x213 JUMP JUMPDEST PUSH2 0x113 JUMP JUMPDEST STOP JUMPDEST PUSH0 PUSH1 0x20 MSTORE DUP1 PUSH0 MSTORE PUSH1 0x40 PUSH0 KECCAK256 PUSH0 SWAP2 POP SWAP1 POP SLOAD DUP2 JUMP JUMPDEST PUSH0 DUP1 DUP3 PUSH1 0xE0 SHR SWAP1 POP JUMPDEST PUSH0 DUP2 PUSH4 0xFFFFFFFF AND EQ PUSH2 0x10D JUMPI DUP2 DUP1 PUSH2 0xF4 SWAP1 PUSH2 0x2D0 JUMP JUMPDEST SWAP3 POP POP PUSH1 0x1 DUP2 PUSH2 0x104 SWAP2 SWAP1 PUSH2 0x307 JUMP JUMPDEST DUP2 AND SWAP1 POP PUSH2 0xDC JUMP JUMPDEST POP SWAP2 SWAP1 POP JUMP JUMPDEST PUSH0 DUP1 DUP3 PUSH28 0xFFFFFFFFFFFFFFFFFFFFFFFFFFFFFFFFFFFFFFFFFFFFFFFFFFFFFFFF NOT AND PUSH28 0xFFFFFFFFFFFFFFFFFFFFFFFFFFFFFFFFFFFFFFFFFFFFFFFFFFFFFFFF NOT AND DUP2 MSTORE PUSH1 0x20 ADD SWAP1 DUP2 MSTORE PUSH1 0x20 ADD PUSH0 KECCAK256 PUSH0 DUP2 SLOAD DUP1 SWAP3 SWAP2 SWAP1 PUSH2 0x171 SWAP1 PUSH2 0x33E JUMP JUMPDEST SWAP2 SWAP1 POP SSTORE POP PUSH32 0x3E2D01ADBE6FB527857C6380BF2F82457A0645A3C0DDB1D7939BCCD13E58A059 DUP2 PUSH2 0x1A1 DUP4 PUSH2 0xD3 JUMP JUMPDEST PUSH1 0x40 MLOAD PUSH2 0x1AF SWAP3 SWAP2 SWAP1 PUSH2 0x394 JUMP JUMPDEST PUSH1 0x40 MLOAD DUP1 SWAP2 SUB SWAP1 LOG1 POP JUMP JUMPDEST PUSH0 DUP1 REVERT JUMPDEST PUSH0 PUSH32 0xFFFFFFFF00000000000000000000000000000000000000000000000000000000 DUP3 AND SWAP1 POP SWAP2 SWAP1 POP JUMP JUMPDEST PUSH2 0x1F2 DUP2 PUSH2 0x1BE JUMP JUMPDEST DUP2 EQ PUSH2 0x1FC JUMPI PUSH0 DUP1 REVERT JUMPDEST POP JUMP JUMPDEST PUSH0 DUP2 CALLDATALOAD SWAP1 POP PUSH2 0x20D DUP2 PUSH2 0x1E9 JUMP JUMPDEST SWAP3 SWAP2 POP POP JUMP JUMPDEST PUSH0 PUSH1 0x20 DUP3 DUP5 SUB SLT ISZERO PUSH2 0x228 JUMPI PUSH2 0x227 PUSH2 0x1BA JUMP JUMPDEST JUMPDEST PUSH0 PUSH2 0x235 DUP5 DUP3 DUP6 ADD PUSH2 0x1FF JUMP JUMPDEST SWAP2 POP POP SWAP3 SWAP2 POP POP JUMP JUMPDEST PUSH0 DUP2 SWAP1 POP SWAP2 SWAP1 POP JUMP JUMPDEST PUSH2 0x250 DUP2 PUSH2 0x23E JUMP JUMPDEST DUP3 MSTORE POP POP JUMP JUMPDEST PUSH0 PUSH1 0x20 DUP3 ADD SWAP1 POP PUSH2 0x269 PUSH0 DUP4 ADD DUP5 PUSH2 0x247 JUMP JUMPDEST SWAP3 SWAP2 POP POP JUMP JUMPDEST PUSH0 PUSH1 0xFF DUP3 AND SWAP1 POP SWAP2 SWAP1 POP JUMP JUMPDEST PUSH2 0x284 DUP2 PUSH2 0x26F JUMP JUMPDEST DUP3 MSTORE POP POP JUMP JUMPDEST PUSH0 PUSH1 0x20 DUP3 ADD SWAP1 POP PUSH2 0x29D PUSH0 DUP4 ADD DUP5 PUSH2 0x27B JUMP JUMPDEST SWAP3 SWAP2 POP POP JUMP JUMPDEST PUSH32 0x4E487B7100000000000000000000000000000000000000000000000000000000 PUSH0 MSTORE PUSH1 0x11 PUSH1 0x4 MSTORE PUSH1 0x24 PUSH0 REVERT JUMPDEST PUSH0 PUSH2 0x2DA DUP3 PUSH2 0x26F JUMP JUMPDEST SWAP2 POP PUSH1 0xFF DUP3 SUB PUSH2 0x2ED JUMPI PUSH2 0x2EC PUSH2 0x2A3 JUMP JUMPDEST JUMPDEST PUSH1 0x1 DUP3 ADD SWAP1 POP SWAP2 SWAP1 POP JUMP JUMPDEST PUSH0 PUSH4 0xFFFFFFFF DUP3 AND SWAP1 POP SWAP2 SWAP1 POP JUMP JUMPDEST PUSH0 PUSH2 0x311 DUP3 PUSH2 0x2F8 JUMP JUMPDEST SWAP2 POP PUSH2 0x31C DUP4 PUSH2 0x2F8 JUMP JUMPDEST SWAP3 POP DUP3 DUP3 SUB SWAP1 POP PUSH4 0xFFFFFFFF DUP2 GT ISZERO PUSH2 0x338 JUMPI PUSH2 0x337 PUSH2 0x2A3 JUMP JUMPDEST JUMPDEST SWAP3 SWAP2 POP POP JUMP JUMPDEST PUSH0 PUSH2 0x348 DUP3 PUSH2 0x23E JUMP JUMPDEST SWAP2 POP PUSH32 0xFFFFFFFFFFFFFFFFFFFFFFFFFFFFFFFFFFFFFFFFFFFFFFFFFFFFFFFFFFFFFFFF DUP3 SUB PUSH2 0x37A JUMPI PUSH2 0x379 PUSH2 0x2A3 JUMP JUMPDEST JUMPDEST PUSH1 0x1 DUP3 ADD SWAP1 POP SWAP2 SWAP1 POP JUMP JUMPDEST PUSH2 0x38E DUP2 PUSH2 0x1BE JUMP JUMPDEST DUP3 MSTORE POP POP JUMP JUMPDEST PUSH0 PUSH1 0x40 DUP3 ADD SWAP1 POP PUSH2 0x3A7 PUSH0 DUP4 ADD DUP6 PUSH2 0x385 JUMP JUMPDEST PUSH2 0x3B4 PUSH1 0x20 DUP4 ADD DUP5 PUSH2 0x27B JUMP JUMPDEST SWAP4 SWAP3 POP POP POP JUMP INVALID LOG2 PUSH5 0x6970667358 0x22 SLT KECCAK256 SSTORE 0xB5 SWAP2 ADD CODECOPY XOR PUSH12 0x9EC97FC40FD832999EEC7EA PUSH8 0x51800089B197CAB9 0x23 DUP16 DUP9 SWAP8 PUSH5 0x736F6C6343 STOP ADDMOD BYTE STOP CALLER "
				},
				"gasEstimates": {
					"creation": {
						"codeDepositCost": "201800",
						"executionCost": "243",
						"totalCost": "202043"
					},
					"external": {
						"entropy(bytes4)": "infinite",
						"hits(bytes4)": "2737",
						"logSelector(bytes4)": "infinite"
					}
				},
				"methodIdentifiers": {
					"entropy(bytes4)": "7ecb3b4f",
					"hits(bytes4)": "3f9cdbf7",
					"logSelector(bytes4)": "94b45f14"
				}
			},
			"storageLayout": {
				"storage": [
					{
						"astId": 4,
						"contract": "R/Radiation Monitoring/SelectorEntropyMonitor.sol:SelectorEntropyMonitor",
						"label": "hits",
						"offset": 0,
						"slot": "0",
						"type": "t_mapping(t_bytes4,t_uint256)"
					}
				],
				"types": {
					"t_bytes4": {
						"encoding": "inplace",
						"label": "bytes4",
						"numberOfBytes": "4"
					},
					"t_mapping(t_bytes4,t_uint256)": {
						"encoding": "mapping",
						"key": "t_bytes4",
						"label": "mapping(bytes4 => uint256)",
						"numberOfBytes": "32",
						"value": "t_uint256"
					},
					"t_uint256": {
						"encoding": "inplace",
						"label": "uint256",
						"numberOfBytes": "32"
					}
				}
			},
			"userdoc": {
				"kind": "user",
				"methods": {},
				"version": 1
			}
		}
	}
}