{
	"H/Hub/CrossChainHibWithSenderVerfication.sol": {
		"CrossChainHub": {
			"abi": [
				{
					"inputs": [
						{
							"internalType": "bytes32",
							"name": "",
							"type": "bytes32"
						}
					],
					"name": "executed",
					"outputs": [
						{
							"internalType": "bool",
							"name": "",
							"type": "bool"
						}
					],
					"stateMutability": "view",
					"type": "function"
				},
				{
					"inputs": [
						{
							"internalType": "bytes32",
							"name": "id",
							"type": "bytes32"
						},
						{
							"internalType": "address",
							"name": "target",
							"type": "address"
						},
						{
							"internalType": "bytes",
							"name": "payload",
							"type": "bytes"
						}
					],
					"name": "receiveMessage",
					"outputs": [],
					"stateMutability": "nonpayable",
					"type": "function"
				}
			],
			"devdoc": {
				"kind": "dev",
				"methods": {},
				"version": 1
			},
			"evm": {
				"assembly": "    /* \"H/Hub/CrossChainHibWithSenderVerfication.sol\":0:416  contract CrossChainHub {... */\n  mstore(0x40, 0x80)\n  callvalue\n  dup1\n  iszero\n  tag_1\n  jumpi\n  0x00\n  dup1\n  revert\ntag_1:\n  pop\n  dataSize(sub_0)\n  dup1\n  dataOffset(sub_0)\n  0x00\n  codecopy\n  0x00\n  return\nstop\n\nsub_0: assembly {\n        /* \"H/Hub/CrossChainHibWithSenderVerfication.sol\":0:416  contract CrossChainHub {... */\n      mstore(0x40, 0x80)\n      callvalue\n      dup1\n      iszero\n      tag_1\n      jumpi\n      0x00\n      dup1\n      revert\n    tag_1:\n      pop\n      jumpi(tag_2, lt(calldatasize, 0x04))\n      shr(0xe0, calldataload(0x00))\n      dup1\n      0xa9fcfb33\n      eq\n      tag_3\n      jumpi\n      dup1\n      0xc06bcf6c\n      eq\n      tag_4\n      jumpi\n    tag_2:\n      0x00\n      dup1\n      revert\n        /* \"H/Hub/CrossChainHibWithSenderVerfication.sol\":29:69  mapping(bytes32 => bool) public executed */\n    tag_3:\n      tag_5\n      0x04\n      dup1\n      calldatasize\n      sub\n      dup2\n      add\n      swap1\n      tag_6\n      swap2\n      swap1\n      tag_7\n      jump\t// in\n    tag_6:\n      tag_8\n      jump\t// in\n    tag_5:\n      mload(0x40)\n      tag_9\n      swap2\n      swap1\n      tag_10\n      jump\t// in\n    tag_9:\n      mload(0x40)\n      dup1\n      swap2\n      sub\n      swap1\n      return\n        /* \"H/Hub/CrossChainHibWithSenderVerfication.sol\":76:414  function receiveMessage(bytes32 id, address target, bytes calldata payload) external {... */\n    tag_4:\n      tag_11\n      0x04\n      dup1\n      calldatasize\n      sub\n      dup2\n      add\n      swap1\n      tag_12\n      swap2\n      swap1\n      tag_13\n      jump\t// in\n    tag_12:\n      tag_14\n      jump\t// in\n    tag_11:\n      stop\n        /* \"H/Hub/CrossChainHibWithSenderVerfication.sol\":29:69  mapping(bytes32 => bool) public executed */\n    tag_8:\n      mstore(0x20, 0x00)\n      dup1\n      0x00\n      mstore\n      keccak256(0x00, 0x40)\n      0x00\n      swap2\n      pop\n      sload\n      swap1\n      0x0100\n      exp\n      swap1\n      div\n      0xff\n      and\n      dup2\n      jump\t// out\n        /* \"H/Hub/CrossChainHibWithSenderVerfication.sol\":76:414  function receiveMessage(bytes32 id, address target, bytes calldata payload) external {... */\n    tag_14:\n        /* \"H/Hub/CrossChainHibWithSenderVerfication.sol\":180:188  executed */\n      0x00\n        /* \"H/Hub/CrossChainHibWithSenderVerfication.sol\":180:192  executed[id] */\n      dup1\n        /* \"H/Hub/CrossChainHibWithSenderVerfication.sol\":189:191  id */\n      dup6\n        /* \"H/Hub/CrossChainHibWithSenderVerfication.sol\":180:192  executed[id] */\n      dup2\n      mstore\n      0x20\n      add\n      swap1\n      dup2\n      mstore\n      0x20\n      add\n      0x00\n      keccak256\n      0x00\n      swap1\n      sload\n      swap1\n      0x0100\n      exp\n      swap1\n      div\n      0xff\n      and\n        /* \"H/Hub/CrossChainHibWithSenderVerfication.sol\":179:192  !executed[id] */\n      iszero\n        /* \"H/Hub/CrossChainHibWithSenderVerfication.sol\":171:214  require(!executed[id], \"Already processed\") */\n      tag_16\n      jumpi\n      mload(0x40)\n      0x08c379a000000000000000000000000000000000000000000000000000000000\n      dup2\n      mstore\n      0x04\n      add\n      tag_17\n      swap1\n      tag_18\n      jump\t// in\n    tag_17:\n      mload(0x40)\n      dup1\n      swap2\n      sub\n      swap1\n      revert\n    tag_16:\n        /* \"H/Hub/CrossChainHibWithSenderVerfication.sol\":239:243  true */\n      0x01\n        /* \"H/Hub/CrossChainHibWithSenderVerfication.sol\":224:232  executed */\n      0x00\n        /* \"H/Hub/CrossChainHibWithSenderVerfication.sol\":224:236  executed[id] */\n      dup1\n        /* \"H/Hub/CrossChainHibWithSenderVerfication.sol\":233:235  id */\n      dup7\n        /* \"H/Hub/CrossChainHibWithSenderVerfication.sol\":224:236  executed[id] */\n      dup2\n      mstore\n      0x20\n      add\n      swap1\n      dup2\n      mstore\n      0x20\n      add\n      0x00\n      keccak256\n      0x00\n        /* \"H/Hub/CrossChainHibWithSenderVerfication.sol\":224:243  executed[id] = true */\n      0x0100\n      exp\n      dup2\n      sload\n      dup2\n      0xff\n      mul\n      not\n      and\n      swap1\n      dup4\n      iszero\n      iszero\n      mul\n      or\n      swap1\n      sstore\n      pop\n        /* \"H/Hub/CrossChainHibWithSenderVerfication.sol\":333:340  bool ok */\n      0x00\n        /* \"H/Hub/CrossChainHibWithSenderVerfication.sol\":346:352  target */\n      dup4\n        /* \"H/Hub/CrossChainHibWithSenderVerfication.sol\":346:357  target.call */\n      0xffffffffffffffffffffffffffffffffffffffff\n      and\n        /* \"H/Hub/CrossChainHibWithSenderVerfication.sol\":358:365  payload */\n      dup4\n      dup4\n        /* \"H/Hub/CrossChainHibWithSenderVerfication.sol\":346:366  target.call(payload) */\n      mload(0x40)\n      tag_19\n      swap3\n      swap2\n      swap1\n      tag_20\n      jump\t// in\n    tag_19:\n      0x00\n      mload(0x40)\n      dup1\n      dup4\n      sub\n      dup2\n      0x00\n      dup7\n      gas\n      call\n      swap2\n      pop\n      pop\n      returndatasize\n      dup1\n      0x00\n      dup2\n      eq\n      tag_23\n      jumpi\n      mload(0x40)\n      swap2\n      pop\n      and(add(returndatasize, 0x3f), not(0x1f))\n      dup3\n      add\n      0x40\n      mstore\n      returndatasize\n      dup3\n      mstore\n      returndatasize\n      0x00\n      0x20\n      dup5\n      add\n      returndatacopy\n      jump(tag_22)\n    tag_23:\n      0x60\n      swap2\n      pop\n    tag_22:\n      pop\n        /* \"H/Hub/CrossChainHibWithSenderVerfication.sol\":332:366  (bool ok, ) = target.call(payload) */\n      pop\n      swap1\n      pop\n        /* \"H/Hub/CrossChainHibWithSenderVerfication.sol\":384:386  ok */\n      dup1\n        /* \"H/Hub/CrossChainHibWithSenderVerfication.sol\":376:407  require(ok, \"Execution failed\") */\n      tag_24\n      jumpi\n      mload(0x40)\n      0x08c379a000000000000000000000000000000000000000000000000000000000\n      dup2\n      mstore\n      0x04\n      add\n      tag_25\n      swap1\n      tag_26\n      jump\t// in\n    tag_25:\n      mload(0x40)\n      dup1\n      swap2\n      sub\n      swap1\n      revert\n    tag_24:\n        /* \"H/Hub/CrossChainHibWithSenderVerfication.sol\":161:414  {... */\n      pop\n        /* \"H/Hub/CrossChainHibWithSenderVerfication.sol\":76:414  function receiveMessage(bytes32 id, address target, bytes calldata payload) external {... */\n      pop\n      pop\n      pop\n      pop\n      jump\t// out\n        /* \"#utility.yul\":88:205   */\n    tag_28:\n        /* \"#utility.yul\":197:198   */\n      0x00\n        /* \"#utility.yul\":194:195   */\n      dup1\n        /* \"#utility.yul\":187:199   */\n      revert\n        /* \"#utility.yul\":211:328   */\n    tag_29:\n        /* \"#utility.yul\":320:321   */\n      0x00\n        /* \"#utility.yul\":317:318   */\n      dup1\n        /* \"#utility.yul\":310:322   */\n      revert\n        /* \"#utility.yul\":334:411   */\n    tag_30:\n        /* \"#utility.yul\":371:378   */\n      0x00\n        /* \"#utility.yul\":400:405   */\n      dup2\n        /* \"#utility.yul\":389:405   */\n      swap1\n      pop\n        /* \"#utility.yul\":334:411   */\n      swap2\n      swap1\n      pop\n      jump\t// out\n        /* \"#utility.yul\":417:539   */\n    tag_31:\n        /* \"#utility.yul\":490:514   */\n      tag_57\n        /* \"#utility.yul\":508:513   */\n      dup2\n        /* \"#utility.yul\":490:514   */\n      tag_30\n      jump\t// in\n    tag_57:\n        /* \"#utility.yul\":483:488   */\n      dup2\n        /* \"#utility.yul\":480:515   */\n      eq\n        /* \"#utility.yul\":470:533   */\n      tag_58\n      jumpi\n        /* \"#utility.yul\":529:530   */\n      0x00\n        /* \"#utility.yul\":526:527   */\n      dup1\n        /* \"#utility.yul\":519:531   */\n      revert\n        /* \"#utility.yul\":470:533   */\n    tag_58:\n        /* \"#utility.yul\":417:539   */\n      pop\n      jump\t// out\n        /* \"#utility.yul\":545:684   */\n    tag_32:\n        /* \"#utility.yul\":591:596   */\n      0x00\n        /* \"#utility.yul\":629:635   */\n      dup2\n        /* \"#utility.yul\":616:636   */\n      calldataload\n        /* \"#utility.yul\":607:636   */\n      swap1\n      pop\n        /* \"#utility.yul\":645:678   */\n      tag_60\n        /* \"#utility.yul\":672:677   */\n      dup2\n        /* \"#utility.yul\":645:678   */\n      tag_31\n      jump\t// in\n    tag_60:\n        /* \"#utility.yul\":545:684   */\n      swap3\n      swap2\n      pop\n      pop\n      jump\t// out\n        /* \"#utility.yul\":690:1019   */\n    tag_7:\n        /* \"#utility.yul\":749:755   */\n      0x00\n        /* \"#utility.yul\":798:800   */\n      0x20\n        /* \"#utility.yul\":786:795   */\n      dup3\n        /* \"#utility.yul\":777:784   */\n      dup5\n        /* \"#utility.yul\":773:796   */\n      sub\n        /* \"#utility.yul\":769:801   */\n      slt\n        /* \"#utility.yul\":766:885   */\n      iszero\n      tag_62\n      jumpi\n        /* \"#utility.yul\":804:883   */\n      tag_63\n      tag_28\n      jump\t// in\n    tag_63:\n        /* \"#utility.yul\":766:885   */\n    tag_62:\n        /* \"#utility.yul\":924:925   */\n      0x00\n        /* \"#utility.yul\":949:1002   */\n      tag_64\n        /* \"#utility.yul\":994:1001   */\n      dup5\n        /* \"#utility.yul\":985:991   */\n      dup3\n        /* \"#utility.yul\":974:983   */\n      dup6\n        /* \"#utility.yul\":970:992   */\n      add\n        /* \"#utility.yul\":949:1002   */\n      tag_32\n      jump\t// in\n    tag_64:\n        /* \"#utility.yul\":939:1002   */\n      swap2\n      pop\n        /* \"#utility.yul\":895:1012   */\n      pop\n        /* \"#utility.yul\":690:1019   */\n      swap3\n      swap2\n      pop\n      pop\n      jump\t// out\n        /* \"#utility.yul\":1025:1115   */\n    tag_33:\n        /* \"#utility.yul\":1059:1066   */\n      0x00\n        /* \"#utility.yul\":1102:1107   */\n      dup2\n        /* \"#utility.yul\":1095:1108   */\n      iszero\n        /* \"#utility.yul\":1088:1109   */\n      iszero\n        /* \"#utility.yul\":1077:1109   */\n      swap1\n      pop\n        /* \"#utility.yul\":1025:1115   */\n      swap2\n      swap1\n      pop\n      jump\t// out\n        /* \"#utility.yul\":1121:1230   */\n    tag_34:\n        /* \"#utility.yul\":1202:1223   */\n      tag_67\n        /* \"#utility.yul\":1217:1222   */\n      dup2\n        /* \"#utility.yul\":1202:1223   */\n      tag_33\n      jump\t// in\n    tag_67:\n        /* \"#utility.yul\":1197:1200   */\n      dup3\n        /* \"#utility.yul\":1190:1224   */\n      mstore\n        /* \"#utility.yul\":1121:1230   */\n      pop\n      pop\n      jump\t// out\n        /* \"#utility.yul\":1236:1446   */\n    tag_10:\n        /* \"#utility.yul\":1323:1327   */\n      0x00\n        /* \"#utility.yul\":1361:1363   */\n      0x20\n        /* \"#utility.yul\":1350:1359   */\n      dup3\n        /* \"#utility.yul\":1346:1364   */\n      add\n        /* \"#utility.yul\":1338:1364   */\n      swap1\n      pop\n        /* \"#utility.yul\":1374:1439   */\n      tag_69\n        /* \"#utility.yul\":1436:1437   */\n      0x00\n        /* \"#utility.yul\":1425:1434   */\n      dup4\n        /* \"#utility.yul\":1421:1438   */\n      add\n        /* \"#utility.yul\":1412:1418   */\n      dup5\n        /* \"#utility.yul\":1374:1439   */\n      tag_34\n      jump\t// in\n    tag_69:\n        /* \"#utility.yul\":1236:1446   */\n      swap3\n      swap2\n      pop\n      pop\n      jump\t// out\n        /* \"#utility.yul\":1452:1578   */\n    tag_35:\n        /* \"#utility.yul\":1489:1496   */\n      0x00\n        /* \"#utility.yul\":1529:1571   */\n      0xffffffffffffffffffffffffffffffffffffffff\n        /* \"#utility.yul\":1522:1527   */\n      dup3\n        /* \"#utility.yul\":1518:1572   */\n      and\n        /* \"#utility.yul\":1507:1572   */\n      swap1\n      pop\n        /* \"#utility.yul\":1452:1578   */\n      swap2\n      swap1\n      pop\n      jump\t// out\n        /* \"#utility.yul\":1584:1680   */\n    tag_36:\n        /* \"#utility.yul\":1621:1628   */\n      0x00\n        /* \"#utility.yul\":1650:1674   */\n      tag_72\n        /* \"#utility.yul\":1668:1673   */\n      dup3\n        /* \"#utility.yul\":1650:1674   */\n      tag_35\n      jump\t// in\n    tag_72:\n        /* \"#utility.yul\":1639:1674   */\n      swap1\n      pop\n        /* \"#utility.yul\":1584:1680   */\n      swap2\n      swap1\n      pop\n      jump\t// out\n        /* \"#utility.yul\":1686:1808   */\n    tag_37:\n        /* \"#utility.yul\":1759:1783   */\n      tag_74\n        /* \"#utility.yul\":1777:1782   */\n      dup2\n        /* \"#utility.yul\":1759:1783   */\n      tag_36\n      jump\t// in\n    tag_74:\n        /* \"#utility.yul\":1752:1757   */\n      dup2\n        /* \"#utility.yul\":1749:1784   */\n      eq\n        /* \"#utility.yul\":1739:1802   */\n      tag_75\n      jumpi\n        /* \"#utility.yul\":1798:1799   */\n      0x00\n        /* \"#utility.yul\":1795:1796   */\n      dup1\n        /* \"#utility.yul\":1788:1800   */\n      revert\n        /* \"#utility.yul\":1739:1802   */\n    tag_75:\n        /* \"#utility.yul\":1686:1808   */\n      pop\n      jump\t// out\n        /* \"#utility.yul\":1814:1953   */\n    tag_38:\n        /* \"#utility.yul\":1860:1865   */\n      0x00\n        /* \"#utility.yul\":1898:1904   */\n      dup2\n        /* \"#utility.yul\":1885:1905   */\n      calldataload\n        /* \"#utility.yul\":1876:1905   */\n      swap1\n      pop\n        /* \"#utility.yul\":1914:1947   */\n      tag_77\n        /* \"#utility.yul\":1941:1946   */\n      dup2\n        /* \"#utility.yul\":1914:1947   */\n      tag_37\n      jump\t// in\n    tag_77:\n        /* \"#utility.yul\":1814:1953   */\n      swap3\n      swap2\n      pop\n      pop\n      jump\t// out\n        /* \"#utility.yul\":1959:2076   */\n    tag_39:\n        /* \"#utility.yul\":2068:2069   */\n      0x00\n        /* \"#utility.yul\":2065:2066   */\n      dup1\n        /* \"#utility.yul\":2058:2070   */\n      revert\n        /* \"#utility.yul\":2082:2199   */\n    tag_40:\n        /* \"#utility.yul\":2191:2192   */\n      0x00\n        /* \"#utility.yul\":2188:2189   */\n      dup1\n        /* \"#utility.yul\":2181:2193   */\n      revert\n        /* \"#utility.yul\":2205:2322   */\n    tag_41:\n        /* \"#utility.yul\":2314:2315   */\n      0x00\n        /* \"#utility.yul\":2311:2312   */\n      dup1\n        /* \"#utility.yul\":2304:2316   */\n      revert\n        /* \"#utility.yul\":2341:2893   */\n    tag_42:\n        /* \"#utility.yul\":2398:2406   */\n      0x00\n        /* \"#utility.yul\":2408:2414   */\n      dup1\n        /* \"#utility.yul\":2458:2461   */\n      dup4\n        /* \"#utility.yul\":2451:2455   */\n      0x1f\n        /* \"#utility.yul\":2443:2449   */\n      dup5\n        /* \"#utility.yul\":2439:2456   */\n      add\n        /* \"#utility.yul\":2435:2462   */\n      slt\n        /* \"#utility.yul\":2425:2547   */\n      tag_82\n      jumpi\n        /* \"#utility.yul\":2466:2545   */\n      tag_83\n      tag_39\n      jump\t// in\n    tag_83:\n        /* \"#utility.yul\":2425:2547   */\n    tag_82:\n        /* \"#utility.yul\":2579:2585   */\n      dup3\n        /* \"#utility.yul\":2566:2586   */\n      calldataload\n        /* \"#utility.yul\":2556:2586   */\n      swap1\n      pop\n        /* \"#utility.yul\":2609:2627   */\n      0xffffffffffffffff\n        /* \"#utility.yul\":2601:2607   */\n      dup2\n        /* \"#utility.yul\":2598:2628   */\n      gt\n        /* \"#utility.yul\":2595:2712   */\n      iszero\n      tag_84\n      jumpi\n        /* \"#utility.yul\":2631:2710   */\n      tag_85\n      tag_40\n      jump\t// in\n    tag_85:\n        /* \"#utility.yul\":2595:2712   */\n    tag_84:\n        /* \"#utility.yul\":2745:2749   */\n      0x20\n        /* \"#utility.yul\":2737:2743   */\n      dup4\n        /* \"#utility.yul\":2733:2750   */\n      add\n        /* \"#utility.yul\":2721:2750   */\n      swap2\n      pop\n        /* \"#utility.yul\":2799:2802   */\n      dup4\n        /* \"#utility.yul\":2791:2795   */\n      0x01\n        /* \"#utility.yul\":2783:2789   */\n      dup3\n        /* \"#utility.yul\":2779:2796   */\n      mul\n        /* \"#utility.yul\":2769:2777   */\n      dup4\n        /* \"#utility.yul\":2765:2797   */\n      add\n        /* \"#utility.yul\":2762:2803   */\n      gt\n        /* \"#utility.yul\":2759:2887   */\n      iszero\n      tag_86\n      jumpi\n        /* \"#utility.yul\":2806:2885   */\n      tag_87\n      tag_41\n      jump\t// in\n    tag_87:\n        /* \"#utility.yul\":2759:2887   */\n    tag_86:\n        /* \"#utility.yul\":2341:2893   */\n      swap3\n      pop\n      swap3\n      swap1\n      pop\n      jump\t// out\n        /* \"#utility.yul\":2899:3716   */\n    tag_13:\n        /* \"#utility.yul\":2987:2993   */\n      0x00\n        /* \"#utility.yul\":2995:3001   */\n      dup1\n        /* \"#utility.yul\":3003:3009   */\n      0x00\n        /* \"#utility.yul\":3011:3017   */\n      dup1\n        /* \"#utility.yul\":3060:3062   */\n      0x60\n        /* \"#utility.yul\":3048:3057   */\n      dup6\n        /* \"#utility.yul\":3039:3046   */\n      dup8\n        /* \"#utility.yul\":3035:3058   */\n      sub\n        /* \"#utility.yul\":3031:3063   */\n      slt\n        /* \"#utility.yul\":3028:3147   */\n      iszero\n      tag_89\n      jumpi\n        /* \"#utility.yul\":3066:3145   */\n      tag_90\n      tag_28\n      jump\t// in\n    tag_90:\n        /* \"#utility.yul\":3028:3147   */\n    tag_89:\n        /* \"#utility.yul\":3186:3187   */\n      0x00\n        /* \"#utility.yul\":3211:3264   */\n      tag_91\n        /* \"#utility.yul\":3256:3263   */\n      dup8\n        /* \"#utility.yul\":3247:3253   */\n      dup3\n        /* \"#utility.yul\":3236:3245   */\n      dup9\n        /* \"#utility.yul\":3232:3254   */\n      add\n        /* \"#utility.yul\":3211:3264   */\n      tag_32\n      jump\t// in\n    tag_91:\n        /* \"#utility.yul\":3201:3264   */\n      swap5\n      pop\n        /* \"#utility.yul\":3157:3274   */\n      pop\n        /* \"#utility.yul\":3313:3315   */\n      0x20\n        /* \"#utility.yul\":3339:3392   */\n      tag_92\n        /* \"#utility.yul\":3384:3391   */\n      dup8\n        /* \"#utility.yul\":3375:3381   */\n      dup3\n        /* \"#utility.yul\":3364:3373   */\n      dup9\n        /* \"#utility.yul\":3360:3382   */\n      add\n        /* \"#utility.yul\":3339:3392   */\n      tag_38\n      jump\t// in\n    tag_92:\n        /* \"#utility.yul\":3329:3392   */\n      swap4\n      pop\n        /* \"#utility.yul\":3284:3402   */\n      pop\n        /* \"#utility.yul\":3469:3471   */\n      0x40\n        /* \"#utility.yul\":3458:3467   */\n      dup6\n        /* \"#utility.yul\":3454:3472   */\n      add\n        /* \"#utility.yul\":3441:3473   */\n      calldataload\n        /* \"#utility.yul\":3500:3518   */\n      0xffffffffffffffff\n        /* \"#utility.yul\":3492:3498   */\n      dup2\n        /* \"#utility.yul\":3489:3519   */\n      gt\n        /* \"#utility.yul\":3486:3603   */\n      iszero\n      tag_93\n      jumpi\n        /* \"#utility.yul\":3522:3601   */\n      tag_94\n      tag_29\n      jump\t// in\n    tag_94:\n        /* \"#utility.yul\":3486:3603   */\n    tag_93:\n        /* \"#utility.yul\":3635:3699   */\n      tag_95\n        /* \"#utility.yul\":3691:3698   */\n      dup8\n        /* \"#utility.yul\":3682:3688   */\n      dup3\n        /* \"#utility.yul\":3671:3680   */\n      dup9\n        /* \"#utility.yul\":3667:3689   */\n      add\n        /* \"#utility.yul\":3635:3699   */\n      tag_42\n      jump\t// in\n    tag_95:\n        /* \"#utility.yul\":3617:3699   */\n      swap3\n      pop\n      swap3\n      pop\n        /* \"#utility.yul\":3412:3709   */\n      pop\n        /* \"#utility.yul\":2899:3716   */\n      swap3\n      swap6\n      swap2\n      swap5\n      pop\n      swap3\n      pop\n      jump\t// out\n        /* \"#utility.yul\":3722:3891   */\n    tag_43:\n        /* \"#utility.yul\":3806:3817   */\n      0x00\n        /* \"#utility.yul\":3840:3846   */\n      dup3\n        /* \"#utility.yul\":3835:3838   */\n      dup3\n        /* \"#utility.yul\":3828:3847   */\n      mstore\n        /* \"#utility.yul\":3880:3884   */\n      0x20\n        /* \"#utility.yul\":3875:3878   */\n      dup3\n        /* \"#utility.yul\":3871:3885   */\n      add\n        /* \"#utility.yul\":3856:3885   */\n      swap1\n      pop\n        /* \"#utility.yul\":3722:3891   */\n      swap3\n      swap2\n      pop\n      pop\n      jump\t// out\n        /* \"#utility.yul\":3897:4064   */\n    tag_44:\n        /* \"#utility.yul\":4037:4056   */\n      0x416c72656164792070726f636573736564000000000000000000000000000000\n        /* \"#utility.yul\":4033:4034   */\n      0x00\n        /* \"#utility.yul\":4025:4031   */\n      dup3\n        /* \"#utility.yul\":4021:4035   */\n      add\n        /* \"#utility.yul\":4014:4057   */\n      mstore\n        /* \"#utility.yul\":3897:4064   */\n      pop\n      jump\t// out\n        /* \"#utility.yul\":4070:4436   */\n    tag_45:\n        /* \"#utility.yul\":4212:4215   */\n      0x00\n        /* \"#utility.yul\":4233:4300   */\n      tag_99\n        /* \"#utility.yul\":4297:4299   */\n      0x11\n        /* \"#utility.yul\":4292:4295   */\n      dup4\n        /* \"#utility.yul\":4233:4300   */\n      tag_43\n      jump\t// in\n    tag_99:\n        /* \"#utility.yul\":4226:4300   */\n      swap2\n      pop\n        /* \"#utility.yul\":4309:4402   */\n      tag_100\n        /* \"#utility.yul\":4398:4401   */\n      dup3\n        /* \"#utility.yul\":4309:4402   */\n      tag_44\n      jump\t// in\n    tag_100:\n        /* \"#utility.yul\":4427:4429   */\n      0x20\n        /* \"#utility.yul\":4422:4425   */\n      dup3\n        /* \"#utility.yul\":4418:4430   */\n      add\n        /* \"#utility.yul\":4411:4430   */\n      swap1\n      pop\n        /* \"#utility.yul\":4070:4436   */\n      swap2\n      swap1\n      pop\n      jump\t// out\n        /* \"#utility.yul\":4442:4861   */\n    tag_18:\n        /* \"#utility.yul\":4608:4612   */\n      0x00\n        /* \"#utility.yul\":4646:4648   */\n      0x20\n        /* \"#utility.yul\":4635:4644   */\n      dup3\n        /* \"#utility.yul\":4631:4649   */\n      add\n        /* \"#utility.yul\":4623:4649   */\n      swap1\n      pop\n        /* \"#utility.yul\":4695:4704   */\n      dup2\n        /* \"#utility.yul\":4689:4693   */\n      dup2\n        /* \"#utility.yul\":4685:4705   */\n      sub\n        /* \"#utility.yul\":4681:4682   */\n      0x00\n        /* \"#utility.yul\":4670:4679   */\n      dup4\n        /* \"#utility.yul\":4666:4683   */\n      add\n        /* \"#utility.yul\":4659:4706   */\n      mstore\n        /* \"#utility.yul\":4723:4854   */\n      tag_102\n        /* \"#utility.yul\":4849:4853   */\n      dup2\n        /* \"#utility.yul\":4723:4854   */\n      tag_45\n      jump\t// in\n    tag_102:\n        /* \"#utility.yul\":4715:4854   */\n      swap1\n      pop\n        /* \"#utility.yul\":4442:4861   */\n      swap2\n      swap1\n      pop\n      jump\t// out\n        /* \"#utility.yul\":4867:5014   */\n    tag_46:\n        /* \"#utility.yul\":4968:4979   */\n      0x00\n        /* \"#utility.yul\":5005:5008   */\n      dup2\n        /* \"#utility.yul\":4990:5008   */\n      swap1\n      pop\n        /* \"#utility.yul\":4867:5014   */\n      swap3\n      swap2\n      pop\n      pop\n      jump\t// out\n        /* \"#utility.yul\":5020:5168   */\n    tag_47:\n        /* \"#utility.yul\":5118:5124   */\n      dup3\n        /* \"#utility.yul\":5113:5116   */\n      dup2\n        /* \"#utility.yul\":5108:5111   */\n      dup4\n        /* \"#utility.yul\":5095:5125   */\n      calldatacopy\n        /* \"#utility.yul\":5159:5160   */\n      0x00\n        /* \"#utility.yul\":5150:5156   */\n      dup4\n        /* \"#utility.yul\":5145:5148   */\n      dup4\n        /* \"#utility.yul\":5141:5157   */\n      add\n        /* \"#utility.yul\":5134:5161   */\n      mstore\n        /* \"#utility.yul\":5020:5168   */\n      pop\n      pop\n      pop\n      jump\t// out\n        /* \"#utility.yul\":5196:5523   */\n    tag_48:\n        /* \"#utility.yul\":5310:5313   */\n      0x00\n        /* \"#utility.yul\":5331:5419   */\n      tag_106\n        /* \"#utility.yul\":5412:5418   */\n      dup4\n        /* \"#utility.yul\":5407:5410   */\n      dup6\n        /* \"#utility.yul\":5331:5419   */\n      tag_46\n      jump\t// in\n    tag_106:\n        /* \"#utility.yul\":5324:5419   */\n      swap4\n      pop\n        /* \"#utility.yul\":5429:5485   */\n      tag_107\n        /* \"#utility.yul\":5478:5484   */\n      dup4\n        /* \"#utility.yul\":5473:5476   */\n      dup6\n        /* \"#utility.yul\":5466:5471   */\n      dup5\n        /* \"#utility.yul\":5429:5485   */\n      tag_47\n      jump\t// in\n    tag_107:\n        /* \"#utility.yul\":5510:5516   */\n      dup3\n        /* \"#utility.yul\":5505:5508   */\n      dup5\n        /* \"#utility.yul\":5501:5517   */\n      add\n        /* \"#utility.yul\":5494:5517   */\n      swap1\n      pop\n        /* \"#utility.yul\":5196:5523   */\n      swap4\n      swap3\n      pop\n      pop\n      pop\n      jump\t// out\n        /* \"#utility.yul\":5529:5820   */\n    tag_20:\n        /* \"#utility.yul\":5669:5672   */\n      0x00\n        /* \"#utility.yul\":5691:5794   */\n      tag_109\n        /* \"#utility.yul\":5790:5793   */\n      dup3\n        /* \"#utility.yul\":5781:5787   */\n      dup5\n        /* \"#utility.yul\":5773:5779   */\n      dup7\n        /* \"#utility.yul\":5691:5794   */\n      tag_48\n      jump\t// in\n    tag_109:\n        /* \"#utility.yul\":5684:5794   */\n      swap2\n      pop\n        /* \"#utility.yul\":5811:5814   */\n      dup2\n        /* \"#utility.yul\":5804:5814   */\n      swap1\n      pop\n        /* \"#utility.yul\":5529:5820   */\n      swap4\n      swap3\n      pop\n      pop\n      pop\n      jump\t// out\n        /* \"#utility.yul\":5826:5992   */\n    tag_49:\n        /* \"#utility.yul\":5966:5984   */\n      0x457865637574696f6e206661696c656400000000000000000000000000000000\n        /* \"#utility.yul\":5962:5963   */\n      0x00\n        /* \"#utility.yul\":5954:5960   */\n      dup3\n        /* \"#utility.yul\":5950:5964   */\n      add\n        /* \"#utility.yul\":5943:5985   */\n      mstore\n        /* \"#utility.yul\":5826:5992   */\n      pop\n      jump\t// out\n        /* \"#utility.yul\":5998:6364   */\n    tag_50:\n        /* \"#utility.yul\":6140:6143   */\n      0x00\n        /* \"#utility.yul\":6161:6228   */\n      tag_112\n        /* \"#utility.yul\":6225:6227   */\n      0x10\n        /* \"#utility.yul\":6220:6223   */\n      dup4\n        /* \"#utility.yul\":6161:6228   */\n      tag_43\n      jump\t// in\n    tag_112:\n        /* \"#utility.yul\":6154:6228   */\n      swap2\n      pop\n        /* \"#utility.yul\":6237:6330   */\n      tag_113\n        /* \"#utility.yul\":6326:6329   */\n      dup3\n        /* \"#utility.yul\":6237:6330   */\n      tag_49\n      jump\t// in\n    tag_113:\n        /* \"#utility.yul\":6355:6357   */\n      0x20\n        /* \"#utility.yul\":6350:6353   */\n      dup3\n        /* \"#utility.yul\":6346:6358   */\n      add\n        /* \"#utility.yul\":6339:6358   */\n      swap1\n      pop\n        /* \"#utility.yul\":5998:6364   */\n      swap2\n      swap1\n      pop\n      jump\t// out\n        /* \"#utility.yul\":6370:6789   */\n    tag_26:\n        /* \"#utility.yul\":6536:6540   */\n      0x00\n        /* \"#utility.yul\":6574:6576   */\n      0x20\n        /* \"#utility.yul\":6563:6572   */\n      dup3\n        /* \"#utility.yul\":6559:6577   */\n      add\n        /* \"#utility.yul\":6551:6577   */\n      swap1\n      pop\n        /* \"#utility.yul\":6623:6632   */\n      dup2\n        /* \"#utility.yul\":6617:6621   */\n      dup2\n        /* \"#utility.yul\":6613:6633   */\n      sub\n        /* \"#utility.yul\":6609:6610   */\n      0x00\n        /* \"#utility.yul\":6598:6607   */\n      dup4\n        /* \"#utility.yul\":6594:6611   */\n      add\n        /* \"#utility.yul\":6587:6634   */\n      mstore\n        /* \"#utility.yul\":6651:6782   */\n      tag_115\n        /* \"#utility.yul\":6777:6781   */\n      dup2\n        /* \"#utility.yul\":6651:6782   */\n      tag_50\n      jump\t// in\n    tag_115:\n        /* \"#utility.yul\":6643:6782   */\n      swap1\n      pop\n        /* \"#utility.yul\":6370:6789   */\n      swap2\n      swap1\n      pop\n      jump\t// out\n\n    auxdata: 0xa26469706673582212201afa4e1350b0c0513c1ba2d1dd52df51a53d3c5c6683ba1c2a737a54a547952364736f6c634300081a0033\n}\n",
				"bytecode": {
					"linkReferences": {},
					"object": "6080604052348015600e575f80fd5b506105058061001c5f395ff3fe608060405234801561000f575f80fd5b5060043610610034575f3560e01c8063a9fcfb3314610038578063c06bcf6c14610068575b5f80fd5b610052600480360381019061004d9190610211565b610084565b60405161005f9190610256565b60405180910390f35b610082600480360381019061007d919061032a565b6100a0565b005b5f602052805f5260405f205f915054906101000a900460ff1681565b5f808581526020019081526020015f205f9054906101000a900460ff16156100fd576040517f08c379a00000000000000000000000000000000000000000000000000000000081526004016100f4906103f5565b60405180910390fd5b60015f808681526020019081526020015f205f6101000a81548160ff0219169083151502179055505f8373ffffffffffffffffffffffffffffffffffffffff16838360405161014d92919061044f565b5f604051808303815f865af19150503d805f8114610186576040519150601f19603f3d011682016040523d82523d5f602084013e61018b565b606091505b50509050806101cf576040517f08c379a00000000000000000000000000000000000000000000000000000000081526004016101c6906104b1565b60405180910390fd5b5050505050565b5f80fd5b5f80fd5b5f819050919050565b6101f0816101de565b81146101fa575f80fd5b50565b5f8135905061020b816101e7565b92915050565b5f60208284031215610226576102256101d6565b5b5f610233848285016101fd565b91505092915050565b5f8115159050919050565b6102508161023c565b82525050565b5f6020820190506102695f830184610247565b92915050565b5f73ffffffffffffffffffffffffffffffffffffffff82169050919050565b5f6102988261026f565b9050919050565b6102a88161028e565b81146102b2575f80fd5b50565b5f813590506102c38161029f565b92915050565b5f80fd5b5f80fd5b5f80fd5b5f8083601f8401126102ea576102e96102c9565b5b8235905067ffffffffffffffff811115610307576103066102cd565b5b602083019150836001820283011115610323576103226102d1565b5b9250929050565b5f805f8060608587031215610342576103416101d6565b5b5f61034f878288016101fd565b9450506020610360878288016102b5565b935050604085013567ffffffffffffffff811115610381576103806101da565b5b61038d878288016102d5565b925092505092959194509250565b5f82825260208201905092915050565b7f416c72656164792070726f6365737365640000000000000000000000000000005f82015250565b5f6103df60118361039b565b91506103ea826103ab565b602082019050919050565b5f6020820190508181035f83015261040c816103d3565b9050919050565b5f81905092915050565b828183375f83830152505050565b5f6104368385610413565b935061044383858461041d565b82840190509392505050565b5f61045b82848661042b565b91508190509392505050565b7f457865637574696f6e206661696c6564000000000000000000000000000000005f82015250565b5f61049b60108361039b565b91506104a682610467565b602082019050919050565b5f6020820190508181035f8301526104c88161048f565b905091905056fea26469706673582212201afa4e1350b0c0513c1ba2d1dd52df51a53d3c5c6683ba1c2a737a54a547952364736f6c634300081a0033",
					"opcodes": "PUSH1 0x80 PUSH1 0x40 MSTORE CALLVALUE DUP1 ISZERO PUSH1 0xE JUMPI PUSH0 DUP1 REVERT JUMPDEST POP PUSH2 0x505 DUP1 PUSH2 0x1C PUSH0 CODECOPY PUSH0 RETURN INVALID PUSH1 0x80 PUSH1 0x40 MSTORE CALLVALUE DUP1 ISZERO PUSH2 0xF JUMPI PUSH0 DUP1 REVERT JUMPDEST POP PUSH1 0x4 CALLDATASIZE LT PUSH2 0x34 JUMPI PUSH0 CALLDATALOAD PUSH1 0xE0 SHR DUP1 PUSH4 0xA9FCFB33 EQ PUSH2 0x38 JUMPI DUP1 PUSH4 0xC06BCF6C EQ PUSH2 0x68 JUMPI JUMPDEST PUSH0 DUP1 REVERT JUMPDEST PUSH2 0x52 PUSH1 0x4 DUP1 CALLDATASIZE SUB DUP2 ADD SWAP1 PUSH2 0x4D SWAP2 SWAP1 PUSH2 0x211 JUMP JUMPDEST PUSH2 0x84 JUMP JUMPDEST PUSH1 0x40 MLOAD PUSH2 0x5F SWAP2 SWAP1 PUSH2 0x256 JUMP JUMPDEST PUSH1 0x40 MLOAD DUP1 SWAP2 SUB SWAP1 RETURN JUMPDEST PUSH2 0x82 PUSH1 0x4 DUP1 CALLDATASIZE SUB DUP2 ADD SWAP1 PUSH2 0x7D SWAP2 SWAP1 PUSH2 0x32A JUMP JUMPDEST PUSH2 0xA0 JUMP JUMPDEST STOP JUMPDEST PUSH0 PUSH1 0x20 MSTORE DUP1 PUSH0 MSTORE PUSH1 0x40 PUSH0 KECCAK256 PUSH0 SWAP2 POP SLOAD SWAP1 PUSH2 0x100 EXP SWAP1 DIV PUSH1 0xFF AND DUP2 JUMP JUMPDEST PUSH0 DUP1 DUP6 DUP2 MSTORE PUSH1 0x20 ADD SWAP1 DUP2 MSTORE PUSH1 0x20 ADD PUSH0 KECCAK256 PUSH0 SWAP1 SLOAD SWAP1 PUSH2 0x100 EXP SWAP1 DIV PUSH1 0xFF AND ISZERO PUSH2 0xFD JUMPI PUSH1 0x40 MLOAD PUSH32 0x8C379A000000000000000000000000000000000000000000000000000000000 DUP2 MSTORE PUSH1 0x4 ADD PUSH2 0xF4 SWAP1 PUSH2 0x3F5 JUMP JUMPDEST PUSH1 0x40 MLOAD DUP1 SWAP2 SUB SWAP1 REVERT JUMPDEST PUSH1 0x1 PUSH0 DUP1 DUP7 DUP2 MSTORE PUSH1 0x20 ADD SWAP1 DUP2 MSTORE PUSH1 0x20 ADD PUSH0 KECCAK256 PUSH0 PUSH2 0x100 EXP DUP2 SLOAD DUP2 PUSH1 0xFF MUL NOT AND SWAP1 DUP4 ISZERO ISZERO MUL OR SWAP1 SSTORE POP PUSH0 DUP4 PUSH20 0xFFFFFFFFFFFFFFFFFFFFFFFFFFFFFFFFFFFFFFFF AND DUP4 DUP4 PUSH1 0x40 MLOAD PUSH2 0x14D SWAP3 SWAP2 SWAP1 PUSH2 0x44F JUMP JUMPDEST PUSH0 PUSH1 0x40 MLOAD DUP1 DUP4 SUB DUP2 PUSH0 DUP7 GAS CALL SWAP2 POP POP RETURNDATASIZE DUP1 PUSH0 DUP2 EQ PUSH2 0x186 JUMPI PUSH1 0x40 MLOAD SWAP2 POP PUSH1 0x1F NOT PUSH1 0x3F RETURNDATASIZE ADD AND DUP3 ADD PUSH1 0x40 MSTORE RETURNDATASIZE DUP3 MSTORE RETURNDATASIZE PUSH0 PUSH1 0x20 DUP5 ADD RETURNDATACOPY PUSH2 0x18B JUMP JUMPDEST PUSH1 0x60 SWAP2 POP JUMPDEST POP POP SWAP1 POP DUP1 PUSH2 0x1CF JUMPI PUSH1 0x40 MLOAD PUSH32 0x8C379A000000000000000000000000000000000000000000000000000000000 DUP2 MSTORE PUSH1 0x4 ADD PUSH2 0x1C6 SWAP1 PUSH2 0x4B1 JUMP JUMPDEST PUSH1 0x40 MLOAD DUP1 SWAP2 SUB SWAP1 REVERT JUMPDEST POP POP POP POP POP JUMP JUMPDEST PUSH0 DUP1 REVERT JUMPDEST PUSH0 DUP1 REVERT JUMPDEST PUSH0 DUP2 SWAP1 POP SWAP2 SWAP1 POP JUMP JUMPDEST PUSH2 0x1F0 DUP2 PUSH2 0x1DE JUMP JUMPDEST DUP2 EQ PUSH2 0x1FA JUMPI PUSH0 DUP1 REVERT JUMPDEST POP JUMP JUMPDEST PUSH0 DUP2 CALLDATALOAD SWAP1 POP PUSH2 0x20B DUP2 PUSH2 0x1E7 JUMP JUMPDEST SWAP3 SWAP2 POP POP JUMP JUMPDEST PUSH0 PUSH1 0x20 DUP3 DUP5 SUB SLT ISZERO PUSH2 0x226 JUMPI PUSH2 0x225 PUSH2 0x1D6 JUMP JUMPDEST JUMPDEST PUSH0 PUSH2 0x233 DUP5 DUP3 DUP6 ADD PUSH2 0x1FD JUMP JUMPDEST SWAP2 POP POP SWAP3 SWAP2 POP POP JUMP JUMPDEST PUSH0 DUP2 ISZERO ISZERO SWAP1 POP SWAP2 SWAP1 POP JUMP JUMPDEST PUSH2 0x250 DUP2 PUSH2 0x23C JUMP JUMPDEST DUP3 MSTORE POP POP JUMP JUMPDEST PUSH0 PUSH1 0x20 DUP3 ADD SWAP1 POP PUSH2 0x269 PUSH0 DUP4 ADD DUP5 PUSH2 0x247 JUMP JUMPDEST SWAP3 SWAP2 POP POP JUMP JUMPDEST PUSH0 PUSH20 0xFFFFFFFFFFFFFFFFFFFFFFFFFFFFFFFFFFFFFFFF DUP3 AND SWAP1 POP SWAP2 SWAP1 POP JUMP JUMPDEST PUSH0 PUSH2 0x298 DUP3 PUSH2 0x26F JUMP JUMPDEST SWAP1 POP SWAP2 SWAP1 POP JUMP JUMPDEST PUSH2 0x2A8 DUP2 PUSH2 0x28E JUMP JUMPDEST DUP2 EQ PUSH2 0x2B2 JUMPI PUSH0 DUP1 REVERT JUMPDEST POP JUMP JUMPDEST PUSH0 DUP2 CALLDATALOAD SWAP1 POP PUSH2 0x2C3 DUP2 PUSH2 0x29F JUMP JUMPDEST SWAP3 SWAP2 POP POP JUMP JUMPDEST PUSH0 DUP1 REVERT JUMPDEST PUSH0 DUP1 REVERT JUMPDEST PUSH0 DUP1 REVERT JUMPDEST PUSH0 DUP1 DUP4 PUSH1 0x1F DUP5 ADD SLT PUSH2 0x2EA JUMPI PUSH2 0x2E9 PUSH2 0x2C9 JUMP JUMPDEST JUMPDEST DUP3 CALLDATALOAD SWAP1 POP PUSH8 0xFFFFFFFFFFFFFFFF DUP2 GT ISZERO PUSH2 0x307 JUMPI PUSH2 0x306 PUSH2 0x2CD JUMP JUMPDEST JUMPDEST PUSH1 0x20 DUP4 ADD SWAP2 POP DUP4 PUSH1 0x1 DUP3 MUL DUP4 ADD GT ISZERO PUSH2 0x323 JUMPI PUSH2 0x322 PUSH2 0x2D1 JUMP JUMPDEST JUMPDEST SWAP3 POP SWAP3 SWAP1 POP JUMP JUMPDEST PUSH0 DUP1 PUSH0 DUP1 PUSH1 0x60 DUP6 DUP8 SUB SLT ISZERO PUSH2 0x342 JUMPI PUSH2 0x341 PUSH2 0x1D6 JUMP JUMPDEST JUMPDEST PUSH0 PUSH2 0x34F DUP8 DUP3 DUP9 ADD PUSH2 0x1FD JUMP JUMPDEST SWAP5 POP POP PUSH1 0x20 PUSH2 0x360 DUP8 DUP3 DUP9 ADD PUSH2 0x2B5 JUMP JUMPDEST SWAP4 POP POP PUSH1 0x40 DUP6 ADD CALLDATALOAD PUSH8 0xFFFFFFFFFFFFFFFF DUP2 GT ISZERO PUSH2 0x381 JUMPI PUSH2 0x380 PUSH2 0x1DA JUMP JUMPDEST JUMPDEST PUSH2 0x38D DUP8 DUP3 DUP9 ADD PUSH2 0x2D5 JUMP JUMPDEST SWAP3 POP SWAP3 POP POP SWAP3 SWAP6 SWAP2 SWAP5 POP SWAP3 POP JUMP JUMPDEST PUSH0 DUP3 DUP3 MSTORE PUSH1 0x20 DUP3 ADD SWAP1 POP SWAP3 SWAP2 POP POP JUMP JUMPDEST PUSH32 0x416C72656164792070726F636573736564000000000000000000000000000000 PUSH0 DUP3 ADD MSTORE POP JUMP JUMPDEST PUSH0 PUSH2 0x3DF PUSH1 0x11 DUP4 PUSH2 0x39B JUMP JUMPDEST SWAP2 POP PUSH2 0x3EA DUP3 PUSH2 0x3AB JUMP JUMPDEST PUSH1 0x20 DUP3 ADD SWAP1 POP SWAP2 SWAP1 POP JUMP JUMPDEST PUSH0 PUSH1 0x20 DUP3 ADD SWAP1 POP DUP2 DUP2 SUB PUSH0 DUP4 ADD MSTORE PUSH2 0x40C DUP2 PUSH2 0x3D3 JUMP JUMPDEST SWAP1 POP SWAP2 SWAP1 POP JUMP JUMPDEST PUSH0 DUP2 SWAP1 POP SWAP3 SWAP2 POP POP JUMP JUMPDEST DUP3 DUP2 DUP4 CALLDATACOPY PUSH0 DUP4 DUP4 ADD MSTORE POP POP POP JUMP JUMPDEST PUSH0 PUSH2 0x436 DUP4 DUP6 PUSH2 0x413 JUMP JUMPDEST SWAP4 POP PUSH2 0x443 DUP4 DUP6 DUP5 PUSH2 0x41D JUMP JUMPDEST DUP3 DUP5 ADD SWAP1 POP SWAP4 SWAP3 POP POP POP JUMP JUMPDEST PUSH0 PUSH2 0x45B DUP3 DUP5 DUP7 PUSH2 0x42B JUMP JUMPDEST SWAP2 POP DUP2 SWAP1 POP SWAP4 SWAP3 POP POP POP JUMP JUMPDEST PUSH32 0x457865637574696F6E206661696C656400000000000000000000000000000000 PUSH0 DUP3 ADD MSTORE POP JUMP JUMPDEST PUSH0 PUSH2 0x49B PUSH1 0x10 DUP4 PUSH2 0x39B JUMP JUMPDEST SWAP2 POP PUSH2 0x4A6 DUP3 PUSH2 0x467 JUMP JUMPDEST PUSH1 0x20 DUP3 ADD SWAP1 POP SWAP2 SWAP1 POP JUMP JUMPDEST PUSH0 PUSH1 0x20 DUP3 ADD SWAP1 POP DUP2 DUP2 SUB PUSH0 DUP4 ADD MSTORE PUSH2 0x4C8 DUP2 PUSH2 0x48F JUMP JUMPDEST SWAP1 POP SWAP2 SWAP1 POP JUMP INVALID LOG2 PUSH5 0x6970667358 0x22 SLT KECCAK256 BYTE STATICCALL 0x4E SGT POP 0xB0 0xC0 MLOAD EXTCODECOPY SHL LOG2 0xD1 0xDD MSTORE 0xDF MLOAD 0xA5 RETURNDATASIZE EXTCODECOPY TLOAD PUSH7 0x83BA1C2A737A54 0xA5 SELFBALANCE SWAP6 0x23 PUSH5 0x736F6C6343 STOP ADDMOD BYTE STOP CALLER "
				},
				"gasEstimates": {
					"creation": {
						"codeDepositCost": "257000",
						"executionCost": "298",
						"totalCost": "257298"
					},
					"external": {
						"executed(bytes32)": "2762",
						"receiveMessage(bytes32,address,bytes)": "infinite"
					}
				},
				"methodIdentifiers": {
					"executed(bytes32)": "a9fcfb33",
					"receiveMessage(bytes32,address,bytes)": "c06bcf6c"
				}
			},
			"storageLayout": {
				"storage": [
					{
						"astId": 4,
						"contract": "H/Hub/CrossChainHibWithSenderVerfication.sol:CrossChainHub",
						"label": "executed",
						"offset": 0,
						"slot": "0",
						"type": "t_mapping(t_bytes32,t_bool)"
					}
				],
				"types": {
					"t_bool": {
						"encoding": "inplace",
						"label": "bool",
						"numberOfBytes": "1"
					},
					"t_bytes32": {
						"encoding": "inplace",
						"label": "bytes32",
						"numberOfBytes": "32"
					},
					"t_mapping(t_bytes32,t_bool)": {
						"encoding": "mapping",
						"key": "t_bytes32",
						"label": "mapping(bytes32 => bool)",
						"numberOfBytes": "32",
						"value": "t_bool"
					}
				}
			},
			"userdoc": {
				"kind": "user",
				"methods": {},
				"version": 1
			}
		}
	}
}