{
	"H/Hub/hubOverloadAttack.sol": {
		"SpamHub": {
			"abi": [
				{
					"anonymous": false,
					"inputs": [
						{
							"indexed": false,
							"internalType": "address",
							"name": "sender",
							"type": "address"
						},
						{
							"indexed": false,
							"internalType": "string",
							"name": "msg",
							"type": "string"
						}
					],
					"name": "Routed",
					"type": "event"
				},
				{
					"inputs": [
						{
							"internalType": "string",
							"name": "message",
							"type": "string"
						}
					],
					"name": "sendSpam",
					"outputs": [],
					"stateMutability": "nonpayable",
					"type": "function"
				}
			],
			"devdoc": {
				"kind": "dev",
				"methods": {},
				"version": 1
			},
			"evm": {
				"assembly": "    /* \"H/Hub/hubOverloadAttack.sol\":0:281  contract SpamHub {... */\n  mstore(0x40, 0x80)\n  callvalue\n  dup1\n  iszero\n  tag_1\n  jumpi\n  0x00\n  dup1\n  revert\ntag_1:\n  pop\n  dataSize(sub_0)\n  dup1\n  dataOffset(sub_0)\n  0x00\n  codecopy\n  0x00\n  return\nstop\n\nsub_0: assembly {\n        /* \"H/Hub/hubOverloadAttack.sol\":0:281  contract SpamHub {... */\n      mstore(0x40, 0x80)\n      callvalue\n      dup1\n      iszero\n      tag_1\n      jumpi\n      0x00\n      dup1\n      revert\n    tag_1:\n      pop\n      jumpi(tag_2, lt(calldatasize, 0x04))\n      shr(0xe0, calldataload(0x00))\n      dup1\n      0x65354af0\n      eq\n      tag_3\n      jumpi\n    tag_2:\n      0x00\n      dup1\n      revert\n        /* \"H/Hub/hubOverloadAttack.sol\":70:279  function sendSpam(string calldata message) external {... */\n    tag_3:\n      tag_4\n      0x04\n      dup1\n      calldatasize\n      sub\n      dup2\n      add\n      swap1\n      tag_5\n      swap2\n      swap1\n      tag_6\n      jump\t// in\n    tag_5:\n      tag_7\n      jump\t// in\n    tag_4:\n      stop\n    tag_7:\n        /* \"H/Hub/hubOverloadAttack.sol\":137:143  uint i */\n      0x00\n        /* \"H/Hub/hubOverloadAttack.sol\":132:273  for (uint i = 0; i < 100; i++) {... */\n    tag_9:\n        /* \"H/Hub/hubOverloadAttack.sol\":153:156  100 */\n      0x64\n        /* \"H/Hub/hubOverloadAttack.sol\":149:150  i */\n      dup2\n        /* \"H/Hub/hubOverloadAttack.sol\":149:156  i < 100 */\n      lt\n        /* \"H/Hub/hubOverloadAttack.sol\":132:273  for (uint i = 0; i < 100; i++) {... */\n      iszero\n      tag_10\n      jumpi\n        /* \"H/Hub/hubOverloadAttack.sol\":182:209  Routed(msg.sender, message) */\n      0xe7437885e47117a824858227a77e02f43a90c17d062ef90e762e58d0808d3eb7\n        /* \"H/Hub/hubOverloadAttack.sol\":189:199  msg.sender */\n      caller\n        /* \"H/Hub/hubOverloadAttack.sol\":201:208  message */\n      dup5\n      dup5\n        /* \"H/Hub/hubOverloadAttack.sol\":182:209  Routed(msg.sender, message) */\n      mload(0x40)\n      tag_12\n      swap4\n      swap3\n      swap2\n      swap1\n      tag_13\n      jump\t// in\n    tag_12:\n      mload(0x40)\n      dup1\n      swap2\n      sub\n      swap1\n      log1\n        /* \"H/Hub/hubOverloadAttack.sol\":158:161  i++ */\n      dup1\n      dup1\n      0x01\n      add\n      swap2\n      pop\n      pop\n        /* \"H/Hub/hubOverloadAttack.sol\":132:273  for (uint i = 0; i < 100; i++) {... */\n      jump(tag_9)\n    tag_10:\n      pop\n        /* \"H/Hub/hubOverloadAttack.sol\":70:279  function sendSpam(string calldata message) external {... */\n      pop\n      pop\n      jump\t// out\n        /* \"#utility.yul\":88:205   */\n    tag_15:\n        /* \"#utility.yul\":197:198   */\n      0x00\n        /* \"#utility.yul\":194:195   */\n      dup1\n        /* \"#utility.yul\":187:199   */\n      revert\n        /* \"#utility.yul\":211:328   */\n    tag_16:\n        /* \"#utility.yul\":320:321   */\n      0x00\n        /* \"#utility.yul\":317:318   */\n      dup1\n        /* \"#utility.yul\":310:322   */\n      revert\n        /* \"#utility.yul\":334:451   */\n    tag_17:\n        /* \"#utility.yul\":443:444   */\n      0x00\n        /* \"#utility.yul\":440:441   */\n      dup1\n        /* \"#utility.yul\":433:445   */\n      revert\n        /* \"#utility.yul\":457:574   */\n    tag_18:\n        /* \"#utility.yul\":566:567   */\n      0x00\n        /* \"#utility.yul\":563:564   */\n      dup1\n        /* \"#utility.yul\":556:568   */\n      revert\n        /* \"#utility.yul\":580:697   */\n    tag_19:\n        /* \"#utility.yul\":689:690   */\n      0x00\n        /* \"#utility.yul\":686:687   */\n      dup1\n        /* \"#utility.yul\":679:691   */\n      revert\n        /* \"#utility.yul\":717:1270   */\n    tag_20:\n        /* \"#utility.yul\":775:783   */\n      0x00\n        /* \"#utility.yul\":785:791   */\n      dup1\n        /* \"#utility.yul\":835:838   */\n      dup4\n        /* \"#utility.yul\":828:832   */\n      0x1f\n        /* \"#utility.yul\":820:826   */\n      dup5\n        /* \"#utility.yul\":816:833   */\n      add\n        /* \"#utility.yul\":812:839   */\n      slt\n        /* \"#utility.yul\":802:924   */\n      tag_36\n      jumpi\n        /* \"#utility.yul\":843:922   */\n      tag_37\n      tag_17\n      jump\t// in\n    tag_37:\n        /* \"#utility.yul\":802:924   */\n    tag_36:\n        /* \"#utility.yul\":956:962   */\n      dup3\n        /* \"#utility.yul\":943:963   */\n      calldataload\n        /* \"#utility.yul\":933:963   */\n      swap1\n      pop\n        /* \"#utility.yul\":986:1004   */\n      0xffffffffffffffff\n        /* \"#utility.yul\":978:984   */\n      dup2\n        /* \"#utility.yul\":975:1005   */\n      gt\n        /* \"#utility.yul\":972:1089   */\n      iszero\n      tag_38\n      jumpi\n        /* \"#utility.yul\":1008:1087   */\n      tag_39\n      tag_18\n      jump\t// in\n    tag_39:\n        /* \"#utility.yul\":972:1089   */\n    tag_38:\n        /* \"#utility.yul\":1122:1126   */\n      0x20\n        /* \"#utility.yul\":1114:1120   */\n      dup4\n        /* \"#utility.yul\":1110:1127   */\n      add\n        /* \"#utility.yul\":1098:1127   */\n      swap2\n      pop\n        /* \"#utility.yul\":1176:1179   */\n      dup4\n        /* \"#utility.yul\":1168:1172   */\n      0x01\n        /* \"#utility.yul\":1160:1166   */\n      dup3\n        /* \"#utility.yul\":1156:1173   */\n      mul\n        /* \"#utility.yul\":1146:1154   */\n      dup4\n        /* \"#utility.yul\":1142:1174   */\n      add\n        /* \"#utility.yul\":1139:1180   */\n      gt\n        /* \"#utility.yul\":1136:1264   */\n      iszero\n      tag_40\n      jumpi\n        /* \"#utility.yul\":1183:1262   */\n      tag_41\n      tag_19\n      jump\t// in\n    tag_41:\n        /* \"#utility.yul\":1136:1264   */\n    tag_40:\n        /* \"#utility.yul\":717:1270   */\n      swap3\n      pop\n      swap3\n      swap1\n      pop\n      jump\t// out\n        /* \"#utility.yul\":1276:1805   */\n    tag_6:\n        /* \"#utility.yul\":1347:1353   */\n      0x00\n        /* \"#utility.yul\":1355:1361   */\n      dup1\n        /* \"#utility.yul\":1404:1406   */\n      0x20\n        /* \"#utility.yul\":1392:1401   */\n      dup4\n        /* \"#utility.yul\":1383:1390   */\n      dup6\n        /* \"#utility.yul\":1379:1402   */\n      sub\n        /* \"#utility.yul\":1375:1407   */\n      slt\n        /* \"#utility.yul\":1372:1491   */\n      iszero\n      tag_43\n      jumpi\n        /* \"#utility.yul\":1410:1489   */\n      tag_44\n      tag_15\n      jump\t// in\n    tag_44:\n        /* \"#utility.yul\":1372:1491   */\n    tag_43:\n        /* \"#utility.yul\":1558:1559   */\n      0x00\n        /* \"#utility.yul\":1547:1556   */\n      dup4\n        /* \"#utility.yul\":1543:1560   */\n      add\n        /* \"#utility.yul\":1530:1561   */\n      calldataload\n        /* \"#utility.yul\":1588:1606   */\n      0xffffffffffffffff\n        /* \"#utility.yul\":1580:1586   */\n      dup2\n        /* \"#utility.yul\":1577:1607   */\n      gt\n        /* \"#utility.yul\":1574:1691   */\n      iszero\n      tag_45\n      jumpi\n        /* \"#utility.yul\":1610:1689   */\n      tag_46\n      tag_16\n      jump\t// in\n    tag_46:\n        /* \"#utility.yul\":1574:1691   */\n    tag_45:\n        /* \"#utility.yul\":1723:1788   */\n      tag_47\n        /* \"#utility.yul\":1780:1787   */\n      dup6\n        /* \"#utility.yul\":1771:1777   */\n      dup3\n        /* \"#utility.yul\":1760:1769   */\n      dup7\n        /* \"#utility.yul\":1756:1778   */\n      add\n        /* \"#utility.yul\":1723:1788   */\n      tag_20\n      jump\t// in\n    tag_47:\n        /* \"#utility.yul\":1705:1788   */\n      swap3\n      pop\n      swap3\n      pop\n        /* \"#utility.yul\":1501:1798   */\n      pop\n        /* \"#utility.yul\":1276:1805   */\n      swap3\n      pop\n      swap3\n      swap1\n      pop\n      jump\t// out\n        /* \"#utility.yul\":1811:1937   */\n    tag_21:\n        /* \"#utility.yul\":1848:1855   */\n      0x00\n        /* \"#utility.yul\":1888:1930   */\n      0xffffffffffffffffffffffffffffffffffffffff\n        /* \"#utility.yul\":1881:1886   */\n      dup3\n        /* \"#utility.yul\":1877:1931   */\n      and\n        /* \"#utility.yul\":1866:1931   */\n      swap1\n      pop\n        /* \"#utility.yul\":1811:1937   */\n      swap2\n      swap1\n      pop\n      jump\t// out\n        /* \"#utility.yul\":1943:2039   */\n    tag_22:\n        /* \"#utility.yul\":1980:1987   */\n      0x00\n        /* \"#utility.yul\":2009:2033   */\n      tag_50\n        /* \"#utility.yul\":2027:2032   */\n      dup3\n        /* \"#utility.yul\":2009:2033   */\n      tag_21\n      jump\t// in\n    tag_50:\n        /* \"#utility.yul\":1998:2033   */\n      swap1\n      pop\n        /* \"#utility.yul\":1943:2039   */\n      swap2\n      swap1\n      pop\n      jump\t// out\n        /* \"#utility.yul\":2045:2163   */\n    tag_23:\n        /* \"#utility.yul\":2132:2156   */\n      tag_52\n        /* \"#utility.yul\":2150:2155   */\n      dup2\n        /* \"#utility.yul\":2132:2156   */\n      tag_22\n      jump\t// in\n    tag_52:\n        /* \"#utility.yul\":2127:2130   */\n      dup3\n        /* \"#utility.yul\":2120:2157   */\n      mstore\n        /* \"#utility.yul\":2045:2163   */\n      pop\n      pop\n      jump\t// out\n        /* \"#utility.yul\":2169:2338   */\n    tag_24:\n        /* \"#utility.yul\":2253:2264   */\n      0x00\n        /* \"#utility.yul\":2287:2293   */\n      dup3\n        /* \"#utility.yul\":2282:2285   */\n      dup3\n        /* \"#utility.yul\":2275:2294   */\n      mstore\n        /* \"#utility.yul\":2327:2331   */\n      0x20\n        /* \"#utility.yul\":2322:2325   */\n      dup3\n        /* \"#utility.yul\":2318:2332   */\n      add\n        /* \"#utility.yul\":2303:2332   */\n      swap1\n      pop\n        /* \"#utility.yul\":2169:2338   */\n      swap3\n      swap2\n      pop\n      pop\n      jump\t// out\n        /* \"#utility.yul\":2344:2492   */\n    tag_25:\n        /* \"#utility.yul\":2442:2448   */\n      dup3\n        /* \"#utility.yul\":2437:2440   */\n      dup2\n        /* \"#utility.yul\":2432:2435   */\n      dup4\n        /* \"#utility.yul\":2419:2449   */\n      calldatacopy\n        /* \"#utility.yul\":2483:2484   */\n      0x00\n        /* \"#utility.yul\":2474:2480   */\n      dup4\n        /* \"#utility.yul\":2469:2472   */\n      dup4\n        /* \"#utility.yul\":2465:2481   */\n      add\n        /* \"#utility.yul\":2458:2485   */\n      mstore\n        /* \"#utility.yul\":2344:2492   */\n      pop\n      pop\n      pop\n      jump\t// out\n        /* \"#utility.yul\":2498:2600   */\n    tag_26:\n        /* \"#utility.yul\":2539:2545   */\n      0x00\n        /* \"#utility.yul\":2590:2592   */\n      0x1f\n        /* \"#utility.yul\":2586:2593   */\n      not\n        /* \"#utility.yul\":2581:2583   */\n      0x1f\n        /* \"#utility.yul\":2574:2579   */\n      dup4\n        /* \"#utility.yul\":2570:2584   */\n      add\n        /* \"#utility.yul\":2566:2594   */\n      and\n        /* \"#utility.yul\":2556:2594   */\n      swap1\n      pop\n        /* \"#utility.yul\":2498:2600   */\n      swap2\n      swap1\n      pop\n      jump\t// out\n        /* \"#utility.yul\":2630:2947   */\n    tag_27:\n        /* \"#utility.yul\":2728:2731   */\n      0x00\n        /* \"#utility.yul\":2749:2820   */\n      tag_57\n        /* \"#utility.yul\":2813:2819   */\n      dup4\n        /* \"#utility.yul\":2808:2811   */\n      dup6\n        /* \"#utility.yul\":2749:2820   */\n      tag_24\n      jump\t// in\n    tag_57:\n        /* \"#utility.yul\":2742:2820   */\n      swap4\n      pop\n        /* \"#utility.yul\":2830:2886   */\n      tag_58\n        /* \"#utility.yul\":2879:2885   */\n      dup4\n        /* \"#utility.yul\":2874:2877   */\n      dup6\n        /* \"#utility.yul\":2867:2872   */\n      dup5\n        /* \"#utility.yul\":2830:2886   */\n      tag_25\n      jump\t// in\n    tag_58:\n        /* \"#utility.yul\":2911:2940   */\n      tag_59\n        /* \"#utility.yul\":2933:2939   */\n      dup4\n        /* \"#utility.yul\":2911:2940   */\n      tag_26\n      jump\t// in\n    tag_59:\n        /* \"#utility.yul\":2906:2909   */\n      dup5\n        /* \"#utility.yul\":2902:2941   */\n      add\n        /* \"#utility.yul\":2895:2941   */\n      swap1\n      pop\n        /* \"#utility.yul\":2630:2947   */\n      swap4\n      swap3\n      pop\n      pop\n      pop\n      jump\t// out\n        /* \"#utility.yul\":2953:3396   */\n    tag_13:\n        /* \"#utility.yul\":3104:3108   */\n      0x00\n        /* \"#utility.yul\":3142:3144   */\n      0x40\n        /* \"#utility.yul\":3131:3140   */\n      dup3\n        /* \"#utility.yul\":3127:3145   */\n      add\n        /* \"#utility.yul\":3119:3145   */\n      swap1\n      pop\n        /* \"#utility.yul\":3155:3226   */\n      tag_61\n        /* \"#utility.yul\":3223:3224   */\n      0x00\n        /* \"#utility.yul\":3212:3221   */\n      dup4\n        /* \"#utility.yul\":3208:3225   */\n      add\n        /* \"#utility.yul\":3199:3205   */\n      dup7\n        /* \"#utility.yul\":3155:3226   */\n      tag_23\n      jump\t// in\n    tag_61:\n        /* \"#utility.yul\":3273:3282   */\n      dup2\n        /* \"#utility.yul\":3267:3271   */\n      dup2\n        /* \"#utility.yul\":3263:3283   */\n      sub\n        /* \"#utility.yul\":3258:3260   */\n      0x20\n        /* \"#utility.yul\":3247:3256   */\n      dup4\n        /* \"#utility.yul\":3243:3261   */\n      add\n        /* \"#utility.yul\":3236:3284   */\n      mstore\n        /* \"#utility.yul\":3301:3389   */\n      tag_62\n        /* \"#utility.yul\":3384:3388   */\n      dup2\n        /* \"#utility.yul\":3375:3381   */\n      dup5\n        /* \"#utility.yul\":3367:3373   */\n      dup7\n        /* \"#utility.yul\":3301:3389   */\n      tag_27\n      jump\t// in\n    tag_62:\n        /* \"#utility.yul\":3293:3389   */\n      swap1\n      pop\n        /* \"#utility.yul\":2953:3396   */\n      swap5\n      swap4\n      pop\n      pop\n      pop\n      pop\n      jump\t// out\n\n    auxdata: 0xa26469706673582212204b42a9107a08496457c961ebdfdf6aa149946c4dfec0e12027277eb4ef33cc7c64736f6c634300081a0033\n}\n",
				"bytecode": {
					"linkReferences": {},
					"object": "6080604052348015600e575f80fd5b506102548061001c5f395ff3fe608060405234801561000f575f80fd5b5060043610610029575f3560e01c806365354af01461002d575b5f80fd5b6100476004803603810190610042919061010a565b610049565b005b5f5b606481101561009c577fe7437885e47117a824858227a77e02f43a90c17d062ef90e762e58d0808d3eb7338484604051610087939291906101ee565b60405180910390a1808060010191505061004b565b505050565b5f80fd5b5f80fd5b5f80fd5b5f80fd5b5f80fd5b5f8083601f8401126100ca576100c96100a9565b5b8235905067ffffffffffffffff8111156100e7576100e66100ad565b5b602083019150836001820283011115610103576101026100b1565b5b9250929050565b5f80602083850312156101205761011f6100a1565b5b5f83013567ffffffffffffffff81111561013d5761013c6100a5565b5b610149858286016100b5565b92509250509250929050565b5f73ffffffffffffffffffffffffffffffffffffffff82169050919050565b5f61017e82610155565b9050919050565b61018e81610174565b82525050565b5f82825260208201905092915050565b828183375f83830152505050565b5f601f19601f8301169050919050565b5f6101cd8385610194565b93506101da8385846101a4565b6101e3836101b2565b840190509392505050565b5f6040820190506102015f830186610185565b81810360208301526102148184866101c2565b905094935050505056fea26469706673582212204b42a9107a08496457c961ebdfdf6aa149946c4dfec0e12027277eb4ef33cc7c64736f6c634300081a0033",
					"opcodes": "PUSH1 0x80 PUSH1 0x40 MSTORE CALLVALUE DUP1 ISZERO PUSH1 0xE JUMPI PUSH0 DUP1 REVERT JUMPDEST POP PUSH2 0x254 DUP1 PUSH2 0x1C PUSH0 CODECOPY PUSH0 RETURN INVALID PUSH1 0x80 PUSH1 0x40 MSTORE CALLVALUE DUP1 ISZERO PUSH2 0xF JUMPI PUSH0 DUP1 REVERT JUMPDEST POP PUSH1 0x4 CALLDATASIZE LT PUSH2 0x29 JUMPI PUSH0 CALLDATALOAD PUSH1 0xE0 SHR DUP1 PUSH4 0x65354AF0 EQ PUSH2 0x2D JUMPI JUMPDEST PUSH0 DUP1 REVERT JUMPDEST PUSH2 0x47 PUSH1 0x4 DUP1 CALLDATASIZE SUB DUP2 ADD SWAP1 PUSH2 0x42 SWAP2 SWAP1 PUSH2 0x10A JUMP JUMPDEST PUSH2 0x49 JUMP JUMPDEST STOP JUMPDEST PUSH0 JUMPDEST PUSH1 0x64 DUP2 LT ISZERO PUSH2 0x9C JUMPI PUSH32 0xE7437885E47117A824858227A77E02F43A90C17D062EF90E762E58D0808D3EB7 CALLER DUP5 DUP5 PUSH1 0x40 MLOAD PUSH2 0x87 SWAP4 SWAP3 SWAP2 SWAP1 PUSH2 0x1EE JUMP JUMPDEST PUSH1 0x40 MLOAD DUP1 SWAP2 SUB SWAP1 LOG1 DUP1 DUP1 PUSH1 0x1 ADD SWAP2 POP POP PUSH2 0x4B JUMP JUMPDEST POP POP POP JUMP JUMPDEST PUSH0 DUP1 REVERT JUMPDEST PUSH0 DUP1 REVERT JUMPDEST PUSH0 DUP1 REVERT JUMPDEST PUSH0 DUP1 REVERT JUMPDEST PUSH0 DUP1 REVERT JUMPDEST PUSH0 DUP1 DUP4 PUSH1 0x1F DUP5 ADD SLT PUSH2 0xCA JUMPI PUSH2 0xC9 PUSH2 0xA9 JUMP JUMPDEST JUMPDEST DUP3 CALLDATALOAD SWAP1 POP PUSH8 0xFFFFFFFFFFFFFFFF DUP2 GT ISZERO PUSH2 0xE7 JUMPI PUSH2 0xE6 PUSH2 0xAD JUMP JUMPDEST JUMPDEST PUSH1 0x20 DUP4 ADD SWAP2 POP DUP4 PUSH1 0x1 DUP3 MUL DUP4 ADD GT ISZERO PUSH2 0x103 JUMPI PUSH2 0x102 PUSH2 0xB1 JUMP JUMPDEST JUMPDEST SWAP3 POP SWAP3 SWAP1 POP JUMP JUMPDEST PUSH0 DUP1 PUSH1 0x20 DUP4 DUP6 SUB SLT ISZERO PUSH2 0x120 JUMPI PUSH2 0x11F PUSH2 0xA1 JUMP JUMPDEST JUMPDEST PUSH0 DUP4 ADD CALLDATALOAD PUSH8 0xFFFFFFFFFFFFFFFF DUP2 GT ISZERO PUSH2 0x13D JUMPI PUSH2 0x13C PUSH2 0xA5 JUMP JUMPDEST JUMPDEST PUSH2 0x149 DUP6 DUP3 DUP7 ADD PUSH2 0xB5 JUMP JUMPDEST SWAP3 POP SWAP3 POP POP SWAP3 POP SWAP3 SWAP1 POP JUMP JUMPDEST PUSH0 PUSH20 0xFFFFFFFFFFFFFFFFFFFFFFFFFFFFFFFFFFFFFFFF DUP3 AND SWAP1 POP SWAP2 SWAP1 POP JUMP JUMPDEST PUSH0 PUSH2 0x17E DUP3 PUSH2 0x155 JUMP JUMPDEST SWAP1 POP SWAP2 SWAP1 POP JUMP JUMPDEST PUSH2 0x18E DUP2 PUSH2 0x174 JUMP JUMPDEST DUP3 MSTORE POP POP JUMP JUMPDEST PUSH0 DUP3 DUP3 MSTORE PUSH1 0x20 DUP3 ADD SWAP1 POP SWAP3 SWAP2 POP POP JUMP JUMPDEST DUP3 DUP2 DUP4 CALLDATACOPY PUSH0 DUP4 DUP4 ADD MSTORE POP POP POP JUMP JUMPDEST PUSH0 PUSH1 0x1F NOT PUSH1 0x1F DUP4 ADD AND SWAP1 POP SWAP2 SWAP1 POP JUMP JUMPDEST PUSH0 PUSH2 0x1CD DUP4 DUP6 PUSH2 0x194 JUMP JUMPDEST SWAP4 POP PUSH2 0x1DA DUP4 DUP6 DUP5 PUSH2 0x1A4 JUMP JUMPDEST PUSH2 0x1E3 DUP4 PUSH2 0x1B2 JUMP JUMPDEST DUP5 ADD SWAP1 POP SWAP4 SWAP3 POP POP POP JUMP JUMPDEST PUSH0 PUSH1 0x40 DUP3 ADD SWAP1 POP PUSH2 0x201 PUSH0 DUP4 ADD DUP7 PUSH2 0x185 JUMP JUMPDEST DUP2 DUP2 SUB PUSH1 0x20 DUP4 ADD MSTORE PUSH2 0x214 DUP2 DUP5 DUP7 PUSH2 0x1C2 JUMP JUMPDEST SWAP1 POP SWAP5 SWAP4 POP POP POP POP JUMP INVALID LOG2 PUSH5 0x6970667358 0x22 SLT KECCAK256 0x4B TIMESTAMP 0xA9 LT PUSH27 0x8496457C961EBDFDF6AA149946C4DFEC0E12027277EB4EF33CC7C PUSH5 0x736F6C6343 STOP ADDMOD BYTE STOP CALLER "
				},
				"gasEstimates": {
					"creation": {
						"codeDepositCost": "119200",
						"executionCost": "163",
						"totalCost": "119363"
					},
					"external": {
						"sendSpam(string)": "infinite"
					}
				},
				"methodIdentifiers": {
					"sendSpam(string)": "65354af0"
				}
			},
			"storageLayout": {
				"storage": [],
				"types": null
			},
			"userdoc": {
				"kind": "user",
				"methods": {},
				"version": 1
			}
		}
	}
}