{
	"data": {
		"bytecode": {
			"linkReferences": {},
			"object": "6080604052348015600e575f80fd5b50610aef8061001c5f395ff3fe608060405234801561000f575f80fd5b506004361061003e575f3560e01c8062d5531814610042578063b62bba0f14610072578063e7b4cac61461008e575b5f80fd5b61005c6004803603810190610057919061048d565b6100c0565b6040516100699190610594565b60405180910390f35b61008c600480360381019061008791906106e0565b61023f565b005b6100a860048036038101906100a3919061048d565b6102d1565b6040516100b7939291906107ad565b60405180910390f35b6100c8610402565b5f808373ffffffffffffffffffffffffffffffffffffffff1673ffffffffffffffffffffffffffffffffffffffff1681526020019081526020015f206040518060600160405290815f8201805461011e9061081d565b80601f016020809104026020016040519081016040528092919081815260200182805461014a9061081d565b80156101955780601f1061016c57610100808354040283529160200191610195565b820191905f5260205f20905b81548152906001019060200180831161017857829003601f168201915b505050505081526020016001820180546101ae9061081d565b80601f01602080910402602001604051908101604052809291908181526020018280546101da9061081d565b80156102255780601f106101fc57610100808354040283529160200191610225565b820191905f5260205f20905b81548152906001019060200180831161020857829003601f168201915b505050505081526020016002820154815250509050919050565b6040518060600160405280838152602001828152602001428152505f803373ffffffffffffffffffffffffffffffffffffffff1673ffffffffffffffffffffffffffffffffffffffff1681526020019081526020015f205f820151815f0190816102a991906109ea565b5060208201518160010190816102bf91906109ea565b50604082015181600201559050505050565b5f602052805f5260405f205f91509050805f0180546102ef9061081d565b80601f016020809104026020016040519081016040528092919081815260200182805461031b9061081d565b80156103665780601f1061033d57610100808354040283529160200191610366565b820191905f5260205f20905b81548152906001019060200180831161034957829003601f168201915b50505050509080600101805461037b9061081d565b80601f01602080910402602001604051908101604052809291908181526020018280546103a79061081d565b80156103f25780601f106103c9576101008083540402835291602001916103f2565b820191905f5260205f20905b8154815290600101906020018083116103d557829003601f168201915b5050505050908060020154905083565b604051806060016040528060608152602001606081526020015f81525090565b5f604051905090565b5f80fd5b5f80fd5b5f73ffffffffffffffffffffffffffffffffffffffff82169050919050565b5f61045c82610433565b9050919050565b61046c81610452565b8114610476575f80fd5b50565b5f8135905061048781610463565b92915050565b5f602082840312156104a2576104a161042b565b5b5f6104af84828501610479565b91505092915050565b5f81519050919050565b5f82825260208201905092915050565b8281835e5f83830152505050565b5f601f19601f8301169050919050565b5f6104fa826104b8565b61050481856104c2565b93506105148185602086016104d2565b61051d816104e0565b840191505092915050565b5f819050919050565b61053a81610528565b82525050565b5f606083015f8301518482035f86015261055a82826104f0565b9150506020830151848203602086015261057482826104f0565b91505060408301516105896040860182610531565b508091505092915050565b5f6020820190508181035f8301526105ac8184610540565b905092915050565b5f80fd5b5f80fd5b7f4e487b71000000000000000000000000000000000000000000000000000000005f52604160045260245ffd5b6105f2826104e0565b810181811067ffffffffffffffff82111715610611576106106105bc565b5b80604052505050565b5f610623610422565b905061062f82826105e9565b919050565b5f67ffffffffffffffff82111561064e5761064d6105bc565b5b610657826104e0565b9050602081019050919050565b828183375f83830152505050565b5f61068461067f84610634565b61061a565b9050828152602081018484840111156106a05761069f6105b8565b5b6106ab848285610664565b509392505050565b5f82601f8301126106c7576106c66105b4565b5b81356106d7848260208601610672565b91505092915050565b5f80604083850312156106f6576106f561042b565b5b5f83013567ffffffffffffffff8111156107135761071261042f565b5b61071f858286016106b3565b925050602083013567ffffffffffffffff8111156107405761073f61042f565b5b61074c858286016106b3565b9150509250929050565b5f82825260208201905092915050565b5f610770826104b8565b61077a8185610756565b935061078a8185602086016104d2565b610793816104e0565b840191505092915050565b6107a781610528565b82525050565b5f6060820190508181035f8301526107c58186610766565b905081810360208301526107d98185610766565b90506107e8604083018461079e565b949350505050565b7f4e487b71000000000000000000000000000000000000000000000000000000005f52602260045260245ffd5b5f600282049050600182168061083457607f821691505b602082108103610847576108466107f0565b5b50919050565b5f819050815f5260205f209050919050565b5f6020601f8301049050919050565b5f82821b905092915050565b5f600883026108a97fffffffffffffffffffffffffffffffffffffffffffffffffffffffffffffffff8261086e565b6108b3868361086e565b95508019841693508086168417925050509392505050565b5f819050919050565b5f6108ee6108e96108e484610528565b6108cb565b610528565b9050919050565b5f819050919050565b610907836108d4565b61091b610913826108f5565b84845461087a565b825550505050565b5f90565b61092f610923565b61093a8184846108fe565b505050565b5b8181101561095d576109525f82610927565b600181019050610940565b5050565b601f8211156109a2576109738161084d565b61097c8461085f565b8101602085101561098b578190505b61099f6109978561085f565b83018261093f565b50505b505050565b5f82821c905092915050565b5f6109c25f19846008026109a7565b1980831691505092915050565b5f6109da83836109b3565b9150826002028217905092915050565b6109f3826104b8565b67ffffffffffffffff811115610a0c57610a0b6105bc565b5b610a16825461081d565b610a21828285610961565b5f60209050601f831160018114610a52575f8415610a40578287015190505b610a4a85826109cf565b865550610ab1565b601f198416610a608661084d565b5f5b82811015610a8757848901518255600182019150602085019450602081019050610a62565b86831015610aa45784890151610aa0601f8916826109b3565b8355505b6001600288020188555050505b50505050505056fea26469706673582212207c8830dffc3af0560daab85eb20091520cf1dcb484a6c184bd338995114c691f64736f6c634300081a0033",
			"opcodes": "PUSH1 0x80 PUSH1 0x40 MSTORE CALLVALUE DUP1 ISZERO PUSH1 0xE JUMPI PUSH0 DUP1 REVERT JUMPDEST POP PUSH2 0xAEF DUP1 PUSH2 0x1C PUSH0 CODECOPY PUSH0 RETURN INVALID PUSH1 0x80 PUSH1 0x40 MSTORE CALLVALUE DUP1 ISZERO PUSH2 0xF JUMPI PUSH0 DUP1 REVERT JUMPDEST POP PUSH1 0x4 CALLDATASIZE LT PUSH2 0x3E JUMPI PUSH0 CALLDATALOAD PUSH1 0xE0 SHR DUP1 PUSH3 0xD55318 EQ PUSH2 0x42 JUMPI DUP1 PUSH4 0xB62BBA0F EQ PUSH2 0x72 JUMPI DUP1 PUSH4 0xE7B4CAC6 EQ PUSH2 0x8E JUMPI JUMPDEST PUSH0 DUP1 REVERT JUMPDEST PUSH2 0x5C PUSH1 0x4 DUP1 CALLDATASIZE SUB DUP2 ADD SWAP1 PUSH2 0x57 SWAP2 SWAP1 PUSH2 0x48D JUMP JUMPDEST PUSH2 0xC0 JUMP JUMPDEST PUSH1 0x40 MLOAD PUSH2 0x69 SWAP2 SWAP1 PUSH2 0x594 JUMP JUMPDEST PUSH1 0x40 MLOAD DUP1 SWAP2 SUB SWAP1 RETURN JUMPDEST PUSH2 0x8C PUSH1 0x4 DUP1 CALLDATASIZE SUB DUP2 ADD SWAP1 PUSH2 0x87 SWAP2 SWAP1 PUSH2 0x6E0 JUMP JUMPDEST PUSH2 0x23F JUMP JUMPDEST STOP JUMPDEST PUSH2 0xA8 PUSH1 0x4 DUP1 CALLDATASIZE SUB DUP2 ADD SWAP1 PUSH2 0xA3 SWAP2 SWAP1 PUSH2 0x48D JUMP JUMPDEST PUSH2 0x2D1 JUMP JUMPDEST PUSH1 0x40 MLOAD PUSH2 0xB7 SWAP4 SWAP3 SWAP2 SWAP1 PUSH2 0x7AD JUMP JUMPDEST PUSH1 0x40 MLOAD DUP1 SWAP2 SUB SWAP1 RETURN JUMPDEST PUSH2 0xC8 PUSH2 0x402 JUMP JUMPDEST PUSH0 DUP1 DUP4 PUSH20 0xFFFFFFFFFFFFFFFFFFFFFFFFFFFFFFFFFFFFFFFF AND PUSH20 0xFFFFFFFFFFFFFFFFFFFFFFFFFFFFFFFFFFFFFFFF AND DUP2 MSTORE PUSH1 0x20 ADD SWAP1 DUP2 MSTORE PUSH1 0x20 ADD PUSH0 KECCAK256 PUSH1 0x40 MLOAD DUP1 PUSH1 0x60 ADD PUSH1 0x40 MSTORE SWAP1 DUP2 PUSH0 DUP3 ADD DUP1 SLOAD PUSH2 0x11E SWAP1 PUSH2 0x81D JUMP JUMPDEST DUP1 PUSH1 0x1F ADD PUSH1 0x20 DUP1 SWAP2 DIV MUL PUSH1 0x20 ADD PUSH1 0x40 MLOAD SWAP1 DUP2 ADD PUSH1 0x40 MSTORE DUP1 SWAP3 SWAP2 SWAP1 DUP2 DUP2 MSTORE PUSH1 0x20 ADD DUP3 DUP1 SLOAD PUSH2 0x14A SWAP1 PUSH2 0x81D JUMP JUMPDEST DUP1 ISZERO PUSH2 0x195 JUMPI DUP1 PUSH1 0x1F LT PUSH2 0x16C JUMPI PUSH2 0x100 DUP1 DUP4 SLOAD DIV MUL DUP4 MSTORE SWAP2 PUSH1 0x20 ADD SWAP2 PUSH2 0x195 JUMP JUMPDEST DUP3 ADD SWAP2 SWAP1 PUSH0 MSTORE PUSH1 0x20 PUSH0 KECCAK256 SWAP1 JUMPDEST DUP2 SLOAD DUP2 MSTORE SWAP1 PUSH1 0x1 ADD SWAP1 PUSH1 0x20 ADD DUP1 DUP4 GT PUSH2 0x178 JUMPI DUP3 SWAP1 SUB PUSH1 0x1F AND DUP3 ADD SWAP2 JUMPDEST POP POP POP POP POP DUP2 MSTORE PUSH1 0x20 ADD PUSH1 0x1 DUP3 ADD DUP1 SLOAD PUSH2 0x1AE SWAP1 PUSH2 0x81D JUMP JUMPDEST DUP1 PUSH1 0x1F ADD PUSH1 0x20 DUP1 SWAP2 DIV MUL PUSH1 0x20 ADD PUSH1 0x40 MLOAD SWAP1 DUP2 ADD PUSH1 0x40 MSTORE DUP1 SWAP3 SWAP2 SWAP1 DUP2 DUP2 MSTORE PUSH1 0x20 ADD DUP3 DUP1 SLOAD PUSH2 0x1DA SWAP1 PUSH2 0x81D JUMP JUMPDEST DUP1 ISZERO PUSH2 0x225 JUMPI DUP1 PUSH1 0x1F LT PUSH2 0x1FC JUMPI PUSH2 0x100 DUP1 DUP4 SLOAD DIV MUL DUP4 MSTORE SWAP2 PUSH1 0x20 ADD SWAP2 PUSH2 0x225 JUMP JUMPDEST DUP3 ADD SWAP2 SWAP1 PUSH0 MSTORE PUSH1 0x20 PUSH0 KECCAK256 SWAP1 JUMPDEST DUP2 SLOAD DUP2 MSTORE SWAP1 PUSH1 0x1 ADD SWAP1 PUSH1 0x20 ADD DUP1 DUP4 GT PUSH2 0x208 JUMPI DUP3 SWAP1 SUB PUSH1 0x1F AND DUP3 ADD SWAP2 JUMPDEST POP POP POP POP POP DUP2 MSTORE PUSH1 0x20 ADD PUSH1 0x2 DUP3 ADD SLOAD DUP2 MSTORE POP POP SWAP1 POP SWAP2 SWAP1 POP JUMP JUMPDEST PUSH1 0x40 MLOAD DUP1 PUSH1 0x60 ADD PUSH1 0x40 MSTORE DUP1 DUP4 DUP2 MSTORE PUSH1 0x20 ADD DUP3 DUP2 MSTORE PUSH1 0x20 ADD TIMESTAMP DUP2 MSTORE POP PUSH0 DUP1 CALLER PUSH20 0xFFFFFFFFFFFFFFFFFFFFFFFFFFFFFFFFFFFFFFFF AND PUSH20 0xFFFFFFFFFFFFFFFFFFFFFFFFFFFFFFFFFFFFFFFF AND DUP2 MSTORE PUSH1 0x20 ADD SWAP1 DUP2 MSTORE PUSH1 0x20 ADD PUSH0 KECCAK256 PUSH0 DUP3 ADD MLOAD DUP2 PUSH0 ADD SWAP1 DUP2 PUSH2 0x2A9 SWAP2 SWAP1 PUSH2 0x9EA JUMP JUMPDEST POP PUSH1 0x20 DUP3 ADD MLOAD DUP2 PUSH1 0x1 ADD SWAP1 DUP2 PUSH2 0x2BF SWAP2 SWAP1 PUSH2 0x9EA JUMP JUMPDEST POP PUSH1 0x40 DUP3 ADD MLOAD DUP2 PUSH1 0x2 ADD SSTORE SWAP1 POP POP POP POP JUMP JUMPDEST PUSH0 PUSH1 0x20 MSTORE DUP1 PUSH0 MSTORE PUSH1 0x40 PUSH0 KECCAK256 PUSH0 SWAP2 POP SWAP1 POP DUP1 PUSH0 ADD DUP1 SLOAD PUSH2 0x2EF SWAP1 PUSH2 0x81D JUMP JUMPDEST DUP1 PUSH1 0x1F ADD PUSH1 0x20 DUP1 SWAP2 DIV MUL PUSH1 0x20 ADD PUSH1 0x40 MLOAD SWAP1 DUP2 ADD PUSH1 0x40 MSTORE DUP1 SWAP3 SWAP2 SWAP1 DUP2 DUP2 MSTORE PUSH1 0x20 ADD DUP3 DUP1 SLOAD PUSH2 0x31B SWAP1 PUSH2 0x81D JUMP JUMPDEST DUP1 ISZERO PUSH2 0x366 JUMPI DUP1 PUSH1 0x1F LT PUSH2 0x33D JUMPI PUSH2 0x100 DUP1 DUP4 SLOAD DIV MUL DUP4 MSTORE SWAP2 PUSH1 0x20 ADD SWAP2 PUSH2 0x366 JUMP JUMPDEST DUP3 ADD SWAP2 SWAP1 PUSH0 MSTORE PUSH1 0x20 PUSH0 KECCAK256 SWAP1 JUMPDEST DUP2 SLOAD DUP2 MSTORE SWAP1 PUSH1 0x1 ADD SWAP1 PUSH1 0x20 ADD DUP1 DUP4 GT PUSH2 0x349 JUMPI DUP3 SWAP1 SUB PUSH1 0x1F AND DUP3 ADD SWAP2 JUMPDEST POP POP POP POP POP SWAP1 DUP1 PUSH1 0x1 ADD DUP1 SLOAD PUSH2 0x37B SWAP1 PUSH2 0x81D JUMP JUMPDEST DUP1 PUSH1 0x1F ADD PUSH1 0x20 DUP1 SWAP2 DIV MUL PUSH1 0x20 ADD PUSH1 0x40 MLOAD SWAP1 DUP2 ADD PUSH1 0x40 MSTORE DUP1 SWAP3 SWAP2 SWAP1 DUP2 DUP2 MSTORE PUSH1 0x20 ADD DUP3 DUP1 SLOAD PUSH2 0x3A7 SWAP1 PUSH2 0x81D JUMP JUMPDEST DUP1 ISZERO PUSH2 0x3F2 JUMPI DUP1 PUSH1 0x1F LT PUSH2 0x3C9 JUMPI PUSH2 0x100 DUP1 DUP4 SLOAD DIV MUL DUP4 MSTORE SWAP2 PUSH1 0x20 ADD SWAP2 PUSH2 0x3F2 JUMP JUMPDEST DUP3 ADD SWAP2 SWAP1 PUSH0 MSTORE PUSH1 0x20 PUSH0 KECCAK256 SWAP1 JUMPDEST DUP2 SLOAD DUP2 MSTORE SWAP1 PUSH1 0x1 ADD SWAP1 PUSH1 0x20 ADD DUP1 DUP4 GT PUSH2 0x3D5 JUMPI DUP3 SWAP1 SUB PUSH1 0x1F AND DUP3 ADD SWAP2 JUMPDEST POP POP POP POP POP SWAP1 DUP1 PUSH1 0x2 ADD SLOAD SWAP1 POP DUP4 JUMP JUMPDEST PUSH1 0x40 MLOAD DUP1 PUSH1 0x60 ADD PUSH1 0x40 MSTORE DUP1 PUSH1 0x60 DUP2 MSTORE PUSH1 0x20 ADD PUSH1 0x60 DUP2 MSTORE PUSH1 0x20 ADD PUSH0 DUP2 MSTORE POP SWAP1 JUMP JUMPDEST PUSH0 PUSH1 0x40 MLOAD SWAP1 POP SWAP1 JUMP JUMPDEST PUSH0 DUP1 REVERT JUMPDEST PUSH0 DUP1 REVERT JUMPDEST PUSH0 PUSH20 0xFFFFFFFFFFFFFFFFFFFFFFFFFFFFFFFFFFFFFFFF DUP3 AND SWAP1 POP SWAP2 SWAP1 POP JUMP JUMPDEST PUSH0 PUSH2 0x45C DUP3 PUSH2 0x433 JUMP JUMPDEST SWAP1 POP SWAP2 SWAP1 POP JUMP JUMPDEST PUSH2 0x46C DUP2 PUSH2 0x452 JUMP JUMPDEST DUP2 EQ PUSH2 0x476 JUMPI PUSH0 DUP1 REVERT JUMPDEST POP JUMP JUMPDEST PUSH0 DUP2 CALLDATALOAD SWAP1 POP PUSH2 0x487 DUP2 PUSH2 0x463 JUMP JUMPDEST SWAP3 SWAP2 POP POP JUMP JUMPDEST PUSH0 PUSH1 0x20 DUP3 DUP5 SUB SLT ISZERO PUSH2 0x4A2 JUMPI PUSH2 0x4A1 PUSH2 0x42B JUMP JUMPDEST JUMPDEST PUSH0 PUSH2 0x4AF DUP5 DUP3 DUP6 ADD PUSH2 0x479 JUMP JUMPDEST SWAP2 POP POP SWAP3 SWAP2 POP POP JUMP JUMPDEST PUSH0 DUP2 MLOAD SWAP1 POP SWAP2 SWAP1 POP JUMP JUMPDEST PUSH0 DUP3 DUP3 MSTORE PUSH1 0x20 DUP3 ADD SWAP1 POP SWAP3 SWAP2 POP POP JUMP JUMPDEST DUP3 DUP2 DUP4 MCOPY PUSH0 DUP4 DUP4 ADD MSTORE POP POP POP JUMP JUMPDEST PUSH0 PUSH1 0x1F NOT PUSH1 0x1F DUP4 ADD AND SWAP1 POP SWAP2 SWAP1 POP JUMP JUMPDEST PUSH0 PUSH2 0x4FA DUP3 PUSH2 0x4B8 JUMP JUMPDEST PUSH2 0x504 DUP2 DUP6 PUSH2 0x4C2 JUMP JUMPDEST SWAP4 POP PUSH2 0x514 DUP2 DUP6 PUSH1 0x20 DUP7 ADD PUSH2 0x4D2 JUMP JUMPDEST PUSH2 0x51D DUP2 PUSH2 0x4E0 JUMP JUMPDEST DUP5 ADD SWAP2 POP POP SWAP3 SWAP2 POP POP JUMP JUMPDEST PUSH0 DUP2 SWAP1 POP SWAP2 SWAP1 POP JUMP JUMPDEST PUSH2 0x53A DUP2 PUSH2 0x528 JUMP JUMPDEST DUP3 MSTORE POP POP JUMP JUMPDEST PUSH0 PUSH1 0x60 DUP4 ADD PUSH0 DUP4 ADD MLOAD DUP5 DUP3 SUB PUSH0 DUP7 ADD MSTORE PUSH2 0x55A DUP3 DUP3 PUSH2 0x4F0 JUMP JUMPDEST SWAP2 POP POP PUSH1 0x20 DUP4 ADD MLOAD DUP5 DUP3 SUB PUSH1 0x20 DUP7 ADD MSTORE PUSH2 0x574 DUP3 DUP3 PUSH2 0x4F0 JUMP JUMPDEST SWAP2 POP POP PUSH1 0x40 DUP4 ADD MLOAD PUSH2 0x589 PUSH1 0x40 DUP7 ADD DUP3 PUSH2 0x531 JUMP JUMPDEST POP DUP1 SWAP2 POP POP SWAP3 SWAP2 POP POP JUMP JUMPDEST PUSH0 PUSH1 0x20 DUP3 ADD SWAP1 POP DUP2 DUP2 SUB PUSH0 DUP4 ADD MSTORE PUSH2 0x5AC DUP2 DUP5 PUSH2 0x540 JUMP JUMPDEST SWAP1 POP SWAP3 SWAP2 POP POP JUMP JUMPDEST PUSH0 DUP1 REVERT JUMPDEST PUSH0 DUP1 REVERT JUMPDEST PUSH32 0x4E487B7100000000000000000000000000000000000000000000000000000000 PUSH0 MSTORE PUSH1 0x41 PUSH1 0x4 MSTORE PUSH1 0x24 PUSH0 REVERT JUMPDEST PUSH2 0x5F2 DUP3 PUSH2 0x4E0 JUMP JUMPDEST DUP2 ADD DUP2 DUP2 LT PUSH8 0xFFFFFFFFFFFFFFFF DUP3 GT OR ISZERO PUSH2 0x611 JUMPI PUSH2 0x610 PUSH2 0x5BC JUMP JUMPDEST JUMPDEST DUP1 PUSH1 0x40 MSTORE POP POP POP JUMP JUMPDEST PUSH0 PUSH2 0x623 PUSH2 0x422 JUMP JUMPDEST SWAP1 POP PUSH2 0x62F DUP3 DUP3 PUSH2 0x5E9 JUMP JUMPDEST SWAP2 SWAP1 POP JUMP JUMPDEST PUSH0 PUSH8 0xFFFFFFFFFFFFFFFF DUP3 GT ISZERO PUSH2 0x64E JUMPI PUSH2 0x64D PUSH2 0x5BC JUMP JUMPDEST JUMPDEST PUSH2 0x657 DUP3 PUSH2 0x4E0 JUMP JUMPDEST SWAP1 POP PUSH1 0x20 DUP2 ADD SWAP1 POP SWAP2 SWAP1 POP JUMP JUMPDEST DUP3 DUP2 DUP4 CALLDATACOPY PUSH0 DUP4 DUP4 ADD MSTORE POP POP POP JUMP JUMPDEST PUSH0 PUSH2 0x684 PUSH2 0x67F DUP5 PUSH2 0x634 JUMP JUMPDEST PUSH2 0x61A JUMP JUMPDEST SWAP1 POP DUP3 DUP2 MSTORE PUSH1 0x20 DUP2 ADD DUP5 DUP5 DUP5 ADD GT ISZERO PUSH2 0x6A0 JUMPI PUSH2 0x69F PUSH2 0x5B8 JUMP JUMPDEST JUMPDEST PUSH2 0x6AB DUP5 DUP3 DUP6 PUSH2 0x664 JUMP JUMPDEST POP SWAP4 SWAP3 POP POP POP JUMP JUMPDEST PUSH0 DUP3 PUSH1 0x1F DUP4 ADD SLT PUSH2 0x6C7 JUMPI PUSH2 0x6C6 PUSH2 0x5B4 JUMP JUMPDEST JUMPDEST DUP2 CALLDATALOAD PUSH2 0x6D7 DUP5 DUP3 PUSH1 0x20 DUP7 ADD PUSH2 0x672 JUMP JUMPDEST SWAP2 POP POP SWAP3 SWAP2 POP POP JUMP JUMPDEST PUSH0 DUP1 PUSH1 0x40 DUP4 DUP6 SUB SLT ISZERO PUSH2 0x6F6 JUMPI PUSH2 0x6F5 PUSH2 0x42B JUMP JUMPDEST JUMPDEST PUSH0 DUP4 ADD CALLDATALOAD PUSH8 0xFFFFFFFFFFFFFFFF DUP2 GT ISZERO PUSH2 0x713 JUMPI PUSH2 0x712 PUSH2 0x42F JUMP JUMPDEST JUMPDEST PUSH2 0x71F DUP6 DUP3 DUP7 ADD PUSH2 0x6B3 JUMP JUMPDEST SWAP3 POP POP PUSH1 0x20 DUP4 ADD CALLDATALOAD PUSH8 0xFFFFFFFFFFFFFFFF DUP2 GT ISZERO PUSH2 0x740 JUMPI PUSH2 0x73F PUSH2 0x42F JUMP JUMPDEST JUMPDEST PUSH2 0x74C DUP6 DUP3 DUP7 ADD PUSH2 0x6B3 JUMP JUMPDEST SWAP2 POP POP SWAP3 POP SWAP3 SWAP1 POP JUMP JUMPDEST PUSH0 DUP3 DUP3 MSTORE PUSH1 0x20 DUP3 ADD SWAP1 POP SWAP3 SWAP2 POP POP JUMP JUMPDEST PUSH0 PUSH2 0x770 DUP3 PUSH2 0x4B8 JUMP JUMPDEST PUSH2 0x77A DUP2 DUP6 PUSH2 0x756 JUMP JUMPDEST SWAP4 POP PUSH2 0x78A DUP2 DUP6 PUSH1 0x20 DUP7 ADD PUSH2 0x4D2 JUMP JUMPDEST PUSH2 0x793 DUP2 PUSH2 0x4E0 JUMP JUMPDEST DUP5 ADD SWAP2 POP POP SWAP3 SWAP2 POP POP JUMP JUMPDEST PUSH2 0x7A7 DUP2 PUSH2 0x528 JUMP JUMPDEST DUP3 MSTORE POP POP JUMP JUMPDEST PUSH0 PUSH1 0x60 DUP3 ADD SWAP1 POP DUP2 DUP2 SUB PUSH0 DUP4 ADD MSTORE PUSH2 0x7C5 DUP2 DUP7 PUSH2 0x766 JUMP JUMPDEST SWAP1 POP DUP2 DUP2 SUB PUSH1 0x20 DUP4 ADD MSTORE PUSH2 0x7D9 DUP2 DUP6 PUSH2 0x766 JUMP JUMPDEST SWAP1 POP PUSH2 0x7E8 PUSH1 0x40 DUP4 ADD DUP5 PUSH2 0x79E JUMP JUMPDEST SWAP5 SWAP4 POP POP POP POP JUMP JUMPDEST PUSH32 0x4E487B7100000000000000000000000000000000000000000000000000000000 PUSH0 MSTORE PUSH1 0x22 PUSH1 0x4 MSTORE PUSH1 0x24 PUSH0 REVERT JUMPDEST PUSH0 PUSH1 0x2 DUP3 DIV SWAP1 POP PUSH1 0x1 DUP3 AND DUP1 PUSH2 0x834 JUMPI PUSH1 0x7F DUP3 AND SWAP2 POP JUMPDEST PUSH1 0x20 DUP3 LT DUP2 SUB PUSH2 0x847 JUMPI PUSH2 0x846 PUSH2 0x7F0 JUMP JUMPDEST JUMPDEST POP SWAP2 SWAP1 POP JUMP JUMPDEST PUSH0 DUP2 SWAP1 POP DUP2 PUSH0 MSTORE PUSH1 0x20 PUSH0 KECCAK256 SWAP1 POP SWAP2 SWAP1 POP JUMP JUMPDEST PUSH0 PUSH1 0x20 PUSH1 0x1F DUP4 ADD DIV SWAP1 POP SWAP2 SWAP1 POP JUMP JUMPDEST PUSH0 DUP3 DUP3 SHL SWAP1 POP SWAP3 SWAP2 POP POP JUMP JUMPDEST PUSH0 PUSH1 0x8 DUP4 MUL PUSH2 0x8A9 PUSH32 0xFFFFFFFFFFFFFFFFFFFFFFFFFFFFFFFFFFFFFFFFFFFFFFFFFFFFFFFFFFFFFFFF DUP3 PUSH2 0x86E JUMP JUMPDEST PUSH2 0x8B3 DUP7 DUP4 PUSH2 0x86E JUMP JUMPDEST SWAP6 POP DUP1 NOT DUP5 AND SWAP4 POP DUP1 DUP7 AND DUP5 OR SWAP3 POP POP POP SWAP4 SWAP3 POP POP POP JUMP JUMPDEST PUSH0 DUP2 SWAP1 POP SWAP2 SWAP1 POP JUMP JUMPDEST PUSH0 PUSH2 0x8EE PUSH2 0x8E9 PUSH2 0x8E4 DUP5 PUSH2 0x528 JUMP JUMPDEST PUSH2 0x8CB JUMP JUMPDEST PUSH2 0x528 JUMP JUMPDEST SWAP1 POP SWAP2 SWAP1 POP JUMP JUMPDEST PUSH0 DUP2 SWAP1 POP SWAP2 SWAP1 POP JUMP JUMPDEST PUSH2 0x907 DUP4 PUSH2 0x8D4 JUMP JUMPDEST PUSH2 0x91B PUSH2 0x913 DUP3 PUSH2 0x8F5 JUMP JUMPDEST DUP5 DUP5 SLOAD PUSH2 0x87A JUMP JUMPDEST DUP3 SSTORE POP POP POP POP JUMP JUMPDEST PUSH0 SWAP1 JUMP JUMPDEST PUSH2 0x92F PUSH2 0x923 JUMP JUMPDEST PUSH2 0x93A DUP2 DUP5 DUP5 PUSH2 0x8FE JUMP JUMPDEST POP POP POP JUMP JUMPDEST JUMPDEST DUP2 DUP2 LT ISZERO PUSH2 0x95D JUMPI PUSH2 0x952 PUSH0 DUP3 PUSH2 0x927 JUMP JUMPDEST PUSH1 0x1 DUP2 ADD SWAP1 POP PUSH2 0x940 JUMP JUMPDEST POP POP JUMP JUMPDEST PUSH1 0x1F DUP3 GT ISZERO PUSH2 0x9A2 JUMPI PUSH2 0x973 DUP2 PUSH2 0x84D JUMP JUMPDEST PUSH2 0x97C DUP5 PUSH2 0x85F JUMP JUMPDEST DUP2 ADD PUSH1 0x20 DUP6 LT ISZERO PUSH2 0x98B JUMPI DUP2 SWAP1 POP JUMPDEST PUSH2 0x99F PUSH2 0x997 DUP6 PUSH2 0x85F JUMP JUMPDEST DUP4 ADD DUP3 PUSH2 0x93F JUMP JUMPDEST POP POP JUMPDEST POP POP POP JUMP JUMPDEST PUSH0 DUP3 DUP3 SHR SWAP1 POP SWAP3 SWAP2 POP POP JUMP JUMPDEST PUSH0 PUSH2 0x9C2 PUSH0 NOT DUP5 PUSH1 0x8 MUL PUSH2 0x9A7 JUMP JUMPDEST NOT DUP1 DUP4 AND SWAP2 POP POP SWAP3 SWAP2 POP POP JUMP JUMPDEST PUSH0 PUSH2 0x9DA DUP4 DUP4 PUSH2 0x9B3 JUMP JUMPDEST SWAP2 POP DUP3 PUSH1 0x2 MUL DUP3 OR SWAP1 POP SWAP3 SWAP2 POP POP JUMP JUMPDEST PUSH2 0x9F3 DUP3 PUSH2 0x4B8 JUMP JUMPDEST PUSH8 0xFFFFFFFFFFFFFFFF DUP2 GT ISZERO PUSH2 0xA0C JUMPI PUSH2 0xA0B PUSH2 0x5BC JUMP JUMPDEST JUMPDEST PUSH2 0xA16 DUP3 SLOAD PUSH2 0x81D JUMP JUMPDEST PUSH2 0xA21 DUP3 DUP3 DUP6 PUSH2 0x961 JUMP JUMPDEST PUSH0 PUSH1 0x20 SWAP1 POP PUSH1 0x1F DUP4 GT PUSH1 0x1 DUP2 EQ PUSH2 0xA52 JUMPI PUSH0 DUP5 ISZERO PUSH2 0xA40 JUMPI DUP3 DUP8 ADD MLOAD SWAP1 POP JUMPDEST PUSH2 0xA4A DUP6 DUP3 PUSH2 0x9CF JUMP JUMPDEST DUP7 SSTORE POP PUSH2 0xAB1 JUMP JUMPDEST PUSH1 0x1F NOT DUP5 AND PUSH2 0xA60 DUP7 PUSH2 0x84D JUMP JUMPDEST PUSH0 JUMPDEST DUP3 DUP2 LT ISZERO PUSH2 0xA87 JUMPI DUP5 DUP10 ADD MLOAD DUP3 SSTORE PUSH1 0x1 DUP3 ADD SWAP2 POP PUSH1 0x20 DUP6 ADD SWAP5 POP PUSH1 0x20 DUP2 ADD SWAP1 POP PUSH2 0xA62 JUMP JUMPDEST DUP7 DUP4 LT ISZERO PUSH2 0xAA4 JUMPI DUP5 DUP10 ADD MLOAD PUSH2 0xAA0 PUSH1 0x1F DUP10 AND DUP3 PUSH2 0x9B3 JUMP JUMPDEST DUP4 SSTORE POP JUMPDEST PUSH1 0x1 PUSH1 0x2 DUP9 MUL ADD DUP9 SSTORE POP POP POP JUMPDEST POP POP POP POP POP POP JUMP INVALID LOG2 PUSH5 0x6970667358 0x22 SLT KECCAK256 PUSH29 0x8830DFFC3AF0560DAAB85EB20091520CF1DCB484A6C184BD338995114C PUSH10 0x1F64736F6C634300081A STOP CALLER "
		},
		"gasEstimates": {
			"creation": {
				"codeDepositCost": "559800",
				"executionCost": "592",
				"totalCost": "560392"
			},
			"external": {
				"devices(address)": "infinite",
				"getDevice(address)": "infinite",
				"updateDevice(string,string)": "infinite"
			}
		},
		"methodIdentifiers": {
			"devices(address)": "e7b4cac6",
			"getDevice(address)": "00d55318",
			"updateDevice(string,string)": "b62bba0f"
		}
	},
	"abi": [
		{
			"inputs": [
				{
					"internalType": "address",
					"name": "",
					"type": "address"
				}
			],
			"name": "devices",
			"outputs": [
				{
					"internalType": "string",
					"name": "hostname",
					"type": "string"
				},
				{
					"internalType": "string",
					"name": "role",
					"type": "string"
				},
				{
					"internalType": "uint256",
					"name": "lastSeen",
					"type": "uint256"
				}
			],
			"stateMutability": "view",
			"type": "function"
		},
		{
			"inputs": [
				{
					"internalType": "address",
					"name": "addr",
					"type": "address"
				}
			],
			"name": "getDevice",
			"outputs": [
				{
					"components": [
						{
							"internalType": "string",
							"name": "hostname",
							"type": "string"
						},
						{
							"internalType": "string",
							"name": "role",
							"type": "string"
						},
						{
							"internalType": "uint256",
							"name": "lastSeen",
							"type": "uint256"
						}
					],
					"internalType": "struct AddressMetadata.DeviceInfo",
					"name": "",
					"type": "tuple"
				}
			],
			"stateMutability": "view",
			"type": "function"
		},
		{
			"inputs": [
				{
					"internalType": "string",
					"name": "hostname",
					"type": "string"
				},
				{
					"internalType": "string",
					"name": "role",
					"type": "string"
				}
			],
			"name": "updateDevice",
			"outputs": [],
			"stateMutability": "nonpayable",
			"type": "function"
		}
	]
}