{
	"data": {
		"bytecode": {
			"linkReferences": {},
			"object": "6080604052348015600e575f80fd5b506103ce8061001c5f395ff3fe608060405234801561000f575f80fd5b5060043610610029575f3560e01c806351af91831461002d575b5f80fd5b61004760048036038101906100429190610148565b610049565b005b8173ffffffffffffffffffffffffffffffffffffffff1663d5d5be1b826040518263ffffffff1660e01b81526004016100829190610378565b5f604051808303815f87803b158015610099575f80fd5b505af11580156100ab573d5f803e3d5ffd5b505050505050565b5f80fd5b5f80fd5b5f73ffffffffffffffffffffffffffffffffffffffff82169050919050565b5f6100e4826100bb565b9050919050565b5f6100f5826100da565b9050919050565b610105816100eb565b811461010f575f80fd5b50565b5f81359050610120816100fc565b92915050565b5f80fd5b5f6060828403121561013f5761013e610126565b5b81905092915050565b5f806040838503121561015e5761015d6100b3565b5b5f61016b85828601610112565b925050602083013567ffffffffffffffff81111561018c5761018b6100b7565b5b6101988582860161012a565b9150509250929050565b6101ab816100da565b81146101b5575f80fd5b50565b5f813590506101c6816101a2565b92915050565b5f6101da60208401846101b8565b905092915050565b6101eb816100da565b82525050565b5f819050919050565b610203816101f1565b811461020d575f80fd5b50565b5f8135905061021e816101fa565b92915050565b5f6102326020840184610210565b905092915050565b610243816101f1565b82525050565b5f80fd5b5f80fd5b5f80fd5b5f808335600160200384360303811261027157610270610251565b5b83810192508235915060208301925067ffffffffffffffff82111561029957610298610249565b5b6001820236038313156102af576102ae61024d565b5b509250929050565b5f82825260208201905092915050565b828183375f83830152505050565b5f601f19601f8301169050919050565b5f6102f083856102b7565b93506102fd8385846102c7565b610306836102d5565b840190509392505050565b5f606083016103225f8401846101cc565b61032e5f8601826101e2565b5061033c6020840184610224565b610349602086018261023a565b506103576040840184610255565b858303604087015261036a8382846102e5565b925050508091505092915050565b5f6020820190508181035f8301526103908184610311565b90509291505056fea264697066735822122060f63535a312134ee47307603ec1bf0f4cf69c0c3094e163539178e50b0a053064736f6c634300081a0033",
			"opcodes": "PUSH1 0x80 PUSH1 0x40 MSTORE CALLVALUE DUP1 ISZERO PUSH1 0xE JUMPI PUSH0 DUP1 REVERT JUMPDEST POP PUSH2 0x3CE DUP1 PUSH2 0x1C PUSH0 CODECOPY PUSH0 RETURN INVALID PUSH1 0x80 PUSH1 0x40 MSTORE CALLVALUE DUP1 ISZERO PUSH2 0xF JUMPI PUSH0 DUP1 REVERT JUMPDEST POP PUSH1 0x4 CALLDATASIZE LT PUSH2 0x29 JUMPI PUSH0 CALLDATALOAD PUSH1 0xE0 SHR DUP1 PUSH4 0x51AF9183 EQ PUSH2 0x2D JUMPI JUMPDEST PUSH0 DUP1 REVERT JUMPDEST PUSH2 0x47 PUSH1 0x4 DUP1 CALLDATASIZE SUB DUP2 ADD SWAP1 PUSH2 0x42 SWAP2 SWAP1 PUSH2 0x148 JUMP JUMPDEST PUSH2 0x49 JUMP JUMPDEST STOP JUMPDEST DUP2 PUSH20 0xFFFFFFFFFFFFFFFFFFFFFFFFFFFFFFFFFFFFFFFF AND PUSH4 0xD5D5BE1B DUP3 PUSH1 0x40 MLOAD DUP3 PUSH4 0xFFFFFFFF AND PUSH1 0xE0 SHL DUP2 MSTORE PUSH1 0x4 ADD PUSH2 0x82 SWAP2 SWAP1 PUSH2 0x378 JUMP JUMPDEST PUSH0 PUSH1 0x40 MLOAD DUP1 DUP4 SUB DUP2 PUSH0 DUP8 DUP1 EXTCODESIZE ISZERO DUP1 ISZERO PUSH2 0x99 JUMPI PUSH0 DUP1 REVERT JUMPDEST POP GAS CALL ISZERO DUP1 ISZERO PUSH2 0xAB JUMPI RETURNDATASIZE PUSH0 DUP1 RETURNDATACOPY RETURNDATASIZE PUSH0 REVERT JUMPDEST POP POP POP POP POP POP JUMP JUMPDEST PUSH0 DUP1 REVERT JUMPDEST PUSH0 DUP1 REVERT JUMPDEST PUSH0 PUSH20 0xFFFFFFFFFFFFFFFFFFFFFFFFFFFFFFFFFFFFFFFF DUP3 AND SWAP1 POP SWAP2 SWAP1 POP JUMP JUMPDEST PUSH0 PUSH2 0xE4 DUP3 PUSH2 0xBB JUMP JUMPDEST SWAP1 POP SWAP2 SWAP1 POP JUMP JUMPDEST PUSH0 PUSH2 0xF5 DUP3 PUSH2 0xDA JUMP JUMPDEST SWAP1 POP SWAP2 SWAP1 POP JUMP JUMPDEST PUSH2 0x105 DUP2 PUSH2 0xEB JUMP JUMPDEST DUP2 EQ PUSH2 0x10F JUMPI PUSH0 DUP1 REVERT JUMPDEST POP JUMP JUMPDEST PUSH0 DUP2 CALLDATALOAD SWAP1 POP PUSH2 0x120 DUP2 PUSH2 0xFC JUMP JUMPDEST SWAP3 SWAP2 POP POP JUMP JUMPDEST PUSH0 DUP1 REVERT JUMPDEST PUSH0 PUSH1 0x60 DUP3 DUP5 SUB SLT ISZERO PUSH2 0x13F JUMPI PUSH2 0x13E PUSH2 0x126 JUMP JUMPDEST JUMPDEST DUP2 SWAP1 POP SWAP3 SWAP2 POP POP JUMP JUMPDEST PUSH0 DUP1 PUSH1 0x40 DUP4 DUP6 SUB SLT ISZERO PUSH2 0x15E JUMPI PUSH2 0x15D PUSH2 0xB3 JUMP JUMPDEST JUMPDEST PUSH0 PUSH2 0x16B DUP6 DUP3 DUP7 ADD PUSH2 0x112 JUMP JUMPDEST SWAP3 POP POP PUSH1 0x20 DUP4 ADD CALLDATALOAD PUSH8 0xFFFFFFFFFFFFFFFF DUP2 GT ISZERO PUSH2 0x18C JUMPI PUSH2 0x18B PUSH2 0xB7 JUMP JUMPDEST JUMPDEST PUSH2 0x198 DUP6 DUP3 DUP7 ADD PUSH2 0x12A JUMP JUMPDEST SWAP2 POP POP SWAP3 POP SWAP3 SWAP1 POP JUMP JUMPDEST PUSH2 0x1AB DUP2 PUSH2 0xDA JUMP JUMPDEST DUP2 EQ PUSH2 0x1B5 JUMPI PUSH0 DUP1 REVERT JUMPDEST POP JUMP JUMPDEST PUSH0 DUP2 CALLDATALOAD SWAP1 POP PUSH2 0x1C6 DUP2 PUSH2 0x1A2 JUMP JUMPDEST SWAP3 SWAP2 POP POP JUMP JUMPDEST PUSH0 PUSH2 0x1DA PUSH1 0x20 DUP5 ADD DUP5 PUSH2 0x1B8 JUMP JUMPDEST SWAP1 POP SWAP3 SWAP2 POP POP JUMP JUMPDEST PUSH2 0x1EB DUP2 PUSH2 0xDA JUMP JUMPDEST DUP3 MSTORE POP POP JUMP JUMPDEST PUSH0 DUP2 SWAP1 POP SWAP2 SWAP1 POP JUMP JUMPDEST PUSH2 0x203 DUP2 PUSH2 0x1F1 JUMP JUMPDEST DUP2 EQ PUSH2 0x20D JUMPI PUSH0 DUP1 REVERT JUMPDEST POP JUMP JUMPDEST PUSH0 DUP2 CALLDATALOAD SWAP1 POP PUSH2 0x21E DUP2 PUSH2 0x1FA JUMP JUMPDEST SWAP3 SWAP2 POP POP JUMP JUMPDEST PUSH0 PUSH2 0x232 PUSH1 0x20 DUP5 ADD DUP5 PUSH2 0x210 JUMP JUMPDEST SWAP1 POP SWAP3 SWAP2 POP POP JUMP JUMPDEST PUSH2 0x243 DUP2 PUSH2 0x1F1 JUMP JUMPDEST DUP3 MSTORE POP POP JUMP JUMPDEST PUSH0 DUP1 REVERT JUMPDEST PUSH0 DUP1 REVERT JUMPDEST PUSH0 DUP1 REVERT JUMPDEST PUSH0 DUP1 DUP4 CALLDATALOAD PUSH1 0x1 PUSH1 0x20 SUB DUP5 CALLDATASIZE SUB SUB DUP2 SLT PUSH2 0x271 JUMPI PUSH2 0x270 PUSH2 0x251 JUMP JUMPDEST JUMPDEST DUP4 DUP2 ADD SWAP3 POP DUP3 CALLDATALOAD SWAP2 POP PUSH1 0x20 DUP4 ADD SWAP3 POP PUSH8 0xFFFFFFFFFFFFFFFF DUP3 GT ISZERO PUSH2 0x299 JUMPI PUSH2 0x298 PUSH2 0x249 JUMP JUMPDEST JUMPDEST PUSH1 0x1 DUP3 MUL CALLDATASIZE SUB DUP4 SGT ISZERO PUSH2 0x2AF JUMPI PUSH2 0x2AE PUSH2 0x24D JUMP JUMPDEST JUMPDEST POP SWAP3 POP SWAP3 SWAP1 POP JUMP JUMPDEST PUSH0 DUP3 DUP3 MSTORE PUSH1 0x20 DUP3 ADD SWAP1 POP SWAP3 SWAP2 POP POP JUMP JUMPDEST DUP3 DUP2 DUP4 CALLDATACOPY PUSH0 DUP4 DUP4 ADD MSTORE POP POP POP JUMP JUMPDEST PUSH0 PUSH1 0x1F NOT PUSH1 0x1F DUP4 ADD AND SWAP1 POP SWAP2 SWAP1 POP JUMP JUMPDEST PUSH0 PUSH2 0x2F0 DUP4 DUP6 PUSH2 0x2B7 JUMP JUMPDEST SWAP4 POP PUSH2 0x2FD DUP4 DUP6 DUP5 PUSH2 0x2C7 JUMP JUMPDEST PUSH2 0x306 DUP4 PUSH2 0x2D5 JUMP JUMPDEST DUP5 ADD SWAP1 POP SWAP4 SWAP3 POP POP POP JUMP JUMPDEST PUSH0 PUSH1 0x60 DUP4 ADD PUSH2 0x322 PUSH0 DUP5 ADD DUP5 PUSH2 0x1CC JUMP JUMPDEST PUSH2 0x32E PUSH0 DUP7 ADD DUP3 PUSH2 0x1E2 JUMP JUMPDEST POP PUSH2 0x33C PUSH1 0x20 DUP5 ADD DUP5 PUSH2 0x224 JUMP JUMPDEST PUSH2 0x349 PUSH1 0x20 DUP7 ADD DUP3 PUSH2 0x23A JUMP JUMPDEST POP PUSH2 0x357 PUSH1 0x40 DUP5 ADD DUP5 PUSH2 0x255 JUMP JUMPDEST DUP6 DUP4 SUB PUSH1 0x40 DUP8 ADD MSTORE PUSH2 0x36A DUP4 DUP3 DUP5 PUSH2 0x2E5 JUMP JUMPDEST SWAP3 POP POP POP DUP1 SWAP2 POP POP SWAP3 SWAP2 POP POP JUMP JUMPDEST PUSH0 PUSH1 0x20 DUP3 ADD SWAP1 POP DUP2 DUP2 SUB PUSH0 DUP4 ADD MSTORE PUSH2 0x390 DUP2 DUP5 PUSH2 0x311 JUMP JUMPDEST SWAP1 POP SWAP3 SWAP2 POP POP JUMP INVALID LOG2 PUSH5 0x6970667358 0x22 SLT KECCAK256 PUSH1 0xF6 CALLDATALOAD CALLDATALOAD LOG3 SLT SGT 0x4E 0xE4 PUSH20 0x7603EC1BF0F4CF69C0C3094E163539178E50B0A SDIV ADDRESS PUSH5 0x736F6C6343 STOP ADDMOD BYTE STOP CALLER "
		},
		"gasEstimates": {
			"creation": {
				"codeDepositCost": "194800",
				"executionCost": "236",
				"totalCost": "195036"
			},
			"external": {
				"replay(address,(address,uint256,bytes))": "infinite"
			}
		},
		"methodIdentifiers": {
			"replay(address,(address,uint256,bytes))": "51af9183"
		}
	},
	"abi": [
		{
			"inputs": [
				{
					"internalType": "contract StatefulTunnel",
					"name": "t",
					"type": "address"
				},
				{
					"components": [
						{
							"internalType": "address",
							"name": "origin",
							"type": "address"
						},
						{
							"internalType": "uint256",
							"name": "nonce",
							"type": "uint256"
						},
						{
							"internalType": "bytes",
							"name": "payload",
							"type": "bytes"
						}
					],
					"internalType": "struct StatefulTunnel.Packet",
					"name": "pkt",
					"type": "tuple"
				}
			],
			"name": "replay",
			"outputs": [],
			"stateMutability": "nonpayable",
			"type": "function"
		}
	]
}