{
	"J/Jitter/itter-Tolerant Time Window (Timestamps with ± jitter tolerance).sol": {
		"TimeWindowExecution": {
			"abi": [
				{
					"inputs": [
						{
							"internalType": "uint256",
							"name": "_scheduledAt",
							"type": "uint256"
						}
					],
					"stateMutability": "nonpayable",
					"type": "constructor"
				},
				{
					"inputs": [],
					"name": "execute",
					"outputs": [],
					"stateMutability": "nonpayable",
					"type": "function"
				},
				{
					"inputs": [],
					"name": "scheduledAt",
					"outputs": [
						{
							"internalType": "uint256",
							"name": "",
							"type": "uint256"
						}
					],
					"stateMutability": "view",
					"type": "function"
				},
				{
					"inputs": [],
					"name": "tolerance",
					"outputs": [
						{
							"internalType": "uint256",
							"name": "",
							"type": "uint256"
						}
					],
					"stateMutability": "view",
					"type": "function"
				}
			],
			"devdoc": {
				"kind": "dev",
				"methods": {},
				"version": 1
			},
			"evm": {
				"assembly": "    /* \"J/Jitter/itter-Tolerant Time Window (Timestamps with \\xc2\\xb1 jitter tolerance).sol\":26:472  contract TimeWindowExecution {... */\n  mstore(0x40, 0x80)\n    /* \"J/Jitter/itter-Tolerant Time Window (Timestamps with \\xc2\\xb1 jitter tolerance).sol\":120:130  15 seconds */\n  0x0f\n    /* \"J/Jitter/itter-Tolerant Time Window (Timestamps with \\xc2\\xb1 jitter tolerance).sol\":93:130  uint256 public tolerance = 15 seconds */\n  0x01\n  sstore\n    /* \"J/Jitter/itter-Tolerant Time Window (Timestamps with \\xc2\\xb1 jitter tolerance).sol\":137:214  constructor(uint256 _scheduledAt) {... */\n  callvalue\n  dup1\n  iszero\n  tag_1\n  jumpi\n  0x00\n  dup1\n  revert\ntag_1:\n  pop\n  mload(0x40)\n  sub(codesize, bytecodeSize)\n  dup1\n  bytecodeSize\n  dup4\n  codecopy\n  dup2\n  dup2\n  add\n  0x40\n  mstore\n  dup2\n  add\n  swap1\n  tag_2\n  swap2\n  swap1\n  tag_3\n  jump\t// in\ntag_2:\n    /* \"J/Jitter/itter-Tolerant Time Window (Timestamps with \\xc2\\xb1 jitter tolerance).sol\":195:207  _scheduledAt */\n  dup1\n    /* \"J/Jitter/itter-Tolerant Time Window (Timestamps with \\xc2\\xb1 jitter tolerance).sol\":181:192  scheduledAt */\n  0x00\n    /* \"J/Jitter/itter-Tolerant Time Window (Timestamps with \\xc2\\xb1 jitter tolerance).sol\":181:207  scheduledAt = _scheduledAt */\n  dup2\n  swap1\n  sstore\n  pop\n    /* \"J/Jitter/itter-Tolerant Time Window (Timestamps with \\xc2\\xb1 jitter tolerance).sol\":137:214  constructor(uint256 _scheduledAt) {... */\n  pop\n    /* \"J/Jitter/itter-Tolerant Time Window (Timestamps with \\xc2\\xb1 jitter tolerance).sol\":26:472  contract TimeWindowExecution {... */\n  jump(tag_6)\n    /* \"#utility.yul\":88:205   */\ntag_8:\n    /* \"#utility.yul\":197:198   */\n  0x00\n    /* \"#utility.yul\":194:195   */\n  dup1\n    /* \"#utility.yul\":187:199   */\n  revert\n    /* \"#utility.yul\":334:411   */\ntag_10:\n    /* \"#utility.yul\":371:378   */\n  0x00\n    /* \"#utility.yul\":400:405   */\n  dup2\n    /* \"#utility.yul\":389:405   */\n  swap1\n  pop\n    /* \"#utility.yul\":334:411   */\n  swap2\n  swap1\n  pop\n  jump\t// out\n    /* \"#utility.yul\":417:539   */\ntag_11:\n    /* \"#utility.yul\":490:514   */\n  tag_19\n    /* \"#utility.yul\":508:513   */\n  dup2\n    /* \"#utility.yul\":490:514   */\n  tag_10\n  jump\t// in\ntag_19:\n    /* \"#utility.yul\":483:488   */\n  dup2\n    /* \"#utility.yul\":480:515   */\n  eq\n    /* \"#utility.yul\":470:533   */\n  tag_20\n  jumpi\n    /* \"#utility.yul\":529:530   */\n  0x00\n    /* \"#utility.yul\":526:527   */\n  dup1\n    /* \"#utility.yul\":519:531   */\n  revert\n    /* \"#utility.yul\":470:533   */\ntag_20:\n    /* \"#utility.yul\":417:539   */\n  pop\n  jump\t// out\n    /* \"#utility.yul\":545:688   */\ntag_12:\n    /* \"#utility.yul\":602:607   */\n  0x00\n    /* \"#utility.yul\":633:639   */\n  dup2\n    /* \"#utility.yul\":627:640   */\n  mload\n    /* \"#utility.yul\":618:640   */\n  swap1\n  pop\n    /* \"#utility.yul\":649:682   */\n  tag_22\n    /* \"#utility.yul\":676:681   */\n  dup2\n    /* \"#utility.yul\":649:682   */\n  tag_11\n  jump\t// in\ntag_22:\n    /* \"#utility.yul\":545:688   */\n  swap3\n  swap2\n  pop\n  pop\n  jump\t// out\n    /* \"#utility.yul\":694:1045   */\ntag_3:\n    /* \"#utility.yul\":764:770   */\n  0x00\n    /* \"#utility.yul\":813:815   */\n  0x20\n    /* \"#utility.yul\":801:810   */\n  dup3\n    /* \"#utility.yul\":792:799   */\n  dup5\n    /* \"#utility.yul\":788:811   */\n  sub\n    /* \"#utility.yul\":784:816   */\n  slt\n    /* \"#utility.yul\":781:900   */\n  iszero\n  tag_24\n  jumpi\n    /* \"#utility.yul\":819:898   */\n  tag_25\n  tag_8\n  jump\t// in\ntag_25:\n    /* \"#utility.yul\":781:900   */\ntag_24:\n    /* \"#utility.yul\":939:940   */\n  0x00\n    /* \"#utility.yul\":964:1028   */\n  tag_26\n    /* \"#utility.yul\":1020:1027   */\n  dup5\n    /* \"#utility.yul\":1011:1017   */\n  dup3\n    /* \"#utility.yul\":1000:1009   */\n  dup6\n    /* \"#utility.yul\":996:1018   */\n  add\n    /* \"#utility.yul\":964:1028   */\n  tag_12\n  jump\t// in\ntag_26:\n    /* \"#utility.yul\":954:1028   */\n  swap2\n  pop\n    /* \"#utility.yul\":910:1038   */\n  pop\n    /* \"#utility.yul\":694:1045   */\n  swap3\n  swap2\n  pop\n  pop\n  jump\t// out\n    /* \"J/Jitter/itter-Tolerant Time Window (Timestamps with \\xc2\\xb1 jitter tolerance).sol\":26:472  contract TimeWindowExecution {... */\ntag_6:\n  dataSize(sub_0)\n  dup1\n  dataOffset(sub_0)\n  0x00\n  codecopy\n  0x00\n  return\nstop\n\nsub_0: assembly {\n        /* \"J/Jitter/itter-Tolerant Time Window (Timestamps with \\xc2\\xb1 jitter tolerance).sol\":26:472  contract TimeWindowExecution {... */\n      mstore(0x40, 0x80)\n      callvalue\n      dup1\n      iszero\n      tag_1\n      jumpi\n      0x00\n      dup1\n      revert\n    tag_1:\n      pop\n      jumpi(tag_2, lt(calldatasize, 0x04))\n      shr(0xe0, calldataload(0x00))\n      dup1\n      0x4730b689\n      eq\n      tag_3\n      jumpi\n      dup1\n      0x61461954\n      eq\n      tag_4\n      jumpi\n      dup1\n      0xdce52dfa\n      eq\n      tag_5\n      jumpi\n    tag_2:\n      0x00\n      dup1\n      revert\n        /* \"J/Jitter/itter-Tolerant Time Window (Timestamps with \\xc2\\xb1 jitter tolerance).sol\":61:87  uint256 public scheduledAt */\n    tag_3:\n      tag_6\n      tag_7\n      jump\t// in\n    tag_6:\n      mload(0x40)\n      tag_8\n      swap2\n      swap1\n      tag_9\n      jump\t// in\n    tag_8:\n      mload(0x40)\n      dup1\n      swap2\n      sub\n      swap1\n      return\n        /* \"J/Jitter/itter-Tolerant Time Window (Timestamps with \\xc2\\xb1 jitter tolerance).sol\":220:470  function execute() external {... */\n    tag_4:\n      tag_10\n      tag_11\n      jump\t// in\n    tag_10:\n      stop\n        /* \"J/Jitter/itter-Tolerant Time Window (Timestamps with \\xc2\\xb1 jitter tolerance).sol\":93:130  uint256 public tolerance = 15 seconds */\n    tag_5:\n      tag_12\n      tag_13\n      jump\t// in\n    tag_12:\n      mload(0x40)\n      tag_14\n      swap2\n      swap1\n      tag_9\n      jump\t// in\n    tag_14:\n      mload(0x40)\n      dup1\n      swap2\n      sub\n      swap1\n      return\n        /* \"J/Jitter/itter-Tolerant Time Window (Timestamps with \\xc2\\xb1 jitter tolerance).sol\":61:87  uint256 public scheduledAt */\n    tag_7:\n      sload(0x00)\n      dup2\n      jump\t// out\n        /* \"J/Jitter/itter-Tolerant Time Window (Timestamps with \\xc2\\xb1 jitter tolerance).sol\":220:470  function execute() external {... */\n    tag_11:\n        /* \"J/Jitter/itter-Tolerant Time Window (Timestamps with \\xc2\\xb1 jitter tolerance).sol\":312:321  tolerance */\n      sload(0x01)\n        /* \"J/Jitter/itter-Tolerant Time Window (Timestamps with \\xc2\\xb1 jitter tolerance).sol\":298:309  scheduledAt */\n      sload(0x00)\n        /* \"J/Jitter/itter-Tolerant Time Window (Timestamps with \\xc2\\xb1 jitter tolerance).sol\":298:321  scheduledAt - tolerance */\n      tag_16\n      swap2\n      swap1\n      tag_17\n      jump\t// in\n    tag_16:\n        /* \"J/Jitter/itter-Tolerant Time Window (Timestamps with \\xc2\\xb1 jitter tolerance).sol\":279:294  block.timestamp */\n      timestamp\n        /* \"J/Jitter/itter-Tolerant Time Window (Timestamps with \\xc2\\xb1 jitter tolerance).sol\":279:321  block.timestamp >= scheduledAt - tolerance */\n      lt\n      iszero\n        /* \"J/Jitter/itter-Tolerant Time Window (Timestamps with \\xc2\\xb1 jitter tolerance).sol\":279:379  block.timestamp >= scheduledAt - tolerance &&... */\n      dup1\n      iszero\n      tag_18\n      jumpi\n      pop\n        /* \"J/Jitter/itter-Tolerant Time Window (Timestamps with \\xc2\\xb1 jitter tolerance).sol\":370:379  tolerance */\n      sload(0x01)\n        /* \"J/Jitter/itter-Tolerant Time Window (Timestamps with \\xc2\\xb1 jitter tolerance).sol\":356:367  scheduledAt */\n      sload(0x00)\n        /* \"J/Jitter/itter-Tolerant Time Window (Timestamps with \\xc2\\xb1 jitter tolerance).sol\":356:379  scheduledAt + tolerance */\n      tag_19\n      swap2\n      swap1\n      tag_20\n      jump\t// in\n    tag_19:\n        /* \"J/Jitter/itter-Tolerant Time Window (Timestamps with \\xc2\\xb1 jitter tolerance).sol\":337:352  block.timestamp */\n      timestamp\n        /* \"J/Jitter/itter-Tolerant Time Window (Timestamps with \\xc2\\xb1 jitter tolerance).sol\":337:379  block.timestamp <= scheduledAt + tolerance */\n      gt\n      iszero\n        /* \"J/Jitter/itter-Tolerant Time Window (Timestamps with \\xc2\\xb1 jitter tolerance).sol\":279:379  block.timestamp >= scheduledAt - tolerance &&... */\n    tag_18:\n        /* \"J/Jitter/itter-Tolerant Time Window (Timestamps with \\xc2\\xb1 jitter tolerance).sol\":258:437  require(... */\n      tag_21\n      jumpi\n      mload(0x40)\n      0x08c379a000000000000000000000000000000000000000000000000000000000\n      dup2\n      mstore\n      0x04\n      add\n      tag_22\n      swap1\n      tag_23\n      jump\t// in\n    tag_22:\n      mload(0x40)\n      dup1\n      swap2\n      sub\n      swap1\n      revert\n    tag_21:\n        /* \"J/Jitter/itter-Tolerant Time Window (Timestamps with \\xc2\\xb1 jitter tolerance).sol\":220:470  function execute() external {... */\n      jump\t// out\n        /* \"J/Jitter/itter-Tolerant Time Window (Timestamps with \\xc2\\xb1 jitter tolerance).sol\":93:130  uint256 public tolerance = 15 seconds */\n    tag_13:\n      sload(0x01)\n      dup2\n      jump\t// out\n        /* \"#utility.yul\":7:84   */\n    tag_24:\n        /* \"#utility.yul\":44:51   */\n      0x00\n        /* \"#utility.yul\":73:78   */\n      dup2\n        /* \"#utility.yul\":62:78   */\n      swap1\n      pop\n        /* \"#utility.yul\":7:84   */\n      swap2\n      swap1\n      pop\n      jump\t// out\n        /* \"#utility.yul\":90:208   */\n    tag_25:\n        /* \"#utility.yul\":177:201   */\n      tag_33\n        /* \"#utility.yul\":195:200   */\n      dup2\n        /* \"#utility.yul\":177:201   */\n      tag_24\n      jump\t// in\n    tag_33:\n        /* \"#utility.yul\":172:175   */\n      dup3\n        /* \"#utility.yul\":165:202   */\n      mstore\n        /* \"#utility.yul\":90:208   */\n      pop\n      pop\n      jump\t// out\n        /* \"#utility.yul\":214:436   */\n    tag_9:\n        /* \"#utility.yul\":307:311   */\n      0x00\n        /* \"#utility.yul\":345:347   */\n      0x20\n        /* \"#utility.yul\":334:343   */\n      dup3\n        /* \"#utility.yul\":330:348   */\n      add\n        /* \"#utility.yul\":322:348   */\n      swap1\n      pop\n        /* \"#utility.yul\":358:429   */\n      tag_35\n        /* \"#utility.yul\":426:427   */\n      0x00\n        /* \"#utility.yul\":415:424   */\n      dup4\n        /* \"#utility.yul\":411:428   */\n      add\n        /* \"#utility.yul\":402:408   */\n      dup5\n        /* \"#utility.yul\":358:429   */\n      tag_25\n      jump\t// in\n    tag_35:\n        /* \"#utility.yul\":214:436   */\n      swap3\n      swap2\n      pop\n      pop\n      jump\t// out\n        /* \"#utility.yul\":442:622   */\n    tag_26:\n        /* \"#utility.yul\":490:567   */\n      0x4e487b7100000000000000000000000000000000000000000000000000000000\n        /* \"#utility.yul\":487:488   */\n      0x00\n        /* \"#utility.yul\":480:568   */\n      mstore\n        /* \"#utility.yul\":587:591   */\n      0x11\n        /* \"#utility.yul\":584:585   */\n      0x04\n        /* \"#utility.yul\":577:592   */\n      mstore\n        /* \"#utility.yul\":611:615   */\n      0x24\n        /* \"#utility.yul\":608:609   */\n      0x00\n        /* \"#utility.yul\":601:616   */\n      revert\n        /* \"#utility.yul\":628:822   */\n    tag_17:\n        /* \"#utility.yul\":668:672   */\n      0x00\n        /* \"#utility.yul\":688:708   */\n      tag_38\n        /* \"#utility.yul\":706:707   */\n      dup3\n        /* \"#utility.yul\":688:708   */\n      tag_24\n      jump\t// in\n    tag_38:\n        /* \"#utility.yul\":683:708   */\n      swap2\n      pop\n        /* \"#utility.yul\":722:742   */\n      tag_39\n        /* \"#utility.yul\":740:741   */\n      dup4\n        /* \"#utility.yul\":722:742   */\n      tag_24\n      jump\t// in\n    tag_39:\n        /* \"#utility.yul\":717:742   */\n      swap3\n      pop\n        /* \"#utility.yul\":766:767   */\n      dup3\n        /* \"#utility.yul\":763:764   */\n      dup3\n        /* \"#utility.yul\":759:768   */\n      sub\n        /* \"#utility.yul\":751:768   */\n      swap1\n      pop\n        /* \"#utility.yul\":790:791   */\n      dup2\n        /* \"#utility.yul\":784:788   */\n      dup2\n        /* \"#utility.yul\":781:792   */\n      gt\n        /* \"#utility.yul\":778:815   */\n      iszero\n      tag_40\n      jumpi\n        /* \"#utility.yul\":795:813   */\n      tag_41\n      tag_26\n      jump\t// in\n    tag_41:\n        /* \"#utility.yul\":778:815   */\n    tag_40:\n        /* \"#utility.yul\":628:822   */\n      swap3\n      swap2\n      pop\n      pop\n      jump\t// out\n        /* \"#utility.yul\":828:1019   */\n    tag_20:\n        /* \"#utility.yul\":868:871   */\n      0x00\n        /* \"#utility.yul\":887:907   */\n      tag_43\n        /* \"#utility.yul\":905:906   */\n      dup3\n        /* \"#utility.yul\":887:907   */\n      tag_24\n      jump\t// in\n    tag_43:\n        /* \"#utility.yul\":882:907   */\n      swap2\n      pop\n        /* \"#utility.yul\":921:941   */\n      tag_44\n        /* \"#utility.yul\":939:940   */\n      dup4\n        /* \"#utility.yul\":921:941   */\n      tag_24\n      jump\t// in\n    tag_44:\n        /* \"#utility.yul\":916:941   */\n      swap3\n      pop\n        /* \"#utility.yul\":964:965   */\n      dup3\n        /* \"#utility.yul\":961:962   */\n      dup3\n        /* \"#utility.yul\":957:966   */\n      add\n        /* \"#utility.yul\":950:966   */\n      swap1\n      pop\n        /* \"#utility.yul\":985:988   */\n      dup1\n        /* \"#utility.yul\":982:983   */\n      dup3\n        /* \"#utility.yul\":979:989   */\n      gt\n        /* \"#utility.yul\":976:1012   */\n      iszero\n      tag_45\n      jumpi\n        /* \"#utility.yul\":992:1010   */\n      tag_46\n      tag_26\n      jump\t// in\n    tag_46:\n        /* \"#utility.yul\":976:1012   */\n    tag_45:\n        /* \"#utility.yul\":828:1019   */\n      swap3\n      swap2\n      pop\n      pop\n      jump\t// out\n        /* \"#utility.yul\":1025:1194   */\n    tag_27:\n        /* \"#utility.yul\":1109:1120   */\n      0x00\n        /* \"#utility.yul\":1143:1149   */\n      dup3\n        /* \"#utility.yul\":1138:1141   */\n      dup3\n        /* \"#utility.yul\":1131:1150   */\n      mstore\n        /* \"#utility.yul\":1183:1187   */\n      0x20\n        /* \"#utility.yul\":1178:1181   */\n      dup3\n        /* \"#utility.yul\":1174:1188   */\n      add\n        /* \"#utility.yul\":1159:1188   */\n      swap1\n      pop\n        /* \"#utility.yul\":1025:1194   */\n      swap3\n      swap2\n      pop\n      pop\n      jump\t// out\n        /* \"#utility.yul\":1200:1382   */\n    tag_28:\n        /* \"#utility.yul\":1340:1374   */\n      0x4e6f742077697468696e20616c6c6f776564206a69747465722077696e646f77\n        /* \"#utility.yul\":1336:1337   */\n      0x00\n        /* \"#utility.yul\":1328:1334   */\n      dup3\n        /* \"#utility.yul\":1324:1338   */\n      add\n        /* \"#utility.yul\":1317:1375   */\n      mstore\n        /* \"#utility.yul\":1200:1382   */\n      pop\n      jump\t// out\n        /* \"#utility.yul\":1388:1754   */\n    tag_29:\n        /* \"#utility.yul\":1530:1533   */\n      0x00\n        /* \"#utility.yul\":1551:1618   */\n      tag_50\n        /* \"#utility.yul\":1615:1617   */\n      0x20\n        /* \"#utility.yul\":1610:1613   */\n      dup4\n        /* \"#utility.yul\":1551:1618   */\n      tag_27\n      jump\t// in\n    tag_50:\n        /* \"#utility.yul\":1544:1618   */\n      swap2\n      pop\n        /* \"#utility.yul\":1627:1720   */\n      tag_51\n        /* \"#utility.yul\":1716:1719   */\n      dup3\n        /* \"#utility.yul\":1627:1720   */\n      tag_28\n      jump\t// in\n    tag_51:\n        /* \"#utility.yul\":1745:1747   */\n      0x20\n        /* \"#utility.yul\":1740:1743   */\n      dup3\n        /* \"#utility.yul\":1736:1748   */\n      add\n        /* \"#utility.yul\":1729:1748   */\n      swap1\n      pop\n        /* \"#utility.yul\":1388:1754   */\n      swap2\n      swap1\n      pop\n      jump\t// out\n        /* \"#utility.yul\":1760:2179   */\n    tag_23:\n        /* \"#utility.yul\":1926:1930   */\n      0x00\n        /* \"#utility.yul\":1964:1966   */\n      0x20\n        /* \"#utility.yul\":1953:1962   */\n      dup3\n        /* \"#utility.yul\":1949:1967   */\n      add\n        /* \"#utility.yul\":1941:1967   */\n      swap1\n      pop\n        /* \"#utility.yul\":2013:2022   */\n      dup2\n        /* \"#utility.yul\":2007:2011   */\n      dup2\n        /* \"#utility.yul\":2003:2023   */\n      sub\n        /* \"#utility.yul\":1999:2000   */\n      0x00\n        /* \"#utility.yul\":1988:1997   */\n      dup4\n        /* \"#utility.yul\":1984:2001   */\n      add\n        /* \"#utility.yul\":1977:2024   */\n      mstore\n        /* \"#utility.yul\":2041:2172   */\n      tag_53\n        /* \"#utility.yul\":2167:2171   */\n      dup2\n        /* \"#utility.yul\":2041:2172   */\n      tag_29\n      jump\t// in\n    tag_53:\n        /* \"#utility.yul\":2033:2172   */\n      swap1\n      pop\n        /* \"#utility.yul\":1760:2179   */\n      swap2\n      swap1\n      pop\n      jump\t// out\n\n    auxdata: 0xa2646970667358221220291ced2b4133bce5debd833850596a862ccc3d5822e14a632dfdd474f73a71c764736f6c634300081a0033\n}\n",
				"bytecode": {
					"linkReferences": {},
					"object": "6080604052600f6001553480156013575f80fd5b506040516103163803806103168339818101604052810190603391906070565b805f81905550506096565b5f80fd5b5f819050919050565b6052816042565b8114605b575f80fd5b50565b5f81519050606a81604b565b92915050565b5f602082840312156082576081603e565b5b5f608d84828501605e565b91505092915050565b610273806100a35f395ff3fe608060405234801561000f575f80fd5b506004361061003f575f3560e01c80634730b689146100435780636146195414610061578063dce52dfa1461006b575b5f80fd5b61004b610089565b6040516100589190610119565b60405180910390f35b61006961008e565b005b6100736100fb565b6040516100809190610119565b60405180910390f35b5f5481565b6001545f5461009d919061015f565b42101580156100ba57506001545f546100b69190610192565b4211155b6100f9576040517f08c379a00000000000000000000000000000000000000000000000000000000081526004016100f09061021f565b60405180910390fd5b565b60015481565b5f819050919050565b61011381610101565b82525050565b5f60208201905061012c5f83018461010a565b92915050565b7f4e487b71000000000000000000000000000000000000000000000000000000005f52601160045260245ffd5b5f61016982610101565b915061017483610101565b925082820390508181111561018c5761018b610132565b5b92915050565b5f61019c82610101565b91506101a783610101565b92508282019050808211156101bf576101be610132565b5b92915050565b5f82825260208201905092915050565b7f4e6f742077697468696e20616c6c6f776564206a69747465722077696e646f775f82015250565b5f6102096020836101c5565b9150610214826101d5565b602082019050919050565b5f6020820190508181035f830152610236816101fd565b905091905056fea2646970667358221220291ced2b4133bce5debd833850596a862ccc3d5822e14a632dfdd474f73a71c764736f6c634300081a0033",
					"opcodes": "PUSH1 0x80 PUSH1 0x40 MSTORE PUSH1 0xF PUSH1 0x1 SSTORE CALLVALUE DUP1 ISZERO PUSH1 0x13 JUMPI PUSH0 DUP1 REVERT JUMPDEST POP PUSH1 0x40 MLOAD PUSH2 0x316 CODESIZE SUB DUP1 PUSH2 0x316 DUP4 CODECOPY DUP2 DUP2 ADD PUSH1 0x40 MSTORE DUP2 ADD SWAP1 PUSH1 0x33 SWAP2 SWAP1 PUSH1 0x70 JUMP JUMPDEST DUP1 PUSH0 DUP2 SWAP1 SSTORE POP POP PUSH1 0x96 JUMP JUMPDEST PUSH0 DUP1 REVERT JUMPDEST PUSH0 DUP2 SWAP1 POP SWAP2 SWAP1 POP JUMP JUMPDEST PUSH1 0x52 DUP2 PUSH1 0x42 JUMP JUMPDEST DUP2 EQ PUSH1 0x5B JUMPI PUSH0 DUP1 REVERT JUMPDEST POP JUMP JUMPDEST PUSH0 DUP2 MLOAD SWAP1 POP PUSH1 0x6A DUP2 PUSH1 0x4B JUMP JUMPDEST SWAP3 SWAP2 POP POP JUMP JUMPDEST PUSH0 PUSH1 0x20 DUP3 DUP5 SUB SLT ISZERO PUSH1 0x82 JUMPI PUSH1 0x81 PUSH1 0x3E JUMP JUMPDEST JUMPDEST PUSH0 PUSH1 0x8D DUP5 DUP3 DUP6 ADD PUSH1 0x5E JUMP JUMPDEST SWAP2 POP POP SWAP3 SWAP2 POP POP JUMP JUMPDEST PUSH2 0x273 DUP1 PUSH2 0xA3 PUSH0 CODECOPY PUSH0 RETURN INVALID PUSH1 0x80 PUSH1 0x40 MSTORE CALLVALUE DUP1 ISZERO PUSH2 0xF JUMPI PUSH0 DUP1 REVERT JUMPDEST POP PUSH1 0x4 CALLDATASIZE LT PUSH2 0x3F JUMPI PUSH0 CALLDATALOAD PUSH1 0xE0 SHR DUP1 PUSH4 0x4730B689 EQ PUSH2 0x43 JUMPI DUP1 PUSH4 0x61461954 EQ PUSH2 0x61 JUMPI DUP1 PUSH4 0xDCE52DFA EQ PUSH2 0x6B JUMPI JUMPDEST PUSH0 DUP1 REVERT JUMPDEST PUSH2 0x4B PUSH2 0x89 JUMP JUMPDEST PUSH1 0x40 MLOAD PUSH2 0x58 SWAP2 SWAP1 PUSH2 0x119 JUMP JUMPDEST PUSH1 0x40 MLOAD DUP1 SWAP2 SUB SWAP1 RETURN JUMPDEST PUSH2 0x69 PUSH2 0x8E JUMP JUMPDEST STOP JUMPDEST PUSH2 0x73 PUSH2 0xFB JUMP JUMPDEST PUSH1 0x40 MLOAD PUSH2 0x80 SWAP2 SWAP1 PUSH2 0x119 JUMP JUMPDEST PUSH1 0x40 MLOAD DUP1 SWAP2 SUB SWAP1 RETURN JUMPDEST PUSH0 SLOAD DUP2 JUMP JUMPDEST PUSH1 0x1 SLOAD PUSH0 SLOAD PUSH2 0x9D SWAP2 SWAP1 PUSH2 0x15F JUMP JUMPDEST TIMESTAMP LT ISZERO DUP1 ISZERO PUSH2 0xBA JUMPI POP PUSH1 0x1 SLOAD PUSH0 SLOAD PUSH2 0xB6 SWAP2 SWAP1 PUSH2 0x192 JUMP JUMPDEST TIMESTAMP GT ISZERO JUMPDEST PUSH2 0xF9 JUMPI PUSH1 0x40 MLOAD PUSH32 0x8C379A000000000000000000000000000000000000000000000000000000000 DUP2 MSTORE PUSH1 0x4 ADD PUSH2 0xF0 SWAP1 PUSH2 0x21F JUMP JUMPDEST PUSH1 0x40 MLOAD DUP1 SWAP2 SUB SWAP1 REVERT JUMPDEST JUMP JUMPDEST PUSH1 0x1 SLOAD DUP2 JUMP JUMPDEST PUSH0 DUP2 SWAP1 POP SWAP2 SWAP1 POP JUMP JUMPDEST PUSH2 0x113 DUP2 PUSH2 0x101 JUMP JUMPDEST DUP3 MSTORE POP POP JUMP JUMPDEST PUSH0 PUSH1 0x20 DUP3 ADD SWAP1 POP PUSH2 0x12C PUSH0 DUP4 ADD DUP5 PUSH2 0x10A JUMP JUMPDEST SWAP3 SWAP2 POP POP JUMP JUMPDEST PUSH32 0x4E487B7100000000000000000000000000000000000000000000000000000000 PUSH0 MSTORE PUSH1 0x11 PUSH1 0x4 MSTORE PUSH1 0x24 PUSH0 REVERT JUMPDEST PUSH0 PUSH2 0x169 DUP3 PUSH2 0x101 JUMP JUMPDEST SWAP2 POP PUSH2 0x174 DUP4 PUSH2 0x101 JUMP JUMPDEST SWAP3 POP DUP3 DUP3 SUB SWAP1 POP DUP2 DUP2 GT ISZERO PUSH2 0x18C JUMPI PUSH2 0x18B PUSH2 0x132 JUMP JUMPDEST JUMPDEST SWAP3 SWAP2 POP POP JUMP JUMPDEST PUSH0 PUSH2 0x19C DUP3 PUSH2 0x101 JUMP JUMPDEST SWAP2 POP PUSH2 0x1A7 DUP4 PUSH2 0x101 JUMP JUMPDEST SWAP3 POP DUP3 DUP3 ADD SWAP1 POP DUP1 DUP3 GT ISZERO PUSH2 0x1BF JUMPI PUSH2 0x1BE PUSH2 0x132 JUMP JUMPDEST JUMPDEST SWAP3 SWAP2 POP POP JUMP JUMPDEST PUSH0 DUP3 DUP3 MSTORE PUSH1 0x20 DUP3 ADD SWAP1 POP SWAP3 SWAP2 POP POP JUMP JUMPDEST PUSH32 0x4E6F742077697468696E20616C6C6F776564206A69747465722077696E646F77 PUSH0 DUP3 ADD MSTORE POP JUMP JUMPDEST PUSH0 PUSH2 0x209 PUSH1 0x20 DUP4 PUSH2 0x1C5 JUMP JUMPDEST SWAP2 POP PUSH2 0x214 DUP3 PUSH2 0x1D5 JUMP JUMPDEST PUSH1 0x20 DUP3 ADD SWAP1 POP SWAP2 SWAP1 POP JUMP JUMPDEST PUSH0 PUSH1 0x20 DUP3 ADD SWAP1 POP DUP2 DUP2 SUB PUSH0 DUP4 ADD MSTORE PUSH2 0x236 DUP2 PUSH2 0x1FD JUMP JUMPDEST SWAP1 POP SWAP2 SWAP1 POP JUMP INVALID LOG2 PUSH5 0x6970667358 0x22 SLT KECCAK256 0x29 SHR 0xED 0x2B COINBASE CALLER 0xBC 0xE5 0xDE 0xBD DUP4 CODESIZE POP MSIZE PUSH11 0x862CCC3D5822E14A632DFD 0xD4 PUSH21 0xF73A71C764736F6C634300081A0033000000000000 "
				},
				"gasEstimates": {
					"creation": {
						"codeDepositCost": "125400",
						"executionCost": "infinite",
						"totalCost": "infinite"
					},
					"external": {
						"execute()": "infinite",
						"scheduledAt()": "2402",
						"tolerance()": "2447"
					}
				},
				"methodIdentifiers": {
					"execute()": "61461954",
					"scheduledAt()": "4730b689",
					"tolerance()": "dce52dfa"
				}
			},
			"storageLayout": {
				"storage": [
					{
						"astId": 3,
						"contract": "J/Jitter/itter-Tolerant Time Window (Timestamps with ± jitter tolerance).sol:TimeWindowExecution",
						"label": "scheduledAt",
						"offset": 0,
						"slot": "0",
						"type": "t_uint256"
					},
					{
						"astId": 6,
						"contract": "J/Jitter/itter-Tolerant Time Window (Timestamps with ± jitter tolerance).sol:TimeWindowExecution",
						"label": "tolerance",
						"offset": 0,
						"slot": "1",
						"type": "t_uint256"
					}
				],
				"types": {
					"t_uint256": {
						"encoding": "inplace",
						"label": "uint256",
						"numberOfBytes": "32"
					}
				}
			},
			"userdoc": {
				"kind": "user",
				"methods": {},
				"version": 1
			}
		}
	}
}