{
	"J/Jitter/Attack Scenario (Oracle Jitter).sol": {
		"OracleJitterExploit": {
			"abi": [
				{
					"inputs": [
						{
							"internalType": "address",
							"name": "_feed",
							"type": "address"
						}
					],
					"stateMutability": "nonpayable",
					"type": "constructor"
				},
				{
					"inputs": [],
					"name": "buyAsset",
					"outputs": [],
					"stateMutability": "payable",
					"type": "function"
				},
				{
					"inputs": [],
					"name": "feed",
					"outputs": [
						{
							"internalType": "contract PriceFeed",
							"name": "",
							"type": "address"
						}
					],
					"stateMutability": "view",
					"type": "function"
				}
			],
			"devdoc": {
				"kind": "dev",
				"methods": {},
				"version": 1
			},
			"evm": {
				"assembly": "    /* \"J/Jitter/Attack Scenario (Oracle Jitter).sol\":111:453  contract OracleJitterExploit {... */\n  mstore(0x40, 0x80)\n    /* \"J/Jitter/Attack Scenario (Oracle Jitter).sol\":174:241  constructor(address _feed) {... */\n  callvalue\n  dup1\n  iszero\n  tag_1\n  jumpi\n  0x00\n  dup1\n  revert\ntag_1:\n  pop\n  mload(0x40)\n  sub(codesize, bytecodeSize)\n  dup1\n  bytecodeSize\n  dup4\n  codecopy\n  dup2\n  dup2\n  add\n  0x40\n  mstore\n  dup2\n  add\n  swap1\n  tag_2\n  swap2\n  swap1\n  tag_3\n  jump\t// in\ntag_2:\n    /* \"J/Jitter/Attack Scenario (Oracle Jitter).sol\":228:233  _feed */\n  dup1\n    /* \"J/Jitter/Attack Scenario (Oracle Jitter).sol\":211:215  feed */\n  0x00\n  dup1\n    /* \"J/Jitter/Attack Scenario (Oracle Jitter).sol\":211:234  feed = PriceFeed(_feed) */\n  0x0100\n  exp\n  dup2\n  sload\n  dup2\n  0xffffffffffffffffffffffffffffffffffffffff\n  mul\n  not\n  and\n  swap1\n  dup4\n  0xffffffffffffffffffffffffffffffffffffffff\n  and\n  mul\n  or\n  swap1\n  sstore\n  pop\n    /* \"J/Jitter/Attack Scenario (Oracle Jitter).sol\":174:241  constructor(address _feed) {... */\n  pop\n    /* \"J/Jitter/Attack Scenario (Oracle Jitter).sol\":111:453  contract OracleJitterExploit {... */\n  jump(tag_6)\n    /* \"#utility.yul\":88:205   */\ntag_8:\n    /* \"#utility.yul\":197:198   */\n  0x00\n    /* \"#utility.yul\":194:195   */\n  dup1\n    /* \"#utility.yul\":187:199   */\n  revert\n    /* \"#utility.yul\":334:460   */\ntag_10:\n    /* \"#utility.yul\":371:378   */\n  0x00\n    /* \"#utility.yul\":411:453   */\n  0xffffffffffffffffffffffffffffffffffffffff\n    /* \"#utility.yul\":404:409   */\n  dup3\n    /* \"#utility.yul\":400:454   */\n  and\n    /* \"#utility.yul\":389:454   */\n  swap1\n  pop\n    /* \"#utility.yul\":334:460   */\n  swap2\n  swap1\n  pop\n  jump\t// out\n    /* \"#utility.yul\":466:562   */\ntag_11:\n    /* \"#utility.yul\":503:510   */\n  0x00\n    /* \"#utility.yul\":532:556   */\n  tag_20\n    /* \"#utility.yul\":550:555   */\n  dup3\n    /* \"#utility.yul\":532:556   */\n  tag_10\n  jump\t// in\ntag_20:\n    /* \"#utility.yul\":521:556   */\n  swap1\n  pop\n    /* \"#utility.yul\":466:562   */\n  swap2\n  swap1\n  pop\n  jump\t// out\n    /* \"#utility.yul\":568:690   */\ntag_12:\n    /* \"#utility.yul\":641:665   */\n  tag_22\n    /* \"#utility.yul\":659:664   */\n  dup2\n    /* \"#utility.yul\":641:665   */\n  tag_11\n  jump\t// in\ntag_22:\n    /* \"#utility.yul\":634:639   */\n  dup2\n    /* \"#utility.yul\":631:666   */\n  eq\n    /* \"#utility.yul\":621:684   */\n  tag_23\n  jumpi\n    /* \"#utility.yul\":680:681   */\n  0x00\n    /* \"#utility.yul\":677:678   */\n  dup1\n    /* \"#utility.yul\":670:682   */\n  revert\n    /* \"#utility.yul\":621:684   */\ntag_23:\n    /* \"#utility.yul\":568:690   */\n  pop\n  jump\t// out\n    /* \"#utility.yul\":696:839   */\ntag_13:\n    /* \"#utility.yul\":753:758   */\n  0x00\n    /* \"#utility.yul\":784:790   */\n  dup2\n    /* \"#utility.yul\":778:791   */\n  mload\n    /* \"#utility.yul\":769:791   */\n  swap1\n  pop\n    /* \"#utility.yul\":800:833   */\n  tag_25\n    /* \"#utility.yul\":827:832   */\n  dup2\n    /* \"#utility.yul\":800:833   */\n  tag_12\n  jump\t// in\ntag_25:\n    /* \"#utility.yul\":696:839   */\n  swap3\n  swap2\n  pop\n  pop\n  jump\t// out\n    /* \"#utility.yul\":845:1196   */\ntag_3:\n    /* \"#utility.yul\":915:921   */\n  0x00\n    /* \"#utility.yul\":964:966   */\n  0x20\n    /* \"#utility.yul\":952:961   */\n  dup3\n    /* \"#utility.yul\":943:950   */\n  dup5\n    /* \"#utility.yul\":939:962   */\n  sub\n    /* \"#utility.yul\":935:967   */\n  slt\n    /* \"#utility.yul\":932:1051   */\n  iszero\n  tag_27\n  jumpi\n    /* \"#utility.yul\":970:1049   */\n  tag_28\n  tag_8\n  jump\t// in\ntag_28:\n    /* \"#utility.yul\":932:1051   */\ntag_27:\n    /* \"#utility.yul\":1090:1091   */\n  0x00\n    /* \"#utility.yul\":1115:1179   */\n  tag_29\n    /* \"#utility.yul\":1171:1178   */\n  dup5\n    /* \"#utility.yul\":1162:1168   */\n  dup3\n    /* \"#utility.yul\":1151:1160   */\n  dup6\n    /* \"#utility.yul\":1147:1169   */\n  add\n    /* \"#utility.yul\":1115:1179   */\n  tag_13\n  jump\t// in\ntag_29:\n    /* \"#utility.yul\":1105:1179   */\n  swap2\n  pop\n    /* \"#utility.yul\":1061:1189   */\n  pop\n    /* \"#utility.yul\":845:1196   */\n  swap3\n  swap2\n  pop\n  pop\n  jump\t// out\n    /* \"J/Jitter/Attack Scenario (Oracle Jitter).sol\":111:453  contract OracleJitterExploit {... */\ntag_6:\n  dataSize(sub_0)\n  dup1\n  dataOffset(sub_0)\n  0x00\n  codecopy\n  0x00\n  return\nstop\n\nsub_0: assembly {\n        /* \"J/Jitter/Attack Scenario (Oracle Jitter).sol\":111:453  contract OracleJitterExploit {... */\n      mstore(0x40, 0x80)\n      jumpi(tag_1, lt(calldatasize, 0x04))\n      shr(0xe0, calldataload(0x00))\n      dup1\n      0x37a7b7d8\n      eq\n      tag_2\n      jumpi\n      dup1\n      0x9fbaf131\n      eq\n      tag_3\n      jumpi\n    tag_1:\n      0x00\n      dup1\n      revert\n        /* \"J/Jitter/Attack Scenario (Oracle Jitter).sol\":146:167  PriceFeed public feed */\n    tag_2:\n      callvalue\n      dup1\n      iszero\n      tag_4\n      jumpi\n      0x00\n      dup1\n      revert\n    tag_4:\n      pop\n      tag_5\n      tag_6\n      jump\t// in\n    tag_5:\n      mload(0x40)\n      tag_7\n      swap2\n      swap1\n      tag_8\n      jump\t// in\n    tag_7:\n      mload(0x40)\n      dup1\n      swap2\n      sub\n      swap1\n      return\n        /* \"J/Jitter/Attack Scenario (Oracle Jitter).sol\":247:451  function buyAsset() external payable {... */\n    tag_3:\n      tag_9\n      tag_10\n      jump\t// in\n    tag_9:\n      stop\n        /* \"J/Jitter/Attack Scenario (Oracle Jitter).sol\":146:167  PriceFeed public feed */\n    tag_6:\n      0x00\n      dup1\n      sload\n      swap1\n      0x0100\n      exp\n      swap1\n      div\n      0xffffffffffffffffffffffffffffffffffffffff\n      and\n      dup2\n      jump\t// out\n        /* \"J/Jitter/Attack Scenario (Oracle Jitter).sol\":247:451  function buyAsset() external payable {... */\n    tag_10:\n        /* \"J/Jitter/Attack Scenario (Oracle Jitter).sol\":314:315  0 */\n      0x00\n        /* \"J/Jitter/Attack Scenario (Oracle Jitter).sol\":302:311  msg.value */\n      callvalue\n        /* \"J/Jitter/Attack Scenario (Oracle Jitter).sol\":302:315  msg.value > 0 */\n      gt\n        /* \"J/Jitter/Attack Scenario (Oracle Jitter).sol\":294:316  require(msg.value > 0) */\n      tag_12\n      jumpi\n      0x00\n      dup1\n      revert\n    tag_12:\n        /* \"J/Jitter/Attack Scenario (Oracle Jitter).sol\":326:346  uint256 delayedPrice */\n      0x00\n        /* \"J/Jitter/Attack Scenario (Oracle Jitter).sol\":349:353  feed */\n      dup1\n      0x00\n      swap1\n      sload\n      swap1\n      0x0100\n      exp\n      swap1\n      div\n      0xffffffffffffffffffffffffffffffffffffffff\n      and\n        /* \"J/Jitter/Attack Scenario (Oracle Jitter).sol\":349:365  feed.latestPrice */\n      0xffffffffffffffffffffffffffffffffffffffff\n      and\n      0xa3e6ba94\n        /* \"J/Jitter/Attack Scenario (Oracle Jitter).sol\":349:367  feed.latestPrice() */\n      mload(0x40)\n      dup2\n      0xffffffff\n      and\n      0xe0\n      shl\n      dup2\n      mstore\n      0x04\n      add\n      0x20\n      mload(0x40)\n      dup1\n      dup4\n      sub\n      dup2\n      dup7\n      gas\n      staticcall\n      iszero\n      dup1\n      iszero\n      tag_14\n      jumpi\n      returndatasize\n      0x00\n      dup1\n      returndatacopy\n      revert(0x00, returndatasize)\n    tag_14:\n      pop\n      pop\n      pop\n      pop\n      mload(0x40)\n      returndatasize\n      not(0x1f)\n      0x1f\n      dup3\n      add\n      and\n      dup3\n      add\n      dup1\n      0x40\n      mstore\n      pop\n      dup2\n      add\n      swap1\n      tag_15\n      swap2\n      swap1\n      tag_16\n      jump\t// in\n    tag_15:\n        /* \"J/Jitter/Attack Scenario (Oracle Jitter).sol\":326:367  uint256 delayedPrice = feed.latestPrice() */\n      swap1\n      pop\n        /* \"J/Jitter/Attack Scenario (Oracle Jitter).sol\":284:451  {... */\n      pop\n        /* \"J/Jitter/Attack Scenario (Oracle Jitter).sol\":247:451  function buyAsset() external payable {... */\n      jump\t// out\n        /* \"#utility.yul\":7:133   */\n    tag_17:\n        /* \"#utility.yul\":44:51   */\n      0x00\n        /* \"#utility.yul\":84:126   */\n      0xffffffffffffffffffffffffffffffffffffffff\n        /* \"#utility.yul\":77:82   */\n      dup3\n        /* \"#utility.yul\":73:127   */\n      and\n        /* \"#utility.yul\":62:127   */\n      swap1\n      pop\n        /* \"#utility.yul\":7:133   */\n      swap2\n      swap1\n      pop\n      jump\t// out\n        /* \"#utility.yul\":139:199   */\n    tag_18:\n        /* \"#utility.yul\":167:170   */\n      0x00\n        /* \"#utility.yul\":188:193   */\n      dup2\n        /* \"#utility.yul\":181:193   */\n      swap1\n      pop\n        /* \"#utility.yul\":139:199   */\n      swap2\n      swap1\n      pop\n      jump\t// out\n        /* \"#utility.yul\":205:347   */\n    tag_19:\n        /* \"#utility.yul\":255:264   */\n      0x00\n        /* \"#utility.yul\":288:341   */\n      tag_33\n        /* \"#utility.yul\":306:340   */\n      tag_34\n        /* \"#utility.yul\":315:339   */\n      tag_35\n        /* \"#utility.yul\":333:338   */\n      dup5\n        /* \"#utility.yul\":315:339   */\n      tag_17\n      jump\t// in\n    tag_35:\n        /* \"#utility.yul\":306:340   */\n      tag_18\n      jump\t// in\n    tag_34:\n        /* \"#utility.yul\":288:341   */\n      tag_17\n      jump\t// in\n    tag_33:\n        /* \"#utility.yul\":275:341   */\n      swap1\n      pop\n        /* \"#utility.yul\":205:347   */\n      swap2\n      swap1\n      pop\n      jump\t// out\n        /* \"#utility.yul\":353:479   */\n    tag_20:\n        /* \"#utility.yul\":403:412   */\n      0x00\n        /* \"#utility.yul\":436:473   */\n      tag_37\n        /* \"#utility.yul\":467:472   */\n      dup3\n        /* \"#utility.yul\":436:473   */\n      tag_19\n      jump\t// in\n    tag_37:\n        /* \"#utility.yul\":423:473   */\n      swap1\n      pop\n        /* \"#utility.yul\":353:479   */\n      swap2\n      swap1\n      pop\n      jump\t// out\n        /* \"#utility.yul\":485:626   */\n    tag_21:\n        /* \"#utility.yul\":550:559   */\n      0x00\n        /* \"#utility.yul\":583:620   */\n      tag_39\n        /* \"#utility.yul\":614:619   */\n      dup3\n        /* \"#utility.yul\":583:620   */\n      tag_20\n      jump\t// in\n    tag_39:\n        /* \"#utility.yul\":570:620   */\n      swap1\n      pop\n        /* \"#utility.yul\":485:626   */\n      swap2\n      swap1\n      pop\n      jump\t// out\n        /* \"#utility.yul\":632:793   */\n    tag_22:\n        /* \"#utility.yul\":734:786   */\n      tag_41\n        /* \"#utility.yul\":780:785   */\n      dup2\n        /* \"#utility.yul\":734:786   */\n      tag_21\n      jump\t// in\n    tag_41:\n        /* \"#utility.yul\":729:732   */\n      dup3\n        /* \"#utility.yul\":722:787   */\n      mstore\n        /* \"#utility.yul\":632:793   */\n      pop\n      pop\n      jump\t// out\n        /* \"#utility.yul\":799:1051   */\n    tag_8:\n        /* \"#utility.yul\":907:911   */\n      0x00\n        /* \"#utility.yul\":945:947   */\n      0x20\n        /* \"#utility.yul\":934:943   */\n      dup3\n        /* \"#utility.yul\":930:948   */\n      add\n        /* \"#utility.yul\":922:948   */\n      swap1\n      pop\n        /* \"#utility.yul\":958:1044   */\n      tag_43\n        /* \"#utility.yul\":1041:1042   */\n      0x00\n        /* \"#utility.yul\":1030:1039   */\n      dup4\n        /* \"#utility.yul\":1026:1043   */\n      add\n        /* \"#utility.yul\":1017:1023   */\n      dup5\n        /* \"#utility.yul\":958:1044   */\n      tag_22\n      jump\t// in\n    tag_43:\n        /* \"#utility.yul\":799:1051   */\n      swap3\n      swap2\n      pop\n      pop\n      jump\t// out\n        /* \"#utility.yul\":1138:1255   */\n    tag_24:\n        /* \"#utility.yul\":1247:1248   */\n      0x00\n        /* \"#utility.yul\":1244:1245   */\n      dup1\n        /* \"#utility.yul\":1237:1249   */\n      revert\n        /* \"#utility.yul\":1384:1461   */\n    tag_26:\n        /* \"#utility.yul\":1421:1428   */\n      0x00\n        /* \"#utility.yul\":1450:1455   */\n      dup2\n        /* \"#utility.yul\":1439:1455   */\n      swap1\n      pop\n        /* \"#utility.yul\":1384:1461   */\n      swap2\n      swap1\n      pop\n      jump\t// out\n        /* \"#utility.yul\":1467:1589   */\n    tag_27:\n        /* \"#utility.yul\":1540:1564   */\n      tag_49\n        /* \"#utility.yul\":1558:1563   */\n      dup2\n        /* \"#utility.yul\":1540:1564   */\n      tag_26\n      jump\t// in\n    tag_49:\n        /* \"#utility.yul\":1533:1538   */\n      dup2\n        /* \"#utility.yul\":1530:1565   */\n      eq\n        /* \"#utility.yul\":1520:1583   */\n      tag_50\n      jumpi\n        /* \"#utility.yul\":1579:1580   */\n      0x00\n        /* \"#utility.yul\":1576:1577   */\n      dup1\n        /* \"#utility.yul\":1569:1581   */\n      revert\n        /* \"#utility.yul\":1520:1583   */\n    tag_50:\n        /* \"#utility.yul\":1467:1589   */\n      pop\n      jump\t// out\n        /* \"#utility.yul\":1595:1738   */\n    tag_28:\n        /* \"#utility.yul\":1652:1657   */\n      0x00\n        /* \"#utility.yul\":1683:1689   */\n      dup2\n        /* \"#utility.yul\":1677:1690   */\n      mload\n        /* \"#utility.yul\":1668:1690   */\n      swap1\n      pop\n        /* \"#utility.yul\":1699:1732   */\n      tag_52\n        /* \"#utility.yul\":1726:1731   */\n      dup2\n        /* \"#utility.yul\":1699:1732   */\n      tag_27\n      jump\t// in\n    tag_52:\n        /* \"#utility.yul\":1595:1738   */\n      swap3\n      swap2\n      pop\n      pop\n      jump\t// out\n        /* \"#utility.yul\":1744:2095   */\n    tag_16:\n        /* \"#utility.yul\":1814:1820   */\n      0x00\n        /* \"#utility.yul\":1863:1865   */\n      0x20\n        /* \"#utility.yul\":1851:1860   */\n      dup3\n        /* \"#utility.yul\":1842:1849   */\n      dup5\n        /* \"#utility.yul\":1838:1861   */\n      sub\n        /* \"#utility.yul\":1834:1866   */\n      slt\n        /* \"#utility.yul\":1831:1950   */\n      iszero\n      tag_54\n      jumpi\n        /* \"#utility.yul\":1869:1948   */\n      tag_55\n      tag_24\n      jump\t// in\n    tag_55:\n        /* \"#utility.yul\":1831:1950   */\n    tag_54:\n        /* \"#utility.yul\":1989:1990   */\n      0x00\n        /* \"#utility.yul\":2014:2078   */\n      tag_56\n        /* \"#utility.yul\":2070:2077   */\n      dup5\n        /* \"#utility.yul\":2061:2067   */\n      dup3\n        /* \"#utility.yul\":2050:2059   */\n      dup6\n        /* \"#utility.yul\":2046:2068   */\n      add\n        /* \"#utility.yul\":2014:2078   */\n      tag_28\n      jump\t// in\n    tag_56:\n        /* \"#utility.yul\":2004:2078   */\n      swap2\n      pop\n        /* \"#utility.yul\":1960:2088   */\n      pop\n        /* \"#utility.yul\":1744:2095   */\n      swap3\n      swap2\n      pop\n      pop\n      jump\t// out\n\n    auxdata: 0xa2646970667358221220aede234920dec69924bd4e36414230bc0d78acaf7fea21392f7a533944d80fb564736f6c634300081a0033\n}\n",
				"bytecode": {
					"linkReferences": {},
					"object": "608060405234801561000f575f80fd5b50604051610358380380610358833981810160405281019061003191906100d4565b805f806101000a81548173ffffffffffffffffffffffffffffffffffffffff021916908373ffffffffffffffffffffffffffffffffffffffff160217905550506100ff565b5f80fd5b5f73ffffffffffffffffffffffffffffffffffffffff82169050919050565b5f6100a38261007a565b9050919050565b6100b381610099565b81146100bd575f80fd5b50565b5f815190506100ce816100aa565b92915050565b5f602082840312156100e9576100e8610076565b5b5f6100f6848285016100c0565b91505092915050565b61024c8061010c5f395ff3fe608060405260043610610028575f3560e01c806337a7b7d81461002c5780639fbaf13114610056575b5f80fd5b348015610037575f80fd5b50610040610060565b60405161004d919061019b565b60405180910390f35b61005e610083565b005b5f8054906101000a900473ffffffffffffffffffffffffffffffffffffffff1681565b5f341161008e575f80fd5b5f805f9054906101000a900473ffffffffffffffffffffffffffffffffffffffff1673ffffffffffffffffffffffffffffffffffffffff1663a3e6ba946040518163ffffffff1660e01b8152600401602060405180830381865afa1580156100f8573d5f803e3d5ffd5b505050506040513d601f19601f8201168201806040525081019061011c91906101eb565b905050565b5f73ffffffffffffffffffffffffffffffffffffffff82169050919050565b5f819050919050565b5f61016361015e61015984610121565b610140565b610121565b9050919050565b5f61017482610149565b9050919050565b5f6101858261016a565b9050919050565b6101958161017b565b82525050565b5f6020820190506101ae5f83018461018c565b92915050565b5f80fd5b5f819050919050565b6101ca816101b8565b81146101d4575f80fd5b50565b5f815190506101e5816101c1565b92915050565b5f60208284031215610200576101ff6101b4565b5b5f61020d848285016101d7565b9150509291505056fea2646970667358221220aede234920dec69924bd4e36414230bc0d78acaf7fea21392f7a533944d80fb564736f6c634300081a0033",
					"opcodes": "PUSH1 0x80 PUSH1 0x40 MSTORE CALLVALUE DUP1 ISZERO PUSH2 0xF JUMPI PUSH0 DUP1 REVERT JUMPDEST POP PUSH1 0x40 MLOAD PUSH2 0x358 CODESIZE SUB DUP1 PUSH2 0x358 DUP4 CODECOPY DUP2 DUP2 ADD PUSH1 0x40 MSTORE DUP2 ADD SWAP1 PUSH2 0x31 SWAP2 SWAP1 PUSH2 0xD4 JUMP JUMPDEST DUP1 PUSH0 DUP1 PUSH2 0x100 EXP DUP2 SLOAD DUP2 PUSH20 0xFFFFFFFFFFFFFFFFFFFFFFFFFFFFFFFFFFFFFFFF MUL NOT AND SWAP1 DUP4 PUSH20 0xFFFFFFFFFFFFFFFFFFFFFFFFFFFFFFFFFFFFFFFF AND MUL OR SWAP1 SSTORE POP POP PUSH2 0xFF JUMP JUMPDEST PUSH0 DUP1 REVERT JUMPDEST PUSH0 PUSH20 0xFFFFFFFFFFFFFFFFFFFFFFFFFFFFFFFFFFFFFFFF DUP3 AND SWAP1 POP SWAP2 SWAP1 POP JUMP JUMPDEST PUSH0 PUSH2 0xA3 DUP3 PUSH2 0x7A JUMP JUMPDEST SWAP1 POP SWAP2 SWAP1 POP JUMP JUMPDEST PUSH2 0xB3 DUP2 PUSH2 0x99 JUMP JUMPDEST DUP2 EQ PUSH2 0xBD JUMPI PUSH0 DUP1 REVERT JUMPDEST POP JUMP JUMPDEST PUSH0 DUP2 MLOAD SWAP1 POP PUSH2 0xCE DUP2 PUSH2 0xAA JUMP JUMPDEST SWAP3 SWAP2 POP POP JUMP JUMPDEST PUSH0 PUSH1 0x20 DUP3 DUP5 SUB SLT ISZERO PUSH2 0xE9 JUMPI PUSH2 0xE8 PUSH2 0x76 JUMP JUMPDEST JUMPDEST PUSH0 PUSH2 0xF6 DUP5 DUP3 DUP6 ADD PUSH2 0xC0 JUMP JUMPDEST SWAP2 POP POP SWAP3 SWAP2 POP POP JUMP JUMPDEST PUSH2 0x24C DUP1 PUSH2 0x10C PUSH0 CODECOPY PUSH0 RETURN INVALID PUSH1 0x80 PUSH1 0x40 MSTORE PUSH1 0x4 CALLDATASIZE LT PUSH2 0x28 JUMPI PUSH0 CALLDATALOAD PUSH1 0xE0 SHR DUP1 PUSH4 0x37A7B7D8 EQ PUSH2 0x2C JUMPI DUP1 PUSH4 0x9FBAF131 EQ PUSH2 0x56 JUMPI JUMPDEST PUSH0 DUP1 REVERT JUMPDEST CALLVALUE DUP1 ISZERO PUSH2 0x37 JUMPI PUSH0 DUP1 REVERT JUMPDEST POP PUSH2 0x40 PUSH2 0x60 JUMP JUMPDEST PUSH1 0x40 MLOAD PUSH2 0x4D SWAP2 SWAP1 PUSH2 0x19B JUMP JUMPDEST PUSH1 0x40 MLOAD DUP1 SWAP2 SUB SWAP1 RETURN JUMPDEST PUSH2 0x5E PUSH2 0x83 JUMP JUMPDEST STOP JUMPDEST PUSH0 DUP1 SLOAD SWAP1 PUSH2 0x100 EXP SWAP1 DIV PUSH20 0xFFFFFFFFFFFFFFFFFFFFFFFFFFFFFFFFFFFFFFFF AND DUP2 JUMP JUMPDEST PUSH0 CALLVALUE GT PUSH2 0x8E JUMPI PUSH0 DUP1 REVERT JUMPDEST PUSH0 DUP1 PUSH0 SWAP1 SLOAD SWAP1 PUSH2 0x100 EXP SWAP1 DIV PUSH20 0xFFFFFFFFFFFFFFFFFFFFFFFFFFFFFFFFFFFFFFFF AND PUSH20 0xFFFFFFFFFFFFFFFFFFFFFFFFFFFFFFFFFFFFFFFF AND PUSH4 0xA3E6BA94 PUSH1 0x40 MLOAD DUP2 PUSH4 0xFFFFFFFF AND PUSH1 0xE0 SHL DUP2 MSTORE PUSH1 0x4 ADD PUSH1 0x20 PUSH1 0x40 MLOAD DUP1 DUP4 SUB DUP2 DUP7 GAS STATICCALL ISZERO DUP1 ISZERO PUSH2 0xF8 JUMPI RETURNDATASIZE PUSH0 DUP1 RETURNDATACOPY RETURNDATASIZE PUSH0 REVERT JUMPDEST POP POP POP POP PUSH1 0x40 MLOAD RETURNDATASIZE PUSH1 0x1F NOT PUSH1 0x1F DUP3 ADD AND DUP3 ADD DUP1 PUSH1 0x40 MSTORE POP DUP2 ADD SWAP1 PUSH2 0x11C SWAP2 SWAP1 PUSH2 0x1EB JUMP JUMPDEST SWAP1 POP POP JUMP JUMPDEST PUSH0 PUSH20 0xFFFFFFFFFFFFFFFFFFFFFFFFFFFFFFFFFFFFFFFF DUP3 AND SWAP1 POP SWAP2 SWAP1 POP JUMP JUMPDEST PUSH0 DUP2 SWAP1 POP SWAP2 SWAP1 POP JUMP JUMPDEST PUSH0 PUSH2 0x163 PUSH2 0x15E PUSH2 0x159 DUP5 PUSH2 0x121 JUMP JUMPDEST PUSH2 0x140 JUMP JUMPDEST PUSH2 0x121 JUMP JUMPDEST SWAP1 POP SWAP2 SWAP1 POP JUMP JUMPDEST PUSH0 PUSH2 0x174 DUP3 PUSH2 0x149 JUMP JUMPDEST SWAP1 POP SWAP2 SWAP1 POP JUMP JUMPDEST PUSH0 PUSH2 0x185 DUP3 PUSH2 0x16A JUMP JUMPDEST SWAP1 POP SWAP2 SWAP1 POP JUMP JUMPDEST PUSH2 0x195 DUP2 PUSH2 0x17B JUMP JUMPDEST DUP3 MSTORE POP POP JUMP JUMPDEST PUSH0 PUSH1 0x20 DUP3 ADD SWAP1 POP PUSH2 0x1AE PUSH0 DUP4 ADD DUP5 PUSH2 0x18C JUMP JUMPDEST SWAP3 SWAP2 POP POP JUMP JUMPDEST PUSH0 DUP1 REVERT JUMPDEST PUSH0 DUP2 SWAP1 POP SWAP2 SWAP1 POP JUMP JUMPDEST PUSH2 0x1CA DUP2 PUSH2 0x1B8 JUMP JUMPDEST DUP2 EQ PUSH2 0x1D4 JUMPI PUSH0 DUP1 REVERT JUMPDEST POP JUMP JUMPDEST PUSH0 DUP2 MLOAD SWAP1 POP PUSH2 0x1E5 DUP2 PUSH2 0x1C1 JUMP JUMPDEST SWAP3 SWAP2 POP POP JUMP JUMPDEST PUSH0 PUSH1 0x20 DUP3 DUP5 SUB SLT ISZERO PUSH2 0x200 JUMPI PUSH2 0x1FF PUSH2 0x1B4 JUMP JUMPDEST JUMPDEST PUSH0 PUSH2 0x20D DUP5 DUP3 DUP6 ADD PUSH2 0x1D7 JUMP JUMPDEST SWAP2 POP POP SWAP3 SWAP2 POP POP JUMP INVALID LOG2 PUSH5 0x6970667358 0x22 SLT KECCAK256 0xAE 0xDE 0x23 BLOBHASH KECCAK256 0xDE 0xC6 SWAP10 0x24 0xBD 0x4E CALLDATASIZE COINBASE TIMESTAMP ADDRESS 0xBC 0xD PUSH25 0xACAF7FEA21392F7A533944D80FB564736F6C634300081A0033 "
				},
				"gasEstimates": {
					"creation": {
						"codeDepositCost": "117600",
						"executionCost": "infinite",
						"totalCost": "infinite"
					},
					"external": {
						"buyAsset()": "infinite",
						"feed()": "infinite"
					}
				},
				"methodIdentifiers": {
					"buyAsset()": "9fbaf131",
					"feed()": "37a7b7d8"
				}
			},
			"storageLayout": {
				"storage": [
					{
						"astId": 10,
						"contract": "J/Jitter/Attack Scenario (Oracle Jitter).sol:OracleJitterExploit",
						"label": "feed",
						"offset": 0,
						"slot": "0",
						"type": "t_contract(PriceFeed)7"
					}
				],
				"types": {
					"t_contract(PriceFeed)7": {
						"encoding": "inplace",
						"label": "contract PriceFeed",
						"numberOfBytes": "20"
					}
				}
			},
			"userdoc": {
				"kind": "user",
				"methods": {},
				"version": 1
			}
		}
	}
}