{
	"data": {
		"bytecode": {
			"linkReferences": {},
			"object": "6080604052348015600e575f80fd5b503360025f6101000a81548173ffffffffffffffffffffffffffffffffffffffff021916908373ffffffffffffffffffffffffffffffffffffffff1602179055506105ca8061005c5f395ff3fe608060405234801561000f575f80fd5b506004361061003f575f3560e01c80634c724202146100435780634eb6a3b21461005f5780638da5cb5b1461008f575b5f80fd5b61005d600480360381019061005891906103da565b6100ad565b005b61007960048036038101906100749190610418565b61022d565b60405161008691906104b6565b60405180910390f35b610097610249565b6040516100a4919061050e565b60405180910390f35b60025f9054906101000a900473ffffffffffffffffffffffffffffffffffffffff1673ffffffffffffffffffffffffffffffffffffffff163373ffffffffffffffffffffffffffffffffffffffff1614610133576040517f6f4512ab00000000000000000000000000000000000000000000000000000000815260040160405180910390fd5b60015f8381526020019081526020015f205f9054906101000a900460ff1615610188576040517f4b0a8bd700000000000000000000000000000000000000000000000000000000815260040160405180910390fd5b6001805f8481526020019081526020015f205f6101000a81548160ff021916908315150217905550805f808481526020019081526020015f205f6101000a81548160ff021916908360058111156101e2576101e1610443565b5b0217905550817f209884e754c32c2339bb8ba54997288ab4435c5db0590130bf5a5a082b87b3cb826102138461026e565b60405161022192919061056d565b60405180910390a25050565b5f602052805f5260405f205f915054906101000a900460ff1681565b60025f9054906101000a900473ffffffffffffffffffffffffffffffffffffffff1681565b5f80600581111561028257610281610443565b5b82600581111561029557610294610443565b5b036102a2575f905061037b565b600160058111156102b6576102b5610443565b5b8260058111156102c9576102c8610443565b5b036102d7576001905061037b565b600260058111156102eb576102ea610443565b5b8260058111156102fe576102fd610443565b5b0361030c576001905061037b565b600360058111156103205761031f610443565b5b82600581111561033357610332610443565b5b03610341576002905061037b565b6004600581111561035557610354610443565b5b82600581111561036857610367610443565b5b03610376576002905061037b565b600490505b919050565b5f80fd5b5f819050919050565b61039681610384565b81146103a0575f80fd5b50565b5f813590506103b18161038d565b92915050565b600681106103c3575f80fd5b50565b5f813590506103d4816103b7565b92915050565b5f80604083850312156103f0576103ef610380565b5b5f6103fd858286016103a3565b925050602061040e858286016103c6565b9150509250929050565b5f6020828403121561042d5761042c610380565b5b5f61043a848285016103a3565b91505092915050565b7f4e487b71000000000000000000000000000000000000000000000000000000005f52602160045260245ffd5b6006811061048157610480610443565b5b50565b5f81905061049182610470565b919050565b5f6104a082610484565b9050919050565b6104b081610496565b82525050565b5f6020820190506104c95f8301846104a7565b92915050565b5f73ffffffffffffffffffffffffffffffffffffffff82169050919050565b5f6104f8826104cf565b9050919050565b610508816104ee565b82525050565b5f6020820190506105215f8301846104ff565b92915050565b6005811061053857610537610443565b5b50565b5f81905061054882610527565b919050565b5f6105578261053b565b9050919050565b6105678161054d565b82525050565b5f6040820190506105805f8301856104a7565b61058d602083018461055e565b939250505056fea2646970667358221220f9a17d4027633d65ebfed59762b276c05446108435f6617bd1ca7d59b9b1609b64736f6c634300081a0033",
			"opcodes": "PUSH1 0x80 PUSH1 0x40 MSTORE CALLVALUE DUP1 ISZERO PUSH1 0xE JUMPI PUSH0 DUP1 REVERT JUMPDEST POP CALLER PUSH1 0x2 PUSH0 PUSH2 0x100 EXP DUP2 SLOAD DUP2 PUSH20 0xFFFFFFFFFFFFFFFFFFFFFFFFFFFFFFFFFFFFFFFF MUL NOT AND SWAP1 DUP4 PUSH20 0xFFFFFFFFFFFFFFFFFFFFFFFFFFFFFFFFFFFFFFFF AND MUL OR SWAP1 SSTORE POP PUSH2 0x5CA DUP1 PUSH2 0x5C PUSH0 CODECOPY PUSH0 RETURN INVALID PUSH1 0x80 PUSH1 0x40 MSTORE CALLVALUE DUP1 ISZERO PUSH2 0xF JUMPI PUSH0 DUP1 REVERT JUMPDEST POP PUSH1 0x4 CALLDATASIZE LT PUSH2 0x3F JUMPI PUSH0 CALLDATALOAD PUSH1 0xE0 SHR DUP1 PUSH4 0x4C724202 EQ PUSH2 0x43 JUMPI DUP1 PUSH4 0x4EB6A3B2 EQ PUSH2 0x5F JUMPI DUP1 PUSH4 0x8DA5CB5B EQ PUSH2 0x8F JUMPI JUMPDEST PUSH0 DUP1 REVERT JUMPDEST PUSH2 0x5D PUSH1 0x4 DUP1 CALLDATASIZE SUB DUP2 ADD SWAP1 PUSH2 0x58 SWAP2 SWAP1 PUSH2 0x3DA JUMP JUMPDEST PUSH2 0xAD JUMP JUMPDEST STOP JUMPDEST PUSH2 0x79 PUSH1 0x4 DUP1 CALLDATASIZE SUB DUP2 ADD SWAP1 PUSH2 0x74 SWAP2 SWAP1 PUSH2 0x418 JUMP JUMPDEST PUSH2 0x22D JUMP JUMPDEST PUSH1 0x40 MLOAD PUSH2 0x86 SWAP2 SWAP1 PUSH2 0x4B6 JUMP JUMPDEST PUSH1 0x40 MLOAD DUP1 SWAP2 SUB SWAP1 RETURN JUMPDEST PUSH2 0x97 PUSH2 0x249 JUMP JUMPDEST PUSH1 0x40 MLOAD PUSH2 0xA4 SWAP2 SWAP1 PUSH2 0x50E JUMP JUMPDEST PUSH1 0x40 MLOAD DUP1 SWAP2 SUB SWAP1 RETURN JUMPDEST PUSH1 0x2 PUSH0 SWAP1 SLOAD SWAP1 PUSH2 0x100 EXP SWAP1 DIV PUSH20 0xFFFFFFFFFFFFFFFFFFFFFFFFFFFFFFFFFFFFFFFF AND PUSH20 0xFFFFFFFFFFFFFFFFFFFFFFFFFFFFFFFFFFFFFFFF AND CALLER PUSH20 0xFFFFFFFFFFFFFFFFFFFFFFFFFFFFFFFFFFFFFFFF AND EQ PUSH2 0x133 JUMPI PUSH1 0x40 MLOAD PUSH32 0x6F4512AB00000000000000000000000000000000000000000000000000000000 DUP2 MSTORE PUSH1 0x4 ADD PUSH1 0x40 MLOAD DUP1 SWAP2 SUB SWAP1 REVERT JUMPDEST PUSH1 0x1 PUSH0 DUP4 DUP2 MSTORE PUSH1 0x20 ADD SWAP1 DUP2 MSTORE PUSH1 0x20 ADD PUSH0 KECCAK256 PUSH0 SWAP1 SLOAD SWAP1 PUSH2 0x100 EXP SWAP1 DIV PUSH1 0xFF AND ISZERO PUSH2 0x188 JUMPI PUSH1 0x40 MLOAD PUSH32 0x4B0A8BD700000000000000000000000000000000000000000000000000000000 DUP2 MSTORE PUSH1 0x4 ADD PUSH1 0x40 MLOAD DUP1 SWAP2 SUB SWAP1 REVERT JUMPDEST PUSH1 0x1 DUP1 PUSH0 DUP5 DUP2 MSTORE PUSH1 0x20 ADD SWAP1 DUP2 MSTORE PUSH1 0x20 ADD PUSH0 KECCAK256 PUSH0 PUSH2 0x100 EXP DUP2 SLOAD DUP2 PUSH1 0xFF MUL NOT AND SWAP1 DUP4 ISZERO ISZERO MUL OR SWAP1 SSTORE POP DUP1 PUSH0 DUP1 DUP5 DUP2 MSTORE PUSH1 0x20 ADD SWAP1 DUP2 MSTORE PUSH1 0x20 ADD PUSH0 KECCAK256 PUSH0 PUSH2 0x100 EXP DUP2 SLOAD DUP2 PUSH1 0xFF MUL NOT AND SWAP1 DUP4 PUSH1 0x5 DUP2 GT ISZERO PUSH2 0x1E2 JUMPI PUSH2 0x1E1 PUSH2 0x443 JUMP JUMPDEST JUMPDEST MUL OR SWAP1 SSTORE POP DUP2 PUSH32 0x209884E754C32C2339BB8BA54997288AB4435C5DB0590130BF5A5A082B87B3CB DUP3 PUSH2 0x213 DUP5 PUSH2 0x26E JUMP JUMPDEST PUSH1 0x40 MLOAD PUSH2 0x221 SWAP3 SWAP2 SWAP1 PUSH2 0x56D JUMP JUMPDEST PUSH1 0x40 MLOAD DUP1 SWAP2 SUB SWAP1 LOG2 POP POP JUMP JUMPDEST PUSH0 PUSH1 0x20 MSTORE DUP1 PUSH0 MSTORE PUSH1 0x40 PUSH0 KECCAK256 PUSH0 SWAP2 POP SLOAD SWAP1 PUSH2 0x100 EXP SWAP1 DIV PUSH1 0xFF AND DUP2 JUMP JUMPDEST PUSH1 0x2 PUSH0 SWAP1 SLOAD SWAP1 PUSH2 0x100 EXP SWAP1 DIV PUSH20 0xFFFFFFFFFFFFFFFFFFFFFFFFFFFFFFFFFFFFFFFF AND DUP2 JUMP JUMPDEST PUSH0 DUP1 PUSH1 0x5 DUP2 GT ISZERO PUSH2 0x282 JUMPI PUSH2 0x281 PUSH2 0x443 JUMP JUMPDEST JUMPDEST DUP3 PUSH1 0x5 DUP2 GT ISZERO PUSH2 0x295 JUMPI PUSH2 0x294 PUSH2 0x443 JUMP JUMPDEST JUMPDEST SUB PUSH2 0x2A2 JUMPI PUSH0 SWAP1 POP PUSH2 0x37B JUMP JUMPDEST PUSH1 0x1 PUSH1 0x5 DUP2 GT ISZERO PUSH2 0x2B6 JUMPI PUSH2 0x2B5 PUSH2 0x443 JUMP JUMPDEST JUMPDEST DUP3 PUSH1 0x5 DUP2 GT ISZERO PUSH2 0x2C9 JUMPI PUSH2 0x2C8 PUSH2 0x443 JUMP JUMPDEST JUMPDEST SUB PUSH2 0x2D7 JUMPI PUSH1 0x1 SWAP1 POP PUSH2 0x37B JUMP JUMPDEST PUSH1 0x2 PUSH1 0x5 DUP2 GT ISZERO PUSH2 0x2EB JUMPI PUSH2 0x2EA PUSH2 0x443 JUMP JUMPDEST JUMPDEST DUP3 PUSH1 0x5 DUP2 GT ISZERO PUSH2 0x2FE JUMPI PUSH2 0x2FD PUSH2 0x443 JUMP JUMPDEST JUMPDEST SUB PUSH2 0x30C JUMPI PUSH1 0x1 SWAP1 POP PUSH2 0x37B JUMP JUMPDEST PUSH1 0x3 PUSH1 0x5 DUP2 GT ISZERO PUSH2 0x320 JUMPI PUSH2 0x31F PUSH2 0x443 JUMP JUMPDEST JUMPDEST DUP3 PUSH1 0x5 DUP2 GT ISZERO PUSH2 0x333 JUMPI PUSH2 0x332 PUSH2 0x443 JUMP JUMPDEST JUMPDEST SUB PUSH2 0x341 JUMPI PUSH1 0x2 SWAP1 POP PUSH2 0x37B JUMP JUMPDEST PUSH1 0x4 PUSH1 0x5 DUP2 GT ISZERO PUSH2 0x355 JUMPI PUSH2 0x354 PUSH2 0x443 JUMP JUMPDEST JUMPDEST DUP3 PUSH1 0x5 DUP2 GT ISZERO PUSH2 0x368 JUMPI PUSH2 0x367 PUSH2 0x443 JUMP JUMPDEST JUMPDEST SUB PUSH2 0x376 JUMPI PUSH1 0x2 SWAP1 POP PUSH2 0x37B JUMP JUMPDEST PUSH1 0x4 SWAP1 POP JUMPDEST SWAP2 SWAP1 POP JUMP JUMPDEST PUSH0 DUP1 REVERT JUMPDEST PUSH0 DUP2 SWAP1 POP SWAP2 SWAP1 POP JUMP JUMPDEST PUSH2 0x396 DUP2 PUSH2 0x384 JUMP JUMPDEST DUP2 EQ PUSH2 0x3A0 JUMPI PUSH0 DUP1 REVERT JUMPDEST POP JUMP JUMPDEST PUSH0 DUP2 CALLDATALOAD SWAP1 POP PUSH2 0x3B1 DUP2 PUSH2 0x38D JUMP JUMPDEST SWAP3 SWAP2 POP POP JUMP JUMPDEST PUSH1 0x6 DUP2 LT PUSH2 0x3C3 JUMPI PUSH0 DUP1 REVERT JUMPDEST POP JUMP JUMPDEST PUSH0 DUP2 CALLDATALOAD SWAP1 POP PUSH2 0x3D4 DUP2 PUSH2 0x3B7 JUMP JUMPDEST SWAP3 SWAP2 POP POP JUMP JUMPDEST PUSH0 DUP1 PUSH1 0x40 DUP4 DUP6 SUB SLT ISZERO PUSH2 0x3F0 JUMPI PUSH2 0x3EF PUSH2 0x380 JUMP JUMPDEST JUMPDEST PUSH0 PUSH2 0x3FD DUP6 DUP3 DUP7 ADD PUSH2 0x3A3 JUMP JUMPDEST SWAP3 POP POP PUSH1 0x20 PUSH2 0x40E DUP6 DUP3 DUP7 ADD PUSH2 0x3C6 JUMP JUMPDEST SWAP2 POP POP SWAP3 POP SWAP3 SWAP1 POP JUMP JUMPDEST PUSH0 PUSH1 0x20 DUP3 DUP5 SUB SLT ISZERO PUSH2 0x42D JUMPI PUSH2 0x42C PUSH2 0x380 JUMP JUMPDEST JUMPDEST PUSH0 PUSH2 0x43A DUP5 DUP3 DUP6 ADD PUSH2 0x3A3 JUMP JUMPDEST SWAP2 POP POP SWAP3 SWAP2 POP POP JUMP JUMPDEST PUSH32 0x4E487B7100000000000000000000000000000000000000000000000000000000 PUSH0 MSTORE PUSH1 0x21 PUSH1 0x4 MSTORE PUSH1 0x24 PUSH0 REVERT JUMPDEST PUSH1 0x6 DUP2 LT PUSH2 0x481 JUMPI PUSH2 0x480 PUSH2 0x443 JUMP JUMPDEST JUMPDEST POP JUMP JUMPDEST PUSH0 DUP2 SWAP1 POP PUSH2 0x491 DUP3 PUSH2 0x470 JUMP JUMPDEST SWAP2 SWAP1 POP JUMP JUMPDEST PUSH0 PUSH2 0x4A0 DUP3 PUSH2 0x484 JUMP JUMPDEST SWAP1 POP SWAP2 SWAP1 POP JUMP JUMPDEST PUSH2 0x4B0 DUP2 PUSH2 0x496 JUMP JUMPDEST DUP3 MSTORE POP POP JUMP JUMPDEST PUSH0 PUSH1 0x20 DUP3 ADD SWAP1 POP PUSH2 0x4C9 PUSH0 DUP4 ADD DUP5 PUSH2 0x4A7 JUMP JUMPDEST SWAP3 SWAP2 POP POP JUMP JUMPDEST PUSH0 PUSH20 0xFFFFFFFFFFFFFFFFFFFFFFFFFFFFFFFFFFFFFFFF DUP3 AND SWAP1 POP SWAP2 SWAP1 POP JUMP JUMPDEST PUSH0 PUSH2 0x4F8 DUP3 PUSH2 0x4CF JUMP JUMPDEST SWAP1 POP SWAP2 SWAP1 POP JUMP JUMPDEST PUSH2 0x508 DUP2 PUSH2 0x4EE JUMP JUMPDEST DUP3 MSTORE POP POP JUMP JUMPDEST PUSH0 PUSH1 0x20 DUP3 ADD SWAP1 POP PUSH2 0x521 PUSH0 DUP4 ADD DUP5 PUSH2 0x4FF JUMP JUMPDEST SWAP3 SWAP2 POP POP JUMP JUMPDEST PUSH1 0x5 DUP2 LT PUSH2 0x538 JUMPI PUSH2 0x537 PUSH2 0x443 JUMP JUMPDEST JUMPDEST POP JUMP JUMPDEST PUSH0 DUP2 SWAP1 POP PUSH2 0x548 DUP3 PUSH2 0x527 JUMP JUMPDEST SWAP2 SWAP1 POP JUMP JUMPDEST PUSH0 PUSH2 0x557 DUP3 PUSH2 0x53B JUMP JUMPDEST SWAP1 POP SWAP2 SWAP1 POP JUMP JUMPDEST PUSH2 0x567 DUP2 PUSH2 0x54D JUMP JUMPDEST DUP3 MSTORE POP POP JUMP JUMPDEST PUSH0 PUSH1 0x40 DUP3 ADD SWAP1 POP PUSH2 0x580 PUSH0 DUP4 ADD DUP6 PUSH2 0x4A7 JUMP JUMPDEST PUSH2 0x58D PUSH1 0x20 DUP4 ADD DUP5 PUSH2 0x55E JUMP JUMPDEST SWAP4 SWAP3 POP POP POP JUMP INVALID LOG2 PUSH5 0x6970667358 0x22 SLT KECCAK256 0xF9 LOG1 PUSH30 0x4027633D65EBFED59762B276C05446108435F6617BD1CA7D59B9B1609B64 PUSH20 0x6F6C634300081A00330000000000000000000000 "
		},
		"gasEstimates": {
			"creation": {
				"codeDepositCost": "296400",
				"executionCost": "24600",
				"totalCost": "321000"
			},
			"external": {
				"assessments(uint256)": "2872",
				"owner()": "2530",
				"setAssessment(uint256,uint8)": "56152"
			},
			"internal": {
				"_defenseForType(enum CyberSecurityRiskAssessmentType)": "413"
			}
		},
		"methodIdentifiers": {
			"assessments(uint256)": "4eb6a3b2",
			"owner()": "8da5cb5b",
			"setAssessment(uint256,uint8)": "4c724202"
		}
	},
	"abi": [
		{
			"inputs": [],
			"stateMutability": "nonpayable",
			"type": "constructor"
		},
		{
			"inputs": [],
			"name": "CSRA__AlreadySet",
			"type": "error"
		},
		{
			"inputs": [],
			"name": "CSRA__NotOwner",
			"type": "error"
		},
		{
			"anonymous": false,
			"inputs": [
				{
					"indexed": true,
					"internalType": "uint256",
					"name": "id",
					"type": "uint256"
				},
				{
					"indexed": false,
					"internalType": "enum CyberSecurityRiskAssessmentType",
					"name": "t",
					"type": "uint8"
				},
				{
					"indexed": false,
					"internalType": "enum CyberSecurityRiskAssessmentDefenseType",
					"name": "defense",
					"type": "uint8"
				}
			],
			"name": "AssessmentLogged",
			"type": "event"
		},
		{
			"inputs": [
				{
					"internalType": "uint256",
					"name": "",
					"type": "uint256"
				}
			],
			"name": "assessments",
			"outputs": [
				{
					"internalType": "enum CyberSecurityRiskAssessmentType",
					"name": "",
					"type": "uint8"
				}
			],
			"stateMutability": "view",
			"type": "function"
		},
		{
			"inputs": [],
			"name": "owner",
			"outputs": [
				{
					"internalType": "address",
					"name": "",
					"type": "address"
				}
			],
			"stateMutability": "view",
			"type": "function"
		},
		{
			"inputs": [
				{
					"internalType": "uint256",
					"name": "id",
					"type": "uint256"
				},
				{
					"internalType": "enum CyberSecurityRiskAssessmentType",
					"name": "t",
					"type": "uint8"
				}
			],
			"name": "setAssessment",
			"outputs": [],
			"stateMutability": "nonpayable",
			"type": "function"
		}
	]
}