{
	"data": {
		"bytecode": {
			"linkReferences": {},
			"object": "608060405234801561000f575f80fd5b50604051610426380380610426833981810160405281019061003191906101b0565b806040516020016100429190610249565b604051602081830303815290604052805190602001205f8190555050610269565b5f604051905090565b5f80fd5b5f80fd5b5f80fd5b5f80fd5b5f601f19601f8301169050919050565b7f4e487b71000000000000000000000000000000000000000000000000000000005f52604160045260245ffd5b6100c28261007c565b810181811067ffffffffffffffff821117156100e1576100e061008c565b5b80604052505050565b5f6100f3610063565b90506100ff82826100b9565b919050565b5f67ffffffffffffffff82111561011e5761011d61008c565b5b6101278261007c565b9050602081019050919050565b8281835e5f83830152505050565b5f61015461014f84610104565b6100ea565b9050828152602081018484840111156101705761016f610078565b5b61017b848285610134565b509392505050565b5f82601f83011261019757610196610074565b5b81516101a7848260208601610142565b91505092915050565b5f602082840312156101c5576101c461006c565b5b5f82015167ffffffffffffffff8111156101e2576101e1610070565b5b6101ee84828501610183565b91505092915050565b5f81519050919050565b5f82825260208201905092915050565b5f61021b826101f7565b6102258185610201565b9350610235818560208601610134565b61023e8161007c565b840191505092915050565b5f6020820190508181035f8301526102618184610211565b905092915050565b6101b0806102765f395ff3fe608060405234801561000f575f80fd5b5060043610610034575f3560e01c8063399e079214610038578063fcf8fc3514610068575b5f80fd5b610052600480360381019061004d91906100f4565b610086565b60405161005f9190610139565b60405180910390f35b6100706100b8565b60405161007d9190610161565b60405180910390f35b5f80548260405160200161009a9190610161565b60405160208183030381529060405280519060200120149050919050565b5f5481565b5f80fd5b5f819050919050565b6100d3816100c1565b81146100dd575f80fd5b50565b5f813590506100ee816100ca565b92915050565b5f60208284031215610109576101086100bd565b5b5f610116848285016100e0565b91505092915050565b5f8115159050919050565b6101338161011f565b82525050565b5f60208201905061014c5f83018461012a565b92915050565b61015b816100c1565b82525050565b5f6020820190506101745f830184610152565b9291505056fea2646970667358221220faa38c5ef6755a26a342fddcf3629efa34d5c3e697b094168091fa954da6b13164736f6c634300081a0033",
			"opcodes": "PUSH1 0x80 PUSH1 0x40 MSTORE CALLVALUE DUP1 ISZERO PUSH2 0xF JUMPI PUSH0 DUP1 REVERT JUMPDEST POP PUSH1 0x40 MLOAD PUSH2 0x426 CODESIZE SUB DUP1 PUSH2 0x426 DUP4 CODECOPY DUP2 DUP2 ADD PUSH1 0x40 MSTORE DUP2 ADD SWAP1 PUSH2 0x31 SWAP2 SWAP1 PUSH2 0x1B0 JUMP JUMPDEST DUP1 PUSH1 0x40 MLOAD PUSH1 0x20 ADD PUSH2 0x42 SWAP2 SWAP1 PUSH2 0x249 JUMP JUMPDEST PUSH1 0x40 MLOAD PUSH1 0x20 DUP2 DUP4 SUB SUB DUP2 MSTORE SWAP1 PUSH1 0x40 MSTORE DUP1 MLOAD SWAP1 PUSH1 0x20 ADD KECCAK256 PUSH0 DUP2 SWAP1 SSTORE POP POP PUSH2 0x269 JUMP JUMPDEST PUSH0 PUSH1 0x40 MLOAD SWAP1 POP SWAP1 JUMP JUMPDEST PUSH0 DUP1 REVERT JUMPDEST PUSH0 DUP1 REVERT JUMPDEST PUSH0 DUP1 REVERT JUMPDEST PUSH0 DUP1 REVERT JUMPDEST PUSH0 PUSH1 0x1F NOT PUSH1 0x1F DUP4 ADD AND SWAP1 POP SWAP2 SWAP1 POP JUMP JUMPDEST PUSH32 0x4E487B7100000000000000000000000000000000000000000000000000000000 PUSH0 MSTORE PUSH1 0x41 PUSH1 0x4 MSTORE PUSH1 0x24 PUSH0 REVERT JUMPDEST PUSH2 0xC2 DUP3 PUSH2 0x7C JUMP JUMPDEST DUP2 ADD DUP2 DUP2 LT PUSH8 0xFFFFFFFFFFFFFFFF DUP3 GT OR ISZERO PUSH2 0xE1 JUMPI PUSH2 0xE0 PUSH2 0x8C JUMP JUMPDEST JUMPDEST DUP1 PUSH1 0x40 MSTORE POP POP POP JUMP JUMPDEST PUSH0 PUSH2 0xF3 PUSH2 0x63 JUMP JUMPDEST SWAP1 POP PUSH2 0xFF DUP3 DUP3 PUSH2 0xB9 JUMP JUMPDEST SWAP2 SWAP1 POP JUMP JUMPDEST PUSH0 PUSH8 0xFFFFFFFFFFFFFFFF DUP3 GT ISZERO PUSH2 0x11E JUMPI PUSH2 0x11D PUSH2 0x8C JUMP JUMPDEST JUMPDEST PUSH2 0x127 DUP3 PUSH2 0x7C JUMP JUMPDEST SWAP1 POP PUSH1 0x20 DUP2 ADD SWAP1 POP SWAP2 SWAP1 POP JUMP JUMPDEST DUP3 DUP2 DUP4 MCOPY PUSH0 DUP4 DUP4 ADD MSTORE POP POP POP JUMP JUMPDEST PUSH0 PUSH2 0x154 PUSH2 0x14F DUP5 PUSH2 0x104 JUMP JUMPDEST PUSH2 0xEA JUMP JUMPDEST SWAP1 POP DUP3 DUP2 MSTORE PUSH1 0x20 DUP2 ADD DUP5 DUP5 DUP5 ADD GT ISZERO PUSH2 0x170 JUMPI PUSH2 0x16F PUSH2 0x78 JUMP JUMPDEST JUMPDEST PUSH2 0x17B DUP5 DUP3 DUP6 PUSH2 0x134 JUMP JUMPDEST POP SWAP4 SWAP3 POP POP POP JUMP JUMPDEST PUSH0 DUP3 PUSH1 0x1F DUP4 ADD SLT PUSH2 0x197 JUMPI PUSH2 0x196 PUSH2 0x74 JUMP JUMPDEST JUMPDEST DUP2 MLOAD PUSH2 0x1A7 DUP5 DUP3 PUSH1 0x20 DUP7 ADD PUSH2 0x142 JUMP JUMPDEST SWAP2 POP POP SWAP3 SWAP2 POP POP JUMP JUMPDEST PUSH0 PUSH1 0x20 DUP3 DUP5 SUB SLT ISZERO PUSH2 0x1C5 JUMPI PUSH2 0x1C4 PUSH2 0x6C JUMP JUMPDEST JUMPDEST PUSH0 DUP3 ADD MLOAD PUSH8 0xFFFFFFFFFFFFFFFF DUP2 GT ISZERO PUSH2 0x1E2 JUMPI PUSH2 0x1E1 PUSH2 0x70 JUMP JUMPDEST JUMPDEST PUSH2 0x1EE DUP5 DUP3 DUP6 ADD PUSH2 0x183 JUMP JUMPDEST SWAP2 POP POP SWAP3 SWAP2 POP POP JUMP JUMPDEST PUSH0 DUP2 MLOAD SWAP1 POP SWAP2 SWAP1 POP JUMP JUMPDEST PUSH0 DUP3 DUP3 MSTORE PUSH1 0x20 DUP3 ADD SWAP1 POP SWAP3 SWAP2 POP POP JUMP JUMPDEST PUSH0 PUSH2 0x21B DUP3 PUSH2 0x1F7 JUMP JUMPDEST PUSH2 0x225 DUP2 DUP6 PUSH2 0x201 JUMP JUMPDEST SWAP4 POP PUSH2 0x235 DUP2 DUP6 PUSH1 0x20 DUP7 ADD PUSH2 0x134 JUMP JUMPDEST PUSH2 0x23E DUP2 PUSH2 0x7C JUMP JUMPDEST DUP5 ADD SWAP2 POP POP SWAP3 SWAP2 POP POP JUMP JUMPDEST PUSH0 PUSH1 0x20 DUP3 ADD SWAP1 POP DUP2 DUP2 SUB PUSH0 DUP4 ADD MSTORE PUSH2 0x261 DUP2 DUP5 PUSH2 0x211 JUMP JUMPDEST SWAP1 POP SWAP3 SWAP2 POP POP JUMP JUMPDEST PUSH2 0x1B0 DUP1 PUSH2 0x276 PUSH0 CODECOPY PUSH0 RETURN INVALID PUSH1 0x80 PUSH1 0x40 MSTORE CALLVALUE DUP1 ISZERO PUSH2 0xF JUMPI PUSH0 DUP1 REVERT JUMPDEST POP PUSH1 0x4 CALLDATASIZE LT PUSH2 0x34 JUMPI PUSH0 CALLDATALOAD PUSH1 0xE0 SHR DUP1 PUSH4 0x399E0792 EQ PUSH2 0x38 JUMPI DUP1 PUSH4 0xFCF8FC35 EQ PUSH2 0x68 JUMPI JUMPDEST PUSH0 DUP1 REVERT JUMPDEST PUSH2 0x52 PUSH1 0x4 DUP1 CALLDATASIZE SUB DUP2 ADD SWAP1 PUSH2 0x4D SWAP2 SWAP1 PUSH2 0xF4 JUMP JUMPDEST PUSH2 0x86 JUMP JUMPDEST PUSH1 0x40 MLOAD PUSH2 0x5F SWAP2 SWAP1 PUSH2 0x139 JUMP JUMPDEST PUSH1 0x40 MLOAD DUP1 SWAP2 SUB SWAP1 RETURN JUMPDEST PUSH2 0x70 PUSH2 0xB8 JUMP JUMPDEST PUSH1 0x40 MLOAD PUSH2 0x7D SWAP2 SWAP1 PUSH2 0x161 JUMP JUMPDEST PUSH1 0x40 MLOAD DUP1 SWAP2 SUB SWAP1 RETURN JUMPDEST PUSH0 DUP1 SLOAD DUP3 PUSH1 0x40 MLOAD PUSH1 0x20 ADD PUSH2 0x9A SWAP2 SWAP1 PUSH2 0x161 JUMP JUMPDEST PUSH1 0x40 MLOAD PUSH1 0x20 DUP2 DUP4 SUB SUB DUP2 MSTORE SWAP1 PUSH1 0x40 MSTORE DUP1 MLOAD SWAP1 PUSH1 0x20 ADD KECCAK256 EQ SWAP1 POP SWAP2 SWAP1 POP JUMP JUMPDEST PUSH0 SLOAD DUP2 JUMP JUMPDEST PUSH0 DUP1 REVERT JUMPDEST PUSH0 DUP2 SWAP1 POP SWAP2 SWAP1 POP JUMP JUMPDEST PUSH2 0xD3 DUP2 PUSH2 0xC1 JUMP JUMPDEST DUP2 EQ PUSH2 0xDD JUMPI PUSH0 DUP1 REVERT JUMPDEST POP JUMP JUMPDEST PUSH0 DUP2 CALLDATALOAD SWAP1 POP PUSH2 0xEE DUP2 PUSH2 0xCA JUMP JUMPDEST SWAP3 SWAP2 POP POP JUMP JUMPDEST PUSH0 PUSH1 0x20 DUP3 DUP5 SUB SLT ISZERO PUSH2 0x109 JUMPI PUSH2 0x108 PUSH2 0xBD JUMP JUMPDEST JUMPDEST PUSH0 PUSH2 0x116 DUP5 DUP3 DUP6 ADD PUSH2 0xE0 JUMP JUMPDEST SWAP2 POP POP SWAP3 SWAP2 POP POP JUMP JUMPDEST PUSH0 DUP2 ISZERO ISZERO SWAP1 POP SWAP2 SWAP1 POP JUMP JUMPDEST PUSH2 0x133 DUP2 PUSH2 0x11F JUMP JUMPDEST DUP3 MSTORE POP POP JUMP JUMPDEST PUSH0 PUSH1 0x20 DUP3 ADD SWAP1 POP PUSH2 0x14C PUSH0 DUP4 ADD DUP5 PUSH2 0x12A JUMP JUMPDEST SWAP3 SWAP2 POP POP JUMP JUMPDEST PUSH2 0x15B DUP2 PUSH2 0xC1 JUMP JUMPDEST DUP3 MSTORE POP POP JUMP JUMPDEST PUSH0 PUSH1 0x20 DUP3 ADD SWAP1 POP PUSH2 0x174 PUSH0 DUP4 ADD DUP5 PUSH2 0x152 JUMP JUMPDEST SWAP3 SWAP2 POP POP JUMP INVALID LOG2 PUSH5 0x6970667358 0x22 SLT KECCAK256 STATICCALL LOG3 DUP13 MCOPY 0xF6 PUSH22 0x5A26A342FDDCF3629EFA34D5C3E697B094168091FA95 0x4D 0xA6 0xB1 BALANCE PUSH5 0x736F6C6343 STOP ADDMOD BYTE STOP CALLER "
		},
		"gasEstimates": {
			"creation": {
				"codeDepositCost": "86400",
				"executionCost": "infinite",
				"totalCost": "infinite"
			},
			"external": {
				"ADMIN_HASH()": "2424",
				"check(bytes32)": "infinite"
			}
		},
		"methodIdentifiers": {
			"ADMIN_HASH()": "fcf8fc35",
			"check(bytes32)": "399e0792"
		}
	},
	"abi": [
		{
			"inputs": [
				{
					"internalType": "string",
					"name": "secret",
					"type": "string"
				}
			],
			"stateMutability": "nonpayable",
			"type": "constructor"
		},
		{
			"inputs": [],
			"name": "ADMIN_HASH",
			"outputs": [
				{
					"internalType": "bytes32",
					"name": "",
					"type": "bytes32"
				}
			],
			"stateMutability": "view",
			"type": "function"
		},
		{
			"inputs": [
				{
					"internalType": "bytes32",
					"name": "input",
					"type": "bytes32"
				}
			],
			"name": "check",
			"outputs": [
				{
					"internalType": "bool",
					"name": "",
					"type": "bool"
				}
			],
			"stateMutability": "view",
			"type": "function"
		}
	]
}