{
	"D/Distributed Scans/Distributed Scans.sol": {
		"DistributedScansSafeRateLimit": {
			"abi": [
				{
					"inputs": [],
					"name": "DSN__TooManyScans",
					"type": "error"
				},
				{
					"anonymous": false,
					"inputs": [
						{
							"indexed": true,
							"internalType": "address",
							"name": "by",
							"type": "address"
						},
						{
							"indexed": true,
							"internalType": "address",
							"name": "target",
							"type": "address"
						},
						{
							"indexed": false,
							"internalType": "enum DistributedScanType",
							"name": "dtype",
							"type": "uint8"
						},
						{
							"indexed": false,
							"internalType": "enum DistributedScanDefenseType",
							"name": "defense",
							"type": "uint8"
						}
					],
					"name": "ScanPerformed",
					"type": "event"
				},
				{
					"inputs": [],
					"name": "MAX_PER_BLOCK",
					"outputs": [
						{
							"internalType": "uint256",
							"name": "",
							"type": "uint256"
						}
					],
					"stateMutability": "view",
					"type": "function"
				},
				{
					"inputs": [
						{
							"internalType": "address",
							"name": "",
							"type": "address"
						}
					],
					"name": "countInBlock",
					"outputs": [
						{
							"internalType": "uint256",
							"name": "",
							"type": "uint256"
						}
					],
					"stateMutability": "view",
					"type": "function"
				},
				{
					"inputs": [
						{
							"internalType": "address",
							"name": "",
							"type": "address"
						}
					],
					"name": "lastBlock",
					"outputs": [
						{
							"internalType": "uint256",
							"name": "",
							"type": "uint256"
						}
					],
					"stateMutability": "view",
					"type": "function"
				},
				{
					"inputs": [
						{
							"internalType": "address",
							"name": "target",
							"type": "address"
						},
						{
							"internalType": "enum DistributedScanType",
							"name": "dtype",
							"type": "uint8"
						}
					],
					"name": "scan",
					"outputs": [],
					"stateMutability": "nonpayable",
					"type": "function"
				}
			],
			"devdoc": {
				"kind": "dev",
				"methods": {},
				"version": 1
			},
			"evm": {
				"assembly": "    /* \"D/Distributed Scans/Distributed Scans.sol\":3329:4141  contract DistributedScansSafeRateLimit {... */\n  mstore(0x40, 0x80)\n  callvalue\n  dup1\n  iszero\n  tag_1\n  jumpi\n  0x00\n  dup1\n  revert\ntag_1:\n  pop\n  dataSize(sub_0)\n  dup1\n  dataOffset(sub_0)\n  0x00\n  codecopy\n  0x00\n  return\nstop\n\nsub_0: assembly {\n        /* \"D/Distributed Scans/Distributed Scans.sol\":3329:4141  contract DistributedScansSafeRateLimit {... */\n      mstore(0x40, 0x80)\n      callvalue\n      dup1\n      iszero\n      tag_1\n      jumpi\n      0x00\n      dup1\n      revert\n    tag_1:\n      pop\n      jumpi(tag_2, lt(calldatasize, 0x04))\n      shr(0xe0, calldataload(0x00))\n      dup1\n      0x0d2a95ef\n      eq\n      tag_3\n      jumpi\n      dup1\n      0x265c339a\n      eq\n      tag_4\n      jumpi\n      dup1\n      0x3e9893a6\n      eq\n      tag_5\n      jumpi\n      dup1\n      0x952ca92c\n      eq\n      tag_6\n      jumpi\n    tag_2:\n      0x00\n      dup1\n      revert\n        /* \"D/Distributed Scans/Distributed Scans.sol\":3477:3518  uint256 public constant MAX_PER_BLOCK = 5 */\n    tag_3:\n      tag_7\n      tag_8\n      jump\t// in\n    tag_7:\n      mload(0x40)\n      tag_9\n      swap2\n      swap1\n      tag_10\n      jump\t// in\n    tag_9:\n      mload(0x40)\n      dup1\n      swap2\n      sub\n      swap1\n      return\n        /* \"D/Distributed Scans/Distributed Scans.sol\":3696:4139  function scan(address target, DistributedScanType dtype) external {... */\n    tag_4:\n      tag_11\n      0x04\n      dup1\n      calldatasize\n      sub\n      dup2\n      add\n      swap1\n      tag_12\n      swap2\n      swap1\n      tag_13\n      jump\t// in\n    tag_12:\n      tag_14\n      jump\t// in\n    tag_11:\n      stop\n        /* \"D/Distributed Scans/Distributed Scans.sol\":3424:3471  mapping(address => uint256) public countInBlock */\n    tag_5:\n      tag_15\n      0x04\n      dup1\n      calldatasize\n      sub\n      dup2\n      add\n      swap1\n      tag_16\n      swap2\n      swap1\n      tag_17\n      jump\t// in\n    tag_16:\n      tag_18\n      jump\t// in\n    tag_15:\n      mload(0x40)\n      tag_19\n      swap2\n      swap1\n      tag_10\n      jump\t// in\n    tag_19:\n      mload(0x40)\n      dup1\n      swap2\n      sub\n      swap1\n      return\n        /* \"D/Distributed Scans/Distributed Scans.sol\":3374:3418  mapping(address => uint256) public lastBlock */\n    tag_6:\n      tag_20\n      0x04\n      dup1\n      calldatasize\n      sub\n      dup2\n      add\n      swap1\n      tag_21\n      swap2\n      swap1\n      tag_17\n      jump\t// in\n    tag_21:\n      tag_22\n      jump\t// in\n    tag_20:\n      mload(0x40)\n      tag_23\n      swap2\n      swap1\n      tag_10\n      jump\t// in\n    tag_23:\n      mload(0x40)\n      dup1\n      swap2\n      sub\n      swap1\n      return\n        /* \"D/Distributed Scans/Distributed Scans.sol\":3477:3518  uint256 public constant MAX_PER_BLOCK = 5 */\n    tag_8:\n        /* \"D/Distributed Scans/Distributed Scans.sol\":3517:3518  5 */\n      0x05\n        /* \"D/Distributed Scans/Distributed Scans.sol\":3477:3518  uint256 public constant MAX_PER_BLOCK = 5 */\n      dup2\n      jump\t// out\n        /* \"D/Distributed Scans/Distributed Scans.sol\":3696:4139  function scan(address target, DistributedScanType dtype) external {... */\n    tag_14:\n        /* \"D/Distributed Scans/Distributed Scans.sol\":3792:3801  lastBlock */\n      0x00\n        /* \"D/Distributed Scans/Distributed Scans.sol\":3792:3813  lastBlock[msg.sender] */\n      dup1\n        /* \"D/Distributed Scans/Distributed Scans.sol\":3802:3812  msg.sender */\n      caller\n        /* \"D/Distributed Scans/Distributed Scans.sol\":3792:3813  lastBlock[msg.sender] */\n      0xffffffffffffffffffffffffffffffffffffffff\n      and\n      0xffffffffffffffffffffffffffffffffffffffff\n      and\n      dup2\n      mstore\n      0x20\n      add\n      swap1\n      dup2\n      mstore\n      0x20\n      add\n      0x00\n      keccak256\n      sload\n        /* \"D/Distributed Scans/Distributed Scans.sol\":3776:3788  block.number */\n      number\n        /* \"D/Distributed Scans/Distributed Scans.sol\":3776:3813  block.number != lastBlock[msg.sender] */\n      eq\n        /* \"D/Distributed Scans/Distributed Scans.sol\":3772:3921  if (block.number != lastBlock[msg.sender]) {... */\n      tag_25\n      jumpi\n        /* \"D/Distributed Scans/Distributed Scans.sol\":3856:3868  block.number */\n      number\n        /* \"D/Distributed Scans/Distributed Scans.sol\":3829:3838  lastBlock */\n      0x00\n        /* \"D/Distributed Scans/Distributed Scans.sol\":3829:3850  lastBlock[msg.sender] */\n      dup1\n        /* \"D/Distributed Scans/Distributed Scans.sol\":3839:3849  msg.sender */\n      caller\n        /* \"D/Distributed Scans/Distributed Scans.sol\":3829:3850  lastBlock[msg.sender] */\n      0xffffffffffffffffffffffffffffffffffffffff\n      and\n      0xffffffffffffffffffffffffffffffffffffffff\n      and\n      dup2\n      mstore\n      0x20\n      add\n      swap1\n      dup2\n      mstore\n      0x20\n      add\n      0x00\n      keccak256\n        /* \"D/Distributed Scans/Distributed Scans.sol\":3829:3868  lastBlock[msg.sender]    = block.number */\n      dup2\n      swap1\n      sstore\n      pop\n        /* \"D/Distributed Scans/Distributed Scans.sol\":3909:3910  0 */\n      0x00\n        /* \"D/Distributed Scans/Distributed Scans.sol\":3882:3894  countInBlock */\n      0x01\n        /* \"D/Distributed Scans/Distributed Scans.sol\":3882:3906  countInBlock[msg.sender] */\n      0x00\n        /* \"D/Distributed Scans/Distributed Scans.sol\":3895:3905  msg.sender */\n      caller\n        /* \"D/Distributed Scans/Distributed Scans.sol\":3882:3906  countInBlock[msg.sender] */\n      0xffffffffffffffffffffffffffffffffffffffff\n      and\n      0xffffffffffffffffffffffffffffffffffffffff\n      and\n      dup2\n      mstore\n      0x20\n      add\n      swap1\n      dup2\n      mstore\n      0x20\n      add\n      0x00\n      keccak256\n        /* \"D/Distributed Scans/Distributed Scans.sol\":3882:3910  countInBlock[msg.sender] = 0 */\n      dup2\n      swap1\n      sstore\n      pop\n        /* \"D/Distributed Scans/Distributed Scans.sol\":3772:3921  if (block.number != lastBlock[msg.sender]) {... */\n    tag_25:\n        /* \"D/Distributed Scans/Distributed Scans.sol\":3930:3942  countInBlock */\n      0x01\n        /* \"D/Distributed Scans/Distributed Scans.sol\":3930:3954  countInBlock[msg.sender] */\n      0x00\n        /* \"D/Distributed Scans/Distributed Scans.sol\":3943:3953  msg.sender */\n      caller\n        /* \"D/Distributed Scans/Distributed Scans.sol\":3930:3954  countInBlock[msg.sender] */\n      0xffffffffffffffffffffffffffffffffffffffff\n      and\n      0xffffffffffffffffffffffffffffffffffffffff\n      and\n      dup2\n      mstore\n      0x20\n      add\n      swap1\n      dup2\n      mstore\n      0x20\n      add\n      0x00\n      keccak256\n      0x00\n        /* \"D/Distributed Scans/Distributed Scans.sol\":3930:3956  countInBlock[msg.sender]++ */\n      dup2\n      sload\n      dup1\n      swap3\n      swap2\n      swap1\n      tag_26\n      swap1\n      tag_27\n      jump\t// in\n    tag_26:\n      swap2\n      swap1\n      pop\n      sstore\n      pop\n        /* \"D/Distributed Scans/Distributed Scans.sol\":3517:3518  5 */\n      0x05\n        /* \"D/Distributed Scans/Distributed Scans.sol\":3970:3982  countInBlock */\n      0x01\n        /* \"D/Distributed Scans/Distributed Scans.sol\":3970:3994  countInBlock[msg.sender] */\n      0x00\n        /* \"D/Distributed Scans/Distributed Scans.sol\":3983:3993  msg.sender */\n      caller\n        /* \"D/Distributed Scans/Distributed Scans.sol\":3970:3994  countInBlock[msg.sender] */\n      0xffffffffffffffffffffffffffffffffffffffff\n      and\n      0xffffffffffffffffffffffffffffffffffffffff\n      and\n      dup2\n      mstore\n      0x20\n      add\n      swap1\n      dup2\n      mstore\n      0x20\n      add\n      0x00\n      keccak256\n      sload\n        /* \"D/Distributed Scans/Distributed Scans.sol\":3970:4010  countInBlock[msg.sender] > MAX_PER_BLOCK */\n      gt\n        /* \"D/Distributed Scans/Distributed Scans.sol\":3966:4038  if (countInBlock[msg.sender] > MAX_PER_BLOCK) revert DSN__TooManyScans() */\n      iszero\n      tag_28\n      jumpi\n        /* \"D/Distributed Scans/Distributed Scans.sol\":4019:4038  DSN__TooManyScans() */\n      mload(0x40)\n      0x328f5ade00000000000000000000000000000000000000000000000000000000\n      dup2\n      mstore\n      0x04\n      add\n      mload(0x40)\n      dup1\n      swap2\n      sub\n      swap1\n      revert\n        /* \"D/Distributed Scans/Distributed Scans.sol\":3966:4038  if (countInBlock[msg.sender] > MAX_PER_BLOCK) revert DSN__TooManyScans() */\n    tag_28:\n        /* \"D/Distributed Scans/Distributed Scans.sol\":4080:4086  target */\n      dup2\n        /* \"D/Distributed Scans/Distributed Scans.sol\":4054:4132  ScanPerformed(msg.sender, target, dtype, DistributedScanDefenseType.RateLimit) */\n      0xffffffffffffffffffffffffffffffffffffffff\n      and\n        /* \"D/Distributed Scans/Distributed Scans.sol\":4068:4078  msg.sender */\n      caller\n        /* \"D/Distributed Scans/Distributed Scans.sol\":4054:4132  ScanPerformed(msg.sender, target, dtype, DistributedScanDefenseType.RateLimit) */\n      0xffffffffffffffffffffffffffffffffffffffff\n      and\n      0x78cd1f500bd67d2925bb83aa58c6f5ded66304c0ab11562b39edb381f2d2fbd0\n        /* \"D/Distributed Scans/Distributed Scans.sol\":4088:4093  dtype */\n      dup4\n        /* \"D/Distributed Scans/Distributed Scans.sol\":4095:4131  DistributedScanDefenseType.RateLimit */\n      0x00\n        /* \"D/Distributed Scans/Distributed Scans.sol\":4054:4132  ScanPerformed(msg.sender, target, dtype, DistributedScanDefenseType.RateLimit) */\n      mload(0x40)\n      tag_29\n      swap3\n      swap2\n      swap1\n      tag_30\n      jump\t// in\n    tag_29:\n      mload(0x40)\n      dup1\n      swap2\n      sub\n      swap1\n      log3\n        /* \"D/Distributed Scans/Distributed Scans.sol\":3696:4139  function scan(address target, DistributedScanType dtype) external {... */\n      pop\n      pop\n      jump\t// out\n        /* \"D/Distributed Scans/Distributed Scans.sol\":3424:3471  mapping(address => uint256) public countInBlock */\n    tag_18:\n      mstore(0x20, 0x01)\n      dup1\n      0x00\n      mstore\n      keccak256(0x00, 0x40)\n      0x00\n      swap2\n      pop\n      swap1\n      pop\n      sload\n      dup2\n      jump\t// out\n        /* \"D/Distributed Scans/Distributed Scans.sol\":3374:3418  mapping(address => uint256) public lastBlock */\n    tag_22:\n      mstore(0x20, 0x00)\n      dup1\n      0x00\n      mstore\n      keccak256(0x00, 0x40)\n      0x00\n      swap2\n      pop\n      swap1\n      pop\n      sload\n      dup2\n      jump\t// out\n        /* \"#utility.yul\":7:84   */\n    tag_31:\n        /* \"#utility.yul\":44:51   */\n      0x00\n        /* \"#utility.yul\":73:78   */\n      dup2\n        /* \"#utility.yul\":62:78   */\n      swap1\n      pop\n        /* \"#utility.yul\":7:84   */\n      swap2\n      swap1\n      pop\n      jump\t// out\n        /* \"#utility.yul\":90:208   */\n    tag_32:\n        /* \"#utility.yul\":177:201   */\n      tag_55\n        /* \"#utility.yul\":195:200   */\n      dup2\n        /* \"#utility.yul\":177:201   */\n      tag_31\n      jump\t// in\n    tag_55:\n        /* \"#utility.yul\":172:175   */\n      dup3\n        /* \"#utility.yul\":165:202   */\n      mstore\n        /* \"#utility.yul\":90:208   */\n      pop\n      pop\n      jump\t// out\n        /* \"#utility.yul\":214:436   */\n    tag_10:\n        /* \"#utility.yul\":307:311   */\n      0x00\n        /* \"#utility.yul\":345:347   */\n      0x20\n        /* \"#utility.yul\":334:343   */\n      dup3\n        /* \"#utility.yul\":330:348   */\n      add\n        /* \"#utility.yul\":322:348   */\n      swap1\n      pop\n        /* \"#utility.yul\":358:429   */\n      tag_57\n        /* \"#utility.yul\":426:427   */\n      0x00\n        /* \"#utility.yul\":415:424   */\n      dup4\n        /* \"#utility.yul\":411:428   */\n      add\n        /* \"#utility.yul\":402:408   */\n      dup5\n        /* \"#utility.yul\":358:429   */\n      tag_32\n      jump\t// in\n    tag_57:\n        /* \"#utility.yul\":214:436   */\n      swap3\n      swap2\n      pop\n      pop\n      jump\t// out\n        /* \"#utility.yul\":523:640   */\n    tag_34:\n        /* \"#utility.yul\":632:633   */\n      0x00\n        /* \"#utility.yul\":629:630   */\n      dup1\n        /* \"#utility.yul\":622:634   */\n      revert\n        /* \"#utility.yul\":769:895   */\n    tag_36:\n        /* \"#utility.yul\":806:813   */\n      0x00\n        /* \"#utility.yul\":846:888   */\n      0xffffffffffffffffffffffffffffffffffffffff\n        /* \"#utility.yul\":839:844   */\n      dup3\n        /* \"#utility.yul\":835:889   */\n      and\n        /* \"#utility.yul\":824:889   */\n      swap1\n      pop\n        /* \"#utility.yul\":769:895   */\n      swap2\n      swap1\n      pop\n      jump\t// out\n        /* \"#utility.yul\":901:997   */\n    tag_37:\n        /* \"#utility.yul\":938:945   */\n      0x00\n        /* \"#utility.yul\":967:991   */\n      tag_63\n        /* \"#utility.yul\":985:990   */\n      dup3\n        /* \"#utility.yul\":967:991   */\n      tag_36\n      jump\t// in\n    tag_63:\n        /* \"#utility.yul\":956:991   */\n      swap1\n      pop\n        /* \"#utility.yul\":901:997   */\n      swap2\n      swap1\n      pop\n      jump\t// out\n        /* \"#utility.yul\":1003:1125   */\n    tag_38:\n        /* \"#utility.yul\":1076:1100   */\n      tag_65\n        /* \"#utility.yul\":1094:1099   */\n      dup2\n        /* \"#utility.yul\":1076:1100   */\n      tag_37\n      jump\t// in\n    tag_65:\n        /* \"#utility.yul\":1069:1074   */\n      dup2\n        /* \"#utility.yul\":1066:1101   */\n      eq\n        /* \"#utility.yul\":1056:1119   */\n      tag_66\n      jumpi\n        /* \"#utility.yul\":1115:1116   */\n      0x00\n        /* \"#utility.yul\":1112:1113   */\n      dup1\n        /* \"#utility.yul\":1105:1117   */\n      revert\n        /* \"#utility.yul\":1056:1119   */\n    tag_66:\n        /* \"#utility.yul\":1003:1125   */\n      pop\n      jump\t// out\n        /* \"#utility.yul\":1131:1270   */\n    tag_39:\n        /* \"#utility.yul\":1177:1182   */\n      0x00\n        /* \"#utility.yul\":1215:1221   */\n      dup2\n        /* \"#utility.yul\":1202:1222   */\n      calldataload\n        /* \"#utility.yul\":1193:1222   */\n      swap1\n      pop\n        /* \"#utility.yul\":1231:1264   */\n      tag_68\n        /* \"#utility.yul\":1258:1263   */\n      dup2\n        /* \"#utility.yul\":1231:1264   */\n      tag_38\n      jump\t// in\n    tag_68:\n        /* \"#utility.yul\":1131:1270   */\n      swap3\n      swap2\n      pop\n      pop\n      jump\t// out\n        /* \"#utility.yul\":1276:1396   */\n    tag_40:\n        /* \"#utility.yul\":1370:1371   */\n      0x03\n        /* \"#utility.yul\":1363:1368   */\n      dup2\n        /* \"#utility.yul\":1360:1372   */\n      lt\n        /* \"#utility.yul\":1350:1390   */\n      tag_70\n      jumpi\n        /* \"#utility.yul\":1386:1387   */\n      0x00\n        /* \"#utility.yul\":1383:1384   */\n      dup1\n        /* \"#utility.yul\":1376:1388   */\n      revert\n        /* \"#utility.yul\":1350:1390   */\n    tag_70:\n        /* \"#utility.yul\":1276:1396   */\n      pop\n      jump\t// out\n        /* \"#utility.yul\":1402:1583   */\n    tag_41:\n        /* \"#utility.yul\":1469:1474   */\n      0x00\n        /* \"#utility.yul\":1507:1513   */\n      dup2\n        /* \"#utility.yul\":1494:1514   */\n      calldataload\n        /* \"#utility.yul\":1485:1514   */\n      swap1\n      pop\n        /* \"#utility.yul\":1523:1577   */\n      tag_72\n        /* \"#utility.yul\":1571:1576   */\n      dup2\n        /* \"#utility.yul\":1523:1577   */\n      tag_40\n      jump\t// in\n    tag_72:\n        /* \"#utility.yul\":1402:1583   */\n      swap3\n      swap2\n      pop\n      pop\n      jump\t// out\n        /* \"#utility.yul\":1589:2105   */\n    tag_13:\n        /* \"#utility.yul\":1678:1684   */\n      0x00\n        /* \"#utility.yul\":1686:1692   */\n      dup1\n        /* \"#utility.yul\":1735:1737   */\n      0x40\n        /* \"#utility.yul\":1723:1732   */\n      dup4\n        /* \"#utility.yul\":1714:1721   */\n      dup6\n        /* \"#utility.yul\":1710:1733   */\n      sub\n        /* \"#utility.yul\":1706:1738   */\n      slt\n        /* \"#utility.yul\":1703:1822   */\n      iszero\n      tag_74\n      jumpi\n        /* \"#utility.yul\":1741:1820   */\n      tag_75\n      tag_34\n      jump\t// in\n    tag_75:\n        /* \"#utility.yul\":1703:1822   */\n    tag_74:\n        /* \"#utility.yul\":1861:1862   */\n      0x00\n        /* \"#utility.yul\":1886:1939   */\n      tag_76\n        /* \"#utility.yul\":1931:1938   */\n      dup6\n        /* \"#utility.yul\":1922:1928   */\n      dup3\n        /* \"#utility.yul\":1911:1920   */\n      dup7\n        /* \"#utility.yul\":1907:1929   */\n      add\n        /* \"#utility.yul\":1886:1939   */\n      tag_39\n      jump\t// in\n    tag_76:\n        /* \"#utility.yul\":1876:1939   */\n      swap3\n      pop\n        /* \"#utility.yul\":1832:1949   */\n      pop\n        /* \"#utility.yul\":1988:1990   */\n      0x20\n        /* \"#utility.yul\":2014:2088   */\n      tag_77\n        /* \"#utility.yul\":2080:2087   */\n      dup6\n        /* \"#utility.yul\":2071:2077   */\n      dup3\n        /* \"#utility.yul\":2060:2069   */\n      dup7\n        /* \"#utility.yul\":2056:2078   */\n      add\n        /* \"#utility.yul\":2014:2088   */\n      tag_41\n      jump\t// in\n    tag_77:\n        /* \"#utility.yul\":2004:2088   */\n      swap2\n      pop\n        /* \"#utility.yul\":1959:2098   */\n      pop\n        /* \"#utility.yul\":1589:2105   */\n      swap3\n      pop\n      swap3\n      swap1\n      pop\n      jump\t// out\n        /* \"#utility.yul\":2111:2440   */\n    tag_17:\n        /* \"#utility.yul\":2170:2176   */\n      0x00\n        /* \"#utility.yul\":2219:2221   */\n      0x20\n        /* \"#utility.yul\":2207:2216   */\n      dup3\n        /* \"#utility.yul\":2198:2205   */\n      dup5\n        /* \"#utility.yul\":2194:2217   */\n      sub\n        /* \"#utility.yul\":2190:2222   */\n      slt\n        /* \"#utility.yul\":2187:2306   */\n      iszero\n      tag_79\n      jumpi\n        /* \"#utility.yul\":2225:2304   */\n      tag_80\n      tag_34\n      jump\t// in\n    tag_80:\n        /* \"#utility.yul\":2187:2306   */\n    tag_79:\n        /* \"#utility.yul\":2345:2346   */\n      0x00\n        /* \"#utility.yul\":2370:2423   */\n      tag_81\n        /* \"#utility.yul\":2415:2422   */\n      dup5\n        /* \"#utility.yul\":2406:2412   */\n      dup3\n        /* \"#utility.yul\":2395:2404   */\n      dup6\n        /* \"#utility.yul\":2391:2413   */\n      add\n        /* \"#utility.yul\":2370:2423   */\n      tag_39\n      jump\t// in\n    tag_81:\n        /* \"#utility.yul\":2360:2423   */\n      swap2\n      pop\n        /* \"#utility.yul\":2316:2433   */\n      pop\n        /* \"#utility.yul\":2111:2440   */\n      swap3\n      swap2\n      pop\n      pop\n      jump\t// out\n        /* \"#utility.yul\":2446:2626   */\n    tag_42:\n        /* \"#utility.yul\":2494:2571   */\n      0x4e487b7100000000000000000000000000000000000000000000000000000000\n        /* \"#utility.yul\":2491:2492   */\n      0x00\n        /* \"#utility.yul\":2484:2572   */\n      mstore\n        /* \"#utility.yul\":2591:2595   */\n      0x11\n        /* \"#utility.yul\":2588:2589   */\n      0x04\n        /* \"#utility.yul\":2581:2596   */\n      mstore\n        /* \"#utility.yul\":2615:2619   */\n      0x24\n        /* \"#utility.yul\":2612:2613   */\n      0x00\n        /* \"#utility.yul\":2605:2620   */\n      revert\n        /* \"#utility.yul\":2632:2865   */\n    tag_27:\n        /* \"#utility.yul\":2671:2674   */\n      0x00\n        /* \"#utility.yul\":2694:2718   */\n      tag_84\n        /* \"#utility.yul\":2712:2717   */\n      dup3\n        /* \"#utility.yul\":2694:2718   */\n      tag_31\n      jump\t// in\n    tag_84:\n        /* \"#utility.yul\":2685:2718   */\n      swap2\n      pop\n        /* \"#utility.yul\":2740:2806   */\n      0xffffffffffffffffffffffffffffffffffffffffffffffffffffffffffffffff\n        /* \"#utility.yul\":2733:2738   */\n      dup3\n        /* \"#utility.yul\":2730:2807   */\n      sub\n        /* \"#utility.yul\":2727:2830   */\n      tag_85\n      jumpi\n        /* \"#utility.yul\":2810:2828   */\n      tag_86\n      tag_42\n      jump\t// in\n    tag_86:\n        /* \"#utility.yul\":2727:2830   */\n    tag_85:\n        /* \"#utility.yul\":2857:2858   */\n      0x01\n        /* \"#utility.yul\":2850:2855   */\n      dup3\n        /* \"#utility.yul\":2846:2859   */\n      add\n        /* \"#utility.yul\":2839:2859   */\n      swap1\n      pop\n        /* \"#utility.yul\":2632:2865   */\n      swap2\n      swap1\n      pop\n      jump\t// out\n        /* \"#utility.yul\":2871:3051   */\n    tag_43:\n        /* \"#utility.yul\":2919:2996   */\n      0x4e487b7100000000000000000000000000000000000000000000000000000000\n        /* \"#utility.yul\":2916:2917   */\n      0x00\n        /* \"#utility.yul\":2909:2997   */\n      mstore\n        /* \"#utility.yul\":3016:3020   */\n      0x21\n        /* \"#utility.yul\":3013:3014   */\n      0x04\n        /* \"#utility.yul\":3006:3021   */\n      mstore\n        /* \"#utility.yul\":3040:3044   */\n      0x24\n        /* \"#utility.yul\":3037:3038   */\n      0x00\n        /* \"#utility.yul\":3030:3045   */\n      revert\n        /* \"#utility.yul\":3057:3183   */\n    tag_44:\n        /* \"#utility.yul\":3151:3152   */\n      0x03\n        /* \"#utility.yul\":3144:3149   */\n      dup2\n        /* \"#utility.yul\":3141:3153   */\n      lt\n        /* \"#utility.yul\":3131:3177   */\n      tag_89\n      jumpi\n        /* \"#utility.yul\":3157:3175   */\n      tag_90\n      tag_43\n      jump\t// in\n    tag_90:\n        /* \"#utility.yul\":3131:3177   */\n    tag_89:\n        /* \"#utility.yul\":3057:3183   */\n      pop\n      jump\t// out\n        /* \"#utility.yul\":3189:3342   */\n    tag_45:\n        /* \"#utility.yul\":3247:3254   */\n      0x00\n        /* \"#utility.yul\":3276:3281   */\n      dup2\n        /* \"#utility.yul\":3265:3281   */\n      swap1\n      pop\n        /* \"#utility.yul\":3282:3336   */\n      tag_92\n        /* \"#utility.yul\":3330:3335   */\n      dup3\n        /* \"#utility.yul\":3282:3336   */\n      tag_44\n      jump\t// in\n    tag_92:\n        /* \"#utility.yul\":3189:3342   */\n      swap2\n      swap1\n      pop\n      jump\t// out\n        /* \"#utility.yul\":3348:3501   */\n    tag_46:\n        /* \"#utility.yul\":3417:3426   */\n      0x00\n        /* \"#utility.yul\":3450:3495   */\n      tag_94\n        /* \"#utility.yul\":3489:3494   */\n      dup3\n        /* \"#utility.yul\":3450:3495   */\n      tag_45\n      jump\t// in\n    tag_94:\n        /* \"#utility.yul\":3437:3495   */\n      swap1\n      pop\n        /* \"#utility.yul\":3348:3501   */\n      swap2\n      swap1\n      pop\n      jump\t// out\n        /* \"#utility.yul\":3507:3676   */\n    tag_47:\n        /* \"#utility.yul\":3613:3669   */\n      tag_96\n        /* \"#utility.yul\":3663:3668   */\n      dup2\n        /* \"#utility.yul\":3613:3669   */\n      tag_46\n      jump\t// in\n    tag_96:\n        /* \"#utility.yul\":3608:3611   */\n      dup3\n        /* \"#utility.yul\":3601:3670   */\n      mstore\n        /* \"#utility.yul\":3507:3676   */\n      pop\n      pop\n      jump\t// out\n        /* \"#utility.yul\":3682:3816   */\n    tag_48:\n        /* \"#utility.yul\":3784:3785   */\n      0x03\n        /* \"#utility.yul\":3777:3782   */\n      dup2\n        /* \"#utility.yul\":3774:3786   */\n      lt\n        /* \"#utility.yul\":3764:3810   */\n      tag_98\n      jumpi\n        /* \"#utility.yul\":3790:3808   */\n      tag_99\n      tag_43\n      jump\t// in\n    tag_99:\n        /* \"#utility.yul\":3764:3810   */\n    tag_98:\n        /* \"#utility.yul\":3682:3816   */\n      pop\n      jump\t// out\n        /* \"#utility.yul\":3822:3991   */\n    tag_49:\n        /* \"#utility.yul\":3888:3895   */\n      0x00\n        /* \"#utility.yul\":3917:3922   */\n      dup2\n        /* \"#utility.yul\":3906:3922   */\n      swap1\n      pop\n        /* \"#utility.yul\":3923:3985   */\n      tag_101\n        /* \"#utility.yul\":3979:3984   */\n      dup3\n        /* \"#utility.yul\":3923:3985   */\n      tag_48\n      jump\t// in\n    tag_101:\n        /* \"#utility.yul\":3822:3991   */\n      swap2\n      swap1\n      pop\n      jump\t// out\n        /* \"#utility.yul\":3997:4166   */\n    tag_50:\n        /* \"#utility.yul\":4074:4083   */\n      0x00\n        /* \"#utility.yul\":4107:4160   */\n      tag_103\n        /* \"#utility.yul\":4154:4159   */\n      dup3\n        /* \"#utility.yul\":4107:4160   */\n      tag_49\n      jump\t// in\n    tag_103:\n        /* \"#utility.yul\":4094:4160   */\n      swap1\n      pop\n        /* \"#utility.yul\":3997:4166   */\n      swap2\n      swap1\n      pop\n      jump\t// out\n        /* \"#utility.yul\":4172:4357   */\n    tag_51:\n        /* \"#utility.yul\":4286:4350   */\n      tag_105\n        /* \"#utility.yul\":4344:4349   */\n      dup2\n        /* \"#utility.yul\":4286:4350   */\n      tag_50\n      jump\t// in\n    tag_105:\n        /* \"#utility.yul\":4281:4284   */\n      dup3\n        /* \"#utility.yul\":4274:4351   */\n      mstore\n        /* \"#utility.yul\":4172:4357   */\n      pop\n      pop\n      jump\t// out\n        /* \"#utility.yul\":4363:4787   */\n    tag_30:\n        /* \"#utility.yul\":4530:4534   */\n      0x00\n        /* \"#utility.yul\":4568:4570   */\n      0x40\n        /* \"#utility.yul\":4557:4566   */\n      dup3\n        /* \"#utility.yul\":4553:4571   */\n      add\n        /* \"#utility.yul\":4545:4571   */\n      swap1\n      pop\n        /* \"#utility.yul\":4581:4671   */\n      tag_107\n        /* \"#utility.yul\":4668:4669   */\n      0x00\n        /* \"#utility.yul\":4657:4666   */\n      dup4\n        /* \"#utility.yul\":4653:4670   */\n      add\n        /* \"#utility.yul\":4644:4650   */\n      dup6\n        /* \"#utility.yul\":4581:4671   */\n      tag_47\n      jump\t// in\n    tag_107:\n        /* \"#utility.yul\":4681:4780   */\n      tag_108\n        /* \"#utility.yul\":4776:4778   */\n      0x20\n        /* \"#utility.yul\":4765:4774   */\n      dup4\n        /* \"#utility.yul\":4761:4779   */\n      add\n        /* \"#utility.yul\":4752:4758   */\n      dup5\n        /* \"#utility.yul\":4681:4780   */\n      tag_51\n      jump\t// in\n    tag_108:\n        /* \"#utility.yul\":4363:4787   */\n      swap4\n      swap3\n      pop\n      pop\n      pop\n      jump\t// out\n\n    auxdata: 0xa264697066735822122074f08f5f726eedb97090fdf92222eb2f30beebde8356526b4bb3961ac96aedea64736f6c634300081a0033\n}\n",
				"bytecode": {
					"linkReferences": {},
					"object": "6080604052348015600e575f80fd5b506105b78061001c5f395ff3fe608060405234801561000f575f80fd5b506004361061004a575f3560e01c80630d2a95ef1461004e578063265c339a1461006c5780633e9893a614610088578063952ca92c146100b8575b5f80fd5b6100566100e8565b604051610063919061032a565b60405180910390f35b610086600480360381019061008191906103c4565b6100ed565b005b6100a2600480360381019061009d9190610402565b6102e9565b6040516100af919061032a565b60405180910390f35b6100d260048036038101906100cd9190610402565b6102fe565b6040516100df919061032a565b60405180910390f35b600581565b5f803373ffffffffffffffffffffffffffffffffffffffff1673ffffffffffffffffffffffffffffffffffffffff1681526020019081526020015f205443146101b457435f803373ffffffffffffffffffffffffffffffffffffffff1673ffffffffffffffffffffffffffffffffffffffff1681526020019081526020015f20819055505f60015f3373ffffffffffffffffffffffffffffffffffffffff1673ffffffffffffffffffffffffffffffffffffffff1681526020019081526020015f20819055505b60015f3373ffffffffffffffffffffffffffffffffffffffff1673ffffffffffffffffffffffffffffffffffffffff1681526020019081526020015f205f8154809291906102019061045a565b9190505550600560015f3373ffffffffffffffffffffffffffffffffffffffff1673ffffffffffffffffffffffffffffffffffffffff1681526020019081526020015f2054111561027e576040517f328f5ade00000000000000000000000000000000000000000000000000000000815260040160405180910390fd5b8173ffffffffffffffffffffffffffffffffffffffff163373ffffffffffffffffffffffffffffffffffffffff167f78cd1f500bd67d2925bb83aa58c6f5ded66304c0ab11562b39edb381f2d2fbd0835f6040516102dd92919061055a565b60405180910390a35050565b6001602052805f5260405f205f915090505481565b5f602052805f5260405f205f915090505481565b5f819050919050565b61032481610312565b82525050565b5f60208201905061033d5f83018461031b565b92915050565b5f80fd5b5f73ffffffffffffffffffffffffffffffffffffffff82169050919050565b5f61037082610347565b9050919050565b61038081610366565b811461038a575f80fd5b50565b5f8135905061039b81610377565b92915050565b600381106103ad575f80fd5b50565b5f813590506103be816103a1565b92915050565b5f80604083850312156103da576103d9610343565b5b5f6103e78582860161038d565b92505060206103f8858286016103b0565b9150509250929050565b5f6020828403121561041757610416610343565b5b5f6104248482850161038d565b91505092915050565b7f4e487b71000000000000000000000000000000000000000000000000000000005f52601160045260245ffd5b5f61046482610312565b91507fffffffffffffffffffffffffffffffffffffffffffffffffffffffffffffffff82036104965761049561042d565b5b600182019050919050565b7f4e487b71000000000000000000000000000000000000000000000000000000005f52602160045260245ffd5b600381106104df576104de6104a1565b5b50565b5f8190506104ef826104ce565b919050565b5f6104fe826104e2565b9050919050565b61050e816104f4565b82525050565b60038110610525576105246104a1565b5b50565b5f81905061053582610514565b919050565b5f61054482610528565b9050919050565b6105548161053a565b82525050565b5f60408201905061056d5f830185610505565b61057a602083018461054b565b939250505056fea264697066735822122074f08f5f726eedb97090fdf92222eb2f30beebde8356526b4bb3961ac96aedea64736f6c634300081a0033",
					"opcodes": "PUSH1 0x80 PUSH1 0x40 MSTORE CALLVALUE DUP1 ISZERO PUSH1 0xE JUMPI PUSH0 DUP1 REVERT JUMPDEST POP PUSH2 0x5B7 DUP1 PUSH2 0x1C PUSH0 CODECOPY PUSH0 RETURN INVALID PUSH1 0x80 PUSH1 0x40 MSTORE CALLVALUE DUP1 ISZERO PUSH2 0xF JUMPI PUSH0 DUP1 REVERT JUMPDEST POP PUSH1 0x4 CALLDATASIZE LT PUSH2 0x4A JUMPI PUSH0 CALLDATALOAD PUSH1 0xE0 SHR DUP1 PUSH4 0xD2A95EF EQ PUSH2 0x4E JUMPI DUP1 PUSH4 0x265C339A EQ PUSH2 0x6C JUMPI DUP1 PUSH4 0x3E9893A6 EQ PUSH2 0x88 JUMPI DUP1 PUSH4 0x952CA92C EQ PUSH2 0xB8 JUMPI JUMPDEST PUSH0 DUP1 REVERT JUMPDEST PUSH2 0x56 PUSH2 0xE8 JUMP JUMPDEST PUSH1 0x40 MLOAD PUSH2 0x63 SWAP2 SWAP1 PUSH2 0x32A JUMP JUMPDEST PUSH1 0x40 MLOAD DUP1 SWAP2 SUB SWAP1 RETURN JUMPDEST PUSH2 0x86 PUSH1 0x4 DUP1 CALLDATASIZE SUB DUP2 ADD SWAP1 PUSH2 0x81 SWAP2 SWAP1 PUSH2 0x3C4 JUMP JUMPDEST PUSH2 0xED JUMP JUMPDEST STOP JUMPDEST PUSH2 0xA2 PUSH1 0x4 DUP1 CALLDATASIZE SUB DUP2 ADD SWAP1 PUSH2 0x9D SWAP2 SWAP1 PUSH2 0x402 JUMP JUMPDEST PUSH2 0x2E9 JUMP JUMPDEST PUSH1 0x40 MLOAD PUSH2 0xAF SWAP2 SWAP1 PUSH2 0x32A JUMP JUMPDEST PUSH1 0x40 MLOAD DUP1 SWAP2 SUB SWAP1 RETURN JUMPDEST PUSH2 0xD2 PUSH1 0x4 DUP1 CALLDATASIZE SUB DUP2 ADD SWAP1 PUSH2 0xCD SWAP2 SWAP1 PUSH2 0x402 JUMP JUMPDEST PUSH2 0x2FE JUMP JUMPDEST PUSH1 0x40 MLOAD PUSH2 0xDF SWAP2 SWAP1 PUSH2 0x32A JUMP JUMPDEST PUSH1 0x40 MLOAD DUP1 SWAP2 SUB SWAP1 RETURN JUMPDEST PUSH1 0x5 DUP2 JUMP JUMPDEST PUSH0 DUP1 CALLER PUSH20 0xFFFFFFFFFFFFFFFFFFFFFFFFFFFFFFFFFFFFFFFF AND PUSH20 0xFFFFFFFFFFFFFFFFFFFFFFFFFFFFFFFFFFFFFFFF AND DUP2 MSTORE PUSH1 0x20 ADD SWAP1 DUP2 MSTORE PUSH1 0x20 ADD PUSH0 KECCAK256 SLOAD NUMBER EQ PUSH2 0x1B4 JUMPI NUMBER PUSH0 DUP1 CALLER PUSH20 0xFFFFFFFFFFFFFFFFFFFFFFFFFFFFFFFFFFFFFFFF AND PUSH20 0xFFFFFFFFFFFFFFFFFFFFFFFFFFFFFFFFFFFFFFFF AND DUP2 MSTORE PUSH1 0x20 ADD SWAP1 DUP2 MSTORE PUSH1 0x20 ADD PUSH0 KECCAK256 DUP2 SWAP1 SSTORE POP PUSH0 PUSH1 0x1 PUSH0 CALLER PUSH20 0xFFFFFFFFFFFFFFFFFFFFFFFFFFFFFFFFFFFFFFFF AND PUSH20 0xFFFFFFFFFFFFFFFFFFFFFFFFFFFFFFFFFFFFFFFF AND DUP2 MSTORE PUSH1 0x20 ADD SWAP1 DUP2 MSTORE PUSH1 0x20 ADD PUSH0 KECCAK256 DUP2 SWAP1 SSTORE POP JUMPDEST PUSH1 0x1 PUSH0 CALLER PUSH20 0xFFFFFFFFFFFFFFFFFFFFFFFFFFFFFFFFFFFFFFFF AND PUSH20 0xFFFFFFFFFFFFFFFFFFFFFFFFFFFFFFFFFFFFFFFF AND DUP2 MSTORE PUSH1 0x20 ADD SWAP1 DUP2 MSTORE PUSH1 0x20 ADD PUSH0 KECCAK256 PUSH0 DUP2 SLOAD DUP1 SWAP3 SWAP2 SWAP1 PUSH2 0x201 SWAP1 PUSH2 0x45A JUMP JUMPDEST SWAP2 SWAP1 POP SSTORE POP PUSH1 0x5 PUSH1 0x1 PUSH0 CALLER PUSH20 0xFFFFFFFFFFFFFFFFFFFFFFFFFFFFFFFFFFFFFFFF AND PUSH20 0xFFFFFFFFFFFFFFFFFFFFFFFFFFFFFFFFFFFFFFFF AND DUP2 MSTORE PUSH1 0x20 ADD SWAP1 DUP2 MSTORE PUSH1 0x20 ADD PUSH0 KECCAK256 SLOAD GT ISZERO PUSH2 0x27E JUMPI PUSH1 0x40 MLOAD PUSH32 0x328F5ADE00000000000000000000000000000000000000000000000000000000 DUP2 MSTORE PUSH1 0x4 ADD PUSH1 0x40 MLOAD DUP1 SWAP2 SUB SWAP1 REVERT JUMPDEST DUP2 PUSH20 0xFFFFFFFFFFFFFFFFFFFFFFFFFFFFFFFFFFFFFFFF AND CALLER PUSH20 0xFFFFFFFFFFFFFFFFFFFFFFFFFFFFFFFFFFFFFFFF AND PUSH32 0x78CD1F500BD67D2925BB83AA58C6F5DED66304C0AB11562B39EDB381F2D2FBD0 DUP4 PUSH0 PUSH1 0x40 MLOAD PUSH2 0x2DD SWAP3 SWAP2 SWAP1 PUSH2 0x55A JUMP JUMPDEST PUSH1 0x40 MLOAD DUP1 SWAP2 SUB SWAP1 LOG3 POP POP JUMP JUMPDEST PUSH1 0x1 PUSH1 0x20 MSTORE DUP1 PUSH0 MSTORE PUSH1 0x40 PUSH0 KECCAK256 PUSH0 SWAP2 POP SWAP1 POP SLOAD DUP2 JUMP JUMPDEST PUSH0 PUSH1 0x20 MSTORE DUP1 PUSH0 MSTORE PUSH1 0x40 PUSH0 KECCAK256 PUSH0 SWAP2 POP SWAP1 POP SLOAD DUP2 JUMP JUMPDEST PUSH0 DUP2 SWAP1 POP SWAP2 SWAP1 POP JUMP JUMPDEST PUSH2 0x324 DUP2 PUSH2 0x312 JUMP JUMPDEST DUP3 MSTORE POP POP JUMP JUMPDEST PUSH0 PUSH1 0x20 DUP3 ADD SWAP1 POP PUSH2 0x33D PUSH0 DUP4 ADD DUP5 PUSH2 0x31B JUMP JUMPDEST SWAP3 SWAP2 POP POP JUMP JUMPDEST PUSH0 DUP1 REVERT JUMPDEST PUSH0 PUSH20 0xFFFFFFFFFFFFFFFFFFFFFFFFFFFFFFFFFFFFFFFF DUP3 AND SWAP1 POP SWAP2 SWAP1 POP JUMP JUMPDEST PUSH0 PUSH2 0x370 DUP3 PUSH2 0x347 JUMP JUMPDEST SWAP1 POP SWAP2 SWAP1 POP JUMP JUMPDEST PUSH2 0x380 DUP2 PUSH2 0x366 JUMP JUMPDEST DUP2 EQ PUSH2 0x38A JUMPI PUSH0 DUP1 REVERT JUMPDEST POP JUMP JUMPDEST PUSH0 DUP2 CALLDATALOAD SWAP1 POP PUSH2 0x39B DUP2 PUSH2 0x377 JUMP JUMPDEST SWAP3 SWAP2 POP POP JUMP JUMPDEST PUSH1 0x3 DUP2 LT PUSH2 0x3AD JUMPI PUSH0 DUP1 REVERT JUMPDEST POP JUMP JUMPDEST PUSH0 DUP2 CALLDATALOAD SWAP1 POP PUSH2 0x3BE DUP2 PUSH2 0x3A1 JUMP JUMPDEST SWAP3 SWAP2 POP POP JUMP JUMPDEST PUSH0 DUP1 PUSH1 0x40 DUP4 DUP6 SUB SLT ISZERO PUSH2 0x3DA JUMPI PUSH2 0x3D9 PUSH2 0x343 JUMP JUMPDEST JUMPDEST PUSH0 PUSH2 0x3E7 DUP6 DUP3 DUP7 ADD PUSH2 0x38D JUMP JUMPDEST SWAP3 POP POP PUSH1 0x20 PUSH2 0x3F8 DUP6 DUP3 DUP7 ADD PUSH2 0x3B0 JUMP JUMPDEST SWAP2 POP POP SWAP3 POP SWAP3 SWAP1 POP JUMP JUMPDEST PUSH0 PUSH1 0x20 DUP3 DUP5 SUB SLT ISZERO PUSH2 0x417 JUMPI PUSH2 0x416 PUSH2 0x343 JUMP JUMPDEST JUMPDEST PUSH0 PUSH2 0x424 DUP5 DUP3 DUP6 ADD PUSH2 0x38D JUMP JUMPDEST SWAP2 POP POP SWAP3 SWAP2 POP POP JUMP JUMPDEST PUSH32 0x4E487B7100000000000000000000000000000000000000000000000000000000 PUSH0 MSTORE PUSH1 0x11 PUSH1 0x4 MSTORE PUSH1 0x24 PUSH0 REVERT JUMPDEST PUSH0 PUSH2 0x464 DUP3 PUSH2 0x312 JUMP JUMPDEST SWAP2 POP PUSH32 0xFFFFFFFFFFFFFFFFFFFFFFFFFFFFFFFFFFFFFFFFFFFFFFFFFFFFFFFFFFFFFFFF DUP3 SUB PUSH2 0x496 JUMPI PUSH2 0x495 PUSH2 0x42D JUMP JUMPDEST JUMPDEST PUSH1 0x1 DUP3 ADD SWAP1 POP SWAP2 SWAP1 POP JUMP JUMPDEST PUSH32 0x4E487B7100000000000000000000000000000000000000000000000000000000 PUSH0 MSTORE PUSH1 0x21 PUSH1 0x4 MSTORE PUSH1 0x24 PUSH0 REVERT JUMPDEST PUSH1 0x3 DUP2 LT PUSH2 0x4DF JUMPI PUSH2 0x4DE PUSH2 0x4A1 JUMP JUMPDEST JUMPDEST POP JUMP JUMPDEST PUSH0 DUP2 SWAP1 POP PUSH2 0x4EF DUP3 PUSH2 0x4CE JUMP JUMPDEST SWAP2 SWAP1 POP JUMP JUMPDEST PUSH0 PUSH2 0x4FE DUP3 PUSH2 0x4E2 JUMP JUMPDEST SWAP1 POP SWAP2 SWAP1 POP JUMP JUMPDEST PUSH2 0x50E DUP2 PUSH2 0x4F4 JUMP JUMPDEST DUP3 MSTORE POP POP JUMP JUMPDEST PUSH1 0x3 DUP2 LT PUSH2 0x525 JUMPI PUSH2 0x524 PUSH2 0x4A1 JUMP JUMPDEST JUMPDEST POP JUMP JUMPDEST PUSH0 DUP2 SWAP1 POP PUSH2 0x535 DUP3 PUSH2 0x514 JUMP JUMPDEST SWAP2 SWAP1 POP JUMP JUMPDEST PUSH0 PUSH2 0x544 DUP3 PUSH2 0x528 JUMP JUMPDEST SWAP1 POP SWAP2 SWAP1 POP JUMP JUMPDEST PUSH2 0x554 DUP2 PUSH2 0x53A JUMP JUMPDEST DUP3 MSTORE POP POP JUMP JUMPDEST PUSH0 PUSH1 0x40 DUP3 ADD SWAP1 POP PUSH2 0x56D PUSH0 DUP4 ADD DUP6 PUSH2 0x505 JUMP JUMPDEST PUSH2 0x57A PUSH1 0x20 DUP4 ADD DUP5 PUSH2 0x54B JUMP JUMPDEST SWAP4 SWAP3 POP POP POP JUMP INVALID LOG2 PUSH5 0x6970667358 0x22 SLT KECCAK256 PUSH21 0xF08F5F726EEDB97090FDF92222EB2F30BEEBDE8356 MSTORE PUSH12 0x4BB3961AC96AEDEA64736F6C PUSH4 0x4300081A STOP CALLER "
				},
				"gasEstimates": {
					"creation": {
						"codeDepositCost": "292600",
						"executionCost": "329",
						"totalCost": "292929"
					},
					"external": {
						"MAX_PER_BLOCK()": "303",
						"countInBlock(address)": "2824",
						"lastBlock(address)": "2845",
						"scan(address,uint8)": "59241"
					}
				},
				"methodIdentifiers": {
					"MAX_PER_BLOCK()": "0d2a95ef",
					"countInBlock(address)": "3e9893a6",
					"lastBlock(address)": "952ca92c",
					"scan(address,uint8)": "265c339a"
				}
			},
			"storageLayout": {
				"storage": [
					{
						"astId": 121,
						"contract": "D/Distributed Scans/Distributed Scans.sol:DistributedScansSafeRateLimit",
						"label": "lastBlock",
						"offset": 0,
						"slot": "0",
						"type": "t_mapping(t_address,t_uint256)"
					},
					{
						"astId": 125,
						"contract": "D/Distributed Scans/Distributed Scans.sol:DistributedScansSafeRateLimit",
						"label": "countInBlock",
						"offset": 0,
						"slot": "1",
						"type": "t_mapping(t_address,t_uint256)"
					}
				],
				"types": {
					"t_address": {
						"encoding": "inplace",
						"label": "address",
						"numberOfBytes": "20"
					},
					"t_mapping(t_address,t_uint256)": {
						"encoding": "mapping",
						"key": "t_address",
						"label": "mapping(address => uint256)",
						"numberOfBytes": "32",
						"value": "t_uint256"
					},
					"t_uint256": {
						"encoding": "inplace",
						"label": "uint256",
						"numberOfBytes": "32"
					}
				}
			},
			"userdoc": {
				"kind": "user",
				"methods": {},
				"notice": "───────────────────────────────────────────────────────────────────────────── 3) SAFE: rate‑limit per block per caller    • Defense: RateLimit   ─────────────────────────────────────────────────────────────────────────────",
				"version": 1
			}
		}
	}
}