{
	"D/Distributed Scans/Distributed Scans.sol": {
		"Attack_DistributedScans": {
			"abi": [
				{
					"inputs": [
						{
							"internalType": "contract DistributedScansVuln",
							"name": "_t",
							"type": "address"
						}
					],
					"stateMutability": "nonpayable",
					"type": "constructor"
				},
				{
					"inputs": [
						{
							"internalType": "address",
							"name": "to",
							"type": "address"
						},
						{
							"internalType": "enum DistributedScanType",
							"name": "dtype",
							"type": "uint8"
						},
						{
							"internalType": "uint256",
							"name": "count",
							"type": "uint256"
						}
					],
					"name": "floodScan",
					"outputs": [],
					"stateMutability": "nonpayable",
					"type": "function"
				},
				{
					"inputs": [
						{
							"internalType": "address",
							"name": "to",
							"type": "address"
						},
						{
							"internalType": "enum DistributedScanType",
							"name": "dtype",
							"type": "uint8"
						}
					],
					"name": "spoofedScan",
					"outputs": [],
					"stateMutability": "nonpayable",
					"type": "function"
				},
				{
					"inputs": [],
					"name": "target",
					"outputs": [
						{
							"internalType": "contract DistributedScansVuln",
							"name": "",
							"type": "address"
						}
					],
					"stateMutability": "view",
					"type": "function"
				}
			],
			"devdoc": {
				"kind": "dev",
				"methods": {},
				"version": 1
			},
			"evm": {
				"assembly": "    /* \"D/Distributed Scans/Distributed Scans.sol\":2240:2774  contract Attack_DistributedScans {... */\n  mstore(0x40, 0x80)\n    /* \"D/Distributed Scans/Distributed Scans.sol\":2319:2372  constructor(DistributedScansVuln _t) { target = _t; } */\n  callvalue\n  dup1\n  iszero\n  tag_1\n  jumpi\n  0x00\n  dup1\n  revert\ntag_1:\n  pop\n  mload(0x40)\n  sub(codesize, bytecodeSize)\n  dup1\n  bytecodeSize\n  dup4\n  codecopy\n  dup2\n  dup2\n  add\n  0x40\n  mstore\n  dup2\n  add\n  swap1\n  tag_2\n  swap2\n  swap1\n  tag_3\n  jump\t// in\ntag_2:\n    /* \"D/Distributed Scans/Distributed Scans.sol\":2367:2369  _t */\n  dup1\n    /* \"D/Distributed Scans/Distributed Scans.sol\":2358:2364  target */\n  0x00\n  dup1\n    /* \"D/Distributed Scans/Distributed Scans.sol\":2358:2369  target = _t */\n  0x0100\n  exp\n  dup2\n  sload\n  dup2\n  0xffffffffffffffffffffffffffffffffffffffff\n  mul\n  not\n  and\n  swap1\n  dup4\n  0xffffffffffffffffffffffffffffffffffffffff\n  and\n  mul\n  or\n  swap1\n  sstore\n  pop\n    /* \"D/Distributed Scans/Distributed Scans.sol\":2319:2372  constructor(DistributedScansVuln _t) { target = _t; } */\n  pop\n    /* \"D/Distributed Scans/Distributed Scans.sol\":2240:2774  contract Attack_DistributedScans {... */\n  jump(tag_6)\n    /* \"#utility.yul\":88:205   */\ntag_8:\n    /* \"#utility.yul\":197:198   */\n  0x00\n    /* \"#utility.yul\":194:195   */\n  dup1\n    /* \"#utility.yul\":187:199   */\n  revert\n    /* \"#utility.yul\":334:460   */\ntag_10:\n    /* \"#utility.yul\":371:378   */\n  0x00\n    /* \"#utility.yul\":411:453   */\n  0xffffffffffffffffffffffffffffffffffffffff\n    /* \"#utility.yul\":404:409   */\n  dup3\n    /* \"#utility.yul\":400:454   */\n  and\n    /* \"#utility.yul\":389:454   */\n  swap1\n  pop\n    /* \"#utility.yul\":334:460   */\n  swap2\n  swap1\n  pop\n  jump\t// out\n    /* \"#utility.yul\":466:562   */\ntag_11:\n    /* \"#utility.yul\":503:510   */\n  0x00\n    /* \"#utility.yul\":532:556   */\n  tag_21\n    /* \"#utility.yul\":550:555   */\n  dup3\n    /* \"#utility.yul\":532:556   */\n  tag_10\n  jump\t// in\ntag_21:\n    /* \"#utility.yul\":521:556   */\n  swap1\n  pop\n    /* \"#utility.yul\":466:562   */\n  swap2\n  swap1\n  pop\n  jump\t// out\n    /* \"#utility.yul\":568:691   */\ntag_12:\n    /* \"#utility.yul\":632:639   */\n  0x00\n    /* \"#utility.yul\":661:685   */\n  tag_23\n    /* \"#utility.yul\":679:684   */\n  dup3\n    /* \"#utility.yul\":661:685   */\n  tag_11\n  jump\t// in\ntag_23:\n    /* \"#utility.yul\":650:685   */\n  swap1\n  pop\n    /* \"#utility.yul\":568:691   */\n  swap2\n  swap1\n  pop\n  jump\t// out\n    /* \"#utility.yul\":697:873   */\ntag_13:\n    /* \"#utility.yul\":797:848   */\n  tag_25\n    /* \"#utility.yul\":842:847   */\n  dup2\n    /* \"#utility.yul\":797:848   */\n  tag_12\n  jump\t// in\ntag_25:\n    /* \"#utility.yul\":790:795   */\n  dup2\n    /* \"#utility.yul\":787:849   */\n  eq\n    /* \"#utility.yul\":777:867   */\n  tag_26\n  jumpi\n    /* \"#utility.yul\":863:864   */\n  0x00\n    /* \"#utility.yul\":860:861   */\n  dup1\n    /* \"#utility.yul\":853:865   */\n  revert\n    /* \"#utility.yul\":777:867   */\ntag_26:\n    /* \"#utility.yul\":697:873   */\n  pop\n  jump\t// out\n    /* \"#utility.yul\":879:1076   */\ntag_14:\n    /* \"#utility.yul\":963:968   */\n  0x00\n    /* \"#utility.yul\":994:1000   */\n  dup2\n    /* \"#utility.yul\":988:1001   */\n  mload\n    /* \"#utility.yul\":979:1001   */\n  swap1\n  pop\n    /* \"#utility.yul\":1010:1070   */\n  tag_28\n    /* \"#utility.yul\":1064:1069   */\n  dup2\n    /* \"#utility.yul\":1010:1070   */\n  tag_13\n  jump\t// in\ntag_28:\n    /* \"#utility.yul\":879:1076   */\n  swap3\n  swap2\n  pop\n  pop\n  jump\t// out\n    /* \"#utility.yul\":1082:1487   */\ntag_3:\n    /* \"#utility.yul\":1179:1185   */\n  0x00\n    /* \"#utility.yul\":1228:1230   */\n  0x20\n    /* \"#utility.yul\":1216:1225   */\n  dup3\n    /* \"#utility.yul\":1207:1214   */\n  dup5\n    /* \"#utility.yul\":1203:1226   */\n  sub\n    /* \"#utility.yul\":1199:1231   */\n  slt\n    /* \"#utility.yul\":1196:1315   */\n  iszero\n  tag_30\n  jumpi\n    /* \"#utility.yul\":1234:1313   */\n  tag_31\n  tag_8\n  jump\t// in\ntag_31:\n    /* \"#utility.yul\":1196:1315   */\ntag_30:\n    /* \"#utility.yul\":1354:1355   */\n  0x00\n    /* \"#utility.yul\":1379:1470   */\n  tag_32\n    /* \"#utility.yul\":1462:1469   */\n  dup5\n    /* \"#utility.yul\":1453:1459   */\n  dup3\n    /* \"#utility.yul\":1442:1451   */\n  dup6\n    /* \"#utility.yul\":1438:1460   */\n  add\n    /* \"#utility.yul\":1379:1470   */\n  tag_14\n  jump\t// in\ntag_32:\n    /* \"#utility.yul\":1369:1470   */\n  swap2\n  pop\n    /* \"#utility.yul\":1325:1480   */\n  pop\n    /* \"#utility.yul\":1082:1487   */\n  swap3\n  swap2\n  pop\n  pop\n  jump\t// out\n    /* \"D/Distributed Scans/Distributed Scans.sol\":2240:2774  contract Attack_DistributedScans {... */\ntag_6:\n  dataSize(sub_0)\n  dup1\n  dataOffset(sub_0)\n  0x00\n  codecopy\n  0x00\n  return\nstop\n\nsub_0: assembly {\n        /* \"D/Distributed Scans/Distributed Scans.sol\":2240:2774  contract Attack_DistributedScans {... */\n      mstore(0x40, 0x80)\n      callvalue\n      dup1\n      iszero\n      tag_1\n      jumpi\n      0x00\n      dup1\n      revert\n    tag_1:\n      pop\n      jumpi(tag_2, lt(calldatasize, 0x04))\n      shr(0xe0, calldataload(0x00))\n      dup1\n      0x51b555f7\n      eq\n      tag_3\n      jumpi\n      dup1\n      0xba764335\n      eq\n      tag_4\n      jumpi\n      dup1\n      0xd4b83992\n      eq\n      tag_5\n      jumpi\n    tag_2:\n      0x00\n      dup1\n      revert\n        /* \"D/Distributed Scans/Distributed Scans.sol\":2424:2605  function floodScan(address to, DistributedScanType dtype, uint256 count) external {... */\n    tag_3:\n      tag_6\n      0x04\n      dup1\n      calldatasize\n      sub\n      dup2\n      add\n      swap1\n      tag_7\n      swap2\n      swap1\n      tag_8\n      jump\t// in\n    tag_7:\n      tag_9\n      jump\t// in\n    tag_6:\n      stop\n        /* \"D/Distributed Scans/Distributed Scans.sol\":2664:2772  function spoofedScan(address to, DistributedScanType dtype) external {... */\n    tag_4:\n      tag_10\n      0x04\n      dup1\n      calldatasize\n      sub\n      dup2\n      add\n      swap1\n      tag_11\n      swap2\n      swap1\n      tag_12\n      jump\t// in\n    tag_11:\n      tag_13\n      jump\t// in\n    tag_10:\n      stop\n        /* \"D/Distributed Scans/Distributed Scans.sol\":2279:2313  DistributedScansVuln public target */\n    tag_5:\n      tag_14\n      tag_15\n      jump\t// in\n    tag_14:\n      mload(0x40)\n      tag_16\n      swap2\n      swap1\n      tag_17\n      jump\t// in\n    tag_16:\n      mload(0x40)\n      dup1\n      swap2\n      sub\n      swap1\n      return\n        /* \"D/Distributed Scans/Distributed Scans.sol\":2424:2605  function floodScan(address to, DistributedScanType dtype, uint256 count) external {... */\n    tag_9:\n        /* \"D/Distributed Scans/Distributed Scans.sol\":2521:2530  uint256 i */\n      0x00\n        /* \"D/Distributed Scans/Distributed Scans.sol\":2516:2599  for (uint256 i = 0; i < count; i++) {... */\n    tag_19:\n        /* \"D/Distributed Scans/Distributed Scans.sol\":2540:2545  count */\n      dup2\n        /* \"D/Distributed Scans/Distributed Scans.sol\":2536:2537  i */\n      dup2\n        /* \"D/Distributed Scans/Distributed Scans.sol\":2536:2545  i < count */\n      lt\n        /* \"D/Distributed Scans/Distributed Scans.sol\":2516:2599  for (uint256 i = 0; i < count; i++) {... */\n      iszero\n      tag_20\n      jumpi\n        /* \"D/Distributed Scans/Distributed Scans.sol\":2566:2572  target */\n      0x00\n      dup1\n      sload\n      swap1\n      0x0100\n      exp\n      swap1\n      div\n      0xffffffffffffffffffffffffffffffffffffffff\n      and\n        /* \"D/Distributed Scans/Distributed Scans.sol\":2566:2577  target.scan */\n      0xffffffffffffffffffffffffffffffffffffffff\n      and\n      0x265c339a\n        /* \"D/Distributed Scans/Distributed Scans.sol\":2578:2580  to */\n      dup6\n        /* \"D/Distributed Scans/Distributed Scans.sol\":2582:2587  dtype */\n      dup6\n        /* \"D/Distributed Scans/Distributed Scans.sol\":2566:2588  target.scan(to, dtype) */\n      mload(0x40)\n      dup4\n      0xffffffff\n      and\n      0xe0\n      shl\n      dup2\n      mstore\n      0x04\n      add\n      tag_22\n      swap3\n      swap2\n      swap1\n      tag_23\n      jump\t// in\n    tag_22:\n      0x00\n      mload(0x40)\n      dup1\n      dup4\n      sub\n      dup2\n      0x00\n      dup8\n      dup1\n      extcodesize\n      iszero\n      dup1\n      iszero\n      tag_24\n      jumpi\n      0x00\n      dup1\n      revert\n    tag_24:\n      pop\n      gas\n      call\n      iszero\n      dup1\n      iszero\n      tag_26\n      jumpi\n      returndatasize\n      0x00\n      dup1\n      returndatacopy\n      revert(0x00, returndatasize)\n    tag_26:\n      pop\n      pop\n      pop\n      pop\n        /* \"D/Distributed Scans/Distributed Scans.sol\":2547:2550  i++ */\n      dup1\n      dup1\n      0x01\n      add\n      swap2\n      pop\n      pop\n        /* \"D/Distributed Scans/Distributed Scans.sol\":2516:2599  for (uint256 i = 0; i < count; i++) {... */\n      jump(tag_19)\n    tag_20:\n      pop\n        /* \"D/Distributed Scans/Distributed Scans.sol\":2424:2605  function floodScan(address to, DistributedScanType dtype, uint256 count) external {... */\n      pop\n      pop\n      pop\n      jump\t// out\n        /* \"D/Distributed Scans/Distributed Scans.sol\":2664:2772  function spoofedScan(address to, DistributedScanType dtype) external {... */\n    tag_13:\n        /* \"D/Distributed Scans/Distributed Scans.sol\":2743:2749  target */\n      0x00\n      dup1\n      sload\n      swap1\n      0x0100\n      exp\n      swap1\n      div\n      0xffffffffffffffffffffffffffffffffffffffff\n      and\n        /* \"D/Distributed Scans/Distributed Scans.sol\":2743:2754  target.scan */\n      0xffffffffffffffffffffffffffffffffffffffff\n      and\n      0x265c339a\n        /* \"D/Distributed Scans/Distributed Scans.sol\":2755:2757  to */\n      dup4\n        /* \"D/Distributed Scans/Distributed Scans.sol\":2759:2764  dtype */\n      dup4\n        /* \"D/Distributed Scans/Distributed Scans.sol\":2743:2765  target.scan(to, dtype) */\n      mload(0x40)\n      dup4\n      0xffffffff\n      and\n      0xe0\n      shl\n      dup2\n      mstore\n      0x04\n      add\n      tag_28\n      swap3\n      swap2\n      swap1\n      tag_23\n      jump\t// in\n    tag_28:\n      0x00\n      mload(0x40)\n      dup1\n      dup4\n      sub\n      dup2\n      0x00\n      dup8\n      dup1\n      extcodesize\n      iszero\n      dup1\n      iszero\n      tag_29\n      jumpi\n      0x00\n      dup1\n      revert\n    tag_29:\n      pop\n      gas\n      call\n      iszero\n      dup1\n      iszero\n      tag_31\n      jumpi\n      returndatasize\n      0x00\n      dup1\n      returndatacopy\n      revert(0x00, returndatasize)\n    tag_31:\n      pop\n      pop\n      pop\n      pop\n        /* \"D/Distributed Scans/Distributed Scans.sol\":2664:2772  function spoofedScan(address to, DistributedScanType dtype) external {... */\n      pop\n      pop\n      jump\t// out\n        /* \"D/Distributed Scans/Distributed Scans.sol\":2279:2313  DistributedScansVuln public target */\n    tag_15:\n      0x00\n      dup1\n      sload\n      swap1\n      0x0100\n      exp\n      swap1\n      div\n      0xffffffffffffffffffffffffffffffffffffffff\n      and\n      dup2\n      jump\t// out\n        /* \"#utility.yul\":88:205   */\n    tag_33:\n        /* \"#utility.yul\":197:198   */\n      0x00\n        /* \"#utility.yul\":194:195   */\n      dup1\n        /* \"#utility.yul\":187:199   */\n      revert\n        /* \"#utility.yul\":334:460   */\n    tag_35:\n        /* \"#utility.yul\":371:378   */\n      0x00\n        /* \"#utility.yul\":411:453   */\n      0xffffffffffffffffffffffffffffffffffffffff\n        /* \"#utility.yul\":404:409   */\n      dup3\n        /* \"#utility.yul\":400:454   */\n      and\n        /* \"#utility.yul\":389:454   */\n      swap1\n      pop\n        /* \"#utility.yul\":334:460   */\n      swap2\n      swap1\n      pop\n      jump\t// out\n        /* \"#utility.yul\":466:562   */\n    tag_36:\n        /* \"#utility.yul\":503:510   */\n      0x00\n        /* \"#utility.yul\":532:556   */\n      tag_61\n        /* \"#utility.yul\":550:555   */\n      dup3\n        /* \"#utility.yul\":532:556   */\n      tag_35\n      jump\t// in\n    tag_61:\n        /* \"#utility.yul\":521:556   */\n      swap1\n      pop\n        /* \"#utility.yul\":466:562   */\n      swap2\n      swap1\n      pop\n      jump\t// out\n        /* \"#utility.yul\":568:690   */\n    tag_37:\n        /* \"#utility.yul\":641:665   */\n      tag_63\n        /* \"#utility.yul\":659:664   */\n      dup2\n        /* \"#utility.yul\":641:665   */\n      tag_36\n      jump\t// in\n    tag_63:\n        /* \"#utility.yul\":634:639   */\n      dup2\n        /* \"#utility.yul\":631:666   */\n      eq\n        /* \"#utility.yul\":621:684   */\n      tag_64\n      jumpi\n        /* \"#utility.yul\":680:681   */\n      0x00\n        /* \"#utility.yul\":677:678   */\n      dup1\n        /* \"#utility.yul\":670:682   */\n      revert\n        /* \"#utility.yul\":621:684   */\n    tag_64:\n        /* \"#utility.yul\":568:690   */\n      pop\n      jump\t// out\n        /* \"#utility.yul\":696:835   */\n    tag_38:\n        /* \"#utility.yul\":742:747   */\n      0x00\n        /* \"#utility.yul\":780:786   */\n      dup2\n        /* \"#utility.yul\":767:787   */\n      calldataload\n        /* \"#utility.yul\":758:787   */\n      swap1\n      pop\n        /* \"#utility.yul\":796:829   */\n      tag_66\n        /* \"#utility.yul\":823:828   */\n      dup2\n        /* \"#utility.yul\":796:829   */\n      tag_37\n      jump\t// in\n    tag_66:\n        /* \"#utility.yul\":696:835   */\n      swap3\n      swap2\n      pop\n      pop\n      jump\t// out\n        /* \"#utility.yul\":841:961   */\n    tag_39:\n        /* \"#utility.yul\":935:936   */\n      0x03\n        /* \"#utility.yul\":928:933   */\n      dup2\n        /* \"#utility.yul\":925:937   */\n      lt\n        /* \"#utility.yul\":915:955   */\n      tag_68\n      jumpi\n        /* \"#utility.yul\":951:952   */\n      0x00\n        /* \"#utility.yul\":948:949   */\n      dup1\n        /* \"#utility.yul\":941:953   */\n      revert\n        /* \"#utility.yul\":915:955   */\n    tag_68:\n        /* \"#utility.yul\":841:961   */\n      pop\n      jump\t// out\n        /* \"#utility.yul\":967:1148   */\n    tag_40:\n        /* \"#utility.yul\":1034:1039   */\n      0x00\n        /* \"#utility.yul\":1072:1078   */\n      dup2\n        /* \"#utility.yul\":1059:1079   */\n      calldataload\n        /* \"#utility.yul\":1050:1079   */\n      swap1\n      pop\n        /* \"#utility.yul\":1088:1142   */\n      tag_70\n        /* \"#utility.yul\":1136:1141   */\n      dup2\n        /* \"#utility.yul\":1088:1142   */\n      tag_39\n      jump\t// in\n    tag_70:\n        /* \"#utility.yul\":967:1148   */\n      swap3\n      swap2\n      pop\n      pop\n      jump\t// out\n        /* \"#utility.yul\":1154:1231   */\n    tag_41:\n        /* \"#utility.yul\":1191:1198   */\n      0x00\n        /* \"#utility.yul\":1220:1225   */\n      dup2\n        /* \"#utility.yul\":1209:1225   */\n      swap1\n      pop\n        /* \"#utility.yul\":1154:1231   */\n      swap2\n      swap1\n      pop\n      jump\t// out\n        /* \"#utility.yul\":1237:1359   */\n    tag_42:\n        /* \"#utility.yul\":1310:1334   */\n      tag_73\n        /* \"#utility.yul\":1328:1333   */\n      dup2\n        /* \"#utility.yul\":1310:1334   */\n      tag_41\n      jump\t// in\n    tag_73:\n        /* \"#utility.yul\":1303:1308   */\n      dup2\n        /* \"#utility.yul\":1300:1335   */\n      eq\n        /* \"#utility.yul\":1290:1353   */\n      tag_74\n      jumpi\n        /* \"#utility.yul\":1349:1350   */\n      0x00\n        /* \"#utility.yul\":1346:1347   */\n      dup1\n        /* \"#utility.yul\":1339:1351   */\n      revert\n        /* \"#utility.yul\":1290:1353   */\n    tag_74:\n        /* \"#utility.yul\":1237:1359   */\n      pop\n      jump\t// out\n        /* \"#utility.yul\":1365:1504   */\n    tag_43:\n        /* \"#utility.yul\":1411:1416   */\n      0x00\n        /* \"#utility.yul\":1449:1455   */\n      dup2\n        /* \"#utility.yul\":1436:1456   */\n      calldataload\n        /* \"#utility.yul\":1427:1456   */\n      swap1\n      pop\n        /* \"#utility.yul\":1465:1498   */\n      tag_76\n        /* \"#utility.yul\":1492:1497   */\n      dup2\n        /* \"#utility.yul\":1465:1498   */\n      tag_42\n      jump\t// in\n    tag_76:\n        /* \"#utility.yul\":1365:1504   */\n      swap3\n      swap2\n      pop\n      pop\n      jump\t// out\n        /* \"#utility.yul\":1510:2171   */\n    tag_8:\n        /* \"#utility.yul\":1608:1614   */\n      0x00\n        /* \"#utility.yul\":1616:1622   */\n      dup1\n        /* \"#utility.yul\":1624:1630   */\n      0x00\n        /* \"#utility.yul\":1673:1675   */\n      0x60\n        /* \"#utility.yul\":1661:1670   */\n      dup5\n        /* \"#utility.yul\":1652:1659   */\n      dup7\n        /* \"#utility.yul\":1648:1671   */\n      sub\n        /* \"#utility.yul\":1644:1676   */\n      slt\n        /* \"#utility.yul\":1641:1760   */\n      iszero\n      tag_78\n      jumpi\n        /* \"#utility.yul\":1679:1758   */\n      tag_79\n      tag_33\n      jump\t// in\n    tag_79:\n        /* \"#utility.yul\":1641:1760   */\n    tag_78:\n        /* \"#utility.yul\":1799:1800   */\n      0x00\n        /* \"#utility.yul\":1824:1877   */\n      tag_80\n        /* \"#utility.yul\":1869:1876   */\n      dup7\n        /* \"#utility.yul\":1860:1866   */\n      dup3\n        /* \"#utility.yul\":1849:1858   */\n      dup8\n        /* \"#utility.yul\":1845:1867   */\n      add\n        /* \"#utility.yul\":1824:1877   */\n      tag_38\n      jump\t// in\n    tag_80:\n        /* \"#utility.yul\":1814:1877   */\n      swap4\n      pop\n        /* \"#utility.yul\":1770:1887   */\n      pop\n        /* \"#utility.yul\":1926:1928   */\n      0x20\n        /* \"#utility.yul\":1952:2026   */\n      tag_81\n        /* \"#utility.yul\":2018:2025   */\n      dup7\n        /* \"#utility.yul\":2009:2015   */\n      dup3\n        /* \"#utility.yul\":1998:2007   */\n      dup8\n        /* \"#utility.yul\":1994:2016   */\n      add\n        /* \"#utility.yul\":1952:2026   */\n      tag_40\n      jump\t// in\n    tag_81:\n        /* \"#utility.yul\":1942:2026   */\n      swap3\n      pop\n        /* \"#utility.yul\":1897:2036   */\n      pop\n        /* \"#utility.yul\":2075:2077   */\n      0x40\n        /* \"#utility.yul\":2101:2154   */\n      tag_82\n        /* \"#utility.yul\":2146:2153   */\n      dup7\n        /* \"#utility.yul\":2137:2143   */\n      dup3\n        /* \"#utility.yul\":2126:2135   */\n      dup8\n        /* \"#utility.yul\":2122:2144   */\n      add\n        /* \"#utility.yul\":2101:2154   */\n      tag_43\n      jump\t// in\n    tag_82:\n        /* \"#utility.yul\":2091:2154   */\n      swap2\n      pop\n        /* \"#utility.yul\":2046:2164   */\n      pop\n        /* \"#utility.yul\":1510:2171   */\n      swap3\n      pop\n      swap3\n      pop\n      swap3\n      jump\t// out\n        /* \"#utility.yul\":2177:2693   */\n    tag_12:\n        /* \"#utility.yul\":2266:2272   */\n      0x00\n        /* \"#utility.yul\":2274:2280   */\n      dup1\n        /* \"#utility.yul\":2323:2325   */\n      0x40\n        /* \"#utility.yul\":2311:2320   */\n      dup4\n        /* \"#utility.yul\":2302:2309   */\n      dup6\n        /* \"#utility.yul\":2298:2321   */\n      sub\n        /* \"#utility.yul\":2294:2326   */\n      slt\n        /* \"#utility.yul\":2291:2410   */\n      iszero\n      tag_84\n      jumpi\n        /* \"#utility.yul\":2329:2408   */\n      tag_85\n      tag_33\n      jump\t// in\n    tag_85:\n        /* \"#utility.yul\":2291:2410   */\n    tag_84:\n        /* \"#utility.yul\":2449:2450   */\n      0x00\n        /* \"#utility.yul\":2474:2527   */\n      tag_86\n        /* \"#utility.yul\":2519:2526   */\n      dup6\n        /* \"#utility.yul\":2510:2516   */\n      dup3\n        /* \"#utility.yul\":2499:2508   */\n      dup7\n        /* \"#utility.yul\":2495:2517   */\n      add\n        /* \"#utility.yul\":2474:2527   */\n      tag_38\n      jump\t// in\n    tag_86:\n        /* \"#utility.yul\":2464:2527   */\n      swap3\n      pop\n        /* \"#utility.yul\":2420:2537   */\n      pop\n        /* \"#utility.yul\":2576:2578   */\n      0x20\n        /* \"#utility.yul\":2602:2676   */\n      tag_87\n        /* \"#utility.yul\":2668:2675   */\n      dup6\n        /* \"#utility.yul\":2659:2665   */\n      dup3\n        /* \"#utility.yul\":2648:2657   */\n      dup7\n        /* \"#utility.yul\":2644:2666   */\n      add\n        /* \"#utility.yul\":2602:2676   */\n      tag_40\n      jump\t// in\n    tag_87:\n        /* \"#utility.yul\":2592:2676   */\n      swap2\n      pop\n        /* \"#utility.yul\":2547:2686   */\n      pop\n        /* \"#utility.yul\":2177:2693   */\n      swap3\n      pop\n      swap3\n      swap1\n      pop\n      jump\t// out\n        /* \"#utility.yul\":2699:2759   */\n    tag_44:\n        /* \"#utility.yul\":2727:2730   */\n      0x00\n        /* \"#utility.yul\":2748:2753   */\n      dup2\n        /* \"#utility.yul\":2741:2753   */\n      swap1\n      pop\n        /* \"#utility.yul\":2699:2759   */\n      swap2\n      swap1\n      pop\n      jump\t// out\n        /* \"#utility.yul\":2765:2907   */\n    tag_45:\n        /* \"#utility.yul\":2815:2824   */\n      0x00\n        /* \"#utility.yul\":2848:2901   */\n      tag_90\n        /* \"#utility.yul\":2866:2900   */\n      tag_91\n        /* \"#utility.yul\":2875:2899   */\n      tag_92\n        /* \"#utility.yul\":2893:2898   */\n      dup5\n        /* \"#utility.yul\":2875:2899   */\n      tag_35\n      jump\t// in\n    tag_92:\n        /* \"#utility.yul\":2866:2900   */\n      tag_44\n      jump\t// in\n    tag_91:\n        /* \"#utility.yul\":2848:2901   */\n      tag_35\n      jump\t// in\n    tag_90:\n        /* \"#utility.yul\":2835:2901   */\n      swap1\n      pop\n        /* \"#utility.yul\":2765:2907   */\n      swap2\n      swap1\n      pop\n      jump\t// out\n        /* \"#utility.yul\":2913:3039   */\n    tag_46:\n        /* \"#utility.yul\":2963:2972   */\n      0x00\n        /* \"#utility.yul\":2996:3033   */\n      tag_94\n        /* \"#utility.yul\":3027:3032   */\n      dup3\n        /* \"#utility.yul\":2996:3033   */\n      tag_45\n      jump\t// in\n    tag_94:\n        /* \"#utility.yul\":2983:3033   */\n      swap1\n      pop\n        /* \"#utility.yul\":2913:3039   */\n      swap2\n      swap1\n      pop\n      jump\t// out\n        /* \"#utility.yul\":3045:3198   */\n    tag_47:\n        /* \"#utility.yul\":3122:3131   */\n      0x00\n        /* \"#utility.yul\":3155:3192   */\n      tag_96\n        /* \"#utility.yul\":3186:3191   */\n      dup3\n        /* \"#utility.yul\":3155:3192   */\n      tag_46\n      jump\t// in\n    tag_96:\n        /* \"#utility.yul\":3142:3192   */\n      swap1\n      pop\n        /* \"#utility.yul\":3045:3198   */\n      swap2\n      swap1\n      pop\n      jump\t// out\n        /* \"#utility.yul\":3204:3389   */\n    tag_48:\n        /* \"#utility.yul\":3318:3382   */\n      tag_98\n        /* \"#utility.yul\":3376:3381   */\n      dup2\n        /* \"#utility.yul\":3318:3382   */\n      tag_47\n      jump\t// in\n    tag_98:\n        /* \"#utility.yul\":3313:3316   */\n      dup3\n        /* \"#utility.yul\":3306:3383   */\n      mstore\n        /* \"#utility.yul\":3204:3389   */\n      pop\n      pop\n      jump\t// out\n        /* \"#utility.yul\":3395:3671   */\n    tag_17:\n        /* \"#utility.yul\":3515:3519   */\n      0x00\n        /* \"#utility.yul\":3553:3555   */\n      0x20\n        /* \"#utility.yul\":3542:3551   */\n      dup3\n        /* \"#utility.yul\":3538:3556   */\n      add\n        /* \"#utility.yul\":3530:3556   */\n      swap1\n      pop\n        /* \"#utility.yul\":3566:3664   */\n      tag_100\n        /* \"#utility.yul\":3661:3662   */\n      0x00\n        /* \"#utility.yul\":3650:3659   */\n      dup4\n        /* \"#utility.yul\":3646:3663   */\n      add\n        /* \"#utility.yul\":3637:3643   */\n      dup5\n        /* \"#utility.yul\":3566:3664   */\n      tag_48\n      jump\t// in\n    tag_100:\n        /* \"#utility.yul\":3395:3671   */\n      swap3\n      swap2\n      pop\n      pop\n      jump\t// out\n        /* \"#utility.yul\":3677:3795   */\n    tag_49:\n        /* \"#utility.yul\":3764:3788   */\n      tag_102\n        /* \"#utility.yul\":3782:3787   */\n      dup2\n        /* \"#utility.yul\":3764:3788   */\n      tag_36\n      jump\t// in\n    tag_102:\n        /* \"#utility.yul\":3759:3762   */\n      dup3\n        /* \"#utility.yul\":3752:3789   */\n      mstore\n        /* \"#utility.yul\":3677:3795   */\n      pop\n      pop\n      jump\t// out\n        /* \"#utility.yul\":3801:3981   */\n    tag_50:\n        /* \"#utility.yul\":3849:3926   */\n      0x4e487b7100000000000000000000000000000000000000000000000000000000\n        /* \"#utility.yul\":3846:3847   */\n      0x00\n        /* \"#utility.yul\":3839:3927   */\n      mstore\n        /* \"#utility.yul\":3946:3950   */\n      0x21\n        /* \"#utility.yul\":3943:3944   */\n      0x04\n        /* \"#utility.yul\":3936:3951   */\n      mstore\n        /* \"#utility.yul\":3970:3974   */\n      0x24\n        /* \"#utility.yul\":3967:3968   */\n      0x00\n        /* \"#utility.yul\":3960:3975   */\n      revert\n        /* \"#utility.yul\":3987:4113   */\n    tag_51:\n        /* \"#utility.yul\":4081:4082   */\n      0x03\n        /* \"#utility.yul\":4074:4079   */\n      dup2\n        /* \"#utility.yul\":4071:4083   */\n      lt\n        /* \"#utility.yul\":4061:4107   */\n      tag_105\n      jumpi\n        /* \"#utility.yul\":4087:4105   */\n      tag_106\n      tag_50\n      jump\t// in\n    tag_106:\n        /* \"#utility.yul\":4061:4107   */\n    tag_105:\n        /* \"#utility.yul\":3987:4113   */\n      pop\n      jump\t// out\n        /* \"#utility.yul\":4119:4272   */\n    tag_52:\n        /* \"#utility.yul\":4177:4184   */\n      0x00\n        /* \"#utility.yul\":4206:4211   */\n      dup2\n        /* \"#utility.yul\":4195:4211   */\n      swap1\n      pop\n        /* \"#utility.yul\":4212:4266   */\n      tag_108\n        /* \"#utility.yul\":4260:4265   */\n      dup3\n        /* \"#utility.yul\":4212:4266   */\n      tag_51\n      jump\t// in\n    tag_108:\n        /* \"#utility.yul\":4119:4272   */\n      swap2\n      swap1\n      pop\n      jump\t// out\n        /* \"#utility.yul\":4278:4431   */\n    tag_53:\n        /* \"#utility.yul\":4347:4356   */\n      0x00\n        /* \"#utility.yul\":4380:4425   */\n      tag_110\n        /* \"#utility.yul\":4419:4424   */\n      dup3\n        /* \"#utility.yul\":4380:4425   */\n      tag_52\n      jump\t// in\n    tag_110:\n        /* \"#utility.yul\":4367:4425   */\n      swap1\n      pop\n        /* \"#utility.yul\":4278:4431   */\n      swap2\n      swap1\n      pop\n      jump\t// out\n        /* \"#utility.yul\":4437:4606   */\n    tag_54:\n        /* \"#utility.yul\":4543:4599   */\n      tag_112\n        /* \"#utility.yul\":4593:4598   */\n      dup2\n        /* \"#utility.yul\":4543:4599   */\n      tag_53\n      jump\t// in\n    tag_112:\n        /* \"#utility.yul\":4538:4541   */\n      dup3\n        /* \"#utility.yul\":4531:4600   */\n      mstore\n        /* \"#utility.yul\":4437:4606   */\n      pop\n      pop\n      jump\t// out\n        /* \"#utility.yul\":4612:4982   */\n    tag_23:\n        /* \"#utility.yul\":4752:4756   */\n      0x00\n        /* \"#utility.yul\":4790:4792   */\n      0x40\n        /* \"#utility.yul\":4779:4788   */\n      dup3\n        /* \"#utility.yul\":4775:4793   */\n      add\n        /* \"#utility.yul\":4767:4793   */\n      swap1\n      pop\n        /* \"#utility.yul\":4803:4874   */\n      tag_114\n        /* \"#utility.yul\":4871:4872   */\n      0x00\n        /* \"#utility.yul\":4860:4869   */\n      dup4\n        /* \"#utility.yul\":4856:4873   */\n      add\n        /* \"#utility.yul\":4847:4853   */\n      dup6\n        /* \"#utility.yul\":4803:4874   */\n      tag_49\n      jump\t// in\n    tag_114:\n        /* \"#utility.yul\":4884:4975   */\n      tag_115\n        /* \"#utility.yul\":4971:4973   */\n      0x20\n        /* \"#utility.yul\":4960:4969   */\n      dup4\n        /* \"#utility.yul\":4956:4974   */\n      add\n        /* \"#utility.yul\":4947:4953   */\n      dup5\n        /* \"#utility.yul\":4884:4975   */\n      tag_54\n      jump\t// in\n    tag_115:\n        /* \"#utility.yul\":4612:4982   */\n      swap4\n      swap3\n      pop\n      pop\n      pop\n      jump\t// out\n\n    auxdata: 0xa264697066735822122000495bd1511b0510aee8fca97ace9b1e8b7e3f5aa4dbd2ee8d3af1e1d0caf04264736f6c634300081a0033\n}\n",
				"bytecode": {
					"linkReferences": {},
					"object": "608060405234801561000f575f80fd5b5060405161059d38038061059d833981810160405281019061003191906100e5565b805f806101000a81548173ffffffffffffffffffffffffffffffffffffffff021916908373ffffffffffffffffffffffffffffffffffffffff16021790555050610110565b5f80fd5b5f73ffffffffffffffffffffffffffffffffffffffff82169050919050565b5f6100a38261007a565b9050919050565b5f6100b482610099565b9050919050565b6100c4816100aa565b81146100ce575f80fd5b50565b5f815190506100df816100bb565b92915050565b5f602082840312156100fa576100f9610076565b5b5f610107848285016100d1565b91505092915050565b6104808061011d5f395ff3fe608060405234801561000f575f80fd5b506004361061003f575f3560e01c806351b555f714610043578063ba7643351461005f578063d4b839921461007b575b5f80fd5b61005d6004803603810190610058919061029f565b610099565b005b610079600480360381019061007491906102ef565b61013d565b005b6100836101c8565b6040516100909190610388565b60405180910390f35b5f5b81811015610137575f8054906101000a900473ffffffffffffffffffffffffffffffffffffffff1673ffffffffffffffffffffffffffffffffffffffff1663265c339a85856040518363ffffffff1660e01b81526004016100fd929190610423565b5f604051808303815f87803b158015610114575f80fd5b505af1158015610126573d5f803e3d5ffd5b50505050808060010191505061009b565b50505050565b5f8054906101000a900473ffffffffffffffffffffffffffffffffffffffff1673ffffffffffffffffffffffffffffffffffffffff1663265c339a83836040518363ffffffff1660e01b8152600401610197929190610423565b5f604051808303815f87803b1580156101ae575f80fd5b505af11580156101c0573d5f803e3d5ffd5b505050505050565b5f8054906101000a900473ffffffffffffffffffffffffffffffffffffffff1681565b5f80fd5b5f73ffffffffffffffffffffffffffffffffffffffff82169050919050565b5f610218826101ef565b9050919050565b6102288161020e565b8114610232575f80fd5b50565b5f813590506102438161021f565b92915050565b60038110610255575f80fd5b50565b5f8135905061026681610249565b92915050565b5f819050919050565b61027e8161026c565b8114610288575f80fd5b50565b5f8135905061029981610275565b92915050565b5f805f606084860312156102b6576102b56101eb565b5b5f6102c386828701610235565b93505060206102d486828701610258565b92505060406102e58682870161028b565b9150509250925092565b5f8060408385031215610305576103046101eb565b5b5f61031285828601610235565b925050602061032385828601610258565b9150509250929050565b5f819050919050565b5f61035061034b610346846101ef565b61032d565b6101ef565b9050919050565b5f61036182610336565b9050919050565b5f61037282610357565b9050919050565b61038281610368565b82525050565b5f60208201905061039b5f830184610379565b92915050565b6103aa8161020e565b82525050565b7f4e487b71000000000000000000000000000000000000000000000000000000005f52602160045260245ffd5b600381106103ee576103ed6103b0565b5b50565b5f8190506103fe826103dd565b919050565b5f61040d826103f1565b9050919050565b61041d81610403565b82525050565b5f6040820190506104365f8301856103a1565b6104436020830184610414565b939250505056fea264697066735822122000495bd1511b0510aee8fca97ace9b1e8b7e3f5aa4dbd2ee8d3af1e1d0caf04264736f6c634300081a0033",
					"opcodes": "PUSH1 0x80 PUSH1 0x40 MSTORE CALLVALUE DUP1 ISZERO PUSH2 0xF JUMPI PUSH0 DUP1 REVERT JUMPDEST POP PUSH1 0x40 MLOAD PUSH2 0x59D CODESIZE SUB DUP1 PUSH2 0x59D DUP4 CODECOPY DUP2 DUP2 ADD PUSH1 0x40 MSTORE DUP2 ADD SWAP1 PUSH2 0x31 SWAP2 SWAP1 PUSH2 0xE5 JUMP JUMPDEST DUP1 PUSH0 DUP1 PUSH2 0x100 EXP DUP2 SLOAD DUP2 PUSH20 0xFFFFFFFFFFFFFFFFFFFFFFFFFFFFFFFFFFFFFFFF MUL NOT AND SWAP1 DUP4 PUSH20 0xFFFFFFFFFFFFFFFFFFFFFFFFFFFFFFFFFFFFFFFF AND MUL OR SWAP1 SSTORE POP POP PUSH2 0x110 JUMP JUMPDEST PUSH0 DUP1 REVERT JUMPDEST PUSH0 PUSH20 0xFFFFFFFFFFFFFFFFFFFFFFFFFFFFFFFFFFFFFFFF DUP3 AND SWAP1 POP SWAP2 SWAP1 POP JUMP JUMPDEST PUSH0 PUSH2 0xA3 DUP3 PUSH2 0x7A JUMP JUMPDEST SWAP1 POP SWAP2 SWAP1 POP JUMP JUMPDEST PUSH0 PUSH2 0xB4 DUP3 PUSH2 0x99 JUMP JUMPDEST SWAP1 POP SWAP2 SWAP1 POP JUMP JUMPDEST PUSH2 0xC4 DUP2 PUSH2 0xAA JUMP JUMPDEST DUP2 EQ PUSH2 0xCE JUMPI PUSH0 DUP1 REVERT JUMPDEST POP JUMP JUMPDEST PUSH0 DUP2 MLOAD SWAP1 POP PUSH2 0xDF DUP2 PUSH2 0xBB JUMP JUMPDEST SWAP3 SWAP2 POP POP JUMP JUMPDEST PUSH0 PUSH1 0x20 DUP3 DUP5 SUB SLT ISZERO PUSH2 0xFA JUMPI PUSH2 0xF9 PUSH2 0x76 JUMP JUMPDEST JUMPDEST PUSH0 PUSH2 0x107 DUP5 DUP3 DUP6 ADD PUSH2 0xD1 JUMP JUMPDEST SWAP2 POP POP SWAP3 SWAP2 POP POP JUMP JUMPDEST PUSH2 0x480 DUP1 PUSH2 0x11D PUSH0 CODECOPY PUSH0 RETURN INVALID PUSH1 0x80 PUSH1 0x40 MSTORE CALLVALUE DUP1 ISZERO PUSH2 0xF JUMPI PUSH0 DUP1 REVERT JUMPDEST POP PUSH1 0x4 CALLDATASIZE LT PUSH2 0x3F JUMPI PUSH0 CALLDATALOAD PUSH1 0xE0 SHR DUP1 PUSH4 0x51B555F7 EQ PUSH2 0x43 JUMPI DUP1 PUSH4 0xBA764335 EQ PUSH2 0x5F JUMPI DUP1 PUSH4 0xD4B83992 EQ PUSH2 0x7B JUMPI JUMPDEST PUSH0 DUP1 REVERT JUMPDEST PUSH2 0x5D PUSH1 0x4 DUP1 CALLDATASIZE SUB DUP2 ADD SWAP1 PUSH2 0x58 SWAP2 SWAP1 PUSH2 0x29F JUMP JUMPDEST PUSH2 0x99 JUMP JUMPDEST STOP JUMPDEST PUSH2 0x79 PUSH1 0x4 DUP1 CALLDATASIZE SUB DUP2 ADD SWAP1 PUSH2 0x74 SWAP2 SWAP1 PUSH2 0x2EF JUMP JUMPDEST PUSH2 0x13D JUMP JUMPDEST STOP JUMPDEST PUSH2 0x83 PUSH2 0x1C8 JUMP JUMPDEST PUSH1 0x40 MLOAD PUSH2 0x90 SWAP2 SWAP1 PUSH2 0x388 JUMP JUMPDEST PUSH1 0x40 MLOAD DUP1 SWAP2 SUB SWAP1 RETURN JUMPDEST PUSH0 JUMPDEST DUP2 DUP2 LT ISZERO PUSH2 0x137 JUMPI PUSH0 DUP1 SLOAD SWAP1 PUSH2 0x100 EXP SWAP1 DIV PUSH20 0xFFFFFFFFFFFFFFFFFFFFFFFFFFFFFFFFFFFFFFFF AND PUSH20 0xFFFFFFFFFFFFFFFFFFFFFFFFFFFFFFFFFFFFFFFF AND PUSH4 0x265C339A DUP6 DUP6 PUSH1 0x40 MLOAD DUP4 PUSH4 0xFFFFFFFF AND PUSH1 0xE0 SHL DUP2 MSTORE PUSH1 0x4 ADD PUSH2 0xFD SWAP3 SWAP2 SWAP1 PUSH2 0x423 JUMP JUMPDEST PUSH0 PUSH1 0x40 MLOAD DUP1 DUP4 SUB DUP2 PUSH0 DUP8 DUP1 EXTCODESIZE ISZERO DUP1 ISZERO PUSH2 0x114 JUMPI PUSH0 DUP1 REVERT JUMPDEST POP GAS CALL ISZERO DUP1 ISZERO PUSH2 0x126 JUMPI RETURNDATASIZE PUSH0 DUP1 RETURNDATACOPY RETURNDATASIZE PUSH0 REVERT JUMPDEST POP POP POP POP DUP1 DUP1 PUSH1 0x1 ADD SWAP2 POP POP PUSH2 0x9B JUMP JUMPDEST POP POP POP POP JUMP JUMPDEST PUSH0 DUP1 SLOAD SWAP1 PUSH2 0x100 EXP SWAP1 DIV PUSH20 0xFFFFFFFFFFFFFFFFFFFFFFFFFFFFFFFFFFFFFFFF AND PUSH20 0xFFFFFFFFFFFFFFFFFFFFFFFFFFFFFFFFFFFFFFFF AND PUSH4 0x265C339A DUP4 DUP4 PUSH1 0x40 MLOAD DUP4 PUSH4 0xFFFFFFFF AND PUSH1 0xE0 SHL DUP2 MSTORE PUSH1 0x4 ADD PUSH2 0x197 SWAP3 SWAP2 SWAP1 PUSH2 0x423 JUMP JUMPDEST PUSH0 PUSH1 0x40 MLOAD DUP1 DUP4 SUB DUP2 PUSH0 DUP8 DUP1 EXTCODESIZE ISZERO DUP1 ISZERO PUSH2 0x1AE JUMPI PUSH0 DUP1 REVERT JUMPDEST POP GAS CALL ISZERO DUP1 ISZERO PUSH2 0x1C0 JUMPI RETURNDATASIZE PUSH0 DUP1 RETURNDATACOPY RETURNDATASIZE PUSH0 REVERT JUMPDEST POP POP POP POP POP POP JUMP JUMPDEST PUSH0 DUP1 SLOAD SWAP1 PUSH2 0x100 EXP SWAP1 DIV PUSH20 0xFFFFFFFFFFFFFFFFFFFFFFFFFFFFFFFFFFFFFFFF AND DUP2 JUMP JUMPDEST PUSH0 DUP1 REVERT JUMPDEST PUSH0 PUSH20 0xFFFFFFFFFFFFFFFFFFFFFFFFFFFFFFFFFFFFFFFF DUP3 AND SWAP1 POP SWAP2 SWAP1 POP JUMP JUMPDEST PUSH0 PUSH2 0x218 DUP3 PUSH2 0x1EF JUMP JUMPDEST SWAP1 POP SWAP2 SWAP1 POP JUMP JUMPDEST PUSH2 0x228 DUP2 PUSH2 0x20E JUMP JUMPDEST DUP2 EQ PUSH2 0x232 JUMPI PUSH0 DUP1 REVERT JUMPDEST POP JUMP JUMPDEST PUSH0 DUP2 CALLDATALOAD SWAP1 POP PUSH2 0x243 DUP2 PUSH2 0x21F JUMP JUMPDEST SWAP3 SWAP2 POP POP JUMP JUMPDEST PUSH1 0x3 DUP2 LT PUSH2 0x255 JUMPI PUSH0 DUP1 REVERT JUMPDEST POP JUMP JUMPDEST PUSH0 DUP2 CALLDATALOAD SWAP1 POP PUSH2 0x266 DUP2 PUSH2 0x249 JUMP JUMPDEST SWAP3 SWAP2 POP POP JUMP JUMPDEST PUSH0 DUP2 SWAP1 POP SWAP2 SWAP1 POP JUMP JUMPDEST PUSH2 0x27E DUP2 PUSH2 0x26C JUMP JUMPDEST DUP2 EQ PUSH2 0x288 JUMPI PUSH0 DUP1 REVERT JUMPDEST POP JUMP JUMPDEST PUSH0 DUP2 CALLDATALOAD SWAP1 POP PUSH2 0x299 DUP2 PUSH2 0x275 JUMP JUMPDEST SWAP3 SWAP2 POP POP JUMP JUMPDEST PUSH0 DUP1 PUSH0 PUSH1 0x60 DUP5 DUP7 SUB SLT ISZERO PUSH2 0x2B6 JUMPI PUSH2 0x2B5 PUSH2 0x1EB JUMP JUMPDEST JUMPDEST PUSH0 PUSH2 0x2C3 DUP7 DUP3 DUP8 ADD PUSH2 0x235 JUMP JUMPDEST SWAP4 POP POP PUSH1 0x20 PUSH2 0x2D4 DUP7 DUP3 DUP8 ADD PUSH2 0x258 JUMP JUMPDEST SWAP3 POP POP PUSH1 0x40 PUSH2 0x2E5 DUP7 DUP3 DUP8 ADD PUSH2 0x28B JUMP JUMPDEST SWAP2 POP POP SWAP3 POP SWAP3 POP SWAP3 JUMP JUMPDEST PUSH0 DUP1 PUSH1 0x40 DUP4 DUP6 SUB SLT ISZERO PUSH2 0x305 JUMPI PUSH2 0x304 PUSH2 0x1EB JUMP JUMPDEST JUMPDEST PUSH0 PUSH2 0x312 DUP6 DUP3 DUP7 ADD PUSH2 0x235 JUMP JUMPDEST SWAP3 POP POP PUSH1 0x20 PUSH2 0x323 DUP6 DUP3 DUP7 ADD PUSH2 0x258 JUMP JUMPDEST SWAP2 POP POP SWAP3 POP SWAP3 SWAP1 POP JUMP JUMPDEST PUSH0 DUP2 SWAP1 POP SWAP2 SWAP1 POP JUMP JUMPDEST PUSH0 PUSH2 0x350 PUSH2 0x34B PUSH2 0x346 DUP5 PUSH2 0x1EF JUMP JUMPDEST PUSH2 0x32D JUMP JUMPDEST PUSH2 0x1EF JUMP JUMPDEST SWAP1 POP SWAP2 SWAP1 POP JUMP JUMPDEST PUSH0 PUSH2 0x361 DUP3 PUSH2 0x336 JUMP JUMPDEST SWAP1 POP SWAP2 SWAP1 POP JUMP JUMPDEST PUSH0 PUSH2 0x372 DUP3 PUSH2 0x357 JUMP JUMPDEST SWAP1 POP SWAP2 SWAP1 POP JUMP JUMPDEST PUSH2 0x382 DUP2 PUSH2 0x368 JUMP JUMPDEST DUP3 MSTORE POP POP JUMP JUMPDEST PUSH0 PUSH1 0x20 DUP3 ADD SWAP1 POP PUSH2 0x39B PUSH0 DUP4 ADD DUP5 PUSH2 0x379 JUMP JUMPDEST SWAP3 SWAP2 POP POP JUMP JUMPDEST PUSH2 0x3AA DUP2 PUSH2 0x20E JUMP JUMPDEST DUP3 MSTORE POP POP JUMP JUMPDEST PUSH32 0x4E487B7100000000000000000000000000000000000000000000000000000000 PUSH0 MSTORE PUSH1 0x21 PUSH1 0x4 MSTORE PUSH1 0x24 PUSH0 REVERT JUMPDEST PUSH1 0x3 DUP2 LT PUSH2 0x3EE JUMPI PUSH2 0x3ED PUSH2 0x3B0 JUMP JUMPDEST JUMPDEST POP JUMP JUMPDEST PUSH0 DUP2 SWAP1 POP PUSH2 0x3FE DUP3 PUSH2 0x3DD JUMP JUMPDEST SWAP2 SWAP1 POP JUMP JUMPDEST PUSH0 PUSH2 0x40D DUP3 PUSH2 0x3F1 JUMP JUMPDEST SWAP1 POP SWAP2 SWAP1 POP JUMP JUMPDEST PUSH2 0x41D DUP2 PUSH2 0x403 JUMP JUMPDEST DUP3 MSTORE POP POP JUMP JUMPDEST PUSH0 PUSH1 0x40 DUP3 ADD SWAP1 POP PUSH2 0x436 PUSH0 DUP4 ADD DUP6 PUSH2 0x3A1 JUMP JUMPDEST PUSH2 0x443 PUSH1 0x20 DUP4 ADD DUP5 PUSH2 0x414 JUMP JUMPDEST SWAP4 SWAP3 POP POP POP JUMP INVALID LOG2 PUSH5 0x6970667358 0x22 SLT KECCAK256 STOP BLOBHASH JUMPDEST 0xD1 MLOAD SHL SDIV LT 0xAE 0xE8 0xFC 0xA9 PUSH27 0xCE9B1E8B7E3F5AA4DBD2EE8D3AF1E1D0CAF04264736F6C63430008 BYTE STOP CALLER "
				},
				"gasEstimates": {
					"creation": {
						"codeDepositCost": "230400",
						"executionCost": "infinite",
						"totalCost": "infinite"
					},
					"external": {
						"floodScan(address,uint8,uint256)": "infinite",
						"spoofedScan(address,uint8)": "infinite",
						"target()": "infinite"
					}
				},
				"methodIdentifiers": {
					"floodScan(address,uint8,uint256)": "51b555f7",
					"spoofedScan(address,uint8)": "ba764335",
					"target()": "d4b83992"
				}
			},
			"storageLayout": {
				"storage": [
					{
						"astId": 56,
						"contract": "D/Distributed Scans/Distributed Scans.sol:Attack_DistributedScans",
						"label": "target",
						"offset": 0,
						"slot": "0",
						"type": "t_contract(DistributedScansVuln)52"
					}
				],
				"types": {
					"t_contract(DistributedScansVuln)52": {
						"encoding": "inplace",
						"label": "contract DistributedScansVuln",
						"numberOfBytes": "20"
					}
				}
			},
			"userdoc": {
				"kind": "user",
				"methods": {
					"floodScan(address,uint8,uint256)": {
						"notice": "flood many scans to exhaust resources"
					},
					"spoofedScan(address,uint8)": {
						"notice": "stub for IP spoofing scan (emits same event)"
					}
				},
				"notice": "───────────────────────────────────────────────────────────────────────────── 2) ATTACK STUB: flood scans and spoofing    • Attack: ResourceExhaustion, IPSpoofing ─────────────────────────────────────────────────────────────────────────────",
				"version": 1
			}
		}
	}
}