{
	"D/Distributed Scans/Distributed Scans.sol": {
		"DistributedScansSafeHoneypot": {
			"abi": [
				{
					"inputs": [],
					"name": "DSN__FalsePositive",
					"type": "error"
				},
				{
					"anonymous": false,
					"inputs": [
						{
							"indexed": true,
							"internalType": "address",
							"name": "by",
							"type": "address"
						},
						{
							"indexed": true,
							"internalType": "address",
							"name": "target",
							"type": "address"
						}
					],
					"name": "HoneypotAlert",
					"type": "event"
				},
				{
					"anonymous": false,
					"inputs": [
						{
							"indexed": true,
							"internalType": "address",
							"name": "by",
							"type": "address"
						},
						{
							"indexed": true,
							"internalType": "address",
							"name": "target",
							"type": "address"
						},
						{
							"indexed": false,
							"internalType": "enum DistributedScanType",
							"name": "dtype",
							"type": "uint8"
						},
						{
							"indexed": false,
							"internalType": "enum DistributedScanDefenseType",
							"name": "defense",
							"type": "uint8"
						}
					],
					"name": "ScanPerformed",
					"type": "event"
				},
				{
					"inputs": [
						{
							"internalType": "address",
							"name": "target",
							"type": "address"
						},
						{
							"internalType": "enum DistributedScanType",
							"name": "dtype",
							"type": "uint8"
						}
					],
					"name": "scan",
					"outputs": [],
					"stateMutability": "nonpayable",
					"type": "function"
				},
				{
					"inputs": [
						{
							"internalType": "address",
							"name": "",
							"type": "address"
						}
					],
					"name": "scanCount",
					"outputs": [
						{
							"internalType": "uint256",
							"name": "",
							"type": "uint256"
						}
					],
					"stateMutability": "view",
					"type": "function"
				}
			],
			"devdoc": {
				"kind": "dev",
				"methods": {},
				"version": 1
			},
			"evm": {
				"assembly": "    /* \"D/Distributed Scans/Distributed Scans.sol\":4709:5472  contract DistributedScansSafeHoneypot {... */\n  mstore(0x40, 0x80)\n  callvalue\n  dup1\n  iszero\n  tag_1\n  jumpi\n  0x00\n  dup1\n  revert\ntag_1:\n  pop\n  dataSize(sub_0)\n  dup1\n  dataOffset(sub_0)\n  0x00\n  codecopy\n  0x00\n  return\nstop\n\nsub_0: assembly {\n        /* \"D/Distributed Scans/Distributed Scans.sol\":4709:5472  contract DistributedScansSafeHoneypot {... */\n      mstore(0x40, 0x80)\n      callvalue\n      dup1\n      iszero\n      tag_1\n      jumpi\n      0x00\n      dup1\n      revert\n    tag_1:\n      pop\n      jumpi(tag_2, lt(calldatasize, 0x04))\n      shr(0xe0, calldataload(0x00))\n      dup1\n      0x265c339a\n      eq\n      tag_3\n      jumpi\n      dup1\n      0x35dc7e02\n      eq\n      tag_4\n      jumpi\n    tag_2:\n      0x00\n      dup1\n      revert\n        /* \"D/Distributed Scans/Distributed Scans.sol\":5066:5470  function scan(address target, DistributedScanType dtype) external {... */\n    tag_3:\n      tag_5\n      0x04\n      dup1\n      calldatasize\n      sub\n      dup2\n      add\n      swap1\n      tag_6\n      swap2\n      swap1\n      tag_7\n      jump\t// in\n    tag_6:\n      tag_8\n      jump\t// in\n    tag_5:\n      stop\n        /* \"D/Distributed Scans/Distributed Scans.sol\":4753:4797  mapping(address => uint256) public scanCount */\n    tag_4:\n      tag_9\n      0x04\n      dup1\n      calldatasize\n      sub\n      dup2\n      add\n      swap1\n      tag_10\n      swap2\n      swap1\n      tag_11\n      jump\t// in\n    tag_10:\n      tag_12\n      jump\t// in\n    tag_9:\n      mload(0x40)\n      tag_13\n      swap2\n      swap1\n      tag_14\n      jump\t// in\n    tag_13:\n      mload(0x40)\n      dup1\n      swap2\n      sub\n      swap1\n      return\n        /* \"D/Distributed Scans/Distributed Scans.sol\":5066:5470  function scan(address target, DistributedScanType dtype) external {... */\n    tag_8:\n        /* \"D/Distributed Scans/Distributed Scans.sol\":5142:5151  scanCount */\n      0x00\n        /* \"D/Distributed Scans/Distributed Scans.sol\":5142:5159  scanCount[target] */\n      dup1\n        /* \"D/Distributed Scans/Distributed Scans.sol\":5152:5158  target */\n      dup4\n        /* \"D/Distributed Scans/Distributed Scans.sol\":5142:5159  scanCount[target] */\n      0xffffffffffffffffffffffffffffffffffffffff\n      and\n      0xffffffffffffffffffffffffffffffffffffffff\n      and\n      dup2\n      mstore\n      0x20\n      add\n      swap1\n      dup2\n      mstore\n      0x20\n      add\n      0x00\n      keccak256\n      0x00\n        /* \"D/Distributed Scans/Distributed Scans.sol\":5142:5161  scanCount[target]++ */\n      dup2\n      sload\n      dup1\n      swap3\n      swap2\n      swap1\n      tag_16\n      swap1\n      tag_17\n      jump\t// in\n    tag_16:\n      swap2\n      swap1\n      pop\n      sstore\n      pop\n        /* \"D/Distributed Scans/Distributed Scans.sol\":5256:5257  0 */\n      0x00\n        /* \"D/Distributed Scans/Distributed Scans.sol\":5250:5252  10 */\n      0x0a\n        /* \"D/Distributed Scans/Distributed Scans.sol\":5230:5239  scanCount */\n      0x00\n        /* \"D/Distributed Scans/Distributed Scans.sol\":5230:5247  scanCount[target] */\n      dup1\n        /* \"D/Distributed Scans/Distributed Scans.sol\":5240:5246  target */\n      dup6\n        /* \"D/Distributed Scans/Distributed Scans.sol\":5230:5247  scanCount[target] */\n      0xffffffffffffffffffffffffffffffffffffffff\n      and\n      0xffffffffffffffffffffffffffffffffffffffff\n      and\n      dup2\n      mstore\n      0x20\n      add\n      swap1\n      dup2\n      mstore\n      0x20\n      add\n      0x00\n      keccak256\n      sload\n        /* \"D/Distributed Scans/Distributed Scans.sol\":5230:5252  scanCount[target] % 10 */\n      tag_18\n      swap2\n      swap1\n      tag_19\n      jump\t// in\n    tag_18:\n        /* \"D/Distributed Scans/Distributed Scans.sol\":5230:5257  scanCount[target] % 10 == 0 */\n      sub\n        /* \"D/Distributed Scans/Distributed Scans.sol\":5226:5363  if (scanCount[target] % 10 == 0) {... */\n      tag_20\n      jumpi\n        /* \"D/Distributed Scans/Distributed Scans.sol\":5304:5310  target */\n      dup2\n        /* \"D/Distributed Scans/Distributed Scans.sol\":5278:5311  HoneypotAlert(msg.sender, target) */\n      0xffffffffffffffffffffffffffffffffffffffff\n      and\n        /* \"D/Distributed Scans/Distributed Scans.sol\":5292:5302  msg.sender */\n      caller\n        /* \"D/Distributed Scans/Distributed Scans.sol\":5278:5311  HoneypotAlert(msg.sender, target) */\n      0xffffffffffffffffffffffffffffffffffffffff\n      and\n      0x9748db1cfce4c2b80db6e67bb8ee63698b10910dd575242aabda802016b5e3da\n      mload(0x40)\n      mload(0x40)\n      dup1\n      swap2\n      sub\n      swap1\n      log3\n        /* \"D/Distributed Scans/Distributed Scans.sol\":5332:5352  DSN__FalsePositive() */\n      mload(0x40)\n      0x5bb1de00000000000000000000000000000000000000000000000000000000\n      dup2\n      mstore\n      0x04\n      add\n      mload(0x40)\n      dup1\n      swap2\n      sub\n      swap1\n      revert\n        /* \"D/Distributed Scans/Distributed Scans.sol\":5226:5363  if (scanCount[target] % 10 == 0) {... */\n    tag_20:\n        /* \"D/Distributed Scans/Distributed Scans.sol\":5403:5409  target */\n      dup2\n        /* \"D/Distributed Scans/Distributed Scans.sol\":5377:5463  ScanPerformed(msg.sender, target, dtype, DistributedScanDefenseType.HoneypotDetection) */\n      0xffffffffffffffffffffffffffffffffffffffff\n      and\n        /* \"D/Distributed Scans/Distributed Scans.sol\":5391:5401  msg.sender */\n      caller\n        /* \"D/Distributed Scans/Distributed Scans.sol\":5377:5463  ScanPerformed(msg.sender, target, dtype, DistributedScanDefenseType.HoneypotDetection) */\n      0xffffffffffffffffffffffffffffffffffffffff\n      and\n      0x78cd1f500bd67d2925bb83aa58c6f5ded66304c0ab11562b39edb381f2d2fbd0\n        /* \"D/Distributed Scans/Distributed Scans.sol\":5411:5416  dtype */\n      dup4\n        /* \"D/Distributed Scans/Distributed Scans.sol\":5418:5462  DistributedScanDefenseType.HoneypotDetection */\n      0x01\n        /* \"D/Distributed Scans/Distributed Scans.sol\":5377:5463  ScanPerformed(msg.sender, target, dtype, DistributedScanDefenseType.HoneypotDetection) */\n      mload(0x40)\n      tag_21\n      swap3\n      swap2\n      swap1\n      tag_22\n      jump\t// in\n    tag_21:\n      mload(0x40)\n      dup1\n      swap2\n      sub\n      swap1\n      log3\n        /* \"D/Distributed Scans/Distributed Scans.sol\":5066:5470  function scan(address target, DistributedScanType dtype) external {... */\n      pop\n      pop\n      jump\t// out\n        /* \"D/Distributed Scans/Distributed Scans.sol\":4753:4797  mapping(address => uint256) public scanCount */\n    tag_12:\n      mstore(0x20, 0x00)\n      dup1\n      0x00\n      mstore\n      keccak256(0x00, 0x40)\n      0x00\n      swap2\n      pop\n      swap1\n      pop\n      sload\n      dup2\n      jump\t// out\n        /* \"#utility.yul\":88:205   */\n    tag_24:\n        /* \"#utility.yul\":197:198   */\n      0x00\n        /* \"#utility.yul\":194:195   */\n      dup1\n        /* \"#utility.yul\":187:199   */\n      revert\n        /* \"#utility.yul\":334:460   */\n    tag_26:\n        /* \"#utility.yul\":371:378   */\n      0x00\n        /* \"#utility.yul\":411:453   */\n      0xffffffffffffffffffffffffffffffffffffffff\n        /* \"#utility.yul\":404:409   */\n      dup3\n        /* \"#utility.yul\":400:454   */\n      and\n        /* \"#utility.yul\":389:454   */\n      swap1\n      pop\n        /* \"#utility.yul\":334:460   */\n      swap2\n      swap1\n      pop\n      jump\t// out\n        /* \"#utility.yul\":466:562   */\n    tag_27:\n        /* \"#utility.yul\":503:510   */\n      0x00\n        /* \"#utility.yul\":532:556   */\n      tag_51\n        /* \"#utility.yul\":550:555   */\n      dup3\n        /* \"#utility.yul\":532:556   */\n      tag_26\n      jump\t// in\n    tag_51:\n        /* \"#utility.yul\":521:556   */\n      swap1\n      pop\n        /* \"#utility.yul\":466:562   */\n      swap2\n      swap1\n      pop\n      jump\t// out\n        /* \"#utility.yul\":568:690   */\n    tag_28:\n        /* \"#utility.yul\":641:665   */\n      tag_53\n        /* \"#utility.yul\":659:664   */\n      dup2\n        /* \"#utility.yul\":641:665   */\n      tag_27\n      jump\t// in\n    tag_53:\n        /* \"#utility.yul\":634:639   */\n      dup2\n        /* \"#utility.yul\":631:666   */\n      eq\n        /* \"#utility.yul\":621:684   */\n      tag_54\n      jumpi\n        /* \"#utility.yul\":680:681   */\n      0x00\n        /* \"#utility.yul\":677:678   */\n      dup1\n        /* \"#utility.yul\":670:682   */\n      revert\n        /* \"#utility.yul\":621:684   */\n    tag_54:\n        /* \"#utility.yul\":568:690   */\n      pop\n      jump\t// out\n        /* \"#utility.yul\":696:835   */\n    tag_29:\n        /* \"#utility.yul\":742:747   */\n      0x00\n        /* \"#utility.yul\":780:786   */\n      dup2\n        /* \"#utility.yul\":767:787   */\n      calldataload\n        /* \"#utility.yul\":758:787   */\n      swap1\n      pop\n        /* \"#utility.yul\":796:829   */\n      tag_56\n        /* \"#utility.yul\":823:828   */\n      dup2\n        /* \"#utility.yul\":796:829   */\n      tag_28\n      jump\t// in\n    tag_56:\n        /* \"#utility.yul\":696:835   */\n      swap3\n      swap2\n      pop\n      pop\n      jump\t// out\n        /* \"#utility.yul\":841:961   */\n    tag_30:\n        /* \"#utility.yul\":935:936   */\n      0x03\n        /* \"#utility.yul\":928:933   */\n      dup2\n        /* \"#utility.yul\":925:937   */\n      lt\n        /* \"#utility.yul\":915:955   */\n      tag_58\n      jumpi\n        /* \"#utility.yul\":951:952   */\n      0x00\n        /* \"#utility.yul\":948:949   */\n      dup1\n        /* \"#utility.yul\":941:953   */\n      revert\n        /* \"#utility.yul\":915:955   */\n    tag_58:\n        /* \"#utility.yul\":841:961   */\n      pop\n      jump\t// out\n        /* \"#utility.yul\":967:1148   */\n    tag_31:\n        /* \"#utility.yul\":1034:1039   */\n      0x00\n        /* \"#utility.yul\":1072:1078   */\n      dup2\n        /* \"#utility.yul\":1059:1079   */\n      calldataload\n        /* \"#utility.yul\":1050:1079   */\n      swap1\n      pop\n        /* \"#utility.yul\":1088:1142   */\n      tag_60\n        /* \"#utility.yul\":1136:1141   */\n      dup2\n        /* \"#utility.yul\":1088:1142   */\n      tag_30\n      jump\t// in\n    tag_60:\n        /* \"#utility.yul\":967:1148   */\n      swap3\n      swap2\n      pop\n      pop\n      jump\t// out\n        /* \"#utility.yul\":1154:1670   */\n    tag_7:\n        /* \"#utility.yul\":1243:1249   */\n      0x00\n        /* \"#utility.yul\":1251:1257   */\n      dup1\n        /* \"#utility.yul\":1300:1302   */\n      0x40\n        /* \"#utility.yul\":1288:1297   */\n      dup4\n        /* \"#utility.yul\":1279:1286   */\n      dup6\n        /* \"#utility.yul\":1275:1298   */\n      sub\n        /* \"#utility.yul\":1271:1303   */\n      slt\n        /* \"#utility.yul\":1268:1387   */\n      iszero\n      tag_62\n      jumpi\n        /* \"#utility.yul\":1306:1385   */\n      tag_63\n      tag_24\n      jump\t// in\n    tag_63:\n        /* \"#utility.yul\":1268:1387   */\n    tag_62:\n        /* \"#utility.yul\":1426:1427   */\n      0x00\n        /* \"#utility.yul\":1451:1504   */\n      tag_64\n        /* \"#utility.yul\":1496:1503   */\n      dup6\n        /* \"#utility.yul\":1487:1493   */\n      dup3\n        /* \"#utility.yul\":1476:1485   */\n      dup7\n        /* \"#utility.yul\":1472:1494   */\n      add\n        /* \"#utility.yul\":1451:1504   */\n      tag_29\n      jump\t// in\n    tag_64:\n        /* \"#utility.yul\":1441:1504   */\n      swap3\n      pop\n        /* \"#utility.yul\":1397:1514   */\n      pop\n        /* \"#utility.yul\":1553:1555   */\n      0x20\n        /* \"#utility.yul\":1579:1653   */\n      tag_65\n        /* \"#utility.yul\":1645:1652   */\n      dup6\n        /* \"#utility.yul\":1636:1642   */\n      dup3\n        /* \"#utility.yul\":1625:1634   */\n      dup7\n        /* \"#utility.yul\":1621:1643   */\n      add\n        /* \"#utility.yul\":1579:1653   */\n      tag_31\n      jump\t// in\n    tag_65:\n        /* \"#utility.yul\":1569:1653   */\n      swap2\n      pop\n        /* \"#utility.yul\":1524:1663   */\n      pop\n        /* \"#utility.yul\":1154:1670   */\n      swap3\n      pop\n      swap3\n      swap1\n      pop\n      jump\t// out\n        /* \"#utility.yul\":1676:2005   */\n    tag_11:\n        /* \"#utility.yul\":1735:1741   */\n      0x00\n        /* \"#utility.yul\":1784:1786   */\n      0x20\n        /* \"#utility.yul\":1772:1781   */\n      dup3\n        /* \"#utility.yul\":1763:1770   */\n      dup5\n        /* \"#utility.yul\":1759:1782   */\n      sub\n        /* \"#utility.yul\":1755:1787   */\n      slt\n        /* \"#utility.yul\":1752:1871   */\n      iszero\n      tag_67\n      jumpi\n        /* \"#utility.yul\":1790:1869   */\n      tag_68\n      tag_24\n      jump\t// in\n    tag_68:\n        /* \"#utility.yul\":1752:1871   */\n    tag_67:\n        /* \"#utility.yul\":1910:1911   */\n      0x00\n        /* \"#utility.yul\":1935:1988   */\n      tag_69\n        /* \"#utility.yul\":1980:1987   */\n      dup5\n        /* \"#utility.yul\":1971:1977   */\n      dup3\n        /* \"#utility.yul\":1960:1969   */\n      dup6\n        /* \"#utility.yul\":1956:1978   */\n      add\n        /* \"#utility.yul\":1935:1988   */\n      tag_29\n      jump\t// in\n    tag_69:\n        /* \"#utility.yul\":1925:1988   */\n      swap2\n      pop\n        /* \"#utility.yul\":1881:1998   */\n      pop\n        /* \"#utility.yul\":1676:2005   */\n      swap3\n      swap2\n      pop\n      pop\n      jump\t// out\n        /* \"#utility.yul\":2011:2088   */\n    tag_32:\n        /* \"#utility.yul\":2048:2055   */\n      0x00\n        /* \"#utility.yul\":2077:2082   */\n      dup2\n        /* \"#utility.yul\":2066:2082   */\n      swap1\n      pop\n        /* \"#utility.yul\":2011:2088   */\n      swap2\n      swap1\n      pop\n      jump\t// out\n        /* \"#utility.yul\":2094:2212   */\n    tag_33:\n        /* \"#utility.yul\":2181:2205   */\n      tag_72\n        /* \"#utility.yul\":2199:2204   */\n      dup2\n        /* \"#utility.yul\":2181:2205   */\n      tag_32\n      jump\t// in\n    tag_72:\n        /* \"#utility.yul\":2176:2179   */\n      dup3\n        /* \"#utility.yul\":2169:2206   */\n      mstore\n        /* \"#utility.yul\":2094:2212   */\n      pop\n      pop\n      jump\t// out\n        /* \"#utility.yul\":2218:2440   */\n    tag_14:\n        /* \"#utility.yul\":2311:2315   */\n      0x00\n        /* \"#utility.yul\":2349:2351   */\n      0x20\n        /* \"#utility.yul\":2338:2347   */\n      dup3\n        /* \"#utility.yul\":2334:2352   */\n      add\n        /* \"#utility.yul\":2326:2352   */\n      swap1\n      pop\n        /* \"#utility.yul\":2362:2433   */\n      tag_74\n        /* \"#utility.yul\":2430:2431   */\n      0x00\n        /* \"#utility.yul\":2419:2428   */\n      dup4\n        /* \"#utility.yul\":2415:2432   */\n      add\n        /* \"#utility.yul\":2406:2412   */\n      dup5\n        /* \"#utility.yul\":2362:2433   */\n      tag_33\n      jump\t// in\n    tag_74:\n        /* \"#utility.yul\":2218:2440   */\n      swap3\n      swap2\n      pop\n      pop\n      jump\t// out\n        /* \"#utility.yul\":2446:2626   */\n    tag_34:\n        /* \"#utility.yul\":2494:2571   */\n      0x4e487b7100000000000000000000000000000000000000000000000000000000\n        /* \"#utility.yul\":2491:2492   */\n      0x00\n        /* \"#utility.yul\":2484:2572   */\n      mstore\n        /* \"#utility.yul\":2591:2595   */\n      0x11\n        /* \"#utility.yul\":2588:2589   */\n      0x04\n        /* \"#utility.yul\":2581:2596   */\n      mstore\n        /* \"#utility.yul\":2615:2619   */\n      0x24\n        /* \"#utility.yul\":2612:2613   */\n      0x00\n        /* \"#utility.yul\":2605:2620   */\n      revert\n        /* \"#utility.yul\":2632:2865   */\n    tag_17:\n        /* \"#utility.yul\":2671:2674   */\n      0x00\n        /* \"#utility.yul\":2694:2718   */\n      tag_77\n        /* \"#utility.yul\":2712:2717   */\n      dup3\n        /* \"#utility.yul\":2694:2718   */\n      tag_32\n      jump\t// in\n    tag_77:\n        /* \"#utility.yul\":2685:2718   */\n      swap2\n      pop\n        /* \"#utility.yul\":2740:2806   */\n      0xffffffffffffffffffffffffffffffffffffffffffffffffffffffffffffffff\n        /* \"#utility.yul\":2733:2738   */\n      dup3\n        /* \"#utility.yul\":2730:2807   */\n      sub\n        /* \"#utility.yul\":2727:2830   */\n      tag_78\n      jumpi\n        /* \"#utility.yul\":2810:2828   */\n      tag_79\n      tag_34\n      jump\t// in\n    tag_79:\n        /* \"#utility.yul\":2727:2830   */\n    tag_78:\n        /* \"#utility.yul\":2857:2858   */\n      0x01\n        /* \"#utility.yul\":2850:2855   */\n      dup3\n        /* \"#utility.yul\":2846:2859   */\n      add\n        /* \"#utility.yul\":2839:2859   */\n      swap1\n      pop\n        /* \"#utility.yul\":2632:2865   */\n      swap2\n      swap1\n      pop\n      jump\t// out\n        /* \"#utility.yul\":2871:3051   */\n    tag_35:\n        /* \"#utility.yul\":2919:2996   */\n      0x4e487b7100000000000000000000000000000000000000000000000000000000\n        /* \"#utility.yul\":2916:2917   */\n      0x00\n        /* \"#utility.yul\":2909:2997   */\n      mstore\n        /* \"#utility.yul\":3016:3020   */\n      0x12\n        /* \"#utility.yul\":3013:3014   */\n      0x04\n        /* \"#utility.yul\":3006:3021   */\n      mstore\n        /* \"#utility.yul\":3040:3044   */\n      0x24\n        /* \"#utility.yul\":3037:3038   */\n      0x00\n        /* \"#utility.yul\":3030:3045   */\n      revert\n        /* \"#utility.yul\":3057:3233   */\n    tag_19:\n        /* \"#utility.yul\":3089:3090   */\n      0x00\n        /* \"#utility.yul\":3106:3126   */\n      tag_82\n        /* \"#utility.yul\":3124:3125   */\n      dup3\n        /* \"#utility.yul\":3106:3126   */\n      tag_32\n      jump\t// in\n    tag_82:\n        /* \"#utility.yul\":3101:3126   */\n      swap2\n      pop\n        /* \"#utility.yul\":3140:3160   */\n      tag_83\n        /* \"#utility.yul\":3158:3159   */\n      dup4\n        /* \"#utility.yul\":3140:3160   */\n      tag_32\n      jump\t// in\n    tag_83:\n        /* \"#utility.yul\":3135:3160   */\n      swap3\n      pop\n        /* \"#utility.yul\":3179:3180   */\n      dup3\n        /* \"#utility.yul\":3169:3204   */\n      tag_84\n      jumpi\n        /* \"#utility.yul\":3184:3202   */\n      tag_85\n      tag_35\n      jump\t// in\n    tag_85:\n        /* \"#utility.yul\":3169:3204   */\n    tag_84:\n        /* \"#utility.yul\":3225:3226   */\n      dup3\n        /* \"#utility.yul\":3222:3223   */\n      dup3\n        /* \"#utility.yul\":3218:3227   */\n      mod\n        /* \"#utility.yul\":3213:3227   */\n      swap1\n      pop\n        /* \"#utility.yul\":3057:3233   */\n      swap3\n      swap2\n      pop\n      pop\n      jump\t// out\n        /* \"#utility.yul\":3239:3419   */\n    tag_36:\n        /* \"#utility.yul\":3287:3364   */\n      0x4e487b7100000000000000000000000000000000000000000000000000000000\n        /* \"#utility.yul\":3284:3285   */\n      0x00\n        /* \"#utility.yul\":3277:3365   */\n      mstore\n        /* \"#utility.yul\":3384:3388   */\n      0x21\n        /* \"#utility.yul\":3381:3382   */\n      0x04\n        /* \"#utility.yul\":3374:3389   */\n      mstore\n        /* \"#utility.yul\":3408:3412   */\n      0x24\n        /* \"#utility.yul\":3405:3406   */\n      0x00\n        /* \"#utility.yul\":3398:3413   */\n      revert\n        /* \"#utility.yul\":3425:3551   */\n    tag_37:\n        /* \"#utility.yul\":3519:3520   */\n      0x03\n        /* \"#utility.yul\":3512:3517   */\n      dup2\n        /* \"#utility.yul\":3509:3521   */\n      lt\n        /* \"#utility.yul\":3499:3545   */\n      tag_88\n      jumpi\n        /* \"#utility.yul\":3525:3543   */\n      tag_89\n      tag_36\n      jump\t// in\n    tag_89:\n        /* \"#utility.yul\":3499:3545   */\n    tag_88:\n        /* \"#utility.yul\":3425:3551   */\n      pop\n      jump\t// out\n        /* \"#utility.yul\":3557:3710   */\n    tag_38:\n        /* \"#utility.yul\":3615:3622   */\n      0x00\n        /* \"#utility.yul\":3644:3649   */\n      dup2\n        /* \"#utility.yul\":3633:3649   */\n      swap1\n      pop\n        /* \"#utility.yul\":3650:3704   */\n      tag_91\n        /* \"#utility.yul\":3698:3703   */\n      dup3\n        /* \"#utility.yul\":3650:3704   */\n      tag_37\n      jump\t// in\n    tag_91:\n        /* \"#utility.yul\":3557:3710   */\n      swap2\n      swap1\n      pop\n      jump\t// out\n        /* \"#utility.yul\":3716:3869   */\n    tag_39:\n        /* \"#utility.yul\":3785:3794   */\n      0x00\n        /* \"#utility.yul\":3818:3863   */\n      tag_93\n        /* \"#utility.yul\":3857:3862   */\n      dup3\n        /* \"#utility.yul\":3818:3863   */\n      tag_38\n      jump\t// in\n    tag_93:\n        /* \"#utility.yul\":3805:3863   */\n      swap1\n      pop\n        /* \"#utility.yul\":3716:3869   */\n      swap2\n      swap1\n      pop\n      jump\t// out\n        /* \"#utility.yul\":3875:4044   */\n    tag_40:\n        /* \"#utility.yul\":3981:4037   */\n      tag_95\n        /* \"#utility.yul\":4031:4036   */\n      dup2\n        /* \"#utility.yul\":3981:4037   */\n      tag_39\n      jump\t// in\n    tag_95:\n        /* \"#utility.yul\":3976:3979   */\n      dup3\n        /* \"#utility.yul\":3969:4038   */\n      mstore\n        /* \"#utility.yul\":3875:4044   */\n      pop\n      pop\n      jump\t// out\n        /* \"#utility.yul\":4050:4184   */\n    tag_41:\n        /* \"#utility.yul\":4152:4153   */\n      0x03\n        /* \"#utility.yul\":4145:4150   */\n      dup2\n        /* \"#utility.yul\":4142:4154   */\n      lt\n        /* \"#utility.yul\":4132:4178   */\n      tag_97\n      jumpi\n        /* \"#utility.yul\":4158:4176   */\n      tag_98\n      tag_36\n      jump\t// in\n    tag_98:\n        /* \"#utility.yul\":4132:4178   */\n    tag_97:\n        /* \"#utility.yul\":4050:4184   */\n      pop\n      jump\t// out\n        /* \"#utility.yul\":4190:4359   */\n    tag_42:\n        /* \"#utility.yul\":4256:4263   */\n      0x00\n        /* \"#utility.yul\":4285:4290   */\n      dup2\n        /* \"#utility.yul\":4274:4290   */\n      swap1\n      pop\n        /* \"#utility.yul\":4291:4353   */\n      tag_100\n        /* \"#utility.yul\":4347:4352   */\n      dup3\n        /* \"#utility.yul\":4291:4353   */\n      tag_41\n      jump\t// in\n    tag_100:\n        /* \"#utility.yul\":4190:4359   */\n      swap2\n      swap1\n      pop\n      jump\t// out\n        /* \"#utility.yul\":4365:4534   */\n    tag_43:\n        /* \"#utility.yul\":4442:4451   */\n      0x00\n        /* \"#utility.yul\":4475:4528   */\n      tag_102\n        /* \"#utility.yul\":4522:4527   */\n      dup3\n        /* \"#utility.yul\":4475:4528   */\n      tag_42\n      jump\t// in\n    tag_102:\n        /* \"#utility.yul\":4462:4528   */\n      swap1\n      pop\n        /* \"#utility.yul\":4365:4534   */\n      swap2\n      swap1\n      pop\n      jump\t// out\n        /* \"#utility.yul\":4540:4725   */\n    tag_44:\n        /* \"#utility.yul\":4654:4718   */\n      tag_104\n        /* \"#utility.yul\":4712:4717   */\n      dup2\n        /* \"#utility.yul\":4654:4718   */\n      tag_43\n      jump\t// in\n    tag_104:\n        /* \"#utility.yul\":4649:4652   */\n      dup3\n        /* \"#utility.yul\":4642:4719   */\n      mstore\n        /* \"#utility.yul\":4540:4725   */\n      pop\n      pop\n      jump\t// out\n        /* \"#utility.yul\":4731:5155   */\n    tag_22:\n        /* \"#utility.yul\":4898:4902   */\n      0x00\n        /* \"#utility.yul\":4936:4938   */\n      0x40\n        /* \"#utility.yul\":4925:4934   */\n      dup3\n        /* \"#utility.yul\":4921:4939   */\n      add\n        /* \"#utility.yul\":4913:4939   */\n      swap1\n      pop\n        /* \"#utility.yul\":4949:5039   */\n      tag_106\n        /* \"#utility.yul\":5036:5037   */\n      0x00\n        /* \"#utility.yul\":5025:5034   */\n      dup4\n        /* \"#utility.yul\":5021:5038   */\n      add\n        /* \"#utility.yul\":5012:5018   */\n      dup6\n        /* \"#utility.yul\":4949:5039   */\n      tag_40\n      jump\t// in\n    tag_106:\n        /* \"#utility.yul\":5049:5148   */\n      tag_107\n        /* \"#utility.yul\":5144:5146   */\n      0x20\n        /* \"#utility.yul\":5133:5142   */\n      dup4\n        /* \"#utility.yul\":5129:5147   */\n      add\n        /* \"#utility.yul\":5120:5126   */\n      dup5\n        /* \"#utility.yul\":5049:5148   */\n      tag_44\n      jump\t// in\n    tag_107:\n        /* \"#utility.yul\":4731:5155   */\n      swap4\n      swap3\n      pop\n      pop\n      pop\n      jump\t// out\n\n    auxdata: 0xa2646970667358221220592d9683e53551ef0d538dbb7dbbc650a70177bf6a7f778de435c9364d7bce5d64736f6c634300081a0033\n}\n",
				"bytecode": {
					"linkReferences": {},
					"object": "6080604052348015600e575f80fd5b506105318061001c5f395ff3fe608060405234801561000f575f80fd5b5060043610610034575f3560e01c8063265c339a1461003857806335dc7e0214610054575b5f80fd5b610052600480360381019061004d91906102b0565b610084565b005b61006e600480360381019061006991906102ee565b61021b565b60405161007b9190610331565b60405180910390f35b5f808373ffffffffffffffffffffffffffffffffffffffff1673ffffffffffffffffffffffffffffffffffffffff1681526020019081526020015f205f8154809291906100d090610377565b91905055505f600a5f808573ffffffffffffffffffffffffffffffffffffffff1673ffffffffffffffffffffffffffffffffffffffff1681526020019081526020015f205461011f91906103eb565b036101af578173ffffffffffffffffffffffffffffffffffffffff163373ffffffffffffffffffffffffffffffffffffffff167f9748db1cfce4c2b80db6e67bb8ee63698b10910dd575242aabda802016b5e3da60405160405180910390a36040517e5bb1de00000000000000000000000000000000000000000000000000000000815260040160405180910390fd5b8173ffffffffffffffffffffffffffffffffffffffff163373ffffffffffffffffffffffffffffffffffffffff167f78cd1f500bd67d2925bb83aa58c6f5ded66304c0ab11562b39edb381f2d2fbd083600160405161020f9291906104d4565b60405180910390a35050565b5f602052805f5260405f205f915090505481565b5f80fd5b5f73ffffffffffffffffffffffffffffffffffffffff82169050919050565b5f61025c82610233565b9050919050565b61026c81610252565b8114610276575f80fd5b50565b5f8135905061028781610263565b92915050565b60038110610299575f80fd5b50565b5f813590506102aa8161028d565b92915050565b5f80604083850312156102c6576102c561022f565b5b5f6102d385828601610279565b92505060206102e48582860161029c565b9150509250929050565b5f602082840312156103035761030261022f565b5b5f61031084828501610279565b91505092915050565b5f819050919050565b61032b81610319565b82525050565b5f6020820190506103445f830184610322565b92915050565b7f4e487b71000000000000000000000000000000000000000000000000000000005f52601160045260245ffd5b5f61038182610319565b91507fffffffffffffffffffffffffffffffffffffffffffffffffffffffffffffffff82036103b3576103b261034a565b5b600182019050919050565b7f4e487b71000000000000000000000000000000000000000000000000000000005f52601260045260245ffd5b5f6103f582610319565b915061040083610319565b9250826104105761040f6103be565b5b828206905092915050565b7f4e487b71000000000000000000000000000000000000000000000000000000005f52602160045260245ffd5b600381106104595761045861041b565b5b50565b5f81905061046982610448565b919050565b5f6104788261045c565b9050919050565b6104888161046e565b82525050565b6003811061049f5761049e61041b565b5b50565b5f8190506104af8261048e565b919050565b5f6104be826104a2565b9050919050565b6104ce816104b4565b82525050565b5f6040820190506104e75f83018561047f565b6104f460208301846104c5565b939250505056fea2646970667358221220592d9683e53551ef0d538dbb7dbbc650a70177bf6a7f778de435c9364d7bce5d64736f6c634300081a0033",
					"opcodes": "PUSH1 0x80 PUSH1 0x40 MSTORE CALLVALUE DUP1 ISZERO PUSH1 0xE JUMPI PUSH0 DUP1 REVERT JUMPDEST POP PUSH2 0x531 DUP1 PUSH2 0x1C PUSH0 CODECOPY PUSH0 RETURN INVALID PUSH1 0x80 PUSH1 0x40 MSTORE CALLVALUE DUP1 ISZERO PUSH2 0xF JUMPI PUSH0 DUP1 REVERT JUMPDEST POP PUSH1 0x4 CALLDATASIZE LT PUSH2 0x34 JUMPI PUSH0 CALLDATALOAD PUSH1 0xE0 SHR DUP1 PUSH4 0x265C339A EQ PUSH2 0x38 JUMPI DUP1 PUSH4 0x35DC7E02 EQ PUSH2 0x54 JUMPI JUMPDEST PUSH0 DUP1 REVERT JUMPDEST PUSH2 0x52 PUSH1 0x4 DUP1 CALLDATASIZE SUB DUP2 ADD SWAP1 PUSH2 0x4D SWAP2 SWAP1 PUSH2 0x2B0 JUMP JUMPDEST PUSH2 0x84 JUMP JUMPDEST STOP JUMPDEST PUSH2 0x6E PUSH1 0x4 DUP1 CALLDATASIZE SUB DUP2 ADD SWAP1 PUSH2 0x69 SWAP2 SWAP1 PUSH2 0x2EE JUMP JUMPDEST PUSH2 0x21B JUMP JUMPDEST PUSH1 0x40 MLOAD PUSH2 0x7B SWAP2 SWAP1 PUSH2 0x331 JUMP JUMPDEST PUSH1 0x40 MLOAD DUP1 SWAP2 SUB SWAP1 RETURN JUMPDEST PUSH0 DUP1 DUP4 PUSH20 0xFFFFFFFFFFFFFFFFFFFFFFFFFFFFFFFFFFFFFFFF AND PUSH20 0xFFFFFFFFFFFFFFFFFFFFFFFFFFFFFFFFFFFFFFFF AND DUP2 MSTORE PUSH1 0x20 ADD SWAP1 DUP2 MSTORE PUSH1 0x20 ADD PUSH0 KECCAK256 PUSH0 DUP2 SLOAD DUP1 SWAP3 SWAP2 SWAP1 PUSH2 0xD0 SWAP1 PUSH2 0x377 JUMP JUMPDEST SWAP2 SWAP1 POP SSTORE POP PUSH0 PUSH1 0xA PUSH0 DUP1 DUP6 PUSH20 0xFFFFFFFFFFFFFFFFFFFFFFFFFFFFFFFFFFFFFFFF AND PUSH20 0xFFFFFFFFFFFFFFFFFFFFFFFFFFFFFFFFFFFFFFFF AND DUP2 MSTORE PUSH1 0x20 ADD SWAP1 DUP2 MSTORE PUSH1 0x20 ADD PUSH0 KECCAK256 SLOAD PUSH2 0x11F SWAP2 SWAP1 PUSH2 0x3EB JUMP JUMPDEST SUB PUSH2 0x1AF JUMPI DUP2 PUSH20 0xFFFFFFFFFFFFFFFFFFFFFFFFFFFFFFFFFFFFFFFF AND CALLER PUSH20 0xFFFFFFFFFFFFFFFFFFFFFFFFFFFFFFFFFFFFFFFF AND PUSH32 0x9748DB1CFCE4C2B80DB6E67BB8EE63698B10910DD575242AABDA802016B5E3DA PUSH1 0x40 MLOAD PUSH1 0x40 MLOAD DUP1 SWAP2 SUB SWAP1 LOG3 PUSH1 0x40 MLOAD PUSH31 0x5BB1DE00000000000000000000000000000000000000000000000000000000 DUP2 MSTORE PUSH1 0x4 ADD PUSH1 0x40 MLOAD DUP1 SWAP2 SUB SWAP1 REVERT JUMPDEST DUP2 PUSH20 0xFFFFFFFFFFFFFFFFFFFFFFFFFFFFFFFFFFFFFFFF AND CALLER PUSH20 0xFFFFFFFFFFFFFFFFFFFFFFFFFFFFFFFFFFFFFFFF AND PUSH32 0x78CD1F500BD67D2925BB83AA58C6F5DED66304C0AB11562B39EDB381F2D2FBD0 DUP4 PUSH1 0x1 PUSH1 0x40 MLOAD PUSH2 0x20F SWAP3 SWAP2 SWAP1 PUSH2 0x4D4 JUMP JUMPDEST PUSH1 0x40 MLOAD DUP1 SWAP2 SUB SWAP1 LOG3 POP POP JUMP JUMPDEST PUSH0 PUSH1 0x20 MSTORE DUP1 PUSH0 MSTORE PUSH1 0x40 PUSH0 KECCAK256 PUSH0 SWAP2 POP SWAP1 POP SLOAD DUP2 JUMP JUMPDEST PUSH0 DUP1 REVERT JUMPDEST PUSH0 PUSH20 0xFFFFFFFFFFFFFFFFFFFFFFFFFFFFFFFFFFFFFFFF DUP3 AND SWAP1 POP SWAP2 SWAP1 POP JUMP JUMPDEST PUSH0 PUSH2 0x25C DUP3 PUSH2 0x233 JUMP JUMPDEST SWAP1 POP SWAP2 SWAP1 POP JUMP JUMPDEST PUSH2 0x26C DUP2 PUSH2 0x252 JUMP JUMPDEST DUP2 EQ PUSH2 0x276 JUMPI PUSH0 DUP1 REVERT JUMPDEST POP JUMP JUMPDEST PUSH0 DUP2 CALLDATALOAD SWAP1 POP PUSH2 0x287 DUP2 PUSH2 0x263 JUMP JUMPDEST SWAP3 SWAP2 POP POP JUMP JUMPDEST PUSH1 0x3 DUP2 LT PUSH2 0x299 JUMPI PUSH0 DUP1 REVERT JUMPDEST POP JUMP JUMPDEST PUSH0 DUP2 CALLDATALOAD SWAP1 POP PUSH2 0x2AA DUP2 PUSH2 0x28D JUMP JUMPDEST SWAP3 SWAP2 POP POP JUMP JUMPDEST PUSH0 DUP1 PUSH1 0x40 DUP4 DUP6 SUB SLT ISZERO PUSH2 0x2C6 JUMPI PUSH2 0x2C5 PUSH2 0x22F JUMP JUMPDEST JUMPDEST PUSH0 PUSH2 0x2D3 DUP6 DUP3 DUP7 ADD PUSH2 0x279 JUMP JUMPDEST SWAP3 POP POP PUSH1 0x20 PUSH2 0x2E4 DUP6 DUP3 DUP7 ADD PUSH2 0x29C JUMP JUMPDEST SWAP2 POP POP SWAP3 POP SWAP3 SWAP1 POP JUMP JUMPDEST PUSH0 PUSH1 0x20 DUP3 DUP5 SUB SLT ISZERO PUSH2 0x303 JUMPI PUSH2 0x302 PUSH2 0x22F JUMP JUMPDEST JUMPDEST PUSH0 PUSH2 0x310 DUP5 DUP3 DUP6 ADD PUSH2 0x279 JUMP JUMPDEST SWAP2 POP POP SWAP3 SWAP2 POP POP JUMP JUMPDEST PUSH0 DUP2 SWAP1 POP SWAP2 SWAP1 POP JUMP JUMPDEST PUSH2 0x32B DUP2 PUSH2 0x319 JUMP JUMPDEST DUP3 MSTORE POP POP JUMP JUMPDEST PUSH0 PUSH1 0x20 DUP3 ADD SWAP1 POP PUSH2 0x344 PUSH0 DUP4 ADD DUP5 PUSH2 0x322 JUMP JUMPDEST SWAP3 SWAP2 POP POP JUMP JUMPDEST PUSH32 0x4E487B7100000000000000000000000000000000000000000000000000000000 PUSH0 MSTORE PUSH1 0x11 PUSH1 0x4 MSTORE PUSH1 0x24 PUSH0 REVERT JUMPDEST PUSH0 PUSH2 0x381 DUP3 PUSH2 0x319 JUMP JUMPDEST SWAP2 POP PUSH32 0xFFFFFFFFFFFFFFFFFFFFFFFFFFFFFFFFFFFFFFFFFFFFFFFFFFFFFFFFFFFFFFFF DUP3 SUB PUSH2 0x3B3 JUMPI PUSH2 0x3B2 PUSH2 0x34A JUMP JUMPDEST JUMPDEST PUSH1 0x1 DUP3 ADD SWAP1 POP SWAP2 SWAP1 POP JUMP JUMPDEST PUSH32 0x4E487B7100000000000000000000000000000000000000000000000000000000 PUSH0 MSTORE PUSH1 0x12 PUSH1 0x4 MSTORE PUSH1 0x24 PUSH0 REVERT JUMPDEST PUSH0 PUSH2 0x3F5 DUP3 PUSH2 0x319 JUMP JUMPDEST SWAP2 POP PUSH2 0x400 DUP4 PUSH2 0x319 JUMP JUMPDEST SWAP3 POP DUP3 PUSH2 0x410 JUMPI PUSH2 0x40F PUSH2 0x3BE JUMP JUMPDEST JUMPDEST DUP3 DUP3 MOD SWAP1 POP SWAP3 SWAP2 POP POP JUMP JUMPDEST PUSH32 0x4E487B7100000000000000000000000000000000000000000000000000000000 PUSH0 MSTORE PUSH1 0x21 PUSH1 0x4 MSTORE PUSH1 0x24 PUSH0 REVERT JUMPDEST PUSH1 0x3 DUP2 LT PUSH2 0x459 JUMPI PUSH2 0x458 PUSH2 0x41B JUMP JUMPDEST JUMPDEST POP JUMP JUMPDEST PUSH0 DUP2 SWAP1 POP PUSH2 0x469 DUP3 PUSH2 0x448 JUMP JUMPDEST SWAP2 SWAP1 POP JUMP JUMPDEST PUSH0 PUSH2 0x478 DUP3 PUSH2 0x45C JUMP JUMPDEST SWAP1 POP SWAP2 SWAP1 POP JUMP JUMPDEST PUSH2 0x488 DUP2 PUSH2 0x46E JUMP JUMPDEST DUP3 MSTORE POP POP JUMP JUMPDEST PUSH1 0x3 DUP2 LT PUSH2 0x49F JUMPI PUSH2 0x49E PUSH2 0x41B JUMP JUMPDEST JUMPDEST POP JUMP JUMPDEST PUSH0 DUP2 SWAP1 POP PUSH2 0x4AF DUP3 PUSH2 0x48E JUMP JUMPDEST SWAP2 SWAP1 POP JUMP JUMPDEST PUSH0 PUSH2 0x4BE DUP3 PUSH2 0x4A2 JUMP JUMPDEST SWAP1 POP SWAP2 SWAP1 POP JUMP JUMPDEST PUSH2 0x4CE DUP2 PUSH2 0x4B4 JUMP JUMPDEST DUP3 MSTORE POP POP JUMP JUMPDEST PUSH0 PUSH1 0x40 DUP3 ADD SWAP1 POP PUSH2 0x4E7 PUSH0 DUP4 ADD DUP6 PUSH2 0x47F JUMP JUMPDEST PUSH2 0x4F4 PUSH1 0x20 DUP4 ADD DUP5 PUSH2 0x4C5 JUMP JUMPDEST SWAP4 SWAP3 POP POP POP JUMP INVALID LOG2 PUSH5 0x6970667358 0x22 SLT KECCAK256 MSIZE 0x2D SWAP7 DUP4 0xE5 CALLDATALOAD MLOAD 0xEF 0xD MSTORE8 DUP14 0xBB PUSH30 0xBBC650A70177BF6A7F778DE435C9364D7BCE5D64736F6C634300081A0033 "
				},
				"gasEstimates": {
					"creation": {
						"codeDepositCost": "265800",
						"executionCost": "304",
						"totalCost": "266104"
					},
					"external": {
						"scan(address,uint8)": "infinite",
						"scanCount(address)": "2801"
					}
				},
				"methodIdentifiers": {
					"scan(address,uint8)": "265c339a",
					"scanCount(address)": "35dc7e02"
				}
			},
			"storageLayout": {
				"storage": [
					{
						"astId": 204,
						"contract": "D/Distributed Scans/Distributed Scans.sol:DistributedScansSafeHoneypot",
						"label": "scanCount",
						"offset": 0,
						"slot": "0",
						"type": "t_mapping(t_address,t_uint256)"
					}
				],
				"types": {
					"t_address": {
						"encoding": "inplace",
						"label": "address",
						"numberOfBytes": "20"
					},
					"t_mapping(t_address,t_uint256)": {
						"encoding": "mapping",
						"key": "t_address",
						"label": "mapping(address => uint256)",
						"numberOfBytes": "32",
						"value": "t_uint256"
					},
					"t_uint256": {
						"encoding": "inplace",
						"label": "uint256",
						"numberOfBytes": "32"
					}
				}
			},
			"userdoc": {
				"kind": "user",
				"methods": {},
				"notice": "───────────────────────────────────────────────────────────────────────────── 4) SAFE: honeypot detection on repetitive scans    • Defense: HoneypotDetection   ─────────────────────────────────────────────────────────────────────────────",
				"version": 1
			}
		}
	}
}