{
	"D/Distributed Scans/Distributed Scans.sol": {
		"DistributedScansVuln": {
			"abi": [
				{
					"anonymous": false,
					"inputs": [
						{
							"indexed": true,
							"internalType": "address",
							"name": "by",
							"type": "address"
						},
						{
							"indexed": true,
							"internalType": "address",
							"name": "target",
							"type": "address"
						},
						{
							"indexed": false,
							"internalType": "enum DistributedScanType",
							"name": "dtype",
							"type": "uint8"
						},
						{
							"indexed": false,
							"internalType": "enum DistributedScanAttackType",
							"name": "attack",
							"type": "uint8"
						}
					],
					"name": "ScanPerformed",
					"type": "event"
				},
				{
					"inputs": [
						{
							"internalType": "address",
							"name": "target",
							"type": "address"
						},
						{
							"internalType": "enum DistributedScanType",
							"name": "dtype",
							"type": "uint8"
						}
					],
					"name": "scan",
					"outputs": [],
					"stateMutability": "nonpayable",
					"type": "function"
				}
			],
			"devdoc": {
				"kind": "dev",
				"methods": {},
				"version": 1
			},
			"evm": {
				"assembly": "    /* \"D/Distributed Scans/Distributed Scans.sol\":1288:1669  contract DistributedScansVuln {... */\n  mstore(0x40, 0x80)\n  callvalue\n  dup1\n  iszero\n  tag_1\n  jumpi\n  0x00\n  dup1\n  revert\ntag_1:\n  pop\n  dataSize(sub_0)\n  dup1\n  dataOffset(sub_0)\n  0x00\n  codecopy\n  0x00\n  return\nstop\n\nsub_0: assembly {\n        /* \"D/Distributed Scans/Distributed Scans.sol\":1288:1669  contract DistributedScansVuln {... */\n      mstore(0x40, 0x80)\n      callvalue\n      dup1\n      iszero\n      tag_1\n      jumpi\n      0x00\n      dup1\n      revert\n    tag_1:\n      pop\n      jumpi(tag_2, lt(calldatasize, 0x04))\n      shr(0xe0, calldataload(0x00))\n      dup1\n      0x265c339a\n      eq\n      tag_3\n      jumpi\n    tag_2:\n      0x00\n      dup1\n      revert\n        /* \"D/Distributed Scans/Distributed Scans.sol\":1493:1667  function scan(address target, DistributedScanType dtype) external {... */\n    tag_3:\n      tag_4\n      0x04\n      dup1\n      calldatasize\n      sub\n      dup2\n      add\n      swap1\n      tag_5\n      swap2\n      swap1\n      tag_6\n      jump\t// in\n    tag_5:\n      tag_7\n      jump\t// in\n    tag_4:\n      stop\n    tag_7:\n        /* \"D/Distributed Scans/Distributed Scans.sol\":1600:1606  target */\n      dup2\n        /* \"D/Distributed Scans/Distributed Scans.sol\":1574:1660  ScanPerformed(msg.sender, target, dtype, DistributedScanAttackType.ResourceExhaustion) */\n      0xffffffffffffffffffffffffffffffffffffffff\n      and\n        /* \"D/Distributed Scans/Distributed Scans.sol\":1588:1598  msg.sender */\n      caller\n        /* \"D/Distributed Scans/Distributed Scans.sol\":1574:1660  ScanPerformed(msg.sender, target, dtype, DistributedScanAttackType.ResourceExhaustion) */\n      0xffffffffffffffffffffffffffffffffffffffff\n      and\n      0x78cd1f500bd67d2925bb83aa58c6f5ded66304c0ab11562b39edb381f2d2fbd0\n        /* \"D/Distributed Scans/Distributed Scans.sol\":1608:1613  dtype */\n      dup4\n        /* \"D/Distributed Scans/Distributed Scans.sol\":1615:1659  DistributedScanAttackType.ResourceExhaustion */\n      0x00\n        /* \"D/Distributed Scans/Distributed Scans.sol\":1574:1660  ScanPerformed(msg.sender, target, dtype, DistributedScanAttackType.ResourceExhaustion) */\n      mload(0x40)\n      tag_9\n      swap3\n      swap2\n      swap1\n      tag_10\n      jump\t// in\n    tag_9:\n      mload(0x40)\n      dup1\n      swap2\n      sub\n      swap1\n      log3\n        /* \"D/Distributed Scans/Distributed Scans.sol\":1493:1667  function scan(address target, DistributedScanType dtype) external {... */\n      pop\n      pop\n      jump\t// out\n        /* \"#utility.yul\":88:205   */\n    tag_12:\n        /* \"#utility.yul\":197:198   */\n      0x00\n        /* \"#utility.yul\":194:195   */\n      dup1\n        /* \"#utility.yul\":187:199   */\n      revert\n        /* \"#utility.yul\":334:460   */\n    tag_14:\n        /* \"#utility.yul\":371:378   */\n      0x00\n        /* \"#utility.yul\":411:453   */\n      0xffffffffffffffffffffffffffffffffffffffff\n        /* \"#utility.yul\":404:409   */\n      dup3\n        /* \"#utility.yul\":400:454   */\n      and\n        /* \"#utility.yul\":389:454   */\n      swap1\n      pop\n        /* \"#utility.yul\":334:460   */\n      swap2\n      swap1\n      pop\n      jump\t// out\n        /* \"#utility.yul\":466:562   */\n    tag_15:\n        /* \"#utility.yul\":503:510   */\n      0x00\n        /* \"#utility.yul\":532:556   */\n      tag_35\n        /* \"#utility.yul\":550:555   */\n      dup3\n        /* \"#utility.yul\":532:556   */\n      tag_14\n      jump\t// in\n    tag_35:\n        /* \"#utility.yul\":521:556   */\n      swap1\n      pop\n        /* \"#utility.yul\":466:562   */\n      swap2\n      swap1\n      pop\n      jump\t// out\n        /* \"#utility.yul\":568:690   */\n    tag_16:\n        /* \"#utility.yul\":641:665   */\n      tag_37\n        /* \"#utility.yul\":659:664   */\n      dup2\n        /* \"#utility.yul\":641:665   */\n      tag_15\n      jump\t// in\n    tag_37:\n        /* \"#utility.yul\":634:639   */\n      dup2\n        /* \"#utility.yul\":631:666   */\n      eq\n        /* \"#utility.yul\":621:684   */\n      tag_38\n      jumpi\n        /* \"#utility.yul\":680:681   */\n      0x00\n        /* \"#utility.yul\":677:678   */\n      dup1\n        /* \"#utility.yul\":670:682   */\n      revert\n        /* \"#utility.yul\":621:684   */\n    tag_38:\n        /* \"#utility.yul\":568:690   */\n      pop\n      jump\t// out\n        /* \"#utility.yul\":696:835   */\n    tag_17:\n        /* \"#utility.yul\":742:747   */\n      0x00\n        /* \"#utility.yul\":780:786   */\n      dup2\n        /* \"#utility.yul\":767:787   */\n      calldataload\n        /* \"#utility.yul\":758:787   */\n      swap1\n      pop\n        /* \"#utility.yul\":796:829   */\n      tag_40\n        /* \"#utility.yul\":823:828   */\n      dup2\n        /* \"#utility.yul\":796:829   */\n      tag_16\n      jump\t// in\n    tag_40:\n        /* \"#utility.yul\":696:835   */\n      swap3\n      swap2\n      pop\n      pop\n      jump\t// out\n        /* \"#utility.yul\":841:961   */\n    tag_18:\n        /* \"#utility.yul\":935:936   */\n      0x03\n        /* \"#utility.yul\":928:933   */\n      dup2\n        /* \"#utility.yul\":925:937   */\n      lt\n        /* \"#utility.yul\":915:955   */\n      tag_42\n      jumpi\n        /* \"#utility.yul\":951:952   */\n      0x00\n        /* \"#utility.yul\":948:949   */\n      dup1\n        /* \"#utility.yul\":941:953   */\n      revert\n        /* \"#utility.yul\":915:955   */\n    tag_42:\n        /* \"#utility.yul\":841:961   */\n      pop\n      jump\t// out\n        /* \"#utility.yul\":967:1148   */\n    tag_19:\n        /* \"#utility.yul\":1034:1039   */\n      0x00\n        /* \"#utility.yul\":1072:1078   */\n      dup2\n        /* \"#utility.yul\":1059:1079   */\n      calldataload\n        /* \"#utility.yul\":1050:1079   */\n      swap1\n      pop\n        /* \"#utility.yul\":1088:1142   */\n      tag_44\n        /* \"#utility.yul\":1136:1141   */\n      dup2\n        /* \"#utility.yul\":1088:1142   */\n      tag_18\n      jump\t// in\n    tag_44:\n        /* \"#utility.yul\":967:1148   */\n      swap3\n      swap2\n      pop\n      pop\n      jump\t// out\n        /* \"#utility.yul\":1154:1670   */\n    tag_6:\n        /* \"#utility.yul\":1243:1249   */\n      0x00\n        /* \"#utility.yul\":1251:1257   */\n      dup1\n        /* \"#utility.yul\":1300:1302   */\n      0x40\n        /* \"#utility.yul\":1288:1297   */\n      dup4\n        /* \"#utility.yul\":1279:1286   */\n      dup6\n        /* \"#utility.yul\":1275:1298   */\n      sub\n        /* \"#utility.yul\":1271:1303   */\n      slt\n        /* \"#utility.yul\":1268:1387   */\n      iszero\n      tag_46\n      jumpi\n        /* \"#utility.yul\":1306:1385   */\n      tag_47\n      tag_12\n      jump\t// in\n    tag_47:\n        /* \"#utility.yul\":1268:1387   */\n    tag_46:\n        /* \"#utility.yul\":1426:1427   */\n      0x00\n        /* \"#utility.yul\":1451:1504   */\n      tag_48\n        /* \"#utility.yul\":1496:1503   */\n      dup6\n        /* \"#utility.yul\":1487:1493   */\n      dup3\n        /* \"#utility.yul\":1476:1485   */\n      dup7\n        /* \"#utility.yul\":1472:1494   */\n      add\n        /* \"#utility.yul\":1451:1504   */\n      tag_17\n      jump\t// in\n    tag_48:\n        /* \"#utility.yul\":1441:1504   */\n      swap3\n      pop\n        /* \"#utility.yul\":1397:1514   */\n      pop\n        /* \"#utility.yul\":1553:1555   */\n      0x20\n        /* \"#utility.yul\":1579:1653   */\n      tag_49\n        /* \"#utility.yul\":1645:1652   */\n      dup6\n        /* \"#utility.yul\":1636:1642   */\n      dup3\n        /* \"#utility.yul\":1625:1634   */\n      dup7\n        /* \"#utility.yul\":1621:1643   */\n      add\n        /* \"#utility.yul\":1579:1653   */\n      tag_19\n      jump\t// in\n    tag_49:\n        /* \"#utility.yul\":1569:1653   */\n      swap2\n      pop\n        /* \"#utility.yul\":1524:1663   */\n      pop\n        /* \"#utility.yul\":1154:1670   */\n      swap3\n      pop\n      swap3\n      swap1\n      pop\n      jump\t// out\n        /* \"#utility.yul\":1676:1856   */\n    tag_20:\n        /* \"#utility.yul\":1724:1801   */\n      0x4e487b7100000000000000000000000000000000000000000000000000000000\n        /* \"#utility.yul\":1721:1722   */\n      0x00\n        /* \"#utility.yul\":1714:1802   */\n      mstore\n        /* \"#utility.yul\":1821:1825   */\n      0x21\n        /* \"#utility.yul\":1818:1819   */\n      0x04\n        /* \"#utility.yul\":1811:1826   */\n      mstore\n        /* \"#utility.yul\":1845:1849   */\n      0x24\n        /* \"#utility.yul\":1842:1843   */\n      0x00\n        /* \"#utility.yul\":1835:1850   */\n      revert\n        /* \"#utility.yul\":1862:1988   */\n    tag_21:\n        /* \"#utility.yul\":1956:1957   */\n      0x03\n        /* \"#utility.yul\":1949:1954   */\n      dup2\n        /* \"#utility.yul\":1946:1958   */\n      lt\n        /* \"#utility.yul\":1936:1982   */\n      tag_52\n      jumpi\n        /* \"#utility.yul\":1962:1980   */\n      tag_53\n      tag_20\n      jump\t// in\n    tag_53:\n        /* \"#utility.yul\":1936:1982   */\n    tag_52:\n        /* \"#utility.yul\":1862:1988   */\n      pop\n      jump\t// out\n        /* \"#utility.yul\":1994:2147   */\n    tag_22:\n        /* \"#utility.yul\":2052:2059   */\n      0x00\n        /* \"#utility.yul\":2081:2086   */\n      dup2\n        /* \"#utility.yul\":2070:2086   */\n      swap1\n      pop\n        /* \"#utility.yul\":2087:2141   */\n      tag_55\n        /* \"#utility.yul\":2135:2140   */\n      dup3\n        /* \"#utility.yul\":2087:2141   */\n      tag_21\n      jump\t// in\n    tag_55:\n        /* \"#utility.yul\":1994:2147   */\n      swap2\n      swap1\n      pop\n      jump\t// out\n        /* \"#utility.yul\":2153:2306   */\n    tag_23:\n        /* \"#utility.yul\":2222:2231   */\n      0x00\n        /* \"#utility.yul\":2255:2300   */\n      tag_57\n        /* \"#utility.yul\":2294:2299   */\n      dup3\n        /* \"#utility.yul\":2255:2300   */\n      tag_22\n      jump\t// in\n    tag_57:\n        /* \"#utility.yul\":2242:2300   */\n      swap1\n      pop\n        /* \"#utility.yul\":2153:2306   */\n      swap2\n      swap1\n      pop\n      jump\t// out\n        /* \"#utility.yul\":2312:2481   */\n    tag_24:\n        /* \"#utility.yul\":2418:2474   */\n      tag_59\n        /* \"#utility.yul\":2468:2473   */\n      dup2\n        /* \"#utility.yul\":2418:2474   */\n      tag_23\n      jump\t// in\n    tag_59:\n        /* \"#utility.yul\":2413:2416   */\n      dup3\n        /* \"#utility.yul\":2406:2475   */\n      mstore\n        /* \"#utility.yul\":2312:2481   */\n      pop\n      pop\n      jump\t// out\n        /* \"#utility.yul\":2487:2620   */\n    tag_25:\n        /* \"#utility.yul\":2588:2589   */\n      0x03\n        /* \"#utility.yul\":2581:2586   */\n      dup2\n        /* \"#utility.yul\":2578:2590   */\n      lt\n        /* \"#utility.yul\":2568:2614   */\n      tag_61\n      jumpi\n        /* \"#utility.yul\":2594:2612   */\n      tag_62\n      tag_20\n      jump\t// in\n    tag_62:\n        /* \"#utility.yul\":2568:2614   */\n    tag_61:\n        /* \"#utility.yul\":2487:2620   */\n      pop\n      jump\t// out\n        /* \"#utility.yul\":2626:2793   */\n    tag_26:\n        /* \"#utility.yul\":2691:2698   */\n      0x00\n        /* \"#utility.yul\":2720:2725   */\n      dup2\n        /* \"#utility.yul\":2709:2725   */\n      swap1\n      pop\n        /* \"#utility.yul\":2726:2787   */\n      tag_64\n        /* \"#utility.yul\":2781:2786   */\n      dup3\n        /* \"#utility.yul\":2726:2787   */\n      tag_25\n      jump\t// in\n    tag_64:\n        /* \"#utility.yul\":2626:2793   */\n      swap2\n      swap1\n      pop\n      jump\t// out\n        /* \"#utility.yul\":2799:2966   */\n    tag_27:\n        /* \"#utility.yul\":2875:2884   */\n      0x00\n        /* \"#utility.yul\":2908:2960   */\n      tag_66\n        /* \"#utility.yul\":2954:2959   */\n      dup3\n        /* \"#utility.yul\":2908:2960   */\n      tag_26\n      jump\t// in\n    tag_66:\n        /* \"#utility.yul\":2895:2960   */\n      swap1\n      pop\n        /* \"#utility.yul\":2799:2966   */\n      swap2\n      swap1\n      pop\n      jump\t// out\n        /* \"#utility.yul\":2972:3155   */\n    tag_28:\n        /* \"#utility.yul\":3085:3148   */\n      tag_68\n        /* \"#utility.yul\":3142:3147   */\n      dup2\n        /* \"#utility.yul\":3085:3148   */\n      tag_27\n      jump\t// in\n    tag_68:\n        /* \"#utility.yul\":3080:3083   */\n      dup3\n        /* \"#utility.yul\":3073:3149   */\n      mstore\n        /* \"#utility.yul\":2972:3155   */\n      pop\n      pop\n      jump\t// out\n        /* \"#utility.yul\":3161:3583   */\n    tag_10:\n        /* \"#utility.yul\":3327:3331   */\n      0x00\n        /* \"#utility.yul\":3365:3367   */\n      0x40\n        /* \"#utility.yul\":3354:3363   */\n      dup3\n        /* \"#utility.yul\":3350:3368   */\n      add\n        /* \"#utility.yul\":3342:3368   */\n      swap1\n      pop\n        /* \"#utility.yul\":3378:3468   */\n      tag_70\n        /* \"#utility.yul\":3465:3466   */\n      0x00\n        /* \"#utility.yul\":3454:3463   */\n      dup4\n        /* \"#utility.yul\":3450:3467   */\n      add\n        /* \"#utility.yul\":3441:3447   */\n      dup6\n        /* \"#utility.yul\":3378:3468   */\n      tag_24\n      jump\t// in\n    tag_70:\n        /* \"#utility.yul\":3478:3576   */\n      tag_71\n        /* \"#utility.yul\":3572:3574   */\n      0x20\n        /* \"#utility.yul\":3561:3570   */\n      dup4\n        /* \"#utility.yul\":3557:3575   */\n      add\n        /* \"#utility.yul\":3548:3554   */\n      dup5\n        /* \"#utility.yul\":3478:3576   */\n      tag_28\n      jump\t// in\n    tag_71:\n        /* \"#utility.yul\":3161:3583   */\n      swap4\n      swap3\n      pop\n      pop\n      pop\n      jump\t// out\n\n    auxdata: 0xa2646970667358221220c24020860774446ae470a7263f1805362e9efb480a3add9a5acf9cdbaa0142cf64736f6c634300081a0033\n}\n",
				"bytecode": {
					"linkReferences": {},
					"object": "6080604052348015600e575f80fd5b506102898061001c5f395ff3fe608060405234801561000f575f80fd5b5060043610610029575f3560e01c8063265c339a1461002d575b5f80fd5b61004760048036038101906100429190610135565b610049565b005b8173ffffffffffffffffffffffffffffffffffffffff163373ffffffffffffffffffffffffffffffffffffffff167f78cd1f500bd67d2925bb83aa58c6f5ded66304c0ab11562b39edb381f2d2fbd0835f6040516100a892919061022c565b60405180910390a35050565b5f80fd5b5f73ffffffffffffffffffffffffffffffffffffffff82169050919050565b5f6100e1826100b8565b9050919050565b6100f1816100d7565b81146100fb575f80fd5b50565b5f8135905061010c816100e8565b92915050565b6003811061011e575f80fd5b50565b5f8135905061012f81610112565b92915050565b5f806040838503121561014b5761014a6100b4565b5b5f610158858286016100fe565b925050602061016985828601610121565b9150509250929050565b7f4e487b71000000000000000000000000000000000000000000000000000000005f52602160045260245ffd5b600381106101b1576101b0610173565b5b50565b5f8190506101c1826101a0565b919050565b5f6101d0826101b4565b9050919050565b6101e0816101c6565b82525050565b600381106101f7576101f6610173565b5b50565b5f819050610207826101e6565b919050565b5f610216826101fa565b9050919050565b6102268161020c565b82525050565b5f60408201905061023f5f8301856101d7565b61024c602083018461021d565b939250505056fea2646970667358221220c24020860774446ae470a7263f1805362e9efb480a3add9a5acf9cdbaa0142cf64736f6c634300081a0033",
					"opcodes": "PUSH1 0x80 PUSH1 0x40 MSTORE CALLVALUE DUP1 ISZERO PUSH1 0xE JUMPI PUSH0 DUP1 REVERT JUMPDEST POP PUSH2 0x289 DUP1 PUSH2 0x1C PUSH0 CODECOPY PUSH0 RETURN INVALID PUSH1 0x80 PUSH1 0x40 MSTORE CALLVALUE DUP1 ISZERO PUSH2 0xF JUMPI PUSH0 DUP1 REVERT JUMPDEST POP PUSH1 0x4 CALLDATASIZE LT PUSH2 0x29 JUMPI PUSH0 CALLDATALOAD PUSH1 0xE0 SHR DUP1 PUSH4 0x265C339A EQ PUSH2 0x2D JUMPI JUMPDEST PUSH0 DUP1 REVERT JUMPDEST PUSH2 0x47 PUSH1 0x4 DUP1 CALLDATASIZE SUB DUP2 ADD SWAP1 PUSH2 0x42 SWAP2 SWAP1 PUSH2 0x135 JUMP JUMPDEST PUSH2 0x49 JUMP JUMPDEST STOP JUMPDEST DUP2 PUSH20 0xFFFFFFFFFFFFFFFFFFFFFFFFFFFFFFFFFFFFFFFF AND CALLER PUSH20 0xFFFFFFFFFFFFFFFFFFFFFFFFFFFFFFFFFFFFFFFF AND PUSH32 0x78CD1F500BD67D2925BB83AA58C6F5DED66304C0AB11562B39EDB381F2D2FBD0 DUP4 PUSH0 PUSH1 0x40 MLOAD PUSH2 0xA8 SWAP3 SWAP2 SWAP1 PUSH2 0x22C JUMP JUMPDEST PUSH1 0x40 MLOAD DUP1 SWAP2 SUB SWAP1 LOG3 POP POP JUMP JUMPDEST PUSH0 DUP1 REVERT JUMPDEST PUSH0 PUSH20 0xFFFFFFFFFFFFFFFFFFFFFFFFFFFFFFFFFFFFFFFF DUP3 AND SWAP1 POP SWAP2 SWAP1 POP JUMP JUMPDEST PUSH0 PUSH2 0xE1 DUP3 PUSH2 0xB8 JUMP JUMPDEST SWAP1 POP SWAP2 SWAP1 POP JUMP JUMPDEST PUSH2 0xF1 DUP2 PUSH2 0xD7 JUMP JUMPDEST DUP2 EQ PUSH2 0xFB JUMPI PUSH0 DUP1 REVERT JUMPDEST POP JUMP JUMPDEST PUSH0 DUP2 CALLDATALOAD SWAP1 POP PUSH2 0x10C DUP2 PUSH2 0xE8 JUMP JUMPDEST SWAP3 SWAP2 POP POP JUMP JUMPDEST PUSH1 0x3 DUP2 LT PUSH2 0x11E JUMPI PUSH0 DUP1 REVERT JUMPDEST POP JUMP JUMPDEST PUSH0 DUP2 CALLDATALOAD SWAP1 POP PUSH2 0x12F DUP2 PUSH2 0x112 JUMP JUMPDEST SWAP3 SWAP2 POP POP JUMP JUMPDEST PUSH0 DUP1 PUSH1 0x40 DUP4 DUP6 SUB SLT ISZERO PUSH2 0x14B JUMPI PUSH2 0x14A PUSH2 0xB4 JUMP JUMPDEST JUMPDEST PUSH0 PUSH2 0x158 DUP6 DUP3 DUP7 ADD PUSH2 0xFE JUMP JUMPDEST SWAP3 POP POP PUSH1 0x20 PUSH2 0x169 DUP6 DUP3 DUP7 ADD PUSH2 0x121 JUMP JUMPDEST SWAP2 POP POP SWAP3 POP SWAP3 SWAP1 POP JUMP JUMPDEST PUSH32 0x4E487B7100000000000000000000000000000000000000000000000000000000 PUSH0 MSTORE PUSH1 0x21 PUSH1 0x4 MSTORE PUSH1 0x24 PUSH0 REVERT JUMPDEST PUSH1 0x3 DUP2 LT PUSH2 0x1B1 JUMPI PUSH2 0x1B0 PUSH2 0x173 JUMP JUMPDEST JUMPDEST POP JUMP JUMPDEST PUSH0 DUP2 SWAP1 POP PUSH2 0x1C1 DUP3 PUSH2 0x1A0 JUMP JUMPDEST SWAP2 SWAP1 POP JUMP JUMPDEST PUSH0 PUSH2 0x1D0 DUP3 PUSH2 0x1B4 JUMP JUMPDEST SWAP1 POP SWAP2 SWAP1 POP JUMP JUMPDEST PUSH2 0x1E0 DUP2 PUSH2 0x1C6 JUMP JUMPDEST DUP3 MSTORE POP POP JUMP JUMPDEST PUSH1 0x3 DUP2 LT PUSH2 0x1F7 JUMPI PUSH2 0x1F6 PUSH2 0x173 JUMP JUMPDEST JUMPDEST POP JUMP JUMPDEST PUSH0 DUP2 SWAP1 POP PUSH2 0x207 DUP3 PUSH2 0x1E6 JUMP JUMPDEST SWAP2 SWAP1 POP JUMP JUMPDEST PUSH0 PUSH2 0x216 DUP3 PUSH2 0x1FA JUMP JUMPDEST SWAP1 POP SWAP2 SWAP1 POP JUMP JUMPDEST PUSH2 0x226 DUP2 PUSH2 0x20C JUMP JUMPDEST DUP3 MSTORE POP POP JUMP JUMPDEST PUSH0 PUSH1 0x40 DUP3 ADD SWAP1 POP PUSH2 0x23F PUSH0 DUP4 ADD DUP6 PUSH2 0x1D7 JUMP JUMPDEST PUSH2 0x24C PUSH1 0x20 DUP4 ADD DUP5 PUSH2 0x21D JUMP JUMPDEST SWAP4 SWAP3 POP POP POP JUMP INVALID LOG2 PUSH5 0x6970667358 0x22 SLT KECCAK256 0xC2 BLOCKHASH KECCAK256 DUP7 SMOD PUSH21 0x446AE470A7263F1805362E9EFB480A3ADD9A5ACF9C 0xDB 0xAA ADD TIMESTAMP 0xCF PUSH5 0x736F6C6343 STOP ADDMOD BYTE STOP CALLER "
				},
				"gasEstimates": {
					"creation": {
						"codeDepositCost": "129800",
						"executionCost": "175",
						"totalCost": "129975"
					},
					"external": {
						"scan(address,uint8)": "3056"
					}
				},
				"methodIdentifiers": {
					"scan(address,uint8)": "265c339a"
				}
			},
			"storageLayout": {
				"storage": [],
				"types": null
			},
			"userdoc": {
				"kind": "user",
				"methods": {},
				"notice": "───────────────────────────────────────────────────────────────────────────── 1) VULNERABLE: no limits or checks on scanning    • any caller may scan any target at any rate      • Attack: ResourceExhaustion ─────────────────────────────────────────────────────────────────────────────",
				"version": 1
			}
		}
	}
}