{
	"data": {
		"bytecode": {
			"linkReferences": {},
			"object": "6080604052348015600e575f80fd5b506103718061001c5f395ff3fe608060405234801561000f575f80fd5b5060043610610034575f3560e01c806368cc230e1461003857806381ea440814610069575b5f80fd5b610052600480360381019061004d91906101cc565b610099565b604051610060929190610249565b60405180910390f35b610083600480360381019061007e91906102ca565b610159565b60405161009091906102f5565b60405180910390f35b5f805f84849050036100b5575f80805f1b905091509150610152565b6100e584845f8181106100cb576100ca61030e565b5b90506020020160208101906100e091906102ca565b610159565b90505f600190505b8484905081101561014c578161012986868481811061010f5761010e61030e565b5b905060200201602081019061012491906102ca565b610159565b1461013f575f80805f1b90509250925050610152565b80806001019150506100ed565b50600191505b9250929050565b5f813f9050919050565b5f80fd5b5f80fd5b5f80fd5b5f80fd5b5f80fd5b5f8083601f84011261018c5761018b61016b565b5b8235905067ffffffffffffffff8111156101a9576101a861016f565b5b6020830191508360208202830111156101c5576101c4610173565b5b9250929050565b5f80602083850312156101e2576101e1610163565b5b5f83013567ffffffffffffffff8111156101ff576101fe610167565b5b61020b85828601610177565b92509250509250929050565b5f8115159050919050565b61022b81610217565b82525050565b5f819050919050565b61024381610231565b82525050565b5f60408201905061025c5f830185610222565b610269602083018461023a565b9392505050565b5f73ffffffffffffffffffffffffffffffffffffffff82169050919050565b5f61029982610270565b9050919050565b6102a98161028f565b81146102b3575f80fd5b50565b5f813590506102c4816102a0565b92915050565b5f602082840312156102df576102de610163565b5b5f6102ec848285016102b6565b91505092915050565b5f6020820190506103085f83018461023a565b92915050565b7f4e487b71000000000000000000000000000000000000000000000000000000005f52603260045260245ffdfea2646970667358221220b73ea5caf5546827af6b253db44cad506feb0082205b959e438ff97a8c0d5f9664736f6c634300081a0033",
			"opcodes": "PUSH1 0x80 PUSH1 0x40 MSTORE CALLVALUE DUP1 ISZERO PUSH1 0xE JUMPI PUSH0 DUP1 REVERT JUMPDEST POP PUSH2 0x371 DUP1 PUSH2 0x1C PUSH0 CODECOPY PUSH0 RETURN INVALID PUSH1 0x80 PUSH1 0x40 MSTORE CALLVALUE DUP1 ISZERO PUSH2 0xF JUMPI PUSH0 DUP1 REVERT JUMPDEST POP PUSH1 0x4 CALLDATASIZE LT PUSH2 0x34 JUMPI PUSH0 CALLDATALOAD PUSH1 0xE0 SHR DUP1 PUSH4 0x68CC230E EQ PUSH2 0x38 JUMPI DUP1 PUSH4 0x81EA4408 EQ PUSH2 0x69 JUMPI JUMPDEST PUSH0 DUP1 REVERT JUMPDEST PUSH2 0x52 PUSH1 0x4 DUP1 CALLDATASIZE SUB DUP2 ADD SWAP1 PUSH2 0x4D SWAP2 SWAP1 PUSH2 0x1CC JUMP JUMPDEST PUSH2 0x99 JUMP JUMPDEST PUSH1 0x40 MLOAD PUSH2 0x60 SWAP3 SWAP2 SWAP1 PUSH2 0x249 JUMP JUMPDEST PUSH1 0x40 MLOAD DUP1 SWAP2 SUB SWAP1 RETURN JUMPDEST PUSH2 0x83 PUSH1 0x4 DUP1 CALLDATASIZE SUB DUP2 ADD SWAP1 PUSH2 0x7E SWAP2 SWAP1 PUSH2 0x2CA JUMP JUMPDEST PUSH2 0x159 JUMP JUMPDEST PUSH1 0x40 MLOAD PUSH2 0x90 SWAP2 SWAP1 PUSH2 0x2F5 JUMP JUMPDEST PUSH1 0x40 MLOAD DUP1 SWAP2 SUB SWAP1 RETURN JUMPDEST PUSH0 DUP1 PUSH0 DUP5 DUP5 SWAP1 POP SUB PUSH2 0xB5 JUMPI PUSH0 DUP1 DUP1 PUSH0 SHL SWAP1 POP SWAP2 POP SWAP2 POP PUSH2 0x152 JUMP JUMPDEST PUSH2 0xE5 DUP5 DUP5 PUSH0 DUP2 DUP2 LT PUSH2 0xCB JUMPI PUSH2 0xCA PUSH2 0x30E JUMP JUMPDEST JUMPDEST SWAP1 POP PUSH1 0x20 MUL ADD PUSH1 0x20 DUP2 ADD SWAP1 PUSH2 0xE0 SWAP2 SWAP1 PUSH2 0x2CA JUMP JUMPDEST PUSH2 0x159 JUMP JUMPDEST SWAP1 POP PUSH0 PUSH1 0x1 SWAP1 POP JUMPDEST DUP5 DUP5 SWAP1 POP DUP2 LT ISZERO PUSH2 0x14C JUMPI DUP2 PUSH2 0x129 DUP7 DUP7 DUP5 DUP2 DUP2 LT PUSH2 0x10F JUMPI PUSH2 0x10E PUSH2 0x30E JUMP JUMPDEST JUMPDEST SWAP1 POP PUSH1 0x20 MUL ADD PUSH1 0x20 DUP2 ADD SWAP1 PUSH2 0x124 SWAP2 SWAP1 PUSH2 0x2CA JUMP JUMPDEST PUSH2 0x159 JUMP JUMPDEST EQ PUSH2 0x13F JUMPI PUSH0 DUP1 DUP1 PUSH0 SHL SWAP1 POP SWAP3 POP SWAP3 POP POP PUSH2 0x152 JUMP JUMPDEST DUP1 DUP1 PUSH1 0x1 ADD SWAP2 POP POP PUSH2 0xED JUMP JUMPDEST POP PUSH1 0x1 SWAP2 POP JUMPDEST SWAP3 POP SWAP3 SWAP1 POP JUMP JUMPDEST PUSH0 DUP2 EXTCODEHASH SWAP1 POP SWAP2 SWAP1 POP JUMP JUMPDEST PUSH0 DUP1 REVERT JUMPDEST PUSH0 DUP1 REVERT JUMPDEST PUSH0 DUP1 REVERT JUMPDEST PUSH0 DUP1 REVERT JUMPDEST PUSH0 DUP1 REVERT JUMPDEST PUSH0 DUP1 DUP4 PUSH1 0x1F DUP5 ADD SLT PUSH2 0x18C JUMPI PUSH2 0x18B PUSH2 0x16B JUMP JUMPDEST JUMPDEST DUP3 CALLDATALOAD SWAP1 POP PUSH8 0xFFFFFFFFFFFFFFFF DUP2 GT ISZERO PUSH2 0x1A9 JUMPI PUSH2 0x1A8 PUSH2 0x16F JUMP JUMPDEST JUMPDEST PUSH1 0x20 DUP4 ADD SWAP2 POP DUP4 PUSH1 0x20 DUP3 MUL DUP4 ADD GT ISZERO PUSH2 0x1C5 JUMPI PUSH2 0x1C4 PUSH2 0x173 JUMP JUMPDEST JUMPDEST SWAP3 POP SWAP3 SWAP1 POP JUMP JUMPDEST PUSH0 DUP1 PUSH1 0x20 DUP4 DUP6 SUB SLT ISZERO PUSH2 0x1E2 JUMPI PUSH2 0x1E1 PUSH2 0x163 JUMP JUMPDEST JUMPDEST PUSH0 DUP4 ADD CALLDATALOAD PUSH8 0xFFFFFFFFFFFFFFFF DUP2 GT ISZERO PUSH2 0x1FF JUMPI PUSH2 0x1FE PUSH2 0x167 JUMP JUMPDEST JUMPDEST PUSH2 0x20B DUP6 DUP3 DUP7 ADD PUSH2 0x177 JUMP JUMPDEST SWAP3 POP SWAP3 POP POP SWAP3 POP SWAP3 SWAP1 POP JUMP JUMPDEST PUSH0 DUP2 ISZERO ISZERO SWAP1 POP SWAP2 SWAP1 POP JUMP JUMPDEST PUSH2 0x22B DUP2 PUSH2 0x217 JUMP JUMPDEST DUP3 MSTORE POP POP JUMP JUMPDEST PUSH0 DUP2 SWAP1 POP SWAP2 SWAP1 POP JUMP JUMPDEST PUSH2 0x243 DUP2 PUSH2 0x231 JUMP JUMPDEST DUP3 MSTORE POP POP JUMP JUMPDEST PUSH0 PUSH1 0x40 DUP3 ADD SWAP1 POP PUSH2 0x25C PUSH0 DUP4 ADD DUP6 PUSH2 0x222 JUMP JUMPDEST PUSH2 0x269 PUSH1 0x20 DUP4 ADD DUP5 PUSH2 0x23A JUMP JUMPDEST SWAP4 SWAP3 POP POP POP JUMP JUMPDEST PUSH0 PUSH20 0xFFFFFFFFFFFFFFFFFFFFFFFFFFFFFFFFFFFFFFFF DUP3 AND SWAP1 POP SWAP2 SWAP1 POP JUMP JUMPDEST PUSH0 PUSH2 0x299 DUP3 PUSH2 0x270 JUMP JUMPDEST SWAP1 POP SWAP2 SWAP1 POP JUMP JUMPDEST PUSH2 0x2A9 DUP2 PUSH2 0x28F JUMP JUMPDEST DUP2 EQ PUSH2 0x2B3 JUMPI PUSH0 DUP1 REVERT JUMPDEST POP JUMP JUMPDEST PUSH0 DUP2 CALLDATALOAD SWAP1 POP PUSH2 0x2C4 DUP2 PUSH2 0x2A0 JUMP JUMPDEST SWAP3 SWAP2 POP POP JUMP JUMPDEST PUSH0 PUSH1 0x20 DUP3 DUP5 SUB SLT ISZERO PUSH2 0x2DF JUMPI PUSH2 0x2DE PUSH2 0x163 JUMP JUMPDEST JUMPDEST PUSH0 PUSH2 0x2EC DUP5 DUP3 DUP6 ADD PUSH2 0x2B6 JUMP JUMPDEST SWAP2 POP POP SWAP3 SWAP2 POP POP JUMP JUMPDEST PUSH0 PUSH1 0x20 DUP3 ADD SWAP1 POP PUSH2 0x308 PUSH0 DUP4 ADD DUP5 PUSH2 0x23A JUMP JUMPDEST SWAP3 SWAP2 POP POP JUMP JUMPDEST PUSH32 0x4E487B7100000000000000000000000000000000000000000000000000000000 PUSH0 MSTORE PUSH1 0x32 PUSH1 0x4 MSTORE PUSH1 0x24 PUSH0 REVERT INVALID LOG2 PUSH5 0x6970667358 0x22 SLT KECCAK256 0xB7 RETURNDATACOPY 0xA5 0xCA CREATE2 SLOAD PUSH9 0x27AF6B253DB44CAD50 PUSH16 0xEB0082205B959E438FF97A8C0D5F9664 PUSH20 0x6F6C634300081A00330000000000000000000000 "
		},
		"gasEstimates": {
			"creation": {
				"codeDepositCost": "176200",
				"executionCost": "218",
				"totalCost": "176418"
			},
			"external": {
				"detect(address[])": "infinite",
				"getCodeHash(address)": "3241"
			}
		},
		"methodIdentifiers": {
			"detect(address[])": "68cc230e",
			"getCodeHash(address)": "81ea4408"
		}
	},
	"abi": [
		{
			"inputs": [
				{
					"internalType": "address[]",
					"name": "targets",
					"type": "address[]"
				}
			],
			"name": "detect",
			"outputs": [
				{
					"internalType": "bool",
					"name": "isMonoculture",
					"type": "bool"
				},
				{
					"internalType": "bytes32",
					"name": "sharedHash",
					"type": "bytes32"
				}
			],
			"stateMutability": "view",
			"type": "function"
		},
		{
			"inputs": [
				{
					"internalType": "address",
					"name": "target",
					"type": "address"
				}
			],
			"name": "getCodeHash",
			"outputs": [
				{
					"internalType": "bytes32",
					"name": "hash",
					"type": "bytes32"
				}
			],
			"stateMutability": "view",
			"type": "function"
		}
	]
}