{
	"W/Zero Day/ZeroDayTimestampRace.sol": {
		"ZeroDayTimestampRace": {
			"abi": [
				{
					"inputs": [],
					"name": "executeOncePerMinute",
					"outputs": [],
					"stateMutability": "nonpayable",
					"type": "function"
				},
				{
					"inputs": [
						{
							"internalType": "address",
							"name": "",
							"type": "address"
						}
					],
					"name": "lastCalled",
					"outputs": [
						{
							"internalType": "uint256",
							"name": "",
							"type": "uint256"
						}
					],
					"stateMutability": "view",
					"type": "function"
				}
			],
			"devdoc": {
				"kind": "dev",
				"methods": {},
				"version": 1
			},
			"evm": {
				"assembly": "    /* \"W/Zero Day/ZeroDayTimestampRace.sol\":0:331  contract ZeroDayTimestampRace {... */\n  mstore(0x40, 0x80)\n  callvalue\n  dup1\n  iszero\n  tag_1\n  jumpi\n  0x00\n  dup1\n  revert\ntag_1:\n  pop\n  dataSize(sub_0)\n  dup1\n  dataOffset(sub_0)\n  0x00\n  codecopy\n  0x00\n  return\nstop\n\nsub_0: assembly {\n        /* \"W/Zero Day/ZeroDayTimestampRace.sol\":0:331  contract ZeroDayTimestampRace {... */\n      mstore(0x40, 0x80)\n      callvalue\n      dup1\n      iszero\n      tag_1\n      jumpi\n      0x00\n      dup1\n      revert\n    tag_1:\n      pop\n      jumpi(tag_2, lt(calldatasize, 0x04))\n      shr(0xe0, calldataload(0x00))\n      dup1\n      0x01f9e7ed\n      eq\n      tag_3\n      jumpi\n      dup1\n      0xe325704b\n      eq\n      tag_4\n      jumpi\n    tag_2:\n      0x00\n      dup1\n      revert\n        /* \"W/Zero Day/ZeroDayTimestampRace.sol\":36:81  mapping(address => uint256) public lastCalled */\n    tag_3:\n      tag_5\n      0x04\n      dup1\n      calldatasize\n      sub\n      dup2\n      add\n      swap1\n      tag_6\n      swap2\n      swap1\n      tag_7\n      jump\t// in\n    tag_6:\n      tag_8\n      jump\t// in\n    tag_5:\n      mload(0x40)\n      tag_9\n      swap2\n      swap1\n      tag_10\n      jump\t// in\n    tag_9:\n      mload(0x40)\n      dup1\n      swap2\n      sub\n      swap1\n      return\n        /* \"W/Zero Day/ZeroDayTimestampRace.sol\":88:329  function executeOncePerMinute() external {... */\n    tag_4:\n      tag_11\n      tag_12\n      jump\t// in\n    tag_11:\n      stop\n        /* \"W/Zero Day/ZeroDayTimestampRace.sol\":36:81  mapping(address => uint256) public lastCalled */\n    tag_8:\n      mstore(0x20, 0x00)\n      dup1\n      0x00\n      mstore\n      keccak256(0x00, 0x40)\n      0x00\n      swap2\n      pop\n      swap1\n      pop\n      sload\n      dup2\n      jump\t// out\n        /* \"W/Zero Day/ZeroDayTimestampRace.sol\":88:329  function executeOncePerMinute() external {... */\n    tag_12:\n        /* \"W/Zero Day/ZeroDayTimestampRace.sol\":190:192  60 */\n      0x3c\n        /* \"W/Zero Day/ZeroDayTimestampRace.sol\":165:175  lastCalled */\n      0x00\n        /* \"W/Zero Day/ZeroDayTimestampRace.sol\":165:187  lastCalled[msg.sender] */\n      dup1\n        /* \"W/Zero Day/ZeroDayTimestampRace.sol\":176:186  msg.sender */\n      caller\n        /* \"W/Zero Day/ZeroDayTimestampRace.sol\":165:187  lastCalled[msg.sender] */\n      0xffffffffffffffffffffffffffffffffffffffff\n      and\n      0xffffffffffffffffffffffffffffffffffffffff\n      and\n      dup2\n      mstore\n      0x20\n      add\n      swap1\n      dup2\n      mstore\n      0x20\n      add\n      0x00\n      keccak256\n      sload\n        /* \"W/Zero Day/ZeroDayTimestampRace.sol\":147:162  block.timestamp */\n      timestamp\n        /* \"W/Zero Day/ZeroDayTimestampRace.sol\":147:187  block.timestamp - lastCalled[msg.sender] */\n      tag_14\n      swap2\n      swap1\n      tag_15\n      jump\t// in\n    tag_14:\n        /* \"W/Zero Day/ZeroDayTimestampRace.sol\":147:192  block.timestamp - lastCalled[msg.sender] > 60 */\n      gt\n        /* \"W/Zero Day/ZeroDayTimestampRace.sol\":139:206  require(block.timestamp - lastCalled[msg.sender] > 60, \"Wait more\") */\n      tag_16\n      jumpi\n      mload(0x40)\n      0x08c379a000000000000000000000000000000000000000000000000000000000\n      dup2\n      mstore\n      0x04\n      add\n      tag_17\n      swap1\n      tag_18\n      jump\t// in\n    tag_17:\n      mload(0x40)\n      dup1\n      swap2\n      sub\n      swap1\n      revert\n    tag_16:\n        /* \"W/Zero Day/ZeroDayTimestampRace.sol\":241:256  block.timestamp */\n      timestamp\n        /* \"W/Zero Day/ZeroDayTimestampRace.sol\":216:226  lastCalled */\n      0x00\n        /* \"W/Zero Day/ZeroDayTimestampRace.sol\":216:238  lastCalled[msg.sender] */\n      dup1\n        /* \"W/Zero Day/ZeroDayTimestampRace.sol\":227:237  msg.sender */\n      caller\n        /* \"W/Zero Day/ZeroDayTimestampRace.sol\":216:238  lastCalled[msg.sender] */\n      0xffffffffffffffffffffffffffffffffffffffff\n      and\n      0xffffffffffffffffffffffffffffffffffffffff\n      and\n      dup2\n      mstore\n      0x20\n      add\n      swap1\n      dup2\n      mstore\n      0x20\n      add\n      0x00\n      keccak256\n        /* \"W/Zero Day/ZeroDayTimestampRace.sol\":216:256  lastCalled[msg.sender] = block.timestamp */\n      dup2\n      swap1\n      sstore\n      pop\n        /* \"W/Zero Day/ZeroDayTimestampRace.sol\":88:329  function executeOncePerMinute() external {... */\n      jump\t// out\n        /* \"#utility.yul\":88:205   */\n    tag_20:\n        /* \"#utility.yul\":197:198   */\n      0x00\n        /* \"#utility.yul\":194:195   */\n      dup1\n        /* \"#utility.yul\":187:199   */\n      revert\n        /* \"#utility.yul\":334:460   */\n    tag_22:\n        /* \"#utility.yul\":371:378   */\n      0x00\n        /* \"#utility.yul\":411:453   */\n      0xffffffffffffffffffffffffffffffffffffffff\n        /* \"#utility.yul\":404:409   */\n      dup3\n        /* \"#utility.yul\":400:454   */\n      and\n        /* \"#utility.yul\":389:454   */\n      swap1\n      pop\n        /* \"#utility.yul\":334:460   */\n      swap2\n      swap1\n      pop\n      jump\t// out\n        /* \"#utility.yul\":466:562   */\n    tag_23:\n        /* \"#utility.yul\":503:510   */\n      0x00\n        /* \"#utility.yul\":532:556   */\n      tag_38\n        /* \"#utility.yul\":550:555   */\n      dup3\n        /* \"#utility.yul\":532:556   */\n      tag_22\n      jump\t// in\n    tag_38:\n        /* \"#utility.yul\":521:556   */\n      swap1\n      pop\n        /* \"#utility.yul\":466:562   */\n      swap2\n      swap1\n      pop\n      jump\t// out\n        /* \"#utility.yul\":568:690   */\n    tag_24:\n        /* \"#utility.yul\":641:665   */\n      tag_40\n        /* \"#utility.yul\":659:664   */\n      dup2\n        /* \"#utility.yul\":641:665   */\n      tag_23\n      jump\t// in\n    tag_40:\n        /* \"#utility.yul\":634:639   */\n      dup2\n        /* \"#utility.yul\":631:666   */\n      eq\n        /* \"#utility.yul\":621:684   */\n      tag_41\n      jumpi\n        /* \"#utility.yul\":680:681   */\n      0x00\n        /* \"#utility.yul\":677:678   */\n      dup1\n        /* \"#utility.yul\":670:682   */\n      revert\n        /* \"#utility.yul\":621:684   */\n    tag_41:\n        /* \"#utility.yul\":568:690   */\n      pop\n      jump\t// out\n        /* \"#utility.yul\":696:835   */\n    tag_25:\n        /* \"#utility.yul\":742:747   */\n      0x00\n        /* \"#utility.yul\":780:786   */\n      dup2\n        /* \"#utility.yul\":767:787   */\n      calldataload\n        /* \"#utility.yul\":758:787   */\n      swap1\n      pop\n        /* \"#utility.yul\":796:829   */\n      tag_43\n        /* \"#utility.yul\":823:828   */\n      dup2\n        /* \"#utility.yul\":796:829   */\n      tag_24\n      jump\t// in\n    tag_43:\n        /* \"#utility.yul\":696:835   */\n      swap3\n      swap2\n      pop\n      pop\n      jump\t// out\n        /* \"#utility.yul\":841:1170   */\n    tag_7:\n        /* \"#utility.yul\":900:906   */\n      0x00\n        /* \"#utility.yul\":949:951   */\n      0x20\n        /* \"#utility.yul\":937:946   */\n      dup3\n        /* \"#utility.yul\":928:935   */\n      dup5\n        /* \"#utility.yul\":924:947   */\n      sub\n        /* \"#utility.yul\":920:952   */\n      slt\n        /* \"#utility.yul\":917:1036   */\n      iszero\n      tag_45\n      jumpi\n        /* \"#utility.yul\":955:1034   */\n      tag_46\n      tag_20\n      jump\t// in\n    tag_46:\n        /* \"#utility.yul\":917:1036   */\n    tag_45:\n        /* \"#utility.yul\":1075:1076   */\n      0x00\n        /* \"#utility.yul\":1100:1153   */\n      tag_47\n        /* \"#utility.yul\":1145:1152   */\n      dup5\n        /* \"#utility.yul\":1136:1142   */\n      dup3\n        /* \"#utility.yul\":1125:1134   */\n      dup6\n        /* \"#utility.yul\":1121:1143   */\n      add\n        /* \"#utility.yul\":1100:1153   */\n      tag_25\n      jump\t// in\n    tag_47:\n        /* \"#utility.yul\":1090:1153   */\n      swap2\n      pop\n        /* \"#utility.yul\":1046:1163   */\n      pop\n        /* \"#utility.yul\":841:1170   */\n      swap3\n      swap2\n      pop\n      pop\n      jump\t// out\n        /* \"#utility.yul\":1176:1253   */\n    tag_26:\n        /* \"#utility.yul\":1213:1220   */\n      0x00\n        /* \"#utility.yul\":1242:1247   */\n      dup2\n        /* \"#utility.yul\":1231:1247   */\n      swap1\n      pop\n        /* \"#utility.yul\":1176:1253   */\n      swap2\n      swap1\n      pop\n      jump\t// out\n        /* \"#utility.yul\":1259:1377   */\n    tag_27:\n        /* \"#utility.yul\":1346:1370   */\n      tag_50\n        /* \"#utility.yul\":1364:1369   */\n      dup2\n        /* \"#utility.yul\":1346:1370   */\n      tag_26\n      jump\t// in\n    tag_50:\n        /* \"#utility.yul\":1341:1344   */\n      dup3\n        /* \"#utility.yul\":1334:1371   */\n      mstore\n        /* \"#utility.yul\":1259:1377   */\n      pop\n      pop\n      jump\t// out\n        /* \"#utility.yul\":1383:1605   */\n    tag_10:\n        /* \"#utility.yul\":1476:1480   */\n      0x00\n        /* \"#utility.yul\":1514:1516   */\n      0x20\n        /* \"#utility.yul\":1503:1512   */\n      dup3\n        /* \"#utility.yul\":1499:1517   */\n      add\n        /* \"#utility.yul\":1491:1517   */\n      swap1\n      pop\n        /* \"#utility.yul\":1527:1598   */\n      tag_52\n        /* \"#utility.yul\":1595:1596   */\n      0x00\n        /* \"#utility.yul\":1584:1593   */\n      dup4\n        /* \"#utility.yul\":1580:1597   */\n      add\n        /* \"#utility.yul\":1571:1577   */\n      dup5\n        /* \"#utility.yul\":1527:1598   */\n      tag_27\n      jump\t// in\n    tag_52:\n        /* \"#utility.yul\":1383:1605   */\n      swap3\n      swap2\n      pop\n      pop\n      jump\t// out\n        /* \"#utility.yul\":1611:1791   */\n    tag_28:\n        /* \"#utility.yul\":1659:1736   */\n      0x4e487b7100000000000000000000000000000000000000000000000000000000\n        /* \"#utility.yul\":1656:1657   */\n      0x00\n        /* \"#utility.yul\":1649:1737   */\n      mstore\n        /* \"#utility.yul\":1756:1760   */\n      0x11\n        /* \"#utility.yul\":1753:1754   */\n      0x04\n        /* \"#utility.yul\":1746:1761   */\n      mstore\n        /* \"#utility.yul\":1780:1784   */\n      0x24\n        /* \"#utility.yul\":1777:1778   */\n      0x00\n        /* \"#utility.yul\":1770:1785   */\n      revert\n        /* \"#utility.yul\":1797:1991   */\n    tag_15:\n        /* \"#utility.yul\":1837:1841   */\n      0x00\n        /* \"#utility.yul\":1857:1877   */\n      tag_55\n        /* \"#utility.yul\":1875:1876   */\n      dup3\n        /* \"#utility.yul\":1857:1877   */\n      tag_26\n      jump\t// in\n    tag_55:\n        /* \"#utility.yul\":1852:1877   */\n      swap2\n      pop\n        /* \"#utility.yul\":1891:1911   */\n      tag_56\n        /* \"#utility.yul\":1909:1910   */\n      dup4\n        /* \"#utility.yul\":1891:1911   */\n      tag_26\n      jump\t// in\n    tag_56:\n        /* \"#utility.yul\":1886:1911   */\n      swap3\n      pop\n        /* \"#utility.yul\":1935:1936   */\n      dup3\n        /* \"#utility.yul\":1932:1933   */\n      dup3\n        /* \"#utility.yul\":1928:1937   */\n      sub\n        /* \"#utility.yul\":1920:1937   */\n      swap1\n      pop\n        /* \"#utility.yul\":1959:1960   */\n      dup2\n        /* \"#utility.yul\":1953:1957   */\n      dup2\n        /* \"#utility.yul\":1950:1961   */\n      gt\n        /* \"#utility.yul\":1947:1984   */\n      iszero\n      tag_57\n      jumpi\n        /* \"#utility.yul\":1964:1982   */\n      tag_58\n      tag_28\n      jump\t// in\n    tag_58:\n        /* \"#utility.yul\":1947:1984   */\n    tag_57:\n        /* \"#utility.yul\":1797:1991   */\n      swap3\n      swap2\n      pop\n      pop\n      jump\t// out\n        /* \"#utility.yul\":1997:2166   */\n    tag_29:\n        /* \"#utility.yul\":2081:2092   */\n      0x00\n        /* \"#utility.yul\":2115:2121   */\n      dup3\n        /* \"#utility.yul\":2110:2113   */\n      dup3\n        /* \"#utility.yul\":2103:2122   */\n      mstore\n        /* \"#utility.yul\":2155:2159   */\n      0x20\n        /* \"#utility.yul\":2150:2153   */\n      dup3\n        /* \"#utility.yul\":2146:2160   */\n      add\n        /* \"#utility.yul\":2131:2160   */\n      swap1\n      pop\n        /* \"#utility.yul\":1997:2166   */\n      swap3\n      swap2\n      pop\n      pop\n      jump\t// out\n        /* \"#utility.yul\":2172:2331   */\n    tag_30:\n        /* \"#utility.yul\":2312:2323   */\n      0x57616974206d6f72650000000000000000000000000000000000000000000000\n        /* \"#utility.yul\":2308:2309   */\n      0x00\n        /* \"#utility.yul\":2300:2306   */\n      dup3\n        /* \"#utility.yul\":2296:2310   */\n      add\n        /* \"#utility.yul\":2289:2324   */\n      mstore\n        /* \"#utility.yul\":2172:2331   */\n      pop\n      jump\t// out\n        /* \"#utility.yul\":2337:2702   */\n    tag_31:\n        /* \"#utility.yul\":2479:2482   */\n      0x00\n        /* \"#utility.yul\":2500:2566   */\n      tag_62\n        /* \"#utility.yul\":2564:2565   */\n      0x09\n        /* \"#utility.yul\":2559:2562   */\n      dup4\n        /* \"#utility.yul\":2500:2566   */\n      tag_29\n      jump\t// in\n    tag_62:\n        /* \"#utility.yul\":2493:2566   */\n      swap2\n      pop\n        /* \"#utility.yul\":2575:2668   */\n      tag_63\n        /* \"#utility.yul\":2664:2667   */\n      dup3\n        /* \"#utility.yul\":2575:2668   */\n      tag_30\n      jump\t// in\n    tag_63:\n        /* \"#utility.yul\":2693:2695   */\n      0x20\n        /* \"#utility.yul\":2688:2691   */\n      dup3\n        /* \"#utility.yul\":2684:2696   */\n      add\n        /* \"#utility.yul\":2677:2696   */\n      swap1\n      pop\n        /* \"#utility.yul\":2337:2702   */\n      swap2\n      swap1\n      pop\n      jump\t// out\n        /* \"#utility.yul\":2708:3127   */\n    tag_18:\n        /* \"#utility.yul\":2874:2878   */\n      0x00\n        /* \"#utility.yul\":2912:2914   */\n      0x20\n        /* \"#utility.yul\":2901:2910   */\n      dup3\n        /* \"#utility.yul\":2897:2915   */\n      add\n        /* \"#utility.yul\":2889:2915   */\n      swap1\n      pop\n        /* \"#utility.yul\":2961:2970   */\n      dup2\n        /* \"#utility.yul\":2955:2959   */\n      dup2\n        /* \"#utility.yul\":2951:2971   */\n      sub\n        /* \"#utility.yul\":2947:2948   */\n      0x00\n        /* \"#utility.yul\":2936:2945   */\n      dup4\n        /* \"#utility.yul\":2932:2949   */\n      add\n        /* \"#utility.yul\":2925:2972   */\n      mstore\n        /* \"#utility.yul\":2989:3120   */\n      tag_65\n        /* \"#utility.yul\":3115:3119   */\n      dup2\n        /* \"#utility.yul\":2989:3120   */\n      tag_31\n      jump\t// in\n    tag_65:\n        /* \"#utility.yul\":2981:3120   */\n      swap1\n      pop\n        /* \"#utility.yul\":2708:3127   */\n      swap2\n      swap1\n      pop\n      jump\t// out\n\n    auxdata: 0xa26469706673582212203549c762b8c7e78668105269ee414d221ad7fc6c609729c30c1615b740817e1c64736f6c634300081a0033\n}\n",
				"bytecode": {
					"linkReferences": {},
					"object": "6080604052348015600e575f80fd5b5061031b8061001c5f395ff3fe608060405234801561000f575f80fd5b5060043610610034575f3560e01c806301f9e7ed14610038578063e325704b14610068575b5f80fd5b610052600480360381019061004d91906101b1565b610072565b60405161005f91906101f4565b60405180910390f35b610070610086565b005b5f602052805f5260405f205f915090505481565b603c5f803373ffffffffffffffffffffffffffffffffffffffff1673ffffffffffffffffffffffffffffffffffffffff1681526020019081526020015f2054426100d0919061023a565b11610110576040517f08c379a0000000000000000000000000000000000000000000000000000000008152600401610107906102c7565b60405180910390fd5b425f803373ffffffffffffffffffffffffffffffffffffffff1673ffffffffffffffffffffffffffffffffffffffff1681526020019081526020015f2081905550565b5f80fd5b5f73ffffffffffffffffffffffffffffffffffffffff82169050919050565b5f61018082610157565b9050919050565b61019081610176565b811461019a575f80fd5b50565b5f813590506101ab81610187565b92915050565b5f602082840312156101c6576101c5610153565b5b5f6101d38482850161019d565b91505092915050565b5f819050919050565b6101ee816101dc565b82525050565b5f6020820190506102075f8301846101e5565b92915050565b7f4e487b71000000000000000000000000000000000000000000000000000000005f52601160045260245ffd5b5f610244826101dc565b915061024f836101dc565b92508282039050818111156102675761026661020d565b5b92915050565b5f82825260208201905092915050565b7f57616974206d6f726500000000000000000000000000000000000000000000005f82015250565b5f6102b160098361026d565b91506102bc8261027d565b602082019050919050565b5f6020820190508181035f8301526102de816102a5565b905091905056fea26469706673582212203549c762b8c7e78668105269ee414d221ad7fc6c609729c30c1615b740817e1c64736f6c634300081a0033",
					"opcodes": "PUSH1 0x80 PUSH1 0x40 MSTORE CALLVALUE DUP1 ISZERO PUSH1 0xE JUMPI PUSH0 DUP1 REVERT JUMPDEST POP PUSH2 0x31B DUP1 PUSH2 0x1C PUSH0 CODECOPY PUSH0 RETURN INVALID PUSH1 0x80 PUSH1 0x40 MSTORE CALLVALUE DUP1 ISZERO PUSH2 0xF JUMPI PUSH0 DUP1 REVERT JUMPDEST POP PUSH1 0x4 CALLDATASIZE LT PUSH2 0x34 JUMPI PUSH0 CALLDATALOAD PUSH1 0xE0 SHR DUP1 PUSH4 0x1F9E7ED EQ PUSH2 0x38 JUMPI DUP1 PUSH4 0xE325704B EQ PUSH2 0x68 JUMPI JUMPDEST PUSH0 DUP1 REVERT JUMPDEST PUSH2 0x52 PUSH1 0x4 DUP1 CALLDATASIZE SUB DUP2 ADD SWAP1 PUSH2 0x4D SWAP2 SWAP1 PUSH2 0x1B1 JUMP JUMPDEST PUSH2 0x72 JUMP JUMPDEST PUSH1 0x40 MLOAD PUSH2 0x5F SWAP2 SWAP1 PUSH2 0x1F4 JUMP JUMPDEST PUSH1 0x40 MLOAD DUP1 SWAP2 SUB SWAP1 RETURN JUMPDEST PUSH2 0x70 PUSH2 0x86 JUMP JUMPDEST STOP JUMPDEST PUSH0 PUSH1 0x20 MSTORE DUP1 PUSH0 MSTORE PUSH1 0x40 PUSH0 KECCAK256 PUSH0 SWAP2 POP SWAP1 POP SLOAD DUP2 JUMP JUMPDEST PUSH1 0x3C PUSH0 DUP1 CALLER PUSH20 0xFFFFFFFFFFFFFFFFFFFFFFFFFFFFFFFFFFFFFFFF AND PUSH20 0xFFFFFFFFFFFFFFFFFFFFFFFFFFFFFFFFFFFFFFFF AND DUP2 MSTORE PUSH1 0x20 ADD SWAP1 DUP2 MSTORE PUSH1 0x20 ADD PUSH0 KECCAK256 SLOAD TIMESTAMP PUSH2 0xD0 SWAP2 SWAP1 PUSH2 0x23A JUMP JUMPDEST GT PUSH2 0x110 JUMPI PUSH1 0x40 MLOAD PUSH32 0x8C379A000000000000000000000000000000000000000000000000000000000 DUP2 MSTORE PUSH1 0x4 ADD PUSH2 0x107 SWAP1 PUSH2 0x2C7 JUMP JUMPDEST PUSH1 0x40 MLOAD DUP1 SWAP2 SUB SWAP1 REVERT JUMPDEST TIMESTAMP PUSH0 DUP1 CALLER PUSH20 0xFFFFFFFFFFFFFFFFFFFFFFFFFFFFFFFFFFFFFFFF AND PUSH20 0xFFFFFFFFFFFFFFFFFFFFFFFFFFFFFFFFFFFFFFFF AND DUP2 MSTORE PUSH1 0x20 ADD SWAP1 DUP2 MSTORE PUSH1 0x20 ADD PUSH0 KECCAK256 DUP2 SWAP1 SSTORE POP JUMP JUMPDEST PUSH0 DUP1 REVERT JUMPDEST PUSH0 PUSH20 0xFFFFFFFFFFFFFFFFFFFFFFFFFFFFFFFFFFFFFFFF DUP3 AND SWAP1 POP SWAP2 SWAP1 POP JUMP JUMPDEST PUSH0 PUSH2 0x180 DUP3 PUSH2 0x157 JUMP JUMPDEST SWAP1 POP SWAP2 SWAP1 POP JUMP JUMPDEST PUSH2 0x190 DUP2 PUSH2 0x176 JUMP JUMPDEST DUP2 EQ PUSH2 0x19A JUMPI PUSH0 DUP1 REVERT JUMPDEST POP JUMP JUMPDEST PUSH0 DUP2 CALLDATALOAD SWAP1 POP PUSH2 0x1AB DUP2 PUSH2 0x187 JUMP JUMPDEST SWAP3 SWAP2 POP POP JUMP JUMPDEST PUSH0 PUSH1 0x20 DUP3 DUP5 SUB SLT ISZERO PUSH2 0x1C6 JUMPI PUSH2 0x1C5 PUSH2 0x153 JUMP JUMPDEST JUMPDEST PUSH0 PUSH2 0x1D3 DUP5 DUP3 DUP6 ADD PUSH2 0x19D JUMP JUMPDEST SWAP2 POP POP SWAP3 SWAP2 POP POP JUMP JUMPDEST PUSH0 DUP2 SWAP1 POP SWAP2 SWAP1 POP JUMP JUMPDEST PUSH2 0x1EE DUP2 PUSH2 0x1DC JUMP JUMPDEST DUP3 MSTORE POP POP JUMP JUMPDEST PUSH0 PUSH1 0x20 DUP3 ADD SWAP1 POP PUSH2 0x207 PUSH0 DUP4 ADD DUP5 PUSH2 0x1E5 JUMP JUMPDEST SWAP3 SWAP2 POP POP JUMP JUMPDEST PUSH32 0x4E487B7100000000000000000000000000000000000000000000000000000000 PUSH0 MSTORE PUSH1 0x11 PUSH1 0x4 MSTORE PUSH1 0x24 PUSH0 REVERT JUMPDEST PUSH0 PUSH2 0x244 DUP3 PUSH2 0x1DC JUMP JUMPDEST SWAP2 POP PUSH2 0x24F DUP4 PUSH2 0x1DC JUMP JUMPDEST SWAP3 POP DUP3 DUP3 SUB SWAP1 POP DUP2 DUP2 GT ISZERO PUSH2 0x267 JUMPI PUSH2 0x266 PUSH2 0x20D JUMP JUMPDEST JUMPDEST SWAP3 SWAP2 POP POP JUMP JUMPDEST PUSH0 DUP3 DUP3 MSTORE PUSH1 0x20 DUP3 ADD SWAP1 POP SWAP3 SWAP2 POP POP JUMP JUMPDEST PUSH32 0x57616974206D6F72650000000000000000000000000000000000000000000000 PUSH0 DUP3 ADD MSTORE POP JUMP JUMPDEST PUSH0 PUSH2 0x2B1 PUSH1 0x9 DUP4 PUSH2 0x26D JUMP JUMPDEST SWAP2 POP PUSH2 0x2BC DUP3 PUSH2 0x27D JUMP JUMPDEST PUSH1 0x20 DUP3 ADD SWAP1 POP SWAP2 SWAP1 POP JUMP JUMPDEST PUSH0 PUSH1 0x20 DUP3 ADD SWAP1 POP DUP2 DUP2 SUB PUSH0 DUP4 ADD MSTORE PUSH2 0x2DE DUP2 PUSH2 0x2A5 JUMP JUMPDEST SWAP1 POP SWAP2 SWAP1 POP JUMP INVALID LOG2 PUSH5 0x6970667358 0x22 SLT KECCAK256 CALLDATALOAD BLOBHASH 0xC7 PUSH3 0xB8C7E7 DUP7 PUSH9 0x105269EE414D221AD7 0xFC PUSH13 0x609729C30C1615B740817E1C64 PUSH20 0x6F6C634300081A00330000000000000000000000 "
				},
				"gasEstimates": {
					"creation": {
						"codeDepositCost": "159000",
						"executionCost": "200",
						"totalCost": "159200"
					},
					"external": {
						"executeOncePerMinute()": "infinite",
						"lastCalled(address)": "2779"
					}
				},
				"methodIdentifiers": {
					"executeOncePerMinute()": "e325704b",
					"lastCalled(address)": "01f9e7ed"
				}
			},
			"storageLayout": {
				"storage": [
					{
						"astId": 4,
						"contract": "W/Zero Day/ZeroDayTimestampRace.sol:ZeroDayTimestampRace",
						"label": "lastCalled",
						"offset": 0,
						"slot": "0",
						"type": "t_mapping(t_address,t_uint256)"
					}
				],
				"types": {
					"t_address": {
						"encoding": "inplace",
						"label": "address",
						"numberOfBytes": "20"
					},
					"t_mapping(t_address,t_uint256)": {
						"encoding": "mapping",
						"key": "t_address",
						"label": "mapping(address => uint256)",
						"numberOfBytes": "32",
						"value": "t_uint256"
					},
					"t_uint256": {
						"encoding": "inplace",
						"label": "uint256",
						"numberOfBytes": "32"
					}
				}
			},
			"userdoc": {
				"kind": "user",
				"methods": {},
				"version": 1
			}
		}
	}
}