{
	"data": {
		"bytecode": {
			"linkReferences": {},
			"object": "6080604052348015600e575f80fd5b506101e28061001c5f395ff3fe608060405234801561000f575f80fd5b5060043610610028575f3560e01c8062f7fb0d1461002c575b5f80fd5b610046600480360381019061004191906100dd565b610048565b005b5f8160ff1663ffffff0061005c9190610144565b63ffffffff1690508160ff167f35e9ca5a89f53e6eb6ca688b838921c58dccb9baeeedc2eeddfa1f8d573308d6826040516100979190610193565b60405180910390a25050565b5f80fd5b5f60ff82169050919050565b6100bc816100a7565b81146100c6575f80fd5b50565b5f813590506100d7816100b3565b92915050565b5f602082840312156100f2576100f16100a3565b5b5f6100ff848285016100c9565b91505092915050565b5f63ffffffff82169050919050565b7f4e487b71000000000000000000000000000000000000000000000000000000005f52601160045260245ffd5b5f61014e82610108565b915061015983610108565b9250828201905063ffffffff81111561017557610174610117565b5b92915050565b5f819050919050565b61018d8161017b565b82525050565b5f6020820190506101a65f830184610184565b9291505056fea2646970667358221220b6061ab596bc9acd0ef9b4f2d9355b43b5f340f0b5512325b70eb29b4f0e754764736f6c634300081a0033",
			"opcodes": "PUSH1 0x80 PUSH1 0x40 MSTORE CALLVALUE DUP1 ISZERO PUSH1 0xE JUMPI PUSH0 DUP1 REVERT JUMPDEST POP PUSH2 0x1E2 DUP1 PUSH2 0x1C PUSH0 CODECOPY PUSH0 RETURN INVALID PUSH1 0x80 PUSH1 0x40 MSTORE CALLVALUE DUP1 ISZERO PUSH2 0xF JUMPI PUSH0 DUP1 REVERT JUMPDEST POP PUSH1 0x4 CALLDATASIZE LT PUSH2 0x28 JUMPI PUSH0 CALLDATALOAD PUSH1 0xE0 SHR DUP1 PUSH3 0xF7FB0D EQ PUSH2 0x2C JUMPI JUMPDEST PUSH0 DUP1 REVERT JUMPDEST PUSH2 0x46 PUSH1 0x4 DUP1 CALLDATASIZE SUB DUP2 ADD SWAP1 PUSH2 0x41 SWAP2 SWAP1 PUSH2 0xDD JUMP JUMPDEST PUSH2 0x48 JUMP JUMPDEST STOP JUMPDEST PUSH0 DUP2 PUSH1 0xFF AND PUSH4 0xFFFFFF00 PUSH2 0x5C SWAP2 SWAP1 PUSH2 0x144 JUMP JUMPDEST PUSH4 0xFFFFFFFF AND SWAP1 POP DUP2 PUSH1 0xFF AND PUSH32 0x35E9CA5A89F53E6EB6CA688B838921C58DCCB9BAEEEDC2EEDDFA1F8D573308D6 DUP3 PUSH1 0x40 MLOAD PUSH2 0x97 SWAP2 SWAP1 PUSH2 0x193 JUMP JUMPDEST PUSH1 0x40 MLOAD DUP1 SWAP2 SUB SWAP1 LOG2 POP POP JUMP JUMPDEST PUSH0 DUP1 REVERT JUMPDEST PUSH0 PUSH1 0xFF DUP3 AND SWAP1 POP SWAP2 SWAP1 POP JUMP JUMPDEST PUSH2 0xBC DUP2 PUSH2 0xA7 JUMP JUMPDEST DUP2 EQ PUSH2 0xC6 JUMPI PUSH0 DUP1 REVERT JUMPDEST POP JUMP JUMPDEST PUSH0 DUP2 CALLDATALOAD SWAP1 POP PUSH2 0xD7 DUP2 PUSH2 0xB3 JUMP JUMPDEST SWAP3 SWAP2 POP POP JUMP JUMPDEST PUSH0 PUSH1 0x20 DUP3 DUP5 SUB SLT ISZERO PUSH2 0xF2 JUMPI PUSH2 0xF1 PUSH2 0xA3 JUMP JUMPDEST JUMPDEST PUSH0 PUSH2 0xFF DUP5 DUP3 DUP6 ADD PUSH2 0xC9 JUMP JUMPDEST SWAP2 POP POP SWAP3 SWAP2 POP POP JUMP JUMPDEST PUSH0 PUSH4 0xFFFFFFFF DUP3 AND SWAP1 POP SWAP2 SWAP1 POP JUMP JUMPDEST PUSH32 0x4E487B7100000000000000000000000000000000000000000000000000000000 PUSH0 MSTORE PUSH1 0x11 PUSH1 0x4 MSTORE PUSH1 0x24 PUSH0 REVERT JUMPDEST PUSH0 PUSH2 0x14E DUP3 PUSH2 0x108 JUMP JUMPDEST SWAP2 POP PUSH2 0x159 DUP4 PUSH2 0x108 JUMP JUMPDEST SWAP3 POP DUP3 DUP3 ADD SWAP1 POP PUSH4 0xFFFFFFFF DUP2 GT ISZERO PUSH2 0x175 JUMPI PUSH2 0x174 PUSH2 0x117 JUMP JUMPDEST JUMPDEST SWAP3 SWAP2 POP POP JUMP JUMPDEST PUSH0 DUP2 SWAP1 POP SWAP2 SWAP1 POP JUMP JUMPDEST PUSH2 0x18D DUP2 PUSH2 0x17B JUMP JUMPDEST DUP3 MSTORE POP POP JUMP JUMPDEST PUSH0 PUSH1 0x20 DUP3 ADD SWAP1 POP PUSH2 0x1A6 PUSH0 DUP4 ADD DUP5 PUSH2 0x184 JUMP JUMPDEST SWAP3 SWAP2 POP POP JUMP INVALID LOG2 PUSH5 0x6970667358 0x22 SLT KECCAK256 0xB6 MOD BYTE 0xB5 SWAP7 0xBC SWAP11 0xCD 0xE 0xF9 0xB4 CALLCODE 0xD9 CALLDATALOAD JUMPDEST NUMBER 0xB5 RETURN BLOCKHASH CREATE 0xB5 MLOAD 0x23 0x25 0xB7 0xE 0xB2 SWAP12 0x4F 0xE PUSH22 0x4764736F6C634300081A003300000000000000000000 "
		},
		"gasEstimates": {
			"creation": {
				"codeDepositCost": "96400",
				"executionCost": "145",
				"totalCost": "96545"
			},
			"external": {
				"octetInject(uint8)": "infinite"
			}
		},
		"methodIdentifiers": {
			"octetInject(uint8)": "00f7fb0d"
		}
	},
	"abi": [
		{
			"anonymous": false,
			"inputs": [
				{
					"indexed": true,
					"internalType": "uint8",
					"name": "attackerOctet",
					"type": "uint8"
				},
				{
					"indexed": false,
					"internalType": "uint256",
					"name": "manipulatedValue",
					"type": "uint256"
				}
			],
			"name": "Triggered",
			"type": "event"
		},
		{
			"inputs": [
				{
					"internalType": "uint8",
					"name": "octet",
					"type": "uint8"
				}
			],
			"name": "octetInject",
			"outputs": [],
			"stateMutability": "nonpayable",
			"type": "function"
		}
	]
}