{
	"data": {
		"bytecode": {
			"linkReferences": {},
			"object": "6080604052348015600e575f80fd5b506105358061001c5f395ff3fe608060405234801561000f575f80fd5b5060043610610060575f3560e01c8063799cd333146100645780637ece45e8146100955780639ae8886a146100b1578063a56dfe4a146100cf578063e2179b8e146100ed578063fd3ab2821461010b575b5f80fd5b61007e6004803603810190610079919061026c565b610129565b60405161008c9291906102af565b60405180910390f35b6100af60048036038101906100aa9190610300565b6101c5565b005b6100b96101e6565b6040516100c69190610364565b60405180910390f35b6100d76101eb565b6040516100e49190610364565b60405180910390f35b6100f56101f1565b6040516101029190610364565b60405180910390f35b6101136101f7565b6040516101209190610364565b60405180910390f35b5f805f60019050600154610141600254835f546101fd565b61014b91906103aa565b925060015483855f1c61015e9190610407565b61016891906103aa565b91503373ffffffffffffffffffffffffffffffffffffffff167f6bf107e289379875a1135483aa3099f337e628cc07ed850ad0f984d97c45595885858560016040516101b794939291906104bc565b60405180910390a250915091565b835f8190555082600181905550816002819055508060038190555050505050565b5f5481565b60035481565b60025481565b60015481565b5f600190505f5b8381101561022d57828061021b5761021a61037d565b5b85830991508080600101915050610204565b509392505050565b5f80fd5b5f819050919050565b61024b81610239565b8114610255575f80fd5b50565b5f8135905061026681610242565b92915050565b5f6020828403121561028157610280610235565b5b5f61028e84828501610258565b91505092915050565b5f819050919050565b6102a981610297565b82525050565b5f6040820190506102c25f8301856102a0565b6102cf60208301846102a0565b9392505050565b6102df81610297565b81146102e9575f80fd5b50565b5f813590506102fa816102d6565b92915050565b5f805f806080858703121561031857610317610235565b5b5f610325878288016102ec565b9450506020610336878288016102ec565b9350506040610347878288016102ec565b9250506060610358878288016102ec565b91505092959194509250565b5f6020820190506103775f8301846102a0565b92915050565b7f4e487b71000000000000000000000000000000000000000000000000000000005f52601260045260245ffd5b5f6103b482610297565b91506103bf83610297565b9250826103cf576103ce61037d565b5b828206905092915050565b7f4e487b71000000000000000000000000000000000000000000000000000000005f52601160045260245ffd5b5f61041182610297565b915061041c83610297565b9250828201905080821115610434576104336103da565b5b92915050565b61044381610239565b82525050565b7f4e487b71000000000000000000000000000000000000000000000000000000005f52602160045260245ffd5b6003811061048757610486610449565b5b50565b5f81905061049782610476565b919050565b5f6104a68261048a565b9050919050565b6104b68161049c565b82525050565b5f6080820190506104cf5f83018761043a565b6104dc60208301866102a0565b6104e960408301856102a0565b6104f660608301846104ad565b9594505050505056fea2646970667358221220598ee5d744b4ce07d4608faf81206d54a960d5e661083cb98b464d05f5991d4b64736f6c634300081a0033",
			"opcodes": "PUSH1 0x80 PUSH1 0x40 MSTORE CALLVALUE DUP1 ISZERO PUSH1 0xE JUMPI PUSH0 DUP1 REVERT JUMPDEST POP PUSH2 0x535 DUP1 PUSH2 0x1C PUSH0 CODECOPY PUSH0 RETURN INVALID PUSH1 0x80 PUSH1 0x40 MSTORE CALLVALUE DUP1 ISZERO PUSH2 0xF JUMPI PUSH0 DUP1 REVERT JUMPDEST POP PUSH1 0x4 CALLDATASIZE LT PUSH2 0x60 JUMPI PUSH0 CALLDATALOAD PUSH1 0xE0 SHR DUP1 PUSH4 0x799CD333 EQ PUSH2 0x64 JUMPI DUP1 PUSH4 0x7ECE45E8 EQ PUSH2 0x95 JUMPI DUP1 PUSH4 0x9AE8886A EQ PUSH2 0xB1 JUMPI DUP1 PUSH4 0xA56DFE4A EQ PUSH2 0xCF JUMPI DUP1 PUSH4 0xE2179B8E EQ PUSH2 0xED JUMPI DUP1 PUSH4 0xFD3AB282 EQ PUSH2 0x10B JUMPI JUMPDEST PUSH0 DUP1 REVERT JUMPDEST PUSH2 0x7E PUSH1 0x4 DUP1 CALLDATASIZE SUB DUP2 ADD SWAP1 PUSH2 0x79 SWAP2 SWAP1 PUSH2 0x26C JUMP JUMPDEST PUSH2 0x129 JUMP JUMPDEST PUSH1 0x40 MLOAD PUSH2 0x8C SWAP3 SWAP2 SWAP1 PUSH2 0x2AF JUMP JUMPDEST PUSH1 0x40 MLOAD DUP1 SWAP2 SUB SWAP1 RETURN JUMPDEST PUSH2 0xAF PUSH1 0x4 DUP1 CALLDATASIZE SUB DUP2 ADD SWAP1 PUSH2 0xAA SWAP2 SWAP1 PUSH2 0x300 JUMP JUMPDEST PUSH2 0x1C5 JUMP JUMPDEST STOP JUMPDEST PUSH2 0xB9 PUSH2 0x1E6 JUMP JUMPDEST PUSH1 0x40 MLOAD PUSH2 0xC6 SWAP2 SWAP1 PUSH2 0x364 JUMP JUMPDEST PUSH1 0x40 MLOAD DUP1 SWAP2 SUB SWAP1 RETURN JUMPDEST PUSH2 0xD7 PUSH2 0x1EB JUMP JUMPDEST PUSH1 0x40 MLOAD PUSH2 0xE4 SWAP2 SWAP1 PUSH2 0x364 JUMP JUMPDEST PUSH1 0x40 MLOAD DUP1 SWAP2 SUB SWAP1 RETURN JUMPDEST PUSH2 0xF5 PUSH2 0x1F1 JUMP JUMPDEST PUSH1 0x40 MLOAD PUSH2 0x102 SWAP2 SWAP1 PUSH2 0x364 JUMP JUMPDEST PUSH1 0x40 MLOAD DUP1 SWAP2 SUB SWAP1 RETURN JUMPDEST PUSH2 0x113 PUSH2 0x1F7 JUMP JUMPDEST PUSH1 0x40 MLOAD PUSH2 0x120 SWAP2 SWAP1 PUSH2 0x364 JUMP JUMPDEST PUSH1 0x40 MLOAD DUP1 SWAP2 SUB SWAP1 RETURN JUMPDEST PUSH0 DUP1 PUSH0 PUSH1 0x1 SWAP1 POP PUSH1 0x1 SLOAD PUSH2 0x141 PUSH1 0x2 SLOAD DUP4 PUSH0 SLOAD PUSH2 0x1FD JUMP JUMPDEST PUSH2 0x14B SWAP2 SWAP1 PUSH2 0x3AA JUMP JUMPDEST SWAP3 POP PUSH1 0x1 SLOAD DUP4 DUP6 PUSH0 SHR PUSH2 0x15E SWAP2 SWAP1 PUSH2 0x407 JUMP JUMPDEST PUSH2 0x168 SWAP2 SWAP1 PUSH2 0x3AA JUMP JUMPDEST SWAP2 POP CALLER PUSH20 0xFFFFFFFFFFFFFFFFFFFFFFFFFFFFFFFFFFFFFFFF AND PUSH32 0x6BF107E289379875A1135483AA3099F337E628CC07ED850AD0F984D97C455958 DUP6 DUP6 DUP6 PUSH1 0x1 PUSH1 0x40 MLOAD PUSH2 0x1B7 SWAP5 SWAP4 SWAP3 SWAP2 SWAP1 PUSH2 0x4BC JUMP JUMPDEST PUSH1 0x40 MLOAD DUP1 SWAP2 SUB SWAP1 LOG2 POP SWAP2 POP SWAP2 JUMP JUMPDEST DUP4 PUSH0 DUP2 SWAP1 SSTORE POP DUP3 PUSH1 0x1 DUP2 SWAP1 SSTORE POP DUP2 PUSH1 0x2 DUP2 SWAP1 SSTORE POP DUP1 PUSH1 0x3 DUP2 SWAP1 SSTORE POP POP POP POP POP JUMP JUMPDEST PUSH0 SLOAD DUP2 JUMP JUMPDEST PUSH1 0x3 SLOAD DUP2 JUMP JUMPDEST PUSH1 0x2 SLOAD DUP2 JUMP JUMPDEST PUSH1 0x1 SLOAD DUP2 JUMP JUMPDEST PUSH0 PUSH1 0x1 SWAP1 POP PUSH0 JUMPDEST DUP4 DUP2 LT ISZERO PUSH2 0x22D JUMPI DUP3 DUP1 PUSH2 0x21B JUMPI PUSH2 0x21A PUSH2 0x37D JUMP JUMPDEST JUMPDEST DUP6 DUP4 MULMOD SWAP2 POP DUP1 DUP1 PUSH1 0x1 ADD SWAP2 POP POP PUSH2 0x204 JUMP JUMPDEST POP SWAP4 SWAP3 POP POP POP JUMP JUMPDEST PUSH0 DUP1 REVERT JUMPDEST PUSH0 DUP2 SWAP1 POP SWAP2 SWAP1 POP JUMP JUMPDEST PUSH2 0x24B DUP2 PUSH2 0x239 JUMP JUMPDEST DUP2 EQ PUSH2 0x255 JUMPI PUSH0 DUP1 REVERT JUMPDEST POP JUMP JUMPDEST PUSH0 DUP2 CALLDATALOAD SWAP1 POP PUSH2 0x266 DUP2 PUSH2 0x242 JUMP JUMPDEST SWAP3 SWAP2 POP POP JUMP JUMPDEST PUSH0 PUSH1 0x20 DUP3 DUP5 SUB SLT ISZERO PUSH2 0x281 JUMPI PUSH2 0x280 PUSH2 0x235 JUMP JUMPDEST JUMPDEST PUSH0 PUSH2 0x28E DUP5 DUP3 DUP6 ADD PUSH2 0x258 JUMP JUMPDEST SWAP2 POP POP SWAP3 SWAP2 POP POP JUMP JUMPDEST PUSH0 DUP2 SWAP1 POP SWAP2 SWAP1 POP JUMP JUMPDEST PUSH2 0x2A9 DUP2 PUSH2 0x297 JUMP JUMPDEST DUP3 MSTORE POP POP JUMP JUMPDEST PUSH0 PUSH1 0x40 DUP3 ADD SWAP1 POP PUSH2 0x2C2 PUSH0 DUP4 ADD DUP6 PUSH2 0x2A0 JUMP JUMPDEST PUSH2 0x2CF PUSH1 0x20 DUP4 ADD DUP5 PUSH2 0x2A0 JUMP JUMPDEST SWAP4 SWAP3 POP POP POP JUMP JUMPDEST PUSH2 0x2DF DUP2 PUSH2 0x297 JUMP JUMPDEST DUP2 EQ PUSH2 0x2E9 JUMPI PUSH0 DUP1 REVERT JUMPDEST POP JUMP JUMPDEST PUSH0 DUP2 CALLDATALOAD SWAP1 POP PUSH2 0x2FA DUP2 PUSH2 0x2D6 JUMP JUMPDEST SWAP3 SWAP2 POP POP JUMP JUMPDEST PUSH0 DUP1 PUSH0 DUP1 PUSH1 0x80 DUP6 DUP8 SUB SLT ISZERO PUSH2 0x318 JUMPI PUSH2 0x317 PUSH2 0x235 JUMP JUMPDEST JUMPDEST PUSH0 PUSH2 0x325 DUP8 DUP3 DUP9 ADD PUSH2 0x2EC JUMP JUMPDEST SWAP5 POP POP PUSH1 0x20 PUSH2 0x336 DUP8 DUP3 DUP9 ADD PUSH2 0x2EC JUMP JUMPDEST SWAP4 POP POP PUSH1 0x40 PUSH2 0x347 DUP8 DUP3 DUP9 ADD PUSH2 0x2EC JUMP JUMPDEST SWAP3 POP POP PUSH1 0x60 PUSH2 0x358 DUP8 DUP3 DUP9 ADD PUSH2 0x2EC JUMP JUMPDEST SWAP2 POP POP SWAP3 SWAP6 SWAP2 SWAP5 POP SWAP3 POP JUMP JUMPDEST PUSH0 PUSH1 0x20 DUP3 ADD SWAP1 POP PUSH2 0x377 PUSH0 DUP4 ADD DUP5 PUSH2 0x2A0 JUMP JUMPDEST SWAP3 SWAP2 POP POP JUMP JUMPDEST PUSH32 0x4E487B7100000000000000000000000000000000000000000000000000000000 PUSH0 MSTORE PUSH1 0x12 PUSH1 0x4 MSTORE PUSH1 0x24 PUSH0 REVERT JUMPDEST PUSH0 PUSH2 0x3B4 DUP3 PUSH2 0x297 JUMP JUMPDEST SWAP2 POP PUSH2 0x3BF DUP4 PUSH2 0x297 JUMP JUMPDEST SWAP3 POP DUP3 PUSH2 0x3CF JUMPI PUSH2 0x3CE PUSH2 0x37D JUMP JUMPDEST JUMPDEST DUP3 DUP3 MOD SWAP1 POP SWAP3 SWAP2 POP POP JUMP JUMPDEST PUSH32 0x4E487B7100000000000000000000000000000000000000000000000000000000 PUSH0 MSTORE PUSH1 0x11 PUSH1 0x4 MSTORE PUSH1 0x24 PUSH0 REVERT JUMPDEST PUSH0 PUSH2 0x411 DUP3 PUSH2 0x297 JUMP JUMPDEST SWAP2 POP PUSH2 0x41C DUP4 PUSH2 0x297 JUMP JUMPDEST SWAP3 POP DUP3 DUP3 ADD SWAP1 POP DUP1 DUP3 GT ISZERO PUSH2 0x434 JUMPI PUSH2 0x433 PUSH2 0x3DA JUMP JUMPDEST JUMPDEST SWAP3 SWAP2 POP POP JUMP JUMPDEST PUSH2 0x443 DUP2 PUSH2 0x239 JUMP JUMPDEST DUP3 MSTORE POP POP JUMP JUMPDEST PUSH32 0x4E487B7100000000000000000000000000000000000000000000000000000000 PUSH0 MSTORE PUSH1 0x21 PUSH1 0x4 MSTORE PUSH1 0x24 PUSH0 REVERT JUMPDEST PUSH1 0x3 DUP2 LT PUSH2 0x487 JUMPI PUSH2 0x486 PUSH2 0x449 JUMP JUMPDEST JUMPDEST POP JUMP JUMPDEST PUSH0 DUP2 SWAP1 POP PUSH2 0x497 DUP3 PUSH2 0x476 JUMP JUMPDEST SWAP2 SWAP1 POP JUMP JUMPDEST PUSH0 PUSH2 0x4A6 DUP3 PUSH2 0x48A JUMP JUMPDEST SWAP1 POP SWAP2 SWAP1 POP JUMP JUMPDEST PUSH2 0x4B6 DUP2 PUSH2 0x49C JUMP JUMPDEST DUP3 MSTORE POP POP JUMP JUMPDEST PUSH0 PUSH1 0x80 DUP3 ADD SWAP1 POP PUSH2 0x4CF PUSH0 DUP4 ADD DUP8 PUSH2 0x43A JUMP JUMPDEST PUSH2 0x4DC PUSH1 0x20 DUP4 ADD DUP7 PUSH2 0x2A0 JUMP JUMPDEST PUSH2 0x4E9 PUSH1 0x40 DUP4 ADD DUP6 PUSH2 0x2A0 JUMP JUMPDEST PUSH2 0x4F6 PUSH1 0x60 DUP4 ADD DUP5 PUSH2 0x4AD JUMP JUMPDEST SWAP6 SWAP5 POP POP POP POP POP JUMP INVALID LOG2 PUSH5 0x6970667358 0x22 SLT KECCAK256 MSIZE DUP15 0xE5 0xD7 PREVRANDAO 0xB4 0xCE SMOD 0xD4 PUSH1 0x8F 0xAF DUP2 KECCAK256 PUSH14 0x54A960D5E661083CB98B464D05F5 SWAP10 SAR 0x4B PUSH5 0x736F6C6343 STOP ADDMOD BYTE STOP CALLER "
		},
		"gasEstimates": {
			"creation": {
				"codeDepositCost": "266600",
				"executionCost": "304",
				"totalCost": "266904"
			},
			"external": {
				"g()": "2491",
				"p()": "2446",
				"q()": "2513",
				"setParams(uint256,uint256,uint256,uint256)": "infinite",
				"sign(bytes32)": "infinite",
				"y()": "2469"
			},
			"internal": {
				"modExp(uint256,uint256,uint256)": "infinite"
			}
		},
		"methodIdentifiers": {
			"g()": "e2179b8e",
			"p()": "9ae8886a",
			"q()": "fd3ab282",
			"setParams(uint256,uint256,uint256,uint256)": "7ece45e8",
			"sign(bytes32)": "799cd333",
			"y()": "a56dfe4a"
		}
	},
	"abi": [
		{
			"anonymous": false,
			"inputs": [
				{
					"indexed": true,
					"internalType": "address",
					"name": "who",
					"type": "address"
				},
				{
					"indexed": false,
					"internalType": "bytes32",
					"name": "message",
					"type": "bytes32"
				},
				{
					"indexed": false,
					"internalType": "uint256",
					"name": "r",
					"type": "uint256"
				},
				{
					"indexed": false,
					"internalType": "uint256",
					"name": "s",
					"type": "uint256"
				},
				{
					"indexed": false,
					"internalType": "enum DigitalSignatureStandardAttackType",
					"name": "attack",
					"type": "uint8"
				}
			],
			"name": "Signed",
			"type": "event"
		},
		{
			"inputs": [],
			"name": "g",
			"outputs": [
				{
					"internalType": "uint256",
					"name": "",
					"type": "uint256"
				}
			],
			"stateMutability": "view",
			"type": "function"
		},
		{
			"inputs": [],
			"name": "p",
			"outputs": [
				{
					"internalType": "uint256",
					"name": "",
					"type": "uint256"
				}
			],
			"stateMutability": "view",
			"type": "function"
		},
		{
			"inputs": [],
			"name": "q",
			"outputs": [
				{
					"internalType": "uint256",
					"name": "",
					"type": "uint256"
				}
			],
			"stateMutability": "view",
			"type": "function"
		},
		{
			"inputs": [
				{
					"internalType": "uint256",
					"name": "p_",
					"type": "uint256"
				},
				{
					"internalType": "uint256",
					"name": "q_",
					"type": "uint256"
				},
				{
					"internalType": "uint256",
					"name": "g_",
					"type": "uint256"
				},
				{
					"internalType": "uint256",
					"name": "y_",
					"type": "uint256"
				}
			],
			"name": "setParams",
			"outputs": [],
			"stateMutability": "nonpayable",
			"type": "function"
		},
		{
			"inputs": [
				{
					"internalType": "bytes32",
					"name": "message",
					"type": "bytes32"
				}
			],
			"name": "sign",
			"outputs": [
				{
					"internalType": "uint256",
					"name": "r",
					"type": "uint256"
				},
				{
					"internalType": "uint256",
					"name": "s",
					"type": "uint256"
				}
			],
			"stateMutability": "nonpayable",
			"type": "function"
		},
		{
			"inputs": [],
			"name": "y",
			"outputs": [
				{
					"internalType": "uint256",
					"name": "",
					"type": "uint256"
				}
			],
			"stateMutability": "view",
			"type": "function"
		}
	]
}