{
	"data": {
		"bytecode": {
			"linkReferences": {},
			"object": "6080604052348015600e575f80fd5b50610bbb8061001c5f395ff3fe608060405234801561000f575f80fd5b506004361061004a575f3560e01c80638b7ca0d81461004e578063b55817c21461006c578063df04f0501461009c578063ff6e5334146100b8575b5f80fd5b6100566100eb565b6040516100639190610492565b60405180910390f35b610086600480360381019061008191906104dd565b6100f1565b6040516100939190610601565b60405180910390f35b6100b660048036038101906100b19190610682565b6101d8565b005b6100d260048036038101906100cd91906104dd565b610396565b6040516100e29493929190610736565b60405180910390f35b60015481565b6100f9610453565b5f808381526020019081526020015f206040518060800160405290815f820154815260200160018201548152602001600282018054610137906107ad565b80601f0160208091040260200160405190810160405280929190818152602001828054610163906107ad565b80156101ae5780601f10610185576101008083540402835291602001916101ae565b820191905f5260205f20905b81548152906001019060200180831161019157829003601f168201915b50505050508152602001600382015f9054906101000a900460ff1615151515815250509050919050565b82828290505f5b6001548110156102b1575f805f8381526020019081526020015f209050806003015f9054906101000a900460ff16156102a3575f815f0154851015801561023757508160010154825f0154610234919061080a565b85105b8061025e575084825f01541015801561025d57508385610257919061080a565b825f0154105b5b905080156102a1576040517f08c379a000000000000000000000000000000000000000000000000000000000815260040161029890610887565b60405180910390fd5b505b5080806001019150506101df565b50604051806080016040528086815260200185859050815260200185858080601f0160208091040260200160405190810160405280939291908181526020018383808284375f81840152601f19601f820116905080830192505050505050508152602001600115158152505f8060015481526020019081526020015f205f820151815f01556020820151816001015560408201518160020190816103559190610a6f565b506060820151816003015f6101000a81548160ff02191690831515021790555090505060015f81548092919061038a90610b3e565b91905055505050505050565b5f602052805f5260405f205f91509050805f0154908060010154908060020180546103c0906107ad565b80601f01602080910402602001604051908101604052809291908181526020018280546103ec906107ad565b80156104375780601f1061040e57610100808354040283529160200191610437565b820191905f5260205f20905b81548152906001019060200180831161041a57829003601f168201915b505050505090806003015f9054906101000a900460ff16905084565b60405180608001604052805f81526020015f8152602001606081526020015f151581525090565b5f819050919050565b61048c8161047a565b82525050565b5f6020820190506104a55f830184610483565b92915050565b5f80fd5b5f80fd5b6104bc8161047a565b81146104c6575f80fd5b50565b5f813590506104d7816104b3565b92915050565b5f602082840312156104f2576104f16104ab565b5b5f6104ff848285016104c9565b91505092915050565b6105118161047a565b82525050565b5f81519050919050565b5f82825260208201905092915050565b8281835e5f83830152505050565b5f601f19601f8301169050919050565b5f61055982610517565b6105638185610521565b9350610573818560208601610531565b61057c8161053f565b840191505092915050565b5f8115159050919050565b61059b81610587565b82525050565b5f608083015f8301516105b65f860182610508565b5060208301516105c96020860182610508565b50604083015184820360408601526105e1828261054f565b91505060608301516105f66060860182610592565b508091505092915050565b5f6020820190508181035f83015261061981846105a1565b905092915050565b5f80fd5b5f80fd5b5f80fd5b5f8083601f84011261064257610641610621565b5b8235905067ffffffffffffffff81111561065f5761065e610625565b5b60208301915083600182028301111561067b5761067a610629565b5b9250929050565b5f805f60408486031215610699576106986104ab565b5b5f6106a6868287016104c9565b935050602084013567ffffffffffffffff8111156106c7576106c66104af565b5b6106d38682870161062d565b92509250509250925092565b5f82825260208201905092915050565b5f6106f982610517565b61070381856106df565b9350610713818560208601610531565b61071c8161053f565b840191505092915050565b61073081610587565b82525050565b5f6080820190506107495f830187610483565b6107566020830186610483565b818103604083015261076881856106ef565b90506107776060830184610727565b95945050505050565b7f4e487b71000000000000000000000000000000000000000000000000000000005f52602260045260245ffd5b5f60028204905060018216806107c457607f821691505b6020821081036107d7576107d6610780565b5b50919050565b7f4e487b71000000000000000000000000000000000000000000000000000000005f52601160045260245ffd5b5f6108148261047a565b915061081f8361047a565b9250828201905080821115610837576108366107dd565b5b92915050565b7f4f7665726c6170206465746563746564000000000000000000000000000000005f82015250565b5f6108716010836106df565b915061087c8261083d565b602082019050919050565b5f6020820190508181035f83015261089e81610865565b9050919050565b7f4e487b71000000000000000000000000000000000000000000000000000000005f52604160045260245ffd5b5f819050815f5260205f209050919050565b5f6020601f8301049050919050565b5f82821b905092915050565b5f6008830261092e7fffffffffffffffffffffffffffffffffffffffffffffffffffffffffffffffff826108f3565b61093886836108f3565b95508019841693508086168417925050509392505050565b5f819050919050565b5f61097361096e6109698461047a565b610950565b61047a565b9050919050565b5f819050919050565b61098c83610959565b6109a06109988261097a565b8484546108ff565b825550505050565b5f90565b6109b46109a8565b6109bf818484610983565b505050565b5b818110156109e2576109d75f826109ac565b6001810190506109c5565b5050565b601f821115610a27576109f8816108d2565b610a01846108e4565b81016020851015610a10578190505b610a24610a1c856108e4565b8301826109c4565b50505b505050565b5f82821c905092915050565b5f610a475f1984600802610a2c565b1980831691505092915050565b5f610a5f8383610a38565b9150826002028217905092915050565b610a7882610517565b67ffffffffffffffff811115610a9157610a906108a5565b5b610a9b82546107ad565b610aa68282856109e6565b5f60209050601f831160018114610ad7575f8415610ac5578287015190505b610acf8582610a54565b865550610b36565b601f198416610ae5866108d2565b5f5b82811015610b0c57848901518255600182019150602085019450602081019050610ae7565b86831015610b295784890151610b25601f891682610a38565b8355505b6001600288020188555050505b505050505050565b5f610b488261047a565b91507fffffffffffffffffffffffffffffffffffffffffffffffffffffffffffffffff8203610b7a57610b796107dd565b5b60018201905091905056fea2646970667358221220662166ba1d1741cdf6fd73f0003521cbf731cb085796b30b7ee19c0beeef0e6864736f6c634300081a0033",
			"opcodes": "PUSH1 0x80 PUSH1 0x40 MSTORE CALLVALUE DUP1 ISZERO PUSH1 0xE JUMPI PUSH0 DUP1 REVERT JUMPDEST POP PUSH2 0xBBB DUP1 PUSH2 0x1C PUSH0 CODECOPY PUSH0 RETURN INVALID PUSH1 0x80 PUSH1 0x40 MSTORE CALLVALUE DUP1 ISZERO PUSH2 0xF JUMPI PUSH0 DUP1 REVERT JUMPDEST POP PUSH1 0x4 CALLDATASIZE LT PUSH2 0x4A JUMPI PUSH0 CALLDATALOAD PUSH1 0xE0 SHR DUP1 PUSH4 0x8B7CA0D8 EQ PUSH2 0x4E JUMPI DUP1 PUSH4 0xB55817C2 EQ PUSH2 0x6C JUMPI DUP1 PUSH4 0xDF04F050 EQ PUSH2 0x9C JUMPI DUP1 PUSH4 0xFF6E5334 EQ PUSH2 0xB8 JUMPI JUMPDEST PUSH0 DUP1 REVERT JUMPDEST PUSH2 0x56 PUSH2 0xEB JUMP JUMPDEST PUSH1 0x40 MLOAD PUSH2 0x63 SWAP2 SWAP1 PUSH2 0x492 JUMP JUMPDEST PUSH1 0x40 MLOAD DUP1 SWAP2 SUB SWAP1 RETURN JUMPDEST PUSH2 0x86 PUSH1 0x4 DUP1 CALLDATASIZE SUB DUP2 ADD SWAP1 PUSH2 0x81 SWAP2 SWAP1 PUSH2 0x4DD JUMP JUMPDEST PUSH2 0xF1 JUMP JUMPDEST PUSH1 0x40 MLOAD PUSH2 0x93 SWAP2 SWAP1 PUSH2 0x601 JUMP JUMPDEST PUSH1 0x40 MLOAD DUP1 SWAP2 SUB SWAP1 RETURN JUMPDEST PUSH2 0xB6 PUSH1 0x4 DUP1 CALLDATASIZE SUB DUP2 ADD SWAP1 PUSH2 0xB1 SWAP2 SWAP1 PUSH2 0x682 JUMP JUMPDEST PUSH2 0x1D8 JUMP JUMPDEST STOP JUMPDEST PUSH2 0xD2 PUSH1 0x4 DUP1 CALLDATASIZE SUB DUP2 ADD SWAP1 PUSH2 0xCD SWAP2 SWAP1 PUSH2 0x4DD JUMP JUMPDEST PUSH2 0x396 JUMP JUMPDEST PUSH1 0x40 MLOAD PUSH2 0xE2 SWAP5 SWAP4 SWAP3 SWAP2 SWAP1 PUSH2 0x736 JUMP JUMPDEST PUSH1 0x40 MLOAD DUP1 SWAP2 SUB SWAP1 RETURN JUMPDEST PUSH1 0x1 SLOAD DUP2 JUMP JUMPDEST PUSH2 0xF9 PUSH2 0x453 JUMP JUMPDEST PUSH0 DUP1 DUP4 DUP2 MSTORE PUSH1 0x20 ADD SWAP1 DUP2 MSTORE PUSH1 0x20 ADD PUSH0 KECCAK256 PUSH1 0x40 MLOAD DUP1 PUSH1 0x80 ADD PUSH1 0x40 MSTORE SWAP1 DUP2 PUSH0 DUP3 ADD SLOAD DUP2 MSTORE PUSH1 0x20 ADD PUSH1 0x1 DUP3 ADD SLOAD DUP2 MSTORE PUSH1 0x20 ADD PUSH1 0x2 DUP3 ADD DUP1 SLOAD PUSH2 0x137 SWAP1 PUSH2 0x7AD JUMP JUMPDEST DUP1 PUSH1 0x1F ADD PUSH1 0x20 DUP1 SWAP2 DIV MUL PUSH1 0x20 ADD PUSH1 0x40 MLOAD SWAP1 DUP2 ADD PUSH1 0x40 MSTORE DUP1 SWAP3 SWAP2 SWAP1 DUP2 DUP2 MSTORE PUSH1 0x20 ADD DUP3 DUP1 SLOAD PUSH2 0x163 SWAP1 PUSH2 0x7AD JUMP JUMPDEST DUP1 ISZERO PUSH2 0x1AE JUMPI DUP1 PUSH1 0x1F LT PUSH2 0x185 JUMPI PUSH2 0x100 DUP1 DUP4 SLOAD DIV MUL DUP4 MSTORE SWAP2 PUSH1 0x20 ADD SWAP2 PUSH2 0x1AE JUMP JUMPDEST DUP3 ADD SWAP2 SWAP1 PUSH0 MSTORE PUSH1 0x20 PUSH0 KECCAK256 SWAP1 JUMPDEST DUP2 SLOAD DUP2 MSTORE SWAP1 PUSH1 0x1 ADD SWAP1 PUSH1 0x20 ADD DUP1 DUP4 GT PUSH2 0x191 JUMPI DUP3 SWAP1 SUB PUSH1 0x1F AND DUP3 ADD SWAP2 JUMPDEST POP POP POP POP POP DUP2 MSTORE PUSH1 0x20 ADD PUSH1 0x3 DUP3 ADD PUSH0 SWAP1 SLOAD SWAP1 PUSH2 0x100 EXP SWAP1 DIV PUSH1 0xFF AND ISZERO ISZERO ISZERO ISZERO DUP2 MSTORE POP POP SWAP1 POP SWAP2 SWAP1 POP JUMP JUMPDEST DUP3 DUP3 DUP3 SWAP1 POP PUSH0 JUMPDEST PUSH1 0x1 SLOAD DUP2 LT ISZERO PUSH2 0x2B1 JUMPI PUSH0 DUP1 PUSH0 DUP4 DUP2 MSTORE PUSH1 0x20 ADD SWAP1 DUP2 MSTORE PUSH1 0x20 ADD PUSH0 KECCAK256 SWAP1 POP DUP1 PUSH1 0x3 ADD PUSH0 SWAP1 SLOAD SWAP1 PUSH2 0x100 EXP SWAP1 DIV PUSH1 0xFF AND ISZERO PUSH2 0x2A3 JUMPI PUSH0 DUP2 PUSH0 ADD SLOAD DUP6 LT ISZERO DUP1 ISZERO PUSH2 0x237 JUMPI POP DUP2 PUSH1 0x1 ADD SLOAD DUP3 PUSH0 ADD SLOAD PUSH2 0x234 SWAP2 SWAP1 PUSH2 0x80A JUMP JUMPDEST DUP6 LT JUMPDEST DUP1 PUSH2 0x25E JUMPI POP DUP5 DUP3 PUSH0 ADD SLOAD LT ISZERO DUP1 ISZERO PUSH2 0x25D JUMPI POP DUP4 DUP6 PUSH2 0x257 SWAP2 SWAP1 PUSH2 0x80A JUMP JUMPDEST DUP3 PUSH0 ADD SLOAD LT JUMPDEST JUMPDEST SWAP1 POP DUP1 ISZERO PUSH2 0x2A1 JUMPI PUSH1 0x40 MLOAD PUSH32 0x8C379A000000000000000000000000000000000000000000000000000000000 DUP2 MSTORE PUSH1 0x4 ADD PUSH2 0x298 SWAP1 PUSH2 0x887 JUMP JUMPDEST PUSH1 0x40 MLOAD DUP1 SWAP2 SUB SWAP1 REVERT JUMPDEST POP JUMPDEST POP DUP1 DUP1 PUSH1 0x1 ADD SWAP2 POP POP PUSH2 0x1DF JUMP JUMPDEST POP PUSH1 0x40 MLOAD DUP1 PUSH1 0x80 ADD PUSH1 0x40 MSTORE DUP1 DUP7 DUP2 MSTORE PUSH1 0x20 ADD DUP6 DUP6 SWAP1 POP DUP2 MSTORE PUSH1 0x20 ADD DUP6 DUP6 DUP1 DUP1 PUSH1 0x1F ADD PUSH1 0x20 DUP1 SWAP2 DIV MUL PUSH1 0x20 ADD PUSH1 0x40 MLOAD SWAP1 DUP2 ADD PUSH1 0x40 MSTORE DUP1 SWAP4 SWAP3 SWAP2 SWAP1 DUP2 DUP2 MSTORE PUSH1 0x20 ADD DUP4 DUP4 DUP1 DUP3 DUP5 CALLDATACOPY PUSH0 DUP2 DUP5 ADD MSTORE PUSH1 0x1F NOT PUSH1 0x1F DUP3 ADD AND SWAP1 POP DUP1 DUP4 ADD SWAP3 POP POP POP POP POP POP POP DUP2 MSTORE PUSH1 0x20 ADD PUSH1 0x1 ISZERO ISZERO DUP2 MSTORE POP PUSH0 DUP1 PUSH1 0x1 SLOAD DUP2 MSTORE PUSH1 0x20 ADD SWAP1 DUP2 MSTORE PUSH1 0x20 ADD PUSH0 KECCAK256 PUSH0 DUP3 ADD MLOAD DUP2 PUSH0 ADD SSTORE PUSH1 0x20 DUP3 ADD MLOAD DUP2 PUSH1 0x1 ADD SSTORE PUSH1 0x40 DUP3 ADD MLOAD DUP2 PUSH1 0x2 ADD SWAP1 DUP2 PUSH2 0x355 SWAP2 SWAP1 PUSH2 0xA6F JUMP JUMPDEST POP PUSH1 0x60 DUP3 ADD MLOAD DUP2 PUSH1 0x3 ADD PUSH0 PUSH2 0x100 EXP DUP2 SLOAD DUP2 PUSH1 0xFF MUL NOT AND SWAP1 DUP4 ISZERO ISZERO MUL OR SWAP1 SSTORE POP SWAP1 POP POP PUSH1 0x1 PUSH0 DUP2 SLOAD DUP1 SWAP3 SWAP2 SWAP1 PUSH2 0x38A SWAP1 PUSH2 0xB3E JUMP JUMPDEST SWAP2 SWAP1 POP SSTORE POP POP POP POP POP POP JUMP JUMPDEST PUSH0 PUSH1 0x20 MSTORE DUP1 PUSH0 MSTORE PUSH1 0x40 PUSH0 KECCAK256 PUSH0 SWAP2 POP SWAP1 POP DUP1 PUSH0 ADD SLOAD SWAP1 DUP1 PUSH1 0x1 ADD SLOAD SWAP1 DUP1 PUSH1 0x2 ADD DUP1 SLOAD PUSH2 0x3C0 SWAP1 PUSH2 0x7AD JUMP JUMPDEST DUP1 PUSH1 0x1F ADD PUSH1 0x20 DUP1 SWAP2 DIV MUL PUSH1 0x20 ADD PUSH1 0x40 MLOAD SWAP1 DUP2 ADD PUSH1 0x40 MSTORE DUP1 SWAP3 SWAP2 SWAP1 DUP2 DUP2 MSTORE PUSH1 0x20 ADD DUP3 DUP1 SLOAD PUSH2 0x3EC SWAP1 PUSH2 0x7AD JUMP JUMPDEST DUP1 ISZERO PUSH2 0x437 JUMPI DUP1 PUSH1 0x1F LT PUSH2 0x40E JUMPI PUSH2 0x100 DUP1 DUP4 SLOAD DIV MUL DUP4 MSTORE SWAP2 PUSH1 0x20 ADD SWAP2 PUSH2 0x437 JUMP JUMPDEST DUP3 ADD SWAP2 SWAP1 PUSH0 MSTORE PUSH1 0x20 PUSH0 KECCAK256 SWAP1 JUMPDEST DUP2 SLOAD DUP2 MSTORE SWAP1 PUSH1 0x1 ADD SWAP1 PUSH1 0x20 ADD DUP1 DUP4 GT PUSH2 0x41A JUMPI DUP3 SWAP1 SUB PUSH1 0x1F AND DUP3 ADD SWAP2 JUMPDEST POP POP POP POP POP SWAP1 DUP1 PUSH1 0x3 ADD PUSH0 SWAP1 SLOAD SWAP1 PUSH2 0x100 EXP SWAP1 DIV PUSH1 0xFF AND SWAP1 POP DUP5 JUMP JUMPDEST PUSH1 0x40 MLOAD DUP1 PUSH1 0x80 ADD PUSH1 0x40 MSTORE DUP1 PUSH0 DUP2 MSTORE PUSH1 0x20 ADD PUSH0 DUP2 MSTORE PUSH1 0x20 ADD PUSH1 0x60 DUP2 MSTORE PUSH1 0x20 ADD PUSH0 ISZERO ISZERO DUP2 MSTORE POP SWAP1 JUMP JUMPDEST PUSH0 DUP2 SWAP1 POP SWAP2 SWAP1 POP JUMP JUMPDEST PUSH2 0x48C DUP2 PUSH2 0x47A JUMP JUMPDEST DUP3 MSTORE POP POP JUMP JUMPDEST PUSH0 PUSH1 0x20 DUP3 ADD SWAP1 POP PUSH2 0x4A5 PUSH0 DUP4 ADD DUP5 PUSH2 0x483 JUMP JUMPDEST SWAP3 SWAP2 POP POP JUMP JUMPDEST PUSH0 DUP1 REVERT JUMPDEST PUSH0 DUP1 REVERT JUMPDEST PUSH2 0x4BC DUP2 PUSH2 0x47A JUMP JUMPDEST DUP2 EQ PUSH2 0x4C6 JUMPI PUSH0 DUP1 REVERT JUMPDEST POP JUMP JUMPDEST PUSH0 DUP2 CALLDATALOAD SWAP1 POP PUSH2 0x4D7 DUP2 PUSH2 0x4B3 JUMP JUMPDEST SWAP3 SWAP2 POP POP JUMP JUMPDEST PUSH0 PUSH1 0x20 DUP3 DUP5 SUB SLT ISZERO PUSH2 0x4F2 JUMPI PUSH2 0x4F1 PUSH2 0x4AB JUMP JUMPDEST JUMPDEST PUSH0 PUSH2 0x4FF DUP5 DUP3 DUP6 ADD PUSH2 0x4C9 JUMP JUMPDEST SWAP2 POP POP SWAP3 SWAP2 POP POP JUMP JUMPDEST PUSH2 0x511 DUP2 PUSH2 0x47A JUMP JUMPDEST DUP3 MSTORE POP POP JUMP JUMPDEST PUSH0 DUP2 MLOAD SWAP1 POP SWAP2 SWAP1 POP JUMP JUMPDEST PUSH0 DUP3 DUP3 MSTORE PUSH1 0x20 DUP3 ADD SWAP1 POP SWAP3 SWAP2 POP POP JUMP JUMPDEST DUP3 DUP2 DUP4 MCOPY PUSH0 DUP4 DUP4 ADD MSTORE POP POP POP JUMP JUMPDEST PUSH0 PUSH1 0x1F NOT PUSH1 0x1F DUP4 ADD AND SWAP1 POP SWAP2 SWAP1 POP JUMP JUMPDEST PUSH0 PUSH2 0x559 DUP3 PUSH2 0x517 JUMP JUMPDEST PUSH2 0x563 DUP2 DUP6 PUSH2 0x521 JUMP JUMPDEST SWAP4 POP PUSH2 0x573 DUP2 DUP6 PUSH1 0x20 DUP7 ADD PUSH2 0x531 JUMP JUMPDEST PUSH2 0x57C DUP2 PUSH2 0x53F JUMP JUMPDEST DUP5 ADD SWAP2 POP POP SWAP3 SWAP2 POP POP JUMP JUMPDEST PUSH0 DUP2 ISZERO ISZERO SWAP1 POP SWAP2 SWAP1 POP JUMP JUMPDEST PUSH2 0x59B DUP2 PUSH2 0x587 JUMP JUMPDEST DUP3 MSTORE POP POP JUMP JUMPDEST PUSH0 PUSH1 0x80 DUP4 ADD PUSH0 DUP4 ADD MLOAD PUSH2 0x5B6 PUSH0 DUP7 ADD DUP3 PUSH2 0x508 JUMP JUMPDEST POP PUSH1 0x20 DUP4 ADD MLOAD PUSH2 0x5C9 PUSH1 0x20 DUP7 ADD DUP3 PUSH2 0x508 JUMP JUMPDEST POP PUSH1 0x40 DUP4 ADD MLOAD DUP5 DUP3 SUB PUSH1 0x40 DUP7 ADD MSTORE PUSH2 0x5E1 DUP3 DUP3 PUSH2 0x54F JUMP JUMPDEST SWAP2 POP POP PUSH1 0x60 DUP4 ADD MLOAD PUSH2 0x5F6 PUSH1 0x60 DUP7 ADD DUP3 PUSH2 0x592 JUMP JUMPDEST POP DUP1 SWAP2 POP POP SWAP3 SWAP2 POP POP JUMP JUMPDEST PUSH0 PUSH1 0x20 DUP3 ADD SWAP1 POP DUP2 DUP2 SUB PUSH0 DUP4 ADD MSTORE PUSH2 0x619 DUP2 DUP5 PUSH2 0x5A1 JUMP JUMPDEST SWAP1 POP SWAP3 SWAP2 POP POP JUMP JUMPDEST PUSH0 DUP1 REVERT JUMPDEST PUSH0 DUP1 REVERT JUMPDEST PUSH0 DUP1 REVERT JUMPDEST PUSH0 DUP1 DUP4 PUSH1 0x1F DUP5 ADD SLT PUSH2 0x642 JUMPI PUSH2 0x641 PUSH2 0x621 JUMP JUMPDEST JUMPDEST DUP3 CALLDATALOAD SWAP1 POP PUSH8 0xFFFFFFFFFFFFFFFF DUP2 GT ISZERO PUSH2 0x65F JUMPI PUSH2 0x65E PUSH2 0x625 JUMP JUMPDEST JUMPDEST PUSH1 0x20 DUP4 ADD SWAP2 POP DUP4 PUSH1 0x1 DUP3 MUL DUP4 ADD GT ISZERO PUSH2 0x67B JUMPI PUSH2 0x67A PUSH2 0x629 JUMP JUMPDEST JUMPDEST SWAP3 POP SWAP3 SWAP1 POP JUMP JUMPDEST PUSH0 DUP1 PUSH0 PUSH1 0x40 DUP5 DUP7 SUB SLT ISZERO PUSH2 0x699 JUMPI PUSH2 0x698 PUSH2 0x4AB JUMP JUMPDEST JUMPDEST PUSH0 PUSH2 0x6A6 DUP7 DUP3 DUP8 ADD PUSH2 0x4C9 JUMP JUMPDEST SWAP4 POP POP PUSH1 0x20 DUP5 ADD CALLDATALOAD PUSH8 0xFFFFFFFFFFFFFFFF DUP2 GT ISZERO PUSH2 0x6C7 JUMPI PUSH2 0x6C6 PUSH2 0x4AF JUMP JUMPDEST JUMPDEST PUSH2 0x6D3 DUP7 DUP3 DUP8 ADD PUSH2 0x62D JUMP JUMPDEST SWAP3 POP SWAP3 POP POP SWAP3 POP SWAP3 POP SWAP3 JUMP JUMPDEST PUSH0 DUP3 DUP3 MSTORE PUSH1 0x20 DUP3 ADD SWAP1 POP SWAP3 SWAP2 POP POP JUMP JUMPDEST PUSH0 PUSH2 0x6F9 DUP3 PUSH2 0x517 JUMP JUMPDEST PUSH2 0x703 DUP2 DUP6 PUSH2 0x6DF JUMP JUMPDEST SWAP4 POP PUSH2 0x713 DUP2 DUP6 PUSH1 0x20 DUP7 ADD PUSH2 0x531 JUMP JUMPDEST PUSH2 0x71C DUP2 PUSH2 0x53F JUMP JUMPDEST DUP5 ADD SWAP2 POP POP SWAP3 SWAP2 POP POP JUMP JUMPDEST PUSH2 0x730 DUP2 PUSH2 0x587 JUMP JUMPDEST DUP3 MSTORE POP POP JUMP JUMPDEST PUSH0 PUSH1 0x80 DUP3 ADD SWAP1 POP PUSH2 0x749 PUSH0 DUP4 ADD DUP8 PUSH2 0x483 JUMP JUMPDEST PUSH2 0x756 PUSH1 0x20 DUP4 ADD DUP7 PUSH2 0x483 JUMP JUMPDEST DUP2 DUP2 SUB PUSH1 0x40 DUP4 ADD MSTORE PUSH2 0x768 DUP2 DUP6 PUSH2 0x6EF JUMP JUMPDEST SWAP1 POP PUSH2 0x777 PUSH1 0x60 DUP4 ADD DUP5 PUSH2 0x727 JUMP JUMPDEST SWAP6 SWAP5 POP POP POP POP POP JUMP JUMPDEST PUSH32 0x4E487B7100000000000000000000000000000000000000000000000000000000 PUSH0 MSTORE PUSH1 0x22 PUSH1 0x4 MSTORE PUSH1 0x24 PUSH0 REVERT JUMPDEST PUSH0 PUSH1 0x2 DUP3 DIV SWAP1 POP PUSH1 0x1 DUP3 AND DUP1 PUSH2 0x7C4 JUMPI PUSH1 0x7F DUP3 AND SWAP2 POP JUMPDEST PUSH1 0x20 DUP3 LT DUP2 SUB PUSH2 0x7D7 JUMPI PUSH2 0x7D6 PUSH2 0x780 JUMP JUMPDEST JUMPDEST POP SWAP2 SWAP1 POP JUMP JUMPDEST PUSH32 0x4E487B7100000000000000000000000000000000000000000000000000000000 PUSH0 MSTORE PUSH1 0x11 PUSH1 0x4 MSTORE PUSH1 0x24 PUSH0 REVERT JUMPDEST PUSH0 PUSH2 0x814 DUP3 PUSH2 0x47A JUMP JUMPDEST SWAP2 POP PUSH2 0x81F DUP4 PUSH2 0x47A JUMP JUMPDEST SWAP3 POP DUP3 DUP3 ADD SWAP1 POP DUP1 DUP3 GT ISZERO PUSH2 0x837 JUMPI PUSH2 0x836 PUSH2 0x7DD JUMP JUMPDEST JUMPDEST SWAP3 SWAP2 POP POP JUMP JUMPDEST PUSH32 0x4F7665726C617020646574656374656400000000000000000000000000000000 PUSH0 DUP3 ADD MSTORE POP JUMP JUMPDEST PUSH0 PUSH2 0x871 PUSH1 0x10 DUP4 PUSH2 0x6DF JUMP JUMPDEST SWAP2 POP PUSH2 0x87C DUP3 PUSH2 0x83D JUMP JUMPDEST PUSH1 0x20 DUP3 ADD SWAP1 POP SWAP2 SWAP1 POP JUMP JUMPDEST PUSH0 PUSH1 0x20 DUP3 ADD SWAP1 POP DUP2 DUP2 SUB PUSH0 DUP4 ADD MSTORE PUSH2 0x89E DUP2 PUSH2 0x865 JUMP JUMPDEST SWAP1 POP SWAP2 SWAP1 POP JUMP JUMPDEST PUSH32 0x4E487B7100000000000000000000000000000000000000000000000000000000 PUSH0 MSTORE PUSH1 0x41 PUSH1 0x4 MSTORE PUSH1 0x24 PUSH0 REVERT JUMPDEST PUSH0 DUP2 SWAP1 POP DUP2 PUSH0 MSTORE PUSH1 0x20 PUSH0 KECCAK256 SWAP1 POP SWAP2 SWAP1 POP JUMP JUMPDEST PUSH0 PUSH1 0x20 PUSH1 0x1F DUP4 ADD DIV SWAP1 POP SWAP2 SWAP1 POP JUMP JUMPDEST PUSH0 DUP3 DUP3 SHL SWAP1 POP SWAP3 SWAP2 POP POP JUMP JUMPDEST PUSH0 PUSH1 0x8 DUP4 MUL PUSH2 0x92E PUSH32 0xFFFFFFFFFFFFFFFFFFFFFFFFFFFFFFFFFFFFFFFFFFFFFFFFFFFFFFFFFFFFFFFF DUP3 PUSH2 0x8F3 JUMP JUMPDEST PUSH2 0x938 DUP7 DUP4 PUSH2 0x8F3 JUMP JUMPDEST SWAP6 POP DUP1 NOT DUP5 AND SWAP4 POP DUP1 DUP7 AND DUP5 OR SWAP3 POP POP POP SWAP4 SWAP3 POP POP POP JUMP JUMPDEST PUSH0 DUP2 SWAP1 POP SWAP2 SWAP1 POP JUMP JUMPDEST PUSH0 PUSH2 0x973 PUSH2 0x96E PUSH2 0x969 DUP5 PUSH2 0x47A JUMP JUMPDEST PUSH2 0x950 JUMP JUMPDEST PUSH2 0x47A JUMP JUMPDEST SWAP1 POP SWAP2 SWAP1 POP JUMP JUMPDEST PUSH0 DUP2 SWAP1 POP SWAP2 SWAP1 POP JUMP JUMPDEST PUSH2 0x98C DUP4 PUSH2 0x959 JUMP JUMPDEST PUSH2 0x9A0 PUSH2 0x998 DUP3 PUSH2 0x97A JUMP JUMPDEST DUP5 DUP5 SLOAD PUSH2 0x8FF JUMP JUMPDEST DUP3 SSTORE POP POP POP POP JUMP JUMPDEST PUSH0 SWAP1 JUMP JUMPDEST PUSH2 0x9B4 PUSH2 0x9A8 JUMP JUMPDEST PUSH2 0x9BF DUP2 DUP5 DUP5 PUSH2 0x983 JUMP JUMPDEST POP POP POP JUMP JUMPDEST JUMPDEST DUP2 DUP2 LT ISZERO PUSH2 0x9E2 JUMPI PUSH2 0x9D7 PUSH0 DUP3 PUSH2 0x9AC JUMP JUMPDEST PUSH1 0x1 DUP2 ADD SWAP1 POP PUSH2 0x9C5 JUMP JUMPDEST POP POP JUMP JUMPDEST PUSH1 0x1F DUP3 GT ISZERO PUSH2 0xA27 JUMPI PUSH2 0x9F8 DUP2 PUSH2 0x8D2 JUMP JUMPDEST PUSH2 0xA01 DUP5 PUSH2 0x8E4 JUMP JUMPDEST DUP2 ADD PUSH1 0x20 DUP6 LT ISZERO PUSH2 0xA10 JUMPI DUP2 SWAP1 POP JUMPDEST PUSH2 0xA24 PUSH2 0xA1C DUP6 PUSH2 0x8E4 JUMP JUMPDEST DUP4 ADD DUP3 PUSH2 0x9C4 JUMP JUMPDEST POP POP JUMPDEST POP POP POP JUMP JUMPDEST PUSH0 DUP3 DUP3 SHR SWAP1 POP SWAP3 SWAP2 POP POP JUMP JUMPDEST PUSH0 PUSH2 0xA47 PUSH0 NOT DUP5 PUSH1 0x8 MUL PUSH2 0xA2C JUMP JUMPDEST NOT DUP1 DUP4 AND SWAP2 POP POP SWAP3 SWAP2 POP POP JUMP JUMPDEST PUSH0 PUSH2 0xA5F DUP4 DUP4 PUSH2 0xA38 JUMP JUMPDEST SWAP2 POP DUP3 PUSH1 0x2 MUL DUP3 OR SWAP1 POP SWAP3 SWAP2 POP POP JUMP JUMPDEST PUSH2 0xA78 DUP3 PUSH2 0x517 JUMP JUMPDEST PUSH8 0xFFFFFFFFFFFFFFFF DUP2 GT ISZERO PUSH2 0xA91 JUMPI PUSH2 0xA90 PUSH2 0x8A5 JUMP JUMPDEST JUMPDEST PUSH2 0xA9B DUP3 SLOAD PUSH2 0x7AD JUMP JUMPDEST PUSH2 0xAA6 DUP3 DUP3 DUP6 PUSH2 0x9E6 JUMP JUMPDEST PUSH0 PUSH1 0x20 SWAP1 POP PUSH1 0x1F DUP4 GT PUSH1 0x1 DUP2 EQ PUSH2 0xAD7 JUMPI PUSH0 DUP5 ISZERO PUSH2 0xAC5 JUMPI DUP3 DUP8 ADD MLOAD SWAP1 POP JUMPDEST PUSH2 0xACF DUP6 DUP3 PUSH2 0xA54 JUMP JUMPDEST DUP7 SSTORE POP PUSH2 0xB36 JUMP JUMPDEST PUSH1 0x1F NOT DUP5 AND PUSH2 0xAE5 DUP7 PUSH2 0x8D2 JUMP JUMPDEST PUSH0 JUMPDEST DUP3 DUP2 LT ISZERO PUSH2 0xB0C JUMPI DUP5 DUP10 ADD MLOAD DUP3 SSTORE PUSH1 0x1 DUP3 ADD SWAP2 POP PUSH1 0x20 DUP6 ADD SWAP5 POP PUSH1 0x20 DUP2 ADD SWAP1 POP PUSH2 0xAE7 JUMP JUMPDEST DUP7 DUP4 LT ISZERO PUSH2 0xB29 JUMPI DUP5 DUP10 ADD MLOAD PUSH2 0xB25 PUSH1 0x1F DUP10 AND DUP3 PUSH2 0xA38 JUMP JUMPDEST DUP4 SSTORE POP JUMPDEST PUSH1 0x1 PUSH1 0x2 DUP9 MUL ADD DUP9 SSTORE POP POP POP JUMPDEST POP POP POP POP POP POP JUMP JUMPDEST PUSH0 PUSH2 0xB48 DUP3 PUSH2 0x47A JUMP JUMPDEST SWAP2 POP PUSH32 0xFFFFFFFFFFFFFFFFFFFFFFFFFFFFFFFFFFFFFFFFFFFFFFFFFFFFFFFFFFFFFFFF DUP3 SUB PUSH2 0xB7A JUMPI PUSH2 0xB79 PUSH2 0x7DD JUMP JUMPDEST JUMPDEST PUSH1 0x1 DUP3 ADD SWAP1 POP SWAP2 SWAP1 POP JUMP INVALID LOG2 PUSH5 0x6970667358 0x22 SLT KECCAK256 PUSH7 0x2166BA1D1741CD 0xF6 REVERT PUSH20 0xF0003521CBF731CB085796B30B7EE19C0BEEEF0E PUSH9 0x64736F6C634300081A STOP CALLER "
		},
		"gasEstimates": {
			"creation": {
				"codeDepositCost": "600600",
				"executionCost": "630",
				"totalCost": "601230"
			},
			"external": {
				"fragments(uint256)": "infinite",
				"readFragment(uint256)": "infinite",
				"storeFragment(uint256,string)": "infinite",
				"totalSize()": "2403"
			}
		},
		"methodIdentifiers": {
			"fragments(uint256)": "ff6e5334",
			"readFragment(uint256)": "b55817c2",
			"storeFragment(uint256,string)": "df04f050",
			"totalSize()": "8b7ca0d8"
		}
	},
	"abi": [
		{
			"inputs": [
				{
					"internalType": "uint256",
					"name": "",
					"type": "uint256"
				}
			],
			"name": "fragments",
			"outputs": [
				{
					"internalType": "uint256",
					"name": "offset",
					"type": "uint256"
				},
				{
					"internalType": "uint256",
					"name": "length",
					"type": "uint256"
				},
				{
					"internalType": "string",
					"name": "data",
					"type": "string"
				},
				{
					"internalType": "bool",
					"name": "exists",
					"type": "bool"
				}
			],
			"stateMutability": "view",
			"type": "function"
		},
		{
			"inputs": [
				{
					"internalType": "uint256",
					"name": "index",
					"type": "uint256"
				}
			],
			"name": "readFragment",
			"outputs": [
				{
					"components": [
						{
							"internalType": "uint256",
							"name": "offset",
							"type": "uint256"
						},
						{
							"internalType": "uint256",
							"name": "length",
							"type": "uint256"
						},
						{
							"internalType": "string",
							"name": "data",
							"type": "string"
						},
						{
							"internalType": "bool",
							"name": "exists",
							"type": "bool"
						}
					],
					"internalType": "struct NonOverlappingFragmentStore.Fragment",
					"name": "",
					"type": "tuple"
				}
			],
			"stateMutability": "view",
			"type": "function"
		},
		{
			"inputs": [
				{
					"internalType": "uint256",
					"name": "offset",
					"type": "uint256"
				},
				{
					"internalType": "string",
					"name": "data",
					"type": "string"
				}
			],
			"name": "storeFragment",
			"outputs": [],
			"stateMutability": "nonpayable",
			"type": "function"
		},
		{
			"inputs": [],
			"name": "totalSize",
			"outputs": [
				{
					"internalType": "uint256",
					"name": "",
					"type": "uint256"
				}
			],
			"stateMutability": "view",
			"type": "function"
		}
	]
}