{
	"R/Resource Exhaustion/AIScorer.sol": {
		"AIScorer": {
			"abi": [
				{
					"inputs": [
						{
							"internalType": "bytes4",
							"name": "",
							"type": "bytes4"
						}
					],
					"name": "log",
					"outputs": [
						{
							"internalType": "bytes4",
							"name": "selector",
							"type": "bytes4"
						},
						{
							"internalType": "uint256",
							"name": "gasUsed",
							"type": "uint256"
						},
						{
							"internalType": "uint8",
							"name": "entropy",
							"type": "uint8"
						},
						{
							"internalType": "uint256",
							"name": "fails",
							"type": "uint256"
						},
						{
							"internalType": "uint256",
							"name": "blockLogged",
							"type": "uint256"
						}
					],
					"stateMutability": "view",
					"type": "function"
				},
				{
					"inputs": [
						{
							"internalType": "bytes4",
							"name": "selector",
							"type": "bytes4"
						},
						{
							"internalType": "uint256",
							"name": "gasUsed",
							"type": "uint256"
						},
						{
							"internalType": "uint8",
							"name": "entropy",
							"type": "uint8"
						},
						{
							"internalType": "bool",
							"name": "success",
							"type": "bool"
						}
					],
					"name": "logAttack",
					"outputs": [],
					"stateMutability": "nonpayable",
					"type": "function"
				},
				{
					"inputs": [
						{
							"internalType": "bytes4",
							"name": "selector",
							"type": "bytes4"
						}
					],
					"name": "score",
					"outputs": [
						{
							"internalType": "uint256",
							"name": "",
							"type": "uint256"
						}
					],
					"stateMutability": "view",
					"type": "function"
				}
			],
			"devdoc": {
				"kind": "dev",
				"methods": {},
				"version": 1
			},
			"evm": {
				"assembly": "    /* \"R/Resource Exhaustion/AIScorer.sol\":58:870  contract AIScorer {... */\n  mstore(0x40, 0x80)\n  callvalue\n  dup1\n  iszero\n  tag_1\n  jumpi\n  0x00\n  dup1\n  revert\ntag_1:\n  pop\n  dataSize(sub_0)\n  dup1\n  dataOffset(sub_0)\n  0x00\n  codecopy\n  0x00\n  return\nstop\n\nsub_0: assembly {\n        /* \"R/Resource Exhaustion/AIScorer.sol\":58:870  contract AIScorer {... */\n      mstore(0x40, 0x80)\n      callvalue\n      dup1\n      iszero\n      tag_1\n      jumpi\n      0x00\n      dup1\n      revert\n    tag_1:\n      pop\n      jumpi(tag_2, lt(calldatasize, 0x04))\n      shr(0xe0, calldataload(0x00))\n      dup1\n      0x6ea86bd7\n      eq\n      tag_3\n      jumpi\n      dup1\n      0x9efc2f38\n      eq\n      tag_4\n      jumpi\n      dup1\n      0xe05f48d1\n      eq\n      tag_5\n      jumpi\n    tag_2:\n      0x00\n      dup1\n      revert\n        /* \"R/Resource Exhaustion/AIScorer.sol\":277:577  function logAttack(bytes4 selector, uint256 gasUsed, uint8 entropy, bool success) external {... */\n    tag_3:\n      tag_6\n      0x04\n      dup1\n      calldatasize\n      sub\n      dup2\n      add\n      swap1\n      tag_7\n      swap2\n      swap1\n      tag_8\n      jump\t// in\n    tag_7:\n      tag_9\n      jump\t// in\n    tag_6:\n      stop\n        /* \"R/Resource Exhaustion/AIScorer.sol\":583:868  function score(bytes4 selector) public view returns (uint256) {... */\n    tag_4:\n      tag_10\n      0x04\n      dup1\n      calldatasize\n      sub\n      dup2\n      add\n      swap1\n      tag_11\n      swap2\n      swap1\n      tag_12\n      jump\t// in\n    tag_11:\n      tag_13\n      jump\t// in\n    tag_10:\n      mload(0x40)\n      tag_14\n      swap2\n      swap1\n      tag_15\n      jump\t// in\n    tag_14:\n      mload(0x40)\n      dup1\n      swap2\n      sub\n      swap1\n      return\n        /* \"R/Resource Exhaustion/AIScorer.sol\":234:270  mapping(bytes4 => Attack) public log */\n    tag_5:\n      tag_16\n      0x04\n      dup1\n      calldatasize\n      sub\n      dup2\n      add\n      swap1\n      tag_17\n      swap2\n      swap1\n      tag_12\n      jump\t// in\n    tag_17:\n      tag_18\n      jump\t// in\n    tag_16:\n      mload(0x40)\n      tag_19\n      swap6\n      swap5\n      swap4\n      swap3\n      swap2\n      swap1\n      tag_20\n      jump\t// in\n    tag_19:\n      mload(0x40)\n      dup1\n      swap2\n      sub\n      swap1\n      return\n        /* \"R/Resource Exhaustion/AIScorer.sol\":277:577  function logAttack(bytes4 selector, uint256 gasUsed, uint8 entropy, bool success) external {... */\n    tag_9:\n        /* \"R/Resource Exhaustion/AIScorer.sol\":378:394  Attack storage a */\n      0x00\n        /* \"R/Resource Exhaustion/AIScorer.sol\":397:400  log */\n      dup1\n        /* \"R/Resource Exhaustion/AIScorer.sol\":397:410  log[selector] */\n      0x00\n        /* \"R/Resource Exhaustion/AIScorer.sol\":401:409  selector */\n      dup7\n        /* \"R/Resource Exhaustion/AIScorer.sol\":397:410  log[selector] */\n      not(0xffffffffffffffffffffffffffffffffffffffffffffffffffffffff)\n      and\n      not(0xffffffffffffffffffffffffffffffffffffffffffffffffffffffff)\n      and\n      dup2\n      mstore\n      0x20\n      add\n      swap1\n      dup2\n      mstore\n      0x20\n      add\n      0x00\n      keccak256\n        /* \"R/Resource Exhaustion/AIScorer.sol\":378:410  Attack storage a = log[selector] */\n      swap1\n      pop\n        /* \"R/Resource Exhaustion/AIScorer.sol\":433:441  selector */\n      dup5\n        /* \"R/Resource Exhaustion/AIScorer.sol\":420:421  a */\n      dup2\n        /* \"R/Resource Exhaustion/AIScorer.sol\":420:430  a.selector */\n      0x00\n      add\n      0x00\n        /* \"R/Resource Exhaustion/AIScorer.sol\":420:441  a.selector = selector */\n      0x0100\n      exp\n      dup2\n      sload\n      dup2\n      0xffffffff\n      mul\n      not\n      and\n      swap1\n      dup4\n      0xe0\n      shr\n      mul\n      or\n      swap1\n      sstore\n      pop\n        /* \"R/Resource Exhaustion/AIScorer.sol\":463:470  gasUsed */\n      dup4\n        /* \"R/Resource Exhaustion/AIScorer.sol\":451:452  a */\n      dup2\n        /* \"R/Resource Exhaustion/AIScorer.sol\":451:460  a.gasUsed */\n      0x01\n      add\n        /* \"R/Resource Exhaustion/AIScorer.sol\":451:470  a.gasUsed = gasUsed */\n      dup2\n      swap1\n      sstore\n      pop\n        /* \"R/Resource Exhaustion/AIScorer.sol\":492:499  entropy */\n      dup3\n        /* \"R/Resource Exhaustion/AIScorer.sol\":480:481  a */\n      dup2\n        /* \"R/Resource Exhaustion/AIScorer.sol\":480:489  a.entropy */\n      0x02\n      add\n      0x00\n        /* \"R/Resource Exhaustion/AIScorer.sol\":480:499  a.entropy = entropy */\n      0x0100\n      exp\n      dup2\n      sload\n      dup2\n      0xff\n      mul\n      not\n      and\n      swap1\n      dup4\n      0xff\n      and\n      mul\n      or\n      swap1\n      sstore\n      pop\n        /* \"R/Resource Exhaustion/AIScorer.sol\":514:521  success */\n      dup2\n        /* \"R/Resource Exhaustion/AIScorer.sol\":509:532  if (!success) a.fails++ */\n      tag_22\n      jumpi\n        /* \"R/Resource Exhaustion/AIScorer.sol\":523:524  a */\n      dup1\n        /* \"R/Resource Exhaustion/AIScorer.sol\":523:530  a.fails */\n      0x03\n      add\n      0x00\n        /* \"R/Resource Exhaustion/AIScorer.sol\":523:532  a.fails++ */\n      dup2\n      sload\n      dup1\n      swap3\n      swap2\n      swap1\n      tag_23\n      swap1\n      tag_24\n      jump\t// in\n    tag_23:\n      swap2\n      swap1\n      pop\n      sstore\n      pop\n        /* \"R/Resource Exhaustion/AIScorer.sol\":509:532  if (!success) a.fails++ */\n    tag_22:\n        /* \"R/Resource Exhaustion/AIScorer.sol\":558:570  block.number */\n      number\n        /* \"R/Resource Exhaustion/AIScorer.sol\":542:543  a */\n      dup2\n        /* \"R/Resource Exhaustion/AIScorer.sol\":542:555  a.blockLogged */\n      0x04\n      add\n        /* \"R/Resource Exhaustion/AIScorer.sol\":542:570  a.blockLogged = block.number */\n      dup2\n      swap1\n      sstore\n      pop\n        /* \"R/Resource Exhaustion/AIScorer.sol\":368:577  {... */\n      pop\n        /* \"R/Resource Exhaustion/AIScorer.sol\":277:577  function logAttack(bytes4 selector, uint256 gasUsed, uint8 entropy, bool success) external {... */\n      pop\n      pop\n      pop\n      pop\n      jump\t// out\n        /* \"R/Resource Exhaustion/AIScorer.sol\":583:868  function score(bytes4 selector) public view returns (uint256) {... */\n    tag_13:\n        /* \"R/Resource Exhaustion/AIScorer.sol\":636:643  uint256 */\n      0x00\n        /* \"R/Resource Exhaustion/AIScorer.sol\":655:670  Attack memory a */\n      dup1\n        /* \"R/Resource Exhaustion/AIScorer.sol\":673:676  log */\n      0x00\n        /* \"R/Resource Exhaustion/AIScorer.sol\":673:686  log[selector] */\n      dup1\n        /* \"R/Resource Exhaustion/AIScorer.sol\":677:685  selector */\n      dup5\n        /* \"R/Resource Exhaustion/AIScorer.sol\":673:686  log[selector] */\n      not(0xffffffffffffffffffffffffffffffffffffffffffffffffffffffff)\n      and\n      not(0xffffffffffffffffffffffffffffffffffffffffffffffffffffffff)\n      and\n      dup2\n      mstore\n      0x20\n      add\n      swap1\n      dup2\n      mstore\n      0x20\n      add\n      0x00\n      keccak256\n        /* \"R/Resource Exhaustion/AIScorer.sol\":655:686  Attack memory a = log[selector] */\n      mload(0x40)\n      dup1\n      0xa0\n      add\n      0x40\n      mstore\n      swap1\n      dup2\n      0x00\n      dup3\n      add\n      0x00\n      swap1\n      sload\n      swap1\n      0x0100\n      exp\n      swap1\n      div\n      0xe0\n      shl\n      not(0xffffffffffffffffffffffffffffffffffffffffffffffffffffffff)\n      and\n      not(0xffffffffffffffffffffffffffffffffffffffffffffffffffffffff)\n      and\n      dup2\n      mstore\n      0x20\n      add\n      0x01\n      dup3\n      add\n      sload\n      dup2\n      mstore\n      0x20\n      add\n      0x02\n      dup3\n      add\n      0x00\n      swap1\n      sload\n      swap1\n      0x0100\n      exp\n      swap1\n      div\n      0xff\n      and\n      0xff\n      and\n      0xff\n      and\n      dup2\n      mstore\n      0x20\n      add\n      0x03\n      dup3\n      add\n      sload\n      dup2\n      mstore\n      0x20\n      add\n      0x04\n      dup3\n      add\n      sload\n      dup2\n      mstore\n      pop\n      pop\n      swap1\n      pop\n        /* \"R/Resource Exhaustion/AIScorer.sol\":713:714  0 */\n      0x00\n        /* \"R/Resource Exhaustion/AIScorer.sol\":700:701  a */\n      dup2\n        /* \"R/Resource Exhaustion/AIScorer.sol\":700:709  a.entropy */\n      0x40\n      add\n      mload\n        /* \"R/Resource Exhaustion/AIScorer.sol\":700:714  a.entropy == 0 */\n      0xff\n      and\n      eq\n        /* \"R/Resource Exhaustion/AIScorer.sol\":700:732  a.entropy == 0 || a.gasUsed == 0 */\n      dup1\n      tag_26\n      jumpi\n      pop\n        /* \"R/Resource Exhaustion/AIScorer.sol\":731:732  0 */\n      0x00\n        /* \"R/Resource Exhaustion/AIScorer.sol\":718:719  a */\n      dup2\n        /* \"R/Resource Exhaustion/AIScorer.sol\":718:727  a.gasUsed */\n      0x20\n      add\n      mload\n        /* \"R/Resource Exhaustion/AIScorer.sol\":718:732  a.gasUsed == 0 */\n      eq\n        /* \"R/Resource Exhaustion/AIScorer.sol\":700:732  a.entropy == 0 || a.gasUsed == 0 */\n    tag_26:\n        /* \"R/Resource Exhaustion/AIScorer.sol\":696:742  if (a.entropy == 0 || a.gasUsed == 0) return 0 */\n      iszero\n      tag_27\n      jumpi\n        /* \"R/Resource Exhaustion/AIScorer.sol\":741:742  0 */\n      0x00\n        /* \"R/Resource Exhaustion/AIScorer.sol\":734:742  return 0 */\n      swap2\n      pop\n      pop\n      jump(tag_25)\n        /* \"R/Resource Exhaustion/AIScorer.sol\":696:742  if (a.entropy == 0 || a.gasUsed == 0) return 0 */\n    tag_27:\n        /* \"R/Resource Exhaustion/AIScorer.sol\":752:771  uint256 driftFactor */\n      0x00\n        /* \"R/Resource Exhaustion/AIScorer.sol\":786:787  a */\n      dup2\n        /* \"R/Resource Exhaustion/AIScorer.sol\":786:795  a.gasUsed */\n      0x20\n      add\n      mload\n        /* \"R/Resource Exhaustion/AIScorer.sol\":774:775  a */\n      dup3\n        /* \"R/Resource Exhaustion/AIScorer.sol\":774:783  a.entropy */\n      0x40\n      add\n      mload\n        /* \"R/Resource Exhaustion/AIScorer.sol\":774:795  a.entropy * a.gasUsed */\n      0xff\n      and\n      tag_28\n      swap2\n      swap1\n      tag_29\n      jump\t// in\n    tag_28:\n        /* \"R/Resource Exhaustion/AIScorer.sol\":752:795  uint256 driftFactor = a.entropy * a.gasUsed */\n      swap1\n      pop\n        /* \"R/Resource Exhaustion/AIScorer.sol\":822:823  0 */\n      0x00\n        /* \"R/Resource Exhaustion/AIScorer.sol\":812:813  a */\n      dup3\n        /* \"R/Resource Exhaustion/AIScorer.sol\":812:819  a.fails */\n      0x60\n      add\n      mload\n        /* \"R/Resource Exhaustion/AIScorer.sol\":812:823  a.fails > 0 */\n      gt\n        /* \"R/Resource Exhaustion/AIScorer.sol\":812:861  a.fails > 0 ? driftFactor / a.fails : driftFactor */\n      tag_30\n      jumpi\n        /* \"R/Resource Exhaustion/AIScorer.sol\":850:861  driftFactor */\n      dup1\n        /* \"R/Resource Exhaustion/AIScorer.sol\":812:861  a.fails > 0 ? driftFactor / a.fails : driftFactor */\n      jump(tag_31)\n    tag_30:\n        /* \"R/Resource Exhaustion/AIScorer.sol\":840:841  a */\n      dup2\n        /* \"R/Resource Exhaustion/AIScorer.sol\":840:847  a.fails */\n      0x60\n      add\n      mload\n        /* \"R/Resource Exhaustion/AIScorer.sol\":826:837  driftFactor */\n      dup2\n        /* \"R/Resource Exhaustion/AIScorer.sol\":826:847  driftFactor / a.fails */\n      tag_32\n      swap2\n      swap1\n      tag_33\n      jump\t// in\n    tag_32:\n        /* \"R/Resource Exhaustion/AIScorer.sol\":812:861  a.fails > 0 ? driftFactor / a.fails : driftFactor */\n    tag_31:\n        /* \"R/Resource Exhaustion/AIScorer.sol\":805:861  return a.fails > 0 ? driftFactor / a.fails : driftFactor */\n      swap3\n      pop\n      pop\n      pop\n        /* \"R/Resource Exhaustion/AIScorer.sol\":583:868  function score(bytes4 selector) public view returns (uint256) {... */\n    tag_25:\n      swap2\n      swap1\n      pop\n      jump\t// out\n        /* \"R/Resource Exhaustion/AIScorer.sol\":234:270  mapping(bytes4 => Attack) public log */\n    tag_18:\n      mstore(0x20, 0x00)\n      dup1\n      0x00\n      mstore\n      keccak256(0x00, 0x40)\n      0x00\n      swap2\n      pop\n      swap1\n      pop\n      dup1\n      0x00\n      add\n      0x00\n      swap1\n      sload\n      swap1\n      0x0100\n      exp\n      swap1\n      div\n      0xe0\n      shl\n      swap1\n      dup1\n      0x01\n      add\n      sload\n      swap1\n      dup1\n      0x02\n      add\n      0x00\n      swap1\n      sload\n      swap1\n      0x0100\n      exp\n      swap1\n      div\n      0xff\n      and\n      swap1\n      dup1\n      0x03\n      add\n      sload\n      swap1\n      dup1\n      0x04\n      add\n      sload\n      swap1\n      pop\n      dup6\n      jump\t// out\n        /* \"#utility.yul\":88:205   */\n    tag_35:\n        /* \"#utility.yul\":197:198   */\n      0x00\n        /* \"#utility.yul\":194:195   */\n      dup1\n        /* \"#utility.yul\":187:199   */\n      revert\n        /* \"#utility.yul\":334:483   */\n    tag_37:\n        /* \"#utility.yul\":370:377   */\n      0x00\n        /* \"#utility.yul\":410:476   */\n      0xffffffff00000000000000000000000000000000000000000000000000000000\n        /* \"#utility.yul\":403:408   */\n      dup3\n        /* \"#utility.yul\":399:477   */\n      and\n        /* \"#utility.yul\":388:477   */\n      swap1\n      pop\n        /* \"#utility.yul\":334:483   */\n      swap2\n      swap1\n      pop\n      jump\t// out\n        /* \"#utility.yul\":489:609   */\n    tag_38:\n        /* \"#utility.yul\":561:584   */\n      tag_60\n        /* \"#utility.yul\":578:583   */\n      dup2\n        /* \"#utility.yul\":561:584   */\n      tag_37\n      jump\t// in\n    tag_60:\n        /* \"#utility.yul\":554:559   */\n      dup2\n        /* \"#utility.yul\":551:585   */\n      eq\n        /* \"#utility.yul\":541:603   */\n      tag_61\n      jumpi\n        /* \"#utility.yul\":599:600   */\n      0x00\n        /* \"#utility.yul\":596:597   */\n      dup1\n        /* \"#utility.yul\":589:601   */\n      revert\n        /* \"#utility.yul\":541:603   */\n    tag_61:\n        /* \"#utility.yul\":489:609   */\n      pop\n      jump\t// out\n        /* \"#utility.yul\":615:752   */\n    tag_39:\n        /* \"#utility.yul\":660:665   */\n      0x00\n        /* \"#utility.yul\":698:704   */\n      dup2\n        /* \"#utility.yul\":685:705   */\n      calldataload\n        /* \"#utility.yul\":676:705   */\n      swap1\n      pop\n        /* \"#utility.yul\":714:746   */\n      tag_63\n        /* \"#utility.yul\":740:745   */\n      dup2\n        /* \"#utility.yul\":714:746   */\n      tag_38\n      jump\t// in\n    tag_63:\n        /* \"#utility.yul\":615:752   */\n      swap3\n      swap2\n      pop\n      pop\n      jump\t// out\n        /* \"#utility.yul\":758:835   */\n    tag_40:\n        /* \"#utility.yul\":795:802   */\n      0x00\n        /* \"#utility.yul\":824:829   */\n      dup2\n        /* \"#utility.yul\":813:829   */\n      swap1\n      pop\n        /* \"#utility.yul\":758:835   */\n      swap2\n      swap1\n      pop\n      jump\t// out\n        /* \"#utility.yul\":841:963   */\n    tag_41:\n        /* \"#utility.yul\":914:938   */\n      tag_66\n        /* \"#utility.yul\":932:937   */\n      dup2\n        /* \"#utility.yul\":914:938   */\n      tag_40\n      jump\t// in\n    tag_66:\n        /* \"#utility.yul\":907:912   */\n      dup2\n        /* \"#utility.yul\":904:939   */\n      eq\n        /* \"#utility.yul\":894:957   */\n      tag_67\n      jumpi\n        /* \"#utility.yul\":953:954   */\n      0x00\n        /* \"#utility.yul\":950:951   */\n      dup1\n        /* \"#utility.yul\":943:955   */\n      revert\n        /* \"#utility.yul\":894:957   */\n    tag_67:\n        /* \"#utility.yul\":841:963   */\n      pop\n      jump\t// out\n        /* \"#utility.yul\":969:1108   */\n    tag_42:\n        /* \"#utility.yul\":1015:1020   */\n      0x00\n        /* \"#utility.yul\":1053:1059   */\n      dup2\n        /* \"#utility.yul\":1040:1060   */\n      calldataload\n        /* \"#utility.yul\":1031:1060   */\n      swap1\n      pop\n        /* \"#utility.yul\":1069:1102   */\n      tag_69\n        /* \"#utility.yul\":1096:1101   */\n      dup2\n        /* \"#utility.yul\":1069:1102   */\n      tag_41\n      jump\t// in\n    tag_69:\n        /* \"#utility.yul\":969:1108   */\n      swap3\n      swap2\n      pop\n      pop\n      jump\t// out\n        /* \"#utility.yul\":1114:1200   */\n    tag_43:\n        /* \"#utility.yul\":1149:1156   */\n      0x00\n        /* \"#utility.yul\":1189:1193   */\n      0xff\n        /* \"#utility.yul\":1182:1187   */\n      dup3\n        /* \"#utility.yul\":1178:1194   */\n      and\n        /* \"#utility.yul\":1167:1194   */\n      swap1\n      pop\n        /* \"#utility.yul\":1114:1200   */\n      swap2\n      swap1\n      pop\n      jump\t// out\n        /* \"#utility.yul\":1206:1324   */\n    tag_44:\n        /* \"#utility.yul\":1277:1299   */\n      tag_72\n        /* \"#utility.yul\":1293:1298   */\n      dup2\n        /* \"#utility.yul\":1277:1299   */\n      tag_43\n      jump\t// in\n    tag_72:\n        /* \"#utility.yul\":1270:1275   */\n      dup2\n        /* \"#utility.yul\":1267:1300   */\n      eq\n        /* \"#utility.yul\":1257:1318   */\n      tag_73\n      jumpi\n        /* \"#utility.yul\":1314:1315   */\n      0x00\n        /* \"#utility.yul\":1311:1312   */\n      dup1\n        /* \"#utility.yul\":1304:1316   */\n      revert\n        /* \"#utility.yul\":1257:1318   */\n    tag_73:\n        /* \"#utility.yul\":1206:1324   */\n      pop\n      jump\t// out\n        /* \"#utility.yul\":1330:1465   */\n    tag_45:\n        /* \"#utility.yul\":1374:1379   */\n      0x00\n        /* \"#utility.yul\":1412:1418   */\n      dup2\n        /* \"#utility.yul\":1399:1419   */\n      calldataload\n        /* \"#utility.yul\":1390:1419   */\n      swap1\n      pop\n        /* \"#utility.yul\":1428:1459   */\n      tag_75\n        /* \"#utility.yul\":1453:1458   */\n      dup2\n        /* \"#utility.yul\":1428:1459   */\n      tag_44\n      jump\t// in\n    tag_75:\n        /* \"#utility.yul\":1330:1465   */\n      swap3\n      swap2\n      pop\n      pop\n      jump\t// out\n        /* \"#utility.yul\":1471:1561   */\n    tag_46:\n        /* \"#utility.yul\":1505:1512   */\n      0x00\n        /* \"#utility.yul\":1548:1553   */\n      dup2\n        /* \"#utility.yul\":1541:1554   */\n      iszero\n        /* \"#utility.yul\":1534:1555   */\n      iszero\n        /* \"#utility.yul\":1523:1555   */\n      swap1\n      pop\n        /* \"#utility.yul\":1471:1561   */\n      swap2\n      swap1\n      pop\n      jump\t// out\n        /* \"#utility.yul\":1567:1683   */\n    tag_47:\n        /* \"#utility.yul\":1637:1658   */\n      tag_78\n        /* \"#utility.yul\":1652:1657   */\n      dup2\n        /* \"#utility.yul\":1637:1658   */\n      tag_46\n      jump\t// in\n    tag_78:\n        /* \"#utility.yul\":1630:1635   */\n      dup2\n        /* \"#utility.yul\":1627:1659   */\n      eq\n        /* \"#utility.yul\":1617:1677   */\n      tag_79\n      jumpi\n        /* \"#utility.yul\":1673:1674   */\n      0x00\n        /* \"#utility.yul\":1670:1671   */\n      dup1\n        /* \"#utility.yul\":1663:1675   */\n      revert\n        /* \"#utility.yul\":1617:1677   */\n    tag_79:\n        /* \"#utility.yul\":1567:1683   */\n      pop\n      jump\t// out\n        /* \"#utility.yul\":1689:1822   */\n    tag_48:\n        /* \"#utility.yul\":1732:1737   */\n      0x00\n        /* \"#utility.yul\":1770:1776   */\n      dup2\n        /* \"#utility.yul\":1757:1777   */\n      calldataload\n        /* \"#utility.yul\":1748:1777   */\n      swap1\n      pop\n        /* \"#utility.yul\":1786:1816   */\n      tag_81\n        /* \"#utility.yul\":1810:1815   */\n      dup2\n        /* \"#utility.yul\":1786:1816   */\n      tag_47\n      jump\t// in\n    tag_81:\n        /* \"#utility.yul\":1689:1822   */\n      swap3\n      swap2\n      pop\n      pop\n      jump\t// out\n        /* \"#utility.yul\":1828:2581   */\n    tag_8:\n        /* \"#utility.yul\":1908:1914   */\n      0x00\n        /* \"#utility.yul\":1916:1922   */\n      dup1\n        /* \"#utility.yul\":1924:1930   */\n      0x00\n        /* \"#utility.yul\":1932:1938   */\n      dup1\n        /* \"#utility.yul\":1981:1984   */\n      0x80\n        /* \"#utility.yul\":1969:1978   */\n      dup6\n        /* \"#utility.yul\":1960:1967   */\n      dup8\n        /* \"#utility.yul\":1956:1979   */\n      sub\n        /* \"#utility.yul\":1952:1985   */\n      slt\n        /* \"#utility.yul\":1949:2069   */\n      iszero\n      tag_83\n      jumpi\n        /* \"#utility.yul\":1988:2067   */\n      tag_84\n      tag_35\n      jump\t// in\n    tag_84:\n        /* \"#utility.yul\":1949:2069   */\n    tag_83:\n        /* \"#utility.yul\":2108:2109   */\n      0x00\n        /* \"#utility.yul\":2133:2185   */\n      tag_85\n        /* \"#utility.yul\":2177:2184   */\n      dup8\n        /* \"#utility.yul\":2168:2174   */\n      dup3\n        /* \"#utility.yul\":2157:2166   */\n      dup9\n        /* \"#utility.yul\":2153:2175   */\n      add\n        /* \"#utility.yul\":2133:2185   */\n      tag_39\n      jump\t// in\n    tag_85:\n        /* \"#utility.yul\":2123:2185   */\n      swap5\n      pop\n        /* \"#utility.yul\":2079:2195   */\n      pop\n        /* \"#utility.yul\":2234:2236   */\n      0x20\n        /* \"#utility.yul\":2260:2313   */\n      tag_86\n        /* \"#utility.yul\":2305:2312   */\n      dup8\n        /* \"#utility.yul\":2296:2302   */\n      dup3\n        /* \"#utility.yul\":2285:2294   */\n      dup9\n        /* \"#utility.yul\":2281:2303   */\n      add\n        /* \"#utility.yul\":2260:2313   */\n      tag_42\n      jump\t// in\n    tag_86:\n        /* \"#utility.yul\":2250:2313   */\n      swap4\n      pop\n        /* \"#utility.yul\":2205:2323   */\n      pop\n        /* \"#utility.yul\":2362:2364   */\n      0x40\n        /* \"#utility.yul\":2388:2439   */\n      tag_87\n        /* \"#utility.yul\":2431:2438   */\n      dup8\n        /* \"#utility.yul\":2422:2428   */\n      dup3\n        /* \"#utility.yul\":2411:2420   */\n      dup9\n        /* \"#utility.yul\":2407:2429   */\n      add\n        /* \"#utility.yul\":2388:2439   */\n      tag_45\n      jump\t// in\n    tag_87:\n        /* \"#utility.yul\":2378:2439   */\n      swap3\n      pop\n        /* \"#utility.yul\":2333:2449   */\n      pop\n        /* \"#utility.yul\":2488:2490   */\n      0x60\n        /* \"#utility.yul\":2514:2564   */\n      tag_88\n        /* \"#utility.yul\":2556:2563   */\n      dup8\n        /* \"#utility.yul\":2547:2553   */\n      dup3\n        /* \"#utility.yul\":2536:2545   */\n      dup9\n        /* \"#utility.yul\":2532:2554   */\n      add\n        /* \"#utility.yul\":2514:2564   */\n      tag_48\n      jump\t// in\n    tag_88:\n        /* \"#utility.yul\":2504:2564   */\n      swap2\n      pop\n        /* \"#utility.yul\":2459:2574   */\n      pop\n        /* \"#utility.yul\":1828:2581   */\n      swap3\n      swap6\n      swap2\n      swap5\n      pop\n      swap3\n      pop\n      jump\t// out\n        /* \"#utility.yul\":2587:2914   */\n    tag_12:\n        /* \"#utility.yul\":2645:2651   */\n      0x00\n        /* \"#utility.yul\":2694:2696   */\n      0x20\n        /* \"#utility.yul\":2682:2691   */\n      dup3\n        /* \"#utility.yul\":2673:2680   */\n      dup5\n        /* \"#utility.yul\":2669:2692   */\n      sub\n        /* \"#utility.yul\":2665:2697   */\n      slt\n        /* \"#utility.yul\":2662:2781   */\n      iszero\n      tag_90\n      jumpi\n        /* \"#utility.yul\":2700:2779   */\n      tag_91\n      tag_35\n      jump\t// in\n    tag_91:\n        /* \"#utility.yul\":2662:2781   */\n    tag_90:\n        /* \"#utility.yul\":2820:2821   */\n      0x00\n        /* \"#utility.yul\":2845:2897   */\n      tag_92\n        /* \"#utility.yul\":2889:2896   */\n      dup5\n        /* \"#utility.yul\":2880:2886   */\n      dup3\n        /* \"#utility.yul\":2869:2878   */\n      dup6\n        /* \"#utility.yul\":2865:2887   */\n      add\n        /* \"#utility.yul\":2845:2897   */\n      tag_39\n      jump\t// in\n    tag_92:\n        /* \"#utility.yul\":2835:2897   */\n      swap2\n      pop\n        /* \"#utility.yul\":2791:2907   */\n      pop\n        /* \"#utility.yul\":2587:2914   */\n      swap3\n      swap2\n      pop\n      pop\n      jump\t// out\n        /* \"#utility.yul\":2920:3038   */\n    tag_49:\n        /* \"#utility.yul\":3007:3031   */\n      tag_94\n        /* \"#utility.yul\":3025:3030   */\n      dup2\n        /* \"#utility.yul\":3007:3031   */\n      tag_40\n      jump\t// in\n    tag_94:\n        /* \"#utility.yul\":3002:3005   */\n      dup3\n        /* \"#utility.yul\":2995:3032   */\n      mstore\n        /* \"#utility.yul\":2920:3038   */\n      pop\n      pop\n      jump\t// out\n        /* \"#utility.yul\":3044:3266   */\n    tag_15:\n        /* \"#utility.yul\":3137:3141   */\n      0x00\n        /* \"#utility.yul\":3175:3177   */\n      0x20\n        /* \"#utility.yul\":3164:3173   */\n      dup3\n        /* \"#utility.yul\":3160:3178   */\n      add\n        /* \"#utility.yul\":3152:3178   */\n      swap1\n      pop\n        /* \"#utility.yul\":3188:3259   */\n      tag_96\n        /* \"#utility.yul\":3256:3257   */\n      0x00\n        /* \"#utility.yul\":3245:3254   */\n      dup4\n        /* \"#utility.yul\":3241:3258   */\n      add\n        /* \"#utility.yul\":3232:3238   */\n      dup5\n        /* \"#utility.yul\":3188:3259   */\n      tag_49\n      jump\t// in\n    tag_96:\n        /* \"#utility.yul\":3044:3266   */\n      swap3\n      swap2\n      pop\n      pop\n      jump\t// out\n        /* \"#utility.yul\":3272:3387   */\n    tag_50:\n        /* \"#utility.yul\":3357:3380   */\n      tag_98\n        /* \"#utility.yul\":3374:3379   */\n      dup2\n        /* \"#utility.yul\":3357:3380   */\n      tag_37\n      jump\t// in\n    tag_98:\n        /* \"#utility.yul\":3352:3355   */\n      dup3\n        /* \"#utility.yul\":3345:3381   */\n      mstore\n        /* \"#utility.yul\":3272:3387   */\n      pop\n      pop\n      jump\t// out\n        /* \"#utility.yul\":3393:3505   */\n    tag_51:\n        /* \"#utility.yul\":3476:3498   */\n      tag_100\n        /* \"#utility.yul\":3492:3497   */\n      dup2\n        /* \"#utility.yul\":3476:3498   */\n      tag_43\n      jump\t// in\n    tag_100:\n        /* \"#utility.yul\":3471:3474   */\n      dup3\n        /* \"#utility.yul\":3464:3499   */\n      mstore\n        /* \"#utility.yul\":3393:3505   */\n      pop\n      pop\n      jump\t// out\n        /* \"#utility.yul\":3511:4163   */\n    tag_20:\n        /* \"#utility.yul\":3710:3714   */\n      0x00\n        /* \"#utility.yul\":3748:3751   */\n      0xa0\n        /* \"#utility.yul\":3737:3746   */\n      dup3\n        /* \"#utility.yul\":3733:3752   */\n      add\n        /* \"#utility.yul\":3725:3752   */\n      swap1\n      pop\n        /* \"#utility.yul\":3762:3831   */\n      tag_102\n        /* \"#utility.yul\":3828:3829   */\n      0x00\n        /* \"#utility.yul\":3817:3826   */\n      dup4\n        /* \"#utility.yul\":3813:3830   */\n      add\n        /* \"#utility.yul\":3804:3810   */\n      dup9\n        /* \"#utility.yul\":3762:3831   */\n      tag_50\n      jump\t// in\n    tag_102:\n        /* \"#utility.yul\":3841:3913   */\n      tag_103\n        /* \"#utility.yul\":3909:3911   */\n      0x20\n        /* \"#utility.yul\":3898:3907   */\n      dup4\n        /* \"#utility.yul\":3894:3912   */\n      add\n        /* \"#utility.yul\":3885:3891   */\n      dup8\n        /* \"#utility.yul\":3841:3913   */\n      tag_49\n      jump\t// in\n    tag_103:\n        /* \"#utility.yul\":3923:3991   */\n      tag_104\n        /* \"#utility.yul\":3987:3989   */\n      0x40\n        /* \"#utility.yul\":3976:3985   */\n      dup4\n        /* \"#utility.yul\":3972:3990   */\n      add\n        /* \"#utility.yul\":3963:3969   */\n      dup7\n        /* \"#utility.yul\":3923:3991   */\n      tag_51\n      jump\t// in\n    tag_104:\n        /* \"#utility.yul\":4001:4073   */\n      tag_105\n        /* \"#utility.yul\":4069:4071   */\n      0x60\n        /* \"#utility.yul\":4058:4067   */\n      dup4\n        /* \"#utility.yul\":4054:4072   */\n      add\n        /* \"#utility.yul\":4045:4051   */\n      dup6\n        /* \"#utility.yul\":4001:4073   */\n      tag_49\n      jump\t// in\n    tag_105:\n        /* \"#utility.yul\":4083:4156   */\n      tag_106\n        /* \"#utility.yul\":4151:4154   */\n      0x80\n        /* \"#utility.yul\":4140:4149   */\n      dup4\n        /* \"#utility.yul\":4136:4155   */\n      add\n        /* \"#utility.yul\":4127:4133   */\n      dup5\n        /* \"#utility.yul\":4083:4156   */\n      tag_49\n      jump\t// in\n    tag_106:\n        /* \"#utility.yul\":3511:4163   */\n      swap7\n      swap6\n      pop\n      pop\n      pop\n      pop\n      pop\n      pop\n      jump\t// out\n        /* \"#utility.yul\":4169:4349   */\n    tag_52:\n        /* \"#utility.yul\":4217:4294   */\n      0x4e487b7100000000000000000000000000000000000000000000000000000000\n        /* \"#utility.yul\":4214:4215   */\n      0x00\n        /* \"#utility.yul\":4207:4295   */\n      mstore\n        /* \"#utility.yul\":4314:4318   */\n      0x11\n        /* \"#utility.yul\":4311:4312   */\n      0x04\n        /* \"#utility.yul\":4304:4319   */\n      mstore\n        /* \"#utility.yul\":4338:4342   */\n      0x24\n        /* \"#utility.yul\":4335:4336   */\n      0x00\n        /* \"#utility.yul\":4328:4343   */\n      revert\n        /* \"#utility.yul\":4355:4588   */\n    tag_24:\n        /* \"#utility.yul\":4394:4397   */\n      0x00\n        /* \"#utility.yul\":4417:4441   */\n      tag_109\n        /* \"#utility.yul\":4435:4440   */\n      dup3\n        /* \"#utility.yul\":4417:4441   */\n      tag_40\n      jump\t// in\n    tag_109:\n        /* \"#utility.yul\":4408:4441   */\n      swap2\n      pop\n        /* \"#utility.yul\":4463:4529   */\n      0xffffffffffffffffffffffffffffffffffffffffffffffffffffffffffffffff\n        /* \"#utility.yul\":4456:4461   */\n      dup3\n        /* \"#utility.yul\":4453:4530   */\n      sub\n        /* \"#utility.yul\":4450:4553   */\n      tag_110\n      jumpi\n        /* \"#utility.yul\":4533:4551   */\n      tag_111\n      tag_52\n      jump\t// in\n    tag_111:\n        /* \"#utility.yul\":4450:4553   */\n    tag_110:\n        /* \"#utility.yul\":4580:4581   */\n      0x01\n        /* \"#utility.yul\":4573:4578   */\n      dup3\n        /* \"#utility.yul\":4569:4582   */\n      add\n        /* \"#utility.yul\":4562:4582   */\n      swap1\n      pop\n        /* \"#utility.yul\":4355:4588   */\n      swap2\n      swap1\n      pop\n      jump\t// out\n        /* \"#utility.yul\":4594:5004   */\n    tag_29:\n        /* \"#utility.yul\":4634:4641   */\n      0x00\n        /* \"#utility.yul\":4657:4677   */\n      tag_113\n        /* \"#utility.yul\":4675:4676   */\n      dup3\n        /* \"#utility.yul\":4657:4677   */\n      tag_40\n      jump\t// in\n    tag_113:\n        /* \"#utility.yul\":4652:4677   */\n      swap2\n      pop\n        /* \"#utility.yul\":4691:4711   */\n      tag_114\n        /* \"#utility.yul\":4709:4710   */\n      dup4\n        /* \"#utility.yul\":4691:4711   */\n      tag_40\n      jump\t// in\n    tag_114:\n        /* \"#utility.yul\":4686:4711   */\n      swap3\n      pop\n        /* \"#utility.yul\":4746:4747   */\n      dup3\n        /* \"#utility.yul\":4743:4744   */\n      dup3\n        /* \"#utility.yul\":4739:4748   */\n      mul\n        /* \"#utility.yul\":4768:4798   */\n      tag_115\n        /* \"#utility.yul\":4786:4797   */\n      dup2\n        /* \"#utility.yul\":4768:4798   */\n      tag_40\n      jump\t// in\n    tag_115:\n        /* \"#utility.yul\":4757:4798   */\n      swap2\n      pop\n        /* \"#utility.yul\":4947:4948   */\n      dup3\n        /* \"#utility.yul\":4938:4945   */\n      dup3\n        /* \"#utility.yul\":4934:4949   */\n      div\n        /* \"#utility.yul\":4931:4932   */\n      dup5\n        /* \"#utility.yul\":4928:4950   */\n      eq\n        /* \"#utility.yul\":4908:4909   */\n      dup4\n        /* \"#utility.yul\":4901:4910   */\n      iszero\n        /* \"#utility.yul\":4881:4964   */\n      or\n        /* \"#utility.yul\":4858:4997   */\n      tag_116\n      jumpi\n        /* \"#utility.yul\":4977:4995   */\n      tag_117\n      tag_52\n      jump\t// in\n    tag_117:\n        /* \"#utility.yul\":4858:4997   */\n    tag_116:\n        /* \"#utility.yul\":4642:5004   */\n      pop\n        /* \"#utility.yul\":4594:5004   */\n      swap3\n      swap2\n      pop\n      pop\n      jump\t// out\n        /* \"#utility.yul\":5010:5190   */\n    tag_53:\n        /* \"#utility.yul\":5058:5135   */\n      0x4e487b7100000000000000000000000000000000000000000000000000000000\n        /* \"#utility.yul\":5055:5056   */\n      0x00\n        /* \"#utility.yul\":5048:5136   */\n      mstore\n        /* \"#utility.yul\":5155:5159   */\n      0x12\n        /* \"#utility.yul\":5152:5153   */\n      0x04\n        /* \"#utility.yul\":5145:5160   */\n      mstore\n        /* \"#utility.yul\":5179:5183   */\n      0x24\n        /* \"#utility.yul\":5176:5177   */\n      0x00\n        /* \"#utility.yul\":5169:5184   */\n      revert\n        /* \"#utility.yul\":5196:5381   */\n    tag_33:\n        /* \"#utility.yul\":5236:5237   */\n      0x00\n        /* \"#utility.yul\":5253:5273   */\n      tag_120\n        /* \"#utility.yul\":5271:5272   */\n      dup3\n        /* \"#utility.yul\":5253:5273   */\n      tag_40\n      jump\t// in\n    tag_120:\n        /* \"#utility.yul\":5248:5273   */\n      swap2\n      pop\n        /* \"#utility.yul\":5287:5307   */\n      tag_121\n        /* \"#utility.yul\":5305:5306   */\n      dup4\n        /* \"#utility.yul\":5287:5307   */\n      tag_40\n      jump\t// in\n    tag_121:\n        /* \"#utility.yul\":5282:5307   */\n      swap3\n      pop\n        /* \"#utility.yul\":5326:5327   */\n      dup3\n        /* \"#utility.yul\":5316:5351   */\n      tag_122\n      jumpi\n        /* \"#utility.yul\":5331:5349   */\n      tag_123\n      tag_53\n      jump\t// in\n    tag_123:\n        /* \"#utility.yul\":5316:5351   */\n    tag_122:\n        /* \"#utility.yul\":5373:5374   */\n      dup3\n        /* \"#utility.yul\":5370:5371   */\n      dup3\n        /* \"#utility.yul\":5366:5375   */\n      div\n        /* \"#utility.yul\":5361:5375   */\n      swap1\n      pop\n        /* \"#utility.yul\":5196:5381   */\n      swap3\n      swap2\n      pop\n      pop\n      jump\t// out\n\n    auxdata: 0xa2646970667358221220dc8e766ec3277b62e382a1f684da36a293e15d6cc7e73890f04ffeb9cc7a5c8964736f6c634300081a0033\n}\n",
				"bytecode": {
					"linkReferences": {},
					"object": "6080604052348015600e575f80fd5b5061068a8061001c5f395ff3fe608060405234801561000f575f80fd5b506004361061003f575f3560e01c80636ea86bd7146100435780639efc2f381461005f578063e05f48d11461008f575b5f80fd5b61005d6004803603810190610058919061041c565b6100c3565b005b61007960048036038101906100749190610480565b610186565b60405161008691906104ba565b60405180910390f35b6100a960048036038101906100a49190610480565b6102dc565b6040516100ba9594939291906104f1565b60405180910390f35b5f805f867bffffffffffffffffffffffffffffffffffffffffffffffffffffffff19167bffffffffffffffffffffffffffffffffffffffffffffffffffffffff191681526020019081526020015f20905084815f015f6101000a81548163ffffffff021916908360e01c021790555083816001018190555082816002015f6101000a81548160ff021916908360ff1602179055508161017657806003015f8154809291906101709061056f565b91905055505b4381600401819055505050505050565b5f805f80847bffffffffffffffffffffffffffffffffffffffffffffffffffffffff19167bffffffffffffffffffffffffffffffffffffffffffffffffffffffff191681526020019081526020015f206040518060a00160405290815f82015f9054906101000a900460e01b7bffffffffffffffffffffffffffffffffffffffffffffffffffffffff19167bffffffffffffffffffffffffffffffffffffffffffffffffffffffff1916815260200160018201548152602001600282015f9054906101000a900460ff1660ff1660ff1681526020016003820154815260200160048201548152505090505f816040015160ff16148061028857505f8160200151145b15610296575f9150506102d7565b5f8160200151826040015160ff166102ae91906105b6565b90505f8260600151116102c157806102d2565b8160600151816102d19190610624565b5b925050505b919050565b5f602052805f5260405f205f91509050805f015f9054906101000a900460e01b90806001015490806002015f9054906101000a900460ff16908060030154908060040154905085565b5f80fd5b5f7fffffffff0000000000000000000000000000000000000000000000000000000082169050919050565b61035d81610329565b8114610367575f80fd5b50565b5f8135905061037881610354565b92915050565b5f819050919050565b6103908161037e565b811461039a575f80fd5b50565b5f813590506103ab81610387565b92915050565b5f60ff82169050919050565b6103c6816103b1565b81146103d0575f80fd5b50565b5f813590506103e1816103bd565b92915050565b5f8115159050919050565b6103fb816103e7565b8114610405575f80fd5b50565b5f81359050610416816103f2565b92915050565b5f805f806080858703121561043457610433610325565b5b5f6104418782880161036a565b94505060206104528782880161039d565b9350506040610463878288016103d3565b925050606061047487828801610408565b91505092959194509250565b5f6020828403121561049557610494610325565b5b5f6104a28482850161036a565b91505092915050565b6104b48161037e565b82525050565b5f6020820190506104cd5f8301846104ab565b92915050565b6104dc81610329565b82525050565b6104eb816103b1565b82525050565b5f60a0820190506105045f8301886104d3565b61051160208301876104ab565b61051e60408301866104e2565b61052b60608301856104ab565b61053860808301846104ab565b9695505050505050565b7f4e487b71000000000000000000000000000000000000000000000000000000005f52601160045260245ffd5b5f6105798261037e565b91507fffffffffffffffffffffffffffffffffffffffffffffffffffffffffffffffff82036105ab576105aa610542565b5b600182019050919050565b5f6105c08261037e565b91506105cb8361037e565b92508282026105d98161037e565b915082820484148315176105f0576105ef610542565b5b5092915050565b7f4e487b71000000000000000000000000000000000000000000000000000000005f52601260045260245ffd5b5f61062e8261037e565b91506106398361037e565b925082610649576106486105f7565b5b82820490509291505056fea2646970667358221220dc8e766ec3277b62e382a1f684da36a293e15d6cc7e73890f04ffeb9cc7a5c8964736f6c634300081a0033",
					"opcodes": "PUSH1 0x80 PUSH1 0x40 MSTORE CALLVALUE DUP1 ISZERO PUSH1 0xE JUMPI PUSH0 DUP1 REVERT JUMPDEST POP PUSH2 0x68A DUP1 PUSH2 0x1C PUSH0 CODECOPY PUSH0 RETURN INVALID PUSH1 0x80 PUSH1 0x40 MSTORE CALLVALUE DUP1 ISZERO PUSH2 0xF JUMPI PUSH0 DUP1 REVERT JUMPDEST POP PUSH1 0x4 CALLDATASIZE LT PUSH2 0x3F JUMPI PUSH0 CALLDATALOAD PUSH1 0xE0 SHR DUP1 PUSH4 0x6EA86BD7 EQ PUSH2 0x43 JUMPI DUP1 PUSH4 0x9EFC2F38 EQ PUSH2 0x5F JUMPI DUP1 PUSH4 0xE05F48D1 EQ PUSH2 0x8F JUMPI JUMPDEST PUSH0 DUP1 REVERT JUMPDEST PUSH2 0x5D PUSH1 0x4 DUP1 CALLDATASIZE SUB DUP2 ADD SWAP1 PUSH2 0x58 SWAP2 SWAP1 PUSH2 0x41C JUMP JUMPDEST PUSH2 0xC3 JUMP JUMPDEST STOP JUMPDEST PUSH2 0x79 PUSH1 0x4 DUP1 CALLDATASIZE SUB DUP2 ADD SWAP1 PUSH2 0x74 SWAP2 SWAP1 PUSH2 0x480 JUMP JUMPDEST PUSH2 0x186 JUMP JUMPDEST PUSH1 0x40 MLOAD PUSH2 0x86 SWAP2 SWAP1 PUSH2 0x4BA JUMP JUMPDEST PUSH1 0x40 MLOAD DUP1 SWAP2 SUB SWAP1 RETURN JUMPDEST PUSH2 0xA9 PUSH1 0x4 DUP1 CALLDATASIZE SUB DUP2 ADD SWAP1 PUSH2 0xA4 SWAP2 SWAP1 PUSH2 0x480 JUMP JUMPDEST PUSH2 0x2DC JUMP JUMPDEST PUSH1 0x40 MLOAD PUSH2 0xBA SWAP6 SWAP5 SWAP4 SWAP3 SWAP2 SWAP1 PUSH2 0x4F1 JUMP JUMPDEST PUSH1 0x40 MLOAD DUP1 SWAP2 SUB SWAP1 RETURN JUMPDEST PUSH0 DUP1 PUSH0 DUP7 PUSH28 0xFFFFFFFFFFFFFFFFFFFFFFFFFFFFFFFFFFFFFFFFFFFFFFFFFFFFFFFF NOT AND PUSH28 0xFFFFFFFFFFFFFFFFFFFFFFFFFFFFFFFFFFFFFFFFFFFFFFFFFFFFFFFF NOT AND DUP2 MSTORE PUSH1 0x20 ADD SWAP1 DUP2 MSTORE PUSH1 0x20 ADD PUSH0 KECCAK256 SWAP1 POP DUP5 DUP2 PUSH0 ADD PUSH0 PUSH2 0x100 EXP DUP2 SLOAD DUP2 PUSH4 0xFFFFFFFF MUL NOT AND SWAP1 DUP4 PUSH1 0xE0 SHR MUL OR SWAP1 SSTORE POP DUP4 DUP2 PUSH1 0x1 ADD DUP2 SWAP1 SSTORE POP DUP3 DUP2 PUSH1 0x2 ADD PUSH0 PUSH2 0x100 EXP DUP2 SLOAD DUP2 PUSH1 0xFF MUL NOT AND SWAP1 DUP4 PUSH1 0xFF AND MUL OR SWAP1 SSTORE POP DUP2 PUSH2 0x176 JUMPI DUP1 PUSH1 0x3 ADD PUSH0 DUP2 SLOAD DUP1 SWAP3 SWAP2 SWAP1 PUSH2 0x170 SWAP1 PUSH2 0x56F JUMP JUMPDEST SWAP2 SWAP1 POP SSTORE POP JUMPDEST NUMBER DUP2 PUSH1 0x4 ADD DUP2 SWAP1 SSTORE POP POP POP POP POP POP JUMP JUMPDEST PUSH0 DUP1 PUSH0 DUP1 DUP5 PUSH28 0xFFFFFFFFFFFFFFFFFFFFFFFFFFFFFFFFFFFFFFFFFFFFFFFFFFFFFFFF NOT AND PUSH28 0xFFFFFFFFFFFFFFFFFFFFFFFFFFFFFFFFFFFFFFFFFFFFFFFFFFFFFFFF NOT AND DUP2 MSTORE PUSH1 0x20 ADD SWAP1 DUP2 MSTORE PUSH1 0x20 ADD PUSH0 KECCAK256 PUSH1 0x40 MLOAD DUP1 PUSH1 0xA0 ADD PUSH1 0x40 MSTORE SWAP1 DUP2 PUSH0 DUP3 ADD PUSH0 SWAP1 SLOAD SWAP1 PUSH2 0x100 EXP SWAP1 DIV PUSH1 0xE0 SHL PUSH28 0xFFFFFFFFFFFFFFFFFFFFFFFFFFFFFFFFFFFFFFFFFFFFFFFFFFFFFFFF NOT AND PUSH28 0xFFFFFFFFFFFFFFFFFFFFFFFFFFFFFFFFFFFFFFFFFFFFFFFFFFFFFFFF NOT AND DUP2 MSTORE PUSH1 0x20 ADD PUSH1 0x1 DUP3 ADD SLOAD DUP2 MSTORE PUSH1 0x20 ADD PUSH1 0x2 DUP3 ADD PUSH0 SWAP1 SLOAD SWAP1 PUSH2 0x100 EXP SWAP1 DIV PUSH1 0xFF AND PUSH1 0xFF AND PUSH1 0xFF AND DUP2 MSTORE PUSH1 0x20 ADD PUSH1 0x3 DUP3 ADD SLOAD DUP2 MSTORE PUSH1 0x20 ADD PUSH1 0x4 DUP3 ADD SLOAD DUP2 MSTORE POP POP SWAP1 POP PUSH0 DUP2 PUSH1 0x40 ADD MLOAD PUSH1 0xFF AND EQ DUP1 PUSH2 0x288 JUMPI POP PUSH0 DUP2 PUSH1 0x20 ADD MLOAD EQ JUMPDEST ISZERO PUSH2 0x296 JUMPI PUSH0 SWAP2 POP POP PUSH2 0x2D7 JUMP JUMPDEST PUSH0 DUP2 PUSH1 0x20 ADD MLOAD DUP3 PUSH1 0x40 ADD MLOAD PUSH1 0xFF AND PUSH2 0x2AE SWAP2 SWAP1 PUSH2 0x5B6 JUMP JUMPDEST SWAP1 POP PUSH0 DUP3 PUSH1 0x60 ADD MLOAD GT PUSH2 0x2C1 JUMPI DUP1 PUSH2 0x2D2 JUMP JUMPDEST DUP2 PUSH1 0x60 ADD MLOAD DUP2 PUSH2 0x2D1 SWAP2 SWAP1 PUSH2 0x624 JUMP JUMPDEST JUMPDEST SWAP3 POP POP POP JUMPDEST SWAP2 SWAP1 POP JUMP JUMPDEST PUSH0 PUSH1 0x20 MSTORE DUP1 PUSH0 MSTORE PUSH1 0x40 PUSH0 KECCAK256 PUSH0 SWAP2 POP SWAP1 POP DUP1 PUSH0 ADD PUSH0 SWAP1 SLOAD SWAP1 PUSH2 0x100 EXP SWAP1 DIV PUSH1 0xE0 SHL SWAP1 DUP1 PUSH1 0x1 ADD SLOAD SWAP1 DUP1 PUSH1 0x2 ADD PUSH0 SWAP1 SLOAD SWAP1 PUSH2 0x100 EXP SWAP1 DIV PUSH1 0xFF AND SWAP1 DUP1 PUSH1 0x3 ADD SLOAD SWAP1 DUP1 PUSH1 0x4 ADD SLOAD SWAP1 POP DUP6 JUMP JUMPDEST PUSH0 DUP1 REVERT JUMPDEST PUSH0 PUSH32 0xFFFFFFFF00000000000000000000000000000000000000000000000000000000 DUP3 AND SWAP1 POP SWAP2 SWAP1 POP JUMP JUMPDEST PUSH2 0x35D DUP2 PUSH2 0x329 JUMP JUMPDEST DUP2 EQ PUSH2 0x367 JUMPI PUSH0 DUP1 REVERT JUMPDEST POP JUMP JUMPDEST PUSH0 DUP2 CALLDATALOAD SWAP1 POP PUSH2 0x378 DUP2 PUSH2 0x354 JUMP JUMPDEST SWAP3 SWAP2 POP POP JUMP JUMPDEST PUSH0 DUP2 SWAP1 POP SWAP2 SWAP1 POP JUMP JUMPDEST PUSH2 0x390 DUP2 PUSH2 0x37E JUMP JUMPDEST DUP2 EQ PUSH2 0x39A JUMPI PUSH0 DUP1 REVERT JUMPDEST POP JUMP JUMPDEST PUSH0 DUP2 CALLDATALOAD SWAP1 POP PUSH2 0x3AB DUP2 PUSH2 0x387 JUMP JUMPDEST SWAP3 SWAP2 POP POP JUMP JUMPDEST PUSH0 PUSH1 0xFF DUP3 AND SWAP1 POP SWAP2 SWAP1 POP JUMP JUMPDEST PUSH2 0x3C6 DUP2 PUSH2 0x3B1 JUMP JUMPDEST DUP2 EQ PUSH2 0x3D0 JUMPI PUSH0 DUP1 REVERT JUMPDEST POP JUMP JUMPDEST PUSH0 DUP2 CALLDATALOAD SWAP1 POP PUSH2 0x3E1 DUP2 PUSH2 0x3BD JUMP JUMPDEST SWAP3 SWAP2 POP POP JUMP JUMPDEST PUSH0 DUP2 ISZERO ISZERO SWAP1 POP SWAP2 SWAP1 POP JUMP JUMPDEST PUSH2 0x3FB DUP2 PUSH2 0x3E7 JUMP JUMPDEST DUP2 EQ PUSH2 0x405 JUMPI PUSH0 DUP1 REVERT JUMPDEST POP JUMP JUMPDEST PUSH0 DUP2 CALLDATALOAD SWAP1 POP PUSH2 0x416 DUP2 PUSH2 0x3F2 JUMP JUMPDEST SWAP3 SWAP2 POP POP JUMP JUMPDEST PUSH0 DUP1 PUSH0 DUP1 PUSH1 0x80 DUP6 DUP8 SUB SLT ISZERO PUSH2 0x434 JUMPI PUSH2 0x433 PUSH2 0x325 JUMP JUMPDEST JUMPDEST PUSH0 PUSH2 0x441 DUP8 DUP3 DUP9 ADD PUSH2 0x36A JUMP JUMPDEST SWAP5 POP POP PUSH1 0x20 PUSH2 0x452 DUP8 DUP3 DUP9 ADD PUSH2 0x39D JUMP JUMPDEST SWAP4 POP POP PUSH1 0x40 PUSH2 0x463 DUP8 DUP3 DUP9 ADD PUSH2 0x3D3 JUMP JUMPDEST SWAP3 POP POP PUSH1 0x60 PUSH2 0x474 DUP8 DUP3 DUP9 ADD PUSH2 0x408 JUMP JUMPDEST SWAP2 POP POP SWAP3 SWAP6 SWAP2 SWAP5 POP SWAP3 POP JUMP JUMPDEST PUSH0 PUSH1 0x20 DUP3 DUP5 SUB SLT ISZERO PUSH2 0x495 JUMPI PUSH2 0x494 PUSH2 0x325 JUMP JUMPDEST JUMPDEST PUSH0 PUSH2 0x4A2 DUP5 DUP3 DUP6 ADD PUSH2 0x36A JUMP JUMPDEST SWAP2 POP POP SWAP3 SWAP2 POP POP JUMP JUMPDEST PUSH2 0x4B4 DUP2 PUSH2 0x37E JUMP JUMPDEST DUP3 MSTORE POP POP JUMP JUMPDEST PUSH0 PUSH1 0x20 DUP3 ADD SWAP1 POP PUSH2 0x4CD PUSH0 DUP4 ADD DUP5 PUSH2 0x4AB JUMP JUMPDEST SWAP3 SWAP2 POP POP JUMP JUMPDEST PUSH2 0x4DC DUP2 PUSH2 0x329 JUMP JUMPDEST DUP3 MSTORE POP POP JUMP JUMPDEST PUSH2 0x4EB DUP2 PUSH2 0x3B1 JUMP JUMPDEST DUP3 MSTORE POP POP JUMP JUMPDEST PUSH0 PUSH1 0xA0 DUP3 ADD SWAP1 POP PUSH2 0x504 PUSH0 DUP4 ADD DUP9 PUSH2 0x4D3 JUMP JUMPDEST PUSH2 0x511 PUSH1 0x20 DUP4 ADD DUP8 PUSH2 0x4AB JUMP JUMPDEST PUSH2 0x51E PUSH1 0x40 DUP4 ADD DUP7 PUSH2 0x4E2 JUMP JUMPDEST PUSH2 0x52B PUSH1 0x60 DUP4 ADD DUP6 PUSH2 0x4AB JUMP JUMPDEST PUSH2 0x538 PUSH1 0x80 DUP4 ADD DUP5 PUSH2 0x4AB JUMP JUMPDEST SWAP7 SWAP6 POP POP POP POP POP POP JUMP JUMPDEST PUSH32 0x4E487B7100000000000000000000000000000000000000000000000000000000 PUSH0 MSTORE PUSH1 0x11 PUSH1 0x4 MSTORE PUSH1 0x24 PUSH0 REVERT JUMPDEST PUSH0 PUSH2 0x579 DUP3 PUSH2 0x37E JUMP JUMPDEST SWAP2 POP PUSH32 0xFFFFFFFFFFFFFFFFFFFFFFFFFFFFFFFFFFFFFFFFFFFFFFFFFFFFFFFFFFFFFFFF DUP3 SUB PUSH2 0x5AB JUMPI PUSH2 0x5AA PUSH2 0x542 JUMP JUMPDEST JUMPDEST PUSH1 0x1 DUP3 ADD SWAP1 POP SWAP2 SWAP1 POP JUMP JUMPDEST PUSH0 PUSH2 0x5C0 DUP3 PUSH2 0x37E JUMP JUMPDEST SWAP2 POP PUSH2 0x5CB DUP4 PUSH2 0x37E JUMP JUMPDEST SWAP3 POP DUP3 DUP3 MUL PUSH2 0x5D9 DUP2 PUSH2 0x37E JUMP JUMPDEST SWAP2 POP DUP3 DUP3 DIV DUP5 EQ DUP4 ISZERO OR PUSH2 0x5F0 JUMPI PUSH2 0x5EF PUSH2 0x542 JUMP JUMPDEST JUMPDEST POP SWAP3 SWAP2 POP POP JUMP JUMPDEST PUSH32 0x4E487B7100000000000000000000000000000000000000000000000000000000 PUSH0 MSTORE PUSH1 0x12 PUSH1 0x4 MSTORE PUSH1 0x24 PUSH0 REVERT JUMPDEST PUSH0 PUSH2 0x62E DUP3 PUSH2 0x37E JUMP JUMPDEST SWAP2 POP PUSH2 0x639 DUP4 PUSH2 0x37E JUMP JUMPDEST SWAP3 POP DUP3 PUSH2 0x649 JUMPI PUSH2 0x648 PUSH2 0x5F7 JUMP JUMPDEST JUMPDEST DUP3 DUP3 DIV SWAP1 POP SWAP3 SWAP2 POP POP JUMP INVALID LOG2 PUSH5 0x6970667358 0x22 SLT KECCAK256 0xDC DUP15 PUSH23 0x6EC3277B62E382A1F684DA36A293E15D6CC7E73890F04F INVALID 0xB9 0xCC PUSH27 0x5C8964736F6C634300081A00330000000000000000000000000000 "
				},
				"gasEstimates": {
					"creation": {
						"codeDepositCost": "334800",
						"executionCost": "372",
						"totalCost": "335172"
					},
					"external": {
						"log(bytes4)": "infinite",
						"logAttack(bytes4,uint256,uint8,bool)": "infinite",
						"score(bytes4)": "infinite"
					}
				},
				"methodIdentifiers": {
					"log(bytes4)": "e05f48d1",
					"logAttack(bytes4,uint256,uint8,bool)": "6ea86bd7",
					"score(bytes4)": "9efc2f38"
				}
			},
			"storageLayout": {
				"storage": [
					{
						"astId": 17,
						"contract": "R/Resource Exhaustion/AIScorer.sol:AIScorer",
						"label": "log",
						"offset": 0,
						"slot": "0",
						"type": "t_mapping(t_bytes4,t_struct(Attack)12_storage)"
					}
				],
				"types": {
					"t_bytes4": {
						"encoding": "inplace",
						"label": "bytes4",
						"numberOfBytes": "4"
					},
					"t_mapping(t_bytes4,t_struct(Attack)12_storage)": {
						"encoding": "mapping",
						"key": "t_bytes4",
						"label": "mapping(bytes4 => struct AIScorer.Attack)",
						"numberOfBytes": "32",
						"value": "t_struct(Attack)12_storage"
					},
					"t_struct(Attack)12_storage": {
						"encoding": "inplace",
						"label": "struct AIScorer.Attack",
						"members": [
							{
								"astId": 3,
								"contract": "R/Resource Exhaustion/AIScorer.sol:AIScorer",
								"label": "selector",
								"offset": 0,
								"slot": "0",
								"type": "t_bytes4"
							},
							{
								"astId": 5,
								"contract": "R/Resource Exhaustion/AIScorer.sol:AIScorer",
								"label": "gasUsed",
								"offset": 0,
								"slot": "1",
								"type": "t_uint256"
							},
							{
								"astId": 7,
								"contract": "R/Resource Exhaustion/AIScorer.sol:AIScorer",
								"label": "entropy",
								"offset": 0,
								"slot": "2",
								"type": "t_uint8"
							},
							{
								"astId": 9,
								"contract": "R/Resource Exhaustion/AIScorer.sol:AIScorer",
								"label": "fails",
								"offset": 0,
								"slot": "3",
								"type": "t_uint256"
							},
							{
								"astId": 11,
								"contract": "R/Resource Exhaustion/AIScorer.sol:AIScorer",
								"label": "blockLogged",
								"offset": 0,
								"slot": "4",
								"type": "t_uint256"
							}
						],
						"numberOfBytes": "160"
					},
					"t_uint256": {
						"encoding": "inplace",
						"label": "uint256",
						"numberOfBytes": "32"
					},
					"t_uint8": {
						"encoding": "inplace",
						"label": "uint8",
						"numberOfBytes": "1"
					}
				}
			},
			"userdoc": {
				"kind": "user",
				"methods": {},
				"version": 1
			}
		}
	}
}