{
	"R/Reverse Address Resolution Protocol (RARP)/RARPBytecodeResolver.sol": {
		"RARPBytecodeResolver": {
			"abi": [
				{
					"inputs": [
						{
							"internalType": "address",
							"name": "logic",
							"type": "address"
						},
						{
							"internalType": "string",
							"name": "version",
							"type": "string"
						}
					],
					"name": "registerVersion",
					"outputs": [],
					"stateMutability": "nonpayable",
					"type": "function"
				},
				{
					"inputs": [
						{
							"internalType": "address",
							"name": "logic",
							"type": "address"
						}
					],
					"name": "resolve",
					"outputs": [
						{
							"internalType": "string",
							"name": "",
							"type": "string"
						}
					],
					"stateMutability": "view",
					"type": "function"
				},
				{
					"inputs": [
						{
							"internalType": "bytes32",
							"name": "",
							"type": "bytes32"
						}
					],
					"name": "versionLabel",
					"outputs": [
						{
							"internalType": "string",
							"name": "",
							"type": "string"
						}
					],
					"stateMutability": "view",
					"type": "function"
				}
			],
			"devdoc": {
				"kind": "dev",
				"methods": {},
				"version": 1
			},
			"evm": {
				"assembly": "    /* \"R/Reverse Address Resolution Protocol (RARP)/RARPBytecodeResolver.sol\":0:391  contract RARPBytecodeResolver {... */\n  mstore(0x40, 0x80)\n  callvalue\n  dup1\n  iszero\n  tag_1\n  jumpi\n  0x00\n  dup1\n  revert\ntag_1:\n  pop\n  dataSize(sub_0)\n  dup1\n  dataOffset(sub_0)\n  0x00\n  codecopy\n  0x00\n  return\nstop\n\nsub_0: assembly {\n        /* \"R/Reverse Address Resolution Protocol (RARP)/RARPBytecodeResolver.sol\":0:391  contract RARPBytecodeResolver {... */\n      mstore(0x40, 0x80)\n      callvalue\n      dup1\n      iszero\n      tag_1\n      jumpi\n      0x00\n      dup1\n      revert\n    tag_1:\n      pop\n      jumpi(tag_2, lt(calldatasize, 0x04))\n      shr(0xe0, calldataload(0x00))\n      dup1\n      0x4f78c857\n      eq\n      tag_3\n      jumpi\n      dup1\n      0x55ea6c47\n      eq\n      tag_4\n      jumpi\n      dup1\n      0xc809de53\n      eq\n      tag_5\n      jumpi\n    tag_2:\n      0x00\n      dup1\n      revert\n        /* \"R/Reverse Address Resolution Protocol (RARP)/RARPBytecodeResolver.sol\":89:254  function registerVersion(address logic, string calldata version) external {... */\n    tag_3:\n      tag_6\n      0x04\n      dup1\n      calldatasize\n      sub\n      dup2\n      add\n      swap1\n      tag_7\n      swap2\n      swap1\n      tag_8\n      jump\t// in\n    tag_7:\n      tag_9\n      jump\t// in\n    tag_6:\n      stop\n        /* \"R/Reverse Address Resolution Protocol (RARP)/RARPBytecodeResolver.sol\":260:389  function resolve(address logic) external view returns (string memory) {... */\n    tag_4:\n      tag_10\n      0x04\n      dup1\n      calldatasize\n      sub\n      dup2\n      add\n      swap1\n      tag_11\n      swap2\n      swap1\n      tag_12\n      jump\t// in\n    tag_11:\n      tag_13\n      jump\t// in\n    tag_10:\n      mload(0x40)\n      tag_14\n      swap2\n      swap1\n      tag_15\n      jump\t// in\n    tag_14:\n      mload(0x40)\n      dup1\n      swap2\n      sub\n      swap1\n      return\n        /* \"R/Reverse Address Resolution Protocol (RARP)/RARPBytecodeResolver.sol\":36:82  mapping(bytes32 => string) public versionLabel */\n    tag_5:\n      tag_16\n      0x04\n      dup1\n      calldatasize\n      sub\n      dup2\n      add\n      swap1\n      tag_17\n      swap2\n      swap1\n      tag_18\n      jump\t// in\n    tag_17:\n      tag_19\n      jump\t// in\n    tag_16:\n      mload(0x40)\n      tag_20\n      swap2\n      swap1\n      tag_15\n      jump\t// in\n    tag_20:\n      mload(0x40)\n      dup1\n      swap2\n      sub\n      swap1\n      return\n        /* \"R/Reverse Address Resolution Protocol (RARP)/RARPBytecodeResolver.sol\":89:254  function registerVersion(address logic, string calldata version) external {... */\n    tag_9:\n        /* \"R/Reverse Address Resolution Protocol (RARP)/RARPBytecodeResolver.sol\":173:185  bytes32 hash */\n      0x00\n        /* \"R/Reverse Address Resolution Protocol (RARP)/RARPBytecodeResolver.sol\":198:203  logic */\n      dup4\n        /* \"R/Reverse Address Resolution Protocol (RARP)/RARPBytecodeResolver.sol\":198:208  logic.code */\n      0xffffffffffffffffffffffffffffffffffffffff\n      and\n      dup1\n      extcodesize\n      dup1\n      0x20\n      add\n      mload(0x40)\n      swap1\n      dup2\n      add\n      0x40\n      mstore\n      dup2\n      dup2\n      mstore\n      0x00\n      swap1\n      dup1\n      0x20\n      add\n      swap1\n      swap4\n      extcodecopy\n        /* \"R/Reverse Address Resolution Protocol (RARP)/RARPBytecodeResolver.sol\":188:209  keccak256(logic.code) */\n      dup1\n      mload\n      swap1\n      0x20\n      add\n      keccak256\n        /* \"R/Reverse Address Resolution Protocol (RARP)/RARPBytecodeResolver.sol\":173:209  bytes32 hash = keccak256(logic.code) */\n      swap1\n      pop\n        /* \"R/Reverse Address Resolution Protocol (RARP)/RARPBytecodeResolver.sol\":240:247  version */\n      dup3\n      dup3\n        /* \"R/Reverse Address Resolution Protocol (RARP)/RARPBytecodeResolver.sol\":219:231  versionLabel */\n      0x00\n        /* \"R/Reverse Address Resolution Protocol (RARP)/RARPBytecodeResolver.sol\":219:237  versionLabel[hash] */\n      dup1\n        /* \"R/Reverse Address Resolution Protocol (RARP)/RARPBytecodeResolver.sol\":232:236  hash */\n      dup5\n        /* \"R/Reverse Address Resolution Protocol (RARP)/RARPBytecodeResolver.sol\":219:237  versionLabel[hash] */\n      dup2\n      mstore\n      0x20\n      add\n      swap1\n      dup2\n      mstore\n      0x20\n      add\n      0x00\n      keccak256\n        /* \"R/Reverse Address Resolution Protocol (RARP)/RARPBytecodeResolver.sol\":219:247  versionLabel[hash] = version */\n      swap2\n      dup3\n      tag_22\n      swap3\n      swap2\n      swap1\n      tag_23\n      jump\t// in\n    tag_22:\n      pop\n        /* \"R/Reverse Address Resolution Protocol (RARP)/RARPBytecodeResolver.sol\":163:254  {... */\n      pop\n        /* \"R/Reverse Address Resolution Protocol (RARP)/RARPBytecodeResolver.sol\":89:254  function registerVersion(address logic, string calldata version) external {... */\n      pop\n      pop\n      pop\n      jump\t// out\n        /* \"R/Reverse Address Resolution Protocol (RARP)/RARPBytecodeResolver.sol\":260:389  function resolve(address logic) external view returns (string memory) {... */\n    tag_13:\n        /* \"R/Reverse Address Resolution Protocol (RARP)/RARPBytecodeResolver.sol\":315:328  string memory */\n      0x60\n        /* \"R/Reverse Address Resolution Protocol (RARP)/RARPBytecodeResolver.sol\":347:359  versionLabel */\n      0x00\n        /* \"R/Reverse Address Resolution Protocol (RARP)/RARPBytecodeResolver.sol\":347:382  versionLabel[keccak256(logic.code)] */\n      dup1\n        /* \"R/Reverse Address Resolution Protocol (RARP)/RARPBytecodeResolver.sol\":370:375  logic */\n      dup4\n        /* \"R/Reverse Address Resolution Protocol (RARP)/RARPBytecodeResolver.sol\":370:380  logic.code */\n      0xffffffffffffffffffffffffffffffffffffffff\n      and\n      dup1\n      extcodesize\n      dup1\n      0x20\n      add\n      mload(0x40)\n      swap1\n      dup2\n      add\n      0x40\n      mstore\n      dup2\n      dup2\n      mstore\n      0x00\n      swap1\n      dup1\n      0x20\n      add\n      swap1\n      swap4\n      extcodecopy\n        /* \"R/Reverse Address Resolution Protocol (RARP)/RARPBytecodeResolver.sol\":360:381  keccak256(logic.code) */\n      dup1\n      mload\n      swap1\n      0x20\n      add\n      keccak256\n        /* \"R/Reverse Address Resolution Protocol (RARP)/RARPBytecodeResolver.sol\":347:382  versionLabel[keccak256(logic.code)] */\n      dup2\n      mstore\n      0x20\n      add\n      swap1\n      dup2\n      mstore\n      0x20\n      add\n      0x00\n      keccak256\n        /* \"R/Reverse Address Resolution Protocol (RARP)/RARPBytecodeResolver.sol\":340:382  return versionLabel[keccak256(logic.code)] */\n      dup1\n      sload\n      tag_25\n      swap1\n      tag_26\n      jump\t// in\n    tag_25:\n      dup1\n      0x1f\n      add\n      0x20\n      dup1\n      swap2\n      div\n      mul\n      0x20\n      add\n      mload(0x40)\n      swap1\n      dup2\n      add\n      0x40\n      mstore\n      dup1\n      swap3\n      swap2\n      swap1\n      dup2\n      dup2\n      mstore\n      0x20\n      add\n      dup3\n      dup1\n      sload\n      tag_27\n      swap1\n      tag_26\n      jump\t// in\n    tag_27:\n      dup1\n      iszero\n      tag_28\n      jumpi\n      dup1\n      0x1f\n      lt\n      tag_29\n      jumpi\n      0x0100\n      dup1\n      dup4\n      sload\n      div\n      mul\n      dup4\n      mstore\n      swap2\n      0x20\n      add\n      swap2\n      jump(tag_28)\n    tag_29:\n      dup3\n      add\n      swap2\n      swap1\n      0x00\n      mstore\n      keccak256(0x00, 0x20)\n      swap1\n    tag_30:\n      dup2\n      sload\n      dup2\n      mstore\n      swap1\n      0x01\n      add\n      swap1\n      0x20\n      add\n      dup1\n      dup4\n      gt\n      tag_30\n      jumpi\n      dup3\n      swap1\n      sub\n      0x1f\n      and\n      dup3\n      add\n      swap2\n    tag_28:\n      pop\n      pop\n      pop\n      pop\n      pop\n      swap1\n      pop\n        /* \"R/Reverse Address Resolution Protocol (RARP)/RARPBytecodeResolver.sol\":260:389  function resolve(address logic) external view returns (string memory) {... */\n      swap2\n      swap1\n      pop\n      jump\t// out\n        /* \"R/Reverse Address Resolution Protocol (RARP)/RARPBytecodeResolver.sol\":36:82  mapping(bytes32 => string) public versionLabel */\n    tag_19:\n      mstore(0x20, 0x00)\n      dup1\n      0x00\n      mstore\n      keccak256(0x00, 0x40)\n      0x00\n      swap2\n      pop\n      swap1\n      pop\n      dup1\n      sload\n      tag_31\n      swap1\n      tag_26\n      jump\t// in\n    tag_31:\n      dup1\n      0x1f\n      add\n      0x20\n      dup1\n      swap2\n      div\n      mul\n      0x20\n      add\n      mload(0x40)\n      swap1\n      dup2\n      add\n      0x40\n      mstore\n      dup1\n      swap3\n      swap2\n      swap1\n      dup2\n      dup2\n      mstore\n      0x20\n      add\n      dup3\n      dup1\n      sload\n      tag_32\n      swap1\n      tag_26\n      jump\t// in\n    tag_32:\n      dup1\n      iszero\n      tag_33\n      jumpi\n      dup1\n      0x1f\n      lt\n      tag_34\n      jumpi\n      0x0100\n      dup1\n      dup4\n      sload\n      div\n      mul\n      dup4\n      mstore\n      swap2\n      0x20\n      add\n      swap2\n      jump(tag_33)\n    tag_34:\n      dup3\n      add\n      swap2\n      swap1\n      0x00\n      mstore\n      keccak256(0x00, 0x20)\n      swap1\n    tag_35:\n      dup2\n      sload\n      dup2\n      mstore\n      swap1\n      0x01\n      add\n      swap1\n      0x20\n      add\n      dup1\n      dup4\n      gt\n      tag_35\n      jumpi\n      dup3\n      swap1\n      sub\n      0x1f\n      and\n      dup3\n      add\n      swap2\n    tag_33:\n      pop\n      pop\n      pop\n      pop\n      pop\n      dup2\n      jump\t// out\n        /* \"#utility.yul\":88:205   */\n    tag_37:\n        /* \"#utility.yul\":197:198   */\n      0x00\n        /* \"#utility.yul\":194:195   */\n      dup1\n        /* \"#utility.yul\":187:199   */\n      revert\n        /* \"#utility.yul\":211:328   */\n    tag_38:\n        /* \"#utility.yul\":320:321   */\n      0x00\n        /* \"#utility.yul\":317:318   */\n      dup1\n        /* \"#utility.yul\":310:322   */\n      revert\n        /* \"#utility.yul\":334:460   */\n    tag_39:\n        /* \"#utility.yul\":371:378   */\n      0x00\n        /* \"#utility.yul\":411:453   */\n      0xffffffffffffffffffffffffffffffffffffffff\n        /* \"#utility.yul\":404:409   */\n      dup3\n        /* \"#utility.yul\":400:454   */\n      and\n        /* \"#utility.yul\":389:454   */\n      swap1\n      pop\n        /* \"#utility.yul\":334:460   */\n      swap2\n      swap1\n      pop\n      jump\t// out\n        /* \"#utility.yul\":466:562   */\n    tag_40:\n        /* \"#utility.yul\":503:510   */\n      0x00\n        /* \"#utility.yul\":532:556   */\n      tag_80\n        /* \"#utility.yul\":550:555   */\n      dup3\n        /* \"#utility.yul\":532:556   */\n      tag_39\n      jump\t// in\n    tag_80:\n        /* \"#utility.yul\":521:556   */\n      swap1\n      pop\n        /* \"#utility.yul\":466:562   */\n      swap2\n      swap1\n      pop\n      jump\t// out\n        /* \"#utility.yul\":568:690   */\n    tag_41:\n        /* \"#utility.yul\":641:665   */\n      tag_82\n        /* \"#utility.yul\":659:664   */\n      dup2\n        /* \"#utility.yul\":641:665   */\n      tag_40\n      jump\t// in\n    tag_82:\n        /* \"#utility.yul\":634:639   */\n      dup2\n        /* \"#utility.yul\":631:666   */\n      eq\n        /* \"#utility.yul\":621:684   */\n      tag_83\n      jumpi\n        /* \"#utility.yul\":680:681   */\n      0x00\n        /* \"#utility.yul\":677:678   */\n      dup1\n        /* \"#utility.yul\":670:682   */\n      revert\n        /* \"#utility.yul\":621:684   */\n    tag_83:\n        /* \"#utility.yul\":568:690   */\n      pop\n      jump\t// out\n        /* \"#utility.yul\":696:835   */\n    tag_42:\n        /* \"#utility.yul\":742:747   */\n      0x00\n        /* \"#utility.yul\":780:786   */\n      dup2\n        /* \"#utility.yul\":767:787   */\n      calldataload\n        /* \"#utility.yul\":758:787   */\n      swap1\n      pop\n        /* \"#utility.yul\":796:829   */\n      tag_85\n        /* \"#utility.yul\":823:828   */\n      dup2\n        /* \"#utility.yul\":796:829   */\n      tag_41\n      jump\t// in\n    tag_85:\n        /* \"#utility.yul\":696:835   */\n      swap3\n      swap2\n      pop\n      pop\n      jump\t// out\n        /* \"#utility.yul\":841:958   */\n    tag_43:\n        /* \"#utility.yul\":950:951   */\n      0x00\n        /* \"#utility.yul\":947:948   */\n      dup1\n        /* \"#utility.yul\":940:952   */\n      revert\n        /* \"#utility.yul\":964:1081   */\n    tag_44:\n        /* \"#utility.yul\":1073:1074   */\n      0x00\n        /* \"#utility.yul\":1070:1071   */\n      dup1\n        /* \"#utility.yul\":1063:1075   */\n      revert\n        /* \"#utility.yul\":1087:1204   */\n    tag_45:\n        /* \"#utility.yul\":1196:1197   */\n      0x00\n        /* \"#utility.yul\":1193:1194   */\n      dup1\n        /* \"#utility.yul\":1186:1198   */\n      revert\n        /* \"#utility.yul\":1224:1777   */\n    tag_46:\n        /* \"#utility.yul\":1282:1290   */\n      0x00\n        /* \"#utility.yul\":1292:1298   */\n      dup1\n        /* \"#utility.yul\":1342:1345   */\n      dup4\n        /* \"#utility.yul\":1335:1339   */\n      0x1f\n        /* \"#utility.yul\":1327:1333   */\n      dup5\n        /* \"#utility.yul\":1323:1340   */\n      add\n        /* \"#utility.yul\":1319:1346   */\n      slt\n        /* \"#utility.yul\":1309:1431   */\n      tag_90\n      jumpi\n        /* \"#utility.yul\":1350:1429   */\n      tag_91\n      tag_43\n      jump\t// in\n    tag_91:\n        /* \"#utility.yul\":1309:1431   */\n    tag_90:\n        /* \"#utility.yul\":1463:1469   */\n      dup3\n        /* \"#utility.yul\":1450:1470   */\n      calldataload\n        /* \"#utility.yul\":1440:1470   */\n      swap1\n      pop\n        /* \"#utility.yul\":1493:1511   */\n      0xffffffffffffffff\n        /* \"#utility.yul\":1485:1491   */\n      dup2\n        /* \"#utility.yul\":1482:1512   */\n      gt\n        /* \"#utility.yul\":1479:1596   */\n      iszero\n      tag_92\n      jumpi\n        /* \"#utility.yul\":1515:1594   */\n      tag_93\n      tag_44\n      jump\t// in\n    tag_93:\n        /* \"#utility.yul\":1479:1596   */\n    tag_92:\n        /* \"#utility.yul\":1629:1633   */\n      0x20\n        /* \"#utility.yul\":1621:1627   */\n      dup4\n        /* \"#utility.yul\":1617:1634   */\n      add\n        /* \"#utility.yul\":1605:1634   */\n      swap2\n      pop\n        /* \"#utility.yul\":1683:1686   */\n      dup4\n        /* \"#utility.yul\":1675:1679   */\n      0x01\n        /* \"#utility.yul\":1667:1673   */\n      dup3\n        /* \"#utility.yul\":1663:1680   */\n      mul\n        /* \"#utility.yul\":1653:1661   */\n      dup4\n        /* \"#utility.yul\":1649:1681   */\n      add\n        /* \"#utility.yul\":1646:1687   */\n      gt\n        /* \"#utility.yul\":1643:1771   */\n      iszero\n      tag_94\n      jumpi\n        /* \"#utility.yul\":1690:1769   */\n      tag_95\n      tag_45\n      jump\t// in\n    tag_95:\n        /* \"#utility.yul\":1643:1771   */\n    tag_94:\n        /* \"#utility.yul\":1224:1777   */\n      swap3\n      pop\n      swap3\n      swap1\n      pop\n      jump\t// out\n        /* \"#utility.yul\":1783:2457   */\n    tag_8:\n        /* \"#utility.yul\":1863:1869   */\n      0x00\n        /* \"#utility.yul\":1871:1877   */\n      dup1\n        /* \"#utility.yul\":1879:1885   */\n      0x00\n        /* \"#utility.yul\":1928:1930   */\n      0x40\n        /* \"#utility.yul\":1916:1925   */\n      dup5\n        /* \"#utility.yul\":1907:1914   */\n      dup7\n        /* \"#utility.yul\":1903:1926   */\n      sub\n        /* \"#utility.yul\":1899:1931   */\n      slt\n        /* \"#utility.yul\":1896:2015   */\n      iszero\n      tag_97\n      jumpi\n        /* \"#utility.yul\":1934:2013   */\n      tag_98\n      tag_37\n      jump\t// in\n    tag_98:\n        /* \"#utility.yul\":1896:2015   */\n    tag_97:\n        /* \"#utility.yul\":2054:2055   */\n      0x00\n        /* \"#utility.yul\":2079:2132   */\n      tag_99\n        /* \"#utility.yul\":2124:2131   */\n      dup7\n        /* \"#utility.yul\":2115:2121   */\n      dup3\n        /* \"#utility.yul\":2104:2113   */\n      dup8\n        /* \"#utility.yul\":2100:2122   */\n      add\n        /* \"#utility.yul\":2079:2132   */\n      tag_42\n      jump\t// in\n    tag_99:\n        /* \"#utility.yul\":2069:2132   */\n      swap4\n      pop\n        /* \"#utility.yul\":2025:2142   */\n      pop\n        /* \"#utility.yul\":2209:2211   */\n      0x20\n        /* \"#utility.yul\":2198:2207   */\n      dup5\n        /* \"#utility.yul\":2194:2212   */\n      add\n        /* \"#utility.yul\":2181:2213   */\n      calldataload\n        /* \"#utility.yul\":2240:2258   */\n      0xffffffffffffffff\n        /* \"#utility.yul\":2232:2238   */\n      dup2\n        /* \"#utility.yul\":2229:2259   */\n      gt\n        /* \"#utility.yul\":2226:2343   */\n      iszero\n      tag_100\n      jumpi\n        /* \"#utility.yul\":2262:2341   */\n      tag_101\n      tag_38\n      jump\t// in\n    tag_101:\n        /* \"#utility.yul\":2226:2343   */\n    tag_100:\n        /* \"#utility.yul\":2375:2440   */\n      tag_102\n        /* \"#utility.yul\":2432:2439   */\n      dup7\n        /* \"#utility.yul\":2423:2429   */\n      dup3\n        /* \"#utility.yul\":2412:2421   */\n      dup8\n        /* \"#utility.yul\":2408:2430   */\n      add\n        /* \"#utility.yul\":2375:2440   */\n      tag_46\n      jump\t// in\n    tag_102:\n        /* \"#utility.yul\":2357:2440   */\n      swap3\n      pop\n      swap3\n      pop\n        /* \"#utility.yul\":2152:2450   */\n      pop\n        /* \"#utility.yul\":1783:2457   */\n      swap3\n      pop\n      swap3\n      pop\n      swap3\n      jump\t// out\n        /* \"#utility.yul\":2463:2792   */\n    tag_12:\n        /* \"#utility.yul\":2522:2528   */\n      0x00\n        /* \"#utility.yul\":2571:2573   */\n      0x20\n        /* \"#utility.yul\":2559:2568   */\n      dup3\n        /* \"#utility.yul\":2550:2557   */\n      dup5\n        /* \"#utility.yul\":2546:2569   */\n      sub\n        /* \"#utility.yul\":2542:2574   */\n      slt\n        /* \"#utility.yul\":2539:2658   */\n      iszero\n      tag_104\n      jumpi\n        /* \"#utility.yul\":2577:2656   */\n      tag_105\n      tag_37\n      jump\t// in\n    tag_105:\n        /* \"#utility.yul\":2539:2658   */\n    tag_104:\n        /* \"#utility.yul\":2697:2698   */\n      0x00\n        /* \"#utility.yul\":2722:2775   */\n      tag_106\n        /* \"#utility.yul\":2767:2774   */\n      dup5\n        /* \"#utility.yul\":2758:2764   */\n      dup3\n        /* \"#utility.yul\":2747:2756   */\n      dup6\n        /* \"#utility.yul\":2743:2765   */\n      add\n        /* \"#utility.yul\":2722:2775   */\n      tag_42\n      jump\t// in\n    tag_106:\n        /* \"#utility.yul\":2712:2775   */\n      swap2\n      pop\n        /* \"#utility.yul\":2668:2785   */\n      pop\n        /* \"#utility.yul\":2463:2792   */\n      swap3\n      swap2\n      pop\n      pop\n      jump\t// out\n        /* \"#utility.yul\":2798:2897   */\n    tag_47:\n        /* \"#utility.yul\":2850:2856   */\n      0x00\n        /* \"#utility.yul\":2884:2889   */\n      dup2\n        /* \"#utility.yul\":2878:2890   */\n      mload\n        /* \"#utility.yul\":2868:2890   */\n      swap1\n      pop\n        /* \"#utility.yul\":2798:2897   */\n      swap2\n      swap1\n      pop\n      jump\t// out\n        /* \"#utility.yul\":2903:3072   */\n    tag_48:\n        /* \"#utility.yul\":2987:2998   */\n      0x00\n        /* \"#utility.yul\":3021:3027   */\n      dup3\n        /* \"#utility.yul\":3016:3019   */\n      dup3\n        /* \"#utility.yul\":3009:3028   */\n      mstore\n        /* \"#utility.yul\":3061:3065   */\n      0x20\n        /* \"#utility.yul\":3056:3059   */\n      dup3\n        /* \"#utility.yul\":3052:3066   */\n      add\n        /* \"#utility.yul\":3037:3066   */\n      swap1\n      pop\n        /* \"#utility.yul\":2903:3072   */\n      swap3\n      swap2\n      pop\n      pop\n      jump\t// out\n        /* \"#utility.yul\":3078:3217   */\n    tag_49:\n        /* \"#utility.yul\":3167:3173   */\n      dup3\n        /* \"#utility.yul\":3162:3165   */\n      dup2\n        /* \"#utility.yul\":3157:3160   */\n      dup4\n        /* \"#utility.yul\":3151:3174   */\n      mcopy\n        /* \"#utility.yul\":3208:3209   */\n      0x00\n        /* \"#utility.yul\":3199:3205   */\n      dup4\n        /* \"#utility.yul\":3194:3197   */\n      dup4\n        /* \"#utility.yul\":3190:3206   */\n      add\n        /* \"#utility.yul\":3183:3210   */\n      mstore\n        /* \"#utility.yul\":3078:3217   */\n      pop\n      pop\n      pop\n      jump\t// out\n        /* \"#utility.yul\":3223:3325   */\n    tag_50:\n        /* \"#utility.yul\":3264:3270   */\n      0x00\n        /* \"#utility.yul\":3315:3317   */\n      0x1f\n        /* \"#utility.yul\":3311:3318   */\n      not\n        /* \"#utility.yul\":3306:3308   */\n      0x1f\n        /* \"#utility.yul\":3299:3304   */\n      dup4\n        /* \"#utility.yul\":3295:3309   */\n      add\n        /* \"#utility.yul\":3291:3319   */\n      and\n        /* \"#utility.yul\":3281:3319   */\n      swap1\n      pop\n        /* \"#utility.yul\":3223:3325   */\n      swap2\n      swap1\n      pop\n      jump\t// out\n        /* \"#utility.yul\":3331:3708   */\n    tag_51:\n        /* \"#utility.yul\":3419:3422   */\n      0x00\n        /* \"#utility.yul\":3447:3486   */\n      tag_112\n        /* \"#utility.yul\":3480:3485   */\n      dup3\n        /* \"#utility.yul\":3447:3486   */\n      tag_47\n      jump\t// in\n    tag_112:\n        /* \"#utility.yul\":3502:3573   */\n      tag_113\n        /* \"#utility.yul\":3566:3572   */\n      dup2\n        /* \"#utility.yul\":3561:3564   */\n      dup6\n        /* \"#utility.yul\":3502:3573   */\n      tag_48\n      jump\t// in\n    tag_113:\n        /* \"#utility.yul\":3495:3573   */\n      swap4\n      pop\n        /* \"#utility.yul\":3582:3647   */\n      tag_114\n        /* \"#utility.yul\":3640:3646   */\n      dup2\n        /* \"#utility.yul\":3635:3638   */\n      dup6\n        /* \"#utility.yul\":3628:3632   */\n      0x20\n        /* \"#utility.yul\":3621:3626   */\n      dup7\n        /* \"#utility.yul\":3617:3633   */\n      add\n        /* \"#utility.yul\":3582:3647   */\n      tag_49\n      jump\t// in\n    tag_114:\n        /* \"#utility.yul\":3672:3701   */\n      tag_115\n        /* \"#utility.yul\":3694:3700   */\n      dup2\n        /* \"#utility.yul\":3672:3701   */\n      tag_50\n      jump\t// in\n    tag_115:\n        /* \"#utility.yul\":3667:3670   */\n      dup5\n        /* \"#utility.yul\":3663:3702   */\n      add\n        /* \"#utility.yul\":3656:3702   */\n      swap2\n      pop\n        /* \"#utility.yul\":3423:3708   */\n      pop\n        /* \"#utility.yul\":3331:3708   */\n      swap3\n      swap2\n      pop\n      pop\n      jump\t// out\n        /* \"#utility.yul\":3714:4027   */\n    tag_15:\n        /* \"#utility.yul\":3827:3831   */\n      0x00\n        /* \"#utility.yul\":3865:3867   */\n      0x20\n        /* \"#utility.yul\":3854:3863   */\n      dup3\n        /* \"#utility.yul\":3850:3868   */\n      add\n        /* \"#utility.yul\":3842:3868   */\n      swap1\n      pop\n        /* \"#utility.yul\":3914:3923   */\n      dup2\n        /* \"#utility.yul\":3908:3912   */\n      dup2\n        /* \"#utility.yul\":3904:3924   */\n      sub\n        /* \"#utility.yul\":3900:3901   */\n      0x00\n        /* \"#utility.yul\":3889:3898   */\n      dup4\n        /* \"#utility.yul\":3885:3902   */\n      add\n        /* \"#utility.yul\":3878:3925   */\n      mstore\n        /* \"#utility.yul\":3942:4020   */\n      tag_117\n        /* \"#utility.yul\":4015:4019   */\n      dup2\n        /* \"#utility.yul\":4006:4012   */\n      dup5\n        /* \"#utility.yul\":3942:4020   */\n      tag_51\n      jump\t// in\n    tag_117:\n        /* \"#utility.yul\":3934:4020   */\n      swap1\n      pop\n        /* \"#utility.yul\":3714:4027   */\n      swap3\n      swap2\n      pop\n      pop\n      jump\t// out\n        /* \"#utility.yul\":4033:4110   */\n    tag_52:\n        /* \"#utility.yul\":4070:4077   */\n      0x00\n        /* \"#utility.yul\":4099:4104   */\n      dup2\n        /* \"#utility.yul\":4088:4104   */\n      swap1\n      pop\n        /* \"#utility.yul\":4033:4110   */\n      swap2\n      swap1\n      pop\n      jump\t// out\n        /* \"#utility.yul\":4116:4238   */\n    tag_53:\n        /* \"#utility.yul\":4189:4213   */\n      tag_120\n        /* \"#utility.yul\":4207:4212   */\n      dup2\n        /* \"#utility.yul\":4189:4213   */\n      tag_52\n      jump\t// in\n    tag_120:\n        /* \"#utility.yul\":4182:4187   */\n      dup2\n        /* \"#utility.yul\":4179:4214   */\n      eq\n        /* \"#utility.yul\":4169:4232   */\n      tag_121\n      jumpi\n        /* \"#utility.yul\":4228:4229   */\n      0x00\n        /* \"#utility.yul\":4225:4226   */\n      dup1\n        /* \"#utility.yul\":4218:4230   */\n      revert\n        /* \"#utility.yul\":4169:4232   */\n    tag_121:\n        /* \"#utility.yul\":4116:4238   */\n      pop\n      jump\t// out\n        /* \"#utility.yul\":4244:4383   */\n    tag_54:\n        /* \"#utility.yul\":4290:4295   */\n      0x00\n        /* \"#utility.yul\":4328:4334   */\n      dup2\n        /* \"#utility.yul\":4315:4335   */\n      calldataload\n        /* \"#utility.yul\":4306:4335   */\n      swap1\n      pop\n        /* \"#utility.yul\":4344:4377   */\n      tag_123\n        /* \"#utility.yul\":4371:4376   */\n      dup2\n        /* \"#utility.yul\":4344:4377   */\n      tag_53\n      jump\t// in\n    tag_123:\n        /* \"#utility.yul\":4244:4383   */\n      swap3\n      swap2\n      pop\n      pop\n      jump\t// out\n        /* \"#utility.yul\":4389:4718   */\n    tag_18:\n        /* \"#utility.yul\":4448:4454   */\n      0x00\n        /* \"#utility.yul\":4497:4499   */\n      0x20\n        /* \"#utility.yul\":4485:4494   */\n      dup3\n        /* \"#utility.yul\":4476:4483   */\n      dup5\n        /* \"#utility.yul\":4472:4495   */\n      sub\n        /* \"#utility.yul\":4468:4500   */\n      slt\n        /* \"#utility.yul\":4465:4584   */\n      iszero\n      tag_125\n      jumpi\n        /* \"#utility.yul\":4503:4582   */\n      tag_126\n      tag_37\n      jump\t// in\n    tag_126:\n        /* \"#utility.yul\":4465:4584   */\n    tag_125:\n        /* \"#utility.yul\":4623:4624   */\n      0x00\n        /* \"#utility.yul\":4648:4701   */\n      tag_127\n        /* \"#utility.yul\":4693:4700   */\n      dup5\n        /* \"#utility.yul\":4684:4690   */\n      dup3\n        /* \"#utility.yul\":4673:4682   */\n      dup6\n        /* \"#utility.yul\":4669:4691   */\n      add\n        /* \"#utility.yul\":4648:4701   */\n      tag_54\n      jump\t// in\n    tag_127:\n        /* \"#utility.yul\":4638:4701   */\n      swap2\n      pop\n        /* \"#utility.yul\":4594:4711   */\n      pop\n        /* \"#utility.yul\":4389:4718   */\n      swap3\n      swap2\n      pop\n      pop\n      jump\t// out\n        /* \"#utility.yul\":4724:4821   */\n    tag_55:\n        /* \"#utility.yul\":4783:4789   */\n      0x00\n        /* \"#utility.yul\":4811:4814   */\n      dup3\n        /* \"#utility.yul\":4801:4814   */\n      swap1\n      pop\n        /* \"#utility.yul\":4724:4821   */\n      swap3\n      swap2\n      pop\n      pop\n      jump\t// out\n        /* \"#utility.yul\":4827:5007   */\n    tag_56:\n        /* \"#utility.yul\":4875:4952   */\n      0x4e487b7100000000000000000000000000000000000000000000000000000000\n        /* \"#utility.yul\":4872:4873   */\n      0x00\n        /* \"#utility.yul\":4865:4953   */\n      mstore\n        /* \"#utility.yul\":4972:4976   */\n      0x41\n        /* \"#utility.yul\":4969:4970   */\n      0x04\n        /* \"#utility.yul\":4962:4977   */\n      mstore\n        /* \"#utility.yul\":4996:5000   */\n      0x24\n        /* \"#utility.yul\":4993:4994   */\n      0x00\n        /* \"#utility.yul\":4986:5001   */\n      revert\n        /* \"#utility.yul\":5013:5193   */\n    tag_57:\n        /* \"#utility.yul\":5061:5138   */\n      0x4e487b7100000000000000000000000000000000000000000000000000000000\n        /* \"#utility.yul\":5058:5059   */\n      0x00\n        /* \"#utility.yul\":5051:5139   */\n      mstore\n        /* \"#utility.yul\":5158:5162   */\n      0x22\n        /* \"#utility.yul\":5155:5156   */\n      0x04\n        /* \"#utility.yul\":5148:5163   */\n      mstore\n        /* \"#utility.yul\":5182:5186   */\n      0x24\n        /* \"#utility.yul\":5179:5180   */\n      0x00\n        /* \"#utility.yul\":5172:5187   */\n      revert\n        /* \"#utility.yul\":5199:5519   */\n    tag_26:\n        /* \"#utility.yul\":5243:5249   */\n      0x00\n        /* \"#utility.yul\":5280:5281   */\n      0x02\n        /* \"#utility.yul\":5274:5278   */\n      dup3\n        /* \"#utility.yul\":5270:5282   */\n      div\n        /* \"#utility.yul\":5260:5282   */\n      swap1\n      pop\n        /* \"#utility.yul\":5327:5328   */\n      0x01\n        /* \"#utility.yul\":5321:5325   */\n      dup3\n        /* \"#utility.yul\":5317:5329   */\n      and\n        /* \"#utility.yul\":5348:5366   */\n      dup1\n        /* \"#utility.yul\":5338:5419   */\n      tag_132\n      jumpi\n        /* \"#utility.yul\":5404:5408   */\n      0x7f\n        /* \"#utility.yul\":5396:5402   */\n      dup3\n        /* \"#utility.yul\":5392:5409   */\n      and\n        /* \"#utility.yul\":5382:5409   */\n      swap2\n      pop\n        /* \"#utility.yul\":5338:5419   */\n    tag_132:\n        /* \"#utility.yul\":5466:5468   */\n      0x20\n        /* \"#utility.yul\":5458:5464   */\n      dup3\n        /* \"#utility.yul\":5455:5469   */\n      lt\n        /* \"#utility.yul\":5435:5453   */\n      dup2\n        /* \"#utility.yul\":5432:5470   */\n      sub\n        /* \"#utility.yul\":5429:5513   */\n      tag_133\n      jumpi\n        /* \"#utility.yul\":5485:5503   */\n      tag_134\n      tag_57\n      jump\t// in\n    tag_134:\n        /* \"#utility.yul\":5429:5513   */\n    tag_133:\n        /* \"#utility.yul\":5250:5519   */\n      pop\n        /* \"#utility.yul\":5199:5519   */\n      swap2\n      swap1\n      pop\n      jump\t// out\n        /* \"#utility.yul\":5525:5666   */\n    tag_58:\n        /* \"#utility.yul\":5574:5578   */\n      0x00\n        /* \"#utility.yul\":5597:5600   */\n      dup2\n        /* \"#utility.yul\":5589:5600   */\n      swap1\n      pop\n        /* \"#utility.yul\":5620:5623   */\n      dup2\n        /* \"#utility.yul\":5617:5618   */\n      0x00\n        /* \"#utility.yul\":5610:5624   */\n      mstore\n        /* \"#utility.yul\":5654:5658   */\n      0x20\n        /* \"#utility.yul\":5651:5652   */\n      0x00\n        /* \"#utility.yul\":5641:5659   */\n      keccak256\n        /* \"#utility.yul\":5633:5659   */\n      swap1\n      pop\n        /* \"#utility.yul\":5525:5666   */\n      swap2\n      swap1\n      pop\n      jump\t// out\n        /* \"#utility.yul\":5672:5765   */\n    tag_59:\n        /* \"#utility.yul\":5709:5715   */\n      0x00\n        /* \"#utility.yul\":5756:5758   */\n      0x20\n        /* \"#utility.yul\":5751:5753   */\n      0x1f\n        /* \"#utility.yul\":5744:5749   */\n      dup4\n        /* \"#utility.yul\":5740:5754   */\n      add\n        /* \"#utility.yul\":5736:5759   */\n      div\n        /* \"#utility.yul\":5726:5759   */\n      swap1\n      pop\n        /* \"#utility.yul\":5672:5765   */\n      swap2\n      swap1\n      pop\n      jump\t// out\n        /* \"#utility.yul\":5771:5878   */\n    tag_60:\n        /* \"#utility.yul\":5815:5823   */\n      0x00\n        /* \"#utility.yul\":5865:5870   */\n      dup3\n        /* \"#utility.yul\":5859:5863   */\n      dup3\n        /* \"#utility.yul\":5855:5871   */\n      shl\n        /* \"#utility.yul\":5834:5871   */\n      swap1\n      pop\n        /* \"#utility.yul\":5771:5878   */\n      swap3\n      swap2\n      pop\n      pop\n      jump\t// out\n        /* \"#utility.yul\":5884:6277   */\n    tag_61:\n        /* \"#utility.yul\":5953:5959   */\n      0x00\n        /* \"#utility.yul\":6003:6004   */\n      0x08\n        /* \"#utility.yul\":5991:6001   */\n      dup4\n        /* \"#utility.yul\":5987:6005   */\n      mul\n        /* \"#utility.yul\":6026:6123   */\n      tag_139\n        /* \"#utility.yul\":6056:6122   */\n      0xffffffffffffffffffffffffffffffffffffffffffffffffffffffffffffffff\n        /* \"#utility.yul\":6045:6054   */\n      dup3\n        /* \"#utility.yul\":6026:6123   */\n      tag_60\n      jump\t// in\n    tag_139:\n        /* \"#utility.yul\":6144:6183   */\n      tag_140\n        /* \"#utility.yul\":6174:6182   */\n      dup7\n        /* \"#utility.yul\":6163:6172   */\n      dup4\n        /* \"#utility.yul\":6144:6183   */\n      tag_60\n      jump\t// in\n    tag_140:\n        /* \"#utility.yul\":6132:6183   */\n      swap6\n      pop\n        /* \"#utility.yul\":6216:6220   */\n      dup1\n        /* \"#utility.yul\":6212:6221   */\n      not\n        /* \"#utility.yul\":6205:6210   */\n      dup5\n        /* \"#utility.yul\":6201:6222   */\n      and\n        /* \"#utility.yul\":6192:6222   */\n      swap4\n      pop\n        /* \"#utility.yul\":6265:6269   */\n      dup1\n        /* \"#utility.yul\":6255:6263   */\n      dup7\n        /* \"#utility.yul\":6251:6270   */\n      and\n        /* \"#utility.yul\":6244:6249   */\n      dup5\n        /* \"#utility.yul\":6241:6271   */\n      or\n        /* \"#utility.yul\":6231:6271   */\n      swap3\n      pop\n        /* \"#utility.yul\":5960:6277   */\n      pop\n      pop\n        /* \"#utility.yul\":5884:6277   */\n      swap4\n      swap3\n      pop\n      pop\n      pop\n      jump\t// out\n        /* \"#utility.yul\":6283:6360   */\n    tag_62:\n        /* \"#utility.yul\":6320:6327   */\n      0x00\n        /* \"#utility.yul\":6349:6354   */\n      dup2\n        /* \"#utility.yul\":6338:6354   */\n      swap1\n      pop\n        /* \"#utility.yul\":6283:6360   */\n      swap2\n      swap1\n      pop\n      jump\t// out\n        /* \"#utility.yul\":6366:6426   */\n    tag_63:\n        /* \"#utility.yul\":6394:6397   */\n      0x00\n        /* \"#utility.yul\":6415:6420   */\n      dup2\n        /* \"#utility.yul\":6408:6420   */\n      swap1\n      pop\n        /* \"#utility.yul\":6366:6426   */\n      swap2\n      swap1\n      pop\n      jump\t// out\n        /* \"#utility.yul\":6432:6574   */\n    tag_64:\n        /* \"#utility.yul\":6482:6491   */\n      0x00\n        /* \"#utility.yul\":6515:6568   */\n      tag_144\n        /* \"#utility.yul\":6533:6567   */\n      tag_145\n        /* \"#utility.yul\":6542:6566   */\n      tag_146\n        /* \"#utility.yul\":6560:6565   */\n      dup5\n        /* \"#utility.yul\":6542:6566   */\n      tag_62\n      jump\t// in\n    tag_146:\n        /* \"#utility.yul\":6533:6567   */\n      tag_63\n      jump\t// in\n    tag_145:\n        /* \"#utility.yul\":6515:6568   */\n      tag_62\n      jump\t// in\n    tag_144:\n        /* \"#utility.yul\":6502:6568   */\n      swap1\n      pop\n        /* \"#utility.yul\":6432:6574   */\n      swap2\n      swap1\n      pop\n      jump\t// out\n        /* \"#utility.yul\":6580:6655   */\n    tag_65:\n        /* \"#utility.yul\":6623:6626   */\n      0x00\n        /* \"#utility.yul\":6644:6649   */\n      dup2\n        /* \"#utility.yul\":6637:6649   */\n      swap1\n      pop\n        /* \"#utility.yul\":6580:6655   */\n      swap2\n      swap1\n      pop\n      jump\t// out\n        /* \"#utility.yul\":6661:6930   */\n    tag_66:\n        /* \"#utility.yul\":6771:6810   */\n      tag_149\n        /* \"#utility.yul\":6802:6809   */\n      dup4\n        /* \"#utility.yul\":6771:6810   */\n      tag_64\n      jump\t// in\n    tag_149:\n        /* \"#utility.yul\":6832:6923   */\n      tag_150\n        /* \"#utility.yul\":6881:6922   */\n      tag_151\n        /* \"#utility.yul\":6905:6921   */\n      dup3\n        /* \"#utility.yul\":6881:6922   */\n      tag_65\n      jump\t// in\n    tag_151:\n        /* \"#utility.yul\":6873:6879   */\n      dup5\n        /* \"#utility.yul\":6866:6870   */\n      dup5\n        /* \"#utility.yul\":6860:6871   */\n      sload\n        /* \"#utility.yul\":6832:6923   */\n      tag_61\n      jump\t// in\n    tag_150:\n        /* \"#utility.yul\":6826:6830   */\n      dup3\n        /* \"#utility.yul\":6819:6924   */\n      sstore\n        /* \"#utility.yul\":6737:6930   */\n      pop\n        /* \"#utility.yul\":6661:6930   */\n      pop\n      pop\n      pop\n      jump\t// out\n        /* \"#utility.yul\":6936:7009   */\n    tag_67:\n        /* \"#utility.yul\":6981:6984   */\n      0x00\n        /* \"#utility.yul\":6936:7009   */\n      swap1\n      jump\t// out\n        /* \"#utility.yul\":7015:7204   */\n    tag_68:\n        /* \"#utility.yul\":7092:7124   */\n      tag_154\n      tag_67\n      jump\t// in\n    tag_154:\n        /* \"#utility.yul\":7133:7198   */\n      tag_155\n        /* \"#utility.yul\":7191:7197   */\n      dup2\n        /* \"#utility.yul\":7183:7189   */\n      dup5\n        /* \"#utility.yul\":7177:7181   */\n      dup5\n        /* \"#utility.yul\":7133:7198   */\n      tag_66\n      jump\t// in\n    tag_155:\n        /* \"#utility.yul\":7068:7204   */\n      pop\n        /* \"#utility.yul\":7015:7204   */\n      pop\n      pop\n      jump\t// out\n        /* \"#utility.yul\":7210:7396   */\n    tag_69:\n        /* \"#utility.yul\":7270:7390   */\n    tag_157:\n        /* \"#utility.yul\":7287:7290   */\n      dup2\n        /* \"#utility.yul\":7280:7285   */\n      dup2\n        /* \"#utility.yul\":7277:7291   */\n      lt\n        /* \"#utility.yul\":7270:7390   */\n      iszero\n      tag_159\n      jumpi\n        /* \"#utility.yul\":7341:7380   */\n      tag_160\n        /* \"#utility.yul\":7378:7379   */\n      0x00\n        /* \"#utility.yul\":7371:7376   */\n      dup3\n        /* \"#utility.yul\":7341:7380   */\n      tag_68\n      jump\t// in\n    tag_160:\n        /* \"#utility.yul\":7314:7315   */\n      0x01\n        /* \"#utility.yul\":7307:7312   */\n      dup2\n        /* \"#utility.yul\":7303:7316   */\n      add\n        /* \"#utility.yul\":7294:7316   */\n      swap1\n      pop\n        /* \"#utility.yul\":7270:7390   */\n      jump(tag_157)\n    tag_159:\n        /* \"#utility.yul\":7210:7396   */\n      pop\n      pop\n      jump\t// out\n        /* \"#utility.yul\":7402:7945   */\n    tag_70:\n        /* \"#utility.yul\":7503:7505   */\n      0x1f\n        /* \"#utility.yul\":7498:7501   */\n      dup3\n        /* \"#utility.yul\":7495:7506   */\n      gt\n        /* \"#utility.yul\":7492:7938   */\n      iszero\n      tag_162\n      jumpi\n        /* \"#utility.yul\":7537:7575   */\n      tag_163\n        /* \"#utility.yul\":7569:7574   */\n      dup2\n        /* \"#utility.yul\":7537:7575   */\n      tag_58\n      jump\t// in\n    tag_163:\n        /* \"#utility.yul\":7621:7650   */\n      tag_164\n        /* \"#utility.yul\":7639:7649   */\n      dup5\n        /* \"#utility.yul\":7621:7650   */\n      tag_59\n      jump\t// in\n    tag_164:\n        /* \"#utility.yul\":7611:7619   */\n      dup2\n        /* \"#utility.yul\":7607:7651   */\n      add\n        /* \"#utility.yul\":7804:7806   */\n      0x20\n        /* \"#utility.yul\":7792:7802   */\n      dup6\n        /* \"#utility.yul\":7789:7807   */\n      lt\n        /* \"#utility.yul\":7786:7835   */\n      iszero\n      tag_165\n      jumpi\n        /* \"#utility.yul\":7825:7833   */\n      dup2\n        /* \"#utility.yul\":7810:7833   */\n      swap1\n      pop\n        /* \"#utility.yul\":7786:7835   */\n    tag_165:\n        /* \"#utility.yul\":7848:7928   */\n      tag_166\n        /* \"#utility.yul\":7904:7926   */\n      tag_167\n        /* \"#utility.yul\":7922:7925   */\n      dup6\n        /* \"#utility.yul\":7904:7926   */\n      tag_59\n      jump\t// in\n    tag_167:\n        /* \"#utility.yul\":7894:7902   */\n      dup4\n        /* \"#utility.yul\":7890:7927   */\n      add\n        /* \"#utility.yul\":7877:7888   */\n      dup3\n        /* \"#utility.yul\":7848:7928   */\n      tag_69\n      jump\t// in\n    tag_166:\n        /* \"#utility.yul\":7507:7938   */\n      pop\n      pop\n        /* \"#utility.yul\":7492:7938   */\n    tag_162:\n        /* \"#utility.yul\":7402:7945   */\n      pop\n      pop\n      pop\n      jump\t// out\n        /* \"#utility.yul\":7951:8068   */\n    tag_71:\n        /* \"#utility.yul\":8005:8013   */\n      0x00\n        /* \"#utility.yul\":8055:8060   */\n      dup3\n        /* \"#utility.yul\":8049:8053   */\n      dup3\n        /* \"#utility.yul\":8045:8061   */\n      shr\n        /* \"#utility.yul\":8024:8061   */\n      swap1\n      pop\n        /* \"#utility.yul\":7951:8068   */\n      swap3\n      swap2\n      pop\n      pop\n      jump\t// out\n        /* \"#utility.yul\":8074:8243   */\n    tag_72:\n        /* \"#utility.yul\":8118:8124   */\n      0x00\n        /* \"#utility.yul\":8151:8202   */\n      tag_170\n        /* \"#utility.yul\":8199:8200   */\n      0x00\n        /* \"#utility.yul\":8195:8201   */\n      not\n        /* \"#utility.yul\":8187:8192   */\n      dup5\n        /* \"#utility.yul\":8184:8185   */\n      0x08\n        /* \"#utility.yul\":8180:8193   */\n      mul\n        /* \"#utility.yul\":8151:8202   */\n      tag_71\n      jump\t// in\n    tag_170:\n        /* \"#utility.yul\":8147:8203   */\n      not\n        /* \"#utility.yul\":8232:8236   */\n      dup1\n        /* \"#utility.yul\":8226:8230   */\n      dup4\n        /* \"#utility.yul\":8222:8237   */\n      and\n        /* \"#utility.yul\":8212:8237   */\n      swap2\n      pop\n        /* \"#utility.yul\":8125:8243   */\n      pop\n        /* \"#utility.yul\":8074:8243   */\n      swap3\n      swap2\n      pop\n      pop\n      jump\t// out\n        /* \"#utility.yul\":8248:8543   */\n    tag_73:\n        /* \"#utility.yul\":8324:8328   */\n      0x00\n        /* \"#utility.yul\":8470:8499   */\n      tag_172\n        /* \"#utility.yul\":8495:8498   */\n      dup4\n        /* \"#utility.yul\":8489:8493   */\n      dup4\n        /* \"#utility.yul\":8470:8499   */\n      tag_72\n      jump\t// in\n    tag_172:\n        /* \"#utility.yul\":8462:8499   */\n      swap2\n      pop\n        /* \"#utility.yul\":8532:8535   */\n      dup3\n        /* \"#utility.yul\":8529:8530   */\n      0x02\n        /* \"#utility.yul\":8525:8536   */\n      mul\n        /* \"#utility.yul\":8519:8523   */\n      dup3\n        /* \"#utility.yul\":8516:8537   */\n      or\n        /* \"#utility.yul\":8508:8537   */\n      swap1\n      pop\n        /* \"#utility.yul\":8248:8543   */\n      swap3\n      swap2\n      pop\n      pop\n      jump\t// out\n        /* \"#utility.yul\":8548:9951   */\n    tag_23:\n        /* \"#utility.yul\":8672:8716   */\n      tag_174\n        /* \"#utility.yul\":8712:8715   */\n      dup4\n        /* \"#utility.yul\":8707:8710   */\n      dup4\n        /* \"#utility.yul\":8672:8716   */\n      tag_55\n      jump\t// in\n    tag_174:\n        /* \"#utility.yul\":8781:8799   */\n      0xffffffffffffffff\n        /* \"#utility.yul\":8773:8779   */\n      dup2\n        /* \"#utility.yul\":8770:8800   */\n      gt\n        /* \"#utility.yul\":8767:8823   */\n      iszero\n      tag_175\n      jumpi\n        /* \"#utility.yul\":8803:8821   */\n      tag_176\n      tag_56\n      jump\t// in\n    tag_176:\n        /* \"#utility.yul\":8767:8823   */\n    tag_175:\n        /* \"#utility.yul\":8847:8885   */\n      tag_177\n        /* \"#utility.yul\":8879:8883   */\n      dup3\n        /* \"#utility.yul\":8873:8884   */\n      sload\n        /* \"#utility.yul\":8847:8885   */\n      tag_26\n      jump\t// in\n    tag_177:\n        /* \"#utility.yul\":8932:8999   */\n      tag_178\n        /* \"#utility.yul\":8992:8998   */\n      dup3\n        /* \"#utility.yul\":8984:8990   */\n      dup3\n        /* \"#utility.yul\":8978:8982   */\n      dup6\n        /* \"#utility.yul\":8932:8999   */\n      tag_70\n      jump\t// in\n    tag_178:\n        /* \"#utility.yul\":9026:9027   */\n      0x00\n        /* \"#utility.yul\":9055:9057   */\n      0x1f\n        /* \"#utility.yul\":9047:9053   */\n      dup4\n        /* \"#utility.yul\":9044:9058   */\n      gt\n        /* \"#utility.yul\":9072:9073   */\n      0x01\n        /* \"#utility.yul\":9067:9699   */\n      dup2\n      eq\n      tag_180\n      jumpi\n        /* \"#utility.yul\":9743:9744   */\n      0x00\n        /* \"#utility.yul\":9760:9766   */\n      dup5\n        /* \"#utility.yul\":9757:9841   */\n      iszero\n      tag_181\n      jumpi\n        /* \"#utility.yul\":9816:9825   */\n      dup3\n        /* \"#utility.yul\":9811:9814   */\n      dup8\n        /* \"#utility.yul\":9807:9826   */\n      add\n        /* \"#utility.yul\":9794:9827   */\n      calldataload\n        /* \"#utility.yul\":9785:9827   */\n      swap1\n      pop\n        /* \"#utility.yul\":9757:9841   */\n    tag_181:\n        /* \"#utility.yul\":9867:9934   */\n      tag_182\n        /* \"#utility.yul\":9927:9933   */\n      dup6\n        /* \"#utility.yul\":9920:9925   */\n      dup3\n        /* \"#utility.yul\":9867:9934   */\n      tag_73\n      jump\t// in\n    tag_182:\n        /* \"#utility.yul\":9861:9865   */\n      dup7\n        /* \"#utility.yul\":9854:9935   */\n      sstore\n        /* \"#utility.yul\":9716:9945   */\n      pop\n        /* \"#utility.yul\":9037:9945   */\n      jump(tag_179)\n        /* \"#utility.yul\":9067:9699   */\n    tag_180:\n        /* \"#utility.yul\":9119:9123   */\n      0x1f\n        /* \"#utility.yul\":9115:9124   */\n      not\n        /* \"#utility.yul\":9107:9113   */\n      dup5\n        /* \"#utility.yul\":9103:9125   */\n      and\n        /* \"#utility.yul\":9153:9190   */\n      tag_183\n        /* \"#utility.yul\":9185:9189   */\n      dup7\n        /* \"#utility.yul\":9153:9190   */\n      tag_58\n      jump\t// in\n    tag_183:\n        /* \"#utility.yul\":9212:9213   */\n      0x00\n        /* \"#utility.yul\":9226:9441   */\n    tag_184:\n        /* \"#utility.yul\":9240:9247   */\n      dup3\n        /* \"#utility.yul\":9237:9238   */\n      dup2\n        /* \"#utility.yul\":9234:9248   */\n      lt\n        /* \"#utility.yul\":9226:9441   */\n      iszero\n      tag_186\n      jumpi\n        /* \"#utility.yul\":9326:9335   */\n      dup5\n        /* \"#utility.yul\":9321:9324   */\n      dup10\n        /* \"#utility.yul\":9317:9336   */\n      add\n        /* \"#utility.yul\":9304:9337   */\n      calldataload\n        /* \"#utility.yul\":9296:9302   */\n      dup3\n        /* \"#utility.yul\":9289:9338   */\n      sstore\n        /* \"#utility.yul\":9377:9378   */\n      0x01\n        /* \"#utility.yul\":9369:9375   */\n      dup3\n        /* \"#utility.yul\":9365:9379   */\n      add\n        /* \"#utility.yul\":9355:9379   */\n      swap2\n      pop\n        /* \"#utility.yul\":9424:9426   */\n      0x20\n        /* \"#utility.yul\":9413:9422   */\n      dup6\n        /* \"#utility.yul\":9409:9427   */\n      add\n        /* \"#utility.yul\":9396:9427   */\n      swap5\n      pop\n        /* \"#utility.yul\":9263:9267   */\n      0x20\n        /* \"#utility.yul\":9260:9261   */\n      dup2\n        /* \"#utility.yul\":9256:9268   */\n      add\n        /* \"#utility.yul\":9251:9268   */\n      swap1\n      pop\n        /* \"#utility.yul\":9226:9441   */\n      jump(tag_184)\n    tag_186:\n        /* \"#utility.yul\":9469:9475   */\n      dup7\n        /* \"#utility.yul\":9460:9467   */\n      dup4\n        /* \"#utility.yul\":9457:9476   */\n      lt\n        /* \"#utility.yul\":9454:9640   */\n      iszero\n      tag_187\n      jumpi\n        /* \"#utility.yul\":9534:9543   */\n      dup5\n        /* \"#utility.yul\":9529:9532   */\n      dup10\n        /* \"#utility.yul\":9525:9544   */\n      add\n        /* \"#utility.yul\":9512:9545   */\n      calldataload\n        /* \"#utility.yul\":9577:9625   */\n      tag_188\n        /* \"#utility.yul\":9619:9623   */\n      0x1f\n        /* \"#utility.yul\":9611:9617   */\n      dup10\n        /* \"#utility.yul\":9607:9624   */\n      and\n        /* \"#utility.yul\":9596:9605   */\n      dup3\n        /* \"#utility.yul\":9577:9625   */\n      tag_72\n      jump\t// in\n    tag_188:\n        /* \"#utility.yul\":9569:9575   */\n      dup4\n        /* \"#utility.yul\":9562:9626   */\n      sstore\n        /* \"#utility.yul\":9477:9640   */\n      pop\n        /* \"#utility.yul\":9454:9640   */\n    tag_187:\n        /* \"#utility.yul\":9686:9687   */\n      0x01\n        /* \"#utility.yul\":9682:9683   */\n      0x02\n        /* \"#utility.yul\":9674:9680   */\n      dup9\n        /* \"#utility.yul\":9670:9684   */\n      mul\n        /* \"#utility.yul\":9666:9688   */\n      add\n        /* \"#utility.yul\":9660:9664   */\n      dup9\n        /* \"#utility.yul\":9653:9689   */\n      sstore\n        /* \"#utility.yul\":9074:9699   */\n      pop\n      pop\n      pop\n        /* \"#utility.yul\":9037:9945   */\n    tag_179:\n      pop\n        /* \"#utility.yul\":8647:9951   */\n      pop\n      pop\n      pop\n        /* \"#utility.yul\":8548:9951   */\n      pop\n      pop\n      pop\n      jump\t// out\n\n    auxdata: 0xa26469706673582212206d5acbdb001ef8f69bb4b6469c22c89636eba3f289e4265c15352a4582e9b6c764736f6c634300081a0033\n}\n",
				"bytecode": {
					"linkReferences": {},
					"object": "6080604052348015600e575f80fd5b506108098061001c5f395ff3fe608060405234801561000f575f80fd5b506004361061003f575f3560e01c80634f78c8571461004357806355ea6c471461005f578063c809de531461008f575b5f80fd5b61005d60048036038101906100589190610356565b6100bf565b005b610079600480360381019061007491906103b3565b610121565b604051610086919061044e565b60405180910390f35b6100a960048036038101906100a491906104a1565b6101f9565b6040516100b6919061044e565b60405180910390f35b5f8373ffffffffffffffffffffffffffffffffffffffff16803b806020016040519081016040528181525f908060200190933c80519060200120905082825f808481526020019081526020015f20918261011a929190610706565b5050505050565b60605f808373ffffffffffffffffffffffffffffffffffffffff16803b806020016040519081016040528181525f908060200190933c8051906020012081526020019081526020015f20805461017690610530565b80601f01602080910402602001604051908101604052809291908181526020018280546101a290610530565b80156101ed5780601f106101c4576101008083540402835291602001916101ed565b820191905f5260205f20905b8154815290600101906020018083116101d057829003601f168201915b50505050509050919050565b5f602052805f5260405f205f91509050805461021490610530565b80601f016020809104026020016040519081016040528092919081815260200182805461024090610530565b801561028b5780601f106102625761010080835404028352916020019161028b565b820191905f5260205f20905b81548152906001019060200180831161026e57829003601f168201915b505050505081565b5f80fd5b5f80fd5b5f73ffffffffffffffffffffffffffffffffffffffff82169050919050565b5f6102c48261029b565b9050919050565b6102d4816102ba565b81146102de575f80fd5b50565b5f813590506102ef816102cb565b92915050565b5f80fd5b5f80fd5b5f80fd5b5f8083601f840112610316576103156102f5565b5b8235905067ffffffffffffffff811115610333576103326102f9565b5b60208301915083600182028301111561034f5761034e6102fd565b5b9250929050565b5f805f6040848603121561036d5761036c610293565b5b5f61037a868287016102e1565b935050602084013567ffffffffffffffff81111561039b5761039a610297565b5b6103a786828701610301565b92509250509250925092565b5f602082840312156103c8576103c7610293565b5b5f6103d5848285016102e1565b91505092915050565b5f81519050919050565b5f82825260208201905092915050565b8281835e5f83830152505050565b5f601f19601f8301169050919050565b5f610420826103de565b61042a81856103e8565b935061043a8185602086016103f8565b61044381610406565b840191505092915050565b5f6020820190508181035f8301526104668184610416565b905092915050565b5f819050919050565b6104808161046e565b811461048a575f80fd5b50565b5f8135905061049b81610477565b92915050565b5f602082840312156104b6576104b5610293565b5b5f6104c38482850161048d565b91505092915050565b5f82905092915050565b7f4e487b71000000000000000000000000000000000000000000000000000000005f52604160045260245ffd5b7f4e487b71000000000000000000000000000000000000000000000000000000005f52602260045260245ffd5b5f600282049050600182168061054757607f821691505b60208210810361055a57610559610503565b5b50919050565b5f819050815f5260205f209050919050565b5f6020601f8301049050919050565b5f82821b905092915050565b5f600883026105bc7fffffffffffffffffffffffffffffffffffffffffffffffffffffffffffffffff82610581565b6105c68683610581565b95508019841693508086168417925050509392505050565b5f819050919050565b5f819050919050565b5f61060a610605610600846105de565b6105e7565b6105de565b9050919050565b5f819050919050565b610623836105f0565b61063761062f82610611565b84845461058d565b825550505050565b5f90565b61064b61063f565b61065681848461061a565b505050565b5b818110156106795761066e5f82610643565b60018101905061065c565b5050565b601f8211156106be5761068f81610560565b61069884610572565b810160208510156106a7578190505b6106bb6106b385610572565b83018261065b565b50505b505050565b5f82821c905092915050565b5f6106de5f19846008026106c3565b1980831691505092915050565b5f6106f683836106cf565b9150826002028217905092915050565b61071083836104cc565b67ffffffffffffffff811115610729576107286104d6565b5b6107338254610530565b61073e82828561067d565b5f601f83116001811461076b575f8415610759578287013590505b61076385826106eb565b8655506107ca565b601f19841661077986610560565b5f5b828110156107a05784890135825560018201915060208501945060208101905061077b565b868310156107bd57848901356107b9601f8916826106cf565b8355505b6001600288020188555050505b5050505050505056fea26469706673582212206d5acbdb001ef8f69bb4b6469c22c89636eba3f289e4265c15352a4582e9b6c764736f6c634300081a0033",
					"opcodes": "PUSH1 0x80 PUSH1 0x40 MSTORE CALLVALUE DUP1 ISZERO PUSH1 0xE JUMPI PUSH0 DUP1 REVERT JUMPDEST POP PUSH2 0x809 DUP1 PUSH2 0x1C PUSH0 CODECOPY PUSH0 RETURN INVALID PUSH1 0x80 PUSH1 0x40 MSTORE CALLVALUE DUP1 ISZERO PUSH2 0xF JUMPI PUSH0 DUP1 REVERT JUMPDEST POP PUSH1 0x4 CALLDATASIZE LT PUSH2 0x3F JUMPI PUSH0 CALLDATALOAD PUSH1 0xE0 SHR DUP1 PUSH4 0x4F78C857 EQ PUSH2 0x43 JUMPI DUP1 PUSH4 0x55EA6C47 EQ PUSH2 0x5F JUMPI DUP1 PUSH4 0xC809DE53 EQ PUSH2 0x8F JUMPI JUMPDEST PUSH0 DUP1 REVERT JUMPDEST PUSH2 0x5D PUSH1 0x4 DUP1 CALLDATASIZE SUB DUP2 ADD SWAP1 PUSH2 0x58 SWAP2 SWAP1 PUSH2 0x356 JUMP JUMPDEST PUSH2 0xBF JUMP JUMPDEST STOP JUMPDEST PUSH2 0x79 PUSH1 0x4 DUP1 CALLDATASIZE SUB DUP2 ADD SWAP1 PUSH2 0x74 SWAP2 SWAP1 PUSH2 0x3B3 JUMP JUMPDEST PUSH2 0x121 JUMP JUMPDEST PUSH1 0x40 MLOAD PUSH2 0x86 SWAP2 SWAP1 PUSH2 0x44E JUMP JUMPDEST PUSH1 0x40 MLOAD DUP1 SWAP2 SUB SWAP1 RETURN JUMPDEST PUSH2 0xA9 PUSH1 0x4 DUP1 CALLDATASIZE SUB DUP2 ADD SWAP1 PUSH2 0xA4 SWAP2 SWAP1 PUSH2 0x4A1 JUMP JUMPDEST PUSH2 0x1F9 JUMP JUMPDEST PUSH1 0x40 MLOAD PUSH2 0xB6 SWAP2 SWAP1 PUSH2 0x44E JUMP JUMPDEST PUSH1 0x40 MLOAD DUP1 SWAP2 SUB SWAP1 RETURN JUMPDEST PUSH0 DUP4 PUSH20 0xFFFFFFFFFFFFFFFFFFFFFFFFFFFFFFFFFFFFFFFF AND DUP1 EXTCODESIZE DUP1 PUSH1 0x20 ADD PUSH1 0x40 MLOAD SWAP1 DUP2 ADD PUSH1 0x40 MSTORE DUP2 DUP2 MSTORE PUSH0 SWAP1 DUP1 PUSH1 0x20 ADD SWAP1 SWAP4 EXTCODECOPY DUP1 MLOAD SWAP1 PUSH1 0x20 ADD KECCAK256 SWAP1 POP DUP3 DUP3 PUSH0 DUP1 DUP5 DUP2 MSTORE PUSH1 0x20 ADD SWAP1 DUP2 MSTORE PUSH1 0x20 ADD PUSH0 KECCAK256 SWAP2 DUP3 PUSH2 0x11A SWAP3 SWAP2 SWAP1 PUSH2 0x706 JUMP JUMPDEST POP POP POP POP POP JUMP JUMPDEST PUSH1 0x60 PUSH0 DUP1 DUP4 PUSH20 0xFFFFFFFFFFFFFFFFFFFFFFFFFFFFFFFFFFFFFFFF AND DUP1 EXTCODESIZE DUP1 PUSH1 0x20 ADD PUSH1 0x40 MLOAD SWAP1 DUP2 ADD PUSH1 0x40 MSTORE DUP2 DUP2 MSTORE PUSH0 SWAP1 DUP1 PUSH1 0x20 ADD SWAP1 SWAP4 EXTCODECOPY DUP1 MLOAD SWAP1 PUSH1 0x20 ADD KECCAK256 DUP2 MSTORE PUSH1 0x20 ADD SWAP1 DUP2 MSTORE PUSH1 0x20 ADD PUSH0 KECCAK256 DUP1 SLOAD PUSH2 0x176 SWAP1 PUSH2 0x530 JUMP JUMPDEST DUP1 PUSH1 0x1F ADD PUSH1 0x20 DUP1 SWAP2 DIV MUL PUSH1 0x20 ADD PUSH1 0x40 MLOAD SWAP1 DUP2 ADD PUSH1 0x40 MSTORE DUP1 SWAP3 SWAP2 SWAP1 DUP2 DUP2 MSTORE PUSH1 0x20 ADD DUP3 DUP1 SLOAD PUSH2 0x1A2 SWAP1 PUSH2 0x530 JUMP JUMPDEST DUP1 ISZERO PUSH2 0x1ED JUMPI DUP1 PUSH1 0x1F LT PUSH2 0x1C4 JUMPI PUSH2 0x100 DUP1 DUP4 SLOAD DIV MUL DUP4 MSTORE SWAP2 PUSH1 0x20 ADD SWAP2 PUSH2 0x1ED JUMP JUMPDEST DUP3 ADD SWAP2 SWAP1 PUSH0 MSTORE PUSH1 0x20 PUSH0 KECCAK256 SWAP1 JUMPDEST DUP2 SLOAD DUP2 MSTORE SWAP1 PUSH1 0x1 ADD SWAP1 PUSH1 0x20 ADD DUP1 DUP4 GT PUSH2 0x1D0 JUMPI DUP3 SWAP1 SUB PUSH1 0x1F AND DUP3 ADD SWAP2 JUMPDEST POP POP POP POP POP SWAP1 POP SWAP2 SWAP1 POP JUMP JUMPDEST PUSH0 PUSH1 0x20 MSTORE DUP1 PUSH0 MSTORE PUSH1 0x40 PUSH0 KECCAK256 PUSH0 SWAP2 POP SWAP1 POP DUP1 SLOAD PUSH2 0x214 SWAP1 PUSH2 0x530 JUMP JUMPDEST DUP1 PUSH1 0x1F ADD PUSH1 0x20 DUP1 SWAP2 DIV MUL PUSH1 0x20 ADD PUSH1 0x40 MLOAD SWAP1 DUP2 ADD PUSH1 0x40 MSTORE DUP1 SWAP3 SWAP2 SWAP1 DUP2 DUP2 MSTORE PUSH1 0x20 ADD DUP3 DUP1 SLOAD PUSH2 0x240 SWAP1 PUSH2 0x530 JUMP JUMPDEST DUP1 ISZERO PUSH2 0x28B JUMPI DUP1 PUSH1 0x1F LT PUSH2 0x262 JUMPI PUSH2 0x100 DUP1 DUP4 SLOAD DIV MUL DUP4 MSTORE SWAP2 PUSH1 0x20 ADD SWAP2 PUSH2 0x28B JUMP JUMPDEST DUP3 ADD SWAP2 SWAP1 PUSH0 MSTORE PUSH1 0x20 PUSH0 KECCAK256 SWAP1 JUMPDEST DUP2 SLOAD DUP2 MSTORE SWAP1 PUSH1 0x1 ADD SWAP1 PUSH1 0x20 ADD DUP1 DUP4 GT PUSH2 0x26E JUMPI DUP3 SWAP1 SUB PUSH1 0x1F AND DUP3 ADD SWAP2 JUMPDEST POP POP POP POP POP DUP2 JUMP JUMPDEST PUSH0 DUP1 REVERT JUMPDEST PUSH0 DUP1 REVERT JUMPDEST PUSH0 PUSH20 0xFFFFFFFFFFFFFFFFFFFFFFFFFFFFFFFFFFFFFFFF DUP3 AND SWAP1 POP SWAP2 SWAP1 POP JUMP JUMPDEST PUSH0 PUSH2 0x2C4 DUP3 PUSH2 0x29B JUMP JUMPDEST SWAP1 POP SWAP2 SWAP1 POP JUMP JUMPDEST PUSH2 0x2D4 DUP2 PUSH2 0x2BA JUMP JUMPDEST DUP2 EQ PUSH2 0x2DE JUMPI PUSH0 DUP1 REVERT JUMPDEST POP JUMP JUMPDEST PUSH0 DUP2 CALLDATALOAD SWAP1 POP PUSH2 0x2EF DUP2 PUSH2 0x2CB JUMP JUMPDEST SWAP3 SWAP2 POP POP JUMP JUMPDEST PUSH0 DUP1 REVERT JUMPDEST PUSH0 DUP1 REVERT JUMPDEST PUSH0 DUP1 REVERT JUMPDEST PUSH0 DUP1 DUP4 PUSH1 0x1F DUP5 ADD SLT PUSH2 0x316 JUMPI PUSH2 0x315 PUSH2 0x2F5 JUMP JUMPDEST JUMPDEST DUP3 CALLDATALOAD SWAP1 POP PUSH8 0xFFFFFFFFFFFFFFFF DUP2 GT ISZERO PUSH2 0x333 JUMPI PUSH2 0x332 PUSH2 0x2F9 JUMP JUMPDEST JUMPDEST PUSH1 0x20 DUP4 ADD SWAP2 POP DUP4 PUSH1 0x1 DUP3 MUL DUP4 ADD GT ISZERO PUSH2 0x34F JUMPI PUSH2 0x34E PUSH2 0x2FD JUMP JUMPDEST JUMPDEST SWAP3 POP SWAP3 SWAP1 POP JUMP JUMPDEST PUSH0 DUP1 PUSH0 PUSH1 0x40 DUP5 DUP7 SUB SLT ISZERO PUSH2 0x36D JUMPI PUSH2 0x36C PUSH2 0x293 JUMP JUMPDEST JUMPDEST PUSH0 PUSH2 0x37A DUP7 DUP3 DUP8 ADD PUSH2 0x2E1 JUMP JUMPDEST SWAP4 POP POP PUSH1 0x20 DUP5 ADD CALLDATALOAD PUSH8 0xFFFFFFFFFFFFFFFF DUP2 GT ISZERO PUSH2 0x39B JUMPI PUSH2 0x39A PUSH2 0x297 JUMP JUMPDEST JUMPDEST PUSH2 0x3A7 DUP7 DUP3 DUP8 ADD PUSH2 0x301 JUMP JUMPDEST SWAP3 POP SWAP3 POP POP SWAP3 POP SWAP3 POP SWAP3 JUMP JUMPDEST PUSH0 PUSH1 0x20 DUP3 DUP5 SUB SLT ISZERO PUSH2 0x3C8 JUMPI PUSH2 0x3C7 PUSH2 0x293 JUMP JUMPDEST JUMPDEST PUSH0 PUSH2 0x3D5 DUP5 DUP3 DUP6 ADD PUSH2 0x2E1 JUMP JUMPDEST SWAP2 POP POP SWAP3 SWAP2 POP POP JUMP JUMPDEST PUSH0 DUP2 MLOAD SWAP1 POP SWAP2 SWAP1 POP JUMP JUMPDEST PUSH0 DUP3 DUP3 MSTORE PUSH1 0x20 DUP3 ADD SWAP1 POP SWAP3 SWAP2 POP POP JUMP JUMPDEST DUP3 DUP2 DUP4 MCOPY PUSH0 DUP4 DUP4 ADD MSTORE POP POP POP JUMP JUMPDEST PUSH0 PUSH1 0x1F NOT PUSH1 0x1F DUP4 ADD AND SWAP1 POP SWAP2 SWAP1 POP JUMP JUMPDEST PUSH0 PUSH2 0x420 DUP3 PUSH2 0x3DE JUMP JUMPDEST PUSH2 0x42A DUP2 DUP6 PUSH2 0x3E8 JUMP JUMPDEST SWAP4 POP PUSH2 0x43A DUP2 DUP6 PUSH1 0x20 DUP7 ADD PUSH2 0x3F8 JUMP JUMPDEST PUSH2 0x443 DUP2 PUSH2 0x406 JUMP JUMPDEST DUP5 ADD SWAP2 POP POP SWAP3 SWAP2 POP POP JUMP JUMPDEST PUSH0 PUSH1 0x20 DUP3 ADD SWAP1 POP DUP2 DUP2 SUB PUSH0 DUP4 ADD MSTORE PUSH2 0x466 DUP2 DUP5 PUSH2 0x416 JUMP JUMPDEST SWAP1 POP SWAP3 SWAP2 POP POP JUMP JUMPDEST PUSH0 DUP2 SWAP1 POP SWAP2 SWAP1 POP JUMP JUMPDEST PUSH2 0x480 DUP2 PUSH2 0x46E JUMP JUMPDEST DUP2 EQ PUSH2 0x48A JUMPI PUSH0 DUP1 REVERT JUMPDEST POP JUMP JUMPDEST PUSH0 DUP2 CALLDATALOAD SWAP1 POP PUSH2 0x49B DUP2 PUSH2 0x477 JUMP JUMPDEST SWAP3 SWAP2 POP POP JUMP JUMPDEST PUSH0 PUSH1 0x20 DUP3 DUP5 SUB SLT ISZERO PUSH2 0x4B6 JUMPI PUSH2 0x4B5 PUSH2 0x293 JUMP JUMPDEST JUMPDEST PUSH0 PUSH2 0x4C3 DUP5 DUP3 DUP6 ADD PUSH2 0x48D JUMP JUMPDEST SWAP2 POP POP SWAP3 SWAP2 POP POP JUMP JUMPDEST PUSH0 DUP3 SWAP1 POP SWAP3 SWAP2 POP POP JUMP JUMPDEST PUSH32 0x4E487B7100000000000000000000000000000000000000000000000000000000 PUSH0 MSTORE PUSH1 0x41 PUSH1 0x4 MSTORE PUSH1 0x24 PUSH0 REVERT JUMPDEST PUSH32 0x4E487B7100000000000000000000000000000000000000000000000000000000 PUSH0 MSTORE PUSH1 0x22 PUSH1 0x4 MSTORE PUSH1 0x24 PUSH0 REVERT JUMPDEST PUSH0 PUSH1 0x2 DUP3 DIV SWAP1 POP PUSH1 0x1 DUP3 AND DUP1 PUSH2 0x547 JUMPI PUSH1 0x7F DUP3 AND SWAP2 POP JUMPDEST PUSH1 0x20 DUP3 LT DUP2 SUB PUSH2 0x55A JUMPI PUSH2 0x559 PUSH2 0x503 JUMP JUMPDEST JUMPDEST POP SWAP2 SWAP1 POP JUMP JUMPDEST PUSH0 DUP2 SWAP1 POP DUP2 PUSH0 MSTORE PUSH1 0x20 PUSH0 KECCAK256 SWAP1 POP SWAP2 SWAP1 POP JUMP JUMPDEST PUSH0 PUSH1 0x20 PUSH1 0x1F DUP4 ADD DIV SWAP1 POP SWAP2 SWAP1 POP JUMP JUMPDEST PUSH0 DUP3 DUP3 SHL SWAP1 POP SWAP3 SWAP2 POP POP JUMP JUMPDEST PUSH0 PUSH1 0x8 DUP4 MUL PUSH2 0x5BC PUSH32 0xFFFFFFFFFFFFFFFFFFFFFFFFFFFFFFFFFFFFFFFFFFFFFFFFFFFFFFFFFFFFFFFF DUP3 PUSH2 0x581 JUMP JUMPDEST PUSH2 0x5C6 DUP7 DUP4 PUSH2 0x581 JUMP JUMPDEST SWAP6 POP DUP1 NOT DUP5 AND SWAP4 POP DUP1 DUP7 AND DUP5 OR SWAP3 POP POP POP SWAP4 SWAP3 POP POP POP JUMP JUMPDEST PUSH0 DUP2 SWAP1 POP SWAP2 SWAP1 POP JUMP JUMPDEST PUSH0 DUP2 SWAP1 POP SWAP2 SWAP1 POP JUMP JUMPDEST PUSH0 PUSH2 0x60A PUSH2 0x605 PUSH2 0x600 DUP5 PUSH2 0x5DE JUMP JUMPDEST PUSH2 0x5E7 JUMP JUMPDEST PUSH2 0x5DE JUMP JUMPDEST SWAP1 POP SWAP2 SWAP1 POP JUMP JUMPDEST PUSH0 DUP2 SWAP1 POP SWAP2 SWAP1 POP JUMP JUMPDEST PUSH2 0x623 DUP4 PUSH2 0x5F0 JUMP JUMPDEST PUSH2 0x637 PUSH2 0x62F DUP3 PUSH2 0x611 JUMP JUMPDEST DUP5 DUP5 SLOAD PUSH2 0x58D JUMP JUMPDEST DUP3 SSTORE POP POP POP POP JUMP JUMPDEST PUSH0 SWAP1 JUMP JUMPDEST PUSH2 0x64B PUSH2 0x63F JUMP JUMPDEST PUSH2 0x656 DUP2 DUP5 DUP5 PUSH2 0x61A JUMP JUMPDEST POP POP POP JUMP JUMPDEST JUMPDEST DUP2 DUP2 LT ISZERO PUSH2 0x679 JUMPI PUSH2 0x66E PUSH0 DUP3 PUSH2 0x643 JUMP JUMPDEST PUSH1 0x1 DUP2 ADD SWAP1 POP PUSH2 0x65C JUMP JUMPDEST POP POP JUMP JUMPDEST PUSH1 0x1F DUP3 GT ISZERO PUSH2 0x6BE JUMPI PUSH2 0x68F DUP2 PUSH2 0x560 JUMP JUMPDEST PUSH2 0x698 DUP5 PUSH2 0x572 JUMP JUMPDEST DUP2 ADD PUSH1 0x20 DUP6 LT ISZERO PUSH2 0x6A7 JUMPI DUP2 SWAP1 POP JUMPDEST PUSH2 0x6BB PUSH2 0x6B3 DUP6 PUSH2 0x572 JUMP JUMPDEST DUP4 ADD DUP3 PUSH2 0x65B JUMP JUMPDEST POP POP JUMPDEST POP POP POP JUMP JUMPDEST PUSH0 DUP3 DUP3 SHR SWAP1 POP SWAP3 SWAP2 POP POP JUMP JUMPDEST PUSH0 PUSH2 0x6DE PUSH0 NOT DUP5 PUSH1 0x8 MUL PUSH2 0x6C3 JUMP JUMPDEST NOT DUP1 DUP4 AND SWAP2 POP POP SWAP3 SWAP2 POP POP JUMP JUMPDEST PUSH0 PUSH2 0x6F6 DUP4 DUP4 PUSH2 0x6CF JUMP JUMPDEST SWAP2 POP DUP3 PUSH1 0x2 MUL DUP3 OR SWAP1 POP SWAP3 SWAP2 POP POP JUMP JUMPDEST PUSH2 0x710 DUP4 DUP4 PUSH2 0x4CC JUMP JUMPDEST PUSH8 0xFFFFFFFFFFFFFFFF DUP2 GT ISZERO PUSH2 0x729 JUMPI PUSH2 0x728 PUSH2 0x4D6 JUMP JUMPDEST JUMPDEST PUSH2 0x733 DUP3 SLOAD PUSH2 0x530 JUMP JUMPDEST PUSH2 0x73E DUP3 DUP3 DUP6 PUSH2 0x67D JUMP JUMPDEST PUSH0 PUSH1 0x1F DUP4 GT PUSH1 0x1 DUP2 EQ PUSH2 0x76B JUMPI PUSH0 DUP5 ISZERO PUSH2 0x759 JUMPI DUP3 DUP8 ADD CALLDATALOAD SWAP1 POP JUMPDEST PUSH2 0x763 DUP6 DUP3 PUSH2 0x6EB JUMP JUMPDEST DUP7 SSTORE POP PUSH2 0x7CA JUMP JUMPDEST PUSH1 0x1F NOT DUP5 AND PUSH2 0x779 DUP7 PUSH2 0x560 JUMP JUMPDEST PUSH0 JUMPDEST DUP3 DUP2 LT ISZERO PUSH2 0x7A0 JUMPI DUP5 DUP10 ADD CALLDATALOAD DUP3 SSTORE PUSH1 0x1 DUP3 ADD SWAP2 POP PUSH1 0x20 DUP6 ADD SWAP5 POP PUSH1 0x20 DUP2 ADD SWAP1 POP PUSH2 0x77B JUMP JUMPDEST DUP7 DUP4 LT ISZERO PUSH2 0x7BD JUMPI DUP5 DUP10 ADD CALLDATALOAD PUSH2 0x7B9 PUSH1 0x1F DUP10 AND DUP3 PUSH2 0x6CF JUMP JUMPDEST DUP4 SSTORE POP JUMPDEST PUSH1 0x1 PUSH1 0x2 DUP9 MUL ADD DUP9 SSTORE POP POP POP JUMPDEST POP POP POP POP POP POP POP JUMP INVALID LOG2 PUSH5 0x6970667358 0x22 SLT KECCAK256 PUSH14 0x5ACBDB001EF8F69BB4B6469C22C8 SWAP7 CALLDATASIZE 0xEB LOG3 CALLCODE DUP10 0xE4 0x26 TLOAD ISZERO CALLDATALOAD 0x2A GASLIMIT DUP3 0xE9 0xB6 0xC7 PUSH5 0x736F6C6343 STOP ADDMOD BYTE STOP CALLER "
				},
				"gasEstimates": {
					"creation": {
						"codeDepositCost": "411400",
						"executionCost": "447",
						"totalCost": "411847"
					},
					"external": {
						"registerVersion(address,string)": "infinite",
						"resolve(address)": "infinite",
						"versionLabel(bytes32)": "infinite"
					}
				},
				"methodIdentifiers": {
					"registerVersion(address,string)": "4f78c857",
					"resolve(address)": "55ea6c47",
					"versionLabel(bytes32)": "c809de53"
				}
			},
			"storageLayout": {
				"storage": [
					{
						"astId": 4,
						"contract": "R/Reverse Address Resolution Protocol (RARP)/RARPBytecodeResolver.sol:RARPBytecodeResolver",
						"label": "versionLabel",
						"offset": 0,
						"slot": "0",
						"type": "t_mapping(t_bytes32,t_string_storage)"
					}
				],
				"types": {
					"t_bytes32": {
						"encoding": "inplace",
						"label": "bytes32",
						"numberOfBytes": "32"
					},
					"t_mapping(t_bytes32,t_string_storage)": {
						"encoding": "mapping",
						"key": "t_bytes32",
						"label": "mapping(bytes32 => string)",
						"numberOfBytes": "32",
						"value": "t_string_storage"
					},
					"t_string_storage": {
						"encoding": "bytes",
						"label": "string",
						"numberOfBytes": "32"
					}
				}
			},
			"userdoc": {
				"kind": "user",
				"methods": {},
				"version": 1
			}
		}
	}
}