{
	"data": {
		"bytecode": {
			"linkReferences": {},
			"object": "6080604052348015600e575f80fd5b506103908061001c5f395ff3fe608060405234801561000f575f80fd5b506004361061003f575f3560e01c806346ea68721461004357806382afd23b1461005f578063cb4a620b1461008f575b5f80fd5b61005d60048036038101906100589190610227565b6100c0565b005b61007960048036038101906100749190610227565b610171565b604051610086919061026c565b60405180910390f35b6100a960048036038101906100a49190610227565b610191565b6040516100b79291906102d3565b60405180910390f35b6100c95f6101d0565b5f6100d35f6101e4565b905060405180604001604052803373ffffffffffffffffffffffffffffffffffffffff16815260200183426101089190610327565b81525060015f8381526020019081526020015f205f820151815f015f6101000a81548173ffffffffffffffffffffffffffffffffffffffff021916908373ffffffffffffffffffffffffffffffffffffffff160217905550602082015181600101559050505050565b5f60015f8381526020019081526020015f20600101544211159050919050565b6001602052805f5260405f205f91509050805f015f9054906101000a900473ffffffffffffffffffffffffffffffffffffffff16908060010154905082565b6001815f015f828254019250508190555050565b5f815f01549050919050565b5f80fd5b5f819050919050565b610206816101f4565b8114610210575f80fd5b50565b5f81359050610221816101fd565b92915050565b5f6020828403121561023c5761023b6101f0565b5b5f61024984828501610213565b91505092915050565b5f8115159050919050565b61026681610252565b82525050565b5f60208201905061027f5f83018461025d565b92915050565b5f73ffffffffffffffffffffffffffffffffffffffff82169050919050565b5f6102ae82610285565b9050919050565b6102be816102a4565b82525050565b6102cd816101f4565b82525050565b5f6040820190506102e65f8301856102b5565b6102f360208301846102c4565b9392505050565b7f4e487b71000000000000000000000000000000000000000000000000000000005f52601160045260245ffd5b5f610331826101f4565b915061033c836101f4565b9250828201905080821115610354576103536102fa565b5b9291505056fea2646970667358221220c014d234de73b01932bc795673404edb60744992a4682675932e4cacaaf3e7db64736f6c634300081a0033",
			"opcodes": "PUSH1 0x80 PUSH1 0x40 MSTORE CALLVALUE DUP1 ISZERO PUSH1 0xE JUMPI PUSH0 DUP1 REVERT JUMPDEST POP PUSH2 0x390 DUP1 PUSH2 0x1C PUSH0 CODECOPY PUSH0 RETURN INVALID PUSH1 0x80 PUSH1 0x40 MSTORE CALLVALUE DUP1 ISZERO PUSH2 0xF JUMPI PUSH0 DUP1 REVERT JUMPDEST POP PUSH1 0x4 CALLDATASIZE LT PUSH2 0x3F JUMPI PUSH0 CALLDATALOAD PUSH1 0xE0 SHR DUP1 PUSH4 0x46EA6872 EQ PUSH2 0x43 JUMPI DUP1 PUSH4 0x82AFD23B EQ PUSH2 0x5F JUMPI DUP1 PUSH4 0xCB4A620B EQ PUSH2 0x8F JUMPI JUMPDEST PUSH0 DUP1 REVERT JUMPDEST PUSH2 0x5D PUSH1 0x4 DUP1 CALLDATASIZE SUB DUP2 ADD SWAP1 PUSH2 0x58 SWAP2 SWAP1 PUSH2 0x227 JUMP JUMPDEST PUSH2 0xC0 JUMP JUMPDEST STOP JUMPDEST PUSH2 0x79 PUSH1 0x4 DUP1 CALLDATASIZE SUB DUP2 ADD SWAP1 PUSH2 0x74 SWAP2 SWAP1 PUSH2 0x227 JUMP JUMPDEST PUSH2 0x171 JUMP JUMPDEST PUSH1 0x40 MLOAD PUSH2 0x86 SWAP2 SWAP1 PUSH2 0x26C JUMP JUMPDEST PUSH1 0x40 MLOAD DUP1 SWAP2 SUB SWAP1 RETURN JUMPDEST PUSH2 0xA9 PUSH1 0x4 DUP1 CALLDATASIZE SUB DUP2 ADD SWAP1 PUSH2 0xA4 SWAP2 SWAP1 PUSH2 0x227 JUMP JUMPDEST PUSH2 0x191 JUMP JUMPDEST PUSH1 0x40 MLOAD PUSH2 0xB7 SWAP3 SWAP2 SWAP1 PUSH2 0x2D3 JUMP JUMPDEST PUSH1 0x40 MLOAD DUP1 SWAP2 SUB SWAP1 RETURN JUMPDEST PUSH2 0xC9 PUSH0 PUSH2 0x1D0 JUMP JUMPDEST PUSH0 PUSH2 0xD3 PUSH0 PUSH2 0x1E4 JUMP JUMPDEST SWAP1 POP PUSH1 0x40 MLOAD DUP1 PUSH1 0x40 ADD PUSH1 0x40 MSTORE DUP1 CALLER PUSH20 0xFFFFFFFFFFFFFFFFFFFFFFFFFFFFFFFFFFFFFFFF AND DUP2 MSTORE PUSH1 0x20 ADD DUP4 TIMESTAMP PUSH2 0x108 SWAP2 SWAP1 PUSH2 0x327 JUMP JUMPDEST DUP2 MSTORE POP PUSH1 0x1 PUSH0 DUP4 DUP2 MSTORE PUSH1 0x20 ADD SWAP1 DUP2 MSTORE PUSH1 0x20 ADD PUSH0 KECCAK256 PUSH0 DUP3 ADD MLOAD DUP2 PUSH0 ADD PUSH0 PUSH2 0x100 EXP DUP2 SLOAD DUP2 PUSH20 0xFFFFFFFFFFFFFFFFFFFFFFFFFFFFFFFFFFFFFFFF MUL NOT AND SWAP1 DUP4 PUSH20 0xFFFFFFFFFFFFFFFFFFFFFFFFFFFFFFFFFFFFFFFF AND MUL OR SWAP1 SSTORE POP PUSH1 0x20 DUP3 ADD MLOAD DUP2 PUSH1 0x1 ADD SSTORE SWAP1 POP POP POP POP JUMP JUMPDEST PUSH0 PUSH1 0x1 PUSH0 DUP4 DUP2 MSTORE PUSH1 0x20 ADD SWAP1 DUP2 MSTORE PUSH1 0x20 ADD PUSH0 KECCAK256 PUSH1 0x1 ADD SLOAD TIMESTAMP GT ISZERO SWAP1 POP SWAP2 SWAP1 POP JUMP JUMPDEST PUSH1 0x1 PUSH1 0x20 MSTORE DUP1 PUSH0 MSTORE PUSH1 0x40 PUSH0 KECCAK256 PUSH0 SWAP2 POP SWAP1 POP DUP1 PUSH0 ADD PUSH0 SWAP1 SLOAD SWAP1 PUSH2 0x100 EXP SWAP1 DIV PUSH20 0xFFFFFFFFFFFFFFFFFFFFFFFFFFFFFFFFFFFFFFFF AND SWAP1 DUP1 PUSH1 0x1 ADD SLOAD SWAP1 POP DUP3 JUMP JUMPDEST PUSH1 0x1 DUP2 PUSH0 ADD PUSH0 DUP3 DUP3 SLOAD ADD SWAP3 POP POP DUP2 SWAP1 SSTORE POP POP JUMP JUMPDEST PUSH0 DUP2 PUSH0 ADD SLOAD SWAP1 POP SWAP2 SWAP1 POP JUMP JUMPDEST PUSH0 DUP1 REVERT JUMPDEST PUSH0 DUP2 SWAP1 POP SWAP2 SWAP1 POP JUMP JUMPDEST PUSH2 0x206 DUP2 PUSH2 0x1F4 JUMP JUMPDEST DUP2 EQ PUSH2 0x210 JUMPI PUSH0 DUP1 REVERT JUMPDEST POP JUMP JUMPDEST PUSH0 DUP2 CALLDATALOAD SWAP1 POP PUSH2 0x221 DUP2 PUSH2 0x1FD JUMP JUMPDEST SWAP3 SWAP2 POP POP JUMP JUMPDEST PUSH0 PUSH1 0x20 DUP3 DUP5 SUB SLT ISZERO PUSH2 0x23C JUMPI PUSH2 0x23B PUSH2 0x1F0 JUMP JUMPDEST JUMPDEST PUSH0 PUSH2 0x249 DUP5 DUP3 DUP6 ADD PUSH2 0x213 JUMP JUMPDEST SWAP2 POP POP SWAP3 SWAP2 POP POP JUMP JUMPDEST PUSH0 DUP2 ISZERO ISZERO SWAP1 POP SWAP2 SWAP1 POP JUMP JUMPDEST PUSH2 0x266 DUP2 PUSH2 0x252 JUMP JUMPDEST DUP3 MSTORE POP POP JUMP JUMPDEST PUSH0 PUSH1 0x20 DUP3 ADD SWAP1 POP PUSH2 0x27F PUSH0 DUP4 ADD DUP5 PUSH2 0x25D JUMP JUMPDEST SWAP3 SWAP2 POP POP JUMP JUMPDEST PUSH0 PUSH20 0xFFFFFFFFFFFFFFFFFFFFFFFFFFFFFFFFFFFFFFFF DUP3 AND SWAP1 POP SWAP2 SWAP1 POP JUMP JUMPDEST PUSH0 PUSH2 0x2AE DUP3 PUSH2 0x285 JUMP JUMPDEST SWAP1 POP SWAP2 SWAP1 POP JUMP JUMPDEST PUSH2 0x2BE DUP2 PUSH2 0x2A4 JUMP JUMPDEST DUP3 MSTORE POP POP JUMP JUMPDEST PUSH2 0x2CD DUP2 PUSH2 0x1F4 JUMP JUMPDEST DUP3 MSTORE POP POP JUMP JUMPDEST PUSH0 PUSH1 0x40 DUP3 ADD SWAP1 POP PUSH2 0x2E6 PUSH0 DUP4 ADD DUP6 PUSH2 0x2B5 JUMP JUMPDEST PUSH2 0x2F3 PUSH1 0x20 DUP4 ADD DUP5 PUSH2 0x2C4 JUMP JUMPDEST SWAP4 SWAP3 POP POP POP JUMP JUMPDEST PUSH32 0x4E487B7100000000000000000000000000000000000000000000000000000000 PUSH0 MSTORE PUSH1 0x11 PUSH1 0x4 MSTORE PUSH1 0x24 PUSH0 REVERT JUMPDEST PUSH0 PUSH2 0x331 DUP3 PUSH2 0x1F4 JUMP JUMPDEST SWAP2 POP PUSH2 0x33C DUP4 PUSH2 0x1F4 JUMP JUMPDEST SWAP3 POP DUP3 DUP3 ADD SWAP1 POP DUP1 DUP3 GT ISZERO PUSH2 0x354 JUMPI PUSH2 0x353 PUSH2 0x2FA JUMP JUMPDEST JUMPDEST SWAP3 SWAP2 POP POP JUMP INVALID LOG2 PUSH5 0x6970667358 0x22 SLT KECCAK256 0xC0 EQ 0xD2 CALLVALUE 0xDE PUSH20 0xB01932BC795673404EDB60744992A4682675932E 0x4C 0xAC 0xAA RETURN 0xE7 0xDB PUSH5 0x736F6C6343 STOP ADDMOD BYTE STOP CALLER "
		},
		"gasEstimates": {
			"creation": {
				"codeDepositCost": "182400",
				"executionCost": "224",
				"totalCost": "182624"
			},
			"external": {
				"createEphemeral(uint256)": "infinite",
				"ephemeralSlots(uint256)": "infinite",
				"isActive(uint256)": "2789"
			}
		},
		"methodIdentifiers": {
			"createEphemeral(uint256)": "46ea6872",
			"ephemeralSlots(uint256)": "cb4a620b",
			"isActive(uint256)": "82afd23b"
		}
	},
	"abi": [
		{
			"inputs": [
				{
					"internalType": "uint256",
					"name": "ttlSeconds",
					"type": "uint256"
				}
			],
			"name": "createEphemeral",
			"outputs": [],
			"stateMutability": "nonpayable",
			"type": "function"
		},
		{
			"inputs": [
				{
					"internalType": "uint256",
					"name": "",
					"type": "uint256"
				}
			],
			"name": "ephemeralSlots",
			"outputs": [
				{
					"internalType": "address",
					"name": "owner",
					"type": "address"
				},
				{
					"internalType": "uint256",
					"name": "expireAt",
					"type": "uint256"
				}
			],
			"stateMutability": "view",
			"type": "function"
		},
		{
			"inputs": [
				{
					"internalType": "uint256",
					"name": "ephemeralID",
					"type": "uint256"
				}
			],
			"name": "isActive",
			"outputs": [
				{
					"internalType": "bool",
					"name": "",
					"type": "bool"
				}
			],
			"stateMutability": "view",
			"type": "function"
		}
	]
}