{
	"F/Fault Line Attacks/Other – Merkle-Verified Plugin Registry.sol": {
		"PluginRegistry": {
			"abi": [
				{
					"inputs": [
						{
							"internalType": "bytes32",
							"name": "_root",
							"type": "bytes32"
						}
					],
					"stateMutability": "nonpayable",
					"type": "constructor"
				},
				{
					"inputs": [
						{
							"internalType": "address",
							"name": "plugin",
							"type": "address"
						},
						{
							"internalType": "bytes32[]",
							"name": "proof",
							"type": "bytes32[]"
						}
					],
					"name": "activatePlugin",
					"outputs": [],
					"stateMutability": "nonpayable",
					"type": "function"
				},
				{
					"inputs": [
						{
							"internalType": "address",
							"name": "",
							"type": "address"
						}
					],
					"name": "activated",
					"outputs": [
						{
							"internalType": "bool",
							"name": "",
							"type": "bool"
						}
					],
					"stateMutability": "view",
					"type": "function"
				},
				{
					"inputs": [],
					"name": "root",
					"outputs": [
						{
							"internalType": "bytes32",
							"name": "",
							"type": "bytes32"
						}
					],
					"stateMutability": "view",
					"type": "function"
				}
			],
			"devdoc": {
				"kind": "dev",
				"methods": {},
				"version": 1
			},
			"evm": {
				"assembly": "    /* \"F/Fault Line Attacks/Other \\xe2\\x80\\x93 Merkle-Verified Plugin Registry.sol\":219:681  contract PluginRegistry {... */\n  mstore(0x40, 0x80)\n    /* \"F/Fault Line Attacks/Other \\xe2\\x80\\x93 Merkle-Verified Plugin Registry.sol\":367:423  constructor(bytes32 _root) {... */\n  callvalue\n  dup1\n  iszero\n  tag_1\n  jumpi\n  0x00\n  dup1\n  revert\ntag_1:\n  pop\n  mload(0x40)\n  sub(codesize, bytecodeSize)\n  dup1\n  bytecodeSize\n  dup4\n  codecopy\n  dup2\n  dup2\n  add\n  0x40\n  mstore\n  dup2\n  add\n  swap1\n  tag_2\n  swap2\n  swap1\n  tag_3\n  jump\t// in\ntag_2:\n    /* \"F/Fault Line Attacks/Other \\xe2\\x80\\x93 Merkle-Verified Plugin Registry.sol\":411:416  _root */\n  dup1\n    /* \"F/Fault Line Attacks/Other \\xe2\\x80\\x93 Merkle-Verified Plugin Registry.sol\":404:408  root */\n  0x00\n    /* \"F/Fault Line Attacks/Other \\xe2\\x80\\x93 Merkle-Verified Plugin Registry.sol\":404:416  root = _root */\n  dup2\n  swap1\n  sstore\n  pop\n    /* \"F/Fault Line Attacks/Other \\xe2\\x80\\x93 Merkle-Verified Plugin Registry.sol\":367:423  constructor(bytes32 _root) {... */\n  pop\n    /* \"F/Fault Line Attacks/Other \\xe2\\x80\\x93 Merkle-Verified Plugin Registry.sol\":219:681  contract PluginRegistry {... */\n  jump(tag_6)\n    /* \"#utility.yul\":88:205   */\ntag_8:\n    /* \"#utility.yul\":197:198   */\n  0x00\n    /* \"#utility.yul\":194:195   */\n  dup1\n    /* \"#utility.yul\":187:199   */\n  revert\n    /* \"#utility.yul\":334:411   */\ntag_10:\n    /* \"#utility.yul\":371:378   */\n  0x00\n    /* \"#utility.yul\":400:405   */\n  dup2\n    /* \"#utility.yul\":389:405   */\n  swap1\n  pop\n    /* \"#utility.yul\":334:411   */\n  swap2\n  swap1\n  pop\n  jump\t// out\n    /* \"#utility.yul\":417:539   */\ntag_11:\n    /* \"#utility.yul\":490:514   */\n  tag_19\n    /* \"#utility.yul\":508:513   */\n  dup2\n    /* \"#utility.yul\":490:514   */\n  tag_10\n  jump\t// in\ntag_19:\n    /* \"#utility.yul\":483:488   */\n  dup2\n    /* \"#utility.yul\":480:515   */\n  eq\n    /* \"#utility.yul\":470:533   */\n  tag_20\n  jumpi\n    /* \"#utility.yul\":529:530   */\n  0x00\n    /* \"#utility.yul\":526:527   */\n  dup1\n    /* \"#utility.yul\":519:531   */\n  revert\n    /* \"#utility.yul\":470:533   */\ntag_20:\n    /* \"#utility.yul\":417:539   */\n  pop\n  jump\t// out\n    /* \"#utility.yul\":545:688   */\ntag_12:\n    /* \"#utility.yul\":602:607   */\n  0x00\n    /* \"#utility.yul\":633:639   */\n  dup2\n    /* \"#utility.yul\":627:640   */\n  mload\n    /* \"#utility.yul\":618:640   */\n  swap1\n  pop\n    /* \"#utility.yul\":649:682   */\n  tag_22\n    /* \"#utility.yul\":676:681   */\n  dup2\n    /* \"#utility.yul\":649:682   */\n  tag_11\n  jump\t// in\ntag_22:\n    /* \"#utility.yul\":545:688   */\n  swap3\n  swap2\n  pop\n  pop\n  jump\t// out\n    /* \"#utility.yul\":694:1045   */\ntag_3:\n    /* \"#utility.yul\":764:770   */\n  0x00\n    /* \"#utility.yul\":813:815   */\n  0x20\n    /* \"#utility.yul\":801:810   */\n  dup3\n    /* \"#utility.yul\":792:799   */\n  dup5\n    /* \"#utility.yul\":788:811   */\n  sub\n    /* \"#utility.yul\":784:816   */\n  slt\n    /* \"#utility.yul\":781:900   */\n  iszero\n  tag_24\n  jumpi\n    /* \"#utility.yul\":819:898   */\n  tag_25\n  tag_8\n  jump\t// in\ntag_25:\n    /* \"#utility.yul\":781:900   */\ntag_24:\n    /* \"#utility.yul\":939:940   */\n  0x00\n    /* \"#utility.yul\":964:1028   */\n  tag_26\n    /* \"#utility.yul\":1020:1027   */\n  dup5\n    /* \"#utility.yul\":1011:1017   */\n  dup3\n    /* \"#utility.yul\":1000:1009   */\n  dup6\n    /* \"#utility.yul\":996:1018   */\n  add\n    /* \"#utility.yul\":964:1028   */\n  tag_12\n  jump\t// in\ntag_26:\n    /* \"#utility.yul\":954:1028   */\n  swap2\n  pop\n    /* \"#utility.yul\":910:1038   */\n  pop\n    /* \"#utility.yul\":694:1045   */\n  swap3\n  swap2\n  pop\n  pop\n  jump\t// out\n    /* \"F/Fault Line Attacks/Other \\xe2\\x80\\x93 Merkle-Verified Plugin Registry.sol\":219:681  contract PluginRegistry {... */\ntag_6:\n  dataSize(sub_0)\n  dup1\n  dataOffset(sub_0)\n  0x00\n  codecopy\n  0x00\n  return\nstop\n\nsub_0: assembly {\n        /* \"F/Fault Line Attacks/Other \\xe2\\x80\\x93 Merkle-Verified Plugin Registry.sol\":219:681  contract PluginRegistry {... */\n      mstore(0x40, 0x80)\n      callvalue\n      dup1\n      iszero\n      tag_1\n      jumpi\n      0x00\n      dup1\n      revert\n    tag_1:\n      pop\n      jumpi(tag_2, lt(calldatasize, 0x04))\n      shr(0xe0, calldataload(0x00))\n      dup1\n      0x641bb74f\n      eq\n      tag_3\n      jumpi\n      dup1\n      0x779d8677\n      eq\n      tag_4\n      jumpi\n      dup1\n      0xebf0c717\n      eq\n      tag_5\n      jumpi\n    tag_2:\n      0x00\n      dup1\n      revert\n        /* \"F/Fault Line Attacks/Other \\xe2\\x80\\x93 Merkle-Verified Plugin Registry.sol\":429:679  function activatePlugin(address plugin, bytes32[] calldata proof) external {... */\n    tag_3:\n      tag_6\n      0x04\n      dup1\n      calldatasize\n      sub\n      dup2\n      add\n      swap1\n      tag_7\n      swap2\n      swap1\n      tag_8\n      jump\t// in\n    tag_7:\n      tag_9\n      jump\t// in\n    tag_6:\n      stop\n        /* \"F/Fault Line Attacks/Other \\xe2\\x80\\x93 Merkle-Verified Plugin Registry.sol\":319:360  mapping(address => bool) public activated */\n    tag_4:\n      tag_10\n      0x04\n      dup1\n      calldatasize\n      sub\n      dup2\n      add\n      swap1\n      tag_11\n      swap2\n      swap1\n      tag_12\n      jump\t// in\n    tag_11:\n      tag_13\n      jump\t// in\n    tag_10:\n      mload(0x40)\n      tag_14\n      swap2\n      swap1\n      tag_15\n      jump\t// in\n    tag_14:\n      mload(0x40)\n      dup1\n      swap2\n      sub\n      swap1\n      return\n        /* \"F/Fault Line Attacks/Other \\xe2\\x80\\x93 Merkle-Verified Plugin Registry.sol\":249:268  bytes32 public root */\n    tag_5:\n      tag_16\n      tag_17\n      jump\t// in\n    tag_16:\n      mload(0x40)\n      tag_18\n      swap2\n      swap1\n      tag_19\n      jump\t// in\n    tag_18:\n      mload(0x40)\n      dup1\n      swap2\n      sub\n      swap1\n      return\n        /* \"F/Fault Line Attacks/Other \\xe2\\x80\\x93 Merkle-Verified Plugin Registry.sol\":429:679  function activatePlugin(address plugin, bytes32[] calldata proof) external {... */\n    tag_9:\n        /* \"F/Fault Line Attacks/Other \\xe2\\x80\\x93 Merkle-Verified Plugin Registry.sol\":514:526  bytes32 leaf */\n      0x00\n        /* \"F/Fault Line Attacks/Other \\xe2\\x80\\x93 Merkle-Verified Plugin Registry.sol\":556:562  plugin */\n      dup4\n        /* \"F/Fault Line Attacks/Other \\xe2\\x80\\x93 Merkle-Verified Plugin Registry.sol\":539:563  abi.encodePacked(plugin) */\n      add(0x20, mload(0x40))\n      tag_21\n      swap2\n      swap1\n      tag_22\n      jump\t// in\n    tag_21:\n      mload(0x40)\n      0x20\n      dup2\n      dup4\n      sub\n      sub\n      dup2\n      mstore\n      swap1\n      0x40\n      mstore\n        /* \"F/Fault Line Attacks/Other \\xe2\\x80\\x93 Merkle-Verified Plugin Registry.sol\":529:564  keccak256(abi.encodePacked(plugin)) */\n      dup1\n      mload\n      swap1\n      0x20\n      add\n      keccak256\n        /* \"F/Fault Line Attacks/Other \\xe2\\x80\\x93 Merkle-Verified Plugin Registry.sol\":514:564  bytes32 leaf = keccak256(abi.encodePacked(plugin)) */\n      swap1\n      pop\n        /* \"F/Fault Line Attacks/Other \\xe2\\x80\\x93 Merkle-Verified Plugin Registry.sol\":582:619  MerkleProof.verify(proof, root, leaf) */\n      tag_23\n        /* \"F/Fault Line Attacks/Other \\xe2\\x80\\x93 Merkle-Verified Plugin Registry.sol\":601:606  proof */\n      dup4\n      dup4\n        /* \"F/Fault Line Attacks/Other \\xe2\\x80\\x93 Merkle-Verified Plugin Registry.sol\":582:619  MerkleProof.verify(proof, root, leaf) */\n      dup1\n      dup1\n      0x20\n      mul\n      0x20\n      add\n      mload(0x40)\n      swap1\n      dup2\n      add\n      0x40\n      mstore\n      dup1\n      swap4\n      swap3\n      swap2\n      swap1\n      dup2\n      dup2\n      mstore\n      0x20\n      add\n      dup4\n      dup4\n      0x20\n      mul\n      dup1\n      dup3\n      dup5\n      calldatacopy\n      0x00\n      dup2\n      dup5\n      add\n      mstore\n      not(0x1f)\n      0x1f\n      dup3\n      add\n      and\n      swap1\n      pop\n      dup1\n      dup4\n      add\n      swap3\n      pop\n      pop\n      pop\n      pop\n      pop\n      pop\n      pop\n        /* \"F/Fault Line Attacks/Other \\xe2\\x80\\x93 Merkle-Verified Plugin Registry.sol\":608:612  root */\n      sload(0x00)\n        /* \"F/Fault Line Attacks/Other \\xe2\\x80\\x93 Merkle-Verified Plugin Registry.sol\":614:618  leaf */\n      dup4\n        /* \"F/Fault Line Attacks/Other \\xe2\\x80\\x93 Merkle-Verified Plugin Registry.sol\":582:600  MerkleProof.verify */\n      tag_24\n        /* \"F/Fault Line Attacks/Other \\xe2\\x80\\x93 Merkle-Verified Plugin Registry.sol\":582:619  MerkleProof.verify(proof, root, leaf) */\n      jump\t// in\n    tag_23:\n        /* \"F/Fault Line Attacks/Other \\xe2\\x80\\x93 Merkle-Verified Plugin Registry.sol\":574:638  require(MerkleProof.verify(proof, root, leaf), \"Invalid plugin\") */\n      tag_25\n      jumpi\n      mload(0x40)\n      0x08c379a000000000000000000000000000000000000000000000000000000000\n      dup2\n      mstore\n      0x04\n      add\n      tag_26\n      swap1\n      tag_27\n      jump\t// in\n    tag_26:\n      mload(0x40)\n      dup1\n      swap2\n      sub\n      swap1\n      revert\n    tag_25:\n        /* \"F/Fault Line Attacks/Other \\xe2\\x80\\x93 Merkle-Verified Plugin Registry.sol\":668:672  true */\n      0x01\n        /* \"F/Fault Line Attacks/Other \\xe2\\x80\\x93 Merkle-Verified Plugin Registry.sol\":648:657  activated */\n      dup1\n        /* \"F/Fault Line Attacks/Other \\xe2\\x80\\x93 Merkle-Verified Plugin Registry.sol\":648:665  activated[plugin] */\n      0x00\n        /* \"F/Fault Line Attacks/Other \\xe2\\x80\\x93 Merkle-Verified Plugin Registry.sol\":658:664  plugin */\n      dup7\n        /* \"F/Fault Line Attacks/Other \\xe2\\x80\\x93 Merkle-Verified Plugin Registry.sol\":648:665  activated[plugin] */\n      0xffffffffffffffffffffffffffffffffffffffff\n      and\n      0xffffffffffffffffffffffffffffffffffffffff\n      and\n      dup2\n      mstore\n      0x20\n      add\n      swap1\n      dup2\n      mstore\n      0x20\n      add\n      0x00\n      keccak256\n      0x00\n        /* \"F/Fault Line Attacks/Other \\xe2\\x80\\x93 Merkle-Verified Plugin Registry.sol\":648:672  activated[plugin] = true */\n      0x0100\n      exp\n      dup2\n      sload\n      dup2\n      0xff\n      mul\n      not\n      and\n      swap1\n      dup4\n      iszero\n      iszero\n      mul\n      or\n      swap1\n      sstore\n      pop\n        /* \"F/Fault Line Attacks/Other \\xe2\\x80\\x93 Merkle-Verified Plugin Registry.sol\":504:679  {... */\n      pop\n        /* \"F/Fault Line Attacks/Other \\xe2\\x80\\x93 Merkle-Verified Plugin Registry.sol\":429:679  function activatePlugin(address plugin, bytes32[] calldata proof) external {... */\n      pop\n      pop\n      pop\n      jump\t// out\n        /* \"F/Fault Line Attacks/Other \\xe2\\x80\\x93 Merkle-Verified Plugin Registry.sol\":319:360  mapping(address => bool) public activated */\n    tag_13:\n      mstore(0x20, 0x01)\n      dup1\n      0x00\n      mstore\n      keccak256(0x00, 0x40)\n      0x00\n      swap2\n      pop\n      sload\n      swap1\n      0x0100\n      exp\n      swap1\n      div\n      0xff\n      and\n      dup2\n      jump\t// out\n        /* \"F/Fault Line Attacks/Other \\xe2\\x80\\x93 Merkle-Verified Plugin Registry.sol\":249:268  bytes32 public root */\n    tag_17:\n      sload(0x00)\n      dup2\n      jump\t// out\n        /* \"@openzeppelin/contracts/utils/cryptography/MerkleProof.sol\":1902:2056  function verify(bytes32[] memory proof, bytes32 root, bytes32 leaf) internal pure returns (bool) {... */\n    tag_24:\n        /* \"@openzeppelin/contracts/utils/cryptography/MerkleProof.sol\":1993:1997  bool */\n      0x00\n        /* \"@openzeppelin/contracts/utils/cryptography/MerkleProof.sol\":2045:2049  root */\n      dup3\n        /* \"@openzeppelin/contracts/utils/cryptography/MerkleProof.sol\":2016:2041  processProof(proof, leaf) */\n      tag_29\n        /* \"@openzeppelin/contracts/utils/cryptography/MerkleProof.sol\":2029:2034  proof */\n      dup6\n        /* \"@openzeppelin/contracts/utils/cryptography/MerkleProof.sol\":2036:2040  leaf */\n      dup5\n        /* \"@openzeppelin/contracts/utils/cryptography/MerkleProof.sol\":2016:2028  processProof */\n      tag_30\n        /* \"@openzeppelin/contracts/utils/cryptography/MerkleProof.sol\":2016:2041  processProof(proof, leaf) */\n      jump\t// in\n    tag_29:\n        /* \"@openzeppelin/contracts/utils/cryptography/MerkleProof.sol\":2016:2049  processProof(proof, leaf) == root */\n      eq\n        /* \"@openzeppelin/contracts/utils/cryptography/MerkleProof.sol\":2009:2049  return processProof(proof, leaf) == root */\n      swap1\n      pop\n        /* \"@openzeppelin/contracts/utils/cryptography/MerkleProof.sol\":1902:2056  function verify(bytes32[] memory proof, bytes32 root, bytes32 leaf) internal pure returns (bool) {... */\n      swap4\n      swap3\n      pop\n      pop\n      pop\n      jump\t// out\n        /* \"@openzeppelin/contracts/utils/cryptography/MerkleProof.sol\":2457:2765  function processProof(bytes32[] memory proof, bytes32 leaf) internal pure returns (bytes32) {... */\n    tag_30:\n        /* \"@openzeppelin/contracts/utils/cryptography/MerkleProof.sol\":2540:2547  bytes32 */\n      0x00\n        /* \"@openzeppelin/contracts/utils/cryptography/MerkleProof.sol\":2559:2579  bytes32 computedHash */\n      dup1\n        /* \"@openzeppelin/contracts/utils/cryptography/MerkleProof.sol\":2582:2586  leaf */\n      dup3\n        /* \"@openzeppelin/contracts/utils/cryptography/MerkleProof.sol\":2559:2586  bytes32 computedHash = leaf */\n      swap1\n      pop\n        /* \"@openzeppelin/contracts/utils/cryptography/MerkleProof.sol\":2601:2610  uint256 i */\n      0x00\n        /* \"@openzeppelin/contracts/utils/cryptography/MerkleProof.sol\":2596:2730  for (uint256 i = 0; i < proof.length; i++) {... */\n    tag_32:\n        /* \"@openzeppelin/contracts/utils/cryptography/MerkleProof.sol\":2620:2625  proof */\n      dup5\n        /* \"@openzeppelin/contracts/utils/cryptography/MerkleProof.sol\":2620:2632  proof.length */\n      mload\n        /* \"@openzeppelin/contracts/utils/cryptography/MerkleProof.sol\":2616:2617  i */\n      dup2\n        /* \"@openzeppelin/contracts/utils/cryptography/MerkleProof.sol\":2616:2632  i < proof.length */\n      lt\n        /* \"@openzeppelin/contracts/utils/cryptography/MerkleProof.sol\":2596:2730  for (uint256 i = 0; i < proof.length; i++) {... */\n      iszero\n      tag_33\n      jumpi\n        /* \"@openzeppelin/contracts/utils/cryptography/MerkleProof.sol\":2668:2719  Hashes.commutativeKeccak256(computedHash, proof[i]) */\n      tag_35\n        /* \"@openzeppelin/contracts/utils/cryptography/MerkleProof.sol\":2696:2708  computedHash */\n      dup3\n        /* \"@openzeppelin/contracts/utils/cryptography/MerkleProof.sol\":2710:2715  proof */\n      dup7\n        /* \"@openzeppelin/contracts/utils/cryptography/MerkleProof.sol\":2716:2717  i */\n      dup4\n        /* \"@openzeppelin/contracts/utils/cryptography/MerkleProof.sol\":2710:2718  proof[i] */\n      dup2\n      mload\n      dup2\n      lt\n      tag_36\n      jumpi\n      tag_37\n      tag_38\n      jump\t// in\n    tag_37:\n    tag_36:\n      0x20\n      mul\n      0x20\n      add\n      add\n      mload\n        /* \"@openzeppelin/contracts/utils/cryptography/MerkleProof.sol\":2668:2695  Hashes.commutativeKeccak256 */\n      tag_39\n        /* \"@openzeppelin/contracts/utils/cryptography/MerkleProof.sol\":2668:2719  Hashes.commutativeKeccak256(computedHash, proof[i]) */\n      jump\t// in\n    tag_35:\n        /* \"@openzeppelin/contracts/utils/cryptography/MerkleProof.sol\":2653:2719  computedHash = Hashes.commutativeKeccak256(computedHash, proof[i]) */\n      swap2\n      pop\n        /* \"@openzeppelin/contracts/utils/cryptography/MerkleProof.sol\":2634:2637  i++ */\n      dup1\n      dup1\n      0x01\n      add\n      swap2\n      pop\n      pop\n        /* \"@openzeppelin/contracts/utils/cryptography/MerkleProof.sol\":2596:2730  for (uint256 i = 0; i < proof.length; i++) {... */\n      jump(tag_32)\n    tag_33:\n      pop\n        /* \"@openzeppelin/contracts/utils/cryptography/MerkleProof.sol\":2746:2758  computedHash */\n      dup1\n        /* \"@openzeppelin/contracts/utils/cryptography/MerkleProof.sol\":2739:2758  return computedHash */\n      swap2\n      pop\n      pop\n        /* \"@openzeppelin/contracts/utils/cryptography/MerkleProof.sol\":2457:2765  function processProof(bytes32[] memory proof, bytes32 leaf) internal pure returns (bytes32) {... */\n      swap3\n      swap2\n      pop\n      pop\n      jump\t// out\n        /* \"@openzeppelin/contracts/utils/cryptography/Hashes.sol\":504:671  function commutativeKeccak256(bytes32 a, bytes32 b) internal pure returns (bytes32) {... */\n    tag_39:\n        /* \"@openzeppelin/contracts/utils/cryptography/Hashes.sol\":579:586  bytes32 */\n      0x00\n        /* \"@openzeppelin/contracts/utils/cryptography/Hashes.sol\":609:610  b */\n      dup2\n        /* \"@openzeppelin/contracts/utils/cryptography/Hashes.sol\":605:606  a */\n      dup4\n        /* \"@openzeppelin/contracts/utils/cryptography/Hashes.sol\":605:610  a < b */\n      lt\n        /* \"@openzeppelin/contracts/utils/cryptography/Hashes.sol\":605:664  a < b ? efficientKeccak256(a, b) : efficientKeccak256(b, a) */\n      tag_41\n      jumpi\n        /* \"@openzeppelin/contracts/utils/cryptography/Hashes.sol\":640:664  efficientKeccak256(b, a) */\n      tag_42\n        /* \"@openzeppelin/contracts/utils/cryptography/Hashes.sol\":659:660  b */\n      dup3\n        /* \"@openzeppelin/contracts/utils/cryptography/Hashes.sol\":662:663  a */\n      dup5\n        /* \"@openzeppelin/contracts/utils/cryptography/Hashes.sol\":640:658  efficientKeccak256 */\n      tag_43\n        /* \"@openzeppelin/contracts/utils/cryptography/Hashes.sol\":640:664  efficientKeccak256(b, a) */\n      jump\t// in\n    tag_42:\n        /* \"@openzeppelin/contracts/utils/cryptography/Hashes.sol\":605:664  a < b ? efficientKeccak256(a, b) : efficientKeccak256(b, a) */\n      jump(tag_44)\n    tag_41:\n        /* \"@openzeppelin/contracts/utils/cryptography/Hashes.sol\":613:637  efficientKeccak256(a, b) */\n      tag_45\n        /* \"@openzeppelin/contracts/utils/cryptography/Hashes.sol\":632:633  a */\n      dup4\n        /* \"@openzeppelin/contracts/utils/cryptography/Hashes.sol\":635:636  b */\n      dup4\n        /* \"@openzeppelin/contracts/utils/cryptography/Hashes.sol\":613:631  efficientKeccak256 */\n      tag_43\n        /* \"@openzeppelin/contracts/utils/cryptography/Hashes.sol\":613:637  efficientKeccak256(a, b) */\n      jump\t// in\n    tag_45:\n        /* \"@openzeppelin/contracts/utils/cryptography/Hashes.sol\":605:664  a < b ? efficientKeccak256(a, b) : efficientKeccak256(b, a) */\n    tag_44:\n        /* \"@openzeppelin/contracts/utils/cryptography/Hashes.sol\":598:664  return a < b ? efficientKeccak256(a, b) : efficientKeccak256(b, a) */\n      swap1\n      pop\n        /* \"@openzeppelin/contracts/utils/cryptography/Hashes.sol\":504:671  function commutativeKeccak256(bytes32 a, bytes32 b) internal pure returns (bytes32) {... */\n      swap3\n      swap2\n      pop\n      pop\n      jump\t// out\n        /* \"@openzeppelin/contracts/utils/cryptography/Hashes.sol\":791:1030  function efficientKeccak256(bytes32 a, bytes32 b) internal pure returns (bytes32 value) {... */\n    tag_43:\n        /* \"@openzeppelin/contracts/utils/cryptography/Hashes.sol\":864:877  bytes32 value */\n      0x00\n        /* \"@openzeppelin/contracts/utils/cryptography/Hashes.sol\":941:942  a */\n      dup3\n        /* \"@openzeppelin/contracts/utils/cryptography/Hashes.sol\":935:939  0x00 */\n      0x00\n        /* \"@openzeppelin/contracts/utils/cryptography/Hashes.sol\":928:943  mstore(0x00, a) */\n      mstore\n        /* \"@openzeppelin/contracts/utils/cryptography/Hashes.sol\":969:970  b */\n      dup2\n        /* \"@openzeppelin/contracts/utils/cryptography/Hashes.sol\":963:967  0x20 */\n      0x20\n        /* \"@openzeppelin/contracts/utils/cryptography/Hashes.sol\":956:971  mstore(0x20, b) */\n      mstore\n        /* \"@openzeppelin/contracts/utils/cryptography/Hashes.sol\":1009:1013  0x40 */\n      0x40\n        /* \"@openzeppelin/contracts/utils/cryptography/Hashes.sol\":1003:1007  0x00 */\n      0x00\n        /* \"@openzeppelin/contracts/utils/cryptography/Hashes.sol\":993:1014  keccak256(0x00, 0x40) */\n      keccak256\n        /* \"@openzeppelin/contracts/utils/cryptography/Hashes.sol\":984:1014  value := keccak256(0x00, 0x40) */\n      swap1\n      pop\n        /* \"@openzeppelin/contracts/utils/cryptography/Hashes.sol\":791:1030  function efficientKeccak256(bytes32 a, bytes32 b) internal pure returns (bytes32 value) {... */\n      swap3\n      swap2\n      pop\n      pop\n      jump\t// out\n        /* \"#utility.yul\":88:205   */\n    tag_48:\n        /* \"#utility.yul\":197:198   */\n      0x00\n        /* \"#utility.yul\":194:195   */\n      dup1\n        /* \"#utility.yul\":187:199   */\n      revert\n        /* \"#utility.yul\":211:328   */\n    tag_49:\n        /* \"#utility.yul\":320:321   */\n      0x00\n        /* \"#utility.yul\":317:318   */\n      dup1\n        /* \"#utility.yul\":310:322   */\n      revert\n        /* \"#utility.yul\":334:460   */\n    tag_50:\n        /* \"#utility.yul\":371:378   */\n      0x00\n        /* \"#utility.yul\":411:453   */\n      0xffffffffffffffffffffffffffffffffffffffff\n        /* \"#utility.yul\":404:409   */\n      dup3\n        /* \"#utility.yul\":400:454   */\n      and\n        /* \"#utility.yul\":389:454   */\n      swap1\n      pop\n        /* \"#utility.yul\":334:460   */\n      swap2\n      swap1\n      pop\n      jump\t// out\n        /* \"#utility.yul\":466:562   */\n    tag_51:\n        /* \"#utility.yul\":503:510   */\n      0x00\n        /* \"#utility.yul\":532:556   */\n      tag_75\n        /* \"#utility.yul\":550:555   */\n      dup3\n        /* \"#utility.yul\":532:556   */\n      tag_50\n      jump\t// in\n    tag_75:\n        /* \"#utility.yul\":521:556   */\n      swap1\n      pop\n        /* \"#utility.yul\":466:562   */\n      swap2\n      swap1\n      pop\n      jump\t// out\n        /* \"#utility.yul\":568:690   */\n    tag_52:\n        /* \"#utility.yul\":641:665   */\n      tag_77\n        /* \"#utility.yul\":659:664   */\n      dup2\n        /* \"#utility.yul\":641:665   */\n      tag_51\n      jump\t// in\n    tag_77:\n        /* \"#utility.yul\":634:639   */\n      dup2\n        /* \"#utility.yul\":631:666   */\n      eq\n        /* \"#utility.yul\":621:684   */\n      tag_78\n      jumpi\n        /* \"#utility.yul\":680:681   */\n      0x00\n        /* \"#utility.yul\":677:678   */\n      dup1\n        /* \"#utility.yul\":670:682   */\n      revert\n        /* \"#utility.yul\":621:684   */\n    tag_78:\n        /* \"#utility.yul\":568:690   */\n      pop\n      jump\t// out\n        /* \"#utility.yul\":696:835   */\n    tag_53:\n        /* \"#utility.yul\":742:747   */\n      0x00\n        /* \"#utility.yul\":780:786   */\n      dup2\n        /* \"#utility.yul\":767:787   */\n      calldataload\n        /* \"#utility.yul\":758:787   */\n      swap1\n      pop\n        /* \"#utility.yul\":796:829   */\n      tag_80\n        /* \"#utility.yul\":823:828   */\n      dup2\n        /* \"#utility.yul\":796:829   */\n      tag_52\n      jump\t// in\n    tag_80:\n        /* \"#utility.yul\":696:835   */\n      swap3\n      swap2\n      pop\n      pop\n      jump\t// out\n        /* \"#utility.yul\":841:958   */\n    tag_54:\n        /* \"#utility.yul\":950:951   */\n      0x00\n        /* \"#utility.yul\":947:948   */\n      dup1\n        /* \"#utility.yul\":940:952   */\n      revert\n        /* \"#utility.yul\":964:1081   */\n    tag_55:\n        /* \"#utility.yul\":1073:1074   */\n      0x00\n        /* \"#utility.yul\":1070:1071   */\n      dup1\n        /* \"#utility.yul\":1063:1075   */\n      revert\n        /* \"#utility.yul\":1087:1204   */\n    tag_56:\n        /* \"#utility.yul\":1196:1197   */\n      0x00\n        /* \"#utility.yul\":1193:1194   */\n      dup1\n        /* \"#utility.yul\":1186:1198   */\n      revert\n        /* \"#utility.yul\":1227:1795   */\n    tag_57:\n        /* \"#utility.yul\":1300:1308   */\n      0x00\n        /* \"#utility.yul\":1310:1316   */\n      dup1\n        /* \"#utility.yul\":1360:1363   */\n      dup4\n        /* \"#utility.yul\":1353:1357   */\n      0x1f\n        /* \"#utility.yul\":1345:1351   */\n      dup5\n        /* \"#utility.yul\":1341:1358   */\n      add\n        /* \"#utility.yul\":1337:1364   */\n      slt\n        /* \"#utility.yul\":1327:1449   */\n      tag_85\n      jumpi\n        /* \"#utility.yul\":1368:1447   */\n      tag_86\n      tag_54\n      jump\t// in\n    tag_86:\n        /* \"#utility.yul\":1327:1449   */\n    tag_85:\n        /* \"#utility.yul\":1481:1487   */\n      dup3\n        /* \"#utility.yul\":1468:1488   */\n      calldataload\n        /* \"#utility.yul\":1458:1488   */\n      swap1\n      pop\n        /* \"#utility.yul\":1511:1529   */\n      0xffffffffffffffff\n        /* \"#utility.yul\":1503:1509   */\n      dup2\n        /* \"#utility.yul\":1500:1530   */\n      gt\n        /* \"#utility.yul\":1497:1614   */\n      iszero\n      tag_87\n      jumpi\n        /* \"#utility.yul\":1533:1612   */\n      tag_88\n      tag_55\n      jump\t// in\n    tag_88:\n        /* \"#utility.yul\":1497:1614   */\n    tag_87:\n        /* \"#utility.yul\":1647:1651   */\n      0x20\n        /* \"#utility.yul\":1639:1645   */\n      dup4\n        /* \"#utility.yul\":1635:1652   */\n      add\n        /* \"#utility.yul\":1623:1652   */\n      swap2\n      pop\n        /* \"#utility.yul\":1701:1704   */\n      dup4\n        /* \"#utility.yul\":1693:1697   */\n      0x20\n        /* \"#utility.yul\":1685:1691   */\n      dup3\n        /* \"#utility.yul\":1681:1698   */\n      mul\n        /* \"#utility.yul\":1671:1679   */\n      dup4\n        /* \"#utility.yul\":1667:1699   */\n      add\n        /* \"#utility.yul\":1664:1705   */\n      gt\n        /* \"#utility.yul\":1661:1789   */\n      iszero\n      tag_89\n      jumpi\n        /* \"#utility.yul\":1708:1787   */\n      tag_90\n      tag_56\n      jump\t// in\n    tag_90:\n        /* \"#utility.yul\":1661:1789   */\n    tag_89:\n        /* \"#utility.yul\":1227:1795   */\n      swap3\n      pop\n      swap3\n      swap1\n      pop\n      jump\t// out\n        /* \"#utility.yul\":1801:2505   */\n    tag_8:\n        /* \"#utility.yul\":1896:1902   */\n      0x00\n        /* \"#utility.yul\":1904:1910   */\n      dup1\n        /* \"#utility.yul\":1912:1918   */\n      0x00\n        /* \"#utility.yul\":1961:1963   */\n      0x40\n        /* \"#utility.yul\":1949:1958   */\n      dup5\n        /* \"#utility.yul\":1940:1947   */\n      dup7\n        /* \"#utility.yul\":1936:1959   */\n      sub\n        /* \"#utility.yul\":1932:1964   */\n      slt\n        /* \"#utility.yul\":1929:2048   */\n      iszero\n      tag_92\n      jumpi\n        /* \"#utility.yul\":1967:2046   */\n      tag_93\n      tag_48\n      jump\t// in\n    tag_93:\n        /* \"#utility.yul\":1929:2048   */\n    tag_92:\n        /* \"#utility.yul\":2087:2088   */\n      0x00\n        /* \"#utility.yul\":2112:2165   */\n      tag_94\n        /* \"#utility.yul\":2157:2164   */\n      dup7\n        /* \"#utility.yul\":2148:2154   */\n      dup3\n        /* \"#utility.yul\":2137:2146   */\n      dup8\n        /* \"#utility.yul\":2133:2155   */\n      add\n        /* \"#utility.yul\":2112:2165   */\n      tag_53\n      jump\t// in\n    tag_94:\n        /* \"#utility.yul\":2102:2165   */\n      swap4\n      pop\n        /* \"#utility.yul\":2058:2175   */\n      pop\n        /* \"#utility.yul\":2242:2244   */\n      0x20\n        /* \"#utility.yul\":2231:2240   */\n      dup5\n        /* \"#utility.yul\":2227:2245   */\n      add\n        /* \"#utility.yul\":2214:2246   */\n      calldataload\n        /* \"#utility.yul\":2273:2291   */\n      0xffffffffffffffff\n        /* \"#utility.yul\":2265:2271   */\n      dup2\n        /* \"#utility.yul\":2262:2292   */\n      gt\n        /* \"#utility.yul\":2259:2376   */\n      iszero\n      tag_95\n      jumpi\n        /* \"#utility.yul\":2295:2374   */\n      tag_96\n      tag_49\n      jump\t// in\n    tag_96:\n        /* \"#utility.yul\":2259:2376   */\n    tag_95:\n        /* \"#utility.yul\":2408:2488   */\n      tag_97\n        /* \"#utility.yul\":2480:2487   */\n      dup7\n        /* \"#utility.yul\":2471:2477   */\n      dup3\n        /* \"#utility.yul\":2460:2469   */\n      dup8\n        /* \"#utility.yul\":2456:2478   */\n      add\n        /* \"#utility.yul\":2408:2488   */\n      tag_57\n      jump\t// in\n    tag_97:\n        /* \"#utility.yul\":2390:2488   */\n      swap3\n      pop\n      swap3\n      pop\n        /* \"#utility.yul\":2185:2498   */\n      pop\n        /* \"#utility.yul\":1801:2505   */\n      swap3\n      pop\n      swap3\n      pop\n      swap3\n      jump\t// out\n        /* \"#utility.yul\":2511:2840   */\n    tag_12:\n        /* \"#utility.yul\":2570:2576   */\n      0x00\n        /* \"#utility.yul\":2619:2621   */\n      0x20\n        /* \"#utility.yul\":2607:2616   */\n      dup3\n        /* \"#utility.yul\":2598:2605   */\n      dup5\n        /* \"#utility.yul\":2594:2617   */\n      sub\n        /* \"#utility.yul\":2590:2622   */\n      slt\n        /* \"#utility.yul\":2587:2706   */\n      iszero\n      tag_99\n      jumpi\n        /* \"#utility.yul\":2625:2704   */\n      tag_100\n      tag_48\n      jump\t// in\n    tag_100:\n        /* \"#utility.yul\":2587:2706   */\n    tag_99:\n        /* \"#utility.yul\":2745:2746   */\n      0x00\n        /* \"#utility.yul\":2770:2823   */\n      tag_101\n        /* \"#utility.yul\":2815:2822   */\n      dup5\n        /* \"#utility.yul\":2806:2812   */\n      dup3\n        /* \"#utility.yul\":2795:2804   */\n      dup6\n        /* \"#utility.yul\":2791:2813   */\n      add\n        /* \"#utility.yul\":2770:2823   */\n      tag_53\n      jump\t// in\n    tag_101:\n        /* \"#utility.yul\":2760:2823   */\n      swap2\n      pop\n        /* \"#utility.yul\":2716:2833   */\n      pop\n        /* \"#utility.yul\":2511:2840   */\n      swap3\n      swap2\n      pop\n      pop\n      jump\t// out\n        /* \"#utility.yul\":2846:2936   */\n    tag_58:\n        /* \"#utility.yul\":2880:2887   */\n      0x00\n        /* \"#utility.yul\":2923:2928   */\n      dup2\n        /* \"#utility.yul\":2916:2929   */\n      iszero\n        /* \"#utility.yul\":2909:2930   */\n      iszero\n        /* \"#utility.yul\":2898:2930   */\n      swap1\n      pop\n        /* \"#utility.yul\":2846:2936   */\n      swap2\n      swap1\n      pop\n      jump\t// out\n        /* \"#utility.yul\":2942:3051   */\n    tag_59:\n        /* \"#utility.yul\":3023:3044   */\n      tag_104\n        /* \"#utility.yul\":3038:3043   */\n      dup2\n        /* \"#utility.yul\":3023:3044   */\n      tag_58\n      jump\t// in\n    tag_104:\n        /* \"#utility.yul\":3018:3021   */\n      dup3\n        /* \"#utility.yul\":3011:3045   */\n      mstore\n        /* \"#utility.yul\":2942:3051   */\n      pop\n      pop\n      jump\t// out\n        /* \"#utility.yul\":3057:3267   */\n    tag_15:\n        /* \"#utility.yul\":3144:3148   */\n      0x00\n        /* \"#utility.yul\":3182:3184   */\n      0x20\n        /* \"#utility.yul\":3171:3180   */\n      dup3\n        /* \"#utility.yul\":3167:3185   */\n      add\n        /* \"#utility.yul\":3159:3185   */\n      swap1\n      pop\n        /* \"#utility.yul\":3195:3260   */\n      tag_106\n        /* \"#utility.yul\":3257:3258   */\n      0x00\n        /* \"#utility.yul\":3246:3255   */\n      dup4\n        /* \"#utility.yul\":3242:3259   */\n      add\n        /* \"#utility.yul\":3233:3239   */\n      dup5\n        /* \"#utility.yul\":3195:3260   */\n      tag_59\n      jump\t// in\n    tag_106:\n        /* \"#utility.yul\":3057:3267   */\n      swap3\n      swap2\n      pop\n      pop\n      jump\t// out\n        /* \"#utility.yul\":3273:3350   */\n    tag_60:\n        /* \"#utility.yul\":3310:3317   */\n      0x00\n        /* \"#utility.yul\":3339:3344   */\n      dup2\n        /* \"#utility.yul\":3328:3344   */\n      swap1\n      pop\n        /* \"#utility.yul\":3273:3350   */\n      swap2\n      swap1\n      pop\n      jump\t// out\n        /* \"#utility.yul\":3356:3474   */\n    tag_61:\n        /* \"#utility.yul\":3443:3467   */\n      tag_109\n        /* \"#utility.yul\":3461:3466   */\n      dup2\n        /* \"#utility.yul\":3443:3467   */\n      tag_60\n      jump\t// in\n    tag_109:\n        /* \"#utility.yul\":3438:3441   */\n      dup3\n        /* \"#utility.yul\":3431:3468   */\n      mstore\n        /* \"#utility.yul\":3356:3474   */\n      pop\n      pop\n      jump\t// out\n        /* \"#utility.yul\":3480:3702   */\n    tag_19:\n        /* \"#utility.yul\":3573:3577   */\n      0x00\n        /* \"#utility.yul\":3611:3613   */\n      0x20\n        /* \"#utility.yul\":3600:3609   */\n      dup3\n        /* \"#utility.yul\":3596:3614   */\n      add\n        /* \"#utility.yul\":3588:3614   */\n      swap1\n      pop\n        /* \"#utility.yul\":3624:3695   */\n      tag_111\n        /* \"#utility.yul\":3692:3693   */\n      0x00\n        /* \"#utility.yul\":3681:3690   */\n      dup4\n        /* \"#utility.yul\":3677:3694   */\n      add\n        /* \"#utility.yul\":3668:3674   */\n      dup5\n        /* \"#utility.yul\":3624:3695   */\n      tag_61\n      jump\t// in\n    tag_111:\n        /* \"#utility.yul\":3480:3702   */\n      swap3\n      swap2\n      pop\n      pop\n      jump\t// out\n        /* \"#utility.yul\":3708:3802   */\n    tag_62:\n        /* \"#utility.yul\":3741:3749   */\n      0x00\n        /* \"#utility.yul\":3789:3794   */\n      dup2\n        /* \"#utility.yul\":3785:3787   */\n      0x60\n        /* \"#utility.yul\":3781:3795   */\n      shl\n        /* \"#utility.yul\":3760:3795   */\n      swap1\n      pop\n        /* \"#utility.yul\":3708:3802   */\n      swap2\n      swap1\n      pop\n      jump\t// out\n        /* \"#utility.yul\":3808:3902   */\n    tag_63:\n        /* \"#utility.yul\":3847:3854   */\n      0x00\n        /* \"#utility.yul\":3876:3896   */\n      tag_114\n        /* \"#utility.yul\":3890:3895   */\n      dup3\n        /* \"#utility.yul\":3876:3896   */\n      tag_62\n      jump\t// in\n    tag_114:\n        /* \"#utility.yul\":3865:3896   */\n      swap1\n      pop\n        /* \"#utility.yul\":3808:3902   */\n      swap2\n      swap1\n      pop\n      jump\t// out\n        /* \"#utility.yul\":3908:4008   */\n    tag_64:\n        /* \"#utility.yul\":3947:3954   */\n      0x00\n        /* \"#utility.yul\":3976:4002   */\n      tag_116\n        /* \"#utility.yul\":3996:4001   */\n      dup3\n        /* \"#utility.yul\":3976:4002   */\n      tag_63\n      jump\t// in\n    tag_116:\n        /* \"#utility.yul\":3965:4002   */\n      swap1\n      pop\n        /* \"#utility.yul\":3908:4008   */\n      swap2\n      swap1\n      pop\n      jump\t// out\n        /* \"#utility.yul\":4014:4171   */\n    tag_65:\n        /* \"#utility.yul\":4119:4164   */\n      tag_118\n        /* \"#utility.yul\":4139:4163   */\n      tag_119\n        /* \"#utility.yul\":4157:4162   */\n      dup3\n        /* \"#utility.yul\":4139:4163   */\n      tag_51\n      jump\t// in\n    tag_119:\n        /* \"#utility.yul\":4119:4164   */\n      tag_64\n      jump\t// in\n    tag_118:\n        /* \"#utility.yul\":4114:4117   */\n      dup3\n        /* \"#utility.yul\":4107:4165   */\n      mstore\n        /* \"#utility.yul\":4014:4171   */\n      pop\n      pop\n      jump\t// out\n        /* \"#utility.yul\":4177:4433   */\n    tag_22:\n        /* \"#utility.yul\":4289:4292   */\n      0x00\n        /* \"#utility.yul\":4304:4379   */\n      tag_121\n        /* \"#utility.yul\":4375:4378   */\n      dup3\n        /* \"#utility.yul\":4366:4372   */\n      dup5\n        /* \"#utility.yul\":4304:4379   */\n      tag_65\n      jump\t// in\n    tag_121:\n        /* \"#utility.yul\":4404:4406   */\n      0x14\n        /* \"#utility.yul\":4399:4402   */\n      dup3\n        /* \"#utility.yul\":4395:4407   */\n      add\n        /* \"#utility.yul\":4388:4407   */\n      swap2\n      pop\n        /* \"#utility.yul\":4424:4427   */\n      dup2\n        /* \"#utility.yul\":4417:4427   */\n      swap1\n      pop\n        /* \"#utility.yul\":4177:4433   */\n      swap3\n      swap2\n      pop\n      pop\n      jump\t// out\n        /* \"#utility.yul\":4439:4608   */\n    tag_66:\n        /* \"#utility.yul\":4523:4534   */\n      0x00\n        /* \"#utility.yul\":4557:4563   */\n      dup3\n        /* \"#utility.yul\":4552:4555   */\n      dup3\n        /* \"#utility.yul\":4545:4564   */\n      mstore\n        /* \"#utility.yul\":4597:4601   */\n      0x20\n        /* \"#utility.yul\":4592:4595   */\n      dup3\n        /* \"#utility.yul\":4588:4602   */\n      add\n        /* \"#utility.yul\":4573:4602   */\n      swap1\n      pop\n        /* \"#utility.yul\":4439:4608   */\n      swap3\n      swap2\n      pop\n      pop\n      jump\t// out\n        /* \"#utility.yul\":4614:4778   */\n    tag_67:\n        /* \"#utility.yul\":4754:4770   */\n      0x496e76616c696420706c7567696e000000000000000000000000000000000000\n        /* \"#utility.yul\":4750:4751   */\n      0x00\n        /* \"#utility.yul\":4742:4748   */\n      dup3\n        /* \"#utility.yul\":4738:4752   */\n      add\n        /* \"#utility.yul\":4731:4771   */\n      mstore\n        /* \"#utility.yul\":4614:4778   */\n      pop\n      jump\t// out\n        /* \"#utility.yul\":4784:5150   */\n    tag_68:\n        /* \"#utility.yul\":4926:4929   */\n      0x00\n        /* \"#utility.yul\":4947:5014   */\n      tag_125\n        /* \"#utility.yul\":5011:5013   */\n      0x0e\n        /* \"#utility.yul\":5006:5009   */\n      dup4\n        /* \"#utility.yul\":4947:5014   */\n      tag_66\n      jump\t// in\n    tag_125:\n        /* \"#utility.yul\":4940:5014   */\n      swap2\n      pop\n        /* \"#utility.yul\":5023:5116   */\n      tag_126\n        /* \"#utility.yul\":5112:5115   */\n      dup3\n        /* \"#utility.yul\":5023:5116   */\n      tag_67\n      jump\t// in\n    tag_126:\n        /* \"#utility.yul\":5141:5143   */\n      0x20\n        /* \"#utility.yul\":5136:5139   */\n      dup3\n        /* \"#utility.yul\":5132:5144   */\n      add\n        /* \"#utility.yul\":5125:5144   */\n      swap1\n      pop\n        /* \"#utility.yul\":4784:5150   */\n      swap2\n      swap1\n      pop\n      jump\t// out\n        /* \"#utility.yul\":5156:5575   */\n    tag_27:\n        /* \"#utility.yul\":5322:5326   */\n      0x00\n        /* \"#utility.yul\":5360:5362   */\n      0x20\n        /* \"#utility.yul\":5349:5358   */\n      dup3\n        /* \"#utility.yul\":5345:5363   */\n      add\n        /* \"#utility.yul\":5337:5363   */\n      swap1\n      pop\n        /* \"#utility.yul\":5409:5418   */\n      dup2\n        /* \"#utility.yul\":5403:5407   */\n      dup2\n        /* \"#utility.yul\":5399:5419   */\n      sub\n        /* \"#utility.yul\":5395:5396   */\n      0x00\n        /* \"#utility.yul\":5384:5393   */\n      dup4\n        /* \"#utility.yul\":5380:5397   */\n      add\n        /* \"#utility.yul\":5373:5420   */\n      mstore\n        /* \"#utility.yul\":5437:5568   */\n      tag_128\n        /* \"#utility.yul\":5563:5567   */\n      dup2\n        /* \"#utility.yul\":5437:5568   */\n      tag_68\n      jump\t// in\n    tag_128:\n        /* \"#utility.yul\":5429:5568   */\n      swap1\n      pop\n        /* \"#utility.yul\":5156:5575   */\n      swap2\n      swap1\n      pop\n      jump\t// out\n        /* \"#utility.yul\":5581:5761   */\n    tag_38:\n        /* \"#utility.yul\":5629:5706   */\n      0x4e487b7100000000000000000000000000000000000000000000000000000000\n        /* \"#utility.yul\":5626:5627   */\n      0x00\n        /* \"#utility.yul\":5619:5707   */\n      mstore\n        /* \"#utility.yul\":5726:5730   */\n      0x32\n        /* \"#utility.yul\":5723:5724   */\n      0x04\n        /* \"#utility.yul\":5716:5731   */\n      mstore\n        /* \"#utility.yul\":5750:5754   */\n      0x24\n        /* \"#utility.yul\":5747:5748   */\n      0x00\n        /* \"#utility.yul\":5740:5755   */\n      revert\n\n    auxdata: 0xa2646970667358221220bbf71e7adecc0411b84553badaa80c1d775994eea896dd532dc684e423ed1c5164736f6c634300081a0033\n}\n",
				"bytecode": {
					"linkReferences": {},
					"object": "6080604052348015600e575f80fd5b506040516106073803806106078339818101604052810190602e9190606b565b805f81905550506091565b5f80fd5b5f819050919050565b604d81603d565b81146056575f80fd5b50565b5f815190506065816046565b92915050565b5f60208284031215607d57607c6039565b5b5f6088848285016059565b91505092915050565b6105698061009e5f395ff3fe608060405234801561000f575f80fd5b506004361061003f575f3560e01c8063641bb74f14610043578063779d86771461005f578063ebf0c7171461008f575b5f80fd5b61005d60048036038101906100589190610343565b6100ad565b005b610079600480360381019061007491906103a0565b6101bc565b60405161008691906103e5565b60405180910390f35b6100976101d9565b6040516100a49190610416565b60405180910390f35b5f836040516020016100bf9190610474565b6040516020818303038152906040528051906020012090506101238383808060200260200160405190810160405280939291908181526020018383602002808284375f81840152601f19601f820116905080830192505050505050505f54836101de565b610162576040517f08c379a0000000000000000000000000000000000000000000000000000000008152600401610159906104e8565b60405180910390fd5b6001805f8673ffffffffffffffffffffffffffffffffffffffff1673ffffffffffffffffffffffffffffffffffffffff1681526020019081526020015f205f6101000a81548160ff02191690831515021790555050505050565b6001602052805f5260405f205f915054906101000a900460ff1681565b5f5481565b5f826101ea85846101f4565b1490509392505050565b5f808290505f5b8451811015610237576102288286838151811061021b5761021a610506565b5b6020026020010151610242565b915080806001019150506101fb565b508091505092915050565b5f81831061025957610254828461026c565b610264565b610263838361026c565b5b905092915050565b5f825f528160205260405f20905092915050565b5f80fd5b5f80fd5b5f73ffffffffffffffffffffffffffffffffffffffff82169050919050565b5f6102b182610288565b9050919050565b6102c1816102a7565b81146102cb575f80fd5b50565b5f813590506102dc816102b8565b92915050565b5f80fd5b5f80fd5b5f80fd5b5f8083601f840112610303576103026102e2565b5b8235905067ffffffffffffffff8111156103205761031f6102e6565b5b60208301915083602082028301111561033c5761033b6102ea565b5b9250929050565b5f805f6040848603121561035a57610359610280565b5b5f610367868287016102ce565b935050602084013567ffffffffffffffff81111561038857610387610284565b5b610394868287016102ee565b92509250509250925092565b5f602082840312156103b5576103b4610280565b5b5f6103c2848285016102ce565b91505092915050565b5f8115159050919050565b6103df816103cb565b82525050565b5f6020820190506103f85f8301846103d6565b92915050565b5f819050919050565b610410816103fe565b82525050565b5f6020820190506104295f830184610407565b92915050565b5f8160601b9050919050565b5f6104458261042f565b9050919050565b5f6104568261043b565b9050919050565b61046e610469826102a7565b61044c565b82525050565b5f61047f828461045d565b60148201915081905092915050565b5f82825260208201905092915050565b7f496e76616c696420706c7567696e0000000000000000000000000000000000005f82015250565b5f6104d2600e8361048e565b91506104dd8261049e565b602082019050919050565b5f6020820190508181035f8301526104ff816104c6565b9050919050565b7f4e487b71000000000000000000000000000000000000000000000000000000005f52603260045260245ffdfea2646970667358221220bbf71e7adecc0411b84553badaa80c1d775994eea896dd532dc684e423ed1c5164736f6c634300081a0033",
					"opcodes": "PUSH1 0x80 PUSH1 0x40 MSTORE CALLVALUE DUP1 ISZERO PUSH1 0xE JUMPI PUSH0 DUP1 REVERT JUMPDEST POP PUSH1 0x40 MLOAD PUSH2 0x607 CODESIZE SUB DUP1 PUSH2 0x607 DUP4 CODECOPY DUP2 DUP2 ADD PUSH1 0x40 MSTORE DUP2 ADD SWAP1 PUSH1 0x2E SWAP2 SWAP1 PUSH1 0x6B JUMP JUMPDEST DUP1 PUSH0 DUP2 SWAP1 SSTORE POP POP PUSH1 0x91 JUMP JUMPDEST PUSH0 DUP1 REVERT JUMPDEST PUSH0 DUP2 SWAP1 POP SWAP2 SWAP1 POP JUMP JUMPDEST PUSH1 0x4D DUP2 PUSH1 0x3D JUMP JUMPDEST DUP2 EQ PUSH1 0x56 JUMPI PUSH0 DUP1 REVERT JUMPDEST POP JUMP JUMPDEST PUSH0 DUP2 MLOAD SWAP1 POP PUSH1 0x65 DUP2 PUSH1 0x46 JUMP JUMPDEST SWAP3 SWAP2 POP POP JUMP JUMPDEST PUSH0 PUSH1 0x20 DUP3 DUP5 SUB SLT ISZERO PUSH1 0x7D JUMPI PUSH1 0x7C PUSH1 0x39 JUMP JUMPDEST JUMPDEST PUSH0 PUSH1 0x88 DUP5 DUP3 DUP6 ADD PUSH1 0x59 JUMP JUMPDEST SWAP2 POP POP SWAP3 SWAP2 POP POP JUMP JUMPDEST PUSH2 0x569 DUP1 PUSH2 0x9E PUSH0 CODECOPY PUSH0 RETURN INVALID PUSH1 0x80 PUSH1 0x40 MSTORE CALLVALUE DUP1 ISZERO PUSH2 0xF JUMPI PUSH0 DUP1 REVERT JUMPDEST POP PUSH1 0x4 CALLDATASIZE LT PUSH2 0x3F JUMPI PUSH0 CALLDATALOAD PUSH1 0xE0 SHR DUP1 PUSH4 0x641BB74F EQ PUSH2 0x43 JUMPI DUP1 PUSH4 0x779D8677 EQ PUSH2 0x5F JUMPI DUP1 PUSH4 0xEBF0C717 EQ PUSH2 0x8F JUMPI JUMPDEST PUSH0 DUP1 REVERT JUMPDEST PUSH2 0x5D PUSH1 0x4 DUP1 CALLDATASIZE SUB DUP2 ADD SWAP1 PUSH2 0x58 SWAP2 SWAP1 PUSH2 0x343 JUMP JUMPDEST PUSH2 0xAD JUMP JUMPDEST STOP JUMPDEST PUSH2 0x79 PUSH1 0x4 DUP1 CALLDATASIZE SUB DUP2 ADD SWAP1 PUSH2 0x74 SWAP2 SWAP1 PUSH2 0x3A0 JUMP JUMPDEST PUSH2 0x1BC JUMP JUMPDEST PUSH1 0x40 MLOAD PUSH2 0x86 SWAP2 SWAP1 PUSH2 0x3E5 JUMP JUMPDEST PUSH1 0x40 MLOAD DUP1 SWAP2 SUB SWAP1 RETURN JUMPDEST PUSH2 0x97 PUSH2 0x1D9 JUMP JUMPDEST PUSH1 0x40 MLOAD PUSH2 0xA4 SWAP2 SWAP1 PUSH2 0x416 JUMP JUMPDEST PUSH1 0x40 MLOAD DUP1 SWAP2 SUB SWAP1 RETURN JUMPDEST PUSH0 DUP4 PUSH1 0x40 MLOAD PUSH1 0x20 ADD PUSH2 0xBF SWAP2 SWAP1 PUSH2 0x474 JUMP JUMPDEST PUSH1 0x40 MLOAD PUSH1 0x20 DUP2 DUP4 SUB SUB DUP2 MSTORE SWAP1 PUSH1 0x40 MSTORE DUP1 MLOAD SWAP1 PUSH1 0x20 ADD KECCAK256 SWAP1 POP PUSH2 0x123 DUP4 DUP4 DUP1 DUP1 PUSH1 0x20 MUL PUSH1 0x20 ADD PUSH1 0x40 MLOAD SWAP1 DUP2 ADD PUSH1 0x40 MSTORE DUP1 SWAP4 SWAP3 SWAP2 SWAP1 DUP2 DUP2 MSTORE PUSH1 0x20 ADD DUP4 DUP4 PUSH1 0x20 MUL DUP1 DUP3 DUP5 CALLDATACOPY PUSH0 DUP2 DUP5 ADD MSTORE PUSH1 0x1F NOT PUSH1 0x1F DUP3 ADD AND SWAP1 POP DUP1 DUP4 ADD SWAP3 POP POP POP POP POP POP POP PUSH0 SLOAD DUP4 PUSH2 0x1DE JUMP JUMPDEST PUSH2 0x162 JUMPI PUSH1 0x40 MLOAD PUSH32 0x8C379A000000000000000000000000000000000000000000000000000000000 DUP2 MSTORE PUSH1 0x4 ADD PUSH2 0x159 SWAP1 PUSH2 0x4E8 JUMP JUMPDEST PUSH1 0x40 MLOAD DUP1 SWAP2 SUB SWAP1 REVERT JUMPDEST PUSH1 0x1 DUP1 PUSH0 DUP7 PUSH20 0xFFFFFFFFFFFFFFFFFFFFFFFFFFFFFFFFFFFFFFFF AND PUSH20 0xFFFFFFFFFFFFFFFFFFFFFFFFFFFFFFFFFFFFFFFF AND DUP2 MSTORE PUSH1 0x20 ADD SWAP1 DUP2 MSTORE PUSH1 0x20 ADD PUSH0 KECCAK256 PUSH0 PUSH2 0x100 EXP DUP2 SLOAD DUP2 PUSH1 0xFF MUL NOT AND SWAP1 DUP4 ISZERO ISZERO MUL OR SWAP1 SSTORE POP POP POP POP POP JUMP JUMPDEST PUSH1 0x1 PUSH1 0x20 MSTORE DUP1 PUSH0 MSTORE PUSH1 0x40 PUSH0 KECCAK256 PUSH0 SWAP2 POP SLOAD SWAP1 PUSH2 0x100 EXP SWAP1 DIV PUSH1 0xFF AND DUP2 JUMP JUMPDEST PUSH0 SLOAD DUP2 JUMP JUMPDEST PUSH0 DUP3 PUSH2 0x1EA DUP6 DUP5 PUSH2 0x1F4 JUMP JUMPDEST EQ SWAP1 POP SWAP4 SWAP3 POP POP POP JUMP JUMPDEST PUSH0 DUP1 DUP3 SWAP1 POP PUSH0 JUMPDEST DUP5 MLOAD DUP2 LT ISZERO PUSH2 0x237 JUMPI PUSH2 0x228 DUP3 DUP7 DUP4 DUP2 MLOAD DUP2 LT PUSH2 0x21B JUMPI PUSH2 0x21A PUSH2 0x506 JUMP JUMPDEST JUMPDEST PUSH1 0x20 MUL PUSH1 0x20 ADD ADD MLOAD PUSH2 0x242 JUMP JUMPDEST SWAP2 POP DUP1 DUP1 PUSH1 0x1 ADD SWAP2 POP POP PUSH2 0x1FB JUMP JUMPDEST POP DUP1 SWAP2 POP POP SWAP3 SWAP2 POP POP JUMP JUMPDEST PUSH0 DUP2 DUP4 LT PUSH2 0x259 JUMPI PUSH2 0x254 DUP3 DUP5 PUSH2 0x26C JUMP JUMPDEST PUSH2 0x264 JUMP JUMPDEST PUSH2 0x263 DUP4 DUP4 PUSH2 0x26C JUMP JUMPDEST JUMPDEST SWAP1 POP SWAP3 SWAP2 POP POP JUMP JUMPDEST PUSH0 DUP3 PUSH0 MSTORE DUP2 PUSH1 0x20 MSTORE PUSH1 0x40 PUSH0 KECCAK256 SWAP1 POP SWAP3 SWAP2 POP POP JUMP JUMPDEST PUSH0 DUP1 REVERT JUMPDEST PUSH0 DUP1 REVERT JUMPDEST PUSH0 PUSH20 0xFFFFFFFFFFFFFFFFFFFFFFFFFFFFFFFFFFFFFFFF DUP3 AND SWAP1 POP SWAP2 SWAP1 POP JUMP JUMPDEST PUSH0 PUSH2 0x2B1 DUP3 PUSH2 0x288 JUMP JUMPDEST SWAP1 POP SWAP2 SWAP1 POP JUMP JUMPDEST PUSH2 0x2C1 DUP2 PUSH2 0x2A7 JUMP JUMPDEST DUP2 EQ PUSH2 0x2CB JUMPI PUSH0 DUP1 REVERT JUMPDEST POP JUMP JUMPDEST PUSH0 DUP2 CALLDATALOAD SWAP1 POP PUSH2 0x2DC DUP2 PUSH2 0x2B8 JUMP JUMPDEST SWAP3 SWAP2 POP POP JUMP JUMPDEST PUSH0 DUP1 REVERT JUMPDEST PUSH0 DUP1 REVERT JUMPDEST PUSH0 DUP1 REVERT JUMPDEST PUSH0 DUP1 DUP4 PUSH1 0x1F DUP5 ADD SLT PUSH2 0x303 JUMPI PUSH2 0x302 PUSH2 0x2E2 JUMP JUMPDEST JUMPDEST DUP3 CALLDATALOAD SWAP1 POP PUSH8 0xFFFFFFFFFFFFFFFF DUP2 GT ISZERO PUSH2 0x320 JUMPI PUSH2 0x31F PUSH2 0x2E6 JUMP JUMPDEST JUMPDEST PUSH1 0x20 DUP4 ADD SWAP2 POP DUP4 PUSH1 0x20 DUP3 MUL DUP4 ADD GT ISZERO PUSH2 0x33C JUMPI PUSH2 0x33B PUSH2 0x2EA JUMP JUMPDEST JUMPDEST SWAP3 POP SWAP3 SWAP1 POP JUMP JUMPDEST PUSH0 DUP1 PUSH0 PUSH1 0x40 DUP5 DUP7 SUB SLT ISZERO PUSH2 0x35A JUMPI PUSH2 0x359 PUSH2 0x280 JUMP JUMPDEST JUMPDEST PUSH0 PUSH2 0x367 DUP7 DUP3 DUP8 ADD PUSH2 0x2CE JUMP JUMPDEST SWAP4 POP POP PUSH1 0x20 DUP5 ADD CALLDATALOAD PUSH8 0xFFFFFFFFFFFFFFFF DUP2 GT ISZERO PUSH2 0x388 JUMPI PUSH2 0x387 PUSH2 0x284 JUMP JUMPDEST JUMPDEST PUSH2 0x394 DUP7 DUP3 DUP8 ADD PUSH2 0x2EE JUMP JUMPDEST SWAP3 POP SWAP3 POP POP SWAP3 POP SWAP3 POP SWAP3 JUMP JUMPDEST PUSH0 PUSH1 0x20 DUP3 DUP5 SUB SLT ISZERO PUSH2 0x3B5 JUMPI PUSH2 0x3B4 PUSH2 0x280 JUMP JUMPDEST JUMPDEST PUSH0 PUSH2 0x3C2 DUP5 DUP3 DUP6 ADD PUSH2 0x2CE JUMP JUMPDEST SWAP2 POP POP SWAP3 SWAP2 POP POP JUMP JUMPDEST PUSH0 DUP2 ISZERO ISZERO SWAP1 POP SWAP2 SWAP1 POP JUMP JUMPDEST PUSH2 0x3DF DUP2 PUSH2 0x3CB JUMP JUMPDEST DUP3 MSTORE POP POP JUMP JUMPDEST PUSH0 PUSH1 0x20 DUP3 ADD SWAP1 POP PUSH2 0x3F8 PUSH0 DUP4 ADD DUP5 PUSH2 0x3D6 JUMP JUMPDEST SWAP3 SWAP2 POP POP JUMP JUMPDEST PUSH0 DUP2 SWAP1 POP SWAP2 SWAP1 POP JUMP JUMPDEST PUSH2 0x410 DUP2 PUSH2 0x3FE JUMP JUMPDEST DUP3 MSTORE POP POP JUMP JUMPDEST PUSH0 PUSH1 0x20 DUP3 ADD SWAP1 POP PUSH2 0x429 PUSH0 DUP4 ADD DUP5 PUSH2 0x407 JUMP JUMPDEST SWAP3 SWAP2 POP POP JUMP JUMPDEST PUSH0 DUP2 PUSH1 0x60 SHL SWAP1 POP SWAP2 SWAP1 POP JUMP JUMPDEST PUSH0 PUSH2 0x445 DUP3 PUSH2 0x42F JUMP JUMPDEST SWAP1 POP SWAP2 SWAP1 POP JUMP JUMPDEST PUSH0 PUSH2 0x456 DUP3 PUSH2 0x43B JUMP JUMPDEST SWAP1 POP SWAP2 SWAP1 POP JUMP JUMPDEST PUSH2 0x46E PUSH2 0x469 DUP3 PUSH2 0x2A7 JUMP JUMPDEST PUSH2 0x44C JUMP JUMPDEST DUP3 MSTORE POP POP JUMP JUMPDEST PUSH0 PUSH2 0x47F DUP3 DUP5 PUSH2 0x45D JUMP JUMPDEST PUSH1 0x14 DUP3 ADD SWAP2 POP DUP2 SWAP1 POP SWAP3 SWAP2 POP POP JUMP JUMPDEST PUSH0 DUP3 DUP3 MSTORE PUSH1 0x20 DUP3 ADD SWAP1 POP SWAP3 SWAP2 POP POP JUMP JUMPDEST PUSH32 0x496E76616C696420706C7567696E000000000000000000000000000000000000 PUSH0 DUP3 ADD MSTORE POP JUMP JUMPDEST PUSH0 PUSH2 0x4D2 PUSH1 0xE DUP4 PUSH2 0x48E JUMP JUMPDEST SWAP2 POP PUSH2 0x4DD DUP3 PUSH2 0x49E JUMP JUMPDEST PUSH1 0x20 DUP3 ADD SWAP1 POP SWAP2 SWAP1 POP JUMP JUMPDEST PUSH0 PUSH1 0x20 DUP3 ADD SWAP1 POP DUP2 DUP2 SUB PUSH0 DUP4 ADD MSTORE PUSH2 0x4FF DUP2 PUSH2 0x4C6 JUMP JUMPDEST SWAP1 POP SWAP2 SWAP1 POP JUMP JUMPDEST PUSH32 0x4E487B7100000000000000000000000000000000000000000000000000000000 PUSH0 MSTORE PUSH1 0x32 PUSH1 0x4 MSTORE PUSH1 0x24 PUSH0 REVERT INVALID LOG2 PUSH5 0x6970667358 0x22 SLT KECCAK256 0xBB 0xF7 0x1E PUSH27 0xDECC0411B84553BADAA80C1D775994EEA896DD532DC684E423ED1C MLOAD PUSH5 0x736F6C6343 STOP ADDMOD BYTE STOP CALLER "
				},
				"gasEstimates": {
					"creation": {
						"codeDepositCost": "277000",
						"executionCost": "infinite",
						"totalCost": "infinite"
					},
					"external": {
						"activatePlugin(address,bytes32[])": "infinite",
						"activated(address)": "2833",
						"root()": "2446"
					}
				},
				"methodIdentifiers": {
					"activatePlugin(address,bytes32[])": "641bb74f",
					"activated(address)": "779d8677",
					"root()": "ebf0c717"
				}
			},
			"storageLayout": {
				"storage": [
					{
						"astId": 1118,
						"contract": "F/Fault Line Attacks/Other – Merkle-Verified Plugin Registry.sol:PluginRegistry",
						"label": "root",
						"offset": 0,
						"slot": "0",
						"type": "t_bytes32"
					},
					{
						"astId": 1122,
						"contract": "F/Fault Line Attacks/Other – Merkle-Verified Plugin Registry.sol:PluginRegistry",
						"label": "activated",
						"offset": 0,
						"slot": "1",
						"type": "t_mapping(t_address,t_bool)"
					}
				],
				"types": {
					"t_address": {
						"encoding": "inplace",
						"label": "address",
						"numberOfBytes": "20"
					},
					"t_bool": {
						"encoding": "inplace",
						"label": "bool",
						"numberOfBytes": "1"
					},
					"t_bytes32": {
						"encoding": "inplace",
						"label": "bytes32",
						"numberOfBytes": "32"
					},
					"t_mapping(t_address,t_bool)": {
						"encoding": "mapping",
						"key": "t_address",
						"label": "mapping(address => bool)",
						"numberOfBytes": "32",
						"value": "t_bool"
					}
				}
			},
			"userdoc": {
				"kind": "user",
				"methods": {},
				"notice": "This Registry ensures only plugins with valid hashes (pre-approved) are added.",
				"version": 1
			}
		}
	}
}