{
	"O/Replay & Mutation Logger.sol": {
		"PreimageDriftTracker": {
			"abi": [
				{
					"anonymous": false,
					"inputs": [
						{
							"indexed": false,
							"internalType": "bytes32",
							"name": "hash",
							"type": "bytes32"
						},
						{
							"indexed": false,
							"internalType": "address",
							"name": "user",
							"type": "address"
						},
						{
							"indexed": false,
							"internalType": "uint256",
							"name": "count",
							"type": "uint256"
						}
					],
					"name": "Drift",
					"type": "event"
				},
				{
					"inputs": [
						{
							"internalType": "bytes32",
							"name": "hash",
							"type": "bytes32"
						}
					],
					"name": "getUsers",
					"outputs": [
						{
							"internalType": "address[]",
							"name": "",
							"type": "address[]"
						}
					],
					"stateMutability": "view",
					"type": "function"
				},
				{
					"inputs": [
						{
							"internalType": "bytes32",
							"name": "hash",
							"type": "bytes32"
						}
					],
					"name": "isReused",
					"outputs": [
						{
							"internalType": "bool",
							"name": "",
							"type": "bool"
						}
					],
					"stateMutability": "view",
					"type": "function"
				},
				{
					"inputs": [
						{
							"internalType": "string",
							"name": "preimage",
							"type": "string"
						}
					],
					"name": "track",
					"outputs": [],
					"stateMutability": "nonpayable",
					"type": "function"
				},
				{
					"inputs": [
						{
							"internalType": "bytes32",
							"name": "",
							"type": "bytes32"
						}
					],
					"name": "usage",
					"outputs": [
						{
							"internalType": "uint256",
							"name": "",
							"type": "uint256"
						}
					],
					"stateMutability": "view",
					"type": "function"
				},
				{
					"inputs": [
						{
							"internalType": "bytes32",
							"name": "",
							"type": "bytes32"
						},
						{
							"internalType": "uint256",
							"name": "",
							"type": "uint256"
						}
					],
					"name": "users",
					"outputs": [
						{
							"internalType": "address",
							"name": "",
							"type": "address"
						}
					],
					"stateMutability": "view",
					"type": "function"
				}
			],
			"devdoc": {
				"kind": "dev",
				"methods": {},
				"version": 1
			},
			"evm": {
				"assembly": "    /* \"O/Replay & Mutation Logger.sol\":0:645  contract PreimageDriftTracker {... */\n  mstore(0x40, 0x80)\n  callvalue\n  dup1\n  iszero\n  tag_1\n  jumpi\n  0x00\n  dup1\n  revert\ntag_1:\n  pop\n  dataSize(sub_0)\n  dup1\n  dataOffset(sub_0)\n  0x00\n  codecopy\n  0x00\n  return\nstop\n\nsub_0: assembly {\n        /* \"O/Replay & Mutation Logger.sol\":0:645  contract PreimageDriftTracker {... */\n      mstore(0x40, 0x80)\n      callvalue\n      dup1\n      iszero\n      tag_1\n      jumpi\n      0x00\n      dup1\n      revert\n    tag_1:\n      pop\n      jumpi(tag_2, lt(calldatasize, 0x04))\n      shr(0xe0, calldataload(0x00))\n      dup1\n      0x15a8c465\n      eq\n      tag_3\n      jumpi\n      dup1\n      0x4a8f2a54\n      eq\n      tag_4\n      jumpi\n      dup1\n      0x4ccea526\n      eq\n      tag_5\n      jumpi\n      dup1\n      0x7522b7d0\n      eq\n      tag_6\n      jumpi\n      dup1\n      0xb3f8675c\n      eq\n      tag_7\n      jumpi\n    tag_2:\n      0x00\n      dup1\n      revert\n        /* \"O/Replay & Mutation Logger.sol\":82:124  mapping(bytes32 => address[]) public users */\n    tag_3:\n      tag_8\n      0x04\n      dup1\n      calldatasize\n      sub\n      dup2\n      add\n      swap1\n      tag_9\n      swap2\n      swap1\n      tag_10\n      jump\t// in\n    tag_9:\n      tag_11\n      jump\t// in\n    tag_8:\n      mload(0x40)\n      tag_12\n      swap2\n      swap1\n      tag_13\n      jump\t// in\n    tag_12:\n      mload(0x40)\n      dup1\n      swap2\n      sub\n      swap1\n      return\n        /* \"O/Replay & Mutation Logger.sol\":36:76  mapping(bytes32 => uint256) public usage */\n    tag_4:\n      tag_14\n      0x04\n      dup1\n      calldatasize\n      sub\n      dup2\n      add\n      swap1\n      tag_15\n      swap2\n      swap1\n      tag_16\n      jump\t// in\n    tag_15:\n      tag_17\n      jump\t// in\n    tag_14:\n      mload(0x40)\n      tag_18\n      swap2\n      swap1\n      tag_19\n      jump\t// in\n    tag_18:\n      mload(0x40)\n      dup1\n      swap2\n      sub\n      swap1\n      return\n        /* \"O/Replay & Mutation Logger.sol\":535:643  function getUsers(bytes32 hash) external view returns (address[] memory) {... */\n    tag_5:\n      tag_20\n      0x04\n      dup1\n      calldatasize\n      sub\n      dup2\n      add\n      swap1\n      tag_21\n      swap2\n      swap1\n      tag_16\n      jump\t// in\n    tag_21:\n      tag_22\n      jump\t// in\n    tag_20:\n      mload(0x40)\n      tag_23\n      swap2\n      swap1\n      tag_24\n      jump\t// in\n    tag_23:\n      mload(0x40)\n      dup1\n      swap2\n      sub\n      swap1\n      return\n        /* \"O/Replay & Mutation Logger.sol\":429:529  function isReused(bytes32 hash) external view returns (bool) {... */\n    tag_6:\n      tag_25\n      0x04\n      dup1\n      calldatasize\n      sub\n      dup2\n      add\n      swap1\n      tag_26\n      swap2\n      swap1\n      tag_16\n      jump\t// in\n    tag_26:\n      tag_27\n      jump\t// in\n    tag_25:\n      mload(0x40)\n      tag_28\n      swap2\n      swap1\n      tag_29\n      jump\t// in\n    tag_28:\n      mload(0x40)\n      dup1\n      swap2\n      sub\n      swap1\n      return\n        /* \"O/Replay & Mutation Logger.sol\":192:423  function track(string calldata preimage) external {... */\n    tag_7:\n      tag_30\n      0x04\n      dup1\n      calldatasize\n      sub\n      dup2\n      add\n      swap1\n      tag_31\n      swap2\n      swap1\n      tag_32\n      jump\t// in\n    tag_31:\n      tag_33\n      jump\t// in\n    tag_30:\n      stop\n        /* \"O/Replay & Mutation Logger.sol\":82:124  mapping(bytes32 => address[]) public users */\n    tag_11:\n      mstore(0x20, 0x01)\n      dup2\n      0x00\n      mstore\n      keccak256(0x00, 0x40)\n      dup2\n      dup2\n      sload\n      dup2\n      lt\n      tag_34\n      jumpi\n      0x00\n      dup1\n      revert\n    tag_34:\n      swap1\n      0x00\n      mstore\n      keccak256(0x00, 0x20)\n      add\n      0x00\n      swap2\n      pop\n      swap2\n      pop\n      swap1\n      sload\n      swap1\n      0x0100\n      exp\n      swap1\n      div\n      0xffffffffffffffffffffffffffffffffffffffff\n      and\n      dup2\n      jump\t// out\n        /* \"O/Replay & Mutation Logger.sol\":36:76  mapping(bytes32 => uint256) public usage */\n    tag_17:\n      mstore(0x20, 0x00)\n      dup1\n      0x00\n      mstore\n      keccak256(0x00, 0x40)\n      0x00\n      swap2\n      pop\n      swap1\n      pop\n      sload\n      dup2\n      jump\t// out\n        /* \"O/Replay & Mutation Logger.sol\":535:643  function getUsers(bytes32 hash) external view returns (address[] memory) {... */\n    tag_22:\n        /* \"O/Replay & Mutation Logger.sol\":590:606  address[] memory */\n      0x60\n        /* \"O/Replay & Mutation Logger.sol\":625:630  users */\n      0x01\n        /* \"O/Replay & Mutation Logger.sol\":625:636  users[hash] */\n      0x00\n        /* \"O/Replay & Mutation Logger.sol\":631:635  hash */\n      dup4\n        /* \"O/Replay & Mutation Logger.sol\":625:636  users[hash] */\n      dup2\n      mstore\n      0x20\n      add\n      swap1\n      dup2\n      mstore\n      0x20\n      add\n      0x00\n      keccak256\n        /* \"O/Replay & Mutation Logger.sol\":618:636  return users[hash] */\n      dup1\n      sload\n      dup1\n      0x20\n      mul\n      0x20\n      add\n      mload(0x40)\n      swap1\n      dup2\n      add\n      0x40\n      mstore\n      dup1\n      swap3\n      swap2\n      swap1\n      dup2\n      dup2\n      mstore\n      0x20\n      add\n      dup3\n      dup1\n      sload\n      dup1\n      iszero\n      tag_37\n      jumpi\n      0x20\n      mul\n      dup3\n      add\n      swap2\n      swap1\n      0x00\n      mstore\n      keccak256(0x00, 0x20)\n      swap1\n    tag_38:\n      dup2\n      0x00\n      swap1\n      sload\n      swap1\n      0x0100\n      exp\n      swap1\n      div\n      0xffffffffffffffffffffffffffffffffffffffff\n      and\n      0xffffffffffffffffffffffffffffffffffffffff\n      and\n      dup2\n      mstore\n      0x20\n      add\n      swap1\n      0x01\n      add\n      swap1\n      dup1\n      dup4\n      gt\n      tag_38\n      jumpi\n    tag_37:\n      pop\n      pop\n      pop\n      pop\n      pop\n      swap1\n      pop\n        /* \"O/Replay & Mutation Logger.sol\":535:643  function getUsers(bytes32 hash) external view returns (address[] memory) {... */\n      swap2\n      swap1\n      pop\n      jump\t// out\n        /* \"O/Replay & Mutation Logger.sol\":429:529  function isReused(bytes32 hash) external view returns (bool) {... */\n    tag_27:\n        /* \"O/Replay & Mutation Logger.sol\":484:488  bool */\n      0x00\n        /* \"O/Replay & Mutation Logger.sol\":521:522  1 */\n      0x01\n        /* \"O/Replay & Mutation Logger.sol\":507:512  usage */\n      0x00\n        /* \"O/Replay & Mutation Logger.sol\":507:518  usage[hash] */\n      dup1\n        /* \"O/Replay & Mutation Logger.sol\":513:517  hash */\n      dup5\n        /* \"O/Replay & Mutation Logger.sol\":507:518  usage[hash] */\n      dup2\n      mstore\n      0x20\n      add\n      swap1\n      dup2\n      mstore\n      0x20\n      add\n      0x00\n      keccak256\n      sload\n        /* \"O/Replay & Mutation Logger.sol\":507:522  usage[hash] > 1 */\n      gt\n        /* \"O/Replay & Mutation Logger.sol\":500:522  return usage[hash] > 1 */\n      swap1\n      pop\n        /* \"O/Replay & Mutation Logger.sol\":429:529  function isReused(bytes32 hash) external view returns (bool) {... */\n      swap2\n      swap1\n      pop\n      jump\t// out\n        /* \"O/Replay & Mutation Logger.sol\":192:423  function track(string calldata preimage) external {... */\n    tag_33:\n        /* \"O/Replay & Mutation Logger.sol\":252:264  bytes32 hash */\n      0x00\n        /* \"O/Replay & Mutation Logger.sol\":294:302  preimage */\n      dup3\n      dup3\n        /* \"O/Replay & Mutation Logger.sol\":277:303  abi.encodePacked(preimage) */\n      add(0x20, mload(0x40))\n      tag_41\n      swap3\n      swap2\n      swap1\n      tag_42\n      jump\t// in\n    tag_41:\n      mload(0x40)\n      0x20\n      dup2\n      dup4\n      sub\n      sub\n      dup2\n      mstore\n      swap1\n      0x40\n      mstore\n        /* \"O/Replay & Mutation Logger.sol\":267:304  keccak256(abi.encodePacked(preimage)) */\n      dup1\n      mload\n      swap1\n      0x20\n      add\n      keccak256\n        /* \"O/Replay & Mutation Logger.sol\":252:304  bytes32 hash = keccak256(abi.encodePacked(preimage)) */\n      swap1\n      pop\n        /* \"O/Replay & Mutation Logger.sol\":314:319  usage */\n      0x00\n        /* \"O/Replay & Mutation Logger.sol\":314:325  usage[hash] */\n      dup1\n        /* \"O/Replay & Mutation Logger.sol\":320:324  hash */\n      dup3\n        /* \"O/Replay & Mutation Logger.sol\":314:325  usage[hash] */\n      dup2\n      mstore\n      0x20\n      add\n      swap1\n      dup2\n      mstore\n      0x20\n      add\n      0x00\n      keccak256\n      0x00\n        /* \"O/Replay & Mutation Logger.sol\":314:327  usage[hash]++ */\n      dup2\n      sload\n      dup1\n      swap3\n      swap2\n      swap1\n      tag_43\n      swap1\n      tag_44\n      jump\t// in\n    tag_43:\n      swap2\n      swap1\n      pop\n      sstore\n      pop\n        /* \"O/Replay & Mutation Logger.sol\":337:342  users */\n      0x01\n        /* \"O/Replay & Mutation Logger.sol\":337:348  users[hash] */\n      0x00\n        /* \"O/Replay & Mutation Logger.sol\":343:347  hash */\n      dup3\n        /* \"O/Replay & Mutation Logger.sol\":337:348  users[hash] */\n      dup2\n      mstore\n      0x20\n      add\n      swap1\n      dup2\n      mstore\n      0x20\n      add\n      0x00\n      keccak256\n        /* \"O/Replay & Mutation Logger.sol\":354:364  msg.sender */\n      caller\n        /* \"O/Replay & Mutation Logger.sol\":337:365  users[hash].push(msg.sender) */\n      swap1\n      dup1\n      0x01\n      dup2\n      sload\n      add\n      dup1\n      dup3\n      sstore\n      dup1\n      swap2\n      pop\n      pop\n      0x01\n      swap1\n      sub\n      swap1\n      0x00\n      mstore\n      keccak256(0x00, 0x20)\n      add\n      0x00\n      swap1\n      swap2\n      swap1\n      swap2\n      swap1\n      swap2\n      0x0100\n      exp\n      dup2\n      sload\n      dup2\n      0xffffffffffffffffffffffffffffffffffffffff\n      mul\n      not\n      and\n      swap1\n      dup4\n      0xffffffffffffffffffffffffffffffffffffffff\n      and\n      mul\n      or\n      swap1\n      sstore\n      pop\n        /* \"O/Replay & Mutation Logger.sol\":380:416  Drift(hash, msg.sender, usage[hash]) */\n      0x06582ad81e1c58e7f18d6ad6e8dceb726873d0d88861bf0704c6aa41cbad23a0\n        /* \"O/Replay & Mutation Logger.sol\":386:390  hash */\n      dup2\n        /* \"O/Replay & Mutation Logger.sol\":392:402  msg.sender */\n      caller\n        /* \"O/Replay & Mutation Logger.sol\":404:409  usage */\n      0x00\n        /* \"O/Replay & Mutation Logger.sol\":404:415  usage[hash] */\n      dup1\n        /* \"O/Replay & Mutation Logger.sol\":410:414  hash */\n      dup6\n        /* \"O/Replay & Mutation Logger.sol\":404:415  usage[hash] */\n      dup2\n      mstore\n      0x20\n      add\n      swap1\n      dup2\n      mstore\n      0x20\n      add\n      0x00\n      keccak256\n      sload\n        /* \"O/Replay & Mutation Logger.sol\":380:416  Drift(hash, msg.sender, usage[hash]) */\n      mload(0x40)\n      tag_46\n      swap4\n      swap3\n      swap2\n      swap1\n      tag_47\n      jump\t// in\n    tag_46:\n      mload(0x40)\n      dup1\n      swap2\n      sub\n      swap1\n      log1\n        /* \"O/Replay & Mutation Logger.sol\":242:423  {... */\n      pop\n        /* \"O/Replay & Mutation Logger.sol\":192:423  function track(string calldata preimage) external {... */\n      pop\n      pop\n      jump\t// out\n        /* \"#utility.yul\":88:205   */\n    tag_49:\n        /* \"#utility.yul\":197:198   */\n      0x00\n        /* \"#utility.yul\":194:195   */\n      dup1\n        /* \"#utility.yul\":187:199   */\n      revert\n        /* \"#utility.yul\":211:328   */\n    tag_50:\n        /* \"#utility.yul\":320:321   */\n      0x00\n        /* \"#utility.yul\":317:318   */\n      dup1\n        /* \"#utility.yul\":310:322   */\n      revert\n        /* \"#utility.yul\":334:411   */\n    tag_51:\n        /* \"#utility.yul\":371:378   */\n      0x00\n        /* \"#utility.yul\":400:405   */\n      dup2\n        /* \"#utility.yul\":389:405   */\n      swap1\n      pop\n        /* \"#utility.yul\":334:411   */\n      swap2\n      swap1\n      pop\n      jump\t// out\n        /* \"#utility.yul\":417:539   */\n    tag_52:\n        /* \"#utility.yul\":490:514   */\n      tag_85\n        /* \"#utility.yul\":508:513   */\n      dup2\n        /* \"#utility.yul\":490:514   */\n      tag_51\n      jump\t// in\n    tag_85:\n        /* \"#utility.yul\":483:488   */\n      dup2\n        /* \"#utility.yul\":480:515   */\n      eq\n        /* \"#utility.yul\":470:533   */\n      tag_86\n      jumpi\n        /* \"#utility.yul\":529:530   */\n      0x00\n        /* \"#utility.yul\":526:527   */\n      dup1\n        /* \"#utility.yul\":519:531   */\n      revert\n        /* \"#utility.yul\":470:533   */\n    tag_86:\n        /* \"#utility.yul\":417:539   */\n      pop\n      jump\t// out\n        /* \"#utility.yul\":545:684   */\n    tag_53:\n        /* \"#utility.yul\":591:596   */\n      0x00\n        /* \"#utility.yul\":629:635   */\n      dup2\n        /* \"#utility.yul\":616:636   */\n      calldataload\n        /* \"#utility.yul\":607:636   */\n      swap1\n      pop\n        /* \"#utility.yul\":645:678   */\n      tag_88\n        /* \"#utility.yul\":672:677   */\n      dup2\n        /* \"#utility.yul\":645:678   */\n      tag_52\n      jump\t// in\n    tag_88:\n        /* \"#utility.yul\":545:684   */\n      swap3\n      swap2\n      pop\n      pop\n      jump\t// out\n        /* \"#utility.yul\":690:767   */\n    tag_54:\n        /* \"#utility.yul\":727:734   */\n      0x00\n        /* \"#utility.yul\":756:761   */\n      dup2\n        /* \"#utility.yul\":745:761   */\n      swap1\n      pop\n        /* \"#utility.yul\":690:767   */\n      swap2\n      swap1\n      pop\n      jump\t// out\n        /* \"#utility.yul\":773:895   */\n    tag_55:\n        /* \"#utility.yul\":846:870   */\n      tag_91\n        /* \"#utility.yul\":864:869   */\n      dup2\n        /* \"#utility.yul\":846:870   */\n      tag_54\n      jump\t// in\n    tag_91:\n        /* \"#utility.yul\":839:844   */\n      dup2\n        /* \"#utility.yul\":836:871   */\n      eq\n        /* \"#utility.yul\":826:889   */\n      tag_92\n      jumpi\n        /* \"#utility.yul\":885:886   */\n      0x00\n        /* \"#utility.yul\":882:883   */\n      dup1\n        /* \"#utility.yul\":875:887   */\n      revert\n        /* \"#utility.yul\":826:889   */\n    tag_92:\n        /* \"#utility.yul\":773:895   */\n      pop\n      jump\t// out\n        /* \"#utility.yul\":901:1040   */\n    tag_56:\n        /* \"#utility.yul\":947:952   */\n      0x00\n        /* \"#utility.yul\":985:991   */\n      dup2\n        /* \"#utility.yul\":972:992   */\n      calldataload\n        /* \"#utility.yul\":963:992   */\n      swap1\n      pop\n        /* \"#utility.yul\":1001:1034   */\n      tag_94\n        /* \"#utility.yul\":1028:1033   */\n      dup2\n        /* \"#utility.yul\":1001:1034   */\n      tag_55\n      jump\t// in\n    tag_94:\n        /* \"#utility.yul\":901:1040   */\n      swap3\n      swap2\n      pop\n      pop\n      jump\t// out\n        /* \"#utility.yul\":1046:1520   */\n    tag_10:\n        /* \"#utility.yul\":1114:1120   */\n      0x00\n        /* \"#utility.yul\":1122:1128   */\n      dup1\n        /* \"#utility.yul\":1171:1173   */\n      0x40\n        /* \"#utility.yul\":1159:1168   */\n      dup4\n        /* \"#utility.yul\":1150:1157   */\n      dup6\n        /* \"#utility.yul\":1146:1169   */\n      sub\n        /* \"#utility.yul\":1142:1174   */\n      slt\n        /* \"#utility.yul\":1139:1258   */\n      iszero\n      tag_96\n      jumpi\n        /* \"#utility.yul\":1177:1256   */\n      tag_97\n      tag_49\n      jump\t// in\n    tag_97:\n        /* \"#utility.yul\":1139:1258   */\n    tag_96:\n        /* \"#utility.yul\":1297:1298   */\n      0x00\n        /* \"#utility.yul\":1322:1375   */\n      tag_98\n        /* \"#utility.yul\":1367:1374   */\n      dup6\n        /* \"#utility.yul\":1358:1364   */\n      dup3\n        /* \"#utility.yul\":1347:1356   */\n      dup7\n        /* \"#utility.yul\":1343:1365   */\n      add\n        /* \"#utility.yul\":1322:1375   */\n      tag_53\n      jump\t// in\n    tag_98:\n        /* \"#utility.yul\":1312:1375   */\n      swap3\n      pop\n        /* \"#utility.yul\":1268:1385   */\n      pop\n        /* \"#utility.yul\":1424:1426   */\n      0x20\n        /* \"#utility.yul\":1450:1503   */\n      tag_99\n        /* \"#utility.yul\":1495:1502   */\n      dup6\n        /* \"#utility.yul\":1486:1492   */\n      dup3\n        /* \"#utility.yul\":1475:1484   */\n      dup7\n        /* \"#utility.yul\":1471:1493   */\n      add\n        /* \"#utility.yul\":1450:1503   */\n      tag_56\n      jump\t// in\n    tag_99:\n        /* \"#utility.yul\":1440:1503   */\n      swap2\n      pop\n        /* \"#utility.yul\":1395:1513   */\n      pop\n        /* \"#utility.yul\":1046:1520   */\n      swap3\n      pop\n      swap3\n      swap1\n      pop\n      jump\t// out\n        /* \"#utility.yul\":1526:1652   */\n    tag_57:\n        /* \"#utility.yul\":1563:1570   */\n      0x00\n        /* \"#utility.yul\":1603:1645   */\n      0xffffffffffffffffffffffffffffffffffffffff\n        /* \"#utility.yul\":1596:1601   */\n      dup3\n        /* \"#utility.yul\":1592:1646   */\n      and\n        /* \"#utility.yul\":1581:1646   */\n      swap1\n      pop\n        /* \"#utility.yul\":1526:1652   */\n      swap2\n      swap1\n      pop\n      jump\t// out\n        /* \"#utility.yul\":1658:1754   */\n    tag_58:\n        /* \"#utility.yul\":1695:1702   */\n      0x00\n        /* \"#utility.yul\":1724:1748   */\n      tag_102\n        /* \"#utility.yul\":1742:1747   */\n      dup3\n        /* \"#utility.yul\":1724:1748   */\n      tag_57\n      jump\t// in\n    tag_102:\n        /* \"#utility.yul\":1713:1748   */\n      swap1\n      pop\n        /* \"#utility.yul\":1658:1754   */\n      swap2\n      swap1\n      pop\n      jump\t// out\n        /* \"#utility.yul\":1760:1878   */\n    tag_59:\n        /* \"#utility.yul\":1847:1871   */\n      tag_104\n        /* \"#utility.yul\":1865:1870   */\n      dup2\n        /* \"#utility.yul\":1847:1871   */\n      tag_58\n      jump\t// in\n    tag_104:\n        /* \"#utility.yul\":1842:1845   */\n      dup3\n        /* \"#utility.yul\":1835:1872   */\n      mstore\n        /* \"#utility.yul\":1760:1878   */\n      pop\n      pop\n      jump\t// out\n        /* \"#utility.yul\":1884:2106   */\n    tag_13:\n        /* \"#utility.yul\":1977:1981   */\n      0x00\n        /* \"#utility.yul\":2015:2017   */\n      0x20\n        /* \"#utility.yul\":2004:2013   */\n      dup3\n        /* \"#utility.yul\":2000:2018   */\n      add\n        /* \"#utility.yul\":1992:2018   */\n      swap1\n      pop\n        /* \"#utility.yul\":2028:2099   */\n      tag_106\n        /* \"#utility.yul\":2096:2097   */\n      0x00\n        /* \"#utility.yul\":2085:2094   */\n      dup4\n        /* \"#utility.yul\":2081:2098   */\n      add\n        /* \"#utility.yul\":2072:2078   */\n      dup5\n        /* \"#utility.yul\":2028:2099   */\n      tag_59\n      jump\t// in\n    tag_106:\n        /* \"#utility.yul\":1884:2106   */\n      swap3\n      swap2\n      pop\n      pop\n      jump\t// out\n        /* \"#utility.yul\":2112:2441   */\n    tag_16:\n        /* \"#utility.yul\":2171:2177   */\n      0x00\n        /* \"#utility.yul\":2220:2222   */\n      0x20\n        /* \"#utility.yul\":2208:2217   */\n      dup3\n        /* \"#utility.yul\":2199:2206   */\n      dup5\n        /* \"#utility.yul\":2195:2218   */\n      sub\n        /* \"#utility.yul\":2191:2223   */\n      slt\n        /* \"#utility.yul\":2188:2307   */\n      iszero\n      tag_108\n      jumpi\n        /* \"#utility.yul\":2226:2305   */\n      tag_109\n      tag_49\n      jump\t// in\n    tag_109:\n        /* \"#utility.yul\":2188:2307   */\n    tag_108:\n        /* \"#utility.yul\":2346:2347   */\n      0x00\n        /* \"#utility.yul\":2371:2424   */\n      tag_110\n        /* \"#utility.yul\":2416:2423   */\n      dup5\n        /* \"#utility.yul\":2407:2413   */\n      dup3\n        /* \"#utility.yul\":2396:2405   */\n      dup6\n        /* \"#utility.yul\":2392:2414   */\n      add\n        /* \"#utility.yul\":2371:2424   */\n      tag_53\n      jump\t// in\n    tag_110:\n        /* \"#utility.yul\":2361:2424   */\n      swap2\n      pop\n        /* \"#utility.yul\":2317:2434   */\n      pop\n        /* \"#utility.yul\":2112:2441   */\n      swap3\n      swap2\n      pop\n      pop\n      jump\t// out\n        /* \"#utility.yul\":2447:2565   */\n    tag_60:\n        /* \"#utility.yul\":2534:2558   */\n      tag_112\n        /* \"#utility.yul\":2552:2557   */\n      dup2\n        /* \"#utility.yul\":2534:2558   */\n      tag_54\n      jump\t// in\n    tag_112:\n        /* \"#utility.yul\":2529:2532   */\n      dup3\n        /* \"#utility.yul\":2522:2559   */\n      mstore\n        /* \"#utility.yul\":2447:2565   */\n      pop\n      pop\n      jump\t// out\n        /* \"#utility.yul\":2571:2793   */\n    tag_19:\n        /* \"#utility.yul\":2664:2668   */\n      0x00\n        /* \"#utility.yul\":2702:2704   */\n      0x20\n        /* \"#utility.yul\":2691:2700   */\n      dup3\n        /* \"#utility.yul\":2687:2705   */\n      add\n        /* \"#utility.yul\":2679:2705   */\n      swap1\n      pop\n        /* \"#utility.yul\":2715:2786   */\n      tag_114\n        /* \"#utility.yul\":2783:2784   */\n      0x00\n        /* \"#utility.yul\":2772:2781   */\n      dup4\n        /* \"#utility.yul\":2768:2785   */\n      add\n        /* \"#utility.yul\":2759:2765   */\n      dup5\n        /* \"#utility.yul\":2715:2786   */\n      tag_60\n      jump\t// in\n    tag_114:\n        /* \"#utility.yul\":2571:2793   */\n      swap3\n      swap2\n      pop\n      pop\n      jump\t// out\n        /* \"#utility.yul\":2799:2913   */\n    tag_61:\n        /* \"#utility.yul\":2866:2872   */\n      0x00\n        /* \"#utility.yul\":2900:2905   */\n      dup2\n        /* \"#utility.yul\":2894:2906   */\n      mload\n        /* \"#utility.yul\":2884:2906   */\n      swap1\n      pop\n        /* \"#utility.yul\":2799:2913   */\n      swap2\n      swap1\n      pop\n      jump\t// out\n        /* \"#utility.yul\":2919:3103   */\n    tag_62:\n        /* \"#utility.yul\":3018:3029   */\n      0x00\n        /* \"#utility.yul\":3052:3058   */\n      dup3\n        /* \"#utility.yul\":3047:3050   */\n      dup3\n        /* \"#utility.yul\":3040:3059   */\n      mstore\n        /* \"#utility.yul\":3092:3096   */\n      0x20\n        /* \"#utility.yul\":3087:3090   */\n      dup3\n        /* \"#utility.yul\":3083:3097   */\n      add\n        /* \"#utility.yul\":3068:3097   */\n      swap1\n      pop\n        /* \"#utility.yul\":2919:3103   */\n      swap3\n      swap2\n      pop\n      pop\n      jump\t// out\n        /* \"#utility.yul\":3109:3241   */\n    tag_63:\n        /* \"#utility.yul\":3176:3180   */\n      0x00\n        /* \"#utility.yul\":3199:3202   */\n      dup2\n        /* \"#utility.yul\":3191:3202   */\n      swap1\n      pop\n        /* \"#utility.yul\":3229:3233   */\n      0x20\n        /* \"#utility.yul\":3224:3227   */\n      dup3\n        /* \"#utility.yul\":3220:3234   */\n      add\n        /* \"#utility.yul\":3212:3234   */\n      swap1\n      pop\n        /* \"#utility.yul\":3109:3241   */\n      swap2\n      swap1\n      pop\n      jump\t// out\n        /* \"#utility.yul\":3247:3355   */\n    tag_64:\n        /* \"#utility.yul\":3324:3348   */\n      tag_119\n        /* \"#utility.yul\":3342:3347   */\n      dup2\n        /* \"#utility.yul\":3324:3348   */\n      tag_58\n      jump\t// in\n    tag_119:\n        /* \"#utility.yul\":3319:3322   */\n      dup3\n        /* \"#utility.yul\":3312:3349   */\n      mstore\n        /* \"#utility.yul\":3247:3355   */\n      pop\n      pop\n      jump\t// out\n        /* \"#utility.yul\":3361:3540   */\n    tag_65:\n        /* \"#utility.yul\":3430:3440   */\n      0x00\n        /* \"#utility.yul\":3451:3497   */\n      tag_121\n        /* \"#utility.yul\":3493:3496   */\n      dup4\n        /* \"#utility.yul\":3485:3491   */\n      dup4\n        /* \"#utility.yul\":3451:3497   */\n      tag_64\n      jump\t// in\n    tag_121:\n        /* \"#utility.yul\":3529:3533   */\n      0x20\n        /* \"#utility.yul\":3524:3527   */\n      dup4\n        /* \"#utility.yul\":3520:3534   */\n      add\n        /* \"#utility.yul\":3506:3534   */\n      swap1\n      pop\n        /* \"#utility.yul\":3361:3540   */\n      swap3\n      swap2\n      pop\n      pop\n      jump\t// out\n        /* \"#utility.yul\":3546:3659   */\n    tag_66:\n        /* \"#utility.yul\":3616:3620   */\n      0x00\n        /* \"#utility.yul\":3648:3652   */\n      0x20\n        /* \"#utility.yul\":3643:3646   */\n      dup3\n        /* \"#utility.yul\":3639:3653   */\n      add\n        /* \"#utility.yul\":3631:3653   */\n      swap1\n      pop\n        /* \"#utility.yul\":3546:3659   */\n      swap2\n      swap1\n      pop\n      jump\t// out\n        /* \"#utility.yul\":3695:4427   */\n    tag_67:\n        /* \"#utility.yul\":3814:3817   */\n      0x00\n        /* \"#utility.yul\":3843:3897   */\n      tag_124\n        /* \"#utility.yul\":3891:3896   */\n      dup3\n        /* \"#utility.yul\":3843:3897   */\n      tag_61\n      jump\t// in\n    tag_124:\n        /* \"#utility.yul\":3913:3999   */\n      tag_125\n        /* \"#utility.yul\":3992:3998   */\n      dup2\n        /* \"#utility.yul\":3987:3990   */\n      dup6\n        /* \"#utility.yul\":3913:3999   */\n      tag_62\n      jump\t// in\n    tag_125:\n        /* \"#utility.yul\":3906:3999   */\n      swap4\n      pop\n        /* \"#utility.yul\":4023:4079   */\n      tag_126\n        /* \"#utility.yul\":4073:4078   */\n      dup4\n        /* \"#utility.yul\":4023:4079   */\n      tag_63\n      jump\t// in\n    tag_126:\n        /* \"#utility.yul\":4102:4109   */\n      dup1\n        /* \"#utility.yul\":4133:4134   */\n      0x00\n        /* \"#utility.yul\":4118:4402   */\n    tag_127:\n        /* \"#utility.yul\":4143:4149   */\n      dup4\n        /* \"#utility.yul\":4140:4141   */\n      dup2\n        /* \"#utility.yul\":4137:4150   */\n      lt\n        /* \"#utility.yul\":4118:4402   */\n      iszero\n      tag_129\n      jumpi\n        /* \"#utility.yul\":4219:4225   */\n      dup2\n        /* \"#utility.yul\":4213:4226   */\n      mload\n        /* \"#utility.yul\":4246:4309   */\n      tag_130\n        /* \"#utility.yul\":4305:4308   */\n      dup9\n        /* \"#utility.yul\":4290:4303   */\n      dup3\n        /* \"#utility.yul\":4246:4309   */\n      tag_65\n      jump\t// in\n    tag_130:\n        /* \"#utility.yul\":4239:4309   */\n      swap8\n      pop\n        /* \"#utility.yul\":4332:4392   */\n      tag_131\n        /* \"#utility.yul\":4385:4391   */\n      dup4\n        /* \"#utility.yul\":4332:4392   */\n      tag_66\n      jump\t// in\n    tag_131:\n        /* \"#utility.yul\":4322:4392   */\n      swap3\n      pop\n        /* \"#utility.yul\":4178:4402   */\n      pop\n        /* \"#utility.yul\":4165:4166   */\n      0x01\n        /* \"#utility.yul\":4162:4163   */\n      dup2\n        /* \"#utility.yul\":4158:4167   */\n      add\n        /* \"#utility.yul\":4153:4167   */\n      swap1\n      pop\n        /* \"#utility.yul\":4118:4402   */\n      jump(tag_127)\n    tag_129:\n        /* \"#utility.yul\":4122:4136   */\n      pop\n        /* \"#utility.yul\":4418:4421   */\n      dup6\n        /* \"#utility.yul\":4411:4421   */\n      swap4\n      pop\n        /* \"#utility.yul\":3819:4427   */\n      pop\n      pop\n      pop\n        /* \"#utility.yul\":3695:4427   */\n      swap3\n      swap2\n      pop\n      pop\n      jump\t// out\n        /* \"#utility.yul\":4433:4806   */\n    tag_24:\n        /* \"#utility.yul\":4576:4580   */\n      0x00\n        /* \"#utility.yul\":4614:4616   */\n      0x20\n        /* \"#utility.yul\":4603:4612   */\n      dup3\n        /* \"#utility.yul\":4599:4617   */\n      add\n        /* \"#utility.yul\":4591:4617   */\n      swap1\n      pop\n        /* \"#utility.yul\":4663:4672   */\n      dup2\n        /* \"#utility.yul\":4657:4661   */\n      dup2\n        /* \"#utility.yul\":4653:4673   */\n      sub\n        /* \"#utility.yul\":4649:4650   */\n      0x00\n        /* \"#utility.yul\":4638:4647   */\n      dup4\n        /* \"#utility.yul\":4634:4651   */\n      add\n        /* \"#utility.yul\":4627:4674   */\n      mstore\n        /* \"#utility.yul\":4691:4799   */\n      tag_133\n        /* \"#utility.yul\":4794:4798   */\n      dup2\n        /* \"#utility.yul\":4785:4791   */\n      dup5\n        /* \"#utility.yul\":4691:4799   */\n      tag_67\n      jump\t// in\n    tag_133:\n        /* \"#utility.yul\":4683:4799   */\n      swap1\n      pop\n        /* \"#utility.yul\":4433:4806   */\n      swap3\n      swap2\n      pop\n      pop\n      jump\t// out\n        /* \"#utility.yul\":4812:4902   */\n    tag_68:\n        /* \"#utility.yul\":4846:4853   */\n      0x00\n        /* \"#utility.yul\":4889:4894   */\n      dup2\n        /* \"#utility.yul\":4882:4895   */\n      iszero\n        /* \"#utility.yul\":4875:4896   */\n      iszero\n        /* \"#utility.yul\":4864:4896   */\n      swap1\n      pop\n        /* \"#utility.yul\":4812:4902   */\n      swap2\n      swap1\n      pop\n      jump\t// out\n        /* \"#utility.yul\":4908:5017   */\n    tag_69:\n        /* \"#utility.yul\":4989:5010   */\n      tag_136\n        /* \"#utility.yul\":5004:5009   */\n      dup2\n        /* \"#utility.yul\":4989:5010   */\n      tag_68\n      jump\t// in\n    tag_136:\n        /* \"#utility.yul\":4984:4987   */\n      dup3\n        /* \"#utility.yul\":4977:5011   */\n      mstore\n        /* \"#utility.yul\":4908:5017   */\n      pop\n      pop\n      jump\t// out\n        /* \"#utility.yul\":5023:5233   */\n    tag_29:\n        /* \"#utility.yul\":5110:5114   */\n      0x00\n        /* \"#utility.yul\":5148:5150   */\n      0x20\n        /* \"#utility.yul\":5137:5146   */\n      dup3\n        /* \"#utility.yul\":5133:5151   */\n      add\n        /* \"#utility.yul\":5125:5151   */\n      swap1\n      pop\n        /* \"#utility.yul\":5161:5226   */\n      tag_138\n        /* \"#utility.yul\":5223:5224   */\n      0x00\n        /* \"#utility.yul\":5212:5221   */\n      dup4\n        /* \"#utility.yul\":5208:5225   */\n      add\n        /* \"#utility.yul\":5199:5205   */\n      dup5\n        /* \"#utility.yul\":5161:5226   */\n      tag_69\n      jump\t// in\n    tag_138:\n        /* \"#utility.yul\":5023:5233   */\n      swap3\n      swap2\n      pop\n      pop\n      jump\t// out\n        /* \"#utility.yul\":5239:5356   */\n    tag_70:\n        /* \"#utility.yul\":5348:5349   */\n      0x00\n        /* \"#utility.yul\":5345:5346   */\n      dup1\n        /* \"#utility.yul\":5338:5350   */\n      revert\n        /* \"#utility.yul\":5362:5479   */\n    tag_71:\n        /* \"#utility.yul\":5471:5472   */\n      0x00\n        /* \"#utility.yul\":5468:5469   */\n      dup1\n        /* \"#utility.yul\":5461:5473   */\n      revert\n        /* \"#utility.yul\":5485:5602   */\n    tag_72:\n        /* \"#utility.yul\":5594:5595   */\n      0x00\n        /* \"#utility.yul\":5591:5592   */\n      dup1\n        /* \"#utility.yul\":5584:5596   */\n      revert\n        /* \"#utility.yul\":5622:6175   */\n    tag_73:\n        /* \"#utility.yul\":5680:5688   */\n      0x00\n        /* \"#utility.yul\":5690:5696   */\n      dup1\n        /* \"#utility.yul\":5740:5743   */\n      dup4\n        /* \"#utility.yul\":5733:5737   */\n      0x1f\n        /* \"#utility.yul\":5725:5731   */\n      dup5\n        /* \"#utility.yul\":5721:5738   */\n      add\n        /* \"#utility.yul\":5717:5744   */\n      slt\n        /* \"#utility.yul\":5707:5829   */\n      tag_143\n      jumpi\n        /* \"#utility.yul\":5748:5827   */\n      tag_144\n      tag_70\n      jump\t// in\n    tag_144:\n        /* \"#utility.yul\":5707:5829   */\n    tag_143:\n        /* \"#utility.yul\":5861:5867   */\n      dup3\n        /* \"#utility.yul\":5848:5868   */\n      calldataload\n        /* \"#utility.yul\":5838:5868   */\n      swap1\n      pop\n        /* \"#utility.yul\":5891:5909   */\n      0xffffffffffffffff\n        /* \"#utility.yul\":5883:5889   */\n      dup2\n        /* \"#utility.yul\":5880:5910   */\n      gt\n        /* \"#utility.yul\":5877:5994   */\n      iszero\n      tag_145\n      jumpi\n        /* \"#utility.yul\":5913:5992   */\n      tag_146\n      tag_71\n      jump\t// in\n    tag_146:\n        /* \"#utility.yul\":5877:5994   */\n    tag_145:\n        /* \"#utility.yul\":6027:6031   */\n      0x20\n        /* \"#utility.yul\":6019:6025   */\n      dup4\n        /* \"#utility.yul\":6015:6032   */\n      add\n        /* \"#utility.yul\":6003:6032   */\n      swap2\n      pop\n        /* \"#utility.yul\":6081:6084   */\n      dup4\n        /* \"#utility.yul\":6073:6077   */\n      0x01\n        /* \"#utility.yul\":6065:6071   */\n      dup3\n        /* \"#utility.yul\":6061:6078   */\n      mul\n        /* \"#utility.yul\":6051:6059   */\n      dup4\n        /* \"#utility.yul\":6047:6079   */\n      add\n        /* \"#utility.yul\":6044:6085   */\n      gt\n        /* \"#utility.yul\":6041:6169   */\n      iszero\n      tag_147\n      jumpi\n        /* \"#utility.yul\":6088:6167   */\n      tag_148\n      tag_72\n      jump\t// in\n    tag_148:\n        /* \"#utility.yul\":6041:6169   */\n    tag_147:\n        /* \"#utility.yul\":5622:6175   */\n      swap3\n      pop\n      swap3\n      swap1\n      pop\n      jump\t// out\n        /* \"#utility.yul\":6181:6710   */\n    tag_32:\n        /* \"#utility.yul\":6252:6258   */\n      0x00\n        /* \"#utility.yul\":6260:6266   */\n      dup1\n        /* \"#utility.yul\":6309:6311   */\n      0x20\n        /* \"#utility.yul\":6297:6306   */\n      dup4\n        /* \"#utility.yul\":6288:6295   */\n      dup6\n        /* \"#utility.yul\":6284:6307   */\n      sub\n        /* \"#utility.yul\":6280:6312   */\n      slt\n        /* \"#utility.yul\":6277:6396   */\n      iszero\n      tag_150\n      jumpi\n        /* \"#utility.yul\":6315:6394   */\n      tag_151\n      tag_49\n      jump\t// in\n    tag_151:\n        /* \"#utility.yul\":6277:6396   */\n    tag_150:\n        /* \"#utility.yul\":6463:6464   */\n      0x00\n        /* \"#utility.yul\":6452:6461   */\n      dup4\n        /* \"#utility.yul\":6448:6465   */\n      add\n        /* \"#utility.yul\":6435:6466   */\n      calldataload\n        /* \"#utility.yul\":6493:6511   */\n      0xffffffffffffffff\n        /* \"#utility.yul\":6485:6491   */\n      dup2\n        /* \"#utility.yul\":6482:6512   */\n      gt\n        /* \"#utility.yul\":6479:6596   */\n      iszero\n      tag_152\n      jumpi\n        /* \"#utility.yul\":6515:6594   */\n      tag_153\n      tag_50\n      jump\t// in\n    tag_153:\n        /* \"#utility.yul\":6479:6596   */\n    tag_152:\n        /* \"#utility.yul\":6628:6693   */\n      tag_154\n        /* \"#utility.yul\":6685:6692   */\n      dup6\n        /* \"#utility.yul\":6676:6682   */\n      dup3\n        /* \"#utility.yul\":6665:6674   */\n      dup7\n        /* \"#utility.yul\":6661:6683   */\n      add\n        /* \"#utility.yul\":6628:6693   */\n      tag_73\n      jump\t// in\n    tag_154:\n        /* \"#utility.yul\":6610:6693   */\n      swap3\n      pop\n      swap3\n      pop\n        /* \"#utility.yul\":6406:6703   */\n      pop\n        /* \"#utility.yul\":6181:6710   */\n      swap3\n      pop\n      swap3\n      swap1\n      pop\n      jump\t// out\n        /* \"#utility.yul\":6716:6864   */\n    tag_74:\n        /* \"#utility.yul\":6818:6829   */\n      0x00\n        /* \"#utility.yul\":6855:6858   */\n      dup2\n        /* \"#utility.yul\":6840:6858   */\n      swap1\n      pop\n        /* \"#utility.yul\":6716:6864   */\n      swap3\n      swap2\n      pop\n      pop\n      jump\t// out\n        /* \"#utility.yul\":6870:7018   */\n    tag_75:\n        /* \"#utility.yul\":6968:6974   */\n      dup3\n        /* \"#utility.yul\":6963:6966   */\n      dup2\n        /* \"#utility.yul\":6958:6961   */\n      dup4\n        /* \"#utility.yul\":6945:6975   */\n      calldatacopy\n        /* \"#utility.yul\":7009:7010   */\n      0x00\n        /* \"#utility.yul\":7000:7006   */\n      dup4\n        /* \"#utility.yul\":6995:6998   */\n      dup4\n        /* \"#utility.yul\":6991:7007   */\n      add\n        /* \"#utility.yul\":6984:7011   */\n      mstore\n        /* \"#utility.yul\":6870:7018   */\n      pop\n      pop\n      pop\n      jump\t// out\n        /* \"#utility.yul\":7048:7378   */\n    tag_76:\n        /* \"#utility.yul\":7164:7167   */\n      0x00\n        /* \"#utility.yul\":7185:7274   */\n      tag_158\n        /* \"#utility.yul\":7267:7273   */\n      dup4\n        /* \"#utility.yul\":7262:7265   */\n      dup6\n        /* \"#utility.yul\":7185:7274   */\n      tag_74\n      jump\t// in\n    tag_158:\n        /* \"#utility.yul\":7178:7274   */\n      swap4\n      pop\n        /* \"#utility.yul\":7284:7340   */\n      tag_159\n        /* \"#utility.yul\":7333:7339   */\n      dup4\n        /* \"#utility.yul\":7328:7331   */\n      dup6\n        /* \"#utility.yul\":7321:7326   */\n      dup5\n        /* \"#utility.yul\":7284:7340   */\n      tag_75\n      jump\t// in\n    tag_159:\n        /* \"#utility.yul\":7365:7371   */\n      dup3\n        /* \"#utility.yul\":7360:7363   */\n      dup5\n        /* \"#utility.yul\":7356:7372   */\n      add\n        /* \"#utility.yul\":7349:7372   */\n      swap1\n      pop\n        /* \"#utility.yul\":7048:7378   */\n      swap4\n      swap3\n      pop\n      pop\n      pop\n      jump\t// out\n        /* \"#utility.yul\":7384:7679   */\n    tag_42:\n        /* \"#utility.yul\":7526:7529   */\n      0x00\n        /* \"#utility.yul\":7548:7653   */\n      tag_161\n        /* \"#utility.yul\":7649:7652   */\n      dup3\n        /* \"#utility.yul\":7640:7646   */\n      dup5\n        /* \"#utility.yul\":7632:7638   */\n      dup7\n        /* \"#utility.yul\":7548:7653   */\n      tag_76\n      jump\t// in\n    tag_161:\n        /* \"#utility.yul\":7541:7653   */\n      swap2\n      pop\n        /* \"#utility.yul\":7670:7673   */\n      dup2\n        /* \"#utility.yul\":7663:7673   */\n      swap1\n      pop\n        /* \"#utility.yul\":7384:7679   */\n      swap4\n      swap3\n      pop\n      pop\n      pop\n      jump\t// out\n        /* \"#utility.yul\":7685:7865   */\n    tag_77:\n        /* \"#utility.yul\":7733:7810   */\n      0x4e487b7100000000000000000000000000000000000000000000000000000000\n        /* \"#utility.yul\":7730:7731   */\n      0x00\n        /* \"#utility.yul\":7723:7811   */\n      mstore\n        /* \"#utility.yul\":7830:7834   */\n      0x11\n        /* \"#utility.yul\":7827:7828   */\n      0x04\n        /* \"#utility.yul\":7820:7835   */\n      mstore\n        /* \"#utility.yul\":7854:7858   */\n      0x24\n        /* \"#utility.yul\":7851:7852   */\n      0x00\n        /* \"#utility.yul\":7844:7859   */\n      revert\n        /* \"#utility.yul\":7871:8104   */\n    tag_44:\n        /* \"#utility.yul\":7910:7913   */\n      0x00\n        /* \"#utility.yul\":7933:7957   */\n      tag_164\n        /* \"#utility.yul\":7951:7956   */\n      dup3\n        /* \"#utility.yul\":7933:7957   */\n      tag_54\n      jump\t// in\n    tag_164:\n        /* \"#utility.yul\":7924:7957   */\n      swap2\n      pop\n        /* \"#utility.yul\":7979:8045   */\n      0xffffffffffffffffffffffffffffffffffffffffffffffffffffffffffffffff\n        /* \"#utility.yul\":7972:7977   */\n      dup3\n        /* \"#utility.yul\":7969:8046   */\n      sub\n        /* \"#utility.yul\":7966:8069   */\n      tag_165\n      jumpi\n        /* \"#utility.yul\":8049:8067   */\n      tag_166\n      tag_77\n      jump\t// in\n    tag_166:\n        /* \"#utility.yul\":7966:8069   */\n    tag_165:\n        /* \"#utility.yul\":8096:8097   */\n      0x01\n        /* \"#utility.yul\":8089:8094   */\n      dup3\n        /* \"#utility.yul\":8085:8098   */\n      add\n        /* \"#utility.yul\":8078:8098   */\n      swap1\n      pop\n        /* \"#utility.yul\":7871:8104   */\n      swap2\n      swap1\n      pop\n      jump\t// out\n        /* \"#utility.yul\":8110:8228   */\n    tag_78:\n        /* \"#utility.yul\":8197:8221   */\n      tag_168\n        /* \"#utility.yul\":8215:8220   */\n      dup2\n        /* \"#utility.yul\":8197:8221   */\n      tag_51\n      jump\t// in\n    tag_168:\n        /* \"#utility.yul\":8192:8195   */\n      dup3\n        /* \"#utility.yul\":8185:8222   */\n      mstore\n        /* \"#utility.yul\":8110:8228   */\n      pop\n      pop\n      jump\t// out\n        /* \"#utility.yul\":8234:8676   */\n    tag_47:\n        /* \"#utility.yul\":8383:8387   */\n      0x00\n        /* \"#utility.yul\":8421:8423   */\n      0x60\n        /* \"#utility.yul\":8410:8419   */\n      dup3\n        /* \"#utility.yul\":8406:8424   */\n      add\n        /* \"#utility.yul\":8398:8424   */\n      swap1\n      pop\n        /* \"#utility.yul\":8434:8505   */\n      tag_170\n        /* \"#utility.yul\":8502:8503   */\n      0x00\n        /* \"#utility.yul\":8491:8500   */\n      dup4\n        /* \"#utility.yul\":8487:8504   */\n      add\n        /* \"#utility.yul\":8478:8484   */\n      dup7\n        /* \"#utility.yul\":8434:8505   */\n      tag_78\n      jump\t// in\n    tag_170:\n        /* \"#utility.yul\":8515:8587   */\n      tag_171\n        /* \"#utility.yul\":8583:8585   */\n      0x20\n        /* \"#utility.yul\":8572:8581   */\n      dup4\n        /* \"#utility.yul\":8568:8586   */\n      add\n        /* \"#utility.yul\":8559:8565   */\n      dup6\n        /* \"#utility.yul\":8515:8587   */\n      tag_59\n      jump\t// in\n    tag_171:\n        /* \"#utility.yul\":8597:8669   */\n      tag_172\n        /* \"#utility.yul\":8665:8667   */\n      0x40\n        /* \"#utility.yul\":8654:8663   */\n      dup4\n        /* \"#utility.yul\":8650:8668   */\n      add\n        /* \"#utility.yul\":8641:8647   */\n      dup5\n        /* \"#utility.yul\":8597:8669   */\n      tag_60\n      jump\t// in\n    tag_172:\n        /* \"#utility.yul\":8234:8676   */\n      swap5\n      swap4\n      pop\n      pop\n      pop\n      pop\n      jump\t// out\n\n    auxdata: 0xa26469706673582212209fcd3d0e0f6bbccd19ad1fe956a426699678fe816b96eeadc7d7811e3f9534ff64736f6c634300081a0033\n}\n",
				"bytecode": {
					"linkReferences": {},
					"object": "6080604052348015600e575f80fd5b506107a88061001c5f395ff3fe608060405234801561000f575f80fd5b5060043610610055575f3560e01c806315a8c465146100595780634a8f2a54146100895780634ccea526146100b95780637522b7d0146100e9578063b3f8675c14610119575b5f80fd5b610073600480360381019061006e91906103c7565b610135565b6040516100809190610444565b60405180910390f35b6100a3600480360381019061009e919061045d565b61017d565b6040516100b09190610497565b60405180910390f35b6100d360048036038101906100ce919061045d565b610191565b6040516100e09190610567565b60405180910390f35b61010360048036038101906100fe919061045d565b61022d565b60405161011091906105a1565b60405180910390f35b610133600480360381019061012e919061061b565b610249565b005b6001602052815f5260405f20818154811061014e575f80fd5b905f5260205f20015f915091509054906101000a900473ffffffffffffffffffffffffffffffffffffffff1681565b5f602052805f5260405f205f915090505481565b606060015f8381526020019081526020015f2080548060200260200160405190810160405280929190818152602001828054801561022157602002820191905f5260205f20905b815f9054906101000a900473ffffffffffffffffffffffffffffffffffffffff1673ffffffffffffffffffffffffffffffffffffffff16815260200190600101908083116101d8575b50505050509050919050565b5f60015f808481526020019081526020015f2054119050919050565b5f828260405160200161025d9291906106a2565b6040516020818303038152906040528051906020012090505f808281526020019081526020015f205f815480929190610295906106e7565b919050555060015f8281526020019081526020015f2033908060018154018082558091505060019003905f5260205f20015f9091909190916101000a81548173ffffffffffffffffffffffffffffffffffffffff021916908373ffffffffffffffffffffffffffffffffffffffff1602179055507f06582ad81e1c58e7f18d6ad6e8dceb726873d0d88861bf0704c6aa41cbad23a081335f808581526020019081526020015f205460405161034c9392919061073d565b60405180910390a1505050565b5f80fd5b5f80fd5b5f819050919050565b61037381610361565b811461037d575f80fd5b50565b5f8135905061038e8161036a565b92915050565b5f819050919050565b6103a681610394565b81146103b0575f80fd5b50565b5f813590506103c18161039d565b92915050565b5f80604083850312156103dd576103dc610359565b5b5f6103ea85828601610380565b92505060206103fb858286016103b3565b9150509250929050565b5f73ffffffffffffffffffffffffffffffffffffffff82169050919050565b5f61042e82610405565b9050919050565b61043e81610424565b82525050565b5f6020820190506104575f830184610435565b92915050565b5f6020828403121561047257610471610359565b5b5f61047f84828501610380565b91505092915050565b61049181610394565b82525050565b5f6020820190506104aa5f830184610488565b92915050565b5f81519050919050565b5f82825260208201905092915050565b5f819050602082019050919050565b6104e281610424565b82525050565b5f6104f383836104d9565b60208301905092915050565b5f602082019050919050565b5f610515826104b0565b61051f81856104ba565b935061052a836104ca565b805f5b8381101561055a57815161054188826104e8565b975061054c836104ff565b92505060018101905061052d565b5085935050505092915050565b5f6020820190508181035f83015261057f818461050b565b905092915050565b5f8115159050919050565b61059b81610587565b82525050565b5f6020820190506105b45f830184610592565b92915050565b5f80fd5b5f80fd5b5f80fd5b5f8083601f8401126105db576105da6105ba565b5b8235905067ffffffffffffffff8111156105f8576105f76105be565b5b602083019150836001820283011115610614576106136105c2565b5b9250929050565b5f806020838503121561063157610630610359565b5b5f83013567ffffffffffffffff81111561064e5761064d61035d565b5b61065a858286016105c6565b92509250509250929050565b5f81905092915050565b828183375f83830152505050565b5f6106898385610666565b9350610696838584610670565b82840190509392505050565b5f6106ae82848661067e565b91508190509392505050565b7f4e487b71000000000000000000000000000000000000000000000000000000005f52601160045260245ffd5b5f6106f182610394565b91507fffffffffffffffffffffffffffffffffffffffffffffffffffffffffffffffff8203610723576107226106ba565b5b600182019050919050565b61073781610361565b82525050565b5f6060820190506107505f83018661072e565b61075d6020830185610435565b61076a6040830184610488565b94935050505056fea26469706673582212209fcd3d0e0f6bbccd19ad1fe956a426699678fe816b96eeadc7d7811e3f9534ff64736f6c634300081a0033",
					"opcodes": "PUSH1 0x80 PUSH1 0x40 MSTORE CALLVALUE DUP1 ISZERO PUSH1 0xE JUMPI PUSH0 DUP1 REVERT JUMPDEST POP PUSH2 0x7A8 DUP1 PUSH2 0x1C PUSH0 CODECOPY PUSH0 RETURN INVALID PUSH1 0x80 PUSH1 0x40 MSTORE CALLVALUE DUP1 ISZERO PUSH2 0xF JUMPI PUSH0 DUP1 REVERT JUMPDEST POP PUSH1 0x4 CALLDATASIZE LT PUSH2 0x55 JUMPI PUSH0 CALLDATALOAD PUSH1 0xE0 SHR DUP1 PUSH4 0x15A8C465 EQ PUSH2 0x59 JUMPI DUP1 PUSH4 0x4A8F2A54 EQ PUSH2 0x89 JUMPI DUP1 PUSH4 0x4CCEA526 EQ PUSH2 0xB9 JUMPI DUP1 PUSH4 0x7522B7D0 EQ PUSH2 0xE9 JUMPI DUP1 PUSH4 0xB3F8675C EQ PUSH2 0x119 JUMPI JUMPDEST PUSH0 DUP1 REVERT JUMPDEST PUSH2 0x73 PUSH1 0x4 DUP1 CALLDATASIZE SUB DUP2 ADD SWAP1 PUSH2 0x6E SWAP2 SWAP1 PUSH2 0x3C7 JUMP JUMPDEST PUSH2 0x135 JUMP JUMPDEST PUSH1 0x40 MLOAD PUSH2 0x80 SWAP2 SWAP1 PUSH2 0x444 JUMP JUMPDEST PUSH1 0x40 MLOAD DUP1 SWAP2 SUB SWAP1 RETURN JUMPDEST PUSH2 0xA3 PUSH1 0x4 DUP1 CALLDATASIZE SUB DUP2 ADD SWAP1 PUSH2 0x9E SWAP2 SWAP1 PUSH2 0x45D JUMP JUMPDEST PUSH2 0x17D JUMP JUMPDEST PUSH1 0x40 MLOAD PUSH2 0xB0 SWAP2 SWAP1 PUSH2 0x497 JUMP JUMPDEST PUSH1 0x40 MLOAD DUP1 SWAP2 SUB SWAP1 RETURN JUMPDEST PUSH2 0xD3 PUSH1 0x4 DUP1 CALLDATASIZE SUB DUP2 ADD SWAP1 PUSH2 0xCE SWAP2 SWAP1 PUSH2 0x45D JUMP JUMPDEST PUSH2 0x191 JUMP JUMPDEST PUSH1 0x40 MLOAD PUSH2 0xE0 SWAP2 SWAP1 PUSH2 0x567 JUMP JUMPDEST PUSH1 0x40 MLOAD DUP1 SWAP2 SUB SWAP1 RETURN JUMPDEST PUSH2 0x103 PUSH1 0x4 DUP1 CALLDATASIZE SUB DUP2 ADD SWAP1 PUSH2 0xFE SWAP2 SWAP1 PUSH2 0x45D JUMP JUMPDEST PUSH2 0x22D JUMP JUMPDEST PUSH1 0x40 MLOAD PUSH2 0x110 SWAP2 SWAP1 PUSH2 0x5A1 JUMP JUMPDEST PUSH1 0x40 MLOAD DUP1 SWAP2 SUB SWAP1 RETURN JUMPDEST PUSH2 0x133 PUSH1 0x4 DUP1 CALLDATASIZE SUB DUP2 ADD SWAP1 PUSH2 0x12E SWAP2 SWAP1 PUSH2 0x61B JUMP JUMPDEST PUSH2 0x249 JUMP JUMPDEST STOP JUMPDEST PUSH1 0x1 PUSH1 0x20 MSTORE DUP2 PUSH0 MSTORE PUSH1 0x40 PUSH0 KECCAK256 DUP2 DUP2 SLOAD DUP2 LT PUSH2 0x14E JUMPI PUSH0 DUP1 REVERT JUMPDEST SWAP1 PUSH0 MSTORE PUSH1 0x20 PUSH0 KECCAK256 ADD PUSH0 SWAP2 POP SWAP2 POP SWAP1 SLOAD SWAP1 PUSH2 0x100 EXP SWAP1 DIV PUSH20 0xFFFFFFFFFFFFFFFFFFFFFFFFFFFFFFFFFFFFFFFF AND DUP2 JUMP JUMPDEST PUSH0 PUSH1 0x20 MSTORE DUP1 PUSH0 MSTORE PUSH1 0x40 PUSH0 KECCAK256 PUSH0 SWAP2 POP SWAP1 POP SLOAD DUP2 JUMP JUMPDEST PUSH1 0x60 PUSH1 0x1 PUSH0 DUP4 DUP2 MSTORE PUSH1 0x20 ADD SWAP1 DUP2 MSTORE PUSH1 0x20 ADD PUSH0 KECCAK256 DUP1 SLOAD DUP1 PUSH1 0x20 MUL PUSH1 0x20 ADD PUSH1 0x40 MLOAD SWAP1 DUP2 ADD PUSH1 0x40 MSTORE DUP1 SWAP3 SWAP2 SWAP1 DUP2 DUP2 MSTORE PUSH1 0x20 ADD DUP3 DUP1 SLOAD DUP1 ISZERO PUSH2 0x221 JUMPI PUSH1 0x20 MUL DUP3 ADD SWAP2 SWAP1 PUSH0 MSTORE PUSH1 0x20 PUSH0 KECCAK256 SWAP1 JUMPDEST DUP2 PUSH0 SWAP1 SLOAD SWAP1 PUSH2 0x100 EXP SWAP1 DIV PUSH20 0xFFFFFFFFFFFFFFFFFFFFFFFFFFFFFFFFFFFFFFFF AND PUSH20 0xFFFFFFFFFFFFFFFFFFFFFFFFFFFFFFFFFFFFFFFF AND DUP2 MSTORE PUSH1 0x20 ADD SWAP1 PUSH1 0x1 ADD SWAP1 DUP1 DUP4 GT PUSH2 0x1D8 JUMPI JUMPDEST POP POP POP POP POP SWAP1 POP SWAP2 SWAP1 POP JUMP JUMPDEST PUSH0 PUSH1 0x1 PUSH0 DUP1 DUP5 DUP2 MSTORE PUSH1 0x20 ADD SWAP1 DUP2 MSTORE PUSH1 0x20 ADD PUSH0 KECCAK256 SLOAD GT SWAP1 POP SWAP2 SWAP1 POP JUMP JUMPDEST PUSH0 DUP3 DUP3 PUSH1 0x40 MLOAD PUSH1 0x20 ADD PUSH2 0x25D SWAP3 SWAP2 SWAP1 PUSH2 0x6A2 JUMP JUMPDEST PUSH1 0x40 MLOAD PUSH1 0x20 DUP2 DUP4 SUB SUB DUP2 MSTORE SWAP1 PUSH1 0x40 MSTORE DUP1 MLOAD SWAP1 PUSH1 0x20 ADD KECCAK256 SWAP1 POP PUSH0 DUP1 DUP3 DUP2 MSTORE PUSH1 0x20 ADD SWAP1 DUP2 MSTORE PUSH1 0x20 ADD PUSH0 KECCAK256 PUSH0 DUP2 SLOAD DUP1 SWAP3 SWAP2 SWAP1 PUSH2 0x295 SWAP1 PUSH2 0x6E7 JUMP JUMPDEST SWAP2 SWAP1 POP SSTORE POP PUSH1 0x1 PUSH0 DUP3 DUP2 MSTORE PUSH1 0x20 ADD SWAP1 DUP2 MSTORE PUSH1 0x20 ADD PUSH0 KECCAK256 CALLER SWAP1 DUP1 PUSH1 0x1 DUP2 SLOAD ADD DUP1 DUP3 SSTORE DUP1 SWAP2 POP POP PUSH1 0x1 SWAP1 SUB SWAP1 PUSH0 MSTORE PUSH1 0x20 PUSH0 KECCAK256 ADD PUSH0 SWAP1 SWAP2 SWAP1 SWAP2 SWAP1 SWAP2 PUSH2 0x100 EXP DUP2 SLOAD DUP2 PUSH20 0xFFFFFFFFFFFFFFFFFFFFFFFFFFFFFFFFFFFFFFFF MUL NOT AND SWAP1 DUP4 PUSH20 0xFFFFFFFFFFFFFFFFFFFFFFFFFFFFFFFFFFFFFFFF AND MUL OR SWAP1 SSTORE POP PUSH32 0x6582AD81E1C58E7F18D6AD6E8DCEB726873D0D88861BF0704C6AA41CBAD23A0 DUP2 CALLER PUSH0 DUP1 DUP6 DUP2 MSTORE PUSH1 0x20 ADD SWAP1 DUP2 MSTORE PUSH1 0x20 ADD PUSH0 KECCAK256 SLOAD PUSH1 0x40 MLOAD PUSH2 0x34C SWAP4 SWAP3 SWAP2 SWAP1 PUSH2 0x73D JUMP JUMPDEST PUSH1 0x40 MLOAD DUP1 SWAP2 SUB SWAP1 LOG1 POP POP POP JUMP JUMPDEST PUSH0 DUP1 REVERT JUMPDEST PUSH0 DUP1 REVERT JUMPDEST PUSH0 DUP2 SWAP1 POP SWAP2 SWAP1 POP JUMP JUMPDEST PUSH2 0x373 DUP2 PUSH2 0x361 JUMP JUMPDEST DUP2 EQ PUSH2 0x37D JUMPI PUSH0 DUP1 REVERT JUMPDEST POP JUMP JUMPDEST PUSH0 DUP2 CALLDATALOAD SWAP1 POP PUSH2 0x38E DUP2 PUSH2 0x36A JUMP JUMPDEST SWAP3 SWAP2 POP POP JUMP JUMPDEST PUSH0 DUP2 SWAP1 POP SWAP2 SWAP1 POP JUMP JUMPDEST PUSH2 0x3A6 DUP2 PUSH2 0x394 JUMP JUMPDEST DUP2 EQ PUSH2 0x3B0 JUMPI PUSH0 DUP1 REVERT JUMPDEST POP JUMP JUMPDEST PUSH0 DUP2 CALLDATALOAD SWAP1 POP PUSH2 0x3C1 DUP2 PUSH2 0x39D JUMP JUMPDEST SWAP3 SWAP2 POP POP JUMP JUMPDEST PUSH0 DUP1 PUSH1 0x40 DUP4 DUP6 SUB SLT ISZERO PUSH2 0x3DD JUMPI PUSH2 0x3DC PUSH2 0x359 JUMP JUMPDEST JUMPDEST PUSH0 PUSH2 0x3EA DUP6 DUP3 DUP7 ADD PUSH2 0x380 JUMP JUMPDEST SWAP3 POP POP PUSH1 0x20 PUSH2 0x3FB DUP6 DUP3 DUP7 ADD PUSH2 0x3B3 JUMP JUMPDEST SWAP2 POP POP SWAP3 POP SWAP3 SWAP1 POP JUMP JUMPDEST PUSH0 PUSH20 0xFFFFFFFFFFFFFFFFFFFFFFFFFFFFFFFFFFFFFFFF DUP3 AND SWAP1 POP SWAP2 SWAP1 POP JUMP JUMPDEST PUSH0 PUSH2 0x42E DUP3 PUSH2 0x405 JUMP JUMPDEST SWAP1 POP SWAP2 SWAP1 POP JUMP JUMPDEST PUSH2 0x43E DUP2 PUSH2 0x424 JUMP JUMPDEST DUP3 MSTORE POP POP JUMP JUMPDEST PUSH0 PUSH1 0x20 DUP3 ADD SWAP1 POP PUSH2 0x457 PUSH0 DUP4 ADD DUP5 PUSH2 0x435 JUMP JUMPDEST SWAP3 SWAP2 POP POP JUMP JUMPDEST PUSH0 PUSH1 0x20 DUP3 DUP5 SUB SLT ISZERO PUSH2 0x472 JUMPI PUSH2 0x471 PUSH2 0x359 JUMP JUMPDEST JUMPDEST PUSH0 PUSH2 0x47F DUP5 DUP3 DUP6 ADD PUSH2 0x380 JUMP JUMPDEST SWAP2 POP POP SWAP3 SWAP2 POP POP JUMP JUMPDEST PUSH2 0x491 DUP2 PUSH2 0x394 JUMP JUMPDEST DUP3 MSTORE POP POP JUMP JUMPDEST PUSH0 PUSH1 0x20 DUP3 ADD SWAP1 POP PUSH2 0x4AA PUSH0 DUP4 ADD DUP5 PUSH2 0x488 JUMP JUMPDEST SWAP3 SWAP2 POP POP JUMP JUMPDEST PUSH0 DUP2 MLOAD SWAP1 POP SWAP2 SWAP1 POP JUMP JUMPDEST PUSH0 DUP3 DUP3 MSTORE PUSH1 0x20 DUP3 ADD SWAP1 POP SWAP3 SWAP2 POP POP JUMP JUMPDEST PUSH0 DUP2 SWAP1 POP PUSH1 0x20 DUP3 ADD SWAP1 POP SWAP2 SWAP1 POP JUMP JUMPDEST PUSH2 0x4E2 DUP2 PUSH2 0x424 JUMP JUMPDEST DUP3 MSTORE POP POP JUMP JUMPDEST PUSH0 PUSH2 0x4F3 DUP4 DUP4 PUSH2 0x4D9 JUMP JUMPDEST PUSH1 0x20 DUP4 ADD SWAP1 POP SWAP3 SWAP2 POP POP JUMP JUMPDEST PUSH0 PUSH1 0x20 DUP3 ADD SWAP1 POP SWAP2 SWAP1 POP JUMP JUMPDEST PUSH0 PUSH2 0x515 DUP3 PUSH2 0x4B0 JUMP JUMPDEST PUSH2 0x51F DUP2 DUP6 PUSH2 0x4BA JUMP JUMPDEST SWAP4 POP PUSH2 0x52A DUP4 PUSH2 0x4CA JUMP JUMPDEST DUP1 PUSH0 JUMPDEST DUP4 DUP2 LT ISZERO PUSH2 0x55A JUMPI DUP2 MLOAD PUSH2 0x541 DUP9 DUP3 PUSH2 0x4E8 JUMP JUMPDEST SWAP8 POP PUSH2 0x54C DUP4 PUSH2 0x4FF JUMP JUMPDEST SWAP3 POP POP PUSH1 0x1 DUP2 ADD SWAP1 POP PUSH2 0x52D JUMP JUMPDEST POP DUP6 SWAP4 POP POP POP POP SWAP3 SWAP2 POP POP JUMP JUMPDEST PUSH0 PUSH1 0x20 DUP3 ADD SWAP1 POP DUP2 DUP2 SUB PUSH0 DUP4 ADD MSTORE PUSH2 0x57F DUP2 DUP5 PUSH2 0x50B JUMP JUMPDEST SWAP1 POP SWAP3 SWAP2 POP POP JUMP JUMPDEST PUSH0 DUP2 ISZERO ISZERO SWAP1 POP SWAP2 SWAP1 POP JUMP JUMPDEST PUSH2 0x59B DUP2 PUSH2 0x587 JUMP JUMPDEST DUP3 MSTORE POP POP JUMP JUMPDEST PUSH0 PUSH1 0x20 DUP3 ADD SWAP1 POP PUSH2 0x5B4 PUSH0 DUP4 ADD DUP5 PUSH2 0x592 JUMP JUMPDEST SWAP3 SWAP2 POP POP JUMP JUMPDEST PUSH0 DUP1 REVERT JUMPDEST PUSH0 DUP1 REVERT JUMPDEST PUSH0 DUP1 REVERT JUMPDEST PUSH0 DUP1 DUP4 PUSH1 0x1F DUP5 ADD SLT PUSH2 0x5DB JUMPI PUSH2 0x5DA PUSH2 0x5BA JUMP JUMPDEST JUMPDEST DUP3 CALLDATALOAD SWAP1 POP PUSH8 0xFFFFFFFFFFFFFFFF DUP2 GT ISZERO PUSH2 0x5F8 JUMPI PUSH2 0x5F7 PUSH2 0x5BE JUMP JUMPDEST JUMPDEST PUSH1 0x20 DUP4 ADD SWAP2 POP DUP4 PUSH1 0x1 DUP3 MUL DUP4 ADD GT ISZERO PUSH2 0x614 JUMPI PUSH2 0x613 PUSH2 0x5C2 JUMP JUMPDEST JUMPDEST SWAP3 POP SWAP3 SWAP1 POP JUMP JUMPDEST PUSH0 DUP1 PUSH1 0x20 DUP4 DUP6 SUB SLT ISZERO PUSH2 0x631 JUMPI PUSH2 0x630 PUSH2 0x359 JUMP JUMPDEST JUMPDEST PUSH0 DUP4 ADD CALLDATALOAD PUSH8 0xFFFFFFFFFFFFFFFF DUP2 GT ISZERO PUSH2 0x64E JUMPI PUSH2 0x64D PUSH2 0x35D JUMP JUMPDEST JUMPDEST PUSH2 0x65A DUP6 DUP3 DUP7 ADD PUSH2 0x5C6 JUMP JUMPDEST SWAP3 POP SWAP3 POP POP SWAP3 POP SWAP3 SWAP1 POP JUMP JUMPDEST PUSH0 DUP2 SWAP1 POP SWAP3 SWAP2 POP POP JUMP JUMPDEST DUP3 DUP2 DUP4 CALLDATACOPY PUSH0 DUP4 DUP4 ADD MSTORE POP POP POP JUMP JUMPDEST PUSH0 PUSH2 0x689 DUP4 DUP6 PUSH2 0x666 JUMP JUMPDEST SWAP4 POP PUSH2 0x696 DUP4 DUP6 DUP5 PUSH2 0x670 JUMP JUMPDEST DUP3 DUP5 ADD SWAP1 POP SWAP4 SWAP3 POP POP POP JUMP JUMPDEST PUSH0 PUSH2 0x6AE DUP3 DUP5 DUP7 PUSH2 0x67E JUMP JUMPDEST SWAP2 POP DUP2 SWAP1 POP SWAP4 SWAP3 POP POP POP JUMP JUMPDEST PUSH32 0x4E487B7100000000000000000000000000000000000000000000000000000000 PUSH0 MSTORE PUSH1 0x11 PUSH1 0x4 MSTORE PUSH1 0x24 PUSH0 REVERT JUMPDEST PUSH0 PUSH2 0x6F1 DUP3 PUSH2 0x394 JUMP JUMPDEST SWAP2 POP PUSH32 0xFFFFFFFFFFFFFFFFFFFFFFFFFFFFFFFFFFFFFFFFFFFFFFFFFFFFFFFFFFFFFFFF DUP3 SUB PUSH2 0x723 JUMPI PUSH2 0x722 PUSH2 0x6BA JUMP JUMPDEST JUMPDEST PUSH1 0x1 DUP3 ADD SWAP1 POP SWAP2 SWAP1 POP JUMP JUMPDEST PUSH2 0x737 DUP2 PUSH2 0x361 JUMP JUMPDEST DUP3 MSTORE POP POP JUMP JUMPDEST PUSH0 PUSH1 0x60 DUP3 ADD SWAP1 POP PUSH2 0x750 PUSH0 DUP4 ADD DUP7 PUSH2 0x72E JUMP JUMPDEST PUSH2 0x75D PUSH1 0x20 DUP4 ADD DUP6 PUSH2 0x435 JUMP JUMPDEST PUSH2 0x76A PUSH1 0x40 DUP4 ADD DUP5 PUSH2 0x488 JUMP JUMPDEST SWAP5 SWAP4 POP POP POP POP JUMP INVALID LOG2 PUSH5 0x6970667358 0x22 SLT KECCAK256 SWAP16 0xCD RETURNDATASIZE 0xE 0xF PUSH12 0xBCCD19AD1FE956A426699678 INVALID DUP2 PUSH12 0x96EEADC7D7811E3F9534FF64 PUSH20 0x6F6C634300081A00330000000000000000000000 "
				},
				"gasEstimates": {
					"creation": {
						"codeDepositCost": "392000",
						"executionCost": "428",
						"totalCost": "392428"
					},
					"external": {
						"getUsers(bytes32)": "infinite",
						"isReused(bytes32)": "2825",
						"track(string)": "infinite",
						"usage(bytes32)": "2753",
						"users(bytes32,uint256)": "5160"
					}
				},
				"methodIdentifiers": {
					"getUsers(bytes32)": "4ccea526",
					"isReused(bytes32)": "7522b7d0",
					"track(string)": "b3f8675c",
					"usage(bytes32)": "4a8f2a54",
					"users(bytes32,uint256)": "15a8c465"
				}
			},
			"storageLayout": {
				"storage": [
					{
						"astId": 4,
						"contract": "O/Replay & Mutation Logger.sol:PreimageDriftTracker",
						"label": "usage",
						"offset": 0,
						"slot": "0",
						"type": "t_mapping(t_bytes32,t_uint256)"
					},
					{
						"astId": 9,
						"contract": "O/Replay & Mutation Logger.sol:PreimageDriftTracker",
						"label": "users",
						"offset": 0,
						"slot": "1",
						"type": "t_mapping(t_bytes32,t_array(t_address)dyn_storage)"
					}
				],
				"types": {
					"t_address": {
						"encoding": "inplace",
						"label": "address",
						"numberOfBytes": "20"
					},
					"t_array(t_address)dyn_storage": {
						"base": "t_address",
						"encoding": "dynamic_array",
						"label": "address[]",
						"numberOfBytes": "32"
					},
					"t_bytes32": {
						"encoding": "inplace",
						"label": "bytes32",
						"numberOfBytes": "32"
					},
					"t_mapping(t_bytes32,t_array(t_address)dyn_storage)": {
						"encoding": "mapping",
						"key": "t_bytes32",
						"label": "mapping(bytes32 => address[])",
						"numberOfBytes": "32",
						"value": "t_array(t_address)dyn_storage"
					},
					"t_mapping(t_bytes32,t_uint256)": {
						"encoding": "mapping",
						"key": "t_bytes32",
						"label": "mapping(bytes32 => uint256)",
						"numberOfBytes": "32",
						"value": "t_uint256"
					},
					"t_uint256": {
						"encoding": "inplace",
						"label": "uint256",
						"numberOfBytes": "32"
					}
				}
			},
			"userdoc": {
				"kind": "user",
				"methods": {},
				"version": 1
			}
		}
	}
}